	 14122	 14122#	 14140	 14140#	 14158	 14158#	 14176	 14176#	 14194	 14194#	 14212	 14212#	 14230	 14230#
	 14248	 14248#	 14266	 14266#	 14284	 14284#	 14302	 14302#	 14320	 14320#	 14338	 14338#	 14356	 14356#
	 14374	 14374#	 14392	 14392#	 14410	 14410#	 14428	 14428#	 14446	 14446#	 14815#	 14849	 14849#	 14876
	 14876#	 14903	 14903#	 14930	 14930#	 14957	 14957#	 14984	 14984#	 15011	 15011#	 15038	 15038#	 15065
	 15065#	 15092	 15092#	 15119	 15119#	 15146	 15146#	 15173	 15173#	 15200	 15200#	 15227	 15227#	 15254
	 15254#	 15281	 15281#	 15308	 15308#	 15355	 15355#	 15377	 15377#	 15399	 15399#	 15421	 15421#	 15443
	 15443#	 15465	 15465#	 15487	 15487#	 15509	 15509#	 15531	 15531#	 15553	 15553#	 15575	 15575#	 15597
	 15597#	 15619	 15619#	 15641	 15641#	 15663	 15663#	 15685	 15685#	 15707	 15707#	 15729	 15729#	 15743#
	 15765	 15765#	 15783	 15783#	 15801	 15801#	 15819	 15819#	 15837	 15837#	 15855	 15855#	 15873	 15873#
	 15891	 15891#	 15909	 15909#	 15927	 15927#	 15945	 15945#	 15963	 15963#	 15981	 15981#	 15999	 15999#
	 16017	 16017#	 16035	 16035#	 16053	 16053#	 16071	 16071#	 16089	 16089#	 16107	 16107#	 16125	 16125#
	 16143	 16143#	 16161	 16161#	 16179	 16179#	 16197	 16197#	 16215	 16215#	 16233	 16233#	 16251	 16251#
	 16269	 16269#	 16287	 16287#	 16305	 16305#	 16323	 16323#	 16341	 16341#	 16359	 16359#	 16377	 16377#
	 16395	 16395#	 16408#	 16430	 16430#	 16448	 16448#	 16466	 16466#	 16484	 16484#	 16502	 16502#	 16520
	 16520#	 16538	 16538#	 16556	 16556#	 16574	 16574#	 16592	 16592#	 16610	 16610#	 16628	 16628#	 16646
	 16646#	 16664	 16664#	 16682	 16682#	 16700	 16700#	 16718	 16718#	 16736	 16736#	 16754	 16754#	 16772
	 16772#	 16790	 16790#	 16808	 16808#	 16826	 16826#	 16844	 16844#	 16862	 16862#	 16880	 16880#	 16898
	 16898#	 16916	 16916#	 16934	 16934#	 16952	 16952#	 16970	 16970#	 16988	 16988#	 17006	 17006#	 17024
	 17024#	 17042	 17042#	 17060	 17060#	 17077#	 17102	 17102#	 17122	 17122#	 17142	 17142#	 17162	 17162#
	 17182	 17182#	 17202	 17202#	 17222	 17222#	 17242	 17242#	 17262	 17262#	 17282	 17282#	 17302	 17302#
	 17322	 17322#	 17342	 17342#	 17362	 17362#	 17382	 17382#	 17402	 17402#	 17422	 17422#	 17442	 17442#
	 17456#	 17481	 17481#	 17501	 17501#	 17521	 17521#	 17541	 17541#	 17561	 17561#	 17581	 17581#	 17601
	 17601#	 17621	 17621#	 17641	 17641#	 17661	 17661#	 17681	 17681#	 17701	 17701#	 17721	 17721#	 17741
	 17741#	 17761	 17761#	 17781	 17781#	 17801	 17801#	 17821	 17821#	 17835#	 17869	 17869#	 17894	 17894#
	 17919	 17919#	 17944	 17944#	 17969	 17969#	 17994	 17994#	 18019	 18019#	 18044	 18044#	 18069	 18069#
	 18094	 18094#	 18119	 18119#	 18144	 18144#	 18169	 18169#	 18194	 18194#	 18219	 18219#	 18244	 18244#
	 18269	 18269#	 18294	 18294#	 18310#	 18344	 18344#	 18369	 18369#	 18394	 18394#	 18419	 18419#	 18444
	 18444#	 18469	 18469#	 18494	 18494#	 18519	 18519#	 18544	 18544#	 18569	 18569#	 18594	 18594#	 18619
	 18619#	 18644	 18644#	 18669	 18669#	 18694	 18694#	 18719	 18719#	 18744	 18744#	 18769	 18769#	 22969#
	 22994	 22994#	 23014	 23014#	 23034	 23034#	 23054	 23054#	 23074	 23074#	 23094	 23094#	 23114	 23114#
	 23134	 23134#	 23154	 23154#	 23174	 23174#	 23194	 23194#	 23214	 23214#	 23234	 23234#	 23254	 23254#
	 23274	 23274#	 23294	 23294#	 23314	 23314#	 23334	 23334#	 23373	 23373#	 23393	 23393#	 23413	 23413#
	 23433	 23433#	 23453	 23453#	 23473	 23473#	 23493	 23493#	 23513	 23513#	 23533	 23533#	 23553	 23553#
	 23573	 23573#	 23593	 23593#	 23613	 23613#	 23633	 23633#	 23653	 23653#	 23673	 23673#	 23693	 23693#
	 23713	 23713#	 23731#	 23754	 23754#	 23774	 23774#	 23794	 23794#	 23814	 23814#	 23834	 23834#	 23854
	 23854#	 23874	 23874#	 23894	 23894#	 23914	 23914#	 23934	 23934#	 23954	 23954#	 23974	 23974#	 23994
	 23994#	 24014	 24014#	 24034	 24034#	 24054	 24054#	 24074	 24074#	 24094	 24094#	 24133	 24133#	 24153
	 24153#	 24173	 24173#	 24193	 24193#	 24213	 24213#	 24233	 24233#	 24253	 24253#	 24273	 24273#	 24293
	 24293#	 24313	 24313#	 24333	 24333#	 24353	 24353#	 24373	 24373#	 24393	 24393#	 24413	 24413#	 24433
	 24433#	 24453	 24453#	 24473	 24473#	 24491#	 24518	 24518#	 24539	 24539#	 24560	 24560#	 24581	 24581#
	 24602	 24602#	 24623	 24623#	 24644	 24644#	 24665	 24665#	 24686	 24686#	 24707	 24707#	 24728	 24728#
	 24749	 24749#	 24770	 24770#	 24791	 24791#	 24812	 24812#	 24833	 24833#	 24854	 24854#	 24874	 24874#
	 24913	 24913#	 24934	 24934#	 24955	 24955#	 24976	 24976#	 24997	 24997#	 25018	 25018#	 25039	 25039#
	 25060	 25060#	 25081	 25081#	 25102	 25102#	 25123	 25123#	 25144	 25144#	 25165	 25165#	 25186	 25186#
	 25207	 25207#	 25228	 25228#	 25249	 25249#	 25269	 25269#	 25286#	 25313	 25313#	 25334	 25334#	 25355
	 25355#	 25376	 25376#	 25397	 25397#	 25418	 25418#	 25439	 25439#	 25460	 25460#	 25481	 25481#	 25502
	 25502#	 25523	 25523#	 25544	 25544#	 25565	 25565#	 25586	 25586#	 25607	 25607#	 25628	 25628#	 25649
	 25649#	 25670	 25670#	 25709	 25709#	 25730	 25730#	 25751	 25751#	 25772	 25772#	 25793	 25793#	 25814
	 25814#	 25835	 25835#	 25856	 25856#	 25877	 25877#	 25898	 25898#	 25919	 25919#	 25940	 25940#	 25961
	 25961#	 25982	 25982#	 26003	 26003#	 26024	 26024#	 26045	 26045#	 26066	 26066#	 26147#	 26213	 26213#
	 26231	 26231#	 26249	 26249#	 26267	 26267#	 26285	 26285#	 26303	 26303#	 26321	 26321#	 26339	 26339#
	 26357	 26357#	 26375	 26375#	 26393	 26393#	 26411	 26411#	 26429	 26429#	 26447	 26447#	 26465	 26465#
	 26483	 26483#	 26495#	 26577	 26577#	 26596	 26596#	 26615	 26615#	 26634	 26634#	 26653	 26653#	 26672
	 26672#	 26691	 26691#	 26710	 26710#	 26729	 26729#	 26748	 26748#	 26767	 26767#	 26786	 26786#	 26805
	 26805#	 26824	 26824#	 26843	 26843#	 26855#	 26878	 26878#	 26896	 26896#	 26914	 26914#	 26932	 26932#
	 26950	 26950#	 26968	 26968#	 26986	 26986#	 27004	 27004#	 27022	 27022#	 27040	 27040#	 27058	 27058#
	 27076	 27076#	 27094	 27094#	 27112	 27112#	 27130	 27130#	 27142#	 27170	 27170#	 27191	 27191#	 27212
	 27212#	 27233	 27233#	 27254	 27254#	 27275	 27275#	 27296	 27296#	 27317	 27317#	 27338	 27338#	 27359
	 27359#	 27380	 27380#	 27401	 27401#	 27422	 27422#	 27443	 27443#	 27464	 27464#	 27500#	 27531	 27531#
	 27555	 27555#	 27579	 27579#	 27603	 27603#	 27627	 27627#	 27651	 27651#	 27675	 27675#	 27699	 27699#
	 27723	 27723#	 27747	 27747#	 27771	 27771#	 27795	 27795#	 27819	 27819#	 27843	 27843#	 27867	 27867#
	 27891	 27891#	 27915	 27915#	 27939	 27939#	 27955#	 27986	 27986#	 28010	 28010#	 28034	 28034#	 28058
	 28058#	 28082	 28082#	 28106	 28106#	 28130	 28130#	 28154	 28154#	 28178	 28178#	 28202	 28202#	 28226
	 28226#	 28250	 28250#	 28274	 28274#	 28298	 28298#	 28322	 28322#	 28346	 28346#	 28370	 28370#	 28394
	 28394#	 28429#	 28460	 28460#	 28484	 28484#	 28508	 28508#	 28532	 28532#	 28556	 28556#	 28580	 28580#
	 28604	 28604#	 28628	 28628#	 28652	 28652#	 28676	 28676#	 28700	 28700#	 28724	 28724#	 28748	 28748#
	 28772	 28772#	 28796	 28796#	 28820	 28820#	 28844	 28844#	 28868	 28868#	 28884#	 28915	 28915#	 28939
	 28939#	 28963	 28963#	 28987	 28987#	 29011	 29011#	 29035	 29035#	 29059	 29059#	 29083	 29083#	 29107
	 29107#	 29131	 29131#	 29155	 29155#	 29179	 29179#	 29203	 29203#	 29227	 29227#	 29251	 29251#	 29275
	 29275#	 29299	 29299#	 29323	 29323#	 29341#	 29363	 29363#	 29377	 29377#	 29391	 29391#	 29405	 29405#
	 29419	 29419#	 29433	 29433#	 29447	 29447#	 29461	 29461#	 29475	 29475#	 29489	 29489#	 29503	 29503#
	 29517	 29517#	 29531	 29531#	 29545	 29545#	 29559	 29559#	 29574#	 29595	 29595#	 29609	 29609#	 29623
	 29623#	 29637	 29637#	 29651	 29651#	 29665	 29665#	 29679	 29679#	 29693	 29693#	 29707	 29707#	 29721
	 29721#	 29735	 29735#	 29749	 29749#	 29763	 29763#	 29777	 29777#	 29791	 29791#
SNTRP	   364#
SPACE	   560#
SRTDDT	   390#
START	   378	   789	   798	   813	   817	   871#
START1	   397#
START2	   398#
START3	   399#
START4	   400#
START5	   401#
STARTA	    66	    67	    68	    69	    70	    71	    72	    73	    74	    75	    76	   393	   815	   826
	   835	   842	   852	   878	   881	   904#
STRP	   364#
SUBLNK	   132#	   394
SWPTAB	   687#
SWTEXR	   409#
SYSEXR	   382#
TAB	   561#
TABLE	 51293#	 51314
TESTPC	   436#
TICKS	   439#
TN0	   364#
TN1	   364#
TNUMB	 43341#	 43341	 43350	 43359#	 43359	 43367	 43376#	 43376	 43386	 43395#	 43395	 43406	 43415#	 43415
	 43419	 43428#	 43428	 43437	 43446#	 43446	 43599	 43608#	 43608	 43618	 43627#	 43627	 43636	 43645#
	 43645	 43654	 43663#	 43663	 43702	 43711#	 43711	 43721	 43891#	 43891	 43904	 43919#	 43919	 43932
	 43947#	 43947	 43960	 43975#	 43975	 43988	 44003#	 44003	 44016	 44031#	 44031	 44044	 44059#	 44059
	 44072	 44106#	 44106	 44119	 44138#	 44138	 44151	 44170#	 44170	 44183	 44202#	 44202	 44215	 44234#
	 44234	 44247	 44266#	 44266	 44279	 44298#	 44298	 44311	 44354#	 44354	 44369	 44396#	 44396	 44411
	 44438#	 44438	 44453	 44480#	 44480	 44495	 44522#	 44522	 44537	 44564#	 44564	 44579	 44606#	 44606
	 44621	 44650#	 44650	 44661	 44670#	 44670	 44683	 44692#	 44692	 44705	 44714#	 44714	 44726	 44735#
	 44735	 44747	 44761#	 44761	 44772	 44781#	 44781	 44794	 44803#	 44803	 44816	 44825#	 44825	 44837
	 44846#	 44846	 44858	 44872#	 44872	 44883	 44892#	 44892	 44905	 44914#	 44914	 44927	 44936#	 44936
	 44948	 44957#	 44957	 44969	 44983#	 44983	 44994	 45003#	 45003	 45016	 45025#	 45025	 45038	 45047#
	 45047	 45059	 45068#	 45068	 45080	 45094#	 45094	 45105	 45114#	 45114	 45127	 45136#	 45136	 45149
	 45158#	 45158	 45170	 45179#	 45179	 45191	 45205#	 45205	 45216	 45225#	 45225	 45238	 45247#	 45247
	 45260	 45269#	 45269	 45281	 45290#	 45290	 45302	 45316#	 45316	 45327	 45336#	 45336	 45349	 45358#
	 45358	 45371	 45380#	 45380	 45392	 45401#	 45401	 45413	 45427#	 45427	 45438	 45447#	 45447	 45460
	 45469#	 45469	 45482	 45491#	 45491	 45503	 45512#	 45512	 45524	 45538#	 45538	 45549	 45558#	 45558
	 45571	 45580#	 45580	 45593	 45602#	 45602	 45614	 45623#	 45623	 45635	 45649#	 45649	 45660	 45669#
	 45669	 45682	 45691#	 45691	 45704	 45713#	 45713	 45725	 45734#	 45734	 45746	 45779#	 45779	 45793
	 45810#	 45810	 45824	 45841#	 45841	 45855	 45872#	 45872	 45886	 45903#	 45903	 45917	 45934#	 45934
	 45948	 45965#	 45965	 45979	 46432#	 46432	 46460	 46469#	 46469	 46497	 46506#	 46506	 46534	 46543#
	 46543	 46571	 46580#	 46580	 46608	 46617#	 46617	 46645	 46654#	 46654	 46682	 46691#	 46691	 46719
	 46728#	 46728	 46756	 46765#	 46765	 46793	 46802#	 46802	 46830	 46839#	 46839	 46867	 46876#	 46876
	 46904	 46913#	 46913	 46941	 46950#	 46950	 46978	 46987#	 46987	 47015	 47024#	 47024	 47052	 47061#
	 47061	 47089	 47098#	 47098	 47126	 47135#	 47135	 47163	 47172#	 47172	 47200	 47716#	 47716	 47731
	 47752#	 47752	 47767	 47788#	 47788	 47803	 47824#	 47824	 47839	 47860#	 47860	 47875	 47896#	 47896
	 47911	 47932#	 47932	 47947	 48573#	 48573	 48586	 48613#	 48613	 48626	 48653#	 48653	 48666	 48693#
	 48693	 48706	 48733#	 48733	 48746	 48773#	 48773	 48786	 48813#	 48813	 48826	 48868#	 48868	 48885
	 48909#	 48909	 48926	 48950#	 48950	 48967	 48991#	 48991	 49008	 49032#	 49032	 49049	 49073#	 49073
	 49090	 49114#	 49114	 49131	 49155#	 49155	 49172	 49196#	 49196	 49213	 49237#	 49237	 49254	 49278#
	 49278	 49295	 49319#	 49319	 49336	 49360#	 49360	 49377	 49401#	 49401	 49418	 49442#	 49442	 49459
	 49483#	 49483	 49500	 49524#	 49524	 49541	 49565#	 49565	 49582	 49606#	 49606	 49623	 49647#	 49647
	 49664	 49688#	 49688	 49705	 49729#	 49729	 49746	 49770#	 49770	 49787	 49811#	 49811	 49828	 49852#
	 49852	 49869	 49893#	 49893	 49910	 49934#	 49934	 49951	 49975#	 49975	 49992	 50016#	 50016	 50033
	 50057#	 50057	 50074	 50098#	 50098	 50115	 50144#	 50144	 50156	 50173#	 50173	 50185	 50202#	 50202
	 50214	 50231#	 50231	 50243	 50260#	 50260	 50272	 50289#	 50289	 50301	 50318#	 50318	 50330	 50347#
	 50347	 50359	 50376#	 50376	 50388	 50405#	 50405	 50417	 50434#	 50434	 50446	 50463#	 50463	 50475
	 50492#	 50492	 50504	 50521#	 50521	 50533	 50550#	 50550	 50562	 50579#	 50579	 50591	 50608#	 50608
	 50620	 50637#	 50637	 50649	 50666#	 50666	 50678	 50694#	 50694	 50706	 50722#	 50722	 50734	 50750#
	 50750	 50762	 50833#	 50833	 50847	 50865#	 50865	 50879	 50897#	 50897	 50911	 50929#	 50929	 50943
	 50961#	 50961	 50975	 50993#	 50993	 51007	 51025#	 51025	 51039	 51057#	 51057	 51071	 51085#	 51085
	 51113	 51129	 51140#	 51140	 51154	 51166#	 51166	 51179	 51185
TOTALS	    98#
TPEND	 51239	 51241	 51243	 51245	 51247	 51249	 51251	 51252	 51254#
TRAPPI	 42942	 51221#	 51233
TRP0A	 46001	 46010#
TRP1A	 46022	 46031#
TRP2A	 46043	 46052#
TRP3A	 46064	 46073#
TRP3TP	   364#
TRP4A	 46085	 46094#
TRP5A	 46107	 46116#
TRP6A	 46128	 46137#
TRPCLR	 42944	 51193#	 51201
TRPENB	   364#
TRPFIL	 51224	 51238#
TRPSET	 43295	 51310#	 51325
TTNBRF	   619#
TTYFIL	   535#
TTYSPD	   536#
TXTINH	   109#
UOLIP	   364#
UOUSR	   364#
USER	   426#	   782	   785	   787	   788	   822	   871#	   871	   874	   876	   877	 42925	 42928	 42930
	 42931
USERF	    44#	   364#	   784	   873	 42927	 46014	 46035	 46056	 46077	 46098	 46120	 46141	 46149	 46173
	 46191	 46209	 46227	 46245	 46263	 46281	 46315	 46332	 46349	 46366	 46383	 46400	 46417	 46443
	 46480	 46517	 46554	 46591	 46628	 46665	 46702	 46739	 46776	 46813	 46850	 46887	 46924	 46961
	 46998	 47035	 47072	 47109	 47146	 47183	 51087
USRASB	    34#	   416
USRCMP	   364#
USRCRF	   545#
USRIO0	 51088	 51137#
USRIO1	 51163#
USRLFF	   544#
USRPFW	   364#
UUO	 45999	 51283#
UUO01	 48859#
UUO02	 48880	 48900#
UUO03	 48921	 48941#
UUO04	 48962	 48982#
UUO05	 49003	 49023#
UUO06	 49044	 49064#
UUO07	 49085	 49105#
UUO10	 49126	 49146#
UUO11	 49167	 49187#
UUO12	 49208	 49228#
UUO13	 49249	 49269#
UUO14	 49290	 49310#
UUO15	 49331	 49351#
UUO16	 49372	 49392#
UUO17	 49413	 49433#
UUO20	 49454	 49474#
UUO21	 49495	 49515#
UUO22	 49536	 49556#
UUO23	 49577	 49597#
UUO24	 49618	 49638#
UUO25	 49659	 49679#
UUO26	 49700	 49720#
UUO27	 49741	 49761#
UUO30	 49782	 49802#
UUO31	 49823	 49843#
UUO32	 49864	 49884#
UUO33	 49905	 49925#
UUO34	 49946	 49966#
UUO35	 49987	 50007#
UUO36	 50028	 50048#
UUO37	 50069	 50089#
UUOBTH	 50806#
UUODIS	   498#
UUOEXT	   454#
UUOIND	 50774#
UUOINX	 50790#
UUOPC	 50110	 50129#
UUOPCA	 50130#
UUORTN	   455#
UUOSKP	   452#
X	 43872#	 43899	 43910	 43910#	 43927	 43938	 43938#	 43955	 43966	 43966#	 43983	 43994	 43994#	 44011
	 44022	 44022#	 44039	 44050	 44050#	 44067	 44078	 44078#	 44088#	 44114	 44125	 44125#	 44146	 44157
	 44157#	 44178	 44189	 44189#	 44210	 44221	 44221#	 44242	 44253	 44253#	 44274	 44285	 44285#	 44306
	 44317	 44317#	 44329#	 44358	 44360	 44375	 44375#	 44400	 44402	 44417	 44417#	 44442	 44444	 44459
	 44459#	 44484	 44486	 44501	 44501#	 44526	 44528	 44543	 44543#	 44568	 44570	 44585	 44585#	 44610
	 44612	 44627	 44627#	 45764#	 45788	 45799	 45799#	 45819	 45830	 45830#	 45850	 45861	 45861#	 45881
	 45892	 45892#	 45912	 45923	 45923#	 45943	 45954	 45954#	 45974	 45985	 45985#	 47212#	 47235	 47267
	 47286	 47286#	 47303	 47335	 47354	 47354#	 47371	 47403	 47422	 47422#	 47439	 47471	 47490	 47490#
	 47507	 47539	 47558	 47558#	 47575	 47607	 47626	 47626#	 47643	 47675	 47694	 47694#	 47700#	 47718
	 47741	 47741#	 47754	 47777	 47777#	 47790	 47813	 47813#	 47826	 47849	 47849#	 47862	 47885	 47885#
	 47898	 47921	 47921#	 47934	 47957	 47957#	 47991#	 48020	 48028	 48028#	 48042	 48050	 48050#	 48064
	 48072	 48072#	 48086	 48094	 48094#	 48108	 48116	 48116#	 48130	 48138	 48138#	 48152	 48160	 48160#
	 48186#	 48208	 48219	 48219#	 48228	 48239	 48239#	 48248	 48259	 48259#	 48268	 48279	 48279#	 48288
	 48299	 48299#	 48308	 48319	 48319#	 48328	 48339	 48339#	 48348	 48359	 48359#	 48368	 48379	 48379#
	 48388	 48399	 48399#	 48408	 48419	 48419#	 48428	 48439	 48439#	 48448	 48459	 48459#	 48468	 48479
	 48479#	 48488	 48499	 48499#	 48508	 48519	 48519#	 48528	 48539	 48539#	 48548	 48559	 48559#	 50128#
	 50140	 50147	 50151	 50162	 50162#	 50169	 50176	 50180	 50191	 50191#	 50198	 50205	 50209	 50220
	 50220#	 50227	 50234	 50238	 50249	 50249#	 50256	 50263	 50267	 50278	 50278#	 50285	 50292	 50296
	 50307	 50307#	 50314	 50321	 50325	 50336	 50336#	 50343	 50350	 50354	 50365	 50365#	 50372	 50379
	 50383	 50394	 50394#	 50401	 50408	 50412	 50423	 50423#	 50430	 50437	 50441	 50452	 50452#	 50459
	 50466	 50470	 50481	 50481#	 50488	 50495	 50499	 50510	 50510#	 50517	 50524	 50528	 50539	 50539#
	 50546	 50553	 50557	 50568	 50568#	 50575	 50582	 50586	 50597	 50597#	 50604	 50611	 50615	 50626
	 50626#	 50633	 50640	 50644	 50655	 50655#	 50657#	 50662	 50669	 50673	 50685#	 50690	 50697	 50701
	 50713#	 50718	 50725	 50729	 50741#	 50746	 50753	 50757	 50768#
XAC0	 51206#	 51206	 51215	 51222#	 51222	 51231	 51311#	 51311	 51322
XAC1	 51207#	 51207	 51216	 51223#	 51223	 51232	 51312#	 51312	 51323
XAC15	 51194#	 51194	 51200
XAC16	 51313#	 51313	 51324
XMUPC	 51093	 51112#
XMUUO	 51093#
XMUUO0	 51107#	 51123
XX	 22970#	 22995	 22995#	 22996	 22996#	 22997	 22999	 23015	 23015#	 23016	 23017	 23019	 23035	 23035#
	 23036	 23037	 23039	 23055	 23055#	 23056	 23057	 23059	 23075	 23075#	 23076	 23077	 23079	 23095
	 23095#	 23096	 23097	 23099	 23115	 23115#	 23116	 23117	 23119	 23135	 23135#	 23136	 23137	 23139
	 23155	 23155#	 23156	 23157	 23159	 23175	 23175#	 23176	 23177	 23179	 23195	 23195#	 23196	 23197
	 23199	 23215	 23215#	 23216	 23217	 23219	 23235	 23235#	 23236	 23237	 23239	 23255	 23255#	 23256
	 23257	 23259	 23275	 23275#	 23276	 23277	 23279	 23295	 23295#	 23296	 23297	 23299	 23315	 23315#
	 23316	 23317	 23319	 23335	 23335#	 23336	 23337	 23339	 23349#	 23374	 23374#	 23375	 23375#	 23376
	 23378	 23394	 23394#	 23395	 23396	 23398	 23414	 23414#	 23415	 23416	 23418	 23434	 23434#	 23435
	 23436	 23438	 23454	 23454#	 23455	 23456	 23458	 23474	 23474#	 23475	 23476	 23478	 23494	 23494#
	 23495	 23496	 23498	 23514	 23514#	 23515	 23516	 23518	 23534	 23534#	 23535	 23536	 23538	 23554
	 23554#	 23555	 23556	 23558	 23574	 23574#	 23575	 23576	 23578	 23594	 23594#	 23595	 23596	 23598
	 23614	 23614#	 23615	 23616	 23618	 23634	 23634#	 23635	 23636	 23638	 23654	 23654#	 23655	 23656
	 23658	 23674	 23674#	 23675	 23676	 23678	 23694	 23694#	 23695	 23696	 23698	 23714	 23714#	 23715
	 23716	 23718	 23755	 23755#	 23756	 23756#	 23758	 23759	 23775	 23775#	 23776	 23778	 23779	 23795
	 23795#	 23796	 23798	 23799	 23815	 23815#	 23816	 23818	 23819	 23835	 23835#	 23836	 23838	 23839
	 23855	 23855#	 23856	 23858	 23859	 23875	 23875#	 23876	 23878	 23879	 23895	 23895#	 23896	 23898
	 23899	 23915	 23915#	 23916	 23918	 23919	 23935	 23935#	 23936	 23938	 23939	 23955	 23955#	 23956
	 23958	 23959	 23975	 23975#	 23976	 23978	 23979	 23995	 23995#	 23996	 23998	 23999	 24015	 24015#
	 24016	 24018	 24019	 24035	 24035#	 24036	 24038	 24039	 24055	 24055#	 24056	 24058	 24059	 24075
	 24075#	 24076	 24078	 24079	 24095	 24095#	 24096	 24098	 24099	 24109#	 24134	 24134#	 24135	 24135#
	 24137	 24138	 24154	 24154#	 24155	 24157	 24158	 24174	 24174#	 24175	 24177	 24178	 24194	 24194#
	 24195	 24197	 24198	 24214	 24214#	 24215	 24217	 24218	 24234	 24234#	 24235	 24237	 24238	 24254
	 24254#	 24255	 24257	 24258	 24274	 24274#	 24275	 24277	 24278	 24294	 24294#	 24295	 24297	 24298
	 24314	 24314#	 24315	 24317	 24318	 24334	 24334#	 24335	 24337	 24338	 24354	 24354#	 24355	 24357
	 24358	 24374	 24374#	 24375	 24377	 24378	 24394	 24394#	 24395	 24397	 24398	 24414	 24414#	 24415
	 24417	 24418	 24434	 24434#	 24435	 24437	 24438	 24454	 24454#	 24455	 24457	 24458	 24474	 24474#
	 24475	 24477	 24478	 24492#	 24519	 24519#	 24520	 24520#	 24521	 24522	 24523	 24540	 24540#	 24541
	 24542	 24543	 24544	 24561	 24561#	 24562	 24563	 24564	 24565	 24582	 24582#	 24583	 24584	 24585
	 24586	 24603	 24603#	 24604	 24605	 24606	 24607	 24624	 24624#	 24625	 24626	 24627	 24628	 24645
	 24645#	 24646	 24647	 24648	 24649	 24666	 24666#	 24667	 24668	 24669	 24670	 24687	 24687#	 24688
	 24689	 24690	 24691	 24708	 24708#	 24709	 24710	 24711	 24712	 24729	 24729#	 24730	 24731	 24732
	 24733	 24750	 24750#	 24751	 24752	 24753	 24754	 24771	 24771#	 24772	 24773	 24774	 24775	 24792
	 24792#	 24793	 24794	 24795	 24796	 24813	 24813#	 24814	 24815	 24816	 24817	 24834	 24834#	 24835
	 24836	 24837	 24838	 24855	 24855#	 24856	 24857	 24858	 24859	 24875	 24875#	 24876	 24877	 24887#
	 24914	 24914#	 24915	 24915#	 24916	 24917	 24918	 24935	 24935#	 24936	 24937	 24938	 24939	 24956
	 24956#	 24957	 24958	 24959	 24960	 24977	 24977#	 24978	 24979	 24980	 24981	 24998	 24998#	 24999
	 25000	 25001	 25002	 25019	 25019#	 25020	 25021	 25022	 25023	 25040	 25040#	 25041	 25042	 25043
	 25044	 25061	 25061#	 25062	 25063	 25064	 25065	 25082	 25082#	 25083	 25084	 25085	 25086	 25103
	 25103#	 25104	 25105	 25106	 25107	 25124	 25124#	 25125	 25126	 25127	 25128	 25145	 25145#	 25146
	 25147	 25148	 25149	 25166	 25166#	 25167	 25168	 25169	 25170	 25187	 25187#	 25188	 25189	 25190
	 25191	 25208	 25208#	 25209	 25210	 25211	 25212	 25229	 25229#	 25230	 25231	 25232	 25233	 25250
	 25250#	 25251	 25252	 25253	 25254	 25270	 25270#	 25271	 25272	 25273	 25287#	 25314	 25314#	 25315
	 25315#	 25316	 25317	 25318	 25335	 25335#	 25336	 25337	 25338	 25339	 25356	 25356#	 25357	 25358
	 25359	 25360	 25377	 25377#	 25378	 25379	 25380	 25381	 25398	 25398#	 25399	 25400	 25401	 25402
	 25419	 25419#	 25420	 25421	 25422	 25423	 25440	 25440#	 25441	 25442	 25443	 25444	 25461	 25461#
	 25462	 25463	 25464	 25465	 25482	 25482#	 25483	 25484	 25485	 25486	 25503	 25503#	 25504	 25505
	 25506	 25507	 25524	 25524#	 25525	 25526	 25527	 25528	 25545	 25545#	 25546	 25547	 25548	 25549
	 25566	 25566#	 25567	 25568	 25569	 25570	 25587	 25587#	 25588	 25589	 25590	 25591	 25608	 25608#
	 25609	 25610	 25611	 25612	 25629	 25629#	 25630	 25631	 25632	 25633	 25650	 25650#	 25651	 25652
	 25653	 25654	 25671	 25671#	 25672	 25673	 25683#	 25710	 25710#	 25711	 25711#	 25712	 25713	 25714
	 25731	 25731#	 25732	 25733	 25734	 25735	 25752	 25752#	 25753	 25754	 25755	 25756	 25773	 25773#
	 25774	 25775	 25776	 25777	 25794	 25794#	 25795	 25796	 25797	 25798	 25815	 25815#	 25816	 25817
	 25818	 25819	 25836	 25836#	 25837	 25838	 25839	 25840	 25857	 25857#	 25858	 25859	 25860	 25861
	 25878	 25878#	 25879	 25880	 25881	 25882	 25899	 25899#	 25900	 25901	 25902	 25903	 25920	 25920#
	 25921	 25922	 25923	 25924	 25941	 25941#	 25942	 25943	 25944	 25945	 25962	 25962#	 25963	 25964
	 25965	 25966	 25983	 25983#	 25984	 25985	 25986	 25987	 26004	 26004#	 26005	 26006	 26007	 26008
	 26025	 26025#	 26026	 26027	 26028	 26029	 26046	 26046#	 26047	 26048	 26049	 26050	 26067	 26067#
	 26068	 26069	 26070	 26071	 29343#	 29365	 29365#	 29366	 29368	 29379	 29379#	 29380	 29382	 29393
	 29393#	 29394	 29396	 29407	 29407#	 29408	 29410	 29421	 29421#	 29422	 29424	 29435	 29435#	 29436
	 29438	 29449	 29449#	 29450	 29452	 29463	 29463#	 29464	 29466	 29477	 29477#	 29478	 29480	 29491
	 29491#	 29492	 29494	 29505	 29505#	 29506	 29508	 29519	 29519#	 29520	 29522	 29533	 29533#	 29534
	 29536	 29547	 29547#	 29548	 29550	 29561	 29561#	 29562	 29564	 29576#	 29597	 29597#	 29598	 29599
	 29611	 29611#	 29612	 29613	 29625	 29625#	 29626	 29627	 29639	 29639#	 29640	 29641	 29653	 29653#
	 29654	 29655	 29667	 29667#	 29668	 29669	 29681	 29681#	 29682	 29683	 29695	 29695#	 29696	 29697
	 29709	 29709#	 29710	 29711	 29723	 29723#	 29724	 29725	 29737	 29737#	 29738	 29739	 29751	 29751#
	 29752	 29753	 29765	 29765#	 29766	 29767	 29779	 29779#	 29780	 29781	 29793	 29793#	 29794	 29795
Y	 44089#	 44110	 44126	 44126#	 44142	 44158	 44158#	 44174	 44190	 44190#	 44206	 44222	 44222#	 44238
	 44254	 44254#	 44270	 44286	 44286#	 44302	 44318	 44318#	 45765#	 45783	 45800	 45800#	 45814	 45831
	 45831#	 45845	 45862	 45862#	 45876	 45893	 45893#	 45907	 45924	 45924#	 45938	 45955	 45955#	 45969
	 45986	 45986#	 47213#	 47231	 47233	 47263	 47265	 47285	 47285#	 47299	 47301	 47331	 47333	 47353
	 47353#	 47367	 47369	 47399	 47401	 47421	 47421#	 47435	 47437	 47467	 47469	 47489	 47489#	 47503
	 47505	 47535	 47537	 47557	 47557#	 47571	 47573	 47603	 47605	 47625	 47625#	 47639	 47641	 47671
	 47673	 47693	 47693#
YY	 12585#	 12620	 12620#	 12621	 12622	 12622#	 12625	 12646	 12646#	 12647	 12648	 12651	 12672	 12672#
	 12673	 12674	 12677	 12698	 12698#	 12699	 12700	 12703	 12724	 12724#	 12725	 12726	 12729	 12750
	 12750#	 12751	 12752	 12755	 12776	 12776#	 12777	 12778	 12781	 12802	 12802#	 12803	 12804	 12807
	 12828	 12828#	 12829	 12830	 12833	 12854	 12854#	 12855	 12856	 12859	 12880	 12880#	 12881	 12882
	 12885	 12906	 12906#	 12907	 12908	 12911	 12932	 12932#	 12933	 12934	 12937	 12958	 12958#	 12959
	 12960	 12963	 12984	 12984#	 12985	 12986	 12989	 13010	 13010#	 13011	 13012	 13015	 13036	 13036#
	 13037	 13038	 13041	 13062	 13062#	 13063	 13064	 13067	 13081#	 13116	 13116#	 13117	 13118	 13118#
	 13122	 13142	 13142#	 13143	 13144	 13148	 13168	 13168#	 13169	 13170	 13174	 13194	 13194#	 13195
	 13196	 13200	 13220	 13220#	 13221	 13222	 13226	 13246	 13246#	 13247	 13248	 13252	 13272	 13272#
	 13273	 13274	 13278	 13298	 13298#	 13299	 13300	 13304	 13324	 13324#	 13325	 13326	 13330	 13350
	 13350#	 13351	 13352	 13356	 13376	 13376#	 13377	 13378	 13382	 13402	 13402#	 13403	 13404	 13408
	 13428	 13428#	 13429	 13430	 13434	 13454	 13454#	 13455	 13456	 13460	 13480	 13480#	 13481	 13482
	 13486	 13506	 13506#	 13507	 13508	 13512	 13532	 13532#	 13533	 13534	 13538	 13558	 13558#	 13559
	 13560	 13564	 17837#	 17871	 17871#	 17873	 17873#	 17874	 17876	 17896	 17896#	 17898	 17899	 17901
	 17921	 17921#	 17923	 17924	 17926	 17946	 17946#	 17948	 17949	 17951	 17971	 17971#	 17973	 17974
	 17976	 17996	 17996#	 17998	 17999	 18001	 18021	 18021#	 18023	 18024	 18026	 18046	 18046#	 18048
	 18049	 18051	 18071	 18071#	 18073	 18074	 18076	 18096	 18096#	 18098	 18099	 18101	 18121	 18121#
	 18123	 18124	 18126	 18146	 18146#	 18148	 18149	 18151	 18171	 18171#	 18173	 18174	 18176	 18196
	 18196#	 18198	 18199	 18201	 18221	 18221#	 18223	 18224	 18226	 18246	 18246#	 18248	 18249	 18251
	 18271	 18271#	 18273	 18274	 18276	 18296	 18296#	 18298	 18299	 18301	 18312#	 18346	 18346#	 18348
	 18348#	 18349	 18351	 18371	 18371#	 18373	 18374	 18376	 18396	 18396#	 18398	 18399	 18401	 18421
	 18421#	 18423	 18424	 18426	 18446	 18446#	 18448	 18449	 18451	 18471	 18471#	 18473	 18474	 18476
	 18496	 18496#	 18498	 18499	 18501	 18521	 18521#	 18523	 18524	 18526	 18546	 18546#	 18548	 18549
	 18551	 18571	 18571#	 18573	 18574	 18576	 18596	 18596#	 18598	 18599	 18601	 18621	 18621#	 18623
	 18624	 18626	 18646	 18646#	 18648	 18649	 18651	 18671	 18671#	 18673	 18674	 18676	 18696	 18696#
	 18698	 18699	 18701	 18721	 18721#	 18723	 18724	 18726	 18746	 18746#	 18748	 18749	 18751	 18771
	 18771#	 18773	 18774	 18776
Z1	 47701#	 47719	 47724	 47742	 47742#	 47755	 47760	 47778	 47778#	 47791	 47796	 47814	 47814#	 47827
	 47832	 47850	 47850#	 47863	 47868	 47886	 47886#	 47899	 47904	 47922	 47922#	 47935	 47940	 47958
	 47958#
ZZ	  1305#	  1330	  1330#	  1331	  1331#	  1332	  1349	  1349#	  1350	  1351	  1368	  1368#	  1369	  1370
	  1387	  1387#	  1388	  1389	  1406	  1406#	  1407	  1408	  1425	  1425#	  1426	  1427	  1444	  1444#
	  1445	  1446	  1463	  1463#	  1464	  1465	  1482	  1482#	  1483	  1484	  1501	  1501#	  1502	  1503
	  1520	  1520#	  1521	  1522	  1539	  1539#	  1540	  1541	  1558	  1558#	  1559	  1560	  1577	  1577#
	  1578	  1579	  1596	  1596#	  1597	  1598	  1615	  1615#	  1616	  1617	  1634	  1634#	  1635	  1636
	  1653	  1653#	  1654	  1655	  1672	  1672#	  1673	  1674	  1691	  1691#	  1692	  1693	  1710	  1710#
	  1711	  1712	  1729	  1729#	  1730	  1731	  1748	  1748#	  1749	  1750	  1767	  1767#	  1768	  1769
	  1786	  1786#	  1787	  1788	  1805	  1805#	  1806	  1807	  1824	  1824#	  1825	  1826	  1843	  1843#
	  1844	  1845	  1862	  1862#	  1863	  1864	  1881	  1881#	  1882	  1883	  1900	  1900#	  1901	  1902
	  1919	  1919#	  1920	  1921	  1938	  1938#	  1939	  1940	  1957	  1957#	  1958	  1959	  1976	  1976#
	  1977	  1978	  1995	  1995#	  1996	  1997	  2481#	  2505	  2505#	  2506	  2506#	  2508	  2524	  2524#
	  2525	  2527	  2543	  2543#	  2544	  2546	  2562	  2562#	  2563	  2565	  2581	  2581#	  2582	  2584
	  2600	  2600#	  2601	  2603	  2619	  2619#	  2620	  2622	  2638	  2638#	  2639	  2641	  2657	  2657#
	  2658	  2660	  2676	  2676#	  2677	  2679	  2695	  2695#	  2696	  2698	  2714	  2714#	  2715	  2717
	  2733	  2733#	  2734	  2736	  2752	  2752#	  2753	  2755	  2771	  2771#	  2772	  2774	  2790	  2790#
	  2791	  2793	  2809	  2809#	  2810	  2812	  2828	  2828#	  2829	  2831	  2866	  2866#	  2868	  2885
	  2885#	  2887	  2904	  2904#	  2906	  2923	  2923#	  2925	  2942	  2942#	  2944	  2961	  2961#	  2963
	  2980	  2980#	  2982	  2999	  2999#	  3001	  3018	  3018#	  3020	  3037	  3037#	  3039	  3056	  3056#
	  3058	  3075	  3075#	  3077	  3094	  3094#	  3096	  3113	  3113#	  3115	  3132	  3132#	  3134	  3151
	  3151#	  3153	  3170	  3170#	  3172	  3189	  3189#	  3191	  3293#	  3326	  3326#	  3327	  3327#	  3329
	  3355	  3355#	  3356	  3358	  3384	  3384#	  3385	  3387	  3413	  3413#	  3414	  3416	  3442	  3442#
	  3443	  3445	  3471	  3471#	  3472	  3474	  3500	  3500#	  3501	  3503	  3529	  3529#	  3530	  3532
	  3558	  3558#	  3559	  3561	  3587	  3587#	  3588	  3590	  3616	  3616#	  3617	  3619	  3645	  3645#
	  3646	  3648	  3674	  3674#	  3675	  3677	  3703	  3703#	  3704	  3706	  3732	  3732#	  3733	  3735
	  3761	  3761#	  3762	  3764	  3790	  3790#	  3791	  3793	  3819	  3819#	  3820	  3822	  3848	  3848#
	  3849	  3851	  3877	  3877#	  3878	  3880	  3906	  3906#	  3907	  3909	  3935	  3935#	  3936	  3938
	  3964	  3964#	  3965	  3967	  3993	  3993#	  3994	  3996	  4022	  4022#	  4023	  4025	  4051	  4051#
	  4052	  4054	  4080	  4080#	  4081	  4083	  4109	  4109#	  4110	  4112	  4138	  4138#	  4139	  4141
	  4167	  4167#	  4168	  4170	  4196	  4196#	  4197	  4199	  4225	  4225#	  4226	  4228	  4254	  4254#
	  4255	  4257	  4283	  4283#	  4284	  4286	  4312	  4312#	  4313	  4315	  4341	  4341#	  4342	  4344
	  4362#	  4388	  4388#	  4389	  4389#	  4390	  4409	  4409#	  4410	  4411	  4430	  4430#	  4431	  4432
	  4451	  4451#	  4452	  4453	  4472	  4472#	  4473	  4474	  4493	  4493#	  4494	  4495	  4514	  4514#
	  4515	  4516	  4535	  4535#	  4536	  4537	  4556	  4556#	  4557	  4558	  4577	  4577#	  4578	  4579
	  4598	  4598#	  4599	  4600	  4619	  4619#	  4620	  4621	  4640	  4640#	  4641	  4642	  4661	  4661#
	  4662	  4663	  4682	  4682#	  4683	  4684	  4703	  4703#	  4704	  4705	  4724	  4724#	  4725	  4726
	  4745	  4745#	  4746	  4747	  4766	  4766#	  4767	  4768	  4787	  4787#	  4788	  4789	  4808	  4808#
	  4809	  4810	  4829	  4829#	  4830	  4831	  4850	  4850#	  4851	  4852	  4871	  4871#	  4872	  4873
	  4892	  4892#	  4893	  4894	  4913	  4913#	  4914	  4915	  4934	  4934#	  4935	  4936	  4955	  4955#
	  4956	  4957	  4976	  4976#	  4977	  4978	  4997	  4997#	  4998	  4999	  5018	  5018#	  5019	  5020
	  5039	  5039#	  5040	  5041	  5060	  5060#	  5061	  5062	  5081	  5081#	  5082	  5083	  5102	  5102#
	  5103	  5104	  5123	  5123#	  5124	  5125	  5227#	  5252	  5252#	  5253	  5253#	  5255	  5272	  5272#
	  5273	  5275	  5292	  5292#	  5293	  5295	  5312	  5312#	  5313	  5315	  5332	  5332#	  5333	  5335
	  5352	  5352#	  5353	  5355	  5372	  5372#	  5373	  5375	  5392	  5392#	  5393	  5395	  5412	  5412#
	  5413	  5415	  5432	  5432#	  5433	  5435	  5452	  5452#	  5453	  5455	  5472	  5472#	  5473	  5475
	  5492	  5492#	  5493	  5495	  5512	  5512#	  5513	  5515	  5532	  5532#	  5533	  5535	  5552	  5552#
	  5553	  5555	  5572	  5572#	  5573	  5575	  5592	  5592#	  5593	  5595	  5612	  5612#	  5613	  5615
	  5632	  5632#	  5633	  5635	  5652	  5652#	  5653	  5655	  5672	  5672#	  5673	  5675	  5692	  5692#
	  5693	  5695	  5712	  5712#	  5713	  5715	  5732	  5732#	  5733	  5735	  5752	  5752#	  5753	  5755
	  5772	  5772#	  5773	  5775	  5792	  5792#	  5793	  5795	  5812	  5812#	  5813	  5815	  5832	  5832#
	  5833	  5835	  5852	  5852#	  5853	  5855	  5872	  5872#	  5873	  5875	  5892	  5892#	  5893	  5895
	  5912	  5912#	  5913	  5915	  5932	  5932#	  5933	  5935	  5952	  5952#	  5953	  5955	  5967#	  5997
	  5997#	  5998	  5998#	  5999	  6022	  6022#	  6023	  6024	  6047	  6047#	  6048	  6049	  6072	  6072#
	  6073	  6074	  6097	  6097#	  6098	  6099	  6122	  6122#	  6123	  6124	  6147	  6147#	  6148	  6149
	  6172	  6172#	  6173	  6174	  6197	  6197#	  6198	  6199	  6222	  6222#	  6223	  6224	  6247	  6247#
	  6248	  6249	  6272	  6272#	  6273	  6274	  6297	  6297#	  6298	  6299	  6322	  6322#	  6323	  6324
	  6347	  6347#	  6348	  6349	  6372	  6372#	  6373	  6374	  6397	  6397#	  6398	  6399	  6422	  6422#
	  6423	  6424	  6447	  6447#	  6448	  6449	  6472	  6472#	  6473	  6474	  6497	  6497#	  6498	  6499
	  6522	  6522#	  6523	  6524	  6547	  6547#	  6548	  6549	  6572	  6572#	  6573	  6574	  6597	  6597#
	  6598	  6599	  6622	  6622#	  6623	  6624	  6647	  6647#	  6648	  6649	  6672	  6672#	  6673	  6674
	  6697	  6697#	  6698	  6699	  6722	  6722#	  6723	  6724	  6747	  6747#	  6748	  6749	  6772	  6772#
	  6773	  6774	  6797	  6797#	  6798	  6799	  6822	  6822#	  6823	  6824	  6847	  6847#	  6848	  6849
	  6872	  6872#	  6873	  6874	  6892#	  6920	  6920#	  6921	  6921#	  6922	  6923	  6941	  6941#	  6942
	  6943	  6944	  6962	  6962#	  6963	  6964	  6965	  6983	  6983#	  6984	  6985	  6986	  7004	  7004#
	  7005	  7006	  7007	  7025	  7025#	  7026	  7027	  7028	  7046	  7046#	  7047	  7048	  7049	  7067
	  7067#	  7068	  7069	  7070	  7088	  7088#	  7089	  7090	  7091	  7109	  7109#	  7110	  7111	  7112
	  7130	  7130#	  7131	  7132	  7133	  7151	  7151#	  7152	  7153	  7154	  7172	  7172#	  7173	  7174
	  7175	  7193	  7193#	  7194	  7195	  7196	  7214	  7214#	  7215	  7216	  7217	  7235	  7235#	  7236
	  7237	  7238	  7256	  7256#	  7257	  7258	  7259	  7277	  7277#	  7278	  7279	  7280	  7298	  7298#
	  7299	  7300	  7301	  7319	  7319#	  7320	  7321	  7322	  7340	  7340#	  7341	  7342	  7343	  7361
	  7361#	  7362	  7363	  7364	  7382	  7382#	  7383	  7384	  7385	  7403	  7403#	  7404	  7405	  7406
	  7424	  7424#	  7425	  7426	  7427	  7445	  7445#	  7446	  7447	  7448	  7466	  7466#	  7467	  7468
	  7469	  7487	  7487#	  7488	  7489	  7490	  7508	  7508#	  7509	  7510	  7511	  7529	  7529#	  7530
	  7531	  7532	  7550	  7550#	  7551	  7552	  7553	  7571	  7571#	  7572	  7573	  7574	  7592	  7592#
	  7593	  7594	  7595	  7613	  7613#	  7614	  7615	  7616	  7634	  7634#	  7635	  7636	  7637	  7655
	  7655#	  7656	  7657	  7658	  7701#	  7730	  7730#	  7731	  7731#	  7733	  7752	  7752#	  7753	  7755
	  7774	  7774#	  7775	  7777	  7796	  7796#	  7797	  7799	  7818	  7818#	  7819	  7821	  7840	  7840#
	  7841	  7843	  7862	  7862#	  7863	  7865	  7884	  7884#	  7885	  7887	  7906	  7906#	  7907	  7909
	  7928	  7928#	  7929	  7931	  7950	  7950#	  7951	  7953	  7972	  7972#	  7973	  7975	  7994	  7994#
	  7995	  7997	  8016	  8016#	  8017	  8019	  8038	  8038#	  8039	  8041	  8060	  8060#	  8061	  8063
	  8082	  8082#	  8083	  8085	  8104	  8104#	  8105	  8107	  8119#	  8148	  8148#	  8149	  8149#	  8151
	  8170	  8170#	  8171	  8173	  8192	  8192#	  8193	  8195	  8214	  8214#	  8215	  8217	  8236	  8236#
	  8237	  8239	  8258	  8258#	  8259	  8261	  8280	  8280#	  8281	  8283	  8302	  8302#	  8303	  8305
	  8324	  8324#	  8325	  8327	  8346	  8346#	  8347	  8349	  8368	  8368#	  8369	  8371	  8390	  8390#
	  8391	  8393	  8412	  8412#	  8413	  8415	  8434	  8434#	  8435	  8437	  8456	  8456#	  8457	  8459
	  8478	  8478#	  8479	  8481	  8500	  8500#	  8501	  8503	  8522	  8522#	  8523	  8525	  8576#	  8608
	  8608#	  8609	  8609#	  8610	  8611	  8612	  8632	  8632#	  8633	  8634	  8635	  8636	  8656	  8656#
	  8657	  8658	  8659	  8660	  8680	  8680#	  8681	  8682	  8683	  8684	  8704	  8704#	  8705	  8706
	  8707	  8708	  8728	  8728#	  8729	  8730	  8731	  8732	  8752	  8752#	  8753	  8754	  8755	  8756
	  8776	  8776#	  8777	  8778	  8779	  8780	  8800	  8800#	  8801	  8802	  8803	  8804	  8824	  8824#
	  8825	  8826	  8827	  8828	  8848	  8848#	  8849	  8850	  8851	  8852	  8872	  8872#	  8873	  8874
	  8875	  8876	  8896	  8896#	  8897	  8898	  8899	  8900	  8920	  8920#	  8921	  8922	  8923	  8924
	  8944	  8944#	  8945	  8946	  8947	  8948	  8968	  8968#	  8969	  8970	  8971	  8972	  8992	  8992#
	  8993	  8994	  8995	  8996	  9016	  9016#	  9017	  9018	  9019	  9020	  9040	  9040#	  9041	  9042
	  9043	  9044	  9064	  9064#	  9065	  9066	  9067	  9068	  9088	  9088#	  9089	  9090	  9091	  9092
	  9112	  9112#	  9113	  9114	  9115	  9116	  9136	  9136#	  9137	  9138	  9139	  9140	  9160	  9160#
	  9161	  9162	  9163	  9164	  9184	  9184#	  9185	  9186	  9187	  9188	  9208	  9208#	  9209	  9210
	  9211	  9212	  9232	  9232#	  9233	  9234	  9235	  9236	  9256	  9256#	  9257	  9258	  9259	  9260
	  9280	  9280#	  9281	  9282	  9283	  9284	  9304	  9304#	  9305	  9306	  9307	  9308	  9328	  9328#
	  9329	  9330	  9331	  9332	  9352	  9352#	  9353	  9354	  9355	  9356	  9376	  9376#	  9377	  9378
	  9379	  9380	  9400	  9400#	  9401	  9402	  9403	  9404	  9424	  9424#	  9425	  9426	  9427	  9428
	  9448	  9448#	  9449	  9450	  9451	  9452	  9587#	  9627	  9627#	  9628	  9628#	  9629	  9631	  9657
	  9657#	  9658	  9659	  9661	  9687	  9687#	  9688	  9689	  9691	  9717	  9717#	  9718	  9719	  9721
	  9747	  9747#	  9748	  9749	  9751	  9777	  9777#	  9778	  9779	  9781	  9807	  9807#	  9808	  9809
	  9811	  9837	  9837#	  9838	  9839	  9841	  9867	  9867#	  9868	  9869	  9871	  9897	  9897#	  9898
	  9899	  9901	  9927	  9927#	  9928	  9929	  9931	  9957	  9957#	  9958	  9959	  9961	  9987	  9987#
	  9988	  9989	  9991	 10017	 10017#	 10018	 10019	 10021	 10047	 10047#	 10048	 10049	 10051	 10077
	 10077#	 10078	 10079	 10081	 10107	 10107#	 10108	 10109	 10111	 10137	 10137#	 10138	 10139	 10141
	 10167	 10167#	 10168	 10169	 10171	 10197	 10197#	 10198	 10199	 10201	 10227	 10227#	 10228	 10229
	 10231	 10257	 10257#	 10258	 10259	 10261	 10287	 10287#	 10288	 10289	 10291	 10317	 10317#	 10318
	 10319	 10321	 10347	 10347#	 10348	 10349	 10351	 10377	 10377#	 10378	 10379	 10381	 10407	 10407#
	 10408	 10409	 10411	 10437	 10437#	 10438	 10439	 10441	 10467	 10467#	 10468	 10469	 10471	 10497
	 10497#	 10498	 10499	 10501	 10527	 10527#	 10528	 10529	 10531	 10557	 10557#	 10558	 10559	 10561
	 10587	 10587#	 10588	 10589	 10591	 10617	 10617#	 10618	 10619	 10621	 10647	 10647#	 10648	 10649
	 10651	 10677	 10677#	 10678	 10679	 10681	 10719#	 10755	 10755#	 10756	 10756#	 10758	 10759	 10781
	 10781#	 10782	 10784	 10785	 10807	 10807#	 10808	 10810	 10811	 10833	 10833#	 10834	 10836	 10837
	 10859	 10859#	 10860	 10862	 10863	 10885	 10885#	 10886	 10888	 10889	 10911	 10911#	 10912	 10914
	 10915	 10937	 10937#	 10938	 10940	 10941	 10963	 10963#	 10964	 10966	 10967	 10989	 10989#	 10990
	 10992	 10993	 11015	 11015#	 11016	 11018	 11019	 11041	 11041#	 11042	 11044	 11045	 11067	 11067#
	 11068	 11070	 11071	 11093	 11093#	 11094	 11096	 11097	 11119	 11119#	 11120	 11122	 11123	 11145
	 11145#	 11146	 11148	 11149	 11171	 11171#	 11172	 11174	 11175	 11197	 11197#	 11198	 11200	 11201
	 11223	 11223#	 11224	 11226	 11227	 11249	 11249#	 11250	 11252	 11253	 11275	 11275#	 11276	 11278
	 11279	 11301	 11301#	 11302	 11304	 11305	 11327	 11327#	 11328	 11330	 11331	 11353	 11353#	 11354
	 11356	 11357	 11379	 11379#	 11380	 11382	 11383	 11405	 11405#	 11406	 11408	 11409	 11431	 11431#
	 11432	 11434	 11435	 11457	 11457#	 11458	 11460	 11461	 11483	 11483#	 11484	 11486	 11487	 11509
	 11509#	 11510	 11512	 11513	 11535	 11535#	 11536	 11538	 11539	 11561	 11561#	 11562	 11564	 11565
	 11587	 11587#	 11588	 11590	 11591	 11613	 11613#	 11614	 11616	 11617	 11639	 11639#	 11640	 11642
	 11643	 11665	 11665#	 11666	 11668	 11669	 11684#	 11718	 11718#	 11719	 11719#	 11720	 11721	 11722
	 11743	 11743#	 11744	 11745	 11746	 11747	 11768	 11768#	 11769	 11770	 11771	 11772	 11793	 11793#
	 11794	 11795	 11796	 11797	 11818	 11818#	 11819	 11820	 11821	 11822	 11843	 11843#	 11844	 11845
	 11846	 11847	 11868	 11868#	 11869	 11870	 11871	 11872	 11893	 11893#	 11894	 11895	 11896	 11897
	 11918	 11918#	 11919	 11920	 11921	 11922	 11943	 11943#	 11944	 11945	 11946	 11947	 11968	 11968#
	 11969	 11970	 11971	 11972	 11993	 11993#	 11994	 11995	 11996	 11997	 12018	 12018#	 12019	 12020
	 12021	 12022	 12043	 12043#	 12044	 12045	 12046	 12047	 12068	 12068#	 12069	 12070	 12071	 12072
	 12093	 12093#	 12094	 12095	 12096	 12097	 12118	 12118#	 12119	 12120	 12121	 12122	 12143	 12143#
	 12144	 12145	 12146	 12147	 12168	 12168#	 12169	 12170	 12171	 12172	 12193	 12193#	 12194	 12195
	 12196	 12197	 12218	 12218#	 12219	 12220	 12221	 12222	 12243	 12243#	 12244	 12245	 12246	 12247
	 12268	 12268#	 12269	 12270	 12271	 12272	 12293	 12293#	 12294	 12295	 12296	 12297	 12318	 12318#
	 12319	 12320	 12321	 12322	 12343	 12343#	 12344	 12345	 12346	 12347	 12368	 12368#	 12369	 12370
	 12371	 12372	 12393	 12393#	 12394	 12395	 12396	 12397	 12418	 12418#	 12419	 12420	 12421	 12422
	 12443	 12443#	 12444	 12445	 12446	 12447	 12468	 12468#	 12469	 12470	 12471	 12472	 12493	 12493#
	 12494	 12495	 12496	 12497	 12518	 12518#	 12519	 12520	 12521	 12522	 12543	 12543#	 12544	 12545
	 12546	 12547	 12568	 12568#	 12569	 12570	 12571	 12572	 12584#	 12621	 12621#	 12623	 12623#	 12624
	 12647	 12647#	 12649	 12650	 12673	 12673#	 12675	 12676	 12699	 12699#	 12701	 12702	 12725	 12725#
	 12727	 12728	 12751	 12751#	 12753	 12754	 12777	 12777#	 12779	 12780	 12803	 12803#	 12805	 12806
	 12829	 12829#	 12831	 12832	 12855	 12855#	 12857	 12858	 12881	 12881#	 12883	 12884	 12907	 12907#
	 12909	 12910	 12933	 12933#	 12935	 12936	 12959	 12959#	 12961	 12962	 12985	 12985#	 12987	 12988
	 13011	 13011#	 13013	 13014	 13037	 13037#	 13039	 13040	 13063	 13063#	 13065	 13066	 13080#	 13117
	 13117#	 13119	 13119#	 13120	 13143	 13143#	 13145	 13146	 13169	 13169#	 13171	 13172	 13195	 13195#
	 13197	 13198	 13221	 13221#	 13223	 13224	 13247	 13247#	 13249	 13250	 13273	 13273#	 13275	 13276
	 13299	 13299#	 13301	 13302	 13325	 13325#	 13327	 13328	 13351	 13351#	 13353	 13354	 13377	 13377#
	 13379	 13380	 13403	 13403#	 13405	 13406	 13429	 13429#	 13431	 13432	 13455	 13455#	 13457	 13458
	 13481	 13481#	 13483	 13484	 13507	 13507#	 13509	 13510	 13533	 13533#	 13535	 13536	 13559	 13559#
	 13561	 13562	 13795#	 13817	 13817#	 13818	 13818#	 13819	 13820	 13835	 13835#	 13836	 13837	 13838
	 13853	 13853#	 13854	 13855	 13856	 13871	 13871#	 13872	 13873	 13874	 13889	 13889#	 13890	 13891
	 13892	 13907	 13907#	 13908	 13909	 13910	 13925	 13925#	 13926	 13927	 13928	 13943	 13943#	 13944
	 13945	 13946	 13961	 13961#	 13962	 13963	 13964	 13979	 13979#	 13980	 13981	 13982	 13997	 13997#
	 13998	 13999	 14000	 14015	 14015#	 14016	 14017	 14018	 14033	 14033#	 14034	 14035	 14036	 14051
	 14051#	 14052	 14053	 14054	 14069	 14069#	 14070	 14071	 14072	 14087	 14087#	 14088	 14089	 14090
	 14105	 14105#	 14106	 14107	 14108	 14123	 14123#	 14124	 14125	 14126	 14141	 14141#	 14142	 14143
	 14144	 14159	 14159#	 14160	 14161	 14162	 14177	 14177#	 14178	 14179	 14180	 14195	 14195#	 14196
	 14197	 14198	 14213	 14213#	 14214	 14215	 14216	 14231	 14231#	 14232	 14233	 14234	 14249	 14249#
	 14250	 14251	 14252	 14267	 14267#	 14268	 14269	 14270	 14285	 14285#	 14286	 14287	 14288	 14303
	 14303#	 14304	 14305	 14306	 14321	 14321#	 14322	 14323	 14324	 14339	 14339#	 14340	 14341	 14342
	 14357	 14357#	 14358	 14359	 14360	 14375	 14375#	 14376	 14377	 14378	 14393	 14393#	 14394	 14395
	 14396	 14411	 14411#	 14412	 14413	 14414	 14429	 14429#	 14430	 14431	 14432	 14447	 14447#	 14448
	 14449	 14450	 14816#	 14850	 14850#	 14851	 14851#	 14852	 14877	 14877#	 14878	 14879	 14904	 14904#
	 14905	 14906	 14931	 14931#	 14932	 14933	 14958	 14958#	 14959	 14960	 14985	 14985#	 14986	 14987
	 15012	 15012#	 15013	 15014	 15039	 15039#	 15040	 15041	 15066	 15066#	 15067	 15068	 15093	 15093#
	 15094	 15095	 15120	 15120#	 15121	 15122	 15147	 15147#	 15148	 15149	 15174	 15174#	 15175	 15176
	 15201	 15201#	 15202	 15203	 15228	 15228#	 15229	 15230	 15255	 15255#	 15256	 15257	 15282	 15282#
	 15283	 15284	 15309	 15309#	 15310	 15311	 15327#	 15356	 15356#	 15357	 15357#	 15358	 15378	 15378#
	 15379	 15380	 15400	 15400#	 15401	 15402	 15422	 15422#	 15423	 15424	 15444	 15444#	 15445	 15446
	 15466	 15466#	 15467	 15468	 15488	 15488#	 15489	 15490	 15510	 15510#	 15511	 15512	 15532	 15532#
	 15533	 15534	 15554	 15554#	 15555	 15556	 15576	 15576#	 15577	 15578	 15598	 15598#	 15599	 15600
	 15620	 15620#	 15621	 15622	 15642	 15642#	 15643	 15644	 15664	 15664#	 15665	 15666	 15686	 15686#
	 15687	 15688	 15708	 15708#	 15709	 15710	 15730	 15730#	 15731	 15732	 15744#	 15766	 15766#	 15767
	 15767#	 15769	 15784	 15784#	 15785	 15787	 15802	 15802#	 15803	 15805	 15820	 15820#	 15821	 15823
	 15838	 15838#	 15839	 15841	 15856	 15856#	 15857	 15859	 15874	 15874#	 15875	 15877	 15892	 15892#
	 15893	 15895	 15910	 15910#	 15911	 15913	 15928	 15928#	 15929	 15931	 15946	 15946#	 15947	 15949
	 15964	 15964#	 15965	 15967	 15982	 15982#	 15983	 15985	 16000	 16000#	 16001	 16003	 16018	 16018#
	 16019	 16021	 16036	 16036#	 16037	 16039	 16054	 16054#	 16055	 16057	 16072	 16072#	 16073	 16075
	 16090	 16090#	 16091	 16093	 16108	 16108#	 16109	 16111	 16126	 16126#	 16127	 16129	 16144	 16144#
	 16145	 16147	 16162	 16162#	 16163	 16165	 16180	 16180#	 16181	 16183	 16198	 16198#	 16199	 16201
	 16216	 16216#	 16217	 16219	 16234	 16234#	 16235	 16237	 16252	 16252#	 16253	 16255	 16270	 16270#
	 16271	 16273	 16288	 16288#	 16289	 16291	 16306	 16306#	 16307	 16309	 16324	 16324#	 16325	 16327
	 16342	 16342#	 16343	 16345	 16360	 16360#	 16361	 16363	 16378	 16378#	 16379	 16381	 16396	 16396#
	 16397	 16399	 16409#	 16431	 16431#	 16432	 16432#	 16433	 16449	 16449#	 16450	 16451	 16467	 16467#
	 16468	 16469	 16485	 16485#	 16486	 16487	 16503	 16503#	 16504	 16505	 16521	 16521#	 16522	 16523
	 16539	 16539#	 16540	 16541	 16557	 16557#	 16558	 16559	 16575	 16575#	 16576	 16577	 16593	 16593#
	 16594	 16595	 16611	 16611#	 16612	 16613	 16629	 16629#	 16630	 16631	 16647	 16647#	 16648	 16649
	 16665	 16665#	 16666	 16667	 16683	 16683#	 16684	 16685	 16701	 16701#	 16702	 16703	 16719	 16719#
	 16720	 16721	 16737	 16737#	 16738	 16739	 16755	 16755#	 16756	 16757	 16773	 16773#	 16774	 16775
	 16791	 16791#	 16792	 16793	 16809	 16809#	 16810	 16811	 16827	 16827#	 16828	 16829	 16845	 16845#
	 16846	 16847	 16863	 16863#	 16864	 16865	 16881	 16881#	 16882	 16883	 16899	 16899#	 16900	 16901
	 16917	 16917#	 16918	 16919	 16935	 16935#	 16936	 16937	 16953	 16953#	 16954	 16955	 16971	 16971#
	 16972	 16973	 16989	 16989#	 16990	 16991	 17007	 17007#	 17008	 17009	 17025	 17025#	 17026	 17027
	 17043	 17043#	 17044	 17045	 17061	 17061#	 17062	 17063	 17078#	 17103	 17103#	 17104	 17104#	 17105
	 17107	 17123	 17123#	 17124	 17125	 17127	 17143	 17143#	 17144	 17145	 17147	 17163	 17163#	 17164
	 17165	 17167	 17183	 17183#	 17184	 17185	 17187	 17203	 17203#	 17204	 17205	 17207	 17223	 17223#
	 17224	 17225	 17227	 17243	 17243#	 17244	 17245	 17247	 17263	 17263#	 17264	 17265	 17267	 17283
	 17283#	 17284	 17285	 17287	 17303	 17303#	 17304	 17305	 17307	 17323	 17323#	 17324	 17325	 17327
	 17343	 17343#	 17344	 17345	 17347	 17363	 17363#	 17364	 17365	 17367	 17383	 17383#	 17384	 17385
	 17387	 17403	 17403#	 17404	 17405	 17407	 17423	 17423#	 17424	 17425	 17427	 17443	 17443#	 17444
	 17445	 17447	 17457#	 17482	 17482#	 17483	 17483#	 17484	 17486	 17502	 17502#	 17503	 17504	 17506
	 17522	 17522#	 17523	 17524	 17526	 17542	 17542#	 17543	 17544	 17546	 17562	 17562#	 17563	 17564
	 17566	 17582	 17582#	 17583	 17584	 17586	 17602	 17602#	 17603	 17604	 17606	 17622	 17622#	 17623
	 17624	 17626	 17642	 17642#	 17643	 17644	 17646	 17662	 17662#	 17663	 17664	 17666	 17682	 17682#
	 17683	 17684	 17686	 17702	 17702#	 17703	 17704	 17706	 17722	 17722#	 17723	 17724	 17726	 17742
	 17742#	 17743	 17744	 17746	 17762	 17762#	 17763	 17764	 17766	 17782	 17782#	 17783	 17784	 17786
	 17802	 17802#	 17803	 17804	 17806	 17822	 17822#	 17823	 17824	 17826	 17836#	 17870	 17870#	 17872
	 17872#	 17874	 17876	 17895	 17895#	 17897	 17899	 17901	 17920	 17920#	 17922	 17924	 17926	 17945
	 17945#	 17947	 17949	 17951	 17970	 17970#	 17972	 17974	 17976	 17995	 17995#	 17997	 17999	 18001
	 18020	 18020#	 18022	 18024	 18026	 18045	 18045#	 18047	 18049	 18051	 18070	 18070#	 18072	 18074
	 18076	 18095	 18095#	 18097	 18099	 18101	 18120	 18120#	 18122	 18124	 18126	 18145	 18145#	 18147
	 18149	 18151	 18170	 18170#	 18172	 18174	 18176	 18195	 18195#	 18197	 18199	 18201	 18220	 18220#
	 18222	 18224	 18226	 18245	 18245#	 18247	 18249	 18251	 18270	 18270#	 18272	 18274	 18276	 18295
	 18295#	 18297	 18299	 18301	 18311#	 18345	 18345#	 18347	 18347#	 18349	 18351	 18370	 18370#	 18372
	 18374	 18376	 18395	 18395#	 18397	 18399	 18401	 18420	 18420#	 18422	 18424	 18426	 18445	 18445#
	 18447	 18449	 18451	 18470	 18470#	 18472	 18474	 18476	 18495	 18495#	 18497	 18499	 18501	 18520
	 18520#	 18522	 18524	 18526	 18545	 18545#	 18547	 18549	 18551	 18570	 18570#	 18572	 18574	 18576
	 18595	 18595#	 18597	 18599	 18601	 18620	 18620#	 18622	 18624	 18626	 18645	 18645#	 18647	 18649
	 18651	 18670	 18670#	 18672	 18674	 18676	 18695	 18695#	 18697	 18699	 18701	 18720	 18720#	 18722
	 18724	 18726	 18745	 18745#	 18747	 18749	 18751	 18770	 18770#	 18772	 18774	 18776	 26148#	 26158
	 26158#	 26159	 26160	 26160#	 26161	 26162	 26162#	 26163	 26164	 26164#	 26165	 26166	 26166#	 26167
	 26168	 26168#	 26169	 26170	 26170#	 26171	 26172	 26172#	 26173	 26174	 26174#	 26175	 26176	 26176#
	 26177	 26178	 26178#	 26179	 26180	 26180#	 26181	 26182	 26182#	 26183	 26184	 26184#	 26185	 26186
	 26186#	 26187	 26188	 26188#	 26189	 26191#	 26214	 26214#	 26215	 26232	 26232#	 26233	 26250	 26250#
	 26251	 26268	 26268#	 26269	 26286	 26286#	 26287	 26304	 26304#	 26305	 26322	 26322#	 26323	 26340
	 26340#	 26341	 26358	 26358#	 26359	 26376	 26376#	 26377	 26394	 26394#	 26395	 26412	 26412#	 26413
	 26430	 26430#	 26431	 26448	 26448#	 26449	 26466	 26466#	 26467	 26484	 26484#	 26485	 26496#	 26507
	 26507#	 26508	 26509	 26510	 26510#	 26511	 26512	 26513	 26513#	 26514	 26515	 26516	 26516#	 26517
	 26518	 26519	 26519#	 26520	 26521	 26522	 26522#	 26523	 26524	 26525	 26525#	 26526	 26527	 26528
	 26528#	 26529	 26530	 26531	 26531#	 26532	 26533	 26534	 26534#	 26535	 26536	 26537	 26537#	 26538
	 26539	 26540	 26540#	 26541	 26542	 26543	 26543#	 26544	 26545	 26546	 26546#	 26547	 26548	 26549
	 26549#	 26550	 26551	 26553#	 26578	 26578#	 26579	 26597	 26597#	 26598	 26616	 26616#	 26617	 26635
	 26635#	 26636	 26654	 26654#	 26655	 26673	 26673#	 26674	 26692	 26692#	 26693	 26711	 26711#	 26712
	 26730	 26730#	 26731	 26749	 26749#	 26750	 26768	 26768#	 26769	 26787	 26787#	 26788	 26806	 26806#
	 26807	 26825	 26825#	 26826	 26844	 26844#	 26845	 26856#	 26879	 26879#	 26880	 26881	 26897	 26897#
	 26898	 26899	 26915	 26915#	 26916	 26917	 26933	 26933#	 26934	 26935	 26951	 26951#	 26952	 26953
	 26969	 26969#	 26970	 26971	 26987	 26987#	 26988	 26989	 27005	 27005#	 27006	 27007	 27023	 27023#
	 27024	 27025	 27041	 27041#	 27042	 27043	 27059	 27059#	 27060	 27061	 27077	 27077#	 27078	 27079
	 27095	 27095#	 27096	 27097	 27113	 27113#	 27114	 27115	 27131	 27131#	 27132	 27133	 27143#	 27171
	 27171#	 27172	 27173	 27174	 27192	 27192#	 27193	 27194	 27195	 27213	 27213#	 27214	 27215	 27216
	 27234	 27234#	 27235	 27236	 27237	 27255	 27255#	 27256	 27257	 27258	 27276	 27276#	 27277	 27278
	 27279	 27297	 27297#	 27298	 27299	 27300	 27318	 27318#	 27319	 27320	 27321	 27339	 27339#	 27340
	 27341	 27342	 27360	 27360#	 27361	 27362	 27363	 27381	 27381#	 27382	 27383	 27384	 27402	 27402#
	 27403	 27404	 27405	 27423	 27423#	 27424	 27425	 27426	 27444	 27444#	 27445	 27446	 27447	 27465
	 27465#	 27466	 27467	 27468	 27501#	 27532	 27532#	 27533	 27533#	 27535	 27538	 27556	 27556#	 27557
	 27559	 27562	 27580	 27580#	 27581	 27583	 27586	 27604	 27604#	 27605	 27607	 27610	 27628	 27628#
	 27629	 27631	 27634	 27652	 27652#	 27653	 27655	 27658	 27676	 27676#	 27677	 27679	 27682	 27700
	 27700#	 27701	 27703	 27706	 27724	 27724#	 27725	 27727	 27730	 27748	 27748#	 27749	 27751	 27754
	 27772	 27772#	 27773	 27775	 27778	 27796	 27796#	 27797	 27799	 27802	 27820	 27820#	 27821	 27823
	 27826	 27844	 27844#	 27845	 27847	 27850	 27868	 27868#	 27869	 27871	 27874	 27892	 27892#	 27893
	 27895	 27898	 27916	 27916#	 27917	 27919	 27922	 27940	 27940#	 27941	 27943	 27946	 27956#	 27987
	 27987#	 27988	 27988#	 27990	 27993	 28011	 28011#	 28012	 28014	 28017	 28035	 28035#	 28036	 28038
	 28041	 28059	 28059#	 28060	 28062	 28065	 28083	 28083#	 28084	 28086	 28089	 28107	 28107#	 28108
	 28110	 28113	 28131	 28131#	 28132	 28134	 28137	 28155	 28155#	 28156	 28158	 28161	 28179	 28179#
	 28180	 28182	 28185	 28203	 28203#	 28204	 28206	 28209	 28227	 28227#	 28228	 28230	 28233	 28251
	 28251#	 28252	 28254	 28257	 28275	 28275#	 28276	 28278	 28281	 28299	 28299#	 28300	 28302	 28305
	 28323	 28323#	 28324	 28326	 28329	 28347	 28347#	 28348	 28350	 28353	 28371	 28371#	 28372	 28374
	 28377	 28395	 28395#	 28396	 28398	 28401	 28430#	 28461	 28461#	 28462	 28462#	 28464	 28467	 28485
	 28485#	 28486	 28488	 28491	 28509	 28509#	 28510	 28512	 28515	 28533	 28533#	 28534	 28536	 28539
	 28557	 28557#	 28558	 28560	 28563	 28581	 28581#	 28582	 28584	 28587	 28605	 28605#	 28606	 28608
	 28611	 28629	 28629#	 28630	 28632	 28635	 28653	 28653#	 28654	 28656	 28659	 28677	 28677#	 28678
	 28680	 28683	 28701	 28701#	 28702	 28704	 28707	 28725	 28725#	 28726	 28728	 28731	 28749	 28749#
	 28750	 28752	 28755	 28773	 28773#	 28774	 28776	 28779	 28797	 28797#	 28798	 28800	 28803	 28821
	 28821#	 28822	 28824	 28827	 28845	 28845#	 28846	 28848	 28851	 28869	 28869#	 28870	 28872	 28875
	 28885#	 28916	 28916#	 28917	 28917#	 28919	 28922	 28940	 28940#	 28941	 28943	 28946	 28964	 28964#
	 28965	 28967	 28970	 28988	 28988#	 28989	 28991	 28994	 29012	 29012#	 29013	 29015	 29018	 29036
	 29036#	 29037	 29039	 29042	 29060	 29060#	 29061	 29063	 29066	 29084	 29084#	 29085	 29087	 29090
	 29108	 29108#	 29109	 29111	 29114	 29132	 29132#	 29133	 29135	 29138	 29156	 29156#	 29157	 29159
	 29162	 29180	 29180#	 29181	 29183	 29186	 29204	 29204#	 29205	 29207	 29210	 29228	 29228#	 29229
	 29231	 29234	 29252	 29252#	 29253	 29255	 29258	 29276	 29276#	 29277	 29279	 29282	 29300	 29300#
	 29301	 29303	 29306	 29324	 29324#	 29325	 29327	 29330	 29342#	 29364	 29364#	 29366	 29367	 29368
	 29378	 29378#	 29380	 29381	 29382	 29392	 29392#	 29394	 29395	 29396	 29406	 29406#	 29408	 29409
	 29410	 29420	 29420#	 29422	 29423	 29424	 29434	 29434#	 29436	 29437	 29438	 29448	 29448#	 29450
	 29451	 29452	 29462	 29462#	 29464	 29465	 29466	 29476	 29476#	 29478	 29479	 29480	 29490	 29490#
	 29492	 29493	 29494	 29504	 29504#	 29506	 29507	 29508	 29518	 29518#	 29520	 29521	 29522	 29532
	 29532#	 29534	 29535	 29536	 29546	 29546#	 29548	 29549	 29550	 29560	 29560#	 29562	 29563	 29564
	 29575#	 29596	 29596#	 29598	 29599	 29600	 29610	 29610#	 29612	 29613	 29614	 29624	 29624#	 29626
	 29627	 29628	 29638	 29638#	 29640	 29641	 29642	 29652	 29652#	 29654	 29655	 29656	 29666	 29666#
	 29668	 29669	 29670	 29680	 29680#	 29682	 29683	 29684	 29694	 29694#	 29696	 29697	 29698	 29708
	 29708#	 29710	 29711	 29712	 29722	 29722#	 29724	 29725	 29726	 29736	 29736#	 29738	 29739	 29740
	 29750	 29750#	 29752	 29753	 29754	 29764	 29764#	 29766	 29767	 29768	 29778	 29778#	 29780	 29781
	 29782	 29792	 29792#	 29794	 29795	 29796
$$420	   756#
$$421	   757#
$$422	   758#
$$423	   759#
$$424	   760#
$$425	   761#
$$426	   762#
$$427	   763#
$$430	   764#
$$431	   765#
$$432	   766#
$$433	   767#
$$434	   768#
$$435	   769#
$$436	   770#
$$437	   771#
$$500	   774#
$$501	   775#
$$502	   776#
$$503	   777#
$$BEGI	   742#
$$DTE0	   808	   847#
$$DTE1	   809	   849#
$$DTE2	   810	   863#
$$DTE3	   811	   865#
$$LOC	   739#	   778
$$MUUO	   656#
$$OUTE	   662#
$$STAR	   742	   743	   782#
$$TAX1	   674#
$$TAX2	   675#
$$TOGG	   668#
$$UUO	   639#
$ACC0	   477#
$BEGEN	   751#
$BEND1	   447#
$BEND2	   448#
$CHRIN	   538#
$CRLF	   540#
$DDT	   720#
$DEVCH	   364#
$DSKUP	   417#
$DTCHR	   732#
$DTCI	   726#
$DTCLK	   725#	   806
$DTCMD	   729#	   844	   860
$DTF11	   728#
$DTFLG	   724#	   805	   845	   850	   861	   866
$DTMTD	   733#
$DTMTI	   734#
$DTOPR	   731#	   807
$DTSEQ	   730#
$DTSWR	   736#
$DTT11	   727#
$DVCH1	   364#
$DVOFF	   534#
$EMODE	   415#
$FFF	   542#
$IBUF	   590#
$INEXT	   592#
$INNM	   591#
$ITRHL	   458#
$ITRX1	   459#
$LPAPE	 51331
$MMAP	   418#
$MODVL	   413#
$MODVU	   414#
$OBUF	   581#
$ONETM	   441#
$OUTEX	   583#
$OUTNM	   582#
$PAPER	   364
$PARER	   465#
$PNAME	   411#
$PSHER	   469#
$PVER	   412#
$RSRTX	   461#
$RSRTY	   462#
$SPAG1	   481#
$SPB1	   816	   822#
$SPBEN	   751	   820#
$SPBEX	   823	   831#
$SPBKL	   832	   838#
$SPBUS	   825#
$SPEC	   748	   815#
$SPKLD	   839	   856#
$START	   378#
$STD	   719#	   746#
$STKIL	   791#
$STKL	   800#
$STL	   721#
$STM	   722#	   748#
$SVAPR	   479#
$SVPAG	   480#
$SVPI	   478#
$SVUPC	   484#
$SVUUO	   483#
$TABF	   541#
$TTCHR	   537#
$TWCNT	   533#
$TYPNB	   539#
$UMODE	   416#
$UORTX	   456#
$USRHL	   460#
$UUOER	   457#	   498
$VTF	   543#
%ACTFL	   490#
%ACTUL	   491#
%COREC	   489#
%CORFL	   488#
%DISCR	   492#
%ERHI1	   631#
%ERHI2	   632#
%ERHI3	   633#
%X	 43339#	 43340	 43351	 43357#	 43358	 43368	 43374#	 43375	 43387	 43393#	 43394	 43407	 43413#	 43414
	 43420	 43426#	 43427	 43438	 43444#	 43445	 43600	 43606#	 43607	 43619	 43625#	 43626	 43637	 43643#
	 43644	 43655	 43661#	 43662	 43703	 43709#	 43710	 43722	 43889#	 43890	 43905	 43917#	 43918	 43933
	 43945#	 43946	 43961	 43973#	 43974	 43989	 44001#	 44002	 44017	 44029#	 44030	 44045	 44057#	 44058
	 44073	 44104#	 44105	 44120	 44136#	 44137	 44152	 44168#	 44169	 44184	 44200#	 44201	 44216	 44232#
	 44233	 44248	 44264#	 44265	 44280	 44296#	 44297	 44312	 44352#	 44353	 44370	 44394#	 44395	 44412
	 44436#	 44437	 44454	 44478#	 44479	 44496	 44520#	 44521	 44538	 44562#	 44563	 44580	 44604#	 44605
	 44622	 44648#	 44649	 44662	 44668#	 44669	 44684	 44690#	 44691	 44706	 44712#	 44713	 44727	 44733#
	 44734	 44748	 44759#	 44760	 44773	 44779#	 44780	 44795	 44801#	 44802	 44817	 44823#	 44824	 44838
	 44844#	 44845	 44859	 44870#	 44871	 44884	 44890#	 44891	 44906	 44912#	 44913	 44928	 44934#	 44935
	 44949	 44955#	 44956	 44970	 44981#	 44982	 44995	 45001#	 45002	 45017	 45023#	 45024	 45039	 45045#
	 45046	 45060	 45066#	 45067	 45081	 45092#	 45093	 45106	 45112#	 45113	 45128	 45134#	 45135	 45150
	 45156#	 45157	 45171	 45177#	 45178	 45192	 45203#	 45204	 45217	 45223#	 45224	 45239	 45245#	 45246
	 45261	 45267#	 45268	 45282	 45288#	 45289	 45303	 45314#	 45315	 45328	 45334#	 45335	 45350	 45356#
	 45357	 45372	 45378#	 45379	 45393	 45399#	 45400	 45414	 45425#	 45426	 45439	 45445#	 45446	 45461
	 45467#	 45468	 45483	 45489#	 45490	 45504	 45510#	 45511	 45525	 45536#	 45537	 45550	 45556#	 45557
	 45572	 45578#	 45579	 45594	 45600#	 45601	 45615	 45621#	 45622	 45636	 45647#	 45648	 45661	 45667#
	 45668	 45683	 45689#	 45690	 45705	 45711#	 45712	 45726	 45732#	 45733	 45747	 45777#	 45778	 45794
	 45808#	 45809	 45825	 45839#	 45840	 45856	 45870#	 45871	 45887	 45901#	 45902	 45918	 45932#	 45933
	 45949	 45963#	 45964	 45980	 46430#	 46431	 46461	 46467#	 46468	 46498	 46504#	 46505	 46535	 46541#
	 46542	 46572	 46578#	 46579	 46609	 46615#	 46616	 46646	 46652#	 46653	 46683	 46689#	 46690	 46720
	 46726#	 46727	 46757	 46763#	 46764	 46794	 46800#	 46801	 46831	 46837#	 46838	 46868	 46874#	 46875
	 46905	 46911#	 46912	 46942	 46948#	 46949	 46979	 46985#	 46986	 47016	 47022#	 47023	 47053	 47059#
	 47060	 47090	 47096#	 47097	 47127	 47133#	 47134	 47164	 47170#	 47171	 47201	 47714#	 47715	 47732
	 47750#	 47751	 47768	 47786#	 47787	 47804	 47822#	 47823	 47840	 47858#	 47859	 47876	 47894#	 47895
	 47912	 47930#	 47931	 47948	 48571#	 48572	 48587	 48611#	 48612	 48627	 48651#	 48652	 48667	 48691#
	 48692	 48707	 48731#	 48732	 48747	 48771#	 48772	 48787	 48811#	 48812	 48827	 48866#	 48867	 48886
	 48907#	 48908	 48927	 48948#	 48949	 48968	 48989#	 48990	 49009	 49030#	 49031	 49050	 49071#	 49072
	 49091	 49112#	 49113	 49132	 49153#	 49154	 49173	 49194#	 49195	 49214	 49235#	 49236	 49255	 49276#
	 49277	 49296	 49317#	 49318	 49337	 49358#	 49359	 49378	 49399#	 49400	 49419	 49440#	 49441	 49460
	 49481#	 49482	 49501	 49522#	 49523	 49542	 49563#	 49564	 49583	 49604#	 49605	 49624	 49645#	 49646
	 49665	 49686#	 49687	 49706	 49727#	 49728	 49747	 49768#	 49769	 49788	 49809#	 49810	 49829	 49850#
	 49851	 49870	 49891#	 49892	 49911	 49932#	 49933	 49952	 49973#	 49974	 49993	 50014#	 50015	 50034
	 50055#	 50056	 50075	 50096#	 50097	 50116	 50142#	 50143	 50157	 50171#	 50172	 50186	 50200#	 50201
	 50215	 50229#	 50230	 50244	 50258#	 50259	 50273	 50287#	 50288	 50302	 50316#	 50317	 50331	 50345#
	 50346	 50360	 50374#	 50375	 50389	 50403#	 50404	 50418	 50432#	 50433	 50447	 50461#	 50462	 50476
	 50490#	 50491	 50505	 50519#	 50520	 50534	 50548#	 50549	 50563	 50577#	 50578	 50592	 50606#	 50607
	 50621	 50635#	 50636	 50650	 50664#	 50665	 50679	 50692#	 50693	 50707	 50720#	 50721	 50735	 50748#
	 50749	 50763	 50831#	 50832	 50848	 50863#	 50864	 50880	 50895#	 50896	 50912	 50927#	 50928	 50944
	 50959#	 50960	 50976	 50991#	 50992	 51008	 51023#	 51024	 51040	 51055#	 51056	 51072	 51083#	 51084
	 51114	 51130	 51138#	 51139	 51155	 51164#	 51165	 51180
..0001	 43892#
..0002	 43920#
..0003	 43948#
..0004	 43976#
..0005	 44004#
..0006	 44032#
..0007	 44060#
..0010	 44107#
..0011	 44139#
..0012	 44171#
..0013	 44203#
..0014	 44235#
..0015	 44267#
..0016	 44299#
..0017	 44355#
..0020	 44397#
..0021	 44439#
..0022	 44481#
..0023	 44523#
..0024	 44565#
..0025	 44607#
..0026	 44651#
..0027	 44762#
..0030	 44873#
..0031	 44984#
..0032	 45095#
..0033	 45206#
..0034	 45317#
..0035	 45428#
..0036	 45539#
..0037	 45650#
..0040	 45780#
..0041	 45811#
..0042	 45842#
..0043	 45873#
..0044	 45904#
..0045	 45935#
..0046	 45966#
..0047	 46011#
..0050	 46032#
..0051	 46053#
..0052	 46074#
..0053	 46095#
..0054	 46117#
..0055	 46138#
..0056	 46170#
..0057	 46188#
..0060	 46206#
..0061	 46224#
..0062	 46242#
..0063	 46260#
..0064	 46278#
..0065	 46305#
..0066	 46312#
..0067	 46322#
..0070	 46329#
..0071	 46339#
..0072	 46346#
..0073	 46356#
..0074	 46363#
..0075	 46373#
..0076	 46380#
..0077	 46390#
..0100	 46397#
..0101	 46407#
..0102	 46414#
..0103	 46440#
..0104	 46477#
..0105	 46514#
..0106	 46551#
..0107	 46588#
..0110	 46625#
..0111	 46662#
..0112	 46699#
..0113	 46736#
..0114	 46773#
..0115	 46810#
..0116	 46847#
..0117	 46884#
..0120	 46921#
..0121	 46958#
..0122	 46995#
..0123	 47032#
..0124	 47069#
..0125	 47106#
..0126	 47143#
..0127	 47180#
..0130	 47232	 47245#
..0131	 47264	 47277#
..0132	 47300	 47313#
..0133	 47332	 47345#
..0134	 47368	 47381#
..0135	 47400	 47413#
..0136	 47436	 47449#
..0137	 47468	 47481#
..0140	 47504	 47517#
..0141	 47536	 47549#
..0142	 47572	 47585#
..0143	 47604	 47617#
..0144	 47640	 47653#
..0145	 47672	 47685#
..0146	 47717#
..0147	 47753#
..0150	 47789#
..0151	 47825#
..0152	 47861#
..0153	 47897#
..0154	 47933#
..0155	 48576	 48585#	 48592
..0156	 48616	 48625#	 48632
..0157	 48656	 48665#	 48672
..0160	 48696	 48705#	 48712
..0161	 48736	 48745#	 48752
..0162	 48776	 48785#	 48792
..0163	 48816	 48825#	 48832
..0164	 48869#
..0165	 48910#
..0166	 48951#
..0167	 48992#
..0170	 49033#
..0171	 49074#
..0172	 49115#
..0173	 49156#
..0174	 49197#
..0175	 49238#
..0176	 49279#
..0177	 49320#
..0200	 49361#
..0201	 49402#
..0202	 49443#
..0203	 49484#
..0204	 49525#
..0205	 49566#
..0206	 49607#
..0207	 49648#
..0210	 49689#
..0211	 49730#
..0212	 49771#
..0213	 49812#
..0214	 49853#
..0215	 49894#
..0216	 49935#
..0217	 49976#
..0220	 50017#
..0221	 50058#
..0222	 50099#
..0223	 50145#
..0224	 50148#
..0225	 50152#
..0226	 50174#
..0227	 50177#
..0230	 50181#
..0231	 50203#
..0232	 50206#
..0233	 50210#
..0234	 50232#
..0235	 50235#
..0236	 50239#
..0237	 50261#
..0240	 50264#
..0241	 50268#
..0242	 50290#
..0243	 50293#
..0244	 50297#
..0245	 50319#
..0246	 50322#
..0247	 50326#
..0250	 50348#
..0251	 50351#
..0252	 50355#
..0253	 50377#
..0254	 50380#
..0255	 50384#
..0256	 50406#
..0257	 50409#
..0260	 50413#
..0261	 50435#
..0262	 50438#
..0263	 50442#
..0264	 50464#
..0265	 50467#
..0266	 50471#
..0267	 50493#
..0270	 50496#
..0271	 50500#
..0272	 50522#
..0273	 50525#
..0274	 50529#
..0275	 50551#
..0276	 50554#
..0277	 50558#
..0300	 50580#
..0301	 50583#
..0302	 50587#
..0303	 50609#
..0304	 50612#
..0305	 50616#
..0306	 50638#
..0307	 50641#
..0310	 50645#
..0311	 50667#
..0312	 50670#
..0313	 50674#
..0314	 50695#
..0315	 50698#
..0316	 50702#
..0317	 50723#
..0320	 50726#
..0321	 50730#
..0322	 50751#
..0323	 50754#
..0324	 50758#
..0325	 50835	 50841#
..0326	 50837	 50839#
..0327	 50867	 50873#
..0330	 50869	 50871#
..0331	 50899	 50905#
..0332	 50901	 50903#
..0333	 50931	 50937#
..0334	 50933	 50935#
..0335	 50963	 50969#
..0336	 50965	 50967#
..0337	 50995	 51001#
..0340	 50997	 50999#
..0341	 51027	 51033#
..0342	 51029	 51031#
..0343	 51059	 51065#
..0344	 51061	 51063#
.JB41	   364#
.JBAPR	   364#
.JBCNI	   364#
.JBDDT	   364#
.JBFF	   364#
.JBOPC	   364#
.JBREL	   364#
.JBREN	   364#
.JBSA	   364#
.JBSYM	   364#
.JBTPC	   364#
.JBUSY	   364#
.JBUUO	   364#
.JBVER	   364#

BLURB	 42952#	 43757	 43873	 44080	 44321	 44630	 45754	 47964
BLURB1	 42958#	 44341	 44383	 44425	 44467	 44509	 44551	 44593
CFLUSH	   282#
CINVAL	   281#
CLOKOP	   276#
CLRAPR	 42947#	 43491	 43499	 43507	 43514	 43521	 43528	 43535	 43893	 43921	 43949	 43977	 44005	 44033
	 44061	 44108	 44140	 44172	 44204	 44236	 44268	 44300	 44356	 44398	 44440	 44482	 44524	 44566
	 44608	 44652	 44672	 44694	 44716	 44737	 44763	 44783	 44805	 44827	 44848	 44874	 44894	 44916
	 44938	 44959	 44985	 45005	 45027	 45049	 45070	 45096	 45116	 45138	 45160	 45181	 45207	 45227
	 45249	 45271	 45292	 45318	 45338	 45360	 45382	 45403	 45429	 45449	 45471	 45493	 45514	 45540
	 45560	 45582	 45604	 45625	 45651	 45671	 45693	 45715	 45736	 45781	 45812	 45843	 45874	 45905
	 45936	 45967	 45998	 46016	 46037	 46058	 46079	 46100	 46122	 46153	 46158	 46176	 46194	 46212
	 46230	 46248	 46266	 46285	 46297	 46420	 46445	 46482	 46519	 46556	 46593	 46630	 46667	 46704
	 46741	 46778	 46815	 46852	 46889	 46926	 46963	 47000	 47037	 47074	 47111	 47148	 47185	 47206
	 47227	 47246	 47259	 47278	 47295	 47314	 47327	 47346	 47363	 47382	 47395	 47414	 47431	 47450
	 47463	 47482	 47499	 47518	 47531	 47550	 47567	 47586	 47599	 47618	 47635	 47654	 47667	 47686
	 47737	 47773	 47809	 47845	 47881	 47917	 47953	 47971	 48014	 48036	 48058	 48080	 48102	 48124
	 48146	 48166	 48177	 48204	 48224	 48244	 48264	 48284	 48304	 48324	 48344	 48364	 48384	 48404
	 48424	 48444	 48464	 48484	 48504	 48524	 48544	 48579	 48599	 48619	 48639	 48659	 48679	 48699
	 48719	 48739	 48759	 48779	 48799	 48819	 48839	 50775	 50791	 50807	 51091	 51142	 51168
CLRBT1	 43160#	 46296	 48578	 48618	 48658	 48698	 48738	 48778	 48818
CLRBTH	 43156#	 43892	 43920	 43948	 43976	 44004	 44032	 44060	 44107	 44139	 44171	 44203	 44235	 44267
	 44299	 44355	 44397	 44439	 44481	 44523	 44565	 44607	 44651	 44671	 44693	 44715	 44736	 44762
	 44782	 44804	 44826	 44847	 44873	 44893	 44915	 44937	 44958	 44984	 45004	 45026	 45048	 45069
	 45095	 45115	 45137	 45159	 45180	 45206	 45226	 45248	 45270	 45291	 45317	 45337	 45359	 45381
	 45402	 45428	 45448	 45470	 45492	 45513	 45539	 45559	 45581	 45603	 45624	 45650	 45670	 45692
	 45714	 45735	 45780	 45811	 45842	 45873	 45904	 45935	 45966	 46152	 46419	 46444	 46481	 46518
	 46555	 46592	 46629	 46666	 46703	 46740	 46777	 46814	 46851	 46888	 46925	 46962	 46999	 47036
	 47073	 47110	 47147	 47184	 47205	 47226	 47245	 47258	 47277	 47294	 47313	 47326	 47345	 47362
	 47381	 47394	 47413	 47430	 47449	 47462	 47481	 47498	 47517	 47530	 47549	 47566	 47585	 47598
	 47617	 47634	 47653	 47666	 47685	 47736	 47772	 47808	 47844	 47880	 47916	 47952	 47970	 48013
	 48035	 48057	 48079	 48101	 48123	 48145	 48165	 48176	 48203	 48223	 48243	 48263	 48283	 48303
	 48323	 48343	 48363	 48383	 48403	 48423	 48443	 48463	 48483	 48503	 48523	 48543	 48598	 48638
	 48678	 48718	 48758	 48798	 48838	 50774	 50790	 50806	 51090	 51141	 51167
CLRPI	 42948#	 43894	 43922	 43950	 43978	 44006	 44034	 44062	 44109	 44141	 44173	 44205	 44237	 44269
	 44301	 44357	 44399	 44441	 44483	 44525	 44567	 44609	 44653	 44673	 44695	 44717	 44738	 44764
	 44784	 44806	 44828	 44849	 44875	 44895	 44917	 44939	 44960	 44986	 45006	 45028	 45050	 45071
	 45097	 45117	 45139	 45161	 45182	 45208	 45228	 45250	 45272	 45293	 45319	 45339	 45361	 45383
	 45404	 45430	 45450	 45472	 45494	 45515	 45541	 45561	 45583	 45605	 45626	 45652	 45672	 45694
	 45716	 45737	 45782	 45813	 45844	 45875	 45906	 45937	 45968	 45997	 46015	 46036	 46057	 46078
	 46099	 46121	 46154	 46157	 46175	 46193	 46211	 46229	 46247	 46265	 46284	 46298	 46421	 46446
	 46483	 46520	 46557	 46594	 46631	 46668	 46705	 46742	 46779	 46816	 46853	 46890	 46927	 46964
	 47001	 47038	 47075	 47112	 47149	 47186	 47207	 47228	 47247	 47260	 47279	 47296	 47315	 47328
	 47347	 47364	 47383	 47396	 47415	 47432	 47451	 47464	 47483	 47500	 47519	 47532	 47551	 47568
	 47587	 47600	 47619	 47636	 47655	 47668	 47687	 47738	 47774	 47810	 47846	 47882	 47918	 47954
	 47972	 48015	 48037	 48059	 48081	 48103	 48125	 48147	 48167	 48178	 48205	 48225	 48245	 48265
	 48285	 48305	 48325	 48345	 48365	 48385	 48405	 48425	 48445	 48465	 48485	 48505	 48525	 48545
	 48580	 48600	 48620	 48640	 48660	 48680	 48700	 48720	 48740	 48760	 48780	 48800	 48820	 48840
	 50776	 50792	 50808	 51092	 51143	 51169
CLRTRP	 42944#	 46283
CWRTBI	   283#
DROPDV	   243#
ENDUUO	   289#	   446
EOPUUO	   290#	   448
ERLOOP	   334#
ERLP1	   335#
ERLP2	   336#
ERRHLT	   177#
ERROR	   343#
ERROR1	   354#
ERUUO	   333#
EXECUT	 43102#
EXIT	   828
FATAL	   176#
FMUUO	 43239#	 50822	 50854	 50886	 50918	 50950	 50982	 51014	 51046
FRD36	   318#
FRD8	   319#
FREAD	   317#
FSELEC	   316#
GET	   160#
GO	   157#
HALT	   162#	   467	   756	   758	   759	   763	   777	   868	   915	   931	   942	   952	   959	   971
	   984	   998	  1015	  1030	  1049	  1063	  1077	  1091	  1105	  1119	  1132	  1146	  1161	  1175
	  1188	  1202	  1216	  1229	  1243	  1257	  1270	  1284	  1298	  1335	  1354	  1373	  1392	  1411
	  1430	  1449	  1468	  1487	  1506	  1525	  1544	  1563	  1582	  1601	  1620	  1639	  1658	  1677
	  1696	  1715	  1734	  1753	  1772	  1791	  1810	  1829	  1848	  1867	  1886	  1905	  1924	  1943
	  1962	  1981	  2000	  2015	  2033	  2048	  2064	  2089	  2107	  2125	  2138	  2152	  2177	  2224
	  2230	  2253	  2259	  2282	  2288	  2311	  2317	  2335	  2354	  2372	  2390	  2406	  2422	  2437
	  2454	  2474	  2511	  2530	  2549	  2568	  2587	  2606	  2625	  2644	  2663	  2682	  2701	  2720
	  2739	  2758	  2777	  2796	  2815	  2834	  2871	  2890	  2909	  2928	  2947	  2966	  2985	  3004
	  3023	  3042	  3061	  3080	  3099	  3118	  3137	  3156	  3175	  3194	  3211	  3227	  3247	  3265
	  3286	  3334	  3340	  3363	  3369	  3392	  3398	  3421	  3427	  3450	  3456	  3479	  3485	  3508
	  3514	  3537	  3543	  3566	  3572	  3595	  3601	  3624	  3630	  3653	  3659	  3682	  3688	  3711
	  3717	  3740	  3746	  3769	  3775	  3798	  3804	  3827	  3833	  3856	  3862	  3885	  3891	  3914
	  3920	  3943	  3949	  3972	  3978	  4001	  4007	  4030	  4036	  4059	  4065	  4088	  4094	  4117
	  4123	  4146	  4152	  4175	  4181	  4204	  4210	  4233	  4239	  4262	  4268	  4291	  4297	  4320
	  4326	  4349	  4355	  4396	  4417	  4438	  4459	  4480	  4501	  4522	  4543	  4564	  4585	  4606
	  4627	  4648	  4669	  4690	  4711	  4732	  4753	  4774	  4795	  4816	  4837	  4858	  4879	  4900
	  4921	  4942	  4963	  4984	  5005	  5026	  5047	  5068	  5089	  5110	  5131	  5149	  5166	  5186
	  5204	  5220	  5259	  5279	  5299	  5319	  5339	  5359	  5379	  5399	  5419	  5439	  5459	  5479
	  5499	  5519	  5539	  5559	  5579	  5599	  5619	  5639	  5659	  5679	  5699	  5719	  5739	  5759
	  5779	  5799	  5819	  5839	  5859	  5879	  5899	  5919	  5939	  5959	  6004	  6029	  6054	  6079
	  6104	  6129	  6154	  6179	  6204	  6229	  6254	  6279	  6304	  6329	  6354	  6379	  6404	  6429
	  6454	  6479	  6504	  6529	  6554	  6579	  6604	  6629	  6654	  6679	  6704	  6729	  6754	  6779
	  6804	  6829	  6854	  6879	  6926	  6947	  6968	  6989	  7010	  7031	  7052	  7073	  7094	  7115
	  7136	  7157	  7178	  7199	  7220	  7241	  7262	  7283	  7304	  7325	  7346	  7367	  7388	  7409
	  7430	  7451	  7472	  7493	  7514	  7535	  7556	  7577	  7598	  7619	  7640	  7661	  7676	  7694
	  7737	  7759	  7781	  7803	  7825	  7847	  7869	  7891	  7913	  7935	  7957	  7979	  8001	  8023
	  8045	  8067	  8089	  8111	  8155	  8177	  8199	  8221	  8243	  8265	  8287	  8309	  8331	  8353
	  8375	  8397	  8419	  8441	  8463	  8485	  8507	  8529	  8549	  8569	  8616	  8640	  8664	  8688
	  8712	  8736	  8760	  8784	  8808	  8832	  8856	  8880	  8904	  8928	  8952	  8976	  9000	  9024
	  9048	  9072	  9096	  9120	  9144	  9168	  9192	  9216	  9240	  9264	  9288	  9312	  9336	  9360
	  9384	  9408	  9432	  9456	  9477	  9500	  9521	  9543	  9560	  9578	  9635	  9665	  9695	  9725
	  9755	  9785	  9815	  9845	  9875	  9905	  9935	  9965	  9995	 10025	 10055	 10085	 10115	 10145
	 10175	 10205	 10235	 10265	 10295	 10325	 10355	 10385	 10415	 10445	 10475	 10505	 10535	 10565
	 10595	 10625	 10655	 10685	 10706	 10763	 10789	 10815	 10841	 10867	 10893	 10919	 10945	 10971
	 10997	 11023	 11049	 11075	 11101	 11127	 11153	 11179	 11205	 11231	 11257	 11283	 11309	 11335
	 11361	 11387	 11413	 11439	 11465	 11491	 11517	 11543	 11569	 11595	 11621	 11647	 11673	 11726
	 11751	 11776	 11801	 11826	 11851	 11876	 11901	 11926	 11951	 11976	 12001	 12026	 12051	 12076
	 12101	 12126	 12151	 12176	 12201	 12226	 12251	 12276	 12301	 12326	 12351	 12376	 12401	 12426
	 12451	 12476	 12501	 12526	 12551	 12576	 12629	 12655	 12681	 12707	 12733	 12759	 12785	 12811
	 12837	 12863	 12889	 12915	 12941	 12967	 12993	 13019	 13045	 13071	 13125	 13151	 13177	 13203
	 13229	 13255	 13281	 13307	 13333	 13359	 13385	 13411	 13437	 13463	 13489	 13515	 13541	 13567
	 13586	 13603	 13620	 13636	 13653	 13670	 13686	 13703	 13720	 13736	 13751	 13768	 13786	 13823
	 13841	 13859	 13877	 13895	 13913	 13931	 13949	 13967	 13985	 14003	 14021	 14039	 14057	 14075
	 14093	 14111	 14129	 14147	 14165	 14183	 14201	 14219	 14237	 14255	 14273	 14291	 14309	 14327
	 14345	 14363	 14381	 14399	 14417	 14435	 14453	 14469	 14483	 14505	 14523	 14542	 14564	 14587
	 14610	 14633	 14647	 14669	 14684	 14706	 14721	 14737	 14757	 14778	 14803	 14856	 14883	 14910
	 14937	 14964	 14991	 15018	 15045	 15072	 15099	 15126	 15153	 15180	 15207	 15234	 15261	 15288
	 15315	 15362	 15384	 15406	 15428	 15450	 15472	 15494	 15516	 15538	 15560	 15582	 15604	 15626
	 15648	 15670	 15692	 15714	 15736	 15771	 15789	 15807	 15825	 15843	 15861	 15879	 15897	 15915
	 15933	 15951	 15969	 15987	 16005	 16023	 16041	 16059	 16077	 16095	 16113	 16131	 16149	 16167
	 16185	 16203	 16221	 16239	 16257	 16275	 16293	 16311	 16329	 16347	 16365	 16383	 16401	 16436
	 16454	 16472	 16490	 16508	 16526	 16544	 16562	 16580	 16598	 16616	 16634	 16652	 16670	 16688
	 16706	 16724	 16742	 16760	 16778	 16796	 16814	 16832	 16850	 16868	 16886	 16904	 16922	 16940
	 16958	 16976	 16994	 17012	 17030	 17048	 17066	 17109	 17129	 17149	 17169	 17189	 17209	 17229
	 17249	 17269	 17289	 17309	 17329	 17349	 17369	 17389	 17409	 17429	 17449	 17488	 17508	 17528
	 17548	 17568	 17588	 17608	 17628	 17648	 17668	 17688	 17708	 17728	 17748	 17768	 17788	 17808
	 17828	 17878	 17903	 17928	 17953	 17978	 18003	 18028	 18053	 18078	 18103	 18128	 18153	 18178
	 18203	 18228	 18253	 18278	 18303	 18353	 18378	 18403	 18428	 18453	 18478	 18503	 18528	 18553
	 18578	 18603	 18628	 18653	 18678	 18703	 18728	 18753	 18778	 18797	 18821	 18841	 18859	 18875
	 18890	 18911	 18931	 18953	 18967	 18983	 19005	 19023	 19047	 19070	 19091	 19117	 19145	 19163
	 19179	 19203	 19219	 19236	 19257	 19273	 19296	 19318	 19335	 19351	 19368	 19384	 19408	 19430
	 19446	 19461	 19477	 19493	 19520	 19540	 19556	 19571	 19587	 19603	 19631	 19646	 19662	 19677
	 19693	 19711	 19733	 19756	 19770	 19788	 19808	 19832	 19848	 19868	 19891	 19908	 19926	 19942
	 19968	 19989	 20007	 20023	 20046	 20068	 20092	 20108	 20126	 20141	 20165	 20186	 20203	 20224
	 20238	 20261	 20276	 20293	 20318	 20341	 20362	 20377	 20401	 20417	 20436	 20449	 20462	 20474
	 20490	 20504	 20520	 20540	 20561	 20578	 20612	 20629	 20647	 20664	 20682	 20705	 20723	 20740
	 20759	 20782	 20803	 20820	 20836	 20853	 20868	 20890	 20912	 20929	 20945	 20961	 20982	 20999
	 21015	 21032	 21048	 21065	 21081	 21098	 21113	 21130	 21145	 21161	 21182	 21203	 21218	 21239
	 21259	 21275	 21290	 21311	 21326	 21342	 21357	 21373	 21388	 21409	 21424	 21445	 21466	 21482
	 21497	 21513	 21528	 21544	 21559	 21575	 21590	 21606	 21621	 21645	 21660	 21681	 21696	 21719
	 21740	 21756	 21772	 21793	 21814	 21830	 21846	 21867	 21883	 21899	 21914	 21930	 21945	 21961
	 21976	 21992	 22016	 22041	 22058	 22088	 22103	 22124	 22144	 22165	 22185	 22206	 22226	 22248
	 22269	 22285	 22300	 22316	 22331	 22347	 22362	 22378	 22394	 22411	 22427	 22449	 22471	 22488
	 22504	 22526	 22549	 22566	 22582	 22607	 22622	 22645	 22667	 22684	 22699	 22721	 22742	 22765
	 22781	 22799	 22816	 22839	 22858	 22875	 22890	 22906	 22923	 22949	 23001	 23021	 23041	 23061
	 23081	 23101	 23121	 23141	 23161	 23181	 23201	 23221	 23241	 23261	 23281	 23301	 23321	 23341
	 23380	 23400	 23420	 23440	 23460	 23480	 23500	 23520	 23540	 23560	 23580	 23600	 23620	 23640
	 23660	 23680	 23700	 23720	 23761	 23781	 23801	 23821	 23841	 23861	 23881	 23901	 23921	 23941
	 23961	 23981	 24001	 24021	 24041	 24061	 24081	 24101	 24140	 24160	 24180	 24200	 24220	 24240
	 24260	 24280	 24300	 24320	 24340	 24360	 24380	 24400	 24420	 24440	 24460	 24480	 24525	 24546
	 24567	 24588	 24609	 24630	 24651	 24672	 24693	 24714	 24735	 24756	 24777	 24798	 24819	 24840
	 24861	 24880	 24920	 24941	 24962	 24983	 25004	 25025	 25046	 25067	 25088	 25109	 25130	 25151
	 25172	 25193	 25214	 25235	 25256	 25276	 25320	 25341	 25362	 25383	 25404	 25425	 25446	 25467
	 25488	 25509	 25530	 25551	 25572	 25593	 25614	 25635	 25656	 25676	 25716	 25737	 25758	 25779
	 25800	 25821	 25842	 25863	 25884	 25905	 25926	 25947	 25968	 25989	 26010	 26031	 26052	 26073
	 26097	 26112	 26126	 26141	 26217	 26235	 26253	 26271	 26289	 26307	 26325	 26343	 26361	 26379
	 26397	 26415	 26433	 26451	 26469	 26487	 26581	 26600	 26619	 26638	 26657	 26676	 26695	 26714
	 26733	 26752	 26771	 26790	 26809	 26828	 26847	 26883	 26901	 26919	 26937	 26955	 26973	 26991
	 27009	 27027	 27045	 27063	 27081	 27099	 27117	 27135	 27176	 27197	 27218	 27239	 27260	 27281
	 27302	 27323	 27344	 27365	 27386	 27407	 27428	 27449	 27470	 27493	 27540	 27564	 27588	 27612
	 27636	 27660	 27684	 27708	 27732	 27756	 27780	 27804	 27828	 27852	 27876	 27900	 27924	 27948
	 27995	 28019	 28043	 28067	 28091	 28115	 28139	 28163	 28187	 28211	 28235	 28259	 28283	 28307
	 28331	 28355	 28379	 28403	 28422	 28469	 28493	 28517	 28541	 28565	 28589	 28613	 28637	 28661
	 28685	 28709	 28733	 28757	 28781	 28805	 28829	 28853	 28877	 28924	 28948	 28972	 28996	 29020
	 29044	 29068	 29092	 29116	 29140	 29164	 29188	 29212	 29236	 29260	 29284	 29308	 29332	 29370
	 29384	 29398	 29412	 29426	 29440	 29454	 29468	 29482	 29496	 29510	 29524	 29538	 29552	 29566
	 29602	 29616	 29630	 29644	 29658	 29672	 29686	 29700	 29714	 29728	 29742	 29756	 29770	 29784
	 29798	 29818	 29834	 29851	 29857	 29875	 29881	 29905	 29930	 29936	 29953	 29959	 29972	 29976
	 29994	 30011	 30029	 30044	 30060	 30077	 30094	 30111	 30129	 30145	 30160	 30176	 30193	 30209
	 30226	 30243	 30260	 30278	 30297	 30315	 30330	 30346	 30366	 30383	 30403	 30426	 30449	 30469
	 30488	 30508	 30526	 30549	 30571	 30591	 30612	 30628	 30645	 30667	 30688	 30710	 30731	 30752
	 30764	 30780	 30798	 30813	 30827	 30841	 30854	 30869	 30884	 30901	 30907	 30914	 30921	 30938
	 30954	 30960	 30967	 30974	 30991	 30997	 31004	 31011	 31029	 31044	 31058	 31073	 31089	 31095
	 31102	 31109	 31126	 31132	 31139	 31146	 31169	 31188	 31212	 31231	 31255	 31272	 31287	 31301
	 31314	 31329	 31344	 31357	 31372	 31390	 31405	 31420	 31434	 31449	 31497	 31513	 31519	 31526
	 31533	 31550	 31556	 31563	 31570	 31588	 31603	 31617	 31632	 31649	 31655	 31670	 31685	 31701
	 31715	 31732	 31748	 31764	 31778	 31794	 31808	 31826	 31846	 31862	 31879	 31894	 31905	 31928
	 31948	 31967	 31988	 32008	 32025	 32041	 32105	 32121	 32136	 32152	 32167	 32183	 32199	 32216
	 32241	 32263	 32285	 32308	 32330	 32348	 32353	 32364	 32369	 32392	 32411	 32421	 32426	 32443
	 32457	 32472	 32482	 32487	 32500	 32504	 32516	 32520	 32538	 32555	 32573	 32589	 32607	 32621
	 32635	 32650	 32668	 32684	 32700	 32717	 32745	 32764	 32784	 32804	 32823	 32848	 32854	 32873
	 32879	 32895	 32901	 32917	 32934	 32940	 32959	 32966	 32987	 32993	 33012	 33019	 33040	 33046
	 33061	 33076	 33092	 33098	 33117	 33123	 33141	 33147	 33165	 33183	 33189	 33207	 33214	 33233
	 33239	 33257	 33264	 33286	 33303	 33319	 33335	 33350	 33367	 33382	 33398	 33413	 33430	 33445
	 33461	 33476	 33493	 33508	 33525	 33541	 33557	 33577	 33593	 33610	 33627	 33642	 33658	 33675
	 33689	 33703	 33718	 33731	 33745	 33764	 33770	 33789	 33795	 33812	 33818	 33837	 33843	 33860
	 33866	 33885	 33891	 33908	 33914	 33932	 33938	 33956	 33962	 33980	 33986	 34003	 34009	 34027
	 34033	 34051	 34057	 34075	 34081	 34098	 34104	 34122	 34128	 34146	 34152	 34170	 34176	 34194
	 34200	 34219	 34225	 34242	 34248	 34272	 34278	 34284	 34306	 34313	 34319	 34343	 34349	 34355
	 34376	 34382	 34388	 34410	 34416	 34422	 34442	 34448	 34454	 34476	 34482	 34488	 34508	 34514
	 34520	 34541	 34547	 34553	 34574	 34580	 34586	 34607	 34613	 34619	 34639	 34645	 34651	 34672
	 34678	 34684	 34705	 34711	 34717	 34738	 34744	 34750	 34770	 34776	 34782	 34803	 34809	 34815
	 34836	 34842	 34848	 34869	 34875	 34881	 34902	 34908	 34914	 34936	 34942	 34948	 34968	 34974
	 34980	 35001	 35007	 35025	 35031	 35049	 35055	 35074	 35080	 35097	 35103	 35122	 35128	 35145
	 35151	 35169	 35175	 35193	 35199	 35217	 35223	 35240	 35246	 35264	 35270	 35288	 35294	 35312
	 35318	 35335	 35341	 35359	 35365	 35383	 35389	 35406	 35412	 35431	 35437	 35455	 35461	 35479
	 35485	 35509	 35515	 35521	 35543	 35549	 35555	 35577	 35584	 35590	 35615	 35621	 35627	 35650
	 35656	 35662	 35682	 35688	 35694	 35717	 35723	 35729	 35749	 35755	 35761	 35782	 35788	 35794
	 35815	 35821	 35827	 35848	 35854	 35860	 35879	 35885	 35891	 35912	 35918	 35924	 35945	 35951
	 35957	 35978	 35984	 35990	 36010	 36016	 36022	 36043	 36049	 36055	 36076	 36082	 36088	 36109
	 36115	 36121	 36142	 36148	 36154	 36176	 36182	 36188	 36208	 36214	 36220	 36239	 36245	 36261
	 36267	 36281	 36287	 36302	 36308	 36322	 36328	 36344	 36361	 36367	 36386	 36393	 36412	 36418
	 36436	 36443	 36461	 36480	 36486	 36503	 36509	 36524	 36539	 36545	 36561	 36567	 36583	 36600
	 36606	 36623	 36629	 36646	 36652	 36666	 36682	 36688	 36703	 36721	 36727	 36742	 36760	 36766
	 36783	 36789	 36806	 36823	 36829	 36847	 36853	 36869	 36886	 36892	 36909	 36915	 36932	 36949
	 36955	 36973	 36979	 36995	 37013	 37019	 37036	 37042	 37059	 37076	 37082	 37100	 37106	 37122
	 37140	 37146	 37163	 37169	 37185	 37202	 37208	 37225	 37231	 37249	 37267	 37273	 37290	 37296
	 37316	 37322	 37341	 37347	 37364	 37370	 37388	 37394	 37415	 37421	 37437	 37443	 37463	 37469
	 37488	 37494	 37511	 37517	 37532	 37538	 37553	 37569	 37575	 37596	 37602	 37621	 37627	 37644
	 37650	 37669	 37675	 37695	 37701	 37717	 37723	 37743	 37749	 37768	 37774	 37791	 37797	 37816
	 37822	 37843	 37849	 37867	 37873	 37893	 37899	 37913	 37930	 37936	 37953	 37960	 37981	 37987
	 38007	 38013	 38033	 38040	 38058	 38064	 38084	 38090	 38109	 38115	 38131	 38137	 38151	 38168
	 38174	 38193	 38199	 38219	 38225	 38244	 38250	 38270	 38276	 38295	 38301	 38321	 38327	 38346
	 38352	 38369	 38375	 38390	 38396	 38413	 38419	 38433	 38439	 38454	 38460	 38474	 38480	 38495
	 38501	 38515	 38521	 38537	 38543	 38557	 38563	 38579	 38585	 38602	 38608	 38614	 38633	 38639
	 38645	 38661	 38667	 38673	 38690	 38696	 38713	 38719	 38725	 38744	 38750	 38756	 38772	 38778
	 38795	 38801	 38817	 38823	 38840	 38846	 38863	 38869	 38888	 38894	 38911	 38917	 38936	 38942
	 38958	 38964	 38981	 38987	 39003	 39009	 39026	 39032	 39049	 39055	 39074	 39080	 39097	 39103
	 39122	 39128	 39146	 39152	 39158	 39177	 39183	 39189	 39208	 39214	 39220	 39241	 39247	 39253
	 39272	 39278	 39284	 39305	 39311	 39317	 39335	 39341	 39347	 39353	 39371	 39377	 39383	 39400
	 39406	 39412	 39430	 39436	 39442	 39461	 39467	 39473	 39494	 39500	 39506	 39525	 39531	 39537
	 39558	 39564	 39570	 39586	 39592	 39609	 39615	 39631	 39637	 39654	 39660	 39677	 39683	 39702
	 39708	 39725	 39731	 39750	 39756	 39772	 39778	 39795	 39801	 39817	 39823	 39840	 39846	 39863
	 39869	 39888	 39894	 39911	 39917	 39936	 39942	 39960	 39966	 39972	 39991	 39997	 40003	 40022
	 40028	 40034	 40055	 40061	 40067	 40086	 40092	 40113	 40119	 40125	 40142	 40148	 40154	 40172
	 40178	 40184	 40201	 40207	 40213	 40231	 40237	 40243	 40262	 40268	 40274	 40295	 40301	 40307
	 40326	 40332	 40338	 40359	 40365	 40371	 40387	 40393	 40410	 40416	 40432	 40438	 40455	 40461
	 40478	 40484	 40503	 40509	 40526	 40532	 40551	 40557	 40573	 40579	 40596	 40602	 40618	 40624
	 40641	 40647	 40664	 40670	 40689	 40695	 40712	 40718	 40737	 40743	 40762	 40768	 40774	 40795
	 40801	 40807	 40826	 40832	 40838	 40860	 40866	 40872	 40889	 40895	 40901	 40919	 40925	 40931
	 40948	 40954	 40960	 40978	 40984	 40990	 41009	 41015	 41021	 41042	 41048	 41054	 41073	 41079
	 41085	 41106	 41112	 41118	 41135	 41151	 41165	 41181	 41196	 41213	 41229	 41248	 41263	 41284
	 41306	 41325	 41341	 41355	 41359	 41374	 41393	 41406	 41409	 41420	 41424	 41445	 41460	 41478
	 41494	 41509	 41525	 41542	 41560	 41577	 41595	 41601	 41617	 41633	 41652	 41668	 41684	 41701
	 41717	 41730	 41741	 41742	 41744	 41757	 41758	 41762	 41779	 41796	 41812	 41819	 41832	 41839
	 41851	 41852	 41855	 41870	 41890	 41906	 41924	 41937	 41938	 41940	 41944	 41964	 41970	 41987
	 41993	 42010	 42016	 42034	 42040	 42057	 42063	 42081	 42087	 42103	 42109	 42126	 42132	 42149
	 42155	 42173	 42179	 42196	 42202	 42220	 42226	 42241	 42247	 42264	 42270	 42286	 42292	 42309
	 42315	 42331	 42337	 42354	 42360	 42375	 42381	 42398	 42404	 42420	 42426	 42443	 42449	 42465
	 42471	 42488	 42494	 42511	 42517	 42535	 42541	 42558	 42564	 42582	 42588	 42605	 42611	 42629
	 42635	 42652	 42658	 42676	 42682	 42699	 42705	 42723	 42729	 42746	 42752	 42770	 42776	 42793
	 42799	 42817	 42823	 42840	 42846	 42864	 42870	 42887	 42893	 42911	 42917	 43301	 43308	 43315
	 43322	 43329	 43335	 43345	 43353	 43363	 43370	 43381	 43389	 43402	 43409	 43422	 43432	 43440
	 43451	 43461	 43472	 43480	 43488	 43496	 43504	 43512	 43519	 43526	 43533	 43542	 43549	 43557
	 43565	 43572	 43580	 43595	 43602	 43613	 43621	 43631	 43639	 43650	 43657	 43669	 43677	 43691
	 43697	 43705	 43718	 43724	 43734	 43742	 43750	 43771	 43779	 43786	 43794	 43800	 43808	 43815
	 43823	 43830	 43838	 43845	 43853	 43860	 43868	 43901	 43907	 43929	 43935	 43957	 43963	 43985
	 43991	 44013	 44019	 44041	 44047	 44069	 44075	 44116	 44122	 44148	 44154	 44180	 44186	 44212
	 44218	 44244	 44250	 44276	 44282	 44308	 44314	 44366	 44372	 44408	 44414	 44450	 44456	 44492
	 44498	 44534	 44540	 44576	 44582	 44618	 44624	 44657	 44664	 44679	 44686	 44701	 44708	 44722
	 44729	 44744	 44750	 44768	 44775	 44790	 44797	 44812	 44819	 44833	 44840	 44855	 44861	 44879
	 44886	 44901	 44908	 44923	 44930	 44944	 44951	 44966	 44972	 44990	 44997	 45012	 45019	 45034
	 45041	 45055	 45062	 45077	 45083	 45101	 45108	 45123	 45130	 45145	 45152	 45166	 45173	 45188
	 45194	 45212	 45219	 45234	 45241	 45256	 45263	 45277	 45284	 45299	 45305	 45323	 45330	 45345
	 45352	 45367	 45374	 45388	 45395	 45410	 45416	 45434	 45441	 45456	 45463	 45478	 45485	 45499
	 45506	 45521	 45527	 45545	 45552	 45567	 45574	 45589	 45596	 45610	 45617	 45632	 45638	 45656
	 45663	 45678	 45685	 45700	 45707	 45721	 45728	 45743	 45749	 45790	 45796	 45821	 45827	 45852
	 45858	 45883	 45889	 45914	 45920	 45945	 45951	 45976	 45982	 46463	 46500	 46537	 46574	 46611
	 46648	 46685	 46722	 46759	 46796	 46833	 46870	 46907	 46944	 46981	 47018	 47055	 47092	 47129
	 47166	 47203	 47243	 47250	 47275	 47282	 47311	 47318	 47343	 47350	 47379	 47386	 47411	 47418
	 47447	 47454	 47479	 47486	 47515	 47522	 47547	 47554	 47583	 47590	 47615	 47622	 47651	 47658
	 47683	 47690	 47728	 47734	 47764	 47770	 47800	 47806	 47836	 47842	 47872	 47878	 47908	 47914
	 47944	 47950	 47983	 48026	 48048	 48070	 48092	 48114	 48136	 48158	 48172	 48183	 48212	 48217
	 48232	 48237	 48252	 48257	 48272	 48277	 48292	 48297	 48312	 48317	 48332	 48337	 48352	 48357
	 48372	 48377	 48392	 48397	 48412	 48417	 48432	 48437	 48452	 48457	 48472	 48477	 48492	 48497
	 48512	 48517	 48532	 48537	 48552	 48557	 48584	 48589	 48594	 48624	 48629	 48634	 48664	 48669
	 48674	 48704	 48709	 48714	 48744	 48749	 48754	 48784	 48789	 48794	 48824	 48829	 48834	 48872
	 48876	 48882	 48888	 48913	 48917	 48923	 48929	 48954	 48958	 48964	 48970	 48995	 48999	 49005
	 49011	 49036	 49040	 49046	 49052	 49077	 49081	 49087	 49093	 49118	 49122	 49128	 49134	 49159
	 49163	 49169	 49175	 49200	 49204	 49210	 49216	 49241	 49245	 49251	 49257	 49282	 49286	 49292
	 49298	 49323	 49327	 49333	 49339	 49364	 49368	 49374	 49380	 49405	 49409	 49415	 49421	 49446
	 49450	 49456	 49462	 49487	 49491	 49497	 49503	 49528	 49532	 49538	 49544	 49569	 49573	 49579
	 49585	 49610	 49614	 49620	 49626	 49651	 49655	 49661	 49667	 49692	 49696	 49702	 49708	 49733
	 49737	 49743	 49749	 49774	 49778	 49784	 49790	 49815	 49819	 49825	 49831	 49856	 49860	 49866
	 49872	 49897	 49901	 49907	 49913	 49938	 49942	 49948	 49954	 49979	 49983	 49989	 49995	 50020
	 50024	 50030	 50036	 50061	 50065	 50071	 50077	 50102	 50106	 50112	 50118	 50148	 50153	 50159
	 50177	 50182	 50188	 50206	 50211	 50217	 50235	 50240	 50246	 50264	 50269	 50275	 50293	 50298
	 50304	 50322	 50327	 50333	 50351	 50356	 50362	 50380	 50385	 50391	 50409	 50414	 50420	 50438
	 50443	 50449	 50467	 50472	 50478	 50496	 50501	 50507	 50525	 50530	 50536	 50554	 50559	 50565
	 50583	 50588	 50594	 50612	 50617	 50623	 50641	 50646	 50652	 50670	 50675	 50681	 50698	 50703
	 50709	 50726	 50731	 50737	 50754	 50759	 50765	 50781	 50785	 50797	 50801	 50813	 50817	 50839
	 50844	 50850	 50871	 50876	 50882	 50903	 50908	 50914	 50935	 50940	 50946	 50967	 50972	 50978
	 50999	 51004	 51010	 51031	 51036	 51042	 51063	 51068	 51074	 51108	 51109	 51110	 51111	 51116
	 51120	 51125	 51132	 51151	 51157	 51176	 51182	 51252	 51257	 51262	 51264	 51266	 51268	 51270
	 51272	 51274	 51276	 51283	 51284	 51285	 51286	 51287	 51288	 51289	 51290	 51291	 51293	 51295
	 51296
HALTPI	 42943	 43764	 44641	 45996	 46021	 46042	 46063	 46084	 46106	 46127	 46156	 46174	 46192	 46210
	 46228	 46246	 46264	 46282	 46299	 46316	 46333	 46350	 46367	 46384	 46401	 46418	 46447	 46484
	 46521	 46558	 46595	 46632	 46669	 46706	 46743	 46780	 46817	 46854	 46891	 46928	 46965	 47002
	 47039	 47076	 47113	 47150	 47187	 47229	 47261	 47297	 47329	 47365	 47397	 47433	 47465	 47501
	 47533	 47569	 47601	 47637	 47669
INDPI	 43261#	 48563	 48603	 48643	 48683	 48723	 48763	 48803
JEN	   164#	 47725	 47761	 47797	 47833	 47869	 47905	 47941	 48597	 48637	 48677	 48717	 48757	 48797
	 48837
JRSTF	   163#	 43712	 46013	 46034	 46055	 46076	 46097	 46119	 46140	 46172	 46190	 46208	 46226	 46244
	 46262	 46280	 46314	 46331	 46348	 46365	 46382	 46399	 46416	 46442	 46479	 46516	 46553	 46590
	 46627	 46664	 46701	 46738	 46775	 46812	 46849	 46886	 46923	 46960	 46997	 47034	 47071	 47108
	 47145	 47182	 51146	 51172	 51256
MAPADR	   299#
MAPCNK	   300#
MAPMEM	   296#
MAPPNT	   302#
MAPSET	   301#
MEMSEG	   298#
MEMZRO	   297#
MODPCP	   309#
MODPCU	   308#
MTROP	   277#
NAME	     8#	    11
PBELL	   252#
PCRL	   246#
PCRL2	   250#
PCRL2F	   251#
PCRLF	   247#
PFORCE	   254#
PGMINT	   170#
PIDIS	 43047#	 47709	 47745	 47781	 47817	 47853	 47889	 47925
PIHCLR	 43017#	 45772	 45803	 45834	 45865	 45896	 45927	 45958
PINO	 42990#	 43883	 43911	 43939	 43967	 43995	 44023	 44051
PIONOF	 43030#	 44336	 44378	 44420	 44462	 44504	 44546	 44588
PITEST	 43064#	 44643	 44754	 44865	 44976	 45087	 45198	 45309	 45420	 45531	 45642
PIYES	 43003#	 44097	 44129	 44161	 44193	 44225	 44257	 44289
PJRST	   161#
PMSG	   256#
PMSGF	   259#
PNT1	   212#
PNT11	   226#
PNT11F	   227#
PNT1F	   213#
PNT2	   214#
PNT2F	   215#
PNT3	   216#
PNT3F	   217#
PNT4	   218#
PNT4F	   219#
PNT5	   220#
PNT5F	   221#
PNT6	   222#
PNT6F	   223#
PNT7	   224#
PNT7F	   225#
PNTA	   198#
PNTADF	   229#
PNTADR	   228#
PNTAF	   199#
PNTAL	   200#
PNTALF	   201#
PNTCHF	   211#
PNTCHR	   210#
PNTCI	   208#
PNTCIF	   209#
PNTCW	   244#
PNTCWF	   245#
PNTDCF	   237#
PNTDEC	   236#
PNTDS	   238#
PNTDSF	   239#
PNTHW	   232#
PNTHWF	   233#
PNTMGN	   323#
PNTMSF	   205#
PNTMSG	   204#
PNTNM	   240#
PNTOCF	   235#
PNTOCS	   234#
PNTOCT	   230#
PNTOTF	   231#
PNTSIX	   241#
PNTSXF	   242#
PSIXL	   202#
PSIXLF	   203#
PSIXM	   206#
PSIXMF	   207#
PSKPA	 43195#	 47221	 47289	 47357	 47425	 47493	 47561	 47629
PSKPB	 43217#	 47253	 47321	 47389	 47457	 47525	 47593	 47661
PSP	   248#
PSPF	   249#
PUT	   159#
REPTUO	   337#
RTN	   158#	   454
S	    88#
SBWAIT	 43172#	 46304	 46321	 46338	 46355	 46372	 46389	 46406
SFLAG	    60#	 30396	 30418	 30441	 30462	 30481	 30501	 30518	 30539	 30561	 30659	 30680	 30702	 30723
	 30744	 31160	 31180	 31199	 31204	 31223	 31242	 31247	 32231	 32253	 32274	 32298	 32319	 32342
	 32732	 32737	 32756	 32774	 32795	 32815	 41276	 41295	 41315	 41384	 41435
SIXBTZ	   265#
STOP	    52#	   970	   983	   997	  1014	  1029	  1048	  1062	  1076	  1090	  1104	  1118	  1131	  1145
	  1160	  1174	  1187	  1201	  1215	  1228	  1242	  1256	  1269	  1283	  1297	  1334	  1353	  1372
	  1391	  1410	  1429	  1448	  1467	  1486	  1505	  1524	  1543	  1562	  1581	  1600	  1619	  1638
	  1657	  1676	  1695	  1714	  1733	  1752	  1771	  1790	  1809	  1828	  1847	  1866	  1885	  1904
	  1923	  1942	  1961	  1980	  1999	  2014	  2032	  2047	  2063	  2088	  2106	  2124	  2137	  2151
	  2176	  2223	  2229	  2252	  2258	  2281	  2287	  2310	  2316	  2334	  2353	  2371	  2389	  2405
	  2421	  2436	  2453	  2473	  2510	  2529	  2548	  2567	  2586	  2605	  2624	  2643	  2662	  2681
	  2700	  2719	  2738	  2757	  2776	  2795	  2814	  2833	  2870	  2889	  2908	  2927	  2946	  2965
	  2984	  3003	  3022	  3041	  3060	  3079	  3098	  3117	  3136	  3155	  3174	  3193	  3210	  3226
	  3246	  3264	  3285	  3333	  3339	  3362	  3368	  3391	  3397	  3420	  3426	  3449	  3455	  3478
	  3484	  3507	  3513	  3536	  3542	  3565	  3571	  3594	  3600	  3623	  3629	  3652	  3658	  3681
	  3687	  3710	  3716	  3739	  3745	  3768	  3774	  3797	  3803	  3826	  3832	  3855	  3861	  3884
	  3890	  3913	  3919	  3942	  3948	  3971	  3977	  4000	  4006	  4029	  4035	  4058	  4064	  4087
	  4093	  4116	  4122	  4145	  4151	  4174	  4180	  4203	  4209	  4232	  4238	  4261	  4267	  4290
	  4296	  4319	  4325	  4348	  4354	  4395	  4416	  4437	  4458	  4479	  4500	  4521	  4542	  4563
	  4584	  4605	  4626	  4647	  4668	  4689	  4710	  4731	  4752	  4773	  4794	  4815	  4836	  4857
	  4878	  4899	  4920	  4941	  4962	  4983	  5004	  5025	  5046	  5067	  5088	  5109	  5130	  5148
	  5165	  5185	  5203	  5219	  5258	  5278	  5298	  5318	  5338	  5358	  5378	  5398	  5418	  5438
	  5458	  5478	  5498	  5518	  5538	  5558	  5578	  5598	  5618	  5638	  5658	  5678	  5698	  5718
	  5738	  5758	  5778	  5798	  5818	  5838	  5858	  5878	  5898	  5918	  5938	  5958	  6003	  6028
	  6053	  6078	  6103	  6128	  6153	  6178	  6203	  6228	  6253	  6278	  6303	  6328	  6353	  6378
	  6403	  6428	  6453	  6478	  6503	  6528	  6553	  6578	  6603	  6628	  6653	  6678	  6703	  6728
	  6753	  6778	  6803	  6828	  6853	  6878	  6925	  6946	  6967	  6988	  7009	  7030	  7051	  7072
	  7093	  7114	  7135	  7156	  7177	  7198	  7219	  7240	  7261	  7282	  7303	  7324	  7345	  7366
	  7387	  7408	  7429	  7450	  7471	  7492	  7513	  7534	  7555	  7576	  7597	  7618	  7639	  7660
	  7675	  7693	  7736	  7758	  7780	  7802	  7824	  7846	  7868	  7890	  7912	  7934	  7956	  7978
	  8000	  8022	  8044	  8066	  8088	  8110	  8154	  8176	  8198	  8220	  8242	  8264	  8286	  8308
	  8330	  8352	  8374	  8396	  8418	  8440	  8462	  8484	  8506	  8528	  8548	  8568	  8615	  8639
	  8663	  8687	  8711	  8735	  8759	  8783	  8807	  8831	  8855	  8879	  8903	  8927	  8951	  8975
	  8999	  9023	  9047	  9071	  9095	  9119	  9143	  9167	  9191	  9215	  9239	  9263	  9287	  9311
	  9335	  9359	  9383	  9407	  9431	  9455	  9476	  9499	  9520	  9542	  9559	  9577	  9634	  9664
	  9694	  9724	  9754	  9784	  9814	  9844	  9874	  9904	  9934	  9964	  9994	 10024	 10054	 10084
	 10114	 10144	 10174	 10204	 10234	 10264	 10294	 10324	 10354	 10384	 10414	 10444	 10474	 10504
	 10534	 10564	 10594	 10624	 10654	 10684	 10705	 10762	 10788	 10814	 10840	 10866	 10892	 10918
	 10944	 10970	 10996	 11022	 11048	 11074	 11100	 11126	 11152	 11178	 11204	 11230	 11256	 11282
	 11308	 11334	 11360	 11386	 11412	 11438	 11464	 11490	 11516	 11542	 11568	 11594	 11620	 11646
	 11672	 11725	 11750	 11775	 11800	 11825	 11850	 11875	 11900	 11925	 11950	 11975	 12000	 12025
	 12050	 12075	 12100	 12125	 12150	 12175	 12200	 12225	 12250	 12275	 12300	 12325	 12350	 12375
	 12400	 12425	 12450	 12475	 12500	 12525	 12550	 12575	 12628	 12654	 12680	 12706	 12732	 12758
	 12784	 12810	 12836	 12862	 12888	 12914	 12940	 12966	 12992	 13018	 13044	 13070	 13124	 13150
	 13176	 13202	 13228	 13254	 13280	 13306	 13332	 13358	 13384	 13410	 13436	 13462	 13488	 13514
	 13540	 13566	 13585	 13602	 13619	 13635	 13652	 13669	 13685	 13702	 13719	 13735	 13750	 13767
	 13785	 13822	 13840	 13858	 13876	 13894	 13912	 13930	 13948	 13966	 13984	 14002	 14020	 14038
	 14056	 14074	 14092	 14110	 14128	 14146	 14164	 14182	 14200	 14218	 14236	 14254	 14272	 14290
	 14308	 14326	 14344	 14362	 14380	 14398	 14416	 14434	 14452	 14468	 14482	 14504	 14522	 14541
	 14563	 14586	 14609	 14632	 14646	 14668	 14683	 14705	 14720	 14736	 14756	 14777	 14802	 14855
	 14882	 14909	 14936	 14963	 14990	 15017	 15044	 15071	 15098	 15125	 15152	 15179	 15206	 15233
	 15260	 15287	 15314	 15361	 15383	 15405	 15427	 15449	 15471	 15493	 15515	 15537	 15559	 15581
	 15603	 15625	 15647	 15669	 15691	 15713	 15735	 15770	 15788	 15806	 15824	 15842	 15860	 15878
	 15896	 15914	 15932	 15950	 15968	 15986	 16004	 16022	 16040	 16058	 16076	 16094	 16112	 16130
	 16148	 16166	 16184	 16202	 16220	 16238	 16256	 16274	 16292	 16310	 16328	 16346	 16364	 16382
	 16400	 16435	 16453	 16471	 16489	 16507	 16525	 16543	 16561	 16579	 16597	 16615	 16633	 16651
	 16669	 16687	 16705	 16723	 16741	 16759	 16777	 16795	 16813	 16831	 16849	 16867	 16885	 16903
	 16921	 16939	 16957	 16975	 16993	 17011	 17029	 17047	 17065	 17108	 17128	 17148	 17168	 17188
	 17208	 17228	 17248	 17268	 17288	 17308	 17328	 17348	 17368	 17388	 17408	 17428	 17448	 17487
	 17507	 17527	 17547	 17567	 17587	 17607	 17627	 17647	 17667	 17687	 17707	 17727	 17747	 17767
	 17787	 17807	 17827	 17877	 17902	 17927	 17952	 17977	 18002	 18027	 18052	 18077	 18102	 18127
	 18152	 18177	 18202	 18227	 18252	 18277	 18302	 18352	 18377	 18402	 18427	 18452	 18477	 18502
	 18527	 18552	 18577	 18602	 18627	 18652	 18677	 18702	 18727	 18752	 18777	 18796	 18820	 18840
	 18858	 18874	 18889	 18910	 18930	 18952	 18966	 18982	 19004	 19022	 19046	 19069	 19090	 19116
	 19144	 19162	 19178	 19202	 19218	 19235	 19256	 19272	 19295	 19317	 19334	 19350	 19367	 19383
	 19407	 19429	 19445	 19460	 19476	 19492	 19519	 19539	 19555	 19570	 19586	 19602	 19630	 19645
	 19661	 19676	 19692	 19710	 19732	 19755	 19769	 19787	 19807	 19831	 19847	 19867	 19890	 19907
	 19925	 19941	 19967	 19988	 20006	 20022	 20045	 20067	 20091	 20107	 20125	 20140	 20164	 20185
	 20202	 20223	 20237	 20260	 20275	 20292	 20317	 20340	 20361	 20376	 20400	 20416	 20435	 20448
	 20461	 20473	 20489	 20503	 20519	 20539	 20560	 20577	 20611	 20628	 20646	 20663	 20681	 20704
	 20722	 20739	 20758	 20781	 20802	 20819	 20835	 20852	 20867	 20889	 20911	 20928	 20944	 20960
	 20981	 20998	 21014	 21031	 21047	 21064	 21080	 21097	 21112	 21129	 21144	 21160	 21181	 21202
	 21217	 21238	 21258	 21274	 21289	 21310	 21325	 21341	 21356	 21372	 21387	 21408	 21423	 21444
	 21465	 21481	 21496	 21512	 21527	 21543	 21558	 21574	 21589	 21605	 21620	 21644	 21659	 21680
	 21695	 21718	 21739	 21755	 21771	 21792	 21813	 21829	 21845	 21866	 21882	 21898	 21913	 21929
	 21944	 21960	 21975	 21991	 22015	 22040	 22057	 22087	 22102	 22123	 22143	 22164	 22184	 22205
	 22225	 22247	 22268	 22284	 22299	 22315	 22330	 22346	 22361	 22377	 22393	 22410	 22426	 22448
	 22470	 22487	 22503	 22525	 22548	 22565	 22581	 22606	 22621	 22644	 22666	 22683	 22698	 22720
	 22740	 22763	 22779	 22798	 22815	 22838	 22857	 22874	 22889	 22905	 22922	 22948	 23000	 23020
	 23040	 23060	 23080	 23100	 23120	 23140	 23160	 23180	 23200	 23220	 23240	 23260	 23280	 23300
	 23320	 23340	 23379	 23399	 23419	 23439	 23459	 23479	 23499	 23519	 23539	 23559	 23579	 23599
	 23619	 23639	 23659	 23679	 23699	 23719	 23760	 23780	 23800	 23820	 23840	 23860	 23880	 23900
	 23920	 23940	 23960	 23980	 24000	 24020	 24040	 24060	 24080	 24100	 24139	 24159	 24179	 24199
	 24219	 24239	 24259	 24279	 24299	 24319	 24339	 24359	 24379	 24399	 24419	 24439	 24459	 24479
	 24524	 24545	 24566	 24587	 24608	 24629	 24650	 24671	 24692	 24713	 24734	 24755	 24776	 24797
	 24818	 24839	 24860	 24879	 24919	 24940	 24961	 24982	 25003	 25024	 25045	 25066	 25087	 25108
	 25129	 25150	 25171	 25192	 25213	 25234	 25255	 25275	 25319	 25340	 25361	 25382	 25403	 25424
	 25445	 25466	 25487	 25508	 25529	 25550	 25571	 25592	 25613	 25634	 25655	 25675	 25715	 25736
	 25757	 25778	 25799	 25820	 25841	 25862	 25883	 25904	 25925	 25946	 25967	 25988	 26009	 26030
	 26051	 26072	 26096	 26111	 26125	 26140	 26216	 26234	 26252	 26270	 26288	 26306	 26324	 26342
	 26360	 26378	 26396	 26414	 26432	 26450	 26468	 26486	 26580	 26599	 26618	 26637	 26656	 26675
	 26694	 26713	 26732	 26751	 26770	 26789	 26808	 26827	 26846	 26882	 26900	 26918	 26936	 26954
	 26972	 26990	 27008	 27026	 27044	 27062	 27080	 27098	 27116	 27134	 27175	 27196	 27217	 27238
	 27259	 27280	 27301	 27322	 27343	 27364	 27385	 27406	 27427	 27448	 27469	 27492	 27539	 27563
	 27587	 27611	 27635	 27659	 27683	 27707	 27731	 27755	 27779	 27803	 27827	 27851	 27875	 27899
	 27923	 27947	 27994	 28018	 28042	 28066	 28090	 28114	 28138	 28162	 28186	 28210	 28234	 28258
	 28282	 28306	 28330	 28354	 28378	 28402	 28421	 28468	 28492	 28516	 28540	 28564	 28588	 28612
	 28636	 28660	 28684	 28708	 28732	 28756	 28780	 28804	 28828	 28852	 28876	 28923	 28947	 28971
	 28995	 29019	 29043	 29067	 29091	 29115	 29139	 29163	 29187	 29211	 29235	 29259	 29283	 29307
	 29331	 29369	 29383	 29397	 29411	 29425	 29439	 29453	 29467	 29481	 29495	 29509	 29523	 29537
	 29551	 29565	 29601	 29615	 29629	 29643	 29657	 29671	 29685	 29699	 29713	 29727	 29741	 29755
	 29769	 29783	 29797	 29817	 29833	 29850	 29856	 29874	 29880	 29904	 29929	 29935	 29952	 29958
	 29975	 29993	 30010	 30028	 30043	 30059	 30076	 30093	 30110	 30128	 30144	 30159	 30175	 30192
	 30208	 30225	 30242	 30259	 30277	 30296	 30314	 30329	 30345	 30365	 30382	 30402	 30425	 30448
	 30468	 30487	 30507	 30525	 30548	 30570	 30590	 30610	 30627	 30644	 30666	 30687	 30709	 30730
	 30751	 30763	 30779	 30797	 30812	 30826	 30840	 30853	 30868	 30883	 30900	 30906	 30913	 30920
	 30937	 30953	 30959	 30966	 30973	 30990	 30996	 31003	 31010	 31028	 31043	 31057	 31072	 31088
	 31094	 31101	 31108	 31125	 31131	 31138	 31145	 31168	 31187	 31211	 31230	 31254	 31271	 31286
	 31300	 31313	 31328	 31343	 31356	 31371	 31389	 31404	 31419	 31433	 31448	 31496	 31512	 31518
	 31525	 31532	 31549	 31555	 31562	 31569	 31587	 31602	 31616	 31631	 31648	 31654	 31669	 31684
	 31700	 31714	 31731	 31747	 31763	 31777	 31793	 31807	 31825	 31845	 31861	 31878	 31893	 31904
	 31927	 31947	 31966	 31987	 32007	 32024	 32040	 32104	 32120	 32135	 32151	 32166	 32182	 32198
	 32215	 32240	 32262	 32284	 32307	 32329	 32352	 32368	 32391	 32410	 32425	 32442	 32456	 32471
	 32486	 32503	 32519	 32537	 32554	 32572	 32588	 32606	 32620	 32634	 32649	 32667	 32683	 32699
	 32716	 32744	 32763	 32783	 32803	 32822	 32847	 32853	 32872	 32878	 32894	 32900	 32916	 32933
	 32939	 32958	 32965	 32986	 32992	 33011	 33018	 33039	 33045	 33060	 33075	 33091	 33097	 33116
	 33122	 33140	 33146	 33164	 33182	 33188	 33206	 33213	 33232	 33238	 33256	 33263	 33285	 33302
	 33318	 33334	 33349	 33366	 33381	 33397	 33412	 33429	 33444	 33460	 33475	 33492	 33507	 33524
	 33540	 33556	 33576	 33592	 33609	 33626	 33641	 33657	 33674	 33688	 33702	 33717	 33730	 33744
	 33763	 33769	 33788	 33794	 33811	 33817	 33836	 33842	 33859	 33865	 33884	 33890	 33907	 33913
	 33931	 33937	 33955	 33961	 33979	 33985	 34002	 34008	 34026	 34032	 34050	 34056	 34074	 34080
	 34097	 34103	 34121	 34127	 34145	 34151	 34169	 34175	 34193	 34199	 34218	 34224	 34241	 34247
	 34271	 34277	 34283	 34305	 34312	 34318	 34342	 34348	 34354	 34375	 34381	 34387	 34409	 34415
	 34421	 34441	 34447	 34453	 34475	 34481	 34487	 34507	 34513	 34519	 34540	 34546	 34552	 34573
	 34579	 34585	 34606	 34612	 34618	 34638	 34644	 34650	 34671	 34677	 34683	 34704	 34710	 34716
	 34737	 34743	 34749	 34769	 34775	 34781	 34802	 34808	 34814	 34835	 34841	 34847	 34868	 34874
	 34880	 34901	 34907	 34913	 34935	 34941	 34947	 34967	 34973	 34979	 35000	 35006	 35024	 35030
	 35048	 35054	 35073	 35079	 35096	 35102	 35121	 35127	 35144	 35150	 35168	 35174	 35192	 35198
	 35216	 35222	 35239	 35245	 35263	 35269	 35287	 35293	 35311	 35317	 35334	 35340	 35358	 35364
	 35382	 35388	 35405	 35411	 35430	 35436	 35454	 35460	 35478	 35484	 35508	 35514	 35520	 35542
	 35548	 35554	 35576	 35583	 35589	 35614	 35620	 35626	 35649	 35655	 35661	 35681	 35687	 35693
	 35716	 35722	 35728	 35748	 35754	 35760	 35781	 35787	 35793	 35814	 35820	 35826	 35847	 35853
	 35859	 35878	 35884	 35890	 35911	 35917	 35923	 35944	 35950	 35956	 35977	 35983	 35989	 36009
	 36015	 36021	 36042	 36048	 36054	 36075	 36081	 36087	 36108	 36114	 36120	 36141	 36147	 36153
	 36175	 36181	 36187	 36207	 36213	 36219	 36238	 36244	 36260	 36266	 36280	 36286	 36301	 36307
	 36321	 36327	 36343	 36360	 36366	 36385	 36392	 36411	 36417	 36435	 36442	 36460	 36479	 36485
	 36502	 36508	 36523	 36538	 36544	 36560	 36566	 36582	 36599	 36605	 36622	 36628	 36645	 36651
	 36665	 36681	 36687	 36702	 36720	 36726	 36741	 36759	 36765	 36782	 36788	 36805	 36822	 36828
	 36846	 36852	 36868	 36885	 36891	 36908	 36914	 36931	 36948	 36954	 36972	 36978	 36994	 37012
	 37018	 37035	 37041	 37058	 37075	 37081	 37099	 37105	 37121	 37139	 37145	 37162	 37168	 37184
	 37201	 37207	 37224	 37230	 37248	 37266	 37272	 37289	 37295	 37315	 37321	 37340	 37346	 37363
	 37369	 37387	 37393	 37414	 37420	 37436	 37442	 37462	 37468	 37487	 37493	 37510	 37516	 37531
	 37537	 37552	 37568	 37574	 37595	 37601	 37620	 37626	 37643	 37649	 37668	 37674	 37694	 37700
	 37716	 37722	 37742	 37748	 37767	 37773	 37790	 37796	 37815	 37821	 37842	 37848	 37866	 37872
	 37892	 37898	 37912	 37929	 37935	 37952	 37959	 37980	 37986	 38006	 38012	 38032	 38039	 38057
	 38063	 38083	 38089	 38108	 38114	 38130	 38136	 38150	 38167	 38173	 38192	 38198	 38218	 38224
	 38243	 38249	 38269	 38275	 38294	 38300	 38320	 38326	 38345	 38351	 38368	 38374	 38389	 38395
	 38412	 38418	 38432	 38438	 38453	 38459	 38473	 38479	 38494	 38500	 38514	 38520	 38536	 38542
	 38556	 38562	 38578	 38584	 38601	 38607	 38613	 38632	 38638	 38644	 38660	 38666	 38672	 38689
	 38695	 38712	 38718	 38724	 38743	 38749	 38755	 38771	 38777	 38794	 38800	 38816	 38822	 38839
	 38845	 38862	 38868	 38887	 38893	 38910	 38916	 38935	 38941	 38957	 38963	 38980	 38986	 39002
	 39008	 39025	 39031	 39048	 39054	 39073	 39079	 39096	 39102	 39121	 39127	 39145	 39151	 39157
	 39176	 39182	 39188	 39207	 39213	 39219	 39240	 39246	 39252	 39271	 39277	 39283	 39304	 39310
	 39316	 39334	 39340	 39346	 39352	 39370	 39376	 39382	 39399	 39405	 39411	 39429	 39435	 39441
	 39460	 39466	 39472	 39493	 39499	 39505	 39524	 39530	 39536	 39557	 39563	 39569	 39585	 39591
	 39608	 39614	 39630	 39636	 39653	 39659	 39676	 39682	 39701	 39707	 39724	 39730	 39749	 39755
	 39771	 39777	 39794	 39800	 39816	 39822	 39839	 39845	 39862	 39868	 39887	 39893	 39910	 39916
	 39935	 39941	 39959	 39965	 39971	 39990	 39996	 40002	 40021	 40027	 40033	 40054	 40060	 40066
	 40085	 40091	 40112	 40118	 40124	 40141	 40147	 40153	 40171	 40177	 40183	 40200	 40206	 40212
	 40230	 40236	 40242	 40261	 40267	 40273	 40294	 40300	 40306	 40325	 40331	 40337	 40358	 40364
	 40370	 40386	 40392	 40409	 40415	 40431	 40437	 40454	 40460	 40477	 40483	 40502	 40508	 40525
	 40531	 40550	 40556	 40572	 40578	 40595	 40601	 40617	 40623	 40640	 40646	 40663	 40669	 40688
	 40694	 40711	 40717	 40736	 40742	 40761	 40767	 40773	 40794	 40800	 40806	 40825	 40831	 40837
	 40859	 40865	 40871	 40888	 40894	 40900	 40918	 40924	 40930	 40947	 40953	 40959	 40977	 40983
	 40989	 41008	 41014	 41020	 41041	 41047	 41053	 41072	 41078	 41084	 41105	 41111	 41117	 41134
	 41150	 41164	 41180	 41195	 41212	 41228	 41247	 41262	 41283	 41305	 41324	 41340	 41358	 41373
	 41392	 41408	 41423	 41444	 41459	 41477	 41493	 41508	 41524	 41541	 41559	 41576	 41594	 41600
	 41616	 41632	 41651	 41667	 41683	 41700	 41716	 41729	 41743	 41761	 41778	 41795	 41811	 41818
	 41831	 41838	 41854	 41869	 41889	 41904	 41923	 41943	 41963	 41969	 41986	 41992	 42009	 42015
	 42033	 42039	 42056	 42062	 42080	 42086	 42102	 42108	 42125	 42131	 42148	 42154	 42172	 42178
	 42195	 42201	 42219	 42225	 42240	 42246	 42263	 42269	 42285	 42291	 42308	 42314	 42330	 42336
	 42353	 42359	 42374	 42380	 42397	 42403	 42419	 42425	 42442	 42448	 42464	 42470	 42487	 42493
	 42510	 42516	 42534	 42540	 42557	 42563	 42581	 42587	 42604	 42610	 42628	 42634	 42651	 42657
	 42675	 42681	 42698	 42704	 42722	 42728	 42745	 42751	 42769	 42775	 42792	 42798	 42816	 42822
	 42839	 42845	 42863	 42869	 42886	 42892	 42910	 42916	 43109#	 43300	 43307	 43314	 43321	 43328
	 43334	 43344	 43362	 43380	 43401	 43431	 43450	 43460	 43471	 43479	 43487	 43495	 43503	 43511
	 43518	 43525	 43532	 43541	 43548	 43556	 43564	 43571	 43579	 43594	 43612	 43630	 43649	 43668
	 43676	 43690	 43696	 43717	 43733	 43741	 43749	 43770	 43778	 43785	 43793	 43799	 43807	 43814
	 43822	 43829	 43837	 43844	 43852	 43859	 43867	 43900	 43928	 43956	 43984	 44012	 44040	 44068
	 44115	 44147	 44179	 44211	 44243	 44275	 44307	 44365	 44407	 44449	 44491	 44533	 44575	 44617
	 44656	 44678	 44700	 44721	 44743	 44767	 44789	 44811	 44832	 44854	 44878	 44900	 44922	 44943
	 44965	 44989	 45011	 45033	 45054	 45076	 45100	 45122	 45144	 45165	 45187	 45211	 45233	 45255
	 45276	 45298	 45322	 45344	 45366	 45387	 45409	 45433	 45455	 45477	 45498	 45520	 45544	 45566
	 45588	 45609	 45631	 45655	 45677	 45699	 45720	 45742	 45789	 45820	 45851	 45882	 45913	 45944
	 45975	 47242	 47249	 47274	 47281	 47310	 47317	 47342	 47349	 47378	 47385	 47410	 47417	 47446
	 47453	 47478	 47485	 47514	 47521	 47546	 47553	 47582	 47589	 47614	 47621	 47650	 47657	 47682
	 47689	 47727	 47763	 47799	 47835	 47871	 47907	 47943	 47982	 48025	 48047	 48069	 48091	 48113
	 48135	 48157	 48171	 48182	 48211	 48216	 48231	 48236	 48251	 48256	 48271	 48276	 48291	 48296
	 48311	 48316	 48331	 48336	 48351	 48356	 48371	 48376	 48391	 48396	 48411	 48416	 48431	 48436
	 48451	 48456	 48471	 48476	 48491	 48496	 48511	 48516	 48531	 48536	 48551	 48556	 48593	 48633
	 48673	 48713	 48753	 48793	 48833	 50784	 50800	 50816	 50843	 50875	 50907	 50939	 50971	 51003
	 51035	 51067	 51119	 51124	 51150	 51175
STOP1	 43113#	 48881	 48922	 48963	 49004	 49045	 49086	 49127	 49168	 49209	 49250	 49291	 49332	 49373
	 49414	 49455	 49496	 49537	 49578	 49619	 49660	 49701	 49742	 49783	 49824	 49865	 49906	 49947
	 49988	 50029	 50070	 50111	 50152	 50181	 50210	 50239	 50268	 50297	 50326	 50355	 50384	 50413
	 50442	 50471	 50500	 50529	 50558	 50587	 50616	 50645	 50674	 50702	 50730	 50758
STOP2	 42971#	 43352	 43369	 43388	 43408	 43421	 43439	 43601	 43620	 43638	 43656	 43704	 43723	 43906
	 43934	 43962	 43990	 44018	 44046	 44074	 44121	 44153	 44185	 44217	 44249	 44281	 44313	 44371
	 44413	 44455	 44497	 44539	 44581	 44623	 44663	 44685	 44707	 44728	 44749	 44774	 44796	 44818
	 44839	 44860	 44885	 44907	 44929	 44950	 44971	 44996	 45018	 45040	 45061	 45082	 45107	 45129
	 45151	 45172	 45193	 45218	 45240	 45262	 45283	 45304	 45329	 45351	 45373	 45394	 45415	 45440
	 45462	 45484	 45505	 45526	 45551	 45573	 45595	 45616	 45637	 45662	 45684	 45706	 45727	 45748
	 45795	 45826	 45857	 45888	 45919	 45950	 45981	 46462	 46499	 46536	 46573	 46610	 46647	 46684
	 46721	 46758	 46795	 46832	 46869	 46906	 46943	 46980	 47017	 47054	 47091	 47128	 47165	 47202
	 47733	 47769	 47805	 47841	 47877	 47913	 47949	 48588	 48628	 48668	 48708	 48748	 48788	 48828
	 48887	 48928	 48969	 49010	 49051	 49092	 49133	 49174	 49215	 49256	 49297	 49338	 49379	 49420
	 49461	 49502	 49543	 49584	 49625	 49666	 49707	 49748	 49789	 49830	 49871	 49912	 49953	 49994
	 50035	 50076	 50117	 50158	 50187	 50216	 50245	 50274	 50303	 50332	 50361	 50390	 50419	 50448
	 50477	 50506	 50535	 50564	 50593	 50622	 50651	 50680	 50708	 50736	 50764	 50849	 50881	 50913
	 50945	 50977	 51009	 51041	 51073	 51115	 51131	 51156	 51181
STUCK	 43168#	 46005	 46026	 46047	 46068	 46089	 46111	 46132	 46163	 46181	 46199	 46217	 46235	 46253
	 46271	 46306	 46323	 46340	 46357	 46374	 46391	 46408	 46452	 46489	 46526	 46563	 46600	 46637
	 46674	 46711	 46748	 46785	 46822	 46859	 46896	 46933	 46970	 47007	 47044	 47081	 47118	 47155
	 47192
SWITCH	   271#
TBOTH	 42985#	 43348	 43365	 43384	 43404	 43417	 43435	 43597	 43616	 43634	 43652	 43700	 44659	 44681
	 44703	 44724	 44770	 44792	 44814	 44835	 44881	 44903	 44925	 44946	 44992	 45014	 45036	 45057
	 45103	 45125	 45147	 45168	 45214	 45236	 45258	 45279	 45325	 45347	 45369	 45390	 45436	 45458
	 45480	 45501	 45547	 45569	 45591	 45612	 45658	 45680	 45702	 45723	 46458	 46495	 46532	 46569
	 46606	 46643	 46680	 46717	 46754	 46791	 46828	 46865	 46902	 46939	 46976	 47013	 47050	 47087
	 47124	 47161
TGET	 42980#	 43349	 43366	 43385	 43405	 43418	 43436	 43598	 43617	 43635	 43653	 43701	 43720	 43903
	 43931	 43959	 43987	 44015	 44043	 44071	 44118	 44150	 44182	 44214	 44246	 44278	 44310	 44368
	 44410	 44452	 44494	 44536	 44578	 44620	 44660	 44682	 44704	 44725	 44746	 44771	 44793	 44815
	 44836	 44857	 44882	 44904	 44926	 44947	 44968	 44993	 45015	 45037	 45058	 45079	 45104	 45126
	 45148	 45169	 45190	 45215	 45237	 45259	 45280	 45301	 45326	 45348	 45370	 45391	 45412	 45437
	 45459	 45481	 45502	 45523	 45548	 45570	 45592	 45613	 45634	 45659	 45681	 45703	 45724	 45745
	 45792	 45823	 45854	 45885	 45916	 45947	 45978	 46459	 46496	 46533	 46570	 46607	 46644	 46681
	 46718	 46755	 46792	 46829	 46866	 46903	 46940	 46977	 47014	 47051	 47088	 47125	 47162	 47199
	 47730	 47766	 47802	 47838	 47874	 47910	 47946	 48585	 48625	 48665	 48705	 48745	 48785	 48825
	 48884	 48925	 48966	 49007	 49048	 49089	 49130	 49171	 49212	 49253	 49294	 49335	 49376	 49417
	 49458	 49499	 49540	 49581	 49622	 49663	 49704	 49745	 49786	 49827	 49868	 49909	 49950	 49991
	 50032	 50073	 50114	 50155	 50184	 50213	 50242	 50271	 50300	 50329	 50358	 50387	 50416	 50445
	 50474	 50503	 50532	 50561	 50590	 50619	 50648	 50677	 50705	 50733	 50761	 50846	 50878	 50910
	 50942	 50974	 51006	 51038	 51070	 51112	 51128	 51153	 51178
TRAP	 43164#	 46159	 46177	 46195	 46213	 46231	 46249	 46267	 46300	 46317	 46334	 46351	 46368	 46385
	 46402
TRPCHK	 43175#	 46010	 46031	 46052	 46073	 46094	 46116	 46137	 46169	 46187	 46205	 46223	 46241	 46259
	 46277	 46311	 46328	 46345	 46362	 46379	 46396	 46413	 46439	 46476	 46513	 46550	 46587	 46624
	 46661	 46698	 46735	 46772	 46809	 46846	 46883	 46920	 46957	 46994	 47031	 47068	 47105	 47142
	 47179
TRPPI	 42942#	 43879	 44087	 44328	 45763	 47973	 48016	 48038	 48060	 48082	 48104	 48126	 48148
TSET	 42975#	 43338	 43356	 43373	 43392	 43412	 43425	 43443	 43605	 43624	 43642	 43660	 43708	 43888
	 43916	 43944	 43972	 44000	 44028	 44056	 44103	 44135	 44167	 44199	 44231	 44263	 44295	 44351
	 44393	 44435	 44477	 44519	 44561	 44603	 44647	 44667	 44689	 44711	 44732	 44758	 44778	 44800
	 44822	 44843	 44869	 44889	 44911	 44933	 44954	 44980	 45000	 45022	 45044	 45065	 45091	 45111
	 45133	 45155	 45176	 45202	 45222	 45244	 45266	 45287	 45313	 45333	 45355	 45377	 45398	 45424
	 45444	 45466	 45488	 45509	 45535	 45555	 45577	 45599	 45620	 45646	 45666	 45688	 45710	 45731
	 45776	 45807	 45838	 45869	 45900	 45931	 45962	 46429	 46466	 46503	 46540	 46577	 46614	 46651
	 46688	 46725	 46762	 46799	 46836	 46873	 46910	 46947	 46984	 47021	 47058	 47095	 47132	 47169
	 47713	 47749	 47785	 47821	 47857	 47893	 47929	 48570	 48610	 48650	 48690	 48730	 48770	 48810
	 48865	 48906	 48947	 48988	 49029	 49070	 49111	 49152	 49193	 49234	 49275	 49316	 49357	 49398
	 49439	 49480	 49521	 49562	 49603	 49644	 49685	 49726	 49767	 49808	 49849	 49890	 49931	 49972
	 50013	 50054	 50095	 50141	 50170	 50199	 50228	 50257	 50286	 50315	 50344	 50373	 50402	 50431
	 50460	 50489	 50518	 50547	 50576	 50605	 50634	 50663	 50691	 50719	 50747	 50830	 50862	 50894
	 50926	 50958	 50990	 51022	 51054	 51082	 51137	 51163
TTALTM	   192#
TTICHR	   185#
TTICLR	   195#
TTICNV	   190#
TTIDEC	   189#
TTINO	   187#
TTIOCT	   188#
TTIYES	   186#
TTLOOK	   191#
TTSIXB	   193#
TTYINP	   194#
WATINT	 42967#	 43896	 43924	 43952	 43980	 44008	 44036	 44064	 44111	 44143	 44175	 44207	 44239	 44271
	 44303	 44361	 44403	 44445	 44487	 44529	 44571	 44613	 45784	 45815	 45846	 45877	 45908	 45939
	 45970	 46006	 46027	 46048	 46069	 46090	 46112	 46133	 46164	 46182	 46200	 46218	 46236	 46254
	 46272	 46307	 46324	 46341	 46358	 46375	 46392	 46409	 46453	 46490	 46527	 46564	 46601	 46638
	 46675	 46712	 46749	 46786	 46823	 46860	 46897	 46934	 46971	 47008	 47045	 47082	 47119	 47156
	 47193	 47239	 47271	 47307	 47339	 47375	 47407	 47443	 47475	 47511	 47543	 47579	 47611	 47647
	 47679	 47720	 47756	 47792	 47828	 47864	 47900	 47936	 47978	 48021	 48043	 48065	 48087	 48109
	 48131	 48153
XCHN2	 43180#	 46433	 46470	 46507	 46544	 46581	 46618	 46655	 46692	 46729	 46766	 46803	 46840	 46877
	 46914	 46951	 46988	 47025	 47062	 47099	 47136	 47173
XUUO	 43117#	 48859	 48900	 48941	 48982	 49023	 49064	 49105	 49146	 49187	 49228	 49269	 49310	 49351
	 49392	 49433	 49474	 49515	 49556	 49597	 49638	 49679	 49720	 49761	 49802	 49843	 49884	 49925
	 49966	 50007	 50048	 50089
XUUOA	 43139#	 50136	 50165	 50194	 50223	 50252	 50281	 50310	 50339	 50368	 50397	 50426	 50455	 50484
	 50513	 50542	 50571	 50600	 50629	 50658	 50686	 50714	 50742
