DFKAA PDP-10 KL10 BASIC INSTRUCTION DIAGNOSTIC (1) VER 0,2	MACRO %53B(1254)-4 11:50 11-Nov-24 Page 71
DFKAA5	MAC	13-Jan-89 10:22		TEST OF MSCL SOJX INSTRUCTIONS

 35086					;THIS TEST VERIFIES THAT SOJE DECREMENTS C(AC) BY 0,,1 AND
 35087					;PLACES THE RESULT BACK INTO THE AC.  THE RESULT IN THE AC IS
 35088					;COMPARED TO 0 AND THE PROGRAM JUMPS TO THE LOCATION
 35089					;SPECIFIED BY E IF C(AC) IS EQUAL TO 0
 35090					;IN THIS CASE, C(AC)=0,,1 BEFORE DECREMENTING.  HENCE, SOJ
 35091					;SHOULD JUMP AND THE RESULT IN THE AC SHOULD BE 0
 35092
 35093	052223	201 16 0 00 000001 	C54410:	MOVEI	16,1		;PRELOAD AC WITH 0,,1
 35094	052224	362 16 0 00 052226 		SOJE	16,.+2		;*SOJE SHOULD SUBTRACT 0,,1 FROM C(AC)
 35095									;AND JUMP
 35096						STOP^
 35097	052225	254 04 0 00 052226 		HALT	.+1		;TEST FAILED IF PROGRAM HALTS HERE
 35098	052226	324 00 0 00 052227 		JUMPA	.+1		;IF TEST FAILS, CHANGE THIS INSTRUCTION (JUMPA .+1) TO
 35099									;JUMPA X (X IS THE ADDRESS OF THE FIRST INSTRUCTION
 35100									;IN THE SUBTEST) TO LOOP ON ERROR^
 35101	052227	312 16 0 00 070253 		CAME	16,[0]		;PASS IF C(AC) DECREMENTED CORRECTLY
 35102						STOP^
 35103	052230	254 04 0 00 052231 		HALT	.+1		;TEST FAILED IF PROGRAM HALTS HERE
 35104	052231	324 00 0 00 052232 		JUMPA	.+1		;IF TEST FAILS, CHANGE THIS INSTRUCTION (JUMPA .+1) TO
 35105									;JUMPA X (X IS THE ADDRESS OF THE FIRST INSTRUCTION
 35106									;IN THE SUBTEST) TO LOOP ON ERROR^
 35107
 35108					;**********
 35109
 35110					;THIS TEST VERIFIES THAT SOJE DECREMENTS C(AC) BY 0,,1 AND
 35111					;PLACES THE RESULT BACK INTO THE AC.  THE RESULT IN THE AC IS
 35112					;COMPARED TO 0 AND THE PROGRAM JUMPS TO THE LOCATION
 35113					;SPECIFIED BY E IF C(AC) IS EQUAL TO 0.
 35114					;IN THIS CASE, C(AC)=0,,2 BEFORE DECREMENTING.  HENCE, SOJE
 35115					;SHOULD NOT JUMP AND THE RESULT IN THE AC SHOULD BE 0,,1
 35116
 35117	052232	201 16 0 00 000002 	C54420:	MOVEI	16,2		;PRELOAD AC WITH 0,,2
 35118	052233	362 16 0 00 052235 		SOJE	16,.+2		;*SOJ SHOULD SUBTRACT 0,,1 FROM C(AC)
 35119									;AND NOT JUMP.
 35120	052234	334 00 0 00 000000 		SKIPA			;PASS IF SOJE DID NOT JUMP
 35121						STOP^
 35122	052235	254 04 0 00 052236 		HALT	.+1		;TEST FAILED IF PROGRAM HALTS HERE
 35123	052236	324 00 0 00 052237 		JUMPA	.+1		;IF TEST FAILS, CHANGE THIS INSTRUCTION (JUMPA .+1) TO
 35124									;JUMPA X (X IS THE ADDRESS OF THE FIRST INSTRUCTION
 35125									;IN THE SUBTEST) TO LOOP ON ERROR^
 35126	052237	312 16 0 00 070265 		CAME	16,[1]		;PASS IF C(AC) DECREMENTED CORRECTLY
 35127						STOP^
 35128	052240	254 04 0 00 052241 		HALT	.+1		;TEST FAILED IF PROGRAM HALTS HERE
 35129	052241	324 00 0 00 052242 		JUMPA	.+1		;IF TEST FAILS, CHANGE THIS INSTRUCTION (JUMPA .+1) TO
 35130									;JUMPA X (X IS THE ADDRESS OF THE FIRST INSTRUCTION
 35131									;IN THE SUBTEST) TO LOOP ON ERROR^
 35132
 35133					;**********
DFKAA PDP-10 KL10 BASIC INSTRUCTION DIAGNOSTIC (1) VER 0,2	MACRO %53B(1254)-4 11:50 11-Nov-24 Page 72
DFKAA5	MAC	13-Jan-89 10:22		TEST OF MSCL SOJX INSTRUCTIONS

 35134					;THIS TEST VERIFIES THAT SOJLE DECREMENTS C(AC) BY 0,,1 AND
 35135					;PLACES THE RESULT BACK INTO THE AC.  THE RESULT IN THE AC IS
 35136					;COMPARED TO 0 AND THE PROGRAM JUMPS TO THE LOCATION
 35137					;SPECIFIED BY E IF C(AC) IS LESS THAN OR EQUAL TO 0
 35138					;IN THIS CASE, C(AC)=0 BEFORE DECREMENTING.  HENCE, SOJLE
 35139					;SHOULD JUMP AND THE RESULT IN THE AC SHOULD BE -1,,-1
 35140
 35141	052242	201 15 0 00 000000 	C54500:	MOVEI	15,0		;PRELOAD AC WITH 0
 35142	052243	363 15 0 00 052245 		SOJLE	15,.+2		;*SOJLE SHOULD SUBTRACT 0,,1 FROM C(AC)
 35143									;AND JUMP
 35144						STOP^
 35145	052244	254 04 0 00 052245 		HALT	.+1		;TEST FAILED IF PROGRAM HALTS HERE
 35146	052245	324 00 0 00 052246 		JUMPA	.+1		;IF TEST FAILS, CHANGE THIS INSTRUCTION (JUMPA .+1) TO
 35147									;JUMPA X (X IS THE ADDRESS OF THE FIRST INSTRUCTION
 35148									;IN THE SUBTEST) TO LOOP ON ERROR^
 35149	052246	312 15 0 00 070254 		CAME	15,[-1]		;PASS IF C(AC) DECREMENTED CORRECTLY
 35150						STOP^
 35151	052247	254 04 0 00 052250 		HALT	.+1		;TEST FAILED IF PROGRAM HALTS HERE
 35152	052250	324 00 0 00 052251 		JUMPA	.+1		;IF TEST FAILS, CHANGE THIS INSTRUCTION (JUMPA .+1) TO
 35153									;JUMPA X (X IS THE ADDRESS OF THE FIRST INSTRUCTION
 35154									;IN THE SUBTEST) TO LOOP ON ERROR^
 35155
 35156					;**********
 35157
 35158					;THIS TEST VERIFIES THAT SOJLE DECREMENTS C(AC) BY 0,,1 AND
 35159					;PLACES THE RESULT BACK INTO THE AC.  THE RESULT IN THE AC IS
 35160					;COMPARED TO 0 AND THE PROGRAM JUMPS TO THE LOCATION
 35161					;SPECIFIED BY E IF C(AC) IS LESS THAN OR EQUALTO 0.
 35162					;IN THIS CASE, C(AC)=0,,1 BEFORE DECREMENTING.  HENCE, SOJLE
 35163					;SHOULD JUMP AND THE RESULT IN THE AC SHOULD BE 0
 35164
 35165	052251	201 15 0 00 000001 	C54510:	MOVEI	15,1		;PRELOAD AC WITH 0,,1
 35166	052252	363 15 0 00 052254 		SOJLE	15,.+2		;*SOJLE SHOULD SUBTRACT 0,,1 FROM C(AC)
 35167									;AND JUMP
 35168						STOP^
 35169	052253	254 04 0 00 052254 		HALT	.+1		;TEST FAILED IF PROGRAM HALTS HERE
 35170	052254	324 00 0 00 052255 		JUMPA	.+1		;IF TEST FAILS, CHANGE THIS INSTRUCTION (JUMPA .+1) TO
 35171									;JUMPA X (X IS THE ADDRESS OF THE FIRST INSTRUCTION
 35172									;IN THE SUBTEST) TO LOOP ON ERROR^
 35173	052255	312 15 0 00 070253 		CAME	15,[0]		;PASS IF C(AC) DECREMENTED CORRECTLY
 35174						STOP^
 35175	052256	254 04 0 00 052257 		HALT	.+1		;TEST FAILED IF PROGRAM HALTS HERE
 35176	052257	324 00 0 00 052260 		JUMPA	.+1		;IF TEST FAILS, CHANGE THIS INSTRUCTION (JUMPA .+1) TO
 35177									;JUMPA X (X IS THE ADDRESS OF THE FIRST INSTRUCTION
 35178									;IN THE SUBTEST) TO LOOP ON ERROR^
 35179
 35180					;**********
DFKAA PDP-10 KL10 BASIC INSTRUCTION DIAGNOSTIC (1) VER 0,2	MACRO %53B(1254)-4 11:50 11-Nov-24 Page 73
DFKAA5	MAC	13-Jan-89 10:22		TEST OF MSCL SOJX INSTRUCTIONS

 35181					;THIS TEST VERIFIES THAT SOJLE DECREMENTS C(AC) BY 0,,1 AND
 35182					;PLACES THE RESULT BACK INTO THE AC.  THE RESULT IN THE AC IS
 35183					;COMPARED TO 0 AND THE PROGRAM JUMPS TO THE LOCATION
 35184					;SPECIFIED BY E IF C(AC) IS LESS THAN OR EQUAL TO 0.
 35185					;IN THIS CASE, C(AC)=0,,2 BEFORE DECREMENTING.  HENCE, SOJLE
 35186					;SHOULD NOT JUMP AND THE RESULT IN THE AC SHOULD BE 0,,1
 35187
 35188	052260	201 15 0 00 000002 	C54520:	MOVEI	15,2		;PRELOAD AC WITH 0,,2
 35189	052261	363 15 0 00 052263 		SOJLE	15,.+2		;*SOJLE SHOULD SUBTRACT 0,,1 FROM C(AC)
 35190									;AND NOT JUMP
 35191	052262	334 00 0 00 000000 		SKIPA			;PASS IF SOJLE DID NOT JUMP
 35192						STOP^
 35193	052263	254 04 0 00 052264 		HALT	.+1		;TEST FAILED IF PROGRAM HALTS HERE
 35194	052264	324 00 0 00 052265 		JUMPA	.+1		;IF TEST FAILS, CHANGE THIS INSTRUCTION (JUMPA .+1) TO
 35195									;JUMPA X (X IS THE ADDRESS OF THE FIRST INSTRUCTION
 35196									;IN THE SUBTEST) TO LOOP ON ERROR^
 35197	052265	312 15 0 00 070265 		CAME	15,[1]		;PASS IF C(AC) DECREMENTED CORRECTLY
 35198						STOP^
 35199	052266	254 04 0 00 052267 		HALT	.+1		;TEST FAILED IF PROGRAM HALTS HERE
 35200	052267	324 00 0 00 052270 		JUMPA	.+1		;IF TEST FAILS, CHANGE THIS INSTRUCTION (JUMPA .+1) TO
 35201									;JUMPA X (X IS THE ADDRESS OF THE FIRST INSTRUCTION
 35202									;IN THE SUBTEST) TO LOOP ON ERROR^
 35203
 35204					;**********
 35205
 35206					;THIS TEST VERIFIES THAT SOJA DECREMENTS C(AC) BY 0,,1 AND
 35207					;PLACES THE RESULT INTO THE AC.  THE RESULT IN THE AC IS
 35208					;COMPARED TO 0 AND THE PROGRAM ALWAYS JUMPS TO THE LOCATION
 35209					;SPECIFIED BY E
 35210					;IN THIS CASE, C(AC)=0 BEFORE DECREMENTING.  HENCE, SOJA
 35211					;SHOULD JUMP AND THE RESULT IN THE AC SHOULD BE -1,,-1
 35212
 35213	052270	201 14 0 00 000000 	C54600:	MOVEI	14,0		;PRELOAD AC WITH 0
 35214	052271	364 14 0 00 052273 		SOJA	14,.+2		;*SOJ SHOULD SUBTRACT 0,,1 FROM C(AC)
 35215									;AND JUMP
 35216						STOP^
 35217	052272	254 04 0 00 052273 		HALT	.+1		;TEST FAILED IF PROGRAM HALTS HERE
 35218	052273	324 00 0 00 052274 		JUMPA	.+1		;IF TEST FAILS, CHANGE THIS INSTRUCTION (JUMPA .+1) TO
 35219									;JUMPA X (X IS THE ADDRESS OF THE FIRST INSTRUCTION
 35220									;IN THE SUBTEST) TO LOOP ON ERROR^
 35221	052274	312 14 0 00 070254 		CAME	14,[-1]		;PASS IF C(AC) DECREMENTED CORRECTLY
 35222						STOP^
 35223	052275	254 04 0 00 052276 		HALT	.+1		;TEST FAILED IF PROGRAM HALTS HERE
 35224	052276	324 00 0 00 052277 		JUMPA	.+1		;IF TEST FAILS, CHANGE THIS INSTRUCTION (JUMPA .+1) TO
 35225									;JUMPA X (X IS THE ADDRESS OF THE FIRST INSTRUCTION
 35226									;IN THE SUBTEST) TO LOOP ON ERROR^
 35227
 35228					;**********
DFKAA PDP-10 KL10 BASIC INSTRUCTION DIAGNOSTIC (1) VER 0,2	MACRO %53B(1254)-4 11:50 11-Nov-24 Page 74
DFKAA5	MAC	13-Jan-89 10:22		TEST OF MSCL SOJX INSTRUCTIONS

 35229					;THIS TEST VERIFIES THAT SOJA DECREMENTS C(AC) BY 0,,1 AND
 35230					;PLACES THE RESULT BACK INTO THE AC.  THE RESULT IN THE AC IS
 35231					;COMPARED TO 0 AND THE PROGRAM ALWAYS JUMPS TO THE LOCATION
 35232					;SPECIFIED BY E
 35233					;IN THIS CASE, C(AC)=0,,1 BEFORE DECREMENTING.  HENCE, SOJA
 35234					;SHOULD JUMP AND THE RESULT IN THE AC SHOULD BE 0
 35235
 35236	052277	201 14 0 00 000001 	C54610:	MOVEI	14,1		;PRELOAD AC WITH 0,,1
 35237	052300	364 14 0 00 052302 		SOJA	14,.+2		;*SOJA SHOULD SUBTRACT 0,,1 FROM C(AC)
 35238									;AND JUMP
 35239						STOP^
 35240	052301	254 04 0 00 052302 		HALT	.+1		;TEST FAILED IF PROGRAM HALTS HERE
 35241	052302	324 00 0 00 052303 		JUMPA	.+1		;IF TEST FAILS, CHANGE THIS INSTRUCTION (JUMPA .+1) TO
 35242									;JUMPA X (X IS THE ADDRESS OF THE FIRST INSTRUCTION
 35243									;IN THE SUBTEST) TO LOOP ON ERROR^
 35244	052303	312 14 0 00 070253 		CAME	14,[0]		;PASS IF C(AC) DECREMENTED CORRECTLY
 35245						STOP^
 35246	052304	254 04 0 00 052305 		HALT	.+1		;TEST FAILED IF PROGRAM HALTS HERE
 35247	052305	324 00 0 00 052306 		JUMPA	.+1		;IF TEST FAILS, CHANGE THIS INSTRUCTION (JUMPA .+1) TO
 35248									;JUMPA X (X IS THE ADDRESS OF THE FIRST INSTRUCTION
 35249									;IN THE SUBTEST) TO LOOP ON ERROR^
 35250
 35251					;**********
 35252
 35253					;THIS TEST VERIFIES THAT SOJA DECREMENTS C(AC) BY 0,,1 AND
 35254					;PLACES THE RESULT BACK INTO THE AC.  THE RESULT IN THE AC IS
 35255					;COMPARED TO 0 AND THE PROGRAM ALWAYS JUMPS TO THE LOCATION
 35256					;SPECIFIED BY E
 35257					;IN THIS CASE, C(AC)=0,,2 BEFORE DECREMENTING.  HENCE, SOJA
 35258					;SHOULD JUMP AND THE RESULT IN THE AC SHOULD BE 0,,1
 35259
 35260	052306	201 14 0 00 000002 	C54620:	MOVEI	14,2		;PRELOAD AC WITH 0,,2
 35261	052307	364 14 0 00 052311 		SOJA	14,.+2		;*SOJA SHOULD SUBTRACT 0,,1 FROM C(AC)
 35262									;AND JUMP
 35263						STOP^
 35264	052310	254 04 0 00 052311 		HALT	.+1		;TEST FAILED IF PROGRAM HALTS HERE
 35265	052311	324 00 0 00 052312 		JUMPA	.+1		;IF TEST FAILS, CHANGE THIS INSTRUCTION (JUMPA .+1) TO
 35266									;JUMPA X (X IS THE ADDRESS OF THE FIRST INSTRUCTION
 35267									;IN THE SUBTEST) TO LOOP ON ERROR^
 35268	052312	312 14 0 00 070265 		CAME	14,[1]		;PASS IF C(AC) DECREMENTED CORRECTLY
 35269						STOP^
 35270	052313	254 04 0 00 052314 		HALT	.+1		;TEST FAILED IF PROGRAM HALTS HERE
 35271	052314	324 00 0 00 052315 		JUMPA	.+1		;IF TEST FAILS, CHANGE THIS INSTRUCTION (JUMPA .+1) TO
 35272									;JUMPA X (X IS THE ADDRESS OF THE FIRST INSTRUCTION
 35273									;IN THE SUBTEST) TO LOOP ON ERROR^
 35274
 35275					;**********
DFKAA PDP-10 KL10 BASIC INSTRUCTION DIAGNOSTIC (1) VER 0,2	MACRO %53B(1254)-4 11:50 11-Nov-24 Page 75
DFKAA5	MAC	13-Jan-89 10:22		TEST OF MSCL SOJX INSTRUCTIONS

 35276					;THIS TEST VERIFIES THAT SOJGE DECREMENTS C(AC) BY 0,,1 AND
 35277					;PLACES THE RESULT BACK INTO THE AC.  THE  RESULT IN THE AC IS
 35278					;COMPARED TO 0 AND THE PROGRAM JUMPS TO THE LOCATION
 35279					;SPECIFIED BY E IF C(AC) IS GREATER THAN OR EQUAL TO 0
 35280					;IN THIS CASE, C(AC)=0 BEFORE DECREMENTING.  HENCE, SOJGE
 35281					;SHOULD NOT JUMP AND THE RESULT IN THE AC SHOULD BE -1,,-1
 35282
 35283	052315	201 13 0 00 000000 	C54700:	MOVEI	13,0		;PRELOAD A C WITH 0
 35284	052316	365 13 0 00 052320 		SOJGE	13,.+2		;*SOJGE SHOULD SUBTRACT 0,,1 FROM C(AC)
 35285									;AND NOT JUMP
 35286	052317	334 00 0 00 000000 		SKIPA			;PASS IF SOJGE DID NOT JUMP
 35287						STOP^
 35288	052320	254 04 0 00 052321 		HALT	.+1		;TEST FAILED IF PROGRAM HALTS HERE
 35289	052321	324 00 0 00 052322 		JUMPA	.+1		;IF TEST FAILS, CHANGE THIS INSTRUCTION (JUMPA .+1) TO
 35290									;JUMPA X (X IS THE ADDRESS OF THE FIRST INSTRUCTION
 35291									;IN THE SUBTEST) TO LOOP ON ERROR^
 35292	052322	312 13 0 00 070254 		CAME	13,[-1]	;PASS IF C(AC) DECREMENTED CORRECTLY
 35293						STOP^
 35294	052323	254 04 0 00 052324 		HALT	.+1		;TEST FAILED IF PROGRAM HALTS HERE
 35295	052324	324 00 0 00 052325 		JUMPA	.+1		;IF TEST FAILS, CHANGE THIS INSTRUCTION (JUMPA .+1) TO
 35296									;JUMPA X (X IS THE ADDRESS OF THE FIRST INSTRUCTION
 35297									;IN THE SUBTEST) TO LOOP ON ERROR^
 35298
 35299					;**********
 35300
 35301					;THIS TEST VERIFIES THAT SOJGE DECREMENTS C(AC) BY 0,,1 AND
 35302					;PLACES THE RESULT BACK INTO THE AC.  THE RESULT IN THE AC IS
 35303					;COMPARED TO 0 AND THE PROGRAM JUMPS TO THE LOCATION
 35304					;SPECIFIED BY E IF C(AC) IS GREATER THAN OR EQUAL TO 0
 35305					;IN THIS CASE, C(AC)=0,,1 BEFORE DECREMENTING.  HENCE, SOJGE
 35306					;SHOULD JUMP AND THE RESULT IN THE AC SHOULD BE 0
 35307
 35308	052325	201 13 0 00 000001 	C54710:	MOVEI	13,1		;PRELOAD AC WITH 0,,1
 35309	052326	365 13 0 00 052330 		SOJGE	13,.+2		;*SOJ SHOULD SUBTRACT 0,,1 FROM C(AC)
 35310									;AND JUMP
 35311						STOP^
 35312	052327	254 04 0 00 052330 		HALT	.+1		;TEST FAILED IF PROGRAM HALTS HERE
 35313	052330	324 00 0 00 052331 		JUMPA	.+1		;IF TEST FAILS, CHANGE THIS INSTRUCTION (JUMPA .+1) TO
 35314									;JUMPA X (X IS THE ADDRESS OF THE FIRST INSTRUCTION
 35315									;IN THE SUBTEST) TO LOOP ON ERROR^
 35316	052331	312 13 0 00 070253 		CAME	13,[0]		;PASS IF C(AC) DECREMENTED CORRECTLY
 35317						STOP^
 35318	052332	254 04 0 00 052333 		HALT	.+1		;TEST FAILED IF PROGRAM HALTS HERE
 35319	052333	324 00 0 00 052334 		JUMPA	.+1		;IF TEST FAILS, CHANGE THIS INSTRUCTION (JUMPA .+1) TO
 35320									;JUMPA X (X IS THE ADDRESS OF THE FIRST INSTRUCTION
 35321									;IN THE SUBTEST) TO LOOP ON ERROR^
 35322
 35323					;**********
DFKAA PDP-10 KL10 BASIC INSTRUCTION DIAGNOSTIC (1) VER 0,2	MACRO %53B(1254)-4 11:50 11-Nov-24 Page 76
DFKAA5	MAC	13-Jan-89 10:22		TEST OF MSCL SOJX INSTRUCTIONS

 35324					;THIS TEST VERIRIES THAT SOJGE DECREMENTS C(AC) BY 0,,1 AND PLACES THE
 35325					;PLACES THE RESULT BACK INTO THE AC.  THE RESULT IN THE AC IS COMPARED
 35326					;TO 0 AND THE PROGRAM JUMPS TO THE LOCATION SPECIFIED BY E IF C(AC IS
 35327					;GREATER THAN OR EQUAL TO 0.  IN THIS CASE, C(AC = 0,,2 BEFORE
 35328					;DECREMENTING.  HENCE, SOJGE SHOULD JUMP AND THE RESULT IN THE AC SHOULD
 35329					;BE 0,,1.
 35330
 35331	052334	201 13 0 00 000002 	C54720:	MOVEI	13,2		;PRELOAD AC WITH 0,,2
 35332	052335	365 13 0 00 052337 		SOJGE	13,.+2		;*SOJGE SHOULD SUBTRACT0,,1 FROM C(AC)
 35333									;AND JUMP.
 35334						STOP^
 35335	052336	254 04 0 00 052337 		HALT	.+1		;TEST FAILED IF PROGRAM HALTS HERE
 35336	052337	324 00 0 00 052340 		JUMPA	.+1		;IF TEST FAILS, CHANGE THIS INSTRUCTION (JUMPA .+1) TO
 35337									;JUMPA X (X IS THE ADDRESS OF THE FIRST INSTRUCTION
 35338									;IN THE SUBTEST) TO LOOP ON ERROR^
 35339	052340	312 13 0 00 070265 		CAME	13,[1]		;PASS IF C(AC) DECREMENTED CORRECTLY
 35340						STOP^
 35341	052341	254 04 0 00 052342 		HALT	.+1		;TEST FAILED IF PROGRAM HALTS HERE
 35342	052342	324 00 0 00 052343 		JUMPA	.+1		;IF TEST FAILS, CHANGE THIS INSTRUCTION (JUMPA .+1) TO
 35343									;JUMPA X (X IS THE ADDRESS OF THE FIRST INSTRUCTION
 35344									;IN THE SUBTEST) TO LOOP ON ERROR^
 35345
 35346					;**********
 35347
 35348					;THIS TEST VERIFIES THAT SOJN DECREMENTS C(AC) BY 0,,1 AND
 35349					;PLACES THE RESULT BACK INTO THE AC.  THE RESULT IN THE AC IS
 35350					;COMPARED TO 0 AND THE PROGRAM JUMPS TO THE LOCATION
 35351					;SPECIFIED BY E IF C(AC) IS NON-ZERO.
 35352					;IN THIS CASE, C(AC)=0 BEFORE DECREMENTING.  HENCE,SOJN
 35353					;SHOULD JUMP AND THE RESULT IN THE AC SHOULD BE -1,,-1.
 35354
 35355	052343	201 12 0 00 000000 	C55000:	MOVEI	12,0		;PRELOAD AC WITH 0
 35356	052344	366 12 0 00 052346 		SOJN	12,.+2		;*SOJN SHOULD SUBTRACT 0,,1 FROM C(AC)
 35357									;AND JUMP.
 35358						STOP^
 35359	052345	254 04 0 00 052346 		HALT	.+1		;TEST FAILED IF PROGRAM HALTS HERE
 35360	052346	324 00 0 00 052347 		JUMPA	.+1		;IF TEST FAILS, CHANGE THIS INSTRUCTION (JUMPA .+1) TO
 35361									;JUMPA X (X IS THE ADDRESS OF THE FIRST INSTRUCTION
 35362									;IN THE SUBTEST) TO LOOP ON ERROR^
 35363	052347	312 12 0 00 070254 		CAME	12,[-1]		;PASS IF C(AC) DECREMENTED CORRECTLY
 35364						STOP^
 35365	052350	254 04 0 00 052351 		HALT	.+1		;TEST FAILED IF PROGRAM HALTS HERE
 35366	052351	324 00 0 00 052352 		JUMPA	.+1		;IF TEST FAILS, CHANGE THIS INSTRUCTION (JUMPA .+1) TO
 35367									;JUMPA X (X IS THE ADDRESS OF THE FIRST INSTRUCTION
 35368									;IN THE SUBTEST) TO LOOP ON ERROR^
 35369
 35370					;**********
DFKAA PDP-10 KL10 BASIC INSTRUCTION DIAGNOSTIC (1) VER 0,2	MACRO %53B(1254)-4 11:50 11-Nov-24 Page 77
DFKAA5	MAC	13-Jan-89 10:22		TEST OF MSCL SOJX INSTRUCTIONS

 35371					;THIS TEST VERIRIES THAT SOJN DECREMENTS C(AC) BY 0,,1 AND
 35372					;PLACES THE RESULT BACK INTO THE AC.  THE RESULT IN THE AC IS
 35373					;COMPARED TO 0 AND THE PROGRAM JUMPS TO THE LOCATION SPECIFIED
 35374					;BY E IF C(AC) IS NON-ZERO.
 35375					;IN THIS CASE, C(AC) = 0,,1 BEFORE DECREMENTING.  HENCE, SOJN
 35376					;SHOULD NOT JUMP AND THE RESULT IN THE AC SHOULD BE 0.
 35377
 35378	052352	201 12 0 00 000001 	C55010:	MOVEI	12,1		;PRELOAD AC WITH 0,,1
 35379	052353	366 12 0 00 052355 		SOJN	12,.+2		;*SOJN SHOULD SUBTRACT 0,,1 FROM C(AC)
 35380									;AND NOT JUMP.
 35381	052354	334 00 0 00 000000 		SKIPA			;PASS IF SOJN DID NOT JUMP
 35382						STOP^
 35383	052355	254 04 0 00 052356 		HALT	.+1		;TEST FAILED IF PROGRAM HALTS HERE
 35384	052356	324 00 0 00 052357 		JUMPA	.+1		;IF TEST FAILS, CHANGE THIS INSTRUCTION (JUMPA .+1) TO
 35385									;JUMPA X (X IS THE ADDRESS OF THE FIRST INSTRUCTION
 35386									;IN THE SUBTEST) TO LOOP ON ERROR^
 35387	052357	312 12 0 00 070253 		CAME	12,[0]		;PASS IF C(AC) DECREMENTED CORRECTLY
 35388						STOP^
 35389	052360	254 04 0 00 052361 		HALT	.+1		;TEST FAILED IF PROGRAM HALTS HERE
 35390	052361	324 00 0 00 052362 		JUMPA	.+1		;IF TEST FAILS, CHANGE THIS INSTRUCTION (JUMPA .+1) TO
 35391									;JUMPA X (X IS THE ADDRESS OF THE FIRST INSTRUCTION
 35392									;IN THE SUBTEST) TO LOOP ON ERROR^
 35393
 35394					;**********
DFKAA PDP-10 KL10 BASIC INSTRUCTION DIAGNOSTIC (1) VER 0,2	MACRO %53B(1254)-4 11:50 11-Nov-24 Page 78
DFKAA5	MAC	13-Jan-89 10:22		TEST OF MSCL SOJX INSTRUCTIONS

 35395					;THIS TEST VERIFIES THAT SOJN DECREMENTS C(AC) BY 0,,1 AND
 35396					;PLACES THE RESULT BACK INTO THE AC.  THE RESULT IN THE AC IS
 35397					;COMPARED TO 0 AND THE PROGRAM JUMPS TO THE LOCATION
 35398					;SPECIFIED BY E IF C(AC) IS NON-ZERO.
 35399					;IN THIS CASE, C(AC)=0,,2 BEFORE DECREMENTING.  HENCE, SOJN
 35400					;SHOULD JUMP AND THE RESULT IN THE AC SHOULD BE 0,,1.
 35401
 35402	052362	201 12 0 00 000002 	C55020:	MOVEI	12,2		;PRELOAD AC WITH 0,,2
 35403	052363	366 12 0 00 052365 		SOJN	12,.+2		;*SOJN SHOULD SUBTRACT 0,,1 FROM C(AC)
 35404									;AND JUMP.
 35405						STOP^
 35406	052364	254 04 0 00 052365 		HALT	.+1		;TEST FAILED IF PROGRAM HALTS HERE
 35407	052365	324 00 0 00 052366 		JUMPA	.+1		;IF TEST FAILS, CHANGE THIS INSTRUCTION (JUMPA .+1) TO
 35408									;JUMPA X (X IS THE ADDRESS OF THE FIRST INSTRUCTION
 35409									;IN THE SUBTEST) TO LOOP ON ERROR^
 35410	052366	312 12 0 00 070265 		CAME	12,[1]		;PASS IF C(AC) DECREMENTED CORRECTLY
 35411						STOP^
 35412	052367	254 04 0 00 052370 		HALT	.+1		;TEST FAILED IF PROGRAM HALTS HERE
 35413	052370	324 00 0 00 052371 		JUMPA	.+1		;IF TEST FAILS, CHANGE THIS INSTRUCTION (JUMPA .+1) TO
 35414									;JUMPA X (X IS THE ADDRESS OF THE FIRST INSTRUCTION
 35415									;IN THE SUBTEST) TO LOOP ON ERROR^
 35416
 35417					;**********
 35418
 35419					;THIS TEST VERIFIES THAT SOJG DECREMENTS C(AC) BY 0,,1 AND
 35420					;PLACES THE RESULT BACK INTO THE AC.  THE RESULT IN THE AC IS
 35421					;COMPARED TO 0 AND THE PROGRAM JUMPS TO THE LOCATION
 35422					;SPECIFIED BY E IF C(AC) IS GREATER THAN 0.
 35423					;IN THIS CASE, C(AC) = 0 BEFORE DECREMENTING.  HENCE, SOJG
 35424					;SHOULD NOT JUMP AND THE RESULT IN THE AC SHOULD BE -1,,-1.
 35425
 35426	052371	201 11 0 00 000000 	C55100:	MOVEI	11,0		;PRELOAD AC WITH 0
 35427	052372	367 11 0 00 052374 		SOJG	11,.+2		;*SOJG SHOULD SUBTRACT 0,,1 FROM C(AC)
 35428									;AND NOT JUMP.
 35429	052373	334 00 0 00 000000 		SKIPA			;PASS IF SOJG DID NOT JUMP
 35430						STOP^
 35431	052374	254 04 0 00 052375 		HALT	.+1		;TEST FAILED IF PROGRAM HALTS HERE
 35432	052375	324 00 0 00 052376 		JUMPA	.+1		;IF TEST FAILS, CHANGE THIS INSTRUCTION (JUMPA .+1) TO
 35433									;JUMPA X (X IS THE ADDRESS OF THE FIRST INSTRUCTION
 35434									;IN THE SUBTEST) TO LOOP ON ERROR^
 35435	052376	312 11 0 00 070254 		CAME	11,[-1]		;PASS IF C(AC) DECREMENTED CORRECTLY
 35436						STOP^
 35437	052377	254 04 0 00 052400 		HALT	.+1		;TEST FAILED IF PROGRAM HALTS HERE
 35438	052400	324 00 0 00 052401 		JUMPA	.+1		;IF TEST FAILS, CHANGE THIS INSTRUCTION (JUMPA .+1) TO
 35439									;JUMPA X (X IS THE ADDRESS OF THE FIRST INSTRUCTION
 35440									;IN THE SUBTEST) TO LOOP ON ERROR^
 35441
 35442					;**********
DFKAA PDP-10 KL10 BASIC INSTRUCTION DIAGNOSTIC (1) VER 0,2	MACRO %53B(1254)-4 11:50 11-Nov-24 Page 79
DFKAA5	MAC	13-Jan-89 10:22		TEST OF MSCL SOJX INSTRUCTIONS

 35443					;THIS TEST VERIRIES THAT SOJG DECREMENTS C(AC) BY 0,,1 AND
 35444					;PLACES THE RESULT BACK INTO THE AC.  THE RESULT IN THE AC IS
 35445					;COMPARED TO 0 AND THE PROGRAM JUMPS TO THE LOCATION
 35446					;SPECIFIED BY E IF C(AC) IS GREATER THAN 0.
 35447					;IN THIS CASE, C(AC)=0,,1 BEFORE DECREMENTING.  HENCE, SOJG
 35448					;SHOULD NOT JUMP AND THE RESULT IN THE AC SHOULD BE 0.
 35449
 35450	052401	201 11 0 00 000001 	C55110:	MOVEI	11,1		;PRELOAD AC WITH 0,,1
 35451	052402	367 11 0 00 052404 		SOJG	11,.+2		;*SOJG SHOULD SUBTRACT 0,,1 FROM C(AC)
 35452									;AND NOT JUMP.
 35453	052403	334 00 0 00 000000 		SKIPA			;PASS IF SOJG DID NOT JUMP
 35454						STOP^
 35455	052404	254 04 0 00 052405 		HALT	.+1		;TEST FAILED IF PROGRAM HALTS HERE
 35456	052405	324 00 0 00 052406 		JUMPA	.+1		;IF TEST FAILS, CHANGE THIS INSTRUCTION (JUMPA .+1) TO
 35457									;JUMPA X (X IS THE ADDRESS OF THE FIRST INSTRUCTION
 35458									;IN THE SUBTEST) TO LOOP ON ERROR^
 35459	052406	312 11 0 00 070253 		CAME	11,[0]		;PASS IF C(AC) DECREMENTED CORRECTLY
 35460						STOP^
 35461	052407	254 04 0 00 052410 		HALT	.+1		;TEST FAILED IF PROGRAM HALTS HERE
 35462	052410	324 00 0 00 052411 		JUMPA	.+1		;IF TEST FAILS, CHANGE THIS INSTRUCTION (JUMPA .+1) TO
 35463									;JUMPA X (X IS THE ADDRESS OF THE FIRST INSTRUCTION
 35464									;IN THE SUBTEST) TO LOOP ON ERROR^
 35465
 35466					;**********
 35467
 35468					;THIS TEST VERIFIES THAT SOJG DECREMENTS C(AC) BY 0,,1 AND
 35469					;PLACES THE RESULT BACK INTO THE AC.  THE RESULT IN THE AC IS
 35470					;COMPARED TO 0 AND THE PROGRAM JUMPS TO THE LOCATION
 35471					;SPECIFIED BY E IF C(AC) IS GREATER THAN 0.
 35472					;IN THIS CASE, C(AC)=0,,2 BEFORE DECREMENTING.  HENCE, SOJG
 35473					;SHOULD JUMP AND THE RESULT IN THE AC SHOULD BE 0,,1.
 35474
 35475	052411	201 11 0 00 000002 	C55120:	MOVEI	11,2		;PRELOAD AC WITH 0,,2
 35476	052412	367 11 0 00 052414 		SOJG	11,.+2		;*SOJG SHOULD SUBTRACT O,,1 FROM C(AC)
 35477									;AND JUMP.
 35478						STOP^
 35479	052413	254 04 0 00 052414 		HALT	.+1		;TEST FAILED IF PROGRAM HALTS HERE
 35480	052414	324 00 0 00 052415 		JUMPA	.+1		;IF TEST FAILS, CHANGE THIS INSTRUCTION (JUMPA .+1) TO
 35481									;JUMPA X (X IS THE ADDRESS OF THE FIRST INSTRUCTION
 35482									;IN THE SUBTEST) TO LOOP ON ERROR^
 35483	052415	312 11 0 00 070265 		CAME	11,[1]		;PASS IF C(AC) DECREMENTED CORRECTLY
 35484						STOP^
 35485	052416	254 04 0 00 052417 		HALT	.+1		;TEST FAILED IF PROGRAM HALTS HERE
 35486	052417	324 00 0 00 052420 		JUMPA	.+1		;IF TEST FAILS, CHANGE THIS INSTRUCTION (JUMPA .+1) TO
 35487									;JUMPA X (X IS THE ADDRESS OF THE FIRST INSTRUCTION
 35488									;IN THE SUBTEST) TO LOOP ON ERROR^
 35489
 35490					;**********
DFKAA PDP-10 KL10 BASIC INSTRUCTION DIAGNOSTIC (1) VER 0,2	MACRO %53B(1254)-4 11:50 11-Nov-24 Page 80
DFKAA5	MAC	13-Jan-89 10:22		TEST OF MSCL SOSX INSTRUCTIONS

 35491					SUBTTL	TEST OF MSCL SOSX INSTRUCTIONS
 35492
 35493					;**********
 35494
 35495					;THIS TEST VERIFIES THAT SOSL DECREMENTS C(E) BY 0,,1 AND PLACES
 35496					;THE RESULT INTO E.  THE RESULT IN E IS COMPARED TO 0 AND SKIPS
 35497					;THE NEXT INSTRUCTION IF C(E) IS LESS THAN 0.
 35498					;IF THE AC IS NON-ZERO, THE RESULT IS ALSO PLACED INTO THE AC.
 35499					;IN THIS CASE, AC=0, C(AC)=707070,,707070 AND C(E)=0
 35500					;BEFORE INCREMENTING.  HENCE, SOSL SHOULD SKIP; AND THE
 35501					;FINAL RESULTS IN AC AND E SHOULD BE 707070,,707070 AND -1,,-1
 35502					;RESPECTIVELY.
 35503
 35504	052420	200 00 0 00 070332 	C55200:	MOVE	0,[707070,,707070]  ;PRELOAD AC WITH 707070,,707070
 35505	052421	201 01 0 00 000000 		MOVEI	1,0		;PRELOAD E WITH 0
 35506	052422	371 00 0 00 000001 		SOSL	0,1		;*SOSL SHOULD SUBTRACT 0,,1 FROM C(E)
 35507									;AND SKIP
 35508						STOP^
 35509	052423	254 04 0 00 052424 		HALT	.+1		;TEST FAILED IF PROGRAM HALTS HERE
 35510	052424	324 00 0 00 052425 		JUMPA	.+1		;IF TEST FAILS, CHANGE THIS INSTRUCTION (JUMPA .+1) TO
 35511									;JUMPA X (X IS THE ADDRESS OF THE FIRST INSTRUCTION
 35512									;IN THE SUBTEST) TO LOOP ON ERROR^
 35513	052425	312 01 0 00 070254 		CAME	1,[-1]		;PASS IF E DECREMENTED CORRECTLY
 35514						STOP^
 35515	052426	254 04 0 00 052427 		HALT	.+1		;TEST FAILED IF PROGRAM HALTS HERE
 35516	052427	324 00 0 00 052430 		JUMPA	.+1		;IF TEST FAILS, CHANGE THIS INSTRUCTION (JUMPA .+1) TO
 35517									;JUMPA X (X IS THE ADDRESS OF THE FIRST INSTRUCTION
 35518									;IN THE SUBTEST) TO LOOP ON ERROR^
 35519	052430	312 00 0 00 070332 		CAME	0,[707070,,707070]  ;PASS IF C(AC) WAS NOT MODIFIED
 35520						STOP^
 35521	052431	254 04 0 00 052432 		HALT	.+1		;TEST FAILED IF PROGRAM HALTS HERE
 35522	052432	324 00 0 00 052433 		JUMPA	.+1		;IF TEST FAILS, CHANGE THIS INSTRUCTION (JUMPA .+1) TO
 35523									;JUMPA X (X IS THE ADDRESS OF THE FIRST INSTRUCTION
 35524									;IN THE SUBTEST) TO LOOP ON ERROR^
 35525
 35526					;**********
 35527
 35528					;THIS TEST VERIFIES THAT SOSL DECREMENTS C(E) BY 0,,1 AND PLACES
 35529					;THE RESULT INTO E.  THE RESULT IN E IS COMPARED TO 0 AND SKIPS
 35530					;THE NEXT INSTRUCTION IF C(E) IS LESS THAN 0.
 35531					;IF THE AC IS NON-ZERO, THE RESULT IS ALSO PLACED INTO THE AC.
 35532					;IN THIS CASE, AC=0, C(AC)=707070,,707070 AND C(E)=0,,1
 35533					;BEFORE INCREMENTING.  HENCE, SOSL SHOULD NOT SKIP; AND THE
 35534					;FINAL RESULTS IN AC AND E SHOULD BE 707070,,707070 AND 0
 35535					;RESPECTIVELY.
 35536
 35537	052433	200 00 0 00 070332 	C55210:	MOVE	0,[707070,,707070]  ;PRELOAD AC WITH 707070,,707070
 35538	052434	201 01 0 00 000001 		MOVEI	1,1		;PRELOAD E WITH 0,,1
 35539	052435	371 00 0 00 000001 		SOSL	0,1		;*SOSL SHOULD SUBTRACT 0,,1 FROM C(E),
 35540									;AND NOT SKIP.
 35541	052436	334 00 0 00 000000 		SKIPA			;PASS IF SOSL DID NOT SKIP
 35542						STOP^
 35543	052437	254 04 0 00 052440 		HALT	.+1		;TEST FAILED IF PROGRAM HALTS HERE
 35544	052440	324 00 0 00 052441 		JUMPA	.+1		;IF TEST FAILS, CHANGE THIS INSTRUCTION (JUMPA .+1) TO
 35545									;JUMPA X (X IS THE ADDRESS OF THE FIRST INSTRUCTION
DFKAA PDP-10 KL10 BASIC INSTRUCTION DIAGNOSTIC (1) VER 0,2	MACRO %53B(1254)-4 11:50 11-Nov-24 Page 80-1
DFKAA5	MAC	13-Jan-89 10:22		TEST OF MSCL SOSX INSTRUCTIONS

 35546									;IN THE SUBTEST) TO LOOP ON ERROR^
 35547	052441	312 01 0 00 070253 		CAME	1,[0]		;PASS IF E DECREMENTED CORRECTLY
 35548						STOP^
 35549	052442	254 04 0 00 052443 		HALT	.+1		;TEST FAILED IF PROGRAM HALTS HERE
 35550	052443	324 00 0 00 052444 		JUMPA	.+1		;IF TEST FAILS, CHANGE THIS INSTRUCTION (JUMPA .+1) TO
 35551									;JUMPA X (X IS THE ADDRESS OF THE FIRST INSTRUCTION
 35552									;IN THE SUBTEST) TO LOOP ON ERROR^
 35553	052444	312 00 0 00 070332 		CAME	0,[707070,,707070]  ;PASS IF C(AC) WAS NOT MODIFIED
 35554						STOP^
 35555	052445	254 04 0 00 052446 		HALT	.+1		;TEST FAILED IF PROGRAM HALTS HERE
 35556	052446	324 00 0 00 052447 		JUMPA	.+1		;IF TEST FAILS, CHANGE THIS INSTRUCTION (JUMPA .+1) TO
 35557									;JUMPA X (X IS THE ADDRESS OF THE FIRST INSTRUCTION
 35558									;IN THE SUBTEST) TO LOOP ON ERROR^
 35559
 35560					;**********
DFKAA PDP-10 KL10 BASIC INSTRUCTION DIAGNOSTIC (1) VER 0,2	MACRO %53B(1254)-4 11:50 11-Nov-24 Page 81
DFKAA5	MAC	13-Jan-89 10:22		TEST OF MSCL SOSX INSTRUCTIONS

 35561					;THIS TEST VERIFIES THAT SOSL DECREMENTS C(E) BY 0,,1 AND PLACES
 35562					;THE RESULT INTO E.  THE RESULT IN E IS COMPARED TO 0 AND SKIPS
 35563					;THE NEXT INSTRUCTION IF C(E) IS LESS THAN 0.
 35564					;IF THE AC IS NON-ZERO, THE RESULT IS ALSO PLACED INTO THE AC.
 35565					;IN THIS CASE, AC=0, C(AC)=707070,,707070 AND C(E)=0,,1
 35566					;BEFORE INCREMENTING.  HENCE, SOSL SHOULD NOT SKIP; AND THE
 35567					;FINAL RESULTS IN AC AND E SHOULD BE 707070,,707070 AND 0
 35568					;RESPECTIVELY.
 35569
 35570	052447	200 00 0 00 070332 	C55211:	MOVE	0,[707070,,707070]  ;PRELOAD AC WITH 707070,,707070
 35571	052450	201 01 0 00 000001 		MOVEI	1,1		;PRELOAD E WITH 0,,1
 35572	052451	202 01 0 00 052466 		MOVEM	1,E55211
 35573	052452	371 00 0 00 052466 		SOSL	0,E55211	;*SOSL SHOULD SUBTRACT 0,,1 FROM C(E),
 35574									;AND NOT SKIP.
 35575	052453	334 00 0 00 000000 		SKIPA			;PASS IF SOSL DID NOT SKIP
 35576						STOP^
 35577	052454	254 04 0 00 052455 		HALT	.+1		;TEST FAILED IF PROGRAM HALTS HERE
 35578	052455	324 00 0 00 052456 		JUMPA	.+1		;IF TEST FAILS, CHANGE THIS INSTRUCTION (JUMPA .+1) TO
 35579									;JUMPA X (X IS THE ADDRESS OF THE FIRST INSTRUCTION
 35580									;IN THE SUBTEST) TO LOOP ON ERROR^
 35581	052456	200 01 0 00 052466 		MOVE	1,E55211
 35582	052457	312 01 0 00 070253 		CAME	1,[0]		;PASS IF E DECREMENTED CORRECTLY
 35583						STOP^
 35584	052460	254 04 0 00 052461 		HALT	.+1		;TEST FAILED IF PROGRAM HALTS HERE
 35585	052461	324 00 0 00 052462 		JUMPA	.+1		;IF TEST FAILS, CHANGE THIS INSTRUCTION (JUMPA .+1) TO
 35586									;JUMPA X (X IS THE ADDRESS OF THE FIRST INSTRUCTION
 35587									;IN THE SUBTEST) TO LOOP ON ERROR^
 35588	052462	312 00 0 00 070332 		CAME	0,[707070,,707070]  ;PASS IF C(AC) WAS NOT MODIFIED
 35589						STOP^
 35590	052463	254 04 0 00 052464 		HALT	.+1		;TEST FAILED IF PROGRAM HALTS HERE
 35591	052464	324 00 0 00 052465 		JUMPA	.+1		;IF TEST FAILS, CHANGE THIS INSTRUCTION (JUMPA .+1) TO
 35592									;JUMPA X (X IS THE ADDRESS OF THE FIRST INSTRUCTION
 35593									;IN THE SUBTEST) TO LOOP ON ERROR^
 35594
 35595	052465	334 00 0 00 000000 		SKIPA			;GO TO NEXT TEST
 35596	052466	000000	000000		E55211:	0			;TEST WORD MEMORY
 35597
 35598					;**********
DFKAA PDP-10 KL10 BASIC INSTRUCTION DIAGNOSTIC (1) VER 0,2	MACRO %53B(1254)-4 11:50 11-Nov-24 Page 82
DFKAA5	MAC	13-Jan-89 10:22		TEST OF MSCL SOSX INSTRUCTIONS

 35599					;THIS TEST VERIFIES THAT SOS DECREMENTS C(E) BY 0,,1 AND PLACES
 35600					;THE RESULT INTO E.  THE RESULT IN E IS COMPARED TO 0 AND SKIPS
 35601					;THE NEXT INSTRUCTION IF C(E) IS LESS THAN 0.
 35602					;IF THE AC IS NON-ZERO, THE RESULT IS ALSO PLACED INTO THE AC.
 35603					;IN THIS CASE, AC=0, C(AC)=707070,,707070 AND C(E) 0,,2
 35604					;BEFORE INCREMENTING.  HENCE, SOSL SHOULD NOT SKIP; AND THE
 35605					;FINAL RESULTS IN AC AND E SHOULD BE 707070,,707070 AND 0,,1
 35606					;RESPECTIVELY.
 35607
 35608	052467	200 00 0 00 070332 	C55220:	MOVE	0,[707070,,707070]  ;PRELOAD AC WITH 707070,,707070
 35609	052470	201 01 0 00 000002 		MOVEI	1,2		;PRELOAD E WITH 0,,2
 35610	052471	371 00 0 00 000001 		SOSL	0,1		;*SOSL SHOULD SUBTRACT 0,,1 FROM C(E),
 35611									;AND NOT SKIP
 35612
 35613	052472	334 00 0 00 000000 		SKIPA			;PASS IF SOSL DID NOT SKIP
 35614						STOP^
 35615	052473	254 04 0 00 052474 		HALT	.+1		;TEST FAILED IF PROGRAM HALTS HERE
 35616	052474	324 00 0 00 052475 		JUMPA	.+1		;IF TEST FAILS, CHANGE THIS INSTRUCTION (JUMPA .+1) TO
 35617									;JUMPA X (X IS THE ADDRESS OF THE FIRST INSTRUCTION
 35618									;IN THE SUBTEST) TO LOOP ON ERROR^
 35619	052475	312 01 0 00 070265 		CAME	1,[1]		;PASS IF E DECREMENTED CORRECTLY
 35620						STOP^
 35621	052476	254 04 0 00 052477 		HALT	.+1		;TEST FAILED IF PROGRAM HALTS HERE
 35622	052477	324 00 0 00 052500 		JUMPA	.+1		;IF TEST FAILS, CHANGE THIS INSTRUCTION (JUMPA .+1) TO
 35623									;JUMPA X (X IS THE ADDRESS OF THE FIRST INSTRUCTION
 35624									;IN THE SUBTEST) TO LOOP ON ERROR^
 35625	052500	312 00 0 00 070332 		CAME	0,[707070,,707070]  ;PASS IF AC WAS UPDATED IF AC NON-ZERO
 35626						STOP^
 35627	052501	254 04 0 00 052502 		HALT	.+1		;TEST FAILED IF PROGRAM HALTS HERE
 35628	052502	324 00 0 00 052503 		JUMPA	.+1		;IF TEST FAILS, CHANGE THIS INSTRUCTION (JUMPA .+1) TO
 35629									;JUMPA X (X IS THE ADDRESS OF THE FIRST INSTRUCTION
 35630									;IN THE SUBTEST) TO LOOP ON ERROR^
 35631
 35632					;**********
 35633
 35634					;THIS TEST VERIFIES THAT SOSE DECREMENTS C(E) BY 0,,1 AND PLACES
 35635					;THE RESULT INTO E.  THE RESULT IN E IS COMPARED TO 0 AND SKIPS
 35636					;THE NEXT INSTRUCTION IF C(E) IS EQUAL TO 0
 35637					;IF THE AC IS NON-ZERO, THE RESULT IS ALSO PLACED INTO THE AC.
 35638					;IN THIS CASE, AC=10, C(AC)=707070,,707070 AND C(E)=0
 35639					;BEFORE INCREMENTING.  HENCE, SOSE SHOULD NOT SKIP ; AND THE
 35640					;FINAL RESULTS IN AC AND E SHOULD BE -1,,-1 AND -1,,-1
 35641					;RESPECTIVELY.
 35642
 35643	052503	200 10 0 00 070332 	C55300:	MOVE	10,[707070,,707070]  ;PRELOAD AC WITH 707070,,707070
 35644	052504	201 11 0 00 000000 		MOVEI	11,0		;PRELOAD E WITH 0
 35645	052505	372 10 0 00 000011 		SOSE	10,11		;*SOSE SHOULD SUBTRACT 0,,1 FROM C(E),
 35646									;UPDATE AC AND NOT SKIP
 35647
 35648	052506	334 00 0 00 000000 		SKIPA			;PASS IF SOSE DID NOT SKIP
 35649						STOP^
 35650	052507	254 04 0 00 052510 		HALT	.+1		;TEST FAILED IF PROGRAM HALTS HERE
 35651	052510	324 00 0 00 052511 		JUMPA	.+1		;IF TEST FAILS, CHANGE THIS INSTRUCTION (JUMPA .+1) TO
 35652									;JUMPA X (X IS THE ADDRESS OF THE FIRST INSTRUCTION
 35653									;IN THE SUBTEST) TO LOOP ON ERROR^
DFKAA PDP-10 KL10 BASIC INSTRUCTION DIAGNOSTIC (1) VER 0,2	MACRO %53B(1254)-4 11:50 11-Nov-24 Page 82-1
DFKAA5	MAC	13-Jan-89 10:22		TEST OF MSCL SOSX INSTRUCTIONS

 35654	052511	312 11 0 00 070254 		CAME	11,[-1]		;PASS IF E DECREMENTED CORRECTLY
 35655						STOP^
 35656	052512	254 04 0 00 052513 		HALT	.+1		;TEST FAILED IF PROGRAM HALTS HERE
 35657	052513	324 00 0 00 052514 		JUMPA	.+1		;IF TEST FAILS, CHANGE THIS INSTRUCTION (JUMPA .+1) TO
 35658									;JUMPA X (X IS THE ADDRESS OF THE FIRST INSTRUCTION
 35659									;IN THE SUBTEST) TO LOOP ON ERROR^
 35660	052514	312 10 0 00 070254 		CAME	10,[-1]		;PASS IF AC WAS UPDATED IF AC NON-ZERO
 35661						STOP^
 35662	052515	254 04 0 00 052516 		HALT	.+1		;TEST FAILED IF PROGRAM HALTS HERE
 35663	052516	324 00 0 00 052517 		JUMPA	.+1		;IF TEST FAILS, CHANGE THIS INSTRUCTION (JUMPA .+1) TO
 35664									;JUMPA X (X IS THE ADDRESS OF THE FIRST INSTRUCTION
 35665									;IN THE SUBTEST) TO LOOP ON ERROR^
 35666
 35667					;**********
DFKAA PDP-10 KL10 BASIC INSTRUCTION DIAGNOSTIC (1) VER 0,2	MACRO %53B(1254)-4 11:50 11-Nov-24 Page 83
DFKAA5	MAC	13-Jan-89 10:22		TEST OF MSCL SOSX INSTRUCTIONS

 35668					;THIS TEST VERIFIES THAT SOSE DECREMENTS C(E) BY 0,,1 AND PLACES
 35669					;THE RESULT INTO E.  THE RESULT IN E IS COMPARED TO 0 AND SKIPS
 35670					;THE NEXT INSTRUCTION IF C(E) IS EQUAL TO 0
 35671					;IF THE AC IS NON-ZERO, THE RESULT IS ALSO PLACED INTO THE AC.
 35672					;IN THIS CASE, AC=10, C(AC)=707070,,707070 AND C(E)=0,,1
 35673					;BEFORE INCREMENTING.  HENCE, SOSE SHOULD SKIP ; AND THE
 35674					;FINAL RESULTS IN AC AND E SHOULD BE 707070,,707070 AND 0
 35675					;RESPECTIVELY.
 35676
 35677	052517	200 10 0 00 070332 	C55310:	MOVE	10,[707070,,707070]  ;PRELOAD AC WITH 707070,,707070
 35678	052520	201 11 0 00 000001 		MOVEI	11,1		;PRELOAD E WITH 0,,1
 35679	052521	372 10 0 00 000011 		SOSE	10,11		;*SOS SHOULD SUBTRACT 0,,1 FROM C(E)
 35680									;UPDATE AC AND SKIP
 35681						STOP^
 35682	052522	254 04 0 00 052523 		HALT	.+1		;TEST FAILED IF PROGRAM HALTS HERE
 35683	052523	324 00 0 00 052524 		JUMPA	.+1		;IF TEST FAILS, CHANGE THIS INSTRUCTION (JUMPA .+1) TO
 35684									;JUMPA X (X IS THE ADDRESS OF THE FIRST INSTRUCTION
 35685									;IN THE SUBTEST) TO LOOP ON ERROR^
 35686	052524	312 11 0 00 070253 		CAME	11,[0]		;PASS IF E DECREMENTED CORRECTLY
 35687						STOP^
 35688	052525	254 04 0 00 052526 		HALT	.+1		;TEST FAILED IF PROGRAM HALTS HERE
 35689	052526	324 00 0 00 052527 		JUMPA	.+1		;IF TEST FAILS, CHANGE THIS INSTRUCTION (JUMPA .+1) TO
 35690									;JUMPA X (X IS THE ADDRESS OF THE FIRST INSTRUCTION
 35691									;IN THE SUBTEST) TO LOOP ON ERROR^
 35692	052527	312 10 0 00 070253 		CAME	10,[0]		;PASS IF AC WAS UPDATED IF AC NON-ZERO
 35693						STOP^
 35694	052530	254 04 0 00 052531 		HALT	.+1		;TEST FAILED IF PROGRAM HALTS HERE
 35695	052531	324 00 0 00 052532 		JUMPA	.+1		;IF TEST FAILS, CHANGE THIS INSTRUCTION (JUMPA .+1) TO
 35696									;JUMPA X (X IS THE ADDRESS OF THE FIRST INSTRUCTION
 35697									;IN THE SUBTEST) TO LOOP ON ERROR^
 35698
 35699					;**********
 35700
 35701					;THIS TEST VERIFIES THAT SOSE DECREMENTS C(E) BY 0,11 AND PLACES
 35702					;THE RESULT INTO E.  THE RESULT IN E IS COMPARED TO 0 AND SKIPS
 35703					;THE NEXT INSTRUCTION IF C(E) IS EQUAL TO 0.
 35704					;IF THE AC IS NON-ZERO, THE RESULT IS ALSO PLACED INTO THE AC.
 35705					;IN THIS CASE, AC=10, C(AC)=707070,,707070 AND C(E)=0,,2
 35706					;BEFORE INCREMENTING. HENCE, SOSE SHOULD NOT SKIP ; AND THE
 35707					;FINAL RESULTS IN AC AND E SHOULD BE 0,,1 AND 0,,1
 35708					;RESPECTIVELY.
 35709
 35710	052532	200 10 0 00 070332 	C55320:	MOVE	10,[707070,,707070] ;PRELOAD AC WITH 707070,,707070
 35711	052533	201 11 0 00 000002 		MOVEI	11,2		;PRELOAD E WITH 0,,2
 35712	052534	372 10 0 00 000011 		SOSE	10,11		;*SOSE SHOULD SUBTRACT 0,,1 FROM C(E),
 35713									;UPDATE AC AND NOT SKIP
 35714
 35715	052535	334 00 0 00 000000 		SKIPA			;PASS IF SOSE DID NOT SKIP
 35716						STOP^
 35717	052536	254 04 0 00 052537 		HALT	.+1		;TEST FAILED IF PROGRAM HALTS HERE
 35718	052537	324 00 0 00 052540 		JUMPA	.+1		;IF TEST FAILS, CHANGE THIS INSTRUCTION (JUMPA .+1) TO
 35719									;JUMPA X (X IS THE ADDRESS OF THE FIRST INSTRUCTION
 35720									;IN THE SUBTEST) TO LOOP ON ERROR^
 35721	052540	312 11 0 00 070265 		CAME	11,[1]		;PASS IF E DECREMENTED CORRECTLY
 35722						STOP^
DFKAA PDP-10 KL10 BASIC INSTRUCTION DIAGNOSTIC (1) VER 0,2	MACRO %53B(1254)-4 11:50 11-Nov-24 Page 83-1
DFKAA5	MAC	13-Jan-89 10:22		TEST OF MSCL SOSX INSTRUCTIONS

 35723	052541	254 04 0 00 052542 		HALT	.+1		;TEST FAILED IF PROGRAM HALTS HERE
 35724	052542	324 00 0 00 052543 		JUMPA	.+1		;IF TEST FAILS, CHANGE THIS INSTRUCTION (JUMPA .+1) TO
 35725									;JUMPA X (X IS THE ADDRESS OF THE FIRST INSTRUCTION
 35726									;IN THE SUBTEST) TO LOOP ON ERROR^
 35727	052543	312 10 0 00 070265 		CAME	10,[1]		;PASS IF AC WAS UPDATED IF AC NON-ZERO
 35728						STOP^
 35729	052544	254 04 0 00 052545 		HALT	.+1		;TEST FAILED IF PROGRAM HALTS HERE
 35730	052545	324 00 0 00 052546 		JUMPA	.+1		;IF TEST FAILS, CHANGE THIS INSTRUCTION (JUMPA .+1) TO
 35731									;JUMPA X (X IS THE ADDRESS OF THE FIRST INSTRUCTION
 35732									;IN THE SUBTEST) TO LOOP ON ERROR^
 35733
 35734					;**********
DFKAA PDP-10 KL10 BASIC INSTRUCTION DIAGNOSTIC (1) VER 0,2	MACRO %53B(1254)-4 11:50 11-Nov-24 Page 84
DFKAA5	MAC	13-Jan-89 10:22		TEST OF MSCL SOSX INSTRUCTIONS

 35735					;THIS TEST VERIFIES THAT SOSLE DECREMENTS C(E) BY 0,,1 AND PLACES
 35736					;THE RESULT INTO E.  THE RESULT IN E IS COMPARED TO 0 AND SKIPS
 35737					;THE NEXT INSTRUCTION IF C(E) IS LESS THAN OR EQUAL TO 0.
 35738					;IF THE AC IS NON-ZERO, THE RESULT IS ALSO PLACED INTO THE AC.
 35739					;IN THIS CASE, AC=7, C(AC)=707070,,707070 AND C(E)=0
 35740					;BEFORE INCREMENTING.  HENCE, SOSLE SHOULD SKIP ; AND THE
 35741					;FINAL RESULTS IN AC AND E SHOULD BE -1,,-1 AND -1,,-1
 35742					;RESPECTIVELY.
 35743
 35744	052546	200 07 0 00 070332 	C55400:	MOVE	7,[707070,,707070]  ;PRELOAD AC WITH 707070,,707070
 35745	052547	201 10 0 00 000000 		MOVEI	10,0		;PRELOAD E WITH 0
 35746	052550	373 07 0 00 000010 		SOSLE	7,10		;*SOSLE SHOULD SUBTRACT 0,,1 FROM C(E),
 35747									;UPDATE AC AND SKIP
 35748						STOP^
 35749	052551	254 04 0 00 052552 		HALT	.+1		;TEST FAILED IF PROGRAM HALTS HERE
 35750	052552	324 00 0 00 052553 		JUMPA	.+1		;IF TEST FAILS, CHANGE THIS INSTRUCTION (JUMPA .+1) TO
 35751									;JUMPA X (X IS THE ADDRESS OF THE FIRST INSTRUCTION
 35752									;IN THE SUBTEST) TO LOOP ON ERROR^
 35753	052553	312 10 0 00 070254 		CAME	10,[-1]		;PASS IF E DECREMENTED CORRECTLY
 35754						STOP^
 35755	052554	254 04 0 00 052555 		HALT	.+1		;TEST FAILED IF PROGRAM HALTS HERE
 35756	052555	324 00 0 00 052556 		JUMPA	.+1		;IF TEST FAILS, CHANGE THIS INSTRUCTION (JUMPA .+1) TO
 35757									;JUMPA X (X IS THE ADDRESS OF THE FIRST INSTRUCTION
 35758									;IN THE SUBTEST) TO LOOP ON ERROR^
 35759	052556	312 07 0 00 070254 		CAME	7,[-1]		;PASS IF AC WAS UPDATED IF AC NON-ZERO
 35760						STOP^
 35761	052557	254 04 0 00 052560 		HALT	.+1		;TEST FAILED IF PROGRAM HALTS HERE
 35762	052560	324 00 0 00 052561 		JUMPA	.+1		;IF TEST FAILS, CHANGE THIS INSTRUCTION (JUMPA .+1) TO
 35763									;JUMPA X (X IS THE ADDRESS OF THE FIRST INSTRUCTION
 35764									;IN THE SUBTEST) TO LOOP ON ERROR^
 35765
 35766					;**********
 35767
 35768					;THIS TEST VERIFIES THAT SOSLE DECREMENTS C(E) BY 0,,1 AND PLACES
 35769					;THE RESULT INTO E. THE RESULT IN E IS COMPARED TO 0 AND SKIPS
 35770					;THE NEXT INSTRUCTION IF C(E) IS LESS THAN OR EQUAL TO 0.
 35771					;IF THE AC IS NON-ZERO, THE RESULT IS ALSO PLACED INTO THE AC.
 35772					;IN THIS CASE, AC=7, C(AC)=070707,,070707 AND C(E)=0,,1
 35773					;BEFORE INCREMENTING.  HENCE, SOSLE SHOULD SKIP ; AND THE
 35774					;FINAL RESULTS IN AC AND E SHOULD BE 0 AND 0
 35775					;RESPECTIVELY.
 35776
 35777	052561	200 07 0 00 070332 	C55410:	MOVE	7,[707070,,707070] ;PRELOAD AC WITH 707070,,707070
 35778	052562	201 10 0 00 000001 		MOVEI	10,1		;PRELOAD E WITH 0,,1
 35779	052563	373 07 0 00 000010 		SOSLE	7,10		;*SOSLE SHOULD SUBTRACT 0,,1 FROM C(E),
 35780									;UPDATE AC AND SKIP
 35781						STOP^
 35782	052564	254 04 0 00 052565 		HALT	.+1		;TEST FAILED IF PROGRAM HALTS HERE
 35783	052565	324 00 0 00 052566 		JUMPA	.+1		;IF TEST FAILS, CHANGE THIS INSTRUCTION (JUMPA .+1) TO
 35784									;JUMPA X (X IS THE ADDRESS OF THE FIRST INSTRUCTION
 35785									;IN THE SUBTEST) TO LOOP ON ERROR^
 35786	052566	312 10 0 00 070253 		CAME	10,[0]		;PASS IF E DECREMENTED CORRECTLY
 35787						STOP^
 35788	052567	254 04 0 00 052570 		HALT	.+1		;TEST FAILED IF PROGRAM HALTS HERE
 35789	052570	324 00 0 00 052571 		JUMPA	.+1		;IF TEST FAILS, CHANGE THIS INSTRUCTION (JUMPA .+1) TO
DFKAA PDP-10 KL10 BASIC INSTRUCTION DIAGNOSTIC (1) VER 0,2	MACRO %53B(1254)-4 11:50 11-Nov-24 Page 84-1
DFKAA5	MAC	13-Jan-89 10:22		TEST OF MSCL SOSX INSTRUCTIONS

 35790									;JUMPA X (X IS THE ADDRESS OF THE FIRST INSTRUCTION
 35791									;IN THE SUBTEST) TO LOOP ON ERROR^
 35792	052571	312 07 0 00 070253 		CAME	7,[0]		;PASS IF AC WAS UPDATED IF AC NON-ZERO
 35793						STOP^
 35794	052572	254 04 0 00 052573 		HALT	.+1		;TEST FAILED IF PROGRAM HALTS HERE
 35795	052573	324 00 0 00 052574 		JUMPA	.+1		;IF TEST FAILS, CHANGE THIS INSTRUCTION (JUMPA .+1) TO
 35796									;JUMPA X (X IS THE ADDRESS OF THE FIRST INSTRUCTION
 35797									;IN THE SUBTEST) TO LOOP ON ERROR^
 35798
 35799					;**********
DFKAA PDP-10 KL10 BASIC INSTRUCTION DIAGNOSTIC (1) VER 0,2	MACRO %53B(1254)-4 11:50 11-Nov-24 Page 85
DFKAA5	MAC	13-Jan-89 10:22		TEST OF MSCL SOSX INSTRUCTIONS

 35800					;THIS TEST VERIFIES THAT SOSLE DECREMENTS C(E) BY 0,,1 AND PLACES
 35801					;THE RESULT INTO E.  THE RESULT IN E IS COMPARED TO 0 AND SKIPS
 35802					;THE NEXT INSTRUCTION IF C(E) IS LESS THAN OR EQUAL TO 0.
 35803					;IF THE AC IS NON-ZERO, THE RESULT IS ALSO PLACED INTO THE AC.
 35804					;IN THIS CASE, AC=7, C(AC)=707070,,707070 AND C(E)=0,,2
 35805					;BEFORE INCREMENTING.  HENCE, SOSLE SHOULD NOT SKIP; AND THE
 35806					;FINAL RESULTS IN AC AND E SHOULD BE 0,,1 AND 0,,1
 35807					;RESPECTIVELY.
 35808
 35809	052574	200 07 0 00 070332 	C55420:	MOVE	7,[707070,,707070]  ;PRELOAD AC WITH 707070,,707070
 35810	052575	201 10 0 00 000002 		MOVEI	10,2		;PRELOAD E WITH 0,,2
 35811	052576	373 07 0 00 000010 		SOSLE	7,10		;*SOSLE SHOULD SUBTRACT 0,,1 FROM C(E),
 35812									;UPDATE AC AND NOT SKIP
 35813	052577	334 00 0 00 000000 		SKIPA			;PASS IF SOSLE DID NOT SKIP
 35814						STOP^
 35815	052600	254 04 0 00 052601 		HALT	.+1		;TEST FAILED IF PROGRAM HALTS HERE
 35816	052601	324 00 0 00 052602 		JUMPA	.+1		;IF TEST FAILS, CHANGE THIS INSTRUCTION (JUMPA .+1) TO
 35817									;JUMPA X (X IS THE ADDRESS OF THE FIRST INSTRUCTION
 35818									;IN THE SUBTEST) TO LOOP ON ERROR^
 35819	052602	312 10 0 00 070265 		CAME	10,[1]		;PASS IF E DECREMENTED CORRECTLY
 35820						STOP^
 35821	052603	254 04 0 00 052604 		HALT	.+1		;TEST FAILED IF PROGRAM HALTS HERE
 35822	052604	324 00 0 00 052605 		JUMPA	.+1		;IF TEST FAILS, CHANGE THIS INSTRUCTION (JUMPA .+1) TO
 35823									;JUMPA X (X IS THE ADDRESS OF THE FIRST INSTRUCTION
 35824									;IN THE SUBTEST) TO LOOP ON ERROR^
 35825	052605	312 07 0 00 070265 		CAME	7,[1]		;PASS IF AC WAS UPDATED IF AC NON-ZERO
 35826						STOP^
 35827	052606	254 04 0 00 052607 		HALT	.+1		;TEST FAILED IF PROGRAM HALTS HERE
 35828	052607	324 00 0 00 052610 		JUMPA	.+1		;IF TEST FAILS, CHANGE THIS INSTRUCTION (JUMPA .+1) TO
 35829									;JUMPA X (X IS THE ADDRESS OF THE FIRST INSTRUCTION
 35830									;IN THE SUBTEST) TO LOOP ON ERROR^
 35831
 35832					;**********
 35833
 35834					;THIS TEST VERIFIES THAT SOSA DECREMENTS C(E) BY 0,,1 AND PLACES
 35835					;THE RESULT INTO E.  THE RESULT IN E IS COMPARED TO 0 AND ALWAYS SKIPS
 35836					;THE NEXT INSTRUCTION.
 35837					;IF THE AC IS NON-ZERO, THE RESULT IS ALSO PLACED INTO THE AC.
 35838					;IN THIS CASE, AC=6, C(AC)=707070,,707070 AND C(E)=0
 35839					;BEFORE INCREMENTING. HENCE, SOSA SHOULD SKIP ; AND THE
 35840					;FINAL RESULTS IN AC AND E SHOULD BE -1,,-1 AND -1,,-1
 35841					;RESPECTIVELY.
 35842
 35843	052610	200 06 0 00 070332 	C55500:	MOVE	6,[707070,,707070]  ;PRELOAD AC WITH 707070,,707070
 35844	052611	201 07 0 00 000000 		MOVEI	7,0		;PRELOAD E WITH 0
 35845	052612	374 06 0 00 000007 		SOSA	6,7		;*SOSA SHOULD SUBTRACT 0,,1 FROM C(E),
 35846									;UPDATE AC AND SKIP
 35847						STOP^
 35848	052613	254 04 0 00 052614 		HALT	.+1		;TEST FAILED IF PROGRAM HALTS HERE
 35849	052614	324 00 0 00 052615 		JUMPA	.+1		;IF TEST FAILS, CHANGE THIS INSTRUCTION (JUMPA .+1) TO
 35850									;JUMPA X (X IS THE ADDRESS OF THE FIRST INSTRUCTION
 35851									;IN THE SUBTEST) TO LOOP ON ERROR^
 35852	052615	312 07 0 00 070254 		CAME	7,[-1]		;PASS IF E DECREMENTED CORRECTLY
 35853						STOP^
 35854	052616	254 04 0 00 052617 		HALT	.+1		;TEST FAILED IF PROGRAM HALTS HERE
DFKAA PDP-10 KL10 BASIC INSTRUCTION DIAGNOSTIC (1) VER 0,2	MACRO %53B(1254)-4 11:50 11-Nov-24 Page 85-1
DFKAA5	MAC	13-Jan-89 10:22		TEST OF MSCL SOSX INSTRUCTIONS

 35855	052617	324 00 0 00 052620 		JUMPA	.+1		;IF TEST FAILS, CHANGE THIS INSTRUCTION (JUMPA .+1) TO
 35856									;JUMPA X (X IS THE ADDRESS OF THE FIRST INSTRUCTION
 35857									;IN THE SUBTEST) TO LOOP ON ERROR^
 35858	052620	312 06 0 00 070254 		CAME	6,[-1]		;PASS IF AC WAS UPDATED IF AC NON-ZERO
 35859						STOP^
 35860	052621	254 04 0 00 052622 		HALT	.+1		;TEST FAILED IF PROGRAM HALTS HERE
 35861	052622	324 00 0 00 052623 		JUMPA	.+1		;IF TEST FAILS, CHANGE THIS INSTRUCTION (JUMPA .+1) TO
 35862									;JUMPA X (X IS THE ADDRESS OF THE FIRST INSTRUCTION
 35863									;IN THE SUBTEST) TO LOOP ON ERROR^
 35864
 35865					;**********
DFKAA PDP-10 KL10 BASIC INSTRUCTION DIAGNOSTIC (1) VER 0,2	MACRO %53B(1254)-4 11:50 11-Nov-24 Page 86
DFKAA5	MAC	13-Jan-89 10:22		TEST OF MSCL SOSX INSTRUCTIONS

 35866					;THIS TEST VERIFIES THAT SOSA DECREMENTS C(E) BY 0,,1 AND PLACES
 35867					;THE RESULT INTO E.  THE RESULT IN E IS COMPARED TO 0 AND ALWAYS SKIPS
 35868					;THE NEXT INSTRUCTION.
 35869					;IF THE AC IS NON-ZERO, THE RESULT IS ALSO PLACED INTO THEAC.
 35870					;IN THIS CASE, AC=6, C(AC)=707070,,707070 AND C(E)=0,,1
 35871					;BEFORE INCREMENTING.  HENCE, SOSA SHOULD BE 0 AND 0
 35872					;RESPECTIVELY.
 35873
 35874	052623	200 06 0 00 070332 	C55510:	MOVE	6,[707070,,707070]  ;PRELOAD AC WITH 707070,,707070
 35875	052624	201 07 0 00 000001 		MOVEI	7,1		;PRELOAD E WITH 0,,1
 35876	052625	374 06 0 00 000007 		SOSA	6,7		;*SOSA SHOULD SUBTRACT 0,,1 FROM C(E),
 35877									;UPDATE AC AND SKIP
 35878						STOP^
 35879	052626	254 04 0 00 052627 		HALT	.+1		;TEST FAILED IF PROGRAM HALTS HERE
 35880	052627	324 00 0 00 052630 		JUMPA	.+1		;IF TEST FAILS, CHANGE THIS INSTRUCTION (JUMPA .+1) TO
 35881									;JUMPA X (X IS THE ADDRESS OF THE FIRST INSTRUCTION
 35882									;IN THE SUBTEST) TO LOOP ON ERROR^
 35883	052630	312 07 0 00 070253 		CAME	7,[0]		;PASS IF E DECREMENTED CORRECTLY
 35884						STOP^
 35885	052631	254 04 0 00 052632 		HALT	.+1		;TEST FAILED IF PROGRAM HALTS HERE
 35886	052632	324 00 0 00 052633 		JUMPA	.+1		;IF TEST FAILS, CHANGE THIS INSTRUCTION (JUMPA .+1) TO
 35887									;JUMPA X (X IS THE ADDRESS OF THE FIRST INSTRUCTION
 35888									;IN THE SUBTEST) TO LOOP ON ERROR^
 35889	052633	312 06 0 00 070253 		CAME	6,[0]		;PASS IF AC WAS UPDATED IF AC NON-ZERO
 35890						STOP^
 35891	052634	254 04 0 00 052635 		HALT	.+1		;TEST FAILED IF PROGRAM HALTS HERE
 35892	052635	324 00 0 00 052636 		JUMPA	.+1		;IF TEST FAILS, CHANGE THIS INSTRUCTION (JUMPA .+1) TO
 35893									;JUMPA X (X IS THE ADDRESS OF THE FIRST INSTRUCTION
 35894									;IN THE SUBTEST) TO LOOP ON ERROR^
 35895
 35896					;**********
 35897
 35898					;THIS TEST VERIFIES THAT SOSA DECREMENTS C(E) BY 0,,1 AND PLACES
 35899					;THE RESULT INTO E.  THE RESULT IN E IS COMPARED TO 0 AND ALWAYS SKIPS
 35900					;THE NEXT INSTRUCTION.
 35901					;IF THE AC IS NON-ZERO, THE RESULT IS ALSO PLACED INTO THE AC.
 35902					;IN THIS CASE, AC=6, C(AC)=707070,,707070 AND C(E)=0,,2
 35903					;BEFORE INCREMENTING.  HENCE, SOSA SHOULD SKIP ; AND THE
 35904					;FINAL RESULTS IN AC AND E SHOULD BE 0,,1 AND 0,,1
 35905					;RESPECTIVELY.
 35906
 35907	052636	200 06 0 00 070332 	C55520:	MOVE	6,[707070,,707070] ;PRELOAD AC WITH 707070,,707070
 35908	052637	201 07 0 00 000002 		MOVEI	7,2		;PRELOAD E WITH 0,,2
 35909	052640	374 06 0 00 000007 		SOSA	6,7		;*SOSA SHOULD SUBTRACT 0,,1 FROM C(E),
 35910									;UPDATE AC AND SKIP
 35911						STOP^
 35912	052641	254 04 0 00 052642 		HALT	.+1		;TEST FAILED IF PROGRAM HALTS HERE
 35913	052642	324 00 0 00 052643 		JUMPA	.+1		;IF TEST FAILS, CHANGE THIS INSTRUCTION (JUMPA .+1) TO
 35914									;JUMPA X (X IS THE ADDRESS OF THE FIRST INSTRUCTION
 35915									;IN THE SUBTEST) TO LOOP ON ERROR^
 35916	052643	312 07 0 00 070265 		CAME	7,[1]		;PASS IF E DECREMENTED CORRECTLY
 35917						STOP^
 35918	052644	254 04 0 00 052645 		HALT	.+1		;TEST FAILED IF PROGRAM HALTS HERE
 35919	052645	324 00 0 00 052646 		JUMPA	.+1		;IF TEST FAILS, CHANGE THIS INSTRUCTION (JUMPA .+1) TO
 35920									;JUMPA X (X IS THE ADDRESS OF THE FIRST INSTRUCTION
DFKAA PDP-10 KL10 BASIC INSTRUCTION DIAGNOSTIC (1) VER 0,2	MACRO %53B(1254)-4 11:50 11-Nov-24 Page 86-1
DFKAA5	MAC	13-Jan-89 10:22		TEST OF MSCL SOSX INSTRUCTIONS

 35921									;IN THE SUBTEST) TO LOOP ON ERROR^
 35922	052646	312 06 0 00 070265 		CAME	6,[1]		;PASS IF AC WAS UPDATED IF AC NON-ZERO
 35923						STOP^
 35924	052647	254 04 0 00 052650 		HALT	.+1		;TEST FAILED IF PROGRAM HALTS HERE
 35925	052650	324 00 0 00 052651 		JUMPA	.+1		;IF TEST FAILS, CHANGE THIS INSTRUCTION (JUMPA .+1) TO
 35926									;JUMPA X (X IS THE ADDRESS OF THE FIRST INSTRUCTION
 35927									;IN THE SUBTEST) TO LOOP ON ERROR^
 35928
 35929					;**********
DFKAA PDP-10 KL10 BASIC INSTRUCTION DIAGNOSTIC (1) VER 0,2	MACRO %53B(1254)-4 11:50 11-Nov-24 Page 87
DFKAA5	MAC	13-Jan-89 10:22		TEST OF MSCL SOSX INSTRUCTIONS

 35930					;THIS TEST VERIFIES THAT SOSGE DECREMENTS C(E) BY 0,,1 AND PLACES
 35931					;THE RESULT INTO E.  THE RESULT IN E IS COMPARED TO 0 AND SKIPS
 35932					;THE NEXT INSTRUCTION IF C(E) IS GREATER THAN OR EQUAL TO 0.
 35933					;IF THE AC IS NON-ZERO, THE RESULT IS ALSO PLACED INTO THE AC.
 35934					;IN THIS CASE, AC=5, C(AC)=707070,,707070 AND C(E)=0
 35935					;BEFORE INCREMENTING.  HENCE, SOSGE SHOULD NOT SKIP ; AND THE
 35936					;FINAL RESULTS IN AC AND E SHOULD BE -1,,-1 AND -1,,-1
 35937					;RESPECTIVELY.
 35938
 35939	052651	200 05 0 00 070332 	C55600:	MOVE	5,[707070,,707070]  ;PRELOAD AC WITH 707070,,707070
 35940	052652	201 06 0 00 000000 		MOVEI	6,0		;PRELOAD E WITH 0
 35941	052653	375 05 0 00 000006 		SOSGE	5,6		;*SOSGE SHOULD SUBTRACT 0,,1 FROM C(E),
 35942									;UPDATE AC AND NOT SKIP
 35943	052654	334 00 0 00 000000 		SKIPA			;PASS IF SOSGE DID NOT SKIP
 35944						STOP^
 35945	052655	254 04 0 00 052656 		HALT	.+1		;TEST FAILED IF PROGRAM HALTS HERE
 35946	052656	324 00 0 00 052657 		JUMPA	.+1		;IF TEST FAILS, CHANGE THIS INSTRUCTION (JUMPA .+1) TO
 35947									;JUMPA X (X IS THE ADDRESS OF THE FIRST INSTRUCTION
 35948									;IN THE SUBTEST) TO LOOP ON ERROR^
 35949	052657	312 06 0 00 070254 		CAME	6,[-1]		;PASS IF E DECREMENTED CORRECTLY
 35950						STOP^
 35951	052660	254 04 0 00 052661 		HALT	.+1		;TEST FAILED IF PROGRAM HALTS HERE
 35952	052661	324 00 0 00 052662 		JUMPA	.+1		;IF TEST FAILS, CHANGE THIS INSTRUCTION (JUMPA .+1) TO
 35953									;JUMPA X (X IS THE ADDRESS OF THE FIRST INSTRUCTION
 35954									;IN THE SUBTEST) TO LOOP ON ERROR^
 35955	052662	312 05 0 00 070254 		CAME	5,[-1]		;PASS IF AC WAS UPDATED IF AC NON-ZERO
 35956						STOP^
 35957	052663	254 04 0 00 052664 		HALT	.+1		;TEST FAILED IF PROGRAM HALTS HERE
 35958	052664	324 00 0 00 052665 		JUMPA	.+1		;IF TEST FAILS, CHANGE THIS INSTRUCTION (JUMPA .+1) TO
 35959									;JUMPA X (X IS THE ADDRESS OF THE FIRST INSTRUCTION
 35960									;IN THE SUBTEST) TO LOOP ON ERROR^
 35961
 35962					;**********
 35963
 35964					;THIS TEST VERIFIES THAT SOSGE DECREMENTS C(E) BY 0,,1 AND PLACES
 35965					;THE RESULT INTO E.  THE RESULT IN E IS COMPARED TO 0 AND SKIPS
 35966					;THE NEXT INSTRUCTION IF C(E) IS GREATER THAN OR EQUAL TO 0.
 35967					;IF THE AC IS NON-ZERO, THE RESULT IS ALSO PLACED INTO THE AC.
 35968					;IN THIS CASE, AC=5, C(AC)=707070,,707070 AND C(E)=0,,1
 35969					;BEFORE INCREMENTING.  HENCE, SOSGE SHOULD SKIP ; AND THE
 35970					;FINAL RESULTS IN ACAND E SHOULD BE 0 AND 0
 35971					;RESPECTIVELY.
 35972
 35973	052665	200 05 0 00 070332 	C55610:	MOVE	5,[707070,,707070]  ;PRELOAD AC WITH 707070,,707070
 35974	052666	201 06 0 00 000001 		MOVEI	6,1		;PRELOAD E WITH 0,,1
 35975	052667	375 05 0 00 000006 		SOSGE	5,6		;*SOSGE SHOULD SUBTRACT 0,,1 FROM C(E),
 35976									;UPDATE AC AND SKIP
 35977						STOP^
 35978	052670	254 04 0 00 052671 		HALT	.+1		;TEST FAILED IF PROGRAM HALTS HERE
 35979	052671	324 00 0 00 052672 		JUMPA	.+1		;IF TEST FAILS, CHANGE THIS INSTRUCTION (JUMPA .+1) TO
 35980									;JUMPA X (X IS THE ADDRESS OF THE FIRST INSTRUCTION
 35981									;IN THE SUBTEST) TO LOOP ON ERROR^
 35982	052672	312 06 0 00 070253 		CAME	6,[0]		;PASS IF E DECREMENTED CORRECTLY
 35983						STOP^
 35984	052673	254 04 0 00 052674 		HALT	.+1		;TEST FAILED IF PROGRAM HALTS HERE
DFKAA PDP-10 KL10 BASIC INSTRUCTION DIAGNOSTIC (1) VER 0,2	MACRO %53B(1254)-4 11:50 11-Nov-24 Page 87-1
DFKAA5	MAC	13-Jan-89 10:22		TEST OF MSCL SOSX INSTRUCTIONS

 35985	052674	324 00 0 00 052675 		JUMPA	.+1		;IF TEST FAILS, CHANGE THIS INSTRUCTION (JUMPA .+1) TO
 35986									;JUMPA X (X IS THE ADDRESS OF THE FIRST INSTRUCTION
 35987									;IN THE SUBTEST) TO LOOP ON ERROR^
 35988	052675	312 05 0 00 070253 		CAME	5,[0]		;PASS IF AC WAS UPDATED IF AC NON-ZERO
 35989						STOP^
 35990	052676	254 04 0 00 052677 		HALT	.+1		;TEST FAILED IF PROGRAM HALTS HERE
 35991	052677	324 00 0 00 052700 		JUMPA	.+1		;IF TEST FAILS, CHANGE THIS INSTRUCTION (JUMPA .+1) TO
 35992									;JUMPA X (X IS THE ADDRESS OF THE FIRST INSTRUCTION
 35993									;IN THE SUBTEST) TO LOOP ON ERROR^
 35994
 35995					;**********
DFKAA PDP-10 KL10 BASIC INSTRUCTION DIAGNOSTIC (1) VER 0,2	MACRO %53B(1254)-4 11:50 11-Nov-24 Page 88
DFKAA5	MAC	13-Jan-89 10:22		TEST OF MSCL SOSX INSTRUCTIONS

 35996					;THIS TEST VERIFIES THAT SOSGE DECREMENTS C(E) BY 0,,1 AND PLACES
 35997					;THE RESULT INTO E.  THE RESULT IN E IS COMPARED TO 0 AND SKIPS
 35998					;THE NEXT INSTRUCTION IF C(E) IS GREATER THAN OR EQUAL TO 0
 35999					;IF THE AC IS NON-ZERO, THE RESULT IS ALSO PLACED INTO THE AC.
 36000					;IN THIS CASE, AC=5, C(AC)=707070,,707070 AND C(E)=0,,2
 36001					;BEFORE INCREMENTING.  HENCE, SOSGE SHOULD SKIP ; AND THE
 36002					;FINAL RESULTS IN AC AND E SHOULD BE 0,,1 AND 0,,1
 36003					;RESPECTIVELY.
 36004
 36005	052700	200 05 0 00 070332 	C55620:	MOVE	5,[707070,,707070] ;PRELOAD AC WITH 707070,,707070
 36006	052701	201 06 0 00 000002 		MOVEI	6,2		;PRELOAD E WITH 0,,2
 36007	052702	375 05 0 00 000006 		SOSGE	5,6		;*SOSGE SHOULD SUBTRACT 0,,1 FROM C(E),
 36008									;UPDATE AC AND SKIP
 36009						STOP^
 36010	052703	254 04 0 00 052704 		HALT	.+1		;TEST FAILED IF PROGRAM HALTS HERE
 36011	052704	324 00 0 00 052705 		JUMPA	.+1		;IF TEST FAILS, CHANGE THIS INSTRUCTION (JUMPA .+1) TO
 36012									;JUMPA X (X IS THE ADDRESS OF THE FIRST INSTRUCTION
 36013									;IN THE SUBTEST) TO LOOP ON ERROR^
 36014	052705	312 06 0 00 070265 		CAME	6,[1]		;PASS IF E DECREMENTED CORRECTLY
 36015						STOP^
 36016	052706	254 04 0 00 052707 		HALT	.+1		;TEST FAILED IF PROGRAM HALTS HERE
 36017	052707	324 00 0 00 052710 		JUMPA	.+1		;IF TEST FAILS, CHANGE THIS INSTRUCTION (JUMPA .+1) TO
 36018									;JUMPA X (X IS THE ADDRESS OF THE FIRST INSTRUCTION
 36019									;IN THE SUBTEST) TO LOOP ON ERROR^
 36020	052710	312 05 0 00 070265 		CAME	5,[1]		;PASS IF AC WAS UPDATED IF AC NON-ZERO
 36021						STOP^
 36022	052711	254 04 0 00 052712 		HALT	.+1		;TEST FAILED IF PROGRAM HALTS HERE
 36023	052712	324 00 0 00 052713 		JUMPA	.+1		;IF TEST FAILS, CHANGE THIS INSTRUCTION (JUMPA .+1) TO
 36024									;JUMPA X (X IS THE ADDRESS OF THE FIRST INSTRUCTION
 36025									;IN THE SUBTEST) TO LOOP ON ERROR^
 36026
 36027					;**********
 36028
 36029					;THIS TEST VERIFIES SOSN DECREMENTS C(E) BY 0,,1 AND PLACES
 36030					;THE RESULT INTO E.  THE RESULT IN E IS COMPARED TO 0 AND SKIPS
 36031					;THE NEXT INSTRUCTION IF C(E) IS NON-ZERO
 36032					;IF THE AC IS NON-ZERO, THE RESULT IS ALSO PLACED INTO THE AC.
 36033					;IN THIS CASE, AC=4, C(AC)=707070,,707070 AND C(E)=0
 36034					;BEFORE INCREMENTING.  HENCE, SOSN SHOULD SKIP ; AND THE
 36035					;FINAL RESULTS IN AC AND E SHOULD BE -1,,-1 AND -1,,-1
 36036					;RESPECTIVELY.
 36037
 36038	052713	200 04 0 00 070332 	C55700:	MOVE	4,[707070,,707070]  ;PRELOAD AC WITH 707070,,707070
 36039	052714	201 05 0 00 000000 		MOVEI	5,0		;PRELOAD E WITH 0
 36040	052715	376 04 0 00 000005 		SOSN	4,5		;*SOSN SHOULD SUBTRACT 0,,1 FROM C(E),
 36041									;UPDATE AC AND SKIP
 36042						STOP^
 36043	052716	254 04 0 00 052717 		HALT	.+1		;TEST FAILED IF PROGRAM HALTS HERE
 36044	052717	324 00 0 00 052720 		JUMPA	.+1		;IF TEST FAILS, CHANGE THIS INSTRUCTION (JUMPA .+1) TO
 36045									;JUMPA X (X IS THE ADDRESS OF THE FIRST INSTRUCTION
 36046									;IN THE SUBTEST) TO LOOP ON ERROR^
 36047	052720	312 05 0 00 070254 		CAME	5,[-1]		;PASS IF E DECREMENTED CORRECTLY
 36048						STOP^
 36049	052721	254 04 0 00 052722 		HALT	.+1		;TEST FAILED IF PROGRAM HALTS HERE
 36050	052722	324 00 0 00 052723 		JUMPA	.+1		;IF TEST FAILS, CHANGE THIS INSTRUCTION (JUMPA .+1) TO
DFKAA PDP-10 KL10 BASIC INSTRUCTION DIAGNOSTIC (1) VER 0,2	MACRO %53B(1254)-4 11:50 11-Nov-24 Page 88-1
DFKAA5	MAC	13-Jan-89 10:22		TEST OF MSCL SOSX INSTRUCTIONS

 36051									;JUMPA X (X IS THE ADDRESS OF THE FIRST INSTRUCTION
 36052									;IN THE SUBTEST) TO LOOP ON ERROR^
 36053	052723	312 04 0 00 070254 		CAME	4,[-1]		;PASS IF AC WAS UPDATED IF AC NON-ZERO
 36054						STOP^
 36055	052724	254 04 0 00 052725 		HALT	.+1		;TEST FAILED IF PROGRAM HALTS HERE
 36056	052725	324 00 0 00 052726 		JUMPA	.+1		;IF TEST FAILS, CHANGE THIS INSTRUCTION (JUMPA .+1) TO
 36057									;JUMPA X (X IS THE ADDRESS OF THE FIRST INSTRUCTION
 36058									;IN THE SUBTEST) TO LOOP ON ERROR^
 36059
 36060					;**********
DFKAA PDP-10 KL10 BASIC INSTRUCTION DIAGNOSTIC (1) VER 0,2	MACRO %53B(1254)-4 11:50 11-Nov-24 Page 89
DFKAA5	MAC	13-Jan-89 10:22		TEST OF MSCL SOSX INSTRUCTIONS

 36061					;THIS TEST VERIFIES THAT SOSN DECREMENTS C(E) BY 0,,1 AND PLACES
 36062					;THE RESULT INTO E.  THE RESULT IN E IS COMPARED TO 0 AND SKIPS
 36063					;THE NEXT INSTRUCTION IF C(E) IS NON-ZERO
 36064					;IF THE AC IS NON-ZERO, THE RESULT IS ALSO PLACED INTO THE AC
 36065					;IN THIS CASE, AC=4, C(AC)=707070,,707070 AND C(E)=0,,1
 36066					;BEFORE INCREMENTING.  HENCE, SOSN SHOULD NOT SKIP ; AND THE
 36067					;FINAL RESULTS IN AC AND E SHOULD BE 0 AND 0
 36068					;RESPECTIVELY.
 36069
 36070	052726	200 04 0 00 070332 	C55710:	MOVE	4,[707070,,707070]  ;PRELOAD AC WITH 707070,,707070
 36071	052727	201 05 0 00 000001 		MOVEI	5,1		;PRELOAD E WITH 0,,1
 36072	052730	376 04 0 00 000005 		SOSN	4,5		;*SOSN SHOULD SUBTRACT 0,,1 FROM C(E),
 36073									;UPDATE AC AND NOT SKIP
 36074	052731	334 00 0 00 000000 		SKIPA			;PASS IF SOSN DID NOT SKIP
 36075						STOP^
 36076	052732	254 04 0 00 052733 		HALT	.+1		;TEST FAILED IF PROGRAM HALTS HERE
 36077	052733	324 00 0 00 052734 		JUMPA	.+1		;IF TEST FAILS, CHANGE THIS INSTRUCTION (JUMPA .+1) TO
 36078									;JUMPA X (X IS THE ADDRESS OF THE FIRST INSTRUCTION
 36079									;IN THE SUBTEST) TO LOOP ON ERROR^
 36080	052734	312 05 0 00 070253 		CAME	5,[0]		;PASS IF E DECREMENTED CORRECTLY
 36081						STOP^
 36082	052735	254 04 0 00 052736 		HALT	.+1		;TEST FAILED IF PROGRAM HALTS HERE
 36083	052736	324 00 0 00 052737 		JUMPA	.+1		;IF TEST FAILS, CHANGE THIS INSTRUCTION (JUMPA .+1) TO
 36084									;JUMPA X (X IS THE ADDRESS OF THE FIRST INSTRUCTION
 36085									;IN THE SUBTEST) TO LOOP ON ERROR^
 36086	052737	312 04 0 00 070253 		CAME	4,[0]		;PASS IF AC WAS UPDATED IF AC NON-ZERO
 36087						STOP^
 36088	052740	254 04 0 00 052741 		HALT	.+1		;TEST FAILED IF PROGRAM HALTS HERE
 36089	052741	324 00 0 00 052742 		JUMPA	.+1		;IF TEST FAILS, CHANGE THIS INSTRUCTION (JUMPA .+1) TO
 36090									;JUMPA X (X IS THE ADDRESS OF THE FIRST INSTRUCTION
 36091									;IN THE SUBTEST) TO LOOP ON ERROR^
 36092
 36093					;**********
 36094
 36095					;THIS TEST VERIFIES THAT SOSN DECREMENTS C(E) BY 0,,1 AND PLACES
 36096					;THE RESULT INTO E.  THE RESULT IN E IS COMPARED TO 0 AND SKIPS
 36097					;THE NEXT INSTRUCTION IF C(E) IS NON-ZERO
 36098					;IF THE AC IS NON-ZERO, THE RESULT IS ALSO PLACED INTO THE AC.
 36099					;INtTHIS CASE, AC=4, C(AC)=707070,,707070 AND C(E)=0,,2
 36100					;BEFORE INCREMENTING.  HENCE, SOSN SHOULD SKIP ; AND THE
 36101					;FINAL RESULTS IN AC AND E SHOULD BE 0,,1 AND 0,,1
 36102					;RESPECTIVELY
 36103
 36104	052742	200 04 0 00 070332 	C55720:	MOVE	4,[707070,,707070]  ;PRELOAD AC WITH 707070,,707070
 36105	052743	201 05 0 00 000002 		MOVEI	5,2		;PRELOAD E WITH 0,,2
 36106	052744	376 04 0 00 000005 		SOSN	4,5		;*SOSN SHOULD SUBTRACT 0,,1 FROM C(E),
 36107									;UPDATE AC AND SKIP
 36108						STOP^
 36109	052745	254 04 0 00 052746 		HALT	.+1		;TEST FAILED IF PROGRAM HALTS HERE
 36110	052746	324 00 0 00 052747 		JUMPA	.+1		;IF TEST FAILS, CHANGE THIS INSTRUCTION (JUMPA .+1) TO
 36111									;JUMPA X (X IS THE ADDRESS OF THE FIRST INSTRUCTION
 36112									;IN THE SUBTEST) TO LOOP ON ERROR^
 36113	052747	312 05 0 00 070265 		CAME	5,[1]		;PASS IF E DECREMENTED CORRECTLY
 36114						STOP^
 36115	052750	254 04 0 00 052751 		HALT	.+1		;TEST FAILED IF PROGRAM HALTS HERE
DFKAA PDP-10 KL10 BASIC INSTRUCTION DIAGNOSTIC (1) VER 0,2	MACRO %53B(1254)-4 11:50 11-Nov-24 Page 89-1
DFKAA5	MAC	13-Jan-89 10:22		TEST OF MSCL SOSX INSTRUCTIONS

 36116	052751	324 00 0 00 052752 		JUMPA	.+1		;IF TEST FAILS, CHANGE THIS INSTRUCTION (JUMPA .+1) TO
 36117									;JUMPA X (X IS THE ADDRESS OF THE FIRST INSTRUCTION
 36118									;IN THE SUBTEST) TO LOOP ON ERROR^
 36119	052752	312 04 0 00 070265 		CAME	4,[1]		;PASS IF ACWAS UPDATED IF AC NON-ZERO
 36120						STOP^
 36121	052753	254 04 0 00 052754 		HALT	.+1		;TEST FAILED IF PROGRAM HALTS HERE
 36122	052754	324 00 0 00 052755 		JUMPA	.+1		;IF TEST FAILS, CHANGE THIS INSTRUCTION (JUMPA .+1) TO
 36123									;JUMPA X (X IS THE ADDRESS OF THE FIRST INSTRUCTION
 36124									;IN THE SUBTEST) TO LOOP ON ERROR^
 36125
 36126					;**********
DFKAA PDP-10 KL10 BASIC INSTRUCTION DIAGNOSTIC (1) VER 0,2	MACRO %53B(1254)-4 11:50 11-Nov-24 Page 90
DFKAA5	MAC	13-Jan-89 10:22		TEST OF MSCL SOSX INSTRUCTIONS

 36127					;THIS TEST VERIFIESTHAT SOSG DECREMENTS C(E) BY 0,,1 AND PLACES
 36128					;THE RESULT INTO E.  THE RESULT IN E IS COMPARED TO 0 AND SKIPS
 36129					;THE NEXT INSTRUCTION IF C(E) IS GREATER THAN 0
 36130					;IF THE AC IS NON-ZERO, THE RESULT IS ALSO PLACED INTO THE AC.
 36131					;IN THIS CASE, AC=3, C(AC)=707070,,707070 AND C(E)=0
 36132					;BEFORE INCREMENTING.  HENCE, SOSG SHOULD NOT SKIP ; AND THE
 36133					;FINAL RESULTS IN AC AND E SHOULD BE -1,,-1 AND -1,,-1
 36134					;RESPECTIVELY.
 36135
 36136	052755	200 03 0 00 070332 	C56000:	MOVE	3,[707070,,707070]  ;PRELOAD AC WITH 707070,,707070
 36137	052756	201 04 0 00 000000 		MOVEI	4,0		;PRELOAD E WITH 0
 36138	052757	377 03 0 00 000004 		SOSG	3,4		;*SOSG SHOULD SUBTRACT 0,,1 FROM C(E),
 36139									;UPDATE AC AND NOT SKIP
 36140	052760	334 00 0 00 000000 		SKIPA			;PASS IF SOSG DID NOT SKIP
 36141						STOP^
 36142	052761	254 04 0 00 052762 		HALT	.+1		;TEST FAILED IF PROGRAM HALTS HERE
 36143	052762	324 00 0 00 052763 		JUMPA	.+1		;IF TEST FAILS, CHANGE THIS INSTRUCTION (JUMPA .+1) TO
 36144									;JUMPA X (X IS THE ADDRESS OF THE FIRST INSTRUCTION
 36145									;IN THE SUBTEST) TO LOOP ON ERROR^
 36146	052763	312 04 0 00 070254 		CAME	4,[-1]		;PASS IF E DECREMENTED CORRECTLY
 36147						STOP^
 36148	052764	254 04 0 00 052765 		HALT	.+1		;TEST FAILED IF PROGRAM HALTS HERE
 36149	052765	324 00 0 00 052766 		JUMPA	.+1		;IF TEST FAILS, CHANGE THIS INSTRUCTION (JUMPA .+1) TO
 36150									;JUMPA X (X IS THE ADDRESS OF THE FIRST INSTRUCTION
 36151									;IN THE SUBTEST) TO LOOP ON ERROR^
 36152	052766	312 03 0 00 070254 		CAME	3,[-1]		;PASS IF AC WAS UPDATED IF AC NON-ZERO
 36153						STOP^
 36154	052767	254 04 0 00 052770 		HALT	.+1		;TEST FAILED IF PROGRAM HALTS HERE
 36155	052770	324 00 0 00 052771 		JUMPA	.+1		;IF TEST FAILS, CHANGE THIS INSTRUCTION (JUMPA .+1) TO
 36156									;JUMPA X (X IS THE ADDRESS OF THE FIRST INSTRUCTION
 36157									;IN THE SUBTEST) TO LOOP ON ERROR^
 36158
 36159					;**********
 36160
 36161					;THIS TEST VERIFIES THAT SOSG DECREMENTS C(E) BY 0,,1 AND PLACES
 36162					;THE RESULT INTO E.  THE RESULT IN E IS COMPARED TO 0 AND SKIPS
 36163					;THE NEXT INSTRUCTION IF C(E) IS GREATER THAN 0.
 36164					;IF THE AC IS NON-ZERO, THE RESULT IS ALSO PLACED INTO THE AC.
 36165					;IN THIS CASE, AC=3, C(AC)=707070,,707070 AND C(E)=0,,1
 36166					;BEFORE INCREMENTING.  HENCE, SOSG SHOULD NOT SKIP ; AND THE
 36167					;FINAL RESULTS IN AC AND E SHOULD BE 0 AND 0
 36168					;RESPECTIVELY.
 36169
 36170	052771	200 03 0 00 070332 	C56010:	MOVE	3,[707070,,707070]  ;PRELOAD AC WITH 707070,,707070
 36171	052772	201 04 0 00 000001 		MOVEI	4,1		;PRELOAD E WITH 0,,1
 36172	052773	377 03 0 00 000004 		SOSG	3,4		;*SOSG SHOULD SUBTRACT 0,,1 FROM C(E),
 36173									;UPDATE AC AND NOT SKIP
 36174	052774	334 00 0 00 000000 		SKIPA			;PASS IF SOSG DID NOT SKIP
 36175						STOP^
 36176	052775	254 04 0 00 052776 		HALT	.+1		;TEST FAILED IF PROGRAM HALTS HERE
 36177	052776	324 00 0 00 052777 		JUMPA	.+1		;IF TEST FAILS, CHANGE THIS INSTRUCTION (JUMPA .+1) TO
 36178									;JUMPA X (X IS THE ADDRESS OF THE FIRST INSTRUCTION
 36179									;IN THE SUBTEST) TO LOOP ON ERROR^
 36180	052777	312 04 0 00 070253 		CAME	4,[0]		;PASS IF E DECREMENTED CORRECTLY
 36181						STOP^
DFKAA PDP-10 KL10 BASIC INSTRUCTION DIAGNOSTIC (1) VER 0,2	MACRO %53B(1254)-4 11:50 11-Nov-24 Page 90-1
DFKAA5	MAC	13-Jan-89 10:22		TEST OF MSCL SOSX INSTRUCTIONS

 36182	053000	254 04 0 00 053001 		HALT	.+1		;TEST FAILED IF PROGRAM HALTS HERE
 36183	053001	324 00 0 00 053002 		JUMPA	.+1		;IF TEST FAILS, CHANGE THIS INSTRUCTION (JUMPA .+1) TO
 36184									;JUMPA X (X IS THE ADDRESS OF THE FIRST INSTRUCTION
 36185									;IN THE SUBTEST) TO LOOP ON ERROR^
 36186	053002	312 03 0 00 070253 		CAME	3,[0]		;PASS IF AC WAS UPDATED IS AC NON-ZERO
 36187						STOP^
 36188	053003	254 04 0 00 053004 		HALT	.+1		;TEST FAILED IF PROGRAM HALTS HERE
 36189	053004	324 00 0 00 053005 		JUMPA	.+1		;IF TEST FAILS, CHANGE THIS INSTRUCTION (JUMPA .+1) TO
 36190									;JUMPA X (X IS THE ADDRESS OF THE FIRST INSTRUCTION
 36191									;IN THE SUBTEST) TO LOOP ON ERROR^
 36192
 36193					;**********
DFKAA PDP-10 KL10 BASIC INSTRUCTION DIAGNOSTIC (1) VER 0,2	MACRO %53B(1254)-4 11:50 11-Nov-24 Page 91
DFKAA5	MAC	13-Jan-89 10:22		TEST OF MSCL SOSX INSTRUCTIONS

 36194					;THIS TEST VERIFIES THAT SOSG DECREMENTS C(E) BY 0,,1 AND PLACES
 36195					;THE RESULT INTO E.  THE RESULT IN E IS COMPARED TO 0 AND SKIPS
 36196					;THE NEXT INSTRUCTION IF C(E) IS GREATER THAN 0
 36197					;IF THE AC IS NON-ZERO, THE RESULT IS ALSO PLACED INTO THE AC.
 36198					;IN THIS CASE, AC=3, C(AC)=707070,,707070 AND C(E)=0,,2
 36199					;BEFORE INCREMENTING.  HENCE, SOSG SHOULD SKIP ; AND THE
 36200					;FINAL RESULTS IN AC AND E SHOULD BE 0,,1 AND 011,
 36201					;RESPECTIVELY.
 36202
 36203	053005	200 03 0 00 070332 	C56020:	MOVE	3,[707070,,707070]  ;PRELOAD AC WITH 707070,,707070
 36204	053006	201 04 0 00 000002 		MOVEI	4,2		;PRELOAD E WITH 0,,2
 36205	053007	377 03 0 00 000004 		SOSG	3,4		;*SOSG SHOULD SUBTRACT 0,,1 FROM C(E),
 36206									;UPDATE AC AND SKIP
 36207						STOP^
 36208	053010	254 04 0 00 053011 		HALT	.+1		;TEST FAILED IF PROGRAM HALTS HERE
 36209	053011	324 00 0 00 053012 		JUMPA	.+1		;IF TEST FAILS, CHANGE THIS INSTRUCTION (JUMPA .+1) TO
 36210									;JUMPA X (X IS THE ADDRESS OF THE FIRST INSTRUCTION
 36211									;IN THE SUBTEST) TO LOOP ON ERROR^
 36212	053012	312 04 0 00 070265 		CAME	4,[1]		;PASS IF E DECREMENTED CORRECTLY
 36213						STOP^
 36214	053013	254 04 0 00 053014 		HALT	.+1		;TEST FAILED IF PROGRAM HALTS HERE
 36215	053014	324 00 0 00 053015 		JUMPA	.+1		;IF TEST FAILS, CHANGE THIS INSTRUCTION (JUMPA .+1) TO
 36216									;JUMPA X (X IS THE ADDRESS OF THE FIRST INSTRUCTION
 36217									;IN THE SUBTEST) TO LOOP ON ERROR^
 36218	053015	312 03 0 00 070265 		CAME	3,[1]		;PASS IF AC WAS UPDATED IF AC NON-ZERO
 36219						STOP^
 36220	053016	254 04 0 00 053017 		HALT	.+1		;TEST FAILED IF PROGRAM HALTS HERE
 36221	053017	324 00 0 00 053020 		JUMPA	.+1		;IF TEST FAILS, CHANGE THIS INSTRUCTION (JUMPA .+1) TO
 36222									;JUMPA X (X IS THE ADDRESS OF THE FIRST INSTRUCTION
 36223									;IN THE SUBTEST) TO LOOP ON ERROR^
 36224
 36225					;**********
DFKAA PDP-10 KL10 BASIC INSTRUCTION DIAGNOSTIC (1) VER 0,2	MACRO %53B(1254)-4 11:50 11-Nov-24 Page 1
DFKAA6	MAC	13-Jan-89 10:22		TEST OF MSCL BOOLEAN INSTRUCTIONS

 36226					SUBTTL	TEST OF MSCL BOOLEAN INSTRUCTIONS
 36227
 36228					;**********
 36229
 36230					;THIS TEST VERIFIES THAT SETZI CLEARS THE AC AND DOES NOT AFFECT E.
 36231					;FIRST, AC AND E ARE PRELOADED WITH -1,,-1, THEN, SETZI IS EXECUTED.
 36232					;AC IS THEN CHECKED FOR 0 AND E IS CHECKED FOR -1,,-1
 36233
 36234	053020	474 01 0 00 000000 	C56100:	SETO	1,		;PRELOAD AC WITH -1,,-1
 36235	053021	474 02 0 00 000000 		SETO	2,		;PRELOAD E WITH -1,,-1
 36236	053022	401 01 0 00 000002 		SETZI	1,2		;*SETZI SHOULD CLEAR THE AC
 36237	053023	332 00 0 00 000001 		SKIPE	1		;PASS IF C(AC)=0
 36238						STOP^
 36239	053024	254 04 0 00 053025 		HALT	.+1		;TEST FAILED IF PROGRAM HALTS HERE
 36240	053025	324 00 0 00 053026 		JUMPA	.+1		;IF TEST FAILS, CHANGE THIS INSTRUCTION (JUMPA .+1) TO
 36241									;JUMPA X (X IS THE ADDRESS OF THE FIRST INSTRUCTION
 36242									;IN THE SUBTEST) TO LOOP ON ERROR^
 36243	053026	312 02 0 00 070254 		CAME	2,[-1]		;PASS IF C(E)=-1,,-1
 36244						STOP^
 36245	053027	254 04 0 00 053030 		HALT	.+1		;TEST FAILED IF PROGRAM HALTS HERE
 36246	053030	324 00 0 00 053031 		JUMPA	.+1		;IF TEST FAILS, CHANGE THIS INSTRUCTION (JUMPA .+1) TO
 36247									;JUMPA X (X IS THE ADDRESS OF THE FIRST INSTRUCTION
 36248									;IN THE SUBTEST) TO LOOP ON ERROR^
 36249
 36250					;**********
 36251
 36252					;THIS TEST VERIFIES THAT SETZM CLEARS C(E) AND DOES NOT AFFECT C(AC)
 36253					;FIRST, AC AND E ARE PRELOADED WITH -1,,-1; THEN SETZM IS EXECUTED.
 36254					;AC IS THEN CHECKED FOR -1,,-1 AND E IS CHECKED FOR 0.
 36255
 36256	053031	474 01 0 00 000000 	C56200:	SETO	1,		;PRELOAD AC WITH -1,,-1
 36257	053032	474 02 0 00 000000 		SETO	2,		;PRELOAD E WITH -1,,-1
 36258	053033	402 01 0 00 000002 		SETZM	1,2		;*SETZM SHOULD CLEAR E
 36259	053034	312 01 0 00 070254 		CAME	1,[-1]		;PASS IF C(AC)=-1,,-1
 36260						STOP^
 36261	053035	254 04 0 00 053036 		HALT	.+1		;TEST FAILED IF PROGRAM HALTS HERE
 36262	053036	324 00 0 00 053037 		JUMPA	.+1		;IF TEST FAILS, CHANGE THIS INSTRUCTION (JUMPA .+1) TO
 36263									;JUMPA X (X IS THE ADDRESS OF THE FIRST INSTRUCTION
 36264									;IN THE SUBTEST) TO LOOP ON ERROR^
 36265	053037	332 00 0 00 000002 		SKIPE	2		;PASS IF C(E)=0
 36266						STOP^
 36267	053040	254 04 0 00 053041 		HALT	.+1		;TEST FAILED IF PROGRAM HALTS HERE
 36268	053041	324 00 0 00 053042 		JUMPA	.+1		;IF TEST FAILS, CHANGE THIS INSTRUCTION (JUMPA .+1) TO
 36269									;JUMPA X (X IS THE ADDRESS OF THE FIRST INSTRUCTION
 36270									;IN THE SUBTEST) TO LOOP ON ERROR^
 36271
 36272					;**********
DFKAA PDP-10 KL10 BASIC INSTRUCTION DIAGNOSTIC (1) VER 0,2	MACRO %53B(1254)-4 11:50 11-Nov-24 Page 2
DFKAA6	MAC	13-Jan-89 10:22		TEST OF MSCL BOOLEAN INSTRUCTIONS

 36273					;THIS TEST VERIFIES THAT SETOI PLACES ALL ONES INTO THE AC.
 36274					;FIRST, THE AC AND E ARE CLEARED; THEN, SETOI IS EXECUTED.
 36275					;AC AND E ARE CHECKED FOR -1,,-1 AND 0 RESPECTIVELY
 36276
 36277	053042	403 01 0 00 000002 	C56300:	SETZB	1,2		;CLEAR AC,E
 36278	053043	475 01 0 00 000002 		SETOI	1,2		;*SETOI SHOULD PLACE -1,,-1 INTO THE AC
 36279	053044	312 01 0 00 070254 		CAME	1,[-1]		;PASS IF C(AC)=-1,,-1
 36280						STOP^
 36281	053045	254 04 0 00 053046 		HALT	.+1		;TEST FAILED IF PROGRAM HALTS HERE
 36282	053046	324 00 0 00 053047 		JUMPA	.+1		;IF TEST FAILS, CHANGE THIS INSTRUCTION (JUMPA .+1) TO
 36283									;JUMPA X (X IS THE ADDRESS OF THE FIRST INSTRUCTION
 36284									;IN THE SUBTEST) TO LOOP ON ERROR^
 36285	053047	332 00 0 00 000002 		SKIPE	2		;PASS IF C(E)=0
 36286						STOP^
 36287	053050	254 04 0 00 053051 		HALT	.+1		;TEST FAILED IF PROGRAM HALTS HERE
 36288	053051	324 00 0 00 053052 		JUMPA	.+1		;IF TEST FAILS, CHANGE THIS INSTRUCTION (JUMPA .+1) TO
 36289									;JUMPA X (X IS THE ADDRESS OF THE FIRST INSTRUCTION
 36290									;IN THE SUBTEST) TO LOOP ON ERROR^
 36291
 36292					;**********
 36293
 36294					;THIS TEST VERIFIES THAT SETOM PLACES ALL ONES INTO E
 36295					;FIRST, THE AC AND E ARE CLEARED, THEN SETOM IS EXECUTED.
 36296					;AC AND E ARE THEN CHECKED FOR 0 AND -1,,-1 RESPECTIVELY.
 36297
 36298	053052	403 01 0 00 000002 	C56400:	SETZB	1,2		;CLEAR AC,E
 36299	053053	476 01 0 00 000002 		SETOM	1,2		;*SETOM SHOULD PLACE -1,,-1 INTO E
 36300	053054	332 00 0 00 000001 		SKIPE	1		;PASS IF C(AC)=0
 36301						STOP^
 36302	053055	254 04 0 00 053056 		HALT	.+1		;TEST FAILED IF PROGRAM HALTS HERE
 36303	053056	324 00 0 00 053057 		JUMPA	.+1		;IF TEST FAILS, CHANGE THIS INSTRUCTION (JUMPA .+1) TO
 36304									;JUMPA X (X IS THE ADDRESS OF THE FIRST INSTRUCTION
 36305									;IN THE SUBTEST) TO LOOP ON ERROR^
 36306	053057	312 02 0 00 070254 		CAME	2,[-1]		;PASS IF C(E)=-1,,-1
 36307						STOP^
 36308	053060	254 04 0 00 053061 		HALT	.+1		;TEST FAILED IF PROGRAM HALTS HERE
 36309	053061	324 00 0 00 053062 		JUMPA	.+1		;IF TEST FAILS, CHANGE THIS INSTRUCTION (JUMPA .+1) TO
 36310									;JUMPA X (X IS THE ADDRESS OF THE FIRST INSTRUCTION
 36311									;IN THE SUBTEST) TO LOOP ON ERROR^
 36312
 36313					;**********
DFKAA PDP-10 KL10 BASIC INSTRUCTION DIAGNOSTIC (1) VER 0,2	MACRO %53B(1254)-4 11:50 11-Nov-24 Page 3
DFKAA6	MAC	13-Jan-89 10:22		TEST OF MSCL BOOLEAN INSTRUCTIONS

 36314					;THIS TEST VERIFIES THAT SETOB PLACES ALL ONES INTO BOTH AC AND E.
 36315					;FIRST, BOTH AC AND E ARE CLEARED; THEN, SETOB IS EXECUTED.
 36316					;AC AND E ARE BOTH CHECKED FOR -1,,-1
 36317
 36318	053062	403 01 0 00 000002 	C56500:	SETZB	1,2		;CLEAR AC,E
 36319	053063	477 01 0 00 000002 		SETOB	1,2		;*SETOB SHOULD PUT -1,,-1 INTO BOTH AC AND E
 36320	053064	312 01 0 00 070254 		CAME	1,[-1]		;PASS IF C(AC)=-1,,-1
 36321						STOP^
 36322	053065	254 04 0 00 053066 		HALT	.+1		;TEST FAILED IF PROGRAM HALTS HERE
 36323	053066	324 00 0 00 053067 		JUMPA	.+1		;IF TEST FAILS, CHANGE THIS INSTRUCTION (JUMPA .+1) TO
 36324									;JUMPA X (X IS THE ADDRESS OF THE FIRST INSTRUCTION
 36325									;IN THE SUBTEST) TO LOOP ON ERROR^
 36326	053067	312 02 0 00 070254 		CAME	2,[-1]		;PASS IF C(E)=-1,,-1
 36327						STOP^
 36328	053070	254 04 0 00 053071 		HALT	.+1		;TEST FAILED IF PROGRAM HALTS HERE
 36329	053071	324 00 0 00 053072 		JUMPA	.+1		;IF TEST FAILS, CHANGE THIS INSTRUCTION (JUMPA .+1) TO
 36330									;JUMPA X (X IS THE ADDRESS OF THE FIRST INSTRUCTION
 36331									;IN THE SUBTEST) TO LOOP ON ERROR^
 36332
 36333					;**********
 36334
 36335					;THIS TEST VERIFIES THAT ANDI PLACES THE LOGICAL AND FUNCTION
 36336					;OF C(AC) AND 0,,E INTO THE AC.
 36337					;IN THIS CASE, C(AC)=777000,,707070 AND E=0,,123123.
 36338					;HENCE, THE RESULT IN THE AC SHOULD BE 0,,103103
 36339
 36340	053072	200 01 0 00 070640 	C56600:	MOVE	1,[777000,,707070]	;PRELOAD AC WITH 777000,,707070
 36341	053073	405 01 0 00 123123 		ANDI	1,123123	;*ANDI SHOULD PLACE 0,,103103 INTO THE AC
 36342	053074	302 01 0 00 103020 		CAIE	1,103020	;PASS IF C(AC)=103103
 36343						STOP^
 36344	053075	254 04 0 00 053076 		HALT	.+1		;TEST FAILED IF PROGRAM HALTS HERE
 36345	053076	324 00 0 00 053077 		JUMPA	.+1		;IF TEST FAILS, CHANGE THIS INSTRUCTION (JUMPA .+1) TO
 36346									;JUMPA X (X IS THE ADDRESS OF THE FIRST INSTRUCTION
 36347									;IN THE SUBTEST) TO LOOP ON ERROR^
 36348
 36349					;**********
DFKAA PDP-10 KL10 BASIC INSTRUCTION DIAGNOSTIC (1) VER 0,2	MACRO %53B(1254)-4 11:50 11-Nov-24 Page 4
DFKAA6	MAC	13-Jan-89 10:22		TEST OF MSCL BOOLEAN INSTRUCTIONS

 36350					;THIS TEST VERIFIES THAT ANDM PLACES THE LOGICAL AND FUNCTION OF
 36351					;C(AC) AND C(E) INTO E.
 36352					;IN THIS CASE, C(AC)=777000,,000777 AND C(E)=123456,,123456.
 36353					;HENCE, THE RESULTS IN AC AND E SHOULD BE 777000,,000777 AND
 36354					;123000,,00456 RESPECTIVELY
 36355
 36356	053077	200 01 0 00 070641 	C56700:	MOVE	1,[777000,,777]	;PRELOAD E WITH 777000,,000777
 36357	053100	200 02 0 00 070637 		MOVE	2,[123456,,123456]	;PRELOAD AC WITH 123456,,123456
 36358	053101	406 02 0 00 000001 		ANDM	2,1		;*ANDM SHOULD PLACE 123000,,000456 INTO E
 36359	053102	312 02 0 00 070637 		CAME	2,[123456,,123456]	;PASS IF C(AC) NOT MODIFIED
 36360						STOP^
 36361	053103	254 04 0 00 053104 		HALT	.+1		;TEST FAILED IF PROGRAM HALTS HERE
 36362	053104	324 00 0 00 053105 		JUMPA	.+1		;IF TEST FAILS, CHANGE THIS INSTRUCTION (JUMPA .+1) TO
 36363									;JUMPA X (X IS THE ADDRESS OF THE FIRST INSTRUCTION
 36364									;IN THE SUBTEST) TO LOOP ON ERROR^
 36365	053105	312 01 0 00 070642 		CAME	1,[123000,,000456]	;PASS IF C(E)=123000,,000456
 36366						STOP^
 36367	053106	254 04 0 00 053107 		HALT	.+1		;TEST FAILED IF PROGRAM HALTS HERE
 36368	053107	324 00 0 00 053110 		JUMPA	.+1		;IF TEST FAILS, CHANGE THIS INSTRUCTION (JUMPA .+1) TO
 36369									;JUMPA X (X IS THE ADDRESS OF THE FIRST INSTRUCTION
 36370									;IN THE SUBTEST) TO LOOP ON ERROR^
 36371
 36372					;**********
 36373
 36374					;THIS TEST VERIFIES THAT ANDM PLACES THE LOGICAL AND FUNCTION OF
 36375					;C(AC) AND C(E) INTO E.
 36376					;IN THIS CASE, C(AC)=777000,,000777 AND C(E)=123456,,123456.
 36377					;HENCE, THE RESULTS IN AC AND E SHOULD BE 777000,,000777 AND
 36378					;123000,,00456 RESPECTIVELY
 36379
 36380	053110	200 01 0 00 070641 	C56701:	MOVE	1,[777000,,777]	;PRELOAD E WITH 777000,,000777
 36381	053111	202 01 0 00 053124 		MOVEM	1,E56701
 36382	053112	200 02 0 00 070637 		MOVE	2,[123456,,123456]	;PRELOAD AC WITH 123456,,123456
 36383	053113	406 02 0 00 053124 		ANDM	2,E56701	;*ANDM SHOULD PLACE 123000,,000456 INTO E
 36384	053114	312 02 0 00 070637 		CAME	2,[123456,,123456]	;PASS IF C(AC) NOT MODIFIED
 36385						STOP^
 36386	053115	254 04 0 00 053116 		HALT	.+1		;TEST FAILED IF PROGRAM HALTS HERE
 36387	053116	324 00 0 00 053117 		JUMPA	.+1		;IF TEST FAILS, CHANGE THIS INSTRUCTION (JUMPA .+1) TO
 36388									;JUMPA X (X IS THE ADDRESS OF THE FIRST INSTRUCTION
 36389									;IN THE SUBTEST) TO LOOP ON ERROR^
 36390	053117	200 01 0 00 053124 		MOVE	1,E56701
 36391	053120	312 01 0 00 070642 		CAME	1,[123000,,000456]	;PASS IF C(E)=123000,,000456
 36392						STOP^
 36393	053121	254 04 0 00 053122 		HALT	.+1		;TEST FAILED IF PROGRAM HALTS HERE
 36394	053122	324 00 0 00 053123 		JUMPA	.+1		;IF TEST FAILS, CHANGE THIS INSTRUCTION (JUMPA .+1) TO
 36395									;JUMPA X (X IS THE ADDRESS OF THE FIRST INSTRUCTION
 36396									;IN THE SUBTEST) TO LOOP ON ERROR^
 36397
 36398	053123	334 00 0 00 000000 		SKIPA				;GO TO NEXT TEST
 36399	053124	000000	000000		E56701:	0				;TEST WORD MEMORY
 36400
 36401					;**********
DFKAA PDP-10 KL10 BASIC INSTRUCTION DIAGNOSTIC (1) VER 0,2	MACRO %53B(1254)-4 11:50 11-Nov-24 Page 5
DFKAA6	MAC	13-Jan-89 10:22		TEST OF MSCL BOOLEAN INSTRUCTIONS

 36402					;THIS TEST VERIFIES THAT ANDCB PLACES THE LOGICAL AND FUNCTION OF
 36403					;C(AC) AND C(E) INTO BOTH AC AND E
 36404					;IN THIS CASE, C(AC)=-1,,0 AND C(E)=121212,,-1
 36405					;HENCE, THE RESULT IN BOTH AC AND E SHOULD BE 121212,,0,
 36406
 36407	053125	561 03 0 00 000000 	C57000:	HRROI	3,0		;PRELOAD AC WITH -1,,0
 36408	053126	525 06 0 00 121212 		HRLOI	6,121212	;PRELOAD E WITH 121212,,-1
 36409	053127	407 03 0 00 000006 		ANDB	3,6		;*ANDB SHOULD PLACE 121212,,0 INTO BOTH AC AND E
 36410	053130	312 03 0 00 070643 		CAME	3,[121212,,0]	;PASS IF C(AC)=121212,,0
 36411						STOP^
 36412	053131	254 04 0 00 053132 		HALT	.+1		;TEST FAILED IF PROGRAM HALTS HERE
 36413	053132	324 00 0 00 053133 		JUMPA	.+1		;IF TEST FAILS, CHANGE THIS INSTRUCTION (JUMPA .+1) TO
 36414									;JUMPA X (X IS THE ADDRESS OF THE FIRST INSTRUCTION
 36415									;IN THE SUBTEST) TO LOOP ON ERROR^
 36416	053133	312 06 0 00 070643 		CAME	6,[121212,,0]	;PASS IF C(E)=121212,,0
 36417						STOP^
 36418	053134	254 04 0 00 053135 		HALT	.+1		;TEST FAILED IF PROGRAM HALTS HERE
 36419	053135	324 00 0 00 053136 		JUMPA	.+1		;IF TEST FAILS, CHANGE THIS INSTRUCTION (JUMPA .+1) TO
 36420									;JUMPA X (X IS THE ADDRESS OF THE FIRST INSTRUCTION
 36421									;IN THE SUBTEST) TO LOOP ON ERROR^
 36422
 36423					;**********
 36424
 36425					;THIS TEST VERIFIES THAT ANDCB PLACES THE LOGICAL AND FUNCTION OF
 36426					;C(AC) AND C(E) INTO BOTH AC AND E
 36427					;IN THIS CASE, C(AC)=-1,,0 AND C(E)=121212,,-1
 36428					;HENCE, THE RESULT IN BOTH AC AND E SHOULD BE 121212,,0,
 36429
 36430	053136	561 03 0 00 000000 	C57001:	HRROI	3,0		;PRELOAD AC WITH -1,,0
 36431	053137	525 06 0 00 121212 		HRLOI	6,121212	;PRELOAD E WITH 121212,,-1
 36432	053140	202 06 0 00 053152 		MOVEM	6,E57001
 36433	053141	407 03 0 00 053152 		ANDB	3,E57001	;*ANDB SHOULD PLACE 121212,,0 INTO BOTH AC AND E
 36434	053142	312 03 0 00 070643 		CAME	3,[121212,,0]	;PASS IF C(AC)=121212,,0
 36435						STOP^
 36436	053143	254 04 0 00 053144 		HALT	.+1		;TEST FAILED IF PROGRAM HALTS HERE
 36437	053144	324 00 0 00 053145 		JUMPA	.+1		;IF TEST FAILS, CHANGE THIS INSTRUCTION (JUMPA .+1) TO
 36438									;JUMPA X (X IS THE ADDRESS OF THE FIRST INSTRUCTION
 36439									;IN THE SUBTEST) TO LOOP ON ERROR^
 36440	053145	200 06 0 00 053152 		MOVE	6,E57001
 36441	053146	312 06 0 00 070643 		CAME	6,[121212,,0]	;PASS IF C(E)=121212,,0
 36442						STOP^
 36443	053147	254 04 0 00 053150 		HALT	.+1		;TEST FAILED IF PROGRAM HALTS HERE
 36444	053150	324 00 0 00 053151 		JUMPA	.+1		;IF TEST FAILS, CHANGE THIS INSTRUCTION (JUMPA .+1) TO
 36445									;JUMPA X (X IS THE ADDRESS OF THE FIRST INSTRUCTION
 36446									;IN THE SUBTEST) TO LOOP ON ERROR^
 36447
 36448	053151	334 00 0 00 000000 		SKIPA			;GO TO NEXT TEST
 36449	053152	000000	000000		E57001:	0			;TEST WORD MEMORY
 36450
 36451					;**********
DFKAA PDP-10 KL10 BASIC INSTRUCTION DIAGNOSTIC (1) VER 0,2	MACRO %53B(1254)-4 11:50 11-Nov-24 Page 6
DFKAA6	MAC	13-Jan-89 10:22		TEST OF MSCL BOOLEAN INSTRUCTIONS

 36452					;THIS TEST VERIFIES THAT ANDCAI PLACES THE LOGICAL AND FUNCTION
 36453					;OF THE WORD 0,E AND THE COMPLEMENT OF C(AC) INTO THE AC
 36454					;IN THIS CASE, C(AC)=777,000,,707070 AND E=0,135246
 36455					;HENCE, THE RESULT IN THE AC SHOULD BE 0,,030206
 36456
 36457	053153	200 05 0 00 070640 	C57100:	MOVE	5,[777000,,707070]	;PRELOAD AC WITH 777000,,707070
 36458	053154	411 05 0 00 135246 		ANDCAI	5,135246	;*ANDCAI SHOULD PLACE 0,,30206 INTO THE AC
 36459	053155	302 05 0 00 030206 		CAIE	5,030206	;PASS IF C(AC)=030206
 36460						STOP^
 36461	053156	254 04 0 00 053157 		HALT	.+1		;TEST FAILED IF PROGRAM HALTS HERE
 36462	053157	324 00 0 00 053160 		JUMPA	.+1		;IF TEST FAILS, CHANGE THIS INSTRUCTION (JUMPA .+1) TO
 36463									;JUMPA X (X IS THE ADDRESS OF THE FIRST INSTRUCTION
 36464									;IN THE SUBTEST) TO LOOP ON ERROR^
 36465
 36466					;**********
 36467
 36468					;THIS TEST VERIFIES THAT ANDCAM PLACES THE LOGICAL AND FUNCTION OF
 36469					;C(E) AND THE COMPLEMENT OF C(AC) INTO E.
 36470					;IN THIS CASE, C(AC)=000767,,-1 AND C(E)=777350,,-2
 36471					;HENCE, THE RESULTS IN AC AND E SHOULD BE 000767,,-1 AND
 36472					;777010,,0 RESPECTIVELY.
 36473
 36474	053160	525 04 0 00 000767 	C57200:	HRLOI	4,767		;PRELOAD AC WITH 000767,,-1
 36475	053161	200 06 0 00 070644 		MOVE	6,[777350,,-2]	;PRELOAD E WITH 777350,,-2
 36476	053162	412 04 0 00 000006 		ANDCAM	4,6		;*ANDCAM SHOULD PLACE 777010,,0
 36477									;INTO E
 36478	053163	312 04 0 00 070645 		CAME	4,[767,,-1]	;PASS IF C(AC) IS UNCHANGED
 36479						STOP^
 36480	053164	254 04 0 00 053165 		HALT	.+1		;TEST FAILED IF PROGRAM HALTS HERE
 36481	053165	324 00 0 00 053166 		JUMPA	.+1		;IF TEST FAILS, CHANGE THIS INSTRUCTION (JUMPA .+1) TO
 36482									;JUMPA X (X IS THE ADDRESS OF THE FIRST INSTRUCTION
 36483									;IN THE SUBTEST) TO LOOP ON ERROR^
 36484	053166	312 06 0 00 070646 		CAME	6,[777010,,0]	;PASS IF C(E)=777010,,0
 36485						STOP^
 36486	053167	254 04 0 00 053170 		HALT	.+1		;TEST FAILED IF PROGRAM HALTS HERE
 36487	053170	324 00 0 00 053171 		JUMPA	.+1		;IF TEST FAILS, CHANGE THIS INSTRUCTION (JUMPA .+1) TO
 36488									;JUMPA X (X IS THE ADDRESS OF THE FIRST INSTRUCTION
 36489									;IN THE SUBTEST) TO LOOP ON ERROR^
 36490
 36491					;**********
DFKAA PDP-10 KL10 BASIC INSTRUCTION DIAGNOSTIC (1) VER 0,2	MACRO %53B(1254)-4 11:50 11-Nov-24 Page 7
DFKAA6	MAC	13-Jan-89 10:22		TEST OF MSCL BOOLEAN INSTRUCTIONS

 36492					;THIS TEST VERIFIES THAT ANDCAB PLACES THE LOGICAN AND FUNCTION OF
 36493					;C(E) AND THE COMPLEMENT OF C(AC) INTO BOTH AC AND E.
 36494					;IN THIS CASE, C(AC)=000777,,770077 AND C(E)=123456,246123
 36495					;HENCE, THE RESULT IN BOTH AC AND E SHOULD BE 123000,,006100
 36496
 36497	053171	200 01 0 00 070647 	C57300:	MOVE	1,[000777,,770077]	;PRELOAD AC WITH 000777,770077
 36498	053172	200 02 0 00 070650 		MOVE	2,[123456,,246123]	;PRELOAD E WITH 123456,246123
 36499	053173	413 01 0 00 000002 		ANDCAB	1,2		;*ANDCAB SHOULD PLACE 123000,006100
 36500									;INTO BOTH AC AND E
 36501	053174	312 01 0 00 070651 		CAME	1,[123000,,006100]	;PASS IF C(AC)=123000,006100
 36502						STOP^
 36503	053175	254 04 0 00 053176 		HALT	.+1		;TEST FAILED IF PROGRAM HALTS HERE
 36504	053176	324 00 0 00 053177 		JUMPA	.+1		;IF TEST FAILS, CHANGE THIS INSTRUCTION (JUMPA .+1) TO
 36505									;JUMPA X (X IS THE ADDRESS OF THE FIRST INSTRUCTION
 36506									;IN THE SUBTEST) TO LOOP ON ERROR^
 36507	053177	312 02 0 00 070651 		CAME	2,[123000,,006100]	;PASS IF C(E)=123000,006100
 36508						STOP^
 36509	053200	254 04 0 00 053201 		HALT	.+1		;TEST FAILED IF PROGRAM HALTS HERE
 36510	053201	324 00 0 00 053202 		JUMPA	.+1		;IF TEST FAILS, CHANGE THIS INSTRUCTION (JUMPA .+1) TO
 36511									;JUMPA X (X IS THE ADDRESS OF THE FIRST INSTRUCTION
 36512									;IN THE SUBTEST) TO LOOP ON ERROR^
 36513
 36514					;**********
 36515
 36516					;THIS TEST VERIFIES THAT SETMI MOVES THE WORD 0,,E INTO THE AC
 36517					;IN THIS CASE, C(AC)=-1,,-1 AND E=0,,123456.  HENCE, THE RESULT
 36518					;IN THE AC SHOULD BE 0,,123456
 36519
 36520	053202	474 05 0 00 000000 	C57400:	SETO	5,		;PRELOAD AC WITH -1,,-1
 36521	053203	415 05 0 00 123456 		SETMI	5,123456	;*SETMI SHOULD PLACE 0,,123456 INTO THE AC
 36522	053204	302 05 0 00 123456 		CAIE	5,123456	;PASS IF C(AC)=0,123456
 36523						STOP^
 36524	053205	254 04 0 00 053206 		HALT	.+1		;TEST FAILED IF PROGRAM HALTS HERE
 36525	053206	324 00 0 00 053207 		JUMPA	.+1		;IF TEST FAILS, CHANGE THIS INSTRUCTION (JUMPA .+1) TO
 36526									;JUMPA X (X IS THE ADDRESS OF THE FIRST INSTRUCTION
 36527									;IN THE SUBTEST) TO LOOP ON ERROR^
 36528
 36529					;**********
DFKAA PDP-10 KL10 BASIC INSTRUCTION DIAGNOSTIC (1) VER 0,2	MACRO %53B(1254)-4 11:50 11-Nov-24 Page 8
DFKAA6	MAC	13-Jan-89 10:22		TEST OF MSCL BOOLEAN INSTRUCTIONS

 36530					;THIS TEST VERIFIES THAT SETMM IS A NO-OP.  HENCE, IT SHOULD
 36531					;NOT MODIFY AC OR E.
 36532					;IN THIS CASE, C(AC)=0 AND C(E)=-1,,-1; AND NEITHER SHOULD NOT BE CHANGED
 36533
 36534	053207	400 16 0 00 000000 	C57500:	SETZ	16,		;CLEAR C(AC)
 36535	053210	474 17 0 00 000000 		SETO	17,		;PRELOAD E WITH -1,,-1
 36536	053211	416 16 0 00 000017 		SETMM	16,17		;*SETMM IS A NO-OP
 36537	053212	332 00 0 00 000016 		SKIPE	16		;PASS IF C(AC) UNCHANGED
 36538						STOP^
 36539	053213	254 04 0 00 053214 		HALT	.+1		;TEST FAILED IF PROGRAM HALTS HERE
 36540	053214	324 00 0 00 053215 		JUMPA	.+1		;IF TEST FAILS, CHANGE THIS INSTRUCTION (JUMPA .+1) TO
 36541									;JUMPA X (X IS THE ADDRESS OF THE FIRST INSTRUCTION
 36542									;IN THE SUBTEST) TO LOOP ON ERROR^
 36543	053215	312 17 0 00 070254 		CAME	17,[-1]		;PASS IF C(E) UNCHANGED
 36544						STOP^
 36545	053216	254 04 0 00 053217 		HALT	.+1		;TEST FAILED IF PROGRAM HALTS HERE
 36546	053217	324 00 0 00 053220 		JUMPA	.+1		;IF TEST FAILS, CHANGE THIS INSTRUCTION (JUMPA .+1) TO
 36547									;JUMPA X (X IS THE ADDRESS OF THE FIRST INSTRUCTION
 36548									;IN THE SUBTEST) TO LOOP ON ERROR^
 36549
 36550					;**********
 36551
 36552					;THIS TEST VERIFIES THAT SETMB PLACES C(E) INTO THE AC
 36553					;IN THIS CASE, C(AC)=-1,,-1 AND C(E)=100,,-200  HENCE, THE RESULT
 36554					;IN BOTH AC AND E SHOULD BE 000100,,-200.
 36555
 36556	053220	474 00 0 00 000000 	C57600:	SETO	0,		;CLEAR AC
 36557	053221	200 01 0 00 070652 		MOVE	1,[100,,-200]	;PRELOAD E WITH 100,,-200
 36558	053222	417 00 0 00 000001 		SETMB	0,1		;*SETMB SHOULD PLACE 100,,-200 INTO THE AC
 36559	053223	312 00 0 00 070652 		CAME	0,[100,,-200]	;PASS IF C(AC)=100,,-200
 36560						STOP^
 36561	053224	254 04 0 00 053225 		HALT	.+1		;TEST FAILED IF PROGRAM HALTS HERE
 36562	053225	324 00 0 00 053226 		JUMPA	.+1		;IF TEST FAILS, CHANGE THIS INSTRUCTION (JUMPA .+1) TO
 36563									;JUMPA X (X IS THE ADDRESS OF THE FIRST INSTRUCTION
 36564									;IN THE SUBTEST) TO LOOP ON ERROR^
 36565	053226	312 01 0 00 070652 		CAME	1,[100,,-200]	;PASS IF C(E)=100,,-200
 36566						STOP^
 36567	053227	254 04 0 00 053230 		HALT	.+1		;TEST FAILED IF PROGRAM HALTS HERE
 36568	053230	324 00 0 00 053231 		JUMPA	.+1		;IF TEST FAILS, CHANGE THIS INSTRUCTION (JUMPA .+1) TO
 36569									;JUMPA X (X IS THE ADDRESS OF THE FIRST INSTRUCTION
 36570									;IN THE SUBTEST) TO LOOP ON ERROR^
 36571
 36572					;**********
DFKAA PDP-10 KL10 BASIC INSTRUCTION DIAGNOSTIC (1) VER 0,2	MACRO %53B(1254)-4 11:50 11-Nov-24 Page 9
DFKAA6	MAC	13-Jan-89 10:22		TEST OF MSCL BOOLEAN INSTRUCTIONS

 36573					;THIS TEST VERIFIES THAT ANDCMI PLACES THE LOGICAL AND FUNCTION
 36574					;OF C(AC) AND THE COMPLEMENT OF THE WORD 0,,E INTO THE AC.
 36575					;IN THIS CASE, C(AC)=123456,,246135 AND E=0,,717273.
 36576					;HENCE, THE RESULT IN THE AC SHOULD BE 123456,,040104.
 36577
 36578	053231	200 15 0 00 070653 	C57700:	MOVE	15,[123456,,246135]	;PRELOAD AC WITH 123456,,246135
 36579	053232	421 15 0 00 717273 		ANDCMI	15,717273	;*ANDCMI SHOULD PLACE 123456,,040104
 36580									;INTO THE AC
 36581	053233	312 15 0 00 070654 		CAME	15,[123456,,040104]	;PASS IF C(AC)=123456,,040104
 36582						STOP^
 36583	053234	254 04 0 00 053235 		HALT	.+1		;TEST FAILED IF PROGRAM HALTS HERE
 36584	053235	324 00 0 00 053236 		JUMPA	.+1		;IF TEST FAILS, CHANGE THIS INSTRUCTION (JUMPA .+1) TO
 36585									;JUMPA X (X IS THE ADDRESS OF THE FIRST INSTRUCTION
 36586									;IN THE SUBTEST) TO LOOP ON ERROR^
 36587
 36588					;**********
 36589
 36590					;THIS TEST VERIFIES THAT ANDCMM PLACES THE LOGICAL AND FUNCTION OF
 36591					;C(AC) AND THE COMPLEMENT OF C(E) INTO E.
 36592					;IN THIS CASE,C(AC)=12321,,456654 AND C(E)= 770077,,007770
 36593					;HENCE, THE RESULT IN E SHOULD BE 003300,,450004
 36594
 36595	053236	200 14 0 00 070655 	C60000:	MOVE	14,[123321,,456654]	;PRELOAD AC WITH 123321,,456654
 36596	053237	200 15 0 00 070656 		MOVE	15,[770077,,007770]	;PRELOAD E WITH 77007770
 36597	053240	422 14 0 00 000015 		ANDCMM	14,15			;*ANDCMM SHOULD PLACE 003300,,450004 INTO THE AC
 36598	053241	312 14 0 00 070655 		CAME	14,[123321,,456654]	;PASS IF C(AC) UNCHANGED
 36599						STOP^
 36600	053242	254 04 0 00 053243 		HALT	.+1		;TEST FAILED IF PROGRAM HALTS HERE
 36601	053243	324 00 0 00 053244 		JUMPA	.+1		;IF TEST FAILS, CHANGE THIS INSTRUCTION (JUMPA .+1) TO
 36602									;JUMPA X (X IS THE ADDRESS OF THE FIRST INSTRUCTION
 36603									;IN THE SUBTEST) TO LOOP ON ERROR^
 36604	053244	312 15 0 00 070657 		CAME	15,[3300,,450004]	;PASS IF C(E) = 003300,,450004
 36605						STOP^
 36606	053245	254 04 0 00 053246 		HALT	.+1		;TEST FAILED IF PROGRAM HALTS HERE
 36607	053246	324 00 0 00 053247 		JUMPA	.+1		;IF TEST FAILS, CHANGE THIS INSTRUCTION (JUMPA .+1) TO
 36608									;JUMPA X (X IS THE ADDRESS OF THE FIRST INSTRUCTION
 36609									;IN THE SUBTEST) TO LOOP ON ERROR^
 36610
 36611					;**********
DFKAA PDP-10 KL10 BASIC INSTRUCTION DIAGNOSTIC (1) VER 0,2	MACRO %53B(1254)-4 11:50 11-Nov-24 Page 10
DFKAA6	MAC	13-Jan-89 10:22		TEST OF MSCL BOOLEAN INSTRUCTIONS

 36612					;THIS TEST VERIFIES THAT ANDCMB PLACES THE LOGICAL AND FUNCTION OF
 36613					;C(AC) AND THE COMPLEMENT OF C(E) INTO BOTH AC AND E.
 36614					;IN THIS CASE, C(AC)123456,,663322 AND C(E) = 777000,,700770
 36615					;HENCE, THE RESULT IN BOTH AC AND E SHOULD BE 000456,,063002
 36616
 36617	053247	200 13 0 00 070660 	C60100:	MOVE	13,[123456,,663322]	;PRELOAD AC WITH 123456,,663322
 36618	053250	200 14 0 00 070661 		MOVE	14,[777000,,700770]	;PRELOAD E WITH 777000,,700770
 36619	053251	423 13 0 00 000014 		ANDCMB	13,14			;*ANDCMB SHOULD PLACE 000456,,063002
 36620										;INTO BOTH AC AND E
 36621	053252	312 13 0 00 070662 		CAME	13,[456,,63002]		;PASS IF C(AC)=000456,,063002
 36622						STOP^
 36623	053253	254 04 0 00 053254 		HALT	.+1		;TEST FAILED IF PROGRAM HALTS HERE
 36624	053254	324 00 0 00 053255 		JUMPA	.+1		;IF TEST FAILS, CHANGE THIS INSTRUCTION (JUMPA .+1) TO
 36625									;JUMPA X (X IS THE ADDRESS OF THE FIRST INSTRUCTION
 36626									;IN THE SUBTEST) TO LOOP ON ERROR^
 36627	053255	312 14 0 00 070662 		CAME	14,[456,,63002]		;PASS IF C(E)=000456,,063002
 36628						STOP^
 36629	053256	254 04 0 00 053257 		HALT	.+1		;TEST FAILED IF PROGRAM HALTS HERE
 36630	053257	324 00 0 00 053260 		JUMPA	.+1		;IF TEST FAILS, CHANGE THIS INSTRUCTION (JUMPA .+1) TO
 36631									;JUMPA X (X IS THE ADDRESS OF THE FIRST INSTRUCTION
 36632									;IN THE SUBTEST) TO LOOP ON ERROR^
 36633
 36634					;**********
 36635
 36636
 36637					;THIS TEST VERIFIES THAT SETA IS A NO-OP. IT AFFECTS NEITHER
 36638					;AC OR E. IN THIS CASE, C(AC)=123456,,777776 AND C(E)=010203,,123450.
 36639					;SETA SHOULD NOT MODIFY C(AC) OR C(E)
 36640
 36641	053260	200 12 0 00 070663 	C60200:	MOVE	12,[123456,,777776]	;PRELOAD AC WITH 123456,,-2
 36642	053261	200 13 0 00 070664 		MOVE	13,[010203,,123450]	;PRELOAD E WITH 010203,,123450
 36643	053262	424 12 0 00 000013 		SETA	12,13			;*SETA IS A NO-OP
 36644	053263	312 12 0 00 070663 		CAME	12,[123456,,-2]		;PASS IF C(AC) UNCHANGED
 36645						STOP^
 36646	053264	254 04 0 00 053265 		HALT	.+1		;TEST FAILED IF PROGRAM HALTS HERE
 36647	053265	324 00 0 00 053266 		JUMPA	.+1		;IF TEST FAILS, CHANGE THIS INSTRUCTION (JUMPA .+1) TO
 36648									;JUMPA X (X IS THE ADDRESS OF THE FIRST INSTRUCTION
 36649									;IN THE SUBTEST) TO LOOP ON ERROR^
 36650	053266	312 13 0 00 070664 		CAME	13,[010203,,123450]	;PASS IF C(E) UNCHANGED
 36651						STOP^
 36652	053267	254 04 0 00 053270 		HALT	.+1		;TEST FAILED IF PROGRAM HALTS HERE
 36653	053270	324 00 0 00 053271 		JUMPA	.+1		;IF TEST FAILS, CHANGE THIS INSTRUCTION (JUMPA .+1) TO
 36654									;JUMPA X (X IS THE ADDRESS OF THE FIRST INSTRUCTION
 36655									;IN THE SUBTEST) TO LOOP ON ERROR^
 36656
 36657					;**********
DFKAA PDP-10 KL10 BASIC INSTRUCTION DIAGNOSTIC (1) VER 0,2	MACRO %53B(1254)-4 11:50 11-Nov-24 Page 11
DFKAA6	MAC	13-Jan-89 10:22		TEST OF MSCL BOOLEAN INSTRUCTIONS

 36658					;THIS TEST VERIFIES THAT SETAI IS A NO-OP. IT DOES NOT AFFECT THE AC.
 36659					;IN THIS CASE, C(AC)=123456,,777776 AND E=0,,123450
 36660					;SETA SHOULD NOT MODIFY C(AC)
 36661
 36662	053271	200 12 0 00 070663 	C60300:	MOVE 12,[123456,,777776]	;PRELOAD AC WITH 123456,,-2
 36663	053272	425 12 0 00 123450 		SETAI	12,123450		;*SETAI IS A NO-OP
 36664	053273	312 12 0 00 070663 		CAME	12,[123456,,-2]		;PASS IF C(AC) UNCHANGED
 36665						STOP^
 36666	053274	254 04 0 00 053275 		HALT	.+1		;TEST FAILED IF PROGRAM HALTS HERE
 36667	053275	324 00 0 00 053276 		JUMPA	.+1		;IF TEST FAILS, CHANGE THIS INSTRUCTION (JUMPA .+1) TO
 36668									;JUMPA X (X IS THE ADDRESS OF THE FIRST INSTRUCTION
 36669									;IN THE SUBTEST) TO LOOP ON ERROR^
 36670
 36671					;**********
 36672
 36673					;THIS TEST VERIFIES THAT SETAM PLACES C(AC) INTO E.
 36674					;IN THIS CASE, C(AC)=123456,,0 AND C(E)=-1,,-1.  HENCE, THE
 36675					;RESULT IN E SHOULD BE 123456,,0
 36676
 36677	053276	515 11 0 00 123456 	C60400:	HRLZI	11,123456		;PRELOAD AC WITH 123456,,0
 36678	053277	474 12 0 00 000000 		SETO	12,			;PRELOAD E WITH -1,,-1
 36679	053300	426 11 0 00 000012 		SETAM	11,12			;SETAM SHOULD PLACE 123456,,0 INTO E
 36680	053301	312 11 0 00 070377 		CAME	11,[123456,,0]		;PASS IF C(AC) UNCHANGED
 36681						STOP^
 36682	053302	254 04 0 00 053303 		HALT	.+1		;TEST FAILED IF PROGRAM HALTS HERE
 36683	053303	324 00 0 00 053304 		JUMPA	.+1		;IF TEST FAILS, CHANGE THIS INSTRUCTION (JUMPA .+1) TO
 36684									;JUMPA X (X IS THE ADDRESS OF THE FIRST INSTRUCTION
 36685									;IN THE SUBTEST) TO LOOP ON ERROR^
 36686	053304	312 12 0 00 070377 		CAME	12,[123456,,0]		;PASS IF C(E)=123456,,0
 36687						STOP^
 36688	053305	254 04 0 00 053306 		HALT	.+1		;TEST FAILED IF PROGRAM HALTS HERE
 36689	053306	324 00 0 00 053307 		JUMPA	.+1		;IF TEST FAILS, CHANGE THIS INSTRUCTION (JUMPA .+1) TO
 36690									;JUMPA X (X IS THE ADDRESS OF THE FIRST INSTRUCTION
 36691									;IN THE SUBTEST) TO LOOP ON ERROR^
 36692
 36693					;**********
DFKAA PDP-10 KL10 BASIC INSTRUCTION DIAGNOSTIC (1) VER 0,2	MACRO %53B(1254)-4 11:50 11-Nov-24 Page 12
DFKAA6	MAC	13-Jan-89 10:22		TEST OF MSCL BOOLEAN INSTRUCTIONS

 36694					;THIS TEST VERIFIES THAT XORI PLACES THE LOGICAL EXCLUSIVE OR FUNCTION
 36695					;OF C(AC) AND THE WORD 0,,E INTO THE AC.
 36696					;IN THIS CASE, C(AC)=000777,,123456 AND E=0,,434431
 36697					;HENCE, THE RESULT IN THE AC SHOULD BE 000777,,517067.
 36698
 36699	053307	200 10 0 00 070665 	C60500:	MOVE	10,[777,,123456]	;PRELOAD AC WITH 000777,,123456
 36700	053310	431 10 0 00 434431 		XORI	10,434431		;*XORI SHOULD PLACE 000777,,517067 INTO THE AC
 36701	053311	312 10 0 00 070666 		CAME	10,[777,,517067]	;PASS IF C(AC)=000777,,517067
 36702						STOP^
 36703	053312	254 04 0 00 053313 		HALT	.+1		;TEST FAILED IF PROGRAM HALTS HERE
 36704	053313	324 00 0 00 053314 		JUMPA	.+1		;IF TEST FAILS, CHANGE THIS INSTRUCTION (JUMPA .+1) TO
 36705									;JUMPA X (X IS THE ADDRESS OF THE FIRST INSTRUCTION
 36706									;IN THE SUBTEST) TO LOOP ON ERROR^
 36707
 36708					;**********
 36709
 36710					;THIS TEST VERIFIES THAT XORB PLACES THE LOGICAL EXCLUSIVE OR FUNCTION
 36711					;OF C(AC) AND C(E) INTO BOTH AC AND E.
 36712					;IN THIS CASE, C(AC)=707077,,555666 AND C(E)=123456,,765432
 36713					;HENCE, THE RESULT IN BOTH AC AND E SHOULD BE 624421,,230254
 36714
 36715	053314	200 07 0 00 070667 	C60600:	MOVE	7,[707077,,555666]	;PRELOAD AC WITH 707077,,555666
 36716	053315	200 10 0 00 070376 		MOVE	10,[123456,,765432]	;PRELOAD E WITH 123456,,765432
 36717	053316	433 07 0 00 000010 		XORB	7,10			;*XORB SHOULD PLACE 624421,,230254
 36718										;INTO BOTH AC AND E
 36719	053317	312 07 0 00 070670 		CAME	7,[624421,,230254]	;PASS IF C(AC)=624421,,230254
 36720						STOP^
 36721	053320	254 04 0 00 053321 		HALT	.+1		;TEST FAILED IF PROGRAM HALTS HERE
 36722	053321	324 00 0 00 053322 		JUMPA	.+1		;IF TEST FAILS, CHANGE THIS INSTRUCTION (JUMPA .+1) TO
 36723									;JUMPA X (X IS THE ADDRESS OF THE FIRST INSTRUCTION
 36724									;IN THE SUBTEST) TO LOOP ON ERROR^
 36725	053322	312 10 0 00 070670 		CAME	10,[624421,,230254]	;PASS IF C(E)=624421,,230254
 36726						STOP^
 36727	053323	254 04 0 00 053324 		HALT	.+1		;TEST FAILED IF PROGRAM HALTS HERE
 36728	053324	324 00 0 00 053325 		JUMPA	.+1		;IF TEST FAILS, CHANGE THIS INSTRUCTION (JUMPA .+1) TO
 36729									;JUMPA X (X IS THE ADDRESS OF THE FIRST INSTRUCTION
 36730									;IN THE SUBTEST) TO LOOP ON ERROR^
 36731
 36732					;**********
DFKAA PDP-10 KL10 BASIC INSTRUCTION DIAGNOSTIC (1) VER 0,2	MACRO %53B(1254)-4 11:50 11-Nov-24 Page 13
DFKAA6	MAC	13-Jan-89 10:22		TEST OF MSCL BOOLEAN INSTRUCTIONS

 36733					;THIS TEST VERIFIES THAT IORI PLACES THE INCLUSIVE OR FUNCTION
 36734					;OF C(AC) AND THE WORD 0,,E INTO THE AC.
 36735					;IN THIS CASE, C(AC)=707070,,123456 AND E=0,,765567
 36736					;HENCE, THE RESULT IN THE AC SHOULD BE 707070,,767577
 36737
 36738	053325	200 06 0 00 070671 	C60700:	MOVE	6,[707070,,123456]  ;PRELOAD AC WITH 707070,,123456
 36739	053326	435 06 0 00 765567 		IORI	6,765567	;*IORI SHOULD PLACE 707070,,767577 INTO THE AC
 36740	053327	312 06 0 00 070672 		CAME	6,[707070,,767577]  ;PASS IF C(AC)=707070,,767577
 36741						STOP^
 36742	053330	254 04 0 00 053331 		HALT	.+1		;TEST FAILED IF PROGRAM HALTS HERE
 36743	053331	324 00 0 00 053332 		JUMPA	.+1		;IF TEST FAILS, CHANGE THIS INSTRUCTION (JUMPA .+1) TO
 36744									;JUMPA X (X IS THE ADDRESS OF THE FIRST INSTRUCTION
 36745									;IN THE SUBTEST) TO LOOP ON ERROR^
 36746
 36747					;**********
 36748
 36749					;THIS TEST VERIFIES THAT IORM PLACES THE INCLUSIVE OR FUNCTION
 36750					;OF C(AC) AND C(E) INTO E.
 36751					;IN THIS CASE, C(AC)=123456,,777666 AND C(E)=777001,,123470
 36752					;HENCE, THE RESULT IN E SHOULD BE 777457,,777676
 36753
 36754	053332	200 05 0 00 070673 	C61000:	MOVE	5,[123456,,777666]  ;PRELOAD AC WITH 123456,777666
 36755	053333	200 06 0 00 070674 		MOVE	6,[777001,,123470]  ;PRELOAD E WITH 777001,,123470
 36756	053334	436 05 0 00 000006 		IORM	5,6		;*IORM SHOULD PLACE
 36757									;777457,777676 INTO E
 36758	053335	312 05 0 00 070673 		CAME	5,[123456,,777666]  ;PASS IF C(AC) UNMODIFIED
 36759						STOP^
 36760	053336	254 04 0 00 053337 		HALT	.+1		;TEST FAILED IF PROGRAM HALTS HERE
 36761	053337	324 00 0 00 053340 		JUMPA	.+1		;IF TEST FAILS, CHANGE THIS INSTRUCTION (JUMPA .+1) TO
 36762									;JUMPA X (X IS THE ADDRESS OF THE FIRST INSTRUCTION
 36763									;IN THE SUBTEST) TO LOOP ON ERROR^
 36764	053340	312 06 0 00 070675 		CAME	6,[777457,,777676] ;PASS IF C(E)=777457,777676
 36765						STOP^
 36766	053341	254 04 0 00 053342 		HALT	.+1		;TEST FAILED IF PROGRAM HALTS HERE
 36767	053342	324 00 0 00 053343 		JUMPA	.+1		;IF TEST FAILS, CHANGE THIS INSTRUCTION (JUMPA .+1) TO
 36768									;JUMPA X (X IS THE ADDRESS OF THE FIRST INSTRUCTION
 36769									;IN THE SUBTEST) TO LOOP ON ERROR^
 36770
 36771					;**********
DFKAA PDP-10 KL10 BASIC INSTRUCTION DIAGNOSTIC (1) VER 0,2	MACRO %53B(1254)-4 11:50 11-Nov-24 Page 14
DFKAA6	MAC	13-Jan-89 10:22		TEST OF MSCL BOOLEAN INSTRUCTIONS

 36772					;THIS TEST VERIFIES THAT IORB PLACES THE INCLUSIVE OR FUNCTION
 36773					;OF C(AC) AND C(E) INTO E.
 36774					;IN THIS CASE, C(AC)=123456,,777666 AND C(E)=777001,,123470
 36775					;HENCE, THE RESULT IN BOTH AC AND E SHOULD BE 777457,,777676
 36776
 36777	053343	200 05 0 00 070673 	C61100:	MOVE	5,[123456,,777666]  ;PRELOAD AC WITH 123456,777666
 36778	053344	200 06 0 00 070674 		MOVE	6,[777001,,123470]  ;PRELOAD E WITH 777001,,123470
 36779	053345	437 05 0 00 000006 		IORB	5,6		;*IORB SHOULD PLACE
 36780									;777457,,777676 INTO
 36781	053346	312 05 0 00 070675 		CAME	5,[777457,,777676]  ;PASS IF C(AC)=777457,,777676
 36782						STOP^
 36783	053347	254 04 0 00 053350 		HALT	.+1		;TEST FAILED IF PROGRAM HALTS HERE
 36784	053350	324 00 0 00 053351 		JUMPA	.+1		;IF TEST FAILS, CHANGE THIS INSTRUCTION (JUMPA .+1) TO
 36785									;JUMPA X (X IS THE ADDRESS OF THE FIRST INSTRUCTION
 36786									;IN THE SUBTEST) TO LOOP ON ERROR^
 36787	053351	312 06 0 00 070675 		CAME	6,[777457,,777676]  ;PASS IF C(E)=777457,,777676
 36788						STOP^
 36789	053352	254 04 0 00 053353 		HALT	.+1		;TEST FAILED IF PROGRAM HALTS HERE
 36790	053353	324 00 0 00 053354 		JUMPA	.+1		;IF TEST FAILS, CHANGE THIS INSTRUCTION (JUMPA .+1) TO
 36791									;JUMPA X (X IS THE ADDRESS OF THE FIRST INSTRUCTION
 36792									;IN THE SUBTEST) TO LOOP ON ERROR^
 36793
 36794					;**********
 36795
 36796					;THIS TEST VERIFIES THAT ANDCBI PLACES THE LOGICAL AND FUNCTION
 36797					;OF THE COMPLEMENTS OF BOTH C(AC) AND THE WORD 0,,E INTO THE AC
 36798					;IN THIS CASE, C(AC)=777000,,123456 AND E=0,,706050.
 36799					;HENCE, THE RESULT IN THE AC SHOULD BE 000777,,050321.
 36800
 36801	053354	200 04 0 00 070676 	C61200:	MOVE	4,[777000,,123456]  ;PRELOAD AC WITH 777000,,123456
 36802	053355	441 04 0 00 706050 		ANDCBI	4,706050	;*ANDCBI SHOULD PLACE 000777,,050321
 36803									;INTO THE AC
 36804	053356	312 04 0 00 070677 		CAME	4,[777,,50321]	;PASS IF C(AC)=000777,,050321
 36805						STOP^
 36806	053357	254 04 0 00 053360 		HALT	.+1		;TEST FAILED IF PROGRAM HALTS HERE
 36807	053360	324 00 0 00 053361 		JUMPA	.+1		;IF TEST FAILS, CHANGE THIS INSTRUCTION (JUMPA .+1) TO
 36808									;JUMPA X (X IS THE ADDRESS OF THE FIRST INSTRUCTION
 36809									;IN THE SUBTEST) TO LOOP ON ERROR^
 36810
 36811					;**********
DFKAA PDP-10 KL10 BASIC INSTRUCTION DIAGNOSTIC (1) VER 0,2	MACRO %53B(1254)-4 11:50 11-Nov-24 Page 15
DFKAA6	MAC	13-Jan-89 10:22		TEST OF MSCL BOOLEAN INSTRUCTIONS

 36812					;THIS TEST VERIFIES THAT ANDCBM PLACES THE LOGICAL AND FUNCTION
 36813					;OF THE COMPLEMENTS OF BOTH C(AC) AND C(E) INTO
 36814					;IN THE CASE, C(AC)=777007,,771100 AND C(E)=063202,,123477
 36815					;HENCE, THE RESULT IN E SHOULD BE 000570,,004200
 36816
 36817	053361	200 03 0 00 070700 	C61300:	MOVE	3,[777007,,771100]  ;PRELOAD AC WITH 777007,,771100
 36818	053362	200 04 0 00 070701 		MOVE	4,[63202,,123477]   ;PRELOAD E WITH 063202,,123477
 36819	053363	442 03 0 00 000004 		ANDCBM	3,4		;*ANDCBM SHOULD PLACE
 36820									;000570,,004200 INTO E.
 36821	053364	312 03 0 00 070700 		CAME	3,[777007,,771100] ;PASS IF C(AC) IS UNCHANGED
 36822						STOP^
 36823	053365	254 04 0 00 053366 		HALT	.+1		;TEST FAILED IF PROGRAM HALTS HERE
 36824	053366	324 00 0 00 053367 		JUMPA	.+1		;IF TEST FAILS, CHANGE THIS INSTRUCTION (JUMPA .+1) TO
 36825									;JUMPA X (X IS THE ADDRESS OF THE FIRST INSTRUCTION
 36826									;IN THE SUBTEST) TO LOOP ON ERROR^
 36827	053367	312 04 0 00 070702 		CAME	4,[570,,4200]	;PASS IF C(E)=000570,,004200
 36828						STOP^
 36829	053370	254 04 0 00 053371 		HALT	.+1		;TEST FAILED IF PROGRAM HALTS HERE
 36830	053371	324 00 0 00 053372 		JUMPA	.+1		;IF TEST FAILS, CHANGE THIS INSTRUCTION (JUMPA .+1) TO
 36831									;JUMPA X (X IS THE ADDRESS OF THE FIRST INSTRUCTION
 36832									;IN THE SUBTEST) TO LOOP ON ERROR^
 36833
 36834					;**********
 36835
 36836					;THIS TEST VERIFIES THAT ANDCBB PLACES THE LOGICAL AND FUNCTION
 36837					;OF THE COMPLEMENTS OF BOTH C(AC) AND C(E) INTO BOTH AC AND E
 36838					;IN THIS CASE, C(AC)=777007,,771100 AND C(E)=063202,,123477
 36839					;HENCE, THE RESULT IN BOTH AC AND E SHOULD BE 000570,,004200
 36840
 36841	053372	200 03 0 00 070700 	C61400:	MOVE	3,[777007,,771100]  ;PRELOAD WITH 777007,,771100
 36842	053373	200 04 0 00 070701 		MOVE	4,[63202,,123477]   ;PRELOAD E WITH 063202,,123477
 36843	053374	443 03 0 00 000004 		ANDCBB	3,4		;*ANDCBB SHOULD PLACE
 36844									;000570,,004200 INTO BOTH AC AND E
 36845	053375	312 03 0 00 070702 		CAME	3,[570,,4200]	;PASS IF C(AC)=000570,,004200
 36846						STOP^
 36847	053376	254 04 0 00 053377 		HALT	.+1		;TEST FAILED IF PROGRAM HALTS HERE
 36848	053377	324 00 0 00 053400 		JUMPA	.+1		;IF TEST FAILS, CHANGE THIS INSTRUCTION (JUMPA .+1) TO
 36849									;JUMPA X (X IS THE ADDRESS OF THE FIRST INSTRUCTION
 36850									;IN THE SUBTEST) TO LOOP ON ERROR^
 36851	053400	312 04 0 00 070702 		CAME	4,[570,,4200]	;PASS IF C(E)=000570,,004200
 36852						STOP^
 36853	053401	254 04 0 00 053402 		HALT	.+1		;TEST FAILED IF PROGRAM HALTS HERE
 36854	053402	324 00 0 00 053403 		JUMPA	.+1		;IF TEST FAILS, CHANGE THIS INSTRUCTION (JUMPA .+1) TO
 36855									;JUMPA X (X IS THE ADDRESS OF THE FIRST INSTRUCTION
 36856									;IN THE SUBTEST) TO LOOP ON ERROR^
 36857
 36858					;**********
DFKAA PDP-10 KL10 BASIC INSTRUCTION DIAGNOSTIC (1) VER 0,2	MACRO %53B(1254)-4 11:50 11-Nov-24 Page 16
DFKAA6	MAC	13-Jan-89 10:22		TEST OF MSCL BOOLEAN INSTRUCTIONS

 36859					;THIS TEST VERIFIES THAT EQVI PLACES THE LOGICAL EQUIVALENCE FUNCTION
 36860					;OF C(AC) AND THE WORD 0,,E INTO THE AC
 36861					;IN THIS CASE, C(AC)=707070,,123426 AND E=0,,123363
 36862					;HENCE, THE RESULT IN THE AC SHOULD BE 070707,,777032
 36863
 36864	053403	200 02 0 00 070703 	C61500:	MOVE	2,[707070,,123426]  ;PRELOAD AC WITH 707070,,123426
 36865	053404	445 02 0 00 123363 		EQVI	2,123363	;*EQVI SHOULD PLACE
 36866									;070707,,777032 INTO THE AC
 36867	053405	312 02 0 00 070704 		CAME	2,[70707,,777032]  ;PASS IF C(AC)=070707,,777032
 36868						STOP^
 36869	053406	254 04 0 00 053407 		HALT	.+1		;TEST FAILED IF PROGRAM HALTS HERE
 36870	053407	324 00 0 00 053410 		JUMPA	.+1		;IF TEST FAILS, CHANGE THIS INSTRUCTION (JUMPA .+1) TO
 36871									;JUMPA X (X IS THE ADDRESS OF THE FIRST INSTRUCTION
 36872									;IN THE SUBTEST) TO LOOP ON ERROR^
 36873
 36874					;**********
 36875
 36876					;THIS TEST VERIFIES THAT EQVM PLACES THE LOGICAL EQUIVALENCE FUNCTION
 36877					;OF C(AC) AND C(E) INTO E.
 36878					;IN THIS CASE, C(AC)= 123456,,123457 AND C(E) = 707633,,121212
 36879					;HENCE, THE RESULT IN E SHOULD BE 153512,,775132
 36880
 36881	053410	200 01 0 00 070705 	C61600:	MOVE	1,[123456,,123457] ;PRELOAD AC WITH 123456,,123457
 36882	053411	200 02 0 00 070706 		MOVE	2,[707633,,121212] ;PRELOAD AC WITH 707633,,121212
 36883	053412	446 01 0 00 000002 		EQVM	1,2		;*EQVM SHOULD PLACE 153512,,775132 INTO	E.
 36884	053413	312 01 0 00 070705 		CAME	1,[123456,,123457] ;PASS IF C(AC) UNCHANGED
 36885						STOP^
 36886	053414	254 04 0 00 053415 		HALT	.+1		;TEST FAILED IF PROGRAM HALTS HERE
 36887	053415	324 00 0 00 053416 		JUMPA	.+1		;IF TEST FAILS, CHANGE THIS INSTRUCTION (JUMPA .+1) TO
 36888									;JUMPA X (X IS THE ADDRESS OF THE FIRST INSTRUCTION
 36889									;IN THE SUBTEST) TO LOOP ON ERROR^
 36890	053416	312 02 0 00 070707 		CAME	2,[153512,,775132];PASS IF C(E) = 153512,,775132
 36891						STOP^
 36892	053417	254 04 0 00 053420 		HALT	.+1		;TEST FAILED IF PROGRAM HALTS HERE
 36893	053420	324 00 0 00 053421 		JUMPA	.+1		;IF TEST FAILS, CHANGE THIS INSTRUCTION (JUMPA .+1) TO
 36894									;JUMPA X (X IS THE ADDRESS OF THE FIRST INSTRUCTION
 36895									;IN THE SUBTEST) TO LOOP ON ERROR^
 36896
 36897					;**********
DFKAA PDP-10 KL10 BASIC INSTRUCTION DIAGNOSTIC (1) VER 0,2	MACRO %53B(1254)-4 11:50 11-Nov-24 Page 17
DFKAA6	MAC	13-Jan-89 10:22		TEST OF MSCL BOOLEAN INSTRUCTIONS

 36898					;THIS TEST VERIFIES THAT EQVB PLACES THE LOGICAL EQUIVALENCE FUNCTION
 36899					;OF C(AC)AND C(E) INTO BOTH AC AND  E.
 36900					;IN THIS CASE, C(AC) = 123456,,123457 AND C(E) = 707633,,121212
 36901					;HENSE, THE RSULT IN BOTH AC AND 	E SHOULD BE 153512,,775132
 36902
 36903	053421	200 01 0 00 070705 	C61700:	MOVE	1,[123456,,123457]	;PRELOAD AC WITH 123456,,12345
 36904	053422	200 02 0 00 070706 		MOVE	2,[707633,,121212]	;PRELOAD AC WITH 707633,,121212
 36905	053423	447 01 0 00 000002 		EQVB	1,2			;*EQVB SHOULD PLACE 153512,,775132
 36906										;INTO BOTHE AC AND E.
 36907	053424	312 01 0 00 070707 		CAME	1,[153512,,775132]	;PASS IC C(AC)=153512,,775132
 36908						STOP^
 36909	053425	254 04 0 00 053426 		HALT	.+1		;TEST FAILED IF PROGRAM HALTS HERE
 36910	053426	324 00 0 00 053427 		JUMPA	.+1		;IF TEST FAILS, CHANGE THIS INSTRUCTION (JUMPA .+1) TO
 36911									;JUMPA X (X IS THE ADDRESS OF THE FIRST INSTRUCTION
 36912									;IN THE SUBTEST) TO LOOP ON ERROR^
 36913	053427	312 02 0 00 070707 		CAME	2,[153512,,775132]	;PASS IF C(E)=153512,,775132
 36914						STOP^
 36915	053430	254 04 0 00 053431 		HALT	.+1		;TEST FAILED IF PROGRAM HALTS HERE
 36916	053431	324 00 0 00 053432 		JUMPA	.+1		;IF TEST FAILS, CHANGE THIS INSTRUCTION (JUMPA .+1) TO
 36917									;JUMPA X (X IS THE ADDRESS OF THE FIRST INSTRUCTION
 36918									;IN THE SUBTEST) TO LOOP ON ERROR^
 36919
 36920					;**********
 36921
 36922					;THIS TEST VERIFIES THAT SETCAI PLACES THE COMPLEMENT OF C(AC)
 36923					;INTO THE AC.
 36924					;IN THIS CASE, C(AC)=777000,,123456 AND E=0,,707070
 36925					;HENCE, THE RESULT IN THE AC SHOULD BE 000777,,654321
 36926
 36927	053432	200 00 0 00 070676 	C62000:	MOVE	0,[777000,,123456]	;PRELOAD AC WITH 777000,,123456
 36928	053433	451 00 0 00 707070 		SETCAI	0,707070		;*SETCAI SHOULD PLACE 000777,,654321
 36929										;INTO THE AC
 36930	053434	312 00 0 00 070710 		CAME	0,[777,,654321]	;PASS IF C(AC)=000777,,654321
 36931						STOP^
 36932	053435	254 04 0 00 053436 		HALT	.+1		;TEST FAILED IF PROGRAM HALTS HERE
 36933	053436	324 00 0 00 053437 		JUMPA	.+1		;IF TEST FAILS, CHANGE THIS INSTRUCTION (JUMPA .+1) TO
 36934									;JUMPA X (X IS THE ADDRESS OF THE FIRST INSTRUCTION
 36935									;IN THE SUBTEST) TO LOOP ON ERROR^
 36936
 36937					;**********
DFKAA PDP-10 KL10 BASIC INSTRUCTION DIAGNOSTIC (1) VER 0,2	MACRO %53B(1254)-4 11:50 11-Nov-24 Page 18
DFKAA6	MAC	13-Jan-89 10:22		TEST OF MSCL BOOLEAN INSTRUCTIONS

 36938					;THIS TEST VERIFIES THAT SETCAM PLACES THE COMPLEMENT OF C(AC)
 36939					;INTO E.
 36940					;IN THIS CASE, C(AC)=123456,,765432 AND C(E)=-1,,-1.
 36941					;HENCE, THE RESULT IN E SHOULD BE 654321,,012345
 36942
 36943	053437	200 17 0 00 070376 	C62100:	MOVE	17,[123456,,765432]	;PRELOAD AC WITH 123456,,765432
 36944	053440	474 00 0 00 000000 		SETO	0,			;PRELOAD E WITH -1,,-1
 36945	053441	452 17 0 00 000000 		SETCAM	17,0			;*SETCAM SHOULD PLACE
 36946										;654321,,012345 INTO E
 36947	053442	312 17 0 00 070376 		CAME	17,[123456,,765432]	;PASS IF C(AC) IS UNCHANGED
 36948						STOP^
 36949	053443	254 04 0 00 053444 		HALT	.+1		;TEST FAILED IF PROGRAM HALTS HERE
 36950	053444	324 00 0 00 053445 		JUMPA	.+1		;IF TEST FAILS, CHANGE THIS INSTRUCTION (JUMPA .+1) TO
 36951									;JUMPA X (X IS THE ADDRESS OF THE FIRST INSTRUCTION
 36952									;IN THE SUBTEST) TO LOOP ON ERROR^
 36953	053445	312 00 0 00 070711 		CAME	0,[654321,,12345]	;PASS IF C(E)=654321,,012345
 36954						STOP^
 36955	053446	254 04 0 00 053447 		HALT	.+1		;TEST FAILED IF PROGRAM HALTS HERE
 36956	053447	324 00 0 00 053450 		JUMPA	.+1		;IF TEST FAILS, CHANGE THIS INSTRUCTION (JUMPA .+1) TO
 36957									;JUMPA X (X IS THE ADDRESS OF THE FIRST INSTRUCTION
 36958									;IN THE SUBTEST) TO LOOP ON ERROR^
 36959
 36960					;**********
 36961
 36962					;THIS TEST VERIFIES THAT SETCAB PLACES THE COMPLEMENT OF C(AC)
 36963					;INTO BOTH AC AND E.
 36964					;IN THIS CASE, C(AC)=123456,,765432 AND C(E)=-1,,-1.
 36965					;HENCE, THE RESULT IN BOTH AC AND E SHOULD BE 654321,,012345
 36966
 36967	053450	200 17 0 00 070376 	C62200:	MOVE	17,[123456,,765432]	;PRELOAD AC WITH 123456,,76543
 36968	053451	474 00 0 00 000000 		SETO	0,			;PRELOAD E WITH -1,,-1
 36969	053452	453 17 0 00 000000 		SETCAB	17,0			;*SETCAB SHOULD PLACE
 36970										;654321,,012345 INTO BOTH AC AND E
 36971	053453	312 17 0 00 070711 		CAME	17,[654321,,12345]	;PASS IF C(AC)=654321,,012345
 36972						STOP^
 36973	053454	254 04 0 00 053455 		HALT	.+1		;TEST FAILED IF PROGRAM HALTS HERE
 36974	053455	324 00 0 00 053456 		JUMPA	.+1		;IF TEST FAILS, CHANGE THIS INSTRUCTION (JUMPA .+1) TO
 36975									;JUMPA X (X IS THE ADDRESS OF THE FIRST INSTRUCTION
 36976									;IN THE SUBTEST) TO LOOP ON ERROR^
 36977	053456	312 00 0 00 070711 		CAME	0,[654321,,12345]	;PASS IF C(E)=654321,,012345
 36978						STOP^
 36979	053457	254 04 0 00 053460 		HALT	.+1		;TEST FAILED IF PROGRAM HALTS HERE
 36980	053460	324 00 0 00 053461 		JUMPA	.+1		;IF TEST FAILS, CHANGE THIS INSTRUCTION (JUMPA .+1) TO
 36981									;JUMPA X (X IS THE ADDRESS OF THE FIRST INSTRUCTION
 36982									;IN THE SUBTEST) TO LOOP ON ERROR^
 36983
 36984					;**********
DFKAA PDP-10 KL10 BASIC INSTRUCTION DIAGNOSTIC (1) VER 0,2	MACRO %53B(1254)-4 11:50 11-Nov-24 Page 19
DFKAA6	MAC	13-Jan-89 10:22		TEST OF MSCL BOOLEAN INSTRUCTIONS

 36985					;THIS TEST VERIFIES THAT ORCAI PLACES THE INCLUSIVE OR FUNCTION
 36986					;OF THE WORD 0,,E AND THE COMPLEMENT OF C(AC) INTO THE AC.
 36987					;IN THIS CASE, C(AC)=777000,,123477 AND E=0,,765401
 36988					;HENCE, THE RESULT IN THE AC SHOULD BE 000777,,775701
 36989
 36990	053461	200 16 0 00 070712 	C62300:	MOVE	16,[777000,,123477]	;PRELOAD AC WITH 777000,,123477
 36991	053462	455 16 0 00 765401 		ORCAI	16,765401		;*ORCAI SHOULD PLACE 000777,,767477
 36992										;INTO THE AC
 36993	053463	312 16 0 00 070713 		CAME	16,[777,,775701]	;PASS IF C(AC)=000777,,775701
 36994						STOP^
 36995	053464	254 04 0 00 053465 		HALT	.+1		;TEST FAILED IF PROGRAM HALTS HERE
 36996	053465	324 00 0 00 053466 		JUMPA	.+1		;IF TEST FAILS, CHANGE THIS INSTRUCTION (JUMPA .+1) TO
 36997									;JUMPA X (X IS THE ADDRESS OF THE FIRST INSTRUCTION
 36998									;IN THE SUBTEST) TO LOOP ON ERROR^
 36999
 37000					;**********
 37001
 37002					;THIS TEST VERIFIES THAT ORCAM PLACES THE INCLUSIVE OR FUNCTION
 37003					;OF C(E) AND THE COMPLEMENT OF C(AC) INTO
 37004					;IN THIS CASE, C(AC)=777000,,123477 AND C(E)=707070,,707072
 37005					;HENCE, THE RESULT IN E SHOULD BE 707777,,757372
 37006
 37007	053466	200 15 0 00 070712 	C62400:	MOVE	15,[777000,,123477]	;PRELOAD AC WITH 777000,,123477
 37008	053467	200 16 0 00 070714 		MOVE	16,[707070,,707072]	;PRELOAD E WITH 707070,,707072
 37009	053470	456 15 0 00 000016 		ORCAM	15,16			;*ORCAM SHOULD PLACE 707777,,757372
 37010										;INTO E
 37011	053471	312 15 0 00 070712 		CAME	15,[777000,,123477]	;PASS IF C(AC) IS UNCHANGED
 37012						STOP^
 37013	053472	254 04 0 00 053473 		HALT	.+1		;TEST FAILED IF PROGRAM HALTS HERE
 37014	053473	324 00 0 00 053474 		JUMPA	.+1		;IF TEST FAILS, CHANGE THIS INSTRUCTION (JUMPA .+1) TO
 37015									;JUMPA X (X IS THE ADDRESS OF THE FIRST INSTRUCTION
 37016									;IN THE SUBTEST) TO LOOP ON ERROR^
 37017	053474	312 16 0 00 070715 		CAME	16,[707777,,757372]	;PASS IF C(E)=707777,,757372
 37018						STOP^
 37019	053475	254 04 0 00 053476 		HALT	.+1		;TEST FAILED IF PROGRAM HALTS HERE
 37020	053476	324 00 0 00 053477 		JUMPA	.+1		;IF TEST FAILS, CHANGE THIS INSTRUCTION (JUMPA .+1) TO
 37021									;JUMPA X (X IS THE ADDRESS OF THE FIRST INSTRUCTION
 37022									;IN THE SUBTEST) TO LOOP ON ERROR^
 37023
DFKAA PDP-10 KL10 BASIC INSTRUCTION DIAGNOSTIC (1) VER 0,2	MACRO %53B(1254)-4 11:50 11-Nov-24 Page 20
DFKAA6	MAC	13-Jan-89 10:22		TEST OF MSCL BOOLEAN INSTRUCTIONS

 37024					;**********
 37025					;THIS TEST VERIFIES THAT ORCAB PLACES THE INCLUSIVE OR FUNCTION
 37026					;OF C(E) AND THE COMPLEMENT OF C(AC) INTO BOTH AC AND E.
 37027					;IN THIS CASE, C(AC)=777000,,123477 AND C(E)=707070,,707072
 37028					;HENCE, THE RESULT IN BOTH AC AND E SHOULD BE 707777,,757372
 37029
 37030	053477	200 15 0 00 070712 	C62500:	MOVE	15,[777000,,123477]	;PRELOAD AC WITH 777000,,123477
 37031	053500	200 16 0 00 070714 		MOVE	16,[707070,,707072]	;PRELOAD E WITH 707070,,707072
 37032	053501	457 15 0 00 000016 		ORCAB	15,16			;*ORCAB SHOULD PLACE 707777,,757372
 37033										;INTO BOTHE AC AND E
 37034	053502	312 15 0 00 070715 		CAME	15,[707777,,757372]	;PASS IF C(AC)=707777,,757372
 37035						STOP^
 37036	053503	254 04 0 00 053504 		HALT	.+1		;TEST FAILED IF PROGRAM HALTS HERE
 37037	053504	324 00 0 00 053505 		JUMPA	.+1		;IF TEST FAILS, CHANGE THIS INSTRUCTION (JUMPA .+1) TO
 37038									;JUMPA X (X IS THE ADDRESS OF THE FIRST INSTRUCTION
 37039									;IN THE SUBTEST) TO LOOP ON ERROR^
 37040	053505	312 16 0 00 070715 		CAME	16,[707777,,757372]	;PASS IF C(E)=707777,,757372
 37041						STOP^
 37042	053506	254 04 0 00 053507 		HALT	.+1		;TEST FAILED IF PROGRAM HALTS HERE
 37043	053507	324 00 0 00 053510 		JUMPA	.+1		;IF TEST FAILS, CHANGE THIS INSTRUCTION (JUMPA .+1) TO
 37044									;JUMPA X (X IS THE ADDRESS OF THE FIRST INSTRUCTION
 37045									;IN THE SUBTEST) TO LOOP ON ERROR^
 37046
 37047					;**********
 37048
 37049					;THIS TEST VERIFIES THAT SETCMI PLACES THE COMPLEMENT OF THE
 37050					;WORD 0,,E INTO THE AC
 37051					;IN THIS CASE, C(AC)=777000,,123456 AND E=0,,707070
 37052					;HENCE, THE RESULT IN THE AC SHOULD BE -1,,070707
 37053
 37054	053510	200 00 0 00 070676 	C62600:	MOVE	0,[777000,,123456]	;PRELOAD AC WITH 777000,,123456
 37055	053511	461 00 0 00 707070 		SETCMI	0,707070		;*SETCMI SHOULD PLACE -1,,070707
 37056										;INTO THE AC
 37057	053512	312 00 0 00 070716 		CAME	0,[-1,,070707]		;PASS IF C(AC)=-1,,070707
 37058						STOP^
 37059	053513	254 04 0 00 053514 		HALT	.+1		;TEST FAILED IF PROGRAM HALTS HERE
 37060	053514	324 00 0 00 053515 		JUMPA	.+1		;IF TEST FAILS, CHANGE THIS INSTRUCTION (JUMPA .+1) TO
 37061									;JUMPA X (X IS THE ADDRESS OF THE FIRST INSTRUCTION
 37062									;IN THE SUBTEST) TO LOOP ON ERROR^
 37063
 37064					;**********
DFKAA PDP-10 KL10 BASIC INSTRUCTION DIAGNOSTIC (1) VER 0,2	MACRO %53B(1254)-4 11:50 11-Nov-24 Page 21
DFKAA6	MAC	13-Jan-89 10:22		TEST OF MSCL BOOLEAN INSTRUCTIONS

 37065					;THIS TEST VERIFIES THAT SETCMM PLACES THE COMPLEMENT OF C(E)
 37066					;INTO E.
 37067					;IN THIS CASE, C(E)=123456,,765432 AND C(AC)=-1,,-1.
 37068					;HENCE, THE RESULT IN E SHOULD BE 654321,,012345
 37069
 37070	053515	200 17 0 00 070376 	C62700:	MOVE	17,[123456,,765432]	;PRELOAD E WITH 123456,,76543
 37071	053516	474 00 0 00 000000 		SETO	0,			;PRELOAD AC WITH -1,,-1
 37072	053517	462 00 0 00 000017 		SETCMM	0,17			;*SETCMM SHOULD PLACE
 37073										;654321,012345 INTO E
 37074	053520	312 00 0 00 070254 		CAME	0,[-1]			;PASS IF C(AC) UNCHANGED
 37075						STOP^
 37076	053521	254 04 0 00 053522 		HALT	.+1		;TEST FAILED IF PROGRAM HALTS HERE
 37077	053522	324 00 0 00 053523 		JUMPA	.+1		;IF TEST FAILS, CHANGE THIS INSTRUCTION (JUMPA .+1) TO
 37078									;JUMPA X (X IS THE ADDRESS OF THE FIRST INSTRUCTION
 37079									;IN THE SUBTEST) TO LOOP ON ERROR^
 37080	053523	312 17 0 00 070711 		CAME	17,[654321,,12345]	;PASS IF C(E)=654321,,012345
 37081						STOP^
 37082	053524	254 04 0 00 053525 		HALT	.+1		;TEST FAILED IF PROGRAM HALTS HERE
 37083	053525	324 00 0 00 053526 		JUMPA	.+1		;IF TEST FAILS, CHANGE THIS INSTRUCTION (JUMPA .+1) TO
 37084									;JUMPA X (X IS THE ADDRESS OF THE FIRST INSTRUCTION
 37085									;IN THE SUBTEST) TO LOOP ON ERROR^
 37086
 37087					;**********
 37088
 37089					;THIS TEST VERIFIES THAT SETCMB PLACES THE COMPLEMENT OF C(E)
 37090					;INTO BOTH AC AND E.
 37091					;IN THIS CASE, C(E)=123456,,765432 AND C(AC)=-1,,-1.
 37092					;HENCE, THE RESULT IN BOTH AC AND E SHOULD BE 654321,,012345
 37093
 37094	053526	200 17 0 00 070376 	C63000:	MOVE	17,[123456,,765432]	;PRELOAD E WITH 123456,,76543
 37095	053527	474 00 0 00 000000 		SETO	0,			;PRELOAD AC WITH -1,,-1
 37096	053530	463 00 0 00 000017 		SETCMB	0,17			;*SETCMB SHOULD PLACE
 37097										;654321,,012345 INTO BOTH AC AND E
 37098	053531	312 00 0 00 070711 		CAME	0,[654321,,12345]	;PASS IF C(AC)=654321,,012345
 37099						STOP^
 37100	053532	254 04 0 00 053533 		HALT	.+1		;TEST FAILED IF PROGRAM HALTS HERE
 37101	053533	324 00 0 00 053534 		JUMPA	.+1		;IF TEST FAILS, CHANGE THIS INSTRUCTION (JUMPA .+1) TO
 37102									;JUMPA X (X IS THE ADDRESS OF THE FIRST INSTRUCTION
 37103									;IN THE SUBTEST) TO LOOP ON ERROR^
 37104	053534	312 17 0 00 070711 		CAME	17,[654321,,12345]	;PASS IF C(E)=654321,,012345
 37105						STOP^
 37106	053535	254 04 0 00 053536 		HALT	.+1		;TEST FAILED IF PROGRAM HALTS HERE
 37107	053536	324 00 0 00 053537 		JUMPA	.+1		;IF TEST FAILS, CHANGE THIS INSTRUCTION (JUMPA .+1) TO
 37108									;JUMPA X (X IS THE ADDRESS OF THE FIRST INSTRUCTION
 37109									;IN THE SUBTEST) TO LOOP ON ERROR^
 37110
 37111					;**********
DFKAA PDP-10 KL10 BASIC INSTRUCTION DIAGNOSTIC (1) VER 0,2	MACRO %53B(1254)-4 11:50 11-Nov-24 Page 22
DFKAA6	MAC	13-Jan-89 10:22		TEST OF MSCL BOOLEAN INSTRUCTIONS

 37112					;THIS TEST VERIFIES THAT ORCMI PLACES THE INCLUSIVE OR FUNCTION
 37113					;OF C(AC) AND THE COMPLEMENT OF THE WORD 0,,E INTO THE AC.
 37114					;IN THIS CASE, C(AC)=777000,,123477 AND E=0,,765401
 37115					;HENCE, THE RESULT IN THE AC SHOULD BE -1,,133777
 37116
 37117	053537	200 16 0 00 070712 	C63100:	MOVE	16,[777000,,123477]	;PRELOAD AC WITH 777000,,123477
 37118	053540	465 16 0 00 765401 		ORCMI	16,765401		;*ORCMI SHOULD PLACE -1,,133777
 37119										;INTO THE AC
 37120	053541	312 16 0 00 070717 		CAME	16,[-1,,133777]		;PASS IF C(AC)=-1,,133777
 37121						STOP^
 37122	053542	254 04 0 00 053543 		HALT	.+1		;TEST FAILED IF PROGRAM HALTS HERE
 37123	053543	324 00 0 00 053544 		JUMPA	.+1		;IF TEST FAILS, CHANGE THIS INSTRUCTION (JUMPA .+1) TO
 37124									;JUMPA X (X IS THE ADDRESS OF THE FIRST INSTRUCTION
 37125									;IN THE SUBTEST) TO LOOP ON ERROR^
 37126
 37127					;**********
 37128
 37129					;THIS TEST VERIFIES THAT ORCMM PLACES THE INCLUSIVE OR FUNCTION
 37130					;OF C(AC) AND THE COMPLEMENT OC C(E) INTO
 37131					;IN THIS CASE, C(E)=777000,,123477 AND C (AC)=707070,,707072
 37132					;HENCE, THE RESULT IN E SHOULD BE 707777,,757372
 37133
 37134	053544	200 15 0 00 070712 	C63200:	MOVE	15,[777000,,123477]	;PRELOAD E WITH 777000,,123477
 37135	053545	200 16 0 00 070714 		MOVE	16,[707070,,707072]	;PRELOAD AC WITH 707070,,707072
 37136	053546	466 16 0 00 000015 		ORCMM	16,15			;*ORCMM SHOULD PLACE 707777,,757372
 37137										;INTO E
 37138	053547	312 16 0 00 070714 		CAME	16,[707070,,707072]	;PASS IF C(AC) IS UNCHANGED
 37139						STOP^
 37140	053550	254 04 0 00 053551 		HALT	.+1		;TEST FAILED IF PROGRAM HALTS HERE
 37141	053551	324 00 0 00 053552 		JUMPA	.+1		;IF TEST FAILS, CHANGE THIS INSTRUCTION (JUMPA .+1) TO
 37142									;JUMPA X (X IS THE ADDRESS OF THE FIRST INSTRUCTION
 37143									;IN THE SUBTEST) TO LOOP ON ERROR^
 37144	053552	312 15 0 00 070715 		CAME	15,[707777,,757372]	;PASS IF C(E)=707777,,757372
 37145						STOP^
 37146	053553	254 04 0 00 053554 		HALT	.+1		;TEST FAILED IF PROGRAM HALTS HERE
 37147	053554	324 00 0 00 053555 		JUMPA	.+1		;IF TEST FAILS, CHANGE THIS INSTRUCTION (JUMPA .+1) TO
 37148									;JUMPA X (X IS THE ADDRESS OF THE FIRST INSTRUCTION
 37149									;IN THE SUBTEST) TO LOOP ON ERROR^
 37150
 37151					;**********
DFKAA PDP-10 KL10 BASIC INSTRUCTION DIAGNOSTIC (1) VER 0,2	MACRO %53B(1254)-4 11:50 11-Nov-24 Page 23
DFKAA6	MAC	13-Jan-89 10:22		TEST OF MSCL BOOLEAN INSTRUCTIONS

 37152					;THIS TEST VERIFIES THAT ORCMB PLACES THE INCLUSIVE OR FUNCTION
 37153					;OF C(AC) AND THE COMPLEMENT OF C(E) INTO BOTH AC AND E.
 37154					;IN THIS CASE, C(E)=777000,,123477 AND C(AC)=707070,,707072
 37155					;HENCE, THE RESULT IN BOTH AC AND E SHOULD BE 707777,,757372
 37156
 37157	053555	200 15 0 00 070712 	C63300:	MOVE	15,[777000,,123477]  ;PRELOAD E WITH 777000,,123477
 37158	053556	200 16 0 00 070714 		MOVE	16,[707070,,707072]  ;PRELOAD AC WITH 707070,,707072
 37159	053557	467 16 0 00 000015 		ORCMB	16,15		;*ORCMB SHOULD PLACE 707777,,757372
 37160									;INTO BOTH AC AND E
 37161	053560	312 16 0 00 070715 		CAME	16,[707777,,757372]  ;PASS IF C(AC)=707777,,757372
 37162						STOP^
 37163	053561	254 04 0 00 053562 		HALT	.+1		;TEST FAILED IF PROGRAM HALTS HERE
 37164	053562	324 00 0 00 053563 		JUMPA	.+1		;IF TEST FAILS, CHANGE THIS INSTRUCTION (JUMPA .+1) TO
 37165									;JUMPA X (X IS THE ADDRESS OF THE FIRST INSTRUCTION
 37166									;IN THE SUBTEST) TO LOOP ON ERROR^
 37167	053563	312 15 0 00 070715 		CAME	15,[707777,,757372]  ;PASS OF C(E)=707777,,757372
 37168						STOP^
 37169	053564	254 04 0 00 053565 		HALT	.+1		;TEST FAILED IF PROGRAM HALTS HERE
 37170	053565	324 00 0 00 053566 		JUMPA	.+1		;IF TEST FAILS, CHANGE THIS INSTRUCTION (JUMPA .+1) TO
 37171									;JUMPA X (X IS THE ADDRESS OF THE FIRST INSTRUCTION
 37172									;IN THE SUBTEST) TO LOOP ON ERROR^
 37173
 37174					;**********
 37175
 37176					;THIS TEST VERIFIES THAT ORCBI PLACES THE LOGICAL INCLUSIVE OR
 37177					;FUNCTION OF THE COMPLEMENTS OF BOTH C(AC) AND THE WORD 0,,E INTO THE AC.
 37178					;IN THIS CASE, C(AC)=707070,,070706 AND E=0,,770011.
 37179					;HENCE, THE RESULT IN THE AC SHOULD BE -1,,707777
 37180
 37181	053566	200 15 0 00 070720 	C63400:	MOVE	15,[707070,,070706]  ;PRELOAD AC WITH 707070,,070706
 37182	053567	471 15 0 00 770011 		ORCBI	15,770011	;*ORCBI SHOULD PLACE -1,,707777 INTO THE AC
 37183	053570	312 15 0 00 070721 		CAME	15,[-1,,707777]	;PASS IF C(AC)=-1,707777
 37184						STOP^
 37185	053571	254 04 0 00 053572 		HALT	.+1		;TEST FAILED IF PROGRAM HALTS HERE
 37186	053572	324 00 0 00 053573 		JUMPA	.+1		;IF TEST FAILS, CHANGE THIS INSTRUCTION (JUMPA .+1) TO
 37187									;JUMPA X (X IS THE ADDRESS OF THE FIRST INSTRUCTION
 37188									;IN THE SUBTEST) TO LOOP ON ERROR^
 37189
 37190					;**********
DFKAA PDP-10 KL10 BASIC INSTRUCTION DIAGNOSTIC (1) VER 0,2	MACRO %53B(1254)-4 11:50 11-Nov-24 Page 24
DFKAA6	MAC	13-Jan-89 10:22		TEST OF MSCL BOOLEAN INSTRUCTIONS

 37191					;THIS TEST VERIFIES THAT ORCBM PLACES THE LOGICAL INCLUSIVE OR
 37192					;FUNCTION OF THE COMPLEMENTS OF BOTH C(AC) AND C(E) INTO
 37193					;IN THIS CASE, C(AC)=123456,,770077 AND C(E)=777001,,123324
 37194					;HENCE, THE RESULT IN E SHOULD BE 654777,,657753
 37195
 37196	053573	200 14 0 00 070722 	C63500:	MOVE	14,[123456,,770077]  ;PRELOAD AC WITH 123456,,770077
 37197	053574	200 15 0 00 070723 		MOVE	15,[777001,,123324]  ;PRELOAD E WITH 777001,,123324
 37198	053575	472 14 0 00 000015 		ORCBM	14,15		;*ORCBM SHOULD PLACE 654777,,657753
 37199									;INTO E
 37200	053576	312 14 0 00 070722 		CAME	14,[123456,,770077]  ;PASS IF C(AC) IS UNCHANGED
 37201						STOP^
 37202	053577	254 04 0 00 053600 		HALT	.+1		;TEST FAILED IF PROGRAM HALTS HERE
 37203	053600	324 00 0 00 053601 		JUMPA	.+1		;IF TEST FAILS, CHANGE THIS INSTRUCTION (JUMPA .+1) TO
 37204									;JUMPA X (X IS THE ADDRESS OF THE FIRST INSTRUCTION
 37205									;IN THE SUBTEST) TO LOOP ON ERROR^
 37206	053601	312 15 0 00 070724 		CAME	15,[654777,,657753]   ;PASS IF C(E)=654777,,657753
 37207						STOP^
 37208	053602	254 04 0 00 053603 		HALT	.+1		;TEST FAILED IF PROGRAM HALTS HERE
 37209	053603	324 00 0 00 053604 		JUMPA	.+1		;IF TEST FAILS, CHANGE THIS INSTRUCTION (JUMPA .+1) TO
 37210									;JUMPA X (X IS THE ADDRESS OF THE FIRST INSTRUCTION
 37211									;IN THE SUBTEST) TO LOOP ON ERROR^
 37212
 37213					;**********
 37214
 37215					;THIS TEST VERIFIES THAT ORCBB PLACES THE LOGICAL INCLUSIVE OR
 37216					;FUNCTIONOF THE COMPLEMENTS OF BOTH C(AC) AND C(E) INTO BOTH AC AND E
 37217					;IN THIS CASE, C(AC)=123456,,770077 AND C(E)=777001,,657753
 37218
 37219	053604	200 14 0 00 070722 	C63600:	MOVE	14,[123456,,770077]  ;PRELOAD AC WITH 123456,,770077
 37220	053605	200 15 0 00 070723 		MOVE	15,[777001,,123324]  ;PRELOAD E WITH 777001,,123324
 37221	053606	473 14 0 00 000015 		ORCBB	14,15		;*ORCBB SHOULD PLACE 654777,,657753
 37222									;INTO BOTH AC AND E
 37223	053607	312 14 0 00 070724 		CAME	14,[654777,,657753]  ;PASS IF C(AC)=654777,,657753
 37224						STOP^
 37225	053610	254 04 0 00 053611 		HALT	.+1		;TEST FAILED IF PROGRAM HALTS HERE
 37226	053611	324 00 0 00 053612 		JUMPA	.+1		;IF TEST FAILS, CHANGE THIS INSTRUCTION (JUMPA .+1) TO
 37227									;JUMPA X (X IS THE ADDRESS OF THE FIRST INSTRUCTION
 37228									;IN THE SUBTEST) TO LOOP ON ERROR^
 37229	053612	312 15 0 00 070724 		CAME	15,[654777,,657753]  ;PASS IF C(E)=654777,,657753
 37230						STOP^
 37231	053613	254 04 0 00 053614 		HALT	.+1		;TEST FAILED IF PROGRAM HALTS HERE
 37232	053614	324 00 0 00 053615 		JUMPA	.+1		;IF TEST FAILS, CHANGE THIS INSTRUCTION (JUMPA .+1) TO
 37233									;JUMPA X (X IS THE ADDRESS OF THE FIRST INSTRUCTION
 37234									;IN THE SUBTEST) TO LOOP ON ERROR^
 37235
 37236					;**********
DFKAA PDP-10 KL10 BASIC INSTRUCTION DIAGNOSTIC (1) VER 0,2	MACRO %53B(1254)-4 11:50 11-Nov-24 Page 25
DFKAA6	MAC	13-Jan-89 10:22		TEST OF MSCL HWT INSTRUCTIONS

 37237					SUBTTL	TEST OF MSCL HWT INSTRUCTIONS
 37238
 37239					;**********
 37240
 37241					;THIS TEST VERIFIES THAT HLLI CLEARS AC LEFT
 37242					;IN THIS CASE, C(AC)=707070,,123456 AND E=777000
 37243					;HENCE, THE RESULT IN THE AC SHOULD BE 0,,123456
 37244
 37245	053615	200 17 0 00 070671 	C63700:	MOVE	17,[707070,,123456]	;PRELOAD AC WITH 707070,,123456
 37246	053616	501 17 0 00 777000 		HLLI	17,777000	;*HLLI SHOULD PLACE 0,,123456 INTO THHE AC
 37247	053617	302 17 0 00 123456 		CAIE	17,123456	;PASS IF C(AC)=0,,123456
 37248						STOP^
 37249	053620	254 04 0 00 053621 		HALT	.+1		;TEST FAILED IF PROGRAM HALTS HERE
 37250	053621	324 00 0 00 053622 		JUMPA	.+1		;IF TEST FAILS, CHANGE THIS INSTRUCTION (JUMPA .+1) TO
 37251									;JUMPA X (X IS THE ADDRESS OF THE FIRST INSTRUCTION
 37252									;IN THE SUBTEST) TO LOOP ON ERROR^
 37253
 37254					;**********
 37255
 37256					;THIS TEST VERIFIES THAT HLLS PLACES C(E) INTO THE AC IF AC IS NON-ZERO
 37257					;AND IS A NO-OP IF AC=0
 37258					;IN THIS CASE, AC=0, C(AC)=-1,,-1 AND C(E)=123456,,765432
 37259					;HENCE, THE RESULTS IN AC AND E SHOULD BE -1,,-1
 37260					;AND 123456,,765432 RESPECTIVELY
 37261
 37262	053622	474 00 0 00 000000 	C64000:	SETO	0		;PRELOAD AC WITH -1,,-1
 37263	053623	200 02 0 00 070376 		MOVE	2,[123456,,765432]	;PRELOAD E WITH 123456,,765432
 37264	053624	503 00 0 00 000002 		HLLS	0,2		;*HLLS SHOULD NOT AFFECT AC OR E
 37265	053625	312 00 0 00 070254 		CAME	0,[-1]		;PASS IF C(AC) UNCHANGED
 37266						STOP^
 37267	053626	254 04 0 00 053627 		HALT	.+1		;TEST FAILED IF PROGRAM HALTS HERE
 37268	053627	324 00 0 00 053630 		JUMPA	.+1		;IF TEST FAILS, CHANGE THIS INSTRUCTION (JUMPA .+1) TO
 37269									;JUMPA X (X IS THE ADDRESS OF THE FIRST INSTRUCTION
 37270									;IN THE SUBTEST) TO LOOP ON ERROR^
 37271	053630	312 02 0 00 070376 		CAME	2,[123456,,765432]	;PASS IF C(C) IS UNCHANGED
 37272						STOP^
 37273	053631	254 04 0 00 053632 		HALT	.+1		;TEST FAILED IF PROGRAM HALTS HERE
 37274	053632	324 00 0 00 053633 		JUMPA	.+1		;IF TEST FAILS, CHANGE THIS INSTRUCTION (JUMPA .+1) TO
 37275									;JUMPA X (X IS THE ADDRESS OF THE FIRST INSTRUCTION
 37276									;IN THE SUBTEST) TO LOOP ON ERROR^
 37277
 37278					;**********
DFKAA PDP-10 KL10 BASIC INSTRUCTION DIAGNOSTIC (1) VER 0,2	MACRO %53B(1254)-4 11:50 11-Nov-24 Page 26
DFKAA6	MAC	13-Jan-89 10:22		TEST OF MSCL HWT INSTRUCTIONS

 37279					;THIS TEST VERIFIES THAT HLLS PLACES C(E) INTO THE AC IF AC IS NON-ZERO?
 37280					;AND IS A NO-OP IF AC=0
 37281					;IN THIS CASE, AC=1, C(AC)=1,,-1 AND C(E)=123456,,765432
 37282					;HENCE, THE RESULTS IN AC AND E WHOULD BE 123456,,765432
 37283					;AND 123456,,765432 RESPECTVIELY
 37284
 37285	053633	474 01 0 00 000000 	C64010:	SETO	1,		;PRELOAD AC WITH -1,,-1
 37286	053634	200 02 0 00 070376 		MOVE	2,[123456,,765432]	;PRELOAD E WITH 123456,,765432
 37287	053635	503 01 0 00 000002 		HLLS	1,2		;*HLLS SHOULD PLACE 123456,,765432 INTO THE AC
 37288	053636	312 01 0 00 070376 		CAME	1,[123456,,765432]	;PASS IF C(AC)=123456,,765432
 37289						STOP^
 37290	053637	254 04 0 00 053640 		HALT	.+1		;TEST FAILED IF PROGRAM HALTS HERE
 37291	053640	324 00 0 00 053641 		JUMPA	.+1		;IF TEST FAILS, CHANGE THIS INSTRUCTION (JUMPA .+1) TO
 37292									;JUMPA X (X IS THE ADDRESS OF THE FIRST INSTRUCTION
 37293									;IN THE SUBTEST) TO LOOP ON ERROR^
 37294	053641	312 02 0 00 070376 		CAME	2,[123456,,765432]	;PASS IF C(C) IS UNCHANGED
 37295						STOP^
 37296	053642	254 04 0 00 053643 		HALT	.+1		;TEST FAILED IF PROGRAM HALTS HERE
 37297	053643	324 00 0 00 053644 		JUMPA	.+1		;IF TEST FAILS, CHANGE THIS INSTRUCTION (JUMPA .+1) TO
 37298									;JUMPA X (X IS THE ADDRESS OF THE FIRST INSTRUCTION
 37299									;IN THE SUBTEST) TO LOOP ON ERROR^
 37300
 37301					;**********
 37302
 37303					;THIS TEST VERIFIES THAT HRLS PLACES C(E-RIGHT) INTO E-LEFT, BUT
 37304					;DOES NOT AFFECT E-RIGHT.  IF AC IS NON-ZERO, THE RESULT IN E
 37305					;IS ALSO PLACED INTO THE AC.
 37306					;IN THIS CASE, AC=0, C(AC)=1,,-1 AND C(E)=123456,707070
 37307					;HENCE, THE RESULTS IN AC AND E RESPECTIVELY SHOULD BE -1,,-1
 37308					;AND 707070,,707070.
 37309
 37310	053644	474 00 0 00 000000 	C64100:	SETO	0,		;PRELOAD AC WITH -1,,-1
 37311	053645	200 03 0 00 070725 		MOVE	3,[123456,,707070]	;PRELOAD E WITH 123456,,707070
 37312	053646	507 00 0 00 000003 		HRLS	0,3		;*HRLS SHOULD PLACE 707070,,707070
 37313									;INTO E.
 37314	053647	312 00 0 00 070254 		CAME	0,[-1]		;PASS IF C(AC) UNCHANGED
 37315						STOP^
 37316	053650	254 04 0 00 053651 		HALT	.+1		;TEST FAILED IF PROGRAM HALTS HERE
 37317	053651	324 00 0 00 053652 		JUMPA	.+1		;IF TEST FAILS, CHANGE THIS INSTRUCTION (JUMPA .+1) TO
 37318									;JUMPA X (X IS THE ADDRESS OF THE FIRST INSTRUCTION
 37319									;IN THE SUBTEST) TO LOOP ON ERROR^
 37320	053652	312 03 0 00 070332 		CAME	3,[707070,,707070]	;PASS IF C(E)=707070,,707070
 37321						STOP^
 37322	053653	254 04 0 00 053654 		HALT	.+1		;TEST FAILED IF PROGRAM HALTS HERE
 37323	053654	324 00 0 00 053655 		JUMPA	.+1		;IF TEST FAILS, CHANGE THIS INSTRUCTION (JUMPA .+1) TO
 37324									;JUMPA X (X IS THE ADDRESS OF THE FIRST INSTRUCTION
 37325									;IN THE SUBTEST) TO LOOP ON ERROR^
 37326
 37327					;**********
DFKAA PDP-10 KL10 BASIC INSTRUCTION DIAGNOSTIC (1) VER 0,2	MACRO %53B(1254)-4 11:50 11-Nov-24 Page 27
DFKAA6	MAC	13-Jan-89 10:22		TEST OF MSCL HWT INSTRUCTIONS

 37328					;THIS TEST VERIFIES THAT HRLS PLACES C(E-RIGHT) INTO E-LEFT, BUT
 37329					;DOES NOT AFFECT E-RIGHT.  IF AC IS NON-ZERO, THE RESULT IN E
 37330					;IS ALSO PLACED INTO THE AC.
 37331					;IN THIS CASE, AC=1, C(AC)=-1,,-1 AND C(E)=123456,,707070
 37332					;HENCE, THE RESULTS IN AC AND E RESPECTIVELY SHOULD BE 707070,,707070
 37333					;AND 707070,,707070.
 37334
 37335	053655	474 01 0 00 000000 	C64110:	SETO	1,		;PRELOAD AC WITH -1,,-1
 37336	053656	200 03 0 00 070725 		MOVE	3,[123456,,707070]	;PRELOAD E WITH 123456,,707070
 37337	053657	507 01 0 00 000003 		HRLS	1,3		;*HRLS SHOULD PLACE 707070,,707070
 37338									;INTO BOTH AC AND E.
 37339	053660	312 01 0 00 070332 		CAME	1,[707070,,707070]	;PASS IF C(AC)=707070,,707070
 37340						STOP^
 37341	053661	254 04 0 00 053662 		HALT	.+1		;TEST FAILED IF PROGRAM HALTS HERE
 37342	053662	324 00 0 00 053663 		JUMPA	.+1		;IF TEST FAILS, CHANGE THIS INSTRUCTION (JUMPA .+1) TO
 37343									;JUMPA X (X IS THE ADDRESS OF THE FIRST INSTRUCTION
 37344									;IN THE SUBTEST) TO LOOP ON ERROR^
 37345	053663	312 03 0 00 070332 		CAME	3,[707070,,707070]	;PASS IF C(E)=707070,,707070
 37346						STOP^
 37347	053664	254 04 0 00 053665 		HALT	.+1		;TEST FAILED IF PROGRAM HALTS HERE
 37348	053665	324 00 0 00 053666 		JUMPA	.+1		;IF TEST FAILS, CHANGE THIS INSTRUCTION (JUMPA .+1) TO
 37349									;JUMPA X (X IS THE ADDRESS OF THE FIRST INSTRUCTION
 37350									;IN THE SUBTEST) TO LOOP ON ERROR^
 37351
 37352					;**********
 37353
 37354					;THIS TEST VERIFIES THAN HLLZM PLACES C(AC-LEFT) INTO E-LEFT AND
 37355					;PLACES 0 INTO E-RIGHT
 37356					;IN THIS CASE, C(AC)=123456,,123422 AND C(E)=707070,717171
 37357					;HENCE, THE RESULT IN E SHOULD BE 123456,,0
 37358
 37359	053666	200 01 0 00 070726 	C64200:	MOVE	1,[123456,,123422]	;PRELOAD AC WITH 123456,,123422
 37360	053667	200 02 0 00 070727 		MOVE	2,[707070,,717171]	;PRELOAD AC WITH 707070,,717171
 37361	053670	512 01 0 00 000002 		HLLZM	1,2		;*HLLZM SHOULD PLACE 123456,,0 INTO E
 37362	053671	312 01 0 00 070726 		CAME	1,[123456,,123422]	;PASS IF C(AC) UNCHANGED
 37363						STOP^
 37364	053672	254 04 0 00 053673 		HALT	.+1		;TEST FAILED IF PROGRAM HALTS HERE
 37365	053673	324 00 0 00 053674 		JUMPA	.+1		;IF TEST FAILS, CHANGE THIS INSTRUCTION (JUMPA .+1) TO
 37366									;JUMPA X (X IS THE ADDRESS OF THE FIRST INSTRUCTION
 37367									;IN THE SUBTEST) TO LOOP ON ERROR^
 37368	053674	312 02 0 00 070377 		CAME	2,[123456,,0]	;PASS IF C(E)=123456,,0
 37369						STOP^
 37370	053675	254 04 0 00 053676 		HALT	.+1		;TEST FAILED IF PROGRAM HALTS HERE
 37371	053676	324 00 0 00 053677 		JUMPA	.+1		;IF TEST FAILS, CHANGE THIS INSTRUCTION (JUMPA .+1) TO
 37372									;JUMPA X (X IS THE ADDRESS OF THE FIRST INSTRUCTION
 37373									;IN THE SUBTEST) TO LOOP ON ERROR^
 37374
 37375					;**********
DFKAA PDP-10 KL10 BASIC INSTRUCTION DIAGNOSTIC (1) VER 0,2	MACRO %53B(1254)-4 11:50 11-Nov-24 Page 28
DFKAA6	MAC	13-Jan-89 10:22		TEST OF MSCL HWT INSTRUCTIONS

 37376					;THIS TEST VERIFIES THAT HLLZS CLEARS THE RIGHT HALF OF E, BUT DOESN'T
 37377					;AFFECT THE LEFT HALF OF E.  IF AC IS NON-ZERO, THE RESULT IN E IS
 37378					;ALSO PLACED INTO THE AC.
 37379					;IN THIS CASE, AC=0, C(AC)=-1,,-1 AND C(E)=123456,,707070
 37380					;HENCE, THE RESULTS IN AC AND E SHOULD BE -1,,-1
 37381					;AND 123456,,0 RESPECTIVELY
 37382
 37383	053677	474 00 0 00 000000 	C64300:	SETO	0,		;PRELOAD AC WITH -1,,-1
 37384	053700	200 17 0 00 070725 		MOVE	17,[123456,,707070]	;PRELOAD E WITH 123456,,707070
 37385	053701	513 00 0 00 000017 		HLLZS	0,17		;*HLLZS SHOULD PLACE 123456,,0 INTO E.
 37386	053702	312 00 0 00 070254 		CAME	0,[-1]		;PASS IF C(AC) UNCHANGED
 37387						STOP^
 37388	053703	254 04 0 00 053704 		HALT	.+1		;TEST FAILED IF PROGRAM HALTS HERE
 37389	053704	324 00 0 00 053705 		JUMPA	.+1		;IF TEST FAILS, CHANGE THIS INSTRUCTION (JUMPA .+1) TO
 37390									;JUMPA X (X IS THE ADDRESS OF THE FIRST INSTRUCTION
 37391									;IN THE SUBTEST) TO LOOP ON ERROR^
 37392	053705	312 17 0 00 070377 		CAME	17,[123456,,0]	;PASS IF C(E)=123456,,0
 37393						STOP^
 37394	053706	254 04 0 00 053707 		HALT	.+1		;TEST FAILED IF PROGRAM HALTS HERE
 37395	053707	324 00 0 00 053710 		JUMPA	.+1		;IF TEST FAILS, CHANGE THIS INSTRUCTION (JUMPA .+1) TO
 37396									;JUMPA X (X IS THE ADDRESS OF THE FIRST INSTRUCTION
 37397									;IN THE SUBTEST) TO LOOP ON ERROR^
 37398
 37399
 37400					;**********
 37401
 37402					;THIS TEST VERIFIES THAT HLLZS CLEARS THE RIGHT HALF OF E, BUT DOESN'T
 37403					;AFFECT THE LEFT HALF OF E.  IF AC IS NON-ZERO, THE RESULT IN E IS
 37404					;ALSO PLACED INTO THE AC.
 37405					;IN THIS CASE, AC=1, C(AC)=-1,,-1 AND C(E)=123456,,707070
 37406					;HENCE, THE RESULTS IN AC AND E SHOULD BE 123456,,0
 37407					;AND 123456,,0 RESPECTIVELY.
 37408
 37409	053710	474 01 0 00 000000 	C64310:	SETO	1,		;PRELOAD AC WITH -1,,-1
 37410	053711	200 17 0 00 070725 		MOVE	17,[123456,,707070]	;PRELOAD E WITH 123456,,707070
 37411	053712	513 01 0 00 000017 		HLLZS	1,17		;*HLLZS SHOULD PLACE 123456,,0 INTO
 37412									;BOTH AC AND E
 37413	053713	312 01 0 00 070377 		CAME	1,[123456,,0]	;PASS IF C(AC)=123456,,0
 37414						STOP^
 37415	053714	254 04 0 00 053715 		HALT	.+1		;TEST FAILED IF PROGRAM HALTS HERE
 37416	053715	324 00 0 00 053716 		JUMPA	.+1		;IF TEST FAILS, CHANGE THIS INSTRUCTION (JUMPA .+1) TO
 37417									;JUMPA X (X IS THE ADDRESS OF THE FIRST INSTRUCTION
 37418									;IN THE SUBTEST) TO LOOP ON ERROR^
 37419	053716	312 17 0 00 070377 		CAME	17,[123456,,0]	;PASS IF C(E)=123456,,0
 37420						STOP^
 37421	053717	254 04 0 00 053720 		HALT	.+1		;TEST FAILED IF PROGRAM HALTS HERE
 37422	053720	324 00 0 00 053721 		JUMPA	.+1		;IF TEST FAILS, CHANGE THIS INSTRUCTION (JUMPA .+1) TO
 37423									;JUMPA X (X IS THE ADDRESS OF THE FIRST INSTRUCTION
 37424									;IN THE SUBTEST) TO LOOP ON ERROR^
 37425
 37426					;**********
DFKAA PDP-10 KL10 BASIC INSTRUCTION DIAGNOSTIC (1) VER 0,2	MACRO %53B(1254)-4 11:50 11-Nov-24 Page 29
DFKAA6	MAC	13-Jan-89 10:22		TEST OF MSCL HWT INSTRUCTIONS

 37427					;THIS TEST VERIFIES THAT HRLZM PLACES C(AC-RIGHT) INTO E-LEFT AND
 37428					;PLACES O INTO E-RIGHT.
 37429					;IN THIS CASE, C(AC)=123456,,123422 AND C(E)=707070,,717171
 37430					;HENCE, THE RESULT IN E SHOULD BE 123422,,0
 37431
 37432	053721	200 01 0 00 070726 	C64400:	MOVE	1,[123456,,123422]	;PRELOAD AC WITH 123456,,123422
 37433	053722	200 02 0 00 070727 		MOVE	2,[707070,,717171]	;PRELOAD AC WITH 707070,,717171
 37434	053723	516 01 0 00 000002 		HRLZM	1,2		;*HRLZM SHOULD PLACE 123422,,0 INTO E
 37435	053724	312 01 0 00 070726 		CAME	1,[123456,,123422]	;PASS IF C(AC) UNCHANGED
 37436						STOP^
 37437	053725	254 04 0 00 053726 		HALT	.+1		;TEST FAILED IF PROGRAM HALTS HERE
 37438	053726	324 00 0 00 053727 		JUMPA	.+1		;IF TEST FAILS, CHANGE THIS INSTRUCTION (JUMPA .+1) TO
 37439									;JUMPA X (X IS THE ADDRESS OF THE FIRST INSTRUCTION
 37440									;IN THE SUBTEST) TO LOOP ON ERROR^
 37441	053727	312 02 0 00 070730 		CAME	2,[123422,,0]	;PASS IF C(E)=123422,,0
 37442						STOP^
 37443	053730	254 04 0 00 053731 		HALT	.+1		;TEST FAILED IF PROGRAM HALTS HERE
 37444	053731	324 00 0 00 053732 		JUMPA	.+1		;IF TEST FAILS, CHANGE THIS INSTRUCTION (JUMPA .+1) TO
 37445									;JUMPA X (X IS THE ADDRESS OF THE FIRST INSTRUCTION
 37446									;IN THE SUBTEST) TO LOOP ON ERROR^
 37447
 37448					;**********
 37449
 37450					;THIS TEST VERIFIES THAT HRLZS PLACES C(E-RIGHT) INTO E-LEFT AND
 37451					;CLEARS E-RIGHT. IF AC IS NON-ZERO, THE RESULT IN E IS ALSO
 37452					;PLACED INTO THE AC.
 37453					;IN THIS CASE, AC=0, C(AC)=-1,,-1 AND C(E)=123456,,707076
 37454					;HENCE, THE RESULTS IN AC AND E RESPECTIVELY SHOULD BE -1,,-1
 37455					;AND 707076,,0
 37456
 37457	053732	474 00 0 00 000000 	C64500:	SETO	0,		;PRELOAD AC WITH -1,,-1
 37458	053733	200 16 0 00 070731 		MOVE	16,[123456,,707076]	;PRELOAD E WITH 123456,,707076
 37459	053734	517 00 0 00 000016 		HRLZS	0,16		;*HRLZS SHOULD PLACE 707076,,0
 37460									;INTO E.
 37461	053735	312 00 0 00 070254 		CAME	0,[-1]		;PASS IF C(AC) UNCHANGED
 37462						STOP^
 37463	053736	254 04 0 00 053737 		HALT	.+1		;TEST FAILED IF PROGRAM HALTS HERE
 37464	053737	324 00 0 00 053740 		JUMPA	.+1		;IF TEST FAILS, CHANGE THIS INSTRUCTION (JUMPA .+1) TO
 37465									;JUMPA X (X IS THE ADDRESS OF THE FIRST INSTRUCTION
 37466									;IN THE SUBTEST) TO LOOP ON ERROR^
 37467	053740	312 16 0 00 070732 		CAME	16,[707076,,0]	;PASS IF C(AC)=707076,,0
 37468						STOP^
 37469	053741	254 04 0 00 053742 		HALT	.+1		;TEST FAILED IF PROGRAM HALTS HERE
 37470	053742	324 00 0 00 053743 		JUMPA	.+1		;IF TEST FAILS, CHANGE THIS INSTRUCTION (JUMPA .+1) TO
 37471									;JUMPA X (X IS THE ADDRESS OF THE FIRST INSTRUCTION
 37472									;IN THE SUBTEST) TO LOOP ON ERROR^
 37473
 37474					;**********
DFKAA PDP-10 KL10 BASIC INSTRUCTION DIAGNOSTIC (1) VER 0,2	MACRO %53B(1254)-4 11:50 11-Nov-24 Page 30
DFKAA6	MAC	13-Jan-89 10:22		TEST OF MSCL HWT INSTRUCTIONS

 37475					;THIS TEST VERIFIES THAT HRLZS PLACES C(E-RIGHT) INTO E-LEFT AND
 37476					;CLEARS E-RIGHT.  IF AC IS NON-ZERO, THE RESULT IN E IS ALSO
 37477					;PLACED INTO THE AC.
 37478					;IN THIS CASE, AC=1, C(AC)=-1,,-1 AND C(E)=123456,,707076
 37479					;HENCE, THE RESULTS IN AC AND E RESPECTIVELY SHOULD BE 707076,,0
 37480					;AND 707076,,0
 37481
 37482	053743	474 01 0 00 000000 	C64510:	SETO	1,		;PRELOAD AC WITH -1,,-1
 37483	053744	200 16 0 00 070731 		MOVE	16,[123456,,707076]	;PRELOAD E WITH 123456,,707076
 37484	053745	517 01 0 00 000016 		HRLZS	1,16		;*HRLZS SHOULD PLACE 707076,,0
 37485									;INTO BOTH AC AND E.
 37486	053746	312 01 0 00 070732 		CAME	1,[707076,,0]	;PASS IF C(AC)=707076,,0
 37487						STOP^
 37488	053747	254 04 0 00 053750 		HALT	.+1		;TEST FAILED IF PROGRAM HALTS HERE
 37489	053750	324 00 0 00 053751 		JUMPA	.+1		;IF TEST FAILS, CHANGE THIS INSTRUCTION (JUMPA .+1) TO
 37490									;JUMPA X (X IS THE ADDRESS OF THE FIRST INSTRUCTION
 37491									;IN THE SUBTEST) TO LOOP ON ERROR^
 37492	053751	312 16 0 00 070732 		CAME	16,[707076,,0]	;PASS IF C(AC)=707076,,0
 37493						STOP^
 37494	053752	254 04 0 00 053753 		HALT	.+1		;TEST FAILED IF PROGRAM HALTS HERE
 37495	053753	324 00 0 00 053754 		JUMPA	.+1		;IF TEST FAILS, CHANGE THIS INSTRUCTION (JUMPA .+1) TO
 37496									;JUMPA X (X IS THE ADDRESS OF THE FIRST INSTRUCTION
 37497									;IN THE SUBTEST) TO LOOP ON ERROR^
 37498
 37499					;**********
 37500
 37501					;THIS TEST VERIFIES THAT HLLOM PLACES C(AC-LEFT) INTO E-LEFT AND
 37502					;PLACES -1 INTO E-RIGHT.
 37503					;IN THIS CASE, C(AC)=123456,,123422 AND C(E)=707070,,717171
 37504					;HENCE, THE RESULT IN E SHOULD BE 123456,,-1.
 37505
 37506	053754	200 01 0 00 070726 	C64600:	MOVE	1,[123456,,123422]	;PRELOAD AC WITH 123456,,123422
 37507	053755	200 02 0 00 070727 		MOVE	2,[707070,,717171]	;PRELOAD AC WITH 707070,,717171
 37508	053756	522 01 0 00 000002 		HLLOM	1,2		;*HLLOM SHOULD PLACE 123456,,-1 INTO E
 37509	053757	312 01 0 00 070726 		CAME	1,[123456,,123422]	;PASS IF C(AC) UNCHANGED
 37510						STOP^
 37511	053760	254 04 0 00 053761 		HALT	.+1		;TEST FAILED IF PROGRAM HALTS HERE
 37512	053761	324 00 0 00 053762 		JUMPA	.+1		;IF TEST FAILS, CHANGE THIS INSTRUCTION (JUMPA .+1) TO
 37513									;JUMPA X (X IS THE ADDRESS OF THE FIRST INSTRUCTION
 37514									;IN THE SUBTEST) TO LOOP ON ERROR^
 37515	053762	312 02 0 00 070733 		CAME	2,[123456,,-1]	;PASS IF C(E)=123456,,-1
 37516						STOP^
 37517	053763	254 04 0 00 053764 		HALT	.+1		;TEST FAILED IF PROGRAM HALTS HERE
 37518	053764	324 00 0 00 053765 		JUMPA	.+1		;IF TEST FAILS, CHANGE THIS INSTRUCTION (JUMPA .+1) TO
 37519									;JUMPA X (X IS THE ADDRESS OF THE FIRST INSTRUCTION
 37520									;IN THE SUBTEST) TO LOOP ON ERROR^
 37521
 37522					;**********
DFKAA PDP-10 KL10 BASIC INSTRUCTION DIAGNOSTIC (1) VER 0,2	MACRO %53B(1254)-4 11:50 11-Nov-24 Page 31
DFKAA6	MAC	13-Jan-89 10:22		TEST OF MSCL HWT INSTRUCTIONS

 37523					;THIS TEST VERIFIES THAT HRLO, C(E-RIGHT) INTO AC=LEFT AND
 37524					;PLACES -1 INTO AC-RIGHT.  IN THIS CASE, C(AC)=123456,,135724 AND
 37525					;C(E)=765432,,246135.  HENCE, THE RESULT IN THE AC SHOULD BE 246135,,-1
 37526
 37527	053765	200 15 0 00 070734 	C64700:	MOVE	15,[123456,,135724]	;PRELOAD AC WITH 123456,,135724
 37528	053766	200 16 0 00 070735 		MOVE	16,[765432,,246135]	;PRELOAD E WITH 765432,,246135
 37529	053767	524 15 0 00 000016 		HRLO	15,16		;*HRLO SHOULD PLACE 246135,,-1 INTO AC
 37530	053770	312 15 0 00 070736 		CAME	15,[246135,,-1]	;PASS IF C(AC)=246135,,-1
 37531						STOP^
 37532	053771	254 04 0 00 053772 		HALT	.+1		;TEST FAILED IF PROGRAM HALTS HERE
 37533	053772	324 00 0 00 053773 		JUMPA	.+1		;IF TEST FAILS, CHANGE THIS INSTRUCTION (JUMPA .+1) TO
 37534									;JUMPA X (X IS THE ADDRESS OF THE FIRST INSTRUCTION
 37535									;IN THE SUBTEST) TO LOOP ON ERROR^
 37536	053773	312 16 0 00 070735 		CAME	16,[765432,,246135]	;PASS IF C(E) UNCHANGED
 37537						STOP^
 37538	053774	254 04 0 00 053775 		HALT	.+1		;TEST FAILED IF PROGRAM HALTS HERE
 37539	053775	324 00 0 00 053776 		JUMPA	.+1		;IF TEST FAILS, CHANGE THIS INSTRUCTION (JUMPA .+1) TO
 37540									;JUMPA X (X IS THE ADDRESS OF THE FIRST INSTRUCTION
 37541									;IN THE SUBTEST) TO LOOP ON ERROR^
 37542
 37543					;**********
 37544
 37545					;THIS TEST VERIFIES THAT HRLOI PLACES 0,,E INTO AC-LEFT AND
 37546					;PLACES ONES INTO AC-RIGHT.  IN THIS CASE, C(AC)=0 AND E=0,,123456.
 37547					;HENCE, THE RESULT IN THE AC SHOULD BE 123456,,-1
 37548
 37549	053776	400 14 0 00 000000 	C65000:	SETZ	14,		;CLEAR AC
 37550	053777	525 14 0 00 123456 		HRLOI	14,123456	;*HRLOI SHOULD PLACE 123456,,-1 INTO THE AC
 37551	054000	312 14 0 00 070733 		CAME	14,[123456,,-1]	;PASS IF C(AC)=123456,,-1
 37552						STOP^
 37553	054001	254 04 0 00 054002 		HALT	.+1		;TEST FAILED IF PROGRAM HALTS HERE
 37554	054002	324 00 0 00 054003 		JUMPA	.+1		;IF TEST FAILS, CHANGE THIS INSTRUCTION (JUMPA .+1) TO
 37555									;JUMPA X (X IS THE ADDRESS OF THE FIRST INSTRUCTION
 37556									;IN THE SUBTEST) TO LOOP ON ERROR^
 37557
 37558					;**********
DFKAA PDP-10 KL10 BASIC INSTRUCTION DIAGNOSTIC (1) VER 0,2	MACRO %53B(1254)-4 11:50 11-Nov-24 Page 32
DFKAA6	MAC	13-Jan-89 10:22		TEST OF MSCL HWT INSTRUCTIONS

 37559					;THIS TEST VERIFIES THAT HRLOM PLACES C(AC-RIGHT) INTO E-LEFT
 37560					;AND PLACES -1 INTO E-RIGHT. IN THIS CASE, C(E)=0 AND C(AC)=123123,,456765
 37561					;HENCE, THE RESULT IN E SHOULD BE 456765,,-1.
 37562
 37563	054003	402 00 0 00 000014 	C65100:	SETZM	14		;CLEAR E
 37564	054004	200 13 0 00 070737 		MOVE	13,[123123,,456765]	;PRELOAD AC WITH 123123,,456765
 37565	054005	526 13 0 00 000014 		HRLOM	13,14		;*HRLOM SHOULD PLACE 456765,,-1 INTO E
 37566	054006	312 13 0 00 070737 		CAME	13,[123123,,456765]	;PASS IF C(AC) UNCHANGED
 37567
 37568						STOP^
 37569	054007	254 04 0 00 054010 		HALT	.+1		;TEST FAILED IF PROGRAM HALTS HERE
 37570	054010	324 00 0 00 054011 		JUMPA	.+1		;IF TEST FAILS, CHANGE THIS INSTRUCTION (JUMPA .+1) TO
 37571									;JUMPA X (X IS THE ADDRESS OF THE FIRST INSTRUCTION
 37572									;IN THE SUBTEST) TO LOOP ON ERROR^
 37573	054011	312 14 0 00 070740 		CAME	14,[456765,,-1]	;PASS IF C(E)=456765,,-1
 37574						STOP^
 37575	054012	254 04 0 00 054013 		HALT	.+1		;TEST FAILED IF PROGRAM HALTS HERE
 37576	054013	324 00 0 00 054014 		JUMPA	.+1		;IF TEST FAILS, CHANGE THIS INSTRUCTION (JUMPA .+1) TO
 37577									;JUMPA X (X IS THE ADDRESS OF THE FIRST INSTRUCTION
 37578									;IN THE SUBTEST) TO LOOP ON ERROR^
 37579
 37580					;**********
 37581
 37582
 37583					;THIS TEST VERIFIES THAT HRLOS PLACES C(E-RIGHT) INTO E-LEFT AND
 37584					;PLACES -1 INTO E-RIGHT. IF AC IS NON-ZERO, THE RESULT IN E IS ALOS
 37585					;PLACED INTO THE AC.
 37586					;IN THIS CASE, AC=0, C(AC)=0 AND C(E)=123456,,707076
 37587					;HENCE, THE RESULTS IN AC AND E RESPECTIVELY SHOULD BE 0
 37588					;AND 707076,,0
 37589
 37590	054014	400 00 0 00 000000 	C65200:	SETZ	0,		;PRELOAD AC WITH 0
 37591	054015	200 16 0 00 070731 		MOVE	16,[123456,,707076]	;PRELOAD E WITH 123456,,707076
 37592	054016	527 00 0 00 000016 		HRLOS	0,16		;*HRLZS SHOULD PLACE 707076,,-1
 37593									;INTO E.
 37594	054017	312 00 0 00 070253 		CAME	0,[0]		;PASS IF C(AC) UNCHANGED
 37595						STOP^
 37596	054020	254 04 0 00 054021 		HALT	.+1		;TEST FAILED IF PROGRAM HALTS HERE
 37597	054021	324 00 0 00 054022 		JUMPA	.+1		;IF TEST FAILS, CHANGE THIS INSTRUCTION (JUMPA .+1) TO
 37598									;JUMPA X (X IS THE ADDRESS OF THE FIRST INSTRUCTION
 37599									;IN THE SUBTEST) TO LOOP ON ERROR^
 37600	054022	312 16 0 00 070741 		CAME	16,[707076,,-1]	;PASS IF C(AC)=707076,,-1
 37601						STOP^
 37602	054023	254 04 0 00 054024 		HALT	.+1		;TEST FAILED IF PROGRAM HALTS HERE
 37603	054024	324 00 0 00 054025 		JUMPA	.+1		;IF TEST FAILS, CHANGE THIS INSTRUCTION (JUMPA .+1) TO
 37604									;JUMPA X (X IS THE ADDRESS OF THE FIRST INSTRUCTION
 37605									;IN THE SUBTEST) TO LOOP ON ERROR^
 37606
 37607					;**********
DFKAA PDP-10 KL10 BASIC INSTRUCTION DIAGNOSTIC (1) VER 0,2	MACRO %53B(1254)-4 11:50 11-Nov-24 Page 33
DFKAA6	MAC	13-Jan-89 10:22		TEST OF MSCL HWT INSTRUCTIONS

 37608					;THIS TEST VERIFIES THAT HRLOS PLACES C(E-RIGHT) INTO E-LEFT AND
 37609					;PLACES -1 INTO E-RIGHT. IF AC IS NON-ZERO, THE RESULT IN E IS ALSO
 37610					;PLACED INTO THE AC.
 37611					;IN THIS CASE, AC=1, C(AC)=0 AND C(E)=123456,,707076
 37612					;HENCE, THE RESULTS IN AC AND E RESPECTIVELY SHOULD BE 707076,,-1
 37613					;AND 707076,,-1
 37614
 37615	054025	400 01 0 00 000000 	C65210:	SETZ	1,		;PRELOAD AC WITH 0
 37616	054026	200 16 0 00 070731 		MOVE	16,[123456,,707076]	;PRELOAD E WITH 123456,,707076
 37617	054027	527 01 0 00 000016 		HRLOS	1,16		;*HRLZS SHOULD PLACE 707076,,-1
 37618									;INTO BOTH AC AND E
 37619	054030	312 01 0 00 070741 		CAME	1,[707076,,-1]	;PASS IF C(AC)=707076,,-1
 37620						STOP^
 37621	054031	254 04 0 00 054032 		HALT	.+1		;TEST FAILED IF PROGRAM HALTS HERE
 37622	054032	324 00 0 00 054033 		JUMPA	.+1		;IF TEST FAILS, CHANGE THIS INSTRUCTION (JUMPA .+1) TO
 37623									;JUMPA X (X IS THE ADDRESS OF THE FIRST INSTRUCTION
 37624									;IN THE SUBTEST) TO LOOP ON ERROR^
 37625	054033	312 16 0 00 070741 		CAME	16,[707076,,-1]	;PASS IF C(AC)=707076,,-1
 37626						STOP^
 37627	054034	254 04 0 00 054035 		HALT	.+1		;TEST FAILED IF PROGRAM HALTS HERE
 37628	054035	324 00 0 00 054036 		JUMPA	.+1		;IF TEST FAILS, CHANGE THIS INSTRUCTION (JUMPA .+1) TO
 37629									;JUMPA X (X IS THE ADDRESS OF THE FIRST INSTRUCTION
 37630									;IN THE SUBTEST) TO LOOP ON ERROR^
 37631
 37632					;**********
 37633
 37634					;THIS TEST VERIFIES THAT HLLEM PLACES C(AC-LEFT) INTO E-LEFT
 37635					;AND PLACES BIT 0 OF THE AC INTO BITS 18 THRU 35 OF E.  IN THIS CASE,
 37636					;C(AC)=123456,,707076 AND C(E)=-1,,-1.  HENCE, THE RESULT IN E
 37637					;SHOULD BE 123456,,0.
 37638
 37639	054036	200 12 0 00 070731 	C65300:	MOVE	12,[123456,,707076]	;PRELOAD AC WITH 123456,,707076
 37640	054037	476 00 0 00 000013 		SETOM	13		;PRELOAD E WITH -1,,-1
 37641	054040	532 12 0 00 000013 		HLLEM	12,13		;*HLLEM SHOULD PLACE 123456,,0 INTO E
 37642	054041	312 12 0 00 070731 		CAME	12,[123456,,707076]	;PASS IF C(AC) UNCHANGED
 37643						STOP^
 37644	054042	254 04 0 00 054043 		HALT	.+1		;TEST FAILED IF PROGRAM HALTS HERE
 37645	054043	324 00 0 00 054044 		JUMPA	.+1		;IF TEST FAILS, CHANGE THIS INSTRUCTION (JUMPA .+1) TO
 37646									;JUMPA X (X IS THE ADDRESS OF THE FIRST INSTRUCTION
 37647									;IN THE SUBTEST) TO LOOP ON ERROR^
 37648	054044	312 13 0 00 070377 		CAME	13,[123456,,0]	;PASS IF C(E)=123456,,0
 37649						STOP^
 37650	054045	254 04 0 00 054046 		HALT	.+1		;TEST FAILED IF PROGRAM HALTS HERE
 37651	054046	324 00 0 00 054047 		JUMPA	.+1		;IF TEST FAILS, CHANGE THIS INSTRUCTION (JUMPA .+1) TO
 37652									;JUMPA X (X IS THE ADDRESS OF THE FIRST INSTRUCTION
 37653									;IN THE SUBTEST) TO LOOP ON ERROR^
 37654
 37655					;**********
DFKAA PDP-10 KL10 BASIC INSTRUCTION DIAGNOSTIC (1) VER 0,2	MACRO %53B(1254)-4 11:50 11-Nov-24 Page 34
DFKAA6	MAC	13-Jan-89 10:22		TEST OF MSCL HWT INSTRUCTIONS

 37656					;THIS TEST VERIFIES THAT HLLES PLACES C(E-LEFT) INTO E-LEFT AND
 37657					;PLACES BIT 0 OF E INTO BITS 18 THRU 35 OF E.  IF AC IS NON-ZERO
 37658					;THE RESULT IN E IS ALSO PLACED INTO THE AC.
 37659					;IN THIS CASE, AC=0, C(AC)=0 AND C(E)=765432,,0.
 37660					;HENCE, THE RESULTS IN AC AND E SHOULD BE 0
 37661					;AND 765432,,-1 RESPECTIVELY.
 37662
 37663	054047	400 00 0 00 000000 	C65400:	SETZ	0,		;CLEAR AC
 37664	054050	515 02 0 00 765432 		HRLZI	2,765432	;PRELOAD E WITH 765432,,0
 37665	054051	533 00 0 00 000002 		HLLES	0,2		;*HLLES SHOULD PLACE 765432,,-1
 37666									;INTO E
 37667	054052	312 00 0 00 070253 		CAME	0,[0]		;PASS IF C(AC) UNCHANGED
 37668						STOP^
 37669	054053	254 04 0 00 054054 		HALT	.+1		;TEST FAILED IF PROGRAM HALTS HERE
 37670	054054	324 00 0 00 054055 		JUMPA	.+1		;IF TEST FAILS, CHANGE THIS INSTRUCTION (JUMPA .+1) TO
 37671									;JUMPA X (X IS THE ADDRESS OF THE FIRST INSTRUCTION
 37672									;IN THE SUBTEST) TO LOOP ON ERROR^
 37673	054055	312 02 0 00 070742 		CAME	2,[765432,,-1]	;PASS IF C(E)=765432,,-1
 37674						STOP^
 37675	054056	254 04 0 00 054057 		HALT	.+1		;TEST FAILED IF PROGRAM HALTS HERE
 37676	054057	324 00 0 00 054060 		JUMPA	.+1		;IF TEST FAILS, CHANGE THIS INSTRUCTION (JUMPA .+1) TO
 37677									;JUMPA X (X IS THE ADDRESS OF THE FIRST INSTRUCTION
 37678									;IN THE SUBTEST) TO LOOP ON ERROR^
 37679
 37680					;**********
 37681
 37682					;THIS TEST VERIFIES THAT HLLES PLACES C(E-LEFT) INTO E-LEFT AND
 37683					;PLACES BIT 0 OF E INTO BITS 18 THRU 35 OF E.  IF AC IS NON-ZERO,
 37684					;THE RESULT IN E IS ALSO PLACED INTO THE AC.
 37685					;IN THIS CASE, AC=1, C(AC)=0 AND C(E)=765432,,0
 37686					;HENCE, THE RESULTS IN AC AND E SHOULD BE 765432,,-1
 37687					;AND 765432,,-1 RESPECTIVELY
 37688
 37689	054060	400 01 0 00 000000 	C65410:	SETZ	1,		;CLEAR AC
 37690	054061	515 02 0 00 765432 		HRLZI	2,765432	;PRELOAD E WITH 765432,,0
 37691	054062	533 01 0 00 000002 		HLLES	1,2		;*HLLES SHOULD PLACE 765432,,-1
 37692									;INTO BOTH AC AND E
 37693	054063	312 01 0 00 070742 		CAME	1,[765432,,-1]	;PASS IF C(AC)=765432,,-1
 37694						STOP^
 37695	054064	254 04 0 00 054065 		HALT	.+1		;TEST FAILED IF PROGRAM HALTS HERE
 37696	054065	324 00 0 00 054066 		JUMPA	.+1		;IF TEST FAILS, CHANGE THIS INSTRUCTION (JUMPA .+1) TO
 37697									;JUMPA X (X IS THE ADDRESS OF THE FIRST INSTRUCTION
 37698									;IN THE SUBTEST) TO LOOP ON ERROR^
 37699	054066	312 02 0 00 070742 		CAME	2,[765432,,-1]	;PASS IF C(E)=765432,,-1
 37700						STOP^
 37701	054067	254 04 0 00 054070 		HALT	.+1		;TEST FAILED IF PROGRAM HALTS HERE
 37702	054070	324 00 0 00 054071 		JUMPA	.+1		;IF TEST FAILS, CHANGE THIS INSTRUCTION (JUMPA .+1) TO
 37703									;JUMPA X (X IS THE ADDRESS OF THE FIRST INSTRUCTION
 37704									;IN THE SUBTEST) TO LOOP ON ERROR^
 37705
 37706					;**********
DFKAA PDP-10 KL10 BASIC INSTRUCTION DIAGNOSTIC (1) VER 0,2	MACRO %53B(1254)-4 11:50 11-Nov-24 Page 35
DFKAA6	MAC	13-Jan-89 10:22		TEST OF MSCL HWT INSTRUCTIONS

 37707					;THIS TEST VERIFIES THAT HLLEM PLACES C(AC-RIGHT) INTO E-LEFT
 37708					;AND PLACES BIT 18 OF THE AC INTO BITS 18 THRU 35 OF E.  IN THIS CASE,
 37709					;C(AC)=365432,123456 AND C(E)=-1,,-1.  HENCE, THE RESULT IN E
 37710					;SHOULD BE 365432,,0.
 37711
 37712	054071	200 12 0 00 070743 	C65500:	MOVE	12,[365432,,123456]	;PRELOAD AC WITH 365432,,123456
 37713	054072	476 00 0 00 000013 		SETOM	13		;PRELOAD E WITH -1,,-1
 37714	054073	532 12 0 00 000013 		HLLEM	12,13		;*HLLEM SHOULD PLACE 365432,,0 INTO E
 37715	054074	312 12 0 00 070743 		CAME	12,[365432,,123456]	;PASS IF C(AC) UNCHANGED
 37716						STOP^
 37717	054075	254 04 0 00 054076 		HALT	.+1		;TEST FAILED IF PROGRAM HALTS HERE
 37718	054076	324 00 0 00 054077 		JUMPA	.+1		;IF TEST FAILS, CHANGE THIS INSTRUCTION (JUMPA .+1) TO
 37719									;JUMPA X (X IS THE ADDRESS OF THE FIRST INSTRUCTION
 37720									;IN THE SUBTEST) TO LOOP ON ERROR^
 37721	054077	312 13 0 00 070744 		CAME	13,[365432,,0]	;PASS IF C(E)=365432,,0
 37722						STOP^
 37723	054100	254 04 0 00 054101 		HALT	.+1		;TEST FAILED IF PROGRAM HALTS HERE
 37724	054101	324 00 0 00 054102 		JUMPA	.+1		;IF TEST FAILS, CHANGE THIS INSTRUCTION (JUMPA .+1) TO
 37725									;JUMPA X (X IS THE ADDRESS OF THE FIRST INSTRUCTION
 37726									;IN THE SUBTEST) TO LOOP ON ERROR^
 37727
 37728					;**********
 37729
 37730					;THIS TEST VERIFIES THAT HRLES PLACES C(E-RIGHT) INTO E-LEFT AND
 37731					;PLACES BIT 18 OF E INTO BITS 18 THRU 35 OF E.  IF AC IS NON-ZERO,
 37732					;THE RESULT IN E IS ALSO PLACED INTO THE AC.
 37733					;IN THIS CASE, AC=0, C(AC)=0 AND C(E)=0,,765432
 37734					;HENCE, THE RESULTS IN AC AND E SHOULD BE 0
 37735					;AND 765432,,-1 RESPECTIVELY
 37736
 37737	054102	400 00 0 00 000000 	C65600:	SETZ	0,		;CLEAR AC
 37738	054103	551 02 0 00 765432 		HRRZI	2,765432	;PRELOAD E WITH 0,,765432
 37739	054104	537 00 0 00 000002 		HRLES	0,2		;*HLLES SHOULD PLACE 765432,,-1
 37740									;INTO
 37741	054105	312 00 0 00 070253 		CAME	0,[0]		;PASS IF C(AC) UNCHANGED
 37742						STOP^
 37743	054106	254 04 0 00 054107 		HALT	.+1		;TEST FAILED IF PROGRAM HALTS HERE
 37744	054107	324 00 0 00 054110 		JUMPA	.+1		;IF TEST FAILS, CHANGE THIS INSTRUCTION (JUMPA .+1) TO
 37745									;JUMPA X (X IS THE ADDRESS OF THE FIRST INSTRUCTION
 37746									;IN THE SUBTEST) TO LOOP ON ERROR^
 37747	054110	312 02 0 00 070742 		CAME	2,[765432,,-1]	;PASS IF C(E)=765432,,-1
 37748						STOP^
 37749	054111	254 04 0 00 054112 		HALT	.+1		;TEST FAILED IF PROGRAM HALTS HERE
 37750	054112	324 00 0 00 054113 		JUMPA	.+1		;IF TEST FAILS, CHANGE THIS INSTRUCTION (JUMPA .+1) TO
 37751									;JUMPA X (X IS THE ADDRESS OF THE FIRST INSTRUCTION
 37752									;IN THE SUBTEST) TO LOOP ON ERROR^
 37753
 37754					;**********
DFKAA PDP-10 KL10 BASIC INSTRUCTION DIAGNOSTIC (1) VER 0,2	MACRO %53B(1254)-4 11:50 11-Nov-24 Page 36
DFKAA6	MAC	13-Jan-89 10:22		TEST OF MSCL HWT INSTRUCTIONS

 37755					;THIS TEST VERIFIES THAT HRLES PLACES C(E-RIGHT) INTO E-LEFT AND
 37756					;PLACES BIT 18 OF E INTO BITS 18 THRU 35 OF E.  IF AC IS NON-ZERO,
 37757					;THE RESULT IN E IS ALSO PLACED INTO THE AC.
 37758					;IN THIS CASE, AC=1, C(AC)=0 AND C(E)=0,,765432
 37759					;HENCE, THE RESULTS IN AC AND E SHOULD BE 765432,,-1
 37760					;AND 765432,,-1 RESPECTIVELY.
 37761
 37762	054113	400 01 0 00 000000 	C65610:	SETZ	1,		;CLEAR AC
 37763	054114	551 02 0 00 765432 		HRRZI	2,765432	;PRELOAD E WITH 0,765432
 37764	054115	537 01 0 00 000002 		HRLES	1,2		;*HLLES SHOULD PLACE 765432,,-1
 37765									;INTO BOTH AC AND E
 37766	054116	312 01 0 00 070742 		CAME	1,[765432,,-1]	;PASS IF C(AC)=765442,,-1
 37767						STOP^
 37768	054117	254 04 0 00 054120 		HALT	.+1		;TEST FAILED IF PROGRAM HALTS HERE
 37769	054120	324 00 0 00 054121 		JUMPA	.+1		;IF TEST FAILS, CHANGE THIS INSTRUCTION (JUMPA .+1) TO
 37770									;JUMPA X (X IS THE ADDRESS OF THE FIRST INSTRUCTION
 37771									;IN THE SUBTEST) TO LOOP ON ERROR^
 37772	054121	312 02 0 00 070742 		CAME	2,[765432,,-1]	;PASS IF C(E)=765432,,-1
 37773						STOP^
 37774	054122	254 04 0 00 054123 		HALT	.+1		;TEST FAILED IF PROGRAM HALTS HERE
 37775	054123	324 00 0 00 054124 		JUMPA	.+1		;IF TEST FAILS, CHANGE THIS INSTRUCTION (JUMPA .+1) TO
 37776									;JUMPA X (X IS THE ADDRESS OF THE FIRST INSTRUCTION
 37777									;IN THE SUBTEST) TO LOOP ON ERROR^
 37778
 37779
 37780					;**********
 37781
 37782					;THIS TEST VERIFIES THAT HLRM SHOULD PLACE C(AC-LEFT) INTO E-RIGHT
 37783					;AND NOT AFFECT E-LEFT.  IN THIS CASE, C(AC)=123456,,701234
 37784					;AND C(E)=0.  HENCE, THE RESULT IN E SHOULD BE 0,,123456
 37785
 37786	054124	200 11 0 00 070745 	C65700:	MOVE	11,[123456,,701234]	;PRELOAD AC WITH 123456,,701234
 37787	054125	402 00 0 00 000012 		SETZM	12		;CLEAR E
 37788	054126	546 11 0 00 000012 		HLRM	11,12		;*HLRM SHOULD PLACE 0,,123456 INTO E
 37789	054127	312 11 0 00 070745 		CAME	11,[123456,,701234]	;PASS IF C(AC) UNCHANGE
 37790						STOP^
 37791	054130	254 04 0 00 054131 		HALT	.+1		;TEST FAILED IF PROGRAM HALTS HERE
 37792	054131	324 00 0 00 054132 		JUMPA	.+1		;IF TEST FAILS, CHANGE THIS INSTRUCTION (JUMPA .+1) TO
 37793									;JUMPA X (X IS THE ADDRESS OF THE FIRST INSTRUCTION
 37794									;IN THE SUBTEST) TO LOOP ON ERROR^
 37795	054132	302 12 0 00 123456 		CAIE	12,123456	;PASS IF C(E)=0,,123456
 37796						STOP^
 37797	054133	254 04 0 00 054134 		HALT	.+1		;TEST FAILED IF PROGRAM HALTS HERE
 37798	054134	324 00 0 00 054135 		JUMPA	.+1		;IF TEST FAILS, CHANGE THIS INSTRUCTION (JUMPA .+1) TO
 37799									;JUMPA X (X IS THE ADDRESS OF THE FIRST INSTRUCTION
 37800									;IN THE SUBTEST) TO LOOP ON ERROR^
 37801
 37802					;**********
DFKAA PDP-10 KL10 BASIC INSTRUCTION DIAGNOSTIC (1) VER 0,2	MACRO %53B(1254)-4 11:50 11-Nov-24 Page 37
DFKAA6	MAC	13-Jan-89 10:22		TEST OF MSCL HWT INSTRUCTIONS

 37803					;THIS TEST VERIFIES THAT HLRS PLACES C(E-LEFT) INTO E-RIGHT AND
 37804					;DOES NOT AFFECT E-LEFT.  IF AC IS NON-ZERO, THE RESULT IN E
 37805					;IS ALSO PLACED INTO THE AC.
 37806					;IN THIS CASE, AC=0, C(AC)=0 AND C(E)=123123,,246135
 37807					;HENCE, THE RESULTS IN AC AND E SHOULD BE 0
 37808					;AND 123123,,123123 RESPECTIVELY.
 37809
 37810	054135	400 00 0 00 000000 	C66000:	SETZ	0,		;CLEAR AC
 37811	054136	200 12 0 00 070746 		MOVE	12,[123123,,246135]	;PRELOAD E WITH 123123,,246135
 37812	054137	547 00 0 00 000012 		HLRS	0,12		;*HLRS SHOULD PLACE 123123,,123123
 37813									;INTO E.
 37814	054140	312 00 0 00 070253 		CAME	0,[0]		;PASS IF C(AC) UNCHANGED
 37815						STOP^
 37816	054141	254 04 0 00 054142 		HALT	.+1		;TEST FAILED IF PROGRAM HALTS HERE
 37817	054142	324 00 0 00 054143 		JUMPA	.+1		;IF TEST FAILS, CHANGE THIS INSTRUCTION (JUMPA .+1) TO
 37818									;JUMPA X (X IS THE ADDRESS OF THE FIRST INSTRUCTION
 37819									;IN THE SUBTEST) TO LOOP ON ERROR^
 37820	054143	312 12 0 00 070747 		CAME	12,[123123,,123123]	;PASS IF C(E)=123123,,123123
 37821						STOP^
 37822	054144	254 04 0 00 054145 		HALT	.+1		;TEST FAILED IF PROGRAM HALTS HERE
 37823	054145	324 00 0 00 054146 		JUMPA	.+1		;IF TEST FAILS, CHANGE THIS INSTRUCTION (JUMPA .+1) TO
 37824									;JUMPA X (X IS THE ADDRESS OF THE FIRST INSTRUCTION
 37825									;IN THE SUBTEST) TO LOOP ON ERROR^
 37826
 37827
 37828					;**********
 37829
 37830					;THIS TEST VERIFIES THAT HLRS PLACES C(E-LEFT) INTO E-RIGHT AND
 37831					;DOES NOT AFFECT E-LEFT.  IF AC IS NON-ZERO, THE RESULT IN E
 37832					;IS ALSO PLACED INTO THE AC.
 37833					;IN THIS CASE, AC=1, C(AC)=0 AND C(E)=123123,,246135
 37834					;HENCE, THE RESULTS IN AC AND E SHOULD BE 123123,,123123
 37835					;AND 123123,,123123 RESPECTIVELY.
 37836
 37837	054146	400 01 0 00 000000 	C66010:	SETZ	1,		;CLEAR AC
 37838	054147	200 12 0 00 070746 		MOVE	12,[123123,,246135]	;PRELOAD E WITH 123123,,246135
 37839	054150	547 01 0 00 000012 		HLRS	1,12		;*HLRS SHOULD PLACE 123123,,123123
 37840									;INTO BOTH AC AND E.
 37841	054151	312 01 0 00 070747 		CAME	1,[123123,,123123]	;PASS IF C(AC)=123123,,123123
 37842						STOP^
 37843	054152	254 04 0 00 054153 		HALT	.+1		;TEST FAILED IF PROGRAM HALTS HERE
 37844	054153	324 00 0 00 054154 		JUMPA	.+1		;IF TEST FAILS, CHANGE THIS INSTRUCTION (JUMPA .+1) TO
 37845									;JUMPA X (X IS THE ADDRESS OF THE FIRST INSTRUCTION
 37846									;IN THE SUBTEST) TO LOOP ON ERROR^
 37847	054154	312 12 0 00 070747 		CAME	12,[123123,,123123]	;PASS IF C(E)=123123,,123123
 37848						STOP^
 37849	054155	254 04 0 00 054156 		HALT	.+1		;TEST FAILED IF PROGRAM HALTS HERE
 37850	054156	324 00 0 00 054157 		JUMPA	.+1		;IF TEST FAILS, CHANGE THIS INSTRUCTION (JUMPA .+1) TO
 37851									;JUMPA X (X IS THE ADDRESS OF THE FIRST INSTRUCTION
 37852									;IN THE SUBTEST) TO LOOP ON ERROR^
 37853
 37854					;**********
DFKAA PDP-10 KL10 BASIC INSTRUCTION DIAGNOSTIC (1) VER 0,2	MACRO %53B(1254)-4 11:50 11-Nov-24 Page 38
DFKAA6	MAC	13-Jan-89 10:22		TEST OF MSCL HWT INSTRUCTIONS

 37855					;THIS TEST VERIFIES THAT HRRZS CLEARS THE LEFT HALF OF E, BUT DOES NOT
 37856					;AFFECT THE RIGHT HALF OF E.  IF AC IS NON-ZERO, THE RESULT IN E IS
 37857					;ALSO PLACED INTO THE AC.
 37858					;IN THIS CASE, AC = 0, C(AC) = -1,,-1 AND C(E) = 123456,,701234
 37859					;HENCE, THE RESULTS IN AC AND E SHOULD BE -1,,-1 AND 0,,701234
 37860					;RESPECTIVELY.
 37861
 37862	054157	474 00 0 00 000000 	C66100:	SETO	0		;PRELOAD AC WITH -1,,-1
 37863	054160	200 17 0 00 070745 		MOVE	17,[123456,,701234]  ;PRELOAD E WITH 123456,,701234
 37864	054161	553 00 0 00 000017 		HRRZS	0,17		;HRRZS SHOULD PLACE 0,,701234 INTO E
 37865	054162	312 00 0 00 070254 		CAME	0,[-1]		;PASS IF C(AC) UNCHANGED
 37866						STOP^
 37867	054163	254 04 0 00 054164 		HALT	.+1		;TEST FAILED IF PROGRAM HALTS HERE
 37868	054164	324 00 0 00 054165 		JUMPA	.+1		;IF TEST FAILS, CHANGE THIS INSTRUCTION (JUMPA .+1) TO
 37869									;JUMPA X (X IS THE ADDRESS OF THE FIRST INSTRUCTION
 37870									;IN THE SUBTEST) TO LOOP ON ERROR^
 37871	054165	302 17 0 00 701234 		CAIE	17,701234	;PASS IF C(E) = 0,,701234
 37872						STOP^
 37873	054166	254 04 0 00 054167 		HALT	.+1		;TEST FAILED IF PROGRAM HALTS HERE
 37874	054167	324 00 0 00 054170 		JUMPA	.+1		;IF TEST FAILS, CHANGE THIS INSTRUCTION (JUMPA .+1) TO
 37875									;JUMPA X (X IS THE ADDRESS OF THE FIRST INSTRUCTION
 37876									;IN THE SUBTEST) TO LOOP ON ERROR^
 37877
 37878					;**********
 37879
 37880					;THIS TEST VERIFIES THAT HRRZS CLEARS THE LEFT HALF OF E, BUT DOES NOT
 37881					;AFFECT THE RIGHT HALF OF E.  IF AC IS NON-ZERO, THE RESULT IN E IS
 37882					;ALSO PLACED INTO THE AC.
 37883					;IN THIS CASE, AC = 1, C(AC) = -1,,-1 AND C(E) = 123456,,701234
 37884					;HENCE, THE RESULTS IN AC AND E SHOULD BE 0,,701234 AND 0,,701234
 37885					;RESPECTIVELY.
 37886
 37887	054170	474 01 0 00 000000 	C66110:	SETO	1,		;PRELOAD AC WITH -1,,-1
 37888	054171	200 17 0 00 070745 		MOVE	17,[123456,,701234]  ;PRELOAD E WITH 123456,,701234
 37889	054172	553 01 0 00 000017 		HRRZS	1,17		;HRRZS SHOULD PLACE 0,,701234 INTO
 37890									;BOTH AC AND E
 37891	054173	302 01 0 00 701234 		CAIE	1,701234	;PASS IF C(AC) = 0,,701234
 37892						STOP^
 37893	054174	254 04 0 00 054175 		HALT	.+1		;TEST FAILED IF PROGRAM HALTS HERE
 37894	054175	324 00 0 00 054176 		JUMPA	.+1		;IF TEST FAILS, CHANGE THIS INSTRUCTION (JUMPA .+1) TO
 37895									;JUMPA X (X IS THE ADDRESS OF THE FIRST INSTRUCTION
 37896									;IN THE SUBTEST) TO LOOP ON ERROR^
 37897	054176	302 17 0 00 701234 		CAIE	17,701234	;PASS IF C(E) = 0,,701234
 37898						STOP^
 37899	054177	254 04 0 00 054200 		HALT	.+1		;TEST FAILED IF PROGRAM HALTS HERE
 37900	054200	324 00 0 00 054201 		JUMPA	.+1		;IF TEST FAILS, CHANGE THIS INSTRUCTION (JUMPA .+1) TO
 37901									;JUMPA X (X IS THE ADDRESS OF THE FIRST INSTRUCTION
 37902									;IN THE SUBTEST) TO LOOP ON ERROR^
 37903
 37904					;**********
DFKAA PDP-10 KL10 BASIC INSTRUCTION DIAGNOSTIC (1) VER 0,2	MACRO %53B(1254)-4 11:50 11-Nov-24 Page 39
DFKAA6	MAC	13-Jan-89 10:22		TEST OF MSCL HWT INSTRUCTIONS

 37905					;THIS TEST VERIFIES THAT HLRZI CLEARS THE AC
 37906					;IN THIS CASE, C(AC) = -1,,-1 AND E = 0,,-1.  HENCE, THE
 37907					;RESULT IN THE AC SHOULD BE 0.
 37908
 37909	054201	474 00 0 00 000007 	C66200:	SETO	7		;PRELOAD AC WITH -1,,-1
 37910	054202	555 07 0 00 777777 		HLRZI	7,-1		;*HLRZI SHOULD CLEAR THE AC
 37911	054203	332 00 0 00 000007 		SKIPE	7		;PASS IF C(AC) = 0
 37912						STOP^
 37913	054204	254 04 0 00 054205 		HALT	.+1		;TEST FAILED IF PROGRAM HALTS HERE
 37914	054205	324 00 0 00 054206 		JUMPA	.+1		;IF TEST FAILS, CHANGE THIS INSTRUCTION (JUMPA .+1) TO
 37915									;JUMPA X (X IS THE ADDRESS OF THE FIRST INSTRUCTION
 37916									;IN THE SUBTEST) TO LOOP ON ERROR^
 37917
 37918					;**********
 37919
 37920					;THIS TEST VERIFIES THAT HLRZM PLACES C(AC-LEFT) INTO E-RIGHT AND
 37921					;PLACES 0 INTO E-LEFT.
 37922					;IN THIS CASE, C(AC) = 123456,,123422 AND C(E) = 707070,,717171
 37923					;HENCE, THE RESULT IN E SHOULD BE 0,,123456.
 37924
 37925	054206	200 01 0 00 070726 	C66300:	MOVE	1,[123456,,123422]  ;PRELOAD AC WITH 123456,,123422
 37926	054207	200 02 0 00 070727 		MOVE	2,[707070,,717171]  ;PRELOAD AC WITH 707070,,717171
 37927	054210	556 01 0 00 000002 		HLRZM	1,2		;*HLRZM SHOULD PLACE 0,,123456 INTO E.
 37928	054211	312 01 0 00 070726 		CAME	1,[123456,,123422]  ;PASS IF C(AC) UNCHANGED
 37929						STOP^
 37930	054212	254 04 0 00 054213 		HALT	.+1		;TEST FAILED IF PROGRAM HALTS HERE
 37931	054213	324 00 0 00 054214 		JUMPA	.+1		;IF TEST FAILS, CHANGE THIS INSTRUCTION (JUMPA .+1) TO
 37932									;JUMPA X (X IS THE ADDRESS OF THE FIRST INSTRUCTION
 37933									;IN THE SUBTEST) TO LOOP ON ERROR^
 37934	054214	302 02 0 00 123456 		CAIE	2,123456	;PASS IF C(E) = 0,,123456
 37935						STOP^
 37936	054215	254 04 0 00 054216 		HALT	.+1		;TEST FAILED IF PROGRAM HALTS HERE
 37937	054216	324 00 0 00 054217 		JUMPA	.+1		;IF TEST FAILS, CHANGE THIS INSTRUCTION (JUMPA .+1) TO
 37938									;JUMPA X (X IS THE ADDRESS OF THE FIRST INSTRUCTION
 37939									;IN THE SUBTEST) TO LOOP ON ERROR^
 37940
 37941					;**********
DFKAA PDP-10 KL10 BASIC INSTRUCTION DIAGNOSTIC (1) VER 0,2	MACRO %53B(1254)-4 11:50 11-Nov-24 Page 40
DFKAA6	MAC	13-Jan-89 10:22		TEST OF MSCL HWT INSTRUCTIONS

 37942					;THIS TEST VERIFIES THAT HLRZM PLACES C(AC-LEFT) INTO E-RIGHT AND
 37943					;PLACES 0 INTO E-LEFT.
 37944					;IN THIS CASE, C(AC) = 123456,,123422 AND C(E) = 707070,,717171
 37945					;HENCE, THE RESULT IN E SHOULD BE 0,,123456.
 37946
 37947	054217	200 01 0 00 070726 	C66301:	MOVE	1,[123456,,123422]  ;PRELOAD AC WITH 123456,,123422
 37948	054220	200 02 0 00 070727 		MOVE	2,[707070,,717171]  ;PRELOAD AC WITH 707070,,717171
 37949	054221	202 02 0 00 054233 		MOVEM	2,E66301
 37950	054222	556 01 0 00 054233 		HLRZM	1,E66301	;*HLRZM SHOULD PLACE 0,,123456 INTO E.
 37951	054223	312 01 0 00 070726 		CAME	1,[123456,,123422]  ;PASS IF C(AC) UNCHANGED
 37952						STOP^
 37953	054224	254 04 0 00 054225 		HALT	.+1		;TEST FAILED IF PROGRAM HALTS HERE
 37954	054225	324 00 0 00 054226 		JUMPA	.+1		;IF TEST FAILS, CHANGE THIS INSTRUCTION (JUMPA .+1) TO
 37955									;JUMPA X (X IS THE ADDRESS OF THE FIRST INSTRUCTION
 37956									;IN THE SUBTEST) TO LOOP ON ERROR^
 37957	054226	200 02 0 00 054233 		MOVE	2,E66301
 37958	054227	302 02 0 00 123456 		CAIE	2,123456	;PASS IF C(E) = 0,,123456
 37959						STOP^
 37960	054230	254 04 0 00 054231 		HALT	.+1		;TEST FAILED IF PROGRAM HALTS HERE
 37961	054231	324 00 0 00 054232 		JUMPA	.+1		;IF TEST FAILS, CHANGE THIS INSTRUCTION (JUMPA .+1) TO
 37962									;JUMPA X (X IS THE ADDRESS OF THE FIRST INSTRUCTION
 37963									;IN THE SUBTEST) TO LOOP ON ERROR^
 37964
 37965	054232	334 00 0 00 000000 		SKIPA			;GO TO NEXT TEST
 37966	054233	000000	000000		E66301:	0			;TEST WORD MEMORY
 37967
 37968					;**********
DFKAA PDP-10 KL10 BASIC INSTRUCTION DIAGNOSTIC (1) VER 0,2	MACRO %53B(1254)-4 11:50 11-Nov-24 Page 41
DFKAA6	MAC	13-Jan-89 10:22		TEST OF MSCL HWT INSTRUCTIONS

 37969					;THIS TEST VERIFIES THAT HLRZS PLACES C(E-LEFT) INTO E-RIGHT AND
 37970					;PLACES 0 INTO E-LEFT.  IF AC IS NON-ZERO, THE RESULT IN E IS
 37971					;ALSO PLACED INTO THE AC.
 37972					;IN THIS CASE, AC = 0, C(AC) = -1,,-1 AND C(E) = 123456,,701234.
 37973					;HENCE, THE RESULTS IN AC AND E SHOULD BE -1,,-1 AND 0,,123456
 37974					;RESPECTIVELY.
 37975
 37976	054234	474 00 0 00 000000 	C66400:	SETO	0,		;PRELOAD AC WITH -1,,-1
 37977	054235	200 07 0 00 070745 		MOVE	7,[123456,,701234]  ;PRELOAD E WITH 123456,,701234
 37978	054236	557 00 0 00 000007 		HLRZS	0,7		;*HLRZS SHOULD PLACE 0,,123456 INTO E
 37979	054237	312 00 0 00 070254 		CAME	0,[-1]		;PASS IF C(AC) IS UNCHANGED
 37980						STOP^
 37981	054240	254 04 0 00 054241 		HALT	.+1		;TEST FAILED IF PROGRAM HALTS HERE
 37982	054241	324 00 0 00 054242 		JUMPA	.+1		;IF TEST FAILS, CHANGE THIS INSTRUCTION (JUMPA .+1) TO
 37983									;JUMPA X (X IS THE ADDRESS OF THE FIRST INSTRUCTION
 37984									;IN THE SUBTEST) TO LOOP ON ERROR^
 37985	054242	302 07 0 00 123456 		CAIE	7,123456	;PASS IF C(E) = 0,,123456
 37986						STOP^
 37987	054243	254 04 0 00 054244 		HALT	.+1		;TEST FAILED IF PROGRAM HALTS HERE
 37988	054244	324 00 0 00 054245 		JUMPA	.+1		;IF TEST FAILS, CHANGE THIS INSTRUCTION (JUMPA .+1) TO
 37989									;JUMPA X (X IS THE ADDRESS OF THE FIRST INSTRUCTION
 37990									;IN THE SUBTEST) TO LOOP ON ERROR^
 37991
 37992					;**********
 37993
 37994					;THIS TEST VERIFIES THAT HLRZS PLACES C(E-LEFT) INTO E-RIGHT AND
 37995					;PLACES 0 INTO E-LEFT.  IF AC IS NON-ZERO, THE RESULT IN E
 37996					;IS ALSO PLACED INTO THE AC.
 37997					;IN THIS CASE, AC = 6, C(AC) = -1,,-1 AND C(E) = 123456,,701234.
 37998					;HENCE, THE RESULTS IN AC AND E SHOULD BE 0,,123456 AND 0123456
 37999					;RESPECTIVELY.
 38000
 38001	054245	474 06 0 00 000000 	C66410:	SETO	6,		;PRELOAD AC WITH -1,,-1
 38002	054246	200 07 0 00 070745 		MOVE	7,[123456,,701234]  ;PRELOAD E WITH 123456,,701234
 38003	054247	557 06 0 00 000007 		HLRZS	6,7		;*HLRZS SHOULD PLACE 0,,123456 INTO
 38004									;BOTH AC AND E
 38005	054250	302 06 0 00 123456 		CAIE	6,123456	;PASS IF C(AC) = 0,,123456
 38006						STOP^
 38007	054251	254 04 0 00 054252 		HALT	.+1		;TEST FAILED IF PROGRAM HALTS HERE
 38008	054252	324 00 0 00 054253 		JUMPA	.+1		;IF TEST FAILS, CHANGE THIS INSTRUCTION (JUMPA .+1) TO
 38009									;JUMPA X (X IS THE ADDRESS OF THE FIRST INSTRUCTION
 38010									;IN THE SUBTEST) TO LOOP ON ERROR^
 38011	054253	302 07 0 00 123456 		CAIE	7,123456	;PASS IF C(E) = 0,,123456
 38012						STOP^
 38013	054254	254 04 0 00 054255 		HALT	.+1		;TEST FAILED IF PROGRAM HALTS HERE
 38014	054255	324 00 0 00 054256 		JUMPA	.+1		;IF TEST FAILS, CHANGE THIS INSTRUCTION (JUMPA .+1) TO
 38015									;JUMPA X (X IS THE ADDRESS OF THE FIRST INSTRUCTION
 38016									;IN THE SUBTEST) TO LOOP ON ERROR^
 38017
 38018					;**********
DFKAA PDP-10 KL10 BASIC INSTRUCTION DIAGNOSTIC (1) VER 0,2	MACRO %53B(1254)-4 11:50 11-Nov-24 Page 42
DFKAA6	MAC	13-Jan-89 10:22		TEST OF MSCL HWT INSTRUCTIONS

 38019					;THIS TEST VERIFIES THAT HLRZS PLACES C(E-LEFT) INTO E-RIGHT AND
 38020					;PLACES 0 INTO E-LEFT.  IF AC IS NON-ZERO, THE RESULT IN E
 38021					;IS ALSO PLACED INTO THE AC.
 38022					;IN THIS CASE, AC = 6, C(AC) = -1,,-1 AND C(E) = 123456,,701234.
 38023					;HENCE, THE RESULTS IN AC AND E SHOULD BE 0,,123456 AND 0123456
 38024					;RESPECTIVELY.
 38025
 38026	054256	474 06 0 00 000000 	C66411:	SETO	6,		;PRELOAD AC WITH -1,,-1
 38027	054257	200 07 0 00 070745 		MOVE	7,[123456,,701234]  ;PRELOAD E WITH 123456,,701234
 38028	054260	202 07 0 00 054272 		MOVEM	7,E66411
 38029	054261	557 06 0 00 054272 		HLRZS	6,E66411	;*HLRZS SHOULD PLACE 0,,123456 INTO
 38030									;BOTH AC AND E
 38031	054262	302 06 0 00 123456 		CAIE	6,123456	;PASS IF C(AC) = 0,,123456
 38032						STOP^
 38033	054263	254 04 0 00 054264 		HALT	.+1		;TEST FAILED IF PROGRAM HALTS HERE
 38034	054264	324 00 0 00 054265 		JUMPA	.+1		;IF TEST FAILS, CHANGE THIS INSTRUCTION (JUMPA .+1) TO
 38035									;JUMPA X (X IS THE ADDRESS OF THE FIRST INSTRUCTION
 38036									;IN THE SUBTEST) TO LOOP ON ERROR^
 38037	054265	200 07 0 00 054272 		MOVE	7,E66411
 38038	054266	302 07 0 00 123456 		CAIE	7,123456	;PASS IF C(E) = 0,,123456
 38039						STOP^
 38040	054267	254 04 0 00 054270 		HALT	.+1		;TEST FAILED IF PROGRAM HALTS HERE
 38041	054270	324 00 0 00 054271 		JUMPA	.+1		;IF TEST FAILS, CHANGE THIS INSTRUCTION (JUMPA .+1) TO
 38042									;JUMPA X (X IS THE ADDRESS OF THE FIRST INSTRUCTION
 38043									;IN THE SUBTEST) TO LOOP ON ERROR^
 38044
 38045	054271	334 00 0 00 000000 		SKIPA			;GO TO NEXT TEST
 38046	054272	000000	000000		E66411:	0			;TEST WORD MEMORY
 38047
 38048					;**********
DFKAA PDP-10 KL10 BASIC INSTRUCTION DIAGNOSTIC (1) VER 0,2	MACRO %53B(1254)-4 11:50 11-Nov-24 Page 43
DFKAA6	MAC	13-Jan-89 10:22		TEST OF MSCL HWT INSTRUCTIONS

 38049					;THIS TEST VERIFIES THAT HRROM PLACES C(AC-RIGHT) INTO E-RIGHT AND
 38050					;PLACES -1 INTO E-LEFT.  IN THIS CASE, C(AC) = 123456,,701234 AND
 38051					;C(E) = 0.  HENCE, THE RESULT IN E SHOULD BE -1,,601234.
 38052
 38053	054273	200 05 0 00 070745 	C66500:	MOVE	5,[123456,,701234]  ;PRELOAD AC WITH 123456,,701234
 38054	054274	402 00 0 00 000006 		SETZM	6		;CLEAR E
 38055	054275	562 05 0 00 000006 		HRROM	5,6		;*HRROM SHOULD PLACE -1,,701234 INTO E
 38056	054276	312 05 0 00 070745 		CAME	5,[123456,,701234]  ;PASS IF C(AC) UNCHANGED
 38057						STOP^
 38058	054277	254 04 0 00 054300 		HALT	.+1		;TEST FAILED IF PROGRAM HALTS HERE
 38059	054300	324 00 0 00 054301 		JUMPA	.+1		;IF TEST FAILS, CHANGE THIS INSTRUCTION (JUMPA .+1) TO
 38060									;JUMPA X (X IS THE ADDRESS OF THE FIRST INSTRUCTION
 38061									;IN THE SUBTEST) TO LOOP ON ERROR^
 38062	054301	312 06 0 00 070750 		CAME	6,[-1,,701234]	;PASS IF C(E) = -1,,701234
 38063						STOP^
 38064	054302	254 04 0 00 054303 		HALT	.+1		;TEST FAILED IF PROGRAM HALTS HERE
 38065	054303	324 00 0 00 054304 		JUMPA	.+1		;IF TEST FAILS, CHANGE THIS INSTRUCTION (JUMPA .+1) TO
 38066									;JUMPA X (X IS THE ADDRESS OF THE FIRST INSTRUCTION
 38067									;IN THE SUBTEST) TO LOOP ON ERROR^
 38068
 38069
 38070					;**********
 38071
 38072					;THIS TEST VERIFIES THAT HRROS PLACES -1 INTO THE LEFT HALF OF E, BUT DOES NOT
 38073					;AFFECT THE RIGHT HALF OF E.  IF AC IS NON-ZERO THE RESULT IN E IS
 38074					;ALSO PLACED INTO THE AC.
 38075					;IN THIS CASE, AC=0, C(AC)=0 AND C(E)=123456,,701234
 38076					;HENCE, THE RESULTS IN AC AND E SHOULD BE 0
 38077					;AND -1,,701234 RESPECTIVELY.
 38078
 38079	054304	400 00 0 00 000000 	C66600:	SETZ	0		;PRELOAD AC WITH 0
 38080	054305	200 17 0 00 070745 		MOVE	17,[123456,,701234]  ;PRELOAD E WITH 123456,,701234
 38081	054306	563 00 0 00 000017 		HRROS	0,17		;HRROS SHOULD PLACE -1,,701234 INTO E
 38082	054307	312 00 0 00 070253 		CAME	0,[0]		;PASS IF C(AC) IS UNCHANGED
 38083						STOP^
 38084	054310	254 04 0 00 054311 		HALT	.+1		;TEST FAILED IF PROGRAM HALTS HERE
 38085	054311	324 00 0 00 054312 		JUMPA	.+1		;IF TEST FAILS, CHANGE THIS INSTRUCTION (JUMPA .+1) TO
 38086									;JUMPA X (X IS THE ADDRESS OF THE FIRST INSTRUCTION
 38087									;IN THE SUBTEST) TO LOOP ON ERROR^
 38088	054312	312 17 0 00 070750 		CAME	17,[-1,,701234]	;PASS IF C(E)=-1,,701234
 38089						STOP^
 38090	054313	254 04 0 00 054314 		HALT	.+1		;TEST FAILED IF PROGRAM HALTS HERE
 38091	054314	324 00 0 00 054315 		JUMPA	.+1		;IF TEST FAILS, CHANGE THIS INSTRUCTION (JUMPA .+1) TO
 38092									;JUMPA X (X IS THE ADDRESS OF THE FIRST INSTRUCTION
 38093									;IN THE SUBTEST) TO LOOP ON ERROR^
 38094
 38095					;**********
DFKAA PDP-10 KL10 BASIC INSTRUCTION DIAGNOSTIC (1) VER 0,2	MACRO %53B(1254)-4 11:50 11-Nov-24 Page 44
DFKAA6	MAC	13-Jan-89 10:22		TEST OF MSCL HWT INSTRUCTIONS

 38096					;THIS TEST VERIFIES THAT HRROS PLACES -1 INTO THE LEFT HALF OF E, BUT DOES NOT
 38097					;AFFECT THE RIGHT HALF OF E.  IF AC IS NON-ZERO THE RESULT IN E IS
 38098					;ALSO PLACED INTO THE AC.
 38099					;IN THIS CASE, AC=16, C(AC)=0 AND C(E)=123456,,701234
 38100					;HENCE, THE RESULTS IN AC AND E SHOULD BE -1,,701234
 38101					;AND -1,,701234 RESPECTIVELY.
 38102
 38103	054315	400 16 0 00 000000 	C66610:	SETZ	16,		;PRELOAD AC WITH 0
 38104	054316	200 17 0 00 070745 		MOVE	17,[123456,,701234]  ;PRELOAD E WITH 123456,,701234
 38105	054317	563 16 0 00 000017 		HRROS	16,17		;*HRROS SHOULD PLACE -1,,701234 INTO
 38106									;BOTH AC AND E
 38107	054320	312 16 0 00 070750 		CAME	16,[-1,,701234]	;PASS IF C(AC)=-1,,701234
 38108						STOP^
 38109	054321	254 04 0 00 054322 		HALT	.+1		;TEST FAILED IF PROGRAM HALTS HERE
 38110	054322	324 00 0 00 054323 		JUMPA	.+1		;IF TEST FAILS, CHANGE THIS INSTRUCTION (JUMPA .+1) TO
 38111									;JUMPA X (X IS THE ADDRESS OF THE FIRST INSTRUCTION
 38112									;IN THE SUBTEST) TO LOOP ON ERROR^
 38113	054323	312 17 0 00 070750 		CAME	17,[-1,,701234]	;PASS IF C(E)=-1,,701234
 38114						STOP^
 38115	054324	254 04 0 00 054325 		HALT	.+1		;TEST FAILED IF PROGRAM HALTS HERE
 38116	054325	324 00 0 00 054326 		JUMPA	.+1		;IF TEST FAILS, CHANGE THIS INSTRUCTION (JUMPA .+1) TO
 38117									;JUMPA X (X IS THE ADDRESS OF THE FIRST INSTRUCTION
 38118									;IN THE SUBTEST) TO LOOP ON ERROR^
 38119
 38120					;**********
 38121
 38122					;THIS TEST VERIFIES THAT HLRO PLACES C(E-LEFT) INTO AC-RIGHT AND
 38123					;PLACES -1 INTO AC-LEFT.  IN THIS CASE, C(AC)=0
 38124					;C(E)=765432,,107654.  HENCE, THE RESULT IN THE AC SHOULD BE -1,,765432.
 38125
 38126	054326	400 04 0 00 000000 	C66700:	SETZ	4,		;CLEAR AC
 38127	054327	200 05 0 00 070751 		MOVE	5,[765432,,107654]  ;PRELOAD E WITH 765432,,107654
 38128	054330	564 04 0 00 000005 		HLRO	4,5		;*HLRO SHOULD PLACE -1,,765432 INTO THE AC
 38129	054331	312 04 0 00 070752 		CAME	4,[-1,,765432]	;PASS IF C(AC)=-1,,765432
 38130						STOP^
 38131	054332	254 04 0 00 054333 		HALT	.+1		;TEST FAILED IF PROGRAM HALTS HERE
 38132	054333	324 00 0 00 054334 		JUMPA	.+1		;IF TEST FAILS, CHANGE THIS INSTRUCTION (JUMPA .+1) TO
 38133									;JUMPA X (X IS THE ADDRESS OF THE FIRST INSTRUCTION
 38134									;IN THE SUBTEST) TO LOOP ON ERROR^
 38135	054334	312 05 0 00 070751 		CAME	5,[765432,,107654]  ;PASS IF C(E) IS UNCHANGED
 38136						STOP^
 38137	054335	254 04 0 00 054336 		HALT	.+1		;TEST FAILED IF PROGRAM HALTS HERE
 38138	054336	324 00 0 00 054337 		JUMPA	.+1		;IF TEST FAILS, CHANGE THIS INSTRUCTION (JUMPA .+1) TO
 38139									;JUMPA X (X IS THE ADDRESS OF THE FIRST INSTRUCTION
 38140									;IN THE SUBTEST) TO LOOP ON ERROR^
 38141
 38142					;**********
DFKAA PDP-10 KL10 BASIC INSTRUCTION DIAGNOSTIC (1) VER 0,2	MACRO %53B(1254)-4 11:50 11-Nov-24 Page 45
DFKAA6	MAC	13-Jan-89 10:22		TEST OF MSCL HWT INSTRUCTIONS

 38143					;THIS TEST VERIFIES THAT HLROI PLACES -1,,0 INTO THE AC.
 38144					;IN THIS CASE, C(AC)=123456,,765432 AND E=070707.  HENCE, THE
 38145					;RESULT IN THE AC SHOULD BE -1,,0
 38146
 38147	054337	200 03 0 00 070376 	C67000:	MOVE	3,[123456,,765432]  ;PRELOAD AC WITH 123456,,765432
 38148	054340	565 03 0 00 070707 		HLROI	3,070707	;*HLROI SHOULD PLACE -1,,0 INTO THE AC
 38149	054341	312 03 0 00 070331 		CAME	3,[-1,,0]	;PASS IF C(AC)=-1,,0
 38150						STOP^
 38151	054342	254 04 0 00 054343 		HALT	.+1		;TEST FAILED IF PROGRAM HALTS HERE
 38152	054343	324 00 0 00 054344 		JUMPA	.+1		;IF TEST FAILS, CHANGE THIS INSTRUCTION (JUMPA .+1) TO
 38153									;JUMPA X (X IS THE ADDRESS OF THE FIRST INSTRUCTION
 38154									;IN THE SUBTEST) TO LOOP ON ERROR^
 38155
 38156					;**********
 38157
 38158					;THIS TEST VERIFIES THAT HLROM PLACES C(AC-LEFT) INTO E RIGHT AND
 38159					;PLACES -1 INTO E-LEFT
 38160					;IN THIS CASE, C(AC)=123456,,123422 AND C(E)=707070,,717171
 38161					;HENCE, THE RESULT IN E SHOULD BE -1,,123456
 38162
 38163	054344	200 01 0 00 070726 	C67100:	MOVE	1,[123456,,123422]  ;PRELOAD AC WITH 123456,,123422
 38164	054345	200 02 0 00 070727 		MOVE	2,[707070,,717171]  ;PRELOAD AC WITH 707070,,717171
 38165	054346	566 01 0 00 000002 		HLROM	1,2		;*HLROM SHOULD PLACE -1,,123456 INTO E
 38166	054347	312 01 0 00 070726 		CAME	1,[123456,,123422]  ;PASS IF C(AC) UNCHANGED
 38167						STOP^
 38168	054350	254 04 0 00 054351 		HALT	.+1		;TEST FAILED IF PROGRAM HALTS HERE
 38169	054351	324 00 0 00 054352 		JUMPA	.+1		;IF TEST FAILS, CHANGE THIS INSTRUCTION (JUMPA .+1) TO
 38170									;JUMPA X (X IS THE ADDRESS OF THE FIRST INSTRUCTION
 38171									;IN THE SUBTEST) TO LOOP ON ERROR^
 38172	054352	312 02 0 00 070753 		CAME	2,[-1,,123456]	;PASS IF C(E)=-1,,123456
 38173						STOP^
 38174	054353	254 04 0 00 054354 		HALT	.+1		;TEST FAILED IF PROGRAM HALTS HERE
 38175	054354	324 00 0 00 054355 		JUMPA	.+1		;IF TEST FAILS, CHANGE THIS INSTRUCTION (JUMPA .+1) TO
 38176									;JUMPA X (X IS THE ADDRESS OF THE FIRST INSTRUCTION
 38177									;IN THE SUBTEST) TO LOOP ON ERROR^
 38178
 38179					;**********
DFKAA PDP-10 KL10 BASIC INSTRUCTION DIAGNOSTIC (1) VER 0,2	MACRO %53B(1254)-4 11:50 11-Nov-24 Page 46
DFKAA6	MAC	13-Jan-89 10:22		TEST OF MSCL HWT INSTRUCTIONS

 38180					;THIS TEST VERIFIES THAT HLROS PLACES C(E-LEFT) INTO E-RIGHT AND
 38181					;PLACES -1 INTO E-LEFT.  IF AC IS NON-ZERO, THE RESULT IN E
 38182					;IS ALSO PLACED INTO THE AC.
 38183					;IN THIS CASE, AC=0, C(AC)=0 AND C(E)=123456,,701234.
 38184					;HENCE, THE RESULTS IN AC AND E SHOULD BE 0
 38185					;AND -1,,123456 RESPECTIVELY
 38186
 38187	054355	400 00 0 00 000000 	C67200:	SETZ	0		;PRELOAD AC WITH 0
 38188	054356	200 07 0 00 070745 		MOVE	7,[123456,,701234]  ;PRELOAD E WITH 123456,,701234
 38189	054357	567 00 0 00 000007 		HLROS	0,7		;*HLROS SHOULD PLACE -1,,123456 INTO E
 38190									;
 38191	054360	302 00 0 00 000000 		CAIE	0,0		;PASS IF C(AC) IS UNCHANGED
 38192						STOP^
 38193	054361	254 04 0 00 054362 		HALT	.+1		;TEST FAILED IF PROGRAM HALTS HERE
 38194	054362	324 00 0 00 054363 		JUMPA	.+1		;IF TEST FAILS, CHANGE THIS INSTRUCTION (JUMPA .+1) TO
 38195									;JUMPA X (X IS THE ADDRESS OF THE FIRST INSTRUCTION
 38196									;IN THE SUBTEST) TO LOOP ON ERROR^
 38197	054363	312 07 0 00 070753 		CAME	7,[-1,,123456]	;PASS IF C(E)=-1,,123456
 38198						STOP^
 38199	054364	254 04 0 00 054365 		HALT	.+1		;TEST FAILED IF PROGRAM HALTS HERE
 38200	054365	324 00 0 00 054366 		JUMPA	.+1		;IF TEST FAILS, CHANGE THIS INSTRUCTION (JUMPA .+1) TO
 38201									;JUMPA X (X IS THE ADDRESS OF THE FIRST INSTRUCTION
 38202									;IN THE SUBTEST) TO LOOP ON ERROR^
 38203
 38204					;**********
 38205
 38206					;THIS TEST VERIFIES THAT HLROS PLACES C(E-LEFT) INTO E-RIGHT AND
 38207					;PLACES -1 INTO E-LEFT.  IF AC IS NON-ZERO, THE RESULT IN E
 38208					;IS ALSO PLACED INTO THE AC.
 38209					;IN THIS CASE, AC=1, C(AC)=0 AND C(E)=123456,,701234.
 38210					;HENCE, THE RESULT IN AC AND E SHOULD BE -1,,123456
 38211					;AND -1,,123456 RESPECTIVELY.
 38212
 38213	054366	400 01 0 00 000000 	C67210:	SETZ	1,		;PRELOAD AC WITH 0
 38214	054367	200 07 0 00 070745 		MOVE	7,[123456,,701234]  ;PRELOAD E WITH 123456,,701234
 38215	054370	567 01 0 00 000007 		HLROS	1,7		;*HLROS SHOULD PLACE -1,,123456 INTO
 38216									;BOTH AC AND E
 38217	054371	312 01 0 00 070753 		CAME	1,[-1,,123456]	;PASS IF C(AC)=-1,,123456
 38218						STOP^
 38219	054372	254 04 0 00 054373 		HALT	.+1		;TEST FAILED IF PROGRAM HALTS HERE
 38220	054373	324 00 0 00 054374 		JUMPA	.+1		;IF TEST FAILS, CHANGE THIS INSTRUCTION (JUMPA .+1) TO
 38221									;JUMPA X (X IS THE ADDRESS OF THE FIRST INSTRUCTION
 38222									;IN THE SUBTEST) TO LOOP ON ERROR^
 38223	054374	312 07 0 00 070753 		CAME	7,[-1,,123456]	;PASS IF C(E)=-1,,123456
 38224						STOP^
 38225	054375	254 04 0 00 054376 		HALT	.+1		;TEST FAILED IF PROGRAM HALTS HERE
 38226	054376	324 00 0 00 054377 		JUMPA	.+1		;IF TEST FAILS, CHANGE THIS INSTRUCTION (JUMPA .+1) TO
 38227									;JUMPA X (X IS THE ADDRESS OF THE FIRST INSTRUCTION
 38228									;IN THE SUBTEST) TO LOOP ON ERROR^
 38229
 38230					;**********
DFKAA PDP-10 KL10 BASIC INSTRUCTION DIAGNOSTIC (1) VER 0,2	MACRO %53B(1254)-4 11:50 11-Nov-24 Page 47
DFKAA6	MAC	13-Jan-89 10:22		TEST OF MSCL HWT INSTRUCTIONS

 38231					;THIS TEST VERIFIES THAT HRRES PLACES C(E-RIGHT) INTO E-RIGHT
 38232					;AND PLACES BIT 18 OF E INTO BITS 0 THRU 17 OF E.  IF AC IS NON-ZERO,
 38233					;THE RESULT IN E IS ALSO PLACED INTO THE AC.
 38234					;IN THIS CASE, AC=0, C(AC)=0 AND C(E)=123456,,701234
 38235					;HENCE, THE RESULT IN AC AND E SHOULD BE 0
 38236					;AND -1,,701234 RESPECTIVELY.
 38237
 38238	054377	400 00 0 00 000000 	C67300:	SETZ	0,		;PRELOAD AC WITH 0
 38239	054400	200 03 0 00 070745 		MOVE	3,[123456,,701234]  ;PRELOAD WITH 123456,,701234
 38240	054401	573 00 0 00 000003 		HRRES	0,3		;HRRES SHOULD PLACE -1,,701234 INTO E
 38241
 38242	054402	332 00 0 00 000000 		SKIPE			;PASS IF C(AC) IS UNCHANGED
 38243						STOP^
 38244	054403	254 04 0 00 054404 		HALT	.+1		;TEST FAILED IF PROGRAM HALTS HERE
 38245	054404	324 00 0 00 054405 		JUMPA	.+1		;IF TEST FAILS, CHANGE THIS INSTRUCTION (JUMPA .+1) TO
 38246									;JUMPA X (X IS THE ADDRESS OF THE FIRST INSTRUCTION
 38247									;IN THE SUBTEST) TO LOOP ON ERROR^
 38248	054405	312 03 0 00 070750 		CAME	3,[-1,,701234]	;PASS IF C(E)=-1,,701234
 38249						STOP^
 38250	054406	254 04 0 00 054407 		HALT	.+1		;TEST FAILED IF PROGRAM HALTS HERE
 38251	054407	324 00 0 00 054410 		JUMPA	.+1		;IF TEST FAILS, CHANGE THIS INSTRUCTION (JUMPA .+1) TO
 38252									;JUMPA X (X IS THE ADDRESS OF THE FIRST INSTRUCTION
 38253									;IN THE SUBTEST) TO LOOP ON ERROR^
 38254
 38255					;**********
 38256
 38257					;THIS TEST VERIFIES THAT HRRES, PLACES C(E-RIGHT) INTO E-RIGHT
 38258					;AND PLACES BIT 18 OF E INTO BITS 0 THRU 17 OF E.  IF AC IS NON-ZERO,
 38259					;THE RESULT IN E IS ALSO PLACED INTO THE AC.
 38260					;IN THIS CASE, AC=1, C(AC)=0 AND C(E)=123456,,701234.
 38261					;HENCE, THE RESULTS IN AC AND E SHOULD BE -1,,701234
 38262					;AND -1,,701234 RESPECTIVELY.
 38263
 38264	054410	400 01 0 00 000000 	C67310:	SETZ	1,		;PRELOAD AC WITH 0
 38265	054411	200 03 0 00 070745 		MOVE	3,[123456,,701234]  ;PRELOAD WITH 123456,,701234
 38266	054412	573 01 0 00 000003 		HRRES	1,3		;HRRES SHOULD PLACE -1,,701234 INTO
 38267									;BOTH AC AND E
 38268	054413	312 01 0 00 070750 		CAME	1,[-1,,701234]	;PASS IF C(AC)=-1,,701234
 38269						STOP^
 38270	054414	254 04 0 00 054415 		HALT	.+1		;TEST FAILED IF PROGRAM HALTS HERE
 38271	054415	324 00 0 00 054416 		JUMPA	.+1		;IF TEST FAILS, CHANGE THIS INSTRUCTION (JUMPA .+1) TO
 38272									;JUMPA X (X IS THE ADDRESS OF THE FIRST INSTRUCTION
 38273									;IN THE SUBTEST) TO LOOP ON ERROR^
 38274	054416	312 03 0 00 070750 		CAME	3,[-1,,701234]	;PASS IF C(E)=-1,,701234
 38275						STOP^
 38276	054417	254 04 0 00 054420 		HALT	.+1		;TEST FAILED IF PROGRAM HALTS HERE
 38277	054420	324 00 0 00 054421 		JUMPA	.+1		;IF TEST FAILS, CHANGE THIS INSTRUCTION (JUMPA .+1) TO
 38278									;JUMPA X (X IS THE ADDRESS OF THE FIRST INSTRUCTION
 38279									;IN THE SUBTEST) TO LOOP ON ERROR^
 38280
 38281					;**********
DFKAA PDP-10 KL10 BASIC INSTRUCTION DIAGNOSTIC (1) VER 0,2	MACRO %53B(1254)-4 11:50 11-Nov-24 Page 48
DFKAA6	MAC	13-Jan-89 10:22		TEST OF MSCL HWT INSTRUCTIONS

 38282					;THIS TEST VERIFIES THAT HLRES PLACES C(E-LEFT) INTO E-RIGHT
 38283					;AND PLACES BIT 0 OF E INTO BITS 0 THRU 17 OF E.  IF AC IS
 38284					;NON-ZERO, THE RESULT IN E IS ALSO PLACED INTO THE AC.
 38285					;IN THIS CASE, AC=0, C(AC)=-1,,-1 AND C(E) 123456,,701234
 38286					;HENCE, THE RESULTS IN AC AND E SHOULD BE -1,,-1
 38287					;AND 0,,123456 RESPECTIVELY.
 38288
 38289	054421	474 00 0 00 000000 	C67400:	SETO	0,		;PRELOAD AC WITH -1,,-1
 38290	054422	200 07 0 00 070745 		MOVE	7,[123456,,701234]  ;PRELOAD E WITH 123456,,701234
 38291	054423	577 00 0 00 000007 		HLRES	0,7		;*HLRES SHOULD PLACE 0,,123456 INTO E
 38292
 38293	054424	312 00 0 00 070254 		CAME	0,[-1]		;PASS IF C(AC) IS UNCHANGED
 38294						STOP^
 38295	054425	254 04 0 00 054426 		HALT	.+1		;TEST FAILED IF PROGRAM HALTS HERE
 38296	054426	324 00 0 00 054427 		JUMPA	.+1		;IF TEST FAILS, CHANGE THIS INSTRUCTION (JUMPA .+1) TO
 38297									;JUMPA X (X IS THE ADDRESS OF THE FIRST INSTRUCTION
 38298									;IN THE SUBTEST) TO LOOP ON ERROR^
 38299	054427	302 07 0 00 123456 		CAIE	7,123456	;PASS IF C(E)=0,,123456
 38300						STOP^
 38301	054430	254 04 0 00 054431 		HALT	.+1		;TEST FAILED IF PROGRAM HALTS HERE
 38302	054431	324 00 0 00 054432 		JUMPA	.+1		;IF TEST FAILS, CHANGE THIS INSTRUCTION (JUMPA .+1) TO
 38303									;JUMPA X (X IS THE ADDRESS OF THE FIRST INSTRUCTION
 38304									;IN THE SUBTEST) TO LOOP ON ERROR^
 38305
 38306					;**********
 38307
 38308					;THIS TEST VERIFIES THAT HLRES PLACES C(E-LEFT) INTO E-RIGHT
 38309					;AND PLACES BIT 0 OF E INTO BITS 0 THRU 17 OF E.  IF AC IS
 38310					;NON-ZERO, THE RESULT IN E IS ALSO PLACED INTO THE AC.
 38311					;IN THIS CASE, AC=1, C(AC)=-1,,-1 AND C(E) 123456,,701234.
 38312					;HENCE, THE RESULTS IN AC AND E SHOULD BE 0,,123456
 38313					;AND 0,,123456 RESPECTIVELY.
 38314
 38315	054432	474 01 0 00 000000 	C67410:	SETO	1,		;PRELOAD AC WITH -1,,-1
 38316	054433	200 07 0 00 070745 		MOVE	7,[123456,,701234]  ;PRELOAD E WITH 123456,,701234
 38317	054434	577 01 0 00 000007 		HLRES	1,7		;*HLRES SHOULD PLACE 0,,123456 INTO
 38318									;BOTH AC AND E
 38319	054435	302 01 0 00 123456 		CAIE	1,123456	;PASS IF C(AC)=0,,123456
 38320						STOP^
 38321	054436	254 04 0 00 054437 		HALT	.+1		;TEST FAILED IF PROGRAM HALTS HERE
 38322	054437	324 00 0 00 054440 		JUMPA	.+1		;IF TEST FAILS, CHANGE THIS INSTRUCTION (JUMPA .+1) TO
 38323									;JUMPA X (X IS THE ADDRESS OF THE FIRST INSTRUCTION
 38324									;IN THE SUBTEST) TO LOOP ON ERROR^
 38325	054440	302 07 0 00 123456 		CAIE	7,123456	;PASS IF C(E)=0,,123456
 38326						STOP^
 38327	054441	254 04 0 00 054442 		HALT	.+1		;TEST FAILED IF PROGRAM HALTS HERE
 38328	054442	324 00 0 00 054443 		JUMPA	.+1		;IF TEST FAILS, CHANGE THIS INSTRUCTION (JUMPA .+1) TO
 38329									;JUMPA X (X IS THE ADDRESS OF THE FIRST INSTRUCTION
 38330									;IN THE SUBTEST) TO LOOP ON ERROR^
 38331
 38332					;**********
DFKAA PDP-10 KL10 BASIC INSTRUCTION DIAGNOSTIC (1) VER 0,2	MACRO %53B(1254)-4 11:50 11-Nov-24 Page 49
DFKAA6	MAC	13-Jan-89 10:22		TEST OF MSCL LOGICAL TEST INSTRUCTIONS

 38333					SUBTTL	TEST OF MSCL LOGICAL TEST INSTRUCTIONS
 38334
 38335					;**********
 38336
 38337					;THIS TEST VERIFIES THAT TRNE SKIPS THE NEXT SEQUENTIAL INSTRUCTION
 38338					;IF AND ONLY IF ALL BITS IN AC-RIGHT CORRESPONDING TO 1'S IN E ARE ZERO.
 38339					;IN THIS CASE, C(AC)=123456,,701234 AND E=3
 38340					;HENCE, TRNE SHOULD SKIP THE NEXT INSTRUCTION.  THE AC IS ALSO
 38341					;CHECKED FOR NO MODIFICATION.
 38342
 38343	054443	200 17 0 00 070745 	C67500:	MOVE	17,[123456,,701234]	;PRELOAD AC WITH 123456,,701234
 38344	054444	602 17 0 00 000003 		TRNE	17,3			;*TRNE SHOULD SKIP THE NEXT INSTRUCTION
 38345						STOP^
 38346	054445	254 04 0 00 054446 		HALT	.+1		;TEST FAILED IF PROGRAM HALTS HERE
 38347	054446	324 00 0 00 054447 		JUMPA	.+1		;IF TEST FAILS, CHANGE THIS INSTRUCTION (JUMPA .+1) TO
 38348									;JUMPA X (X IS THE ADDRESS OF THE FIRST INSTRUCTION
 38349									;IN THE SUBTEST) TO LOOP ON ERROR^
 38350	054447	312 17 0 00 070745 		CAME	17,[123456,,701234]	;PASS IF C AC) UNCHANGED
 38351						STOP^
 38352	054450	254 04 0 00 054451 		HALT	.+1		;TEST FAILED IF PROGRAM HALTS HERE
 38353	054451	324 00 0 00 054452 		JUMPA	.+1		;IF TEST FAILS, CHANGE THIS INSTRUCTION (JUMPA .+1) TO
 38354									;JUMPA X (X IS THE ADDRESS OF THE FIRST INSTRUCTION
 38355									;IN THE SUBTEST) TO LOOP ON ERROR^
 38356
 38357					;**********
 38358
 38359					;THIS TEST VERIFIES THAT TRNE SKIPS THE NEXT SEQUENTIAL INSTRUCTION
 38360					;IF AND ONLY IF ALL BITS IN AC-RIGHT CORRESPONDING TO 1'S IN E ARE ZERO.
 38361					;IN THIS CASE, C(AC)=123456,,701234 AND E=300
 38362					;HENCE, TRNE SHOULD NOT SKIP THE NEXT INSTRUCTION.  THE AC IS ALSO
 38363					;CHECKED FOR NO MODIFICATION.
 38364
 38365	054452	200 16 0 00 070745 	C67510:	MOVE	16,[123456,,701234]	;PRELOAD AC WITH 123456,,701234
 38366	054453	602 16 0 00 000300 		TRNE	16,300			;*TRNE SHOULD NOT SKIP THE NEXT INSTRUCTION
 38367	054454	334 00 0 00 000000 		SKIPA				;PASS IF TRNE DID NOT SKIP
 38368						STOP^
 38369	054455	254 04 0 00 054456 		HALT	.+1		;TEST FAILED IF PROGRAM HALTS HERE
 38370	054456	324 00 0 00 054457 		JUMPA	.+1		;IF TEST FAILS, CHANGE THIS INSTRUCTION (JUMPA .+1) TO
 38371									;JUMPA X (X IS THE ADDRESS OF THE FIRST INSTRUCTION
 38372									;IN THE SUBTEST) TO LOOP ON ERROR^
 38373	054457	312 16 0 00 070745 		CAME	16,[123456,,701234]	;PASS IF C(AC) UNCHANGED
 38374						STOP^
 38375	054460	254 04 0 00 054461 		HALT	.+1		;TEST FAILED IF PROGRAM HALTS HERE
 38376	054461	324 00 0 00 054462 		JUMPA	.+1		;IF TEST FAILS, CHANGE THIS INSTRUCTION (JUMPA .+1) TO
 38377									;JUMPA X (X IS THE ADDRESS OF THE FIRST INSTRUCTION
 38378									;IN THE SUBTEST) TO LOOP ON ERROR^
 38379
 38380					;**********
DFKAA PDP-10 KL10 BASIC INSTRUCTION DIAGNOSTIC (1) VER 0,2	MACRO %53B(1254)-4 11:50 11-Nov-24 Page 50
DFKAA6	MAC	13-Jan-89 10:22		TEST OF MSCL LOGICAL TEST INSTRUCTIONS

 38381					;THIS TEST VERIFIES THAT TLNE SKIPS THE NEXT SEQUENTIAL INSTRUCTION
 38382					;IF AND ONLY IF ALL BITS IN AC-LEFT CORRESPONDING TO 1'S IN E ARE ZERO.
 38383					;IN THIS CASE, C(AC)=123456,,701234 AND E=300
 38384					;HENCE, TLNE SHOULD SKIP THE NEXT INSTRUCTION, THE AC IS ALSO
 38385					;CHECKED FOR NO MODIFICATION.
 38386
 38387	054462	200 15 0 00 070745 	C67600:	MOVE	15,[123456,,701234]	;PRELOAD AC WITH 123456,,701234
 38388	054463	603 15 0 00 000300 		TLNE	15,300			;*TLNE CHOULD SKIP
 38389						STOP^
 38390	054464	254 04 0 00 054465 		HALT	.+1		;TEST FAILED IF PROGRAM HALTS HERE
 38391	054465	324 00 0 00 054466 		JUMPA	.+1		;IF TEST FAILS, CHANGE THIS INSTRUCTION (JUMPA .+1) TO
 38392									;JUMPA X (X IS THE ADDRESS OF THE FIRST INSTRUCTION
 38393									;IN THE SUBTEST) TO LOOP ON ERROR^
 38394	054466	312 15 0 00 070745 		CAME	15,[123456,,701234]	;PASS IF C(AC) IS UNCHANGED
 38395						STOP^
 38396	054467	254 04 0 00 054470 		HALT	.+1		;TEST FAILED IF PROGRAM HALTS HERE
 38397	054470	324 00 0 00 054471 		JUMPA	.+1		;IF TEST FAILS, CHANGE THIS INSTRUCTION (JUMPA .+1) TO
 38398									;JUMPA X (X IS THE ADDRESS OF THE FIRST INSTRUCTION
 38399									;IN THE SUBTEST) TO LOOP ON ERROR^
 38400
 38401					;**********
 38402
 38403					;THIS TEST VERIFIES THAT TLNE SKIPS THE NEXT SEQUENTIAL INSTRUCTION
 38404					;IF AND ONLY IF ALL BITS IN AC-LEFT CORRESPONDING TO 1'S IN E ARE ZERO
 38405					;IN THIS CASE, C(AC)=123456,,701234 AND E=3.
 38406					;HENCE, TLNE SHOULD NOT SKIP THE NEXT INSTRUCTION, THE AC IS ALSO
 38407					;CHECKED FOR NO MODIFICATION
 38408
 38409	054471	200 14 0 00 070745 	C67610:	MOVE	14,[123456,,701234]	;PRELOAD AC WITH 123456,,701234
 38410	054472	603 14 0 00 000003 		TLNE	14,3			;*TLNE SHOULD NOT SKIP
 38411	054473	334 00 0 00 000000 		SKIPA				;PASS IF TLNE DID NOT SKIP
 38412						STOP^
 38413	054474	254 04 0 00 054475 		HALT	.+1		;TEST FAILED IF PROGRAM HALTS HERE
 38414	054475	324 00 0 00 054476 		JUMPA	.+1		;IF TEST FAILS, CHANGE THIS INSTRUCTION (JUMPA .+1) TO
 38415									;JUMPA X (X IS THE ADDRESS OF THE FIRST INSTRUCTION
 38416									;IN THE SUBTEST) TO LOOP ON ERROR^
 38417	054476	312 14 0 00 070745 		CAME	14,[123456,,701234]	;PASS IF C(AC) UNCHANGED
 38418						STOP^
 38419	054477	254 04 0 00 054500 		HALT	.+1		;TEST FAILED IF PROGRAM HALTS HERE
 38420	054500	324 00 0 00 054501 		JUMPA	.+1		;IF TEST FAILS, CHANGE THIS INSTRUCTION (JUMPA .+1) TO
 38421									;JUMPA X (X IS THE ADDRESS OF THE FIRST INSTRUCTION
 38422									;IN THE SUBTEST) TO LOOP ON ERROR^
 38423
 38424					;**********
DFKAA PDP-10 KL10 BASIC INSTRUCTION DIAGNOSTIC (1) VER 0,2	MACRO %53B(1254)-4 11:50 11-Nov-24 Page 51
DFKAA6	MAC	13-Jan-89 10:22		TEST OF MSCL LOGICAL TEST INSTRUCTIONS

 38425					;THIS TEST VERIFIES THAT TRNA ALWAYS SKIPS THE NEXT SEQUENTIAL
 38426					;INSTRUCTION.  HENCE, TRNA IS INDEPENDENT OF BOTH C(A) AND E
 38427					;IN THIS CASE, C(AC)=123456,,701234 AND E=3.
 38428					;HENCE, TRNA SHOULD SKIP THENEXT INSTRUCTION AND NOT ALTER C(AC).
 38429
 38430	054501	200 13 0 00 070745 	C67700:	MOVE	13,[123456,,701234]	;PRELOAD AC WITH 123456,,701234
 38431	054502	604 13 0 00 000003 		TRNA	13,3			;*TRNA SHOULD ALWAYS SKIP
 38432						STOP^
 38433	054503	254 04 0 00 054504 		HALT	.+1		;TEST FAILED IF PROGRAM HALTS HERE
 38434	054504	324 00 0 00 054505 		JUMPA	.+1		;IF TEST FAILS, CHANGE THIS INSTRUCTION (JUMPA .+1) TO
 38435									;JUMPA X (X IS THE ADDRESS OF THE FIRST INSTRUCTION
 38436									;IN THE SUBTEST) TO LOOP ON ERROR^
 38437	054505	312 13 0 00 070745 		CAME	13,[123456,,701234]	;PASS IFC(AC) UNCHANGED
 38438						STOP^
 38439	054506	254 04 0 00 054507 		HALT	.+1		;TEST FAILED IF PROGRAM HALTS HERE
 38440	054507	324 00 0 00 054510 		JUMPA	.+1		;IF TEST FAILS, CHANGE THIS INSTRUCTION (JUMPA .+1) TO
 38441									;JUMPA X (X IS THE ADDRESS OF THE FIRST INSTRUCTION
 38442									;IN THE SUBTEST) TO LOOP ON ERROR^
 38443
 38444					;**********
 38445
 38446					;THIS TEST VERIFhES THAT TRNA ALWAYS SKIPS THE NEXT SEQUENTIAL
 38447					;INSTRUCTION.  HENCE, TRNA IS INDEPENDENT OF BOTH C(A) AND E.
 38448					;IN THIS CASE, C(AC)=123456,,701234 AND E=300
 38449					;HENCE, TRNA SHOULD SKIP THE NEXT INSTRUCTION AND NOT ALTER C(AC).
 38450
 38451	054510	200 12 0 00 070745 	C67710:	MOVE	12,[123456,,701234]	;PRELOAD AC WITH 123456,,701234
 38452	054511	604 12 0 00 000300 		TRNA	12,300			;*TRNA SHOQLD ALWAYS SKIP
 38453						STOP^
 38454	054512	254 04 0 00 054513 		HALT	.+1		;TEST FAILED IF PROGRAM HALTS HERE
 38455	054513	324 00 0 00 054514 		JUMPA	.+1		;IF TEST FAILS, CHANGE THIS INSTRUCTION (JUMPA .+1) TO
 38456									;JUMPA X (X IS THE ADDRESS OF THE FIRST INSTRUCTION
 38457									;IN THE SUBTEST) TO LOOP ON ERROR^
 38458	054514	312 12 0 00 070745 		CAME	12,[123456,,701234]	;PASS IF C(AC) UNCHANGED
 38459						STOP^
 38460	054515	254 04 0 00 054516 		HALT	.+1		;TEST FAILED IF PROGRAM HALTS HERE
 38461	054516	324 00 0 00 054517 		JUMPA	.+1		;IF TEST FAILS, CHANGE THIS INSTRUCTION (JUMPA .+1) TO
 38462									;JUMPA X (X IS THE ADDRESS OF THE FIRST INSTRUCTION
 38463									;IN THE SUBTEST) TO LOOP ON ERROR^
 38464
 38465					;**********
DFKAA PDP-10 KL10 BASIC INSTRUCTION DIAGNOSTIC (1) VER 0,2	MACRO %53B(1254)-4 11:50 11-Nov-24 Page 52
DFKAA6	MAC	13-Jan-89 10:22		TEST OF MSCL LOGICAL TEST INSTRUCTIONS

 38466					;THIS TEST VERIFIaS THAT TLNA ALWAYS SKIPS THE NEXT SEQUENTIAL
 38467					;INSTRUCTION.  HENCE, TLNA IS INDEPENDENt OF BOTH C(AC) AND E.
 38468					;IN THIS CASE, C(AC)=123456,,701234 AND E=3.
 38469					;HENCE, TLNA SHOULD SKIP THE NEXT INSTRUCTION AND NOT ALTER C(AC).
 38470
 38471	054517	200 11 0 00 070745 	C70000:	MOVE	11,[123456,,701234]	;PRELOAD AC WITH 123456,,701234
 38472	054520	605 11 0 00 000003 		TLNA	11,3			;*TLNA SHOULD ALWAYS SKIP
 38473						STOP^
 38474	054521	254 04 0 00 054522 		HALT	.+1		;TEST FAILED IF PROGRAM HALTS HERE
 38475	054522	324 00 0 00 054523 		JUMPA	.+1		;IF TEST FAILS, CHANGE THIS INSTRUCTION (JUMPA .+1) TO
 38476									;JUMPA X (X IS THE ADDRESS OF THE FIRST INSTRUCTION
 38477									;IN THE SUBTEST) TO LOOP ON ERROR^
 38478	054523	312 11 0 00 070745 		CAME	11,[123456,,701234]	;PASS IF C(AC) UNCHANGED
 38479						STOP^
 38480	054524	254 04 0 00 054525 		HALT	.+1		;TEST FAILED IF PROGRAM HALTS HERE
 38481	054525	324 00 0 00 054526 		JUMPA	.+1		;IF TEST FAILS, CHANGE THIS INSTRUCTION (JUMPA .+1) TO
 38482									;JUMPA X (X IS THE ADDRESS OF THE FIRST INSTRUCTION
 38483									;IN THE SUBTEST) TO LOOP ON ERROR^
 38484
 38485					;**********
 38486
 38487					;THIS TEST VERIFIES THAT TLNA ALWAYS SKIPS THE NEXT SEQUENTIAL
 38488					;INSTRUCTION.  HENCE, TLNA IS INDEPENDENT OF BOTH C(AC) AND E.
 38489					;IN THIS CASE, C(AC)=123456,,701234 AND E=300.
 38490					;HENCE, TLNA SHOULD SKIP THE NEXT INSTRUCTION AND NOT ALTER C(AC).
 38491
 38492	054526	200 10 0 00 070745 	C70010:	MOVE	10,[123456,,701234]	;PRELOAD AC WITH 123456,,701234
 38493	054527	605 10 0 00 000300 		TLNA	10,300			;*TLNA SHOULD ALWAYS SKIP
 38494						STOP^
 38495	054530	254 04 0 00 054531 		HALT	.+1		;TEST FAILED IF PROGRAM HALTS HERE
 38496	054531	324 00 0 00 054532 		JUMPA	.+1		;IF TEST FAILS, CHANGE THIS INSTRUCTION (JUMPA .+1) TO
 38497									;JUMPA X (X IS THE ADDRESS OF THE FIRST INSTRUCTION
 38498									;IN THE SUBTEST) TO LOOP ON ERROR^
 38499	054532	312 10 0 00 070745 		CAME	10,[123456,,701234]	;PASS IF C(AC) UNCHANGED
 38500						STOP^
 38501	054533	254 04 0 00 054534 		HALT	.+1		;TEST FAILED IF PROGRAM HALTS HERE
 38502	054534	324 00 0 00 054535 		JUMPA	.+1		;IF TEST FAILS, CHANGE THIS INSTRUCTION (JUMPA .+1) TO
 38503									;JUMPA X (X IS THE ADDRESS OF THE FIRST INSTRUCTION
 38504									;IN THE SUBTEST) TO LOOP ON ERROR^
 38505
 38506					;**********
DFKAA PDP-10 KL10 BASIC INSTRUCTION DIAGNOSTIC (1) VER 0,2	MACRO %53B(1254)-4 11:50 11-Nov-24 Page 53
DFKAA6	MAC	13-Jan-89 10:22		TEST OF MSCL LOGICAL TEST INSTRUCTIONS

 38507					;THIS TEST VERIFIES THAT TRNN SKIPS THE NEXT SEQUENTIAL INSTRUCTION
 38508					;IF AND ONLY IF NOT ALL BITS IN AC-RIGHT CORRESPONDING TO 1'S IN
 38509					;E ARE ZERO.  IN THIS CASE, C(AC)=123456,,701234 AND E=300.
 38510					;HENCE, TRNN SHOULD SKIP THE NEXT INSTRUCTION AND NOT ALTER C(AC).
 38511
 38512	054535	200 07 0 00 070745 	C70100:	MOVE	7,[123456,,701234]	;PRELOAD AC WITH 123456,,701234
 38513	054536	606 07 0 00 000300 		TRNN	7,300			;*TRNN SHOULD SKIP
 38514						SToP^
 38515	054537	254 04 0 00 054540 		HALT	.+1		;TEST FAILED IF PROGRAM HALTS HERE
 38516	054540	324 00 0 00 054541 		JUMPA	.+1		;IF TEST FAILS, CHANGE THIS INSTRUCTION (JUMPA .+1) TO
 38517									;JUMPA X (X IS THE ADDRESS OF THE FIRST INSTRUCTION
 38518									;IN THE SUBTEST) TO LOOP ON ERROR^
 38519	054541	312 07 0 00 070745 		CAME	7,[123456,,701234]	;PASS IF C(AC) UNCHANGED
 38520						STOP^
 38521	054542	254 04 0 00 054543 		HALT	.+1		;TEST FAILED IF PROGRAM HALTS HERE
 38522	054543	324 00 0 00 054544 		JUMPA	.+1		;IF TEST FAILS, CHANGE THIS INSTRUCTION (JUMPA .+1) TO
 38523									;JUMPA X (X IS THE ADDRESS OF THE FIRST INSTRUCTION
 38524									;IN THE SUBTEST) TO LOOP ON ERROR^
 38525
 38526					;**********
 38527
 38528					;THIS TEST VERIFIES THAT TRNN SKIPS THE NEXT SEQUENTIAL INSTRUCTION
 38529					;IF AND ONLY IF NOT ALL BITS IN AC-RIGHT CORRESPONDING TO 1'S IN
 38530					;E ARE ZERO.  IN THIS CASE, C(AC)=123456,,701234 AND E=3.
 38531					;HENCE, TRNN SHoULD NOT SKIP THE NEXT INSTRUCTION AND NOT ALTER C(AC).
 38532
 38533	054544	200 06 0 00 070745 	C70110:	MOVE	6,[123456,,701234]	;PRELOAD AC WITH 123456,,701234
 38534	054545	606 06 0 00 000003 		TRNN	6,3			;*TRNN SHOULD NOT SKIP
 38535	054546	334 00 0 00 000000 		SKIPA				;PASS IF TRNN DID NOT SKIP
 38536						STOP^
 38537	054547	254 04 0 00 054550 		HALT	.+1		;TEST FAILED IF PROGRAM HALTS HERE
 38538	054550	324 00 0 00 054551 		JUMPA	.+1		;IF TEST FAILS, CHANGE THIS INSTRUCTION (JUMPA .+1) TO
 38539									;JUMPA X (X IS THE ADDRESS OF THE FIRST INSTRUCTION
 38540									;IN THE SUBTEST) TO LOOP ON ERROR^
 38541	054551	312 06 0 00 070745 		CAME	6,[123456,,701234]	;PASS IF C(AC) UNCHANGED
 38542						STOP^
 38543	054552	254 04 0 00 054553 		HALT	.+1		;TEST FAILED IF PROGRAM HALTS HERE
 38544	054553	324 00 0 00 054554 		JUMPA	.+1		;IF TEST FAILS, CHANGE THIS INSTRUCTION (JUMPA .+1) TO
 38545									;JUMPA X (X IS THE ADDRESS OF THE FIRST INSTRUCTION
 38546									;IN THE SUBTEST) TO LOOP ON ERROR^
 38547
 38548					;**********
DFKAA PDP-10 KL10 BASIC INSTRUCTION DIAGNOSTIC (1) VER 0,2	MACRO %53B(1254)-4 11:50 11-Nov-24 Page 54
DFKAA6	MAC	13-Jan-89 10:22		TEST OF MSCL LOGICAL TEST INSTRUCTIONS

 38549					;THIS TEST VERIFIES THAT TLNN SKIPS THE NEXT SEQUENTIAL INSTRUCTION
 38550					;IF AND ONLY IF NOT ALL BITS IN AC-LEFT CORRESPONDING TO 1'S IN E ARE ZERO.
 38551					;IN THIS CASE, C(AC)=123456,,701234 AND E=3.
 38552					;HENCE, TLNN SHOULD SKIP THE NEXT INSTRUCTION AND NOT ALTER C(AC).
 38553
 38554	054554	200 05 0 00 070745 	C70200:	MOVE	5,[123456,,701234]	;PRELOAD AC WITH 123456,,701234
 38555	054555	607 05 0 00 000003 		TLNN	5,3			;*TLNN SHOULD SKIP
 38556						STOP^
 38557	054556	254 04 0 00 054557 		HALT	.+1		;TEST FAILED IF PROGRAM HALTS HERE
 38558	054557	324 00 0 00 054560 		JUMPA	.+1		;IF TEST FAILS, CHANGE THIS INSTRUCTION (JUMPA .+1) TO
 38559									;JUMPA X (X IS THE ADDRESS OF THE FIRST INSTRUCTION
 38560									;IN THE SUBTEST) TO LOOP ON ERROR^
 38561	054560	312 05 0 00 070745 		CAME	5,[123456,,701234]	;PASS IF C(AC) UNCHANGED
 38562						STOP^
 38563	054561	254 04 0 00 054562 		HALT	.+1		;TEST FAILED IF PROGRAM HALTS HERE
 38564	054562	324 00 0 00 054563 		JUMPA	.+1		;IF TEST FAILS, CHANGE THIS INSTRUCTION (JUMPA .+1) TO
 38565									;JUMPA X (X IS THE ADDRESS OF THE FIRST INSTRUCTION
 38566									;IN THE SUBTEST) TO LOOP ON ERROR^
 38567
 38568					;**********
 38569
 38570					;THIS TEST VERIFIES thAT TLNN SkIPS THE NEXT SEQUENTIAL INSTRUcTION
 38571					;IF AND ONLY IF NOT ALL BITS IN AC-LEFT CORRESPONDING TO 1'S IN E ARE ZERO.
 38572					;IN THIS CASE, C(AC)=123456,,701234 AND E=300.
 38573					;HENCE, TLNN SHOULD NOT SKIP THE NEXT INSTRUCTION AND NOT ALTER C(AC).
 38574
 38575	054563	200 04 0 00 070745 	C70210:	MOVE	4,[123456,,701234]	;PRELOAD AC WITH 123456,,701234
 38576	054564	607 04 0 00 000300 		TLNN	4,300			;*TLNN SHOULD NOT SKIP
 38577	054565	334 00 0 00 000000 		SKIPA				;PASS IF TLNN DOES NOT SKIP
 38578						STOP^
 38579	054566	254 04 0 00 054567 		HALT	.+1		;TEST FAILED IF PROGRAM HALTS HERE
 38580	054567	324 00 0 00 054570 		JUMPA	.+1		;IF TEST FAILS, CHANGE THIS INSTRUCTION (JUMPA .+1) TO
 38581									;JUMPA X (X IS THE ADDRESS OF THE FIRST INSTRUCTION
 38582									;IN THE SUBTEST) TO LOOP ON ERROR^
 38583	054570	312 04 0 00 070745 		CAME	4,[123456,,701234]	;PASS IF C(AC) UNCHANGED
 38584						STOP^
 38585	054571	254 04 0 00 054572 		HALT	.+1		;TEST FAILED IF PROGRAM HALTS HERE
 38586	054572	324 00 0 00 054573 		JUMPA	.+1		;IF TEST FAILS, CHANGE THIS INSTRUCTION (JUMPA .+1) TO
 38587									;JUMPA X (X IS THE ADDRESS OF THE FIRST INSTRUCTION
 38588									;IN THE SUBTEST) TO LOOP ON ERROR^
 38589
 38590					;**********
DFKAA PDP-10 KL10 BASIC INSTRUCTION DIAGNOSTIC (1) VER 0,2	MACRO %53B(1254)-4 11:50 11-Nov-24 Page 55
DFKAA6	MAC	13-Jan-89 10:22		TEST OF MSCL LOGICAL TEST INSTRUCTIONS

 38591					;THIS TEST VERIFIES THAT TSNE SKIPS THE NEXT SEQUENTIAL INSTRUCTION
 38592					;IF AND ONLY IF ALL BITS IN THE AC CORRESPONDING TO 1'S IN C(E) WITH
 38593					;BOTH HALVES SNAPPED ARE ZERO.  NEITHER AC NOR E ARE AFFECTED.
 38594					;IN THIS CASE, C(AC)=123456,,701234 AND C(E)=076543,,654321
 38595					;HENCE, TSNE SHOULD SKIP THE NEXT INSTRUCtION AND
 38596					;BOTH C(AC) AND C(E) SHOULD BE UNMODIFIED.
 38597
 38598	054573	200 03 0 00 070745 	C70300:	MOVE	3,[123456,,701234]	;PRELOAD AC WITH 123456,,701234
 38599	054574	200 04 0 00 070754 		MOVE	4,[76543,,654321]	;PRELOAD E WITH 076543,,654321
 38600	054575	613 03 0 00 000004 		TSNE	3,4			;*TSNE SHOULD SKIP
 38601						STOP^
 38602	054576	254 04 0 00 054577 		HALT	.+1		;TEST FAILED IF PROGRAM HALTS HERE
 38603	054577	324 00 0 00 054600 		JUMPA	.+1		;IF TEST FAILS, CHANGE THIS INSTRUCTION (JUMPA .+1) TO
 38604									;JUMPA X (X IS THE ADDRESS OF THE FIRST INSTRUCTION
 38605									;IN THE SUBTEST) TO LOOP ON ERROR^
 38606	054600	312 03 0 00 070745 		CAME	3,[123456,,701234]	;PASS IF C(AC) UNCHANGED
 38607						STOP^
 38608	054601	254 04 0 00 054602 		HALT	.+1		;TEST FAILED IF PROGRAM HALTS HERE
 38609	054602	324 00 0 00 054603 		JUMPA	.+1		;IF TEST FAILS, CHANGE THIS INSTRUCTION (JUMPA .+1) TO
 38610									;JUMPA X (X IS THE ADDRESS OF THE FIRST INSTRUCTION
 38611									;IN THE SUBTEST) TO LOOP ON ERROR^
 38612	054603	312 04 0 00 070754 		CAME	4,[76543,,654321]	;PASS IF C(E) UNCHANGED
 38613						STOP^
 38614	054604	254 04 0 00 054605 		HALT	.+1		;TEST FAILED IF PROGRAM HALTS HERE
 38615	054605	324 00 0 00 054606 		JUMPA	.+1		;IF TEST FAILS, CHANGE THIS INSTRUCTION (JUMPA .+1) TO
 38616									;JUMPA X (X IS THE ADDRESS OF THE FIRST INSTRUCTION
 38617									;IN THE SUBTEST) TO LOOP ON ERROR^
 38618
 38619					;**********
 38620
 38621					;THIS TEST VERIFIES THAT TSNE SKIPS THE NEXT SEQUENTIAL INSTRUCTION
 38622					;IF AND ONLY IF ALL BITS IN THE AC CORRESPONDING TO 1'S IN C(E) WITH
 38623					;BOTH HALVES SNAPPED ARE ZERO.  NEITHER AC NOR E ARE AFFECTED.
 38624					;IN THIS CASE, C(AC)=123456,,701234 AND C(E)=076543,,654323
 38625					;HENCE, TSNE SHOULD NOT SKIP THE NEXT INSTRUCTION AND
 38626					;BOTH C(AC) AND C(E) SHOULD BE UNMODIFIED.
 38627
 38628	054606	200 02 0 00 070745 	C70310:	MOVE	2,[123456,,701234]	;PRELOAD AC WITH 123456,,701234
 38629	054607	200 03 0 00 070755 		MOVE	3,[76543,,654323]	;PRELOAD E WITH 076543,,654323
 38630	054610	613 02 0 00 000003 		TSNE	2,3			;*TSNE SHOULD NOT SKIP
 38631	054611	334 00 0 00 000000 		SKIPA				;PASS IF TSOE DId NOT SKIP
 38632						STOP^
 38633	054612	254 04 0 00 054613 		HALT	.+1		;TEST FAILED IF PROGRAM HALTS HERE
 38634	054613	324 00 0 00 054614 		JUMPA	.+1		;IF TEST FAILS, CHANGE THIS INSTRUCTION (JUMPA .+1) TO
 38635									;JUMPA X (X IS THE ADDRESS OF THE FIRST INSTRUCTION
 38636									;IN THE SUBTEST) TO LOOP ON ERROR^
 38637	054614	312 02 0 00 070745 		CAME	2,[123456,,701234]	;PASS IF C(AC) UNCHANGED
 38638						STOP^
 38639	054615	254 04 0 00 054616 		HALT	.+1		;TEST FAILED IF PROGRAM HALTS HERE
 38640	054616	324 00 0 00 054617 		JUMPA	.+1		;IF TEST FAILS, CHANGE THIS INSTRUCTION (JUMPA .+1) TO
 38641									;JUMPA X (X IS THE ADDRESS OF THE FIRST INSTRUCTION
 38642									;IN THE SUBTEST) TO LOOP ON ERROR^
 38643	054617	312 03 0 00 070755 		CAME	3,[76543,,654323]	;PASS IF C(E) UNCHANGED
 38644						STOP^
 38645	054620	254 04 0 00 054621 		HALT	.+1		;TEST FAILED IF PROGRAM HALTS HERE
DFKAA PDP-10 KL10 BASIC INSTRUCTION DIAGNOSTIC (1) VER 0,2	MACRO %53B(1254)-4 11:50 11-Nov-24 Page 55-1
DFKAA6	MAC	13-Jan-89 10:22		TEST OF MSCL LOGICAL TEST INSTRUCTIONS

 38646	054621	324 00 0 00 054622 		JUMPA	.+1		;IF TEST FAILS, CHANGE THIS INSTRUCTION (JUMPA .+1) TO
 38647									;JUMPA X (X IS THE ADDRESS OF THE FIRST INSTRUCTION
 38648									;IN THE SUBTEST) TO LOOP ON ERROR^
 38649
 38650					;**********
DFKAA PDP-10 KL10 BASIC INSTRUCTION DIAGNOSTIC (1) VER 0,2	MACRO %53B(1254)-4 11:50 11-Nov-24 Page 56
DFKAA6	MAC	13-Jan-89 10:22		TEST OF MSCL LOGICAL TEST INSTRUCTIONS

 38651					;THIS TEST VERIFIES THAT TSNA ALWAYS SKIPS THE NEXT SEQUENTIAL INSTRUCTION
 38652					;NEITHER AC NOR E ARE AFFECTED.
 38653					;IN THIS CASE, C(AC)=123456,,701234 AND C(E)=076543,,654321
 38654					;HENCE, TSNA SHOULD SKIP THE NEXT INSTRUCTION AND
 38655					;BOTH C(AC) AND C(E) SHOULD BE UNMODIFIED
 38656
 38657	054622	200 01 0 00 070745 	C70400:	MOVE	1,[123456,,701234]	;PRELOAD AC WITH 123456,,701234
 38658	054623	200 02 0 00 070754 		MOVE	2,[76543,,654321]	;PRELOAD E WITH 076543,,654321
 38659	054624	615 01 0 00 000002 		TSNA	1,2			;*TSNA SHOULD SKIP
 38660						STOP^
 38661	054625	254 04 0 00 054626 		HALT	.+1		;TEST FAILED IF PROGRAM HALTS HERE
 38662	054626	324 00 0 00 054627 		JUMPA	.+1		;IF TEST FAILS, CHANGE THIS INSTRUCTION (JUMPA .+1) TO
 38663									;JUMPA X (X IS THE ADDRESS OF THE FIRST INSTRUCTION
 38664									;IN THE SUBTEST) TO LOOP ON ERROR^
 38665	054627	312 01 0 00 070745 		CAME	1,[123456,,701234]	;PASS IF C(AC) UNCHANGED
 38666						STOP^
 38667	054630	254 04 0 00 054631 		HALT	.+1		;TEST FAILED IF PROGRAM HALTS HERE
 38668	054631	324 00 0 00 054632 		JUMPA	.+1		;IF TEST FAILS, CHANGE THIS INSTRUCTION (JUMPA .+1) TO
 38669									;JUMPA X (X IS THE ADDRESS OF THE FIRST INSTRUCTION
 38670									;IN THE SUBTEST) TO LOOP ON ERROR^
 38671	054632	312 02 0 00 070754 		CAME	2,[76543,,654321]	;PASS IF C(E) UNCHANGED
 38672						STOP^
 38673	054633	254 04 0 00 054634 		HALT	.+1		;TEST FAILED IF PROGRAM HALTS HERE
 38674	054634	324 00 0 00 054635 		JUMPA	.+1		;IF TEST FAILS, CHANGE THIS INSTRUCTION (JUMPA .+1) TO
 38675									;JUMPA X (X IS THE ADDRESS OF THE FIRST INSTRUCTION
 38676									;IN THE SUBTEST) TO LOOP ON ERROR^
 38677
 38678					;**********
 38679
 38680					;THIS TEST VERIFIES THAT TSNA ALWAYS SKIPS THE NEXT SEQUENTIAL INSTRUCTION
 38681					;NEITHER AC NOR E ARE EFFECTED.
 38682					;IN THIS CASE, C(AC)=123456,,701234 AND C(E)=076543,,654323
 38683					;HENCE, TSNA SHOULD SKIP THE NEXT INSTRUCTION AND
 38684					;BOTH C(AC) AND C(E) SHOULD BE UNMODIFIED
 38685
 38686	054635	200 00 0 00 070745 	C70410:	MOVE	0,[123456,,701234]	;PRELOAD AC WITH 123456,,701234
 38687	054636	200 01 0 00 070755 		MOVE	1,[76543,,654323]	;PRELOAD E WITH 076543,,654323
 38688	054637	615 00 0 00 000001 		TSNA	0,1			;*TSNA SHOULD SKIP
 38689						STOP^
 38690	054640	254 04 0 00 054641 		HALT	.+1		;TEST FAILED IF PROGRAM HALTS HERE
 38691	054641	324 00 0 00 054642 		JUMPA	.+1		;IF TEST FAILS, CHANGE THIS INSTRUCTION (JUMPA .+1) TO
 38692									;JUMPA X (X IS THE ADDRESS OF THE FIRST INSTRUCTION
 38693									;IN THE SUBTEST) TO LOOP ON ERROR^
 38694	054642	312 01 0 00 070755 		CAME	1,[76543,,654323]	;PASS IF C(E) UNCHANGED
 38695						STOP^
 38696	054643	254 04 0 00 054644 		HALT	.+1		;TEST FAILED IF PROGRAM HALTS HERE
 38697	054644	324 00 0 00 054645 		JUMPA	.+1		;IF TEST FAILS, CHANGE THIS INSTRUCTION (JUMPA .+1) TO
 38698									;JUMPA X (X IS THE ADDRESS OF THE FIRST INSTRUCTION
 38699									;IN THE SUBTEST) TO LOOP ON ERROR^
 38700
 38701					;**********
DFKAA PDP-10 KL10 BASIC INSTRUCTION DIAGNOSTIC (1) VER 0,2	MACRO %53B(1254)-4 11:50 11-Nov-24 Page 57
DFKAA6	MAC	13-Jan-89 10:22		TEST OF MSCL LOGICAL TEST INSTRUCTIONS

 38702					;THIS TEST VERIFIES THAT TSNN SKIPS THE NEXT SEQUENTIAL INSTRUCTION
 38703					;IF AND ONLY IF NOT ALL HITS IN THE AC CORRESPONDING TO 1'S IN C(E) WITH
 38704					;BOTH HALVES SWAPPED ARE ZERO.  NEITHER AC NOR E ARE AFFECTED.
 38705					;IN THIS CASE, C(AC)=123456,,701234 AND C(E)=076547,,654321
 38706					;HENCE, TSNN SHOULD SKIP THE NEXT INSTRUCTION AND
 38707					;BOTH C(AC) AND C(E) SHOULD BE UNMODIFIED
 38708
 38709	054645	200 17 0 00 070745 	C70500:	MOVE	17,[123456,,701234]	;PRELOAD AC WITH 123456,,701234
 38710	054646	200 00 0 00 070756 		MOVE	0,[76547,,654321]	;PRELOAD E WITH 076547,,654321
 38711	054647	617 17 0 00 000000 		TSNN	17,0			;*TSNN SHOULD SKIP
 38712						STOP^
 38713	054650	254 04 0 00 054651 		HALT	.+1		;TEST FAILED IF PROGRAM HALTS HERE
 38714	054651	324 00 0 00 054652 		JUMPA	.+1		;IF TEST FAILS, CHANGE THIS INSTRUCTION (JUMPA .+1) TO
 38715									;JUMPA X (X IS THE ADDRESS OF THE FIRST INSTRUCTION
 38716									;IN THE SUBTEST) TO LOOP ON ERROR^
 38717	054652	312 17 0 00 070745 		CAME	17,[123456,,701234]	;PASS IF C(AC) UNCHANGED
 38718						STOP^
 38719	054653	254 04 0 00 054654 		HALT	.+1		;TEST FAILED IF PROGRAM HALTS HERE
 38720	054654	324 00 0 00 054655 		JUMPA	.+1		;IF TEST FAILS, CHANGE THIS INSTRUCTION (JUMPA .+1) TO
 38721									;JUMPA X (X IS THE ADDRESS OF THE FIRST INSTRUCTION
 38722									;IN THE SUBTEST) TO LOOP ON ERROR^
 38723	054655	312 00 0 00 070756 		CAME	0,[76547,,654321]	;PASS IF C(E) UNCHANGED
 38724						STOP^
 38725	054656	254 04 0 00 054657 		HALT	.+1		;TEST FAILED IF PROGRAM HALTS HERE
 38726	054657	324 00 0 00 054660 		JUMPA	.+1		;IF TEST FAILS, CHANGE THIS INSTRUCTION (JUMPA .+1) TO
 38727									;JUMPA X (X IS THE ADDRESS OF THE FIRST INSTRUCTION
 38728									;IN THE SUBTEST) TO LOOP ON ERROR^
 38729
 38730					;**********
 38731
 38732					;THIS TEST VERIFIES THAT TSNN SKIPS THE NEXT SEQUENTIAL INSTRUCTION
 38733					;IF AND ONLY IF NOT ALL BITS IN THE AC CORRESPONDING TO 1'S IN C(E) WITH
 38734					;BOTH HALVES SWAPPED ARE ZERO.  NEITHER AC NOR E ARE AFFECTED.
 38735					;IN THIS CASE, C(AC)=123456,,701234 AND C(E)=076543,,654321
 38736					;HENCE, TSNN SHOULD NOT SKIP THE NEXT INSTRUCTION AND
 38737					;BOTH C(AC) AND C(E) SHOULD BE UNMODIFIED
 38738
 38739	054660	200 16 0 00 070745 	C70510:	MOVE	16,[123456,,701234]	;PRELOAD AC WITH 123456,,701234
 38740	054661	200 17 0 00 070754 		MOVE	17,[76543,,654321]	;PRELOAD E WITH 076543,,654321
 38741	054662	617 16 0 00 000017 		TSNN	16,17			;*TSNN SHOULD NOT SKIP
 38742	054663	334 00 0 00 000000 		SKIPA				;PASS IF TSNN DID NOT SKIP
 38743						STOP^
 38744	054664	254 04 0 00 054665 		HALT	.+1		;TEST FAILED IF PROGRAM HALTS HERE
 38745	054665	324 00 0 00 054666 		JUMPA	.+1		;IF TEST FAILS, CHANGE THIS INSTRUCTION (JUMPA .+1) TO
 38746									;JUMPA X (X IS THE ADDRESS OF THE FIRST INSTRUCTION
 38747									;IN THE SUBTEST) TO LOOP ON ERROR^
 38748	054666	312 16 0 00 070745 		CAME	16,[123456,,701234]	;PASS IF C(AC) UNCHANGED
 38749						STOP^
 38750	054667	254 04 0 00 054670 		HALT	.+1		;TEST FAILED IF PROGRAM HALTS HERE
 38751	054670	324 00 0 00 054671 		JUMPA	.+1		;IF TEST FAILS, CHANGE THIS INSTRUCTION (JUMPA .+1) TO
 38752									;JUMPA X (X IS THE ADDRESS OF THE FIRST INSTRUCTION
 38753									;IN THE SUBTEST) TO LOOP ON ERROR^
 38754	054671	312 17 0 00 070754 		CAME	17,[76543,,654321]	;PASS IF C(E) UNCHANGED
 38755						STOP^
 38756	054672	254 04 0 00 054673 		HALT	.+1		;TEST FAILED IF PROGRAM HALTS HERE
DFKAA PDP-10 KL10 BASIC INSTRUCTION DIAGNOSTIC (1) VER 0,2	MACRO %53B(1254)-4 11:50 11-Nov-24 Page 57-1
DFKAA6	MAC	13-Jan-89 10:22		TEST OF MSCL LOGICAL TEST INSTRUCTIONS

 38757	054673	324 00 0 00 054674 		JUMPA	.+1		;IF TEST FAILS, CHANGE THIS INSTRUCTION (JUMPA .+1) TO
 38758									;JUMPA X (X IS THE ADDRESS OF THE FIRST INSTRUCTION
 38759									;IN THE SUBTEST) TO LOOP ON ERROR^
 38760
 38761					;**********
DFKAA PDP-10 KL10 BASIC INSTRUCTION DIAGNOSTIC (1) VER 0,2	MACRO %53B(1254)-4 11:50 11-Nov-24 Page 58
DFKAA6	MAC	13-Jan-89 10:22		TEST OF MSCL LOGICAL TEST INSTRUCTIONS

 38762					;THIS TEST VERIFIES THAT TRZ CHANGES ALL BITS IN THE AC-RIGHT WHICH
 38763					;CORRESPOND TO 1'S IN E TO ZERO AND DOES NOT SKIP.
 38764					;IN THIS CASE, C(AC)=123456,,701234 AND E=3
 38765					;HENCE, THE RESULT IN THE AC SHOULD BE 123456,,701234
 38766
 38767	054674	200 15 0 00 070745 	C70600:	MOVE	15,[123456,,701234]	;PRELOAD AC WITH 123456,,701234]
 38768	054675	620 12 0 00 000003 		TRZ	12,3			;*TRZ SHOULD PLACE 123456,,701234 INTO
 38769										;THE AC AND NOT SKIP
 38770	054676	334 00 0 00 000000 		SKIPA				;PASS IF TRZ DOES NOT SKIP
 38771						STOP^
 38772	054677	254 04 0 00 054700 		HALT	.+1		;TEST FAILED IF PROGRAM HALTS HERE
 38773	054700	324 00 0 00 054701 		JUMPA	.+1		;IF TEST FAILS, CHANGE THIS INSTRUCTION (JUMPA .+1) TO
 38774									;JUMPA X (X IS THE ADDRESS OF THE FIRST INSTRUCTION
 38775									;IN THE SUBTEST) TO LOOP ON ERROR^
 38776	054701	312 15 0 00 070745 		CAME	15,[123456,,701234]	;PASS IF C(AC)=123456,,701234
 38777						STOP^
 38778	054702	254 04 0 00 054703 		HALT	.+1		;TEST FAILED IF PROGRAM HALTS HERE
 38779	054703	324 00 0 00 054704 		JUMPA	.+1		;IF TEST FAILS, CHANGE THIS INSTRUCTION (JUMPA .+1) TO
 38780									;JUMPA X (X IS THE ADDRESS OF THE FIRST INSTRUCTION
 38781									;IN THE SUBTEST) TO LOOP ON ERROR^
 38782
 38783					;**********
 38784
 38785					;THIS TEST VERIFIES THAT TRZ CHANGES ALL BITS IN THE AC-RIGHT WHICH
 38786					;CORRESPOND TO 1'S IN E TO ZERO AND DOES NOT SKIP.
 38787					;IN THIS CASE, C(AC)=123456,,701234 AND E=300
 38788					;HENCE, THE RESULT IN THE AC SHOULD BE 123456,,701034
 38789
 38790	054704	200 14 0 00 070745 	C70610:	MOVE	14,[123456,,701234]	;PRELOAD AC WITH 123456,,701234
 38791	054705	620 14 0 00 000300 		TRZ	14,300			;*TRZ SHOULD PLACE 123456,,701234 INTO
 38792										;THE ACAND NOT SKIP
 38793	054706	334 00 0 00 000000 		SKIPA				;PASS IF TRX DOES NOT SKIP
 38794						STOP^
 38795	054707	254 04 0 00 054710 		HALT	.+1		;TEST FAILED IF PROGRAM HALTS HERE
 38796	054710	324 00 0 00 054711 		JUMPA	.+1		;IF TEST FAILS, CHANGE THIS INSTRUCTION (JUMPA .+1) TO
 38797									;JUMPA X (X IS THE ADDRESS OF THE FIRST INSTRUCTION
 38798									;IN THE SUBTEST) TO LOOP ON ERROR^
 38799	054711	312 14 0 00 070757 		CAME	14,[123456,,701034]	;PASS IF C(AC)=123456,,701034
 38800						STOP^
 38801	054712	254 04 0 00 054713 		HALT	.+1		;TEST FAILED IF PROGRAM HALTS HERE
 38802	054713	324 00 0 00 054714 		JUMPA	.+1		;IF TEST FAILS, CHANGE THIS INSTRUCTION (JUMPA .+1) TO
 38803									;JUMPA X (X IS THE ADDRESS OF THE FIRST INSTRUCTION
 38804									;IN THE SUBTEST) TO LOOP ON ERROR^
 38805
 38806					;**********
DFKAA PDP-10 KL10 BASIC INSTRUCTION DIAGNOSTIC (1) VER 0,2	MACRO %53B(1254)-4 11:50 11-Nov-24 Page 59
DFKAA6	MAC	13-Jan-89 10:22		TEST OF MSCL LOGICAL TEST INSTRUCTIONS

 38807					;THIS TEST VERIFIES THAT TLZ CHANGES ALL BITS IN THE AC-LEFT WHICH
 38808					;CORRESPOND TO 1'S IN E TO ZERO AND DOES NOT SKIP.
 38809					;IN THIS CACE, C(AC)=123456,,701234 AND E=300
 38810					;HENCE, THE RESULT IN THE AC SHOUL BE 123456,,701234
 38811
 38812	054714	200 13 0 00 070745 	C70700:	MOVE	13,[123456,,701234]	;PRELOAD AC WITH 123456,,701234
 38813	054715	621 13 0 00 000300 		TLZ	13,300			;*TLZ SHOULD PLACE 123456,,701234 INTO
 38814										;THE AC AND NOT SKIP
 38815	054716	334 00 0 00 000000 		SKIPA				;PASS IF TLZ DOES NOT SKIP
 38816						STOP^
 38817	054717	254 04 0 00 054720 		HALT	.+1		;TEST FAILED IF PROGRAM HALTS HERE
 38818	054720	324 00 0 00 054721 		JUMPA	.+1		;IF TEST FAILS, CHANGE THIS INSTRUCTION (JUMPA .+1) TO
 38819									;JUMPA X (X IS THE ADDRESS OF THE FIRST INSTRUCTION
 38820									;IN THE SUBTEST) TO LOOP ON ERROR^
 38821	054721	312 13 0 00 070745 		CAME	13,[123456,,701234]	;PASS IF C(AC)=123456,,701234
 38822						STOP^
 38823	054722	254 04 0 00 054723 		HALT	.+1		;TEST FAILED IF PROGRAM HALTS HERE
 38824	054723	324 00 0 00 054724 		JUMPA	.+1		;IF TEST FAILS, CHANGE THIS INSTRUCTION (JUMPA .+1) TO
 38825									;JUMPA X (X IS THE ADDRESS OF THE FIRST INSTRUCTION
 38826									;IN THE SUBTEST) TO LOOP ON ERROR^
 38827
 38828					;**********
 38829
 38830					;THIS TEST VERIFIES THAT TLZ CHANGES ALL BITS IN THE AC-LEFT WHICH
 38831					;CORRSPOND TO 1'S IN E TO ZERO AND DOES NOT SKIP.
 38832					;IN THIS CASE, C(AC)=123456,,701234 AND E=3
 38833					;HENCE, THE RESULT IN THE AC SHOULD BE 123454,,701234
 38834
 38835	054724	200 12 0 00 070745 	C70710:	MOVE	12,[123456,,701234]	;PRELOAD AC WITH 123456,,701234
 38836	054725	621 12 0 00 000003 		TLZ	12,3			;*TLZ SHOULD PLACE 123454,,701234 INTO
 38837										;THE AC AND NOT SKIP
 38838	054726	334 00 0 00 000000 		SKIPA				;PASS IF TLZ DOES NOT SKIP
 38839						STOP^
 38840	054727	254 04 0 00 054730 		HALT	.+1		;TEST FAILED IF PROGRAM HALTS HERE
 38841	054730	324 00 0 00 054731 		JUMPA	.+1		;IF TEST FAILS, CHANGE THIS INSTRUCTION (JUMPA .+1) TO
 38842									;JUMPA X (X IS THE ADDRESS OF THE FIRST INSTRUCTION
 38843									;IN THE SUBTEST) TO LOOP ON ERROR^
 38844	054731	312 12 0 00 070760 		CAME	12,[123454,,701234]	;PASS IF C(AC)=123454,701234
 38845						STOP^
 38846	054732	254 04 0 00 054733 		HALT	.+1		;TEST FAILED IF PROGRAM HALTS HERE
 38847	054733	324 00 0 00 054734 		JUMPA	.+1		;IF TEST FAILS, CHANGE THIS INSTRUCTION (JUMPA .+1) TO
 38848									;JUMPA X (X IS THE ADDRESS OF THE FIRST INSTRUCTION
 38849									;IN THE SUBTEST) TO LOOP ON ERROR^
 38850
 38851					;**********
DFKAA PDP-10 KL10 BASIC INSTRUCTION DIAGNOSTIC (1) VER 0,2	MACRO %53B(1254)-4 11:50 11-Nov-24 Page 60
DFKAA6	MAC	13-Jan-89 10:22		TEST OF MSCL LOGICAL TEST INSTRUCTIONS

 38852					;THIS TEST VERIFIES THAT TRZE SKIPS THE NEXT SEQUENTIAL INSTRUCTION
 38853					;IF AND ONLY IF ALL BITS IN AC-RIGHT CORRESPONDING TO 1'S IN E ARE ZERO.
 38854					;THESE MASKED AC BITS ARE THEN CHANGED TO ZEROS.
 38855					;IN THIS CASE, C(AC)=123456,,701234 AND E=3
 38856					;HENCE, TRZE SHOULD SKIP THE NEXT SEQUENTIAL INSTRUCTION
 38857					;AND THE RESULT IN THE AC SHOULD BE 123456,,701234
 38858
 38859	054734	200 11 0 00 070745 	C71000:	MOVE	11,[123456,,701234]	;PRELOAD AC WITH 123456,,701234
 38860	054735	622 11 0 00 000003 		TRZE	11,3			;*TRZE SHOULD SKIP AND
 38861										;PLACE 123456,,701234 INTO THE AC
 38862						STOP^
 38863	054736	254 04 0 00 054737 		HALT	.+1		;TEST FAILED IF PROGRAM HALTS HERE
 38864	054737	324 00 0 00 054740 		JUMPA	.+1		;IF TEST FAILS, CHANGE THIS INSTRUCTION (JUMPA .+1) TO
 38865									;JUMPA X (X IS THE ADDRESS OF THE FIRST INSTRUCTION
 38866									;IN THE SUBTEST) TO LOOP ON ERROR^
 38867	054740	312 11 0 00 070745 		CAME	11,[123456,,701234]	;PASS IF C(AC)=123456,,701234
 38868						STOP^
 38869	054741	254 04 0 00 054742 		HALT	.+1		;TEST FAILED IF PROGRAM HALTS HERE
 38870	054742	324 00 0 00 054743 		JUMPA	.+1		;IF TEST FAILS, CHANGE THIS INSTRUCTION (JUMPA .+1) TO
 38871									;JUMPA X (X IS THE ADDRESS OF THE FIRST INSTRUCTION
 38872									;IN THE SUBTEST) TO LOOP ON ERROR^
 38873
 38874					;**********
 38875
 38876					;THIS TEST VERIFIES THAT TRZE SKIPS THE NEXT SEQUENTIAL INSTRUCTION
 38877					;IF AND ONLY IF ALL BITS IN AC-RIGHT CORRSPONDING TO 1'S IN E ARE ZERO.
 38878					;THESE MASKED AC BITS ARE THEN CHANGED TO ZEROS.
 38879					;IN THIS CASE, C(AC)=123456,,701234 AND E=300
 38880					;HENCE, TRZE SHOULD NOT SKIP THE NEXT SEQUENTIAL INSTRUCTION
 38881					;AND THE RESULT IN THE AC SHOUDL BE 123456,,701034
 38882
 38883	054743	200 10 0 00 070745 	C71010:	MOVE	10,[123456,,701234]	;PRELOAD AC WIT@ 123456,,701234
 38884	054744	622 10 0 00 000300 		TRZE	10,300			;*TRZE SHOULD PLACE 123456,,701034 INTO
 38885										;THE AC AND NOT SKIP
 38886	054745	334 00 0 00 000000 		SKIPA				;PASS IF TRZE DOES NOT SKIP
 38887						STOP^
 38888	054746	254 04 0 00 054747 		HALT	.+1		;TEST FAILED IF PROGRAM HALTS HERE
 38889	054747	324 00 0 00 054750 		JUMPA	.+1		;IF TEST FAILS, CHANGE THIS INSTRUCTION (JUMPA .+1) TO
 38890									;JUMPA X (X IS THE ADDRESS OF THE FIRST INSTRUCTION
 38891									;IN THE SUBTEST) TO LOOP ON ERROR^
 38892	054750	312 10 0 00 070757 		CAME	10,[123456,,701034]	;PASS IF C(AC)=123456,,701034
 38893						STOP^
 38894	054751	254 04 0 00 054752 		HALT	.+1		;TEST FAILED IF PROGRAM HALTS HERE
 38895	054752	324 00 0 00 054753 		JUMPA	.+1		;IF TEST FAILS, CHANGE THIS INSTRUCTION (JUMPA .+1) TO
 38896									;JUMPA X (X IS THE ADDRESS OF THE FIRST INSTRUCTION
 38897									;IN THE SUBTEST) TO LOOP ON ERROR^
 38898
 38899					;**********
DFKAA PDP-10 KL10 BASIC INSTRUCTION DIAGNOSTIC (1) VER 0,2	MACRO %53B(1254)-4 11:50 11-Nov-24 Page 61
DFKAA6	MAC	13-Jan-89 10:22		TEST OF MSCL LOGICAL TEST INSTRUCTIONS

 38900					;THIS TEST VERIFIES THAT TLZE SKIPS THE NEXT SEQUENTIAL INSTRUCTION
 38901					;IF AND ONLY IF ALL BITS IN AC-LEFT CORRESPONDING TO 1'S IN E ARE ZERO.
 38902					;THESE MASKED AC BITS ARE THEN CHANGED TO ZEROS.
 38903					;IN THIS CASE, C(AC)=123456,,701234 AND E=300
 38904					;HENCE, TLZE SHOULD SKIP THE NEXT SEQUENTIAL INSTRUCTION
 38905					;AND THE RESULT IN THE AC SHOULD BE 123456,,701234
 38906
 38907	054753	200 07 0 00 070745 	C71100:	MOVE	7,[123456,,701234]	;PRELOAD AC WITH 123456,,701234
 38908	054754	623 07 0 00 000300 		TLZE	7,300			;*TLZE SHOULD SKIP AND
 38909										;PLACE 123456,,701234 INTO THE AC
 38910						STOP^
 38911	054755	254 04 0 00 054756 		HALT	.+1		;TEST FAILED IF PROGRAM HALTS HERE
 38912	054756	324 00 0 00 054757 		JUMPA	.+1		;IF TEST FAILS, CHANGE THIS INSTRUCTION (JUMPA .+1) TO
 38913									;JUMPA X (X IS THE ADDRESS OF THE FIRST INSTRUCTION
 38914									;IN THE SUBTEST) TO LOOP ON ERROR^
 38915	054757	312 07 0 00 070745 		CAME	7,[123456,,701234]	;PASS IF C(AC)=123456,,701234
 38916						STOP^
 38917	054760	254 04 0 00 054761 		HALT	.+1		;TEST FAILED IF PROGRAM HALTS HERE
 38918	054761	324 00 0 00 054762 		JUMPA	.+1		;IF TEST FAILS, CHANGE THIS INSTRUCTION (JUMPA .+1) TO
 38919									;JUMPA X (X IS THE ADDRESS OF THE FIRST INSTRUCTION
 38920									;IN THE SUBTEST) TO LOOP ON ERROR^
 38921
 38922					;**********
 38923
 38924					;THIS TEST VERIFIES THAT TLZE SKIPS THE NEXT SEQUENTIAL INSTRUCTION
 38925					;IF AND ONLY IF ALL BITS IN AC-LEFT CORRESPONDING TO 1'S IN E ARE ZERO.
 38926					;THESE MASKED AC BITS ARE THEN CHANGED TO ZEROS.
 38927					;IN THIS CASE, C(AC)=123456,,701234 AND E=3
 38928					;HENCE, TLZE SHOULD NOT SKIP THE NEXT SEQUENTIAL INSTRUCTION
 38929					;AND THE RESULT IN THE AC SHOULD BE 123454,,701234
 38930
 38931	054762	200 06 0 00 070745 	C71110:	MOVE	6,[123456,,701234]	;PRELOAD AC WITH 123456,,701234
 38932	054763	623 06 0 00 000003 		TLZE	6,3			;*TLZE SHOULD PLACE 123454,,701234 INTO
 38933										;THE AC AND NOT SKIP
 38934	054764	334 00 0 00 000000 		SKIPA				;PASS IF TLZE DOES NOT SKIP
 38935						STOP^
 38936	054765	254 04 0 00 054766 		HALT	.+1		;TEST FAILED IF PROGRAM HALTS HERE
 38937	054766	324 00 0 00 054767 		JUMPA	.+1		;IF TEST FAILS, CHANGE THIS INSTRUCTION (JUMPA .+1) TO
 38938									;JUMPA X (X IS THE ADDRESS OF THE FIRST INSTRUCTION
 38939									;IN THE SUBTEST) TO LOOP ON ERROR^
 38940	054767	312 06 0 00 070760 		CAME	6,[123454,,701234]	;PASS IF C(AC)=123454,,701234
 38941						STOP^
 38942	054770	254 04 0 00 054771 		HALT	.+1		;TEST FAILED IF PROGRAM HALTS HERE
 38943	054771	324 00 0 00 054772 		JUMPA	.+1		;IF TEST FAILS, CHANGE THIS INSTRUCTION (JUMPA .+1) TO
 38944									;JUMPA X (X IS THE ADDRESS OF THE FIRST INSTRUCTION
 38945									;IN THE SUBTEST) TO LOOP ON ERROR^
 38946
 38947					;**********
DFKAA PDP-10 KL10 BASIC INSTRUCTION DIAGNOSTIC (1) VER 0,2	MACRO %53B(1254)-4 11:50 11-Nov-24 Page 62
DFKAA6	MAC	13-Jan-89 10:22		TEST OF MSCL LOGICAL TEST INSTRUCTIONS

 38948					;THIS TEST VERIFIES THAT TRZA ALWAYS SKIPS THE NEXT SEQUENTIAL INSTRUCTION
 38949					;AND CHANGES ALL BITS IN AC-RIGHT WHICH CORRESPOND TO 1'S IN E TO ZERO.
 38950					;IN THIS CASE, C(AC)=123456,,701234 AND E=3.
 38951					;HENCE, TRZA SHOULD SKIP THE NEXT INSTRUCTION AND THE RESULT IN
 38952					;THE AC SHOULD BE 123456,,701234
 38953
 38954	054772	200 05 0 00 070745 	C71200:	MOVE	5,[123456,,701234]	;PRELOAD AC WITH 123456,,701234
 38955	054773	624 05 0 00 000003 		TRZA	5,3			;*TRZA SHOULD SKIP AND
 38956										;PLACE 123456,,701234 INTO THE AC
 38957						STOP^
 38958	054774	254 04 0 00 054775 		HALT	.+1		;TEST FAILED IF PROGRAM HALTS HERE
 38959	054775	324 00 0 00 054776 		JUMPA	.+1		;IF TEST FAILS, CHANGE THIS INSTRUCTION (JUMPA .+1) TO
 38960									;JUMPA X (X IS THE ADDRESS OF THE FIRST INSTRUCTION
 38961									;IN THE SUBTEST) TO LOOP ON ERROR^
 38962	054776	312 05 0 00 070745 		CAME	5,[123456,,701234]	;PASS IF C(AC)=123456,,701234
 38963						STOP^
 38964	054777	254 04 0 00 055000 		HALT	.+1		;TEST FAILED IF PROGRAM HALTS HERE
 38965	055000	324 00 0 00 055001 		JUMPA	.+1		;IF TEST FAILS, CHANGE THIS INSTRUCTION (JUMPA .+1) TO
 38966									;JUMPA X (X IS THE ADDRESS OF THE FIRST INSTRUCTION
 38967									;IN THE SUBTEST) TO LOOP ON ERROR^
 38968
 38969					;**********
 38970
 38971					;THIS TEST VERIFIES THAT TRZA ALWAYS SKIPS THE NEXT SEQUENTIAL INSTRUCTION
 38972					;AND CHANGES ALL BITS IN AC-RIGHT WHICH CORRESPOND TO 1'S IN E TO ZERO.
 38973					;IN THIS CASE, C(AC)=123456,,701234 AND E=300.
 38974					;HENCE, TRZA SHOULD SKIP THE NEXT INSTRUCTION AND THE RESULT IN
 38975					;THE AC SHOULD BE 123456,,701234.
 38976
 38977	055001	200 04 0 00 070745 	C71210:	MOVE	4,[123456,,701234]	;PRELOAD AC WITH 123456,,701234
 38978	055002	624 04 0 00 000300 		TRZA	4,300			;*TRZA SHOULD SKIP AND
 38979										;PLACE 123456,,701034 INTO THE AC
 38980						STOP^
 38981	055003	254 04 0 00 055004 		HALT	.+1		;TEST FAILED IF PROGRAM HALTS HERE
 38982	055004	324 00 0 00 055005 		JUMPA	.+1		;IF TEST FAILS, CHANGE THIS INSTRUCTION (JUMPA .+1) TO
 38983									;JUMPA X (X IS THE ADDRESS OF THE FIRST INSTRUCTION
 38984									;IN THE SUBTEST) TO LOOP ON ERROR^
 38985	055005	312 04 0 00 070757 		CAME	4,[123456,,701034]	;PASS IF C(AC)=123456,,701034
 38986						STOP^
 38987	055006	254 04 0 00 055007 		HALT	.+1		;TEST FAILED IF PROGRAM HALTS HERE
 38988	055007	324 00 0 00 055010 		JUMPA	.+1		;IF TEST FAILS, CHANGE THIS INSTRUCTION (JUMPA .+1) TO
 38989									;JUMPA X (X IS THE ADDRESS OF THE FIRST INSTRUCTION
 38990									;IN THE SUBTEST) TO LOOP ON ERROR^
 38991
 38992					;**********
DFKAA PDP-10 KL10 BASIC INSTRUCTION DIAGNOSTIC (1) VER 0,2	MACRO %53B(1254)-4 11:50 11-Nov-24 Page 63
DFKAA6	MAC	13-Jan-89 10:22		TEST OF MSCL LOGICAL TEST INSTRUCTIONS

 38993					;THIS TEST VERIFIES THAT TLZA ALWAYS SKIPS THE NEXT SEQUENTIAL INSTRQCTION
 38994					;AND CHANGES ALL BITS IN AC-LEFT WHICH CORRESPOND TO 1'S IN E TO ZERO.
 38995					;IN THIS CASE, C(AC)=123456,,701234 AND E=3.
 38996					;HENCE, TLZA SHOULD SKIP THE NEXT INSTRUCTION AND THE RESULT IN
 38997					;THE AC SHOULD BE 123454,,701234.
 38998
 38999	055010	200 03 0 00 070745 	C71300:	MOVE	3,[123456,,701234]	;PRELOAD AC WITH 123456,,701234
 39000	055011	625 03 0 00 000003 		TLZA	3,3			;*TLZA SHOULD SKIP AND
 39001										;PLACE 123454,,701234 INTO THE AC
 39002						STOP^
 39003	055012	254 04 0 00 055013 		HALT	.+1		;TEST FAILED IF PROGRAM HALTS HERE
 39004	055013	324 00 0 00 055014 		JUMPA	.+1		;IF TEST FAILS, CHANGE THIS INSTRUCTION (JUMPA .+1) TO
 39005									;JUMPA X (X IS THE ADDRESS OF THE FIRST INSTRUCTION
 39006									;IN THE SUBTEST) TO LOOP ON ERROR^
 39007	055014	312 03 0 00 070760 		CAME	3,[123454,,701234]	;PASS IF C(AC)=123454,,701234
 39008						STOP^
 39009	055015	254 04 0 00 055016 		HALT	.+1		;TEST FAILED IF PROGRAM HALTS HERE
 39010	055016	324 00 0 00 055017 		JUMPA	.+1		;IF TEST FAILS, CHANGE THIS INSTRUCTION (JUMPA .+1) TO
 39011									;JUMPA X (X IS THE ADDRESS OF THE FIRST INSTRUCTION
 39012									;IN THE SUBTEST) TO LOOP ON ERROR^
 39013
 39014					;**********
 39015
 39016					;THIS TEST VERIFIES THAT TLZA ALWAYS SKIPS THE NEXT SEQUENTIAL INSTRUCTION
 39017					;AND CHANGES ALL BITS IN AC-LEFT WHICH CORRESPOND TO 1'S IN E TO ZERO.
 39018					;IN THIS CASE, C(AC)=123456,,701234 AND E=300.
 39019					;HENCE, TLZA SHOULD SKIP THE NEXT INSTRUCTION AND THE RESULT IN
 39020					;THE AC SHOULD BE 123456,,701234.
 39021
 39022	055017	200 02 0 00 070745 	C71310:	MOVE	2,[123456,,701234]	;PRELOAD AC WITH 123456,,701234
 39023	055020	625 02 0 00 000300 		TLZA	2,300			;*TLZA SHOULD SKIP AND
 39024										;PLACE 123456,,701234 INTO THE AC
 39025						STOP^
 39026	055021	254 04 0 00 055022 		HALT	.+1		;TEST FAILED IF PROGRAM HALTS HERE
 39027	055022	324 00 0 00 055023 		JUMPA	.+1		;IF TEST FAILS, CHANGE THIS INSTRUCTION (JUMPA .+1) TO
 39028									;JUMPA X (X IS THE ADDRESS OF THE FIRST INSTRUCTION
 39029									;IN THE SUBTEST) TO LOOP ON ERROR^
 39030	055023	312 02 0 00 070745 		CAME	2,[123456,,701234]	;PASS IF C(AC)=123456,,701234
 39031						STOP^
 39032	055024	254 04 0 00 055025 		HALT	.+1		;TEST FAILED IF PROGRAM HALTS HERE
 39033	055025	324 00 0 00 055026 		JUMPA	.+1		;IF TEST FAILS, CHANGE THIS INSTRUCTION (JUMPA .+1) TO
 39034									;JUMPA X (X IS THE ADDRESS OF THE FIRST INSTRUCTION
 39035									;IN THE SUBTEST) TO LOOP ON ERROR^
 39036
 39037					;**********
DFKAA PDP-10 KL10 BASIC INSTRUCTION DIAGNOSTIC (1) VER 0,2	MACRO %53B(1254)-4 11:50 11-Nov-24 Page 64
DFKAA6	MAC	13-Jan-89 10:22		TEST OF MSCL LOGICAL TEST INSTRUCTIONS

 39038					;THIS TEST VERIFIES THAT TRZN SKIPS THE NEXT SEQUENTIAL INSTRUCTION
 39039					;IF AND ONLY IF NOT ALL BITS IN AC-RIGHT CORRESPONDING TO 1'S IN E ARE ZERO.
 39040					;THESE MASKED AC BITS ARE THEN CHANGED TO ZEROS.
 39041					;IN THIS CASE, C(AC)=123456,,701234 AND E=300.
 39042					;HENCE, TRZN SHOULD SKIP THE NEXT SEQUENTIAL INSTRUCTION
 39043					;AND THE RESULT IN THE AC SHOULD BE 123456,,701034.
 39044
 39045	055026	200 01 0 00 070745 	C71400:	MOVE	1,[123456,,701234]	;PRELOAD AC WITH 123456,,701234
 39046	055027	626 01 0 00 000300 		TRZN	1,300			;*TRZN SHOULD SKIP AND
 39047										;PLACE 123456,,701034 INTO THE AC
 39048						STOP^
 39049	055030	254 04 0 00 055031 		HALT	.+1		;TEST FAILED IF PROGRAM HALTS HERE
 39050	055031	324 00 0 00 055032 		JUMPA	.+1		;IF TEST FAILS, CHANGE THIS INSTRUCTION (JUMPA .+1) TO
 39051									;JUMPA X (X IS THE ADDRESS OF THE FIRST INSTRUCTION
 39052									;IN THE SUBTEST) TO LOOP ON ERROR^
 39053	055032	312 01 0 00 070757 		CAME	1,[123456,,701034]	;PASS IF C(AC)=123456,,701034
 39054						STOP^
 39055	055033	254 04 0 00 055034 		HALT	.+1		;TEST FAILED IF PROGRAM HALTS HERE
 39056	055034	324 00 0 00 055035 		JUMPA	.+1		;IF TEST FAILS, CHANGE THIS INSTRUCTION (JUMPA .+1) TO
 39057									;JUMPA X (X IS THE ADDRESS OF THE FIRST INSTRUCTION
 39058									;IN THE SUBTEST) TO LOOP ON ERROR^
 39059
 39060					;**********
 39061
 39062					;THIS TEST VERIFIES THAT TRZN SKIPS THE NEXT SEQUENTIAL INSTRUCTION
 39063					;IF AND ONLY IF NOT ALL BITS IN AC-RIGHT CORRESPONDING TO 1'S IN E ARE ZERO.
 39064					;THESE MASKED AC BITS ARE THEN CHANGED TO ZEROS.
 39065					;IN THIS CASE, C(AC)=123456,,701234 AND E=3.
 39066					;HENCE, TRZN SHOULD NOT SKIP THE NEXT SEQUENTIAL INSTRUCTION
 39067					;AND THE RESULT IN THE AC SHOULD BE 123456,,701234.
 39068
 39069	055035	200 00 0 00 070745 	C71410:	MOVE	0,[123456,,701234]	;PRELOAD AC WATH 123456,,701234
 39070	055036	626 00 0 00 000003 		TRZN	0,3			;*TRZN SHOULD PLACE 123456,,701234 INTO
 39071										;THE AC AND NOT SKIP
 39072	055037	334 00 0 00 000000 		SKIPA				;PASS IF TRZN DOES NOT SKIP
 39073						STOP^
 39074	055040	254 04 0 00 055041 		HALT	.+1		;TEST FAILED IF PROGRAM HALTS HERE
 39075	055041	324 00 0 00 055042 		JUMPA	.+1		;IF TEST FAILS, CHANGE THIS INSTRUCTION (JUMPA .+1) TO
 39076									;JUMPA X (X IS THE ADDRESS OF THE FIRST INSTRUCTION
 39077									;IN THE SUBTEST) TO LOOP ON ERROR^
 39078	055042	312 00 0 00 070745 		CAME	0,[123456,,701234]	;PASS IF C(AC)=123456,,701234
 39079						STOP^
 39080	055043	254 04 0 00 055044 		HALT	.+1		;TEST FAILED IF PROGRAM HALTS HERE
 39081	055044	324 00 0 00 055045 		JUMPA	.+1		;IF TEST FAILS, CHANGE THIS INSTRUCTION (JUMPA .+1) TO
 39082									;JUMPA X (X IS THE ADDRESS OF THE FIRST INSTRUCTION
 39083									;IN THE SUBTEST) TO LOOP ON ERROR^
 39084
 39085					;**********
DFKAA PDP-10 KL10 BASIC INSTRUCTION DIAGNOSTIC (1) VER 0,2	MACRO %53B(1254)-4 11:50 11-Nov-24 Page 65
DFKAA6	MAC	13-Jan-89 10:22		TEST OF MSCL LOGICAL TEST INSTRUCTIONS

 39086					;THIS TEST VERIFIES THAT TLZN SKIPS THE NEXT SEQUENTIAL INSTRUCTION
 39087					;IF AND ONLY IF NOT ALL BITS IN AC-LEFT CORRESPONDING TO 1'S IN E ARE ZERO.
 39088					;THESE MASKED AC BITS ARE THEN CHANGED TO ZEROS.
 39089					;IN THIS CASE, C(AC)=123456,,701234 AND E=3.
 39090					;HENCE, TLZN SHOULD SKIP THE NEXT SEQUENTIAL INSTRUCTION
 39091					;AND THE RESULT IN THE AC SHOULD BE 123454,,701234.
 39092
 39093	055045	200 17 0 00 070745 	C71500:	MOVE	17,[123456,,701234]	;PRELOAD AC WITH 123456,,701234
 39094	055046	627 17 0 00 000003 		TLZN	17,3			;TLZN SHOULD SKIP AND
 39095										;PLACE 123454,,701234 INTO THE AC
 39096						STOP^
 39097	055047	254 04 0 00 055050 		HALT	.+1		;TEST FAILED IF PROGRAM HALTS HERE
 39098	055050	324 00 0 00 055051 		JUMPA	.+1		;IF TEST FAILS, CHANGE THIS INSTRUCTION (JUMPA .+1) TO
 39099									;JUMPA X (X IS THE ADDRESS OF THE FIRST INSTRUCTION
 39100									;IN THE SUBTEST) TO LOOP ON ERROR^
 39101	055051	312 17 0 00 070760 		CAME	17,[123454,,701234]	;PASS IF C(AC)=123454,,701234
 39102						STOP^
 39103	055052	254 04 0 00 055053 		HALT	.+1		;TEST FAILED IF PROGRAM HALTS HERE
 39104	055053	324 00 0 00 055054 		JUMPA	.+1		;IF TEST FAILS, CHANGE THIS INSTRUCTION (JUMPA .+1) TO
 39105									;JUMPA X (X IS THE ADDRESS OF THE FIRST INSTRUCTION
 39106									;IN THE SUBTEST) TO LOOP ON ERROR^
 39107
 39108					;**********
 39109
 39110					;THIS TEST VERIFIES THAT TLZN SKIPS THE NEXT SEQUENTIAL INSTRUCTION
 39111					;IF AND ONLY IF NOT ALL BITS IN AC-LEFT CORRESPONDING TO 1'S IN E ARE ZERO.
 39112					;THESE MASKED AC BIPS ARE THEN CHANGED TO ZEROS.
 39113					;IN THIS CASE, C(AC)=123456,,701234 AND E=300.
 39114					;HENCE, TLZN SHOULD NOT SKIP THE NEXT SEQUENTIAL INSTRUCTION
 39115					;AND THE RESULT IN THE AC SHOULD BE 123456,,701234.
 39116
 39117	055054	200 16 0 00 070745 	C71510:	MOVE	16,[123456,,701234]	;PRELOAD AC WITH 123456,,701234
 39118	055055	627 16 0 00 000300 		TLZN	16,300			;*TLZN SHOULD PLACE 123456,,701234 INTO
 39119										;THE AC AND NOT SKIP
 39120	055056	334 00 0 00 000000 		SKIPA				;PASS IF TLZN DOES NOT SKIP
 39121						STOP^
 39122	055057	254 04 0 00 055060 		HALT	.+1		;TEST FAILED IF PROGRAM HALTS HERE
 39123	055060	324 00 0 00 055061 		JUMPA	.+1		;IF TEST FAILS, CHANGE THIS INSTRUCTION (JUMPA .+1) TO
 39124									;JUMPA X (X IS THE ADDRESS OF THE FIRST INSTRUCTION
 39125									;IN THE SUBTEST) TO LOOP ON ERROR^
 39126	055061	312 16 0 00 070745 		CAME	16,[123456,,701234]	;PASS IF C(AC)=123456,,701234
 39127						STOP^
 39128	055062	254 04 0 00 055063 		HALT	.+1		;TEST FAILED IF PROGRAM HALTS HERE
 39129	055063	324 00 0 00 055064 		JUMPA	.+1		;IF TEST FAILS, CHANGE THIS INSTRUCTION (JUMPA .+1) TO
 39130									;JUMPA X (X IS THE ADDRESS OF THE FIRST INSTRUCTION
 39131									;IN THE SUBTEST) TO LOOP ON ERROR^
 39132
 39133					;**********
DFKAA PDP-10 KL10 BASIC INSTRUCTION DIAGNOSTIC (1) VER 0,2	MACRO %53B(1254)-4 11:50 11-Nov-24 Page 66
DFKAA6	MAC	13-Jan-89 10:22		TEST OF MSCL LOGICAL TEST INSTRUCTIONS

 39134					;THIS TEST VERIFIES THAT TSZ CLEARS ALL BITS OF THE AC WHICH
 39135					;CORRESPOND TO 1'S IN C(E) WITH BOTH HALVES SWAPPED AND DOES
 39136					;NOT SKIP THE NEXT INSTRUCTION. C(E) IS NOT AFFECTED.
 39137					;IN THIS CASE, C(AC)=123456,,701234 AND C(E)=076543,,654321.
 39138					;HENCE, TSZ SHOULD NOT SKIP AND C(AC) SHOULD BE 123456,,701234.
 39139
 39140	055064	200 15 0 00 070745 	C71600:	MOVE	15,[123456,,701234]	;PRELOAD AC WITH 123456,,701234
 39141	055065	200 16 0 00 070754 		MOVE	16,[076543,,654321]	;PRELOAD E WITH 076543,,654321
 39142	055066	631 15 0 00 000016 		TSZ	15,16			;*TSZ SHOULD NOT SKIP AND
 39143										;PLACE 123456,,701234 INTO THE AC
 39144	055067	334 00 0 00 000000 		SKIPA				;PASS IF TSZ DID NOT SKIP
 39145						STOP^
 39146	055070	254 04 0 00 055071 		HALT	.+1		;TEST FAILED IF PROGRAM HALTS HERE
 39147	055071	324 00 0 00 055072 		JUMPA	.+1		;IF TEST FAILS, CHANGE THIS INSTRUCTION (JUMPA .+1) TO
 39148									;JUMPA X (X IS THE ADDRESS OF THE FIRST INSTRUCTION
 39149									;IN THE SUBTEST) TO LOOP ON ERROR^
 39150	055072	312 15 0 00 070745 		CAME	15,[123456,,701234]	;PASS IF C(AC)=123456,,701234
 39151						STOP^
 39152	055073	254 04 0 00 055074 		HALT	.+1		;TEST FAILED IF PROGRAM HALTS HERE
 39153	055074	324 00 0 00 055075 		JUMPA	.+1		;IF TEST FAILS, CHANGE THIS INSTRUCTION (JUMPA .+1) TO
 39154									;JUMPA X (X IS THE ADDRESS OF THE FIRST INSTRUCTION
 39155									;IN THE SUBTEST) TO LOOP ON ERROR^
 39156	055075	312 16 0 00 070754 		CAME	16,[76543,,654321]	;PASS IF C(E) UNCHANCED
 39157						STOP^
 39158	055076	254 04 0 00 055077 		HALT	.+1		;TEST FAILED IF PROGRAM HALTS HERE
 39159	055077	324 00 0 00 055100 		JUMPA	.+1		;IF TEST FAILS, CHANGE THIS INSTRUCTION (JUMPA .+1) TO
 39160									;JUMPA X (X IS THE ADDRESS OF THE FIRST INSTRUCTION
 39161									;IN THE SUBTEST) TO LOOP ON ERROR^
 39162
 39163					;**********
 39164
 39165					;THIS TEST VERIFIES THAT TSZ CLEARS ALL BITS OF THE AC WHICH
 39166					;CORRESPOND TO 1'S IN C(E) WITH BOTH HALVES SWAPPED AND DOES
 39167					;NOT SKIP THE NEXT INSTRUCTION.  C(E) IS NOT AFFECTED.
 39168					;IN THIS CASE, C(AC)=123456,,701234 AND C(E)=252525,,707070.
 39169					;HENCE, TSZ SHOULD NOT SKIP AND C(AC) SHOULD BE 020406,,501210.
 39170
 39171	055100	200 14 0 00 070745 	C71610:	MOVE	14,[123456,,701234]	;PRELOAD AC WITH 123456,,701234
 39172	055101	200 15 0 00 070761 		MOVE	15,[252525,,707070]	;PRELOAD E WITH 252525,,707070
 39173	055102	631 14 0 00 000015 		TSZ	14,15			;*TSZ SHOULD NOT SKIP AND
 39174										;PLACE 020406,,501210 INTO THE AC
 39175	055103	334 00 0 00 000000 		SKIPA				;PASS IF TSZ DID NOT SKIP
 39176						STOP^
 39177	055104	254 04 0 00 055105 		HALT	.+1		;TEST FAILED IF PROGRAM HALTS HERE
 39178	055105	324 00 0 00 055106 		JUMPA	.+1		;IF TEST FAILS, CHANGE THIS INSTRUCTION (JUMPA .+1) TO
 39179									;JUMPA X (X IS THE ADDRESS OF THE FIRST INSTRUCTION
 39180									;IN THE SUBTEST) TO LOOP ON ERROR^
 39181	055106	312 14 0 00 070762 		CAME	14,[020406,,501210]	;PASS IF C(AC)=020406,,501210
 39182						STOP^
 39183	055107	254 04 0 00 055110 		HALT	.+1		;TEST FAILED IF PROGRAM HALTS HERE
 39184	055110	324 00 0 00 055111 		JUMPA	.+1		;IF TEST FAILS, CHANGE THIS INSTRUCTION (JUMPA .+1) TO
 39185									;JUMPA X (X IS THE ADDRESS OF THE FIRST INSTRUCTION
 39186									;IN THE SUBTEST) TO LOOP ON ERROR^
 39187	055111	312 15 0 00 070761 		CAME	15,[252525,,707070]	;PASS IF C(E) UNCHANGED
 39188						STOP^
DFKAA PDP-10 KL10 BASIC INSTRUCTION DIAGNOSTIC (1) VER 0,2	MACRO %53B(1254)-4 11:50 11-Nov-24 Page 66-1
DFKAA6	MAC	13-Jan-89 10:22		TEST OF MSCL LOGICAL TEST INSTRUCTIONS

 39189	055112	254 04 0 00 055113 		HALT	.+1		;TEST FAILED IF PROGRAM HALTS HERE
 39190	055113	324 00 0 00 055114 		JUMPA	.+1		;IF TEST FAILS, CHANGE THIS INSTRUCTION (JUMPA .+1) TO
 39191									;JUMPA X (X IS THE ADDRESS OF THE FIRST INSTRUCTION
 39192									;IN THE SUBTEST) TO LOOP ON ERROR^
 39193
 39194					;**********
DFKAA PDP-10 KL10 BASIC INSTRUCTION DIAGNOSTIC (1) VER 0,2	MACRO %53B(1254)-4 11:50 11-Nov-24 Page 67
DFKAA6	MAC	13-Jan-89 10:22		TEST OF MSCL LOGICAL TEST INSTRUCTIONS

 39195					;THIS TEST VERIFIES THAT TDZE SKIPS THE NEXT SEQUENTIAL INSTRUCTION
 39196					;IF AND ONLY IF ALL BITS IN THE AC CORRESPONDING TO 1'S IN
 39197					;C(E).
 39198					;AC BITS ARE THEN CHANGED TO ZERO.
 39199					;IN THIS CASE, C(AC)=123456,,701234 AND C(E)=654321,,076543.
 39200					;HENCE, TDZE SHOULD SKIP AND THE RESULT IN THE AC
 39201					;SHOULD BE 123456,,701234.  C(E) IS NOT AFFECTED.
 39202
 39203	055114	200 13 0 00 070745 	C71700:	MOVE	13,[123456,,701234]	;PRELOAD AC WITH 123456,,701234
 39204	055115	200 14 0 00 070763 		MOVE	14,[654321,,076543]	;PRELOAD E WITH 654321,,076543
 39205	055116	632 13 0 00 000014 		TDZE	13,14			;*TDZE SHOULD SKIP AND
 39206										;PLACE 123456,,701234 INTO THE AC
 39207						STOP^
 39208	055117	254 04 0 00 055120 		HALT	.+1		;TEST FAILED IF PROGRAM HALTS HERE
 39209	055120	324 00 0 00 055121 		JUMPA	.+1		;IF TEST FAILS, CHANGE THIS INSTRUCTION (JUMPA .+1) TO
 39210									;JUMPA X (X IS THE ADDRESS OF THE FIRST INSTRUCTION
 39211									;IN THE SUBTEST) TO LOOP ON ERROR^
 39212	055121	312 13 0 00 070745 		CAME	13,[123456,,701234]	;PASS IF C(AC)=123456,,701234]
 39213						STOP^
 39214	055122	254 04 0 00 055123 		HALT	.+1		;TEST FAILED IF PROGRAM HALTS HERE
 39215	055123	324 00 0 00 055124 		JUMPA	.+1		;IF TEST FAILS, CHANGE THIS INSTRUCTION (JUMPA .+1) TO
 39216									;JUMPA X (X IS THE ADDRESS OF THE FIRST INSTRUCTION
 39217									;IN THE SUBTEST) TO LOOP ON ERROR^
 39218	055124	312 14 0 00 070763 		CAME	14,[654321,,076543]	;PASS IF C(E) UNCHANGED
 39219						STOP^
 39220	055125	254 04 0 00 055126 		HALT	.+1		;TEST FAILED IF PROGRAM HALTS HERE
 39221	055126	324 00 0 00 055127 		JUMPA	.+1		;IF TEST FAILS, CHANGE THIS INSTRUCTION (JUMPA .+1) TO
 39222									;JUMPA X (X IS THE ADDRESS OF THE FIRST INSTRUCTION
 39223									;IN THE SUBTEST) TO LOOP ON ERROR^
 39224
 39225					;**********
 39226
 39227					;THIS TEST VERIFIES THAT TDZE SKIPS THE NEXT SEQUENTIAL INSTRUCTION
 39228					;IF AND ONLY IF ALL BITS IN THE AC CORRESPONDING TO 1'S IN
 39229					;C(E) ARE ZERO. THESE MASKED
 39230					;AC BITS ARE THEN CHANGED TO ZERO.
 39231					;IN THIS CASE, C(AC)= 123456,,701234 AND C(E)= 754321,,076543
 39232					;HENCE, TDZE SHOULD NOT SKIP AND THE RESULT IN AC
 39233					;SHOULD BE 023456,,701234 C(E) IS NOT AFFECTED
 39234
 39235	055127	200 12 0 00 070745 	C71710:	MOVE	12,[123456,,701234]	;PRELOAD AC WITH 123456,,701234
 39236	055130	200 13 0 00 070764 		MOVE	13,[754321,,076543]	;PRELOAD E WITH 754321,,076543
 39237	055131	632 12 0 00 000013 		TDZE	12,13			;*TDZE SHOULD NOT SKIP AND
 39238										;PLACE 023456,,701234 INTO THE AC
 39239	055132	334 00 0 00 000000 		SKIPA				;PASS IF TDZE DOES NOT SKIP
 39240						STOP^
 39241	055133	254 04 0 00 055134 		HALT	.+1		;TEST FAILED IF PROGRAM HALTS HERE
 39242	055134	324 00 0 00 055135 		JUMPA	.+1		;IF TEST FAILS, CHANGE THIS INSTRUCTION (JUMPA .+1) TO
 39243									;JUMPA X (X IS THE ADDRESS OF THE FIRST INSTRUCTION
 39244									;IN THE SUBTEST) TO LOOP ON ERROR^
 39245	055135	312 12 0 00 070765 		CAME	12,[023456,,701234]	;PASS IF C(AC)= 023456,,701234
 39246						STOP^
 39247	055136	254 04 0 00 055137 		HALT	.+1		;TEST FAILED IF PROGRAM HALTS HERE
 39248	055137	324 00 0 00 055140 		JUMPA	.+1		;IF TEST FAILS, CHANGE THIS INSTRUCTION (JUMPA .+1) TO
 39249									;JUMPA X (X IS THE ADDRESS OF THE FIRST INSTRUCTION
DFKAA PDP-10 KL10 BASIC INSTRUCTION DIAGNOSTIC (1) VER 0,2	MACRO %53B(1254)-4 11:50 11-Nov-24 Page 67-1
DFKAA6	MAC	13-Jan-89 10:22		TEST OF MSCL LOGICAL TEST INSTRUCTIONS

 39250									;IN THE SUBTEST) TO LOOP ON ERROR^
 39251	055140	312 13 0 00 070764 		CAME	13,[754321,,076543]	;PASS IF C(E) UNCHANGED
 39252						STOP^
 39253	055141	254 04 0 00 055142 		HALT	.+1		;TEST FAILED IF PROGRAM HALTS HERE
 39254	055142	324 00 0 00 055143 		JUMPA	.+1		;IF TEST FAILS, CHANGE THIS INSTRUCTION (JUMPA .+1) TO
 39255									;JUMPA X (X IS THE ADDRESS OF THE FIRST INSTRUCTION
 39256									;IN THE SUBTEST) TO LOOP ON ERROR^
 39257
 39258					;**********
DFKAA PDP-10 KL10 BASIC INSTRUCTION DIAGNOSTIC (1) VER 0,2	MACRO %53B(1254)-4 11:50 11-Nov-24 Page 68
DFKAA6	MAC	13-Jan-89 10:22		TEST OF MSCL LOGICAL TEST INSTRUCTIONS

 39259					;THIS TEST VERIFIES THAT TSZE SKIPS THE NEXT SEQUENTIAL INSTRUCTION
 39260					;IF AND ONLY IF ALL BITS IN THE AC CORRECPONDING TO 1'S IN
 39261					;C(E) WITH BOTH HALVES SWAPPED ARE ZERO.  THESE MASKED
 39262					;AC BITS ARE THEN CHANGED TO ZERO.
 39263					;IN THIS CASE, C(AC)= 123456,,701234 AND C(E)= 076543,,654321
 39264					;HENCE, TSZE SHOULD SKIP AND THE RESULT IN AC
 39265					;SHOULD BE 123456,,701234 C(E) IS NOT AFFECTED
 39266
 39267	055143	200 11 0 00 070745 	C72000:	MOVE	11,[123456,,701234]	;PRELOAD AC WITH 123456,,701234
 39268	055144	200 12 0 00 070754 		MOVE	12,[076543,,654321]	;PRELOAD E WITH 076543,,654321
 39269	055145	633 11 0 00 000012 		TSZE	11,12			;*TSZE SHOULD SKIP AND
 39270										;PLACE 123456,,701234 INTO THE AC
 39271						STOP^
 39272	055146	254 04 0 00 055147 		HALT	.+1		;TEST FAILED IF PROGRAM HALTS HERE
 39273	055147	324 00 0 00 055150 		JUMPA	.+1		;IF TEST FAILS, CHANGE THIS INSTRUCTION (JUMPA .+1) TO
 39274									;JUMPA X (X IS THE ADDRESS OF THE FIRST INSTRUCTION
 39275									;IN THE SUBTEST) TO LOOP ON ERROR^
 39276	055150	312 11 0 00 070745 		CAME	11,[123456,,701234]	;PASS IF C(AC)= 123456,,701234
 39277						STOP^
 39278	055151	254 04 0 00 055152 		HALT	.+1		;TEST FAILED IF PROGRAM HALTS HERE
 39279	055152	324 00 0 00 055153 		JUMPA	.+1		;IF TEST FAILS, CHANGE THIS INSTRUCTION (JUMPA .+1) TO
 39280									;JUMPA X (X IS THE ADDRESS OF THE FIRST INSTRUCTION
 39281									;IN THE SUBTEST) TO LOOP ON ERROR^
 39282	055153	312 12 0 00 070754 		CAME	12,[76543,,654321]	;PASS IF C(E) UNCHANGED
 39283						STOP^
 39284	055154	254 04 0 00 055155 		HALT	.+1		;TEST FAILED IF PROGRAM HALTS HERE
 39285	055155	324 00 0 00 055156 		JUMPA	.+1		;IF TEST FAILS, CHANGE THIS INSTRUCTION (JUMPA .+1) TO
 39286									;JUMPA X (X IS THE ADDRESS OF THE FIRST INSTRUCTION
 39287									;IN THE SUBTEST) TO LOOP ON ERROR^
 39288
 39289					;**********
 39290
 39291					;THIS TEST VERIFIES THAT TSZE SKIPS THE NEXT SEQUENTIAL INSTRUCTION
 39292					;IF AND ONLY IF ALL BITS IN THE AC CORRESPONDING TO 1'S IN
 39293					;C (E) WITH BOTH HALVES SWAPPED ARE ZERO.  THESE MASKED
 39294					;AC BITS ARE THEN CHANGED TO ZERO
 39295					;IN THIS CASE, C(AC)= 123456,,701234 AND C(E)= 076543,,657321
 39296					;HENCE, TSZE SHOULD NOT SKIP AND THE RESULT IN AC
 39297					;SHOULD BE 120456,,701234 C(E) IS NOT AFFECTED
 39298
 39299	055156	200 10 0 00 070745 	C72010:	MOVE	10,[123456,,701234]	;PRELOAD AC WITH 123456,,701234
 39300	055157	200 11 0 00 070766 		MOVE	11,[76543,,657321]	;PRELOAD E WITH 076543,,654321
 39301	055160	633 10 0 00 000011 		TSZE	10,11			;*TSZE SHOULD NOT SKIP AND
 39302										;PLACE 120456,,701234 INTO THE AC
 39303	055161	334 00 0 00 000000 		SKIPA				;PASS IF TSZE DID NOT SKIP
 39304						STOP^
 39305	055162	254 04 0 00 055163 		HALT	.+1		;TEST FAILED IF PROGRAM HALTS HERE
 39306	055163	324 00 0 00 055164 		JUMPA	.+1		;IF TEST FAILS, CHANGE THIS INSTRUCTION (JUMPA .+1) TO
 39307									;JUMPA X (X IS THE ADDRESS OF THE FIRST INSTRUCTION
 39308									;IN THE SUBTEST) TO LOOP ON ERROR^
 39309	055164	312 10 0 00 070767 		CAME	10,[120456,,701234]	;PASS IF C(AC)= 120456,,701234
 39310						STOP^
 39311	055165	254 04 0 00 055166 		HALT	.+1		;TEST FAILED IF PROGRAM HALTS HERE
 39312	055166	324 00 0 00 055167 		JUMPA	.+1		;IF TEST FAILS, CHANGE THIS INSTRUCTION (JUMPA .+1) TO
 39313									;JUMPA X (X IS THE ADDRESS OF THE FIRST INSTRUCTION
DFKAA PDP-10 KL10 BASIC INSTRUCTION DIAGNOSTIC (1) VER 0,2	MACRO %53B(1254)-4 11:50 11-Nov-24 Page 68-1
DFKAA6	MAC	13-Jan-89 10:22		TEST OF MSCL LOGICAL TEST INSTRUCTIONS

 39314									;IN THE SUBTEST) TO LOOP ON ERROR^
 39315	055167	312 11 0 00 070766 		CAME	11,[76543,,657321]	;PASS IF C(E) UNCHANGED
 39316						STOP^
 39317	055170	254 04 0 00 055171 		HALT	.+1		;TEST FAILED IF PROGRAM HALTS HERE
 39318	055171	324 00 0 00 055172 		JUMPA	.+1		;IF TEST FAILS, CHANGE THIS INSTRUCTION (JUMPA .+1) TO
 39319									;JUMPA X (X IS THE ADDRESS OF THE FIRST INSTRUCTION
 39320									;IN THE SUBTEST) TO LOOP ON ERROR^
 39321
 39322
 39323					;**********
DFKAA PDP-10 KL10 BASIC INSTRUCTION DIAGNOSTIC (1) VER 0,2	MACRO %53B(1254)-4 11:50 11-Nov-24 Page 69
DFKAA6	MAC	13-Jan-89 10:22		TEST OF MSCL LOGICAL TEST INSTRUCTIONS

 39324					;THIS TEST VERIFIES THAT TDZA CLEARS ALL BITS OF THE AC WHICH
 39325					;CORRESPOND TO 1'S IN C(E) AND ALWAYS
 39326					;SKIPS THE NEXT INSTRUCTION C(E) IS NOT AFFECTED
 39327					;IN THIS CASE, C(AC)=123456,,701234 AND C(E)= 654321,,076543
 39328					;HENCE, TD2A SHOULD ALWAYS SKIP AND C(AC) SHOULD BE 123456,,701234
 39329
 39330	055172	200 07 0 00 070745 	C72100:	MOVE	7,[123456,,701234]	;PRELOAD AC WITH 123456,,701234
 39331	055173	200 10 0 00 070763 		MOVE	10,[654321,,076543]	;PRELOAD E WITH 654321,,076543
 39332	055174	634 07 0 00 000010 		TDZA	7,10			;*TDZA SHOULD SKIP AND
 39333										;PLACE 123456,,701234 INTO THE AC
 39334						STOP^
 39335	055175	254 04 0 00 055176 		HALT	.+1		;TEST FAILED IF PROGRAM HALTS HERE
 39336	055176	324 00 0 00 055177 		JUMPA	.+1		;IF TEST FAILS, CHANGE THIS INSTRUCTION (JUMPA .+1) TO
 39337									;JUMPA X (X IS THE ADDRESS OF THE FIRST INSTRUCTION
 39338									;IN THE SUBTEST) TO LOOP ON ERROR^
 39339	055177	312 07 0 00 070745 		CAME	7,[123456,,701234]	;PASS IF C(AC)= 123456,,701234
 39340						STOP^
 39341	055200	254 04 0 00 055201 		HALT	.+1		;TEST FAILED IF PROGRAM HALTS HERE
 39342	055201	324 00 0 00 055202 		JUMPA	.+1		;IF TEST FAILS, CHANGE THIS INSTRUCTION (JUMPA .+1) TO
 39343									;JUMPA X (X IS THE ADDRESS OF THE FIRST INSTRUCTION
 39344									;IN THE SUBTEST) TO LOOP ON ERROR^
 39345	055202	312 10 0 00 070763 		CAME	10,[654321,,076543]	;PASS IF C(AC)=123456,,701234
 39346						STOP^
 39347	055203	254 04 0 00 055204 		HALT	.+1		;TEST FAILED IF PROGRAM HALTS HERE
 39348	055204	324 00 0 00 055205 		JUMPA	.+1		;IF TEST FAILS, CHANGE THIS INSTRUCTION (JUMPA .+1) TO
 39349									;JUMPA X (X IS THE ADDRESS OF THE FIRST INSTRUCTION
 39350									;IN THE SUBTEST) TO LOOP ON ERROR^
 39351	055205	312 10 0 00 070763 		CAME	10,[654321,,076543]	;PASS IF C(E) UNCHANGED
 39352						STOP^
 39353	055206	254 04 0 00 055207 		HALT	.+1		;TEST FAILED IF PROGRAM HALTS HERE
 39354	055207	324 00 0 00 055210 		JUMPA	.+1		;IF TEST FAILS, CHANGE THIS INSTRUCTION (JUMPA .+1) TO
 39355									;JUMPA X (X IS THE ADDRESS OF THE FIRST INSTRUCTION
 39356									;IN THE SUBTEST) TO LOOP ON ERROR^
 39357
 39358					;**********
 39359
 39360					;THIS TEST VERIFIES THAT TDZA CLEARS ALL BITS OF THE AC WHICH
 39361					;CORRESPOND TO 1'S IN C(E) AND ALWAYS
 39362					;SKIPS THE NEXT INSTRUCTION.  C(E) IS NOT AFFECTED
 39363					;IN THIS CASE, C(AC)=123456,,701234 AND C(E)=252525,,707070
 39364					;HENCE, TDZA SHOULD ALWAYS SKIP AND C(AC) SHOULD BE 121052,,000204
 39365
 39366	055210	200 06 0 00 070745 	C72110:	MOVE	6,[123456,,701234]	;PRELOAD AC WITH 123456,,701234
 39367	055211	200 07 0 00 070761 		MOVE	7,[252525,,707070]	;PRELOAD E WITH 252525,,707070
 39368	055212	634 06 0 00 000007 		TDZA	6,7			;*TDZA SHOULD SKIP AND
 39369									;PLACE 121052,,000204 INTO THE AC
 39370						STOP^
 39371	055213	254 04 0 00 055214 		HALT	.+1		;TEST FAILED IF PROGRAM HALTS HERE
 39372	055214	324 00 0 00 055215 		JUMPA	.+1		;IF TEST FAILS, CHANGE THIS INSTRUCTION (JUMPA .+1) TO
 39373									;JUMPA X (X IS THE ADDRESS OF THE FIRST INSTRUCTION
 39374									;IN THE SUBTEST) TO LOOP ON ERROR^
 39375	055215	312 06 0 00 070770 		CAME	6,[121052,,000204]	;PASS IF C(AC)=121052,,000204
 39376						STOP^
 39377	055216	254 04 0 00 055217 		HALT	.+1		;TEST FAILED IF PROGRAM HALTS HERE
 39378	055217	324 00 0 00 055220 		JUMPA	.+1		;IF TEST FAILS, CHANGE THIS INSTRUCTION (JUMPA .+1) TO
DFKAA PDP-10 KL10 BASIC INSTRUCTION DIAGNOSTIC (1) VER 0,2	MACRO %53B(1254)-4 11:50 11-Nov-24 Page 69-1
DFKAA6	MAC	13-Jan-89 10:22		TEST OF MSCL LOGICAL TEST INSTRUCTIONS

 39379									;JUMPA X (X IS THE ADDRESS OF THE FIRST INSTRUCTION
 39380									;IN THE SUBTEST) TO LOOP ON ERROR^
 39381	055220	312 07 0 00 070761 		CAME	7,[252525,,707070]	;PASS IF C(E) UNCHANGED
 39382						STOP^
 39383	055221	254 04 0 00 055222 		HALT	.+1		;TEST FAILED IF PROGRAM HALTS HERE
 39384	055222	324 00 0 00 055223 		JUMPA	.+1		;IF TEST FAILS, CHANGE THIS INSTRUCTION (JUMPA .+1) TO
 39385									;JUMPA X (X IS THE ADDRESS OF THE FIRST INSTRUCTION
 39386									;IN THE SUBTEST) TO LOOP ON ERROR^
 39387
 39388					;**********
DFKAA PDP-10 KL10 BASIC INSTRUCTION DIAGNOSTIC (1) VER 0,2	MACRO %53B(1254)-4 11:50 11-Nov-24 Page 70
DFKAA6	MAC	13-Jan-89 10:22		TEST OF MSCL LOGICAL TEST INSTRUCTIONS

 39389					;THIS TEST VERIFIES TH`T TSZA CLEARS AHL BITS OF THE AC WHICH
 39390					;CORRESPOND TO 1'S IN C(E) WITH BOTH HALVES SWAPPED AND ALWAYS
 39391					;SKIPS THE NEXT INSTRUCTION. C(E) IS NOT AFFECTED.
 39392					;IN THIS CASE, C(AC)=123456,,701234 AND C(E)=076543,,654321
 39393					;HENCE, TSZA SHOULD ALWAYS SKIP AND C(AC) SHOULD BE 123456,,701234
 39394
 39395	055223	200 05 0 00 070745 	C72200:	MOVE	5,[123456,,701234]	;PRELOAD AC WITH 123456,,701234
 39396	055224	200 06 0 00 070754 		MOVE	6,[076543,,654321]	;PRELOAD E WITH 076543,,654321
 39397	055225	635 05 0 00 000006 		TSZA	5,6			;*TSZA SHOULD SKIP AND
 39398										;PLACE 123456,,701234 INTO THE AC
 39399						STOP^
 39400	055226	254 04 0 00 055227 		HALT	.+1		;TEST FAILED IF PROGRAM HALTS HERE
 39401	055227	324 00 0 00 055230 		JUMPA	.+1		;IF TEST FAILS, CHANGE THIS INSTRUCTION (JUMPA .+1) TO
 39402									;JUMPA X (X IS THE ADDRESS OF THE FIRST INSTRUCTION
 39403									;IN THE SUBTEST) TO LOOP ON ERROR^
 39404	055230	312 05 0 00 070745 		CAME	5,[123456,,701234]	;PASS IF C(AC)=123456,,701234
 39405						STOP^
 39406	055231	254 04 0 00 055232 		HALT	.+1		;TEST FAILED IF PROGRAM HALTS HERE
 39407	055232	324 00 0 00 055233 		JUMPA	.+1		;IF TEST FAILS, CHANGE THIS INSTRUCTION (JUMPA .+1) TO
 39408									;JUMPA X (X IS THE ADDRESS OF THE FIRST INSTRUCTION
 39409									;IN THE SUBTEST) TO LOOP ON ERROR^
 39410	055233	312 06 0 00 070754 		CAME	6,[076543,,654321]	;PASS IF C(E) UNCHANGED
 39411						STOP^
 39412	055234	254 04 0 00 055235 		HALT	.+1		;TEST FAILED IF PROGRAM HALTS HERE
 39413	055235	324 00 0 00 055236 		JUMPA	.+1		;IF TEST FAILS, CHANGE THIS INSTRUCTION (JUMPA .+1) TO
 39414									;JUMPA X (X IS THE ADDRESS OF THE FIRST INSTRUCTION
 39415									;IN THE SUBTEST) TO LOOP ON ERROR^
 39416
 39417					;**********
 39418
 39419					;THIS TEST VERIFIES THAT TSZA CLEARS ALL BITS OF THE AC WHICH
 39420					;CORRESPOND TO 1'S IN C(E) WITH BOTH HALVES SWAPPED AND ALWAYS
 39421					;SKIPS THE NEXT INSTRUCTION.  C(E) IS NOT AFFECTED.
 39422					;IN THIS CASE, C(AC)=123456,,701234 AND C(E)=701234,,123456
 39423					;HENCE, TSZA SHOULD ALWAYS SKIP AND C(AC) SHOULD BE 0
 39424
 39425	055236	200 04 0 00 070745 	C72210:	MOVE	4,[123456,,701234]	;PRELOAD AC WITH 123456,,701234
 39426	055237	200 05 0 00 070771 		MOVE	5,[701234,,123456]	;PRELOAD E WITH 701234,,123456
 39427	055240	635 04 0 00 000005 		TSZA	4,5			;*TSZA SHOULD SKIP AND
 39428										;PLACE 0 INTO THE AC
 39429						STOP^
 39430	055241	254 04 0 00 055242 		HALT	.+1		;TEST FAILED IF PROGRAM HALTS HERE
 39431	055242	324 00 0 00 055243 		JUMPA	.+1		;IF TEST FAILS, CHANGE THIS INSTRUCTION (JUMPA .+1) TO
 39432									;JUMPA X (X IS THE ADDRESS OF THE FIRST INSTRUCTION
 39433									;IN THE SUBTEST) TO LOOP ON ERROR^
 39434	055243	312 04 0 00 070253 		CAME	4,[0]			;PASS IF C(AC)=0
 39435						STOP^
 39436	055244	254 04 0 00 055245 		HALT	.+1		;TEST FAILED IF PROGRAM HALTS HERE
 39437	055245	324 00 0 00 055246 		JUMPA	.+1		;IF TEST FAILS, CHANGE THIS INSTRUCTION (JUMPA .+1) TO
 39438									;JUMPA X (X IS THE ADDRESS OF THE FIRST INSTRUCTION
 39439									;IN THE SUBTEST) TO LOOP ON ERROR^
 39440	055246	312 05 0 00 070771 		CAME	5,[701234,,123456]	;PASS IF C(E) UNCHANGED
 39441						SToP^
 39442	055247	254 04 0 00 055250 		HALT	.+1		;TEST FAILED IF PROGRAM HALTS HERE
 39443	055250	324 00 0 00 055251 		JUMPA	.+1		;IF TEST FAILS, CHANGE THIS INSTRUCTION (JUMPA .+1) TO
DFKAA PDP-10 KL10 BASIC INSTRUCTION DIAGNOSTIC (1) VER 0,2	MACRO %53B(1254)-4 11:50 11-Nov-24 Page 70-1
DFKAA6	MAC	13-Jan-89 10:22		TEST OF MSCL LOGICAL TEST INSTRUCTIONS

 39444									;JUMPA X (X IS THE ADDRESS OF THE FIRST INSTRUCTION
 39445									;IN THE SUBTEST) TO LOOP ON ERROR^
 39446
 39447					;**********
DFKAA PDP-10 KL10 BASIC INSTRUCTION DIAGNOSTIC (1) VER 0,2	MACRO %53B(1254)-4 11:50 11-Nov-24 Page 71
DFKAA6	MAC	13-Jan-89 10:22		TEST OF MSCL LOGICAL TEST INSTRUCTIONS

 39448					;THIS TEST VERIFIES THAT TDZN SKIPS THE NEXT SEQUENTIAL INSTRUCTION
 39449					;IF AND ONLY IF NOT ALL BITS IN THE AC CORRESPONDING TO 1'S IN
 39450					;C(E) ARE ZERO.  THESE MASKED
 39451					;AC BITS ARE THEN CHANGEDTO ZERO.
 39452					;IN THIS CASE, C(AC)=123456,,701234 AND C(E)=654321,,076547
 39453					;HENCE, TDZN SHOULD SKIP AND THE RESULT IN THE AC
 39454					;SHOULD BE 123456(,701230.  C(E) IS NOT AFFECTED.
 39455
 39456	055251	200 03 0 00 070745 	C72300:	MOVE	3,[123456,,701234]	;PRELOAD AC WITH 123456,,701234
 39457	055252	200 04 0 00 070772 		MOVE	4,[654321,,76547]	;PRELOAD E WITH 654321,,076547
 39458	055253	636 03 0 00 000004 		TDZN	3,4			;*TDZN SHoULD SKIP AND
 39459										;PLACE 123456,,701230 INTO THE AC
 39460						STOP^
 39461	055254	254 04 0 00 055255 		HALT	.+1		;TEST FAILED IF PROGRAM HALTS HERE
 39462	055255	324 00 0 00 055256 		JUMPA	.+1		;IF TEST FAILS, CHANGE THIS INSTRUCTION (JUMPA .+1) TO
 39463									;JUMPA X (X IS THE ADDRESS OF THE FIRST INSTRUCTION
 39464									;IN THE SUBTEST) TO LOOP ON ERROR^
 39465	055256	312 03 0 00 070773 		CAME	3,[123456,,701230]	;PASS IF C(AC)=123456,,701230
 39466						STOP^
 39467	055257	254 04 0 00 055260 		HALT	.+1		;TEST FAILED IF PROGRAM HALTS HERE
 39468	055260	324 00 0 00 055261 		JUMPA	.+1		;IF TEST FAILS, CHANGE THIS INSTRUCTION (JUMPA .+1) TO
 39469									;JUMPA X (X IS THE ADDRESS OF THE FIRST INSTRUCTION
 39470									;IN THE SUBTEST) TO LOOP ON ERROR^
 39471	055261	312 04 0 00 070772 		CAME	4,[654321,,076547]	;PASS IF C(E) UNCHANGED
 39472						STOP^
 39473	055262	254 04 0 00 055263 		HALT	.+1		;TEST FAILED IF PROGRAM HALTS HERE
 39474	055263	324 00 0 00 055264 		JUMPA	.+1		;IF TEST FAILS, CHANGE THIS INSTRUCTION (JUMPA .+1) TO
 39475									;JUMPA X (X IS THE ADDRESS OF THE FIRST INSTRUCTION
 39476									;IN THE SUBTEST) TO LOOP ON ERROR^
 39477
 39478					;**********
 39479
 39480					;THIS TEST VERIFIES THAT TDZN SKIPS THE NEXT SEQUENTIAL INSTRUCTION
 39481					;IF AND ONLY IF NOT ALL BITS IN THE AC CORRESPONDING TO 1'S IN
 39482					;C(E) ARE ZERO.  THESE MASKED
 39483					;AC BITS ARE THEN CHANGED TO ZERO.
 39484					;IN THIS CASE, C(AC)=123456,,701234 AND C(E)=654321,,076543
 39485					;HENCE, TDZN SHOULD NOT SKIP AND THE RESULT IN THE AC
 39486					;SHOULD BE 123456,,701234.  C(E) IS NOT AFFECTED.
 39487
 39488	055264	200 02 0 00 070745 	C72310:	MOVE	2,[123456,,701234]	;PRELOAD AC WITH 123456,,701234
 39489	055265	200 03 0 00 070763 		MOVE	3,[654321,,076543]	;PRELOAD E WITH 654321,,076543
 39490	055266	636 02 0 00 000003 		TDZN	2,3			;*TDZN SHOULD NOT SKIP AND
 39491										;PLACE 123456,,701234 INTO THE AC
 39492	055267	334 00 0 00 000000 		SKIPA				;PASS IF TDZN DOES NOT SKIP
 39493						STOP^
 39494	055270	254 04 0 00 055271 		HALT	.+1		;TEST FAILED IF PROGRAM HALTS HERE
 39495	055271	324 00 0 00 055272 		JUMPA	.+1		;IF TEST FAILS, CHANGE THIS INSTRUCTION (JUMPA .+1) TO
 39496									;JUMPA X (X IS THE ADDRESS OF THE FIRST INSTRUCTION
 39497									;IN THE SUBTEST) TO LOOP ON ERROR^
 39498	055272	312 02 0 00 070745 		CAME	2,[123456,,701234]	;PASS IF C(AC)=123456,,701234
 39499						STOP^
 39500	055273	254 04 0 00 055274 		HALT	.+1		;TEST FAILED IF PROGRAM HALTS HERE
 39501	055274	324 00 0 00 055275 		JUMPA	.+1		;IF TEST FAILS, CHANGE THIS INSTRUCTION (JUMPA .+1) TO
 39502									;JUMPA X (X IS THE ADDRESS OF THE FIRST INSTRUCTION
DFKAA PDP-10 KL10 BASIC INSTRUCTION DIAGNOSTIC (1) VER 0,2	MACRO %53B(1254)-4 11:50 11-Nov-24 Page 71-1
DFKAA6	MAC	13-Jan-89 10:22		TEST OF MSCL LOGICAL TEST INSTRUCTIONS

 39503									;IN THE SUBTEST) TO LOOP ON ERROR^
 39504	055275	312 03 0 00 070763 		CAME	3,[654321,,076543]	;PASS IF C(E) UNCHANGED
 39505						STOP^
 39506	055276	254 04 0 00 055277 		HALT	.+1		;TEST FAILED IF PROGRAM HALTS HERE
 39507	055277	324 00 0 00 055300 		JUMPA	.+1		;IF TEST FAILS, CHANGE THIS INSTRUCTION (JUMPA .+1) TO
 39508									;JUMPA X (X IS THE ADDRESS OF THE FIRST INSTRUCTION
 39509									;IN THE SUBTEST) TO LOOP ON ERROR^
 39510
 39511					;**********
DFKAA PDP-10 KL10 BASIC INSTRUCTION DIAGNOSTIC (1) VER 0,2	MACRO %53B(1254)-4 11:50 11-Nov-24 Page 72
DFKAA6	MAC	13-Jan-89 10:22		TEST OF MSCL LOGICAL TEST INSTRUCTIONS

 39512					;THIS TEST VERIFIES THaT TSZN SKIPS THE NEXT SEQQENPIAL INSTRUCTION
 39513					;IF AND ONLY IF NOT ALL BITS IN THE AC CORRESPONDING TO 1'S IN
 39514					;C(E) WITH BOTH HALVES SWAPPED ARE ZERO.  THESE MASKED
 39515					;AC BITS ARE THEN CHANGED TO ZERO.
 39516					;IN THIS CASE, C(AC)=123456,,701234 AND C(E)=077543,,654321.
 39517					;HENCE, TSZN SHOULD SKIP AND THE RESULT IN THE AC
 39518					;SHOULD BE 123456,,700234.  C(E) IS NOT AFFECTED.
 39519
 39520	055300	200 01 0 00 070745 	C72400:	MOVE	1,[123456,,701234]	;PRELOAD AC WITH 123456,,701234
 39521	055301	200 02 0 00 070774 		MOVE	2,[077543,,654321]	;PRELOAD E WITH 077543,,654321
 39522	055302	637 01 0 00 000002 		TSZN	1,2			;*TSZN SHOULD SKIP AND
 39523										;PLACE 123456,,700234 INTO THE AC
 39524						STOP^
 39525	055303	254 04 0 00 055304 		HALT	.+1		;TEST FAILED IF PROGRAM HALTS HERE
 39526	055304	324 00 0 00 055305 		JUMPA	.+1		;IF TEST FAILS, CHANGE THIS INSTRUCTION (JUMPA .+1) TO
 39527									;JUMPA X (X IS THE ADDRESS OF THE FIRST INSTRUCTION
 39528									;IN THE SUBTEST) TO LOOP ON ERROR^
 39529	055305	312 01 0 00 070775 		CAME	1,[123456,,700234]	;PASS IF C(AC)=123456,,700234
 39530						STOP^
 39531	055306	254 04 0 00 055307 		HALT	.+1		;TEST FAILED IF PROGRAM HALTS HERE
 39532	055307	324 00 0 00 055310 		JUMPA	.+1		;IF TEST FAILS, CHANGE THIS INSTRUCTION (JUMPA .+1) TO
 39533									;JUMPA X (X IS THE ADDRESS OF THE FIRST INSTRUCTION
 39534									;IN THE SUBTEST) TO LOOP ON ERROR^
 39535	055310	312 02 0 00 070774 		CAME	2,[77543,,654321]	;PASS IF C(E) UNCHANGED
 39536						STOP^
 39537	055311	254 04 0 00 055312 		HALT	.+1		;TEST FAILED IF PROGRAM HALTS HERE
 39538	055312	324 00 0 00 055313 		JUMPA	.+1		;IF TEST FAILS, CHANGE THIS INSTRUCTION (JUMPA .+1) TO
 39539									;JUMPA X (X IS THE ADDRESS OF THE FIRST INSTRUCTION
 39540									;IN THE SUBTEST) TO LOOP ON ERROR^
 39541
 39542					;**********
 39543
 39544					;THIS TEST VERIFIES THAT TSZN SKIPS THE NEXT SEQUENTIAL INSTRUCTION
 39545					;IF AND ONLY IF NOT ALL BITS IN THE AC CORRESPONDING TO 1'S IN
 39546					;C(E) WITH BOTH HALVES SWAPPED ARE ZERO.  THESE MASKED
 39547					;AC BITS ARE THEN CHANGED TO ZERO.
 39548					;IN THIS CASE, C(AC)=123456,,701234 AND C(E)=076543,,654321.-
 39549					;HENCE, TSZN SHOULD NOT SKIP AND THE RESULT IN THE AC
 39550					;SHOULD BE 123456,,701234.  C(E) IS NOT AFFECTED.
 39551
 39552	055313	200 00 0 00 070745 	C72410:	MOVE	0,[123456,,701234]	;PRELOAD AC WITH 123456,,701234
 39553	055314	200 01 0 00 070754 		MOVE	1,[76543,,654321]	;PRElOAD E WITH 076543,,654321
 39554	055315	637 00 0 00 000001 		TSZN	0,1			;*TSZN SHOULD NOT SKIP AND
 39555										;PLACE 123456,,701234 INTO THE AC
 39556	055316	334 00 0 00 000000 		SKIPA				;PASS IF TSZN DOES NOT SKIP
 39557						STOP^
 39558	055317	254 04 0 00 055320 		HALT	.+1		;TEST FAILED IF PROGRAM HALTS HERE
 39559	055320	324 00 0 00 055321 		JUMPA	.+1		;IF TEST FAILS, CHANGE THIS INSTRUCTION (JUMPA .+1) TO
 39560									;JUMPA X (X IS THE ADDRESS OF THE FIRST INSTRUCTION
 39561									;IN THE SUBTEST) TO LOOP ON ERROR^
 39562	055321	312 00 0 00 070745 		CAME	0,[123456,,701234]	;PASS IF C(AC)=123456,,701234]
 39563						STOP^
 39564	055322	254 04 0 00 055323 		HALT	.+1		;TEST FAILED IF PROGRAM HALTS HERE
 39565	055323	324 00 0 00 055324 		JUMPA	.+1		;IF TEST FAILS, CHANGE THIS INSTRUCTION (JUMPA .+1) TO
 39566									;JUMPA X (X IS THE ADDRESS OF THE FIRST INSTRUCTION
DFKAA PDP-10 KL10 BASIC INSTRUCTION DIAGNOSTIC (1) VER 0,2	MACRO %53B(1254)-4 11:50 11-Nov-24 Page 72-1
DFKAA6	MAC	13-Jan-89 10:22		TEST OF MSCL LOGICAL TEST INSTRUCTIONS

 39567									;IN THE SUBTEST) TO LOOP ON ERROR^
 39568	055324	312 01 0 00 070754 		CAME	1,[76543,,654321]	;PASS IF C(E) UNCHANGED
 39569						STOP^
 39570	055325	254 04 0 00 055326 		HALT	.+1		;TEST FAILED IF PROGRAM HALTS HERE
 39571	055326	324 00 0 00 055327 		JUMPA	.+1		;IF TEST FAILS, CHANGE THIS INSTRUCTION (JUMPA .+1) TO
 39572									;JUMPA X (X IS THE ADDRESS OF THE FIRST INSTRUCTION
 39573									;IN THE SUBTEST) TO LOOP ON ERROR^
 39574
 39575					;**********
DFKAA PDP-10 KL10 BASIC INSTRUCTION DIAGNOSTIC (1) VER 0,2	MACRO %53B(1254)-4 11:50 11-Nov-24 Page 73
DFKAA6	MAC	13-Jan-89 10:22		TEST OF MSCL LOGICAL TEST INSTRUCTIONS

 39576					;THIS TEST VERIFIES THAT TRC COMPLEMENTS ALL BITS IN THE AC-RIGHT WHICH
 39577					;CORRESPOND TO 1'S IN E AND DOES NOT SKIP.
 39578					;IN THIS CASE, C(AC)=123456,,701234 AND E=3.
 39579					;HENCE, THE RESULT IN THE AC SHOUHD BE 123456,,701237
 39580
 39581	055327	200 17 0 00 070745 	C72500:	MOVE	17,[123456,,701234]	;PRELOAD AC WITH 123456,,701234
 39582	055330	640 17 0 00 000003 		TRC	17,3			;*TRC SHOULD NOT SKIP AND
 39583										;PLACE 123456,,701237 INTO THE AC
 39584	055331	334 00 0 00 000000 		SKIPA				;PASS IF TRC DID NOT SKIP
 39585						STOP^
 39586	055332	254 04 0 00 055333 		HALT	.+1		;TEST FAILED IF PROGRAM HALTS HERE
 39587	055333	324 00 0 00 055334 		JUMPA	.+1		;IF TEST FAILS, CHANGE THIS INSTRUCTION (JUMPA .+1) TO
 39588									;JUMPA X (X IS THE ADDRESS OF THE FIRST INSTRUCTION
 39589									;IN THE SUBTEST) TO LOOP ON ERROR^
 39590	055334	312 17 0 00 070776 		CAME	17,[123456,,701237]	;PASS IF C(AC)=123456,,701237
 39591						STOP^
 39592	055335	254 04 0 00 055336 		HALT	.+1		;TEST FAILED IF PROGRAM HALTS HERE
 39593	055336	324 00 0 00 055337 		JUMPA	.+1		;IF TEST FAILS, CHANGE THIS INSTRUCTION (JUMPA .+1) TO
 39594									;JUMPA X (X IS THE ADDRESS OF THE FIRST INSTRUCTION
 39595									;IN THE SUBTEST) TO LOOP ON ERROR^
 39596
 39597					;**********
 39598
 39599					;THIS TEST VERIFIES THAT TRC COMPLEMENTS ALL BITS IN THE AC-RIGHT WHICH
 39600					;CORRESPOND TO 1'S IN E AND DOES NOT SKIP.
 39601					;IN THIS CASE, C(AC)=123456,,701234 AND E=300.
 39602					;HENCE, THE RESULT IN THE AC SHOULD BE 123456,,701134
 39603
 39604	055337	200 16 0 00 070745 	C72510:	MOVE	16,[123456,,701234]	;PRELOAD AC WITH 123456,,701234
 39605	055340	640 16 0 00 000300 		TRC	16,300			;*TRC SHOULD NOT SKIP AND
 39606										;PLACE 123456,,701134 INTO THE AC
 39607	055341	334 00 0 00 000000 		SKIPA				;PASS IF TRC DID NOT SKIP
 39608						STOP^
 39609	055342	254 04 0 00 055343 		HALT	.+1		;TEST FAILED IF PROGRAM HALTS HERE
 39610	055343	324 00 0 00 055344 		JUMPA	.+1		;IF TEST FAILS, CHANGE THIS INSTRUCTION (JUMPA .+1) TO
 39611									;JUMPA X (X IS THE ADDRESS OF THE FIRST INSTRUCTION
 39612									;IN THE SUBTEST) TO LOOP ON ERROR^
 39613	055344	312 16 0 00 070777 		CAME	16,[123456,,701134]	;PASS IF C(AC)=123456,,701134
 39614						STOP^
 39615	055345	254 04 0 00 055346 		HALT	.+1		;TEST FAILED IF PROGRAM HALTS HERE
 39616	055346	324 00 0 00 055347 		JUMPA	.+1		;IF TEST FAILS, CHANGE THIS INSTRUCTION (JUMPA .+1) TO
 39617									;JUMPA X (X IS THE ADDRESS OF THE FIRST INSTRUCTION
 39618									;IN THE SUBTEST) TO LOOP ON ERROR^
 39619
 39620					;**********
DFKAA PDP-10 KL10 BASIC INSTRUCTION DIAGNOSTIC (1) VER 0,2	MACRO %53B(1254)-4 11:50 11-Nov-24 Page 74
DFKAA6	MAC	13-Jan-89 10:22		TEST OF MSCL LOGICAL TEST INSTRUCTIONS

 39621					;THIS TEST VERIFIES THAT TLC COMPLEMENTS ALL BITS IN THE AC-LEFT WHICH
 39622					;CORRESPOND TO 1'S IN E AND DOES NOT SKIP.
 39623					;IN THIS CASE, C(AC)=123456,,701234 AND E=300.
 39624					;HENCE, ThE RESULT IN THE AC SHOULD BE 123756,,701234.
 39625
 39626	055347	200 15 0 00 070745 	C72600:	MOVE	15,[123456,,701234]	;PRELOAD AC WITH 123456,,701234
 39627	055350	641 15 0 00 000300 		TLC	15,300			;*TLC SHOULD NOT SKIP AND
 39628										;PLACE 123756,,701234 INTO THE AC
 39629	055351	334 00 0 00 000000 		SKIPA				;PASS IF TLC DID NOT SKIP
 39630						STOP^
 39631	055352	254 04 0 00 055353 		HALT	.+1		;TEST FAILED IF PROGRAM HALTS HERE
 39632	055353	324 00 0 00 055354 		JUMPA	.+1		;IF TEST FAILS, CHANGE THIS INSTRUCTION (JUMPA .+1) TO
 39633									;JUMPA X (X IS THE ADDRESS OF THE FIRST INSTRUCTION
 39634									;IN THE SUBTEST) TO LOOP ON ERROR^
 39635	055354	312 15 0 00 071000 		CAME	15,[123756,,701234]	;PASS IF A(AC)=123756,,701234
 39636						STOP^
 39637	055355	254 04 0 00 055356 		HALT	.+1		;TEST FAILED IF PROGRAM HALTS HERE
 39638	055356	324 00 0 00 055357 		JUMPA	.+1		;IF TEST FAILS, CHANGE THIS INSTRUCTION (JUMPA .+1) TO
 39639									;JUMPA X (X IS THE ADDRESS OF THE FIRST INSTRUCTION
 39640									;IN THE SUBTEST) TO LOOP ON ERROR^
 39641
 39642					;**********
 39643
 39644					;THIS TEST VERIFIES THAT TLC COMPLEMENTS ALL BITS IN THE AC-LEFT WHICH
 39645					;CORRESPOND TO 1'S IN E AND DOES NOT SKIP.
 39646					;IN THIS CASE, C(AC)=123456,,701234 AND E=3.
 39647					;HENCE, THE RESULT IN THE AC SHOULD BE 123455,,701234.
 39648
 39649	055357	200 14 0 00 070745 	C72610:	MOVE	14,[123456,,701234]	;PRELOAD AC WITH 123456,,701234
 39650	055360	641 14 0 00 000003 		TLC	14,3			;*TLC SHOULD NOT SKIP AND
 39651										;PLACE 123455,,701234 INTO THE AC
 39652	055361	334 00 0 00 000000 		SKIPA				;PASS IF TLC DID NOT SKIP
 39653						STOP^
 39654	055362	254 04 0 00 055363 		HALT	.+1		;TEST FAILED IF PROGRAM HALTS HERE
 39655	055363	324 00 0 00 055364 		JUMPA	.+1		;IF TEST FAILS, CHANGE THIS INSTRUCTION (JUMPA .+1) TO
 39656									;JUMPA X (X IS THE ADDRESS OF THE FIRST INSTRUCTION
 39657									;IN THE SUBTEST) TO LOOP ON ERROR^
 39658	055364	312 14 0 00 071001 		CAME	14,[123455,,701234]	;PASS IF C(AC)=123455,,701234
 39659						STOP^
 39660	055365	254 04 0 00 055366 		HALT	.+1		;TEST FAILED IF PROGRAM HALTS HERE
 39661	055366	324 00 0 00 055367 		JUMPA	.+1		;IF TEST FAILS, CHANGE THIS INSTRUCTION (JUMPA .+1) TO
 39662									;JUMPA X (X IS THE ADDRESS OF THE FIRST INSTRUCTION
 39663									;IN THE SUBTEST) TO LOOP ON ERROR^
 39664
 39665					;**********
DFKAA PDP-10 KL10 BASIC INSTRUCTION DIAGNOSTIC (1) VER 0,2	MACRO %53B(1254)-4 11:50 11-Nov-24 Page 75
DFKAA6	MAC	13-Jan-89 10:22		TEST OF MSCL LOGICAL TEST INSTRUCTIONS

 39666					;THIS TEST VERIFIES THAT TRCE SKIPS THE NEXT SEQUENTIAL INSTRUCTION
 39667					;IF AND ONLY IF ALL BITS IN AC-RIGHT CORRESPONDING TO 1'S IN E ARE ZERO.
 39668					;THESE MASKED AC BITS ARE THEN COMPLEMENTED.
 39669					;IN THIS CASE, C(AC)=123456,,701234 AND E=3.
 39670					;HENCE, TRCE SHOULD SKIP THE NEXT SEQUENTIAL INSTRUCTION
 39671					;AND THE RESULT IN THE AC SHOULD BE 123456,,701237.
 39672
 39673	055367	200 13 0 00 070745 	C72700:	MOVE	13,[123456,,701234]	;PRELOAD AC WITH 123456,,701234
 39674	055370	642 13 0 00 000003 		TRCE	13,3			;*TRCE SHOULD SKIP AND
 39675										;PLACE 123456,,701237 INTO ThE AC
 39676						STOP^
 39677	055371	254 04 0 00 055372 		HALT	.+1		;TEST FAILED IF PROGRAM HALTS HERE
 39678	055372	324 00 0 00 055373 		JUMPA	.+1		;IF TEST FAILS, CHANGE THIS INSTRUCTION (JUMPA .+1) TO
 39679									;JUMPA X (X IS THE ADDRESS OF THE FIRST INSTRUCTION
 39680									;IN THE SUBTEST) TO LOOP ON ERROR^
 39681	055373	312 13 0 00 070776 		CAME	13,[123456,,701237]	;PASS IF C(AC)=123456,,701237
 39682						STOP^
 39683	055374	254 04 0 00 055375 		HALT	.+1		;TEST FAILED IF PROGRAM HALTS HERE
 39684	055375	324 00 0 00 055376 		JUMPA	.+1		;IF TEST FAILS, CHANGE THIS INSTRUCTION (JUMPA .+1) TO
 39685									;JUMPA X (X IS THE ADDRESS OF THE FIRST INSTRUCTION
 39686									;IN THE SUBTEST) TO LOOP ON ERROR^
 39687
 39688					;**********
 39689
 39690					;THIS TEST VERIFIES THAT TRCE SKIPS THE NEXT SEQUENTIAL INSTRUCTION
 39691					;IF AND ONLY IF ALL BITS IN AC-RIGHT CORRESPONDING TO 1'S IN E ARE ZERO.
 39692					;THESE MASKED AC BITS ARE THEN COMPLEMENTED.
 39693					;IN THIS CASE, C(AC)=123456,,701234 AND E=300.
 39694					;HENCE, TRCE SHOULD NOT SKIP THE NEXT SEQUENTIAL INSTRUCTION
 39695					;AND THE RESULT IN THE AC SHOULD BE 123456,,701134
 39696
 39697	055376	200 12 0 00 070745 	C72710:	MOVE	12,[123456,,701234]	;PRELOAD AC WITH 123456,,701234
 39698	055377	642 12 0 00 000300 		TRCE	12,300			;*TRCE SHOULD NOT SKIP AND
 39699										;PLACE 123456,,701134 INTO THE AC
 39700	055400	334 00 0 00 000000 		SKIPA				;PASS IF TRCE DID NOT SKIP
 39701						STOP^
 39702	055401	254 04 0 00 055402 		HALT	.+1		;TEST FAILED IF PROGRAM HALTS HERE
 39703	055402	324 00 0 00 055403 		JUMPA	.+1		;IF TEST FAILS, CHANGE THIS INSTRUCTION (JUMPA .+1) TO
 39704									;JUMPA X (X IS THE ADDRESS OF THE FIRST INSTRUCTION
 39705									;IN THE SUBTEST) TO LOOP ON ERROR^
 39706	055403	312 12 0 00 070777 		CAME	12,[123456,,701134]	;PASS IF C(AC)=123456,,701134
 39707						STOP^
 39708	055404	254 04 0 00 055405 		HALT	.+1		;TEST FAILED IF PROGRAM HALTS HERE
 39709	055405	324 00 0 00 055406 		JUMPA	.+1		;IF TEST FAILS, CHANGE THIS INSTRUCTION (JUMPA .+1) TO
 39710									;JUMPA X (X IS THE ADDRESS OF THE FIRST INSTRUCTION
 39711									;IN THE SUBTEST) TO LOOP ON ERROR^
 39712
 39713					;**********
DFKAA PDP-10 KL10 BASIC INSTRUCTION DIAGNOSTIC (1) VER 0,2	MACRO %53B(1254)-4 11:50 11-Nov-24 Page 76
DFKAA6	MAC	13-Jan-89 10:22		TEST OF MSCL LOGICAL TEST INSTRUCTIONS

 39714					;THIS TEST VERIFIES THAT TLCE SKIPS THE NEXT SEQUENTIAL INSTRUCTION
 39715					;IF AND ONLY IF ALL BITS IN AC-LEFT CORRESPONDING TO 1'S IN E ARE ZERO.
 39716					;THESE MASKED AC BITS ARE THEN COMPLEMENTED.
 39717					;IN THIS CASE, C(AC)=123456,,701234 AND E=300.
 39718					;HENCE, TLCE SHOULD SKIP THE NEXT SEQUENTIAL INSTRUCTION
 39719					;AND THE RESULT IN THE AC SHOULD BE 123756,,701234.
 39720
 39721	055406	200 11 0 00 070745 	C73000:	MOVE	11,[123456,,701234]	;PRELOAD AC WITH 123456,,701234
 39722	055407	643 11 0 00 000300 		TLCE	11,300			;*TLCE SHOULD SKIP AND
 39723										;PLACE 123756,,701234 INTO THE AC
 39724						STOP^
 39725	055410	254 04 0 00 055411 		HALT	.+1		;TEST FAILED IF PROGRAM HALTS HERE
 39726	055411	324 00 0 00 055412 		JUMPA	.+1		;IF TEST FAILS, CHANGE THIS INSTRUCTION (JUMPA .+1) TO
 39727									;JUMPA X (X IS THE ADDRESS OF THE FIRST INSTRUCTION
 39728									;IN THE SUBTEST) TO LOOP ON ERROR^
 39729	055412	312 11 0 00 071000 		CAME	11,[123756,,701234]	;PASS IF C(AC)=123756,,701234
 39730						STOP^
 39731	055413	254 04 0 00 055414 		HALT	.+1		;TEST FAILED IF PROGRAM HALTS HERE
 39732	055414	324 00 0 00 055415 		JUMPA	.+1		;IF TEST FAILS, CHANGE THIS INSTRUCTION (JUMPA .+1) TO
 39733									;JUMPA X (X IS THE ADDRESS OF THE FIRST INSTRUCTION
 39734									;IN THE SUBTEST) TO LOOP ON ERROR^
 39735
 39736					;**********
 39737
 39738					;THIS TEST VERIFIES THAT TLCE SKIPS THE NEXT SEQUENTIAL INSTRUCTION
 39739					;IF AND ONLY IF ALL BITS IN AC-LEFT CORRESPONDING TO 1'S IN E ARE ZERO.
 39740					;THESE MASKED AC BITS ARE THEN COMPLEMENTED.
 39741					;IN THIS CASE, C(AC)=123456,,701234 AND E=3.
 39742					;HENCE, TLCE SHOULD NOT SKIP THE NEXT SEQUENTIAL INSTRUCTION
 39743					;AND THE RESULT IN THE AC SHOULD BE 123455,,701234.
 39744
 39745	055415	200 10 0 00 070745 	C73010:	MOVE	10,[123456,,701234]	;PRELOAD AC WITH 123456,,701234
 39746	055416	643 10 0 00 000003 		TLCE	10,3			;*TLCE SHOULD NOT SKIP AND
 39747										;PLACE 123455,,701234 INTO THE AC
 39748	055417	334 00 0 00 000000 		SKIPA				;PASS IF TLCE DID NOT SKIP
 39749						STOP^
 39750	055420	254 04 0 00 055421 		HALT	.+1		;TEST FAILED IF PROGRAM HALTS HERE
 39751	055421	324 00 0 00 055422 		JUMPA	.+1		;IF TEST FAILS, CHANGE THIS INSTRUCTION (JUMPA .+1) TO
 39752									;JUMPA X (X IS THE ADDRESS OF THE FIRST INSTRUCTION
 39753									;IN THE SUBTEST) TO LOOP ON ERROR^
 39754	055422	312 10 0 00 071001 		CAME	10,[123455,,701234]	;PASS IF C(AC)=123455,,701234]
 39755						STOP^
 39756	055423	254 04 0 00 055424 		HALT	.+1		;TEST FAILED IF PROGRAM HALTS HERE
 39757	055424	324 00 0 00 055425 		JUMPA	.+1		;IF TEST FAILS, CHANGE THIS INSTRUCTION (JUMPA .+1) TO
 39758									;JUMPA X (X IS THE ADDRESS OF THE FIRST INSTRUCTION
 39759									;IN THE SUBTEST) TO LOOP ON ERROR^
 39760
 39761					;**********
DFKAA PDP-10 KL10 BASIC INSTRUCTION DIAGNOSTIC (1) VER 0,2	MACRO %53B(1254)-4 11:50 11-Nov-24 Page 77
DFKAA6	MAC	13-Jan-89 10:22		TEST OF MSCL LOGICAL TEST INSTRUCTIONS

 39762					;THIS TEST VERIFIES THAT TRCA ALWAYS SKIPS THE NEXT SEQUENTIAL INSTRUCTION
 39763					;AND COMPLEMENTS ALL BITS IN AC-RIGHT WHICH CORRESPOND TO 1'S IN E.
 39764					;IN THIS CASE, C(AC)=123456,,701234 AND E=3.
 39765					;HENCE, TRCA SHOULD SKIP THE NEXT INSTRUCTION AND THE RESULT IN
 39766					;THE AC SHOULD BE 123456,,701237.
 39767
 39768	055425	200 07 0 00 070745 	C73100:	MOVE	7,[123456,,701234]	;PRELOAD AC WITH 123456,,701234
 39769	055426	644 07 0 00 000003 		TRCA	7,3			;*TRCA SHOULD SKIP AND
 39770										;PLACE 123456,,701237 INTO THE AC
 39771						STOP^
 39772	055427	254 04 0 00 055430 		HALT	.+1		;TEST FAILED IF PROGRAM HALTS HERE
 39773	055430	324 00 0 00 055431 		JUMPA	.+1		;IF TEST FAILS, CHANGE THIS INSTRUCTION (JUMPA .+1) TO
 39774									;JUMPA X (X IS THE ADDRESS OF THE FIRST INSTRUCTION
 39775									;IN THE SUBTEST) TO LOOP ON ERROR^
 39776	055431	312 07 0 00 070776 		CAME	7,[123456,,701237]	;PASS IF C(AC)=123456,,701237
 39777						STOP^
 39778	055432	254 04 0 00 055433 		HALT	.+1		;TEST FAILED IF PROGRAM HALTS HERE
 39779	055433	324 00 0 00 055434 		JUMPA	.+1		;IF TEST FAILS, CHANGE THIS INSTRUCTION (JUMPA .+1) TO
 39780									;JUMPA X (X IS THE ADDRESS OF THE FIRST INSTRUCTION
 39781									;IN THE SUBTEST) TO LOOP ON ERROR^
 39782
 39783					;**********
 39784
 39785					;THIS TEST VERIFIES THAT TRCA ALWAYS SKIPS THE NEXT SEQUENTIAL INSTRUCTION
 39786					;AND COMPLEMENTS ALL BITS IN AC-RIGHT WHICH CORRESPOND TO 1'S IN E
 39787					;IN THIS CASE, C(AC)=123456,,701234 AND E=300
 39788					;HENCE, TRCA SHOULD SKIP THE NEXT INSTRUCTION AND THE RESULT IN
 39789					;THE AC SHOULD BE 123456,,701134
 39790
 39791	055434	200 06 0 00 070745 	C73110:	MOVE	6,[123456,,701234]	;PRELOAD AC WITH 123456,,701234
 39792	055435	644 06 0 00 000300 		TRCA	6,300			;*TRCA SHOULD SKIP AND
 39793										;PLACE 123456,,701134 INTO THE AC
 39794						STOP^
 39795	055436	254 04 0 00 055437 		HALT	.+1		;TEST FAILED IF PROGRAM HALTS HERE
 39796	055437	324 00 0 00 055440 		JUMPA	.+1		;IF TEST FAILS, CHANGE THIS INSTRUCTION (JUMPA .+1) TO
 39797									;JUMPA X (X IS THE ADDRESS OF THE FIRST INSTRUCTION
 39798									;IN THE SUBTEST) TO LOOP ON ERROR^
 39799	055440	312 06 0 00 070777 		CAME	6,[123456,,701134]	;PASS IF C(AC)=123456,,701134
 39800						STOP^
 39801	055441	254 04 0 00 055442 		HALT	.+1		;TEST FAILED IF PROGRAM HALTS HERE
 39802	055442	324 00 0 00 055443 		JUMPA	.+1		;IF TEST FAILS, CHANGE THIS INSTRUCTION (JUMPA .+1) TO
 39803									;JUMPA X (X IS THE ADDRESS OF THE FIRST INSTRUCTION
 39804									;IN THE SUBTEST) TO LOOP ON ERROR^
 39805
 39806					;**********
DFKAA PDP-10 KL10 BASIC INSTRUCTION DIAGNOSTIC (1) VER 0,2	MACRO %53B(1254)-4 11:50 11-Nov-24 Page 78
DFKAA6	MAC	13-Jan-89 10:22		TEST OF MSCL LOGICAL TEST INSTRUCTIONS

 39807					;THIS TEST VERIFIES THAT TLCA ALWAYS SKIPS THE NEXT SEQUENTIAL INSTRUCTION
 39808					;AND COMPLEMENTS ALL BITS IN AC-LEFT WHICH CORRESPOND TO 1'S IN E
 39809					;IN THIS CASE, C(AC)=123456,,701234 AND E=3
 39810					;HENCE, TLCA SHOULD SKIP THE NEXT INSTRUCTION AND THE RESULT IN
 39811					;THE AC SHOULD 123456,,701234
 39812
 39813	055443	200 05 0 00 070745 	C73200:	MOVE	5,[123456,,701234]	;PRELOAD AC WITH 123456,,701234
 39814	055444	645 05 0 00 000003 		TLCA	5,3			;*TLCA SHOULD SKIP AND
 39815										;PLACE 12345,,701234 INTO THE AC
 39816						STOP^
 39817	055445	254 04 0 00 055446 		HALT	.+1		;TEST FAILED IF PROGRAM HALTS HERE
 39818	055446	324 00 0 00 055447 		JUMPA	.+1		;IF TEST FAILS, CHANGE THIS INSTRUCTION (JUMPA .+1) TO
 39819									;JUMPA X (X IS THE ADDRESS OF THE FIRST INSTRUCTION
 39820									;IN THE SUBTEST) TO LOOP ON ERROR^
 39821	055447	312 05 0 00 071001 		CAME	5,[123455,,701234]	;PASS IF C(AC)=123455,,701234
 39822						STOP^
 39823	055450	254 04 0 00 055451 		HALT	.+1		;TEST FAILED IF PROGRAM HALTS HERE
 39824	055451	324 00 0 00 055452 		JUMPA	.+1		;IF TEST FAILS, CHANGE THIS INSTRUCTION (JUMPA .+1) TO
 39825									;JUMPA X (X IS THE ADDRESS OF THE FIRST INSTRUCTION
 39826									;IN THE SUBTEST) TO LOOP ON ERROR^
 39827
 39828					;**********
 39829
 39830					;THIS TEST VERIFIES THAT TLCA ALWAYS SKIPS THE NEXT SEQUENTIAL INSTRUCTION
 39831					;AND COMPLEMENTS ALL BITS IN AC-LEFT WHICH CORRESPOND TO 1'S IN E
 39832					;IN THIS CASE, C(AC)=123456,,701234 AND E=300
 39833					;HENCE, TLCA SHOULD SKIP THE NEXT INSTRUCTION AND THE RESULT IN
 39834					;THE AC SHOULD BE 123756,,701234
 39835
 39836	055452	200 04 0 00 070745 	C73210:	MOVE	4,[123456,,701234]	;PRELOAD AC WITH 123456,,701234
 39837	055453	645 04 0 00 000300 		TLCA	4,300			;*TLCA SHOULD SKIP AND
 39838										;PLACE 123756,,701234 INTO THE AC
 39839						STOP^
 39840	055454	254 04 0 00 055455 		HALT	.+1		;TEST FAILED IF PROGRAM HALTS HERE
 39841	055455	324 00 0 00 055456 		JUMPA	.+1		;IF TEST FAILS, CHANGE THIS INSTRUCTION (JUMPA .+1) TO
 39842									;JUMPA X (X IS THE ADDRESS OF THE FIRST INSTRUCTION
 39843									;IN THE SUBTEST) TO LOOP ON ERROR^
 39844	055456	312 04 0 00 071000 		CAME	4,[123756,,701234]	;PASS IF C(AC)=123756,,701234
 39845						STOP^
 39846	055457	254 04 0 00 055460 		HALT	.+1		;TEST FAILED IF PROGRAM HALTS HERE
 39847	055460	324 00 0 00 055461 		JUMPA	.+1		;IF TEST FAILS, CHANGE THIS INSTRUCTION (JUMPA .+1) TO
 39848									;JUMPA X (X IS THE ADDRESS OF THE FIRST INSTRUCTION
 39849									;IN THE SUBTEST) TO LOOP ON ERROR^
 39850
 39851					;**********
DFKAA PDP-10 KL10 BASIC INSTRUCTION DIAGNOSTIC (1) VER 0,2	MACRO %53B(1254)-4 11:50 11-Nov-24 Page 79
DFKAA6	MAC	13-Jan-89 10:22		TEST OF MSCL LOGICAL TEST INSTRUCTIONS

 39852					;THIS TEST VERIFIES THAT TRCN SKIPS THE NEXT SEQUENTIAL INSTRUCTION
 39853					;IF AND ONLY IF NOT ALL BITS IN AC-RIGHT CORRESPONDING TO 1'S IN E ARE ZERO.
 39854					;THESE MASKED AC BITS ARE THEN COMPLEMENTED
 39855					;IN THIS CASE, C(AC)=123456,,701234 AND E=300
 39856					;HENCE, TRCN SHOULD SKIP THE NEXT SEQUENTIAL INSTRUCTION
 39857					;AND RESULT IN THE AC SHOULD BE 123456,,701134
 39858
 39859	055461	200 03 0 00 070745 	C73300:	MOVE	3,[123456,,701234]	;PRELOAD AC WITH 123456,,701234
 39860	055462	646 03 0 00 000300 		TRCN	3,300			;*SHOULD SKIP AND
 39861										;PLACE 123456,,701134 INTO THE AC
 39862						STOP^
 39863	055463	254 04 0 00 055464 		HALT	.+1		;TEST FAILED IF PROGRAM HALTS HERE
 39864	055464	324 00 0 00 055465 		JUMPA	.+1		;IF TEST FAILS, CHANGE THIS INSTRUCTION (JUMPA .+1) TO
 39865									;JUMPA X (X IS THE ADDRESS OF THE FIRST INSTRUCTION
 39866									;IN THE SUBTEST) TO LOOP ON ERROR^
 39867	055465	312 03 0 00 070777 		CAME	3,[123456,,701134]	;PASS IF C(AC)=123456,,701134
 39868						STOP^
 39869	055466	254 04 0 00 055467 		HALT	.+1		;TEST FAILED IF PROGRAM HALTS HERE
 39870	055467	324 00 0 00 055470 		JUMPA	.+1		;IF TEST FAILS, CHANGE THIS INSTRUCTION (JUMPA .+1) TO
 39871									;JUMPA X (X IS THE ADDRESS OF THE FIRST INSTRUCTION
 39872									;IN THE SUBTEST) TO LOOP ON ERROR^
 39873
 39874					;**********
 39875
 39876					;THIS TEST VERIFIES THAT TRCN SKIPS THE NEXT SEQUENTIAL INSTRUCTION
 39877					;IF AND ONLY IF NOT ALL BITS IN AC-RIGHT CORRESPONDING TO 1'S IN E ARE ZERO.
 39878					;THESE MASKED AC BITS ARE THEN COMPLEMENTED
 39879					;IN THIS CASE, C(AC)=123456,,701234 AND E=3
 39880					;HENCE, TRCN SHOULD NOT SKIP THE NEXT SEQUENTIAL INSTRUCTION
 39881					;AND THE RESULT IN THE AC SHOULD BE 123456,,701237
 39882
 39883	055470	200 02 0 00 070745 	C73310:	MOVE	2,[123456,,701234]	;PRELOAD AC WITH 123456,,701234
 39884	055471	646 02 0 00 000003 		TRCN	2,3			;*TRCN SHOULD NOT SKIP AND
 39885										;PLACE 123456,,701237 INTO THE AC
 39886	055472	334 00 0 00 000000 		SKIPA				;PASS IF TRCN DID NOT SKIP
 39887						STOP^
 39888	055473	254 04 0 00 055474 		HALT	.+1		;TEST FAILED IF PROGRAM HALTS HERE
 39889	055474	324 00 0 00 055475 		JUMPA	.+1		;IF TEST FAILS, CHANGE THIS INSTRUCTION (JUMPA .+1) TO
 39890									;JUMPA X (X IS THE ADDRESS OF THE FIRST INSTRUCTION
 39891									;IN THE SUBTEST) TO LOOP ON ERROR^
 39892	055475	312 02 0 00 070776 		CAME	2,[123456,,701237]	;PASS IF C(AC)=123456,,701237
 39893						STOP^
 39894	055476	254 04 0 00 055477 		HALT	.+1		;TEST FAILED IF PROGRAM HALTS HERE
 39895	055477	324 00 0 00 055500 		JUMPA	.+1		;IF TEST FAILS, CHANGE THIS INSTRUCTION (JUMPA .+1) TO
 39896									;JUMPA X (X IS THE ADDRESS OF THE FIRST INSTRUCTION
 39897									;IN THE SUBTEST) TO LOOP ON ERROR^
 39898
 39899					;**********
DFKAA PDP-10 KL10 BASIC INSTRUCTION DIAGNOSTIC (1) VER 0,2	MACRO %53B(1254)-4 11:50 11-Nov-24 Page 80
DFKAA6	MAC	13-Jan-89 10:22		TEST OF MSCL LOGICAL TEST INSTRUCTIONS

 39900					;THIS TEST VERIFIES THAT TLCN SKIPS THE NEXT SEQUENTIAL INSTRUCTION
 39901					;IF AND ONLY IF NOT ALL BITS IN AC-LEFT CORRESPONDING TO 1'S IN E ARE ZERO.
 39902					;THESE MASKED AC BITS ARE THEN COMPLEMENTED
 39903					;IN THE CASE, C(AC)=123456,,701234 AND E=3
 39904					;HENCE, TLCN SHOULD SKIP THE NEXT SEQUENTIAL INSTRUCTION
 39905					;AND THE RESULT IN THE AC SHOULD BE 123456,,701234
 39906
 39907	055500	200 01 0 00 070745 	C73400:	MOVE	1,[123456,,701234]	;PRELOAD AC WITH 123456,,701234
 39908	055501	647 01 0 00 000003 		TLCN	1,3			;*TLCN SHOULD SKIP AND
 39909										;PLACE 123455,701234 INTO THE AC
 39910						STOP^
 39911	055502	254 04 0 00 055503 		HALT	.+1		;TEST FAILED IF PROGRAM HALTS HERE
 39912	055503	324 00 0 00 055504 		JUMPA	.+1		;IF TEST FAILS, CHANGE THIS INSTRUCTION (JUMPA .+1) TO
 39913									;JUMPA X (X IS THE ADDRESS OF THE FIRST INSTRUCTION
 39914									;IN THE SUBTEST) TO LOOP ON ERROR^
 39915	055504	312 01 0 00 071001 		CAME	1,[123455,,701234]	;PASS IF C(AC)=123455,,701234
 39916						STOP^
 39917	055505	254 04 0 00 055506 		HALT	.+1		;TEST FAILED IF PROGRAM HALTS HERE
 39918	055506	324 00 0 00 055507 		JUMPA	.+1		;IF TEST FAILS, CHANGE THIS INSTRUCTION (JUMPA .+1) TO
 39919									;JUMPA X (X IS THE ADDRESS OF THE FIRST INSTRUCTION
 39920									;IN THE SUBTEST) TO LOOP ON ERROR^
 39921
 39922					;**********
 39923
 39924					;THIS TEST VERIFIES THAT TLCN SKIPS THE NEXT SEQUENTIAL INSTRUCTION
 39925					;IF AND ONLY IF NOT ALL BITS IN AC-LEFT CORRESPONDING TO 1'S IN E ARE ZER.
 39926					;THESE MASKED AC BITS ARE THEN COMPLEMENTED
 39927					;IN THIS CASE, C(AC)=123456,,701234 AND E=300
 39928					;HENCE, TLCN SHOULD NOT SKIP THE NEXT SEQUENTIAL INSTRUCTION
 39929					;AND THE RESULT IN THE AC SHOULD BE 123756,,701234
 39930
 39931	055507	200 00 0 00 070745 	C73410:	MOVE	0,[123456,,701234]	;PRELOAD AC WITH 123456,,701234
 39932	055510	647 00 0 00 000300 		TLCN	0,300			;*TLCN SHOULD NOT SKIP AND
 39933										;PLACE 123756,,701234 INTO THE AC
 39934	055511	334 00 0 00 000000 		SKIPA				;PASS IF TLCN DID NOT SKIP
 39935						STOP^
 39936	055512	254 04 0 00 055513 		HALT	.+1		;TEST FAILED IF PROGRAM HALTS HERE
 39937	055513	324 00 0 00 055514 		JUMPA	.+1		;IF TEST FAILS, CHANGE THIS INSTRUCTION (JUMPA .+1) TO
 39938									;JUMPA X (X IS THE ADDRESS OF THE FIRST INSTRUCTION
 39939									;IN THE SUBTEST) TO LOOP ON ERROR^
 39940	055514	312 00 0 00 071000 		CAME	0,[123756,,701234]	;PASS IF C(AC)=123756,,701234
 39941						STOP^
 39942	055515	254 04 0 00 055516 		HALT	.+1		;TEST FAILED IF PROGRAM HALTS HERE
 39943	055516	324 00 0 00 055517 		JUMPA	.+1		;IF TEST FAILS, CHANGE THIS INSTRUCTION (JUMPA .+1) TO
 39944									;JUMPA X (X IS THE ADDRESS OF THE FIRST INSTRUCTION
 39945									;IN THE SUBTEST) TO LOOP ON ERROR^
 39946
 39947					;**********
DFKAA PDP-10 KL10 BASIC INSTRUCTION DIAGNOSTIC (1) VER 0,2	MACRO %53B(1254)-4 11:50 11-Nov-24 Page 81
DFKAA6	MAC	13-Jan-89 10:22		TEST OF MSCL LOGICAL TEST INSTRUCTIONS

 39948					;THIS TEST VERIFIES THAT TSL COMPLEMENTS ALL BITS OF THE AC WHICH
 39949					;CORRESPOND TO 1'S IN C(E) WITH BOTH HALVES SWAPPED AND DOES
 39950					;NOT SKIP THE NEXT INSTRUCTION.  C(E) IS NOT AFFECTED
 39951					;IN THIS CASE, C(AC)=123456,,701234 AND C(E)6543,,654321
 39952					;HENCE, TSC SHOULD NOT SKIP AND C(AC) SHOULD BE -1,,-1
 39953
 39954	055517	200 17 0 00 070745 	C73500:	MOVE	17,[123456,,701234]	;PRELOAD AC WITH 123456,,701234
 39955	055520	200 00 0 00 070754 		MOVE	0,[076543,,654321]	;PRELOAD E WITH 076543,,654321
 39956	055521	651 17 0 00 000000 		TSC	17,0			;*TSC SHOULD NOT SKIP AND
 39957										;PLACE -1,,-1 INTO THE AC
 39958	055522	334 00 0 00 000000 		SKIPA				;PASS IF TSC DOES NOT SKIP
 39959						STOP^
 39960	055523	254 04 0 00 055524 		HALT	.+1		;TEST FAILED IF PROGRAM HALTS HERE
 39961	055524	324 00 0 00 055525 		JUMPA	.+1		;IF TEST FAILS, CHANGE THIS INSTRUCTION (JUMPA .+1) TO
 39962									;JUMPA X (X IS THE ADDRESS OF THE FIRST INSTRUCTION
 39963									;IN THE SUBTEST) TO LOOP ON ERROR^
 39964	055525	312 17 0 00 070254 		CAME	17,[-1]			;PASS IF C(AC)=-1,,-1
 39965						STOP^
 39966	055526	254 04 0 00 055527 		HALT	.+1		;TEST FAILED IF PROGRAM HALTS HERE
 39967	055527	324 00 0 00 055530 		JUMPA	.+1		;IF TEST FAILS, CHANGE THIS INSTRUCTION (JUMPA .+1) TO
 39968									;JUMPA X (X IS THE ADDRESS OF THE FIRST INSTRUCTION
 39969									;IN THE SUBTEST) TO LOOP ON ERROR^
 39970	055530	312 00 0 00 070754 		CAME	0,[076543,,654321]	;PASS IF C(E) UNCHANGED
 39971						STOP^
 39972	055531	254 04 0 00 055532 		HALT	.+1		;TEST FAILED IF PROGRAM HALTS HERE
 39973	055532	324 00 0 00 055533 		JUMPA	.+1		;IF TEST FAILS, CHANGE THIS INSTRUCTION (JUMPA .+1) TO
 39974									;JUMPA X (X IS THE ADDRESS OF THE FIRST INSTRUCTION
 39975									;IN THE SUBTEST) TO LOOP ON ERROR^
 39976
 39977					;**********
 39978
 39979					;THIS TEST VERIFIES THAT TSC COMPLEMENTS ALL BITS OF THE AC WHICH
 39980					;CORRESPOND TO 1'S IN C(E) WITH BOTH HALVES SWAPPED AND DOES
 39981					;NOT SKIP THE NEXT INSTRUCTION.  C(E) IS NOT AFFECTED
 39982					;IN THIS CASE, C(AC)=123456,,701234 AND C(E)=252525,,707070
 39983					;HENCE, TSC SHOULD NOT SKIP AND C(AC) SHOULD BE 624426,,553711
 39984
 39985	055533	200 16 0 00 070745 	C73510:	MOVE	16,[123456,,701234]	;PRELOAD AC WITH 123456,,701234
 39986	055534	200 17 0 00 070761 		MOVE	17,[252525,,707070]	;PRELOAD E WITH 252525,,707070
 39987	055535	651 16 0 00 000017 		TSC	16,17			;*TSC SHOULD NOT SKIP AND
 39988										;PLACE 624426,,553711 INTO THE AC
 39989	055536	334 00 0 00 000000 		SKIPA				;PASS IF TSC DOES NOT SKIP
 39990						STOP^
 39991	055537	254 04 0 00 055540 		HALT	.+1		;TEST FAILED IF PROGRAM HALTS HERE
 39992	055540	324 00 0 00 055541 		JUMPA	.+1		;IF TEST FAILS, CHANGE THIS INSTRUCTION (JUMPA .+1) TO
 39993									;JUMPA X (X IS THE ADDRESS OF THE FIRST INSTRUCTION
 39994									;IN THE SUBTEST) TO LOOP ON ERROR^
 39995	055541	312 16 0 00 071002 		CAME	16,[624426,,553711]	;PASS IF C(AC)=624426,,553711
 39996						STOP^
 39997	055542	254 04 0 00 055543 		HALT	.+1		;TEST FAILED IF PROGRAM HALTS HERE
 39998	055543	324 00 0 00 055544 		JUMPA	.+1		;IF TEST FAILS, CHANGE THIS INSTRUCTION (JUMPA .+1) TO
 39999									;JUMPA X (X IS THE ADDRESS OF THE FIRST INSTRUCTION
 40000									;IN THE SUBTEST) TO LOOP ON ERROR^
 40001	055544	312 17 0 00 070761 		CAME	17,[252525,,707070]	;PASS IF C(E) UNCHANGED
 40002						STOP^
DFKAA PDP-10 KL10 BASIC INSTRUCTION DIAGNOSTIC (1) VER 0,2	MACRO %53B(1254)-4 11:50 11-Nov-24 Page 81-1
DFKAA6	MAC	13-Jan-89 10:22		TEST OF MSCL LOGICAL TEST INSTRUCTIONS

 40003	055545	254 04 0 00 055546 		HALT	.+1		;TEST FAILED IF PROGRAM HALTS HERE
 40004	055546	324 00 0 00 055547 		JUMPA	.+1		;IF TEST FAILS, CHANGE THIS INSTRUCTION (JUMPA .+1) TO
 40005									;JUMPA X (X IS THE ADDRESS OF THE FIRST INSTRUCTION
 40006									;IN THE SUBTEST) TO LOOP ON ERROR^
 40007
 40008					;**********
DFKAA PDP-10 KL10 BASIC INSTRUCTION DIAGNOSTIC (1) VER 0,2	MACRO %53B(1254)-4 11:50 11-Nov-24 Page 82
DFKAA6	MAC	13-Jan-89 10:22		TEST OF MSCL LOGICAL TEST INSTRUCTIONS

 40009					;THIS TEST VERIFIES THAT TDCE SKIPS THE NEXT SEQUENTIAL INSTRUCTION
 40010					;IF AND ONLY IF ALL BITS IN THE AC CORRESPONDING TO 1'S IN
 40011					;C(E) ARE ZERO.  THESE MASKED
 40012					;AC BITS ARE THEN COMPLEMENTED
 40013					;IN THIS CASE, C(AC)=123456,,701234 AND C(E)=654321,,076543
 40014					;HENCE, TDCE SHOULD SKIP AND THE RESULT IN AC
 40015					;SHOULD BE -1,,-1 C(E) IS NOT AFFECTED
 40016
 40017	055547	200 15 0 00 070745 	C73600:	MOVE	15,[123456,,701234]	;PRELOAD AC WITH 123456,,701234
 40018	055550	200 16 0 00 070763 		MOVE	16,[654321,,076543]	;PRELOAD E WITH 654321,,076543
 40019	055551	652 15 0 00 000016 		TDCE	15,16			;*TDCE SHOULD SKIP AND
 40020										;PLACE -1,,-1 INTO THE AC
 40021						STOP^
 40022	055552	254 04 0 00 055553 		HALT	.+1		;TEST FAILED IF PROGRAM HALTS HERE
 40023	055553	324 00 0 00 055554 		JUMPA	.+1		;IF TEST FAILS, CHANGE THIS INSTRUCTION (JUMPA .+1) TO
 40024									;JUMPA X (X IS THE ADDRESS OF THE FIRST INSTRUCTION
 40025									;IN THE SUBTEST) TO LOOP ON ERROR^
 40026	055554	312 15 0 00 070254 		CAME	15,[-1]			;PASS IF C(AC)=-1,,-1
 40027						STOP^
 40028	055555	254 04 0 00 055556 		HALT	.+1		;TEST FAILED IF PROGRAM HALTS HERE
 40029	055556	324 00 0 00 055557 		JUMPA	.+1		;IF TEST FAILS, CHANGE THIS INSTRUCTION (JUMPA .+1) TO
 40030									;JUMPA X (X IS THE ADDRESS OF THE FIRST INSTRUCTION
 40031									;IN THE SUBTEST) TO LOOP ON ERROR^
 40032	055557	312 16 0 00 070763 		CAME	16,[654321,,076543]	;PASS IF C(E) UNCHANGED
 40033						STOP^
 40034	055560	254 04 0 00 055561 		HALT	.+1		;TEST FAILED IF PROGRAM HALTS HERE
 40035	055561	324 00 0 00 055562 		JUMPA	.+1		;IF TEST FAILS, CHANGE THIS INSTRUCTION (JUMPA .+1) TO
 40036									;JUMPA X (X IS THE ADDRESS OF THE FIRST INSTRUCTION
 40037									;IN THE SUBTEST) TO LOOP ON ERROR^
 40038
 40039					;**********
 40040
 40041					;THIS TEST VERIFIES THAT TDCE SKIPS THE NEXT SEQUENTIAL INSTRUCTION
 40042					;IF AND ONLY IF ALL BITS IN THE AC CORRESPONDING TO 1'S IN
 40043					;C(E) ARE ZERO.  THESE MASKED
 40044					;AC BITS ARE THEN COMPLEMENTED
 40045					;IN THIS CASE, C(AC)=123456,,701234 AND C(E) 754321,,076543
 40046					;HENCE, TDCE SHOULD NOT SKIP AND THE RESULT IN AC
 40047					;SHOULD BE 677777,,-1 C(E) IS NOT AFFECTED.
 40048
 40049	055562	200 14 0 00 070745 	C73610:	MOVE	14,[123456,,701234]	;PRELOAD AC WITH 123456,,701234
 40050	055563	200 15 0 00 070764 		MOVE	15,[754321,,076543]	;PRELOAD E WITH 754321,,076543
 40051	055564	652 14 0 00 000015 		TDCE	14,15			;*TDCE SHOULD NOT SKIP AND
 40052										;PLACE 677777,,-1 INTO THE AC
 40053	055565	334 00 0 00 000000 		SKIPA				;PASS IF TDCE DOES NOT SKIP
 40054						STOP^
 40055	055566	254 04 0 00 055567 		HALT	.+1		;TEST FAILED IF PROGRAM HALTS HERE
 40056	055567	324 00 0 00 055570 		JUMPA	.+1		;IF TEST FAILS, CHANGE THIS INSTRUCTION (JUMPA .+1) TO
 40057									;JUMPA X (X IS THE ADDRESS OF THE FIRST INSTRUCTION
 40058									;IN THE SUBTEST) TO LOOP ON ERROR^
 40059	055570	312 14 0 00 070374 		CAME	14,[677777,,-1]		;PASS IF C(AC)=677777,,-1
 40060						STOP^
 40061	055571	254 04 0 00 055572 		HALT	.+1		;TEST FAILED IF PROGRAM HALTS HERE
 40062	055572	324 00 0 00 055573 		JUMPA	.+1		;IF TEST FAILS, CHANGE THIS INSTRUCTION (JUMPA .+1) TO
 40063									;JUMPA X (X IS THE ADDRESS OF THE FIRST INSTRUCTION
DFKAA PDP-10 KL10 BASIC INSTRUCTION DIAGNOSTIC (1) VER 0,2	MACRO %53B(1254)-4 11:50 11-Nov-24 Page 82-1
DFKAA6	MAC	13-Jan-89 10:22		TEST OF MSCL LOGICAL TEST INSTRUCTIONS

 40064									;IN THE SUBTEST) TO LOOP ON ERROR^
 40065	055573	312 15 0 00 070764 		CAME	15,[754321,,076543]	;PASS IF C(E) UNCHANGED
 40066						STOP^
 40067	055574	254 04 0 00 055575 		HALT	.+1		;TEST FAILED IF PROGRAM HALTS HERE
 40068	055575	324 00 0 00 055576 		JUMPA	.+1		;IF TEST FAILS, CHANGE THIS INSTRUCTION (JUMPA .+1) TO
 40069									;JUMPA X (X IS THE ADDRESS OF THE FIRST INSTRUCTION
 40070									;IN THE SUBTEST) TO LOOP ON ERROR^
 40071
 40072					;**********
DFKAA PDP-10 KL10 BASIC INSTRUCTION DIAGNOSTIC (1) VER 0,2	MACRO %53B(1254)-4 11:50 11-Nov-24 Page 83
DFKAA6	MAC	13-Jan-89 10:22		TEST OF MSCL LOGICAL TEST INSTRUCTIONS

 40073					;THIS TEST VERIFIES THAT TSCE SKIPS THE NEXT SEQUENTIAL INSTRUCTION
 40074					;IF AND ONLY IF ALL BITS IN THE AC CORRESPONDING TO 1'S IN
 40075					;C(E) WITH BOTH HALVES SWAPPED ARE ZERO.  THESE MASKED
 40076					;AC BITS ARE THEN COMPLEMENTED
 40077					;IN THIS CASE, C(AC)=123456,,701234 AND C(E)=076543,,654321
 40078					;HENCE, TSCE SHOULD SKIP AND THE RESULT IN THE AC
 40079					;SHOULD BE -1,,-1 C(E) IS NOT AFFECTED
 40080
 40081	055576	200 13 0 00 070745 	C73700:	MOVE	13,[123456,,701234]	;PRELOAD AC WITH 123456,,701234
 40082	055577	200 14 0 00 070754 		MOVE	14,[76543,,654321]	;PRELOAD E WITH 076543,,654321
 40083	055600	653 13 0 00 000014 		TSCE	13,14			;*TSCE SHOULD SKIP AND
 40084										;PLACE -1,,-1 INTO THE AC
 40085						STOP^
 40086	055601	254 04 0 00 055602 		HALT	.+1		;TEST FAILED IF PROGRAM HALTS HERE
 40087	055602	324 00 0 00 055603 		JUMPA	.+1		;IF TEST FAILS, CHANGE THIS INSTRUCTION (JUMPA .+1) TO
 40088									;JUMPA X (X IS THE ADDRESS OF THE FIRST INSTRUCTION
 40089									;IN THE SUBTEST) TO LOOP ON ERROR^
 40090	055603	312 13 0 00 070254 		CAME 	13,[-1]			;PASS IF C(E) UNCHANGED
 40091						STOP^
 40092	055604	254 04 0 00 055605 		HALT	.+1		;TEST FAILED IF PROGRAM HALTS HERE
 40093	055605	324 00 0 00 055606 		JUMPA	.+1		;IF TEST FAILS, CHANGE THIS INSTRUCTION (JUMPA .+1) TO
 40094									;JUMPA X (X IS THE ADDRESS OF THE FIRST INSTRUCTION
 40095									;IN THE SUBTEST) TO LOOP ON ERROR^
 40096
 40097					;**********
 40098
 40099					;THIS TEST VERIFIES THAT TSCE SKIPS THE NEXT SEQUENTIAL INSTRUCTION
 40100					;IF AND ONLY IF ALL BITS IN THE AC CORRESPONDING TO 1'S IN
 40101					;C(E) WITH BOTH HALVES SWAPPED ARE ZERO.  THESE MASKED
 40102					;AC BITS ARE THEN COMPLEMENTED
 40103					;IN THIS CASE, C(AC)=123456,701234 AND C(E)=076543,,657321
 40104					;HENCE, TSCE SHOULD NOT SKIP AND THE RESULT IN THE AC
 40105					;SHOULD BE 774777,,-1.  C(E) IS NOT AFFECTED.
 40106
 40107	055606	200 12 0 00 070745 	C73710:	MOVE	12,[123456,,701234]	;PRELOAD AC WITH 123456,,701234
 40108	055607	200 13 0 00 070766 		MOVE	13,[76543,,657321]	;PRELOAD E WITH 076543,,657321
 40109	055610	653 12 0 00 000013 		TSCE	12,13			;*TSCE HOULD NOT SKIP AND
 40110										;PLACE 774777,,-1 INTO THE AC
 40111	055611	334 00 0 00 000000 		SKIPA				;PASS IF TSCE DOES NOT SKIP
 40112						STOP^
 40113	055612	254 04 0 00 055613 		HALT	.+1		;TEST FAILED IF PROGRAM HALTS HERE
 40114	055613	324 00 0 00 055614 		JUMPA	.+1		;IF TEST FAILS, CHANGE THIS INSTRUCTION (JUMPA .+1) TO
 40115									;JUMPA X (X IS THE ADDRESS OF THE FIRST INSTRUCTION
 40116									;IN THE SUBTEST) TO LOOP ON ERROR^
 40117	055614	312 12 0 00 071003 		CAME	12,[774777,,-1]		;PASS IF C(AC)=774777,,-1
 40118						STOP^
 40119	055615	254 04 0 00 055616 		HALT	.+1		;TEST FAILED IF PROGRAM HALTS HERE
 40120	055616	324 00 0 00 055617 		JUMPA	.+1		;IF TEST FAILS, CHANGE THIS INSTRUCTION (JUMPA .+1) TO
 40121									;JUMPA X (X IS THE ADDRESS OF THE FIRST INSTRUCTION
 40122									;IN THE SUBTEST) TO LOOP ON ERROR^
 40123	055617	312 13 0 00 070766 		CAME	13,[76543,,657321]	;PASS IF C(E) UNCHANGED
 40124						STOP^
 40125	055620	254 04 0 00 055621 		HALT	.+1		;TEST FAILED IF PROGRAM HALTS HERE
 40126	055621	324 00 0 00 055622 		JUMPA	.+1		;IF TEST FAILS, CHANGE THIS INSTRUCTION (JUMPA .+1) TO
 40127									;JUMPA X (X IS THE ADDRESS OF THE FIRST INSTRUCTION
DFKAA PDP-10 KL10 BASIC INSTRUCTION DIAGNOSTIC (1) VER 0,2	MACRO %53B(1254)-4 11:50 11-Nov-24 Page 83-1
DFKAA6	MAC	13-Jan-89 10:22		TEST OF MSCL LOGICAL TEST INSTRUCTIONS

 40128									;IN THE SUBTEST) TO LOOP ON ERROR^
 40129
 40130					;**********
DFKAA PDP-10 KL10 BASIC INSTRUCTION DIAGNOSTIC (1) VER 0,2	MACRO %53B(1254)-4 11:50 11-Nov-24 Page 84
DFKAA6	MAC	13-Jan-89 10:22		TEST OF MSCL LOGICAL TEST INSTRUCTIONS

 40131					;THIS TEST VERIFIES THAT TDCA COMPLEMENTS ALL BITS OF THE AC WHICH
 40132					;CORRESPOND TO 1'S IN C(E) AND ALWAYS
 40133					;SKIPS THE NEXT INSTRUCTION.  C(E) IS NOT AFFECTED
 40134					;IN THIS CASE, C(AC)=123456,,701234 AND C(E)=654321,,076543
 40135					;HENCE, TDCA SHOULD ALWAYS SKIP AND C(AC) SHOULD BE -1,,-1
 40136
 40137	055622	200 11 0 00 070745 	C74000:	MOVE	11,[123456,,701234]	;PRELOAD AC WITH 123456,,701234
 40138	055623	200 12 0 00 070763 		MOVE	12,[654321,,076543]	;PRELOAD E WITH 654321,,076543
 40139	055624	654 11 0 00 000012 		TDCA	11,12			;*TDCA SHOULD SKIP AND
 40140										;PLACE -1,,-1 INTO THE AC
 40141						STOP^
 40142	055625	254 04 0 00 055626 		HALT	.+1		;TEST FAILED IF PROGRAM HALTS HERE
 40143	055626	324 00 0 00 055627 		JUMPA	.+1		;IF TEST FAILS, CHANGE THIS INSTRUCTION (JUMPA .+1) TO
 40144									;JUMPA X (X IS THE ADDRESS OF THE FIRST INSTRUCTION
 40145									;IN THE SUBTEST) TO LOOP ON ERROR^
 40146	055627	312 11 0 00 070254 		CAME	11,[-1]			;PASS IF C(AC)=-1,,-1
 40147						STOP^
 40148	055630	254 04 0 00 055631 		HALT	.+1		;TEST FAILED IF PROGRAM HALTS HERE
 40149	055631	324 00 0 00 055632 		JUMPA	.+1		;IF TEST FAILS, CHANGE THIS INSTRUCTION (JUMPA .+1) TO
 40150									;JUMPA X (X IS THE ADDRESS OF THE FIRST INSTRUCTION
 40151									;IN THE SUBTEST) TO LOOP ON ERROR^
 40152	055632	312 12 0 00 070763 		CAME	12,[654321,,76543]	;PASS IF C(E) UNCHANGED
 40153						STOP^
 40154	055633	254 04 0 00 055634 		HALT	.+1		;TEST FAILED IF PROGRAM HALTS HERE
 40155	055634	324 00 0 00 055635 		JUMPA	.+1		;IF TEST FAILS, CHANGE THIS INSTRUCTION (JUMPA .+1) TO
 40156									;JUMPA X (X IS THE ADDRESS OF THE FIRST INSTRUCTION
 40157									;IN THE SUBTEST) TO LOOP ON ERROR^
 40158
 40159					;**********
 40160
 40161					;THIS TEST VERIFIES THAT TDCA COMPLEMENTS ALL BITS OF THE AC WHICH
 40162					;CORRESPOND TO 1'S IN C(E) AND SLWAYS
 40163					;SKIPS THE NEXT INSTRUCTION C(E) IS NOT AFFECTED
 40164					;IN THIS CASE, C(AC)=123456,,701234 AND C(E)=252525,,707070
 40165					;HENCE, TDCA SHOULD ALWAYS SKIP AND C(AC) SHOULD BE 371173,,006244
 40166
 40167	055635	200 10 0 00 070745 	C74100:	MOVE	10,[123456,,701234]	;PRELOAD AC WITH 123456,,701234
 40168	055636	200 11 0 00 070761 		MOVE	11,[252525,,707070]	;PRELOAD E WITH 252525,,707070
 40169	055637	654 10 0 00 000011 		TDCA	10,11			;*TDCA SHOULD SKP AND
 40170										;PLACE 371173,,006244 INTO THE AC
 40171						STOP^
 40172	055640	254 04 0 00 055641 		HALT	.+1		;TEST FAILED IF PROGRAM HALTS HERE
 40173	055641	324 00 0 00 055642 		JUMPA	.+1		;IF TEST FAILS, CHANGE THIS INSTRUCTION (JUMPA .+1) TO
 40174									;JUMPA X (X IS THE ADDRESS OF THE FIRST INSTRUCTION
 40175									;IN THE SUBTEST) TO LOOP ON ERROR^
 40176	055642	312 10 0 00 071004 		CAME	10,[371173,,6244]	;PASS IF C(AC)=371173,,006244
 40177						STOP^
 40178	055643	254 04 0 00 055644 		HALT	.+1		;TEST FAILED IF PROGRAM HALTS HERE
 40179	055644	324 00 0 00 055645 		JUMPA	.+1		;IF TEST FAILS, CHANGE THIS INSTRUCTION (JUMPA .+1) TO
 40180									;JUMPA X (X IS THE ADDRESS OF THE FIRST INSTRUCTION
 40181									;IN THE SUBTEST) TO LOOP ON ERROR^
 40182	055645	312 11 0 00 070761 		CAME	11,[252525,,707070]	;PASS IF C(E) UNCHANGED
 40183						STOP^
 40184	055646	254 04 0 00 055647 		HALT	.+1		;TEST FAILED IF PROGRAM HALTS HERE
 40185	055647	324 00 0 00 055650 		JUMPA	.+1		;IF TEST FAILS, CHANGE THIS INSTRUCTION (JUMPA .+1) TO
DFKAA PDP-10 KL10 BASIC INSTRUCTION DIAGNOSTIC (1) VER 0,2	MACRO %53B(1254)-4 11:50 11-Nov-24 Page 84-1
DFKAA6	MAC	13-Jan-89 10:22		TEST OF MSCL LOGICAL TEST INSTRUCTIONS

 40186									;JUMPA X (X IS THE ADDRESS OF THE FIRST INSTRUCTION
 40187									;IN THE SUBTEST) TO LOOP ON ERROR^
 40188
 40189					;**********
DFKAA PDP-10 KL10 BASIC INSTRUCTION DIAGNOSTIC (1) VER 0,2	MACRO %53B(1254)-4 11:50 11-Nov-24 Page 85
DFKAA6	MAC	13-Jan-89 10:22		TEST OF MSCL LOGICAL TEST INSTRUCTIONS

 40190					;THIS TEST VERIFIES THAT TSCA COMPLEMENTS ALL BITS OF THE AC WHICH
 40191					;CORRESPOND TO 1'S IN C(E) WITH BOTH HALVES SWAPPED AND ALWAYS
 40192					;SKIPS THE NEXT INSTRUCTION.  C(E) IS NOT AFFECTED
 40193					;IN THIS CASE, C(AC)=123456,,701234 AND C(E)=076543,,654321
 40194					;HENCE, TSCA SHOULD ALWAYS SKIP AND C(AC) SHOULD BE -1,,-1
 40195
 40196	055650	200 07 0 00 070745 	C74200:	MOVE	7,[123456,,701234]	;PRELOAD AC WITH 123456,,701234
 40197	055651	200 10 0 00 070754 		MOVE	10,[076543,,654321]	;PRELOAD E WITH 076543,,654321
 40198	055652	655 07 0 00 000010 		TSCA	7,10			;*TSCA CHOULD SKIP AND
 40199										;PLACE -1,,-1 INTO THE AC
 40200						STOP^
 40201	055653	254 04 0 00 055654 		HALT	.+1		;TEST FAILED IF PROGRAM HALTS HERE
 40202	055654	324 00 0 00 055655 		JUMPA	.+1		;IF TEST FAILS, CHANGE THIS INSTRUCTION (JUMPA .+1) TO
 40203									;JUMPA X (X IS THE ADDRESS OF THE FIRST INSTRUCTION
 40204									;IN THE SUBTEST) TO LOOP ON ERROR^
 40205	055655	312 07 0 00 070254 		CAME	7,[-1]			;PASS IF C(AC)=-1,,-1
 40206						STOP^
 40207	055656	254 04 0 00 055657 		HALT	.+1		;TEST FAILED IF PROGRAM HALTS HERE
 40208	055657	324 00 0 00 055660 		JUMPA	.+1		;IF TEST FAILS, CHANGE THIS INSTRUCTION (JUMPA .+1) TO
 40209									;JUMPA X (X IS THE ADDRESS OF THE FIRST INSTRUCTION
 40210									;IN THE SUBTEST) TO LOOP ON ERROR^
 40211	055660	312 10 0 00 070754 		CAME	10,[076543,,654321]	;PASS IF C(E) UNCHANGED
 40212						STOP^
 40213	055661	254 04 0 00 055662 		HALT	.+1		;TEST FAILED IF PROGRAM HALTS HERE
 40214	055662	324 00 0 00 055663 		JUMPA	.+1		;IF TEST FAILS, CHANGE THIS INSTRUCTION (JUMPA .+1) TO
 40215									;JUMPA X (X IS THE ADDRESS OF THE FIRST INSTRUCTION
 40216									;IN THE SUBTEST) TO LOOP ON ERROR^
 40217
 40218					;**********
 40219
 40220					;THIS TEST VERIFIES THAT TSCA COMPLEMENTS ALL BITS OF THE AC WHICH
 40221					;CORRESPOND TO 1'S IN C(E) WITH BOTH HALVES SWAPPED AND ALWAYS
 40222					;SKIPS THE NEXT INSTRUCTION.  C(E) IS NOT AFFECTED
 40223					;IN THIS CASE, C(AC)=123456,,701234 AND C(E)=701234,,123456
 40224					;HENCE, TSCA SHOULD ALWAYS SKIP AND C(AC) SHOULD BE 0
 40225
 40226	055663	200 06 0 00 070745 	C74210:	MOVE	6,[123456,,701234]	;PRELOAD AC WITH 123456,,701234
 40227	055664	200 07 0 00 070771 		MOVE	7,[701234,,123456]	;PRELOAD E WITH 701234,,123456
 40228	055665	655 06 0 00 000007 		TSCA	6,7			;*TSCA SHOULD SKIP AND
 40229										;PLACE 0 INTO THE AC
 40230						STOP^
 40231	055666	254 04 0 00 055667 		HALT	.+1		;TEST FAILED IF PROGRAM HALTS HERE
 40232	055667	324 00 0 00 055670 		JUMPA	.+1		;IF TEST FAILS, CHANGE THIS INSTRUCTION (JUMPA .+1) TO
 40233									;JUMPA X (X IS THE ADDRESS OF THE FIRST INSTRUCTION
 40234									;IN THE SUBTEST) TO LOOP ON ERROR^
 40235	055670	312 06 0 00 070253 		CAME	6,[0]			;PASS IF C(AC)=0
 40236						STOP^
 40237	055671	254 04 0 00 055672 		HALT	.+1		;TEST FAILED IF PROGRAM HALTS HERE
 40238	055672	324 00 0 00 055673 		JUMPA	.+1		;IF TEST FAILS, CHANGE THIS INSTRUCTION (JUMPA .+1) TO
 40239									;JUMPA X (X IS THE ADDRESS OF THE FIRST INSTRUCTION
 40240									;IN THE SUBTEST) TO LOOP ON ERROR^
 40241	055673	312 07 0 00 070771 		CAME	7,[701234,,123456]	;PASS IF C(E) UNCHANGED
 40242						STOP^
 40243	055674	254 04 0 00 055675 		HALT	.+1		;TEST FAILED IF PROGRAM HALTS HERE
 40244	055675	324 00 0 00 055676 		JUMPA	.+1		;IF TEST FAILS, CHANGE THIS INSTRUCTION (JUMPA .+1) TO
DFKAA PDP-10 KL10 BASIC INSTRUCTION DIAGNOSTIC (1) VER 0,2	MACRO %53B(1254)-4 11:50 11-Nov-24 Page 85-1
DFKAA6	MAC	13-Jan-89 10:22		TEST OF MSCL LOGICAL TEST INSTRUCTIONS

 40245									;JUMPA X (X IS THE ADDRESS OF THE FIRST INSTRUCTION
 40246									;IN THE SUBTEST) TO LOOP ON ERROR^
 40247
 40248					;**********
DFKAA PDP-10 KL10 BASIC INSTRUCTION DIAGNOSTIC (1) VER 0,2	MACRO %53B(1254)-4 11:50 11-Nov-24 Page 86
DFKAA6	MAC	13-Jan-89 10:22		TEST OF MSCL LOGICAL TEST INSTRUCTIONS

 40249					;THIS TEST VERIFIES THAT TDCN SKIPS THE NEXT SEQUENTIAL INSTRUCTION
 40250					;IF AND ONLY IF NOT ALL BITS IN THE AC CORRESPONDING TO 1'S IN
 40251					;C(E) ARE ZERO.  THESE MASKED
 40252					;AC BITS ARE THEN COMPLEMENTED
 40253					;IN THE CASE, C(AC)=123456,,701234 AND C(E)=654321,,076547
 40254					;HENCE, TDCN SHOULD SKIP AND THE RESULT IN AC
 40255					;SHOULD BE -1,,777773 C(E) IS NOT AFFECTED
 40256
 40257	055676	200 05 0 00 070745 	C74300:	MOVE	5,[123456,,701234]	;PRELOAD AC WITH 123456,,701234
 40258	055677	200 06 0 00 070772 		MOVE	6,[654321,,76547]	;PRELOAD E WITH 654321,,076547
 40259	055700	656 05 0 00 000006 		TDCN	5,6			;*TDCN SHOULD SKIP AND
 40260										;PLACE -1,,777773 INTO THE AC
 40261						STOP^
 40262	055701	254 04 0 00 055702 		HALT	.+1		;TEST FAILED IF PROGRAM HALTS HERE
 40263	055702	324 00 0 00 055703 		JUMPA	.+1		;IF TEST FAILS, CHANGE THIS INSTRUCTION (JUMPA .+1) TO
 40264									;JUMPA X (X IS THE ADDRESS OF THE FIRST INSTRUCTION
 40265									;IN THE SUBTEST) TO LOOP ON ERROR^
 40266	055703	312 05 0 00 070335 		CAME	5,[-1,,777773]		;PASS IF C(AC)=-1,777773
 40267						STOP^
 40268	055704	254 04 0 00 055705 		HALT	.+1		;TEST FAILED IF PROGRAM HALTS HERE
 40269	055705	324 00 0 00 055706 		JUMPA	.+1		;IF TEST FAILS, CHANGE THIS INSTRUCTION (JUMPA .+1) TO
 40270									;JUMPA X (X IS THE ADDRESS OF THE FIRST INSTRUCTION
 40271									;IN THE SUBTEST) TO LOOP ON ERROR^
 40272	055706	312 06 0 00 070772 		CAME	6,[654321,,76547]	;PASS IF C(E) UNCHANGED
 40273						STOP^
 40274	055707	254 04 0 00 055710 		HALT	.+1		;TEST FAILED IF PROGRAM HALTS HERE
 40275	055710	324 00 0 00 055711 		JUMPA	.+1		;IF TEST FAILS, CHANGE THIS INSTRUCTION (JUMPA .+1) TO
 40276									;JUMPA X (X IS THE ADDRESS OF THE FIRST INSTRUCTION
 40277									;IN THE SUBTEST) TO LOOP ON ERROR^
 40278
 40279					;**********
 40280
 40281					;THIS TEST VERIFIES THAT TDCN SKIPS THE NEXT SEQUENTIAL INSTRUCTION
 40282					;IF AND ONLY IF NOT ALL BITS IN THE AC CORRESPONDING TO 1'S IN
 40283					;C(E) ARE ZERO.  THESE MASKED
 40284					;AC BITS ARE THEN COMPLEMENTED
 40285					;IN THIS CASE, C(AC)=123456,,701234 AND C(E)=654321,,076543
 40286					;HENCE, TDCN SHOULD NOT SKIP AND THE REUSLT IN AC
 40287					;SHOULD BE -1,,-1 C(E) IS NOT AFFECTED
 40288
 40289	055711	200 04 0 00 070745 	C74310:	MOVE	4,[123456,,701234]	;PRELOAD AC WITH 123456,,701234
 40290	055712	200 05 0 00 070763 		MOVE	5,[654321,,76543]	;PRELOAD E WITH 654321,,076543
 40291	055713	656 04 0 00 000005 		TDCN	4,5			;*TDCN SHOULD NOT SKIP AND
 40292										;PLACE -1,,-1 INTO THE AC
 40293	055714	334 00 0 00 000000 		SKIPA				;PASS IF TDCN DOES NOT SKIP
 40294						STOP^
 40295	055715	254 04 0 00 055716 		HALT	.+1		;TEST FAILED IF PROGRAM HALTS HERE
 40296	055716	324 00 0 00 055717 		JUMPA	.+1		;IF TEST FAILS, CHANGE THIS INSTRUCTION (JUMPA .+1) TO
 40297									;JUMPA X (X IS THE ADDRESS OF THE FIRST INSTRUCTION
 40298									;IN THE SUBTEST) TO LOOP ON ERROR^
 40299	055717	312 04 0 00 070254 		CAME	4,[-1]			;PASS IF C(AC)=-1,,-1
 40300						STOP^
 40301	055720	254 04 0 00 055721 		HALT	.+1		;TEST FAILED IF PROGRAM HALTS HERE
 40302	055721	324 00 0 00 055722 		JUMPA	.+1		;IF TEST FAILS, CHANGE THIS INSTRUCTION (JUMPA .+1) TO
 40303									;JUMPA X (X IS THE ADDRESS OF THE FIRST INSTRUCTION
DFKAA PDP-10 KL10 BASIC INSTRUCTION DIAGNOSTIC (1) VER 0,2	MACRO %53B(1254)-4 11:50 11-Nov-24 Page 86-1
DFKAA6	MAC	13-Jan-89 10:22		TEST OF MSCL LOGICAL TEST INSTRUCTIONS

 40304									;IN THE SUBTEST) TO LOOP ON ERROR^
 40305	055722	312 05 0 00 070763 		CAME	5,[654321,,76543]	;PASS IF C(E) UNCHANGED
 40306						STOP^
 40307	055723	254 04 0 00 055724 		HALT	.+1		;TEST FAILED IF PROGRAM HALTS HERE
 40308	055724	324 00 0 00 055725 		JUMPA	.+1		;IF TEST FAILS, CHANGE THIS INSTRUCTION (JUMPA .+1) TO
 40309									;JUMPA X (X IS THE ADDRESS OF THE FIRST INSTRUCTION
 40310									;IN THE SUBTEST) TO LOOP ON ERROR^
 40311
 40312					;**********
DFKAA PDP-10 KL10 BASIC INSTRUCTION DIAGNOSTIC (1) VER 0,2	MACRO %53B(1254)-4 11:50 11-Nov-24 Page 87
DFKAA6	MAC	13-Jan-89 10:22		TEST OF MSCL LOGICAL TEST INSTRUCTIONS

 40313					;THIS TEST VERIFIES THAT TSCN SKIPS THE NEXT SEQUENTIAL INSTRUCTION
 40314					;IF AND ONLY IF NOT ALL BITS IN THE AC CORRESPONDING TO 1'S IN
 40315					;C(E) WITH BOTH HALVES SWAPPED ARE ZERO.  THESE MASKED
 40316					;AC BITS ARE THEN COMPLEMENTED
 40317					;IN THIS CASE, C(AC)=123456,,701234 AND C(E)=077543,,654321
 40318					;HENCE, TSCN SHOULD SKIP AND THE RESULT IN AC
 40319					;SHOULD BE -1,,776777.  C(E) IS NOT AFFECTED
 40320
 40321	055725	200 03 0 00 070745 	C74400:	MOVE	3,[123456,,701234]	;PRELOAD AC WITH 123456,,701234
 40322	055726	200 04 0 00 070774 		MOVE	4,[77543,,654321]	;PRELOAD E WITH 077543,,654321
 40323	055727	657 03 0 00 000004 		TSCN	3,4			;*TSCN SHOULD SKIP AND
 40324										;PLACE -1,,776777 INTO THE AC
 40325						STOP^
 40326	055730	254 04 0 00 055731 		HALT	.+1		;TEST FAILED IF PROGRAM HALTS HERE
 40327	055731	324 00 0 00 055732 		JUMPA	.+1		;IF TEST FAILS, CHANGE THIS INSTRUCTION (JUMPA .+1) TO
 40328									;JUMPA X (X IS THE ADDRESS OF THE FIRST INSTRUCTION
 40329									;IN THE SUBTEST) TO LOOP ON ERROR^
 40330	055732	312 03 0 00 070344 		CAME	3,[-1,,776777]		;PASS IF C(AC)=-1,776777
 40331						STOP^
 40332	055733	254 04 0 00 055734 		HALT	.+1		;TEST FAILED IF PROGRAM HALTS HERE
 40333	055734	324 00 0 00 055735 		JUMPA	.+1		;IF TEST FAILS, CHANGE THIS INSTRUCTION (JUMPA .+1) TO
 40334									;JUMPA X (X IS THE ADDRESS OF THE FIRST INSTRUCTION
 40335									;IN THE SUBTEST) TO LOOP ON ERROR^
 40336	055735	312 04 0 00 070774 		CAME	4,[77543,,654321]	;PASS IF C(E) UNCHANGED
 40337						STOP^
 40338	055736	254 04 0 00 055737 		HALT	.+1		;TEST FAILED IF PROGRAM HALTS HERE
 40339	055737	324 00 0 00 055740 		JUMPA	.+1		;IF TEST FAILS, CHANGE THIS INSTRUCTION (JUMPA .+1) TO
 40340									;JUMPA X (X IS THE ADDRESS OF THE FIRST INSTRUCTION
 40341									;IN THE SUBTEST) TO LOOP ON ERROR^
 40342
 40343					;**********
 40344
 40345					;THIS TEST VERIFIES THAT TSCN SKIPS THE NEXT SEQUENTIAL INSTRUCTION
 40346					;IF AND ONLY IF NOT ALL BITS IN THE AC CORRESPONDING TO 1'S IN
 40347					;C(E) WITH BOTH HALVES SWAPPED ARE ZERO.  THESE MASKED
 40348					;AC BITS ARE THEN COMPLEMENTD
 40349					;IN THIS CASE, C(AC)=123456,,701234 AND C(E)=076543,,654321
 40350					;HENCE, TSCN SHOULD NOT SKIP AND THE RESULT IN AC
 40351					;SHOULD BE -1,,-1.  C(E) IS NOT AFFECTED.
 40352
 40353	055740	200 02 0 00 070745 	C74410:	MOVE	2,[123456,,701234]	;PRELOAD AC WITH 123456,,701234
 40354	055741	200 03 0 00 070754 		MOVE	3,[76543,,654321]	;PRELOAD E WITH 076543,,654321
 40355	055742	657 02 0 00 000003 		TSCN	2,3			;*TSCN SHOULD NOT SKIP AND
 40356										;PLACE -1,,-1 INTO THE AC
 40357	055743	334 00 0 00 000000 		SKIPA				;PASS IF TSCN DOES NOT SKIP
 40358						STOP^
 40359	055744	254 04 0 00 055745 		HALT	.+1		;TEST FAILED IF PROGRAM HALTS HERE
 40360	055745	324 00 0 00 055746 		JUMPA	.+1		;IF TEST FAILS, CHANGE THIS INSTRUCTION (JUMPA .+1) TO
 40361									;JUMPA X (X IS THE ADDRESS OF THE FIRST INSTRUCTION
 40362									;IN THE SUBTEST) TO LOOP ON ERROR^
 40363	055746	312 02 0 00 070254 		CAME	2,[-1]			;PASS IF C(AC)=-1,,-1
 40364						STOP^
 40365	055747	254 04 0 00 055750 		HALT	.+1		;TEST FAILED IF PROGRAM HALTS HERE
 40366	055750	324 00 0 00 055751 		JUMPA	.+1		;IF TEST FAILS, CHANGE THIS INSTRUCTION (JUMPA .+1) TO
 40367									;JUMPA X (X IS THE ADDRESS OF THE FIRST INSTRUCTION
DFKAA PDP-10 KL10 BASIC INSTRUCTION DIAGNOSTIC (1) VER 0,2	MACRO %53B(1254)-4 11:50 11-Nov-24 Page 87-1
DFKAA6	MAC	13-Jan-89 10:22		TEST OF MSCL LOGICAL TEST INSTRUCTIONS

 40368									;IN THE SUBTEST) TO LOOP ON ERROR^
 40369	055751	312 03 0 00 070754 		CAME	3,[76543,,654321]	;PASS IF C(E) UNCHANGED
 40370						STOP^
 40371	055752	254 04 0 00 055753 		HALT	.+1		;TEST FAILED IF PROGRAM HALTS HERE
 40372	055753	324 00 0 00 055754 		JUMPA	.+1		;IF TEST FAILS, CHANGE THIS INSTRUCTION (JUMPA .+1) TO
 40373									;JUMPA X (X IS THE ADDRESS OF THE FIRST INSTRUCTION
 40374									;IN THE SUBTEST) TO LOOP ON ERROR^
 40375
 40376					;**********
DFKAA PDP-10 KL10 BASIC INSTRUCTION DIAGNOSTIC (1) VER 0,2	MACRO %53B(1254)-4 11:50 11-Nov-24 Page 88
DFKAA6	MAC	13-Jan-89 10:22		TEST OF MSCL LOGICAL TEST INSTRUCTIONS

 40377					;THIS TEST VERIFIES THAT TRO CHANGES ALL BITS IN THE AC-RIGHT WHICH
 40378					;CORRESPOND TO 1'S IN E TO ONES AND DOES ANT SKIP
 40379					;IN THIS CASE, C(AC)=123456,,701234 AND E=3
 40380					;HENCE, THE RESULT IN THE AC SHOULD BE 123456,,701237
 40381
 40382	055754	200 01 0 00 070745 	C74500:	MOVE	1,[123456,,701234]	;PRELOAD AC WITH 123456,,701234
 40383	055755	660 01 0 00 000003 		TRO	1,3			;*TRO SHOULD NOT SKIP AND
 40384										;PLACE 123456,,701237 INTO THE AC
 40385	055756	334 00 0 00 000000 		SKIPA				;PASS IF TRO DID NOT SKIP
 40386						STOP^
 40387	055757	254 04 0 00 055760 		HALT	.+1		;TEST FAILED IF PROGRAM HALTS HERE
 40388	055760	324 00 0 00 055761 		JUMPA	.+1		;IF TEST FAILS, CHANGE THIS INSTRUCTION (JUMPA .+1) TO
 40389									;JUMPA X (X IS THE ADDRESS OF THE FIRST INSTRUCTION
 40390									;IN THE SUBTEST) TO LOOP ON ERROR^
 40391	055761	312 01 0 00 070776 		CAME	1,[123456,,701237]	;PASS IF C(AC)=123456,,701237
 40392						STOP^
 40393	055762	254 04 0 00 055763 		HALT	.+1		;TEST FAILED IF PROGRAM HALTS HERE
 40394	055763	324 00 0 00 055764 		JUMPA	.+1		;IF TEST FAILS, CHANGE THIS INSTRUCTION (JUMPA .+1) TO
 40395									;JUMPA X (X IS THE ADDRESS OF THE FIRST INSTRUCTION
 40396									;IN THE SUBTEST) TO LOOP ON ERROR^
 40397
 40398					;**********
 40399
 40400					;THIS TEST VERIFIES THAT TRO CHANGES ALL BITS IN THE AC-RIGHT WHICH
 40401					;CORRESPOND TO 1'S IN E TO ONES AND DOES NOT SKIP
 40402					;IN THIS CASE, C(AC)=123456,,701234 AND E=300
 40403					;HENCE, THE RESULT IN THE AC SHOULD BE 123456,,701224
 40404
 40405	055764	200 00 0 00 070745 	C74510:	MOVE	0,[123456,,701234]	;PRELOAD AC WITH 123456,,701234
 40406	055765	660 00 0 00 000300 		TRO	0,300			;*TRO SHOULD NOT SKIP AND
 40407										;PLACE 123456,,701334 INTO THE AC
 40408	055766	334 00 0 00 000000 		SKIPA				;PASS IF TRO DID NOT SKIP
 40409						STOP^
 40410	055767	254 04 0 00 055770 		HALT	.+1		;TEST FAILED IF PROGRAM HALTS HERE
 40411	055770	324 00 0 00 055771 		JUMPA	.+1		;IF TEST FAILS, CHANGE THIS INSTRUCTION (JUMPA .+1) TO
 40412									;JUMPA X (X IS THE ADDRESS OF THE FIRST INSTRUCTION
 40413									;IN THE SUBTEST) TO LOOP ON ERROR^
 40414	055771	312 00 0 00 071005 		CAME	0,[123456,,701334]	;PASS IF C(AC)=123456,,701334
 40415						STOP^
 40416	055772	254 04 0 00 055773 		HALT	.+1		;TEST FAILED IF PROGRAM HALTS HERE
 40417	055773	324 00 0 00 055774 		JUMPA	.+1		;IF TEST FAILS, CHANGE THIS INSTRUCTION (JUMPA .+1) TO
 40418									;JUMPA X (X IS THE ADDRESS OF THE FIRST INSTRUCTION
 40419									;IN THE SUBTEST) TO LOOP ON ERROR^
 40420
 40421					;**********
DFKAA PDP-10 KL10 BASIC INSTRUCTION DIAGNOSTIC (1) VER 0,2	MACRO %53B(1254)-4 11:50 11-Nov-24 Page 89
DFKAA6	MAC	13-Jan-89 10:22		TEST OF MSCL LOGICAL TEST INSTRUCTIONS

 40422					;THIS TEST VERIFIES THAT TLO CHANGES ALL BITS IN THE AC-LEFT WHICH
 40423					;CORRESPOND TO 1'S IN E TO ONES AND DOES NOT SKIP
 40424					;IN THIS CASE, C(AC)=123456,,701234 AND E=300
 40425					;HENCE, THE RESULT IN THE AC SHOULD BE 123756,,701234
 40426
 40427	055774	200 17 0 00 070745 	C74600:	MOVE	17,[123456,,701234]	;PRELOAD AC WITH 123456,,701234
 40428	055775	661 17 0 00 000300 		TLO	17,300			;*TLO SHOULD NOT SKIP AND
 40429										;PLACE 123756,,701234 INTO THE AC
 40430	055776	334 00 0 00 000000 		SKIPA				;PASS IF TLO DID NOT SKIP
 40431						STOP^
 40432	055777	254 04 0 00 056000 		HALT	.+1		;TEST FAILED IF PROGRAM HALTS HERE
 40433	056000	324 00 0 00 056001 		JUMPA	.+1		;IF TEST FAILS, CHANGE THIS INSTRUCTION (JUMPA .+1) TO
 40434									;JUMPA X (X IS THE ADDRESS OF THE FIRST INSTRUCTION
 40435									;IN THE SUBTEST) TO LOOP ON ERROR^
 40436	056001	312 17 0 00 071000 		CAME	17,[123756,,701234]	;PASS IF C(AC)=123456,,701234
 40437						STOP^
 40438	056002	254 04 0 00 056003 		HALT	.+1		;TEST FAILED IF PROGRAM HALTS HERE
 40439	056003	324 00 0 00 056004 		JUMPA	.+1		;IF TEST FAILS, CHANGE THIS INSTRUCTION (JUMPA .+1) TO
 40440									;JUMPA X (X IS THE ADDRESS OF THE FIRST INSTRUCTION
 40441									;IN THE SUBTEST) TO LOOP ON ERROR^
 40442
 40443					;**********
 40444
 40445					;THIS TEST VERIFIES THAT TLO CHANGES ALL BITS IN THE AC-LEFT WHICH
 40446					;CORRESPOND TO 1'S IN E TO ONES AND DOES NOT SKIP
 40447					;IN THIS CASE, C(AC)=123456,,701234 AND E=3
 40448					;HENCE, THE RESULT IN THE AC SHOULD BE 123457,,701234
 40449
 40450	056004	200 16 0 00 071006 	C74610:	MOVE	16,[123456,,70234]	;PRELOAD AC WITH 123456,,701234
 40451	056005	661 16 0 00 000003 		TLO	16,3			;*TLO SHOULD NOT SKIP AND
 40452										;PLACE 123457,,701234 INTO THE AC
 40453	056006	334 00 0 00 000000 		SKIPA				;PASS IF DID NOT SKIP
 40454						STOP^
 40455	056007	254 04 0 00 056010 		HALT	.+1		;TEST FAILED IF PROGRAM HALTS HERE
 40456	056010	324 00 0 00 056011 		JUMPA	.+1		;IF TEST FAILS, CHANGE THIS INSTRUCTION (JUMPA .+1) TO
 40457									;JUMPA X (X IS THE ADDRESS OF THE FIRST INSTRUCTION
 40458									;IN THE SUBTEST) TO LOOP ON ERROR^
 40459	056011	312 16 0 00 071007 		CAME	16,[123457,,70234]	;PASS IF C(AC)=123457,,701234
 40460						STOP^
 40461	056012	254 04 0 00 056013 		HALT	.+1		;TEST FAILED IF PROGRAM HALTS HERE
 40462	056013	324 00 0 00 056014 		JUMPA	.+1		;IF TEST FAILS, CHANGE THIS INSTRUCTION (JUMPA .+1) TO
 40463									;JUMPA X (X IS THE ADDRESS OF THE FIRST INSTRUCTION
 40464									;IN THE SUBTEST) TO LOOP ON ERROR^
 40465
 40466					;**********
DFKAA PDP-10 KL10 BASIC INSTRUCTION DIAGNOSTIC (1) VER 0,2	MACRO %53B(1254)-4 11:50 11-Nov-24 Page 90
DFKAA6	MAC	13-Jan-89 10:22		TEST OF MSCL LOGICAL TEST INSTRUCTIONS

 40467					;THIS TEST VERIFIES THAT TROE SKIPS THE NEXT SEQUENTIAL INSTRUCTION
 40468					;IF AND ONLY IF ALL BITS IN AC-RIGHT CORRESPONDING TO 1'S IN E ARE ZERO.
 40469					;THESE MASKED AC BITS ARE THEN CHANGED TO ONES
 40470					;IN THIS CASE, C(AC)=123456,,701234 AND E=3
 40471					;HENCE, TROE SHOULD SKIP THE NEXT SEQUENTIAL INSTRUCTION
 40472					;AND RESULT IN THE AC SHOUD BE 123456,,701237
 40473
 40474	056014	200 15 0 00 070745 	C74700:	MOVE	15,[123456,,701234]	;PRELOAD AC WITH 123456,,701234
 40475	056015	662 15 0 00 000003 		TROE	15,3			;TROE SHOULD SKIP AND
 40476										;PLACE 123456,,701237 IN TO THE AC
 40477						STOP^
 40478	056016	254 04 0 00 056017 		HALT	.+1		;TEST FAILED IF PROGRAM HALTS HERE
 40479	056017	324 00 0 00 056020 		JUMPA	.+1		;IF TEST FAILS, CHANGE THIS INSTRUCTION (JUMPA .+1) TO
 40480									;JUMPA X (X IS THE ADDRESS OF THE FIRST INSTRUCTION
 40481									;IN THE SUBTEST) TO LOOP ON ERROR^
 40482	056020	312 15 0 00 070776 		CAME	15,[123456,,701237]	;PASS IF C(AC)=123456,,701237
 40483						STOP^
 40484	056021	254 04 0 00 056022 		HALT	.+1		;TEST FAILED IF PROGRAM HALTS HERE
 40485	056022	324 00 0 00 056023 		JUMPA	.+1		;IF TEST FAILS, CHANGE THIS INSTRUCTION (JUMPA .+1) TO
 40486									;JUMPA X (X IS THE ADDRESS OF THE FIRST INSTRUCTION
 40487									;IN THE SUBTEST) TO LOOP ON ERROR^
 40488
 40489					;**********
 40490
 40491					;THIS TEST VERIFIES THAT TROE SKIPS THE NEXT SEQUENTIAL INSTRUCTION
 40492					;IF AND ONLY IF ALL BITS IN AC-RIGHT CORRESPONDING TO 1'S IN E ARE ZERO.
 40493					;THESE MASKED AC BITS ARE THEN CHANGED TO ONES
 40494					;IN THIS CASE, C(AC)=123456,,701234 AND E=300
 40495					;HENCE, TROE SHOULD NOT SKIP THE NEXT SEQUENTIAL INSTRUCTION
 40496					;AND THE RESULT IN THE AC SHOULD BE 123456,,701334
 40497
 40498	056023	200 14 0 00 070745 	C74710:	MOVE	14,[123456,,701234]	;PRELOAD AC WITH 123456,,701234
 40499	056024	662 14 0 00 000300 		TROE	14,300			;*TROE SHOULD NOT SKIP AND
 40500										;PLACE 123456,,701224 INTO THE AC
 40501	056025	334 00 0 00 000000 		SKIPA				;PASS IF DID NOT SKIP
 40502						STOP^
 40503	056026	254 04 0 00 056027 		HALT	.+1		;TEST FAILED IF PROGRAM HALTS HERE
 40504	056027	324 00 0 00 056030 		JUMPA	.+1		;IF TEST FAILS, CHANGE THIS INSTRUCTION (JUMPA .+1) TO
 40505									;JUMPA X (X IS THE ADDRESS OF THE FIRST INSTRUCTION
 40506									;IN THE SUBTEST) TO LOOP ON ERROR^
 40507	056030	312 14 0 00 071005 		CAME	14,[123456,,701334]	;PASS IF C(AC)=123456,,701334
 40508						STOP^
 40509	056031	254 04 0 00 056032 		HALT	.+1		;TEST FAILED IF PROGRAM HALTS HERE
 40510	056032	324 00 0 00 056033 		JUMPA	.+1		;IF TEST FAILS, CHANGE THIS INSTRUCTION (JUMPA .+1) TO
 40511									;JUMPA X (X IS THE ADDRESS OF THE FIRST INSTRUCTION
 40512									;IN THE SUBTEST) TO LOOP ON ERROR^
 40513
 40514					;**********
DFKAA PDP-10 KL10 BASIC INSTRUCTION DIAGNOSTIC (1) VER 0,2	MACRO %53B(1254)-4 11:50 11-Nov-24 Page 91
DFKAA6	MAC	13-Jan-89 10:22		TEST OF MSCL LOGICAL TEST INSTRUCTIONS

 40515					;THIS TEST VERIFIES THAT TLOE SKIPS THE NEXT SEQUENTIAL  INSTRUCTION
 40516					;IF AND ONLY IF ALL BITS IN AC-LEFT CORRESPONDING TO 1'S IN E ARE ZERO.
 40517					;THESE MASKED AC BITS ARE TEN CHANGED TO ONES
 40518					;IN THES CASE, C(AC)=123456,,701234 AND E=300
 40519					;HENCE, TLOE SHOULD SKIP THE NEXT SEQUENTIAL INSTRUCTION
 40520					;AND THE RESULT IN THE AC SHOULD BE 123756,,701234
 40521
 40522	056033	200 13 0 00 070745 	C75000:	MOVE	13,[123456,,701234]	;PRELOAD AC WITH 123456,,701234
 40523	056034	663 13 0 00 000300 		TLOE	13,300			;*TLOE SOULD SKIP AND
 40524										;PLAND 123756,,701234 INTO THE AC
 40525						STOP^
 40526	056035	254 04 0 00 056036 		HALT	.+1		;TEST FAILED IF PROGRAM HALTS HERE
 40527	056036	324 00 0 00 056037 		JUMPA	.+1		;IF TEST FAILS, CHANGE THIS INSTRUCTION (JUMPA .+1) TO
 40528									;JUMPA X (X IS THE ADDRESS OF THE FIRST INSTRUCTION
 40529									;IN THE SUBTEST) TO LOOP ON ERROR^
 40530	056037	312 13 0 00 071000 		CAME	13,[123756,,701234]	;PASS IF C(AC)=123456,,701234
 40531						STOP^
 40532	056040	254 04 0 00 056041 		HALT	.+1		;TEST FAILED IF PROGRAM HALTS HERE
 40533	056041	324 00 0 00 056042 		JUMPA	.+1		;IF TEST FAILS, CHANGE THIS INSTRUCTION (JUMPA .+1) TO
 40534									;JUMPA X (X IS THE ADDRESS OF THE FIRST INSTRUCTION
 40535									;IN THE SUBTEST) TO LOOP ON ERROR^
 40536
 40537					;********
 40538
 40539					;THIS TEST VERIFIES THAT TLOE SKIPS THE NEXT SEQUENTIAL INSTRUCTION
 40540					;IF AND ONLY IF ALL BITS IN AC-LEFT CORRESPONDING  TO 1'S IN E ARE ZERO.
 40541					;THESE MASKED AC BITS ARE THEN CHANGED TO ONES
 40542					;IN THIS CASE, C(AC)=123456,,701234 AND E=3
 40543					;HENCE, TLOE SHOULD NOT SKIP THE NEXT SEQUENTIAL INSTRUCTION
 40544					;AND THE RESULT IN THE AC SHOULD BE 123457,,701234
 40545
 40546	056042	200 12 0 00 070745 	C75010:	MOVE	12,[123456,,701234]	;PRELOAD AC WITH 123456,,701234
 40547	056043	663 12 0 00 000003 		TLOE	12,3			;*TLOE SHOULD NOT SKIP AND
 40548										;PLACE 123457,,701234 INTO THE AC
 40549	056044	334 00 0 00 000000 		SKIPA				;PASS IF TLOE DID NOT SKIP
 40550						STOP^
 40551	056045	254 04 0 00 056046 		HALT	.+1		;TEST FAILED IF PROGRAM HALTS HERE
 40552	056046	324 00 0 00 056047 		JUMPA	.+1		;IF TEST FAILS, CHANGE THIS INSTRUCTION (JUMPA .+1) TO
 40553									;JUMPA X (X IS THE ADDRESS OF THE FIRST INSTRUCTION
 40554									;IN THE SUBTEST) TO LOOP ON ERROR^
 40555	056047	312 12 0 00 071010 		CAME	12,[123457,,701234]	;PASS IF C(AC)=123457,,701234
 40556						STOP^
 40557	056050	254 04 0 00 056051 		HALT	.+1		;TEST FAILED IF PROGRAM HALTS HERE
 40558	056051	324 00 0 00 056052 		JUMPA	.+1		;IF TEST FAILS, CHANGE THIS INSTRUCTION (JUMPA .+1) TO
 40559									;JUMPA X (X IS THE ADDRESS OF THE FIRST INSTRUCTION
 40560									;IN THE SUBTEST) TO LOOP ON ERROR^
 40561
 40562					;*******
DFKAA PDP-10 KL10 BASIC INSTRUCTION DIAGNOSTIC (1) VER 0,2	MACRO %53B(1254)-4 11:50 11-Nov-24 Page 92
DFKAA6	MAC	13-Jan-89 10:22		TEST OF MSCL LOGICAL TEST INSTRUCTIONS

 40563					;THIS TEST VERIFIES THAT TROA ALWAYS SKIPS THE NEXT SEQUENTIAL INSTUCTION
 40564					;AND CHANGES ALL BITS IN AC-RIGHT WHICH CORRESPOND TO 1'S IN E TO ONES
 40565					;IN THIS CASE, C(AC)=123456,,701234 AND E=3
 40566					;HENCE, TROA SHOULD SKIP THE NEXT INSTRUCTION AND THE RESULT IN
 40567					;THE AC SHOULD BE 123456,,701237
 40568
 40569	056052	200 11 0 00 070745 	C75100:	MOVE	11,[123456,,701234]	;PRELOAD AC WITH 123456,,701234
 40570	056053	664 11 0 00 000003 		TROA	11,3			;*TROA SHOULD SKIP AND
 40571										;PLACE 123456,,701237
 40572						STOP^
 40573	056054	254 04 0 00 056055 		HALT	.+1		;TEST FAILED IF PROGRAM HALTS HERE
 40574	056055	324 00 0 00 056056 		JUMPA	.+1		;IF TEST FAILS, CHANGE THIS INSTRUCTION (JUMPA .+1) TO
 40575									;JUMPA X (X IS THE ADDRESS OF THE FIRST INSTRUCTION
 40576									;IN THE SUBTEST) TO LOOP ON ERROR^
 40577	056056	312 11 0 00 070776 		CAME	11,[123456,,701237]	;PASS IF C(AC)=123456,,701237
 40578						STOP^
 40579	056057	254 04 0 00 056060 		HALT	.+1		;TEST FAILED IF PROGRAM HALTS HERE
 40580	056060	324 00 0 00 056061 		JUMPA	.+1		;IF TEST FAILS, CHANGE THIS INSTRUCTION (JUMPA .+1) TO
 40581									;JUMPA X (X IS THE ADDRESS OF THE FIRST INSTRUCTION
 40582									;IN THE SUBTEST) TO LOOP ON ERROR^
 40583
 40584					;**********
 40585
 40586					;THIS TEST VERIFIES THAT TROA ALWAYS SKIPS THE NEXT SEQUENTAIL INSTRUCTION
 40587					;AND CHANGES ALL BITS IN AC-RIGHT WHICH CORRESPOND TO 1'S IN E TO ONES
 40588					;IN THIS CASE, C(AC)=123456,,701234 AND E=300
 40589					;HENCE, TROA SHOULD SKIP THE NEXT INSTRUCTION AND THE RESULT IN
 40590					;THE AC SHOULD BE 123456,,701334
 40591
 40592	056061	200 10 0 00 070745 	C75110:	MOVE	10,[123456,,701234]	;PRELOAD AC WITH 123456,,701234
 40593	056062	664 10 0 00 000300 		TROA	10,300			;*TROA SHOULD SKIP AND
 40594										;PLACE 123456,,701334 INTO THE AC
 40595						STOP^
 40596	056063	254 04 0 00 056064 		HALT	.+1		;TEST FAILED IF PROGRAM HALTS HERE
 40597	056064	324 00 0 00 056065 		JUMPA	.+1		;IF TEST FAILS, CHANGE THIS INSTRUCTION (JUMPA .+1) TO
 40598									;JUMPA X (X IS THE ADDRESS OF THE FIRST INSTRUCTION
 40599									;IN THE SUBTEST) TO LOOP ON ERROR^
 40600	056065	312 10 0 00 071005 		CAME	10,[123456,,701334]	;PASS IF C (AC)=123456,,701334
 40601						STOP^
 40602	056066	254 04 0 00 056067 		HALT	.+1		;TEST FAILED IF PROGRAM HALTS HERE
 40603	056067	324 00 0 00 056070 		JUMPA	.+1		;IF TEST FAILS, CHANGE THIS INSTRUCTION (JUMPA .+1) TO
 40604									;JUMPA X (X IS THE ADDRESS OF THE FIRST INSTRUCTION
 40605									;IN THE SUBTEST) TO LOOP ON ERROR^
 40606
 40607					;**********
DFKAA PDP-10 KL10 BASIC INSTRUCTION DIAGNOSTIC (1) VER 0,2	MACRO %53B(1254)-4 11:50 11-Nov-24 Page 93
DFKAA6	MAC	13-Jan-89 10:22		TEST OF MSCL LOGICAL TEST INSTRUCTIONS

 40608					;THIS TEST VERIFIES THAT TLOA ALWAYS SKIPS THE NEXT SEQUENTIAL INSTUCTION
 40609					;AND CHANGES ALL BITS IN AC-LEFT WHICH CORRESPOND 1'S IN E TO ONES
 40610					;IN THIS CASE, C(AC)=123456,,701234 AND E=3
 40611					;HENCE, TLOA SHOULD SKIP THE NEXT INSTRUCTION AND RESULT IN
 40612					;THE AC SHOULD BE 123457,,701234
 40613
 40614	056070	200 07 0 00 070745 	C75200:	MOVE	7,[123456,,701234]	;PRELOAD AC WITH 123456,,701234
 40615	056071	665 07 0 00 000003 		TLOA	7,3			;*TLOA SHOULD SKIP AND
 40616										;PLACE 123457,,701234 INTO THE AC
 40617						STOP^
 40618	056072	254 04 0 00 056073 		HALT	.+1		;TEST FAILED IF PROGRAM HALTS HERE
 40619	056073	324 00 0 00 056074 		JUMPA	.+1		;IF TEST FAILS, CHANGE THIS INSTRUCTION (JUMPA .+1) TO
 40620									;JUMPA X (X IS THE ADDRESS OF THE FIRST INSTRUCTION
 40621									;IN THE SUBTEST) TO LOOP ON ERROR^
 40622	056074	312 07 0 00 071010 		CAME	7,[123457,,701234]	;PASS IF C(AC)=123457,,701234]
 40623						STOP^
 40624	056075	254 04 0 00 056076 		HALT	.+1		;TEST FAILED IF PROGRAM HALTS HERE
 40625	056076	324 00 0 00 056077 		JUMPA	.+1		;IF TEST FAILS, CHANGE THIS INSTRUCTION (JUMPA .+1) TO
 40626									;JUMPA X (X IS THE ADDRESS OF THE FIRST INSTRUCTION
 40627									;IN THE SUBTEST) TO LOOP ON ERROR^
 40628
 40629					;**********
 40630
 40631					;THIS TEST VERIFIES THAT TLOA ALWAYS SKIPS THE NEXT SEQUENTIAL INSTRUCTION
 40632					;AND CHANGES ALL BITS IN AC-LEFT WHICH CORRESPOND TO 1'S IN E TO ONES
 40633					;IN THIS CASE, C(AC)=123456,,701234 AND E=300
 40634					;HENCE, TLOA SHOULD SKIP THE NEXT INSTRUCTION AND THE RESULT IN
 40635					;THE AC SHOULD BE 123756,,701234
 40636
 40637	056077	200 06 0 00 070745 	C75210:	MOVE	6,[123456,,701234]	;PRELOAD AC WITH 123456,,701234
 40638	056100	665 06 0 00 000300 		TLOA	6,300			;*TLOA SHOULD SKIP AND
 40639										;PLACE 123756,,701234 INTO THE AC
 40640						STOP^
 40641	056101	254 04 0 00 056102 		HALT	.+1		;TEST FAILED IF PROGRAM HALTS HERE
 40642	056102	324 00 0 00 056103 		JUMPA	.+1		;IF TEST FAILS, CHANGE THIS INSTRUCTION (JUMPA .+1) TO
 40643									;JUMPA X (X IS THE ADDRESS OF THE FIRST INSTRUCTION
 40644									;IN THE SUBTEST) TO LOOP ON ERROR^
 40645	056103	312 06 0 00 071000 		CAME	6,[123756,,701234]	;PASS IF C(AC)=123756,,701234
 40646						STOP^
 40647	056104	254 04 0 00 056105 		HALT	.+1		;TEST FAILED IF PROGRAM HALTS HERE
 40648	056105	324 00 0 00 056106 		JUMPA	.+1		;IF TEST FAILS, CHANGE THIS INSTRUCTION (JUMPA .+1) TO
 40649									;JUMPA X (X IS THE ADDRESS OF THE FIRST INSTRUCTION
 40650									;IN THE SUBTEST) TO LOOP ON ERROR^
 40651
 40652					;**********
DFKAA PDP-10 KL10 BASIC INSTRUCTION DIAGNOSTIC (1) VER 0,2	MACRO %53B(1254)-4 11:50 11-Nov-24 Page 94
DFKAA6	MAC	13-Jan-89 10:22		TEST OF MSCL LOGICAL TEST INSTRUCTIONS

 40653					;THIS TEST VERIFIES THAT TRON SKIPS THE NEXT SEQUENTIAL INSTRUCTION
 40654					;IF AND ONLY IF NOT ALL BITS IN AC-RIGHT CORRESPONDING TO 1'S IN E ARE ZERO.
 40655					;THESE MASKED AC BITS ARE THEN CHANGED TO ONES
 40656					;IN THIS CASE, C(AC)=123456,,701234 AND E=300
 40657					;HENCE, TRON SHOULD SKIP THE NEXT SEQUENTIAL INSTRUCTION
 40658					;AND THE RESULT IN THE AC SHOULD BE 123456,,701334
 40659
 40660	056106	200 05 0 00 070745 	C75300:	MOVE	5,[123456,,701234]	;PRELOAD AC WITH 123456,,701234
 40661	056107	666 05 0 00 000300 		TRON	5,300			;*TRON SHOULD SKIP AND
 40662										;PLACE 123456,,701334 INTO THE AC
 40663						STOP^
 40664	056110	254 04 0 00 056111 		HALT	.+1		;TEST FAILED IF PROGRAM HALTS HERE
 40665	056111	324 00 0 00 056112 		JUMPA	.+1		;IF TEST FAILS, CHANGE THIS INSTRUCTION (JUMPA .+1) TO
 40666									;JUMPA X (X IS THE ADDRESS OF THE FIRST INSTRUCTION
 40667									;IN THE SUBTEST) TO LOOP ON ERROR^
 40668	056112	312 05 0 00 071005 		CAME	5,[123456,,701334]	;PASS IF C(AC)=123456,,701334
 40669						STOP^
 40670	056113	254 04 0 00 056114 		HALT	.+1		;TEST FAILED IF PROGRAM HALTS HERE
 40671	056114	324 00 0 00 056115 		JUMPA	.+1		;IF TEST FAILS, CHANGE THIS INSTRUCTION (JUMPA .+1) TO
 40672									;JUMPA X (X IS THE ADDRESS OF THE FIRST INSTRUCTION
 40673									;IN THE SUBTEST) TO LOOP ON ERROR^
 40674
 40675					;**********
 40676
 40677					;THIS TEST VERIFIES THAT TRON SKIPS THE NEXT SEQUENTIAL INSTUCTION
 40678					;IF AND ONLY IF NOT ALL BITS IN AC-RIGHT CORRESPONDING TO 1'S IN E ARE ZERO.
 40679					;THESE MASKED AC BITS ARE THEN CHANGED TO ONES
 40680					;IN THIS CASE, C(AC)=123456,,701234 AND E=3
 40681					;HENCE, TRON SHOULD NOT SKIP THE NEXT SEQUENTIAL INSTRUCTION
 40682					;AND THE RESULT IN THE AC SHOULD BE 123456,,701237
 40683
 40684	056115	200 04 0 00 070745 	C75310:	MOVE	4,[123456,,701234]	;PRELOAD AC WITH 123456,,701234
 40685	056116	666 04 0 00 000003 		TRON	4,3			;*TRON SHOULD NOT  SKIP AND
 40686										;PLACE 123456,,701237 INTO THE AC
 40687	056117	334 00 0 00 000000 		SKIPA				;PASS IF TRON DID NOT SKIP
 40688						STOP^
 40689	056120	254 04 0 00 056121 		HALT	.+1		;TEST FAILED IF PROGRAM HALTS HERE
 40690	056121	324 00 0 00 056122 		JUMPA	.+1		;IF TEST FAILS, CHANGE THIS INSTRUCTION (JUMPA .+1) TO
 40691									;JUMPA X (X IS THE ADDRESS OF THE FIRST INSTRUCTION
 40692									;IN THE SUBTEST) TO LOOP ON ERROR^
 40693	056122	312 04 0 00 070776 		CAME	4,[123456,,701237]	;PASS IF C(AC)=123456,701237
 40694						STOP^
 40695	056123	254 04 0 00 056124 		HALT	.+1		;TEST FAILED IF PROGRAM HALTS HERE
 40696	056124	324 00 0 00 056125 		JUMPA	.+1		;IF TEST FAILS, CHANGE THIS INSTRUCTION (JUMPA .+1) TO
 40697									;JUMPA X (X IS THE ADDRESS OF THE FIRST INSTRUCTION
 40698									;IN THE SUBTEST) TO LOOP ON ERROR^
 40699
 40700					;**********
DFKAA PDP-10 KL10 BASIC INSTRUCTION DIAGNOSTIC (1) VER 0,2	MACRO %53B(1254)-4 11:50 11-Nov-24 Page 95
DFKAA6	MAC	13-Jan-89 10:22		TEST OF MSCL LOGICAL TEST INSTRUCTIONS

 40701					;THIS TEST VERIFIES THAT TLON SKIPS THE NEXT SEQUENTIAL INSTRUCTION
 40702					;IF AND ONLY IF NOT ALL BITS IN AC-LEFT CORRESPONDING TO 1'S IN E ARE ZERO.
 40703					;THESE MASKED AC BITS ARE THEN CHANGED TO ONES
 40704					;IN THIS CASE, C(AC)-123456,,701234 AND E=3
 40705					;HENCE, TLON SHOULD SKIP THE NEXT SEQUENTIAL INSTRUCTION
 40706					;AND THE RESULT IN THE AC SHOULD BE 123457,,701234
 40707
 40708	056125	200 03 0 00 070745 	C75400:	MOVE	3,[123456,,701234]	;PRELOAD AC WITH 123456,,701234
 40709	056126	667 03 0 00 000003 		TLON	3,3			;*TLON SHOULD SKIP AND
 40710										;PLACE 123457,,701234 INTO THE AC
 40711						STOP^
 40712	056127	254 04 0 00 056130 		HALT	.+1		;TEST FAILED IF PROGRAM HALTS HERE
 40713	056130	324 00 0 00 056131 		JUMPA	.+1		;IF TEST FAILS, CHANGE THIS INSTRUCTION (JUMPA .+1) TO
 40714									;JUMPA X (X IS THE ADDRESS OF THE FIRST INSTRUCTION
 40715									;IN THE SUBTEST) TO LOOP ON ERROR^
 40716	056131	312 03 0 00 071010 		CAME	3,[123457,,701234]	;PASS IF C(AC)=123457,,701234
 40717						STOP^
 40718	056132	254 04 0 00 056133 		HALT	.+1		;TEST FAILED IF PROGRAM HALTS HERE
 40719	056133	324 00 0 00 056134 		JUMPA	.+1		;IF TEST FAILS, CHANGE THIS INSTRUCTION (JUMPA .+1) TO
 40720									;JUMPA X (X IS THE ADDRESS OF THE FIRST INSTRUCTION
 40721									;IN THE SUBTEST) TO LOOP ON ERROR^
 40722
 40723					;*******
 40724
 40725					;THIS TEST VERIFIES THAT TLON SKIPS THE NEXT SEQUENTIAL INSTRUCTION
 40726					;IF AND ONLY IF NOT ALL BITS IN AC-LEFT CORRESPONDING TO 1'S IN E ARE ZERO.
 40727					;THESE MASKED AC BITS ARE THEN CHANGED TO ONES
 40728					;IN THIS CASE, C(AC)=123456,,701234 AND E=300
 40729					;HENCE, TLON SHOULD NOT SKIP THE NEXT SEQUENTIAL INSTRUCTION
 40730					;AND THE RESULT IN THE AC SHOULD BE 123756,,701234
 40731
 40732	056134	200 02 0 00 070745 	C75410:	MOVE	2,[123456,,701234]	;PRELOAD AC WITH 123456,,701234
 40733	056135	667 02 0 00 000300 		TLON	2,300			;*TLON SHOULD NOT SKIP AND
 40734										;PLACE 123756,,701234 INTO THE AC
 40735	056136	334 00 0 00 000000 		SKIPA				;PASS IF TLON DID NOT SKIP
 40736						STOP^
 40737	056137	254 04 0 00 056140 		HALT	.+1		;TEST FAILED IF PROGRAM HALTS HERE
 40738	056140	324 00 0 00 056141 		JUMPA	.+1		;IF TEST FAILS, CHANGE THIS INSTRUCTION (JUMPA .+1) TO
 40739									;JUMPA X (X IS THE ADDRESS OF THE FIRST INSTRUCTION
 40740									;IN THE SUBTEST) TO LOOP ON ERROR^
 40741	056141	312 02 0 00 071000 		CAME	2,[123756,,701234]	;PASS IF C(AC)=123756,,701234
 40742						STOP^
 40743	056142	254 04 0 00 056143 		HALT	.+1		;TEST FAILED IF PROGRAM HALTS HERE
 40744	056143	324 00 0 00 056144 		JUMPA	.+1		;IF TEST FAILS, CHANGE THIS INSTRUCTION (JUMPA .+1) TO
 40745									;JUMPA X (X IS THE ADDRESS OF THE FIRST INSTRUCTION
 40746									;IN THE SUBTEST) TO LOOP ON ERROR^
 40747
 40748					;**********
DFKAA PDP-10 KL10 BASIC INSTRUCTION DIAGNOSTIC (1) VER 0,2	MACRO %53B(1254)-4 11:50 11-Nov-24 Page 96
DFKAA6	MAC	13-Jan-89 10:22		TEST OF MSCL LOGICAL TEST INSTRUCTIONS

 40749					;THIS TEST VERIFIES THAT TDOE SKIPS THE NEXT SEQUENTIAL INSTRUCTION
 40750					;IF AND ONLY IF ALL BITS IN THE AC CORRESPONDING TO 1'S IN
 40751					;C(E)ARE ZERO.  THESE MASKED
 40752					;AC BITS ARE THEN CHANGED TO ONES
 40753					;IN THIS CASE, C(AC)=123456,,701234 AND C(E)=654321,,076543
 40754					;HENCE, TDOE SHOULD SKIP AND THE RESULT IN AC
 40755					;SHOULD BE -1,,-1  C(E) IS NOT AFFECTED
 40756
 40757	056144	200 01 0 00 070745 	C75500:	MOVE	1,[123456,,701234]	;PRELOAD AC WITH 123456,,701234
 40758	056145	200 02 0 00 070763 		MOVE	2,[654321,,076543]	;PRELOAD E WITH 654321,,076543
 40759	056146	672 01 0 00 000002 		TDOE	1,2			;*TDOE SHOULD SKIP AND
 40760										;PLACE -1,,-1 INTO THE AC
 40761						STOP^
 40762	056147	254 04 0 00 056150 		HALT	.+1		;TEST FAILED IF PROGRAM HALTS HERE
 40763	056150	324 00 0 00 056151 		JUMPA	.+1		;IF TEST FAILS, CHANGE THIS INSTRUCTION (JUMPA .+1) TO
 40764									;JUMPA X (X IS THE ADDRESS OF THE FIRST INSTRUCTION
 40765									;IN THE SUBTEST) TO LOOP ON ERROR^
 40766	056151	312 01 0 00 070254 		CAME	1,[-1]			;PASS IF C(AC)=-1,,-1
 40767						STOP^
 40768	056152	254 04 0 00 056153 		HALT	.+1		;TEST FAILED IF PROGRAM HALTS HERE
 40769	056153	324 00 0 00 056154 		JUMPA	.+1		;IF TEST FAILS, CHANGE THIS INSTRUCTION (JUMPA .+1) TO
 40770									;JUMPA X (X IS THE ADDRESS OF THE FIRST INSTRUCTION
 40771									;IN THE SUBTEST) TO LOOP ON ERROR^
 40772	056154	312 02 0 00 070763 		CAME	2,[654321,,76543]	;PASS IF C(E) UNCHANGED
 40773						STOP^
 40774	056155	254 04 0 00 056156 		HALT	.+1		;TEST FAILED IF PROGRAM HALTS HERE
 40775	056156	324 00 0 00 056157 		JUMPA	.+1		;IF TEST FAILS, CHANGE THIS INSTRUCTION (JUMPA .+1) TO
 40776									;JUMPA X (X IS THE ADDRESS OF THE FIRST INSTRUCTION
 40777									;IN THE SUBTEST) TO LOOP ON ERROR^
 40778
 40779					;**********
 40780
 40781					;THIS TEST VERIFIES THAT TDOE SKIPS THE NEXT SEQUENTAIL INSTRUCTION
 40782					;IF AND ONLY IF ALL BITS IN THE AC CORRESPONDING TO 1'S IN
 40783					;C(E) ARE ZERO.  THESE MASKED
 40784					;AC BITS ARE THEN CHANGED TO ONES
 40785					;IN THIS CASE, C(AC)=123456,,701234 AND C(E)=754321,,076543
 40786					;HENCE, TDOE SHOULD NOT SKIP AND THE RESULT IN AC
 40787					;SHOULD BE -1,,-1 C(E) IS NOT AFFECTD
 40788
 40789	056157	200 00 0 00 070745 	C75510:	MOVE	0,[123456,,701234]	;PRELOAD AC WITH 123456,,701234
 40790	056160	200 01 0 00 070764 		MOVE	1,[754321,,76543]	;PRELOAD E WITH 754321,,076543
 40791	056161	672 00 0 00 000001 		TDOE	0,1			;*TDOE SHOULD NOT SKIP AND
 40792										;PLACE -1,,-1 INTO THE AC
 40793	056162	334 00 0 00 000000 		SKIPA				;PASS IF TDOE DOES NOT SKIP
 40794						STOP^
 40795	056163	254 04 0 00 056164 		HALT	.+1		;TEST FAILED IF PROGRAM HALTS HERE
 40796	056164	324 00 0 00 056165 		JUMPA	.+1		;IF TEST FAILS, CHANGE THIS INSTRUCTION (JUMPA .+1) TO
 40797									;JUMPA X (X IS THE ADDRESS OF THE FIRST INSTRUCTION
 40798									;IN THE SUBTEST) TO LOOP ON ERROR^
 40799	056165	312 00 0 00 070254 		CAME	0,[-1]			;PASS IF C(AC)=-1,,-1
 40800						STOP^
 40801	056166	254 04 0 00 056167 		HALT	.+1		;TEST FAILED IF PROGRAM HALTS HERE
 40802	056167	324 00 0 00 056170 		JUMPA	.+1		;IF TEST FAILS, CHANGE THIS INSTRUCTION (JUMPA .+1) TO
 40803									;JUMPA X (X IS THE ADDRESS OF THE FIRST INSTRUCTION
DFKAA PDP-10 KL10 BASIC INSTRUCTION DIAGNOSTIC (1) VER 0,2	MACRO %53B(1254)-4 11:50 11-Nov-24 Page 96-1
DFKAA6	MAC	13-Jan-89 10:22		TEST OF MSCL LOGICAL TEST INSTRUCTIONS

 40804									;IN THE SUBTEST) TO LOOP ON ERROR^
 40805	056170	312 01 0 00 070764 		CAME	1,[754321,,76543]	;PASS IF C(E) UNCHANGED
 40806						STOP^
 40807	056171	254 04 0 00 056172 		HALT	.+1		;TEST FAILED IF PROGRAM HALTS HERE
 40808	056172	324 00 0 00 056173 		JUMPA	.+1		;IF TEST FAILS, CHANGE THIS INSTRUCTION (JUMPA .+1) TO
 40809									;JUMPA X (X IS THE ADDRESS OF THE FIRST INSTRUCTION
 40810									;IN THE SUBTEST) TO LOOP ON ERROR^
 40811
 40812					;**********
DFKAA PDP-10 KL10 BASIC INSTRUCTION DIAGNOSTIC (1) VER 0,2	MACRO %53B(1254)-4 11:50 11-Nov-24 Page 97
DFKAA6	MAC	13-Jan-89 10:22		TEST OF MSCL LOGICAL TEST INSTRUCTIONS

 40813					;THIS TEST VERIFIES THAT TSOE SKIPS THE NEXT SEQUENTIAL INSTRUCTION
 40814					;IF AND ONLY IF ALL BITS IN THE AC CORRESPONDING TO 1'S IN
 40815					;C(E) WITH BOTH HALVES SWAPPED ARE ZERO.  THESE MASKED
 40816					;AC BITS ARE THEN CHANGED TO ONES.
 40817					;IN THIS CASE, C(AC)=123456,,701234 AND C(E)=076543,,654321
 40818					;HENCE, TSOE SHOULD SKIP AND THE RESULT IN AC
 40819					;SHOULD BE -1,,-1.  C(E) IS NOT AFFECTED
 40820
 40821	056173	200 17 0 00 070745 	C75600:	MOVE	17,[123456,,701234]	;PRELOAD AC WITH 123456,,701234
 40822	056174	200 00 0 00 070754 		MOVE	0,[76543,,654321]	;PRELOAD E WITH 076543,,654321
 40823	056175	673 17 0 00 000000 		TSOE	17,0			;*TSOE SHOULD SKIP AND
 40824										;PLACE -1,,-1 INTO THE AC
 40825						STOP^
 40826	056176	254 04 0 00 056177 		HALT	.+1		;TEST FAILED IF PROGRAM HALTS HERE
 40827	056177	324 00 0 00 056200 		JUMPA	.+1		;IF TEST FAILS, CHANGE THIS INSTRUCTION (JUMPA .+1) TO
 40828									;JUMPA X (X IS THE ADDRESS OF THE FIRST INSTRUCTION
 40829									;IN THE SUBTEST) TO LOOP ON ERROR^
 40830	056200	312 17 0 00 070254 		CAME	17,[-1]			;PASS IF C(AC)=-1,,-1
 40831						STOP^
 40832	056201	254 04 0 00 056202 		HALT	.+1		;TEST FAILED IF PROGRAM HALTS HERE
 40833	056202	324 00 0 00 056203 		JUMPA	.+1		;IF TEST FAILS, CHANGE THIS INSTRUCTION (JUMPA .+1) TO
 40834									;JUMPA X (X IS THE ADDRESS OF THE FIRST INSTRUCTION
 40835									;IN THE SUBTEST) TO LOOP ON ERROR^
 40836	056203	312 00 0 00 070754 		CAME	0,[76543,,654321]	;PASS IF C(E) UNCHANGED
 40837						STOP^
 40838	056204	254 04 0 00 056205 		HALT	.+1		;TEST FAILED IF PROGRAM HALTS HERE
 40839	056205	324 00 0 00 056206 		JUMPA	.+1		;IF TEST FAILS, CHANGE THIS INSTRUCTION (JUMPA .+1) TO
 40840									;JUMPA X (X IS THE ADDRESS OF THE FIRST INSTRUCTION
 40841									;IN THE SUBTEST) TO LOOP ON ERROR^
 40842
 40843					;**********
 40844
 40845					;THIS TEST VERIFIES THAT TSOE SKIPS THE NEXT SEQUENTIAL INSTRUCTION
 40846					;IF AND ONLY IF ALL BITS IN THE AC CORRESPONDING TO 1'S IN
 40847					;C(E) WITH BOTH HALVES SWAPPED ARE ZERO.  THESE MASKED
 40848					;AC BITS ARE THEN  CHANGED TO ONES.
 40849					;IN THIS CASE, C(AC)=123456,,701234 AND C(E)=076543,,657321
 40850					;HENCE, TSOE SHOULD NOT SKIP AND THE RESULT IN THE AC
 40851					;SHOULD BE -1,,-1 C(E) IS NOT AFFECTED.
 40852
 40853	056206	200 16 0 00 070745 	C75610:	MOVE	16,[123456,,701234]	;PRELOAD AC WITH 123456,701234
 40854	056207	200 17 0 00 070766 		MOVE	17,[76543,,657321]	;PRELOAD E WITH 076543,,657321
 40855	056210	673 16 0 00 000017 		TSOE	16,17			;*TSOE SHOULD NOT SKIP AND
 40856										;*TSOE SHOULD NOT SKIP AND
 40857										;PLACE -1,,-1 INTO THE AC
 40858	056211	334 00 0 00 000000 		SKIPA				;PASS IF SKIP
 40859						STOP^
 40860	056212	254 04 0 00 056213 		HALT	.+1		;TEST FAILED IF PROGRAM HALTS HERE
 40861	056213	324 00 0 00 056214 		JUMPA	.+1		;IF TEST FAILS, CHANGE THIS INSTRUCTION (JUMPA .+1) TO
 40862									;JUMPA X (X IS THE ADDRESS OF THE FIRST INSTRUCTION
 40863									;IN THE SUBTEST) TO LOOP ON ERROR^
 40864	056214	312 16 0 00 070254 		CAME	16,[-1]			;PASS IF C(AC)=-1,,-1
 40865						STOP^
 40866	056215	254 04 0 00 056216 		HALT	.+1		;TEST FAILED IF PROGRAM HALTS HERE
 40867	056216	324 00 0 00 056217 		JUMPA	.+1		;IF TEST FAILS, CHANGE THIS INSTRUCTION (JUMPA .+1) TO
DFKAA PDP-10 KL10 BASIC INSTRUCTION DIAGNOSTIC (1) VER 0,2	MACRO %53B(1254)-4 11:50 11-Nov-24 Page 97-1
DFKAA6	MAC	13-Jan-89 10:22		TEST OF MSCL LOGICAL TEST INSTRUCTIONS

 40868									;JUMPA X (X IS THE ADDRESS OF THE FIRST INSTRUCTION
 40869									;IN THE SUBTEST) TO LOOP ON ERROR^
 40870	056217	312 17 0 00 070766 		CAME	17,[76543,,657321]	;PASS IF C(E) UNCHANGED
 40871						STOP^
 40872	056220	254 04 0 00 056221 		HALT	.+1		;TEST FAILED IF PROGRAM HALTS HERE
 40873	056221	324 00 0 00 056222 		JUMPA	.+1		;IF TEST FAILS, CHANGE THIS INSTRUCTION (JUMPA .+1) TO
 40874									;JUMPA X (X IS THE ADDRESS OF THE FIRST INSTRUCTION
 40875									;IN THE SUBTEST) TO LOOP ON ERROR^
 40876
 40877					;**********
DFKAA PDP-10 KL10 BASIC INSTRUCTION DIAGNOSTIC (1) VER 0,2	MACRO %53B(1254)-4 11:50 11-Nov-24 Page 98
DFKAA6	MAC	13-Jan-89 10:22		TEST OF MSCL LOGICAL TEST INSTRUCTIONS

 40878					;THIS TEST VERIFIES THAT TDOA PLACES ONES INTO ALL BITS OF THE AC WHICH
 40879					;CORRRESPOND TO 1'S IN C(E) AND ALWAYS
 40880					;SKIPS THE NEXT INSTRUCTION C(E) IS NOT AFFECTED
 40881					;IN THIS CASE, C(AC)=123456,,701234 AND C(E)= 654321,,076543
 40882					;HENCE, TDOA SHOULD ALWAYS SKIP AND C(AC) SHOULD BE -1,,-1
 40883
 40884	056222	200 15 0 00 070745 	C75700:	MOVE	15,[123456,,701234]	;PRELOAD AC WITH 123456,,701234
 40885	056223	200 16 0 00 070763 		MOVE	16,[654321,,076543]	;PRELOAD E WITH 654321,,076543
 40886	056224	674 15 0 00 000016 		TDOA	15,16			;*TDOA SHOULD SKIP AND
 40887										;PLACE -1,,-1 INTO THE AC
 40888						STOP^
 40889	056225	254 04 0 00 056226 		HALT	.+1		;TEST FAILED IF PROGRAM HALTS HERE
 40890	056226	324 00 0 00 056227 		JUMPA	.+1		;IF TEST FAILS, CHANGE THIS INSTRUCTION (JUMPA .+1) TO
 40891									;JUMPA X (X IS THE ADDRESS OF THE FIRST INSTRUCTION
 40892									;IN THE SUBTEST) TO LOOP ON ERROR^
 40893	056227	312 15 0 00 070254 		CAME	15,[-1]			;PASS IF C(AC)=-1,,-1
 40894						STOP^
 40895	056230	254 04 0 00 056231 		HALT	.+1		;TEST FAILED IF PROGRAM HALTS HERE
 40896	056231	324 00 0 00 056232 		JUMPA	.+1		;IF TEST FAILS, CHANGE THIS INSTRUCTION (JUMPA .+1) TO
 40897									;JUMPA X (X IS THE ADDRESS OF THE FIRST INSTRUCTION
 40898									;IN THE SUBTEST) TO LOOP ON ERROR^
 40899	056232	312 16 0 00 070763 		CAME	16,[654321,,076543]	;PASS IF C(E) UNCHANGED
 40900						STOP^
 40901	056233	254 04 0 00 056234 		HALT	.+1		;TEST FAILED IF PROGRAM HALTS HERE
 40902	056234	324 00 0 00 056235 		JUMPA	.+1		;IF TEST FAILS, CHANGE THIS INSTRUCTION (JUMPA .+1) TO
 40903									;JUMPA X (X IS THE ADDRESS OF THE FIRST INSTRUCTION
 40904									;IN THE SUBTEST) TO LOOP ON ERROR^
 40905
 40906					;**********
 40907
 40908					;THIS TEST VERIFIES THAT TDOA PLACE ONES ALL BIT OF THE AC WHICH
 40909					;CORRESPOND TO 1'S IN C(E) AND ALWAYS
 40910					;SKIPS THE NEXT INSTRUCTION C(E) IS NOT AFFECTED
 40911					;IN THIS CASE, C(AC)=123456,,701234 AND C(E)=252525,,707070
 40912					;HENCE, TDOA SHOULD ALWAYS SKIP AND C(AC) SHOULD BE 373577,,707274
 40913
 40914	056235	200 14 0 00 070745 	C75710:	MOVE	14,[123456,,701234]	;PRELOAD AC WITH 123456,,701234
 40915	056236	200 15 0 00 070761 		MOVE	15,[252525,,707070]	;PRELOAD E WITH 252525,,707070
 40916	056237	674 14 0 00 000015 		TDOA	14,15			;*TDOA SHOULD SKIP AND
 40917										;PLACE 373577,707274 ONTO THE AC
 40918						STOP^
 40919	056240	254 04 0 00 056241 		HALT	.+1		;TEST FAILED IF PROGRAM HALTS HERE
 40920	056241	324 00 0 00 056242 		JUMPA	.+1		;IF TEST FAILS, CHANGE THIS INSTRUCTION (JUMPA .+1) TO
 40921									;JUMPA X (X IS THE ADDRESS OF THE FIRST INSTRUCTION
 40922									;IN THE SUBTEST) TO LOOP ON ERROR^
 40923	056242	312 14 0 00 071011 		CAME	14,[373577,,707274]	;PASS IF C(AC)=373577,,707274
 40924						STOP^
 40925	056243	254 04 0 00 056244 		HALT	.+1		;TEST FAILED IF PROGRAM HALTS HERE
 40926	056244	324 00 0 00 056245 		JUMPA	.+1		;IF TEST FAILS, CHANGE THIS INSTRUCTION (JUMPA .+1) TO
 40927									;JUMPA X (X IS THE ADDRESS OF THE FIRST INSTRUCTION
 40928									;IN THE SUBTEST) TO LOOP ON ERROR^
 40929	056245	312 15 0 00 070761 		CAME	15,[252525,,707070]	;PASS IF C(E) UNCHANGED
 40930						STOP^
 40931	056246	254 04 0 00 056247 		HALT	.+1		;TEST FAILED IF PROGRAM HALTS HERE
 40932	056247	324 00 0 00 056250 		JUMPA	.+1		;IF TEST FAILS, CHANGE THIS INSTRUCTION (JUMPA .+1) TO
DFKAA PDP-10 KL10 BASIC INSTRUCTION DIAGNOSTIC (1) VER 0,2	MACRO %53B(1254)-4 11:50 11-Nov-24 Page 98-1
DFKAA6	MAC	13-Jan-89 10:22		TEST OF MSCL LOGICAL TEST INSTRUCTIONS

 40933									;JUMPA X (X IS THE ADDRESS OF THE FIRST INSTRUCTION
 40934									;IN THE SUBTEST) TO LOOP ON ERROR^
 40935
 40936					;**********
DFKAA PDP-10 KL10 BASIC INSTRUCTION DIAGNOSTIC (1) VER 0,2	MACRO %53B(1254)-4 11:50 11-Nov-24 Page 99
DFKAA6	MAC	13-Jan-89 10:22		TEST OF MSCL LOGICAL TEST INSTRUCTIONS

 40937					;THIS TEST VERIFIES THAT TSOA PLACE ONES INTO ALL BITS OF THE AC WHICH
 40938					;CORRESPOND TO 1'S IN C(E) WITH BOTH HALVES SWAPPED AND ALWAYS
 40939					;SKIPS THE NEXT INSTRUCTION.  C(E) IS NOT AFFECTED
 40940					;IN THIS CASE, C(AC)=123456,,701234 AND C(E)=076543,,654321
 40941					;HENCE, TSOA SHOULD SLAWAYS SKIP AND C(AC) SHOULD BE -1,,-1
 40942
 40943	056250	200 13 0 00 070745 	C76000:	MOVE	13,[123456,,701234]	;PRELOAD AC WITH 123456,,701234
 40944	056251	200 14 0 00 071012 		MOVE	14,[176543,,654321]	;PRELOAD E WITH 076543,,654321
 40945	056252	675 13 0 00 000014 		TSOA	13,14			;*TSOA SHOULD SKIP AND
 40946										;PLACE -1,,-1 ONTO THE AC
 40947						STOP^
 40948	056253	254 04 0 00 056254 		HALT	.+1		;TEST FAILED IF PROGRAM HALTS HERE
 40949	056254	324 00 0 00 056255 		JUMPA	.+1		;IF TEST FAILS, CHANGE THIS INSTRUCTION (JUMPA .+1) TO
 40950									;JUMPA X (X IS THE ADDRESS OF THE FIRST INSTRUCTION
 40951									;IN THE SUBTEST) TO LOOP ON ERROR^
 40952	056255	312 13 0 00 070254 		CAME	13,[-1]			;PASS IF C(AC)=-1,,-1
 40953						STOP^
 40954	056256	254 04 0 00 056257 		HALT	.+1		;TEST FAILED IF PROGRAM HALTS HERE
 40955	056257	324 00 0 00 056260 		JUMPA	.+1		;IF TEST FAILS, CHANGE THIS INSTRUCTION (JUMPA .+1) TO
 40956									;JUMPA X (X IS THE ADDRESS OF THE FIRST INSTRUCTION
 40957									;IN THE SUBTEST) TO LOOP ON ERROR^
 40958	056260	312 14 0 00 071012 		CAME	14,[176543,,654321]	;PASS IF C(E) UNCHANGED
 40959						STOP^
 40960	056261	254 04 0 00 056262 		HALT	.+1		;TEST FAILED IF PROGRAM HALTS HERE
 40961	056262	324 00 0 00 056263 		JUMPA	.+1		;IF TEST FAILS, CHANGE THIS INSTRUCTION (JUMPA .+1) TO
 40962									;JUMPA X (X IS THE ADDRESS OF THE FIRST INSTRUCTION
 40963									;IN THE SUBTEST) TO LOOP ON ERROR^
 40964
 40965					;**********
 40966
 40967					;THIS TEST VERIFIES THAT TSOA PLACES ONES INTO ALL BITS OF THE AC WHICH
 40968					;CORRESPOND TO 1'S IN C(E) WITH BOTH HALVES SWAPPED AND ALWAYS
 40969					;SKIPS THE NEXT INSTRUCTION.  C(E) IS NOT AFFECTED
 40970					;IN THIS CASE, C(AC)=123456,,701234 AND C(E)=701234,,123456
 40971					;HENCE, TSOA SHOULD SLWAYS SKIP AND C(AC) SHOULD BE 123456,,701234
 40972
 40973	056263	200 12 0 00 070745 	C76010:	MOVE	12,[123456,,701234]	;PRELOAD AC WITH 123456,,701234
 40974	056264	200 13 0 00 070771 		MOVE	13,[701234,,123456]	;PRELOAD E WITH 701234,123456
 40975	056265	675 12 0 00 000013 		TSOA	12,13			;*TSOA SHOULD SKIP AND
 40976										;PLACE 123456,,701234 INTO THE AC
 40977						STOP^
 40978	056266	254 04 0 00 056267 		HALT	.+1		;TEST FAILED IF PROGRAM HALTS HERE
 40979	056267	324 00 0 00 056270 		JUMPA	.+1		;IF TEST FAILS, CHANGE THIS INSTRUCTION (JUMPA .+1) TO
 40980									;JUMPA X (X IS THE ADDRESS OF THE FIRST INSTRUCTION
 40981									;IN THE SUBTEST) TO LOOP ON ERROR^
 40982	056270	312 12 0 00 070745 		CAME	12,[123456,,701234]	;PASS IF C(AC)=123456,,701234
 40983						STOP^
 40984	056271	254 04 0 00 056272 		HALT	.+1		;TEST FAILED IF PROGRAM HALTS HERE
 40985	056272	324 00 0 00 056273 		JUMPA	.+1		;IF TEST FAILS, CHANGE THIS INSTRUCTION (JUMPA .+1) TO
 40986									;JUMPA X (X IS THE ADDRESS OF THE FIRST INSTRUCTION
 40987									;IN THE SUBTEST) TO LOOP ON ERROR^
 40988	056273	312 13 0 00 070771 		CAME	13,[701234,,123456]	;PASS IF C(E) UNCHANGED
 40989						STOP^
 40990	056274	254 04 0 00 056275 		HALT	.+1		;TEST FAILED IF PROGRAM HALTS HERE
 40991	056275	324 00 0 00 056276 		JUMPA	.+1		;IF TEST FAILS, CHANGE THIS INSTRUCTION (JUMPA .+1) TO
DFKAA PDP-10 KL10 BASIC INSTRUCTION DIAGNOSTIC (1) VER 0,2	MACRO %53B(1254)-4 11:50 11-Nov-24 Page 99-1
DFKAA6	MAC	13-Jan-89 10:22		TEST OF MSCL LOGICAL TEST INSTRUCTIONS

 40992									;JUMPA X (X IS THE ADDRESS OF THE FIRST INSTRUCTION
 40993									;IN THE SUBTEST) TO LOOP ON ERROR^
 40994
 40995					;**********
DFKAA PDP-10 KL10 BASIC INSTRUCTION DIAGNOSTIC (1) VER 0,2	MACRO %53B(1254)-4 11:50 11-Nov-24 Page 100
DFKAA6	MAC	13-Jan-89 10:22		TEST OF MSCL LOGICAL TEST INSTRUCTIONS

 40996					;THIS TEST VERIFIES THAT TDON SKIPS THE NEXT SEQUENTIAL INSTRUCTION
 40997					;IF AND ONLY IF ALL BITS IN THE AC CORRESPONDING TO 1'S IN
 40998					;C(E) ARE ZERO.  THESE MASKED
 40999					;AC BITS ARE THEN CHANGED TO ONES
 41000					;IN THIS CASE, C(AC)=123456,,701234 AND C(E)=654321,,076547
 41001					;HENCE, TDON SHOULD SKIP AND THE RESULT IN AC
 41002					;SHOULD BE -1,,-1  C(E) IS NOT AFFECTED
 41003
 41004	056276	200 11 0 00 070745 	C76100:	MOVE	11,[123456,,701234]	;PRELOAD AC WITH 123456,,701234
 41005	056277	200 12 0 00 070772 		MOVE	12,[654321,,076547]	;PRELOAD E WITH 654321,,076547
 41006	056300	676 11 0 00 000012 		TDON	11,12			;*TDON SHOULD SKIP AND
 41007										;PLACE -1,,-1 INTO THE AC
 41008						STOP^
 41009	056301	254 04 0 00 056302 		HALT	.+1		;TEST FAILED IF PROGRAM HALTS HERE
 41010	056302	324 00 0 00 056303 		JUMPA	.+1		;IF TEST FAILS, CHANGE THIS INSTRUCTION (JUMPA .+1) TO
 41011									;JUMPA X (X IS THE ADDRESS OF THE FIRST INSTRUCTION
 41012									;IN THE SUBTEST) TO LOOP ON ERROR^
 41013	056303	312 11 0 00 070254 		CAME	11,[-1]			;PASS IF C(AC)=-1,,-1
 41014						STOP^
 41015	056304	254 04 0 00 056305 		HALT	.+1		;TEST FAILED IF PROGRAM HALTS HERE
 41016	056305	324 00 0 00 056306 		JUMPA	.+1		;IF TEST FAILS, CHANGE THIS INSTRUCTION (JUMPA .+1) TO
 41017									;JUMPA X (X IS THE ADDRESS OF THE FIRST INSTRUCTION
 41018									;IN THE SUBTEST) TO LOOP ON ERROR^
 41019	056306	312 12 0 00 070772 		CAME	12,[654321,,076547]	;PASS IF C(E) UNCHANGED
 41020						STOP^
 41021	056307	254 04 0 00 056310 		HALT	.+1		;TEST FAILED IF PROGRAM HALTS HERE
 41022	056310	324 00 0 00 056311 		JUMPA	.+1		;IF TEST FAILS, CHANGE THIS INSTRUCTION (JUMPA .+1) TO
 41023									;JUMPA X (X IS THE ADDRESS OF THE FIRST INSTRUCTION
 41024									;IN THE SUBTEST) TO LOOP ON ERROR^
 41025
 41026					;**********
 41027
 41028					;THIS TEST VERIFIES THAT TDON SKIPS THE NEXT SEQUENTIAL INSTRUCTION
 41029					;IF AND ONLY IF NOT ALL BITS IN THE AC CORRESPONDING TO 1'S IN
 41030					;C(E) ARE ZERO.  THESE MASKED
 41031					;AC BITS ARE THEN CHANGED TO ONES.
 41032					;IN THIS CASE, C(AC)=123456,,701234 AND C(E)=654321,,076543
 41033					;THENC, TDON SHOULD NOT SKIP AND THE RESULT IN TH AC
 41034					;SHOULD BE -1,,-1 C(E) IS NOT AFFECTED
 41035
 41036	056311	200 10 0 00 070745 	C76110:	MOVE	10,[123456,,701234]	;PRELOAD AC WITH 123456,,701234
 41037	056312	200 11 0 00 070763 		MOVE	11,[654321,,076543]	;PRELOAD E WITH 654321,,076543
 41038	056313	676 10 0 00 000011 		TDON	10,11			;*TDON SHOULD NOT SKIP AND
 41039										;PLACE -1,,-1 INTO THE AC
 41040	056314	334 00 0 00 000000 		SKIPA				;PASS IF TDON DOES NOT SKIP
 41041						STOP	^
 41042	056315	254 04 0 00 056316 		HALT	.+1		;TEST FAILED IF PROGRAM HALTS HERE
 41043	056316	324 00 0 00 056317 		JUMPA	.+1		;IF TEST FAILS, CHANGE THIS INSTRUCTION (JUMPA .+1) TO
 41044									;JUMPA X (X IS THE ADDRESS OF THE FIRST INSTRUCTION
 41045									;IN THE SUBTEST) TO LOOP ON ERROR^
 41046	056317	312 10 0 00 070254 		CAME	10,[-1]			;PASS IF C(AC)=-1,,-1
 41047						STOP^
 41048	056320	254 04 0 00 056321 		HALT	.+1		;TEST FAILED IF PROGRAM HALTS HERE
 41049	056321	324 00 0 00 056322 		JUMPA	.+1		;IF TEST FAILS, CHANGE THIS INSTRUCTION (JUMPA .+1) TO
 41050									;JUMPA X (X IS THE ADDRESS OF THE FIRST INSTRUCTION
DFKAA PDP-10 KL10 BASIC INSTRUCTION DIAGNOSTIC (1) VER 0,2	MACRO %53B(1254)-4 11:50 11-Nov-24 Page 100-1
DFKAA6	MAC	13-Jan-89 10:22		TEST OF MSCL LOGICAL TEST INSTRUCTIONS

 41051									;IN THE SUBTEST) TO LOOP ON ERROR^
 41052	056322	312 11 0 00 070763 		CAME	11,[654321,,076543]	;PASS IF C(E) UNCHANGED
 41053						STOP^
 41054	056323	254 04 0 00 056324 		HALT	.+1		;TEST FAILED IF PROGRAM HALTS HERE
 41055	056324	324 00 0 00 056325 		JUMPA	.+1		;IF TEST FAILS, CHANGE THIS INSTRUCTION (JUMPA .+1) TO
 41056									;JUMPA X (X IS THE ADDRESS OF THE FIRST INSTRUCTION
 41057									;IN THE SUBTEST) TO LOOP ON ERROR^
 41058
 41059					;**********
DFKAA PDP-10 KL10 BASIC INSTRUCTION DIAGNOSTIC (1) VER 0,2	MACRO %53B(1254)-4 11:50 11-Nov-24 Page 101
DFKAA6	MAC	13-Jan-89 10:22		TEST OF MSCL LOGICAL TEST INSTRUCTIONS

 41060					;THIS TEST VERIFIES THAT TSON SKIPS THE NEXT SEQUENTIAL INSTRUCTION
 41061					;IF AND ONLY IF NOT ALL BITS IN THE AC CORRESPONDING TO 1'S IN
 41062					;C(E) WITH BOTH HALVE SWAPPED ARE ZERO.  THESE MASKED
 41063					;AC BITS ARE THEN CHANGED TO ONES
 41064					;IN THIS CASE, C(AC)=123456,,701234 AND C(E)=077543,,654321
 41065					;HENCE, TSON SHOULD SKIP AND THE RESULT IN AC
 41066					;SHOULD BE -1,,-1  C(E) IS NOT AFFECTED
 41067
 41068	056325	200 07 0 00 070745 	C76200:	MOVE	7,[123456,,701234]	;PRELOAD AC WITH 123456,,701234
 41069	056326	200 10 0 00 070774 		MOVE	10,[77543,,654321]	;PRELOAD E WITH 077543,,654321]
 41070	056327	677 07 0 00 000010 		TSON	7,10			;*TSON HOULD SKIP AND
 41071										;PLACE -1,,-1 INTO THE AC
 41072						STOP^
 41073	056330	254 04 0 00 056331 		HALT	.+1		;TEST FAILED IF PROGRAM HALTS HERE
 41074	056331	324 00 0 00 056332 		JUMPA	.+1		;IF TEST FAILS, CHANGE THIS INSTRUCTION (JUMPA .+1) TO
 41075									;JUMPA X (X IS THE ADDRESS OF THE FIRST INSTRUCTION
 41076									;IN THE SUBTEST) TO LOOP ON ERROR^
 41077	056332	312 07 0 00 070254 		CAME	7,[-1]			;PASS IF C(AC)=-1,,-1
 41078						STOP^
 41079	056333	254 04 0 00 056334 		HALT	.+1		;TEST FAILED IF PROGRAM HALTS HERE
 41080	056334	324 00 0 00 056335 		JUMPA	.+1		;IF TEST FAILS, CHANGE THIS INSTRUCTION (JUMPA .+1) TO
 41081									;JUMPA X (X IS THE ADDRESS OF THE FIRST INSTRUCTION
 41082									;IN THE SUBTEST) TO LOOP ON ERROR^
 41083	056335	312 10 0 00 070774 		CAME	10,[77543,,654321]	;PASS IF C(E) UNCHANGED
 41084						STOP^
 41085	056336	254 04 0 00 056337 		HALT	.+1		;TEST FAILED IF PROGRAM HALTS HERE
 41086	056337	324 00 0 00 056340 		JUMPA	.+1		;IF TEST FAILS, CHANGE THIS INSTRUCTION (JUMPA .+1) TO
 41087									;JUMPA X (X IS THE ADDRESS OF THE FIRST INSTRUCTION
 41088									;IN THE SUBTEST) TO LOOP ON ERROR^
 41089
 41090					;**********
 41091
 41092					;THIS TEST VERIFIES THAT TSON SKIPS THE NEXT SEQUENTIAL INSTRUCTION
 41093					;IF AND ONLY IF NOT ALL BITS IN THE AC CORRESPONDING TO 1'S IN
 41094					;C(E) WITH BOTH HALVES SWAPPED ARE ZERO.  THESE MASKED
 41095					;AC BITS ARE THEN CHANGED TO ONES.
 41096					;IN THIS CASE, C(AC)=123456,,701234 AND C(E)=076543,,654321
 41097					;HENCE, TSON SHOULD NOT SKIP AND THE RESULT IN AC
 41098					;SHOULD BE -1,,-1  C(E) IS NOT AFFECTED
 41099
 41100	056340	200 06 0 00 070745 	C76210:	MOVE	6,[123456,,701234]	;PRELOAD AC WITH 123456,,701234
 41101	056341	200 07 0 00 070754 		MOVE	7,[76543,,654321]	;PRELOAD E WITH 076543MM654321
 41102	056342	677 06 0 00 000007 		TSON	6,7			;*TSON SHOULD NOT SKIP AND
 41103										;PLACE -1,,-1 INTO THE AC
 41104	056343	334 00 0 00 000000 		SKIPA				;PASS IF TSON DOES NOT SKIP
 41105						STOP^
 41106	056344	254 04 0 00 056345 		HALT	.+1		;TEST FAILED IF PROGRAM HALTS HERE
 41107	056345	324 00 0 00 056346 		JUMPA	.+1		;IF TEST FAILS, CHANGE THIS INSTRUCTION (JUMPA .+1) TO
 41108									;JUMPA X (X IS THE ADDRESS OF THE FIRST INSTRUCTION
 41109									;IN THE SUBTEST) TO LOOP ON ERROR^
 41110	056346	312 06 0 00 070254 		CAME	6,[-1]			;PASS IF C(AC)-=1,,-1
 41111						STOP^
 41112	056347	254 04 0 00 056350 		HALT	.+1		;TEST FAILED IF PROGRAM HALTS HERE
 41113	056350	324 00 0 00 056351 		JUMPA	.+1		;IF TEST FAILS, CHANGE THIS INSTRUCTION (JUMPA .+1) TO
 41114									;JUMPA X (X IS THE ADDRESS OF THE FIRST INSTRUCTION
DFKAA PDP-10 KL10 BASIC INSTRUCTION DIAGNOSTIC (1) VER 0,2	MACRO %53B(1254)-4 11:50 11-Nov-24 Page 101-1
DFKAA6	MAC	13-Jan-89 10:22		TEST OF MSCL LOGICAL TEST INSTRUCTIONS

 41115									;IN THE SUBTEST) TO LOOP ON ERROR^
 41116	056351	312 07 0 00 070754 		CAME	7,[76543,,654321]	;PASS IF C(E) UNCHANGED
 41117						STOP^
 41118	056352	254 04 0 00 056353 		HALT	.+1		;TEST FAILED IF PROGRAM HALTS HERE
 41119	056353	324 00 0 00 056354 		JUMPA	.+1		;IF TEST FAILS, CHANGE THIS INSTRUCTION (JUMPA .+1) TO
 41120									;JUMPA X (X IS THE ADDRESS OF THE FIRST INSTRUCTION
 41121									;IN THE SUBTEST) TO LOOP ON ERROR^
 41122
 41123					;**********
DFKAA PDP-10 KL10 BASIC INSTRUCTION DIAGNOSTIC (1) VER 0,2	MACRO %53B(1254)-4 11:50 11-Nov-24 Page 1
DFKAA7	MAC	13-Jan-89 10:22		TEST OF PUSH INSTRUCTION

 41124					SUBTTL	TEST OF PUSH INSTRUCTION
 41125
 41126					;**********
 41127
 41128					;THIS TEST VERIFIES THAT PUSH DECODES CORRECTLY.
 41129					;IF PUSH DECODES AS PUSHJ, THIS TEST FAILS.
 41130
 41131	056354	400 02 0 00 000000 	C27200:	SETZ	2,		;CLEAR AC
 41132	056355	261 02 0 00 056357 		PUSH	2,.+2		;*PUSH SHOULD NOT JUMP
 41133	056356	334 00 0 00 000000 		SKIPA			;PASS IF PUSH DID NOT JUMP
 41134						STOP^
 41135	056357	254 04 0 00 056360 		HALT	.+1		;TEST FAILED IF PROGRAM HALTS HERE
 41136	056360	324 00 0 00 056361 		JUMPA	.+1		;IF TEST FAILS, CHANGE THIS INSTRUCTION (JUMPA .+1) TO
 41137									;JUMPA X (X IS THE ADDRESS OF THE FIRST INSTRUCTION
 41138									;IN THE SUBTEST) TO LOOP ON ERROR^
 41139
 41140					;**********
 41141
 41142					;THIS TEST VERIFIES THAT PUSH DOES NOT MODIFY C(E).
 41143					;CLEAR E AND AC; THEN, EXECUTE PUSH.
 41144					;CHECK E FOR ORIGINAL CONTENTS ,0.
 41145					;PASS IF C(E)=0.
 41146
 41147	056361	403 00 0 00 000002 	C27300:	SETZB	2		;CLEAR AC,E
 41148	056362	261 02 0 00 000000 		PUSH	2,		;*PUSH SHOULD NOT ALTER C(E)
 41149	056363	332 00 0 00 000000 		SKIPE			;PASS IF C(E)=0,,0
 41150						STOP^
 41151	056364	254 04 0 00 056365 		HALT	.+1		;TEST FAILED IF PROGRAM HALTS HERE
 41152	056365	324 00 0 00 056366 		JUMPA	.+1		;IF TEST FAILS, CHANGE THIS INSTRUCTION (JUMPA .+1) TO
 41153									;JUMPA X (X IS THE ADDRESS OF THE FIRST INSTRUCTION
 41154									;IN THE SUBTEST) TO LOOP ON ERROR^
 41155
 41156					;**********
DFKAA PDP-10 KL10 BASIC INSTRUCTION DIAGNOSTIC (1) VER 0,2	MACRO %53B(1254)-4 11:50 11-Nov-24 Page 2
DFKAA7	MAC	13-Jan-89 10:22		TEST OF PUSH INSTRUCTION

 41157					;THIS TEST VERIFIES THAT PUSH ADDS 1,,1 TO THE AC.
 41158					;FIRST THE AC IS CLEARED; THEN PUSH IS EXECUTED.
 41159					;THE AC IS CHECKED FOR 1,,1.  IF C(AC)=1,,1, THIS TEST PASSES.
 41160
 41161	056366	400 02 0 00 000000 	C27400:	SETZ	2,		;CLEAR AC
 41162	056367	261 02 0 00 056370 		PUSH	2,.+1		;*PUSH SHOULD ADD 1,,1 TO C(AC)
 41163	056370	312 02 0 00 070251 		CAME	2,[XWD 1,1]	;PASS IF C(AC)=1,,1
 41164						STOP^
 41165	056371	254 04 0 00 056372 		HALT	.+1		;TEST FAILED IF PROGRAM HALTS HERE
 41166	056372	324 00 0 00 056373 		JUMPA	.+1		;IF TEST FAILS, CHANGE THIS INSTRUCTION (JUMPA .+1) TO
 41167									;JUMPA X (X IS THE ADDRESS OF THE FIRST INSTRUCTION
 41168									;IN THE SUBTEST) TO LOOP ON ERROR^
 41169
 41170					;**********
 41171
 41172					;THIS TEST VERIFIES THAT PUSH ADDS 1,,1 TO THE AC BEFORE MODIFYING C(C(AC-RIGHT)).
 41173					;FIRST, THE AC AND AC0 ARE ZEROED; THEN PUSH IS EXECUTED.
 41174					;C(C(AC-RIGHT)) [BEFORE AC UPDATING] (AC0) IS CHECKED FOR THE INITIAL VALUE, 0.
 41175					;IF C(AC0)=0, THIS TEST PASSES
 41176
 41177	056373	403 00 0 00 000002 	C27500:	SETZB	2		;CLEAR AC AND AC0
 41178	056374	261 02 0 00 071013 		PUSH	2,[16541320]	;*PUSH SHOULD NOT MODIFY C(AC0)
 41179	056375	332 00 0 00 000000 		SKIPE			;PASS IF C(AC0)=0
 41180						STOP^
 41181	056376	254 04 0 00 056377 		HALT	.+1		;TEST FAILED IF PROGRAM HALTS HERE
 41182	056377	324 00 0 00 056400 		JUMPA	.+1		;IF TEST FAILS, CHANGE THIS INSTRUCTION (JUMPA .+1) TO
 41183									;JUMPA X (X IS THE ADDRESS OF THE FIRST INSTRUCTION
 41184									;IN THE SUBTEST) TO LOOP ON ERROR^
 41185
 41186					;**********
DFKAA PDP-10 KL10 BASIC INSTRUCTION DIAGNOSTIC (1) VER 0,2	MACRO %53B(1254)-4 11:50 11-Nov-24 Page 3
DFKAA7	MAC	13-Jan-89 10:22		TEST OF PUSH INSTRUCTION

 41187					;THIS TEST VERIFIES THAT PUSH ADDS 1,,1 TO THE AC BEFORE MODIFYING C(C(AC-RIGHT)).
 41188					;FIRST, THE AC AND AC0 ARE ZEROED; THEN PUSH IS EXECUTED.
 41189					;C(C(AC-RIGHT)) [BEFORE AC UPDATING] (AC0) IS CHECKED FOR
 41190					;IF C(AC0)IS NOT EQUAL TO E, THIS TEST PASSES
 41191
 41192	056400	403 01 0 00 000002 	C27600:	SETZB	1,2		;CLEAR AC AND AC0
 41193	056401	261 02 0 00 056402 		PUSH	2,.+1		;*PUSH SHOULD NOT MODIFY C(AC0)
 41194	056402	306 00 0 00 056402 		CAIN	.		;FAIL IF C(AC0)=E
 41195						STOP^
 41196	056403	254 04 0 00 056404 		HALT	.+1		;TEST FAILED IF PROGRAM HALTS HERE
 41197	056404	324 00 0 00 056405 		JUMPA	.+1		;IF TEST FAILS, CHANGE THIS INSTRUCTION (JUMPA .+1) TO
 41198									;JUMPA X (X IS THE ADDRESS OF THE FIRST INSTRUCTION
 41199									;IN THE SUBTEST) TO LOOP ON ERROR^
 41200
 41201					;**********
 41202
 41203					;THIS TEST VERIFIES THAT PUSH ADDS 1,,1 TO THE AC; THEN, MOVES C(E) INTO
 41204					;THE LOCATION SPECIFIED BY C(AC-RIGHT).  IN THIS CASE, AC AND THE LOCATION SPECIFIED
 41205					;BY UPDATING C(AC-RIGHT) ARE CLEARED; THEN, PUSH IS EXECUTED WITH C(E)=-1,,-1.
 41206					;THE LOCATION SPECIFIED BY C(AC-RIGHT) IS THEN CHECKED FOR -1,,-1, THE
 41207					;ORIGINAL C(E).  IF C(C(AC-RIGHT))=-1,,-1, THIS TEST PASSES.
 41208
 41209	056405	403 01 0 00 000002 	C27700:	SETZB	1,2		;CLEAR AC, C(AC-RIGHT)
 41210	056406	261 02 0 00 070254 		PUSH	2,[-1]		;*PUSH SHOULD PLACE -1,,-1 INTO AC1
 41211	056407	312 01 0 00 070254 		CAME	1,[-1]		;PASS IF C(1)=-1,,-1
 41212						STOP^
 41213	056410	254 04 0 00 056411 		HALT	.+1		;TEST FAILED IF PROGRAM HALTS HERE
 41214	056411	324 00 0 00 056412 		JUMPA	.+1		;IF TEST FAILS, CHANGE THIS INSTRUCTION (JUMPA .+1) TO
 41215									;JUMPA X (X IS THE ADDRESS OF THE FIRST INSTRUCTION
 41216									;IN THE SUBTEST) TO LOOP ON ERROR^
 41217
 41218					;**********
DFKAA PDP-10 KL10 BASIC INSTRUCTION DIAGNOSTIC (1) VER 0,2	MACRO %53B(1254)-4 11:50 11-Nov-24 Page 4
DFKAA7	MAC	13-Jan-89 10:22		TEST OF PUSH INSTRUCTION

 41219					;THIS TEST VERIFIES THAT PUSH ADDS 1,,1 TO THE AC; THEN, MOVES C(E) INTO
 41220					;THE LOCATION SPECIFIED BY C(AC-RIGHT).  IN THIS CASE, AC
 41221					;IS CLEARED; THEN, PUSH IS EXECUTED WITH C(E)=0.
 41222					;THE LOCATION SPECIFIED BY C(AC-RIGHT) IS THEN CHECKED FOR 0, THE
 41223					;ORIGINAL C(E).  IF C(C(AC-RIGHT))=0, THIS TEST PASSES.
 41224
 41225	056412	402 00 0 00 000002 	C30000:	SETZM	2		;CLEAR AC
 41226	056413	261 02 0 00 070253 		PUSH	2,[0]		;*PUSH SHOULD PLACE 0 INTO AC1
 41227	056414	332 00 0 00 000001 		SKIPE	1		;PASS IF C(1)=0
 41228						STOP^
 41229	056415	254 04 0 00 056416 		HALT	.+1		;TEST FAILED IF PROGRAM HALTS HERE
 41230	056416	324 00 0 00 056417 		JUMPA	.+1		;IF TEST FAILS, CHANGE THIS INSTRUCTION (JUMPA .+1) TO
 41231									;JUMPA X (X IS THE ADDRESS OF THE FIRST INSTRUCTION
 41232									;IN THE SUBTEST) TO LOOP ON ERROR^
 41233
 41234					;**********
 41235
 41236					;THIS TEST VERIFIES THAT PUSH ADDS 1,,1 TO THE AC; THEN, MOVES C(E) INTO
 41237					;THE LOCATION SPECIFIED BY C(AC-RIGHT).  IN THIS CASE,
 41238					;AC IS PRELOADED WITH 0,,-1, AND THE LOCATION SPECIFIED
 41239					;BY UPDATING C(AC-RIGHT) IS CLEARED; THEN, PUSH IS EXECUTED WITH C(E)=-1,,-1.
 41240					;THE LOCATION SPECIFIED BY C(AC-RIGHT) IS THEN CHECKED FOR -1,,-1, THE
 41241					;ORIGINAL C(E).  IF C(C(AC-RIGHT))=-1,,-1, THIS TEST PASSES.
 41242
 41243	056417	201 02 0 00 777777 	C30100:	MOVEI	2,-1		;PRELOAD AC WITH 0,,-1
 41244	056420	400 00 0 00 000000 		SETZ			;CLEAR AC, C(AC-RIGHT)
 41245	056421	261 02 0 00 070254 		PUSH	2,[-1]		;*PUSH SHOULD PLACE -1,,-1 INTO AC0
 41246	056422	312 00 0 00 070254 		CAME	[-1]		;PASS IF C(0)=-1,,-1
 41247						STOP^
 41248	056423	254 04 0 00 056424 		HALT	.+1		;TEST FAILED IF PROGRAM HALTS HERE
 41249	056424	324 00 0 00 056425 		JUMPA	.+1		;IF TEST FAILS, CHANGE THIS INSTRUCTION (JUMPA .+1) TO
 41250									;JUMPA X (X IS THE ADDRESS OF THE FIRST INSTRUCTION
 41251									;IN THE SUBTEST) TO LOOP ON ERROR^
 41252
 41253					;**********
DFKAA PDP-10 KL10 BASIC INSTRUCTION DIAGNOSTIC (1) VER 0,2	MACRO %53B(1254)-4 11:50 11-Nov-24 Page 5
DFKAA7	MAC	13-Jan-89 10:22		TEST OF PUSH INSTRUCTION

 41254					;THIS TEST VERIFIES THAT THERE IS NO CARRY FROM BIT 18 TO BIT 17 OF THE AC ON PUSH.
 41255					;THE AC IS PRELOADED WITH 0,,-1; THEN PUSH IS EXECUTED. PUSH SHOULD ADD ONE
 41256					;TO BOTH HALVES OF THE AC WITHOUT GENERATING A CARRY FROM BIT 18 TO BIT 17. IF NO
 41257					;CARRY WAS GENERATED, THIS TEST PASSES
 41258
 41259	056425	201 02 0 00 777777 	C30101:	MOVEI	2,-1		;PRELOAD AC WITH 0,, -1
 41260	056426	261 02 0 00 000000 		PUSH	2,0		;*PUSH SHOULD NOT GENERATE A CARRY FROM BIT 18 TO 17
 41261	056427	312 02 0 00 070307 		CAME	2,[1,,0]	;PASS IF C(AC)=1,,0 (NO CARRY WAS GENERATED)
 41262						STOP^
 41263	056430	254 04 0 00 056431 		HALT	.+1		;TEST FAILED IF PROGRAM HALTS HERE
 41264	056431	324 00 0 00 056432 		JUMPA	.+1		;IF TEST FAILS, CHANGE THIS INSTRUCTION (JUMPA .+1) TO
 41265									;JUMPA X (X IS THE ADDRESS OF THE FIRST INSTRUCTION
 41266									;IN THE SUBTEST) TO LOOP ON ERROR^
 41267
 41268					;**********
DFKAA PDP-10 KL10 BASIC INSTRUCTION DIAGNOSTIC (1) VER 0,2	MACRO %53B(1254)-4 11:50 11-Nov-24 Page 6
DFKAA7	MAC	13-Jan-89 10:22		TEST OF PUSHJ INSTRUCTION

 41269					SUBTTL	TEST OF PUSHJ INSTRUCTION
 41270
 41271					;**********
 41272
 41273					;THIS TEST VERIFIES THAT PUSHJ TRANSFERS CONTROL TO THE LOCATION ADDRESSED BY E.
 41274					;IF PUSHJ DOES NOT JUMP, THIS TEST FAILS
 41275
 41276	056432				C30200:	SFLAG	CRY0		^;SETS CRY0 FLAG
 41277
 41278	056432	205 01 0 00 200000 		MOVSI	1,CRY0
 41279	056433	255 17 0 00 056434 		JFCL	17,.+1	;RESET ALL FLAGS
 41280	056434	254 02 0 01 056435 		JRST	2,.+1(1)		;SET CRY0 FLAG
 41281	056435	400 00 0 00 000000 		SETZ			;CLEAR AC
 41282	056436	260 00 0 00 056440 		PUSHJ	.+2		;*PUSHJ SHOULD JUMP TO LOCATION E
 41283						STOP^
 41284	056437	254 04 0 00 056440 		HALT	.+1		;TEST FAILED IF PROGRAM HALTS HERE
 41285	056440	324 00 0 00 056441 		JUMPA	.+1		;IF TEST FAILS, CHANGE THIS INSTRUCTION (JUMPA .+1) TO
 41286									;JUMPA X (X IS THE ADDRESS OF THE FIRST INSTRUCTION
 41287									;IN THE SUBTEST) TO LOOP ON ERROR^
 41288
 41289					;**********
 41290
 41291					;THIS TEST VERIFIES THAT PUSHJ DOES NOT MODIFY C(PC) WHERE PC IS ONE GREATER
 41292					;THAN THE LOCATION OF THE PUSHJ INSTRUCTION.
 41293					;IF PUSHJ MODIFIES C(PC), THIS TEST FAILS
 41294
 41295	056441				C30300:	SFLAG	CRY0		^;SET CRY0
 41296
 41297	056441	205 01 0 00 200000 		MOVSI	1,CRY0
 41298	056442	255 17 0 00 056443 		JFCL	17,.+1	;RESET ALL FLAGS
 41299	056443	254 02 0 01 056444 		JRST	2,.+1(1)		;SET CRY0 FLAG
 41300	056444	403 01 0 00 056446 		SETZB	1,.+2		;CLEAR C(AC-RIGHT) AND C(PC)
 41301	056445	260 00 0 00 056450 		PUSHJ	.+3		;*PUSHJ SHOULD NOT MODIFY C(PC)
 41302	056446	000000	000000			0			;THIS LOCATION SHOULD NOT BE MODIFIED BY PUSHJ
 41303	056447	310 00 0 00 000000 		CAM			;PUSHJ SHOULD JUMP OVER THIS LOCATION
 41304	056450	332 00 0 00 056446 		SKIPE	.-2		;PASS IF PUSHJ DID NOT MODIFY C(PC)
 41305						STOP^
 41306	056451	254 04 0 00 056452 		HALT	.+1		;TEST FAILED IF PROGRAM HALTS HERE
 41307	056452	324 00 0 00 056453 		JUMPA	.+1		;IF TEST FAILS, CHANGE THIS INSTRUCTION (JUMPA .+1) TO
 41308									;JUMPA X (X IS THE ADDRESS OF THE FIRST INSTRUCTION
 41309									;IN THE SUBTEST) TO LOOP ON ERROR^
 41310
 41311					;**********
DFKAA PDP-10 KL10 BASIC INSTRUCTION DIAGNOSTIC (1) VER 0,2	MACRO %53B(1254)-4 11:50 11-Nov-24 Page 7
DFKAA7	MAC	13-Jan-89 10:22		TEST OF PUSHJ INSTRUCTION

 41312					;THIS TEST VERIFIES THAT PUSHJ DOES NOT STORE IN E
 41313					;IF PUSHJ STORED IN E, THIS TEST FAILS
 41314
 41315	056453				C30400:	SFLAG	CRY0		^;SET CRY0
 41316
 41317	056453	205 01 0 00 200000 		MOVSI	1,CRY0
 41318	056454	255 17 0 00 056455 		JFCL	17,.+1	;RESET ALL FLAGS
 41319	056455	254 02 0 01 056456 		JRST	2,.+1(1)		;SET CRY0 FLAG
 41320	056456	403 00 0 00 000001 		SETZB	1		;CLEAR AC AND C(AC-RIGHT
 41321	056457	260 00 0 00 056460 		PUSHJ	.+1		;*PUSHJ SHOULD NOT STORE IN E
 41322	056460	200 02 0 00 056460 		MOVE	2,.		;SAVE C(E)
 41323	056461	312 02 0 00 056460 		CAME	2,.-1		;FAIL IF PUSHJ STORED IN E
 41324						STOP^
 41325	056462	254 04 0 00 056463 		HALT	.+1		;TEST FAILED IF PROGRAM HALTS HERE
 41326	056463	324 00 0 00 056464 		JUMPA	.+1		;IF TEST FAILS, CHANGE THIS INSTRUCTION (JUMPA .+1) TO
 41327									;JUMPA X (X IS THE ADDRESS OF THE FIRST INSTRUCTION
 41328									;IN THE SUBTEST) TO LOOP ON ERROR^
 41329
 41330					;**********
 41331
 41332					;THIS TEST VERIFIES THAT PUSHJ DOES NOT STORE IN LOC 0
 41333					;PUSHJ SHOULD STORE PC IN C(AC-RIGHT) - LOCATION 2.
 41334					;IF PUSHJ STORES IN LOCATION 0, THIS TEST FAILS
 41335
 41336	056464	201 02 0 00 000001 	C30500:	MOVEI	2,1		;PRELOAD AC WITH 0,,1
 41337	056465	400 00 0 00 000000 		SETZ	0		;CLEAR 0
 41338	056466	260 02 0 00 056467 		PUSHJ	2,.+1		;*PUSHJ SHOULD NOT STORE IN LOCATION 0
 41339	056467	332 00 0 00 000000 		SKIPE			;FAIL IF PUSHJ STORED IN LOCATION 0
 41340						STOP^
 41341	056470	254 04 0 00 056471 		HALT	.+1		;TEST FAILED IF PROGRAM HALTS HERE
 41342	056471	324 00 0 00 056472 		JUMPA	.+1		;IF TEST FAILS, CHANGE THIS INSTRUCTION (JUMPA .+1) TO
 41343									;JUMPA X (X IS THE ADDRESS OF THE FIRST INSTRUCTION
 41344									;IN THE SUBTEST) TO LOOP ON ERROR^
 41345
 41346					;**********
DFKAA PDP-10 KL10 BASIC INSTRUCTION DIAGNOSTIC (1) VER 0,2	MACRO %53B(1254)-4 11:50 11-Nov-24 Page 8
DFKAA7	MAC	13-Jan-89 10:22		TEST OF PUSHJ INSTRUCTION

 41347					;THIS TEST VERIFIES THAT PUSHJ STORES THE PC IN THE LOCATION SPECIFIED
 41348					;BY C(AC-RIGHT) AFTER INCREMENTING AC.
 41349					;IN THIS TEST, AC AND C(AC-RIGHT) ARE CLEARED; THEN, PUSHJ IS EXECUTED.
 41350					;C(C(AC-RIGHT))IS THEN COMPARED TO ZERO.  IF C(C(AC-RIGHT)) IS NON-ZERO,
 41351					;A PC WAS STORED AND THIS TEST PASSES.
 41352
 41353	056472	403 00 0 00 000001 	C30600:	SETZB	1		;CLEAR AC, C(AC-RIGHT)
 41354	056473	260 00 0 00 056475 		PUSHJ	.+2		;*PUSHJ SHOULD STORE PC IN RIGHT HALF OF C(AC-RIGHT)
 41355	056474	254 04 0 00 056474 		HALT	.		;PUSHJ SHOULD JUMP OVER THIS INSTRUCTION
 41356	056475	405 01 0 00 777777 		ANDI	1,-1		;SAVE C(C(AC-RIGHT))
 41357	056476	306 01 0 00 056475 		CAIN	1,.-1		;FAIL IF PC WAS NOT STORED IN C(AC-RIGHT)
 41358						STOP^
 41359	056477	254 04 0 00 056500 		HALT	.+1		;TEST FAILED IF PROGRAM HALTS HERE
 41360	056500	324 00 0 00 056501 		JUMPA	.+1		;IF TEST FAILS, CHANGE THIS INSTRUCTION (JUMPA .+1) TO
 41361									;JUMPA X (X IS THE ADDRESS OF THE FIRST INSTRUCTION
 41362									;IN THE SUBTEST) TO LOOP ON ERROR^
 41363
 41364					;**********
 41365
 41366					;THIS TEST VERIFIES THAT PUSHJ ADDS 1,,1 TO THE AC
 41367					;THE AC IS CLEARED AND PUSHJ IS EXECUTED
 41368					;AC IS CHECKED FOR 1,,1 IF C(AC)=1,,1, THIS TEST PASSES
 41369
 41370	056501	400 00 0 00 000000 	C31000:	SETZ			;CLEAR AC
 41371	056502	260 00 0 00 056503 		PUSHJ	.+1		;*PUSHJ SHOULD PLACE 1,,1 INTO THE AC
 41372	056503	312 00 0 00 070251 		CAME	[1,,1]		;PASS IF C(AC)=1,,1
 41373						STOP^
 41374	056504	254 04 0 00 056505 		HALT	.+1		;TEST FAILED IF PROGRAM HALTS HERE
 41375	056505	324 00 0 00 056506 		JUMPA	.+1		;IF TEST FAILS, CHANGE THIS INSTRUCTION (JUMPA .+1) TO
 41376									;JUMPA X (X IS THE ADDRESS OF THE FIRST INSTRUCTION
 41377									;IN THE SUBTEST) TO LOOP ON ERROR^
 41378
 41379					;**********
DFKAA PDP-10 KL10 BASIC INSTRUCTION DIAGNOSTIC (1) VER 0,2	MACRO %53B(1254)-4 11:50 11-Nov-24 Page 9
DFKAA7	MAC	13-Jan-89 10:22		TEST OF PUSHJ INSTRUCTION

 41380					;THIS TEST VERIFIES THAT PUSHJ STORES THE FLAGS IN LEFT HALF OF C(AC-RIGHT)
 41381					;FIRST, CRY0 IS SET AND AC AND C(AC-RIGHT) ARE CLEARED; THEN, PUSHJ IS EXECUTED.
 41382					;C(C(AC-RIGHT)) IS THEN CHECKED FOR CRY0.  IF CRY0 IS SET, THIS TEST PASSES.
 41383
 41384	056506				C31100:	SFLAG	CRY0		^;SET CRY0
 41385
 41386	056506	205 01 0 00 200000 		MOVSI	1,CRY0
 41387	056507	255 17 0 00 056510 		JFCL	17,.+1	;RESET ALL FLAGS
 41388	056510	254 02 0 01 056511 		JRST	2,.+1(1)		;SET CRY0 FLAG
 41389	056511	403 00 0 00 000001 		SETZB	1		;CLEAR AC AND C(AC-RIGHT)
 41390	056512	260 00 0 00 056513 		PUSHJ	.+1		;*PUSHJ SHOULD STORE FLAGS IN LEFT HALF OF C(AC-RIGHT)
 41391	056513	607 01 0 00 200000 		TLNN	1,CRY0		;PASS IF CRY0 STORED CORRECTLY
 41392						STOP^
 41393	056514	254 04 0 00 056515 		HALT	.+1		;TEST FAILED IF PROGRAM HALTS HERE
 41394	056515	324 00 0 00 056516 		JUMPA	.+1		;IF TEST FAILS, CHANGE THIS INSTRUCTION (JUMPA .+1) TO
 41395									;JUMPA X (X IS THE ADDRESS OF THE FIRST INSTRUCTION
 41396									;IN THE SUBTEST) TO LOOP ON ERROR^
 41397
 41398					;**********
 41399
 41400					;THIS TEST VERIFIES THAT PUSHJ ADDS 1,,1 TO THE AC
 41401					;THE AC IS PRELOADED WITH 0,,1 AND PUSHJ IS EXECUTED
 41402					;AC IS CHECKED FOR 1,,2 IF C(AC)=1,,2, THIS TEST PASSES
 41403
 41404	056516	201 01 0 00 000001 	C31400:	MOVEI	1,1		;PRELOAD AC WITH 0,,1
 41405	056517	260 01 0 00 056521 		PUSHJ	1,.+2		;*PUSHJ SHOULD PLACE 1,,2 INTO THE AC
 41406	056520	254 04 0 00 000000 		HALT			;PUSHJ SHOULD JUMP OVER THIS INSTRUCTION
 41407	056521	312 01 0 00 070634 		CAME	1,[XWD 1,2]	;PASS IF AC WAS INCREMENTED CORRECTLY
 41408						STOP^
 41409	056522	254 04 0 00 056523 		HALT	.+1		;TEST FAILED IF PROGRAM HALTS HERE
 41410	056523	324 00 0 00 056524 		JUMPA	.+1		;IF TEST FAILS, CHANGE THIS INSTRUCTION (JUMPA .+1) TO
 41411									;JUMPA X (X IS THE ADDRESS OF THE FIRST INSTRUCTION
 41412									;IN THE SUBTEST) TO LOOP ON ERROR^
 41413
 41414					;**********
DFKAA PDP-10 KL10 BASIC INSTRUCTION DIAGNOSTIC (1) VER 0,2	MACRO %53B(1254)-4 11:50 11-Nov-24 Page 10
DFKAA7	MAC	13-Jan-89 10:22		TEST OF PUSHJ INSTRUCTION

 41415					;THIS TEST VERIFIES THAT PUSHJ STORES THE PC IN RIGHT HALF OF C(AC-RIGHT)
 41416					;THIS TEST PASSES IF THE PC WAS STORED CORRECTLY.
 41417
 41418	056524	201 01 0 00 000001 	C31500:	MOVEI	1,1		;PLACE 0,,1 INTO AC
 41419	056525	260 01 0 00 056527 		PUSHJ	1,.+2		;*PUSHJ SHOULD STORE .+1 INTO RIGHT HALF OF C(AC-RIGHT)
 41420	056526	254 04 0 00 000000 		HALT			;PUSHJ SHOULD JUMP OVER THIS PC
 41421	056527	405 02 0 00 777777 		ANDI	2,-1		;SAVE RIGHT HALF OF C(AC-RIGHT)
 41422	056530	302 02 0 00 056526 		CAIE	2,.-2		;PASS IF PC STORED CORRECTLY
 41423						STOP^
 41424	056531	254 04 0 00 056532 		HALT	.+1		;TEST FAILED IF PROGRAM HALTS HERE
 41425	056532	324 00 0 00 056533 		JUMPA	.+1		;IF TEST FAILS, CHANGE THIS INSTRUCTION (JUMPA .+1) TO
 41426									;JUMPA X (X IS THE ADDRESS OF THE FIRST INSTRUCTION
 41427									;IN THE SUBTEST) TO LOOP ON ERROR^
 41428
 41429					;**********
 41430
 41431					;THIS TEST VERIFIES THAT PUSHJ ALWAYS RESETS BIS.
 41432					;FIRST BIS IS SET; THEN PUSHJ IS EXECUTED.  THE FLAGS ARE
 41433					;THEN SAVED AND CHECKED.  IF BIS WAS RESET VIA PUSHJ, THIS TEST PASSES.
 41434
 41435	056533				C31501:	SFLAG	BIS		^;SET BIS
 41436
 41437	056533	205 01 0 00 020000 		MOVSI	1,BIS
 41438	056534	255 17 0 00 056535 		JFCL	17,.+1	;RESET ALL FLAGS
 41439	056535	254 02 0 01 056536 		JRST	2,.+1(1)		;SET BIS FLAG
 41440	056536	400 00 0 00 000000 		SETZ			;CLEAR AC
 41441	056537	260 00 0 00 056540 		PUSHJ	.+1		;*PUSHJ SHOULD RESET BIS
 41442	056540	265 00 0 00 056541 		JSP	.+1		;SAVE FLAGS
 41443	056541	603 00 0 00 020000 		TLNE	BIS		;PASS IF BIS FLAG IS RESET
 41444						STOP^
 41445	056542	254 04 0 00 056543 		HALT	.+1		;TEST FAILED IF PROGRAM HALTS HERE
 41446	056543	324 00 0 00 056544 		JUMPA	.+1		;IF TEST FAILS, CHANGE THIS INSTRUCTION (JUMPA .+1) TO
 41447									;JUMPA X (X IS THE ADDRESS OF THE FIRST INSTRUCTION
 41448									;IN THE SUBTEST) TO LOOP ON ERROR^
 41449
 41450					;**********
DFKAA PDP-10 KL10 BASIC INSTRUCTION DIAGNOSTIC (1) VER 0,2	MACRO %53B(1254)-4 11:50 11-Nov-24 Page 11
DFKAA7	MAC	13-Jan-89 10:22		TEST OF PUSHJ INSTRUCTION

 41451					;THIS TEST VERIFIES THAT THERE IS NO CARRY FROM BIT 18 TO BIT 17 OF THE AC ON PUSHJ.
 41452					;THE AC IS PRELOADED WITH 0,,-1; THEN PUSHJ IS EXECUTED. PUSHJ SHOULD ADD ONE
 41453					;TO BOTH HALVES OF THE AC WITHOUT GENERATING A CARRY FROM BIT 18 TO BIT 17. IF NO
 41454					;CARRY WAS GENERATED, THIS TEST PASSES
 41455
 41456	056544	201 02 0 00 777777 	C31502:	MOVEI	2,-1		;PRELOAD AC WITH 0,,-1
 41457	056545	260 02 0 00 056546 		PUSHJ	2,.+1		;*PUSHJ SHOULD NOT GENERATE A CARRY FROM BIT 18 TO 17
 41458	056546	312 02 0 00 070307 		CAME	2,[1,,0]	;PASS IF C(AC)=1,,0 (NO CARRY WAS GENERATED)
 41459						STOP^
 41460	056547	254 04 0 00 056550 		HALT	.+1		;TEST FAILED IF PROGRAM HALTS HERE
 41461	056550	324 00 0 00 056551 		JUMPA	.+1		;IF TEST FAILS, CHANGE THIS INSTRUCTION (JUMPA .+1) TO
 41462									;JUMPA X (X IS THE ADDRESS OF THE FIRST INSTRUCTION
 41463									;IN THE SUBTEST) TO LOOP ON ERROR^
 41464
 41465					;**********
DFKAA PDP-10 KL10 BASIC INSTRUCTION DIAGNOSTIC (1) VER 0,2	MACRO %53B(1254)-4 11:50 11-Nov-24 Page 12
DFKAA7	MAC	13-Jan-89 10:22		TEST OF POP INSTRUCTION

 41466					SUBTTL	TEST OF POP INSTRUCTION
 41467
 41468					;**********
 41469
 41470					;THIS TEST VERIFIES THAT POP SUBTRACTS 1,,1 FROM THE AC
 41471					;THE AC IS PRELOADED WITH 1,,1; THEN, POP IS EXECUTED.
 41472					;THE AC IS CHECKED FOR 0.  IF C(AC)=0, THIS TEST PASSES.
 41473
 41474	056551	200 00 0 00 070251 	C31600:	MOVE	[XWD 1,1]	;PRELOAD AC WITH 1,,1
 41475	056552	262 00 0 00 000001 		POP	1		;*POP SHOULD SUBTRACT 1,,1 FROM THE AC
 41476	056553	332 00 0 00 000000 		SKIPE			;PASS IF AC WAS DECREMENTED CORRECTLY
 41477						STOP^
 41478	056554	254 04 0 00 056555 		HALT	.+1		;TEST FAILED IF PROGRAM HALTS HERE
 41479	056555	324 00 0 00 056556 		JUMPA	.+1		;IF TEST FAILS, CHANGE THIS INSTRUCTION (JUMPA .+1) TO
 41480									;JUMPA X (X IS THE ADDRESS OF THE FIRST INSTRUCTION
 41481									;IN THE SUBTEST) TO LOOP ON ERROR^
 41482
 41483					;**********
 41484
 41485					;THIS TEST VERIFIES THAT POP SUBTRACTS 1,,1 FROM THE AC
 41486					;THE AC IS PRELOADED WITH 2,,2; THEN, POP IS EXECUTED.
 41487					;THE AC IS CHECKED FOR 1,,1.  IF C(AC)=1,,1, THIS TEST PASSES.
 41488
 41489	056556	200 00 0 00 070440 	C31700:	MOVE	[XWD 2,2]	;PRELOAD AC WITH E,,E WHERE E=2
 41490	056557	201 02 0 00 000005 		MOVEI	2,5		;PRELOAD 2 WITH 0,,5
 41491	056560	262 00 0 00 000002 		POP	2		;*POP SHOULD SUBTRACT 1,,1 FROM THE AC
 41492	056561	312 00 0 00 070251 		CAME	[1,,1]		;PASS IF AC WAS DECREMENTED CORRECTLY
 41493						STOP^
 41494	056562	254 04 0 00 056563 		HALT	.+1		;TEST FAILED IF PROGRAM HALTS HERE
 41495	056563	324 00 0 00 056564 		JUMPA	.+1		;IF TEST FAILS, CHANGE THIS INSTRUCTION (JUMPA .+1) TO
 41496									;JUMPA X (X IS THE ADDRESS OF THE FIRST INSTRUCTION
 41497									;IN THE SUBTEST) TO LOOP ON ERROR^
 41498
 41499					;**********
DFKAA PDP-10 KL10 BASIC INSTRUCTION DIAGNOSTIC (1) VER 0,2	MACRO %53B(1254)-4 11:50 11-Nov-24 Page 13
DFKAA7	MAC	13-Jan-89 10:22		TEST OF POP INSTRUCTION

 41500					;THIS TEST VERIFIES THAT POP STORES C(C(AC-RIGHT)) INTO E
 41501					;IN THIS CASE, AC=0 AND AC IS PRELOADED WITH 2,,2; E=2 AND IS PRELOADED WITH 0.
 41502					;POP IS THEN EXECUTED.  POP SHOULD PLACE 0 INTO E.  IF C(E)=0, THIS TEST PASSES.
 41503
 41504	056564	200 00 0 00 070440 	C32300:	MOVE	[XWD 2,2]	;PRELOAD AC WITH 2,,2
 41505	056565	402 00 0 00 000002 		SETZM	2		;CLEAR E AND C(AC-RIGHT)
 41506	056566	262 00 0 00 000002 		POP	2		;*POP SHOULD PLACE 0 INTO E
 41507	056567	332 00 0 00 000002 		SKIPE	2		;PASS IF C(E)=0
 41508						STOP^
 41509	056570	254 04 0 00 056571 		HALT	.+1		;TEST FAILED IF PROGRAM HALTS HERE
 41510	056571	324 00 0 00 056572 		JUMPA	.+1		;IF TEST FAILS, CHANGE THIS INSTRUCTION (JUMPA .+1) TO
 41511									;JUMPA X (X IS THE ADDRESS OF THE FIRST INSTRUCTION
 41512									;IN THE SUBTEST) TO LOOP ON ERROR^
 41513
 41514					;**********
 41515
 41516					;THIS TEST VERIFIES THAT POP DOES NOT MODIFY C(C(AC-RIGHT)-1).
 41517					;THIS TEST FAILS IF C(C(AC-RIGHT)-1) IS MODIFIED BY POP.
 41518
 41519	056572	200 00 0 00 070440 	C32400:	MOVE	[XWD 2,2]	;PRELOAD AC WITH 2,,2
 41520	056573	201 02 0 00 000017 		MOVEI	2,17		;PRELOAD 2 WITH 0,,17
 41521	056574	402 00 0 00 000001 		SETZM	1		;CLEAR C(C(AC-RIGHT)-1)
 41522	056575	262 00 0 00 000002 		POP	2		;*POP SHOULD NOT MODIFY C(C(AC-RIGHT)-1)
 41523	056576	332 00 0 00 000001 		SKIPE	1		;PASS IF C(C(AC-RIGHT)-1) WAS UNALTERED
 41524						STOP^
 41525	056577	254 04 0 00 056600 		HALT	.+1		;TEST FAILED IF PROGRAM HALTS HERE
 41526	056600	324 00 0 00 056601 		JUMPA	.+1		;IF TEST FAILS, CHANGE THIS INSTRUCTION (JUMPA .+1) TO
 41527									;JUMPA X (X IS THE ADDRESS OF THE FIRST INSTRUCTION
 41528									;IN THE SUBTEST) TO LOOP ON ERROR^
 41529
 41530					;**********
DFKAA PDP-10 KL10 BASIC INSTRUCTION DIAGNOSTIC (1) VER 0,2	MACRO %53B(1254)-4 11:50 11-Nov-24 Page 14
DFKAA7	MAC	13-Jan-89 10:22		TEST OF POP INSTRUCTION

 41531					;THIS TEST VERIFIES THAT POP STORES C(C(AC-RIGHT)) INTO E.
 41532					;IN THIS CASE, AC IS PRELOADED WITH 2,,2 AND AC2 [C(AC-RIGHT)] IS PRELOADED WITH 0,,3.
 41533					;E IS CLEARED AND POP IS EXECUTED.  E IS THEN CHECKED FOR 0,,3 [C(C(AC-RIGHT))] .
 41534					;IF C(E)=0,,3, THIS TEST PASSES.
 41535
 41536	056601	200 00 0 00 070440 	C32500:	MOVE	[XWD 2,2]	;PRELOAD AC WITH 2,,2
 41537	056602	201 02 0 00 000003 		MOVEI	2,3		;PRELOAD C(AC-RIGHT) WITH 0,,3
 41538	056603	402 00 0 00 000003 		SETZM	3		;CLEAR E
 41539	056604	262 00 0 00 000003 		POP	3		;*POP SHOULD PLACE 0,,3 INTO E
 41540	056605	302 03 0 00 000003 		CAIE	3,3		;PASS IF C(E)=0,,3
 41541						STOP^
 41542	056606	254 04 0 00 056607 		HALT	.+1		;TEST FAILED IF PROGRAM HALTS HERE
 41543	056607	324 00 0 00 056610 		JUMPA	.+1		;IF TEST FAILS, CHANGE THIS INSTRUCTION (JUMPA .+1) TO
 41544									;JUMPA X (X IS THE ADDRESS OF THE FIRST INSTRUCTION
 41545									;IN THE SUBTEST) TO LOOP ON ERROR^
 41546
 41547					;**********
 41548
 41549					;THIS TEST VERIFIES THAT POP STORES C(C(AC-RIGHT)) INTO E.  IN THIS CASE,
 41550					;AC IS PRELOADED WITH 2,,2 AND AC2 [C(AC-RIGHT)] IS PRELOADED WITH 0,,17.
 41551					;E IS CLEARED AND POP IS EXECUTED.  E IS THEN CHECKED FOR 0,,17 [C(C(AC-RIGHT))] .
 41552					;IF C(E)=0,,17, THIS TEST PASSES.
 41553
 41554	056610	402 00 0 00 000002 	C32600:	SETZM	2		;CLEAR E
 41555	056611	200 00 0 00 070440 		MOVE	[XWD 2,2]	;PRELOAD AC WITH 2,,2
 41556	056612	201 02 0 00 000017 		MOVEI	2,17		;PRELOAD C(AC-RIGHT) WITH 0,,17
 41557	056613	262 00 0 00 000002 		POP	2		;*POP SHOULD PLACE 0,,17 INTO E
 41558	056614	302 02 0 00 000017 		CAIE	2,17		;PASS IF C(E)=0,,17
 41559						STOP^
 41560	056615	254 04 0 00 056616 		HALT	.+1		;TEST FAILED IF PROGRAM HALTS HERE
 41561	056616	324 00 0 00 056617 		JUMPA	.+1		;IF TEST FAILS, CHANGE THIS INSTRUCTION (JUMPA .+1) TO
 41562									;JUMPA X (X IS THE ADDRESS OF THE FIRST INSTRUCTION
 41563									;IN THE SUBTEST) TO LOOP ON ERROR^
 41564
 41565					;**********
DFKAA PDP-10 KL10 BASIC INSTRUCTION DIAGNOSTIC (1) VER 0,2	MACRO %53B(1254)-4 11:50 11-Nov-24 Page 15
DFKAA7	MAC	13-Jan-89 10:22		TEST OF POP INSTRUCTION

 41566					;THIS TEST VERIFIES THAT POP STORES C(C(AC-RIGHT)) INTO E.  IN THIS CASE,
 41567					;AC IS PRELOADED WITH 2,,2 AND AC2 [C(AC-RIGHT)] IS PRELOADED WITH -1,,-1.
 41568					;E IS CLEARED AND POP IS EXECUTED.  E IS THEN CHECKED FOR -1,,-1 [C(C(AC-RIGHT))] .
 41569					;IF C(E)=0,,3, THIS TEST PASSES.
 41570
 41571	056617	200 00 0 00 070440 	C33100:	MOVE	[XWD 2,2]	;PRELOAD AC WITH 2,,2
 41572	056620	476 00 0 00 000002 		SETOM	2		;PRELOAD C(AC-RIGHT) WITH -1,,-1
 41573	056621	402 00 0 00 000003 		SETZM	3		;CLEAR E
 41574	056622	262 00 0 00 000003 		POP	3		;*POP SHOULD PLACE -1,,-1 INTO E
 41575	056623	312 03 0 00 070254 		CAME	3,[-1]		;PASS IF C(E)=-1,,-1
 41576						STOP^
 41577	056624	254 04 0 00 056625 		HALT	.+1		;TEST FAILED IF PROGRAM HALTS HERE
 41578	056625	324 00 0 00 056626 		JUMPA	.+1		;IF TEST FAILS, CHANGE THIS INSTRUCTION (JUMPA .+1) TO
 41579									;JUMPA X (X IS THE ADDRESS OF THE FIRST INSTRUCTION
 41580									;IN THE SUBTEST) TO LOOP ON ERROR^
 41581
 41582					;**********
 41583
 41584					;THIS TEST VERIFIES THAT POP PLACES C(C(AC-RIGHT)) INTO E AND ADDS 1,,1 TO AC.
 41585					;IN THIS CASE, THE AC IS PRELOADED WITH 1,,17; E=1 AND E IS PRELOADED WITH 0;
 41586					;C(AC-RIGHT) IS PRELOADED WITH -1,,-1; AND POP IS EXECUTED.  POP SHOULD PLACE -1,,-1
 41587					;INTO E AND 0,,16 INTO AC.  IF AC AND E ARE UPDATED CORRECTLY, THIS TEST PASSES.
 41588
 41589	056626	200 00 0 00 071014 	C33300:	MOVE	[XWD 1,17]	;PRELOAD AC WITH 1,,17
 41590	056627	402 00 0 00 000001 		SETZM	1		;PRELOAD E WITH 0
 41591	056630	476 00 0 00 000017 		SETOM	17		;PRELOAD C(AC-RIGHT) WITH 1,,1
 41592	056631	262 00 0 00 000001 		POP	1		;*POP SHOULD PLACE -1,,-1 INTO E AND 0,,16 INTO AC
 41593	056632	312 01 0 00 070254 		CAME	1,[-1]		;PASS IF C(E)=-1,,-1
 41594						STOP^
 41595	056633	254 04 0 00 056634 		HALT	.+1		;TEST FAILED IF PROGRAM HALTS HERE
 41596	056634	324 00 0 00 056635 		JUMPA	.+1		;IF TEST FAILS, CHANGE THIS INSTRUCTION (JUMPA .+1) TO
 41597									;JUMPA X (X IS THE ADDRESS OF THE FIRST INSTRUCTION
 41598									;IN THE SUBTEST) TO LOOP ON ERROR^
 41599	056635	302 00 0 00 000016 	C33310:	CAIE	16		;PASS IF C(AC)=0,,16
 41600						STOP^
 41601	056636	254 04 0 00 056637 		HALT	.+1		;TEST FAILED IF PROGRAM HALTS HERE
 41602	056637	324 00 0 00 056640 		JUMPA	.+1		;IF TEST FAILS, CHANGE THIS INSTRUCTION (JUMPA .+1) TO
 41603									;JUMPA X (X IS THE ADDRESS OF THE FIRST INSTRUCTION
 41604									;IN THE SUBTEST) TO LOOP ON ERROR^
 41605
 41606					;**********
DFKAA PDP-10 KL10 BASIC INSTRUCTION DIAGNOSTIC (1) VER 0,2	MACRO %53B(1254)-4 11:50 11-Nov-24 Page 16
DFKAA7	MAC	13-Jan-89 10:22		TEST OF POP INSTRUCTION

 41607					;THIS TEST VERIFIES THAT POP PLACES C(C(AC-RIGHT)) INTO E AND ADDS 1,,1 TO AC
 41608					;IN THIS CASE, THE AC IS PRELOADED WITH -1,,0; E=17
 41609					;C(AC-RIGHT) IS PRELOADED WITH 0; AND POP IS EXECUTED.  POP SHOULD PLACE 0
 41610					;INTO E.  IF AC IS UPDATED CORRECTLY, THIS TEST PASSES.
 41611
 41612	056640	205 01 0 00 777777 	C33400:	MOVSI	1,-1		;PRELOAD AC WITH -1,,0
 41613	056641	400 00 0 00 000000 		SETZ			;CLEAR C(AC-RIGHT)
 41614	056642	262 01 0 00 000017 		POP	1,17		;*POP SHOULD PLACE 0 INTO E
 41615	056643	332 00 0 00 000017 		SKIPE	17		;PASS IF C(E)=0
 41616						STOP^
 41617	056644	254 04 0 00 056645 		HALT	.+1		;TEST FAILED IF PROGRAM HALTS HERE
 41618	056645	324 00 0 00 056646 		JUMPA	.+1		;IF TEST FAILS, CHANGE THIS INSTRUCTION (JUMPA .+1) TO
 41619									;JUMPA X (X IS THE ADDRESS OF THE FIRST INSTRUCTION
 41620									;IN THE SUBTEST) TO LOOP ON ERROR^
 41621
 41622					;**********
 41623
 41624					;THIS TEST VERIFIES THAT THERE IS NO CARRY FROM BIT 18 TO BIT 17 OF THE AC ON POP.
 41625					;THE AC IS PRELOADED WITH 1,,0; THEN POP IS EXECUTED. POP SHOULD SUBTRACT ONE
 41626					;FROM BOTH HALVES OF THE AC WITHOUT GENERATING A CARRY FROM BIT 18 TO BIT 17. IF NO
 41627					;CARRY WAS GENERATED, THIS TEST PASSES
 41628
 41629	056646	515 02 0 00 000001 	C33401:	HRLZI	2,1		;PRELOAD AC WITH 1,,0
 41630	056647	262 02 0 00 000000 		POP	2,0		;*POP SHOULD NOT GENERATE A CARRY FROM BIT 18 TO 17
 41631	056650	302 02 0 00 777777 		CAIE	2,-1		;PASS IF C(AC)=0,,-1 (NO CARRY WAS GENERATED)
 41632						STOP^
 41633	056651	254 04 0 00 056652 		HALT	.+1		;TEST FAILED IF PROGRAM HALTS HERE
 41634	056652	324 00 0 00 056653 		JUMPA	.+1		;IF TEST FAILS, CHANGE THIS INSTRUCTION (JUMPA .+1) TO
 41635									;JUMPA X (X IS THE ADDRESS OF THE FIRST INSTRUCTION
 41636									;IN THE SUBTEST) TO LOOP ON ERROR^
 41637
 41638					;**********
DFKAA PDP-10 KL10 BASIC INSTRUCTION DIAGNOSTIC (1) VER 0,2	MACRO %53B(1254)-4 11:50 11-Nov-24 Page 17
DFKAA7	MAC	13-Jan-89 10:22		TEST OF POPJ INSTRUCTION

 41639					SUBTTL	TEST OF POPJ INSTRUCTION
 41640
 41641					;**********
 41642
 41643					;THIS TEST VERIFIES THAT POPJ JUMPS TO THE LOCATION ADDRESSED BY RIGHT HALF OF
 41644					;C(C(AC-RIGHT)) BEFORE POPJ DECREMENTED THE AC.
 41645					;THIS TEST PASSES IF POPJ JUMPS CORRECTLY.
 41646
 41647	056653	200 00 0 00 070251 	C33500:	MOVE	[XWD 1,1]	;PRELOAD AC WITH 1,,1
 41648	056654	201 01 0 00 056657 		MOVEI	1,.+3		;PRELOAD C(AC-RIGHT) WITH .+3
 41649	056655	263 00 0 00 056657 		POPJ	.+2		;*POPJ SHOULD JUMP TO LOCATION
 41650									;ADDRESSED BY C(C(AC-RIGHT))
 41651						STOP^
 41652	056656	254 04 0 00 056657 		HALT	.+1		;TEST FAILED IF PROGRAM HALTS HERE
 41653	056657	324 00 0 00 056660 		JUMPA	.+1		;IF TEST FAILS, CHANGE THIS INSTRUCTION (JUMPA .+1) TO
 41654									;JUMPA X (X IS THE ADDRESS OF THE FIRST INSTRUCTION
 41655									;IN THE SUBTEST) TO LOOP ON ERROR^
 41656
 41657					;**********
 41658
 41659					;THIS TEST VERIFIES THAT POPJ SUBTRACTS 1,,1 FROM THE AC
 41660					;THIS AC IS PRELOADED WITH 1,,1; THEN,POPJ IS EXECUTED.
 41661					;THE AC IS CHECKED FOR 0.  IF C(AC)=0, THIS TEST PASSES.
 41662
 41663	056660	200 00 0 00 070251 	C33600:	MOVE	[XWD 1,1]	;PRELOAD AC WITH 1,,1
 41664	056661	201 01 0 00 056663 		MOVEI	1,.+2		;PRELOAD C(AC-NIGHT)WITH .+2
 41665	056662	263 00 0 00 056663 		POPJ	.+1		;*POPJ SHOULD SUBTRACT 1,,1 FROM AC
 41666	056663	312 00 0 00 070253 		CAME	[0]		;PASS IF C(AC)=0
 41667						STOP^
 41668	056664	254 04 0 00 056665 		HALT	.+1		;TEST FAILED IF PROGRAM HALTS HERE
 41669	056665	324 00 0 00 056666 		JUMPA	.+1		;IF TEST FAILS, CHANGE THIS INSTRUCTION (JUMPA .+1) TO
 41670									;JUMPA X (X IS THE ADDRESS OF THE FIRST INSTRUCTION
 41671									;IN THE SUBTEST) TO LOOP ON ERROR^
 41672
 41673					;**********
DFKAA PDP-10 KL10 BASIC INSTRUCTION DIAGNOSTIC (1) VER 0,2	MACRO %53B(1254)-4 11:50 11-Nov-24 Page 18
DFKAA7	MAC	13-Jan-89 10:22		TEST OF POPJ INSTRUCTION

 41674					;THIS TEST VERIFIES THAT POPJ JUMPS TO THE LOCATION ADDRESSED BY RIGHT HALF OF
 41675					;C(C(AC-RIGHT)) BEFORE POPJ DECREMENTED THE AC.
 41676					;THIS TEST PASSES IF POPJ JUMPS CORRECTLY.
 41677
 41678	056666	200 00 0 00 070251 	C33700:	MOVE	[XWD 1,1]	;PRELOAD AC WITH 1,,1
 41679	056667	201 01 0 00 056671 		MOVEI	1,.+2		;PRELOAD C(AC-RIGHT) WITH C33700+3
 41680
 41681	056670	263 00 0 00 056672 		POPJ	.+2		;*POPJ SHOULD JUMP TO C33700+3
 41682	056671	334 00 0 00 000000 		SKIPA			;PASS IF POPJ JUMPED CORRECTLY
 41683						STOP^
 41684	056672	254 04 0 00 056673 		HALT	.+1		;TEST FAILED IF PROGRAM HALTS HERE
 41685	056673	324 00 0 00 056674 		JUMPA	.+1		;IF TEST FAILS, CHANGE THIS INSTRUCTION (JUMPA .+1) TO
 41686									;JUMPA X (X IS THE ADDRESS OF THE FIRST INSTRUCTION
 41687									;IN THE SUBTEST) TO LOOP ON ERROR^
 41688
 41689					;**********
 41690
 41691					;THIS TEST VERIFIES THAT THERE IS NO CARRY FROM BIT 18 TO BIT 17 OF THE AC ON POPJ.
 41692					;THE AC IS PRELOADED WITH 1,,0; THEN POPJ IS EXECUTED. POPJ SHOULD SUBTRACT ONE
 41693					;FROM BOTH HALVES OF THE AC WITHOUT GENERATING A CARRY FROM BIT 18 TO BIT 17. IF NO
 41694					;CARRY WAS GENERATED, THIS TEST PASSES
 41695
 41696	056674	515 02 0 00 000001 	C33701:	HRLZI	2,1		;PRELOAD AC WITH 1,,0
 41697	056675	201 00 0 00 056677 		MOVEI	0,.+2		;PRELOAD C(AC-RIGHT) WITH  C33701+3
 41698	056676	263 02 0 00 000000 		POPJ	2,0		;*POPJ SHOULD NOT GENERATE A CARRY FROM BIT 18 TO 17
 41699	056677	302 02 0 00 777777 		CAIE	2,-1		;PASS IF C(AC)=0,,-1 (NO CARRY WAS GENERATED)
 41700						STOP^
 41701	056700	254 04 0 00 056701 		HALT	.+1		;TEST FAILED IF PROGRAM HALTS HERE
 41702	056701	324 00 0 00 056702 		JUMPA	.+1		;IF TEST FAILS, CHANGE THIS INSTRUCTION (JUMPA .+1) TO
 41703									;JUMPA X (X IS THE ADDRESS OF THE FIRST INSTRUCTION
 41704									;IN THE SUBTEST) TO LOOP ON ERROR^
 41705
 41706					;**********
DFKAA PDP-10 KL10 BASIC INSTRUCTION DIAGNOSTIC (1) VER 0,2	MACRO %53B(1254)-4 11:50 11-Nov-24 Page 19
DFKAA7	MAC	13-Jan-89 10:22		XCT INSTRUCTION - ADDITIONAL TESTS

 41707					SUBTTL	XCT INSTRUCTION - ADDITIONAL TESTS
 41708
 41709					;**********
 41710
 41711					;THIS TEST VERIFIES THAT IF AN XCT EXECUTES A SKIP INSTRUCTION, THE SKIP IS RELATIVE
 41712					;TO THE LOCATION OF THE XCT.
 41713
 41714	056702	477 00 0 00 000001 	C34000:	SETOB	1
 41715	056703	256 00 0 00 071015 		XCT	[CAME 0,1]	;*CAME SHOULD SKIP TO C34000+3
 41716						STOP^
 41717	056704	254 04 0 00 056705 		HALT	.+1		;TEST FAILED IF PROGRAM HALTS HERE
 41718	056705	324 00 0 00 056706 		JUMPA	.+1		;IF TEST FAILS, CHANGE THIS INSTRUCTION (JUMPA .+1) TO
 41719									;JUMPA X (X IS THE ADDRESS OF THE FIRST INSTRUCTION
 41720									;IN THE SUBTEST) TO LOOP ON ERROR^
 41721
 41722					;**********
 41723
 41724					;THIS TEST VERIFIES THAT IF AN XCT EXECUTES A SKIP INSTRUCTION, THE SKIP IS RELATIVE
 41725					;TO THE LOCATION OF THE XCT.
 41726
 41727	056706	477 00 0 00 000001 	C34100:	SETOB	1
 41728	056707	256 00 0 00 071017 		XCT	[XCT[XCT[CAME 0,1]]]	;*CAME SHOULD SKIP TO C34100+3
 41729						STOP^
 41730	056710	254 04 0 00 056711 		HALT	.+1		;TEST FAILED IF PROGRAM HALTS HERE
 41731	056711	324 00 0 00 056712 		JUMPA	.+1		;IF TEST FAILS, CHANGE THIS INSTRUCTION (JUMPA .+1) TO
 41732									;JUMPA X (X IS THE ADDRESS OF THE FIRST INSTRUCTION
 41733									;IN THE SUBTEST) TO LOOP ON ERROR^
 41734
 41735					;**********
DFKAA PDP-10 KL10 BASIC INSTRUCTION DIAGNOSTIC (1) VER 0,2	MACRO %53B(1254)-4 11:50 11-Nov-24 Page 20
DFKAA7	MAC	13-Jan-89 10:22		XCT INSTRUCTION - ADDITIONAL TESTS

 41736					;THIS TEST VERIFIES THAT IF AN XCT EXECUTES A JUMP, PROGRAM FLOW IS ALTERED AS
 41737					;SPECIFIED BY THE JUMP.
 41738
 41739	056712	256 00 0 00 071020 	C34200:	XCT	[JRST .+4]	;*JRST SHOULD JUMP TO C34200+4
 41740
 41741	056713	254 04 0 00 000000 		HALT			;JRST SHOULD JUMP OVER THIS LOCATION
 41742	056714	254 04 0 00 000000 		HALT			;JRST SHOULD JUMP OVER THIS LOCATION
 41743						STOP^
 41744	056715	254 04 0 00 056716 		HALT	.+1		;TEST FAILED IF PROGRAM HALTS HERE
 41745	056716	324 00 0 00 056717 		JUMPA	.+1		;IF TEST FAILS, CHANGE THIS INSTRUCTION (JUMPA .+1) TO
 41746									;JUMPA X (X IS THE ADDRESS OF THE FIRST INSTRUCTION
 41747									;IN THE SUBTEST) TO LOOP ON ERROR^
 41748
 41749					;**********
 41750
 41751					;THIS TEST VERIFIES THAT IF AN XCT EXECUTES A JUMP, PROGRAM FLOW IS ALTERED AS
 41752					;SPECIFIED BY THE JUMP AND THAT WHEN THE PC IS SAVED IT CONTAINS AN
 41753					;ADDRESS ONE GREATER THAN THE LOCATION OF FIRST XCT OF THE CHAIN.
 41754
 41755	056717	402 00 0 00 000003 	C34300:	SETZM	3		;CLEAR AC OF JSP
 41756	056720	256 00 0 00 071023 		XCT	[XCT[XCT[JSP 3,.+3]]] ;*JSP SHOULD JUMP TO C34300+4 AND
 41757	056721	254 04 0 00 000000 		HALT			;THE SAVED PC SHOULD BE C 34300+2
 41758	056722	254 04 0 00 000000 		HALT			;PASS IF JSP JUMPED CORRECTLY
 41759	056723	620 03 0 00 056721 		TRZ	3,.-2		;AND SAVED PC=C34300+2
 41760	056724	602 03 0 00 777777 		TRNE	3,-1
 41761						STOP^
 41762	056725	254 04 0 00 056726 		HALT	.+1		;TEST FAILED IF PROGRAM HALTS HERE
 41763	056726	324 00 0 00 056727 		JUMPA	.+1		;IF TEST FAILS, CHANGE THIS INSTRUCTION (JUMPA .+1) TO
 41764									;JUMPA X (X IS THE ADDRESS OF THE FIRST INSTRUCTION
 41765									;IN THE SUBTEST) TO LOOP ON ERROR^
 41766
 41767					;**********
DFKAA PDP-10 KL10 BASIC INSTRUCTION DIAGNOSTIC (1) VER 0,2	MACRO %53B(1254)-4 11:50 11-Nov-24 Page 21
DFKAA7	MAC	13-Jan-89 10:22		XCT INSTRUCTION - ADDITIONAL TESTS

 41768					;THIS TEST VERIFIES THAT IF AN XCT EXECUTES A SKIP INSTRUCTION, THE SKIP IS RELATIVE
 41769					;TO THE LOCATION OF THE XCT.
 41770					;IN THIS CASE, NO SKIP SHOULD OCCUR  ;HENCE, THE INSTRUCTION
 41771					;FOLLOWING XCT SHOULD BE EXECUTED AFTER 'CAME' IS EXECUTED.
 41772
 41773	056727	403 00 0 00 000000 	C34400:	SETZB	0		;SET-UP AC,E SO THAT
 41774	056730	476 00 0 00 000001 		SETOM	1		;CAME WILL NOT SKIP
 41775	056731	256 00 0 00 071015 		XCT	[CAME 0,1]	;*CAME SHOULD CAUSE EXECUTION
 41776									;OF INSTRUCTION FOLLOWING XCT
 41777	056732	254 00 0 00 056734 		JRST	.+2		;PASS IF THIS INSTRUCTION IS EXECUTED
 41778						STOP^
 41779	056733	254 04 0 00 056734 		HALT	.+1		;TEST FAILED IF PROGRAM HALTS HERE
 41780	056734	324 00 0 00 056735 		JUMPA	.+1		;IF TEST FAILS, CHANGE THIS INSTRUCTION (JUMPA .+1) TO
 41781									;JUMPA X (X IS THE ADDRESS OF THE FIRST INSTRUCTION
 41782									;IN THE SUBTEST) TO LOOP ON ERROR^
 41783
 41784					;**********
 41785
 41786					;THIS TEST VERIFIES INDEXING FOR XCT OF AN ADD INSTRUCTION
 41787					;C(4)=10, AND C(6)=3, SO THE RESULT IN 6 (THE AC) SHOULD BE 16
 41788					;C(11)=13
 41789
 41790	056735	201 04 0 00 000010 	C34500:	MOVEI	4,10		;PRELOAD INDEX REG WITH 10
 41791	056736	201 11 0 00 000013 		MOVEI	11,13		;PRELOAD EFFECTIVE ADDRESS WITH 13
 41792	056737	201 06 0 00 000003 		MOVEI	6,3		;PRELOAD AC WITH 3
 41793	056740	256 00 0 00 071024 		XCT	[ADD 6,1(4)]	;*ADD SHOULD PLACE 16 IN AC
 41794	056741	302 06 0 00 000016 		CAIE	6,16		;PASS IF C(AC)=16
 41795						STOP^
 41796	056742	254 04 0 00 056743 		HALT	.+1		;TEST FAILED IF PROGRAM HALTS HERE
 41797	056743	324 00 0 00 056744 		JUMPA	.+1		;IF TEST FAILS, CHANGE THIS INSTRUCTION (JUMPA .+1) TO
 41798									;JUMPA X (X IS THE ADDRESS OF THE FIRST INSTRUCTION
 41799									;IN THE SUBTEST) TO LOOP ON ERROR^
 41800
 41801					;**********
DFKAA PDP-10 KL10 BASIC INSTRUCTION DIAGNOSTIC (1) VER 0,2	MACRO %53B(1254)-4 11:50 11-Nov-24 Page 22
DFKAA7	MAC	13-Jan-89 10:22		XCT INSTRUCTION - ADDITIONAL TESTS

 41802					;THIS TEST VERIFIES THAT IF AN XCT EXECUTES A SKIP INSTRUCTION, THE SKIP IS RELATIVE
 41803					;TO THE LOCATION OF THE XCT
 41804					;IN THIS CASE, NO SKIP SHOULD OCCUR  ;HENCE, THE INSTRUCTION
 41805					;FOLLOWING XCT SHOULD BE EXECUTED AFTER CAME IS EXECUTED.
 41806
 41807	056744	402 00 0 00 000002 	C34600:	SETZM	2		;SETUP E SO THAT SKIPL WILL NOT SKIP
 41808	056745	256 00 0 00 071025 		XCT	[SKIPL 1,2]	;*SKIPL SHOULD CAUSE INSTRUCTION
 41809									;OF FOLLOWING INSTRUCTION
 41810	056746	254 00 0 00 056750 		JRST	.+2		;PASS IF THIS INSTRUCTION IS EXECUTED.
 41811						STOP^
 41812	056747	254 04 0 00 056750 		HALT	.+1		;TEST FAILED IF PROGRAM HALTS HERE
 41813	056750	324 00 0 00 056751 		JUMPA	.+1		;IF TEST FAILS, CHANGE THIS INSTRUCTION (JUMPA .+1) TO
 41814									;JUMPA X (X IS THE ADDRESS OF THE FIRST INSTRUCTION
 41815									;IN THE SUBTEST) TO LOOP ON ERROR^
 41816	056751	332 00 0 00 000001 	C34610:	SKIPE	1		;*SKIPE SHOULD SKIP BECAUSE XCT OF SKIPL
 41817									;PLACED 0 INTO AC1
 41818						STOP^
 41819	056752	254 04 0 00 056753 		HALT	.+1		;TEST FAILED IF PROGRAM HALTS HERE
 41820	056753	324 00 0 00 056754 		JUMPA	.+1		;IF TEST FAILS, CHANGE THIS INSTRUCTION (JUMPA .+1) TO
 41821									;JUMPA X (X IS THE ADDRESS OF THE FIRST INSTRUCTION
 41822									;IN THE SUBTEST) TO LOOP ON ERROR^
 41823
 41824					;**********
 41825
 41826					;THIS TEST VERIFIES THAT IF AN XCT EXECUTES A SKIP INSTRUCTION, THE SKIP IS RELATIVE
 41827					;TO THE LOCATION OF THE XCT.
 41828
 41829	056754	476 00 0 00 000006 	C34700:	SETOM	6		;SETUP E SO THAT SKIPL WILL SKIP
 41830	056755	256 00 0 00 071026 		XCT	[SKIPL 3,6]	;*SKIPL SHOULD SKIP TO C34700+3
 41831						STOP^
 41832	056756	254 04 0 00 056757 		HALT	.+1		;TEST FAILED IF PROGRAM HALTS HERE
 41833	056757	324 00 0 00 056760 		JUMPA	.+1		;IF TEST FAILS, CHANGE THIS INSTRUCTION (JUMPA .+1) TO
 41834									;JUMPA X (X IS THE ADDRESS OF THE FIRST INSTRUCTION
 41835									;IN THE SUBTEST) TO LOOP ON ERROR^
 41836	056760	331 00 0 00 000003 	C34710:	SKIPL	3		;*SKIPE SHOULD SKIP BECAUSE XCT OF SKIPL
 41837									;PLACED 0 INTO AC1
 41838						STOP^
 41839	056761	254 04 0 00 056762 		HALT	.+1		;TEST FAILED IF PROGRAM HALTS HERE
 41840	056762	324 00 0 00 056763 		JUMPA	.+1		;IF TEST FAILS, CHANGE THIS INSTRUCTION (JUMPA .+1) TO
 41841									;JUMPA X (X IS THE ADDRESS OF THE FIRST INSTRUCTION
 41842									;IN THE SUBTEST) TO LOOP ON ERROR^
 41843
 41844					;**********
DFKAA PDP-10 KL10 BASIC INSTRUCTION DIAGNOSTIC (1) VER 0,2	MACRO %53B(1254)-4 11:50 11-Nov-24 Page 23
DFKAA7	MAC	13-Jan-89 10:22		XCT INSTRUCTION - ADDITIONAL TESTS

 41845					;THIS TEST VERIFIES THAT IF AN XCT EXECUTES A JUMP, PROGRAM FLOW IS ALTERED AS
 41846					;SPECIFIED BY THE JUMP.
 41847					;THIS TEST ALSO VERIFIES CORRECT UPDATING OF THE AC FOR AOBJN
 41848
 41849	056763	200 03 0 00 071027 	C35000:	MOVE	3,[-2,,5]	;SETUP AC SO THAT AOBJN WILL JUMP
 41850	056764	256 00 0 00 071030 		XCT	[AOBJN 3,.+3]	;*JUMP SHOULD BE TO C35000+4
 41851	056765	254 04 0 00 000000 		HALT			;JUMP OVER THIS INSTRUCTION
 41852	056766	254 04 0 00 000000 		HALT			;JUMP OVER THIS INSTRUCTION
 41853	056767	312 03 0 00 071031 		CAME	3,[-1,,6]	;PASS IF C(AC)=-1,,6 AND AOBJN JUMPED
 41854						STOP^
 41855	056770	254 04 0 00 056771 		HALT	.+1		;TEST FAILED IF PROGRAM HALTS HERE
 41856	056771	324 00 0 00 056772 		JUMPA	.+1		;IF TEST FAILS, CHANGE THIS INSTRUCTION (JUMPA .+1) TO
 41857									;JUMPA X (X IS THE ADDRESS OF THE FIRST INSTRUCTION
 41858									;IN THE SUBTEST) TO LOOP ON ERROR^
 41859
 41860					;**********
 41861
 41862					;THIS TEST VERIFIES THAT IF AN XCT EXECUTES A JUMP, PROGRAM FLOW IS ALTERED AS
 41863					;SPECIFIED BY THE JUMP.
 41864					;THIS TEST ALSO VERIFIES CORRECT UPDATING OF THE AC FOR AOBJN
 41865
 41866	056772	200 03 0 00 071031 	C35100:	MOVE	3,[-1,,6]	;SETUP AC SO THAT AOBJN WILL NOT JUMP
 41867	056773	256 00 0 00 071032 		XCT	[AOBJN 3,.+2]	;*AOBJN SHOULD NOT JUMP
 41868	056774	312 03 0 00 071033 		CAME	3,[0,,7]	;PASS IF AOBJN DID NOT JUMP AND C(AC)=0,,7
 41869						STOP^
 41870	056775	254 04 0 00 056776 		HALT	.+1		;TEST FAILED IF PROGRAM HALTS HERE
 41871	056776	324 00 0 00 056777 		JUMPA	.+1		;IF TEST FAILS, CHANGE THIS INSTRUCTION (JUMPA .+1) TO
 41872									;JUMPA X (X IS THE ADDRESS OF THE FIRST INSTRUCTION
 41873									;IN THE SUBTEST) TO LOOP ON ERROR^
 41874
 41875					;**********
DFKAA PDP-10 KL10 BASIC INSTRUCTION DIAGNOSTIC (1) VER 0,2	MACRO %53B(1254)-4 11:50 11-Nov-24 Page 24
DFKAA7	MAC	13-Jan-89 10:22		TEST XCT INSTRUCTION WITH INDIRECT ADDRESSING AND INDEXING

 41876					SUBTTL	TEST XCT INSTRUCTION WITH INDIRECT ADDRESSING AND INDEXING
 41877
 41878					;**********
 41879
 41880					;THIS TEST VERIFIES THAT XCT WILL EXECUTE AN INSTRUCTION
 41881					;FROM AN INDIRECTLY ADDRESSED LOCATION
 41882
 41883	056777	403 00 0 00 000002 	C35200:	SETZB	2
 41884	057000	254 00 0 00 057003 		JRST	.+3
 41885	057001	000000	057002				.+1
 41886	057002	476 00 0 00 000002 		SETOM	2		;THIS INSTRUCTION SHOULD BE EXECUTED
 41887	057003	256 00 1 00 057001 		XCT	@.-2
 41888	057004	312 02 0 00 070254 		CAME	2,[-1,,-1]	;PASS IF 'SETOM 2' WAS EXECUTED
 41889						STOP^
 41890	057005	254 04 0 00 057006 		HALT	.+1		;TEST FAILED IF PROGRAM HALTS HERE
 41891	057006	324 00 0 00 057007 		JUMPA	.+1		;IF TEST FAILS, CHANGE THIS INSTRUCTION (JUMPA .+1) TO
 41892									;JUMPA X (X IS THE ADDRESS OF THE FIRST INSTRUCTION
 41893									;IN THE SUBTEST) TO LOOP ON ERROR^
 41894
 41895					;**********
 41896
 41897					;THIS TEST VERIFIES THAT XCT WILL EXECUTE AN INSTRUCTION
 41898					;FROM AN INDEXED LOCATION
 41899
 41900	057007	201 04 0 00 057010 	C35300:	MOVEI	4,.+1
 41901	057010	254 00 0 00 057012 		JRST	.+2
 41902	057011	302 04 0 00 057010 		CAIE	4,.-1		;THIS INSTRUCTION SHOULD BE EXECUTED
 41903	057012	256 00 0 04 000001 		XCT	1(4)
 41904						STOP			^;PASS IF 'CAIE 4,,-1' WAS EXECUTED
 41905
 41906	057013	254 04 0 00 057014 		HALT	.+1		;TEST FAILED IF PROGRAM HALTS HERE
 41907	057014	324 00 0 00 057015 		JUMPA	.+1		;IF TEST FAILS, CHANGE THIS INSTRUCTION (JUMPA .+1) TO
 41908									;JUMPA X (X IS THE ADDRESS OF THE FIRST INSTRUCTION
 41909									;IN THE SUBTEST) TO LOOP ON ERROR
 41910
 41911					;**********
DFKAA PDP-10 KL10 BASIC INSTRUCTION DIAGNOSTIC (1) VER 0,2	MACRO %53B(1254)-4 11:50 11-Nov-24 Page 25
DFKAA7	MAC	13-Jan-89 10:22		TEST XCT INSTRUCTION WITH INDIRECT ADDRESSING AND INDEXING

 41912					;THIS TEST VERIFIES THAT XCT WILL EXECUTE AN INSTRUCTION
 41913					;FROM AN INDIRECTLY ADDRESSED AND INDEXED LOCATION
 41914
 41915	057015	402 00 0 00 000005 	C35400:	SETZM	5
 41916	057016	201 03 0 00 057021 		MOVEI	3,.+3
 41917	057017	254 00 0 00 057021 		JRST	.+2
 41918	057020	201 05 0 00 057023 		MOVEI	5,.+3
 41919	057021	256 00 1 03 777777 		XCT	@-1(3)
 41920	057022	254 00 0 00 057024 		JRST	.+2
 41921	057023	476 00 0 00 000005 		SETOM	5		;THIS INSTRUCTION SHOULD BE EXECUTED
 41922	057024	312 05 0 00 070254 		CAME	5,[-1,,-1]	;PASS IF 'SETOM 5' WAS EXECUTED
 41923						STOP^
 41924	057025	254 04 0 00 057026 		HALT	.+1		;TEST FAILED IF PROGRAM HALTS HERE
 41925	057026	324 00 0 00 057027 		JUMPA	.+1		;IF TEST FAILS, CHANGE THIS INSTRUCTION (JUMPA .+1) TO
 41926									;JUMPA X (X IS THE ADDRESS OF THE FIRST INSTRUCTION
 41927									;IN THE SUBTEST) TO LOOP ON ERROR^
 41928
 41929					;**********
 41930
 41931					;THIS TEST VERIFIES THAT XCT WILL EXECUTE AN INDIRECTLY ADDRESSED
 41932					;AND INDEXED INSTRUCTION
 41933
 41934	057027	402 00 0 00 000003 	C35500:	SETZM	3
 41935	057030	201 10 0 00 000003 		MOVEI	10,3
 41936	057031	254 00 0 00 057036 		JRST	.+5
 41937	057032	254 04 0 00 000000 		HALT
 41938	057033	254 04 0 00 000000 		HALT
 41939	057034	200 03 1 10 057032 		MOVE	3,@.-2(10)	;THIS INSTRUCTION SHOULD BE EXECUTED
 41940	057035	254 04 0 00 070547 		HALT	[0,,707070]
 41941	057036	256 00 0 00 057034 		XCT	.-2
 41942	057037	302 03 0 00 707070 		CAIE	3,707070	;PASS IF 'MOVE 3,@.-2(10)' WAS EXECUTED
 41943						STOP^
 41944	057040	254 04 0 00 057041 		HALT	.+1		;TEST FAILED IF PROGRAM HALTS HERE
 41945	057041	324 00 0 00 057042 		JUMPA	.+1		;IF TEST FAILS, CHANGE THIS INSTRUCTION (JUMPA .+1) TO
 41946									;JUMPA X (X IS THE ADDRESS OF THE FIRST INSTRUCTION
 41947									;IN THE SUBTEST) TO LOOP ON ERROR^
 41948
 41949					;**********
DFKAA PDP-10 KL10 BASIC INSTRUCTION DIAGNOSTIC (1) VER 0,2	MACRO %53B(1254)-4 11:50 11-Nov-24 Page 26
DFKAA7	MAC	13-Jan-89 10:22		TEST OF SHIFT/ROTATE INSTRUCTIONS USED IN THE ERROR HANDLER

 41950					SUBTTL	TEST OF SHIFT/ROTATE INSTRUCTIONS USED IN THE ERROR HANDLER
 41951
 41952					;**********
 41953
 41954					;THIS TEST VERIFIES THAT A ROT INSTRUCTION FUNCTIONS CORRECTLY.
 41955					;IN THIS CASE, 0,,0 SHOULD BE ROTATED RIGHT 3 BIT POSITIONS
 41956					;SO THAT FINAL C(AC)=0,,0.
 41957					;C(AC+1) SHOULD NOT BE AFFECTED.
 41958
 41959	057042	200 00 0 00 070253 	C35600:	MOVE	0,[0,,0]	;PRELOAD AC WITH 0,,0
 41960	057043	200 01 0 00 071034 		MOVE	1,[172737,,405060] ;PRELOAD AC+1 WITH 172737,,405060
 41961	057044	241 00 0 00 777775 		ROT	0,-3		;*ROT SHOULD ROTATE 0,,0 RIGHT 3 BIT POSITIONS
 41962	057045	312 00 0 00 070253 		CAME	0,[0,,0]	;PASS IF C(AC)=0,,0
 41963						STOP^
 41964	057046	254 04 0 00 057047 		HALT	.+1		;TEST FAILED IF PROGRAM HALTS HERE
 41965	057047	324 00 0 00 057050 		JUMPA	.+1		;IF TEST FAILS, CHANGE THIS INSTRUCTION (JUMPA .+1) TO
 41966									;JUMPA X (X IS THE ADDRESS OF THE FIRST INSTRUCTION
 41967									;IN THE SUBTEST) TO LOOP ON ERROR^
 41968	057050	312 01 0 00 071034 		CAME	1,[172737,,405060] ;PASS IF C(AC+1) NOT AFFECTED
 41969						STOP^
 41970	057051	254 04 0 00 057052 		HALT	.+1		;TEST FAILED IF PROGRAM HALTS HERE
 41971	057052	324 00 0 00 057053 		JUMPA	.+1		;IF TEST FAILS, CHANGE THIS INSTRUCTION (JUMPA .+1) TO
 41972									;JUMPA X (X IS THE ADDRESS OF THE FIRST INSTRUCTION
 41973									;IN THE SUBTEST) TO LOOP ON ERROR^
 41974
 41975					;**********
 41976
 41977					;THIS TEST VERIFIES THAT A ROT INSTRUCTION FUNCTIONS CORRECTLY.
 41978					;IN THIS CASE, -1,,-1 SHOULD BE ROTATED RIGHT 3 BIT POSITIONS
 41979					;SO THAT FINAL C(AC)=-1,,-1.
 41980					;C(AC+1) SHOULD NOT BE AFFECTED.
 41981
 41982	057053	200 00 0 00 070254 	C35700:	MOVE	0,[-1,,-1]	;PRELOAD AC WITH 0,,0
 41983	057054	200 01 0 00 071034 		MOVE	1,[172737,,405060] ;PRELOAD AC+1 WITH 172737,,405060
 41984	057055	241 00 0 00 777775 		ROT	0,-3		;*ROT SHOULD ROTATE -1,,-1 RIGHT 3 BIT POSITIONS
 41985	057056	312 00 0 00 070254 		CAME	0,[-1,,-1]	;PASS IF C(AC)=-1,,-1
 41986						STOP^
 41987	057057	254 04 0 00 057060 		HALT	.+1		;TEST FAILED IF PROGRAM HALTS HERE
 41988	057060	324 00 0 00 057061 		JUMPA	.+1		;IF TEST FAILS, CHANGE THIS INSTRUCTION (JUMPA .+1) TO
 41989									;JUMPA X (X IS THE ADDRESS OF THE FIRST INSTRUCTION
 41990									;IN THE SUBTEST) TO LOOP ON ERROR^
 41991	057061	312 01 0 00 071034 		CAME	1,[172737,,405060] ;PASS IF C(AC+1) NOT AFFECTED
 41992						STOP^
 41993	057062	254 04 0 00 057063 		HALT	.+1		;TEST FAILED IF PROGRAM HALTS HERE
 41994	057063	324 00 0 00 057064 		JUMPA	.+1		;IF TEST FAILS, CHANGE THIS INSTRUCTION (JUMPA .+1) TO
 41995									;JUMPA X (X IS THE ADDRESS OF THE FIRST INSTRUCTION
 41996									;IN THE SUBTEST) TO LOOP ON ERROR^
 41997
 41998					;**********
DFKAA PDP-10 KL10 BASIC INSTRUCTION DIAGNOSTIC (1) VER 0,2	MACRO %53B(1254)-4 11:50 11-Nov-24 Page 27
DFKAA7	MAC	13-Jan-89 10:22		TEST OF SHIFT/ROTATE INSTRUCTIONS USED IN THE ERROR HANDLER

 41999					;THIS TEST VERIFIES THAT A ROT INSTRUCTION FUNCTIONS CORRECTLY.
 42000					;IN THIS CASE, 252525,,252525 SHOULD BE ROTATED RIGHT 3 BIT POSITIONS
 42001					;SO THAT FINAL C(AC)=525252,,525252.
 42002					;C(AC+1) SHOULD NOT BE AFFECTED.
 42003
 42004	057064	200 00 0 00 070614 	C36000:	MOVE	0,[252525,,252525] ;PRELOAD AC WITH 252525,,252525
 42005	057065	200 01 0 00 071034 		MOVE	1,[172737,,405060] ;PRELOAD AC+1 WITH 172737,,405060
 42006	057066	241 00 0 00 777775 		ROT	0,-3		;*ROT SHOULD ROTATE 252525,,252525
 42007									;RIGHT 3 BIT POSITIONS
 42008	057067	312 00 0 00 071035 		CAME	0,[525252,,525252] ;PASS IF C(AC)=525252,,525252
 42009						STOP^
 42010	057070	254 04 0 00 057071 		HALT	.+1		;TEST FAILED IF PROGRAM HALTS HERE
 42011	057071	324 00 0 00 057072 		JUMPA	.+1		;IF TEST FAILS, CHANGE THIS INSTRUCTION (JUMPA .+1) TO
 42012									;JUMPA X (X IS THE ADDRESS OF THE FIRST INSTRUCTION
 42013									;IN THE SUBTEST) TO LOOP ON ERROR^
 42014	057072	312 01 0 00 071034 		CAME	1,[172737,,405060] ;PASS IF C(AC+1) NOT AFFECTED
 42015						STOP^
 42016	057073	254 04 0 00 057074 		HALT	.+1		;TEST FAILED IF PROGRAM HALTS HERE
 42017	057074	324 00 0 00 057075 		JUMPA	.+1		;IF TEST FAILS, CHANGE THIS INSTRUCTION (JUMPA .+1) TO
 42018									;JUMPA X (X IS THE ADDRESS OF THE FIRST INSTRUCTION
 42019									;IN THE SUBTEST) TO LOOP ON ERROR^
 42020
 42021					;**********
 42022
 42023					;THIS TEST VERIFIES THAT A ROT INSTRUCTION FUNCTIONS CORRECTLY.
 42024					;IN THIS CASE, 525252,,525252 SHOULD BE ROTATED RIGHT 3 BIT POSITIONS
 42025					;SO THAT FINAL C(AC)=252525,,252525.
 42026					;C(AC+1) SHOULD NOT BE AFFECTED.
 42027
 42028	057075	200 00 0 00 071035 	C36100:	MOVE	0,[525252,,525252] ;PRELOAD AC WITH 525252,,525252
 42029	057076	200 01 0 00 071034 		MOVE	1,[172737,,405060] ;PRELOAD AC+1 WITH 172737,,405060
 42030	057077	241 00 0 00 777775 		ROT	0,-3		;*ROT SHOULD ROTATE 525252,,525252
 42031									;RIGHT 3 BIT POSITIONS
 42032	057100	312 00 0 00 070614 		CAME	0,[252525,,252525] ;PASS IF C(AC)=252525,,252525
 42033						STOP^
 42034	057101	254 04 0 00 057102 		HALT	.+1		;TEST FAILED IF PROGRAM HALTS HERE
 42035	057102	324 00 0 00 057103 		JUMPA	.+1		;IF TEST FAILS, CHANGE THIS INSTRUCTION (JUMPA .+1) TO
 42036									;JUMPA X (X IS THE ADDRESS OF THE FIRST INSTRUCTION
 42037									;IN THE SUBTEST) TO LOOP ON ERROR^
 42038	057103	312 01 0 00 071034 		CAME	1,[172737,,405060] ;PASS IF C(AC+1) NOT AFFECTED
 42039						STOP^
 42040	057104	254 04 0 00 057105 		HALT	.+1		;TEST FAILED IF PROGRAM HALTS HERE
 42041	057105	324 00 0 00 057106 		JUMPA	.+1		;IF TEST FAILS, CHANGE THIS INSTRUCTION (JUMPA .+1) TO
 42042									;JUMPA X (X IS THE ADDRESS OF THE FIRST INSTRUCTION
 42043									;IN THE SUBTEST) TO LOOP ON ERROR^
 42044
 42045					;**********
DFKAA PDP-10 KL10 BASIC INSTRUCTION DIAGNOSTIC (1) VER 0,2	MACRO %53B(1254)-4 11:50 11-Nov-24 Page 28
DFKAA7	MAC	13-Jan-89 10:22		TEST OF SHIFT/ROTATE INSTRUCTIONS USED IN THE ERROR HANDLER

 42046					;THIS TEST VERIFIES THAT A ROT INSTRUCTION FUNCTIONS CORRECTLY.
 42047					;IN THIS CASE, 230703,,603700 SHOULD BE ROTATED RIGHT 3 BIT POSITIONS
 42048					;SO THAT FINAL C(AC)=023070,,360370.
 42049					;C(AC+1) SHOULD NOT BE AFFECTED.
 42050
 42051	057106	200 00 0 00 071036 	C36200:	MOVE	0,[230703,,603700] ;PRELOAD AC WITH 230703,,603700
 42052	057107	200 01 0 00 071034 		MOVE	1,[172737,,405060] ;PRELOAD AC+1 WITH 172737,,405060
 42053	057110	241 00 0 00 777775 		ROT	0,-3		;*ROT SHOULD ROTATE 230703,,603700
 42054									;RIGHT 3 BIT POSITIONS
 42055	057111	312 00 0 00 071037 		CAME	0,[023070,,360370] ;PASS IF C(AC)=023070,,360370
 42056						STOP^
 42057	057112	254 04 0 00 057113 		HALT	.+1		;TEST FAILED IF PROGRAM HALTS HERE
 42058	057113	324 00 0 00 057114 		JUMPA	.+1		;IF TEST FAILS, CHANGE THIS INSTRUCTION (JUMPA .+1) TO
 42059									;JUMPA X (X IS THE ADDRESS OF THE FIRST INSTRUCTION
 42060									;IN THE SUBTEST) TO LOOP ON ERROR^
 42061	057114	312 01 0 00 071034 		CAME	1,[172737,,405060] ;PASS IF C(AC+1) NOT AFFECTED
 42062						STOP^
 42063	057115	254 04 0 00 057116 		HALT	.+1		;TEST FAILED IF PROGRAM HALTS HERE
 42064	057116	324 00 0 00 057117 		JUMPA	.+1		;IF TEST FAILS, CHANGE THIS INSTRUCTION (JUMPA .+1) TO
 42065									;JUMPA X (X IS THE ADDRESS OF THE FIRST INSTRUCTION
 42066									;IN THE SUBTEST) TO LOOP ON ERROR^
 42067
 42068					;**********
 42069
 42070					;THIS TEST VERIFIES THAT A ROT INSTRUCTION FUNCTIONS CORRECTLY.
 42071					;IN THIS CASE, 007603,,607062 SHOULD BE ROTATED RIGHT 3 BIT POSITIONS
 42072					;SO THAT FINAL C(AC)=200760,,360706.
 42073					;C(AC+1) SHOULD NOT BE AFFECTED.
 42074
 42075	057117	200 00 0 00 071040 	C36300:	MOVE	0,[007603,,607062] ;PRELOAD AC WITH 007603,,607062
 42076	057120	200 01 0 00 071034 		MOVE	1,[172737,,405060] ;PRELOAD AC+1 WITH 172737,,405060
 42077	057121	241 00 0 00 777775 		ROT	0,-3		;*ROT SHOULD ROTATE 007603,,607062
 42078									;RIGHT 3 BIT POSITIONS
 42079	057122	312 00 0 00 071041 		CAME	0,[200760,,360706] ;PASS IF C(AC)=200760,,360706
 42080						STOP^
 42081	057123	254 04 0 00 057124 		HALT	.+1		;TEST FAILED IF PROGRAM HALTS HERE
 42082	057124	324 00 0 00 057125 		JUMPA	.+1		;IF TEST FAILS, CHANGE THIS INSTRUCTION (JUMPA .+1) TO
 42083									;JUMPA X (X IS THE ADDRESS OF THE FIRST INSTRUCTION
 42084									;IN THE SUBTEST) TO LOOP ON ERROR^
 42085	057125	312 01 0 00 071034 		CAME	1,[172737,,405060] ;PASS IF C(AC+1) NOT AFFECTED
 42086						STOP^
 42087	057126	254 04 0 00 057127 		HALT	.+1		;TEST FAILED IF PROGRAM HALTS HERE
 42088	057127	324 00 0 00 057130 		JUMPA	.+1		;IF TEST FAILS, CHANGE THIS INSTRUCTION (JUMPA .+1) TO
 42089									;JUMPA X (X IS THE ADDRESS OF THE FIRST INSTRUCTION
 42090									;IN THE SUBTEST) TO LOOP ON ERROR^
 42091
 42092					;**********
DFKAA PDP-10 KL10 BASIC INSTRUCTION DIAGNOSTIC (1) VER 0,2	MACRO %53B(1254)-4 11:50 11-Nov-24 Page 29
DFKAA7	MAC	13-Jan-89 10:22		TEST OF SHIFT/ROTATE INSTRUCTIONS USED IN THE ERROR HANDLER

 42093					;THIS TEST VERIFIES THAT A ROT INSTRUCTION FUNCTIONS CORRECTLY.
 42094					;IN THIS CASE, 0,,0 SHOULD BE ROTATED LEFT 15 BIT POSITIONS
 42095					;SO THAT FINAL C(AC)=0,,0.
 42096					;C(AC+1) SHOULD NOT BE AFFECTED.
 42097
 42098	057130	200 02 0 00 070253 	C36400:	MOVE	2,[0,,0]	;PRELOAD AC WITH 0,,0
 42099	057131	200 03 0 00 071034 		MOVE	3,[172737,,405060] ;PRELOAD AC+1 WITH 172737,,405060
 42100	057132	241 02 0 00 000015 		ROT	2,15		;*ROT SHOULD ROTATE 0,,0 LEFT 15 BIT POSITIONS
 42101	057133	312 02 0 00 070253 		CAME	2,[0,,0]	;PASS IF C(AC)=0,,0
 42102						STOP^
 42103	057134	254 04 0 00 057135 		HALT	.+1		;TEST FAILED IF PROGRAM HALTS HERE
 42104	057135	324 00 0 00 057136 		JUMPA	.+1		;IF TEST FAILS, CHANGE THIS INSTRUCTION (JUMPA .+1) TO
 42105									;JUMPA X (X IS THE ADDRESS OF THE FIRST INSTRUCTION
 42106									;IN THE SUBTEST) TO LOOP ON ERROR^
 42107	057136	312 03 0 00 071034 		CAME	3,[172737,,405060] ;PASS IF C(AC+1) NOT AFFECTED
 42108						STOP^
 42109	057137	254 04 0 00 057140 		HALT	.+1		;TEST FAILED IF PROGRAM HALTS HERE
 42110	057140	324 00 0 00 057141 		JUMPA	.+1		;IF TEST FAILS, CHANGE THIS INSTRUCTION (JUMPA .+1) TO
 42111									;JUMPA X (X IS THE ADDRESS OF THE FIRST INSTRUCTION
 42112									;IN THE SUBTEST) TO LOOP ON ERROR^
 42113
 42114					;**********
 42115
 42116					;THIS TEST VERIFIES THAT A ROT INSTRUCTION FUNCTIONS CORRECTLY.
 42117					;IN THIS CASE, -1,,-1 SHOULD BE ROTATED LEFT 15 BIT POSITIONS
 42118					;SO THAT FINAL C(AC)=-1,,-1.
 42119					;C(AC+1) SHOULD NOT BE AFFECTED.
 42120
 42121	057141	200 02 0 00 070254 	C36500:	MOVE	2,[-1,,-1]	;PRELOAD AC WITH -1,,-1
 42122	057142	200 03 0 00 071034 		MOVE	3,[172737,,405060] ;PRELOAD AC+1 WITH 172737,,405060
 42123	057143	241 02 0 00 000015 		ROT	2,15		;*ROT SHOULD ROTATE -1,,-1 LEFT 15 BIT POSITIONS
 42124	057144	312 02 0 00 070254 		CAME	2,[-1,,-1]	;PASS IF C(AC)=-1,,-1
 42125						STOP^
 42126	057145	254 04 0 00 057146 		HALT	.+1		;TEST FAILED IF PROGRAM HALTS HERE
 42127	057146	324 00 0 00 057147 		JUMPA	.+1		;IF TEST FAILS, CHANGE THIS INSTRUCTION (JUMPA .+1) TO
 42128									;JUMPA X (X IS THE ADDRESS OF THE FIRST INSTRUCTION
 42129									;IN THE SUBTEST) TO LOOP ON ERROR^
 42130	057147	312 03 0 00 071034 		CAME	3,[172737,,405060] ;PASS IF C(AC+1) NOT AFFECTED
 42131						STOP^
 42132	057150	254 04 0 00 057151 		HALT	.+1		;TEST FAILED IF PROGRAM HALTS HERE
 42133	057151	324 00 0 00 057152 		JUMPA	.+1		;IF TEST FAILS, CHANGE THIS INSTRUCTION (JUMPA .+1) TO
 42134									;JUMPA X (X IS THE ADDRESS OF THE FIRST INSTRUCTION
 42135									;IN THE SUBTEST) TO LOOP ON ERROR^
 42136
 42137					;**********
DFKAA PDP-10 KL10 BASIC INSTRUCTION DIAGNOSTIC (1) VER 0,2	MACRO %53B(1254)-4 11:50 11-Nov-24 Page 30
DFKAA7	MAC	13-Jan-89 10:22		TEST OF SHIFT/ROTATE INSTRUCTIONS USED IN THE ERROR HANDLER

 42138					;THIS TEST VERIFIES THAT A ROT INSTRUCTION FUNCTIONS CORRECTLY.
 42139					;IN THIS CASE, 252525,,252525 SHOULD BE ROTATED LEFT 15 BIT POSITIONS
 42140					;SO THAT FINAL C(AC)=525252,,525252.
 42141					;C(AC+1) SHOULD NOT BE AFFECTED.
 42142
 42143	057152	200 02 0 00 070614 	C36600:	MOVE	2,[252525,,252525] ;PRELOAD AC WITH 252525,,252525
 42144	057153	200 03 0 00 071034 		MOVE	3,[172737,,405060] ;PRELOAD AC+1 WITH 172737,,405060
 42145	057154	241 02 0 00 000015 		ROT	2,15		;*ROT SHOULD ROTATE 252525,,252525
 42146									;LEFT 15 BIT POSITIONS
 42147	057155	312 02 0 00 071035 		CAME	2,[525252,,525252] ;PASS IF C(AC)=525252,,525252
 42148						STOP^
 42149	057156	254 04 0 00 057157 		HALT	.+1		;TEST FAILED IF PROGRAM HALTS HERE
 42150	057157	324 00 0 00 057160 		JUMPA	.+1		;IF TEST FAILS, CHANGE THIS INSTRUCTION (JUMPA .+1) TO
 42151									;JUMPA X (X IS THE ADDRESS OF THE FIRST INSTRUCTION
 42152									;IN THE SUBTEST) TO LOOP ON ERROR^
 42153	057160	312 03 0 00 071034 		CAME	3,[172737,,405060] ;PASS IF C(AC+1) NOT AFFECTED
 42154						STOP^
 42155	057161	254 04 0 00 057162 		HALT	.+1		;TEST FAILED IF PROGRAM HALTS HERE
 42156	057162	324 00 0 00 057163 		JUMPA	.+1		;IF TEST FAILS, CHANGE THIS INSTRUCTION (JUMPA .+1) TO
 42157									;JUMPA X (X IS THE ADDRESS OF THE FIRST INSTRUCTION
 42158									;IN THE SUBTEST) TO LOOP ON ERROR^
 42159
 42160					;**********
 42161
 42162					;THIS TEST VERIFIES THAT A ROT INSTRUCTION FUNCTIONS CORRECTLY.
 42163					;IN THIS CASE, 525252,,525252 SHOULD BE ROTATED LEFT 15 BIT POSITIONS
 42164					;SO THAT FINAL C(AC)=252525,,252525.
 42165					;C(AC+1) SHOULD NOT BE AFFECTED.
 42166
 42167	057163	200 02 0 00 071035 	C36700:	MOVE	2,[525252,,525252] ;PRELOAD AC WITH 525252,,525252
 42168	057164	200 03 0 00 071034 		MOVE	3,[172737,,405060] ;PRELOAD AC+1 WITH 172737,,405060
 42169	057165	241 02 0 00 000015 		ROT	2,15		;*ROT SHOULD ROTATE 525252,,525252
 42170									;LEFT 15 BIT POSITIONS
 42171	057166	312 02 0 00 070614 		CAME	2,[252525,,252525] ;PASS IF C(AC)=252525,,252525
 42172						STOP^
 42173	057167	254 04 0 00 057170 		HALT	.+1		;TEST FAILED IF PROGRAM HALTS HERE
 42174	057170	324 00 0 00 057171 		JUMPA	.+1		;IF TEST FAILS, CHANGE THIS INSTRUCTION (JUMPA .+1) TO
 42175									;JUMPA X (X IS THE ADDRESS OF THE FIRST INSTRUCTION
 42176									;IN THE SUBTEST) TO LOOP ON ERROR^
 42177	057171	312 03 0 00 071034 		CAME	3,[172737,,405060] ;PASS IF C(AC+1) NOT AFFECTED
 42178						STOP^
 42179	057172	254 04 0 00 057173 		HALT	.+1		;TEST FAILED IF PROGRAM HALTS HERE
 42180	057173	324 00 0 00 057174 		JUMPA	.+1		;IF TEST FAILS, CHANGE THIS INSTRUCTION (JUMPA .+1) TO
 42181									;JUMPA X (X IS THE ADDRESS OF THE FIRST INSTRUCTION
 42182									;IN THE SUBTEST) TO LOOP ON ERROR^
 42183
 42184					;**********
DFKAA PDP-10 KL10 BASIC INSTRUCTION DIAGNOSTIC (1) VER 0,2	MACRO %53B(1254)-4 11:50 11-Nov-24 Page 31
DFKAA7	MAC	13-Jan-89 10:22		TEST OF SHIFT/ROTATE INSTRUCTIONS USED IN THE ERROR HANDLER

 42185					;THIS TEST VERIFIES THAT A ROT INSTRUCTION FUNCTIONS CORRECTLY.
 42186					;IN THIS CASE, 230703,,603700 SHOULD BE ROTATED LEFT 15 BIT POSITIONS
 42187					;SO THAT FINAL C(AC)074076,,004616.
 42188					;C(AC+1) SHOULD NOT BE AFFECTED.
 42189
 42190	057174	200 02 0 00 071036 	C37000:	MOVE	2,[230703,,603700] ;PRELOAD AC WITH 230703,,603700
 42191	057175	200 03 0 00 071034 		MOVE	3,[172737,,405060] ;PRELOAD AC+1 WITH 172737,,405060
 42192	057176	241 02 0 00 000015 		ROT	2,15		;*ROT SHOULD ROTATE 230703,,603700
 42193									;LEFT 15 BIT POSITIONS
 42194	057177	312 02 0 00 071042 		CAME	2,[074076,,004616] ;PASS IF C(AC)074076,,004616
 42195						STOP^
 42196	057200	254 04 0 00 057201 		HALT	.+1		;TEST FAILED IF PROGRAM HALTS HERE
 42197	057201	324 00 0 00 057202 		JUMPA	.+1		;IF TEST FAILS, CHANGE THIS INSTRUCTION (JUMPA .+1) TO
 42198									;JUMPA X (X IS THE ADDRESS OF THE FIRST INSTRUCTION
 42199									;IN THE SUBTEST) TO LOOP ON ERROR^
 42200	057202	312 03 0 00 071034 		CAME	3,[172737,,405060] ;PASS IF C(AC+1) NOT AFFECTED
 42201						STOP^
 42202	057203	254 04 0 00 057204 		HALT	.+1		;TEST FAILED IF PROGRAM HALTS HERE
 42203	057204	324 00 0 00 057205 		JUMPA	.+1		;IF TEST FAILS, CHANGE THIS INSTRUCTION (JUMPA .+1) TO
 42204									;JUMPA X (X IS THE ADDRESS OF THE FIRST INSTRUCTION
 42205									;IN THE SUBTEST) TO LOOP ON ERROR^
 42206
 42207					;**********
 42208
 42209					;THIS TEST VERIFIES THAT A ROT INSTRUCTION FUNCTIONS CORRECTLY.
 42210					;IN THIS CASE, 007603,,607062 SHOULD BE ROTATED LEFT 15 BIT POSITIONS
 42211					;SO THAT FINAL C(AC)074161,,440174.
 42212					;C(AC+1) SHOULD NOT BE AFFECTED.
 42213
 42214	057205	200 02 0 00 071040 	C37100:	MOVE	2,[007603,,607062] ;PRELOAD AC WITH 007603,,607062
 42215	057206	200 03 0 00 071034 		MOVE	3,[172737,,405060] ;PRELOAD AC+1 WITH 172737,,405060
 42216	057207	241 02 0 00 000015 		ROT	2,15		;*ROT SHOULD ROTATE 007603,,607062
 42217									;LEFT 15 BIT POSITIONS
 42218	057210	312 02 0 00 071043 		CAME	2,[074161,,440174] ;PASS IF C(AC)074161,,440174
 42219						STOP^
 42220	057211	254 04 0 00 057212 		HALT	.+1		;TEST FAILED IF PROGRAM HALTS HERE
 42221	057212	324 00 0 00 057213 		JUMPA	.+1		;IF TEST FAILS, CHANGE THIS INSTRUCTION (JUMPA .+1) TO
 42222									;JUMPA X (X IS THE ADDRESS OF THE FIRST INSTRUCTION
 42223									;IN THE SUBTEST) TO LOOP ON ERROR^
 42224	057213	312 03 0 00 071034 		CAME	3,[172737,,405060] ;PASS IF C(AC+1) NOT AFFECTED
 42225						STOP^
 42226	057214	254 04 0 00 057215 		HALT	.+1		;TEST FAILED IF PROGRAM HALTS HERE
 42227	057215	324 00 0 00 057216 		JUMPA	.+1		;IF TEST FAILS, CHANGE THIS INSTRUCTION (JUMPA .+1) TO
 42228									;JUMPA X (X IS THE ADDRESS OF THE FIRST INSTRUCTION
 42229									;IN THE SUBTEST) TO LOOP ON ERROR^
 42230
 42231					;**********
DFKAA PDP-10 KL10 BASIC INSTRUCTION DIAGNOSTIC (1) VER 0,2	MACRO %53B(1254)-4 11:50 11-Nov-24 Page 32
DFKAA7	MAC	13-Jan-89 10:22		TEST OF SHIFT/ROTATE INSTRUCTIONS USED IN THE ERROR HANDLER

 42232					;THIS TEST VERIFIES THAT A ROTC INSTRUCTION FUNCTIONS CORRECTLY.
 42233					;IN THIS CASE, 0,,0 0,,0 SHOULD BE ROTATED LEFT 3 BIT POSITIONS
 42234					;SO THAT FINAL C(AC)=0,,0 AND FINAL C(AC+1)=0,,0
 42235
 42236	057216	200 00 0 00 070253 	C37200:	MOVE	0,[0,,0]	;PRELOAD AC WITH 0,,0
 42237	057217	200 01 0 00 070253 		MOVE	1,[0,,0]	;PRELOAD AC+1 WITH 0,,0
 42238	057220	245 00 0 00 000003 		ROTC	0,3		;*ROTC SHOULD ROTATE 0,,0 0,,0 LEFT 3 BIT POSITIONS
 42239	057221	312 00 0 00 070253 		CAME	0,[0,,0]	;PASS IF C(AC)=0,,0
 42240						STOP^
 42241	057222	254 04 0 00 057223 		HALT	.+1		;TEST FAILED IF PROGRAM HALTS HERE
 42242	057223	324 00 0 00 057224 		JUMPA	.+1		;IF TEST FAILS, CHANGE THIS INSTRUCTION (JUMPA .+1) TO
 42243									;JUMPA X (X IS THE ADDRESS OF THE FIRST INSTRUCTION
 42244									;IN THE SUBTEST) TO LOOP ON ERROR^
 42245	057224	312 01 0 00 070253 		CAME	1,[0,,0]	;PASS IF C(AC+1)=0,,0
 42246						STOP^
 42247	057225	254 04 0 00 057226 		HALT	.+1		;TEST FAILED IF PROGRAM HALTS HERE
 42248	057226	324 00 0 00 057227 		JUMPA	.+1		;IF TEST FAILS, CHANGE THIS INSTRUCTION (JUMPA .+1) TO
 42249									;JUMPA X (X IS THE ADDRESS OF THE FIRST INSTRUCTION
 42250									;IN THE SUBTEST) TO LOOP ON ERROR^
 42251
 42252					;**********
 42253
 42254					;THIS TEST VERIFIES THAT A ROTC INSTRUCTION FUNCTIONS CORRECTLY.
 42255					;IN THIS CASE, -1,,-1 -1,,-1 SHOULD BE ROTATED LEFT 3 BIT POSITIONS
 42256					;SO THAT FINAL C(AC)=-1,,-1 AND FINAL C(AC+1)=-1,,-1
 42257
 42258	057227	200 00 0 00 070254 	C37300:	MOVE	0,[-1,,-1]	;PRELOAD AC WITH -1,,-1
 42259	057230	200 01 0 00 070254 		MOVE	1,[-1,,-1]	;PRELOAD AC+1 WITH -1,,-1
 42260	057231	245 00 0 00 000003 		ROTC	0,3		;*ROTC SHOULD ROTATE -1,,-1
 42261									;-1,,-1 LEFT 3 BIT POSITIONS
 42262	057232	312 00 0 00 070254 		CAME	0,[-1,,-1]	;PASS IF C(AC)=-1,,-1
 42263						STOP^
 42264	057233	254 04 0 00 057234 		HALT	.+1		;TEST FAILED IF PROGRAM HALTS HERE
 42265	057234	324 00 0 00 057235 		JUMPA	.+1		;IF TEST FAILS, CHANGE THIS INSTRUCTION (JUMPA .+1) TO
 42266									;JUMPA X (X IS THE ADDRESS OF THE FIRST INSTRUCTION
 42267									;IN THE SUBTEST) TO LOOP ON ERROR^
 42268	057235	312 00 0 00 070254 		CAME	0,[-1,,-1]	;PASS IF C(AC+1)=-1,,-1
 42269						STOP^
 42270	057236	254 04 0 00 057237 		HALT	.+1		;TEST FAILED IF PROGRAM HALTS HERE
 42271	057237	324 00 0 00 057240 		JUMPA	.+1		;IF TEST FAILS, CHANGE THIS INSTRUCTION (JUMPA .+1) TO
 42272									;JUMPA X (X IS THE ADDRESS OF THE FIRST INSTRUCTION
 42273									;IN THE SUBTEST) TO LOOP ON ERROR^
 42274
 42275					;**********
DFKAA PDP-10 KL10 BASIC INSTRUCTION DIAGNOSTIC (1) VER 0,2	MACRO %53B(1254)-4 11:50 11-Nov-24 Page 33
DFKAA7	MAC	13-Jan-89 10:22		TEST OF SHIFT/ROTATE INSTRUCTIONS USED IN THE ERROR HANDLER

 42276					;THIS TEST VERIFIES THAT A ROTC INSTRUCTION FUNCTIONS CORRECTLY.
 42277					;IN THIS CASE, 252525,,252525 252525,,252525 SHOULD BE ROTATED LEFT 3 BIT POSITIONS
 42278					;SO THAT FINAL C(AC)=525252,,525252 AND FINAL C(AC+1)=525252,,525252
 42279
 42280	057240	200 00 0 00 070614 	C37400:	MOVE	0,[252525,,252525]	;PRELOAD AC WITH 252525,,252525
 42281	057241	200 01 0 00 070614 		MOVE	1,[252525,,252525]	;PRELOAD AC+1 WITH 252525,,252525
 42282	057242	245 00 0 00 000003 		ROTC	0,3			;*ROTC SHOULD ROTATE 252525,,252525
 42283										;252525,,252525 LEFT 3 BIT POSITIONS
 42284	057243	312 00 0 00 071035 		CAME	0,[525252,,525252]	;PASS IF C(AC)=525252,,525252
 42285						STOP^
 42286	057244	254 04 0 00 057245 		HALT	.+1		;TEST FAILED IF PROGRAM HALTS HERE
 42287	057245	324 00 0 00 057246 		JUMPA	.+1		;IF TEST FAILS, CHANGE THIS INSTRUCTION (JUMPA .+1) TO
 42288									;JUMPA X (X IS THE ADDRESS OF THE FIRST INSTRUCTION
 42289									;IN THE SUBTEST) TO LOOP ON ERROR^
 42290	057246	312 01 0 00 071035 		CAME	1,[525252,,525252]	;PASS IF C(AC+1)=525252,,525252
 42291						STOP^
 42292	057247	254 04 0 00 057250 		HALT	.+1		;TEST FAILED IF PROGRAM HALTS HERE
 42293	057250	324 00 0 00 057251 		JUMPA	.+1		;IF TEST FAILS, CHANGE THIS INSTRUCTION (JUMPA .+1) TO
 42294									;JUMPA X (X IS THE ADDRESS OF THE FIRST INSTRUCTION
 42295									;IN THE SUBTEST) TO LOOP ON ERROR^
 42296
 42297					;**********
 42298
 42299					;THIS TEST VERIFIES THAT A ROTC INSTRUCTION FUNCTIONS CORRECTLY.
 42300					;IN THIS CASE, 525252,,525252 525252,,525252 SHOULD BE ROTATED LEFT 3 BIT POSITIONS
 42301					;SO THAT FINAL C(AC)=252525,,252525 AND FINAL C(AC+1)=252525,,252525
 42302
 42303	057251	200 00 0 00 071035 	C37500:	MOVE	0,[525252,,525252]	;PRELOAD AC WITH 525252,,525252
 42304	057252	200 01 0 00 071035 		MOVE	1,[525252,,525252]	;PRELOAD AC+1 WITH 525252,,525252
 42305	057253	245 00 0 00 000003 		ROTC	0,3			;*ROTC SHOULD ROTATE 525252,,525252
 42306										;525252,,525252 LEFT 3 BIT POSITIONS
 42307	057254	312 00 0 00 070614 		CAME	0,[252525,,252525]	;PASS IF C(AC)=252525,,252525
 42308						STOP^
 42309	057255	254 04 0 00 057256 		HALT	.+1		;TEST FAILED IF PROGRAM HALTS HERE
 42310	057256	324 00 0 00 057257 		JUMPA	.+1		;IF TEST FAILS, CHANGE THIS INSTRUCTION (JUMPA .+1) TO
 42311									;JUMPA X (X IS THE ADDRESS OF THE FIRST INSTRUCTION
 42312									;IN THE SUBTEST) TO LOOP ON ERROR^
 42313	057257	312 01 0 00 070614 		CAME	1,[252525,,252525]	;PASS IF C(AC+1)=252525,,252525
 42314						STOP^
 42315	057260	254 04 0 00 057261 		HALT	.+1		;TEST FAILED IF PROGRAM HALTS HERE
 42316	057261	324 00 0 00 057262 		JUMPA	.+1		;IF TEST FAILS, CHANGE THIS INSTRUCTION (JUMPA .+1) TO
 42317									;JUMPA X (X IS THE ADDRESS OF THE FIRST INSTRUCTION
 42318									;IN THE SUBTEST) TO LOOP ON ERROR^
 42319
 42320					;**********
DFKAA PDP-10 KL10 BASIC INSTRUCTION DIAGNOSTIC (1) VER 0,2	MACRO %53B(1254)-4 11:50 11-Nov-24 Page 34
DFKAA7	MAC	13-Jan-89 10:22		TEST OF SHIFT/ROTATE INSTRUCTIONS USED IN THE ERROR HANDLER

 42321					;THIS TEST VERIFIES THAT A ROTC INSTRUCTION FUNCTIONS CORRECTLY.
 42322					;IN THIS CASE, 230703,,603700 770037,,600377 SHOULD BE ROTATED LEFT 3 BIT POSITIONS
 42323					;SO THAT FINAL C(AC)=307036,,37007 AND FINAL C(AC+1)=700376,,003772
 42324
 42325	057262	200 00 0 00 071036 	C37600:	MOVE	0,[230703,,603700]	;PRELOAD AC WITH 230703,,603700
 42326	057263	200 01 0 00 071044 		MOVE	1,[770037,,600377]	;PRELOAD AC+1 WITH 770037,,600377
 42327	057264	245 00 0 00 000003 		ROTC	0,3			;*ROTC SHOULD ROTATE 230703,,603700
 42328										;770037,,600377 LEFT 3 BIT POSITIONS
 42329	057265	312 00 0 00 071045 		CAME	0,[307036,,037007]	;PASS IF C(AC)=307036,,37007
 42330						STOP^
 42331	057266	254 04 0 00 057267 		HALT	.+1		;TEST FAILED IF PROGRAM HALTS HERE
 42332	057267	324 00 0 00 057270 		JUMPA	.+1		;IF TEST FAILS, CHANGE THIS INSTRUCTION (JUMPA .+1) TO
 42333									;JUMPA X (X IS THE ADDRESS OF THE FIRST INSTRUCTION
 42334									;IN THE SUBTEST) TO LOOP ON ERROR^
 42335	057270	312 01 0 00 071046 		CAME	1,[700376,,003772]	;PASS IF C(AC+1)=700376,,003772
 42336						STOP^
 42337	057271	254 04 0 00 057272 		HALT	.+1		;TEST FAILED IF PROGRAM HALTS HERE
 42338	057272	324 00 0 00 057273 		JUMPA	.+1		;IF TEST FAILS, CHANGE THIS INSTRUCTION (JUMPA .+1) TO
 42339									;JUMPA X (X IS THE ADDRESS OF THE FIRST INSTRUCTION
 42340									;IN THE SUBTEST) TO LOOP ON ERROR^
 42341
 42342					;**********
 42343
 42344					;THIS TEST VERIFIES THAT A ROTC INSTRUCTION FUNCTIONS CORRECTLY.
 42345					;IN THIS CASE, 776003,,760077 007603,,607062 SHOULD BE ROTATED LEFT 3 BIT POSITIONS
 42346					;SO THAT FINAL C(AC)=760037,,600770 AND FINAL C(AC+1)=076036,,070627
 42347
 42348	057273	200 00 0 00 071047 	C37700:	MOVE	0,[776003,,760077]	;PRELOAD AC WITH 776003,,760077
 42349	057274	200 01 0 00 071040 		MOVE	1,[007603,,607062]	;PRELOAD AC+1 WITH 007603,,607062
 42350	057275	245 00 0 00 000003 		ROTC	0,3			;*ROTC SHOULD ROTATE 776003,,760077
 42351										;007603,,607062 LEFT 3 BIT POSITIONS
 42352	057276	312 00 0 00 071050 		CAME	0,[760037,,600770]	;PASS IF C(AC)=076036,,070627
 42353						STOP^
 42354	057277	254 04 0 00 057300 		HALT	.+1		;TEST FAILED IF PROGRAM HALTS HERE
 42355	057300	324 00 0 00 057301 		JUMPA	.+1		;IF TEST FAILS, CHANGE THIS INSTRUCTION (JUMPA .+1) TO
 42356									;JUMPA X (X IS THE ADDRESS OF THE FIRST INSTRUCTION
 42357									;IN THE SUBTEST) TO LOOP ON ERROR^
 42358	057301	312 01 0 00 071051 		CAME	1,[076036,,070627]	;PASS IF C(AC+1)=760037,,600770
 42359						STOP^
 42360	057302	254 04 0 00 057303 		HALT	.+1		;TEST FAILED IF PROGRAM HALTS HERE
 42361	057303	324 00 0 00 057304 		JUMPA	.+1		;IF TEST FAILS, CHANGE THIS INSTRUCTION (JUMPA .+1) TO
 42362									;JUMPA X (X IS THE ADDRESS OF THE FIRST INSTRUCTION
 42363									;IN THE SUBTEST) TO LOOP ON ERROR^
 42364
 42365					;**********
DFKAA PDP-10 KL10 BASIC INSTRUCTION DIAGNOSTIC (1) VER 0,2	MACRO %53B(1254)-4 11:50 11-Nov-24 Page 35
DFKAA7	MAC	13-Jan-89 10:22		TEST OF SHIFT/ROTATE INSTRUCTIONS USED IN THE ERROR HANDLER

 42366					;THIS TEST VERIFIES THAT A ROTC INSTRUCTION FUNCTIONS CORRECTLY.
 42367					;IN THIS CASE, 0,,0 0,,0 SHOULD BE ROTATED LEFT 7 BIT POSITIONS
 42368					;SO THAT FINAL C(AC)=0,,0 AND FINAL C(AC+1)=0,,0
 42369
 42370	057304	200 00 0 00 070253 	C40000:	MOVE	0,[0,,0]	;PRELOAD AC WITH 0,,0
 42371	057305	200 01 0 00 070253 		MOVE	1,[0,,0]	;PRELOAD AC+1 WITH 0,,0
 42372	057306	245 00 0 00 000007 		ROTC	0,7		;*ROTC SHOULD ROTATE 0,,0 0,,0 LEFT 7 BIT POSITIONS
 42373	057307	312 00 0 00 070253 		CAME	0,[0,,0]	;PASS IF C(AC)=0,,0
 42374						STOP^
 42375	057310	254 04 0 00 057311 		HALT	.+1		;TEST FAILED IF PROGRAM HALTS HERE
 42376	057311	324 00 0 00 057312 		JUMPA	.+1		;IF TEST FAILS, CHANGE THIS INSTRUCTION (JUMPA .+1) TO
 42377									;JUMPA X (X IS THE ADDRESS OF THE FIRST INSTRUCTION
 42378									;IN THE SUBTEST) TO LOOP ON ERROR^
 42379	057312	312 01 0 00 070253 		CAME	1,[0,,0]	;PASS IF C(AC+1)=0,,0
 42380						STOP^
 42381	057313	254 04 0 00 057314 		HALT	.+1		;TEST FAILED IF PROGRAM HALTS HERE
 42382	057314	324 00 0 00 057315 		JUMPA	.+1		;IF TEST FAILS, CHANGE THIS INSTRUCTION (JUMPA .+1) TO
 42383									;JUMPA X (X IS THE ADDRESS OF THE FIRST INSTRUCTION
 42384									;IN THE SUBTEST) TO LOOP ON ERROR^
 42385
 42386					;**********
 42387
 42388					;THIS TEST VERIFIES THAT A ROTC INSTRUCTION FUNCTIONS CORRECTLY.
 42389					;IN THIS CASE, -1,,-1 -1,,-1  SHOULD BE ROTATED LEFT 7 BIT POSITIONS
 42390					;SO THAT FINAL C(AC)=-1,,-1 AND FINAL C(AC+1)=-1,,-1
 42391
 42392	057315	200 00 0 00 070254 	C40100:	MOVE	0,[-1,,-1]	;PRELOAD AC WITH -1,,-1
 42393	057316	200 01 0 00 070254 		MOVE	1,[-1,,-1]	;PRELOAD AC+1 WITH -1,,-1
 42394	057317	245 00 0 00 000007 		ROTC	0,7		;*ROTC SHOULD ROTATE -1,,-1
 42395									;-1,,-1 LEFT 7 BIT POSITIONS
 42396	057320	312 00 0 00 070254 		CAME	0,[-1,,-1]	;PASS IF C(AC)=-1,,-1
 42397						STOP^
 42398	057321	254 04 0 00 057322 		HALT	.+1		;TEST FAILED IF PROGRAM HALTS HERE
 42399	057322	324 00 0 00 057323 		JUMPA	.+1		;IF TEST FAILS, CHANGE THIS INSTRUCTION (JUMPA .+1) TO
 42400									;JUMPA X (X IS THE ADDRESS OF THE FIRST INSTRUCTION
 42401									;IN THE SUBTEST) TO LOOP ON ERROR^
 42402	057323	312 01 0 00 070254 		CAME	1,[-1,,-1]	;PASS IF C(AC+1)=-1,,-1
 42403						STOP^
 42404	057324	254 04 0 00 057325 		HALT	.+1		;TEST FAILED IF PROGRAM HALTS HERE
 42405	057325	324 00 0 00 057326 		JUMPA	.+1		;IF TEST FAILS, CHANGE THIS INSTRUCTION (JUMPA .+1) TO
 42406									;JUMPA X (X IS THE ADDRESS OF THE FIRST INSTRUCTION
 42407									;IN THE SUBTEST) TO LOOP ON ERROR^
 42408
 42409					;**********
DFKAA PDP-10 KL10 BASIC INSTRUCTION DIAGNOSTIC (1) VER 0,2	MACRO %53B(1254)-4 11:50 11-Nov-24 Page 36
DFKAA7	MAC	13-Jan-89 10:22		TEST OF SHIFT/ROTATE INSTRUCTIONS USED IN THE ERROR HANDLER

 42410					;THIS TEST VERIFIES THAT A ROTC INSTRUCTION FUNCTIONS CORRECTLY.
 42411					;IN THIS CASE, 252525,,252525 252525,,252525 SHOULD BE ROTATED LEFT 7 BIT POSITIONS
 42412					;SO THAT FINAL C(AC)=525252,,525252 AND FINAL C(AC+1)=525252,,525252
 42413
 42414	057326	200 00 0 00 070614 	C40200:	MOVE	0,[252525,,252525]	;PRELOAD AC WITH 252525,,252525
 42415	057327	200 01 0 00 070614 		MOVE	1,[252525,,252525]	;PRELOAD AC+1 WITH 252525,,252525
 42416	057330	245 00 0 00 000007 		ROTC	0,7			;*ROTC SHOULD ROTATE 252525,,252525
 42417										;252525,,252525 LEFT 7 BIT POSITIONS
 42418	057331	312 00 0 00 071035 		CAME	0,[525252,,525252]	;PASS IF C(AC)=525252,,525252
 42419						STOP^
 42420	057332	254 04 0 00 057333 		HALT	.+1		;TEST FAILED IF PROGRAM HALTS HERE
 42421	057333	324 00 0 00 057334 		JUMPA	.+1		;IF TEST FAILS, CHANGE THIS INSTRUCTION (JUMPA .+1) TO
 42422									;JUMPA X (X IS THE ADDRESS OF THE FIRST INSTRUCTION
 42423									;IN THE SUBTEST) TO LOOP ON ERROR^
 42424	057334	312 01 0 00 071035 		CAME	1,[525252,,525252]	;PASS IF C(AC+1)=525252,,525252
 42425						STOP^
 42426	057335	254 04 0 00 057336 		HALT	.+1		;TEST FAILED IF PROGRAM HALTS HERE
 42427	057336	324 00 0 00 057337 		JUMPA	.+1		;IF TEST FAILS, CHANGE THIS INSTRUCTION (JUMPA .+1) TO
 42428									;JUMPA X (X IS THE ADDRESS OF THE FIRST INSTRUCTION
 42429									;IN THE SUBTEST) TO LOOP ON ERROR^
 42430
 42431					;**********
 42432
 42433					;THIS TEST VERIFIES THAT A ROTC INSTRUCTION FUNCTIONS CORRECTLY.
 42434					;IN THIS CASE, 525252,,525252 525252,,525252 SHOULD BE ROTATED LEFT 7 BIT POSITIONS
 42435					;SO THAT FINAL C(AC)=252525,,252525 AND FINAL C(AC+1)=252525,,252525
 42436
 42437	057337	200 00 0 00 071035 	C40300:	MOVE	0,[525252,,525252]	;PRELOAD AC WITH 525252,,525252
 42438	057340	200 01 0 00 071035 		MOVE	1,[525252,,525252]	;PRELOAD AC+1 WITH 525252,,525252
 42439	057341	245 00 0 00 000007 		ROTC	0,7			;*ROTC SHOULD ROTATE 525252,,525252
 42440										;525252,,525252 LEFT 7 BIT POSITIONS
 42441	057342	312 00 0 00 070614 		CAME	0,[252525,,252525]	;PASS IF C(AC)=252525,,252525
 42442						STOP^
 42443	057343	254 04 0 00 057344 		HALT	.+1		;TEST FAILED IF PROGRAM HALTS HERE
 42444	057344	324 00 0 00 057345 		JUMPA	.+1		;IF TEST FAILS, CHANGE THIS INSTRUCTION (JUMPA .+1) TO
 42445									;JUMPA X (X IS THE ADDRESS OF THE FIRST INSTRUCTION
 42446									;IN THE SUBTEST) TO LOOP ON ERROR^
 42447	057345	312 01 0 00 070614 		CAME	1,[252525,,252525]	;PASS IF C(AC+1)=252525,,252525
 42448						STOP^
 42449	057346	254 04 0 00 057347 		HALT	.+1		;TEST FAILED IF PROGRAM HALTS HERE
 42450	057347	324 00 0 00 057350 		JUMPA	.+1		;IF TEST FAILS, CHANGE THIS INSTRUCTION (JUMPA .+1) TO
 42451									;JUMPA X (X IS THE ADDRESS OF THE FIRST INSTRUCTION
 42452									;IN THE SUBTEST) TO LOOP ON ERROR^
 42453
 42454					;**********
DFKAA PDP-10 KL10 BASIC INSTRUCTION DIAGNOSTIC (1) VER 0,2	MACRO %53B(1254)-4 11:50 11-Nov-24 Page 37
DFKAA7	MAC	13-Jan-89 10:22		TEST OF SHIFT/ROTATE INSTRUCTIONS USED IN THE ERROR HANDLER

 42455					;THIS TEST VERIFIES THAT A ROTC INSTRUCTION FUNCTIONS CORRECTLY.
 42456					;IN THIS CASE, 230703,,603700 770037,,600377 SHOULD BE ROTATED LEFT 7 BIT POSITIONS
 42457					;SO THAT FINAL C(AC)=160740,,760176 AND FINAL C(AC+1)=007740,,077646
 42458
 42459	057350	200 00 0 00 071036 	C40400:	MOVE	0,[230703,,603700]	;PRELOAD AC WITH 230703,,603700
 42460	057351	200 01 0 00 071044 		MOVE	1,[770037,,600377]	;PRELOAD AC+1 WITH 770037,,600377
 42461	057352	245 00 0 00 000007 		ROTC	0,7			;*ROTC SHOULD ROTATE 230703,,603700
 42462										;770037,,600377 LEFT 7 BIT POSITIONS
 42463	057353	312 00 0 00 071052 		CAME	0,[160740,,760176]	;PASS IF C(AC)=160740,,760176
 42464						STOP^
 42465	057354	254 04 0 00 057355 		HALT	.+1		;TEST FAILED IF PROGRAM HALTS HERE
 42466	057355	324 00 0 00 057356 		JUMPA	.+1		;IF TEST FAILS, CHANGE THIS INSTRUCTION (JUMPA .+1) TO
 42467									;JUMPA X (X IS THE ADDRESS OF THE FIRST INSTRUCTION
 42468									;IN THE SUBTEST) TO LOOP ON ERROR^
 42469	057356	312 01 0 00 071053 		CAME	1,[007740,,077646]	;PASS IF C(AC+1)=007740,,077646
 42470						STOP^
 42471	057357	254 04 0 00 057360 		HALT	.+1		;TEST FAILED IF PROGRAM HALTS HERE
 42472	057360	324 00 0 00 057361 		JUMPA	.+1		;IF TEST FAILS, CHANGE THIS INSTRUCTION (JUMPA .+1) TO
 42473									;JUMPA X (X IS THE ADDRESS OF THE FIRST INSTRUCTION
 42474									;IN THE SUBTEST) TO LOOP ON ERROR^
 42475
 42476					;**********
 42477
 42478					;THIS TEST VERIFIES THAT A ROTC INSTRUCTION FUNCTIONS CORRECTLY.
 42479					;IN THIS CASE, 776003,,760077 007603,,607063 SHOULD BE ROTATED LEFT 7 BIT POSITIONS
 42480					;SO THAT FINAL C(AC)=400774,,017610 AND FINAL C(AC+1)=740741,,614577
 42481
 42482	057361	200 00 0 00 071047 	C40500:	MOVE	0,[776003,,760077]	;PRELOAD AC WITH 776003,,760077
 42483	057362	200 01 0 00 071040 		MOVE	1,[007603,,607062]	;PRELOAD AC+1 WITH 007603,,607062
 42484	057363	245 00 0 00 000007 		ROTC	0,7			;*ROTC SHOULD ROTATE 776003,,760077
 42485										;007603,,607062 LEFT 7 BIT POSITIONS
 42486	057364	312 00 0 00 071054 		CAME	0,[400774,,017601]	;PASS IF C(AC)=400774,,017601
 42487						STOP^
 42488	057365	254 04 0 00 057366 		HALT	.+1		;TEST FAILED IF PROGRAM HALTS HERE
 42489	057366	324 00 0 00 057367 		JUMPA	.+1		;IF TEST FAILS, CHANGE THIS INSTRUCTION (JUMPA .+1) TO
 42490									;JUMPA X (X IS THE ADDRESS OF THE FIRST INSTRUCTION
 42491									;IN THE SUBTEST) TO LOOP ON ERROR^
 42492	057367	312 01 0 00 071055 		CAME	1,[740741,,614577]	;PASS IF C(AC+1)=740741,,614577
 42493						STOP^
 42494	057370	254 04 0 00 057371 		HALT	.+1		;TEST FAILED IF PROGRAM HALTS HERE
 42495	057371	324 00 0 00 057372 		JUMPA	.+1		;IF TEST FAILS, CHANGE THIS INSTRUCTION (JUMPA .+1) TO
 42496									;JUMPA X (X IS THE ADDRESS OF THE FIRST INSTRUCTION
 42497									;IN THE SUBTEST) TO LOOP ON ERROR^
 42498
 42499					;**********
DFKAA PDP-10 KL10 BASIC INSTRUCTION DIAGNOSTIC (1) VER 0,2	MACRO %53B(1254)-4 11:50 11-Nov-24 Page 38
DFKAA7	MAC	13-Jan-89 10:22		TEST OF SHIFT/ROTATE INSTRUCTIONS USED IN THE ERROR HANDLER

 42500					;THIS TEST VERIFIES THAT THE LSH INSTRUCTION FUNCTIONS CORRECTLY
 42501					;IN THIS CASE, 0,,0 SHOULD BE LOGICALLY SHIFTED RIGHT 33 OCTAL BIT POSITIONS
 42502					;SO THAT FINAL C(AC)=0,,0.
 42503					;C(AC+1) SHOULD NOT BE AFFECTED
 42504
 42505	057372	200 00 0 00 070253 	C40600:	MOVE	0,[0,,0]	;PRELOAD AC WITH 0,,0
 42506	057373	200 01 0 00 071034 		MOVE	1,[172737,,405060] ;PRELOAD AC+1 WITH 172737,,405060
 42507	057374	242 00 0 00 777745 		LSH	0,-33		;*LSH SHOULD LOGICALLY SHIFT 0,,0
 42508									;RIGHT 33 OCTAL BIT POSITIONS
 42509	057375	312 00 0 00 070253 		CAME	0,[0,,0]	;PASS IF C(AC)=0,,0
 42510						STOP^
 42511	057376	254 04 0 00 057377 		HALT	.+1		;TEST FAILED IF PROGRAM HALTS HERE
 42512	057377	324 00 0 00 057400 		JUMPA	.+1		;IF TEST FAILS, CHANGE THIS INSTRUCTION (JUMPA .+1) TO
 42513									;JUMPA X (X IS THE ADDRESS OF THE FIRST INSTRUCTION
 42514									;IN THE SUBTEST) TO LOOP ON ERROR^
 42515	057400	312 01 0 00 071034 		CAME	1,[172737,,405060] ;PASS IF C(AC+1) NOT AFFECTED
 42516						STOP^
 42517	057401	254 04 0 00 057402 		HALT	.+1		;TEST FAILED IF PROGRAM HALTS HERE
 42518	057402	324 00 0 00 057403 		JUMPA	.+1		;IF TEST FAILS, CHANGE THIS INSTRUCTION (JUMPA .+1) TO
 42519									;JUMPA X (X IS THE ADDRESS OF THE FIRST INSTRUCTION
 42520									;IN THE SUBTEST) TO LOOP ON ERROR^
 42521
 42522					;**********
 42523
 42524					;THIS TEST VERIFIES THAT THE LSH INSTRUCTION FUNCTIONS CORRECTLY
 42525					;IN -1,,-1 SHOULD BE LOGICALLY SHIFTED RIGHT 33 OCTAL BIT POSITIONS
 42526					;SO THAT FINAL C(AC)=0,,777.
 42527					;C(AC+1) SHOULD NOT BE AFFECTED
 42528
 42529	057403	200 00 0 00 070254 	C40700:	MOVE	0,[-1,,-1]	;PRELOAD AC WITH -1,,-1
 42530	057404	200 01 0 00 071034 		MOVE	1,[172737,,405060] ;PRELOAD AC+1 WITH 172737,,405060
 42531	057405	242 00 0 00 777745 		LSH	0,-33		;*LSH SHOULD LOGICALLY SHIFT -1,,-1
 42532									;RIGHT 33 OCTAL BIT POSITIONS
 42533	057406	312 00 0 00 070262 		CAME	0,[0,777]	;PASS IF C(AC)=0,,777
 42534						STOP^
 42535	057407	254 04 0 00 057410 		HALT	.+1		;TEST FAILED IF PROGRAM HALTS HERE
 42536	057410	324 00 0 00 057411 		JUMPA	.+1		;IF TEST FAILS, CHANGE THIS INSTRUCTION (JUMPA .+1) TO
 42537									;JUMPA X (X IS THE ADDRESS OF THE FIRST INSTRUCTION
 42538									;IN THE SUBTEST) TO LOOP ON ERROR^
 42539	057411	312 01 0 00 071034 		CAME	1,[172737,,405060] ;PASS IF C(AC+1) NOT AFFECTED
 42540						STOP^
 42541	057412	254 04 0 00 057413 		HALT	.+1		;TEST FAILED IF PROGRAM HALTS HERE
 42542	057413	324 00 0 00 057414 		JUMPA	.+1		;IF TEST FAILS, CHANGE THIS INSTRUCTION (JUMPA .+1) TO
 42543									;JUMPA X (X IS THE ADDRESS OF THE FIRST INSTRUCTION
 42544									;IN THE SUBTEST) TO LOOP ON ERROR^
 42545
 42546					;**********
DFKAA PDP-10 KL10 BASIC INSTRUCTION DIAGNOSTIC (1) VER 0,2	MACRO %53B(1254)-4 11:50 11-Nov-24 Page 39
DFKAA7	MAC	13-Jan-89 10:22		TEST OF SHIFT/ROTATE INSTRUCTIONS USED IN THE ERROR HANDLER

 42547					;THIS TEST VERIFIES THAT THE LSH INSTRUCTION FUNCTIONS CORRECTLY
 42548					;IN 252525,,252525 SHOULD BE LOGICALLY SHIFTED RIGHT 33 OCTAL BIT POSITIONS
 42549					;SO THAT FINAL C(AC)=0,,252.
 42550					;C(AC+1) SHOULD NOT BE AFFECTED
 42551
 42552	057414	200 00 0 00 070614 	C41000:	MOVE	0,[252525,,252525]	;PRELOAD AC WITH 252525,,252525
 42553	057415	200 01 0 00 071034 		MOVE	1,[172737,,405060] 	;PRELOAD AC+1 WITH 172737,,405060
 42554	057416	242 00 0 00 777745 		LSH	0,-33			;*LSH SHOULD LOGICALLY SHIFT 252525,,252525
 42555										;RIGHT 33 OCTAL BIT POSITIONS
 42556	057417	312 00 0 00 071056 		CAME	0,[0,,252]		;PASS IF C(AC)=0,,252
 42557						STOP^
 42558	057420	254 04 0 00 057421 		HALT	.+1		;TEST FAILED IF PROGRAM HALTS HERE
 42559	057421	324 00 0 00 057422 		JUMPA	.+1		;IF TEST FAILS, CHANGE THIS INSTRUCTION (JUMPA .+1) TO
 42560									;JUMPA X (X IS THE ADDRESS OF THE FIRST INSTRUCTION
 42561									;IN THE SUBTEST) TO LOOP ON ERROR^
 42562	057422	312 01 0 00 071034 		CAME	1,[172737,,405060]	;PASS IF C(AC+1) NOT AFFECTED
 42563						STOP^
 42564	057423	254 04 0 00 057424 		HALT	.+1		;TEST FAILED IF PROGRAM HALTS HERE
 42565	057424	324 00 0 00 057425 		JUMPA	.+1		;IF TEST FAILS, CHANGE THIS INSTRUCTION (JUMPA .+1) TO
 42566									;JUMPA X (X IS THE ADDRESS OF THE FIRST INSTRUCTION
 42567									;IN THE SUBTEST) TO LOOP ON ERROR^
 42568
 42569					;**********
 42570
 42571					;THIS TEST VERIFIES THAT THE LSH INSTRUCTION FUNCTIONS CORRECTLY
 42572					;IN THIS CASE, 525252,,525252 SHOULD BE LOGICALLY SHIFTED RIGHT 33 OCTAL BIT POSITIONS
 42573					;SO THAT FINAL C(AC)=0,,525.
 42574					;C(AC+1) SHOULD NOT BE AFFECTED
 42575
 42576	057425	200 00 0 00 071035 	C41100:	MOVE	0,[525252,,525252]	;PRELOAD AC WITH 525252,,525252
 42577	057426	200 01 0 00 071034 		MOVE	1,[172737,,405060]	;PRELOAD AC+1 WITH 172737,,405060
 42578	057427	242 00 0 00 777745 		LSH	0,-33			;*LSH SHOULD LOGICALLY SHIFT 525252,,525252
 42579										;RIGHT 33 OCTAL BIT POSITIONS
 42580	057430	312 00 0 00 071057 		CAME	0,[0,,525]		;PASS IF C(AC)=0,,525
 42581						STOP^
 42582	057431	254 04 0 00 057432 		HALT	.+1		;TEST FAILED IF PROGRAM HALTS HERE
 42583	057432	324 00 0 00 057433 		JUMPA	.+1		;IF TEST FAILS, CHANGE THIS INSTRUCTION (JUMPA .+1) TO
 42584									;JUMPA X (X IS THE ADDRESS OF THE FIRST INSTRUCTION
 42585									;IN THE SUBTEST) TO LOOP ON ERROR^
 42586	057433	312 01 0 00 071034 		CAME	1,[172737,,405060]	;PASS IF C(AC+1) NOT AFFECTED
 42587						STOP^
 42588	057434	254 04 0 00 057435 		HALT	.+1		;TEST FAILED IF PROGRAM HALTS HERE
 42589	057435	324 00 0 00 057436 		JUMPA	.+1		;IF TEST FAILS, CHANGE THIS INSTRUCTION (JUMPA .+1) TO
 42590									;JUMPA X (X IS THE ADDRESS OF THE FIRST INSTRUCTION
 42591									;IN THE SUBTEST) TO LOOP ON ERROR^
 42592
 42593					;**********
DFKAA PDP-10 KL10 BASIC INSTRUCTION DIAGNOSTIC (1) VER 0,2	MACRO %53B(1254)-4 11:50 11-Nov-24 Page 40
DFKAA7	MAC	13-Jan-89 10:22		TEST OF SHIFT/ROTATE INSTRUCTIONS USED IN THE ERROR HANDLER

 42594					;THIS TEST VERIFIES THAT THE LSH INSTRUCTION FUNCTIONS CORRECTLY
 42595					;IN THIS CASE, 230703,,603700 SHOULD BE LOGICALLY SHIFTED RIGHT 33 OCTAL BIT POSITIONS
 42596					;SO THAT FINAL C(AC)=0,,230.
 42597					;C(AC+1) SHOULD NOT BE AFFECTED
 42598
 42599	057436	200 00 0 00 071036 	C41200:	MOVE	0,[230703,,603700]	;PRELOAD AC WITH 230703,,603700
 42600	057437	200 01 0 00 071034 		MOVE	1,[172737,,405060]	;PRELOAD AC+1 WITH 172737,,405060
 42601	057440	242 00 0 00 777745 		LSH	0,-33			;*LSH SHOULD LOGICALLY SHIFT 230703,,603700
 42602										;RIGHT 33 OCTAL BIT POSITIONS
 42603	057441	312 00 0 00 071060 		CAME	0,[0,,230]		;PASS IF C(AC)=230703,,603700
 42604						STOP^
 42605	057442	254 04 0 00 057443 		HALT	.+1		;TEST FAILED IF PROGRAM HALTS HERE
 42606	057443	324 00 0 00 057444 		JUMPA	.+1		;IF TEST FAILS, CHANGE THIS INSTRUCTION (JUMPA .+1) TO
 42607									;JUMPA X (X IS THE ADDRESS OF THE FIRST INSTRUCTION
 42608									;IN THE SUBTEST) TO LOOP ON ERROR^
 42609	057444	312 01 0 00 071034 		CAME	1,[172737,,405060]	;PASS IF C(AC+1) NOT AFFECTED
 42610						STOP^
 42611	057445	254 04 0 00 057446 		HALT	.+1		;TEST FAILED IF PROGRAM HALTS HERE
 42612	057446	324 00 0 00 057447 		JUMPA	.+1		;IF TEST FAILS, CHANGE THIS INSTRUCTION (JUMPA .+1) TO
 42613									;JUMPA X (X IS THE ADDRESS OF THE FIRST INSTRUCTION
 42614									;IN THE SUBTEST) TO LOOP ON ERROR^
 42615
 42616					;**********
 42617
 42618					;THIS TEST VERIFIES THAT THE LSH INSTRUCTION FUNCTIONS CORRECTLY
 42619					;IN THIS CASE, 007603,,607062 SHOULD BE LOGICALLY SHIFTED RIGHT 33 OCTAL BIT POSITIONS
 42620					;SO THAT FINAL C(AC)=0,,7.
 42621					;C(AC+1) SHOULD NOT BE AFFECTED
 42622
 42623	057447	200 00 0 00 071040 	C41300:	MOVE	0,[007603,,607062]	;PRELOAD AC WITH 007603,,607062
 42624	057450	200 01 0 00 071034 		MOVE	1,[172737,,405060]	;PRELOAD AC+1 WITH 172737,,405060
 42625	057451	242 00 0 00 777745 		LSH	0,-33			;*LSH SHOULD LOGICALLY SHIFT 007603,,6070062
 42626										;RIGHT 33 OCTAL BIT POSITIONS
 42627	057452	312 00 0 00 071033 		CAME	0,[0,,7]		;PASS IF C(AC)=0,,7
 42628						STOP^
 42629	057453	254 04 0 00 057454 		HALT	.+1		;TEST FAILED IF PROGRAM HALTS HERE
 42630	057454	324 00 0 00 057455 		JUMPA	.+1		;IF TEST FAILS, CHANGE THIS INSTRUCTION (JUMPA .+1) TO
 42631									;JUMPA X (X IS THE ADDRESS OF THE FIRST INSTRUCTION
 42632									;IN THE SUBTEST) TO LOOP ON ERROR^
 42633	057455	312 01 0 00 071034 		CAME	1,[172737,,405060]	;PASS IF C(AC+1) NOT AFFECTED
 42634						STOP^
 42635	057456	254 04 0 00 057457 		HALT	.+1		;TEST FAILED IF PROGRAM HALTS HERE
 42636	057457	324 00 0 00 057460 		JUMPA	.+1		;IF TEST FAILS, CHANGE THIS INSTRUCTION (JUMPA .+1) TO
 42637									;JUMPA X (X IS THE ADDRESS OF THE FIRST INSTRUCTION
 42638									;IN THE SUBTEST) TO LOOP ON ERROR^
 42639
 42640					;**********
DFKAA PDP-10 KL10 BASIC INSTRUCTION DIAGNOSTIC (1) VER 0,2	MACRO %53B(1254)-4 11:50 11-Nov-24 Page 41
DFKAA7	MAC	13-Jan-89 10:22		TEST OF SHIFT/ROTATE INSTRUCTIONS USED IN THE ERROR HANDLER

 42641					;THIS TEST VERIFIES THAT THE LSH INSTRUCTION FUNCTIONS CORRECTLY
 42642					;IN THIS CASE, 0,,0 SHOULD BE LOGICALLY SHIFTED RIGHT 27 OCTAL BIT POSITIONS
 42643					;SO THAT FINAL C(AC)=0,,0.
 42644					;C(AC+1) SHOULD NOT BE AFFECTED
 42645
 42646	057460	200 01 0 00 070253 	C41400:	MOVE	1,[0,,0]	;PRELOAD AC WITH 0,,0
 42647	057461	200 02 0 00 071034 		MOVE	2,[172737,,405060]	;PRELOAD C(AC+1) WITH 172737,,405060
 42648	057462	242 01 0 00 777751 		LSH	1,-27		;*LSH SHOULD LOGICALLY SHIFT 0,,0
 42649									;RIGHT 27 OCTAL BIT POSITIONS
 42650	057463	312 01 0 00 070253 		CAME	1,[0,,0]	;PASS IF C(AC)=0,,0
 42651						STOP^
 42652	057464	254 04 0 00 057465 		HALT	.+1		;TEST FAILED IF PROGRAM HALTS HERE
 42653	057465	324 00 0 00 057466 		JUMPA	.+1		;IF TEST FAILS, CHANGE THIS INSTRUCTION (JUMPA .+1) TO
 42654									;JUMPA X (X IS THE ADDRESS OF THE FIRST INSTRUCTION
 42655									;IN THE SUBTEST) TO LOOP ON ERROR^
 42656	057466	312 02 0 00 071034 		CAME	2,[172737,,405060]	;PASS IF C(AC+1) NOT AFFECTED
 42657						STOP^
 42658	057467	254 04 0 00 057470 		HALT	.+1		;TEST FAILED IF PROGRAM HALTS HERE
 42659	057470	324 00 0 00 057471 		JUMPA	.+1		;IF TEST FAILS, CHANGE THIS INSTRUCTION (JUMPA .+1) TO
 42660									;JUMPA X (X IS THE ADDRESS OF THE FIRST INSTRUCTION
 42661									;IN THE SUBTEST) TO LOOP ON ERROR^
 42662
 42663					;**********
 42664
 42665					;THIS TEST VERIFIES THAT THE LSH INSTRUCTION FUNCTIONS CORRECTLY
 42666					;IN THIS CASE, -1,,-1 SHOULD BE LOGICALLY SHIFTED RIGHT 27 OCTAL BIT POSITIONS
 42667					;SO THAT FINAL C(AC)=0,,17777.
 42668					;C(AC+1) SHOULD NOT BE AFFECTED
 42669
 42670	057471	200 01 0 00 070254 	C41500:	MOVE	1,[-1,,-1]	;PRELOAD AC WITH -1,,-1
 42671	057472	200 02 0 00 071034 		MOVE	2,[172737,,405060]	;PRELOAD C(AC+1) WITH 172737,,405060
 42672	057473	242 01 0 00 777751 		LSH	1,-27		;*LSH SHOULD LOGICALLY SHIFT -1,,-1
 42673									;RIGHT 27 OCTAL BIT POSITIONS
 42674	057474	312 01 0 00 071061 		CAME	1,[0,,17777]	;PASS IF C(AC)=0,17777
 42675						STOP^
 42676	057475	254 04 0 00 057476 		HALT	.+1		;TEST FAILED IF PROGRAM HALTS HERE
 42677	057476	324 00 0 00 057477 		JUMPA	.+1		;IF TEST FAILS, CHANGE THIS INSTRUCTION (JUMPA .+1) TO
 42678									;JUMPA X (X IS THE ADDRESS OF THE FIRST INSTRUCTION
 42679									;IN THE SUBTEST) TO LOOP ON ERROR^
 42680	057477	312 02 0 00 071034 		CAME	2,[172737,,405060]	;PASS IF C(AC+1) NOT AFFECTED
 42681						STOP^
 42682	057500	254 04 0 00 057501 		HALT	.+1		;TEST FAILED IF PROGRAM HALTS HERE
 42683	057501	324 00 0 00 057502 		JUMPA	.+1		;IF TEST FAILS, CHANGE THIS INSTRUCTION (JUMPA .+1) TO
 42684									;JUMPA X (X IS THE ADDRESS OF THE FIRST INSTRUCTION
 42685									;IN THE SUBTEST) TO LOOP ON ERROR^
 42686
 42687					;**********
DFKAA PDP-10 KL10 BASIC INSTRUCTION DIAGNOSTIC (1) VER 0,2	MACRO %53B(1254)-4 11:50 11-Nov-24 Page 42
DFKAA7	MAC	13-Jan-89 10:22		TEST OF SHIFT/ROTATE INSTRUCTIONS USED IN THE ERROR HANDLER

 42688					;THIS TEST VERIFIES THAT THE LSH INSTRUCTION FUNCTIONS CORRECTLY
 42689					;IN THIS CASE, 252525,,252525 SHOULD BE LOGICALLY SHIFTED RIGHT 27 OCTAL BIT POSITIONS
 42690					;SO THAT FINAL C(AC)=0,,5252.
 42691					;C(AC+1) SHOULD NOT BE AFFECTED
 42692
 42693	057502	200 01 0 00 070614 	C41600:	MOVE	1,[252525,,252525]	;PRELOAD AC WITH 252525,,252525
 42694	057503	200 02 0 00 071034 		MOVE	2,[172737,,405060]	;PRELOAD C(AC+1) WITH 172737,,405060
 42695	057504	242 01 0 00 777751 		LSH	1,-27			;*LSH SHOULD LOGICALLY SHIFT 252525,,252525
 42696										;RIGHT 27 OCTAL BIT POSITIONS
 42697	057505	312 01 0 00 071062 		CAME	1,[0,,5252]		;PASS IF C(AC)=0,,5252
 42698						STOP^
 42699	057506	254 04 0 00 057507 		HALT	.+1		;TEST FAILED IF PROGRAM HALTS HERE
 42700	057507	324 00 0 00 057510 		JUMPA	.+1		;IF TEST FAILS, CHANGE THIS INSTRUCTION (JUMPA .+1) TO
 42701									;JUMPA X (X IS THE ADDRESS OF THE FIRST INSTRUCTION
 42702									;IN THE SUBTEST) TO LOOP ON ERROR^
 42703	057510	312 02 0 00 071034 		CAME	2,[172737,,405060]	;PASS IF C(AC+1) NOT AFFECTED
 42704						STOP^
 42705	057511	254 04 0 00 057512 		HALT	.+1		;TEST FAILED IF PROGRAM HALTS HERE
 42706	057512	324 00 0 00 057513 		JUMPA	.+1		;IF TEST FAILS, CHANGE THIS INSTRUCTION (JUMPA .+1) TO
 42707									;JUMPA X (X IS THE ADDRESS OF THE FIRST INSTRUCTION
 42708									;IN THE SUBTEST) TO LOOP ON ERROR^
 42709
 42710					;**********
 42711
 42712					;THIS TEST VERIFIES THAT THE LSH INSTRUCTION FUNCTIONS CORRECTLY
 42713					;IN THIS CASE, 525252,,525252 SHOULD BE LOGICALLY SHIFTED RIGHT 27 OCTAL BIT POSITIONS
 42714					;SO THAT FINAL C(AC)=0,,12525.
 42715					;C(AC+1) SHOULD NOT BE AFFECTED
 42716
 42717	057513	200 01 0 00 071035 	C41700:	MOVE	1,[525252,,525252]	;PRELOAD AC WITH 525252,,525252
 42718	057514	200 02 0 00 071034 		MOVE	2,[172737,,405060]	;PRELOAD C(AC+1) WITH 172737,,405060
 42719	057515	242 01 0 00 777751 		LSH	1,-27			;*LSH SHOULD LOGICALLY SHIFT 525252,,525252
 42720										;RIGHT 27 OCTAL BIT POSITIONS
 42721	057516	312 01 0 00 071063 		CAME	1,[0,,12525]		;PASS IF C(AC)=0,,12525
 42722						STOP^
 42723	057517	254 04 0 00 057520 		HALT	.+1		;TEST FAILED IF PROGRAM HALTS HERE
 42724	057520	324 00 0 00 057521 		JUMPA	.+1		;IF TEST FAILS, CHANGE THIS INSTRUCTION (JUMPA .+1) TO
 42725									;JUMPA X (X IS THE ADDRESS OF THE FIRST INSTRUCTION
 42726									;IN THE SUBTEST) TO LOOP ON ERROR^
 42727	057521	312 02 0 00 071034 		CAME	2,[172737,,405060]	;PASS IF C(AC+1) NOT AFFECTED
 42728						STOP^
 42729	057522	254 04 0 00 057523 		HALT	.+1		;TEST FAILED IF PROGRAM HALTS HERE
 42730	057523	324 00 0 00 057524 		JUMPA	.+1		;IF TEST FAILS, CHANGE THIS INSTRUCTION (JUMPA .+1) TO
 42731									;JUMPA X (X IS THE ADDRESS OF THE FIRST INSTRUCTION
 42732									;IN THE SUBTEST) TO LOOP ON ERROR^
 42733
 42734					;**********
DFKAA PDP-10 KL10 BASIC INSTRUCTION DIAGNOSTIC (1) VER 0,2	MACRO %53B(1254)-4 11:50 11-Nov-24 Page 43
DFKAA7	MAC	13-Jan-89 10:22		TEST OF SHIFT/ROTATE INSTRUCTIONS USED IN THE ERROR HANDLER

 42735					;THIS TEST VERIFIES THAT THE LSH INSTRUCTION FUNCTIONS CORRECTLY
 42736					;IN THIS CASE, 230703,602700 SHOULD BE LOGICALLY SHIFTED RIGHT 27 OCTAL BIT POSITIONS
 42737					;SO THAT FINAL C(AC)=0,,4616.
 42738					;C(AC+1) SHOULD NOT BE AFFECTED
 42739
 42740	057524	200 01 0 00 071036 	C42000:	MOVE	1,[230703,,603700]	;PRELOAD AC WITH 230703,603700
 42741	057525	200 02 0 00 071034 		MOVE	2,[172737,,405060]	;PRELOAD C(AC+1) WITH 172737,,405060
 42742	057526	242 01 0 00 777751 		LSH	1,-27			;*LSH SHOULD LOGICALLY SHIFT 230703,,603700
 42743										;RIGHT 27 OCTAL BIT POSITIONS
 42744	057527	312 01 0 00 071064 		CAME	1,[0,,4616]		;PASS IF C(AC)=0,,4616
 42745						STOP^
 42746	057530	254 04 0 00 057531 		HALT	.+1		;TEST FAILED IF PROGRAM HALTS HERE
 42747	057531	324 00 0 00 057532 		JUMPA	.+1		;IF TEST FAILS, CHANGE THIS INSTRUCTION (JUMPA .+1) TO
 42748									;JUMPA X (X IS THE ADDRESS OF THE FIRST INSTRUCTION
 42749									;IN THE SUBTEST) TO LOOP ON ERROR^
 42750	057532	312 02 0 00 071034 		CAME	2,[172737,,405060]	;PASS IF C(AC+1) NOT AFFECTED
 42751						STOP^
 42752	057533	254 04 0 00 057534 		HALT	.+1		;TEST FAILED IF PROGRAM HALTS HERE
 42753	057534	324 00 0 00 057535 		JUMPA	.+1		;IF TEST FAILS, CHANGE THIS INSTRUCTION (JUMPA .+1) TO
 42754									;JUMPA X (X IS THE ADDRESS OF THE FIRST INSTRUCTION
 42755									;IN THE SUBTEST) TO LOOP ON ERROR^
 42756
 42757					;**********
 42758
 42759					;THIS TEST VERIFIES THAT THE LSH INSTRUCTION FUNCTIONS CORRECTLY
 42760					;IN THIS CASE, 007603,,607062 SHOULD BE LOGICALLY SHIFTED RIGHT 27 OCTAL BIT POSITIONS
 42761					;SO THAT FINAL C(AC)=0,,174.
 42762					;C(AC+1) SHOULD NOT BE AFFECTED
 42763
 42764	057535	200 01 0 00 071040 	C42100:	MOVE	1,[007603,,607062]	;PRELOAD AC WITH 007603,,607062
 42765	057536	200 02 0 00 071034 		MOVE	2,[172737,,405060]	;PRELOAD C(AC+1) WITH 172737,,405060
 42766	057537	242 01 0 00 777751 		LSH	1,-27			;*LSH SHOULD LOGICALLY SHIFT 007603,,607062
 42767										;RIGHT 27 OCTAL BIT POSITIONS
 42768	057540	312 01 0 00 071065 		CAME	1,[0,,174]		;PASS IF C(AC)=0,,174
 42769						STOP^
 42770	057541	254 04 0 00 057542 		HALT	.+1		;TEST FAILED IF PROGRAM HALTS HERE
 42771	057542	324 00 0 00 057543 		JUMPA	.+1		;IF TEST FAILS, CHANGE THIS INSTRUCTION (JUMPA .+1) TO
 42772									;JUMPA X (X IS THE ADDRESS OF THE FIRST INSTRUCTION
 42773									;IN THE SUBTEST) TO LOOP ON ERROR^
 42774	057543	312 02 0 00 071034 		CAME	2,[172737,,405060]	;PASS IF C(AC+1) NOT AFFECTED
 42775						STOP^
 42776	057544	254 04 0 00 057545 		HALT	.+1		;TEST FAILED IF PROGRAM HALTS HERE
 42777	057545	324 00 0 00 057546 		JUMPA	.+1		;IF TEST FAILS, CHANGE THIS INSTRUCTION (JUMPA .+1) TO
 42778									;JUMPA X (X IS THE ADDRESS OF THE FIRST INSTRUCTION
 42779									;IN THE SUBTEST) TO LOOP ON ERROR^
 42780
 42781					;**********
DFKAA PDP-10 KL10 BASIC INSTRUCTION DIAGNOSTIC (1) VER 0,2	MACRO %53B(1254)-4 11:50 11-Nov-24 Page 44
DFKAA7	MAC	13-Jan-89 10:22		TEST OF SHIFT/ROTATE INSTRUCTIONS USED IN THE ERROR HANDLER

 42782					;THIS TEST VERIFIES THAT THE LSH INSTRUCTION FUNCTIONS CORRECTLY
 42783					;IN THIS CASE, 0,,0 SHOULD BE LOGICALLY SHIFTED RIGHT 33 OCTAL BIT POSITIONS
 42784					;SO THAT FINAL C(AC)=0,,0.
 42785					;C(AC+1) SHOULD NOT BE AFFECTED
 42786
 42787	057546	200 01 0 00 070253 	C42200:	MOVE	1,[0,0]		;PRELOAD AC WITH 0,,0
 42788	057547	200 02 0 00 071034 		MOVE	2,[172737,,405060]	;PRELOAD C(AC+1) WITH 172737,,405060
 42789	057550	242 01 0 00 777745 		LSH	1,-33		;*LSH SHOULD LOGICALLY SHIFT 0,,0
 42790									;RIGHT 33 OCTAL BIT POSITIONS
 42791	057551	312 01 0 00 070253 		CAME	1,[0,,0]	;PASS IF C(AC)=0,,0
 42792						STOP^
 42793	057552	254 04 0 00 057553 		HALT	.+1		;TEST FAILED IF PROGRAM HALTS HERE
 42794	057553	324 00 0 00 057554 		JUMPA	.+1		;IF TEST FAILS, CHANGE THIS INSTRUCTION (JUMPA .+1) TO
 42795									;JUMPA X (X IS THE ADDRESS OF THE FIRST INSTRUCTION
 42796									;IN THE SUBTEST) TO LOOP ON ERROR^
 42797	057554	312 02 0 00 071034 		CAME	2,[172737,,405060]	;PASS IF C(AC+1) NOT AFFECTED
 42798						STOP^
 42799	057555	254 04 0 00 057556 		HALT	.+1		;TEST FAILED IF PROGRAM HALTS HERE
 42800	057556	324 00 0 00 057557 		JUMPA	.+1		;IF TEST FAILS, CHANGE THIS INSTRUCTION (JUMPA .+1) TO
 42801									;JUMPA X (X IS THE ADDRESS OF THE FIRST INSTRUCTION
 42802									;IN THE SUBTEST) TO LOOP ON ERROR^
 42803
 42804					;**********
 42805
 42806					;THIS TEST VERIFIES THAT THE LSH INSTRUCTION FUNCTIONS CORRECTLY
 42807					;IN THIS CASE, -1,,-1 SHOULD BE LOGICALLY SHIFTED RIGHT 33 OCTAL BIT POSITIONS
 42808					;SO THAT FINAL C(AC)=0,,777.
 42809					;C(AC+1) SHOULD NOT BE AFFECTED
 42810
 42811	057557	200 01 0 00 070254 	C42300:	MOVE	1,[-1,,-1]	;PRELOAD AC WITH -1,,-1
 42812	057560	200 02 0 00 071034 		MOVE	2,[172737,,405060]	;PRELOAD C(AC+1) WITH 172737,,405060
 42813	057561	242 01 0 00 777745 		LSH	1,-33		;*LSH SHOULD LOGICALLY SHIFT -1,,-1
 42814									;RIGHT 33 OCTAL BIT POSITIONS
 42815	057562	312 01 0 00 070262 		CAME	1,[0,,777]	;PASS IF C(AC)=0,,777
 42816						STOP^
 42817	057563	254 04 0 00 057564 		HALT	.+1		;TEST FAILED IF PROGRAM HALTS HERE
 42818	057564	324 00 0 00 057565 		JUMPA	.+1		;IF TEST FAILS, CHANGE THIS INSTRUCTION (JUMPA .+1) TO
 42819									;JUMPA X (X IS THE ADDRESS OF THE FIRST INSTRUCTION
 42820									;IN THE SUBTEST) TO LOOP ON ERROR^
 42821	057565	312 02 0 00 071034 		CAME	2,[172737,,405060]	;PASS IF C(AC+1) NOT AFFECTED
 42822						STOP^
 42823	057566	254 04 0 00 057567 		HALT	.+1		;TEST FAILED IF PROGRAM HALTS HERE
 42824	057567	324 00 0 00 057570 		JUMPA	.+1		;IF TEST FAILS, CHANGE THIS INSTRUCTION (JUMPA .+1) TO
 42825									;JUMPA X (X IS THE ADDRESS OF THE FIRST INSTRUCTION
 42826									;IN THE SUBTEST) TO LOOP ON ERROR^
 42827
 42828					;**********
DFKAA PDP-10 KL10 BASIC INSTRUCTION DIAGNOSTIC (1) VER 0,2	MACRO %53B(1254)-4 11:50 11-Nov-24 Page 45
DFKAA7	MAC	13-Jan-89 10:22		TEST OF SHIFT/ROTATE INSTRUCTIONS USED IN THE ERROR HANDLER

 42829					;THIS TEST VERIFIES THAT THE LSH INSTRUCTION FUNCTIONS CORRECTLY
 42830					;IN THIS CASE, 252525,,252525 SHOULD BE LOGICALLY SHIFTED RIGHT 33 OCTAL BIT POSITIONS
 42831					;SO THAT FINAL C(AC)=0,,252.
 42832					;C(AC+1) SHOULD NOT BE AFFECTED
 42833
 42834	057570	200 01 0 00 070614 	C42400:	MOVE	1,[252525,,252525]	;PRELOAD AC WITH 252525,,252525
 42835	057571	200 02 0 00 071034 		MOVE	2,[172737,,405060]	;PRELOAD C(AC+1) WITH 172737,,405060
 42836	057572	242 01 0 00 777745 		LSH	1,-33			;*LSH SHOULD LOGICALLY SHIFT 252525,,252525
 42837										;RIGHT 33 OCTAL BIT POSITIONS
 42838	057573	312 01 0 00 071056 		CAME	1,[0,,252]		;PASS IF C(AC)=0,,252
 42839						STOP^
 42840	057574	254 04 0 00 057575 		HALT	.+1		;TEST FAILED IF PROGRAM HALTS HERE
 42841	057575	324 00 0 00 057576 		JUMPA	.+1		;IF TEST FAILS, CHANGE THIS INSTRUCTION (JUMPA .+1) TO
 42842									;JUMPA X (X IS THE ADDRESS OF THE FIRST INSTRUCTION
 42843									;IN THE SUBTEST) TO LOOP ON ERROR^
 42844	057576	312 02 0 00 071034 		CAME	2,[172737,,405060]	;PASS IF C(AC+1) NOT AFFECTED
 42845						STOP^
 42846	057577	254 04 0 00 057600 		HALT	.+1		;TEST FAILED IF PROGRAM HALTS HERE
 42847	057600	324 00 0 00 057601 		JUMPA	.+1		;IF TEST FAILS, CHANGE THIS INSTRUCTION (JUMPA .+1) TO
 42848									;JUMPA X (X IS THE ADDRESS OF THE FIRST INSTRUCTION
 42849									;IN THE SUBTEST) TO LOOP ON ERROR^
 42850
 42851					;**********
 42852
 42853					;THIS TEST VERIFIES THAT THE LSH INSTRUCTION FUNCTIONS CORRECTLY
 42854					;IN THIS CASE, 525252,,525252 SHOULD BE LOGICALLY SHIFTED RIGHT 33 OCTAL BIT POSITIONS
 42855					;SO THAT FINAL C(AC)=0,,525.
 42856					;C(AC+1) SHOULD NOT BE AFFECTED
 42857
 42858	057601	200 01 0 00 071035 	C42500:	MOVE	1,[525252,,525252]	;PRELOAD AC WITH 525252,,525252
 42859	057602	200 02 0 00 071034 		MOVE	2,[172737,,405060]	;PRELOAD C(AC+1) WITH 172737,,405060
 42860	057603	242 01 0 00 777745 		LSH	1,-33			;*LSH SHOULD LOGICALLY SHIFT 525252,,525252
 42861										;RIGHT 33 OCTAL BIT POSITIONS
 42862	057604	312 01 0 00 071057 		CAME	1,[0,,525]		;PASS IF C(AC)=0,525
 42863						STOP^
 42864	057605	254 04 0 00 057606 		HALT	.+1		;TEST FAILED IF PROGRAM HALTS HERE
 42865	057606	324 00 0 00 057607 		JUMPA	.+1		;IF TEST FAILS, CHANGE THIS INSTRUCTION (JUMPA .+1) TO
 42866									;JUMPA X (X IS THE ADDRESS OF THE FIRST INSTRUCTION
 42867									;IN THE SUBTEST) TO LOOP ON ERROR^
 42868	057607	312 02 0 00 071034 		CAME	2,[172737,,405060]	;PASS IF C(AC+1) NOT AFFECTED
 42869						STOP^
 42870	057610	254 04 0 00 057611 		HALT	.+1		;TEST FAILED IF PROGRAM HALTS HERE
 42871	057611	324 00 0 00 057612 		JUMPA	.+1		;IF TEST FAILS, CHANGE THIS INSTRUCTION (JUMPA .+1) TO
 42872									;JUMPA X (X IS THE ADDRESS OF THE FIRST INSTRUCTION
 42873									;IN THE SUBTEST) TO LOOP ON ERROR^
 42874
 42875					;**********
DFKAA PDP-10 KL10 BASIC INSTRUCTION DIAGNOSTIC (1) VER 0,2	MACRO %53B(1254)-4 11:50 11-Nov-24 Page 46
DFKAA7	MAC	13-Jan-89 10:22		TEST OF SHIFT/ROTATE INSTRUCTIONS USED IN THE ERROR HANDLER

 42876					;THIS TEST VERIFIES THAT THE LSH INSTRUCTION FUNCTIONS CORRECTLY
 42877					;IN THIS CASE, 230703,,603700 SHOULD BE LOGICALLY SHIFTED RIGHT 33 OCTAL BIT POSITIONS
 42878					;SO THAT FINAL C(AC)=0,,230.
 42879					;C(AC+1) SHOULD NOT BE AFFECTED
 42880
 42881	057612	200 01 0 00 071036 	C42600:	MOVE	1,[230703,,603700]	;PRELOAD AC WITH 230703,,603700
 42882	057613	200 02 0 00 071034 		MOVE	2,[172737,,405060]	;PRELOAD C(AC+1) WITH 172737,,405060
 42883	057614	242 01 0 00 777745 		LSH	1,-33			;*LSH SHOULD LOGICALLY SHIFT 230703,,603700
 42884										;RIGHT 33 OCTAL BIT POSITIONS
 42885	057615	312 01 0 00 071060 		CAME	1,[0,,230]		;PASS IF C(AC)=0,,230
 42886						STOP^
 42887	057616	254 04 0 00 057617 		HALT	.+1		;TEST FAILED IF PROGRAM HALTS HERE
 42888	057617	324 00 0 00 057620 		JUMPA	.+1		;IF TEST FAILS, CHANGE THIS INSTRUCTION (JUMPA .+1) TO
 42889									;JUMPA X (X IS THE ADDRESS OF THE FIRST INSTRUCTION
 42890									;IN THE SUBTEST) TO LOOP ON ERROR^
 42891	057620	312 02 0 00 071034 		CAME	2,[172737,,405060]	;PASS IF C(AC+1) NOT AFFECTED
 42892						STOP^
 42893	057621	254 04 0 00 057622 		HALT	.+1		;TEST FAILED IF PROGRAM HALTS HERE
 42894	057622	324 00 0 00 057623 		JUMPA	.+1		;IF TEST FAILS, CHANGE THIS INSTRUCTION (JUMPA .+1) TO
 42895									;JUMPA X (X IS THE ADDRESS OF THE FIRST INSTRUCTION
 42896									;IN THE SUBTEST) TO LOOP ON ERROR^
 42897
 42898					;**********
 42899
 42900					;THIS TEST VERIFIES THAT THE LSH INSTRUCTION FUNCTIONS CORRECTLY
 42901					;IN THIS CASE, 007603,,607062 SHOULD BE LOGICALLY SHIFTED RIGHT 33 OCTAL BIT POSITIONS
 42902					;SO THAT FINAL C(AC)=0,,7.
 42903					;C(AC+1) SHOULD NOT BE AFFECTED
 42904
 42905	057623	200 01 0 00 071040 	C42700:	MOVE	1,[007603,,607062]	;PRELOAD AC WITH 007603,,607062
 42906	057624	200 02 0 00 071034 		MOVE	2,[172737,,405060]	;PRELOAD C(AC+1) WITH 172737,,405060
 42907	057625	242 01 0 00 777745 		LSH	1,-33			;*LSH SHOULD LOGICALLY SHIFT 007603,,607062
 42908										;RIGHT 33 OCTAL BIT POSITIONS
 42909	057626	312 01 0 00 071033 		CAME	1,[0,,7]		;PASS IF C(AC)=0,,7
 42910						STOP^
 42911	057627	254 04 0 00 057630 		HALT	.+1		;TEST FAILED IF PROGRAM HALTS HERE
 42912	057630	324 00 0 00 057631 		JUMPA	.+1		;IF TEST FAILS, CHANGE THIS INSTRUCTION (JUMPA .+1) TO
 42913									;JUMPA X (X IS THE ADDRESS OF THE FIRST INSTRUCTION
 42914									;IN THE SUBTEST) TO LOOP ON ERROR^
 42915	057631	312 02 0 00 071034 		CAME	2,[172737,,405060]	;PASS IF C(AC+1) NOT AFFECTED
 42916						STOP^
 42917	057632	254 04 0 00 057633 		HALT	.+1		;TEST FAILED IF PROGRAM HALTS HERE
 42918	057633	324 00 0 00 057634 		JUMPA	.+1		;IF TEST FAILS, CHANGE THIS INSTRUCTION (JUMPA .+1) TO
 42919									;JUMPA X (X IS THE ADDRESS OF THE FIRST INSTRUCTION
 42920									;IN THE SUBTEST) TO LOOP ON ERROR^
 42921
 42922					;**********
DFKAA PDP-10 KL10 BASIC INSTRUCTION DIAGNOSTIC (1) VER 0,2	MACRO %53B(1254)-4 11:50 11-Nov-24 Page 1
DFKAA8	MAC	13-Jan-89 10:22		PI/IOT/APR DIAGNOSTIC SECTION

 42923					SUBTTL	PI/IOT/APR DIAGNOSTIC SECTION
 42924
 42925	057634	402 00 0 00 030037 	BEGIOT:	SETZM	USER		;CLEAR USER CONTROL WORD
 42926	057635	265 00 0 00 057636 		JSP	0,.+1		;GET FLAGS
 42927	057636	603 00 0 00 010000 		TLNE	USERF		;IN USER MODE ?
 42928	057637	476 00 0 00 030037 		SETOM	USER		;YES, SET USER CONTROL WORD
 42929	057640	336 00 0 00 030042 		SKIPN	MONFLG		;SPECIAL USER MODE ?
 42930	057641	402 00 0 00 030037 		SETZM	USER		;YES, CLEAR USER CONTROL WORD
 42931	057642	336 00 0 00 030037 		SKIPN	USER
 42932	057643	254 00 0 00 057645 		JRST	IOT0		;RUN IOT TEST ONLY IN EXEC MODE
 42933
 42934	057644	254 00 0 00 030057 		JRST	BEGEND		;OTHERWISE START OVER
DFKAA PDP-10 KL10 BASIC INSTRUCTION DIAGNOSTIC (1) VER 0,2	MACRO %53B(1254)-4 11:50 11-Nov-24 Page 2
DFKAA8	MAC	13-Jan-89 10:22		MACRO'S OPDEFS AND SPECIAL FLAG DEFINITIONS

 42935					SUBTTL	MACRO'S OPDEFS AND SPECIAL FLAG DEFINITIONS
 42936
 42937						LALL
 42938			000774			LAST=774		;LAST POSSIBLE DEVICE
 42939
 42940					;OPERATOR DEFINITIONS
 42941
 42942		264000	070120			OPDEF	TRPPI	[JSR	TRAPPI]	;FILL INTERRUPT LOCATIONS
 42943		264000	070103			OPDEF	HALTPI	[JSR	HALTPI]	;FILL INT. LOC. WITH HALTS
 42944		264000	070072			OPDEF	CLRTRP	[JSR	TRPCLR]	;CLEAR TRAPS
 42945
 42946						OPDEF	CLRAPR	[CONO APR,LIOCLR!LCSBER!LCNXER!LCPAER!LCIOPF!LCPWRF!LCCASD!LDSBER!LD
 42947		700200	267760		NXER!LDPAER!LDIOPF!LDPWRF!LDCASD!LCCAER!LDCAER!LCSAER!LDSAER]
 42948		700600	031577			OPDEF	CLRPI	[CONO PI,LRQCLR!PICLR!CHNOFF!PIOFF!177]
 42949
 42950					;MACROS
 42951
 42952						DEFINE	BLURB	<
 42953					;LOCATIONS 40-60 CONTAIN A JSP TO A ROUTINE WHICH STORES
 42954					;THE CHANNEL NUMBER OF THE INTERRUPT INTO 0
 42955					;THEREFORE IF AN INTERRUPT OCCURS THEN LOCATION
 42956					;ZERO WILL CONTAIN THE NUMBER OF THE INTERRUPT CHANNEL TRAP ADRESS
 42957					>
 42958						DEFINE	BLURB1	<
 42959					;LOCATIONS 40-60 CONTAIN A JSP TO A ROUTINE WHICH EXECUTES A HALT
 42960					;POINTING TO THE CHANNEL WHICH CAUSED THE REQUEST.
 42961					;OR THE CHANNEL WHICH CAUSED THE INCORRECT INTERRUPT. THE PARTICULAR
 42962					;INTERRUPT TRAP ADRESS FOR THE INTERRUPT LEVEL BEING TESTED MAY NOT
 42963					;ALWAYS HAVE A JSP TO A HALT IN CASE WE ARE TESTING FOR REAL
 42964					;INTERRUPTS ON THAT CHANNEL. IN THIS CASE ONLY THE TRAP FOR THAT
 42965					;PARTICULAR CHANNEL WILL BE LEGAL. ALL OTHERS WILL HALT.
 42966					>
DFKAA PDP-10 KL10 BASIC INSTRUCTION DIAGNOSTIC (1) VER 0,2	MACRO %53B(1254)-4 11:50 11-Nov-24 Page 3
DFKAA8	MAC	13-Jan-89 10:22		MACRO'S OPDEFS AND SPECIAL FLAG DEFINITIONS

 42967						DEFINE	WATINT	<
 42968						MOVEI	13,1000		;SET UP LOOP OF TEN TO WAIT FOR INT.
 42969						SOJG	13,.		;AND WAIT>
 42970
 42971						DEFINE	STOP2<
 42972						HALT	.+1		;HALT IF WE SHOULDN'T BE HERE
 42973						JRST	.+1		;WILD TRANSFER CAUSED THIS HALT.>
 42974
 42975						DEFINE	TSET<
 42976						%X=.			;DEFINE %X TO SAVE
 42977						MOVEI	%X		;SAVE THIS PC IN CASE OF WILD TRANSFER
 42978						MOVEM	TNUMB#		;BECAUSE OF PC MOD OR INTERRUPT>
 42979
 42980						DEFINE	TGET<
 42981						MOVE	TNUMB		;GET LAST PC STORED AND CHECK TO SEE
 42982						CAIE	%X		;IF ITS WHERE WE REALLY SHOULD BE
 42983						STOP2>
 42984
 42985						DEFINE	TBOTH<
 42986						TGET
 42987
 42988						TSET>
 42989
 42990						DEFINE	PINO	(A,%NO)<
 42991
 42992					;ENABLE THE PI SYSTEM. AND EXPECT NO INTERRUPTS. THEN TEST THAT THE
 42993					;HOLD FLOP FOR EACH CHANNEL IS NOT SET.
 42994
 42995						TSET
 42996					%NO:	CLRBTH
 42997						CONO	PI,PION		;ENABLE PI AND ,EXPECT NO INTERRUPTS
 42998						WATINT
 42999						CONSZ	PI,A		;CHECK WHY INT. IN PROGRESS IS SET.
 43000						STOP
 43001						TGET
 43002					>
 43003						DEFINE	PIYES	(A,B,%YES)<
 43004
 43005					;SET REQUESTS FOR EACH CHANNEL BUT DO NOT SET PI ACTIVE.
 43006					;INTERRUPTS SHOULD NOT OCCUR, AND THE INTERRUPT IN PROGRESS
 43007					;FLAG SHOULD NOT BE SET FOR THE CHANNEL BEING TESTED
 43008
 43009						TSET
 43010					%YES:	CLRBTH
 43011						CONO	PI,REQSET+A	;SET CHANNEL REQUEST BUT NOT ACTIVE
 43012						WATINT
 43013						CONSZ	PI,B		;CHECK WHY INT. IN PROGRESS IS SET.
 43014						STOP
 43015						TGET
 43016					>
DFKAA PDP-10 KL10 BASIC INSTRUCTION DIAGNOSTIC (1) VER 0,2	MACRO %53B(1254)-4 11:50 11-Nov-24 Page 4
DFKAA8	MAC	13-Jan-89 10:22		MACRO'S OPDEFS AND SPECIAL FLAG DEFINITIONS

 43017						DEFINE	PIHCLR	(A,B,%HCLR)<
 43018
 43019					;CHECK THAT PICLR CLEARS THE HOLD FLOP
 43020
 43021						TSET
 43022					%HCLR:	CLRBTH
 43023						CONO	PI,REQSET+PION+A	;CAUSE INT. TO SET HOLD
 43024						WATINT
 43025						CONO	PI,PICLR	;THEN CLEAR VIA PI RESET
 43026						CONSZ	PI,B		;HOLD FLOP FAILED TO CLEAR.
 43027						STOP
 43028						TGET
 43029					>
 43030						DEFINE	PIONOF	(A,%ONOF)<
 43031
 43032					;CHECK THAT PICLR CLEARS THE REQUEST FLOP
 43033					;AND THAT AN INTERUPT DOES NOT OCCUR
 43034
 43035					BLURB1
 43036
 43037						TSET
 43038					%ONOF:	CLRBTH
 43039						CONO	PI,REQSET+A	;SET REQ. BUT NOT ACTIVE
 43040						SETZ			;THEN CLEAR REQUEST THEN SET ACTIVE
 43041						CONO	PI,PICLR+A	;PI RESET FAILED TO CLEAR PIR FLAG.
 43042						WATINT
 43043						SKIPE			;MOVEI EXEC OUT OF INTERRUPT CH.?
 43044						STOP
 43045						TGET
 43046					>
 43047						DEFINE	PIDIS	(A,B,%PICHK)<
 43048
 43049					;CHECK THAT A JEN WILL DISMISS INTERUPTS ON ALL CHANNELS
 43050
 43051						TSET
 43052					%PICHK:	MOVE	[JSP 1,.+6]	;PUT THE PI TRAP INSTRUCTION
 43053						MOVEM	A		;INTO A
 43054						CONO	PI,CHNON+PION+REQSET+B	;TURN ON PI AND REQEST ON CH B
 43055						WATINT
 43056						JRST	.+3
 43057						CONO	PI,CHNON+PION+LRQCLR+B	;TURN OF INTERRUPT REQUEST
 43058						JEN	@1		;DISMISS THE INTERRUPT
 43059						CONSZ	PI,77400	;NO REQUESTS SHOULD BE SET
 43060						STOP
 43061						TGET
 43062						CLRBTH
 43063					>
DFKAA PDP-10 KL10 BASIC INSTRUCTION DIAGNOSTIC (1) VER 0,2	MACRO %53B(1254)-4 11:50 11-Nov-24 Page 5
DFKAA8	MAC	13-Jan-89 10:22		MACRO'S OPDEFS AND SPECIAL FLAG DEFINITIONS

 43064						DEFINE	PITEST	(A,%PITST)<
 43065
 43066					;TEST SETTING OF CHANNEL FLOP
 43067
 43068						TSET
 43069					%PITST:	CLRBTH
 43070						CONO	PI,CHNON+A	;PION FAILED TO SET
 43071						CONSO	PI,A
 43072						STOP
 43073						TBOTH
 43074						CLRBTH
 43075					;TEST CLEARING OF CHANNEL FLOP
 43076						CONO	PI,CHNON+A	;CHECK PIO CLR
 43077						CONO	PI,CHNOFF+A	;TURN OFF CHANNELS
 43078						CONSZ	PI,A		;CHECK WHY FLOP NOT CLEAR
 43079						STOP
 43080						TBOTH
 43081						CLRBTH
 43082					;CHECK RESETING OF PI SYSTEM
 43083						CONO	PI,CHNON+A	;CHECK THAT PI RESET CLEARS
 43084						CONO	PI,PICLR	;PI SYSTEM
 43085						CONSZ	PI,A
 43086						STOP
 43087						TBOTH
 43088						CLRBTH
 43089					;TEST THAT CONO ONLY SETS PION
 43090						CONO	PI,CHNON	;TEST PIO SET
 43091						CONSZ	PI,A		;CHECK WHY CONO SET FLAGS WHITHOUT AN IOB BIT
 43092						STOP
 43093						TBOTH
 43094						CLRBTH
 43095					;CHECK THAT CONO DOES NOT CLEAR ACTIVE
 43096						CONO	PI,CHNON+A	;TEST PIO CLR
 43097						CONO	PI,CHNOFF	;MAYBE RESET OCCURED - BIT SHOULD STILL
 43098						CONSO	PI,A		;BE SET
 43099						STOP
 43100						TGET
 43101					>
DFKAA PDP-10 KL10 BASIC INSTRUCTION DIAGNOSTIC (1) VER 0,2	MACRO %53B(1254)-4 11:50 11-Nov-24 Page 6
DFKAA8	MAC	13-Jan-89 10:22		MACRO'S OPDEFS AND SPECIAL FLAG DEFINITIONS

 43102						DEFINE	EXECUT<
 43103					;FILL THE INTERRUPT LOCATIONS WITH "MOVEI'S"
 43104						MOVE	1,[MOVEI 42]	;STORE A MOVEI IN
 43105						MOVEM	1,(1)		;INTO 42-60
 43106						CAME	1,[MOVEI 57]
 43107						AOJA	1,.-2		;LOOP>
 43108
 43109						DEFINE	STOP<
 43110						HALT	.+1		;INSTRUCTION FAILED REPLACE
 43111						JRST	.+1		;WITH JRST BACK>
 43112
 43113						DEFINE	STOP1<
 43114						HALT	.+1		;UUO FAILED TO STORE MA BITS
 43115						JRST	.+1		;INTO RIGHT HALF OF 40>
 43116
 43117						DEFINE	XUUO	(X,Y,%XUO)<
 43118
 43119					;EXECUTE AN LUUO AND CHECK THAT THE UUO AND PC STORED
 43120					;ARE CORRECT.
 43121
 43122						MLUUO==X		;THE UUO TO BE EXECUTED
 43123						TSET
 43124					%XUO:	MOVE	0,[JSP	1,.+4]	;TRAP INSTRUCTION
 43125						MOVEM	0,41		;IN TO 41
 43126						X			;EXECUTE A UUO
 43127						HALT	.+1		;UUO DID NOT TRAP TO FORTY
 43128						MOVEI	2,.-1		;GET UUO PC
 43129						ANDI	1,-1		;MASK FLAGS OUT
 43130						CAME	1,2		;PC CORRECT ?
 43131						HALT	.+1		;PC OF UUO NOT = TO PC STORED
 43132						MOVE	0,40		;GET UUO !
 43133						CAME	0,[X!0]		;CORRECT UUO STORED IN 40?
 43134						SKIPA			;NO
 43135						JRST	Y		;TESTS OK !
 43136						STOP1
 43137						TGET
 43138					>
DFKAA PDP-10 KL10 BASIC INSTRUCTION DIAGNOSTIC (1) VER 0,2	MACRO %53B(1254)-4 11:50 11-Nov-24 Page 7
DFKAA8	MAC	13-Jan-89 10:22		MACRO'S OPDEFS AND SPECIAL FLAG DEFINITIONS

 43139						DEFINE	XUUOA	(X,%UUPC,%XUPC0,%XUPC1)<
 43140
 43141					;CHECK THE "E" OF THE UUO STORED IS CORRECT.
 43142
 43143						EFIELD==X		;"E" WE ARE TESTING FOR
 43144						TSET
 43145					%UUPC:	MOVE	[JRST	.+4]	;SET A TRAP INSTRUCTION
 43146						MOVEM	41		;INTO 41
 43147						1B8!X			;EXECUTE A UUO
 43148					%XUPC0:	HALT	.+1		;UUO DIDN'T TRAP TO 40
 43149						MOVE	0,40		;GET UUO
 43150						ANDI	0,-1		;MASK OUT UUO FOR MA BITS
 43151						CAIE	X		;MA BITS CORRECT?
 43152					%XUPC1:	STOP1
 43153						TGET
 43154					>
 43155
 43156						DEFINE	CLRBTH<
 43157						CLRAPR
 43158						CLRPI>
 43159
 43160						DEFINE	CLRBT1<
 43161						CLRAPR
 43162						CLRPI>
 43163
 43164						DEFINE	TRAP	(A,B)<
 43165						MOVE	[A]		;SET TRAP INSTRUCTION
 43166						MOVEM	B		;INTO TRAP LOCATION>
 43167
 43168						DEFINE	STUCK<
 43169						WATINT
 43170						JRST	.		;LOOOP ON SELF>
 43171
 43172						DEFINE	SBWAIT	(A,%CLKUP)<
 43173					%CLKUP:	CONO	APR,LESBER!LSSBER!A
 43174						STUCK>		;WAIT S BUS ERRORS
 43175						DEFINE	TRPCHK	(%TPC)<
 43176					%TPC:	SKIPE	MONFLG		;RESET FLAGS IF IN MONITOR
 43177						JRST	.+3		;DONT IF STAND ALONE
 43178						JRSTF	@.+1		;AND RESTORE THEM
 43179						USERF,.+1		;NEW PC AND FLAGS>
DFKAA PDP-10 KL10 BASIC INSTRUCTION DIAGNOSTIC (1) VER 0,2	MACRO %53B(1254)-4 11:50 11-Nov-24 Page 8
DFKAA8	MAC	13-Jan-89 10:22		MACRO'S OPDEFS AND SPECIAL FLAG DEFINITIONS

 43180						DEFINE	XCHN2	(A,B,C)<
 43181
 43182					;REQUEST INTERRUPTS ON 2 CHANNELS AT ONCE TO SEE IF THEY TRAP
 43183					;TO THE CORRECT (I.E. HIGHEST PRIORITY) CHANNEL.
 43184					;IF ERROR OCCURS CHECK "PIN" PRINT
 43185
 43186						TRPCHK
 43187						CLRBTH
 43188						HALTPI			;FILL INTERRUPT LOCATIONS WITH HALTS
 43189						MOVE	[JSP A]		;SET UP FOR CORRECT
 43190						MOVEM	B		;INTERRUPT TRAP
 43191						CONO	PI,CHNON!PION!177	;TURN ON PI SYSTEM
 43192						CONO	PI,REQSET!C	;REQUEST INTERRUPT ON TWO CHANNELS
 43193						STUCK
 43194					>
 43195						DEFINE	PSKPA	(A,B,%X)<
 43196
 43197					;TEST THAT AOSE DOES NOT DISMISS INTERRUPTS, OR SKIP WHEN EXECUTED AS
 43198					;AN INTERRUPT INSTRUCTION.
 43199
 43200						CLRBTH
 43201						HALTPI			;FILL INTERRUPT LOCATIONS WITH HALTS
 43202						MOVE	[AOSE 0]	;PI TRAP INSTRUCTION
 43203						MOVEM	A		;INTO TRAP LOCATION
 43204						MOVE	[JSP 1,%X]	;SECOND TRAP INSTRUCTION
 43205						MOVEM	A+1		;INTO SECOND PI INSTRUCTION
 43206						MOVEI	1		;SET AC TO NON ZERO
 43207						CONO	PI,REQSET!PION!CHNON!B ;REQUEST INTERRUPT ON CH B
 43208
 43209					;IF WE FALL THROUGH THEN THE INTERRUPT WAS DISMISSED WHEN THE AOS FAILED
 43210
 43211						WATINT
 43212						STOP
 43213					%X:	CLRBTH
 43214						CAIE	2		;ONLY ONE AOSE PREFORMED?
 43215						STOP
 43216					>
DFKAA PDP-10 KL10 BASIC INSTRUCTION DIAGNOSTIC (1) VER 0,2	MACRO %53B(1254)-4 11:50 11-Nov-24 Page 9
DFKAA8	MAC	13-Jan-89 10:22		MACRO'S OPDEFS AND SPECIAL FLAG DEFINITIONS

 43217						DEFINE	PSKPB	(A,B,%X)<
 43218
 43219					;CHECK THAT SKIPE DOES NOT SKIP, OR MODIFY THE AC, OR DISMISS
 43220					;THE INTERRUPT.
 43221
 43222						CLRBTH
 43223						HALTPI			;FILL INTERRUPT LOCATIONS WITH HALTS
 43224						MOVE	[SKIPE 0,0]	;PI TRAP INSTRUCTION(SHOULD NOT SKIP)
 43225						MOVEM	A		;INTO TRAP LOCATION
 43226						MOVE	[JSP 1,%X]	;SECOND TRAP INSTRUCTION
 43227						MOVEM	A+1		;INTO SECOND PI INSTRUCTION
 43228						MOVEI	1		;SET AC TO NON ZERO
 43229						CONO	PI,REQSET!PION!CHNON!B ;REQUEST INTERRUPT ON CH B
 43230
 43231					;IF WE FALL THROUGH TO HERE, THEN THE INT. WAS DISMISSED AND SHOULDN'T HAVE BEEN
 43232
 43233						WATINT
 43234						STOP
 43235					%X:	CLRBTH
 43236						CAIE	1		;JUMPE SHOULD HAVE NOT MODIFIED THE AC
 43237						STOP
 43238					>
DFKAA PDP-10 KL10 BASIC INSTRUCTION DIAGNOSTIC (1) VER 0,2	MACRO %53B(1254)-4 11:50 11-Nov-24 Page 10
DFKAA8	MAC	13-Jan-89 10:22		MACRO'S OPDEFS AND SPECIAL FLAG DEFINITIONS

 43239						DEFINE	FMUUO	(A,%FMTST,%NOFM),<
 43240
 43241					;EXECUTE UUO'S OUT OF FAST MEMORY LOCATIONS 0,1,2,4,5,10,12, AND 17
 43242					;CHECK FIRST THAT THE UUO TRAPPED AND SECONDLY THAT IT STORED THE
 43243					;CORRECT PC.
 43244
 43245						AC=A			;TESTED AC
 43246
 43247						TSET
 43248						MOVE	A,[XWD 1000,0]	;SET UP UUO INTO AC A TO EXECUTE
 43249						MOVE	13,[JSP 11,%FMTST] ;SET UP UUO TRAP INSTRUCTION
 43250						MOVEM	13,41		;INTO LOCATION 41
 43251						MOVE	A+1,[JRST %NOFM] ;SET UP TRAP INSTRUCTION INCASE UUO DOES NOT TRAP
 43252						JRST	A		;GO EXECUTE  UUO
 43253					%NOFM:	HALT	.+1		;UUO DID NOT TRAP FROM FAST MEMORY
 43254						JRST	.+1		;LOOP TO %FMUUO IF ERROR
 43255					%FMTST:	ANDI	11,-1		;MASK FLAGS
 43256						CAIE	11,A+1		;PC STORED SHOULD = A +1
 43257						STOP
 43258						TGET
 43259					>
 43260
 43261						DEFINE	INDPI	(A,B,%XX),<
 43262
 43263					;GET OURSELVES INTO A TIGHT INDIRECT LOOP.
 43264					;AND SEE IF WE ARE ABLE TO INTERRUPT OUT OF IT.
 43265					;THE LOOP IS DONE TEN TIMES. EACH TIME THE INTERRUPT IS DISMISSED AND
 43266					;WE WILL RETURN TO THE "JRST @." INSTRUCTION.
 43267
 43268						TSET
 43269						MOVEI	10,^D10		;TIMES TO DO THIS TEST
 43270						MOVEM	10,COUNTX#	;STORE IT
 43271						MOVE	10,[JSP 1,%XX]	;INTERRUPT TRAP INSTRUCTION
 43272						MOVEM	10,A		;STORE FOR INTERRUPT REQUEST
 43273						CLRBT1
 43274						CONO	PI,2377		;TURN ON PI AND CHANNELS
 43275						CONO	APR,LESBER!LSSBER!B	;ENABLE AND SET S BUS ERRORS,ENABLE CH B
 43276						JRST	@.		;LOOP
 43277						HALT	.+1		;ERROR IF HERE  (GOT OUT OF INDIRECT LOOP)
 43278					%XX:	TGET
 43279						ANDI	1,-1		;MASK PC BITS
 43280						CAIE	1,%XX-2		;WAS CORRECT PC STORED?
 43281						STOP
 43282						SOSE	COUNTX		;LOOP TEST
 43283						JEN	@1		;DISMISS INTERRUPT
 43284						CLRBTH
 43285					>
DFKAA PDP-10 KL10 BASIC INSTRUCTION DIAGNOSTIC (1) VER 0,2	MACRO %53B(1254)-4 11:50 11-Nov-24 Page 12
DFKAA8	MAC	13-Jan-89 10:22		IOT TESTING

 43286					SUBTTL	IOT TESTING
 43287
 43288					;IF IOT HANGS - CHECK ARRT AND ARLT CLR
 43289					;AND OR AR SIGN SMEAR..
 43290
 43291					;TEST THE IOT'S
 43292	057645				IOTXXX:
 43293
 43294	057645				IOTXX:
 43295	057645	264 00 00 00 070231 	IOT0:	JSR	TRPSET		;FILL THE TRAP LOCATIONS
 43296	057646	474 01 0 00 000000 		SETO	1,		;THE IOTS FAIL
 43297	057647	7 000 04 0 00 000001 		DATAI	1		;TO STORE C(E)
 43298	057650	7 000 24 0 00 000001 		CONI	1		;CHECK IR DECODE
 43299	057651	316 01 0 00 070254 		CAMN	1,[-1]		;IR IOT ,IOT0-T9 ,ET2
 43300						STOP^
 43301	057652	254 04 0 00 057653 		HALT	.+1		;INSTRUCTION FAILED REPLACE
 43302	057653	254 00 0 00 057654 		JRST	.+1		;WITH JRST BACK^
 43303
 43304	057654	200 01 0 00 071066 	IOT1:	MOVE	1,[123456654321]	;CHECK DATAI STORING C(E)
 43305	057655	7 000 04 0 00 000001 		DATAI	1		;CONTENTS OF LOC 1
 43306	057656	316 01 0 00 071066 		CAMN	1,[123456654321]	;NOT MODIFIED
 43307						STOP^
 43308	057657	254 04 0 00 057660 		HALT	.+1		;INSTRUCTION FAILED REPLACE
 43309	057660	254 00 0 00 057661 		JRST	.+1		;WITH JRST BACK^
 43310
 43311	057661	200 01 0 00 071066 	IOT2:	MOVE	1,[123456654321]	;CHECK CONI STOR THE CONTENTS OF "E" NOT SET OR
 43312	057662	7 000 24 0 00 000001 		CONI	1		;SAC INH NOT SET - CONTENTS OF LOC 1
 43313	057663	316 01 0 00 071066 		CAMN	1,[123456654321]	;NOT MODIFIED
 43314						STOP^
 43315	057664	254 04 0 00 057665 		HALT	.+1		;INSTRUCTION FAILED REPLACE
 43316	057665	254 00 0 00 057666 		JRST	.+1		;WITH JRST BACK^
 43317
 43318	057666	474 00 0 00 000000 	IOT3:	SETO			;CHECK SAC INH FOR
 43319	057667	7 000 24 0 00 000001 		CONI	1		;CONI LOC 0
 43320	057670	312 00 0 00 070254 		CAME	[-1]		;MODIFIED
 43321						STOP^
 43322	057671	254 04 0 00 057672 		HALT	.+1		;INSTRUCTION FAILED REPLACE
 43323	057672	254 00 0 00 057673 		JRST	.+1		;WITH JRST BACK^
 43324
 43325	057673	7 774 20 0 00 000000 	IOT4:	CONO	LAST,0		;CLEAR LAST DEV (774)
 43326	057674	7 774 24 0 00 000002 		CONI	LAST,2
 43327	057675	306 02 0 00 000002 		CAIN	2,2		;IOT GOT E OF LAST INST.
 43328						STOP^
 43329	057676	254 04 0 00 057677 		HALT	.+1		;INSTRUCTION FAILED REPLACE
 43330	057677	254 00 0 00 057700 		JRST	.+1		;WITH JRST BACK^
DFKAA PDP-10 KL10 BASIC INSTRUCTION DIAGNOSTIC (1) VER 0,2	MACRO %53B(1254)-4 11:50 11-Nov-24 Page 13
DFKAA8	MAC	13-Jan-89 10:22		IOT TESTING

 43331	057700	7 774 14 0 00 070253 	IOT5:	DATAO	LAST,[0]	;AR CLR FAILED ON
 43332	057701	7 774 04 0 00 000003 		DATAI	LAST,3		;DATAI
 43333	057702	306 03 0 00 000003 		CAIN	3,3		;GET E AS DATA
 43334						STOP^
 43335	057703	254 04 0 00 057704 		HALT	.+1		;INSTRUCTION FAILED REPLACE
 43336	057704	254 00 0 00 057705 		JRST	.+1		;WITH JRST BACK^
 43337
 43338						TSET^
 43339			057705			%X=.			;DEFINE %X TO SAVE
 43340	057705	201 00 0 00 057705 		MOVEI	%X		;SAVE THIS PC IN CASE OF WILD TRANSFER
 43341	057706	202 00 0 00 071350 		MOVEM	TNUMB#		;BECAUSE OF PC MOD OR INTERRUPT^
 43342	057707	400 00 0 00 000000 	IOT6:	SETZ			;CONSZ FAILED TO SKIP
 43343	057710	7 000 30 0 00 000000 		CONSZ			;CHECK PC CLOCK ENABLE AND AD=0 ON IOT CONSZ
 43344						STOP^
 43345	057711	254 04 0 00 057712 		HALT	.+1		;INSTRUCTION FAILED REPLACE
 43346	057712	254 00 0 00 057713 		JRST	.+1		;WITH JRST BACK^
 43347
 43348						TBOTH^
 43349						TGET^
 43350	057713	200 00 0 00 071350 		MOVE	TNUMB		;GET LAST PC STORED AND CHECK TO SEE
 43351	057714	302 00 0 00 057705 		CAIE	%X		;IF ITS WHERE WE REALLY SHOULD BE
 43352						STOP2^^
 43353	057715	254 04 0 00 057716 		HALT	.+1		;HALT IF WE SHOULDN'T BE HERE
 43354	057716	254 00 0 00 057717 		JRST	.+1		;WILD TRANSFER CAUSED THIS HALT.^
 43355
 43356						TSET^^
 43357			057717			%X=.			;DEFINE %X TO SAVE
 43358	057717	201 00 0 00 057717 		MOVEI	%X		;SAVE THIS PC IN CASE OF WILD TRANSFER
 43359	057720	202 00 0 00 071350 		MOVEM	TNUMB#		;BECAUSE OF PC MOD OR INTERRUPT^
 43360	057721	7 774 20 0 00 000000 	IOT7:	CONO	LAST,0		;CONSZ FAILED TO SKIP
 43361	057722	7 774 30 0 00 700000 		CONSZ	LAST,700000	;CHECK PC CLK EN AT ET2 ON IOT CONSZ
 43362						STOP^
 43363	057723	254 04 0 00 057724 		HALT	.+1		;INSTRUCTION FAILED REPLACE
 43364	057724	254 00 0 00 057725 		JRST	.+1		;WITH JRST BACK^
DFKAA PDP-10 KL10 BASIC INSTRUCTION DIAGNOSTIC (1) VER 0,2	MACRO %53B(1254)-4 11:50 11-Nov-24 Page 14
DFKAA8	MAC	13-Jan-89 10:22		IOT TESTING

 43365						TBOTH^
 43366						TGET^
 43367	057725	200 00 0 00 071350 		MOVE	TNUMB		;GET LAST PC STORED AND CHECK TO SEE
 43368	057726	302 00 0 00 057717 		CAIE	%X		;IF ITS WHERE WE REALLY SHOULD BE
 43369						STOP2^^
 43370	057727	254 04 0 00 057730 		HALT	.+1		;HALT IF WE SHOULDN'T BE HERE
 43371	057730	254 00 0 00 057731 		JRST	.+1		;WILD TRANSFER CAUSED THIS HALT.^
 43372
 43373						TSET^^
 43374			057731			%X=.			;DEFINE %X TO SAVE
 43375	057731	201 00 0 00 057731 		MOVEI	%X		;SAVE THIS PC IN CASE OF WILD TRANSFER
 43376	057732	202 00 0 00 071350 		MOVEM	TNUMB#		;BECAUSE OF PC MOD OR INTERRUPT^
 43377	057733	7 774 20 0 00 000000 	IOT8:	CONO	LAST,0		;CONSO SKIPPED CHK PC CLK EN(0)
 43378	057734	7 774 34 0 00 000000 		CONSO	LAST,0		;AD=0, IOT CONSO
 43379	057735	334 00 0 00 000000 		SKIPA			;IOT CONSZ
 43380						STOP^
 43381	057736	254 04 0 00 057737 		HALT	.+1		;INSTRUCTION FAILED REPLACE
 43382	057737	254 00 0 00 057740 		JRST	.+1		;WITH JRST BACK^
 43383
 43384						TBOTH^
 43385						TGET^
 43386	057740	200 00 0 00 071350 		MOVE	TNUMB		;GET LAST PC STORED AND CHECK TO SEE
 43387	057741	302 00 0 00 057731 		CAIE	%X		;IF ITS WHERE WE REALLY SHOULD BE
 43388						STOP2^^
 43389	057742	254 04 0 00 057743 		HALT	.+1		;HALT IF WE SHOULDN'T BE HERE
 43390	057743	254 00 0 00 057744 		JRST	.+1		;WILD TRANSFER CAUSED THIS HALT.^
 43391
 43392						TSET^^
 43393			057744			%X=.			;DEFINE %X TO SAVE
 43394	057744	201 00 0 00 057744 		MOVEI	%X		;SAVE THIS PC IN CASE OF WILD TRANSFER
 43395	057745	202 00 0 00 071350 		MOVEM	TNUMB#		;BECAUSE OF PC MOD OR INTERRUPT^
 43396	057746	400 01 0 00 000000 	IOT9:	SETZ	1,		;CHK AD+1 TO BOTH ON IOT
 43397	057747	7 774 10 0 00 000001 		BLKO	LAST,1		;BLK, IF C(E)=0 THEN AD+1
 43398	057750	334 00 0 00 000000 		SKIPA			;BOTH OR ARFMAD(1) FAILED
 43399	057751	255 00 0 00 000000 		JFCL			;IF IR 12 FAILED TO SET
 43400	057752	312 01 0 00 070251 		CAME	1,[XWD 1,1]	;PROGRAM BLOWS MIND
 43401						STOP^
 43402	057753	254 04 0 00 057754 		HALT	.+1		;INSTRUCTION FAILED REPLACE
 43403	057754	254 00 0 00 057755 		JRST	.+1		;WITH JRST BACK^
DFKAA PDP-10 KL10 BASIC INSTRUCTION DIAGNOSTIC (1) VER 0,2	MACRO %53B(1254)-4 11:50 11-Nov-24 Page 15
DFKAA8	MAC	13-Jan-89 10:22		IOT TESTING

 43404						TBOTH^
 43405						TGET^
 43406	057755	200 00 0 00 071350 		MOVE	TNUMB		;GET LAST PC STORED AND CHECK TO SEE
 43407	057756	302 00 0 00 057744 		CAIE	%X		;IF ITS WHERE WE REALLY SHOULD BE
 43408						STOP2^^
 43409	057757	254 04 0 00 057760 		HALT	.+1		;HALT IF WE SHOULDN'T BE HERE
 43410	057760	254 00 0 00 057761 		JRST	.+1		;WILD TRANSFER CAUSED THIS HALT.^
 43411
 43412						TSET^^
 43413			057761			%X=.			;DEFINE %X TO SAVE
 43414	057761	201 00 0 00 057761 		MOVEI	%X		;SAVE THIS PC IN CASE OF WILD TRANSFER
 43415	057762	202 00 0 00 071350 		MOVEM	TNUMB#		;BECAUSE OF PC MOD OR INTERRUPT^
 43416	057763	255 00 0 00 000000 	IOT10:	JFCL
 43417						TBOTH^
 43418						TGET^
 43419	057764	200 00 0 00 071350 		MOVE	TNUMB		;GET LAST PC STORED AND CHECK TO SEE
 43420	057765	302 00 0 00 057761 		CAIE	%X		;IF ITS WHERE WE REALLY SHOULD BE
 43421						STOP2^^
 43422	057766	254 04 0 00 057767 		HALT	.+1		;HALT IF WE SHOULDN'T BE HERE
 43423	057767	254 00 0 00 057770 		JRST	.+1		;WILD TRANSFER CAUSED THIS HALT.^
 43424
 43425						TSET^^
 43426			057770			%X=.			;DEFINE %X TO SAVE
 43427	057770	201 00 0 00 057770 		MOVEI	%X		;SAVE THIS PC IN CASE OF WILD TRANSFER
 43428	057771	202 00 0 00 071350 		MOVEM	TNUMB#		;BECAUSE OF PC MOD OR INTERRUPT^
 43429	057772	400 01 0 00 000000 	IOT11:	SETZ	1,		;BLKO PC CLK EN AT ET2 FAILED
 43430	057773	7 774 10 0 00 000001 		BLKO	LAST,1		;BLKO SHOULD SKIP
 43431						STOP^
 43432	057774	254 04 0 00 057775 		HALT	.+1		;INSTRUCTION FAILED REPLACE
 43433	057775	254 00 0 00 057776 		JRST	.+1		;WITH JRST BACK^
 43434
 43435						TBOTH^
 43436						TGET^
 43437	057776	200 00 0 00 071350 		MOVE	TNUMB		;GET LAST PC STORED AND CHECK TO SEE
 43438	057777	302 00 0 00 057770 		CAIE	%X		;IF ITS WHERE WE REALLY SHOULD BE
 43439						STOP2^^
 43440	060000	254 04 0 00 060001 		HALT	.+1		;HALT IF WE SHOULDN'T BE HERE
 43441	060001	254 00 0 00 060002 		JRST	.+1		;WILD TRANSFER CAUSED THIS HALT.^
 43442
 43443						TSET^^
 43444			060002			%X=.			;DEFINE %X TO SAVE
 43445	060002	201 00 0 00 060002 		MOVEI	%X		;SAVE THIS PC IN CASE OF WILD TRANSFER
 43446	060003	202 00 0 00 071350 		MOVEM	TNUMB#		;BECAUSE OF PC MOD OR INTERRUPT^
 43447	060004	474 01 0 00 000000 	IOT12:	SETO	1,		;BLKO PREFORMED A SKIP
 43448	060005	7 774 10 0 00 000001 		BLKO	LAST,1		;PC CLK EN ASSERTED?
 43449	060006	334 00 0 00 000000 		SKIPA
 43450						STOP^
 43451	060007	254 04 0 00 060010 		HALT	.+1		;INSTRUCTION FAILED REPLACE
 43452	060010	254 00 0 00 060011 		JRST	.+1		;WITH JRST BACK^
 43453
 43454	060011	320 00 0 00 060012 	IOT13:	JUMP	.+1		;NEVER DO 13
 43455
 43456	060012	7 004 20 0 00 010000 	IOT14:	CONO	PI,10000	;CLR PI SYSTEM
 43457	060013	7 000 20 0 00 000077 		CONO	77		;SET SOME CPA BITS
 43458	060014	7 000 24 0 00 000000 		CONI	0		;IF FAILED EITHER CONO FAILED
DFKAA PDP-10 KL10 BASIC INSTRUCTION DIAGNOSTIC (1) VER 0,2	MACRO %53B(1254)-4 11:50 11-Nov-24 Page 15-1
DFKAA8	MAC	13-Jan-89 10:22		IOT TESTING

 43459	060015	336 00 0 00 000000 		SKIPN	0		;IO SET OR CONI FAILED READ
 43460						STOP^
 43461	060016	254 04 0 00 060017 		HALT	.+1		;INSTRUCTION FAILED REPLACE
 43462	060017	254 00 0 00 060020 		JRST	.+1		;WITH JRST BACK^
 43463									;OR ARRT OR ARLT EN OR AR SIGN
 43464									;SMEAR OR CPA SELECT NOT ASSERTED
DFKAA PDP-10 KL10 BASIC INSTRUCTION DIAGNOSTIC (1) VER 0,2	MACRO %53B(1254)-4 11:50 11-Nov-24 Page 16
DFKAA8	MAC	13-Jan-89 10:22		TEST APR FLAGS

 43465					SUBTTL	TEST APR FLAGS
 43466
 43467	060020	7 000 20 0 00 000000 	IOT15:	CONO			;APR CLOCK PIA FAILED EITHER
 43468	060021	7 000 20 0 00 000001 		CONO	1		;TO SET OR BE READ
 43469	060022	7 000 24 0 00 000000 		CONI			;CHECK APR PIA 35 CLOCK
 43470	060023	606 00 0 00 000001 		TRNN	1
 43471						STOP^
 43472	060024	254 04 0 00 060025 		HALT	.+1		;INSTRUCTION FAILED REPLACE
 43473	060025	254 00 0 00 060026 		JRST	.+1		;WITH JRST BACK^
 43474
 43475	060026	7 000 20 0 00 000000 	IOT15A:	CONO			;APR CLOCK PIA FAILED EITHER
 43476	060027	7 000 20 0 00 000002 		CONO	2		;TO SET OR BE READ
 43477	060030	7 000 24 0 00 000000 		CONI			;CHECK APR PIA 34 CLOCK
 43478	060031	606 00 0 00 000002 		TRNN	2
 43479						STOP^
 43480	060032	254 04 0 00 060033 		HALT	.+1		;INSTRUCTION FAILED REPLACE
 43481	060033	254 00 0 00 060034 		JRST	.+1		;WITH JRST BACK^
 43482
 43483	060034	7 000 20 0 00 000000 	IOT16:	CONO			;APR CLOCK PIA FAILED EITHER
 43484	060035	7 000 20 0 00 000004 		CONO	4		;TO SET OR BE READ
 43485	060036	7 000 24 0 00 000000 		CONI			;CHECK APR PIA 33 CLOCK
 43486	060037	606 00 0 00 000004 		TRNN	4		;
 43487						STOP^
 43488	060040	254 04 0 00 060041 		HALT	.+1		;INSTRUCTION FAILED REPLACE
 43489	060041	254 00 0 00 060042 		JRST	.+1		;WITH JRST BACK^
 43490
 43491	060042	700 04 0 00 267760 	IOT16A:	CLRAPR
 43492	060043	7 000 20 0 00 010020 		CONO	APR,LSCASD	;TO SET OR BE READ
 43493	060044	7 000 24 0 00 000000 		CONI			;CHECK APR PIA 32 ERROR
 43494	060045	606 00 0 00 000020 		TRNN	LCASWD
 43495						STOP^
 43496	060046	254 04 0 00 060047 		HALT	.+1		;INSTRUCTION FAILED REPLACE
 43497	060047	254 00 0 00 060050 		JRST	.+1		;WITH JRST BACK^
 43498
 43499	060050	700 04 0 00 267760 	IOT17:	CLRAPR			;APR ERROR PIA FAILED EITHER
 43500	060051	7 000 20 0 00 010040 		CONO	APR,LSPWRF		;TO SET OR BE READ
 43501	060052	7 000 24 0 00 000000 		CONI			;CHECK APR PIA 31 ERROR
 43502	060053	606 00 0 00 000040 		TRNN	LPWRFL
 43503						STOP^
 43504	060054	254 04 0 00 060055 		HALT	.+1		;INSTRUCTION FAILED REPLACE
 43505	060055	254 00 0 00 060056 		JRST	.+1		;WITH JRST BACK^
 43506
 43507	060056	700 04 0 00 267760 	IOT17A:	CLRAPR			;APR ERROR PIA FAILED EITHER
 43508	060057	7 000 20 0 00 011000 		CONO	APR,LSIOPF		;TO SET OR BE READ
 43509	060060	7 000 24 0 00 000000 		CONI			;CHECK APR PIA 30 ERROR
 43510	060061	606 00 0 00 001000 		TRNN	LIOPFE
 43511						STOP^
 43512	060062	254 04 0 00 060063 		HALT	.+1		;INSTRUCTION FAILED REPLACE
 43513	060063	254 00 0 00 060064 		JRST	.+1		;WITH JRST BACK^
DFKAA PDP-10 KL10 BASIC INSTRUCTION DIAGNOSTIC (1) VER 0,2	MACRO %53B(1254)-4 11:50 11-Nov-24 Page 17
DFKAA8	MAC	13-Jan-89 10:22		TEST APR FLAGS

 43514	060064	700 04 0 00 267760 	IOT18:	CLRAPR
 43515	060065	7 000 20 0 00 010400 		CONO	APR,LSPAER
 43516	060066	7 000 24 0 00 000000 		CONI	APR,
 43517	060067	606 00 0 00 000400 		TRNN	LPARER
 43518						STOP^
 43519	060070	254 04 0 00 060071 		HALT	.+1		;INSTRUCTION FAILED REPLACE
 43520	060071	254 00 0 00 060072 		JRST	.+1		;WITH JRST BACK^
 43521	060072	700 04 0 00 267760 		CLRAPR
 43522	060073	7 000 20 0 00 012000 		CONO	APR,LSNXER
 43523	060074	7 000 24 0 00 000000 		CONI	APR,
 43524	060075	606 00 0 00 002000 		TRNN	LNXMER
 43525						STOP^
 43526	060076	254 04 0 00 060077 		HALT	.+1		;INSTRUCTION FAILED REPLACE
 43527	060077	254 00 0 00 060100 		JRST	.+1		;WITH JRST BACK^
 43528	060100	700 04 0 00 267760 		CLRAPR
 43529	060101	7 000 20 0 00 014000 		CONO	APR,LSSBER
 43530	060102	7 000 24 0 00 000000 		CONI	APR,
 43531	060103	606 00 0 00 004000 		TRNN	LSBUSE
 43532						STOP^
 43533	060104	254 04 0 00 060105 		HALT	.+1		;INSTRUCTION FAILED REPLACE
 43534	060105	254 00 0 00 060106 		JRST	.+1		;WITH JRST BACK^
 43535	060106	700 04 0 00 267760 		CLRAPR
 43536
 43537	060107	7 000 20 0 00 000001 	IOT18A:	CONO	1
 43538	060110	7 000 20 0 00 000000 		CONO
 43539	060111	7 000 24 0 00 000000 		CONI
 43540	060112	602 00 0 00 000001 		TRNE	1
 43541						STOP^
 43542	060113	254 04 0 00 060114 		HALT	.+1		;INSTRUCTION FAILED REPLACE
 43543	060114	254 00 0 00 060115 		JRST	.+1		;WITH JRST BACK^
 43544	060115	7 000 20 0 00 000002 	IOT19:	CONO	2		;APR PIA 34 CLOCK
 43545	060116	7 000 20 0 00 000000 		CONO			;FAILED TO CLEAR
 43546	060117	7 000 24 0 00 000000 		CONI
 43547	060120	602 00 0 00 000002 		TRNE	2
 43548						STOP^
 43549	060121	254 04 0 00 060122 		HALT	.+1		;INSTRUCTION FAILED REPLACE
 43550	060122	254 00 0 00 060123 		JRST	.+1		;WITH JRST BACK^
 43551
 43552	060123	7 000 20 0 00 000004 	IOT20:	CONO	4		;APR PIA 33 CLOCK
 43553	060124	7 000 20 0 00 000000 		CONO			;FAILED TO CLEAR
 43554	060125	7 000 24 0 00 000000 		CONI
 43555	060126	602 00 0 00 000004 		TRNE	4
 43556						STOP^
 43557	060127	254 04 0 00 060130 		HALT	.+1		;INSTRUCTION FAILED REPLACE
 43558	060130	254 00 0 00 060131 		JRST	.+1		;WITH JRST BACK^
 43559
 43560	060131	7 000 20 0 00 010020 	IOT21:	CONO	APR,LSCASD		;APR PIA 32 ERROR
 43561	060132	7 000 20 0 00 020020 		CONO	APR,LCCASD		;FAILED TO CLEAR
 43562	060133	7 000 24 0 00 000000 		CONI
 43563	060134	602 00 0 00 000020 		TRNE	LCASWD
 43564						STOP^
 43565	060135	254 04 0 00 060136 		HALT	.+1		;INSTRUCTION FAILED REPLACE
 43566	060136	254 00 0 00 060137 		JRST	.+1		;WITH JRST BACK^
DFKAA PDP-10 KL10 BASIC INSTRUCTION DIAGNOSTIC (1) VER 0,2	MACRO %53B(1254)-4 11:50 11-Nov-24 Page 18
DFKAA8	MAC	13-Jan-89 10:22		TEST APR FLAGS

 43567	060137	7 000 20 0 00 010040 	IOT22:	CONO	APR,LSPWRF		;APR PIA 31 ERROR
 43568	060140	7 000 20 0 00 020040 		CONO	APR,LCPWRF		;FAILED TO CLEAR
 43569	060141	7 000 24 0 00 000000 		CONI
 43570	060142	602 00 0 00 000040 		TRNE	LPWRFL
 43571						STOP^
 43572	060143	254 04 0 00 060144 		HALT	.+1		;INSTRUCTION FAILED REPLACE
 43573	060144	254 00 0 00 060145 		JRST	.+1		;WITH JRST BACK^
 43574
 43575	060145	7 000 20 0 00 011000 	IOT23:	CONO	APR,LSIOPF		;APR PIA 30 ERROR
 43576	060146	7 000 20 0 00 021000 		CONO	APR,LCIOPF		;FAILED TO CLEAR
 43577	060147	7 000 24 0 00 000000 		CONI
 43578	060150	602 00 0 00 001000 		TRNE	LIOPFE
 43579						STOP^
 43580	060151	254 04 0 00 060152 		HALT	.+1		;INSTRUCTION FAILED REPLACE
 43581	060152	254 00 0 00 060153 		JRST	.+1		;WITH JRST BACK^
 43582	060153	7 000 20 0 00 010400 		CONO	APR,LSPAER
 43583	060154	7 000 20 0 00 020400 		CONO	APR,LCPAER
 43584	060155	7 000 24 0 00 000000 		CONI
 43585	060156	602 00 0 00 000400 		TRNE	LPARER
 43586	060157	7 000 20 0 00 012000 		CONO	APR,LSNXER
 43587	060160	7 000 20 0 00 022000 		CONO	APR,LCNXER
 43588	060161	7 000 24 0 00 000000 		CONI
 43589	060162	602 00 0 00 002000 		TRNE	LNXMER
 43590	060163	7 000 20 0 00 014000 		CONO	APR,LSSBER
 43591	060164	7 000 20 0 00 024000 		CONO	APR,LCSBER
 43592	060165	7 000 24 0 00 000000 		CONI
 43593	060166	602 00 0 00 004000 		TRNE	LSBUSE
 43594						STOP^
 43595	060167	254 04 0 00 060170 		HALT	.+1		;INSTRUCTION FAILED REPLACE
 43596	060170	254 00 0 00 060171 		JRST	.+1		;WITH JRST BACK^
DFKAA PDP-10 KL10 BASIC INSTRUCTION DIAGNOSTIC (1) VER 0,2	MACRO %53B(1254)-4 11:50 11-Nov-24 Page 19
DFKAA8	MAC	13-Jan-89 10:22		TEST APR FLAGS

 43597						TBOTH^
 43598						TGET^
 43599	060171	200 00 0 00 071350 		MOVE	TNUMB		;GET LAST PC STORED AND CHECK TO SEE
 43600	060172	302 00 0 00 060002 		CAIE	%X		;IF ITS WHERE WE REALLY SHOULD BE
 43601						STOP2^^
 43602	060173	254 04 0 00 060174 		HALT	.+1		;HALT IF WE SHOULDN'T BE HERE
 43603	060174	254 00 0 00 060175 		JRST	.+1		;WILD TRANSFER CAUSED THIS HALT.^
 43604
 43605						TSET^^
 43606			060175			%X=.			;DEFINE %X TO SAVE
 43607	060175	201 00 0 00 060175 		MOVEI	%X		;SAVE THIS PC IN CASE OF WILD TRANSFER
 43608	060176	202 00 0 00 071350 		MOVEM	TNUMB#		;BECAUSE OF PC MOD OR INTERRUPT^
 43609	060177	7 000 20 0 00 000007 	IOT24:	CONO	7		;SET SOME FLAGS
 43610	060200	7 000 34 0 00 000000 		CONSO			;CONSO FAILED CK PC CLOCK ENABLE
 43611	060201	334 00 0 00 000000 		SKIPA			;INH
 43612						STOP^
 43613	060202	254 04 0 00 060203 		HALT	.+1		;INSTRUCTION FAILED REPLACE
 43614	060203	254 00 0 00 060204 		JRST	.+1		;WITH JRST BACK^
 43615
 43616						TBOTH^
 43617						TGET^
 43618	060204	200 00 0 00 071350 		MOVE	TNUMB		;GET LAST PC STORED AND CHECK TO SEE
 43619	060205	302 00 0 00 060175 		CAIE	%X		;IF ITS WHERE WE REALLY SHOULD BE
 43620						STOP2^^
 43621	060206	254 04 0 00 060207 		HALT	.+1		;HALT IF WE SHOULDN'T BE HERE
 43622	060207	254 00 0 00 060210 		JRST	.+1		;WILD TRANSFER CAUSED THIS HALT.^
 43623
 43624						TSET^^
 43625			060210			%X=.			;DEFINE %X TO SAVE
 43626	060210	201 00 0 00 060210 		MOVEI	%X		;SAVE THIS PC IN CASE OF WILD TRANSFER
 43627	060211	202 00 0 00 071350 		MOVEM	TNUMB#		;BECAUSE OF PC MOD OR INTERRUPT^
 43628	060212	7 000 20 0 00 000007 	IOT25:	CONO	7		;SET SOME FLAGS
 43629	060213	7 000 34 0 00 000007 		CONSO	7		;CONSO FAILED CH PC CLOCK ENABLE
 43630						STOP^
 43631	060214	254 04 0 00 060215 		HALT	.+1		;INSTRUCTION FAILED REPLACE
 43632	060215	254 00 0 00 060216 		JRST	.+1		;WITH JRST BACK^
 43633
 43634						TBOTH^
 43635						TGET^
 43636	060216	200 00 0 00 071350 		MOVE	TNUMB		;GET LAST PC STORED AND CHECK TO SEE
 43637	060217	302 00 0 00 060210 		CAIE	%X		;IF ITS WHERE WE REALLY SHOULD BE
 43638						STOP2^^
 43639	060220	254 04 0 00 060221 		HALT	.+1		;HALT IF WE SHOULDN'T BE HERE
 43640	060221	254 00 0 00 060222 		JRST	.+1		;WILD TRANSFER CAUSED THIS HALT.^
 43641
 43642						TSET^^
 43643			060222			%X=.			;DEFINE %X TO SAVE
 43644	060222	201 00 0 00 060222 		MOVEI	%X		;SAVE THIS PC IN CASE OF WILD TRANSFER
 43645	060223	202 00 0 00 071350 		MOVEM	TNUMB#		;BECAUSE OF PC MOD OR INTERRUPT^
 43646	060224	7 000 20 0 00 000007 	IOT26:	CONO	7		;CONSZ FAILED
 43647	060225	7 000 30 0 00 000007 		CONSZ	7		;CK PC CLOCK ENABLE IF AD=0
 43648	060226	334 00 0 00 000000 		SKIPA			;AND IOT TIME
 43649						STOP^
 43650	060227	254 04 0 00 060230 		HALT	.+1		;INSTRUCTION FAILED REPLACE
 43651	060230	254 00 0 00 060231 		JRST	.+1		;WITH JRST BACK^
DFKAA PDP-10 KL10 BASIC INSTRUCTION DIAGNOSTIC (1) VER 0,2	MACRO %53B(1254)-4 11:50 11-Nov-24 Page 20
DFKAA8	MAC	13-Jan-89 10:22		TEST APR FLAGS

 43652						TBOTH^
 43653						TGET^
 43654	060231	200 00 0 00 071350 		MOVE	TNUMB		;GET LAST PC STORED AND CHECK TO SEE
 43655	060232	302 00 0 00 060222 		CAIE	%X		;IF ITS WHERE WE REALLY SHOULD BE
 43656						STOP2^^
 43657	060233	254 04 0 00 060234 		HALT	.+1		;HALT IF WE SHOULDN'T BE HERE
 43658	060234	254 00 0 00 060235 		JRST	.+1		;WILD TRANSFER CAUSED THIS HALT.^
 43659
 43660						TSET^^
 43661			060235			%X=.			;DEFINE %X TO SAVE
 43662	060235	201 00 0 00 060235 		MOVEI	%X		;SAVE THIS PC IN CASE OF WILD TRANSFER
 43663	060236	202 00 0 00 071350 		MOVEM	TNUMB#		;BECAUSE OF PC MOD OR INTERRUPT^
 43664	060237	254 00 0 00 060267 		JRST	IOT31A
 43665	060240	7 000 20 0 00 004000 	IOT27:	CONO	CLKDIS		;DISABLE CLOCK THEN ENABLE
 43666	060241	7 000 20 0 00 002000 		CONO	CLKENB		;FAILS IF CLOCK ENABLE NOT SET.
 43667	060242	7 000 34 0 00 002000 		CONSO	2000		;SET
 43668						STOP^
 43669	060243	254 04 0 00 060244 		HALT	.+1		;INSTRUCTION FAILED REPLACE
 43670	060244	254 00 0 00 060245 		JRST	.+1		;WITH JRST BACK^
 43671	060245	254 00 0 00 060246 		JRST	.+1
 43672
 43673	060246	7 000 20 0 00 002000 	IOT28:	CONO	2000		;CK CLK EN FOR NOT
 43674	060247	7 000 20 0 00 004000 		CONO	4000		;CLEARING
 43675	060250	7 000 30 0 00 002000 		CONSZ	2000
 43676						STOP^
 43677	060251	254 04 0 00 060252 		HALT	.+1		;INSTRUCTION FAILED REPLACE
 43678	060252	254 00 0 00 060253 		JRST	.+1		;WITH JRST BACK^
 43679
 43680					;THE NEXT TWO TESTS ARE NOT DONE IF WE ARE DOING
 43681					;MARGINS, BECAUSE THE DATAO IN THE NEXT TEST WILL CLEAR
 43682					;THE MARGIN WORD, AND THE TEST FOLLOWING MAY NOT BE ASSURED
 43683					;THAT THE CONSOLE SWITCHES 30-35 WILL BE = 0
 43684
 43685	060253	332 00 0 00 030055 	IOT29:	SKIPE	MARGIN		;ARE DOING MARGINS?
 43686	060254	254 00 0 00 060267 		JRST	IOT31A		;YEP SKIP THIS
 43687	060255	7 000 20 0 00 000077 		CONO	APR,77		;SET SOME BITS
 43688	060256	7 000 14 0 00 000000 		DATAO	APR,0		;TRY TO CLEAR VIA DATAO
 43689	060257	7 000 34 0 00 000077 		CONSO	APR,77		;BITS SHOULD STILL BE SET
 43690						STOP^
 43691	060260	254 04 0 00 060261 		HALT	.+1		;INSTRUCTION FAILED REPLACE
 43692	060261	254 00 0 00 060262 		JRST	.+1		;WITH JRST BACK^
DFKAA PDP-10 KL10 BASIC INSTRUCTION DIAGNOSTIC (1) VER 0,2	MACRO %53B(1254)-4 11:50 11-Nov-24 Page 21
DFKAA8	MAC	13-Jan-89 10:22		TEST APR FLAGS

 43693	060262	7 000 20 0 00 000077 	IOT30:	CONO	APR,77		;SET SOME CPA BITS
 43694	060263	7 000 04 0 00 000000 		DATAI	APR,0		;GET DATA SWITCHES
 43695	060264	602 00 0 00 000077 		TRNE	0,77		;DATAI DECODED AS CONI
 43696						STOP^
 43697	060265	254 04 0 00 060266 		HALT	.+1		;INSTRUCTION FAILED REPLACE
 43698	060266	254 00 0 00 060267 		JRST	.+1		;WITH JRST BACK^
 43699
 43700	060267				IOT31A:	TBOTH^
 43701						TGET^
 43702	060267	200 00 0 00 071350 		MOVE	TNUMB		;GET LAST PC STORED AND CHECK TO SEE
 43703	060270	302 00 0 00 060235 		CAIE	%X		;IF ITS WHERE WE REALLY SHOULD BE
 43704						STOP2^^
 43705	060271	254 04 0 00 060272 		HALT	.+1		;HALT IF WE SHOULDN'T BE HERE
 43706	060272	254 00 0 00 060273 		JRST	.+1		;WILD TRANSFER CAUSED THIS HALT.^
 43707
 43708						TSET^^
 43709			060273			%X=.			;DEFINE %X TO SAVE
 43710	060273	201 00 0 00 060273 		MOVEI	%X		;SAVE THIS PC IN CASE OF WILD TRANSFER
 43711	060274	202 00 0 00 071350 		MOVEM	TNUMB#		;BECAUSE OF PC MOD OR INTERRUPT^
 43712	060275	254 02 1 00 060276 	IOT31:	JRSTF	@.+1		;SET BIS FLAG VIA JRSTF
 43713	060276	000000	060277			BIS,.+1			;BYTF6 AND NEW PC
 43714	060277	7 774 14 0 00 000000 		DATAO	LAST,		;TRY TO CLEAR BIS FLAG VIA DATAO
 43715	060300	265 00 0 00 060301 		JSP	.+1		;GET CPU FLAGS(BIS) SHOULD BE CLEAR
 43716	060301	603 00 0 00 020000 		TLNE	BIS		;AT ET2 OF THE IOT
 43717						STOP^
 43718	060302	254 04 0 00 060303 		HALT	.+1		;INSTRUCTION FAILED REPLACE
 43719	060303	254 00 0 00 060304 		JRST	.+1		;WITH JRST BACK^
 43720						TGET^
 43721	060304	200 00 0 00 071350 		MOVE	TNUMB		;GET LAST PC STORED AND CHECK TO SEE
 43722	060305	302 00 0 00 060273 		CAIE	%X		;IF ITS WHERE WE REALLY SHOULD BE
 43723						STOP2^^
 43724	060306	254 04 0 00 060307 		HALT	.+1		;HALT IF WE SHOULDN'T BE HERE
 43725	060307	254 00 0 00 060310 		JRST	.+1		;WILD TRANSFER CAUSED THIS HALT.^
 43726	060310	255 00 0 00 000000 	IOT32:	JFCL
 43727	060311	254 00 0 00 060312 		JRST	IOT33B
DFKAA PDP-10 KL10 BASIC INSTRUCTION DIAGNOSTIC (1) VER 0,2	MACRO %53B(1254)-4 11:50 11-Nov-24 Page 22
DFKAA8	MAC	13-Jan-89 10:22		TEST PI FLAGS

 43728					SUBTTL	TEST PI FLAGS
 43729
 43730	060312	7 000 20 0 00 000007 	IOT33B:	CONO	7		;CONO PI MODIFIED
 43731	060313	7 004 20 0 00 000000 		CONO	PI,0		;CPU AS A DEVICE
 43732	060314	7 000 34 0 00 000007 		CONSO	7		;CPA SELECT IS CONFUSED
 43733						STOP^
 43734	060315	254 04 0 00 060316 		HALT	.+1		;INSTRUCTION FAILED REPLACE
 43735	060316	254 00 0 00 060317 		JRST	.+1		;WITH JRST BACK^
 43736	060317	7 000 20 0 00 000000 		CONO	0		;RESET BITS
 43737
 43738	060320	7 004 20 0 00 000200 	IOT34:	CONO	PI,200		;CHK WHY PI ON
 43739	060321	7 004 24 0 00 000000 		CONI	PI,		;FLOP NOT SET
 43740	060322	606 00 0 00 000200 		TRNN	200
 43741						STOP^
 43742	060323	254 04 0 00 060324 		HALT	.+1		;INSTRUCTION FAILED REPLACE
 43743	060324	254 00 0 00 060325 		JRST	.+1		;WITH JRST BACK^
 43744
 43745	060325	7 004 20 0 00 000200 	IOT35:	CONO	PI,200		;CHK WHY PI ON
 43746	060326	7 004 20 0 00 000400 		CONO	PI,400		;NOT CLEARED
 43747	060327	7 004 24 0 00 000000 		CONI	PI,		;
 43748	060330	602 00 0 00 000200 		TRNE	200
 43749						STOP^
 43750	060331	254 04 0 00 060332 		HALT	.+1		;INSTRUCTION FAILED REPLACE
 43751	060332	254 00 0 00 060333 		JRST	.+1		;WITH JRST BACK^
 43752
 43753	060333				IOT36:
DFKAA PDP-10 KL10 BASIC INSTRUCTION DIAGNOSTIC (1) VER 0,2	MACRO %53B(1254)-4 11:50 11-Nov-24 Page 23
DFKAA8	MAC	13-Jan-89 10:22		BASIC PI SYSTEM TESTING

 43754					SUBTTL	BASIC PI SYSTEM TESTING
 43755
 43756					;BEGIN TESTING THE PI SYSTEM
 43757						BLURB^
 43758					;LOCATIONS 40-60 CONTAIN A JSP TO A ROUTINE WHICH STORES
 43759					;THE CHANNEL NUMBER OF THE INTERRUPT INTO 0
 43760					;THEREFORE IF AN INTERRUPT OCCURS THEN LOCATION
 43761					;ZERO WILL CONTAIN THE NUMBER OF THE INTERRUPT CHANNEL TRAP ADRESS
 43762					^
 43763					;AND THE PROGRAM WILL HALT POINTING TO THE INTERUPTED ADRESS.
 43764	060333	264 00 0 00 070103 		HALTPI			;FILL INTERRUPT LOCATIONS WITH HALTS
 43765
 43766
 43767	060334	7 004 20 0 00 002001 	IOT38:	CONO	PI,2001		;PI CHANNEL 7
 43768	060335	7 004 24 0 00 000000 		CONI	PI,		;FAILED TO SET
 43769	060336	606 00 0 00 000001 		TRNN	1		;
 43770						STOP^
 43771	060337	254 04 0 00 060340 		HALT	.+1		;INSTRUCTION FAILED REPLACE
 43772	060340	254 00 0 00 060341 		JRST	.+1		;WITH JRST BACK^
 43773
 43774	060341	7 004 20 0 00 002001 	IOT39:	CONO	PI,2001		;PI CHANNEL 7
 43775	060342	7 004 20 0 00 001001 		CONO	PI,1001		;FAILED TO CLEAR
 43776	060343	7 000 24 0 00 000000 		CONI
 43777	060344	602 00 0 00 000001 		TRNE	1
 43778						STOP^
 43779	060345	254 04 0 00 060346 		HALT	.+1		;INSTRUCTION FAILED REPLACE
 43780	060346	254 00 0 00 060347 		JRST	.+1		;WITH JRST BACK^
 43781
 43782	060347	7 004 20 0 00 002002 	IOT40:	CONO	PI,2002		;PI CHANNEL 6
 43783	060350	7 004 24 0 00 000000 		CONI	PI,		;FAILED TO SET
 43784	060351	606 00 0 00 000002 		TRNN	2
 43785						STOP^
 43786	060352	254 04 0 00 060353 		HALT	.+1		;INSTRUCTION FAILED REPLACE
 43787	060353	254 00 0 00 060354 		JRST	.+1		;WITH JRST BACK^
 43788
 43789	060354	7 004 20 0 00 002002 	IOT41:	CONO	PI,2002		;PI CHANNEL 6
 43790	060355	7 004 20 0 00 001002 		CONO	PI,1002		;FAILED TO CLEAR
 43791	060356	7 004 24 0 00 000000 		CONI	PI,
 43792	060357	602 00 0 00 000002 		TRNE	2
 43793						STOP^
 43794	060360	254 04 0 00 060361 		HALT	.+1		;INSTRUCTION FAILED REPLACE
 43795	060361	254 00 0 00 060362 		JRST	.+1		;WITH JRST BACK^
DFKAA PDP-10 KL10 BASIC INSTRUCTION DIAGNOSTIC (1) VER 0,2	MACRO %53B(1254)-4 11:50 11-Nov-24 Page 24
DFKAA8	MAC	13-Jan-89 10:22		BASIC PI SYSTEM TESTING

 43796	060362	7 004 20 0 00 002004 	IOT42:	CONO	PI,2004		;PI CHANNEL 5
 43797	060363	7 004 24 0 00 000000 		CONI	PI,		;FAILED TO SET
 43798	060364	606 00 0 00 000004 		TRNN	4
 43799						STOP^
 43800	060365	254 04 0 00 060366 		HALT	.+1		;INSTRUCTION FAILED REPLACE
 43801	060366	254 00 0 00 060367 		JRST	.+1		;WITH JRST BACK^
 43802
 43803	060367	7 004 20 0 00 002004 	IOT43:	CONO	PI,2004		;PI CHANNEL 5
 43804	060370	7 004 20 0 00 001004 		CONO	PI,1004		;FAILED TO CLEAR
 43805	060371	7 004 24 0 00 000000 		CONI	PI,
 43806	060372	602 00 0 00 000004 		TRNE	4
 43807						STOP^
 43808	060373	254 04 0 00 060374 		HALT	.+1		;INSTRUCTION FAILED REPLACE
 43809	060374	254 00 0 00 060375 		JRST	.+1		;WITH JRST BACK^
 43810
 43811	060375	7 004 20 0 00 002010 	IOT44:	CONO	PI,2010		;PI CHANNEL 4
 43812	060376	7 004 24 0 00 000000 		CONI	PI,		;FAILED TO SET
 43813	060377	606 00 0 00 000010 		TRNN	10
 43814						STOP^
 43815	060400	254 04 0 00 060401 		HALT	.+1		;INSTRUCTION FAILED REPLACE
 43816	060401	254 00 0 00 060402 		JRST	.+1		;WITH JRST BACK^
 43817
 43818	060402	7 004 20 0 00 002010 	IOT45:	CONO	PI,2010		;PI CHAN 4
 43819	060403	7 004 20 0 00 001010 		CONO	PI,1010		;FAILED TO CLEAR
 43820	060404	7 004 24 0 00 000000 		CONI	PI,
 43821	060405	602 00 0 00 000010 		TRNE	10
 43822						STOP^
 43823	060406	254 04 0 00 060407 		HALT	.+1		;INSTRUCTION FAILED REPLACE
 43824	060407	254 00 0 00 060410 		JRST	.+1		;WITH JRST BACK^
 43825
 43826	060410	7 004 20 0 00 002020 	IOT46:	CONO	PI,2020		;PI CHAN 3
 43827	060411	7 004 24 0 00 000000 		CONI	PI,		;FAILED TO SET
 43828	060412	606 00 0 00 000020 		TRNN	20
 43829						STOP^
 43830	060413	254 04 0 00 060414 		HALT	.+1		;INSTRUCTION FAILED REPLACE
 43831	060414	254 00 0 00 060415 		JRST	.+1		;WITH JRST BACK^
 43832
 43833	060415	7 004 20 0 00 002020 	IOT47:	CONO	PI,2020		;PI CHAN 3
 43834	060416	7 004 20 0 00 001020 		CONO	PI,1020		;FAILED TO CLEAR
 43835	060417	7 004 24 0 00 000000 		CONI	PI,
 43836	060420	602 00 0 00 000010 		TRNE	10
 43837						STOP^
 43838	060421	254 04 0 00 060422 		HALT	.+1		;INSTRUCTION FAILED REPLACE
 43839	060422	254 00 0 00 060423 		JRST	.+1		;WITH JRST BACK^
 43840
DFKAA PDP-10 KL10 BASIC INSTRUCTION DIAGNOSTIC (1) VER 0,2	MACRO %53B(1254)-4 11:50 11-Nov-24 Page 25
DFKAA8	MAC	13-Jan-89 10:22		BASIC PI SYSTEM TESTING

 43841	060423	7 004 20 0 00 002040 	IOT48:	CONO	PI,2040		;PI CHAN 2
 43842	060424	7 004 24 0 00 000000 		CONI	PI,		;FAILED TO SET
 43843	060425	606 00 0 00 000040 		TRNN	40
 43844						STOP^
 43845	060426	254 04 0 00 060427 		HALT	.+1		;INSTRUCTION FAILED REPLACE
 43846	060427	254 00 0 00 060430 		JRST	.+1		;WITH JRST BACK^
 43847
 43848	060430	7 004 20 0 00 002040 	IOT49:	CONO	PI,2040		;PI CHAN 2
 43849	060431	7 004 20 0 00 001040 		CONO	PI,1040		;FAILED TO CLR
 43850	060432	7 004 24 0 00 000000 		CONI	PI,
 43851	060433	602 00 0 00 000040 		TRNE	40
 43852						STOP^
 43853	060434	254 04 0 00 060435 		HALT	.+1		;INSTRUCTION FAILED REPLACE
 43854	060435	254 00 0 00 060436 		JRST	.+1		;WITH JRST BACK^
 43855
 43856	060436	7 004 20 0 00 002100 	IOT50:	CONO	PI,2100		;PI CHAN 1
 43857	060437	7 004 24 0 00 000000 		CONI	PI,		;FAILED TO SET
 43858	060440	606 00 0 00 000100 		TRNN	100
 43859						STOP^
 43860	060441	254 04 0 00 060442 		HALT	.+1		;INSTRUCTION FAILED REPLACE
 43861	060442	254 00 0 00 060443 		JRST	.+1		;WITH JRST BACK^
 43862
 43863	060443	7 004 20 0 00 002100 	IOT51:	CONO	PI,2100		;PI CHAN 1
 43864	060444	7 004 20 0 00 001100 		CONO	PI,1100		;FAILED TO CLEAR
 43865	060445	7 004 24 0 00 000000 		CONI	PI,
 43866	060446	602 00 0 00 000100 		TRNE	100
 43867						STOP^
 43868	060447	254 04 0 00 060450 		HALT	.+1		;INSTRUCTION FAILED REPLACE
 43869	060450	254 00 0 00 060451 		JRST	.+1		;WITH JRST BACK^
 43870
 43871	060451	255 00 0 00 000000 	IOTXYZ:	JFCL
DFKAA PDP-10 KL10 BASIC INSTRUCTION DIAGNOSTIC (1) VER 0,2	MACRO %53B(1254)-4 11:50 11-Nov-24 Page 26
DFKAA8	MAC	13-Jan-89 10:22		BASIC PI SYSTEM TESTING

 43872			040000			X=40000
 43873						BLURB^
 43874					;LOCATIONS 40-60 CONTAIN A JSP TO A ROUTINE WHICH STORES
 43875					;THE CHANNEL NUMBER OF THE INTERRUPT INTO 0
 43876					;THEREFORE IF AN INTERRUPT OCCURS THEN LOCATION
 43877					;ZERO WILL CONTAIN THE NUMBER OF THE INTERRUPT CHANNEL TRAP ADRESS
 43878					^
 43879	060452	264 00 0 00 070120 		TRPPI			;FILL INTERRUPT LOCATIONS WITH TRAPS
 43880					PIOT00:	REPEAT	7,
 43881					<	PINO	X
 43882						X=X_-1>
 43883						PINO	X^
 43884
 43885					;ENABLE THE PI SYSTEM. AND EXPECT NO INTERRUPTS. THEN TEST THAT THE
 43886					;HOLD FLOP FOR EACH CHANNEL IS NOT SET.
 43887
 43888						TSET^
 43889			060453			%X=.			;DEFINE %X TO SAVE
 43890	060453	201 00 0 00 060453 		MOVEI	%X		;SAVE THIS PC IN CASE OF WILD TRANSFER
 43891	060454	202 00 0 00 071350 		MOVEM	TNUMB#		;BECAUSE OF PC MOD OR INTERRUPT^
 43892	060455				..0001:	CLRBTH^
 43893	060455	700 04 0 00 267760 		CLRAPR
 43894	060456	700 14 0 00 031577 		CLRPI^
 43895	060457	7 004 20 0 00 000200 		CONO	PI,PION		;ENABLE PI AND ,EXPECT NO INTERRUPTS
 43896						WATINT^
 43897	060460	201 13 0 00 001000 		MOVEI	13,1000		;SET UP LOOP OF TEN TO WAIT FOR INT.
 43898	060461	367 13 0 00 060461 		SOJG	13,.		;AND WAIT^
 43899	060462	7 004 30 0 00 040000 		CONSZ	PI,X		;CHECK WHY INT. IN PROGRESS IS SET.
 43900						STOP^
 43901	060463	254 04 0 00 060464 		HALT	.+1		;INSTRUCTION FAILED REPLACE
 43902	060464	254 00 0 00 060465 		JRST	.+1		;WITH JRST BACK^
 43903						TGET^
 43904	060465	200 00 0 00 071350 		MOVE	TNUMB		;GET LAST PC STORED AND CHECK TO SEE
 43905	060466	302 00 0 00 060453 		CAIE	%X		;IF ITS WHERE WE REALLY SHOULD BE
 43906						STOP2^^
 43907	060467	254 04 0 00 060470 		HALT	.+1		;HALT IF WE SHOULDN'T BE HERE
 43908	060470	254 00 0 00 060471 		JRST	.+1		;WILD TRANSFER CAUSED THIS HALT.^
 43909					^
 43910			020000			X=X_-1
 43911						PINO	X^
 43912
 43913					;ENABLE THE PI SYSTEM. AND EXPECT NO INTERRUPTS. THEN TEST THAT THE
 43914					;HOLD FLOP FOR EACH CHANNEL IS NOT SET.
 43915
 43916						TSET^
 43917			060471			%X=.			;DEFINE %X TO SAVE
 43918	060471	201 00 0 00 060471 		MOVEI	%X		;SAVE THIS PC IN CASE OF WILD TRANSFER
 43919	060472	202 00 0 00 071350 		MOVEM	TNUMB#		;BECAUSE OF PC MOD OR INTERRUPT^
 43920	060473				..0002:	CLRBTH^
 43921	060473	700 04 0 00 267760 		CLRAPR
 43922	060474	700 14 0 00 031577 		CLRPI^
 43923	060475	7 004 20 0 00 000200 		CONO	PI,PION		;ENABLE PI AND ,EXPECT NO INTERRUPTS
 43924						WATINT^
 43925	060476	201 13 0 00 001000 		MOVEI	13,1000		;SET UP LOOP OF TEN TO WAIT FOR INT.
 43926	060477	367 13 0 00 060477 		SOJG	13,.		;AND WAIT^
DFKAA PDP-10 KL10 BASIC INSTRUCTION DIAGNOSTIC (1) VER 0,2	MACRO %53B(1254)-4 11:50 11-Nov-24 Page 26-1
DFKAA8	MAC	13-Jan-89 10:22		BASIC PI SYSTEM TESTING

 43927	060500	7 004 30 0 00 020000 		CONSZ	PI,X		;CHECK WHY INT. IN PROGRESS IS SET.
 43928						STOP^
 43929	060501	254 04 0 00 060502 		HALT	.+1		;INSTRUCTION FAILED REPLACE
 43930	060502	254 00 0 00 060503 		JRST	.+1		;WITH JRST BACK^
 43931						TGET^
 43932	060503	200 00 0 00 071350 		MOVE	TNUMB		;GET LAST PC STORED AND CHECK TO SEE
 43933	060504	302 00 0 00 060471 		CAIE	%X		;IF ITS WHERE WE REALLY SHOULD BE
 43934						STOP2^^
 43935	060505	254 04 0 00 060506 		HALT	.+1		;HALT IF WE SHOULDN'T BE HERE
 43936	060506	254 00 0 00 060507 		JRST	.+1		;WILD TRANSFER CAUSED THIS HALT.^
 43937					^
 43938			010000			X=X_-1
 43939						PINO	X^
 43940
 43941					;ENABLE THE PI SYSTEM. AND EXPECT NO INTERRUPTS. THEN TEST THAT THE
 43942					;HOLD FLOP FOR EACH CHANNEL IS NOT SET.
 43943
 43944						TSET^
 43945			060507			%X=.			;DEFINE %X TO SAVE
 43946	060507	201 00 0 00 060507 		MOVEI	%X		;SAVE THIS PC IN CASE OF WILD TRANSFER
 43947	060510	202 00 0 00 071350 		MOVEM	TNUMB#		;BECAUSE OF PC MOD OR INTERRUPT^
 43948	060511				..0003:	CLRBTH^
 43949	060511	700 04 0 00 267760 		CLRAPR
 43950	060512	700 14 0 00 031577 		CLRPI^
 43951	060513	7 004 20 0 00 000200 		CONO	PI,PION		;ENABLE PI AND ,EXPECT NO INTERRUPTS
 43952						WATINT^
 43953	060514	201 13 0 00 001000 		MOVEI	13,1000		;SET UP LOOP OF TEN TO WAIT FOR INT.
 43954	060515	367 13 0 00 060515 		SOJG	13,.		;AND WAIT^
 43955	060516	7 004 30 0 00 010000 		CONSZ	PI,X		;CHECK WHY INT. IN PROGRESS IS SET.
 43956						STOP^
 43957	060517	254 04 0 00 060520 		HALT	.+1		;INSTRUCTION FAILED REPLACE
 43958	060520	254 00 0 00 060521 		JRST	.+1		;WITH JRST BACK^
 43959						TGET^
 43960	060521	200 00 0 00 071350 		MOVE	TNUMB		;GET LAST PC STORED AND CHECK TO SEE
 43961	060522	302 00 0 00 060507 		CAIE	%X		;IF ITS WHERE WE REALLY SHOULD BE
 43962						STOP2^^
 43963	060523	254 04 0 00 060524 		HALT	.+1		;HALT IF WE SHOULDN'T BE HERE
 43964	060524	254 00 0 00 060525 		JRST	.+1		;WILD TRANSFER CAUSED THIS HALT.^
 43965					^
 43966			004000			X=X_-1
 43967						PINO	X^
 43968
 43969					;ENABLE THE PI SYSTEM. AND EXPECT NO INTERRUPTS. THEN TEST THAT THE
 43970					;HOLD FLOP FOR EACH CHANNEL IS NOT SET.
 43971
 43972						TSET^
 43973			060525			%X=.			;DEFINE %X TO SAVE
 43974	060525	201 00 0 00 060525 		MOVEI	%X		;SAVE THIS PC IN CASE OF WILD TRANSFER
 43975	060526	202 00 0 00 071350 		MOVEM	TNUMB#		;BECAUSE OF PC MOD OR INTERRUPT^
 43976	060527				..0004:	CLRBTH^
 43977	060527	700 04 0 00 267760 		CLRAPR
 43978	060530	700 14 0 00 031577 		CLRPI^
 43979	060531	7 004 20 0 00 000200 		CONO	PI,PION		;ENABLE PI AND ,EXPECT NO INTERRUPTS
 43980						WATINT^
 43981	060532	201 13 0 00 001000 		MOVEI	13,1000		;SET UP LOOP OF TEN TO WAIT FOR INT.
DFKAA PDP-10 KL10 BASIC INSTRUCTION DIAGNOSTIC (1) VER 0,2	MACRO %53B(1254)-4 11:50 11-Nov-24 Page 26-2
DFKAA8	MAC	13-Jan-89 10:22		BASIC PI SYSTEM TESTING

 43982	060533	367 13 0 00 060533 		SOJG	13,.		;AND WAIT^
 43983	060534	7 004 30 0 00 004000 		CONSZ	PI,X		;CHECK WHY INT. IN PROGRESS IS SET.
 43984						STOP^
 43985	060535	254 04 0 00 060536 		HALT	.+1		;INSTRUCTION FAILED REPLACE
 43986	060536	254 00 0 00 060537 		JRST	.+1		;WITH JRST BACK^
 43987						TGET^
 43988	060537	200 00 0 00 071350 		MOVE	TNUMB		;GET LAST PC STORED AND CHECK TO SEE
 43989	060540	302 00 0 00 060525 		CAIE	%X		;IF ITS WHERE WE REALLY SHOULD BE
 43990						STOP2^^
 43991	060541	254 04 0 00 060542 		HALT	.+1		;HALT IF WE SHOULDN'T BE HERE
 43992	060542	254 00 0 00 060543 		JRST	.+1		;WILD TRANSFER CAUSED THIS HALT.^
 43993					^
 43994			002000			X=X_-1
 43995						PINO	X^
 43996
 43997					;ENABLE THE PI SYSTEM. AND EXPECT NO INTERRUPTS. THEN TEST THAT THE
 43998					;HOLD FLOP FOR EACH CHANNEL IS NOT SET.
 43999
 44000						TSET^
 44001			060543			%X=.			;DEFINE %X TO SAVE
 44002	060543	201 00 0 00 060543 		MOVEI	%X		;SAVE THIS PC IN CASE OF WILD TRANSFER
 44003	060544	202 00 0 00 071350 		MOVEM	TNUMB#		;BECAUSE OF PC MOD OR INTERRUPT^
 44004	060545				..0005:	CLRBTH^
 44005	060545	700 04 0 00 267760 		CLRAPR
 44006	060546	700 14 0 00 031577 		CLRPI^
 44007	060547	7 004 20 0 00 000200 		CONO	PI,PION		;ENABLE PI AND ,EXPECT NO INTERRUPTS
 44008						WATINT^
 44009	060550	201 13 0 00 001000 		MOVEI	13,1000		;SET UP LOOP OF TEN TO WAIT FOR INT.
 44010	060551	367 13 0 00 060551 		SOJG	13,.		;AND WAIT^
 44011	060552	7 004 30 0 00 002000 		CONSZ	PI,X		;CHECK WHY INT. IN PROGRESS IS SET.
 44012						STOP^
 44013	060553	254 04 0 00 060554 		HALT	.+1		;INSTRUCTION FAILED REPLACE
 44014	060554	254 00 0 00 060555 		JRST	.+1		;WITH JRST BACK^
 44015						TGET^
 44016	060555	200 00 0 00 071350 		MOVE	TNUMB		;GET LAST PC STORED AND CHECK TO SEE
 44017	060556	302 00 0 00 060543 		CAIE	%X		;IF ITS WHERE WE REALLY SHOULD BE
 44018						STOP2^^
 44019	060557	254 04 0 00 060560 		HALT	.+1		;HALT IF WE SHOULDN'T BE HERE
 44020	060560	254 00 0 00 060561 		JRST	.+1		;WILD TRANSFER CAUSED THIS HALT.^
 44021					^
 44022			001000			X=X_-1
 44023						PINO	X^
 44024
 44025					;ENABLE THE PI SYSTEM. AND EXPECT NO INTERRUPTS. THEN TEST THAT THE
 44026					;HOLD FLOP FOR EACH CHANNEL IS NOT SET.
 44027
 44028						TSET^
 44029			060561			%X=.			;DEFINE %X TO SAVE
 44030	060561	201 00 0 00 060561 		MOVEI	%X		;SAVE THIS PC IN CASE OF WILD TRANSFER
 44031	060562	202 00 0 00 071350 		MOVEM	TNUMB#		;BECAUSE OF PC MOD OR INTERRUPT^
 44032	060563				..0006:	CLRBTH^
 44033	060563	700 04 0 00 267760 		CLRAPR
 44034	060564	700 14 0 00 031577 		CLRPI^
 44035	060565	7 004 20 0 00 000200 		CONO	PI,PION		;ENABLE PI AND ,EXPECT NO INTERRUPTS
 44036						WATINT^
DFKAA PDP-10 KL10 BASIC INSTRUCTION DIAGNOSTIC (1) VER 0,2	MACRO %53B(1254)-4 11:50 11-Nov-24 Page 26-3
DFKAA8	MAC	13-Jan-89 10:22		BASIC PI SYSTEM TESTING

 44037	060566	201 13 0 00 001000 		MOVEI	13,1000		;SET UP LOOP OF TEN TO WAIT FOR INT.
 44038	060567	367 13 0 00 060567 		SOJG	13,.		;AND WAIT^
 44039	060570	7 004 30 0 00 001000 		CONSZ	PI,X		;CHECK WHY INT. IN PROGRESS IS SET.
 44040						STOP^
 44041	060571	254 04 0 00 060572 		HALT	.+1		;INSTRUCTION FAILED REPLACE
 44042	060572	254 00 0 00 060573 		JRST	.+1		;WITH JRST BACK^
 44043						TGET^
 44044	060573	200 00 0 00 071350 		MOVE	TNUMB		;GET LAST PC STORED AND CHECK TO SEE
 44045	060574	302 00 0 00 060561 		CAIE	%X		;IF ITS WHERE WE REALLY SHOULD BE
 44046						STOP2^^
 44047	060575	254 04 0 00 060576 		HALT	.+1		;HALT IF WE SHOULDN'T BE HERE
 44048	060576	254 00 0 00 060577 		JRST	.+1		;WILD TRANSFER CAUSED THIS HALT.^
 44049					^
 44050			000400			X=X_-1
 44051						PINO	X^
 44052
 44053					;ENABLE THE PI SYSTEM. AND EXPECT NO INTERRUPTS. THEN TEST THAT THE
 44054					;HOLD FLOP FOR EACH CHANNEL IS NOT SET.
 44055
 44056						TSET^
 44057			060577			%X=.			;DEFINE %X TO SAVE
 44058	060577	201 00 0 00 060577 		MOVEI	%X		;SAVE THIS PC IN CASE OF WILD TRANSFER
 44059	060600	202 00 0 00 071350 		MOVEM	TNUMB#		;BECAUSE OF PC MOD OR INTERRUPT^
 44060	060601				..0007:	CLRBTH^
 44061	060601	700 04 0 00 267760 		CLRAPR
 44062	060602	700 14 0 00 031577 		CLRPI^
 44063	060603	7 004 20 0 00 000200 		CONO	PI,PION		;ENABLE PI AND ,EXPECT NO INTERRUPTS
 44064						WATINT^
 44065	060604	201 13 0 00 001000 		MOVEI	13,1000		;SET UP LOOP OF TEN TO WAIT FOR INT.
 44066	060605	367 13 0 00 060605 		SOJG	13,.		;AND WAIT^
 44067	060606	7 004 30 0 00 000400 		CONSZ	PI,X		;CHECK WHY INT. IN PROGRESS IS SET.
 44068						STOP^
 44069	060607	254 04 0 00 060610 		HALT	.+1		;INSTRUCTION FAILED REPLACE
 44070	060610	254 00 0 00 060611 		JRST	.+1		;WITH JRST BACK^
 44071						TGET^
 44072	060611	200 00 0 00 071350 		MOVE	TNUMB		;GET LAST PC STORED AND CHECK TO SEE
 44073	060612	302 00 0 00 060577 		CAIE	%X		;IF ITS WHERE WE REALLY SHOULD BE
 44074						STOP2^^
 44075	060613	254 04 0 00 060614 		HALT	.+1		;HALT IF WE SHOULDN'T BE HERE
 44076	060614	254 00 0 00 060615 		JRST	.+1		;WILD TRANSFER CAUSED THIS HALT.^
 44077					^
 44078			000200			X=X_-1
 44079	060615	255 00 0 00 000000 		JFCL
DFKAA PDP-10 KL10 BASIC INSTRUCTION DIAGNOSTIC (1) VER 0,2	MACRO %53B(1254)-4 11:50 11-Nov-24 Page 27
DFKAA8	MAC	13-Jan-89 10:22		BASIC PI SYSTEM TESTING

 44080						BLURB^
 44081					;LOCATIONS 40-60 CONTAIN A JSP TO A ROUTINE WHICH STORES
 44082					;THE CHANNEL NUMBER OF THE INTERRUPT INTO 0
 44083					;THEREFORE IF AN INTERRUPT OCCURS THEN LOCATION
 44084					;ZERO WILL CONTAIN THE NUMBER OF THE INTERRUPT CHANNEL TRAP ADRESS
 44085					^
 44086
 44087	060616	264 00 0 00 070120 		TRPPI			;FILL INTERRUPT LOCATIONS WITH TRAPS
 44088			040000			X=40000
 44089			000100			Y=100
 44090	060617				PIOT01:
 44091						REPEAT	7,<
 44092						PIYES	Y,X
 44093						X=X_-1
 44094						Y=Y_-1
 44095					>
 44096
 44097						PIYES	Y,X^
 44098
 44099					;SET REQUESTS FOR EACH CHANNEL BUT DO NOT SET PI ACTIVE.
 44100					;INTERRUPTS SHOULD NOT OCCUR, AND THE INTERRUPT IN PROGRESS
 44101					;FLAG SHOULD NOT BE SET FOR THE CHANNEL BEING TESTED
 44102
 44103						TSET^
 44104			060617			%X=.			;DEFINE %X TO SAVE
 44105	060617	201 00 0 00 060617 		MOVEI	%X		;SAVE THIS PC IN CASE OF WILD TRANSFER
 44106	060620	202 00 0 00 071350 		MOVEM	TNUMB#		;BECAUSE OF PC MOD OR INTERRUPT^
 44107	060621				..0010:	CLRBTH^
 44108	060621	700 04 0 00 267760 		CLRAPR
 44109	060622	700 14 0 00 031577 		CLRPI^
 44110	060623	7 004 20 0 00 004100 		CONO	PI,REQSET+Y	;SET CHANNEL REQUEST BUT NOT ACTIVE
 44111						WATINT^
 44112	060624	201 13 0 00 001000 		MOVEI	13,1000		;SET UP LOOP OF TEN TO WAIT FOR INT.
 44113	060625	367 13 0 00 060625 		SOJG	13,.		;AND WAIT^
 44114	060626	7 004 30 0 00 040000 		CONSZ	PI,X		;CHECK WHY INT. IN PROGRESS IS SET.
 44115						STOP^
 44116	060627	254 04 0 00 060630 		HALT	.+1		;INSTRUCTION FAILED REPLACE
 44117	060630	254 00 0 00 060631 		JRST	.+1		;WITH JRST BACK^
 44118						TGET^
 44119	060631	200 00 0 00 071350 		MOVE	TNUMB		;GET LAST PC STORED AND CHECK TO SEE
 44120	060632	302 00 0 00 060617 		CAIE	%X		;IF ITS WHERE WE REALLY SHOULD BE
 44121						STOP2^^
 44122	060633	254 04 0 00 060634 		HALT	.+1		;HALT IF WE SHOULDN'T BE HERE
 44123	060634	254 00 0 00 060635 		JRST	.+1		;WILD TRANSFER CAUSED THIS HALT.^
 44124					^
 44125			020000			X=X_-1
 44126			000040			Y=Y_-1
 44127
 44128
 44129						PIYES	Y,X^
 44130
 44131					;SET REQUESTS FOR EACH CHANNEL BUT DO NOT SET PI ACTIVE.
 44132					;INTERRUPTS SHOULD NOT OCCUR, AND THE INTERRUPT IN PROGRESS
 44133					;FLAG SHOULD NOT BE SET FOR THE CHANNEL BEING TESTED
 44134
DFKAA PDP-10 KL10 BASIC INSTRUCTION DIAGNOSTIC (1) VER 0,2	MACRO %53B(1254)-4 11:50 11-Nov-24 Page 27-1
DFKAA8	MAC	13-Jan-89 10:22		BASIC PI SYSTEM TESTING

 44135						TSET^
 44136			060635			%X=.			;DEFINE %X TO SAVE
 44137	060635	201 00 0 00 060635 		MOVEI	%X		;SAVE THIS PC IN CASE OF WILD TRANSFER
 44138	060636	202 00 0 00 071350 		MOVEM	TNUMB#		;BECAUSE OF PC MOD OR INTERRUPT^
 44139	060637				..0011:	CLRBTH^
 44140	060637	700 04 0 00 267760 		CLRAPR
 44141	060640	700 14 0 00 031577 		CLRPI^
 44142	060641	7 004 20 0 00 004040 		CONO	PI,REQSET+Y	;SET CHANNEL REQUEST BUT NOT ACTIVE
 44143						WATINT^
 44144	060642	201 13 0 00 001000 		MOVEI	13,1000		;SET UP LOOP OF TEN TO WAIT FOR INT.
 44145	060643	367 13 0 00 060643 		SOJG	13,.		;AND WAIT^
 44146	060644	7 004 30 0 00 020000 		CONSZ	PI,X		;CHECK WHY INT. IN PROGRESS IS SET.
 44147						STOP^
 44148	060645	254 04 0 00 060646 		HALT	.+1		;INSTRUCTION FAILED REPLACE
 44149	060646	254 00 0 00 060647 		JRST	.+1		;WITH JRST BACK^
 44150						TGET^
 44151	060647	200 00 0 00 071350 		MOVE	TNUMB		;GET LAST PC STORED AND CHECK TO SEE
 44152	060650	302 00 0 00 060635 		CAIE	%X		;IF ITS WHERE WE REALLY SHOULD BE
 44153						STOP2^^
 44154	060651	254 04 0 00 060652 		HALT	.+1		;HALT IF WE SHOULDN'T BE HERE
 44155	060652	254 00 0 00 060653 		JRST	.+1		;WILD TRANSFER CAUSED THIS HALT.^
 44156					^
 44157			010000			X=X_-1
 44158			000020			Y=Y_-1
 44159
 44160
 44161						PIYES	Y,X^
 44162
 44163					;SET REQUESTS FOR EACH CHANNEL BUT DO NOT SET PI ACTIVE.
 44164					;INTERRUPTS SHOULD NOT OCCUR, AND THE INTERRUPT IN PROGRESS
 44165					;FLAG SHOULD NOT BE SET FOR THE CHANNEL BEING TESTED
 44166
 44167						TSET^
 44168			060653			%X=.			;DEFINE %X TO SAVE
 44169	060653	201 00 0 00 060653 		MOVEI	%X		;SAVE THIS PC IN CASE OF WILD TRANSFER
 44170	060654	202 00 0 00 071350 		MOVEM	TNUMB#		;BECAUSE OF PC MOD OR INTERRUPT^
 44171	060655				..0012:	CLRBTH^
 44172	060655	700 04 0 00 267760 		CLRAPR
 44173	060656	700 14 0 00 031577 		CLRPI^
 44174	060657	7 004 20 0 00 004020 		CONO	PI,REQSET+Y	;SET CHANNEL REQUEST BUT NOT ACTIVE
 44175						WATINT^
 44176	060660	201 13 0 00 001000 		MOVEI	13,1000		;SET UP LOOP OF TEN TO WAIT FOR INT.
 44177	060661	367 13 0 00 060661 		SOJG	13,.		;AND WAIT^
 44178	060662	7 004 30 0 00 010000 		CONSZ	PI,X		;CHECK WHY INT. IN PROGRESS IS SET.
 44179						STOP^
 44180	060663	254 04 0 00 060664 		HALT	.+1		;INSTRUCTION FAILED REPLACE
 44181	060664	254 00 0 00 060665 		JRST	.+1		;WITH JRST BACK^
 44182						TGET^
 44183	060665	200 00 0 00 071350 		MOVE	TNUMB		;GET LAST PC STORED AND CHECK TO SEE
 44184	060666	302 00 0 00 060653 		CAIE	%X		;IF ITS WHERE WE REALLY SHOULD BE
 44185						STOP2^^
 44186	060667	254 04 0 00 060670 		HALT	.+1		;HALT IF WE SHOULDN'T BE HERE
 44187	060670	254 00 0 00 060671 		JRST	.+1		;WILD TRANSFER CAUSED THIS HALT.^
 44188					^
 44189			004000			X=X_-1
DFKAA PDP-10 KL10 BASIC INSTRUCTION DIAGNOSTIC (1) VER 0,2	MACRO %53B(1254)-4 11:50 11-Nov-24 Page 27-2
DFKAA8	MAC	13-Jan-89 10:22		BASIC PI SYSTEM TESTING

 44190			000010			Y=Y_-1
 44191
 44192
 44193						PIYES	Y,X^
 44194
 44195					;SET REQUESTS FOR EACH CHANNEL BUT DO NOT SET PI ACTIVE.
 44196					;INTERRUPTS SHOULD NOT OCCUR, AND THE INTERRUPT IN PROGRESS
 44197					;FLAG SHOULD NOT BE SET FOR THE CHANNEL BEING TESTED
 44198
 44199						TSET^
 44200			060671			%X=.			;DEFINE %X TO SAVE
 44201	060671	201 00 0 00 060671 		MOVEI	%X		;SAVE THIS PC IN CASE OF WILD TRANSFER
 44202	060672	202 00 0 00 071350 		MOVEM	TNUMB#		;BECAUSE OF PC MOD OR INTERRUPT^
 44203	060673				..0013:	CLRBTH^
 44204	060673	700 04 0 00 267760 		CLRAPR
 44205	060674	700 14 0 00 031577 		CLRPI^
 44206	060675	7 004 20 0 00 004010 		CONO	PI,REQSET+Y	;SET CHANNEL REQUEST BUT NOT ACTIVE
 44207						WATINT^
 44208	060676	201 13 0 00 001000 		MOVEI	13,1000		;SET UP LOOP OF TEN TO WAIT FOR INT.
 44209	060677	367 13 0 00 060677 		SOJG	13,.		;AND WAIT^
 44210	060700	7 004 30 0 00 004000 		CONSZ	PI,X		;CHECK WHY INT. IN PROGRESS IS SET.
 44211						STOP^
 44212	060701	254 04 0 00 060702 		HALT	.+1		;INSTRUCTION FAILED REPLACE
 44213	060702	254 00 0 00 060703 		JRST	.+1		;WITH JRST BACK^
 44214						TGET^
 44215	060703	200 00 0 00 071350 		MOVE	TNUMB		;GET LAST PC STORED AND CHECK TO SEE
 44216	060704	302 00 0 00 060671 		CAIE	%X		;IF ITS WHERE WE REALLY SHOULD BE
 44217						STOP2^^
 44218	060705	254 04 0 00 060706 		HALT	.+1		;HALT IF WE SHOULDN'T BE HERE
 44219	060706	254 00 0 00 060707 		JRST	.+1		;WILD TRANSFER CAUSED THIS HALT.^
 44220					^
 44221			002000			X=X_-1
 44222			000004			Y=Y_-1
 44223
 44224
 44225						PIYES	Y,X^
 44226
 44227					;SET REQUESTS FOR EACH CHANNEL BUT DO NOT SET PI ACTIVE.
 44228					;INTERRUPTS SHOULD NOT OCCUR, AND THE INTERRUPT IN PROGRESS
 44229					;FLAG SHOULD NOT BE SET FOR THE CHANNEL BEING TESTED
 44230
 44231						TSET^
 44232			060707			%X=.			;DEFINE %X TO SAVE
 44233	060707	201 00 0 00 060707 		MOVEI	%X		;SAVE THIS PC IN CASE OF WILD TRANSFER
 44234	060710	202 00 0 00 071350 		MOVEM	TNUMB#		;BECAUSE OF PC MOD OR INTERRUPT^
 44235	060711				..0014:	CLRBTH^
 44236	060711	700 04 0 00 267760 		CLRAPR
 44237	060712	700 14 0 00 031577 		CLRPI^
 44238	060713	7 004 20 0 00 004004 		CONO	PI,REQSET+Y	;SET CHANNEL REQUEST BUT NOT ACTIVE
 44239						WATINT^
 44240	060714	201 13 0 00 001000 		MOVEI	13,1000		;SET UP LOOP OF TEN TO WAIT FOR INT.
 44241	060715	367 13 0 00 060715 		SOJG	13,.		;AND WAIT^
 44242	060716	7 004 30 0 00 002000 		CONSZ	PI,X		;CHECK WHY INT. IN PROGRESS IS SET.
 44243						STOP^
 44244	060717	254 04 0 00 060720 		HALT	.+1		;INSTRUCTION FAILED REPLACE
DFKAA PDP-10 KL10 BASIC INSTRUCTION DIAGNOSTIC (1) VER 0,2	MACRO %53B(1254)-4 11:50 11-Nov-24 Page 27-3
DFKAA8	MAC	13-Jan-89 10:22		BASIC PI SYSTEM TESTING

 44245	060720	254 00 0 00 060721 		JRST	.+1		;WITH JRST BACK^
 44246						TGET^
 44247	060721	200 00 0 00 071350 		MOVE	TNUMB		;GET LAST PC STORED AND CHECK TO SEE
 44248	060722	302 00 0 00 060707 		CAIE	%X		;IF ITS WHERE WE REALLY SHOULD BE
 44249						STOP2^^
 44250	060723	254 04 0 00 060724 		HALT	.+1		;HALT IF WE SHOULDN'T BE HERE
 44251	060724	254 00 0 00 060725 		JRST	.+1		;WILD TRANSFER CAUSED THIS HALT.^
 44252					^
 44253			001000			X=X_-1
 44254			000002			Y=Y_-1
 44255
 44256
 44257						PIYES	Y,X^
 44258
 44259					;SET REQUESTS FOR EACH CHANNEL BUT DO NOT SET PI ACTIVE.
 44260					;INTERRUPTS SHOULD NOT OCCUR, AND THE INTERRUPT IN PROGRESS
 44261					;FLAG SHOULD NOT BE SET FOR THE CHANNEL BEING TESTED
 44262
 44263						TSET^
 44264			060725			%X=.			;DEFINE %X TO SAVE
 44265	060725	201 00 0 00 060725 		MOVEI	%X		;SAVE THIS PC IN CASE OF WILD TRANSFER
 44266	060726	202 00 0 00 071350 		MOVEM	TNUMB#		;BECAUSE OF PC MOD OR INTERRUPT^
 44267	060727				..0015:	CLRBTH^
 44268	060727	700 04 0 00 267760 		CLRAPR
 44269	060730	700 14 0 00 031577 		CLRPI^
 44270	060731	7 004 20 0 00 004002 		CONO	PI,REQSET+Y	;SET CHANNEL REQUEST BUT NOT ACTIVE
 44271						WATINT^
 44272	060732	201 13 0 00 001000 		MOVEI	13,1000		;SET UP LOOP OF TEN TO WAIT FOR INT.
 44273	060733	367 13 0 00 060733 		SOJG	13,.		;AND WAIT^
 44274	060734	7 004 30 0 00 001000 		CONSZ	PI,X		;CHECK WHY INT. IN PROGRESS IS SET.
 44275						STOP^
 44276	060735	254 04 0 00 060736 		HALT	.+1		;INSTRUCTION FAILED REPLACE
 44277	060736	254 00 0 00 060737 		JRST	.+1		;WITH JRST BACK^
 44278						TGET^
 44279	060737	200 00 0 00 071350 		MOVE	TNUMB		;GET LAST PC STORED AND CHECK TO SEE
 44280	060740	302 00 0 00 060725 		CAIE	%X		;IF ITS WHERE WE REALLY SHOULD BE
 44281						STOP2^^
 44282	060741	254 04 0 00 060742 		HALT	.+1		;HALT IF WE SHOULDN'T BE HERE
 44283	060742	254 00 0 00 060743 		JRST	.+1		;WILD TRANSFER CAUSED THIS HALT.^
 44284					^
 44285			000400			X=X_-1
 44286			000001			Y=Y_-1
 44287
 44288
 44289						PIYES	Y,X^
 44290
 44291					;SET REQUESTS FOR EACH CHANNEL BUT DO NOT SET PI ACTIVE.
 44292					;INTERRUPTS SHOULD NOT OCCUR, AND THE INTERRUPT IN PROGRESS
 44293					;FLAG SHOULD NOT BE SET FOR THE CHANNEL BEING TESTED
 44294
 44295						TSET^
 44296			060743			%X=.			;DEFINE %X TO SAVE
 44297	060743	201 00 0 00 060743 		MOVEI	%X		;SAVE THIS PC IN CASE OF WILD TRANSFER
 44298	060744	202 00 0 00 071350 		MOVEM	TNUMB#		;BECAUSE OF PC MOD OR INTERRUPT^
 44299	060745				..0016:	CLRBTH^
DFKAA PDP-10 KL10 BASIC INSTRUCTION DIAGNOSTIC (1) VER 0,2	MACRO %53B(1254)-4 11:50 11-Nov-24 Page 27-4
DFKAA8	MAC	13-Jan-89 10:22		BASIC PI SYSTEM TESTING

 44300	060745	700 04 0 00 267760 		CLRAPR
 44301	060746	700 14 0 00 031577 		CLRPI^
 44302	060747	7 004 20 0 00 004001 		CONO	PI,REQSET+Y	;SET CHANNEL REQUEST BUT NOT ACTIVE
 44303						WATINT^
 44304	060750	201 13 0 00 001000 		MOVEI	13,1000		;SET UP LOOP OF TEN TO WAIT FOR INT.
 44305	060751	367 13 0 00 060751 		SOJG	13,.		;AND WAIT^
 44306	060752	7 004 30 0 00 000400 		CONSZ	PI,X		;CHECK WHY INT. IN PROGRESS IS SET.
 44307						STOP^
 44308	060753	254 04 0 00 060754 		HALT	.+1		;INSTRUCTION FAILED REPLACE
 44309	060754	254 00 0 00 060755 		JRST	.+1		;WITH JRST BACK^
 44310						TGET^
 44311	060755	200 00 0 00 071350 		MOVE	TNUMB		;GET LAST PC STORED AND CHECK TO SEE
 44312	060756	302 00 0 00 060743 		CAIE	%X		;IF ITS WHERE WE REALLY SHOULD BE
 44313						STOP2^^
 44314	060757	254 04 0 00 060760 		HALT	.+1		;HALT IF WE SHOULDN'T BE HERE
 44315	060760	254 00 0 00 060761 		JRST	.+1		;WILD TRANSFER CAUSED THIS HALT.^
 44316					^
 44317			000200			X=X_-1
 44318			000000			Y=Y_-1
 44319
 44320	060761	255 00 0 00 000000 		JFCL
DFKAA PDP-10 KL10 BASIC INSTRUCTION DIAGNOSTIC (1) VER 0,2	MACRO %53B(1254)-4 11:50 11-Nov-24 Page 28
DFKAA8	MAC	13-Jan-89 10:22		BASIC PI SYSTEM TESTING

 44321						BLURB^
 44322					;LOCATIONS 40-60 CONTAIN A JSP TO A ROUTINE WHICH STORES
 44323					;THE CHANNEL NUMBER OF THE INTERRUPT INTO 0
 44324					;THEREFORE IF AN INTERRUPT OCCURS THEN LOCATION
 44325					;ZERO WILL CONTAIN THE NUMBER OF THE INTERRUPT CHANNEL TRAP ADRESS
 44326					^
 44327
 44328	060762	264 00 0 00 070120 		TRPPI			;FILL INTERRUPT LOCATIONS WITH TRAPS
 44329			000100			X=100
 44330	060763				PIOT02:
 44331						REPEAT	7,<
 44332						PIONOF	X
 44333						X=X_-1
 44334					>
 44335
 44336						PIONOF	X^
 44337
 44338					;CHECK THAT PICLR CLEARS THE REQUEST FLOP
 44339					;AND THAT AN INTERUPT DOES NOT OCCUR
 44340
 44341					BLURB1^
 44342					;LOCATIONS 40-60 CONTAIN A JSP TO A ROUTINE WHICH EXECUTES A HALT
 44343					;POINTING TO THE CHANNEL WHICH CAUSED THE REQUEST.
 44344					;OR THE CHANNEL WHICH CAUSED THE INCORRECT INTERRUPT. THE PARTICULAR
 44345					;INTERRUPT TRAP ADRESS FOR THE INTERRUPT LEVEL BEING TESTED MAY NOT
 44346					;ALWAYS HAVE A JSP TO A HALT IN CASE WE ARE TESTING FOR REAL
 44347					;INTERRUPTS ON THAT CHANNEL. IN THIS CASE ONLY THE TRAP FOR THAT
 44348					;PARTICULAR CHANNEL WILL BE LEGAL. ALL OTHERS WILL HALT.
 44349					^
 44350
 44351						TSET^
 44352			060763			%X=.			;DEFINE %X TO SAVE
 44353	060763	201 00 0 00 060763 		MOVEI	%X		;SAVE THIS PC IN CASE OF WILD TRANSFER
 44354	060764	202 00 0 00 071350 		MOVEM	TNUMB#		;BECAUSE OF PC MOD OR INTERRUPT^
 44355	060765				..0017:	CLRBTH^
 44356	060765	700 04 0 00 267760 		CLRAPR
 44357	060766	700 14 0 00 031577 		CLRPI^
 44358	060767	7 004 20 0 00 004100 		CONO	PI,REQSET+X	;SET REQ. BUT NOT ACTIVE
 44359	060770	400 00 0 00 000000 		SETZ			;THEN CLEAR REQUEST THEN SET ACTIVE
 44360	060771	7 004 20 0 00 010100 		CONO	PI,PICLR+X	;PI RESET FAILED TO CLEAR PIR FLAG.
 44361						WATINT^
 44362	060772	201 13 0 00 001000 		MOVEI	13,1000		;SET UP LOOP OF TEN TO WAIT FOR INT.
 44363	060773	367 13 0 00 060773 		SOJG	13,.		;AND WAIT^
 44364	060774	332 00 0 00 000000 		SKIPE			;MOVEI EXEC OUT OF INTERRUPT CH.?
 44365						STOP^
 44366	060775	254 04 0 00 060776 		HALT	.+1		;INSTRUCTION FAILED REPLACE
 44367	060776	254 00 0 00 060777 		JRST	.+1		;WITH JRST BACK^
 44368						TGET^
 44369	060777	200 00 0 00 071350 		MOVE	TNUMB		;GET LAST PC STORED AND CHECK TO SEE
 44370	061000	302 00 0 00 060763 		CAIE	%X		;IF ITS WHERE WE REALLY SHOULD BE
 44371						STOP2^^
 44372	061001	254 04 0 00 061002 		HALT	.+1		;HALT IF WE SHOULDN'T BE HERE
 44373	061002	254 00 0 00 061003 		JRST	.+1		;WILD TRANSFER CAUSED THIS HALT.^
 44374					^
 44375			000040			X=X_-1
DFKAA PDP-10 KL10 BASIC INSTRUCTION DIAGNOSTIC (1) VER 0,2	MACRO %53B(1254)-4 11:50 11-Nov-24 Page 28-1
DFKAA8	MAC	13-Jan-89 10:22		BASIC PI SYSTEM TESTING

 44376
 44377
 44378						PIONOF	X^
 44379
 44380					;CHECK THAT PICLR CLEARS THE REQUEST FLOP
 44381					;AND THAT AN INTERUPT DOES NOT OCCUR
 44382
 44383					BLURB1^
 44384					;LOCATIONS 40-60 CONTAIN A JSP TO A ROUTINE WHICH EXECUTES A HALT
 44385					;POINTING TO THE CHANNEL WHICH CAUSED THE REQUEST.
 44386					;OR THE CHANNEL WHICH CAUSED THE INCORRECT INTERRUPT. THE PARTICULAR
 44387					;INTERRUPT TRAP ADRESS FOR THE INTERRUPT LEVEL BEING TESTED MAY NOT
 44388					;ALWAYS HAVE A JSP TO A HALT IN CASE WE ARE TESTING FOR REAL
 44389					;INTERRUPTS ON THAT CHANNEL. IN THIS CASE ONLY THE TRAP FOR THAT
 44390					;PARTICULAR CHANNEL WILL BE LEGAL. ALL OTHERS WILL HALT.
 44391					^
 44392
 44393						TSET^
 44394			061003			%X=.			;DEFINE %X TO SAVE
 44395	061003	201 00 0 00 061003 		MOVEI	%X		;SAVE THIS PC IN CASE OF WILD TRANSFER
 44396	061004	202 00 0 00 071350 		MOVEM	TNUMB#		;BECAUSE OF PC MOD OR INTERRUPT^
 44397	061005				..0020:	CLRBTH^
 44398	061005	700 04 0 00 267760 		CLRAPR
 44399	061006	700 14 0 00 031577 		CLRPI^
 44400	061007	7 004 20 0 00 004040 		CONO	PI,REQSET+X	;SET REQ. BUT NOT ACTIVE
 44401	061010	400 00 0 00 000000 		SETZ			;THEN CLEAR REQUEST THEN SET ACTIVE
 44402	061011	7 004 20 0 00 010040 		CONO	PI,PICLR+X	;PI RESET FAILED TO CLEAR PIR FLAG.
 44403						WATINT^
 44404	061012	201 13 0 00 001000 		MOVEI	13,1000		;SET UP LOOP OF TEN TO WAIT FOR INT.
 44405	061013	367 13 0 00 061013 		SOJG	13,.		;AND WAIT^
 44406	061014	332 00 0 00 000000 		SKIPE			;MOVEI EXEC OUT OF INTERRUPT CH.?
 44407						STOP^
 44408	061015	254 04 0 00 061016 		HALT	.+1		;INSTRUCTION FAILED REPLACE
 44409	061016	254 00 0 00 061017 		JRST	.+1		;WITH JRST BACK^
 44410						TGET^
 44411	061017	200 00 0 00 071350 		MOVE	TNUMB		;GET LAST PC STORED AND CHECK TO SEE
 44412	061020	302 00 0 00 061003 		CAIE	%X		;IF ITS WHERE WE REALLY SHOULD BE
 44413						STOP2^^
 44414	061021	254 04 0 00 061022 		HALT	.+1		;HALT IF WE SHOULDN'T BE HERE
 44415	061022	254 00 0 00 061023 		JRST	.+1		;WILD TRANSFER CAUSED THIS HALT.^
 44416					^
 44417			000020			X=X_-1
 44418
 44419
 44420						PIONOF	X^
 44421
 44422					;CHECK THAT PICLR CLEARS THE REQUEST FLOP
 44423					;AND THAT AN INTERUPT DOES NOT OCCUR
 44424
 44425					BLURB1^
 44426					;LOCATIONS 40-60 CONTAIN A JSP TO A ROUTINE WHICH EXECUTES A HALT
 44427					;POINTING TO THE CHANNEL WHICH CAUSED THE REQUEST.
 44428					;OR THE CHANNEL WHICH CAUSED THE INCORRECT INTERRUPT. THE PARTICULAR
 44429					;INTERRUPT TRAP ADRESS FOR THE INTERRUPT LEVEL BEING TESTED MAY NOT
 44430					;ALWAYS HAVE A JSP TO A HALT IN CASE WE ARE TESTING FOR REAL
DFKAA PDP-10 KL10 BASIC INSTRUCTION DIAGNOSTIC (1) VER 0,2	MACRO %53B(1254)-4 11:50 11-Nov-24 Page 28-2
DFKAA8	MAC	13-Jan-89 10:22		BASIC PI SYSTEM TESTING

 44431					;INTERRUPTS ON THAT CHANNEL. IN THIS CASE ONLY THE TRAP FOR THAT
 44432					;PARTICULAR CHANNEL WILL BE LEGAL. ALL OTHERS WILL HALT.
 44433					^
 44434
 44435						TSET^
 44436			061023			%X=.			;DEFINE %X TO SAVE
 44437	061023	201 00 0 00 061023 		MOVEI	%X		;SAVE THIS PC IN CASE OF WILD TRANSFER
 44438	061024	202 00 0 00 071350 		MOVEM	TNUMB#		;BECAUSE OF PC MOD OR INTERRUPT^
 44439	061025				..0021:	CLRBTH^
 44440	061025	700 04 0 00 267760 		CLRAPR
 44441	061026	700 14 0 00 031577 		CLRPI^
 44442	061027	7 004 20 0 00 004020 		CONO	PI,REQSET+X	;SET REQ. BUT NOT ACTIVE
 44443	061030	400 00 0 00 000000 		SETZ			;THEN CLEAR REQUEST THEN SET ACTIVE
 44444	061031	7 004 20 0 00 010020 		CONO	PI,PICLR+X	;PI RESET FAILED TO CLEAR PIR FLAG.
 44445						WATINT^
 44446	061032	201 13 0 00 001000 		MOVEI	13,1000		;SET UP LOOP OF TEN TO WAIT FOR INT.
 44447	061033	367 13 0 00 061033 		SOJG	13,.		;AND WAIT^
 44448	061034	332 00 0 00 000000 		SKIPE			;MOVEI EXEC OUT OF INTERRUPT CH.?
 44449						STOP^
 44450	061035	254 04 0 00 061036 		HALT	.+1		;INSTRUCTION FAILED REPLACE
 44451	061036	254 00 0 00 061037 		JRST	.+1		;WITH JRST BACK^
 44452						TGET^
 44453	061037	200 00 0 00 071350 		MOVE	TNUMB		;GET LAST PC STORED AND CHECK TO SEE
 44454	061040	302 00 0 00 061023 		CAIE	%X		;IF ITS WHERE WE REALLY SHOULD BE
 44455						STOP2^^
 44456	061041	254 04 0 00 061042 		HALT	.+1		;HALT IF WE SHOULDN'T BE HERE
 44457	061042	254 00 0 00 061043 		JRST	.+1		;WILD TRANSFER CAUSED THIS HALT.^
 44458					^
 44459			000010			X=X_-1
 44460
 44461
 44462						PIONOF	X^
 44463
 44464					;CHECK THAT PICLR CLEARS THE REQUEST FLOP
 44465					;AND THAT AN INTERUPT DOES NOT OCCUR
 44466
 44467					BLURB1^
 44468					;LOCATIONS 40-60 CONTAIN A JSP TO A ROUTINE WHICH EXECUTES A HALT
 44469					;POINTING TO THE CHANNEL WHICH CAUSED THE REQUEST.
 44470					;OR THE CHANNEL WHICH CAUSED THE INCORRECT INTERRUPT. THE PARTICULAR
 44471					;INTERRUPT TRAP ADRESS FOR THE INTERRUPT LEVEL BEING TESTED MAY NOT
 44472					;ALWAYS HAVE A JSP TO A HALT IN CASE WE ARE TESTING FOR REAL
 44473					;INTERRUPTS ON THAT CHANNEL. IN THIS CASE ONLY THE TRAP FOR THAT
 44474					;PARTICULAR CHANNEL WILL BE LEGAL. ALL OTHERS WILL HALT.
 44475					^
 44476
 44477						TSET^
 44478			061043			%X=.			;DEFINE %X TO SAVE
 44479	061043	201 00 0 00 061043 		MOVEI	%X		;SAVE THIS PC IN CASE OF WILD TRANSFER
 44480	061044	202 00 0 00 071350 		MOVEM	TNUMB#		;BECAUSE OF PC MOD OR INTERRUPT^
 44481	061045				..0022:	CLRBTH^
 44482	061045	700 04 0 00 267760 		CLRAPR
 44483	061046	700 14 0 00 031577 		CLRPI^
 44484	061047	7 004 20 0 00 004010 		CONO	PI,REQSET+X	;SET REQ. BUT NOT ACTIVE
 44485	061050	400 00 0 00 000000 		SETZ			;THEN CLEAR REQUEST THEN SET ACTIVE
DFKAA PDP-10 KL10 BASIC INSTRUCTION DIAGNOSTIC (1) VER 0,2	MACRO %53B(1254)-4 11:50 11-Nov-24 Page 28-3
DFKAA8	MAC	13-Jan-89 10:22		BASIC PI SYSTEM TESTING

 44486	061051	7 004 20 0 00 010010 		CONO	PI,PICLR+X	;PI RESET FAILED TO CLEAR PIR FLAG.
 44487						WATINT^
 44488	061052	201 13 0 00 001000 		MOVEI	13,1000		;SET UP LOOP OF TEN TO WAIT FOR INT.
 44489	061053	367 13 0 00 061053 		SOJG	13,.		;AND WAIT^
 44490	061054	332 00 0 00 000000 		SKIPE			;MOVEI EXEC OUT OF INTERRUPT CH.?
 44491						STOP^
 44492	061055	254 04 0 00 061056 		HALT	.+1		;INSTRUCTION FAILED REPLACE
 44493	061056	254 00 0 00 061057 		JRST	.+1		;WITH JRST BACK^
 44494						TGET^
 44495	061057	200 00 0 00 071350 		MOVE	TNUMB		;GET LAST PC STORED AND CHECK TO SEE
 44496	061060	302 00 0 00 061043 		CAIE	%X		;IF ITS WHERE WE REALLY SHOULD BE
 44497						STOP2^^
 44498	061061	254 04 0 00 061062 		HALT	.+1		;HALT IF WE SHOULDN'T BE HERE
 44499	061062	254 00 0 00 061063 		JRST	.+1		;WILD TRANSFER CAUSED THIS HALT.^
 44500					^
 44501			000004			X=X_-1
 44502
 44503
 44504						PIONOF	X^
 44505
 44506					;CHECK THAT PICLR CLEARS THE REQUEST FLOP
 44507					;AND THAT AN INTERUPT DOES NOT OCCUR
 44508
 44509					BLURB1^
 44510					;LOCATIONS 40-60 CONTAIN A JSP TO A ROUTINE WHICH EXECUTES A HALT
 44511					;POINTING TO THE CHANNEL WHICH CAUSED THE REQUEST.
 44512					;OR THE CHANNEL WHICH CAUSED THE INCORRECT INTERRUPT. THE PARTICULAR
 44513					;INTERRUPT TRAP ADRESS FOR THE INTERRUPT LEVEL BEING TESTED MAY NOT
 44514					;ALWAYS HAVE A JSP TO A HALT IN CASE WE ARE TESTING FOR REAL
 44515					;INTERRUPTS ON THAT CHANNEL. IN THIS CASE ONLY THE TRAP FOR THAT
 44516					;PARTICULAR CHANNEL WILL BE LEGAL. ALL OTHERS WILL HALT.
 44517					^
 44518
 44519						TSET^
 44520			061063			%X=.			;DEFINE %X TO SAVE
 44521	061063	201 00 0 00 061063 		MOVEI	%X		;SAVE THIS PC IN CASE OF WILD TRANSFER
 44522	061064	202 00 0 00 071350 		MOVEM	TNUMB#		;BECAUSE OF PC MOD OR INTERRUPT^
 44523	061065				..0023:	CLRBTH^
 44524	061065	700 04 0 00 267760 		CLRAPR
 44525	061066	700 14 0 00 031577 		CLRPI^
 44526	061067	7 004 20 0 00 004004 		CONO	PI,REQSET+X	;SET REQ. BUT NOT ACTIVE
 44527	061070	400 00 0 00 000000 		SETZ			;THEN CLEAR REQUEST THEN SET ACTIVE
 44528	061071	7 004 20 0 00 010004 		CONO	PI,PICLR+X	;PI RESET FAILED TO CLEAR PIR FLAG.
 44529						WATINT^
 44530	061072	201 13 0 00 001000 		MOVEI	13,1000		;SET UP LOOP OF TEN TO WAIT FOR INT.
 44531	061073	367 13 0 00 061073 		SOJG	13,.		;AND WAIT^
 44532	061074	332 00 0 00 000000 		SKIPE			;MOVEI EXEC OUT OF INTERRUPT CH.?
 44533						STOP^
 44534	061075	254 04 0 00 061076 		HALT	.+1		;INSTRUCTION FAILED REPLACE
 44535	061076	254 00 0 00 061077 		JRST	.+1		;WITH JRST BACK^
 44536						TGET^
 44537	061077	200 00 0 00 071350 		MOVE	TNUMB		;GET LAST PC STORED AND CHECK TO SEE
 44538	061100	302 00 0 00 061063 		CAIE	%X		;IF ITS WHERE WE REALLY SHOULD BE
 44539						STOP2^^
 44540	061101	254 04 0 00 061102 		HALT	.+1		;HALT IF WE SHOULDN'T BE HERE
DFKAA PDP-10 KL10 BASIC INSTRUCTION DIAGNOSTIC (1) VER 0,2	MACRO %53B(1254)-4 11:50 11-Nov-24 Page 28-4
DFKAA8	MAC	13-Jan-89 10:22		BASIC PI SYSTEM TESTING

 44541	061102	254 00 0 00 061103 		JRST	.+1		;WILD TRANSFER CAUSED THIS HALT.^
 44542					^
 44543			000002			X=X_-1
 44544
 44545
 44546						PIONOF	X^
 44547
 44548					;CHECK THAT PICLR CLEARS THE REQUEST FLOP
 44549					;AND THAT AN INTERUPT DOES NOT OCCUR
 44550
 44551					BLURB1^
 44552					;LOCATIONS 40-60 CONTAIN A JSP TO A ROUTINE WHICH EXECUTES A HALT
 44553					;POINTING TO THE CHANNEL WHICH CAUSED THE REQUEST.
 44554					;OR THE CHANNEL WHICH CAUSED THE INCORRECT INTERRUPT. THE PARTICULAR
 44555					;INTERRUPT TRAP ADRESS FOR THE INTERRUPT LEVEL BEING TESTED MAY NOT
 44556					;ALWAYS HAVE A JSP TO A HALT IN CASE WE ARE TESTING FOR REAL
 44557					;INTERRUPTS ON THAT CHANNEL. IN THIS CASE ONLY THE TRAP FOR THAT
 44558					;PARTICULAR CHANNEL WILL BE LEGAL. ALL OTHERS WILL HALT.
 44559					^
 44560
 44561						TSET^
 44562			061103			%X=.			;DEFINE %X TO SAVE
 44563	061103	201 00 0 00 061103 		MOVEI	%X		;SAVE THIS PC IN CASE OF WILD TRANSFER
 44564	061104	202 00 0 00 071350 		MOVEM	TNUMB#		;BECAUSE OF PC MOD OR INTERRUPT^
 44565	061105				..0024:	CLRBTH^
 44566	061105	700 04 0 00 267760 		CLRAPR
 44567	061106	700 14 0 00 031577 		CLRPI^
 44568	061107	7 004 20 0 00 004002 		CONO	PI,REQSET+X	;SET REQ. BUT NOT ACTIVE
 44569	061110	400 00 0 00 000000 		SETZ			;THEN CLEAR REQUEST THEN SET ACTIVE
 44570	061111	7 004 20 0 00 010002 		CONO	PI,PICLR+X	;PI RESET FAILED TO CLEAR PIR FLAG.
 44571						WATINT^
 44572	061112	201 13 0 00 001000 		MOVEI	13,1000		;SET UP LOOP OF TEN TO WAIT FOR INT.
 44573	061113	367 13 0 00 061113 		SOJG	13,.		;AND WAIT^
 44574	061114	332 00 0 00 000000 		SKIPE			;MOVEI EXEC OUT OF INTERRUPT CH.?
 44575						STOP^
 44576	061115	254 04 0 00 061116 		HALT	.+1		;INSTRUCTION FAILED REPLACE
 44577	061116	254 00 0 00 061117 		JRST	.+1		;WITH JRST BACK^
 44578						TGET^
 44579	061117	200 00 0 00 071350 		MOVE	TNUMB		;GET LAST PC STORED AND CHECK TO SEE
 44580	061120	302 00 0 00 061103 		CAIE	%X		;IF ITS WHERE WE REALLY SHOULD BE
 44581						STOP2^^
 44582	061121	254 04 0 00 061122 		HALT	.+1		;HALT IF WE SHOULDN'T BE HERE
 44583	061122	254 00 0 00 061123 		JRST	.+1		;WILD TRANSFER CAUSED THIS HALT.^
 44584					^
 44585			000001			X=X_-1
 44586
 44587
 44588						PIONOF	X^
 44589
 44590					;CHECK THAT PICLR CLEARS THE REQUEST FLOP
 44591					;AND THAT AN INTERUPT DOES NOT OCCUR
 44592
 44593					BLURB1^
 44594					;LOCATIONS 40-60 CONTAIN A JSP TO A ROUTINE WHICH EXECUTES A HALT
 44595					;POINTING TO THE CHANNEL WHICH CAUSED THE REQUEST.
DFKAA PDP-10 KL10 BASIC INSTRUCTION DIAGNOSTIC (1) VER 0,2	MACRO %53B(1254)-4 11:50 11-Nov-24 Page 28-5
DFKAA8	MAC	13-Jan-89 10:22		BASIC PI SYSTEM TESTING

 44596					;OR THE CHANNEL WHICH CAUSED THE INCORRECT INTERRUPT. THE PARTICULAR
 44597					;INTERRUPT TRAP ADRESS FOR THE INTERRUPT LEVEL BEING TESTED MAY NOT
 44598					;ALWAYS HAVE A JSP TO A HALT IN CASE WE ARE TESTING FOR REAL
 44599					;INTERRUPTS ON THAT CHANNEL. IN THIS CASE ONLY THE TRAP FOR THAT
 44600					;PARTICULAR CHANNEL WILL BE LEGAL. ALL OTHERS WILL HALT.
 44601					^
 44602
 44603						TSET^
 44604			061123			%X=.			;DEFINE %X TO SAVE
 44605	061123	201 00 0 00 061123 		MOVEI	%X		;SAVE THIS PC IN CASE OF WILD TRANSFER
 44606	061124	202 00 0 00 071350 		MOVEM	TNUMB#		;BECAUSE OF PC MOD OR INTERRUPT^
 44607	061125				..0025:	CLRBTH^
 44608	061125	700 04 0 00 267760 		CLRAPR
 44609	061126	700 14 0 00 031577 		CLRPI^
 44610	061127	7 004 20 0 00 004001 		CONO	PI,REQSET+X	;SET REQ. BUT NOT ACTIVE
 44611	061130	400 00 0 00 000000 		SETZ			;THEN CLEAR REQUEST THEN SET ACTIVE
 44612	061131	7 004 20 0 00 010001 		CONO	PI,PICLR+X	;PI RESET FAILED TO CLEAR PIR FLAG.
 44613						WATINT^
 44614	061132	201 13 0 00 001000 		MOVEI	13,1000		;SET UP LOOP OF TEN TO WAIT FOR INT.
 44615	061133	367 13 0 00 061133 		SOJG	13,.		;AND WAIT^
 44616	061134	332 00 0 00 000000 		SKIPE			;MOVEI EXEC OUT OF INTERRUPT CH.?
 44617						STOP^
 44618	061135	254 04 0 00 061136 		HALT	.+1		;INSTRUCTION FAILED REPLACE
 44619	061136	254 00 0 00 061137 		JRST	.+1		;WITH JRST BACK^
 44620						TGET^
 44621	061137	200 00 0 00 071350 		MOVE	TNUMB		;GET LAST PC STORED AND CHECK TO SEE
 44622	061140	302 00 0 00 061123 		CAIE	%X		;IF ITS WHERE WE REALLY SHOULD BE
 44623						STOP2^^
 44624	061141	254 04 0 00 061142 		HALT	.+1		;HALT IF WE SHOULDN'T BE HERE
 44625	061142	254 00 0 00 061143 		JRST	.+1		;WILD TRANSFER CAUSED THIS HALT.^
 44626					^
 44627			000000			X=X_-1
 44628
 44629	061143	255 00 0 00 000000 		JFCL
DFKAA PDP-10 KL10 BASIC INSTRUCTION DIAGNOSTIC (1) VER 0,2	MACRO %53B(1254)-4 11:50 11-Nov-24 Page 29
DFKAA8	MAC	13-Jan-89 10:22		BASIC PI SYSTEM TESTING

 44630						BLURB^
 44631					;LOCATIONS 40-60 CONTAIN A JSP TO A ROUTINE WHICH STORES
 44632					;THE CHANNEL NUMBER OF THE INTERRUPT INTO 0
 44633					;THEREFORE IF AN INTERRUPT OCCURS THEN LOCATION
 44634					;ZERO WILL CONTAIN THE NUMBER OF THE INTERRUPT CHANNEL TRAP ADRESS
 44635					^
 44636					;TEST THE SETTING AND CLEARING OF THE PI FLOPS WITHOUT CREATING INTERRUPTS
 44637					;THE TEST WILL HALT IF AN INTERRUPT OCCURS AND THE CHANNEL NUMBER OF THE
 44638					;INTERRUPT WILL BE STORED IN AC0
 44639
 44640
 44641	061144	264 00 0 00 070103 		HALTPI			;FILL INTERRUPT LOCATIONS WITH HALTS
 44642
 44643	061145				BIGPI1:	PITEST	100^
 44644
 44645					;TEST SETTING OF CHANNEL FLOP
 44646
 44647						TSET^
 44648			061145			%X=.			;DEFINE %X TO SAVE
 44649	061145	201 00 0 00 061145 		MOVEI	%X		;SAVE THIS PC IN CASE OF WILD TRANSFER
 44650	061146	202 00 0 00 071350 		MOVEM	TNUMB#		;BECAUSE OF PC MOD OR INTERRUPT^
 44651	061147				..0026:	CLRBTH^
 44652	061147	700 04 0 00 267760 		CLRAPR
 44653	061150	700 14 0 00 031577 		CLRPI^
 44654	061151	7 004 20 0 00 002100 		CONO	PI,CHNON+100	;PION FAILED TO SET
 44655	061152	7 004 34 0 00 000100 		CONSO	PI,100
 44656						STOP^
 44657	061153	254 04 0 00 061154 		HALT	.+1		;INSTRUCTION FAILED REPLACE
 44658	061154	254 00 0 00 061155 		JRST	.+1		;WITH JRST BACK^
 44659						TBOTH^
 44660						TGET^
 44661	061155	200 00 0 00 071350 		MOVE	TNUMB		;GET LAST PC STORED AND CHECK TO SEE
 44662	061156	302 00 0 00 061145 		CAIE	%X		;IF ITS WHERE WE REALLY SHOULD BE
 44663						STOP2^^
 44664	061157	254 04 0 00 061160 		HALT	.+1		;HALT IF WE SHOULDN'T BE HERE
 44665	061160	254 00 0 00 061161 		JRST	.+1		;WILD TRANSFER CAUSED THIS HALT.^
 44666
 44667						TSET^^
 44668			061161			%X=.			;DEFINE %X TO SAVE
 44669	061161	201 00 0 00 061161 		MOVEI	%X		;SAVE THIS PC IN CASE OF WILD TRANSFER
 44670	061162	202 00 0 00 071350 		MOVEM	TNUMB#		;BECAUSE OF PC MOD OR INTERRUPT^
 44671						CLRBTH^
 44672	061163	700 04 0 00 267760 		CLRAPR
 44673	061164	700 14 0 00 031577 		CLRPI^
 44674					;TEST CLEARING OF CHANNEL FLOP
 44675	061165	7 004 20 0 00 002100 		CONO	PI,CHNON+100	;CHECK PIO CLR
 44676	061166	7 004 20 0 00 001100 		CONO	PI,CHNOFF+100	;TURN OFF CHANNELS
 44677	061167	7 004 30 0 00 000100 		CONSZ	PI,100		;CHECK WHY FLOP NOT CLEAR
 44678						STOP^
 44679	061170	254 04 0 00 061171 		HALT	.+1		;INSTRUCTION FAILED REPLACE
 44680	061171	254 00 0 00 061172 		JRST	.+1		;WITH JRST BACK^
 44681						TBOTH^
 44682						TGET^
 44683	061172	200 00 0 00 071350 		MOVE	TNUMB		;GET LAST PC STORED AND CHECK TO SEE
 44684	061173	302 00 0 00 061161 		CAIE	%X		;IF ITS WHERE WE REALLY SHOULD BE
DFKAA PDP-10 KL10 BASIC INSTRUCTION DIAGNOSTIC (1) VER 0,2	MACRO %53B(1254)-4 11:50 11-Nov-24 Page 29-1
DFKAA8	MAC	13-Jan-89 10:22		BASIC PI SYSTEM TESTING

 44685						STOP2^^
 44686	061174	254 04 0 00 061175 		HALT	.+1		;HALT IF WE SHOULDN'T BE HERE
 44687	061175	254 00 0 00 061176 		JRST	.+1		;WILD TRANSFER CAUSED THIS HALT.^
 44688
 44689						TSET^^
 44690			061176			%X=.			;DEFINE %X TO SAVE
 44691	061176	201 00 0 00 061176 		MOVEI	%X		;SAVE THIS PC IN CASE OF WILD TRANSFER
 44692	061177	202 00 0 00 071350 		MOVEM	TNUMB#		;BECAUSE OF PC MOD OR INTERRUPT^
 44693						CLRBTH^
 44694	061200	700 04 0 00 267760 		CLRAPR
 44695	061201	700 14 0 00 031577 		CLRPI^
 44696					;CHECK RESETING OF PI SYSTEM
 44697	061202	7 004 20 0 00 002100 		CONO	PI,CHNON+100	;CHECK THAT PI RESET CLEARS
 44698	061203	7 004 20 0 00 010000 		CONO	PI,PICLR	;PI SYSTEM
 44699	061204	7 004 30 0 00 000100 		CONSZ	PI,100
 44700						STOP^
 44701	061205	254 04 0 00 061206 		HALT	.+1		;INSTRUCTION FAILED REPLACE
 44702	061206	254 00 0 00 061207 		JRST	.+1		;WITH JRST BACK^
 44703						TBOTH^
 44704						TGET^
 44705	061207	200 00 0 00 071350 		MOVE	TNUMB		;GET LAST PC STORED AND CHECK TO SEE
 44706	061210	302 00 0 00 061176 		CAIE	%X		;IF ITS WHERE WE REALLY SHOULD BE
 44707						STOP2^^
 44708	061211	254 04 0 00 061212 		HALT	.+1		;HALT IF WE SHOULDN'T BE HERE
 44709	061212	254 00 0 00 061213 		JRST	.+1		;WILD TRANSFER CAUSED THIS HALT.^
 44710
 44711						TSET^^
 44712			061213			%X=.			;DEFINE %X TO SAVE
 44713	061213	201 00 0 00 061213 		MOVEI	%X		;SAVE THIS PC IN CASE OF WILD TRANSFER
 44714	061214	202 00 0 00 071350 		MOVEM	TNUMB#		;BECAUSE OF PC MOD OR INTERRUPT^
 44715						CLRBTH^
 44716	061215	700 04 0 00 267760 		CLRAPR
 44717	061216	700 14 0 00 031577 		CLRPI^
 44718					;TEST THAT CONO ONLY SETS PION
 44719	061217	7 004 20 0 00 002000 		CONO	PI,CHNON	;TEST PIO SET
 44720	061220	7 004 30 0 00 000100 		CONSZ	PI,100		;CHECK WHY CONO SET FLAGS WHITHOUT AN IOB BIT
 44721						STOP^
 44722	061221	254 04 0 00 061222 		HALT	.+1		;INSTRUCTION FAILED REPLACE
 44723	061222	254 00 0 00 061223 		JRST	.+1		;WITH JRST BACK^
 44724						TBOTH^
 44725						TGET^
 44726	061223	200 00 0 00 071350 		MOVE	TNUMB		;GET LAST PC STORED AND CHECK TO SEE
 44727	061224	302 00 0 00 061213 		CAIE	%X		;IF ITS WHERE WE REALLY SHOULD BE
 44728						STOP2^^
 44729	061225	254 04 0 00 061226 		HALT	.+1		;HALT IF WE SHOULDN'T BE HERE
 44730	061226	254 00 0 00 061227 		JRST	.+1		;WILD TRANSFER CAUSED THIS HALT.^
 44731
 44732						TSET^^
 44733			061227			%X=.			;DEFINE %X TO SAVE
 44734	061227	201 00 0 00 061227 		MOVEI	%X		;SAVE THIS PC IN CASE OF WILD TRANSFER
 44735	061230	202 00 0 00 071350 		MOVEM	TNUMB#		;BECAUSE OF PC MOD OR INTERRUPT^
 44736						CLRBTH^
 44737	061231	700 04 0 00 267760 		CLRAPR
 44738	061232	700 14 0 00 031577 		CLRPI^
 44739					;CHECK THAT CONO DOES NOT CLEAR ACTIVE
DFKAA PDP-10 KL10 BASIC INSTRUCTION DIAGNOSTIC (1) VER 0,2	MACRO %53B(1254)-4 11:50 11-Nov-24 Page 29-2
DFKAA8	MAC	13-Jan-89 10:22		BASIC PI SYSTEM TESTING

 44740	061233	7 004 20 0 00 002100 		CONO	PI,CHNON+100	;TEST PIO CLR
 44741	061234	7 004 20 0 00 001000 		CONO	PI,CHNOFF	;MAYBE RESET OCCURED - BIT SHOULD STILL
 44742	061235	7 004 34 0 00 000100 		CONSO	PI,100		;BE SET
 44743						STOP^
 44744	061236	254 04 0 00 061237 		HALT	.+1		;INSTRUCTION FAILED REPLACE
 44745	061237	254 00 0 00 061240 		JRST	.+1		;WITH JRST BACK^
 44746						TGET^
 44747	061240	200 00 0 00 071350 		MOVE	TNUMB		;GET LAST PC STORED AND CHECK TO SEE
 44748	061241	302 00 0 00 061227 		CAIE	%X		;IF ITS WHERE WE REALLY SHOULD BE
 44749						STOP2^^
 44750	061242	254 04 0 00 061243 		HALT	.+1		;HALT IF WE SHOULDN'T BE HERE
 44751	061243	254 00 0 00 061244 		JRST	.+1		;WILD TRANSFER CAUSED THIS HALT.^
 44752					^
 44753
 44754	061244				BIGPI2:	PITEST	40^
 44755
 44756					;TEST SETTING OF CHANNEL FLOP
 44757
 44758						TSET^
 44759			061244			%X=.			;DEFINE %X TO SAVE
 44760	061244	201 00 0 00 061244 		MOVEI	%X		;SAVE THIS PC IN CASE OF WILD TRANSFER
 44761	061245	202 00 0 00 071350 		MOVEM	TNUMB#		;BECAUSE OF PC MOD OR INTERRUPT^
 44762	061246				..0027:	CLRBTH^
 44763	061246	700 04 0 00 267760 		CLRAPR
 44764	061247	700 14 0 00 031577 		CLRPI^
 44765	061250	7 004 20 0 00 002040 		CONO	PI,CHNON+40	;PION FAILED TO SET
 44766	061251	7 004 34 0 00 000040 		CONSO	PI,40
 44767						STOP^
 44768	061252	254 04 0 00 061253 		HALT	.+1		;INSTRUCTION FAILED REPLACE
 44769	061253	254 00 0 00 061254 		JRST	.+1		;WITH JRST BACK^
 44770						TBOTH^
 44771						TGET^
 44772	061254	200 00 0 00 071350 		MOVE	TNUMB		;GET LAST PC STORED AND CHECK TO SEE
 44773	061255	302 00 0 00 061244 		CAIE	%X		;IF ITS WHERE WE REALLY SHOULD BE
 44774						STOP2^^
 44775	061256	254 04 0 00 061257 		HALT	.+1		;HALT IF WE SHOULDN'T BE HERE
 44776	061257	254 00 0 00 061260 		JRST	.+1		;WILD TRANSFER CAUSED THIS HALT.^
 44777
 44778						TSET^^
 44779			061260			%X=.			;DEFINE %X TO SAVE
 44780	061260	201 00 0 00 061260 		MOVEI	%X		;SAVE THIS PC IN CASE OF WILD TRANSFER
 44781	061261	202 00 0 00 071350 		MOVEM	TNUMB#		;BECAUSE OF PC MOD OR INTERRUPT^
 44782						CLRBTH^
 44783	061262	700 04 0 00 267760 		CLRAPR
 44784	061263	700 14 0 00 031577 		CLRPI^
 44785					;TEST CLEARING OF CHANNEL FLOP
 44786	061264	7 004 20 0 00 002040 		CONO	PI,CHNON+40	;CHECK PIO CLR
 44787	061265	7 004 20 0 00 001040 		CONO	PI,CHNOFF+40	;TURN OFF CHANNELS
 44788	061266	7 004 30 0 00 000040 		CONSZ	PI,40		;CHECK WHY FLOP NOT CLEAR
 44789						STOP^
 44790	061267	254 04 0 00 061270 		HALT	.+1		;INSTRUCTION FAILED REPLACE
 44791	061270	254 00 0 00 061271 		JRST	.+1		;WITH JRST BACK^
 44792						TBOTH^
 44793						TGET^
 44794	061271	200 00 0 00 071350 		MOVE	TNUMB		;GET LAST PC STORED AND CHECK TO SEE
DFKAA PDP-10 KL10 BASIC INSTRUCTION DIAGNOSTIC (1) VER 0,2	MACRO %53B(1254)-4 11:50 11-Nov-24 Page 29-3
DFKAA8	MAC	13-Jan-89 10:22		BASIC PI SYSTEM TESTING

 44795	061272	302 00 0 00 061260 		CAIE	%X		;IF ITS WHERE WE REALLY SHOULD BE
 44796						STOP2^^
 44797	061273	254 04 0 00 061274 		HALT	.+1		;HALT IF WE SHOULDN'T BE HERE
 44798	061274	254 00 0 00 061275 		JRST	.+1		;WILD TRANSFER CAUSED THIS HALT.^
 44799
 44800						TSET^^
 44801			061275			%X=.			;DEFINE %X TO SAVE
 44802	061275	201 00 0 00 061275 		MOVEI	%X		;SAVE THIS PC IN CASE OF WILD TRANSFER
 44803	061276	202 00 0 00 071350 		MOVEM	TNUMB#		;BECAUSE OF PC MOD OR INTERRUPT^
 44804						CLRBTH^
 44805	061277	700 04 0 00 267760 		CLRAPR
 44806	061300	700 14 0 00 031577 		CLRPI^
 44807					;CHECK RESETING OF PI SYSTEM
 44808	061301	7 004 20 0 00 002040 		CONO	PI,CHNON+40	;CHECK THAT PI RESET CLEARS
 44809	061302	7 004 20 0 00 010000 		CONO	PI,PICLR	;PI SYSTEM
 44810	061303	7 004 30 0 00 000040 		CONSZ	PI,40
 44811						STOP^
 44812	061304	254 04 0 00 061305 		HALT	.+1		;INSTRUCTION FAILED REPLACE
 44813	061305	254 00 0 00 061306 		JRST	.+1		;WITH JRST BACK^
 44814						TBOTH^
 44815						TGET^
 44816	061306	200 00 0 00 071350 		MOVE	TNUMB		;GET LAST PC STORED AND CHECK TO SEE
 44817	061307	302 00 0 00 061275 		CAIE	%X		;IF ITS WHERE WE REALLY SHOULD BE
 44818						STOP2^^
 44819	061310	254 04 0 00 061311 		HALT	.+1		;HALT IF WE SHOULDN'T BE HERE
 44820	061311	254 00 0 00 061312 		JRST	.+1		;WILD TRANSFER CAUSED THIS HALT.^
 44821
 44822						TSET^^
 44823			061312			%X=.			;DEFINE %X TO SAVE
 44824	061312	201 00 0 00 061312 		MOVEI	%X		;SAVE THIS PC IN CASE OF WILD TRANSFER
 44825	061313	202 00 0 00 071350 		MOVEM	TNUMB#		;BECAUSE OF PC MOD OR INTERRUPT^
 44826						CLRBTH^
 44827	061314	700 04 0 00 267760 		CLRAPR
 44828	061315	700 14 0 00 031577 		CLRPI^
 44829					;TEST THAT CONO ONLY SETS PION
 44830	061316	7 004 20 0 00 002000 		CONO	PI,CHNON	;TEST PIO SET
 44831	061317	7 004 30 0 00 000040 		CONSZ	PI,40		;CHECK WHY CONO SET FLAGS WHITHOUT AN IOB BIT
 44832						STOP^
 44833	061320	254 04 0 00 061321 		HALT	.+1		;INSTRUCTION FAILED REPLACE
 44834	061321	254 00 0 00 061322 		JRST	.+1		;WITH JRST BACK^
 44835						TBOTH^
 44836						TGET^
 44837	061322	200 00 0 00 071350 		MOVE	TNUMB		;GET LAST PC STORED AND CHECK TO SEE
 44838	061323	302 00 0 00 061312 		CAIE	%X		;IF ITS WHERE WE REALLY SHOULD BE
 44839						STOP2^^
 44840	061324	254 04 0 00 061325 		HALT	.+1		;HALT IF WE SHOULDN'T BE HERE
 44841	061325	254 00 0 00 061326 		JRST	.+1		;WILD TRANSFER CAUSED THIS HALT.^
 44842
 44843						TSET^^
 44844			061326			%X=.			;DEFINE %X TO SAVE
 44845	061326	201 00 0 00 061326 		MOVEI	%X		;SAVE THIS PC IN CASE OF WILD TRANSFER
 44846	061327	202 00 0 00 071350 		MOVEM	TNUMB#		;BECAUSE OF PC MOD OR INTERRUPT^
 44847						CLRBTH^
 44848	061330	700 04 0 00 267760 		CLRAPR
 44849	061331	700 14 0 00 031577 		CLRPI^
DFKAA PDP-10 KL10 BASIC INSTRUCTION DIAGNOSTIC (1) VER 0,2	MACRO %53B(1254)-4 11:50 11-Nov-24 Page 29-4
DFKAA8	MAC	13-Jan-89 10:22		BASIC PI SYSTEM TESTING

 44850					;CHECK THAT CONO DOES NOT CLEAR ACTIVE
 44851	061332	7 004 20 0 00 002040 		CONO	PI,CHNON+40	;TEST PIO CLR
 44852	061333	7 004 20 0 00 001000 		CONO	PI,CHNOFF	;MAYBE RESET OCCURED - BIT SHOULD STILL
 44853	061334	7 004 34 0 00 000040 		CONSO	PI,40		;BE SET
 44854						STOP^
 44855	061335	254 04 0 00 061336 		HALT	.+1		;INSTRUCTION FAILED REPLACE
 44856	061336	254 00 0 00 061337 		JRST	.+1		;WITH JRST BACK^
 44857						TGET^
 44858	061337	200 00 0 00 071350 		MOVE	TNUMB		;GET LAST PC STORED AND CHECK TO SEE
 44859	061340	302 00 0 00 061326 		CAIE	%X		;IF ITS WHERE WE REALLY SHOULD BE
 44860						STOP2^^
 44861	061341	254 04 0 00 061342 		HALT	.+1		;HALT IF WE SHOULDN'T BE HERE
 44862	061342	254 00 0 00 061343 		JRST	.+1		;WILD TRANSFER CAUSED THIS HALT.^
 44863					^
 44864
 44865	061343				BIGPI3:	PITEST	20^
 44866
 44867					;TEST SETTING OF CHANNEL FLOP
 44868
 44869						TSET^
 44870			061343			%X=.			;DEFINE %X TO SAVE
 44871	061343	201 00 0 00 061343 		MOVEI	%X		;SAVE THIS PC IN CASE OF WILD TRANSFER
 44872	061344	202 00 0 00 071350 		MOVEM	TNUMB#		;BECAUSE OF PC MOD OR INTERRUPT^
 44873	061345				..0030:	CLRBTH^
 44874	061345	700 04 0 00 267760 		CLRAPR
 44875	061346	700 14 0 00 031577 		CLRPI^
 44876	061347	7 004 20 0 00 002020 		CONO	PI,CHNON+20	;PION FAILED TO SET
 44877	061350	7 004 34 0 00 000020 		CONSO	PI,20
 44878						STOP^
 44879	061351	254 04 0 00 061352 		HALT	.+1		;INSTRUCTION FAILED REPLACE
 44880	061352	254 00 0 00 061353 		JRST	.+1		;WITH JRST BACK^
 44881						TBOTH^
 44882						TGET^
 44883	061353	200 00 0 00 071350 		MOVE	TNUMB		;GET LAST PC STORED AND CHECK TO SEE
 44884	061354	302 00 0 00 061343 		CAIE	%X		;IF ITS WHERE WE REALLY SHOULD BE
 44885						STOP2^^
 44886	061355	254 04 0 00 061356 		HALT	.+1		;HALT IF WE SHOULDN'T BE HERE
 44887	061356	254 00 0 00 061357 		JRST	.+1		;WILD TRANSFER CAUSED THIS HALT.^
 44888
 44889						TSET^^
 44890			061357			%X=.			;DEFINE %X TO SAVE
 44891	061357	201 00 0 00 061357 		MOVEI	%X		;SAVE THIS PC IN CASE OF WILD TRANSFER
 44892	061360	202 00 0 00 071350 		MOVEM	TNUMB#		;BECAUSE OF PC MOD OR INTERRUPT^
 44893						CLRBTH^
 44894	061361	700 04 0 00 267760 		CLRAPR
 44895	061362	700 14 0 00 031577 		CLRPI^
 44896					;TEST CLEARING OF CHANNEL FLOP
 44897	061363	7 004 20 0 00 002020 		CONO	PI,CHNON+20	;CHECK PIO CLR
 44898	061364	7 004 20 0 00 001020 		CONO	PI,CHNOFF+20	;TURN OFF CHANNELS
 44899	061365	7 004 30 0 00 000020 		CONSZ	PI,20		;CHECK WHY FLOP NOT CLEAR
 44900						STOP^
 44901	061366	254 04 0 00 061367 		HALT	.+1		;INSTRUCTION FAILED REPLACE
 44902	061367	254 00 0 00 061370 		JRST	.+1		;WITH JRST BACK^
 44903						TBOTH^
 44904						TGET^
DFKAA PDP-10 KL10 BASIC INSTRUCTION DIAGNOSTIC (1) VER 0,2	MACRO %53B(1254)-4 11:50 11-Nov-24 Page 29-5
DFKAA8	MAC	13-Jan-89 10:22		BASIC PI SYSTEM TESTING

 44905	061370	200 00 0 00 071350 		MOVE	TNUMB		;GET LAST PC STORED AND CHECK TO SEE
 44906	061371	302 00 0 00 061357 		CAIE	%X		;IF ITS WHERE WE REALLY SHOULD BE
 44907						STOP2^^
 44908	061372	254 04 0 00 061373 		HALT	.+1		;HALT IF WE SHOULDN'T BE HERE
 44909	061373	254 00 0 00 061374 		JRST	.+1		;WILD TRANSFER CAUSED THIS HALT.^
 44910
 44911						TSET^^
 44912			061374			%X=.			;DEFINE %X TO SAVE
 44913	061374	201 00 0 00 061374 		MOVEI	%X		;SAVE THIS PC IN CASE OF WILD TRANSFER
 44914	061375	202 00 0 00 071350 		MOVEM	TNUMB#		;BECAUSE OF PC MOD OR INTERRUPT^
 44915						CLRBTH^
 44916	061376	700 04 0 00 267760 		CLRAPR
 44917	061377	700 14 0 00 031577 		CLRPI^
 44918					;CHECK RESETING OF PI SYSTEM
 44919	061400	7 004 20 0 00 002020 		CONO	PI,CHNON+20	;CHECK THAT PI RESET CLEARS
 44920	061401	7 004 20 0 00 010000 		CONO	PI,PICLR	;PI SYSTEM
 44921	061402	7 004 30 0 00 000020 		CONSZ	PI,20
 44922						STOP^
 44923	061403	254 04 0 00 061404 		HALT	.+1		;INSTRUCTION FAILED REPLACE
 44924	061404	254 00 0 00 061405 		JRST	.+1		;WITH JRST BACK^
 44925						TBOTH^
 44926						TGET^
 44927	061405	200 00 0 00 071350 		MOVE	TNUMB		;GET LAST PC STORED AND CHECK TO SEE
 44928	061406	302 00 0 00 061374 		CAIE	%X		;IF ITS WHERE WE REALLY SHOULD BE
 44929						STOP2^^
 44930	061407	254 04 0 00 061410 		HALT	.+1		;HALT IF WE SHOULDN'T BE HERE
 44931	061410	254 00 0 00 061411 		JRST	.+1		;WILD TRANSFER CAUSED THIS HALT.^
 44932
 44933						TSET^^
 44934			061411			%X=.			;DEFINE %X TO SAVE
 44935	061411	201 00 0 00 061411 		MOVEI	%X		;SAVE THIS PC IN CASE OF WILD TRANSFER
 44936	061412	202 00 0 00 071350 		MOVEM	TNUMB#		;BECAUSE OF PC MOD OR INTERRUPT^
 44937						CLRBTH^
 44938	061413	700 04 0 00 267760 		CLRAPR
 44939	061414	700 14 0 00 031577 		CLRPI^
 44940					;TEST THAT CONO ONLY SETS PION
 44941	061415	7 004 20 0 00 002000 		CONO	PI,CHNON	;TEST PIO SET
 44942	061416	7 004 30 0 00 000020 		CONSZ	PI,20		;CHECK WHY CONO SET FLAGS WHITHOUT AN IOB BIT
 44943						STOP^
 44944	061417	254 04 0 00 061420 		HALT	.+1		;INSTRUCTION FAILED REPLACE
 44945	061420	254 00 0 00 061421 		JRST	.+1		;WITH JRST BACK^
 44946						TBOTH^
 44947						TGET^
 44948	061421	200 00 0 00 071350 		MOVE	TNUMB		;GET LAST PC STORED AND CHECK TO SEE
 44949	061422	302 00 0 00 061411 		CAIE	%X		;IF ITS WHERE WE REALLY SHOULD BE
 44950						STOP2^^
 44951	061423	254 04 0 00 061424 		HALT	.+1		;HALT IF WE SHOULDN'T BE HERE
 44952	061424	254 00 0 00 061425 		JRST	.+1		;WILD TRANSFER CAUSED THIS HALT.^
 44953
 44954						TSET^^
 44955			061425			%X=.			;DEFINE %X TO SAVE
 44956	061425	201 00 0 00 061425 		MOVEI	%X		;SAVE THIS PC IN CASE OF WILD TRANSFER
 44957	061426	202 00 0 00 071350 		MOVEM	TNUMB#		;BECAUSE OF PC MOD OR INTERRUPT^
 44958						CLRBTH^
 44959	061427	700 04 0 00 267760 		CLRAPR
DFKAA PDP-10 KL10 BASIC INSTRUCTION DIAGNOSTIC (1) VER 0,2	MACRO %53B(1254)-4 11:50 11-Nov-24 Page 29-6
DFKAA8	MAC	13-Jan-89 10:22		BASIC PI SYSTEM TESTING

 44960	061430	700 14 0 00 031577 		CLRPI^
 44961					;CHECK THAT CONO DOES NOT CLEAR ACTIVE
 44962	061431	7 004 20 0 00 002020 		CONO	PI,CHNON+20	;TEST PIO CLR
 44963	061432	7 004 20 0 00 001000 		CONO	PI,CHNOFF	;MAYBE RESET OCCURED - BIT SHOULD STILL
 44964	061433	7 004 34 0 00 000020 		CONSO	PI,20		;BE SET
 44965						STOP^
 44966	061434	254 04 0 00 061435 		HALT	.+1		;INSTRUCTION FAILED REPLACE
 44967	061435	254 00 0 00 061436 		JRST	.+1		;WITH JRST BACK^
 44968						TGET^
 44969	061436	200 00 0 00 071350 		MOVE	TNUMB		;GET LAST PC STORED AND CHECK TO SEE
 44970	061437	302 00 0 00 061425 		CAIE	%X		;IF ITS WHERE WE REALLY SHOULD BE
 44971						STOP2^^
 44972	061440	254 04 0 00 061441 		HALT	.+1		;HALT IF WE SHOULDN'T BE HERE
 44973	061441	254 00 0 00 061442 		JRST	.+1		;WILD TRANSFER CAUSED THIS HALT.^
 44974					^
 44975
 44976	061442				BIGPI4:	PITEST	10^
 44977
 44978					;TEST SETTING OF CHANNEL FLOP
 44979
 44980						TSET^
 44981			061442			%X=.			;DEFINE %X TO SAVE
 44982	061442	201 00 0 00 061442 		MOVEI	%X		;SAVE THIS PC IN CASE OF WILD TRANSFER
 44983	061443	202 00 0 00 071350 		MOVEM	TNUMB#		;BECAUSE OF PC MOD OR INTERRUPT^
 44984	061444				..0031:	CLRBTH^
 44985	061444	700 04 0 00 267760 		CLRAPR
 44986	061445	700 14 0 00 031577 		CLRPI^
 44987	061446	7 004 20 0 00 002010 		CONO	PI,CHNON+10	;PION FAILED TO SET
 44988	061447	7 004 34 0 00 000010 		CONSO	PI,10
 44989						STOP^
 44990	061450	254 04 0 00 061451 		HALT	.+1		;INSTRUCTION FAILED REPLACE
 44991	061451	254 00 0 00 061452 		JRST	.+1		;WITH JRST BACK^
 44992						TBOTH^
 44993						TGET^
 44994	061452	200 00 0 00 071350 		MOVE	TNUMB		;GET LAST PC STORED AND CHECK TO SEE
 44995	061453	302 00 0 00 061442 		CAIE	%X		;IF ITS WHERE WE REALLY SHOULD BE
 44996						STOP2^^
 44997	061454	254 04 0 00 061455 		HALT	.+1		;HALT IF WE SHOULDN'T BE HERE
 44998	061455	254 00 0 00 061456 		JRST	.+1		;WILD TRANSFER CAUSED THIS HALT.^
 44999
 45000						TSET^^
 45001			061456			%X=.			;DEFINE %X TO SAVE
 45002	061456	201 00 0 00 061456 		MOVEI	%X		;SAVE THIS PC IN CASE OF WILD TRANSFER
 45003	061457	202 00 0 00 071350 		MOVEM	TNUMB#		;BECAUSE OF PC MOD OR INTERRUPT^
 45004						CLRBTH^
 45005	061460	700 04 0 00 267760 		CLRAPR
 45006	061461	700 14 0 00 031577 		CLRPI^
 45007					;TEST CLEARING OF CHANNEL FLOP
 45008	061462	7 004 20 0 00 002010 		CONO	PI,CHNON+10	;CHECK PIO CLR
 45009	061463	7 004 20 0 00 001010 		CONO	PI,CHNOFF+10	;TURN OFF CHANNELS
 45010	061464	7 004 30 0 00 000010 		CONSZ	PI,10		;CHECK WHY FLOP NOT CLEAR
 45011						STOP^
 45012	061465	254 04 0 00 061466 		HALT	.+1		;INSTRUCTION FAILED REPLACE
 45013	061466	254 00 0 00 061467 		JRST	.+1		;WITH JRST BACK^
 45014						TBOTH^
DFKAA PDP-10 KL10 BASIC INSTRUCTION DIAGNOSTIC (1) VER 0,2	MACRO %53B(1254)-4 11:50 11-Nov-24 Page 29-7
DFKAA8	MAC	13-Jan-89 10:22		BASIC PI SYSTEM TESTING

 45015						TGET^
 45016	061467	200 00 0 00 071350 		MOVE	TNUMB		;GET LAST PC STORED AND CHECK TO SEE
 45017	061470	302 00 0 00 061456 		CAIE	%X		;IF ITS WHERE WE REALLY SHOULD BE
 45018						STOP2^^
 45019	061471	254 04 0 00 061472 		HALT	.+1		;HALT IF WE SHOULDN'T BE HERE
 45020	061472	254 00 0 00 061473 		JRST	.+1		;WILD TRANSFER CAUSED THIS HALT.^
 45021
 45022						TSET^^
 45023			061473			%X=.			;DEFINE %X TO SAVE
 45024	061473	201 00 0 00 061473 		MOVEI	%X		;SAVE THIS PC IN CASE OF WILD TRANSFER
 45025	061474	202 00 0 00 071350 		MOVEM	TNUMB#		;BECAUSE OF PC MOD OR INTERRUPT^
 45026						CLRBTH^
 45027	061475	700 04 0 00 267760 		CLRAPR
 45028	061476	700 14 0 00 031577 		CLRPI^
 45029					;CHECK RESETING OF PI SYSTEM
 45030	061477	7 004 20 0 00 002010 		CONO	PI,CHNON+10	;CHECK THAT PI RESET CLEARS
 45031	061500	7 004 20 0 00 010000 		CONO	PI,PICLR	;PI SYSTEM
 45032	061501	7 004 30 0 00 000010 		CONSZ	PI,10
 45033						STOP^
 45034	061502	254 04 0 00 061503 		HALT	.+1		;INSTRUCTION FAILED REPLACE
 45035	061503	254 00 0 00 061504 		JRST	.+1		;WITH JRST BACK^
 45036						TBOTH^
 45037						TGET^
 45038	061504	200 00 0 00 071350 		MOVE	TNUMB		;GET LAST PC STORED AND CHECK TO SEE
 45039	061505	302 00 0 00 061473 		CAIE	%X		;IF ITS WHERE WE REALLY SHOULD BE
 45040						STOP2^^
 45041	061506	254 04 0 00 061507 		HALT	.+1		;HALT IF WE SHOULDN'T BE HERE
 45042	061507	254 00 0 00 061510 		JRST	.+1		;WILD TRANSFER CAUSED THIS HALT.^
 45043
 45044						TSET^^
 45045			061510			%X=.			;DEFINE %X TO SAVE
 45046	061510	201 00 0 00 061510 		MOVEI	%X		;SAVE THIS PC IN CASE OF WILD TRANSFER
 45047	061511	202 00 0 00 071350 		MOVEM	TNUMB#		;BECAUSE OF PC MOD OR INTERRUPT^
 45048						CLRBTH^
 45049	061512	700 04 0 00 267760 		CLRAPR
 45050	061513	700 14 0 00 031577 		CLRPI^
 45051					;TEST THAT CONO ONLY SETS PION
 45052	061514	7 004 20 0 00 002000 		CONO	PI,CHNON	;TEST PIO SET
 45053	061515	7 004 30 0 00 000010 		CONSZ	PI,10		;CHECK WHY CONO SET FLAGS WHITHOUT AN IOB BIT
 45054						STOP^
 45055	061516	254 04 0 00 061517 		HALT	.+1		;INSTRUCTION FAILED REPLACE
 45056	061517	254 00 0 00 061520 		JRST	.+1		;WITH JRST BACK^
 45057						TBOTH^
 45058						TGET^
 45059	061520	200 00 0 00 071350 		MOVE	TNUMB		;GET LAST PC STORED AND CHECK TO SEE
 45060	061521	302 00 0 00 061510 		CAIE	%X		;IF ITS WHERE WE REALLY SHOULD BE
 45061						STOP2^^
 45062	061522	254 04 0 00 061523 		HALT	.+1		;HALT IF WE SHOULDN'T BE HERE
 45063	061523	254 00 0 00 061524 		JRST	.+1		;WILD TRANSFER CAUSED THIS HALT.^
 45064
 45065						TSET^^
 45066			061524			%X=.			;DEFINE %X TO SAVE
 45067	061524	201 00 0 00 061524 		MOVEI	%X		;SAVE THIS PC IN CASE OF WILD TRANSFER
 45068	061525	202 00 0 00 071350 		MOVEM	TNUMB#		;BECAUSE OF PC MOD OR INTERRUPT^
 45069						CLRBTH^
DFKAA PDP-10 KL10 BASIC INSTRUCTION DIAGNOSTIC (1) VER 0,2	MACRO %53B(1254)-4 11:50 11-Nov-24 Page 29-8
DFKAA8	MAC	13-Jan-89 10:22		BASIC PI SYSTEM TESTING

 45070	061526	700 04 0 00 267760 		CLRAPR
 45071	061527	700 14 0 00 031577 		CLRPI^
 45072					;CHECK THAT CONO DOES NOT CLEAR ACTIVE
 45073	061530	7 004 20 0 00 002010 		CONO	PI,CHNON+10	;TEST PIO CLR
 45074	061531	7 004 20 0 00 001000 		CONO	PI,CHNOFF	;MAYBE RESET OCCURED - BIT SHOULD STILL
 45075	061532	7 004 34 0 00 000010 		CONSO	PI,10		;BE SET
 45076						STOP^
 45077	061533	254 04 0 00 061534 		HALT	.+1		;INSTRUCTION FAILED REPLACE
 45078	061534	254 00 0 00 061535 		JRST	.+1		;WITH JRST BACK^
 45079						TGET^
 45080	061535	200 00 0 00 071350 		MOVE	TNUMB		;GET LAST PC STORED AND CHECK TO SEE
 45081	061536	302 00 0 00 061524 		CAIE	%X		;IF ITS WHERE WE REALLY SHOULD BE
 45082						STOP2^^
 45083	061537	254 04 0 00 061540 		HALT	.+1		;HALT IF WE SHOULDN'T BE HERE
 45084	061540	254 00 0 00 061541 		JRST	.+1		;WILD TRANSFER CAUSED THIS HALT.^
 45085					^
 45086
 45087	061541				BIGPI5:	PITEST	4^
 45088
 45089					;TEST SETTING OF CHANNEL FLOP
 45090
 45091						TSET^
 45092			061541			%X=.			;DEFINE %X TO SAVE
 45093	061541	201 00 0 00 061541 		MOVEI	%X		;SAVE THIS PC IN CASE OF WILD TRANSFER
 45094	061542	202 00 0 00 071350 		MOVEM	TNUMB#		;BECAUSE OF PC MOD OR INTERRUPT^
 45095	061543				..0032:	CLRBTH^
 45096	061543	700 04 0 00 267760 		CLRAPR
 45097	061544	700 14 0 00 031577 		CLRPI^
 45098	061545	7 004 20 0 00 002004 		CONO	PI,CHNON+4	;PION FAILED TO SET
 45099	061546	7 004 34 0 00 000004 		CONSO	PI,4
 45100						STOP^
 45101	061547	254 04 0 00 061550 		HALT	.+1		;INSTRUCTION FAILED REPLACE
 45102	061550	254 00 0 00 061551 		JRST	.+1		;WITH JRST BACK^
 45103						TBOTH^
 45104						TGET^
 45105	061551	200 00 0 00 071350 		MOVE	TNUMB		;GET LAST PC STORED AND CHECK TO SEE
 45106	061552	302 00 0 00 061541 		CAIE	%X		;IF ITS WHERE WE REALLY SHOULD BE
 45107						STOP2^^
 45108	061553	254 04 0 00 061554 		HALT	.+1		;HALT IF WE SHOULDN'T BE HERE
 45109	061554	254 00 0 00 061555 		JRST	.+1		;WILD TRANSFER CAUSED THIS HALT.^
 45110
 45111						TSET^^
 45112			061555			%X=.			;DEFINE %X TO SAVE
 45113	061555	201 00 0 00 061555 		MOVEI	%X		;SAVE THIS PC IN CASE OF WILD TRANSFER
 45114	061556	202 00 0 00 071350 		MOVEM	TNUMB#		;BECAUSE OF PC MOD OR INTERRUPT^
 45115						CLRBTH^
 45116	061557	700 04 0 00 267760 		CLRAPR
 45117	061560	700 14 0 00 031577 		CLRPI^
 45118					;TEST CLEARING OF CHANNEL FLOP
 45119	061561	7 004 20 0 00 002004 		CONO	PI,CHNON+4	;CHECK PIO CLR
 45120	061562	7 004 20 0 00 001004 		CONO	PI,CHNOFF+4	;TURN OFF CHANNELS
 45121	061563	7 004 30 0 00 000004 		CONSZ	PI,4		;CHECK WHY FLOP NOT CLEAR
 45122						STOP^
 45123	061564	254 04 0 00 061565 		HALT	.+1		;INSTRUCTION FAILED REPLACE
 45124	061565	254 00 0 00 061566 		JRST	.+1		;WITH JRST BACK^
DFKAA PDP-10 KL10 BASIC INSTRUCTION DIAGNOSTIC (1) VER 0,2	MACRO %53B(1254)-4 11:50 11-Nov-24 Page 29-9
DFKAA8	MAC	13-Jan-89 10:22		BASIC PI SYSTEM TESTING

 45125						TBOTH^
 45126						TGET^
 45127	061566	200 00 0 00 071350 		MOVE	TNUMB		;GET LAST PC STORED AND CHECK TO SEE
 45128	061567	302 00 0 00 061555 		CAIE	%X		;IF ITS WHERE WE REALLY SHOULD BE
 45129						STOP2^^
 45130	061570	254 04 0 00 061571 		HALT	.+1		;HALT IF WE SHOULDN'T BE HERE
 45131	061571	254 00 0 00 061572 		JRST	.+1		;WILD TRANSFER CAUSED THIS HALT.^
 45132
 45133						TSET^^
 45134			061572			%X=.			;DEFINE %X TO SAVE
 45135	061572	201 00 0 00 061572 		MOVEI	%X		;SAVE THIS PC IN CASE OF WILD TRANSFER
 45136	061573	202 00 0 00 071350 		MOVEM	TNUMB#		;BECAUSE OF PC MOD OR INTERRUPT^
 45137						CLRBTH^
 45138	061574	700 04 0 00 267760 		CLRAPR
 45139	061575	700 14 0 00 031577 		CLRPI^
 45140					;CHECK RESETING OF PI SYSTEM
 45141	061576	7 004 20 0 00 002004 		CONO	PI,CHNON+4	;CHECK THAT PI RESET CLEARS
 45142	061577	7 004 20 0 00 010000 		CONO	PI,PICLR	;PI SYSTEM
 45143	061600	7 004 30 0 00 000004 		CONSZ	PI,4
 45144						STOP^
 45145	061601	254 04 0 00 061602 		HALT	.+1		;INSTRUCTION FAILED REPLACE
 45146	061602	254 00 0 00 061603 		JRST	.+1		;WITH JRST BACK^
 45147						TBOTH^
 45148						TGET^
 45149	061603	200 00 0 00 071350 		MOVE	TNUMB		;GET LAST PC STORED AND CHECK TO SEE
 45150	061604	302 00 0 00 061572 		CAIE	%X		;IF ITS WHERE WE REALLY SHOULD BE
 45151						STOP2^^
 45152	061605	254 04 0 00 061606 		HALT	.+1		;HALT IF WE SHOULDN'T BE HERE
 45153	061606	254 00 0 00 061607 		JRST	.+1		;WILD TRANSFER CAUSED THIS HALT.^
 45154
 45155						TSET^^
 45156			061607			%X=.			;DEFINE %X TO SAVE
 45157	061607	201 00 0 00 061607 		MOVEI	%X		;SAVE THIS PC IN CASE OF WILD TRANSFER
 45158	061610	202 00 0 00 071350 		MOVEM	TNUMB#		;BECAUSE OF PC MOD OR INTERRUPT^
 45159						CLRBTH^
 45160	061611	700 04 0 00 267760 		CLRAPR
 45161	061612	700 14 0 00 031577 		CLRPI^
 45162					;TEST THAT CONO ONLY SETS PION
 45163	061613	7 004 20 0 00 002000 		CONO	PI,CHNON	;TEST PIO SET
 45164	061614	7 004 30 0 00 000004 		CONSZ	PI,4		;CHECK WHY CONO SET FLAGS WHITHOUT AN IOB BIT
 45165						STOP^
 45166	061615	254 04 0 00 061616 		HALT	.+1		;INSTRUCTION FAILED REPLACE
 45167	061616	254 00 0 00 061617 		JRST	.+1		;WITH JRST BACK^
 45168						TBOTH^
 45169						TGET^
 45170	061617	200 00 0 00 071350 		MOVE	TNUMB		;GET LAST PC STORED AND CHECK TO SEE
 45171	061620	302 00 0 00 061607 		CAIE	%X		;IF ITS WHERE WE REALLY SHOULD BE
 45172						STOP2^^
 45173	061621	254 04 0 00 061622 		HALT	.+1		;HALT IF WE SHOULDN'T BE HERE
 45174	061622	254 00 0 00 061623 		JRST	.+1		;WILD TRANSFER CAUSED THIS HALT.^
 45175
 45176						TSET^^
 45177			061623			%X=.			;DEFINE %X TO SAVE
 45178	061623	201 00 0 00 061623 		MOVEI	%X		;SAVE THIS PC IN CASE OF WILD TRANSFER
 45179	061624	202 00 0 00 071350 		MOVEM	TNUMB#		;BECAUSE OF PC MOD OR INTERRUPT^
DFKAA PDP-10 KL10 BASIC INSTRUCTION DIAGNOSTIC (1) VER 0,2	MACRO %53B(1254)-4 11:50 11-Nov-24 Page 29-10
DFKAA8	MAC	13-Jan-89 10:22		BASIC PI SYSTEM TESTING

 45180						CLRBTH^
 45181	061625	700 04 0 00 267760 		CLRAPR
 45182	061626	700 14 0 00 031577 		CLRPI^
 45183					;CHECK THAT CONO DOES NOT CLEAR ACTIVE
 45184	061627	7 004 20 0 00 002004 		CONO	PI,CHNON+4	;TEST PIO CLR
 45185	061630	7 004 20 0 00 001000 		CONO	PI,CHNOFF	;MAYBE RESET OCCURED - BIT SHOULD STILL
 45186	061631	7 004 34 0 00 000004 		CONSO	PI,4		;BE SET
 45187						STOP^
 45188	061632	254 04 0 00 061633 		HALT	.+1		;INSTRUCTION FAILED REPLACE
 45189	061633	254 00 0 00 061634 		JRST	.+1		;WITH JRST BACK^
 45190						TGET^
 45191	061634	200 00 0 00 071350 		MOVE	TNUMB		;GET LAST PC STORED AND CHECK TO SEE
 45192	061635	302 00 0 00 061623 		CAIE	%X		;IF ITS WHERE WE REALLY SHOULD BE
 45193						STOP2^^
 45194	061636	254 04 0 00 061637 		HALT	.+1		;HALT IF WE SHOULDN'T BE HERE
 45195	061637	254 00 0 00 061640 		JRST	.+1		;WILD TRANSFER CAUSED THIS HALT.^
 45196					^
 45197
 45198	061640				BIGPI6:	PITEST	2^
 45199
 45200					;TEST SETTING OF CHANNEL FLOP
 45201
 45202						TSET^
 45203			061640			%X=.			;DEFINE %X TO SAVE
 45204	061640	201 00 0 00 061640 		MOVEI	%X		;SAVE THIS PC IN CASE OF WILD TRANSFER
 45205	061641	202 00 0 00 071350 		MOVEM	TNUMB#		;BECAUSE OF PC MOD OR INTERRUPT^
 45206	061642				..0033:	CLRBTH^
 45207	061642	700 04 0 00 267760 		CLRAPR
 45208	061643	700 14 0 00 031577 		CLRPI^
 45209	061644	7 004 20 0 00 002002 		CONO	PI,CHNON+2	;PION FAILED TO SET
 45210	061645	7 004 34 0 00 000002 		CONSO	PI,2
 45211						STOP^
 45212	061646	254 04 0 00 061647 		HALT	.+1		;INSTRUCTION FAILED REPLACE
 45213	061647	254 00 0 00 061650 		JRST	.+1		;WITH JRST BACK^
 45214						TBOTH^
 45215						TGET^
 45216	061650	200 00 0 00 071350 		MOVE	TNUMB		;GET LAST PC STORED AND CHECK TO SEE
 45217	061651	302 00 0 00 061640 		CAIE	%X		;IF ITS WHERE WE REALLY SHOULD BE
 45218						STOP2^^
 45219	061652	254 04 0 00 061653 		HALT	.+1		;HALT IF WE SHOULDN'T BE HERE
 45220	061653	254 00 0 00 061654 		JRST	.+1		;WILD TRANSFER CAUSED THIS HALT.^
 45221
 45222						TSET^^
 45223			061654			%X=.			;DEFINE %X TO SAVE
 45224	061654	201 00 0 00 061654 		MOVEI	%X		;SAVE THIS PC IN CASE OF WILD TRANSFER
 45225	061655	202 00 0 00 071350 		MOVEM	TNUMB#		;BECAUSE OF PC MOD OR INTERRUPT^
 45226						CLRBTH^
 45227	061656	700 04 0 00 267760 		CLRAPR
 45228	061657	700 14 0 00 031577 		CLRPI^
 45229					;TEST CLEARING OF CHANNEL FLOP
 45230	061660	7 004 20 0 00 002002 		CONO	PI,CHNON+2	;CHECK PIO CLR
 45231	061661	7 004 20 0 00 001002 		CONO	PI,CHNOFF+2	;TURN OFF CHANNELS
 45232	061662	7 004 30 0 00 000002 		CONSZ	PI,2		;CHECK WHY FLOP NOT CLEAR
 45233						STOP^
 45234	061663	254 04 0 00 061664 		HALT	.+1		;INSTRUCTION FAILED REPLACE
DFKAA PDP-10 KL10 BASIC INSTRUCTION DIAGNOSTIC (1) VER 0,2	MACRO %53B(1254)-4 11:50 11-Nov-24 Page 29-11
DFKAA8	MAC	13-Jan-89 10:22		BASIC PI SYSTEM TESTING

 45235	061664	254 00 0 00 061665 		JRST	.+1		;WITH JRST BACK^
 45236						TBOTH^
 45237						TGET^
 45238	061665	200 00 0 00 071350 		MOVE	TNUMB		;GET LAST PC STORED AND CHECK TO SEE
 45239	061666	302 00 0 00 061654 		CAIE	%X		;IF ITS WHERE WE REALLY SHOULD BE
 45240						STOP2^^
 45241	061667	254 04 0 00 061670 		HALT	.+1		;HALT IF WE SHOULDN'T BE HERE
 45242	061670	254 00 0 00 061671 		JRST	.+1		;WILD TRANSFER CAUSED THIS HALT.^
 45243
 45244						TSET^^
 45245			061671			%X=.			;DEFINE %X TO SAVE
 45246	061671	201 00 0 00 061671 		MOVEI	%X		;SAVE THIS PC IN CASE OF WILD TRANSFER
 45247	061672	202 00 0 00 071350 		MOVEM	TNUMB#		;BECAUSE OF PC MOD OR INTERRUPT^
 45248						CLRBTH^
 45249	061673	700 04 0 00 267760 		CLRAPR
 45250	061674	700 14 0 00 031577 		CLRPI^
 45251					;CHECK RESETING OF PI SYSTEM
 45252	061675	7 004 20 0 00 002002 		CONO	PI,CHNON+2	;CHECK THAT PI RESET CLEARS
 45253	061676	7 004 20 0 00 010000 		CONO	PI,PICLR	;PI SYSTEM
 45254	061677	7 004 30 0 00 000002 		CONSZ	PI,2
 45255						STOP^
 45256	061700	254 04 0 00 061701 		HALT	.+1		;INSTRUCTION FAILED REPLACE
 45257	061701	254 00 0 00 061702 		JRST	.+1		;WITH JRST BACK^
 45258						TBOTH^
 45259						TGET^
 45260	061702	200 00 0 00 071350 		MOVE	TNUMB		;GET LAST PC STORED AND CHECK TO SEE
 45261	061703	302 00 0 00 061671 		CAIE	%X		;IF ITS WHERE WE REALLY SHOULD BE
 45262						STOP2^^
 45263	061704	254 04 0 00 061705 		HALT	.+1		;HALT IF WE SHOULDN'T BE HERE
 45264	061705	254 00 0 00 061706 		JRST	.+1		;WILD TRANSFER CAUSED THIS HALT.^
 45265
 45266						TSET^^
 45267			061706			%X=.			;DEFINE %X TO SAVE
 45268	061706	201 00 0 00 061706 		MOVEI	%X		;SAVE THIS PC IN CASE OF WILD TRANSFER
 45269	061707	202 00 0 00 071350 		MOVEM	TNUMB#		;BECAUSE OF PC MOD OR INTERRUPT^
 45270						CLRBTH^
 45271	061710	700 04 0 00 267760 		CLRAPR
 45272	061711	700 14 0 00 031577 		CLRPI^
 45273					;TEST THAT CONO ONLY SETS PION
 45274	061712	7 004 20 0 00 002000 		CONO	PI,CHNON	;TEST PIO SET
 45275	061713	7 004 30 0 00 000002 		CONSZ	PI,2		;CHECK WHY CONO SET FLAGS WHITHOUT AN IOB BIT
 45276						STOP^
 45277	061714	254 04 0 00 061715 		HALT	.+1		;INSTRUCTION FAILED REPLACE
 45278	061715	254 00 0 00 061716 		JRST	.+1		;WITH JRST BACK^
 45279						TBOTH^
 45280						TGET^
 45281	061716	200 00 0 00 071350 		MOVE	TNUMB		;GET LAST PC STORED AND CHECK TO SEE
 45282	061717	302 00 0 00 061706 		CAIE	%X		;IF ITS WHERE WE REALLY SHOULD BE
 45283						STOP2^^
 45284	061720	254 04 0 00 061721 		HALT	.+1		;HALT IF WE SHOULDN'T BE HERE
 45285	061721	254 00 0 00 061722 		JRST	.+1		;WILD TRANSFER CAUSED THIS HALT.^
 45286
 45287						TSET^^
 45288			061722			%X=.			;DEFINE %X TO SAVE
 45289	061722	201 00 0 00 061722 		MOVEI	%X		;SAVE THIS PC IN CASE OF WILD TRANSFER
DFKAA PDP-10 KL10 BASIC INSTRUCTION DIAGNOSTIC (1) VER 0,2	MACRO %53B(1254)-4 11:50 11-Nov-24 Page 29-12
DFKAA8	MAC	13-Jan-89 10:22		BASIC PI SYSTEM TESTING

 45290	061723	202 00 0 00 071350 		MOVEM	TNUMB#		;BECAUSE OF PC MOD OR INTERRUPT^
 45291						CLRBTH^
 45292	061724	700 04 0 00 267760 		CLRAPR
 45293	061725	700 14 0 00 031577 		CLRPI^
 45294					;CHECK THAT CONO DOES NOT CLEAR ACTIVE
 45295	061726	7 004 20 0 00 002002 		CONO	PI,CHNON+2	;TEST PIO CLR
 45296	061727	7 004 20 0 00 001000 		CONO	PI,CHNOFF	;MAYBE RESET OCCURED - BIT SHOULD STILL
 45297	061730	7 004 34 0 00 000002 		CONSO	PI,2		;BE SET
 45298						STOP^
 45299	061731	254 04 0 00 061732 		HALT	.+1		;INSTRUCTION FAILED REPLACE
 45300	061732	254 00 0 00 061733 		JRST	.+1		;WITH JRST BACK^
 45301						TGET^
 45302	061733	200 00 0 00 071350 		MOVE	TNUMB		;GET LAST PC STORED AND CHECK TO SEE
 45303	061734	302 00 0 00 061722 		CAIE	%X		;IF ITS WHERE WE REALLY SHOULD BE
 45304						STOP2^^
 45305	061735	254 04 0 00 061736 		HALT	.+1		;HALT IF WE SHOULDN'T BE HERE
 45306	061736	254 00 0 00 061737 		JRST	.+1		;WILD TRANSFER CAUSED THIS HALT.^
 45307					^
 45308
 45309	061737				BIGPI7:	PITEST	1^
 45310
 45311					;TEST SETTING OF CHANNEL FLOP
 45312
 45313						TSET^
 45314			061737			%X=.			;DEFINE %X TO SAVE
 45315	061737	201 00 0 00 061737 		MOVEI	%X		;SAVE THIS PC IN CASE OF WILD TRANSFER
 45316	061740	202 00 0 00 071350 		MOVEM	TNUMB#		;BECAUSE OF PC MOD OR INTERRUPT^
 45317	061741				..0034:	CLRBTH^
 45318	061741	700 04 0 00 267760 		CLRAPR
 45319	061742	700 14 0 00 031577 		CLRPI^
 45320	061743	7 004 20 0 00 002001 		CONO	PI,CHNON+1	;PION FAILED TO SET
 45321	061744	7 004 34 0 00 000001 		CONSO	PI,1
 45322						STOP^
 45323	061745	254 04 0 00 061746 		HALT	.+1		;INSTRUCTION FAILED REPLACE
 45324	061746	254 00 0 00 061747 		JRST	.+1		;WITH JRST BACK^
 45325						TBOTH^
 45326						TGET^
 45327	061747	200 00 0 00 071350 		MOVE	TNUMB		;GET LAST PC STORED AND CHECK TO SEE
 45328	061750	302 00 0 00 061737 		CAIE	%X		;IF ITS WHERE WE REALLY SHOULD BE
 45329						STOP2^^
 45330	061751	254 04 0 00 061752 		HALT	.+1		;HALT IF WE SHOULDN'T BE HERE
 45331	061752	254 00 0 00 061753 		JRST	.+1		;WILD TRANSFER CAUSED THIS HALT.^
 45332
 45333						TSET^^
 45334			061753			%X=.			;DEFINE %X TO SAVE
 45335	061753	201 00 0 00 061753 		MOVEI	%X		;SAVE THIS PC IN CASE OF WILD TRANSFER
 45336	061754	202 00 0 00 071350 		MOVEM	TNUMB#		;BECAUSE OF PC MOD OR INTERRUPT^
 45337						CLRBTH^
 45338	061755	700 04 0 00 267760 		CLRAPR
 45339	061756	700 14 0 00 031577 		CLRPI^
 45340					;TEST CLEARING OF CHANNEL FLOP
 45341	061757	7 004 20 0 00 002001 		CONO	PI,CHNON+1	;CHECK PIO CLR
 45342	061760	7 004 20 0 00 001001 		CONO	PI,CHNOFF+1	;TURN OFF CHANNELS
 45343	061761	7 004 30 0 00 000001 		CONSZ	PI,1		;CHECK WHY FLOP NOT CLEAR
 45344						STOP^
DFKAA PDP-10 KL10 BASIC INSTRUCTION DIAGNOSTIC (1) VER 0,2	MACRO %53B(1254)-4 11:50 11-Nov-24 Page 29-13
DFKAA8	MAC	13-Jan-89 10:22		BASIC PI SYSTEM TESTING

 45345	061762	254 04 0 00 061763 		HALT	.+1		;INSTRUCTION FAILED REPLACE
 45346	061763	254 00 0 00 061764 		JRST	.+1		;WITH JRST BACK^
 45347						TBOTH^
 45348						TGET^
 45349	061764	200 00 0 00 071350 		MOVE	TNUMB		;GET LAST PC STORED AND CHECK TO SEE
 45350	061765	302 00 0 00 061753 		CAIE	%X		;IF ITS WHERE WE REALLY SHOULD BE
 45351						STOP2^^
 45352	061766	254 04 0 00 061767 		HALT	.+1		;HALT IF WE SHOULDN'T BE HERE
 45353	061767	254 00 0 00 061770 		JRST	.+1		;WILD TRANSFER CAUSED THIS HALT.^
 45354
 45355						TSET^^
 45356			061770			%X=.			;DEFINE %X TO SAVE
 45357	061770	201 00 0 00 061770 		MOVEI	%X		;SAVE THIS PC IN CASE OF WILD TRANSFER
 45358	061771	202 00 0 00 071350 		MOVEM	TNUMB#		;BECAUSE OF PC MOD OR INTERRUPT^
 45359						CLRBTH^
 45360	061772	700 04 0 00 267760 		CLRAPR
 45361	061773	700 14 0 00 031577 		CLRPI^
 45362					;CHECK RESETING OF PI SYSTEM
 45363	061774	7 004 20 0 00 002001 		CONO	PI,CHNON+1	;CHECK THAT PI RESET CLEARS
 45364	061775	7 004 20 0 00 010000 		CONO	PI,PICLR	;PI SYSTEM
 45365	061776	7 004 30 0 00 000001 		CONSZ	PI,1
 45366						STOP^
 45367	061777	254 04 0 00 062000 		HALT	.+1		;INSTRUCTION FAILED REPLACE
 45368	062000	254 00 0 00 062001 		JRST	.+1		;WITH JRST BACK^
 45369						TBOTH^
 45370						TGET^
 45371	062001	200 00 0 00 071350 		MOVE	TNUMB		;GET LAST PC STORED AND CHECK TO SEE
 45372	062002	302 00 0 00 061770 		CAIE	%X		;IF ITS WHERE WE REALLY SHOULD BE
 45373						STOP2^^
 45374	062003	254 04 0 00 062004 		HALT	.+1		;HALT IF WE SHOULDN'T BE HERE
 45375	062004	254 00 0 00 062005 		JRST	.+1		;WILD TRANSFER CAUSED THIS HALT.^
 45376
 45377						TSET^^
 45378			062005			%X=.			;DEFINE %X TO SAVE
 45379	062005	201 00 0 00 062005 		MOVEI	%X		;SAVE THIS PC IN CASE OF WILD TRANSFER
 45380	062006	202 00 0 00 071350 		MOVEM	TNUMB#		;BECAUSE OF PC MOD OR INTERRUPT^
 45381						CLRBTH^
 45382	062007	700 04 0 00 267760 		CLRAPR
 45383	062010	700 14 0 00 031577 		CLRPI^
 45384					;TEST THAT CONO ONLY SETS PION
 45385	062011	7 004 20 0 00 002000 		CONO	PI,CHNON	;TEST PIO SET
 45386	062012	7 004 30 0 00 000001 		CONSZ	PI,1		;CHECK WHY CONO SET FLAGS WHITHOUT AN IOB BIT
 45387						STOP^
 45388	062013	254 04 0 00 062014 		HALT	.+1		;INSTRUCTION FAILED REPLACE
 45389	062014	254 00 0 00 062015 		JRST	.+1		;WITH JRST BACK^
 45390						TBOTH^
 45391						TGET^
 45392	062015	200 00 0 00 071350 		MOVE	TNUMB		;GET LAST PC STORED AND CHECK TO SEE
 45393	062016	302 00 0 00 062005 		CAIE	%X		;IF ITS WHERE WE REALLY SHOULD BE
 45394						STOP2^^
 45395	062017	254 04 0 00 062020 		HALT	.+1		;HALT IF WE SHOULDN'T BE HERE
 45396	062020	254 00 0 00 062021 		JRST	.+1		;WILD TRANSFER CAUSED THIS HALT.^
 45397
 45398						TSET^^
 45399			062021			%X=.			;DEFINE %X TO SAVE
DFKAA PDP-10 KL10 BASIC INSTRUCTION DIAGNOSTIC (1) VER 0,2	MACRO %53B(1254)-4 11:50 11-Nov-24 Page 29-14
DFKAA8	MAC	13-Jan-89 10:22		BASIC PI SYSTEM TESTING

 45400	062021	201 00 0 00 062021 		MOVEI	%X		;SAVE THIS PC IN CASE OF WILD TRANSFER
 45401	062022	202 00 0 00 071350 		MOVEM	TNUMB#		;BECAUSE OF PC MOD OR INTERRUPT^
 45402						CLRBTH^
 45403	062023	700 04 0 00 267760 		CLRAPR
 45404	062024	700 14 0 00 031577 		CLRPI^
 45405					;CHECK THAT CONO DOES NOT CLEAR ACTIVE
 45406	062025	7 004 20 0 00 002001 		CONO	PI,CHNON+1	;TEST PIO CLR
 45407	062026	7 004 20 0 00 001000 		CONO	PI,CHNOFF	;MAYBE RESET OCCURED - BIT SHOULD STILL
 45408	062027	7 004 34 0 00 000001 		CONSO	PI,1		;BE SET
 45409						STOP^
 45410	062030	254 04 0 00 062031 		HALT	.+1		;INSTRUCTION FAILED REPLACE
 45411	062031	254 00 0 00 062032 		JRST	.+1		;WITH JRST BACK^
 45412						TGET^
 45413	062032	200 00 0 00 071350 		MOVE	TNUMB		;GET LAST PC STORED AND CHECK TO SEE
 45414	062033	302 00 0 00 062021 		CAIE	%X		;IF ITS WHERE WE REALLY SHOULD BE
 45415						STOP2^^
 45416	062034	254 04 0 00 062035 		HALT	.+1		;HALT IF WE SHOULDN'T BE HERE
 45417	062035	254 00 0 00 062036 		JRST	.+1		;WILD TRANSFER CAUSED THIS HALT.^
 45418					^
 45419
 45420	062036				BIGPIX:	PITEST	177^
 45421
 45422					;TEST SETTING OF CHANNEL FLOP
 45423
 45424						TSET^
 45425			062036			%X=.			;DEFINE %X TO SAVE
 45426	062036	201 00 0 00 062036 		MOVEI	%X		;SAVE THIS PC IN CASE OF WILD TRANSFER
 45427	062037	202 00 0 00 071350 		MOVEM	TNUMB#		;BECAUSE OF PC MOD OR INTERRUPT^
 45428	062040				..0035:	CLRBTH^
 45429	062040	700 04 0 00 267760 		CLRAPR
 45430	062041	700 14 0 00 031577 		CLRPI^
 45431	062042	7 004 20 0 00 002177 		CONO	PI,CHNON+177	;PION FAILED TO SET
 45432	062043	7 004 34 0 00 000177 		CONSO	PI,177
 45433						STOP^
 45434	062044	254 04 0 00 062045 		HALT	.+1		;INSTRUCTION FAILED REPLACE
 45435	062045	254 00 0 00 062046 		JRST	.+1		;WITH JRST BACK^
 45436						TBOTH^
 45437						TGET^
 45438	062046	200 00 0 00 071350 		MOVE	TNUMB		;GET LAST PC STORED AND CHECK TO SEE
 45439	062047	302 00 0 00 062036 		CAIE	%X		;IF ITS WHERE WE REALLY SHOULD BE
 45440						STOP2^^
 45441	062050	254 04 0 00 062051 		HALT	.+1		;HALT IF WE SHOULDN'T BE HERE
 45442	062051	254 00 0 00 062052 		JRST	.+1		;WILD TRANSFER CAUSED THIS HALT.^
 45443
 45444						TSET^^
 45445			062052			%X=.			;DEFINE %X TO SAVE
 45446	062052	201 00 0 00 062052 		MOVEI	%X		;SAVE THIS PC IN CASE OF WILD TRANSFER
 45447	062053	202 00 0 00 071350 		MOVEM	TNUMB#		;BECAUSE OF PC MOD OR INTERRUPT^
 45448						CLRBTH^
 45449	062054	700 04 0 00 267760 		CLRAPR
 45450	062055	700 14 0 00 031577 		CLRPI^
 45451					;TEST CLEARING OF CHANNEL FLOP
 45452	062056	7 004 20 0 00 002177 		CONO	PI,CHNON+177	;CHECK PIO CLR
 45453	062057	7 004 20 0 00 001177 		CONO	PI,CHNOFF+177	;TURN OFF CHANNELS
 45454	062060	7 004 30 0 00 000177 		CONSZ	PI,177		;CHECK WHY FLOP NOT CLEAR
DFKAA PDP-10 KL10 BASIC INSTRUCTION DIAGNOSTIC (1) VER 0,2	MACRO %53B(1254)-4 11:50 11-Nov-24 Page 29-15
DFKAA8	MAC	13-Jan-89 10:22		BASIC PI SYSTEM TESTING

 45455						STOP^
 45456	062061	254 04 0 00 062062 		HALT	.+1		;INSTRUCTION FAILED REPLACE
 45457	062062	254 00 0 00 062063 		JRST	.+1		;WITH JRST BACK^
 45458						TBOTH^
 45459						TGET^
 45460	062063	200 00 0 00 071350 		MOVE	TNUMB		;GET LAST PC STORED AND CHECK TO SEE
 45461	062064	302 00 0 00 062052 		CAIE	%X		;IF ITS WHERE WE REALLY SHOULD BE
 45462						STOP2^^
 45463	062065	254 04 0 00 062066 		HALT	.+1		;HALT IF WE SHOULDN'T BE HERE
 45464	062066	254 00 0 00 062067 		JRST	.+1		;WILD TRANSFER CAUSED THIS HALT.^
 45465
 45466						TSET^^
 45467			062067			%X=.			;DEFINE %X TO SAVE
 45468	062067	201 00 0 00 062067 		MOVEI	%X		;SAVE THIS PC IN CASE OF WILD TRANSFER
 45469	062070	202 00 0 00 071350 		MOVEM	TNUMB#		;BECAUSE OF PC MOD OR INTERRUPT^
 45470						CLRBTH^
 45471	062071	700 04 0 00 267760 		CLRAPR
 45472	062072	700 14 0 00 031577 		CLRPI^
 45473					;CHECK RESETING OF PI SYSTEM
 45474	062073	7 004 20 0 00 002177 		CONO	PI,CHNON+177	;CHECK THAT PI RESET CLEARS
 45475	062074	7 004 20 0 00 010000 		CONO	PI,PICLR	;PI SYSTEM
 45476	062075	7 004 30 0 00 000177 		CONSZ	PI,177
 45477						STOP^
 45478	062076	254 04 0 00 062077 		HALT	.+1		;INSTRUCTION FAILED REPLACE
 45479	062077	254 00 0 00 062100 		JRST	.+1		;WITH JRST BACK^
 45480						TBOTH^
 45481						TGET^
 45482	062100	200 00 0 00 071350 		MOVE	TNUMB		;GET LAST PC STORED AND CHECK TO SEE
 45483	062101	302 00 0 00 062067 		CAIE	%X		;IF ITS WHERE WE REALLY SHOULD BE
 45484						STOP2^^
 45485	062102	254 04 0 00 062103 		HALT	.+1		;HALT IF WE SHOULDN'T BE HERE
 45486	062103	254 00 0 00 062104 		JRST	.+1		;WILD TRANSFER CAUSED THIS HALT.^
 45487
 45488						TSET^^
 45489			062104			%X=.			;DEFINE %X TO SAVE
 45490	062104	201 00 0 00 062104 		MOVEI	%X		;SAVE THIS PC IN CASE OF WILD TRANSFER
 45491	062105	202 00 0 00 071350 		MOVEM	TNUMB#		;BECAUSE OF PC MOD OR INTERRUPT^
 45492						CLRBTH^
 45493	062106	700 04 0 00 267760 		CLRAPR
 45494	062107	700 14 0 00 031577 		CLRPI^
 45495					;TEST THAT CONO ONLY SETS PION
 45496	062110	7 004 20 0 00 002000 		CONO	PI,CHNON	;TEST PIO SET
 45497	062111	7 004 30 0 00 000177 		CONSZ	PI,177		;CHECK WHY CONO SET FLAGS WHITHOUT AN IOB BIT
 45498						STOP^
 45499	062112	254 04 0 00 062113 		HALT	.+1		;INSTRUCTION FAILED REPLACE
 45500	062113	254 00 0 00 062114 		JRST	.+1		;WITH JRST BACK^
 45501						TBOTH^
 45502						TGET^
 45503	062114	200 00 0 00 071350 		MOVE	TNUMB		;GET LAST PC STORED AND CHECK TO SEE
 45504	062115	302 00 0 00 062104 		CAIE	%X		;IF ITS WHERE WE REALLY SHOULD BE
 45505						STOP2^^
 45506	062116	254 04 0 00 062117 		HALT	.+1		;HALT IF WE SHOULDN'T BE HERE
 45507	062117	254 00 0 00 062120 		JRST	.+1		;WILD TRANSFER CAUSED THIS HALT.^
 45508
 45509						TSET^^
DFKAA PDP-10 KL10 BASIC INSTRUCTION DIAGNOSTIC (1) VER 0,2	MACRO %53B(1254)-4 11:50 11-Nov-24 Page 29-16
DFKAA8	MAC	13-Jan-89 10:22		BASIC PI SYSTEM TESTING

 45510			062120			%X=.			;DEFINE %X TO SAVE
 45511	062120	201 00 0 00 062120 		MOVEI	%X		;SAVE THIS PC IN CASE OF WILD TRANSFER
 45512	062121	202 00 0 00 071350 		MOVEM	TNUMB#		;BECAUSE OF PC MOD OR INTERRUPT^
 45513						CLRBTH^
 45514	062122	700 04 0 00 267760 		CLRAPR
 45515	062123	700 14 0 00 031577 		CLRPI^
 45516					;CHECK THAT CONO DOES NOT CLEAR ACTIVE
 45517	062124	7 004 20 0 00 002177 		CONO	PI,CHNON+177	;TEST PIO CLR
 45518	062125	7 004 20 0 00 001000 		CONO	PI,CHNOFF	;MAYBE RESET OCCURED - BIT SHOULD STILL
 45519	062126	7 004 34 0 00 000177 		CONSO	PI,177		;BE SET
 45520						STOP^
 45521	062127	254 04 0 00 062130 		HALT	.+1		;INSTRUCTION FAILED REPLACE
 45522	062130	254 00 0 00 062131 		JRST	.+1		;WITH JRST BACK^
 45523						TGET^
 45524	062131	200 00 0 00 071350 		MOVE	TNUMB		;GET LAST PC STORED AND CHECK TO SEE
 45525	062132	302 00 0 00 062120 		CAIE	%X		;IF ITS WHERE WE REALLY SHOULD BE
 45526						STOP2^^
 45527	062133	254 04 0 00 062134 		HALT	.+1		;HALT IF WE SHOULDN'T BE HERE
 45528	062134	254 00 0 00 062135 		JRST	.+1		;WILD TRANSFER CAUSED THIS HALT.^
 45529					^
 45530
 45531	062135				BIGPIY:	PITEST	125^
 45532
 45533					;TEST SETTING OF CHANNEL FLOP
 45534
 45535						TSET^
 45536			062135			%X=.			;DEFINE %X TO SAVE
 45537	062135	201 00 0 00 062135 		MOVEI	%X		;SAVE THIS PC IN CASE OF WILD TRANSFER
 45538	062136	202 00 0 00 071350 		MOVEM	TNUMB#		;BECAUSE OF PC MOD OR INTERRUPT^
 45539	062137				..0036:	CLRBTH^
 45540	062137	700 04 0 00 267760 		CLRAPR
 45541	062140	700 14 0 00 031577 		CLRPI^
 45542	062141	7 004 20 0 00 002125 		CONO	PI,CHNON+125	;PION FAILED TO SET
 45543	062142	7 004 34 0 00 000125 		CONSO	PI,125
 45544						STOP^
 45545	062143	254 04 0 00 062144 		HALT	.+1		;INSTRUCTION FAILED REPLACE
 45546	062144	254 00 0 00 062145 		JRST	.+1		;WITH JRST BACK^
 45547						TBOTH^
 45548						TGET^
 45549	062145	200 00 0 00 071350 		MOVE	TNUMB		;GET LAST PC STORED AND CHECK TO SEE
 45550	062146	302 00 0 00 062135 		CAIE	%X		;IF ITS WHERE WE REALLY SHOULD BE
 45551						STOP2^^
 45552	062147	254 04 0 00 062150 		HALT	.+1		;HALT IF WE SHOULDN'T BE HERE
 45553	062150	254 00 0 00 062151 		JRST	.+1		;WILD TRANSFER CAUSED THIS HALT.^
 45554
 45555						TSET^^
 45556			062151			%X=.			;DEFINE %X TO SAVE
 45557	062151	201 00 0 00 062151 		MOVEI	%X		;SAVE THIS PC IN CASE OF WILD TRANSFER
 45558	062152	202 00 0 00 071350 		MOVEM	TNUMB#		;BECAUSE OF PC MOD OR INTERRUPT^
 45559						CLRBTH^
 45560	062153	700 04 0 00 267760 		CLRAPR
 45561	062154	700 14 0 00 031577 		CLRPI^
 45562					;TEST CLEARING OF CHANNEL FLOP
 45563	062155	7 004 20 0 00 002125 		CONO	PI,CHNON+125	;CHECK PIO CLR
 45564	062156	7 004 20 0 00 001125 		CONO	PI,CHNOFF+125	;TURN OFF CHANNELS
DFKAA PDP-10 KL10 BASIC INSTRUCTION DIAGNOSTIC (1) VER 0,2	MACRO %53B(1254)-4 11:50 11-Nov-24 Page 29-17
DFKAA8	MAC	13-Jan-89 10:22		BASIC PI SYSTEM TESTING

 45565	062157	7 004 30 0 00 000125 		CONSZ	PI,125		;CHECK WHY FLOP NOT CLEAR
 45566						STOP^
 45567	062160	254 04 0 00 062161 		HALT	.+1		;INSTRUCTION FAILED REPLACE
 45568	062161	254 00 0 00 062162 		JRST	.+1		;WITH JRST BACK^
 45569						TBOTH^
 45570						TGET^
 45571	062162	200 00 0 00 071350 		MOVE	TNUMB		;GET LAST PC STORED AND CHECK TO SEE
 45572	062163	302 00 0 00 062151 		CAIE	%X		;IF ITS WHERE WE REALLY SHOULD BE
 45573						STOP2^^
 45574	062164	254 04 0 00 062165 		HALT	.+1		;HALT IF WE SHOULDN'T BE HERE
 45575	062165	254 00 0 00 062166 		JRST	.+1		;WILD TRANSFER CAUSED THIS HALT.^
 45576
 45577						TSET^^
 45578			062166			%X=.			;DEFINE %X TO SAVE
 45579	062166	201 00 0 00 062166 		MOVEI	%X		;SAVE THIS PC IN CASE OF WILD TRANSFER
 45580	062167	202 00 0 00 071350 		MOVEM	TNUMB#		;BECAUSE OF PC MOD OR INTERRUPT^
 45581						CLRBTH^
 45582	062170	700 04 0 00 267760 		CLRAPR
 45583	062171	700 14 0 00 031577 		CLRPI^
 45584					;CHECK RESETING OF PI SYSTEM
 45585	062172	7 004 20 0 00 002125 		CONO	PI,CHNON+125	;CHECK THAT PI RESET CLEARS
 45586	062173	7 004 20 0 00 010000 		CONO	PI,PICLR	;PI SYSTEM
 45587	062174	7 004 30 0 00 000125 		CONSZ	PI,125
 45588						STOP^
 45589	062175	254 04 0 00 062176 		HALT	.+1		;INSTRUCTION FAILED REPLACE
 45590	062176	254 00 0 00 062177 		JRST	.+1		;WITH JRST BACK^
 45591						TBOTH^
 45592						TGET^
 45593	062177	200 00 0 00 071350 		MOVE	TNUMB		;GET LAST PC STORED AND CHECK TO SEE
 45594	062200	302 00 0 00 062166 		CAIE	%X		;IF ITS WHERE WE REALLY SHOULD BE
 45595						STOP2^^
 45596	062201	254 04 0 00 062202 		HALT	.+1		;HALT IF WE SHOULDN'T BE HERE
 45597	062202	254 00 0 00 062203 		JRST	.+1		;WILD TRANSFER CAUSED THIS HALT.^
 45598
 45599						TSET^^
 45600			062203			%X=.			;DEFINE %X TO SAVE
 45601	062203	201 00 0 00 062203 		MOVEI	%X		;SAVE THIS PC IN CASE OF WILD TRANSFER
 45602	062204	202 00 0 00 071350 		MOVEM	TNUMB#		;BECAUSE OF PC MOD OR INTERRUPT^
 45603						CLRBTH^
 45604	062205	700 04 0 00 267760 		CLRAPR
 45605	062206	700 14 0 00 031577 		CLRPI^
 45606					;TEST THAT CONO ONLY SETS PION
 45607	062207	7 004 20 0 00 002000 		CONO	PI,CHNON	;TEST PIO SET
 45608	062210	7 004 30 0 00 000125 		CONSZ	PI,125		;CHECK WHY CONO SET FLAGS WHITHOUT AN IOB BIT
 45609						STOP^
 45610	062211	254 04 0 00 062212 		HALT	.+1		;INSTRUCTION FAILED REPLACE
 45611	062212	254 00 0 00 062213 		JRST	.+1		;WITH JRST BACK^
 45612						TBOTH^
 45613						TGET^
 45614	062213	200 00 0 00 071350 		MOVE	TNUMB		;GET LAST PC STORED AND CHECK TO SEE
 45615	062214	302 00 0 00 062203 		CAIE	%X		;IF ITS WHERE WE REALLY SHOULD BE
 45616						STOP2^^
 45617	062215	254 04 0 00 062216 		HALT	.+1		;HALT IF WE SHOULDN'T BE HERE
 45618	062216	254 00 0 00 062217 		JRST	.+1		;WILD TRANSFER CAUSED THIS HALT.^
 45619
DFKAA PDP-10 KL10 BASIC INSTRUCTION DIAGNOSTIC (1) VER 0,2	MACRO %53B(1254)-4 11:50 11-Nov-24 Page 29-18
DFKAA8	MAC	13-Jan-89 10:22		BASIC PI SYSTEM TESTING

 45620						TSET^^
 45621			062217			%X=.			;DEFINE %X TO SAVE
 45622	062217	201 00 0 00 062217 		MOVEI	%X		;SAVE THIS PC IN CASE OF WILD TRANSFER
 45623	062220	202 00 0 00 071350 		MOVEM	TNUMB#		;BECAUSE OF PC MOD OR INTERRUPT^
 45624						CLRBTH^
 45625	062221	700 04 0 00 267760 		CLRAPR
 45626	062222	700 14 0 00 031577 		CLRPI^
 45627					;CHECK THAT CONO DOES NOT CLEAR ACTIVE
 45628	062223	7 004 20 0 00 002125 		CONO	PI,CHNON+125	;TEST PIO CLR
 45629	062224	7 004 20 0 00 001000 		CONO	PI,CHNOFF	;MAYBE RESET OCCURED - BIT SHOULD STILL
 45630	062225	7 004 34 0 00 000125 		CONSO	PI,125		;BE SET
 45631						STOP^
 45632	062226	254 04 0 00 062227 		HALT	.+1		;INSTRUCTION FAILED REPLACE
 45633	062227	254 00 0 00 062230 		JRST	.+1		;WITH JRST BACK^
 45634						TGET^
 45635	062230	200 00 0 00 071350 		MOVE	TNUMB		;GET LAST PC STORED AND CHECK TO SEE
 45636	062231	302 00 0 00 062217 		CAIE	%X		;IF ITS WHERE WE REALLY SHOULD BE
 45637						STOP2^^
 45638	062232	254 04 0 00 062233 		HALT	.+1		;HALT IF WE SHOULDN'T BE HERE
 45639	062233	254 00 0 00 062234 		JRST	.+1		;WILD TRANSFER CAUSED THIS HALT.^
 45640					^
 45641
 45642	062234				BIGPIZ:	PITEST	52^
 45643
 45644					;TEST SETTING OF CHANNEL FLOP
 45645
 45646						TSET^
 45647			062234			%X=.			;DEFINE %X TO SAVE
 45648	062234	201 00 0 00 062234 		MOVEI	%X		;SAVE THIS PC IN CASE OF WILD TRANSFER
 45649	062235	202 00 0 00 071350 		MOVEM	TNUMB#		;BECAUSE OF PC MOD OR INTERRUPT^
 45650	062236				..0037:	CLRBTH^
 45651	062236	700 04 0 00 267760 		CLRAPR
 45652	062237	700 14 0 00 031577 		CLRPI^
 45653	062240	7 004 20 0 00 002052 		CONO	PI,CHNON+52	;PION FAILED TO SET
 45654	062241	7 004 34 0 00 000052 		CONSO	PI,52
 45655						STOP^
 45656	062242	254 04 0 00 062243 		HALT	.+1		;INSTRUCTION FAILED REPLACE
 45657	062243	254 00 0 00 062244 		JRST	.+1		;WITH JRST BACK^
 45658						TBOTH^
 45659						TGET^
 45660	062244	200 00 0 00 071350 		MOVE	TNUMB		;GET LAST PC STORED AND CHECK TO SEE
 45661	062245	302 00 0 00 062234 		CAIE	%X		;IF ITS WHERE WE REALLY SHOULD BE
 45662						STOP2^^
 45663	062246	254 04 0 00 062247 		HALT	.+1		;HALT IF WE SHOULDN'T BE HERE
 45664	062247	254 00 0 00 062250 		JRST	.+1		;WILD TRANSFER CAUSED THIS HALT.^
 45665
 45666						TSET^^
 45667			062250			%X=.			;DEFINE %X TO SAVE
 45668	062250	201 00 0 00 062250 		MOVEI	%X		;SAVE THIS PC IN CASE OF WILD TRANSFER
 45669	062251	202 00 0 00 071350 		MOVEM	TNUMB#		;BECAUSE OF PC MOD OR INTERRUPT^
 45670						CLRBTH^
 45671	062252	700 04 0 00 267760 		CLRAPR
 45672	062253	700 14 0 00 031577 		CLRPI^
 45673					;TEST CLEARING OF CHANNEL FLOP
 45674	062254	7 004 20 0 00 002052 		CONO	PI,CHNON+52	;CHECK PIO CLR
DFKAA PDP-10 KL10 BASIC INSTRUCTION DIAGNOSTIC (1) VER 0,2	MACRO %53B(1254)-4 11:50 11-Nov-24 Page 29-19
DFKAA8	MAC	13-Jan-89 10:22		BASIC PI SYSTEM TESTING

 45675	062255	7 004 20 0 00 001052 		CONO	PI,CHNOFF+52	;TURN OFF CHANNELS
 45676	062256	7 004 30 0 00 000052 		CONSZ	PI,52		;CHECK WHY FLOP NOT CLEAR
 45677						STOP^
 45678	062257	254 04 0 00 062260 		HALT	.+1		;INSTRUCTION FAILED REPLACE
 45679	062260	254 00 0 00 062261 		JRST	.+1		;WITH JRST BACK^
 45680						TBOTH^
 45681						TGET^
 45682	062261	200 00 0 00 071350 		MOVE	TNUMB		;GET LAST PC STORED AND CHECK TO SEE
 45683	062262	302 00 0 00 062250 		CAIE	%X		;IF ITS WHERE WE REALLY SHOULD BE
 45684						STOP2^^
 45685	062263	254 04 0 00 062264 		HALT	.+1		;HALT IF WE SHOULDN'T BE HERE
 45686	062264	254 00 0 00 062265 		JRST	.+1		;WILD TRANSFER CAUSED THIS HALT.^
 45687
 45688						TSET^^
 45689			062265			%X=.			;DEFINE %X TO SAVE
 45690	062265	201 00 0 00 062265 		MOVEI	%X		;SAVE THIS PC IN CASE OF WILD TRANSFER
 45691	062266	202 00 0 00 071350 		MOVEM	TNUMB#		;BECAUSE OF PC MOD OR INTERRUPT^
 45692						CLRBTH^
 45693	062267	700 04 0 00 267760 		CLRAPR
 45694	062270	700 14 0 00 031577 		CLRPI^
 45695					;CHECK RESETING OF PI SYSTEM
 45696	062271	7 004 20 0 00 002052 		CONO	PI,CHNON+52	;CHECK THAT PI RESET CLEARS
 45697	062272	7 004 20 0 00 010000 		CONO	PI,PICLR	;PI SYSTEM
 45698	062273	7 004 30 0 00 000052 		CONSZ	PI,52
 45699						STOP^
 45700	062274	254 04 0 00 062275 		HALT	.+1		;INSTRUCTION FAILED REPLACE
 45701	062275	254 00 0 00 062276 		JRST	.+1		;WITH JRST BACK^
 45702						TBOTH^
 45703						TGET^
 45704	062276	200 00 0 00 071350 		MOVE	TNUMB		;GET LAST PC STORED AND CHECK TO SEE
 45705	062277	302 00 0 00 062265 		CAIE	%X		;IF ITS WHERE WE REALLY SHOULD BE
 45706						STOP2^^
 45707	062300	254 04 0 00 062301 		HALT	.+1		;HALT IF WE SHOULDN'T BE HERE
 45708	062301	254 00 0 00 062302 		JRST	.+1		;WILD TRANSFER CAUSED THIS HALT.^
 45709
 45710						TSET^^
 45711			062302			%X=.			;DEFINE %X TO SAVE
 45712	062302	201 00 0 00 062302 		MOVEI	%X		;SAVE THIS PC IN CASE OF WILD TRANSFER
 45713	062303	202 00 0 00 071350 		MOVEM	TNUMB#		;BECAUSE OF PC MOD OR INTERRUPT^
 45714						CLRBTH^
 45715	062304	700 04 0 00 267760 		CLRAPR
 45716	062305	700 14 0 00 031577 		CLRPI^
 45717					;TEST THAT CONO ONLY SETS PION
 45718	062306	7 004 20 0 00 002000 		CONO	PI,CHNON	;TEST PIO SET
 45719	062307	7 004 30 0 00 000052 		CONSZ	PI,52		;CHECK WHY CONO SET FLAGS WHITHOUT AN IOB BIT
 45720						STOP^
 45721	062310	254 04 0 00 062311 		HALT	.+1		;INSTRUCTION FAILED REPLACE
 45722	062311	254 00 0 00 062312 		JRST	.+1		;WITH JRST BACK^
 45723						TBOTH^
 45724						TGET^
 45725	062312	200 00 0 00 071350 		MOVE	TNUMB		;GET LAST PC STORED AND CHECK TO SEE
 45726	062313	302 00 0 00 062302 		CAIE	%X		;IF ITS WHERE WE REALLY SHOULD BE
 45727						STOP2^^
 45728	062314	254 04 0 00 062315 		HALT	.+1		;HALT IF WE SHOULDN'T BE HERE
 45729	062315	254 00 0 00 062316 		JRST	.+1		;WILD TRANSFER CAUSED THIS HALT.^
DFKAA PDP-10 KL10 BASIC INSTRUCTION DIAGNOSTIC (1) VER 0,2	MACRO %53B(1254)-4 11:50 11-Nov-24 Page 29-20
DFKAA8	MAC	13-Jan-89 10:22		BASIC PI SYSTEM TESTING

 45730
 45731						TSET^^
 45732			062316			%X=.			;DEFINE %X TO SAVE
 45733	062316	201 00 0 00 062316 		MOVEI	%X		;SAVE THIS PC IN CASE OF WILD TRANSFER
 45734	062317	202 00 0 00 071350 		MOVEM	TNUMB#		;BECAUSE OF PC MOD OR INTERRUPT^
 45735						CLRBTH^
 45736	062320	700 04 0 00 267760 		CLRAPR
 45737	062321	700 14 0 00 031577 		CLRPI^
 45738					;CHECK THAT CONO DOES NOT CLEAR ACTIVE
 45739	062322	7 004 20 0 00 002052 		CONO	PI,CHNON+52	;TEST PIO CLR
 45740	062323	7 004 20 0 00 001000 		CONO	PI,CHNOFF	;MAYBE RESET OCCURED - BIT SHOULD STILL
 45741	062324	7 004 34 0 00 000052 		CONSO	PI,52		;BE SET
 45742						STOP^
 45743	062325	254 04 0 00 062326 		HALT	.+1		;INSTRUCTION FAILED REPLACE
 45744	062326	254 00 0 00 062327 		JRST	.+1		;WITH JRST BACK^
 45745						TGET^
 45746	062327	200 00 0 00 071350 		MOVE	TNUMB		;GET LAST PC STORED AND CHECK TO SEE
 45747	062330	302 00 0 00 062316 		CAIE	%X		;IF ITS WHERE WE REALLY SHOULD BE
 45748						STOP2^^
 45749	062331	254 04 0 00 062332 		HALT	.+1		;HALT IF WE SHOULDN'T BE HERE
 45750	062332	254 00 0 00 062333 		JRST	.+1		;WILD TRANSFER CAUSED THIS HALT.^
 45751					^
 45752
 45753	062333	255 00 0 00 000000 		JFCL
DFKAA PDP-10 KL10 BASIC INSTRUCTION DIAGNOSTIC (1) VER 0,2	MACRO %53B(1254)-4 11:50 11-Nov-24 Page 30
DFKAA8	MAC	13-Jan-89 10:22		BASIC PI SYSTEM TESTING

 45754						BLURB^
 45755					;LOCATIONS 40-60 CONTAIN A JSP TO A ROUTINE WHICH STORES
 45756					;THE CHANNEL NUMBER OF THE INTERRUPT INTO 0
 45757					;THEREFORE IF AN INTERRUPT OCCURS THEN LOCATION
 45758					;ZERO WILL CONTAIN THE NUMBER OF THE INTERRUPT CHANNEL TRAP ADRESS
 45759					^
 45760					;CHECK THE SETTING AND CLEARING OF THE HOLD FLOPS
 45761
 45762
 45763	062334	264 00 0 00 070120 		TRPPI			;FILL INTERRUPT LOCATIONS WITH TRAPS
 45764			040000			X=40000
 45765			000100			Y=100
 45766					PIOT03:	REPEAT	7,<
 45767						PIHCLR	Y,X
 45768						X=X_-1
 45769						Y=Y_-1
 45770					>
 45771
 45772						PIHCLR	Y,X^
 45773
 45774					;CHECK THAT PICLR CLEARS THE HOLD FLOP
 45775
 45776						TSET^
 45777			062335			%X=.			;DEFINE %X TO SAVE
 45778	062335	201 00 0 00 062335 		MOVEI	%X		;SAVE THIS PC IN CASE OF WILD TRANSFER
 45779	062336	202 00 0 00 071350 		MOVEM	TNUMB#		;BECAUSE OF PC MOD OR INTERRUPT^
 45780	062337				..0040:	CLRBTH^
 45781	062337	700 04 0 00 267760 		CLRAPR
 45782	062340	700 14 0 00 031577 		CLRPI^
 45783	062341	7 004 20 0 00 004300 		CONO	PI,REQSET+PION+Y	;CAUSE INT. TO SET HOLD
 45784						WATINT^
 45785	062342	201 13 0 00 001000 		MOVEI	13,1000		;SET UP LOOP OF TEN TO WAIT FOR INT.
 45786	062343	367 13 0 00 062343 		SOJG	13,.		;AND WAIT^
 45787	062344	7 004 20 0 00 010000 		CONO	PI,PICLR	;THEN CLEAR VIA PI RESET
 45788	062345	7 004 30 0 00 040000 		CONSZ	PI,X		;HOLD FLOP FAILED TO CLEAR.
 45789						STOP^
 45790	062346	254 04 0 00 062347 		HALT	.+1		;INSTRUCTION FAILED REPLACE
 45791	062347	254 00 0 00 062350 		JRST	.+1		;WITH JRST BACK^
 45792						TGET^
 45793	062350	200 00 0 00 071350 		MOVE	TNUMB		;GET LAST PC STORED AND CHECK TO SEE
 45794	062351	302 00 0 00 062335 		CAIE	%X		;IF ITS WHERE WE REALLY SHOULD BE
 45795						STOP2^^
 45796	062352	254 04 0 00 062353 		HALT	.+1		;HALT IF WE SHOULDN'T BE HERE
 45797	062353	254 00 0 00 062354 		JRST	.+1		;WILD TRANSFER CAUSED THIS HALT.^
 45798					^
 45799			020000			X=X_-1
 45800			000040			Y=Y_-1
 45801
 45802
 45803						PIHCLR	Y,X^
 45804
 45805					;CHECK THAT PICLR CLEARS THE HOLD FLOP
 45806
 45807						TSET^
 45808			062354			%X=.			;DEFINE %X TO SAVE
DFKAA PDP-10 KL10 BASIC INSTRUCTION DIAGNOSTIC (1) VER 0,2	MACRO %53B(1254)-4 11:50 11-Nov-24 Page 30-1
DFKAA8	MAC	13-Jan-89 10:22		BASIC PI SYSTEM TESTING

 45809	062354	201 00 0 00 062354 		MOVEI	%X		;SAVE THIS PC IN CASE OF WILD TRANSFER
 45810	062355	202 00 0 00 071350 		MOVEM	TNUMB#		;BECAUSE OF PC MOD OR INTERRUPT^
 45811	062356				..0041:	CLRBTH^
 45812	062356	700 04 0 00 267760 		CLRAPR
 45813	062357	700 14 0 00 031577 		CLRPI^
 45814	062360	7 004 20 0 00 004240 		CONO	PI,REQSET+PION+Y	;CAUSE INT. TO SET HOLD
 45815						WATINT^
 45816	062361	201 13 0 00 001000 		MOVEI	13,1000		;SET UP LOOP OF TEN TO WAIT FOR INT.
 45817	062362	367 13 0 00 062362 		SOJG	13,.		;AND WAIT^
 45818	062363	7 004 20 0 00 010000 		CONO	PI,PICLR	;THEN CLEAR VIA PI RESET
 45819	062364	7 004 30 0 00 020000 		CONSZ	PI,X		;HOLD FLOP FAILED TO CLEAR.
 45820						STOP^
 45821	062365	254 04 0 00 062366 		HALT	.+1		;INSTRUCTION FAILED REPLACE
 45822	062366	254 00 0 00 062367 		JRST	.+1		;WITH JRST BACK^
 45823						TGET^
 45824	062367	200 00 0 00 071350 		MOVE	TNUMB		;GET LAST PC STORED AND CHECK TO SEE
 45825	062370	302 00 0 00 062354 		CAIE	%X		;IF ITS WHERE WE REALLY SHOULD BE
 45826						STOP2^^
 45827	062371	254 04 0 00 062372 		HALT	.+1		;HALT IF WE SHOULDN'T BE HERE
 45828	062372	254 00 0 00 062373 		JRST	.+1		;WILD TRANSFER CAUSED THIS HALT.^
 45829					^
 45830			010000			X=X_-1
 45831			000020			Y=Y_-1
 45832
 45833
 45834						PIHCLR	Y,X^
 45835
 45836					;CHECK THAT PICLR CLEARS THE HOLD FLOP
 45837
 45838						TSET^
 45839			062373			%X=.			;DEFINE %X TO SAVE
 45840	062373	201 00 0 00 062373 		MOVEI	%X		;SAVE THIS PC IN CASE OF WILD TRANSFER
 45841	062374	202 00 0 00 071350 		MOVEM	TNUMB#		;BECAUSE OF PC MOD OR INTERRUPT^
 45842	062375				..0042:	CLRBTH^
 45843	062375	700 04 0 00 267760 		CLRAPR
 45844	062376	700 14 0 00 031577 		CLRPI^
 45845	062377	7 004 20 0 00 004220 		CONO	PI,REQSET+PION+Y	;CAUSE INT. TO SET HOLD
 45846						WATINT^
 45847	062400	201 13 0 00 001000 		MOVEI	13,1000		;SET UP LOOP OF TEN TO WAIT FOR INT.
 45848	062401	367 13 0 00 062401 		SOJG	13,.		;AND WAIT^
 45849	062402	7 004 20 0 00 010000 		CONO	PI,PICLR	;THEN CLEAR VIA PI RESET
 45850	062403	7 004 30 0 00 010000 		CONSZ	PI,X		;HOLD FLOP FAILED TO CLEAR.
 45851						STOP^
 45852	062404	254 04 0 00 062405 		HALT	.+1		;INSTRUCTION FAILED REPLACE
 45853	062405	254 00 0 00 062406 		JRST	.+1		;WITH JRST BACK^
 45854						TGET^
 45855	062406	200 00 0 00 071350 		MOVE	TNUMB		;GET LAST PC STORED AND CHECK TO SEE
 45856	062407	302 00 0 00 062373 		CAIE	%X		;IF ITS WHERE WE REALLY SHOULD BE
 45857						STOP2^^
 45858	062410	254 04 0 00 062411 		HALT	.+1		;HALT IF WE SHOULDN'T BE HERE
 45859	062411	254 00 0 00 062412 		JRST	.+1		;WILD TRANSFER CAUSED THIS HALT.^
 45860					^
 45861			004000			X=X_-1
 45862			000010			Y=Y_-1
 45863
DFKAA PDP-10 KL10 BASIC INSTRUCTION DIAGNOSTIC (1) VER 0,2	MACRO %53B(1254)-4 11:50 11-Nov-24 Page 30-2
DFKAA8	MAC	13-Jan-89 10:22		BASIC PI SYSTEM TESTING

 45864
 45865						PIHCLR	Y,X^
 45866
 45867					;CHECK THAT PICLR CLEARS THE HOLD FLOP
 45868
 45869						TSET^
 45870			062412			%X=.			;DEFINE %X TO SAVE
 45871	062412	201 00 0 00 062412 		MOVEI	%X		;SAVE THIS PC IN CASE OF WILD TRANSFER
 45872	062413	202 00 0 00 071350 		MOVEM	TNUMB#		;BECAUSE OF PC MOD OR INTERRUPT^
 45873	062414				..0043:	CLRBTH^
 45874	062414	700 04 0 00 267760 		CLRAPR
 45875	062415	700 14 0 00 031577 		CLRPI^
 45876	062416	7 004 20 0 00 004210 		CONO	PI,REQSET+PION+Y	;CAUSE INT. TO SET HOLD
 45877						WATINT^
 45878	062417	201 13 0 00 001000 		MOVEI	13,1000		;SET UP LOOP OF TEN TO WAIT FOR INT.
 45879	062420	367 13 0 00 062420 		SOJG	13,.		;AND WAIT^
 45880	062421	7 004 20 0 00 010000 		CONO	PI,PICLR	;THEN CLEAR VIA PI RESET
 45881	062422	7 004 30 0 00 004000 		CONSZ	PI,X		;HOLD FLOP FAILED TO CLEAR.
 45882						STOP^
 45883	062423	254 04 0 00 062424 		HALT	.+1		;INSTRUCTION FAILED REPLACE
 45884	062424	254 00 0 00 062425 		JRST	.+1		;WITH JRST BACK^
 45885						TGET^
 45886	062425	200 00 0 00 071350 		MOVE	TNUMB		;GET LAST PC STORED AND CHECK TO SEE
 45887	062426	302 00 0 00 062412 		CAIE	%X		;IF ITS WHERE WE REALLY SHOULD BE
 45888						STOP2^^
 45889	062427	254 04 0 00 062430 		HALT	.+1		;HALT IF WE SHOULDN'T BE HERE
 45890	062430	254 00 0 00 062431 		JRST	.+1		;WILD TRANSFER CAUSED THIS HALT.^
 45891					^
 45892			002000			X=X_-1
 45893			000004			Y=Y_-1
 45894
 45895
 45896						PIHCLR	Y,X^
 45897
 45898					;CHECK THAT PICLR CLEARS THE HOLD FLOP
 45899
 45900						TSET^
 45901			062431			%X=.			;DEFINE %X TO SAVE
 45902	062431	201 00 0 00 062431 		MOVEI	%X		;SAVE THIS PC IN CASE OF WILD TRANSFER
 45903	062432	202 00 0 00 071350 		MOVEM	TNUMB#		;BECAUSE OF PC MOD OR INTERRUPT^
 45904	062433				..0044:	CLRBTH^
 45905	062433	700 04 0 00 267760 		CLRAPR
 45906	062434	700 14 0 00 031577 		CLRPI^
 45907	062435	7 004 20 0 00 004204 		CONO	PI,REQSET+PION+Y	;CAUSE INT. TO SET HOLD
 45908						WATINT^
 45909	062436	201 13 0 00 001000 		MOVEI	13,1000		;SET UP LOOP OF TEN TO WAIT FOR INT.
 45910	062437	367 13 0 00 062437 		SOJG	13,.		;AND WAIT^
 45911	062440	7 004 20 0 00 010000 		CONO	PI,PICLR	;THEN CLEAR VIA PI RESET
 45912	062441	7 004 30 0 00 002000 		CONSZ	PI,X		;HOLD FLOP FAILED TO CLEAR.
 45913						STOP^
 45914	062442	254 04 0 00 062443 		HALT	.+1		;INSTRUCTION FAILED REPLACE
 45915	062443	254 00 0 00 062444 		JRST	.+1		;WITH JRST BACK^
 45916						TGET^
 45917	062444	200 00 0 00 071350 		MOVE	TNUMB		;GET LAST PC STORED AND CHECK TO SEE
 45918	062445	302 00 0 00 062431 		CAIE	%X		;IF ITS WHERE WE REALLY SHOULD BE
DFKAA PDP-10 KL10 BASIC INSTRUCTION DIAGNOSTIC (1) VER 0,2	MACRO %53B(1254)-4 11:50 11-Nov-24 Page 30-3
DFKAA8	MAC	13-Jan-89 10:22		BASIC PI SYSTEM TESTING

 45919						STOP2^^
 45920	062446	254 04 0 00 062447 		HALT	.+1		;HALT IF WE SHOULDN'T BE HERE
 45921	062447	254 00 0 00 062450 		JRST	.+1		;WILD TRANSFER CAUSED THIS HALT.^
 45922					^
 45923			001000			X=X_-1
 45924			000002			Y=Y_-1
 45925
 45926
 45927						PIHCLR	Y,X^
 45928
 45929					;CHECK THAT PICLR CLEARS THE HOLD FLOP
 45930
 45931						TSET^
 45932			062450			%X=.			;DEFINE %X TO SAVE
 45933	062450	201 00 0 00 062450 		MOVEI	%X		;SAVE THIS PC IN CASE OF WILD TRANSFER
 45934	062451	202 00 0 00 071350 		MOVEM	TNUMB#		;BECAUSE OF PC MOD OR INTERRUPT^
 45935	062452				..0045:	CLRBTH^
 45936	062452	700 04 0 00 267760 		CLRAPR
 45937	062453	700 14 0 00 031577 		CLRPI^
 45938	062454	7 004 20 0 00 004202 		CONO	PI,REQSET+PION+Y	;CAUSE INT. TO SET HOLD
 45939						WATINT^
 45940	062455	201 13 0 00 001000 		MOVEI	13,1000		;SET UP LOOP OF TEN TO WAIT FOR INT.
 45941	062456	367 13 0 00 062456 		SOJG	13,.		;AND WAIT^
 45942	062457	7 004 20 0 00 010000 		CONO	PI,PICLR	;THEN CLEAR VIA PI RESET
 45943	062460	7 004 30 0 00 001000 		CONSZ	PI,X		;HOLD FLOP FAILED TO CLEAR.
 45944						STOP^
 45945	062461	254 04 0 00 062462 		HALT	.+1		;INSTRUCTION FAILED REPLACE
 45946	062462	254 00 0 00 062463 		JRST	.+1		;WITH JRST BACK^
 45947						TGET^
 45948	062463	200 00 0 00 071350 		MOVE	TNUMB		;GET LAST PC STORED AND CHECK TO SEE
 45949	062464	302 00 0 00 062450 		CAIE	%X		;IF ITS WHERE WE REALLY SHOULD BE
 45950						STOP2^^
 45951	062465	254 04 0 00 062466 		HALT	.+1		;HALT IF WE SHOULDN'T BE HERE
 45952	062466	254 00 0 00 062467 		JRST	.+1		;WILD TRANSFER CAUSED THIS HALT.^
 45953					^
 45954			000400			X=X_-1
 45955			000001			Y=Y_-1
 45956
 45957
 45958						PIHCLR	Y,X^
 45959
 45960					;CHECK THAT PICLR CLEARS THE HOLD FLOP
 45961
 45962						TSET^
 45963			062467			%X=.			;DEFINE %X TO SAVE
 45964	062467	201 00 0 00 062467 		MOVEI	%X		;SAVE THIS PC IN CASE OF WILD TRANSFER
 45965	062470	202 00 0 00 071350 		MOVEM	TNUMB#		;BECAUSE OF PC MOD OR INTERRUPT^
 45966	062471				..0046:	CLRBTH^
 45967	062471	700 04 0 00 267760 		CLRAPR
 45968	062472	700 14 0 00 031577 		CLRPI^
 45969	062473	7 004 20 0 00 004201 		CONO	PI,REQSET+PION+Y	;CAUSE INT. TO SET HOLD
 45970						WATINT^
 45971	062474	201 13 0 00 001000 		MOVEI	13,1000		;SET UP LOOP OF TEN TO WAIT FOR INT.
 45972	062475	367 13 0 00 062475 		SOJG	13,.		;AND WAIT^
 45973	062476	7 004 20 0 00 010000 		CONO	PI,PICLR	;THEN CLEAR VIA PI RESET
DFKAA PDP-10 KL10 BASIC INSTRUCTION DIAGNOSTIC (1) VER 0,2	MACRO %53B(1254)-4 11:50 11-Nov-24 Page 30-4
DFKAA8	MAC	13-Jan-89 10:22		BASIC PI SYSTEM TESTING

 45974	062477	7 004 30 0 00 000400 		CONSZ	PI,X		;HOLD FLOP FAILED TO CLEAR.
 45975						STOP^
 45976	062500	254 04 0 00 062501 		HALT	.+1		;INSTRUCTION FAILED REPLACE
 45977	062501	254 00 0 00 062502 		JRST	.+1		;WITH JRST BACK^
 45978						TGET^
 45979	062502	200 00 0 00 071350 		MOVE	TNUMB		;GET LAST PC STORED AND CHECK TO SEE
 45980	062503	302 00 0 00 062467 		CAIE	%X		;IF ITS WHERE WE REALLY SHOULD BE
 45981						STOP2^^
 45982	062504	254 04 0 00 062505 		HALT	.+1		;HALT IF WE SHOULDN'T BE HERE
 45983	062505	254 00 0 00 062506 		JRST	.+1		;WILD TRANSFER CAUSED THIS HALT.^
 45984					^
 45985			000200			X=X_-1
 45986			000000			Y=Y_-1
 45987
 45988	062506	255 00 0 00 000000 		JFCL
DFKAA PDP-10 KL10 BASIC INSTRUCTION DIAGNOSTIC (1) VER 0,2	MACRO %53B(1254)-4 11:50 11-Nov-24 Page 31
DFKAA8	MAC	13-Jan-89 10:22		INTERRUPT TESTING WITH REAL INTERRUPTS

 45989					SUBTTL	INTERRUPT TESTING WITH REAL INTERRUPTS
 45990
 45991					;TEST PROPER TRAP WHEN INTERRUPTING ON EACH CHANNEL
 45992					;VIA THE CACHE SWEEP DONE FLAG--ILLEGAL TRAPS HALT--NO TRAP LOOPS
 45993					;THE HALT POINTS TO THE CHANNEL THOUGHT TO BE REQUESTED
 45994
 45995					;IF PI HANGS OR BLOWS UP THEN SEE 'PII' PRINT OR 'PIR' PRINT
 45996	062507	264 00 0 00 070103 		HALTPI			;FILL INTERRUPT LOCATIONS WITH HALTS
 45997	062510	700 14 0 00 031577 		CLRPI
 45998	062511	700 04 0 00 267760 		CLRAPR
 45999	062512	200 00 0 00 071067 		MOVE	[JSP UUO]	;SET TRAP TO HALT
 46000	062513	202 00 0 00 000041 		MOVEM	41		;IN THE UUO TRAP LOCATION
 46001	062514	200 00 0 00 071070 		MOVE	[JSP TRP0A]	;SET PROPER RECOVERY INST.
 46002	062515	202 00 0 00 000042 		MOVEM	42		;INTO CH1 TRAP
 46003	062516	7 004 20 0 00 002300 		CONO	PI,2300		;TURN ON CHAN1
 46004	062517	7 000 20 0 00 112001 		CONO	APR,LENXER!LSNXER!LAPRP1	;CAUSE CACHE SWP DONE AND CHAN
 46005						STUCK^
 46006						WATINT^
 46007	062520	201 13 0 00 001000 		MOVEI	13,1000		;SET UP LOOP OF TEN TO WAIT FOR INT.
 46008	062521	367 13 0 00 062521 		SOJG	13,.		;AND WAIT^
 46009	062522	254 00 0 00 062522 		JRST	.		;LOOOP ON SELF^
 46010	062523				TRP0A:	TRPCHK^
 46011	062523	332 00 0 00 030042 	..0047:	SKIPE	MONFLG		;RESET FLAGS IF IN MONITOR
 46012	062524	254 00 0 00 062527 		JRST	.+3		;DONT IF STAND ALONE
 46013	062525	254 02 1 00 062526 		JRSTF	@.+1		;AND RESTORE THEM
 46014	062526	000000	062527			USERF,.+1		;NEW PC AND FLAGS^
 46015	062527	700 14 0 00 031577 		CLRPI
 46016	062530	700 04 0 00 267760 		CLRAPR
 46017					;IF PI HANGS OR BLOWS UP THEN SEE 'PII' PRINT OR 'PIR' PRINT
 46018					;TEST PROPER TRAP WHEN INTERRUPTING ON EACH CHANNEL
 46019					;VIA THE CACHE SWEEP DONE FLAG--ILLEGAL TRAPS HALT--NO TRAP LOOPS
 46020					;THE HALT POINTS TO THE CHANNEL THOUGHT TO BE REQUESTED
 46021	062531	264 00 0 00 070103 		HALTPI			;FILL INTERRUPT LOCATIONS WITH HALTS
 46022	062532	200 00 0 00 071071 		MOVE	[JSP TRP1A]	;RECOVERY INSTRUCTION INTO
 46023	062533	202 00 0 00 000044 		MOVEM	44		;PROPER CHAN TRAP (2)
 46024	062534	7 004 20 0 00 002240 		CONO	PI,2240		;TURN CHAN 2 ON
 46025	062535	7 000 20 0 00 114002 		CONO	APR,LESBER!LSSBER!LAPRP2	;CAUSE CACHE SWP DONE AND CHN ON
 46026						STUCK^
 46027						WATINT^
 46028	062536	201 13 0 00 001000 		MOVEI	13,1000		;SET UP LOOP OF TEN TO WAIT FOR INT.
 46029	062537	367 13 0 00 062537 		SOJG	13,.		;AND WAIT^
 46030	062540	254 00 0 00 062540 		JRST	.		;LOOOP ON SELF^
 46031	062541				TRP1A:	TRPCHK^
 46032	062541	332 00 0 00 030042 	..0050:	SKIPE	MONFLG		;RESET FLAGS IF IN MONITOR
 46033	062542	254 00 0 00 062545 		JRST	.+3		;DONT IF STAND ALONE
 46034	062543	254 02 1 00 062544 		JRSTF	@.+1		;AND RESTORE THEM
 46035	062544	000000	062545			USERF,.+1		;NEW PC AND FLAGS^
 46036	062545	700 14 0 00 031577 		CLRPI
 46037	062546	700 04 0 00 267760 		CLRAPR
 46038					;IF PI HANGS OR BLOWS UP THEN SEE 'PII' PRINT OR 'PIR' PRINT
 46039					;TEST PROPER TRAP WHEN INTERRUPTING ON EACH CHANNEL
 46040					;VIA THE CACHE SWEEP DONE FLAG--ILLEGAL TRAPS HALT--NO TRAP LOOPS
 46041					;THE HALT POINTS TO THE CHANNEL THOUGHT TO BE REQUESTED
 46042	062547	264 00 0 00 070103 		HALTPI			;FILL INTERRUPT LOCATIONS WITH HALTS
 46043	062550	200 00 0 00 071072 		MOVE	[JSP TRP2A]	;RECOVERY INSTRUCTION
DFKAA PDP-10 KL10 BASIC INSTRUCTION DIAGNOSTIC (1) VER 0,2	MACRO %53B(1254)-4 11:50 11-Nov-24 Page 31-1
DFKAA8	MAC	13-Jan-89 10:22		INTERRUPT TESTING WITH REAL INTERRUPTS

 46044	062551	202 00 0 00 000046 		MOVEM	46		;INTO PROPER CHAN TRAP (3)
 46045	062552	7 004 20 0 00 002220 		CONO	PI,2220		;TURN CHAN 3 ON
 46046	062553	7 000 20 0 00 110403 		CONO	APR,LEPAER!LSPAER!LAPRP3		;CAUSE CACHE SWP DONE AND CHAN ON
 46047						STUCK^
 46048						WATINT^
 46049	062554	201 13 0 00 001000 		MOVEI	13,1000		;SET UP LOOP OF TEN TO WAIT FOR INT.
 46050	062555	367 13 0 00 062555 		SOJG	13,.		;AND WAIT^
 46051	062556	254 00 0 00 062556 		JRST	.		;LOOOP ON SELF^
DFKAA PDP-10 KL10 BASIC INSTRUCTION DIAGNOSTIC (1) VER 0,2	MACRO %53B(1254)-4 11:50 11-Nov-24 Page 32
DFKAA8	MAC	13-Jan-89 10:22		INTERRUPT TESTING WITH REAL INTERRUPTS

 46052	062557				TRP2A:	TRPCHK^
 46053	062557	332 00 0 00 030042 	..0051:	SKIPE	MONFLG		;RESET FLAGS IF IN MONITOR
 46054	062560	254 00 0 00 062563 		JRST	.+3		;DONT IF STAND ALONE
 46055	062561	254 02 1 00 062562 		JRSTF	@.+1		;AND RESTORE THEM
 46056	062562	000000	062563			USERF,.+1		;NEW PC AND FLAGS^
 46057	062563	700 14 0 00 031577 		CLRPI
 46058	062564	700 04 0 00 267760 		CLRAPR
 46059					;IF PI HANGS OR BLOWS UP THEN SEE 'PII' PRINT OR 'PIR' PRINT
 46060					;TEST PROPER TRAP WHEN INTERRUPTING ON EACH CHANNEL
 46061					;VIA THE CACHE SWEEP DONE FLAG--ILLEGAL TRAPS HALT--NO TRAP LOOPS
 46062					;THE HALT POINTS TO THE CHANNEL THOUGHT TO BE REQUESTED
 46063	062565	264 00 0 00 070103 		HALTPI			;FILL INTERRUPT LOCATIONS WITH HALTS
 46064	062566	200 00 0 00 071073 		MOVE	[JSP TRP3A]	;RECOVERY INSTRUCTION
 46065	062567	202 00 0 00 000050 		MOVEM	50		;INTO PROPER CHAN TRAP (4)
 46066	062570	7 004 20 0 00 002210 		CONO	PI,2210		;TURN CHAN 4 ON
 46067	062571	7 000 20 0 00 111004 		CONO	APR,LEIOPF!LSIOPF!LAPRP4		;CAUSE CACHE SWP DONE AND CHAN ON
 46068						STUCK^
 46069						WATINT^
 46070	062572	201 13 0 00 001000 		MOVEI	13,1000		;SET UP LOOP OF TEN TO WAIT FOR INT.
 46071	062573	367 13 0 00 062573 		SOJG	13,.		;AND WAIT^
 46072	062574	254 00 0 00 062574 		JRST	.		;LOOOP ON SELF^
 46073	062575				TRP3A:	TRPCHK^
 46074	062575	332 00 0 00 030042 	..0052:	SKIPE	MONFLG		;RESET FLAGS IF IN MONITOR
 46075	062576	254 00 0 00 062601 		JRST	.+3		;DONT IF STAND ALONE
 46076	062577	254 02 1 00 062600 		JRSTF	@.+1		;AND RESTORE THEM
 46077	062600	000000	062601			USERF,.+1		;NEW PC AND FLAGS^
 46078	062601	700 14 0 00 031577 		CLRPI
 46079	062602	700 04 0 00 267760 		CLRAPR
 46080					;IF PI HANGS OR BLOWS UP THEN SEE 'PII' PRINT OR 'PIR' PRINT
 46081					;TEST PROPER TRAP WHEN INTERRUPTING ON EACH CHANNEL
 46082					;VIA THE CACHE SWEEP DONE FLAG--ILLEGAL TRAPS HALT--NO TRAP LOOPS
 46083					;THE HALT POINTS TO THE CHANNEL THOUGHT TO BE REQUESTED
 46084	062603	264 00 0 00 070103 		HALTPI			;FILL INTERRUPT LOCATIONS WITH HALTS
 46085	062604	200 00 0 00 071074 		MOVE	[JSP TRP4A]	;RECOVERY INSTRUCTION
 46086	062605	202 00 0 00 000052 		MOVEM	52		;INTO PROPER CHAN TRAP (5)
 46087	062606	7 004 20 0 00 002204 		CONO	PI,2204		;TURN CHAN 5 ON
 46088	062607	7 000 20 0 00 110025 		CONO	APR,LECASD!LSCASD!LAPRP5		;CAUSE CACHE SWP DONE AND CHAN ON
 46089						STUCK^
 46090						WATINT^
 46091	062610	201 13 0 00 001000 		MOVEI	13,1000		;SET UP LOOP OF TEN TO WAIT FOR INT.
 46092	062611	367 13 0 00 062611 		SOJG	13,.		;AND WAIT^
 46093	062612	254 00 0 00 062612 		JRST	.		;LOOOP ON SELF^
DFKAA PDP-10 KL10 BASIC INSTRUCTION DIAGNOSTIC (1) VER 0,2	MACRO %53B(1254)-4 11:50 11-Nov-24 Page 33
DFKAA8	MAC	13-Jan-89 10:22		INTERRUPT TESTING WITH REAL INTERRUPTS

 46094	062613				TRP4A:	TRPCHK^
 46095	062613	332 00 0 00 030042 	..0053:	SKIPE	MONFLG		;RESET FLAGS IF IN MONITOR
 46096	062614	254 00 0 00 062617 		JRST	.+3		;DONT IF STAND ALONE
 46097	062615	254 02 1 00 062616 		JRSTF	@.+1		;AND RESTORE THEM
 46098	062616	000000	062617			USERF,.+1		;NEW PC AND FLAGS^
 46099	062617	700 14 0 00 031577 		CLRPI
 46100	062620	700 04 0 00 267760 		CLRAPR
 46101
 46102					;IF PI HANGS OR BLOWS UP THEN SEE 'PII' PRINT OR 'PIR' PRINT
 46103					;TEST PROPER TRAP WHEN INTERRUPTING ON EACH CHANNEL
 46104					;VIA THE CACHE SWEEP DONE FLAG--ILLEGAL TRAPS HALT--NO TRAP LOOPS
 46105					;THE HALT POINTS TO THE CHANNEL THOUGHT TO BE REQUESTED
 46106	062621	264 00 0 00 070103 		HALTPI			;FILL INTERRUPT LOCATIONS WITH HALTS
 46107	062622	200 00 0 00 071075 		MOVE	[JSP TRP5A]	;RECOVERY INSTRUCTION
 46108	062623	202 00 0 00 000054 		MOVEM	54		;INTO PROPER CHAN TRAP (6)
 46109	062624	7 004 20 0 00 002202 		CONO	PI,2202		;TURN CHAN 6 ON
 46110	062625	7 000 20 0 00 110046 		CONO	APR,LEPWRF!LSPWRF!LAPRP6	;CAUSE CACHE SWP DONE AND CHAN ON
 46111						STUCK^
 46112						WATINT^
 46113	062626	201 13 0 00 001000 		MOVEI	13,1000		;SET UP LOOP OF TEN TO WAIT FOR INT.
 46114	062627	367 13 0 00 062627 		SOJG	13,.		;AND WAIT^
 46115	062630	254 00 0 00 062630 		JRST	.		;LOOOP ON SELF^
 46116	062631				TRP5A:	TRPCHK^
 46117	062631	332 00 0 00 030042 	..0054:	SKIPE	MONFLG		;RESET FLAGS IF IN MONITOR
 46118	062632	254 00 0 00 062635 		JRST	.+3		;DONT IF STAND ALONE
 46119	062633	254 02 1 00 062634 		JRSTF	@.+1		;AND RESTORE THEM
 46120	062634	000000	062635			USERF,.+1		;NEW PC AND FLAGS^
 46121	062635	700 14 0 00 031577 		CLRPI
 46122	062636	700 04 0 00 267760 		CLRAPR
 46123					;IF PI HANGS OR BLOWS UP THEN SEE 'PII' PRINT OR 'PIR' PRINT
 46124					;TEST PROPER TRAP WHEN INTERRUPTING ON EACH CHANNEL
 46125					;VIA THE CACHE SWEEP DONE FLAG--ILLEGAL TRAPS HALT--NO TRAP LOOPS
 46126					;THE HALT POINTS TO THE CHANNEL THOUGHT TO BE REQUESTED
 46127	062637	264 00 0 00 070103 		HALTPI			;FILL INTERRUPT LOCATIONS WITH HALTS
 46128	062640	200 00 0 00 071076 		MOVE	[JSP TRP6A]	;RECOVERY INSTRUCTION
 46129	062641	202 00 0 00 000056 		MOVEM	56		;INTO PROPER CHAN TRAP (7)
 46130	062642	7 004 20 0 00 002201 		CONO	PI,2201		;TURN CHAN 7 ON
 46131	062643	7 000 20 0 00 110047 		CONO	APR,LEPWRF!LSPWRF!LAPRP7	;CASUE CACHE SWP DONE AND CHAN ON
 46132						STUCK^
 46133						WATINT^
 46134	062644	201 13 0 00 001000 		MOVEI	13,1000		;SET UP LOOP OF TEN TO WAIT FOR INT.
 46135	062645	367 13 0 00 062645 		SOJG	13,.		;AND WAIT^
 46136	062646	254 00 0 00 062646 		JRST	.		;LOOOP ON SELF^
 46137	062647				TRP6A:	TRPCHK^
 46138	062647	332 00 0 00 030042 	..0055:	SKIPE	MONFLG		;RESET FLAGS IF IN MONITOR
 46139	062650	254 00 0 00 062653 		JRST	.+3		;DONT IF STAND ALONE
 46140	062651	254 02 1 00 062652 		JRSTF	@.+1		;AND RESTORE THEM
 46141	062652	000000	062653			USERF,.+1		;NEW PC AND FLAGS^
 46142
 46143	062653	255 00 0 00 000000 		JFCL
DFKAA PDP-10 KL10 BASIC INSTRUCTION DIAGNOSTIC (1) VER 0,2	MACRO %53B(1254)-4 11:50 11-Nov-24 Page 34
DFKAA8	MAC	13-Jan-89 10:22		INTERNAL INTERRUPT REQUEST TESTING

 46144					SUBTTL	INTERNAL INTERRUPT REQUEST TESTING
 46145
 46146					;CHECK THE ABILITY TO GENERATE PI REQUESTS VIA PROGRAM REQEST ON ALL
 46147					;CHANNELS.
 46148	062654	265 00 0 00 062655 		JSP	.+1		;GET FLAGS
 46149	062655	603 00 0 00 010000 		TLNE	USERF		;USER MODE BIT ON
 46150	062656	254 00 0 00 062657 		JRST	.+1		;DONT DO IF USER MODE!
 46151
 46152						CLRBTH^
 46153	062657	700 04 0 00 267760 		CLRAPR
 46154	062660	700 14 0 00 031577 		CLRPI^
 46155					;IF PI HANGS OR BLOWS UP THEN SEE 'PII' PRINT OR 'PIR' PRINT
 46156	062661	264 00 0 00 070103 		HALTPI			;FILL INTERRUPT LOCATIONS WITH HALTS
 46157	062662	700 14 0 00 031577 		CLRPI
 46158	062663	700 04 0 00 267760 		CLRAPR
 46159						TRAP	<JSP CKI01>,42^
 46160	062664	200 00 0 00 071077 		MOVE	[JSP CKI01]		;SET TRAP INSTRUCTION
 46161	062665	202 00 0 00 000042 		MOVEM	42		;INTO TRAP LOCATION^
 46162	062666	7 004 20 0 00 006300 		CONO	PI,6300		;INTERRUPT ON CH1
 46163						STUCK^
 46164						WATINT^
 46165	062667	201 13 0 00 001000 		MOVEI	13,1000		;SET UP LOOP OF TEN TO WAIT FOR INT.
 46166	062670	367 13 0 00 062670 		SOJG	13,.		;AND WAIT^
 46167	062671	254 00 0 00 062671 		JRST	.		;LOOOP ON SELF^
 46168					;IF PI HANGS OR BLOWS UP THEN SEE 'PII' PRINT OR 'PIR' PRINT
 46169	062672				CKI01:	TRPCHK^
 46170	062672	332 00 0 00 030042 	..0056:	SKIPE	MONFLG		;RESET FLAGS IF IN MONITOR
 46171	062673	254 00 0 00 062676 		JRST	.+3		;DONT IF STAND ALONE
 46172	062674	254 02 1 00 062675 		JRSTF	@.+1		;AND RESTORE THEM
 46173	062675	000000	062676			USERF,.+1		;NEW PC AND FLAGS^
 46174	062676	264 00 0 00 070103 		HALTPI			;FILL INTERRUPT LOCATIONS WITH HALTS
 46175	062677	700 14 0 00 031577 		CLRPI
 46176	062700	700 04 0 00 267760 		CLRAPR
 46177						TRAP	<JSP CKI02>,44^
 46178	062701	200 00 0 00 071100 		MOVE	[JSP CKI02]		;SET TRAP INSTRUCTION
 46179	062702	202 00 0 00 000044 		MOVEM	44		;INTO TRAP LOCATION^
 46180	062703	7 004 20 0 00 006240 		CONO	PI,6240		;INTERRUPT ON CH 2
 46181						STUCK^
 46182						WATINT^
 46183	062704	201 13 0 00 001000 		MOVEI	13,1000		;SET UP LOOP OF TEN TO WAIT FOR INT.
 46184	062705	367 13 0 00 062705 		SOJG	13,.		;AND WAIT^
 46185	062706	254 00 0 00 062706 		JRST	.		;LOOOP ON SELF^
 46186					;IF PI HANGS OR BLOWS UP THEN SEE 'PII' PRINT OR 'PIR' PRINT
DFKAA PDP-10 KL10 BASIC INSTRUCTION DIAGNOSTIC (1) VER 0,2	MACRO %53B(1254)-4 11:50 11-Nov-24 Page 35
DFKAA8	MAC	13-Jan-89 10:22		INTERNAL INTERRUPT REQUEST TESTING

 46187	062707				CKI02:	TRPCHK^
 46188	062707	332 00 0 00 030042 	..0057:	SKIPE	MONFLG		;RESET FLAGS IF IN MONITOR
 46189	062710	254 00 0 00 062713 		JRST	.+3		;DONT IF STAND ALONE
 46190	062711	254 02 1 00 062712 		JRSTF	@.+1		;AND RESTORE THEM
 46191	062712	000000	062713			USERF,.+1		;NEW PC AND FLAGS^
 46192	062713	264 00 0 00 070103 		HALTPI			;FILL INTERRUPT LOCATIONS WITH HALTS
 46193	062714	700 14 0 00 031577 		CLRPI
 46194	062715	700 04 0 00 267760 		CLRAPR
 46195						TRAP	<JSP CKI03>,46^
 46196	062716	200 00 0 00 071101 		MOVE	[JSP CKI03]		;SET TRAP INSTRUCTION
 46197	062717	202 00 0 00 000046 		MOVEM	46		;INTO TRAP LOCATION^
 46198	062720	7 004 20 0 00 006220 		CONO	PI,6220		;INTERRUPT ON CH 3
 46199						STUCK^
 46200						WATINT^
 46201	062721	201 13 0 00 001000 		MOVEI	13,1000		;SET UP LOOP OF TEN TO WAIT FOR INT.
 46202	062722	367 13 0 00 062722 		SOJG	13,.		;AND WAIT^
 46203	062723	254 00 0 00 062723 		JRST	.		;LOOOP ON SELF^
 46204					;IF PI HANGS OR BLOWS UP THEN SEE 'PII' PRINT OR 'PIR' PRINT
DFKAA PDP-10 KL10 BASIC INSTRUCTION DIAGNOSTIC (1) VER 0,2	MACRO %53B(1254)-4 11:50 11-Nov-24 Page 36
DFKAA8	MAC	13-Jan-89 10:22		INTERNAL INTERRUPT REQUEST TESTING

 46205	062724				CKI03:	TRPCHK^
 46206	062724	332 00 0 00 030042 	..0060:	SKIPE	MONFLG		;RESET FLAGS IF IN MONITOR
 46207	062725	254 00 0 00 062730 		JRST	.+3		;DONT IF STAND ALONE
 46208	062726	254 02 1 00 062727 		JRSTF	@.+1		;AND RESTORE THEM
 46209	062727	000000	062730			USERF,.+1		;NEW PC AND FLAGS^
 46210	062730	264 00 0 00 070103 		HALTPI			;FILL INTERRUPT LOCATIONS WITH HALTS
 46211	062731	700 14 0 00 031577 		CLRPI
 46212	062732	700 04 0 00 267760 		CLRAPR
 46213						TRAP	<JSP CKI04>,50^
 46214	062733	200 00 0 00 071102 		MOVE	[JSP CKI04]		;SET TRAP INSTRUCTION
 46215	062734	202 00 0 00 000050 		MOVEM	50		;INTO TRAP LOCATION^
 46216	062735	7 004 20 0 00 006210 		CONO	PI,6210		;INTERRUPT ON CH 4
 46217						STUCK^
 46218						WATINT^
 46219	062736	201 13 0 00 001000 		MOVEI	13,1000		;SET UP LOOP OF TEN TO WAIT FOR INT.
 46220	062737	367 13 0 00 062737 		SOJG	13,.		;AND WAIT^
 46221	062740	254 00 0 00 062740 		JRST	.		;LOOOP ON SELF^
 46222					;IF PI HANGS OR BLOWS UP THEN SEE 'PII' PRINT OR 'PIR' PRINT
 46223	062741				CKI04:	TRPCHK^
 46224	062741	332 00 0 00 030042 	..0061:	SKIPE	MONFLG		;RESET FLAGS IF IN MONITOR
 46225	062742	254 00 0 00 062745 		JRST	.+3		;DONT IF STAND ALONE
 46226	062743	254 02 1 00 062744 		JRSTF	@.+1		;AND RESTORE THEM
 46227	062744	000000	062745			USERF,.+1		;NEW PC AND FLAGS^
 46228	062745	264 00 0 00 070103 		HALTPI			;FILL INTERRUPT LOCATIONS WITH HALTS
 46229	062746	700 14 0 00 031577 		CLRPI
 46230	062747	700 04 0 00 267760 		CLRAPR
 46231						TRAP	<JSP CKI05>,52^
 46232	062750	200 00 0 00 071103 		MOVE	[JSP CKI05]		;SET TRAP INSTRUCTION
 46233	062751	202 00 0 00 000052 		MOVEM	52		;INTO TRAP LOCATION^
 46234	062752	7 004 20 0 00 006204 		CONO	PI,6204		;INTERRUPT ON CH 5
 46235						STUCK^
 46236						WATINT^
 46237	062753	201 13 0 00 001000 		MOVEI	13,1000		;SET UP LOOP OF TEN TO WAIT FOR INT.
 46238	062754	367 13 0 00 062754 		SOJG	13,.		;AND WAIT^
 46239	062755	254 00 0 00 062755 		JRST	.		;LOOOP ON SELF^
 46240					;IF PI HANGS OR BLOWS UP THEN SEE 'PII' PRINT OR 'PIR' PRINT
 46241	062756				CKI05:	TRPCHK^
 46242	062756	332 00 0 00 030042 	..0062:	SKIPE	MONFLG		;RESET FLAGS IF IN MONITOR
 46243	062757	254 00 0 00 062762 		JRST	.+3		;DONT IF STAND ALONE
 46244	062760	254 02 1 00 062761 		JRSTF	@.+1		;AND RESTORE THEM
 46245	062761	000000	062762			USERF,.+1		;NEW PC AND FLAGS^
 46246	062762	264 00 0 00 070103 		HALTPI			;FILL INTERRUPT LOCATIONS WITH HALTS
 46247	062763	700 14 0 00 031577 		CLRPI
 46248	062764	700 04 0 00 267760 		CLRAPR
 46249						TRAP	<JSP CKI06>,54^
 46250	062765	200 00 0 00 071104 		MOVE	[JSP CKI06]		;SET TRAP INSTRUCTION
 46251	062766	202 00 0 00 000054 		MOVEM	54		;INTO TRAP LOCATION^
 46252	062767	7 004 20 0 00 006202 		CONO	PI,6202		;INTERRUPT ON CH 6
 46253						STUCK^
 46254						WATINT^
 46255	062770	201 13 0 00 001000 		MOVEI	13,1000		;SET UP LOOP OF TEN TO WAIT FOR INT.
 46256	062771	367 13 0 00 062771 		SOJG	13,.		;AND WAIT^
 46257	062772	254 00 0 00 062772 		JRST	.		;LOOOP ON SELF^
 46258					;IF PI HANGS OR BLOWS UP THEN SEE 'PII' PRINT OR 'PIR' PRINT
DFKAA PDP-10 KL10 BASIC INSTRUCTION DIAGNOSTIC (1) VER 0,2	MACRO %53B(1254)-4 11:50 11-Nov-24 Page 37
DFKAA8	MAC	13-Jan-89 10:22		INTERNAL INTERRUPT REQUEST TESTING

 46259	062773				CKI06:	TRPCHK^
 46260	062773	332 00 0 00 030042 	..0063:	SKIPE	MONFLG		;RESET FLAGS IF IN MONITOR
 46261	062774	254 00 0 00 062777 		JRST	.+3		;DONT IF STAND ALONE
 46262	062775	254 02 1 00 062776 		JRSTF	@.+1		;AND RESTORE THEM
 46263	062776	000000	062777			USERF,.+1		;NEW PC AND FLAGS^
 46264	062777	264 00 0 00 070103 		HALTPI			;FILL INTERRUPT LOCATIONS WITH HALTS
 46265	063000	700 14 0 00 031577 		CLRPI
 46266	063001	700 04 0 00 267760 		CLRAPR
 46267						TRAP	<JSP CKI07>,56^
 46268	063002	200 00 0 00 071105 		MOVE	[JSP CKI07]		;SET TRAP INSTRUCTION
 46269	063003	202 00 0 00 000056 		MOVEM	56		;INTO TRAP LOCATION^
 46270	063004	7 004 20 0 00 006201 		CONO	PI,6201		;INTERRUPT ON CH 7
 46271						STUCK^
 46272						WATINT^
 46273	063005	201 13 0 00 001000 		MOVEI	13,1000		;SET UP LOOP OF TEN TO WAIT FOR INT.
 46274	063006	367 13 0 00 063006 		SOJG	13,.		;AND WAIT^
 46275	063007	254 00 0 00 063007 		JRST	.		;LOOOP ON SELF^
 46276					;IF PI HANGS OR BLOWS UP THEN SEE 'PII' PRINT OR 'PIR' PRINT
 46277	063010				CKI07:	TRPCHK^
 46278	063010	332 00 0 00 030042 	..0064:	SKIPE	MONFLG		;RESET FLAGS IF IN MONITOR
 46279	063011	254 00 0 00 063014 		JRST	.+3		;DONT IF STAND ALONE
 46280	063012	254 02 1 00 063013 		JRSTF	@.+1		;AND RESTORE THEM
 46281	063013	000000	063014			USERF,.+1		;NEW PC AND FLAGS^
 46282	063014	264 00 0 00 070103 		HALTPI			;FILL INTERRUPT LOCATIONS WITH HALTS
 46283	063015	264 00 0 00 070072 		CLRTRP
 46284	063016	700 14 0 00 031577 		CLRPI
 46285	063017	700 04 0 00 267760 		CLRAPR
 46286	063020	255 00 0 00 000000 		JFCL
DFKAA PDP-10 KL10 BASIC INSTRUCTION DIAGNOSTIC (1) VER 0,2	MACRO %53B(1254)-4 11:50 11-Nov-24 Page 38
DFKAA8	MAC	13-Jan-89 10:22		PRIORITY TESTING

 46287					SUBTTL	PRIORITY TESTING
 46288					;THIS TEST CHECKS TO SEE IF INTERRUPTS RECOGNIZE THE PROPER PRIORITY
 46289					;IMPROPER TRAPS WILL HALT - NO TRAPS WILL CAUSE PROGRAM TO HANG
 46290					;IF PROGRAM STUCK THEN REPLACE "JRST ." WITH JRST BACK TO MULT7
 46291					;IF PROGRAM HALTS THEN REPLACE "JSP" IN INTERRUPT LOCATION
 46292					;TO "JSP" TO ROUTINE WHICH CAUSED THE TRAP +1
 46293					;FOR EXAMPLE IF ROUTINE TRAPPED TO LOCATION '50' IN 50
 46294					;YOU WOULD PUT A JSP 17, TO "MULTX ROUTINE+3
 46295
 46296	063021				MULTI:	CLRBT1^
 46297	063021	700 04 0 00 267760 		CLRAPR
 46298	063022	700 14 0 00 031577 		CLRPI^
 46299	063023	264 00 0 00 070103 		HALTPI			;FILL INTERRUPT LOCATIONS WITH HALTS
 46300						TRAP	<JSP	MULT6>,56^
 46301	063024	200 00 0 00 071106 		MOVE	[JSP	MULT6]		;SET TRAP INSTRUCTION
 46302	063025	202 00 0 00 000056 		MOVEM	56		;INTO TRAP LOCATION^
 46303	063026	7 004 20 0 00 002377 		CONO	PI,CHNON+PION+177	;TURN ON PI SYSTEM
 46304						SBWAIT	7^
 46305	063027	7 000 20 0 00 114007 	..0065:	CONO	APR,LESBER!LSSBER!7
 46306						STUCK^^
 46307						WATINT^
 46308	063030	201 13 0 00 001000 		MOVEI	13,1000		;SET UP LOOP OF TEN TO WAIT FOR INT.
 46309	063031	367 13 0 00 063031 		SOJG	13,.		;AND WAIT^
 46310	063032	254 00 0 00 063032 		JRST	.		;LOOOP ON SELF^
 46311	063033				MULT6:	TRPCHK^
 46312	063033	332 00 0 00 030042 	..0066:	SKIPE	MONFLG		;RESET FLAGS IF IN MONITOR
 46313	063034	254 00 0 00 063037 		JRST	.+3		;DONT IF STAND ALONE
 46314	063035	254 02 1 00 063036 		JRSTF	@.+1		;AND RESTORE THEM
 46315	063036	000000	063037			USERF,.+1		;NEW PC AND FLAGS^
 46316	063037	264 00 0 00 070103 		HALTPI			;FILL INTERRUPT LOCATIONS WITH HALTS
 46317						TRAP	<JSP	MULT5>,54^
 46318	063040	200 00 0 00 071107 		MOVE	[JSP	MULT5]		;SET TRAP INSTRUCTION
 46319	063041	202 00 0 00 000054 		MOVEM	54		;INTO TRAP LOCATION^
 46320	063042	7 004 20 0 00 002377 		CONO	PI,CHNON+PION+177	;TURN ON PI SYSTEM
 46321						SBWAIT	6^
 46322	063043	7 000 20 0 00 114006 	..0067:	CONO	APR,LESBER!LSSBER!6
 46323						STUCK^^
 46324						WATINT^
 46325	063044	201 13 0 00 001000 		MOVEI	13,1000		;SET UP LOOP OF TEN TO WAIT FOR INT.
 46326	063045	367 13 0 00 063045 		SOJG	13,.		;AND WAIT^
 46327	063046	254 00 0 00 063046 		JRST	.		;LOOOP ON SELF^
 46328	063047				MULT5:	TRPCHK^
 46329	063047	332 00 0 00 030042 	..0070:	SKIPE	MONFLG		;RESET FLAGS IF IN MONITOR
 46330	063050	254 00 0 00 063053 		JRST	.+3		;DONT IF STAND ALONE
 46331	063051	254 02 1 00 063052 		JRSTF	@.+1		;AND RESTORE THEM
 46332	063052	000000	063053			USERF,.+1		;NEW PC AND FLAGS^
 46333	063053	264 00 0 00 070103 		HALTPI			;FILL INTERRUPT LOCATIONS WITH HALTS
 46334						TRAP	<JSP	MULT4>,52^
 46335	063054	200 00 0 00 071110 		MOVE	[JSP	MULT4]		;SET TRAP INSTRUCTION
 46336	063055	202 00 0 00 000052 		MOVEM	52		;INTO TRAP LOCATION^
 46337	063056	7 004 20 0 00 002377 		CONO	PI,CHNON+PION+177	;TURN ON PI SYSTEM
 46338						SBWAIT	5^
 46339	063057	7 000 20 0 00 114005 	..0071:	CONO	APR,LESBER!LSSBER!5
 46340						STUCK^^
 46341						WATINT^
DFKAA PDP-10 KL10 BASIC INSTRUCTION DIAGNOSTIC (1) VER 0,2	MACRO %53B(1254)-4 11:50 11-Nov-24 Page 38-1
DFKAA8	MAC	13-Jan-89 10:22		PRIORITY TESTING

 46342	063060	201 13 0 00 001000 		MOVEI	13,1000		;SET UP LOOP OF TEN TO WAIT FOR INT.
 46343	063061	367 13 0 00 063061 		SOJG	13,.		;AND WAIT^
 46344	063062	254 00 0 00 063062 		JRST	.		;LOOOP ON SELF^
 46345	063063				MULT4:	TRPCHK^
 46346	063063	332 00 0 00 030042 	..0072:	SKIPE	MONFLG		;RESET FLAGS IF IN MONITOR
 46347	063064	254 00 0 00 063067 		JRST	.+3		;DONT IF STAND ALONE
 46348	063065	254 02 1 00 063066 		JRSTF	@.+1		;AND RESTORE THEM
 46349	063066	000000	063067			USERF,.+1		;NEW PC AND FLAGS^
 46350	063067	264 00 0 00 070103 		HALTPI			;FILL INTERRUPT LOCATIONS WITH HALTS
 46351						TRAP	<JSP	MULT3>,50^
 46352	063070	200 00 0 00 071111 		MOVE	[JSP	MULT3]		;SET TRAP INSTRUCTION
 46353	063071	202 00 0 00 000050 		MOVEM	50		;INTO TRAP LOCATION^
 46354	063072	7 004 20 0 00 002377 		CONO	PI,CHNON+PION+177	;TURN ON PI SYSTEM
 46355						SBWAIT	4^
 46356	063073	7 000 20 0 00 114004 	..0073:	CONO	APR,LESBER!LSSBER!4
 46357						STUCK^^
 46358						WATINT^
 46359	063074	201 13 0 00 001000 		MOVEI	13,1000		;SET UP LOOP OF TEN TO WAIT FOR INT.
 46360	063075	367 13 0 00 063075 		SOJG	13,.		;AND WAIT^
 46361	063076	254 00 0 00 063076 		JRST	.		;LOOOP ON SELF^
 46362	063077				MULT3:	TRPCHK^
 46363	063077	332 00 0 00 030042 	..0074:	SKIPE	MONFLG		;RESET FLAGS IF IN MONITOR
 46364	063100	254 00 0 00 063103 		JRST	.+3		;DONT IF STAND ALONE
 46365	063101	254 02 1 00 063102 		JRSTF	@.+1		;AND RESTORE THEM
 46366	063102	000000	063103			USERF,.+1		;NEW PC AND FLAGS^
 46367	063103	264 00 0 00 070103 		HALTPI			;FILL INTERRUPT LOCATIONS WITH HALTS
 46368						TRAP	<JSP	MULT2>,46^
 46369	063104	200 00 0 00 071112 		MOVE	[JSP	MULT2]		;SET TRAP INSTRUCTION
 46370	063105	202 00 0 00 000046 		MOVEM	46		;INTO TRAP LOCATION^
 46371	063106	7 004 20 0 00 002377 		CONO	PI,CHNON+PION+177	;TURN ON PI SYSTEM
 46372						SBWAIT	3^
 46373	063107	7 000 20 0 00 114003 	..0075:	CONO	APR,LESBER!LSSBER!3
 46374						STUCK^^
 46375						WATINT^
 46376	063110	201 13 0 00 001000 		MOVEI	13,1000		;SET UP LOOP OF TEN TO WAIT FOR INT.
 46377	063111	367 13 0 00 063111 		SOJG	13,.		;AND WAIT^
 46378	063112	254 00 0 00 063112 		JRST	.		;LOOOP ON SELF^
 46379	063113				MULT2:	TRPCHK^
 46380	063113	332 00 0 00 030042 	..0076:	SKIPE	MONFLG		;RESET FLAGS IF IN MONITOR
 46381	063114	254 00 0 00 063117 		JRST	.+3		;DONT IF STAND ALONE
 46382	063115	254 02 1 00 063116 		JRSTF	@.+1		;AND RESTORE THEM
 46383	063116	000000	063117			USERF,.+1		;NEW PC AND FLAGS^
 46384	063117	264 00 0 00 070103 		HALTPI			;FILL INTERRUPT LOCATIONS WITH HALTS
 46385						TRAP	<JSP	MULT1>,44^
 46386	063120	200 00 0 00 071113 		MOVE	[JSP	MULT1]		;SET TRAP INSTRUCTION
 46387	063121	202 00 0 00 000044 		MOVEM	44		;INTO TRAP LOCATION^
 46388	063122	7 004 20 0 00 002377 		CONO	PI,CHNON+PION+177	;TURN ON PI SYSTEM
 46389						SBWAIT	2^
 46390	063123	7 000 20 0 00 114002 	..0077:	CONO	APR,LESBER!LSSBER!2
 46391						STUCK^^
 46392						WATINT^
 46393	063124	201 13 0 00 001000 		MOVEI	13,1000		;SET UP LOOP OF TEN TO WAIT FOR INT.
 46394	063125	367 13 0 00 063125 		SOJG	13,.		;AND WAIT^
 46395	063126	254 00 0 00 063126 		JRST	.		;LOOOP ON SELF^
 46396	063127				MULT1:	TRPCHK^
DFKAA PDP-10 KL10 BASIC INSTRUCTION DIAGNOSTIC (1) VER 0,2	MACRO %53B(1254)-4 11:50 11-Nov-24 Page 38-2
DFKAA8	MAC	13-Jan-89 10:22		PRIORITY TESTING

 46397	063127	332 00 0 00 030042 	..0100:	SKIPE	MONFLG		;RESET FLAGS IF IN MONITOR
 46398	063130	254 00 0 00 063133 		JRST	.+3		;DONT IF STAND ALONE
 46399	063131	254 02 1 00 063132 		JRSTF	@.+1		;AND RESTORE THEM
 46400	063132	000000	063133			USERF,.+1		;NEW PC AND FLAGS^
 46401	063133	264 00 0 00 070103 		HALTPI			;FILL INTERRUPT LOCATIONS WITH HALTS
 46402						TRAP	<JSP	MULT0>,42^
 46403	063134	200 00 0 00 071114 		MOVE	[JSP	MULT0]		;SET TRAP INSTRUCTION
 46404	063135	202 00 0 00 000042 		MOVEM	42		;INTO TRAP LOCATION^
 46405	063136	7 004 20 0 00 002377 		CONO	PI,CHNON+PION+177	;TURN ON PI SYSTEM
 46406						SBWAIT	1^
 46407	063137	7 000 20 0 00 114001 	..0101:	CONO	APR,LESBER!LSSBER!1
 46408						STUCK^^
 46409						WATINT^
 46410	063140	201 13 0 00 001000 		MOVEI	13,1000		;SET UP LOOP OF TEN TO WAIT FOR INT.
 46411	063141	367 13 0 00 063141 		SOJG	13,.		;AND WAIT^
 46412	063142	254 00 0 00 063142 		JRST	.		;LOOOP ON SELF^
 46413	063143				MULT0:	TRPCHK^
 46414	063143	332 00 0 00 030042 	..0102:	SKIPE	MONFLG		;RESET FLAGS IF IN MONITOR
 46415	063144	254 00 0 00 063147 		JRST	.+3		;DONT IF STAND ALONE
 46416	063145	254 02 1 00 063146 		JRSTF	@.+1		;AND RESTORE THEM
 46417	063146	000000	063147			USERF,.+1		;NEW PC AND FLAGS^
 46418	063147	264 00 0 00 070103 		HALTPI			;FILL INTERRUPT LOCATIONS WITH HALTS
 46419						CLRBTH^
 46420	063150	700 04 0 00 267760 		CLRAPR
 46421	063151	700 14 0 00 031577 		CLRPI^
 46422	063152	255 00 0 00 000000 		JFCL
DFKAA PDP-10 KL10 BASIC INSTRUCTION DIAGNOSTIC (1) VER 0,2	MACRO %53B(1254)-4 11:50 11-Nov-24 Page 39
DFKAA8	MAC	13-Jan-89 10:22		DUAL REQUEST TESTING

 46423					SUBTTL	DUAL REQUEST TESTING
 46424					;TEST THAT INTERRUPTING ON 2 CHANNELS AT ONCE TRAPS
 46425					;TO THE CORRECT TRAP. TEST IS DONE ON ALL POSSIBLE CHANNELS I.E.
 46426					;7,1 7,2 7,3 7,4 7,5 7,6 6,1 6,2...ETC
 46427
 46428
 46429	063153				C2A:	TSET^
 46430			063153			%X=.			;DEFINE %X TO SAVE
 46431	063153	201 00 0 00 063153 		MOVEI	%X		;SAVE THIS PC IN CASE OF WILD TRANSFER
 46432	063154	202 00 0 00 071350 		MOVEM	TNUMB#		;BECAUSE OF PC MOD OR INTERRUPT^
 46433						XCHN2	C2B,42,101^
 46434
 46435					;REQUEST INTERRUPTS ON 2 CHANNELS AT ONCE TO SEE IF THEY TRAP
 46436					;TO THE CORRECT (I.E. HIGHEST PRIORITY) CHANNEL.
 46437					;IF ERROR OCCURS CHECK "PIN" PRINT
 46438
 46439						TRPCHK^
 46440	063155	332 00 0 00 030042 	..0103:	SKIPE	MONFLG		;RESET FLAGS IF IN MONITOR
 46441	063156	254 00 0 00 063161 		JRST	.+3		;DONT IF STAND ALONE
 46442	063157	254 02 1 00 063160 		JRSTF	@.+1		;AND RESTORE THEM
 46443	063160	000000	063161			USERF,.+1		;NEW PC AND FLAGS^
 46444						CLRBTH^
 46445	063161	700 04 0 00 267760 		CLRAPR
 46446	063162	700 14 0 00 031577 		CLRPI^
 46447	063163	264 00 0 00 070103 		HALTPI			;FILL INTERRUPT LOCATIONS WITH HALTS
 46448	063164	200 00 0 00 071115 		MOVE	[JSP C2B]		;SET UP FOR CORRECT
 46449	063165	202 00 0 00 000042 		MOVEM	42		;INTERRUPT TRAP
 46450	063166	7 004 20 0 00 002377 		CONO	PI,CHNON!PION!177	;TURN ON PI SYSTEM
 46451	063167	7 004 20 0 00 004101 		CONO	PI,REQSET!101	;REQUEST INTERRUPT ON TWO CHANNELS
 46452						STUCK^
 46453						WATINT^
 46454	063170	201 13 0 00 001000 		MOVEI	13,1000		;SET UP LOOP OF TEN TO WAIT FOR INT.
 46455	063171	367 13 0 00 063171 		SOJG	13,.		;AND WAIT^
 46456	063172	254 00 0 00 063172 		JRST	.		;LOOOP ON SELF^
 46457					^
 46458	063173				C2B:	TBOTH^
 46459						TGET^
 46460	063173	200 00 0 00 071350 		MOVE	TNUMB		;GET LAST PC STORED AND CHECK TO SEE
 46461	063174	302 00 0 00 063153 		CAIE	%X		;IF ITS WHERE WE REALLY SHOULD BE
 46462						STOP2^^
 46463	063175	254 04 0 00 063176 		HALT	.+1		;HALT IF WE SHOULDN'T BE HERE
 46464	063176	254 00 0 00 063177 		JRST	.+1		;WILD TRANSFER CAUSED THIS HALT.^
 46465
 46466						TSET^^
 46467			063177			%X=.			;DEFINE %X TO SAVE
 46468	063177	201 00 0 00 063177 		MOVEI	%X		;SAVE THIS PC IN CASE OF WILD TRANSFER
 46469	063200	202 00 0 00 071350 		MOVEM	TNUMB#		;BECAUSE OF PC MOD OR INTERRUPT^
 46470						XCHN2	C2C,44,41^
 46471
 46472					;REQUEST INTERRUPTS ON 2 CHANNELS AT ONCE TO SEE IF THEY TRAP
 46473					;TO THE CORRECT (I.E. HIGHEST PRIORITY) CHANNEL.
 46474					;IF ERROR OCCURS CHECK "PIN" PRINT
 46475
 46476						TRPCHK^
 46477	063201	332 00 0 00 030042 	..0104:	SKIPE	MONFLG		;RESET FLAGS IF IN MONITOR
DFKAA PDP-10 KL10 BASIC INSTRUCTION DIAGNOSTIC (1) VER 0,2	MACRO %53B(1254)-4 11:50 11-Nov-24 Page 39-1
DFKAA8	MAC	13-Jan-89 10:22		DUAL REQUEST TESTING

 46478	063202	254 00 0 00 063205 		JRST	.+3		;DONT IF STAND ALONE
 46479	063203	254 02 1 00 063204 		JRSTF	@.+1		;AND RESTORE THEM
 46480	063204	000000	063205			USERF,.+1		;NEW PC AND FLAGS^
 46481						CLRBTH^
 46482	063205	700 04 0 00 267760 		CLRAPR
 46483	063206	700 14 0 00 031577 		CLRPI^
 46484	063207	264 00 0 00 070103 		HALTPI			;FILL INTERRUPT LOCATIONS WITH HALTS
 46485	063210	200 00 0 00 071116 		MOVE	[JSP C2C]		;SET UP FOR CORRECT
 46486	063211	202 00 0 00 000044 		MOVEM	44		;INTERRUPT TRAP
 46487	063212	7 004 20 0 00 002377 		CONO	PI,CHNON!PION!177	;TURN ON PI SYSTEM
 46488	063213	7 004 20 0 00 004041 		CONO	PI,REQSET!41	;REQUEST INTERRUPT ON TWO CHANNELS
 46489						STUCK^
 46490						WATINT^
 46491	063214	201 13 0 00 001000 		MOVEI	13,1000		;SET UP LOOP OF TEN TO WAIT FOR INT.
 46492	063215	367 13 0 00 063215 		SOJG	13,.		;AND WAIT^
 46493	063216	254 00 0 00 063216 		JRST	.		;LOOOP ON SELF^
 46494					^
 46495	063217				C2C:	TBOTH^
 46496						TGET^
 46497	063217	200 00 0 00 071350 		MOVE	TNUMB		;GET LAST PC STORED AND CHECK TO SEE
 46498	063220	302 00 0 00 063177 		CAIE	%X		;IF ITS WHERE WE REALLY SHOULD BE
 46499						STOP2^^
 46500	063221	254 04 0 00 063222 		HALT	.+1		;HALT IF WE SHOULDN'T BE HERE
 46501	063222	254 00 0 00 063223 		JRST	.+1		;WILD TRANSFER CAUSED THIS HALT.^
 46502
 46503						TSET^^
 46504			063223			%X=.			;DEFINE %X TO SAVE
 46505	063223	201 00 0 00 063223 		MOVEI	%X		;SAVE THIS PC IN CASE OF WILD TRANSFER
 46506	063224	202 00 0 00 071350 		MOVEM	TNUMB#		;BECAUSE OF PC MOD OR INTERRUPT^
 46507						XCHN2	C2D,46,21^
 46508
 46509					;REQUEST INTERRUPTS ON 2 CHANNELS AT ONCE TO SEE IF THEY TRAP
 46510					;TO THE CORRECT (I.E. HIGHEST PRIORITY) CHANNEL.
 46511					;IF ERROR OCCURS CHECK "PIN" PRINT
 46512
 46513						TRPCHK^
 46514	063225	332 00 0 00 030042 	..0105:	SKIPE	MONFLG		;RESET FLAGS IF IN MONITOR
 46515	063226	254 00 0 00 063231 		JRST	.+3		;DONT IF STAND ALONE
 46516	063227	254 02 1 00 063230 		JRSTF	@.+1		;AND RESTORE THEM
 46517	063230	000000	063231			USERF,.+1		;NEW PC AND FLAGS^
 46518						CLRBTH^
 46519	063231	700 04 0 00 267760 		CLRAPR
 46520	063232	700 14 0 00 031577 		CLRPI^
 46521	063233	264 00 0 00 070103 		HALTPI			;FILL INTERRUPT LOCATIONS WITH HALTS
 46522	063234	200 00 0 00 071117 		MOVE	[JSP C2D]		;SET UP FOR CORRECT
 46523	063235	202 00 0 00 000046 		MOVEM	46		;INTERRUPT TRAP
 46524	063236	7 004 20 0 00 002377 		CONO	PI,CHNON!PION!177	;TURN ON PI SYSTEM
 46525	063237	7 004 20 0 00 004021 		CONO	PI,REQSET!21	;REQUEST INTERRUPT ON TWO CHANNELS
 46526						STUCK^
 46527						WATINT^
 46528	063240	201 13 0 00 001000 		MOVEI	13,1000		;SET UP LOOP OF TEN TO WAIT FOR INT.
 46529	063241	367 13 0 00 063241 		SOJG	13,.		;AND WAIT^
 46530	063242	254 00 0 00 063242 		JRST	.		;LOOOP ON SELF^
 46531					^
 46532	063243				C2D:	TBOTH^
DFKAA PDP-10 KL10 BASIC INSTRUCTION DIAGNOSTIC (1) VER 0,2	MACRO %53B(1254)-4 11:50 11-Nov-24 Page 39-2
DFKAA8	MAC	13-Jan-89 10:22		DUAL REQUEST TESTING

 46533						TGET^
 46534	063243	200 00 0 00 071350 		MOVE	TNUMB		;GET LAST PC STORED AND CHECK TO SEE
 46535	063244	302 00 0 00 063223 		CAIE	%X		;IF ITS WHERE WE REALLY SHOULD BE
 46536						STOP2^^
 46537	063245	254 04 0 00 063246 		HALT	.+1		;HALT IF WE SHOULDN'T BE HERE
 46538	063246	254 00 0 00 063247 		JRST	.+1		;WILD TRANSFER CAUSED THIS HALT.^
 46539
 46540						TSET^^
 46541			063247			%X=.			;DEFINE %X TO SAVE
 46542	063247	201 00 0 00 063247 		MOVEI	%X		;SAVE THIS PC IN CASE OF WILD TRANSFER
 46543	063250	202 00 0 00 071350 		MOVEM	TNUMB#		;BECAUSE OF PC MOD OR INTERRUPT^
 46544						XCHN2	C2E,50,11^
 46545
 46546					;REQUEST INTERRUPTS ON 2 CHANNELS AT ONCE TO SEE IF THEY TRAP
 46547					;TO THE CORRECT (I.E. HIGHEST PRIORITY) CHANNEL.
 46548					;IF ERROR OCCURS CHECK "PIN" PRINT
 46549
 46550						TRPCHK^
 46551	063251	332 00 0 00 030042 	..0106:	SKIPE	MONFLG		;RESET FLAGS IF IN MONITOR
 46552	063252	254 00 0 00 063255 		JRST	.+3		;DONT IF STAND ALONE
 46553	063253	254 02 1 00 063254 		JRSTF	@.+1		;AND RESTORE THEM
 46554	063254	000000	063255			USERF,.+1		;NEW PC AND FLAGS^
 46555						CLRBTH^
 46556	063255	700 04 0 00 267760 		CLRAPR
 46557	063256	700 14 0 00 031577 		CLRPI^
 46558	063257	264 00 0 00 070103 		HALTPI			;FILL INTERRUPT LOCATIONS WITH HALTS
 46559	063260	200 00 0 00 071120 		MOVE	[JSP C2E]		;SET UP FOR CORRECT
 46560	063261	202 00 0 00 000050 		MOVEM	50		;INTERRUPT TRAP
 46561	063262	7 004 20 0 00 002377 		CONO	PI,CHNON!PION!177	;TURN ON PI SYSTEM
 46562	063263	7 004 20 0 00 004011 		CONO	PI,REQSET!11	;REQUEST INTERRUPT ON TWO CHANNELS
 46563						STUCK^
 46564						WATINT^
 46565	063264	201 13 0 00 001000 		MOVEI	13,1000		;SET UP LOOP OF TEN TO WAIT FOR INT.
 46566	063265	367 13 0 00 063265 		SOJG	13,.		;AND WAIT^
 46567	063266	254 00 0 00 063266 		JRST	.		;LOOOP ON SELF^
 46568					^
 46569	063267				C2E:	TBOTH^
 46570						TGET^
 46571	063267	200 00 0 00 071350 		MOVE	TNUMB		;GET LAST PC STORED AND CHECK TO SEE
 46572	063270	302 00 0 00 063247 		CAIE	%X		;IF ITS WHERE WE REALLY SHOULD BE
 46573						STOP2^^
 46574	063271	254 04 0 00 063272 		HALT	.+1		;HALT IF WE SHOULDN'T BE HERE
 46575	063272	254 00 0 00 063273 		JRST	.+1		;WILD TRANSFER CAUSED THIS HALT.^
 46576
 46577						TSET^^
 46578			063273			%X=.			;DEFINE %X TO SAVE
 46579	063273	201 00 0 00 063273 		MOVEI	%X		;SAVE THIS PC IN CASE OF WILD TRANSFER
 46580	063274	202 00 0 00 071350 		MOVEM	TNUMB#		;BECAUSE OF PC MOD OR INTERRUPT^
 46581						XCHN2	C2F,52,5^
 46582
 46583					;REQUEST INTERRUPTS ON 2 CHANNELS AT ONCE TO SEE IF THEY TRAP
 46584					;TO THE CORRECT (I.E. HIGHEST PRIORITY) CHANNEL.
 46585					;IF ERROR OCCURS CHECK "PIN" PRINT
 46586
 46587						TRPCHK^
DFKAA PDP-10 KL10 BASIC INSTRUCTION DIAGNOSTIC (1) VER 0,2	MACRO %53B(1254)-4 11:50 11-Nov-24 Page 39-3
DFKAA8	MAC	13-Jan-89 10:22		DUAL REQUEST TESTING

 46588	063275	332 00 0 00 030042 	..0107:	SKIPE	MONFLG		;RESET FLAGS IF IN MONITOR
 46589	063276	254 00 0 00 063301 		JRST	.+3		;DONT IF STAND ALONE
 46590	063277	254 02 1 00 063300 		JRSTF	@.+1		;AND RESTORE THEM
 46591	063300	000000	063301			USERF,.+1		;NEW PC AND FLAGS^
 46592						CLRBTH^
 46593	063301	700 04 0 00 267760 		CLRAPR
 46594	063302	700 14 0 00 031577 		CLRPI^
 46595	063303	264 00 0 00 070103 		HALTPI			;FILL INTERRUPT LOCATIONS WITH HALTS
 46596	063304	200 00 0 00 071121 		MOVE	[JSP C2F]		;SET UP FOR CORRECT
 46597	063305	202 00 0 00 000052 		MOVEM	52		;INTERRUPT TRAP
 46598	063306	7 004 20 0 00 002377 		CONO	PI,CHNON!PION!177	;TURN ON PI SYSTEM
 46599	063307	7 004 20 0 00 004005 		CONO	PI,REQSET!5	;REQUEST INTERRUPT ON TWO CHANNELS
 46600						STUCK^
 46601						WATINT^
 46602	063310	201 13 0 00 001000 		MOVEI	13,1000		;SET UP LOOP OF TEN TO WAIT FOR INT.
 46603	063311	367 13 0 00 063311 		SOJG	13,.		;AND WAIT^
 46604	063312	254 00 0 00 063312 		JRST	.		;LOOOP ON SELF^
 46605					^
 46606	063313				C2F:	TBOTH^
 46607						TGET^
 46608	063313	200 00 0 00 071350 		MOVE	TNUMB		;GET LAST PC STORED AND CHECK TO SEE
 46609	063314	302 00 0 00 063273 		CAIE	%X		;IF ITS WHERE WE REALLY SHOULD BE
 46610						STOP2^^
 46611	063315	254 04 0 00 063316 		HALT	.+1		;HALT IF WE SHOULDN'T BE HERE
 46612	063316	254 00 0 00 063317 		JRST	.+1		;WILD TRANSFER CAUSED THIS HALT.^
 46613
 46614						TSET^^
 46615			063317			%X=.			;DEFINE %X TO SAVE
 46616	063317	201 00 0 00 063317 		MOVEI	%X		;SAVE THIS PC IN CASE OF WILD TRANSFER
 46617	063320	202 00 0 00 071350 		MOVEM	TNUMB#		;BECAUSE OF PC MOD OR INTERRUPT^
 46618						XCHN2	C2G,54,3^
 46619
 46620					;REQUEST INTERRUPTS ON 2 CHANNELS AT ONCE TO SEE IF THEY TRAP
 46621					;TO THE CORRECT (I.E. HIGHEST PRIORITY) CHANNEL.
 46622					;IF ERROR OCCURS CHECK "PIN" PRINT
 46623
 46624						TRPCHK^
 46625	063321	332 00 0 00 030042 	..0110:	SKIPE	MONFLG		;RESET FLAGS IF IN MONITOR
 46626	063322	254 00 0 00 063325 		JRST	.+3		;DONT IF STAND ALONE
 46627	063323	254 02 1 00 063324 		JRSTF	@.+1		;AND RESTORE THEM
 46628	063324	000000	063325			USERF,.+1		;NEW PC AND FLAGS^
 46629						CLRBTH^
 46630	063325	700 04 0 00 267760 		CLRAPR
 46631	063326	700 14 0 00 031577 		CLRPI^
 46632	063327	264 00 0 00 070103 		HALTPI			;FILL INTERRUPT LOCATIONS WITH HALTS
 46633	063330	200 00 0 00 071122 		MOVE	[JSP C2G]		;SET UP FOR CORRECT
 46634	063331	202 00 0 00 000054 		MOVEM	54		;INTERRUPT TRAP
 46635	063332	7 004 20 0 00 002377 		CONO	PI,CHNON!PION!177	;TURN ON PI SYSTEM
 46636	063333	7 004 20 0 00 004003 		CONO	PI,REQSET!3	;REQUEST INTERRUPT ON TWO CHANNELS
 46637						STUCK^
 46638						WATINT^
 46639	063334	201 13 0 00 001000 		MOVEI	13,1000		;SET UP LOOP OF TEN TO WAIT FOR INT.
 46640	063335	367 13 0 00 063335 		SOJG	13,.		;AND WAIT^
 46641	063336	254 00 0 00 063336 		JRST	.		;LOOOP ON SELF^
 46642					^
DFKAA PDP-10 KL10 BASIC INSTRUCTION DIAGNOSTIC (1) VER 0,2	MACRO %53B(1254)-4 11:50 11-Nov-24 Page 39-4
DFKAA8	MAC	13-Jan-89 10:22		DUAL REQUEST TESTING

 46643	063337				C2G:	TBOTH^
 46644						TGET^
 46645	063337	200 00 0 00 071350 		MOVE	TNUMB		;GET LAST PC STORED AND CHECK TO SEE
 46646	063340	302 00 0 00 063317 		CAIE	%X		;IF ITS WHERE WE REALLY SHOULD BE
 46647						STOP2^^
 46648	063341	254 04 0 00 063342 		HALT	.+1		;HALT IF WE SHOULDN'T BE HERE
 46649	063342	254 00 0 00 063343 		JRST	.+1		;WILD TRANSFER CAUSED THIS HALT.^
 46650
 46651						TSET^^
 46652			063343			%X=.			;DEFINE %X TO SAVE
 46653	063343	201 00 0 00 063343 		MOVEI	%X		;SAVE THIS PC IN CASE OF WILD TRANSFER
 46654	063344	202 00 0 00 071350 		MOVEM	TNUMB#		;BECAUSE OF PC MOD OR INTERRUPT^
 46655						XCHN2	C2H,42,102^
 46656
 46657					;REQUEST INTERRUPTS ON 2 CHANNELS AT ONCE TO SEE IF THEY TRAP
 46658					;TO THE CORRECT (I.E. HIGHEST PRIORITY) CHANNEL.
 46659					;IF ERROR OCCURS CHECK "PIN" PRINT
 46660
 46661						TRPCHK^
 46662	063345	332 00 0 00 030042 	..0111:	SKIPE	MONFLG		;RESET FLAGS IF IN MONITOR
 46663	063346	254 00 0 00 063351 		JRST	.+3		;DONT IF STAND ALONE
 46664	063347	254 02 1 00 063350 		JRSTF	@.+1		;AND RESTORE THEM
 46665	063350	000000	063351			USERF,.+1		;NEW PC AND FLAGS^
 46666						CLRBTH^
 46667	063351	700 04 0 00 267760 		CLRAPR
 46668	063352	700 14 0 00 031577 		CLRPI^
 46669	063353	264 00 0 00 070103 		HALTPI			;FILL INTERRUPT LOCATIONS WITH HALTS
 46670	063354	200 00 0 00 071123 		MOVE	[JSP C2H]		;SET UP FOR CORRECT
 46671	063355	202 00 0 00 000042 		MOVEM	42		;INTERRUPT TRAP
 46672	063356	7 004 20 0 00 002377 		CONO	PI,CHNON!PION!177	;TURN ON PI SYSTEM
 46673	063357	7 004 20 0 00 004102 		CONO	PI,REQSET!102	;REQUEST INTERRUPT ON TWO CHANNELS
 46674						STUCK^
 46675						WATINT^
 46676	063360	201 13 0 00 001000 		MOVEI	13,1000		;SET UP LOOP OF TEN TO WAIT FOR INT.
 46677	063361	367 13 0 00 063361 		SOJG	13,.		;AND WAIT^
 46678	063362	254 00 0 00 063362 		JRST	.		;LOOOP ON SELF^
 46679					^
 46680	063363				C2H:	TBOTH^
 46681						TGET^
 46682	063363	200 00 0 00 071350 		MOVE	TNUMB		;GET LAST PC STORED AND CHECK TO SEE
 46683	063364	302 00 0 00 063343 		CAIE	%X		;IF ITS WHERE WE REALLY SHOULD BE
 46684						STOP2^^
 46685	063365	254 04 0 00 063366 		HALT	.+1		;HALT IF WE SHOULDN'T BE HERE
 46686	063366	254 00 0 00 063367 		JRST	.+1		;WILD TRANSFER CAUSED THIS HALT.^
 46687
 46688						TSET^^
 46689			063367			%X=.			;DEFINE %X TO SAVE
 46690	063367	201 00 0 00 063367 		MOVEI	%X		;SAVE THIS PC IN CASE OF WILD TRANSFER
 46691	063370	202 00 0 00 071350 		MOVEM	TNUMB#		;BECAUSE OF PC MOD OR INTERRUPT^
 46692						XCHN2	C2I,44,42^
 46693
 46694					;REQUEST INTERRUPTS ON 2 CHANNELS AT ONCE TO SEE IF THEY TRAP
 46695					;TO THE CORRECT (I.E. HIGHEST PRIORITY) CHANNEL.
 46696					;IF ERROR OCCURS CHECK "PIN" PRINT
 46697
DFKAA PDP-10 KL10 BASIC INSTRUCTION DIAGNOSTIC (1) VER 0,2	MACRO %53B(1254)-4 11:50 11-Nov-24 Page 39-5
DFKAA8	MAC	13-Jan-89 10:22		DUAL REQUEST TESTING

 46698						TRPCHK^
 46699	063371	332 00 0 00 030042 	..0112:	SKIPE	MONFLG		;RESET FLAGS IF IN MONITOR
 46700	063372	254 00 0 00 063375 		JRST	.+3		;DONT IF STAND ALONE
 46701	063373	254 02 1 00 063374 		JRSTF	@.+1		;AND RESTORE THEM
 46702	063374	000000	063375			USERF,.+1		;NEW PC AND FLAGS^
 46703						CLRBTH^
 46704	063375	700 04 0 00 267760 		CLRAPR
 46705	063376	700 14 0 00 031577 		CLRPI^
 46706	063377	264 00 0 00 070103 		HALTPI			;FILL INTERRUPT LOCATIONS WITH HALTS
 46707	063400	200 00 0 00 071124 		MOVE	[JSP C2I]		;SET UP FOR CORRECT
 46708	063401	202 00 0 00 000044 		MOVEM	44		;INTERRUPT TRAP
 46709	063402	7 004 20 0 00 002377 		CONO	PI,CHNON!PION!177	;TURN ON PI SYSTEM
 46710	063403	7 004 20 0 00 004042 		CONO	PI,REQSET!42	;REQUEST INTERRUPT ON TWO CHANNELS
 46711						STUCK^
 46712						WATINT^
 46713	063404	201 13 0 00 001000 		MOVEI	13,1000		;SET UP LOOP OF TEN TO WAIT FOR INT.
 46714	063405	367 13 0 00 063405 		SOJG	13,.		;AND WAIT^
 46715	063406	254 00 0 00 063406 		JRST	.		;LOOOP ON SELF^
 46716					^
 46717	063407				C2I:	TBOTH^
 46718						TGET^
 46719	063407	200 00 0 00 071350 		MOVE	TNUMB		;GET LAST PC STORED AND CHECK TO SEE
 46720	063410	302 00 0 00 063367 		CAIE	%X		;IF ITS WHERE WE REALLY SHOULD BE
 46721						STOP2^^
 46722	063411	254 04 0 00 063412 		HALT	.+1		;HALT IF WE SHOULDN'T BE HERE
 46723	063412	254 00 0 00 063413 		JRST	.+1		;WILD TRANSFER CAUSED THIS HALT.^
 46724
 46725						TSET^^
 46726			063413			%X=.			;DEFINE %X TO SAVE
 46727	063413	201 00 0 00 063413 		MOVEI	%X		;SAVE THIS PC IN CASE OF WILD TRANSFER
 46728	063414	202 00 0 00 071350 		MOVEM	TNUMB#		;BECAUSE OF PC MOD OR INTERRUPT^
 46729						XCHN2	C2J,46,22^
 46730
 46731					;REQUEST INTERRUPTS ON 2 CHANNELS AT ONCE TO SEE IF THEY TRAP
 46732					;TO THE CORRECT (I.E. HIGHEST PRIORITY) CHANNEL.
 46733					;IF ERROR OCCURS CHECK "PIN" PRINT
 46734
 46735						TRPCHK^
 46736	063415	332 00 0 00 030042 	..0113:	SKIPE	MONFLG		;RESET FLAGS IF IN MONITOR
 46737	063416	254 00 0 00 063421 		JRST	.+3		;DONT IF STAND ALONE
 46738	063417	254 02 1 00 063420 		JRSTF	@.+1		;AND RESTORE THEM
 46739	063420	000000	063421			USERF,.+1		;NEW PC AND FLAGS^
 46740						CLRBTH^
 46741	063421	700 04 0 00 267760 		CLRAPR
 46742	063422	700 14 0 00 031577 		CLRPI^
 46743	063423	264 00 0 00 070103 		HALTPI			;FILL INTERRUPT LOCATIONS WITH HALTS
 46744	063424	200 00 0 00 071125 		MOVE	[JSP C2J]		;SET UP FOR CORRECT
 46745	063425	202 00 0 00 000046 		MOVEM	46		;INTERRUPT TRAP
 46746	063426	7 004 20 0 00 002377 		CONO	PI,CHNON!PION!177	;TURN ON PI SYSTEM
 46747	063427	7 004 20 0 00 004022 		CONO	PI,REQSET!22	;REQUEST INTERRUPT ON TWO CHANNELS
 46748						STUCK^
 46749						WATINT^
 46750	063430	201 13 0 00 001000 		MOVEI	13,1000		;SET UP LOOP OF TEN TO WAIT FOR INT.
 46751	063431	367 13 0 00 063431 		SOJG	13,.		;AND WAIT^
 46752	063432	254 00 0 00 063432 		JRST	.		;LOOOP ON SELF^
DFKAA PDP-10 KL10 BASIC INSTRUCTION DIAGNOSTIC (1) VER 0,2	MACRO %53B(1254)-4 11:50 11-Nov-24 Page 39-6
DFKAA8	MAC	13-Jan-89 10:22		DUAL REQUEST TESTING

 46753					^
 46754	063433				C2J:	TBOTH^
 46755						TGET^
 46756	063433	200 00 0 00 071350 		MOVE	TNUMB		;GET LAST PC STORED AND CHECK TO SEE
 46757	063434	302 00 0 00 063413 		CAIE	%X		;IF ITS WHERE WE REALLY SHOULD BE
 46758						STOP2^^
 46759	063435	254 04 0 00 063436 		HALT	.+1		;HALT IF WE SHOULDN'T BE HERE
 46760	063436	254 00 0 00 063437 		JRST	.+1		;WILD TRANSFER CAUSED THIS HALT.^
 46761
 46762						TSET^^
 46763			063437			%X=.			;DEFINE %X TO SAVE
 46764	063437	201 00 0 00 063437 		MOVEI	%X		;SAVE THIS PC IN CASE OF WILD TRANSFER
 46765	063440	202 00 0 00 071350 		MOVEM	TNUMB#		;BECAUSE OF PC MOD OR INTERRUPT^
 46766						XCHN2	C2K,50,12^
 46767
 46768					;REQUEST INTERRUPTS ON 2 CHANNELS AT ONCE TO SEE IF THEY TRAP
 46769					;TO THE CORRECT (I.E. HIGHEST PRIORITY) CHANNEL.
 46770					;IF ERROR OCCURS CHECK "PIN" PRINT
 46771
 46772						TRPCHK^
 46773	063441	332 00 0 00 030042 	..0114:	SKIPE	MONFLG		;RESET FLAGS IF IN MONITOR
 46774	063442	254 00 0 00 063445 		JRST	.+3		;DONT IF STAND ALONE
 46775	063443	254 02 1 00 063444 		JRSTF	@.+1		;AND RESTORE THEM
 46776	063444	000000	063445			USERF,.+1		;NEW PC AND FLAGS^
 46777						CLRBTH^
 46778	063445	700 04 0 00 267760 		CLRAPR
 46779	063446	700 14 0 00 031577 		CLRPI^
 46780	063447	264 00 0 00 070103 		HALTPI			;FILL INTERRUPT LOCATIONS WITH HALTS
 46781	063450	200 00 0 00 071126 		MOVE	[JSP C2K]		;SET UP FOR CORRECT
 46782	063451	202 00 0 00 000050 		MOVEM	50		;INTERRUPT TRAP
 46783	063452	7 004 20 0 00 002377 		CONO	PI,CHNON!PION!177	;TURN ON PI SYSTEM
 46784	063453	7 004 20 0 00 004012 		CONO	PI,REQSET!12	;REQUEST INTERRUPT ON TWO CHANNELS
 46785						STUCK^
 46786						WATINT^
 46787	063454	201 13 0 00 001000 		MOVEI	13,1000		;SET UP LOOP OF TEN TO WAIT FOR INT.
 46788	063455	367 13 0 00 063455 		SOJG	13,.		;AND WAIT^
 46789	063456	254 00 0 00 063456 		JRST	.		;LOOOP ON SELF^
 46790					^
 46791	063457				C2K:	TBOTH^
 46792						TGET^
 46793	063457	200 00 0 00 071350 		MOVE	TNUMB		;GET LAST PC STORED AND CHECK TO SEE
 46794	063460	302 00 0 00 063437 		CAIE	%X		;IF ITS WHERE WE REALLY SHOULD BE
 46795						STOP2^^
 46796	063461	254 04 0 00 063462 		HALT	.+1		;HALT IF WE SHOULDN'T BE HERE
 46797	063462	254 00 0 00 063463 		JRST	.+1		;WILD TRANSFER CAUSED THIS HALT.^
 46798
 46799						TSET^^
 46800			063463			%X=.			;DEFINE %X TO SAVE
 46801	063463	201 00 0 00 063463 		MOVEI	%X		;SAVE THIS PC IN CASE OF WILD TRANSFER
 46802	063464	202 00 0 00 071350 		MOVEM	TNUMB#		;BECAUSE OF PC MOD OR INTERRUPT^
 46803						XCHN2	C2L,52,6^
 46804
 46805					;REQUEST INTERRUPTS ON 2 CHANNELS AT ONCE TO SEE IF THEY TRAP
 46806					;TO THE CORRECT (I.E. HIGHEST PRIORITY) CHANNEL.
 46807					;IF ERROR OCCURS CHECK "PIN" PRINT
DFKAA PDP-10 KL10 BASIC INSTRUCTION DIAGNOSTIC (1) VER 0,2	MACRO %53B(1254)-4 11:50 11-Nov-24 Page 39-7
DFKAA8	MAC	13-Jan-89 10:22		DUAL REQUEST TESTING

 46808
 46809						TRPCHK^
 46810	063465	332 00 0 00 030042 	..0115:	SKIPE	MONFLG		;RESET FLAGS IF IN MONITOR
 46811	063466	254 00 0 00 063471 		JRST	.+3		;DONT IF STAND ALONE
 46812	063467	254 02 1 00 063470 		JRSTF	@.+1		;AND RESTORE THEM
 46813	063470	000000	063471			USERF,.+1		;NEW PC AND FLAGS^
 46814						CLRBTH^
 46815	063471	700 04 0 00 267760 		CLRAPR
 46816	063472	700 14 0 00 031577 		CLRPI^
 46817	063473	264 00 0 00 070103 		HALTPI			;FILL INTERRUPT LOCATIONS WITH HALTS
 46818	063474	200 00 0 00 071127 		MOVE	[JSP C2L]		;SET UP FOR CORRECT
 46819	063475	202 00 0 00 000052 		MOVEM	52		;INTERRUPT TRAP
 46820	063476	7 004 20 0 00 002377 		CONO	PI,CHNON!PION!177	;TURN ON PI SYSTEM
 46821	063477	7 004 20 0 00 004006 		CONO	PI,REQSET!6	;REQUEST INTERRUPT ON TWO CHANNELS
 46822						STUCK^
 46823						WATINT^
 46824	063500	201 13 0 00 001000 		MOVEI	13,1000		;SET UP LOOP OF TEN TO WAIT FOR INT.
 46825	063501	367 13 0 00 063501 		SOJG	13,.		;AND WAIT^
 46826	063502	254 00 0 00 063502 		JRST	.		;LOOOP ON SELF^
 46827					^
 46828	063503				C2L:	TBOTH^
 46829						TGET^
 46830	063503	200 00 0 00 071350 		MOVE	TNUMB		;GET LAST PC STORED AND CHECK TO SEE
 46831	063504	302 00 0 00 063463 		CAIE	%X		;IF ITS WHERE WE REALLY SHOULD BE
 46832						STOP2^^
 46833	063505	254 04 0 00 063506 		HALT	.+1		;HALT IF WE SHOULDN'T BE HERE
 46834	063506	254 00 0 00 063507 		JRST	.+1		;WILD TRANSFER CAUSED THIS HALT.^
 46835
 46836						TSET^^
 46837			063507			%X=.			;DEFINE %X TO SAVE
 46838	063507	201 00 0 00 063507 		MOVEI	%X		;SAVE THIS PC IN CASE OF WILD TRANSFER
 46839	063510	202 00 0 00 071350 		MOVEM	TNUMB#		;BECAUSE OF PC MOD OR INTERRUPT^
 46840						XCHN2	C2M,42,104^
 46841
 46842					;REQUEST INTERRUPTS ON 2 CHANNELS AT ONCE TO SEE IF THEY TRAP
 46843					;TO THE CORRECT (I.E. HIGHEST PRIORITY) CHANNEL.
 46844					;IF ERROR OCCURS CHECK "PIN" PRINT
 46845
 46846						TRPCHK^
 46847	063511	332 00 0 00 030042 	..0116:	SKIPE	MONFLG		;RESET FLAGS IF IN MONITOR
 46848	063512	254 00 0 00 063515 		JRST	.+3		;DONT IF STAND ALONE
 46849	063513	254 02 1 00 063514 		JRSTF	@.+1		;AND RESTORE THEM
 46850	063514	000000	063515			USERF,.+1		;NEW PC AND FLAGS^
 46851						CLRBTH^
 46852	063515	700 04 0 00 267760 		CLRAPR
 46853	063516	700 14 0 00 031577 		CLRPI^
 46854	063517	264 00 0 00 070103 		HALTPI			;FILL INTERRUPT LOCATIONS WITH HALTS
 46855	063520	200 00 0 00 071130 		MOVE	[JSP C2M]		;SET UP FOR CORRECT
 46856	063521	202 00 0 00 000042 		MOVEM	42		;INTERRUPT TRAP
 46857	063522	7 004 20 0 00 002377 		CONO	PI,CHNON!PION!177	;TURN ON PI SYSTEM
 46858	063523	7 004 20 0 00 004104 		CONO	PI,REQSET!104	;REQUEST INTERRUPT ON TWO CHANNELS
 46859						STUCK^
 46860						WATINT^
 46861	063524	201 13 0 00 001000 		MOVEI	13,1000		;SET UP LOOP OF TEN TO WAIT FOR INT.
 46862	063525	367 13 0 00 063525 		SOJG	13,.		;AND WAIT^
DFKAA PDP-10 KL10 BASIC INSTRUCTION DIAGNOSTIC (1) VER 0,2	MACRO %53B(1254)-4 11:50 11-Nov-24 Page 39-8
DFKAA8	MAC	13-Jan-89 10:22		DUAL REQUEST TESTING

 46863	063526	254 00 0 00 063526 		JRST	.		;LOOOP ON SELF^
 46864					^
 46865	063527				C2M:	TBOTH^
 46866						TGET^
 46867	063527	200 00 0 00 071350 		MOVE	TNUMB		;GET LAST PC STORED AND CHECK TO SEE
 46868	063530	302 00 0 00 063507 		CAIE	%X		;IF ITS WHERE WE REALLY SHOULD BE
 46869						STOP2^^
 46870	063531	254 04 0 00 063532 		HALT	.+1		;HALT IF WE SHOULDN'T BE HERE
 46871	063532	254 00 0 00 063533 		JRST	.+1		;WILD TRANSFER CAUSED THIS HALT.^
 46872
 46873						TSET^^
 46874			063533			%X=.			;DEFINE %X TO SAVE
 46875	063533	201 00 0 00 063533 		MOVEI	%X		;SAVE THIS PC IN CASE OF WILD TRANSFER
 46876	063534	202 00 0 00 071350 		MOVEM	TNUMB#		;BECAUSE OF PC MOD OR INTERRUPT^
 46877						XCHN2	C2N,44,44^
 46878
 46879					;REQUEST INTERRUPTS ON 2 CHANNELS AT ONCE TO SEE IF THEY TRAP
 46880					;TO THE CORRECT (I.E. HIGHEST PRIORITY) CHANNEL.
 46881					;IF ERROR OCCURS CHECK "PIN" PRINT
 46882
 46883						TRPCHK^
 46884	063535	332 00 0 00 030042 	..0117:	SKIPE	MONFLG		;RESET FLAGS IF IN MONITOR
 46885	063536	254 00 0 00 063541 		JRST	.+3		;DONT IF STAND ALONE
 46886	063537	254 02 1 00 063540 		JRSTF	@.+1		;AND RESTORE THEM
 46887	063540	000000	063541			USERF,.+1		;NEW PC AND FLAGS^
 46888						CLRBTH^
 46889	063541	700 04 0 00 267760 		CLRAPR
 46890	063542	700 14 0 00 031577 		CLRPI^
 46891	063543	264 00 0 00 070103 		HALTPI			;FILL INTERRUPT LOCATIONS WITH HALTS
 46892	063544	200 00 0 00 071131 		MOVE	[JSP C2N]		;SET UP FOR CORRECT
 46893	063545	202 00 0 00 000044 		MOVEM	44		;INTERRUPT TRAP
 46894	063546	7 004 20 0 00 002377 		CONO	PI,CHNON!PION!177	;TURN ON PI SYSTEM
 46895	063547	7 004 20 0 00 004044 		CONO	PI,REQSET!44	;REQUEST INTERRUPT ON TWO CHANNELS
 46896						STUCK^
 46897						WATINT^
 46898	063550	201 13 0 00 001000 		MOVEI	13,1000		;SET UP LOOP OF TEN TO WAIT FOR INT.
 46899	063551	367 13 0 00 063551 		SOJG	13,.		;AND WAIT^
 46900	063552	254 00 0 00 063552 		JRST	.		;LOOOP ON SELF^
 46901					^
 46902	063553				C2N:	TBOTH^
 46903						TGET^
 46904	063553	200 00 0 00 071350 		MOVE	TNUMB		;GET LAST PC STORED AND CHECK TO SEE
 46905	063554	302 00 0 00 063533 		CAIE	%X		;IF ITS WHERE WE REALLY SHOULD BE
 46906						STOP2^^
 46907	063555	254 04 0 00 063556 		HALT	.+1		;HALT IF WE SHOULDN'T BE HERE
 46908	063556	254 00 0 00 063557 		JRST	.+1		;WILD TRANSFER CAUSED THIS HALT.^
 46909
 46910						TSET^^
 46911			063557			%X=.			;DEFINE %X TO SAVE
 46912	063557	201 00 0 00 063557 		MOVEI	%X		;SAVE THIS PC IN CASE OF WILD TRANSFER
 46913	063560	202 00 0 00 071350 		MOVEM	TNUMB#		;BECAUSE OF PC MOD OR INTERRUPT^
 46914						XCHN2	C2O,46,24^
 46915
 46916					;REQUEST INTERRUPTS ON 2 CHANNELS AT ONCE TO SEE IF THEY TRAP
 46917					;TO THE CORRECT (I.E. HIGHEST PRIORITY) CHANNEL.
DFKAA PDP-10 KL10 BASIC INSTRUCTION DIAGNOSTIC (1) VER 0,2	MACRO %53B(1254)-4 11:50 11-Nov-24 Page 39-9
DFKAA8	MAC	13-Jan-89 10:22		DUAL REQUEST TESTING

 46918					;IF ERROR OCCURS CHECK "PIN" PRINT
 46919
 46920						TRPCHK^
 46921	063561	332 00 0 00 030042 	..0120:	SKIPE	MONFLG		;RESET FLAGS IF IN MONITOR
 46922	063562	254 00 0 00 063565 		JRST	.+3		;DONT IF STAND ALONE
 46923	063563	254 02 1 00 063564 		JRSTF	@.+1		;AND RESTORE THEM
 46924	063564	000000	063565			USERF,.+1		;NEW PC AND FLAGS^
 46925						CLRBTH^
 46926	063565	700 04 0 00 267760 		CLRAPR
 46927	063566	700 14 0 00 031577 		CLRPI^
 46928	063567	264 00 0 00 070103 		HALTPI			;FILL INTERRUPT LOCATIONS WITH HALTS
 46929	063570	200 00 0 00 071132 		MOVE	[JSP C2O]		;SET UP FOR CORRECT
 46930	063571	202 00 0 00 000046 		MOVEM	46		;INTERRUPT TRAP
 46931	063572	7 004 20 0 00 002377 		CONO	PI,CHNON!PION!177	;TURN ON PI SYSTEM
 46932	063573	7 004 20 0 00 004024 		CONO	PI,REQSET!24	;REQUEST INTERRUPT ON TWO CHANNELS
 46933						STUCK^
 46934						WATINT^
 46935	063574	201 13 0 00 001000 		MOVEI	13,1000		;SET UP LOOP OF TEN TO WAIT FOR INT.
 46936	063575	367 13 0 00 063575 		SOJG	13,.		;AND WAIT^
 46937	063576	254 00 0 00 063576 		JRST	.		;LOOOP ON SELF^
 46938					^
 46939	063577				C2O:	TBOTH^
 46940						TGET^
 46941	063577	200 00 0 00 071350 		MOVE	TNUMB		;GET LAST PC STORED AND CHECK TO SEE
 46942	063600	302 00 0 00 063557 		CAIE	%X		;IF ITS WHERE WE REALLY SHOULD BE
 46943						STOP2^^
 46944	063601	254 04 0 00 063602 		HALT	.+1		;HALT IF WE SHOULDN'T BE HERE
 46945	063602	254 00 0 00 063603 		JRST	.+1		;WILD TRANSFER CAUSED THIS HALT.^
 46946
 46947						TSET^^
 46948			063603			%X=.			;DEFINE %X TO SAVE
 46949	063603	201 00 0 00 063603 		MOVEI	%X		;SAVE THIS PC IN CASE OF WILD TRANSFER
 46950	063604	202 00 0 00 071350 		MOVEM	TNUMB#		;BECAUSE OF PC MOD OR INTERRUPT^
 46951						XCHN2	C2P,50,14^
 46952
 46953					;REQUEST INTERRUPTS ON 2 CHANNELS AT ONCE TO SEE IF THEY TRAP
 46954					;TO THE CORRECT (I.E. HIGHEST PRIORITY) CHANNEL.
 46955					;IF ERROR OCCURS CHECK "PIN" PRINT
 46956
 46957						TRPCHK^
 46958	063605	332 00 0 00 030042 	..0121:	SKIPE	MONFLG		;RESET FLAGS IF IN MONITOR
 46959	063606	254 00 0 00 063611 		JRST	.+3		;DONT IF STAND ALONE
 46960	063607	254 02 1 00 063610 		JRSTF	@.+1		;AND RESTORE THEM
 46961	063610	000000	063611			USERF,.+1		;NEW PC AND FLAGS^
 46962						CLRBTH^
 46963	063611	700 04 0 00 267760 		CLRAPR
 46964	063612	700 14 0 00 031577 		CLRPI^
 46965	063613	264 00 0 00 070103 		HALTPI			;FILL INTERRUPT LOCATIONS WITH HALTS
 46966	063614	200 00 0 00 071133 		MOVE	[JSP C2P]		;SET UP FOR CORRECT
 46967	063615	202 00 0 00 000050 		MOVEM	50		;INTERRUPT TRAP
 46968	063616	7 004 20 0 00 002377 		CONO	PI,CHNON!PION!177	;TURN ON PI SYSTEM
 46969	063617	7 004 20 0 00 004014 		CONO	PI,REQSET!14	;REQUEST INTERRUPT ON TWO CHANNELS
 46970						STUCK^
 46971						WATINT^
 46972	063620	201 13 0 00 001000 		MOVEI	13,1000		;SET UP LOOP OF TEN TO WAIT FOR INT.
DFKAA PDP-10 KL10 BASIC INSTRUCTION DIAGNOSTIC (1) VER 0,2	MACRO %53B(1254)-4 11:50 11-Nov-24 Page 39-10
DFKAA8	MAC	13-Jan-89 10:22		DUAL REQUEST TESTING

 46973	063621	367 13 0 00 063621 		SOJG	13,.		;AND WAIT^
 46974	063622	254 00 0 00 063622 		JRST	.		;LOOOP ON SELF^
 46975					^
 46976	063623				C2P:	TBOTH^
 46977						TGET^
 46978	063623	200 00 0 00 071350 		MOVE	TNUMB		;GET LAST PC STORED AND CHECK TO SEE
 46979	063624	302 00 0 00 063603 		CAIE	%X		;IF ITS WHERE WE REALLY SHOULD BE
 46980						STOP2^^
 46981	063625	254 04 0 00 063626 		HALT	.+1		;HALT IF WE SHOULDN'T BE HERE
 46982	063626	254 00 0 00 063627 		JRST	.+1		;WILD TRANSFER CAUSED THIS HALT.^
 46983
 46984						TSET^^
 46985			063627			%X=.			;DEFINE %X TO SAVE
 46986	063627	201 00 0 00 063627 		MOVEI	%X		;SAVE THIS PC IN CASE OF WILD TRANSFER
 46987	063630	202 00 0 00 071350 		MOVEM	TNUMB#		;BECAUSE OF PC MOD OR INTERRUPT^
 46988						XCHN2	C2Q,42,110^
 46989
 46990					;REQUEST INTERRUPTS ON 2 CHANNELS AT ONCE TO SEE IF THEY TRAP
 46991					;TO THE CORRECT (I.E. HIGHEST PRIORITY) CHANNEL.
 46992					;IF ERROR OCCURS CHECK "PIN" PRINT
 46993
 46994						TRPCHK^
 46995	063631	332 00 0 00 030042 	..0122:	SKIPE	MONFLG		;RESET FLAGS IF IN MONITOR
 46996	063632	254 00 0 00 063635 		JRST	.+3		;DONT IF STAND ALONE
 46997	063633	254 02 1 00 063634 		JRSTF	@.+1		;AND RESTORE THEM
 46998	063634	000000	063635			USERF,.+1		;NEW PC AND FLAGS^
 46999						CLRBTH^
 47000	063635	700 04 0 00 267760 		CLRAPR
 47001	063636	700 14 0 00 031577 		CLRPI^
 47002	063637	264 00 0 00 070103 		HALTPI			;FILL INTERRUPT LOCATIONS WITH HALTS
 47003	063640	200 00 0 00 071134 		MOVE	[JSP C2Q]		;SET UP FOR CORRECT
 47004	063641	202 00 0 00 000042 		MOVEM	42		;INTERRUPT TRAP
 47005	063642	7 004 20 0 00 002377 		CONO	PI,CHNON!PION!177	;TURN ON PI SYSTEM
 47006	063643	7 004 20 0 00 004110 		CONO	PI,REQSET!110	;REQUEST INTERRUPT ON TWO CHANNELS
 47007						STUCK^
 47008						WATINT^
 47009	063644	201 13 0 00 001000 		MOVEI	13,1000		;SET UP LOOP OF TEN TO WAIT FOR INT.
 47010	063645	367 13 0 00 063645 		SOJG	13,.		;AND WAIT^
 47011	063646	254 00 0 00 063646 		JRST	.		;LOOOP ON SELF^
 47012					^
 47013	063647				C2Q:	TBOTH^
 47014						TGET^
 47015	063647	200 00 0 00 071350 		MOVE	TNUMB		;GET LAST PC STORED AND CHECK TO SEE
 47016	063650	302 00 0 00 063627 		CAIE	%X		;IF ITS WHERE WE REALLY SHOULD BE
 47017						STOP2^^
 47018	063651	254 04 0 00 063652 		HALT	.+1		;HALT IF WE SHOULDN'T BE HERE
 47019	063652	254 00 0 00 063653 		JRST	.+1		;WILD TRANSFER CAUSED THIS HALT.^
 47020
 47021						TSET^^
 47022			063653			%X=.			;DEFINE %X TO SAVE
 47023	063653	201 00 0 00 063653 		MOVEI	%X		;SAVE THIS PC IN CASE OF WILD TRANSFER
 47024	063654	202 00 0 00 071350 		MOVEM	TNUMB#		;BECAUSE OF PC MOD OR INTERRUPT^
 47025						XCHN2	C2R,44,50^
 47026
 47027					;REQUEST INTERRUPTS ON 2 CHANNELS AT ONCE TO SEE IF THEY TRAP
DFKAA PDP-10 KL10 BASIC INSTRUCTION DIAGNOSTIC (1) VER 0,2	MACRO %53B(1254)-4 11:50 11-Nov-24 Page 39-11
DFKAA8	MAC	13-Jan-89 10:22		DUAL REQUEST TESTING

 47028					;TO THE CORRECT (I.E. HIGHEST PRIORITY) CHANNEL.
 47029					;IF ERROR OCCURS CHECK "PIN" PRINT
 47030
 47031						TRPCHK^
 47032	063655	332 00 0 00 030042 	..0123:	SKIPE	MONFLG		;RESET FLAGS IF IN MONITOR
 47033	063656	254 00 0 00 063661 		JRST	.+3		;DONT IF STAND ALONE
 47034	063657	254 02 1 00 063660 		JRSTF	@.+1		;AND RESTORE THEM
 47035	063660	000000	063661			USERF,.+1		;NEW PC AND FLAGS^
 47036						CLRBTH^
 47037	063661	700 04 0 00 267760 		CLRAPR
 47038	063662	700 14 0 00 031577 		CLRPI^
 47039	063663	264 00 0 00 070103 		HALTPI			;FILL INTERRUPT LOCATIONS WITH HALTS
 47040	063664	200 00 0 00 071135 		MOVE	[JSP C2R]		;SET UP FOR CORRECT
 47041	063665	202 00 0 00 000044 		MOVEM	44		;INTERRUPT TRAP
 47042	063666	7 004 20 0 00 002377 		CONO	PI,CHNON!PION!177	;TURN ON PI SYSTEM
 47043	063667	7 004 20 0 00 004050 		CONO	PI,REQSET!50	;REQUEST INTERRUPT ON TWO CHANNELS
 47044						STUCK^
 47045						WATINT^
 47046	063670	201 13 0 00 001000 		MOVEI	13,1000		;SET UP LOOP OF TEN TO WAIT FOR INT.
 47047	063671	367 13 0 00 063671 		SOJG	13,.		;AND WAIT^
 47048	063672	254 00 0 00 063672 		JRST	.		;LOOOP ON SELF^
 47049					^
 47050	063673				C2R:	TBOTH^
 47051						TGET^
 47052	063673	200 00 0 00 071350 		MOVE	TNUMB		;GET LAST PC STORED AND CHECK TO SEE
 47053	063674	302 00 0 00 063653 		CAIE	%X		;IF ITS WHERE WE REALLY SHOULD BE
 47054						STOP2^^
 47055	063675	254 04 0 00 063676 		HALT	.+1		;HALT IF WE SHOULDN'T BE HERE
 47056	063676	254 00 0 00 063677 		JRST	.+1		;WILD TRANSFER CAUSED THIS HALT.^
 47057
 47058						TSET^^
 47059			063677			%X=.			;DEFINE %X TO SAVE
 47060	063677	201 00 0 00 063677 		MOVEI	%X		;SAVE THIS PC IN CASE OF WILD TRANSFER
 47061	063700	202 00 0 00 071350 		MOVEM	TNUMB#		;BECAUSE OF PC MOD OR INTERRUPT^
 47062						XCHN2	C2S,46,30^
 47063
 47064					;REQUEST INTERRUPTS ON 2 CHANNELS AT ONCE TO SEE IF THEY TRAP
 47065					;TO THE CORRECT (I.E. HIGHEST PRIORITY) CHANNEL.
 47066					;IF ERROR OCCURS CHECK "PIN" PRINT
 47067
 47068						TRPCHK^
 47069	063701	332 00 0 00 030042 	..0124:	SKIPE	MONFLG		;RESET FLAGS IF IN MONITOR
 47070	063702	254 00 0 00 063705 		JRST	.+3		;DONT IF STAND ALONE
 47071	063703	254 02 1 00 063704 		JRSTF	@.+1		;AND RESTORE THEM
 47072	063704	000000	063705			USERF,.+1		;NEW PC AND FLAGS^
 47073						CLRBTH^
 47074	063705	700 04 0 00 267760 		CLRAPR
 47075	063706	700 14 0 00 031577 		CLRPI^
 47076	063707	264 00 0 00 070103 		HALTPI			;FILL INTERRUPT LOCATIONS WITH HALTS
 47077	063710	200 00 0 00 071136 		MOVE	[JSP C2S]		;SET UP FOR CORRECT
 47078	063711	202 00 0 00 000046 		MOVEM	46		;INTERRUPT TRAP
 47079	063712	7 004 20 0 00 002377 		CONO	PI,CHNON!PION!177	;TURN ON PI SYSTEM
 47080	063713	7 004 20 0 00 004030 		CONO	PI,REQSET!30	;REQUEST INTERRUPT ON TWO CHANNELS
 47081						STUCK^
 47082						WATINT^
DFKAA PDP-10 KL10 BASIC INSTRUCTION DIAGNOSTIC (1) VER 0,2	MACRO %53B(1254)-4 11:50 11-Nov-24 Page 39-12
DFKAA8	MAC	13-Jan-89 10:22		DUAL REQUEST TESTING

 47083	063714	201 13 0 00 001000 		MOVEI	13,1000		;SET UP LOOP OF TEN TO WAIT FOR INT.
 47084	063715	367 13 0 00 063715 		SOJG	13,.		;AND WAIT^
 47085	063716	254 00 0 00 063716 		JRST	.		;LOOOP ON SELF^
 47086					^
 47087	063717				C2S:	TBOTH^
 47088						TGET^
 47089	063717	200 00 0 00 071350 		MOVE	TNUMB		;GET LAST PC STORED AND CHECK TO SEE
 47090	063720	302 00 0 00 063677 		CAIE	%X		;IF ITS WHERE WE REALLY SHOULD BE
 47091						STOP2^^
 47092	063721	254 04 0 00 063722 		HALT	.+1		;HALT IF WE SHOULDN'T BE HERE
 47093	063722	254 00 0 00 063723 		JRST	.+1		;WILD TRANSFER CAUSED THIS HALT.^
 47094
 47095						TSET^^
 47096			063723			%X=.			;DEFINE %X TO SAVE
 47097	063723	201 00 0 00 063723 		MOVEI	%X		;SAVE THIS PC IN CASE OF WILD TRANSFER
 47098	063724	202 00 0 00 071350 		MOVEM	TNUMB#		;BECAUSE OF PC MOD OR INTERRUPT^
 47099						XCHN2	C2T,42,120^
 47100
 47101					;REQUEST INTERRUPTS ON 2 CHANNELS AT ONCE TO SEE IF THEY TRAP
 47102					;TO THE CORRECT (I.E. HIGHEST PRIORITY) CHANNEL.
 47103					;IF ERROR OCCURS CHECK "PIN" PRINT
 47104
 47105						TRPCHK^
 47106	063725	332 00 0 00 030042 	..0125:	SKIPE	MONFLG		;RESET FLAGS IF IN MONITOR
 47107	063726	254 00 0 00 063731 		JRST	.+3		;DONT IF STAND ALONE
 47108	063727	254 02 1 00 063730 		JRSTF	@.+1		;AND RESTORE THEM
 47109	063730	000000	063731			USERF,.+1		;NEW PC AND FLAGS^
 47110						CLRBTH^
 47111	063731	700 04 0 00 267760 		CLRAPR
 47112	063732	700 14 0 00 031577 		CLRPI^
 47113	063733	264 00 0 00 070103 		HALTPI			;FILL INTERRUPT LOCATIONS WITH HALTS
 47114	063734	200 00 0 00 071137 		MOVE	[JSP C2T]		;SET UP FOR CORRECT
 47115	063735	202 00 0 00 000042 		MOVEM	42		;INTERRUPT TRAP
 47116	063736	7 004 20 0 00 002377 		CONO	PI,CHNON!PION!177	;TURN ON PI SYSTEM
 47117	063737	7 004 20 0 00 004120 		CONO	PI,REQSET!120	;REQUEST INTERRUPT ON TWO CHANNELS
 47118						STUCK^
 47119						WATINT^
 47120	063740	201 13 0 00 001000 		MOVEI	13,1000		;SET UP LOOP OF TEN TO WAIT FOR INT.
 47121	063741	367 13 0 00 063741 		SOJG	13,.		;AND WAIT^
 47122	063742	254 00 0 00 063742 		JRST	.		;LOOOP ON SELF^
 47123					^
 47124	063743				C2T:	TBOTH^
 47125						TGET^
 47126	063743	200 00 0 00 071350 		MOVE	TNUMB		;GET LAST PC STORED AND CHECK TO SEE
 47127	063744	302 00 0 00 063723 		CAIE	%X		;IF ITS WHERE WE REALLY SHOULD BE
 47128						STOP2^^
 47129	063745	254 04 0 00 063746 		HALT	.+1		;HALT IF WE SHOULDN'T BE HERE
 47130	063746	254 00 0 00 063747 		JRST	.+1		;WILD TRANSFER CAUSED THIS HALT.^
 47131
 47132						TSET^^
 47133			063747			%X=.			;DEFINE %X TO SAVE
 47134	063747	201 00 0 00 063747 		MOVEI	%X		;SAVE THIS PC IN CASE OF WILD TRANSFER
 47135	063750	202 00 0 00 071350 		MOVEM	TNUMB#		;BECAUSE OF PC MOD OR INTERRUPT^
 47136						XCHN2	C2U,44,60^
 47137
DFKAA PDP-10 KL10 BASIC INSTRUCTION DIAGNOSTIC (1) VER 0,2	MACRO %53B(1254)-4 11:50 11-Nov-24 Page 39-13
DFKAA8	MAC	13-Jan-89 10:22		DUAL REQUEST TESTING

 47138					;REQUEST INTERRUPTS ON 2 CHANNELS AT ONCE TO SEE IF THEY TRAP
 47139					;TO THE CORRECT (I.E. HIGHEST PRIORITY) CHANNEL.
 47140					;IF ERROR OCCURS CHECK "PIN" PRINT
 47141
 47142						TRPCHK^
 47143	063751	332 00 0 00 030042 	..0126:	SKIPE	MONFLG		;RESET FLAGS IF IN MONITOR
 47144	063752	254 00 0 00 063755 		JRST	.+3		;DONT IF STAND ALONE
 47145	063753	254 02 1 00 063754 		JRSTF	@.+1		;AND RESTORE THEM
 47146	063754	000000	063755			USERF,.+1		;NEW PC AND FLAGS^
 47147						CLRBTH^
 47148	063755	700 04 0 00 267760 		CLRAPR
 47149	063756	700 14 0 00 031577 		CLRPI^
 47150	063757	264 00 0 00 070103 		HALTPI			;FILL INTERRUPT LOCATIONS WITH HALTS
 47151	063760	200 00 0 00 071140 		MOVE	[JSP C2U]		;SET UP FOR CORRECT
 47152	063761	202 00 0 00 000044 		MOVEM	44		;INTERRUPT TRAP
 47153	063762	7 004 20 0 00 002377 		CONO	PI,CHNON!PION!177	;TURN ON PI SYSTEM
 47154	063763	7 004 20 0 00 004060 		CONO	PI,REQSET!60	;REQUEST INTERRUPT ON TWO CHANNELS
 47155						STUCK^
 47156						WATINT^
 47157	063764	201 13 0 00 001000 		MOVEI	13,1000		;SET UP LOOP OF TEN TO WAIT FOR INT.
 47158	063765	367 13 0 00 063765 		SOJG	13,.		;AND WAIT^
 47159	063766	254 00 0 00 063766 		JRST	.		;LOOOP ON SELF^
 47160					^
 47161	063767				C2U:	TBOTH^
 47162						TGET^
 47163	063767	200 00 0 00 071350 		MOVE	TNUMB		;GET LAST PC STORED AND CHECK TO SEE
 47164	063770	302 00 0 00 063747 		CAIE	%X		;IF ITS WHERE WE REALLY SHOULD BE
 47165						STOP2^^
 47166	063771	254 04 0 00 063772 		HALT	.+1		;HALT IF WE SHOULDN'T BE HERE
 47167	063772	254 00 0 00 063773 		JRST	.+1		;WILD TRANSFER CAUSED THIS HALT.^
 47168
 47169						TSET^^
 47170			063773			%X=.			;DEFINE %X TO SAVE
 47171	063773	201 00 0 00 063773 		MOVEI	%X		;SAVE THIS PC IN CASE OF WILD TRANSFER
 47172	063774	202 00 0 00 071350 		MOVEM	TNUMB#		;BECAUSE OF PC MOD OR INTERRUPT^
 47173						XCHN2	C2V,42,140^
 47174
 47175					;REQUEST INTERRUPTS ON 2 CHANNELS AT ONCE TO SEE IF THEY TRAP
 47176					;TO THE CORRECT (I.E. HIGHEST PRIORITY) CHANNEL.
 47177					;IF ERROR OCCURS CHECK "PIN" PRINT
 47178
 47179						TRPCHK^
 47180	063775	332 00 0 00 030042 	..0127:	SKIPE	MONFLG		;RESET FLAGS IF IN MONITOR
 47181	063776	254 00 0 00 064001 		JRST	.+3		;DONT IF STAND ALONE
 47182	063777	254 02 1 00 064000 		JRSTF	@.+1		;AND RESTORE THEM
 47183	064000	000000	064001			USERF,.+1		;NEW PC AND FLAGS^
 47184						CLRBTH^
 47185	064001	700 04 0 00 267760 		CLRAPR
 47186	064002	700 14 0 00 031577 		CLRPI^
 47187	064003	264 00 0 00 070103 		HALTPI			;FILL INTERRUPT LOCATIONS WITH HALTS
 47188	064004	200 00 0 00 071141 		MOVE	[JSP C2V]		;SET UP FOR CORRECT
 47189	064005	202 00 0 00 000042 		MOVEM	42		;INTERRUPT TRAP
 47190	064006	7 004 20 0 00 002377 		CONO	PI,CHNON!PION!177	;TURN ON PI SYSTEM
 47191	064007	7 004 20 0 00 004140 		CONO	PI,REQSET!140	;REQUEST INTERRUPT ON TWO CHANNELS
 47192						STUCK^
DFKAA PDP-10 KL10 BASIC INSTRUCTION DIAGNOSTIC (1) VER 0,2	MACRO %53B(1254)-4 11:50 11-Nov-24 Page 39-14
DFKAA8	MAC	13-Jan-89 10:22		DUAL REQUEST TESTING

 47193						WATINT^
 47194	064010	201 13 0 00 001000 		MOVEI	13,1000		;SET UP LOOP OF TEN TO WAIT FOR INT.
 47195	064011	367 13 0 00 064011 		SOJG	13,.		;AND WAIT^
 47196	064012	254 00 0 00 064012 		JRST	.		;LOOOP ON SELF^
 47197					^
 47198	064013	255 00 0 00 000000 		JFCL
 47199	064014				C2V:	TGET^
 47200	064014	200 00 0 00 071350 		MOVE	TNUMB		;GET LAST PC STORED AND CHECK TO SEE
 47201	064015	302 00 0 00 063773 		CAIE	%X		;IF ITS WHERE WE REALLY SHOULD BE
 47202						STOP2^^
 47203	064016	254 04 0 00 064017 		HALT	.+1		;HALT IF WE SHOULDN'T BE HERE
 47204	064017	254 00 0 00 064020 		JRST	.+1		;WILD TRANSFER CAUSED THIS HALT.^
 47205						CLRBTH^
 47206	064020	700 04 0 00 267760 		CLRAPR
 47207	064021	700 14 0 00 031577 		CLRPI^
DFKAA PDP-10 KL10 BASIC INSTRUCTION DIAGNOSTIC (1) VER 0,2	MACRO %53B(1254)-4 11:50 11-Nov-24 Page 40
DFKAA8	MAC	13-Jan-89 10:22		BASIC NO-SKIP TESTING

 47208					SUBTTL	BASIC NO-SKIP TESTING
 47209					;TEST THE PREFORMANCE OF NO SKIPPING INSTRUCTIONS IN THE INTERRUPT LOCATIONS
 47210					;OUT OF EACH POSSIBLE INTERRUPT LOCATION
 47211
 47212			000100			X=100
 47213			000042			Y=42
 47214					SKIPNO:	REPEAT	7,<
 47215						PSKPA	Y,X
 47216						PSKPB	Y,X
 47217						Y=Y+2
 47218						X=X_-1
 47219					>
 47220
 47221						PSKPA	Y,X^
 47222
 47223					;TEST THAT AOSE DOES NOT DISMISS INTERRUPTS, OR SKIP WHEN EXECUTED AS
 47224					;AN INTERRUPT INSTRUCTION.
 47225
 47226						CLRBTH^
 47227	064022	700 04 0 00 267760 		CLRAPR
 47228	064023	700 14 0 00 031577 		CLRPI^
 47229	064024	264 00 0 00 070103 		HALTPI			;FILL INTERRUPT LOCATIONS WITH HALTS
 47230	064025	200 00 0 00 071142 		MOVE	[AOSE 0]	;PI TRAP INSTRUCTION
 47231	064026	202 00 0 00 000042 		MOVEM	Y		;INTO TRAP LOCATION
 47232	064027	200 00 0 00 071143 		MOVE	[JSP 1,..0130]	;SECOND TRAP INSTRUCTION
 47233	064030	202 00 0 00 000043 		MOVEM	Y+1		;INTO SECOND PI INSTRUCTION
 47234	064031	201 00 0 00 000001 		MOVEI	1		;SET AC TO NON ZERO
 47235	064032	7 004 20 0 00 006300 		CONO	PI,REQSET!PION!CHNON!X ;REQUEST INTERRUPT ON CH X
 47236
 47237					;IF WE FALL THROUGH THEN THE INTERRUPT WAS DISMISSED WHEN THE AOS FAILED
 47238
 47239						WATINT^
 47240	064033	201 13 0 00 001000 		MOVEI	13,1000		;SET UP LOOP OF TEN TO WAIT FOR INT.
 47241	064034	367 13 0 00 064034 		SOJG	13,.		;AND WAIT^
 47242						STOP^
 47243	064035	254 04 0 00 064036 		HALT	.+1		;INSTRUCTION FAILED REPLACE
 47244	064036	254 00 0 00 064037 		JRST	.+1		;WITH JRST BACK^
 47245	064037				..0130:	CLRBTH^
 47246	064037	700 04 0 00 267760 		CLRAPR
 47247	064040	700 14 0 00 031577 		CLRPI^
 47248	064041	302 00 0 00 000002 		CAIE	2		;ONLY ONE AOSE PREFORMED?
 47249						STOP^
 47250	064042	254 04 0 00 064043 		HALT	.+1		;INSTRUCTION FAILED REPLACE
 47251	064043	254 00 0 00 064044 		JRST	.+1		;WITH JRST BACK^
 47252					^
 47253						PSKPB	Y,X^
 47254
 47255					;CHECK THAT SKIPE DOES NOT SKIP, OR MODIFY THE AC, OR DISMISS
 47256					;THE INTERRUPT.
 47257
 47258						CLRBTH^
 47259	064044	700 04 0 00 267760 		CLRAPR
 47260	064045	700 14 0 00 031577 		CLRPI^
 47261	064046	264 00 0 00 070103 		HALTPI			;FILL INTERRUPT LOCATIONS WITH HALTS
 47262	064047	200 00 0 00 071144 		MOVE	[SKIPE 0,0]	;PI TRAP INSTRUCTION(SHOULD NOT SKIP)
DFKAA PDP-10 KL10 BASIC INSTRUCTION DIAGNOSTIC (1) VER 0,2	MACRO %53B(1254)-4 11:50 11-Nov-24 Page 40-1
DFKAA8	MAC	13-Jan-89 10:22		BASIC NO-SKIP TESTING

 47263	064050	202 00 0 00 000042 		MOVEM	Y		;INTO TRAP LOCATION
 47264	064051	200 00 0 00 071145 		MOVE	[JSP 1,..0131]	;SECOND TRAP INSTRUCTION
 47265	064052	202 00 0 00 000043 		MOVEM	Y+1		;INTO SECOND PI INSTRUCTION
 47266	064053	201 00 0 00 000001 		MOVEI	1		;SET AC TO NON ZERO
 47267	064054	7 004 20 0 00 006300 		CONO	PI,REQSET!PION!CHNON!X ;REQUEST INTERRUPT ON CH X
 47268
 47269					;IF WE FALL THROUGH TO HERE, THEN THE INT. WAS DISMISSED AND SHOULDN'T HAVE BEEN
 47270
 47271						WATINT^
 47272	064055	201 13 0 00 001000 		MOVEI	13,1000		;SET UP LOOP OF TEN TO WAIT FOR INT.
 47273	064056	367 13 0 00 064056 		SOJG	13,.		;AND WAIT^
 47274						STOP^
 47275	064057	254 04 0 00 064060 		HALT	.+1		;INSTRUCTION FAILED REPLACE
 47276	064060	254 00 0 00 064061 		JRST	.+1		;WITH JRST BACK^
 47277	064061				..0131:	CLRBTH^
 47278	064061	700 04 0 00 267760 		CLRAPR
 47279	064062	700 14 0 00 031577 		CLRPI^
 47280	064063	302 00 0 00 000001 		CAIE	1		;JUMPE SHOULD HAVE NOT MODIFIED THE AC
 47281						STOP^
 47282	064064	254 04 0 00 064065 		HALT	.+1		;INSTRUCTION FAILED REPLACE
 47283	064065	254 00 0 00 064066 		JRST	.+1		;WITH JRST BACK^
 47284					^
 47285			000044			Y=Y+2
 47286			000040			X=X_-1
 47287
 47288
 47289						PSKPA	Y,X^
 47290
 47291					;TEST THAT AOSE DOES NOT DISMISS INTERRUPTS, OR SKIP WHEN EXECUTED AS
 47292					;AN INTERRUPT INSTRUCTION.
 47293
 47294						CLRBTH^
 47295	064066	700 04 0 00 267760 		CLRAPR
 47296	064067	700 14 0 00 031577 		CLRPI^
 47297	064070	264 00 0 00 070103 		HALTPI			;FILL INTERRUPT LOCATIONS WITH HALTS
 47298	064071	200 00 0 00 071142 		MOVE	[AOSE 0]	;PI TRAP INSTRUCTION
 47299	064072	202 00 0 00 000044 		MOVEM	Y		;INTO TRAP LOCATION
 47300	064073	200 00 0 00 071146 		MOVE	[JSP 1,..0132]	;SECOND TRAP INSTRUCTION
 47301	064074	202 00 0 00 000045 		MOVEM	Y+1		;INTO SECOND PI INSTRUCTION
 47302	064075	201 00 0 00 000001 		MOVEI	1		;SET AC TO NON ZERO
 47303	064076	7 004 20 0 00 006240 		CONO	PI,REQSET!PION!CHNON!X ;REQUEST INTERRUPT ON CH X
 47304
 47305					;IF WE FALL THROUGH THEN THE INTERRUPT WAS DISMISSED WHEN THE AOS FAILED
 47306
 47307						WATINT^
 47308	064077	201 13 0 00 001000 		MOVEI	13,1000		;SET UP LOOP OF TEN TO WAIT FOR INT.
 47309	064100	367 13 0 00 064100 		SOJG	13,.		;AND WAIT^
 47310						STOP^
 47311	064101	254 04 0 00 064102 		HALT	.+1		;INSTRUCTION FAILED REPLACE
 47312	064102	254 00 0 00 064103 		JRST	.+1		;WITH JRST BACK^
 47313	064103				..0132:	CLRBTH^
 47314	064103	700 04 0 00 267760 		CLRAPR
 47315	064104	700 14 0 00 031577 		CLRPI^
 47316	064105	302 00 0 00 000002 		CAIE	2		;ONLY ONE AOSE PREFORMED?
 47317						STOP^
DFKAA PDP-10 KL10 BASIC INSTRUCTION DIAGNOSTIC (1) VER 0,2	MACRO %53B(1254)-4 11:50 11-Nov-24 Page 40-2
DFKAA8	MAC	13-Jan-89 10:22		BASIC NO-SKIP TESTING

 47318	064106	254 04 0 00 064107 		HALT	.+1		;INSTRUCTION FAILED REPLACE
 47319	064107	254 00 0 00 064110 		JRST	.+1		;WITH JRST BACK^
 47320					^
 47321						PSKPB	Y,X^
 47322
 47323					;CHECK THAT SKIPE DOES NOT SKIP, OR MODIFY THE AC, OR DISMISS
 47324					;THE INTERRUPT.
 47325
 47326						CLRBTH^
 47327	064110	700 04 0 00 267760 		CLRAPR
 47328	064111	700 14 0 00 031577 		CLRPI^
 47329	064112	264 00 0 00 070103 		HALTPI			;FILL INTERRUPT LOCATIONS WITH HALTS
 47330	064113	200 00 0 00 071144 		MOVE	[SKIPE 0,0]	;PI TRAP INSTRUCTION(SHOULD NOT SKIP)
 47331	064114	202 00 0 00 000044 		MOVEM	Y		;INTO TRAP LOCATION
 47332	064115	200 00 0 00 071147 		MOVE	[JSP 1,..0133]	;SECOND TRAP INSTRUCTION
 47333	064116	202 00 0 00 000045 		MOVEM	Y+1		;INTO SECOND PI INSTRUCTION
 47334	064117	201 00 0 00 000001 		MOVEI	1		;SET AC TO NON ZERO
 47335	064120	7 004 20 0 00 006240 		CONO	PI,REQSET!PION!CHNON!X ;REQUEST INTERRUPT ON CH X
 47336
 47337					;IF WE FALL THROUGH TO HERE, THEN THE INT. WAS DISMISSED AND SHOULDN'T HAVE BEEN
 47338
 47339						WATINT^
 47340	064121	201 13 0 00 001000 		MOVEI	13,1000		;SET UP LOOP OF TEN TO WAIT FOR INT.
 47341	064122	367 13 0 00 064122 		SOJG	13,.		;AND WAIT^
 47342						STOP^
 47343	064123	254 04 0 00 064124 		HALT	.+1		;INSTRUCTION FAILED REPLACE
 47344	064124	254 00 0 00 064125 		JRST	.+1		;WITH JRST BACK^
 47345	064125				..0133:	CLRBTH^
 47346	064125	700 04 0 00 267760 		CLRAPR
 47347	064126	700 14 0 00 031577 		CLRPI^
 47348	064127	302 00 0 00 000001 		CAIE	1		;JUMPE SHOULD HAVE NOT MODIFIED THE AC
 47349						STOP^
 47350	064130	254 04 0 00 064131 		HALT	.+1		;INSTRUCTION FAILED REPLACE
 47351	064131	254 00 0 00 064132 		JRST	.+1		;WITH JRST BACK^
 47352					^
 47353			000046			Y=Y+2
 47354			000020			X=X_-1
 47355
 47356
 47357						PSKPA	Y,X^
 47358
 47359					;TEST THAT AOSE DOES NOT DISMISS INTERRUPTS, OR SKIP WHEN EXECUTED AS
 47360					;AN INTERRUPT INSTRUCTION.
 47361
 47362						CLRBTH^
 47363	064132	700 04 0 00 267760 		CLRAPR
 47364	064133	700 14 0 00 031577 		CLRPI^
 47365	064134	264 00 0 00 070103 		HALTPI			;FILL INTERRUPT LOCATIONS WITH HALTS
 47366	064135	200 00 0 00 071142 		MOVE	[AOSE 0]	;PI TRAP INSTRUCTION
 47367	064136	202 00 0 00 000046 		MOVEM	Y		;INTO TRAP LOCATION
 47368	064137	200 00 0 00 071150 		MOVE	[JSP 1,..0134]	;SECOND TRAP INSTRUCTION
 47369	064140	202 00 0 00 000047 		MOVEM	Y+1		;INTO SECOND PI INSTRUCTION
 47370	064141	201 00 0 00 000001 		MOVEI	1		;SET AC TO NON ZERO
 47371	064142	7 004 20 0 00 006220 		CONO	PI,REQSET!PION!CHNON!X ;REQUEST INTERRUPT ON CH X
 47372
DFKAA PDP-10 KL10 BASIC INSTRUCTION DIAGNOSTIC (1) VER 0,2	MACRO %53B(1254)-4 11:50 11-Nov-24 Page 40-3
DFKAA8	MAC	13-Jan-89 10:22		BASIC NO-SKIP TESTING

 47373					;IF WE FALL THROUGH THEN THE INTERRUPT WAS DISMISSED WHEN THE AOS FAILED
 47374
 47375						WATINT^
 47376	064143	201 13 0 00 001000 		MOVEI	13,1000		;SET UP LOOP OF TEN TO WAIT FOR INT.
 47377	064144	367 13 0 00 064144 		SOJG	13,.		;AND WAIT^
 47378						STOP^
 47379	064145	254 04 0 00 064146 		HALT	.+1		;INSTRUCTION FAILED REPLACE
 47380	064146	254 00 0 00 064147 		JRST	.+1		;WITH JRST BACK^
 47381	064147				..0134:	CLRBTH^
 47382	064147	700 04 0 00 267760 		CLRAPR
 47383	064150	700 14 0 00 031577 		CLRPI^
 47384	064151	302 00 0 00 000002 		CAIE	2		;ONLY ONE AOSE PREFORMED?
 47385						STOP^
 47386	064152	254 04 0 00 064153 		HALT	.+1		;INSTRUCTION FAILED REPLACE
 47387	064153	254 00 0 00 064154 		JRST	.+1		;WITH JRST BACK^
 47388					^
 47389						PSKPB	Y,X^
 47390
 47391					;CHECK THAT SKIPE DOES NOT SKIP, OR MODIFY THE AC, OR DISMISS
 47392					;THE INTERRUPT.
 47393
 47394						CLRBTH^
 47395	064154	700 04 0 00 267760 		CLRAPR
 47396	064155	700 14 0 00 031577 		CLRPI^
 47397	064156	264 00 0 00 070103 		HALTPI			;FILL INTERRUPT LOCATIONS WITH HALTS
 47398	064157	200 00 0 00 071144 		MOVE	[SKIPE 0,0]	;PI TRAP INSTRUCTION(SHOULD NOT SKIP)
 47399	064160	202 00 0 00 000046 		MOVEM	Y		;INTO TRAP LOCATION
 47400	064161	200 00 0 00 071151 		MOVE	[JSP 1,..0135]	;SECOND TRAP INSTRUCTION
 47401	064162	202 00 0 00 000047 		MOVEM	Y+1		;INTO SECOND PI INSTRUCTION
 47402	064163	201 00 0 00 000001 		MOVEI	1		;SET AC TO NON ZERO
 47403	064164	7 004 20 0 00 006220 		CONO	PI,REQSET!PION!CHNON!X ;REQUEST INTERRUPT ON CH X
 47404
 47405					;IF WE FALL THROUGH TO HERE, THEN THE INT. WAS DISMISSED AND SHOULDN'T HAVE BEEN
 47406
 47407						WATINT^
 47408	064165	201 13 0 00 001000 		MOVEI	13,1000		;SET UP LOOP OF TEN TO WAIT FOR INT.
 47409	064166	367 13 0 00 064166 		SOJG	13,.		;AND WAIT^
 47410						STOP^
 47411	064167	254 04 0 00 064170 		HALT	.+1		;INSTRUCTION FAILED REPLACE
 47412	064170	254 00 0 00 064171 		JRST	.+1		;WITH JRST BACK^
 47413	064171				..0135:	CLRBTH^
 47414	064171	700 04 0 00 267760 		CLRAPR
 47415	064172	700 14 0 00 031577 		CLRPI^
 47416	064173	302 00 0 00 000001 		CAIE	1		;JUMPE SHOULD HAVE NOT MODIFIED THE AC
 47417						STOP^
 47418	064174	254 04 0 00 064175 		HALT	.+1		;INSTRUCTION FAILED REPLACE
 47419	064175	254 00 0 00 064176 		JRST	.+1		;WITH JRST BACK^
 47420					^
 47421			000050			Y=Y+2
 47422			000010			X=X_-1
 47423
 47424
 47425						PSKPA	Y,X^
 47426
 47427					;TEST THAT AOSE DOES NOT DISMISS INTERRUPTS, OR SKIP WHEN EXECUTED AS
DFKAA PDP-10 KL10 BASIC INSTRUCTION DIAGNOSTIC (1) VER 0,2	MACRO %53B(1254)-4 11:50 11-Nov-24 Page 40-4
DFKAA8	MAC	13-Jan-89 10:22		BASIC NO-SKIP TESTING

 47428					;AN INTERRUPT INSTRUCTION.
 47429
 47430						CLRBTH^
 47431	064176	700 04 0 00 267760 		CLRAPR
 47432	064177	700 14 0 00 031577 		CLRPI^
 47433	064200	264 00 0 00 070103 		HALTPI			;FILL INTERRUPT LOCATIONS WITH HALTS
 47434	064201	200 00 0 00 071142 		MOVE	[AOSE 0]	;PI TRAP INSTRUCTION
 47435	064202	202 00 0 00 000050 		MOVEM	Y		;INTO TRAP LOCATION
 47436	064203	200 00 0 00 071152 		MOVE	[JSP 1,..0136]	;SECOND TRAP INSTRUCTION
 47437	064204	202 00 0 00 000051 		MOVEM	Y+1		;INTO SECOND PI INSTRUCTION
 47438	064205	201 00 0 00 000001 		MOVEI	1		;SET AC TO NON ZERO
 47439	064206	7 004 20 0 00 006210 		CONO	PI,REQSET!PION!CHNON!X ;REQUEST INTERRUPT ON CH X
 47440
 47441					;IF WE FALL THROUGH THEN THE INTERRUPT WAS DISMISSED WHEN THE AOS FAILED
 47442
 47443						WATINT^
 47444	064207	201 13 0 00 001000 		MOVEI	13,1000		;SET UP LOOP OF TEN TO WAIT FOR INT.
 47445	064210	367 13 0 00 064210 		SOJG	13,.		;AND WAIT^
 47446						STOP^
 47447	064211	254 04 0 00 064212 		HALT	.+1		;INSTRUCTION FAILED REPLACE
 47448	064212	254 00 0 00 064213 		JRST	.+1		;WITH JRST BACK^
 47449	064213				..0136:	CLRBTH^
 47450	064213	700 04 0 00 267760 		CLRAPR
 47451	064214	700 14 0 00 031577 		CLRPI^
 47452	064215	302 00 0 00 000002 		CAIE	2		;ONLY ONE AOSE PREFORMED?
 47453						STOP^
 47454	064216	254 04 0 00 064217 		HALT	.+1		;INSTRUCTION FAILED REPLACE
 47455	064217	254 00 0 00 064220 		JRST	.+1		;WITH JRST BACK^
 47456					^
 47457						PSKPB	Y,X^
 47458
 47459					;CHECK THAT SKIPE DOES NOT SKIP, OR MODIFY THE AC, OR DISMISS
 47460					;THE INTERRUPT.
 47461
 47462						CLRBTH^
 47463	064220	700 04 0 00 267760 		CLRAPR
 47464	064221	700 14 0 00 031577 		CLRPI^
 47465	064222	264 00 0 00 070103 		HALTPI			;FILL INTERRUPT LOCATIONS WITH HALTS
 47466	064223	200 00 0 00 071144 		MOVE	[SKIPE 0,0]	;PI TRAP INSTRUCTION(SHOULD NOT SKIP)
 47467	064224	202 00 0 00 000050 		MOVEM	Y		;INTO TRAP LOCATION
 47468	064225	200 00 0 00 071153 		MOVE	[JSP 1,..0137]	;SECOND TRAP INSTRUCTION
 47469	064226	202 00 0 00 000051 		MOVEM	Y+1		;INTO SECOND PI INSTRUCTION
 47470	064227	201 00 0 00 000001 		MOVEI	1		;SET AC TO NON ZERO
 47471	064230	7 004 20 0 00 006210 		CONO	PI,REQSET!PION!CHNON!X ;REQUEST INTERRUPT ON CH X
 47472
 47473					;IF WE FALL THROUGH TO HERE, THEN THE INT. WAS DISMISSED AND SHOULDN'T HAVE BEEN
 47474
 47475						WATINT^
 47476	064231	201 13 0 00 001000 		MOVEI	13,1000		;SET UP LOOP OF TEN TO WAIT FOR INT.
 47477	064232	367 13 0 00 064232 		SOJG	13,.		;AND WAIT^
 47478						STOP^
 47479	064233	254 04 0 00 064234 		HALT	.+1		;INSTRUCTION FAILED REPLACE
 47480	064234	254 00 0 00 064235 		JRST	.+1		;WITH JRST BACK^
 47481	064235				..0137:	CLRBTH^
 47482	064235	700 04 0 00 267760 		CLRAPR
DFKAA PDP-10 KL10 BASIC INSTRUCTION DIAGNOSTIC (1) VER 0,2	MACRO %53B(1254)-4 11:50 11-Nov-24 Page 40-5
DFKAA8	MAC	13-Jan-89 10:22		BASIC NO-SKIP TESTING

 47483	064236	700 14 0 00 031577 		CLRPI^
 47484	064237	302 00 0 00 000001 		CAIE	1		;JUMPE SHOULD HAVE NOT MODIFIED THE AC
 47485						STOP^
 47486	064240	254 04 0 00 064241 		HALT	.+1		;INSTRUCTION FAILED REPLACE
 47487	064241	254 00 0 00 064242 		JRST	.+1		;WITH JRST BACK^
 47488					^
 47489			000052			Y=Y+2
 47490			000004			X=X_-1
 47491
 47492
 47493						PSKPA	Y,X^
 47494
 47495					;TEST THAT AOSE DOES NOT DISMISS INTERRUPTS, OR SKIP WHEN EXECUTED AS
 47496					;AN INTERRUPT INSTRUCTION.
 47497
 47498						CLRBTH^
 47499	064242	700 04 0 00 267760 		CLRAPR
 47500	064243	700 14 0 00 031577 		CLRPI^
 47501	064244	264 00 0 00 070103 		HALTPI			;FILL INTERRUPT LOCATIONS WITH HALTS
 47502	064245	200 00 0 00 071142 		MOVE	[AOSE 0]	;PI TRAP INSTRUCTION
 47503	064246	202 00 0 00 000052 		MOVEM	Y		;INTO TRAP LOCATION
 47504	064247	200 00 0 00 071154 		MOVE	[JSP 1,..0140]	;SECOND TRAP INSTRUCTION
 47505	064250	202 00 0 00 000053 		MOVEM	Y+1		;INTO SECOND PI INSTRUCTION
 47506	064251	201 00 0 00 000001 		MOVEI	1		;SET AC TO NON ZERO
 47507	064252	7 004 20 0 00 006204 		CONO	PI,REQSET!PION!CHNON!X ;REQUEST INTERRUPT ON CH X
 47508
 47509					;IF WE FALL THROUGH THEN THE INTERRUPT WAS DISMISSED WHEN THE AOS FAILED
 47510
 47511						WATINT^
 47512	064253	201 13 0 00 001000 		MOVEI	13,1000		;SET UP LOOP OF TEN TO WAIT FOR INT.
 47513	064254	367 13 0 00 064254 		SOJG	13,.		;AND WAIT^
 47514						STOP^
 47515	064255	254 04 0 00 064256 		HALT	.+1		;INSTRUCTION FAILED REPLACE
 47516	064256	254 00 0 00 064257 		JRST	.+1		;WITH JRST BACK^
 47517	064257				..0140:	CLRBTH^
 47518	064257	700 04 0 00 267760 		CLRAPR
 47519	064260	700 14 0 00 031577 		CLRPI^
 47520	064261	302 00 0 00 000002 		CAIE	2		;ONLY ONE AOSE PREFORMED?
 47521						STOP^
 47522	064262	254 04 0 00 064263 		HALT	.+1		;INSTRUCTION FAILED REPLACE
 47523	064263	254 00 0 00 064264 		JRST	.+1		;WITH JRST BACK^
 47524					^
 47525						PSKPB	Y,X^
 47526
 47527					;CHECK THAT SKIPE DOES NOT SKIP, OR MODIFY THE AC, OR DISMISS
 47528					;THE INTERRUPT.
 47529
 47530						CLRBTH^
 47531	064264	700 04 0 00 267760 		CLRAPR
 47532	064265	700 14 0 00 031577 		CLRPI^
 47533	064266	264 00 0 00 070103 		HALTPI			;FILL INTERRUPT LOCATIONS WITH HALTS
 47534	064267	200 00 0 00 071144 		MOVE	[SKIPE 0,0]	;PI TRAP INSTRUCTION(SHOULD NOT SKIP)
 47535	064270	202 00 0 00 000052 		MOVEM	Y		;INTO TRAP LOCATION
 47536	064271	200 00 0 00 071155 		MOVE	[JSP 1,..0141]	;SECOND TRAP INSTRUCTION
 47537	064272	202 00 0 00 000053 		MOVEM	Y+1		;INTO SECOND PI INSTRUCTION
DFKAA PDP-10 KL10 BASIC INSTRUCTION DIAGNOSTIC (1) VER 0,2	MACRO %53B(1254)-4 11:50 11-Nov-24 Page 40-6
DFKAA8	MAC	13-Jan-89 10:22		BASIC NO-SKIP TESTING

 47538	064273	201 00 0 00 000001 		MOVEI	1		;SET AC TO NON ZERO
 47539	064274	7 004 20 0 00 006204 		CONO	PI,REQSET!PION!CHNON!X ;REQUEST INTERRUPT ON CH X
 47540
 47541					;IF WE FALL THROUGH TO HERE, THEN THE INT. WAS DISMISSED AND SHOULDN'T HAVE BEEN
 47542
 47543						WATINT^
 47544	064275	201 13 0 00 001000 		MOVEI	13,1000		;SET UP LOOP OF TEN TO WAIT FOR INT.
 47545	064276	367 13 0 00 064276 		SOJG	13,.		;AND WAIT^
 47546						STOP^
 47547	064277	254 04 0 00 064300 		HALT	.+1		;INSTRUCTION FAILED REPLACE
 47548	064300	254 00 0 00 064301 		JRST	.+1		;WITH JRST BACK^
 47549	064301				..0141:	CLRBTH^
 47550	064301	700 04 0 00 267760 		CLRAPR
 47551	064302	700 14 0 00 031577 		CLRPI^
 47552	064303	302 00 0 00 000001 		CAIE	1		;JUMPE SHOULD HAVE NOT MODIFIED THE AC
 47553						STOP^
 47554	064304	254 04 0 00 064305 		HALT	.+1		;INSTRUCTION FAILED REPLACE
 47555	064305	254 00 0 00 064306 		JRST	.+1		;WITH JRST BACK^
 47556					^
 47557			000054			Y=Y+2
 47558			000002			X=X_-1
 47559
 47560
 47561						PSKPA	Y,X^
 47562
 47563					;TEST THAT AOSE DOES NOT DISMISS INTERRUPTS, OR SKIP WHEN EXECUTED AS
 47564					;AN INTERRUPT INSTRUCTION.
 47565
 47566						CLRBTH^
 47567	064306	700 04 0 00 267760 		CLRAPR
 47568	064307	700 14 0 00 031577 		CLRPI^
 47569	064310	264 00 0 00 070103 		HALTPI			;FILL INTERRUPT LOCATIONS WITH HALTS
 47570	064311	200 00 0 00 071142 		MOVE	[AOSE 0]	;PI TRAP INSTRUCTION
 47571	064312	202 00 0 00 000054 		MOVEM	Y		;INTO TRAP LOCATION
 47572	064313	200 00 0 00 071156 		MOVE	[JSP 1,..0142]	;SECOND TRAP INSTRUCTION
 47573	064314	202 00 0 00 000055 		MOVEM	Y+1		;INTO SECOND PI INSTRUCTION
 47574	064315	201 00 0 00 000001 		MOVEI	1		;SET AC TO NON ZERO
 47575	064316	7 004 20 0 00 006202 		CONO	PI,REQSET!PION!CHNON!X ;REQUEST INTERRUPT ON CH X
 47576
 47577					;IF WE FALL THROUGH THEN THE INTERRUPT WAS DISMISSED WHEN THE AOS FAILED
 47578
 47579						WATINT^
 47580	064317	201 13 0 00 001000 		MOVEI	13,1000		;SET UP LOOP OF TEN TO WAIT FOR INT.
 47581	064320	367 13 0 00 064320 		SOJG	13,.		;AND WAIT^
 47582						STOP^
 47583	064321	254 04 0 00 064322 		HALT	.+1		;INSTRUCTION FAILED REPLACE
 47584	064322	254 00 0 00 064323 		JRST	.+1		;WITH JRST BACK^
 47585	064323				..0142:	CLRBTH^
 47586	064323	700 04 0 00 267760 		CLRAPR
 47587	064324	700 14 0 00 031577 		CLRPI^
 47588	064325	302 00 0 00 000002 		CAIE	2		;ONLY ONE AOSE PREFORMED?
 47589						STOP^
 47590	064326	254 04 0 00 064327 		HALT	.+1		;INSTRUCTION FAILED REPLACE
 47591	064327	254 00 0 00 064330 		JRST	.+1		;WITH JRST BACK^
 47592					^
DFKAA PDP-10 KL10 BASIC INSTRUCTION DIAGNOSTIC (1) VER 0,2	MACRO %53B(1254)-4 11:50 11-Nov-24 Page 40-7
DFKAA8	MAC	13-Jan-89 10:22		BASIC NO-SKIP TESTING

 47593						PSKPB	Y,X^
 47594
 47595					;CHECK THAT SKIPE DOES NOT SKIP, OR MODIFY THE AC, OR DISMISS
 47596					;THE INTERRUPT.
 47597
 47598						CLRBTH^
 47599	064330	700 04 0 00 267760 		CLRAPR
 47600	064331	700 14 0 00 031577 		CLRPI^
 47601	064332	264 00 0 00 070103 		HALTPI			;FILL INTERRUPT LOCATIONS WITH HALTS
 47602	064333	200 00 0 00 071144 		MOVE	[SKIPE 0,0]	;PI TRAP INSTRUCTION(SHOULD NOT SKIP)
 47603	064334	202 00 0 00 000054 		MOVEM	Y		;INTO TRAP LOCATION
 47604	064335	200 00 0 00 071157 		MOVE	[JSP 1,..0143]	;SECOND TRAP INSTRUCTION
 47605	064336	202 00 0 00 000055 		MOVEM	Y+1		;INTO SECOND PI INSTRUCTION
 47606	064337	201 00 0 00 000001 		MOVEI	1		;SET AC TO NON ZERO
 47607	064340	7 004 20 0 00 006202 		CONO	PI,REQSET!PION!CHNON!X ;REQUEST INTERRUPT ON CH X
 47608
 47609					;IF WE FALL THROUGH TO HERE, THEN THE INT. WAS DISMISSED AND SHOULDN'T HAVE BEEN
 47610
 47611						WATINT^
 47612	064341	201 13 0 00 001000 		MOVEI	13,1000		;SET UP LOOP OF TEN TO WAIT FOR INT.
 47613	064342	367 13 0 00 064342 		SOJG	13,.		;AND WAIT^
 47614						STOP^
 47615	064343	254 04 0 00 064344 		HALT	.+1		;INSTRUCTION FAILED REPLACE
 47616	064344	254 00 0 00 064345 		JRST	.+1		;WITH JRST BACK^
 47617	064345				..0143:	CLRBTH^
 47618	064345	700 04 0 00 267760 		CLRAPR
 47619	064346	700 14 0 00 031577 		CLRPI^
 47620	064347	302 00 0 00 000001 		CAIE	1		;JUMPE SHOULD HAVE NOT MODIFIED THE AC
 47621						STOP^
 47622	064350	254 04 0 00 064351 		HALT	.+1		;INSTRUCTION FAILED REPLACE
 47623	064351	254 00 0 00 064352 		JRST	.+1		;WITH JRST BACK^
 47624					^
 47625			000056			Y=Y+2
 47626			000001			X=X_-1
 47627
 47628
 47629						PSKPA	Y,X^
 47630
 47631					;TEST THAT AOSE DOES NOT DISMISS INTERRUPTS, OR SKIP WHEN EXECUTED AS
 47632					;AN INTERRUPT INSTRUCTION.
 47633
 47634						CLRBTH^
 47635	064352	700 04 0 00 267760 		CLRAPR
 47636	064353	700 14 0 00 031577 		CLRPI^
 47637	064354	264 00 0 00 070103 		HALTPI			;FILL INTERRUPT LOCATIONS WITH HALTS
 47638	064355	200 00 0 00 071142 		MOVE	[AOSE 0]	;PI TRAP INSTRUCTION
 47639	064356	202 00 0 00 000056 		MOVEM	Y		;INTO TRAP LOCATION
 47640	064357	200 00 0 00 071160 		MOVE	[JSP 1,..0144]	;SECOND TRAP INSTRUCTION
 47641	064360	202 00 0 00 000057 		MOVEM	Y+1		;INTO SECOND PI INSTRUCTION
 47642	064361	201 00 0 00 000001 		MOVEI	1		;SET AC TO NON ZERO
 47643	064362	7 004 20 0 00 006201 		CONO	PI,REQSET!PION!CHNON!X ;REQUEST INTERRUPT ON CH X
 47644
 47645					;IF WE FALL THROUGH THEN THE INTERRUPT WAS DISMISSED WHEN THE AOS FAILED
 47646
 47647						WATINT^
DFKAA PDP-10 KL10 BASIC INSTRUCTION DIAGNOSTIC (1) VER 0,2	MACRO %53B(1254)-4 11:50 11-Nov-24 Page 40-8
DFKAA8	MAC	13-Jan-89 10:22		BASIC NO-SKIP TESTING

 47648	064363	201 13 0 00 001000 		MOVEI	13,1000		;SET UP LOOP OF TEN TO WAIT FOR INT.
 47649	064364	367 13 0 00 064364 		SOJG	13,.		;AND WAIT^
 47650						STOP^
 47651	064365	254 04 0 00 064366 		HALT	.+1		;INSTRUCTION FAILED REPLACE
 47652	064366	254 00 0 00 064367 		JRST	.+1		;WITH JRST BACK^
 47653	064367				..0144:	CLRBTH^
 47654	064367	700 04 0 00 267760 		CLRAPR
 47655	064370	700 14 0 00 031577 		CLRPI^
 47656	064371	302 00 0 00 000002 		CAIE	2		;ONLY ONE AOSE PREFORMED?
 47657						STOP^
 47658	064372	254 04 0 00 064373 		HALT	.+1		;INSTRUCTION FAILED REPLACE
 47659	064373	254 00 0 00 064374 		JRST	.+1		;WITH JRST BACK^
 47660					^
 47661						PSKPB	Y,X^
 47662
 47663					;CHECK THAT SKIPE DOES NOT SKIP, OR MODIFY THE AC, OR DISMISS
 47664					;THE INTERRUPT.
 47665
 47666						CLRBTH^
 47667	064374	700 04 0 00 267760 		CLRAPR
 47668	064375	700 14 0 00 031577 		CLRPI^
 47669	064376	264 00 0 00 070103 		HALTPI			;FILL INTERRUPT LOCATIONS WITH HALTS
 47670	064377	200 00 0 00 071144 		MOVE	[SKIPE 0,0]	;PI TRAP INSTRUCTION(SHOULD NOT SKIP)
 47671	064400	202 00 0 00 000056 		MOVEM	Y		;INTO TRAP LOCATION
 47672	064401	200 00 0 00 071161 		MOVE	[JSP 1,..0145]	;SECOND TRAP INSTRUCTION
 47673	064402	202 00 0 00 000057 		MOVEM	Y+1		;INTO SECOND PI INSTRUCTION
 47674	064403	201 00 0 00 000001 		MOVEI	1		;SET AC TO NON ZERO
 47675	064404	7 004 20 0 00 006201 		CONO	PI,REQSET!PION!CHNON!X ;REQUEST INTERRUPT ON CH X
 47676
 47677					;IF WE FALL THROUGH TO HERE, THEN THE INT. WAS DISMISSED AND SHOULDN'T HAVE BEEN
 47678
 47679						WATINT^
 47680	064405	201 13 0 00 001000 		MOVEI	13,1000		;SET UP LOOP OF TEN TO WAIT FOR INT.
 47681	064406	367 13 0 00 064406 		SOJG	13,.		;AND WAIT^
 47682						STOP^
 47683	064407	254 04 0 00 064410 		HALT	.+1		;INSTRUCTION FAILED REPLACE
 47684	064410	254 00 0 00 064411 		JRST	.+1		;WITH JRST BACK^
 47685	064411				..0145:	CLRBTH^
 47686	064411	700 04 0 00 267760 		CLRAPR
 47687	064412	700 14 0 00 031577 		CLRPI^
 47688	064413	302 00 0 00 000001 		CAIE	1		;JUMPE SHOULD HAVE NOT MODIFIED THE AC
 47689						STOP^
 47690	064414	254 04 0 00 064415 		HALT	.+1		;INSTRUCTION FAILED REPLACE
 47691	064415	254 00 0 00 064416 		JRST	.+1		;WITH JRST BACK^
 47692					^
 47693			000060			Y=Y+2
 47694			000000			X=X_-1
 47695
DFKAA PDP-10 KL10 BASIC INSTRUCTION DIAGNOSTIC (1) VER 0,2	MACRO %53B(1254)-4 11:50 11-Nov-24 Page 41
DFKAA8	MAC	13-Jan-89 10:22		TEST THE ABILITY TO DISMISS INTERRUPTS

 47696					SUBTTL	TEST THE ABILITY TO DISMISS INTERRUPTS
 47697					;CHECK THAT "JEN" DISMISSES INTERRUPTS
 47698
 47699
 47700			000042			X=42
 47701			000100			Z1=100
 47702					JENDIS:	REPEAT	7,<
 47703						PIDIS	X,Z1
 47704
 47705						X=X+2
 47706						Z1=Z1_-1
 47707					>
 47708
 47709						PIDIS	X,Z1^
 47710
 47711					;CHECK THAT X JEN WILL DISMISS INTERUPTS ON ALL CHANNELS
 47712
 47713						TSET^
 47714			064416			%X=.			;DEFINE %X TO SAVE
 47715	064416	201 00 0 00 064416 		MOVEI	%X		;SAVE THIS PC IN CASE OF WILD TRANSFER
 47716	064417	202 00 0 00 071350 		MOVEM	TNUMB#		;BECAUSE OF PC MOD OR INTERRUPT^
 47717	064420	200 00 0 00 071162 	..0146:	MOVE	[JSP 1,.+6]	;PUT THE PI TRAP INSTRUCTION
 47718	064421	202 00 0 00 000042 		MOVEM	X		;INTO X
 47719	064422	7 004 20 0 00 006300 		CONO	PI,CHNON+PION+REQSET+Z1	;TURN ON PI AND REQEST ON CH Z1
 47720						WATINT^
 47721	064423	201 13 0 00 001000 		MOVEI	13,1000		;SET UP LOOP OF TEN TO WAIT FOR INT.
 47722	064424	367 13 0 00 064424 		SOJG	13,.		;AND WAIT^
 47723	064425	254 00 0 00 064430 		JRST	.+3
 47724	064426	7 004 20 0 00 022300 		CONO	PI,CHNON+PION+LRQCLR+Z1	;TURN OF INTERRUPT REQUEST
 47725	064427	254 12 1 00 000001 		JEN	@1		;DISMISS THE INTERRUPT
 47726	064430	7 004 30 0 00 077400 		CONSZ	PI,77400	;NO REQUESTS SHOULD BE SET
 47727						STOP^
 47728	064431	254 04 0 00 064432 		HALT	.+1		;INSTRUCTION FAILED REPLACE
 47729	064432	254 00 0 00 064433 		JRST	.+1		;WITH JRST BACK^
 47730						TGET^
 47731	064433	200 00 0 00 071350 		MOVE	TNUMB		;GET LAST PC STORED AND CHECK TO SEE
 47732	064434	302 00 0 00 064416 		CAIE	%X		;IF ITS WHERE WE REALLY SHOULD BE
 47733						STOP2^^
 47734	064435	254 04 0 00 064436 		HALT	.+1		;HALT IF WE SHOULDN'T BE HERE
 47735	064436	254 00 0 00 064437 		JRST	.+1		;WILD TRANSFER CAUSED THIS HALT.^
 47736						CLRBTH^
 47737	064437	700 04 0 00 267760 		CLRAPR
 47738	064440	700 14 0 00 031577 		CLRPI^
 47739					^
 47740
 47741			000044			X=X+2
 47742			000040			Z1=Z1_-1
 47743
 47744
 47745						PIDIS	X,Z1^
 47746
 47747					;CHECK THAT X JEN WILL DISMISS INTERUPTS ON ALL CHANNELS
 47748
 47749						TSET^
 47750			064441			%X=.			;DEFINE %X TO SAVE
DFKAA PDP-10 KL10 BASIC INSTRUCTION DIAGNOSTIC (1) VER 0,2	MACRO %53B(1254)-4 11:50 11-Nov-24 Page 41-1
DFKAA8	MAC	13-Jan-89 10:22		TEST THE ABILITY TO DISMISS INTERRUPTS

 47751	064441	201 00 0 00 064441 		MOVEI	%X		;SAVE THIS PC IN CASE OF WILD TRANSFER
 47752	064442	202 00 0 00 071350 		MOVEM	TNUMB#		;BECAUSE OF PC MOD OR INTERRUPT^
 47753	064443	200 00 0 00 071163 	..0147:	MOVE	[JSP 1,.+6]	;PUT THE PI TRAP INSTRUCTION
 47754	064444	202 00 0 00 000044 		MOVEM	X		;INTO X
 47755	064445	7 004 20 0 00 006240 		CONO	PI,CHNON+PION+REQSET+Z1	;TURN ON PI AND REQEST ON CH Z1
 47756						WATINT^
 47757	064446	201 13 0 00 001000 		MOVEI	13,1000		;SET UP LOOP OF TEN TO WAIT FOR INT.
 47758	064447	367 13 0 00 064447 		SOJG	13,.		;AND WAIT^
 47759	064450	254 00 0 00 064453 		JRST	.+3
 47760	064451	7 004 20 0 00 022240 		CONO	PI,CHNON+PION+LRQCLR+Z1	;TURN OF INTERRUPT REQUEST
 47761	064452	254 12 1 00 000001 		JEN	@1		;DISMISS THE INTERRUPT
 47762	064453	7 004 30 0 00 077400 		CONSZ	PI,77400	;NO REQUESTS SHOULD BE SET
 47763						STOP^
 47764	064454	254 04 0 00 064455 		HALT	.+1		;INSTRUCTION FAILED REPLACE
 47765	064455	254 00 0 00 064456 		JRST	.+1		;WITH JRST BACK^
 47766						TGET^
 47767	064456	200 00 0 00 071350 		MOVE	TNUMB		;GET LAST PC STORED AND CHECK TO SEE
 47768	064457	302 00 0 00 064441 		CAIE	%X		;IF ITS WHERE WE REALLY SHOULD BE
 47769						STOP2^^
 47770	064460	254 04 0 00 064461 		HALT	.+1		;HALT IF WE SHOULDN'T BE HERE
 47771	064461	254 00 0 00 064462 		JRST	.+1		;WILD TRANSFER CAUSED THIS HALT.^
 47772						CLRBTH^
 47773	064462	700 04 0 00 267760 		CLRAPR
 47774	064463	700 14 0 00 031577 		CLRPI^
 47775					^
 47776
 47777			000046			X=X+2
 47778			000020			Z1=Z1_-1
 47779
 47780
 47781						PIDIS	X,Z1^
 47782
 47783					;CHECK THAT X JEN WILL DISMISS INTERUPTS ON ALL CHANNELS
 47784
 47785						TSET^
 47786			064464			%X=.			;DEFINE %X TO SAVE
 47787	064464	201 00 0 00 064464 		MOVEI	%X		;SAVE THIS PC IN CASE OF WILD TRANSFER
 47788	064465	202 00 0 00 071350 		MOVEM	TNUMB#		;BECAUSE OF PC MOD OR INTERRUPT^
 47789	064466	200 00 0 00 071164 	..0150:	MOVE	[JSP 1,.+6]	;PUT THE PI TRAP INSTRUCTION
 47790	064467	202 00 0 00 000046 		MOVEM	X		;INTO X
 47791	064470	7 004 20 0 00 006220 		CONO	PI,CHNON+PION+REQSET+Z1	;TURN ON PI AND REQEST ON CH Z1
 47792						WATINT^
 47793	064471	201 13 0 00 001000 		MOVEI	13,1000		;SET UP LOOP OF TEN TO WAIT FOR INT.
 47794	064472	367 13 0 00 064472 		SOJG	13,.		;AND WAIT^
 47795	064473	254 00 0 00 064476 		JRST	.+3
 47796	064474	7 004 20 0 00 022220 		CONO	PI,CHNON+PION+LRQCLR+Z1	;TURN OF INTERRUPT REQUEST
 47797	064475	254 12 1 00 000001 		JEN	@1		;DISMISS THE INTERRUPT
 47798	064476	7 004 30 0 00 077400 		CONSZ	PI,77400	;NO REQUESTS SHOULD BE SET
 47799						STOP^
 47800	064477	254 04 0 00 064500 		HALT	.+1		;INSTRUCTION FAILED REPLACE
 47801	064500	254 00 0 00 064501 		JRST	.+1		;WITH JRST BACK^
 47802						TGET^
 47803	064501	200 00 0 00 071350 		MOVE	TNUMB		;GET LAST PC STORED AND CHECK TO SEE
 47804	064502	302 00 0 00 064464 		CAIE	%X		;IF ITS WHERE WE REALLY SHOULD BE
 47805						STOP2^^
DFKAA PDP-10 KL10 BASIC INSTRUCTION DIAGNOSTIC (1) VER 0,2	MACRO %53B(1254)-4 11:50 11-Nov-24 Page 41-2
DFKAA8	MAC	13-Jan-89 10:22		TEST THE ABILITY TO DISMISS INTERRUPTS

 47806	064503	254 04 0 00 064504 		HALT	.+1		;HALT IF WE SHOULDN'T BE HERE
 47807	064504	254 00 0 00 064505 		JRST	.+1		;WILD TRANSFER CAUSED THIS HALT.^
 47808						CLRBTH^
 47809	064505	700 04 0 00 267760 		CLRAPR
 47810	064506	700 14 0 00 031577 		CLRPI^
 47811					^
 47812
 47813			000050			X=X+2
 47814			000010			Z1=Z1_-1
 47815
 47816
 47817						PIDIS	X,Z1^
 47818
 47819					;CHECK THAT X JEN WILL DISMISS INTERUPTS ON ALL CHANNELS
 47820
 47821						TSET^
 47822			064507			%X=.			;DEFINE %X TO SAVE
 47823	064507	201 00 0 00 064507 		MOVEI	%X		;SAVE THIS PC IN CASE OF WILD TRANSFER
 47824	064510	202 00 0 00 071350 		MOVEM	TNUMB#		;BECAUSE OF PC MOD OR INTERRUPT^
 47825	064511	200 00 0 00 071165 	..0151:	MOVE	[JSP 1,.+6]	;PUT THE PI TRAP INSTRUCTION
 47826	064512	202 00 0 00 000050 		MOVEM	X		;INTO X
 47827	064513	7 004 20 0 00 006210 		CONO	PI,CHNON+PION+REQSET+Z1	;TURN ON PI AND REQEST ON CH Z1
 47828						WATINT^
 47829	064514	201 13 0 00 001000 		MOVEI	13,1000		;SET UP LOOP OF TEN TO WAIT FOR INT.
 47830	064515	367 13 0 00 064515 		SOJG	13,.		;AND WAIT^
 47831	064516	254 00 0 00 064521 		JRST	.+3
 47832	064517	7 004 20 0 00 022210 		CONO	PI,CHNON+PION+LRQCLR+Z1	;TURN OF INTERRUPT REQUEST
 47833	064520	254 12 1 00 000001 		JEN	@1		;DISMISS THE INTERRUPT
 47834	064521	7 004 30 0 00 077400 		CONSZ	PI,77400	;NO REQUESTS SHOULD BE SET
 47835						STOP^
 47836	064522	254 04 0 00 064523 		HALT	.+1		;INSTRUCTION FAILED REPLACE
 47837	064523	254 00 0 00 064524 		JRST	.+1		;WITH JRST BACK^
 47838						TGET^
 47839	064524	200 00 0 00 071350 		MOVE	TNUMB		;GET LAST PC STORED AND CHECK TO SEE
 47840	064525	302 00 0 00 064507 		CAIE	%X		;IF ITS WHERE WE REALLY SHOULD BE
 47841						STOP2^^
 47842	064526	254 04 0 00 064527 		HALT	.+1		;HALT IF WE SHOULDN'T BE HERE
 47843	064527	254 00 0 00 064530 		JRST	.+1		;WILD TRANSFER CAUSED THIS HALT.^
 47844						CLRBTH^
 47845	064530	700 04 0 00 267760 		CLRAPR
 47846	064531	700 14 0 00 031577 		CLRPI^
 47847					^
 47848
 47849			000052			X=X+2
 47850			000004			Z1=Z1_-1
 47851
 47852
 47853						PIDIS	X,Z1^
 47854
 47855					;CHECK THAT X JEN WILL DISMISS INTERUPTS ON ALL CHANNELS
 47856
 47857						TSET^
 47858			064532			%X=.			;DEFINE %X TO SAVE
 47859	064532	201 00 0 00 064532 		MOVEI	%X		;SAVE THIS PC IN CASE OF WILD TRANSFER
 47860	064533	202 00 0 00 071350 		MOVEM	TNUMB#		;BECAUSE OF PC MOD OR INTERRUPT^
DFKAA PDP-10 KL10 BASIC INSTRUCTION DIAGNOSTIC (1) VER 0,2	MACRO %53B(1254)-4 11:50 11-Nov-24 Page 41-3
DFKAA8	MAC	13-Jan-89 10:22		TEST THE ABILITY TO DISMISS INTERRUPTS

 47861	064534	200 00 0 00 071166 	..0152:	MOVE	[JSP 1,.+6]	;PUT THE PI TRAP INSTRUCTION
 47862	064535	202 00 0 00 000052 		MOVEM	X		;INTO X
 47863	064536	7 004 20 0 00 006204 		CONO	PI,CHNON+PION+REQSET+Z1	;TURN ON PI AND REQEST ON CH Z1
 47864						WATINT^
 47865	064537	201 13 0 00 001000 		MOVEI	13,1000		;SET UP LOOP OF TEN TO WAIT FOR INT.
 47866	064540	367 13 0 00 064540 		SOJG	13,.		;AND WAIT^
 47867	064541	254 00 0 00 064544 		JRST	.+3
 47868	064542	7 004 20 0 00 022204 		CONO	PI,CHNON+PION+LRQCLR+Z1	;TURN OF INTERRUPT REQUEST
 47869	064543	254 12 1 00 000001 		JEN	@1		;DISMISS THE INTERRUPT
 47870	064544	7 004 30 0 00 077400 		CONSZ	PI,77400	;NO REQUESTS SHOULD BE SET
 47871						STOP^
 47872	064545	254 04 0 00 064546 		HALT	.+1		;INSTRUCTION FAILED REPLACE
 47873	064546	254 00 0 00 064547 		JRST	.+1		;WITH JRST BACK^
 47874						TGET^
 47875	064547	200 00 0 00 071350 		MOVE	TNUMB		;GET LAST PC STORED AND CHECK TO SEE
 47876	064550	302 00 0 00 064532 		CAIE	%X		;IF ITS WHERE WE REALLY SHOULD BE
 47877						STOP2^^
 47878	064551	254 04 0 00 064552 		HALT	.+1		;HALT IF WE SHOULDN'T BE HERE
 47879	064552	254 00 0 00 064553 		JRST	.+1		;WILD TRANSFER CAUSED THIS HALT.^
 47880						CLRBTH^
 47881	064553	700 04 0 00 267760 		CLRAPR
 47882	064554	700 14 0 00 031577 		CLRPI^
 47883					^
 47884
 47885			000054			X=X+2
 47886			000002			Z1=Z1_-1
 47887
 47888
 47889						PIDIS	X,Z1^
 47890
 47891					;CHECK THAT X JEN WILL DISMISS INTERUPTS ON ALL CHANNELS
 47892
 47893						TSET^
 47894			064555			%X=.			;DEFINE %X TO SAVE
 47895	064555	201 00 0 00 064555 		MOVEI	%X		;SAVE THIS PC IN CASE OF WILD TRANSFER
 47896	064556	202 00 0 00 071350 		MOVEM	TNUMB#		;BECAUSE OF PC MOD OR INTERRUPT^
 47897	064557	200 00 0 00 071167 	..0153:	MOVE	[JSP 1,.+6]	;PUT THE PI TRAP INSTRUCTION
 47898	064560	202 00 0 00 000054 		MOVEM	X		;INTO X
 47899	064561	7 004 20 0 00 006202 		CONO	PI,CHNON+PION+REQSET+Z1	;TURN ON PI AND REQEST ON CH Z1
 47900						WATINT^
 47901	064562	201 13 0 00 001000 		MOVEI	13,1000		;SET UP LOOP OF TEN TO WAIT FOR INT.
 47902	064563	367 13 0 00 064563 		SOJG	13,.		;AND WAIT^
 47903	064564	254 00 0 00 064567 		JRST	.+3
 47904	064565	7 004 20 0 00 022202 		CONO	PI,CHNON+PION+LRQCLR+Z1	;TURN OF INTERRUPT REQUEST
 47905	064566	254 12 1 00 000001 		JEN	@1		;DISMISS THE INTERRUPT
 47906	064567	7 004 30 0 00 077400 		CONSZ	PI,77400	;NO REQUESTS SHOULD BE SET
 47907						STOP^
 47908	064570	254 04 0 00 064571 		HALT	.+1		;INSTRUCTION FAILED REPLACE
 47909	064571	254 00 0 00 064572 		JRST	.+1		;WITH JRST BACK^
 47910						TGET^
 47911	064572	200 00 0 00 071350 		MOVE	TNUMB		;GET LAST PC STORED AND CHECK TO SEE
 47912	064573	302 00 0 00 064555 		CAIE	%X		;IF ITS WHERE WE REALLY SHOULD BE
 47913						STOP2^^
 47914	064574	254 04 0 00 064575 		HALT	.+1		;HALT IF WE SHOULDN'T BE HERE
 47915	064575	254 00 0 00 064576 		JRST	.+1		;WILD TRANSFER CAUSED THIS HALT.^
DFKAA PDP-10 KL10 BASIC INSTRUCTION DIAGNOSTIC (1) VER 0,2	MACRO %53B(1254)-4 11:50 11-Nov-24 Page 41-4
DFKAA8	MAC	13-Jan-89 10:22		TEST THE ABILITY TO DISMISS INTERRUPTS

 47916						CLRBTH^
 47917	064576	700 04 0 00 267760 		CLRAPR
 47918	064577	700 14 0 00 031577 		CLRPI^
 47919					^
 47920
 47921			000056			X=X+2
 47922			000001			Z1=Z1_-1
 47923
 47924
 47925						PIDIS	X,Z1^
 47926
 47927					;CHECK THAT X JEN WILL DISMISS INTERUPTS ON ALL CHANNELS
 47928
 47929						TSET^
 47930			064600			%X=.			;DEFINE %X TO SAVE
 47931	064600	201 00 0 00 064600 		MOVEI	%X		;SAVE THIS PC IN CASE OF WILD TRANSFER
 47932	064601	202 00 0 00 071350 		MOVEM	TNUMB#		;BECAUSE OF PC MOD OR INTERRUPT^
 47933	064602	200 00 0 00 071170 	..0154:	MOVE	[JSP 1,.+6]	;PUT THE PI TRAP INSTRUCTION
 47934	064603	202 00 0 00 000056 		MOVEM	X		;INTO X
 47935	064604	7 004 20 0 00 006201 		CONO	PI,CHNON+PION+REQSET+Z1	;TURN ON PI AND REQEST ON CH Z1
 47936						WATINT^
 47937	064605	201 13 0 00 001000 		MOVEI	13,1000		;SET UP LOOP OF TEN TO WAIT FOR INT.
 47938	064606	367 13 0 00 064606 		SOJG	13,.		;AND WAIT^
 47939	064607	254 00 0 00 064612 		JRST	.+3
 47940	064610	7 004 20 0 00 022201 		CONO	PI,CHNON+PION+LRQCLR+Z1	;TURN OF INTERRUPT REQUEST
 47941	064611	254 12 1 00 000001 		JEN	@1		;DISMISS THE INTERRUPT
 47942	064612	7 004 30 0 00 077400 		CONSZ	PI,77400	;NO REQUESTS SHOULD BE SET
 47943						STOP^
 47944	064613	254 04 0 00 064614 		HALT	.+1		;INSTRUCTION FAILED REPLACE
 47945	064614	254 00 0 00 064615 		JRST	.+1		;WITH JRST BACK^
 47946						TGET^
 47947	064615	200 00 0 00 071350 		MOVE	TNUMB		;GET LAST PC STORED AND CHECK TO SEE
 47948	064616	302 00 0 00 064600 		CAIE	%X		;IF ITS WHERE WE REALLY SHOULD BE
 47949						STOP2^^
 47950	064617	254 04 0 00 064620 		HALT	.+1		;HALT IF WE SHOULDN'T BE HERE
 47951	064620	254 00 0 00 064621 		JRST	.+1		;WILD TRANSFER CAUSED THIS HALT.^
 47952						CLRBTH^
 47953	064621	700 04 0 00 267760 		CLRAPR
 47954	064622	700 14 0 00 031577 		CLRPI^
 47955					^
 47956
 47957			000060			X=X+2
 47958			000000			Z1=Z1_-1
 47959
 47960	064623	255 00 0 00 000000 		JFCL
DFKAA PDP-10 KL10 BASIC INSTRUCTION DIAGNOSTIC (1) VER 0,2	MACRO %53B(1254)-4 11:50 11-Nov-24 Page 42
DFKAA8	MAC	13-Jan-89 10:22		TICKLE THE INTERRUPT SYSTEM WITH THE CACHE SWEEP DONE FLAG

 47961					SUBTTL	TICKLE THE INTERRUPT SYSTEM WITH THE CACHE SWEEP DONE FLAG
 47962					;TEST THAT THE CACHE SWEEP DONE FLAG WILL NOT CAUSE AN INTERRUPT WHEN ENABLED AND
 47963					;NO APR CACHE SWEEP DONE FLAG CHANNEL IS SET..
 47964						BLURB^
 47965					;LOCATIONS 40-60 CONTAIN A JSP TO A ROUTINE WHICH STORES
 47966					;THE CHANNEL NUMBER OF THE INTERRUPT INTO 0
 47967					;THEREFORE IF AN INTERRUPT OCCURS THEN LOCATION
 47968					;ZERO WILL CONTAIN THE NUMBER OF THE INTERRUPT CHANNEL TRAP ADRESS
 47969					^
 47970	064624				CKCK0:	CLRBTH^
 47971	064624	700 04 0 00 267760 		CLRAPR
 47972	064625	700 14 0 00 031577 		CLRPI^
 47973	064626	264 00 0 00 070120 		TRPPI			;FILL INTERRUPT LOCATIONS WITH TRAPS
 47974	064627	400 00 0 00 000000 		SETZ			;CLEAR 0
 47975	064630	7 004 20 0 00 002377 		CONO	PI,CHNON!PION!177	;TURN ON PI SYSTEM
 47976						CONO	APR,LESBER!LSSBER!LENXER!LSNXER!LEPWRF!LSPWRF!LEIOPF!LSIOPF!LEPAER!LSPAER!LE
 47977	064631	7 000 20 0 00 117460 	CASD!LSCASD	;ENABLE THE CACHE SWEEP DONE FLAG
 47978						WATINT^
 47979	064632	201 13 0 00 001000 		MOVEI	13,1000		;SET UP LOOP OF TEN TO WAIT FOR INT.
 47980	064633	367 13 0 00 064633 		SOJG	13,.		;AND WAIT^
 47981	064634	332 00 0 00 000000 		SKIPE			;AC0=0
 47982						STOP^
 47983	064635	254 04 0 00 064636 		HALT	.+1		;INSTRUCTION FAILED REPLACE
 47984	064636	254 00 0 00 064637 		JRST	.+1		;WITH JRST BACK^
 47985
 47986
 47987					;TEST THAT THE CACHE SWEEP DONE FLAG WILL NOT INTERRUPT WITHOUT CACHE SWEEP DONE FLAG ENABLE
 47988					 SET
 47989					;ON ALL CHANNELS
 47990
 47991			000001			X=1
 47992					CKCK1:	REPEAT	7,<
 47993					;THE PROGRAM WILL WAIT FOR THE CACHE SWEEP DONE FLAG TO INTERRUPT ON EACH CHANNEL
 47994					;WITHOUT CACHE SWEEP DONE FLAG ENABLE SET. IF AC0 BECOMES NON-ZERO THE PROGRAM WILL
 47995					;HALT AND AC0 HAS THE NUMBER OF THE CHANNEL THAT THE INTERRUPT OCCURED
 47996					;ON. NO INTERRUPTS SHOULD OCCUR DURING THIS TEST.
 47997						CLRBTH
 47998						TRPPI			;FILL INTERRUPT LOCATIONS WITH TRAPS
 47999						SETZ	0,		;INSURE ZERO AC0.
 48000						CONO	PI,PION!CHNON!177	;ENABLE PI'S
 48001						CONO	APR,LDSBER!LSSBER!LDNXER!LSNXER!LDPWRF!LSPWRF!LDIOPF!LSIOPF!LDPAER!LSPAER!LD
 48002					CASD!LSCASD!X	;DISABLE THE CACHE SWEEP DONE FLAG AN SET CH X
 48003						WATINT
 48004						SKIPE			;AC0=0
 48005						STOP
 48006						X=X+1
 48007					>
 48008
 48009					;THE PROGRAM WILL WAIT FOR THE CACHE SWEEP DONE FLAG TO INTERRUPT ON EACH CHANNEL
 48010					;WITHOUT CACHE SWEEP DONE FLAG ENABLE SET. IF AC0 BECOMES NON-ZERO THE PROGRAM WILL
 48011					;HALT AND AC0 HAS THE NUMBER OF THE CHANNEL THAT THE INTERRUPT OCCURED
 48012					;ON. NO INTERRUPTS SHOULD OCCUR DURING THIS TEST.
 48013						CLRBTH^
 48014	064637	700 04 0 00 267760 		CLRAPR
 48015	064640	700 14 0 00 031577 		CLRPI^
DFKAA PDP-10 KL10 BASIC INSTRUCTION DIAGNOSTIC (1) VER 0,2	MACRO %53B(1254)-4 11:50 11-Nov-24 Page 42-1
DFKAA8	MAC	13-Jan-89 10:22		TICKLE THE INTERRUPT SYSTEM WITH THE CACHE SWEEP DONE FLAG

 48016	064641	264 00 0 00 070120 		TRPPI			;FILL INTERRUPT LOCATIONS WITH TRAPS
 48017	064642	400 00 0 00 000000 		SETZ	0,		;INSURE ZERO AC0.
 48018	064643	7 004 20 0 00 002377 		CONO	PI,PION!CHNON!177	;ENABLE PI'S
 48019						CONO	APR,LDSBER!LSSBER!LDNXER!LSNXER!LDPWRF!LSPWRF!LDIOPF!LSIOPF!LDPAER!LSPAER!LD
 48020	064644	7 000 20 0 00 057461 	CASD!LSCASD!X	;DISABLE THE CACHE SWEEP DONE FLAG AN SET CH X
 48021						WATINT^
 48022	064645	201 13 0 00 001000 		MOVEI	13,1000		;SET UP LOOP OF TEN TO WAIT FOR INT.
 48023	064646	367 13 0 00 064646 		SOJG	13,.		;AND WAIT^
 48024	064647	332 00 0 00 000000 		SKIPE			;AC0=0
 48025						STOP^
 48026	064650	254 04 0 00 064651 		HALT	.+1		;INSTRUCTION FAILED REPLACE
 48027	064651	254 00 0 00 064652 		JRST	.+1		;WITH JRST BACK^
 48028			000002			X=X+1
 48029
 48030
 48031					;THE PROGRAM WILL WAIT FOR THE CACHE SWEEP DONE FLAG TO INTERRUPT ON EACH CHANNEL
 48032					;WITHOUT CACHE SWEEP DONE FLAG ENABLE SET. IF AC0 BECOMES NON-ZERO THE PROGRAM WILL
 48033					;HALT AND AC0 HAS THE NUMBER OF THE CHANNEL THAT THE INTERRUPT OCCURED
 48034					;ON. NO INTERRUPTS SHOULD OCCUR DURING THIS TEST.
 48035						CLRBTH^
 48036	064652	700 04 0 00 267760 		CLRAPR
 48037	064653	700 14 0 00 031577 		CLRPI^
 48038	064654	264 00 0 00 070120 		TRPPI			;FILL INTERRUPT LOCATIONS WITH TRAPS
 48039	064655	400 00 0 00 000000 		SETZ	0,		;INSURE ZERO AC0.
 48040	064656	7 004 20 0 00 002377 		CONO	PI,PION!CHNON!177	;ENABLE PI'S
 48041						CONO	APR,LDSBER!LSSBER!LDNXER!LSNXER!LDPWRF!LSPWRF!LDIOPF!LSIOPF!LDPAER!LSPAER!LD
 48042	064657	7 000 20 0 00 057462 	CASD!LSCASD!X	;DISABLE THE CACHE SWEEP DONE FLAG AN SET CH X
 48043						WATINT^
 48044	064660	201 13 0 00 001000 		MOVEI	13,1000		;SET UP LOOP OF TEN TO WAIT FOR INT.
 48045	064661	367 13 0 00 064661 		SOJG	13,.		;AND WAIT^
 48046	064662	332 00 0 00 000000 		SKIPE			;AC0=0
 48047						STOP^
 48048	064663	254 04 0 00 064664 		HALT	.+1		;INSTRUCTION FAILED REPLACE
 48049	064664	254 00 0 00 064665 		JRST	.+1		;WITH JRST BACK^
 48050			000003			X=X+1
 48051
 48052
 48053					;THE PROGRAM WILL WAIT FOR THE CACHE SWEEP DONE FLAG TO INTERRUPT ON EACH CHANNEL
 48054					;WITHOUT CACHE SWEEP DONE FLAG ENABLE SET. IF AC0 BECOMES NON-ZERO THE PROGRAM WILL
 48055					;HALT AND AC0 HAS THE NUMBER OF THE CHANNEL THAT THE INTERRUPT OCCURED
 48056					;ON. NO INTERRUPTS SHOULD OCCUR DURING THIS TEST.
 48057						CLRBTH^
 48058	064665	700 04 0 00 267760 		CLRAPR
 48059	064666	700 14 0 00 031577 		CLRPI^
 48060	064667	264 00 0 00 070120 		TRPPI			;FILL INTERRUPT LOCATIONS WITH TRAPS
 48061	064670	400 00 0 00 000000 		SETZ	0,		;INSURE ZERO AC0.
 48062	064671	7 004 20 0 00 002377 		CONO	PI,PION!CHNON!177	;ENABLE PI'S
 48063						CONO	APR,LDSBER!LSSBER!LDNXER!LSNXER!LDPWRF!LSPWRF!LDIOPF!LSIOPF!LDPAER!LSPAER!LD
 48064	064672	7 000 20 0 00 057463 	CASD!LSCASD!X	;DISABLE THE CACHE SWEEP DONE FLAG AN SET CH X
 48065						WATINT^
 48066	064673	201 13 0 00 001000 		MOVEI	13,1000		;SET UP LOOP OF TEN TO WAIT FOR INT.
 48067	064674	367 13 0 00 064674 		SOJG	13,.		;AND WAIT^
 48068	064675	332 00 0 00 000000 		SKIPE			;AC0=0
 48069						STOP^
 48070	064676	254 04 0 00 064677 		HALT	.+1		;INSTRUCTION FAILED REPLACE
DFKAA PDP-10 KL10 BASIC INSTRUCTION DIAGNOSTIC (1) VER 0,2	MACRO %53B(1254)-4 11:50 11-Nov-24 Page 42-2
DFKAA8	MAC	13-Jan-89 10:22		TICKLE THE INTERRUPT SYSTEM WITH THE CACHE SWEEP DONE FLAG

 48071	064677	254 00 0 00 064700 		JRST	.+1		;WITH JRST BACK^
 48072			000004			X=X+1
 48073
 48074
 48075					;THE PROGRAM WILL WAIT FOR THE CACHE SWEEP DONE FLAG TO INTERRUPT ON EACH CHANNEL
 48076					;WITHOUT CACHE SWEEP DONE FLAG ENABLE SET. IF AC0 BECOMES NON-ZERO THE PROGRAM WILL
 48077					;HALT AND AC0 HAS THE NUMBER OF THE CHANNEL THAT THE INTERRUPT OCCURED
 48078					;ON. NO INTERRUPTS SHOULD OCCUR DURING THIS TEST.
 48079						CLRBTH^
 48080	064700	700 04 0 00 267760 		CLRAPR
 48081	064701	700 14 0 00 031577 		CLRPI^
 48082	064702	264 00 0 00 070120 		TRPPI			;FILL INTERRUPT LOCATIONS WITH TRAPS
 48083	064703	400 00 0 00 000000 		SETZ	0,		;INSURE ZERO AC0.
 48084	064704	7 004 20 0 00 002377 		CONO	PI,PION!CHNON!177	;ENABLE PI'S
 48085						CONO	APR,LDSBER!LSSBER!LDNXER!LSNXER!LDPWRF!LSPWRF!LDIOPF!LSIOPF!LDPAER!LSPAER!LD
 48086	064705	7 000 20 0 00 057464 	CASD!LSCASD!X	;DISABLE THE CACHE SWEEP DONE FLAG AN SET CH X
 48087						WATINT^
 48088	064706	201 13 0 00 001000 		MOVEI	13,1000		;SET UP LOOP OF TEN TO WAIT FOR INT.
 48089	064707	367 13 0 00 064707 		SOJG	13,.		;AND WAIT^
 48090	064710	332 00 0 00 000000 		SKIPE			;AC0=0
 48091						STOP^
 48092	064711	254 04 0 00 064712 		HALT	.+1		;INSTRUCTION FAILED REPLACE
 48093	064712	254 00 0 00 064713 		JRST	.+1		;WITH JRST BACK^
 48094			000005			X=X+1
 48095
 48096
 48097					;THE PROGRAM WILL WAIT FOR THE CACHE SWEEP DONE FLAG TO INTERRUPT ON EACH CHANNEL
 48098					;WITHOUT CACHE SWEEP DONE FLAG ENABLE SET. IF AC0 BECOMES NON-ZERO THE PROGRAM WILL
 48099					;HALT AND AC0 HAS THE NUMBER OF THE CHANNEL THAT THE INTERRUPT OCCURED
 48100					;ON. NO INTERRUPTS SHOULD OCCUR DURING THIS TEST.
 48101						CLRBTH^
 48102	064713	700 04 0 00 267760 		CLRAPR
 48103	064714	700 14 0 00 031577 		CLRPI^
 48104	064715	264 00 0 00 070120 		TRPPI			;FILL INTERRUPT LOCATIONS WITH TRAPS
 48105	064716	400 00 0 00 000000 		SETZ	0,		;INSURE ZERO AC0.
 48106	064717	7 004 20 0 00 002377 		CONO	PI,PION!CHNON!177	;ENABLE PI'S
 48107						CONO	APR,LDSBER!LSSBER!LDNXER!LSNXER!LDPWRF!LSPWRF!LDIOPF!LSIOPF!LDPAER!LSPAER!LD
 48108	064720	7 000 20 0 00 057465 	CASD!LSCASD!X	;DISABLE THE CACHE SWEEP DONE FLAG AN SET CH X
 48109						WATINT^
 48110	064721	201 13 0 00 001000 		MOVEI	13,1000		;SET UP LOOP OF TEN TO WAIT FOR INT.
 48111	064722	367 13 0 00 064722 		SOJG	13,.		;AND WAIT^
 48112	064723	332 00 0 00 000000 		SKIPE			;AC0=0
 48113						STOP^
 48114	064724	254 04 0 00 064725 		HALT	.+1		;INSTRUCTION FAILED REPLACE
 48115	064725	254 00 0 00 064726 		JRST	.+1		;WITH JRST BACK^
 48116			000006			X=X+1
 48117
 48118
 48119					;THE PROGRAM WILL WAIT FOR THE CACHE SWEEP DONE FLAG TO INTERRUPT ON EACH CHANNEL
 48120					;WITHOUT CACHE SWEEP DONE FLAG ENABLE SET. IF AC0 BECOMES NON-ZERO THE PROGRAM WILL
 48121					;HALT AND AC0 HAS THE NUMBER OF THE CHANNEL THAT THE INTERRUPT OCCURED
 48122					;ON. NO INTERRUPTS SHOULD OCCUR DURING THIS TEST.
 48123						CLRBTH^
 48124	064726	700 04 0 00 267760 		CLRAPR
 48125	064727	700 14 0 00 031577 		CLRPI^
DFKAA PDP-10 KL10 BASIC INSTRUCTION DIAGNOSTIC (1) VER 0,2	MACRO %53B(1254)-4 11:50 11-Nov-24 Page 42-3
DFKAA8	MAC	13-Jan-89 10:22		TICKLE THE INTERRUPT SYSTEM WITH THE CACHE SWEEP DONE FLAG

 48126	064730	264 00 0 00 070120 		TRPPI			;FILL INTERRUPT LOCATIONS WITH TRAPS
 48127	064731	400 00 0 00 000000 		SETZ	0,		;INSURE ZERO AC0.
 48128	064732	7 004 20 0 00 002377 		CONO	PI,PION!CHNON!177	;ENABLE PI'S
 48129						CONO	APR,LDSBER!LSSBER!LDNXER!LSNXER!LDPWRF!LSPWRF!LDIOPF!LSIOPF!LDPAER!LSPAER!LD
 48130	064733	7 000 20 0 00 057466 	CASD!LSCASD!X	;DISABLE THE CACHE SWEEP DONE FLAG AN SET CH X
 48131						WATINT^
 48132	064734	201 13 0 00 001000 		MOVEI	13,1000		;SET UP LOOP OF TEN TO WAIT FOR INT.
 48133	064735	367 13 0 00 064735 		SOJG	13,.		;AND WAIT^
 48134	064736	332 00 0 00 000000 		SKIPE			;AC0=0
 48135						STOP^
 48136	064737	254 04 0 00 064740 		HALT	.+1		;INSTRUCTION FAILED REPLACE
 48137	064740	254 00 0 00 064741 		JRST	.+1		;WITH JRST BACK^
 48138			000007			X=X+1
 48139
 48140
 48141					;THE PROGRAM WILL WAIT FOR THE CACHE SWEEP DONE FLAG TO INTERRUPT ON EACH CHANNEL
 48142					;WITHOUT CACHE SWEEP DONE FLAG ENABLE SET. IF AC0 BECOMES NON-ZERO THE PROGRAM WILL
 48143					;HALT AND AC0 HAS THE NUMBER OF THE CHANNEL THAT THE INTERRUPT OCCURED
 48144					;ON. NO INTERRUPTS SHOULD OCCUR DURING THIS TEST.
 48145						CLRBTH^
 48146	064741	700 04 0 00 267760 		CLRAPR
 48147	064742	700 14 0 00 031577 		CLRPI^
 48148	064743	264 00 0 00 070120 		TRPPI			;FILL INTERRUPT LOCATIONS WITH TRAPS
 48149	064744	400 00 0 00 000000 		SETZ	0,		;INSURE ZERO AC0.
 48150	064745	7 004 20 0 00 002377 		CONO	PI,PION!CHNON!177	;ENABLE PI'S
 48151						CONO	APR,LDSBER!LSSBER!LDNXER!LSNXER!LDPWRF!LSPWRF!LDIOPF!LSIOPF!LDPAER!LSPAER!LD
 48152	064746	7 000 20 0 00 057467 	CASD!LSCASD!X	;DISABLE THE CACHE SWEEP DONE FLAG AN SET CH X
 48153						WATINT^
 48154	064747	201 13 0 00 001000 		MOVEI	13,1000		;SET UP LOOP OF TEN TO WAIT FOR INT.
 48155	064750	367 13 0 00 064750 		SOJG	13,.		;AND WAIT^
 48156	064751	332 00 0 00 000000 		SKIPE			;AC0=0
 48157						STOP^
 48158	064752	254 04 0 00 064753 		HALT	.+1		;INSTRUCTION FAILED REPLACE
 48159	064753	254 00 0 00 064754 		JRST	.+1		;WITH JRST BACK^
 48160			000010			X=X+1
 48161
DFKAA PDP-10 KL10 BASIC INSTRUCTION DIAGNOSTIC (1) VER 0,2	MACRO %53B(1254)-4 11:50 11-Nov-24 Page 43
DFKAA8	MAC	13-Jan-89 10:22		TEST VARIOUS RESETS

 48162					SUBTTL	TEST VARIOUS RESETS
 48163
 48164					;TRY TO RESET THE PI BITS VIA CONO RESET TO THE APR
 48165	064754				RESET1:	CLRBTH^
 48166	064754	700 04 0 00 267760 		CLRAPR
 48167	064755	700 14 0 00 031577 		CLRPI^
 48168	064756	7 004 20 0 00 002377 		CONO	PI,PION!CHNON!177	;TURN ON PI SYSTEM
 48169	064757	7 000 20 0 00 200000 		CONO	APR,IOCLR	;RESET THE I/O BUS
 48170	064760	7 004 34 0 00 000377 		CONSO	PI,PION!177	;ALL PI BITS SHOULD STILL BE SET
 48171						STOP^
 48172	064761	254 04 0 00 064762 		HALT	.+1		;INSTRUCTION FAILED REPLACE
 48173	064762	254 00 0 00 064763 		JRST	.+1		;WITH JRST BACK^
 48174
 48175					;TRY TO RESET THE APR WITH A RESET TO THE PI.
 48176	064763				RESET2:	CLRBTH^
 48177	064763	700 04 0 00 267760 		CLRAPR
 48178	064764	700 14 0 00 031577 		CLRPI^
 48179	064765	7 000 20 0 00 000007 		CONO	APR,7		;SET CLOCK AND ERROR PIA'S
 48180	064766	7 004 20 0 00 010000 		CONO	PI,PICLR	;CLEAR THE PI SYSTEM
 48181	064767	7 000 34 0 00 000007 		CONSO	APR,7		;AND APR BITS SHOULD STILL BE SET
 48182						STOP^
 48183	064770	254 04 0 00 064771 		HALT	.+1		;INSTRUCTION FAILED REPLACE
 48184	064771	254 00 0 00 064772 		JRST	.+1		;WITH JRST BACK^
 48185
 48186			000001			X=1
 48187					RESET3:	REPEAT	^D18,<
 48188					;TRY TO RESET THE PI AND APR VIA A CONO BIT TO DEVICE 774
 48189						CLRBTH
 48190						CONO	PI,PION!CHNON!177
 48191						CONO	APR,7		;TURN ON PI AND APR BITS
 48192						CONO	LAST,X		;SEND AND IOB BIT OUT
 48193						CONI	PI,7		;PI BITS SHOULD STILL BE SET
 48194						CAIE	7,377
 48195						STOP
 48196						CONI	APR,6		;APR BITS SHOULD BE SET
 48197						CAIE	6,7
 48198						STOP
 48199						X=X_1			;NEXT BIT
 48200					>
 48201
 48202					;TRY TO RESET THE PI AND APR VIA A CONO BIT TO DEVICE 774
 48203						CLRBTH^
 48204	064772	700 04 0 00 267760 		CLRAPR
 48205	064773	700 14 0 00 031577 		CLRPI^
 48206	064774	7 004 20 0 00 002377 		CONO	PI,PION!CHNON!177
 48207	064775	7 000 20 0 00 000007 		CONO	APR,7		;TURN ON PI AND APR BITS
 48208	064776	7 774 20 0 00 000001 		CONO	LAST,X		;SEND AND IOB BIT OUT
 48209	064777	7 004 24 0 00 000007 		CONI	PI,7		;PI BITS SHOULD STILL BE SET
 48210	065000	302 07 0 00 000377 		CAIE	7,377
 48211						STOP^
 48212	065001	254 04 0 00 065002 		HALT	.+1		;INSTRUCTION FAILED REPLACE
 48213	065002	254 00 0 00 065003 		JRST	.+1		;WITH JRST BACK^
 48214	065003	7 000 24 0 00 000006 		CONI	APR,6		;APR BITS SHOULD BE SET
 48215	065004	302 06 0 00 000007 		CAIE	6,7
 48216						STOP^
DFKAA PDP-10 KL10 BASIC INSTRUCTION DIAGNOSTIC (1) VER 0,2	MACRO %53B(1254)-4 11:50 11-Nov-24 Page 43-1
DFKAA8	MAC	13-Jan-89 10:22		TEST VARIOUS RESETS

 48217	065005	254 04 0 00 065006 		HALT	.+1		;INSTRUCTION FAILED REPLACE
 48218	065006	254 00 0 00 065007 		JRST	.+1		;WITH JRST BACK^
 48219			000002			X=X_1			;NEXT BIT
 48220
 48221
 48222					;TRY TO RESET THE PI AND APR VIA A CONO BIT TO DEVICE 774
 48223						CLRBTH^
 48224	065007	700 04 0 00 267760 		CLRAPR
 48225	065010	700 14 0 00 031577 		CLRPI^
 48226	065011	7 004 20 0 00 002377 		CONO	PI,PION!CHNON!177
 48227	065012	7 000 20 0 00 000007 		CONO	APR,7		;TURN ON PI AND APR BITS
 48228	065013	7 774 20 0 00 000002 		CONO	LAST,X		;SEND AND IOB BIT OUT
 48229	065014	7 004 24 0 00 000007 		CONI	PI,7		;PI BITS SHOULD STILL BE SET
 48230	065015	302 07 0 00 000377 		CAIE	7,377
 48231						STOP^
 48232	065016	254 04 0 00 065017 		HALT	.+1		;INSTRUCTION FAILED REPLACE
 48233	065017	254 00 0 00 065020 		JRST	.+1		;WITH JRST BACK^
 48234	065020	7 000 24 0 00 000006 		CONI	APR,6		;APR BITS SHOULD BE SET
 48235	065021	302 06 0 00 000007 		CAIE	6,7
 48236						STOP^
 48237	065022	254 04 0 00 065023 		HALT	.+1		;INSTRUCTION FAILED REPLACE
 48238	065023	254 00 0 00 065024 		JRST	.+1		;WITH JRST BACK^
 48239			000004			X=X_1			;NEXT BIT
 48240
 48241
 48242					;TRY TO RESET THE PI AND APR VIA A CONO BIT TO DEVICE 774
 48243						CLRBTH^
 48244	065024	700 04 0 00 267760 		CLRAPR
 48245	065025	700 14 0 00 031577 		CLRPI^
 48246	065026	7 004 20 0 00 002377 		CONO	PI,PION!CHNON!177
 48247	065027	7 000 20 0 00 000007 		CONO	APR,7		;TURN ON PI AND APR BITS
 48248	065030	7 774 20 0 00 000004 		CONO	LAST,X		;SEND AND IOB BIT OUT
 48249	065031	7 004 24 0 00 000007 		CONI	PI,7		;PI BITS SHOULD STILL BE SET
 48250	065032	302 07 0 00 000377 		CAIE	7,377
 48251						STOP^
 48252	065033	254 04 0 00 065034 		HALT	.+1		;INSTRUCTION FAILED REPLACE
 48253	065034	254 00 0 00 065035 		JRST	.+1		;WITH JRST BACK^
 48254	065035	7 000 24 0 00 000006 		CONI	APR,6		;APR BITS SHOULD BE SET
 48255	065036	302 06 0 00 000007 		CAIE	6,7
 48256						STOP^
 48257	065037	254 04 0 00 065040 		HALT	.+1		;INSTRUCTION FAILED REPLACE
 48258	065040	254 00 0 00 065041 		JRST	.+1		;WITH JRST BACK^
 48259			000010			X=X_1			;NEXT BIT
 48260
 48261
 48262					;TRY TO RESET THE PI AND APR VIA A CONO BIT TO DEVICE 774
 48263						CLRBTH^
 48264	065041	700 04 0 00 267760 		CLRAPR
 48265	065042	700 14 0 00 031577 		CLRPI^
 48266	065043	7 004 20 0 00 002377 		CONO	PI,PION!CHNON!177
 48267	065044	7 000 20 0 00 000007 		CONO	APR,7		;TURN ON PI AND APR BITS
 48268	065045	7 774 20 0 00 000010 		CONO	LAST,X		;SEND AND IOB BIT OUT
 48269	065046	7 004 24 0 00 000007 		CONI	PI,7		;PI BITS SHOULD STILL BE SET
 48270	065047	302 07 0 00 000377 		CAIE	7,377
 48271						STOP^
DFKAA PDP-10 KL10 BASIC INSTRUCTION DIAGNOSTIC (1) VER 0,2	MACRO %53B(1254)-4 11:50 11-Nov-24 Page 43-2
DFKAA8	MAC	13-Jan-89 10:22		TEST VARIOUS RESETS

 48272	065050	254 04 0 00 065051 		HALT	.+1		;INSTRUCTION FAILED REPLACE
 48273	065051	254 00 0 00 065052 		JRST	.+1		;WITH JRST BACK^
 48274	065052	7 000 24 0 00 000006 		CONI	APR,6		;APR BITS SHOULD BE SET
 48275	065053	302 06 0 00 000007 		CAIE	6,7
 48276						STOP^
 48277	065054	254 04 0 00 065055 		HALT	.+1		;INSTRUCTION FAILED REPLACE
 48278	065055	254 00 0 00 065056 		JRST	.+1		;WITH JRST BACK^
 48279			000020			X=X_1			;NEXT BIT
 48280
 48281
 48282					;TRY TO RESET THE PI AND APR VIA A CONO BIT TO DEVICE 774
 48283						CLRBTH^
 48284	065056	700 04 0 00 267760 		CLRAPR
 48285	065057	700 14 0 00 031577 		CLRPI^
 48286	065060	7 004 20 0 00 002377 		CONO	PI,PION!CHNON!177
 48287	065061	7 000 20 0 00 000007 		CONO	APR,7		;TURN ON PI AND APR BITS
 48288	065062	7 774 20 0 00 000020 		CONO	LAST,X		;SEND AND IOB BIT OUT
 48289	065063	7 004 24 0 00 000007 		CONI	PI,7		;PI BITS SHOULD STILL BE SET
 48290	065064	302 07 0 00 000377 		CAIE	7,377
 48291						STOP^
 48292	065065	254 04 0 00 065066 		HALT	.+1		;INSTRUCTION FAILED REPLACE
 48293	065066	254 00 0 00 065067 		JRST	.+1		;WITH JRST BACK^
 48294	065067	7 000 24 0 00 000006 		CONI	APR,6		;APR BITS SHOULD BE SET
 48295	065070	302 06 0 00 000007 		CAIE	6,7
 48296						STOP^
 48297	065071	254 04 0 00 065072 		HALT	.+1		;INSTRUCTION FAILED REPLACE
 48298	065072	254 00 0 00 065073 		JRST	.+1		;WITH JRST BACK^
 48299			000040			X=X_1			;NEXT BIT
 48300
 48301
 48302					;TRY TO RESET THE PI AND APR VIA A CONO BIT TO DEVICE 774
 48303						CLRBTH^
 48304	065073	700 04 0 00 267760 		CLRAPR
 48305	065074	700 14 0 00 031577 		CLRPI^
 48306	065075	7 004 20 0 00 002377 		CONO	PI,PION!CHNON!177
 48307	065076	7 000 20 0 00 000007 		CONO	APR,7		;TURN ON PI AND APR BITS
 48308	065077	7 774 20 0 00 000040 		CONO	LAST,X		;SEND AND IOB BIT OUT
 48309	065100	7 004 24 0 00 000007 		CONI	PI,7		;PI BITS SHOULD STILL BE SET
 48310	065101	302 07 0 00 000377 		CAIE	7,377
 48311						STOP^
 48312	065102	254 04 0 00 065103 		HALT	.+1		;INSTRUCTION FAILED REPLACE
 48313	065103	254 00 0 00 065104 		JRST	.+1		;WITH JRST BACK^
 48314	065104	7 000 24 0 00 000006 		CONI	APR,6		;APR BITS SHOULD BE SET
 48315	065105	302 06 0 00 000007 		CAIE	6,7
 48316						STOP^
 48317	065106	254 04 0 00 065107 		HALT	.+1		;INSTRUCTION FAILED REPLACE
 48318	065107	254 00 0 00 065110 		JRST	.+1		;WITH JRST BACK^
 48319			000100			X=X_1			;NEXT BIT
 48320
 48321
 48322					;TRY TO RESET THE PI AND APR VIA A CONO BIT TO DEVICE 774
 48323						CLRBTH^
 48324	065110	700 04 0 00 267760 		CLRAPR
 48325	065111	700 14 0 00 031577 		CLRPI^
 48326	065112	7 004 20 0 00 002377 		CONO	PI,PION!CHNON!177
DFKAA PDP-10 KL10 BASIC INSTRUCTION DIAGNOSTIC (1) VER 0,2	MACRO %53B(1254)-4 11:50 11-Nov-24 Page 43-3
DFKAA8	MAC	13-Jan-89 10:22		TEST VARIOUS RESETS

 48327	065113	7 000 20 0 00 000007 		CONO	APR,7		;TURN ON PI AND APR BITS
 48328	065114	7 774 20 0 00 000100 		CONO	LAST,X		;SEND AND IOB BIT OUT
 48329	065115	7 004 24 0 00 000007 		CONI	PI,7		;PI BITS SHOULD STILL BE SET
 48330	065116	302 07 0 00 000377 		CAIE	7,377
 48331						STOP^
 48332	065117	254 04 0 00 065120 		HALT	.+1		;INSTRUCTION FAILED REPLACE
 48333	065120	254 00 0 00 065121 		JRST	.+1		;WITH JRST BACK^
 48334	065121	7 000 24 0 00 000006 		CONI	APR,6		;APR BITS SHOULD BE SET
 48335	065122	302 06 0 00 000007 		CAIE	6,7
 48336						STOP^
 48337	065123	254 04 0 00 065124 		HALT	.+1		;INSTRUCTION FAILED REPLACE
 48338	065124	254 00 0 00 065125 		JRST	.+1		;WITH JRST BACK^
 48339			000200			X=X_1			;NEXT BIT
 48340
 48341
 48342					;TRY TO RESET THE PI AND APR VIA A CONO BIT TO DEVICE 774
 48343						CLRBTH^
 48344	065125	700 04 0 00 267760 		CLRAPR
 48345	065126	700 14 0 00 031577 		CLRPI^
 48346	065127	7 004 20 0 00 002377 		CONO	PI,PION!CHNON!177
 48347	065130	7 000 20 0 00 000007 		CONO	APR,7		;TURN ON PI AND APR BITS
 48348	065131	7 774 20 0 00 000200 		CONO	LAST,X		;SEND AND IOB BIT OUT
 48349	065132	7 004 24 0 00 000007 		CONI	PI,7		;PI BITS SHOULD STILL BE SET
 48350	065133	302 07 0 00 000377 		CAIE	7,377
 48351						STOP^
 48352	065134	254 04 0 00 065135 		HALT	.+1		;INSTRUCTION FAILED REPLACE
 48353	065135	254 00 0 00 065136 		JRST	.+1		;WITH JRST BACK^
 48354	065136	7 000 24 0 00 000006 		CONI	APR,6		;APR BITS SHOULD BE SET
 48355	065137	302 06 0 00 000007 		CAIE	6,7
 48356						STOP^
 48357	065140	254 04 0 00 065141 		HALT	.+1		;INSTRUCTION FAILED REPLACE
 48358	065141	254 00 0 00 065142 		JRST	.+1		;WITH JRST BACK^
 48359			000400			X=X_1			;NEXT BIT
 48360
 48361
 48362					;TRY TO RESET THE PI AND APR VIA A CONO BIT TO DEVICE 774
 48363						CLRBTH^
 48364	065142	700 04 0 00 267760 		CLRAPR
 48365	065143	700 14 0 00 031577 		CLRPI^
 48366	065144	7 004 20 0 00 002377 		CONO	PI,PION!CHNON!177
 48367	065145	7 000 20 0 00 000007 		CONO	APR,7		;TURN ON PI AND APR BITS
 48368	065146	7 774 20 0 00 000400 		CONO	LAST,X		;SEND AND IOB BIT OUT
 48369	065147	7 004 24 0 00 000007 		CONI	PI,7		;PI BITS SHOULD STILL BE SET
 48370	065150	302 07 0 00 000377 		CAIE	7,377
 48371						STOP^
 48372	065151	254 04 0 00 065152 		HALT	.+1		;INSTRUCTION FAILED REPLACE
 48373	065152	254 00 0 00 065153 		JRST	.+1		;WITH JRST BACK^
 48374	065153	7 000 24 0 00 000006 		CONI	APR,6		;APR BITS SHOULD BE SET
 48375	065154	302 06 0 00 000007 		CAIE	6,7
 48376						STOP^
 48377	065155	254 04 0 00 065156 		HALT	.+1		;INSTRUCTION FAILED REPLACE
 48378	065156	254 00 0 00 065157 		JRST	.+1		;WITH JRST BACK^
 48379			001000			X=X_1			;NEXT BIT
 48380
 48381
DFKAA PDP-10 KL10 BASIC INSTRUCTION DIAGNOSTIC (1) VER 0,2	MACRO %53B(1254)-4 11:50 11-Nov-24 Page 43-4
DFKAA8	MAC	13-Jan-89 10:22		TEST VARIOUS RESETS

 48382					;TRY TO RESET THE PI AND APR VIA A CONO BIT TO DEVICE 774
 48383						CLRBTH^
 48384	065157	700 04 0 00 267760 		CLRAPR
 48385	065160	700 14 0 00 031577 		CLRPI^
 48386	065161	7 004 20 0 00 002377 		CONO	PI,PION!CHNON!177
 48387	065162	7 000 20 0 00 000007 		CONO	APR,7		;TURN ON PI AND APR BITS
 48388	065163	7 774 20 0 00 001000 		CONO	LAST,X		;SEND AND IOB BIT OUT
 48389	065164	7 004 24 0 00 000007 		CONI	PI,7		;PI BITS SHOULD STILL BE SET
 48390	065165	302 07 0 00 000377 		CAIE	7,377
 48391						STOP^
 48392	065166	254 04 0 00 065167 		HALT	.+1		;INSTRUCTION FAILED REPLACE
 48393	065167	254 00 0 00 065170 		JRST	.+1		;WITH JRST BACK^
 48394	065170	7 000 24 0 00 000006 		CONI	APR,6		;APR BITS SHOULD BE SET
 48395	065171	302 06 0 00 000007 		CAIE	6,7
 48396						STOP^
 48397	065172	254 04 0 00 065173 		HALT	.+1		;INSTRUCTION FAILED REPLACE
 48398	065173	254 00 0 00 065174 		JRST	.+1		;WITH JRST BACK^
 48399			002000			X=X_1			;NEXT BIT
 48400
 48401
 48402					;TRY TO RESET THE PI AND APR VIA A CONO BIT TO DEVICE 774
 48403						CLRBTH^
 48404	065174	700 04 0 00 267760 		CLRAPR
 48405	065175	700 14 0 00 031577 		CLRPI^
 48406	065176	7 004 20 0 00 002377 		CONO	PI,PION!CHNON!177
 48407	065177	7 000 20 0 00 000007 		CONO	APR,7		;TURN ON PI AND APR BITS
 48408	065200	7 774 20 0 00 002000 		CONO	LAST,X		;SEND AND IOB BIT OUT
 48409	065201	7 004 24 0 00 000007 		CONI	PI,7		;PI BITS SHOULD STILL BE SET
 48410	065202	302 07 0 00 000377 		CAIE	7,377
 48411						STOP^
 48412	065203	254 04 0 00 065204 		HALT	.+1		;INSTRUCTION FAILED REPLACE
 48413	065204	254 00 0 00 065205 		JRST	.+1		;WITH JRST BACK^
 48414	065205	7 000 24 0 00 000006 		CONI	APR,6		;APR BITS SHOULD BE SET
 48415	065206	302 06 0 00 000007 		CAIE	6,7
 48416						STOP^
 48417	065207	254 04 0 00 065210 		HALT	.+1		;INSTRUCTION FAILED REPLACE
 48418	065210	254 00 0 00 065211 		JRST	.+1		;WITH JRST BACK^
 48419			004000			X=X_1			;NEXT BIT
 48420
 48421
 48422					;TRY TO RESET THE PI AND APR VIA A CONO BIT TO DEVICE 774
 48423						CLRBTH^
 48424	065211	700 04 0 00 267760 		CLRAPR
 48425	065212	700 14 0 00 031577 		CLRPI^
 48426	065213	7 004 20 0 00 002377 		CONO	PI,PION!CHNON!177
 48427	065214	7 000 20 0 00 000007 		CONO	APR,7		;TURN ON PI AND APR BITS
 48428	065215	7 774 20 0 00 004000 		CONO	LAST,X		;SEND AND IOB BIT OUT
 48429	065216	7 004 24 0 00 000007 		CONI	PI,7		;PI BITS SHOULD STILL BE SET
 48430	065217	302 07 0 00 000377 		CAIE	7,377
 48431						STOP^
 48432	065220	254 04 0 00 065221 		HALT	.+1		;INSTRUCTION FAILED REPLACE
 48433	065221	254 00 0 00 065222 		JRST	.+1		;WITH JRST BACK^
 48434	065222	7 000 24 0 00 000006 		CONI	APR,6		;APR BITS SHOULD BE SET
 48435	065223	302 06 0 00 000007 		CAIE	6,7
 48436						STOP^
DFKAA PDP-10 KL10 BASIC INSTRUCTION DIAGNOSTIC (1) VER 0,2	MACRO %53B(1254)-4 11:50 11-Nov-24 Page 43-5
DFKAA8	MAC	13-Jan-89 10:22		TEST VARIOUS RESETS

 48437	065224	254 04 0 00 065225 		HALT	.+1		;INSTRUCTION FAILED REPLACE
 48438	065225	254 00 0 00 065226 		JRST	.+1		;WITH JRST BACK^
 48439			010000			X=X_1			;NEXT BIT
 48440
 48441
 48442					;TRY TO RESET THE PI AND APR VIA A CONO BIT TO DEVICE 774
 48443						CLRBTH^
 48444	065226	700 04 0 00 267760 		CLRAPR
 48445	065227	700 14 0 00 031577 		CLRPI^
 48446	065230	7 004 20 0 00 002377 		CONO	PI,PION!CHNON!177
 48447	065231	7 000 20 0 00 000007 		CONO	APR,7		;TURN ON PI AND APR BITS
 48448	065232	7 774 20 0 00 010000 		CONO	LAST,X		;SEND AND IOB BIT OUT
 48449	065233	7 004 24 0 00 000007 		CONI	PI,7		;PI BITS SHOULD STILL BE SET
 48450	065234	302 07 0 00 000377 		CAIE	7,377
 48451						STOP^
 48452	065235	254 04 0 00 065236 		HALT	.+1		;INSTRUCTION FAILED REPLACE
 48453	065236	254 00 0 00 065237 		JRST	.+1		;WITH JRST BACK^
 48454	065237	7 000 24 0 00 000006 		CONI	APR,6		;APR BITS SHOULD BE SET
 48455	065240	302 06 0 00 000007 		CAIE	6,7
 48456						STOP^
 48457	065241	254 04 0 00 065242 		HALT	.+1		;INSTRUCTION FAILED REPLACE
 48458	065242	254 00 0 00 065243 		JRST	.+1		;WITH JRST BACK^
 48459			020000			X=X_1			;NEXT BIT
 48460
 48461
 48462					;TRY TO RESET THE PI AND APR VIA A CONO BIT TO DEVICE 774
 48463						CLRBTH^
 48464	065243	700 04 0 00 267760 		CLRAPR
 48465	065244	700 14 0 00 031577 		CLRPI^
 48466	065245	7 004 20 0 00 002377 		CONO	PI,PION!CHNON!177
 48467	065246	7 000 20 0 00 000007 		CONO	APR,7		;TURN ON PI AND APR BITS
 48468	065247	7 774 20 0 00 020000 		CONO	LAST,X		;SEND AND IOB BIT OUT
 48469	065250	7 004 24 0 00 000007 		CONI	PI,7		;PI BITS SHOULD STILL BE SET
 48470	065251	302 07 0 00 000377 		CAIE	7,377
 48471						STOP^
 48472	065252	254 04 0 00 065253 		HALT	.+1		;INSTRUCTION FAILED REPLACE
 48473	065253	254 00 0 00 065254 		JRST	.+1		;WITH JRST BACK^
 48474	065254	7 000 24 0 00 000006 		CONI	APR,6		;APR BITS SHOULD BE SET
 48475	065255	302 06 0 00 000007 		CAIE	6,7
 48476						STOP^
 48477	065256	254 04 0 00 065257 		HALT	.+1		;INSTRUCTION FAILED REPLACE
 48478	065257	254 00 0 00 065260 		JRST	.+1		;WITH JRST BACK^
 48479			040000			X=X_1			;NEXT BIT
 48480
 48481
 48482					;TRY TO RESET THE PI AND APR VIA A CONO BIT TO DEVICE 774
 48483						CLRBTH^
 48484	065260	700 04 0 00 267760 		CLRAPR
 48485	065261	700 14 0 00 031577 		CLRPI^
 48486	065262	7 004 20 0 00 002377 		CONO	PI,PION!CHNON!177
 48487	065263	7 000 20 0 00 000007 		CONO	APR,7		;TURN ON PI AND APR BITS
 48488	065264	7 774 20 0 00 040000 		CONO	LAST,X		;SEND AND IOB BIT OUT
 48489	065265	7 004 24 0 00 000007 		CONI	PI,7		;PI BITS SHOULD STILL BE SET
 48490	065266	302 07 0 00 000377 		CAIE	7,377
 48491						STOP^
DFKAA PDP-10 KL10 BASIC INSTRUCTION DIAGNOSTIC (1) VER 0,2	MACRO %53B(1254)-4 11:50 11-Nov-24 Page 43-6
DFKAA8	MAC	13-Jan-89 10:22		TEST VARIOUS RESETS

 48492	065267	254 04 0 00 065270 		HALT	.+1		;INSTRUCTION FAILED REPLACE
 48493	065270	254 00 0 00 065271 		JRST	.+1		;WITH JRST BACK^
 48494	065271	7 000 24 0 00 000006 		CONI	APR,6		;APR BITS SHOULD BE SET
 48495	065272	302 06 0 00 000007 		CAIE	6,7
 48496						STOP^
 48497	065273	254 04 0 00 065274 		HALT	.+1		;INSTRUCTION FAILED REPLACE
 48498	065274	254 00 0 00 065275 		JRST	.+1		;WITH JRST BACK^
 48499			100000			X=X_1			;NEXT BIT
 48500
 48501
 48502					;TRY TO RESET THE PI AND APR VIA A CONO BIT TO DEVICE 774
 48503						CLRBTH^
 48504	065275	700 04 0 00 267760 		CLRAPR
 48505	065276	700 14 0 00 031577 		CLRPI^
 48506	065277	7 004 20 0 00 002377 		CONO	PI,PION!CHNON!177
 48507	065300	7 000 20 0 00 000007 		CONO	APR,7		;TURN ON PI AND APR BITS
 48508	065301	7 774 20 0 00 100000 		CONO	LAST,X		;SEND AND IOB BIT OUT
 48509	065302	7 004 24 0 00 000007 		CONI	PI,7		;PI BITS SHOULD STILL BE SET
 48510	065303	302 07 0 00 000377 		CAIE	7,377
 48511						STOP^
 48512	065304	254 04 0 00 065305 		HALT	.+1		;INSTRUCTION FAILED REPLACE
 48513	065305	254 00 0 00 065306 		JRST	.+1		;WITH JRST BACK^
 48514	065306	7 000 24 0 00 000006 		CONI	APR,6		;APR BITS SHOULD BE SET
 48515	065307	302 06 0 00 000007 		CAIE	6,7
 48516						STOP^
 48517	065310	254 04 0 00 065311 		HALT	.+1		;INSTRUCTION FAILED REPLACE
 48518	065311	254 00 0 00 065312 		JRST	.+1		;WITH JRST BACK^
 48519			200000			X=X_1			;NEXT BIT
 48520
 48521
 48522					;TRY TO RESET THE PI AND APR VIA A CONO BIT TO DEVICE 774
 48523						CLRBTH^
 48524	065312	700 04 0 00 267760 		CLRAPR
 48525	065313	700 14 0 00 031577 		CLRPI^
 48526	065314	7 004 20 0 00 002377 		CONO	PI,PION!CHNON!177
 48527	065315	7 000 20 0 00 000007 		CONO	APR,7		;TURN ON PI AND APR BITS
 48528	065316	7 774 20 0 00 200000 		CONO	LAST,X		;SEND AND IOB BIT OUT
 48529	065317	7 004 24 0 00 000007 		CONI	PI,7		;PI BITS SHOULD STILL BE SET
 48530	065320	302 07 0 00 000377 		CAIE	7,377
 48531						STOP^
 48532	065321	254 04 0 00 065322 		HALT	.+1		;INSTRUCTION FAILED REPLACE
 48533	065322	254 00 0 00 065323 		JRST	.+1		;WITH JRST BACK^
 48534	065323	7 000 24 0 00 000006 		CONI	APR,6		;APR BITS SHOULD BE SET
 48535	065324	302 06 0 00 000007 		CAIE	6,7
 48536						STOP^
 48537	065325	254 04 0 00 065326 		HALT	.+1		;INSTRUCTION FAILED REPLACE
 48538	065326	254 00 0 00 065327 		JRST	.+1		;WITH JRST BACK^
 48539			400000			X=X_1			;NEXT BIT
 48540
 48541
 48542					;TRY TO RESET THE PI AND APR VIA A CONO BIT TO DEVICE 774
 48543						CLRBTH^
 48544	065327	700 04 0 00 267760 		CLRAPR
 48545	065330	700 14 0 00 031577 		CLRPI^
 48546	065331	7 004 20 0 00 002377 		CONO	PI,PION!CHNON!177
DFKAA PDP-10 KL10 BASIC INSTRUCTION DIAGNOSTIC (1) VER 0,2	MACRO %53B(1254)-4 11:50 11-Nov-24 Page 43-7
DFKAA8	MAC	13-Jan-89 10:22		TEST VARIOUS RESETS

 48547	065332	7 000 20 0 00 000007 		CONO	APR,7		;TURN ON PI AND APR BITS
 48548	065333	7 774 20 0 00 400000 		CONO	LAST,X		;SEND AND IOB BIT OUT
 48549	065334	7 004 24 0 00 000007 		CONI	PI,7		;PI BITS SHOULD STILL BE SET
 48550	065335	302 07 0 00 000377 		CAIE	7,377
 48551						STOP^
 48552	065336	254 04 0 00 065337 		HALT	.+1		;INSTRUCTION FAILED REPLACE
 48553	065337	254 00 0 00 065340 		JRST	.+1		;WITH JRST BACK^
 48554	065340	7 000 24 0 00 000006 		CONI	APR,6		;APR BITS SHOULD BE SET
 48555	065341	302 06 0 00 000007 		CAIE	6,7
 48556						STOP^
 48557	065342	254 04 0 00 065343 		HALT	.+1		;INSTRUCTION FAILED REPLACE
 48558	065343	254 00 0 00 065344 		JRST	.+1		;WITH JRST BACK^
 48559		000001	000000			X=X_1			;NEXT BIT
 48560
DFKAA PDP-10 KL10 BASIC INSTRUCTION DIAGNOSTIC (1) VER 0,2	MACRO %53B(1254)-4 11:50 11-Nov-24 Page 44
DFKAA8	MAC	13-Jan-89 10:22		INTERRUPT OUT OF INDIRECT LOOP

 48561					SUBTTL	INTERRUPT OUT OF INDIRECT LOOP
 48562
 48563						INDPI	42,1^
 48564
 48565					;GET OURSELVES INTO 42 TIGHT INDIRECT LOOP.
 48566					;AND SEE IF WE ARE ABLE TO INTERRUPT OUT OF IT.
 48567					;THE LOOP IS DONE TEN TIMES. EACH TIME THE INTERRUPT IS DISMISSED AND
 48568					;WE WILL RETURN TO THE "JRST @." INSTRUCTION.
 48569
 48570						TSET^
 48571			065344			%X=.			;DEFINE %X TO SAVE
 48572	065344	201 00 0 00 065344 		MOVEI	%X		;SAVE THIS PC IN CASE OF WILD TRANSFER
 48573	065345	202 00 0 00 071350 		MOVEM	TNUMB#		;BECAUSE OF PC MOD OR INTERRUPT^
 48574	065346	201 10 0 00 000012 		MOVEI	10,^D10		;TIMES TO DO THIS TEST
 48575	065347	202 10 0 00 071347 		MOVEM	10,COUNTX#	;STORE IT
 48576	065350	200 10 0 00 071171 		MOVE	10,[JSP 1,..0155]	;INTERRUPT TRAP INSTRUCTION
 48577	065351	202 10 0 00 000042 		MOVEM	10,42		;STORE FOR INTERRUPT REQUEST
 48578						CLRBT1^
 48579	065352	700 04 0 00 267760 		CLRAPR
 48580	065353	700 14 0 00 031577 		CLRPI^
 48581	065354	7 004 20 0 00 002377 		CONO	PI,2377		;TURN ON PI AND CHANNELS
 48582	065355	7 000 20 0 00 114001 		CONO	APR,LESBER!LSSBER!1	;ENABLE AND SET S BUS ERRORS,ENABLE CH 1
 48583	065356	254 00 1 00 065356 		JRST	@.		;LOOP
 48584	065357	254 04 0 00 065360 		HALT	.+1		;ERROR IF HERE  (GOT OUT OF INDIRECT LOOP)
 48585	065360				..0155:	TGET^
 48586	065360	200 00 0 00 071350 		MOVE	TNUMB		;GET LAST PC STORED AND CHECK TO SEE
 48587	065361	302 00 0 00 065344 		CAIE	%X		;IF ITS WHERE WE REALLY SHOULD BE
 48588						STOP2^^
 48589	065362	254 04 0 00 065363 		HALT	.+1		;HALT IF WE SHOULDN'T BE HERE
 48590	065363	254 00 0 00 065364 		JRST	.+1		;WILD TRANSFER CAUSED THIS HALT.^
 48591	065364	405 01 0 00 777777 		ANDI	1,-1		;MASK PC BITS
 48592	065365	302 01 0 00 065356 		CAIE	1,..0155-2		;WAS CORRECT PC STORED?
 48593						STOP^
 48594	065366	254 04 0 00 065367 		HALT	.+1		;INSTRUCTION FAILED REPLACE
 48595	065367	254 00 0 00 065370 		JRST	.+1		;WITH JRST BACK^
 48596	065370	372 00 0 00 071347 		SOSE	COUNTX		;LOOP TEST
 48597	065371	254 12 1 00 000001 		JEN	@1		;DISMISS INTERRUPT
 48598						CLRBTH^
 48599	065372	700 04 0 00 267760 		CLRAPR
 48600	065373	700 14 0 00 031577 		CLRPI^
 48601					^
 48602
 48603						INDPI	44,2^
 48604
 48605					;GET OURSELVES INTO 44 TIGHT INDIRECT LOOP.
 48606					;AND SEE IF WE ARE ABLE TO INTERRUPT OUT OF IT.
 48607					;THE LOOP IS DONE TEN TIMES. EACH TIME THE INTERRUPT IS DISMISSED AND
 48608					;WE WILL RETURN TO THE "JRST @." INSTRUCTION.
 48609
 48610						TSET^
 48611			065374			%X=.			;DEFINE %X TO SAVE
 48612	065374	201 00 0 00 065374 		MOVEI	%X		;SAVE THIS PC IN CASE OF WILD TRANSFER
 48613	065375	202 00 0 00 071350 		MOVEM	TNUMB#		;BECAUSE OF PC MOD OR INTERRUPT^
 48614	065376	201 10 0 00 000012 		MOVEI	10,^D10		;TIMES TO DO THIS TEST
 48615	065377	202 10 0 00 071347 		MOVEM	10,COUNTX#	;STORE IT
DFKAA PDP-10 KL10 BASIC INSTRUCTION DIAGNOSTIC (1) VER 0,2	MACRO %53B(1254)-4 11:50 11-Nov-24 Page 44-1
DFKAA8	MAC	13-Jan-89 10:22		INTERRUPT OUT OF INDIRECT LOOP

 48616	065400	200 10 0 00 071172 		MOVE	10,[JSP 1,..0156]	;INTERRUPT TRAP INSTRUCTION
 48617	065401	202 10 0 00 000044 		MOVEM	10,44		;STORE FOR INTERRUPT REQUEST
 48618						CLRBT1^
 48619	065402	700 04 0 00 267760 		CLRAPR
 48620	065403	700 14 0 00 031577 		CLRPI^
 48621	065404	7 004 20 0 00 002377 		CONO	PI,2377		;TURN ON PI AND CHANNELS
 48622	065405	7 000 20 0 00 114002 		CONO	APR,LESBER!LSSBER!2	;ENABLE AND SET S BUS ERRORS,ENABLE CH 2
 48623	065406	254 00 1 00 065406 		JRST	@.		;LOOP
 48624	065407	254 04 0 00 065410 		HALT	.+1		;ERROR IF HERE  (GOT OUT OF INDIRECT LOOP)
 48625	065410				..0156:	TGET^
 48626	065410	200 00 0 00 071350 		MOVE	TNUMB		;GET LAST PC STORED AND CHECK TO SEE
 48627	065411	302 00 0 00 065374 		CAIE	%X		;IF ITS WHERE WE REALLY SHOULD BE
 48628						STOP2^^
 48629	065412	254 04 0 00 065413 		HALT	.+1		;HALT IF WE SHOULDN'T BE HERE
 48630	065413	254 00 0 00 065414 		JRST	.+1		;WILD TRANSFER CAUSED THIS HALT.^
 48631	065414	405 01 0 00 777777 		ANDI	1,-1		;MASK PC BITS
 48632	065415	302 01 0 00 065406 		CAIE	1,..0156-2		;WAS CORRECT PC STORED?
 48633						STOP^
 48634	065416	254 04 0 00 065417 		HALT	.+1		;INSTRUCTION FAILED REPLACE
 48635	065417	254 00 0 00 065420 		JRST	.+1		;WITH JRST BACK^
 48636	065420	372 00 0 00 071347 		SOSE	COUNTX		;LOOP TEST
 48637	065421	254 12 1 00 000001 		JEN	@1		;DISMISS INTERRUPT
 48638						CLRBTH^
 48639	065422	700 04 0 00 267760 		CLRAPR
 48640	065423	700 14 0 00 031577 		CLRPI^
 48641					^
 48642
 48643						INDPI	46,3^
 48644
 48645					;GET OURSELVES INTO 46 TIGHT INDIRECT LOOP.
 48646					;AND SEE IF WE ARE ABLE TO INTERRUPT OUT OF IT.
 48647					;THE LOOP IS DONE TEN TIMES. EACH TIME THE INTERRUPT IS DISMISSED AND
 48648					;WE WILL RETURN TO THE "JRST @." INSTRUCTION.
 48649
 48650						TSET^
 48651			065424			%X=.			;DEFINE %X TO SAVE
 48652	065424	201 00 0 00 065424 		MOVEI	%X		;SAVE THIS PC IN CASE OF WILD TRANSFER
 48653	065425	202 00 0 00 071350 		MOVEM	TNUMB#		;BECAUSE OF PC MOD OR INTERRUPT^
 48654	065426	201 10 0 00 000012 		MOVEI	10,^D10		;TIMES TO DO THIS TEST
 48655	065427	202 10 0 00 071347 		MOVEM	10,COUNTX#	;STORE IT
 48656	065430	200 10 0 00 071173 		MOVE	10,[JSP 1,..0157]	;INTERRUPT TRAP INSTRUCTION
 48657	065431	202 10 0 00 000046 		MOVEM	10,46		;STORE FOR INTERRUPT REQUEST
 48658						CLRBT1^
 48659	065432	700 04 0 00 267760 		CLRAPR
 48660	065433	700 14 0 00 031577 		CLRPI^
 48661	065434	7 004 20 0 00 002377 		CONO	PI,2377		;TURN ON PI AND CHANNELS
 48662	065435	7 000 20 0 00 114003 		CONO	APR,LESBER!LSSBER!3	;ENABLE AND SET S BUS ERRORS,ENABLE CH 3
 48663	065436	254 00 1 00 065436 		JRST	@.		;LOOP
 48664	065437	254 04 0 00 065440 		HALT	.+1		;ERROR IF HERE  (GOT OUT OF INDIRECT LOOP)
 48665	065440				..0157:	TGET^
 48666	065440	200 00 0 00 071350 		MOVE	TNUMB		;GET LAST PC STORED AND CHECK TO SEE
 48667	065441	302 00 0 00 065424 		CAIE	%X		;IF ITS WHERE WE REALLY SHOULD BE
 48668						STOP2^^
 48669	065442	254 04 0 00 065443 		HALT	.+1		;HALT IF WE SHOULDN'T BE HERE
 48670	065443	254 00 0 00 065444 		JRST	.+1		;WILD TRANSFER CAUSED THIS HALT.^
DFKAA PDP-10 KL10 BASIC INSTRUCTION DIAGNOSTIC (1) VER 0,2	MACRO %53B(1254)-4 11:50 11-Nov-24 Page 44-2
DFKAA8	MAC	13-Jan-89 10:22		INTERRUPT OUT OF INDIRECT LOOP

 48671	065444	405 01 0 00 777777 		ANDI	1,-1		;MASK PC BITS
 48672	065445	302 01 0 00 065436 		CAIE	1,..0157-2		;WAS CORRECT PC STORED?
 48673						STOP^
 48674	065446	254 04 0 00 065447 		HALT	.+1		;INSTRUCTION FAILED REPLACE
 48675	065447	254 00 0 00 065450 		JRST	.+1		;WITH JRST BACK^
 48676	065450	372 00 0 00 071347 		SOSE	COUNTX		;LOOP TEST
 48677	065451	254 12 1 00 000001 		JEN	@1		;DISMISS INTERRUPT
 48678						CLRBTH^
 48679	065452	700 04 0 00 267760 		CLRAPR
 48680	065453	700 14 0 00 031577 		CLRPI^
 48681					^
 48682
 48683						INDPI	50,4^
 48684
 48685					;GET OURSELVES INTO 50 TIGHT INDIRECT LOOP.
 48686					;AND SEE IF WE ARE ABLE TO INTERRUPT OUT OF IT.
 48687					;THE LOOP IS DONE TEN TIMES. EACH TIME THE INTERRUPT IS DISMISSED AND
 48688					;WE WILL RETURN TO THE "JRST @." INSTRUCTION.
 48689
 48690						TSET^
 48691			065454			%X=.			;DEFINE %X TO SAVE
 48692	065454	201 00 0 00 065454 		MOVEI	%X		;SAVE THIS PC IN CASE OF WILD TRANSFER
 48693	065455	202 00 0 00 071350 		MOVEM	TNUMB#		;BECAUSE OF PC MOD OR INTERRUPT^
 48694	065456	201 10 0 00 000012 		MOVEI	10,^D10		;TIMES TO DO THIS TEST
 48695	065457	202 10 0 00 071347 		MOVEM	10,COUNTX#	;STORE IT
 48696	065460	200 10 0 00 071174 		MOVE	10,[JSP 1,..0160]	;INTERRUPT TRAP INSTRUCTION
 48697	065461	202 10 0 00 000050 		MOVEM	10,50		;STORE FOR INTERRUPT REQUEST
 48698						CLRBT1^
 48699	065462	700 04 0 00 267760 		CLRAPR
 48700	065463	700 14 0 00 031577 		CLRPI^
 48701	065464	7 004 20 0 00 002377 		CONO	PI,2377		;TURN ON PI AND CHANNELS
 48702	065465	7 000 20 0 00 114004 		CONO	APR,LESBER!LSSBER!4	;ENABLE AND SET S BUS ERRORS,ENABLE CH 4
 48703	065466	254 00 1 00 065466 		JRST	@.		;LOOP
 48704	065467	254 04 0 00 065470 		HALT	.+1		;ERROR IF HERE  (GOT OUT OF INDIRECT LOOP)
 48705	065470				..0160:	TGET^
 48706	065470	200 00 0 00 071350 		MOVE	TNUMB		;GET LAST PC STORED AND CHECK TO SEE
 48707	065471	302 00 0 00 065454 		CAIE	%X		;IF ITS WHERE WE REALLY SHOULD BE
 48708						STOP2^^
 48709	065472	254 04 0 00 065473 		HALT	.+1		;HALT IF WE SHOULDN'T BE HERE
 48710	065473	254 00 0 00 065474 		JRST	.+1		;WILD TRANSFER CAUSED THIS HALT.^
 48711	065474	405 01 0 00 777777 		ANDI	1,-1		;MASK PC BITS
 48712	065475	302 01 0 00 065466 		CAIE	1,..0160-2		;WAS CORRECT PC STORED?
 48713						STOP^
 48714	065476	254 04 0 00 065477 		HALT	.+1		;INSTRUCTION FAILED REPLACE
 48715	065477	254 00 0 00 065500 		JRST	.+1		;WITH JRST BACK^
 48716	065500	372 00 0 00 071347 		SOSE	COUNTX		;LOOP TEST
 48717	065501	254 12 1 00 000001 		JEN	@1		;DISMISS INTERRUPT
 48718						CLRBTH^
 48719	065502	700 04 0 00 267760 		CLRAPR
 48720	065503	700 14 0 00 031577 		CLRPI^
 48721					^
 48722
 48723						INDPI	52,5^
 48724
 48725					;GET OURSELVES INTO 52 TIGHT INDIRECT LOOP.
DFKAA PDP-10 KL10 BASIC INSTRUCTION DIAGNOSTIC (1) VER 0,2	MACRO %53B(1254)-4 11:50 11-Nov-24 Page 44-3
DFKAA8	MAC	13-Jan-89 10:22		INTERRUPT OUT OF INDIRECT LOOP

 48726					;AND SEE IF WE ARE ABLE TO INTERRUPT OUT OF IT.
 48727					;THE LOOP IS DONE TEN TIMES. EACH TIME THE INTERRUPT IS DISMISSED AND
 48728					;WE WILL RETURN TO THE "JRST @." INSTRUCTION.
 48729
 48730						TSET^
 48731			065504			%X=.			;DEFINE %X TO SAVE
 48732	065504	201 00 0 00 065504 		MOVEI	%X		;SAVE THIS PC IN CASE OF WILD TRANSFER
 48733	065505	202 00 0 00 071350 		MOVEM	TNUMB#		;BECAUSE OF PC MOD OR INTERRUPT^
 48734	065506	201 10 0 00 000012 		MOVEI	10,^D10		;TIMES TO DO THIS TEST
 48735	065507	202 10 0 00 071347 		MOVEM	10,COUNTX#	;STORE IT
 48736	065510	200 10 0 00 071175 		MOVE	10,[JSP 1,..0161]	;INTERRUPT TRAP INSTRUCTION
 48737	065511	202 10 0 00 000052 		MOVEM	10,52		;STORE FOR INTERRUPT REQUEST
 48738						CLRBT1^
 48739	065512	700 04 0 00 267760 		CLRAPR
 48740	065513	700 14 0 00 031577 		CLRPI^
 48741	065514	7 004 20 0 00 002377 		CONO	PI,2377		;TURN ON PI AND CHANNELS
 48742	065515	7 000 20 0 00 114005 		CONO	APR,LESBER!LSSBER!5	;ENABLE AND SET S BUS ERRORS,ENABLE CH 5
 48743	065516	254 00 1 00 065516 		JRST	@.		;LOOP
 48744	065517	254 04 0 00 065520 		HALT	.+1		;ERROR IF HERE  (GOT OUT OF INDIRECT LOOP)
 48745	065520				..0161:	TGET^
 48746	065520	200 00 0 00 071350 		MOVE	TNUMB		;GET LAST PC STORED AND CHECK TO SEE
 48747	065521	302 00 0 00 065504 		CAIE	%X		;IF ITS WHERE WE REALLY SHOULD BE
 48748						STOP2^^
 48749	065522	254 04 0 00 065523 		HALT	.+1		;HALT IF WE SHOULDN'T BE HERE
 48750	065523	254 00 0 00 065524 		JRST	.+1		;WILD TRANSFER CAUSED THIS HALT.^
 48751	065524	405 01 0 00 777777 		ANDI	1,-1		;MASK PC BITS
 48752	065525	302 01 0 00 065516 		CAIE	1,..0161-2		;WAS CORRECT PC STORED?
 48753						STOP^
 48754	065526	254 04 0 00 065527 		HALT	.+1		;INSTRUCTION FAILED REPLACE
 48755	065527	254 00 0 00 065530 		JRST	.+1		;WITH JRST BACK^
 48756	065530	372 00 0 00 071347 		SOSE	COUNTX		;LOOP TEST
 48757	065531	254 12 1 00 000001 		JEN	@1		;DISMISS INTERRUPT
 48758						CLRBTH^
 48759	065532	700 04 0 00 267760 		CLRAPR
 48760	065533	700 14 0 00 031577 		CLRPI^
 48761					^
 48762
 48763						INDPI	54,6^
 48764
 48765					;GET OURSELVES INTO 54 TIGHT INDIRECT LOOP.
 48766					;AND SEE IF WE ARE ABLE TO INTERRUPT OUT OF IT.
 48767					;THE LOOP IS DONE TEN TIMES. EACH TIME THE INTERRUPT IS DISMISSED AND
 48768					;WE WILL RETURN TO THE "JRST @." INSTRUCTION.
 48769
 48770						TSET^
 48771			065534			%X=.			;DEFINE %X TO SAVE
 48772	065534	201 00 0 00 065534 		MOVEI	%X		;SAVE THIS PC IN CASE OF WILD TRANSFER
 48773	065535	202 00 0 00 071350 		MOVEM	TNUMB#		;BECAUSE OF PC MOD OR INTERRUPT^
 48774	065536	201 10 0 00 000012 		MOVEI	10,^D10		;TIMES TO DO THIS TEST
 48775	065537	202 10 0 00 071347 		MOVEM	10,COUNTX#	;STORE IT
 48776	065540	200 10 0 00 071176 		MOVE	10,[JSP 1,..0162]	;INTERRUPT TRAP INSTRUCTION
 48777	065541	202 10 0 00 000054 		MOVEM	10,54		;STORE FOR INTERRUPT REQUEST
 48778						CLRBT1^
 48779	065542	700 04 0 00 267760 		CLRAPR
 48780	065543	700 14 0 00 031577 		CLRPI^
DFKAA PDP-10 KL10 BASIC INSTRUCTION DIAGNOSTIC (1) VER 0,2	MACRO %53B(1254)-4 11:50 11-Nov-24 Page 44-4
DFKAA8	MAC	13-Jan-89 10:22		INTERRUPT OUT OF INDIRECT LOOP

 48781	065544	7 004 20 0 00 002377 		CONO	PI,2377		;TURN ON PI AND CHANNELS
 48782	065545	7 000 20 0 00 114006 		CONO	APR,LESBER!LSSBER!6	;ENABLE AND SET S BUS ERRORS,ENABLE CH 6
 48783	065546	254 00 1 00 065546 		JRST	@.		;LOOP
 48784	065547	254 04 0 00 065550 		HALT	.+1		;ERROR IF HERE  (GOT OUT OF INDIRECT LOOP)
 48785	065550				..0162:	TGET^
 48786	065550	200 00 0 00 071350 		MOVE	TNUMB		;GET LAST PC STORED AND CHECK TO SEE
 48787	065551	302 00 0 00 065534 		CAIE	%X		;IF ITS WHERE WE REALLY SHOULD BE
 48788						STOP2^^
 48789	065552	254 04 0 00 065553 		HALT	.+1		;HALT IF WE SHOULDN'T BE HERE
 48790	065553	254 00 0 00 065554 		JRST	.+1		;WILD TRANSFER CAUSED THIS HALT.^
 48791	065554	405 01 0 00 777777 		ANDI	1,-1		;MASK PC BITS
 48792	065555	302 01 0 00 065546 		CAIE	1,..0162-2		;WAS CORRECT PC STORED?
 48793						STOP^
 48794	065556	254 04 0 00 065557 		HALT	.+1		;INSTRUCTION FAILED REPLACE
 48795	065557	254 00 0 00 065560 		JRST	.+1		;WITH JRST BACK^
 48796	065560	372 00 0 00 071347 		SOSE	COUNTX		;LOOP TEST
 48797	065561	254 12 1 00 000001 		JEN	@1		;DISMISS INTERRUPT
 48798						CLRBTH^
 48799	065562	700 04 0 00 267760 		CLRAPR
 48800	065563	700 14 0 00 031577 		CLRPI^
 48801					^
 48802
 48803						INDPI	56,7^
 48804
 48805					;GET OURSELVES INTO 56 TIGHT INDIRECT LOOP.
 48806					;AND SEE IF WE ARE ABLE TO INTERRUPT OUT OF IT.
 48807					;THE LOOP IS DONE TEN TIMES. EACH TIME THE INTERRUPT IS DISMISSED AND
 48808					;WE WILL RETURN TO THE "JRST @." INSTRUCTION.
 48809
 48810						TSET^
 48811			065564			%X=.			;DEFINE %X TO SAVE
 48812	065564	201 00 0 00 065564 		MOVEI	%X		;SAVE THIS PC IN CASE OF WILD TRANSFER
 48813	065565	202 00 0 00 071350 		MOVEM	TNUMB#		;BECAUSE OF PC MOD OR INTERRUPT^
 48814	065566	201 10 0 00 000012 		MOVEI	10,^D10		;TIMES TO DO THIS TEST
 48815	065567	202 10 0 00 071347 		MOVEM	10,COUNTX#	;STORE IT
 48816	065570	200 10 0 00 071177 		MOVE	10,[JSP 1,..0163]	;INTERRUPT TRAP INSTRUCTION
 48817	065571	202 10 0 00 000056 		MOVEM	10,56		;STORE FOR INTERRUPT REQUEST
 48818						CLRBT1^
 48819	065572	700 04 0 00 267760 		CLRAPR
 48820	065573	700 14 0 00 031577 		CLRPI^
 48821	065574	7 004 20 0 00 002377 		CONO	PI,2377		;TURN ON PI AND CHANNELS
 48822	065575	7 000 20 0 00 114007 		CONO	APR,LESBER!LSSBER!7	;ENABLE AND SET S BUS ERRORS,ENABLE CH 7
 48823	065576	254 00 1 00 065576 		JRST	@.		;LOOP
 48824	065577	254 04 0 00 065600 		HALT	.+1		;ERROR IF HERE  (GOT OUT OF INDIRECT LOOP)
 48825	065600				..0163:	TGET^
 48826	065600	200 00 0 00 071350 		MOVE	TNUMB		;GET LAST PC STORED AND CHECK TO SEE
 48827	065601	302 00 0 00 065564 		CAIE	%X		;IF ITS WHERE WE REALLY SHOULD BE
 48828						STOP2^^
 48829	065602	254 04 0 00 065603 		HALT	.+1		;HALT IF WE SHOULDN'T BE HERE
 48830	065603	254 00 0 00 065604 		JRST	.+1		;WILD TRANSFER CAUSED THIS HALT.^
 48831	065604	405 01 0 00 777777 		ANDI	1,-1		;MASK PC BITS
 48832	065605	302 01 0 00 065576 		CAIE	1,..0163-2		;WAS CORRECT PC STORED?
 48833						STOP^
 48834	065606	254 04 0 00 065607 		HALT	.+1		;INSTRUCTION FAILED REPLACE
 48835	065607	254 00 0 00 065610 		JRST	.+1		;WITH JRST BACK^
DFKAA PDP-10 KL10 BASIC INSTRUCTION DIAGNOSTIC (1) VER 0,2	MACRO %53B(1254)-4 11:50 11-Nov-24 Page 44-5
DFKAA8	MAC	13-Jan-89 10:22		INTERRUPT OUT OF INDIRECT LOOP

 48836	065610	372 00 0 00 071347 		SOSE	COUNTX		;LOOP TEST
 48837	065611	254 12 1 00 000001 		JEN	@1		;DISMISS INTERRUPT
 48838						CLRBTH^
 48839	065612	700 04 0 00 267760 		CLRAPR
 48840	065613	700 14 0 00 031577 		CLRPI^
 48841					^
DFKAA PDP-10 KL10 BASIC INSTRUCTION DIAGNOSTIC (1) VER 0,2	MACRO %53B(1254)-4 11:50 11-Nov-24 Page 45
DFKAA8	MAC	13-Jan-89 10:22		LOCAL UUO TESTING (LUUO)

 48842					SUBTTL	LOCAL UUO TESTING (LUUO)
 48843
 48844					;TEST UUO'S IN RANGE 1-37
 48845					;TEST TO SEE THAT UUO TRAPS CORRECTLY AND THAT PC
 48846					;OF UUO IS CORRECT AND THAT UUO STORED IN 40 IS ALSO CORRECT
 48847					;MONITOR UUO'S ARE NOT TESTED.
 48848
 48849					;POSSIBLE CAUSES OF FAILURES IN LUUO FLOW.
 48850					;MA SPECIAL BITS NOT SETTING
 48851					;AD MAGIC # 40 @ET1
 48852					;XCTF SET AT FETCH CYCLE
 48853					;AR IR ENABLE @ET1
 48854					;AR SIGN SMEAR
 48855					;AD MAGIC NUMBER ENABLE
 48856					;AB AD EN @ET1
 48857					;INSTRUCTION FETCH @ET2
 48858
 48859	065614				UUO01:	XUUO	1B8,UUO02^
 48860
 48861					;EXECUTE AN LUUO AND CHECK THAT THE UUO AND PC STORED
 48862					;ARE CORRECT.
 48863
 48864		001000	000000			MLUUO==1B8		;THE UUO TO BE EXECUTED
 48865						TSET^
 48866			065614			%X=.			;DEFINE %X TO SAVE
 48867	065614	201 00 0 00 065614 		MOVEI	%X		;SAVE THIS PC IN CASE OF WILD TRANSFER
 48868	065615	202 00 0 00 071350 		MOVEM	TNUMB#		;BECAUSE OF PC MOD OR INTERRUPT^
 48869	065616	200 00 0 00 071200 	..0164:	MOVE	0,[JSP	1,.+4]	;TRAP INSTRUCTION
 48870	065617	202 00 0 00 000041 		MOVEM	0,41		;IN TO 41
 48871	065620	001000	000000			1B8			;EXECUTE A UUO
 48872	065621	254 04 0 00 065622 		HALT	.+1		;UUO DID NOT TRAP TO FORTY
 48873	065622	201 02 0 00 065621 		MOVEI	2,.-1		;GET UUO PC
 48874	065623	405 01 0 00 777777 		ANDI	1,-1		;MASK FLAGS OUT
 48875	065624	312 01 0 00 000002 		CAME	1,2		;PC CORRECT ?
 48876	065625	254 04 0 00 065626 		HALT	.+1		;PC OF UUO NOT = TO PC STORED
 48877	065626	200 00 0 00 000040 		MOVE	0,40		;GET UUO !
 48878	065627	312 00 0 00 070317 		CAME	0,[1B8!0]		;CORRECT UUO STORED IN 40?
 48879	065630	334 00 0 00 000000 		SKIPA			;NO
 48880	065631	254 00 0 00 065640 		JRST	UUO02		;TESTS OK !
 48881						STOP1^
 48882	065632	254 04 0 00 065633 		HALT	.+1		;UUO FAILED TO STORE MA BITS
 48883	065633	254 00 0 00 065634 		JRST	.+1		;INTO RIGHT HALF OF 40^
 48884						TGET^
 48885	065634	200 00 0 00 071350 		MOVE	TNUMB		;GET LAST PC STORED AND CHECK TO SEE
 48886	065635	302 00 0 00 065614 		CAIE	%X		;IF ITS WHERE WE REALLY SHOULD BE
 48887						STOP2^^
 48888	065636	254 04 0 00 065637 		HALT	.+1		;HALT IF WE SHOULDN'T BE HERE
 48889	065637	254 00 0 00 065640 		JRST	.+1		;WILD TRANSFER CAUSED THIS HALT.^
 48890					^
DFKAA PDP-10 KL10 BASIC INSTRUCTION DIAGNOSTIC (1) VER 0,2	MACRO %53B(1254)-4 11:50 11-Nov-24 Page 46
DFKAA8	MAC	13-Jan-89 10:22		LOCAL UUO TESTING (LUUO)

 48891					;POSSIBLE CAUSES OF FAILURES IN LUUO FLOW.
 48892					;MA SPECIAL BITS NOT SETTING
 48893					;AD MAGIC # 40 @ET1
 48894					;XCTF SET AT FETCH CYCLE
 48895					;AR IR ENABLE @ET1
 48896					;AR SIGN SMEAR
 48897					;AD MAGIC NUMBER ENABLE
 48898					;AB AD EN @ET1
 48899					;INSTRUCTION FETCH @ET2
 48900	065640				UUO02:	XUUO	2B8,UUO03^
 48901
 48902					;EXECUTE AN LUUO AND CHECK THAT THE UUO AND PC STORED
 48903					;ARE CORRECT.
 48904
 48905		002000	000000			MLUUO==2B8		;THE UUO TO BE EXECUTED
 48906						TSET^
 48907			065640			%X=.			;DEFINE %X TO SAVE
 48908	065640	201 00 0 00 065640 		MOVEI	%X		;SAVE THIS PC IN CASE OF WILD TRANSFER
 48909	065641	202 00 0 00 071350 		MOVEM	TNUMB#		;BECAUSE OF PC MOD OR INTERRUPT^
 48910	065642	200 00 0 00 071201 	..0165:	MOVE	0,[JSP	1,.+4]	;TRAP INSTRUCTION
 48911	065643	202 00 0 00 000041 		MOVEM	0,41		;IN TO 41
 48912	065644	002000	000000			2B8			;EXECUTE A UUO
 48913	065645	254 04 0 00 065646 		HALT	.+1		;UUO DID NOT TRAP TO FORTY
 48914	065646	201 02 0 00 065645 		MOVEI	2,.-1		;GET UUO PC
 48915	065647	405 01 0 00 777777 		ANDI	1,-1		;MASK FLAGS OUT
 48916	065650	312 01 0 00 000002 		CAME	1,2		;PC CORRECT ?
 48917	065651	254 04 0 00 065652 		HALT	.+1		;PC OF UUO NOT = TO PC STORED
 48918	065652	200 00 0 00 000040 		MOVE	0,40		;GET UUO !
 48919	065653	312 00 0 00 070320 		CAME	0,[2B8!0]		;CORRECT UUO STORED IN 40?
 48920	065654	334 00 0 00 000000 		SKIPA			;NO
 48921	065655	254 00 0 00 065664 		JRST	UUO03		;TESTS OK !
 48922						STOP1^
 48923	065656	254 04 0 00 065657 		HALT	.+1		;UUO FAILED TO STORE MA BITS
 48924	065657	254 00 0 00 065660 		JRST	.+1		;INTO RIGHT HALF OF 40^
 48925						TGET^
 48926	065660	200 00 0 00 071350 		MOVE	TNUMB		;GET LAST PC STORED AND CHECK TO SEE
 48927	065661	302 00 0 00 065640 		CAIE	%X		;IF ITS WHERE WE REALLY SHOULD BE
 48928						STOP2^^
 48929	065662	254 04 0 00 065663 		HALT	.+1		;HALT IF WE SHOULDN'T BE HERE
 48930	065663	254 00 0 00 065664 		JRST	.+1		;WILD TRANSFER CAUSED THIS HALT.^
 48931					^
 48932					;POSSIBLE CAUSES OF FAILURES IN LUUO FLOW.
 48933					;MA SPECIAL BITS NOT SETTING
 48934					;AD MAGIC # 40 @ET1
 48935					;XCTF SET AT FETCH CYCLE
 48936					;AR IR ENABLE @ET1
 48937					;AR SIGN SMEAR
 48938					;AD MAGIC NUMBER ENABLE
 48939					;AB AD EN @ET1
 48940					;INSTRUCTION FETCH @ET2
DFKAA PDP-10 KL10 BASIC INSTRUCTION DIAGNOSTIC (1) VER 0,2	MACRO %53B(1254)-4 11:50 11-Nov-24 Page 47
DFKAA8	MAC	13-Jan-89 10:22		LOCAL UUO TESTING (LUUO)

 48941	065664				UUO03:	XUUO	3B8,UUO04^
 48942
 48943					;EXECUTE AN LUUO AND CHECK THAT THE UUO AND PC STORED
 48944					;ARE CORRECT.
 48945
 48946		003000	000000			MLUUO==3B8		;THE UUO TO BE EXECUTED
 48947						TSET^
 48948			065664			%X=.			;DEFINE %X TO SAVE
 48949	065664	201 00 0 00 065664 		MOVEI	%X		;SAVE THIS PC IN CASE OF WILD TRANSFER
 48950	065665	202 00 0 00 071350 		MOVEM	TNUMB#		;BECAUSE OF PC MOD OR INTERRUPT^
 48951	065666	200 00 0 00 071202 	..0166:	MOVE	0,[JSP	1,.+4]	;TRAP INSTRUCTION
 48952	065667	202 00 0 00 000041 		MOVEM	0,41		;IN TO 41
 48953	065670	003000	000000			3B8			;EXECUTE A UUO
 48954	065671	254 04 0 00 065672 		HALT	.+1		;UUO DID NOT TRAP TO FORTY
 48955	065672	201 02 0 00 065671 		MOVEI	2,.-1		;GET UUO PC
 48956	065673	405 01 0 00 777777 		ANDI	1,-1		;MASK FLAGS OUT
 48957	065674	312 01 0 00 000002 		CAME	1,2		;PC CORRECT ?
 48958	065675	254 04 0 00 065676 		HALT	.+1		;PC OF UUO NOT = TO PC STORED
 48959	065676	200 00 0 00 000040 		MOVE	0,40		;GET UUO !
 48960	065677	312 00 0 00 071203 		CAME	0,[3B8!0]		;CORRECT UUO STORED IN 40?
 48961	065700	334 00 0 00 000000 		SKIPA			;NO
 48962	065701	254 00 0 00 065710 		JRST	UUO04		;TESTS OK !
 48963						STOP1^
 48964	065702	254 04 0 00 065703 		HALT	.+1		;UUO FAILED TO STORE MA BITS
 48965	065703	254 00 0 00 065704 		JRST	.+1		;INTO RIGHT HALF OF 40^
 48966						TGET^
 48967	065704	200 00 0 00 071350 		MOVE	TNUMB		;GET LAST PC STORED AND CHECK TO SEE
 48968	065705	302 00 0 00 065664 		CAIE	%X		;IF ITS WHERE WE REALLY SHOULD BE
 48969						STOP2^^
 48970	065706	254 04 0 00 065707 		HALT	.+1		;HALT IF WE SHOULDN'T BE HERE
 48971	065707	254 00 0 00 065710 		JRST	.+1		;WILD TRANSFER CAUSED THIS HALT.^
 48972					^
 48973					;POSSIBLE CAUSES OF FAILURES IN LUUO FLOW.
 48974					;MA SPECIAL BITS NOT SETTING
 48975					;AD MAGIC # 40 @ET1
 48976					;XCTF SET AT FETCH CYCLE
 48977					;AR IR ENABLE @ET1
 48978					;AR SIGN SMEAR
 48979					;AD MAGIC NUMBER ENABLE
 48980					;AB AD EN @ET1
 48981					;INSTRUCTION FETCH @ET2
DFKAA PDP-10 KL10 BASIC INSTRUCTION DIAGNOSTIC (1) VER 0,2	MACRO %53B(1254)-4 11:50 11-Nov-24 Page 48
DFKAA8	MAC	13-Jan-89 10:22		LOCAL UUO TESTING (LUUO)

 48982	065710				UUO04:	XUUO	4B8,UUO05^
 48983
 48984					;EXECUTE AN LUUO AND CHECK THAT THE UUO AND PC STORED
 48985					;ARE CORRECT.
 48986
 48987		004000	000000			MLUUO==4B8		;THE UUO TO BE EXECUTED
 48988						TSET^
 48989			065710			%X=.			;DEFINE %X TO SAVE
 48990	065710	201 00 0 00 065710 		MOVEI	%X		;SAVE THIS PC IN CASE OF WILD TRANSFER
 48991	065711	202 00 0 00 071350 		MOVEM	TNUMB#		;BECAUSE OF PC MOD OR INTERRUPT^
 48992	065712	200 00 0 00 071204 	..0167:	MOVE	0,[JSP	1,.+4]	;TRAP INSTRUCTION
 48993	065713	202 00 0 00 000041 		MOVEM	0,41		;IN TO 41
 48994	065714	004000	000000			4B8			;EXECUTE A UUO
 48995	065715	254 04 0 00 065716 		HALT	.+1		;UUO DID NOT TRAP TO FORTY
 48996	065716	201 02 0 00 065715 		MOVEI	2,.-1		;GET UUO PC
 48997	065717	405 01 0 00 777777 		ANDI	1,-1		;MASK FLAGS OUT
 48998	065720	312 01 0 00 000002 		CAME	1,2		;PC CORRECT ?
 48999	065721	254 04 0 00 065722 		HALT	.+1		;PC OF UUO NOT = TO PC STORED
 49000	065722	200 00 0 00 000040 		MOVE	0,40		;GET UUO !
 49001	065723	312 00 0 00 070321 		CAME	0,[4B8!0]		;CORRECT UUO STORED IN 40?
 49002	065724	334 00 0 00 000000 		SKIPA			;NO
 49003	065725	254 00 0 00 065734 		JRST	UUO05		;TESTS OK !
 49004						STOP1^
 49005	065726	254 04 0 00 065727 		HALT	.+1		;UUO FAILED TO STORE MA BITS
 49006	065727	254 00 0 00 065730 		JRST	.+1		;INTO RIGHT HALF OF 40^
 49007						TGET^
 49008	065730	200 00 0 00 071350 		MOVE	TNUMB		;GET LAST PC STORED AND CHECK TO SEE
 49009	065731	302 00 0 00 065710 		CAIE	%X		;IF ITS WHERE WE REALLY SHOULD BE
 49010						STOP2^^
 49011	065732	254 04 0 00 065733 		HALT	.+1		;HALT IF WE SHOULDN'T BE HERE
 49012	065733	254 00 0 00 065734 		JRST	.+1		;WILD TRANSFER CAUSED THIS HALT.^
 49013					^
 49014					;POSSIBLE CAUSES OF FAILURES IN LUUO FLOW.
 49015					;MA SPECIAL BITS NOT SETTING
 49016					;AD MAGIC # 40 @ET1
 49017					;XCTF SET AT FETCH CYCLE
 49018					;AR IR ENABLE @ET1
 49019					;AR SIGN SMEAR
 49020					;AD MAGIC NUMBER ENABLE
 49021					;AB AD EN @ET1
 49022					;INSTRUCTION FETCH @ET2
DFKAA PDP-10 KL10 BASIC INSTRUCTION DIAGNOSTIC (1) VER 0,2	MACRO %53B(1254)-4 11:50 11-Nov-24 Page 49
DFKAA8	MAC	13-Jan-89 10:22		LOCAL UUO TESTING (LUUO)

 49023	065734				UUO05:	XUUO	5B8,UUO06^
 49024
 49025					;EXECUTE AN LUUO AND CHECK THAT THE UUO AND PC STORED
 49026					;ARE CORRECT.
 49027
 49028		005000	000000			MLUUO==5B8		;THE UUO TO BE EXECUTED
 49029						TSET^
 49030			065734			%X=.			;DEFINE %X TO SAVE
 49031	065734	201 00 0 00 065734 		MOVEI	%X		;SAVE THIS PC IN CASE OF WILD TRANSFER
 49032	065735	202 00 0 00 071350 		MOVEM	TNUMB#		;BECAUSE OF PC MOD OR INTERRUPT^
 49033	065736	200 00 0 00 071205 	..0170:	MOVE	0,[JSP	1,.+4]	;TRAP INSTRUCTION
 49034	065737	202 00 0 00 000041 		MOVEM	0,41		;IN TO 41
 49035	065740	005000	000000			5B8			;EXECUTE A UUO
 49036	065741	254 04 0 00 065742 		HALT	.+1		;UUO DID NOT TRAP TO FORTY
 49037	065742	201 02 0 00 065741 		MOVEI	2,.-1		;GET UUO PC
 49038	065743	405 01 0 00 777777 		ANDI	1,-1		;MASK FLAGS OUT
 49039	065744	312 01 0 00 000002 		CAME	1,2		;PC CORRECT ?
 49040	065745	254 04 0 00 065746 		HALT	.+1		;PC OF UUO NOT = TO PC STORED
 49041	065746	200 00 0 00 000040 		MOVE	0,40		;GET UUO !
 49042	065747	312 00 0 00 071206 		CAME	0,[5B8!0]		;CORRECT UUO STORED IN 40?
 49043	065750	334 00 0 00 000000 		SKIPA			;NO
 49044	065751	254 00 0 00 065760 		JRST	UUO06		;TESTS OK !
 49045						STOP1^
 49046	065752	254 04 0 00 065753 		HALT	.+1		;UUO FAILED TO STORE MA BITS
 49047	065753	254 00 0 00 065754 		JRST	.+1		;INTO RIGHT HALF OF 40^
 49048						TGET^
 49049	065754	200 00 0 00 071350 		MOVE	TNUMB		;GET LAST PC STORED AND CHECK TO SEE
 49050	065755	302 00 0 00 065734 		CAIE	%X		;IF ITS WHERE WE REALLY SHOULD BE
 49051						STOP2^^
 49052	065756	254 04 0 00 065757 		HALT	.+1		;HALT IF WE SHOULDN'T BE HERE
 49053	065757	254 00 0 00 065760 		JRST	.+1		;WILD TRANSFER CAUSED THIS HALT.^
 49054					^
 49055					;POSSIBLE CAUSES OF FAILURES IN LUUO FLOW.
 49056					;MA SPECIAL BITS NOT SETTING
 49057					;AD MAGIC # 40 @ET1
 49058					;XCTF SET AT FETCH CYCLE
 49059					;AR IR ENABLE @ET1
 49060					;AR SIGN SMEAR
 49061					;AD MAGIC NUMBER ENABLE
 49062					;AB AD EN @ET1
 49063					;INSTRUCTION FETCH @ET2
DFKAA PDP-10 KL10 BASIC INSTRUCTION DIAGNOSTIC (1) VER 0,2	MACRO %53B(1254)-4 11:50 11-Nov-24 Page 50
DFKAA8	MAC	13-Jan-89 10:22		LOCAL UUO TESTING (LUUO)

 49064	065760				UUO06:	XUUO	6B8,UUO07^
 49065
 49066					;EXECUTE AN LUUO AND CHECK THAT THE UUO AND PC STORED
 49067					;ARE CORRECT.
 49068
 49069		006000	000000			MLUUO==6B8		;THE UUO TO BE EXECUTED
 49070						TSET^
 49071			065760			%X=.			;DEFINE %X TO SAVE
 49072	065760	201 00 0 00 065760 		MOVEI	%X		;SAVE THIS PC IN CASE OF WILD TRANSFER
 49073	065761	202 00 0 00 071350 		MOVEM	TNUMB#		;BECAUSE OF PC MOD OR INTERRUPT^
 49074	065762	200 00 0 00 071207 	..0171:	MOVE	0,[JSP	1,.+4]	;TRAP INSTRUCTION
 49075	065763	202 00 0 00 000041 		MOVEM	0,41		;IN TO 41
 49076	065764	006000	000000			6B8			;EXECUTE A UUO
 49077	065765	254 04 0 00 065766 		HALT	.+1		;UUO DID NOT TRAP TO FORTY
 49078	065766	201 02 0 00 065765 		MOVEI	2,.-1		;GET UUO PC
 49079	065767	405 01 0 00 777777 		ANDI	1,-1		;MASK FLAGS OUT
 49080	065770	312 01 0 00 000002 		CAME	1,2		;PC CORRECT ?
 49081	065771	254 04 0 00 065772 		HALT	.+1		;PC OF UUO NOT = TO PC STORED
 49082	065772	200 00 0 00 000040 		MOVE	0,40		;GET UUO !
 49083	065773	312 00 0 00 071210 		CAME	0,[6B8!0]		;CORRECT UUO STORED IN 40?
 49084	065774	334 00 0 00 000000 		SKIPA			;NO
 49085	065775	254 00 0 00 066004 		JRST	UUO07		;TESTS OK !
 49086						STOP1^
 49087	065776	254 04 0 00 065777 		HALT	.+1		;UUO FAILED TO STORE MA BITS
 49088	065777	254 00 0 00 066000 		JRST	.+1		;INTO RIGHT HALF OF 40^
 49089						TGET^
 49090	066000	200 00 0 00 071350 		MOVE	TNUMB		;GET LAST PC STORED AND CHECK TO SEE
 49091	066001	302 00 0 00 065760 		CAIE	%X		;IF ITS WHERE WE REALLY SHOULD BE
 49092						STOP2^^
 49093	066002	254 04 0 00 066003 		HALT	.+1		;HALT IF WE SHOULDN'T BE HERE
 49094	066003	254 00 0 00 066004 		JRST	.+1		;WILD TRANSFER CAUSED THIS HALT.^
 49095					^
 49096					;POSSIBLE CAUSES OF FAILURES IN LUUO FLOW.
 49097					;MA SPECIAL BITS NOT SETTING
 49098					;AD MAGIC # 40 @ET1
 49099					;XCTF SET AT FETCH CYCLE
 49100					;AR IR ENABLE @ET1
 49101					;AR SIGN SMEAR
 49102					;AD MAGIC NUMBER ENABLE
 49103					;AB AD EN @ET1
 49104					;INSTRUCTION FETCH @ET2
DFKAA PDP-10 KL10 BASIC INSTRUCTION DIAGNOSTIC (1) VER 0,2	MACRO %53B(1254)-4 11:50 11-Nov-24 Page 51
DFKAA8	MAC	13-Jan-89 10:22		LOCAL UUO TESTING (LUUO)

 49105	066004				UUO07:	XUUO	7B8,UUO10^
 49106
 49107					;EXECUTE AN LUUO AND CHECK THAT THE UUO AND PC STORED
 49108					;ARE CORRECT.
 49109
 49110		007000	000000			MLUUO==7B8		;THE UUO TO BE EXECUTED
 49111						TSET^
 49112			066004			%X=.			;DEFINE %X TO SAVE
 49113	066004	201 00 0 00 066004 		MOVEI	%X		;SAVE THIS PC IN CASE OF WILD TRANSFER
 49114	066005	202 00 0 00 071350 		MOVEM	TNUMB#		;BECAUSE OF PC MOD OR INTERRUPT^
 49115	066006	200 00 0 00 071211 	..0172:	MOVE	0,[JSP	1,.+4]	;TRAP INSTRUCTION
 49116	066007	202 00 0 00 000041 		MOVEM	0,41		;IN TO 41
 49117	066010	007000	000000			7B8			;EXECUTE A UUO
 49118	066011	254 04 0 00 066012 		HALT	.+1		;UUO DID NOT TRAP TO FORTY
 49119	066012	201 02 0 00 066011 		MOVEI	2,.-1		;GET UUO PC
 49120	066013	405 01 0 00 777777 		ANDI	1,-1		;MASK FLAGS OUT
 49121	066014	312 01 0 00 000002 		CAME	1,2		;PC CORRECT ?
 49122	066015	254 04 0 00 066016 		HALT	.+1		;PC OF UUO NOT = TO PC STORED
 49123	066016	200 00 0 00 000040 		MOVE	0,40		;GET UUO !
 49124	066017	312 00 0 00 071212 		CAME	0,[7B8!0]		;CORRECT UUO STORED IN 40?
 49125	066020	334 00 0 00 000000 		SKIPA			;NO
 49126	066021	254 00 0 00 066030 		JRST	UUO10		;TESTS OK !
 49127						STOP1^
 49128	066022	254 04 0 00 066023 		HALT	.+1		;UUO FAILED TO STORE MA BITS
 49129	066023	254 00 0 00 066024 		JRST	.+1		;INTO RIGHT HALF OF 40^
 49130						TGET^
 49131	066024	200 00 0 00 071350 		MOVE	TNUMB		;GET LAST PC STORED AND CHECK TO SEE
 49132	066025	302 00 0 00 066004 		CAIE	%X		;IF ITS WHERE WE REALLY SHOULD BE
 49133						STOP2^^
 49134	066026	254 04 0 00 066027 		HALT	.+1		;HALT IF WE SHOULDN'T BE HERE
 49135	066027	254 00 0 00 066030 		JRST	.+1		;WILD TRANSFER CAUSED THIS HALT.^
 49136					^
 49137					;POSSIBLE CAUSES OF FAILURES IN LUUO FLOW.
 49138					;MA SPECIAL BITS NOT SETTING
 49139					;AD MAGIC # 40 @ET1
 49140					;XCTF SET AT FETCH CYCLE
 49141					;AR IR ENABLE @ET1
 49142					;AR SIGN SMEAR
 49143					;AD MAGIC NUMBER ENABLE
 49144					;AB AD EN @ET1
 49145					;INSTRUCTION FETCH @ET2
DFKAA PDP-10 KL10 BASIC INSTRUCTION DIAGNOSTIC (1) VER 0,2	MACRO %53B(1254)-4 11:50 11-Nov-24 Page 52
DFKAA8	MAC	13-Jan-89 10:22		LOCAL UUO TESTING (LUUO)

 49146	066030				UUO10:	XUUO	10B8,UUO11^
 49147
 49148					;EXECUTE AN LUUO AND CHECK THAT THE UUO AND PC STORED
 49149					;ARE CORRECT.
 49150
 49151		010000	000000			MLUUO==10B8		;THE UUO TO BE EXECUTED
 49152						TSET^
 49153			066030			%X=.			;DEFINE %X TO SAVE
 49154	066030	201 00 0 00 066030 		MOVEI	%X		;SAVE THIS PC IN CASE OF WILD TRANSFER
 49155	066031	202 00 0 00 071350 		MOVEM	TNUMB#		;BECAUSE OF PC MOD OR INTERRUPT^
 49156	066032	200 00 0 00 071213 	..0173:	MOVE	0,[JSP	1,.+4]	;TRAP INSTRUCTION
 49157	066033	202 00 0 00 000041 		MOVEM	0,41		;IN TO 41
 49158	066034	010000	000000			10B8			;EXECUTE A UUO
 49159	066035	254 04 0 00 066036 		HALT	.+1		;UUO DID NOT TRAP TO FORTY
 49160	066036	201 02 0 00 066035 		MOVEI	2,.-1		;GET UUO PC
 49161	066037	405 01 0 00 777777 		ANDI	1,-1		;MASK FLAGS OUT
 49162	066040	312 01 0 00 000002 		CAME	1,2		;PC CORRECT ?
 49163	066041	254 04 0 00 066042 		HALT	.+1		;PC OF UUO NOT = TO PC STORED
 49164	066042	200 00 0 00 000040 		MOVE	0,40		;GET UUO !
 49165	066043	312 00 0 00 070322 		CAME	0,[10B8!0]		;CORRECT UUO STORED IN 40?
 49166	066044	334 00 0 00 000000 		SKIPA			;NO
 49167	066045	254 00 0 00 066054 		JRST	UUO11		;TESTS OK !
 49168						STOP1^
 49169	066046	254 04 0 00 066047 		HALT	.+1		;UUO FAILED TO STORE MA BITS
 49170	066047	254 00 0 00 066050 		JRST	.+1		;INTO RIGHT HALF OF 40^
 49171						TGET^
 49172	066050	200 00 0 00 071350 		MOVE	TNUMB		;GET LAST PC STORED AND CHECK TO SEE
 49173	066051	302 00 0 00 066030 		CAIE	%X		;IF ITS WHERE WE REALLY SHOULD BE
 49174						STOP2^^
 49175	066052	254 04 0 00 066053 		HALT	.+1		;HALT IF WE SHOULDN'T BE HERE
 49176	066053	254 00 0 00 066054 		JRST	.+1		;WILD TRANSFER CAUSED THIS HALT.^
 49177					^
 49178					;POSSIBLE CAUSES OF FAILURES IN LUUO FLOW.
 49179					;MA SPECIAL BITS NOT SETTING
 49180					;AD MAGIC # 40 @ET1
 49181					;XCTF SET AT FETCH CYCLE
 49182					;AR IR ENABLE @ET1
 49183					;AR SIGN SMEAR
 49184					;AD MAGIC NUMBER ENABLE
 49185					;AB AD EN @ET1
 49186					;INSTRUCTION FETCH @ET2
DFKAA PDP-10 KL10 BASIC INSTRUCTION DIAGNOSTIC (1) VER 0,2	MACRO %53B(1254)-4 11:50 11-Nov-24 Page 53
DFKAA8	MAC	13-Jan-89 10:22		LOCAL UUO TESTING (LUUO)

 49187	066054				UUO11:	XUUO	11B8,UUO12^
 49188
 49189					;EXECUTE AN LUUO AND CHECK THAT THE UUO AND PC STORED
 49190					;ARE CORRECT.
 49191
 49192		011000	000000			MLUUO==11B8		;THE UUO TO BE EXECUTED
 49193						TSET^
 49194			066054			%X=.			;DEFINE %X TO SAVE
 49195	066054	201 00 0 00 066054 		MOVEI	%X		;SAVE THIS PC IN CASE OF WILD TRANSFER
 49196	066055	202 00 0 00 071350 		MOVEM	TNUMB#		;BECAUSE OF PC MOD OR INTERRUPT^
 49197	066056	200 00 0 00 071214 	..0174:	MOVE	0,[JSP	1,.+4]	;TRAP INSTRUCTION
 49198	066057	202 00 0 00 000041 		MOVEM	0,41		;IN TO 41
 49199	066060	011000	000000			11B8			;EXECUTE A UUO
 49200	066061	254 04 0 00 066062 		HALT	.+1		;UUO DID NOT TRAP TO FORTY
 49201	066062	201 02 0 00 066061 		MOVEI	2,.-1		;GET UUO PC
 49202	066063	405 01 0 00 777777 		ANDI	1,-1		;MASK FLAGS OUT
 49203	066064	312 01 0 00 000002 		CAME	1,2		;PC CORRECT ?
 49204	066065	254 04 0 00 066066 		HALT	.+1		;PC OF UUO NOT = TO PC STORED
 49205	066066	200 00 0 00 000040 		MOVE	0,40		;GET UUO !
 49206	066067	312 00 0 00 071215 		CAME	0,[11B8!0]		;CORRECT UUO STORED IN 40?
 49207	066070	334 00 0 00 000000 		SKIPA			;NO
 49208	066071	254 00 0 00 066100 		JRST	UUO12		;TESTS OK !
 49209						STOP1^
 49210	066072	254 04 0 00 066073 		HALT	.+1		;UUO FAILED TO STORE MA BITS
 49211	066073	254 00 0 00 066074 		JRST	.+1		;INTO RIGHT HALF OF 40^
 49212						TGET^
 49213	066074	200 00 0 00 071350 		MOVE	TNUMB		;GET LAST PC STORED AND CHECK TO SEE
 49214	066075	302 00 0 00 066054 		CAIE	%X		;IF ITS WHERE WE REALLY SHOULD BE
 49215						STOP2^^
 49216	066076	254 04 0 00 066077 		HALT	.+1		;HALT IF WE SHOULDN'T BE HERE
 49217	066077	254 00 0 00 066100 		JRST	.+1		;WILD TRANSFER CAUSED THIS HALT.^
 49218					^
 49219					;POSSIBLE CAUSES OF FAILURES IN LUUO FLOW.
 49220					;MA SPECIAL BITS NOT SETTING
 49221					;AD MAGIC # 40 @ET1
 49222					;XCTF SET AT FETCH CYCLE
 49223					;AR IR ENABLE @ET1
 49224					;AR SIGN SMEAR
 49225					;AD MAGIC NUMBER ENABLE
 49226					;AB AD EN @ET1
 49227					;INSTRUCTION FETCH @ET2
DFKAA PDP-10 KL10 BASIC INSTRUCTION DIAGNOSTIC (1) VER 0,2	MACRO %53B(1254)-4 11:50 11-Nov-24 Page 54
DFKAA8	MAC	13-Jan-89 10:22		LOCAL UUO TESTING (LUUO)

 49228	066100				UUO12:	XUUO	12B8,UUO13^
 49229
 49230					;EXECUTE AN LUUO AND CHECK THAT THE UUO AND PC STORED
 49231					;ARE CORRECT.
 49232
 49233		012000	000000			MLUUO==12B8		;THE UUO TO BE EXECUTED
 49234						TSET^
 49235			066100			%X=.			;DEFINE %X TO SAVE
 49236	066100	201 00 0 00 066100 		MOVEI	%X		;SAVE THIS PC IN CASE OF WILD TRANSFER
 49237	066101	202 00 0 00 071350 		MOVEM	TNUMB#		;BECAUSE OF PC MOD OR INTERRUPT^
 49238	066102	200 00 0 00 071216 	..0175:	MOVE	0,[JSP	1,.+4]	;TRAP INSTRUCTION
 49239	066103	202 00 0 00 000041 		MOVEM	0,41		;IN TO 41
 49240	066104	012000	000000			12B8			;EXECUTE A UUO
 49241	066105	254 04 0 00 066106 		HALT	.+1		;UUO DID NOT TRAP TO FORTY
 49242	066106	201 02 0 00 066105 		MOVEI	2,.-1		;GET UUO PC
 49243	066107	405 01 0 00 777777 		ANDI	1,-1		;MASK FLAGS OUT
 49244	066110	312 01 0 00 000002 		CAME	1,2		;PC CORRECT ?
 49245	066111	254 04 0 00 066112 		HALT	.+1		;PC OF UUO NOT = TO PC STORED
 49246	066112	200 00 0 00 000040 		MOVE	0,40		;GET UUO !
 49247	066113	312 00 0 00 071217 		CAME	0,[12B8!0]		;CORRECT UUO STORED IN 40?
 49248	066114	334 00 0 00 000000 		SKIPA			;NO
 49249	066115	254 00 0 00 066124 		JRST	UUO13		;TESTS OK !
 49250						STOP1^
 49251	066116	254 04 0 00 066117 		HALT	.+1		;UUO FAILED TO STORE MA BITS
 49252	066117	254 00 0 00 066120 		JRST	.+1		;INTO RIGHT HALF OF 40^
 49253						TGET^
 49254	066120	200 00 0 00 071350 		MOVE	TNUMB		;GET LAST PC STORED AND CHECK TO SEE
 49255	066121	302 00 0 00 066100 		CAIE	%X		;IF ITS WHERE WE REALLY SHOULD BE
 49256						STOP2^^
 49257	066122	254 04 0 00 066123 		HALT	.+1		;HALT IF WE SHOULDN'T BE HERE
 49258	066123	254 00 0 00 066124 		JRST	.+1		;WILD TRANSFER CAUSED THIS HALT.^
 49259					^
 49260					;POSSIBLE CAUSES OF FAILURES IN LUUO FLOW.
 49261					;MA SPECIAL BITS NOT SETTING
 49262					;AD MAGIC # 40 @ET1
 49263					;XCTF SET AT FETCH CYCLE
 49264					;AR IR ENABLE @ET1
 49265					;AR SIGN SMEAR
 49266					;AD MAGIC NUMBER ENABLE
 49267					;AB AD EN @ET1
 49268					;INSTRUCTION FETCH @ET2
DFKAA PDP-10 KL10 BASIC INSTRUCTION DIAGNOSTIC (1) VER 0,2	MACRO %53B(1254)-4 11:50 11-Nov-24 Page 55
DFKAA8	MAC	13-Jan-89 10:22		LOCAL UUO TESTING (LUUO)

 49269	066124				UUO13:	XUUO	13B8,UUO14^
 49270
 49271					;EXECUTE AN LUUO AND CHECK THAT THE UUO AND PC STORED
 49272					;ARE CORRECT.
 49273
 49274		013000	000000			MLUUO==13B8		;THE UUO TO BE EXECUTED
 49275						TSET^
 49276			066124			%X=.			;DEFINE %X TO SAVE
 49277	066124	201 00 0 00 066124 		MOVEI	%X		;SAVE THIS PC IN CASE OF WILD TRANSFER
 49278	066125	202 00 0 00 071350 		MOVEM	TNUMB#		;BECAUSE OF PC MOD OR INTERRUPT^
 49279	066126	200 00 0 00 071220 	..0176:	MOVE	0,[JSP	1,.+4]	;TRAP INSTRUCTION
 49280	066127	202 00 0 00 000041 		MOVEM	0,41		;IN TO 41
 49281	066130	013000	000000			13B8			;EXECUTE A UUO
 49282	066131	254 04 0 00 066132 		HALT	.+1		;UUO DID NOT TRAP TO FORTY
 49283	066132	201 02 0 00 066131 		MOVEI	2,.-1		;GET UUO PC
 49284	066133	405 01 0 00 777777 		ANDI	1,-1		;MASK FLAGS OUT
 49285	066134	312 01 0 00 000002 		CAME	1,2		;PC CORRECT ?
 49286	066135	254 04 0 00 066136 		HALT	.+1		;PC OF UUO NOT = TO PC STORED
 49287	066136	200 00 0 00 000040 		MOVE	0,40		;GET UUO !
 49288	066137	312 00 0 00 071221 		CAME	0,[13B8!0]		;CORRECT UUO STORED IN 40?
 49289	066140	334 00 0 00 000000 		SKIPA			;NO
 49290	066141	254 00 0 00 066150 		JRST	UUO14		;TESTS OK !
 49291						STOP1^
 49292	066142	254 04 0 00 066143 		HALT	.+1		;UUO FAILED TO STORE MA BITS
 49293	066143	254 00 0 00 066144 		JRST	.+1		;INTO RIGHT HALF OF 40^
 49294						TGET^
 49295	066144	200 00 0 00 071350 		MOVE	TNUMB		;GET LAST PC STORED AND CHECK TO SEE
 49296	066145	302 00 0 00 066124 		CAIE	%X		;IF ITS WHERE WE REALLY SHOULD BE
 49297						STOP2^^
 49298	066146	254 04 0 00 066147 		HALT	.+1		;HALT IF WE SHOULDN'T BE HERE
 49299	066147	254 00 0 00 066150 		JRST	.+1		;WILD TRANSFER CAUSED THIS HALT.^
 49300					^
 49301					;POSSIBLE CAUSES OF FAILURES IN LUUO FLOW.
 49302					;MA SPECIAL BITS NOT SETTING
 49303					;AD MAGIC # 40 @ET1
 49304					;XCTF SET AT FETCH CYCLE
 49305					;AR IR ENABLE @ET1
 49306					;AR SIGN SMEAR
 49307					;AD MAGIC NUMBER ENABLE
 49308					;AB AD EN @ET1
 49309					;INSTRUCTION FETCH @ET2
DFKAA PDP-10 KL10 BASIC INSTRUCTION DIAGNOSTIC (1) VER 0,2	MACRO %53B(1254)-4 11:50 11-Nov-24 Page 56
DFKAA8	MAC	13-Jan-89 10:22		LOCAL UUO TESTING (LUUO)

 49310	066150				UUO14:	XUUO	14B8,UUO15^
 49311
 49312					;EXECUTE AN LUUO AND CHECK THAT THE UUO AND PC STORED
 49313					;ARE CORRECT.
 49314
 49315		014000	000000			MLUUO==14B8		;THE UUO TO BE EXECUTED
 49316						TSET^
 49317			066150			%X=.			;DEFINE %X TO SAVE
 49318	066150	201 00 0 00 066150 		MOVEI	%X		;SAVE THIS PC IN CASE OF WILD TRANSFER
 49319	066151	202 00 0 00 071350 		MOVEM	TNUMB#		;BECAUSE OF PC MOD OR INTERRUPT^
 49320	066152	200 00 0 00 071222 	..0177:	MOVE	0,[JSP	1,.+4]	;TRAP INSTRUCTION
 49321	066153	202 00 0 00 000041 		MOVEM	0,41		;IN TO 41
 49322	066154	014000	000000			14B8			;EXECUTE A UUO
 49323	066155	254 04 0 00 066156 		HALT	.+1		;UUO DID NOT TRAP TO FORTY
 49324	066156	201 02 0 00 066155 		MOVEI	2,.-1		;GET UUO PC
 49325	066157	405 01 0 00 777777 		ANDI	1,-1		;MASK FLAGS OUT
 49326	066160	312 01 0 00 000002 		CAME	1,2		;PC CORRECT ?
 49327	066161	254 04 0 00 066162 		HALT	.+1		;PC OF UUO NOT = TO PC STORED
 49328	066162	200 00 0 00 000040 		MOVE	0,40		;GET UUO !
 49329	066163	312 00 0 00 071223 		CAME	0,[14B8!0]		;CORRECT UUO STORED IN 40?
 49330	066164	334 00 0 00 000000 		SKIPA			;NO
 49331	066165	254 00 0 00 066174 		JRST	UUO15		;TESTS OK !
 49332						STOP1^
 49333	066166	254 04 0 00 066167 		HALT	.+1		;UUO FAILED TO STORE MA BITS
 49334	066167	254 00 0 00 066170 		JRST	.+1		;INTO RIGHT HALF OF 40^
 49335						TGET^
 49336	066170	200 00 0 00 071350 		MOVE	TNUMB		;GET LAST PC STORED AND CHECK TO SEE
 49337	066171	302 00 0 00 066150 		CAIE	%X		;IF ITS WHERE WE REALLY SHOULD BE
 49338						STOP2^^
 49339	066172	254 04 0 00 066173 		HALT	.+1		;HALT IF WE SHOULDN'T BE HERE
 49340	066173	254 00 0 00 066174 		JRST	.+1		;WILD TRANSFER CAUSED THIS HALT.^
 49341					^
 49342					;POSSIBLE CAUSES OF FAILURES IN LUUO FLOW.
 49343					;MA SPECIAL BITS NOT SETTING
 49344					;AD MAGIC # 40 @ET1
 49345					;XCTF SET AT FETCH CYCLE
 49346					;AR IR ENABLE @ET1
 49347					;AR SIGN SMEAR
 49348					;AD MAGIC NUMBER ENABLE
 49349					;AB AD EN @ET1
 49350					;INSTRUCTION FETCH @ET2
DFKAA PDP-10 KL10 BASIC INSTRUCTION DIAGNOSTIC (1) VER 0,2	MACRO %53B(1254)-4 11:50 11-Nov-24 Page 57
DFKAA8	MAC	13-Jan-89 10:22		LOCAL UUO TESTING (LUUO)

 49351	066174				UUO15:	XUUO	15B8,UUO16^
 49352
 49353					;EXECUTE AN LUUO AND CHECK THAT THE UUO AND PC STORED
 49354					;ARE CORRECT.
 49355
 49356		015000	000000			MLUUO==15B8		;THE UUO TO BE EXECUTED
 49357						TSET^
 49358			066174			%X=.			;DEFINE %X TO SAVE
 49359	066174	201 00 0 00 066174 		MOVEI	%X		;SAVE THIS PC IN CASE OF WILD TRANSFER
 49360	066175	202 00 0 00 071350 		MOVEM	TNUMB#		;BECAUSE OF PC MOD OR INTERRUPT^
 49361	066176	200 00 0 00 071224 	..0200:	MOVE	0,[JSP	1,.+4]	;TRAP INSTRUCTION
 49362	066177	202 00 0 00 000041 		MOVEM	0,41		;IN TO 41
 49363	066200	015000	000000			15B8			;EXECUTE A UUO
 49364	066201	254 04 0 00 066202 		HALT	.+1		;UUO DID NOT TRAP TO FORTY
 49365	066202	201 02 0 00 066201 		MOVEI	2,.-1		;GET UUO PC
 49366	066203	405 01 0 00 777777 		ANDI	1,-1		;MASK FLAGS OUT
 49367	066204	312 01 0 00 000002 		CAME	1,2		;PC CORRECT ?
 49368	066205	254 04 0 00 066206 		HALT	.+1		;PC OF UUO NOT = TO PC STORED
 49369	066206	200 00 0 00 000040 		MOVE	0,40		;GET UUO !
 49370	066207	312 00 0 00 071225 		CAME	0,[15B8!0]		;CORRECT UUO STORED IN 40?
 49371	066210	334 00 0 00 000000 		SKIPA			;NO
 49372	066211	254 00 0 00 066220 		JRST	UUO16		;TESTS OK !
 49373						STOP1^
 49374	066212	254 04 0 00 066213 		HALT	.+1		;UUO FAILED TO STORE MA BITS
 49375	066213	254 00 0 00 066214 		JRST	.+1		;INTO RIGHT HALF OF 40^
 49376						TGET^
 49377	066214	200 00 0 00 071350 		MOVE	TNUMB		;GET LAST PC STORED AND CHECK TO SEE
 49378	066215	302 00 0 00 066174 		CAIE	%X		;IF ITS WHERE WE REALLY SHOULD BE
 49379						STOP2^^
 49380	066216	254 04 0 00 066217 		HALT	.+1		;HALT IF WE SHOULDN'T BE HERE
 49381	066217	254 00 0 00 066220 		JRST	.+1		;WILD TRANSFER CAUSED THIS HALT.^
 49382					^
 49383					;POSSIBLE CAUSES OF FAILURES IN LUUO FLOW.
 49384					;MA SPECIAL BITS NOT SETTING
 49385					;AD MAGIC # 40 @ET1
 49386					;XCTF SET AT FETCH CYCLE
 49387					;AR IR ENABLE @ET1
 49388					;AR SIGN SMEAR
 49389					;AD MAGIC NUMBER ENABLE
 49390					;AB AD EN @ET1
 49391					;INSTRUCTION FETCH @ET2
DFKAA PDP-10 KL10 BASIC INSTRUCTION DIAGNOSTIC (1) VER 0,2	MACRO %53B(1254)-4 11:50 11-Nov-24 Page 58
DFKAA8	MAC	13-Jan-89 10:22		LOCAL UUO TESTING (LUUO)

 49392	066220				UUO16:	XUUO	16B8,UUO17^
 49393
 49394					;EXECUTE AN LUUO AND CHECK THAT THE UUO AND PC STORED
 49395					;ARE CORRECT.
 49396
 49397		016000	000000			MLUUO==16B8		;THE UUO TO BE EXECUTED
 49398						TSET^
 49399			066220			%X=.			;DEFINE %X TO SAVE
 49400	066220	201 00 0 00 066220 		MOVEI	%X		;SAVE THIS PC IN CASE OF WILD TRANSFER
 49401	066221	202 00 0 00 071350 		MOVEM	TNUMB#		;BECAUSE OF PC MOD OR INTERRUPT^
 49402	066222	200 00 0 00 071226 	..0201:	MOVE	0,[JSP	1,.+4]	;TRAP INSTRUCTION
 49403	066223	202 00 0 00 000041 		MOVEM	0,41		;IN TO 41
 49404	066224	016000	000000			16B8			;EXECUTE A UUO
 49405	066225	254 04 0 00 066226 		HALT	.+1		;UUO DID NOT TRAP TO FORTY
 49406	066226	201 02 0 00 066225 		MOVEI	2,.-1		;GET UUO PC
 49407	066227	405 01 0 00 777777 		ANDI	1,-1		;MASK FLAGS OUT
 49408	066230	312 01 0 00 000002 		CAME	1,2		;PC CORRECT ?
 49409	066231	254 04 0 00 066232 		HALT	.+1		;PC OF UUO NOT = TO PC STORED
 49410	066232	200 00 0 00 000040 		MOVE	0,40		;GET UUO !
 49411	066233	312 00 0 00 071227 		CAME	0,[16B8!0]		;CORRECT UUO STORED IN 40?
 49412	066234	334 00 0 00 000000 		SKIPA			;NO
 49413	066235	254 00 0 00 066244 		JRST	UUO17		;TESTS OK !
 49414						STOP1^
 49415	066236	254 04 0 00 066237 		HALT	.+1		;UUO FAILED TO STORE MA BITS
 49416	066237	254 00 0 00 066240 		JRST	.+1		;INTO RIGHT HALF OF 40^
 49417						TGET^
 49418	066240	200 00 0 00 071350 		MOVE	TNUMB		;GET LAST PC STORED AND CHECK TO SEE
 49419	066241	302 00 0 00 066220 		CAIE	%X		;IF ITS WHERE WE REALLY SHOULD BE
 49420						STOP2^^
 49421	066242	254 04 0 00 066243 		HALT	.+1		;HALT IF WE SHOULDN'T BE HERE
 49422	066243	254 00 0 00 066244 		JRST	.+1		;WILD TRANSFER CAUSED THIS HALT.^
 49423					^
 49424					;POSSIBLE CAUSES OF FAILURES IN LUUO FLOW.
 49425					;MA SPECIAL BITS NOT SETTING
 49426					;AD MAGIC # 40 @ET1
 49427					;XCTF SET AT FETCH CYCLE
 49428					;AR IR ENABLE @ET1
 49429					;AR SIGN SMEAR
 49430					;AD MAGIC NUMBER ENABLE
 49431					;AB AD EN @ET1
 49432					;INSTRUCTION FETCH @ET2
DFKAA PDP-10 KL10 BASIC INSTRUCTION DIAGNOSTIC (1) VER 0,2	MACRO %53B(1254)-4 11:50 11-Nov-24 Page 59
DFKAA8	MAC	13-Jan-89 10:22		LOCAL UUO TESTING (LUUO)

 49433	066244				UUO17:	XUUO	17B8,UUO20^
 49434
 49435					;EXECUTE AN LUUO AND CHECK THAT THE UUO AND PC STORED
 49436					;ARE CORRECT.
 49437
 49438		017000	000000			MLUUO==17B8		;THE UUO TO BE EXECUTED
 49439						TSET^
 49440			066244			%X=.			;DEFINE %X TO SAVE
 49441	066244	201 00 0 00 066244 		MOVEI	%X		;SAVE THIS PC IN CASE OF WILD TRANSFER
 49442	066245	202 00 0 00 071350 		MOVEM	TNUMB#		;BECAUSE OF PC MOD OR INTERRUPT^
 49443	066246	200 00 0 00 071230 	..0202:	MOVE	0,[JSP	1,.+4]	;TRAP INSTRUCTION
 49444	066247	202 00 0 00 000041 		MOVEM	0,41		;IN TO 41
 49445	066250	017000	000000			17B8			;EXECUTE A UUO
 49446	066251	254 04 0 00 066252 		HALT	.+1		;UUO DID NOT TRAP TO FORTY
 49447	066252	201 02 0 00 066251 		MOVEI	2,.-1		;GET UUO PC
 49448	066253	405 01 0 00 777777 		ANDI	1,-1		;MASK FLAGS OUT
 49449	066254	312 01 0 00 000002 		CAME	1,2		;PC CORRECT ?
 49450	066255	254 04 0 00 066256 		HALT	.+1		;PC OF UUO NOT = TO PC STORED
 49451	066256	200 00 0 00 000040 		MOVE	0,40		;GET UUO !
 49452	066257	312 00 0 00 071231 		CAME	0,[17B8!0]		;CORRECT UUO STORED IN 40?
 49453	066260	334 00 0 00 000000 		SKIPA			;NO
 49454	066261	254 00 0 00 066270 		JRST	UUO20		;TESTS OK !
 49455						STOP1^
 49456	066262	254 04 0 00 066263 		HALT	.+1		;UUO FAILED TO STORE MA BITS
 49457	066263	254 00 0 00 066264 		JRST	.+1		;INTO RIGHT HALF OF 40^
 49458						TGET^
 49459	066264	200 00 0 00 071350 		MOVE	TNUMB		;GET LAST PC STORED AND CHECK TO SEE
 49460	066265	302 00 0 00 066244 		CAIE	%X		;IF ITS WHERE WE REALLY SHOULD BE
 49461						STOP2^^
 49462	066266	254 04 0 00 066267 		HALT	.+1		;HALT IF WE SHOULDN'T BE HERE
 49463	066267	254 00 0 00 066270 		JRST	.+1		;WILD TRANSFER CAUSED THIS HALT.^
 49464					^
 49465					;POSSIBLE CAUSES OF FAILURES IN LUUO FLOW.
 49466					;MA SPECIAL BITS NOT SETTING
 49467					;AD MAGIC # 40 @ET1
 49468					;XCTF SET AT FETCH CYCLE
 49469					;AR IR ENABLE @ET1
 49470					;AR SIGN SMEAR
 49471					;AD MAGIC NUMBER ENABLE
 49472					;AB AD EN @ET1
 49473					;INSTRUCTION FETCH @ET2
DFKAA PDP-10 KL10 BASIC INSTRUCTION DIAGNOSTIC (1) VER 0,2	MACRO %53B(1254)-4 11:50 11-Nov-24 Page 60
DFKAA8	MAC	13-Jan-89 10:22		LOCAL UUO TESTING (LUUO)

 49474	066270				UUO20:	XUUO	20B8,UUO21^
 49475
 49476					;EXECUTE AN LUUO AND CHECK THAT THE UUO AND PC STORED
 49477					;ARE CORRECT.
 49478
 49479		020000	000000			MLUUO==20B8		;THE UUO TO BE EXECUTED
 49480						TSET^
 49481			066270			%X=.			;DEFINE %X TO SAVE
 49482	066270	201 00 0 00 066270 		MOVEI	%X		;SAVE THIS PC IN CASE OF WILD TRANSFER
 49483	066271	202 00 0 00 071350 		MOVEM	TNUMB#		;BECAUSE OF PC MOD OR INTERRUPT^
 49484	066272	200 00 0 00 071232 	..0203:	MOVE	0,[JSP	1,.+4]	;TRAP INSTRUCTION
 49485	066273	202 00 0 00 000041 		MOVEM	0,41		;IN TO 41
 49486	066274	020000	000000			20B8			;EXECUTE A UUO
 49487	066275	254 04 0 00 066276 		HALT	.+1		;UUO DID NOT TRAP TO FORTY
 49488	066276	201 02 0 00 066275 		MOVEI	2,.-1		;GET UUO PC
 49489	066277	405 01 0 00 777777 		ANDI	1,-1		;MASK FLAGS OUT
 49490	066300	312 01 0 00 000002 		CAME	1,2		;PC CORRECT ?
 49491	066301	254 04 0 00 066302 		HALT	.+1		;PC OF UUO NOT = TO PC STORED
 49492	066302	200 00 0 00 000040 		MOVE	0,40		;GET UUO !
 49493	066303	312 00 0 00 070323 		CAME	0,[20B8!0]		;CORRECT UUO STORED IN 40?
 49494	066304	334 00 0 00 000000 		SKIPA			;NO
 49495	066305	254 00 0 00 066314 		JRST	UUO21		;TESTS OK !
 49496						STOP1^
 49497	066306	254 04 0 00 066307 		HALT	.+1		;UUO FAILED TO STORE MA BITS
 49498	066307	254 00 0 00 066310 		JRST	.+1		;INTO RIGHT HALF OF 40^
 49499						TGET^
 49500	066310	200 00 0 00 071350 		MOVE	TNUMB		;GET LAST PC STORED AND CHECK TO SEE
 49501	066311	302 00 0 00 066270 		CAIE	%X		;IF ITS WHERE WE REALLY SHOULD BE
 49502						STOP2^^
 49503	066312	254 04 0 00 066313 		HALT	.+1		;HALT IF WE SHOULDN'T BE HERE
 49504	066313	254 00 0 00 066314 		JRST	.+1		;WILD TRANSFER CAUSED THIS HALT.^
 49505					^
 49506					;POSSIBLE CAUSES OF FAILURES IN LUUO FLOW.
 49507					;MA SPECIAL BITS NOT SETTING
 49508					;AD MAGIC # 40 @ET1
 49509					;XCTF SET AT FETCH CYCLE
 49510					;AR IR ENABLE @ET1
 49511					;AR SIGN SMEAR
 49512					;AD MAGIC NUMBER ENABLE
 49513					;AB AD EN @ET1
 49514					;INSTRUCTION FETCH @ET2
DFKAA PDP-10 KL10 BASIC INSTRUCTION DIAGNOSTIC (1) VER 0,2	MACRO %53B(1254)-4 11:50 11-Nov-24 Page 61
DFKAA8	MAC	13-Jan-89 10:22		LOCAL UUO TESTING (LUUO)

 49515	066314				UUO21:	XUUO	21B8,UUO22^
 49516
 49517					;EXECUTE AN LUUO AND CHECK THAT THE UUO AND PC STORED
 49518					;ARE CORRECT.
 49519
 49520		021000	000000			MLUUO==21B8		;THE UUO TO BE EXECUTED
 49521						TSET^
 49522			066314			%X=.			;DEFINE %X TO SAVE
 49523	066314	201 00 0 00 066314 		MOVEI	%X		;SAVE THIS PC IN CASE OF WILD TRANSFER
 49524	066315	202 00 0 00 071350 		MOVEM	TNUMB#		;BECAUSE OF PC MOD OR INTERRUPT^
 49525	066316	200 00 0 00 071233 	..0204:	MOVE	0,[JSP	1,.+4]	;TRAP INSTRUCTION
 49526	066317	202 00 0 00 000041 		MOVEM	0,41		;IN TO 41
 49527	066320	021000	000000			21B8			;EXECUTE A UUO
 49528	066321	254 04 0 00 066322 		HALT	.+1		;UUO DID NOT TRAP TO FORTY
 49529	066322	201 02 0 00 066321 		MOVEI	2,.-1		;GET UUO PC
 49530	066323	405 01 0 00 777777 		ANDI	1,-1		;MASK FLAGS OUT
 49531	066324	312 01 0 00 000002 		CAME	1,2		;PC CORRECT ?
 49532	066325	254 04 0 00 066326 		HALT	.+1		;PC OF UUO NOT = TO PC STORED
 49533	066326	200 00 0 00 000040 		MOVE	0,40		;GET UUO !
 49534	066327	312 00 0 00 071234 		CAME	0,[21B8!0]		;CORRECT UUO STORED IN 40?
 49535	066330	334 00 0 00 000000 		SKIPA			;NO
 49536	066331	254 00 0 00 066340 		JRST	UUO22		;TESTS OK !
 49537						STOP1^
 49538	066332	254 04 0 00 066333 		HALT	.+1		;UUO FAILED TO STORE MA BITS
 49539	066333	254 00 0 00 066334 		JRST	.+1		;INTO RIGHT HALF OF 40^
 49540						TGET^
 49541	066334	200 00 0 00 071350 		MOVE	TNUMB		;GET LAST PC STORED AND CHECK TO SEE
 49542	066335	302 00 0 00 066314 		CAIE	%X		;IF ITS WHERE WE REALLY SHOULD BE
 49543						STOP2^^
 49544	066336	254 04 0 00 066337 		HALT	.+1		;HALT IF WE SHOULDN'T BE HERE
 49545	066337	254 00 0 00 066340 		JRST	.+1		;WILD TRANSFER CAUSED THIS HALT.^
 49546					^
 49547					;POSSIBLE CAUSES OF FAILURES IN LUUO FLOW.
 49548					;MA SPECIAL BITS NOT SETTING
 49549					;AD MAGIC # 40 @ET1
 49550					;XCTF SET AT FETCH CYCLE
 49551					;AR IR ENABLE @ET1
 49552					;AR SIGN SMEAR
 49553					;AD MAGIC NUMBER ENABLE
 49554					;AB AD EN @ET1
 49555					;INSTRUCTION FETCH @ET2
DFKAA PDP-10 KL10 BASIC INSTRUCTION DIAGNOSTIC (1) VER 0,2	MACRO %53B(1254)-4 11:50 11-Nov-24 Page 62
DFKAA8	MAC	13-Jan-89 10:22		LOCAL UUO TESTING (LUUO)

 49556	066340				UUO22:	XUUO	22B8,UUO23^
 49557
 49558					;EXECUTE AN LUUO AND CHECK THAT THE UUO AND PC STORED
 49559					;ARE CORRECT.
 49560
 49561		022000	000000			MLUUO==22B8		;THE UUO TO BE EXECUTED
 49562						TSET^
 49563			066340			%X=.			;DEFINE %X TO SAVE
 49564	066340	201 00 0 00 066340 		MOVEI	%X		;SAVE THIS PC IN CASE OF WILD TRANSFER
 49565	066341	202 00 0 00 071350 		MOVEM	TNUMB#		;BECAUSE OF PC MOD OR INTERRUPT^
 49566	066342	200 00 0 00 071235 	..0205:	MOVE	0,[JSP	1,.+4]	;TRAP INSTRUCTION
 49567	066343	202 00 0 00 000041 		MOVEM	0,41		;IN TO 41
 49568	066344	022000	000000			22B8			;EXECUTE A UUO
 49569	066345	254 04 0 00 066346 		HALT	.+1		;UUO DID NOT TRAP TO FORTY
 49570	066346	201 02 0 00 066345 		MOVEI	2,.-1		;GET UUO PC
 49571	066347	405 01 0 00 777777 		ANDI	1,-1		;MASK FLAGS OUT
 49572	066350	312 01 0 00 000002 		CAME	1,2		;PC CORRECT ?
 49573	066351	254 04 0 00 066352 		HALT	.+1		;PC OF UUO NOT = TO PC STORED
 49574	066352	200 00 0 00 000040 		MOVE	0,40		;GET UUO !
 49575	066353	312 00 0 00 071236 		CAME	0,[22B8!0]		;CORRECT UUO STORED IN 40?
 49576	066354	334 00 0 00 000000 		SKIPA			;NO
 49577	066355	254 00 0 00 066364 		JRST	UUO23		;TESTS OK !
 49578						STOP1^
 49579	066356	254 04 0 00 066357 		HALT	.+1		;UUO FAILED TO STORE MA BITS
 49580	066357	254 00 0 00 066360 		JRST	.+1		;INTO RIGHT HALF OF 40^
 49581						TGET^
 49582	066360	200 00 0 00 071350 		MOVE	TNUMB		;GET LAST PC STORED AND CHECK TO SEE
 49583	066361	302 00 0 00 066340 		CAIE	%X		;IF ITS WHERE WE REALLY SHOULD BE
 49584						STOP2^^
 49585	066362	254 04 0 00 066363 		HALT	.+1		;HALT IF WE SHOULDN'T BE HERE
 49586	066363	254 00 0 00 066364 		JRST	.+1		;WILD TRANSFER CAUSED THIS HALT.^
 49587					^
 49588					;POSSIBLE CAUSES OF FAILURES IN LUUO FLOW.
 49589					;MA SPECIAL BITS NOT SETTING
 49590					;AD MAGIC # 40 @ET1
 49591					;XCTF SET AT FETCH CYCLE
 49592					;AR IR ENABLE @ET1
 49593					;AR SIGN SMEAR
 49594					;AD MAGIC NUMBER ENABLE
 49595					;AB AD EN @ET1
 49596					;INSTRUCTION FETCH @ET2
DFKAA PDP-10 KL10 BASIC INSTRUCTION DIAGNOSTIC (1) VER 0,2	MACRO %53B(1254)-4 11:50 11-Nov-24 Page 63
DFKAA8	MAC	13-Jan-89 10:22		LOCAL UUO TESTING (LUUO)

 49597	066364				UUO23:	XUUO	23B8,UUO24^
 49598
 49599					;EXECUTE AN LUUO AND CHECK THAT THE UUO AND PC STORED
 49600					;ARE CORRECT.
 49601
 49602		023000	000000			MLUUO==23B8		;THE UUO TO BE EXECUTED
 49603						TSET^
 49604			066364			%X=.			;DEFINE %X TO SAVE
 49605	066364	201 00 0 00 066364 		MOVEI	%X		;SAVE THIS PC IN CASE OF WILD TRANSFER
 49606	066365	202 00 0 00 071350 		MOVEM	TNUMB#		;BECAUSE OF PC MOD OR INTERRUPT^
 49607	066366	200 00 0 00 071237 	..0206:	MOVE	0,[JSP	1,.+4]	;TRAP INSTRUCTION
 49608	066367	202 00 0 00 000041 		MOVEM	0,41		;IN TO 41
 49609	066370	023000	000000			23B8			;EXECUTE A UUO
 49610	066371	254 04 0 00 066372 		HALT	.+1		;UUO DID NOT TRAP TO FORTY
 49611	066372	201 02 0 00 066371 		MOVEI	2,.-1		;GET UUO PC
 49612	066373	405 01 0 00 777777 		ANDI	1,-1		;MASK FLAGS OUT
 49613	066374	312 01 0 00 000002 		CAME	1,2		;PC CORRECT ?
 49614	066375	254 04 0 00 066376 		HALT	.+1		;PC OF UUO NOT = TO PC STORED
 49615	066376	200 00 0 00 000040 		MOVE	0,40		;GET UUO !
 49616	066377	312 00 0 00 071240 		CAME	0,[23B8!0]		;CORRECT UUO STORED IN 40?
 49617	066400	334 00 0 00 000000 		SKIPA			;NO
 49618	066401	254 00 0 00 066410 		JRST	UUO24		;TESTS OK !
 49619						STOP1^
 49620	066402	254 04 0 00 066403 		HALT	.+1		;UUO FAILED TO STORE MA BITS
 49621	066403	254 00 0 00 066404 		JRST	.+1		;INTO RIGHT HALF OF 40^
 49622						TGET^
 49623	066404	200 00 0 00 071350 		MOVE	TNUMB		;GET LAST PC STORED AND CHECK TO SEE
 49624	066405	302 00 0 00 066364 		CAIE	%X		;IF ITS WHERE WE REALLY SHOULD BE
 49625						STOP2^^
 49626	066406	254 04 0 00 066407 		HALT	.+1		;HALT IF WE SHOULDN'T BE HERE
 49627	066407	254 00 0 00 066410 		JRST	.+1		;WILD TRANSFER CAUSED THIS HALT.^
 49628					^
 49629					;POSSIBLE CAUSES OF FAILURES IN LUUO FLOW.
 49630					;MA SPECIAL BITS NOT SETTING
 49631					;AD MAGIC # 40 @ET1
 49632					;XCTF SET AT FETCH CYCLE
 49633					;AR IR ENABLE @ET1
 49634					;AR SIGN SMEAR
 49635					;AD MAGIC NUMBER ENABLE
 49636					;AB AD EN @ET1
 49637					;INSTRUCTION FETCH @ET2
DFKAA PDP-10 KL10 BASIC INSTRUCTION DIAGNOSTIC (1) VER 0,2	MACRO %53B(1254)-4 11:50 11-Nov-24 Page 64
DFKAA8	MAC	13-Jan-89 10:22		LOCAL UUO TESTING (LUUO)

 49638	066410				UUO24:	XUUO	24B8,UUO25^
 49639
 49640					;EXECUTE AN LUUO AND CHECK THAT THE UUO AND PC STORED
 49641					;ARE CORRECT.
 49642
 49643		024000	000000			MLUUO==24B8		;THE UUO TO BE EXECUTED
 49644						TSET^
 49645			066410			%X=.			;DEFINE %X TO SAVE
 49646	066410	201 00 0 00 066410 		MOVEI	%X		;SAVE THIS PC IN CASE OF WILD TRANSFER
 49647	066411	202 00 0 00 071350 		MOVEM	TNUMB#		;BECAUSE OF PC MOD OR INTERRUPT^
 49648	066412	200 00 0 00 071241 	..0207:	MOVE	0,[JSP	1,.+4]	;TRAP INSTRUCTION
 49649	066413	202 00 0 00 000041 		MOVEM	0,41		;IN TO 41
 49650	066414	024000	000000			24B8			;EXECUTE A UUO
 49651	066415	254 04 0 00 066416 		HALT	.+1		;UUO DID NOT TRAP TO FORTY
 49652	066416	201 02 0 00 066415 		MOVEI	2,.-1		;GET UUO PC
 49653	066417	405 01 0 00 777777 		ANDI	1,-1		;MASK FLAGS OUT
 49654	066420	312 01 0 00 000002 		CAME	1,2		;PC CORRECT ?
 49655	066421	254 04 0 00 066422 		HALT	.+1		;PC OF UUO NOT = TO PC STORED
 49656	066422	200 00 0 00 000040 		MOVE	0,40		;GET UUO !
 49657	066423	312 00 0 00 071242 		CAME	0,[24B8!0]		;CORRECT UUO STORED IN 40?
 49658	066424	334 00 0 00 000000 		SKIPA			;NO
 49659	066425	254 00 0 00 066434 		JRST	UUO25		;TESTS OK !
 49660						STOP1^
 49661	066426	254 04 0 00 066427 		HALT	.+1		;UUO FAILED TO STORE MA BITS
 49662	066427	254 00 0 00 066430 		JRST	.+1		;INTO RIGHT HALF OF 40^
 49663						TGET^
 49664	066430	200 00 0 00 071350 		MOVE	TNUMB		;GET LAST PC STORED AND CHECK TO SEE
 49665	066431	302 00 0 00 066410 		CAIE	%X		;IF ITS WHERE WE REALLY SHOULD BE
 49666						STOP2^^
 49667	066432	254 04 0 00 066433 		HALT	.+1		;HALT IF WE SHOULDN'T BE HERE
 49668	066433	254 00 0 00 066434 		JRST	.+1		;WILD TRANSFER CAUSED THIS HALT.^
 49669					^
 49670					;POSSIBLE CAUSES OF FAILURES IN LUUO FLOW.
 49671					;MA SPECIAL BITS NOT SETTING
 49672					;AD MAGIC # 40 @ET1
 49673					;XCTF SET AT FETCH CYCLE
 49674					;AR IR ENABLE @ET1
 49675					;AR SIGN SMEAR
 49676					;AD MAGIC NUMBER ENABLE
 49677					;AB AD EN @ET1
 49678					;INSTRUCTION FETCH @ET2
DFKAA PDP-10 KL10 BASIC INSTRUCTION DIAGNOSTIC (1) VER 0,2	MACRO %53B(1254)-4 11:50 11-Nov-24 Page 65
DFKAA8	MAC	13-Jan-89 10:22		LOCAL UUO TESTING (LUUO)

 49679	066434				UUO25:	XUUO	25B8,UUO26^
 49680
 49681					;EXECUTE AN LUUO AND CHECK THAT THE UUO AND PC STORED
 49682					;ARE CORRECT.
 49683
 49684		025000	000000			MLUUO==25B8		;THE UUO TO BE EXECUTED
 49685						TSET^
 49686			066434			%X=.			;DEFINE %X TO SAVE
 49687	066434	201 00 0 00 066434 		MOVEI	%X		;SAVE THIS PC IN CASE OF WILD TRANSFER
 49688	066435	202 00 0 00 071350 		MOVEM	TNUMB#		;BECAUSE OF PC MOD OR INTERRUPT^
 49689	066436	200 00 0 00 071243 	..0210:	MOVE	0,[JSP	1,.+4]	;TRAP INSTRUCTION
 49690	066437	202 00 0 00 000041 		MOVEM	0,41		;IN TO 41
 49691	066440	025000	000000			25B8			;EXECUTE A UUO
 49692	066441	254 04 0 00 066442 		HALT	.+1		;UUO DID NOT TRAP TO FORTY
 49693	066442	201 02 0 00 066441 		MOVEI	2,.-1		;GET UUO PC
 49694	066443	405 01 0 00 777777 		ANDI	1,-1		;MASK FLAGS OUT
 49695	066444	312 01 0 00 000002 		CAME	1,2		;PC CORRECT ?
 49696	066445	254 04 0 00 066446 		HALT	.+1		;PC OF UUO NOT = TO PC STORED
 49697	066446	200 00 0 00 000040 		MOVE	0,40		;GET UUO !
 49698	066447	312 00 0 00 071244 		CAME	0,[25B8!0]		;CORRECT UUO STORED IN 40?
 49699	066450	334 00 0 00 000000 		SKIPA			;NO
 49700	066451	254 00 0 00 066460 		JRST	UUO26		;TESTS OK !
 49701						STOP1^
 49702	066452	254 04 0 00 066453 		HALT	.+1		;UUO FAILED TO STORE MA BITS
 49703	066453	254 00 0 00 066454 		JRST	.+1		;INTO RIGHT HALF OF 40^
 49704						TGET^
 49705	066454	200 00 0 00 071350 		MOVE	TNUMB		;GET LAST PC STORED AND CHECK TO SEE
 49706	066455	302 00 0 00 066434 		CAIE	%X		;IF ITS WHERE WE REALLY SHOULD BE
 49707						STOP2^^
 49708	066456	254 04 0 00 066457 		HALT	.+1		;HALT IF WE SHOULDN'T BE HERE
 49709	066457	254 00 0 00 066460 		JRST	.+1		;WILD TRANSFER CAUSED THIS HALT.^
 49710					^
 49711					;POSSIBLE CAUSES OF FAILURES IN LUUO FLOW.
 49712					;MA SPECIAL BITS NOT SETTING
 49713					;AD MAGIC # 40 @ET1
 49714					;XCTF SET AT FETCH CYCLE
 49715					;AR IR ENABLE @ET1
 49716					;AR SIGN SMEAR
 49717					;AD MAGIC NUMBER ENABLE
 49718					;AB AD EN @ET1
 49719					;INSTRUCTION FETCH @ET2
DFKAA PDP-10 KL10 BASIC INSTRUCTION DIAGNOSTIC (1) VER 0,2	MACRO %53B(1254)-4 11:50 11-Nov-24 Page 66
DFKAA8	MAC	13-Jan-89 10:22		LOCAL UUO TESTING (LUUO)

 49720	066460				UUO26:	XUUO	26B8,UUO27^
 49721
 49722					;EXECUTE AN LUUO AND CHECK THAT THE UUO AND PC STORED
 49723					;ARE CORRECT.
 49724
 49725		026000	000000			MLUUO==26B8		;THE UUO TO BE EXECUTED
 49726						TSET^
 49727			066460			%X=.			;DEFINE %X TO SAVE
 49728	066460	201 00 0 00 066460 		MOVEI	%X		;SAVE THIS PC IN CASE OF WILD TRANSFER
 49729	066461	202 00 0 00 071350 		MOVEM	TNUMB#		;BECAUSE OF PC MOD OR INTERRUPT^
 49730	066462	200 00 0 00 071245 	..0211:	MOVE	0,[JSP	1,.+4]	;TRAP INSTRUCTION
 49731	066463	202 00 0 00 000041 		MOVEM	0,41		;IN TO 41
 49732	066464	026000	000000			26B8			;EXECUTE A UUO
 49733	066465	254 04 0 00 066466 		HALT	.+1		;UUO DID NOT TRAP TO FORTY
 49734	066466	201 02 0 00 066465 		MOVEI	2,.-1		;GET UUO PC
 49735	066467	405 01 0 00 777777 		ANDI	1,-1		;MASK FLAGS OUT
 49736	066470	312 01 0 00 000002 		CAME	1,2		;PC CORRECT ?
 49737	066471	254 04 0 00 066472 		HALT	.+1		;PC OF UUO NOT = TO PC STORED
 49738	066472	200 00 0 00 000040 		MOVE	0,40		;GET UUO !
 49739	066473	312 00 0 00 071246 		CAME	0,[26B8!0]		;CORRECT UUO STORED IN 40?
 49740	066474	334 00 0 00 000000 		SKIPA			;NO
 49741	066475	254 00 0 00 066504 		JRST	UUO27		;TESTS OK !
 49742						STOP1^
 49743	066476	254 04 0 00 066477 		HALT	.+1		;UUO FAILED TO STORE MA BITS
 49744	066477	254 00 0 00 066500 		JRST	.+1		;INTO RIGHT HALF OF 40^
 49745						TGET^
 49746	066500	200 00 0 00 071350 		MOVE	TNUMB		;GET LAST PC STORED AND CHECK TO SEE
 49747	066501	302 00 0 00 066460 		CAIE	%X		;IF ITS WHERE WE REALLY SHOULD BE
 49748						STOP2^^
 49749	066502	254 04 0 00 066503 		HALT	.+1		;HALT IF WE SHOULDN'T BE HERE
 49750	066503	254 00 0 00 066504 		JRST	.+1		;WILD TRANSFER CAUSED THIS HALT.^
 49751					^
 49752					;POSSIBLE CAUSES OF FAILURES IN LUUO FLOW.
 49753					;MA SPECIAL BITS NOT SETTING
 49754					;AD MAGIC # 40 @ET1
 49755					;XCTF SET AT FETCH CYCLE
 49756					;AR IR ENABLE @ET1
 49757					;AR SIGN SMEAR
 49758					;AD MAGIC NUMBER ENABLE
 49759					;AB AD EN @ET1
 49760					;INSTRUCTION FETCH @ET2
DFKAA PDP-10 KL10 BASIC INSTRUCTION DIAGNOSTIC (1) VER 0,2	MACRO %53B(1254)-4 11:50 11-Nov-24 Page 67
DFKAA8	MAC	13-Jan-89 10:22		LOCAL UUO TESTING (LUUO)

 49761	066504				UUO27:	XUUO	27B8,UUO30^
 49762
 49763					;EXECUTE AN LUUO AND CHECK THAT THE UUO AND PC STORED
 49764					;ARE CORRECT.
 49765
 49766		027000	000000			MLUUO==27B8		;THE UUO TO BE EXECUTED
 49767						TSET^
 49768			066504			%X=.			;DEFINE %X TO SAVE
 49769	066504	201 00 0 00 066504 		MOVEI	%X		;SAVE THIS PC IN CASE OF WILD TRANSFER
 49770	066505	202 00 0 00 071350 		MOVEM	TNUMB#		;BECAUSE OF PC MOD OR INTERRUPT^
 49771	066506	200 00 0 00 071247 	..0212:	MOVE	0,[JSP	1,.+4]	;TRAP INSTRUCTION
 49772	066507	202 00 0 00 000041 		MOVEM	0,41		;IN TO 41
 49773	066510	027000	000000			27B8			;EXECUTE A UUO
 49774	066511	254 04 0 00 066512 		HALT	.+1		;UUO DID NOT TRAP TO FORTY
 49775	066512	201 02 0 00 066511 		MOVEI	2,.-1		;GET UUO PC
 49776	066513	405 01 0 00 777777 		ANDI	1,-1		;MASK FLAGS OUT
 49777	066514	312 01 0 00 000002 		CAME	1,2		;PC CORRECT ?
 49778	066515	254 04 0 00 066516 		HALT	.+1		;PC OF UUO NOT = TO PC STORED
 49779	066516	200 00 0 00 000040 		MOVE	0,40		;GET UUO !
 49780	066517	312 00 0 00 071250 		CAME	0,[27B8!0]		;CORRECT UUO STORED IN 40?
 49781	066520	334 00 0 00 000000 		SKIPA			;NO
 49782	066521	254 00 0 00 066530 		JRST	UUO30		;TESTS OK !
 49783						STOP1^
 49784	066522	254 04 0 00 066523 		HALT	.+1		;UUO FAILED TO STORE MA BITS
 49785	066523	254 00 0 00 066524 		JRST	.+1		;INTO RIGHT HALF OF 40^
 49786						TGET^
 49787	066524	200 00 0 00 071350 		MOVE	TNUMB		;GET LAST PC STORED AND CHECK TO SEE
 49788	066525	302 00 0 00 066504 		CAIE	%X		;IF ITS WHERE WE REALLY SHOULD BE
 49789						STOP2^^
 49790	066526	254 04 0 00 066527 		HALT	.+1		;HALT IF WE SHOULDN'T BE HERE
 49791	066527	254 00 0 00 066530 		JRST	.+1		;WILD TRANSFER CAUSED THIS HALT.^
 49792					^
 49793					;POSSIBLE CAUSES OF FAILURES IN LUUO FLOW.
 49794					;MA SPECIAL BITS NOT SETTING
 49795					;AD MAGIC # 40 @ET1
 49796					;XCTF SET AT FETCH CYCLE
 49797					;AR IR ENABLE @ET1
 49798					;AR SIGN SMEAR
 49799					;AD MAGIC NUMBER ENABLE
 49800					;AB AD EN @ET1
 49801					;INSTRUCTION FETCH @ET2
DFKAA PDP-10 KL10 BASIC INSTRUCTION DIAGNOSTIC (1) VER 0,2	MACRO %53B(1254)-4 11:50 11-Nov-24 Page 68
DFKAA8	MAC	13-Jan-89 10:22		LOCAL UUO TESTING (LUUO)

 49802	066530				UUO30:	XUUO	30B8,UUO31^
 49803
 49804					;EXECUTE AN LUUO AND CHECK THAT THE UUO AND PC STORED
 49805					;ARE CORRECT.
 49806
 49807		030000	000000			MLUUO==30B8		;THE UUO TO BE EXECUTED
 49808						TSET^
 49809			066530			%X=.			;DEFINE %X TO SAVE
 49810	066530	201 00 0 00 066530 		MOVEI	%X		;SAVE THIS PC IN CASE OF WILD TRANSFER
 49811	066531	202 00 0 00 071350 		MOVEM	TNUMB#		;BECAUSE OF PC MOD OR INTERRUPT^
 49812	066532	200 00 0 00 071251 	..0213:	MOVE	0,[JSP	1,.+4]	;TRAP INSTRUCTION
 49813	066533	202 00 0 00 000041 		MOVEM	0,41		;IN TO 41
 49814	066534	030000	000000			30B8			;EXECUTE A UUO
 49815	066535	254 04 0 00 066536 		HALT	.+1		;UUO DID NOT TRAP TO FORTY
 49816	066536	201 02 0 00 066535 		MOVEI	2,.-1		;GET UUO PC
 49817	066537	405 01 0 00 777777 		ANDI	1,-1		;MASK FLAGS OUT
 49818	066540	312 01 0 00 000002 		CAME	1,2		;PC CORRECT ?
 49819	066541	254 04 0 00 066542 		HALT	.+1		;PC OF UUO NOT = TO PC STORED
 49820	066542	200 00 0 00 000040 		MOVE	0,40		;GET UUO !
 49821	066543	312 00 0 00 071252 		CAME	0,[30B8!0]		;CORRECT UUO STORED IN 40?
 49822	066544	334 00 0 00 000000 		SKIPA			;NO
 49823	066545	254 00 0 00 066554 		JRST	UUO31		;TESTS OK !
 49824						STOP1^
 49825	066546	254 04 0 00 066547 		HALT	.+1		;UUO FAILED TO STORE MA BITS
 49826	066547	254 00 0 00 066550 		JRST	.+1		;INTO RIGHT HALF OF 40^
 49827						TGET^
 49828	066550	200 00 0 00 071350 		MOVE	TNUMB		;GET LAST PC STORED AND CHECK TO SEE
 49829	066551	302 00 0 00 066530 		CAIE	%X		;IF ITS WHERE WE REALLY SHOULD BE
 49830						STOP2^^
 49831	066552	254 04 0 00 066553 		HALT	.+1		;HALT IF WE SHOULDN'T BE HERE
 49832	066553	254 00 0 00 066554 		JRST	.+1		;WILD TRANSFER CAUSED THIS HALT.^
 49833					^
 49834					;POSSIBLE CAUSES OF FAILURES IN LUUO FLOW.
 49835					;MA SPECIAL BITS NOT SETTING
 49836					;AD MAGIC # 40 @ET1
 49837					;XCTF SET AT FETCH CYCLE
 49838					;AR IR ENABLE @ET1
 49839					;AR SIGN SMEAR
 49840					;AD MAGIC NUMBER ENABLE
 49841					;AB AD EN @ET1
 49842					;INSTRUCTION FETCH @ET2
DFKAA PDP-10 KL10 BASIC INSTRUCTION DIAGNOSTIC (1) VER 0,2	MACRO %53B(1254)-4 11:50 11-Nov-24 Page 69
DFKAA8	MAC	13-Jan-89 10:22		LOCAL UUO TESTING (LUUO)

 49843	066554				UUO31:	XUUO	31B8,UUO32^
 49844
 49845					;EXECUTE AN LUUO AND CHECK THAT THE UUO AND PC STORED
 49846					;ARE CORRECT.
 49847
 49848		031000	000000			MLUUO==31B8		;THE UUO TO BE EXECUTED
 49849						TSET^
 49850			066554			%X=.			;DEFINE %X TO SAVE
 49851	066554	201 00 0 00 066554 		MOVEI	%X		;SAVE THIS PC IN CASE OF WILD TRANSFER
 49852	066555	202 00 0 00 071350 		MOVEM	TNUMB#		;BECAUSE OF PC MOD OR INTERRUPT^
 49853	066556	200 00 0 00 071253 	..0214:	MOVE	0,[JSP	1,.+4]	;TRAP INSTRUCTION
 49854	066557	202 00 0 00 000041 		MOVEM	0,41		;IN TO 41
 49855	066560	031000	000000			31B8			;EXECUTE A UUO
 49856	066561	254 04 0 00 066562 		HALT	.+1		;UUO DID NOT TRAP TO FORTY
 49857	066562	201 02 0 00 066561 		MOVEI	2,.-1		;GET UUO PC
 49858	066563	405 01 0 00 777777 		ANDI	1,-1		;MASK FLAGS OUT
 49859	066564	312 01 0 00 000002 		CAME	1,2		;PC CORRECT ?
 49860	066565	254 04 0 00 066566 		HALT	.+1		;PC OF UUO NOT = TO PC STORED
 49861	066566	200 00 0 00 000040 		MOVE	0,40		;GET UUO !
 49862	066567	312 00 0 00 071254 		CAME	0,[31B8!0]		;CORRECT UUO STORED IN 40?
 49863	066570	334 00 0 00 000000 		SKIPA			;NO
 49864	066571	254 00 0 00 066600 		JRST	UUO32		;TESTS OK !
 49865						STOP1^
 49866	066572	254 04 0 00 066573 		HALT	.+1		;UUO FAILED TO STORE MA BITS
 49867	066573	254 00 0 00 066574 		JRST	.+1		;INTO RIGHT HALF OF 40^
 49868						TGET^
 49869	066574	200 00 0 00 071350 		MOVE	TNUMB		;GET LAST PC STORED AND CHECK TO SEE
 49870	066575	302 00 0 00 066554 		CAIE	%X		;IF ITS WHERE WE REALLY SHOULD BE
 49871						STOP2^^
 49872	066576	254 04 0 00 066577 		HALT	.+1		;HALT IF WE SHOULDN'T BE HERE
 49873	066577	254 00 0 00 066600 		JRST	.+1		;WILD TRANSFER CAUSED THIS HALT.^
 49874					^
 49875					;POSSIBLE CAUSES OF FAILURES IN LUUO FLOW.
 49876					;MA SPECIAL BITS NOT SETTING
 49877					;AD MAGIC # 40 @ET1
 49878					;XCTF SET AT FETCH CYCLE
 49879					;AR IR ENABLE @ET1
 49880					;AR SIGN SMEAR
 49881					;AD MAGIC NUMBER ENABLE
 49882					;AB AD EN @ET1
 49883					;INSTRUCTION FETCH @ET2
DFKAA PDP-10 KL10 BASIC INSTRUCTION DIAGNOSTIC (1) VER 0,2	MACRO %53B(1254)-4 11:50 11-Nov-24 Page 70
DFKAA8	MAC	13-Jan-89 10:22		LOCAL UUO TESTING (LUUO)

 49884	066600				UUO32:	XUUO	32B8,UUO33^
 49885
 49886					;EXECUTE AN LUUO AND CHECK THAT THE UUO AND PC STORED
 49887					;ARE CORRECT.
 49888
 49889		032000	000000			MLUUO==32B8		;THE UUO TO BE EXECUTED
 49890						TSET^
 49891			066600			%X=.			;DEFINE %X TO SAVE
 49892	066600	201 00 0 00 066600 		MOVEI	%X		;SAVE THIS PC IN CASE OF WILD TRANSFER
 49893	066601	202 00 0 00 071350 		MOVEM	TNUMB#		;BECAUSE OF PC MOD OR INTERRUPT^
 49894	066602	200 00 0 00 071255 	..0215:	MOVE	0,[JSP	1,.+4]	;TRAP INSTRUCTION
 49895	066603	202 00 0 00 000041 		MOVEM	0,41		;IN TO 41
 49896	066604	032000	000000			32B8			;EXECUTE A UUO
 49897	066605	254 04 0 00 066606 		HALT	.+1		;UUO DID NOT TRAP TO FORTY
 49898	066606	201 02 0 00 066605 		MOVEI	2,.-1		;GET UUO PC
 49899	066607	405 01 0 00 777777 		ANDI	1,-1		;MASK FLAGS OUT
 49900	066610	312 01 0 00 000002 		CAME	1,2		;PC CORRECT ?
 49901	066611	254 04 0 00 066612 		HALT	.+1		;PC OF UUO NOT = TO PC STORED
 49902	066612	200 00 0 00 000040 		MOVE	0,40		;GET UUO !
 49903	066613	312 00 0 00 071256 		CAME	0,[32B8!0]		;CORRECT UUO STORED IN 40?
 49904	066614	334 00 0 00 000000 		SKIPA			;NO
 49905	066615	254 00 0 00 066624 		JRST	UUO33		;TESTS OK !
 49906						STOP1^
 49907	066616	254 04 0 00 066617 		HALT	.+1		;UUO FAILED TO STORE MA BITS
 49908	066617	254 00 0 00 066620 		JRST	.+1		;INTO RIGHT HALF OF 40^
 49909						TGET^
 49910	066620	200 00 0 00 071350 		MOVE	TNUMB		;GET LAST PC STORED AND CHECK TO SEE
 49911	066621	302 00 0 00 066600 		CAIE	%X		;IF ITS WHERE WE REALLY SHOULD BE
 49912						STOP2^^
 49913	066622	254 04 0 00 066623 		HALT	.+1		;HALT IF WE SHOULDN'T BE HERE
 49914	066623	254 00 0 00 066624 		JRST	.+1		;WILD TRANSFER CAUSED THIS HALT.^
 49915					^
 49916					;POSSIBLE CAUSES OF FAILURES IN LUUO FLOW.
 49917					;MA SPECIAL BITS NOT SETTING
 49918					;AD MAGIC # 40 @ET1
 49919					;XCTF SET AT FETCH CYCLE
 49920					;AR IR ENABLE @ET1
 49921					;AR SIGN SMEAR
 49922					;AD MAGIC NUMBER ENABLE
 49923					;AB AD EN @ET1
 49924					;INSTRUCTION FETCH @ET2
DFKAA PDP-10 KL10 BASIC INSTRUCTION DIAGNOSTIC (1) VER 0,2	MACRO %53B(1254)-4 11:50 11-Nov-24 Page 71
DFKAA8	MAC	13-Jan-89 10:22		LOCAL UUO TESTING (LUUO)

 49925	066624				UUO33:	XUUO	33B8,UUO34^
 49926
 49927					;EXECUTE AN LUUO AND CHECK THAT THE UUO AND PC STORED
 49928					;ARE CORRECT.
 49929
 49930		033000	000000			MLUUO==33B8		;THE UUO TO BE EXECUTED
 49931						TSET^
 49932			066624			%X=.			;DEFINE %X TO SAVE
 49933	066624	201 00 0 00 066624 		MOVEI	%X		;SAVE THIS PC IN CASE OF WILD TRANSFER
 49934	066625	202 00 0 00 071350 		MOVEM	TNUMB#		;BECAUSE OF PC MOD OR INTERRUPT^
 49935	066626	200 00 0 00 071257 	..0216:	MOVE	0,[JSP	1,.+4]	;TRAP INSTRUCTION
 49936	066627	202 00 0 00 000041 		MOVEM	0,41		;IN TO 41
 49937	066630	033000	000000			33B8			;EXECUTE A UUO
 49938	066631	254 04 0 00 066632 		HALT	.+1		;UUO DID NOT TRAP TO FORTY
 49939	066632	201 02 0 00 066631 		MOVEI	2,.-1		;GET UUO PC
 49940	066633	405 01 0 00 777777 		ANDI	1,-1		;MASK FLAGS OUT
 49941	066634	312 01 0 00 000002 		CAME	1,2		;PC CORRECT ?
 49942	066635	254 04 0 00 066636 		HALT	.+1		;PC OF UUO NOT = TO PC STORED
 49943	066636	200 00 0 00 000040 		MOVE	0,40		;GET UUO !
 49944	066637	312 00 0 00 071260 		CAME	0,[33B8!0]		;CORRECT UUO STORED IN 40?
 49945	066640	334 00 0 00 000000 		SKIPA			;NO
 49946	066641	254 00 0 00 066650 		JRST	UUO34		;TESTS OK !
 49947						STOP1^
 49948	066642	254 04 0 00 066643 		HALT	.+1		;UUO FAILED TO STORE MA BITS
 49949	066643	254 00 0 00 066644 		JRST	.+1		;INTO RIGHT HALF OF 40^
 49950						TGET^
 49951	066644	200 00 0 00 071350 		MOVE	TNUMB		;GET LAST PC STORED AND CHECK TO SEE
 49952	066645	302 00 0 00 066624 		CAIE	%X		;IF ITS WHERE WE REALLY SHOULD BE
 49953						STOP2^^
 49954	066646	254 04 0 00 066647 		HALT	.+1		;HALT IF WE SHOULDN'T BE HERE
 49955	066647	254 00 0 00 066650 		JRST	.+1		;WILD TRANSFER CAUSED THIS HALT.^
 49956					^
 49957					;POSSIBLE CAUSES OF FAILURES IN LUUO FLOW.
 49958					;MA SPECIAL BITS NOT SETTING
 49959					;AD MAGIC # 40 @ET1
 49960					;XCTF SET AT FETCH CYCLE
 49961					;AR IR ENABLE @ET1
 49962					;AR SIGN SMEAR
 49963					;AD MAGIC NUMBER ENABLE
 49964					;AB AD EN @ET1
 49965					;INSTRUCTION FETCH @ET2
DFKAA PDP-10 KL10 BASIC INSTRUCTION DIAGNOSTIC (1) VER 0,2	MACRO %53B(1254)-4 11:50 11-Nov-24 Page 72
DFKAA8	MAC	13-Jan-89 10:22		LOCAL UUO TESTING (LUUO)

 49966	066650				UUO34:	XUUO	34B8,UUO35^
 49967
 49968					;EXECUTE AN LUUO AND CHECK THAT THE UUO AND PC STORED
 49969					;ARE CORRECT.
 49970
 49971		034000	000000			MLUUO==34B8		;THE UUO TO BE EXECUTED
 49972						TSET^
 49973			066650			%X=.			;DEFINE %X TO SAVE
 49974	066650	201 00 0 00 066650 		MOVEI	%X		;SAVE THIS PC IN CASE OF WILD TRANSFER
 49975	066651	202 00 0 00 071350 		MOVEM	TNUMB#		;BECAUSE OF PC MOD OR INTERRUPT^
 49976	066652	200 00 0 00 071261 	..0217:	MOVE	0,[JSP	1,.+4]	;TRAP INSTRUCTION
 49977	066653	202 00 0 00 000041 		MOVEM	0,41		;IN TO 41
 49978	066654	034000	000000			34B8			;EXECUTE A UUO
 49979	066655	254 04 0 00 066656 		HALT	.+1		;UUO DID NOT TRAP TO FORTY
 49980	066656	201 02 0 00 066655 		MOVEI	2,.-1		;GET UUO PC
 49981	066657	405 01 0 00 777777 		ANDI	1,-1		;MASK FLAGS OUT
 49982	066660	312 01 0 00 000002 		CAME	1,2		;PC CORRECT ?
 49983	066661	254 04 0 00 066662 		HALT	.+1		;PC OF UUO NOT = TO PC STORED
 49984	066662	200 00 0 00 000040 		MOVE	0,40		;GET UUO !
 49985	066663	312 00 0 00 071262 		CAME	0,[34B8!0]		;CORRECT UUO STORED IN 40?
 49986	066664	334 00 0 00 000000 		SKIPA			;NO
 49987	066665	254 00 0 00 066674 		JRST	UUO35		;TESTS OK !
 49988						STOP1^
 49989	066666	254 04 0 00 066667 		HALT	.+1		;UUO FAILED TO STORE MA BITS
 49990	066667	254 00 0 00 066670 		JRST	.+1		;INTO RIGHT HALF OF 40^
 49991						TGET^
 49992	066670	200 00 0 00 071350 		MOVE	TNUMB		;GET LAST PC STORED AND CHECK TO SEE
 49993	066671	302 00 0 00 066650 		CAIE	%X		;IF ITS WHERE WE REALLY SHOULD BE
 49994						STOP2^^
 49995	066672	254 04 0 00 066673 		HALT	.+1		;HALT IF WE SHOULDN'T BE HERE
 49996	066673	254 00 0 00 066674 		JRST	.+1		;WILD TRANSFER CAUSED THIS HALT.^
 49997					^
 49998					;POSSIBLE CAUSES OF FAILURES IN LUUO FLOW.
 49999					;MA SPECIAL BITS NOT SETTING
 50000					;AD MAGIC # 40 @ET1
 50001					;XCTF SET AT FETCH CYCLE
 50002					;AR IR ENABLE @ET1
 50003					;AR SIGN SMEAR
 50004					;AD MAGIC NUMBER ENABLE
 50005					;AB AD EN @ET1
 50006					;INSTRUCTION FETCH @ET2
DFKAA PDP-10 KL10 BASIC INSTRUCTION DIAGNOSTIC (1) VER 0,2	MACRO %53B(1254)-4 11:50 11-Nov-24 Page 73
DFKAA8	MAC	13-Jan-89 10:22		LOCAL UUO TESTING (LUUO)

 50007	066674				UUO35:	XUUO	35B8,UUO36^
 50008
 50009					;EXECUTE AN LUUO AND CHECK THAT THE UUO AND PC STORED
 50010					;ARE CORRECT.
 50011
 50012		035000	000000			MLUUO==35B8		;THE UUO TO BE EXECUTED
 50013						TSET^
 50014			066674			%X=.			;DEFINE %X TO SAVE
 50015	066674	201 00 0 00 066674 		MOVEI	%X		;SAVE THIS PC IN CASE OF WILD TRANSFER
 50016	066675	202 00 0 00 071350 		MOVEM	TNUMB#		;BECAUSE OF PC MOD OR INTERRUPT^
 50017	066676	200 00 0 00 071263 	..0220:	MOVE	0,[JSP	1,.+4]	;TRAP INSTRUCTION
 50018	066677	202 00 0 00 000041 		MOVEM	0,41		;IN TO 41
 50019	066700	035000	000000			35B8			;EXECUTE A UUO
 50020	066701	254 04 0 00 066702 		HALT	.+1		;UUO DID NOT TRAP TO FORTY
 50021	066702	201 02 0 00 066701 		MOVEI	2,.-1		;GET UUO PC
 50022	066703	405 01 0 00 777777 		ANDI	1,-1		;MASK FLAGS OUT
 50023	066704	312 01 0 00 000002 		CAME	1,2		;PC CORRECT ?
 50024	066705	254 04 0 00 066706 		HALT	.+1		;PC OF UUO NOT = TO PC STORED
 50025	066706	200 00 0 00 000040 		MOVE	0,40		;GET UUO !
 50026	066707	312 00 0 00 071264 		CAME	0,[35B8!0]		;CORRECT UUO STORED IN 40?
 50027	066710	334 00 0 00 000000 		SKIPA			;NO
 50028	066711	254 00 0 00 066720 		JRST	UUO36		;TESTS OK !
 50029						STOP1^
 50030	066712	254 04 0 00 066713 		HALT	.+1		;UUO FAILED TO STORE MA BITS
 50031	066713	254 00 0 00 066714 		JRST	.+1		;INTO RIGHT HALF OF 40^
 50032						TGET^
 50033	066714	200 00 0 00 071350 		MOVE	TNUMB		;GET LAST PC STORED AND CHECK TO SEE
 50034	066715	302 00 0 00 066674 		CAIE	%X		;IF ITS WHERE WE REALLY SHOULD BE
 50035						STOP2^^
 50036	066716	254 04 0 00 066717 		HALT	.+1		;HALT IF WE SHOULDN'T BE HERE
 50037	066717	254 00 0 00 066720 		JRST	.+1		;WILD TRANSFER CAUSED THIS HALT.^
 50038					^
 50039					;POSSIBLE CAUSES OF FAILURES IN LUUO FLOW.
 50040					;MA SPECIAL BITS NOT SETTING
 50041					;AD MAGIC # 40 @ET1
 50042					;XCTF SET AT FETCH CYCLE
 50043					;AR IR ENABLE @ET1
 50044					;AR SIGN SMEAR
 50045					;AD MAGIC NUMBER ENABLE
 50046					;AB AD EN @ET1
 50047					;INSTRUCTION FETCH @ET2
DFKAA PDP-10 KL10 BASIC INSTRUCTION DIAGNOSTIC (1) VER 0,2	MACRO %53B(1254)-4 11:50 11-Nov-24 Page 74
DFKAA8	MAC	13-Jan-89 10:22		LOCAL UUO TESTING (LUUO)

 50048	066720				UUO36:	XUUO	36B8,UUO37^
 50049
 50050					;EXECUTE AN LUUO AND CHECK THAT THE UUO AND PC STORED
 50051					;ARE CORRECT.
 50052
 50053		036000	000000			MLUUO==36B8		;THE UUO TO BE EXECUTED
 50054						TSET^
 50055			066720			%X=.			;DEFINE %X TO SAVE
 50056	066720	201 00 0 00 066720 		MOVEI	%X		;SAVE THIS PC IN CASE OF WILD TRANSFER
 50057	066721	202 00 0 00 071350 		MOVEM	TNUMB#		;BECAUSE OF PC MOD OR INTERRUPT^
 50058	066722	200 00 0 00 071265 	..0221:	MOVE	0,[JSP	1,.+4]	;TRAP INSTRUCTION
 50059	066723	202 00 0 00 000041 		MOVEM	0,41		;IN TO 41
 50060	066724	036000	000000			36B8			;EXECUTE A UUO
 50061	066725	254 04 0 00 066726 		HALT	.+1		;UUO DID NOT TRAP TO FORTY
 50062	066726	201 02 0 00 066725 		MOVEI	2,.-1		;GET UUO PC
 50063	066727	405 01 0 00 777777 		ANDI	1,-1		;MASK FLAGS OUT
 50064	066730	312 01 0 00 000002 		CAME	1,2		;PC CORRECT ?
 50065	066731	254 04 0 00 066732 		HALT	.+1		;PC OF UUO NOT = TO PC STORED
 50066	066732	200 00 0 00 000040 		MOVE	0,40		;GET UUO !
 50067	066733	312 00 0 00 071266 		CAME	0,[36B8!0]		;CORRECT UUO STORED IN 40?
 50068	066734	334 00 0 00 000000 		SKIPA			;NO
 50069	066735	254 00 0 00 066744 		JRST	UUO37		;TESTS OK !
 50070						STOP1^
 50071	066736	254 04 0 00 066737 		HALT	.+1		;UUO FAILED TO STORE MA BITS
 50072	066737	254 00 0 00 066740 		JRST	.+1		;INTO RIGHT HALF OF 40^
 50073						TGET^
 50074	066740	200 00 0 00 071350 		MOVE	TNUMB		;GET LAST PC STORED AND CHECK TO SEE
 50075	066741	302 00 0 00 066720 		CAIE	%X		;IF ITS WHERE WE REALLY SHOULD BE
 50076						STOP2^^
 50077	066742	254 04 0 00 066743 		HALT	.+1		;HALT IF WE SHOULDN'T BE HERE
 50078	066743	254 00 0 00 066744 		JRST	.+1		;WILD TRANSFER CAUSED THIS HALT.^
 50079					^
 50080					;POSSIBLE CAUSES OF FAILURES IN LUUO FLOW.
 50081					;MA SPECIAL BITS NOT SETTING
 50082					;AD MAGIC # 40 @ET1
 50083					;XCTF SET AT FETCH CYCLE
 50084					;AR IR ENABLE @ET1
 50085					;AR SIGN SMEAR
 50086					;AD MAGIC NUMBER ENABLE
 50087					;AB AD EN @ET1
 50088					;INSTRUCTION FETCH @ET2
DFKAA PDP-10 KL10 BASIC INSTRUCTION DIAGNOSTIC (1) VER 0,2	MACRO %53B(1254)-4 11:50 11-Nov-24 Page 75
DFKAA8	MAC	13-Jan-89 10:22		LOCAL UUO TESTING (LUUO)

 50089	066744				UUO37:	XUUO	37B8,UUOPC^
 50090
 50091					;EXECUTE AN LUUO AND CHECK THAT THE UUO AND PC STORED
 50092					;ARE CORRECT.
 50093
 50094		037000	000000			MLUUO==37B8		;THE UUO TO BE EXECUTED
 50095						TSET^
 50096			066744			%X=.			;DEFINE %X TO SAVE
 50097	066744	201 00 0 00 066744 		MOVEI	%X		;SAVE THIS PC IN CASE OF WILD TRANSFER
 50098	066745	202 00 0 00 071350 		MOVEM	TNUMB#		;BECAUSE OF PC MOD OR INTERRUPT^
 50099	066746	200 00 0 00 071267 	..0222:	MOVE	0,[JSP	1,.+4]	;TRAP INSTRUCTION
 50100	066747	202 00 0 00 000041 		MOVEM	0,41		;IN TO 41
 50101	066750	037000	000000			37B8			;EXECUTE A UUO
 50102	066751	254 04 0 00 066752 		HALT	.+1		;UUO DID NOT TRAP TO FORTY
 50103	066752	201 02 0 00 066751 		MOVEI	2,.-1		;GET UUO PC
 50104	066753	405 01 0 00 777777 		ANDI	1,-1		;MASK FLAGS OUT
 50105	066754	312 01 0 00 000002 		CAME	1,2		;PC CORRECT ?
 50106	066755	254 04 0 00 066756 		HALT	.+1		;PC OF UUO NOT = TO PC STORED
 50107	066756	200 00 0 00 000040 		MOVE	0,40		;GET UUO !
 50108	066757	312 00 0 00 071270 		CAME	0,[37B8!0]		;CORRECT UUO STORED IN 40?
 50109	066760	334 00 0 00 000000 		SKIPA			;NO
 50110	066761	254 00 0 00 066771 		JRST	UUOPC		;TESTS OK !
 50111						STOP1^
 50112	066762	254 04 0 00 066763 		HALT	.+1		;UUO FAILED TO STORE MA BITS
 50113	066763	254 00 0 00 066764 		JRST	.+1		;INTO RIGHT HALF OF 40^
 50114						TGET^
 50115	066764	200 00 0 00 071350 		MOVE	TNUMB		;GET LAST PC STORED AND CHECK TO SEE
 50116	066765	302 00 0 00 066744 		CAIE	%X		;IF ITS WHERE WE REALLY SHOULD BE
 50117						STOP2^^
 50118	066766	254 04 0 00 066767 		HALT	.+1		;HALT IF WE SHOULDN'T BE HERE
 50119	066767	254 00 0 00 066770 		JRST	.+1		;WILD TRANSFER CAUSED THIS HALT.^
 50120					^
 50121
 50122	066770	255 00 0 00 000000 		JFCL
DFKAA PDP-10 KL10 BASIC INSTRUCTION DIAGNOSTIC (1) VER 0,2	MACRO %53B(1254)-4 11:50 11-Nov-24 Page 76
DFKAA8	MAC	13-Jan-89 10:22		TEST UUO STORING CORRECTLY

 50123					SUBTTL	TEST UUO STORING CORRECTLY
 50124					;TEST THE MA PORTION OF THE UUO TO SEE IF BITS 18-35 ARE STORED CORRECTLY
 50125					;ROUTINE ROTATES A BIT LEFT THROUGH THE MA OF THE UUO
 50126					;THEN DOES ALTERNATING PATTERN, ALL ONES AND ALL ZEROS
 50127
 50128			000001			X=1
 50129	066771				UUOPC:
 50130	066771				UUOPCA:
 50131						REPEAT	^D18,<
 50132						XUUOA	X
 50133						X=X_1
 50134					>
 50135
 50136						XUUOA	X^
 50137
 50138					;CHECK THE "E" OF THE UUO STORED IS CORRECT.
 50139
 50140			000001			EFIELD==X		;"E" WE ARE TESTING FOR
 50141						TSET^
 50142			066771			%X=.			;DEFINE %X TO SAVE
 50143	066771	201 00 0 00 066771 		MOVEI	%X		;SAVE THIS PC IN CASE OF WILD TRANSFER
 50144	066772	202 00 0 00 071350 		MOVEM	TNUMB#		;BECAUSE OF PC MOD OR INTERRUPT^
 50145	066773	200 00 0 00 071271 	..0223:	MOVE	[JRST	.+4]	;SET A TRAP INSTRUCTION
 50146	066774	202 00 0 00 000041 		MOVEM	41		;INTO 41
 50147	066775	001000	000001			1B8!X			;EXECUTE A UUO
 50148	066776	254 04 0 00 066777 	..0224:	HALT	.+1		;UUO DIDN'T TRAP TO 40
 50149	066777	200 00 0 00 000040 		MOVE	0,40		;GET UUO
 50150	067000	405 00 0 00 777777 		ANDI	0,-1		;MASK OUT UUO FOR MA BITS
 50151	067001	302 00 0 00 000001 		CAIE	X		;MA BITS CORRECT?
 50152	067002				..0225:	STOP1^
 50153	067002	254 04 0 00 067003 		HALT	.+1		;UUO FAILED TO STORE MA BITS
 50154	067003	254 00 0 00 067004 		JRST	.+1		;INTO RIGHT HALF OF 40^
 50155						TGET^
 50156	067004	200 00 0 00 071350 		MOVE	TNUMB		;GET LAST PC STORED AND CHECK TO SEE
 50157	067005	302 00 0 00 066771 		CAIE	%X		;IF ITS WHERE WE REALLY SHOULD BE
 50158						STOP2^^
 50159	067006	254 04 0 00 067007 		HALT	.+1		;HALT IF WE SHOULDN'T BE HERE
 50160	067007	254 00 0 00 067010 		JRST	.+1		;WILD TRANSFER CAUSED THIS HALT.^
 50161					^
 50162			000002			X=X_1
 50163
 50164
 50165						XUUOA	X^
 50166
 50167					;CHECK THE "E" OF THE UUO STORED IS CORRECT.
 50168
 50169			000002			EFIELD==X		;"E" WE ARE TESTING FOR
 50170						TSET^
 50171			067010			%X=.			;DEFINE %X TO SAVE
 50172	067010	201 00 0 00 067010 		MOVEI	%X		;SAVE THIS PC IN CASE OF WILD TRANSFER
 50173	067011	202 00 0 00 071350 		MOVEM	TNUMB#		;BECAUSE OF PC MOD OR INTERRUPT^
 50174	067012	200 00 0 00 071272 	..0226:	MOVE	[JRST	.+4]	;SET A TRAP INSTRUCTION
 50175	067013	202 00 0 00 000041 		MOVEM	41		;INTO 41
 50176	067014	001000	000002			1B8!X			;EXECUTE A UUO
 50177	067015	254 04 0 00 067016 	..0227:	HALT	.+1		;UUO DIDN'T TRAP TO 40
DFKAA PDP-10 KL10 BASIC INSTRUCTION DIAGNOSTIC (1) VER 0,2	MACRO %53B(1254)-4 11:50 11-Nov-24 Page 76-1
DFKAA8	MAC	13-Jan-89 10:22		TEST UUO STORING CORRECTLY

 50178	067016	200 00 0 00 000040 		MOVE	0,40		;GET UUO
 50179	067017	405 00 0 00 777777 		ANDI	0,-1		;MASK OUT UUO FOR MA BITS
 50180	067020	302 00 0 00 000002 		CAIE	X		;MA BITS CORRECT?
 50181	067021				..0230:	STOP1^
 50182	067021	254 04 0 00 067022 		HALT	.+1		;UUO FAILED TO STORE MA BITS
 50183	067022	254 00 0 00 067023 		JRST	.+1		;INTO RIGHT HALF OF 40^
 50184						TGET^
 50185	067023	200 00 0 00 071350 		MOVE	TNUMB		;GET LAST PC STORED AND CHECK TO SEE
 50186	067024	302 00 0 00 067010 		CAIE	%X		;IF ITS WHERE WE REALLY SHOULD BE
 50187						STOP2^^
 50188	067025	254 04 0 00 067026 		HALT	.+1		;HALT IF WE SHOULDN'T BE HERE
 50189	067026	254 00 0 00 067027 		JRST	.+1		;WILD TRANSFER CAUSED THIS HALT.^
 50190					^
 50191			000004			X=X_1
 50192
 50193
 50194						XUUOA	X^
 50195
 50196					;CHECK THE "E" OF THE UUO STORED IS CORRECT.
 50197
 50198			000004			EFIELD==X		;"E" WE ARE TESTING FOR
 50199						TSET^
 50200			067027			%X=.			;DEFINE %X TO SAVE
 50201	067027	201 00 0 00 067027 		MOVEI	%X		;SAVE THIS PC IN CASE OF WILD TRANSFER
 50202	067030	202 00 0 00 071350 		MOVEM	TNUMB#		;BECAUSE OF PC MOD OR INTERRUPT^
 50203	067031	200 00 0 00 071273 	..0231:	MOVE	[JRST	.+4]	;SET A TRAP INSTRUCTION
 50204	067032	202 00 0 00 000041 		MOVEM	41		;INTO 41
 50205	067033	001000	000004			1B8!X			;EXECUTE A UUO
 50206	067034	254 04 0 00 067035 	..0232:	HALT	.+1		;UUO DIDN'T TRAP TO 40
 50207	067035	200 00 0 00 000040 		MOVE	0,40		;GET UUO
 50208	067036	405 00 0 00 777777 		ANDI	0,-1		;MASK OUT UUO FOR MA BITS
 50209	067037	302 00 0 00 000004 		CAIE	X		;MA BITS CORRECT?
 50210	067040				..0233:	STOP1^
 50211	067040	254 04 0 00 067041 		HALT	.+1		;UUO FAILED TO STORE MA BITS
 50212	067041	254 00 0 00 067042 		JRST	.+1		;INTO RIGHT HALF OF 40^
 50213						TGET^
 50214	067042	200 00 0 00 071350 		MOVE	TNUMB		;GET LAST PC STORED AND CHECK TO SEE
 50215	067043	302 00 0 00 067027 		CAIE	%X		;IF ITS WHERE WE REALLY SHOULD BE
 50216						STOP2^^
 50217	067044	254 04 0 00 067045 		HALT	.+1		;HALT IF WE SHOULDN'T BE HERE
 50218	067045	254 00 0 00 067046 		JRST	.+1		;WILD TRANSFER CAUSED THIS HALT.^
 50219					^
 50220			000010			X=X_1
 50221
 50222
 50223						XUUOA	X^
 50224
 50225					;CHECK THE "E" OF THE UUO STORED IS CORRECT.
 50226
 50227			000010			EFIELD==X		;"E" WE ARE TESTING FOR
 50228						TSET^
 50229			067046			%X=.			;DEFINE %X TO SAVE
 50230	067046	201 00 0 00 067046 		MOVEI	%X		;SAVE THIS PC IN CASE OF WILD TRANSFER
 50231	067047	202 00 0 00 071350 		MOVEM	TNUMB#		;BECAUSE OF PC MOD OR INTERRUPT^
 50232	067050	200 00 0 00 071274 	..0234:	MOVE	[JRST	.+4]	;SET A TRAP INSTRUCTION
DFKAA PDP-10 KL10 BASIC INSTRUCTION DIAGNOSTIC (1) VER 0,2	MACRO %53B(1254)-4 11:50 11-Nov-24 Page 76-2
DFKAA8	MAC	13-Jan-89 10:22		TEST UUO STORING CORRECTLY

 50233	067051	202 00 0 00 000041 		MOVEM	41		;INTO 41
 50234	067052	001000	000010			1B8!X			;EXECUTE A UUO
 50235	067053	254 04 0 00 067054 	..0235:	HALT	.+1		;UUO DIDN'T TRAP TO 40
 50236	067054	200 00 0 00 000040 		MOVE	0,40		;GET UUO
 50237	067055	405 00 0 00 777777 		ANDI	0,-1		;MASK OUT UUO FOR MA BITS
 50238	067056	302 00 0 00 000010 		CAIE	X		;MA BITS CORRECT?
 50239	067057				..0236:	STOP1^
 50240	067057	254 04 0 00 067060 		HALT	.+1		;UUO FAILED TO STORE MA BITS
 50241	067060	254 00 0 00 067061 		JRST	.+1		;INTO RIGHT HALF OF 40^
 50242						TGET^
 50243	067061	200 00 0 00 071350 		MOVE	TNUMB		;GET LAST PC STORED AND CHECK TO SEE
 50244	067062	302 00 0 00 067046 		CAIE	%X		;IF ITS WHERE WE REALLY SHOULD BE
 50245						STOP2^^
 50246	067063	254 04 0 00 067064 		HALT	.+1		;HALT IF WE SHOULDN'T BE HERE
 50247	067064	254 00 0 00 067065 		JRST	.+1		;WILD TRANSFER CAUSED THIS HALT.^
 50248					^
 50249			000020			X=X_1
 50250
 50251
 50252						XUUOA	X^
 50253
 50254					;CHECK THE "E" OF THE UUO STORED IS CORRECT.
 50255
 50256			000020			EFIELD==X		;"E" WE ARE TESTING FOR
 50257						TSET^
 50258			067065			%X=.			;DEFINE %X TO SAVE
 50259	067065	201 00 0 00 067065 		MOVEI	%X		;SAVE THIS PC IN CASE OF WILD TRANSFER
 50260	067066	202 00 0 00 071350 		MOVEM	TNUMB#		;BECAUSE OF PC MOD OR INTERRUPT^
 50261	067067	200 00 0 00 071275 	..0237:	MOVE	[JRST	.+4]	;SET A TRAP INSTRUCTION
 50262	067070	202 00 0 00 000041 		MOVEM	41		;INTO 41
 50263	067071	001000	000020			1B8!X			;EXECUTE A UUO
 50264	067072	254 04 0 00 067073 	..0240:	HALT	.+1		;UUO DIDN'T TRAP TO 40
 50265	067073	200 00 0 00 000040 		MOVE	0,40		;GET UUO
 50266	067074	405 00 0 00 777777 		ANDI	0,-1		;MASK OUT UUO FOR MA BITS
 50267	067075	302 00 0 00 000020 		CAIE	X		;MA BITS CORRECT?
 50268	067076				..0241:	STOP1^
 50269	067076	254 04 0 00 067077 		HALT	.+1		;UUO FAILED TO STORE MA BITS
 50270	067077	254 00 0 00 067100 		JRST	.+1		;INTO RIGHT HALF OF 40^
 50271						TGET^
 50272	067100	200 00 0 00 071350 		MOVE	TNUMB		;GET LAST PC STORED AND CHECK TO SEE
 50273	067101	302 00 0 00 067065 		CAIE	%X		;IF ITS WHERE WE REALLY SHOULD BE
 50274						STOP2^^
 50275	067102	254 04 0 00 067103 		HALT	.+1		;HALT IF WE SHOULDN'T BE HERE
 50276	067103	254 00 0 00 067104 		JRST	.+1		;WILD TRANSFER CAUSED THIS HALT.^
 50277					^
 50278			000040			X=X_1
 50279
 50280
 50281						XUUOA	X^
 50282
 50283					;CHECK THE "E" OF THE UUO STORED IS CORRECT.
 50284
 50285			000040			EFIELD==X		;"E" WE ARE TESTING FOR
 50286						TSET^
 50287			067104			%X=.			;DEFINE %X TO SAVE
DFKAA PDP-10 KL10 BASIC INSTRUCTION DIAGNOSTIC (1) VER 0,2	MACRO %53B(1254)-4 11:50 11-Nov-24 Page 76-3
DFKAA8	MAC	13-Jan-89 10:22		TEST UUO STORING CORRECTLY

 50288	067104	201 00 0 00 067104 		MOVEI	%X		;SAVE THIS PC IN CASE OF WILD TRANSFER
 50289	067105	202 00 0 00 071350 		MOVEM	TNUMB#		;BECAUSE OF PC MOD OR INTERRUPT^
 50290	067106	200 00 0 00 071276 	..0242:	MOVE	[JRST	.+4]	;SET A TRAP INSTRUCTION
 50291	067107	202 00 0 00 000041 		MOVEM	41		;INTO 41
 50292	067110	001000	000040			1B8!X			;EXECUTE A UUO
 50293	067111	254 04 0 00 067112 	..0243:	HALT	.+1		;UUO DIDN'T TRAP TO 40
 50294	067112	200 00 0 00 000040 		MOVE	0,40		;GET UUO
 50295	067113	405 00 0 00 777777 		ANDI	0,-1		;MASK OUT UUO FOR MA BITS
 50296	067114	302 00 0 00 000040 		CAIE	X		;MA BITS CORRECT?
 50297	067115				..0244:	STOP1^
 50298	067115	254 04 0 00 067116 		HALT	.+1		;UUO FAILED TO STORE MA BITS
 50299	067116	254 00 0 00 067117 		JRST	.+1		;INTO RIGHT HALF OF 40^
 50300						TGET^
 50301	067117	200 00 0 00 071350 		MOVE	TNUMB		;GET LAST PC STORED AND CHECK TO SEE
 50302	067120	302 00 0 00 067104 		CAIE	%X		;IF ITS WHERE WE REALLY SHOULD BE
 50303						STOP2^^
 50304	067121	254 04 0 00 067122 		HALT	.+1		;HALT IF WE SHOULDN'T BE HERE
 50305	067122	254 00 0 00 067123 		JRST	.+1		;WILD TRANSFER CAUSED THIS HALT.^
 50306					^
 50307			000100			X=X_1
 50308
 50309
 50310						XUUOA	X^
 50311
 50312					;CHECK THE "E" OF THE UUO STORED IS CORRECT.
 50313
 50314			000100			EFIELD==X		;"E" WE ARE TESTING FOR
 50315						TSET^
 50316			067123			%X=.			;DEFINE %X TO SAVE
 50317	067123	201 00 0 00 067123 		MOVEI	%X		;SAVE THIS PC IN CASE OF WILD TRANSFER
 50318	067124	202 00 0 00 071350 		MOVEM	TNUMB#		;BECAUSE OF PC MOD OR INTERRUPT^
 50319	067125	200 00 0 00 071277 	..0245:	MOVE	[JRST	.+4]	;SET A TRAP INSTRUCTION
 50320	067126	202 00 0 00 000041 		MOVEM	41		;INTO 41
 50321	067127	001000	000100			1B8!X			;EXECUTE A UUO
 50322	067130	254 04 0 00 067131 	..0246:	HALT	.+1		;UUO DIDN'T TRAP TO 40
 50323	067131	200 00 0 00 000040 		MOVE	0,40		;GET UUO
 50324	067132	405 00 0 00 777777 		ANDI	0,-1		;MASK OUT UUO FOR MA BITS
 50325	067133	302 00 0 00 000100 		CAIE	X		;MA BITS CORRECT?
 50326	067134				..0247:	STOP1^
 50327	067134	254 04 0 00 067135 		HALT	.+1		;UUO FAILED TO STORE MA BITS
 50328	067135	254 00 0 00 067136 		JRST	.+1		;INTO RIGHT HALF OF 40^
 50329						TGET^
 50330	067136	200 00 0 00 071350 		MOVE	TNUMB		;GET LAST PC STORED AND CHECK TO SEE
 50331	067137	302 00 0 00 067123 		CAIE	%X		;IF ITS WHERE WE REALLY SHOULD BE
 50332						STOP2^^
 50333	067140	254 04 0 00 067141 		HALT	.+1		;HALT IF WE SHOULDN'T BE HERE
 50334	067141	254 00 0 00 067142 		JRST	.+1		;WILD TRANSFER CAUSED THIS HALT.^
 50335					^
 50336			000200			X=X_1
 50337
 50338
 50339						XUUOA	X^
 50340
 50341					;CHECK THE "E" OF THE UUO STORED IS CORRECT.
 50342
DFKAA PDP-10 KL10 BASIC INSTRUCTION DIAGNOSTIC (1) VER 0,2	MACRO %53B(1254)-4 11:50 11-Nov-24 Page 76-4
DFKAA8	MAC	13-Jan-89 10:22		TEST UUO STORING CORRECTLY

 50343			000200			EFIELD==X		;"E" WE ARE TESTING FOR
 50344						TSET^
 50345			067142			%X=.			;DEFINE %X TO SAVE
 50346	067142	201 00 0 00 067142 		MOVEI	%X		;SAVE THIS PC IN CASE OF WILD TRANSFER
 50347	067143	202 00 0 00 071350 		MOVEM	TNUMB#		;BECAUSE OF PC MOD OR INTERRUPT^
 50348	067144	200 00 0 00 071300 	..0250:	MOVE	[JRST	.+4]	;SET A TRAP INSTRUCTION
 50349	067145	202 00 0 00 000041 		MOVEM	41		;INTO 41
 50350	067146	001000	000200			1B8!X			;EXECUTE A UUO
 50351	067147	254 04 0 00 067150 	..0251:	HALT	.+1		;UUO DIDN'T TRAP TO 40
 50352	067150	200 00 0 00 000040 		MOVE	0,40		;GET UUO
 50353	067151	405 00 0 00 777777 		ANDI	0,-1		;MASK OUT UUO FOR MA BITS
 50354	067152	302 00 0 00 000200 		CAIE	X		;MA BITS CORRECT?
 50355	067153				..0252:	STOP1^
 50356	067153	254 04 0 00 067154 		HALT	.+1		;UUO FAILED TO STORE MA BITS
 50357	067154	254 00 0 00 067155 		JRST	.+1		;INTO RIGHT HALF OF 40^
 50358						TGET^
 50359	067155	200 00 0 00 071350 		MOVE	TNUMB		;GET LAST PC STORED AND CHECK TO SEE
 50360	067156	302 00 0 00 067142 		CAIE	%X		;IF ITS WHERE WE REALLY SHOULD BE
 50361						STOP2^^
 50362	067157	254 04 0 00 067160 		HALT	.+1		;HALT IF WE SHOULDN'T BE HERE
 50363	067160	254 00 0 00 067161 		JRST	.+1		;WILD TRANSFER CAUSED THIS HALT.^
 50364					^
 50365			000400			X=X_1
 50366
 50367
 50368						XUUOA	X^
 50369
 50370					;CHECK THE "E" OF THE UUO STORED IS CORRECT.
 50371
 50372			000400			EFIELD==X		;"E" WE ARE TESTING FOR
 50373						TSET^
 50374			067161			%X=.			;DEFINE %X TO SAVE
 50375	067161	201 00 0 00 067161 		MOVEI	%X		;SAVE THIS PC IN CASE OF WILD TRANSFER
 50376	067162	202 00 0 00 071350 		MOVEM	TNUMB#		;BECAUSE OF PC MOD OR INTERRUPT^
 50377	067163	200 00 0 00 071301 	..0253:	MOVE	[JRST	.+4]	;SET A TRAP INSTRUCTION
 50378	067164	202 00 0 00 000041 		MOVEM	41		;INTO 41
 50379	067165	001000	000400			1B8!X			;EXECUTE A UUO
 50380	067166	254 04 0 00 067167 	..0254:	HALT	.+1		;UUO DIDN'T TRAP TO 40
 50381	067167	200 00 0 00 000040 		MOVE	0,40		;GET UUO
 50382	067170	405 00 0 00 777777 		ANDI	0,-1		;MASK OUT UUO FOR MA BITS
 50383	067171	302 00 0 00 000400 		CAIE	X		;MA BITS CORRECT?
 50384	067172				..0255:	STOP1^
 50385	067172	254 04 0 00 067173 		HALT	.+1		;UUO FAILED TO STORE MA BITS
 50386	067173	254 00 0 00 067174 		JRST	.+1		;INTO RIGHT HALF OF 40^
 50387						TGET^
 50388	067174	200 00 0 00 071350 		MOVE	TNUMB		;GET LAST PC STORED AND CHECK TO SEE
 50389	067175	302 00 0 00 067161 		CAIE	%X		;IF ITS WHERE WE REALLY SHOULD BE
 50390						STOP2^^
 50391	067176	254 04 0 00 067177 		HALT	.+1		;HALT IF WE SHOULDN'T BE HERE
 50392	067177	254 00 0 00 067200 		JRST	.+1		;WILD TRANSFER CAUSED THIS HALT.^
 50393					^
 50394			001000			X=X_1
 50395
 50396
 50397						XUUOA	X^
DFKAA PDP-10 KL10 BASIC INSTRUCTION DIAGNOSTIC (1) VER 0,2	MACRO %53B(1254)-4 11:50 11-Nov-24 Page 76-5
DFKAA8	MAC	13-Jan-89 10:22		TEST UUO STORING CORRECTLY

 50398
 50399					;CHECK THE "E" OF THE UUO STORED IS CORRECT.
 50400
 50401			001000			EFIELD==X		;"E" WE ARE TESTING FOR
 50402						TSET^
 50403			067200			%X=.			;DEFINE %X TO SAVE
 50404	067200	201 00 0 00 067200 		MOVEI	%X		;SAVE THIS PC IN CASE OF WILD TRANSFER
 50405	067201	202 00 0 00 071350 		MOVEM	TNUMB#		;BECAUSE OF PC MOD OR INTERRUPT^
 50406	067202	200 00 0 00 071302 	..0256:	MOVE	[JRST	.+4]	;SET A TRAP INSTRUCTION
 50407	067203	202 00 0 00 000041 		MOVEM	41		;INTO 41
 50408	067204	001000	001000			1B8!X			;EXECUTE A UUO
 50409	067205	254 04 0 00 067206 	..0257:	HALT	.+1		;UUO DIDN'T TRAP TO 40
 50410	067206	200 00 0 00 000040 		MOVE	0,40		;GET UUO
 50411	067207	405 00 0 00 777777 		ANDI	0,-1		;MASK OUT UUO FOR MA BITS
 50412	067210	302 00 0 00 001000 		CAIE	X		;MA BITS CORRECT?
 50413	067211				..0260:	STOP1^
 50414	067211	254 04 0 00 067212 		HALT	.+1		;UUO FAILED TO STORE MA BITS
 50415	067212	254 00 0 00 067213 		JRST	.+1		;INTO RIGHT HALF OF 40^
 50416						TGET^
 50417	067213	200 00 0 00 071350 		MOVE	TNUMB		;GET LAST PC STORED AND CHECK TO SEE
 50418	067214	302 00 0 00 067200 		CAIE	%X		;IF ITS WHERE WE REALLY SHOULD BE
 50419						STOP2^^
 50420	067215	254 04 0 00 067216 		HALT	.+1		;HALT IF WE SHOULDN'T BE HERE
 50421	067216	254 00 0 00 067217 		JRST	.+1		;WILD TRANSFER CAUSED THIS HALT.^
 50422					^
 50423			002000			X=X_1
 50424
 50425
 50426						XUUOA	X^
 50427
 50428					;CHECK THE "E" OF THE UUO STORED IS CORRECT.
 50429
 50430			002000			EFIELD==X		;"E" WE ARE TESTING FOR
 50431						TSET^
 50432			067217			%X=.			;DEFINE %X TO SAVE
 50433	067217	201 00 0 00 067217 		MOVEI	%X		;SAVE THIS PC IN CASE OF WILD TRANSFER
 50434	067220	202 00 0 00 071350 		MOVEM	TNUMB#		;BECAUSE OF PC MOD OR INTERRUPT^
 50435	067221	200 00 0 00 071303 	..0261:	MOVE	[JRST	.+4]	;SET A TRAP INSTRUCTION
 50436	067222	202 00 0 00 000041 		MOVEM	41		;INTO 41
 50437	067223	001000	002000			1B8!X			;EXECUTE A UUO
 50438	067224	254 04 0 00 067225 	..0262:	HALT	.+1		;UUO DIDN'T TRAP TO 40
 50439	067225	200 00 0 00 000040 		MOVE	0,40		;GET UUO
 50440	067226	405 00 0 00 777777 		ANDI	0,-1		;MASK OUT UUO FOR MA BITS
 50441	067227	302 00 0 00 002000 		CAIE	X		;MA BITS CORRECT?
 50442	067230				..0263:	STOP1^
 50443	067230	254 04 0 00 067231 		HALT	.+1		;UUO FAILED TO STORE MA BITS
 50444	067231	254 00 0 00 067232 		JRST	.+1		;INTO RIGHT HALF OF 40^
 50445						TGET^
 50446	067232	200 00 0 00 071350 		MOVE	TNUMB		;GET LAST PC STORED AND CHECK TO SEE
 50447	067233	302 00 0 00 067217 		CAIE	%X		;IF ITS WHERE WE REALLY SHOULD BE
 50448						STOP2^^
 50449	067234	254 04 0 00 067235 		HALT	.+1		;HALT IF WE SHOULDN'T BE HERE
 50450	067235	254 00 0 00 067236 		JRST	.+1		;WILD TRANSFER CAUSED THIS HALT.^
 50451					^
 50452			004000			X=X_1
DFKAA PDP-10 KL10 BASIC INSTRUCTION DIAGNOSTIC (1) VER 0,2	MACRO %53B(1254)-4 11:50 11-Nov-24 Page 76-6
DFKAA8	MAC	13-Jan-89 10:22		TEST UUO STORING CORRECTLY

 50453
 50454
 50455						XUUOA	X^
 50456
 50457					;CHECK THE "E" OF THE UUO STORED IS CORRECT.
 50458
 50459			004000			EFIELD==X		;"E" WE ARE TESTING FOR
 50460						TSET^
 50461			067236			%X=.			;DEFINE %X TO SAVE
 50462	067236	201 00 0 00 067236 		MOVEI	%X		;SAVE THIS PC IN CASE OF WILD TRANSFER
 50463	067237	202 00 0 00 071350 		MOVEM	TNUMB#		;BECAUSE OF PC MOD OR INTERRUPT^
 50464	067240	200 00 0 00 071304 	..0264:	MOVE	[JRST	.+4]	;SET A TRAP INSTRUCTION
 50465	067241	202 00 0 00 000041 		MOVEM	41		;INTO 41
 50466	067242	001000	004000			1B8!X			;EXECUTE A UUO
 50467	067243	254 04 0 00 067244 	..0265:	HALT	.+1		;UUO DIDN'T TRAP TO 40
 50468	067244	200 00 0 00 000040 		MOVE	0,40		;GET UUO
 50469	067245	405 00 0 00 777777 		ANDI	0,-1		;MASK OUT UUO FOR MA BITS
 50470	067246	302 00 0 00 004000 		CAIE	X		;MA BITS CORRECT?
 50471	067247				..0266:	STOP1^
 50472	067247	254 04 0 00 067250 		HALT	.+1		;UUO FAILED TO STORE MA BITS
 50473	067250	254 00 0 00 067251 		JRST	.+1		;INTO RIGHT HALF OF 40^
 50474						TGET^
 50475	067251	200 00 0 00 071350 		MOVE	TNUMB		;GET LAST PC STORED AND CHECK TO SEE
 50476	067252	302 00 0 00 067236 		CAIE	%X		;IF ITS WHERE WE REALLY SHOULD BE
 50477						STOP2^^
 50478	067253	254 04 0 00 067254 		HALT	.+1		;HALT IF WE SHOULDN'T BE HERE
 50479	067254	254 00 0 00 067255 		JRST	.+1		;WILD TRANSFER CAUSED THIS HALT.^
 50480					^
 50481			010000			X=X_1
 50482
 50483
 50484						XUUOA	X^
 50485
 50486					;CHECK THE "E" OF THE UUO STORED IS CORRECT.
 50487
 50488			010000			EFIELD==X		;"E" WE ARE TESTING FOR
 50489						TSET^
 50490			067255			%X=.			;DEFINE %X TO SAVE
 50491	067255	201 00 0 00 067255 		MOVEI	%X		;SAVE THIS PC IN CASE OF WILD TRANSFER
 50492	067256	202 00 0 00 071350 		MOVEM	TNUMB#		;BECAUSE OF PC MOD OR INTERRUPT^
 50493	067257	200 00 0 00 071305 	..0267:	MOVE	[JRST	.+4]	;SET A TRAP INSTRUCTION
 50494	067260	202 00 0 00 000041 		MOVEM	41		;INTO 41
 50495	067261	001000	010000			1B8!X			;EXECUTE A UUO
 50496	067262	254 04 0 00 067263 	..0270:	HALT	.+1		;UUO DIDN'T TRAP TO 40
 50497	067263	200 00 0 00 000040 		MOVE	0,40		;GET UUO
 50498	067264	405 00 0 00 777777 		ANDI	0,-1		;MASK OUT UUO FOR MA BITS
 50499	067265	302 00 0 00 010000 		CAIE	X		;MA BITS CORRECT?
 50500	067266				..0271:	STOP1^
 50501	067266	254 04 0 00 067267 		HALT	.+1		;UUO FAILED TO STORE MA BITS
 50502	067267	254 00 0 00 067270 		JRST	.+1		;INTO RIGHT HALF OF 40^
 50503						TGET^
 50504	067270	200 00 0 00 071350 		MOVE	TNUMB		;GET LAST PC STORED AND CHECK TO SEE
 50505	067271	302 00 0 00 067255 		CAIE	%X		;IF ITS WHERE WE REALLY SHOULD BE
 50506						STOP2^^
 50507	067272	254 04 0 00 067273 		HALT	.+1		;HALT IF WE SHOULDN'T BE HERE
DFKAA PDP-10 KL10 BASIC INSTRUCTION DIAGNOSTIC (1) VER 0,2	MACRO %53B(1254)-4 11:50 11-Nov-24 Page 76-7
DFKAA8	MAC	13-Jan-89 10:22		TEST UUO STORING CORRECTLY

 50508	067273	254 00 0 00 067274 		JRST	.+1		;WILD TRANSFER CAUSED THIS HALT.^
 50509					^
 50510			020000			X=X_1
 50511
 50512
 50513						XUUOA	X^
 50514
 50515					;CHECK THE "E" OF THE UUO STORED IS CORRECT.
 50516
 50517			020000			EFIELD==X		;"E" WE ARE TESTING FOR
 50518						TSET^
 50519			067274			%X=.			;DEFINE %X TO SAVE
 50520	067274	201 00 0 00 067274 		MOVEI	%X		;SAVE THIS PC IN CASE OF WILD TRANSFER
 50521	067275	202 00 0 00 071350 		MOVEM	TNUMB#		;BECAUSE OF PC MOD OR INTERRUPT^
 50522	067276	200 00 0 00 071306 	..0272:	MOVE	[JRST	.+4]	;SET A TRAP INSTRUCTION
 50523	067277	202 00 0 00 000041 		MOVEM	41		;INTO 41
 50524	067300	001000	020000			1B8!X			;EXECUTE A UUO
 50525	067301	254 04 0 00 067302 	..0273:	HALT	.+1		;UUO DIDN'T TRAP TO 40
 50526	067302	200 00 0 00 000040 		MOVE	0,40		;GET UUO
 50527	067303	405 00 0 00 777777 		ANDI	0,-1		;MASK OUT UUO FOR MA BITS
 50528	067304	302 00 0 00 020000 		CAIE	X		;MA BITS CORRECT?
 50529	067305				..0274:	STOP1^
 50530	067305	254 04 0 00 067306 		HALT	.+1		;UUO FAILED TO STORE MA BITS
 50531	067306	254 00 0 00 067307 		JRST	.+1		;INTO RIGHT HALF OF 40^
 50532						TGET^
 50533	067307	200 00 0 00 071350 		MOVE	TNUMB		;GET LAST PC STORED AND CHECK TO SEE
 50534	067310	302 00 0 00 067274 		CAIE	%X		;IF ITS WHERE WE REALLY SHOULD BE
 50535						STOP2^^
 50536	067311	254 04 0 00 067312 		HALT	.+1		;HALT IF WE SHOULDN'T BE HERE
 50537	067312	254 00 0 00 067313 		JRST	.+1		;WILD TRANSFER CAUSED THIS HALT.^
 50538					^
 50539			040000			X=X_1
 50540
 50541
 50542						XUUOA	X^
 50543
 50544					;CHECK THE "E" OF THE UUO STORED IS CORRECT.
 50545
 50546			040000			EFIELD==X		;"E" WE ARE TESTING FOR
 50547						TSET^
 50548			067313			%X=.			;DEFINE %X TO SAVE
 50549	067313	201 00 0 00 067313 		MOVEI	%X		;SAVE THIS PC IN CASE OF WILD TRANSFER
 50550	067314	202 00 0 00 071350 		MOVEM	TNUMB#		;BECAUSE OF PC MOD OR INTERRUPT^
 50551	067315	200 00 0 00 071307 	..0275:	MOVE	[JRST	.+4]	;SET A TRAP INSTRUCTION
 50552	067316	202 00 0 00 000041 		MOVEM	41		;INTO 41
 50553	067317	001000	040000			1B8!X			;EXECUTE A UUO
 50554	067320	254 04 0 00 067321 	..0276:	HALT	.+1		;UUO DIDN'T TRAP TO 40
 50555	067321	200 00 0 00 000040 		MOVE	0,40		;GET UUO
 50556	067322	405 00 0 00 777777 		ANDI	0,-1		;MASK OUT UUO FOR MA BITS
 50557	067323	302 00 0 00 040000 		CAIE	X		;MA BITS CORRECT?
 50558	067324				..0277:	STOP1^
 50559	067324	254 04 0 00 067325 		HALT	.+1		;UUO FAILED TO STORE MA BITS
 50560	067325	254 00 0 00 067326 		JRST	.+1		;INTO RIGHT HALF OF 40^
 50561						TGET^
 50562	067326	200 00 0 00 071350 		MOVE	TNUMB		;GET LAST PC STORED AND CHECK TO SEE
DFKAA PDP-10 KL10 BASIC INSTRUCTION DIAGNOSTIC (1) VER 0,2	MACRO %53B(1254)-4 11:50 11-Nov-24 Page 76-8
DFKAA8	MAC	13-Jan-89 10:22		TEST UUO STORING CORRECTLY

 50563	067327	302 00 0 00 067313 		CAIE	%X		;IF ITS WHERE WE REALLY SHOULD BE
 50564						STOP2^^
 50565	067330	254 04 0 00 067331 		HALT	.+1		;HALT IF WE SHOULDN'T BE HERE
 50566	067331	254 00 0 00 067332 		JRST	.+1		;WILD TRANSFER CAUSED THIS HALT.^
 50567					^
 50568			100000			X=X_1
 50569
 50570
 50571						XUUOA	X^
 50572
 50573					;CHECK THE "E" OF THE UUO STORED IS CORRECT.
 50574
 50575			100000			EFIELD==X		;"E" WE ARE TESTING FOR
 50576						TSET^
 50577			067332			%X=.			;DEFINE %X TO SAVE
 50578	067332	201 00 0 00 067332 		MOVEI	%X		;SAVE THIS PC IN CASE OF WILD TRANSFER
 50579	067333	202 00 0 00 071350 		MOVEM	TNUMB#		;BECAUSE OF PC MOD OR INTERRUPT^
 50580	067334	200 00 0 00 071310 	..0300:	MOVE	[JRST	.+4]	;SET A TRAP INSTRUCTION
 50581	067335	202 00 0 00 000041 		MOVEM	41		;INTO 41
 50582	067336	001000	100000			1B8!X			;EXECUTE A UUO
 50583	067337	254 04 0 00 067340 	..0301:	HALT	.+1		;UUO DIDN'T TRAP TO 40
 50584	067340	200 00 0 00 000040 		MOVE	0,40		;GET UUO
 50585	067341	405 00 0 00 777777 		ANDI	0,-1		;MASK OUT UUO FOR MA BITS
 50586	067342	302 00 0 00 100000 		CAIE	X		;MA BITS CORRECT?
 50587	067343				..0302:	STOP1^
 50588	067343	254 04 0 00 067344 		HALT	.+1		;UUO FAILED TO STORE MA BITS
 50589	067344	254 00 0 00 067345 		JRST	.+1		;INTO RIGHT HALF OF 40^
 50590						TGET^
 50591	067345	200 00 0 00 071350 		MOVE	TNUMB		;GET LAST PC STORED AND CHECK TO SEE
 50592	067346	302 00 0 00 067332 		CAIE	%X		;IF ITS WHERE WE REALLY SHOULD BE
 50593						STOP2^^
 50594	067347	254 04 0 00 067350 		HALT	.+1		;HALT IF WE SHOULDN'T BE HERE
 50595	067350	254 00 0 00 067351 		JRST	.+1		;WILD TRANSFER CAUSED THIS HALT.^
 50596					^
 50597			200000			X=X_1
 50598
 50599
 50600						XUUOA	X^
 50601
 50602					;CHECK THE "E" OF THE UUO STORED IS CORRECT.
 50603
 50604			200000			EFIELD==X		;"E" WE ARE TESTING FOR
 50605						TSET^
 50606			067351			%X=.			;DEFINE %X TO SAVE
 50607	067351	201 00 0 00 067351 		MOVEI	%X		;SAVE THIS PC IN CASE OF WILD TRANSFER
 50608	067352	202 00 0 00 071350 		MOVEM	TNUMB#		;BECAUSE OF PC MOD OR INTERRUPT^
 50609	067353	200 00 0 00 071311 	..0303:	MOVE	[JRST	.+4]	;SET A TRAP INSTRUCTION
 50610	067354	202 00 0 00 000041 		MOVEM	41		;INTO 41
 50611	067355	001000	200000			1B8!X			;EXECUTE A UUO
 50612	067356	254 04 0 00 067357 	..0304:	HALT	.+1		;UUO DIDN'T TRAP TO 40
 50613	067357	200 00 0 00 000040 		MOVE	0,40		;GET UUO
 50614	067360	405 00 0 00 777777 		ANDI	0,-1		;MASK OUT UUO FOR MA BITS
 50615	067361	302 00 0 00 200000 		CAIE	X		;MA BITS CORRECT?
 50616	067362				..0305:	STOP1^
 50617	067362	254 04 0 00 067363 		HALT	.+1		;UUO FAILED TO STORE MA BITS
DFKAA PDP-10 KL10 BASIC INSTRUCTION DIAGNOSTIC (1) VER 0,2	MACRO %53B(1254)-4 11:50 11-Nov-24 Page 76-9
DFKAA8	MAC	13-Jan-89 10:22		TEST UUO STORING CORRECTLY

 50618	067363	254 00 0 00 067364 		JRST	.+1		;INTO RIGHT HALF OF 40^
 50619						TGET^
 50620	067364	200 00 0 00 071350 		MOVE	TNUMB		;GET LAST PC STORED AND CHECK TO SEE
 50621	067365	302 00 0 00 067351 		CAIE	%X		;IF ITS WHERE WE REALLY SHOULD BE
 50622						STOP2^^
 50623	067366	254 04 0 00 067367 		HALT	.+1		;HALT IF WE SHOULDN'T BE HERE
 50624	067367	254 00 0 00 067370 		JRST	.+1		;WILD TRANSFER CAUSED THIS HALT.^
 50625					^
 50626			400000			X=X_1
 50627
 50628
 50629						XUUOA	X^
 50630
 50631					;CHECK THE "E" OF THE UUO STORED IS CORRECT.
 50632
 50633			400000			EFIELD==X		;"E" WE ARE TESTING FOR
 50634						TSET^
 50635			067370			%X=.			;DEFINE %X TO SAVE
 50636	067370	201 00 0 00 067370 		MOVEI	%X		;SAVE THIS PC IN CASE OF WILD TRANSFER
 50637	067371	202 00 0 00 071350 		MOVEM	TNUMB#		;BECAUSE OF PC MOD OR INTERRUPT^
 50638	067372	200 00 0 00 071312 	..0306:	MOVE	[JRST	.+4]	;SET A TRAP INSTRUCTION
 50639	067373	202 00 0 00 000041 		MOVEM	41		;INTO 41
 50640	067374	001000	400000			1B8!X			;EXECUTE A UUO
 50641	067375	254 04 0 00 067376 	..0307:	HALT	.+1		;UUO DIDN'T TRAP TO 40
 50642	067376	200 00 0 00 000040 		MOVE	0,40		;GET UUO
 50643	067377	405 00 0 00 777777 		ANDI	0,-1		;MASK OUT UUO FOR MA BITS
 50644	067400	302 00 0 00 400000 		CAIE	X		;MA BITS CORRECT?
 50645	067401				..0310:	STOP1^
 50646	067401	254 04 0 00 067402 		HALT	.+1		;UUO FAILED TO STORE MA BITS
 50647	067402	254 00 0 00 067403 		JRST	.+1		;INTO RIGHT HALF OF 40^
 50648						TGET^
 50649	067403	200 00 0 00 071350 		MOVE	TNUMB		;GET LAST PC STORED AND CHECK TO SEE
 50650	067404	302 00 0 00 067370 		CAIE	%X		;IF ITS WHERE WE REALLY SHOULD BE
 50651						STOP2^^
 50652	067405	254 04 0 00 067406 		HALT	.+1		;HALT IF WE SHOULDN'T BE HERE
 50653	067406	254 00 0 00 067407 		JRST	.+1		;WILD TRANSFER CAUSED THIS HALT.^
 50654					^
 50655		000001	000000			X=X_1
 50656
 50657			777777			X=777777
 50658						XUUOA	X^
 50659
 50660					;CHECK THE "E" OF THE UUO STORED IS CORRECT.
 50661
 50662			777777			EFIELD==X		;"E" WE ARE TESTING FOR
 50663						TSET^
 50664			067407			%X=.			;DEFINE %X TO SAVE
 50665	067407	201 00 0 00 067407 		MOVEI	%X		;SAVE THIS PC IN CASE OF WILD TRANSFER
 50666	067410	202 00 0 00 071350 		MOVEM	TNUMB#		;BECAUSE OF PC MOD OR INTERRUPT^
 50667	067411	200 00 0 00 071313 	..0311:	MOVE	[JRST	.+4]	;SET A TRAP INSTRUCTION
 50668	067412	202 00 0 00 000041 		MOVEM	41		;INTO 41
 50669	067413	001000	777777			1B8!X			;EXECUTE A UUO
 50670	067414	254 04 0 00 067415 	..0312:	HALT	.+1		;UUO DIDN'T TRAP TO 40
 50671	067415	200 00 0 00 000040 		MOVE	0,40		;GET UUO
 50672	067416	405 00 0 00 777777 		ANDI	0,-1		;MASK OUT UUO FOR MA BITS
DFKAA PDP-10 KL10 BASIC INSTRUCTION DIAGNOSTIC (1) VER 0,2	MACRO %53B(1254)-4 11:50 11-Nov-24 Page 76-10
DFKAA8	MAC	13-Jan-89 10:22		TEST UUO STORING CORRECTLY

 50673	067417	302 00 0 00 777777 		CAIE	X		;MA BITS CORRECT?
 50674	067420				..0313:	STOP1^
 50675	067420	254 04 0 00 067421 		HALT	.+1		;UUO FAILED TO STORE MA BITS
 50676	067421	254 00 0 00 067422 		JRST	.+1		;INTO RIGHT HALF OF 40^
 50677						TGET^
 50678	067422	200 00 0 00 071350 		MOVE	TNUMB		;GET LAST PC STORED AND CHECK TO SEE
 50679	067423	302 00 0 00 067407 		CAIE	%X		;IF ITS WHERE WE REALLY SHOULD BE
 50680						STOP2^^
 50681	067424	254 04 0 00 067425 		HALT	.+1		;HALT IF WE SHOULDN'T BE HERE
 50682	067425	254 00 0 00 067426 		JRST	.+1		;WILD TRANSFER CAUSED THIS HALT.^
 50683					^
 50684
 50685			000000			X=0
 50686						XUUOA	X^
 50687
 50688					;CHECK THE "E" OF THE UUO STORED IS CORRECT.
 50689
 50690			000000			EFIELD==X		;"E" WE ARE TESTING FOR
 50691						TSET^
 50692			067426			%X=.			;DEFINE %X TO SAVE
 50693	067426	201 00 0 00 067426 		MOVEI	%X		;SAVE THIS PC IN CASE OF WILD TRANSFER
 50694	067427	202 00 0 00 071350 		MOVEM	TNUMB#		;BECAUSE OF PC MOD OR INTERRUPT^
 50695	067430	200 00 0 00 071314 	..0314:	MOVE	[JRST	.+4]	;SET A TRAP INSTRUCTION
 50696	067431	202 00 0 00 000041 		MOVEM	41		;INTO 41
 50697	067432	001000	000000			1B8!X			;EXECUTE A UUO
 50698	067433	254 04 0 00 067434 	..0315:	HALT	.+1		;UUO DIDN'T TRAP TO 40
 50699	067434	200 00 0 00 000040 		MOVE	0,40		;GET UUO
 50700	067435	405 00 0 00 777777 		ANDI	0,-1		;MASK OUT UUO FOR MA BITS
 50701	067436	302 00 0 00 000000 		CAIE	X		;MA BITS CORRECT?
 50702	067437				..0316:	STOP1^
 50703	067437	254 04 0 00 067440 		HALT	.+1		;UUO FAILED TO STORE MA BITS
 50704	067440	254 00 0 00 067441 		JRST	.+1		;INTO RIGHT HALF OF 40^
 50705						TGET^
 50706	067441	200 00 0 00 071350 		MOVE	TNUMB		;GET LAST PC STORED AND CHECK TO SEE
 50707	067442	302 00 0 00 067426 		CAIE	%X		;IF ITS WHERE WE REALLY SHOULD BE
 50708						STOP2^^
 50709	067443	254 04 0 00 067444 		HALT	.+1		;HALT IF WE SHOULDN'T BE HERE
 50710	067444	254 00 0 00 067445 		JRST	.+1		;WILD TRANSFER CAUSED THIS HALT.^
 50711					^
 50712
 50713			252525			X=252525
 50714						XUUOA	X^
 50715
 50716					;CHECK THE "E" OF THE UUO STORED IS CORRECT.
 50717
 50718			252525			EFIELD==X		;"E" WE ARE TESTING FOR
 50719						TSET^
 50720			067445			%X=.			;DEFINE %X TO SAVE
 50721	067445	201 00 0 00 067445 		MOVEI	%X		;SAVE THIS PC IN CASE OF WILD TRANSFER
 50722	067446	202 00 0 00 071350 		MOVEM	TNUMB#		;BECAUSE OF PC MOD OR INTERRUPT^
 50723	067447	200 00 0 00 071315 	..0317:	MOVE	[JRST	.+4]	;SET A TRAP INSTRUCTION
 50724	067450	202 00 0 00 000041 		MOVEM	41		;INTO 41
 50725	067451	001000	252525			1B8!X			;EXECUTE A UUO
 50726	067452	254 04 0 00 067453 	..0320:	HALT	.+1		;UUO DIDN'T TRAP TO 40
 50727	067453	200 00 0 00 000040 		MOVE	0,40		;GET UUO
DFKAA PDP-10 KL10 BASIC INSTRUCTION DIAGNOSTIC (1) VER 0,2	MACRO %53B(1254)-4 11:50 11-Nov-24 Page 76-11
DFKAA8	MAC	13-Jan-89 10:22		TEST UUO STORING CORRECTLY

 50728	067454	405 00 0 00 777777 		ANDI	0,-1		;MASK OUT UUO FOR MA BITS
 50729	067455	302 00 0 00 252525 		CAIE	X		;MA BITS CORRECT?
 50730	067456				..0321:	STOP1^
 50731	067456	254 04 0 00 067457 		HALT	.+1		;UUO FAILED TO STORE MA BITS
 50732	067457	254 00 0 00 067460 		JRST	.+1		;INTO RIGHT HALF OF 40^
 50733						TGET^
 50734	067460	200 00 0 00 071350 		MOVE	TNUMB		;GET LAST PC STORED AND CHECK TO SEE
 50735	067461	302 00 0 00 067445 		CAIE	%X		;IF ITS WHERE WE REALLY SHOULD BE
 50736						STOP2^^
 50737	067462	254 04 0 00 067463 		HALT	.+1		;HALT IF WE SHOULDN'T BE HERE
 50738	067463	254 00 0 00 067464 		JRST	.+1		;WILD TRANSFER CAUSED THIS HALT.^
 50739					^
 50740
 50741			525252			X=525252
 50742						XUUOA	X^
 50743
 50744					;CHECK THE "E" OF THE UUO STORED IS CORRECT.
 50745
 50746			525252			EFIELD==X		;"E" WE ARE TESTING FOR
 50747						TSET^
 50748			067464			%X=.			;DEFINE %X TO SAVE
 50749	067464	201 00 0 00 067464 		MOVEI	%X		;SAVE THIS PC IN CASE OF WILD TRANSFER
 50750	067465	202 00 0 00 071350 		MOVEM	TNUMB#		;BECAUSE OF PC MOD OR INTERRUPT^
 50751	067466	200 00 0 00 071316 	..0322:	MOVE	[JRST	.+4]	;SET A TRAP INSTRUCTION
 50752	067467	202 00 0 00 000041 		MOVEM	41		;INTO 41
 50753	067470	001000	525252			1B8!X			;EXECUTE A UUO
 50754	067471	254 04 0 00 067472 	..0323:	HALT	.+1		;UUO DIDN'T TRAP TO 40
 50755	067472	200 00 0 00 000040 		MOVE	0,40		;GET UUO
 50756	067473	405 00 0 00 777777 		ANDI	0,-1		;MASK OUT UUO FOR MA BITS
 50757	067474	302 00 0 00 525252 		CAIE	X		;MA BITS CORRECT?
 50758	067475				..0324:	STOP1^
 50759	067475	254 04 0 00 067476 		HALT	.+1		;UUO FAILED TO STORE MA BITS
 50760	067476	254 00 0 00 067477 		JRST	.+1		;INTO RIGHT HALF OF 40^
 50761						TGET^
 50762	067477	200 00 0 00 071350 		MOVE	TNUMB		;GET LAST PC STORED AND CHECK TO SEE
 50763	067500	302 00 0 00 067464 		CAIE	%X		;IF ITS WHERE WE REALLY SHOULD BE
 50764						STOP2^^
 50765	067501	254 04 0 00 067502 		HALT	.+1		;HALT IF WE SHOULDN'T BE HERE
 50766	067502	254 00 0 00 067503 		JRST	.+1		;WILD TRANSFER CAUSED THIS HALT.^
 50767					^
 50768			000000			X=0
 50769	067503	255 00 0 00 000000 		JFCL
DFKAA PDP-10 KL10 BASIC INSTRUCTION DIAGNOSTIC (1) VER 0,2	MACRO %53B(1254)-4 11:50 11-Nov-24 Page 77
DFKAA8	MAC	13-Jan-89 10:22		TEST CLEARING OF INDEX AND INDIRECT BITS ON UUO

 50770					SUBTTL	TEST CLEARING OF INDEX AND INDIRECT BITS ON UUO
 50771
 50772					;TEST THAT THE INDEX BITS ARE CLEARED WHEN EXECUTING A UUO
 50773
 50774	067504				UUOIND:	CLRBTH^
 50775	067504	700 04 0 00 267760 		CLRAPR
 50776	067505	700 14 0 00 031577 		CLRPI^
 50777	067506	400 17 0 00 000000 		SETZ	17,		;CLEAR INDEX FIELD
 50778	067507	200 00 0 00 071317 		MOVE	[JRST .+4]	;SET UP UUO TRAP INSTR.
 50779	067510	202 00 0 00 000041 		MOVEM	41		;INTO TRAP LOCATION
 50780	067511	001017	000000			1B8!(17)		;EXECUTE A UUO WITH INDEXING
 50781	067512	254 04 0 00 067513 		HALT	.+1		;UUO DID NOT TRAP
 50782	067513	200 00 0 00 000040 		MOVE	0,40		;GET UUO
 50783	067514	603 00 0 00 000017 		TLNE	0,17		;INDEX FIELD CLEAR?
 50784						STOP^
 50785	067515	254 04 0 00 067516 		HALT	.+1		;INSTRUCTION FAILED REPLACE
 50786	067516	254 00 0 00 067517 		JRST	.+1		;WITH JRST BACK^
 50787
 50788					;TEST THAT THE INDIRECT BIT IS CLEARED WHEN EXECUTING A UUO
 50789
 50790	067517				UUOINX:	CLRBTH^
 50791	067517	700 04 0 00 267760 		CLRAPR
 50792	067520	700 14 0 00 031577 		CLRPI^
 50793	067521	403 17 0 00 000000 		SETZB	17,0		;CLEAR INDEX FIELD
 50794	067522	200 00 0 00 071320 		MOVE	[JRST .+4]	;SET UUO TRAP INSTR.
 50795	067523	202 00 0 00 000041 		MOVEM	41		;INTO TRAP LOCATION
 50796	067524	001020	000017			1B8!@17			;EXECUTE A UUO WITH INDIRECTING
 50797	067525	254 04 0 00 067526 		HALT	.+1		;UUO DID NOT TRAP
 50798	067526	200 00 0 00 000040 		MOVE	0,40		;GET UUO
 50799	067527	603 00 0 00 000020 		TLNE	0,20		;INDIRECT BIT CLEAR?
 50800						STOP^
 50801	067530	254 04 0 00 067531 		HALT	.+1		;INSTRUCTION FAILED REPLACE
 50802	067531	254 00 0 00 067532 		JRST	.+1		;WITH JRST BACK^
 50803
 50804					;TEST THAT BOTH INDEX AND INDIRECT BITS CLEAR WHEN EXECUTING A UUO
 50805
 50806	067532				UUOBTH:	CLRBTH^
 50807	067532	700 04 0 00 267760 		CLRAPR
 50808	067533	700 14 0 00 031577 		CLRPI^
 50809	067534	403 17 0 00 000000 		SETZB	17,0		;CLEAR INDEX FIELD
 50810	067535	200 00 0 00 071321 		MOVE	[JRST .+4]	;SET UP TRAP INSTR.
 50811	067536	202 00 0 00 000041 		MOVEM	41		;INTO TRAP LOCATION
 50812	067537	001037	000017			1B8!@17(17)		;EXECUTE WITH INDIRECT AND INDEX
 50813	067540	254 04 0 00 067541 		HALT	.+1		;UUO DID NOT TRAP
 50814	067541	200 00 0 00 000040 		MOVE	0,40		;GET UUO
 50815	067542	603 00 0 00 000037 		TLNE	0,37		;INDIRECT OR INDEX BITS STILL SET?
 50816						STOP^
 50817	067543	254 04 0 00 067544 		HALT	.+1		;INSTRUCTION FAILED REPLACE
 50818	067544	254 00 0 00 067545 		JRST	.+1		;WITH JRST BACK^
 50819
DFKAA PDP-10 KL10 BASIC INSTRUCTION DIAGNOSTIC (1) VER 0,2	MACRO %53B(1254)-4 11:50 11-Nov-24 Page 78
DFKAA8	MAC	13-Jan-89 10:22		TEST UUOS OUT OF FAST MEMORY

 50820					SUBTTL	TEST UUOS OUT OF FAST MEMORY
 50821
 50822						FMUUO	0^
 50823
 50824					;EXECUTE UUO'S OUT OF FAST MEMORY LOCATIONS 0,1,2,4,5,10,12, AND 17
 50825					;CHECK FIRST THAT THE UUO TRAPPED AND SECONDLY THAT IT STORED THE
 50826					;CORRECT PC.
 50827
 50828			000000			AC=0			;TESTED AC
 50829
 50830						TSET^
 50831			067545			%X=.			;DEFINE %X TO SAVE
 50832	067545	201 00 0 00 067545 		MOVEI	%X		;SAVE THIS PC IN CASE OF WILD TRANSFER
 50833	067546	202 00 0 00 071350 		MOVEM	TNUMB#		;BECAUSE OF PC MOD OR INTERRUPT^
 50834	067547	200 00 0 00 070317 		MOVE	0,[XWD 1000,0]	;SET UP UUO INTO AC 0 TO EXECUTE
 50835	067550	200 13 0 00 071322 		MOVE	13,[JSP 11,..0325] ;SET UP UUO TRAP INSTRUCTION
 50836	067551	202 13 0 00 000041 		MOVEM	13,41		;INTO LOCATION 41
 50837	067552	200 01 0 00 071323 		MOVE	0+1,[JRST ..0326] ;SET UP TRAP INSTRUCTION INCASE UUO DOES NOT TRAP
 50838	067553	254 00 0 00 000000 		JRST	0		;GO EXECUTE  UUO
 50839	067554	254 04 0 00 067555 	..0326:	HALT	.+1		;UUO DID NOT TRAP FROM FAST MEMORY
 50840	067555	254 00 0 00 067556 		JRST	.+1		;LOOP TO %FMUUO IF ERROR
 50841	067556	405 11 0 00 777777 	..0325:	ANDI	11,-1		;MASK FLAGS
 50842	067557	302 11 0 00 000001 		CAIE	11,0+1		;PC STORED SHOULD = 0 +1
 50843						STOP^
 50844	067560	254 04 0 00 067561 		HALT	.+1		;INSTRUCTION FAILED REPLACE
 50845	067561	254 00 0 00 067562 		JRST	.+1		;WITH JRST BACK^
 50846						TGET^
 50847	067562	200 00 0 00 071350 		MOVE	TNUMB		;GET LAST PC STORED AND CHECK TO SEE
 50848	067563	302 00 0 00 067545 		CAIE	%X		;IF ITS WHERE WE REALLY SHOULD BE
 50849						STOP2^^
 50850	067564	254 04 0 00 067565 		HALT	.+1		;HALT IF WE SHOULDN'T BE HERE
 50851	067565	254 00 0 00 067566 		JRST	.+1		;WILD TRANSFER CAUSED THIS HALT.^
 50852					^
 50853
 50854						FMUUO	1^
 50855
 50856					;EXECUTE UUO'S OUT OF FAST MEMORY LOCATIONS 0,1,2,4,5,10,12, AND 17
 50857					;CHECK FIRST THAT THE UUO TRAPPED AND SECONDLY THAT IT STORED THE
 50858					;CORRECT PC.
 50859
 50860			000001			AC=1			;TESTED AC
 50861
 50862						TSET^
 50863			067566			%X=.			;DEFINE %X TO SAVE
 50864	067566	201 00 0 00 067566 		MOVEI	%X		;SAVE THIS PC IN CASE OF WILD TRANSFER
 50865	067567	202 00 0 00 071350 		MOVEM	TNUMB#		;BECAUSE OF PC MOD OR INTERRUPT^
 50866	067570	200 01 0 00 070317 		MOVE	1,[XWD 1000,0]	;SET UP UUO INTO AC 1 TO EXECUTE
 50867	067571	200 13 0 00 071324 		MOVE	13,[JSP 11,..0327] ;SET UP UUO TRAP INSTRUCTION
 50868	067572	202 13 0 00 000041 		MOVEM	13,41		;INTO LOCATION 41
 50869	067573	200 02 0 00 071325 		MOVE	1+1,[JRST ..0330] ;SET UP TRAP INSTRUCTION INCASE UUO DOES NOT TRAP
 50870	067574	254 00 0 00 000001 		JRST	1		;GO EXECUTE  UUO
 50871	067575	254 04 0 00 067576 	..0330:	HALT	.+1		;UUO DID NOT TRAP FROM FAST MEMORY
 50872	067576	254 00 0 00 067577 		JRST	.+1		;LOOP TO %FMUUO IF ERROR
 50873	067577	405 11 0 00 777777 	..0327:	ANDI	11,-1		;MASK FLAGS
 50874	067600	302 11 0 00 000002 		CAIE	11,1+1		;PC STORED SHOULD = 1 +1
DFKAA PDP-10 KL10 BASIC INSTRUCTION DIAGNOSTIC (1) VER 0,2	MACRO %53B(1254)-4 11:50 11-Nov-24 Page 78-1
DFKAA8	MAC	13-Jan-89 10:22		TEST UUOS OUT OF FAST MEMORY

 50875						STOP^
 50876	067601	254 04 0 00 067602 		HALT	.+1		;INSTRUCTION FAILED REPLACE
 50877	067602	254 00 0 00 067603 		JRST	.+1		;WITH JRST BACK^
 50878						TGET^
 50879	067603	200 00 0 00 071350 		MOVE	TNUMB		;GET LAST PC STORED AND CHECK TO SEE
 50880	067604	302 00 0 00 067566 		CAIE	%X		;IF ITS WHERE WE REALLY SHOULD BE
 50881						STOP2^^
 50882	067605	254 04 0 00 067606 		HALT	.+1		;HALT IF WE SHOULDN'T BE HERE
 50883	067606	254 00 0 00 067607 		JRST	.+1		;WILD TRANSFER CAUSED THIS HALT.^
 50884					^
 50885
 50886						FMUUO	2^
 50887
 50888					;EXECUTE UUO'S OUT OF FAST MEMORY LOCATIONS 0,1,2,4,5,10,12, AND 17
 50889					;CHECK FIRST THAT THE UUO TRAPPED AND SECONDLY THAT IT STORED THE
 50890					;CORRECT PC.
 50891
 50892			000002			AC=2			;TESTED AC
 50893
 50894						TSET^
 50895			067607			%X=.			;DEFINE %X TO SAVE
 50896	067607	201 00 0 00 067607 		MOVEI	%X		;SAVE THIS PC IN CASE OF WILD TRANSFER
 50897	067610	202 00 0 00 071350 		MOVEM	TNUMB#		;BECAUSE OF PC MOD OR INTERRUPT^
 50898	067611	200 02 0 00 070317 		MOVE	2,[XWD 1000,0]	;SET UP UUO INTO AC 2 TO EXECUTE
 50899	067612	200 13 0 00 071326 		MOVE	13,[JSP 11,..0331] ;SET UP UUO TRAP INSTRUCTION
 50900	067613	202 13 0 00 000041 		MOVEM	13,41		;INTO LOCATION 41
 50901	067614	200 03 0 00 071327 		MOVE	2+1,[JRST ..0332] ;SET UP TRAP INSTRUCTION INCASE UUO DOES NOT TRAP
 50902	067615	254 00 0 00 000002 		JRST	2		;GO EXECUTE  UUO
 50903	067616	254 04 0 00 067617 	..0332:	HALT	.+1		;UUO DID NOT TRAP FROM FAST MEMORY
 50904	067617	254 00 0 00 067620 		JRST	.+1		;LOOP TO %FMUUO IF ERROR
 50905	067620	405 11 0 00 777777 	..0331:	ANDI	11,-1		;MASK FLAGS
 50906	067621	302 11 0 00 000003 		CAIE	11,2+1		;PC STORED SHOULD = 2 +1
 50907						STOP^
 50908	067622	254 04 0 00 067623 		HALT	.+1		;INSTRUCTION FAILED REPLACE
 50909	067623	254 00 0 00 067624 		JRST	.+1		;WITH JRST BACK^
 50910						TGET^
 50911	067624	200 00 0 00 071350 		MOVE	TNUMB		;GET LAST PC STORED AND CHECK TO SEE
 50912	067625	302 00 0 00 067607 		CAIE	%X		;IF ITS WHERE WE REALLY SHOULD BE
 50913						STOP2^^
 50914	067626	254 04 0 00 067627 		HALT	.+1		;HALT IF WE SHOULDN'T BE HERE
 50915	067627	254 00 0 00 067630 		JRST	.+1		;WILD TRANSFER CAUSED THIS HALT.^
 50916					^
 50917
 50918						FMUUO	4^
 50919
 50920					;EXECUTE UUO'S OUT OF FAST MEMORY LOCATIONS 0,1,2,4,5,10,12, AND 17
 50921					;CHECK FIRST THAT THE UUO TRAPPED AND SECONDLY THAT IT STORED THE
 50922					;CORRECT PC.
 50923
 50924			000004			AC=4			;TESTED AC
 50925
 50926						TSET^
 50927			067630			%X=.			;DEFINE %X TO SAVE
 50928	067630	201 00 0 00 067630 		MOVEI	%X		;SAVE THIS PC IN CASE OF WILD TRANSFER
 50929	067631	202 00 0 00 071350 		MOVEM	TNUMB#		;BECAUSE OF PC MOD OR INTERRUPT^
DFKAA PDP-10 KL10 BASIC INSTRUCTION DIAGNOSTIC (1) VER 0,2	MACRO %53B(1254)-4 11:50 11-Nov-24 Page 78-2
DFKAA8	MAC	13-Jan-89 10:22		TEST UUOS OUT OF FAST MEMORY

 50930	067632	200 04 0 00 070317 		MOVE	4,[XWD 1000,0]	;SET UP UUO INTO AC 4 TO EXECUTE
 50931	067633	200 13 0 00 071330 		MOVE	13,[JSP 11,..0333] ;SET UP UUO TRAP INSTRUCTION
 50932	067634	202 13 0 00 000041 		MOVEM	13,41		;INTO LOCATION 41
 50933	067635	200 05 0 00 071331 		MOVE	4+1,[JRST ..0334] ;SET UP TRAP INSTRUCTION INCASE UUO DOES NOT TRAP
 50934	067636	254 00 0 00 000004 		JRST	4		;GO EXECUTE  UUO
 50935	067637	254 04 0 00 067640 	..0334:	HALT	.+1		;UUO DID NOT TRAP FROM FAST MEMORY
 50936	067640	254 00 0 00 067641 		JRST	.+1		;LOOP TO %FMUUO IF ERROR
 50937	067641	405 11 0 00 777777 	..0333:	ANDI	11,-1		;MASK FLAGS
 50938	067642	302 11 0 00 000005 		CAIE	11,4+1		;PC STORED SHOULD = 4 +1
 50939						STOP^
 50940	067643	254 04 0 00 067644 		HALT	.+1		;INSTRUCTION FAILED REPLACE
 50941	067644	254 00 0 00 067645 		JRST	.+1		;WITH JRST BACK^
 50942						TGET^
 50943	067645	200 00 0 00 071350 		MOVE	TNUMB		;GET LAST PC STORED AND CHECK TO SEE
 50944	067646	302 00 0 00 067630 		CAIE	%X		;IF ITS WHERE WE REALLY SHOULD BE
 50945						STOP2^^
 50946	067647	254 04 0 00 067650 		HALT	.+1		;HALT IF WE SHOULDN'T BE HERE
 50947	067650	254 00 0 00 067651 		JRST	.+1		;WILD TRANSFER CAUSED THIS HALT.^
 50948					^
 50949
 50950						FMUUO	5^
 50951
 50952					;EXECUTE UUO'S OUT OF FAST MEMORY LOCATIONS 0,1,2,4,5,10,12, AND 17
 50953					;CHECK FIRST THAT THE UUO TRAPPED AND SECONDLY THAT IT STORED THE
 50954					;CORRECT PC.
 50955
 50956			000005			AC=5			;TESTED AC
 50957
 50958						TSET^
 50959			067651			%X=.			;DEFINE %X TO SAVE
 50960	067651	201 00 0 00 067651 		MOVEI	%X		;SAVE THIS PC IN CASE OF WILD TRANSFER
 50961	067652	202 00 0 00 071350 		MOVEM	TNUMB#		;BECAUSE OF PC MOD OR INTERRUPT^
 50962	067653	200 05 0 00 070317 		MOVE	5,[XWD 1000,0]	;SET UP UUO INTO AC 5 TO EXECUTE
 50963	067654	200 13 0 00 071332 		MOVE	13,[JSP 11,..0335] ;SET UP UUO TRAP INSTRUCTION
 50964	067655	202 13 0 00 000041 		MOVEM	13,41		;INTO LOCATION 41
 50965	067656	200 06 0 00 071333 		MOVE	5+1,[JRST ..0336] ;SET UP TRAP INSTRUCTION INCASE UUO DOES NOT TRAP
 50966	067657	254 00 0 00 000005 		JRST	5		;GO EXECUTE  UUO
 50967	067660	254 04 0 00 067661 	..0336:	HALT	.+1		;UUO DID NOT TRAP FROM FAST MEMORY
 50968	067661	254 00 0 00 067662 		JRST	.+1		;LOOP TO %FMUUO IF ERROR
 50969	067662	405 11 0 00 777777 	..0335:	ANDI	11,-1		;MASK FLAGS
 50970	067663	302 11 0 00 000006 		CAIE	11,5+1		;PC STORED SHOULD = 5 +1
 50971						STOP^
 50972	067664	254 04 0 00 067665 		HALT	.+1		;INSTRUCTION FAILED REPLACE
 50973	067665	254 00 0 00 067666 		JRST	.+1		;WITH JRST BACK^
 50974						TGET^
 50975	067666	200 00 0 00 071350 		MOVE	TNUMB		;GET LAST PC STORED AND CHECK TO SEE
 50976	067667	302 00 0 00 067651 		CAIE	%X		;IF ITS WHERE WE REALLY SHOULD BE
 50977						STOP2^^
 50978	067670	254 04 0 00 067671 		HALT	.+1		;HALT IF WE SHOULDN'T BE HERE
 50979	067671	254 00 0 00 067672 		JRST	.+1		;WILD TRANSFER CAUSED THIS HALT.^
 50980					^
 50981
 50982						FMUUO	10^
 50983
 50984					;EXECUTE UUO'S OUT OF FAST MEMORY LOCATIONS 0,1,2,4,5,10,12, AND 17
DFKAA PDP-10 KL10 BASIC INSTRUCTION DIAGNOSTIC (1) VER 0,2	MACRO %53B(1254)-4 11:50 11-Nov-24 Page 78-3
DFKAA8	MAC	13-Jan-89 10:22		TEST UUOS OUT OF FAST MEMORY

 50985					;CHECK FIRST THAT THE UUO TRAPPED AND SECONDLY THAT IT STORED THE
 50986					;CORRECT PC.
 50987
 50988			000010			AC=10			;TESTED AC
 50989
 50990						TSET^
 50991			067672			%X=.			;DEFINE %X TO SAVE
 50992	067672	201 00 0 00 067672 		MOVEI	%X		;SAVE THIS PC IN CASE OF WILD TRANSFER
 50993	067673	202 00 0 00 071350 		MOVEM	TNUMB#		;BECAUSE OF PC MOD OR INTERRUPT^
 50994	067674	200 10 0 00 070317 		MOVE	10,[XWD 1000,0]	;SET UP UUO INTO AC 10 TO EXECUTE
 50995	067675	200 13 0 00 071334 		MOVE	13,[JSP 11,..0337] ;SET UP UUO TRAP INSTRUCTION
 50996	067676	202 13 0 00 000041 		MOVEM	13,41		;INTO LOCATION 41
 50997	067677	200 11 0 00 071335 		MOVE	10+1,[JRST ..0340] ;SET UP TRAP INSTRUCTION INCASE UUO DOES NOT TRAP
 50998	067700	254 00 0 00 000010 		JRST	10		;GO EXECUTE  UUO
 50999	067701	254 04 0 00 067702 	..0340:	HALT	.+1		;UUO DID NOT TRAP FROM FAST MEMORY
 51000	067702	254 00 0 00 067703 		JRST	.+1		;LOOP TO %FMUUO IF ERROR
 51001	067703	405 11 0 00 777777 	..0337:	ANDI	11,-1		;MASK FLAGS
 51002	067704	302 11 0 00 000011 		CAIE	11,10+1		;PC STORED SHOULD = 10 +1
 51003						STOP^
 51004	067705	254 04 0 00 067706 		HALT	.+1		;INSTRUCTION FAILED REPLACE
 51005	067706	254 00 0 00 067707 		JRST	.+1		;WITH JRST BACK^
 51006						TGET^
 51007	067707	200 00 0 00 071350 		MOVE	TNUMB		;GET LAST PC STORED AND CHECK TO SEE
 51008	067710	302 00 0 00 067672 		CAIE	%X		;IF ITS WHERE WE REALLY SHOULD BE
 51009						STOP2^^
 51010	067711	254 04 0 00 067712 		HALT	.+1		;HALT IF WE SHOULDN'T BE HERE
 51011	067712	254 00 0 00 067713 		JRST	.+1		;WILD TRANSFER CAUSED THIS HALT.^
 51012					^
 51013
 51014						FMUUO	12^
 51015
 51016					;EXECUTE UUO'S OUT OF FAST MEMORY LOCATIONS 0,1,2,4,5,10,12, AND 17
 51017					;CHECK FIRST THAT THE UUO TRAPPED AND SECONDLY THAT IT STORED THE
 51018					;CORRECT PC.
 51019
 51020			000012			AC=12			;TESTED AC
 51021
 51022						TSET^
 51023			067713			%X=.			;DEFINE %X TO SAVE
 51024	067713	201 00 0 00 067713 		MOVEI	%X		;SAVE THIS PC IN CASE OF WILD TRANSFER
 51025	067714	202 00 0 00 071350 		MOVEM	TNUMB#		;BECAUSE OF PC MOD OR INTERRUPT^
 51026	067715	200 12 0 00 070317 		MOVE	12,[XWD 1000,0]	;SET UP UUO INTO AC 12 TO EXECUTE
 51027	067716	200 13 0 00 071336 		MOVE	13,[JSP 11,..0341] ;SET UP UUO TRAP INSTRUCTION
 51028	067717	202 13 0 00 000041 		MOVEM	13,41		;INTO LOCATION 41
 51029	067720	200 13 0 00 071337 		MOVE	12+1,[JRST ..0342] ;SET UP TRAP INSTRUCTION INCASE UUO DOES NOT TRAP
 51030	067721	254 00 0 00 000012 		JRST	12		;GO EXECUTE  UUO
 51031	067722	254 04 0 00 067723 	..0342:	HALT	.+1		;UUO DID NOT TRAP FROM FAST MEMORY
 51032	067723	254 00 0 00 067724 		JRST	.+1		;LOOP TO %FMUUO IF ERROR
 51033	067724	405 11 0 00 777777 	..0341:	ANDI	11,-1		;MASK FLAGS
 51034	067725	302 11 0 00 000013 		CAIE	11,12+1		;PC STORED SHOULD = 12 +1
 51035						STOP^
 51036	067726	254 04 0 00 067727 		HALT	.+1		;INSTRUCTION FAILED REPLACE
 51037	067727	254 00 0 00 067730 		JRST	.+1		;WITH JRST BACK^
 51038						TGET^
 51039	067730	200 00 0 00 071350 		MOVE	TNUMB		;GET LAST PC STORED AND CHECK TO SEE
DFKAA PDP-10 KL10 BASIC INSTRUCTION DIAGNOSTIC (1) VER 0,2	MACRO %53B(1254)-4 11:50 11-Nov-24 Page 78-4
DFKAA8	MAC	13-Jan-89 10:22		TEST UUOS OUT OF FAST MEMORY

 51040	067731	302 00 0 00 067713 		CAIE	%X		;IF ITS WHERE WE REALLY SHOULD BE
 51041						STOP2^^
 51042	067732	254 04 0 00 067733 		HALT	.+1		;HALT IF WE SHOULDN'T BE HERE
 51043	067733	254 00 0 00 067734 		JRST	.+1		;WILD TRANSFER CAUSED THIS HALT.^
 51044					^
 51045
 51046						FMUUO	17^
 51047
 51048					;EXECUTE UUO'S OUT OF FAST MEMORY LOCATIONS 0,1,2,4,5,10,12, AND 17
 51049					;CHECK FIRST THAT THE UUO TRAPPED AND SECONDLY THAT IT STORED THE
 51050					;CORRECT PC.
 51051
 51052			000017			AC=17			;TESTED AC
 51053
 51054						TSET^
 51055			067734			%X=.			;DEFINE %X TO SAVE
 51056	067734	201 00 0 00 067734 		MOVEI	%X		;SAVE THIS PC IN CASE OF WILD TRANSFER
 51057	067735	202 00 0 00 071350 		MOVEM	TNUMB#		;BECAUSE OF PC MOD OR INTERRUPT^
 51058	067736	200 17 0 00 070317 		MOVE	17,[XWD 1000,0]	;SET UP UUO INTO AC 17 TO EXECUTE
 51059	067737	200 13 0 00 071340 		MOVE	13,[JSP 11,..0343] ;SET UP UUO TRAP INSTRUCTION
 51060	067740	202 13 0 00 000041 		MOVEM	13,41		;INTO LOCATION 41
 51061	067741	200 00 0 00 071341 		MOVE	17+1,[JRST ..0344] ;SET UP TRAP INSTRUCTION INCASE UUO DOES NOT TRAP
 51062	067742	254 00 0 00 000017 		JRST	17		;GO EXECUTE  UUO
 51063	067743	254 04 0 00 067744 	..0344:	HALT	.+1		;UUO DID NOT TRAP FROM FAST MEMORY
 51064	067744	254 00 0 00 067745 		JRST	.+1		;LOOP TO %FMUUO IF ERROR
 51065	067745	405 11 0 00 777777 	..0343:	ANDI	11,-1		;MASK FLAGS
 51066	067746	302 11 0 00 000020 		CAIE	11,17+1		;PC STORED SHOULD = 17 +1
 51067						STOP^
 51068	067747	254 04 0 00 067750 		HALT	.+1		;INSTRUCTION FAILED REPLACE
 51069	067750	254 00 0 00 067751 		JRST	.+1		;WITH JRST BACK^
 51070						TGET^
 51071	067751	200 00 0 00 071350 		MOVE	TNUMB		;GET LAST PC STORED AND CHECK TO SEE
 51072	067752	302 00 0 00 067734 		CAIE	%X		;IF ITS WHERE WE REALLY SHOULD BE
 51073						STOP2^^
 51074	067753	254 04 0 00 067754 		HALT	.+1		;HALT IF WE SHOULDN'T BE HERE
 51075	067754	254 00 0 00 067755 		JRST	.+1		;WILD TRANSFER CAUSED THIS HALT.^
 51076					^
DFKAA PDP-10 KL10 BASIC INSTRUCTION DIAGNOSTIC (1) VER 0,2	MACRO %53B(1254)-4 11:50 11-Nov-24 Page 79
DFKAA8	MAC	13-Jan-89 10:22		SIMPLE MUUO TEST

 51077					SUBTTL	SIMPLE MUUO TEST
 51078					;TEST MONITOR UUO "0" TO SEE IF IT TRAPS AT ALL
 51079					;TRAPPING TO 40 CAUSES IT TO HALT. TRAPPING TO SUPERVISOR KERNAL PUBLIC
 51080					;OR CONCEALED IS ALLOWED AND IS CONSIERED CORRECT.
 51081
 51082						TSET^
 51083			067755			%X=.			;DEFINE %X TO SAVE
 51084	067755	201 00 0 00 067755 		MOVEI	%X		;SAVE THIS PC IN CASE OF WILD TRANSFER
 51085	067756	202 00 0 00 071350 		MOVEM	TNUMB#		;BECAUSE OF PC MOD OR INTERRUPT^
 51086	067757	265 00 0 00 067760 		JSP	.+1		;GET FLAGS
 51087	067760	603 00 0 00 010000 		TLNE	USERF		;IF USER MODE THEN EXIT
 51088	067761	254 00 0 00 070027 		JRST	USRIO0		;SKIP IF USER MODE TO USER IO TEST
 51089
 51090						CLRBTH^
 51091	067762	700 04 0 00 267760 		CLRAPR
 51092	067763	700 14 0 00 031577 		CLRPI^
 51093	067764	201 00 0 00 070007 	XMUUO:	MOVEI	XMUPC		;SET UP A TRAP FOR MONITOR UUO
 51094	067765	202 00 0 00 000430 		MOVEM	LKNTRP		;INTO ALL POSSIBLE TRAP LOCATIONS
 51095	067766	202 00 0 00 000431 		MOVEM	LKTRP
 51096	067767	202 00 0 00 000432 		MOVEM	LSNTRP
 51097	067770	202 00 0 00 000433 		MOVEM	LSTRP
 51098	067771	202 00 0 00 000434 		MOVEM	LCNTRP
 51099	067772	202 00 0 00 000435 		MOVEM	LCTRP
 51100	067773	202 00 0 00 000436 		MOVEM	LPNTRP
 51101	067774	202 00 0 00 000437 		MOVEM	LPTRP
 51102	067775	476 00 0 00 000424 		SETOM	LMUUO		;SET THE TRAP LOCATIONS
 51103	067776	476 00 0 00 000425 		SETOM	LMUUO+1		;TO ENABLE CHECKING
 51104	067777	200 00 0 00 071342 		MOVE	[JRST	MUHLT]	;SET UP A LUUO TRAP HALT
 51105	070000	202 00 0 00 000041 		MOVEM	41
 51106	070001	402 00 0 00 070002 		SETZM	.+1		;MAKE A MUUO IN THE NEXT LOCATION
 51107	070002	000000	000000		XMUUO0:	0			;THIS IS A MONITOR UUO
 51108	070003	254 04 0 00 070004 		HALT	.+1		;THE UUO DIDN'T TRAP
 51109	070004	254 04 0 00 070005 		HALT	.+1		;MUUO SKIPPED?
 51110	070005	254 04 0 00 070006 	MUHLT:	HALT	.+1		;UUO TRAPPED TO 40(DECODE AS LUUO?)
 51111	070006	254 04 0 00 070007 		HALT	.+1		;SPARE HALT
DFKAA PDP-10 KL10 BASIC INSTRUCTION DIAGNOSTIC (1) VER 0,2	MACRO %53B(1254)-4 11:50 11-Nov-24 Page 80
DFKAA8	MAC	13-Jan-89 10:22		SIMPLE MUUO TEST

 51112	070007				XMUPC:	TGET^
 51113	070007	200 00 0 00 071350 		MOVE	TNUMB		;GET LAST PC STORED AND CHECK TO SEE
 51114	070010	302 00 0 00 067755 		CAIE	%X		;IF ITS WHERE WE REALLY SHOULD BE
 51115						STOP2^^
 51116	070011	254 04 0 00 070012 		HALT	.+1		;HALT IF WE SHOULDN'T BE HERE
 51117	070012	254 00 0 00 070013 		JRST	.+1		;WILD TRANSFER CAUSED THIS HALT.^
 51118	070013	332 00 0 00 000424 		SKIPE	LMUUO		;MON UUO "0" DIDN'T STORE A ZERO
 51119						STOP^
 51120	070014	254 04 0 00 070015 		HALT	.+1		;INSTRUCTION FAILED REPLACE
 51121	070015	254 00 0 00 070016 		JRST	.+1		;WITH JRST BACK^
 51122	070016	550 00 0 00 000425 		HRRZ	LMUUO+1		;GET THE STORED PC
 51123	070017	302 00 0 00 070003 		CAIE	XMUUO0+1	;DID WE STORE THE CORRECT PC?
 51124						STOP^
 51125	070020	254 04 0 00 070021 		HALT	.+1		;INSTRUCTION FAILED REPLACE
 51126	070021	254 00 0 00 070022 		JRST	.+1		;WITH JRST BACK^
 51127	070022	255 00 0 00 000000 		JFCL
 51128						TGET^
 51129	070023	200 00 0 00 071350 		MOVE	TNUMB		;GET LAST PC STORED AND CHECK TO SEE
 51130	070024	302 00 0 00 067755 		CAIE	%X		;IF ITS WHERE WE REALLY SHOULD BE
 51131						STOP2^^
 51132	070025	254 04 0 00 070026 		HALT	.+1		;HALT IF WE SHOULDN'T BE HERE
 51133	070026	254 00 0 00 070027 		JRST	.+1		;WILD TRANSFER CAUSED THIS HALT.^
DFKAA PDP-10 KL10 BASIC INSTRUCTION DIAGNOSTIC (1) VER 0,2	MACRO %53B(1254)-4 11:50 11-Nov-24 Page 81
DFKAA8	MAC	13-Jan-89 10:22		TEST THE USER IOT BIT

 51134					SUBTTL	TEST THE USER IOT BIT
 51135					;CHECK CLEARING AND SETTING OF THE USER IOT BIT
 51136
 51137	070027				USRIO0:	TSET^
 51138			070027			%X=.			;DEFINE %X TO SAVE
 51139	070027	201 00 0 00 070027 		MOVEI	%X		;SAVE THIS PC IN CASE OF WILD TRANSFER
 51140	070030	202 00 0 00 071350 		MOVEM	TNUMB#		;BECAUSE OF PC MOD OR INTERRUPT^
 51141						CLRBTH^
 51142	070031	700 04 0 00 267760 		CLRAPR
 51143	070032	700 14 0 00 031577 		CLRPI^
 51144	070033	336 00 0 00 030042 		SKIPN	MONFLG		;IN SPECIAL USER MODE?
 51145	070034	254 00 0 00 070070 		JRST	ENDIT		;YES LOOP TEST
 51146	070035	254 02 1 00 070036 		JRSTF	@.+1		;CLEAR BITS
 51147	070036	000000	070037			0,,.+1			;PC AND FLAGS
 51148	070037	265 00 0 00 070040 		JSP	.+1		;CHECK WHY USER I/O FLAG IS SET
 51149	070040	603 00 0 00 004000 		TLNE	EXIOT		;SHOULD BE CLEAR VIA JRSTF
 51150						STOP^
 51151	070041	254 04 0 00 070042 		HALT	.+1		;INSTRUCTION FAILED REPLACE
 51152	070042	254 00 0 00 070043 		JRST	.+1		;WITH JRST BACK^
 51153						TGET^
 51154	070043	200 00 0 00 071350 		MOVE	TNUMB		;GET LAST PC STORED AND CHECK TO SEE
 51155	070044	302 00 0 00 070027 		CAIE	%X		;IF ITS WHERE WE REALLY SHOULD BE
 51156						STOP2^^
 51157	070045	254 04 0 00 070046 		HALT	.+1		;HALT IF WE SHOULDN'T BE HERE
 51158	070046	254 00 0 00 070047 		JRST	.+1		;WILD TRANSFER CAUSED THIS HALT.^
 51159	070047	336 00 0 00 030042 		SKIPN	MONFLG		;IN USER MODE?
 51160	070050	254 00 0 00 070070 		JRST	ENDIT		;YES CANNOT SET USER IO FLAG
 51161									;IN USER MODE
 51162
 51163	070051				USRIO1:	TSET^
 51164			070051			%X=.			;DEFINE %X TO SAVE
 51165	070051	201 00 0 00 070051 		MOVEI	%X		;SAVE THIS PC IN CASE OF WILD TRANSFER
 51166	070052	202 00 0 00 071350 		MOVEM	TNUMB#		;BECAUSE OF PC MOD OR INTERRUPT^
 51167						CLRBTH^
 51168	070053	700 04 0 00 267760 		CLRAPR
 51169	070054	700 14 0 00 031577 		CLRPI^
 51170	070055	400 00 0 00 000000 		SETZ	0		;CLEAR 0
 51171	070056	200 01 0 00 071343 		MOVE	1,[1B6!.+2]	;FLAGS AND PC
 51172	070057	254 02 0 01 000000 		JRSTF	(1)		;USER I/O FLAG DID
 51173	070060	265 00 0 00 070061 		JSP	.+1		;NOT SET
 51174	070061	607 00 0 00 004000 		TLNN	EXIOT		;CHECK WHY BIT IS NOT SET
 51175						STOP^
 51176	070062	254 04 0 00 070063 		HALT	.+1		;INSTRUCTION FAILED REPLACE
 51177	070063	254 00 0 00 070064 		JRST	.+1		;WITH JRST BACK^
 51178						TGET^
 51179	070064	200 00 0 00 071350 		MOVE	TNUMB		;GET LAST PC STORED AND CHECK TO SEE
 51180	070065	302 00 0 00 070051 		CAIE	%X		;IF ITS WHERE WE REALLY SHOULD BE
 51181						STOP2^^
 51182	070066	254 04 0 00 070067 		HALT	.+1		;HALT IF WE SHOULDN'T BE HERE
 51183	070067	254 00 0 00 070070 		JRST	.+1		;WILD TRANSFER CAUSED THIS HALT.^
 51184
 51185	070070	402 00 0 00 071350 	ENDIT:	SETZM	TNUMB		;CLEAR TEST NUMBER FLAG
 51186	070071	254 00 0 00 030057 		JRST	BEGEND		;GO TO BEG/END SEQUENCE
DFKAA PDP-10 KL10 BASIC INSTRUCTION DIAGNOSTIC (1) VER 0,2	MACRO %53B(1254)-4 11:50 11-Nov-24 Page 82
DFKAA8	MAC	13-Jan-89 10:22		IOT/PI/APR SUBROUTINES

 51187					SUBTTL	IOT/PI/APR SUBROUTINES
 51188
 51189					;HERE ARE SOME USEFUL SUBROUTINES FOR THE DIAGNOSTIC
 51190
 51191					;THIS ROUTINE CLEARS ALL THE TRAP LOCATIONS(42-56)
 51192
 51193	070072	000000	000000		TRPCLR:	0			;FOR PC RETURN
 51194	070073	202 15 0 00 071353 		MOVEM	15,XAC15#	;SAVE AC15
 51195	070074	201 15 0 00 000042 		MOVEI	15,42
 51196	070075	402 00 1 00 000015 		SETZM	@15		;CLEAR LOCATION
 51197	070076	271 15 0 00 000001 		ADDI	15,1		;BUMP POINTER
 51198	070077	307 15 0 00 000056 		CAIG	15,56		;DONE LAST?
 51199	070100	254 00 0 00 070075 		JRST	.-3		;LOOP
 51200	070101	200 15 0 00 071353 		MOVE	15,XAC15	;RESTORE AC15
 51201	070102	254 00 1 00 070072 		JRST	@TRPCLR
 51202
 51203					;THIS ROUTINE PUTS A JSP TO A HALT INTO EACH TRAP LOCATION (42-57)
 51204
 51205	070103	000000	000000		HALTPI:	0			;FOR RETURN PC
 51206	070104	202 00 0 00 071351 		MOVEM	0,XAC0#		;SAVE AC0
 51207	070105	202 01 0 00 071352 		MOVEM	1,XAC1#		;SAVE AC1
 51208	070106	200 00 0 00 071344 		MOVE	[JSP 1,HLTCK]	;PUT JSP INTO EACH TRAP LOCATION
 51209	070107	201 01 0 00 000042 		MOVEI	1,42		;IN CASE INCORRECT INTERRUPT
 51210	070110	202 00 1 00 000001 		MOVEM	@1		;STORE
 51211	070111	271 00 0 00 000002 		ADDI	2
 51212	070112	271 01 0 00 000002 		ADDI	1,2
 51213	070113	305 01 0 00 000060 		CAIGE	1,60		;DONE?
 51214	070114	254 00 0 00 070110 		JRST	.-4
 51215	070115	200 00 0 00 071351 		MOVE	0,XAC0		;RESTORE AC0
 51216	070116	200 01 0 00 071352 		MOVE	1,XAC1		;AND AC1
 51217	070117	254 00 1 00 070103 		JRST	@HALTPI		;RETURN
DFKAA PDP-10 KL10 BASIC INSTRUCTION DIAGNOSTIC (1) VER 0,2	MACRO %53B(1254)-4 11:50 11-Nov-24 Page 83
DFKAA8	MAC	13-Jan-89 10:22		IOT/PI/APR SUBROUTINES

 51218					;THIS ROUTINE PUTS A JSP INTO EACH INTERRUPT LOCATION WHICH WILL
 51219					;IGNORE INTERRUPTS..
 51220
 51221	070120	000000	000000		TRAPPI:	0			;FOR JSR
 51222	070121	202 00 0 00 071351 		MOVEM	0,XAC0#		;SAVE AC0
 51223	070122	202 01 0 00 071352 		MOVEM	1,XAC1#		;SAVE AC1
 51224	070123	200 00 0 00 071345 		MOVE	[JSP 1,TRPFIL]	;SET UP TRAP INSTRUCTION
 51225	070124	201 01 0 00 000042 		MOVEI	1,42
 51226	070125	202 00 1 00 000001 		MOVEM	@1
 51227	070126	271 01 0 00 000002 		ADDI	1,2
 51228	070127	271 00 0 00 000002 		ADDI	0,2		;STORAGE POINTER
 51229	070130	305 01 0 00 000060 		CAIGE	1,60		;DONE?
 51230	070131	254 00 0 00 070125 		JRST	.-4		;NO LOOP
 51231	070132	200 00 0 00 071351 		MOVE	0,XAC0		;RESTORE AC0
 51232	070133	200 01 0 00 071352 		MOVE	1,XAC1		;AND AC1
 51233	070134	254 00 1 00 070120 		JRST	@TRAPPI		;RETURN
 51234
 51235					;THIS ROUTINE PLACES THE VALUE OF THE CHANNEL WHICH INTERRUPTED INTO
 51236					;AC0. IT DOES NOTHING ELSE (IT EFFECTIVLY IGNORES THE INTERRUPT).
 51237
 51238	070135	201 00 0 00 000001 	TRPFIL:	MOVEI	1		;POINTER
 51239	070136	254 00 0 00 070154 		JRST	TPEND
 51240	070137	201 00 0 00 000002 		MOVEI	2
 51241	070140	254 00 0 00 070154 		JRST	TPEND
 51242	070141	201 00 0 00 000003 		MOVEI	3
 51243	070142	254 00 0 00 070154 		JRST	TPEND
 51244	070143	201 00 0 00 000004 		MOVEI	4
 51245	070144	254 00 0 00 070154 		JRST	TPEND
 51246	070145	201 00 0 00 000005 		MOVEI	5
 51247	070146	254 00 0 00 070154 		JRST	TPEND
 51248	070147	201 00 0 00 000006 		MOVEI	6
 51249	070150	254 00 0 00 070154 		JRST	TPEND
 51250	070151	201 00 0 00 000007 		MOVEI	7
 51251	070152	254 00 0 00 070154 		JRST	TPEND
 51252	070153	254 04 0 00 070154 		HALT	TPEND		;"JRST @" OR "JRSTF @" FAILS
 51253
 51254	070154	332 00 0 00 030042 	TPEND:	SKIPE	MONFLG		;IN USER MODE?
 51255	070155	254 00 1 00 000001 		JRST	@1		;RETURN
 51256	070156	254 02 1 00 000001 		JRSTF	@1		;RESTORE FLAGS
 51257	070157	254 04 0 00 070157 		HALT	.		;JRST @ OR JRSTF FAILS ?
DFKAA PDP-10 KL10 BASIC INSTRUCTION DIAGNOSTIC (1) VER 0,2	MACRO %53B(1254)-4 11:50 11-Nov-24 Page 84
DFKAA8	MAC	13-Jan-89 10:22		IOT/PI/APR SUBROUTINES

 51258					;THIS ROUTINE PLACES THE VALUE OF THE CHANNEL WHICH INTERRUPTED
 51259					;INTO AC0. AFTER WHICH IT WILL HALT. THIS ROUTINE IS CALLED WHENEVER AN
 51260					;INTERRUPT OCCURS ON AN INCORRECT CHANNEL.
 51261	070160	201 00 0 00 000001 	HLTCK:	MOVEI	1
 51262	070161	254 04 1 00 000001 		HALT	@1
 51263	070162	201 00 0 00 000002 		MOVEI	2
 51264	070163	254 04 1 00 000001 		HALT	@1
 51265	070164	201 00 0 00 000003 		MOVEI	3
 51266	070165	254 04 1 00 000001 		HALT	@1
 51267	070166	201 00 0 00 000004 		MOVEI	4
 51268	070167	254 04 1 00 000001 		HALT	@1
 51269	070170	201 00 0 00 000005 		MOVEI	5
 51270	070171	254 04 1 00 000001 		HALT	@1
 51271	070172	201 00 0 00 000006 		MOVEI	6
 51272	070173	254 04 1 00 000001 		HALT	@1
 51273	070174	201 00 0 00 000007 		MOVEI	7
 51274	070175	254 04 1 00 000007 		HALT	@7
 51275	070176	474 00 0 00 000000 		SETO	0
 51276	070177	254 04 0 00 070177 		HALT	.		;SHOULD NEVER GET HERE
DFKAA PDP-10 KL10 BASIC INSTRUCTION DIAGNOSTIC (1) VER 0,2	MACRO %53B(1254)-4 11:50 11-Nov-24 Page 85
DFKAA8	MAC	13-Jan-89 10:22		IOT/PI/APR TRAP ROUTINES

 51277					SUBTTL	IOT/PI/APR TRAP ROUTINES
 51278
 51279					;HERE LIE THE VARIOUS TRAPS  TRAPS HERE REPRESENT ERRORS
 51280					;NOT CHECKED IN THE DIAGNOSTIC. THE LISTING SHOWS THE CAUSE OF THE
 51281					;TRAP.
 51282
 51283	070200	254 04 0 00 070200 	UUO:	HALT	.		;ERROR-UUO (LOC 0 HAS PC OF UUO)
 51284	070201	254 04 1 00 000425 	MACHTP:	HALT	@425		;KERNAL NO TRAP
 51285	070202	254 04 1 00 000425 		HALT	@425		;KERNAL TRAP
 51286	070203	254 04 1 00 000425 		HALT	@425		;SUPERVISOR NO TRAP
 51287	070204	254 04 1 00 000425 		HALT	@425		;SUPERVISOR TRAP
 51288	070205	254 04 1 00 000425 		HALT	@425		;CONCEAL NO TRAP
 51289	070206	254 04 1 00 000425 		HALT	@425		;CONCEAL TRAP
 51290	070207	254 04 1 00 000425 		HALT	@425		;PUBLIC NO TRAP
 51291	070210	254 04 1 00 000425 		HALT	@425		;PUBLIC TRAP
 51292
 51293	070211	254 04 0 00 070211 	TABLE:	HALT	.		;PAGE FAILURE TRAP
 51294	070212	255 00 0 00 000000 		JFCL			;IGNORE ARITHMETIC TRAPS
 51295	070213	254 04 0 00 070213 		HALT	.
 51296	070214	254 04 0 00 070214 		HALT	.
 51297	070215	777777	777777			-1			;IF UUO THEN NOT =O-1
 51298	070216	777777	777777			-1
 51299	070217	000000	000000			0
 51300	070220	000000	000000			0
 51301	070221	000000	070201			MACHTP
 51302	070222	000000	070202			MACHTP+1
 51303	070223	000000	070203			MACHTP+2
 51304	070224	000000	070204			MACHTP+3
 51305	070225	000000	070205			MACHTP+4
 51306	070226	000000	070206			MACHTP+5
 51307	070227	000000	070207			MACHTP+6
 51308	070230	000000	070210			MACHTP+7
 51309
 51310	070231	000000	000000		TRPSET:	0			;FOR JSR
 51311	070232	202 00 0 00 071351 		MOVEM	0,XAC0#		;SAVE AC0
 51312	070233	202 01 0 00 071352 		MOVEM	1,XAC1#		;SAVE AC1
 51313	070234	202 16 0 00 071354 		MOVEM	16,XAC16#	;SAVE AC16
 51314	070235	201 00 0 00 070211 		MOVEI	0,TABLE		;TRAP TABLE POINTER
 51315	070236	201 01 0 00 000420 		MOVEI	1,420		;STORAGE ADRESS
 51316	070237	200 16 1 00 000000 		MOVE	16,@0		;PUT TRAP WORD INTO
 51317	070240	202 16 0 01 000000 		MOVEM	16,(1)		;TRAP LOCATION
 51318	070241	271 00 0 00 000001 		ADDI	0,1		;BUMP
 51319	070242	271 01 0 00 000001 		ADDI	1,1		;POINTERS
 51320	070243	302 01 0 00 000440 		CAIE	1,440		;DONE LAST
 51321	070244	254 00 0 00 070237 		JRST	.-5		;NO KEEP LOOPING
 51322	070245	200 00 0 00 071351 		MOVE	0,XAC0		;RESTORE AC0
 51323	070246	200 01 0 00 071352 		MOVE	1,XAC1		;AND AC1
 51324	070247	200 16 0 00 071354 		MOVE	16,XAC16	;AND AC16
 51325	070250	254 00 1 00 070231 		JRST	@TRPSET		;RETURN TO CALLER
DFKAA PDP-10 KL10 BASIC INSTRUCTION DIAGNOSTIC (1) VER 0,2	MACRO %53B(1254)-4 11:50 11-Nov-24 Page 1
STOR	KLM	13-Jan-89 11:46		*STOR* RESERVED STORAGE, JULY 19,1977

 51326					SUBTTL	*STOR* RESERVED STORAGE, JULY 19,1977
 51327
 51328					;PROGRAM LITERALS
 51329
 51330						XLIST
 51331					IFNDEF	$LPAPER,<LIST>
 51332	070251					LIT
 51333	070251	000001	000001
 51334	070252	254 00 0 00 030742
 51335	070253	000000	000000
 51336	070254	777777	777777
 51337	070255	377777	777777
 51338	070256	400000	000000
 51339	070257	777000	000000
 51340	070260	000377	000000
 51341	070261	000000	177000
 51342	070262	000000	000777
 51343	070263	000000	600000
 51344	070264	000400	000000
 51345	070265	000000	000001
 51346	070266	000000	000002
 51347	070267	000000	000004
 51348	070270	000000	000010
 51349	070271	000000	000020
 51350	070272	000000	000040
 51351	070273	000000	000100
 51352	070274	000000	000200
 51353	070275	000000	000400
 51354	070276	000000	001000
 51355	070277	000000	002000
 51356	070300	000000	004000
 51357	070301	000000	010000
 51358	070302	000000	020000
 51359	070303	000000	040000
 51360	070304	000000	100000
 51361	070305	000000	200000
 51362	070306	000000	400000
 51363	070307	000001	000000
 51364	070310	000002	000000
 51365	070311	000004	000000
 51366	070312	000010	000000
 51367	070313	000020	000000
 51368	070314	000040	000000
 51369	070315	000100	000000
 51370	070316	000200	000000
 51371	070317	001000	000000
 51372	070320	002000	000000
 51373	070321	004000	000000
 51374	070322	010000	000000
 51375	070323	020000	000000
 51376	070324	040000	000000
 51377	070325	100000	000000
 51378	070326	200000	000000
 51379	070327	000000	001234
 51380	070330	000000	777777
DFKAA PDP-10 KL10 BASIC INSTRUCTION DIAGNOSTIC (1) VER 0,2	MACRO %53B(1254)-4 11:50 11-Nov-24 Page 1-1
STOR	KLM	13-Jan-89 11:46		*STOR* RESERVED STORAGE, JULY 19,1977

 51381	070331	777777	000000
 51382	070332	707070	707070
 51383	070333	777777	777776
 51384	070334	777777	777775
 51385	070335	777777	777773
 51386	070336	777777	777767
 51387	070337	777777	777757
 51388	070340	777777	777737
 51389	070341	777777	777677
 51390	070342	777777	777577
 51391	070343	777777	777377
 51392	070344	777777	776777
 51393	070345	777777	775777
 51394	070346	777777	773777
 51395	070347	777777	767777
 51396	070350	777777	757777
 51397	070351	777777	737777
 51398	070352	777777	677777
 51399	070353	777777	577777
 51400	070354	777777	377777
 51401	070355	777776	777777
 51402	070356	777775	777777
 51403	070357	777773	777777
 51404	070360	777767	777777
 51405	070361	777757	777777
 51406	070362	777737	777777
 51407	070363	777677	777777
 51408	070364	777577	777777
 51409	070365	777377	777777
 51410	070366	776777	777777
 51411	070367	775777	777777
 51412	070370	773777	777777
 51413	070371	767777	777777
 51414	070372	757777	777777
 51415	070373	737777	777777
 51416	070374	677777	777777
 51417	070375	577777	777777
 51418	070376	123456	765432
 51419	070377	123456	000000
 51420	070400	000000	123456
 51421	070401	600000	000000
 51422	070402	700000	000000
 51423	070403	740000	000000
 51424	070404	760000	000000
 51425	070405	770000	000000
 51426	070406	774000	000000
 51427	070407	776000	000000
 51428	070410	777400	000000
 51429	070411	777600	000000
 51430	070412	777700	000000
 51431	070413	777740	000000
 51432	070414	777760	000000
 51433	070415	777770	000000
 51434	070416	777774	000000
 51435	070417	777776	000000
DFKAA PDP-10 KL10 BASIC INSTRUCTION DIAGNOSTIC (1) VER 0,2	MACRO %53B(1254)-4 11:50 11-Nov-24 Page 1-2
STOR	KLM	13-Jan-89 11:46		*STOR* RESERVED STORAGE, JULY 19,1977

 51436	070420	777777	400000
 51437	070421	777777	600000
 51438	070422	777777	700000
 51439	070423	777777	740000
 51440	070424	777777	760000
 51441	070425	777777	770000
 51442	070426	777777	774000
 51443	070427	777777	776000
 51444	070430	777777	777000
 51445	070431	777777	777400
 51446	070432	777777	777600
 51447	070433	777777	777700
 51448	070434	777777	777740
 51449	070435	777777	777760
 51450	070436	777777	777770
 51451	070437	777777	777774
 51452	070440	000002	000002
 51453	070441	000004	000004
 51454	070442	000010	000010
 51455	070443	000020	000020
 51456	070444	000040	000040
 51457	070445	000100	000100
 51458	070446	000200	000200
 51459	070447	000400	000400
 51460	070450	001000	001000
 51461	070451	002000	002000
 51462	070452	004000	004000
 51463	070453	010000	010000
 51464	070454	020000	020000
 51465	070455	040000	040000
 51466	070456	100000	100000
 51467	070457	200000	200000
 51468	070460	400000	400000
 51469	070461	777776	777776
 51470	070462	777775	777775
 51471	070463	777773	777773
 51472	070464	777767	777767
 51473	070465	777757	777757
 51474	070466	777737	777737
 51475	070467	777677	777677
 51476	070470	777577	777577
 51477	070471	777377	777377
 51478	070472	776777	776777
 51479	070473	775777	775777
 51480	070474	773777	773777
 51481	070475	767777	767777
 51482	070476	757777	757777
 51483	070477	737777	737777
 51484	070500	677777	677777
 51485	070501	577777	577777
 51486	070502	377777	377777
 51487	070503	000001	777776
 51488	070504	777776	000001
 51489	070505	000002	777775
 51490	070506	777775	000002
DFKAA PDP-10 KL10 BASIC INSTRUCTION DIAGNOSTIC (1) VER 0,2	MACRO %53B(1254)-4 11:50 11-Nov-24 Page 1-3
STOR	KLM	13-Jan-89 11:46		*STOR* RESERVED STORAGE, JULY 19,1977

 51491	070507	000004	777773
 51492	070510	777773	000004
 51493	070511	000010	777767
 51494	070512	777767	000010
 51495	070513	000020	777757
 51496	070514	777757	000020
 51497	070515	000040	777737
 51498	070516	777737	000040
 51499	070517	000100	777677
 51500	070520	777677	000100
 51501	070521	000200	777577
 51502	070522	777577	000200
 51503	070523	000400	777377
 51504	070524	777377	000400
 51505	070525	001000	776777
 51506	070526	776777	001000
 51507	070527	002000	775777
 51508	070530	775777	002000
 51509	070531	004000	773777
 51510	070532	773777	004000
 51511	070533	010000	767777
 51512	070534	767777	010000
 51513	070535	020000	757777
 51514	070536	757777	020000
 51515	070537	040000	737777
 51516	070540	737777	040000
 51517	070541	100000	677777
 51518	070542	677777	100000
 51519	070543	200000	577777
 51520	070544	577777	200000
 51521	070545	400000	377777
 51522	070546	377777	400000
 51523	070547	000000	707070
 51524	070550	707070	777777
 51525	070551	070707	777777
 51526	070552	070707	070710
 51527	070553	777777	777772
 51528	070554	777777	777766
 51529	070555	777777	777756
 51530	070556	777777	777736
 51531	070557	777777	777676
 51532	070560	777777	777576
 51533	070561	777777	777376
 51534	070562	777777	776776
 51535	070563	777777	775776
 51536	070564	777777	773776
 51537	070565	777777	767776
 51538	070566	777777	757776
 51539	070567	777777	737776
 51540	070570	777777	677776
 51541	070571	777777	577776
 51542	070572	777777	377776
 51543	070573	777775	777776
 51544	070574	777773	777776
 51545	070575	777767	777776
DFKAA PDP-10 KL10 BASIC INSTRUCTION DIAGNOSTIC (1) VER 0,2	MACRO %53B(1254)-4 11:50 11-Nov-24 Page 1-4
STOR	KLM	13-Jan-89 11:46		*STOR* RESERVED STORAGE, JULY 19,1977

 51546	070576	777757	777776
 51547	070577	777737	777776
 51548	070600	777677	777776
 51549	070601	777577	777776
 51550	070602	777377	777776
 51551	070603	776777	777776
 51552	070604	775777	777776
 51553	070605	773777	777776
 51554	070606	767777	777776
 51555	070607	757777	777776
 51556	070610	737777	777776
 51557	070611	677777	777776
 51558	070612	577777	777776
 51559	070613	377777	777776
 51560	070614	252525	252525
 51561	070615	254 04 0 00 046573
 51562	070616	201 01 0 00 050047
 51563	070617	201 01 0 00 000001
 51564	070620	201 01 0 00 777777
 51565	070621	256 00 0 00 070620
 51566	070622	256 00 0 00 070621
 51567	070623	256 00 0 00 070622
 51568	070624	256 00 0 00 070623
 51569	070625	200 01 0 00 070254
 51570	070626	334 00 0 00 000000
 51571	070627	310 00 0 00 000000
 51572	070630	201 01 0 00 001234
 51573	070631	050454	050453
 51574	070632	050463	050462
 51575	070633	254 00 0 00 050526
 51576	070634	000001	000002
 51577	070635	135531	246642
 51578	070636	135246	246135
 51579	070637	123456	123456
 51580	070640	777000	707070
 51581	070641	777000	000777
 51582	070642	123000	000456
 51583	070643	121212	000000
 51584	070644	777350	777776
 51585	070645	000767	777777
 51586	070646	777010	000000
 51587	070647	000777	770077
 51588	070650	123456	246123
 51589	070651	123000	006100
 51590	070652	000100	777600
 51591	070653	123456	246135
 51592	070654	123456	040104
 51593	070655	123321	456654
 51594	070656	770077	007770
 51595	070657	003300	450004
 51596	070660	123456	663322
 51597	070661	777000	700770
 51598	070662	000456	063002
 51599	070663	123456	777776
 51600	070664	010203	123450
DFKAA PDP-10 KL10 BASIC INSTRUCTION DIAGNOSTIC (1) VER 0,2	MACRO %53B(1254)-4 11:50 11-Nov-24 Page 1-5
STOR	KLM	13-Jan-89 11:46		*STOR* RESERVED STORAGE, JULY 19,1977

 51601	070665	000777	123456
 51602	070666	000777	517067
 51603	070667	707077	555666
 51604	070670	624421	230254
 51605	070671	707070	123456
 51606	070672	707070	767577
 51607	070673	123456	777666
 51608	070674	777001	123470
 51609	070675	777457	777676
 51610	070676	777000	123456
 51611	070677	000777	050321
 51612	070700	777007	771100
 51613	070701	063202	123477
 51614	070702	000570	004200
 51615	070703	707070	123426
 51616	070704	070707	777032
 51617	070705	123456	123457
 51618	070706	707633	121212
 51619	070707	153512	775132
 51620	070710	000777	654321
 51621	070711	654321	012345
 51622	070712	777000	123477
 51623	070713	000777	775701
 51624	070714	707070	707072
 51625	070715	707777	757372
 51626	070716	777777	070707
 51627	070717	777777	133777
 51628	070720	707070	070706
 51629	070721	777777	707777
 51630	070722	123456	770077
 51631	070723	777001	123324
 51632	070724	654777	657753
 51633	070725	123456	707070
 51634	070726	123456	123422
 51635	070727	707070	717171
 51636	070730	123422	000000
 51637	070731	123456	707076
 51638	070732	707076	000000
 51639	070733	123456	777777
 51640	070734	123456	135724
 51641	070735	765432	246135
 51642	070736	246135	777777
 51643	070737	123123	456765
 51644	070740	456765	777777
 51645	070741	707076	777777
 51646	070742	765432	777777
 51647	070743	365432	123456
 51648	070744	365432	000000
 51649	070745	123456	701234
 51650	070746	123123	246135
 51651	070747	123123	123123
 51652	070750	777777	701234
 51653	070751	765432	107654
 51654	070752	777777	765432
 51655	070753	777777	123456
DFKAA PDP-10 KL10 BASIC INSTRUCTION DIAGNOSTIC (1) VER 0,2	MACRO %53B(1254)-4 11:50 11-Nov-24 Page 1-6
STOR	KLM	13-Jan-89 11:46		*STOR* RESERVED STORAGE, JULY 19,1977

 51656	070754	076543	654321
 51657	070755	076543	654323
 51658	070756	076547	654321
 51659	070757	123456	701034
 51660	070760	123454	701234
 51661	070761	252525	707070
 51662	070762	020406	501210
 51663	070763	654321	076543
 51664	070764	754321	076543
 51665	070765	023456	701234
 51666	070766	076543	657321
 51667	070767	120456	701234
 51668	070770	121052	000204
 51669	070771	701234	123456
 51670	070772	654321	076547
 51671	070773	123456	701230
 51672	070774	077543	654321
 51673	070775	123456	700234
 51674	070776	123456	701237
 51675	070777	123456	701134
 51676	071000	123756	701234
 51677	071001	123455	701234
 51678	071002	624426	553711
 51679	071003	774777	777777
 51680	071004	371173	006244
 51681	071005	123456	701334
 51682	071006	123456	070234
 51683	071007	123457	070234
 51684	071010	123457	701234
 51685	071011	373577	707274
 51686	071012	176543	654321
 51687	071013	000016	541320
 51688	071014	000001	000017
 51689	071015	312 00 0 00 000001
 51690	071016	256 00 0 00 071015
 51691	071017	256 00 0 00 071016
 51692	071020	254 00 0 00 056716
 51693	071021	265 03 0 00 056723
 51694	071022	256 00 0 00 071021
 51695	071023	256 00 0 00 071022
 51696	071024	270 06 0 04 000001
 51697	071025	331 01 0 00 000002
 51698	071026	331 03 0 00 000006
 51699	071027	777776	000005
 51700	071030	253 03 0 00 056767
 51701	071031	777777	000006
 51702	071032	253 03 0 00 056775
 51703	071033	000000	000007
 51704	071034	172737	405060
 51705	071035	525252	525252
 51706	071036	230703	603700
 51707	071037	023070	360370
 51708	071040	007603	607062
 51709	071041	200760	360706
 51710	071042	074076	004616
DFKAA PDP-10 KL10 BASIC INSTRUCTION DIAGNOSTIC (1) VER 0,2	MACRO %53B(1254)-4 11:50 11-Nov-24 Page 1-7
STOR	KLM	13-Jan-89 11:46		*STOR* RESERVED STORAGE, JULY 19,1977

 51711	071043	074161	440174
 51712	071044	770037	600377
 51713	071045	307036	037007
 51714	071046	700376	003772
 51715	071047	776003	760077
 51716	071050	760037	600770
 51717	071051	076036	070627
 51718	071052	160740	760176
 51719	071053	007740	077646
 51720	071054	400774	017601
 51721	071055	740741	614577
 51722	071056	000000	000252
 51723	071057	000000	000525
 51724	071060	000000	000230
 51725	071061	000000	017777
 51726	071062	000000	005252
 51727	071063	000000	012525
 51728	071064	000000	004616
 51729	071065	000000	000174
 51730	071066	123456	654321
 51731	071067	265 00 0 00 070200
 51732	071070	265 00 0 00 062523
 51733	071071	265 00 0 00 062541
 51734	071072	265 00 0 00 062557
 51735	071073	265 00 0 00 062575
 51736	071074	265 00 0 00 062613
 51737	071075	265 00 0 00 062631
 51738	071076	265 00 0 00 062647
 51739	071077	265 00 0 00 062672
 51740	071100	265 00 0 00 062707
 51741	071101	265 00 0 00 062724
 51742	071102	265 00 0 00 062741
 51743	071103	265 00 0 00 062756
 51744	071104	265 00 0 00 062773
 51745	071105	265 00 0 00 063010
 51746	071106	265 00 0 00 063033
 51747	071107	265 00 0 00 063047
 51748	071110	265 00 0 00 063063
 51749	071111	265 00 0 00 063077
 51750	071112	265 00 0 00 063113
 51751	071113	265 00 0 00 063127
 51752	071114	265 00 0 00 063143
 51753	071115	265 00 0 00 063173
 51754	071116	265 00 0 00 063217
 51755	071117	265 00 0 00 063243
 51756	071120	265 00 0 00 063267
 51757	071121	265 00 0 00 063313
 51758	071122	265 00 0 00 063337
 51759	071123	265 00 0 00 063363
 51760	071124	265 00 0 00 063407
 51761	071125	265 00 0 00 063433
 51762	071126	265 00 0 00 063457
 51763	071127	265 00 0 00 063503
 51764	071130	265 00 0 00 063527
 51765	071131	265 00 0 00 063553
DFKAA PDP-10 KL10 BASIC INSTRUCTION DIAGNOSTIC (1) VER 0,2	MACRO %53B(1254)-4 11:50 11-Nov-24 Page 1-8
STOR	KLM	13-Jan-89 11:46		*STOR* RESERVED STORAGE, JULY 19,1977

 51766	071132	265 00 0 00 063577
 51767	071133	265 00 0 00 063623
 51768	071134	265 00 0 00 063647
 51769	071135	265 00 0 00 063673
 51770	071136	265 00 0 00 063717
 51771	071137	265 00 0 00 063743
 51772	071140	265 00 0 00 063767
 51773	071141	265 00 0 00 064014
 51774	071142	352 00 0 00 000000
 51775	071143	265 01 0 00 064037
 51776	071144	332 00 0 00 000000
 51777	071145	265 01 0 00 064061
 51778	071146	265 01 0 00 064103
 51779	071147	265 01 0 00 064125
 51780	071150	265 01 0 00 064147
 51781	071151	265 01 0 00 064171
 51782	071152	265 01 0 00 064213
 51783	071153	265 01 0 00 064235
 51784	071154	265 01 0 00 064257
 51785	071155	265 01 0 00 064301
 51786	071156	265 01 0 00 064323
 51787	071157	265 01 0 00 064345
 51788	071160	265 01 0 00 064367
 51789	071161	265 01 0 00 064411
 51790	071162	265 01 0 00 064426
 51791	071163	265 01 0 00 064451
 51792	071164	265 01 0 00 064474
 51793	071165	265 01 0 00 064517
 51794	071166	265 01 0 00 064542
 51795	071167	265 01 0 00 064565
 51796	071170	265 01 0 00 064610
 51797	071171	265 01 0 00 065360
 51798	071172	265 01 0 00 065410
 51799	071173	265 01 0 00 065440
 51800	071174	265 01 0 00 065470
 51801	071175	265 01 0 00 065520
 51802	071176	265 01 0 00 065550
 51803	071177	265 01 0 00 065600
 51804	071200	265 01 0 00 065622
 51805	071201	265 01 0 00 065646
 51806	071202	265 01 0 00 065672
 51807	071203	003000	000000
 51808	071204	265 01 0 00 065716
 51809	071205	265 01 0 00 065742
 51810	071206	005000	000000
 51811	071207	265 01 0 00 065766
 51812	071210	006000	000000
 51813	071211	265 01 0 00 066012
 51814	071212	007000	000000
 51815	071213	265 01 0 00 066036
 51816	071214	265 01 0 00 066062
 51817	071215	011000	000000
 51818	071216	265 01 0 00 066106
 51819	071217	012000	000000
 51820	071220	265 01 0 00 066132
DFKAA PDP-10 KL10 BASIC INSTRUCTION DIAGNOSTIC (1) VER 0,2	MACRO %53B(1254)-4 11:50 11-Nov-24 Page 1-9
STOR	KLM	13-Jan-89 11:46		*STOR* RESERVED STORAGE, JULY 19,1977

 51821	071221	013000	000000
 51822	071222	265 01 0 00 066156
 51823	071223	014000	000000
 51824	071224	265 01 0 00 066202
 51825	071225	015000	000000
 51826	071226	265 01 0 00 066226
 51827	071227	016000	000000
 51828	071230	265 01 0 00 066252
 51829	071231	017000	000000
 51830	071232	265 01 0 00 066276
 51831	071233	265 01 0 00 066322
 51832	071234	021000	000000
 51833	071235	265 01 0 00 066346
 51834	071236	022000	000000
 51835	071237	265 01 0 00 066372
 51836	071240	023000	000000
 51837	071241	265 01 0 00 066416
 51838	071242	024000	000000
 51839	071243	265 01 0 00 066442
 51840	071244	025000	000000
 51841	071245	265 01 0 00 066466
 51842	071246	026000	000000
 51843	071247	265 01 0 00 066512
 51844	071250	027000	000000
 51845	071251	265 01 0 00 066536
 51846	071252	030000	000000
 51847	071253	265 01 0 00 066562
 51848	071254	031000	000000
 51849	071255	265 01 0 00 066606
 51850	071256	032000	000000
 51851	071257	265 01 0 00 066632
 51852	071260	033000	000000
 51853	071261	265 01 0 00 066656
 51854	071262	034000	000000
 51855	071263	265 01 0 00 066702
 51856	071264	035000	000000
 51857	071265	265 01 0 00 066726
 51858	071266	036000	000000
 51859	071267	265 01 0 00 066752
 51860	071270	037000	000000
 51861	071271	254 00 0 00 066777
 51862	071272	254 00 0 00 067016
 51863	071273	254 00 0 00 067035
 51864	071274	254 00 0 00 067054
 51865	071275	254 00 0 00 067073
 51866	071276	254 00 0 00 067112
 51867	071277	254 00 0 00 067131
 51868	071300	254 00 0 00 067150
 51869	071301	254 00 0 00 067167
 51870	071302	254 00 0 00 067206
 51871	071303	254 00 0 00 067225
 51872	071304	254 00 0 00 067244
 51873	071305	254 00 0 00 067263
 51874	071306	254 00 0 00 067302
 51875	071307	254 00 0 00 067321
DFKAA PDP-10 KL10 BASIC INSTRUCTION DIAGNOSTIC (1) VER 0,2	MACRO %53B(1254)-4 11:50 11-Nov-24 Page 1-10
STOR	KLM	13-Jan-89 11:46		*STOR* RESERVED STORAGE, JULY 19,1977

 51876	071310	254 00 0 00 067340
 51877	071311	254 00 0 00 067357
 51878	071312	254 00 0 00 067376
 51879	071313	254 00 0 00 067415
 51880	071314	254 00 0 00 067434
 51881	071315	254 00 0 00 067453
 51882	071316	254 00 0 00 067472
 51883	071317	254 00 0 00 067513
 51884	071320	254 00 0 00 067526
 51885	071321	254 00 0 00 067541
 51886	071322	265 11 0 00 067556
 51887	071323	254 00 0 00 067554
 51888	071324	265 11 0 00 067577
 51889	071325	254 00 0 00 067575
 51890	071326	265 11 0 00 067620
 51891	071327	254 00 0 00 067616
 51892	071330	265 11 0 00 067641
 51893	071331	254 00 0 00 067637
 51894	071332	265 11 0 00 067662
 51895	071333	254 00 0 00 067660
 51896	071334	265 11 0 00 067703
 51897	071335	254 00 0 00 067701
 51898	071336	265 11 0 00 067724
 51899	071337	254 00 0 00 067722
 51900	071340	265 11 0 00 067745
 51901	071341	254 00 0 00 067743
 51902	071342	254 00 0 00 070005
 51903	071343	004000	070060
 51904	071344	265 01 0 00 070160
 51905	071345	265 01 0 00 070135
 51906						LIST
 51907	071346	000000	000000		ENDSLD:	0
 51908
 51909					IFDEF	DEBUG,<
 51910					PATCH:	BLOCK DEBUG		;PATCHING AREA
 51911					>
 51912
 51913					;PROGRAM VARIABLES
 51914	071347					VAR
 51915
 51916					IFDEF	PGMEND,<
 51917	071355	000000	000000		END:	0
 51918			030000			END	BEGIN	>

NO ERRORS DETECTED

PROGRAM BREAK IS 000000
ABSOLUTE BREAK IS 071356
CPU TIME USED 00:03.223

37P CORE USED

A00	   913#
A100	   968#
A1000	  1073#
A10000	  7703#
A10100	  8121#
A10200	  8544#
A10300	  8564#
A10400	  9471#
A10500	  9494#
A10600	  9515#
A10700	  9537#
A1100	  1088#
A11000	  9589#
A11100	 10702#
A11200	 11686#
A11300	 12587#
A11400	 13083#
A11500	 13763#
A11600	 13782#
A11700	 13797#
A1200	  1101#
A12000	 14465#
A12100	 14479#
A12200	 14502#
A12300	 14520#
A12400	 14538#
A12500	   914#
A12600	   958#
A12700	   950#
A1300	  1115#
A13000	  8578#
A13100	  2045#
A13200	 10721#
A13300	  9555#
A13400	  9573#
A13500	 13580#
A13600	 13597#
A13700	 13614#
A1400	  1129#
A14000	 13630#
A14100	 13647#
A14200	 13664#
A14300	 13680#
A14400	 13697#
A14500	 13714#
A14600	 13730#
A14700	 13747#
A1500	  1143#
A15000	   929#
A15100	   940#
A1600	  1157#
A1700	  1171#
A200	   981#
A2000	  1185#
A2100	  1199#
A2200	  1212#
A2300	  1226#
A2400	  1240#
A2500	  1254#
A2600	  1267#
A2700	  1281#
A300	   995#
A3000	  1295#
A3100	  1307#
A3200	  2012#
A3300	  2030#
A3400	  2058#
A3500	  2083#
A3600	  2101#
A3700	  2119#
A400	  1011#
A4000	  2170#
A4100	  2186#
A4200	  2331#
A4300	  2349#
A4400	  2367#
A4500	  2134#
A4600	  2149#
A4700	  2386#
A500	  1026#
A5000	  2402#
A5100	  2418#
A5200	  2433#
A5300	  2450#
A5400	  2470#
A5500	  2483#
A5600	  2843#
A5700	  3207#
A600	  1045#
A6000	  3223#
A6100	  3243#
A6200	  3261#
A6300	  3282#
A6400	  3295#
A6500	  4364#
A6600	  5144#
A6700	  5162#
A700	  1060#
A7000	  5182#
A7100	  5199#
A7200	  5215#
A7300	  5229#
A7400	  5969#
A7500	  6894#
A7600	  7672#
A7700	  7689#
ABORT	    96#
AC	  2184#	  2217	  2217#	  2218	  2218#	  2220	  2221	  2222	  2246	  2246#	  2247	  2249	  2250	  2251
	  2275	  2275#	  2276	  2278	  2279	  2280	  2304	  2304#	  2305	  2307	  2308	  2309	 31460#	 31461
	 31466	 31467	 31469	 31470	 31472	 31473	 31475	 31476	 31478	 31479	 31481	 31482	 31484	 31485
	 31487	 31488	 31490	 31491	 31493	 31494	 31495	 50828#	 50860#	 50892#	 50924#	 50956#	 50988#	 51020#
	 51052#
AC0	   703#
ALTMGO	   450#
AMCLRB	   364#
ANXM	   364#
APR	   800	   801	   802	 42946	 43492	 43500	 43508	 43515	 43516	 43522	 43523	 43529	 43530	 43560
	 43561	 43567	 43568	 43575	 43576	 43582	 43583	 43586	 43587	 43590	 43591	 43687	 43688	 43689
	 43693	 43694	 46004	 46025	 46046	 46067	 46088	 46110	 46131	 46305	 46322	 46339	 46356	 46373
	 46390	 46407	 47976	 48019	 48041	 48063	 48085	 48107	 48129	 48151	 48169	 48179	 48181	 48207
	 48214	 48227	 48234	 48247	 48254	 48267	 48274	 48287	 48294	 48307	 48314	 48327	 48334	 48347
	 48354	 48367	 48374	 48387	 48394	 48407	 48414	 48427	 48434	 48447	 48454	 48467	 48474	 48487
	 48494	 48507	 48514	 48527	 48534	 48547	 48554	 48582	 48622	 48662	 48702	 48742	 48782	 48822
AROV	   364#	 30464	 30661	 30665
AROVTP	   364#
AROVU	   364#
AST	   565#
ATSIN	   566#
B100	 14561#
B1000	 14701#
B10000	 19516#
B10100	 19536#
B10200	 19552#
B10300	 19567#
B10400	 19583#
B10500	 19599#
B10700	 19627#
B1100	 14717#
B11000	 19642#
B11100	 19658#
B11200	 19673#
B11300	 19689#
B11500	 19707#
B11600	 19729#
B11700	 19752#
B1200	 14733#
B12100	 19767#
B12200	 19784#
B12300	 19804#
B12400	 19828#
B12500	 19844#
B12600	 19863#
B12700	 19886#
B1300	 14754#
B13000	 19903#
B13100	 19921#
B13200	 19937#
B13300	 19963#
B13400	 19984#
B13600	 20002#
B1400	 14775#
B14000	 20018#
B14100	 20041#
B14200	 20063#
B14400	 20087#
B14500	 20103#
B14600	 20121#
B14700	 20136#
B1500	 14799#
B15000	 20160#
B15400	 20181#
B15500	 20198#
B15600	 20219#
B15700	 20235#
B1600	 14818#
B16000	 20257#
B16100	 20272#
B16200	 20289#
B16300	 20315#
B16400	 20337#
B16500	 20359#
B16600	 20374#
B16700	 20398#
B1700	 15746#
B17000	 20414#
B17300	 20432#
B17400	 20445#
B17700	 20459#
B200	 14582#
B2000	 16411#
B20000	 20471#
B20400	 20486#
B20600	 20501#
B20700	 20516#
B2100	 17080#
B21000	 20536#
B21100	 20557#
B21400	 20574#
B21500	 20608#
B21600	 20625#
B21700	 20643#
B2200	 17459#
B22200	 20660#
B22300	 20678#
B22400	 20701#
B22500	 20719#
B22600	 20736#
B22700	 20755#
B2300	 17839#
B23000	 20778#
B23200	 20799#
B23400	 20816#
B23600	 20832#
B23700	 20849#
B2400	 18314#
B24000	 20864#
B24300	 20886#
B24400	 20908#
B24500	 20925#
B24600	 20941#
B24700	 20957#
B2500	 18794#
B25000	 20978#
B25100	 20995#
B25200	 21011#
B25300	 21028#
B25400	 21044#
B25500	 21061#
B25600	 21077#
B25700	 21094#
B2600	 18818#
B26000	 21109#
B26100	 21126#
B26200	 21141#
B26300	 21157#
B26500	 21178#
B26600	 21199#
B26700	 21214#
B2700	 18838#
B27000	 21235#
B27100	 21255#
B27200	 21271#
B27300	 21286#
B27400	 21307#
B27500	 21322#
B27600	 21338#
B27700	 21353#
B300	 14607#
B3000	 18855#
B30000	 21369#
B30100	 21384#
B30400	 21405#
B30500	 21420#
B30600	 21441#
B30700	 21462#
B3100	 18871#
B31000	 21478#
B31100	 21493#
B31200	 21509#
B31300	 21524#
B31400	 21540#
B31500	 21555#
B31600	 21571#
B31700	 21586#
B3200	 18886#
B32000	 21602#
B32100	 21617#
B32200	 21641#
B32300	 21656#
B32600	 21677#
B32700	 21692#
B3300	 18907#
B33000	 21715#
B33100	 21736#
B33200	 21752#
B33300	 21768#
B33400	 21789#
B33500	 21810#
B33600	 21826#
B33700	 21842#
B34000	 21863#
B34100	 21879#
B34200	 21895#
B34300	 21910#
B34400	 21926#
B34500	 21941#
B34600	 21957#
B34700	 21972#
B3500	 18927#
B35000	 21988#
B35500	 22011#
B35600	 22036#
B35700	 22053#
B3600	 18950#
B36000	 22083#
B36100	 22099#
B36200	 22120#
B36300	 22140#
B36400	 22161#
B36500	 22181#
B36600	 22202#
B3700	 18964#
B37100	 22222#
B37200	 22244#
B37300	 22265#
B37400	 22281#
B37500	 22296#
B37600	 22312#
B37700	 22327#
B400	 14628#
B40000	 22343#
B40100	 22358#
B40200	 22374#
B40300	 22390#
B40400	 22407#
B40700	 22423#
B41000	 22445#
B41100	 22467#
B41200	 22484#
B41500	 22500#
B41600	 22522#
B42000	 22545#
B42200	 22562#
B42300	 22578#
B42500	 22603#
B42700	 22618#
B4300	 18979#
B43000	 22641#
B43100	 22663#
B43400	 22680#
B43500	 22695#
B43600	 22718#
B43700	 22738#
B4400	 19001#
B44000	 22761#
B44100	 22777#
B44200	 22795#
B44300	 22812#
B44500	 22835#
B44600	 22855#
B44700	 22872#
B4500	 19019#
B45000	 22887#
B45100	 22903#
B45200	 22918#
B45400	 22944#
B45500	 22972#
B45600	 23732#
B45700	 24494#
B4600	 19043#
B46000	 25289#
B4700	 19066#
B500	 14644#
B5000	 19087#
B5100	 19113#
B5200	 19141#
B5300	 19159#
B5500	 19175#
B5600	 19199#
B5700	 19215#
B600	 14664#
B6000	 19232#
B6100	 19253#
B6200	 19269#
B6300	 19292#
B6400	 19314#
B6500	 19331#
B6600	 19347#
B6700	 19364#
B700	 14680#
B7000	 19380#
B7100	 19404#
B7200	 19426#
B7300	 19442#
B7400	 19457#
B7500	 19473#
B7600	 19489#
BEGEND	   446#	 42934	 51186
BEGIN	    39	    40	   377#	   746	   868	 51918
BEGIN1	   393#	   447
BEGIOT	 42925#
BELL	   569#
BIGPI1	 44643#
BIGPI2	 44754#
BIGPI3	 44865#
BIGPI4	 44976#
BIGPI5	 45087#
BIGPI6	 45198#
BIGPI7	 45309#
BIGPIX	 45420#
BIGPIY	 45531#
BIGPIZ	 45642#
BIS	   364#	 32734	 32743	 32758	 32762	 32776	 32782	 32797	 32802	 41437	 41443	 43713	 43716
C100	 26093#
C1000	 27145#
C10000	 30679#
C10100	 30701#
C10200	 30722#
C10300	 30744#
C10400	 30762#
C10500	 30778#
C1100	 27487#
C11200	 30794#
C11300	 30809#
C11400	 30823#
C11500	 30838#
C11600	 30851#
C11700	 30865#
C1200	 27503#
C12000	 30880#
C12100	 30897#
C12200	 30933#
C12300	 30950#
C12301	 30987#
C12600	 31025#
C12700	 31040#
C1300	 27958#
C13100	 31054#
C13200	 31069#
C13300	 31084#
C13400	 31121#
C13600	 31160#
C13700	 31180#
C1400	 28416#
C14000	 31199#
C14100	 31223#
C14200	 31242#
C14500	 31269#
C14600	 31283#
C14700	 31298#
C1500	 28432#
C15000	 31311#
C15100	 31325#
C15200	 31340#
C15300	 31354#
C15400	 31368#
C15500	 31386#
C15600	 31401#
C15700	 31416#
C1600	 28887#
C16000	 31430#
C16100	 31445#
C16200	 31460#
C16201	 31508#
C16202	 31545#
C16400	 31584#
C16500	 31599#
C16600	 31613#
C16700	 31628#
C1700	 29352#
C17000	 31644#
C17100	 31666#
C17200	 31681#
C17300	 31697#
C17400	 31711#
C17500	 31727#
C17600	 31743#
C17700	 31759#
C200	 26109#
C2000	 29584#
C20000	 31774#
C20100	 31790#
C20200	 31804#
C20300	 31820#
C20400	 31842#
C20500	 31858#
C20600	 31874#
C20700	 31890#
C2100	 29814#
C21000	 31903#
C21100	 31921#
C21200	 31941#
C21300	 31960#
C21400	 31980#	 31983	 31986
C21500	 32000#	 32004	 32006
C21600	 32019#	 32022	 32023
C21700	 32035#	 32037	 32038
C2200	 29830#
C22000	 32062	 32101#
C22100	 32117#
C22200	 32132#
C22300	 32148#
C22400	 32163#
C22500	 32179#
C22600	 32195#
C22700	 32212#
C23000	 32231#
C23100	 32253#
C23200	 32274#
C23300	 32298#
C23400	 32319#
C23500	 32342#
C23600	 32363#	 32367
C23700	 32385#
C2400	 29846#
C24000	 32405#
C2410	 29855#
C24100	 32420#
C24200	 32437#
C24300	 32452#
C24400	 32467#
C24500	 32481#
C24600	 32498#
C24700	 32514#
C25000	 32532#
C25100	 32549#
C25200	 32567#
C25300	 32584#
C25400	 32602#
C25500	 32617#
C25600	 32630#
C25700	 32645#
C26200	 32662#
C26300	 32680#
C26400	 32696#
C26500	 32713#
C26600	 32732#
C26700	 32756#
C2700	 29870#
C27000	 32774#
C27001	 32795#
C2710	 29879#
C27100	 32815#
C27200	 41131#
C27300	 41147#
C27400	 41161#
C27500	 41177#
C27600	 41192#
C27700	 41209#
C2A	 46429#
C2B	 46448	 46458#
C2C	 46485	 46495#
C2D	 46522	 46532#
C2E	 46559	 46569#
C2F	 46596	 46606#
C2G	 46633	 46643#
C2H	 46670	 46680#
C2I	 46707	 46717#
C2J	 46744	 46754#
C2K	 46781	 46791#
C2L	 46818	 46828#
C2M	 46855	 46865#
C2N	 46892	 46902#
C2O	 46929	 46939#
C2P	 46966	 46976#
C2Q	 47003	 47013#
C2R	 47040	 47050#
C2S	 47077	 47087#
C2T	 47114	 47124#
C2U	 47151	 47161#
C2V	 47188	 47199#
C300	 26123#
C3000	 29893#
C30000	 41225#
C30100	 41243#
C30101	 41259#
C30200	 41276#
C30300	 41295#
C30400	 41315#
C30500	 41336#
C30600	 41353#
C3100	 29917#
C31000	 41370#
C3110	 29934#
C31100	 41384#
C31400	 41404#
C31500	 41418#
C31501	 41435#
C31502	 41456#
C31600	 41474#
C31700	 41489#
C3200	 29948#
C3210	 29957#
C32300	 41504#
C32400	 41519#
C32500	 41536#
C32600	 41554#
C3300	 29972#
C33100	 41571#
C33300	 41589#
C33310	 41599#
C33400	 41612#
C33401	 41629#
C33500	 41647#
C33600	 41663#
C33700	 41678#
C33701	 41696#
C3400	 29988#
C34000	 41714#
C34100	 41727#
C34200	 41739#
C34300	 41755#
C34400	 41773#
C34500	 41790#
C34600	 41807#
C34610	 41816#
C34700	 41829#
C34710	 41836#
C3500	 30005#
C35000	 41849#
C35100	 41866#
C35200	 41883#
C35300	 41900#
C35400	 41915#
C35500	 41934#
C35600	 41959#
C35700	 41982#
C3600	 30023#
C36000	 42004#
C36100	 42028#
C36200	 42051#
C36300	 42075#
C36400	 42098#
C36500	 42121#
C36600	 42143#
C36700	 42167#
C3700	 30039#
C37000	 42190#
C37100	 42214#
C37200	 42236#
C37300	 42258#
C37400	 42280#
C37500	 42303#
C37600	 42325#
C37700	 42348#
C400	 26138#
C4000	 30055#
C40000	 42370#
C40100	 42392#
C40200	 42414#
C40300	 42437#
C40400	 42459#
C40500	 42482#
C40600	 42505#
C40700	 42529#
C4100	 30073#
C41000	 42552#
C41100	 42576#
C41200	 42599#
C41300	 42623#
C41400	 42646#
C41500	 42670#
C41600	 42693#
C41700	 42717#
C4200	 30089#
C42000	 42740#
C42100	 42764#
C42200	 42787#
C42300	 42811#
C42400	 42834#
C42500	 42858#
C42600	 42881#
C42700	 42905#
C4300	 30107#
C4400	 30125#
C4500	 30141#
C4600	 30156#
C4700	 30171#
C500	 26155#
C5000	 30188#
C50000	 32842#
C50100	 32867#
C50110	 32890#
C50200	 32913#
C50300	 32928#
C50301	 32952#
C50400	 32981#
C50401	 33005#
C50410	 33034#
C50500	 33057#
C50501	 33071#
C50600	 33086#
C50700	 33111#
C50710	 33135#
C5100	 30204#
C51000	 33161#
C51100	 33177#
C51101	 33200#
C51200	 33228#
C51201	 33251#
C51300	 33283#
C51310	 33299#
C51320	 33315#
C51400	 33332#
C51410	 33347#
C51420	 33363#
C51500	 33379#
C51510	 33395#
C51520	 33410#
C51600	 33426#
C51610	 33442#
C51620	 33458#
C51700	 33473#
C51710	 33489#
C51720	 33505#
C5200	 30220#
C52000	 33521#
C52010	 33537#
C52020	 33554#
C52100	 33573#
C52110	 33590#
C52120	 33605#
C52200	 33623#
C52210	 33638#
C52220	 33655#
C52300	 33672#
C52310	 33686#
C52320	 33699#
C52400	 33714#
C52410	 33728#
C52420	 33742#
C52500	 33761#
C52510	 33784#
C52520	 33807#
C52600	 33832#
C52610	 33856#
C52620	 33880#
C52700	 33904#
C52710	 33928#
C52720	 33951#
C5300	 30237#
C53000	 33976#
C53010	 33999#
C53020	 34023#
C53100	 34046#
C53110	 34071#
C53120	 34094#
C53200	 34118#
C53210	 34141#
C53220	 34166#
C53300	 34189#
C53310	 34214#
C53320	 34238#
C53400	 34267#
C53401	 34300#
C53410	 34337#
C53420	 34370#
C53500	 34404#
C53510	 34437#
C53520	 34470#
C53600	 34503#
C53610	 34536#
C53620	 34568#
C53700	 34602#
C53710	 34634#
C53720	 34667#
C5400	 30254#
C54000	 34699#
C54010	 34733#
C54020	 34765#
C54100	 34798#
C54110	 34830#
C54120	 34864#
C54200	 34896#
C54210	 34930#
C54220	 34963#
C54300	 34997#
C54310	 35021#
C54320	 35044#
C54400	 35069#
C54410	 35093#
C54420	 35117#
C54500	 35141#
C54510	 35165#
C54520	 35188#
C54600	 35213#
C54610	 35236#
C54620	 35260#
C54700	 35283#
C54710	 35308#
C54720	 35331#
C5500	 30271#
C55000	 35355#
C55010	 35378#
C55020	 35402#
C55100	 35426#
C55110	 35450#
C55120	 35475#
C55200	 35504#
C55210	 35537#
C55211	 35570#
C55220	 35608#
C55300	 35643#
C55310	 35677#
C55320	 35710#
C55400	 35744#
C55410	 35777#
C55420	 35809#
C55500	 35843#
C55510	 35874#
C55520	 35907#
C55600	 35939#
C55610	 35973#
C55620	 36005#
C55700	 36038#
C55710	 36070#
C55720	 36104#
C5600	 30290#
C56000	 36136#
C56010	 36170#
C56020	 36203#
C56100	 36234#
C56200	 36256#
C56300	 36277#
C56400	 36298#
C56500	 36318#
C56600	 36340#
C56700	 36356#
C56701	 36380#
C5700	 30308#
C57000	 36407#
C57001	 36430#
C5701	 30325#
C5702	 30341#
C57100	 36457#
C57200	 36474#
C57300	 36497#
C57400	 36520#
C57500	 36534#
C57600	 36556#
C57700	 36578#
C600	 26503#
C6000	 30361#
C60000	 36595#
C60100	 36617#
C60200	 36641#
C60300	 36662#
C60400	 36677#
C60500	 36699#
C60600	 36715#
C60700	 36738#
C6100	 30378#
C61000	 36754#
C61100	 36777#
C61200	 36801#
C61300	 36817#
C61400	 36841#
C61500	 36864#
C61600	 36881#
C61700	 36903#
C6200	 30395#
C62000	 36927#
C62100	 36943#
C62200	 36967#
C62300	 36990#
C62400	 37007#
C62500	 37030#
C62600	 37054#
C62700	 37070#
C6300	 30416#
C63000	 37094#
C63100	 37117#
C63200	 37134#
C63300	 37157#
C63400	 37181#
C63500	 37196#
C63600	 37219#
C63700	 37245#
C6400	 30439#
C64000	 37262#
C64010	 37285#
C64100	 37310#
C64110	 37335#
C64200	 37359#
C64300	 37383#
C64310	 37409#
C64400	 37432#
C64500	 37457#
C64510	 37482#
C64600	 37506#
C64700	 37527#
C6500	 30462#
C65000	 37549#
C65100	 37563#
C65200	 37590#
C65210	 37615#
C65300	 37639#
C65400	 37663#
C65410	 37689#
C65500	 37712#
C65600	 37737#
C65610	 37762#
C65700	 37786#
C6600	 30481#
C66000	 37810#
C66010	 37837#
C66100	 37862#
C66110	 37887#
C66200	 37909#
C66300	 37925#
C66301	 37947#
C66400	 37976#
C66410	 38001#
C66411	 38026#
C66500	 38053#
C66600	 38079#
C66610	 38103#
C66700	 38126#
C6700	 30501#
C67000	 38147#
C67100	 38163#
C67200	 38187#
C67210	 38213#
C67300	 38238#
C67310	 38264#
C67400	 38289#
C67410	 38315#
C67500	 38343#
C67510	 38365#
C67600	 38387#
C67610	 38409#
C67700	 38430#
C67710	 38451#
C700	 26858#
C7000	 30518#
C70000	 38471#
C70010	 38492#
C70100	 38512#
C70110	 38533#
C70200	 38554#
C70210	 38575#
C70300	 38598#
C70310	 38628#
C70400	 38657#
C70410	 38686#
C70500	 38709#
C70510	 38739#
C70600	 38767#
C70610	 38790#
C70700	 38812#
C70710	 38835#
C7100	 30539#
C71000	 38859#
C71010	 38883#
C71100	 38907#
C71110	 38931#
C71200	 38954#
C71210	 38977#
C71300	 38999#
C71310	 39022#
C71400	 39045#
C71410	 39069#
C71500	 39093#
C71510	 39117#
C71600	 39140#
C71610	 39171#
C71700	 39203#
C71710	 39235#
C7200	 30561#
C72000	 39267#
C72010	 39299#
C72100	 39330#
C72110	 39366#
C72200	 39395#
C72210	 39425#
C72300	 39456#
C72310	 39488#
C72400	 39520#
C72410	 39552#
C72500	 39581#
C72510	 39604#
C72600	 39626#
C72610	 39649#
C72700	 39673#
C72710	 39697#
C7300	 30585#
C73000	 39721#
C73010	 39745#
C73100	 39768#
C73110	 39791#
C73200	 39813#
C73210	 39836#
C73300	 39859#
C73310	 39883#
C73400	 39907#
C73410	 39931#
C73500	 39954#
C73510	 39985#
C73600	 40017#
C73610	 40049#
C73700	 40081#
C73710	 40107#
C7400	 30606#
C74000	 40137#
C74100	 40167#
C74200	 40196#
C74210	 40226#
C74300	 40257#
C74310	 40289#
C74400	 40321#
C74410	 40353#
C74500	 40382#
C74510	 40405#
C74600	 40427#
C74610	 40450#
C74700	 40474#
C74710	 40498#
C7500	 30624#
C75000	 40522#
C75010	 40546#
C75100	 40569#
C75110	 40592#
C75200	 40614#
C75210	 40637#
C75300	 40660#
C75310	 40684#
C75400	 40708#
C75410	 40732#
C75500	 40757#
C75510	 40789#
C75600	 40821#
C75610	 40853#
C75700	 40884#
C75710	 40914#
C7600	 30639#
C76000	 40943#
C76010	 40973#
C76100	 41004#
C76110	 41036#
C76200	 41068#
C76210	 41100#
C7700	 30658#
CCA	   364#
CHAIN	   116#
CHNOFF	   364#	 42948	 44676	 44741	 44787	 44852	 44898	 44963	 45009	 45074	 45120	 45185	 45231	 45296
	 45342	 45407	 45453	 45518	 45564	 45629	 45675	 45740
CHNON	   364#	 44654	 44675	 44697	 44719	 44740	 44765	 44786	 44808	 44830	 44851	 44876	 44897	 44919
	 44941	 44962	 44987	 45008	 45030	 45052	 45073	 45098	 45119	 45141	 45163	 45184	 45209	 45230
	 45252	 45274	 45295	 45320	 45341	 45363	 45385	 45406	 45431	 45452	 45474	 45496	 45517	 45542
	 45563	 45585	 45607	 45628	 45653	 45674	 45696	 45718	 45739	 46303	 46320	 46337	 46354	 46371
	 46388	 46405	 46450	 46487	 46524	 46561	 46598	 46635	 46672	 46709	 46746	 46783	 46820	 46857
	 46894	 46931	 46968	 47005	 47042	 47079	 47116	 47153	 47190	 47235	 47267	 47303	 47335	 47371
	 47403	 47439	 47471	 47507	 47539	 47575	 47607	 47643	 47675	 47719	 47724	 47755	 47760	 47791
	 47796	 47827	 47832	 47863	 47868	 47899	 47904	 47935	 47940	 47975	 48018	 48040	 48062	 48084
	 48106	 48128	 48150	 48168	 48206	 48226	 48246	 48266	 48286	 48306	 48326	 48346	 48366	 48386
	 48406	 48426	 48446	 48466	 48486	 48506	 48526	 48546
CKCK0	 47970#
CKCK1	 47992#
CKI01	 46160	 46169#
CKI02	 46178	 46187#
CKI03	 46196	 46205#
CKI04	 46214	 46223#
CKI05	 46232	 46241#
CKI06	 46250	 46259#
CKI07	 46268	 46277#
CLK	   364#
CLKCLR	   364#
CLKDIS	   364#	 43665
CLKENB	   364#	 43666
CLKU	   364#
CLOCKF	   432#
CNTLC	   449#
CNTRP	   364#
COMMA	   558#
CONSW	   433#
COUNTX	 48575#	 48575	 48596	 48615#	 48615	 48636	 48655#	 48655	 48676	 48695#	 48695	 48716	 48735#	 48735
	 48756	 48775#	 48775	 48796	 48815#	 48815	 48836
CPOPJ	   453#
CPOPJ1	   451#
CRLF	   246	   247	   553#
CRLF2	   250	   251	   555#
CRY0	   364#	 30398	 30541	 30682	 30686	 32233	 32255	 32276	 32300	 32321	 41278	 41297	 41317	 41386
	 41391
CRY1	   364#	 30483	 30704	 30708
CSHFLG	   612#
CSHMEM	   613#
CTRP	   364#
CYCL60	   606#
DCK	   364#	 31225	 31229	 31244	 31253
DDT	   705#
DDTLNK	   130#	   391
DDTSRT	   391#
DEBUG	 51909
DECVER	     5#	    11	    26	   412
DF22F	   517#
DIAGMN	   380#
DIAGNO	   704#
DIAMON	   706#
DING	   102#
DOLLAR	   572#
DONG11	   707#	   847	   863
DSKUPD	   417
DTE	   711#	   847	   849	   863	   865
DTE0	   712#
DTE1	   713#
DTE2	   714#
DTE3	   715#
E217	 32072#	 32102
E217A	 32072	 32075#	 32103	 32134
E220	 32073#	 32118
E220A	 32073	 32078#
E220B	 32074#	 32078	 32119
E221	 32079#	 32079	 32081	 32133
E221A	 32075	 32080#
E221B	 32076#	 32080
E222	 32081#	 32149	 32150
E222A	 32077#	 32086
E223	 32089#	 32089	 32164	 32180	 32213
E223A	 32082#	 32093	 32165
E224A	 32083#	 32083	 32181
E225	 32085#	 32085	 32196
E225A	 32087	 32090#
E225B	 32088#	 32090	 32197
E226A	 32094#	 32094
E226B	 32092#	 32095	 32214
E50301	 32954	 32955	 32963	 32972#
E50401	 33007	 33008	 33016	 33025#
E51101	 33202	 33203	 33211	 33220#
E51201	 33253	 33254	 33261	 33270#
E53401	 34302	 34303	 34310	 34325#
E55211	 35572	 35573	 35581	 35596#
E56701	 36381	 36383	 36390	 36399#
E57001	 36432	 36433	 36440	 36449#
E66301	 37949	 37950	 37957	 37966#
E66411	 38028	 38029	 38037	 38046#
EFIELD	 50140#	 50169#	 50198#	 50227#	 50256#	 50285#	 50314#	 50343#	 50372#	 50401#	 50430#	 50459#	 50488#	 50517#
	 50546#	 50575#	 50604#	 50633#	 50662#	 50690#	 50718#	 50746#
END	 51917#
ENDFIX	   698#
ENDIT	 51145	 51160	 51185#
ENDSLD	 51907#
ERMORE	   466#
ERRPC	   437#
ERRTLS	   438#
ERSTOP	   105#
EXCASB	    33#	   415
EXCMEM	   364#
EXCPFW	   364#
EXIOT	   364#	 51149	 51174
FOV	   364#	 30503	 30520	 30563	 30725	 30729	 31162
FOVU	   364#
FRDLNK	   128#
FSELNK	   127#
FXU	   364#	 31182	 31186	 31201	 31210
HALTPI	 42943	 42943#	 51205#	 51217
HLTCK	 51208	 51261#
HYPEN	   563#
IADBRK	   364#
IADEXC	   364#
IADSTP	   364#
IADUSR	   364#
IAPRC1	   364#
IAPRE1	   364#
IASRTC	   364#
IASRTE	   364#
IASRTS	   364#
ICNSLL	   364#
ICNSLR	   364#
IDATAF	   364#
IEVNPR	   364#
IFMMAN	   364#
IINSTF	   364#
IIOPFC	   364#
IIOPFL	   364#
IMAINT	   364#
IMGINM	   364#
IMGNLO	   364#
IMGNOF	   364#
IMGNON	   364#
IMIPGD	   364#
IMLAPD	   364#
INHCSH	   113#
INHPAG	   110#
INXCLR	   364#
INXM	   364#
INXSTP	   364#
IOCLR	   364#	 48169
IOT0	 42932	 43295#
IOT1	 43304#
IOT10	 43416#
IOT11	 43429#
IOT12	 43447#
IOT13	 43454#
IOT14	 43456#
IOT15	 43467#
IOT15A	 43475#
IOT16	 43483#
IOT16A	 43491#
IOT17	 43499#
IOT17A	 43507#
IOT18	 43514#
IOT18A	 43537#
IOT19	 43544#
IOT2	 43311#
IOT20	 43552#
IOT21	 43560#
IOT22	 43567#
IOT23	 43575#
IOT24	 43609#
IOT25	 43628#
IOT26	 43646#
IOT27	 43665#
IOT28	 43673#
IOT29	 43685#
IOT3	 43318#
IOT30	 43693#
IOT31	 43712#
IOT31A	 43664	 43686	 43700#
IOT32	 43726#
IOT33B	 43727	 43730#
IOT34	 43738#
IOT35	 43745#
IOT36	 43753#
IOT38	 43767#
IOT39	 43774#
IOT4	 43325#
IOT40	 43782#
IOT41	 43789#
IOT42	 43796#
IOT43	 43803#
IOT44	 43811#
IOT45	 43818#
IOT46	 43826#
IOT47	 43833#
IOT48	 43841#
IOT49	 43848#
IOT5	 43331#
IOT50	 43856#
IOT51	 43863#
IOT6	 43342#
IOT7	 43360#
IOT8	 43377#
IOT9	 43396#
IOTXX	 43294#
IOTXXX	 43292#
IOTXYZ	 43871#
IP50HZ	   364#
IPAREN	   364#
IPARER	   364#
IPRSTP	   364#
IPWRFL	   364#
IPWRLO	   364#
IRQCLR	   364#
ISPDOF	   364#
ISPDON	   364#
ITERAT	    85#	   410
ITMDIS	   364#
ITMENB	   364#
ITMOEN	   364#
ITMOUT	   364#
ITMSET	   364#
ITRCH1	   470#
ITRCNT	   410#	   792	   821	   825	   833	   834	   838
IWRITE	   364#
JENDIS	 47702#
JOB41	   364#
JOBAPR	   364#
JOBCNI	   364#
JOBDDT	   364#
JOBFF	   364#
JOBOPC	   364#
JOBREL	   364#
JOBREN	   364#
JOBSA	   364#
JOBSYM	   364#
JOBTPC	   364#
JOBUSY	   364#
JOBUUO	   364#
JOBVER	   364#
KA10	   364
KAHZ50	   118#
KAIFLG	   427#
KI10	    35#	   364
KL10	    36#	   364
KL10P0	    37#	   364
KLFLG	   428#	   794	   812	   831
KLOLD	   326
KLTYP	   650#	   793	   804	   846	   848	   862	   864
KNTRP	   364#
KTRP	   364#
LAPRAL	   364#
LAPRP1	   364#	 46004
LAPRP2	   364#	 46025
LAPRP3	   364#	 46046
LAPRP4	   364#	 46067
LAPRP5	   364#	 46088
LAPRP6	   364#	 46110
LAPRP7	   364#	 46131
LAROVT	   364#
LAST	 42938#	 43325	 43326	 43331	 43332	 43360	 43361	 43377	 43378	 43397	 43430	 43448	 43714	 48208
	 48228	 48248	 48268	 48288	 48308	 48328	 48348	 48368	 48388	 48408	 48428	 48448	 48468	 48488
	 48508	 48528	 48548
LCADEN	   364#
LCADRP	   364#
LCASDE	   364#
LCASLD	   364#
LCASLO	   364#
LCASWB	   364#
LCASWD	   364#	 43494	 43563
LCCAER	   364#	 42947
LCCASD	   364#	 42946	 43561
LCHNOF	   364#
LCHNON	   364#
LCIOPF	   364#	 42946	 43576
LCNTRP	   364#	 51098
LCNTXT	   364#
LCNXER	   364#	 42946	 43587
LCPAER	   364#	 42946	 43583
LCPWRF	   364#	 42946	 43568
LCSAER	   364#	 42947
LCSBER	   364#	 42946	 43591
LCSLOA	   364#
LCSLOO	   364#
LCTRP	   364#	 51099
LCWSX	   364#
LDATAF	   364#
LDCAER	   364#	 42947
LDCASD	   364#	 42947	 48020	 48042	 48064	 48086	 48108	 48130	 48152
LDEXCB	   364#
LDIOPF	   364#	 42947	 48019	 48041	 48063	 48085	 48107	 48129	 48151
LDLNK	   129#	   380	   382
LDNXER	   364#	 42947	 48019	 48041	 48063	 48085	 48107	 48129	 48151
LDPAER	   364#	 42947	 48019	 48041	 48063	 48085	 48107	 48129	 48151
LDPWRF	   364#	 42947	 48019	 48041	 48063	 48085	 48107	 48129	 48151
LDSAER	   364#	 42947
LDSBER	   364#	 42946	 48019	 48041	 48063	 48085	 48107	 48129	 48151
LDUSRB	   364#
LEBXMH	   364#
LEBXML	   364#
LECAER	   364#
LECASD	   364#	 46088	 47977
LEIOPF	   364#	 46067	 47976
LENXER	   364#	 46004	 47976
LEPAER	   364#	 46046	 47976
LEPWRF	   364#	 46110	 46131	 47976
LESAER	   364#
LESBER	   364#	 46025	 46305	 46322	 46339	 46356	 46373	 46390	 46407	 47976	 48582	 48622	 48662	 48702
	 48742	 48782	 48822
LEUPFW	   364#
LEVNCD	   364#
LEVNPA	   364#
LEVNPD	   364#
LEXCMP	   364#
LFLGCL	   364#
LFLGDS	   364#
LFLGEN	   364#
LFLGST	   364#
LFP	   567#
LINSTF	   364#
LINT	   364#
LIOCLR	   364#	 42946
LIOPFE	   364#	 43510	 43578
LIP	   364#
LKNTRP	   364#	 51094
LKTRP	   364#	 51095
LLACBL	   364#
LLDUSB	   364#
LLPRCN	   364#
LMBXMH	   364#
LMBXML	   364#
LMUUO	   364#	 51102	 51103	 51118	 51122
LMUUOP	   364#
LNXMEN	   364#
LNXMER	   364#	 43524	 43589
LOOPER	   104#
LPAREN	   364#
LPARER	   364#	 43517	 43585
LPDOVT	   364#
LPFWPC	   364#
LPGFTR	   364#
LPICH1	   364#
LPICH2	   364#
LPICH3	   364#
LPICH4	   364#
LPICH5	   364#
LPICH6	   364#
LPICH7	   364#
LPICHA	   364#
LPICLR	   364#
LPIIP1	   364#
LPIIP2	   364#
LPIIP3	   364#
LPIIP4	   364#
LPIIP5	   364#
LPIIP6	   364#
LPIIP7	   364#
LPIOFF	   364#
LPION	   364#
LPNTRP	   364#	 51100
LPRCH1	   364#
LPRCH2	   364#
LPRCH3	   364#
LPRCH4	   364#
LPRCH5	   364#
LPRCH6	   364#
LPRCH7	   364#
LPRFMH	   364#
LPRFML	   364#
LPTRP	   364#	 51101
LPWRFE	   364#
LPWRFL	   364#	 43502	 43570
LREQSE	   364#
LRQCLR	   364#	 42948	 47724	 47760	 47796	 47832	 47868	 47904	 47940
LSADEN	   364#
LSADRP	   364#
LSBSEN	   364#
LSBUSE	   364#	 43531	 43593
LSCAER	   364#
LSCASD	   364#	 43492	 43560	 46088	 47977	 48020	 48042	 48064	 48086	 48108	 48130	 48152
LSECMO	   364#
LSIOPF	   364#	 43508	 43575	 46067	 47976	 48019	 48041	 48063	 48085	 48107	 48129	 48151
LSMODE	   364#
LSNTRP	   364#	 51096
LSNXER	   364#	 43522	 43586	 46004	 47976	 48019	 48041	 48063	 48085	 48107	 48129	 48151
LSPAER	   364#	 43515	 43582	 46046	 47976	 48019	 48041	 48063	 48085	 48107	 48129	 48151
LSPWRF	   364#	 43500	 43567	 46110	 46131	 47976	 48019	 48041	 48063	 48085	 48107	 48129	 48151
LSSAER	   364#
LSSBER	   364#	 43529	 43590	 46025	 46305	 46322	 46339	 46356	 46373	 46390	 46407	 47976	 48019	 48041
	 48063	 48085	 48107	 48129	 48151	 48582	 48622	 48662	 48702	 48742	 48782	 48822
LSTRP	   364#	 51097
LTBASH	   364#
LTBASL	   364#
LTRP3T	   364#
LTRPAE	   364#
LTRPEN	   364#
LUSCMP	   364#
LUUO	   364#
LUUO1	   497	   498
LUUO10	   497	   502
LUUO11	   497	   502
LUUO12	   497	   503
LUUO13	   497	   503
LUUO14	   497	   504
LUUO15	   497	   504
LUUO16	   497	   505
LUUO17	   497	   505
LUUO2	   497	   499
LUUO20	   497	   506
LUUO21	   497	   506
LUUO22	   497	   507
LUUO23	   497	   507
LUUO24	   497	   508
LUUO25	   497	   508
LUUO26	   497	   509
LUUO27	   497	   509
LUUO3	   497	   499
LUUO30	   497	   510
LUUO31	   497	   510
LUUO32	   497	   511
LUUO33	   497	   511
LUUO4	   497	   500
LUUO5	   497	   500
LUUO6	   497	   501
LUUO7	   497	   501
LUUOI	   364#
LWRITE	   364#
MACHTP	 51284#	 51301	 51302	 51303	 51304	 51305	 51306	 51307	 51308
MAPNEW	   518#
MARGIN	   440#	 43685
MCNVER	     4#	    11	    26	   412
MEMLOW	   520#
MEMMAP	   418
MEMSIZ	   521#
MEMTOT	   519#
MINUS	   562#
MLUUO	 48864#	 48905#	 48946#	 48987#	 49028#	 49069#	 49110#	 49151#	 49192#	 49233#	 49274#	 49315#	 49356#	 49397#
	 49438#	 49479#	 49520#	 49561#	 49602#	 49643#	 49684#	 49725#	 49766#	 49807#	 49848#	 49889#	 49930#	 49971#
	 50012#	 50053#	 50094#
MODDVC	   112#
MODDVL	    39#	   311	   413
MODDVU	    40#	   312	   414
MODLNK	   131#	   377
MONCTL	   430#	   841	   879
MONFLG	   429#	   786	   875	 42929	 46011	 46032	 46053	 46074	 46095	 46117	 46138	 46170	 46188	 46206
	 46224	 46242	 46260	 46278	 46312	 46329	 46346	 46363	 46380	 46397	 46414	 46440	 46477	 46514
	 46551	 46588	 46625	 46662	 46699	 46736	 46773	 46810	 46847	 46884	 46921	 46958	 46995	 47032
	 47069	 47106	 47143	 47180	 51144	 51159	 51254
MONTEN	   431#	   791	   827	   856
MONTYP	   644#
MPVU	   364#
MUHLT	 51104	 51110#
MULT0	 46403	 46413#
MULT1	 46386	 46396#
MULT2	 46369	 46379#
MULT3	 46352	 46362#
MULT4	 46335	 46345#
MULT5	 46318	 46328#
MULT6	 46301	 46311#
MULTI	 46296#
MUUO	   364#
MUUOPC	   364#
NB5300	 19133#
NOPNT	   100#
NXMU	   364#
OPRSEL	   114#
OPTIME	   532#
P	   157	   158	   159	   160	   364#	   452
PAG	   364#
PALERS	   106#
PARCLR	   364#
PARDIS	   364#
PAREA0	    78#
PAREA1	    79#	   408
PAREA2	    80#	   409
PAREA3	    81#	   406
PAREA4	    82#	   407
PAREA5	    83#	   419
PAREA6	    84#	   420
PAREA7	   419#
PAREA8	   420#
PARENB	   364#
PARU	   364#
PASCNT	   434#	   820
PDISF	   529#
PDLOVU	   364#
PDOVTP	   364#
PERIOD	   559#
PFSTRT	   386#
PGFTRP	   364#
PGMEND	    38#	 51916
PGMNAM	   411	   880	   883#
PI	   833	 42948	 43456	 43731	 43738	 43739	 43745	 43746	 43747	 43767	 43768	 43774	 43775	 43782
	 43783	 43789	 43790	 43791	 43796	 43797	 43803	 43804	 43805	 43811	 43812	 43818	 43819	 43820
	 43826	 43827	 43833	 43834	 43835	 43841	 43842	 43848	 43849	 43850	 43856	 43857	 43863	 43864
	 43865	 43895	 43899	 43923	 43927	 43951	 43955	 43979	 43983	 44007	 44011	 44035	 44039	 44063
	 44067	 44110	 44114	 44142	 44146	 44174	 44178	 44206	 44210	 44238	 44242	 44270	 44274	 44302
	 44306	 44358	 44360	 44400	 44402	 44442	 44444	 44484	 44486	 44526	 44528	 44568	 44570	 44610
	 44612	 44654	 44655	 44675	 44676	 44677	 44697	 44698	 44699	 44719	 44720	 44740	 44741	 44742
	 44765	 44766	 44786	 44787	 44788	 44808	 44809	 44810	 44830	 44831	 44851	 44852	 44853	 44876
	 44877	 44897	 44898	 44899	 44919	 44920	 44921	 44941	 44942	 44962	 44963	 44964	 44987	 44988
	 45008	 45009	 45010	 45030	 45031	 45032	 45052	 45053	 45073	 45074	 45075	 45098	 45099	 45119
	 45120	 45121	 45141	 45142	 45143	 45163	 45164	 45184	 45185	 45186	 45209	 45210	 45230	 45231
	 45232	 45252	 45253	 45254	 45274	 45275	 45295	 45296	 45297	 45320	 45321	 45341	 45342	 45343
	 45363	 45364	 45365	 45385	 45386	 45406	 45407	 45408	 45431	 45432	 45452	 45453	 45454	 45474
	 45475	 45476	 45496	 45497	 45517	 45518	 45519	 45542	 45543	 45563	 45564	 45565	 45585	 45586
	 45587	 45607	 45608	 45628	 45629	 45630	 45653	 45654	 45674	 45675	 45676	 45696	 45697	 45698
	 45718	 45719	 45739	 45740	 45741	 45783	 45787	 45788	 45814	 45818	 45819	 45845	 45849	 45850
	 45876	 45880	 45881	 45907	 45911	 45912	 45938	 45942	 45943	 45969	 45973	 45974	 46003	 46024
	 46045	 46066	 46087	 46109	 46130	 46162	 46180	 46198	 46216	 46234	 46252	 46270	 46303	 46320
	 46337	 46354	 46371	 46388	 46405	 46450	 46451	 46487	 46488	 46524	 46525	 46561	 46562	 46598
	 46599	 46635	 46636	 46672	 46673	 46709	 46710	 46746	 46747	 46783	 46784	 46820	 46821	 46857
	 46858	 46894	 46895	 46931	 46932	 46968	 46969	 47005	 47006	 47042	 47043	 47079	 47080	 47116
	 47117	 47153	 47154	 47190	 47191	 47235	 47267	 47303	 47335	 47371	 47403	 47439	 47471	 47507
	 47539	 47575	 47607	 47643	 47675	 47719	 47724	 47726	 47755	 47760	 47762	 47791	 47796	 47798
	 47827	 47832	 47834	 47863	 47868	 47870	 47899	 47904	 47906	 47935	 47940	 47942	 47975	 48018
	 48040	 48062	 48084	 48106	 48128	 48150	 48168	 48170	 48180	 48206	 48209	 48226	 48229	 48246
	 48249	 48266	 48269	 48286	 48289	 48306	 48309	 48326	 48329	 48346	 48349	 48366	 48369	 48386
	 48389	 48406	 48409	 48426	 48429	 48446	 48449	 48466	 48469	 48486	 48489	 48506	 48509	 48526
	 48529	 48546	 48549	 48581	 48621	 48661	 48701	 48741	 48781	 48821
PICHN1	   364#
PICHN2	   364#
PICHN3	   364#
PICHN4	   364#
PICHN5	   364#
PICHN6	   364#
PICHN7	   364#
PICHNA	   364#
PICLR	   364#	 42948	 44360	 44402	 44444	 44486	 44528	 44570	 44612	 44698	 44809	 44920	 45031	 45142
	 45253	 45364	 45475	 45586	 45697	 45787	 45818	 45849	 45880	 45911	 45942	 45973	 48180
PIOFF	   364#	 42948
PION	   364#	 43895	 43923	 43951	 43979	 44007	 44035	 44063	 45783	 45814	 45845	 45876	 45907	 45938
	 45969	 46303	 46320	 46337	 46354	 46371	 46388	 46405	 46450	 46487	 46524	 46561	 46598	 46635
	 46672	 46709	 46746	 46783	 46820	 46857	 46894	 46931	 46968	 47005	 47042	 47079	 47116	 47153
	 47190	 47235	 47267	 47303	 47335	 47371	 47403	 47439	 47471	 47507	 47539	 47575	 47607	 47643
	 47675	 47719	 47724	 47755	 47760	 47791	 47796	 47827	 47832	 47863	 47868	 47899	 47904	 47935
	 47940	 47975	 48018	 48040	 48062	 48084	 48106	 48128	 48150	 48168	 48170	 48206	 48226	 48246
	 48266	 48286	 48306	 48326	 48346	 48366	 48386	 48406	 48426	 48446	 48466	 48486	 48506	 48526
	 48546
PIOT00	 43880#
PIOT01	 44090#
PIOT02	 44330#
PIOT03	 45766#
PLIST	   598#	   598
PLISTE	   598	   600#
PLISTS	   599#
PLUS	   564#
PNTENB	   528#
PNTEXT	   407#
PNTFLG	   527#
PNTINH	   530#
PNTLPT	   101#
PNTNAM	   406#
PNTRP	   364#
PNTSPC	   531#
PTRP	   364#
PVPAGI	   625#
PWFCLR	   364#
QUEST	   570#
RADIX	   573#
RADLSC	   575#
RADLSP	   574#
RANDBS	   408#
REENTR	   388#
RELIAB	   108#
REPT	   364#
REPT1	   364#
REPTU	   486#
REQSET	   364#	 44110	 44142	 44174	 44206	 44238	 44270	 44302	 44358	 44400	 44442	 44484	 44526	 44568
	 44610	 45783	 45814	 45845	 45876	 45907	 45938	 45969	 46451	 46488	 46525	 46562	 46599	 46636
	 46673	 46710	 46747	 46784	 46821	 46858	 46895	 46932	 46969	 47006	 47043	 47080	 47117	 47154
	 47191	 47235	 47267	 47303	 47335	 47371	 47403	 47439	 47471	 47507	 47539	 47575	 47607	 47643
	 47675	 47719	 47755	 47791	 47827	 47863	 47899	 47935
RESET1	 48165#
RESET2	 48176#
RESET3	 48187#
RESRT1	   463#
RESRT2	   464#
RETURN	   395#	   829	   836	   857
RSTART	    97#
RTP	   568#
RUNFLG	   435#
SADR1	    66#	   384
SADR10	    75#	   400
SADR11	    76#	   401
SADR2	    67#	   386
SADR3	    68#	   388
SADR4	    69#
SADR5	    70#	   449
SADR6	    71#	   450
SADR7	    72#	   397
SADR8	    73#	   398
SADR9	    74#	   399
SBINIT	   170	   394#
SCOPE	   487#
SENSE1	   364#
SENSE2	   364#
SENSE3	   364#
SENSE4	   364#
SENSE5	   364#
SENSE6	   364#
SFSTRT	   384#
SKIPNO	 47214#
SLASH	   571#
SM10	   681#
SMLUSR	   364#
SN	  1304#	  1329	  1329#	  1348	  1348#	  1367	  1367#	  1386	  1386#	  1405	  1405#	  1424	  1424#	  1443
	  1443#	  1462	  1462#	  1481	  1481#	  1500	  1500#	  1519	  1519#	  1538	  1538#	  1557	  1557#	  1576
	  1576#	  1595	  1595#	  1614	  1614#	  1633	  1633#	  1652	  1652#	  1671	  1671#	  1690	  1690#	  1709
	  1709#	  1728	  1728#	  1747	  1747#	  1766	  1766#	  1785	  1785#	  1804	  1804#	  1823	  1823#	  1842
	  1842#	  1861	  1861#	  1880	  1880#	  1899	  1899#	  1918	  1918#	  1937	  1937#	  1956	  1956#	  1975
	  1975#	  1994	  1994#	  2183#	  2216	  2216#	  2245	  2245#	  2274	  2274#	  2303	  2303#	  2480#	  2504
	  2504#	  2523	  2523#	  2542	  2542#	  2561	  2561#	  2580	  2580#	  2599	  2599#	  2618	  2618#	  2637
	  2637#	  2656	  2656#	  2675	  2675#	  2694	  2694#	  2713	  2713#	  2732	  2732#	  2751	  2751#	  2770
	  2770#	  2789	  2789#	  2808	  2808#	  2827	  2827#	  2841#	  2865	  2865#	  2884	  2884#	  2903	  2903#
	  2922	  2922#	  2941	  2941#	  2960	  2960#	  2979	  2979#	  2998	  2998#	  3017	  3017#	  3036	  3036#
	  3055	  3055#	  3074	  3074#	  3093	  3093#	  3112	  3112#	  3131	  3131#	  3150	  3150#	  3169	  3169#
	  3188	  3188#	  3292#	  3325	  3325#	  3354	  3354#	  3383	  3383#	  3412	  3412#	  3441	  3441#	  3470
	  3470#	  3499	  3499#	  3528	  3528#	  3557	  3557#	  3586	  3586#	  3615	  3615#	  3644	  3644#	  3673
	  3673#	  3702	  3702#	  3731	  3731#	  3760	  3760#	  3789	  3789#	  3818	  3818#	  3847	  3847#	  3876
	  3876#	  3905	  3905#	  3934	  3934#	  3963	  3963#	  3992	  3992#	  4021	  4021#	  4050	  4050#	  4079
	  4079#	  4108	  4108#	  4137	  4137#	  4166	  4166#	  4195	  4195#	  4224	  4224#	  4253	  4253#	  4282
	  4282#	  4311	  4311#	  4340	  4340#	  4361#	  4387	  4387#	  4408	  4408#	  4429	  4429#	  4450	  4450#
	  4471	  4471#	  4492	  4492#	  4513	  4513#	  4534	  4534#	  4555	  4555#	  4576	  4576#	  4597	  4597#
	  4618	  4618#	  4639	  4639#	  4660	  4660#	  4681	  4681#	  4702	  4702#	  4723	  4723#	  4744	  4744#
	  4765	  4765#	  4786	  4786#	  4807	  4807#	  4828	  4828#	  4849	  4849#	  4870	  4870#	  4891	  4891#
	  4912	  4912#	  4933	  4933#	  4954	  4954#	  4975	  4975#	  4996	  4996#	  5017	  5017#	  5038	  5038#
	  5059	  5059#	  5080	  5080#	  5101	  5101#	  5122	  5122#	  5226#	  5251	  5251#	  5271	  5271#	  5291
	  5291#	  5311	  5311#	  5331	  5331#	  5351	  5351#	  5371	  5371#	  5391	  5391#	  5411	  5411#	  5431
	  5431#	  5451	  5451#	  5471	  5471#	  5491	  5491#	  5511	  5511#	  5531	  5531#	  5551	  5551#	  5571
	  5571#	  5591	  5591#	  5611	  5611#	  5631	  5631#	  5651	  5651#	  5671	  5671#	  5691	  5691#	  5711
	  5711#	  5731	  5731#	  5751	  5751#	  5771	  5771#	  5791	  5791#	  5811	  5811#	  5831	  5831#	  5851
	  5851#	  5871	  5871#	  5891	  5891#	  5911	  5911#	  5931	  5931#	  5951	  5951#	  5966#	  5996	  5996#
	  6021	  6021#	  6046	  6046#	  6071	  6071#	  6096	  6096#	  6121	  6121#	  6146	  6146#	  6171	  6171#
	  6196	  6196#	  6221	  6221#	  6246	  6246#	  6271	  6271#	  6296	  6296#	  6321	  6321#	  6346	  6346#
	  6371	  6371#	  6396	  6396#	  6421	  6421#	  6446	  6446#	  6471	  6471#	  6496	  6496#	  6521	  6521#
	  6546	  6546#	  6571	  6571#	  6596	  6596#	  6621	  6621#	  6646	  6646#	  6671	  6671#	  6696	  6696#
	  6721	  6721#	  6746	  6746#	  6771	  6771#	  6796	  6796#	  6821	  6821#	  6846	  6846#	  6871	  6871#
	  6891#	  6919	  6919#	  6940	  6940#	  6961	  6961#	  6982	  6982#	  7003	  7003#	  7024	  7024#	  7045
	  7045#	  7066	  7066#	  7087	  7087#	  7108	  7108#	  7129	  7129#	  7150	  7150#	  7171	  7171#	  7192
	  7192#	  7213	  7213#	  7234	  7234#	  7255	  7255#	  7276	  7276#	  7297	  7297#	  7318	  7318#	  7339
	  7339#	  7360	  7360#	  7381	  7381#	  7402	  7402#	  7423	  7423#	  7444	  7444#	  7465	  7465#	  7486
	  7486#	  7507	  7507#	  7528	  7528#	  7549	  7549#	  7570	  7570#	  7591	  7591#	  7612	  7612#	  7633
	  7633#	  7654	  7654#	  7700#	  7729	  7729#	  7751	  7751#	  7773	  7773#	  7795	  7795#	  7817	  7817#
	  7839	  7839#	  7861	  7861#	  7883	  7883#	  7905	  7905#	  7927	  7927#	  7949	  7949#	  7971	  7971#
	  7993	  7993#	  8015	  8015#	  8037	  8037#	  8059	  8059#	  8081	  8081#	  8103	  8103#	  8118#	  8147
	  8147#	  8169	  8169#	  8191	  8191#	  8213	  8213#	  8235	  8235#	  8257	  8257#	  8279	  8279#	  8301
	  8301#	  8323	  8323#	  8345	  8345#	  8367	  8367#	  8389	  8389#	  8411	  8411#	  8433	  8433#	  8455
	  8455#	  8477	  8477#	  8499	  8499#	  8521	  8521#	  8575#	  8607	  8607#	  8631	  8631#	  8655	  8655#
	  8679	  8679#	  8703	  8703#	  8727	  8727#	  8751	  8751#	  8775	  8775#	  8799	  8799#	  8823	  8823#
	  8847	  8847#	  8871	  8871#	  8895	  8895#	  8919	  8919#	  8943	  8943#	  8967	  8967#	  8991	  8991#
	  9015	  9015#	  9039	  9039#	  9063	  9063#	  9087	  9087#	  9111	  9111#	  9135	  9135#	  9159	  9159#
	  9183	  9183#	  9207	  9207#	  9231	  9231#	  9255	  9255#	  9279	  9279#	  9303	  9303#	  9327	  9327#
	  9351	  9351#	  9375	  9375#	  9399	  9399#	  9423	  9423#	  9447	  9447#	  9586#	  9626	  9626#	  9656
	  9656#	  9686	  9686#	  9716	  9716#	  9746	  9746#	  9776	  9776#	  9806	  9806#	  9836	  9836#	  9866
	  9866#	  9896	  9896#	  9926	  9926#	  9956	  9956#	  9986	  9986#	 10016	 10016#	 10046	 10046#	 10076
	 10076#	 10106	 10106#	 10136	 10136#	 10166	 10166#	 10196	 10196#	 10226	 10226#	 10256	 10256#	 10286
	 10286#	 10316	 10316#	 10346	 10346#	 10376	 10376#	 10406	 10406#	 10436	 10436#	 10466	 10466#	 10496
	 10496#	 10526	 10526#	 10556	 10556#	 10586	 10586#	 10616	 10616#	 10646	 10646#	 10676	 10676#	 10718#
	 10754	 10754#	 10780	 10780#	 10806	 10806#	 10832	 10832#	 10858	 10858#	 10884	 10884#	 10910	 10910#
	 10936	 10936#	 10962	 10962#	 10988	 10988#	 11014	 11014#	 11040	 11040#	 11066	 11066#	 11092	 11092#
	 11118	 11118#	 11144	 11144#	 11170	 11170#	 11196	 11196#	 11222	 11222#	 11248	 11248#	 11274	 11274#
	 11300	 11300#	 11326	 11326#	 11352	 11352#	 11378	 11378#	 11404	 11404#	 11430	 11430#	 11456	 11456#
	 11482	 11482#	 11508	 11508#	 11534	 11534#	 11560	 11560#	 11586	 11586#	 11612	 11612#	 11638	 11638#
	 11664	 11664#	 11683#	 11717	 11717#	 11742	 11742#	 11767	 11767#	 11792	 11792#	 11817	 11817#	 11842
	 11842#	 11867	 11867#	 11892	 11892#	 11917	 11917#	 11942	 11942#	 11967	 11967#	 11992	 11992#	 12017
	 12017#	 12042	 12042#	 12067	 12067#	 12092	 12092#	 12117	 12117#	 12142	 12142#	 12167	 12167#	 12192
	 12192#	 12217	 12217#	 12242	 12242#	 12267	 12267#	 12292	 12292#	 12317	 12317#	 12342	 12342#	 12367
	 12367#	 12392	 12392#	 12417	 12417#	 12442	 12442#	 12467	 12467#	 12492	 12492#	 12517	 12517#	 12542
	 12542#	 12567	 12567#	 12583#	 12619	 12619#	 12645	 12645#	 12671	 12671#	 12697	 12697#	 12723	 12723#
	 12749	 12749#	 12775	 12775#	 12801	 12801#	 12827	 12827#	 12853	 12853#	 12879	 12879#	 12905	 12905#
	 12931	 12931#	 12957	 12957#	 12983	 12983#	 13009	 13009#	 13035	 13035#	 13061	 13061#	 13079#	 13115
	 13115#	 13141	 13141#	 13167	 13167#	 13193	 13193#	 13219	 13219#	 13245	 13245#	 13271	 13271#	 13297
	 13297#	 13323	 13323#	 13349	 13349#	 13375	 13375#	 13401	 13401#	 13427	 13427#	 13453	 13453#	 13479
	 13479#	 13505	 13505#	 13531	 13531#	 13557	 13557#	 13794#	 13816	 13816#	 13834	 13834#	 13852	 13852#
	 13870	 13870#	 13888	 13888#	 13906	 13906#	 13924	 13924#	 13942	 13942#	 13960	 13960#	 13978	 13978#
	 13996	 13996#	 14014	 14014#	 14032	 14032#	 14050	 14050#	 14068	 14068#	 14086	 14086#	 14104	 14104#
