DFKAA PDP-10 KL10 BASIC INSTRUCTION DIAGNOSTIC (1) VER 0,2	MACRO %53B(1254)-4 11:50 11-Nov-24 Page 1
DFKAAT	MAC	11-Nov-24 11:49		*PARAM*	CONSOLE DATA SWITCH ASSIGNMENTS, SEPT 18,1979

     1					;DFKAA
     2
     3
     4			000000		MCNVER==0
     5			000002		DECVER==2
     6
     7						XLIST
     8						LIST
     9						LALL
    10
    11						NAME	\MCNVER,\DECVER^
    12
    13					TITLE	DFKAA PDP-10 KL10 BASIC INSTRUCTION DIAGNOSTIC (1) VER 0,2
    14					^
    15
    16					;TEST DESIGNED FOR INITIAL DEBUGGING OF PROCESSOR HARDWARE
    17					;AND TO DETECT (SOLID) FAILURES IN THE FIELD.
    18
    19					;COPYRIGHT 1975,1977
    20					;DIGITAL EQUIPMENT CORPORATION
    21					;MARLBORO, MASS. 01752
    22
    23					;JOHN R. KIRCHOFF
    24
    25	000137					LOC	137
    26	000137	000000	000002			MCNVER,,DECVER
    27
    28						NOSYM
DFKAA PDP-10 KL10 BASIC INSTRUCTION DIAGNOSTIC (1) VER 0,2	MACRO %53B(1254)-4 11:50 11-Nov-24 Page 2
DFKAAT	MAC	11-Nov-24 11:49		DIAGNOSTIC PARAMETERS

    29					SUBTTL	DIAGNOSTIC PARAMETERS
    30
    31					;PARAMETER DEFINITIONS
    32
    33			000001		EXCASB==1
    34			000001		USRASB==1
    35			000001		KI10==1
    36			000001		KL10==1
    37			000001		KL10P0==1
    38			000001		PGMEND==1
    39			030000		MODDVL==BEGIN
    40			030000		MODDVU==BEGIN
    41
    42					;FLAG DEFINITIONS
    43
    44			010000		USERF=10000		;USER MODE FLAG
    45
    46
    47					;MACROS
    48
    49					; STOP - USED FOR SCOPE LOOP, IF INSTRUCTION FAILS, CHANGE (JUMPA .+1)
    50					;	 TO A (JUMPA .-X) TO CYCLE ON FAILING INSTRUCTION
    51
    52					DEFINE	STOP	(A)<
    53						HALT	.+1		;TEST FAILED IF PROGRAM HALTS HERE
    54						JUMPA	.+1		;IF TEST FAILS, CHANGE THIS INSTRUCTION (JUMPA .+1) TO
    55									;JUMPA X (X IS THE ADDRESS OF THE FIRST INSTRUCTION
    56									;IN THE SUBTEST) TO LOOP ON ERROR>
    57
    58					; SFLAG - USED TO CLEAR ALL FLAGS THEN TO SET SELECTED FLAG
    59
    60					DEFINE	SFLAG	(A)<
    61						MOVSI	1,A
    62						JFCL	17,.+1	;RESET ALL FLAGS
    63						JRST	2,.+1(1)		;SET A FLAG>
DFKAA PDP-10 KL10 BASIC INSTRUCTION DIAGNOSTIC (1) VER 0,2	MACRO %53B(1254)-4 11:50 11-Nov-24 Page 3
DFKAAT	MAC	11-Nov-24 11:49		DIAGNOSTIC PARAMETERS

    64					;SPECIAL FEATURE PARAMETERS
    65
    66			030742		SADR1=STARTA
    67			030742		SADR2=STARTA
    68			030742		SADR3=STARTA
    69			030742		SADR4=STARTA
    70		254000	030742		SADR5=JRST STARTA
    71		254000	030742		SADR6=JRST STARTA
    72		254000	030742		SADR7=JRST STARTA
    73		254000	030742		SADR8=JRST STARTA
    74		254000	030742		SADR9=JRST STARTA
    75		254000	030742		SADR10=JRST STARTA
    76		254000	030742		SADR11=JRST STARTA
    77
    78			000000		PAREA0=0
    79			000000		PAREA1=0
    80			000000		PAREA2=0
    81		444653	414100		PAREA3=SIXBIT/DFKAA/
    82		645560	000000		PAREA4=SIXBIT/TMP/
    83			000000		PAREA5=0
    84			000000		PAREA6=0
    85			001000		ITERAT==1000
DFKAA PDP-10 KL10 BASIC INSTRUCTION DIAGNOSTIC (1) VER 0,2	MACRO %53B(1254)-4 11:50 11-Nov-24 Page 1
PARAM	KLM	13-Jan-89 12:02		*PARAM*	CONSOLE DATA SWITCH ASSIGNMENTS, SEPT 18,1979

    86					SUBTTL	*PARAM*	CONSOLE DATA SWITCH ASSIGNMENTS, SEPT 18,1979
    87
    88					DEFINE	S,<; *********************************************************************>
    89
    90					; **********************************************************************
    91					;*DATA SWITCHES (READ FROM CONSOLE IN EXEC MODE OR TYPED IN IN USER MODE)
    92					;*LEFT HALF SWITCHES ARE PRE-ASSIGNED FOR SUBROUTINE PACKAGE USE
    93					;*AND CONTROL LOOPING, PRINTING (TTY OR OTHER DEVICE) AND MISC. FUNCTIONS
    94					; **********************************************************************
    95
    96			400000		ABORT==	400000			;ABORT PROGRAM ON PASS COMPLETION
    97			200000		RSTART==200000			;RESTART TEST, PRINT TOTALS
    98			100000		TOTALS==100000			;PRINT TOTALS, CONTINUE
    99
   100			040000		NOPNT==	040000			;INHIBIT ALL PRINT/TYPE OUT (EXCEPT FORCED)
   101			020000		PNTLPT==020000			;PRINT ALL DATA ON LPT (LOGICAL DEVICE, USER MODE)
   102			010000		DING==	010000			;RING BELL ON ERROR
   103
   104			004000		LOOPER==004000			;ENTER EXERCISE/CHECK LOOP ON ERROR
   105			002000		ERSTOP==002000			;HALT ON TEST ERROR
   106			001000		PALERS==001000			;PRINT ALL ERRORS
   107
   108			000400		RELIAB==000400			;RELIABILITY MODE
   109			000200		TXTINH==000200			;INHIBIT ERROR TEXT
   110			000100		INHPAG==000100			;INHIBIT PAGING
   111
   112			000040		MODDVC==000040			;MODIFY DEVICE CODE
   113			000020		INHCSH==000020			;INHIBIT CACHE
   114			000010		OPRSEL==000010			;OPERATOR SELECTION
   115
   116			000004		CHAIN==	000004			;CHAIN CONTROL SWITCH
   117
   118			000002		KAHZ50==000002			;KA10 50 HERTZ POWER
   119
   120									;SWITCH 17 RESERVED !!!
DFKAA PDP-10 KL10 BASIC INSTRUCTION DIAGNOSTIC (1) VER 0,2	MACRO %53B(1254)-4 11:50 11-Nov-24 Page 2
PARAM	KLM	13-Jan-89 12:02		*PARAM* PROGRAM/SUBROUTINE PARAMETERS, SEPT 18,1979

   121					SUBTTL	*PARAM* PROGRAM/SUBROUTINE PARAMETERS, SEPT 18,1979
   122
   123					; **********************************************************************
   124					;*SPECIAL SUBPROGRAM LINKAGES
   125					; **********************************************************************
   126
   127			027772		FSELNK=	27772	;FILE SELECT LINK
   128			027773		FRDLNK=	27773	;FILE READ LINK
   129			027774		LDLNK=	27774	;LOAD LINKAGE ADDRESS
   130			027775		DDTLNK=	27775	;DDT LINKAGE ADDRESS
   131			027776		MODLNK=	27776	;OPERATIONAL MODE CHECK LINKAGE ADDRESS
   132			027777		SUBLNK=	27777	;SUBROUTINE LINKAGE ADDRESS
   133
   134					; **********************************************************************
   135					;*SPECIAL SUBROUTINE FATAL HALTS
   136					;*USED TO REPORT ERRORS THAT CAUSE THE SUBROUTINES TO BE UNUSABLE
   137					; **********************************************************************
   138
   139					;ADDRESS   TAG	REASON
   140					;---------------------
   141
   142					; 1010 	NOEXEC	;PROGRAM NOT CODED FOR EXEC MODE OPERATION
   143					; 1011  PLERR	;FATAL PUSH LIST POINTER ERROR
   144					; 1012  PLERR1	;INITIAL PUSH LIST POINTER ERROR
   145					; 1013  MUOERR	;MUUO WITH LUUO HANDLER WIPED OUT
   146					; 1014  DTEBER	;DTE20 INTERRUPT WITHOUT DOORBELL
   147					; 1015  DTECER	;DTE20 CLOCK INTERRUPT WITHOUT FLAG SET
   148					; 1016  CPIERR	;CPU INITIALIZATION ERROR
   149					; 1017  EOPERR	;END OF PROGRAM ERROR
   150					; 1020  LUOERR	;INTERRUPT WITH LUUO HANDLER WIPED OUT
   151
   152					; **********************************************************************
DFKAA PDP-10 KL10 BASIC INSTRUCTION DIAGNOSTIC (1) VER 0,2	MACRO %53B(1254)-4 11:50 11-Nov-24 Page 3
PARAM	KLM	13-Jan-89 12:02		*PARAM* PROGRAM/SUBROUTINE PARAMETERS, SEPT 18,1979

   153					; **********************************************************************
   154					;OPERATOR DEFINITIONS (NON-UUO'S)
   155					; **********************************************************************
   156
   157		260740	000000		OPDEF	GO	[PUSHJ	P,]	;SUBROUTINE CALL
   158		263740	000000		OPDEF	RTN	[POPJ	P,]	;SUBROUTINE RETURN
   159		261740	000000		OPDEF	PUT	[PUSH	P,]	;PUT DATA ON PUSH LIST
   160		262740	000000		OPDEF	GET	[POP	P,]	;GET DATA FROM PUSH LIST
   161		254000	000000		OPDEF	PJRST	[JRST	]	;JRST TO ROUTINE THAT RTN'S
   162		254200	000000		OPDEF	HALT	[JRST	4,]	;DEFINITION FOR DDT
   163		254100	000000		OPDEF	JRSTF	[JRST	2,]	;DEFINITION FOR DDT
   164		254500	000000		OPDEF	JEN	[JRST	12,]	;DEFINITION FOR DDT
   165
   166					; **********************************************************************
   167					;SUBROUTINE INITIALIZATION CALL
   168					; **********************************************************************
   169
   170		265000	030011		OPDEF	PGMINT	[JSP	0,SBINIT]	;SUBROUTINE INITIALIZATION
   171
   172					; **********************************************************************
   173					;HALTING UUO'S (A MORE GRACEFUL HALT THAN SIMPLY USING THE HALT INSTRUCTION).
   174					; **********************************************************************
   175
   176		037640	000004		OPDEF	FATAL	[37B8!15B12!4]	;FATAL PROGRAMMING HALT
   177		037600	000004		OPDEF	ERRHLT	[37B8!14B12!4]	;PROGRAM ERROR HALT
   178
   179					; **********************************************************************
   180					;TERMINAL INPUT UUO'S
   181					;ALWAYS COME FROM THE CONSOLE TERMINAL IN EXEC MODE OR THE
   182					;CONTROLLING TERMINAL (REAL TERMINAL OR PTY) IN USER MODE.
   183					; **********************************************************************
   184
   185		037000	000003		OPDEF	TTICHR 	[37B8!0B12!3]	;TTY, INPUT ANY CHARACTER
   186		037040	000003		OPDEF	TTIYES	[37B8!1B12!3]	;TTY, NORMAL RETURN Y
   187		037100	000003		OPDEF	TTINO	[37B8!2B12!3]	;TTY, NORMAL RETURN N
   188		037140	000003		OPDEF	TTIOCT	[37B8!3B12!3]	;TTY, INPUT OCTAL WORD
   189		037200	000003		OPDEF	TTIDEC	[37B8!4B12!3]	;TTY, INPUT DECIMAL WORD
   190		037240	000003		OPDEF	TTICNV	[37B8!5B12!3]	;TTY, INPUT CONVERTABLE WORD
   191		037300	000003		OPDEF	TTLOOK	[37B8!6B12!3]	;TTY, KEYBOARD CHECK
   192		037340	000003		OPDEF	TTALTM	[37B8!7B12!3]	;TTY, ALT-MODE CHECK
   193		037400	000003		OPDEF	TTSIXB	[37B8!10B12!3]	;TTY, INPUT SIXBIT WORD
   194		037440	000003		OPDEF	TTYINP	[37B8!11B12!3]	;TTY, IMAGE MODE INPUT
   195		037500	000003		OPDEF	TTICLR	[37B8!12B12!3]	;TTY, CLEAR INPUT
DFKAA PDP-10 KL10 BASIC INSTRUCTION DIAGNOSTIC (1) VER 0,2	MACRO %53B(1254)-4 11:50 11-Nov-24 Page 4
PARAM	KLM	13-Jan-89 12:02		*PARAM* PROGRAM/SUBROUTINE PARAMETERS, SEPT 18,1979

   196					;TERMINAL OUTPUT UUO'S.
   197
   198		037000	000000		OPDEF	PNTA	[37B8!0B12!0]	;PRINT ASCII WORD
   199		037000	000001		OPDEF	PNTAF	[37B8!0B12!1]	;PRINT ASCII WORD FORCED
   200		037740	000000		OPDEF	PNTAL	[37B8!17B12!0]	;PRINT ASCIZ LINE
   201		037740	000001		OPDEF	PNTALF	[37B8!17B12!1]	;PRINT ASCIZ LINE FORCED
   202		037600	000003		OPDEF	PSIXL	[37B8!14B12!3]	;PRINT SIXBIT'Z LINE
   203		037640	000003		OPDEF	PSIXLF	[37B8!15B12!3]	;PRINT SIXBIT'Z LINE FORCED
   204		037000	000000		OPDEF	PNTMSG	[37B8!0B12!0]	;PRINT MESSAGE IMMEDIATE
   205		037040	000000		OPDEF	PNTMSF	[37B8!1B12!0]	;PRINT MESSAGE IMMEDIATE FORCED
   206		037100	000000		OPDEF	PSIXM	[37B8!2B12!0]	;PRINT SIXBIT'Z MSG IMMEDIATE
   207		037200	000000		OPDEF	PSIXMF	[37B8!4B12!0]	;PRINT SIXBIT'Z MSG IMM FORCED
   208		037000	000000		OPDEF	PNTCI	[37B8!0B12!0]	;PRINT CHARACTER IMMEDIATE
   209		037040	000000		OPDEF	PNTCIF	[37B8!1B12!0]	;PRINT CHARACTER IMMEDIATE FORCED
   210		037500	000000		OPDEF	PNTCHR	[37B8!12B12!0]	;PRINT CHARACTER
   211		037500	000001		OPDEF	PNTCHF	[37B8!12B12!1]	;PRINT CHARACTER FORCED
   212		037040	000000		OPDEF	PNT1	[37B8!1B12!0]	;PRINT ONE OCTAL DIGIT
   213		037040	000001		OPDEF	PNT1F	[37B8!1B12!1]	;PRINT 1 OCTAL DIGIT FORCED
   214		037100	000000		OPDEF	PNT2	[37B8!2B12!0]	;PRINT TWO OCTAL DIGITS
   215		037100	000001		OPDEF	PNT2F	[37B8!2B12!1]	;PRINT 2 OCTAL DIGITS FORCED
   216		037140	000000		OPDEF	PNT3	[37B8!3B12!0]	;PRINT THREE OCTAL DIGITS
   217		037140	000001		OPDEF	PNT3F	[37B8!3B12!1]	;PRINT THREE OCTAL DIGITS FORCED
   218		037200	000000		OPDEF	PNT4	[37B8!4B12!0]	;PRINT FOUR OCTAL DIGITS
   219		037200	000001		OPDEF	PNT4F	[37B8!4B12!1]	;PRINT FOUR OCTAL DIGITS FORCED
   220		037240	000000		OPDEF	PNT5	[37B8!5B12!0]	;PRINT FIVE OCTAL DIGITS
   221		037240	000001		OPDEF	PNT5F	[37B8!5B12!1]	;PRINT FIVE OCTAL DIGITS FORCED
   222		037300	000000		OPDEF	PNT6	[37B8!6B12!0]	;PRINT SIX OCTAL DIGITS
   223		037300	000001		OPDEF	PNT6F	[37B8!6B12!1]	;PRINT SIX OCTAL DIGITS FORCED
   224		037340	000000		OPDEF	PNT7	[37B8!7B12!0]	;PRINT 7 OCTAL DIGITS
   225		037340	000001		OPDEF	PNT7F	[37B8!7B12!1]	;PRINT 7 OCTAL DIGITS FORCED
   226		037440	000000		OPDEF	PNT11	[37B8!11B12!0]	;PRINT 11 OCTAL DIGITS
   227		037440	000001		OPDEF	PNT11F	[37B8!11B12!1]	;PRINT 11 OCTAL DIGITS FORCED.
   228		037400	000000		OPDEF	PNTADR	[37B8!10B12!0]	;PRINT PHYSICAL ADDRESS
   229		037400	000001		OPDEF	PNTADF	[37B8!10B12!1]	;PRINT PHYSICAL ADDRESS FORCED
   230		037600	000000		OPDEF	PNTOCT  [37B8!14B12!0]	;PRINT FULL WORD OCTAL
   231		037600	000001		OPDEF	PNTOTF	[37B8!14B12!1]	;PRINT FULL WORD OCTAL FORCED
   232		037540	000000		OPDEF	PNTHW	[37B8!13B12!0]	;PRINT OCTAL HALF WORDS, 6 SP 6
   233		037540	000001		OPDEF	PNTHWF	[37B8!13B12!1]	;PRINT OCTAL HALF WORDS, 6 SP 6 FORCED
   234		037700	000003		OPDEF	PNTOCS	[37B8!16B12!3]	;PRINT OCTAL, SUPPRESS LEADING 0'S
   235		037740	000003		OPDEF	PNTOCF	[37B8!17B12!3]	;PRINT OCTAL, SUPPRESS LEADING 0'S FORCED
   236		037640	000000		OPDEF	PNTDEC	[37B8!15B12!0]	;PRINT DECIMAL, SUPRESS LEADING 0'S
   237		037640	000001		OPDEF	PNTDCF	[37B8!15B12!1]	;PRINT DECIMAL, SUPRESS LEADING 0'S FORCED
   238		037700	000000		OPDEF	PNTDS	[37B8!16B12!0]	;PRINT DECIMAL, SPACES FOR LD 0'S
   239		037700	000001		OPDEF	PNTDSF	[37B8!16B12!1]	;PRINT DECIMAL, SPACES FOR LD 0'S FORCED
DFKAA PDP-10 KL10 BASIC INSTRUCTION DIAGNOSTIC (1) VER 0,2	MACRO %53B(1254)-4 11:50 11-Nov-24 Page 5
PARAM	KLM	13-Jan-89 12:02		*PARAM* PROGRAM/SUBROUTINE PARAMETERS, SEPT 18,1979

   240		037200	000002		OPDEF	PNTNM	[37B8!4B12!2]	;PRINT PROGRAM NAME
   241		037000	000002		OPDEF	PNTSIX	[37B8!0B12!2]	;PRINT SIXBIT WORD
   242		037040	000002		OPDEF	PNTSXF	[37B8!1B12!2]	;PRINT SIXBIT WORD FORCED
   243		037240	000002		OPDEF	DROPDV	[37B8!5B12!2]	;CLOSE LOGICAL FILE, USER MODE
   244		037100	000002		OPDEF	PNTCW	[37B8!2B12!2]	;PRINT DF10 CONTROL WORD
   245		037140	000002		OPDEF	PNTCWF	[37B8!3B12!2]	;PRINT DF10 CONTROL WORD FORCED
   246		037000	030242		OPDEF	PCRL	[37B8!0B12!CRLF] ;PRINT CARRIAGE RETURN/LINE FEED
   247		037040	030242		OPDEF	PCRLF	[37B8!1B12!CRLF] ;PRINT CARRIAGE RETURN/LINE FEED FORCED
   248		037000	000040		OPDEF	PSP	[37B8!0B12!40]	;PRINT SPACE
   249		037040	000040		OPDEF	PSPF	[37B8!1B12!40]	;PRINT SPACE FORCED
   250		037000	030243		OPDEF	PCRL2	[37B8!0B12!CRLF2] ;PRINT CARRIAGE RETURN/LINE FEED (TWICE)
   251		037040	030243		OPDEF	PCRL2F	[37B8!1B12!CRLF2] ;PRINT CARRIAGE RETURN/LINE FEED (TWICE) FORCED
   252		037040	000007		OPDEF	PBELL	[37B8!1B12!7]	;PRINT TTY BELL
   253
   254		037040	000026		OPDEF	PFORCE	[37B8!1B12!26]	;PRINT FORCE, CONTROL O OVERRIDE
   255
   256					DEFINE	PMSG	(ARG),<
   257						PSIXM	[SIXBIT\ARG'_\]>
   258
   259					DEFINE	PMSGF	(ARG),<
   260						PSIXMF	[SIXBIT\ARG'_\]>
   261
   262					;SIXBTZ -- MACRO TO GENERATE SIXBIT DATA FOR PRINTING
   263					;	CONSERVES CORE OVER ASCIZ
   264
   265					DEFINE	SIXBTZ	(ARG),<	[SIXBIT\ARG'_\]>
   266
   267					;CONSOLE SWITCH INPUT UUO.
   268					;READS CONSOLE SWITCHES IF IN EXEC MODE OR ASKS FOR THEM IF
   269					; USER MODE.
   270
   271		037400	000002		OPDEF	SWITCH	[37B8!10B12!2]	;INPUT CONSOLE SWITCHES
   272
   273					;CLOCK INITIALIZATION UUO - TO SET DESIRED CLOCK OPERATION
   274					;EITHER IGNORE CLOCK, ONLY LET IT TICK OR CAUSE INTERRUPT TO OCCUR.
   275
   276		037540	000004		OPDEF	CLOKOP	[37B8!13B12!4]	;CLOCK OPERATION UUO - PDP-11 CLOCK
   277		037200	000004		OPDEF	MTROP	[37B8!4B12!4]	;CLOCK OPERATION UUO - DK20 METER
   278
   279					;KL10 ONLY CACHE OPERATION UUO'S
   280
   281		037040	000004		OPDEF	CINVAL	[37B8!1B12!4]	;CACHE INVALIDATE
   282		037100	000004		OPDEF	CFLUSH	[37B8!2B12!4]	;CACHE FLUSH
   283		037140	000004		OPDEF	CWRTBI	[37B8!3B12!4]	;CACHE WRITE-BACK & INVALIDATE
DFKAA PDP-10 KL10 BASIC INSTRUCTION DIAGNOSTIC (1) VER 0,2	MACRO %53B(1254)-4 11:50 11-Nov-24 Page 6
PARAM	KLM	13-Jan-89 12:02		*PARAM* PROGRAM/SUBROUTINE PARAMETERS, SEPT 18,1979

   284					;END OF PASS/PROGRAM UUOS
   285
   286					;PERFORMS THE END OF PASS FUNCTIONS. INCREMENT PASS COUNT,
   287					;DECREMENT ITERATION COUNT, CHECK IF FINISHED WITH THIS PROGRAM ETC.
   288
   289		037500	000004		OPDEF	ENDUUO	[37B8!12B12!4]	;UUO TO DISPLAY LIGHTS
   290		037700	000004		OPDEF	EOPUUO	[37B8!16B12!4]	;END OF PROGRAM UUO
   291
   292					;MEMORY MANAGEMENT UUO'S
   293					;UUO'S TO PERFORM VARIOUS MEMORY FUNCTIONS. MAPPING, ZEROING, PAGING,
   294					;ADDRESS CONVERSION, ETC...
   295
   296		037000	000004		OPDEF	MAPMEM	[37B8!0B12!4]	;MAP MEMORY
   297		037500	000002		OPDEF	MEMZRO	[37B8!12B12!2]	;ZERO MEMORY
   298		037440	000002		OPDEF	MEMSEG	[37B8!11B12!2]	;SETUP MEMORY SEGMENT
   299		037540	000002		OPDEF	MAPADR	[37B8!13B12!2]	;VIRTUAL TO PHYSICAL ADR CONVERT
   300		037640	000002		OPDEF	MAPCNK	[37B8!15B12!2]	;MAP MEMORY CHUNK
   301		037600	000002		OPDEF	MAPSET	[37B8!14B12!2]	;SET KI10 EXEC PAGE MAP
   302		037740	000002		OPDEF	MAPPNT	[37B8!17B12!2]	;PRINT MEMORY MAP
   303
   304					;DEVICE CODE MODIFICATION UUO
   305					;ALLOWS THE MODIFICATION OF IOT'S TO ONE DEVICE TO BE CHANGED TO
   306					;IOT'S TO A DIFFERENT DEVICE CODE.
   307
   308		037340	000002		OPDEF	MODPCU	[37B8!7B12!2]	;MODIFY PERHIPERAL CODE, USER
   309		037300	000002		OPDEF	MODPCP	[37B8!6B12!2]	;MODIFY PERHIPERAL CODE, PROGRAM
   310
   311						IFNDEF	MODDVL,<MODDVL==BEGIN>
   312						IFNDEF	MODDVU,<MODDVU==BEGIN>
   313
   314					;"DIAMON" FILE SELECTION AND READ UUOS
   315
   316		037240	000004		OPDEF	FSELECT	[37B8!5B12!4]	;FILE SELECTION
   317		037300	000004		OPDEF	FREAD	[37B8!6B12!4]	;FILE READ - ASCII DATA
   318		037340	000004		OPDEF	FRD36	[37B8!7B12!4]	;FILE READ - 36 BIT DATA
   319		037400	000004		OPDEF	FRD8	[37B8!10B12!4]	;FILE READ - 8 BIT DATA
   320
   321					;KI10 ONLY UUO FOR PRINTING MARGIN VALUES
   322
   323		037700	000002		OPDEF	PNTMGN	[37B8!16B12!2]	;PRINT MARGIN VALUE
   324
   325						XLIST
   326					IFNDEF	KLOLD,<LIST
DFKAA PDP-10 KL10 BASIC INSTRUCTION DIAGNOSTIC (1) VER 0,2	MACRO %53B(1254)-4 11:50 11-Nov-24 Page 7
PARAM	KLM	13-Jan-89 12:02		ERROR HANDLING UUO DEFINITIONS, SEPT 18,1979

   327					SUBTTL	ERROR HANDLING UUO DEFINITIONS, SEPT 18,1979
   328
   329					; **********************************************************************
   330					;ERROR HANDLER PARAMETERS
   331					; **********************************************************************
   332
   333		036000	000000		OPDEF	ERUUO	[36B8]		;ERROR CALL UUO
   334		035000	000000		OPDEF	ERLOOP	[35B8]		;ERROR LOOP, CHECKS PC,REPT,REPT1,ERROR
   335		035040	000000		OPDEF	ERLP1	[35B8!1B12]	;ERROR LOOP IF PC'S MATCH
   336		035100	000000		OPDEF	ERLP2	[35B8!2B12]	;ERROR LOOP IF ANY ERROR
   337		034000	000000		OPDEF	REPTUO	[34B8]		;REPEAT LOOP UUO
   338
   339					;THE ERROR HANDLER MACROS
   340
   341					;A MACRO TO REPORT AN ERROR AND LOOP
   342
   343						DEFINE	ERROR	(ADR,FORMAT,CORECT,ACTUAL,F,D,ERR)<
   344												SALL
   345						ERUUO	FORMAT,[T,,[SIXBIT\F'_\]
   346							   CORECT,,ACTUAL
   347							   [SIXBIT\D'_\],,ERR]
   348												XALL
   349						ERLOOP	ADR		;IF ERROR, LOOP TO ADR
   350					>
   351
   352					;A MACRO TO REPORT AN ERROR AND NOT LOOP
   353
   354						DEFINE	ERROR1	(FORMAT,CORECT,ACTUAL,F,D,ERR)<
   355												SALL
   356						ERUUO	FORMAT,[T,,[SIXBIT\F'_\]
   357							   CORECT,,ACTUAL
   358							   [SIXBIT\D'_\],,ERR]
   359												XALL>
   360
   361					>;END OF KLOLD CONDITIONAL
   362
   363						XLIST
   364						LIST
DFKAA PDP-10 KL10 BASIC INSTRUCTION DIAGNOSTIC (1) VER 0,2	MACRO %53B(1254)-4 11:50 11-Nov-24 Page 1
FIXED	KLM	26-Mar-96 10:07		*FIXED* FIXED CONTROL AND DISPATCH STORAGE, SEPT 18,1979

   365					SUBTTL	*FIXED* FIXED CONTROL AND DISPATCH STORAGE, SEPT 18,1979
   366
   367	030000					LOC	30000
   368
   369					; **********************************************************************
   370					;PROGRAM STARTING ADDRESSES
   371					;THESE ADDRESSES CALL VARIOUS SPECIAL START ROUTINES AND OR OPTIONS
   372					;NORMAL START ADDRESS IS 30000 ALL OTHERS ARE SPECIAL. INVOKED BECAUSE
   373					;OF END OF PASS, POWER FAILURE, DDT START, RE-ENTERING(TYPICALLY USER
   374					;MODE), OR ANY NUMBER OF SPECIAL FEATURE TESTS.
   375					; **********************************************************************
   376
   377	030000	254 00 1 00 027776 	BEGIN:	JRST	@MODLNK		;STAND-ALONE START
   378	030001	254 00 0 00 030712 	$START:	JRST	START		;MODE CHECK STARTING ADDRESS
   379
   380	030002	254 00 1 00 027774 	DIAGMN:	JRST	@LDLNK		;DIAGNOSTIC MONITOR START
   381
   382	030003	254 00 1 00 027774 	SYSEXR:	JRST	@LDLNK		;SYSTEM EXERCISER START
   383
   384	030004	254 00 0 00 030742 	SFSTRT:	JRST	SADR1		;SPECIAL FEATURE START
   385
   386	030005	254 00 0 00 030742 	PFSTRT:	JRST	SADR2		;POWER FAIL RESTART
   387
   388	030006	254 00 0 00 030742 	REENTR:	JRST	SADR3		;REENTER START(USUALLY USER MODE ONLY)
   389
   390	030007				SRTDDT:				;COMMONLY MISTAKEN NAME FOR "DDTSRT"
   391	030007	254 00 1 00 027775 	DDTSRT:	JRST	@DDTLNK		;DDT START
   392
   393	030010	254 00 0 00 030742 	BEGIN1:	JRST	STARTA		;LOOP START(END OF PASS COMES HERE)
   394	030011	254 00 1 00 027777 	SBINIT:	JRST	@SUBLNK		;PMGINT LINKAGE
   395	030012	000000	000000		RETURN:	0			;RETURN ADDRESS STORAGE
   396
   397	030013	254000	030742		START1:	SADR7			;OPTIONAL STARTING ADR/INSTRUCTIONS
   398	030014	254000	030742		START2:	SADR8			; "
   399	030015	254000	030742		START3:	SADR9			; "
   400	030016	254000	030742		START4:	SADR10			; "
   401	030017	254000	030742		START5:	SADR11			; "
DFKAA PDP-10 KL10 BASIC INSTRUCTION DIAGNOSTIC (1) VER 0,2	MACRO %53B(1254)-4 11:50 11-Nov-24 Page 2
FIXED	KLM	26-Mar-96 10:07		*FIXED* FIXED CONTROL AND DISPATCH STORAGE, SEPT 18,1979

   402					; **********************************************************************
   403					;PROGRAM FIXED PARAMETER AREA
   404					; **********************************************************************
   405
   406	030020	444653	414100		PNTNAM:	PAREA3		;SIXBIT PROGRAM NAME
   407	030021	645560	000000		PNTEXT:	PAREA4		;SIXBIT PROGRAM EXTENSION
   408	030022	000000	000000		RANDBS:	PAREA1		;RANDOM BASE NUMBER
   409	030023	000000	000000		SWTEXR:	PAREA2		;SYSTEM EXERCISER SWITCHES
   410	030024	000000	001000		ITRCNT:	ITERAT		;PROGRAM ITERATIONS
   411	030025	000000	030725		$PNAME:	PGMNAM		;POINTER TO PROGRAMS NAME
   412	030026	000000	000002		$PVER:	MCNVER,,DECVER	;MCN & DEC VERSION LEVEL
   413	030027	000000	030000		$MODVL:	MODDVL		;DEVICE CODE CHANGE LOWER LIMIT
   414	030030	000000	030000		$MODVU:	MODDVU		;DEVICE CODE CHANGE UPPER LIMIT
   415	030031	777777	777777		$EMODE:	IFNDEF EXCASB,<0> IFDEF EXCASB,<-1>	;EXEC ALLOWED
   416	030032	777777	777777		$UMODE:	IFNDEF USRASB,<0> IFDEF USRASB,<-1>	;USER ALLOWED
   417	030033	000000	000000		$DSKUP:	IFNDEF DSKUPD,<0> IFDEF DSKUPD,<-1>	;DISK UPDATE MODE
   418	030034	000000	000000		$MMAP:	IFNDEF MEMMAP,<0> IFDEF MEMMAP,<-1>	;ALLOW MEMORY RTNS
   419	030035	000000	000000		PAREA7:	PAREA5		;OPTIONAL PARAMETER
   420	030036	000000	000000		PAREA8:	PAREA6		;OPTIONAL PARAMETER
   421
   422					; **********************************************************************
   423					;PROGRAM VARIABLE PARAMETER AREA
   424					; **********************************************************************
   425
   426	030037	000000	000000		USER:	0		; 0 = EXEC, -1 = USER MODE FLAG
   427	030040	000000	000000		KAIFLG:	0		;PROCESSOR TYPE, 0 = KA10, -1 = KI10
   428	030041	000000	000000		KLFLG:	0		;PROCESSOR TYPE, 0 = KA/KI, -1 = KL10
   429	030042	777777	777777		MONFLG:	-1		;DIAG MONITOR SPECIAL USER FLAG
   430	030043	000000	000000		MONCTL:	0		;DIAG MON/SYS EXR FLAG
   431	030044	000000	000000		MONTEN:	0		;-1= LOADED BY 10
   432	030045	000000	000000		CLOCKF:	0		;CLOCK TICKED FLAG
   433	030046	000000	000000		CONSW:	0		;CONSOLE SWITCH SETTINGS
   434	030047	000000	000000		PASCNT:	0		;PROGRAM PASS COUNT
   435	030050	000000	000000		RUNFLG:	0		;PROGRAM RUN FLAG
   436	030051	000000	000000		TESTPC:	0		;SUBTEST PC
   437	030052	000000	000000		ERRPC:	0		;ERROR PC
   438	030053	000000	000000		ERRTLS:	0		;ERROR TOTALS
   439	030054	000000	000000		TICKS:	0		;PROGRAM RUNNING TIME
   440	030055	000000	000000		MARGIN:	0		;KI10 MARGIN WORD VALUE
   441	030056	000000	000000		$ONETM:	0		;SUBROUTINE INITIALIZATION FLAG
DFKAA PDP-10 KL10 BASIC INSTRUCTION DIAGNOSTIC (1) VER 0,2	MACRO %53B(1254)-4 11:50 11-Nov-24 Page 3
FIXED	KLM	26-Mar-96 10:07		*FIXED* FIXED CONTROL AND DISPATCH STORAGE, SEPT 18,1979

   442					; **********************************************************************
   443					;SPECIAL PROGRAM DISPATCH ADDRESSES
   444					; **********************************************************************
   445
   446	030057	037 12 0 00 000004 	BEGEND:	ENDUUO		;END OF PASS
   447	030060	254 00 0 00 030010 	$BEND1:	JRST	BEGIN1	;KEEP RUNNING PROGRAM
   448	030061	037 16 0 00 000004 	$BEND2:	EOPUUO		;END OF PROGRAM - NO RETURN
   449	030062	254000	030742		CNTLC:	SADR5		;CONTROL C XFER ADDRESS
   450	030063	254000	030742		ALTMGO:	SADR6		;ALTMODE XFER ADDRESS
   451	030064				CPOPJ1:			;SKIP RETURN
   452	030064	350 00 0 17 000000 	UUOSKP:	AOS	(P)	;SKIP RETURN FROM UUO
   453	030065				CPOPJ:			;NON-SKIP REGULAR RETURN
   454	030065	263 17 0 00 000000 	UUOEXT:	RTN		;UUO RETURN
   455	030066	255 00 0 00 000000 	UUORTN:	JFCL		;ADDITIONAL USERS UUO ROUTINE
   456	030067	255 00 0 00 000000 	$UORTX:	JFCL		;ADDITIONAL UUO LINKAGE
   457	030070	255 00 0 00 000000 	$UUOER:	JFCL		;INITED AS (JRST $UOERX)
   458	030071	255 00 0 00 000000 	$ITRHL:	JFCL		;ADDITIONAL INTERRUPT LINKAGE
   459	030072	255 00 0 00 000000 	$ITRX1:	JFCL		; "
   460	030073	255 00 0 00 000000 	$USRHL:	JFCL		; "
   461	030074	255 00 0 00 000000 	$RSRTX:	JFCL		;ADDITIONAL POWER FAIL LINKAGE
   462	030075	255 00 0 00 000000 	$RSRTY:	JFCL		; "
   463	030076	255 00 0 00 000000 	RESRT1:	JFCL		; INITED AS (JRST RESRTX)
   464	030077	255 00 0 00 000000 	RESRT2:	JFCL		; "
   465	030100	255 00 0 00 000000 	$PARER:	JFCL		;ADDITIONAL PARITY ERROR LINKAGE
   466	030101	255 00 0 00 000000 	ERMORE:	JFCL		;ADDITIONAL ERROR HANDLER LINKAGE
   467	030102	254 04 0 00 030102 		HALT	.	;IMPROPER TRANSFER HALT
   468
   469	030103	000000	000000		$PSHER:	0		;INITED AS (JRST PSHERR)
   470	030104	000000	000000		ITRCH1:	0		;PC & FLAGS OF CURRENT INTERRUPT
   471	030105	000000	000000			0		;INITED AS (JRST $ITRC1)
   472
   473					; **********************************************************************
   474					;PROCESSOR CONTROL STORAGE
   475					; **********************************************************************
   476
   477	030106	000000	000000		$ACC0:	0		;INTERRUPT SAVED AC0
   478	030107	000000	000000		$SVPI:	0		;INTERRUPT SAVED PI
   479	030110	000000	000000		$SVAPR:	0		;INTERRUPT SAVED APR
   480	030111	000000	000000		$SVPAG:	0		;INTERRUPT SAVED PAG (DATAI)
   481	030112	000000	000000		$SPAG1:	0		;INTERRUPT SAVED PAG (CONI)
   482
   483	030113	000000	000000		$SVUUO:	0		;CURRENT USERS UUO
   484	030114	000000	000000		$SVUPC:	0		;PC OF CURRENT USERS UUO
   485
   486	030115	000000	000000		REPTU:	0		;REPEAT UUO ITERATIONS
   487	030116	000000	000000		SCOPE:	0		;ERROR HANDLER SCOPE LOOP FLAG
   488	030117	000000	000000		%CORFLG:0		; " CORRECT FLAG
   489	030120	000000	000000		%COREC:	0		; " CORRECT DATA
   490	030121	000000	000000		%ACTFL:	0		; " ACTUAL FLAG
   491	030122	000000	000000		%ACTUL:	0		; " ACTUAL DATA
   492	030123	000000	000000		%DISCR:	0		; " DISCREPENCY DATA
DFKAA PDP-10 KL10 BASIC INSTRUCTION DIAGNOSTIC (1) VER 0,2	MACRO %53B(1254)-4 11:50 11-Nov-24 Page 4
FIXED	KLM	26-Mar-96 10:07		*FIXED* FIXED CONTROL AND DISPATCH STORAGE, SEPT 18,1979

   493					; **********************************************************************
   494					;UUO DISPATCH TABLE
   495					; **********************************************************************
   496						XLIST
   497						LIST
   498	030124	030070	030070		UUODIS:	LUUO1,,$UUOER
   499	030125	030070	030070			LUUO3,,LUUO2
   500	030126	030070	030070			LUUO5,,LUUO4
   501	030127	030070	030070			LUUO7,,LUUO6
   502	030130	030070	030070			LUUO11,,LUUO10
   503	030131	030070	030070			LUUO13,,LUUO12
   504	030132	030070	030070			LUUO15,,LUUO14
   505	030133	030070	030070			LUUO17,,LUUO16
   506	030134	030070	030070			LUUO21,,LUUO20
   507	030135	030070	030070			LUUO23,,LUUO22
   508	030136	030070	030070			LUUO25,,LUUO24
   509	030137	030070	030070			LUUO27,,LUUO26
   510	030140	030070	030070			LUUO31,,LUUO30
   511	030141	030070	030070			LUUO33,,LUUO32
   512
   513					; **********************************************************************
   514					;MEMORY MANAGMENT STORAGE
   515					; **********************************************************************
   516
   517	030142	000000	000000		DF22F:	0		;DF10 CONTROL FLAG, 0 = 18, -1 = 22 BIT
   518	030143	000000	000000		MAPNEW:	0		;MEMORY MAPPING CONTROL FLAG, -1 = 4096K MAPPING
   519	030144	000000	000000		MEMTOT:	0		;TOTAL MEMORY SIZE IN K (1024.)
   520	030145	000000	000000		MEMLOW:	0		;LOWEST USABLE MEMORY
   521	030146				MEMSIZ:	BLOCK ^D41	;MEMORY SEGMENT POINTER TABLE
   522
   523					; **********************************************************************
   524					;PRINT CONTROL STORAGE
   525					; **********************************************************************
   526
   527	030217	000000	000000		PNTFLG:	0		;PRINT FLAG, -1 WHILE IN PRINT ROUTINE
   528	030220	000000	000000		PNTENB:	0		;PRINT ENABLE
   529	030221	000000	000000		PDISF:	0		;PRINT DISABLED FLAG
   530	030222	000000	000000		PNTINH:	0		;INHIBIT PRINT INPUT CHECKS
   531	030223	000000	000000		PNTSPC:	0		;PRINT SPACE CONTROL
   532	030224	000000	000000		OPTIME:	0		;TYPE-IN WAIT TIME
   533	030225	000000	000000		$TWCNT:	0		;TIME WAITED
   534	030226	000000	000000		$DVOFF:	0		;LOGICAL DEVICE INITED FLAG
   535	030227	000000	000000		TTYFIL:	0		;TTY EXEC FILLERS FLAG
   536	030230	000000	000000		TTYSPD:	0		;TTY EXEC BAUD RATE
   537	030231	000000	000000		$TTCHR:	0		;ACTUAL TYPED IN CHAR
   538	030232	000000	000000		$CHRIN:	0		;UPPER CASED & PARITY STRIPPED CHAR
   539	030233	000000	000000		$TYPNB:	0		;TYPED IN NUMBER
   540	030234	000000	000000		$CRLF:	0		;FREE CR/LF FLAG
   541	030235	000000	000000		$TABF:	0		;TAB CONVERSION FLAG
   542	030236	000000	000000		$FFF:	0		;FORM FEED CONVERSION FLAG
   543	030237	000000	000000		$VTF:	0		;VERTICAL TAB CONVERSION FLAG
   544	030240	000000	000000		USRLFF:	0		;USER LF FILLERS
   545	030241	000000	000000		USRCRF:	0		;USER CR FILLERS
DFKAA PDP-10 KL10 BASIC INSTRUCTION DIAGNOSTIC (1) VER 0,2	MACRO %53B(1254)-4 11:50 11-Nov-24 Page 5
FIXED	KLM	26-Mar-96 10:07		*FIXED* FIXED CONTROL AND DISPATCH STORAGE, SEPT 18,1979

   546					; **********************************************************************
   547					;THE FOLLOWING MISCELLANEOUS PRINT CHARACTERS ARE INCLUDED
   548					;TO FACILITATE PRINTING AND ARE CALLED AS FOLLOWS:
   549					;	MOVEI	NAME
   550					;	PNTA		;OR PNTAF
   551					; **********************************************************************
   552
   553	030242				CRLF:	ASCII/
   554	030242	015 012 000 000 000 	/
   555	030243				CRLF2:	ASCII/
   556
   557	030243	015 012 015 012 000 	/
   558	030244	054 000 000 000 000 	COMMA:	ASCII/,/
   559	030245	056 000 000 000 000 	PERIOD:	ASCII/./
   560	030246	040 000 000 000 000 	SPACE:	ASCII/ /
   561	030247	011 000 000 000 000 	TAB:	ASCII/	/
   562	030250				MINUS:
   563	030250	055 000 000 000 000 	HYPEN:	ASCII/-/
   564	030251	053 000 000 000 000 	PLUS:	ASCII/+/
   565	030252	052 000 000 000 000 	AST:	ASCII/*/
   566	030253	100 000 000 000 000 	ATSIN:	ASCII/@/
   567	030254	050 000 000 000 000 	LFP:	ASCII/(/
   568	030255	051 000 000 000 000 	RTP:	ASCII/)/
   569	030256	007 0000000000 		BELL:	BYTE (7) 007
   570	030257	077 000 000 000 000 	QUEST:	ASCII/?/
   571	030260	057 000 000 000 000 	SLASH:	ASCII!/!
   572	030261	044 000 000 000 000 	DOLLAR:	ASCII/$/
   573	030262	000000	000012		RADIX:	^D10			;DECIMAL PRINT RADIX
   574	030263	000000	000040		RADLSP:	40			;DECIMAL PRINT LEADING CHAR
   575	030264	000000	000012		RADLSC:	^D10			;DECIMAL PRINT LEADING CHAR COUNT
   576
   577					; **********************************************************************
   578					;USER MODE OUTPUT FILE INFORMATION
   579					; **********************************************************************
   580
   581	030265				$OBUF:	BLOCK	3		;LOGICAL FILE OUTPUT BUFFER HEADER
   582	030270	60 62 51 56 64 00 	$OUTNM:	SIXBIT	/PRINT/		;FILE NAME
   583	030271	60 56 64 00 00 00 	$OUTEX:	SIXBIT	/PNT/		;FILE NAME EXTENSION
   584	030272					BLOCK	2
   585
   586					; **********************************************************************
   587					;DISK UPDATE MODE FILE INFORMATION
   588					; **********************************************************************
   589
   590	030274				$IBUF:	BLOCK	3
   591	030277	60 62 51 56 64 00 	$INNM:	SIXBIT	/PRINT/
   592	030300	60 56 64 00 00 00 	$INEXT:	SIXBIT	/PNT/
   593	030301					BLOCK	2
DFKAA PDP-10 KL10 BASIC INSTRUCTION DIAGNOSTIC (1) VER 0,2	MACRO %53B(1254)-4 11:50 11-Nov-24 Page 6
FIXED	KLM	26-Mar-96 10:07		*FIXED* FIXED CONTROL AND DISPATCH STORAGE, SEPT 18,1979

   594					; **********************************************************************
   595					;PUSHDOWN LIST CONTROL INFORMATION
   596					; **********************************************************************
   597
   598	030303	777577	030303		PLIST:	PLIST-PLISTE,,PLIST
   599	030304				PLISTS:	BLOCK	200
   600	030504	000000	000000		PLISTE:	0		;END OF PUSHDOWN LIST
   601
   602					; **********************************************************************
   603					;POWER LINE CLOCK FREQUENCY FLAG
   604					; **********************************************************************
   605
   606	030505	000000	000000		CYCL60:	0	;0 = 60, -1 = 50 CYCLE
   607
   608					; **********************************************************************
   609					;KL10 CACHE CONTROL FLAGS
   610					; **********************************************************************
   611
   612	030506	000000	000000		CSHFLG:	0	;ALLOW CACHE IF 0
   613	030507	000000	000000		CSHMEM:	0	;CACHE MEMORY SEGMENTS IF 0
   614
   615					; **********************************************************************
   616					;NUMBER INPUT DIGIT FLAG
   617					; **********************************************************************
   618
   619	030510	000000	000000		TTNBRF:	0	;-1 IF ANY DIGIT TYPED
   620
   621					; **********************************************************************
   622					;KL10 & KI10 "INHPAG" SWITCH PAGING PREVENTION
   623					; **********************************************************************
   624
   625	030511	000000	000000		PVPAGI:	0	;IF NON-ZERO, OVERRIDE "INHPAG" SWITCH ACTION
   626
   627					; **********************************************************************
   628					;ERROR REPORTING ROUTINE ADDITIONAL USERS CONTROL INSTRUCTIONS
   629					; **********************************************************************
   630
   631	030512	000000	000000		%ERHI1:	0	;IF NON-ZERO, XCT'D AT START OF %ERUUO
   632	030513	000000	000000		%ERHI2:	0	;IF NON-ZERO, XCT'D AT END OF %ERUUO
   633	030514	000000	000000		%ERHI3:	0	;IF NON-ZERO, XCT'D AFTER "PC" OF %ERUUO
   634
   635					; **********************************************************************
   636					;SPECIAL USERS UUO INTERCEPT INSTRUCTION
   637					; **********************************************************************
   638
   639	030515	000000	000000		$$UUO:	0	;IF NON-ZERO, XCT'D AT START OF $UORTN
DFKAA PDP-10 KL10 BASIC INSTRUCTION DIAGNOSTIC (1) VER 0,2	MACRO %53B(1254)-4 11:50 11-Nov-24 Page 7
FIXED	KLM	26-Mar-96 10:07		*FIXED* FIXED CONTROL AND DISPATCH STORAGE, SEPT 18,1979

   640					; **********************************************************************
   641					;USER MODE MONITOR TYPE FLAG
   642					; **********************************************************************
   643
   644	030516	000000	000000		MONTYP:	0	;0 = TOPS10, -1 = TOPS20
   645
   646					;*********************************************************************^
   647					;*KL10 PROCESSOR TYPE FLAG, 0=P0, 1=BBD NEW, 2=BBD OLD
   648					;*********************************************************************^
   649
   650	030517	000000	000000		KLTYP:	0
   651
   652					; **********************************************************************
   653					;SPECIAL USERS MUUO INTERCEPT INSTRUCTION
   654					; **********************************************************************
   655
   656	030520	000000	000000		$$MUUO:	0	;IF NON-ZERO, XCT'D AT START OF MUUOER
   657
   658					; **********************************************************************
   659					;SPECIAL USERS USER MODE OUTPUT ERROR INTERCEPT INSTUCTION
   660					; **********************************************************************
   661
   662	030521	000000	000000		$$OUTER:0	;IF NON-ZERO, XCT'D AT END OF USER MODE ERROR
   663
   664					; **********************************************************************
   665					;"SWITCH" CALL USAGE CONTROL
   666					; **********************************************************************
   667
   668	030522	000000	000000		$$TOGGLE:0	;IF NON-ZERO, USE C(CONSW) FOR SWITCHES
   669
   670					; **********************************************************************
   671					;SPECIAL USERS ALTMODE SWITCH CALL INTERCEPT INSTRUCTIONS
   672					; **********************************************************************
   673
   674	030523	000000	000000		$$TAX1:	0	;IF NON-ZERO, XCT'D AT START OF ALTMODE SWITCH CALL
   675	030524	000000	000000		$$TAX2:	0	;IF NON-ZERO, XCT'D AT END OF ALTMODE SWITCH CALL
   676
   677					; **********************************************************************
   678					;SM10 (KS-10) PROCESSOR TYPE FLAG
   679					; **********************************************************************
   680
   681	030525	000000	000000		SM10:	0	;IF -1 THIS IS A KS-10
   682
   683					; **********************************************************************
   684					;RIGHT HALF SWITCHES PROMPT TABLE ADDRESS
   685					; **********************************************************************
   686
   687	030526	000000	000000		SWPTAB:	0	;0 = NO PROMPT, ADR = ADR OF SIXBIT PROMPT TABLE
   688
   689					; **********************************************************************
   690					;SPECIAL FUTURE EXPANSION ROOM
   691					; **********************************************************************
   692
   693					; **********************************************************************
   694					;END OF FIXED STORAGE
DFKAA PDP-10 KL10 BASIC INSTRUCTION DIAGNOSTIC (1) VER 0,2	MACRO %53B(1254)-4 11:50 11-Nov-24 Page 7-1
FIXED	KLM	26-Mar-96 10:07		*FIXED* FIXED CONTROL AND DISPATCH STORAGE, SEPT 18,1979

   695					; **********************************************************************
   696
   697	030577					LOC	30577
   698	030577	000000	000000		ENDFIX:	0		;END OF FIXED STORAGE
DFKAA PDP-10 KL10 BASIC INSTRUCTION DIAGNOSTIC (1) VER 0,2	MACRO %53B(1254)-4 11:50 11-Nov-24 Page 1
SPCCPU	KLM	13-Jan-89 11:46		*SPCCPU* SPECIAL BASIC CPU PROCESSOR CONTROL, 26-FEB-76

   699					SUBTTL	*SPCCPU* SPECIAL BASIC CPU PROCESSOR CONTROL, 26-FEB-76
   700
   701					;NEW DEFINITIONS USED BY THE KL10 SUBROUTINE PACKAGE
   702
   703			000000		AC0=	0
   704			030000		DIAGNOS=30000		;PDP-10 DIAGNOSTIC START ADDRESS
   705			010000		DDT=	10000		;PDP-10 DDT START ADDRESS
   706			020000		DIAMON=	20000		;PDP-10 DIAMON LOADER START ADDRESS
   707			020000		DONG11=	1B22		;11 DOORBELL (FROM THE 10)
   708
   709					;DTE20 DEVICE CODES
   710
   711			000200		DTE==	200		;DTE0
   712			000204		DTE0==	204
   713			000204		DTE1==	204
   714			000210		DTE2==	210
   715			000214		DTE3==	214
   716
   717					;KL10 EPT COMMUNICATION AREA
   718
   719			000440		$STD=	440		;PDP-10 DIAGNOSTIC START ADDRESS
   720			000441		$DDT=	441		;PDP-10 DDT START ADDRESS
   721			000442		$STL=	442		;PDP-10 LOADER START ADDRESS
   722			000443		$STM=	443		;PDP-10 MONITOR START ADDRESS
   723
   724			000444		$DTFLG=	444		;DTE20 OPERATION COMPLETE FLAG
   725			000445		$DTCLK=	445		;DTE20 CLOCK INTERRUPT FLAG
   726			000446		$DTCI=	446		;DTE20 CLOCK INTERRUPT INSTRUCTION
   727			000447		$DTT11=	447		;DTE20 10 TO 11 ARGUMENT
   728			000450		$DTF11=	450		;DTE20 11 TO 10 ARGUMENT
   729			000451		$DTCMD=	451		;DTE20 TO 11 COMMAND WORD
   730			000452		$DTSEQ=	452		;DTE20 OPERATION SEQUENCE NUMBER
   731			000453		$DTOPR=	453		;DTE20 OPERATIONAL DTE #
   732			000454		$DTCHR=	454		;DTE20 LAST TYPED CHARACTER
   733			000455		$DTMTD=	455		;DTE20 MONITOR TTY OUTPUT COMPLETE FLAG
   734			000456		$DTMTI=	456		;DTE20 MONITOR TTY INPUT FLAG
   735
   736			000457		$DTSWR=	457		;DTE20 CONSOLE SWITCH REGISTER
DFKAA PDP-10 KL10 BASIC INSTRUCTION DIAGNOSTIC (1) VER 0,2	MACRO %53B(1254)-4 11:50 11-Nov-24 Page 2
SPCCPU	KLM	13-Jan-89 11:46		*SPCCPU* SPECIAL BASIC CPU PROCESSOR CONTROL, 26-FEB-76

   737					;SPECIAL "FIXED" REASSIGNMENTS
   738
   739			030600			$$LOC=.			;SAVE CURRENT LOCATION
   740
   741	030000					LOC	30000
   742	030000	254 00 0 00 030600 	$$BEGIN:JRST	$$START		;SETUP SPECIAL START
   743	030001	254 00 0 00 030600 		JRST	$$START		;"DIAMON" CHAIN START ADDRESS
   744
   745	000440					LOC	440
   746	000440	254 00 0 00 030000 	$STD:	JRST	BEGIN		;SETUP FOR "STD"
   747	000443					LOC	443
   748	000443	254 00 0 00 030636 	$STM:	JRST	$SPEC		;SIMPLE RUN CONTROL
   749
   750	030057					LOC	30057
   751	030057	254 00 0 00 030641 	$BEGEND:JRST	$SPBEND		;SETUP SPECIAL "BEGEND"
   752
   753					;SPECIAL MUUO, TRAP & PAGE FAIL SETUP
   754
   755	000420					LOC	420
   756	000420	254 04 0 00 000420 	$$420:	HALT	.		;KI10 PAGE FAIL
   757	000421	255 00 0 00 000000 	$$421:	JFCL			;OVERFLOW
   758	000422	254 04 0 00 000422 	$$422:	HALT	.		;PUSHDOWN OVERFLOW
   759	000423	254 04 0 00 000423 	$$423:	HALT	.		;TRAP 3
   760	000424	000000	000000		$$424:	0			;MMUO
   761	000425	000000	000000		$$425:	0			;MMUO PC
   762	000426	000000	000000		$$426:	0			;KI10-PAGE FAIL, KL10-PROCESS CONTEXT
   763	000427	254 04 0 00 000427 	$$427:	HALT	.
   764	000430	000000	000427		$$430:	427			;MMUO NEW PC'S
   765	000431	000000	000427		$$431:	427
   766	000432	000000	000427		$$432:	427
   767	000433	000000	000427		$$433:	427
   768	000434	000000	000427		$$434:	427
   769	000435	000000	000427		$$435:	427
   770	000436	000000	000427		$$436:	427
   771	000437	000000	000427		$$437:	427
   772
   773	000500					LOC	500
   774	000500	000000	000000		$$500:	0			;KL10 PAGE FAIL WORD
   775	000501	000000	000000		$$501:	0			;KL10 PAGE FAIL PC
   776	000502	000000	000503		$$502:	503			;KL10 PAGE FAIL NEW PC
   777	000503	254 04 0 00 000503 	$$503:	HALT	.
DFKAA PDP-10 KL10 BASIC INSTRUCTION DIAGNOSTIC (1) VER 0,2	MACRO %53B(1254)-4 11:50 11-Nov-24 Page 3
SPCCPU	KLM	13-Jan-89 11:46		*SPCCPU* SPECIAL BASIC CPU PROCESSOR CONTROL, 26-FEB-76

   778	030600					LOC	$$LOC		;RESET CURRENT LOCATION
   779
   780					;SPECIAL STARTUP SEQUENCE
   781
   782	030600	402 00 0 00 030037 	$$START:SETZM	USER
   783	030601	265 00 0 00 030602 		JSP	0,.+1		;IN USER MODE ?
   784	030602	603 00 0 00 010000 		TLNE	0,USERF
   785	030603	476 00 0 00 030037 		SETOM	USER		;YES, SET CONTROL WORD
   786	030604	336 00 0 00 030042 		SKIPN	MONFLG		;SPECIAL USER MODE ?
   787	030605	402 00 0 00 030037 		SETZM	USER		;YES, RUN AS EXEC
   788	030606	332 00 0 00 030037 		SKIPE	USER
   789	030607	254 00 0 00 030712 		JRST	START		;USER MODE, DON'T NEED CPU TYPE
   790
   791	030610	336 00 0 00 030044 	$STKIL:	SKIPN	MONTEN		;LOADED BY "DIAMON" ?
   792	030611	476 00 0 00 030024 		SETOM	ITRCNT		;NO, RUN FOREVER
   793	030612	402 00 0 00 030517 		SETZM	KLTYP
   794	030613	402 00 0 00 030041 		SETZM	KLFLG		;ASSUME KI10
   795	030614	200 01 0 00 070251 		MOVE	1,[1,,1]
   796	030615	251 01 0 00 000001 		BLT	1,1		;HOPE THIS WORKS
   797	030616	316 01 0 00 070251 		CAMN	1,[1,,1]	;IF AC NE 1,,1 AFTER BLT, KL10
   798	030617	254 00 0 00 030712 		JRST	START		;KI10, NO ADDITIONAL SETUP
   799
   800	030620	7 000 20 0 00 010040 	$STKL:	CONO	APR,10040	;SET BBD NOT BIT
   801	030621	7 000 24 0 00 000000 		CONI	APR,0
   802	030622	7 000 20 0 00 020040 		CONO	APR,20040	;CLEAR BBD NOT BIT
   803	030623	606 00 0 00 000040 		TRNN	0,40		;IF SET, KL10
   804	030624	350 00 0 00 030517 		AOS	KLTYP		;IF NOT, BBD
   805	030625	402 00 0 00 000444 		SETZM	$DTFLG
   806	030626	402 00 0 00 000445 		SETZM	$DTCLK
   807	030627	200 00 0 00 000453 		MOVE	$DTOPR		;GET DTE #
   808	030630	436 00 0 00 030670 		ORM	$$DTE0		;INSERT IN DTE I/O INSTS
   809	030631	436 00 0 00 030672 		ORM	$$DTE1
   810	030632	436 00 0 00 030704 		ORM	$$DTE2
   811	030633	436 00 0 00 030706 		ORM	$$DTE3
   812	030634	476 00 0 00 030041 		SETOM	KLFLG		;SET KL10 CONTROL FLAG
   813	030635	254 00 0 00 030712 		JRST	START
   814
   815	030636	200 00 0 00 070252 	$SPEC:	MOVE	[JRST STARTA]	;SIMPLE RUN CONTROL
   816	030637	202 00 0 00 030643 		MOVEM	$SPB1
   817	030640	254 00 0 00 030712 		JRST	START
DFKAA PDP-10 KL10 BASIC INSTRUCTION DIAGNOSTIC (1) VER 0,2	MACRO %53B(1254)-4 11:50 11-Nov-24 Page 4
SPCCPU	KLM	13-Jan-89 11:46		*SPCCPU* SPECIAL BASIC CPU PROCESSOR CONTROL, 26-FEB-76

   818					;SPECIAL "BEGEND" ROUTINE
   819
   820	030641	350 00 0 00 030047 	$SPBEND:AOS	PASCNT		;INCREMENT PASS COUNT
   821	030642	370 00 0 00 030024 		SOS	ITRCNT		;DECREMENT ITERATION COUNT
   822	030643	336 00 0 00 030037 	$SPB1:	SKIPN	USER
   823	030644	254 00 0 00 030652 		JRST	$SPBEX		;EXEC MODE
   824
   825	030645	332 00 0 00 030024 	$SPBUS:	SKIPE	ITRCNT		;USER MODE, COMPLETED ?
   826	030646	254 00 0 00 030742 		JRST	STARTA		;NO, KEEP RUNNING
   827	030647	336 00 0 00 030044 		SKIPN	MONTEN		;DONE, LOADED BY "DIAMON" ?
   828	030650	047 00 0 00 000012 		EXIT			;NO, RETURN TO MONITOR
   829	030651	254 00 1 00 030012 		JRST	@RETURN		;YES, RETURN TO "DIAMON"
   830
   831	030652	332 00 0 00 030041 	$SPBEX:	SKIPE	KLFLG
   832	030653	254 00 0 00 030660 		JRST	$SPBKL		;KL10 & EXEC
   833	030654	7 004 14 0 00 030024 		DATAO	PI,ITRCNT	;KI10 & EXEC, DISPLAY ITER COUNT
   834	030655	332 00 0 00 030024 		SKIPE	ITRCNT
   835	030656	254 00 0 00 030742 		JRST	STARTA		;NOT COMPLETED YET
   836	030657	254 00 1 00 030012 		JRST	@RETURN		;DONE
   837
   838	030660	336 00 0 00 030024 	$SPBKL:	SKIPN	ITRCNT
   839	030661	254 00 0 00 030676 		JRST	$SPKLD		;KL10, EXEC & COMPLETED
   840
   841	030662	335 00 0 00 030043 		SKIPGE	MONCTL
   842	030663	254 00 0 00 030742 		JRST	STARTA		;"DIAMON" CONTROL
   843	030664	201 00 0 00 000404 		MOVEI	0,404		;NOTIFY PDP-11 OF END OF PASS
   844	030665	202 00 0 00 000451 		MOVEM	0,$DTCMD
   845	030666	402 00 0 00 000444 		SETZM	$DTFLG
   846	030667	336 00 0 00 030517 		SKIPN	KLTYP
   847	030670	7 200 20 0 00 020000 	$$DTE0:	CONO	DTE,DONG11
   848	030671	332 00 0 00 030517 		SKIPE	KLTYP
   849	030672	7 200 20 0 00 010000 	$$DTE1:	CONO	DTE,10000
   850	030673	336 00 0 00 000444 		SKIPN	$DTFLG		;WAIT TILL 11 RESPONDS
   851	030674	254 00 0 00 030673 		JRST	.-1
   852	030675	254 00 0 00 030742 		JRST	STARTA		;KEEP RUNNING
   853
   854					;SPECIAL KL10 COMPLETED ROUTINE
   855
   856	030676	332 00 0 00 030044 	$SPKLD:	SKIPE	MONTEN
   857	030677	254 00 1 00 030012 		JRST	@RETURN		;LOADED BY "DIAMON"
   858
   859	030700	201 00 0 00 000403 		MOVEI	0,403		;NOTIFY PDP-11 OF COMPLETION
   860	030701	202 00 0 00 000451 		MOVEM	0,$DTCMD
   861	030702	402 00 0 00 000444 		SETZM	$DTFLG
   862	030703	336 00 0 00 030517 		SKIPN	KLTYP
   863	030704	7 200 20 0 00 020000 	$$DTE2:	CONO	DTE,DONG11
   864	030705	332 00 0 00 030517 		SKIPE	KLTYP
   865	030706	7 200 20 0 00 010000 	$$DTE3:	CONO	DTE,10000
   866	030707	336 00 0 00 000444 		SKIPN	$DTFLG		;SHOULD NEVER HAPPEN
   867	030710	254 00 0 00 030707 		JRST	.-1		;11 NEVER RETURNS ON END OF PROGRAM
   868	030711	254 04 0 00 030000 		HALT	BEGIN		;IF IT DOES, HALT.
DFKAA PDP-10 KL10 BASIC INSTRUCTION DIAGNOSTIC (1) VER 0,2	MACRO %53B(1254)-4 11:50 11-Nov-24 Page 1
DFKAA1	MAC	13-Jan-89 10:22		DIAGNOSTIC SECTION

   869					SUBTTL	DIAGNOSTIC SECTION
   870
   871	030712	402 00 0 00 030037 	START:	SETZM	USER#		;CLEAR USER CONTROL WORD
   872	030713	265 00 0 00 030714 		JSP	0,.+1		;GET FLAGS
   873	030714	603 00 0 00 010000 		TLNE	USERF		;IN USER MODE?
   874	030715	476 00 0 00 030037 		SETOM	USER		;YES, SET USER CONTROL WORD
   875	030716	336 00 0 00 030042 		SKIPN	MONFLG		;SPECIAL USER MODE?
   876	030717	402 00 0 00 030037 		SETZM	USER		;YES, CLEAR USER CONTROL WORD
   877	030720	336 00 0 00 030037 		SKIPN	USER
   878	030721	254 00 0 00 030742 		JRST	STARTA
   879	030722	331 00 0 00 030043 		SKIPL	MONCTL
   880	030723	051 03 0 00 030725 		TTCALL	3,PGMNAM
   881	030724	254 00 0 00 030742 		JRST	STARTA
   882
   883	030725				PGMNAM:	ASCIZ/
   884	030725	015 012 104 105 103 	DECSYSTEM10 KL10 BASIC INSTRUCTION DIAGNOSTIC (1) [DFKAA]
   885	030726	123 131 123 124 105
   886	030727	115 061 060 040 113
   887	030730	114 061 060 040 102
   888	030731	101 123 111 103 040
   889	030732	111 116 123 124 122
   890	030733	125 103 124 111 117
   891	030734	116 040 104 111 101
   892	030735	107 116 117 123 124
   893	030736	111 103 040 050 061
   894	030737	051 040 133 104 106
   895	030740	113 101 101 135 015
   896	030741	012 000 000 000 000 	/
   897
   898					;BASIC INSTRUCTION TEST (1)
   899					;THE TEST IS DESIGNED FOR INITIAL DEBUGGING OF
   900					;PROCESSOR HARDWARE AND TO DETECT (SOLID) FAILURES
   901					;IN THE FIELD.
   902
   903
   904	030742	254 00 0 00 030743 	STARTA:	JRST	.+1
DFKAA PDP-10 KL10 BASIC INSTRUCTION DIAGNOSTIC (1) VER 0,2	MACRO %53B(1254)-4 11:50 11-Nov-24 Page 2
DFKAA1	MAC	13-Jan-89 10:22		TEST OF JUMP, JUMPA AND SKIPX INSTRUCTIONS

   905					SUBTTL	TEST OF JUMP, JUMPA AND SKIPX INSTRUCTIONS
   906
   907					;NOTE: AN "*" IN THE COMMENT FIELD OF AN INSTRUCTION INDICATES THAT IT IS THE TESTED
   908					;INSTRUCTION.
   909					;**********
   910
   911					;THIS TEST VERIFIES THAT SKIPA ALWAYS SKIPS THE NEXT INSTRUCTION
   912
   913			030743		A00=.
   914	030743	334 00 0 00 000000 	A12500:	SKIPA			;*SKIPA SHOULD ALWAYS SKIP THE NEXT INSTRUCTION
   915	030744	254 04 0 00 000000 		HALT			;IF PROGRAM HALTS, SKIPA DID NOT SKIP
   916
   917					;IF PROGRAM HANGS UP ON SKIPA INSTRUCTION, CHECK AB PC EN [ABC], AB PC F/F [ABC],
   918					;AB PC B [ABC OR AB], AB PC (FETCH) EN [ABC], IR SKIPS [IR3], IR SKIPX [IR1],
   919					;IR 3XX [IR1], IR BITS 00 - 08 [IR1], F CYC ACT EN C [FI], FT6 F/F [F2],
   920					;PC CLOCK EN [PCC],  ET2 J F/F [E], PC CLK (ET2) EN [PCC], ADZ COND P [ADZ] AND
   921					;ADZ COND R [ADZ], PC CLOCK A [PCC], PC CLOCK B [PCC]
   922
   923					;IF PROGRAM HALTED ON HALT INSTRUCTION, CHECK ST1 COND [ST2]
   924
   925					;**********
   926
   927					;THIS TEST VERIFIES THAT JUMP NEVER JUMPS
   928
   929	030745	320 00 0 00 030746 	A15000:	JUMP	.+1		;*JUMP SHOULD NEVER JUMP
   930	030746	334 00 0 00 000000 		SKIPA			;SKIP HALT INSTRUCTION IF JUMP IS SUCCESSFUL
   931	030747	254 04 0 00 000000 		HALT			;HALT IF JUMP FAILS
   932
   933					;IF PROGRAM HANGS UP ON JUMP .+1 INSTRUCTION, THE JUMP INSTRUCTION
   934					;MAY HAVE FAILED.  CHECK ST1 COND [ST2], ST INST FET ST1 EN [ST2], ET2 D F/F [E],
   935					;IR JUMPS [IR1], IR JUMPX [IR1]
   936
   937					;**********
   938					;THIS TEST VERIFIES THAT JUMP NEVER JUMPS
   939
   940	030750	320 00 0 00 030752 	A15100:	JUMP	.+2		;*JUMP SHOULD NEVER JUMP
   941	030751	334 00 0 00 000000 		SKIPA			;SKIP HALT INSTRUCTION IF JUMP IS SUCCESSFUL
   942	030752	254 04 0 00 000000 		HALT			;HALT IF JUMP FAILS
   943
   944					;AB PC EN [ABC]
   945
   946					;**********
   947
   948					;THIS TEST VERIFIES THAT JUMPA .+1 ALWAYS JUMPS TO THE NEXT INSTRUCTION
   949
   950	030753	324 00 0 00 030754 	A12700:	JUMPA	.+1		;*JUMPA .+1 SHOULD NEVER JUMP
   951	030754	334 00 0 00 000000 		SKIPA			;SKIP HALT INSTRUCTION IF JUMPA IS SUCCESSFUL
   952	030755	254 04 0 00 000000 		HALT			;HALT IF JUMPA .+1 FAILED
   953
   954					;**********
   955
   956					;THIS TEST VERIFIES THAT JUMPA JUMPS TO THE LOCATION SPECIFIED BY E WHEN E=.+2
   957
   958	030756	324 00 0 00 030760 	A12600:	JUMPA	.+2		;*JUMPA .+2 SHOULD ALWAYS SKIP THE NEXT INSTRUCTION
   959	030757	254 04 0 00 000000 		HALT			;PROGRAM HALTS HERE IF JUMPA .+2 FAILS
DFKAA PDP-10 KL10 BASIC INSTRUCTION DIAGNOSTIC (1) VER 0,2	MACRO %53B(1254)-4 11:50 11-Nov-24 Page 2-1
DFKAA1	MAC	13-Jan-89 10:22		TEST OF JUMP, JUMPA AND SKIPX INSTRUCTIONS

   960
   961					;ST1 COND [ST2]
   962
   963					;**********
DFKAA PDP-10 KL10 BASIC INSTRUCTION DIAGNOSTIC (1) VER 0,2	MACRO %53B(1254)-4 11:50 11-Nov-24 Page 3
DFKAA1	MAC	13-Jan-89 10:22		TEST OF JUMP, JUMPA AND SKIPX INSTRUCTIONS

   964					;THIS TEST VERIFIES THAT SKIPA IS DATA INDEPENDENT.  HENCE, IT ALWAYS SKIPS THE NEXT
   965					;INSTRUCTION.
   966					;THE MOVE [0] INSTRUCTION IS USED TO TEST THE DATA INDEPENDENCE OF SKIPA.
   967
   968	030760	200 00 0 00 070253 	A100:	MOVE	[0]		;PRESET LOCATION 0 TO ALL ZEROS
   969	030761	334 00 0 00 000000 		SKIPA			;*SKIPA SHOULD ALWAYS SKIP THE NEXT INSTRUCTION
   970						STOP^
   971	030762	254 04 0 00 030763 		HALT	.+1		;TEST FAILED IF PROGRAM HALTS HERE
   972	030763	324 00 0 00 030764 		JUMPA	.+1		;IF TEST FAILS, CHANGE THIS INSTRUCTION (JUMPA .+1) TO
   973									;JUMPA X (X IS THE ADDRESS OF THE FIRST INSTRUCTION
   974									;IN THE SUBTEST) TO LOOP ON ERROR^
   975
   976					;**********
   977					;THIS TEST INSURES THAT SKIPA IS DATA INDEPENDENT.  HENCE, IT ALWAYS SKIPS THE NEXT
   978					;INSTRUCTION.
   979					;THE MOVE [-1] INSTRUCTION IS USED TO TEST THE DATA INDEPENDENCE OF SKIPA.
   980
   981	030764	200 00 0 00 070254 	A200:	MOVE	[-1]		;PRESET LOCATION 0 TO ALL ONES
   982	030765	334 00 0 00 000000 		SKIPA			;*SKIPA SKOULD ALWAYS SKIP THE NEXT INSTRUCTION
   983						STOP^
   984	030766	254 04 0 00 030767 		HALT	.+1		;TEST FAILED IF PROGRAM HALTS HERE
   985	030767	324 00 0 00 030770 		JUMPA	.+1		;IF TEST FAILS, CHANGE THIS INSTRUCTION (JUMPA .+1) TO
   986									;JUMPA X (X IS THE ADDRESS OF THE FIRST INSTRUCTION
   987									;IN THE SUBTEST) TO LOOP ON ERROR^
   988
   989					;COND P [ADZ]
   990
   991					;**********
   992					;THIS TEST VERIFIES THAT SKIPGE SKIPS THE NEXT INSTRUCTION WHEN C(E)
   993					;IS ALL ZEROS.  THE MOVE INSTRUCTION IS USED TO LOAD E WITH ALL ZEROS.
   994
   995	030770	200 00 0 00 070253 	A300:	MOVE	[0]		;PRESET E TO ALL ZEROS
   996	030771	335 00 0 00 000000 		SKIPGE			;*SKIPGE SHOULD SKIP THE NEXT INSTRUCTION
   997						STOP^
   998	030772	254 04 0 00 030773 		HALT	.+1		;TEST FAILED IF PROGRAM HALTS HERE
   999	030773	324 00 0 00 030774 		JUMPA	.+1		;IF TEST FAILS, CHANGE THIS INSTRUCTION (JUMPA .+1) TO
  1000									;JUMPA X (X IS THE ADDRESS OF THE FIRST INSTRUCTION
  1001									;IN THE SUBTEST) TO LOOP ON ERROR^
  1002
  1003					;COND R [ADZ], AD00 S-A-1, AD AR + EN [ADAP], AD LT AR + EN [ADAP],
  1004					;AD RT AR + EN [ADAP], AD AR + EN C [ADAP], F CYC ACT EN A [F1]
  1005
  1006					;**********
  1007
  1008					;THIS TEST VERIFIES THAT SKIP IS DATA INDEPENDENT.  HENCE, SKIP NEVER SKIPS.  IT ALWAYS
  1009					;CONTINUES ON TO THE NEXT INSTRUCTION.
  1010
  1011	030774	200 00 0 00 070254 	A400:	MOVE	[-1]		;PRESET E TO ALL ONES
  1012	030775	330 00 0 00 000000 		SKIP			;*SKIP SHOULD NEVER SKIP THE NEXT INSTRUCTION
  1013	030776	334 00 0 00 000000 		SKIPA			;SKIP HALT INSTRUCTION IF TEST PASSES
  1014						STOP^
  1015	030777	254 04 0 00 031000 		HALT	.+1		;TEST FAILED IF PROGRAM HALTS HERE
  1016	031000	324 00 0 00 031001 		JUMPA	.+1		;IF TEST FAILS, CHANGE THIS INSTRUCTION (JUMPA .+1) TO
  1017									;JUMPA X (X IS THE ADDRESS OF THE FIRST INSTRUCTION
  1018									;IN THE SUBTEST) TO LOOP ON ERROR^
DFKAA PDP-10 KL10 BASIC INSTRUCTION DIAGNOSTIC (1) VER 0,2	MACRO %53B(1254)-4 11:50 11-Nov-24 Page 3-1
DFKAA1	MAC	13-Jan-89 10:22		TEST OF JUMP, JUMPA AND SKIPX INSTRUCTIONS

  1019
  1020					;PC CHANGE [PCC], PC CHANGE A [PCC], SEE MEMORY CONTROL DWGS [MC1-4]
  1021
  1022					;**********
DFKAA PDP-10 KL10 BASIC INSTRUCTION DIAGNOSTIC (1) VER 0,2	MACRO %53B(1254)-4 11:50 11-Nov-24 Page 4
DFKAA1	MAC	13-Jan-89 10:22		TEST OF JUMP, JUMPA AND SKIPX INSTRUCTIONS

  1023					;THIS TEST VERIFIES THAT SKIPGE WILL NOT SKIP THE NEXT INSTRUCTION WHEN C(E) IS
  1024					;NEGATIVE.  THE MOVE INSTRUCTION LOADS E WITH -1, A NEGATIVE NUMBER.
  1025
  1026	031001	200 00 0 00 070254 	A500:	MOVE	[-1]		;PRESET E WITH ALL ONES, A NEGATIVE NUMBER
  1027	031002	335 00 0 00 000000 		SKIPGE			;*SKIPGE SHOULD NOT SKIP THE NEXT INSTRUCTION
  1028	031003	334 00 0 00 000000 		SKIPA			;SKIP HALT INSTRUCTION IF TEST PASSES
  1029						STOP^
  1030	031004	254 04 0 00 031005 		HALT	.+1		;TEST FAILED IF PROGRAM HALTS HERE
  1031	031005	324 00 0 00 031006 		JUMPA	.+1		;IF TEST FAILS, CHANGE THIS INSTRUCTION (JUMPA .+1) TO
  1032									;JUMPA X (X IS THE ADDRESS OF THE FIRST INSTRUCTION
  1033									;IN THE SUBTEST) TO LOOP ON ERROR^
  1034
  1035					;IF MOVE INSTRUCTION FAILED, CHECK MOVX-: FCE [F1], -IR XXXI [IR1], -IR XXXM [IR1],
  1036					;IR HWTFWT [IR3], IR FWT [IR2], IR2XX [IR1]
  1037
  1038					;IF SKIPGE FAILED, CHECK SKIPX: FCE [F1]
  1039
  1040					;**********
  1041
  1042					;THIS TEST VERIFIES THAT SKIPN WILL NOT SKIP THE NEXT INSTRUCTION WHEN
  1043					;C(E) IS ZERO.  THE MOVE INSTRUCTION  LOADS E WITH ALL ZEROS.
  1044
  1045	031006	200 00 0 00 070253 	A600:	MOVE	[0]		;PRESET E WITH ALL ZEROS
  1046	031007	336 00 0 00 000000 		SKIPN			;*SKIPN SHOULD NOT SKIP THE NEXT INSTRUCTION
  1047	031010	334 00 0 00 000000 		SKIPA			;SKIP HALT INSTRUCTION IF TEST PASSES
  1048						STOP^
  1049	031011	254 04 0 00 031012 		HALT	.+1		;TEST FAILED IF PROGRAM HALTS HERE
  1050	031012	324 00 0 00 031013 		JUMPA	.+1		;IF TEST FAILS, CHANGE THIS INSTRUCTION (JUMPA .+1) TO
  1051									;JUMPA X (X IS THE ADDRESS OF THE FIRST INSTRUCTION
  1052									;IN THE SUBTEST) TO LOOP ON ERROR^
  1053
  1054					;**********
  1055
  1056					;THIS TEST VERIFIES THAT SKIPN IS DATA DEPENDENT.  HENCE, IT SHOULD SKIP
  1057					;THE NEXT INSTRUCTION WHEN C(E) IS NON-ZERO.  THE MOVE INSTRUCTION LOADS
  1058					;E WITH -1, A NON-ZERO NUMBER.
  1059
  1060	031013	200 00 0 00 070254 	A700:	MOVE	[-1]		;PRESET E WITH ALL ONES, A NON-ZERO NUMBER
  1061	031014	336 00 0 00 000000 		SKIPN			;*SKIPN SHOULD SKIP THE NEXT INSTRUCTION
  1062						STOP^
  1063	031015	254 04 0 00 031016 		HALT	.+1		;TEST FAILED IF PROGRAM HALTS HERE
  1064	031016	324 00 0 00 031017 		JUMPA	.+1		;IF TEST FAILS, CHANGE THIS INSTRUCTION (JUMPA .+1) TO
  1065									;JUMPA X (X IS THE ADDRESS OF THE FIRST INSTRUCTION
  1066									;IN THE SUBTEST) TO LOOP ON ERROR^
  1067
  1068					;**********
DFKAA PDP-10 KL10 BASIC INSTRUCTION DIAGNOSTIC (1) VER 0,2	MACRO %53B(1254)-4 11:50 11-Nov-24 Page 5
DFKAA1	MAC	13-Jan-89 10:22		TEST OF JUMP, JUMPA AND SKIPX INSTRUCTIONS

  1069					;THIS TEST VERIFIES THAT SKIPE IS DATA DEPENDENT.  HENCE, IT SHOULD NOT
  1070					;SKIP THE NEXT INSTRUCTION WHEN C(E) IS NON-ZERO.  THE MOVE INSTRUCTION LOADS E
  1071					;WITH -1, A NON-ZERO NUMBER.
  1072
  1073	031017	200 00 0 00 070254 	A1000:	MOVE	[-1]		;PRESET E WITH ALL ONES, A NON-ZERO NUMBER
  1074	031020	332 00 0 00 000000 		SKIPE			;*SKIPE SHOULD NOT SKIP THE NEXT INSTRUCTION
  1075	031021	334 00 0 00 000000 		SKIPA			;SKIP HALT INSTRUCTION IF TEST PASSES
  1076						STOP^
  1077	031022	254 04 0 00 031023 		HALT	.+1		;TEST FAILED IF PROGRAM HALTS HERE
  1078	031023	324 00 0 00 031024 		JUMPA	.+1		;IF TEST FAILS, CHANGE THIS INSTRUCTION (JUMPA .+1) TO
  1079									;JUMPA X (X IS THE ADDRESS OF THE FIRST INSTRUCTION
  1080									;IN THE SUBTEST) TO LOOP ON ERROR^
  1081
  1082					;**********
  1083
  1084					;THIS TEST VERIFIES THAT SKIPE IS DATA DEPENDENT.  HENCE, IT SHOULD SKIP
  1085					;THE NEXT INSTRUCTION WHEN C(E) IS ZERO.  THE MOVE INSTRUCTION LOADS ALL
  1086					;ZEROS INTO E.
  1087
  1088	031024	200 00 0 00 070253 	A1100:	MOVE	[0]		;PRESET E TO ALL ZEROS
  1089	031025	332 00 0 00 000000 		SKIPE			;*SKIPE SHOULD SKIP THE NEXT INSTRUCTION
  1090						STOP^
  1091	031026	254 04 0 00 031027 		HALT	.+1		;TEST FAILED IF PROGRAM HALTS HERE
  1092	031027	324 00 0 00 031030 		JUMPA	.+1		;IF TEST FAILS, CHANGE THIS INSTRUCTION (JUMPA .+1) TO
  1093									;JUMPA X (X IS THE ADDRESS OF THE FIRST INSTRUCTION
  1094									;IN THE SUBTEST) TO LOOP ON ERROR^
  1095
  1096					;**********
  1097
  1098					;THIS TEST VERIFIES THAT SKIP IS DATA INDEPENDENT.  HENCE, IT NEVER SKIPS.  IT ALWAYS
  1099					;CONTINUES ON TO THE NEXT INSTRUCTION.
  1100
  1101	031030	200 00 0 00 070253 	A1200:	MOVE	[0]		;PRESET E TO ALL ZEROS
  1102	031031	330 00 0 00 000000 		SKIP			;*SKIP SHOULD NEVER SKIP THE NEXT INSTRUCTION
  1103	031032	334 00 0 00 000000 		SKIPA			;SKIP HALT INSTRUCTION IF TEST PASSES
  1104						STOP^
  1105	031033	254 04 0 00 031034 		HALT	.+1		;TEST FAILED IF PROGRAM HALTS HERE
  1106	031034	324 00 0 00 031035 		JUMPA	.+1		;IF TEST FAILS, CHANGE THIS INSTRUCTION (JUMPA .+1) TO
  1107									;JUMPA X (X IS THE ADDRESS OF THE FIRST INSTRUCTION
  1108									;IN THE SUBTEST) TO LOOP ON ERROR^
  1109
  1110					;**********
DFKAA PDP-10 KL10 BASIC INSTRUCTION DIAGNOSTIC (1) VER 0,2	MACRO %53B(1254)-4 11:50 11-Nov-24 Page 6
DFKAA1	MAC	13-Jan-89 10:22		TEST OF JUMP, JUMPA AND SKIPX INSTRUCTIONS

  1111					;THIS TEST VERIFIES THAT SKIPL IS DATA DEPENDENT.  HENCE, IT WILL NOT SKIP THE NEXT
  1112					;INSTRUCTION WHEN C(E) IS NOT NEGATIVE.  THE MOVE INSTRUCTION IS USED TO LOAD
  1113					;E WITH ALL ZEROS, A NON-NEGATIVE NUMBER.
  1114
  1115	031035	200 00 0 00 070253 	A1300:	MOVE	[0]		;PRESET E T0 ZERO, A NON-NEGATIVE NUMBER
  1116	031036	331 00 0 00 000000 		SKIPL			;*SKIPL SHOULD NOT SKIP THE NEXT INSTRUCTION
  1117	031037	334 00 0 00 000000 		SKIPA			;SKIP HALT INSTRUCTION IF TEST PASSES
  1118						STOP^
  1119	031040	254 04 0 00 031041 		HALT	.+1		;TEST FAILED IF PROGRAM HALTS HERE
  1120	031041	324 00 0 00 031042 		JUMPA	.+1		;IF TEST FAILS, CHANGE THIS INSTRUCTION (JUMPA .+1) TO
  1121									;JUMPA X (X IS THE ADDRESS OF THE FIRST INSTRUCTION
  1122									;IN THE SUBTEST) TO LOOP ON ERROR^
  1123
  1124					;**********
DFKAA PDP-10 KL10 BASIC INSTRUCTION DIAGNOSTIC (1) VER 0,2	MACRO %53B(1254)-4 11:50 11-Nov-24 Page 7
DFKAA1	MAC	13-Jan-89 10:22		TEST OF JUMP, JUMPA AND SKIPX INSTRUCTIONS

  1125					;THIS TEST VERIFIES THAT SKIPL IS DATA DEPENDENT.  HENCE, IT WILL SKIP THE NEXT
  1126					;INSTRUCTION WHEN C(E) IS NEGATIVE.  THE MOVE INSTRUCTION IS USED TO LOAD E WITH -1,
  1127					;A NEGATIVE NUMBER.
  1128
  1129	031042	200 00 0 00 070254 	A1400:	MOVE	[-1]		;PRESET E TO -1, A NEGATIVE NUMBER
  1130	031043	331 00 0 00 000000 		SKIPL			;*SKIPL SHOULD SKIP THE NEXT INSTRUCTION
  1131						STOP^
  1132	031044	254 04 0 00 031045 		HALT	.+1		;TEST FAILED IF PROGRAM HALTS HERE
  1133	031045	324 00 0 00 031046 		JUMPA	.+1		;IF TEST FAILS, CHANGE THIS INSTRUCTION (JUMPA .+1) TO
  1134									;JUMPA X (X IS THE ADDRESS OF THE FIRST INSTRUCTION
  1135									;IN THE SUBTEST) TO LOOP ON ERROR^
  1136
  1137					;**********
  1138
  1139					;THIS TEST VERIFIES THAT SKIPG IS DATA DEPENDENT.  HENCE, IT WILL SKIP THE NEXT
  1140					;INSTRUCTION WHEN C(E) IS GREATER THAN ZERO.  THE MOVE INSTRUCTION IS USED TO LOAD
  1141					;E WITH A NON-ZERO POSITIVE NUMBER.
  1142
  1143	031046	200 00 0 00 070255 	A1500:	MOVE	[XWD 377777,-1]	;PRESET E TO 377777777777, A NON-ZERO POSITIVE NUMBER
  1144	031047	337 00 0 00 000000 		SKIPG			;*SKIPG SHOULD SKIP THE NEXT INSTRUCTION
  1145						STOP^
  1146	031050	254 04 0 00 031051 		HALT	.+1		;TEST FAILED IF PROGRAM HALTS HERE
  1147	031051	324 00 0 00 031052 		JUMPA	.+1		;IF TEST FAILS, CHANGE THIS INSTRUCTION (JUMPA .+1) TO
  1148									;JUMPA X (X IS THE ADDRESS OF THE FIRST INSTRUCTION
  1149									;IN THE SUBTEST) TO LOOP ON ERROR^
  1150
  1151					;**********
  1152
  1153					;THIS TEST VERIFIES THAT SKIPG IS DATA DEPENDENT.  HENCE, IT WILL NOT SKIP THE NEXT
  1154					;INSTRUCTION WHEN C(E) IS NOT GREATER THAN ZERO.  THE MOVE INSTRUCTION IS USED TO
  1155					;LOAD E WITH -1, A NUMBER NOT GREATER THAN ZERO.
  1156
  1157	031052	200 00 0 00 070254 	A1600:	MOVE	[-1]		;PRESET E TO -1, A NEGATIVE NUMBER
  1158	031053	337 00 0 00 000000 		SKIPG			;*SKIPG SHOULD NOT SKIP THE NEXT INSTRUCTION
  1159	031054	334 00 0 00 000000 		SKIPA			;SKIP HALT INSTRUCTION IF TEST PASSES
  1160						STOP^
  1161	031055	254 04 0 00 031056 		HALT	.+1		;TEST FAILED IF PROGRAM HALTS HERE
  1162	031056	324 00 0 00 031057 		JUMPA	.+1		;IF TEST FAILS, CHANGE THIS INSTRUCTION (JUMPA .+1) TO
  1163									;JUMPA X (X IS THE ADDRESS OF THE FIRST INSTRUCTION
  1164									;IN THE SUBTEST) TO LOOP ON ERROR^
  1165
  1166					;**********
DFKAA PDP-10 KL10 BASIC INSTRUCTION DIAGNOSTIC (1) VER 0,2	MACRO %53B(1254)-4 11:50 11-Nov-24 Page 8
DFKAA1	MAC	13-Jan-89 10:22		TEST OF JUMP, JUMPA AND SKIPX INSTRUCTIONS

  1167					;THIS TEST VERIFIES THAT SKIPL IS DATA  DEPENDENT.  HENCE, IT WILL NOT SKIP THE NEXT
  1168					;INSTRUCTION WHEN C(E) IS NON-NEGATIVE.  THE MOVE INSTRUCTION IS USED TO LOAD E WITH
  1169					;377777777777, A NON-NEGATIVE NUMBER.
  1170
  1171	031057	200 00 0 00 070255 	A1700:	MOVE	[XWD 377777,-1]	;PRESET E TO 377777777777, A NON-NEGATIVE NUMBER
  1172	031060	331 00 0 00 000000 		SKIPL			;*SKIPL SHOULD NOT SKIP THE NEXT INSTRUCTION
  1173	031061	334 00 0 00 000000 		SKIPA			;SKIP HALT INSTRUCTION IF TEST PASSES
  1174						STOP^
  1175	031062	254 04 0 00 031063 		HALT	.+1		;TEST FAILED IF PROGRAM HALTS HERE
  1176	031063	324 00 0 00 031064 		JUMPA	.+1		;IF TEST FAILS, CHANGE THIS INSTRUCTION (JUMPA .+1) TO
  1177									;JUMPA X (X IS THE ADDRESS OF THE FIRST INSTRUCTION
  1178									;IN THE SUBTEST) TO LOOP ON ERROR^
  1179
  1180					;**********
  1181
  1182					;THIS TEST VERIFIES THAT SKIPLE IS DATA DEPENDENT.  HENCE, IT WILL SKIP THE NEXT
  1183					;INSTRUCTION WHEN C(E) IS ZERO.  THE MOVE INSTRUCTION LOADS E WITH ALL ZEROS.
  1184
  1185	031064	200 00 0 00 070253 	A2000:	MOVE	[0]		;PRESET E TO ALL ZEROS
  1186	031065	333 00 0 00 000000 		SKIPLE			;*SKIPLE SHOULD SKIP THE NEXT INSTRUCTION
  1187						STOP^
  1188	031066	254 04 0 00 031067 		HALT	.+1		;TEST FAILED IF PROGRAM HALTS HERE
  1189	031067	324 00 0 00 031070 		JUMPA	.+1		;IF TEST FAILS, CHANGE THIS INSTRUCTION (JUMPA .+1) TO
  1190									;JUMPA X (X IS THE ADDRESS OF THE FIRST INSTRUCTION
  1191									;IN THE SUBTEST) TO LOOP ON ERROR^
  1192
  1193					;**********
  1194
  1195					;THIS TEST VERIFIES THAT SKIPLE IS DATA DEPENDENT.  HENCE, IT WILL SKIP THE NEXT
  1196					;INSTRUCTION WHEN E CONTAINS A NEGATIVE NUMBER.  THE MOVE INSTRUCTION IS USED TO LOAD
  1197					;E WITH 400000000000, A NEGATIVE NUMBER.
  1198
  1199	031070	200 00 0 00 070256 	A2100:	MOVE	[XWD 400000,0]	;PRESET E TO 400000000000, A NEGATIVE NUMBER.
  1200	031071	333 00 0 00 000000 		SKIPLE			;*SKIPLE SHOULD SKIP THE NEXT INSTRUCTION
  1201						STOP^
  1202	031072	254 04 0 00 031073 		HALT	.+1		;TEST FAILED IF PROGRAM HALTS HERE
  1203	031073	324 00 0 00 031074 		JUMPA	.+1		;IF TEST FAILS, CHANGE THIS INSTRUCTION (JUMPA .+1) TO
  1204									;JUMPA X (X IS THE ADDRESS OF THE FIRST INSTRUCTION
  1205									;IN THE SUBTEST) TO LOOP ON ERROR^
  1206
  1207					;**********
DFKAA PDP-10 KL10 BASIC INSTRUCTION DIAGNOSTIC (1) VER 0,2	MACRO %53B(1254)-4 11:50 11-Nov-24 Page 9
DFKAA1	MAC	13-Jan-89 10:22		TEST OF JUMP, JUMPA AND SKIPX INSTRUCTIONS

  1208					;THIS TEST VERIFIES THAT SKIPLE IS DATA DEPENDENT.  HENCE, IT WILL NOT SKIP THE NEXT
  1209					;INSTRUCTION WHEN E CONTAINS A POSITIVE NUMBER.  THE MOVE INSTRUCTION LOADS
  1210					;E WITH 377777777777, A POSITIVE NUMBER.
  1211
  1212	031074	200 00 0 00 070255 	A2200:	MOVE	[XWD 377777,-1]	;PRESET E TO 377777777777, A POSITIVE NUMBER
  1213	031075	333 00 0 00 000000 		SKIPLE			;*SKIPLE SHOULD NOT SKIP THE NEXT INSTRUCTION
  1214	031076	334 00 0 00 000000 		SKIPA			;SKIP HALT INSTRUCTION IF TEST PASSES
  1215						STOP^
  1216	031077	254 04 0 00 031100 		HALT	.+1		;TEST FAILED IF PROGRAM HALTS HERE
  1217	031100	324 00 0 00 031101 		JUMPA	.+1		;IF TEST FAILS, CHANGE THIS INSTRUCTION (JUMPA .+1) TO
  1218									;JUMPA X (X IS THE ADDRESS OF THE FIRST INSTRUCTION
  1219									;IN THE SUBTEST) TO LOOP ON ERROR^
  1220
  1221					;*********
DFKAA PDP-10 KL10 BASIC INSTRUCTION DIAGNOSTIC (1) VER 0,2	MACRO %53B(1254)-4 11:50 11-Nov-24 Page 10
DFKAA1	MAC	13-Jan-89 10:22		TEST OF JUMP, JUMPA AND SKIPX INSTRUCTIONS

  1222					;THIS TEST VERIFIES THAT SKIPN IS DATA DEPENDENT.  HENCE, IT WILL SKIP THE NEXT
  1223					;INSTRUCTION ;WHEN E CONTAINS A NON-ZERO NUMBER.  THE MOVE INSTRUCTION IS USED TO
  1224					;LOAD 777000000000, A NON-ZERO NUMBER INTO E.
  1225
  1226	031101	200 00 0 00 070257 	A2300:	MOVE	[XWD 777000,0]	;PRESET E WITH 777000000000, A NON-ZERO NUMBER
  1227	031102	336 00 0 00 000000 		SKIPN			;*SKIPN SHOULD SKIP THE NEXT INSTRUCTION
  1228						STOP^
  1229	031103	254 04 0 00 031104 		HALT	.+1		;TEST FAILED IF PROGRAM HALTS HERE
  1230	031104	324 00 0 00 031105 		JUMPA	.+1		;IF TEST FAILS, CHANGE THIS INSTRUCTION (JUMPA .+1) TO
  1231									;JUMPA X (X IS THE ADDRESS OF THE FIRST INSTRUCTION
  1232									;IN THE SUBTEST) TO LOOP ON ERROR^
  1233
  1234					;**********
  1235
  1236					;THIS TEST VERIFIES THAT SKIPN IS DATA DEPENDENT.  HENCE, IT WILL SKIP THE NEXT
  1237					;INSTRUCTION WHEN E CONTAINS A NON-ZERO NUMBER.  THE MOVE INSTRUCTION IS USED TO
  1238					;LOAD A NON-ZERO NUMBER, 377000000 INTO E.
  1239
  1240	031105	200 00 0 00 070260 	A2400:	MOVE	[XWD 377,0]	;PRESET E TO 377000000, A NON ZERO NUMBER
  1241	031106	336 00 0 00 000000 		SKIPN			;*SKIPN SHOULD SKIP THE NEXT INSTRUCTION
  1242						STOP^
  1243	031107	254 04 0 00 031110 		HALT	.+1		;TEST FAILED IF PROGRAM HALTS HERE
  1244	031110	324 00 0 00 031111 		JUMPA	.+1		;IF TEST FAILS, CHANGE THIS INSTRUCTION (JUMPA .+1) TO
  1245									;JUMPA X (X IS THE ADDRESS OF THE FIRST INSTRUCTION
  1246									;IN THE SUBTEST) TO LOOP ON ERROR^
  1247
  1248					;**********
  1249
  1250					;THIS TEST VERIFIES THAT SKIPN IS DATA DEPENDENT.  HENCE, IT WILL SKIP THE NEXT
  1251					;INSTRUCTION WHEN E CONTAINS A NON-ZERO NUMBER.  THE MOVE INSTRUCTION IS USED TO
  1252					;LOAD E WITH A NON-ZERO NUMBER, 177000.
  1253
  1254	031111	200 00 0 00 070261 	A2500:	MOVE	[177000]	;PRESET E WITH 177000, A NON ZERO NUMBER
  1255	031112	336 00 0 00 000000 		SKIPN			;*SKIPN SHOULD SKIP THE NEXT INSTRUCTION
  1256						STOP^
  1257	031113	254 04 0 00 031114 		HALT	.+1		;TEST FAILED IF PROGRAM HALTS HERE
  1258	031114	324 00 0 00 031115 		JUMPA	.+1		;IF TEST FAILS, CHANGE THIS INSTRUCTION (JUMPA .+1) TO
  1259									;JUMPA X (X IS THE ADDRESS OF THE FIRST INSTRUCTION
  1260									;IN THE SUBTEST) TO LOOP ON ERROR^
  1261
  1262					;**********
DFKAA PDP-10 KL10 BASIC INSTRUCTION DIAGNOSTIC (1) VER 0,2	MACRO %53B(1254)-4 11:50 11-Nov-24 Page 11
DFKAA1	MAC	13-Jan-89 10:22		TEST OF JUMP, JUMPA AND SKIPX INSTRUCTIONS

  1263					;THIS TEST VERIFIES THAT SKIPN IS DATA DEPENDENT.  HENCE, IT WILL SKIP THE NEXT
  1264					;INSTRUCTION WHEN E CONTAINS A NON-ZERO NUMBER.  THE MOVE INSTRUCTION IS USED TO
  1265					;LOAD 777, A NON-ZERO NUMBER INTO E.
  1266
  1267	031115	200 00 0 00 070262 	A2600:	MOVE	[777]		;PRESET E WITH 777, A NON-ZERO NUMBER
  1268	031116	336 00 0 00 000000 		SKIPN			;*SKIPN SHOULD SKIP THE NEXT INSTRUCTION
  1269						STOP^
  1270	031117	254 04 0 00 031120 		HALT	.+1		;TEST FAILED IF PROGRAM HALTS HERE
  1271	031120	324 00 0 00 031121 		JUMPA	.+1		;IF TEST FAILS, CHANGE THIS INSTRUCTION (JUMPA .+1) TO
  1272									;JUMPA X (X IS THE ADDRESS OF THE FIRST INSTRUCTION
  1273									;IN THE SUBTEST) TO LOOP ON ERROR^
  1274
  1275					;**********
  1276
  1277					;THIS TEST VERIFIES THAT SKIPN IS DATA DEPENDENT.  HENCE, IT WILL SKIP THE NEXT
  1278					;INSTRUCTION WHEN E CONTAINS A NON-ZERO NUMBER.  THE MOVE INSTRUCTION IS USED TO
  1279					;LOAD E WITH 600000, A NON-ZERO NUMBER.
  1280
  1281	031121	200 00 0 00 070263 	A2700:	MOVE	[600000]	;PRESET E WITK 600000, A NON-ZERO NUMBER
  1282	031122	336 00 0 00 000000 		SKIPN			;*SKIPN SHOULD SKIP THE NEXT INSTRUCTION
  1283						STOP^
  1284	031123	254 04 0 00 031124 		HALT	.+1		;TEST FAILED IF PROGRAM HALTS HERE
  1285	031124	324 00 0 00 031125 		JUMPA	.+1		;IF TEST FAILS, CHANGE THIS INSTRUCTION (JUMPA .+1) TO
  1286									;JUMPA X (X IS THE ADDRESS OF THE FIRST INSTRUCTION
  1287									;IN THE SUBTEST) TO LOOP ON ERROR^
  1288
  1289					;**********
  1290
  1291					;THIS TEST VERIFIES THAT SKIPN IS DATA DEPENDENT.  HENCE, IT WILL SKIP THE NEXT
  1292					;INSTRUCTION WHEN E CONTAINS A NON-ZERO NUMBER.  THE MOVE INSTRUCTION IS USED TO
  1293					;LOAD E WITH 400000000, A NON-ZERO NUMBER.
  1294
  1295	031125	200 00 0 00 070264 	A3000:	MOVE	[XWD 400,000]	;PRESET E WITH 400000000, A NON-ZERO NUMBER
  1296	031126	336 00 0 00 000000 		SKIPN			;*SKIPN SHOULD SKIP THE NEXT INSTRUCTION
  1297						STOP^
  1298	031127	254 04 0 00 031130 		HALT	.+1		;TEST FAILED IF PROGRAM HALTS HERE
  1299	031130	324 00 0 00 031131 		JUMPA	.+1		;IF TEST FAILS, CHANGE THIS INSTRUCTION (JUMPA .+1) TO
  1300									;JUMPA X (X IS THE ADDRESS OF THE FIRST INSTRUCTION
  1301									;IN THE SUBTEST) TO LOOP ON ERROR^
  1302
  1303					;**********
DFKAA PDP-10 KL10 BASIC INSTRUCTION DIAGNOSTIC (1) VER 0,2	MACRO %53B(1254)-4 11:50 11-Nov-24 Page 12
DFKAA1	MAC	13-Jan-89 10:22		TEST OF JUMP, JUMPA AND SKIPX INSTRUCTIONS

  1304			003100		SN=3100
  1305			000000			ZZ=0
  1306
  1307					A3100:	REPEAT	^D36,
  1308					<;THIS TEST VERIFIES THAT SKIPN IS SENSITIVE TO A ONE IN EVERY BIT POSITION.  THIS TEST
  1309					;IS REPEATED 36 TIMES.  EACH TIME A WORD OF ALL ZEROS EXCEPT FOR A ONE IN ONE
  1310					;BIT POSITION IS MOVED INTO E.  THEN SKIPN IS EXECUTED.  THIS TEST ALSO
  1311					;CHECKS ADDER GATING.  IF THIS TEST FAILS, CHECK C(E).
  1312					;IF C(E)=0, MOVE FAILED; OTHERWISE SKIPN FAILED.
  1313
  1314					SN=SN+1
  1315						ZZ=ZZ+ZZ
  1316						IFE	ZZ,<ZZ=1>
  1317						MOVE	[ZZ]		;MOVE THE CURRENT VALUE OF ZZ INTO E. ZZ IS NON-ZERO
  1318						SKIPN			;*SKIPN SHOULD SKIP THE NEXT INSTRUCTION
  1319						STOP
  1320
  1321					;**********
  1322					>
  1323					;THIS TEST VERIFIES THAT SKIPN IS SENSITIVE TO A ONE IN EVERY BIT POSITION.  THIS TEST
  1324					;IS REPEATED 36 TIMES.  EACH TIME A WORD OF ALL ZEROS EXCEPT FOR A ONE IN ONE
  1325					;BIT POSITION IS MOVED INTO E.  THEN SKIPN IS EXECUTED.  THIS TEST ALSO
  1326					;CHECKS ADDER GATING.  IF THIS TEST FAILS, CHECK C(E).
  1327					;IF C(E)=0, MOVE FAILED; OTHERWISE SKIPN FAILED.
  1328
  1329			003101		SN=SN+1
  1330			000000			ZZ=ZZ+ZZ
  1331			000001			IFE	ZZ,<ZZ=1>
  1332	031131	200 00 0 00 070265 		MOVE	[ZZ]		;MOVE THE CURRENT VALUE OF ZZ INTO E. ZZ IS NON-ZERO
  1333	031132	336 00 0 00 000000 		SKIPN			;*SKIPN SHOULD SKIP THE NEXT INSTRUCTION
  1334						STOP^
  1335	031133	254 04 0 00 031134 		HALT	.+1		;TEST FAILED IF PROGRAM HALTS HERE
  1336	031134	324 00 0 00 031135 		JUMPA	.+1		;IF TEST FAILS, CHANGE THIS INSTRUCTION (JUMPA .+1) TO
  1337									;JUMPA X (X IS THE ADDRESS OF THE FIRST INSTRUCTION
  1338									;IN THE SUBTEST) TO LOOP ON ERROR^
  1339
  1340					;**********
  1341
  1342					;THIS TEST VERIFIES THAT SKIPN IS SENSITIVE TO A ONE IN EVERY BIT POSITION.  THIS TEST
  1343					;IS REPEATED 36 TIMES.  EACH TIME A WORD OF ALL ZEROS EXCEPT FOR A ONE IN ONE
  1344					;BIT POSITION IS MOVED INTO E.  THEN SKIPN IS EXECUTED.  THIS TEST ALSO
  1345					;CHECKS ADDER GATING.  IF THIS TEST FAILS, CHECK C(E).
  1346					;IF C(E)=0, MOVE FAILED; OTHERWISE SKIPN FAILED.
  1347
  1348			003102		SN=SN+1
  1349			000002			ZZ=ZZ+ZZ
  1350						IFE	ZZ,<ZZ=1>
  1351	031135	200 00 0 00 070266 		MOVE	[ZZ]		;MOVE THE CURRENT VALUE OF ZZ INTO E. ZZ IS NON-ZERO
  1352	031136	336 00 0 00 000000 		SKIPN			;*SKIPN SHOULD SKIP THE NEXT INSTRUCTION
  1353						STOP^
  1354	031137	254 04 0 00 031140 		HALT	.+1		;TEST FAILED IF PROGRAM HALTS HERE
  1355	031140	324 00 0 00 031141 		JUMPA	.+1		;IF TEST FAILS, CHANGE THIS INSTRUCTION (JUMPA .+1) TO
  1356									;JUMPA X (X IS THE ADDRESS OF THE FIRST INSTRUCTION
  1357									;IN THE SUBTEST) TO LOOP ON ERROR^
  1358
DFKAA PDP-10 KL10 BASIC INSTRUCTION DIAGNOSTIC (1) VER 0,2	MACRO %53B(1254)-4 11:50 11-Nov-24 Page 12-1
DFKAA1	MAC	13-Jan-89 10:22		TEST OF JUMP, JUMPA AND SKIPX INSTRUCTIONS

  1359					;**********
  1360
  1361					;THIS TEST VERIFIES THAT SKIPN IS SENSITIVE TO A ONE IN EVERY BIT POSITION.  THIS TEST
  1362					;IS REPEATED 36 TIMES.  EACH TIME A WORD OF ALL ZEROS EXCEPT FOR A ONE IN ONE
  1363					;BIT POSITION IS MOVED INTO E.  THEN SKIPN IS EXECUTED.  THIS TEST ALSO
  1364					;CHECKS ADDER GATING.  IF THIS TEST FAILS, CHECK C(E).
  1365					;IF C(E)=0, MOVE FAILED; OTHERWISE SKIPN FAILED.
  1366
  1367			003103		SN=SN+1
  1368			000004			ZZ=ZZ+ZZ
  1369						IFE	ZZ,<ZZ=1>
  1370	031141	200 00 0 00 070267 		MOVE	[ZZ]		;MOVE THE CURRENT VALUE OF ZZ INTO E. ZZ IS NON-ZERO
  1371	031142	336 00 0 00 000000 		SKIPN			;*SKIPN SHOULD SKIP THE NEXT INSTRUCTION
  1372						STOP^
  1373	031143	254 04 0 00 031144 		HALT	.+1		;TEST FAILED IF PROGRAM HALTS HERE
  1374	031144	324 00 0 00 031145 		JUMPA	.+1		;IF TEST FAILS, CHANGE THIS INSTRUCTION (JUMPA .+1) TO
  1375									;JUMPA X (X IS THE ADDRESS OF THE FIRST INSTRUCTION
  1376									;IN THE SUBTEST) TO LOOP ON ERROR^
  1377
  1378					;**********
  1379
  1380					;THIS TEST VERIFIES THAT SKIPN IS SENSITIVE TO A ONE IN EVERY BIT POSITION.  THIS TEST
  1381					;IS REPEATED 36 TIMES.  EACH TIME A WORD OF ALL ZEROS EXCEPT FOR A ONE IN ONE
  1382					;BIT POSITION IS MOVED INTO E.  THEN SKIPN IS EXECUTED.  THIS TEST ALSO
  1383					;CHECKS ADDER GATING.  IF THIS TEST FAILS, CHECK C(E).
  1384					;IF C(E)=0, MOVE FAILED; OTHERWISE SKIPN FAILED.
  1385
  1386			003104		SN=SN+1
  1387			000010			ZZ=ZZ+ZZ
  1388						IFE	ZZ,<ZZ=1>
  1389	031145	200 00 0 00 070270 		MOVE	[ZZ]		;MOVE THE CURRENT VALUE OF ZZ INTO E. ZZ IS NON-ZERO
  1390	031146	336 00 0 00 000000 		SKIPN			;*SKIPN SHOULD SKIP THE NEXT INSTRUCTION
  1391						STOP^
  1392	031147	254 04 0 00 031150 		HALT	.+1		;TEST FAILED IF PROGRAM HALTS HERE
  1393	031150	324 00 0 00 031151 		JUMPA	.+1		;IF TEST FAILS, CHANGE THIS INSTRUCTION (JUMPA .+1) TO
  1394									;JUMPA X (X IS THE ADDRESS OF THE FIRST INSTRUCTION
  1395									;IN THE SUBTEST) TO LOOP ON ERROR^
  1396
  1397					;**********
  1398
  1399					;THIS TEST VERIFIES THAT SKIPN IS SENSITIVE TO A ONE IN EVERY BIT POSITION.  THIS TEST
  1400					;IS REPEATED 36 TIMES.  EACH TIME A WORD OF ALL ZEROS EXCEPT FOR A ONE IN ONE
  1401					;BIT POSITION IS MOVED INTO E.  THEN SKIPN IS EXECUTED.  THIS TEST ALSO
  1402					;CHECKS ADDER GATING.  IF THIS TEST FAILS, CHECK C(E).
  1403					;IF C(E)=0, MOVE FAILED; OTHERWISE SKIPN FAILED.
  1404
  1405			003105		SN=SN+1
  1406			000020			ZZ=ZZ+ZZ
  1407						IFE	ZZ,<ZZ=1>
  1408	031151	200 00 0 00 070271 		MOVE	[ZZ]		;MOVE THE CURRENT VALUE OF ZZ INTO E. ZZ IS NON-ZERO
  1409	031152	336 00 0 00 000000 		SKIPN			;*SKIPN SHOULD SKIP THE NEXT INSTRUCTION
  1410						STOP^
  1411	031153	254 04 0 00 031154 		HALT	.+1		;TEST FAILED IF PROGRAM HALTS HERE
  1412	031154	324 00 0 00 031155 		JUMPA	.+1		;IF TEST FAILS, CHANGE THIS INSTRUCTION (JUMPA .+1) TO
  1413									;JUMPA X (X IS THE ADDRESS OF THE FIRST INSTRUCTION
DFKAA PDP-10 KL10 BASIC INSTRUCTION DIAGNOSTIC (1) VER 0,2	MACRO %53B(1254)-4 11:50 11-Nov-24 Page 12-2
DFKAA1	MAC	13-Jan-89 10:22		TEST OF JUMP, JUMPA AND SKIPX INSTRUCTIONS

  1414									;IN THE SUBTEST) TO LOOP ON ERROR^
  1415
  1416					;**********
  1417
  1418					;THIS TEST VERIFIES THAT SKIPN IS SENSITIVE TO A ONE IN EVERY BIT POSITION.  THIS TEST
  1419					;IS REPEATED 36 TIMES.  EACH TIME A WORD OF ALL ZEROS EXCEPT FOR A ONE IN ONE
  1420					;BIT POSITION IS MOVED INTO E.  THEN SKIPN IS EXECUTED.  THIS TEST ALSO
  1421					;CHECKS ADDER GATING.  IF THIS TEST FAILS, CHECK C(E).
  1422					;IF C(E)=0, MOVE FAILED; OTHERWISE SKIPN FAILED.
  1423
  1424			003106		SN=SN+1
  1425			000040			ZZ=ZZ+ZZ
  1426						IFE	ZZ,<ZZ=1>
  1427	031155	200 00 0 00 070272 		MOVE	[ZZ]		;MOVE THE CURRENT VALUE OF ZZ INTO E. ZZ IS NON-ZERO
  1428	031156	336 00 0 00 000000 		SKIPN			;*SKIPN SHOULD SKIP THE NEXT INSTRUCTION
  1429						STOP^
  1430	031157	254 04 0 00 031160 		HALT	.+1		;TEST FAILED IF PROGRAM HALTS HERE
  1431	031160	324 00 0 00 031161 		JUMPA	.+1		;IF TEST FAILS, CHANGE THIS INSTRUCTION (JUMPA .+1) TO
  1432									;JUMPA X (X IS THE ADDRESS OF THE FIRST INSTRUCTION
  1433									;IN THE SUBTEST) TO LOOP ON ERROR^
  1434
  1435					;**********
  1436
  1437					;THIS TEST VERIFIES THAT SKIPN IS SENSITIVE TO A ONE IN EVERY BIT POSITION.  THIS TEST
  1438					;IS REPEATED 36 TIMES.  EACH TIME A WORD OF ALL ZEROS EXCEPT FOR A ONE IN ONE
  1439					;BIT POSITION IS MOVED INTO E.  THEN SKIPN IS EXECUTED.  THIS TEST ALSO
  1440					;CHECKS ADDER GATING.  IF THIS TEST FAILS, CHECK C(E).
  1441					;IF C(E)=0, MOVE FAILED; OTHERWISE SKIPN FAILED.
  1442
  1443			003107		SN=SN+1
  1444			000100			ZZ=ZZ+ZZ
  1445						IFE	ZZ,<ZZ=1>
  1446	031161	200 00 0 00 070273 		MOVE	[ZZ]		;MOVE THE CURRENT VALUE OF ZZ INTO E. ZZ IS NON-ZERO
  1447	031162	336 00 0 00 000000 		SKIPN			;*SKIPN SHOULD SKIP THE NEXT INSTRUCTION
  1448						STOP^
  1449	031163	254 04 0 00 031164 		HALT	.+1		;TEST FAILED IF PROGRAM HALTS HERE
  1450	031164	324 00 0 00 031165 		JUMPA	.+1		;IF TEST FAILS, CHANGE THIS INSTRUCTION (JUMPA .+1) TO
  1451									;JUMPA X (X IS THE ADDRESS OF THE FIRST INSTRUCTION
  1452									;IN THE SUBTEST) TO LOOP ON ERROR^
  1453
  1454					;**********
  1455
  1456					;THIS TEST VERIFIES THAT SKIPN IS SENSITIVE TO A ONE IN EVERY BIT POSITION.  THIS TEST
  1457					;IS REPEATED 36 TIMES.  EACH TIME A WORD OF ALL ZEROS EXCEPT FOR A ONE IN ONE
  1458					;BIT POSITION IS MOVED INTO E.  THEN SKIPN IS EXECUTED.  THIS TEST ALSO
  1459					;CHECKS ADDER GATING.  IF THIS TEST FAILS, CHECK C(E).
  1460					;IF C(E)=0, MOVE FAILED; OTHERWISE SKIPN FAILED.
  1461
  1462			003110		SN=SN+1
  1463			000200			ZZ=ZZ+ZZ
  1464						IFE	ZZ,<ZZ=1>
  1465	031165	200 00 0 00 070274 		MOVE	[ZZ]		;MOVE THE CURRENT VALUE OF ZZ INTO E. ZZ IS NON-ZERO
  1466	031166	336 00 0 00 000000 		SKIPN			;*SKIPN SHOULD SKIP THE NEXT INSTRUCTION
  1467						STOP^
  1468	031167	254 04 0 00 031170 		HALT	.+1		;TEST FAILED IF PROGRAM HALTS HERE
DFKAA PDP-10 KL10 BASIC INSTRUCTION DIAGNOSTIC (1) VER 0,2	MACRO %53B(1254)-4 11:50 11-Nov-24 Page 12-3
DFKAA1	MAC	13-Jan-89 10:22		TEST OF JUMP, JUMPA AND SKIPX INSTRUCTIONS

  1469	031170	324 00 0 00 031171 		JUMPA	.+1		;IF TEST FAILS, CHANGE THIS INSTRUCTION (JUMPA .+1) TO
  1470									;JUMPA X (X IS THE ADDRESS OF THE FIRST INSTRUCTION
  1471									;IN THE SUBTEST) TO LOOP ON ERROR^
  1472
  1473					;**********
  1474
  1475					;THIS TEST VERIFIES THAT SKIPN IS SENSITIVE TO A ONE IN EVERY BIT POSITION.  THIS TEST
  1476					;IS REPEATED 36 TIMES.  EACH TIME A WORD OF ALL ZEROS EXCEPT FOR A ONE IN ONE
  1477					;BIT POSITION IS MOVED INTO E.  THEN SKIPN IS EXECUTED.  THIS TEST ALSO
  1478					;CHECKS ADDER GATING.  IF THIS TEST FAILS, CHECK C(E).
  1479					;IF C(E)=0, MOVE FAILED; OTHERWISE SKIPN FAILED.
  1480
  1481			003111		SN=SN+1
  1482			000400			ZZ=ZZ+ZZ
  1483						IFE	ZZ,<ZZ=1>
  1484	031171	200 00 0 00 070275 		MOVE	[ZZ]		;MOVE THE CURRENT VALUE OF ZZ INTO E. ZZ IS NON-ZERO
  1485	031172	336 00 0 00 000000 		SKIPN			;*SKIPN SHOULD SKIP THE NEXT INSTRUCTION
  1486						STOP^
  1487	031173	254 04 0 00 031174 		HALT	.+1		;TEST FAILED IF PROGRAM HALTS HERE
  1488	031174	324 00 0 00 031175 		JUMPA	.+1		;IF TEST FAILS, CHANGE THIS INSTRUCTION (JUMPA .+1) TO
  1489									;JUMPA X (X IS THE ADDRESS OF THE FIRST INSTRUCTION
  1490									;IN THE SUBTEST) TO LOOP ON ERROR^
  1491
  1492					;**********
  1493
  1494					;THIS TEST VERIFIES THAT SKIPN IS SENSITIVE TO A ONE IN EVERY BIT POSITION.  THIS TEST
  1495					;IS REPEATED 36 TIMES.  EACH TIME A WORD OF ALL ZEROS EXCEPT FOR A ONE IN ONE
  1496					;BIT POSITION IS MOVED INTO E.  THEN SKIPN IS EXECUTED.  THIS TEST ALSO
  1497					;CHECKS ADDER GATING.  IF THIS TEST FAILS, CHECK C(E).
  1498					;IF C(E)=0, MOVE FAILED; OTHERWISE SKIPN FAILED.
  1499
  1500			003112		SN=SN+1
  1501			001000			ZZ=ZZ+ZZ
  1502						IFE	ZZ,<ZZ=1>
  1503	031175	200 00 0 00 070276 		MOVE	[ZZ]		;MOVE THE CURRENT VALUE OF ZZ INTO E. ZZ IS NON-ZERO
  1504	031176	336 00 0 00 000000 		SKIPN			;*SKIPN SHOULD SKIP THE NEXT INSTRUCTION
  1505						STOP^
  1506	031177	254 04 0 00 031200 		HALT	.+1		;TEST FAILED IF PROGRAM HALTS HERE
  1507	031200	324 00 0 00 031201 		JUMPA	.+1		;IF TEST FAILS, CHANGE THIS INSTRUCTION (JUMPA .+1) TO
  1508									;JUMPA X (X IS THE ADDRESS OF THE FIRST INSTRUCTION
  1509									;IN THE SUBTEST) TO LOOP ON ERROR^
  1510
  1511					;**********
  1512
  1513					;THIS TEST VERIFIES THAT SKIPN IS SENSITIVE TO A ONE IN EVERY BIT POSITION.  THIS TEST
  1514					;IS REPEATED 36 TIMES.  EACH TIME A WORD OF ALL ZEROS EXCEPT FOR A ONE IN ONE
  1515					;BIT POSITION IS MOVED INTO E.  THEN SKIPN IS EXECUTED.  THIS TEST ALSO
  1516					;CHECKS ADDER GATING.  IF THIS TEST FAILS, CHECK C(E).
  1517					;IF C(E)=0, MOVE FAILED; OTHERWISE SKIPN FAILED.
  1518
  1519			003113		SN=SN+1
  1520			002000			ZZ=ZZ+ZZ
  1521						IFE	ZZ,<ZZ=1>
  1522	031201	200 00 0 00 070277 		MOVE	[ZZ]		;MOVE THE CURRENT VALUE OF ZZ INTO E. ZZ IS NON-ZERO
  1523	031202	336 00 0 00 000000 		SKIPN			;*SKIPN SHOULD SKIP THE NEXT INSTRUCTION
DFKAA PDP-10 KL10 BASIC INSTRUCTION DIAGNOSTIC (1) VER 0,2	MACRO %53B(1254)-4 11:50 11-Nov-24 Page 12-4
DFKAA1	MAC	13-Jan-89 10:22		TEST OF JUMP, JUMPA AND SKIPX INSTRUCTIONS

  1524						STOP^
  1525	031203	254 04 0 00 031204 		HALT	.+1		;TEST FAILED IF PROGRAM HALTS HERE
  1526	031204	324 00 0 00 031205 		JUMPA	.+1		;IF TEST FAILS, CHANGE THIS INSTRUCTION (JUMPA .+1) TO
  1527									;JUMPA X (X IS THE ADDRESS OF THE FIRST INSTRUCTION
  1528									;IN THE SUBTEST) TO LOOP ON ERROR^
  1529
  1530					;**********
  1531
  1532					;THIS TEST VERIFIES THAT SKIPN IS SENSITIVE TO A ONE IN EVERY BIT POSITION.  THIS TEST
  1533					;IS REPEATED 36 TIMES.  EACH TIME A WORD OF ALL ZEROS EXCEPT FOR A ONE IN ONE
  1534					;BIT POSITION IS MOVED INTO E.  THEN SKIPN IS EXECUTED.  THIS TEST ALSO
  1535					;CHECKS ADDER GATING.  IF THIS TEST FAILS, CHECK C(E).
  1536					;IF C(E)=0, MOVE FAILED; OTHERWISE SKIPN FAILED.
  1537
  1538			003114		SN=SN+1
  1539			004000			ZZ=ZZ+ZZ
  1540						IFE	ZZ,<ZZ=1>
  1541	031205	200 00 0 00 070300 		MOVE	[ZZ]		;MOVE THE CURRENT VALUE OF ZZ INTO E. ZZ IS NON-ZERO
  1542	031206	336 00 0 00 000000 		SKIPN			;*SKIPN SHOULD SKIP THE NEXT INSTRUCTION
  1543						STOP^
  1544	031207	254 04 0 00 031210 		HALT	.+1		;TEST FAILED IF PROGRAM HALTS HERE
  1545	031210	324 00 0 00 031211 		JUMPA	.+1		;IF TEST FAILS, CHANGE THIS INSTRUCTION (JUMPA .+1) TO
  1546									;JUMPA X (X IS THE ADDRESS OF THE FIRST INSTRUCTION
  1547									;IN THE SUBTEST) TO LOOP ON ERROR^
  1548
  1549					;**********
  1550
  1551					;THIS TEST VERIFIES THAT SKIPN IS SENSITIVE TO A ONE IN EVERY BIT POSITION.  THIS TEST
  1552					;IS REPEATED 36 TIMES.  EACH TIME A WORD OF ALL ZEROS EXCEPT FOR A ONE IN ONE
  1553					;BIT POSITION IS MOVED INTO E.  THEN SKIPN IS EXECUTED.  THIS TEST ALSO
  1554					;CHECKS ADDER GATING.  IF THIS TEST FAILS, CHECK C(E).
  1555					;IF C(E)=0, MOVE FAILED; OTHERWISE SKIPN FAILED.
  1556
  1557			003115		SN=SN+1
  1558			010000			ZZ=ZZ+ZZ
  1559						IFE	ZZ,<ZZ=1>
  1560	031211	200 00 0 00 070301 		MOVE	[ZZ]		;MOVE THE CURRENT VALUE OF ZZ INTO E. ZZ IS NON-ZERO
  1561	031212	336 00 0 00 000000 		SKIPN			;*SKIPN SHOULD SKIP THE NEXT INSTRUCTION
  1562						STOP^
  1563	031213	254 04 0 00 031214 		HALT	.+1		;TEST FAILED IF PROGRAM HALTS HERE
  1564	031214	324 00 0 00 031215 		JUMPA	.+1		;IF TEST FAILS, CHANGE THIS INSTRUCTION (JUMPA .+1) TO
  1565									;JUMPA X (X IS THE ADDRESS OF THE FIRST INSTRUCTION
  1566									;IN THE SUBTEST) TO LOOP ON ERROR^
  1567
  1568					;**********
  1569
  1570					;THIS TEST VERIFIES THAT SKIPN IS SENSITIVE TO A ONE IN EVERY BIT POSITION.  THIS TEST
  1571					;IS REPEATED 36 TIMES.  EACH TIME A WORD OF ALL ZEROS EXCEPT FOR A ONE IN ONE
  1572					;BIT POSITION IS MOVED INTO E.  THEN SKIPN IS EXECUTED.  THIS TEST ALSO
  1573					;CHECKS ADDER GATING.  IF THIS TEST FAILS, CHECK C(E).
  1574					;IF C(E)=0, MOVE FAILED; OTHERWISE SKIPN FAILED.
  1575
  1576			003116		SN=SN+1
  1577			020000			ZZ=ZZ+ZZ
  1578						IFE	ZZ,<ZZ=1>
DFKAA PDP-10 KL10 BASIC INSTRUCTION DIAGNOSTIC (1) VER 0,2	MACRO %53B(1254)-4 11:50 11-Nov-24 Page 12-5
DFKAA1	MAC	13-Jan-89 10:22		TEST OF JUMP, JUMPA AND SKIPX INSTRUCTIONS

  1579	031215	200 00 0 00 070302 		MOVE	[ZZ]		;MOVE THE CURRENT VALUE OF ZZ INTO E. ZZ IS NON-ZERO
  1580	031216	336 00 0 00 000000 		SKIPN			;*SKIPN SHOULD SKIP THE NEXT INSTRUCTION
  1581						STOP^
  1582	031217	254 04 0 00 031220 		HALT	.+1		;TEST FAILED IF PROGRAM HALTS HERE
  1583	031220	324 00 0 00 031221 		JUMPA	.+1		;IF TEST FAILS, CHANGE THIS INSTRUCTION (JUMPA .+1) TO
  1584									;JUMPA X (X IS THE ADDRESS OF THE FIRST INSTRUCTION
  1585									;IN THE SUBTEST) TO LOOP ON ERROR^
  1586
  1587					;**********
  1588
  1589					;THIS TEST VERIFIES THAT SKIPN IS SENSITIVE TO A ONE IN EVERY BIT POSITION.  THIS TEST
  1590					;IS REPEATED 36 TIMES.  EACH TIME A WORD OF ALL ZEROS EXCEPT FOR A ONE IN ONE
  1591					;BIT POSITION IS MOVED INTO E.  THEN SKIPN IS EXECUTED.  THIS TEST ALSO
  1592					;CHECKS ADDER GATING.  IF THIS TEST FAILS, CHECK C(E).
  1593					;IF C(E)=0, MOVE FAILED; OTHERWISE SKIPN FAILED.
  1594
  1595			003117		SN=SN+1
  1596			040000			ZZ=ZZ+ZZ
  1597						IFE	ZZ,<ZZ=1>
  1598	031221	200 00 0 00 070303 		MOVE	[ZZ]		;MOVE THE CURRENT VALUE OF ZZ INTO E. ZZ IS NON-ZERO
  1599	031222	336 00 0 00 000000 		SKIPN			;*SKIPN SHOULD SKIP THE NEXT INSTRUCTION
  1600						STOP^
  1601	031223	254 04 0 00 031224 		HALT	.+1		;TEST FAILED IF PROGRAM HALTS HERE
  1602	031224	324 00 0 00 031225 		JUMPA	.+1		;IF TEST FAILS, CHANGE THIS INSTRUCTION (JUMPA .+1) TO
  1603									;JUMPA X (X IS THE ADDRESS OF THE FIRST INSTRUCTION
  1604									;IN THE SUBTEST) TO LOOP ON ERROR^
  1605
  1606					;**********
  1607
  1608					;THIS TEST VERIFIES THAT SKIPN IS SENSITIVE TO A ONE IN EVERY BIT POSITION.  THIS TEST
  1609					;IS REPEATED 36 TIMES.  EACH TIME A WORD OF ALL ZEROS EXCEPT FOR A ONE IN ONE
  1610					;BIT POSITION IS MOVED INTO E.  THEN SKIPN IS EXECUTED.  THIS TEST ALSO
  1611					;CHECKS ADDER GATING.  IF THIS TEST FAILS, CHECK C(E).
  1612					;IF C(E)=0, MOVE FAILED; OTHERWISE SKIPN FAILED.
  1613
  1614			003120		SN=SN+1
  1615			100000			ZZ=ZZ+ZZ
  1616						IFE	ZZ,<ZZ=1>
  1617	031225	200 00 0 00 070304 		MOVE	[ZZ]		;MOVE THE CURRENT VALUE OF ZZ INTO E. ZZ IS NON-ZERO
  1618	031226	336 00 0 00 000000 		SKIPN			;*SKIPN SHOULD SKIP THE NEXT INSTRUCTION
  1619						STOP^
  1620	031227	254 04 0 00 031230 		HALT	.+1		;TEST FAILED IF PROGRAM HALTS HERE
  1621	031230	324 00 0 00 031231 		JUMPA	.+1		;IF TEST FAILS, CHANGE THIS INSTRUCTION (JUMPA .+1) TO
  1622									;JUMPA X (X IS THE ADDRESS OF THE FIRST INSTRUCTION
  1623									;IN THE SUBTEST) TO LOOP ON ERROR^
  1624
  1625					;**********
  1626
  1627					;THIS TEST VERIFIES THAT SKIPN IS SENSITIVE TO A ONE IN EVERY BIT POSITION.  THIS TEST
  1628					;IS REPEATED 36 TIMES.  EACH TIME A WORD OF ALL ZEROS EXCEPT FOR A ONE IN ONE
  1629					;BIT POSITION IS MOVED INTO E.  THEN SKIPN IS EXECUTED.  THIS TEST ALSO
  1630					;CHECKS ADDER GATING.  IF THIS TEST FAILS, CHECK C(E).
  1631					;IF C(E)=0, MOVE FAILED; OTHERWISE SKIPN FAILED.
  1632
  1633			003121		SN=SN+1
DFKAA PDP-10 KL10 BASIC INSTRUCTION DIAGNOSTIC (1) VER 0,2	MACRO %53B(1254)-4 11:50 11-Nov-24 Page 12-6
DFKAA1	MAC	13-Jan-89 10:22		TEST OF JUMP, JUMPA AND SKIPX INSTRUCTIONS

  1634			200000			ZZ=ZZ+ZZ
  1635						IFE	ZZ,<ZZ=1>
  1636	031231	200 00 0 00 070305 		MOVE	[ZZ]		;MOVE THE CURRENT VALUE OF ZZ INTO E. ZZ IS NON-ZERO
  1637	031232	336 00 0 00 000000 		SKIPN			;*SKIPN SHOULD SKIP THE NEXT INSTRUCTION
  1638						STOP^
  1639	031233	254 04 0 00 031234 		HALT	.+1		;TEST FAILED IF PROGRAM HALTS HERE
  1640	031234	324 00 0 00 031235 		JUMPA	.+1		;IF TEST FAILS, CHANGE THIS INSTRUCTION (JUMPA .+1) TO
  1641									;JUMPA X (X IS THE ADDRESS OF THE FIRST INSTRUCTION
  1642									;IN THE SUBTEST) TO LOOP ON ERROR^
  1643
  1644					;**********
  1645
  1646					;THIS TEST VERIFIES THAT SKIPN IS SENSITIVE TO A ONE IN EVERY BIT POSITION.  THIS TEST
  1647					;IS REPEATED 36 TIMES.  EACH TIME A WORD OF ALL ZEROS EXCEPT FOR A ONE IN ONE
  1648					;BIT POSITION IS MOVED INTO E.  THEN SKIPN IS EXECUTED.  THIS TEST ALSO
  1649					;CHECKS ADDER GATING.  IF THIS TEST FAILS, CHECK C(E).
  1650					;IF C(E)=0, MOVE FAILED; OTHERWISE SKIPN FAILED.
  1651
  1652			003122		SN=SN+1
  1653			400000			ZZ=ZZ+ZZ
  1654						IFE	ZZ,<ZZ=1>
  1655	031235	200 00 0 00 070306 		MOVE	[ZZ]		;MOVE THE CURRENT VALUE OF ZZ INTO E. ZZ IS NON-ZERO
  1656	031236	336 00 0 00 000000 		SKIPN			;*SKIPN SHOULD SKIP THE NEXT INSTRUCTION
  1657						STOP^
  1658	031237	254 04 0 00 031240 		HALT	.+1		;TEST FAILED IF PROGRAM HALTS HERE
  1659	031240	324 00 0 00 031241 		JUMPA	.+1		;IF TEST FAILS, CHANGE THIS INSTRUCTION (JUMPA .+1) TO
  1660									;JUMPA X (X IS THE ADDRESS OF THE FIRST INSTRUCTION
  1661									;IN THE SUBTEST) TO LOOP ON ERROR^
  1662
  1663					;**********
  1664
  1665					;THIS TEST VERIFIES THAT SKIPN IS SENSITIVE TO A ONE IN EVERY BIT POSITION.  THIS TEST
  1666					;IS REPEATED 36 TIMES.  EACH TIME A WORD OF ALL ZEROS EXCEPT FOR A ONE IN ONE
  1667					;BIT POSITION IS MOVED INTO E.  THEN SKIPN IS EXECUTED.  THIS TEST ALSO
  1668					;CHECKS ADDER GATING.  IF THIS TEST FAILS, CHECK C(E).
  1669					;IF C(E)=0, MOVE FAILED; OTHERWISE SKIPN FAILED.
  1670
  1671			003123		SN=SN+1
  1672		000001	000000			ZZ=ZZ+ZZ
  1673						IFE	ZZ,<ZZ=1>
  1674	031241	200 00 0 00 070307 		MOVE	[ZZ]		;MOVE THE CURRENT VALUE OF ZZ INTO E. ZZ IS NON-ZERO
  1675	031242	336 00 0 00 000000 		SKIPN			;*SKIPN SHOULD SKIP THE NEXT INSTRUCTION
  1676						STOP^
  1677	031243	254 04 0 00 031244 		HALT	.+1		;TEST FAILED IF PROGRAM HALTS HERE
  1678	031244	324 00 0 00 031245 		JUMPA	.+1		;IF TEST FAILS, CHANGE THIS INSTRUCTION (JUMPA .+1) TO
  1679									;JUMPA X (X IS THE ADDRESS OF THE FIRST INSTRUCTION
  1680									;IN THE SUBTEST) TO LOOP ON ERROR^
  1681
  1682					;**********
  1683
  1684					;THIS TEST VERIFIES THAT SKIPN IS SENSITIVE TO A ONE IN EVERY BIT POSITION.  THIS TEST
  1685					;IS REPEATED 36 TIMES.  EACH TIME A WORD OF ALL ZEROS EXCEPT FOR A ONE IN ONE
  1686					;BIT POSITION IS MOVED INTO E.  THEN SKIPN IS EXECUTED.  THIS TEST ALSO
  1687					;CHECKS ADDER GATING.  IF THIS TEST FAILS, CHECK C(E).
  1688					;IF C(E)=0, MOVE FAILED; OTHERWISE SKIPN FAILED.
DFKAA PDP-10 KL10 BASIC INSTRUCTION DIAGNOSTIC (1) VER 0,2	MACRO %53B(1254)-4 11:50 11-Nov-24 Page 12-7
DFKAA1	MAC	13-Jan-89 10:22		TEST OF JUMP, JUMPA AND SKIPX INSTRUCTIONS

  1689
  1690			003124		SN=SN+1
  1691		000002	000000			ZZ=ZZ+ZZ
  1692						IFE	ZZ,<ZZ=1>
  1693	031245	200 00 0 00 070310 		MOVE	[ZZ]		;MOVE THE CURRENT VALUE OF ZZ INTO E. ZZ IS NON-ZERO
  1694	031246	336 00 0 00 000000 		SKIPN			;*SKIPN SHOULD SKIP THE NEXT INSTRUCTION
  1695						STOP^
  1696	031247	254 04 0 00 031250 		HALT	.+1		;TEST FAILED IF PROGRAM HALTS HERE
  1697	031250	324 00 0 00 031251 		JUMPA	.+1		;IF TEST FAILS, CHANGE THIS INSTRUCTION (JUMPA .+1) TO
  1698									;JUMPA X (X IS THE ADDRESS OF THE FIRST INSTRUCTION
  1699									;IN THE SUBTEST) TO LOOP ON ERROR^
  1700
  1701					;**********
  1702
  1703					;THIS TEST VERIFIES THAT SKIPN IS SENSITIVE TO A ONE IN EVERY BIT POSITION.  THIS TEST
  1704					;IS REPEATED 36 TIMES.  EACH TIME A WORD OF ALL ZEROS EXCEPT FOR A ONE IN ONE
  1705					;BIT POSITION IS MOVED INTO E.  THEN SKIPN IS EXECUTED.  THIS TEST ALSO
  1706					;CHECKS ADDER GATING.  IF THIS TEST FAILS, CHECK C(E).
  1707					;IF C(E)=0, MOVE FAILED; OTHERWISE SKIPN FAILED.
  1708
  1709			003125		SN=SN+1
  1710		000004	000000			ZZ=ZZ+ZZ
  1711						IFE	ZZ,<ZZ=1>
  1712	031251	200 00 0 00 070311 		MOVE	[ZZ]		;MOVE THE CURRENT VALUE OF ZZ INTO E. ZZ IS NON-ZERO
  1713	031252	336 00 0 00 000000 		SKIPN			;*SKIPN SHOULD SKIP THE NEXT INSTRUCTION
  1714						STOP^
  1715	031253	254 04 0 00 031254 		HALT	.+1		;TEST FAILED IF PROGRAM HALTS HERE
  1716	031254	324 00 0 00 031255 		JUMPA	.+1		;IF TEST FAILS, CHANGE THIS INSTRUCTION (JUMPA .+1) TO
  1717									;JUMPA X (X IS THE ADDRESS OF THE FIRST INSTRUCTION
  1718									;IN THE SUBTEST) TO LOOP ON ERROR^
  1719
  1720					;**********
  1721
  1722					;THIS TEST VERIFIES THAT SKIPN IS SENSITIVE TO A ONE IN EVERY BIT POSITION.  THIS TEST
  1723					;IS REPEATED 36 TIMES.  EACH TIME A WORD OF ALL ZEROS EXCEPT FOR A ONE IN ONE
  1724					;BIT POSITION IS MOVED INTO E.  THEN SKIPN IS EXECUTED.  THIS TEST ALSO
  1725					;CHECKS ADDER GATING.  IF THIS TEST FAILS, CHECK C(E).
  1726					;IF C(E)=0, MOVE FAILED; OTHERWISE SKIPN FAILED.
  1727
  1728			003126		SN=SN+1
  1729		000010	000000			ZZ=ZZ+ZZ
  1730						IFE	ZZ,<ZZ=1>
  1731	031255	200 00 0 00 070312 		MOVE	[ZZ]		;MOVE THE CURRENT VALUE OF ZZ INTO E. ZZ IS NON-ZERO
  1732	031256	336 00 0 00 000000 		SKIPN			;*SKIPN SHOULD SKIP THE NEXT INSTRUCTION
  1733						STOP^
  1734	031257	254 04 0 00 031260 		HALT	.+1		;TEST FAILED IF PROGRAM HALTS HERE
  1735	031260	324 00 0 00 031261 		JUMPA	.+1		;IF TEST FAILS, CHANGE THIS INSTRUCTION (JUMPA .+1) TO
  1736									;JUMPA X (X IS THE ADDRESS OF THE FIRST INSTRUCTION
  1737									;IN THE SUBTEST) TO LOOP ON ERROR^
  1738
  1739					;**********
  1740
  1741					;THIS TEST VERIFIES THAT SKIPN IS SENSITIVE TO A ONE IN EVERY BIT POSITION.  THIS TEST
  1742					;IS REPEATED 36 TIMES.  EACH TIME A WORD OF ALL ZEROS EXCEPT FOR A ONE IN ONE
  1743					;BIT POSITION IS MOVED INTO E.  THEN SKIPN IS EXECUTED.  THIS TEST ALSO
DFKAA PDP-10 KL10 BASIC INSTRUCTION DIAGNOSTIC (1) VER 0,2	MACRO %53B(1254)-4 11:50 11-Nov-24 Page 12-8
DFKAA1	MAC	13-Jan-89 10:22		TEST OF JUMP, JUMPA AND SKIPX INSTRUCTIONS

  1744					;CHECKS ADDER GATING.  IF THIS TEST FAILS, CHECK C(E).
  1745					;IF C(E)=0, MOVE FAILED; OTHERWISE SKIPN FAILED.
  1746
  1747			003127		SN=SN+1
  1748		000020	000000			ZZ=ZZ+ZZ
  1749						IFE	ZZ,<ZZ=1>
  1750	031261	200 00 0 00 070313 		MOVE	[ZZ]		;MOVE THE CURRENT VALUE OF ZZ INTO E. ZZ IS NON-ZERO
  1751	031262	336 00 0 00 000000 		SKIPN			;*SKIPN SHOULD SKIP THE NEXT INSTRUCTION
  1752						STOP^
  1753	031263	254 04 0 00 031264 		HALT	.+1		;TEST FAILED IF PROGRAM HALTS HERE
  1754	031264	324 00 0 00 031265 		JUMPA	.+1		;IF TEST FAILS, CHANGE THIS INSTRUCTION (JUMPA .+1) TO
  1755									;JUMPA X (X IS THE ADDRESS OF THE FIRST INSTRUCTION
  1756									;IN THE SUBTEST) TO LOOP ON ERROR^
  1757
  1758					;**********
  1759
  1760					;THIS TEST VERIFIES THAT SKIPN IS SENSITIVE TO A ONE IN EVERY BIT POSITION.  THIS TEST
  1761					;IS REPEATED 36 TIMES.  EACH TIME A WORD OF ALL ZEROS EXCEPT FOR A ONE IN ONE
  1762					;BIT POSITION IS MOVED INTO E.  THEN SKIPN IS EXECUTED.  THIS TEST ALSO
  1763					;CHECKS ADDER GATING.  IF THIS TEST FAILS, CHECK C(E).
  1764					;IF C(E)=0, MOVE FAILED; OTHERWISE SKIPN FAILED.
  1765
  1766			003130		SN=SN+1
  1767		000040	000000			ZZ=ZZ+ZZ
  1768						IFE	ZZ,<ZZ=1>
  1769	031265	200 00 0 00 070314 		MOVE	[ZZ]		;MOVE THE CURRENT VALUE OF ZZ INTO E. ZZ IS NON-ZERO
  1770	031266	336 00 0 00 000000 		SKIPN			;*SKIPN SHOULD SKIP THE NEXT INSTRUCTION
  1771						STOP^
  1772	031267	254 04 0 00 031270 		HALT	.+1		;TEST FAILED IF PROGRAM HALTS HERE
  1773	031270	324 00 0 00 031271 		JUMPA	.+1		;IF TEST FAILS, CHANGE THIS INSTRUCTION (JUMPA .+1) TO
  1774									;JUMPA X (X IS THE ADDRESS OF THE FIRST INSTRUCTION
  1775									;IN THE SUBTEST) TO LOOP ON ERROR^
  1776
  1777					;**********
  1778
  1779					;THIS TEST VERIFIES THAT SKIPN IS SENSITIVE TO A ONE IN EVERY BIT POSITION.  THIS TEST
  1780					;IS REPEATED 36 TIMES.  EACH TIME A WORD OF ALL ZEROS EXCEPT FOR A ONE IN ONE
  1781					;BIT POSITION IS MOVED INTO E.  THEN SKIPN IS EXECUTED.  THIS TEST ALSO
  1782					;CHECKS ADDER GATING.  IF THIS TEST FAILS, CHECK C(E).
  1783					;IF C(E)=0, MOVE FAILED; OTHERWISE SKIPN FAILED.
  1784
  1785			003131		SN=SN+1
  1786		000100	000000			ZZ=ZZ+ZZ
  1787						IFE	ZZ,<ZZ=1>
  1788	031271	200 00 0 00 070315 		MOVE	[ZZ]		;MOVE THE CURRENT VALUE OF ZZ INTO E. ZZ IS NON-ZERO
  1789	031272	336 00 0 00 000000 		SKIPN			;*SKIPN SHOULD SKIP THE NEXT INSTRUCTION
  1790						STOP^
  1791	031273	254 04 0 00 031274 		HALT	.+1		;TEST FAILED IF PROGRAM HALTS HERE
  1792	031274	324 00 0 00 031275 		JUMPA	.+1		;IF TEST FAILS, CHANGE THIS INSTRUCTION (JUMPA .+1) TO
  1793									;JUMPA X (X IS THE ADDRESS OF THE FIRST INSTRUCTION
  1794									;IN THE SUBTEST) TO LOOP ON ERROR^
  1795
  1796					;**********
  1797
  1798					;THIS TEST VERIFIES THAT SKIPN IS SENSITIVE TO A ONE IN EVERY BIT POSITION.  THIS TEST
DFKAA PDP-10 KL10 BASIC INSTRUCTION DIAGNOSTIC (1) VER 0,2	MACRO %53B(1254)-4 11:50 11-Nov-24 Page 12-9
DFKAA1	MAC	13-Jan-89 10:22		TEST OF JUMP, JUMPA AND SKIPX INSTRUCTIONS

  1799					;IS REPEATED 36 TIMES.  EACH TIME A WORD OF ALL ZEROS EXCEPT FOR A ONE IN ONE
  1800					;BIT POSITION IS MOVED INTO E.  THEN SKIPN IS EXECUTED.  THIS TEST ALSO
  1801					;CHECKS ADDER GATING.  IF THIS TEST FAILS, CHECK C(E).
  1802					;IF C(E)=0, MOVE FAILED; OTHERWISE SKIPN FAILED.
  1803
  1804			003132		SN=SN+1
  1805		000200	000000			ZZ=ZZ+ZZ
  1806						IFE	ZZ,<ZZ=1>
  1807	031275	200 00 0 00 070316 		MOVE	[ZZ]		;MOVE THE CURRENT VALUE OF ZZ INTO E. ZZ IS NON-ZERO
  1808	031276	336 00 0 00 000000 		SKIPN			;*SKIPN SHOULD SKIP THE NEXT INSTRUCTION
  1809						STOP^
  1810	031277	254 04 0 00 031300 		HALT	.+1		;TEST FAILED IF PROGRAM HALTS HERE
  1811	031300	324 00 0 00 031301 		JUMPA	.+1		;IF TEST FAILS, CHANGE THIS INSTRUCTION (JUMPA .+1) TO
  1812									;JUMPA X (X IS THE ADDRESS OF THE FIRST INSTRUCTION
  1813									;IN THE SUBTEST) TO LOOP ON ERROR^
  1814
  1815					;**********
  1816
  1817					;THIS TEST VERIFIES THAT SKIPN IS SENSITIVE TO A ONE IN EVERY BIT POSITION.  THIS TEST
  1818					;IS REPEATED 36 TIMES.  EACH TIME A WORD OF ALL ZEROS EXCEPT FOR A ONE IN ONE
  1819					;BIT POSITION IS MOVED INTO E.  THEN SKIPN IS EXECUTED.  THIS TEST ALSO
  1820					;CHECKS ADDER GATING.  IF THIS TEST FAILS, CHECK C(E).
  1821					;IF C(E)=0, MOVE FAILED; OTHERWISE SKIPN FAILED.
  1822
  1823			003133		SN=SN+1
  1824		000400	000000			ZZ=ZZ+ZZ
  1825						IFE	ZZ,<ZZ=1>
  1826	031301	200 00 0 00 070264 		MOVE	[ZZ]		;MOVE THE CURRENT VALUE OF ZZ INTO E. ZZ IS NON-ZERO
  1827	031302	336 00 0 00 000000 		SKIPN			;*SKIPN SHOULD SKIP THE NEXT INSTRUCTION
  1828						STOP^
  1829	031303	254 04 0 00 031304 		HALT	.+1		;TEST FAILED IF PROGRAM HALTS HERE
  1830	031304	324 00 0 00 031305 		JUMPA	.+1		;IF TEST FAILS, CHANGE THIS INSTRUCTION (JUMPA .+1) TO
  1831									;JUMPA X (X IS THE ADDRESS OF THE FIRST INSTRUCTION
  1832									;IN THE SUBTEST) TO LOOP ON ERROR^
  1833
  1834					;**********
  1835
  1836					;THIS TEST VERIFIES THAT SKIPN IS SENSITIVE TO A ONE IN EVERY BIT POSITION.  THIS TEST
  1837					;IS REPEATED 36 TIMES.  EACH TIME A WORD OF ALL ZEROS EXCEPT FOR A ONE IN ONE
  1838					;BIT POSITION IS MOVED INTO E.  THEN SKIPN IS EXECUTED.  THIS TEST ALSO
  1839					;CHECKS ADDER GATING.  IF THIS TEST FAILS, CHECK C(E).
  1840					;IF C(E)=0, MOVE FAILED; OTHERWISE SKIPN FAILED.
  1841
  1842			003134		SN=SN+1
  1843		001000	000000			ZZ=ZZ+ZZ
  1844						IFE	ZZ,<ZZ=1>
  1845	031305	200 00 0 00 070317 		MOVE	[ZZ]		;MOVE THE CURRENT VALUE OF ZZ INTO E. ZZ IS NON-ZERO
  1846	031306	336 00 0 00 000000 		SKIPN			;*SKIPN SHOULD SKIP THE NEXT INSTRUCTION
  1847						STOP^
  1848	031307	254 04 0 00 031310 		HALT	.+1		;TEST FAILED IF PROGRAM HALTS HERE
  1849	031310	324 00 0 00 031311 		JUMPA	.+1		;IF TEST FAILS, CHANGE THIS INSTRUCTION (JUMPA .+1) TO
  1850									;JUMPA X (X IS THE ADDRESS OF THE FIRST INSTRUCTION
  1851									;IN THE SUBTEST) TO LOOP ON ERROR^
  1852
  1853					;**********
DFKAA PDP-10 KL10 BASIC INSTRUCTION DIAGNOSTIC (1) VER 0,2	MACRO %53B(1254)-4 11:50 11-Nov-24 Page 12-10
DFKAA1	MAC	13-Jan-89 10:22		TEST OF JUMP, JUMPA AND SKIPX INSTRUCTIONS

  1854
  1855					;THIS TEST VERIFIES THAT SKIPN IS SENSITIVE TO A ONE IN EVERY BIT POSITION.  THIS TEST
  1856					;IS REPEATED 36 TIMES.  EACH TIME A WORD OF ALL ZEROS EXCEPT FOR A ONE IN ONE
  1857					;BIT POSITION IS MOVED INTO E.  THEN SKIPN IS EXECUTED.  THIS TEST ALSO
  1858					;CHECKS ADDER GATING.  IF THIS TEST FAILS, CHECK C(E).
  1859					;IF C(E)=0, MOVE FAILED; OTHERWISE SKIPN FAILED.
  1860
  1861			003135		SN=SN+1
  1862		002000	000000			ZZ=ZZ+ZZ
  1863						IFE	ZZ,<ZZ=1>
  1864	031311	200 00 0 00 070320 		MOVE	[ZZ]		;MOVE THE CURRENT VALUE OF ZZ INTO E. ZZ IS NON-ZERO
  1865	031312	336 00 0 00 000000 		SKIPN			;*SKIPN SHOULD SKIP THE NEXT INSTRUCTION
  1866						STOP^
  1867	031313	254 04 0 00 031314 		HALT	.+1		;TEST FAILED IF PROGRAM HALTS HERE
  1868	031314	324 00 0 00 031315 		JUMPA	.+1		;IF TEST FAILS, CHANGE THIS INSTRUCTION (JUMPA .+1) TO
  1869									;JUMPA X (X IS THE ADDRESS OF THE FIRST INSTRUCTION
  1870									;IN THE SUBTEST) TO LOOP ON ERROR^
  1871
  1872					;**********
  1873
  1874					;THIS TEST VERIFIES THAT SKIPN IS SENSITIVE TO A ONE IN EVERY BIT POSITION.  THIS TEST
  1875					;IS REPEATED 36 TIMES.  EACH TIME A WORD OF ALL ZEROS EXCEPT FOR A ONE IN ONE
  1876					;BIT POSITION IS MOVED INTO E.  THEN SKIPN IS EXECUTED.  THIS TEST ALSO
  1877					;CHECKS ADDER GATING.  IF THIS TEST FAILS, CHECK C(E).
  1878					;IF C(E)=0, MOVE FAILED; OTHERWISE SKIPN FAILED.
  1879
  1880			003136		SN=SN+1
  1881		004000	000000			ZZ=ZZ+ZZ
  1882						IFE	ZZ,<ZZ=1>
  1883	031315	200 00 0 00 070321 		MOVE	[ZZ]		;MOVE THE CURRENT VALUE OF ZZ INTO E. ZZ IS NON-ZERO
  1884	031316	336 00 0 00 000000 		SKIPN			;*SKIPN SHOULD SKIP THE NEXT INSTRUCTION
  1885						STOP^
  1886	031317	254 04 0 00 031320 		HALT	.+1		;TEST FAILED IF PROGRAM HALTS HERE
  1887	031320	324 00 0 00 031321 		JUMPA	.+1		;IF TEST FAILS, CHANGE THIS INSTRUCTION (JUMPA .+1) TO
  1888									;JUMPA X (X IS THE ADDRESS OF THE FIRST INSTRUCTION
  1889									;IN THE SUBTEST) TO LOOP ON ERROR^
  1890
  1891					;**********
  1892
  1893					;THIS TEST VERIFIES THAT SKIPN IS SENSITIVE TO A ONE IN EVERY BIT POSITION.  THIS TEST
  1894					;IS REPEATED 36 TIMES.  EACH TIME A WORD OF ALL ZEROS EXCEPT FOR A ONE IN ONE
  1895					;BIT POSITION IS MOVED INTO E.  THEN SKIPN IS EXECUTED.  THIS TEST ALSO
  1896					;CHECKS ADDER GATING.  IF THIS TEST FAILS, CHECK C(E).
  1897					;IF C(E)=0, MOVE FAILED; OTHERWISE SKIPN FAILED.
  1898
  1899			003137		SN=SN+1
  1900		010000	000000			ZZ=ZZ+ZZ
  1901						IFE	ZZ,<ZZ=1>
  1902	031321	200 00 0 00 070322 		MOVE	[ZZ]		;MOVE THE CURRENT VALUE OF ZZ INTO E. ZZ IS NON-ZERO
  1903	031322	336 00 0 00 000000 		SKIPN			;*SKIPN SHOULD SKIP THE NEXT INSTRUCTION
  1904						STOP^
  1905	031323	254 04 0 00 031324 		HALT	.+1		;TEST FAILED IF PROGRAM HALTS HERE
  1906	031324	324 00 0 00 031325 		JUMPA	.+1		;IF TEST FAILS, CHANGE THIS INSTRUCTION (JUMPA .+1) TO
  1907									;JUMPA X (X IS THE ADDRESS OF THE FIRST INSTRUCTION
  1908									;IN THE SUBTEST) TO LOOP ON ERROR^
DFKAA PDP-10 KL10 BASIC INSTRUCTION DIAGNOSTIC (1) VER 0,2	MACRO %53B(1254)-4 11:50 11-Nov-24 Page 12-11
DFKAA1	MAC	13-Jan-89 10:22		TEST OF JUMP, JUMPA AND SKIPX INSTRUCTIONS

  1909
  1910					;**********
  1911
  1912					;THIS TEST VERIFIES THAT SKIPN IS SENSITIVE TO A ONE IN EVERY BIT POSITION.  THIS TEST
  1913					;IS REPEATED 36 TIMES.  EACH TIME A WORD OF ALL ZEROS EXCEPT FOR A ONE IN ONE
  1914					;BIT POSITION IS MOVED INTO E.  THEN SKIPN IS EXECUTED.  THIS TEST ALSO
  1915					;CHECKS ADDER GATING.  IF THIS TEST FAILS, CHECK C(E).
  1916					;IF C(E)=0, MOVE FAILED; OTHERWISE SKIPN FAILED.
  1917
  1918			003140		SN=SN+1
  1919		020000	000000			ZZ=ZZ+ZZ
  1920						IFE	ZZ,<ZZ=1>
  1921	031325	200 00 0 00 070323 		MOVE	[ZZ]		;MOVE THE CURRENT VALUE OF ZZ INTO E. ZZ IS NON-ZERO
  1922	031326	336 00 0 00 000000 		SKIPN			;*SKIPN SHOULD SKIP THE NEXT INSTRUCTION
  1923						STOP^
  1924	031327	254 04 0 00 031330 		HALT	.+1		;TEST FAILED IF PROGRAM HALTS HERE
  1925	031330	324 00 0 00 031331 		JUMPA	.+1		;IF TEST FAILS, CHANGE THIS INSTRUCTION (JUMPA .+1) TO
  1926									;JUMPA X (X IS THE ADDRESS OF THE FIRST INSTRUCTION
  1927									;IN THE SUBTEST) TO LOOP ON ERROR^
  1928
  1929					;**********
  1930
  1931					;THIS TEST VERIFIES THAT SKIPN IS SENSITIVE TO A ONE IN EVERY BIT POSITION.  THIS TEST
  1932					;IS REPEATED 36 TIMES.  EACH TIME A WORD OF ALL ZEROS EXCEPT FOR A ONE IN ONE
  1933					;BIT POSITION IS MOVED INTO E.  THEN SKIPN IS EXECUTED.  THIS TEST ALSO
  1934					;CHECKS ADDER GATING.  IF THIS TEST FAILS, CHECK C(E).
  1935					;IF C(E)=0, MOVE FAILED; OTHERWISE SKIPN FAILED.
  1936
  1937			003141		SN=SN+1
  1938		040000	000000			ZZ=ZZ+ZZ
  1939						IFE	ZZ,<ZZ=1>
  1940	031331	200 00 0 00 070324 		MOVE	[ZZ]		;MOVE THE CURRENT VALUE OF ZZ INTO E. ZZ IS NON-ZERO
  1941	031332	336 00 0 00 000000 		SKIPN			;*SKIPN SHOULD SKIP THE NEXT INSTRUCTION
  1942						STOP^
  1943	031333	254 04 0 00 031334 		HALT	.+1		;TEST FAILED IF PROGRAM HALTS HERE
  1944	031334	324 00 0 00 031335 		JUMPA	.+1		;IF TEST FAILS, CHANGE THIS INSTRUCTION (JUMPA .+1) TO
  1945									;JUMPA X (X IS THE ADDRESS OF THE FIRST INSTRUCTION
  1946									;IN THE SUBTEST) TO LOOP ON ERROR^
  1947
  1948					;**********
  1949
  1950					;THIS TEST VERIFIES THAT SKIPN IS SENSITIVE TO A ONE IN EVERY BIT POSITION.  THIS TEST
  1951					;IS REPEATED 36 TIMES.  EACH TIME A WORD OF ALL ZEROS EXCEPT FOR A ONE IN ONE
  1952					;BIT POSITION IS MOVED INTO E.  THEN SKIPN IS EXECUTED.  THIS TEST ALSO
  1953					;CHECKS ADDER GATING.  IF THIS TEST FAILS, CHECK C(E).
  1954					;IF C(E)=0, MOVE FAILED; OTHERWISE SKIPN FAILED.
  1955
  1956			003142		SN=SN+1
  1957		100000	000000			ZZ=ZZ+ZZ
  1958						IFE	ZZ,<ZZ=1>
  1959	031335	200 00 0 00 070325 		MOVE	[ZZ]		;MOVE THE CURRENT VALUE OF ZZ INTO E. ZZ IS NON-ZERO
  1960	031336	336 00 0 00 000000 		SKIPN			;*SKIPN SHOULD SKIP THE NEXT INSTRUCTION
  1961						STOP^
  1962	031337	254 04 0 00 031340 		HALT	.+1		;TEST FAILED IF PROGRAM HALTS HERE
  1963	031340	324 00 0 00 031341 		JUMPA	.+1		;IF TEST FAILS, CHANGE THIS INSTRUCTION (JUMPA .+1) TO
DFKAA PDP-10 KL10 BASIC INSTRUCTION DIAGNOSTIC (1) VER 0,2	MACRO %53B(1254)-4 11:50 11-Nov-24 Page 12-12
DFKAA1	MAC	13-Jan-89 10:22		TEST OF JUMP, JUMPA AND SKIPX INSTRUCTIONS

  1964									;JUMPA X (X IS THE ADDRESS OF THE FIRST INSTRUCTION
  1965									;IN THE SUBTEST) TO LOOP ON ERROR^
  1966
  1967					;**********
  1968
  1969					;THIS TEST VERIFIES THAT SKIPN IS SENSITIVE TO A ONE IN EVERY BIT POSITION.  THIS TEST
  1970					;IS REPEATED 36 TIMES.  EACH TIME A WORD OF ALL ZEROS EXCEPT FOR A ONE IN ONE
  1971					;BIT POSITION IS MOVED INTO E.  THEN SKIPN IS EXECUTED.  THIS TEST ALSO
  1972					;CHECKS ADDER GATING.  IF THIS TEST FAILS, CHECK C(E).
  1973					;IF C(E)=0, MOVE FAILED; OTHERWISE SKIPN FAILED.
  1974
  1975			003143		SN=SN+1
  1976		200000	000000			ZZ=ZZ+ZZ
  1977						IFE	ZZ,<ZZ=1>
  1978	031341	200 00 0 00 070326 		MOVE	[ZZ]		;MOVE THE CURRENT VALUE OF ZZ INTO E. ZZ IS NON-ZERO
  1979	031342	336 00 0 00 000000 		SKIPN			;*SKIPN SHOULD SKIP THE NEXT INSTRUCTION
  1980						STOP^
  1981	031343	254 04 0 00 031344 		HALT	.+1		;TEST FAILED IF PROGRAM HALTS HERE
  1982	031344	324 00 0 00 031345 		JUMPA	.+1		;IF TEST FAILS, CHANGE THIS INSTRUCTION (JUMPA .+1) TO
  1983									;JUMPA X (X IS THE ADDRESS OF THE FIRST INSTRUCTION
  1984									;IN THE SUBTEST) TO LOOP ON ERROR^
  1985
  1986					;**********
  1987
  1988					;THIS TEST VERIFIES THAT SKIPN IS SENSITIVE TO A ONE IN EVERY BIT POSITION.  THIS TEST
  1989					;IS REPEATED 36 TIMES.  EACH TIME A WORD OF ALL ZEROS EXCEPT FOR A ONE IN ONE
  1990					;BIT POSITION IS MOVED INTO E.  THEN SKIPN IS EXECUTED.  THIS TEST ALSO
  1991					;CHECKS ADDER GATING.  IF THIS TEST FAILS, CHECK C(E).
  1992					;IF C(E)=0, MOVE FAILED; OTHERWISE SKIPN FAILED.
  1993
  1994			003144		SN=SN+1
  1995		400000	000000			ZZ=ZZ+ZZ
  1996						IFE	ZZ,<ZZ=1>
  1997	031345	200 00 0 00 070256 		MOVE	[ZZ]		;MOVE THE CURRENT VALUE OF ZZ INTO E. ZZ IS NON-ZERO
  1998	031346	336 00 0 00 000000 		SKIPN			;*SKIPN SHOULD SKIP THE NEXT INSTRUCTION
  1999						STOP^
  2000	031347	254 04 0 00 031350 		HALT	.+1		;TEST FAILED IF PROGRAM HALTS HERE
  2001	031350	324 00 0 00 031351 		JUMPA	.+1		;IF TEST FAILS, CHANGE THIS INSTRUCTION (JUMPA .+1) TO
  2002									;JUMPA X (X IS THE ADDRESS OF THE FIRST INSTRUCTION
  2003									;IN THE SUBTEST) TO LOOP ON ERROR^
  2004
  2005					;**********
  2006
DFKAA PDP-10 KL10 BASIC INSTRUCTION DIAGNOSTIC (1) VER 0,2	MACRO %53B(1254)-4 11:50 11-Nov-24 Page 13
DFKAA1	MAC	13-Jan-89 10:22		TEST OF MOVE, SKIP AND COMPARE INSTRUCTIONS

  2007					SUBTTL	TEST OF MOVE, SKIP AND COMPARE INSTRUCTIONS
  2008
  2009					;THIS TEST VERIFIES THAT MOVEI LOADS E INTO THE AC.  SKIPG IS USED TO CHECK THAT
  2010					;THE AC WAS INDEED MODIFIED BY MOVEI.
  2011
  2012	031351	201 00 0 00 070254 	A3200:	MOVEI	[-1]		;*MOVEI SHOULD LOAD A POSITIVE NUMBER INTO AC0
  2013	031352	337 00 0 00 000000 		SKIPG			;SKIP HALT INSTRUCTION IF MOVEI LOADED AC CORRECTLY
  2014						STOP^
  2015	031353	254 04 0 00 031354 		HALT	.+1		;TEST FAILED IF PROGRAM HALTS HERE
  2016	031354	324 00 0 00 031355 		JUMPA	.+1		;IF TEST FAILS, CHANGE THIS INSTRUCTION (JUMPA .+1) TO
  2017									;JUMPA X (X IS THE ADDRESS OF THE FIRST INSTRUCTION
  2018									;IN THE SUBTEST) TO LOOP ON ERROR^
  2019
  2020					;IF PROGRAM HANGS UP ON MOVEI INSTRUCTION, CHECK AD FM +EN [ADFP], AD FM + EN A [ADFP],
  2021					;AD FM + F/F [ADFP], F CYC ACT EN C [F1]
  2022
  2023					;**********
  2024
  2025					;THIS TEST VERIFIES THAT SKIPL IS SENSITIVE TO THE DATA IN E AND NOT SENSITIVE TO
  2026					;THE DATA IN THE AC.  HENCE, SKIPL WILL SKIP THE NEXT INSTRUCTION ONLY IF
  2027					;C(E) IS LESS THAN ZERO.  E IS SET TO -1, A NEGATIVE NUMBER; AND
  2028					;THE AC IS SET TO 0 IN THIS TEST.  THEREFORE SKIPL SHOULD SKIP.
  2029
  2030	031355	200 00 0 00 070253 	A3300:	MOVE	[0]		;SET THE AC TO ALL ZEROS
  2031	031356	331 00 0 00 070254 		SKIPL	[-1]		;*SKIPL SHOULD SKIP BECAUSE C(E) IS NEGATIVE
  2032						STOP^
  2033	031357	254 04 0 00 031360 		HALT	.+1		;TEST FAILED IF PROGRAM HALTS HERE
  2034	031360	324 00 0 00 031361 		JUMPA	.+1		;IF TEST FAILS, CHANGE THIS INSTRUCTION (JUMPA .+1) TO
  2035									;JUMPA X (X IS THE ADDRESS OF THE FIRST INSTRUCTION
  2036									;IN THE SUBTEST) TO LOOP ON ERROR^
  2037
  2038					;**********
  2039
  2040					;THIS TEST VERIFIES THAT SKIPL IS SENSITIVE TO THE SIGN BIT IN E.  SKIPL SHOULD
  2041					;SKIP THE NEXT INSTRUCTION WHEN AND ONLY WHEN THE SIGN BIT IS SET.  IN THIS
  2042					;TEST, C(AC) IS PRESET TO ALL ZEROS, THEN SKIPL IS EXECUTED WITH C(E)=400000,,0.
  2043					;A FAILURE UCCURS IF SKIPL DOES NOT SKIP.
  2044
  2045	031361	200 00 0 00 070253 	A13100:	MOVE	[0]		;SET THE AC TO ALL ZEROS
  2046	031362	331 00 0 00 070256 		SKIPL	[400000,,0]	;*SKIPL SHOULD SKIP BECAUSE C(E) IS NEGATIVE
  2047						STOP^
  2048	031363	254 04 0 00 031364 		HALT	.+1		;TEST FAILED IF PROGRAM HALTS HERE
  2049	031364	324 00 0 00 031365 		JUMPA	.+1		;IF TEST FAILS, CHANGE THIS INSTRUCTION (JUMPA .+1) TO
  2050									;JUMPA X (X IS THE ADDRESS OF THE FIRST INSTRUCTION
  2051									;IN THE SUBTEST) TO LOOP ON ERROR^
  2052
  2053					;**********
DFKAA PDP-10 KL10 BASIC INSTRUCTION DIAGNOSTIC (1) VER 0,2	MACRO %53B(1254)-4 11:50 11-Nov-24 Page 14
DFKAA1	MAC	13-Jan-89 10:22		TEST OF MOVE, SKIP AND COMPARE INSTRUCTIONS

  2054					;THIS TEST VERIFIES THAT THE CAM INSTRUCTION DOES NOT MODIFY C(AC).  THE AC IS
  2055					;INITIALLY LOADED WITH ALL ZEROS; THEN CAM IS EXECUTED WITH C(E) NON-ZERO.
  2056					;THE AC IS THEN CHECKED FOR ALL ZEROS.  THIS TEST FAILS IF THE AC WAS MODIFIED BY CAM.
  2057
  2058	031365	200 00 0 00 070253 	A3400:	MOVE	[0]		;PRESET THE AC TO ALL ZEROS
  2059	031366	310 00 0 00 070327 		CAM	[1234]		;*CAM SHOULD NOT MODIFY THE AC
  2060	031367	200 00 0 00 000000 		MOVE			;MOVE C(0) INTO 0 (THIS INSTRUCTION SERVES AS A NO-OP.
  2061									;IT IS A PROGRAM FILLER IN CASE CAM SKIPS.)
  2062	031370	332 00 0 00 000000 		SKIPE			;SKIP HALT INSTRUCTION IF AC WAS NOT MODIFIED BY CAM
  2063						STOP^
  2064	031371	254 04 0 00 031372 		HALT	.+1		;TEST FAILED IF PROGRAM HALTS HERE
  2065	031372	324 00 0 00 031373 		JUMPA	.+1		;IF TEST FAILS, CHANGE THIS INSTRUCTION (JUMPA .+1) TO
  2066									;JUMPA X (X IS THE ADDRESS OF THE FIRST INSTRUCTION
  2067									;IN THE SUBTEST) TO LOOP ON ERROR^
  2068
  2069					;IF TEST HANGS ON CAM INSTRUCTION, AB PC EN [ABC], AB PC (FETCH) EN [ABC],
  2070					;IR CAXX [IR3]
  2071
  2072					;IF TEST LOOPS ON CAM INSTRUCTION, MC INSTR FETCH EN [MC1], MC INST FET ET2 EN [MC1],
  2073					;ET2 J F/F [E], IR CAXX [IR3]
  2074
  2075					;IF TEST HALTS AT HALT INSTRUCTION, SAC INH [ST2], IR CAXX [IR3], IR CAMX [IR1]
  2076
  2077					;**********
  2078
  2079					;THIS TEST VERIFIES THAT THE CAI INSTRUCTION DOES NOT MODIFY C(AC).  THE AC IS
  2080					;INITIALLY LOADED WITH ALL ZEROS; THEN CAI IS EXECUTED WITH E NON-ZERO.  THE AC IS
  2081					;THEN CHECKED FOR ALL ZEROS.  THIS TEST FAILS IF THE AC WAS MODIFIED BY CAM.
  2082
  2083	031373	200 00 0 00 070253 	A3500:	MOVE	[0]		;PRESET THE AC TO ALL ZEROS
  2084	031374	300 00 0 00 070327 		CAI	[1234]		;*CAI SHOULD NOT MODIFY THE AC
  2085	031375	200 00 0 00 000000 		MOVE			;MOVE C(0) INTO 0 (THIS INSTRUCTION IS A PROGRAM FILLER
  2086									;IN CASE CAI MODIFIES THE AC.  IT SERVES AS A NO-OP)
  2087	031376	332 00 0 00 000000 		SKIPE			;SKIP HALT INSTRUCTION IF CAI DID NOT MODIFY THE AC
  2088						STOP^
  2089	031377	254 04 0 00 031400 		HALT	.+1		;TEST FAILED IF PROGRAM HALTS HERE
  2090	031400	324 00 0 00 031401 		JUMPA	.+1		;IF TEST FAILS, CHANGE THIS INSTRUCTION (JUMPA .+1) TO
  2091									;JUMPA X (X IS THE ADDRESS OF THE FIRST INSTRUCTION
  2092									;IN THE SUBTEST) TO LOOP ON ERROR^
  2093
  2094					;**********
DFKAA PDP-10 KL10 BASIC INSTRUCTION DIAGNOSTIC (1) VER 0,2	MACRO %53B(1254)-4 11:50 11-Nov-24 Page 15
DFKAA1	MAC	13-Jan-89 10:22		TEST OF MOVE, SKIP AND COMPARE INSTRUCTIONS

  2095					;THIS TEST VERIFIES THAT CAI DOES NOT MODIFY C(AC0) WHEN AN AC OTHER THAN AC0 IS
  2096					;SPECIFIED BY THE CAI INSTRUCTION.
  2097					;THIS IS THE FIRST TEST THAT USES AN AC OTHER THAN AC0.
  2098					;FIRST, AC0 IS LOADED WITH ALL ZEROS; THEN, THE CAI INSTRUCTION IS EXECUTED WITH
  2099					;A NON-ZERO E.  AC 0 IS THEN TESTED F0R ALL ZEROS.
  2100
  2101	031401	200 00 0 00 070253 	A3600:	MOVE	[0]		;LOAD AC0 WITH ALL ZEROS
  2102	031402	300 17 0 00 070327 		CAI	17,[1234]	;*CAI SHOULD NOT MODIFY AC0
  2103	031403	200 00 0 00 000000 		MOVE			;MOVE C(0) INTO 0 (THIS INSTRUCTION IS A FILLER IN CASE
  2104									;CAI SKIPS THE NEXT INSTRUCTION.  IT ACTS AS A NO-OP)
  2105	031404	332 00 0 00 000000 		SKIPE			;SKIP HALT INSTRUCTION IF C(AC0) WAS NOT MODIFIED
  2106						STOP^
  2107	031405	254 04 0 00 031406 		HALT	.+1		;TEST FAILED IF PROGRAM HALTS HERE
  2108	031406	324 00 0 00 031407 		JUMPA	.+1		;IF TEST FAILS, CHANGE THIS INSTRUCTION (JUMPA .+1) TO
  2109									;JUMPA X (X IS THE ADDRESS OF THE FIRST INSTRUCTION
  2110									;IN THE SUBTEST) TO LOOP ON ERROR^
  2111
  2112					;**********
  2113
  2114					;THIS TEST VERIFIES THAT CAM DOES NOT MODIFY C(AC0) WHEN AN AC OTHER THAN AC0 IS
  2115					;SPECIFIED BY THE CAM INSTRUCTION.
  2116					;FIRST, AC0 IS LOADED WITH ALL ZEROS; THEN, THE CAM INSTRUCTION IS EXECUTED WITH
  2117					;A NON-ZERO E.  AC 0 IS THEN TESTED F0R ALL ZEROS.
  2118
  2119	031407	200 00 0 00 070253 	A3700:	MOVE	[0]		;PRESET C(AC0) TO ALL ZEROS
  2120	031410	310 17 0 00 070327 		CAM	17,[1234]	;*CAM SHOULD NOT MODIFY AC0
  2121	031411	200 00 0 00 000000 		MOVE			;MOVE C(0) INTO 0 (THIS INSTRUCTION IS A FILLER IN CASE
  2122									;CAM SKIPS THE NEXT INSTRUCTION.  IT SERVES AS A NO-OP)
  2123	031412	332 00 0 00 000000 		SKIPE			;SKIP HALT INSTRUCTION IF AC0 WAS NOT MODIFIED BY CAM
  2124						STOP^
  2125	031413	254 04 0 00 031414 		HALT	.+1		;TEST FAILED IF PROGRAM HALTS HERE
  2126	031414	324 00 0 00 031415 		JUMPA	.+1		;IF TEST FAILS, CHANGE THIS INSTRUCTION (JUMPA .+1) TO
  2127									;JUMPA X (X IS THE ADDRESS OF THE FIRST INSTRUCTION
  2128									;IN THE SUBTEST) TO LOOP ON ERROR^
  2129
  2130					;**********
DFKAA PDP-10 KL10 BASIC INSTRUCTION DIAGNOSTIC (1) VER 0,2	MACRO %53B(1254)-4 11:50 11-Nov-24 Page 16
DFKAA1	MAC	13-Jan-89 10:22		TEST OF MOVE, SKIP AND COMPARE INSTRUCTIONS

  2131					;THIS TEST VERIFIES THAT MOVE WILL PLACE C(E) INTO THE AC.  AC, E AND C(E) ARE NON-ZERO
  2132					;IN THIS TEST.  THIS TEST PASSES IF  FINAL C(AC) OF THE MOVE INSTRUCTION IS NON-ZERO.
  2133
  2134	031415	200 01 0 00 070253 	A4500:	MOVE	1,[0]		;LOAD THE AC WITH ALL ZEROS
  2135	031416	200 01 0 00 070254 		MOVE	1,[-1]		;*MOVE SHOULD PLACE ALL ONES IN THE AC
  2136	031417	336 00 0 00 000001 		SKIPN	1		;SKIP HALT INSTRUCTION IF MOVE MODIFIED THE AC
  2137						STOP^
  2138	031420	254 04 0 00 031421 		HALT	.+1		;TEST FAILED IF PROGRAM HALTS HERE
  2139	031421	324 00 0 00 031422 		JUMPA	.+1		;IF TEST FAILS, CHANGE THIS INSTRUCTION (JUMPA .+1) TO
  2140									;JUMPA X (X IS THE ADDRESS OF THE FIRST INSTRUCTION
  2141									;IN THE SUBTEST) TO LOOP ON ERROR^
  2142
  2143					;**********
  2144
  2145					;THIS TEST VERIFIES THAT THE MOVE INSTRUCTION WILL PLACE C(E) INTO THE AC.
  2146					;AC, E ARE NON-ZERO AND C(E)=0.
  2147					;THIS TEST FAILS IF THE FINAL C(AC) IS NOT EQUAL TO ZERO, THE ORIGINAL C(E)
  2148
  2149	031422	200 01 0 00 070253 	A4600:	MOVE	1,[0]		;*PLACE ALL ZEROS INTO THE AC
  2150	031423	332 00 0 00 000001 		SKIPE	1		;SKIP HALT INSTRUCTION IF MOVE PLACED ALL ZEROS INTO AC
  2151						STOP^
  2152	031424	254 04 0 00 031425 		HALT	.+1		;TEST FAILED IF PROGRAM HALTS HERE
  2153	031425	324 00 0 00 031426 		JUMPA	.+1		;IF TEST FAILS, CHANGE THIS INSTRUCTION (JUMPA .+1) TO
  2154									;JUMPA X (X IS THE ADDRESS OF THE FIRST INSTRUCTION
  2155									;IN THE SUBTEST) TO LOOP ON ERROR^
  2156
  2157					;IF JUMP .+1 OF PREVIOUS TEST FAILED, CHECK JUMPS: AD FM + EN [ADFP], IR JUMPS [IR1],
  2158					;IR JUMPX [IR1], AR AD EN [ARMA], AR AD EN A [ARMA], AR LT AD EN A [ARMA],
  2159					;AR LT ADD EN B [ARMA], AR RT AD EN A [ARMA],
  2160					;AR RT AD EN B [ARMA], AR A CLK INPUT [ARMA],
  2161					;ET2 C F/F [E], AR AD ET2 EN [ARMA], AR AD BR (ET2) B [ARMA]
  2162
  2163					;**********
DFKAA PDP-10 KL10 BASIC INSTRUCTION DIAGNOSTIC (1) VER 0,2	MACRO %53B(1254)-4 11:50 11-Nov-24 Page 17
DFKAA1	MAC	13-Jan-89 10:22		TEST OF MOVE, SKIP AND COMPARE INSTRUCTIONS

  2164					;THIS TEST VERIFIES THAT SOS DOES NOT MODIFY C(AC) WHEN THE AC IS AC0.
  2165					;FIRST, AC0 IS LOADED WITH ALL ZEROS AND E IS LOADED WITH A POSITIVE NUMBER;
  2166					;THEN, SOS IS EXECUTED.  SOS SHOULD SUBTRACT ONE FROM C((E)
  2167					;AND EXECUTE THE NEXT INSTRUCTION.  IT SHOULD NOT MODIFY AC0.
  2168					;THE TEST PASSES IF AC0 WAS NOT MODIFIED.
  2169
  2170	031426	200 00 0 00 070253 	A4000:	MOVE	[0]		;PRESET AC0 TO ALL ZEROS
  2171	031427	200 07 0 00 070327 		MOVE	7,[1234]	;PRESET E WITH A POSITIVE NUMBER
  2172	031430	370 00 0 00 000007 		SOS	7		;*SOS SHOULD NOT MODIFY C(AC0)
  2173	031431	200 00 0 00 000000 		MOVE			;MOVE C(0) INTO 0 (THIS INSTRUCTION IS A FILLER IN CASE
  2174									;SOS SKIPS THE NEXT INSTRUCTION.  IT SERVES AS A NO-OP)
  2175	031432	332 00 0 00 000000 		SKIPE			;SKIP THE HALT INSTRUCTION IF C(AC0) WAS NOT MODIFIED
  2176						STOP^
  2177	031433	254 04 0 00 031434 		HALT	.+1		;TEST FAILED IF PROGRAM HALTS HERE
  2178	031434	324 00 0 00 031435 		JUMPA	.+1		;IF TEST FAILS, CHANGE THIS INSTRUCTION (JUMPA .+1) TO
  2179									;JUMPA X (X IS THE ADDRESS OF THE FIRST INSTRUCTION
  2180									;IN THE SUBTEST) TO LOOP ON ERROR^
  2181
  2182					;**********
  2183			004100		SN=4100
  2184			000000			AC=0
  2185
  2186					A4100:	REPEAT	4,
  2187					<;THIS TEST VERIFIES THAT THE SKIP INSTRUCTION WILL PLACE THE CONTENTS OF E INTO THE AC
  2188					;WHEN THE AC IS NOT AC0. THIS TEST IS PERFORMED FOR AC1, AC2, AC4 AND AC10.
  2189					;FIRST, THE AC IS LOADED WITH ALL ZEROS;  THEN, THE SKIP INSTRUCTION IS EXECUTED
  2190					;WITH AC1, AC2, AC4 OR AC10.  C(E) IS EQUAL TO -1.  THE SKIP INSTRUCTION SHOULD CAUSE
  2191					;THE AC TO CONTAIN -1.  THE AC IS THEN CHECKED FOR
  2192					;NON-ZERO CONTENTS.  THE TEST FAILS IF C(AC)=0.
  2193					;THIS TEST ALSO VERIFIES THAT 'SKIP AC,[-1]' DOES NOT CLOBBER AC0.
  2194
  2195					SN=SN+1
  2196						AC=AC+AC
  2197						IFE	AC,<AC=1>
  2198						MOVE	0,[0]		;PRESET AC0 TO ALL ZEROS
  2199						MOVE	AC,[0]		;PRESET THE AC TO ALL ZEROS
  2200						SKIP	AC,[-1]		;*SKIP SHOULD PLACE -1 INTO THE AC
  2201						SKIPN	AC		;SKIP THE HALT INSTRUCTION IF THE AC IS NON-ZERO
  2202						STOP
  2203						SKIPE	0		;VERIFY THAT AC0 DID NOT GET CLOBBERED BY SKIP
  2204						STOP
  2205
  2206					;**********
  2207					>
  2208					;THIS TEST VERIFIES THAT THE SKIP INSTRUCTION WILL PLACE THE CONTENTS OF E INTO THE AC
  2209					;WHEN THE AC IS NOT AC0. THIS TEST IS PERFORMED FOR AC1, AC2, AC4 AND AC10.
  2210					;FIRST, THE AC IS LOADED WITH ALL ZEROS;  THEN, THE SKIP INSTRUCTION IS EXECUTED
  2211					;WITH AC1, AC2, AC4 OR AC10.  C(E) IS EQUAL TO -1.  THE SKIP INSTRUCTION SHOULD CAUSE
  2212					;THE AC TO CONTAIN -1.  THE AC IS THEN CHECKED FOR
  2213					;NON-ZERO CONTENTS.  THE TEST FAILS IF C(AC)=0.
  2214					;THIS TEST ALSO VERIFIES THAT 'SKIP AC,[-1]' DOES NOT CLOBBER AC0.
  2215
  2216			004101		SN=SN+1
  2217			000000			AC=AC+AC
  2218			000001			IFE	AC,<AC=1>
DFKAA PDP-10 KL10 BASIC INSTRUCTION DIAGNOSTIC (1) VER 0,2	MACRO %53B(1254)-4 11:50 11-Nov-24 Page 17-1
DFKAA1	MAC	13-Jan-89 10:22		TEST OF MOVE, SKIP AND COMPARE INSTRUCTIONS

  2219	031435	200 00 0 00 070253 		MOVE	0,[0]		;PRESET AC0 TO ALL ZEROS
  2220	031436	200 01 0 00 070253 		MOVE	AC,[0]		;PRESET THE AC TO ALL ZEROS
  2221	031437	330 01 0 00 070254 		SKIP	AC,[-1]		;*SKIP SHOULD PLACE -1 INTO THE AC
  2222	031440	336 00 0 00 000001 		SKIPN	AC		;SKIP THE HALT INSTRUCTION IF THE AC IS NON-ZERO
  2223						STOP^
  2224	031441	254 04 0 00 031442 		HALT	.+1		;TEST FAILED IF PROGRAM HALTS HERE
  2225	031442	324 00 0 00 031443 		JUMPA	.+1		;IF TEST FAILS, CHANGE THIS INSTRUCTION (JUMPA .+1) TO
  2226									;JUMPA X (X IS THE ADDRESS OF THE FIRST INSTRUCTION
  2227									;IN THE SUBTEST) TO LOOP ON ERROR^
  2228	031443	332 00 0 00 000000 		SKIPE	0		;VERIFY THAT AC0 DID NOT GET CLOBBERED BY SKIP
  2229						STOP^
  2230	031444	254 04 0 00 031445 		HALT	.+1		;TEST FAILED IF PROGRAM HALTS HERE
  2231	031445	324 00 0 00 031446 		JUMPA	.+1		;IF TEST FAILS, CHANGE THIS INSTRUCTION (JUMPA .+1) TO
  2232									;JUMPA X (X IS THE ADDRESS OF THE FIRST INSTRUCTION
  2233									;IN THE SUBTEST) TO LOOP ON ERROR^
  2234
  2235					;**********
  2236
  2237					;THIS TEST VERIFIES THAT THE SKIP INSTRUCTION WILL PLACE THE CONTENTS OF E INTO THE AC
  2238					;WHEN THE AC IS NOT AC0. THIS TEST IS PERFORMED FOR AC1, AC2, AC4 AND AC10.
  2239					;FIRST, THE AC IS LOADED WITH ALL ZEROS;  THEN, THE SKIP INSTRUCTION IS EXECUTED
  2240					;WITH AC1, AC2, AC4 OR AC10.  C(E) IS EQUAL TO -1.  THE SKIP INSTRUCTION SHOULD CAUSE
  2241					;THE AC TO CONTAIN -1.  THE AC IS THEN CHECKED FOR
  2242					;NON-ZERO CONTENTS.  THE TEST FAILS IF C(AC)=0.
  2243					;THIS TEST ALSO VERIFIES THAT 'SKIP AC,[-1]' DOES NOT CLOBBER AC0.
  2244
  2245			004102		SN=SN+1
  2246			000002			AC=AC+AC
  2247						IFE	AC,<AC=1>
  2248	031446	200 00 0 00 070253 		MOVE	0,[0]		;PRESET AC0 TO ALL ZEROS
  2249	031447	200 02 0 00 070253 		MOVE	AC,[0]		;PRESET THE AC TO ALL ZEROS
  2250	031450	330 02 0 00 070254 		SKIP	AC,[-1]		;*SKIP SHOULD PLACE -1 INTO THE AC
  2251	031451	336 00 0 00 000002 		SKIPN	AC		;SKIP THE HALT INSTRUCTION IF THE AC IS NON-ZERO
  2252						STOP^
  2253	031452	254 04 0 00 031453 		HALT	.+1		;TEST FAILED IF PROGRAM HALTS HERE
  2254	031453	324 00 0 00 031454 		JUMPA	.+1		;IF TEST FAILS, CHANGE THIS INSTRUCTION (JUMPA .+1) TO
  2255									;JUMPA X (X IS THE ADDRESS OF THE FIRST INSTRUCTION
  2256									;IN THE SUBTEST) TO LOOP ON ERROR^
  2257	031454	332 00 0 00 000000 		SKIPE	0		;VERIFY THAT AC0 DID NOT GET CLOBBERED BY SKIP
  2258						STOP^
  2259	031455	254 04 0 00 031456 		HALT	.+1		;TEST FAILED IF PROGRAM HALTS HERE
  2260	031456	324 00 0 00 031457 		JUMPA	.+1		;IF TEST FAILS, CHANGE THIS INSTRUCTION (JUMPA .+1) TO
  2261									;JUMPA X (X IS THE ADDRESS OF THE FIRST INSTRUCTION
  2262									;IN THE SUBTEST) TO LOOP ON ERROR^
  2263
  2264					;**********
  2265
  2266					;THIS TEST VERIFIES THAT THE SKIP INSTRUCTION WILL PLACE THE CONTENTS OF E INTO THE AC
  2267					;WHEN THE AC IS NOT AC0. THIS TEST IS PERFORMED FOR AC1, AC2, AC4 AND AC10.
  2268					;FIRST, THE AC IS LOADED WITH ALL ZEROS;  THEN, THE SKIP INSTRUCTION IS EXECUTED
  2269					;WITH AC1, AC2, AC4 OR AC10.  C(E) IS EQUAL TO -1.  THE SKIP INSTRUCTION SHOULD CAUSE
  2270					;THE AC TO CONTAIN -1.  THE AC IS THEN CHECKED FOR
  2271					;NON-ZERO CONTENTS.  THE TEST FAILS IF C(AC)=0.
  2272					;THIS TEST ALSO VERIFIES THAT 'SKIP AC,[-1]' DOES NOT CLOBBER AC0.
  2273
DFKAA PDP-10 KL10 BASIC INSTRUCTION DIAGNOSTIC (1) VER 0,2	MACRO %53B(1254)-4 11:50 11-Nov-24 Page 17-2
DFKAA1	MAC	13-Jan-89 10:22		TEST OF MOVE, SKIP AND COMPARE INSTRUCTIONS

  2274			004103		SN=SN+1
  2275			000004			AC=AC+AC
  2276						IFE	AC,<AC=1>
  2277	031457	200 00 0 00 070253 		MOVE	0,[0]		;PRESET AC0 TO ALL ZEROS
  2278	031460	200 04 0 00 070253 		MOVE	AC,[0]		;PRESET THE AC TO ALL ZEROS
  2279	031461	330 04 0 00 070254 		SKIP	AC,[-1]		;*SKIP SHOULD PLACE -1 INTO THE AC
  2280	031462	336 00 0 00 000004 		SKIPN	AC		;SKIP THE HALT INSTRUCTION IF THE AC IS NON-ZERO
  2281						STOP^
  2282	031463	254 04 0 00 031464 		HALT	.+1		;TEST FAILED IF PROGRAM HALTS HERE
  2283	031464	324 00 0 00 031465 		JUMPA	.+1		;IF TEST FAILS, CHANGE THIS INSTRUCTION (JUMPA .+1) TO
  2284									;JUMPA X (X IS THE ADDRESS OF THE FIRST INSTRUCTION
  2285									;IN THE SUBTEST) TO LOOP ON ERROR^
  2286	031465	332 00 0 00 000000 		SKIPE	0		;VERIFY THAT AC0 DID NOT GET CLOBBERED BY SKIP
  2287						STOP^
  2288	031466	254 04 0 00 031467 		HALT	.+1		;TEST FAILED IF PROGRAM HALTS HERE
  2289	031467	324 00 0 00 031470 		JUMPA	.+1		;IF TEST FAILS, CHANGE THIS INSTRUCTION (JUMPA .+1) TO
  2290									;JUMPA X (X IS THE ADDRESS OF THE FIRST INSTRUCTION
  2291									;IN THE SUBTEST) TO LOOP ON ERROR^
  2292
  2293					;**********
  2294
  2295					;THIS TEST VERIFIES THAT THE SKIP INSTRUCTION WILL PLACE THE CONTENTS OF E INTO THE AC
  2296					;WHEN THE AC IS NOT AC0. THIS TEST IS PERFORMED FOR AC1, AC2, AC4 AND AC10.
  2297					;FIRST, THE AC IS LOADED WITH ALL ZEROS;  THEN, THE SKIP INSTRUCTION IS EXECUTED
  2298					;WITH AC1, AC2, AC4 OR AC10.  C(E) IS EQUAL TO -1.  THE SKIP INSTRUCTION SHOULD CAUSE
  2299					;THE AC TO CONTAIN -1.  THE AC IS THEN CHECKED FOR
  2300					;NON-ZERO CONTENTS.  THE TEST FAILS IF C(AC)=0.
  2301					;THIS TEST ALSO VERIFIES THAT 'SKIP AC,[-1]' DOES NOT CLOBBER AC0.
  2302
  2303			004104		SN=SN+1
  2304			000010			AC=AC+AC
  2305						IFE	AC,<AC=1>
  2306	031470	200 00 0 00 070253 		MOVE	0,[0]		;PRESET AC0 TO ALL ZEROS
  2307	031471	200 10 0 00 070253 		MOVE	AC,[0]		;PRESET THE AC TO ALL ZEROS
  2308	031472	330 10 0 00 070254 		SKIP	AC,[-1]		;*SKIP SHOULD PLACE -1 INTO THE AC
  2309	031473	336 00 0 00 000010 		SKIPN	AC		;SKIP THE HALT INSTRUCTION IF THE AC IS NON-ZERO
  2310						STOP^
  2311	031474	254 04 0 00 031475 		HALT	.+1		;TEST FAILED IF PROGRAM HALTS HERE
  2312	031475	324 00 0 00 031476 		JUMPA	.+1		;IF TEST FAILS, CHANGE THIS INSTRUCTION (JUMPA .+1) TO
  2313									;JUMPA X (X IS THE ADDRESS OF THE FIRST INSTRUCTION
  2314									;IN THE SUBTEST) TO LOOP ON ERROR^
  2315	031476	332 00 0 00 000000 		SKIPE	0		;VERIFY THAT AC0 DID NOT GET CLOBBERED BY SKIP
  2316						STOP^
  2317	031477	254 04 0 00 031500 		HALT	.+1		;TEST FAILED IF PROGRAM HALTS HERE
  2318	031500	324 00 0 00 031501 		JUMPA	.+1		;IF TEST FAILS, CHANGE THIS INSTRUCTION (JUMPA .+1) TO
  2319									;JUMPA X (X IS THE ADDRESS OF THE FIRST INSTRUCTION
  2320									;IN THE SUBTEST) TO LOOP ON ERROR^
  2321
  2322					;**********
  2323
DFKAA PDP-10 KL10 BASIC INSTRUCTION DIAGNOSTIC (1) VER 0,2	MACRO %53B(1254)-4 11:50 11-Nov-24 Page 18
DFKAA1	MAC	13-Jan-89 10:22		TEST OF SKIP, FULL WORD TRANSFER AND HALF WORD TRANSFER INSTRUCTIONS

  2324					SUBTTL	TEST OF SKIP, FULL WORD TRANSFER AND HALF WORD TRANSFER INSTRUCTIONS
  2325
  2326					;THIS TEST VERIFIES THAT THE SKIP INSTRUCTION WILL NOT MODIFY THE CONTENTS OF AC0.
  2327					;FIRST, AC0 IS LOADED WITH ALL ZEROS;  THEN,
  2328					;THE SKIP INSTRUCTION IS EXECUTED WITH C(E)=-1 AND AC0.  AC0 IS THEN TESTED FOR ALL
  2329					;ZEROS.  THE TEST FAILS IF AC0 WAS MODIFIED BY THE SKIP INSTRUCTION.
  2330
  2331	031501	200 00 0 00 070253 	A4200:	MOVE	[0]		;PRESET AC0 TO ALL ZEROS
  2332	031502	330 00 0 00 070254 		SKIP	[-1]		;*SKIP SHOULD NOT MODIFY AC0
  2333	031503	332 00 0 00 000000 		SKIPE			;SKIP HALT INSTRUCTION IF AC0 WAS NOT MODIFIED BY SKIP
  2334						STOP^
  2335	031504	254 04 0 00 031505 		HALT	.+1		;TEST FAILED IF PROGRAM HALTS HERE
  2336	031505	324 00 0 00 031506 		JUMPA	.+1		;IF TEST FAILS, CHANGE THIS INSTRUCTION (JUMPA .+1) TO
  2337									;JUMPA X (X IS THE ADDRESS OF THE FIRST INSTRUCTION
  2338									;IN THE SUBTEST) TO LOOP ON ERROR^
  2339
  2340					;AC=0: SAC INH, IR BIT 9, 10, 11 OR 12 S-A-1
  2341
  2342					;**********
  2343
  2344					;THIS TEST VERIFIES THAT MOVSS DOES NOT MODIFY C(AC0) WHEN AC0 IS SPECIFIED AS THE AC.
  2345					;FIRST, E IS LOADED WITH ALL ONES AND THE AC (AC0)
  2346					;IS LOADED WITH ALL ZEROS; THEN, MOVSS IS EXECUTED.  MOVSS SHOULD NOT MODIFY AC0.
  2347					;AC0 IS THEN CHECKED TO INSURE THAT IT WAS NOT MODIFIED BY MOVSS.
  2348
  2349	031506	200 07 0 00 070254 	A4300:	MOVE	7,[-1]		;LOAD E OF THE MOVSS INSTRUCTION WITH ALL ONES
  2350	031507	200 00 0 00 070253 		MOVE	[0]		;PRESET AC0 TO ALL ZEROS
  2351	031510	207 00 0 00 000007 		MOVSS	7		;*MOVSS SHOULD NOT MODIFY AC0
  2352	031511	332 00 0 00 000000 		SKIPE			;SKIP HALT INSTRUCTION IF AC0 WAS INTACT
  2353						STOP^
  2354	031512	254 04 0 00 031513 		HALT	.+1		;TEST FAILED IF PROGRAM HALTS HERE
  2355	031513	324 00 0 00 031514 		JUMPA	.+1		;IF TEST FAILS, CHANGE THIS INSTRUCTION (JUMPA .+1) TO
  2356									;JUMPA X (X IS THE ADDRESS OF THE FIRST INSTRUCTION
  2357									;IN THE SUBTEST) TO LOOP ON ERROR^
  2358
  2359					;MOVX & AC=0: SAC INH [ST2], IR XXXS [IR1]
  2360
  2361					;**********
DFKAA PDP-10 KL10 BASIC INSTRUCTION DIAGNOSTIC (1) VER 0,2	MACRO %53B(1254)-4 11:50 11-Nov-24 Page 19
DFKAA1	MAC	13-Jan-89 10:22		TEST OF SKIP, FULL WORD TRANSFER AND HALF WORD TRANSFER INSTRUCTIONS

  2362					;THIS TEST VERIFIES THAT HRRS DOES NOT MODIFY C(AC0) WHEN AC0 IS THE SPECIFIED AC.
  2363					;FIRST, E IS LOADED WITH ALL ONES AND AC0 IS LOADED WITH ALL ZEROS;
  2364					;THEN, HRRS IS EXECUTED WITH AC=AC0.  AC0 IS THEN CHECKED FOR ALL ZEROS.
  2365					;IF AC0 WAS MODIFIED BY THE HRRS INSTRUCTION, THE TEST FAIL.
  2366
  2367	031514	200 07 0 00 070254 	A4400:	MOVE	7,[-1]		;PRESET E OF THE HRRS INSTRUCTION TO ALL ONES
  2368	031515	200 00 0 00 070253 		MOVE	[0]		;PRESET AC0 TO ALL ZEROS
  2369	031516	543 00 0 00 000007 		HRRS	7		;*HRRS SHOULD NOT MODIFY THE AC WHEN THE AC IS AC0
  2370	031517	332 00 0 00 000000 		SKIPE			;SKIP THE HALT INSTRUCTION IF AC0 WAS INTACT
  2371						STOP^
  2372	031520	254 04 0 00 031521 		HALT	.+1		;TEST FAILED IF PROGRAM HALTS HERE
  2373	031521	324 00 0 00 031522 		JUMPA	.+1		;IF TEST FAILS, CHANGE THIS INSTRUCTION (JUMPA .+1) TO
  2374									;JUMPA X (X IS THE ADDRESS OF THE FIRST INSTRUCTION
  2375									;IN THE SUBTEST) TO LOOP ON ERROR^
  2376
  2377					;(HXXXS&AC=0): SAC INH [ST2], IR HWTFWT [IR3], IR XXXS [IR1], IR HWT [IR1],
  2378					;IR BITS S-A-1
  2379
  2380					;**********
DFKAA PDP-10 KL10 BASIC INSTRUCTION DIAGNOSTIC (1) VER 0,2	MACRO %53B(1254)-4 11:50 11-Nov-24 Page 20
DFKAA1	MAC	13-Jan-89 10:22		TEST OF SKIP, FULL WORD TRANSFER AND HALF WORD TRANSFER INSTRUCTIONS

  2381					;THIS TEST VERIFIES THAT THE JUMP INSTRUCTION DOES NOT MODIFY C(AC).
  2382					;THE AC IS FIRST LOADED WITH ALL ZEROS;
  2383					;THEN JUMP .+1 IS EXECUTED.  THE AC IS THEN CHECKED TO INSURE THAT IT WAS NOT MODIFIED
  2384					;BY JUMP.  THE TEST FAILS IF THE AC WAS MODIFIED
  2385
  2386	031522	200 00 0 00 070253 	A4700:	MOVE	[0]		; PRESET THE AC TO ALL ZEROS
  2387	031523	320 00 0 00 031524 		JUMP	.+1		;*JUMP SHOULD NOT MODIFY THE AC
  2388	031524	332 00 0 00 000000 		SKIPE			;SKIP HALT INSTRUCTION IF AC WAS INTACT
  2389						STOP^
  2390	031525	254 04 0 00 031526 		HALT	.+1		;TEST FAILED IF PROGRAM HALTS HERE
  2391	031526	324 00 0 00 031527 		JUMPA	.+1		;IF TEST FAILS, CHANGE THIS INSTRUCTION (JUMPA .+1) TO
  2392									;JUMPA X (X IS THE ADDRESS OF THE FIRST INSTRUCTION
  2393									;IN THE SUBTEST) TO LOOP ON ERROR^
  2394
  2395					;**********
  2396
  2397					;THIS TEST VERIFIES THAT MOVS WILL NOT PICK UP ANY ONES WHEN SWAPPING A WORD
  2398					;OF ALL ZEROS.  FIRST, E IS LOADED WITH A WORD OF ALL ZEROS;
  2399					;THEN, MOVS IS EXECUTED.  THE AC IS THEN CHECKED TO INSURE THAT THE RESULT DOES NOT
  2400					;CONTAIN ANY ONES.
  2401
  2402	031527	200 00 0 00 070253 	A5000:	MOVE	[0]		;PRESET E WITH ALL ZEROS
  2403	031530	204 00 0 00 000000 		MOVS			;*MOVS SHOULD RESULT WITH AN AC 0F ALL ZEROS
  2404	031531	332 00 0 00 000000 		SKIPE			;SKIP HALT INSTRUCTION IF C(AC)=0
  2405						STOP^
  2406	031532	254 04 0 00 031533 		HALT	.+1		;TEST FAILED IF PROGRAM HALTS HERE
  2407	031533	324 00 0 00 031534 		JUMPA	.+1		;IF TEST FAILS, CHANGE THIS INSTRUCTION (JUMPA .+1) TO
  2408									;JUMPA X (X IS THE ADDRESS OF THE FIRST INSTRUCTION
  2409									;IN THE SUBTEST) TO LOOP ON ERROR^
  2410
  2411					;**********
  2412
  2413					;THIS TEST VERIFIES THAT A MOVS EXECUTED ON AN E CONTAINING A NON-ZERO NUMBER
  2414					;RESULTS IN A NON-ZERO NUMBER IN THE AC.  FIRST A NON-ZERO WORD
  2415					;IS LOADED INTO E; THEN, MOVS IS EXECUTED.  THE AC IS CHECKED FOR A NON-ZERO RESULT.
  2416					;IF C(AC)=0, THE TEST FAILS.
  2417
  2418	031534	200 00 0 00 070330 	A5100:	MOVE	[XWD 0,-1]	;LOAD E WITH A NON-ZERO VALUE
  2419	031535	204 00 0 00 000000 		MOVS			;*MOVS SHOULD RESULT IN C(AC) NON-ZERO
  2420	031536	336 00 0 00 000000 		SKIPN			;SKIP HALT INSTRUCTION IF C(AC) OF MOVS IS NON-ZERO
  2421						STOP^
  2422	031537	254 04 0 00 031540 		HALT	.+1		;TEST FAILED IF PROGRAM HALTS HERE
  2423	031540	324 00 0 00 031541 		JUMPA	.+1		;IF TEST FAILS, CHANGE THIS INSTRUCTION (JUMPA .+1) TO
  2424									;JUMPA X (X IS THE ADDRESS OF THE FIRST INSTRUCTION
  2425									;IN THE SUBTEST) TO LOOP ON ERROR^
  2426
  2427					;**********
DFKAA PDP-10 KL10 BASIC INSTRUCTION DIAGNOSTIC (1) VER 0,2	MACRO %53B(1254)-4 11:50 11-Nov-24 Page 21
DFKAA1	MAC	13-Jan-89 10:22		TEST OF SKIP, FULL WORD TRANSFER AND HALF WORD TRANSFER INSTRUCTIONS

  2428					;THIS TEST VERIFIES THAT A MOVS EXECUTED ON AN E CONTAINING A NON-ZERO NUMBER
  2429					;RESULTS IN A NON-ZERO NUMBER IN THE AC.  FIRST A NON-ZERO WORD
  2430					;IS LOADED INTO E; THEN, MOVS IS EXECUTED.  THE AC IS CHECKED FOR A NON-ZERO
  2431					;RESULT.  IF C(AC)=0, THE TEST FAILS.
  2432
  2433	031541	200 00 0 00 070331 	A5200:	MOVE	[XWD -1,0]	;LOAD E OF MOVS WITH A NON-ZERO NUMBER
  2434	031542	204 00 0 00 000000 		MOVS			;*MOVS SHOULD RESULT WITH C(AC) NON-ZERO
  2435	031543	336 00 0 00 000000 		SKIPN			;SKIP HALT INSTRUCTION IF C(AC) OF MOVS IS NON-ZERO
  2436						STOP^
  2437	031544	254 04 0 00 031545 		HALT	.+1		;TEST FAILED IF PROGRAM HALTS HERE
  2438	031545	324 00 0 00 031546 		JUMPA	.+1		;IF TEST FAILS, CHANGE THIS INSTRUCTION (JUMPA .+1) TO
  2439									;JUMPA X (X IS THE ADDRESS OF THE FIRST INSTRUCTION
  2440									;IN THE SUBTEST) TO LOOP ON ERROR^
  2441
  2442					;**********
  2443
  2444					;THIS TEST VERIFIES THAT THE MOVS INSTRUCTION SWAPS BITS 0 AND 188 OF E
  2445					;AND STORES THEM IN THE AC UNLESS AR BIT 0 IS S-A-0.  FIRST, A WORD
  2446					;WITH BIT 0 SET TO A ONE AND BIT 18 CLEARED IS LOADED INTO E.  THEN, MOVS
  2447					;IS EXECUTED.  THE AC IS THEN CHECKED FOR A 0 IN BIT 0, WHICH IS THE
  2448					;CORRECT RESULT.
  2449
  2450	031546	200 00 0 00 070331 	A5300:	MOVE	[XWD -1,0]	;LOAD E OF MOVS WITH 777777000000
  2451	031547	204 00 0 00 000000 		MOVS			;*MOVS SHOULD RESULT WITH AC BIT 0 EQUAL TO 0
  2452	031550	337 00 0 00 000000 		SKIPG			;SKIP HALT INSTRUCTION IF BIT 0 OF AC IS 0
  2453						STOP^
  2454	031551	254 04 0 00 031552 		HALT	.+1		;TEST FAILED IF PROGRAM HALTS HERE
  2455	031552	324 00 0 00 031553 		JUMPA	.+1		;IF TEST FAILS, CHANGE THIS INSTRUCTION (JUMPA .+1) TO
  2456									;JUMPA X (X IS THE ADDRESS OF THE FIRST INSTRUCTION
  2457									;IN THE SUBTEST) TO LOOP ON ERROR^
  2458
  2459					;MOVSX: AR SWAP [ARMB], AR LT AR RT A [ARMB], AR LT AR RT B [ARMB],
  2460					;AR RT AR LT A [ARMB], AR RT AR LT B [ARMB], ET2 A F/F [E], IR MOVSX [IR1],
  2461					;IR MOV(E,S)X [IR1]
  2462
  2463					;**********
  2464
  2465					;THIS TEST VERIFIES THAT THE MOVS INSTRUCTION SWAPS BITS 0 AND 18 OF E AND
  2466					;STORES THEM IN THE AC UNLESS AR BIT 0 IS S-A-1.  FIRST, A WORD WITH BIT 0
  2467					;SET TO A ONE AND BIT 18 CLEARED IS LOADED INTO E.  THEN, MOVS IS EXECUTED.
  2468					;THE AC IS CHECKED FOR A ZERO IN BIT ZERO, WHICH IS THE CORRECT RESULT.
  2469
  2470	031553	200 00 0 00 070330 	A5400:	MOVE	[XWD 0,-1]	;LOAD E OF MOVS WITH 777777
  2471	031554	204 00 0 00 000000 		MOVS			;*MOVS SHOULD RESULT WITH BIT 0 OF THE AC SET
  2472	031555	331 00 0 00 000000 		SKIPL			;PASS IF AC BIT 0 IS SET
  2473						STOP^
  2474	031556	254 04 0 00 031557 		HALT	.+1		;TEST FAILED IF PROGRAM HALTS HERE
  2475	031557	324 00 0 00 031560 		JUMPA	.+1		;IF TEST FAILS, CHANGE THIS INSTRUCTION (JUMPA .+1) TO
  2476									;JUMPA X (X IS THE ADDRESS OF THE FIRST INSTRUCTION
  2477									;IN THE SUBTEST) TO LOOP ON ERROR^
  2478
  2479					;**********
DFKAA PDP-10 KL10 BASIC INSTRUCTION DIAGNOSTIC (1) VER 0,2	MACRO %53B(1254)-4 11:50 11-Nov-24 Page 22
DFKAA1	MAC	13-Jan-89 10:22		TEST OF SKIP, FULL WORD TRANSFER AND HALF WORD TRANSFER INSTRUCTIONS

  2480			005500		SN=5500
  2481			000000			ZZ=0
  2482
  2483					A5500:	REPEAT	^D18,
  2484					<;THIS TEST VERIFIES THAT AR LT INPUT IS FUNCTIONING.  A WORD OF ALL ZER0S,
  2485					;EXCEPT FOR ONE ONE IN THE RIGHT HALF IS SWAPPED.
  2486					;THE AC IS CHECKED FOR ITS CONTENTS NON-ZERO.  THE TEST PASSES
  2487					;IF C(AC) IS NON-ZERO. THIS TEST IS REPEATED 18 TIMES SO THAT EACH BIT
  2488					;OF THE LEFT HALF OF THE AC IS TESTED WITH A 1.
  2489					SN=SN+1
  2490						ZZ=ZZ+ZZ
  2491						IFE	ZZ,<ZZ=1>
  2492						MOVE	[0]		;CLEAR AC
  2493						MOVS	[ZZ]		;*MOVS SHOULD RESULT WITH A NON-ZERO WORD IN THE AC
  2494						SKIPN			;SKIP HALT INSTRUCTION IF SET BIT IS NOT LOST IN SWAP.
  2495						STOP
  2496
  2497					;**********
  2498					>
  2499					;THIS TEST VERIFIES THAT AR LT INPUT IS FUNCTIONING.  A WORD OF ALL ZER0S,
  2500					;EXCEPT FOR ONE ONE IN THE RIGHT HALF IS SWAPPED.
  2501					;THE AC IS CHECKED FOR ITS CONTENTS NON-ZERO.  THE TEST PASSES
  2502					;IF C(AC) IS NON-ZERO. THIS TEST IS REPEATED 18 TIMES SO THAT EACH BIT
  2503					;OF THE LEFT HALF OF THE AC IS TESTED WITH A 1.
  2504			005501		SN=SN+1
  2505			000000			ZZ=ZZ+ZZ
  2506			000001			IFE	ZZ,<ZZ=1>
  2507	031560	200 00 0 00 070253 		MOVE	[0]		;CLEAR AC
  2508	031561	204 00 0 00 070265 		MOVS	[ZZ]		;*MOVS SHOULD RESULT WITH A NON-ZERO WORD IN THE AC
  2509	031562	336 00 0 00 000000 		SKIPN			;SKIP HALT INSTRUCTION IF SET BIT IS NOT LOST IN SWAP.
  2510						STOP^
  2511	031563	254 04 0 00 031564 		HALT	.+1		;TEST FAILED IF PROGRAM HALTS HERE
  2512	031564	324 00 0 00 031565 		JUMPA	.+1		;IF TEST FAILS, CHANGE THIS INSTRUCTION (JUMPA .+1) TO
  2513									;JUMPA X (X IS THE ADDRESS OF THE FIRST INSTRUCTION
  2514									;IN THE SUBTEST) TO LOOP ON ERROR^
  2515
  2516					;**********
  2517
  2518					;THIS TEST VERIFIES THAT AR LT INPUT IS FUNCTIONING.  A WORD OF ALL ZER0S,
  2519					;EXCEPT FOR ONE ONE IN THE RIGHT HALF IS SWAPPED.
  2520					;THE AC IS CHECKED FOR ITS CONTENTS NON-ZERO.  THE TEST PASSES
  2521					;IF C(AC) IS NON-ZERO. THIS TEST IS REPEATED 18 TIMES SO THAT EACH BIT
  2522					;OF THE LEFT HALF OF THE AC IS TESTED WITH A 1.
  2523			005502		SN=SN+1
  2524			000002			ZZ=ZZ+ZZ
  2525						IFE	ZZ,<ZZ=1>
  2526	031565	200 00 0 00 070253 		MOVE	[0]		;CLEAR AC
  2527	031566	204 00 0 00 070266 		MOVS	[ZZ]		;*MOVS SHOULD RESULT WITH A NON-ZERO WORD IN THE AC
  2528	031567	336 00 0 00 000000 		SKIPN			;SKIP HALT INSTRUCTION IF SET BIT IS NOT LOST IN SWAP.
  2529						STOP^
  2530	031570	254 04 0 00 031571 		HALT	.+1		;TEST FAILED IF PROGRAM HALTS HERE
  2531	031571	324 00 0 00 031572 		JUMPA	.+1		;IF TEST FAILS, CHANGE THIS INSTRUCTION (JUMPA .+1) TO
  2532									;JUMPA X (X IS THE ADDRESS OF THE FIRST INSTRUCTION
  2533									;IN THE SUBTEST) TO LOOP ON ERROR^
  2534
DFKAA PDP-10 KL10 BASIC INSTRUCTION DIAGNOSTIC (1) VER 0,2	MACRO %53B(1254)-4 11:50 11-Nov-24 Page 22-1
DFKAA1	MAC	13-Jan-89 10:22		TEST OF SKIP, FULL WORD TRANSFER AND HALF WORD TRANSFER INSTRUCTIONS

  2535					;**********
  2536
  2537					;THIS TEST VERIFIES THAT AR LT INPUT IS FUNCTIONING.  A WORD OF ALL ZER0S,
  2538					;EXCEPT FOR ONE ONE IN THE RIGHT HALF IS SWAPPED.
  2539					;THE AC IS CHECKED FOR ITS CONTENTS NON-ZERO.  THE TEST PASSES
  2540					;IF C(AC) IS NON-ZERO. THIS TEST IS REPEATED 18 TIMES SO THAT EACH BIT
  2541					;OF THE LEFT HALF OF THE AC IS TESTED WITH A 1.
  2542			005503		SN=SN+1
  2543			000004			ZZ=ZZ+ZZ
  2544						IFE	ZZ,<ZZ=1>
  2545	031572	200 00 0 00 070253 		MOVE	[0]		;CLEAR AC
  2546	031573	204 00 0 00 070267 		MOVS	[ZZ]		;*MOVS SHOULD RESULT WITH A NON-ZERO WORD IN THE AC
  2547	031574	336 00 0 00 000000 		SKIPN			;SKIP HALT INSTRUCTION IF SET BIT IS NOT LOST IN SWAP.
  2548						STOP^
  2549	031575	254 04 0 00 031576 		HALT	.+1		;TEST FAILED IF PROGRAM HALTS HERE
  2550	031576	324 00 0 00 031577 		JUMPA	.+1		;IF TEST FAILS, CHANGE THIS INSTRUCTION (JUMPA .+1) TO
  2551									;JUMPA X (X IS THE ADDRESS OF THE FIRST INSTRUCTION
  2552									;IN THE SUBTEST) TO LOOP ON ERROR^
  2553
  2554					;**********
  2555
  2556					;THIS TEST VERIFIES THAT AR LT INPUT IS FUNCTIONING.  A WORD OF ALL ZER0S,
  2557					;EXCEPT FOR ONE ONE IN THE RIGHT HALF IS SWAPPED.
  2558					;THE AC IS CHECKED FOR ITS CONTENTS NON-ZERO.  THE TEST PASSES
  2559					;IF C(AC) IS NON-ZERO. THIS TEST IS REPEATED 18 TIMES SO THAT EACH BIT
  2560					;OF THE LEFT HALF OF THE AC IS TESTED WITH A 1.
  2561			005504		SN=SN+1
  2562			000010			ZZ=ZZ+ZZ
  2563						IFE	ZZ,<ZZ=1>
  2564	031577	200 00 0 00 070253 		MOVE	[0]		;CLEAR AC
  2565	031600	204 00 0 00 070270 		MOVS	[ZZ]		;*MOVS SHOULD RESULT WITH A NON-ZERO WORD IN THE AC
  2566	031601	336 00 0 00 000000 		SKIPN			;SKIP HALT INSTRUCTION IF SET BIT IS NOT LOST IN SWAP.
  2567						STOP^
  2568	031602	254 04 0 00 031603 		HALT	.+1		;TEST FAILED IF PROGRAM HALTS HERE
  2569	031603	324 00 0 00 031604 		JUMPA	.+1		;IF TEST FAILS, CHANGE THIS INSTRUCTION (JUMPA .+1) TO
  2570									;JUMPA X (X IS THE ADDRESS OF THE FIRST INSTRUCTION
  2571									;IN THE SUBTEST) TO LOOP ON ERROR^
  2572
  2573					;**********
  2574
  2575					;THIS TEST VERIFIES THAT AR LT INPUT IS FUNCTIONING.  A WORD OF ALL ZER0S,
  2576					;EXCEPT FOR ONE ONE IN THE RIGHT HALF IS SWAPPED.
  2577					;THE AC IS CHECKED FOR ITS CONTENTS NON-ZERO.  THE TEST PASSES
  2578					;IF C(AC) IS NON-ZERO. THIS TEST IS REPEATED 18 TIMES SO THAT EACH BIT
  2579					;OF THE LEFT HALF OF THE AC IS TESTED WITH A 1.
  2580			005505		SN=SN+1
  2581			000020			ZZ=ZZ+ZZ
  2582						IFE	ZZ,<ZZ=1>
  2583	031604	200 00 0 00 070253 		MOVE	[0]		;CLEAR AC
  2584	031605	204 00 0 00 070271 		MOVS	[ZZ]		;*MOVS SHOULD RESULT WITH A NON-ZERO WORD IN THE AC
  2585	031606	336 00 0 00 000000 		SKIPN			;SKIP HALT INSTRUCTION IF SET BIT IS NOT LOST IN SWAP.
  2586						STOP^
  2587	031607	254 04 0 00 031610 		HALT	.+1		;TEST FAILED IF PROGRAM HALTS HERE
  2588	031610	324 00 0 00 031611 		JUMPA	.+1		;IF TEST FAILS, CHANGE THIS INSTRUCTION (JUMPA .+1) TO
  2589									;JUMPA X (X IS THE ADDRESS OF THE FIRST INSTRUCTION
DFKAA PDP-10 KL10 BASIC INSTRUCTION DIAGNOSTIC (1) VER 0,2	MACRO %53B(1254)-4 11:50 11-Nov-24 Page 22-2
DFKAA1	MAC	13-Jan-89 10:22		TEST OF SKIP, FULL WORD TRANSFER AND HALF WORD TRANSFER INSTRUCTIONS

  2590									;IN THE SUBTEST) TO LOOP ON ERROR^
  2591
  2592					;**********
  2593
  2594					;THIS TEST VERIFIES THAT AR LT INPUT IS FUNCTIONING.  A WORD OF ALL ZER0S,
  2595					;EXCEPT FOR ONE ONE IN THE RIGHT HALF IS SWAPPED.
  2596					;THE AC IS CHECKED FOR ITS CONTENTS NON-ZERO.  THE TEST PASSES
  2597					;IF C(AC) IS NON-ZERO. THIS TEST IS REPEATED 18 TIMES SO THAT EACH BIT
  2598					;OF THE LEFT HALF OF THE AC IS TESTED WITH A 1.
  2599			005506		SN=SN+1
  2600			000040			ZZ=ZZ+ZZ
  2601						IFE	ZZ,<ZZ=1>
  2602	031611	200 00 0 00 070253 		MOVE	[0]		;CLEAR AC
  2603	031612	204 00 0 00 070272 		MOVS	[ZZ]		;*MOVS SHOULD RESULT WITH A NON-ZERO WORD IN THE AC
  2604	031613	336 00 0 00 000000 		SKIPN			;SKIP HALT INSTRUCTION IF SET BIT IS NOT LOST IN SWAP.
  2605						STOP^
  2606	031614	254 04 0 00 031615 		HALT	.+1		;TEST FAILED IF PROGRAM HALTS HERE
  2607	031615	324 00 0 00 031616 		JUMPA	.+1		;IF TEST FAILS, CHANGE THIS INSTRUCTION (JUMPA .+1) TO
  2608									;JUMPA X (X IS THE ADDRESS OF THE FIRST INSTRUCTION
  2609									;IN THE SUBTEST) TO LOOP ON ERROR^
  2610
  2611					;**********
  2612
  2613					;THIS TEST VERIFIES THAT AR LT INPUT IS FUNCTIONING.  A WORD OF ALL ZER0S,
  2614					;EXCEPT FOR ONE ONE IN THE RIGHT HALF IS SWAPPED.
  2615					;THE AC IS CHECKED FOR ITS CONTENTS NON-ZERO.  THE TEST PASSES
  2616					;IF C(AC) IS NON-ZERO. THIS TEST IS REPEATED 18 TIMES SO THAT EACH BIT
  2617					;OF THE LEFT HALF OF THE AC IS TESTED WITH A 1.
  2618			005507		SN=SN+1
  2619			000100			ZZ=ZZ+ZZ
  2620						IFE	ZZ,<ZZ=1>
  2621	031616	200 00 0 00 070253 		MOVE	[0]		;CLEAR AC
  2622	031617	204 00 0 00 070273 		MOVS	[ZZ]		;*MOVS SHOULD RESULT WITH A NON-ZERO WORD IN THE AC
  2623	031620	336 00 0 00 000000 		SKIPN			;SKIP HALT INSTRUCTION IF SET BIT IS NOT LOST IN SWAP.
  2624						STOP^
  2625	031621	254 04 0 00 031622 		HALT	.+1		;TEST FAILED IF PROGRAM HALTS HERE
  2626	031622	324 00 0 00 031623 		JUMPA	.+1		;IF TEST FAILS, CHANGE THIS INSTRUCTION (JUMPA .+1) TO
  2627									;JUMPA X (X IS THE ADDRESS OF THE FIRST INSTRUCTION
  2628									;IN THE SUBTEST) TO LOOP ON ERROR^
  2629
  2630					;**********
  2631
  2632					;THIS TEST VERIFIES THAT AR LT INPUT IS FUNCTIONING.  A WORD OF ALL ZER0S,
  2633					;EXCEPT FOR ONE ONE IN THE RIGHT HALF IS SWAPPED.
  2634					;THE AC IS CHECKED FOR ITS CONTENTS NON-ZERO.  THE TEST PASSES
  2635					;IF C(AC) IS NON-ZERO. THIS TEST IS REPEATED 18 TIMES SO THAT EACH BIT
  2636					;OF THE LEFT HALF OF THE AC IS TESTED WITH A 1.
  2637			005510		SN=SN+1
  2638			000200			ZZ=ZZ+ZZ
  2639						IFE	ZZ,<ZZ=1>
  2640	031623	200 00 0 00 070253 		MOVE	[0]		;CLEAR AC
  2641	031624	204 00 0 00 070274 		MOVS	[ZZ]		;*MOVS SHOULD RESULT WITH A NON-ZERO WORD IN THE AC
  2642	031625	336 00 0 00 000000 		SKIPN			;SKIP HALT INSTRUCTION IF SET BIT IS NOT LOST IN SWAP.
  2643						STOP^
  2644	031626	254 04 0 00 031627 		HALT	.+1		;TEST FAILED IF PROGRAM HALTS HERE
DFKAA PDP-10 KL10 BASIC INSTRUCTION DIAGNOSTIC (1) VER 0,2	MACRO %53B(1254)-4 11:50 11-Nov-24 Page 22-3
DFKAA1	MAC	13-Jan-89 10:22		TEST OF SKIP, FULL WORD TRANSFER AND HALF WORD TRANSFER INSTRUCTIONS

  2645	031627	324 00 0 00 031630 		JUMPA	.+1		;IF TEST FAILS, CHANGE THIS INSTRUCTION (JUMPA .+1) TO
  2646									;JUMPA X (X IS THE ADDRESS OF THE FIRST INSTRUCTION
  2647									;IN THE SUBTEST) TO LOOP ON ERROR^
  2648
  2649					;**********
  2650
  2651					;THIS TEST VERIFIES THAT AR LT INPUT IS FUNCTIONING.  A WORD OF ALL ZER0S,
  2652					;EXCEPT FOR ONE ONE IN THE RIGHT HALF IS SWAPPED.
  2653					;THE AC IS CHECKED FOR ITS CONTENTS NON-ZERO.  THE TEST PASSES
  2654					;IF C(AC) IS NON-ZERO. THIS TEST IS REPEATED 18 TIMES SO THAT EACH BIT
  2655					;OF THE LEFT HALF OF THE AC IS TESTED WITH A 1.
  2656			005511		SN=SN+1
  2657			000400			ZZ=ZZ+ZZ
  2658						IFE	ZZ,<ZZ=1>
  2659	031630	200 00 0 00 070253 		MOVE	[0]		;CLEAR AC
  2660	031631	204 00 0 00 070275 		MOVS	[ZZ]		;*MOVS SHOULD RESULT WITH A NON-ZERO WORD IN THE AC
  2661	031632	336 00 0 00 000000 		SKIPN			;SKIP HALT INSTRUCTION IF SET BIT IS NOT LOST IN SWAP.
  2662						STOP^
  2663	031633	254 04 0 00 031634 		HALT	.+1		;TEST FAILED IF PROGRAM HALTS HERE
  2664	031634	324 00 0 00 031635 		JUMPA	.+1		;IF TEST FAILS, CHANGE THIS INSTRUCTION (JUMPA .+1) TO
  2665									;JUMPA X (X IS THE ADDRESS OF THE FIRST INSTRUCTION
  2666									;IN THE SUBTEST) TO LOOP ON ERROR^
  2667
  2668					;**********
  2669
  2670					;THIS TEST VERIFIES THAT AR LT INPUT IS FUNCTIONING.  A WORD OF ALL ZER0S,
  2671					;EXCEPT FOR ONE ONE IN THE RIGHT HALF IS SWAPPED.
  2672					;THE AC IS CHECKED FOR ITS CONTENTS NON-ZERO.  THE TEST PASSES
  2673					;IF C(AC) IS NON-ZERO. THIS TEST IS REPEATED 18 TIMES SO THAT EACH BIT
  2674					;OF THE LEFT HALF OF THE AC IS TESTED WITH A 1.
  2675			005512		SN=SN+1
  2676			001000			ZZ=ZZ+ZZ
  2677						IFE	ZZ,<ZZ=1>
  2678	031635	200 00 0 00 070253 		MOVE	[0]		;CLEAR AC
  2679	031636	204 00 0 00 070276 		MOVS	[ZZ]		;*MOVS SHOULD RESULT WITH A NON-ZERO WORD IN THE AC
  2680	031637	336 00 0 00 000000 		SKIPN			;SKIP HALT INSTRUCTION IF SET BIT IS NOT LOST IN SWAP.
  2681						STOP^
  2682	031640	254 04 0 00 031641 		HALT	.+1		;TEST FAILED IF PROGRAM HALTS HERE
  2683	031641	324 00 0 00 031642 		JUMPA	.+1		;IF TEST FAILS, CHANGE THIS INSTRUCTION (JUMPA .+1) TO
  2684									;JUMPA X (X IS THE ADDRESS OF THE FIRST INSTRUCTION
  2685									;IN THE SUBTEST) TO LOOP ON ERROR^
  2686
  2687					;**********
  2688
  2689					;THIS TEST VERIFIES THAT AR LT INPUT IS FUNCTIONING.  A WORD OF ALL ZER0S,
  2690					;EXCEPT FOR ONE ONE IN THE RIGHT HALF IS SWAPPED.
  2691					;THE AC IS CHECKED FOR ITS CONTENTS NON-ZERO.  THE TEST PASSES
  2692					;IF C(AC) IS NON-ZERO. THIS TEST IS REPEATED 18 TIMES SO THAT EACH BIT
  2693					;OF THE LEFT HALF OF THE AC IS TESTED WITH A 1.
  2694			005513		SN=SN+1
  2695			002000			ZZ=ZZ+ZZ
  2696						IFE	ZZ,<ZZ=1>
  2697	031642	200 00 0 00 070253 		MOVE	[0]		;CLEAR AC
  2698	031643	204 00 0 00 070277 		MOVS	[ZZ]		;*MOVS SHOULD RESULT WITH A NON-ZERO WORD IN THE AC
  2699	031644	336 00 0 00 000000 		SKIPN			;SKIP HALT INSTRUCTION IF SET BIT IS NOT LOST IN SWAP.
DFKAA PDP-10 KL10 BASIC INSTRUCTION DIAGNOSTIC (1) VER 0,2	MACRO %53B(1254)-4 11:50 11-Nov-24 Page 22-4
DFKAA1	MAC	13-Jan-89 10:22		TEST OF SKIP, FULL WORD TRANSFER AND HALF WORD TRANSFER INSTRUCTIONS

  2700						STOP^
  2701	031645	254 04 0 00 031646 		HALT	.+1		;TEST FAILED IF PROGRAM HALTS HERE
  2702	031646	324 00 0 00 031647 		JUMPA	.+1		;IF TEST FAILS, CHANGE THIS INSTRUCTION (JUMPA .+1) TO
  2703									;JUMPA X (X IS THE ADDRESS OF THE FIRST INSTRUCTION
  2704									;IN THE SUBTEST) TO LOOP ON ERROR^
  2705
  2706					;**********
  2707
  2708					;THIS TEST VERIFIES THAT AR LT INPUT IS FUNCTIONING.  A WORD OF ALL ZER0S,
  2709					;EXCEPT FOR ONE ONE IN THE RIGHT HALF IS SWAPPED.
  2710					;THE AC IS CHECKED FOR ITS CONTENTS NON-ZERO.  THE TEST PASSES
  2711					;IF C(AC) IS NON-ZERO. THIS TEST IS REPEATED 18 TIMES SO THAT EACH BIT
  2712					;OF THE LEFT HALF OF THE AC IS TESTED WITH A 1.
  2713			005514		SN=SN+1
  2714			004000			ZZ=ZZ+ZZ
  2715						IFE	ZZ,<ZZ=1>
  2716	031647	200 00 0 00 070253 		MOVE	[0]		;CLEAR AC
  2717	031650	204 00 0 00 070300 		MOVS	[ZZ]		;*MOVS SHOULD RESULT WITH A NON-ZERO WORD IN THE AC
  2718	031651	336 00 0 00 000000 		SKIPN			;SKIP HALT INSTRUCTION IF SET BIT IS NOT LOST IN SWAP.
  2719						STOP^
  2720	031652	254 04 0 00 031653 		HALT	.+1		;TEST FAILED IF PROGRAM HALTS HERE
  2721	031653	324 00 0 00 031654 		JUMPA	.+1		;IF TEST FAILS, CHANGE THIS INSTRUCTION (JUMPA .+1) TO
  2722									;JUMPA X (X IS THE ADDRESS OF THE FIRST INSTRUCTION
  2723									;IN THE SUBTEST) TO LOOP ON ERROR^
  2724
  2725					;**********
  2726
  2727					;THIS TEST VERIFIES THAT AR LT INPUT IS FUNCTIONING.  A WORD OF ALL ZER0S,
  2728					;EXCEPT FOR ONE ONE IN THE RIGHT HALF IS SWAPPED.
  2729					;THE AC IS CHECKED FOR ITS CONTENTS NON-ZERO.  THE TEST PASSES
  2730					;IF C(AC) IS NON-ZERO. THIS TEST IS REPEATED 18 TIMES SO THAT EACH BIT
  2731					;OF THE LEFT HALF OF THE AC IS TESTED WITH A 1.
  2732			005515		SN=SN+1
  2733			010000			ZZ=ZZ+ZZ
  2734						IFE	ZZ,<ZZ=1>
  2735	031654	200 00 0 00 070253 		MOVE	[0]		;CLEAR AC
  2736	031655	204 00 0 00 070301 		MOVS	[ZZ]		;*MOVS SHOULD RESULT WITH A NON-ZERO WORD IN THE AC
  2737	031656	336 00 0 00 000000 		SKIPN			;SKIP HALT INSTRUCTION IF SET BIT IS NOT LOST IN SWAP.
  2738						STOP^
  2739	031657	254 04 0 00 031660 		HALT	.+1		;TEST FAILED IF PROGRAM HALTS HERE
  2740	031660	324 00 0 00 031661 		JUMPA	.+1		;IF TEST FAILS, CHANGE THIS INSTRUCTION (JUMPA .+1) TO
  2741									;JUMPA X (X IS THE ADDRESS OF THE FIRST INSTRUCTION
  2742									;IN THE SUBTEST) TO LOOP ON ERROR^
  2743
  2744					;**********
  2745
  2746					;THIS TEST VERIFIES THAT AR LT INPUT IS FUNCTIONING.  A WORD OF ALL ZER0S,
  2747					;EXCEPT FOR ONE ONE IN THE RIGHT HALF IS SWAPPED.
  2748					;THE AC IS CHECKED FOR ITS CONTENTS NON-ZERO.  THE TEST PASSES
  2749					;IF C(AC) IS NON-ZERO. THIS TEST IS REPEATED 18 TIMES SO THAT EACH BIT
  2750					;OF THE LEFT HALF OF THE AC IS TESTED WITH A 1.
  2751			005516		SN=SN+1
  2752			020000			ZZ=ZZ+ZZ
  2753						IFE	ZZ,<ZZ=1>
  2754	031661	200 00 0 00 070253 		MOVE	[0]		;CLEAR AC
DFKAA PDP-10 KL10 BASIC INSTRUCTION DIAGNOSTIC (1) VER 0,2	MACRO %53B(1254)-4 11:50 11-Nov-24 Page 22-5
DFKAA1	MAC	13-Jan-89 10:22		TEST OF SKIP, FULL WORD TRANSFER AND HALF WORD TRANSFER INSTRUCTIONS

  2755	031662	204 00 0 00 070302 		MOVS	[ZZ]		;*MOVS SHOULD RESULT WITH A NON-ZERO WORD IN THE AC
  2756	031663	336 00 0 00 000000 		SKIPN			;SKIP HALT INSTRUCTION IF SET BIT IS NOT LOST IN SWAP.
  2757						STOP^
  2758	031664	254 04 0 00 031665 		HALT	.+1		;TEST FAILED IF PROGRAM HALTS HERE
  2759	031665	324 00 0 00 031666 		JUMPA	.+1		;IF TEST FAILS, CHANGE THIS INSTRUCTION (JUMPA .+1) TO
  2760									;JUMPA X (X IS THE ADDRESS OF THE FIRST INSTRUCTION
  2761									;IN THE SUBTEST) TO LOOP ON ERROR^
  2762
  2763					;**********
  2764
  2765					;THIS TEST VERIFIES THAT AR LT INPUT IS FUNCTIONING.  A WORD OF ALL ZER0S,
  2766					;EXCEPT FOR ONE ONE IN THE RIGHT HALF IS SWAPPED.
  2767					;THE AC IS CHECKED FOR ITS CONTENTS NON-ZERO.  THE TEST PASSES
  2768					;IF C(AC) IS NON-ZERO. THIS TEST IS REPEATED 18 TIMES SO THAT EACH BIT
  2769					;OF THE LEFT HALF OF THE AC IS TESTED WITH A 1.
  2770			005517		SN=SN+1
  2771			040000			ZZ=ZZ+ZZ
  2772						IFE	ZZ,<ZZ=1>
  2773	031666	200 00 0 00 070253 		MOVE	[0]		;CLEAR AC
  2774	031667	204 00 0 00 070303 		MOVS	[ZZ]		;*MOVS SHOULD RESULT WITH A NON-ZERO WORD IN THE AC
  2775	031670	336 00 0 00 000000 		SKIPN			;SKIP HALT INSTRUCTION IF SET BIT IS NOT LOST IN SWAP.
  2776						STOP^
  2777	031671	254 04 0 00 031672 		HALT	.+1		;TEST FAILED IF PROGRAM HALTS HERE
  2778	031672	324 00 0 00 031673 		JUMPA	.+1		;IF TEST FAILS, CHANGE THIS INSTRUCTION (JUMPA .+1) TO
  2779									;JUMPA X (X IS THE ADDRESS OF THE FIRST INSTRUCTION
  2780									;IN THE SUBTEST) TO LOOP ON ERROR^
  2781
  2782					;**********
  2783
  2784					;THIS TEST VERIFIES THAT AR LT INPUT IS FUNCTIONING.  A WORD OF ALL ZER0S,
  2785					;EXCEPT FOR ONE ONE IN THE RIGHT HALF IS SWAPPED.
  2786					;THE AC IS CHECKED FOR ITS CONTENTS NON-ZERO.  THE TEST PASSES
  2787					;IF C(AC) IS NON-ZERO. THIS TEST IS REPEATED 18 TIMES SO THAT EACH BIT
  2788					;OF THE LEFT HALF OF THE AC IS TESTED WITH A 1.
  2789			005520		SN=SN+1
  2790			100000			ZZ=ZZ+ZZ
  2791						IFE	ZZ,<ZZ=1>
  2792	031673	200 00 0 00 070253 		MOVE	[0]		;CLEAR AC
  2793	031674	204 00 0 00 070304 		MOVS	[ZZ]		;*MOVS SHOULD RESULT WITH A NON-ZERO WORD IN THE AC
  2794	031675	336 00 0 00 000000 		SKIPN			;SKIP HALT INSTRUCTION IF SET BIT IS NOT LOST IN SWAP.
  2795						STOP^
  2796	031676	254 04 0 00 031677 		HALT	.+1		;TEST FAILED IF PROGRAM HALTS HERE
  2797	031677	324 00 0 00 031700 		JUMPA	.+1		;IF TEST FAILS, CHANGE THIS INSTRUCTION (JUMPA .+1) TO
  2798									;JUMPA X (X IS THE ADDRESS OF THE FIRST INSTRUCTION
  2799									;IN THE SUBTEST) TO LOOP ON ERROR^
  2800
  2801					;**********
  2802
  2803					;THIS TEST VERIFIES THAT AR LT INPUT IS FUNCTIONING.  A WORD OF ALL ZER0S,
  2804					;EXCEPT FOR ONE ONE IN THE RIGHT HALF IS SWAPPED.
  2805					;THE AC IS CHECKED FOR ITS CONTENTS NON-ZERO.  THE TEST PASSES
  2806					;IF C(AC) IS NON-ZERO. THIS TEST IS REPEATED 18 TIMES SO THAT EACH BIT
  2807					;OF THE LEFT HALF OF THE AC IS TESTED WITH A 1.
  2808			005521		SN=SN+1
  2809			200000			ZZ=ZZ+ZZ
DFKAA PDP-10 KL10 BASIC INSTRUCTION DIAGNOSTIC (1) VER 0,2	MACRO %53B(1254)-4 11:50 11-Nov-24 Page 22-6
DFKAA1	MAC	13-Jan-89 10:22		TEST OF SKIP, FULL WORD TRANSFER AND HALF WORD TRANSFER INSTRUCTIONS

  2810						IFE	ZZ,<ZZ=1>
  2811	031700	200 00 0 00 070253 		MOVE	[0]		;CLEAR AC
  2812	031701	204 00 0 00 070305 		MOVS	[ZZ]		;*MOVS SHOULD RESULT WITH A NON-ZERO WORD IN THE AC
  2813	031702	336 00 0 00 000000 		SKIPN			;SKIP HALT INSTRUCTION IF SET BIT IS NOT LOST IN SWAP.
  2814						STOP^
  2815	031703	254 04 0 00 031704 		HALT	.+1		;TEST FAILED IF PROGRAM HALTS HERE
  2816	031704	324 00 0 00 031705 		JUMPA	.+1		;IF TEST FAILS, CHANGE THIS INSTRUCTION (JUMPA .+1) TO
  2817									;JUMPA X (X IS THE ADDRESS OF THE FIRST INSTRUCTION
  2818									;IN THE SUBTEST) TO LOOP ON ERROR^
  2819
  2820					;**********
  2821
  2822					;THIS TEST VERIFIES THAT AR LT INPUT IS FUNCTIONING.  A WORD OF ALL ZER0S,
  2823					;EXCEPT FOR ONE ONE IN THE RIGHT HALF IS SWAPPED.
  2824					;THE AC IS CHECKED FOR ITS CONTENTS NON-ZERO.  THE TEST PASSES
  2825					;IF C(AC) IS NON-ZERO. THIS TEST IS REPEATED 18 TIMES SO THAT EACH BIT
  2826					;OF THE LEFT HALF OF THE AC IS TESTED WITH A 1.
  2827			005522		SN=SN+1
  2828			400000			ZZ=ZZ+ZZ
  2829						IFE	ZZ,<ZZ=1>
  2830	031705	200 00 0 00 070253 		MOVE	[0]		;CLEAR AC
  2831	031706	204 00 0 00 070306 		MOVS	[ZZ]		;*MOVS SHOULD RESULT WITH A NON-ZERO WORD IN THE AC
  2832	031707	336 00 0 00 000000 		SKIPN			;SKIP HALT INSTRUCTION IF SET BIT IS NOT LOST IN SWAP.
  2833						STOP^
  2834	031710	254 04 0 00 031711 		HALT	.+1		;TEST FAILED IF PROGRAM HALTS HERE
  2835	031711	324 00 0 00 031712 		JUMPA	.+1		;IF TEST FAILS, CHANGE THIS INSTRUCTION (JUMPA .+1) TO
  2836									;JUMPA X (X IS THE ADDRESS OF THE FIRST INSTRUCTION
  2837									;IN THE SUBTEST) TO LOOP ON ERROR^
  2838
  2839					;**********
  2840
  2841			005600		SN=5600
  2842
  2843					A5600:	REPEAT	^D18,
  2844					<;THIS TEST VERIFIES THAT AR RT INPUT IS FUNCTIONING.  A WORD OF ALL
  2845					;ZEROS, EXCEPT FOR ONE ONE IN THE LEFT HALF IS SWAPPED.  THE AC IS
  2846					;CHECKED FOR ITS CONTENTS NON-ZERO.  THE TEST PASSES IF C(AC) IS
  2847					;NON-ZERO.  THIS TEST IS REPEATED 18 TIMES SO THAT EACH BIT OF THE RIGHT
  2848					;HALF OF THE AC IS TESTED WITH A 1.
  2849
  2850					SN=SN+1
  2851						ZZ=ZZ+ZZ
  2852						MOVE	[0]		;CLEAR AC
  2853						MOVS	[ZZ]		;*MOVS SHOULD RESULT WITH A NON-ZERO WORD IN THE AC
  2854						SKIPN			;SKIP HALT INSTRUCTION IF SET BIT IS NOT LOST IN SWAP.
  2855						STOP
  2856
  2857					;**********
  2858					>
  2859					;THIS TEST VERIFIES THAT AR RT INPUT IS FUNCTIONING.  A WORD OF ALL
  2860					;ZEROS, EXCEPT FOR ONE ONE IN THE LEFT HALF IS SWAPPED.  THE AC IS
  2861					;CHECKED FOR ITS CONTENTS NON-ZERO.  THE TEST PASSES IF C(AC) IS
  2862					;NON-ZERO.  THIS TEST IS REPEATED 18 TIMES SO THAT EACH BIT OF THE RIGHT
  2863					;HALF OF THE AC IS TESTED WITH A 1.
  2864
DFKAA PDP-10 KL10 BASIC INSTRUCTION DIAGNOSTIC (1) VER 0,2	MACRO %53B(1254)-4 11:50 11-Nov-24 Page 22-7
DFKAA1	MAC	13-Jan-89 10:22		TEST OF SKIP, FULL WORD TRANSFER AND HALF WORD TRANSFER INSTRUCTIONS

  2865			005601		SN=SN+1
  2866		000001	000000			ZZ=ZZ+ZZ
  2867	031712	200 00 0 00 070253 		MOVE	[0]		;CLEAR AC
  2868	031713	204 00 0 00 070307 		MOVS	[ZZ]		;*MOVS SHOULD RESULT WITH A NON-ZERO WORD IN THE AC
  2869	031714	336 00 0 00 000000 		SKIPN			;SKIP HALT INSTRUCTION IF SET BIT IS NOT LOST IN SWAP.
  2870						STOP^
  2871	031715	254 04 0 00 031716 		HALT	.+1		;TEST FAILED IF PROGRAM HALTS HERE
  2872	031716	324 00 0 00 031717 		JUMPA	.+1		;IF TEST FAILS, CHANGE THIS INSTRUCTION (JUMPA .+1) TO
  2873									;JUMPA X (X IS THE ADDRESS OF THE FIRST INSTRUCTION
  2874									;IN THE SUBTEST) TO LOOP ON ERROR^
  2875
  2876					;**********
  2877
  2878					;THIS TEST VERIFIES THAT AR RT INPUT IS FUNCTIONING.  A WORD OF ALL
  2879					;ZEROS, EXCEPT FOR ONE ONE IN THE LEFT HALF IS SWAPPED.  THE AC IS
  2880					;CHECKED FOR ITS CONTENTS NON-ZERO.  THE TEST PASSES IF C(AC) IS
  2881					;NON-ZERO.  THIS TEST IS REPEATED 18 TIMES SO THAT EACH BIT OF THE RIGHT
  2882					;HALF OF THE AC IS TESTED WITH A 1.
  2883
  2884			005602		SN=SN+1
  2885		000002	000000			ZZ=ZZ+ZZ
  2886	031717	200 00 0 00 070253 		MOVE	[0]		;CLEAR AC
  2887	031720	204 00 0 00 070310 		MOVS	[ZZ]		;*MOVS SHOULD RESULT WITH A NON-ZERO WORD IN THE AC
  2888	031721	336 00 0 00 000000 		SKIPN			;SKIP HALT INSTRUCTION IF SET BIT IS NOT LOST IN SWAP.
  2889						STOP^
  2890	031722	254 04 0 00 031723 		HALT	.+1		;TEST FAILED IF PROGRAM HALTS HERE
  2891	031723	324 00 0 00 031724 		JUMPA	.+1		;IF TEST FAILS, CHANGE THIS INSTRUCTION (JUMPA .+1) TO
  2892									;JUMPA X (X IS THE ADDRESS OF THE FIRST INSTRUCTION
  2893									;IN THE SUBTEST) TO LOOP ON ERROR^
  2894
  2895					;**********
  2896
  2897					;THIS TEST VERIFIES THAT AR RT INPUT IS FUNCTIONING.  A WORD OF ALL
  2898					;ZEROS, EXCEPT FOR ONE ONE IN THE LEFT HALF IS SWAPPED.  THE AC IS
  2899					;CHECKED FOR ITS CONTENTS NON-ZERO.  THE TEST PASSES IF C(AC) IS
  2900					;NON-ZERO.  THIS TEST IS REPEATED 18 TIMES SO THAT EACH BIT OF THE RIGHT
  2901					;HALF OF THE AC IS TESTED WITH A 1.
  2902
  2903			005603		SN=SN+1
  2904		000004	000000			ZZ=ZZ+ZZ
  2905	031724	200 00 0 00 070253 		MOVE	[0]		;CLEAR AC
  2906	031725	204 00 0 00 070311 		MOVS	[ZZ]		;*MOVS SHOULD RESULT WITH A NON-ZERO WORD IN THE AC
  2907	031726	336 00 0 00 000000 		SKIPN			;SKIP HALT INSTRUCTION IF SET BIT IS NOT LOST IN SWAP.
  2908						STOP^
  2909	031727	254 04 0 00 031730 		HALT	.+1		;TEST FAILED IF PROGRAM HALTS HERE
  2910	031730	324 00 0 00 031731 		JUMPA	.+1		;IF TEST FAILS, CHANGE THIS INSTRUCTION (JUMPA .+1) TO
  2911									;JUMPA X (X IS THE ADDRESS OF THE FIRST INSTRUCTION
  2912									;IN THE SUBTEST) TO LOOP ON ERROR^
  2913
  2914					;**********
  2915
  2916					;THIS TEST VERIFIES THAT AR RT INPUT IS FUNCTIONING.  A WORD OF ALL
  2917					;ZEROS, EXCEPT FOR ONE ONE IN THE LEFT HALF IS SWAPPED.  THE AC IS
  2918					;CHECKED FOR ITS CONTENTS NON-ZERO.  THE TEST PASSES IF C(AC) IS
  2919					;NON-ZERO.  THIS TEST IS REPEATED 18 TIMES SO THAT EACH BIT OF THE RIGHT
DFKAA PDP-10 KL10 BASIC INSTRUCTION DIAGNOSTIC (1) VER 0,2	MACRO %53B(1254)-4 11:50 11-Nov-24 Page 22-8
DFKAA1	MAC	13-Jan-89 10:22		TEST OF SKIP, FULL WORD TRANSFER AND HALF WORD TRANSFER INSTRUCTIONS

  2920					;HALF OF THE AC IS TESTED WITH A 1.
  2921
  2922			005604		SN=SN+1
  2923		000010	000000			ZZ=ZZ+ZZ
  2924	031731	200 00 0 00 070253 		MOVE	[0]		;CLEAR AC
  2925	031732	204 00 0 00 070312 		MOVS	[ZZ]		;*MOVS SHOULD RESULT WITH A NON-ZERO WORD IN THE AC
  2926	031733	336 00 0 00 000000 		SKIPN			;SKIP HALT INSTRUCTION IF SET BIT IS NOT LOST IN SWAP.
  2927						STOP^
  2928	031734	254 04 0 00 031735 		HALT	.+1		;TEST FAILED IF PROGRAM HALTS HERE
  2929	031735	324 00 0 00 031736 		JUMPA	.+1		;IF TEST FAILS, CHANGE THIS INSTRUCTION (JUMPA .+1) TO
  2930									;JUMPA X (X IS THE ADDRESS OF THE FIRST INSTRUCTION
  2931									;IN THE SUBTEST) TO LOOP ON ERROR^
  2932
  2933					;**********
  2934
  2935					;THIS TEST VERIFIES THAT AR RT INPUT IS FUNCTIONING.  A WORD OF ALL
  2936					;ZEROS, EXCEPT FOR ONE ONE IN THE LEFT HALF IS SWAPPED.  THE AC IS
  2937					;CHECKED FOR ITS CONTENTS NON-ZERO.  THE TEST PASSES IF C(AC) IS
  2938					;NON-ZERO.  THIS TEST IS REPEATED 18 TIMES SO THAT EACH BIT OF THE RIGHT
  2939					;HALF OF THE AC IS TESTED WITH A 1.
  2940
  2941			005605		SN=SN+1
  2942		000020	000000			ZZ=ZZ+ZZ
  2943	031736	200 00 0 00 070253 		MOVE	[0]		;CLEAR AC
  2944	031737	204 00 0 00 070313 		MOVS	[ZZ]		;*MOVS SHOULD RESULT WITH A NON-ZERO WORD IN THE AC
  2945	031740	336 00 0 00 000000 		SKIPN			;SKIP HALT INSTRUCTION IF SET BIT IS NOT LOST IN SWAP.
  2946						STOP^
  2947	031741	254 04 0 00 031742 		HALT	.+1		;TEST FAILED IF PROGRAM HALTS HERE
  2948	031742	324 00 0 00 031743 		JUMPA	.+1		;IF TEST FAILS, CHANGE THIS INSTRUCTION (JUMPA .+1) TO
  2949									;JUMPA X (X IS THE ADDRESS OF THE FIRST INSTRUCTION
  2950									;IN THE SUBTEST) TO LOOP ON ERROR^
  2951
  2952					;**********
  2953
  2954					;THIS TEST VERIFIES THAT AR RT INPUT IS FUNCTIONING.  A WORD OF ALL
  2955					;ZEROS, EXCEPT FOR ONE ONE IN THE LEFT HALF IS SWAPPED.  THE AC IS
  2956					;CHECKED FOR ITS CONTENTS NON-ZERO.  THE TEST PASSES IF C(AC) IS
  2957					;NON-ZERO.  THIS TEST IS REPEATED 18 TIMES SO THAT EACH BIT OF THE RIGHT
  2958					;HALF OF THE AC IS TESTED WITH A 1.
  2959
  2960			005606		SN=SN+1
  2961		000040	000000			ZZ=ZZ+ZZ
  2962	031743	200 00 0 00 070253 		MOVE	[0]		;CLEAR AC
  2963	031744	204 00 0 00 070314 		MOVS	[ZZ]		;*MOVS SHOULD RESULT WITH A NON-ZERO WORD IN THE AC
  2964	031745	336 00 0 00 000000 		SKIPN			;SKIP HALT INSTRUCTION IF SET BIT IS NOT LOST IN SWAP.
  2965						STOP^
  2966	031746	254 04 0 00 031747 		HALT	.+1		;TEST FAILED IF PROGRAM HALTS HERE
  2967	031747	324 00 0 00 031750 		JUMPA	.+1		;IF TEST FAILS, CHANGE THIS INSTRUCTION (JUMPA .+1) TO
  2968									;JUMPA X (X IS THE ADDRESS OF THE FIRST INSTRUCTION
  2969									;IN THE SUBTEST) TO LOOP ON ERROR^
  2970
  2971					;**********
  2972
  2973					;THIS TEST VERIFIES THAT AR RT INPUT IS FUNCTIONING.  A WORD OF ALL
  2974					;ZEROS, EXCEPT FOR ONE ONE IN THE LEFT HALF IS SWAPPED.  THE AC IS
DFKAA PDP-10 KL10 BASIC INSTRUCTION DIAGNOSTIC (1) VER 0,2	MACRO %53B(1254)-4 11:50 11-Nov-24 Page 22-9
DFKAA1	MAC	13-Jan-89 10:22		TEST OF SKIP, FULL WORD TRANSFER AND HALF WORD TRANSFER INSTRUCTIONS

  2975					;CHECKED FOR ITS CONTENTS NON-ZERO.  THE TEST PASSES IF C(AC) IS
  2976					;NON-ZERO.  THIS TEST IS REPEATED 18 TIMES SO THAT EACH BIT OF THE RIGHT
  2977					;HALF OF THE AC IS TESTED WITH A 1.
  2978
  2979			005607		SN=SN+1
  2980		000100	000000			ZZ=ZZ+ZZ
  2981	031750	200 00 0 00 070253 		MOVE	[0]		;CLEAR AC
  2982	031751	204 00 0 00 070315 		MOVS	[ZZ]		;*MOVS SHOULD RESULT WITH A NON-ZERO WORD IN THE AC
  2983	031752	336 00 0 00 000000 		SKIPN			;SKIP HALT INSTRUCTION IF SET BIT IS NOT LOST IN SWAP.
  2984						STOP^
  2985	031753	254 04 0 00 031754 		HALT	.+1		;TEST FAILED IF PROGRAM HALTS HERE
  2986	031754	324 00 0 00 031755 		JUMPA	.+1		;IF TEST FAILS, CHANGE THIS INSTRUCTION (JUMPA .+1) TO
  2987									;JUMPA X (X IS THE ADDRESS OF THE FIRST INSTRUCTION
  2988									;IN THE SUBTEST) TO LOOP ON ERROR^
  2989
  2990					;**********
  2991
  2992					;THIS TEST VERIFIES THAT AR RT INPUT IS FUNCTIONING.  A WORD OF ALL
  2993					;ZEROS, EXCEPT FOR ONE ONE IN THE LEFT HALF IS SWAPPED.  THE AC IS
  2994					;CHECKED FOR ITS CONTENTS NON-ZERO.  THE TEST PASSES IF C(AC) IS
  2995					;NON-ZERO.  THIS TEST IS REPEATED 18 TIMES SO THAT EACH BIT OF THE RIGHT
  2996					;HALF OF THE AC IS TESTED WITH A 1.
  2997
  2998			005610		SN=SN+1
  2999		000200	000000			ZZ=ZZ+ZZ
  3000	031755	200 00 0 00 070253 		MOVE	[0]		;CLEAR AC
  3001	031756	204 00 0 00 070316 		MOVS	[ZZ]		;*MOVS SHOULD RESULT WITH A NON-ZERO WORD IN THE AC
  3002	031757	336 00 0 00 000000 		SKIPN			;SKIP HALT INSTRUCTION IF SET BIT IS NOT LOST IN SWAP.
  3003						STOP^
  3004	031760	254 04 0 00 031761 		HALT	.+1		;TEST FAILED IF PROGRAM HALTS HERE
  3005	031761	324 00 0 00 031762 		JUMPA	.+1		;IF TEST FAILS, CHANGE THIS INSTRUCTION (JUMPA .+1) TO
  3006									;JUMPA X (X IS THE ADDRESS OF THE FIRST INSTRUCTION
  3007									;IN THE SUBTEST) TO LOOP ON ERROR^
  3008
  3009					;**********
  3010
  3011					;THIS TEST VERIFIES THAT AR RT INPUT IS FUNCTIONING.  A WORD OF ALL
  3012					;ZEROS, EXCEPT FOR ONE ONE IN THE LEFT HALF IS SWAPPED.  THE AC IS
  3013					;CHECKED FOR ITS CONTENTS NON-ZERO.  THE TEST PASSES IF C(AC) IS
  3014					;NON-ZERO.  THIS TEST IS REPEATED 18 TIMES SO THAT EACH BIT OF THE RIGHT
  3015					;HALF OF THE AC IS TESTED WITH A 1.
  3016
  3017			005611		SN=SN+1
  3018		000400	000000			ZZ=ZZ+ZZ
  3019	031762	200 00 0 00 070253 		MOVE	[0]		;CLEAR AC
  3020	031763	204 00 0 00 070264 		MOVS	[ZZ]		;*MOVS SHOULD RESULT WITH A NON-ZERO WORD IN THE AC
  3021	031764	336 00 0 00 000000 		SKIPN			;SKIP HALT INSTRUCTION IF SET BIT IS NOT LOST IN SWAP.
  3022						STOP^
  3023	031765	254 04 0 00 031766 		HALT	.+1		;TEST FAILED IF PROGRAM HALTS HERE
  3024	031766	324 00 0 00 031767 		JUMPA	.+1		;IF TEST FAILS, CHANGE THIS INSTRUCTION (JUMPA .+1) TO
  3025									;JUMPA X (X IS THE ADDRESS OF THE FIRST INSTRUCTION
  3026									;IN THE SUBTEST) TO LOOP ON ERROR^
  3027
  3028					;**********
  3029
DFKAA PDP-10 KL10 BASIC INSTRUCTION DIAGNOSTIC (1) VER 0,2	MACRO %53B(1254)-4 11:50 11-Nov-24 Page 22-10
DFKAA1	MAC	13-Jan-89 10:22		TEST OF SKIP, FULL WORD TRANSFER AND HALF WORD TRANSFER INSTRUCTIONS

  3030					;THIS TEST VERIFIES THAT AR RT INPUT IS FUNCTIONING.  A WORD OF ALL
  3031					;ZEROS, EXCEPT FOR ONE ONE IN THE LEFT HALF IS SWAPPED.  THE AC IS
  3032					;CHECKED FOR ITS CONTENTS NON-ZERO.  THE TEST PASSES IF C(AC) IS
  3033					;NON-ZERO.  THIS TEST IS REPEATED 18 TIMES SO THAT EACH BIT OF THE RIGHT
  3034					;HALF OF THE AC IS TESTED WITH A 1.
  3035
  3036			005612		SN=SN+1
  3037		001000	000000			ZZ=ZZ+ZZ
  3038	031767	200 00 0 00 070253 		MOVE	[0]		;CLEAR AC
  3039	031770	204 00 0 00 070317 		MOVS	[ZZ]		;*MOVS SHOULD RESULT WITH A NON-ZERO WORD IN THE AC
  3040	031771	336 00 0 00 000000 		SKIPN			;SKIP HALT INSTRUCTION IF SET BIT IS NOT LOST IN SWAP.
  3041						STOP^
  3042	031772	254 04 0 00 031773 		HALT	.+1		;TEST FAILED IF PROGRAM HALTS HERE
  3043	031773	324 00 0 00 031774 		JUMPA	.+1		;IF TEST FAILS, CHANGE THIS INSTRUCTION (JUMPA .+1) TO
  3044									;JUMPA X (X IS THE ADDRESS OF THE FIRST INSTRUCTION
  3045									;IN THE SUBTEST) TO LOOP ON ERROR^
  3046
  3047					;**********
  3048
  3049					;THIS TEST VERIFIES THAT AR RT INPUT IS FUNCTIONING.  A WORD OF ALL
  3050					;ZEROS, EXCEPT FOR ONE ONE IN THE LEFT HALF IS SWAPPED.  THE AC IS
  3051					;CHECKED FOR ITS CONTENTS NON-ZERO.  THE TEST PASSES IF C(AC) IS
  3052					;NON-ZERO.  THIS TEST IS REPEATED 18 TIMES SO THAT EACH BIT OF THE RIGHT
  3053					;HALF OF THE AC IS TESTED WITH A 1.
  3054
  3055			005613		SN=SN+1
  3056		002000	000000			ZZ=ZZ+ZZ
  3057	031774	200 00 0 00 070253 		MOVE	[0]		;CLEAR AC
  3058	031775	204 00 0 00 070320 		MOVS	[ZZ]		;*MOVS SHOULD RESULT WITH A NON-ZERO WORD IN THE AC
  3059	031776	336 00 0 00 000000 		SKIPN			;SKIP HALT INSTRUCTION IF SET BIT IS NOT LOST IN SWAP.
  3060						STOP^
  3061	031777	254 04 0 00 032000 		HALT	.+1		;TEST FAILED IF PROGRAM HALTS HERE
  3062	032000	324 00 0 00 032001 		JUMPA	.+1		;IF TEST FAILS, CHANGE THIS INSTRUCTION (JUMPA .+1) TO
  3063									;JUMPA X (X IS THE ADDRESS OF THE FIRST INSTRUCTION
  3064									;IN THE SUBTEST) TO LOOP ON ERROR^
  3065
  3066					;**********
  3067
  3068					;THIS TEST VERIFIES THAT AR RT INPUT IS FUNCTIONING.  A WORD OF ALL
  3069					;ZEROS, EXCEPT FOR ONE ONE IN THE LEFT HALF IS SWAPPED.  THE AC IS
  3070					;CHECKED FOR ITS CONTENTS NON-ZERO.  THE TEST PASSES IF C(AC) IS
  3071					;NON-ZERO.  THIS TEST IS REPEATED 18 TIMES SO THAT EACH BIT OF THE RIGHT
  3072					;HALF OF THE AC IS TESTED WITH A 1.
  3073
  3074			005614		SN=SN+1
  3075		004000	000000			ZZ=ZZ+ZZ
  3076	032001	200 00 0 00 070253 		MOVE	[0]		;CLEAR AC
  3077	032002	204 00 0 00 070321 		MOVS	[ZZ]		;*MOVS SHOULD RESULT WITH A NON-ZERO WORD IN THE AC
  3078	032003	336 00 0 00 000000 		SKIPN			;SKIP HALT INSTRUCTION IF SET BIT IS NOT LOST IN SWAP.
  3079						STOP^
  3080	032004	254 04 0 00 032005 		HALT	.+1		;TEST FAILED IF PROGRAM HALTS HERE
  3081	032005	324 00 0 00 032006 		JUMPA	.+1		;IF TEST FAILS, CHANGE THIS INSTRUCTION (JUMPA .+1) TO
  3082									;JUMPA X (X IS THE ADDRESS OF THE FIRST INSTRUCTION
  3083									;IN THE SUBTEST) TO LOOP ON ERROR^
  3084
DFKAA PDP-10 KL10 BASIC INSTRUCTION DIAGNOSTIC (1) VER 0,2	MACRO %53B(1254)-4 11:50 11-Nov-24 Page 22-11
DFKAA1	MAC	13-Jan-89 10:22		TEST OF SKIP, FULL WORD TRANSFER AND HALF WORD TRANSFER INSTRUCTIONS

  3085					;**********
  3086
  3087					;THIS TEST VERIFIES THAT AR RT INPUT IS FUNCTIONING.  A WORD OF ALL
  3088					;ZEROS, EXCEPT FOR ONE ONE IN THE LEFT HALF IS SWAPPED.  THE AC IS
  3089					;CHECKED FOR ITS CONTENTS NON-ZERO.  THE TEST PASSES IF C(AC) IS
  3090					;NON-ZERO.  THIS TEST IS REPEATED 18 TIMES SO THAT EACH BIT OF THE RIGHT
  3091					;HALF OF THE AC IS TESTED WITH A 1.
  3092
  3093			005615		SN=SN+1
  3094		010000	000000			ZZ=ZZ+ZZ
  3095	032006	200 00 0 00 070253 		MOVE	[0]		;CLEAR AC
  3096	032007	204 00 0 00 070322 		MOVS	[ZZ]		;*MOVS SHOULD RESULT WITH A NON-ZERO WORD IN THE AC
  3097	032010	336 00 0 00 000000 		SKIPN			;SKIP HALT INSTRUCTION IF SET BIT IS NOT LOST IN SWAP.
  3098						STOP^
  3099	032011	254 04 0 00 032012 		HALT	.+1		;TEST FAILED IF PROGRAM HALTS HERE
  3100	032012	324 00 0 00 032013 		JUMPA	.+1		;IF TEST FAILS, CHANGE THIS INSTRUCTION (JUMPA .+1) TO
  3101									;JUMPA X (X IS THE ADDRESS OF THE FIRST INSTRUCTION
  3102									;IN THE SUBTEST) TO LOOP ON ERROR^
  3103
  3104					;**********
  3105
  3106					;THIS TEST VERIFIES THAT AR RT INPUT IS FUNCTIONING.  A WORD OF ALL
  3107					;ZEROS, EXCEPT FOR ONE ONE IN THE LEFT HALF IS SWAPPED.  THE AC IS
  3108					;CHECKED FOR ITS CONTENTS NON-ZERO.  THE TEST PASSES IF C(AC) IS
  3109					;NON-ZERO.  THIS TEST IS REPEATED 18 TIMES SO THAT EACH BIT OF THE RIGHT
  3110					;HALF OF THE AC IS TESTED WITH A 1.
  3111
  3112			005616		SN=SN+1
  3113		020000	000000			ZZ=ZZ+ZZ
  3114	032013	200 00 0 00 070253 		MOVE	[0]		;CLEAR AC
  3115	032014	204 00 0 00 070323 		MOVS	[ZZ]		;*MOVS SHOULD RESULT WITH A NON-ZERO WORD IN THE AC
  3116	032015	336 00 0 00 000000 		SKIPN			;SKIP HALT INSTRUCTION IF SET BIT IS NOT LOST IN SWAP.
  3117						STOP^
  3118	032016	254 04 0 00 032017 		HALT	.+1		;TEST FAILED IF PROGRAM HALTS HERE
  3119	032017	324 00 0 00 032020 		JUMPA	.+1		;IF TEST FAILS, CHANGE THIS INSTRUCTION (JUMPA .+1) TO
  3120									;JUMPA X (X IS THE ADDRESS OF THE FIRST INSTRUCTION
  3121									;IN THE SUBTEST) TO LOOP ON ERROR^
  3122
  3123					;**********
  3124
  3125					;THIS TEST VERIFIES THAT AR RT INPUT IS FUNCTIONING.  A WORD OF ALL
  3126					;ZEROS, EXCEPT FOR ONE ONE IN THE LEFT HALF IS SWAPPED.  THE AC IS
  3127					;CHECKED FOR ITS CONTENTS NON-ZERO.  THE TEST PASSES IF C(AC) IS
  3128					;NON-ZERO.  THIS TEST IS REPEATED 18 TIMES SO THAT EACH BIT OF THE RIGHT
  3129					;HALF OF THE AC IS TESTED WITH A 1.
  3130
  3131			005617		SN=SN+1
  3132		040000	000000			ZZ=ZZ+ZZ
  3133	032020	200 00 0 00 070253 		MOVE	[0]		;CLEAR AC
  3134	032021	204 00 0 00 070324 		MOVS	[ZZ]		;*MOVS SHOULD RESULT WITH A NON-ZERO WORD IN THE AC
  3135	032022	336 00 0 00 000000 		SKIPN			;SKIP HALT INSTRUCTION IF SET BIT IS NOT LOST IN SWAP.
  3136						STOP^
  3137	032023	254 04 0 00 032024 		HALT	.+1		;TEST FAILED IF PROGRAM HALTS HERE
  3138	032024	324 00 0 00 032025 		JUMPA	.+1		;IF TEST FAILS, CHANGE THIS INSTRUCTION (JUMPA .+1) TO
  3139									;JUMPA X (X IS THE ADDRESS OF THE FIRST INSTRUCTION
DFKAA PDP-10 KL10 BASIC INSTRUCTION DIAGNOSTIC (1) VER 0,2	MACRO %53B(1254)-4 11:50 11-Nov-24 Page 22-12
DFKAA1	MAC	13-Jan-89 10:22		TEST OF SKIP, FULL WORD TRANSFER AND HALF WORD TRANSFER INSTRUCTIONS

  3140									;IN THE SUBTEST) TO LOOP ON ERROR^
  3141
  3142					;**********
  3143
  3144					;THIS TEST VERIFIES THAT AR RT INPUT IS FUNCTIONING.  A WORD OF ALL
  3145					;ZEROS, EXCEPT FOR ONE ONE IN THE LEFT HALF IS SWAPPED.  THE AC IS
  3146					;CHECKED FOR ITS CONTENTS NON-ZERO.  THE TEST PASSES IF C(AC) IS
  3147					;NON-ZERO.  THIS TEST IS REPEATED 18 TIMES SO THAT EACH BIT OF THE RIGHT
  3148					;HALF OF THE AC IS TESTED WITH A 1.
  3149
  3150			005620		SN=SN+1
  3151		100000	000000			ZZ=ZZ+ZZ
  3152	032025	200 00 0 00 070253 		MOVE	[0]		;CLEAR AC
  3153	032026	204 00 0 00 070325 		MOVS	[ZZ]		;*MOVS SHOULD RESULT WITH A NON-ZERO WORD IN THE AC
  3154	032027	336 00 0 00 000000 		SKIPN			;SKIP HALT INSTRUCTION IF SET BIT IS NOT LOST IN SWAP.
  3155						STOP^
  3156	032030	254 04 0 00 032031 		HALT	.+1		;TEST FAILED IF PROGRAM HALTS HERE
  3157	032031	324 00 0 00 032032 		JUMPA	.+1		;IF TEST FAILS, CHANGE THIS INSTRUCTION (JUMPA .+1) TO
  3158									;JUMPA X (X IS THE ADDRESS OF THE FIRST INSTRUCTION
  3159									;IN THE SUBTEST) TO LOOP ON ERROR^
  3160
  3161					;**********
  3162
  3163					;THIS TEST VERIFIES THAT AR RT INPUT IS FUNCTIONING.  A WORD OF ALL
  3164					;ZEROS, EXCEPT FOR ONE ONE IN THE LEFT HALF IS SWAPPED.  THE AC IS
  3165					;CHECKED FOR ITS CONTENTS NON-ZERO.  THE TEST PASSES IF C(AC) IS
  3166					;NON-ZERO.  THIS TEST IS REPEATED 18 TIMES SO THAT EACH BIT OF THE RIGHT
  3167					;HALF OF THE AC IS TESTED WITH A 1.
  3168
  3169			005621		SN=SN+1
  3170		200000	000000			ZZ=ZZ+ZZ
  3171	032032	200 00 0 00 070253 		MOVE	[0]		;CLEAR AC
  3172	032033	204 00 0 00 070326 		MOVS	[ZZ]		;*MOVS SHOULD RESULT WITH A NON-ZERO WORD IN THE AC
  3173	032034	336 00 0 00 000000 		SKIPN			;SKIP HALT INSTRUCTION IF SET BIT IS NOT LOST IN SWAP.
  3174						STOP^
  3175	032035	254 04 0 00 032036 		HALT	.+1		;TEST FAILED IF PROGRAM HALTS HERE
  3176	032036	324 00 0 00 032037 		JUMPA	.+1		;IF TEST FAILS, CHANGE THIS INSTRUCTION (JUMPA .+1) TO
  3177									;JUMPA X (X IS THE ADDRESS OF THE FIRST INSTRUCTION
  3178									;IN THE SUBTEST) TO LOOP ON ERROR^
  3179
  3180					;**********
  3181
  3182					;THIS TEST VERIFIES THAT AR RT INPUT IS FUNCTIONING.  A WORD OF ALL
  3183					;ZEROS, EXCEPT FOR ONE ONE IN THE LEFT HALF IS SWAPPED.  THE AC IS
  3184					;CHECKED FOR ITS CONTENTS NON-ZERO.  THE TEST PASSES IF C(AC) IS
  3185					;NON-ZERO.  THIS TEST IS REPEATED 18 TIMES SO THAT EACH BIT OF THE RIGHT
  3186					;HALF OF THE AC IS TESTED WITH A 1.
  3187
  3188			005622		SN=SN+1
  3189		400000	000000			ZZ=ZZ+ZZ
  3190	032037	200 00 0 00 070253 		MOVE	[0]		;CLEAR AC
  3191	032040	204 00 0 00 070256 		MOVS	[ZZ]		;*MOVS SHOULD RESULT WITH A NON-ZERO WORD IN THE AC
  3192	032041	336 00 0 00 000000 		SKIPN			;SKIP HALT INSTRUCTION IF SET BIT IS NOT LOST IN SWAP.
  3193						STOP^
  3194	032042	254 04 0 00 032043 		HALT	.+1		;TEST FAILED IF PROGRAM HALTS HERE
DFKAA PDP-10 KL10 BASIC INSTRUCTION DIAGNOSTIC (1) VER 0,2	MACRO %53B(1254)-4 11:50 11-Nov-24 Page 22-13
DFKAA1	MAC	13-Jan-89 10:22		TEST OF SKIP, FULL WORD TRANSFER AND HALF WORD TRANSFER INSTRUCTIONS

  3195	032043	324 00 0 00 032044 		JUMPA	.+1		;IF TEST FAILS, CHANGE THIS INSTRUCTION (JUMPA .+1) TO
  3196									;JUMPA X (X IS THE ADDRESS OF THE FIRST INSTRUCTION
  3197									;IN THE SUBTEST) TO LOOP ON ERROR^
  3198
  3199					;**********
  3200
DFKAA PDP-10 KL10 BASIC INSTRUCTION DIAGNOSTIC (1) VER 0,2	MACRO %53B(1254)-4 11:50 11-Nov-24 Page 23
DFKAA1	MAC	13-Jan-89 10:22		TEST OF BOOLEAN INSTRUCTIONS (SETM, SETZ, AND, XOR, EQV)

  3201					SUBTTL	TEST OF BOOLEAN INSTRUCTIONS (SETM, SETZ, AND, XOR, EQV)
  3202
  3203					;THIS TEST VERIFIES THAT SETM LOADS AC FROM E.  THE AC IS FIRST SET
  3204					;TO ZERO; THEN, SETM IS EXECUTED WITH ALL ONES IN E.  BIT 0 OF THE AC
  3205					;IS THEN CHECKED FOR A 1.
  3206
  3207	032044	200 00 0 00 070253 	A5700:	MOVE	[0]		;PRELOAD AC WITH ALL ZEROS
  3208	032045	414 00 0 00 070254 		SETM	[-1]		;*SETM SHOULD LOAD AC WITH ALL ONES
  3209	032046	331 00 0 00 000000 		SKIPL			;PASS TEST IF AC BIT 0 IS A ONE
  3210						STOP^
  3211	032047	254 04 0 00 032050 		HALT	.+1		;TEST FAILED IF PROGRAM HALTS HERE
  3212	032050	324 00 0 00 032051 		JUMPA	.+1		;IF TEST FAILS, CHANGE THIS INSTRUCTION (JUMPA .+1) TO
  3213									;JUMPA X (X IS THE ADDRESS OF THE FIRST INSTRUCTION
  3214									;IN THE SUBTEST) TO LOOP ON ERROR^
  3215					;FCE [F1], IR BOOLE [IR1], IRXX(0,5,12,17) [IR2]
  3216
  3217					;**********
  3218
  3219					;THIS TEST VERIFIES THAT SETM LOADS AC FROM E.  THE AC IS FIRST SET TO
  3220					;ALL ONES; THEN, SETM IS EXECUTED WITH ALL ZEROS IN E.  THE AC IS CHECKED
  3221					;FOR ALL ZEROS
  3222
  3223	032051	200 00 0 00 070254 	A6000:	MOVE	[-1]		;PRESET AC TO ALL ONES
  3224	032052	414 00 0 00 070253 		SETM	[0]		;*SETM SHOULD LOAD AC WITH ALL ONES
  3225	032053	332 00 0 00 000000 		SKIPE			;PASSES TEST IF C(AC) = 0
  3226						STOP^
  3227	032054	254 04 0 00 032055 		HALT	.+1		;TEST FAILED IF PROGRAM HALTS HERE
  3228	032055	324 00 0 00 032056 		JUMPA	.+1		;IF TEST FAILS, CHANGE THIS INSTRUCTION (JUMPA .+1) TO
  3229									;JUMPA X (X IS THE ADDRESS OF THE FIRST INSTRUCTION
  3230									;IN THE SUBTEST) TO LOOP ON ERROR^
  3231
  3232					;AD AR + EN [ADAP], AD AR + EN C[ADAP],
  3233					;F CYC ACT EN A[F1], IR BOOLE AD A +F[IR2],
  3234					;IR BOOLE [IR1], IRXX(1-3,6,11,15,16) [IR2]
  3235
  3236					;**********
  3237
  3238					;THIS TEST VERIFIES THAT SETZ LOADS TH AC WITH ALL ZEROS.  FIRST, A WORD
  3239					;OF ALL ZEROS IS LOADED INTO THE AC VIA A MOVE INSTC. THEN, SETZ IS
  3240					;EXECUTED.  THE AC IS CHECKED FOR ALL ZEROS.
  3241					;IF ANY BITS IN THE AC ARE SET, THE TEST FAILS.
  3242
  3243	032056	200 00 0 00 070253 	A6100:	MOVE	[0]		;RESET AC TO ALL ZEROS
  3244	032057	400 00 0 00 000000 		SETZ			;*SETZ SHOULD CLEAR THE AC
  3245	032060	332 00 0 00 000000 		SKIPE			;PASS TEST IF C(AC) = 0
  3246						STOP^
  3247	032061	254 04 0 00 032062 		HALT	.+1		;TEST FAILED IF PROGRAM HALTS HERE
  3248	032062	324 00 0 00 032063 		JUMPA	.+1		;IF TEST FAILS, CHANGE THIS INSTRUCTION (JUMPA .+1) TO
  3249									;JUMPA X (X IS THE ADDRESS OF THE FIRST INSTRUCTION
  3250									;IN THE SUBTEST) TO LOOP ON ERROR^
  3251
  3252					;AD MASK GEN EN [ADC1], AD MASK GEN F/F'S [ADC1]
  3253					;AD MASK EN B; F CYC ACT EN B[F1]; IRXX00 [IR1];
  3254					;IR BOOLE [IR1]
  3255
DFKAA PDP-10 KL10 BASIC INSTRUCTION DIAGNOSTIC (1) VER 0,2	MACRO %53B(1254)-4 11:50 11-Nov-24 Page 23-1
DFKAA1	MAC	13-Jan-89 10:22		TEST OF BOOLEAN INSTRUCTIONS (SETM, SETZ, AND, XOR, EQV)

  3256					;**********
DFKAA PDP-10 KL10 BASIC INSTRUCTION DIAGNOSTIC (1) VER 0,2	MACRO %53B(1254)-4 11:50 11-Nov-24 Page 24
DFKAA1	MAC	13-Jan-89 10:22		TEST OF BOOLEAN INSTRUCTIONS (SETM, SETZ, AND, XOR, EQV)

  3257					;THIS TEST VERIFIES THAT SETZ LOADS THE AC WITH ALL ZEROS.  FIRST,
  3258					;THE AC IS SET TO ALL ONES; THEN, SETZ IS EXECUTED.  THE AC IS THEN
  3259					;CHECKED FOR ALL ZEROS.  IF ANY BITS IN THE AC ARE SET, THE TEST FAILS.
  3260
  3261	032063	200 00 0 00 070254 	A6200:	MOVE	[-1]		;PRESET AC TO ALL ONES
  3262	032064	400 00 0 00 032064 		SETZ	.		;*SETZ SHOULD CLEAR THE AC
  3263	032065	332 00 0 00 000000 		SKIPE			;PASS TEST IF C(AC) = 0
  3264						STOP^
  3265	032066	254 04 0 00 032067 		HALT	.+1		;TEST FAILED IF PROGRAM HALTS HERE
  3266	032067	324 00 0 00 032070 		JUMPA	.+1		;IF TEST FAILS, CHANGE THIS INSTRUCTION (JUMPA .+1) TO
  3267									;JUMPA X (X IS THE ADDRESS OF THE FIRST INSTRUCTION
  3268									;IN THE SUBTEST) TO LOOP ON ERROR^
  3269
  3270					;AR AD EN [ARMA], AR AD ET2 EN [ARMA], IR BOOLE [IR]
  3271
  3272					;**********
  3273
  3274					;THIS TEST VERIFIES THAT THE AND INSTRUCTION OPERATING ON AN AC
  3275					;CONTAINING ALL ZEROS AND AN E CONTAINING ALL ZEROS RESULTS IN AN AC
  3276					;OF ALL ZEROS.  THE AC AND E ARE THE SAME IN THIS TEST.
  3277					;AC, E ARE LOADED WITH ZEROS; THEN, AND IS EXECUTED.  THE AC IS THEN
  3278					;CHECKED FOR ALL ZEROS.  IF ANY BITS IN THE AC ARE SET BY THE AND INSTRUCTION,
  3279					;THE TEST FAILS.
  3280
  3281
  3282	032070	200 00 0 00 070253 	A6300:	MOVE	[0]		;PRESET AC, E TO ALL ZEROS
  3283	032071	404 00 0 00 000000 		AND			;*AND SHOULD RESULT IN C(AC) = 0
  3284	032072	332 00 0 00 000000 		SKIPE			;PASS TEST IF C(AC) = 0
  3285						STOP^
  3286	032073	254 04 0 00 032074 		HALT	.+1		;TEST FAILED IF PROGRAM HALTS HERE
  3287	032074	324 00 0 00 032075 		JUMPA	.+1		;IF TEST FAILS, CHANGE THIS INSTRUCTION (JUMPA .+1) TO
  3288									;JUMPA X (X IS THE ADDRESS OF THE FIRST INSTRUCTION
  3289									;IN THE SUBTEST) TO LOOP ON ERROR^
  3290
  3291					;**********
  3292			006400		SN=6400
  3293			000000			ZZ=0
  3294
  3295					A6400:	REPEAT	^D36,
  3296					<;THIS TEST VERIFIES THAT IF ONE OF THE OPERANDS OF THE AND INSTRUCTION
  3297					;IS ZERO, THE RESULT WILL BE ZERO.  THIS TEST IS REPEATED 36 TIMES WITH
  3298					;ALL ZEROS IN THE AC EXCEPT FOR ONE ONE IN BIT X
  3299					;WHERE X TAKES ON INTEGER VALUES 0 THRU 35.  E CONTAINS ALL ZEROS.
  3300					;THE RESULT SHOULD BE ALL ZEROS IN THE AC.  IF C(AC) IS NON-ZERO,
  3301					;'AND' FAILED.  C(0) IS ALSO CHECKED FOR ALL ZEROS.  IF C(0) IS
  3302					;NON-ZERO, AC0 WAS CLOBBERED BY 'AND'.
  3303
  3304					SN=SN+1
  3305						ZZ=ZZ+ZZ
  3306						IFE	ZZ,<ZZ=1>
  3307						SETZ			;PRESET E TO ALL ZEROS
  3308						MOVE	1,[ZZ]		;LOAD AC WITH ALL ZEROS EXCEPT FOR A ONE IN BIT X
  3309									;WHERE X VARIES FROM 0 THRU 35
  3310						AND	1,0		;*AND SHOULD RESULT IN C(AC) = 0
  3311						SKIPE	1		;FAIL IF C(AC) NON-ZERO
DFKAA PDP-10 KL10 BASIC INSTRUCTION DIAGNOSTIC (1) VER 0,2	MACRO %53B(1254)-4 11:50 11-Nov-24 Page 24-1
DFKAA1	MAC	13-Jan-89 10:22		TEST OF BOOLEAN INSTRUCTIONS (SETM, SETZ, AND, XOR, EQV)

  3312						STOP
  3313						SKIPE	0		;FAIL IF C(0) IS NON-ZERO
  3314						STOP
  3315					;**********
  3316					>
  3317					;THIS TEST VERIFIES THAT IF ONE OF THE OPERANDS OF THE AND INSTRUCTION
  3318					;IS ZERO, THE RESULT WILL BE ZERO.  THIS TEST IS REPEATED 36 TIMES WITH
  3319					;ALL ZEROS IN THE AC EXCEPT FOR ONE ONE IN BIT X
  3320					;WHERE X TAKES ON INTEGER VALUES 0 THRU 35.  E CONTAINS ALL ZEROS.
  3321					;THE RESULT SHOULD BE ALL ZEROS IN THE AC.  IF C(AC) IS NON-ZERO,
  3322					;'AND' FAILED.  C(0) IS ALSO CHECKED FOR ALL ZEROS.  IF C(0) IS
  3323					;NON-ZERO, AC0 WAS CLOBBERED BY 'AND'.
  3324
  3325			006401		SN=SN+1
  3326			000000			ZZ=ZZ+ZZ
  3327			000001			IFE	ZZ,<ZZ=1>
  3328	032075	400 00 0 00 000000 		SETZ			;PRESET E TO ALL ZEROS
  3329	032076	200 01 0 00 070265 		MOVE	1,[ZZ]		;LOAD AC WITH ALL ZEROS EXCEPT FOR A ONE IN BIT X
  3330									;WHERE X VARIES FROM 0 THRU 35
  3331	032077	404 01 0 00 000000 		AND	1,0		;*AND SHOULD RESULT IN C(AC) = 0
  3332	032100	332 00 0 00 000001 		SKIPE	1		;FAIL IF C(AC) NON-ZERO
  3333						STOP^
  3334	032101	254 04 0 00 032102 		HALT	.+1		;TEST FAILED IF PROGRAM HALTS HERE
  3335	032102	324 00 0 00 032103 		JUMPA	.+1		;IF TEST FAILS, CHANGE THIS INSTRUCTION (JUMPA .+1) TO
  3336									;JUMPA X (X IS THE ADDRESS OF THE FIRST INSTRUCTION
  3337									;IN THE SUBTEST) TO LOOP ON ERROR^
  3338	032103	332 00 0 00 000000 		SKIPE	0		;FAIL IF C(0) IS NON-ZERO
  3339						STOP^
  3340	032104	254 04 0 00 032105 		HALT	.+1		;TEST FAILED IF PROGRAM HALTS HERE
  3341	032105	324 00 0 00 032106 		JUMPA	.+1		;IF TEST FAILS, CHANGE THIS INSTRUCTION (JUMPA .+1) TO
  3342									;JUMPA X (X IS THE ADDRESS OF THE FIRST INSTRUCTION
  3343									;IN THE SUBTEST) TO LOOP ON ERROR^
  3344					;**********
  3345
  3346					;THIS TEST VERIFIES THAT IF ONE OF THE OPERANDS OF THE AND INSTRUCTION
  3347					;IS ZERO, THE RESULT WILL BE ZERO.  THIS TEST IS REPEATED 36 TIMES WITH
  3348					;ALL ZEROS IN THE AC EXCEPT FOR ONE ONE IN BIT X
  3349					;WHERE X TAKES ON INTEGER VALUES 0 THRU 35.  E CONTAINS ALL ZEROS.
  3350					;THE RESULT SHOULD BE ALL ZEROS IN THE AC.  IF C(AC) IS NON-ZERO,
  3351					;'AND' FAILED.  C(0) IS ALSO CHECKED FOR ALL ZEROS.  IF C(0) IS
  3352					;NON-ZERO, AC0 WAS CLOBBERED BY 'AND'.
  3353
  3354			006402		SN=SN+1
  3355			000002			ZZ=ZZ+ZZ
  3356						IFE	ZZ,<ZZ=1>
  3357	032106	400 00 0 00 000000 		SETZ			;PRESET E TO ALL ZEROS
  3358	032107	200 01 0 00 070266 		MOVE	1,[ZZ]		;LOAD AC WITH ALL ZEROS EXCEPT FOR A ONE IN BIT X
  3359									;WHERE X VARIES FROM 0 THRU 35
  3360	032110	404 01 0 00 000000 		AND	1,0		;*AND SHOULD RESULT IN C(AC) = 0
  3361	032111	332 00 0 00 000001 		SKIPE	1		;FAIL IF C(AC) NON-ZERO
  3362						STOP^
  3363	032112	254 04 0 00 032113 		HALT	.+1		;TEST FAILED IF PROGRAM HALTS HERE
  3364	032113	324 00 0 00 032114 		JUMPA	.+1		;IF TEST FAILS, CHANGE THIS INSTRUCTION (JUMPA .+1) TO
  3365									;JUMPA X (X IS THE ADDRESS OF THE FIRST INSTRUCTION
  3366									;IN THE SUBTEST) TO LOOP ON ERROR^
DFKAA PDP-10 KL10 BASIC INSTRUCTION DIAGNOSTIC (1) VER 0,2	MACRO %53B(1254)-4 11:50 11-Nov-24 Page 24-2
DFKAA1	MAC	13-Jan-89 10:22		TEST OF BOOLEAN INSTRUCTIONS (SETM, SETZ, AND, XOR, EQV)

  3367	032114	332 00 0 00 000000 		SKIPE	0		;FAIL IF C(0) IS NON-ZERO
  3368						STOP^
  3369	032115	254 04 0 00 032116 		HALT	.+1		;TEST FAILED IF PROGRAM HALTS HERE
  3370	032116	324 00 0 00 032117 		JUMPA	.+1		;IF TEST FAILS, CHANGE THIS INSTRUCTION (JUMPA .+1) TO
  3371									;JUMPA X (X IS THE ADDRESS OF THE FIRST INSTRUCTION
  3372									;IN THE SUBTEST) TO LOOP ON ERROR^
  3373					;**********
  3374
  3375					;THIS TEST VERIFIES THAT IF ONE OF THE OPERANDS OF THE AND INSTRUCTION
  3376					;IS ZERO, THE RESULT WILL BE ZERO.  THIS TEST IS REPEATED 36 TIMES WITH
  3377					;ALL ZEROS IN THE AC EXCEPT FOR ONE ONE IN BIT X
  3378					;WHERE X TAKES ON INTEGER VALUES 0 THRU 35.  E CONTAINS ALL ZEROS.
  3379					;THE RESULT SHOULD BE ALL ZEROS IN THE AC.  IF C(AC) IS NON-ZERO,
  3380					;'AND' FAILED.  C(0) IS ALSO CHECKED FOR ALL ZEROS.  IF C(0) IS
  3381					;NON-ZERO, AC0 WAS CLOBBERED BY 'AND'.
  3382
  3383			006403		SN=SN+1
  3384			000004			ZZ=ZZ+ZZ
  3385						IFE	ZZ,<ZZ=1>
  3386	032117	400 00 0 00 000000 		SETZ			;PRESET E TO ALL ZEROS
  3387	032120	200 01 0 00 070267 		MOVE	1,[ZZ]		;LOAD AC WITH ALL ZEROS EXCEPT FOR A ONE IN BIT X
  3388									;WHERE X VARIES FROM 0 THRU 35
  3389	032121	404 01 0 00 000000 		AND	1,0		;*AND SHOULD RESULT IN C(AC) = 0
  3390	032122	332 00 0 00 000001 		SKIPE	1		;FAIL IF C(AC) NON-ZERO
  3391						STOP^
  3392	032123	254 04 0 00 032124 		HALT	.+1		;TEST FAILED IF PROGRAM HALTS HERE
  3393	032124	324 00 0 00 032125 		JUMPA	.+1		;IF TEST FAILS, CHANGE THIS INSTRUCTION (JUMPA .+1) TO
  3394									;JUMPA X (X IS THE ADDRESS OF THE FIRST INSTRUCTION
  3395									;IN THE SUBTEST) TO LOOP ON ERROR^
  3396	032125	332 00 0 00 000000 		SKIPE	0		;FAIL IF C(0) IS NON-ZERO
  3397						STOP^
  3398	032126	254 04 0 00 032127 		HALT	.+1		;TEST FAILED IF PROGRAM HALTS HERE
  3399	032127	324 00 0 00 032130 		JUMPA	.+1		;IF TEST FAILS, CHANGE THIS INSTRUCTION (JUMPA .+1) TO
  3400									;JUMPA X (X IS THE ADDRESS OF THE FIRST INSTRUCTION
  3401									;IN THE SUBTEST) TO LOOP ON ERROR^
  3402					;**********
  3403
  3404					;THIS TEST VERIFIES THAT IF ONE OF THE OPERANDS OF THE AND INSTRUCTION
  3405					;IS ZERO, THE RESULT WILL BE ZERO.  THIS TEST IS REPEATED 36 TIMES WITH
  3406					;ALL ZEROS IN THE AC EXCEPT FOR ONE ONE IN BIT X
  3407					;WHERE X TAKES ON INTEGER VALUES 0 THRU 35.  E CONTAINS ALL ZEROS.
  3408					;THE RESULT SHOULD BE ALL ZEROS IN THE AC.  IF C(AC) IS NON-ZERO,
  3409					;'AND' FAILED.  C(0) IS ALSO CHECKED FOR ALL ZEROS.  IF C(0) IS
  3410					;NON-ZERO, AC0 WAS CLOBBERED BY 'AND'.
  3411
  3412			006404		SN=SN+1
  3413			000010			ZZ=ZZ+ZZ
  3414						IFE	ZZ,<ZZ=1>
  3415	032130	400 00 0 00 000000 		SETZ			;PRESET E TO ALL ZEROS
  3416	032131	200 01 0 00 070270 		MOVE	1,[ZZ]		;LOAD AC WITH ALL ZEROS EXCEPT FOR A ONE IN BIT X
  3417									;WHERE X VARIES FROM 0 THRU 35
  3418	032132	404 01 0 00 000000 		AND	1,0		;*AND SHOULD RESULT IN C(AC) = 0
  3419	032133	332 00 0 00 000001 		SKIPE	1		;FAIL IF C(AC) NON-ZERO
  3420						STOP^
  3421	032134	254 04 0 00 032135 		HALT	.+1		;TEST FAILED IF PROGRAM HALTS HERE
DFKAA PDP-10 KL10 BASIC INSTRUCTION DIAGNOSTIC (1) VER 0,2	MACRO %53B(1254)-4 11:50 11-Nov-24 Page 24-3
DFKAA1	MAC	13-Jan-89 10:22		TEST OF BOOLEAN INSTRUCTIONS (SETM, SETZ, AND, XOR, EQV)

  3422	032135	324 00 0 00 032136 		JUMPA	.+1		;IF TEST FAILS, CHANGE THIS INSTRUCTION (JUMPA .+1) TO
  3423									;JUMPA X (X IS THE ADDRESS OF THE FIRST INSTRUCTION
  3424									;IN THE SUBTEST) TO LOOP ON ERROR^
  3425	032136	332 00 0 00 000000 		SKIPE	0		;FAIL IF C(0) IS NON-ZERO
  3426						STOP^
  3427	032137	254 04 0 00 032140 		HALT	.+1		;TEST FAILED IF PROGRAM HALTS HERE
  3428	032140	324 00 0 00 032141 		JUMPA	.+1		;IF TEST FAILS, CHANGE THIS INSTRUCTION (JUMPA .+1) TO
  3429									;JUMPA X (X IS THE ADDRESS OF THE FIRST INSTRUCTION
  3430									;IN THE SUBTEST) TO LOOP ON ERROR^
  3431					;**********
  3432
  3433					;THIS TEST VERIFIES THAT IF ONE OF THE OPERANDS OF THE AND INSTRUCTION
  3434					;IS ZERO, THE RESULT WILL BE ZERO.  THIS TEST IS REPEATED 36 TIMES WITH
  3435					;ALL ZEROS IN THE AC EXCEPT FOR ONE ONE IN BIT X
  3436					;WHERE X TAKES ON INTEGER VALUES 0 THRU 35.  E CONTAINS ALL ZEROS.
  3437					;THE RESULT SHOULD BE ALL ZEROS IN THE AC.  IF C(AC) IS NON-ZERO,
  3438					;'AND' FAILED.  C(0) IS ALSO CHECKED FOR ALL ZEROS.  IF C(0) IS
  3439					;NON-ZERO, AC0 WAS CLOBBERED BY 'AND'.
  3440
  3441			006405		SN=SN+1
  3442			000020			ZZ=ZZ+ZZ
  3443						IFE	ZZ,<ZZ=1>
  3444	032141	400 00 0 00 000000 		SETZ			;PRESET E TO ALL ZEROS
  3445	032142	200 01 0 00 070271 		MOVE	1,[ZZ]		;LOAD AC WITH ALL ZEROS EXCEPT FOR A ONE IN BIT X
  3446									;WHERE X VARIES FROM 0 THRU 35
  3447	032143	404 01 0 00 000000 		AND	1,0		;*AND SHOULD RESULT IN C(AC) = 0
  3448	032144	332 00 0 00 000001 		SKIPE	1		;FAIL IF C(AC) NON-ZERO
  3449						STOP^
  3450	032145	254 04 0 00 032146 		HALT	.+1		;TEST FAILED IF PROGRAM HALTS HERE
  3451	032146	324 00 0 00 032147 		JUMPA	.+1		;IF TEST FAILS, CHANGE THIS INSTRUCTION (JUMPA .+1) TO
  3452									;JUMPA X (X IS THE ADDRESS OF THE FIRST INSTRUCTION
  3453									;IN THE SUBTEST) TO LOOP ON ERROR^
  3454	032147	332 00 0 00 000000 		SKIPE	0		;FAIL IF C(0) IS NON-ZERO
  3455						STOP^
  3456	032150	254 04 0 00 032151 		HALT	.+1		;TEST FAILED IF PROGRAM HALTS HERE
  3457	032151	324 00 0 00 032152 		JUMPA	.+1		;IF TEST FAILS, CHANGE THIS INSTRUCTION (JUMPA .+1) TO
  3458									;JUMPA X (X IS THE ADDRESS OF THE FIRST INSTRUCTION
  3459									;IN THE SUBTEST) TO LOOP ON ERROR^
  3460					;**********
  3461
  3462					;THIS TEST VERIFIES THAT IF ONE OF THE OPERANDS OF THE AND INSTRUCTION
  3463					;IS ZERO, THE RESULT WILL BE ZERO.  THIS TEST IS REPEATED 36 TIMES WITH
  3464					;ALL ZEROS IN THE AC EXCEPT FOR ONE ONE IN BIT X
  3465					;WHERE X TAKES ON INTEGER VALUES 0 THRU 35.  E CONTAINS ALL ZEROS.
  3466					;THE RESULT SHOULD BE ALL ZEROS IN THE AC.  IF C(AC) IS NON-ZERO,
  3467					;'AND' FAILED.  C(0) IS ALSO CHECKED FOR ALL ZEROS.  IF C(0) IS
  3468					;NON-ZERO, AC0 WAS CLOBBERED BY 'AND'.
  3469
  3470			006406		SN=SN+1
  3471			000040			ZZ=ZZ+ZZ
  3472						IFE	ZZ,<ZZ=1>
  3473	032152	400 00 0 00 000000 		SETZ			;PRESET E TO ALL ZEROS
  3474	032153	200 01 0 00 070272 		MOVE	1,[ZZ]		;LOAD AC WITH ALL ZEROS EXCEPT FOR A ONE IN BIT X
  3475									;WHERE X VARIES FROM 0 THRU 35
  3476	032154	404 01 0 00 000000 		AND	1,0		;*AND SHOULD RESULT IN C(AC) = 0
DFKAA PDP-10 KL10 BASIC INSTRUCTION DIAGNOSTIC (1) VER 0,2	MACRO %53B(1254)-4 11:50 11-Nov-24 Page 24-4
DFKAA1	MAC	13-Jan-89 10:22		TEST OF BOOLEAN INSTRUCTIONS (SETM, SETZ, AND, XOR, EQV)

  3477	032155	332 00 0 00 000001 		SKIPE	1		;FAIL IF C(AC) NON-ZERO
  3478						STOP^
  3479	032156	254 04 0 00 032157 		HALT	.+1		;TEST FAILED IF PROGRAM HALTS HERE
  3480	032157	324 00 0 00 032160 		JUMPA	.+1		;IF TEST FAILS, CHANGE THIS INSTRUCTION (JUMPA .+1) TO
  3481									;JUMPA X (X IS THE ADDRESS OF THE FIRST INSTRUCTION
  3482									;IN THE SUBTEST) TO LOOP ON ERROR^
  3483	032160	332 00 0 00 000000 		SKIPE	0		;FAIL IF C(0) IS NON-ZERO
  3484						STOP^
  3485	032161	254 04 0 00 032162 		HALT	.+1		;TEST FAILED IF PROGRAM HALTS HERE
  3486	032162	324 00 0 00 032163 		JUMPA	.+1		;IF TEST FAILS, CHANGE THIS INSTRUCTION (JUMPA .+1) TO
  3487									;JUMPA X (X IS THE ADDRESS OF THE FIRST INSTRUCTION
  3488									;IN THE SUBTEST) TO LOOP ON ERROR^
  3489					;**********
  3490
  3491					;THIS TEST VERIFIES THAT IF ONE OF THE OPERANDS OF THE AND INSTRUCTION
  3492					;IS ZERO, THE RESULT WILL BE ZERO.  THIS TEST IS REPEATED 36 TIMES WITH
  3493					;ALL ZEROS IN THE AC EXCEPT FOR ONE ONE IN BIT X
  3494					;WHERE X TAKES ON INTEGER VALUES 0 THRU 35.  E CONTAINS ALL ZEROS.
  3495					;THE RESULT SHOULD BE ALL ZEROS IN THE AC.  IF C(AC) IS NON-ZERO,
  3496					;'AND' FAILED.  C(0) IS ALSO CHECKED FOR ALL ZEROS.  IF C(0) IS
  3497					;NON-ZERO, AC0 WAS CLOBBERED BY 'AND'.
  3498
  3499			006407		SN=SN+1
  3500			000100			ZZ=ZZ+ZZ
  3501						IFE	ZZ,<ZZ=1>
  3502	032163	400 00 0 00 000000 		SETZ			;PRESET E TO ALL ZEROS
  3503	032164	200 01 0 00 070273 		MOVE	1,[ZZ]		;LOAD AC WITH ALL ZEROS EXCEPT FOR A ONE IN BIT X
  3504									;WHERE X VARIES FROM 0 THRU 35
  3505	032165	404 01 0 00 000000 		AND	1,0		;*AND SHOULD RESULT IN C(AC) = 0
  3506	032166	332 00 0 00 000001 		SKIPE	1		;FAIL IF C(AC) NON-ZERO
  3507						STOP^
  3508	032167	254 04 0 00 032170 		HALT	.+1		;TEST FAILED IF PROGRAM HALTS HERE
  3509	032170	324 00 0 00 032171 		JUMPA	.+1		;IF TEST FAILS, CHANGE THIS INSTRUCTION (JUMPA .+1) TO
  3510									;JUMPA X (X IS THE ADDRESS OF THE FIRST INSTRUCTION
  3511									;IN THE SUBTEST) TO LOOP ON ERROR^
  3512	032171	332 00 0 00 000000 		SKIPE	0		;FAIL IF C(0) IS NON-ZERO
  3513						STOP^
  3514	032172	254 04 0 00 032173 		HALT	.+1		;TEST FAILED IF PROGRAM HALTS HERE
  3515	032173	324 00 0 00 032174 		JUMPA	.+1		;IF TEST FAILS, CHANGE THIS INSTRUCTION (JUMPA .+1) TO
  3516									;JUMPA X (X IS THE ADDRESS OF THE FIRST INSTRUCTION
  3517									;IN THE SUBTEST) TO LOOP ON ERROR^
  3518					;**********
  3519
  3520					;THIS TEST VERIFIES THAT IF ONE OF THE OPERANDS OF THE AND INSTRUCTION
  3521					;IS ZERO, THE RESULT WILL BE ZERO.  THIS TEST IS REPEATED 36 TIMES WITH
  3522					;ALL ZEROS IN THE AC EXCEPT FOR ONE ONE IN BIT X
  3523					;WHERE X TAKES ON INTEGER VALUES 0 THRU 35.  E CONTAINS ALL ZEROS.
  3524					;THE RESULT SHOULD BE ALL ZEROS IN THE AC.  IF C(AC) IS NON-ZERO,
  3525					;'AND' FAILED.  C(0) IS ALSO CHECKED FOR ALL ZEROS.  IF C(0) IS
  3526					;NON-ZERO, AC0 WAS CLOBBERED BY 'AND'.
  3527
  3528			006410		SN=SN+1
  3529			000200			ZZ=ZZ+ZZ
  3530						IFE	ZZ,<ZZ=1>
  3531	032174	400 00 0 00 000000 		SETZ			;PRESET E TO ALL ZEROS
DFKAA PDP-10 KL10 BASIC INSTRUCTION DIAGNOSTIC (1) VER 0,2	MACRO %53B(1254)-4 11:50 11-Nov-24 Page 24-5
DFKAA1	MAC	13-Jan-89 10:22		TEST OF BOOLEAN INSTRUCTIONS (SETM, SETZ, AND, XOR, EQV)

  3532	032175	200 01 0 00 070274 		MOVE	1,[ZZ]		;LOAD AC WITH ALL ZEROS EXCEPT FOR A ONE IN BIT X
  3533									;WHERE X VARIES FROM 0 THRU 35
  3534	032176	404 01 0 00 000000 		AND	1,0		;*AND SHOULD RESULT IN C(AC) = 0
  3535	032177	332 00 0 00 000001 		SKIPE	1		;FAIL IF C(AC) NON-ZERO
  3536						STOP^
  3537	032200	254 04 0 00 032201 		HALT	.+1		;TEST FAILED IF PROGRAM HALTS HERE
  3538	032201	324 00 0 00 032202 		JUMPA	.+1		;IF TEST FAILS, CHANGE THIS INSTRUCTION (JUMPA .+1) TO
  3539									;JUMPA X (X IS THE ADDRESS OF THE FIRST INSTRUCTION
  3540									;IN THE SUBTEST) TO LOOP ON ERROR^
  3541	032202	332 00 0 00 000000 		SKIPE	0		;FAIL IF C(0) IS NON-ZERO
  3542						STOP^
  3543	032203	254 04 0 00 032204 		HALT	.+1		;TEST FAILED IF PROGRAM HALTS HERE
  3544	032204	324 00 0 00 032205 		JUMPA	.+1		;IF TEST FAILS, CHANGE THIS INSTRUCTION (JUMPA .+1) TO
  3545									;JUMPA X (X IS THE ADDRESS OF THE FIRST INSTRUCTION
  3546									;IN THE SUBTEST) TO LOOP ON ERROR^
  3547					;**********
  3548
  3549					;THIS TEST VERIFIES THAT IF ONE OF THE OPERANDS OF THE AND INSTRUCTION
  3550					;IS ZERO, THE RESULT WILL BE ZERO.  THIS TEST IS REPEATED 36 TIMES WITH
  3551					;ALL ZEROS IN THE AC EXCEPT FOR ONE ONE IN BIT X
  3552					;WHERE X TAKES ON INTEGER VALUES 0 THRU 35.  E CONTAINS ALL ZEROS.
  3553					;THE RESULT SHOULD BE ALL ZEROS IN THE AC.  IF C(AC) IS NON-ZERO,
  3554					;'AND' FAILED.  C(0) IS ALSO CHECKED FOR ALL ZEROS.  IF C(0) IS
  3555					;NON-ZERO, AC0 WAS CLOBBERED BY 'AND'.
  3556
  3557			006411		SN=SN+1
  3558			000400			ZZ=ZZ+ZZ
  3559						IFE	ZZ,<ZZ=1>
  3560	032205	400 00 0 00 000000 		SETZ			;PRESET E TO ALL ZEROS
  3561	032206	200 01 0 00 070275 		MOVE	1,[ZZ]		;LOAD AC WITH ALL ZEROS EXCEPT FOR A ONE IN BIT X
  3562									;WHERE X VARIES FROM 0 THRU 35
  3563	032207	404 01 0 00 000000 		AND	1,0		;*AND SHOULD RESULT IN C(AC) = 0
  3564	032210	332 00 0 00 000001 		SKIPE	1		;FAIL IF C(AC) NON-ZERO
  3565						STOP^
  3566	032211	254 04 0 00 032212 		HALT	.+1		;TEST FAILED IF PROGRAM HALTS HERE
  3567	032212	324 00 0 00 032213 		JUMPA	.+1		;IF TEST FAILS, CHANGE THIS INSTRUCTION (JUMPA .+1) TO
  3568									;JUMPA X (X IS THE ADDRESS OF THE FIRST INSTRUCTION
  3569									;IN THE SUBTEST) TO LOOP ON ERROR^
  3570	032213	332 00 0 00 000000 		SKIPE	0		;FAIL IF C(0) IS NON-ZERO
  3571						STOP^
  3572	032214	254 04 0 00 032215 		HALT	.+1		;TEST FAILED IF PROGRAM HALTS HERE
  3573	032215	324 00 0 00 032216 		JUMPA	.+1		;IF TEST FAILS, CHANGE THIS INSTRUCTION (JUMPA .+1) TO
  3574									;JUMPA X (X IS THE ADDRESS OF THE FIRST INSTRUCTION
  3575									;IN THE SUBTEST) TO LOOP ON ERROR^
  3576					;**********
  3577
  3578					;THIS TEST VERIFIES THAT IF ONE OF THE OPERANDS OF THE AND INSTRUCTION
  3579					;IS ZERO, THE RESULT WILL BE ZERO.  THIS TEST IS REPEATED 36 TIMES WITH
  3580					;ALL ZEROS IN THE AC EXCEPT FOR ONE ONE IN BIT X
  3581					;WHERE X TAKES ON INTEGER VALUES 0 THRU 35.  E CONTAINS ALL ZEROS.
  3582					;THE RESULT SHOULD BE ALL ZEROS IN THE AC.  IF C(AC) IS NON-ZERO,
  3583					;'AND' FAILED.  C(0) IS ALSO CHECKED FOR ALL ZEROS.  IF C(0) IS
  3584					;NON-ZERO, AC0 WAS CLOBBERED BY 'AND'.
  3585
  3586			006412		SN=SN+1
DFKAA PDP-10 KL10 BASIC INSTRUCTION DIAGNOSTIC (1) VER 0,2	MACRO %53B(1254)-4 11:50 11-Nov-24 Page 24-6
DFKAA1	MAC	13-Jan-89 10:22		TEST OF BOOLEAN INSTRUCTIONS (SETM, SETZ, AND, XOR, EQV)

  3587			001000			ZZ=ZZ+ZZ
  3588						IFE	ZZ,<ZZ=1>
  3589	032216	400 00 0 00 000000 		SETZ			;PRESET E TO ALL ZEROS
  3590	032217	200 01 0 00 070276 		MOVE	1,[ZZ]		;LOAD AC WITH ALL ZEROS EXCEPT FOR A ONE IN BIT X
  3591									;WHERE X VARIES FROM 0 THRU 35
  3592	032220	404 01 0 00 000000 		AND	1,0		;*AND SHOULD RESULT IN C(AC) = 0
  3593	032221	332 00 0 00 000001 		SKIPE	1		;FAIL IF C(AC) NON-ZERO
  3594						STOP^
  3595	032222	254 04 0 00 032223 		HALT	.+1		;TEST FAILED IF PROGRAM HALTS HERE
  3596	032223	324 00 0 00 032224 		JUMPA	.+1		;IF TEST FAILS, CHANGE THIS INSTRUCTION (JUMPA .+1) TO
  3597									;JUMPA X (X IS THE ADDRESS OF THE FIRST INSTRUCTION
  3598									;IN THE SUBTEST) TO LOOP ON ERROR^
  3599	032224	332 00 0 00 000000 		SKIPE	0		;FAIL IF C(0) IS NON-ZERO
  3600						STOP^
  3601	032225	254 04 0 00 032226 		HALT	.+1		;TEST FAILED IF PROGRAM HALTS HERE
  3602	032226	324 00 0 00 032227 		JUMPA	.+1		;IF TEST FAILS, CHANGE THIS INSTRUCTION (JUMPA .+1) TO
  3603									;JUMPA X (X IS THE ADDRESS OF THE FIRST INSTRUCTION
  3604									;IN THE SUBTEST) TO LOOP ON ERROR^
  3605					;**********
  3606
  3607					;THIS TEST VERIFIES THAT IF ONE OF THE OPERANDS OF THE AND INSTRUCTION
  3608					;IS ZERO, THE RESULT WILL BE ZERO.  THIS TEST IS REPEATED 36 TIMES WITH
  3609					;ALL ZEROS IN THE AC EXCEPT FOR ONE ONE IN BIT X
  3610					;WHERE X TAKES ON INTEGER VALUES 0 THRU 35.  E CONTAINS ALL ZEROS.
  3611					;THE RESULT SHOULD BE ALL ZEROS IN THE AC.  IF C(AC) IS NON-ZERO,
  3612					;'AND' FAILED.  C(0) IS ALSO CHECKED FOR ALL ZEROS.  IF C(0) IS
  3613					;NON-ZERO, AC0 WAS CLOBBERED BY 'AND'.
  3614
  3615			006413		SN=SN+1
  3616			002000			ZZ=ZZ+ZZ
  3617						IFE	ZZ,<ZZ=1>
  3618	032227	400 00 0 00 000000 		SETZ			;PRESET E TO ALL ZEROS
  3619	032230	200 01 0 00 070277 		MOVE	1,[ZZ]		;LOAD AC WITH ALL ZEROS EXCEPT FOR A ONE IN BIT X
  3620									;WHERE X VARIES FROM 0 THRU 35
  3621	032231	404 01 0 00 000000 		AND	1,0		;*AND SHOULD RESULT IN C(AC) = 0
  3622	032232	332 00 0 00 000001 		SKIPE	1		;FAIL IF C(AC) NON-ZERO
  3623						STOP^
  3624	032233	254 04 0 00 032234 		HALT	.+1		;TEST FAILED IF PROGRAM HALTS HERE
  3625	032234	324 00 0 00 032235 		JUMPA	.+1		;IF TEST FAILS, CHANGE THIS INSTRUCTION (JUMPA .+1) TO
  3626									;JUMPA X (X IS THE ADDRESS OF THE FIRST INSTRUCTION
  3627									;IN THE SUBTEST) TO LOOP ON ERROR^
  3628	032235	332 00 0 00 000000 		SKIPE	0		;FAIL IF C(0) IS NON-ZERO
  3629						STOP^
  3630	032236	254 04 0 00 032237 		HALT	.+1		;TEST FAILED IF PROGRAM HALTS HERE
  3631	032237	324 00 0 00 032240 		JUMPA	.+1		;IF TEST FAILS, CHANGE THIS INSTRUCTION (JUMPA .+1) TO
  3632									;JUMPA X (X IS THE ADDRESS OF THE FIRST INSTRUCTION
  3633									;IN THE SUBTEST) TO LOOP ON ERROR^
  3634					;**********
  3635
  3636					;THIS TEST VERIFIES THAT IF ONE OF THE OPERANDS OF THE AND INSTRUCTION
  3637					;IS ZERO, THE RESULT WILL BE ZERO.  THIS TEST IS REPEATED 36 TIMES WITH
  3638					;ALL ZEROS IN THE AC EXCEPT FOR ONE ONE IN BIT X
  3639					;WHERE X TAKES ON INTEGER VALUES 0 THRU 35.  E CONTAINS ALL ZEROS.
  3640					;THE RESULT SHOULD BE ALL ZEROS IN THE AC.  IF C(AC) IS NON-ZERO,
  3641					;'AND' FAILED.  C(0) IS ALSO CHECKED FOR ALL ZEROS.  IF C(0) IS
DFKAA PDP-10 KL10 BASIC INSTRUCTION DIAGNOSTIC (1) VER 0,2	MACRO %53B(1254)-4 11:50 11-Nov-24 Page 24-7
DFKAA1	MAC	13-Jan-89 10:22		TEST OF BOOLEAN INSTRUCTIONS (SETM, SETZ, AND, XOR, EQV)

  3642					;NON-ZERO, AC0 WAS CLOBBERED BY 'AND'.
  3643
  3644			006414		SN=SN+1
  3645			004000			ZZ=ZZ+ZZ
  3646						IFE	ZZ,<ZZ=1>
  3647	032240	400 00 0 00 000000 		SETZ			;PRESET E TO ALL ZEROS
  3648	032241	200 01 0 00 070300 		MOVE	1,[ZZ]		;LOAD AC WITH ALL ZEROS EXCEPT FOR A ONE IN BIT X
  3649									;WHERE X VARIES FROM 0 THRU 35
  3650	032242	404 01 0 00 000000 		AND	1,0		;*AND SHOULD RESULT IN C(AC) = 0
  3651	032243	332 00 0 00 000001 		SKIPE	1		;FAIL IF C(AC) NON-ZERO
  3652						STOP^
  3653	032244	254 04 0 00 032245 		HALT	.+1		;TEST FAILED IF PROGRAM HALTS HERE
  3654	032245	324 00 0 00 032246 		JUMPA	.+1		;IF TEST FAILS, CHANGE THIS INSTRUCTION (JUMPA .+1) TO
  3655									;JUMPA X (X IS THE ADDRESS OF THE FIRST INSTRUCTION
  3656									;IN THE SUBTEST) TO LOOP ON ERROR^
  3657	032246	332 00 0 00 000000 		SKIPE	0		;FAIL IF C(0) IS NON-ZERO
  3658						STOP^
  3659	032247	254 04 0 00 032250 		HALT	.+1		;TEST FAILED IF PROGRAM HALTS HERE
  3660	032250	324 00 0 00 032251 		JUMPA	.+1		;IF TEST FAILS, CHANGE THIS INSTRUCTION (JUMPA .+1) TO
  3661									;JUMPA X (X IS THE ADDRESS OF THE FIRST INSTRUCTION
  3662									;IN THE SUBTEST) TO LOOP ON ERROR^
  3663					;**********
  3664
  3665					;THIS TEST VERIFIES THAT IF ONE OF THE OPERANDS OF THE AND INSTRUCTION
  3666					;IS ZERO, THE RESULT WILL BE ZERO.  THIS TEST IS REPEATED 36 TIMES WITH
  3667					;ALL ZEROS IN THE AC EXCEPT FOR ONE ONE IN BIT X
  3668					;WHERE X TAKES ON INTEGER VALUES 0 THRU 35.  E CONTAINS ALL ZEROS.
  3669					;THE RESULT SHOULD BE ALL ZEROS IN THE AC.  IF C(AC) IS NON-ZERO,
  3670					;'AND' FAILED.  C(0) IS ALSO CHECKED FOR ALL ZEROS.  IF C(0) IS
  3671					;NON-ZERO, AC0 WAS CLOBBERED BY 'AND'.
  3672
  3673			006415		SN=SN+1
  3674			010000			ZZ=ZZ+ZZ
  3675						IFE	ZZ,<ZZ=1>
  3676	032251	400 00 0 00 000000 		SETZ			;PRESET E TO ALL ZEROS
  3677	032252	200 01 0 00 070301 		MOVE	1,[ZZ]		;LOAD AC WITH ALL ZEROS EXCEPT FOR A ONE IN BIT X
  3678									;WHERE X VARIES FROM 0 THRU 35
  3679	032253	404 01 0 00 000000 		AND	1,0		;*AND SHOULD RESULT IN C(AC) = 0
  3680	032254	332 00 0 00 000001 		SKIPE	1		;FAIL IF C(AC) NON-ZERO
  3681						STOP^
  3682	032255	254 04 0 00 032256 		HALT	.+1		;TEST FAILED IF PROGRAM HALTS HERE
  3683	032256	324 00 0 00 032257 		JUMPA	.+1		;IF TEST FAILS, CHANGE THIS INSTRUCTION (JUMPA .+1) TO
  3684									;JUMPA X (X IS THE ADDRESS OF THE FIRST INSTRUCTION
  3685									;IN THE SUBTEST) TO LOOP ON ERROR^
  3686	032257	332 00 0 00 000000 		SKIPE	0		;FAIL IF C(0) IS NON-ZERO
  3687						STOP^
  3688	032260	254 04 0 00 032261 		HALT	.+1		;TEST FAILED IF PROGRAM HALTS HERE
  3689	032261	324 00 0 00 032262 		JUMPA	.+1		;IF TEST FAILS, CHANGE THIS INSTRUCTION (JUMPA .+1) TO
  3690									;JUMPA X (X IS THE ADDRESS OF THE FIRST INSTRUCTION
  3691									;IN THE SUBTEST) TO LOOP ON ERROR^
  3692					;**********
  3693
  3694					;THIS TEST VERIFIES THAT IF ONE OF THE OPERANDS OF THE AND INSTRUCTION
  3695					;IS ZERO, THE RESULT WILL BE ZERO.  THIS TEST IS REPEATED 36 TIMES WITH
  3696					;ALL ZEROS IN THE AC EXCEPT FOR ONE ONE IN BIT X
DFKAA PDP-10 KL10 BASIC INSTRUCTION DIAGNOSTIC (1) VER 0,2	MACRO %53B(1254)-4 11:50 11-Nov-24 Page 24-8
DFKAA1	MAC	13-Jan-89 10:22		TEST OF BOOLEAN INSTRUCTIONS (SETM, SETZ, AND, XOR, EQV)

  3697					;WHERE X TAKES ON INTEGER VALUES 0 THRU 35.  E CONTAINS ALL ZEROS.
  3698					;THE RESULT SHOULD BE ALL ZEROS IN THE AC.  IF C(AC) IS NON-ZERO,
  3699					;'AND' FAILED.  C(0) IS ALSO CHECKED FOR ALL ZEROS.  IF C(0) IS
  3700					;NON-ZERO, AC0 WAS CLOBBERED BY 'AND'.
  3701
  3702			006416		SN=SN+1
  3703			020000			ZZ=ZZ+ZZ
  3704						IFE	ZZ,<ZZ=1>
  3705	032262	400 00 0 00 000000 		SETZ			;PRESET E TO ALL ZEROS
  3706	032263	200 01 0 00 070302 		MOVE	1,[ZZ]		;LOAD AC WITH ALL ZEROS EXCEPT FOR A ONE IN BIT X
  3707									;WHERE X VARIES FROM 0 THRU 35
  3708	032264	404 01 0 00 000000 		AND	1,0		;*AND SHOULD RESULT IN C(AC) = 0
  3709	032265	332 00 0 00 000001 		SKIPE	1		;FAIL IF C(AC) NON-ZERO
  3710						STOP^
  3711	032266	254 04 0 00 032267 		HALT	.+1		;TEST FAILED IF PROGRAM HALTS HERE
  3712	032267	324 00 0 00 032270 		JUMPA	.+1		;IF TEST FAILS, CHANGE THIS INSTRUCTION (JUMPA .+1) TO
  3713									;JUMPA X (X IS THE ADDRESS OF THE FIRST INSTRUCTION
  3714									;IN THE SUBTEST) TO LOOP ON ERROR^
  3715	032270	332 00 0 00 000000 		SKIPE	0		;FAIL IF C(0) IS NON-ZERO
  3716						STOP^
  3717	032271	254 04 0 00 032272 		HALT	.+1		;TEST FAILED IF PROGRAM HALTS HERE
  3718	032272	324 00 0 00 032273 		JUMPA	.+1		;IF TEST FAILS, CHANGE THIS INSTRUCTION (JUMPA .+1) TO
  3719									;JUMPA X (X IS THE ADDRESS OF THE FIRST INSTRUCTION
  3720									;IN THE SUBTEST) TO LOOP ON ERROR^
  3721					;**********
  3722
  3723					;THIS TEST VERIFIES THAT IF ONE OF THE OPERANDS OF THE AND INSTRUCTION
  3724					;IS ZERO, THE RESULT WILL BE ZERO.  THIS TEST IS REPEATED 36 TIMES WITH
  3725					;ALL ZEROS IN THE AC EXCEPT FOR ONE ONE IN BIT X
  3726					;WHERE X TAKES ON INTEGER VALUES 0 THRU 35.  E CONTAINS ALL ZEROS.
  3727					;THE RESULT SHOULD BE ALL ZEROS IN THE AC.  IF C(AC) IS NON-ZERO,
  3728					;'AND' FAILED.  C(0) IS ALSO CHECKED FOR ALL ZEROS.  IF C(0) IS
  3729					;NON-ZERO, AC0 WAS CLOBBERED BY 'AND'.
  3730
  3731			006417		SN=SN+1
  3732			040000			ZZ=ZZ+ZZ
  3733						IFE	ZZ,<ZZ=1>
  3734	032273	400 00 0 00 000000 		SETZ			;PRESET E TO ALL ZEROS
  3735	032274	200 01 0 00 070303 		MOVE	1,[ZZ]		;LOAD AC WITH ALL ZEROS EXCEPT FOR A ONE IN BIT X
  3736									;WHERE X VARIES FROM 0 THRU 35
  3737	032275	404 01 0 00 000000 		AND	1,0		;*AND SHOULD RESULT IN C(AC) = 0
  3738	032276	332 00 0 00 000001 		SKIPE	1		;FAIL IF C(AC) NON-ZERO
  3739						STOP^
  3740	032277	254 04 0 00 032300 		HALT	.+1		;TEST FAILED IF PROGRAM HALTS HERE
  3741	032300	324 00 0 00 032301 		JUMPA	.+1		;IF TEST FAILS, CHANGE THIS INSTRUCTION (JUMPA .+1) TO
  3742									;JUMPA X (X IS THE ADDRESS OF THE FIRST INSTRUCTION
  3743									;IN THE SUBTEST) TO LOOP ON ERROR^
  3744	032301	332 00 0 00 000000 		SKIPE	0		;FAIL IF C(0) IS NON-ZERO
  3745						STOP^
  3746	032302	254 04 0 00 032303 		HALT	.+1		;TEST FAILED IF PROGRAM HALTS HERE
  3747	032303	324 00 0 00 032304 		JUMPA	.+1		;IF TEST FAILS, CHANGE THIS INSTRUCTION (JUMPA .+1) TO
  3748									;JUMPA X (X IS THE ADDRESS OF THE FIRST INSTRUCTION
  3749									;IN THE SUBTEST) TO LOOP ON ERROR^
  3750					;**********
  3751
DFKAA PDP-10 KL10 BASIC INSTRUCTION DIAGNOSTIC (1) VER 0,2	MACRO %53B(1254)-4 11:50 11-Nov-24 Page 24-9
DFKAA1	MAC	13-Jan-89 10:22		TEST OF BOOLEAN INSTRUCTIONS (SETM, SETZ, AND, XOR, EQV)

  3752					;THIS TEST VERIFIES THAT IF ONE OF THE OPERANDS OF THE AND INSTRUCTION
  3753					;IS ZERO, THE RESULT WILL BE ZERO.  THIS TEST IS REPEATED 36 TIMES WITH
  3754					;ALL ZEROS IN THE AC EXCEPT FOR ONE ONE IN BIT X
  3755					;WHERE X TAKES ON INTEGER VALUES 0 THRU 35.  E CONTAINS ALL ZEROS.
  3756					;THE RESULT SHOULD BE ALL ZEROS IN THE AC.  IF C(AC) IS NON-ZERO,
  3757					;'AND' FAILED.  C(0) IS ALSO CHECKED FOR ALL ZEROS.  IF C(0) IS
  3758					;NON-ZERO, AC0 WAS CLOBBERED BY 'AND'.
  3759
  3760			006420		SN=SN+1
  3761			100000			ZZ=ZZ+ZZ
  3762						IFE	ZZ,<ZZ=1>
  3763	032304	400 00 0 00 000000 		SETZ			;PRESET E TO ALL ZEROS
  3764	032305	200 01 0 00 070304 		MOVE	1,[ZZ]		;LOAD AC WITH ALL ZEROS EXCEPT FOR A ONE IN BIT X
  3765									;WHERE X VARIES FROM 0 THRU 35
  3766	032306	404 01 0 00 000000 		AND	1,0		;*AND SHOULD RESULT IN C(AC) = 0
  3767	032307	332 00 0 00 000001 		SKIPE	1		;FAIL IF C(AC) NON-ZERO
  3768						STOP^
  3769	032310	254 04 0 00 032311 		HALT	.+1		;TEST FAILED IF PROGRAM HALTS HERE
  3770	032311	324 00 0 00 032312 		JUMPA	.+1		;IF TEST FAILS, CHANGE THIS INSTRUCTION (JUMPA .+1) TO
  3771									;JUMPA X (X IS THE ADDRESS OF THE FIRST INSTRUCTION
  3772									;IN THE SUBTEST) TO LOOP ON ERROR^
  3773	032312	332 00 0 00 000000 		SKIPE	0		;FAIL IF C(0) IS NON-ZERO
  3774						STOP^
  3775	032313	254 04 0 00 032314 		HALT	.+1		;TEST FAILED IF PROGRAM HALTS HERE
  3776	032314	324 00 0 00 032315 		JUMPA	.+1		;IF TEST FAILS, CHANGE THIS INSTRUCTION (JUMPA .+1) TO
  3777									;JUMPA X (X IS THE ADDRESS OF THE FIRST INSTRUCTION
  3778									;IN THE SUBTEST) TO LOOP ON ERROR^
  3779					;**********
  3780
  3781					;THIS TEST VERIFIES THAT IF ONE OF THE OPERANDS OF THE AND INSTRUCTION
  3782					;IS ZERO, THE RESULT WILL BE ZERO.  THIS TEST IS REPEATED 36 TIMES WITH
  3783					;ALL ZEROS IN THE AC EXCEPT FOR ONE ONE IN BIT X
  3784					;WHERE X TAKES ON INTEGER VALUES 0 THRU 35.  E CONTAINS ALL ZEROS.
  3785					;THE RESULT SHOULD BE ALL ZEROS IN THE AC.  IF C(AC) IS NON-ZERO,
  3786					;'AND' FAILED.  C(0) IS ALSO CHECKED FOR ALL ZEROS.  IF C(0) IS
  3787					;NON-ZERO, AC0 WAS CLOBBERED BY 'AND'.
  3788
  3789			006421		SN=SN+1
  3790			200000			ZZ=ZZ+ZZ
  3791						IFE	ZZ,<ZZ=1>
  3792	032315	400 00 0 00 000000 		SETZ			;PRESET E TO ALL ZEROS
  3793	032316	200 01 0 00 070305 		MOVE	1,[ZZ]		;LOAD AC WITH ALL ZEROS EXCEPT FOR A ONE IN BIT X
  3794									;WHERE X VARIES FROM 0 THRU 35
  3795	032317	404 01 0 00 000000 		AND	1,0		;*AND SHOULD RESULT IN C(AC) = 0
  3796	032320	332 00 0 00 000001 		SKIPE	1		;FAIL IF C(AC) NON-ZERO
  3797						STOP^
  3798	032321	254 04 0 00 032322 		HALT	.+1		;TEST FAILED IF PROGRAM HALTS HERE
  3799	032322	324 00 0 00 032323 		JUMPA	.+1		;IF TEST FAILS, CHANGE THIS INSTRUCTION (JUMPA .+1) TO
  3800									;JUMPA X (X IS THE ADDRESS OF THE FIRST INSTRUCTION
  3801									;IN THE SUBTEST) TO LOOP ON ERROR^
  3802	032323	332 00 0 00 000000 		SKIPE	0		;FAIL IF C(0) IS NON-ZERO
  3803						STOP^
  3804	032324	254 04 0 00 032325 		HALT	.+1		;TEST FAILED IF PROGRAM HALTS HERE
  3805	032325	324 00 0 00 032326 		JUMPA	.+1		;IF TEST FAILS, CHANGE THIS INSTRUCTION (JUMPA .+1) TO
  3806									;JUMPA X (X IS THE ADDRESS OF THE FIRST INSTRUCTION
DFKAA PDP-10 KL10 BASIC INSTRUCTION DIAGNOSTIC (1) VER 0,2	MACRO %53B(1254)-4 11:50 11-Nov-24 Page 24-10
DFKAA1	MAC	13-Jan-89 10:22		TEST OF BOOLEAN INSTRUCTIONS (SETM, SETZ, AND, XOR, EQV)

  3807									;IN THE SUBTEST) TO LOOP ON ERROR^
  3808					;**********
  3809
  3810					;THIS TEST VERIFIES THAT IF ONE OF THE OPERANDS OF THE AND INSTRUCTION
  3811					;IS ZERO, THE RESULT WILL BE ZERO.  THIS TEST IS REPEATED 36 TIMES WITH
  3812					;ALL ZEROS IN THE AC EXCEPT FOR ONE ONE IN BIT X
  3813					;WHERE X TAKES ON INTEGER VALUES 0 THRU 35.  E CONTAINS ALL ZEROS.
  3814					;THE RESULT SHOULD BE ALL ZEROS IN THE AC.  IF C(AC) IS NON-ZERO,
  3815					;'AND' FAILED.  C(0) IS ALSO CHECKED FOR ALL ZEROS.  IF C(0) IS
  3816					;NON-ZERO, AC0 WAS CLOBBERED BY 'AND'.
  3817
  3818			006422		SN=SN+1
  3819			400000			ZZ=ZZ+ZZ
  3820						IFE	ZZ,<ZZ=1>
  3821	032326	400 00 0 00 000000 		SETZ			;PRESET E TO ALL ZEROS
  3822	032327	200 01 0 00 070306 		MOVE	1,[ZZ]		;LOAD AC WITH ALL ZEROS EXCEPT FOR A ONE IN BIT X
  3823									;WHERE X VARIES FROM 0 THRU 35
  3824	032330	404 01 0 00 000000 		AND	1,0		;*AND SHOULD RESULT IN C(AC) = 0
  3825	032331	332 00 0 00 000001 		SKIPE	1		;FAIL IF C(AC) NON-ZERO
  3826						STOP^
  3827	032332	254 04 0 00 032333 		HALT	.+1		;TEST FAILED IF PROGRAM HALTS HERE
  3828	032333	324 00 0 00 032334 		JUMPA	.+1		;IF TEST FAILS, CHANGE THIS INSTRUCTION (JUMPA .+1) TO
  3829									;JUMPA X (X IS THE ADDRESS OF THE FIRST INSTRUCTION
  3830									;IN THE SUBTEST) TO LOOP ON ERROR^
  3831	032334	332 00 0 00 000000 		SKIPE	0		;FAIL IF C(0) IS NON-ZERO
  3832						STOP^
  3833	032335	254 04 0 00 032336 		HALT	.+1		;TEST FAILED IF PROGRAM HALTS HERE
  3834	032336	324 00 0 00 032337 		JUMPA	.+1		;IF TEST FAILS, CHANGE THIS INSTRUCTION (JUMPA .+1) TO
  3835									;JUMPA X (X IS THE ADDRESS OF THE FIRST INSTRUCTION
  3836									;IN THE SUBTEST) TO LOOP ON ERROR^
  3837					;**********
  3838
  3839					;THIS TEST VERIFIES THAT IF ONE OF THE OPERANDS OF THE AND INSTRUCTION
  3840					;IS ZERO, THE RESULT WILL BE ZERO.  THIS TEST IS REPEATED 36 TIMES WITH
  3841					;ALL ZEROS IN THE AC EXCEPT FOR ONE ONE IN BIT X
  3842					;WHERE X TAKES ON INTEGER VALUES 0 THRU 35.  E CONTAINS ALL ZEROS.
  3843					;THE RESULT SHOULD BE ALL ZEROS IN THE AC.  IF C(AC) IS NON-ZERO,
  3844					;'AND' FAILED.  C(0) IS ALSO CHECKED FOR ALL ZEROS.  IF C(0) IS
  3845					;NON-ZERO, AC0 WAS CLOBBERED BY 'AND'.
  3846
  3847			006423		SN=SN+1
  3848		000001	000000			ZZ=ZZ+ZZ
  3849						IFE	ZZ,<ZZ=1>
  3850	032337	400 00 0 00 000000 		SETZ			;PRESET E TO ALL ZEROS
  3851	032340	200 01 0 00 070307 		MOVE	1,[ZZ]		;LOAD AC WITH ALL ZEROS EXCEPT FOR A ONE IN BIT X
  3852									;WHERE X VARIES FROM 0 THRU 35
  3853	032341	404 01 0 00 000000 		AND	1,0		;*AND SHOULD RESULT IN C(AC) = 0
  3854	032342	332 00 0 00 000001 		SKIPE	1		;FAIL IF C(AC) NON-ZERO
  3855						STOP^
  3856	032343	254 04 0 00 032344 		HALT	.+1		;TEST FAILED IF PROGRAM HALTS HERE
  3857	032344	324 00 0 00 032345 		JUMPA	.+1		;IF TEST FAILS, CHANGE THIS INSTRUCTION (JUMPA .+1) TO
  3858									;JUMPA X (X IS THE ADDRESS OF THE FIRST INSTRUCTION
  3859									;IN THE SUBTEST) TO LOOP ON ERROR^
  3860	032345	332 00 0 00 000000 		SKIPE	0		;FAIL IF C(0) IS NON-ZERO
  3861						STOP^
DFKAA PDP-10 KL10 BASIC INSTRUCTION DIAGNOSTIC (1) VER 0,2	MACRO %53B(1254)-4 11:50 11-Nov-24 Page 24-11
DFKAA1	MAC	13-Jan-89 10:22		TEST OF BOOLEAN INSTRUCTIONS (SETM, SETZ, AND, XOR, EQV)

  3862	032346	254 04 0 00 032347 		HALT	.+1		;TEST FAILED IF PROGRAM HALTS HERE
  3863	032347	324 00 0 00 032350 		JUMPA	.+1		;IF TEST FAILS, CHANGE THIS INSTRUCTION (JUMPA .+1) TO
  3864									;JUMPA X (X IS THE ADDRESS OF THE FIRST INSTRUCTION
  3865									;IN THE SUBTEST) TO LOOP ON ERROR^
  3866					;**********
  3867
  3868					;THIS TEST VERIFIES THAT IF ONE OF THE OPERANDS OF THE AND INSTRUCTION
  3869					;IS ZERO, THE RESULT WILL BE ZERO.  THIS TEST IS REPEATED 36 TIMES WITH
  3870					;ALL ZEROS IN THE AC EXCEPT FOR ONE ONE IN BIT X
  3871					;WHERE X TAKES ON INTEGER VALUES 0 THRU 35.  E CONTAINS ALL ZEROS.
  3872					;THE RESULT SHOULD BE ALL ZEROS IN THE AC.  IF C(AC) IS NON-ZERO,
  3873					;'AND' FAILED.  C(0) IS ALSO CHECKED FOR ALL ZEROS.  IF C(0) IS
  3874					;NON-ZERO, AC0 WAS CLOBBERED BY 'AND'.
  3875
  3876			006424		SN=SN+1
  3877		000002	000000			ZZ=ZZ+ZZ
  3878						IFE	ZZ,<ZZ=1>
  3879	032350	400 00 0 00 000000 		SETZ			;PRESET E TO ALL ZEROS
  3880	032351	200 01 0 00 070310 		MOVE	1,[ZZ]		;LOAD AC WITH ALL ZEROS EXCEPT FOR A ONE IN BIT X
  3881									;WHERE X VARIES FROM 0 THRU 35
  3882	032352	404 01 0 00 000000 		AND	1,0		;*AND SHOULD RESULT IN C(AC) = 0
  3883	032353	332 00 0 00 000001 		SKIPE	1		;FAIL IF C(AC) NON-ZERO
  3884						STOP^
  3885	032354	254 04 0 00 032355 		HALT	.+1		;TEST FAILED IF PROGRAM HALTS HERE
  3886	032355	324 00 0 00 032356 		JUMPA	.+1		;IF TEST FAILS, CHANGE THIS INSTRUCTION (JUMPA .+1) TO
  3887									;JUMPA X (X IS THE ADDRESS OF THE FIRST INSTRUCTION
  3888									;IN THE SUBTEST) TO LOOP ON ERROR^
  3889	032356	332 00 0 00 000000 		SKIPE	0		;FAIL IF C(0) IS NON-ZERO
  3890						STOP^
  3891	032357	254 04 0 00 032360 		HALT	.+1		;TEST FAILED IF PROGRAM HALTS HERE
  3892	032360	324 00 0 00 032361 		JUMPA	.+1		;IF TEST FAILS, CHANGE THIS INSTRUCTION (JUMPA .+1) TO
  3893									;JUMPA X (X IS THE ADDRESS OF THE FIRST INSTRUCTION
  3894									;IN THE SUBTEST) TO LOOP ON ERROR^
  3895					;**********
  3896
  3897					;THIS TEST VERIFIES THAT IF ONE OF THE OPERANDS OF THE AND INSTRUCTION
  3898					;IS ZERO, THE RESULT WILL BE ZERO.  THIS TEST IS REPEATED 36 TIMES WITH
  3899					;ALL ZEROS IN THE AC EXCEPT FOR ONE ONE IN BIT X
  3900					;WHERE X TAKES ON INTEGER VALUES 0 THRU 35.  E CONTAINS ALL ZEROS.
  3901					;THE RESULT SHOULD BE ALL ZEROS IN THE AC.  IF C(AC) IS NON-ZERO,
  3902					;'AND' FAILED.  C(0) IS ALSO CHECKED FOR ALL ZEROS.  IF C(0) IS
  3903					;NON-ZERO, AC0 WAS CLOBBERED BY 'AND'.
  3904
  3905			006425		SN=SN+1
  3906		000004	000000			ZZ=ZZ+ZZ
  3907						IFE	ZZ,<ZZ=1>
  3908	032361	400 00 0 00 000000 		SETZ			;PRESET E TO ALL ZEROS
  3909	032362	200 01 0 00 070311 		MOVE	1,[ZZ]		;LOAD AC WITH ALL ZEROS EXCEPT FOR A ONE IN BIT X
  3910									;WHERE X VARIES FROM 0 THRU 35
  3911	032363	404 01 0 00 000000 		AND	1,0		;*AND SHOULD RESULT IN C(AC) = 0
  3912	032364	332 00 0 00 000001 		SKIPE	1		;FAIL IF C(AC) NON-ZERO
  3913						STOP^
  3914	032365	254 04 0 00 032366 		HALT	.+1		;TEST FAILED IF PROGRAM HALTS HERE
  3915	032366	324 00 0 00 032367 		JUMPA	.+1		;IF TEST FAILS, CHANGE THIS INSTRUCTION (JUMPA .+1) TO
  3916									;JUMPA X (X IS THE ADDRESS OF THE FIRST INSTRUCTION
DFKAA PDP-10 KL10 BASIC INSTRUCTION DIAGNOSTIC (1) VER 0,2	MACRO %53B(1254)-4 11:50 11-Nov-24 Page 24-12
DFKAA1	MAC	13-Jan-89 10:22		TEST OF BOOLEAN INSTRUCTIONS (SETM, SETZ, AND, XOR, EQV)

  3917									;IN THE SUBTEST) TO LOOP ON ERROR^
  3918	032367	332 00 0 00 000000 		SKIPE	0		;FAIL IF C(0) IS NON-ZERO
  3919						STOP^
  3920	032370	254 04 0 00 032371 		HALT	.+1		;TEST FAILED IF PROGRAM HALTS HERE
  3921	032371	324 00 0 00 032372 		JUMPA	.+1		;IF TEST FAILS, CHANGE THIS INSTRUCTION (JUMPA .+1) TO
  3922									;JUMPA X (X IS THE ADDRESS OF THE FIRST INSTRUCTION
  3923									;IN THE SUBTEST) TO LOOP ON ERROR^
  3924					;**********
  3925
  3926					;THIS TEST VERIFIES THAT IF ONE OF THE OPERANDS OF THE AND INSTRUCTION
  3927					;IS ZERO, THE RESULT WILL BE ZERO.  THIS TEST IS REPEATED 36 TIMES WITH
  3928					;ALL ZEROS IN THE AC EXCEPT FOR ONE ONE IN BIT X
  3929					;WHERE X TAKES ON INTEGER VALUES 0 THRU 35.  E CONTAINS ALL ZEROS.
  3930					;THE RESULT SHOULD BE ALL ZEROS IN THE AC.  IF C(AC) IS NON-ZERO,
  3931					;'AND' FAILED.  C(0) IS ALSO CHECKED FOR ALL ZEROS.  IF C(0) IS
  3932					;NON-ZERO, AC0 WAS CLOBBERED BY 'AND'.
  3933
  3934			006426		SN=SN+1
  3935		000010	000000			ZZ=ZZ+ZZ
  3936						IFE	ZZ,<ZZ=1>
  3937	032372	400 00 0 00 000000 		SETZ			;PRESET E TO ALL ZEROS
  3938	032373	200 01 0 00 070312 		MOVE	1,[ZZ]		;LOAD AC WITH ALL ZEROS EXCEPT FOR A ONE IN BIT X
  3939									;WHERE X VARIES FROM 0 THRU 35
  3940	032374	404 01 0 00 000000 		AND	1,0		;*AND SHOULD RESULT IN C(AC) = 0
  3941	032375	332 00 0 00 000001 		SKIPE	1		;FAIL IF C(AC) NON-ZERO
  3942						STOP^
  3943	032376	254 04 0 00 032377 		HALT	.+1		;TEST FAILED IF PROGRAM HALTS HERE
  3944	032377	324 00 0 00 032400 		JUMPA	.+1		;IF TEST FAILS, CHANGE THIS INSTRUCTION (JUMPA .+1) TO
  3945									;JUMPA X (X IS THE ADDRESS OF THE FIRST INSTRUCTION
  3946									;IN THE SUBTEST) TO LOOP ON ERROR^
  3947	032400	332 00 0 00 000000 		SKIPE	0		;FAIL IF C(0) IS NON-ZERO
  3948						STOP^
  3949	032401	254 04 0 00 032402 		HALT	.+1		;TEST FAILED IF PROGRAM HALTS HERE
  3950	032402	324 00 0 00 032403 		JUMPA	.+1		;IF TEST FAILS, CHANGE THIS INSTRUCTION (JUMPA .+1) TO
  3951									;JUMPA X (X IS THE ADDRESS OF THE FIRST INSTRUCTION
  3952									;IN THE SUBTEST) TO LOOP ON ERROR^
  3953					;**********
  3954
  3955					;THIS TEST VERIFIES THAT IF ONE OF THE OPERANDS OF THE AND INSTRUCTION
  3956					;IS ZERO, THE RESULT WILL BE ZERO.  THIS TEST IS REPEATED 36 TIMES WITH
  3957					;ALL ZEROS IN THE AC EXCEPT FOR ONE ONE IN BIT X
  3958					;WHERE X TAKES ON INTEGER VALUES 0 THRU 35.  E CONTAINS ALL ZEROS.
  3959					;THE RESULT SHOULD BE ALL ZEROS IN THE AC.  IF C(AC) IS NON-ZERO,
  3960					;'AND' FAILED.  C(0) IS ALSO CHECKED FOR ALL ZEROS.  IF C(0) IS
  3961					;NON-ZERO, AC0 WAS CLOBBERED BY 'AND'.
  3962
  3963			006427		SN=SN+1
  3964		000020	000000			ZZ=ZZ+ZZ
  3965						IFE	ZZ,<ZZ=1>
  3966	032403	400 00 0 00 000000 		SETZ			;PRESET E TO ALL ZEROS
  3967	032404	200 01 0 00 070313 		MOVE	1,[ZZ]		;LOAD AC WITH ALL ZEROS EXCEPT FOR A ONE IN BIT X
  3968									;WHERE X VARIES FROM 0 THRU 35
  3969	032405	404 01 0 00 000000 		AND	1,0		;*AND SHOULD RESULT IN C(AC) = 0
  3970	032406	332 00 0 00 000001 		SKIPE	1		;FAIL IF C(AC) NON-ZERO
  3971						STOP^
DFKAA PDP-10 KL10 BASIC INSTRUCTION DIAGNOSTIC (1) VER 0,2	MACRO %53B(1254)-4 11:50 11-Nov-24 Page 24-13
DFKAA1	MAC	13-Jan-89 10:22		TEST OF BOOLEAN INSTRUCTIONS (SETM, SETZ, AND, XOR, EQV)

  3972	032407	254 04 0 00 032410 		HALT	.+1		;TEST FAILED IF PROGRAM HALTS HERE
  3973	032410	324 00 0 00 032411 		JUMPA	.+1		;IF TEST FAILS, CHANGE THIS INSTRUCTION (JUMPA .+1) TO
  3974									;JUMPA X (X IS THE ADDRESS OF THE FIRST INSTRUCTION
  3975									;IN THE SUBTEST) TO LOOP ON ERROR^
  3976	032411	332 00 0 00 000000 		SKIPE	0		;FAIL IF C(0) IS NON-ZERO
  3977						STOP^
  3978	032412	254 04 0 00 032413 		HALT	.+1		;TEST FAILED IF PROGRAM HALTS HERE
  3979	032413	324 00 0 00 032414 		JUMPA	.+1		;IF TEST FAILS, CHANGE THIS INSTRUCTION (JUMPA .+1) TO
  3980									;JUMPA X (X IS THE ADDRESS OF THE FIRST INSTRUCTION
  3981									;IN THE SUBTEST) TO LOOP ON ERROR^
  3982					;**********
  3983
  3984					;THIS TEST VERIFIES THAT IF ONE OF THE OPERANDS OF THE AND INSTRUCTION
  3985					;IS ZERO, THE RESULT WILL BE ZERO.  THIS TEST IS REPEATED 36 TIMES WITH
  3986					;ALL ZEROS IN THE AC EXCEPT FOR ONE ONE IN BIT X
  3987					;WHERE X TAKES ON INTEGER VALUES 0 THRU 35.  E CONTAINS ALL ZEROS.
  3988					;THE RESULT SHOULD BE ALL ZEROS IN THE AC.  IF C(AC) IS NON-ZERO,
  3989					;'AND' FAILED.  C(0) IS ALSO CHECKED FOR ALL ZEROS.  IF C(0) IS
  3990					;NON-ZERO, AC0 WAS CLOBBERED BY 'AND'.
  3991
  3992			006430		SN=SN+1
  3993		000040	000000			ZZ=ZZ+ZZ
  3994						IFE	ZZ,<ZZ=1>
  3995	032414	400 00 0 00 000000 		SETZ			;PRESET E TO ALL ZEROS
  3996	032415	200 01 0 00 070314 		MOVE	1,[ZZ]		;LOAD AC WITH ALL ZEROS EXCEPT FOR A ONE IN BIT X
  3997									;WHERE X VARIES FROM 0 THRU 35
  3998	032416	404 01 0 00 000000 		AND	1,0		;*AND SHOULD RESULT IN C(AC) = 0
  3999	032417	332 00 0 00 000001 		SKIPE	1		;FAIL IF C(AC) NON-ZERO
  4000						STOP^
  4001	032420	254 04 0 00 032421 		HALT	.+1		;TEST FAILED IF PROGRAM HALTS HERE
  4002	032421	324 00 0 00 032422 		JUMPA	.+1		;IF TEST FAILS, CHANGE THIS INSTRUCTION (JUMPA .+1) TO
  4003									;JUMPA X (X IS THE ADDRESS OF THE FIRST INSTRUCTION
  4004									;IN THE SUBTEST) TO LOOP ON ERROR^
  4005	032422	332 00 0 00 000000 		SKIPE	0		;FAIL IF C(0) IS NON-ZERO
  4006						STOP^
  4007	032423	254 04 0 00 032424 		HALT	.+1		;TEST FAILED IF PROGRAM HALTS HERE
  4008	032424	324 00 0 00 032425 		JUMPA	.+1		;IF TEST FAILS, CHANGE THIS INSTRUCTION (JUMPA .+1) TO
  4009									;JUMPA X (X IS THE ADDRESS OF THE FIRST INSTRUCTION
  4010									;IN THE SUBTEST) TO LOOP ON ERROR^
  4011					;**********
  4012
  4013					;THIS TEST VERIFIES THAT IF ONE OF THE OPERANDS OF THE AND INSTRUCTION
  4014					;IS ZERO, THE RESULT WILL BE ZERO.  THIS TEST IS REPEATED 36 TIMES WITH
  4015					;ALL ZEROS IN THE AC EXCEPT FOR ONE ONE IN BIT X
  4016					;WHERE X TAKES ON INTEGER VALUES 0 THRU 35.  E CONTAINS ALL ZEROS.
  4017					;THE RESULT SHOULD BE ALL ZEROS IN THE AC.  IF C(AC) IS NON-ZERO,
  4018					;'AND' FAILED.  C(0) IS ALSO CHECKED FOR ALL ZEROS.  IF C(0) IS
  4019					;NON-ZERO, AC0 WAS CLOBBERED BY 'AND'.
  4020
  4021			006431		SN=SN+1
  4022		000100	000000			ZZ=ZZ+ZZ
  4023						IFE	ZZ,<ZZ=1>
  4024	032425	400 00 0 00 000000 		SETZ			;PRESET E TO ALL ZEROS
  4025	032426	200 01 0 00 070315 		MOVE	1,[ZZ]		;LOAD AC WITH ALL ZEROS EXCEPT FOR A ONE IN BIT X
  4026									;WHERE X VARIES FROM 0 THRU 35
DFKAA PDP-10 KL10 BASIC INSTRUCTION DIAGNOSTIC (1) VER 0,2	MACRO %53B(1254)-4 11:50 11-Nov-24 Page 24-14
DFKAA1	MAC	13-Jan-89 10:22		TEST OF BOOLEAN INSTRUCTIONS (SETM, SETZ, AND, XOR, EQV)

  4027	032427	404 01 0 00 000000 		AND	1,0		;*AND SHOULD RESULT IN C(AC) = 0
  4028	032430	332 00 0 00 000001 		SKIPE	1		;FAIL IF C(AC) NON-ZERO
  4029						STOP^
  4030	032431	254 04 0 00 032432 		HALT	.+1		;TEST FAILED IF PROGRAM HALTS HERE
  4031	032432	324 00 0 00 032433 		JUMPA	.+1		;IF TEST FAILS, CHANGE THIS INSTRUCTION (JUMPA .+1) TO
  4032									;JUMPA X (X IS THE ADDRESS OF THE FIRST INSTRUCTION
  4033									;IN THE SUBTEST) TO LOOP ON ERROR^
  4034	032433	332 00 0 00 000000 		SKIPE	0		;FAIL IF C(0) IS NON-ZERO
  4035						STOP^
  4036	032434	254 04 0 00 032435 		HALT	.+1		;TEST FAILED IF PROGRAM HALTS HERE
  4037	032435	324 00 0 00 032436 		JUMPA	.+1		;IF TEST FAILS, CHANGE THIS INSTRUCTION (JUMPA .+1) TO
  4038									;JUMPA X (X IS THE ADDRESS OF THE FIRST INSTRUCTION
  4039									;IN THE SUBTEST) TO LOOP ON ERROR^
  4040					;**********
  4041
  4042					;THIS TEST VERIFIES THAT IF ONE OF THE OPERANDS OF THE AND INSTRUCTION
  4043					;IS ZERO, THE RESULT WILL BE ZERO.  THIS TEST IS REPEATED 36 TIMES WITH
  4044					;ALL ZEROS IN THE AC EXCEPT FOR ONE ONE IN BIT X
  4045					;WHERE X TAKES ON INTEGER VALUES 0 THRU 35.  E CONTAINS ALL ZEROS.
  4046					;THE RESULT SHOULD BE ALL ZEROS IN THE AC.  IF C(AC) IS NON-ZERO,
  4047					;'AND' FAILED.  C(0) IS ALSO CHECKED FOR ALL ZEROS.  IF C(0) IS
  4048					;NON-ZERO, AC0 WAS CLOBBERED BY 'AND'.
  4049
  4050			006432		SN=SN+1
  4051		000200	000000			ZZ=ZZ+ZZ
  4052						IFE	ZZ,<ZZ=1>
  4053	032436	400 00 0 00 000000 		SETZ			;PRESET E TO ALL ZEROS
  4054	032437	200 01 0 00 070316 		MOVE	1,[ZZ]		;LOAD AC WITH ALL ZEROS EXCEPT FOR A ONE IN BIT X
  4055									;WHERE X VARIES FROM 0 THRU 35
  4056	032440	404 01 0 00 000000 		AND	1,0		;*AND SHOULD RESULT IN C(AC) = 0
  4057	032441	332 00 0 00 000001 		SKIPE	1		;FAIL IF C(AC) NON-ZERO
  4058						STOP^
  4059	032442	254 04 0 00 032443 		HALT	.+1		;TEST FAILED IF PROGRAM HALTS HERE
  4060	032443	324 00 0 00 032444 		JUMPA	.+1		;IF TEST FAILS, CHANGE THIS INSTRUCTION (JUMPA .+1) TO
  4061									;JUMPA X (X IS THE ADDRESS OF THE FIRST INSTRUCTION
  4062									;IN THE SUBTEST) TO LOOP ON ERROR^
  4063	032444	332 00 0 00 000000 		SKIPE	0		;FAIL IF C(0) IS NON-ZERO
  4064						STOP^
  4065	032445	254 04 0 00 032446 		HALT	.+1		;TEST FAILED IF PROGRAM HALTS HERE
  4066	032446	324 00 0 00 032447 		JUMPA	.+1		;IF TEST FAILS, CHANGE THIS INSTRUCTION (JUMPA .+1) TO
  4067									;JUMPA X (X IS THE ADDRESS OF THE FIRST INSTRUCTION
  4068									;IN THE SUBTEST) TO LOOP ON ERROR^
  4069					;**********
  4070
  4071					;THIS TEST VERIFIES THAT IF ONE OF THE OPERANDS OF THE AND INSTRUCTION
  4072					;IS ZERO, THE RESULT WILL BE ZERO.  THIS TEST IS REPEATED 36 TIMES WITH
  4073					;ALL ZEROS IN THE AC EXCEPT FOR ONE ONE IN BIT X
  4074					;WHERE X TAKES ON INTEGER VALUES 0 THRU 35.  E CONTAINS ALL ZEROS.
  4075					;THE RESULT SHOULD BE ALL ZEROS IN THE AC.  IF C(AC) IS NON-ZERO,
  4076					;'AND' FAILED.  C(0) IS ALSO CHECKED FOR ALL ZEROS.  IF C(0) IS
  4077					;NON-ZERO, AC0 WAS CLOBBERED BY 'AND'.
  4078
  4079			006433		SN=SN+1
  4080		000400	000000			ZZ=ZZ+ZZ
  4081						IFE	ZZ,<ZZ=1>
DFKAA PDP-10 KL10 BASIC INSTRUCTION DIAGNOSTIC (1) VER 0,2	MACRO %53B(1254)-4 11:50 11-Nov-24 Page 24-15
DFKAA1	MAC	13-Jan-89 10:22		TEST OF BOOLEAN INSTRUCTIONS (SETM, SETZ, AND, XOR, EQV)

  4082	032447	400 00 0 00 000000 		SETZ			;PRESET E TO ALL ZEROS
  4083	032450	200 01 0 00 070264 		MOVE	1,[ZZ]		;LOAD AC WITH ALL ZEROS EXCEPT FOR A ONE IN BIT X
  4084									;WHERE X VARIES FROM 0 THRU 35
  4085	032451	404 01 0 00 000000 		AND	1,0		;*AND SHOULD RESULT IN C(AC) = 0
  4086	032452	332 00 0 00 000001 		SKIPE	1		;FAIL IF C(AC) NON-ZERO
  4087						STOP^
  4088	032453	254 04 0 00 032454 		HALT	.+1		;TEST FAILED IF PROGRAM HALTS HERE
  4089	032454	324 00 0 00 032455 		JUMPA	.+1		;IF TEST FAILS, CHANGE THIS INSTRUCTION (JUMPA .+1) TO
  4090									;JUMPA X (X IS THE ADDRESS OF THE FIRST INSTRUCTION
  4091									;IN THE SUBTEST) TO LOOP ON ERROR^
  4092	032455	332 00 0 00 000000 		SKIPE	0		;FAIL IF C(0) IS NON-ZERO
  4093						STOP^
  4094	032456	254 04 0 00 032457 		HALT	.+1		;TEST FAILED IF PROGRAM HALTS HERE
  4095	032457	324 00 0 00 032460 		JUMPA	.+1		;IF TEST FAILS, CHANGE THIS INSTRUCTION (JUMPA .+1) TO
  4096									;JUMPA X (X IS THE ADDRESS OF THE FIRST INSTRUCTION
  4097									;IN THE SUBTEST) TO LOOP ON ERROR^
  4098					;**********
  4099
  4100					;THIS TEST VERIFIES THAT IF ONE OF THE OPERANDS OF THE AND INSTRUCTION
  4101					;IS ZERO, THE RESULT WILL BE ZERO.  THIS TEST IS REPEATED 36 TIMES WITH
  4102					;ALL ZEROS IN THE AC EXCEPT FOR ONE ONE IN BIT X
  4103					;WHERE X TAKES ON INTEGER VALUES 0 THRU 35.  E CONTAINS ALL ZEROS.
  4104					;THE RESULT SHOULD BE ALL ZEROS IN THE AC.  IF C(AC) IS NON-ZERO,
  4105					;'AND' FAILED.  C(0) IS ALSO CHECKED FOR ALL ZEROS.  IF C(0) IS
  4106					;NON-ZERO, AC0 WAS CLOBBERED BY 'AND'.
  4107
  4108			006434		SN=SN+1
  4109		001000	000000			ZZ=ZZ+ZZ
  4110						IFE	ZZ,<ZZ=1>
  4111	032460	400 00 0 00 000000 		SETZ			;PRESET E TO ALL ZEROS
  4112	032461	200 01 0 00 070317 		MOVE	1,[ZZ]		;LOAD AC WITH ALL ZEROS EXCEPT FOR A ONE IN BIT X
  4113									;WHERE X VARIES FROM 0 THRU 35
  4114	032462	404 01 0 00 000000 		AND	1,0		;*AND SHOULD RESULT IN C(AC) = 0
  4115	032463	332 00 0 00 000001 		SKIPE	1		;FAIL IF C(AC) NON-ZERO
  4116						STOP^
  4117	032464	254 04 0 00 032465 		HALT	.+1		;TEST FAILED IF PROGRAM HALTS HERE
  4118	032465	324 00 0 00 032466 		JUMPA	.+1		;IF TEST FAILS, CHANGE THIS INSTRUCTION (JUMPA .+1) TO
  4119									;JUMPA X (X IS THE ADDRESS OF THE FIRST INSTRUCTION
  4120									;IN THE SUBTEST) TO LOOP ON ERROR^
  4121	032466	332 00 0 00 000000 		SKIPE	0		;FAIL IF C(0) IS NON-ZERO
  4122						STOP^
  4123	032467	254 04 0 00 032470 		HALT	.+1		;TEST FAILED IF PROGRAM HALTS HERE
  4124	032470	324 00 0 00 032471 		JUMPA	.+1		;IF TEST FAILS, CHANGE THIS INSTRUCTION (JUMPA .+1) TO
  4125									;JUMPA X (X IS THE ADDRESS OF THE FIRST INSTRUCTION
  4126									;IN THE SUBTEST) TO LOOP ON ERROR^
  4127					;**********
  4128
  4129					;THIS TEST VERIFIES THAT IF ONE OF THE OPERANDS OF THE AND INSTRUCTION
  4130					;IS ZERO, THE RESULT WILL BE ZERO.  THIS TEST IS REPEATED 36 TIMES WITH
  4131					;ALL ZEROS IN THE AC EXCEPT FOR ONE ONE IN BIT X
  4132					;WHERE X TAKES ON INTEGER VALUES 0 THRU 35.  E CONTAINS ALL ZEROS.
  4133					;THE RESULT SHOULD BE ALL ZEROS IN THE AC.  IF C(AC) IS NON-ZERO,
  4134					;'AND' FAILED.  C(0) IS ALSO CHECKED FOR ALL ZEROS.  IF C(0) IS
  4135					;NON-ZERO, AC0 WAS CLOBBERED BY 'AND'.
  4136
DFKAA PDP-10 KL10 BASIC INSTRUCTION DIAGNOSTIC (1) VER 0,2	MACRO %53B(1254)-4 11:50 11-Nov-24 Page 24-16
DFKAA1	MAC	13-Jan-89 10:22		TEST OF BOOLEAN INSTRUCTIONS (SETM, SETZ, AND, XOR, EQV)

  4137			006435		SN=SN+1
  4138		002000	000000			ZZ=ZZ+ZZ
  4139						IFE	ZZ,<ZZ=1>
  4140	032471	400 00 0 00 000000 		SETZ			;PRESET E TO ALL ZEROS
  4141	032472	200 01 0 00 070320 		MOVE	1,[ZZ]		;LOAD AC WITH ALL ZEROS EXCEPT FOR A ONE IN BIT X
  4142									;WHERE X VARIES FROM 0 THRU 35
  4143	032473	404 01 0 00 000000 		AND	1,0		;*AND SHOULD RESULT IN C(AC) = 0
  4144	032474	332 00 0 00 000001 		SKIPE	1		;FAIL IF C(AC) NON-ZERO
  4145						STOP^
  4146	032475	254 04 0 00 032476 		HALT	.+1		;TEST FAILED IF PROGRAM HALTS HERE
  4147	032476	324 00 0 00 032477 		JUMPA	.+1		;IF TEST FAILS, CHANGE THIS INSTRUCTION (JUMPA .+1) TO
  4148									;JUMPA X (X IS THE ADDRESS OF THE FIRST INSTRUCTION
  4149									;IN THE SUBTEST) TO LOOP ON ERROR^
  4150	032477	332 00 0 00 000000 		SKIPE	0		;FAIL IF C(0) IS NON-ZERO
  4151						STOP^
  4152	032500	254 04 0 00 032501 		HALT	.+1		;TEST FAILED IF PROGRAM HALTS HERE
  4153	032501	324 00 0 00 032502 		JUMPA	.+1		;IF TEST FAILS, CHANGE THIS INSTRUCTION (JUMPA .+1) TO
  4154									;JUMPA X (X IS THE ADDRESS OF THE FIRST INSTRUCTION
  4155									;IN THE SUBTEST) TO LOOP ON ERROR^
  4156					;**********
  4157
  4158					;THIS TEST VERIFIES THAT IF ONE OF THE OPERANDS OF THE AND INSTRUCTION
  4159					;IS ZERO, THE RESULT WILL BE ZERO.  THIS TEST IS REPEATED 36 TIMES WITH
  4160					;ALL ZEROS IN THE AC EXCEPT FOR ONE ONE IN BIT X
  4161					;WHERE X TAKES ON INTEGER VALUES 0 THRU 35.  E CONTAINS ALL ZEROS.
  4162					;THE RESULT SHOULD BE ALL ZEROS IN THE AC.  IF C(AC) IS NON-ZERO,
  4163					;'AND' FAILED.  C(0) IS ALSO CHECKED FOR ALL ZEROS.  IF C(0) IS
  4164					;NON-ZERO, AC0 WAS CLOBBERED BY 'AND'.
  4165
  4166			006436		SN=SN+1
  4167		004000	000000			ZZ=ZZ+ZZ
  4168						IFE	ZZ,<ZZ=1>
  4169	032502	400 00 0 00 000000 		SETZ			;PRESET E TO ALL ZEROS
  4170	032503	200 01 0 00 070321 		MOVE	1,[ZZ]		;LOAD AC WITH ALL ZEROS EXCEPT FOR A ONE IN BIT X
  4171									;WHERE X VARIES FROM 0 THRU 35
  4172	032504	404 01 0 00 000000 		AND	1,0		;*AND SHOULD RESULT IN C(AC) = 0
  4173	032505	332 00 0 00 000001 		SKIPE	1		;FAIL IF C(AC) NON-ZERO
  4174						STOP^
  4175	032506	254 04 0 00 032507 		HALT	.+1		;TEST FAILED IF PROGRAM HALTS HERE
  4176	032507	324 00 0 00 032510 		JUMPA	.+1		;IF TEST FAILS, CHANGE THIS INSTRUCTION (JUMPA .+1) TO
  4177									;JUMPA X (X IS THE ADDRESS OF THE FIRST INSTRUCTION
  4178									;IN THE SUBTEST) TO LOOP ON ERROR^
  4179	032510	332 00 0 00 000000 		SKIPE	0		;FAIL IF C(0) IS NON-ZERO
  4180						STOP^
  4181	032511	254 04 0 00 032512 		HALT	.+1		;TEST FAILED IF PROGRAM HALTS HERE
  4182	032512	324 00 0 00 032513 		JUMPA	.+1		;IF TEST FAILS, CHANGE THIS INSTRUCTION (JUMPA .+1) TO
  4183									;JUMPA X (X IS THE ADDRESS OF THE FIRST INSTRUCTION
  4184									;IN THE SUBTEST) TO LOOP ON ERROR^
  4185					;**********
  4186
  4187					;THIS TEST VERIFIES THAT IF ONE OF THE OPERANDS OF THE AND INSTRUCTION
  4188					;IS ZERO, THE RESULT WILL BE ZERO.  THIS TEST IS REPEATED 36 TIMES WITH
  4189					;ALL ZEROS IN THE AC EXCEPT FOR ONE ONE IN BIT X
  4190					;WHERE X TAKES ON INTEGER VALUES 0 THRU 35.  E CONTAINS ALL ZEROS.
  4191					;THE RESULT SHOULD BE ALL ZEROS IN THE AC.  IF C(AC) IS NON-ZERO,
DFKAA PDP-10 KL10 BASIC INSTRUCTION DIAGNOSTIC (1) VER 0,2	MACRO %53B(1254)-4 11:50 11-Nov-24 Page 24-17
DFKAA1	MAC	13-Jan-89 10:22		TEST OF BOOLEAN INSTRUCTIONS (SETM, SETZ, AND, XOR, EQV)

  4192					;'AND' FAILED.  C(0) IS ALSO CHECKED FOR ALL ZEROS.  IF C(0) IS
  4193					;NON-ZERO, AC0 WAS CLOBBERED BY 'AND'.
  4194
  4195			006437		SN=SN+1
  4196		010000	000000			ZZ=ZZ+ZZ
  4197						IFE	ZZ,<ZZ=1>
  4198	032513	400 00 0 00 000000 		SETZ			;PRESET E TO ALL ZEROS
  4199	032514	200 01 0 00 070322 		MOVE	1,[ZZ]		;LOAD AC WITH ALL ZEROS EXCEPT FOR A ONE IN BIT X
  4200									;WHERE X VARIES FROM 0 THRU 35
  4201	032515	404 01 0 00 000000 		AND	1,0		;*AND SHOULD RESULT IN C(AC) = 0
  4202	032516	332 00 0 00 000001 		SKIPE	1		;FAIL IF C(AC) NON-ZERO
  4203						STOP^
  4204	032517	254 04 0 00 032520 		HALT	.+1		;TEST FAILED IF PROGRAM HALTS HERE
  4205	032520	324 00 0 00 032521 		JUMPA	.+1		;IF TEST FAILS, CHANGE THIS INSTRUCTION (JUMPA .+1) TO
  4206									;JUMPA X (X IS THE ADDRESS OF THE FIRST INSTRUCTION
  4207									;IN THE SUBTEST) TO LOOP ON ERROR^
  4208	032521	332 00 0 00 000000 		SKIPE	0		;FAIL IF C(0) IS NON-ZERO
  4209						STOP^
  4210	032522	254 04 0 00 032523 		HALT	.+1		;TEST FAILED IF PROGRAM HALTS HERE
  4211	032523	324 00 0 00 032524 		JUMPA	.+1		;IF TEST FAILS, CHANGE THIS INSTRUCTION (JUMPA .+1) TO
  4212									;JUMPA X (X IS THE ADDRESS OF THE FIRST INSTRUCTION
  4213									;IN THE SUBTEST) TO LOOP ON ERROR^
  4214					;**********
  4215
  4216					;THIS TEST VERIFIES THAT IF ONE OF THE OPERANDS OF THE AND INSTRUCTION
  4217					;IS ZERO, THE RESULT WILL BE ZERO.  THIS TEST IS REPEATED 36 TIMES WITH
  4218					;ALL ZEROS IN THE AC EXCEPT FOR ONE ONE IN BIT X
  4219					;WHERE X TAKES ON INTEGER VALUES 0 THRU 35.  E CONTAINS ALL ZEROS.
  4220					;THE RESULT SHOULD BE ALL ZEROS IN THE AC.  IF C(AC) IS NON-ZERO,
  4221					;'AND' FAILED.  C(0) IS ALSO CHECKED FOR ALL ZEROS.  IF C(0) IS
  4222					;NON-ZERO, AC0 WAS CLOBBERED BY 'AND'.
  4223
  4224			006440		SN=SN+1
  4225		020000	000000			ZZ=ZZ+ZZ
  4226						IFE	ZZ,<ZZ=1>
  4227	032524	400 00 0 00 000000 		SETZ			;PRESET E TO ALL ZEROS
  4228	032525	200 01 0 00 070323 		MOVE	1,[ZZ]		;LOAD AC WITH ALL ZEROS EXCEPT FOR A ONE IN BIT X
  4229									;WHERE X VARIES FROM 0 THRU 35
  4230	032526	404 01 0 00 000000 		AND	1,0		;*AND SHOULD RESULT IN C(AC) = 0
  4231	032527	332 00 0 00 000001 		SKIPE	1		;FAIL IF C(AC) NON-ZERO
  4232						STOP^
  4233	032530	254 04 0 00 032531 		HALT	.+1		;TEST FAILED IF PROGRAM HALTS HERE
  4234	032531	324 00 0 00 032532 		JUMPA	.+1		;IF TEST FAILS, CHANGE THIS INSTRUCTION (JUMPA .+1) TO
  4235									;JUMPA X (X IS THE ADDRESS OF THE FIRST INSTRUCTION
  4236									;IN THE SUBTEST) TO LOOP ON ERROR^
  4237	032532	332 00 0 00 000000 		SKIPE	0		;FAIL IF C(0) IS NON-ZERO
  4238						STOP^
  4239	032533	254 04 0 00 032534 		HALT	.+1		;TEST FAILED IF PROGRAM HALTS HERE
  4240	032534	324 00 0 00 032535 		JUMPA	.+1		;IF TEST FAILS, CHANGE THIS INSTRUCTION (JUMPA .+1) TO
  4241									;JUMPA X (X IS THE ADDRESS OF THE FIRST INSTRUCTION
  4242									;IN THE SUBTEST) TO LOOP ON ERROR^
  4243					;**********
  4244
  4245					;THIS TEST VERIFIES THAT IF ONE OF THE OPERANDS OF THE AND INSTRUCTION
  4246					;IS ZERO, THE RESULT WILL BE ZERO.  THIS TEST IS REPEATED 36 TIMES WITH
DFKAA PDP-10 KL10 BASIC INSTRUCTION DIAGNOSTIC (1) VER 0,2	MACRO %53B(1254)-4 11:50 11-Nov-24 Page 24-18
DFKAA1	MAC	13-Jan-89 10:22		TEST OF BOOLEAN INSTRUCTIONS (SETM, SETZ, AND, XOR, EQV)

  4247					;ALL ZEROS IN THE AC EXCEPT FOR ONE ONE IN BIT X
  4248					;WHERE X TAKES ON INTEGER VALUES 0 THRU 35.  E CONTAINS ALL ZEROS.
  4249					;THE RESULT SHOULD BE ALL ZEROS IN THE AC.  IF C(AC) IS NON-ZERO,
  4250					;'AND' FAILED.  C(0) IS ALSO CHECKED FOR ALL ZEROS.  IF C(0) IS
  4251					;NON-ZERO, AC0 WAS CLOBBERED BY 'AND'.
  4252
  4253			006441		SN=SN+1
  4254		040000	000000			ZZ=ZZ+ZZ
  4255						IFE	ZZ,<ZZ=1>
  4256	032535	400 00 0 00 000000 		SETZ			;PRESET E TO ALL ZEROS
  4257	032536	200 01 0 00 070324 		MOVE	1,[ZZ]		;LOAD AC WITH ALL ZEROS EXCEPT FOR A ONE IN BIT X
  4258									;WHERE X VARIES FROM 0 THRU 35
  4259	032537	404 01 0 00 000000 		AND	1,0		;*AND SHOULD RESULT IN C(AC) = 0
  4260	032540	332 00 0 00 000001 		SKIPE	1		;FAIL IF C(AC) NON-ZERO
  4261						STOP^
  4262	032541	254 04 0 00 032542 		HALT	.+1		;TEST FAILED IF PROGRAM HALTS HERE
  4263	032542	324 00 0 00 032543 		JUMPA	.+1		;IF TEST FAILS, CHANGE THIS INSTRUCTION (JUMPA .+1) TO
  4264									;JUMPA X (X IS THE ADDRESS OF THE FIRST INSTRUCTION
  4265									;IN THE SUBTEST) TO LOOP ON ERROR^
  4266	032543	332 00 0 00 000000 		SKIPE	0		;FAIL IF C(0) IS NON-ZERO
  4267						STOP^
  4268	032544	254 04 0 00 032545 		HALT	.+1		;TEST FAILED IF PROGRAM HALTS HERE
  4269	032545	324 00 0 00 032546 		JUMPA	.+1		;IF TEST FAILS, CHANGE THIS INSTRUCTION (JUMPA .+1) TO
  4270									;JUMPA X (X IS THE ADDRESS OF THE FIRST INSTRUCTION
  4271									;IN THE SUBTEST) TO LOOP ON ERROR^
  4272					;**********
  4273
  4274					;THIS TEST VERIFIES THAT IF ONE OF THE OPERANDS OF THE AND INSTRUCTION
  4275					;IS ZERO, THE RESULT WILL BE ZERO.  THIS TEST IS REPEATED 36 TIMES WITH
  4276					;ALL ZEROS IN THE AC EXCEPT FOR ONE ONE IN BIT X
  4277					;WHERE X TAKES ON INTEGER VALUES 0 THRU 35.  E CONTAINS ALL ZEROS.
  4278					;THE RESULT SHOULD BE ALL ZEROS IN THE AC.  IF C(AC) IS NON-ZERO,
  4279					;'AND' FAILED.  C(0) IS ALSO CHECKED FOR ALL ZEROS.  IF C(0) IS
  4280					;NON-ZERO, AC0 WAS CLOBBERED BY 'AND'.
  4281
  4282			006442		SN=SN+1
  4283		100000	000000			ZZ=ZZ+ZZ
  4284						IFE	ZZ,<ZZ=1>
  4285	032546	400 00 0 00 000000 		SETZ			;PRESET E TO ALL ZEROS
  4286	032547	200 01 0 00 070325 		MOVE	1,[ZZ]		;LOAD AC WITH ALL ZEROS EXCEPT FOR A ONE IN BIT X
  4287									;WHERE X VARIES FROM 0 THRU 35
  4288	032550	404 01 0 00 000000 		AND	1,0		;*AND SHOULD RESULT IN C(AC) = 0
  4289	032551	332 00 0 00 000001 		SKIPE	1		;FAIL IF C(AC) NON-ZERO
  4290						STOP^
  4291	032552	254 04 0 00 032553 		HALT	.+1		;TEST FAILED IF PROGRAM HALTS HERE
  4292	032553	324 00 0 00 032554 		JUMPA	.+1		;IF TEST FAILS, CHANGE THIS INSTRUCTION (JUMPA .+1) TO
  4293									;JUMPA X (X IS THE ADDRESS OF THE FIRST INSTRUCTION
  4294									;IN THE SUBTEST) TO LOOP ON ERROR^
  4295	032554	332 00 0 00 000000 		SKIPE	0		;FAIL IF C(0) IS NON-ZERO
  4296						STOP^
  4297	032555	254 04 0 00 032556 		HALT	.+1		;TEST FAILED IF PROGRAM HALTS HERE
  4298	032556	324 00 0 00 032557 		JUMPA	.+1		;IF TEST FAILS, CHANGE THIS INSTRUCTION (JUMPA .+1) TO
  4299									;JUMPA X (X IS THE ADDRESS OF THE FIRST INSTRUCTION
  4300									;IN THE SUBTEST) TO LOOP ON ERROR^
  4301					;**********
DFKAA PDP-10 KL10 BASIC INSTRUCTION DIAGNOSTIC (1) VER 0,2	MACRO %53B(1254)-4 11:50 11-Nov-24 Page 24-19
DFKAA1	MAC	13-Jan-89 10:22		TEST OF BOOLEAN INSTRUCTIONS (SETM, SETZ, AND, XOR, EQV)

  4302
  4303					;THIS TEST VERIFIES THAT IF ONE OF THE OPERANDS OF THE AND INSTRUCTION
  4304					;IS ZERO, THE RESULT WILL BE ZERO.  THIS TEST IS REPEATED 36 TIMES WITH
  4305					;ALL ZEROS IN THE AC EXCEPT FOR ONE ONE IN BIT X
  4306					;WHERE X TAKES ON INTEGER VALUES 0 THRU 35.  E CONTAINS ALL ZEROS.
  4307					;THE RESULT SHOULD BE ALL ZEROS IN THE AC.  IF C(AC) IS NON-ZERO,
  4308					;'AND' FAILED.  C(0) IS ALSO CHECKED FOR ALL ZEROS.  IF C(0) IS
  4309					;NON-ZERO, AC0 WAS CLOBBERED BY 'AND'.
  4310
  4311			006443		SN=SN+1
  4312		200000	000000			ZZ=ZZ+ZZ
  4313						IFE	ZZ,<ZZ=1>
  4314	032557	400 00 0 00 000000 		SETZ			;PRESET E TO ALL ZEROS
  4315	032560	200 01 0 00 070326 		MOVE	1,[ZZ]		;LOAD AC WITH ALL ZEROS EXCEPT FOR A ONE IN BIT X
  4316									;WHERE X VARIES FROM 0 THRU 35
  4317	032561	404 01 0 00 000000 		AND	1,0		;*AND SHOULD RESULT IN C(AC) = 0
  4318	032562	332 00 0 00 000001 		SKIPE	1		;FAIL IF C(AC) NON-ZERO
  4319						STOP^
  4320	032563	254 04 0 00 032564 		HALT	.+1		;TEST FAILED IF PROGRAM HALTS HERE
  4321	032564	324 00 0 00 032565 		JUMPA	.+1		;IF TEST FAILS, CHANGE THIS INSTRUCTION (JUMPA .+1) TO
  4322									;JUMPA X (X IS THE ADDRESS OF THE FIRST INSTRUCTION
  4323									;IN THE SUBTEST) TO LOOP ON ERROR^
  4324	032565	332 00 0 00 000000 		SKIPE	0		;FAIL IF C(0) IS NON-ZERO
  4325						STOP^
  4326	032566	254 04 0 00 032567 		HALT	.+1		;TEST FAILED IF PROGRAM HALTS HERE
  4327	032567	324 00 0 00 032570 		JUMPA	.+1		;IF TEST FAILS, CHANGE THIS INSTRUCTION (JUMPA .+1) TO
  4328									;JUMPA X (X IS THE ADDRESS OF THE FIRST INSTRUCTION
  4329									;IN THE SUBTEST) TO LOOP ON ERROR^
  4330					;**********
  4331
  4332					;THIS TEST VERIFIES THAT IF ONE OF THE OPERANDS OF THE AND INSTRUCTION
  4333					;IS ZERO, THE RESULT WILL BE ZERO.  THIS TEST IS REPEATED 36 TIMES WITH
  4334					;ALL ZEROS IN THE AC EXCEPT FOR ONE ONE IN BIT X
  4335					;WHERE X TAKES ON INTEGER VALUES 0 THRU 35.  E CONTAINS ALL ZEROS.
  4336					;THE RESULT SHOULD BE ALL ZEROS IN THE AC.  IF C(AC) IS NON-ZERO,
  4337					;'AND' FAILED.  C(0) IS ALSO CHECKED FOR ALL ZEROS.  IF C(0) IS
  4338					;NON-ZERO, AC0 WAS CLOBBERED BY 'AND'.
  4339
  4340			006444		SN=SN+1
  4341		400000	000000			ZZ=ZZ+ZZ
  4342						IFE	ZZ,<ZZ=1>
  4343	032570	400 00 0 00 000000 		SETZ			;PRESET E TO ALL ZEROS
  4344	032571	200 01 0 00 070256 		MOVE	1,[ZZ]		;LOAD AC WITH ALL ZEROS EXCEPT FOR A ONE IN BIT X
  4345									;WHERE X VARIES FROM 0 THRU 35
  4346	032572	404 01 0 00 000000 		AND	1,0		;*AND SHOULD RESULT IN C(AC) = 0
  4347	032573	332 00 0 00 000001 		SKIPE	1		;FAIL IF C(AC) NON-ZERO
  4348						STOP^
  4349	032574	254 04 0 00 032575 		HALT	.+1		;TEST FAILED IF PROGRAM HALTS HERE
  4350	032575	324 00 0 00 032576 		JUMPA	.+1		;IF TEST FAILS, CHANGE THIS INSTRUCTION (JUMPA .+1) TO
  4351									;JUMPA X (X IS THE ADDRESS OF THE FIRST INSTRUCTION
  4352									;IN THE SUBTEST) TO LOOP ON ERROR^
  4353	032576	332 00 0 00 000000 		SKIPE	0		;FAIL IF C(0) IS NON-ZERO
  4354						STOP^
  4355	032577	254 04 0 00 032600 		HALT	.+1		;TEST FAILED IF PROGRAM HALTS HERE
  4356	032600	324 00 0 00 032601 		JUMPA	.+1		;IF TEST FAILS, CHANGE THIS INSTRUCTION (JUMPA .+1) TO
DFKAA PDP-10 KL10 BASIC INSTRUCTION DIAGNOSTIC (1) VER 0,2	MACRO %53B(1254)-4 11:50 11-Nov-24 Page 24-20
DFKAA1	MAC	13-Jan-89 10:22		TEST OF BOOLEAN INSTRUCTIONS (SETM, SETZ, AND, XOR, EQV)

  4357									;JUMPA X (X IS THE ADDRESS OF THE FIRST INSTRUCTION
  4358									;IN THE SUBTEST) TO LOOP ON ERROR^
  4359					;**********
  4360
DFKAA PDP-10 KL10 BASIC INSTRUCTION DIAGNOSTIC (1) VER 0,2	MACRO %53B(1254)-4 11:50 11-Nov-24 Page 25
DFKAA1	MAC	13-Jan-89 10:22		TEST OF BOOLEAN INSTRUCTIONS (SETM, SETZ, AND, XOR, EQV)

  4361			006500		SN=6500
  4362			000000			ZZ=0
  4363
  4364					A6500:	REPEAT	^D36,
  4365					<;THIS TEST VERIFIES THAT THE RESULT OF A WORD ANDED WITH ITSELF
  4366					;SHOULD BE THAT SAME WORD.  A WORD CONTAINING ALL ZEROS EXCEPT FOR A ONE
  4367					;IN ONLY ONE BIT IS ANDED WITH ITSELF.  THE AC IS THEN CHECKED FOR ITS
  4368					;CONTENTS NONZERO.  IF C(AC)=0, THE 'AND' INSTRUCTION FAILED.  THIS TEST IS REPEATED
  4369					;36 TIMES TO CHECK EACH BIT INDIVIDUALLY.
  4370					SN=SN+1
  4371						ZZ=ZZ+ZZ
  4372						IFE	ZZ,<ZZ=1>
  4373						MOVE	[ZZ]		;LOAD AC WITH ALL ZEROS EXCEPT FOR A ONE IN ONE BIT
  4374						AND			;*AND OF WORD CONTAINING A ONE IN ONE BIT
  4375									;POSITION WITH ITSELF SHOULD RESULT WITH
  4376									;C(AC) NONZERO
  4377						SKIPN			;PASS TEST IF C(AC) NONZERO
  4378						STOP
  4379
  4380					;**********
  4381					>
  4382					;THIS TEST VERIFIES THAT THE RESULT OF A WORD ANDED WITH ITSELF
  4383					;SHOULD BE THAT SAME WORD.  A WORD CONTAINING ALL ZEROS EXCEPT FOR A ONE
  4384					;IN ONLY ONE BIT IS ANDED WITH ITSELF.  THE AC IS THEN CHECKED FOR ITS
  4385					;CONTENTS NONZERO.  IF C(AC)=0, THE 'AND' INSTRUCTION FAILED.  THIS TEST IS REPEATED
  4386					;36 TIMES TO CHECK EACH BIT INDIVIDUALLY.
  4387			006501		SN=SN+1
  4388			000000			ZZ=ZZ+ZZ
  4389			000001			IFE	ZZ,<ZZ=1>
  4390	032601	200 00 0 00 070265 		MOVE	[ZZ]		;LOAD AC WITH ALL ZEROS EXCEPT FOR A ONE IN ONE BIT
  4391	032602	404 00 0 00 000000 		AND			;*AND OF WORD CONTAINING A ONE IN ONE BIT
  4392									;POSITION WITH ITSELF SHOULD RESULT WITH
  4393									;C(AC) NONZERO
  4394	032603	336 00 0 00 000000 		SKIPN			;PASS TEST IF C(AC) NONZERO
  4395						STOP^
  4396	032604	254 04 0 00 032605 		HALT	.+1		;TEST FAILED IF PROGRAM HALTS HERE
  4397	032605	324 00 0 00 032606 		JUMPA	.+1		;IF TEST FAILS, CHANGE THIS INSTRUCTION (JUMPA .+1) TO
  4398									;JUMPA X (X IS THE ADDRESS OF THE FIRST INSTRUCTION
  4399									;IN THE SUBTEST) TO LOOP ON ERROR^
  4400
  4401					;**********
  4402
  4403					;THIS TEST VERIFIES THAT THE RESULT OF A WORD ANDED WITH ITSELF
  4404					;SHOULD BE THAT SAME WORD.  A WORD CONTAINING ALL ZEROS EXCEPT FOR A ONE
  4405					;IN ONLY ONE BIT IS ANDED WITH ITSELF.  THE AC IS THEN CHECKED FOR ITS
  4406					;CONTENTS NONZERO.  IF C(AC)=0, THE 'AND' INSTRUCTION FAILED.  THIS TEST IS REPEATED
  4407					;36 TIMES TO CHECK EACH BIT INDIVIDUALLY.
  4408			006502		SN=SN+1
  4409			000002			ZZ=ZZ+ZZ
  4410						IFE	ZZ,<ZZ=1>
  4411	032606	200 00 0 00 070266 		MOVE	[ZZ]		;LOAD AC WITH ALL ZEROS EXCEPT FOR A ONE IN ONE BIT
  4412	032607	404 00 0 00 000000 		AND			;*AND OF WORD CONTAINING A ONE IN ONE BIT
  4413									;POSITION WITH ITSELF SHOULD RESULT WITH
  4414									;C(AC) NONZERO
  4415	032610	336 00 0 00 000000 		SKIPN			;PASS TEST IF C(AC) NONZERO
DFKAA PDP-10 KL10 BASIC INSTRUCTION DIAGNOSTIC (1) VER 0,2	MACRO %53B(1254)-4 11:50 11-Nov-24 Page 25-1
DFKAA1	MAC	13-Jan-89 10:22		TEST OF BOOLEAN INSTRUCTIONS (SETM, SETZ, AND, XOR, EQV)

  4416						STOP^
  4417	032611	254 04 0 00 032612 		HALT	.+1		;TEST FAILED IF PROGRAM HALTS HERE
  4418	032612	324 00 0 00 032613 		JUMPA	.+1		;IF TEST FAILS, CHANGE THIS INSTRUCTION (JUMPA .+1) TO
  4419									;JUMPA X (X IS THE ADDRESS OF THE FIRST INSTRUCTION
  4420									;IN THE SUBTEST) TO LOOP ON ERROR^
  4421
  4422					;**********
  4423
  4424					;THIS TEST VERIFIES THAT THE RESULT OF A WORD ANDED WITH ITSELF
  4425					;SHOULD BE THAT SAME WORD.  A WORD CONTAINING ALL ZEROS EXCEPT FOR A ONE
  4426					;IN ONLY ONE BIT IS ANDED WITH ITSELF.  THE AC IS THEN CHECKED FOR ITS
  4427					;CONTENTS NONZERO.  IF C(AC)=0, THE 'AND' INSTRUCTION FAILED.  THIS TEST IS REPEATED
  4428					;36 TIMES TO CHECK EACH BIT INDIVIDUALLY.
  4429			006503		SN=SN+1
  4430			000004			ZZ=ZZ+ZZ
  4431						IFE	ZZ,<ZZ=1>
  4432	032613	200 00 0 00 070267 		MOVE	[ZZ]		;LOAD AC WITH ALL ZEROS EXCEPT FOR A ONE IN ONE BIT
  4433	032614	404 00 0 00 000000 		AND			;*AND OF WORD CONTAINING A ONE IN ONE BIT
  4434									;POSITION WITH ITSELF SHOULD RESULT WITH
  4435									;C(AC) NONZERO
  4436	032615	336 00 0 00 000000 		SKIPN			;PASS TEST IF C(AC) NONZERO
  4437						STOP^
  4438	032616	254 04 0 00 032617 		HALT	.+1		;TEST FAILED IF PROGRAM HALTS HERE
  4439	032617	324 00 0 00 032620 		JUMPA	.+1		;IF TEST FAILS, CHANGE THIS INSTRUCTION (JUMPA .+1) TO
  4440									;JUMPA X (X IS THE ADDRESS OF THE FIRST INSTRUCTION
  4441									;IN THE SUBTEST) TO LOOP ON ERROR^
  4442
  4443					;**********
  4444
  4445					;THIS TEST VERIFIES THAT THE RESULT OF A WORD ANDED WITH ITSELF
  4446					;SHOULD BE THAT SAME WORD.  A WORD CONTAINING ALL ZEROS EXCEPT FOR A ONE
  4447					;IN ONLY ONE BIT IS ANDED WITH ITSELF.  THE AC IS THEN CHECKED FOR ITS
  4448					;CONTENTS NONZERO.  IF C(AC)=0, THE 'AND' INSTRUCTION FAILED.  THIS TEST IS REPEATED
  4449					;36 TIMES TO CHECK EACH BIT INDIVIDUALLY.
  4450			006504		SN=SN+1
  4451			000010			ZZ=ZZ+ZZ
  4452						IFE	ZZ,<ZZ=1>
  4453	032620	200 00 0 00 070270 		MOVE	[ZZ]		;LOAD AC WITH ALL ZEROS EXCEPT FOR A ONE IN ONE BIT
  4454	032621	404 00 0 00 000000 		AND			;*AND OF WORD CONTAINING A ONE IN ONE BIT
  4455									;POSITION WITH ITSELF SHOULD RESULT WITH
  4456									;C(AC) NONZERO
  4457	032622	336 00 0 00 000000 		SKIPN			;PASS TEST IF C(AC) NONZERO
  4458						STOP^
  4459	032623	254 04 0 00 032624 		HALT	.+1		;TEST FAILED IF PROGRAM HALTS HERE
  4460	032624	324 00 0 00 032625 		JUMPA	.+1		;IF TEST FAILS, CHANGE THIS INSTRUCTION (JUMPA .+1) TO
  4461									;JUMPA X (X IS THE ADDRESS OF THE FIRST INSTRUCTION
  4462									;IN THE SUBTEST) TO LOOP ON ERROR^
  4463
  4464					;**********
  4465
  4466					;THIS TEST VERIFIES THAT THE RESULT OF A WORD ANDED WITH ITSELF
  4467					;SHOULD BE THAT SAME WORD.  A WORD CONTAINING ALL ZEROS EXCEPT FOR A ONE
  4468					;IN ONLY ONE BIT IS ANDED WITH ITSELF.  THE AC IS THEN CHECKED FOR ITS
  4469					;CONTENTS NONZERO.  IF C(AC)=0, THE 'AND' INSTRUCTION FAILED.  THIS TEST IS REPEATED
  4470					;36 TIMES TO CHECK EACH BIT INDIVIDUALLY.
DFKAA PDP-10 KL10 BASIC INSTRUCTION DIAGNOSTIC (1) VER 0,2	MACRO %53B(1254)-4 11:50 11-Nov-24 Page 25-2
DFKAA1	MAC	13-Jan-89 10:22		TEST OF BOOLEAN INSTRUCTIONS (SETM, SETZ, AND, XOR, EQV)

  4471			006505		SN=SN+1
  4472			000020			ZZ=ZZ+ZZ
  4473						IFE	ZZ,<ZZ=1>
  4474	032625	200 00 0 00 070271 		MOVE	[ZZ]		;LOAD AC WITH ALL ZEROS EXCEPT FOR A ONE IN ONE BIT
  4475	032626	404 00 0 00 000000 		AND			;*AND OF WORD CONTAINING A ONE IN ONE BIT
  4476									;POSITION WITH ITSELF SHOULD RESULT WITH
  4477									;C(AC) NONZERO
  4478	032627	336 00 0 00 000000 		SKIPN			;PASS TEST IF C(AC) NONZERO
  4479						STOP^
  4480	032630	254 04 0 00 032631 		HALT	.+1		;TEST FAILED IF PROGRAM HALTS HERE
  4481	032631	324 00 0 00 032632 		JUMPA	.+1		;IF TEST FAILS, CHANGE THIS INSTRUCTION (JUMPA .+1) TO
  4482									;JUMPA X (X IS THE ADDRESS OF THE FIRST INSTRUCTION
  4483									;IN THE SUBTEST) TO LOOP ON ERROR^
  4484
  4485					;**********
  4486
  4487					;THIS TEST VERIFIES THAT THE RESULT OF A WORD ANDED WITH ITSELF
  4488					;SHOULD BE THAT SAME WORD.  A WORD CONTAINING ALL ZEROS EXCEPT FOR A ONE
  4489					;IN ONLY ONE BIT IS ANDED WITH ITSELF.  THE AC IS THEN CHECKED FOR ITS
  4490					;CONTENTS NONZERO.  IF C(AC)=0, THE 'AND' INSTRUCTION FAILED.  THIS TEST IS REPEATED
  4491					;36 TIMES TO CHECK EACH BIT INDIVIDUALLY.
  4492			006506		SN=SN+1
  4493			000040			ZZ=ZZ+ZZ
  4494						IFE	ZZ,<ZZ=1>
  4495	032632	200 00 0 00 070272 		MOVE	[ZZ]		;LOAD AC WITH ALL ZEROS EXCEPT FOR A ONE IN ONE BIT
  4496	032633	404 00 0 00 000000 		AND			;*AND OF WORD CONTAINING A ONE IN ONE BIT
  4497									;POSITION WITH ITSELF SHOULD RESULT WITH
  4498									;C(AC) NONZERO
  4499	032634	336 00 0 00 000000 		SKIPN			;PASS TEST IF C(AC) NONZERO
  4500						STOP^
  4501	032635	254 04 0 00 032636 		HALT	.+1		;TEST FAILED IF PROGRAM HALTS HERE
  4502	032636	324 00 0 00 032637 		JUMPA	.+1		;IF TEST FAILS, CHANGE THIS INSTRUCTION (JUMPA .+1) TO
  4503									;JUMPA X (X IS THE ADDRESS OF THE FIRST INSTRUCTION
  4504									;IN THE SUBTEST) TO LOOP ON ERROR^
  4505
  4506					;**********
  4507
  4508					;THIS TEST VERIFIES THAT THE RESULT OF A WORD ANDED WITH ITSELF
  4509					;SHOULD BE THAT SAME WORD.  A WORD CONTAINING ALL ZEROS EXCEPT FOR A ONE
  4510					;IN ONLY ONE BIT IS ANDED WITH ITSELF.  THE AC IS THEN CHECKED FOR ITS
  4511					;CONTENTS NONZERO.  IF C(AC)=0, THE 'AND' INSTRUCTION FAILED.  THIS TEST IS REPEATED
  4512					;36 TIMES TO CHECK EACH BIT INDIVIDUALLY.
  4513			006507		SN=SN+1
  4514			000100			ZZ=ZZ+ZZ
  4515						IFE	ZZ,<ZZ=1>
  4516	032637	200 00 0 00 070273 		MOVE	[ZZ]		;LOAD AC WITH ALL ZEROS EXCEPT FOR A ONE IN ONE BIT
  4517	032640	404 00 0 00 000000 		AND			;*AND OF WORD CONTAINING A ONE IN ONE BIT
  4518									;POSITION WITH ITSELF SHOULD RESULT WITH
  4519									;C(AC) NONZERO
  4520	032641	336 00 0 00 000000 		SKIPN			;PASS TEST IF C(AC) NONZERO
  4521						STOP^
  4522	032642	254 04 0 00 032643 		HALT	.+1		;TEST FAILED IF PROGRAM HALTS HERE
  4523	032643	324 00 0 00 032644 		JUMPA	.+1		;IF TEST FAILS, CHANGE THIS INSTRUCTION (JUMPA .+1) TO
  4524									;JUMPA X (X IS THE ADDRESS OF THE FIRST INSTRUCTION
  4525									;IN THE SUBTEST) TO LOOP ON ERROR^
DFKAA PDP-10 KL10 BASIC INSTRUCTION DIAGNOSTIC (1) VER 0,2	MACRO %53B(1254)-4 11:50 11-Nov-24 Page 25-3
DFKAA1	MAC	13-Jan-89 10:22		TEST OF BOOLEAN INSTRUCTIONS (SETM, SETZ, AND, XOR, EQV)

  4526
  4527					;**********
  4528
  4529					;THIS TEST VERIFIES THAT THE RESULT OF A WORD ANDED WITH ITSELF
  4530					;SHOULD BE THAT SAME WORD.  A WORD CONTAINING ALL ZEROS EXCEPT FOR A ONE
  4531					;IN ONLY ONE BIT IS ANDED WITH ITSELF.  THE AC IS THEN CHECKED FOR ITS
  4532					;CONTENTS NONZERO.  IF C(AC)=0, THE 'AND' INSTRUCTION FAILED.  THIS TEST IS REPEATED
  4533					;36 TIMES TO CHECK EACH BIT INDIVIDUALLY.
  4534			006510		SN=SN+1
  4535			000200			ZZ=ZZ+ZZ
  4536						IFE	ZZ,<ZZ=1>
  4537	032644	200 00 0 00 070274 		MOVE	[ZZ]		;LOAD AC WITH ALL ZEROS EXCEPT FOR A ONE IN ONE BIT
  4538	032645	404 00 0 00 000000 		AND			;*AND OF WORD CONTAINING A ONE IN ONE BIT
  4539									;POSITION WITH ITSELF SHOULD RESULT WITH
  4540									;C(AC) NONZERO
  4541	032646	336 00 0 00 000000 		SKIPN			;PASS TEST IF C(AC) NONZERO
  4542						STOP^
  4543	032647	254 04 0 00 032650 		HALT	.+1		;TEST FAILED IF PROGRAM HALTS HERE
  4544	032650	324 00 0 00 032651 		JUMPA	.+1		;IF TEST FAILS, CHANGE THIS INSTRUCTION (JUMPA .+1) TO
  4545									;JUMPA X (X IS THE ADDRESS OF THE FIRST INSTRUCTION
  4546									;IN THE SUBTEST) TO LOOP ON ERROR^
  4547
  4548					;**********
  4549
  4550					;THIS TEST VERIFIES THAT THE RESULT OF A WORD ANDED WITH ITSELF
  4551					;SHOULD BE THAT SAME WORD.  A WORD CONTAINING ALL ZEROS EXCEPT FOR A ONE
  4552					;IN ONLY ONE BIT IS ANDED WITH ITSELF.  THE AC IS THEN CHECKED FOR ITS
  4553					;CONTENTS NONZERO.  IF C(AC)=0, THE 'AND' INSTRUCTION FAILED.  THIS TEST IS REPEATED
  4554					;36 TIMES TO CHECK EACH BIT INDIVIDUALLY.
  4555			006511		SN=SN+1
  4556			000400			ZZ=ZZ+ZZ
  4557						IFE	ZZ,<ZZ=1>
  4558	032651	200 00 0 00 070275 		MOVE	[ZZ]		;LOAD AC WITH ALL ZEROS EXCEPT FOR A ONE IN ONE BIT
  4559	032652	404 00 0 00 000000 		AND			;*AND OF WORD CONTAINING A ONE IN ONE BIT
  4560									;POSITION WITH ITSELF SHOULD RESULT WITH
  4561									;C(AC) NONZERO
  4562	032653	336 00 0 00 000000 		SKIPN			;PASS TEST IF C(AC) NONZERO
  4563						STOP^
  4564	032654	254 04 0 00 032655 		HALT	.+1		;TEST FAILED IF PROGRAM HALTS HERE
  4565	032655	324 00 0 00 032656 		JUMPA	.+1		;IF TEST FAILS, CHANGE THIS INSTRUCTION (JUMPA .+1) TO
  4566									;JUMPA X (X IS THE ADDRESS OF THE FIRST INSTRUCTION
  4567									;IN THE SUBTEST) TO LOOP ON ERROR^
  4568
  4569					;**********
  4570
  4571					;THIS TEST VERIFIES THAT THE RESULT OF A WORD ANDED WITH ITSELF
  4572					;SHOULD BE THAT SAME WORD.  A WORD CONTAINING ALL ZEROS EXCEPT FOR A ONE
  4573					;IN ONLY ONE BIT IS ANDED WITH ITSELF.  THE AC IS THEN CHECKED FOR ITS
  4574					;CONTENTS NONZERO.  IF C(AC)=0, THE 'AND' INSTRUCTION FAILED.  THIS TEST IS REPEATED
  4575					;36 TIMES TO CHECK EACH BIT INDIVIDUALLY.
  4576			006512		SN=SN+1
  4577			001000			ZZ=ZZ+ZZ
  4578						IFE	ZZ,<ZZ=1>
  4579	032656	200 00 0 00 070276 		MOVE	[ZZ]		;LOAD AC WITH ALL ZEROS EXCEPT FOR A ONE IN ONE BIT
  4580	032657	404 00 0 00 000000 		AND			;*AND OF WORD CONTAINING A ONE IN ONE BIT
DFKAA PDP-10 KL10 BASIC INSTRUCTION DIAGNOSTIC (1) VER 0,2	MACRO %53B(1254)-4 11:50 11-Nov-24 Page 25-4
DFKAA1	MAC	13-Jan-89 10:22		TEST OF BOOLEAN INSTRUCTIONS (SETM, SETZ, AND, XOR, EQV)

  4581									;POSITION WITH ITSELF SHOULD RESULT WITH
  4582									;C(AC) NONZERO
  4583	032660	336 00 0 00 000000 		SKIPN			;PASS TEST IF C(AC) NONZERO
  4584						STOP^
  4585	032661	254 04 0 00 032662 		HALT	.+1		;TEST FAILED IF PROGRAM HALTS HERE
  4586	032662	324 00 0 00 032663 		JUMPA	.+1		;IF TEST FAILS, CHANGE THIS INSTRUCTION (JUMPA .+1) TO
  4587									;JUMPA X (X IS THE ADDRESS OF THE FIRST INSTRUCTION
  4588									;IN THE SUBTEST) TO LOOP ON ERROR^
  4589
  4590					;**********
  4591
  4592					;THIS TEST VERIFIES THAT THE RESULT OF A WORD ANDED WITH ITSELF
  4593					;SHOULD BE THAT SAME WORD.  A WORD CONTAINING ALL ZEROS EXCEPT FOR A ONE
  4594					;IN ONLY ONE BIT IS ANDED WITH ITSELF.  THE AC IS THEN CHECKED FOR ITS
  4595					;CONTENTS NONZERO.  IF C(AC)=0, THE 'AND' INSTRUCTION FAILED.  THIS TEST IS REPEATED
  4596					;36 TIMES TO CHECK EACH BIT INDIVIDUALLY.
  4597			006513		SN=SN+1
  4598			002000			ZZ=ZZ+ZZ
  4599						IFE	ZZ,<ZZ=1>
  4600	032663	200 00 0 00 070277 		MOVE	[ZZ]		;LOAD AC WITH ALL ZEROS EXCEPT FOR A ONE IN ONE BIT
  4601	032664	404 00 0 00 000000 		AND			;*AND OF WORD CONTAINING A ONE IN ONE BIT
  4602									;POSITION WITH ITSELF SHOULD RESULT WITH
  4603									;C(AC) NONZERO
  4604	032665	336 00 0 00 000000 		SKIPN			;PASS TEST IF C(AC) NONZERO
  4605						STOP^
  4606	032666	254 04 0 00 032667 		HALT	.+1		;TEST FAILED IF PROGRAM HALTS HERE
  4607	032667	324 00 0 00 032670 		JUMPA	.+1		;IF TEST FAILS, CHANGE THIS INSTRUCTION (JUMPA .+1) TO
  4608									;JUMPA X (X IS THE ADDRESS OF THE FIRST INSTRUCTION
  4609									;IN THE SUBTEST) TO LOOP ON ERROR^
  4610
  4611					;**********
  4612
  4613					;THIS TEST VERIFIES THAT THE RESULT OF A WORD ANDED WITH ITSELF
  4614					;SHOULD BE THAT SAME WORD.  A WORD CONTAINING ALL ZEROS EXCEPT FOR A ONE
  4615					;IN ONLY ONE BIT IS ANDED WITH ITSELF.  THE AC IS THEN CHECKED FOR ITS
  4616					;CONTENTS NONZERO.  IF C(AC)=0, THE 'AND' INSTRUCTION FAILED.  THIS TEST IS REPEATED
  4617					;36 TIMES TO CHECK EACH BIT INDIVIDUALLY.
  4618			006514		SN=SN+1
  4619			004000			ZZ=ZZ+ZZ
  4620						IFE	ZZ,<ZZ=1>
  4621	032670	200 00 0 00 070300 		MOVE	[ZZ]		;LOAD AC WITH ALL ZEROS EXCEPT FOR A ONE IN ONE BIT
  4622	032671	404 00 0 00 000000 		AND			;*AND OF WORD CONTAINING A ONE IN ONE BIT
  4623									;POSITION WITH ITSELF SHOULD RESULT WITH
  4624									;C(AC) NONZERO
  4625	032672	336 00 0 00 000000 		SKIPN			;PASS TEST IF C(AC) NONZERO
  4626						STOP^
  4627	032673	254 04 0 00 032674 		HALT	.+1		;TEST FAILED IF PROGRAM HALTS HERE
  4628	032674	324 00 0 00 032675 		JUMPA	.+1		;IF TEST FAILS, CHANGE THIS INSTRUCTION (JUMPA .+1) TO
  4629									;JUMPA X (X IS THE ADDRESS OF THE FIRST INSTRUCTION
  4630									;IN THE SUBTEST) TO LOOP ON ERROR^
  4631
  4632					;**********
  4633
  4634					;THIS TEST VERIFIES THAT THE RESULT OF A WORD ANDED WITH ITSELF
  4635					;SHOULD BE THAT SAME WORD.  A WORD CONTAINING ALL ZEROS EXCEPT FOR A ONE
DFKAA PDP-10 KL10 BASIC INSTRUCTION DIAGNOSTIC (1) VER 0,2	MACRO %53B(1254)-4 11:50 11-Nov-24 Page 25-5
DFKAA1	MAC	13-Jan-89 10:22		TEST OF BOOLEAN INSTRUCTIONS (SETM, SETZ, AND, XOR, EQV)

  4636					;IN ONLY ONE BIT IS ANDED WITH ITSELF.  THE AC IS THEN CHECKED FOR ITS
  4637					;CONTENTS NONZERO.  IF C(AC)=0, THE 'AND' INSTRUCTION FAILED.  THIS TEST IS REPEATED
  4638					;36 TIMES TO CHECK EACH BIT INDIVIDUALLY.
  4639			006515		SN=SN+1
  4640			010000			ZZ=ZZ+ZZ
  4641						IFE	ZZ,<ZZ=1>
  4642	032675	200 00 0 00 070301 		MOVE	[ZZ]		;LOAD AC WITH ALL ZEROS EXCEPT FOR A ONE IN ONE BIT
  4643	032676	404 00 0 00 000000 		AND			;*AND OF WORD CONTAINING A ONE IN ONE BIT
  4644									;POSITION WITH ITSELF SHOULD RESULT WITH
  4645									;C(AC) NONZERO
  4646	032677	336 00 0 00 000000 		SKIPN			;PASS TEST IF C(AC) NONZERO
  4647						STOP^
  4648	032700	254 04 0 00 032701 		HALT	.+1		;TEST FAILED IF PROGRAM HALTS HERE
  4649	032701	324 00 0 00 032702 		JUMPA	.+1		;IF TEST FAILS, CHANGE THIS INSTRUCTION (JUMPA .+1) TO
  4650									;JUMPA X (X IS THE ADDRESS OF THE FIRST INSTRUCTION
  4651									;IN THE SUBTEST) TO LOOP ON ERROR^
  4652
  4653					;**********
  4654
  4655					;THIS TEST VERIFIES THAT THE RESULT OF A WORD ANDED WITH ITSELF
  4656					;SHOULD BE THAT SAME WORD.  A WORD CONTAINING ALL ZEROS EXCEPT FOR A ONE
  4657					;IN ONLY ONE BIT IS ANDED WITH ITSELF.  THE AC IS THEN CHECKED FOR ITS
  4658					;CONTENTS NONZERO.  IF C(AC)=0, THE 'AND' INSTRUCTION FAILED.  THIS TEST IS REPEATED
  4659					;36 TIMES TO CHECK EACH BIT INDIVIDUALLY.
  4660			006516		SN=SN+1
  4661			020000			ZZ=ZZ+ZZ
  4662						IFE	ZZ,<ZZ=1>
  4663	032702	200 00 0 00 070302 		MOVE	[ZZ]		;LOAD AC WITH ALL ZEROS EXCEPT FOR A ONE IN ONE BIT
  4664	032703	404 00 0 00 000000 		AND			;*AND OF WORD CONTAINING A ONE IN ONE BIT
  4665									;POSITION WITH ITSELF SHOULD RESULT WITH
  4666									;C(AC) NONZERO
  4667	032704	336 00 0 00 000000 		SKIPN			;PASS TEST IF C(AC) NONZERO
  4668						STOP^
  4669	032705	254 04 0 00 032706 		HALT	.+1		;TEST FAILED IF PROGRAM HALTS HERE
  4670	032706	324 00 0 00 032707 		JUMPA	.+1		;IF TEST FAILS, CHANGE THIS INSTRUCTION (JUMPA .+1) TO
  4671									;JUMPA X (X IS THE ADDRESS OF THE FIRST INSTRUCTION
  4672									;IN THE SUBTEST) TO LOOP ON ERROR^
  4673
  4674					;**********
  4675
  4676					;THIS TEST VERIFIES THAT THE RESULT OF A WORD ANDED WITH ITSELF
  4677					;SHOULD BE THAT SAME WORD.  A WORD CONTAINING ALL ZEROS EXCEPT FOR A ONE
  4678					;IN ONLY ONE BIT IS ANDED WITH ITSELF.  THE AC IS THEN CHECKED FOR ITS
  4679					;CONTENTS NONZERO.  IF C(AC)=0, THE 'AND' INSTRUCTION FAILED.  THIS TEST IS REPEATED
  4680					;36 TIMES TO CHECK EACH BIT INDIVIDUALLY.
  4681			006517		SN=SN+1
  4682			040000			ZZ=ZZ+ZZ
  4683						IFE	ZZ,<ZZ=1>
  4684	032707	200 00 0 00 070303 		MOVE	[ZZ]		;LOAD AC WITH ALL ZEROS EXCEPT FOR A ONE IN ONE BIT
  4685	032710	404 00 0 00 000000 		AND			;*AND OF WORD CONTAINING A ONE IN ONE BIT
  4686									;POSITION WITH ITSELF SHOULD RESULT WITH
  4687									;C(AC) NONZERO
  4688	032711	336 00 0 00 000000 		SKIPN			;PASS TEST IF C(AC) NONZERO
  4689						STOP^
  4690	032712	254 04 0 00 032713 		HALT	.+1		;TEST FAILED IF PROGRAM HALTS HERE
DFKAA PDP-10 KL10 BASIC INSTRUCTION DIAGNOSTIC (1) VER 0,2	MACRO %53B(1254)-4 11:50 11-Nov-24 Page 25-6
DFKAA1	MAC	13-Jan-89 10:22		TEST OF BOOLEAN INSTRUCTIONS (SETM, SETZ, AND, XOR, EQV)

  4691	032713	324 00 0 00 032714 		JUMPA	.+1		;IF TEST FAILS, CHANGE THIS INSTRUCTION (JUMPA .+1) TO
  4692									;JUMPA X (X IS THE ADDRESS OF THE FIRST INSTRUCTION
  4693									;IN THE SUBTEST) TO LOOP ON ERROR^
  4694
  4695					;**********
  4696
  4697					;THIS TEST VERIFIES THAT THE RESULT OF A WORD ANDED WITH ITSELF
  4698					;SHOULD BE THAT SAME WORD.  A WORD CONTAINING ALL ZEROS EXCEPT FOR A ONE
  4699					;IN ONLY ONE BIT IS ANDED WITH ITSELF.  THE AC IS THEN CHECKED FOR ITS
  4700					;CONTENTS NONZERO.  IF C(AC)=0, THE 'AND' INSTRUCTION FAILED.  THIS TEST IS REPEATED
  4701					;36 TIMES TO CHECK EACH BIT INDIVIDUALLY.
  4702			006520		SN=SN+1
  4703			100000			ZZ=ZZ+ZZ
  4704						IFE	ZZ,<ZZ=1>
  4705	032714	200 00 0 00 070304 		MOVE	[ZZ]		;LOAD AC WITH ALL ZEROS EXCEPT FOR A ONE IN ONE BIT
  4706	032715	404 00 0 00 000000 		AND			;*AND OF WORD CONTAINING A ONE IN ONE BIT
  4707									;POSITION WITH ITSELF SHOULD RESULT WITH
  4708									;C(AC) NONZERO
  4709	032716	336 00 0 00 000000 		SKIPN			;PASS TEST IF C(AC) NONZERO
  4710						STOP^
  4711	032717	254 04 0 00 032720 		HALT	.+1		;TEST FAILED IF PROGRAM HALTS HERE
  4712	032720	324 00 0 00 032721 		JUMPA	.+1		;IF TEST FAILS, CHANGE THIS INSTRUCTION (JUMPA .+1) TO
  4713									;JUMPA X (X IS THE ADDRESS OF THE FIRST INSTRUCTION
  4714									;IN THE SUBTEST) TO LOOP ON ERROR^
  4715
  4716					;**********
  4717
  4718					;THIS TEST VERIFIES THAT THE RESULT OF A WORD ANDED WITH ITSELF
  4719					;SHOULD BE THAT SAME WORD.  A WORD CONTAINING ALL ZEROS EXCEPT FOR A ONE
  4720					;IN ONLY ONE BIT IS ANDED WITH ITSELF.  THE AC IS THEN CHECKED FOR ITS
  4721					;CONTENTS NONZERO.  IF C(AC)=0, THE 'AND' INSTRUCTION FAILED.  THIS TEST IS REPEATED
  4722					;36 TIMES TO CHECK EACH BIT INDIVIDUALLY.
  4723			006521		SN=SN+1
  4724			200000			ZZ=ZZ+ZZ
  4725						IFE	ZZ,<ZZ=1>
  4726	032721	200 00 0 00 070305 		MOVE	[ZZ]		;LOAD AC WITH ALL ZEROS EXCEPT FOR A ONE IN ONE BIT
  4727	032722	404 00 0 00 000000 		AND			;*AND OF WORD CONTAINING A ONE IN ONE BIT
  4728									;POSITION WITH ITSELF SHOULD RESULT WITH
  4729									;C(AC) NONZERO
  4730	032723	336 00 0 00 000000 		SKIPN			;PASS TEST IF C(AC) NONZERO
  4731						STOP^
  4732	032724	254 04 0 00 032725 		HALT	.+1		;TEST FAILED IF PROGRAM HALTS HERE
  4733	032725	324 00 0 00 032726 		JUMPA	.+1		;IF TEST FAILS, CHANGE THIS INSTRUCTION (JUMPA .+1) TO
  4734									;JUMPA X (X IS THE ADDRESS OF THE FIRST INSTRUCTION
  4735									;IN THE SUBTEST) TO LOOP ON ERROR^
  4736
  4737					;**********
  4738
  4739					;THIS TEST VERIFIES THAT THE RESULT OF A WORD ANDED WITH ITSELF
  4740					;SHOULD BE THAT SAME WORD.  A WORD CONTAINING ALL ZEROS EXCEPT FOR A ONE
  4741					;IN ONLY ONE BIT IS ANDED WITH ITSELF.  THE AC IS THEN CHECKED FOR ITS
  4742					;CONTENTS NONZERO.  IF C(AC)=0, THE 'AND' INSTRUCTION FAILED.  THIS TEST IS REPEATED
  4743					;36 TIMES TO CHECK EACH BIT INDIVIDUALLY.
  4744			006522		SN=SN+1
  4745			400000			ZZ=ZZ+ZZ
DFKAA PDP-10 KL10 BASIC INSTRUCTION DIAGNOSTIC (1) VER 0,2	MACRO %53B(1254)-4 11:50 11-Nov-24 Page 25-7
DFKAA1	MAC	13-Jan-89 10:22		TEST OF BOOLEAN INSTRUCTIONS (SETM, SETZ, AND, XOR, EQV)

  4746						IFE	ZZ,<ZZ=1>
  4747	032726	200 00 0 00 070306 		MOVE	[ZZ]		;LOAD AC WITH ALL ZEROS EXCEPT FOR A ONE IN ONE BIT
  4748	032727	404 00 0 00 000000 		AND			;*AND OF WORD CONTAINING A ONE IN ONE BIT
  4749									;POSITION WITH ITSELF SHOULD RESULT WITH
  4750									;C(AC) NONZERO
  4751	032730	336 00 0 00 000000 		SKIPN			;PASS TEST IF C(AC) NONZERO
  4752						STOP^
  4753	032731	254 04 0 00 032732 		HALT	.+1		;TEST FAILED IF PROGRAM HALTS HERE
  4754	032732	324 00 0 00 032733 		JUMPA	.+1		;IF TEST FAILS, CHANGE THIS INSTRUCTION (JUMPA .+1) TO
  4755									;JUMPA X (X IS THE ADDRESS OF THE FIRST INSTRUCTION
  4756									;IN THE SUBTEST) TO LOOP ON ERROR^
  4757
  4758					;**********
  4759
  4760					;THIS TEST VERIFIES THAT THE RESULT OF A WORD ANDED WITH ITSELF
  4761					;SHOULD BE THAT SAME WORD.  A WORD CONTAINING ALL ZEROS EXCEPT FOR A ONE
  4762					;IN ONLY ONE BIT IS ANDED WITH ITSELF.  THE AC IS THEN CHECKED FOR ITS
  4763					;CONTENTS NONZERO.  IF C(AC)=0, THE 'AND' INSTRUCTION FAILED.  THIS TEST IS REPEATED
  4764					;36 TIMES TO CHECK EACH BIT INDIVIDUALLY.
  4765			006523		SN=SN+1
  4766		000001	000000			ZZ=ZZ+ZZ
  4767						IFE	ZZ,<ZZ=1>
  4768	032733	200 00 0 00 070307 		MOVE	[ZZ]		;LOAD AC WITH ALL ZEROS EXCEPT FOR A ONE IN ONE BIT
  4769	032734	404 00 0 00 000000 		AND			;*AND OF WORD CONTAINING A ONE IN ONE BIT
  4770									;POSITION WITH ITSELF SHOULD RESULT WITH
  4771									;C(AC) NONZERO
  4772	032735	336 00 0 00 000000 		SKIPN			;PASS TEST IF C(AC) NONZERO
  4773						STOP^
  4774	032736	254 04 0 00 032737 		HALT	.+1		;TEST FAILED IF PROGRAM HALTS HERE
  4775	032737	324 00 0 00 032740 		JUMPA	.+1		;IF TEST FAILS, CHANGE THIS INSTRUCTION (JUMPA .+1) TO
  4776									;JUMPA X (X IS THE ADDRESS OF THE FIRST INSTRUCTION
  4777									;IN THE SUBTEST) TO LOOP ON ERROR^
  4778
  4779					;**********
  4780
  4781					;THIS TEST VERIFIES THAT THE RESULT OF A WORD ANDED WITH ITSELF
  4782					;SHOULD BE THAT SAME WORD.  A WORD CONTAINING ALL ZEROS EXCEPT FOR A ONE
  4783					;IN ONLY ONE BIT IS ANDED WITH ITSELF.  THE AC IS THEN CHECKED FOR ITS
  4784					;CONTENTS NONZERO.  IF C(AC)=0, THE 'AND' INSTRUCTION FAILED.  THIS TEST IS REPEATED
  4785					;36 TIMES TO CHECK EACH BIT INDIVIDUALLY.
  4786			006524		SN=SN+1
  4787		000002	000000			ZZ=ZZ+ZZ
  4788						IFE	ZZ,<ZZ=1>
  4789	032740	200 00 0 00 070310 		MOVE	[ZZ]		;LOAD AC WITH ALL ZEROS EXCEPT FOR A ONE IN ONE BIT
  4790	032741	404 00 0 00 000000 		AND			;*AND OF WORD CONTAINING A ONE IN ONE BIT
  4791									;POSITION WITH ITSELF SHOULD RESULT WITH
  4792									;C(AC) NONZERO
  4793	032742	336 00 0 00 000000 		SKIPN			;PASS TEST IF C(AC) NONZERO
  4794						STOP^
  4795	032743	254 04 0 00 032744 		HALT	.+1		;TEST FAILED IF PROGRAM HALTS HERE
  4796	032744	324 00 0 00 032745 		JUMPA	.+1		;IF TEST FAILS, CHANGE THIS INSTRUCTION (JUMPA .+1) TO
  4797									;JUMPA X (X IS THE ADDRESS OF THE FIRST INSTRUCTION
  4798									;IN THE SUBTEST) TO LOOP ON ERROR^
  4799
  4800					;**********
DFKAA PDP-10 KL10 BASIC INSTRUCTION DIAGNOSTIC (1) VER 0,2	MACRO %53B(1254)-4 11:50 11-Nov-24 Page 25-8
DFKAA1	MAC	13-Jan-89 10:22		TEST OF BOOLEAN INSTRUCTIONS (SETM, SETZ, AND, XOR, EQV)

  4801
  4802					;THIS TEST VERIFIES THAT THE RESULT OF A WORD ANDED WITH ITSELF
  4803					;SHOULD BE THAT SAME WORD.  A WORD CONTAINING ALL ZEROS EXCEPT FOR A ONE
  4804					;IN ONLY ONE BIT IS ANDED WITH ITSELF.  THE AC IS THEN CHECKED FOR ITS
  4805					;CONTENTS NONZERO.  IF C(AC)=0, THE 'AND' INSTRUCTION FAILED.  THIS TEST IS REPEATED
  4806					;36 TIMES TO CHECK EACH BIT INDIVIDUALLY.
  4807			006525		SN=SN+1
  4808		000004	000000			ZZ=ZZ+ZZ
  4809						IFE	ZZ,<ZZ=1>
  4810	032745	200 00 0 00 070311 		MOVE	[ZZ]		;LOAD AC WITH ALL ZEROS EXCEPT FOR A ONE IN ONE BIT
  4811	032746	404 00 0 00 000000 		AND			;*AND OF WORD CONTAINING A ONE IN ONE BIT
  4812									;POSITION WITH ITSELF SHOULD RESULT WITH
  4813									;C(AC) NONZERO
  4814	032747	336 00 0 00 000000 		SKIPN			;PASS TEST IF C(AC) NONZERO
  4815						STOP^
  4816	032750	254 04 0 00 032751 		HALT	.+1		;TEST FAILED IF PROGRAM HALTS HERE
  4817	032751	324 00 0 00 032752 		JUMPA	.+1		;IF TEST FAILS, CHANGE THIS INSTRUCTION (JUMPA .+1) TO
  4818									;JUMPA X (X IS THE ADDRESS OF THE FIRST INSTRUCTION
  4819									;IN THE SUBTEST) TO LOOP ON ERROR^
  4820
  4821					;**********
  4822
  4823					;THIS TEST VERIFIES THAT THE RESULT OF A WORD ANDED WITH ITSELF
  4824					;SHOULD BE THAT SAME WORD.  A WORD CONTAINING ALL ZEROS EXCEPT FOR A ONE
  4825					;IN ONLY ONE BIT IS ANDED WITH ITSELF.  THE AC IS THEN CHECKED FOR ITS
  4826					;CONTENTS NONZERO.  IF C(AC)=0, THE 'AND' INSTRUCTION FAILED.  THIS TEST IS REPEATED
  4827					;36 TIMES TO CHECK EACH BIT INDIVIDUALLY.
  4828			006526		SN=SN+1
  4829		000010	000000			ZZ=ZZ+ZZ
  4830						IFE	ZZ,<ZZ=1>
  4831	032752	200 00 0 00 070312 		MOVE	[ZZ]		;LOAD AC WITH ALL ZEROS EXCEPT FOR A ONE IN ONE BIT
  4832	032753	404 00 0 00 000000 		AND			;*AND OF WORD CONTAINING A ONE IN ONE BIT
  4833									;POSITION WITH ITSELF SHOULD RESULT WITH
  4834									;C(AC) NONZERO
  4835	032754	336 00 0 00 000000 		SKIPN			;PASS TEST IF C(AC) NONZERO
  4836						STOP^
  4837	032755	254 04 0 00 032756 		HALT	.+1		;TEST FAILED IF PROGRAM HALTS HERE
  4838	032756	324 00 0 00 032757 		JUMPA	.+1		;IF TEST FAILS, CHANGE THIS INSTRUCTION (JUMPA .+1) TO
  4839									;JUMPA X (X IS THE ADDRESS OF THE FIRST INSTRUCTION
  4840									;IN THE SUBTEST) TO LOOP ON ERROR^
  4841
  4842					;**********
  4843
  4844					;THIS TEST VERIFIES THAT THE RESULT OF A WORD ANDED WITH ITSELF
  4845					;SHOULD BE THAT SAME WORD.  A WORD CONTAINING ALL ZEROS EXCEPT FOR A ONE
  4846					;IN ONLY ONE BIT IS ANDED WITH ITSELF.  THE AC IS THEN CHECKED FOR ITS
  4847					;CONTENTS NONZERO.  IF C(AC)=0, THE 'AND' INSTRUCTION FAILED.  THIS TEST IS REPEATED
  4848					;36 TIMES TO CHECK EACH BIT INDIVIDUALLY.
  4849			006527		SN=SN+1
  4850		000020	000000			ZZ=ZZ+ZZ
  4851						IFE	ZZ,<ZZ=1>
  4852	032757	200 00 0 00 070313 		MOVE	[ZZ]		;LOAD AC WITH ALL ZEROS EXCEPT FOR A ONE IN ONE BIT
  4853	032760	404 00 0 00 000000 		AND			;*AND OF WORD CONTAINING A ONE IN ONE BIT
  4854									;POSITION WITH ITSELF SHOULD RESULT WITH
  4855									;C(AC) NONZERO
DFKAA PDP-10 KL10 BASIC INSTRUCTION DIAGNOSTIC (1) VER 0,2	MACRO %53B(1254)-4 11:50 11-Nov-24 Page 25-9
DFKAA1	MAC	13-Jan-89 10:22		TEST OF BOOLEAN INSTRUCTIONS (SETM, SETZ, AND, XOR, EQV)

  4856	032761	336 00 0 00 000000 		SKIPN			;PASS TEST IF C(AC) NONZERO
  4857						STOP^
  4858	032762	254 04 0 00 032763 		HALT	.+1		;TEST FAILED IF PROGRAM HALTS HERE
  4859	032763	324 00 0 00 032764 		JUMPA	.+1		;IF TEST FAILS, CHANGE THIS INSTRUCTION (JUMPA .+1) TO
  4860									;JUMPA X (X IS THE ADDRESS OF THE FIRST INSTRUCTION
  4861									;IN THE SUBTEST) TO LOOP ON ERROR^
  4862
  4863					;**********
  4864
  4865					;THIS TEST VERIFIES THAT THE RESULT OF A WORD ANDED WITH ITSELF
  4866					;SHOULD BE THAT SAME WORD.  A WORD CONTAINING ALL ZEROS EXCEPT FOR A ONE
  4867					;IN ONLY ONE BIT IS ANDED WITH ITSELF.  THE AC IS THEN CHECKED FOR ITS
  4868					;CONTENTS NONZERO.  IF C(AC)=0, THE 'AND' INSTRUCTION FAILED.  THIS TEST IS REPEATED
  4869					;36 TIMES TO CHECK EACH BIT INDIVIDUALLY.
  4870			006530		SN=SN+1
  4871		000040	000000			ZZ=ZZ+ZZ
  4872						IFE	ZZ,<ZZ=1>
  4873	032764	200 00 0 00 070314 		MOVE	[ZZ]		;LOAD AC WITH ALL ZEROS EXCEPT FOR A ONE IN ONE BIT
  4874	032765	404 00 0 00 000000 		AND			;*AND OF WORD CONTAINING A ONE IN ONE BIT
  4875									;POSITION WITH ITSELF SHOULD RESULT WITH
  4876									;C(AC) NONZERO
  4877	032766	336 00 0 00 000000 		SKIPN			;PASS TEST IF C(AC) NONZERO
  4878						STOP^
  4879	032767	254 04 0 00 032770 		HALT	.+1		;TEST FAILED IF PROGRAM HALTS HERE
  4880	032770	324 00 0 00 032771 		JUMPA	.+1		;IF TEST FAILS, CHANGE THIS INSTRUCTION (JUMPA .+1) TO
  4881									;JUMPA X (X IS THE ADDRESS OF THE FIRST INSTRUCTION
  4882									;IN THE SUBTEST) TO LOOP ON ERROR^
  4883
  4884					;**********
  4885
  4886					;THIS TEST VERIFIES THAT THE RESULT OF A WORD ANDED WITH ITSELF
  4887					;SHOULD BE THAT SAME WORD.  A WORD CONTAINING ALL ZEROS EXCEPT FOR A ONE
  4888					;IN ONLY ONE BIT IS ANDED WITH ITSELF.  THE AC IS THEN CHECKED FOR ITS
  4889					;CONTENTS NONZERO.  IF C(AC)=0, THE 'AND' INSTRUCTION FAILED.  THIS TEST IS REPEATED
  4890					;36 TIMES TO CHECK EACH BIT INDIVIDUALLY.
  4891			006531		SN=SN+1
  4892		000100	000000			ZZ=ZZ+ZZ
  4893						IFE	ZZ,<ZZ=1>
  4894	032771	200 00 0 00 070315 		MOVE	[ZZ]		;LOAD AC WITH ALL ZEROS EXCEPT FOR A ONE IN ONE BIT
  4895	032772	404 00 0 00 000000 		AND			;*AND OF WORD CONTAINING A ONE IN ONE BIT
  4896									;POSITION WITH ITSELF SHOULD RESULT WITH
  4897									;C(AC) NONZERO
  4898	032773	336 00 0 00 000000 		SKIPN			;PASS TEST IF C(AC) NONZERO
  4899						STOP^
  4900	032774	254 04 0 00 032775 		HALT	.+1		;TEST FAILED IF PROGRAM HALTS HERE
  4901	032775	324 00 0 00 032776 		JUMPA	.+1		;IF TEST FAILS, CHANGE THIS INSTRUCTION (JUMPA .+1) TO
  4902									;JUMPA X (X IS THE ADDRESS OF THE FIRST INSTRUCTION
  4903									;IN THE SUBTEST) TO LOOP ON ERROR^
  4904
  4905					;**********
  4906
  4907					;THIS TEST VERIFIES THAT THE RESULT OF A WORD ANDED WITH ITSELF
  4908					;SHOULD BE THAT SAME WORD.  A WORD CONTAINING ALL ZEROS EXCEPT FOR A ONE
  4909					;IN ONLY ONE BIT IS ANDED WITH ITSELF.  THE AC IS THEN CHECKED FOR ITS
  4910					;CONTENTS NONZERO.  IF C(AC)=0, THE 'AND' INSTRUCTION FAILED.  THIS TEST IS REPEATED
DFKAA PDP-10 KL10 BASIC INSTRUCTION DIAGNOSTIC (1) VER 0,2	MACRO %53B(1254)-4 11:50 11-Nov-24 Page 25-10
DFKAA1	MAC	13-Jan-89 10:22		TEST OF BOOLEAN INSTRUCTIONS (SETM, SETZ, AND, XOR, EQV)

  4911					;36 TIMES TO CHECK EACH BIT INDIVIDUALLY.
  4912			006532		SN=SN+1
  4913		000200	000000			ZZ=ZZ+ZZ
  4914						IFE	ZZ,<ZZ=1>
  4915	032776	200 00 0 00 070316 		MOVE	[ZZ]		;LOAD AC WITH ALL ZEROS EXCEPT FOR A ONE IN ONE BIT
  4916	032777	404 00 0 00 000000 		AND			;*AND OF WORD CONTAINING A ONE IN ONE BIT
  4917									;POSITION WITH ITSELF SHOULD RESULT WITH
  4918									;C(AC) NONZERO
  4919	033000	336 00 0 00 000000 		SKIPN			;PASS TEST IF C(AC) NONZERO
  4920						STOP^
  4921	033001	254 04 0 00 033002 		HALT	.+1		;TEST FAILED IF PROGRAM HALTS HERE
  4922	033002	324 00 0 00 033003 		JUMPA	.+1		;IF TEST FAILS, CHANGE THIS INSTRUCTION (JUMPA .+1) TO
  4923									;JUMPA X (X IS THE ADDRESS OF THE FIRST INSTRUCTION
  4924									;IN THE SUBTEST) TO LOOP ON ERROR^
  4925
  4926					;**********
  4927
  4928					;THIS TEST VERIFIES THAT THE RESULT OF A WORD ANDED WITH ITSELF
  4929					;SHOULD BE THAT SAME WORD.  A WORD CONTAINING ALL ZEROS EXCEPT FOR A ONE
  4930					;IN ONLY ONE BIT IS ANDED WITH ITSELF.  THE AC IS THEN CHECKED FOR ITS
  4931					;CONTENTS NONZERO.  IF C(AC)=0, THE 'AND' INSTRUCTION FAILED.  THIS TEST IS REPEATED
  4932					;36 TIMES TO CHECK EACH BIT INDIVIDUALLY.
  4933			006533		SN=SN+1
  4934		000400	000000			ZZ=ZZ+ZZ
  4935						IFE	ZZ,<ZZ=1>
  4936	033003	200 00 0 00 070264 		MOVE	[ZZ]		;LOAD AC WITH ALL ZEROS EXCEPT FOR A ONE IN ONE BIT
  4937	033004	404 00 0 00 000000 		AND			;*AND OF WORD CONTAINING A ONE IN ONE BIT
  4938									;POSITION WITH ITSELF SHOULD RESULT WITH
  4939									;C(AC) NONZERO
  4940	033005	336 00 0 00 000000 		SKIPN			;PASS TEST IF C(AC) NONZERO
  4941						STOP^
  4942	033006	254 04 0 00 033007 		HALT	.+1		;TEST FAILED IF PROGRAM HALTS HERE
  4943	033007	324 00 0 00 033010 		JUMPA	.+1		;IF TEST FAILS, CHANGE THIS INSTRUCTION (JUMPA .+1) TO
  4944									;JUMPA X (X IS THE ADDRESS OF THE FIRST INSTRUCTION
  4945									;IN THE SUBTEST) TO LOOP ON ERROR^
  4946
  4947					;**********
  4948
  4949					;THIS TEST VERIFIES THAT THE RESULT OF A WORD ANDED WITH ITSELF
  4950					;SHOULD BE THAT SAME WORD.  A WORD CONTAINING ALL ZEROS EXCEPT FOR A ONE
  4951					;IN ONLY ONE BIT IS ANDED WITH ITSELF.  THE AC IS THEN CHECKED FOR ITS
  4952					;CONTENTS NONZERO.  IF C(AC)=0, THE 'AND' INSTRUCTION FAILED.  THIS TEST IS REPEATED
  4953					;36 TIMES TO CHECK EACH BIT INDIVIDUALLY.
  4954			006534		SN=SN+1
  4955		001000	000000			ZZ=ZZ+ZZ
  4956						IFE	ZZ,<ZZ=1>
  4957	033010	200 00 0 00 070317 		MOVE	[ZZ]		;LOAD AC WITH ALL ZEROS EXCEPT FOR A ONE IN ONE BIT
  4958	033011	404 00 0 00 000000 		AND			;*AND OF WORD CONTAINING A ONE IN ONE BIT
  4959									;POSITION WITH ITSELF SHOULD RESULT WITH
  4960									;C(AC) NONZERO
  4961	033012	336 00 0 00 000000 		SKIPN			;PASS TEST IF C(AC) NONZERO
  4962						STOP^
  4963	033013	254 04 0 00 033014 		HALT	.+1		;TEST FAILED IF PROGRAM HALTS HERE
  4964	033014	324 00 0 00 033015 		JUMPA	.+1		;IF TEST FAILS, CHANGE THIS INSTRUCTION (JUMPA .+1) TO
  4965									;JUMPA X (X IS THE ADDRESS OF THE FIRST INSTRUCTION
DFKAA PDP-10 KL10 BASIC INSTRUCTION DIAGNOSTIC (1) VER 0,2	MACRO %53B(1254)-4 11:50 11-Nov-24 Page 25-11
DFKAA1	MAC	13-Jan-89 10:22		TEST OF BOOLEAN INSTRUCTIONS (SETM, SETZ, AND, XOR, EQV)

  4966									;IN THE SUBTEST) TO LOOP ON ERROR^
  4967
  4968					;**********
  4969
  4970					;THIS TEST VERIFIES THAT THE RESULT OF A WORD ANDED WITH ITSELF
  4971					;SHOULD BE THAT SAME WORD.  A WORD CONTAINING ALL ZEROS EXCEPT FOR A ONE
  4972					;IN ONLY ONE BIT IS ANDED WITH ITSELF.  THE AC IS THEN CHECKED FOR ITS
  4973					;CONTENTS NONZERO.  IF C(AC)=0, THE 'AND' INSTRUCTION FAILED.  THIS TEST IS REPEATED
  4974					;36 TIMES TO CHECK EACH BIT INDIVIDUALLY.
  4975			006535		SN=SN+1
  4976		002000	000000			ZZ=ZZ+ZZ
  4977						IFE	ZZ,<ZZ=1>
  4978	033015	200 00 0 00 070320 		MOVE	[ZZ]		;LOAD AC WITH ALL ZEROS EXCEPT FOR A ONE IN ONE BIT
  4979	033016	404 00 0 00 000000 		AND			;*AND OF WORD CONTAINING A ONE IN ONE BIT
  4980									;POSITION WITH ITSELF SHOULD RESULT WITH
  4981									;C(AC) NONZERO
  4982	033017	336 00 0 00 000000 		SKIPN			;PASS TEST IF C(AC) NONZERO
  4983						STOP^
  4984	033020	254 04 0 00 033021 		HALT	.+1		;TEST FAILED IF PROGRAM HALTS HERE
  4985	033021	324 00 0 00 033022 		JUMPA	.+1		;IF TEST FAILS, CHANGE THIS INSTRUCTION (JUMPA .+1) TO
  4986									;JUMPA X (X IS THE ADDRESS OF THE FIRST INSTRUCTION
  4987									;IN THE SUBTEST) TO LOOP ON ERROR^
  4988
  4989					;**********
  4990
  4991					;THIS TEST VERIFIES THAT THE RESULT OF A WORD ANDED WITH ITSELF
  4992					;SHOULD BE THAT SAME WORD.  A WORD CONTAINING ALL ZEROS EXCEPT FOR A ONE
  4993					;IN ONLY ONE BIT IS ANDED WITH ITSELF.  THE AC IS THEN CHECKED FOR ITS
  4994					;CONTENTS NONZERO.  IF C(AC)=0, THE 'AND' INSTRUCTION FAILED.  THIS TEST IS REPEATED
  4995					;36 TIMES TO CHECK EACH BIT INDIVIDUALLY.
  4996			006536		SN=SN+1
  4997		004000	000000			ZZ=ZZ+ZZ
  4998						IFE	ZZ,<ZZ=1>
  4999	033022	200 00 0 00 070321 		MOVE	[ZZ]		;LOAD AC WITH ALL ZEROS EXCEPT FOR A ONE IN ONE BIT
  5000	033023	404 00 0 00 000000 		AND			;*AND OF WORD CONTAINING A ONE IN ONE BIT
  5001									;POSITION WITH ITSELF SHOULD RESULT WITH
  5002									;C(AC) NONZERO
  5003	033024	336 00 0 00 000000 		SKIPN			;PASS TEST IF C(AC) NONZERO
  5004						STOP^
  5005	033025	254 04 0 00 033026 		HALT	.+1		;TEST FAILED IF PROGRAM HALTS HERE
  5006	033026	324 00 0 00 033027 		JUMPA	.+1		;IF TEST FAILS, CHANGE THIS INSTRUCTION (JUMPA .+1) TO
  5007									;JUMPA X (X IS THE ADDRESS OF THE FIRST INSTRUCTION
  5008									;IN THE SUBTEST) TO LOOP ON ERROR^
  5009
  5010					;**********
  5011
  5012					;THIS TEST VERIFIES THAT THE RESULT OF A WORD ANDED WITH ITSELF
  5013					;SHOULD BE THAT SAME WORD.  A WORD CONTAINING ALL ZEROS EXCEPT FOR A ONE
  5014					;IN ONLY ONE BIT IS ANDED WITH ITSELF.  THE AC IS THEN CHECKED FOR ITS
  5015					;CONTENTS NONZERO.  IF C(AC)=0, THE 'AND' INSTRUCTION FAILED.  THIS TEST IS REPEATED
  5016					;36 TIMES TO CHECK EACH BIT INDIVIDUALLY.
  5017			006537		SN=SN+1
  5018		010000	000000			ZZ=ZZ+ZZ
  5019						IFE	ZZ,<ZZ=1>
  5020	033027	200 00 0 00 070322 		MOVE	[ZZ]		;LOAD AC WITH ALL ZEROS EXCEPT FOR A ONE IN ONE BIT
DFKAA PDP-10 KL10 BASIC INSTRUCTION DIAGNOSTIC (1) VER 0,2	MACRO %53B(1254)-4 11:50 11-Nov-24 Page 25-12
DFKAA1	MAC	13-Jan-89 10:22		TEST OF BOOLEAN INSTRUCTIONS (SETM, SETZ, AND, XOR, EQV)

  5021	033030	404 00 0 00 000000 		AND			;*AND OF WORD CONTAINING A ONE IN ONE BIT
  5022									;POSITION WITH ITSELF SHOULD RESULT WITH
  5023									;C(AC) NONZERO
  5024	033031	336 00 0 00 000000 		SKIPN			;PASS TEST IF C(AC) NONZERO
  5025						STOP^
  5026	033032	254 04 0 00 033033 		HALT	.+1		;TEST FAILED IF PROGRAM HALTS HERE
  5027	033033	324 00 0 00 033034 		JUMPA	.+1		;IF TEST FAILS, CHANGE THIS INSTRUCTION (JUMPA .+1) TO
  5028									;JUMPA X (X IS THE ADDRESS OF THE FIRST INSTRUCTION
  5029									;IN THE SUBTEST) TO LOOP ON ERROR^
  5030
  5031					;**********
  5032
  5033					;THIS TEST VERIFIES THAT THE RESULT OF A WORD ANDED WITH ITSELF
  5034					;SHOULD BE THAT SAME WORD.  A WORD CONTAINING ALL ZEROS EXCEPT FOR A ONE
  5035					;IN ONLY ONE BIT IS ANDED WITH ITSELF.  THE AC IS THEN CHECKED FOR ITS
  5036					;CONTENTS NONZERO.  IF C(AC)=0, THE 'AND' INSTRUCTION FAILED.  THIS TEST IS REPEATED
  5037					;36 TIMES TO CHECK EACH BIT INDIVIDUALLY.
  5038			006540		SN=SN+1
  5039		020000	000000			ZZ=ZZ+ZZ
  5040						IFE	ZZ,<ZZ=1>
  5041	033034	200 00 0 00 070323 		MOVE	[ZZ]		;LOAD AC WITH ALL ZEROS EXCEPT FOR A ONE IN ONE BIT
  5042	033035	404 00 0 00 000000 		AND			;*AND OF WORD CONTAINING A ONE IN ONE BIT
  5043									;POSITION WITH ITSELF SHOULD RESULT WITH
  5044									;C(AC) NONZERO
  5045	033036	336 00 0 00 000000 		SKIPN			;PASS TEST IF C(AC) NONZERO
  5046						STOP^
  5047	033037	254 04 0 00 033040 		HALT	.+1		;TEST FAILED IF PROGRAM HALTS HERE
  5048	033040	324 00 0 00 033041 		JUMPA	.+1		;IF TEST FAILS, CHANGE THIS INSTRUCTION (JUMPA .+1) TO
  5049									;JUMPA X (X IS THE ADDRESS OF THE FIRST INSTRUCTION
  5050									;IN THE SUBTEST) TO LOOP ON ERROR^
  5051
  5052					;**********
  5053
  5054					;THIS TEST VERIFIES THAT THE RESULT OF A WORD ANDED WITH ITSELF
  5055					;SHOULD BE THAT SAME WORD.  A WORD CONTAINING ALL ZEROS EXCEPT FOR A ONE
  5056					;IN ONLY ONE BIT IS ANDED WITH ITSELF.  THE AC IS THEN CHECKED FOR ITS
  5057					;CONTENTS NONZERO.  IF C(AC)=0, THE 'AND' INSTRUCTION FAILED.  THIS TEST IS REPEATED
  5058					;36 TIMES TO CHECK EACH BIT INDIVIDUALLY.
  5059			006541		SN=SN+1
  5060		040000	000000			ZZ=ZZ+ZZ
  5061						IFE	ZZ,<ZZ=1>
  5062	033041	200 00 0 00 070324 		MOVE	[ZZ]		;LOAD AC WITH ALL ZEROS EXCEPT FOR A ONE IN ONE BIT
  5063	033042	404 00 0 00 000000 		AND			;*AND OF WORD CONTAINING A ONE IN ONE BIT
  5064									;POSITION WITH ITSELF SHOULD RESULT WITH
  5065									;C(AC) NONZERO
  5066	033043	336 00 0 00 000000 		SKIPN			;PASS TEST IF C(AC) NONZERO
  5067						STOP^
  5068	033044	254 04 0 00 033045 		HALT	.+1		;TEST FAILED IF PROGRAM HALTS HERE
  5069	033045	324 00 0 00 033046 		JUMPA	.+1		;IF TEST FAILS, CHANGE THIS INSTRUCTION (JUMPA .+1) TO
  5070									;JUMPA X (X IS THE ADDRESS OF THE FIRST INSTRUCTION
  5071									;IN THE SUBTEST) TO LOOP ON ERROR^
  5072
  5073					;**********
  5074
  5075					;THIS TEST VERIFIES THAT THE RESULT OF A WORD ANDED WITH ITSELF
DFKAA PDP-10 KL10 BASIC INSTRUCTION DIAGNOSTIC (1) VER 0,2	MACRO %53B(1254)-4 11:50 11-Nov-24 Page 25-13
DFKAA1	MAC	13-Jan-89 10:22		TEST OF BOOLEAN INSTRUCTIONS (SETM, SETZ, AND, XOR, EQV)

  5076					;SHOULD BE THAT SAME WORD.  A WORD CONTAINING ALL ZEROS EXCEPT FOR A ONE
  5077					;IN ONLY ONE BIT IS ANDED WITH ITSELF.  THE AC IS THEN CHECKED FOR ITS
  5078					;CONTENTS NONZERO.  IF C(AC)=0, THE 'AND' INSTRUCTION FAILED.  THIS TEST IS REPEATED
  5079					;36 TIMES TO CHECK EACH BIT INDIVIDUALLY.
  5080			006542		SN=SN+1
  5081		100000	000000			ZZ=ZZ+ZZ
  5082						IFE	ZZ,<ZZ=1>
  5083	033046	200 00 0 00 070325 		MOVE	[ZZ]		;LOAD AC WITH ALL ZEROS EXCEPT FOR A ONE IN ONE BIT
  5084	033047	404 00 0 00 000000 		AND			;*AND OF WORD CONTAINING A ONE IN ONE BIT
  5085									;POSITION WITH ITSELF SHOULD RESULT WITH
  5086									;C(AC) NONZERO
  5087	033050	336 00 0 00 000000 		SKIPN			;PASS TEST IF C(AC) NONZERO
  5088						STOP^
  5089	033051	254 04 0 00 033052 		HALT	.+1		;TEST FAILED IF PROGRAM HALTS HERE
  5090	033052	324 00 0 00 033053 		JUMPA	.+1		;IF TEST FAILS, CHANGE THIS INSTRUCTION (JUMPA .+1) TO
  5091									;JUMPA X (X IS THE ADDRESS OF THE FIRST INSTRUCTION
  5092									;IN THE SUBTEST) TO LOOP ON ERROR^
  5093
  5094					;**********
  5095
  5096					;THIS TEST VERIFIES THAT THE RESULT OF A WORD ANDED WITH ITSELF
  5097					;SHOULD BE THAT SAME WORD.  A WORD CONTAINING ALL ZEROS EXCEPT FOR A ONE
  5098					;IN ONLY ONE BIT IS ANDED WITH ITSELF.  THE AC IS THEN CHECKED FOR ITS
  5099					;CONTENTS NONZERO.  IF C(AC)=0, THE 'AND' INSTRUCTION FAILED.  THIS TEST IS REPEATED
  5100					;36 TIMES TO CHECK EACH BIT INDIVIDUALLY.
  5101			006543		SN=SN+1
  5102		200000	000000			ZZ=ZZ+ZZ
  5103						IFE	ZZ,<ZZ=1>
  5104	033053	200 00 0 00 070326 		MOVE	[ZZ]		;LOAD AC WITH ALL ZEROS EXCEPT FOR A ONE IN ONE BIT
  5105	033054	404 00 0 00 000000 		AND			;*AND OF WORD CONTAINING A ONE IN ONE BIT
  5106									;POSITION WITH ITSELF SHOULD RESULT WITH
  5107									;C(AC) NONZERO
  5108	033055	336 00 0 00 000000 		SKIPN			;PASS TEST IF C(AC) NONZERO
  5109						STOP^
  5110	033056	254 04 0 00 033057 		HALT	.+1		;TEST FAILED IF PROGRAM HALTS HERE
  5111	033057	324 00 0 00 033060 		JUMPA	.+1		;IF TEST FAILS, CHANGE THIS INSTRUCTION (JUMPA .+1) TO
  5112									;JUMPA X (X IS THE ADDRESS OF THE FIRST INSTRUCTION
  5113									;IN THE SUBTEST) TO LOOP ON ERROR^
  5114
  5115					;**********
  5116
  5117					;THIS TEST VERIFIES THAT THE RESULT OF A WORD ANDED WITH ITSELF
  5118					;SHOULD BE THAT SAME WORD.  A WORD CONTAINING ALL ZEROS EXCEPT FOR A ONE
  5119					;IN ONLY ONE BIT IS ANDED WITH ITSELF.  THE AC IS THEN CHECKED FOR ITS
  5120					;CONTENTS NONZERO.  IF C(AC)=0, THE 'AND' INSTRUCTION FAILED.  THIS TEST IS REPEATED
  5121					;36 TIMES TO CHECK EACH BIT INDIVIDUALLY.
  5122			006544		SN=SN+1
  5123		400000	000000			ZZ=ZZ+ZZ
  5124						IFE	ZZ,<ZZ=1>
  5125	033060	200 00 0 00 070256 		MOVE	[ZZ]		;LOAD AC WITH ALL ZEROS EXCEPT FOR A ONE IN ONE BIT
  5126	033061	404 00 0 00 000000 		AND			;*AND OF WORD CONTAINING A ONE IN ONE BIT
  5127									;POSITION WITH ITSELF SHOULD RESULT WITH
  5128									;C(AC) NONZERO
  5129	033062	336 00 0 00 000000 		SKIPN			;PASS TEST IF C(AC) NONZERO
  5130						STOP^
DFKAA PDP-10 KL10 BASIC INSTRUCTION DIAGNOSTIC (1) VER 0,2	MACRO %53B(1254)-4 11:50 11-Nov-24 Page 25-14
DFKAA1	MAC	13-Jan-89 10:22		TEST OF BOOLEAN INSTRUCTIONS (SETM, SETZ, AND, XOR, EQV)

  5131	033063	254 04 0 00 033064 		HALT	.+1		;TEST FAILED IF PROGRAM HALTS HERE
  5132	033064	324 00 0 00 033065 		JUMPA	.+1		;IF TEST FAILS, CHANGE THIS INSTRUCTION (JUMPA .+1) TO
  5133									;JUMPA X (X IS THE ADDRESS OF THE FIRST INSTRUCTION
  5134									;IN THE SUBTEST) TO LOOP ON ERROR^
  5135
  5136					;**********
  5137
  5138					;THIS TEST VERIFIES THAT THE RESULT OF THE AND INSTRUCTION WHERE
  5139					;C(AC)=0 AND C(E)=0 AND E OUTSIDE OF THE AC RANGE IS ALL ZEROS IN THE AC.
  5140					;FIRST, THE AC IS CLEARED; THEN, THE C(AC) IS ANDED WITH C(E) WHEN
  5141					;E GREATER THAN 20 AND C(E)=0. THE RESULT SHOULD BE C(AC)=0.
  5142					;IF C(AC) IS NON-ZERO, 'AND' FAILED WITH THE MEMORY OPERAND.
  5143
  5144	033065	200 00 0 00 070253 	A6600:	MOVE	[0]		;PRESET AC TO ALL ZEROS
  5145	033066	404 00 0 00 070253 		AND	[0]		;*AND OF TWO WORDS OF ALL ZEROS
  5146									;SHOULD RESULT IN C(AC)=0
  5147	033067	332 00 0 00 000000 		SKIPE			;PASS TEST IF C(AC)=0
  5148						STOP^
  5149	033070	254 04 0 00 033071 		HALT	.+1		;TEST FAILED IF PROGRAM HALTS HERE
  5150	033071	324 00 0 00 033072 		JUMPA	.+1		;IF TEST FAILS, CHANGE THIS INSTRUCTION (JUMPA .+1) TO
  5151									;JUMPA X (X IS THE ADDRESS OF THE FIRST INSTRUCTION
  5152									;IN THE SUBTEST) TO LOOP ON ERROR^
  5153
  5154					;**********
  5155
  5156					;THIS TEST VERIFIES THAT THE RESULT OF THE AND INSTRUCTION WHERE C(AC)=0
  5157					;AND C(E) IS ALL ONES IS AN AC CONTAINING ALL ZEROS.  FIRST, THE AC IS
  5158					;CLEARED; THEN THE C(AC) IS ANDED WITH AN E CONTAINING ALL ONES, WHERE
  5159					;E IS BEYOND THE AC RANGE.  THE RESULT SHOULD BE C(AC)=0.
  5160					;IF C(AC) IS NON-ZERO, 'AND' FAILED WITH THE MEMORY OPERAND.
  5161
  5162	033072	200 00 0 00 070253 	A6700:	MOVE	[0]		;PRESET AC TO ALL ZEROS
  5163	033073	404 00 0 00 070254 		AND	[-1]		;*AND OF TWO WORDS WHERE C(AC)=0 SHOULD RESULT IN C(AC)=0
  5164	033074	332 00 0 00 000000 		SKIPE			;PASS TEST IF C(AC)=0
  5165						STOP^
  5166	033075	254 04 0 00 033076 		HALT	.+1		;TEST FAILED IF PROGRAM HALTS HERE
  5167	033076	324 00 0 00 033077 		JUMPA	.+1		;IF TEST FAILS, CHANGE THIS INSTRUCTION (JUMPA .+1) TO
  5168									;JUMPA X (X IS THE ADDRESS OF THE FIRST INSTRUCTION
  5169									;IN THE SUBTEST) TO LOOP ON ERROR^
  5170
  5171					;AD FM+EN [ADFP],AD FM+EN A [ADFP],
  5172					;F CYC ACT EN C [F1],IR BOOLE AD FM+F [IR2],
  5173					;IR BOOLE [IR1],IRXX(1,4,5,11,13,16) [IR2]
  5174
  5175					;**********
DFKAA PDP-10 KL10 BASIC INSTRUCTION DIAGNOSTIC (1) VER 0,2	MACRO %53B(1254)-4 11:50 11-Nov-24 Page 26
DFKAA1	MAC	13-Jan-89 10:22		TEST OF BOOLEAN INSTRUCTIONS (SETM, SETZ, AND, XOR, EQV)

  5176					;THIS TEST VERIFIES THAT THE RESULT OF THE AND INSTRUCTION WHERE C(E)=0
  5177					;AND C(AC) IS ALL ONES IS AN AC CONTAINING ALL ZEROS. FIRST, THE
  5178					;AC IS SET TO ALL ONES; THEN, THE AC IS ANDED WITH AN E CONTAINING ALL
  5179					;ZEROS, WHERE E IS BEYOND THE AC RANGE.  THE RESULT SHOULD BE C(AC)=0.
  5180					;IF C(AC) IS NON-ZERO, 'AND' FAILED WITH THE MEMORY OPERAND.
  5181
  5182	033077	200 00 0 00 070254 	A7000:	MOVE	[-1]		;PRESET AC TO ALL ONES
  5183	033100	404 00 0 00 070253 		AND	[0]		;*AND OF TWO WORDS WHERE C(E)=0 SHOULD RESULT IN C(AC)=0
  5184	033101	332 00 0 00 000000 		SKIPE			;PASS TEST IF C(AC)=0
  5185						STOP^
  5186	033102	254 04 0 00 033103 		HALT	.+1		;TEST FAILED IF PROGRAM HALTS HERE
  5187	033103	324 00 0 00 033104 		JUMPA	.+1		;IF TEST FAILS, CHANGE THIS INSTRUCTION (JUMPA .+1) TO
  5188									;JUMPA X (X IS THE ADDRESS OF THE FIRST INSTRUCTION
  5189									;IN THE SUBTEST) TO LOOP ON ERROR^
  5190
  5191					;**********
  5192
  5193					;THIS TEST VERIFIES THAT THE RESULT OF THE AND INSTRUCTION WHERE C(E) IS
  5194					;ALL ONES AND C(AC) IS ALL ONES IS AN AC CONTAINING ALL ONES.  FIRST, THE
  5195					;AC IS SET TO ALL ONES; THEN, C(AC) IS ANDED WITH AN E CONTAINING ALL
  5196					;ONES.  THE AC IS THEN CHECKED FOR A NON-ZERO RESULT.
  5197					;IF C(AC) IS ZERO, 'AND' FAILED WITH THE MEMORY OPERAND.
  5198
  5199	033104	200 00 0 00 070254 	A7100:	MOVE	[-1]		;PRELOAD AC WITH ALL ONES
  5200	033105	404 00 0 00 070254 		AND	[-1]		;*AND OF TWO WORDS OF ALL ONES SHOULD
  5201									;RESULT IN C(AC)=ALL ONES
  5202	033106	336 00 0 00 000000 		SKIPN			;PASS TEST IF C(AC) IS NON ZERO
  5203						STOP^
  5204	033107	254 04 0 00 033110 		HALT	.+1		;TEST FAILED IF PROGRAM HALTS HERE
  5205	033110	324 00 0 00 033111 		JUMPA	.+1		;IF TEST FAILS, CHANGE THIS INSTRUCTION (JUMPA .+1) TO
  5206									;JUMPA X (X IS THE ADDRESS OF THE FIRST INSTRUCTION
  5207									;IN THE SUBTEST) TO LOOP ON ERROR^
  5208
  5209					;**********
  5210
  5211					;THIS TEST VERIFIES THAT THE RESULT OF THE XOR INSTRUCTION WHERE
  5212					;C(AC)=0 AND C(E) IS NON-ZERO IS AN AC WHERE CONTENTS IS NON-ZERO.
  5213					;FIRST, THE AC IS CLEARED, THEN, XOR IS EXECUTED WHERE C(E) IS NON-ZERO.
  5214					;THE AC IS THEN CHECKED FOR NON-ZERO CONTENTS.
  5215	033111	200 00 0 00 070253 	A7200:	MOVE	[0]		;CLEAR AC
  5216	033112	430 00 0 00 070332 		XOR	[707070707070]	;*XOR WITH C(AC)=0 AND C(E)=7070707070 SHOULD
  5217									;RESTULT IN C(AC)=707070707070
  5218	033113	336 00 0 00 000000 		SKIPN			;PASS TEST IF C(AC) NON-ZERO
  5219						STOP^
  5220	033114	254 04 0 00 033115 		HALT	.+1		;TEST FAILED IF PROGRAM HALTS HERE
  5221	033115	324 00 0 00 033116 		JUMPA	.+1		;IF TEST FAILS, CHANGE THIS INSTRUCTION (JUMPA .+1) TO
  5222									;JUMPA X (X IS THE ADDRESS OF THE FIRST INSTRUCTION
  5223									;IN THE SUBTEST) TO LOOP ON ERROR^
  5224
  5225					;**********
DFKAA PDP-10 KL10 BASIC INSTRUCTION DIAGNOSTIC (1) VER 0,2	MACRO %53B(1254)-4 11:50 11-Nov-24 Page 27
DFKAA1	MAC	13-Jan-89 10:22		TEST OF BOOLEAN INSTRUCTIONS (SETM, SETZ, AND, XOR, EQV)

  5226			007300		SN=7300
  5227			000000			ZZ=0
  5228
  5229					A7300:	REPEAT	^D36,
  5230					<;THIS TEST VERIFIES THAT THE RESULT OF THE XOR INSTRUCTION WHERE
  5231					;C(AC)=0 AND C(E) IS NON-ZERO IS AN AC WHOSE CONTENTS IS NON-ZERO. THIS
  5232					;TEST IS REPEATED 36 TIMES. EACH TIME THE AC IS CLEARED AND XOR IS EXECUTED
  5233					;WITH ALL BITS OF E CLEAR EXCEPT FOR ONE FLOATING BIT WHICH IS SET TO A ONE.
  5234					;THE AC IS THEN CHECKED FOR A NON-ZERO RESULT.
  5235					SN=SN+1
  5236						ZZ=ZZ+ZZ
  5237						IFE	ZZ,<ZZ=1>
  5238						MOVE	[0]		;CLEAR AC
  5239						XOR	[ZZ]		;*XOR WITH C(AC)=0 AND ONE BIT OF C(E) SET SHOULD
  5240									;RESULT IN C(AC) NONZERO
  5241						SKIPN			;PASS TEST IF C(AC) NON-ZERO
  5242						STOP
  5243
  5244					;**********
  5245					>
  5246					;THIS TEST VERIFIES THAT THE RESULT OF THE XOR INSTRUCTION WHERE
  5247					;C(AC)=0 AND C(E) IS NON-ZERO IS AN AC WHOSE CONTENTS IS NON-ZERO. THIS
  5248					;TEST IS REPEATED 36 TIMES. EACH TIME THE AC IS CLEARED AND XOR IS EXECUTED
  5249					;WITH ALL BITS OF E CLEAR EXCEPT FOR ONE FLOATING BIT WHICH IS SET TO A ONE.
  5250					;THE AC IS THEN CHECKED FOR A NON-ZERO RESULT.
  5251			007301		SN=SN+1
  5252			000000			ZZ=ZZ+ZZ
  5253			000001			IFE	ZZ,<ZZ=1>
  5254	033116	200 00 0 00 070253 		MOVE	[0]		;CLEAR AC
  5255	033117	430 00 0 00 070265 		XOR	[ZZ]		;*XOR WITH C(AC)=0 AND ONE BIT OF C(E) SET SHOULD
  5256									;RESULT IN C(AC) NONZERO
  5257	033120	336 00 0 00 000000 		SKIPN			;PASS TEST IF C(AC) NON-ZERO
  5258						STOP^
  5259	033121	254 04 0 00 033122 		HALT	.+1		;TEST FAILED IF PROGRAM HALTS HERE
  5260	033122	324 00 0 00 033123 		JUMPA	.+1		;IF TEST FAILS, CHANGE THIS INSTRUCTION (JUMPA .+1) TO
  5261									;JUMPA X (X IS THE ADDRESS OF THE FIRST INSTRUCTION
  5262									;IN THE SUBTEST) TO LOOP ON ERROR^
  5263
  5264					;**********
  5265
  5266					;THIS TEST VERIFIES THAT THE RESULT OF THE XOR INSTRUCTION WHERE
  5267					;C(AC)=0 AND C(E) IS NON-ZERO IS AN AC WHOSE CONTENTS IS NON-ZERO. THIS
  5268					;TEST IS REPEATED 36 TIMES. EACH TIME THE AC IS CLEARED AND XOR IS EXECUTED
  5269					;WITH ALL BITS OF E CLEAR EXCEPT FOR ONE FLOATING BIT WHICH IS SET TO A ONE.
  5270					;THE AC IS THEN CHECKED FOR A NON-ZERO RESULT.
  5271			007302		SN=SN+1
  5272			000002			ZZ=ZZ+ZZ
  5273						IFE	ZZ,<ZZ=1>
  5274	033123	200 00 0 00 070253 		MOVE	[0]		;CLEAR AC
  5275	033124	430 00 0 00 070266 		XOR	[ZZ]		;*XOR WITH C(AC)=0 AND ONE BIT OF C(E) SET SHOULD
  5276									;RESULT IN C(AC) NONZERO
  5277	033125	336 00 0 00 000000 		SKIPN			;PASS TEST IF C(AC) NON-ZERO
  5278						STOP^
  5279	033126	254 04 0 00 033127 		HALT	.+1		;TEST FAILED IF PROGRAM HALTS HERE
  5280	033127	324 00 0 00 033130 		JUMPA	.+1		;IF TEST FAILS, CHANGE THIS INSTRUCTION (JUMPA .+1) TO
DFKAA PDP-10 KL10 BASIC INSTRUCTION DIAGNOSTIC (1) VER 0,2	MACRO %53B(1254)-4 11:50 11-Nov-24 Page 27-1
DFKAA1	MAC	13-Jan-89 10:22		TEST OF BOOLEAN INSTRUCTIONS (SETM, SETZ, AND, XOR, EQV)

  5281									;JUMPA X (X IS THE ADDRESS OF THE FIRST INSTRUCTION
  5282									;IN THE SUBTEST) TO LOOP ON ERROR^
  5283
  5284					;**********
  5285
  5286					;THIS TEST VERIFIES THAT THE RESULT OF THE XOR INSTRUCTION WHERE
  5287					;C(AC)=0 AND C(E) IS NON-ZERO IS AN AC WHOSE CONTENTS IS NON-ZERO. THIS
  5288					;TEST IS REPEATED 36 TIMES. EACH TIME THE AC IS CLEARED AND XOR IS EXECUTED
  5289					;WITH ALL BITS OF E CLEAR EXCEPT FOR ONE FLOATING BIT WHICH IS SET TO A ONE.
  5290					;THE AC IS THEN CHECKED FOR A NON-ZERO RESULT.
  5291			007303		SN=SN+1
  5292			000004			ZZ=ZZ+ZZ
  5293						IFE	ZZ,<ZZ=1>
  5294	033130	200 00 0 00 070253 		MOVE	[0]		;CLEAR AC
  5295	033131	430 00 0 00 070267 		XOR	[ZZ]		;*XOR WITH C(AC)=0 AND ONE BIT OF C(E) SET SHOULD
  5296									;RESULT IN C(AC) NONZERO
  5297	033132	336 00 0 00 000000 		SKIPN			;PASS TEST IF C(AC) NON-ZERO
  5298						STOP^
  5299	033133	254 04 0 00 033134 		HALT	.+1		;TEST FAILED IF PROGRAM HALTS HERE
  5300	033134	324 00 0 00 033135 		JUMPA	.+1		;IF TEST FAILS, CHANGE THIS INSTRUCTION (JUMPA .+1) TO
  5301									;JUMPA X (X IS THE ADDRESS OF THE FIRST INSTRUCTION
  5302									;IN THE SUBTEST) TO LOOP ON ERROR^
  5303
  5304					;**********
  5305
  5306					;THIS TEST VERIFIES THAT THE RESULT OF THE XOR INSTRUCTION WHERE
  5307					;C(AC)=0 AND C(E) IS NON-ZERO IS AN AC WHOSE CONTENTS IS NON-ZERO. THIS
  5308					;TEST IS REPEATED 36 TIMES. EACH TIME THE AC IS CLEARED AND XOR IS EXECUTED
  5309					;WITH ALL BITS OF E CLEAR EXCEPT FOR ONE FLOATING BIT WHICH IS SET TO A ONE.
  5310					;THE AC IS THEN CHECKED FOR A NON-ZERO RESULT.
  5311			007304		SN=SN+1
  5312			000010			ZZ=ZZ+ZZ
  5313						IFE	ZZ,<ZZ=1>
  5314	033135	200 00 0 00 070253 		MOVE	[0]		;CLEAR AC
  5315	033136	430 00 0 00 070270 		XOR	[ZZ]		;*XOR WITH C(AC)=0 AND ONE BIT OF C(E) SET SHOULD
  5316									;RESULT IN C(AC) NONZERO
  5317	033137	336 00 0 00 000000 		SKIPN			;PASS TEST IF C(AC) NON-ZERO
  5318						STOP^
  5319	033140	254 04 0 00 033141 		HALT	.+1		;TEST FAILED IF PROGRAM HALTS HERE
  5320	033141	324 00 0 00 033142 		JUMPA	.+1		;IF TEST FAILS, CHANGE THIS INSTRUCTION (JUMPA .+1) TO
  5321									;JUMPA X (X IS THE ADDRESS OF THE FIRST INSTRUCTION
  5322									;IN THE SUBTEST) TO LOOP ON ERROR^
  5323
  5324					;**********
  5325
  5326					;THIS TEST VERIFIES THAT THE RESULT OF THE XOR INSTRUCTION WHERE
  5327					;C(AC)=0 AND C(E) IS NON-ZERO IS AN AC WHOSE CONTENTS IS NON-ZERO. THIS
  5328					;TEST IS REPEATED 36 TIMES. EACH TIME THE AC IS CLEARED AND XOR IS EXECUTED
  5329					;WITH ALL BITS OF E CLEAR EXCEPT FOR ONE FLOATING BIT WHICH IS SET TO A ONE.
  5330					;THE AC IS THEN CHECKED FOR A NON-ZERO RESULT.
  5331			007305		SN=SN+1
  5332			000020			ZZ=ZZ+ZZ
  5333						IFE	ZZ,<ZZ=1>
  5334	033142	200 00 0 00 070253 		MOVE	[0]		;CLEAR AC
  5335	033143	430 00 0 00 070271 		XOR	[ZZ]		;*XOR WITH C(AC)=0 AND ONE BIT OF C(E) SET SHOULD
DFKAA PDP-10 KL10 BASIC INSTRUCTION DIAGNOSTIC (1) VER 0,2	MACRO %53B(1254)-4 11:50 11-Nov-24 Page 27-2
DFKAA1	MAC	13-Jan-89 10:22		TEST OF BOOLEAN INSTRUCTIONS (SETM, SETZ, AND, XOR, EQV)

  5336									;RESULT IN C(AC) NONZERO
  5337	033144	336 00 0 00 000000 		SKIPN			;PASS TEST IF C(AC) NON-ZERO
  5338						STOP^
  5339	033145	254 04 0 00 033146 		HALT	.+1		;TEST FAILED IF PROGRAM HALTS HERE
  5340	033146	324 00 0 00 033147 		JUMPA	.+1		;IF TEST FAILS, CHANGE THIS INSTRUCTION (JUMPA .+1) TO
  5341									;JUMPA X (X IS THE ADDRESS OF THE FIRST INSTRUCTION
  5342									;IN THE SUBTEST) TO LOOP ON ERROR^
  5343
  5344					;**********
  5345
  5346					;THIS TEST VERIFIES THAT THE RESULT OF THE XOR INSTRUCTION WHERE
  5347					;C(AC)=0 AND C(E) IS NON-ZERO IS AN AC WHOSE CONTENTS IS NON-ZERO. THIS
  5348					;TEST IS REPEATED 36 TIMES. EACH TIME THE AC IS CLEARED AND XOR IS EXECUTED
  5349					;WITH ALL BITS OF E CLEAR EXCEPT FOR ONE FLOATING BIT WHICH IS SET TO A ONE.
  5350					;THE AC IS THEN CHECKED FOR A NON-ZERO RESULT.
  5351			007306		SN=SN+1
  5352			000040			ZZ=ZZ+ZZ
  5353						IFE	ZZ,<ZZ=1>
  5354	033147	200 00 0 00 070253 		MOVE	[0]		;CLEAR AC
  5355	033150	430 00 0 00 070272 		XOR	[ZZ]		;*XOR WITH C(AC)=0 AND ONE BIT OF C(E) SET SHOULD
  5356									;RESULT IN C(AC) NONZERO
  5357	033151	336 00 0 00 000000 		SKIPN			;PASS TEST IF C(AC) NON-ZERO
  5358						STOP^
  5359	033152	254 04 0 00 033153 		HALT	.+1		;TEST FAILED IF PROGRAM HALTS HERE
  5360	033153	324 00 0 00 033154 		JUMPA	.+1		;IF TEST FAILS, CHANGE THIS INSTRUCTION (JUMPA .+1) TO
  5361									;JUMPA X (X IS THE ADDRESS OF THE FIRST INSTRUCTION
  5362									;IN THE SUBTEST) TO LOOP ON ERROR^
  5363
  5364					;**********
  5365
  5366					;THIS TEST VERIFIES THAT THE RESULT OF THE XOR INSTRUCTION WHERE
  5367					;C(AC)=0 AND C(E) IS NON-ZERO IS AN AC WHOSE CONTENTS IS NON-ZERO. THIS
  5368					;TEST IS REPEATED 36 TIMES. EACH TIME THE AC IS CLEARED AND XOR IS EXECUTED
  5369					;WITH ALL BITS OF E CLEAR EXCEPT FOR ONE FLOATING BIT WHICH IS SET TO A ONE.
  5370					;THE AC IS THEN CHECKED FOR A NON-ZERO RESULT.
  5371			007307		SN=SN+1
  5372			000100			ZZ=ZZ+ZZ
  5373						IFE	ZZ,<ZZ=1>
  5374	033154	200 00 0 00 070253 		MOVE	[0]		;CLEAR AC
  5375	033155	430 00 0 00 070273 		XOR	[ZZ]		;*XOR WITH C(AC)=0 AND ONE BIT OF C(E) SET SHOULD
  5376									;RESULT IN C(AC) NONZERO
  5377	033156	336 00 0 00 000000 		SKIPN			;PASS TEST IF C(AC) NON-ZERO
  5378						STOP^
  5379	033157	254 04 0 00 033160 		HALT	.+1		;TEST FAILED IF PROGRAM HALTS HERE
  5380	033160	324 00 0 00 033161 		JUMPA	.+1		;IF TEST FAILS, CHANGE THIS INSTRUCTION (JUMPA .+1) TO
  5381									;JUMPA X (X IS THE ADDRESS OF THE FIRST INSTRUCTION
  5382									;IN THE SUBTEST) TO LOOP ON ERROR^
  5383
  5384					;**********
  5385
  5386					;THIS TEST VERIFIES THAT THE RESULT OF THE XOR INSTRUCTION WHERE
  5387					;C(AC)=0 AND C(E) IS NON-ZERO IS AN AC WHOSE CONTENTS IS NON-ZERO. THIS
  5388					;TEST IS REPEATED 36 TIMES. EACH TIME THE AC IS CLEARED AND XOR IS EXECUTED
  5389					;WITH ALL BITS OF E CLEAR EXCEPT FOR ONE FLOATING BIT WHICH IS SET TO A ONE.
  5390					;THE AC IS THEN CHECKED FOR A NON-ZERO RESULT.
DFKAA PDP-10 KL10 BASIC INSTRUCTION DIAGNOSTIC (1) VER 0,2	MACRO %53B(1254)-4 11:50 11-Nov-24 Page 27-3
DFKAA1	MAC	13-Jan-89 10:22		TEST OF BOOLEAN INSTRUCTIONS (SETM, SETZ, AND, XOR, EQV)

  5391			007310		SN=SN+1
  5392			000200			ZZ=ZZ+ZZ
  5393						IFE	ZZ,<ZZ=1>
  5394	033161	200 00 0 00 070253 		MOVE	[0]		;CLEAR AC
  5395	033162	430 00 0 00 070274 		XOR	[ZZ]		;*XOR WITH C(AC)=0 AND ONE BIT OF C(E) SET SHOULD
  5396									;RESULT IN C(AC) NONZERO
  5397	033163	336 00 0 00 000000 		SKIPN			;PASS TEST IF C(AC) NON-ZERO
  5398						STOP^
  5399	033164	254 04 0 00 033165 		HALT	.+1		;TEST FAILED IF PROGRAM HALTS HERE
  5400	033165	324 00 0 00 033166 		JUMPA	.+1		;IF TEST FAILS, CHANGE THIS INSTRUCTION (JUMPA .+1) TO
  5401									;JUMPA X (X IS THE ADDRESS OF THE FIRST INSTRUCTION
  5402									;IN THE SUBTEST) TO LOOP ON ERROR^
  5403
  5404					;**********
  5405
  5406					;THIS TEST VERIFIES THAT THE RESULT OF THE XOR INSTRUCTION WHERE
  5407					;C(AC)=0 AND C(E) IS NON-ZERO IS AN AC WHOSE CONTENTS IS NON-ZERO. THIS
  5408					;TEST IS REPEATED 36 TIMES. EACH TIME THE AC IS CLEARED AND XOR IS EXECUTED
  5409					;WITH ALL BITS OF E CLEAR EXCEPT FOR ONE FLOATING BIT WHICH IS SET TO A ONE.
  5410					;THE AC IS THEN CHECKED FOR A NON-ZERO RESULT.
  5411			007311		SN=SN+1
  5412			000400			ZZ=ZZ+ZZ
  5413						IFE	ZZ,<ZZ=1>
  5414	033166	200 00 0 00 070253 		MOVE	[0]		;CLEAR AC
  5415	033167	430 00 0 00 070275 		XOR	[ZZ]		;*XOR WITH C(AC)=0 AND ONE BIT OF C(E) SET SHOULD
  5416									;RESULT IN C(AC) NONZERO
  5417	033170	336 00 0 00 000000 		SKIPN			;PASS TEST IF C(AC) NON-ZERO
  5418						STOP^
  5419	033171	254 04 0 00 033172 		HALT	.+1		;TEST FAILED IF PROGRAM HALTS HERE
  5420	033172	324 00 0 00 033173 		JUMPA	.+1		;IF TEST FAILS, CHANGE THIS INSTRUCTION (JUMPA .+1) TO
  5421									;JUMPA X (X IS THE ADDRESS OF THE FIRST INSTRUCTION
  5422									;IN THE SUBTEST) TO LOOP ON ERROR^
  5423
  5424					;**********
  5425
  5426					;THIS TEST VERIFIES THAT THE RESULT OF THE XOR INSTRUCTION WHERE
  5427					;C(AC)=0 AND C(E) IS NON-ZERO IS AN AC WHOSE CONTENTS IS NON-ZERO. THIS
  5428					;TEST IS REPEATED 36 TIMES. EACH TIME THE AC IS CLEARED AND XOR IS EXECUTED
  5429					;WITH ALL BITS OF E CLEAR EXCEPT FOR ONE FLOATING BIT WHICH IS SET TO A ONE.
  5430					;THE AC IS THEN CHECKED FOR A NON-ZERO RESULT.
  5431			007312		SN=SN+1
  5432			001000			ZZ=ZZ+ZZ
  5433						IFE	ZZ,<ZZ=1>
  5434	033173	200 00 0 00 070253 		MOVE	[0]		;CLEAR AC
  5435	033174	430 00 0 00 070276 		XOR	[ZZ]		;*XOR WITH C(AC)=0 AND ONE BIT OF C(E) SET SHOULD
  5436									;RESULT IN C(AC) NONZERO
  5437	033175	336 00 0 00 000000 		SKIPN			;PASS TEST IF C(AC) NON-ZERO
  5438						STOP^
  5439	033176	254 04 0 00 033177 		HALT	.+1		;TEST FAILED IF PROGRAM HALTS HERE
  5440	033177	324 00 0 00 033200 		JUMPA	.+1		;IF TEST FAILS, CHANGE THIS INSTRUCTION (JUMPA .+1) TO
  5441									;JUMPA X (X IS THE ADDRESS OF THE FIRST INSTRUCTION
  5442									;IN THE SUBTEST) TO LOOP ON ERROR^
  5443
  5444					;**********
  5445
DFKAA PDP-10 KL10 BASIC INSTRUCTION DIAGNOSTIC (1) VER 0,2	MACRO %53B(1254)-4 11:50 11-Nov-24 Page 27-4
DFKAA1	MAC	13-Jan-89 10:22		TEST OF BOOLEAN INSTRUCTIONS (SETM, SETZ, AND, XOR, EQV)

  5446					;THIS TEST VERIFIES THAT THE RESULT OF THE XOR INSTRUCTION WHERE
  5447					;C(AC)=0 AND C(E) IS NON-ZERO IS AN AC WHOSE CONTENTS IS NON-ZERO. THIS
  5448					;TEST IS REPEATED 36 TIMES. EACH TIME THE AC IS CLEARED AND XOR IS EXECUTED
  5449					;WITH ALL BITS OF E CLEAR EXCEPT FOR ONE FLOATING BIT WHICH IS SET TO A ONE.
  5450					;THE AC IS THEN CHECKED FOR A NON-ZERO RESULT.
  5451			007313		SN=SN+1
  5452			002000			ZZ=ZZ+ZZ
  5453						IFE	ZZ,<ZZ=1>
  5454	033200	200 00 0 00 070253 		MOVE	[0]		;CLEAR AC
  5455	033201	430 00 0 00 070277 		XOR	[ZZ]		;*XOR WITH C(AC)=0 AND ONE BIT OF C(E) SET SHOULD
  5456									;RESULT IN C(AC) NONZERO
  5457	033202	336 00 0 00 000000 		SKIPN			;PASS TEST IF C(AC) NON-ZERO
  5458						STOP^
  5459	033203	254 04 0 00 033204 		HALT	.+1		;TEST FAILED IF PROGRAM HALTS HERE
  5460	033204	324 00 0 00 033205 		JUMPA	.+1		;IF TEST FAILS, CHANGE THIS INSTRUCTION (JUMPA .+1) TO
  5461									;JUMPA X (X IS THE ADDRESS OF THE FIRST INSTRUCTION
  5462									;IN THE SUBTEST) TO LOOP ON ERROR^
  5463
  5464					;**********
  5465
  5466					;THIS TEST VERIFIES THAT THE RESULT OF THE XOR INSTRUCTION WHERE
  5467					;C(AC)=0 AND C(E) IS NON-ZERO IS AN AC WHOSE CONTENTS IS NON-ZERO. THIS
  5468					;TEST IS REPEATED 36 TIMES. EACH TIME THE AC IS CLEARED AND XOR IS EXECUTED
  5469					;WITH ALL BITS OF E CLEAR EXCEPT FOR ONE FLOATING BIT WHICH IS SET TO A ONE.
  5470					;THE AC IS THEN CHECKED FOR A NON-ZERO RESULT.
  5471			007314		SN=SN+1
  5472			004000			ZZ=ZZ+ZZ
  5473						IFE	ZZ,<ZZ=1>
  5474	033205	200 00 0 00 070253 		MOVE	[0]		;CLEAR AC
  5475	033206	430 00 0 00 070300 		XOR	[ZZ]		;*XOR WITH C(AC)=0 AND ONE BIT OF C(E) SET SHOULD
  5476									;RESULT IN C(AC) NONZERO
  5477	033207	336 00 0 00 000000 		SKIPN			;PASS TEST IF C(AC) NON-ZERO
  5478						STOP^
  5479	033210	254 04 0 00 033211 		HALT	.+1		;TEST FAILED IF PROGRAM HALTS HERE
  5480	033211	324 00 0 00 033212 		JUMPA	.+1		;IF TEST FAILS, CHANGE THIS INSTRUCTION (JUMPA .+1) TO
  5481									;JUMPA X (X IS THE ADDRESS OF THE FIRST INSTRUCTION
  5482									;IN THE SUBTEST) TO LOOP ON ERROR^
  5483
  5484					;**********
  5485
  5486					;THIS TEST VERIFIES THAT THE RESULT OF THE XOR INSTRUCTION WHERE
  5487					;C(AC)=0 AND C(E) IS NON-ZERO IS AN AC WHOSE CONTENTS IS NON-ZERO. THIS
  5488					;TEST IS REPEATED 36 TIMES. EACH TIME THE AC IS CLEARED AND XOR IS EXECUTED
  5489					;WITH ALL BITS OF E CLEAR EXCEPT FOR ONE FLOATING BIT WHICH IS SET TO A ONE.
  5490					;THE AC IS THEN CHECKED FOR A NON-ZERO RESULT.
  5491			007315		SN=SN+1
  5492			010000			ZZ=ZZ+ZZ
  5493						IFE	ZZ,<ZZ=1>
  5494	033212	200 00 0 00 070253 		MOVE	[0]		;CLEAR AC
  5495	033213	430 00 0 00 070301 		XOR	[ZZ]		;*XOR WITH C(AC)=0 AND ONE BIT OF C(E) SET SHOULD
  5496									;RESULT IN C(AC) NONZERO
  5497	033214	336 00 0 00 000000 		SKIPN			;PASS TEST IF C(AC) NON-ZERO
  5498						STOP^
  5499	033215	254 04 0 00 033216 		HALT	.+1		;TEST FAILED IF PROGRAM HALTS HERE
  5500	033216	324 00 0 00 033217 		JUMPA	.+1		;IF TEST FAILS, CHANGE THIS INSTRUCTION (JUMPA .+1) TO
DFKAA PDP-10 KL10 BASIC INSTRUCTION DIAGNOSTIC (1) VER 0,2	MACRO %53B(1254)-4 11:50 11-Nov-24 Page 27-5
DFKAA1	MAC	13-Jan-89 10:22		TEST OF BOOLEAN INSTRUCTIONS (SETM, SETZ, AND, XOR, EQV)

  5501									;JUMPA X (X IS THE ADDRESS OF THE FIRST INSTRUCTION
  5502									;IN THE SUBTEST) TO LOOP ON ERROR^
  5503
  5504					;**********
  5505
  5506					;THIS TEST VERIFIES THAT THE RESULT OF THE XOR INSTRUCTION WHERE
  5507					;C(AC)=0 AND C(E) IS NON-ZERO IS AN AC WHOSE CONTENTS IS NON-ZERO. THIS
  5508					;TEST IS REPEATED 36 TIMES. EACH TIME THE AC IS CLEARED AND XOR IS EXECUTED
  5509					;WITH ALL BITS OF E CLEAR EXCEPT FOR ONE FLOATING BIT WHICH IS SET TO A ONE.
  5510					;THE AC IS THEN CHECKED FOR A NON-ZERO RESULT.
  5511			007316		SN=SN+1
  5512			020000			ZZ=ZZ+ZZ
  5513						IFE	ZZ,<ZZ=1>
  5514	033217	200 00 0 00 070253 		MOVE	[0]		;CLEAR AC
  5515	033220	430 00 0 00 070302 		XOR	[ZZ]		;*XOR WITH C(AC)=0 AND ONE BIT OF C(E) SET SHOULD
  5516									;RESULT IN C(AC) NONZERO
  5517	033221	336 00 0 00 000000 		SKIPN			;PASS TEST IF C(AC) NON-ZERO
  5518						STOP^
  5519	033222	254 04 0 00 033223 		HALT	.+1		;TEST FAILED IF PROGRAM HALTS HERE
  5520	033223	324 00 0 00 033224 		JUMPA	.+1		;IF TEST FAILS, CHANGE THIS INSTRUCTION (JUMPA .+1) TO
  5521									;JUMPA X (X IS THE ADDRESS OF THE FIRST INSTRUCTION
  5522									;IN THE SUBTEST) TO LOOP ON ERROR^
  5523
  5524					;**********
  5525
  5526					;THIS TEST VERIFIES THAT THE RESULT OF THE XOR INSTRUCTION WHERE
  5527					;C(AC)=0 AND C(E) IS NON-ZERO IS AN AC WHOSE CONTENTS IS NON-ZERO. THIS
  5528					;TEST IS REPEATED 36 TIMES. EACH TIME THE AC IS CLEARED AND XOR IS EXECUTED
  5529					;WITH ALL BITS OF E CLEAR EXCEPT FOR ONE FLOATING BIT WHICH IS SET TO A ONE.
  5530					;THE AC IS THEN CHECKED FOR A NON-ZERO RESULT.
  5531			007317		SN=SN+1
  5532			040000			ZZ=ZZ+ZZ
  5533						IFE	ZZ,<ZZ=1>
  5534	033224	200 00 0 00 070253 		MOVE	[0]		;CLEAR AC
  5535	033225	430 00 0 00 070303 		XOR	[ZZ]		;*XOR WITH C(AC)=0 AND ONE BIT OF C(E) SET SHOULD
  5536									;RESULT IN C(AC) NONZERO
  5537	033226	336 00 0 00 000000 		SKIPN			;PASS TEST IF C(AC) NON-ZERO
  5538						STOP^
  5539	033227	254 04 0 00 033230 		HALT	.+1		;TEST FAILED IF PROGRAM HALTS HERE
  5540	033230	324 00 0 00 033231 		JUMPA	.+1		;IF TEST FAILS, CHANGE THIS INSTRUCTION (JUMPA .+1) TO
  5541									;JUMPA X (X IS THE ADDRESS OF THE FIRST INSTRUCTION
  5542									;IN THE SUBTEST) TO LOOP ON ERROR^
  5543
  5544					;**********
  5545
  5546					;THIS TEST VERIFIES THAT THE RESULT OF THE XOR INSTRUCTION WHERE
  5547					;C(AC)=0 AND C(E) IS NON-ZERO IS AN AC WHOSE CONTENTS IS NON-ZERO. THIS
  5548					;TEST IS REPEATED 36 TIMES. EACH TIME THE AC IS CLEARED AND XOR IS EXECUTED
  5549					;WITH ALL BITS OF E CLEAR EXCEPT FOR ONE FLOATING BIT WHICH IS SET TO A ONE.
  5550					;THE AC IS THEN CHECKED FOR A NON-ZERO RESULT.
  5551			007320		SN=SN+1
  5552			100000			ZZ=ZZ+ZZ
  5553						IFE	ZZ,<ZZ=1>
  5554	033231	200 00 0 00 070253 		MOVE	[0]		;CLEAR AC
  5555	033232	430 00 0 00 070304 		XOR	[ZZ]		;*XOR WITH C(AC)=0 AND ONE BIT OF C(E) SET SHOULD
DFKAA PDP-10 KL10 BASIC INSTRUCTION DIAGNOSTIC (1) VER 0,2	MACRO %53B(1254)-4 11:50 11-Nov-24 Page 27-6
DFKAA1	MAC	13-Jan-89 10:22		TEST OF BOOLEAN INSTRUCTIONS (SETM, SETZ, AND, XOR, EQV)

  5556									;RESULT IN C(AC) NONZERO
  5557	033233	336 00 0 00 000000 		SKIPN			;PASS TEST IF C(AC) NON-ZERO
  5558						STOP^
  5559	033234	254 04 0 00 033235 		HALT	.+1		;TEST FAILED IF PROGRAM HALTS HERE
  5560	033235	324 00 0 00 033236 		JUMPA	.+1		;IF TEST FAILS, CHANGE THIS INSTRUCTION (JUMPA .+1) TO
  5561									;JUMPA X (X IS THE ADDRESS OF THE FIRST INSTRUCTION
  5562									;IN THE SUBTEST) TO LOOP ON ERROR^
  5563
  5564					;**********
  5565
  5566					;THIS TEST VERIFIES THAT THE RESULT OF THE XOR INSTRUCTION WHERE
  5567					;C(AC)=0 AND C(E) IS NON-ZERO IS AN AC WHOSE CONTENTS IS NON-ZERO. THIS
  5568					;TEST IS REPEATED 36 TIMES. EACH TIME THE AC IS CLEARED AND XOR IS EXECUTED
  5569					;WITH ALL BITS OF E CLEAR EXCEPT FOR ONE FLOATING BIT WHICH IS SET TO A ONE.
  5570					;THE AC IS THEN CHECKED FOR A NON-ZERO RESULT.
  5571			007321		SN=SN+1
  5572			200000			ZZ=ZZ+ZZ
  5573						IFE	ZZ,<ZZ=1>
  5574	033236	200 00 0 00 070253 		MOVE	[0]		;CLEAR AC
  5575	033237	430 00 0 00 070305 		XOR	[ZZ]		;*XOR WITH C(AC)=0 AND ONE BIT OF C(E) SET SHOULD
  5576									;RESULT IN C(AC) NONZERO
  5577	033240	336 00 0 00 000000 		SKIPN			;PASS TEST IF C(AC) NON-ZERO
  5578						STOP^
  5579	033241	254 04 0 00 033242 		HALT	.+1		;TEST FAILED IF PROGRAM HALTS HERE
  5580	033242	324 00 0 00 033243 		JUMPA	.+1		;IF TEST FAILS, CHANGE THIS INSTRUCTION (JUMPA .+1) TO
  5581									;JUMPA X (X IS THE ADDRESS OF THE FIRST INSTRUCTION
  5582									;IN THE SUBTEST) TO LOOP ON ERROR^
  5583
  5584					;**********
  5585
  5586					;THIS TEST VERIFIES THAT THE RESULT OF THE XOR INSTRUCTION WHERE
  5587					;C(AC)=0 AND C(E) IS NON-ZERO IS AN AC WHOSE CONTENTS IS NON-ZERO. THIS
  5588					;TEST IS REPEATED 36 TIMES. EACH TIME THE AC IS CLEARED AND XOR IS EXECUTED
  5589					;WITH ALL BITS OF E CLEAR EXCEPT FOR ONE FLOATING BIT WHICH IS SET TO A ONE.
  5590					;THE AC IS THEN CHECKED FOR A NON-ZERO RESULT.
  5591			007322		SN=SN+1
  5592			400000			ZZ=ZZ+ZZ
  5593						IFE	ZZ,<ZZ=1>
  5594	033243	200 00 0 00 070253 		MOVE	[0]		;CLEAR AC
  5595	033244	430 00 0 00 070306 		XOR	[ZZ]		;*XOR WITH C(AC)=0 AND ONE BIT OF C(E) SET SHOULD
  5596									;RESULT IN C(AC) NONZERO
  5597	033245	336 00 0 00 000000 		SKIPN			;PASS TEST IF C(AC) NON-ZERO
  5598						STOP^
  5599	033246	254 04 0 00 033247 		HALT	.+1		;TEST FAILED IF PROGRAM HALTS HERE
  5600	033247	324 00 0 00 033250 		JUMPA	.+1		;IF TEST FAILS, CHANGE THIS INSTRUCTION (JUMPA .+1) TO
  5601									;JUMPA X (X IS THE ADDRESS OF THE FIRST INSTRUCTION
  5602									;IN THE SUBTEST) TO LOOP ON ERROR^
  5603
  5604					;**********
  5605
  5606					;THIS TEST VERIFIES THAT THE RESULT OF THE XOR INSTRUCTION WHERE
  5607					;C(AC)=0 AND C(E) IS NON-ZERO IS AN AC WHOSE CONTENTS IS NON-ZERO. THIS
  5608					;TEST IS REPEATED 36 TIMES. EACH TIME THE AC IS CLEARED AND XOR IS EXECUTED
  5609					;WITH ALL BITS OF E CLEAR EXCEPT FOR ONE FLOATING BIT WHICH IS SET TO A ONE.
  5610					;THE AC IS THEN CHECKED FOR A NON-ZERO RESULT.
DFKAA PDP-10 KL10 BASIC INSTRUCTION DIAGNOSTIC (1) VER 0,2	MACRO %53B(1254)-4 11:50 11-Nov-24 Page 27-7
DFKAA1	MAC	13-Jan-89 10:22		TEST OF BOOLEAN INSTRUCTIONS (SETM, SETZ, AND, XOR, EQV)

  5611			007323		SN=SN+1
  5612		000001	000000			ZZ=ZZ+ZZ
  5613						IFE	ZZ,<ZZ=1>
  5614	033250	200 00 0 00 070253 		MOVE	[0]		;CLEAR AC
  5615	033251	430 00 0 00 070307 		XOR	[ZZ]		;*XOR WITH C(AC)=0 AND ONE BIT OF C(E) SET SHOULD
  5616									;RESULT IN C(AC) NONZERO
  5617	033252	336 00 0 00 000000 		SKIPN			;PASS TEST IF C(AC) NON-ZERO
  5618						STOP^
  5619	033253	254 04 0 00 033254 		HALT	.+1		;TEST FAILED IF PROGRAM HALTS HERE
  5620	033254	324 00 0 00 033255 		JUMPA	.+1		;IF TEST FAILS, CHANGE THIS INSTRUCTION (JUMPA .+1) TO
  5621									;JUMPA X (X IS THE ADDRESS OF THE FIRST INSTRUCTION
  5622									;IN THE SUBTEST) TO LOOP ON ERROR^
  5623
  5624					;**********
  5625
  5626					;THIS TEST VERIFIES THAT THE RESULT OF THE XOR INSTRUCTION WHERE
  5627					;C(AC)=0 AND C(E) IS NON-ZERO IS AN AC WHOSE CONTENTS IS NON-ZERO. THIS
  5628					;TEST IS REPEATED 36 TIMES. EACH TIME THE AC IS CLEARED AND XOR IS EXECUTED
  5629					;WITH ALL BITS OF E CLEAR EXCEPT FOR ONE FLOATING BIT WHICH IS SET TO A ONE.
  5630					;THE AC IS THEN CHECKED FOR A NON-ZERO RESULT.
  5631			007324		SN=SN+1
  5632		000002	000000			ZZ=ZZ+ZZ
  5633						IFE	ZZ,<ZZ=1>
  5634	033255	200 00 0 00 070253 		MOVE	[0]		;CLEAR AC
  5635	033256	430 00 0 00 070310 		XOR	[ZZ]		;*XOR WITH C(AC)=0 AND ONE BIT OF C(E) SET SHOULD
  5636									;RESULT IN C(AC) NONZERO
  5637	033257	336 00 0 00 000000 		SKIPN			;PASS TEST IF C(AC) NON-ZERO
  5638						STOP^
  5639	033260	254 04 0 00 033261 		HALT	.+1		;TEST FAILED IF PROGRAM HALTS HERE
  5640	033261	324 00 0 00 033262 		JUMPA	.+1		;IF TEST FAILS, CHANGE THIS INSTRUCTION (JUMPA .+1) TO
  5641									;JUMPA X (X IS THE ADDRESS OF THE FIRST INSTRUCTION
  5642									;IN THE SUBTEST) TO LOOP ON ERROR^
  5643
  5644					;**********
  5645
  5646					;THIS TEST VERIFIES THAT THE RESULT OF THE XOR INSTRUCTION WHERE
  5647					;C(AC)=0 AND C(E) IS NON-ZERO IS AN AC WHOSE CONTENTS IS NON-ZERO. THIS
  5648					;TEST IS REPEATED 36 TIMES. EACH TIME THE AC IS CLEARED AND XOR IS EXECUTED
  5649					;WITH ALL BITS OF E CLEAR EXCEPT FOR ONE FLOATING BIT WHICH IS SET TO A ONE.
  5650					;THE AC IS THEN CHECKED FOR A NON-ZERO RESULT.
  5651			007325		SN=SN+1
  5652		000004	000000			ZZ=ZZ+ZZ
  5653						IFE	ZZ,<ZZ=1>
  5654	033262	200 00 0 00 070253 		MOVE	[0]		;CLEAR AC
  5655	033263	430 00 0 00 070311 		XOR	[ZZ]		;*XOR WITH C(AC)=0 AND ONE BIT OF C(E) SET SHOULD
  5656									;RESULT IN C(AC) NONZERO
  5657	033264	336 00 0 00 000000 		SKIPN			;PASS TEST IF C(AC) NON-ZERO
  5658						STOP^
  5659	033265	254 04 0 00 033266 		HALT	.+1		;TEST FAILED IF PROGRAM HALTS HERE
  5660	033266	324 00 0 00 033267 		JUMPA	.+1		;IF TEST FAILS, CHANGE THIS INSTRUCTION (JUMPA .+1) TO
  5661									;JUMPA X (X IS THE ADDRESS OF THE FIRST INSTRUCTION
  5662									;IN THE SUBTEST) TO LOOP ON ERROR^
  5663
  5664					;**********
  5665
DFKAA PDP-10 KL10 BASIC INSTRUCTION DIAGNOSTIC (1) VER 0,2	MACRO %53B(1254)-4 11:50 11-Nov-24 Page 27-8
DFKAA1	MAC	13-Jan-89 10:22		TEST OF BOOLEAN INSTRUCTIONS (SETM, SETZ, AND, XOR, EQV)

  5666					;THIS TEST VERIFIES THAT THE RESULT OF THE XOR INSTRUCTION WHERE
  5667					;C(AC)=0 AND C(E) IS NON-ZERO IS AN AC WHOSE CONTENTS IS NON-ZERO. THIS
  5668					;TEST IS REPEATED 36 TIMES. EACH TIME THE AC IS CLEARED AND XOR IS EXECUTED
  5669					;WITH ALL BITS OF E CLEAR EXCEPT FOR ONE FLOATING BIT WHICH IS SET TO A ONE.
  5670					;THE AC IS THEN CHECKED FOR A NON-ZERO RESULT.
  5671			007326		SN=SN+1
  5672		000010	000000			ZZ=ZZ+ZZ
  5673						IFE	ZZ,<ZZ=1>
  5674	033267	200 00 0 00 070253 		MOVE	[0]		;CLEAR AC
  5675	033270	430 00 0 00 070312 		XOR	[ZZ]		;*XOR WITH C(AC)=0 AND ONE BIT OF C(E) SET SHOULD
  5676									;RESULT IN C(AC) NONZERO
  5677	033271	336 00 0 00 000000 		SKIPN			;PASS TEST IF C(AC) NON-ZERO
  5678						STOP^
  5679	033272	254 04 0 00 033273 		HALT	.+1		;TEST FAILED IF PROGRAM HALTS HERE
  5680	033273	324 00 0 00 033274 		JUMPA	.+1		;IF TEST FAILS, CHANGE THIS INSTRUCTION (JUMPA .+1) TO
  5681									;JUMPA X (X IS THE ADDRESS OF THE FIRST INSTRUCTION
  5682									;IN THE SUBTEST) TO LOOP ON ERROR^
  5683
  5684					;**********
  5685
  5686					;THIS TEST VERIFIES THAT THE RESULT OF THE XOR INSTRUCTION WHERE
  5687					;C(AC)=0 AND C(E) IS NON-ZERO IS AN AC WHOSE CONTENTS IS NON-ZERO. THIS
  5688					;TEST IS REPEATED 36 TIMES. EACH TIME THE AC IS CLEARED AND XOR IS EXECUTED
  5689					;WITH ALL BITS OF E CLEAR EXCEPT FOR ONE FLOATING BIT WHICH IS SET TO A ONE.
  5690					;THE AC IS THEN CHECKED FOR A NON-ZERO RESULT.
  5691			007327		SN=SN+1
  5692		000020	000000			ZZ=ZZ+ZZ
  5693						IFE	ZZ,<ZZ=1>
  5694	033274	200 00 0 00 070253 		MOVE	[0]		;CLEAR AC
  5695	033275	430 00 0 00 070313 		XOR	[ZZ]		;*XOR WITH C(AC)=0 AND ONE BIT OF C(E) SET SHOULD
  5696									;RESULT IN C(AC) NONZERO
  5697	033276	336 00 0 00 000000 		SKIPN			;PASS TEST IF C(AC) NON-ZERO
  5698						STOP^
  5699	033277	254 04 0 00 033300 		HALT	.+1		;TEST FAILED IF PROGRAM HALTS HERE
  5700	033300	324 00 0 00 033301 		JUMPA	.+1		;IF TEST FAILS, CHANGE THIS INSTRUCTION (JUMPA .+1) TO
  5701									;JUMPA X (X IS THE ADDRESS OF THE FIRST INSTRUCTION
  5702									;IN THE SUBTEST) TO LOOP ON ERROR^
  5703
  5704					;**********
  5705
  5706					;THIS TEST VERIFIES THAT THE RESULT OF THE XOR INSTRUCTION WHERE
  5707					;C(AC)=0 AND C(E) IS NON-ZERO IS AN AC WHOSE CONTENTS IS NON-ZERO. THIS
  5708					;TEST IS REPEATED 36 TIMES. EACH TIME THE AC IS CLEARED AND XOR IS EXECUTED
  5709					;WITH ALL BITS OF E CLEAR EXCEPT FOR ONE FLOATING BIT WHICH IS SET TO A ONE.
  5710					;THE AC IS THEN CHECKED FOR A NON-ZERO RESULT.
  5711			007330		SN=SN+1
  5712		000040	000000			ZZ=ZZ+ZZ
  5713						IFE	ZZ,<ZZ=1>
  5714	033301	200 00 0 00 070253 		MOVE	[0]		;CLEAR AC
  5715	033302	430 00 0 00 070314 		XOR	[ZZ]		;*XOR WITH C(AC)=0 AND ONE BIT OF C(E) SET SHOULD
  5716									;RESULT IN C(AC) NONZERO
  5717	033303	336 00 0 00 000000 		SKIPN			;PASS TEST IF C(AC) NON-ZERO
  5718						STOP^
  5719	033304	254 04 0 00 033305 		HALT	.+1		;TEST FAILED IF PROGRAM HALTS HERE
  5720	033305	324 00 0 00 033306 		JUMPA	.+1		;IF TEST FAILS, CHANGE THIS INSTRUCTION (JUMPA .+1) TO
DFKAA PDP-10 KL10 BASIC INSTRUCTION DIAGNOSTIC (1) VER 0,2	MACRO %53B(1254)-4 11:50 11-Nov-24 Page 27-9
DFKAA1	MAC	13-Jan-89 10:22		TEST OF BOOLEAN INSTRUCTIONS (SETM, SETZ, AND, XOR, EQV)

  5721									;JUMPA X (X IS THE ADDRESS OF THE FIRST INSTRUCTION
  5722									;IN THE SUBTEST) TO LOOP ON ERROR^
  5723
  5724					;**********
  5725
  5726					;THIS TEST VERIFIES THAT THE RESULT OF THE XOR INSTRUCTION WHERE
  5727					;C(AC)=0 AND C(E) IS NON-ZERO IS AN AC WHOSE CONTENTS IS NON-ZERO. THIS
  5728					;TEST IS REPEATED 36 TIMES. EACH TIME THE AC IS CLEARED AND XOR IS EXECUTED
  5729					;WITH ALL BITS OF E CLEAR EXCEPT FOR ONE FLOATING BIT WHICH IS SET TO A ONE.
  5730					;THE AC IS THEN CHECKED FOR A NON-ZERO RESULT.
  5731			007331		SN=SN+1
  5732		000100	000000			ZZ=ZZ+ZZ
  5733						IFE	ZZ,<ZZ=1>
  5734	033306	200 00 0 00 070253 		MOVE	[0]		;CLEAR AC
  5735	033307	430 00 0 00 070315 		XOR	[ZZ]		;*XOR WITH C(AC)=0 AND ONE BIT OF C(E) SET SHOULD
  5736									;RESULT IN C(AC) NONZERO
  5737	033310	336 00 0 00 000000 		SKIPN			;PASS TEST IF C(AC) NON-ZERO
  5738						STOP^
  5739	033311	254 04 0 00 033312 		HALT	.+1		;TEST FAILED IF PROGRAM HALTS HERE
  5740	033312	324 00 0 00 033313 		JUMPA	.+1		;IF TEST FAILS, CHANGE THIS INSTRUCTION (JUMPA .+1) TO
  5741									;JUMPA X (X IS THE ADDRESS OF THE FIRST INSTRUCTION
  5742									;IN THE SUBTEST) TO LOOP ON ERROR^
  5743
  5744					;**********
  5745
  5746					;THIS TEST VERIFIES THAT THE RESULT OF THE XOR INSTRUCTION WHERE
  5747					;C(AC)=0 AND C(E) IS NON-ZERO IS AN AC WHOSE CONTENTS IS NON-ZERO. THIS
  5748					;TEST IS REPEATED 36 TIMES. EACH TIME THE AC IS CLEARED AND XOR IS EXECUTED
  5749					;WITH ALL BITS OF E CLEAR EXCEPT FOR ONE FLOATING BIT WHICH IS SET TO A ONE.
  5750					;THE AC IS THEN CHECKED FOR A NON-ZERO RESULT.
  5751			007332		SN=SN+1
  5752		000200	000000			ZZ=ZZ+ZZ
  5753						IFE	ZZ,<ZZ=1>
  5754	033313	200 00 0 00 070253 		MOVE	[0]		;CLEAR AC
  5755	033314	430 00 0 00 070316 		XOR	[ZZ]		;*XOR WITH C(AC)=0 AND ONE BIT OF C(E) SET SHOULD
  5756									;RESULT IN C(AC) NONZERO
  5757	033315	336 00 0 00 000000 		SKIPN			;PASS TEST IF C(AC) NON-ZERO
  5758						STOP^
  5759	033316	254 04 0 00 033317 		HALT	.+1		;TEST FAILED IF PROGRAM HALTS HERE
  5760	033317	324 00 0 00 033320 		JUMPA	.+1		;IF TEST FAILS, CHANGE THIS INSTRUCTION (JUMPA .+1) TO
  5761									;JUMPA X (X IS THE ADDRESS OF THE FIRST INSTRUCTION
  5762									;IN THE SUBTEST) TO LOOP ON ERROR^
  5763
  5764					;**********
  5765
  5766					;THIS TEST VERIFIES THAT THE RESULT OF THE XOR INSTRUCTION WHERE
  5767					;C(AC)=0 AND C(E) IS NON-ZERO IS AN AC WHOSE CONTENTS IS NON-ZERO. THIS
  5768					;TEST IS REPEATED 36 TIMES. EACH TIME THE AC IS CLEARED AND XOR IS EXECUTED
  5769					;WITH ALL BITS OF E CLEAR EXCEPT FOR ONE FLOATING BIT WHICH IS SET TO A ONE.
  5770					;THE AC IS THEN CHECKED FOR A NON-ZERO RESULT.
  5771			007333		SN=SN+1
  5772		000400	000000			ZZ=ZZ+ZZ
  5773						IFE	ZZ,<ZZ=1>
  5774	033320	200 00 0 00 070253 		MOVE	[0]		;CLEAR AC
  5775	033321	430 00 0 00 070264 		XOR	[ZZ]		;*XOR WITH C(AC)=0 AND ONE BIT OF C(E) SET SHOULD
DFKAA PDP-10 KL10 BASIC INSTRUCTION DIAGNOSTIC (1) VER 0,2	MACRO %53B(1254)-4 11:50 11-Nov-24 Page 27-10
DFKAA1	MAC	13-Jan-89 10:22		TEST OF BOOLEAN INSTRUCTIONS (SETM, SETZ, AND, XOR, EQV)

  5776									;RESULT IN C(AC) NONZERO
  5777	033322	336 00 0 00 000000 		SKIPN			;PASS TEST IF C(AC) NON-ZERO
  5778						STOP^
  5779	033323	254 04 0 00 033324 		HALT	.+1		;TEST FAILED IF PROGRAM HALTS HERE
  5780	033324	324 00 0 00 033325 		JUMPA	.+1		;IF TEST FAILS, CHANGE THIS INSTRUCTION (JUMPA .+1) TO
  5781									;JUMPA X (X IS THE ADDRESS OF THE FIRST INSTRUCTION
  5782									;IN THE SUBTEST) TO LOOP ON ERROR^
  5783
  5784					;**********
  5785
  5786					;THIS TEST VERIFIES THAT THE RESULT OF THE XOR INSTRUCTION WHERE
  5787					;C(AC)=0 AND C(E) IS NON-ZERO IS AN AC WHOSE CONTENTS IS NON-ZERO. THIS
  5788					;TEST IS REPEATED 36 TIMES. EACH TIME THE AC IS CLEARED AND XOR IS EXECUTED
  5789					;WITH ALL BITS OF E CLEAR EXCEPT FOR ONE FLOATING BIT WHICH IS SET TO A ONE.
  5790					;THE AC IS THEN CHECKED FOR A NON-ZERO RESULT.
  5791			007334		SN=SN+1
  5792		001000	000000			ZZ=ZZ+ZZ
  5793						IFE	ZZ,<ZZ=1>
  5794	033325	200 00 0 00 070253 		MOVE	[0]		;CLEAR AC
  5795	033326	430 00 0 00 070317 		XOR	[ZZ]		;*XOR WITH C(AC)=0 AND ONE BIT OF C(E) SET SHOULD
  5796									;RESULT IN C(AC) NONZERO
  5797	033327	336 00 0 00 000000 		SKIPN			;PASS TEST IF C(AC) NON-ZERO
  5798						STOP^
  5799	033330	254 04 0 00 033331 		HALT	.+1		;TEST FAILED IF PROGRAM HALTS HERE
  5800	033331	324 00 0 00 033332 		JUMPA	.+1		;IF TEST FAILS, CHANGE THIS INSTRUCTION (JUMPA .+1) TO
  5801									;JUMPA X (X IS THE ADDRESS OF THE FIRST INSTRUCTION
  5802									;IN THE SUBTEST) TO LOOP ON ERROR^
  5803
  5804					;**********
  5805
  5806					;THIS TEST VERIFIES THAT THE RESULT OF THE XOR INSTRUCTION WHERE
  5807					;C(AC)=0 AND C(E) IS NON-ZERO IS AN AC WHOSE CONTENTS IS NON-ZERO. THIS
  5808					;TEST IS REPEATED 36 TIMES. EACH TIME THE AC IS CLEARED AND XOR IS EXECUTED
  5809					;WITH ALL BITS OF E CLEAR EXCEPT FOR ONE FLOATING BIT WHICH IS SET TO A ONE.
  5810					;THE AC IS THEN CHECKED FOR A NON-ZERO RESULT.
  5811			007335		SN=SN+1
  5812		002000	000000			ZZ=ZZ+ZZ
  5813						IFE	ZZ,<ZZ=1>
  5814	033332	200 00 0 00 070253 		MOVE	[0]		;CLEAR AC
  5815	033333	430 00 0 00 070320 		XOR	[ZZ]		;*XOR WITH C(AC)=0 AND ONE BIT OF C(E) SET SHOULD
  5816									;RESULT IN C(AC) NONZERO
  5817	033334	336 00 0 00 000000 		SKIPN			;PASS TEST IF C(AC) NON-ZERO
  5818						STOP^
  5819	033335	254 04 0 00 033336 		HALT	.+1		;TEST FAILED IF PROGRAM HALTS HERE
  5820	033336	324 00 0 00 033337 		JUMPA	.+1		;IF TEST FAILS, CHANGE THIS INSTRUCTION (JUMPA .+1) TO
  5821									;JUMPA X (X IS THE ADDRESS OF THE FIRST INSTRUCTION
  5822									;IN THE SUBTEST) TO LOOP ON ERROR^
  5823
  5824					;**********
  5825
  5826					;THIS TEST VERIFIES THAT THE RESULT OF THE XOR INSTRUCTION WHERE
  5827					;C(AC)=0 AND C(E) IS NON-ZERO IS AN AC WHOSE CONTENTS IS NON-ZERO. THIS
  5828					;TEST IS REPEATED 36 TIMES. EACH TIME THE AC IS CLEARED AND XOR IS EXECUTED
  5829					;WITH ALL BITS OF E CLEAR EXCEPT FOR ONE FLOATING BIT WHICH IS SET TO A ONE.
  5830					;THE AC IS THEN CHECKED FOR A NON-ZERO RESULT.
DFKAA PDP-10 KL10 BASIC INSTRUCTION DIAGNOSTIC (1) VER 0,2	MACRO %53B(1254)-4 11:50 11-Nov-24 Page 27-11
DFKAA1	MAC	13-Jan-89 10:22		TEST OF BOOLEAN INSTRUCTIONS (SETM, SETZ, AND, XOR, EQV)

  5831			007336		SN=SN+1
  5832		004000	000000			ZZ=ZZ+ZZ
  5833						IFE	ZZ,<ZZ=1>
  5834	033337	200 00 0 00 070253 		MOVE	[0]		;CLEAR AC
  5835	033340	430 00 0 00 070321 		XOR	[ZZ]		;*XOR WITH C(AC)=0 AND ONE BIT OF C(E) SET SHOULD
  5836									;RESULT IN C(AC) NONZERO
  5837	033341	336 00 0 00 000000 		SKIPN			;PASS TEST IF C(AC) NON-ZERO
  5838						STOP^
  5839	033342	254 04 0 00 033343 		HALT	.+1		;TEST FAILED IF PROGRAM HALTS HERE
  5840	033343	324 00 0 00 033344 		JUMPA	.+1		;IF TEST FAILS, CHANGE THIS INSTRUCTION (JUMPA .+1) TO
  5841									;JUMPA X (X IS THE ADDRESS OF THE FIRST INSTRUCTION
  5842									;IN THE SUBTEST) TO LOOP ON ERROR^
  5843
  5844					;**********
  5845
  5846					;THIS TEST VERIFIES THAT THE RESULT OF THE XOR INSTRUCTION WHERE
  5847					;C(AC)=0 AND C(E) IS NON-ZERO IS AN AC WHOSE CONTENTS IS NON-ZERO. THIS
  5848					;TEST IS REPEATED 36 TIMES. EACH TIME THE AC IS CLEARED AND XOR IS EXECUTED
  5849					;WITH ALL BITS OF E CLEAR EXCEPT FOR ONE FLOATING BIT WHICH IS SET TO A ONE.
  5850					;THE AC IS THEN CHECKED FOR A NON-ZERO RESULT.
  5851			007337		SN=SN+1
  5852		010000	000000			ZZ=ZZ+ZZ
  5853						IFE	ZZ,<ZZ=1>
  5854	033344	200 00 0 00 070253 		MOVE	[0]		;CLEAR AC
  5855	033345	430 00 0 00 070322 		XOR	[ZZ]		;*XOR WITH C(AC)=0 AND ONE BIT OF C(E) SET SHOULD
  5856									;RESULT IN C(AC) NONZERO
  5857	033346	336 00 0 00 000000 		SKIPN			;PASS TEST IF C(AC) NON-ZERO
  5858						STOP^
  5859	033347	254 04 0 00 033350 		HALT	.+1		;TEST FAILED IF PROGRAM HALTS HERE
  5860	033350	324 00 0 00 033351 		JUMPA	.+1		;IF TEST FAILS, CHANGE THIS INSTRUCTION (JUMPA .+1) TO
  5861									;JUMPA X (X IS THE ADDRESS OF THE FIRST INSTRUCTION
  5862									;IN THE SUBTEST) TO LOOP ON ERROR^
  5863
  5864					;**********
  5865
  5866					;THIS TEST VERIFIES THAT THE RESULT OF THE XOR INSTRUCTION WHERE
  5867					;C(AC)=0 AND C(E) IS NON-ZERO IS AN AC WHOSE CONTENTS IS NON-ZERO. THIS
  5868					;TEST IS REPEATED 36 TIMES. EACH TIME THE AC IS CLEARED AND XOR IS EXECUTED
  5869					;WITH ALL BITS OF E CLEAR EXCEPT FOR ONE FLOATING BIT WHICH IS SET TO A ONE.
  5870					;THE AC IS THEN CHECKED FOR A NON-ZERO RESULT.
  5871			007340		SN=SN+1
  5872		020000	000000			ZZ=ZZ+ZZ
  5873						IFE	ZZ,<ZZ=1>
  5874	033351	200 00 0 00 070253 		MOVE	[0]		;CLEAR AC
  5875	033352	430 00 0 00 070323 		XOR	[ZZ]		;*XOR WITH C(AC)=0 AND ONE BIT OF C(E) SET SHOULD
  5876									;RESULT IN C(AC) NONZERO
  5877	033353	336 00 0 00 000000 		SKIPN			;PASS TEST IF C(AC) NON-ZERO
  5878						STOP^
  5879	033354	254 04 0 00 033355 		HALT	.+1		;TEST FAILED IF PROGRAM HALTS HERE
  5880	033355	324 00 0 00 033356 		JUMPA	.+1		;IF TEST FAILS, CHANGE THIS INSTRUCTION (JUMPA .+1) TO
  5881									;JUMPA X (X IS THE ADDRESS OF THE FIRST INSTRUCTION
  5882									;IN THE SUBTEST) TO LOOP ON ERROR^
  5883
  5884					;**********
  5885
DFKAA PDP-10 KL10 BASIC INSTRUCTION DIAGNOSTIC (1) VER 0,2	MACRO %53B(1254)-4 11:50 11-Nov-24 Page 27-12
DFKAA1	MAC	13-Jan-89 10:22		TEST OF BOOLEAN INSTRUCTIONS (SETM, SETZ, AND, XOR, EQV)

  5886					;THIS TEST VERIFIES THAT THE RESULT OF THE XOR INSTRUCTION WHERE
  5887					;C(AC)=0 AND C(E) IS NON-ZERO IS AN AC WHOSE CONTENTS IS NON-ZERO. THIS
  5888					;TEST IS REPEATED 36 TIMES. EACH TIME THE AC IS CLEARED AND XOR IS EXECUTED
  5889					;WITH ALL BITS OF E CLEAR EXCEPT FOR ONE FLOATING BIT WHICH IS SET TO A ONE.
  5890					;THE AC IS THEN CHECKED FOR A NON-ZERO RESULT.
  5891			007341		SN=SN+1
  5892		040000	000000			ZZ=ZZ+ZZ
  5893						IFE	ZZ,<ZZ=1>
  5894	033356	200 00 0 00 070253 		MOVE	[0]		;CLEAR AC
  5895	033357	430 00 0 00 070324 		XOR	[ZZ]		;*XOR WITH C(AC)=0 AND ONE BIT OF C(E) SET SHOULD
  5896									;RESULT IN C(AC) NONZERO
  5897	033360	336 00 0 00 000000 		SKIPN			;PASS TEST IF C(AC) NON-ZERO
  5898						STOP^
  5899	033361	254 04 0 00 033362 		HALT	.+1		;TEST FAILED IF PROGRAM HALTS HERE
  5900	033362	324 00 0 00 033363 		JUMPA	.+1		;IF TEST FAILS, CHANGE THIS INSTRUCTION (JUMPA .+1) TO
  5901									;JUMPA X (X IS THE ADDRESS OF THE FIRST INSTRUCTION
  5902									;IN THE SUBTEST) TO LOOP ON ERROR^
  5903
  5904					;**********
  5905
  5906					;THIS TEST VERIFIES THAT THE RESULT OF THE XOR INSTRUCTION WHERE
  5907					;C(AC)=0 AND C(E) IS NON-ZERO IS AN AC WHOSE CONTENTS IS NON-ZERO. THIS
  5908					;TEST IS REPEATED 36 TIMES. EACH TIME THE AC IS CLEARED AND XOR IS EXECUTED
  5909					;WITH ALL BITS OF E CLEAR EXCEPT FOR ONE FLOATING BIT WHICH IS SET TO A ONE.
  5910					;THE AC IS THEN CHECKED FOR A NON-ZERO RESULT.
  5911			007342		SN=SN+1
  5912		100000	000000			ZZ=ZZ+ZZ
  5913						IFE	ZZ,<ZZ=1>
  5914	033363	200 00 0 00 070253 		MOVE	[0]		;CLEAR AC
  5915	033364	430 00 0 00 070325 		XOR	[ZZ]		;*XOR WITH C(AC)=0 AND ONE BIT OF C(E) SET SHOULD
  5916									;RESULT IN C(AC) NONZERO
  5917	033365	336 00 0 00 000000 		SKIPN			;PASS TEST IF C(AC) NON-ZERO
  5918						STOP^
  5919	033366	254 04 0 00 033367 		HALT	.+1		;TEST FAILED IF PROGRAM HALTS HERE
  5920	033367	324 00 0 00 033370 		JUMPA	.+1		;IF TEST FAILS, CHANGE THIS INSTRUCTION (JUMPA .+1) TO
  5921									;JUMPA X (X IS THE ADDRESS OF THE FIRST INSTRUCTION
  5922									;IN THE SUBTEST) TO LOOP ON ERROR^
  5923
  5924					;**********
  5925
  5926					;THIS TEST VERIFIES THAT THE RESULT OF THE XOR INSTRUCTION WHERE
  5927					;C(AC)=0 AND C(E) IS NON-ZERO IS AN AC WHOSE CONTENTS IS NON-ZERO. THIS
  5928					;TEST IS REPEATED 36 TIMES. EACH TIME THE AC IS CLEARED AND XOR IS EXECUTED
  5929					;WITH ALL BITS OF E CLEAR EXCEPT FOR ONE FLOATING BIT WHICH IS SET TO A ONE.
  5930					;THE AC IS THEN CHECKED FOR A NON-ZERO RESULT.
  5931			007343		SN=SN+1
  5932		200000	000000			ZZ=ZZ+ZZ
  5933						IFE	ZZ,<ZZ=1>
  5934	033370	200 00 0 00 070253 		MOVE	[0]		;CLEAR AC
  5935	033371	430 00 0 00 070326 		XOR	[ZZ]		;*XOR WITH C(AC)=0 AND ONE BIT OF C(E) SET SHOULD
  5936									;RESULT IN C(AC) NONZERO
  5937	033372	336 00 0 00 000000 		SKIPN			;PASS TEST IF C(AC) NON-ZERO
  5938						STOP^
  5939	033373	254 04 0 00 033374 		HALT	.+1		;TEST FAILED IF PROGRAM HALTS HERE
  5940	033374	324 00 0 00 033375 		JUMPA	.+1		;IF TEST FAILS, CHANGE THIS INSTRUCTION (JUMPA .+1) TO
DFKAA PDP-10 KL10 BASIC INSTRUCTION DIAGNOSTIC (1) VER 0,2	MACRO %53B(1254)-4 11:50 11-Nov-24 Page 27-13
DFKAA1	MAC	13-Jan-89 10:22		TEST OF BOOLEAN INSTRUCTIONS (SETM, SETZ, AND, XOR, EQV)

  5941									;JUMPA X (X IS THE ADDRESS OF THE FIRST INSTRUCTION
  5942									;IN THE SUBTEST) TO LOOP ON ERROR^
  5943
  5944					;**********
  5945
  5946					;THIS TEST VERIFIES THAT THE RESULT OF THE XOR INSTRUCTION WHERE
  5947					;C(AC)=0 AND C(E) IS NON-ZERO IS AN AC WHOSE CONTENTS IS NON-ZERO. THIS
  5948					;TEST IS REPEATED 36 TIMES. EACH TIME THE AC IS CLEARED AND XOR IS EXECUTED
  5949					;WITH ALL BITS OF E CLEAR EXCEPT FOR ONE FLOATING BIT WHICH IS SET TO A ONE.
  5950					;THE AC IS THEN CHECKED FOR A NON-ZERO RESULT.
  5951			007344		SN=SN+1
  5952		400000	000000			ZZ=ZZ+ZZ
  5953						IFE	ZZ,<ZZ=1>
  5954	033375	200 00 0 00 070253 		MOVE	[0]		;CLEAR AC
  5955	033376	430 00 0 00 070256 		XOR	[ZZ]		;*XOR WITH C(AC)=0 AND ONE BIT OF C(E) SET SHOULD
  5956									;RESULT IN C(AC) NONZERO
  5957	033377	336 00 0 00 000000 		SKIPN			;PASS TEST IF C(AC) NON-ZERO
  5958						STOP^
  5959	033400	254 04 0 00 033401 		HALT	.+1		;TEST FAILED IF PROGRAM HALTS HERE
  5960	033401	324 00 0 00 033402 		JUMPA	.+1		;IF TEST FAILS, CHANGE THIS INSTRUCTION (JUMPA .+1) TO
  5961									;JUMPA X (X IS THE ADDRESS OF THE FIRST INSTRUCTION
  5962									;IN THE SUBTEST) TO LOOP ON ERROR^
  5963
  5964					;**********
  5965
  5966			007400		SN=7400
  5967			000000			ZZ=0
  5968
  5969					A7400:	REPEAT	^D36,
  5970					<;THIS TEST VERIFIES THAT THE RESULT OF THE XOR INSTRUCTION WHERE
  5971					;C(E)=0 AND C(AC) IS NON-ZERO IS AN AC WHOSE CONTENTS IS NON-ZERO.  THIS
  5972					;TEST IS REPEATED 36 TIMES. EACH TIME THE AC IS INITIALIZED SO THAT ONE
  5973					;AND ONLY ONE FLOATING BIT IS SET TO ONE AND XOR IS EXECUTED WITH E
  5974					;CONTAINING ALL ZEROS.  THE AC IS THEN CHECKED FOR A NON-ZERO RESULT.
  5975					SN=SN+1
  5976						ZZ=ZZ+ZZ
  5977						IFE	ZZ,<ZZ=1>
  5978						MOVE	[ZZ]		;PRELOAD AC WITH ONE FLOATING BIT SET
  5979						XOR	[0]		;*XOR WITH C(E)=0 AND ONE BIT OF C(AC) SET SHOULD
  5980									;RESULT IN C(AC) NON-ZERO
  5981						SKIPN			;PASS TEST IF C(AC) NON-ZERO
  5982						STOP
  5983
  5984					;AD FM- EN [ADFM], AD FM- F/F'S[ADFM],F CYC ACT EN D[R1],
  5985					;IR BOOLE AD FM- F [IR2],IR BOOLE[IR1],IR XX (2,6,7,10,12,15)[IR2],
  5986					;AD EQV[ADCR],AD EQV F/F[ADC2],FCYC ACT EN A[F1],
  5987					;IR BOOLE (6,11)[IR2],IR BOOLE[IR1],IRXX(6,11)[IR2]
  5988
  5989					;**********
  5990					>
  5991					;THIS TEST VERIFIES THAT THE RESULT OF THE XOR INSTRUCTION WHERE
  5992					;C(E)=0 AND C(AC) IS NON-ZERO IS AN AC WHOSE CONTENTS IS NON-ZERO.  THIS
  5993					;TEST IS REPEATED 36 TIMES. EACH TIME THE AC IS INITIALIZED SO THAT ONE
  5994					;AND ONLY ONE FLOATING BIT IS SET TO ONE AND XOR IS EXECUTED WITH E
  5995					;CONTAINING ALL ZEROS.  THE AC IS THEN CHECKED FOR A NON-ZERO RESULT.
DFKAA PDP-10 KL10 BASIC INSTRUCTION DIAGNOSTIC (1) VER 0,2	MACRO %53B(1254)-4 11:50 11-Nov-24 Page 27-14
DFKAA1	MAC	13-Jan-89 10:22		TEST OF BOOLEAN INSTRUCTIONS (SETM, SETZ, AND, XOR, EQV)

  5996			007401		SN=SN+1
  5997			000000			ZZ=ZZ+ZZ
  5998			000001			IFE	ZZ,<ZZ=1>
  5999	033402	200 00 0 00 070265 		MOVE	[ZZ]		;PRELOAD AC WITH ONE FLOATING BIT SET
  6000	033403	430 00 0 00 070253 		XOR	[0]		;*XOR WITH C(E)=0 AND ONE BIT OF C(AC) SET SHOULD
  6001									;RESULT IN C(AC) NON-ZERO
  6002	033404	336 00 0 00 000000 		SKIPN			;PASS TEST IF C(AC) NON-ZERO
  6003						STOP^
  6004	033405	254 04 0 00 033406 		HALT	.+1		;TEST FAILED IF PROGRAM HALTS HERE
  6005	033406	324 00 0 00 033407 		JUMPA	.+1		;IF TEST FAILS, CHANGE THIS INSTRUCTION (JUMPA .+1) TO
  6006									;JUMPA X (X IS THE ADDRESS OF THE FIRST INSTRUCTION
  6007									;IN THE SUBTEST) TO LOOP ON ERROR^
  6008
  6009					;AD FM- EN [ADFM], AD FM- F/F'S[ADFM],F CYC ACT EN D[R1],
  6010					;IR BOOLE AD FM- F [IR2],IR BOOLE[IR1],IR XX (2,6,7,10,12,15)[IR2],
  6011					;AD EQV[ADCR],AD EQV F/F[ADC2],FCYC ACT EN A[F1],
  6012					;IR BOOLE (6,11)[IR2],IR BOOLE[IR1],IRXX(6,11)[IR2]
  6013
  6014					;**********
  6015
  6016					;THIS TEST VERIFIES THAT THE RESULT OF THE XOR INSTRUCTION WHERE
  6017					;C(E)=0 AND C(AC) IS NON-ZERO IS AN AC WHOSE CONTENTS IS NON-ZERO.  THIS
  6018					;TEST IS REPEATED 36 TIMES. EACH TIME THE AC IS INITIALIZED SO THAT ONE
  6019					;AND ONLY ONE FLOATING BIT IS SET TO ONE AND XOR IS EXECUTED WITH E
  6020					;CONTAINING ALL ZEROS.  THE AC IS THEN CHECKED FOR A NON-ZERO RESULT.
  6021			007402		SN=SN+1
  6022			000002			ZZ=ZZ+ZZ
  6023						IFE	ZZ,<ZZ=1>
  6024	033407	200 00 0 00 070266 		MOVE	[ZZ]		;PRELOAD AC WITH ONE FLOATING BIT SET
  6025	033410	430 00 0 00 070253 		XOR	[0]		;*XOR WITH C(E)=0 AND ONE BIT OF C(AC) SET SHOULD
  6026									;RESULT IN C(AC) NON-ZERO
  6027	033411	336 00 0 00 000000 		SKIPN			;PASS TEST IF C(AC) NON-ZERO
  6028						STOP^
  6029	033412	254 04 0 00 033413 		HALT	.+1		;TEST FAILED IF PROGRAM HALTS HERE
  6030	033413	324 00 0 00 033414 		JUMPA	.+1		;IF TEST FAILS, CHANGE THIS INSTRUCTION (JUMPA .+1) TO
  6031									;JUMPA X (X IS THE ADDRESS OF THE FIRST INSTRUCTION
  6032									;IN THE SUBTEST) TO LOOP ON ERROR^
  6033
  6034					;AD FM- EN [ADFM], AD FM- F/F'S[ADFM],F CYC ACT EN D[R1],
  6035					;IR BOOLE AD FM- F [IR2],IR BOOLE[IR1],IR XX (2,6,7,10,12,15)[IR2],
  6036					;AD EQV[ADCR],AD EQV F/F[ADC2],FCYC ACT EN A[F1],
  6037					;IR BOOLE (6,11)[IR2],IR BOOLE[IR1],IRXX(6,11)[IR2]
  6038
  6039					;**********
  6040
  6041					;THIS TEST VERIFIES THAT THE RESULT OF THE XOR INSTRUCTION WHERE
  6042					;C(E)=0 AND C(AC) IS NON-ZERO IS AN AC WHOSE CONTENTS IS NON-ZERO.  THIS
  6043					;TEST IS REPEATED 36 TIMES. EACH TIME THE AC IS INITIALIZED SO THAT ONE
  6044					;AND ONLY ONE FLOATING BIT IS SET TO ONE AND XOR IS EXECUTED WITH E
  6045					;CONTAINING ALL ZEROS.  THE AC IS THEN CHECKED FOR A NON-ZERO RESULT.
  6046			007403		SN=SN+1
  6047			000004			ZZ=ZZ+ZZ
  6048						IFE	ZZ,<ZZ=1>
  6049	033414	200 00 0 00 070267 		MOVE	[ZZ]		;PRELOAD AC WITH ONE FLOATING BIT SET
  6050	033415	430 00 0 00 070253 		XOR	[0]		;*XOR WITH C(E)=0 AND ONE BIT OF C(AC) SET SHOULD
DFKAA PDP-10 KL10 BASIC INSTRUCTION DIAGNOSTIC (1) VER 0,2	MACRO %53B(1254)-4 11:50 11-Nov-24 Page 27-15
DFKAA1	MAC	13-Jan-89 10:22		TEST OF BOOLEAN INSTRUCTIONS (SETM, SETZ, AND, XOR, EQV)

  6051									;RESULT IN C(AC) NON-ZERO
  6052	033416	336 00 0 00 000000 		SKIPN			;PASS TEST IF C(AC) NON-ZERO
  6053						STOP^
  6054	033417	254 04 0 00 033420 		HALT	.+1		;TEST FAILED IF PROGRAM HALTS HERE
  6055	033420	324 00 0 00 033421 		JUMPA	.+1		;IF TEST FAILS, CHANGE THIS INSTRUCTION (JUMPA .+1) TO
  6056									;JUMPA X (X IS THE ADDRESS OF THE FIRST INSTRUCTION
  6057									;IN THE SUBTEST) TO LOOP ON ERROR^
  6058
  6059					;AD FM- EN [ADFM], AD FM- F/F'S[ADFM],F CYC ACT EN D[R1],
  6060					;IR BOOLE AD FM- F [IR2],IR BOOLE[IR1],IR XX (2,6,7,10,12,15)[IR2],
  6061					;AD EQV[ADCR],AD EQV F/F[ADC2],FCYC ACT EN A[F1],
  6062					;IR BOOLE (6,11)[IR2],IR BOOLE[IR1],IRXX(6,11)[IR2]
  6063
  6064					;**********
  6065
  6066					;THIS TEST VERIFIES THAT THE RESULT OF THE XOR INSTRUCTION WHERE
  6067					;C(E)=0 AND C(AC) IS NON-ZERO IS AN AC WHOSE CONTENTS IS NON-ZERO.  THIS
  6068					;TEST IS REPEATED 36 TIMES. EACH TIME THE AC IS INITIALIZED SO THAT ONE
  6069					;AND ONLY ONE FLOATING BIT IS SET TO ONE AND XOR IS EXECUTED WITH E
  6070					;CONTAINING ALL ZEROS.  THE AC IS THEN CHECKED FOR A NON-ZERO RESULT.
  6071			007404		SN=SN+1
  6072			000010			ZZ=ZZ+ZZ
  6073						IFE	ZZ,<ZZ=1>
  6074	033421	200 00 0 00 070270 		MOVE	[ZZ]		;PRELOAD AC WITH ONE FLOATING BIT SET
  6075	033422	430 00 0 00 070253 		XOR	[0]		;*XOR WITH C(E)=0 AND ONE BIT OF C(AC) SET SHOULD
  6076									;RESULT IN C(AC) NON-ZERO
  6077	033423	336 00 0 00 000000 		SKIPN			;PASS TEST IF C(AC) NON-ZERO
  6078						STOP^
  6079	033424	254 04 0 00 033425 		HALT	.+1		;TEST FAILED IF PROGRAM HALTS HERE
  6080	033425	324 00 0 00 033426 		JUMPA	.+1		;IF TEST FAILS, CHANGE THIS INSTRUCTION (JUMPA .+1) TO
  6081									;JUMPA X (X IS THE ADDRESS OF THE FIRST INSTRUCTION
  6082									;IN THE SUBTEST) TO LOOP ON ERROR^
  6083
  6084					;AD FM- EN [ADFM], AD FM- F/F'S[ADFM],F CYC ACT EN D[R1],
  6085					;IR BOOLE AD FM- F [IR2],IR BOOLE[IR1],IR XX (2,6,7,10,12,15)[IR2],
  6086					;AD EQV[ADCR],AD EQV F/F[ADC2],FCYC ACT EN A[F1],
  6087					;IR BOOLE (6,11)[IR2],IR BOOLE[IR1],IRXX(6,11)[IR2]
  6088
  6089					;**********
  6090
  6091					;THIS TEST VERIFIES THAT THE RESULT OF THE XOR INSTRUCTION WHERE
  6092					;C(E)=0 AND C(AC) IS NON-ZERO IS AN AC WHOSE CONTENTS IS NON-ZERO.  THIS
  6093					;TEST IS REPEATED 36 TIMES. EACH TIME THE AC IS INITIALIZED SO THAT ONE
  6094					;AND ONLY ONE FLOATING BIT IS SET TO ONE AND XOR IS EXECUTED WITH E
  6095					;CONTAINING ALL ZEROS.  THE AC IS THEN CHECKED FOR A NON-ZERO RESULT.
  6096			007405		SN=SN+1
  6097			000020			ZZ=ZZ+ZZ
  6098						IFE	ZZ,<ZZ=1>
  6099	033426	200 00 0 00 070271 		MOVE	[ZZ]		;PRELOAD AC WITH ONE FLOATING BIT SET
  6100	033427	430 00 0 00 070253 		XOR	[0]		;*XOR WITH C(E)=0 AND ONE BIT OF C(AC) SET SHOULD
  6101									;RESULT IN C(AC) NON-ZERO
  6102	033430	336 00 0 00 000000 		SKIPN			;PASS TEST IF C(AC) NON-ZERO
  6103						STOP^
  6104	033431	254 04 0 00 033432 		HALT	.+1		;TEST FAILED IF PROGRAM HALTS HERE
  6105	033432	324 00 0 00 033433 		JUMPA	.+1		;IF TEST FAILS, CHANGE THIS INSTRUCTION (JUMPA .+1) TO
DFKAA PDP-10 KL10 BASIC INSTRUCTION DIAGNOSTIC (1) VER 0,2	MACRO %53B(1254)-4 11:50 11-Nov-24 Page 27-16
DFKAA1	MAC	13-Jan-89 10:22		TEST OF BOOLEAN INSTRUCTIONS (SETM, SETZ, AND, XOR, EQV)

  6106									;JUMPA X (X IS THE ADDRESS OF THE FIRST INSTRUCTION
  6107									;IN THE SUBTEST) TO LOOP ON ERROR^
  6108
  6109					;AD FM- EN [ADFM], AD FM- F/F'S[ADFM],F CYC ACT EN D[R1],
  6110					;IR BOOLE AD FM- F [IR2],IR BOOLE[IR1],IR XX (2,6,7,10,12,15)[IR2],
  6111					;AD EQV[ADCR],AD EQV F/F[ADC2],FCYC ACT EN A[F1],
  6112					;IR BOOLE (6,11)[IR2],IR BOOLE[IR1],IRXX(6,11)[IR2]
  6113
  6114					;**********
  6115
  6116					;THIS TEST VERIFIES THAT THE RESULT OF THE XOR INSTRUCTION WHERE
  6117					;C(E)=0 AND C(AC) IS NON-ZERO IS AN AC WHOSE CONTENTS IS NON-ZERO.  THIS
  6118					;TEST IS REPEATED 36 TIMES. EACH TIME THE AC IS INITIALIZED SO THAT ONE
  6119					;AND ONLY ONE FLOATING BIT IS SET TO ONE AND XOR IS EXECUTED WITH E
  6120					;CONTAINING ALL ZEROS.  THE AC IS THEN CHECKED FOR A NON-ZERO RESULT.
  6121			007406		SN=SN+1
  6122			000040			ZZ=ZZ+ZZ
  6123						IFE	ZZ,<ZZ=1>
  6124	033433	200 00 0 00 070272 		MOVE	[ZZ]		;PRELOAD AC WITH ONE FLOATING BIT SET
  6125	033434	430 00 0 00 070253 		XOR	[0]		;*XOR WITH C(E)=0 AND ONE BIT OF C(AC) SET SHOULD
  6126									;RESULT IN C(AC) NON-ZERO
  6127	033435	336 00 0 00 000000 		SKIPN			;PASS TEST IF C(AC) NON-ZERO
  6128						STOP^
  6129	033436	254 04 0 00 033437 		HALT	.+1		;TEST FAILED IF PROGRAM HALTS HERE
  6130	033437	324 00 0 00 033440 		JUMPA	.+1		;IF TEST FAILS, CHANGE THIS INSTRUCTION (JUMPA .+1) TO
  6131									;JUMPA X (X IS THE ADDRESS OF THE FIRST INSTRUCTION
  6132									;IN THE SUBTEST) TO LOOP ON ERROR^
  6133
  6134					;AD FM- EN [ADFM], AD FM- F/F'S[ADFM],F CYC ACT EN D[R1],
  6135					;IR BOOLE AD FM- F [IR2],IR BOOLE[IR1],IR XX (2,6,7,10,12,15)[IR2],
  6136					;AD EQV[ADCR],AD EQV F/F[ADC2],FCYC ACT EN A[F1],
  6137					;IR BOOLE (6,11)[IR2],IR BOOLE[IR1],IRXX(6,11)[IR2]
  6138
  6139					;**********
  6140
  6141					;THIS TEST VERIFIES THAT THE RESULT OF THE XOR INSTRUCTION WHERE
  6142					;C(E)=0 AND C(AC) IS NON-ZERO IS AN AC WHOSE CONTENTS IS NON-ZERO.  THIS
  6143					;TEST IS REPEATED 36 TIMES. EACH TIME THE AC IS INITIALIZED SO THAT ONE
  6144					;AND ONLY ONE FLOATING BIT IS SET TO ONE AND XOR IS EXECUTED WITH E
  6145					;CONTAINING ALL ZEROS.  THE AC IS THEN CHECKED FOR A NON-ZERO RESULT.
  6146			007407		SN=SN+1
  6147			000100			ZZ=ZZ+ZZ
  6148						IFE	ZZ,<ZZ=1>
  6149	033440	200 00 0 00 070273 		MOVE	[ZZ]		;PRELOAD AC WITH ONE FLOATING BIT SET
  6150	033441	430 00 0 00 070253 		XOR	[0]		;*XOR WITH C(E)=0 AND ONE BIT OF C(AC) SET SHOULD
  6151									;RESULT IN C(AC) NON-ZERO
  6152	033442	336 00 0 00 000000 		SKIPN			;PASS TEST IF C(AC) NON-ZERO
  6153						STOP^
  6154	033443	254 04 0 00 033444 		HALT	.+1		;TEST FAILED IF PROGRAM HALTS HERE
  6155	033444	324 00 0 00 033445 		JUMPA	.+1		;IF TEST FAILS, CHANGE THIS INSTRUCTION (JUMPA .+1) TO
  6156									;JUMPA X (X IS THE ADDRESS OF THE FIRST INSTRUCTION
  6157									;IN THE SUBTEST) TO LOOP ON ERROR^
  6158
  6159					;AD FM- EN [ADFM], AD FM- F/F'S[ADFM],F CYC ACT EN D[R1],
  6160					;IR BOOLE AD FM- F [IR2],IR BOOLE[IR1],IR XX (2,6,7,10,12,15)[IR2],
DFKAA PDP-10 KL10 BASIC INSTRUCTION DIAGNOSTIC (1) VER 0,2	MACRO %53B(1254)-4 11:50 11-Nov-24 Page 27-17
DFKAA1	MAC	13-Jan-89 10:22		TEST OF BOOLEAN INSTRUCTIONS (SETM, SETZ, AND, XOR, EQV)

  6161					;AD EQV[ADCR],AD EQV F/F[ADC2],FCYC ACT EN A[F1],
  6162					;IR BOOLE (6,11)[IR2],IR BOOLE[IR1],IRXX(6,11)[IR2]
  6163
  6164					;**********
  6165
  6166					;THIS TEST VERIFIES THAT THE RESULT OF THE XOR INSTRUCTION WHERE
  6167					;C(E)=0 AND C(AC) IS NON-ZERO IS AN AC WHOSE CONTENTS IS NON-ZERO.  THIS
  6168					;TEST IS REPEATED 36 TIMES. EACH TIME THE AC IS INITIALIZED SO THAT ONE
  6169					;AND ONLY ONE FLOATING BIT IS SET TO ONE AND XOR IS EXECUTED WITH E
  6170					;CONTAINING ALL ZEROS.  THE AC IS THEN CHECKED FOR A NON-ZERO RESULT.
  6171			007410		SN=SN+1
  6172			000200			ZZ=ZZ+ZZ
  6173						IFE	ZZ,<ZZ=1>
  6174	033445	200 00 0 00 070274 		MOVE	[ZZ]		;PRELOAD AC WITH ONE FLOATING BIT SET
  6175	033446	430 00 0 00 070253 		XOR	[0]		;*XOR WITH C(E)=0 AND ONE BIT OF C(AC) SET SHOULD
  6176									;RESULT IN C(AC) NON-ZERO
  6177	033447	336 00 0 00 000000 		SKIPN			;PASS TEST IF C(AC) NON-ZERO
  6178						STOP^
  6179	033450	254 04 0 00 033451 		HALT	.+1		;TEST FAILED IF PROGRAM HALTS HERE
  6180	033451	324 00 0 00 033452 		JUMPA	.+1		;IF TEST FAILS, CHANGE THIS INSTRUCTION (JUMPA .+1) TO
  6181									;JUMPA X (X IS THE ADDRESS OF THE FIRST INSTRUCTION
  6182									;IN THE SUBTEST) TO LOOP ON ERROR^
  6183
  6184					;AD FM- EN [ADFM], AD FM- F/F'S[ADFM],F CYC ACT EN D[R1],
  6185					;IR BOOLE AD FM- F [IR2],IR BOOLE[IR1],IR XX (2,6,7,10,12,15)[IR2],
  6186					;AD EQV[ADCR],AD EQV F/F[ADC2],FCYC ACT EN A[F1],
  6187					;IR BOOLE (6,11)[IR2],IR BOOLE[IR1],IRXX(6,11)[IR2]
  6188
  6189					;**********
  6190
  6191					;THIS TEST VERIFIES THAT THE RESULT OF THE XOR INSTRUCTION WHERE
  6192					;C(E)=0 AND C(AC) IS NON-ZERO IS AN AC WHOSE CONTENTS IS NON-ZERO.  THIS
  6193					;TEST IS REPEATED 36 TIMES. EACH TIME THE AC IS INITIALIZED SO THAT ONE
  6194					;AND ONLY ONE FLOATING BIT IS SET TO ONE AND XOR IS EXECUTED WITH E
  6195					;CONTAINING ALL ZEROS.  THE AC IS THEN CHECKED FOR A NON-ZERO RESULT.
  6196			007411		SN=SN+1
  6197			000400			ZZ=ZZ+ZZ
  6198						IFE	ZZ,<ZZ=1>
  6199	033452	200 00 0 00 070275 		MOVE	[ZZ]		;PRELOAD AC WITH ONE FLOATING BIT SET
  6200	033453	430 00 0 00 070253 		XOR	[0]		;*XOR WITH C(E)=0 AND ONE BIT OF C(AC) SET SHOULD
  6201									;RESULT IN C(AC) NON-ZERO
  6202	033454	336 00 0 00 000000 		SKIPN			;PASS TEST IF C(AC) NON-ZERO
  6203						STOP^
  6204	033455	254 04 0 00 033456 		HALT	.+1		;TEST FAILED IF PROGRAM HALTS HERE
  6205	033456	324 00 0 00 033457 		JUMPA	.+1		;IF TEST FAILS, CHANGE THIS INSTRUCTION (JUMPA .+1) TO
  6206									;JUMPA X (X IS THE ADDRESS OF THE FIRST INSTRUCTION
  6207									;IN THE SUBTEST) TO LOOP ON ERROR^
  6208
  6209					;AD FM- EN [ADFM], AD FM- F/F'S[ADFM],F CYC ACT EN D[R1],
  6210					;IR BOOLE AD FM- F [IR2],IR BOOLE[IR1],IR XX (2,6,7,10,12,15)[IR2],
  6211					;AD EQV[ADCR],AD EQV F/F[ADC2],FCYC ACT EN A[F1],
  6212					;IR BOOLE (6,11)[IR2],IR BOOLE[IR1],IRXX(6,11)[IR2]
  6213
  6214					;**********
  6215
DFKAA PDP-10 KL10 BASIC INSTRUCTION DIAGNOSTIC (1) VER 0,2	MACRO %53B(1254)-4 11:50 11-Nov-24 Page 27-18
DFKAA1	MAC	13-Jan-89 10:22		TEST OF BOOLEAN INSTRUCTIONS (SETM, SETZ, AND, XOR, EQV)

  6216					;THIS TEST VERIFIES THAT THE RESULT OF THE XOR INSTRUCTION WHERE
  6217					;C(E)=0 AND C(AC) IS NON-ZERO IS AN AC WHOSE CONTENTS IS NON-ZERO.  THIS
  6218					;TEST IS REPEATED 36 TIMES. EACH TIME THE AC IS INITIALIZED SO THAT ONE
  6219					;AND ONLY ONE FLOATING BIT IS SET TO ONE AND XOR IS EXECUTED WITH E
  6220					;CONTAINING ALL ZEROS.  THE AC IS THEN CHECKED FOR A NON-ZERO RESULT.
  6221			007412		SN=SN+1
  6222			001000			ZZ=ZZ+ZZ
  6223						IFE	ZZ,<ZZ=1>
  6224	033457	200 00 0 00 070276 		MOVE	[ZZ]		;PRELOAD AC WITH ONE FLOATING BIT SET
  6225	033460	430 00 0 00 070253 		XOR	[0]		;*XOR WITH C(E)=0 AND ONE BIT OF C(AC) SET SHOULD
  6226									;RESULT IN C(AC) NON-ZERO
  6227	033461	336 00 0 00 000000 		SKIPN			;PASS TEST IF C(AC) NON-ZERO
  6228						STOP^
  6229	033462	254 04 0 00 033463 		HALT	.+1		;TEST FAILED IF PROGRAM HALTS HERE
  6230	033463	324 00 0 00 033464 		JUMPA	.+1		;IF TEST FAILS, CHANGE THIS INSTRUCTION (JUMPA .+1) TO
  6231									;JUMPA X (X IS THE ADDRESS OF THE FIRST INSTRUCTION
  6232									;IN THE SUBTEST) TO LOOP ON ERROR^
  6233
  6234					;AD FM- EN [ADFM], AD FM- F/F'S[ADFM],F CYC ACT EN D[R1],
  6235					;IR BOOLE AD FM- F [IR2],IR BOOLE[IR1],IR XX (2,6,7,10,12,15)[IR2],
  6236					;AD EQV[ADCR],AD EQV F/F[ADC2],FCYC ACT EN A[F1],
  6237					;IR BOOLE (6,11)[IR2],IR BOOLE[IR1],IRXX(6,11)[IR2]
  6238
  6239					;**********
  6240
  6241					;THIS TEST VERIFIES THAT THE RESULT OF THE XOR INSTRUCTION WHERE
  6242					;C(E)=0 AND C(AC) IS NON-ZERO IS AN AC WHOSE CONTENTS IS NON-ZERO.  THIS
  6243					;TEST IS REPEATED 36 TIMES. EACH TIME THE AC IS INITIALIZED SO THAT ONE
  6244					;AND ONLY ONE FLOATING BIT IS SET TO ONE AND XOR IS EXECUTED WITH E
  6245					;CONTAINING ALL ZEROS.  THE AC IS THEN CHECKED FOR A NON-ZERO RESULT.
  6246			007413		SN=SN+1
  6247			002000			ZZ=ZZ+ZZ
  6248						IFE	ZZ,<ZZ=1>
  6249	033464	200 00 0 00 070277 		MOVE	[ZZ]		;PRELOAD AC WITH ONE FLOATING BIT SET
  6250	033465	430 00 0 00 070253 		XOR	[0]		;*XOR WITH C(E)=0 AND ONE BIT OF C(AC) SET SHOULD
  6251									;RESULT IN C(AC) NON-ZERO
  6252	033466	336 00 0 00 000000 		SKIPN			;PASS TEST IF C(AC) NON-ZERO
  6253						STOP^
  6254	033467	254 04 0 00 033470 		HALT	.+1		;TEST FAILED IF PROGRAM HALTS HERE
  6255	033470	324 00 0 00 033471 		JUMPA	.+1		;IF TEST FAILS, CHANGE THIS INSTRUCTION (JUMPA .+1) TO
  6256									;JUMPA X (X IS THE ADDRESS OF THE FIRST INSTRUCTION
  6257									;IN THE SUBTEST) TO LOOP ON ERROR^
  6258
  6259					;AD FM- EN [ADFM], AD FM- F/F'S[ADFM],F CYC ACT EN D[R1],
  6260					;IR BOOLE AD FM- F [IR2],IR BOOLE[IR1],IR XX (2,6,7,10,12,15)[IR2],
  6261					;AD EQV[ADCR],AD EQV F/F[ADC2],FCYC ACT EN A[F1],
  6262					;IR BOOLE (6,11)[IR2],IR BOOLE[IR1],IRXX(6,11)[IR2]
  6263
  6264					;**********
  6265
  6266					;THIS TEST VERIFIES THAT THE RESULT OF THE XOR INSTRUCTION WHERE
  6267					;C(E)=0 AND C(AC) IS NON-ZERO IS AN AC WHOSE CONTENTS IS NON-ZERO.  THIS
  6268					;TEST IS REPEATED 36 TIMES. EACH TIME THE AC IS INITIALIZED SO THAT ONE
  6269					;AND ONLY ONE FLOATING BIT IS SET TO ONE AND XOR IS EXECUTED WITH E
  6270					;CONTAINING ALL ZEROS.  THE AC IS THEN CHECKED FOR A NON-ZERO RESULT.
DFKAA PDP-10 KL10 BASIC INSTRUCTION DIAGNOSTIC (1) VER 0,2	MACRO %53B(1254)-4 11:50 11-Nov-24 Page 27-19
DFKAA1	MAC	13-Jan-89 10:22		TEST OF BOOLEAN INSTRUCTIONS (SETM, SETZ, AND, XOR, EQV)

  6271			007414		SN=SN+1
  6272			004000			ZZ=ZZ+ZZ
  6273						IFE	ZZ,<ZZ=1>
  6274	033471	200 00 0 00 070300 		MOVE	[ZZ]		;PRELOAD AC WITH ONE FLOATING BIT SET
  6275	033472	430 00 0 00 070253 		XOR	[0]		;*XOR WITH C(E)=0 AND ONE BIT OF C(AC) SET SHOULD
  6276									;RESULT IN C(AC) NON-ZERO
  6277	033473	336 00 0 00 000000 		SKIPN			;PASS TEST IF C(AC) NON-ZERO
  6278						STOP^
  6279	033474	254 04 0 00 033475 		HALT	.+1		;TEST FAILED IF PROGRAM HALTS HERE
  6280	033475	324 00 0 00 033476 		JUMPA	.+1		;IF TEST FAILS, CHANGE THIS INSTRUCTION (JUMPA .+1) TO
  6281									;JUMPA X (X IS THE ADDRESS OF THE FIRST INSTRUCTION
  6282									;IN THE SUBTEST) TO LOOP ON ERROR^
  6283
  6284					;AD FM- EN [ADFM], AD FM- F/F'S[ADFM],F CYC ACT EN D[R1],
  6285					;IR BOOLE AD FM- F [IR2],IR BOOLE[IR1],IR XX (2,6,7,10,12,15)[IR2],
  6286					;AD EQV[ADCR],AD EQV F/F[ADC2],FCYC ACT EN A[F1],
  6287					;IR BOOLE (6,11)[IR2],IR BOOLE[IR1],IRXX(6,11)[IR2]
  6288
  6289					;**********
  6290
  6291					;THIS TEST VERIFIES THAT THE RESULT OF THE XOR INSTRUCTION WHERE
  6292					;C(E)=0 AND C(AC) IS NON-ZERO IS AN AC WHOSE CONTENTS IS NON-ZERO.  THIS
  6293					;TEST IS REPEATED 36 TIMES. EACH TIME THE AC IS INITIALIZED SO THAT ONE
  6294					;AND ONLY ONE FLOATING BIT IS SET TO ONE AND XOR IS EXECUTED WITH E
  6295					;CONTAINING ALL ZEROS.  THE AC IS THEN CHECKED FOR A NON-ZERO RESULT.
  6296			007415		SN=SN+1
  6297			010000			ZZ=ZZ+ZZ
  6298						IFE	ZZ,<ZZ=1>
  6299	033476	200 00 0 00 070301 		MOVE	[ZZ]		;PRELOAD AC WITH ONE FLOATING BIT SET
  6300	033477	430 00 0 00 070253 		XOR	[0]		;*XOR WITH C(E)=0 AND ONE BIT OF C(AC) SET SHOULD
  6301									;RESULT IN C(AC) NON-ZERO
  6302	033500	336 00 0 00 000000 		SKIPN			;PASS TEST IF C(AC) NON-ZERO
  6303						STOP^
  6304	033501	254 04 0 00 033502 		HALT	.+1		;TEST FAILED IF PROGRAM HALTS HERE
  6305	033502	324 00 0 00 033503 		JUMPA	.+1		;IF TEST FAILS, CHANGE THIS INSTRUCTION (JUMPA .+1) TO
  6306									;JUMPA X (X IS THE ADDRESS OF THE FIRST INSTRUCTION
  6307									;IN THE SUBTEST) TO LOOP ON ERROR^
  6308
  6309					;AD FM- EN [ADFM], AD FM- F/F'S[ADFM],F CYC ACT EN D[R1],
  6310					;IR BOOLE AD FM- F [IR2],IR BOOLE[IR1],IR XX (2,6,7,10,12,15)[IR2],
  6311					;AD EQV[ADCR],AD EQV F/F[ADC2],FCYC ACT EN A[F1],
  6312					;IR BOOLE (6,11)[IR2],IR BOOLE[IR1],IRXX(6,11)[IR2]
  6313
  6314					;**********
  6315
  6316					;THIS TEST VERIFIES THAT THE RESULT OF THE XOR INSTRUCTION WHERE
  6317					;C(E)=0 AND C(AC) IS NON-ZERO IS AN AC WHOSE CONTENTS IS NON-ZERO.  THIS
  6318					;TEST IS REPEATED 36 TIMES. EACH TIME THE AC IS INITIALIZED SO THAT ONE
  6319					;AND ONLY ONE FLOATING BIT IS SET TO ONE AND XOR IS EXECUTED WITH E
  6320					;CONTAINING ALL ZEROS.  THE AC IS THEN CHECKED FOR A NON-ZERO RESULT.
  6321			007416		SN=SN+1
  6322			020000			ZZ=ZZ+ZZ
  6323						IFE	ZZ,<ZZ=1>
  6324	033503	200 00 0 00 070302 		MOVE	[ZZ]		;PRELOAD AC WITH ONE FLOATING BIT SET
  6325	033504	430 00 0 00 070253 		XOR	[0]		;*XOR WITH C(E)=0 AND ONE BIT OF C(AC) SET SHOULD
DFKAA PDP-10 KL10 BASIC INSTRUCTION DIAGNOSTIC (1) VER 0,2	MACRO %53B(1254)-4 11:50 11-Nov-24 Page 27-20
DFKAA1	MAC	13-Jan-89 10:22		TEST OF BOOLEAN INSTRUCTIONS (SETM, SETZ, AND, XOR, EQV)

  6326									;RESULT IN C(AC) NON-ZERO
  6327	033505	336 00 0 00 000000 		SKIPN			;PASS TEST IF C(AC) NON-ZERO
  6328						STOP^
  6329	033506	254 04 0 00 033507 		HALT	.+1		;TEST FAILED IF PROGRAM HALTS HERE
  6330	033507	324 00 0 00 033510 		JUMPA	.+1		;IF TEST FAILS, CHANGE THIS INSTRUCTION (JUMPA .+1) TO
  6331									;JUMPA X (X IS THE ADDRESS OF THE FIRST INSTRUCTION
  6332									;IN THE SUBTEST) TO LOOP ON ERROR^
  6333
  6334					;AD FM- EN [ADFM], AD FM- F/F'S[ADFM],F CYC ACT EN D[R1],
  6335					;IR BOOLE AD FM- F [IR2],IR BOOLE[IR1],IR XX (2,6,7,10,12,15)[IR2],
  6336					;AD EQV[ADCR],AD EQV F/F[ADC2],FCYC ACT EN A[F1],
  6337					;IR BOOLE (6,11)[IR2],IR BOOLE[IR1],IRXX(6,11)[IR2]
  6338
  6339					;**********
  6340
  6341					;THIS TEST VERIFIES THAT THE RESULT OF THE XOR INSTRUCTION WHERE
  6342					;C(E)=0 AND C(AC) IS NON-ZERO IS AN AC WHOSE CONTENTS IS NON-ZERO.  THIS
  6343					;TEST IS REPEATED 36 TIMES. EACH TIME THE AC IS INITIALIZED SO THAT ONE
  6344					;AND ONLY ONE FLOATING BIT IS SET TO ONE AND XOR IS EXECUTED WITH E
  6345					;CONTAINING ALL ZEROS.  THE AC IS THEN CHECKED FOR A NON-ZERO RESULT.
  6346			007417		SN=SN+1
  6347			040000			ZZ=ZZ+ZZ
  6348						IFE	ZZ,<ZZ=1>
  6349	033510	200 00 0 00 070303 		MOVE	[ZZ]		;PRELOAD AC WITH ONE FLOATING BIT SET
  6350	033511	430 00 0 00 070253 		XOR	[0]		;*XOR WITH C(E)=0 AND ONE BIT OF C(AC) SET SHOULD
  6351									;RESULT IN C(AC) NON-ZERO
  6352	033512	336 00 0 00 000000 		SKIPN			;PASS TEST IF C(AC) NON-ZERO
  6353						STOP^
  6354	033513	254 04 0 00 033514 		HALT	.+1		;TEST FAILED IF PROGRAM HALTS HERE
  6355	033514	324 00 0 00 033515 		JUMPA	.+1		;IF TEST FAILS, CHANGE THIS INSTRUCTION (JUMPA .+1) TO
  6356									;JUMPA X (X IS THE ADDRESS OF THE FIRST INSTRUCTION
  6357									;IN THE SUBTEST) TO LOOP ON ERROR^
  6358
  6359					;AD FM- EN [ADFM], AD FM- F/F'S[ADFM],F CYC ACT EN D[R1],
  6360					;IR BOOLE AD FM- F [IR2],IR BOOLE[IR1],IR XX (2,6,7,10,12,15)[IR2],
  6361					;AD EQV[ADCR],AD EQV F/F[ADC2],FCYC ACT EN A[F1],
  6362					;IR BOOLE (6,11)[IR2],IR BOOLE[IR1],IRXX(6,11)[IR2]
  6363
  6364					;**********
  6365
  6366					;THIS TEST VERIFIES THAT THE RESULT OF THE XOR INSTRUCTION WHERE
  6367					;C(E)=0 AND C(AC) IS NON-ZERO IS AN AC WHOSE CONTENTS IS NON-ZERO.  THIS
  6368					;TEST IS REPEATED 36 TIMES. EACH TIME THE AC IS INITIALIZED SO THAT ONE
  6369					;AND ONLY ONE FLOATING BIT IS SET TO ONE AND XOR IS EXECUTED WITH E
  6370					;CONTAINING ALL ZEROS.  THE AC IS THEN CHECKED FOR A NON-ZERO RESULT.
  6371			007420		SN=SN+1
  6372			100000			ZZ=ZZ+ZZ
  6373						IFE	ZZ,<ZZ=1>
  6374	033515	200 00 0 00 070304 		MOVE	[ZZ]		;PRELOAD AC WITH ONE FLOATING BIT SET
  6375	033516	430 00 0 00 070253 		XOR	[0]		;*XOR WITH C(E)=0 AND ONE BIT OF C(AC) SET SHOULD
  6376									;RESULT IN C(AC) NON-ZERO
  6377	033517	336 00 0 00 000000 		SKIPN			;PASS TEST IF C(AC) NON-ZERO
  6378						STOP^
  6379	033520	254 04 0 00 033521 		HALT	.+1		;TEST FAILED IF PROGRAM HALTS HERE
  6380	033521	324 00 0 00 033522 		JUMPA	.+1		;IF TEST FAILS, CHANGE THIS INSTRUCTION (JUMPA .+1) TO
DFKAA PDP-10 KL10 BASIC INSTRUCTION DIAGNOSTIC (1) VER 0,2	MACRO %53B(1254)-4 11:50 11-Nov-24 Page 27-21
DFKAA1	MAC	13-Jan-89 10:22		TEST OF BOOLEAN INSTRUCTIONS (SETM, SETZ, AND, XOR, EQV)

  6381									;JUMPA X (X IS THE ADDRESS OF THE FIRST INSTRUCTION
  6382									;IN THE SUBTEST) TO LOOP ON ERROR^
  6383
  6384					;AD FM- EN [ADFM], AD FM- F/F'S[ADFM],F CYC ACT EN D[R1],
  6385					;IR BOOLE AD FM- F [IR2],IR BOOLE[IR1],IR XX (2,6,7,10,12,15)[IR2],
  6386					;AD EQV[ADCR],AD EQV F/F[ADC2],FCYC ACT EN A[F1],
  6387					;IR BOOLE (6,11)[IR2],IR BOOLE[IR1],IRXX(6,11)[IR2]
  6388
  6389					;**********
  6390
  6391					;THIS TEST VERIFIES THAT THE RESULT OF THE XOR INSTRUCTION WHERE
  6392					;C(E)=0 AND C(AC) IS NON-ZERO IS AN AC WHOSE CONTENTS IS NON-ZERO.  THIS
  6393					;TEST IS REPEATED 36 TIMES. EACH TIME THE AC IS INITIALIZED SO THAT ONE
  6394					;AND ONLY ONE FLOATING BIT IS SET TO ONE AND XOR IS EXECUTED WITH E
  6395					;CONTAINING ALL ZEROS.  THE AC IS THEN CHECKED FOR A NON-ZERO RESULT.
  6396			007421		SN=SN+1
  6397			200000			ZZ=ZZ+ZZ
  6398						IFE	ZZ,<ZZ=1>
  6399	033522	200 00 0 00 070305 		MOVE	[ZZ]		;PRELOAD AC WITH ONE FLOATING BIT SET
  6400	033523	430 00 0 00 070253 		XOR	[0]		;*XOR WITH C(E)=0 AND ONE BIT OF C(AC) SET SHOULD
  6401									;RESULT IN C(AC) NON-ZERO
  6402	033524	336 00 0 00 000000 		SKIPN			;PASS TEST IF C(AC) NON-ZERO
  6403						STOP^
  6404	033525	254 04 0 00 033526 		HALT	.+1		;TEST FAILED IF PROGRAM HALTS HERE
  6405	033526	324 00 0 00 033527 		JUMPA	.+1		;IF TEST FAILS, CHANGE THIS INSTRUCTION (JUMPA .+1) TO
  6406									;JUMPA X (X IS THE ADDRESS OF THE FIRST INSTRUCTION
  6407									;IN THE SUBTEST) TO LOOP ON ERROR^
  6408
  6409					;AD FM- EN [ADFM], AD FM- F/F'S[ADFM],F CYC ACT EN D[R1],
  6410					;IR BOOLE AD FM- F [IR2],IR BOOLE[IR1],IR XX (2,6,7,10,12,15)[IR2],
  6411					;AD EQV[ADCR],AD EQV F/F[ADC2],FCYC ACT EN A[F1],
  6412					;IR BOOLE (6,11)[IR2],IR BOOLE[IR1],IRXX(6,11)[IR2]
  6413
  6414					;**********
  6415
  6416					;THIS TEST VERIFIES THAT THE RESULT OF THE XOR INSTRUCTION WHERE
  6417					;C(E)=0 AND C(AC) IS NON-ZERO IS AN AC WHOSE CONTENTS IS NON-ZERO.  THIS
  6418					;TEST IS REPEATED 36 TIMES. EACH TIME THE AC IS INITIALIZED SO THAT ONE
  6419					;AND ONLY ONE FLOATING BIT IS SET TO ONE AND XOR IS EXECUTED WITH E
  6420					;CONTAINING ALL ZEROS.  THE AC IS THEN CHECKED FOR A NON-ZERO RESULT.
  6421			007422		SN=SN+1
  6422			400000			ZZ=ZZ+ZZ
  6423						IFE	ZZ,<ZZ=1>
  6424	033527	200 00 0 00 070306 		MOVE	[ZZ]		;PRELOAD AC WITH ONE FLOATING BIT SET
  6425	033530	430 00 0 00 070253 		XOR	[0]		;*XOR WITH C(E)=0 AND ONE BIT OF C(AC) SET SHOULD
  6426									;RESULT IN C(AC) NON-ZERO
  6427	033531	336 00 0 00 000000 		SKIPN			;PASS TEST IF C(AC) NON-ZERO
  6428						STOP^
  6429	033532	254 04 0 00 033533 		HALT	.+1		;TEST FAILED IF PROGRAM HALTS HERE
  6430	033533	324 00 0 00 033534 		JUMPA	.+1		;IF TEST FAILS, CHANGE THIS INSTRUCTION (JUMPA .+1) TO
  6431									;JUMPA X (X IS THE ADDRESS OF THE FIRST INSTRUCTION
  6432									;IN THE SUBTEST) TO LOOP ON ERROR^
  6433
  6434					;AD FM- EN [ADFM], AD FM- F/F'S[ADFM],F CYC ACT EN D[R1],
  6435					;IR BOOLE AD FM- F [IR2],IR BOOLE[IR1],IR XX (2,6,7,10,12,15)[IR2],
DFKAA PDP-10 KL10 BASIC INSTRUCTION DIAGNOSTIC (1) VER 0,2	MACRO %53B(1254)-4 11:50 11-Nov-24 Page 27-22
DFKAA1	MAC	13-Jan-89 10:22		TEST OF BOOLEAN INSTRUCTIONS (SETM, SETZ, AND, XOR, EQV)

  6436					;AD EQV[ADCR],AD EQV F/F[ADC2],FCYC ACT EN A[F1],
  6437					;IR BOOLE (6,11)[IR2],IR BOOLE[IR1],IRXX(6,11)[IR2]
  6438
  6439					;**********
  6440
  6441					;THIS TEST VERIFIES THAT THE RESULT OF THE XOR INSTRUCTION WHERE
  6442					;C(E)=0 AND C(AC) IS NON-ZERO IS AN AC WHOSE CONTENTS IS NON-ZERO.  THIS
  6443					;TEST IS REPEATED 36 TIMES. EACH TIME THE AC IS INITIALIZED SO THAT ONE
  6444					;AND ONLY ONE FLOATING BIT IS SET TO ONE AND XOR IS EXECUTED WITH E
  6445					;CONTAINING ALL ZEROS.  THE AC IS THEN CHECKED FOR A NON-ZERO RESULT.
  6446			007423		SN=SN+1
  6447		000001	000000			ZZ=ZZ+ZZ
  6448						IFE	ZZ,<ZZ=1>
  6449	033534	200 00 0 00 070307 		MOVE	[ZZ]		;PRELOAD AC WITH ONE FLOATING BIT SET
  6450	033535	430 00 0 00 070253 		XOR	[0]		;*XOR WITH C(E)=0 AND ONE BIT OF C(AC) SET SHOULD
  6451									;RESULT IN C(AC) NON-ZERO
  6452	033536	336 00 0 00 000000 		SKIPN			;PASS TEST IF C(AC) NON-ZERO
  6453						STOP^
  6454	033537	254 04 0 00 033540 		HALT	.+1		;TEST FAILED IF PROGRAM HALTS HERE
  6455	033540	324 00 0 00 033541 		JUMPA	.+1		;IF TEST FAILS, CHANGE THIS INSTRUCTION (JUMPA .+1) TO
  6456									;JUMPA X (X IS THE ADDRESS OF THE FIRST INSTRUCTION
  6457									;IN THE SUBTEST) TO LOOP ON ERROR^
  6458
  6459					;AD FM- EN [ADFM], AD FM- F/F'S[ADFM],F CYC ACT EN D[R1],
  6460					;IR BOOLE AD FM- F [IR2],IR BOOLE[IR1],IR XX (2,6,7,10,12,15)[IR2],
  6461					;AD EQV[ADCR],AD EQV F/F[ADC2],FCYC ACT EN A[F1],
  6462					;IR BOOLE (6,11)[IR2],IR BOOLE[IR1],IRXX(6,11)[IR2]
  6463
  6464					;**********
  6465
  6466					;THIS TEST VERIFIES THAT THE RESULT OF THE XOR INSTRUCTION WHERE
  6467					;C(E)=0 AND C(AC) IS NON-ZERO IS AN AC WHOSE CONTENTS IS NON-ZERO.  THIS
  6468					;TEST IS REPEATED 36 TIMES. EACH TIME THE AC IS INITIALIZED SO THAT ONE
  6469					;AND ONLY ONE FLOATING BIT IS SET TO ONE AND XOR IS EXECUTED WITH E
  6470					;CONTAINING ALL ZEROS.  THE AC IS THEN CHECKED FOR A NON-ZERO RESULT.
  6471			007424		SN=SN+1
  6472		000002	000000			ZZ=ZZ+ZZ
  6473						IFE	ZZ,<ZZ=1>
  6474	033541	200 00 0 00 070310 		MOVE	[ZZ]		;PRELOAD AC WITH ONE FLOATING BIT SET
  6475	033542	430 00 0 00 070253 		XOR	[0]		;*XOR WITH C(E)=0 AND ONE BIT OF C(AC) SET SHOULD
  6476									;RESULT IN C(AC) NON-ZERO
  6477	033543	336 00 0 00 000000 		SKIPN			;PASS TEST IF C(AC) NON-ZERO
  6478						STOP^
  6479	033544	254 04 0 00 033545 		HALT	.+1		;TEST FAILED IF PROGRAM HALTS HERE
  6480	033545	324 00 0 00 033546 		JUMPA	.+1		;IF TEST FAILS, CHANGE THIS INSTRUCTION (JUMPA .+1) TO
  6481									;JUMPA X (X IS THE ADDRESS OF THE FIRST INSTRUCTION
  6482									;IN THE SUBTEST) TO LOOP ON ERROR^
  6483
  6484					;AD FM- EN [ADFM], AD FM- F/F'S[ADFM],F CYC ACT EN D[R1],
  6485					;IR BOOLE AD FM- F [IR2],IR BOOLE[IR1],IR XX (2,6,7,10,12,15)[IR2],
  6486					;AD EQV[ADCR],AD EQV F/F[ADC2],FCYC ACT EN A[F1],
  6487					;IR BOOLE (6,11)[IR2],IR BOOLE[IR1],IRXX(6,11)[IR2]
  6488
  6489					;**********
  6490
DFKAA PDP-10 KL10 BASIC INSTRUCTION DIAGNOSTIC (1) VER 0,2	MACRO %53B(1254)-4 11:50 11-Nov-24 Page 27-23
DFKAA1	MAC	13-Jan-89 10:22		TEST OF BOOLEAN INSTRUCTIONS (SETM, SETZ, AND, XOR, EQV)

  6491					;THIS TEST VERIFIES THAT THE RESULT OF THE XOR INSTRUCTION WHERE
  6492					;C(E)=0 AND C(AC) IS NON-ZERO IS AN AC WHOSE CONTENTS IS NON-ZERO.  THIS
  6493					;TEST IS REPEATED 36 TIMES. EACH TIME THE AC IS INITIALIZED SO THAT ONE
  6494					;AND ONLY ONE FLOATING BIT IS SET TO ONE AND XOR IS EXECUTED WITH E
  6495					;CONTAINING ALL ZEROS.  THE AC IS THEN CHECKED FOR A NON-ZERO RESULT.
  6496			007425		SN=SN+1
  6497		000004	000000			ZZ=ZZ+ZZ
  6498						IFE	ZZ,<ZZ=1>
  6499	033546	200 00 0 00 070311 		MOVE	[ZZ]		;PRELOAD AC WITH ONE FLOATING BIT SET
  6500	033547	430 00 0 00 070253 		XOR	[0]		;*XOR WITH C(E)=0 AND ONE BIT OF C(AC) SET SHOULD
  6501									;RESULT IN C(AC) NON-ZERO
  6502	033550	336 00 0 00 000000 		SKIPN			;PASS TEST IF C(AC) NON-ZERO
  6503						STOP^
  6504	033551	254 04 0 00 033552 		HALT	.+1		;TEST FAILED IF PROGRAM HALTS HERE
  6505	033552	324 00 0 00 033553 		JUMPA	.+1		;IF TEST FAILS, CHANGE THIS INSTRUCTION (JUMPA .+1) TO
  6506									;JUMPA X (X IS THE ADDRESS OF THE FIRST INSTRUCTION
  6507									;IN THE SUBTEST) TO LOOP ON ERROR^
  6508
  6509					;AD FM- EN [ADFM], AD FM- F/F'S[ADFM],F CYC ACT EN D[R1],
  6510					;IR BOOLE AD FM- F [IR2],IR BOOLE[IR1],IR XX (2,6,7,10,12,15)[IR2],
  6511					;AD EQV[ADCR],AD EQV F/F[ADC2],FCYC ACT EN A[F1],
  6512					;IR BOOLE (6,11)[IR2],IR BOOLE[IR1],IRXX(6,11)[IR2]
  6513
  6514					;**********
  6515
  6516					;THIS TEST VERIFIES THAT THE RESULT OF THE XOR INSTRUCTION WHERE
  6517					;C(E)=0 AND C(AC) IS NON-ZERO IS AN AC WHOSE CONTENTS IS NON-ZERO.  THIS
  6518					;TEST IS REPEATED 36 TIMES. EACH TIME THE AC IS INITIALIZED SO THAT ONE
  6519					;AND ONLY ONE FLOATING BIT IS SET TO ONE AND XOR IS EXECUTED WITH E
  6520					;CONTAINING ALL ZEROS.  THE AC IS THEN CHECKED FOR A NON-ZERO RESULT.
  6521			007426		SN=SN+1
  6522		000010	000000			ZZ=ZZ+ZZ
  6523						IFE	ZZ,<ZZ=1>
  6524	033553	200 00 0 00 070312 		MOVE	[ZZ]		;PRELOAD AC WITH ONE FLOATING BIT SET
  6525	033554	430 00 0 00 070253 		XOR	[0]		;*XOR WITH C(E)=0 AND ONE BIT OF C(AC) SET SHOULD
  6526									;RESULT IN C(AC) NON-ZERO
  6527	033555	336 00 0 00 000000 		SKIPN			;PASS TEST IF C(AC) NON-ZERO
  6528						STOP^
  6529	033556	254 04 0 00 033557 		HALT	.+1		;TEST FAILED IF PROGRAM HALTS HERE
  6530	033557	324 00 0 00 033560 		JUMPA	.+1		;IF TEST FAILS, CHANGE THIS INSTRUCTION (JUMPA .+1) TO
  6531									;JUMPA X (X IS THE ADDRESS OF THE FIRST INSTRUCTION
  6532									;IN THE SUBTEST) TO LOOP ON ERROR^
  6533
  6534					;AD FM- EN [ADFM], AD FM- F/F'S[ADFM],F CYC ACT EN D[R1],
  6535					;IR BOOLE AD FM- F [IR2],IR BOOLE[IR1],IR XX (2,6,7,10,12,15)[IR2],
  6536					;AD EQV[ADCR],AD EQV F/F[ADC2],FCYC ACT EN A[F1],
  6537					;IR BOOLE (6,11)[IR2],IR BOOLE[IR1],IRXX(6,11)[IR2]
  6538
  6539					;**********
  6540
  6541					;THIS TEST VERIFIES THAT THE RESULT OF THE XOR INSTRUCTION WHERE
  6542					;C(E)=0 AND C(AC) IS NON-ZERO IS AN AC WHOSE CONTENTS IS NON-ZERO.  THIS
  6543					;TEST IS REPEATED 36 TIMES. EACH TIME THE AC IS INITIALIZED SO THAT ONE
  6544					;AND ONLY ONE FLOATING BIT IS SET TO ONE AND XOR IS EXECUTED WITH E
  6545					;CONTAINING ALL ZEROS.  THE AC IS THEN CHECKED FOR A NON-ZERO RESULT.
DFKAA PDP-10 KL10 BASIC INSTRUCTION DIAGNOSTIC (1) VER 0,2	MACRO %53B(1254)-4 11:50 11-Nov-24 Page 27-24
DFKAA1	MAC	13-Jan-89 10:22		TEST OF BOOLEAN INSTRUCTIONS (SETM, SETZ, AND, XOR, EQV)

  6546			007427		SN=SN+1
  6547		000020	000000			ZZ=ZZ+ZZ
  6548						IFE	ZZ,<ZZ=1>
  6549	033560	200 00 0 00 070313 		MOVE	[ZZ]		;PRELOAD AC WITH ONE FLOATING BIT SET
  6550	033561	430 00 0 00 070253 		XOR	[0]		;*XOR WITH C(E)=0 AND ONE BIT OF C(AC) SET SHOULD
  6551									;RESULT IN C(AC) NON-ZERO
  6552	033562	336 00 0 00 000000 		SKIPN			;PASS TEST IF C(AC) NON-ZERO
  6553						STOP^
  6554	033563	254 04 0 00 033564 		HALT	.+1		;TEST FAILED IF PROGRAM HALTS HERE
  6555	033564	324 00 0 00 033565 		JUMPA	.+1		;IF TEST FAILS, CHANGE THIS INSTRUCTION (JUMPA .+1) TO
  6556									;JUMPA X (X IS THE ADDRESS OF THE FIRST INSTRUCTION
  6557									;IN THE SUBTEST) TO LOOP ON ERROR^
  6558
  6559					;AD FM- EN [ADFM], AD FM- F/F'S[ADFM],F CYC ACT EN D[R1],
  6560					;IR BOOLE AD FM- F [IR2],IR BOOLE[IR1],IR XX (2,6,7,10,12,15)[IR2],
  6561					;AD EQV[ADCR],AD EQV F/F[ADC2],FCYC ACT EN A[F1],
  6562					;IR BOOLE (6,11)[IR2],IR BOOLE[IR1],IRXX(6,11)[IR2]
  6563
  6564					;**********
  6565
  6566					;THIS TEST VERIFIES THAT THE RESULT OF THE XOR INSTRUCTION WHERE
  6567					;C(E)=0 AND C(AC) IS NON-ZERO IS AN AC WHOSE CONTENTS IS NON-ZERO.  THIS
  6568					;TEST IS REPEATED 36 TIMES. EACH TIME THE AC IS INITIALIZED SO THAT ONE
  6569					;AND ONLY ONE FLOATING BIT IS SET TO ONE AND XOR IS EXECUTED WITH E
  6570					;CONTAINING ALL ZEROS.  THE AC IS THEN CHECKED FOR A NON-ZERO RESULT.
  6571			007430		SN=SN+1
  6572		000040	000000			ZZ=ZZ+ZZ
  6573						IFE	ZZ,<ZZ=1>
  6574	033565	200 00 0 00 070314 		MOVE	[ZZ]		;PRELOAD AC WITH ONE FLOATING BIT SET
  6575	033566	430 00 0 00 070253 		XOR	[0]		;*XOR WITH C(E)=0 AND ONE BIT OF C(AC) SET SHOULD
  6576									;RESULT IN C(AC) NON-ZERO
  6577	033567	336 00 0 00 000000 		SKIPN			;PASS TEST IF C(AC) NON-ZERO
  6578						STOP^
  6579	033570	254 04 0 00 033571 		HALT	.+1		;TEST FAILED IF PROGRAM HALTS HERE
  6580	033571	324 00 0 00 033572 		JUMPA	.+1		;IF TEST FAILS, CHANGE THIS INSTRUCTION (JUMPA .+1) TO
  6581									;JUMPA X (X IS THE ADDRESS OF THE FIRST INSTRUCTION
  6582									;IN THE SUBTEST) TO LOOP ON ERROR^
  6583
  6584					;AD FM- EN [ADFM], AD FM- F/F'S[ADFM],F CYC ACT EN D[R1],
  6585					;IR BOOLE AD FM- F [IR2],IR BOOLE[IR1],IR XX (2,6,7,10,12,15)[IR2],
  6586					;AD EQV[ADCR],AD EQV F/F[ADC2],FCYC ACT EN A[F1],
  6587					;IR BOOLE (6,11)[IR2],IR BOOLE[IR1],IRXX(6,11)[IR2]
  6588
  6589					;**********
  6590
  6591					;THIS TEST VERIFIES THAT THE RESULT OF THE XOR INSTRUCTION WHERE
  6592					;C(E)=0 AND C(AC) IS NON-ZERO IS AN AC WHOSE CONTENTS IS NON-ZERO.  THIS
  6593					;TEST IS REPEATED 36 TIMES. EACH TIME THE AC IS INITIALIZED SO THAT ONE
  6594					;AND ONLY ONE FLOATING BIT IS SET TO ONE AND XOR IS EXECUTED WITH E
  6595					;CONTAINING ALL ZEROS.  THE AC IS THEN CHECKED FOR A NON-ZERO RESULT.
  6596			007431		SN=SN+1
  6597		000100	000000			ZZ=ZZ+ZZ
  6598						IFE	ZZ,<ZZ=1>
  6599	033572	200 00 0 00 070315 		MOVE	[ZZ]		;PRELOAD AC WITH ONE FLOATING BIT SET
  6600	033573	430 00 0 00 070253 		XOR	[0]		;*XOR WITH C(E)=0 AND ONE BIT OF C(AC) SET SHOULD
DFKAA PDP-10 KL10 BASIC INSTRUCTION DIAGNOSTIC (1) VER 0,2	MACRO %53B(1254)-4 11:50 11-Nov-24 Page 27-25
DFKAA1	MAC	13-Jan-89 10:22		TEST OF BOOLEAN INSTRUCTIONS (SETM, SETZ, AND, XOR, EQV)

  6601									;RESULT IN C(AC) NON-ZERO
  6602	033574	336 00 0 00 000000 		SKIPN			;PASS TEST IF C(AC) NON-ZERO
  6603						STOP^
  6604	033575	254 04 0 00 033576 		HALT	.+1		;TEST FAILED IF PROGRAM HALTS HERE
  6605	033576	324 00 0 00 033577 		JUMPA	.+1		;IF TEST FAILS, CHANGE THIS INSTRUCTION (JUMPA .+1) TO
  6606									;JUMPA X (X IS THE ADDRESS OF THE FIRST INSTRUCTION
  6607									;IN THE SUBTEST) TO LOOP ON ERROR^
  6608
  6609					;AD FM- EN [ADFM], AD FM- F/F'S[ADFM],F CYC ACT EN D[R1],
  6610					;IR BOOLE AD FM- F [IR2],IR BOOLE[IR1],IR XX (2,6,7,10,12,15)[IR2],
  6611					;AD EQV[ADCR],AD EQV F/F[ADC2],FCYC ACT EN A[F1],
  6612					;IR BOOLE (6,11)[IR2],IR BOOLE[IR1],IRXX(6,11)[IR2]
  6613
  6614					;**********
  6615
  6616					;THIS TEST VERIFIES THAT THE RESULT OF THE XOR INSTRUCTION WHERE
  6617					;C(E)=0 AND C(AC) IS NON-ZERO IS AN AC WHOSE CONTENTS IS NON-ZERO.  THIS
  6618					;TEST IS REPEATED 36 TIMES. EACH TIME THE AC IS INITIALIZED SO THAT ONE
  6619					;AND ONLY ONE FLOATING BIT IS SET TO ONE AND XOR IS EXECUTED WITH E
  6620					;CONTAINING ALL ZEROS.  THE AC IS THEN CHECKED FOR A NON-ZERO RESULT.
  6621			007432		SN=SN+1
  6622		000200	000000			ZZ=ZZ+ZZ
  6623						IFE	ZZ,<ZZ=1>
  6624	033577	200 00 0 00 070316 		MOVE	[ZZ]		;PRELOAD AC WITH ONE FLOATING BIT SET
  6625	033600	430 00 0 00 070253 		XOR	[0]		;*XOR WITH C(E)=0 AND ONE BIT OF C(AC) SET SHOULD
  6626									;RESULT IN C(AC) NON-ZERO
  6627	033601	336 00 0 00 000000 		SKIPN			;PASS TEST IF C(AC) NON-ZERO
  6628						STOP^
  6629	033602	254 04 0 00 033603 		HALT	.+1		;TEST FAILED IF PROGRAM HALTS HERE
  6630	033603	324 00 0 00 033604 		JUMPA	.+1		;IF TEST FAILS, CHANGE THIS INSTRUCTION (JUMPA .+1) TO
  6631									;JUMPA X (X IS THE ADDRESS OF THE FIRST INSTRUCTION
  6632									;IN THE SUBTEST) TO LOOP ON ERROR^
  6633
  6634					;AD FM- EN [ADFM], AD FM- F/F'S[ADFM],F CYC ACT EN D[R1],
  6635					;IR BOOLE AD FM- F [IR2],IR BOOLE[IR1],IR XX (2,6,7,10,12,15)[IR2],
  6636					;AD EQV[ADCR],AD EQV F/F[ADC2],FCYC ACT EN A[F1],
  6637					;IR BOOLE (6,11)[IR2],IR BOOLE[IR1],IRXX(6,11)[IR2]
  6638
  6639					;**********
  6640
  6641					;THIS TEST VERIFIES THAT THE RESULT OF THE XOR INSTRUCTION WHERE
  6642					;C(E)=0 AND C(AC) IS NON-ZERO IS AN AC WHOSE CONTENTS IS NON-ZERO.  THIS
  6643					;TEST IS REPEATED 36 TIMES. EACH TIME THE AC IS INITIALIZED SO THAT ONE
  6644					;AND ONLY ONE FLOATING BIT IS SET TO ONE AND XOR IS EXECUTED WITH E
  6645					;CONTAINING ALL ZEROS.  THE AC IS THEN CHECKED FOR A NON-ZERO RESULT.
  6646			007433		SN=SN+1
  6647		000400	000000			ZZ=ZZ+ZZ
  6648						IFE	ZZ,<ZZ=1>
  6649	033604	200 00 0 00 070264 		MOVE	[ZZ]		;PRELOAD AC WITH ONE FLOATING BIT SET
  6650	033605	430 00 0 00 070253 		XOR	[0]		;*XOR WITH C(E)=0 AND ONE BIT OF C(AC) SET SHOULD
  6651									;RESULT IN C(AC) NON-ZERO
  6652	033606	336 00 0 00 000000 		SKIPN			;PASS TEST IF C(AC) NON-ZERO
  6653						STOP^
  6654	033607	254 04 0 00 033610 		HALT	.+1		;TEST FAILED IF PROGRAM HALTS HERE
  6655	033610	324 00 0 00 033611 		JUMPA	.+1		;IF TEST FAILS, CHANGE THIS INSTRUCTION (JUMPA .+1) TO
DFKAA PDP-10 KL10 BASIC INSTRUCTION DIAGNOSTIC (1) VER 0,2	MACRO %53B(1254)-4 11:50 11-Nov-24 Page 27-26
DFKAA1	MAC	13-Jan-89 10:22		TEST OF BOOLEAN INSTRUCTIONS (SETM, SETZ, AND, XOR, EQV)

  6656									;JUMPA X (X IS THE ADDRESS OF THE FIRST INSTRUCTION
  6657									;IN THE SUBTEST) TO LOOP ON ERROR^
  6658
  6659					;AD FM- EN [ADFM], AD FM- F/F'S[ADFM],F CYC ACT EN D[R1],
  6660					;IR BOOLE AD FM- F [IR2],IR BOOLE[IR1],IR XX (2,6,7,10,12,15)[IR2],
  6661					;AD EQV[ADCR],AD EQV F/F[ADC2],FCYC ACT EN A[F1],
  6662					;IR BOOLE (6,11)[IR2],IR BOOLE[IR1],IRXX(6,11)[IR2]
  6663
  6664					;**********
  6665
  6666					;THIS TEST VERIFIES THAT THE RESULT OF THE XOR INSTRUCTION WHERE
  6667					;C(E)=0 AND C(AC) IS NON-ZERO IS AN AC WHOSE CONTENTS IS NON-ZERO.  THIS
  6668					;TEST IS REPEATED 36 TIMES. EACH TIME THE AC IS INITIALIZED SO THAT ONE
  6669					;AND ONLY ONE FLOATING BIT IS SET TO ONE AND XOR IS EXECUTED WITH E
  6670					;CONTAINING ALL ZEROS.  THE AC IS THEN CHECKED FOR A NON-ZERO RESULT.
  6671			007434		SN=SN+1
  6672		001000	000000			ZZ=ZZ+ZZ
  6673						IFE	ZZ,<ZZ=1>
  6674	033611	200 00 0 00 070317 		MOVE	[ZZ]		;PRELOAD AC WITH ONE FLOATING BIT SET
  6675	033612	430 00 0 00 070253 		XOR	[0]		;*XOR WITH C(E)=0 AND ONE BIT OF C(AC) SET SHOULD
  6676									;RESULT IN C(AC) NON-ZERO
  6677	033613	336 00 0 00 000000 		SKIPN			;PASS TEST IF C(AC) NON-ZERO
  6678						STOP^
  6679	033614	254 04 0 00 033615 		HALT	.+1		;TEST FAILED IF PROGRAM HALTS HERE
  6680	033615	324 00 0 00 033616 		JUMPA	.+1		;IF TEST FAILS, CHANGE THIS INSTRUCTION (JUMPA .+1) TO
  6681									;JUMPA X (X IS THE ADDRESS OF THE FIRST INSTRUCTION
  6682									;IN THE SUBTEST) TO LOOP ON ERROR^
  6683
  6684					;AD FM- EN [ADFM], AD FM- F/F'S[ADFM],F CYC ACT EN D[R1],
  6685					;IR BOOLE AD FM- F [IR2],IR BOOLE[IR1],IR XX (2,6,7,10,12,15)[IR2],
  6686					;AD EQV[ADCR],AD EQV F/F[ADC2],FCYC ACT EN A[F1],
  6687					;IR BOOLE (6,11)[IR2],IR BOOLE[IR1],IRXX(6,11)[IR2]
  6688
  6689					;**********
  6690
  6691					;THIS TEST VERIFIES THAT THE RESULT OF THE XOR INSTRUCTION WHERE
  6692					;C(E)=0 AND C(AC) IS NON-ZERO IS AN AC WHOSE CONTENTS IS NON-ZERO.  THIS
  6693					;TEST IS REPEATED 36 TIMES. EACH TIME THE AC IS INITIALIZED SO THAT ONE
  6694					;AND ONLY ONE FLOATING BIT IS SET TO ONE AND XOR IS EXECUTED WITH E
  6695					;CONTAINING ALL ZEROS.  THE AC IS THEN CHECKED FOR A NON-ZERO RESULT.
  6696			007435		SN=SN+1
  6697		002000	000000			ZZ=ZZ+ZZ
  6698						IFE	ZZ,<ZZ=1>
  6699	033616	200 00 0 00 070320 		MOVE	[ZZ]		;PRELOAD AC WITH ONE FLOATING BIT SET
  6700	033617	430 00 0 00 070253 		XOR	[0]		;*XOR WITH C(E)=0 AND ONE BIT OF C(AC) SET SHOULD
  6701									;RESULT IN C(AC) NON-ZERO
  6702	033620	336 00 0 00 000000 		SKIPN			;PASS TEST IF C(AC) NON-ZERO
  6703						STOP^
  6704	033621	254 04 0 00 033622 		HALT	.+1		;TEST FAILED IF PROGRAM HALTS HERE
  6705	033622	324 00 0 00 033623 		JUMPA	.+1		;IF TEST FAILS, CHANGE THIS INSTRUCTION (JUMPA .+1) TO
  6706									;JUMPA X (X IS THE ADDRESS OF THE FIRST INSTRUCTION
  6707									;IN THE SUBTEST) TO LOOP ON ERROR^
  6708
  6709					;AD FM- EN [ADFM], AD FM- F/F'S[ADFM],F CYC ACT EN D[R1],
  6710					;IR BOOLE AD FM- F [IR2],IR BOOLE[IR1],IR XX (2,6,7,10,12,15)[IR2],
DFKAA PDP-10 KL10 BASIC INSTRUCTION DIAGNOSTIC (1) VER 0,2	MACRO %53B(1254)-4 11:50 11-Nov-24 Page 27-27
DFKAA1	MAC	13-Jan-89 10:22		TEST OF BOOLEAN INSTRUCTIONS (SETM, SETZ, AND, XOR, EQV)

  6711					;AD EQV[ADCR],AD EQV F/F[ADC2],FCYC ACT EN A[F1],
  6712					;IR BOOLE (6,11)[IR2],IR BOOLE[IR1],IRXX(6,11)[IR2]
  6713
  6714					;**********
  6715
  6716					;THIS TEST VERIFIES THAT THE RESULT OF THE XOR INSTRUCTION WHERE
  6717					;C(E)=0 AND C(AC) IS NON-ZERO IS AN AC WHOSE CONTENTS IS NON-ZERO.  THIS
  6718					;TEST IS REPEATED 36 TIMES. EACH TIME THE AC IS INITIALIZED SO THAT ONE
  6719					;AND ONLY ONE FLOATING BIT IS SET TO ONE AND XOR IS EXECUTED WITH E
  6720					;CONTAINING ALL ZEROS.  THE AC IS THEN CHECKED FOR A NON-ZERO RESULT.
  6721			007436		SN=SN+1
  6722		004000	000000			ZZ=ZZ+ZZ
  6723						IFE	ZZ,<ZZ=1>
  6724	033623	200 00 0 00 070321 		MOVE	[ZZ]		;PRELOAD AC WITH ONE FLOATING BIT SET
  6725	033624	430 00 0 00 070253 		XOR	[0]		;*XOR WITH C(E)=0 AND ONE BIT OF C(AC) SET SHOULD
  6726									;RESULT IN C(AC) NON-ZERO
  6727	033625	336 00 0 00 000000 		SKIPN			;PASS TEST IF C(AC) NON-ZERO
  6728						STOP^
  6729	033626	254 04 0 00 033627 		HALT	.+1		;TEST FAILED IF PROGRAM HALTS HERE
  6730	033627	324 00 0 00 033630 		JUMPA	.+1		;IF TEST FAILS, CHANGE THIS INSTRUCTION (JUMPA .+1) TO
  6731									;JUMPA X (X IS THE ADDRESS OF THE FIRST INSTRUCTION
  6732									;IN THE SUBTEST) TO LOOP ON ERROR^
  6733
  6734					;AD FM- EN [ADFM], AD FM- F/F'S[ADFM],F CYC ACT EN D[R1],
  6735					;IR BOOLE AD FM- F [IR2],IR BOOLE[IR1],IR XX (2,6,7,10,12,15)[IR2],
  6736					;AD EQV[ADCR],AD EQV F/F[ADC2],FCYC ACT EN A[F1],
  6737					;IR BOOLE (6,11)[IR2],IR BOOLE[IR1],IRXX(6,11)[IR2]
  6738
  6739					;**********
  6740
  6741					;THIS TEST VERIFIES THAT THE RESULT OF THE XOR INSTRUCTION WHERE
  6742					;C(E)=0 AND C(AC) IS NON-ZERO IS AN AC WHOSE CONTENTS IS NON-ZERO.  THIS
  6743					;TEST IS REPEATED 36 TIMES. EACH TIME THE AC IS INITIALIZED SO THAT ONE
  6744					;AND ONLY ONE FLOATING BIT IS SET TO ONE AND XOR IS EXECUTED WITH E
  6745					;CONTAINING ALL ZEROS.  THE AC IS THEN CHECKED FOR A NON-ZERO RESULT.
  6746			007437		SN=SN+1
  6747		010000	000000			ZZ=ZZ+ZZ
  6748						IFE	ZZ,<ZZ=1>
  6749	033630	200 00 0 00 070322 		MOVE	[ZZ]		;PRELOAD AC WITH ONE FLOATING BIT SET
  6750	033631	430 00 0 00 070253 		XOR	[0]		;*XOR WITH C(E)=0 AND ONE BIT OF C(AC) SET SHOULD
  6751									;RESULT IN C(AC) NON-ZERO
  6752	033632	336 00 0 00 000000 		SKIPN			;PASS TEST IF C(AC) NON-ZERO
  6753						STOP^
  6754	033633	254 04 0 00 033634 		HALT	.+1		;TEST FAILED IF PROGRAM HALTS HERE
  6755	033634	324 00 0 00 033635 		JUMPA	.+1		;IF TEST FAILS, CHANGE THIS INSTRUCTION (JUMPA .+1) TO
  6756									;JUMPA X (X IS THE ADDRESS OF THE FIRST INSTRUCTION
  6757									;IN THE SUBTEST) TO LOOP ON ERROR^
  6758
  6759					;AD FM- EN [ADFM], AD FM- F/F'S[ADFM],F CYC ACT EN D[R1],
  6760					;IR BOOLE AD FM- F [IR2],IR BOOLE[IR1],IR XX (2,6,7,10,12,15)[IR2],
  6761					;AD EQV[ADCR],AD EQV F/F[ADC2],FCYC ACT EN A[F1],
  6762					;IR BOOLE (6,11)[IR2],IR BOOLE[IR1],IRXX(6,11)[IR2]
  6763
  6764					;**********
  6765
DFKAA PDP-10 KL10 BASIC INSTRUCTION DIAGNOSTIC (1) VER 0,2	MACRO %53B(1254)-4 11:50 11-Nov-24 Page 27-28
DFKAA1	MAC	13-Jan-89 10:22		TEST OF BOOLEAN INSTRUCTIONS (SETM, SETZ, AND, XOR, EQV)

  6766					;THIS TEST VERIFIES THAT THE RESULT OF THE XOR INSTRUCTION WHERE
  6767					;C(E)=0 AND C(AC) IS NON-ZERO IS AN AC WHOSE CONTENTS IS NON-ZERO.  THIS
  6768					;TEST IS REPEATED 36 TIMES. EACH TIME THE AC IS INITIALIZED SO THAT ONE
  6769					;AND ONLY ONE FLOATING BIT IS SET TO ONE AND XOR IS EXECUTED WITH E
  6770					;CONTAINING ALL ZEROS.  THE AC IS THEN CHECKED FOR A NON-ZERO RESULT.
  6771			007440		SN=SN+1
  6772		020000	000000			ZZ=ZZ+ZZ
  6773						IFE	ZZ,<ZZ=1>
  6774	033635	200 00 0 00 070323 		MOVE	[ZZ]		;PRELOAD AC WITH ONE FLOATING BIT SET
  6775	033636	430 00 0 00 070253 		XOR	[0]		;*XOR WITH C(E)=0 AND ONE BIT OF C(AC) SET SHOULD
  6776									;RESULT IN C(AC) NON-ZERO
  6777	033637	336 00 0 00 000000 		SKIPN			;PASS TEST IF C(AC) NON-ZERO
  6778						STOP^
  6779	033640	254 04 0 00 033641 		HALT	.+1		;TEST FAILED IF PROGRAM HALTS HERE
  6780	033641	324 00 0 00 033642 		JUMPA	.+1		;IF TEST FAILS, CHANGE THIS INSTRUCTION (JUMPA .+1) TO
  6781									;JUMPA X (X IS THE ADDRESS OF THE FIRST INSTRUCTION
  6782									;IN THE SUBTEST) TO LOOP ON ERROR^
  6783
  6784					;AD FM- EN [ADFM], AD FM- F/F'S[ADFM],F CYC ACT EN D[R1],
  6785					;IR BOOLE AD FM- F [IR2],IR BOOLE[IR1],IR XX (2,6,7,10,12,15)[IR2],
  6786					;AD EQV[ADCR],AD EQV F/F[ADC2],FCYC ACT EN A[F1],
  6787					;IR BOOLE (6,11)[IR2],IR BOOLE[IR1],IRXX(6,11)[IR2]
  6788
  6789					;**********
  6790
  6791					;THIS TEST VERIFIES THAT THE RESULT OF THE XOR INSTRUCTION WHERE
  6792					;C(E)=0 AND C(AC) IS NON-ZERO IS AN AC WHOSE CONTENTS IS NON-ZERO.  THIS
  6793					;TEST IS REPEATED 36 TIMES. EACH TIME THE AC IS INITIALIZED SO THAT ONE
  6794					;AND ONLY ONE FLOATING BIT IS SET TO ONE AND XOR IS EXECUTED WITH E
  6795					;CONTAINING ALL ZEROS.  THE AC IS THEN CHECKED FOR A NON-ZERO RESULT.
  6796			007441		SN=SN+1
  6797		040000	000000			ZZ=ZZ+ZZ
  6798						IFE	ZZ,<ZZ=1>
  6799	033642	200 00 0 00 070324 		MOVE	[ZZ]		;PRELOAD AC WITH ONE FLOATING BIT SET
  6800	033643	430 00 0 00 070253 		XOR	[0]		;*XOR WITH C(E)=0 AND ONE BIT OF C(AC) SET SHOULD
  6801									;RESULT IN C(AC) NON-ZERO
  6802	033644	336 00 0 00 000000 		SKIPN			;PASS TEST IF C(AC) NON-ZERO
  6803						STOP^
  6804	033645	254 04 0 00 033646 		HALT	.+1		;TEST FAILED IF PROGRAM HALTS HERE
  6805	033646	324 00 0 00 033647 		JUMPA	.+1		;IF TEST FAILS, CHANGE THIS INSTRUCTION (JUMPA .+1) TO
  6806									;JUMPA X (X IS THE ADDRESS OF THE FIRST INSTRUCTION
  6807									;IN THE SUBTEST) TO LOOP ON ERROR^
  6808
  6809					;AD FM- EN [ADFM], AD FM- F/F'S[ADFM],F CYC ACT EN D[R1],
  6810					;IR BOOLE AD FM- F [IR2],IR BOOLE[IR1],IR XX (2,6,7,10,12,15)[IR2],
  6811					;AD EQV[ADCR],AD EQV F/F[ADC2],FCYC ACT EN A[F1],
  6812					;IR BOOLE (6,11)[IR2],IR BOOLE[IR1],IRXX(6,11)[IR2]
  6813
  6814					;**********
  6815
  6816					;THIS TEST VERIFIES THAT THE RESULT OF THE XOR INSTRUCTION WHERE
  6817					;C(E)=0 AND C(AC) IS NON-ZERO IS AN AC WHOSE CONTENTS IS NON-ZERO.  THIS
  6818					;TEST IS REPEATED 36 TIMES. EACH TIME THE AC IS INITIALIZED SO THAT ONE
  6819					;AND ONLY ONE FLOATING BIT IS SET TO ONE AND XOR IS EXECUTED WITH E
  6820					;CONTAINING ALL ZEROS.  THE AC IS THEN CHECKED FOR A NON-ZERO RESULT.
DFKAA PDP-10 KL10 BASIC INSTRUCTION DIAGNOSTIC (1) VER 0,2	MACRO %53B(1254)-4 11:50 11-Nov-24 Page 27-29
DFKAA1	MAC	13-Jan-89 10:22		TEST OF BOOLEAN INSTRUCTIONS (SETM, SETZ, AND, XOR, EQV)

  6821			007442		SN=SN+1
  6822		100000	000000			ZZ=ZZ+ZZ
  6823						IFE	ZZ,<ZZ=1>
  6824	033647	200 00 0 00 070325 		MOVE	[ZZ]		;PRELOAD AC WITH ONE FLOATING BIT SET
  6825	033650	430 00 0 00 070253 		XOR	[0]		;*XOR WITH C(E)=0 AND ONE BIT OF C(AC) SET SHOULD
  6826									;RESULT IN C(AC) NON-ZERO
  6827	033651	336 00 0 00 000000 		SKIPN			;PASS TEST IF C(AC) NON-ZERO
  6828						STOP^
  6829	033652	254 04 0 00 033653 		HALT	.+1		;TEST FAILED IF PROGRAM HALTS HERE
  6830	033653	324 00 0 00 033654 		JUMPA	.+1		;IF TEST FAILS, CHANGE THIS INSTRUCTION (JUMPA .+1) TO
  6831									;JUMPA X (X IS THE ADDRESS OF THE FIRST INSTRUCTION
  6832									;IN THE SUBTEST) TO LOOP ON ERROR^
  6833
  6834					;AD FM- EN [ADFM], AD FM- F/F'S[ADFM],F CYC ACT EN D[R1],
  6835					;IR BOOLE AD FM- F [IR2],IR BOOLE[IR1],IR XX (2,6,7,10,12,15)[IR2],
  6836					;AD EQV[ADCR],AD EQV F/F[ADC2],FCYC ACT EN A[F1],
  6837					;IR BOOLE (6,11)[IR2],IR BOOLE[IR1],IRXX(6,11)[IR2]
  6838
  6839					;**********
  6840
  6841					;THIS TEST VERIFIES THAT THE RESULT OF THE XOR INSTRUCTION WHERE
  6842					;C(E)=0 AND C(AC) IS NON-ZERO IS AN AC WHOSE CONTENTS IS NON-ZERO.  THIS
  6843					;TEST IS REPEATED 36 TIMES. EACH TIME THE AC IS INITIALIZED SO THAT ONE
  6844					;AND ONLY ONE FLOATING BIT IS SET TO ONE AND XOR IS EXECUTED WITH E
  6845					;CONTAINING ALL ZEROS.  THE AC IS THEN CHECKED FOR A NON-ZERO RESULT.
  6846			007443		SN=SN+1
  6847		200000	000000			ZZ=ZZ+ZZ
  6848						IFE	ZZ,<ZZ=1>
  6849	033654	200 00 0 00 070326 		MOVE	[ZZ]		;PRELOAD AC WITH ONE FLOATING BIT SET
  6850	033655	430 00 0 00 070253 		XOR	[0]		;*XOR WITH C(E)=0 AND ONE BIT OF C(AC) SET SHOULD
  6851									;RESULT IN C(AC) NON-ZERO
  6852	033656	336 00 0 00 000000 		SKIPN			;PASS TEST IF C(AC) NON-ZERO
  6853						STOP^
  6854	033657	254 04 0 00 033660 		HALT	.+1		;TEST FAILED IF PROGRAM HALTS HERE
  6855	033660	324 00 0 00 033661 		JUMPA	.+1		;IF TEST FAILS, CHANGE THIS INSTRUCTION (JUMPA .+1) TO
  6856									;JUMPA X (X IS THE ADDRESS OF THE FIRST INSTRUCTION
  6857									;IN THE SUBTEST) TO LOOP ON ERROR^
  6858
  6859					;AD FM- EN [ADFM], AD FM- F/F'S[ADFM],F CYC ACT EN D[R1],
  6860					;IR BOOLE AD FM- F [IR2],IR BOOLE[IR1],IR XX (2,6,7,10,12,15)[IR2],
  6861					;AD EQV[ADCR],AD EQV F/F[ADC2],FCYC ACT EN A[F1],
  6862					;IR BOOLE (6,11)[IR2],IR BOOLE[IR1],IRXX(6,11)[IR2]
  6863
  6864					;**********
  6865
  6866					;THIS TEST VERIFIES THAT THE RESULT OF THE XOR INSTRUCTION WHERE
  6867					;C(E)=0 AND C(AC) IS NON-ZERO IS AN AC WHOSE CONTENTS IS NON-ZERO.  THIS
  6868					;TEST IS REPEATED 36 TIMES. EACH TIME THE AC IS INITIALIZED SO THAT ONE
  6869					;AND ONLY ONE FLOATING BIT IS SET TO ONE AND XOR IS EXECUTED WITH E
  6870					;CONTAINING ALL ZEROS.  THE AC IS THEN CHECKED FOR A NON-ZERO RESULT.
  6871			007444		SN=SN+1
  6872		400000	000000			ZZ=ZZ+ZZ
  6873						IFE	ZZ,<ZZ=1>
  6874	033661	200 00 0 00 070256 		MOVE	[ZZ]		;PRELOAD AC WITH ONE FLOATING BIT SET
  6875	033662	430 00 0 00 070253 		XOR	[0]		;*XOR WITH C(E)=0 AND ONE BIT OF C(AC) SET SHOULD
DFKAA PDP-10 KL10 BASIC INSTRUCTION DIAGNOSTIC (1) VER 0,2	MACRO %53B(1254)-4 11:50 11-Nov-24 Page 27-30
DFKAA1	MAC	13-Jan-89 10:22		TEST OF BOOLEAN INSTRUCTIONS (SETM, SETZ, AND, XOR, EQV)

  6876									;RESULT IN C(AC) NON-ZERO
  6877	033663	336 00 0 00 000000 		SKIPN			;PASS TEST IF C(AC) NON-ZERO
  6878						STOP^
  6879	033664	254 04 0 00 033665 		HALT	.+1		;TEST FAILED IF PROGRAM HALTS HERE
  6880	033665	324 00 0 00 033666 		JUMPA	.+1		;IF TEST FAILS, CHANGE THIS INSTRUCTION (JUMPA .+1) TO
  6881									;JUMPA X (X IS THE ADDRESS OF THE FIRST INSTRUCTION
  6882									;IN THE SUBTEST) TO LOOP ON ERROR^
  6883
  6884					;AD FM- EN [ADFM], AD FM- F/F'S[ADFM],F CYC ACT EN D[R1],
  6885					;IR BOOLE AD FM- F [IR2],IR BOOLE[IR1],IR XX (2,6,7,10,12,15)[IR2],
  6886					;AD EQV[ADCR],AD EQV F/F[ADC2],FCYC ACT EN A[F1],
  6887					;IR BOOLE (6,11)[IR2],IR BOOLE[IR1],IRXX(6,11)[IR2]
  6888
  6889					;**********
  6890
DFKAA PDP-10 KL10 BASIC INSTRUCTION DIAGNOSTIC (1) VER 0,2	MACRO %53B(1254)-4 11:50 11-Nov-24 Page 28
DFKAA1	MAC	13-Jan-89 10:22		TEST OF BOOLEAN INSTRUCTIONS (SETM, SETZ, AND, XOR, EQV)

  6891			007500		SN=7500
  6892			000000			ZZ=0
  6893
  6894					A7500:	REPEAT ^D36,
  6895					<;THIS TEST VERIFIES THAT THE RESULT OF AN XOR INSTRUCTION
  6896					;WHERE C(AC) = C(E) IS AN AC CONTAINING ALL ZEROS.  FIRST,
  6897					;THE AC IS INITIALIZED WITH A WORD CONTAINING ALL ZEROS EXCEPT
  6898					;FOR ONE FLOATING ONE; THEN, XOR IS EXECUTED WITH E CONTAINING THE SAME
  6899					;NUMBER.  THE RESULT SHOULD BE AN AC CONTAINING ALL ZEROS.  THIS TEST
  6900					;IS REPEATED 36 TIMES.  IF ANY BIT IN THE RESULT IS NON-ZERO, IT MAY
  6901					;INDICATE AN ILLEGAL CARRY GENERATION.
  6902					SN=SN+1
  6903						ZZ=ZZ+ZZ
  6904						IFE	ZZ,<ZZ=1>
  6905						MOVE	[ZZ]		;INITIALIZE AC WITH ONE FLOATING BIT SET
  6906						XOR	[ZZ]		;*XOR WITH C(AC)=C(E) SHOULD RESULT IN C(AC)=0
  6907						SKIPE			;PASS TEST IF C(AC)=0
  6908						STOP
  6909
  6910					;**********
  6911					>
  6912					;THIS TEST VERIFIES THAT THE RESULT OF AN XOR INSTRUCTION
  6913					;WHERE C(AC) = C(E) IS AN AC CONTAINING ALL ZEROS.  FIRST,
  6914					;THE AC IS INITIALIZED WITH A WORD CONTAINING ALL ZEROS EXCEPT
  6915					;FOR ONE FLOATING ONE; THEN, XOR IS EXECUTED WITH E CONTAINING THE SAME
  6916					;NUMBER.  THE RESULT SHOULD BE AN AC CONTAINING ALL ZEROS.  THIS TEST
  6917					;IS REPEATED 36 TIMES.  IF ANY BIT IN THE RESULT IS NON-ZERO, IT MAY
  6918					;INDICATE AN ILLEGAL CARRY GENERATION.
  6919			007501		SN=SN+1
  6920			000000			ZZ=ZZ+ZZ
  6921			000001			IFE	ZZ,<ZZ=1>
  6922	033666	200 00 0 00 070265 		MOVE	[ZZ]		;INITIALIZE AC WITH ONE FLOATING BIT SET
  6923	033667	430 00 0 00 070265 		XOR	[ZZ]		;*XOR WITH C(AC)=C(E) SHOULD RESULT IN C(AC)=0
  6924	033670	332 00 0 00 000000 		SKIPE			;PASS TEST IF C(AC)=0
  6925						STOP^
  6926	033671	254 04 0 00 033672 		HALT	.+1		;TEST FAILED IF PROGRAM HALTS HERE
  6927	033672	324 00 0 00 033673 		JUMPA	.+1		;IF TEST FAILS, CHANGE THIS INSTRUCTION (JUMPA .+1) TO
  6928									;JUMPA X (X IS THE ADDRESS OF THE FIRST INSTRUCTION
  6929									;IN THE SUBTEST) TO LOOP ON ERROR^
  6930
  6931					;**********
  6932
  6933					;THIS TEST VERIFIES THAT THE RESULT OF AN XOR INSTRUCTION
  6934					;WHERE C(AC) = C(E) IS AN AC CONTAINING ALL ZEROS.  FIRST,
  6935					;THE AC IS INITIALIZED WITH A WORD CONTAINING ALL ZEROS EXCEPT
  6936					;FOR ONE FLOATING ONE; THEN, XOR IS EXECUTED WITH E CONTAINING THE SAME
  6937					;NUMBER.  THE RESULT SHOULD BE AN AC CONTAINING ALL ZEROS.  THIS TEST
  6938					;IS REPEATED 36 TIMES.  IF ANY BIT IN THE RESULT IS NON-ZERO, IT MAY
  6939					;INDICATE AN ILLEGAL CARRY GENERATION.
  6940			007502		SN=SN+1
  6941			000002			ZZ=ZZ+ZZ
  6942						IFE	ZZ,<ZZ=1>
  6943	033673	200 00 0 00 070266 		MOVE	[ZZ]		;INITIALIZE AC WITH ONE FLOATING BIT SET
  6944	033674	430 00 0 00 070266 		XOR	[ZZ]		;*XOR WITH C(AC)=C(E) SHOULD RESULT IN C(AC)=0
  6945	033675	332 00 0 00 000000 		SKIPE			;PASS TEST IF C(AC)=0
DFKAA PDP-10 KL10 BASIC INSTRUCTION DIAGNOSTIC (1) VER 0,2	MACRO %53B(1254)-4 11:50 11-Nov-24 Page 28-1
DFKAA1	MAC	13-Jan-89 10:22		TEST OF BOOLEAN INSTRUCTIONS (SETM, SETZ, AND, XOR, EQV)

  6946						STOP^
  6947	033676	254 04 0 00 033677 		HALT	.+1		;TEST FAILED IF PROGRAM HALTS HERE
  6948	033677	324 00 0 00 033700 		JUMPA	.+1		;IF TEST FAILS, CHANGE THIS INSTRUCTION (JUMPA .+1) TO
  6949									;JUMPA X (X IS THE ADDRESS OF THE FIRST INSTRUCTION
  6950									;IN THE SUBTEST) TO LOOP ON ERROR^
  6951
  6952					;**********
  6953
  6954					;THIS TEST VERIFIES THAT THE RESULT OF AN XOR INSTRUCTION
  6955					;WHERE C(AC) = C(E) IS AN AC CONTAINING ALL ZEROS.  FIRST,
  6956					;THE AC IS INITIALIZED WITH A WORD CONTAINING ALL ZEROS EXCEPT
  6957					;FOR ONE FLOATING ONE; THEN, XOR IS EXECUTED WITH E CONTAINING THE SAME
  6958					;NUMBER.  THE RESULT SHOULD BE AN AC CONTAINING ALL ZEROS.  THIS TEST
  6959					;IS REPEATED 36 TIMES.  IF ANY BIT IN THE RESULT IS NON-ZERO, IT MAY
  6960					;INDICATE AN ILLEGAL CARRY GENERATION.
  6961			007503		SN=SN+1
  6962			000004			ZZ=ZZ+ZZ
  6963						IFE	ZZ,<ZZ=1>
  6964	033700	200 00 0 00 070267 		MOVE	[ZZ]		;INITIALIZE AC WITH ONE FLOATING BIT SET
  6965	033701	430 00 0 00 070267 		XOR	[ZZ]		;*XOR WITH C(AC)=C(E) SHOULD RESULT IN C(AC)=0
  6966	033702	332 00 0 00 000000 		SKIPE			;PASS TEST IF C(AC)=0
  6967						STOP^
  6968	033703	254 04 0 00 033704 		HALT	.+1		;TEST FAILED IF PROGRAM HALTS HERE
  6969	033704	324 00 0 00 033705 		JUMPA	.+1		;IF TEST FAILS, CHANGE THIS INSTRUCTION (JUMPA .+1) TO
  6970									;JUMPA X (X IS THE ADDRESS OF THE FIRST INSTRUCTION
  6971									;IN THE SUBTEST) TO LOOP ON ERROR^
  6972
  6973					;**********
  6974
  6975					;THIS TEST VERIFIES THAT THE RESULT OF AN XOR INSTRUCTION
  6976					;WHERE C(AC) = C(E) IS AN AC CONTAINING ALL ZEROS.  FIRST,
  6977					;THE AC IS INITIALIZED WITH A WORD CONTAINING ALL ZEROS EXCEPT
  6978					;FOR ONE FLOATING ONE; THEN, XOR IS EXECUTED WITH E CONTAINING THE SAME
  6979					;NUMBER.  THE RESULT SHOULD BE AN AC CONTAINING ALL ZEROS.  THIS TEST
  6980					;IS REPEATED 36 TIMES.  IF ANY BIT IN THE RESULT IS NON-ZERO, IT MAY
  6981					;INDICATE AN ILLEGAL CARRY GENERATION.
  6982			007504		SN=SN+1
  6983			000010			ZZ=ZZ+ZZ
  6984						IFE	ZZ,<ZZ=1>
  6985	033705	200 00 0 00 070270 		MOVE	[ZZ]		;INITIALIZE AC WITH ONE FLOATING BIT SET
  6986	033706	430 00 0 00 070270 		XOR	[ZZ]		;*XOR WITH C(AC)=C(E) SHOULD RESULT IN C(AC)=0
  6987	033707	332 00 0 00 000000 		SKIPE			;PASS TEST IF C(AC)=0
  6988						STOP^
  6989	033710	254 04 0 00 033711 		HALT	.+1		;TEST FAILED IF PROGRAM HALTS HERE
  6990	033711	324 00 0 00 033712 		JUMPA	.+1		;IF TEST FAILS, CHANGE THIS INSTRUCTION (JUMPA .+1) TO
  6991									;JUMPA X (X IS THE ADDRESS OF THE FIRST INSTRUCTION
  6992									;IN THE SUBTEST) TO LOOP ON ERROR^
  6993
  6994					;**********
  6995
  6996					;THIS TEST VERIFIES THAT THE RESULT OF AN XOR INSTRUCTION
  6997					;WHERE C(AC) = C(E) IS AN AC CONTAINING ALL ZEROS.  FIRST,
  6998					;THE AC IS INITIALIZED WITH A WORD CONTAINING ALL ZEROS EXCEPT
  6999					;FOR ONE FLOATING ONE; THEN, XOR IS EXECUTED WITH E CONTAINING THE SAME
  7000					;NUMBER.  THE RESULT SHOULD BE AN AC CONTAINING ALL ZEROS.  THIS TEST
DFKAA PDP-10 KL10 BASIC INSTRUCTION DIAGNOSTIC (1) VER 0,2	MACRO %53B(1254)-4 11:50 11-Nov-24 Page 28-2
DFKAA1	MAC	13-Jan-89 10:22		TEST OF BOOLEAN INSTRUCTIONS (SETM, SETZ, AND, XOR, EQV)

  7001					;IS REPEATED 36 TIMES.  IF ANY BIT IN THE RESULT IS NON-ZERO, IT MAY
  7002					;INDICATE AN ILLEGAL CARRY GENERATION.
  7003			007505		SN=SN+1
  7004			000020			ZZ=ZZ+ZZ
  7005						IFE	ZZ,<ZZ=1>
  7006	033712	200 00 0 00 070271 		MOVE	[ZZ]		;INITIALIZE AC WITH ONE FLOATING BIT SET
  7007	033713	430 00 0 00 070271 		XOR	[ZZ]		;*XOR WITH C(AC)=C(E) SHOULD RESULT IN C(AC)=0
  7008	033714	332 00 0 00 000000 		SKIPE			;PASS TEST IF C(AC)=0
  7009						STOP^
  7010	033715	254 04 0 00 033716 		HALT	.+1		;TEST FAILED IF PROGRAM HALTS HERE
  7011	033716	324 00 0 00 033717 		JUMPA	.+1		;IF TEST FAILS, CHANGE THIS INSTRUCTION (JUMPA .+1) TO
  7012									;JUMPA X (X IS THE ADDRESS OF THE FIRST INSTRUCTION
  7013									;IN THE SUBTEST) TO LOOP ON ERROR^
  7014
  7015					;**********
  7016
  7017					;THIS TEST VERIFIES THAT THE RESULT OF AN XOR INSTRUCTION
  7018					;WHERE C(AC) = C(E) IS AN AC CONTAINING ALL ZEROS.  FIRST,
  7019					;THE AC IS INITIALIZED WITH A WORD CONTAINING ALL ZEROS EXCEPT
  7020					;FOR ONE FLOATING ONE; THEN, XOR IS EXECUTED WITH E CONTAINING THE SAME
  7021					;NUMBER.  THE RESULT SHOULD BE AN AC CONTAINING ALL ZEROS.  THIS TEST
  7022					;IS REPEATED 36 TIMES.  IF ANY BIT IN THE RESULT IS NON-ZERO, IT MAY
  7023					;INDICATE AN ILLEGAL CARRY GENERATION.
  7024			007506		SN=SN+1
  7025			000040			ZZ=ZZ+ZZ
  7026						IFE	ZZ,<ZZ=1>
  7027	033717	200 00 0 00 070272 		MOVE	[ZZ]		;INITIALIZE AC WITH ONE FLOATING BIT SET
  7028	033720	430 00 0 00 070272 		XOR	[ZZ]		;*XOR WITH C(AC)=C(E) SHOULD RESULT IN C(AC)=0
  7029	033721	332 00 0 00 000000 		SKIPE			;PASS TEST IF C(AC)=0
  7030						STOP^
  7031	033722	254 04 0 00 033723 		HALT	.+1		;TEST FAILED IF PROGRAM HALTS HERE
  7032	033723	324 00 0 00 033724 		JUMPA	.+1		;IF TEST FAILS, CHANGE THIS INSTRUCTION (JUMPA .+1) TO
  7033									;JUMPA X (X IS THE ADDRESS OF THE FIRST INSTRUCTION
  7034									;IN THE SUBTEST) TO LOOP ON ERROR^
  7035
  7036					;**********
  7037
  7038					;THIS TEST VERIFIES THAT THE RESULT OF AN XOR INSTRUCTION
  7039					;WHERE C(AC) = C(E) IS AN AC CONTAINING ALL ZEROS.  FIRST,
  7040					;THE AC IS INITIALIZED WITH A WORD CONTAINING ALL ZEROS EXCEPT
  7041					;FOR ONE FLOATING ONE; THEN, XOR IS EXECUTED WITH E CONTAINING THE SAME
  7042					;NUMBER.  THE RESULT SHOULD BE AN AC CONTAINING ALL ZEROS.  THIS TEST
  7043					;IS REPEATED 36 TIMES.  IF ANY BIT IN THE RESULT IS NON-ZERO, IT MAY
  7044					;INDICATE AN ILLEGAL CARRY GENERATION.
  7045			007507		SN=SN+1
  7046			000100			ZZ=ZZ+ZZ
  7047						IFE	ZZ,<ZZ=1>
  7048	033724	200 00 0 00 070273 		MOVE	[ZZ]		;INITIALIZE AC WITH ONE FLOATING BIT SET
  7049	033725	430 00 0 00 070273 		XOR	[ZZ]		;*XOR WITH C(AC)=C(E) SHOULD RESULT IN C(AC)=0
  7050	033726	332 00 0 00 000000 		SKIPE			;PASS TEST IF C(AC)=0
  7051						STOP^
  7052	033727	254 04 0 00 033730 		HALT	.+1		;TEST FAILED IF PROGRAM HALTS HERE
  7053	033730	324 00 0 00 033731 		JUMPA	.+1		;IF TEST FAILS, CHANGE THIS INSTRUCTION (JUMPA .+1) TO
  7054									;JUMPA X (X IS THE ADDRESS OF THE FIRST INSTRUCTION
  7055									;IN THE SUBTEST) TO LOOP ON ERROR^
DFKAA PDP-10 KL10 BASIC INSTRUCTION DIAGNOSTIC (1) VER 0,2	MACRO %53B(1254)-4 11:50 11-Nov-24 Page 28-3
DFKAA1	MAC	13-Jan-89 10:22		TEST OF BOOLEAN INSTRUCTIONS (SETM, SETZ, AND, XOR, EQV)

  7056
  7057					;**********
  7058
  7059					;THIS TEST VERIFIES THAT THE RESULT OF AN XOR INSTRUCTION
  7060					;WHERE C(AC) = C(E) IS AN AC CONTAINING ALL ZEROS.  FIRST,
  7061					;THE AC IS INITIALIZED WITH A WORD CONTAINING ALL ZEROS EXCEPT
  7062					;FOR ONE FLOATING ONE; THEN, XOR IS EXECUTED WITH E CONTAINING THE SAME
  7063					;NUMBER.  THE RESULT SHOULD BE AN AC CONTAINING ALL ZEROS.  THIS TEST
  7064					;IS REPEATED 36 TIMES.  IF ANY BIT IN THE RESULT IS NON-ZERO, IT MAY
  7065					;INDICATE AN ILLEGAL CARRY GENERATION.
  7066			007510		SN=SN+1
  7067			000200			ZZ=ZZ+ZZ
  7068						IFE	ZZ,<ZZ=1>
  7069	033731	200 00 0 00 070274 		MOVE	[ZZ]		;INITIALIZE AC WITH ONE FLOATING BIT SET
  7070	033732	430 00 0 00 070274 		XOR	[ZZ]		;*XOR WITH C(AC)=C(E) SHOULD RESULT IN C(AC)=0
  7071	033733	332 00 0 00 000000 		SKIPE			;PASS TEST IF C(AC)=0
  7072						STOP^
  7073	033734	254 04 0 00 033735 		HALT	.+1		;TEST FAILED IF PROGRAM HALTS HERE
  7074	033735	324 00 0 00 033736 		JUMPA	.+1		;IF TEST FAILS, CHANGE THIS INSTRUCTION (JUMPA .+1) TO
  7075									;JUMPA X (X IS THE ADDRESS OF THE FIRST INSTRUCTION
  7076									;IN THE SUBTEST) TO LOOP ON ERROR^
  7077
  7078					;**********
  7079
  7080					;THIS TEST VERIFIES THAT THE RESULT OF AN XOR INSTRUCTION
  7081					;WHERE C(AC) = C(E) IS AN AC CONTAINING ALL ZEROS.  FIRST,
  7082					;THE AC IS INITIALIZED WITH A WORD CONTAINING ALL ZEROS EXCEPT
  7083					;FOR ONE FLOATING ONE; THEN, XOR IS EXECUTED WITH E CONTAINING THE SAME
  7084					;NUMBER.  THE RESULT SHOULD BE AN AC CONTAINING ALL ZEROS.  THIS TEST
  7085					;IS REPEATED 36 TIMES.  IF ANY BIT IN THE RESULT IS NON-ZERO, IT MAY
  7086					;INDICATE AN ILLEGAL CARRY GENERATION.
  7087			007511		SN=SN+1
  7088			000400			ZZ=ZZ+ZZ
  7089						IFE	ZZ,<ZZ=1>
  7090	033736	200 00 0 00 070275 		MOVE	[ZZ]		;INITIALIZE AC WITH ONE FLOATING BIT SET
  7091	033737	430 00 0 00 070275 		XOR	[ZZ]		;*XOR WITH C(AC)=C(E) SHOULD RESULT IN C(AC)=0
  7092	033740	332 00 0 00 000000 		SKIPE			;PASS TEST IF C(AC)=0
  7093						STOP^
  7094	033741	254 04 0 00 033742 		HALT	.+1		;TEST FAILED IF PROGRAM HALTS HERE
  7095	033742	324 00 0 00 033743 		JUMPA	.+1		;IF TEST FAILS, CHANGE THIS INSTRUCTION (JUMPA .+1) TO
  7096									;JUMPA X (X IS THE ADDRESS OF THE FIRST INSTRUCTION
  7097									;IN THE SUBTEST) TO LOOP ON ERROR^
  7098
  7099					;**********
  7100
  7101					;THIS TEST VERIFIES THAT THE RESULT OF AN XOR INSTRUCTION
  7102					;WHERE C(AC) = C(E) IS AN AC CONTAINING ALL ZEROS.  FIRST,
  7103					;THE AC IS INITIALIZED WITH A WORD CONTAINING ALL ZEROS EXCEPT
  7104					;FOR ONE FLOATING ONE; THEN, XOR IS EXECUTED WITH E CONTAINING THE SAME
  7105					;NUMBER.  THE RESULT SHOULD BE AN AC CONTAINING ALL ZEROS.  THIS TEST
  7106					;IS REPEATED 36 TIMES.  IF ANY BIT IN THE RESULT IS NON-ZERO, IT MAY
  7107					;INDICATE AN ILLEGAL CARRY GENERATION.
  7108			007512		SN=SN+1
  7109			001000			ZZ=ZZ+ZZ
  7110						IFE	ZZ,<ZZ=1>
DFKAA PDP-10 KL10 BASIC INSTRUCTION DIAGNOSTIC (1) VER 0,2	MACRO %53B(1254)-4 11:50 11-Nov-24 Page 28-4
DFKAA1	MAC	13-Jan-89 10:22		TEST OF BOOLEAN INSTRUCTIONS (SETM, SETZ, AND, XOR, EQV)

  7111	033743	200 00 0 00 070276 		MOVE	[ZZ]		;INITIALIZE AC WITH ONE FLOATING BIT SET
  7112	033744	430 00 0 00 070276 		XOR	[ZZ]		;*XOR WITH C(AC)=C(E) SHOULD RESULT IN C(AC)=0
  7113	033745	332 00 0 00 000000 		SKIPE			;PASS TEST IF C(AC)=0
  7114						STOP^
  7115	033746	254 04 0 00 033747 		HALT	.+1		;TEST FAILED IF PROGRAM HALTS HERE
  7116	033747	324 00 0 00 033750 		JUMPA	.+1		;IF TEST FAILS, CHANGE THIS INSTRUCTION (JUMPA .+1) TO
  7117									;JUMPA X (X IS THE ADDRESS OF THE FIRST INSTRUCTION
  7118									;IN THE SUBTEST) TO LOOP ON ERROR^
  7119
  7120					;**********
  7121
  7122					;THIS TEST VERIFIES THAT THE RESULT OF AN XOR INSTRUCTION
  7123					;WHERE C(AC) = C(E) IS AN AC CONTAINING ALL ZEROS.  FIRST,
  7124					;THE AC IS INITIALIZED WITH A WORD CONTAINING ALL ZEROS EXCEPT
  7125					;FOR ONE FLOATING ONE; THEN, XOR IS EXECUTED WITH E CONTAINING THE SAME
  7126					;NUMBER.  THE RESULT SHOULD BE AN AC CONTAINING ALL ZEROS.  THIS TEST
  7127					;IS REPEATED 36 TIMES.  IF ANY BIT IN THE RESULT IS NON-ZERO, IT MAY
  7128					;INDICATE AN ILLEGAL CARRY GENERATION.
  7129			007513		SN=SN+1
  7130			002000			ZZ=ZZ+ZZ
  7131						IFE	ZZ,<ZZ=1>
  7132	033750	200 00 0 00 070277 		MOVE	[ZZ]		;INITIALIZE AC WITH ONE FLOATING BIT SET
  7133	033751	430 00 0 00 070277 		XOR	[ZZ]		;*XOR WITH C(AC)=C(E) SHOULD RESULT IN C(AC)=0
  7134	033752	332 00 0 00 000000 		SKIPE			;PASS TEST IF C(AC)=0
  7135						STOP^
  7136	033753	254 04 0 00 033754 		HALT	.+1		;TEST FAILED IF PROGRAM HALTS HERE
  7137	033754	324 00 0 00 033755 		JUMPA	.+1		;IF TEST FAILS, CHANGE THIS INSTRUCTION (JUMPA .+1) TO
  7138									;JUMPA X (X IS THE ADDRESS OF THE FIRST INSTRUCTION
  7139									;IN THE SUBTEST) TO LOOP ON ERROR^
  7140
  7141					;**********
  7142
  7143					;THIS TEST VERIFIES THAT THE RESULT OF AN XOR INSTRUCTION
  7144					;WHERE C(AC) = C(E) IS AN AC CONTAINING ALL ZEROS.  FIRST,
  7145					;THE AC IS INITIALIZED WITH A WORD CONTAINING ALL ZEROS EXCEPT
  7146					;FOR ONE FLOATING ONE; THEN, XOR IS EXECUTED WITH E CONTAINING THE SAME
  7147					;NUMBER.  THE RESULT SHOULD BE AN AC CONTAINING ALL ZEROS.  THIS TEST
  7148					;IS REPEATED 36 TIMES.  IF ANY BIT IN THE RESULT IS NON-ZERO, IT MAY
  7149					;INDICATE AN ILLEGAL CARRY GENERATION.
  7150			007514		SN=SN+1
  7151			004000			ZZ=ZZ+ZZ
  7152						IFE	ZZ,<ZZ=1>
  7153	033755	200 00 0 00 070300 		MOVE	[ZZ]		;INITIALIZE AC WITH ONE FLOATING BIT SET
  7154	033756	430 00 0 00 070300 		XOR	[ZZ]		;*XOR WITH C(AC)=C(E) SHOULD RESULT IN C(AC)=0
  7155	033757	332 00 0 00 000000 		SKIPE			;PASS TEST IF C(AC)=0
  7156						STOP^
  7157	033760	254 04 0 00 033761 		HALT	.+1		;TEST FAILED IF PROGRAM HALTS HERE
  7158	033761	324 00 0 00 033762 		JUMPA	.+1		;IF TEST FAILS, CHANGE THIS INSTRUCTION (JUMPA .+1) TO
  7159									;JUMPA X (X IS THE ADDRESS OF THE FIRST INSTRUCTION
  7160									;IN THE SUBTEST) TO LOOP ON ERROR^
  7161
  7162					;**********
  7163
  7164					;THIS TEST VERIFIES THAT THE RESULT OF AN XOR INSTRUCTION
  7165					;WHERE C(AC) = C(E) IS AN AC CONTAINING ALL ZEROS.  FIRST,
DFKAA PDP-10 KL10 BASIC INSTRUCTION DIAGNOSTIC (1) VER 0,2	MACRO %53B(1254)-4 11:50 11-Nov-24 Page 28-5
DFKAA1	MAC	13-Jan-89 10:22		TEST OF BOOLEAN INSTRUCTIONS (SETM, SETZ, AND, XOR, EQV)

  7166					;THE AC IS INITIALIZED WITH A WORD CONTAINING ALL ZEROS EXCEPT
  7167					;FOR ONE FLOATING ONE; THEN, XOR IS EXECUTED WITH E CONTAINING THE SAME
  7168					;NUMBER.  THE RESULT SHOULD BE AN AC CONTAINING ALL ZEROS.  THIS TEST
  7169					;IS REPEATED 36 TIMES.  IF ANY BIT IN THE RESULT IS NON-ZERO, IT MAY
  7170					;INDICATE AN ILLEGAL CARRY GENERATION.
  7171			007515		SN=SN+1
  7172			010000			ZZ=ZZ+ZZ
  7173						IFE	ZZ,<ZZ=1>
  7174	033762	200 00 0 00 070301 		MOVE	[ZZ]		;INITIALIZE AC WITH ONE FLOATING BIT SET
  7175	033763	430 00 0 00 070301 		XOR	[ZZ]		;*XOR WITH C(AC)=C(E) SHOULD RESULT IN C(AC)=0
  7176	033764	332 00 0 00 000000 		SKIPE			;PASS TEST IF C(AC)=0
  7177						STOP^
  7178	033765	254 04 0 00 033766 		HALT	.+1		;TEST FAILED IF PROGRAM HALTS HERE
  7179	033766	324 00 0 00 033767 		JUMPA	.+1		;IF TEST FAILS, CHANGE THIS INSTRUCTION (JUMPA .+1) TO
  7180									;JUMPA X (X IS THE ADDRESS OF THE FIRST INSTRUCTION
  7181									;IN THE SUBTEST) TO LOOP ON ERROR^
  7182
  7183					;**********
  7184
  7185					;THIS TEST VERIFIES THAT THE RESULT OF AN XOR INSTRUCTION
  7186					;WHERE C(AC) = C(E) IS AN AC CONTAINING ALL ZEROS.  FIRST,
  7187					;THE AC IS INITIALIZED WITH A WORD CONTAINING ALL ZEROS EXCEPT
  7188					;FOR ONE FLOATING ONE; THEN, XOR IS EXECUTED WITH E CONTAINING THE SAME
  7189					;NUMBER.  THE RESULT SHOULD BE AN AC CONTAINING ALL ZEROS.  THIS TEST
  7190					;IS REPEATED 36 TIMES.  IF ANY BIT IN THE RESULT IS NON-ZERO, IT MAY
  7191					;INDICATE AN ILLEGAL CARRY GENERATION.
  7192			007516		SN=SN+1
  7193			020000			ZZ=ZZ+ZZ
  7194						IFE	ZZ,<ZZ=1>
  7195	033767	200 00 0 00 070302 		MOVE	[ZZ]		;INITIALIZE AC WITH ONE FLOATING BIT SET
  7196	033770	430 00 0 00 070302 		XOR	[ZZ]		;*XOR WITH C(AC)=C(E) SHOULD RESULT IN C(AC)=0
  7197	033771	332 00 0 00 000000 		SKIPE			;PASS TEST IF C(AC)=0
  7198						STOP^
  7199	033772	254 04 0 00 033773 		HALT	.+1		;TEST FAILED IF PROGRAM HALTS HERE
  7200	033773	324 00 0 00 033774 		JUMPA	.+1		;IF TEST FAILS, CHANGE THIS INSTRUCTION (JUMPA .+1) TO
  7201									;JUMPA X (X IS THE ADDRESS OF THE FIRST INSTRUCTION
  7202									;IN THE SUBTEST) TO LOOP ON ERROR^
  7203
  7204					;**********
  7205
  7206					;THIS TEST VERIFIES THAT THE RESULT OF AN XOR INSTRUCTION
  7207					;WHERE C(AC) = C(E) IS AN AC CONTAINING ALL ZEROS.  FIRST,
  7208					;THE AC IS INITIALIZED WITH A WORD CONTAINING ALL ZEROS EXCEPT
  7209					;FOR ONE FLOATING ONE; THEN, XOR IS EXECUTED WITH E CONTAINING THE SAME
  7210					;NUMBER.  THE RESULT SHOULD BE AN AC CONTAINING ALL ZEROS.  THIS TEST
  7211					;IS REPEATED 36 TIMES.  IF ANY BIT IN THE RESULT IS NON-ZERO, IT MAY
  7212					;INDICATE AN ILLEGAL CARRY GENERATION.
  7213			007517		SN=SN+1
  7214			040000			ZZ=ZZ+ZZ
  7215						IFE	ZZ,<ZZ=1>
  7216	033774	200 00 0 00 070303 		MOVE	[ZZ]		;INITIALIZE AC WITH ONE FLOATING BIT SET
  7217	033775	430 00 0 00 070303 		XOR	[ZZ]		;*XOR WITH C(AC)=C(E) SHOULD RESULT IN C(AC)=0
  7218	033776	332 00 0 00 000000 		SKIPE			;PASS TEST IF C(AC)=0
  7219						STOP^
  7220	033777	254 04 0 00 034000 		HALT	.+1		;TEST FAILED IF PROGRAM HALTS HERE
DFKAA PDP-10 KL10 BASIC INSTRUCTION DIAGNOSTIC (1) VER 0,2	MACRO %53B(1254)-4 11:50 11-Nov-24 Page 28-6
DFKAA1	MAC	13-Jan-89 10:22		TEST OF BOOLEAN INSTRUCTIONS (SETM, SETZ, AND, XOR, EQV)

  7221	034000	324 00 0 00 034001 		JUMPA	.+1		;IF TEST FAILS, CHANGE THIS INSTRUCTION (JUMPA .+1) TO
  7222									;JUMPA X (X IS THE ADDRESS OF THE FIRST INSTRUCTION
  7223									;IN THE SUBTEST) TO LOOP ON ERROR^
  7224
  7225					;**********
  7226
  7227					;THIS TEST VERIFIES THAT THE RESULT OF AN XOR INSTRUCTION
  7228					;WHERE C(AC) = C(E) IS AN AC CONTAINING ALL ZEROS.  FIRST,
  7229					;THE AC IS INITIALIZED WITH A WORD CONTAINING ALL ZEROS EXCEPT
  7230					;FOR ONE FLOATING ONE; THEN, XOR IS EXECUTED WITH E CONTAINING THE SAME
  7231					;NUMBER.  THE RESULT SHOULD BE AN AC CONTAINING ALL ZEROS.  THIS TEST
  7232					;IS REPEATED 36 TIMES.  IF ANY BIT IN THE RESULT IS NON-ZERO, IT MAY
  7233					;INDICATE AN ILLEGAL CARRY GENERATION.
  7234			007520		SN=SN+1
  7235			100000			ZZ=ZZ+ZZ
  7236						IFE	ZZ,<ZZ=1>
  7237	034001	200 00 0 00 070304 		MOVE	[ZZ]		;INITIALIZE AC WITH ONE FLOATING BIT SET
  7238	034002	430 00 0 00 070304 		XOR	[ZZ]		;*XOR WITH C(AC)=C(E) SHOULD RESULT IN C(AC)=0
  7239	034003	332 00 0 00 000000 		SKIPE			;PASS TEST IF C(AC)=0
  7240						STOP^
  7241	034004	254 04 0 00 034005 		HALT	.+1		;TEST FAILED IF PROGRAM HALTS HERE
  7242	034005	324 00 0 00 034006 		JUMPA	.+1		;IF TEST FAILS, CHANGE THIS INSTRUCTION (JUMPA .+1) TO
  7243									;JUMPA X (X IS THE ADDRESS OF THE FIRST INSTRUCTION
  7244									;IN THE SUBTEST) TO LOOP ON ERROR^
  7245
  7246					;**********
  7247
  7248					;THIS TEST VERIFIES THAT THE RESULT OF AN XOR INSTRUCTION
  7249					;WHERE C(AC) = C(E) IS AN AC CONTAINING ALL ZEROS.  FIRST,
  7250					;THE AC IS INITIALIZED WITH A WORD CONTAINING ALL ZEROS EXCEPT
  7251					;FOR ONE FLOATING ONE; THEN, XOR IS EXECUTED WITH E CONTAINING THE SAME
  7252					;NUMBER.  THE RESULT SHOULD BE AN AC CONTAINING ALL ZEROS.  THIS TEST
  7253					;IS REPEATED 36 TIMES.  IF ANY BIT IN THE RESULT IS NON-ZERO, IT MAY
  7254					;INDICATE AN ILLEGAL CARRY GENERATION.
  7255			007521		SN=SN+1
  7256			200000			ZZ=ZZ+ZZ
  7257						IFE	ZZ,<ZZ=1>
  7258	034006	200 00 0 00 070305 		MOVE	[ZZ]		;INITIALIZE AC WITH ONE FLOATING BIT SET
  7259	034007	430 00 0 00 070305 		XOR	[ZZ]		;*XOR WITH C(AC)=C(E) SHOULD RESULT IN C(AC)=0
  7260	034010	332 00 0 00 000000 		SKIPE			;PASS TEST IF C(AC)=0
  7261						STOP^
  7262	034011	254 04 0 00 034012 		HALT	.+1		;TEST FAILED IF PROGRAM HALTS HERE
  7263	034012	324 00 0 00 034013 		JUMPA	.+1		;IF TEST FAILS, CHANGE THIS INSTRUCTION (JUMPA .+1) TO
  7264									;JUMPA X (X IS THE ADDRESS OF THE FIRST INSTRUCTION
  7265									;IN THE SUBTEST) TO LOOP ON ERROR^
  7266
  7267					;**********
  7268
  7269					;THIS TEST VERIFIES THAT THE RESULT OF AN XOR INSTRUCTION
  7270					;WHERE C(AC) = C(E) IS AN AC CONTAINING ALL ZEROS.  FIRST,
  7271					;THE AC IS INITIALIZED WITH A WORD CONTAINING ALL ZEROS EXCEPT
  7272					;FOR ONE FLOATING ONE; THEN, XOR IS EXECUTED WITH E CONTAINING THE SAME
  7273					;NUMBER.  THE RESULT SHOULD BE AN AC CONTAINING ALL ZEROS.  THIS TEST
  7274					;IS REPEATED 36 TIMES.  IF ANY BIT IN THE RESULT IS NON-ZERO, IT MAY
  7275					;INDICATE AN ILLEGAL CARRY GENERATION.
DFKAA PDP-10 KL10 BASIC INSTRUCTION DIAGNOSTIC (1) VER 0,2	MACRO %53B(1254)-4 11:50 11-Nov-24 Page 28-7
DFKAA1	MAC	13-Jan-89 10:22		TEST OF BOOLEAN INSTRUCTIONS (SETM, SETZ, AND, XOR, EQV)

  7276			007522		SN=SN+1
  7277			400000			ZZ=ZZ+ZZ
  7278						IFE	ZZ,<ZZ=1>
  7279	034013	200 00 0 00 070306 		MOVE	[ZZ]		;INITIALIZE AC WITH ONE FLOATING BIT SET
  7280	034014	430 00 0 00 070306 		XOR	[ZZ]		;*XOR WITH C(AC)=C(E) SHOULD RESULT IN C(AC)=0
  7281	034015	332 00 0 00 000000 		SKIPE			;PASS TEST IF C(AC)=0
  7282						STOP^
  7283	034016	254 04 0 00 034017 		HALT	.+1		;TEST FAILED IF PROGRAM HALTS HERE
  7284	034017	324 00 0 00 034020 		JUMPA	.+1		;IF TEST FAILS, CHANGE THIS INSTRUCTION (JUMPA .+1) TO
  7285									;JUMPA X (X IS THE ADDRESS OF THE FIRST INSTRUCTION
  7286									;IN THE SUBTEST) TO LOOP ON ERROR^
  7287
  7288					;**********
  7289
  7290					;THIS TEST VERIFIES THAT THE RESULT OF AN XOR INSTRUCTION
  7291					;WHERE C(AC) = C(E) IS AN AC CONTAINING ALL ZEROS.  FIRST,
  7292					;THE AC IS INITIALIZED WITH A WORD CONTAINING ALL ZEROS EXCEPT
  7293					;FOR ONE FLOATING ONE; THEN, XOR IS EXECUTED WITH E CONTAINING THE SAME
  7294					;NUMBER.  THE RESULT SHOULD BE AN AC CONTAINING ALL ZEROS.  THIS TEST
  7295					;IS REPEATED 36 TIMES.  IF ANY BIT IN THE RESULT IS NON-ZERO, IT MAY
  7296					;INDICATE AN ILLEGAL CARRY GENERATION.
  7297			007523		SN=SN+1
  7298		000001	000000			ZZ=ZZ+ZZ
  7299						IFE	ZZ,<ZZ=1>
  7300	034020	200 00 0 00 070307 		MOVE	[ZZ]		;INITIALIZE AC WITH ONE FLOATING BIT SET
  7301	034021	430 00 0 00 070307 		XOR	[ZZ]		;*XOR WITH C(AC)=C(E) SHOULD RESULT IN C(AC)=0
  7302	034022	332 00 0 00 000000 		SKIPE			;PASS TEST IF C(AC)=0
  7303						STOP^
  7304	034023	254 04 0 00 034024 		HALT	.+1		;TEST FAILED IF PROGRAM HALTS HERE
  7305	034024	324 00 0 00 034025 		JUMPA	.+1		;IF TEST FAILS, CHANGE THIS INSTRUCTION (JUMPA .+1) TO
  7306									;JUMPA X (X IS THE ADDRESS OF THE FIRST INSTRUCTION
  7307									;IN THE SUBTEST) TO LOOP ON ERROR^
  7308
  7309					;**********
  7310
  7311					;THIS TEST VERIFIES THAT THE RESULT OF AN XOR INSTRUCTION
  7312					;WHERE C(AC) = C(E) IS AN AC CONTAINING ALL ZEROS.  FIRST,
  7313					;THE AC IS INITIALIZED WITH A WORD CONTAINING ALL ZEROS EXCEPT
  7314					;FOR ONE FLOATING ONE; THEN, XOR IS EXECUTED WITH E CONTAINING THE SAME
  7315					;NUMBER.  THE RESULT SHOULD BE AN AC CONTAINING ALL ZEROS.  THIS TEST
  7316					;IS REPEATED 36 TIMES.  IF ANY BIT IN THE RESULT IS NON-ZERO, IT MAY
  7317					;INDICATE AN ILLEGAL CARRY GENERATION.
  7318			007524		SN=SN+1
  7319		000002	000000			ZZ=ZZ+ZZ
  7320						IFE	ZZ,<ZZ=1>
  7321	034025	200 00 0 00 070310 		MOVE	[ZZ]		;INITIALIZE AC WITH ONE FLOATING BIT SET
  7322	034026	430 00 0 00 070310 		XOR	[ZZ]		;*XOR WITH C(AC)=C(E) SHOULD RESULT IN C(AC)=0
  7323	034027	332 00 0 00 000000 		SKIPE			;PASS TEST IF C(AC)=0
  7324						STOP^
  7325	034030	254 04 0 00 034031 		HALT	.+1		;TEST FAILED IF PROGRAM HALTS HERE
  7326	034031	324 00 0 00 034032 		JUMPA	.+1		;IF TEST FAILS, CHANGE THIS INSTRUCTION (JUMPA .+1) TO
  7327									;JUMPA X (X IS THE ADDRESS OF THE FIRST INSTRUCTION
  7328									;IN THE SUBTEST) TO LOOP ON ERROR^
  7329
  7330					;**********
DFKAA PDP-10 KL10 BASIC INSTRUCTION DIAGNOSTIC (1) VER 0,2	MACRO %53B(1254)-4 11:50 11-Nov-24 Page 28-8
DFKAA1	MAC	13-Jan-89 10:22		TEST OF BOOLEAN INSTRUCTIONS (SETM, SETZ, AND, XOR, EQV)

  7331
  7332					;THIS TEST VERIFIES THAT THE RESULT OF AN XOR INSTRUCTION
  7333					;WHERE C(AC) = C(E) IS AN AC CONTAINING ALL ZEROS.  FIRST,
  7334					;THE AC IS INITIALIZED WITH A WORD CONTAINING ALL ZEROS EXCEPT
  7335					;FOR ONE FLOATING ONE; THEN, XOR IS EXECUTED WITH E CONTAINING THE SAME
  7336					;NUMBER.  THE RESULT SHOULD BE AN AC CONTAINING ALL ZEROS.  THIS TEST
  7337					;IS REPEATED 36 TIMES.  IF ANY BIT IN THE RESULT IS NON-ZERO, IT MAY
  7338					;INDICATE AN ILLEGAL CARRY GENERATION.
  7339			007525		SN=SN+1
  7340		000004	000000			ZZ=ZZ+ZZ
  7341						IFE	ZZ,<ZZ=1>
  7342	034032	200 00 0 00 070311 		MOVE	[ZZ]		;INITIALIZE AC WITH ONE FLOATING BIT SET
  7343	034033	430 00 0 00 070311 		XOR	[ZZ]		;*XOR WITH C(AC)=C(E) SHOULD RESULT IN C(AC)=0
  7344	034034	332 00 0 00 000000 		SKIPE			;PASS TEST IF C(AC)=0
  7345						STOP^
  7346	034035	254 04 0 00 034036 		HALT	.+1		;TEST FAILED IF PROGRAM HALTS HERE
  7347	034036	324 00 0 00 034037 		JUMPA	.+1		;IF TEST FAILS, CHANGE THIS INSTRUCTION (JUMPA .+1) TO
  7348									;JUMPA X (X IS THE ADDRESS OF THE FIRST INSTRUCTION
  7349									;IN THE SUBTEST) TO LOOP ON ERROR^
  7350
  7351					;**********
  7352
  7353					;THIS TEST VERIFIES THAT THE RESULT OF AN XOR INSTRUCTION
  7354					;WHERE C(AC) = C(E) IS AN AC CONTAINING ALL ZEROS.  FIRST,
  7355					;THE AC IS INITIALIZED WITH A WORD CONTAINING ALL ZEROS EXCEPT
  7356					;FOR ONE FLOATING ONE; THEN, XOR IS EXECUTED WITH E CONTAINING THE SAME
  7357					;NUMBER.  THE RESULT SHOULD BE AN AC CONTAINING ALL ZEROS.  THIS TEST
  7358					;IS REPEATED 36 TIMES.  IF ANY BIT IN THE RESULT IS NON-ZERO, IT MAY
  7359					;INDICATE AN ILLEGAL CARRY GENERATION.
  7360			007526		SN=SN+1
  7361		000010	000000			ZZ=ZZ+ZZ
  7362						IFE	ZZ,<ZZ=1>
  7363	034037	200 00 0 00 070312 		MOVE	[ZZ]		;INITIALIZE AC WITH ONE FLOATING BIT SET
  7364	034040	430 00 0 00 070312 		XOR	[ZZ]		;*XOR WITH C(AC)=C(E) SHOULD RESULT IN C(AC)=0
  7365	034041	332 00 0 00 000000 		SKIPE			;PASS TEST IF C(AC)=0
  7366						STOP^
  7367	034042	254 04 0 00 034043 		HALT	.+1		;TEST FAILED IF PROGRAM HALTS HERE
  7368	034043	324 00 0 00 034044 		JUMPA	.+1		;IF TEST FAILS, CHANGE THIS INSTRUCTION (JUMPA .+1) TO
  7369									;JUMPA X (X IS THE ADDRESS OF THE FIRST INSTRUCTION
  7370									;IN THE SUBTEST) TO LOOP ON ERROR^
  7371
  7372					;**********
  7373
  7374					;THIS TEST VERIFIES THAT THE RESULT OF AN XOR INSTRUCTION
  7375					;WHERE C(AC) = C(E) IS AN AC CONTAINING ALL ZEROS.  FIRST,
  7376					;THE AC IS INITIALIZED WITH A WORD CONTAINING ALL ZEROS EXCEPT
  7377					;FOR ONE FLOATING ONE; THEN, XOR IS EXECUTED WITH E CONTAINING THE SAME
  7378					;NUMBER.  THE RESULT SHOULD BE AN AC CONTAINING ALL ZEROS.  THIS TEST
  7379					;IS REPEATED 36 TIMES.  IF ANY BIT IN THE RESULT IS NON-ZERO, IT MAY
  7380					;INDICATE AN ILLEGAL CARRY GENERATION.
  7381			007527		SN=SN+1
  7382		000020	000000			ZZ=ZZ+ZZ
  7383						IFE	ZZ,<ZZ=1>
  7384	034044	200 00 0 00 070313 		MOVE	[ZZ]		;INITIALIZE AC WITH ONE FLOATING BIT SET
  7385	034045	430 00 0 00 070313 		XOR	[ZZ]		;*XOR WITH C(AC)=C(E) SHOULD RESULT IN C(AC)=0
DFKAA PDP-10 KL10 BASIC INSTRUCTION DIAGNOSTIC (1) VER 0,2	MACRO %53B(1254)-4 11:50 11-Nov-24 Page 28-9
DFKAA1	MAC	13-Jan-89 10:22		TEST OF BOOLEAN INSTRUCTIONS (SETM, SETZ, AND, XOR, EQV)

  7386	034046	332 00 0 00 000000 		SKIPE			;PASS TEST IF C(AC)=0
  7387						STOP^
  7388	034047	254 04 0 00 034050 		HALT	.+1		;TEST FAILED IF PROGRAM HALTS HERE
  7389	034050	324 00 0 00 034051 		JUMPA	.+1		;IF TEST FAILS, CHANGE THIS INSTRUCTION (JUMPA .+1) TO
  7390									;JUMPA X (X IS THE ADDRESS OF THE FIRST INSTRUCTION
  7391									;IN THE SUBTEST) TO LOOP ON ERROR^
  7392
  7393					;**********
  7394
  7395					;THIS TEST VERIFIES THAT THE RESULT OF AN XOR INSTRUCTION
  7396					;WHERE C(AC) = C(E) IS AN AC CONTAINING ALL ZEROS.  FIRST,
  7397					;THE AC IS INITIALIZED WITH A WORD CONTAINING ALL ZEROS EXCEPT
  7398					;FOR ONE FLOATING ONE; THEN, XOR IS EXECUTED WITH E CONTAINING THE SAME
  7399					;NUMBER.  THE RESULT SHOULD BE AN AC CONTAINING ALL ZEROS.  THIS TEST
  7400					;IS REPEATED 36 TIMES.  IF ANY BIT IN THE RESULT IS NON-ZERO, IT MAY
  7401					;INDICATE AN ILLEGAL CARRY GENERATION.
  7402			007530		SN=SN+1
  7403		000040	000000			ZZ=ZZ+ZZ
  7404						IFE	ZZ,<ZZ=1>
  7405	034051	200 00 0 00 070314 		MOVE	[ZZ]		;INITIALIZE AC WITH ONE FLOATING BIT SET
  7406	034052	430 00 0 00 070314 		XOR	[ZZ]		;*XOR WITH C(AC)=C(E) SHOULD RESULT IN C(AC)=0
  7407	034053	332 00 0 00 000000 		SKIPE			;PASS TEST IF C(AC)=0
  7408						STOP^
  7409	034054	254 04 0 00 034055 		HALT	.+1		;TEST FAILED IF PROGRAM HALTS HERE
  7410	034055	324 00 0 00 034056 		JUMPA	.+1		;IF TEST FAILS, CHANGE THIS INSTRUCTION (JUMPA .+1) TO
  7411									;JUMPA X (X IS THE ADDRESS OF THE FIRST INSTRUCTION
  7412									;IN THE SUBTEST) TO LOOP ON ERROR^
  7413
  7414					;**********
  7415
  7416					;THIS TEST VERIFIES THAT THE RESULT OF AN XOR INSTRUCTION
  7417					;WHERE C(AC) = C(E) IS AN AC CONTAINING ALL ZEROS.  FIRST,
  7418					;THE AC IS INITIALIZED WITH A WORD CONTAINING ALL ZEROS EXCEPT
  7419					;FOR ONE FLOATING ONE; THEN, XOR IS EXECUTED WITH E CONTAINING THE SAME
  7420					;NUMBER.  THE RESULT SHOULD BE AN AC CONTAINING ALL ZEROS.  THIS TEST
  7421					;IS REPEATED 36 TIMES.  IF ANY BIT IN THE RESULT IS NON-ZERO, IT MAY
  7422					;INDICATE AN ILLEGAL CARRY GENERATION.
  7423			007531		SN=SN+1
  7424		000100	000000			ZZ=ZZ+ZZ
  7425						IFE	ZZ,<ZZ=1>
  7426	034056	200 00 0 00 070315 		MOVE	[ZZ]		;INITIALIZE AC WITH ONE FLOATING BIT SET
  7427	034057	430 00 0 00 070315 		XOR	[ZZ]		;*XOR WITH C(AC)=C(E) SHOULD RESULT IN C(AC)=0
  7428	034060	332 00 0 00 000000 		SKIPE			;PASS TEST IF C(AC)=0
  7429						STOP^
  7430	034061	254 04 0 00 034062 		HALT	.+1		;TEST FAILED IF PROGRAM HALTS HERE
  7431	034062	324 00 0 00 034063 		JUMPA	.+1		;IF TEST FAILS, CHANGE THIS INSTRUCTION (JUMPA .+1) TO
  7432									;JUMPA X (X IS THE ADDRESS OF THE FIRST INSTRUCTION
  7433									;IN THE SUBTEST) TO LOOP ON ERROR^
  7434
  7435					;**********
  7436
  7437					;THIS TEST VERIFIES THAT THE RESULT OF AN XOR INSTRUCTION
  7438					;WHERE C(AC) = C(E) IS AN AC CONTAINING ALL ZEROS.  FIRST,
  7439					;THE AC IS INITIALIZED WITH A WORD CONTAINING ALL ZEROS EXCEPT
  7440					;FOR ONE FLOATING ONE; THEN, XOR IS EXECUTED WITH E CONTAINING THE SAME
DFKAA PDP-10 KL10 BASIC INSTRUCTION DIAGNOSTIC (1) VER 0,2	MACRO %53B(1254)-4 11:50 11-Nov-24 Page 28-10
DFKAA1	MAC	13-Jan-89 10:22		TEST OF BOOLEAN INSTRUCTIONS (SETM, SETZ, AND, XOR, EQV)

  7441					;NUMBER.  THE RESULT SHOULD BE AN AC CONTAINING ALL ZEROS.  THIS TEST
  7442					;IS REPEATED 36 TIMES.  IF ANY BIT IN THE RESULT IS NON-ZERO, IT MAY
  7443					;INDICATE AN ILLEGAL CARRY GENERATION.
  7444			007532		SN=SN+1
  7445		000200	000000			ZZ=ZZ+ZZ
  7446						IFE	ZZ,<ZZ=1>
  7447	034063	200 00 0 00 070316 		MOVE	[ZZ]		;INITIALIZE AC WITH ONE FLOATING BIT SET
  7448	034064	430 00 0 00 070316 		XOR	[ZZ]		;*XOR WITH C(AC)=C(E) SHOULD RESULT IN C(AC)=0
  7449	034065	332 00 0 00 000000 		SKIPE			;PASS TEST IF C(AC)=0
  7450						STOP^
  7451	034066	254 04 0 00 034067 		HALT	.+1		;TEST FAILED IF PROGRAM HALTS HERE
  7452	034067	324 00 0 00 034070 		JUMPA	.+1		;IF TEST FAILS, CHANGE THIS INSTRUCTION (JUMPA .+1) TO
  7453									;JUMPA X (X IS THE ADDRESS OF THE FIRST INSTRUCTION
  7454									;IN THE SUBTEST) TO LOOP ON ERROR^
  7455
  7456					;**********
  7457
  7458					;THIS TEST VERIFIES THAT THE RESULT OF AN XOR INSTRUCTION
  7459					;WHERE C(AC) = C(E) IS AN AC CONTAINING ALL ZEROS.  FIRST,
  7460					;THE AC IS INITIALIZED WITH A WORD CONTAINING ALL ZEROS EXCEPT
  7461					;FOR ONE FLOATING ONE; THEN, XOR IS EXECUTED WITH E CONTAINING THE SAME
  7462					;NUMBER.  THE RESULT SHOULD BE AN AC CONTAINING ALL ZEROS.  THIS TEST
  7463					;IS REPEATED 36 TIMES.  IF ANY BIT IN THE RESULT IS NON-ZERO, IT MAY
  7464					;INDICATE AN ILLEGAL CARRY GENERATION.
  7465			007533		SN=SN+1
  7466		000400	000000			ZZ=ZZ+ZZ
  7467						IFE	ZZ,<ZZ=1>
  7468	034070	200 00 0 00 070264 		MOVE	[ZZ]		;INITIALIZE AC WITH ONE FLOATING BIT SET
  7469	034071	430 00 0 00 070264 		XOR	[ZZ]		;*XOR WITH C(AC)=C(E) SHOULD RESULT IN C(AC)=0
  7470	034072	332 00 0 00 000000 		SKIPE			;PASS TEST IF C(AC)=0
  7471						STOP^
  7472	034073	254 04 0 00 034074 		HALT	.+1		;TEST FAILED IF PROGRAM HALTS HERE
  7473	034074	324 00 0 00 034075 		JUMPA	.+1		;IF TEST FAILS, CHANGE THIS INSTRUCTION (JUMPA .+1) TO
  7474									;JUMPA X (X IS THE ADDRESS OF THE FIRST INSTRUCTION
  7475									;IN THE SUBTEST) TO LOOP ON ERROR^
  7476
  7477					;**********
  7478
  7479					;THIS TEST VERIFIES THAT THE RESULT OF AN XOR INSTRUCTION
  7480					;WHERE C(AC) = C(E) IS AN AC CONTAINING ALL ZEROS.  FIRST,
  7481					;THE AC IS INITIALIZED WITH A WORD CONTAINING ALL ZEROS EXCEPT
  7482					;FOR ONE FLOATING ONE; THEN, XOR IS EXECUTED WITH E CONTAINING THE SAME
  7483					;NUMBER.  THE RESULT SHOULD BE AN AC CONTAINING ALL ZEROS.  THIS TEST
  7484					;IS REPEATED 36 TIMES.  IF ANY BIT IN THE RESULT IS NON-ZERO, IT MAY
  7485					;INDICATE AN ILLEGAL CARRY GENERATION.
  7486			007534		SN=SN+1
  7487		001000	000000			ZZ=ZZ+ZZ
  7488						IFE	ZZ,<ZZ=1>
  7489	034075	200 00 0 00 070317 		MOVE	[ZZ]		;INITIALIZE AC WITH ONE FLOATING BIT SET
  7490	034076	430 00 0 00 070317 		XOR	[ZZ]		;*XOR WITH C(AC)=C(E) SHOULD RESULT IN C(AC)=0
  7491	034077	332 00 0 00 000000 		SKIPE			;PASS TEST IF C(AC)=0
  7492						STOP^
  7493	034100	254 04 0 00 034101 		HALT	.+1		;TEST FAILED IF PROGRAM HALTS HERE
  7494	034101	324 00 0 00 034102 		JUMPA	.+1		;IF TEST FAILS, CHANGE THIS INSTRUCTION (JUMPA .+1) TO
  7495									;JUMPA X (X IS THE ADDRESS OF THE FIRST INSTRUCTION
DFKAA PDP-10 KL10 BASIC INSTRUCTION DIAGNOSTIC (1) VER 0,2	MACRO %53B(1254)-4 11:50 11-Nov-24 Page 28-11
DFKAA1	MAC	13-Jan-89 10:22		TEST OF BOOLEAN INSTRUCTIONS (SETM, SETZ, AND, XOR, EQV)

  7496									;IN THE SUBTEST) TO LOOP ON ERROR^
  7497
  7498					;**********
  7499
  7500					;THIS TEST VERIFIES THAT THE RESULT OF AN XOR INSTRUCTION
  7501					;WHERE C(AC) = C(E) IS AN AC CONTAINING ALL ZEROS.  FIRST,
  7502					;THE AC IS INITIALIZED WITH A WORD CONTAINING ALL ZEROS EXCEPT
  7503					;FOR ONE FLOATING ONE; THEN, XOR IS EXECUTED WITH E CONTAINING THE SAME
  7504					;NUMBER.  THE RESULT SHOULD BE AN AC CONTAINING ALL ZEROS.  THIS TEST
  7505					;IS REPEATED 36 TIMES.  IF ANY BIT IN THE RESULT IS NON-ZERO, IT MAY
  7506					;INDICATE AN ILLEGAL CARRY GENERATION.
  7507			007535		SN=SN+1
  7508		002000	000000			ZZ=ZZ+ZZ
  7509						IFE	ZZ,<ZZ=1>
  7510	034102	200 00 0 00 070320 		MOVE	[ZZ]		;INITIALIZE AC WITH ONE FLOATING BIT SET
  7511	034103	430 00 0 00 070320 		XOR	[ZZ]		;*XOR WITH C(AC)=C(E) SHOULD RESULT IN C(AC)=0
  7512	034104	332 00 0 00 000000 		SKIPE			;PASS TEST IF C(AC)=0
  7513						STOP^
  7514	034105	254 04 0 00 034106 		HALT	.+1		;TEST FAILED IF PROGRAM HALTS HERE
  7515	034106	324 00 0 00 034107 		JUMPA	.+1		;IF TEST FAILS, CHANGE THIS INSTRUCTION (JUMPA .+1) TO
  7516									;JUMPA X (X IS THE ADDRESS OF THE FIRST INSTRUCTION
  7517									;IN THE SUBTEST) TO LOOP ON ERROR^
  7518
  7519					;**********
  7520
  7521					;THIS TEST VERIFIES THAT THE RESULT OF AN XOR INSTRUCTION
  7522					;WHERE C(AC) = C(E) IS AN AC CONTAINING ALL ZEROS.  FIRST,
  7523					;THE AC IS INITIALIZED WITH A WORD CONTAINING ALL ZEROS EXCEPT
  7524					;FOR ONE FLOATING ONE; THEN, XOR IS EXECUTED WITH E CONTAINING THE SAME
  7525					;NUMBER.  THE RESULT SHOULD BE AN AC CONTAINING ALL ZEROS.  THIS TEST
  7526					;IS REPEATED 36 TIMES.  IF ANY BIT IN THE RESULT IS NON-ZERO, IT MAY
  7527					;INDICATE AN ILLEGAL CARRY GENERATION.
  7528			007536		SN=SN+1
  7529		004000	000000			ZZ=ZZ+ZZ
  7530						IFE	ZZ,<ZZ=1>
  7531	034107	200 00 0 00 070321 		MOVE	[ZZ]		;INITIALIZE AC WITH ONE FLOATING BIT SET
  7532	034110	430 00 0 00 070321 		XOR	[ZZ]		;*XOR WITH C(AC)=C(E) SHOULD RESULT IN C(AC)=0
  7533	034111	332 00 0 00 000000 		SKIPE			;PASS TEST IF C(AC)=0
  7534						STOP^
  7535	034112	254 04 0 00 034113 		HALT	.+1		;TEST FAILED IF PROGRAM HALTS HERE
  7536	034113	324 00 0 00 034114 		JUMPA	.+1		;IF TEST FAILS, CHANGE THIS INSTRUCTION (JUMPA .+1) TO
  7537									;JUMPA X (X IS THE ADDRESS OF THE FIRST INSTRUCTION
  7538									;IN THE SUBTEST) TO LOOP ON ERROR^
  7539
  7540					;**********
  7541
  7542					;THIS TEST VERIFIES THAT THE RESULT OF AN XOR INSTRUCTION
  7543					;WHERE C(AC) = C(E) IS AN AC CONTAINING ALL ZEROS.  FIRST,
  7544					;THE AC IS INITIALIZED WITH A WORD CONTAINING ALL ZEROS EXCEPT
  7545					;FOR ONE FLOATING ONE; THEN, XOR IS EXECUTED WITH E CONTAINING THE SAME
  7546					;NUMBER.  THE RESULT SHOULD BE AN AC CONTAINING ALL ZEROS.  THIS TEST
  7547					;IS REPEATED 36 TIMES.  IF ANY BIT IN THE RESULT IS NON-ZERO, IT MAY
  7548					;INDICATE AN ILLEGAL CARRY GENERATION.
  7549			007537		SN=SN+1
  7550		010000	000000			ZZ=ZZ+ZZ
DFKAA PDP-10 KL10 BASIC INSTRUCTION DIAGNOSTIC (1) VER 0,2	MACRO %53B(1254)-4 11:50 11-Nov-24 Page 28-12
DFKAA1	MAC	13-Jan-89 10:22		TEST OF BOOLEAN INSTRUCTIONS (SETM, SETZ, AND, XOR, EQV)

  7551						IFE	ZZ,<ZZ=1>
  7552	034114	200 00 0 00 070322 		MOVE	[ZZ]		;INITIALIZE AC WITH ONE FLOATING BIT SET
  7553	034115	430 00 0 00 070322 		XOR	[ZZ]		;*XOR WITH C(AC)=C(E) SHOULD RESULT IN C(AC)=0
  7554	034116	332 00 0 00 000000 		SKIPE			;PASS TEST IF C(AC)=0
  7555						STOP^
  7556	034117	254 04 0 00 034120 		HALT	.+1		;TEST FAILED IF PROGRAM HALTS HERE
  7557	034120	324 00 0 00 034121 		JUMPA	.+1		;IF TEST FAILS, CHANGE THIS INSTRUCTION (JUMPA .+1) TO
  7558									;JUMPA X (X IS THE ADDRESS OF THE FIRST INSTRUCTION
  7559									;IN THE SUBTEST) TO LOOP ON ERROR^
  7560
  7561					;**********
  7562
  7563					;THIS TEST VERIFIES THAT THE RESULT OF AN XOR INSTRUCTION
  7564					;WHERE C(AC) = C(E) IS AN AC CONTAINING ALL ZEROS.  FIRST,
  7565					;THE AC IS INITIALIZED WITH A WORD CONTAINING ALL ZEROS EXCEPT
  7566					;FOR ONE FLOATING ONE; THEN, XOR IS EXECUTED WITH E CONTAINING THE SAME
  7567					;NUMBER.  THE RESULT SHOULD BE AN AC CONTAINING ALL ZEROS.  THIS TEST
  7568					;IS REPEATED 36 TIMES.  IF ANY BIT IN THE RESULT IS NON-ZERO, IT MAY
  7569					;INDICATE AN ILLEGAL CARRY GENERATION.
  7570			007540		SN=SN+1
  7571		020000	000000			ZZ=ZZ+ZZ
  7572						IFE	ZZ,<ZZ=1>
  7573	034121	200 00 0 00 070323 		MOVE	[ZZ]		;INITIALIZE AC WITH ONE FLOATING BIT SET
  7574	034122	430 00 0 00 070323 		XOR	[ZZ]		;*XOR WITH C(AC)=C(E) SHOULD RESULT IN C(AC)=0
  7575	034123	332 00 0 00 000000 		SKIPE			;PASS TEST IF C(AC)=0
  7576						STOP^
  7577	034124	254 04 0 00 034125 		HALT	.+1		;TEST FAILED IF PROGRAM HALTS HERE
  7578	034125	324 00 0 00 034126 		JUMPA	.+1		;IF TEST FAILS, CHANGE THIS INSTRUCTION (JUMPA .+1) TO
  7579									;JUMPA X (X IS THE ADDRESS OF THE FIRST INSTRUCTION
  7580									;IN THE SUBTEST) TO LOOP ON ERROR^
  7581
  7582					;**********
  7583
  7584					;THIS TEST VERIFIES THAT THE RESULT OF AN XOR INSTRUCTION
  7585					;WHERE C(AC) = C(E) IS AN AC CONTAINING ALL ZEROS.  FIRST,
  7586					;THE AC IS INITIALIZED WITH A WORD CONTAINING ALL ZEROS EXCEPT
  7587					;FOR ONE FLOATING ONE; THEN, XOR IS EXECUTED WITH E CONTAINING THE SAME
  7588					;NUMBER.  THE RESULT SHOULD BE AN AC CONTAINING ALL ZEROS.  THIS TEST
  7589					;IS REPEATED 36 TIMES.  IF ANY BIT IN THE RESULT IS NON-ZERO, IT MAY
  7590					;INDICATE AN ILLEGAL CARRY GENERATION.
  7591			007541		SN=SN+1
  7592		040000	000000			ZZ=ZZ+ZZ
  7593						IFE	ZZ,<ZZ=1>
  7594	034126	200 00 0 00 070324 		MOVE	[ZZ]		;INITIALIZE AC WITH ONE FLOATING BIT SET
  7595	034127	430 00 0 00 070324 		XOR	[ZZ]		;*XOR WITH C(AC)=C(E) SHOULD RESULT IN C(AC)=0
  7596	034130	332 00 0 00 000000 		SKIPE			;PASS TEST IF C(AC)=0
  7597						STOP^
  7598	034131	254 04 0 00 034132 		HALT	.+1		;TEST FAILED IF PROGRAM HALTS HERE
  7599	034132	324 00 0 00 034133 		JUMPA	.+1		;IF TEST FAILS, CHANGE THIS INSTRUCTION (JUMPA .+1) TO
  7600									;JUMPA X (X IS THE ADDRESS OF THE FIRST INSTRUCTION
  7601									;IN THE SUBTEST) TO LOOP ON ERROR^
  7602
  7603					;**********
  7604
  7605					;THIS TEST VERIFIES THAT THE RESULT OF AN XOR INSTRUCTION
DFKAA PDP-10 KL10 BASIC INSTRUCTION DIAGNOSTIC (1) VER 0,2	MACRO %53B(1254)-4 11:50 11-Nov-24 Page 28-13
DFKAA1	MAC	13-Jan-89 10:22		TEST OF BOOLEAN INSTRUCTIONS (SETM, SETZ, AND, XOR, EQV)

  7606					;WHERE C(AC) = C(E) IS AN AC CONTAINING ALL ZEROS.  FIRST,
  7607					;THE AC IS INITIALIZED WITH A WORD CONTAINING ALL ZEROS EXCEPT
  7608					;FOR ONE FLOATING ONE; THEN, XOR IS EXECUTED WITH E CONTAINING THE SAME
  7609					;NUMBER.  THE RESULT SHOULD BE AN AC CONTAINING ALL ZEROS.  THIS TEST
  7610					;IS REPEATED 36 TIMES.  IF ANY BIT IN THE RESULT IS NON-ZERO, IT MAY
  7611					;INDICATE AN ILLEGAL CARRY GENERATION.
  7612			007542		SN=SN+1
  7613		100000	000000			ZZ=ZZ+ZZ
  7614						IFE	ZZ,<ZZ=1>
  7615	034133	200 00 0 00 070325 		MOVE	[ZZ]		;INITIALIZE AC WITH ONE FLOATING BIT SET
  7616	034134	430 00 0 00 070325 		XOR	[ZZ]		;*XOR WITH C(AC)=C(E) SHOULD RESULT IN C(AC)=0
  7617	034135	332 00 0 00 000000 		SKIPE			;PASS TEST IF C(AC)=0
  7618						STOP^
  7619	034136	254 04 0 00 034137 		HALT	.+1		;TEST FAILED IF PROGRAM HALTS HERE
  7620	034137	324 00 0 00 034140 		JUMPA	.+1		;IF TEST FAILS, CHANGE THIS INSTRUCTION (JUMPA .+1) TO
  7621									;JUMPA X (X IS THE ADDRESS OF THE FIRST INSTRUCTION
  7622									;IN THE SUBTEST) TO LOOP ON ERROR^
  7623
  7624					;**********
  7625
  7626					;THIS TEST VERIFIES THAT THE RESULT OF AN XOR INSTRUCTION
  7627					;WHERE C(AC) = C(E) IS AN AC CONTAINING ALL ZEROS.  FIRST,
  7628					;THE AC IS INITIALIZED WITH A WORD CONTAINING ALL ZEROS EXCEPT
  7629					;FOR ONE FLOATING ONE; THEN, XOR IS EXECUTED WITH E CONTAINING THE SAME
  7630					;NUMBER.  THE RESULT SHOULD BE AN AC CONTAINING ALL ZEROS.  THIS TEST
  7631					;IS REPEATED 36 TIMES.  IF ANY BIT IN THE RESULT IS NON-ZERO, IT MAY
  7632					;INDICATE AN ILLEGAL CARRY GENERATION.
  7633			007543		SN=SN+1
  7634		200000	000000			ZZ=ZZ+ZZ
  7635						IFE	ZZ,<ZZ=1>
  7636	034140	200 00 0 00 070326 		MOVE	[ZZ]		;INITIALIZE AC WITH ONE FLOATING BIT SET
  7637	034141	430 00 0 00 070326 		XOR	[ZZ]		;*XOR WITH C(AC)=C(E) SHOULD RESULT IN C(AC)=0
  7638	034142	332 00 0 00 000000 		SKIPE			;PASS TEST IF C(AC)=0
  7639						STOP^
  7640	034143	254 04 0 00 034144 		HALT	.+1		;TEST FAILED IF PROGRAM HALTS HERE
  7641	034144	324 00 0 00 034145 		JUMPA	.+1		;IF TEST FAILS, CHANGE THIS INSTRUCTION (JUMPA .+1) TO
  7642									;JUMPA X (X IS THE ADDRESS OF THE FIRST INSTRUCTION
  7643									;IN THE SUBTEST) TO LOOP ON ERROR^
  7644
  7645					;**********
  7646
  7647					;THIS TEST VERIFIES THAT THE RESULT OF AN XOR INSTRUCTION
  7648					;WHERE C(AC) = C(E) IS AN AC CONTAINING ALL ZEROS.  FIRST,
  7649					;THE AC IS INITIALIZED WITH A WORD CONTAINING ALL ZEROS EXCEPT
  7650					;FOR ONE FLOATING ONE; THEN, XOR IS EXECUTED WITH E CONTAINING THE SAME
  7651					;NUMBER.  THE RESULT SHOULD BE AN AC CONTAINING ALL ZEROS.  THIS TEST
  7652					;IS REPEATED 36 TIMES.  IF ANY BIT IN THE RESULT IS NON-ZERO, IT MAY
  7653					;INDICATE AN ILLEGAL CARRY GENERATION.
  7654			007544		SN=SN+1
  7655		400000	000000			ZZ=ZZ+ZZ
  7656						IFE	ZZ,<ZZ=1>
  7657	034145	200 00 0 00 070256 		MOVE	[ZZ]		;INITIALIZE AC WITH ONE FLOATING BIT SET
  7658	034146	430 00 0 00 070256 		XOR	[ZZ]		;*XOR WITH C(AC)=C(E) SHOULD RESULT IN C(AC)=0
  7659	034147	332 00 0 00 000000 		SKIPE			;PASS TEST IF C(AC)=0
  7660						STOP^
DFKAA PDP-10 KL10 BASIC INSTRUCTION DIAGNOSTIC (1) VER 0,2	MACRO %53B(1254)-4 11:50 11-Nov-24 Page 28-14
DFKAA1	MAC	13-Jan-89 10:22		TEST OF BOOLEAN INSTRUCTIONS (SETM, SETZ, AND, XOR, EQV)

  7661	034150	254 04 0 00 034151 		HALT	.+1		;TEST FAILED IF PROGRAM HALTS HERE
  7662	034151	324 00 0 00 034152 		JUMPA	.+1		;IF TEST FAILS, CHANGE THIS INSTRUCTION (JUMPA .+1) TO
  7663									;JUMPA X (X IS THE ADDRESS OF THE FIRST INSTRUCTION
  7664									;IN THE SUBTEST) TO LOOP ON ERROR^
  7665
  7666					;**********
  7667
  7668					;THIS TEST VERIFIES THAT THE RESULT OF AN XOR INSTRUCTION WHERE
  7669					;C(AC)=C(E)=0 IS AN AC CONTAINING ALL ZEROS; FIRST THE AC IS CLEARED; THEN
  7670					;XOR IS EXECUTED WITH C(E)=0.  THE RESULT IN THE AC IS CHECKED FOR ALL ZEROS
  7671
  7672	034152	200 00 0 00 070253 	A7600:	MOVE	[0]		;INITIALIZE AC TO ALL ZEROS
  7673	034153	430 00 0 00 070253 		XOR	[0]		;*XOR WITH C(AC)=C(E)=0 SHOULD RESULT INC(AC)=0
  7674	034154	332 00 0 00 000000 		SKIPE			;PASS TEST IF C(AC)=0
  7675						STOP^
  7676	034155	254 04 0 00 034156 		HALT	.+1		;TEST FAILED IF PROGRAM HALTS HERE
  7677	034156	324 00 0 00 034157 		JUMPA	.+1		;IF TEST FAILS, CHANGE THIS INSTRUCTION (JUMPA .+1) TO
  7678									;JUMPA X (X IS THE ADDRESS OF THE FIRST INSTRUCTION
  7679									;IN THE SUBTEST) TO LOOP ON ERROR^
  7680
  7681					;**********
  7682
  7683					;THIS TEST VERIFIES THAT THE RESULT OF AN EQV INSTRUCTION WHERE
  7684					;C(AC)=0 AND C(E) ALL ONES IS AN AC CONTAINING ALL ZEROS SINCE
  7685					;THE EQUIVALENCE FUNCTION SHOULD SET ONLY LIKE BITS.  FIRST, THE AC
  7686					;SHOULD BE CLEARED; THEN, EQV IS EXECUTED WITH E CONTAINING ALL ONES.
  7687					;THE AC IS THEN CHECKED FOR ALL ZEROS
  7688
  7689	034157	200 00 0 00 070253 	A7700:	MOVE	[0]		;CLEAR THE AC
  7690	034160	444 00 0 00 070254 		EQV	[-1]		;*EQV WITH C(AC)=0 AND C(E) ALL ONES SHOULD
  7691									;RESULT IN C(AC)=0
  7692	034161	332 00 0 00 000000 		SKIPE			;PASS TEST IF C(AC)=0
  7693						STOP^
  7694	034162	254 04 0 00 034163 		HALT	.+1		;TEST FAILED IF PROGRAM HALTS HERE
  7695	034163	324 00 0 00 034164 		JUMPA	.+1		;IF TEST FAILS, CHANGE THIS INSTRUCTION (JUMPA .+1) TO
  7696									;JUMPA X (X IS THE ADDRESS OF THE FIRST INSTRUCTION
  7697									;IN THE SUBTEST) TO LOOP ON ERROR^
  7698
  7699					;**********
DFKAA PDP-10 KL10 BASIC INSTRUCTION DIAGNOSTIC (1) VER 0,2	MACRO %53B(1254)-4 11:50 11-Nov-24 Page 29
DFKAA1	MAC	13-Jan-89 10:22		TEST OF BOOLEAN INSTRUCTIONS (SETM, SETZ, AND, XOR, EQV)

  7700			010000		SN=10000
  7701			000000			ZZ=0
  7702
  7703					A10000:	REPEAT	^D18,
  7704					<;THIS TEST VERIFIES THAT THE RESULT OF AN EQV INSTRUCTION WHERE
  7705					;C(AC)=0 AND C(E) IS ALL ONES EXCEPT FOR A ZERO IN ONLY ONE BIT IS AN
  7706					;AC WHOSE CONTENTS IS NON-ZERO (A ONE RESULTS IN THE BIT WHERE
  7707					;E CONTAINS A ZERO).  THIS TEST IS REPEATED 36 TIMES SO THAT EACH BIT
  7708					;OF THE RESULT IS A ONE ONCE AND ONLY ONCE.  FIRST, THE AC IS
  7709					;CLEARED; THEN,EQV IS EXECUTED WITH ONE BIT OF E EQUAL TO ZERO.  THE
  7710					;RESULT IN THE AC IS THEN CHECKED FOR ITS CONTENTS NON-ZERO
  7711					SN=SN+1
  7712						ZZ=ZZ+ZZ+1
  7713						IFE	<ZZ-1>,<ZZ=-2>
  7714						MOVE	[0]		;PRESET AC TO ALL ZEROS
  7715						EQV	[XWD -1,ZZ]	;*EQV WITH C(AC)=0 AND ONE BIT OF C(E)=0 SHOULD
  7716									;RESULT IN C(AC) NON-ZERO
  7717						SKIPN			;PASS TEST IF C(AC) NON-ZERO
  7718						STOP
  7719
  7720					;**********
  7721					>
  7722					;THIS TEST VERIFIES THAT THE RESULT OF AN EQV INSTRUCTION WHERE
  7723					;C(AC)=0 AND C(E) IS ALL ONES EXCEPT FOR A ZERO IN ONLY ONE BIT IS AN
  7724					;AC WHOSE CONTENTS IS NON-ZERO (A ONE RESULTS IN THE BIT WHERE
  7725					;E CONTAINS A ZERO).  THIS TEST IS REPEATED 36 TIMES SO THAT EACH BIT
  7726					;OF THE RESULT IS A ONE ONCE AND ONLY ONCE.  FIRST, THE AC IS
  7727					;CLEARED; THEN,EQV IS EXECUTED WITH ONE BIT OF E EQUAL TO ZERO.  THE
  7728					;RESULT IN THE AC IS THEN CHECKED FOR ITS CONTENTS NON-ZERO
  7729			010001		SN=SN+1
  7730			000001			ZZ=ZZ+ZZ+1
  7731		777777	777776			IFE	<ZZ-1>,<ZZ=-2>
  7732	034164	200 00 0 00 070253 		MOVE	[0]		;PRESET AC TO ALL ZEROS
  7733	034165	444 00 0 00 070333 		EQV	[XWD -1,ZZ]	;*EQV WITH C(AC)=0 AND ONE BIT OF C(E)=0 SHOULD
  7734									;RESULT IN C(AC) NON-ZERO
  7735	034166	336 00 0 00 000000 		SKIPN			;PASS TEST IF C(AC) NON-ZERO
  7736						STOP^
  7737	034167	254 04 0 00 034170 		HALT	.+1		;TEST FAILED IF PROGRAM HALTS HERE
  7738	034170	324 00 0 00 034171 		JUMPA	.+1		;IF TEST FAILS, CHANGE THIS INSTRUCTION (JUMPA .+1) TO
  7739									;JUMPA X (X IS THE ADDRESS OF THE FIRST INSTRUCTION
  7740									;IN THE SUBTEST) TO LOOP ON ERROR^
  7741
  7742					;**********
  7743
  7744					;THIS TEST VERIFIES THAT THE RESULT OF AN EQV INSTRUCTION WHERE
  7745					;C(AC)=0 AND C(E) IS ALL ONES EXCEPT FOR A ZERO IN ONLY ONE BIT IS AN
  7746					;AC WHOSE CONTENTS IS NON-ZERO (A ONE RESULTS IN THE BIT WHERE
  7747					;E CONTAINS A ZERO).  THIS TEST IS REPEATED 36 TIMES SO THAT EACH BIT
  7748					;OF THE RESULT IS A ONE ONCE AND ONLY ONCE.  FIRST, THE AC IS
  7749					;CLEARED; THEN,EQV IS EXECUTED WITH ONE BIT OF E EQUAL TO ZERO.  THE
  7750					;RESULT IN THE AC IS THEN CHECKED FOR ITS CONTENTS NON-ZERO
  7751			010002		SN=SN+1
  7752		777777	777775			ZZ=ZZ+ZZ+1
  7753						IFE	<ZZ-1>,<ZZ=-2>
  7754	034171	200 00 0 00 070253 		MOVE	[0]		;PRESET AC TO ALL ZEROS
DFKAA PDP-10 KL10 BASIC INSTRUCTION DIAGNOSTIC (1) VER 0,2	MACRO %53B(1254)-4 11:50 11-Nov-24 Page 29-1
DFKAA1	MAC	13-Jan-89 10:22		TEST OF BOOLEAN INSTRUCTIONS (SETM, SETZ, AND, XOR, EQV)

  7755	034172	444 00 0 00 070334 		EQV	[XWD -1,ZZ]	;*EQV WITH C(AC)=0 AND ONE BIT OF C(E)=0 SHOULD
  7756									;RESULT IN C(AC) NON-ZERO
  7757	034173	336 00 0 00 000000 		SKIPN			;PASS TEST IF C(AC) NON-ZERO
  7758						STOP^
  7759	034174	254 04 0 00 034175 		HALT	.+1		;TEST FAILED IF PROGRAM HALTS HERE
  7760	034175	324 00 0 00 034176 		JUMPA	.+1		;IF TEST FAILS, CHANGE THIS INSTRUCTION (JUMPA .+1) TO
  7761									;JUMPA X (X IS THE ADDRESS OF THE FIRST INSTRUCTION
  7762									;IN THE SUBTEST) TO LOOP ON ERROR^
  7763
  7764					;**********
  7765
  7766					;THIS TEST VERIFIES THAT THE RESULT OF AN EQV INSTRUCTION WHERE
  7767					;C(AC)=0 AND C(E) IS ALL ONES EXCEPT FOR A ZERO IN ONLY ONE BIT IS AN
  7768					;AC WHOSE CONTENTS IS NON-ZERO (A ONE RESULTS IN THE BIT WHERE
  7769					;E CONTAINS A ZERO).  THIS TEST IS REPEATED 36 TIMES SO THAT EACH BIT
  7770					;OF THE RESULT IS A ONE ONCE AND ONLY ONCE.  FIRST, THE AC IS
  7771					;CLEARED; THEN,EQV IS EXECUTED WITH ONE BIT OF E EQUAL TO ZERO.  THE
  7772					;RESULT IN THE AC IS THEN CHECKED FOR ITS CONTENTS NON-ZERO
  7773			010003		SN=SN+1
  7774		777777	777773			ZZ=ZZ+ZZ+1
  7775						IFE	<ZZ-1>,<ZZ=-2>
  7776	034176	200 00 0 00 070253 		MOVE	[0]		;PRESET AC TO ALL ZEROS
  7777	034177	444 00 0 00 070335 		EQV	[XWD -1,ZZ]	;*EQV WITH C(AC)=0 AND ONE BIT OF C(E)=0 SHOULD
  7778									;RESULT IN C(AC) NON-ZERO
  7779	034200	336 00 0 00 000000 		SKIPN			;PASS TEST IF C(AC) NON-ZERO
  7780						STOP^
  7781	034201	254 04 0 00 034202 		HALT	.+1		;TEST FAILED IF PROGRAM HALTS HERE
  7782	034202	324 00 0 00 034203 		JUMPA	.+1		;IF TEST FAILS, CHANGE THIS INSTRUCTION (JUMPA .+1) TO
  7783									;JUMPA X (X IS THE ADDRESS OF THE FIRST INSTRUCTION
  7784									;IN THE SUBTEST) TO LOOP ON ERROR^
  7785
  7786					;**********
  7787
  7788					;THIS TEST VERIFIES THAT THE RESULT OF AN EQV INSTRUCTION WHERE
  7789					;C(AC)=0 AND C(E) IS ALL ONES EXCEPT FOR A ZERO IN ONLY ONE BIT IS AN
  7790					;AC WHOSE CONTENTS IS NON-ZERO (A ONE RESULTS IN THE BIT WHERE
  7791					;E CONTAINS A ZERO).  THIS TEST IS REPEATED 36 TIMES SO THAT EACH BIT
  7792					;OF THE RESULT IS A ONE ONCE AND ONLY ONCE.  FIRST, THE AC IS
  7793					;CLEARED; THEN,EQV IS EXECUTED WITH ONE BIT OF E EQUAL TO ZERO.  THE
  7794					;RESULT IN THE AC IS THEN CHECKED FOR ITS CONTENTS NON-ZERO
  7795			010004		SN=SN+1
  7796		777777	777767			ZZ=ZZ+ZZ+1
  7797						IFE	<ZZ-1>,<ZZ=-2>
  7798	034203	200 00 0 00 070253 		MOVE	[0]		;PRESET AC TO ALL ZEROS
  7799	034204	444 00 0 00 070336 		EQV	[XWD -1,ZZ]	;*EQV WITH C(AC)=0 AND ONE BIT OF C(E)=0 SHOULD
  7800									;RESULT IN C(AC) NON-ZERO
  7801	034205	336 00 0 00 000000 		SKIPN			;PASS TEST IF C(AC) NON-ZERO
  7802						STOP^
  7803	034206	254 04 0 00 034207 		HALT	.+1		;TEST FAILED IF PROGRAM HALTS HERE
  7804	034207	324 00 0 00 034210 		JUMPA	.+1		;IF TEST FAILS, CHANGE THIS INSTRUCTION (JUMPA .+1) TO
  7805									;JUMPA X (X IS THE ADDRESS OF THE FIRST INSTRUCTION
  7806									;IN THE SUBTEST) TO LOOP ON ERROR^
  7807
  7808					;**********
  7809
DFKAA PDP-10 KL10 BASIC INSTRUCTION DIAGNOSTIC (1) VER 0,2	MACRO %53B(1254)-4 11:50 11-Nov-24 Page 29-2
DFKAA1	MAC	13-Jan-89 10:22		TEST OF BOOLEAN INSTRUCTIONS (SETM, SETZ, AND, XOR, EQV)

  7810					;THIS TEST VERIFIES THAT THE RESULT OF AN EQV INSTRUCTION WHERE
  7811					;C(AC)=0 AND C(E) IS ALL ONES EXCEPT FOR A ZERO IN ONLY ONE BIT IS AN
  7812					;AC WHOSE CONTENTS IS NON-ZERO (A ONE RESULTS IN THE BIT WHERE
  7813					;E CONTAINS A ZERO).  THIS TEST IS REPEATED 36 TIMES SO THAT EACH BIT
  7814					;OF THE RESULT IS A ONE ONCE AND ONLY ONCE.  FIRST, THE AC IS
  7815					;CLEARED; THEN,EQV IS EXECUTED WITH ONE BIT OF E EQUAL TO ZERO.  THE
  7816					;RESULT IN THE AC IS THEN CHECKED FOR ITS CONTENTS NON-ZERO
  7817			010005		SN=SN+1
  7818		777777	777757			ZZ=ZZ+ZZ+1
  7819						IFE	<ZZ-1>,<ZZ=-2>
  7820	034210	200 00 0 00 070253 		MOVE	[0]		;PRESET AC TO ALL ZEROS
  7821	034211	444 00 0 00 070337 		EQV	[XWD -1,ZZ]	;*EQV WITH C(AC)=0 AND ONE BIT OF C(E)=0 SHOULD
  7822									;RESULT IN C(AC) NON-ZERO
  7823	034212	336 00 0 00 000000 		SKIPN			;PASS TEST IF C(AC) NON-ZERO
  7824						STOP^
  7825	034213	254 04 0 00 034214 		HALT	.+1		;TEST FAILED IF PROGRAM HALTS HERE
  7826	034214	324 00 0 00 034215 		JUMPA	.+1		;IF TEST FAILS, CHANGE THIS INSTRUCTION (JUMPA .+1) TO
  7827									;JUMPA X (X IS THE ADDRESS OF THE FIRST INSTRUCTION
  7828									;IN THE SUBTEST) TO LOOP ON ERROR^
  7829
  7830					;**********
  7831
  7832					;THIS TEST VERIFIES THAT THE RESULT OF AN EQV INSTRUCTION WHERE
  7833					;C(AC)=0 AND C(E) IS ALL ONES EXCEPT FOR A ZERO IN ONLY ONE BIT IS AN
  7834					;AC WHOSE CONTENTS IS NON-ZERO (A ONE RESULTS IN THE BIT WHERE
  7835					;E CONTAINS A ZERO).  THIS TEST IS REPEATED 36 TIMES SO THAT EACH BIT
  7836					;OF THE RESULT IS A ONE ONCE AND ONLY ONCE.  FIRST, THE AC IS
  7837					;CLEARED; THEN,EQV IS EXECUTED WITH ONE BIT OF E EQUAL TO ZERO.  THE
  7838					;RESULT IN THE AC IS THEN CHECKED FOR ITS CONTENTS NON-ZERO
  7839			010006		SN=SN+1
  7840		777777	777737			ZZ=ZZ+ZZ+1
  7841						IFE	<ZZ-1>,<ZZ=-2>
  7842	034215	200 00 0 00 070253 		MOVE	[0]		;PRESET AC TO ALL ZEROS
  7843	034216	444 00 0 00 070340 		EQV	[XWD -1,ZZ]	;*EQV WITH C(AC)=0 AND ONE BIT OF C(E)=0 SHOULD
  7844									;RESULT IN C(AC) NON-ZERO
  7845	034217	336 00 0 00 000000 		SKIPN			;PASS TEST IF C(AC) NON-ZERO
  7846						STOP^
  7847	034220	254 04 0 00 034221 		HALT	.+1		;TEST FAILED IF PROGRAM HALTS HERE
  7848	034221	324 00 0 00 034222 		JUMPA	.+1		;IF TEST FAILS, CHANGE THIS INSTRUCTION (JUMPA .+1) TO
  7849									;JUMPA X (X IS THE ADDRESS OF THE FIRST INSTRUCTION
  7850									;IN THE SUBTEST) TO LOOP ON ERROR^
  7851
  7852					;**********
  7853
  7854					;THIS TEST VERIFIES THAT THE RESULT OF AN EQV INSTRUCTION WHERE
  7855					;C(AC)=0 AND C(E) IS ALL ONES EXCEPT FOR A ZERO IN ONLY ONE BIT IS AN
  7856					;AC WHOSE CONTENTS IS NON-ZERO (A ONE RESULTS IN THE BIT WHERE
  7857					;E CONTAINS A ZERO).  THIS TEST IS REPEATED 36 TIMES SO THAT EACH BIT
  7858					;OF THE RESULT IS A ONE ONCE AND ONLY ONCE.  FIRST, THE AC IS
  7859					;CLEARED; THEN,EQV IS EXECUTED WITH ONE BIT OF E EQUAL TO ZERO.  THE
  7860					;RESULT IN THE AC IS THEN CHECKED FOR ITS CONTENTS NON-ZERO
  7861			010007		SN=SN+1
  7862		777777	777677			ZZ=ZZ+ZZ+1
  7863						IFE	<ZZ-1>,<ZZ=-2>
  7864	034222	200 00 0 00 070253 		MOVE	[0]		;PRESET AC TO ALL ZEROS
DFKAA PDP-10 KL10 BASIC INSTRUCTION DIAGNOSTIC (1) VER 0,2	MACRO %53B(1254)-4 11:50 11-Nov-24 Page 29-3
DFKAA1	MAC	13-Jan-89 10:22		TEST OF BOOLEAN INSTRUCTIONS (SETM, SETZ, AND, XOR, EQV)

  7865	034223	444 00 0 00 070341 		EQV	[XWD -1,ZZ]	;*EQV WITH C(AC)=0 AND ONE BIT OF C(E)=0 SHOULD
  7866									;RESULT IN C(AC) NON-ZERO
  7867	034224	336 00 0 00 000000 		SKIPN			;PASS TEST IF C(AC) NON-ZERO
  7868						STOP^
  7869	034225	254 04 0 00 034226 		HALT	.+1		;TEST FAILED IF PROGRAM HALTS HERE
  7870	034226	324 00 0 00 034227 		JUMPA	.+1		;IF TEST FAILS, CHANGE THIS INSTRUCTION (JUMPA .+1) TO
  7871									;JUMPA X (X IS THE ADDRESS OF THE FIRST INSTRUCTION
  7872									;IN THE SUBTEST) TO LOOP ON ERROR^
  7873
  7874					;**********
  7875
  7876					;THIS TEST VERIFIES THAT THE RESULT OF AN EQV INSTRUCTION WHERE
  7877					;C(AC)=0 AND C(E) IS ALL ONES EXCEPT FOR A ZERO IN ONLY ONE BIT IS AN
  7878					;AC WHOSE CONTENTS IS NON-ZERO (A ONE RESULTS IN THE BIT WHERE
  7879					;E CONTAINS A ZERO).  THIS TEST IS REPEATED 36 TIMES SO THAT EACH BIT
  7880					;OF THE RESULT IS A ONE ONCE AND ONLY ONCE.  FIRST, THE AC IS
  7881					;CLEARED; THEN,EQV IS EXECUTED WITH ONE BIT OF E EQUAL TO ZERO.  THE
  7882					;RESULT IN THE AC IS THEN CHECKED FOR ITS CONTENTS NON-ZERO
  7883			010010		SN=SN+1
  7884		777777	777577			ZZ=ZZ+ZZ+1
  7885						IFE	<ZZ-1>,<ZZ=-2>
  7886	034227	200 00 0 00 070253 		MOVE	[0]		;PRESET AC TO ALL ZEROS
  7887	034230	444 00 0 00 070342 		EQV	[XWD -1,ZZ]	;*EQV WITH C(AC)=0 AND ONE BIT OF C(E)=0 SHOULD
  7888									;RESULT IN C(AC) NON-ZERO
  7889	034231	336 00 0 00 000000 		SKIPN			;PASS TEST IF C(AC) NON-ZERO
  7890						STOP^
  7891	034232	254 04 0 00 034233 		HALT	.+1		;TEST FAILED IF PROGRAM HALTS HERE
  7892	034233	324 00 0 00 034234 		JUMPA	.+1		;IF TEST FAILS, CHANGE THIS INSTRUCTION (JUMPA .+1) TO
  7893									;JUMPA X (X IS THE ADDRESS OF THE FIRST INSTRUCTION
  7894									;IN THE SUBTEST) TO LOOP ON ERROR^
  7895
  7896					;**********
  7897
  7898					;THIS TEST VERIFIES THAT THE RESULT OF AN EQV INSTRUCTION WHERE
  7899					;C(AC)=0 AND C(E) IS ALL ONES EXCEPT FOR A ZERO IN ONLY ONE BIT IS AN
  7900					;AC WHOSE CONTENTS IS NON-ZERO (A ONE RESULTS IN THE BIT WHERE
  7901					;E CONTAINS A ZERO).  THIS TEST IS REPEATED 36 TIMES SO THAT EACH BIT
  7902					;OF THE RESULT IS A ONE ONCE AND ONLY ONCE.  FIRST, THE AC IS
  7903					;CLEARED; THEN,EQV IS EXECUTED WITH ONE BIT OF E EQUAL TO ZERO.  THE
  7904					;RESULT IN THE AC IS THEN CHECKED FOR ITS CONTENTS NON-ZERO
  7905			010011		SN=SN+1
  7906		777777	777377			ZZ=ZZ+ZZ+1
  7907						IFE	<ZZ-1>,<ZZ=-2>
  7908	034234	200 00 0 00 070253 		MOVE	[0]		;PRESET AC TO ALL ZEROS
  7909	034235	444 00 0 00 070343 		EQV	[XWD -1,ZZ]	;*EQV WITH C(AC)=0 AND ONE BIT OF C(E)=0 SHOULD
  7910									;RESULT IN C(AC) NON-ZERO
  7911	034236	336 00 0 00 000000 		SKIPN			;PASS TEST IF C(AC) NON-ZERO
  7912						STOP^
  7913	034237	254 04 0 00 034240 		HALT	.+1		;TEST FAILED IF PROGRAM HALTS HERE
  7914	034240	324 00 0 00 034241 		JUMPA	.+1		;IF TEST FAILS, CHANGE THIS INSTRUCTION (JUMPA .+1) TO
  7915									;JUMPA X (X IS THE ADDRESS OF THE FIRST INSTRUCTION
  7916									;IN THE SUBTEST) TO LOOP ON ERROR^
  7917
  7918					;**********
  7919
DFKAA PDP-10 KL10 BASIC INSTRUCTION DIAGNOSTIC (1) VER 0,2	MACRO %53B(1254)-4 11:50 11-Nov-24 Page 29-4
DFKAA1	MAC	13-Jan-89 10:22		TEST OF BOOLEAN INSTRUCTIONS (SETM, SETZ, AND, XOR, EQV)

  7920					;THIS TEST VERIFIES THAT THE RESULT OF AN EQV INSTRUCTION WHERE
  7921					;C(AC)=0 AND C(E) IS ALL ONES EXCEPT FOR A ZERO IN ONLY ONE BIT IS AN
  7922					;AC WHOSE CONTENTS IS NON-ZERO (A ONE RESULTS IN THE BIT WHERE
  7923					;E CONTAINS A ZERO).  THIS TEST IS REPEATED 36 TIMES SO THAT EACH BIT
  7924					;OF THE RESULT IS A ONE ONCE AND ONLY ONCE.  FIRST, THE AC IS
  7925					;CLEARED; THEN,EQV IS EXECUTED WITH ONE BIT OF E EQUAL TO ZERO.  THE
  7926					;RESULT IN THE AC IS THEN CHECKED FOR ITS CONTENTS NON-ZERO
  7927			010012		SN=SN+1
  7928		777777	776777			ZZ=ZZ+ZZ+1
  7929						IFE	<ZZ-1>,<ZZ=-2>
  7930	034241	200 00 0 00 070253 		MOVE	[0]		;PRESET AC TO ALL ZEROS
  7931	034242	444 00 0 00 070344 		EQV	[XWD -1,ZZ]	;*EQV WITH C(AC)=0 AND ONE BIT OF C(E)=0 SHOULD
  7932									;RESULT IN C(AC) NON-ZERO
  7933	034243	336 00 0 00 000000 		SKIPN			;PASS TEST IF C(AC) NON-ZERO
  7934						STOP^
  7935	034244	254 04 0 00 034245 		HALT	.+1		;TEST FAILED IF PROGRAM HALTS HERE
  7936	034245	324 00 0 00 034246 		JUMPA	.+1		;IF TEST FAILS, CHANGE THIS INSTRUCTION (JUMPA .+1) TO
  7937									;JUMPA X (X IS THE ADDRESS OF THE FIRST INSTRUCTION
  7938									;IN THE SUBTEST) TO LOOP ON ERROR^
  7939
  7940					;**********
  7941
  7942					;THIS TEST VERIFIES THAT THE RESULT OF AN EQV INSTRUCTION WHERE
  7943					;C(AC)=0 AND C(E) IS ALL ONES EXCEPT FOR A ZERO IN ONLY ONE BIT IS AN
  7944					;AC WHOSE CONTENTS IS NON-ZERO (A ONE RESULTS IN THE BIT WHERE
  7945					;E CONTAINS A ZERO).  THIS TEST IS REPEATED 36 TIMES SO THAT EACH BIT
  7946					;OF THE RESULT IS A ONE ONCE AND ONLY ONCE.  FIRST, THE AC IS
  7947					;CLEARED; THEN,EQV IS EXECUTED WITH ONE BIT OF E EQUAL TO ZERO.  THE
  7948					;RESULT IN THE AC IS THEN CHECKED FOR ITS CONTENTS NON-ZERO
  7949			010013		SN=SN+1
  7950		777777	775777			ZZ=ZZ+ZZ+1
  7951						IFE	<ZZ-1>,<ZZ=-2>
  7952	034246	200 00 0 00 070253 		MOVE	[0]		;PRESET AC TO ALL ZEROS
  7953	034247	444 00 0 00 070345 		EQV	[XWD -1,ZZ]	;*EQV WITH C(AC)=0 AND ONE BIT OF C(E)=0 SHOULD
  7954									;RESULT IN C(AC) NON-ZERO
  7955	034250	336 00 0 00 000000 		SKIPN			;PASS TEST IF C(AC) NON-ZERO
  7956						STOP^
  7957	034251	254 04 0 00 034252 		HALT	.+1		;TEST FAILED IF PROGRAM HALTS HERE
  7958	034252	324 00 0 00 034253 		JUMPA	.+1		;IF TEST FAILS, CHANGE THIS INSTRUCTION (JUMPA .+1) TO
  7959									;JUMPA X (X IS THE ADDRESS OF THE FIRST INSTRUCTION
  7960									;IN THE SUBTEST) TO LOOP ON ERROR^
  7961
  7962					;**********
  7963
  7964					;THIS TEST VERIFIES THAT THE RESULT OF AN EQV INSTRUCTION WHERE
  7965					;C(AC)=0 AND C(E) IS ALL ONES EXCEPT FOR A ZERO IN ONLY ONE BIT IS AN
  7966					;AC WHOSE CONTENTS IS NON-ZERO (A ONE RESULTS IN THE BIT WHERE
  7967					;E CONTAINS A ZERO).  THIS TEST IS REPEATED 36 TIMES SO THAT EACH BIT
  7968					;OF THE RESULT IS A ONE ONCE AND ONLY ONCE.  FIRST, THE AC IS
  7969					;CLEARED; THEN,EQV IS EXECUTED WITH ONE BIT OF E EQUAL TO ZERO.  THE
  7970					;RESULT IN THE AC IS THEN CHECKED FOR ITS CONTENTS NON-ZERO
  7971			010014		SN=SN+1
  7972		777777	773777			ZZ=ZZ+ZZ+1
  7973						IFE	<ZZ-1>,<ZZ=-2>
  7974	034253	200 00 0 00 070253 		MOVE	[0]		;PRESET AC TO ALL ZEROS
DFKAA PDP-10 KL10 BASIC INSTRUCTION DIAGNOSTIC (1) VER 0,2	MACRO %53B(1254)-4 11:50 11-Nov-24 Page 29-5
DFKAA1	MAC	13-Jan-89 10:22		TEST OF BOOLEAN INSTRUCTIONS (SETM, SETZ, AND, XOR, EQV)

  7975	034254	444 00 0 00 070346 		EQV	[XWD -1,ZZ]	;*EQV WITH C(AC)=0 AND ONE BIT OF C(E)=0 SHOULD
  7976									;RESULT IN C(AC) NON-ZERO
  7977	034255	336 00 0 00 000000 		SKIPN			;PASS TEST IF C(AC) NON-ZERO
  7978						STOP^
  7979	034256	254 04 0 00 034257 		HALT	.+1		;TEST FAILED IF PROGRAM HALTS HERE
  7980	034257	324 00 0 00 034260 		JUMPA	.+1		;IF TEST FAILS, CHANGE THIS INSTRUCTION (JUMPA .+1) TO
  7981									;JUMPA X (X IS THE ADDRESS OF THE FIRST INSTRUCTION
  7982									;IN THE SUBTEST) TO LOOP ON ERROR^
  7983
  7984					;**********
  7985
  7986					;THIS TEST VERIFIES THAT THE RESULT OF AN EQV INSTRUCTION WHERE
  7987					;C(AC)=0 AND C(E) IS ALL ONES EXCEPT FOR A ZERO IN ONLY ONE BIT IS AN
  7988					;AC WHOSE CONTENTS IS NON-ZERO (A ONE RESULTS IN THE BIT WHERE
  7989					;E CONTAINS A ZERO).  THIS TEST IS REPEATED 36 TIMES SO THAT EACH BIT
  7990					;OF THE RESULT IS A ONE ONCE AND ONLY ONCE.  FIRST, THE AC IS
  7991					;CLEARED; THEN,EQV IS EXECUTED WITH ONE BIT OF E EQUAL TO ZERO.  THE
  7992					;RESULT IN THE AC IS THEN CHECKED FOR ITS CONTENTS NON-ZERO
  7993			010015		SN=SN+1
  7994		777777	767777			ZZ=ZZ+ZZ+1
  7995						IFE	<ZZ-1>,<ZZ=-2>
  7996	034260	200 00 0 00 070253 		MOVE	[0]		;PRESET AC TO ALL ZEROS
  7997	034261	444 00 0 00 070347 		EQV	[XWD -1,ZZ]	;*EQV WITH C(AC)=0 AND ONE BIT OF C(E)=0 SHOULD
  7998									;RESULT IN C(AC) NON-ZERO
  7999	034262	336 00 0 00 000000 		SKIPN			;PASS TEST IF C(AC) NON-ZERO
  8000						STOP^
  8001	034263	254 04 0 00 034264 		HALT	.+1		;TEST FAILED IF PROGRAM HALTS HERE
  8002	034264	324 00 0 00 034265 		JUMPA	.+1		;IF TEST FAILS, CHANGE THIS INSTRUCTION (JUMPA .+1) TO
  8003									;JUMPA X (X IS THE ADDRESS OF THE FIRST INSTRUCTION
  8004									;IN THE SUBTEST) TO LOOP ON ERROR^
  8005
  8006					;**********
  8007
  8008					;THIS TEST VERIFIES THAT THE RESULT OF AN EQV INSTRUCTION WHERE
  8009					;C(AC)=0 AND C(E) IS ALL ONES EXCEPT FOR A ZERO IN ONLY ONE BIT IS AN
  8010					;AC WHOSE CONTENTS IS NON-ZERO (A ONE RESULTS IN THE BIT WHERE
  8011					;E CONTAINS A ZERO).  THIS TEST IS REPEATED 36 TIMES SO THAT EACH BIT
  8012					;OF THE RESULT IS A ONE ONCE AND ONLY ONCE.  FIRST, THE AC IS
  8013					;CLEARED; THEN,EQV IS EXECUTED WITH ONE BIT OF E EQUAL TO ZERO.  THE
  8014					;RESULT IN THE AC IS THEN CHECKED FOR ITS CONTENTS NON-ZERO
  8015			010016		SN=SN+1
  8016		777777	757777			ZZ=ZZ+ZZ+1
  8017						IFE	<ZZ-1>,<ZZ=-2>
  8018	034265	200 00 0 00 070253 		MOVE	[0]		;PRESET AC TO ALL ZEROS
  8019	034266	444 00 0 00 070350 		EQV	[XWD -1,ZZ]	;*EQV WITH C(AC)=0 AND ONE BIT OF C(E)=0 SHOULD
  8020									;RESULT IN C(AC) NON-ZERO
  8021	034267	336 00 0 00 000000 		SKIPN			;PASS TEST IF C(AC) NON-ZERO
  8022						STOP^
  8023	034270	254 04 0 00 034271 		HALT	.+1		;TEST FAILED IF PROGRAM HALTS HERE
  8024	034271	324 00 0 00 034272 		JUMPA	.+1		;IF TEST FAILS, CHANGE THIS INSTRUCTION (JUMPA .+1) TO
  8025									;JUMPA X (X IS THE ADDRESS OF THE FIRST INSTRUCTION
  8026									;IN THE SUBTEST) TO LOOP ON ERROR^
  8027
  8028					;**********
  8029
DFKAA PDP-10 KL10 BASIC INSTRUCTION DIAGNOSTIC (1) VER 0,2	MACRO %53B(1254)-4 11:50 11-Nov-24 Page 29-6
DFKAA1	MAC	13-Jan-89 10:22		TEST OF BOOLEAN INSTRUCTIONS (SETM, SETZ, AND, XOR, EQV)

  8030					;THIS TEST VERIFIES THAT THE RESULT OF AN EQV INSTRUCTION WHERE
  8031					;C(AC)=0 AND C(E) IS ALL ONES EXCEPT FOR A ZERO IN ONLY ONE BIT IS AN
  8032					;AC WHOSE CONTENTS IS NON-ZERO (A ONE RESULTS IN THE BIT WHERE
  8033					;E CONTAINS A ZERO).  THIS TEST IS REPEATED 36 TIMES SO THAT EACH BIT
  8034					;OF THE RESULT IS A ONE ONCE AND ONLY ONCE.  FIRST, THE AC IS
  8035					;CLEARED; THEN,EQV IS EXECUTED WITH ONE BIT OF E EQUAL TO ZERO.  THE
  8036					;RESULT IN THE AC IS THEN CHECKED FOR ITS CONTENTS NON-ZERO
  8037			010017		SN=SN+1
  8038		777777	737777			ZZ=ZZ+ZZ+1
  8039						IFE	<ZZ-1>,<ZZ=-2>
  8040	034272	200 00 0 00 070253 		MOVE	[0]		;PRESET AC TO ALL ZEROS
  8041	034273	444 00 0 00 070351 		EQV	[XWD -1,ZZ]	;*EQV WITH C(AC)=0 AND ONE BIT OF C(E)=0 SHOULD
  8042									;RESULT IN C(AC) NON-ZERO
  8043	034274	336 00 0 00 000000 		SKIPN			;PASS TEST IF C(AC) NON-ZERO
  8044						STOP^
  8045	034275	254 04 0 00 034276 		HALT	.+1		;TEST FAILED IF PROGRAM HALTS HERE
  8046	034276	324 00 0 00 034277 		JUMPA	.+1		;IF TEST FAILS, CHANGE THIS INSTRUCTION (JUMPA .+1) TO
  8047									;JUMPA X (X IS THE ADDRESS OF THE FIRST INSTRUCTION
  8048									;IN THE SUBTEST) TO LOOP ON ERROR^
  8049
  8050					;**********
  8051
  8052					;THIS TEST VERIFIES THAT THE RESULT OF AN EQV INSTRUCTION WHERE
  8053					;C(AC)=0 AND C(E) IS ALL ONES EXCEPT FOR A ZERO IN ONLY ONE BIT IS AN
  8054					;AC WHOSE CONTENTS IS NON-ZERO (A ONE RESULTS IN THE BIT WHERE
  8055					;E CONTAINS A ZERO).  THIS TEST IS REPEATED 36 TIMES SO THAT EACH BIT
  8056					;OF THE RESULT IS A ONE ONCE AND ONLY ONCE.  FIRST, THE AC IS
  8057					;CLEARED; THEN,EQV IS EXECUTED WITH ONE BIT OF E EQUAL TO ZERO.  THE
  8058					;RESULT IN THE AC IS THEN CHECKED FOR ITS CONTENTS NON-ZERO
  8059			010020		SN=SN+1
  8060		777777	677777			ZZ=ZZ+ZZ+1
  8061						IFE	<ZZ-1>,<ZZ=-2>
  8062	034277	200 00 0 00 070253 		MOVE	[0]		;PRESET AC TO ALL ZEROS
  8063	034300	444 00 0 00 070352 		EQV	[XWD -1,ZZ]	;*EQV WITH C(AC)=0 AND ONE BIT OF C(E)=0 SHOULD
  8064									;RESULT IN C(AC) NON-ZERO
  8065	034301	336 00 0 00 000000 		SKIPN			;PASS TEST IF C(AC) NON-ZERO
  8066						STOP^
  8067	034302	254 04 0 00 034303 		HALT	.+1		;TEST FAILED IF PROGRAM HALTS HERE
  8068	034303	324 00 0 00 034304 		JUMPA	.+1		;IF TEST FAILS, CHANGE THIS INSTRUCTION (JUMPA .+1) TO
  8069									;JUMPA X (X IS THE ADDRESS OF THE FIRST INSTRUCTION
  8070									;IN THE SUBTEST) TO LOOP ON ERROR^
  8071
  8072					;**********
  8073
  8074					;THIS TEST VERIFIES THAT THE RESULT OF AN EQV INSTRUCTION WHERE
  8075					;C(AC)=0 AND C(E) IS ALL ONES EXCEPT FOR A ZERO IN ONLY ONE BIT IS AN
  8076					;AC WHOSE CONTENTS IS NON-ZERO (A ONE RESULTS IN THE BIT WHERE
  8077					;E CONTAINS A ZERO).  THIS TEST IS REPEATED 36 TIMES SO THAT EACH BIT
  8078					;OF THE RESULT IS A ONE ONCE AND ONLY ONCE.  FIRST, THE AC IS
  8079					;CLEARED; THEN,EQV IS EXECUTED WITH ONE BIT OF E EQUAL TO ZERO.  THE
  8080					;RESULT IN THE AC IS THEN CHECKED FOR ITS CONTENTS NON-ZERO
  8081			010021		SN=SN+1
  8082		777777	577777			ZZ=ZZ+ZZ+1
  8083						IFE	<ZZ-1>,<ZZ=-2>
  8084	034304	200 00 0 00 070253 		MOVE	[0]		;PRESET AC TO ALL ZEROS
DFKAA PDP-10 KL10 BASIC INSTRUCTION DIAGNOSTIC (1) VER 0,2	MACRO %53B(1254)-4 11:50 11-Nov-24 Page 29-7
DFKAA1	MAC	13-Jan-89 10:22		TEST OF BOOLEAN INSTRUCTIONS (SETM, SETZ, AND, XOR, EQV)

  8085	034305	444 00 0 00 070353 		EQV	[XWD -1,ZZ]	;*EQV WITH C(AC)=0 AND ONE BIT OF C(E)=0 SHOULD
  8086									;RESULT IN C(AC) NON-ZERO
  8087	034306	336 00 0 00 000000 		SKIPN			;PASS TEST IF C(AC) NON-ZERO
  8088						STOP^
  8089	034307	254 04 0 00 034310 		HALT	.+1		;TEST FAILED IF PROGRAM HALTS HERE
  8090	034310	324 00 0 00 034311 		JUMPA	.+1		;IF TEST FAILS, CHANGE THIS INSTRUCTION (JUMPA .+1) TO
  8091									;JUMPA X (X IS THE ADDRESS OF THE FIRST INSTRUCTION
  8092									;IN THE SUBTEST) TO LOOP ON ERROR^
  8093
  8094					;**********
  8095
  8096					;THIS TEST VERIFIES THAT THE RESULT OF AN EQV INSTRUCTION WHERE
  8097					;C(AC)=0 AND C(E) IS ALL ONES EXCEPT FOR A ZERO IN ONLY ONE BIT IS AN
  8098					;AC WHOSE CONTENTS IS NON-ZERO (A ONE RESULTS IN THE BIT WHERE
  8099					;E CONTAINS A ZERO).  THIS TEST IS REPEATED 36 TIMES SO THAT EACH BIT
  8100					;OF THE RESULT IS A ONE ONCE AND ONLY ONCE.  FIRST, THE AC IS
  8101					;CLEARED; THEN,EQV IS EXECUTED WITH ONE BIT OF E EQUAL TO ZERO.  THE
  8102					;RESULT IN THE AC IS THEN CHECKED FOR ITS CONTENTS NON-ZERO
  8103			010022		SN=SN+1
  8104		777777	377777			ZZ=ZZ+ZZ+1
  8105						IFE	<ZZ-1>,<ZZ=-2>
  8106	034311	200 00 0 00 070253 		MOVE	[0]		;PRESET AC TO ALL ZEROS
  8107	034312	444 00 0 00 070354 		EQV	[XWD -1,ZZ]	;*EQV WITH C(AC)=0 AND ONE BIT OF C(E)=0 SHOULD
  8108									;RESULT IN C(AC) NON-ZERO
  8109	034313	336 00 0 00 000000 		SKIPN			;PASS TEST IF C(AC) NON-ZERO
  8110						STOP^
  8111	034314	254 04 0 00 034315 		HALT	.+1		;TEST FAILED IF PROGRAM HALTS HERE
  8112	034315	324 00 0 00 034316 		JUMPA	.+1		;IF TEST FAILS, CHANGE THIS INSTRUCTION (JUMPA .+1) TO
  8113									;JUMPA X (X IS THE ADDRESS OF THE FIRST INSTRUCTION
  8114									;IN THE SUBTEST) TO LOOP ON ERROR^
  8115
  8116					;**********
  8117
  8118			010100		SN=10100
  8119			000000			ZZ=0
  8120
  8121					A10100:	REPEAT	^D18,
  8122					<;THIS TEST VERIFIES THAT THE RESULT OF AN EQV INSTRUCTION WHERE
  8123					;C(AC)=0 AND C(E) IS ALL ONES EXCEPT FOR A ZERO IN ONLY ONE BIT IS AN
  8124					;AC WHOSE CONTENTS IS NON-ZERO (A ONE RESULTS IN THE BIT WHERE
  8125					;E CONTAINS A ZERO).  THIS TEST IS REPEATED 36 TIMES SO THAT EACH BIT
  8126					;OF THE RESULT IS A ONE ONCE AND ONLY ONCE.  FIRST, THE AC IS
  8127					;CLEARED; THEN,EQV IS EXECUTED WITH ONE BIT OF E EQUAL TO ZERO.  THE
  8128					;RESULT IN THE AC IS THEN CHECKED FOR ITS CONTENTS NON-ZERO
  8129					SN=SN+1
  8130						ZZ=ZZ+ZZ+1
  8131						IFE	<ZZ-1>,<ZZ=-2>
  8132						MOVE	[0]		;PRESET AC TO ALL ZEROS
  8133						EQV	[XWD ZZ,-1]	;*EQV WITH C(AC)=0 AND ONE BIT OF C(E)=0 SHOULD
  8134									;RESULT IN C(AC) NON-ZERO
  8135						SKIPN			;PASS TEST IF C(AC) NON-ZERO
  8136						STOP
  8137
  8138					;**********
  8139					>
DFKAA PDP-10 KL10 BASIC INSTRUCTION DIAGNOSTIC (1) VER 0,2	MACRO %53B(1254)-4 11:50 11-Nov-24 Page 29-8
DFKAA1	MAC	13-Jan-89 10:22		TEST OF BOOLEAN INSTRUCTIONS (SETM, SETZ, AND, XOR, EQV)

  8140					;THIS TEST VERIFIES THAT THE RESULT OF AN EQV INSTRUCTION WHERE
  8141					;C(AC)=0 AND C(E) IS ALL ONES EXCEPT FOR A ZERO IN ONLY ONE BIT IS AN
  8142					;AC WHOSE CONTENTS IS NON-ZERO (A ONE RESULTS IN THE BIT WHERE
  8143					;E CONTAINS A ZERO).  THIS TEST IS REPEATED 36 TIMES SO THAT EACH BIT
  8144					;OF THE RESULT IS A ONE ONCE AND ONLY ONCE.  FIRST, THE AC IS
  8145					;CLEARED; THEN,EQV IS EXECUTED WITH ONE BIT OF E EQUAL TO ZERO.  THE
  8146					;RESULT IN THE AC IS THEN CHECKED FOR ITS CONTENTS NON-ZERO
  8147			010101		SN=SN+1
  8148			000001			ZZ=ZZ+ZZ+1
  8149		777777	777776			IFE	<ZZ-1>,<ZZ=-2>
  8150	034316	200 00 0 00 070253 		MOVE	[0]		;PRESET AC TO ALL ZEROS
  8151	034317	444 00 0 00 070355 		EQV	[XWD ZZ,-1]	;*EQV WITH C(AC)=0 AND ONE BIT OF C(E)=0 SHOULD
  8152									;RESULT IN C(AC) NON-ZERO
  8153	034320	336 00 0 00 000000 		SKIPN			;PASS TEST IF C(AC) NON-ZERO
  8154						STOP^
  8155	034321	254 04 0 00 034322 		HALT	.+1		;TEST FAILED IF PROGRAM HALTS HERE
  8156	034322	324 00 0 00 034323 		JUMPA	.+1		;IF TEST FAILS, CHANGE THIS INSTRUCTION (JUMPA .+1) TO
  8157									;JUMPA X (X IS THE ADDRESS OF THE FIRST INSTRUCTION
  8158									;IN THE SUBTEST) TO LOOP ON ERROR^
  8159
  8160					;**********
  8161
  8162					;THIS TEST VERIFIES THAT THE RESULT OF AN EQV INSTRUCTION WHERE
  8163					;C(AC)=0 AND C(E) IS ALL ONES EXCEPT FOR A ZERO IN ONLY ONE BIT IS AN
  8164					;AC WHOSE CONTENTS IS NON-ZERO (A ONE RESULTS IN THE BIT WHERE
  8165					;E CONTAINS A ZERO).  THIS TEST IS REPEATED 36 TIMES SO THAT EACH BIT
  8166					;OF THE RESULT IS A ONE ONCE AND ONLY ONCE.  FIRST, THE AC IS
  8167					;CLEARED; THEN,EQV IS EXECUTED WITH ONE BIT OF E EQUAL TO ZERO.  THE
  8168					;RESULT IN THE AC IS THEN CHECKED FOR ITS CONTENTS NON-ZERO
  8169			010102		SN=SN+1
  8170		777777	777775			ZZ=ZZ+ZZ+1
  8171						IFE	<ZZ-1>,<ZZ=-2>
  8172	034323	200 00 0 00 070253 		MOVE	[0]		;PRESET AC TO ALL ZEROS
  8173	034324	444 00 0 00 070356 		EQV	[XWD ZZ,-1]	;*EQV WITH C(AC)=0 AND ONE BIT OF C(E)=0 SHOULD
  8174									;RESULT IN C(AC) NON-ZERO
  8175	034325	336 00 0 00 000000 		SKIPN			;PASS TEST IF C(AC) NON-ZERO
  8176						STOP^
  8177	034326	254 04 0 00 034327 		HALT	.+1		;TEST FAILED IF PROGRAM HALTS HERE
  8178	034327	324 00 0 00 034330 		JUMPA	.+1		;IF TEST FAILS, CHANGE THIS INSTRUCTION (JUMPA .+1) TO
  8179									;JUMPA X (X IS THE ADDRESS OF THE FIRST INSTRUCTION
  8180									;IN THE SUBTEST) TO LOOP ON ERROR^
  8181
  8182					;**********
  8183
  8184					;THIS TEST VERIFIES THAT THE RESULT OF AN EQV INSTRUCTION WHERE
  8185					;C(AC)=0 AND C(E) IS ALL ONES EXCEPT FOR A ZERO IN ONLY ONE BIT IS AN
  8186					;AC WHOSE CONTENTS IS NON-ZERO (A ONE RESULTS IN THE BIT WHERE
  8187					;E CONTAINS A ZERO).  THIS TEST IS REPEATED 36 TIMES SO THAT EACH BIT
  8188					;OF THE RESULT IS A ONE ONCE AND ONLY ONCE.  FIRST, THE AC IS
  8189					;CLEARED; THEN,EQV IS EXECUTED WITH ONE BIT OF E EQUAL TO ZERO.  THE
  8190					;RESULT IN THE AC IS THEN CHECKED FOR ITS CONTENTS NON-ZERO
  8191			010103		SN=SN+1
  8192		777777	777773			ZZ=ZZ+ZZ+1
  8193						IFE	<ZZ-1>,<ZZ=-2>
  8194	034330	200 00 0 00 070253 		MOVE	[0]		;PRESET AC TO ALL ZEROS
DFKAA PDP-10 KL10 BASIC INSTRUCTION DIAGNOSTIC (1) VER 0,2	MACRO %53B(1254)-4 11:50 11-Nov-24 Page 29-9
DFKAA1	MAC	13-Jan-89 10:22		TEST OF BOOLEAN INSTRUCTIONS (SETM, SETZ, AND, XOR, EQV)

  8195	034331	444 00 0 00 070357 		EQV	[XWD ZZ,-1]	;*EQV WITH C(AC)=0 AND ONE BIT OF C(E)=0 SHOULD
  8196									;RESULT IN C(AC) NON-ZERO
  8197	034332	336 00 0 00 000000 		SKIPN			;PASS TEST IF C(AC) NON-ZERO
  8198						STOP^
  8199	034333	254 04 0 00 034334 		HALT	.+1		;TEST FAILED IF PROGRAM HALTS HERE
  8200	034334	324 00 0 00 034335 		JUMPA	.+1		;IF TEST FAILS, CHANGE THIS INSTRUCTION (JUMPA .+1) TO
  8201									;JUMPA X (X IS THE ADDRESS OF THE FIRST INSTRUCTION
  8202									;IN THE SUBTEST) TO LOOP ON ERROR^
  8203
  8204					;**********
  8205
  8206					;THIS TEST VERIFIES THAT THE RESULT OF AN EQV INSTRUCTION WHERE
  8207					;C(AC)=0 AND C(E) IS ALL ONES EXCEPT FOR A ZERO IN ONLY ONE BIT IS AN
  8208					;AC WHOSE CONTENTS IS NON-ZERO (A ONE RESULTS IN THE BIT WHERE
  8209					;E CONTAINS A ZERO).  THIS TEST IS REPEATED 36 TIMES SO THAT EACH BIT
  8210					;OF THE RESULT IS A ONE ONCE AND ONLY ONCE.  FIRST, THE AC IS
  8211					;CLEARED; THEN,EQV IS EXECUTED WITH ONE BIT OF E EQUAL TO ZERO.  THE
  8212					;RESULT IN THE AC IS THEN CHECKED FOR ITS CONTENTS NON-ZERO
  8213			010104		SN=SN+1
  8214		777777	777767			ZZ=ZZ+ZZ+1
  8215						IFE	<ZZ-1>,<ZZ=-2>
  8216	034335	200 00 0 00 070253 		MOVE	[0]		;PRESET AC TO ALL ZEROS
  8217	034336	444 00 0 00 070360 		EQV	[XWD ZZ,-1]	;*EQV WITH C(AC)=0 AND ONE BIT OF C(E)=0 SHOULD
  8218									;RESULT IN C(AC) NON-ZERO
  8219	034337	336 00 0 00 000000 		SKIPN			;PASS TEST IF C(AC) NON-ZERO
  8220						STOP^
  8221	034340	254 04 0 00 034341 		HALT	.+1		;TEST FAILED IF PROGRAM HALTS HERE
  8222	034341	324 00 0 00 034342 		JUMPA	.+1		;IF TEST FAILS, CHANGE THIS INSTRUCTION (JUMPA .+1) TO
  8223									;JUMPA X (X IS THE ADDRESS OF THE FIRST INSTRUCTION
  8224									;IN THE SUBTEST) TO LOOP ON ERROR^
  8225
  8226					;**********
  8227
  8228					;THIS TEST VERIFIES THAT THE RESULT OF AN EQV INSTRUCTION WHERE
  8229					;C(AC)=0 AND C(E) IS ALL ONES EXCEPT FOR A ZERO IN ONLY ONE BIT IS AN
  8230					;AC WHOSE CONTENTS IS NON-ZERO (A ONE RESULTS IN THE BIT WHERE
  8231					;E CONTAINS A ZERO).  THIS TEST IS REPEATED 36 TIMES SO THAT EACH BIT
  8232					;OF THE RESULT IS A ONE ONCE AND ONLY ONCE.  FIRST, THE AC IS
  8233					;CLEARED; THEN,EQV IS EXECUTED WITH ONE BIT OF E EQUAL TO ZERO.  THE
  8234					;RESULT IN THE AC IS THEN CHECKED FOR ITS CONTENTS NON-ZERO
  8235			010105		SN=SN+1
  8236		777777	777757			ZZ=ZZ+ZZ+1
  8237						IFE	<ZZ-1>,<ZZ=-2>
  8238	034342	200 00 0 00 070253 		MOVE	[0]		;PRESET AC TO ALL ZEROS
  8239	034343	444 00 0 00 070361 		EQV	[XWD ZZ,-1]	;*EQV WITH C(AC)=0 AND ONE BIT OF C(E)=0 SHOULD
  8240									;RESULT IN C(AC) NON-ZERO
  8241	034344	336 00 0 00 000000 		SKIPN			;PASS TEST IF C(AC) NON-ZERO
  8242						STOP^
  8243	034345	254 04 0 00 034346 		HALT	.+1		;TEST FAILED IF PROGRAM HALTS HERE
  8244	034346	324 00 0 00 034347 		JUMPA	.+1		;IF TEST FAILS, CHANGE THIS INSTRUCTION (JUMPA .+1) TO
  8245									;JUMPA X (X IS THE ADDRESS OF THE FIRST INSTRUCTION
  8246									;IN THE SUBTEST) TO LOOP ON ERROR^
  8247
  8248					;**********
  8249
DFKAA PDP-10 KL10 BASIC INSTRUCTION DIAGNOSTIC (1) VER 0,2	MACRO %53B(1254)-4 11:50 11-Nov-24 Page 29-10
DFKAA1	MAC	13-Jan-89 10:22		TEST OF BOOLEAN INSTRUCTIONS (SETM, SETZ, AND, XOR, EQV)

  8250					;THIS TEST VERIFIES THAT THE RESULT OF AN EQV INSTRUCTION WHERE
  8251					;C(AC)=0 AND C(E) IS ALL ONES EXCEPT FOR A ZERO IN ONLY ONE BIT IS AN
  8252					;AC WHOSE CONTENTS IS NON-ZERO (A ONE RESULTS IN THE BIT WHERE
  8253					;E CONTAINS A ZERO).  THIS TEST IS REPEATED 36 TIMES SO THAT EACH BIT
  8254					;OF THE RESULT IS A ONE ONCE AND ONLY ONCE.  FIRST, THE AC IS
  8255					;CLEARED; THEN,EQV IS EXECUTED WITH ONE BIT OF E EQUAL TO ZERO.  THE
  8256					;RESULT IN THE AC IS THEN CHECKED FOR ITS CONTENTS NON-ZERO
  8257			010106		SN=SN+1
  8258		777777	777737			ZZ=ZZ+ZZ+1
  8259						IFE	<ZZ-1>,<ZZ=-2>
  8260	034347	200 00 0 00 070253 		MOVE	[0]		;PRESET AC TO ALL ZEROS
  8261	034350	444 00 0 00 070362 		EQV	[XWD ZZ,-1]	;*EQV WITH C(AC)=0 AND ONE BIT OF C(E)=0 SHOULD
  8262									;RESULT IN C(AC) NON-ZERO
  8263	034351	336 00 0 00 000000 		SKIPN			;PASS TEST IF C(AC) NON-ZERO
  8264						STOP^
  8265	034352	254 04 0 00 034353 		HALT	.+1		;TEST FAILED IF PROGRAM HALTS HERE
  8266	034353	324 00 0 00 034354 		JUMPA	.+1		;IF TEST FAILS, CHANGE THIS INSTRUCTION (JUMPA .+1) TO
  8267									;JUMPA X (X IS THE ADDRESS OF THE FIRST INSTRUCTION
  8268									;IN THE SUBTEST) TO LOOP ON ERROR^
  8269
  8270					;**********
  8271
  8272					;THIS TEST VERIFIES THAT THE RESULT OF AN EQV INSTRUCTION WHERE
  8273					;C(AC)=0 AND C(E) IS ALL ONES EXCEPT FOR A ZERO IN ONLY ONE BIT IS AN
  8274					;AC WHOSE CONTENTS IS NON-ZERO (A ONE RESULTS IN THE BIT WHERE
  8275					;E CONTAINS A ZERO).  THIS TEST IS REPEATED 36 TIMES SO THAT EACH BIT
  8276					;OF THE RESULT IS A ONE ONCE AND ONLY ONCE.  FIRST, THE AC IS
  8277					;CLEARED; THEN,EQV IS EXECUTED WITH ONE BIT OF E EQUAL TO ZERO.  THE
  8278					;RESULT IN THE AC IS THEN CHECKED FOR ITS CONTENTS NON-ZERO
  8279			010107		SN=SN+1
  8280		777777	777677			ZZ=ZZ+ZZ+1
  8281						IFE	<ZZ-1>,<ZZ=-2>
  8282	034354	200 00 0 00 070253 		MOVE	[0]		;PRESET AC TO ALL ZEROS
  8283	034355	444 00 0 00 070363 		EQV	[XWD ZZ,-1]	;*EQV WITH C(AC)=0 AND ONE BIT OF C(E)=0 SHOULD
  8284									;RESULT IN C(AC) NON-ZERO
  8285	034356	336 00 0 00 000000 		SKIPN			;PASS TEST IF C(AC) NON-ZERO
  8286						STOP^
  8287	034357	254 04 0 00 034360 		HALT	.+1		;TEST FAILED IF PROGRAM HALTS HERE
  8288	034360	324 00 0 00 034361 		JUMPA	.+1		;IF TEST FAILS, CHANGE THIS INSTRUCTION (JUMPA .+1) TO
  8289									;JUMPA X (X IS THE ADDRESS OF THE FIRST INSTRUCTION
  8290									;IN THE SUBTEST) TO LOOP ON ERROR^
  8291
  8292					;**********
  8293
  8294					;THIS TEST VERIFIES THAT THE RESULT OF AN EQV INSTRUCTION WHERE
  8295					;C(AC)=0 AND C(E) IS ALL ONES EXCEPT FOR A ZERO IN ONLY ONE BIT IS AN
  8296					;AC WHOSE CONTENTS IS NON-ZERO (A ONE RESULTS IN THE BIT WHERE
  8297					;E CONTAINS A ZERO).  THIS TEST IS REPEATED 36 TIMES SO THAT EACH BIT
  8298					;OF THE RESULT IS A ONE ONCE AND ONLY ONCE.  FIRST, THE AC IS
  8299					;CLEARED; THEN,EQV IS EXECUTED WITH ONE BIT OF E EQUAL TO ZERO.  THE
  8300					;RESULT IN THE AC IS THEN CHECKED FOR ITS CONTENTS NON-ZERO
  8301			010110		SN=SN+1
  8302		777777	777577			ZZ=ZZ+ZZ+1
  8303						IFE	<ZZ-1>,<ZZ=-2>
  8304	034361	200 00 0 00 070253 		MOVE	[0]		;PRESET AC TO ALL ZEROS
DFKAA PDP-10 KL10 BASIC INSTRUCTION DIAGNOSTIC (1) VER 0,2	MACRO %53B(1254)-4 11:50 11-Nov-24 Page 29-11
DFKAA1	MAC	13-Jan-89 10:22		TEST OF BOOLEAN INSTRUCTIONS (SETM, SETZ, AND, XOR, EQV)

  8305	034362	444 00 0 00 070364 		EQV	[XWD ZZ,-1]	;*EQV WITH C(AC)=0 AND ONE BIT OF C(E)=0 SHOULD
  8306									;RESULT IN C(AC) NON-ZERO
  8307	034363	336 00 0 00 000000 		SKIPN			;PASS TEST IF C(AC) NON-ZERO
  8308						STOP^
  8309	034364	254 04 0 00 034365 		HALT	.+1		;TEST FAILED IF PROGRAM HALTS HERE
  8310	034365	324 00 0 00 034366 		JUMPA	.+1		;IF TEST FAILS, CHANGE THIS INSTRUCTION (JUMPA .+1) TO
  8311									;JUMPA X (X IS THE ADDRESS OF THE FIRST INSTRUCTION
  8312									;IN THE SUBTEST) TO LOOP ON ERROR^
  8313
  8314					;**********
  8315
  8316					;THIS TEST VERIFIES THAT THE RESULT OF AN EQV INSTRUCTION WHERE
  8317					;C(AC)=0 AND C(E) IS ALL ONES EXCEPT FOR A ZERO IN ONLY ONE BIT IS AN
  8318					;AC WHOSE CONTENTS IS NON-ZERO (A ONE RESULTS IN THE BIT WHERE
  8319					;E CONTAINS A ZERO).  THIS TEST IS REPEATED 36 TIMES SO THAT EACH BIT
  8320					;OF THE RESULT IS A ONE ONCE AND ONLY ONCE.  FIRST, THE AC IS
  8321					;CLEARED; THEN,EQV IS EXECUTED WITH ONE BIT OF E EQUAL TO ZERO.  THE
  8322					;RESULT IN THE AC IS THEN CHECKED FOR ITS CONTENTS NON-ZERO
  8323			010111		SN=SN+1
  8324		777777	777377			ZZ=ZZ+ZZ+1
  8325						IFE	<ZZ-1>,<ZZ=-2>
  8326	034366	200 00 0 00 070253 		MOVE	[0]		;PRESET AC TO ALL ZEROS
  8327	034367	444 00 0 00 070365 		EQV	[XWD ZZ,-1]	;*EQV WITH C(AC)=0 AND ONE BIT OF C(E)=0 SHOULD
  8328									;RESULT IN C(AC) NON-ZERO
  8329	034370	336 00 0 00 000000 		SKIPN			;PASS TEST IF C(AC) NON-ZERO
  8330						STOP^
  8331	034371	254 04 0 00 034372 		HALT	.+1		;TEST FAILED IF PROGRAM HALTS HERE
  8332	034372	324 00 0 00 034373 		JUMPA	.+1		;IF TEST FAILS, CHANGE THIS INSTRUCTION (JUMPA .+1) TO
  8333									;JUMPA X (X IS THE ADDRESS OF THE FIRST INSTRUCTION
  8334									;IN THE SUBTEST) TO LOOP ON ERROR^
  8335
  8336					;**********
  8337
  8338					;THIS TEST VERIFIES THAT THE RESULT OF AN EQV INSTRUCTION WHERE
  8339					;C(AC)=0 AND C(E) IS ALL ONES EXCEPT FOR A ZERO IN ONLY ONE BIT IS AN
  8340					;AC WHOSE CONTENTS IS NON-ZERO (A ONE RESULTS IN THE BIT WHERE
  8341					;E CONTAINS A ZERO).  THIS TEST IS REPEATED 36 TIMES SO THAT EACH BIT
  8342					;OF THE RESULT IS A ONE ONCE AND ONLY ONCE.  FIRST, THE AC IS
  8343					;CLEARED; THEN,EQV IS EXECUTED WITH ONE BIT OF E EQUAL TO ZERO.  THE
  8344					;RESULT IN THE AC IS THEN CHECKED FOR ITS CONTENTS NON-ZERO
  8345			010112		SN=SN+1
  8346		777777	776777			ZZ=ZZ+ZZ+1
  8347						IFE	<ZZ-1>,<ZZ=-2>
  8348	034373	200 00 0 00 070253 		MOVE	[0]		;PRESET AC TO ALL ZEROS
  8349	034374	444 00 0 00 070366 		EQV	[XWD ZZ,-1]	;*EQV WITH C(AC)=0 AND ONE BIT OF C(E)=0 SHOULD
  8350									;RESULT IN C(AC) NON-ZERO
  8351	034375	336 00 0 00 000000 		SKIPN			;PASS TEST IF C(AC) NON-ZERO
  8352						STOP^
  8353	034376	254 04 0 00 034377 		HALT	.+1		;TEST FAILED IF PROGRAM HALTS HERE
  8354	034377	324 00 0 00 034400 		JUMPA	.+1		;IF TEST FAILS, CHANGE THIS INSTRUCTION (JUMPA .+1) TO
  8355									;JUMPA X (X IS THE ADDRESS OF THE FIRST INSTRUCTION
  8356									;IN THE SUBTEST) TO LOOP ON ERROR^
  8357
  8358					;**********
  8359
DFKAA PDP-10 KL10 BASIC INSTRUCTION DIAGNOSTIC (1) VER 0,2	MACRO %53B(1254)-4 11:50 11-Nov-24 Page 29-12
DFKAA1	MAC	13-Jan-89 10:22		TEST OF BOOLEAN INSTRUCTIONS (SETM, SETZ, AND, XOR, EQV)

  8360					;THIS TEST VERIFIES THAT THE RESULT OF AN EQV INSTRUCTION WHERE
  8361					;C(AC)=0 AND C(E) IS ALL ONES EXCEPT FOR A ZERO IN ONLY ONE BIT IS AN
  8362					;AC WHOSE CONTENTS IS NON-ZERO (A ONE RESULTS IN THE BIT WHERE
  8363					;E CONTAINS A ZERO).  THIS TEST IS REPEATED 36 TIMES SO THAT EACH BIT
  8364					;OF THE RESULT IS A ONE ONCE AND ONLY ONCE.  FIRST, THE AC IS
  8365					;CLEARED; THEN,EQV IS EXECUTED WITH ONE BIT OF E EQUAL TO ZERO.  THE
  8366					;RESULT IN THE AC IS THEN CHECKED FOR ITS CONTENTS NON-ZERO
  8367			010113		SN=SN+1
  8368		777777	775777			ZZ=ZZ+ZZ+1
  8369						IFE	<ZZ-1>,<ZZ=-2>
  8370	034400	200 00 0 00 070253 		MOVE	[0]		;PRESET AC TO ALL ZEROS
  8371	034401	444 00 0 00 070367 		EQV	[XWD ZZ,-1]	;*EQV WITH C(AC)=0 AND ONE BIT OF C(E)=0 SHOULD
  8372									;RESULT IN C(AC) NON-ZERO
  8373	034402	336 00 0 00 000000 		SKIPN			;PASS TEST IF C(AC) NON-ZERO
  8374						STOP^
  8375	034403	254 04 0 00 034404 		HALT	.+1		;TEST FAILED IF PROGRAM HALTS HERE
  8376	034404	324 00 0 00 034405 		JUMPA	.+1		;IF TEST FAILS, CHANGE THIS INSTRUCTION (JUMPA .+1) TO
  8377									;JUMPA X (X IS THE ADDRESS OF THE FIRST INSTRUCTION
  8378									;IN THE SUBTEST) TO LOOP ON ERROR^
  8379
  8380					;**********
  8381
  8382					;THIS TEST VERIFIES THAT THE RESULT OF AN EQV INSTRUCTION WHERE
  8383					;C(AC)=0 AND C(E) IS ALL ONES EXCEPT FOR A ZERO IN ONLY ONE BIT IS AN
  8384					;AC WHOSE CONTENTS IS NON-ZERO (A ONE RESULTS IN THE BIT WHERE
  8385					;E CONTAINS A ZERO).  THIS TEST IS REPEATED 36 TIMES SO THAT EACH BIT
  8386					;OF THE RESULT IS A ONE ONCE AND ONLY ONCE.  FIRST, THE AC IS
  8387					;CLEARED; THEN,EQV IS EXECUTED WITH ONE BIT OF E EQUAL TO ZERO.  THE
  8388					;RESULT IN THE AC IS THEN CHECKED FOR ITS CONTENTS NON-ZERO
  8389			010114		SN=SN+1
  8390		777777	773777			ZZ=ZZ+ZZ+1
  8391						IFE	<ZZ-1>,<ZZ=-2>
  8392	034405	200 00 0 00 070253 		MOVE	[0]		;PRESET AC TO ALL ZEROS
  8393	034406	444 00 0 00 070370 		EQV	[XWD ZZ,-1]	;*EQV WITH C(AC)=0 AND ONE BIT OF C(E)=0 SHOULD
  8394									;RESULT IN C(AC) NON-ZERO
  8395	034407	336 00 0 00 000000 		SKIPN			;PASS TEST IF C(AC) NON-ZERO
  8396						STOP^
  8397	034410	254 04 0 00 034411 		HALT	.+1		;TEST FAILED IF PROGRAM HALTS HERE
  8398	034411	324 00 0 00 034412 		JUMPA	.+1		;IF TEST FAILS, CHANGE THIS INSTRUCTION (JUMPA .+1) TO
  8399									;JUMPA X (X IS THE ADDRESS OF THE FIRST INSTRUCTION
  8400									;IN THE SUBTEST) TO LOOP ON ERROR^
  8401
  8402					;**********
  8403
  8404					;THIS TEST VERIFIES THAT THE RESULT OF AN EQV INSTRUCTION WHERE
  8405					;C(AC)=0 AND C(E) IS ALL ONES EXCEPT FOR A ZERO IN ONLY ONE BIT IS AN
  8406					;AC WHOSE CONTENTS IS NON-ZERO (A ONE RESULTS IN THE BIT WHERE
  8407					;E CONTAINS A ZERO).  THIS TEST IS REPEATED 36 TIMES SO THAT EACH BIT
  8408					;OF THE RESULT IS A ONE ONCE AND ONLY ONCE.  FIRST, THE AC IS
  8409					;CLEARED; THEN,EQV IS EXECUTED WITH ONE BIT OF E EQUAL TO ZERO.  THE
  8410					;RESULT IN THE AC IS THEN CHECKED FOR ITS CONTENTS NON-ZERO
  8411			010115		SN=SN+1
  8412		777777	767777			ZZ=ZZ+ZZ+1
  8413						IFE	<ZZ-1>,<ZZ=-2>
  8414	034412	200 00 0 00 070253 		MOVE	[0]		;PRESET AC TO ALL ZEROS
DFKAA PDP-10 KL10 BASIC INSTRUCTION DIAGNOSTIC (1) VER 0,2	MACRO %53B(1254)-4 11:50 11-Nov-24 Page 29-13
DFKAA1	MAC	13-Jan-89 10:22		TEST OF BOOLEAN INSTRUCTIONS (SETM, SETZ, AND, XOR, EQV)

  8415	034413	444 00 0 00 070371 		EQV	[XWD ZZ,-1]	;*EQV WITH C(AC)=0 AND ONE BIT OF C(E)=0 SHOULD
  8416									;RESULT IN C(AC) NON-ZERO
  8417	034414	336 00 0 00 000000 		SKIPN			;PASS TEST IF C(AC) NON-ZERO
  8418						STOP^
  8419	034415	254 04 0 00 034416 		HALT	.+1		;TEST FAILED IF PROGRAM HALTS HERE
  8420	034416	324 00 0 00 034417 		JUMPA	.+1		;IF TEST FAILS, CHANGE THIS INSTRUCTION (JUMPA .+1) TO
  8421									;JUMPA X (X IS THE ADDRESS OF THE FIRST INSTRUCTION
  8422									;IN THE SUBTEST) TO LOOP ON ERROR^
  8423
  8424					;**********
  8425
  8426					;THIS TEST VERIFIES THAT THE RESULT OF AN EQV INSTRUCTION WHERE
  8427					;C(AC)=0 AND C(E) IS ALL ONES EXCEPT FOR A ZERO IN ONLY ONE BIT IS AN
  8428					;AC WHOSE CONTENTS IS NON-ZERO (A ONE RESULTS IN THE BIT WHERE
  8429					;E CONTAINS A ZERO).  THIS TEST IS REPEATED 36 TIMES SO THAT EACH BIT
  8430					;OF THE RESULT IS A ONE ONCE AND ONLY ONCE.  FIRST, THE AC IS
  8431					;CLEARED; THEN,EQV IS EXECUTED WITH ONE BIT OF E EQUAL TO ZERO.  THE
  8432					;RESULT IN THE AC IS THEN CHECKED FOR ITS CONTENTS NON-ZERO
  8433			010116		SN=SN+1
  8434		777777	757777			ZZ=ZZ+ZZ+1
  8435						IFE	<ZZ-1>,<ZZ=-2>
  8436	034417	200 00 0 00 070253 		MOVE	[0]		;PRESET AC TO ALL ZEROS
  8437	034420	444 00 0 00 070372 		EQV	[XWD ZZ,-1]	;*EQV WITH C(AC)=0 AND ONE BIT OF C(E)=0 SHOULD
  8438									;RESULT IN C(AC) NON-ZERO
  8439	034421	336 00 0 00 000000 		SKIPN			;PASS TEST IF C(AC) NON-ZERO
  8440						STOP^
  8441	034422	254 04 0 00 034423 		HALT	.+1		;TEST FAILED IF PROGRAM HALTS HERE
  8442	034423	324 00 0 00 034424 		JUMPA	.+1		;IF TEST FAILS, CHANGE THIS INSTRUCTION (JUMPA .+1) TO
  8443									;JUMPA X (X IS THE ADDRESS OF THE FIRST INSTRUCTION
  8444									;IN THE SUBTEST) TO LOOP ON ERROR^
  8445
  8446					;**********
  8447
  8448					;THIS TEST VERIFIES THAT THE RESULT OF AN EQV INSTRUCTION WHERE
  8449					;C(AC)=0 AND C(E) IS ALL ONES EXCEPT FOR A ZERO IN ONLY ONE BIT IS AN
  8450					;AC WHOSE CONTENTS IS NON-ZERO (A ONE RESULTS IN THE BIT WHERE
  8451					;E CONTAINS A ZERO).  THIS TEST IS REPEATED 36 TIMES SO THAT EACH BIT
  8452					;OF THE RESULT IS A ONE ONCE AND ONLY ONCE.  FIRST, THE AC IS
  8453					;CLEARED; THEN,EQV IS EXECUTED WITH ONE BIT OF E EQUAL TO ZERO.  THE
  8454					;RESULT IN THE AC IS THEN CHECKED FOR ITS CONTENTS NON-ZERO
  8455			010117		SN=SN+1
  8456		777777	737777			ZZ=ZZ+ZZ+1
  8457						IFE	<ZZ-1>,<ZZ=-2>
  8458	034424	200 00 0 00 070253 		MOVE	[0]		;PRESET AC TO ALL ZEROS
  8459	034425	444 00 0 00 070373 		EQV	[XWD ZZ,-1]	;*EQV WITH C(AC)=0 AND ONE BIT OF C(E)=0 SHOULD
  8460									;RESULT IN C(AC) NON-ZERO
  8461	034426	336 00 0 00 000000 		SKIPN			;PASS TEST IF C(AC) NON-ZERO
  8462						STOP^
  8463	034427	254 04 0 00 034430 		HALT	.+1		;TEST FAILED IF PROGRAM HALTS HERE
  8464	034430	324 00 0 00 034431 		JUMPA	.+1		;IF TEST FAILS, CHANGE THIS INSTRUCTION (JUMPA .+1) TO
  8465									;JUMPA X (X IS THE ADDRESS OF THE FIRST INSTRUCTION
  8466									;IN THE SUBTEST) TO LOOP ON ERROR^
  8467
  8468					;**********
  8469
DFKAA PDP-10 KL10 BASIC INSTRUCTION DIAGNOSTIC (1) VER 0,2	MACRO %53B(1254)-4 11:50 11-Nov-24 Page 29-14
DFKAA1	MAC	13-Jan-89 10:22		TEST OF BOOLEAN INSTRUCTIONS (SETM, SETZ, AND, XOR, EQV)

  8470					;THIS TEST VERIFIES THAT THE RESULT OF AN EQV INSTRUCTION WHERE
  8471					;C(AC)=0 AND C(E) IS ALL ONES EXCEPT FOR A ZERO IN ONLY ONE BIT IS AN
  8472					;AC WHOSE CONTENTS IS NON-ZERO (A ONE RESULTS IN THE BIT WHERE
  8473					;E CONTAINS A ZERO).  THIS TEST IS REPEATED 36 TIMES SO THAT EACH BIT
  8474					;OF THE RESULT IS A ONE ONCE AND ONLY ONCE.  FIRST, THE AC IS
  8475					;CLEARED; THEN,EQV IS EXECUTED WITH ONE BIT OF E EQUAL TO ZERO.  THE
  8476					;RESULT IN THE AC IS THEN CHECKED FOR ITS CONTENTS NON-ZERO
  8477			010120		SN=SN+1
  8478		777777	677777			ZZ=ZZ+ZZ+1
  8479						IFE	<ZZ-1>,<ZZ=-2>
  8480	034431	200 00 0 00 070253 		MOVE	[0]		;PRESET AC TO ALL ZEROS
  8481	034432	444 00 0 00 070374 		EQV	[XWD ZZ,-1]	;*EQV WITH C(AC)=0 AND ONE BIT OF C(E)=0 SHOULD
  8482									;RESULT IN C(AC) NON-ZERO
  8483	034433	336 00 0 00 000000 		SKIPN			;PASS TEST IF C(AC) NON-ZERO
  8484						STOP^
  8485	034434	254 04 0 00 034435 		HALT	.+1		;TEST FAILED IF PROGRAM HALTS HERE
  8486	034435	324 00 0 00 034436 		JUMPA	.+1		;IF TEST FAILS, CHANGE THIS INSTRUCTION (JUMPA .+1) TO
  8487									;JUMPA X (X IS THE ADDRESS OF THE FIRST INSTRUCTION
  8488									;IN THE SUBTEST) TO LOOP ON ERROR^
  8489
  8490					;**********
  8491
  8492					;THIS TEST VERIFIES THAT THE RESULT OF AN EQV INSTRUCTION WHERE
  8493					;C(AC)=0 AND C(E) IS ALL ONES EXCEPT FOR A ZERO IN ONLY ONE BIT IS AN
  8494					;AC WHOSE CONTENTS IS NON-ZERO (A ONE RESULTS IN THE BIT WHERE
  8495					;E CONTAINS A ZERO).  THIS TEST IS REPEATED 36 TIMES SO THAT EACH BIT
  8496					;OF THE RESULT IS A ONE ONCE AND ONLY ONCE.  FIRST, THE AC IS
  8497					;CLEARED; THEN,EQV IS EXECUTED WITH ONE BIT OF E EQUAL TO ZERO.  THE
  8498					;RESULT IN THE AC IS THEN CHECKED FOR ITS CONTENTS NON-ZERO
  8499			010121		SN=SN+1
  8500		777777	577777			ZZ=ZZ+ZZ+1
  8501						IFE	<ZZ-1>,<ZZ=-2>
  8502	034436	200 00 0 00 070253 		MOVE	[0]		;PRESET AC TO ALL ZEROS
  8503	034437	444 00 0 00 070375 		EQV	[XWD ZZ,-1]	;*EQV WITH C(AC)=0 AND ONE BIT OF C(E)=0 SHOULD
  8504									;RESULT IN C(AC) NON-ZERO
  8505	034440	336 00 0 00 000000 		SKIPN			;PASS TEST IF C(AC) NON-ZERO
  8506						STOP^
  8507	034441	254 04 0 00 034442 		HALT	.+1		;TEST FAILED IF PROGRAM HALTS HERE
  8508	034442	324 00 0 00 034443 		JUMPA	.+1		;IF TEST FAILS, CHANGE THIS INSTRUCTION (JUMPA .+1) TO
  8509									;JUMPA X (X IS THE ADDRESS OF THE FIRST INSTRUCTION
  8510									;IN THE SUBTEST) TO LOOP ON ERROR^
  8511
  8512					;**********
  8513
  8514					;THIS TEST VERIFIES THAT THE RESULT OF AN EQV INSTRUCTION WHERE
  8515					;C(AC)=0 AND C(E) IS ALL ONES EXCEPT FOR A ZERO IN ONLY ONE BIT IS AN
  8516					;AC WHOSE CONTENTS IS NON-ZERO (A ONE RESULTS IN THE BIT WHERE
  8517					;E CONTAINS A ZERO).  THIS TEST IS REPEATED 36 TIMES SO THAT EACH BIT
  8518					;OF THE RESULT IS A ONE ONCE AND ONLY ONCE.  FIRST, THE AC IS
  8519					;CLEARED; THEN,EQV IS EXECUTED WITH ONE BIT OF E EQUAL TO ZERO.  THE
  8520					;RESULT IN THE AC IS THEN CHECKED FOR ITS CONTENTS NON-ZERO
  8521			010122		SN=SN+1
  8522		777777	377777			ZZ=ZZ+ZZ+1
  8523						IFE	<ZZ-1>,<ZZ=-2>
  8524	034443	200 00 0 00 070253 		MOVE	[0]		;PRESET AC TO ALL ZEROS
DFKAA PDP-10 KL10 BASIC INSTRUCTION DIAGNOSTIC (1) VER 0,2	MACRO %53B(1254)-4 11:50 11-Nov-24 Page 29-15
DFKAA1	MAC	13-Jan-89 10:22		TEST OF BOOLEAN INSTRUCTIONS (SETM, SETZ, AND, XOR, EQV)

  8525	034444	444 00 0 00 070255 		EQV	[XWD ZZ,-1]	;*EQV WITH C(AC)=0 AND ONE BIT OF C(E)=0 SHOULD
  8526									;RESULT IN C(AC) NON-ZERO
  8527	034445	336 00 0 00 000000 		SKIPN			;PASS TEST IF C(AC) NON-ZERO
  8528						STOP^
  8529	034446	254 04 0 00 034447 		HALT	.+1		;TEST FAILED IF PROGRAM HALTS HERE
  8530	034447	324 00 0 00 034450 		JUMPA	.+1		;IF TEST FAILS, CHANGE THIS INSTRUCTION (JUMPA .+1) TO
  8531									;JUMPA X (X IS THE ADDRESS OF THE FIRST INSTRUCTION
  8532									;IN THE SUBTEST) TO LOOP ON ERROR^
  8533
  8534					;**********
  8535
DFKAA PDP-10 KL10 BASIC INSTRUCTION DIAGNOSTIC (1) VER 0,2	MACRO %53B(1254)-4 11:50 11-Nov-24 Page 30
DFKAA1	MAC	13-Jan-89 10:22		TEST OF BOOLEAN INSTRUCTIONS (SETM, SETZ, AND, XOR, EQV)

  8536					;THIS TEST VERIFIES THAT THE RESULT OF AN AC CONTAINING ALL ZEROS
  8537					;EQUIVALENCED WITH AN E CONTAINING ALL ZEROS IS AN AC CONTAINING ALL
  8538					;ONES; AND FUTHERMORE, IF THIS AC CONTAINING ALL ONES IS EQUIVALANCED
  8539					;WITH AN E CONTAINING ALL ZEROS, THE FINAL RESULT IN THE AC
  8540					;SHOULD BE ALL ZEROS.  FIRST, THE AC IS INITIALIZED TO ALL ZEROS, THEN,
  8541					;THIS AC IS EQUIVALENCED TWICE WITH AN E CONTAINING ALL ZEROS.  THE AC IS
  8542					;THEN CHECKED FOR ALL ZEROS
  8543
  8544	034450	200 00 0 00 070253 	A10200:	MOVE	[0]		;CLEAR THE AC
  8545	034451	444 00 0 00 070253 		EQV	[0]		;*EQV SHOULD RESULT IN C(AC)=ALL ONES
  8546	034452	444 00 0 00 070253 		EQV	[0]		;*EQV SHOULD RESULT IN C(AC)=0
  8547	034453	332 00 0 00 000000 		SKIPE			;PASS TEST IF C(AC)=0
  8548						STOP^
  8549	034454	254 04 0 00 034455 		HALT	.+1		;TEST FAILED IF PROGRAM HALTS HERE
  8550	034455	324 00 0 00 034456 		JUMPA	.+1		;IF TEST FAILS, CHANGE THIS INSTRUCTION (JUMPA .+1) TO
  8551									;JUMPA X (X IS THE ADDRESS OF THE FIRST INSTRUCTION
  8552									;IN THE SUBTEST) TO LOOP ON ERROR^
  8553
  8554					;**********
  8555
  8556					;THIS TEST VERIFIES THAT THE RESULT OF AN AC CONTAINING ALL ONES
  8557					;EQUIVALENCED WITH AN E CONTAINING ALL ONES IS AN AC CONTAINING ALL ONES;
  8558					;AND FUTHERMORE, IF THIS AC CONTAINING ALL ONES ISEQUIVALENCED WITH AN E
  8559					;CONTAINING ALL ZEROS, THE FINAL RESULT IN THE AC SHOULD BE ALL ZEROS.
  8560					;FIRST, THE AC IS INITIALIZED TO ALL ONES; THEN, THIS AC IS
  8561					;EQUIVALENCED WITH AN E OF ALL ONES.  NEXT, THIS SAME AC IS EQUIVALENCED
  8562					;WITH AN E OF ALL ZEROS.  THE AC IS THEN CHECKED FOR ALL ZEROS.
  8563
  8564	034456	200 00 0 00 070254 	A10300:	MOVE	[-1]		;SET C(AC) TO ALL ONES
  8565	034457	444 00 0 00 070254 		EQV	[-1]		;*EQV SHOULD RESULT IN C(AC) OF ALL ONES
  8566	034460	444 00 0 00 070253 		EQV	[0]		;*EQV SHOULD RESULT IN C(AC)=0
  8567	034461	332 00 0 00 000000 		SKIPE			;PASS TEST IF C(AC)=0
  8568						STOP^
  8569	034462	254 04 0 00 034463 		HALT	.+1		;TEST FAILED IF PROGRAM HALTS HERE
  8570	034463	324 00 0 00 034464 		JUMPA	.+1		;IF TEST FAILS, CHANGE THIS INSTRUCTION (JUMPA .+1) TO
  8571									;JUMPA X (X IS THE ADDRESS OF THE FIRST INSTRUCTION
  8572									;IN THE SUBTEST) TO LOOP ON ERROR^
  8573
  8574					;**********
DFKAA PDP-10 KL10 BASIC INSTRUCTION DIAGNOSTIC (1) VER 0,2	MACRO %53B(1254)-4 11:50 11-Nov-24 Page 31
DFKAA1	MAC	13-Jan-89 10:22		TEST OF BOOLEAN INSTRUCTIONS (SETM, SETZ, AND, XOR, EQV)

  8575			013000		SN=13000
  8576			000000			ZZ=0
  8577
  8578					A13000:	REPEAT	^D36,
  8579					<;THIS TEST CHECKS THE 'AND' INSTRUCTION AND THE ADDER ON A ONE-BIT-AT-A-TIME BASIS.
  8580					;THE AC IS LOADED WITH ALL ZEROS EXCEPT FOR ONE BIT EQUAL TO ONE; THE AC IS THEN
  8581					;ANDED WITH C(E) WHERE C(E)=C(AC).  THE NET RESULT SHOULD BE NO CHANGE TO C(AC).
  8582					;NEXT, THE AC IS EQUIVALENCED WITH C(E) WHERE C(E)=C(AC).  THIS RESULT SHOULD
  8583					;BE ALL ONES IN THE AC.  THE AC IS THEN EQUIVALENCED WITH A WORD OF ALL ZEROS,
  8584					;WHICH SHOULD RESULT IN C(AC)=0.  THE AC IS CHECKED FOR ALL ZEROS.
  8585					;IF C(AC) IS NON-ZERO, THE TEST FAILS.  THIS TEST IS REPEATED 36 TIMES TO
  8586					;RIPPLE A ONE THROUGH EVERY BIT OF THE AC.
  8587					SN=SN+1
  8588						ZZ=ZZ+ZZ
  8589						IFE	ZZ,<ZZ=1>
  8590						MOVE	[ZZ]		;SETUP AC WITH A ONE IN ONLY ONE BIT
  8591						AND	[ZZ]		;*AND FLOATING ONE WITH ITSELF SHOULD NOT CHANGE C(AC)
  8592						EQV	[ZZ]		;RESULTS IN C(AC)=ALL ONES
  8593						EQV	[0]		;RESULTS IN C(AC)=0
  8594						SKIPE			;PASS TEST IF C(AC)=0
  8595						STOP
  8596
  8597					;**********
  8598					>
  8599					;THIS TEST CHECKS THE 'AND' INSTRUCTION AND THE ADDER ON A ONE-BIT-AT-A-TIME BASIS.
  8600					;THE AC IS LOADED WITH ALL ZEROS EXCEPT FOR ONE BIT EQUAL TO ONE; THE AC IS THEN
  8601					;ANDED WITH C(E) WHERE C(E)=C(AC).  THE NET RESULT SHOULD BE NO CHANGE TO C(AC).
  8602					;NEXT, THE AC IS EQUIVALENCED WITH C(E) WHERE C(E)=C(AC).  THIS RESULT SHOULD
  8603					;BE ALL ONES IN THE AC.  THE AC IS THEN EQUIVALENCED WITH A WORD OF ALL ZEROS,
  8604					;WHICH SHOULD RESULT IN C(AC)=0.  THE AC IS CHECKED FOR ALL ZEROS.
  8605					;IF C(AC) IS NON-ZERO, THE TEST FAILS.  THIS TEST IS REPEATED 36 TIMES TO
  8606					;RIPPLE A ONE THROUGH EVERY BIT OF THE AC.
  8607			013001		SN=SN+1
  8608			000000			ZZ=ZZ+ZZ
  8609			000001			IFE	ZZ,<ZZ=1>
  8610	034464	200 00 0 00 070265 		MOVE	[ZZ]		;SETUP AC WITH A ONE IN ONLY ONE BIT
  8611	034465	404 00 0 00 070265 		AND	[ZZ]		;*AND FLOATING ONE WITH ITSELF SHOULD NOT CHANGE C(AC)
  8612	034466	444 00 0 00 070265 		EQV	[ZZ]		;RESULTS IN C(AC)=ALL ONES
  8613	034467	444 00 0 00 070253 		EQV	[0]		;RESULTS IN C(AC)=0
  8614	034470	332 00 0 00 000000 		SKIPE			;PASS TEST IF C(AC)=0
  8615						STOP^
  8616	034471	254 04 0 00 034472 		HALT	.+1		;TEST FAILED IF PROGRAM HALTS HERE
  8617	034472	324 00 0 00 034473 		JUMPA	.+1		;IF TEST FAILS, CHANGE THIS INSTRUCTION (JUMPA .+1) TO
  8618									;JUMPA X (X IS THE ADDRESS OF THE FIRST INSTRUCTION
  8619									;IN THE SUBTEST) TO LOOP ON ERROR^
  8620
  8621					;**********
  8622
  8623					;THIS TEST CHECKS THE 'AND' INSTRUCTION AND THE ADDER ON A ONE-BIT-AT-A-TIME BASIS.
  8624					;THE AC IS LOADED WITH ALL ZEROS EXCEPT FOR ONE BIT EQUAL TO ONE; THE AC IS THEN
  8625					;ANDED WITH C(E) WHERE C(E)=C(AC).  THE NET RESULT SHOULD BE NO CHANGE TO C(AC).
  8626					;NEXT, THE AC IS EQUIVALENCED WITH C(E) WHERE C(E)=C(AC).  THIS RESULT SHOULD
  8627					;BE ALL ONES IN THE AC.  THE AC IS THEN EQUIVALENCED WITH A WORD OF ALL ZEROS,
  8628					;WHICH SHOULD RESULT IN C(AC)=0.  THE AC IS CHECKED FOR ALL ZEROS.
  8629					;IF C(AC) IS NON-ZERO, THE TEST FAILS.  THIS TEST IS REPEATED 36 TIMES TO
DFKAA PDP-10 KL10 BASIC INSTRUCTION DIAGNOSTIC (1) VER 0,2	MACRO %53B(1254)-4 11:50 11-Nov-24 Page 31-1
DFKAA1	MAC	13-Jan-89 10:22		TEST OF BOOLEAN INSTRUCTIONS (SETM, SETZ, AND, XOR, EQV)

  8630					;RIPPLE A ONE THROUGH EVERY BIT OF THE AC.
  8631			013002		SN=SN+1
  8632			000002			ZZ=ZZ+ZZ
  8633						IFE	ZZ,<ZZ=1>
  8634	034473	200 00 0 00 070266 		MOVE	[ZZ]		;SETUP AC WITH A ONE IN ONLY ONE BIT
  8635	034474	404 00 0 00 070266 		AND	[ZZ]		;*AND FLOATING ONE WITH ITSELF SHOULD NOT CHANGE C(AC)
  8636	034475	444 00 0 00 070266 		EQV	[ZZ]		;RESULTS IN C(AC)=ALL ONES
  8637	034476	444 00 0 00 070253 		EQV	[0]		;RESULTS IN C(AC)=0
  8638	034477	332 00 0 00 000000 		SKIPE			;PASS TEST IF C(AC)=0
  8639						STOP^
  8640	034500	254 04 0 00 034501 		HALT	.+1		;TEST FAILED IF PROGRAM HALTS HERE
  8641	034501	324 00 0 00 034502 		JUMPA	.+1		;IF TEST FAILS, CHANGE THIS INSTRUCTION (JUMPA .+1) TO
  8642									;JUMPA X (X IS THE ADDRESS OF THE FIRST INSTRUCTION
  8643									;IN THE SUBTEST) TO LOOP ON ERROR^
  8644
  8645					;**********
  8646
  8647					;THIS TEST CHECKS THE 'AND' INSTRUCTION AND THE ADDER ON A ONE-BIT-AT-A-TIME BASIS.
  8648					;THE AC IS LOADED WITH ALL ZEROS EXCEPT FOR ONE BIT EQUAL TO ONE; THE AC IS THEN
  8649					;ANDED WITH C(E) WHERE C(E)=C(AC).  THE NET RESULT SHOULD BE NO CHANGE TO C(AC).
  8650					;NEXT, THE AC IS EQUIVALENCED WITH C(E) WHERE C(E)=C(AC).  THIS RESULT SHOULD
  8651					;BE ALL ONES IN THE AC.  THE AC IS THEN EQUIVALENCED WITH A WORD OF ALL ZEROS,
  8652					;WHICH SHOULD RESULT IN C(AC)=0.  THE AC IS CHECKED FOR ALL ZEROS.
  8653					;IF C(AC) IS NON-ZERO, THE TEST FAILS.  THIS TEST IS REPEATED 36 TIMES TO
  8654					;RIPPLE A ONE THROUGH EVERY BIT OF THE AC.
  8655			013003		SN=SN+1
  8656			000004			ZZ=ZZ+ZZ
  8657						IFE	ZZ,<ZZ=1>
  8658	034502	200 00 0 00 070267 		MOVE	[ZZ]		;SETUP AC WITH A ONE IN ONLY ONE BIT
  8659	034503	404 00 0 00 070267 		AND	[ZZ]		;*AND FLOATING ONE WITH ITSELF SHOULD NOT CHANGE C(AC)
  8660	034504	444 00 0 00 070267 		EQV	[ZZ]		;RESULTS IN C(AC)=ALL ONES
  8661	034505	444 00 0 00 070253 		EQV	[0]		;RESULTS IN C(AC)=0
  8662	034506	332 00 0 00 000000 		SKIPE			;PASS TEST IF C(AC)=0
  8663						STOP^
  8664	034507	254 04 0 00 034510 		HALT	.+1		;TEST FAILED IF PROGRAM HALTS HERE
  8665	034510	324 00 0 00 034511 		JUMPA	.+1		;IF TEST FAILS, CHANGE THIS INSTRUCTION (JUMPA .+1) TO
  8666									;JUMPA X (X IS THE ADDRESS OF THE FIRST INSTRUCTION
  8667									;IN THE SUBTEST) TO LOOP ON ERROR^
  8668
  8669					;**********
  8670
  8671					;THIS TEST CHECKS THE 'AND' INSTRUCTION AND THE ADDER ON A ONE-BIT-AT-A-TIME BASIS.
  8672					;THE AC IS LOADED WITH ALL ZEROS EXCEPT FOR ONE BIT EQUAL TO ONE; THE AC IS THEN
  8673					;ANDED WITH C(E) WHERE C(E)=C(AC).  THE NET RESULT SHOULD BE NO CHANGE TO C(AC).
  8674					;NEXT, THE AC IS EQUIVALENCED WITH C(E) WHERE C(E)=C(AC).  THIS RESULT SHOULD
  8675					;BE ALL ONES IN THE AC.  THE AC IS THEN EQUIVALENCED WITH A WORD OF ALL ZEROS,
  8676					;WHICH SHOULD RESULT IN C(AC)=0.  THE AC IS CHECKED FOR ALL ZEROS.
  8677					;IF C(AC) IS NON-ZERO, THE TEST FAILS.  THIS TEST IS REPEATED 36 TIMES TO
  8678					;RIPPLE A ONE THROUGH EVERY BIT OF THE AC.
  8679			013004		SN=SN+1
  8680			000010			ZZ=ZZ+ZZ
  8681						IFE	ZZ,<ZZ=1>
  8682	034511	200 00 0 00 070270 		MOVE	[ZZ]		;SETUP AC WITH A ONE IN ONLY ONE BIT
  8683	034512	404 00 0 00 070270 		AND	[ZZ]		;*AND FLOATING ONE WITH ITSELF SHOULD NOT CHANGE C(AC)
  8684	034513	444 00 0 00 070270 		EQV	[ZZ]		;RESULTS IN C(AC)=ALL ONES
DFKAA PDP-10 KL10 BASIC INSTRUCTION DIAGNOSTIC (1) VER 0,2	MACRO %53B(1254)-4 11:50 11-Nov-24 Page 31-2
DFKAA1	MAC	13-Jan-89 10:22		TEST OF BOOLEAN INSTRUCTIONS (SETM, SETZ, AND, XOR, EQV)

  8685	034514	444 00 0 00 070253 		EQV	[0]		;RESULTS IN C(AC)=0
  8686	034515	332 00 0 00 000000 		SKIPE			;PASS TEST IF C(AC)=0
  8687						STOP^
  8688	034516	254 04 0 00 034517 		HALT	.+1		;TEST FAILED IF PROGRAM HALTS HERE
  8689	034517	324 00 0 00 034520 		JUMPA	.+1		;IF TEST FAILS, CHANGE THIS INSTRUCTION (JUMPA .+1) TO
  8690									;JUMPA X (X IS THE ADDRESS OF THE FIRST INSTRUCTION
  8691									;IN THE SUBTEST) TO LOOP ON ERROR^
  8692
  8693					;**********
  8694
  8695					;THIS TEST CHECKS THE 'AND' INSTRUCTION AND THE ADDER ON A ONE-BIT-AT-A-TIME BASIS.
  8696					;THE AC IS LOADED WITH ALL ZEROS EXCEPT FOR ONE BIT EQUAL TO ONE; THE AC IS THEN
  8697					;ANDED WITH C(E) WHERE C(E)=C(AC).  THE NET RESULT SHOULD BE NO CHANGE TO C(AC).
  8698					;NEXT, THE AC IS EQUIVALENCED WITH C(E) WHERE C(E)=C(AC).  THIS RESULT SHOULD
  8699					;BE ALL ONES IN THE AC.  THE AC IS THEN EQUIVALENCED WITH A WORD OF ALL ZEROS,
  8700					;WHICH SHOULD RESULT IN C(AC)=0.  THE AC IS CHECKED FOR ALL ZEROS.
  8701					;IF C(AC) IS NON-ZERO, THE TEST FAILS.  THIS TEST IS REPEATED 36 TIMES TO
  8702					;RIPPLE A ONE THROUGH EVERY BIT OF THE AC.
  8703			013005		SN=SN+1
  8704			000020			ZZ=ZZ+ZZ
  8705						IFE	ZZ,<ZZ=1>
  8706	034520	200 00 0 00 070271 		MOVE	[ZZ]		;SETUP AC WITH A ONE IN ONLY ONE BIT
  8707	034521	404 00 0 00 070271 		AND	[ZZ]		;*AND FLOATING ONE WITH ITSELF SHOULD NOT CHANGE C(AC)
  8708	034522	444 00 0 00 070271 		EQV	[ZZ]		;RESULTS IN C(AC)=ALL ONES
  8709	034523	444 00 0 00 070253 		EQV	[0]		;RESULTS IN C(AC)=0
  8710	034524	332 00 0 00 000000 		SKIPE			;PASS TEST IF C(AC)=0
  8711						STOP^
  8712	034525	254 04 0 00 034526 		HALT	.+1		;TEST FAILED IF PROGRAM HALTS HERE
  8713	034526	324 00 0 00 034527 		JUMPA	.+1		;IF TEST FAILS, CHANGE THIS INSTRUCTION (JUMPA .+1) TO
  8714									;JUMPA X (X IS THE ADDRESS OF THE FIRST INSTRUCTION
  8715									;IN THE SUBTEST) TO LOOP ON ERROR^
  8716
  8717					;**********
  8718
  8719					;THIS TEST CHECKS THE 'AND' INSTRUCTION AND THE ADDER ON A ONE-BIT-AT-A-TIME BASIS.
  8720					;THE AC IS LOADED WITH ALL ZEROS EXCEPT FOR ONE BIT EQUAL TO ONE; THE AC IS THEN
  8721					;ANDED WITH C(E) WHERE C(E)=C(AC).  THE NET RESULT SHOULD BE NO CHANGE TO C(AC).
  8722					;NEXT, THE AC IS EQUIVALENCED WITH C(E) WHERE C(E)=C(AC).  THIS RESULT SHOULD
  8723					;BE ALL ONES IN THE AC.  THE AC IS THEN EQUIVALENCED WITH A WORD OF ALL ZEROS,
  8724					;WHICH SHOULD RESULT IN C(AC)=0.  THE AC IS CHECKED FOR ALL ZEROS.
  8725					;IF C(AC) IS NON-ZERO, THE TEST FAILS.  THIS TEST IS REPEATED 36 TIMES TO
  8726					;RIPPLE A ONE THROUGH EVERY BIT OF THE AC.
  8727			013006		SN=SN+1
  8728			000040			ZZ=ZZ+ZZ
  8729						IFE	ZZ,<ZZ=1>
  8730	034527	200 00 0 00 070272 		MOVE	[ZZ]		;SETUP AC WITH A ONE IN ONLY ONE BIT
  8731	034530	404 00 0 00 070272 		AND	[ZZ]		;*AND FLOATING ONE WITH ITSELF SHOULD NOT CHANGE C(AC)
  8732	034531	444 00 0 00 070272 		EQV	[ZZ]		;RESULTS IN C(AC)=ALL ONES
  8733	034532	444 00 0 00 070253 		EQV	[0]		;RESULTS IN C(AC)=0
  8734	034533	332 00 0 00 000000 		SKIPE			;PASS TEST IF C(AC)=0
  8735						STOP^
  8736	034534	254 04 0 00 034535 		HALT	.+1		;TEST FAILED IF PROGRAM HALTS HERE
  8737	034535	324 00 0 00 034536 		JUMPA	.+1		;IF TEST FAILS, CHANGE THIS INSTRUCTION (JUMPA .+1) TO
  8738									;JUMPA X (X IS THE ADDRESS OF THE FIRST INSTRUCTION
  8739									;IN THE SUBTEST) TO LOOP ON ERROR^
DFKAA PDP-10 KL10 BASIC INSTRUCTION DIAGNOSTIC (1) VER 0,2	MACRO %53B(1254)-4 11:50 11-Nov-24 Page 31-3
DFKAA1	MAC	13-Jan-89 10:22		TEST OF BOOLEAN INSTRUCTIONS (SETM, SETZ, AND, XOR, EQV)

  8740
  8741					;**********
  8742
  8743					;THIS TEST CHECKS THE 'AND' INSTRUCTION AND THE ADDER ON A ONE-BIT-AT-A-TIME BASIS.
  8744					;THE AC IS LOADED WITH ALL ZEROS EXCEPT FOR ONE BIT EQUAL TO ONE; THE AC IS THEN
  8745					;ANDED WITH C(E) WHERE C(E)=C(AC).  THE NET RESULT SHOULD BE NO CHANGE TO C(AC).
  8746					;NEXT, THE AC IS EQUIVALENCED WITH C(E) WHERE C(E)=C(AC).  THIS RESULT SHOULD
  8747					;BE ALL ONES IN THE AC.  THE AC IS THEN EQUIVALENCED WITH A WORD OF ALL ZEROS,
  8748					;WHICH SHOULD RESULT IN C(AC)=0.  THE AC IS CHECKED FOR ALL ZEROS.
  8749					;IF C(AC) IS NON-ZERO, THE TEST FAILS.  THIS TEST IS REPEATED 36 TIMES TO
  8750					;RIPPLE A ONE THROUGH EVERY BIT OF THE AC.
  8751			013007		SN=SN+1
  8752			000100			ZZ=ZZ+ZZ
  8753						IFE	ZZ,<ZZ=1>
  8754	034536	200 00 0 00 070273 		MOVE	[ZZ]		;SETUP AC WITH A ONE IN ONLY ONE BIT
  8755	034537	404 00 0 00 070273 		AND	[ZZ]		;*AND FLOATING ONE WITH ITSELF SHOULD NOT CHANGE C(AC)
  8756	034540	444 00 0 00 070273 		EQV	[ZZ]		;RESULTS IN C(AC)=ALL ONES
  8757	034541	444 00 0 00 070253 		EQV	[0]		;RESULTS IN C(AC)=0
  8758	034542	332 00 0 00 000000 		SKIPE			;PASS TEST IF C(AC)=0
  8759						STOP^
  8760	034543	254 04 0 00 034544 		HALT	.+1		;TEST FAILED IF PROGRAM HALTS HERE
  8761	034544	324 00 0 00 034545 		JUMPA	.+1		;IF TEST FAILS, CHANGE THIS INSTRUCTION (JUMPA .+1) TO
  8762									;JUMPA X (X IS THE ADDRESS OF THE FIRST INSTRUCTION
  8763									;IN THE SUBTEST) TO LOOP ON ERROR^
  8764
  8765					;**********
  8766
  8767					;THIS TEST CHECKS THE 'AND' INSTRUCTION AND THE ADDER ON A ONE-BIT-AT-A-TIME BASIS.
  8768					;THE AC IS LOADED WITH ALL ZEROS EXCEPT FOR ONE BIT EQUAL TO ONE; THE AC IS THEN
  8769					;ANDED WITH C(E) WHERE C(E)=C(AC).  THE NET RESULT SHOULD BE NO CHANGE TO C(AC).
  8770					;NEXT, THE AC IS EQUIVALENCED WITH C(E) WHERE C(E)=C(AC).  THIS RESULT SHOULD
  8771					;BE ALL ONES IN THE AC.  THE AC IS THEN EQUIVALENCED WITH A WORD OF ALL ZEROS,
  8772					;WHICH SHOULD RESULT IN C(AC)=0.  THE AC IS CHECKED FOR ALL ZEROS.
  8773					;IF C(AC) IS NON-ZERO, THE TEST FAILS.  THIS TEST IS REPEATED 36 TIMES TO
  8774					;RIPPLE A ONE THROUGH EVERY BIT OF THE AC.
  8775			013010		SN=SN+1
  8776			000200			ZZ=ZZ+ZZ
  8777						IFE	ZZ,<ZZ=1>
  8778	034545	200 00 0 00 070274 		MOVE	[ZZ]		;SETUP AC WITH A ONE IN ONLY ONE BIT
  8779	034546	404 00 0 00 070274 		AND	[ZZ]		;*AND FLOATING ONE WITH ITSELF SHOULD NOT CHANGE C(AC)
  8780	034547	444 00 0 00 070274 		EQV	[ZZ]		;RESULTS IN C(AC)=ALL ONES
  8781	034550	444 00 0 00 070253 		EQV	[0]		;RESULTS IN C(AC)=0
  8782	034551	332 00 0 00 000000 		SKIPE			;PASS TEST IF C(AC)=0
  8783						STOP^
  8784	034552	254 04 0 00 034553 		HALT	.+1		;TEST FAILED IF PROGRAM HALTS HERE
  8785	034553	324 00 0 00 034554 		JUMPA	.+1		;IF TEST FAILS, CHANGE THIS INSTRUCTION (JUMPA .+1) TO
  8786									;JUMPA X (X IS THE ADDRESS OF THE FIRST INSTRUCTION
  8787									;IN THE SUBTEST) TO LOOP ON ERROR^
  8788
  8789					;**********
  8790
  8791					;THIS TEST CHECKS THE 'AND' INSTRUCTION AND THE ADDER ON A ONE-BIT-AT-A-TIME BASIS.
  8792					;THE AC IS LOADED WITH ALL ZEROS EXCEPT FOR ONE BIT EQUAL TO ONE; THE AC IS THEN
  8793					;ANDED WITH C(E) WHERE C(E)=C(AC).  THE NET RESULT SHOULD BE NO CHANGE TO C(AC).
  8794					;NEXT, THE AC IS EQUIVALENCED WITH C(E) WHERE C(E)=C(AC).  THIS RESULT SHOULD
DFKAA PDP-10 KL10 BASIC INSTRUCTION DIAGNOSTIC (1) VER 0,2	MACRO %53B(1254)-4 11:50 11-Nov-24 Page 31-4
DFKAA1	MAC	13-Jan-89 10:22		TEST OF BOOLEAN INSTRUCTIONS (SETM, SETZ, AND, XOR, EQV)

  8795					;BE ALL ONES IN THE AC.  THE AC IS THEN EQUIVALENCED WITH A WORD OF ALL ZEROS,
  8796					;WHICH SHOULD RESULT IN C(AC)=0.  THE AC IS CHECKED FOR ALL ZEROS.
  8797					;IF C(AC) IS NON-ZERO, THE TEST FAILS.  THIS TEST IS REPEATED 36 TIMES TO
  8798					;RIPPLE A ONE THROUGH EVERY BIT OF THE AC.
  8799			013011		SN=SN+1
  8800			000400			ZZ=ZZ+ZZ
  8801						IFE	ZZ,<ZZ=1>
  8802	034554	200 00 0 00 070275 		MOVE	[ZZ]		;SETUP AC WITH A ONE IN ONLY ONE BIT
  8803	034555	404 00 0 00 070275 		AND	[ZZ]		;*AND FLOATING ONE WITH ITSELF SHOULD NOT CHANGE C(AC)
  8804	034556	444 00 0 00 070275 		EQV	[ZZ]		;RESULTS IN C(AC)=ALL ONES
  8805	034557	444 00 0 00 070253 		EQV	[0]		;RESULTS IN C(AC)=0
  8806	034560	332 00 0 00 000000 		SKIPE			;PASS TEST IF C(AC)=0
  8807						STOP^
  8808	034561	254 04 0 00 034562 		HALT	.+1		;TEST FAILED IF PROGRAM HALTS HERE
  8809	034562	324 00 0 00 034563 		JUMPA	.+1		;IF TEST FAILS, CHANGE THIS INSTRUCTION (JUMPA .+1) TO
  8810									;JUMPA X (X IS THE ADDRESS OF THE FIRST INSTRUCTION
  8811									;IN THE SUBTEST) TO LOOP ON ERROR^
  8812
  8813					;**********
  8814
  8815					;THIS TEST CHECKS THE 'AND' INSTRUCTION AND THE ADDER ON A ONE-BIT-AT-A-TIME BASIS.
  8816					;THE AC IS LOADED WITH ALL ZEROS EXCEPT FOR ONE BIT EQUAL TO ONE; THE AC IS THEN
  8817					;ANDED WITH C(E) WHERE C(E)=C(AC).  THE NET RESULT SHOULD BE NO CHANGE TO C(AC).
  8818					;NEXT, THE AC IS EQUIVALENCED WITH C(E) WHERE C(E)=C(AC).  THIS RESULT SHOULD
  8819					;BE ALL ONES IN THE AC.  THE AC IS THEN EQUIVALENCED WITH A WORD OF ALL ZEROS,
  8820					;WHICH SHOULD RESULT IN C(AC)=0.  THE AC IS CHECKED FOR ALL ZEROS.
  8821					;IF C(AC) IS NON-ZERO, THE TEST FAILS.  THIS TEST IS REPEATED 36 TIMES TO
  8822					;RIPPLE A ONE THROUGH EVERY BIT OF THE AC.
  8823			013012		SN=SN+1
  8824			001000			ZZ=ZZ+ZZ
  8825						IFE	ZZ,<ZZ=1>
  8826	034563	200 00 0 00 070276 		MOVE	[ZZ]		;SETUP AC WITH A ONE IN ONLY ONE BIT
  8827	034564	404 00 0 00 070276 		AND	[ZZ]		;*AND FLOATING ONE WITH ITSELF SHOULD NOT CHANGE C(AC)
  8828	034565	444 00 0 00 070276 		EQV	[ZZ]		;RESULTS IN C(AC)=ALL ONES
  8829	034566	444 00 0 00 070253 		EQV	[0]		;RESULTS IN C(AC)=0
  8830	034567	332 00 0 00 000000 		SKIPE			;PASS TEST IF C(AC)=0
  8831						STOP^
  8832	034570	254 04 0 00 034571 		HALT	.+1		;TEST FAILED IF PROGRAM HALTS HERE
  8833	034571	324 00 0 00 034572 		JUMPA	.+1		;IF TEST FAILS, CHANGE THIS INSTRUCTION (JUMPA .+1) TO
  8834									;JUMPA X (X IS THE ADDRESS OF THE FIRST INSTRUCTION
  8835									;IN THE SUBTEST) TO LOOP ON ERROR^
  8836
  8837					;**********
  8838
  8839					;THIS TEST CHECKS THE 'AND' INSTRUCTION AND THE ADDER ON A ONE-BIT-AT-A-TIME BASIS.
  8840					;THE AC IS LOADED WITH ALL ZEROS EXCEPT FOR ONE BIT EQUAL TO ONE; THE AC IS THEN
  8841					;ANDED WITH C(E) WHERE C(E)=C(AC).  THE NET RESULT SHOULD BE NO CHANGE TO C(AC).
  8842					;NEXT, THE AC IS EQUIVALENCED WITH C(E) WHERE C(E)=C(AC).  THIS RESULT SHOULD
  8843					;BE ALL ONES IN THE AC.  THE AC IS THEN EQUIVALENCED WITH A WORD OF ALL ZEROS,
  8844					;WHICH SHOULD RESULT IN C(AC)=0.  THE AC IS CHECKED FOR ALL ZEROS.
  8845					;IF C(AC) IS NON-ZERO, THE TEST FAILS.  THIS TEST IS REPEATED 36 TIMES TO
  8846					;RIPPLE A ONE THROUGH EVERY BIT OF THE AC.
  8847			013013		SN=SN+1
  8848			002000			ZZ=ZZ+ZZ
  8849						IFE	ZZ,<ZZ=1>
DFKAA PDP-10 KL10 BASIC INSTRUCTION DIAGNOSTIC (1) VER 0,2	MACRO %53B(1254)-4 11:50 11-Nov-24 Page 31-5
DFKAA1	MAC	13-Jan-89 10:22		TEST OF BOOLEAN INSTRUCTIONS (SETM, SETZ, AND, XOR, EQV)

  8850	034572	200 00 0 00 070277 		MOVE	[ZZ]		;SETUP AC WITH A ONE IN ONLY ONE BIT
  8851	034573	404 00 0 00 070277 		AND	[ZZ]		;*AND FLOATING ONE WITH ITSELF SHOULD NOT CHANGE C(AC)
  8852	034574	444 00 0 00 070277 		EQV	[ZZ]		;RESULTS IN C(AC)=ALL ONES
  8853	034575	444 00 0 00 070253 		EQV	[0]		;RESULTS IN C(AC)=0
  8854	034576	332 00 0 00 000000 		SKIPE			;PASS TEST IF C(AC)=0
  8855						STOP^
  8856	034577	254 04 0 00 034600 		HALT	.+1		;TEST FAILED IF PROGRAM HALTS HERE
  8857	034600	324 00 0 00 034601 		JUMPA	.+1		;IF TEST FAILS, CHANGE THIS INSTRUCTION (JUMPA .+1) TO
  8858									;JUMPA X (X IS THE ADDRESS OF THE FIRST INSTRUCTION
  8859									;IN THE SUBTEST) TO LOOP ON ERROR^
  8860
  8861					;**********
  8862
  8863					;THIS TEST CHECKS THE 'AND' INSTRUCTION AND THE ADDER ON A ONE-BIT-AT-A-TIME BASIS.
  8864					;THE AC IS LOADED WITH ALL ZEROS EXCEPT FOR ONE BIT EQUAL TO ONE; THE AC IS THEN
  8865					;ANDED WITH C(E) WHERE C(E)=C(AC).  THE NET RESULT SHOULD BE NO CHANGE TO C(AC).
  8866					;NEXT, THE AC IS EQUIVALENCED WITH C(E) WHERE C(E)=C(AC).  THIS RESULT SHOULD
  8867					;BE ALL ONES IN THE AC.  THE AC IS THEN EQUIVALENCED WITH A WORD OF ALL ZEROS,
  8868					;WHICH SHOULD RESULT IN C(AC)=0.  THE AC IS CHECKED FOR ALL ZEROS.
  8869					;IF C(AC) IS NON-ZERO, THE TEST FAILS.  THIS TEST IS REPEATED 36 TIMES TO
  8870					;RIPPLE A ONE THROUGH EVERY BIT OF THE AC.
  8871			013014		SN=SN+1
  8872			004000			ZZ=ZZ+ZZ
  8873						IFE	ZZ,<ZZ=1>
  8874	034601	200 00 0 00 070300 		MOVE	[ZZ]		;SETUP AC WITH A ONE IN ONLY ONE BIT
  8875	034602	404 00 0 00 070300 		AND	[ZZ]		;*AND FLOATING ONE WITH ITSELF SHOULD NOT CHANGE C(AC)
  8876	034603	444 00 0 00 070300 		EQV	[ZZ]		;RESULTS IN C(AC)=ALL ONES
  8877	034604	444 00 0 00 070253 		EQV	[0]		;RESULTS IN C(AC)=0
  8878	034605	332 00 0 00 000000 		SKIPE			;PASS TEST IF C(AC)=0
  8879						STOP^
  8880	034606	254 04 0 00 034607 		HALT	.+1		;TEST FAILED IF PROGRAM HALTS HERE
  8881	034607	324 00 0 00 034610 		JUMPA	.+1		;IF TEST FAILS, CHANGE THIS INSTRUCTION (JUMPA .+1) TO
  8882									;JUMPA X (X IS THE ADDRESS OF THE FIRST INSTRUCTION
  8883									;IN THE SUBTEST) TO LOOP ON ERROR^
  8884
  8885					;**********
  8886
  8887					;THIS TEST CHECKS THE 'AND' INSTRUCTION AND THE ADDER ON A ONE-BIT-AT-A-TIME BASIS.
  8888					;THE AC IS LOADED WITH ALL ZEROS EXCEPT FOR ONE BIT EQUAL TO ONE; THE AC IS THEN
  8889					;ANDED WITH C(E) WHERE C(E)=C(AC).  THE NET RESULT SHOULD BE NO CHANGE TO C(AC).
  8890					;NEXT, THE AC IS EQUIVALENCED WITH C(E) WHERE C(E)=C(AC).  THIS RESULT SHOULD
  8891					;BE ALL ONES IN THE AC.  THE AC IS THEN EQUIVALENCED WITH A WORD OF ALL ZEROS,
  8892					;WHICH SHOULD RESULT IN C(AC)=0.  THE AC IS CHECKED FOR ALL ZEROS.
  8893					;IF C(AC) IS NON-ZERO, THE TEST FAILS.  THIS TEST IS REPEATED 36 TIMES TO
  8894					;RIPPLE A ONE THROUGH EVERY BIT OF THE AC.
  8895			013015		SN=SN+1
  8896			010000			ZZ=ZZ+ZZ
  8897						IFE	ZZ,<ZZ=1>
  8898	034610	200 00 0 00 070301 		MOVE	[ZZ]		;SETUP AC WITH A ONE IN ONLY ONE BIT
  8899	034611	404 00 0 00 070301 		AND	[ZZ]		;*AND FLOATING ONE WITH ITSELF SHOULD NOT CHANGE C(AC)
  8900	034612	444 00 0 00 070301 		EQV	[ZZ]		;RESULTS IN C(AC)=ALL ONES
  8901	034613	444 00 0 00 070253 		EQV	[0]		;RESULTS IN C(AC)=0
  8902	034614	332 00 0 00 000000 		SKIPE			;PASS TEST IF C(AC)=0
  8903						STOP^
  8904	034615	254 04 0 00 034616 		HALT	.+1		;TEST FAILED IF PROGRAM HALTS HERE
DFKAA PDP-10 KL10 BASIC INSTRUCTION DIAGNOSTIC (1) VER 0,2	MACRO %53B(1254)-4 11:50 11-Nov-24 Page 31-6
DFKAA1	MAC	13-Jan-89 10:22		TEST OF BOOLEAN INSTRUCTIONS (SETM, SETZ, AND, XOR, EQV)

  8905	034616	324 00 0 00 034617 		JUMPA	.+1		;IF TEST FAILS, CHANGE THIS INSTRUCTION (JUMPA .+1) TO
  8906									;JUMPA X (X IS THE ADDRESS OF THE FIRST INSTRUCTION
  8907									;IN THE SUBTEST) TO LOOP ON ERROR^
  8908
  8909					;**********
  8910
  8911					;THIS TEST CHECKS THE 'AND' INSTRUCTION AND THE ADDER ON A ONE-BIT-AT-A-TIME BASIS.
  8912					;THE AC IS LOADED WITH ALL ZEROS EXCEPT FOR ONE BIT EQUAL TO ONE; THE AC IS THEN
  8913					;ANDED WITH C(E) WHERE C(E)=C(AC).  THE NET RESULT SHOULD BE NO CHANGE TO C(AC).
  8914					;NEXT, THE AC IS EQUIVALENCED WITH C(E) WHERE C(E)=C(AC).  THIS RESULT SHOULD
  8915					;BE ALL ONES IN THE AC.  THE AC IS THEN EQUIVALENCED WITH A WORD OF ALL ZEROS,
  8916					;WHICH SHOULD RESULT IN C(AC)=0.  THE AC IS CHECKED FOR ALL ZEROS.
  8917					;IF C(AC) IS NON-ZERO, THE TEST FAILS.  THIS TEST IS REPEATED 36 TIMES TO
  8918					;RIPPLE A ONE THROUGH EVERY BIT OF THE AC.
  8919			013016		SN=SN+1
  8920			020000			ZZ=ZZ+ZZ
  8921						IFE	ZZ,<ZZ=1>
  8922	034617	200 00 0 00 070302 		MOVE	[ZZ]		;SETUP AC WITH A ONE IN ONLY ONE BIT
  8923	034620	404 00 0 00 070302 		AND	[ZZ]		;*AND FLOATING ONE WITH ITSELF SHOULD NOT CHANGE C(AC)
  8924	034621	444 00 0 00 070302 		EQV	[ZZ]		;RESULTS IN C(AC)=ALL ONES
  8925	034622	444 00 0 00 070253 		EQV	[0]		;RESULTS IN C(AC)=0
  8926	034623	332 00 0 00 000000 		SKIPE			;PASS TEST IF C(AC)=0
  8927						STOP^
  8928	034624	254 04 0 00 034625 		HALT	.+1		;TEST FAILED IF PROGRAM HALTS HERE
  8929	034625	324 00 0 00 034626 		JUMPA	.+1		;IF TEST FAILS, CHANGE THIS INSTRUCTION (JUMPA .+1) TO
  8930									;JUMPA X (X IS THE ADDRESS OF THE FIRST INSTRUCTION
  8931									;IN THE SUBTEST) TO LOOP ON ERROR^
  8932
  8933					;**********
  8934
  8935					;THIS TEST CHECKS THE 'AND' INSTRUCTION AND THE ADDER ON A ONE-BIT-AT-A-TIME BASIS.
  8936					;THE AC IS LOADED WITH ALL ZEROS EXCEPT FOR ONE BIT EQUAL TO ONE; THE AC IS THEN
  8937					;ANDED WITH C(E) WHERE C(E)=C(AC).  THE NET RESULT SHOULD BE NO CHANGE TO C(AC).
  8938					;NEXT, THE AC IS EQUIVALENCED WITH C(E) WHERE C(E)=C(AC).  THIS RESULT SHOULD
  8939					;BE ALL ONES IN THE AC.  THE AC IS THEN EQUIVALENCED WITH A WORD OF ALL ZEROS,
  8940					;WHICH SHOULD RESULT IN C(AC)=0.  THE AC IS CHECKED FOR ALL ZEROS.
  8941					;IF C(AC) IS NON-ZERO, THE TEST FAILS.  THIS TEST IS REPEATED 36 TIMES TO
  8942					;RIPPLE A ONE THROUGH EVERY BIT OF THE AC.
  8943			013017		SN=SN+1
  8944			040000			ZZ=ZZ+ZZ
  8945						IFE	ZZ,<ZZ=1>
  8946	034626	200 00 0 00 070303 		MOVE	[ZZ]		;SETUP AC WITH A ONE IN ONLY ONE BIT
  8947	034627	404 00 0 00 070303 		AND	[ZZ]		;*AND FLOATING ONE WITH ITSELF SHOULD NOT CHANGE C(AC)
  8948	034630	444 00 0 00 070303 		EQV	[ZZ]		;RESULTS IN C(AC)=ALL ONES
  8949	034631	444 00 0 00 070253 		EQV	[0]		;RESULTS IN C(AC)=0
  8950	034632	332 00 0 00 000000 		SKIPE			;PASS TEST IF C(AC)=0
  8951						STOP^
  8952	034633	254 04 0 00 034634 		HALT	.+1		;TEST FAILED IF PROGRAM HALTS HERE
  8953	034634	324 00 0 00 034635 		JUMPA	.+1		;IF TEST FAILS, CHANGE THIS INSTRUCTION (JUMPA .+1) TO
  8954									;JUMPA X (X IS THE ADDRESS OF THE FIRST INSTRUCTION
  8955									;IN THE SUBTEST) TO LOOP ON ERROR^
  8956
  8957					;**********
  8958
  8959					;THIS TEST CHECKS THE 'AND' INSTRUCTION AND THE ADDER ON A ONE-BIT-AT-A-TIME BASIS.
DFKAA PDP-10 KL10 BASIC INSTRUCTION DIAGNOSTIC (1) VER 0,2	MACRO %53B(1254)-4 11:50 11-Nov-24 Page 31-7
DFKAA1	MAC	13-Jan-89 10:22		TEST OF BOOLEAN INSTRUCTIONS (SETM, SETZ, AND, XOR, EQV)

  8960					;THE AC IS LOADED WITH ALL ZEROS EXCEPT FOR ONE BIT EQUAL TO ONE; THE AC IS THEN
  8961					;ANDED WITH C(E) WHERE C(E)=C(AC).  THE NET RESULT SHOULD BE NO CHANGE TO C(AC).
  8962					;NEXT, THE AC IS EQUIVALENCED WITH C(E) WHERE C(E)=C(AC).  THIS RESULT SHOULD
  8963					;BE ALL ONES IN THE AC.  THE AC IS THEN EQUIVALENCED WITH A WORD OF ALL ZEROS,
  8964					;WHICH SHOULD RESULT IN C(AC)=0.  THE AC IS CHECKED FOR ALL ZEROS.
  8965					;IF C(AC) IS NON-ZERO, THE TEST FAILS.  THIS TEST IS REPEATED 36 TIMES TO
  8966					;RIPPLE A ONE THROUGH EVERY BIT OF THE AC.
  8967			013020		SN=SN+1
  8968			100000			ZZ=ZZ+ZZ
  8969						IFE	ZZ,<ZZ=1>
  8970	034635	200 00 0 00 070304 		MOVE	[ZZ]		;SETUP AC WITH A ONE IN ONLY ONE BIT
  8971	034636	404 00 0 00 070304 		AND	[ZZ]		;*AND FLOATING ONE WITH ITSELF SHOULD NOT CHANGE C(AC)
  8972	034637	444 00 0 00 070304 		EQV	[ZZ]		;RESULTS IN C(AC)=ALL ONES
  8973	034640	444 00 0 00 070253 		EQV	[0]		;RESULTS IN C(AC)=0
  8974	034641	332 00 0 00 000000 		SKIPE			;PASS TEST IF C(AC)=0
  8975						STOP^
  8976	034642	254 04 0 00 034643 		HALT	.+1		;TEST FAILED IF PROGRAM HALTS HERE
  8977	034643	324 00 0 00 034644 		JUMPA	.+1		;IF TEST FAILS, CHANGE THIS INSTRUCTION (JUMPA .+1) TO
  8978									;JUMPA X (X IS THE ADDRESS OF THE FIRST INSTRUCTION
  8979									;IN THE SUBTEST) TO LOOP ON ERROR^
  8980
  8981					;**********
  8982
  8983					;THIS TEST CHECKS THE 'AND' INSTRUCTION AND THE ADDER ON A ONE-BIT-AT-A-TIME BASIS.
  8984					;THE AC IS LOADED WITH ALL ZEROS EXCEPT FOR ONE BIT EQUAL TO ONE; THE AC IS THEN
  8985					;ANDED WITH C(E) WHERE C(E)=C(AC).  THE NET RESULT SHOULD BE NO CHANGE TO C(AC).
  8986					;NEXT, THE AC IS EQUIVALENCED WITH C(E) WHERE C(E)=C(AC).  THIS RESULT SHOULD
  8987					;BE ALL ONES IN THE AC.  THE AC IS THEN EQUIVALENCED WITH A WORD OF ALL ZEROS,
  8988					;WHICH SHOULD RESULT IN C(AC)=0.  THE AC IS CHECKED FOR ALL ZEROS.
  8989					;IF C(AC) IS NON-ZERO, THE TEST FAILS.  THIS TEST IS REPEATED 36 TIMES TO
  8990					;RIPPLE A ONE THROUGH EVERY BIT OF THE AC.
  8991			013021		SN=SN+1
  8992			200000			ZZ=ZZ+ZZ
  8993						IFE	ZZ,<ZZ=1>
  8994	034644	200 00 0 00 070305 		MOVE	[ZZ]		;SETUP AC WITH A ONE IN ONLY ONE BIT
  8995	034645	404 00 0 00 070305 		AND	[ZZ]		;*AND FLOATING ONE WITH ITSELF SHOULD NOT CHANGE C(AC)
  8996	034646	444 00 0 00 070305 		EQV	[ZZ]		;RESULTS IN C(AC)=ALL ONES
  8997	034647	444 00 0 00 070253 		EQV	[0]		;RESULTS IN C(AC)=0
  8998	034650	332 00 0 00 000000 		SKIPE			;PASS TEST IF C(AC)=0
  8999						STOP^
  9000	034651	254 04 0 00 034652 		HALT	.+1		;TEST FAILED IF PROGRAM HALTS HERE
  9001	034652	324 00 0 00 034653 		JUMPA	.+1		;IF TEST FAILS, CHANGE THIS INSTRUCTION (JUMPA .+1) TO
  9002									;JUMPA X (X IS THE ADDRESS OF THE FIRST INSTRUCTION
  9003									;IN THE SUBTEST) TO LOOP ON ERROR^
  9004
  9005					;**********
  9006
  9007					;THIS TEST CHECKS THE 'AND' INSTRUCTION AND THE ADDER ON A ONE-BIT-AT-A-TIME BASIS.
  9008					;THE AC IS LOADED WITH ALL ZEROS EXCEPT FOR ONE BIT EQUAL TO ONE; THE AC IS THEN
  9009					;ANDED WITH C(E) WHERE C(E)=C(AC).  THE NET RESULT SHOULD BE NO CHANGE TO C(AC).
  9010					;NEXT, THE AC IS EQUIVALENCED WITH C(E) WHERE C(E)=C(AC).  THIS RESULT SHOULD
  9011					;BE ALL ONES IN THE AC.  THE AC IS THEN EQUIVALENCED WITH A WORD OF ALL ZEROS,
  9012					;WHICH SHOULD RESULT IN C(AC)=0.  THE AC IS CHECKED FOR ALL ZEROS.
  9013					;IF C(AC) IS NON-ZERO, THE TEST FAILS.  THIS TEST IS REPEATED 36 TIMES TO
  9014					;RIPPLE A ONE THROUGH EVERY BIT OF THE AC.
DFKAA PDP-10 KL10 BASIC INSTRUCTION DIAGNOSTIC (1) VER 0,2	MACRO %53B(1254)-4 11:50 11-Nov-24 Page 31-8
DFKAA1	MAC	13-Jan-89 10:22		TEST OF BOOLEAN INSTRUCTIONS (SETM, SETZ, AND, XOR, EQV)

  9015			013022		SN=SN+1
  9016			400000			ZZ=ZZ+ZZ
  9017						IFE	ZZ,<ZZ=1>
  9018	034653	200 00 0 00 070306 		MOVE	[ZZ]		;SETUP AC WITH A ONE IN ONLY ONE BIT
  9019	034654	404 00 0 00 070306 		AND	[ZZ]		;*AND FLOATING ONE WITH ITSELF SHOULD NOT CHANGE C(AC)
  9020	034655	444 00 0 00 070306 		EQV	[ZZ]		;RESULTS IN C(AC)=ALL ONES
  9021	034656	444 00 0 00 070253 		EQV	[0]		;RESULTS IN C(AC)=0
  9022	034657	332 00 0 00 000000 		SKIPE			;PASS TEST IF C(AC)=0
  9023						STOP^
  9024	034660	254 04 0 00 034661 		HALT	.+1		;TEST FAILED IF PROGRAM HALTS HERE
  9025	034661	324 00 0 00 034662 		JUMPA	.+1		;IF TEST FAILS, CHANGE THIS INSTRUCTION (JUMPA .+1) TO
  9026									;JUMPA X (X IS THE ADDRESS OF THE FIRST INSTRUCTION
  9027									;IN THE SUBTEST) TO LOOP ON ERROR^
  9028
  9029					;**********
  9030
  9031					;THIS TEST CHECKS THE 'AND' INSTRUCTION AND THE ADDER ON A ONE-BIT-AT-A-TIME BASIS.
  9032					;THE AC IS LOADED WITH ALL ZEROS EXCEPT FOR ONE BIT EQUAL TO ONE; THE AC IS THEN
  9033					;ANDED WITH C(E) WHERE C(E)=C(AC).  THE NET RESULT SHOULD BE NO CHANGE TO C(AC).
  9034					;NEXT, THE AC IS EQUIVALENCED WITH C(E) WHERE C(E)=C(AC).  THIS RESULT SHOULD
  9035					;BE ALL ONES IN THE AC.  THE AC IS THEN EQUIVALENCED WITH A WORD OF ALL ZEROS,
  9036					;WHICH SHOULD RESULT IN C(AC)=0.  THE AC IS CHECKED FOR ALL ZEROS.
  9037					;IF C(AC) IS NON-ZERO, THE TEST FAILS.  THIS TEST IS REPEATED 36 TIMES TO
  9038					;RIPPLE A ONE THROUGH EVERY BIT OF THE AC.
  9039			013023		SN=SN+1
  9040		000001	000000			ZZ=ZZ+ZZ
  9041						IFE	ZZ,<ZZ=1>
  9042	034662	200 00 0 00 070307 		MOVE	[ZZ]		;SETUP AC WITH A ONE IN ONLY ONE BIT
  9043	034663	404 00 0 00 070307 		AND	[ZZ]		;*AND FLOATING ONE WITH ITSELF SHOULD NOT CHANGE C(AC)
  9044	034664	444 00 0 00 070307 		EQV	[ZZ]		;RESULTS IN C(AC)=ALL ONES
  9045	034665	444 00 0 00 070253 		EQV	[0]		;RESULTS IN C(AC)=0
  9046	034666	332 00 0 00 000000 		SKIPE			;PASS TEST IF C(AC)=0
  9047						STOP^
  9048	034667	254 04 0 00 034670 		HALT	.+1		;TEST FAILED IF PROGRAM HALTS HERE
  9049	034670	324 00 0 00 034671 		JUMPA	.+1		;IF TEST FAILS, CHANGE THIS INSTRUCTION (JUMPA .+1) TO
  9050									;JUMPA X (X IS THE ADDRESS OF THE FIRST INSTRUCTION
  9051									;IN THE SUBTEST) TO LOOP ON ERROR^
  9052
  9053					;**********
  9054
  9055					;THIS TEST CHECKS THE 'AND' INSTRUCTION AND THE ADDER ON A ONE-BIT-AT-A-TIME BASIS.
  9056					;THE AC IS LOADED WITH ALL ZEROS EXCEPT FOR ONE BIT EQUAL TO ONE; THE AC IS THEN
  9057					;ANDED WITH C(E) WHERE C(E)=C(AC).  THE NET RESULT SHOULD BE NO CHANGE TO C(AC).
  9058					;NEXT, THE AC IS EQUIVALENCED WITH C(E) WHERE C(E)=C(AC).  THIS RESULT SHOULD
  9059					;BE ALL ONES IN THE AC.  THE AC IS THEN EQUIVALENCED WITH A WORD OF ALL ZEROS,
  9060					;WHICH SHOULD RESULT IN C(AC)=0.  THE AC IS CHECKED FOR ALL ZEROS.
  9061					;IF C(AC) IS NON-ZERO, THE TEST FAILS.  THIS TEST IS REPEATED 36 TIMES TO
  9062					;RIPPLE A ONE THROUGH EVERY BIT OF THE AC.
  9063			013024		SN=SN+1
  9064		000002	000000			ZZ=ZZ+ZZ
  9065						IFE	ZZ,<ZZ=1>
  9066	034671	200 00 0 00 070310 		MOVE	[ZZ]		;SETUP AC WITH A ONE IN ONLY ONE BIT
  9067	034672	404 00 0 00 070310 		AND	[ZZ]		;*AND FLOATING ONE WITH ITSELF SHOULD NOT CHANGE C(AC)
  9068	034673	444 00 0 00 070310 		EQV	[ZZ]		;RESULTS IN C(AC)=ALL ONES
  9069	034674	444 00 0 00 070253 		EQV	[0]		;RESULTS IN C(AC)=0
DFKAA PDP-10 KL10 BASIC INSTRUCTION DIAGNOSTIC (1) VER 0,2	MACRO %53B(1254)-4 11:50 11-Nov-24 Page 31-9
DFKAA1	MAC	13-Jan-89 10:22		TEST OF BOOLEAN INSTRUCTIONS (SETM, SETZ, AND, XOR, EQV)

  9070	034675	332 00 0 00 000000 		SKIPE			;PASS TEST IF C(AC)=0
  9071						STOP^
  9072	034676	254 04 0 00 034677 		HALT	.+1		;TEST FAILED IF PROGRAM HALTS HERE
  9073	034677	324 00 0 00 034700 		JUMPA	.+1		;IF TEST FAILS, CHANGE THIS INSTRUCTION (JUMPA .+1) TO
  9074									;JUMPA X (X IS THE ADDRESS OF THE FIRST INSTRUCTION
  9075									;IN THE SUBTEST) TO LOOP ON ERROR^
  9076
  9077					;**********
  9078
  9079					;THIS TEST CHECKS THE 'AND' INSTRUCTION AND THE ADDER ON A ONE-BIT-AT-A-TIME BASIS.
  9080					;THE AC IS LOADED WITH ALL ZEROS EXCEPT FOR ONE BIT EQUAL TO ONE; THE AC IS THEN
  9081					;ANDED WITH C(E) WHERE C(E)=C(AC).  THE NET RESULT SHOULD BE NO CHANGE TO C(AC).
  9082					;NEXT, THE AC IS EQUIVALENCED WITH C(E) WHERE C(E)=C(AC).  THIS RESULT SHOULD
  9083					;BE ALL ONES IN THE AC.  THE AC IS THEN EQUIVALENCED WITH A WORD OF ALL ZEROS,
  9084					;WHICH SHOULD RESULT IN C(AC)=0.  THE AC IS CHECKED FOR ALL ZEROS.
  9085					;IF C(AC) IS NON-ZERO, THE TEST FAILS.  THIS TEST IS REPEATED 36 TIMES TO
  9086					;RIPPLE A ONE THROUGH EVERY BIT OF THE AC.
  9087			013025		SN=SN+1
  9088		000004	000000			ZZ=ZZ+ZZ
  9089						IFE	ZZ,<ZZ=1>
  9090	034700	200 00 0 00 070311 		MOVE	[ZZ]		;SETUP AC WITH A ONE IN ONLY ONE BIT
  9091	034701	404 00 0 00 070311 		AND	[ZZ]		;*AND FLOATING ONE WITH ITSELF SHOULD NOT CHANGE C(AC)
  9092	034702	444 00 0 00 070311 		EQV	[ZZ]		;RESULTS IN C(AC)=ALL ONES
  9093	034703	444 00 0 00 070253 		EQV	[0]		;RESULTS IN C(AC)=0
  9094	034704	332 00 0 00 000000 		SKIPE			;PASS TEST IF C(AC)=0
  9095						STOP^
  9096	034705	254 04 0 00 034706 		HALT	.+1		;TEST FAILED IF PROGRAM HALTS HERE
  9097	034706	324 00 0 00 034707 		JUMPA	.+1		;IF TEST FAILS, CHANGE THIS INSTRUCTION (JUMPA .+1) TO
  9098									;JUMPA X (X IS THE ADDRESS OF THE FIRST INSTRUCTION
  9099									;IN THE SUBTEST) TO LOOP ON ERROR^
  9100
  9101					;**********
  9102
  9103					;THIS TEST CHECKS THE 'AND' INSTRUCTION AND THE ADDER ON A ONE-BIT-AT-A-TIME BASIS.
  9104					;THE AC IS LOADED WITH ALL ZEROS EXCEPT FOR ONE BIT EQUAL TO ONE; THE AC IS THEN
  9105					;ANDED WITH C(E) WHERE C(E)=C(AC).  THE NET RESULT SHOULD BE NO CHANGE TO C(AC).
  9106					;NEXT, THE AC IS EQUIVALENCED WITH C(E) WHERE C(E)=C(AC).  THIS RESULT SHOULD
  9107					;BE ALL ONES IN THE AC.  THE AC IS THEN EQUIVALENCED WITH A WORD OF ALL ZEROS,
  9108					;WHICH SHOULD RESULT IN C(AC)=0.  THE AC IS CHECKED FOR ALL ZEROS.
  9109					;IF C(AC) IS NON-ZERO, THE TEST FAILS.  THIS TEST IS REPEATED 36 TIMES TO
  9110					;RIPPLE A ONE THROUGH EVERY BIT OF THE AC.
  9111			013026		SN=SN+1
  9112		000010	000000			ZZ=ZZ+ZZ
  9113						IFE	ZZ,<ZZ=1>
  9114	034707	200 00 0 00 070312 		MOVE	[ZZ]		;SETUP AC WITH A ONE IN ONLY ONE BIT
  9115	034710	404 00 0 00 070312 		AND	[ZZ]		;*AND FLOATING ONE WITH ITSELF SHOULD NOT CHANGE C(AC)
  9116	034711	444 00 0 00 070312 		EQV	[ZZ]		;RESULTS IN C(AC)=ALL ONES
  9117	034712	444 00 0 00 070253 		EQV	[0]		;RESULTS IN C(AC)=0
  9118	034713	332 00 0 00 000000 		SKIPE			;PASS TEST IF C(AC)=0
  9119						STOP^
  9120	034714	254 04 0 00 034715 		HALT	.+1		;TEST FAILED IF PROGRAM HALTS HERE
  9121	034715	324 00 0 00 034716 		JUMPA	.+1		;IF TEST FAILS, CHANGE THIS INSTRUCTION (JUMPA .+1) TO
  9122									;JUMPA X (X IS THE ADDRESS OF THE FIRST INSTRUCTION
  9123									;IN THE SUBTEST) TO LOOP ON ERROR^
  9124
DFKAA PDP-10 KL10 BASIC INSTRUCTION DIAGNOSTIC (1) VER 0,2	MACRO %53B(1254)-4 11:50 11-Nov-24 Page 31-10
DFKAA1	MAC	13-Jan-89 10:22		TEST OF BOOLEAN INSTRUCTIONS (SETM, SETZ, AND, XOR, EQV)

  9125					;**********
  9126
  9127					;THIS TEST CHECKS THE 'AND' INSTRUCTION AND THE ADDER ON A ONE-BIT-AT-A-TIME BASIS.
  9128					;THE AC IS LOADED WITH ALL ZEROS EXCEPT FOR ONE BIT EQUAL TO ONE; THE AC IS THEN
  9129					;ANDED WITH C(E) WHERE C(E)=C(AC).  THE NET RESULT SHOULD BE NO CHANGE TO C(AC).
  9130					;NEXT, THE AC IS EQUIVALENCED WITH C(E) WHERE C(E)=C(AC).  THIS RESULT SHOULD
  9131					;BE ALL ONES IN THE AC.  THE AC IS THEN EQUIVALENCED WITH A WORD OF ALL ZEROS,
  9132					;WHICH SHOULD RESULT IN C(AC)=0.  THE AC IS CHECKED FOR ALL ZEROS.
  9133					;IF C(AC) IS NON-ZERO, THE TEST FAILS.  THIS TEST IS REPEATED 36 TIMES TO
  9134					;RIPPLE A ONE THROUGH EVERY BIT OF THE AC.
  9135			013027		SN=SN+1
  9136		000020	000000			ZZ=ZZ+ZZ
  9137						IFE	ZZ,<ZZ=1>
  9138	034716	200 00 0 00 070313 		MOVE	[ZZ]		;SETUP AC WITH A ONE IN ONLY ONE BIT
  9139	034717	404 00 0 00 070313 		AND	[ZZ]		;*AND FLOATING ONE WITH ITSELF SHOULD NOT CHANGE C(AC)
  9140	034720	444 00 0 00 070313 		EQV	[ZZ]		;RESULTS IN C(AC)=ALL ONES
  9141	034721	444 00 0 00 070253 		EQV	[0]		;RESULTS IN C(AC)=0
  9142	034722	332 00 0 00 000000 		SKIPE			;PASS TEST IF C(AC)=0
  9143						STOP^
  9144	034723	254 04 0 00 034724 		HALT	.+1		;TEST FAILED IF PROGRAM HALTS HERE
  9145	034724	324 00 0 00 034725 		JUMPA	.+1		;IF TEST FAILS, CHANGE THIS INSTRUCTION (JUMPA .+1) TO
  9146									;JUMPA X (X IS THE ADDRESS OF THE FIRST INSTRUCTION
  9147									;IN THE SUBTEST) TO LOOP ON ERROR^
  9148
  9149					;**********
  9150
  9151					;THIS TEST CHECKS THE 'AND' INSTRUCTION AND THE ADDER ON A ONE-BIT-AT-A-TIME BASIS.
  9152					;THE AC IS LOADED WITH ALL ZEROS EXCEPT FOR ONE BIT EQUAL TO ONE; THE AC IS THEN
  9153					;ANDED WITH C(E) WHERE C(E)=C(AC).  THE NET RESULT SHOULD BE NO CHANGE TO C(AC).
  9154					;NEXT, THE AC IS EQUIVALENCED WITH C(E) WHERE C(E)=C(AC).  THIS RESULT SHOULD
  9155					;BE ALL ONES IN THE AC.  THE AC IS THEN EQUIVALENCED WITH A WORD OF ALL ZEROS,
  9156					;WHICH SHOULD RESULT IN C(AC)=0.  THE AC IS CHECKED FOR ALL ZEROS.
  9157					;IF C(AC) IS NON-ZERO, THE TEST FAILS.  THIS TEST IS REPEATED 36 TIMES TO
  9158					;RIPPLE A ONE THROUGH EVERY BIT OF THE AC.
  9159			013030		SN=SN+1
  9160		000040	000000			ZZ=ZZ+ZZ
  9161						IFE	ZZ,<ZZ=1>
  9162	034725	200 00 0 00 070314 		MOVE	[ZZ]		;SETUP AC WITH A ONE IN ONLY ONE BIT
  9163	034726	404 00 0 00 070314 		AND	[ZZ]		;*AND FLOATING ONE WITH ITSELF SHOULD NOT CHANGE C(AC)
  9164	034727	444 00 0 00 070314 		EQV	[ZZ]		;RESULTS IN C(AC)=ALL ONES
  9165	034730	444 00 0 00 070253 		EQV	[0]		;RESULTS IN C(AC)=0
  9166	034731	332 00 0 00 000000 		SKIPE			;PASS TEST IF C(AC)=0
  9167						STOP^
  9168	034732	254 04 0 00 034733 		HALT	.+1		;TEST FAILED IF PROGRAM HALTS HERE
  9169	034733	324 00 0 00 034734 		JUMPA	.+1		;IF TEST FAILS, CHANGE THIS INSTRUCTION (JUMPA .+1) TO
  9170									;JUMPA X (X IS THE ADDRESS OF THE FIRST INSTRUCTION
  9171									;IN THE SUBTEST) TO LOOP ON ERROR^
  9172
  9173					;**********
  9174
  9175					;THIS TEST CHECKS THE 'AND' INSTRUCTION AND THE ADDER ON A ONE-BIT-AT-A-TIME BASIS.
  9176					;THE AC IS LOADED WITH ALL ZEROS EXCEPT FOR ONE BIT EQUAL TO ONE; THE AC IS THEN
  9177					;ANDED WITH C(E) WHERE C(E)=C(AC).  THE NET RESULT SHOULD BE NO CHANGE TO C(AC).
  9178					;NEXT, THE AC IS EQUIVALENCED WITH C(E) WHERE C(E)=C(AC).  THIS RESULT SHOULD
  9179					;BE ALL ONES IN THE AC.  THE AC IS THEN EQUIVALENCED WITH A WORD OF ALL ZEROS,
DFKAA PDP-10 KL10 BASIC INSTRUCTION DIAGNOSTIC (1) VER 0,2	MACRO %53B(1254)-4 11:50 11-Nov-24 Page 31-11
DFKAA1	MAC	13-Jan-89 10:22		TEST OF BOOLEAN INSTRUCTIONS (SETM, SETZ, AND, XOR, EQV)

  9180					;WHICH SHOULD RESULT IN C(AC)=0.  THE AC IS CHECKED FOR ALL ZEROS.
  9181					;IF C(AC) IS NON-ZERO, THE TEST FAILS.  THIS TEST IS REPEATED 36 TIMES TO
  9182					;RIPPLE A ONE THROUGH EVERY BIT OF THE AC.
  9183			013031		SN=SN+1
  9184		000100	000000			ZZ=ZZ+ZZ
  9185						IFE	ZZ,<ZZ=1>
  9186	034734	200 00 0 00 070315 		MOVE	[ZZ]		;SETUP AC WITH A ONE IN ONLY ONE BIT
  9187	034735	404 00 0 00 070315 		AND	[ZZ]		;*AND FLOATING ONE WITH ITSELF SHOULD NOT CHANGE C(AC)
  9188	034736	444 00 0 00 070315 		EQV	[ZZ]		;RESULTS IN C(AC)=ALL ONES
  9189	034737	444 00 0 00 070253 		EQV	[0]		;RESULTS IN C(AC)=0
  9190	034740	332 00 0 00 000000 		SKIPE			;PASS TEST IF C(AC)=0
  9191						STOP^
  9192	034741	254 04 0 00 034742 		HALT	.+1		;TEST FAILED IF PROGRAM HALTS HERE
  9193	034742	324 00 0 00 034743 		JUMPA	.+1		;IF TEST FAILS, CHANGE THIS INSTRUCTION (JUMPA .+1) TO
  9194									;JUMPA X (X IS THE ADDRESS OF THE FIRST INSTRUCTION
  9195									;IN THE SUBTEST) TO LOOP ON ERROR^
  9196
  9197					;**********
  9198
  9199					;THIS TEST CHECKS THE 'AND' INSTRUCTION AND THE ADDER ON A ONE-BIT-AT-A-TIME BASIS.
  9200					;THE AC IS LOADED WITH ALL ZEROS EXCEPT FOR ONE BIT EQUAL TO ONE; THE AC IS THEN
  9201					;ANDED WITH C(E) WHERE C(E)=C(AC).  THE NET RESULT SHOULD BE NO CHANGE TO C(AC).
  9202					;NEXT, THE AC IS EQUIVALENCED WITH C(E) WHERE C(E)=C(AC).  THIS RESULT SHOULD
  9203					;BE ALL ONES IN THE AC.  THE AC IS THEN EQUIVALENCED WITH A WORD OF ALL ZEROS,
  9204					;WHICH SHOULD RESULT IN C(AC)=0.  THE AC IS CHECKED FOR ALL ZEROS.
  9205					;IF C(AC) IS NON-ZERO, THE TEST FAILS.  THIS TEST IS REPEATED 36 TIMES TO
  9206					;RIPPLE A ONE THROUGH EVERY BIT OF THE AC.
  9207			013032		SN=SN+1
  9208		000200	000000			ZZ=ZZ+ZZ
  9209						IFE	ZZ,<ZZ=1>
  9210	034743	200 00 0 00 070316 		MOVE	[ZZ]		;SETUP AC WITH A ONE IN ONLY ONE BIT
  9211	034744	404 00 0 00 070316 		AND	[ZZ]		;*AND FLOATING ONE WITH ITSELF SHOULD NOT CHANGE C(AC)
  9212	034745	444 00 0 00 070316 		EQV	[ZZ]		;RESULTS IN C(AC)=ALL ONES
  9213	034746	444 00 0 00 070253 		EQV	[0]		;RESULTS IN C(AC)=0
  9214	034747	332 00 0 00 000000 		SKIPE			;PASS TEST IF C(AC)=0
  9215						STOP^
  9216	034750	254 04 0 00 034751 		HALT	.+1		;TEST FAILED IF PROGRAM HALTS HERE
  9217	034751	324 00 0 00 034752 		JUMPA	.+1		;IF TEST FAILS, CHANGE THIS INSTRUCTION (JUMPA .+1) TO
  9218									;JUMPA X (X IS THE ADDRESS OF THE FIRST INSTRUCTION
  9219									;IN THE SUBTEST) TO LOOP ON ERROR^
  9220
  9221					;**********
  9222
  9223					;THIS TEST CHECKS THE 'AND' INSTRUCTION AND THE ADDER ON A ONE-BIT-AT-A-TIME BASIS.
  9224					;THE AC IS LOADED WITH ALL ZEROS EXCEPT FOR ONE BIT EQUAL TO ONE; THE AC IS THEN
  9225					;ANDED WITH C(E) WHERE C(E)=C(AC).  THE NET RESULT SHOULD BE NO CHANGE TO C(AC).
  9226					;NEXT, THE AC IS EQUIVALENCED WITH C(E) WHERE C(E)=C(AC).  THIS RESULT SHOULD
  9227					;BE ALL ONES IN THE AC.  THE AC IS THEN EQUIVALENCED WITH A WORD OF ALL ZEROS,
  9228					;WHICH SHOULD RESULT IN C(AC)=0.  THE AC IS CHECKED FOR ALL ZEROS.
  9229					;IF C(AC) IS NON-ZERO, THE TEST FAILS.  THIS TEST IS REPEATED 36 TIMES TO
  9230					;RIPPLE A ONE THROUGH EVERY BIT OF THE AC.
  9231			013033		SN=SN+1
  9232		000400	000000			ZZ=ZZ+ZZ
  9233						IFE	ZZ,<ZZ=1>
  9234	034752	200 00 0 00 070264 		MOVE	[ZZ]		;SETUP AC WITH A ONE IN ONLY ONE BIT
DFKAA PDP-10 KL10 BASIC INSTRUCTION DIAGNOSTIC (1) VER 0,2	MACRO %53B(1254)-4 11:50 11-Nov-24 Page 31-12
DFKAA1	MAC	13-Jan-89 10:22		TEST OF BOOLEAN INSTRUCTIONS (SETM, SETZ, AND, XOR, EQV)

  9235	034753	404 00 0 00 070264 		AND	[ZZ]		;*AND FLOATING ONE WITH ITSELF SHOULD NOT CHANGE C(AC)
  9236	034754	444 00 0 00 070264 		EQV	[ZZ]		;RESULTS IN C(AC)=ALL ONES
  9237	034755	444 00 0 00 070253 		EQV	[0]		;RESULTS IN C(AC)=0
  9238	034756	332 00 0 00 000000 		SKIPE			;PASS TEST IF C(AC)=0
  9239						STOP^
  9240	034757	254 04 0 00 034760 		HALT	.+1		;TEST FAILED IF PROGRAM HALTS HERE
  9241	034760	324 00 0 00 034761 		JUMPA	.+1		;IF TEST FAILS, CHANGE THIS INSTRUCTION (JUMPA .+1) TO
  9242									;JUMPA X (X IS THE ADDRESS OF THE FIRST INSTRUCTION
  9243									;IN THE SUBTEST) TO LOOP ON ERROR^
  9244
  9245					;**********
  9246
  9247					;THIS TEST CHECKS THE 'AND' INSTRUCTION AND THE ADDER ON A ONE-BIT-AT-A-TIME BASIS.
  9248					;THE AC IS LOADED WITH ALL ZEROS EXCEPT FOR ONE BIT EQUAL TO ONE; THE AC IS THEN
  9249					;ANDED WITH C(E) WHERE C(E)=C(AC).  THE NET RESULT SHOULD BE NO CHANGE TO C(AC).
  9250					;NEXT, THE AC IS EQUIVALENCED WITH C(E) WHERE C(E)=C(AC).  THIS RESULT SHOULD
  9251					;BE ALL ONES IN THE AC.  THE AC IS THEN EQUIVALENCED WITH A WORD OF ALL ZEROS,
  9252					;WHICH SHOULD RESULT IN C(AC)=0.  THE AC IS CHECKED FOR ALL ZEROS.
  9253					;IF C(AC) IS NON-ZERO, THE TEST FAILS.  THIS TEST IS REPEATED 36 TIMES TO
  9254					;RIPPLE A ONE THROUGH EVERY BIT OF THE AC.
  9255			013034		SN=SN+1
  9256		001000	000000			ZZ=ZZ+ZZ
  9257						IFE	ZZ,<ZZ=1>
  9258	034761	200 00 0 00 070317 		MOVE	[ZZ]		;SETUP AC WITH A ONE IN ONLY ONE BIT
  9259	034762	404 00 0 00 070317 		AND	[ZZ]		;*AND FLOATING ONE WITH ITSELF SHOULD NOT CHANGE C(AC)
  9260	034763	444 00 0 00 070317 		EQV	[ZZ]		;RESULTS IN C(AC)=ALL ONES
  9261	034764	444 00 0 00 070253 		EQV	[0]		;RESULTS IN C(AC)=0
  9262	034765	332 00 0 00 000000 		SKIPE			;PASS TEST IF C(AC)=0
  9263						STOP^
  9264	034766	254 04 0 00 034767 		HALT	.+1		;TEST FAILED IF PROGRAM HALTS HERE
  9265	034767	324 00 0 00 034770 		JUMPA	.+1		;IF TEST FAILS, CHANGE THIS INSTRUCTION (JUMPA .+1) TO
  9266									;JUMPA X (X IS THE ADDRESS OF THE FIRST INSTRUCTION
  9267									;IN THE SUBTEST) TO LOOP ON ERROR^
  9268
  9269					;**********
  9270
  9271					;THIS TEST CHECKS THE 'AND' INSTRUCTION AND THE ADDER ON A ONE-BIT-AT-A-TIME BASIS.
  9272					;THE AC IS LOADED WITH ALL ZEROS EXCEPT FOR ONE BIT EQUAL TO ONE; THE AC IS THEN
  9273					;ANDED WITH C(E) WHERE C(E)=C(AC).  THE NET RESULT SHOULD BE NO CHANGE TO C(AC).
  9274					;NEXT, THE AC IS EQUIVALENCED WITH C(E) WHERE C(E)=C(AC).  THIS RESULT SHOULD
  9275					;BE ALL ONES IN THE AC.  THE AC IS THEN EQUIVALENCED WITH A WORD OF ALL ZEROS,
  9276					;WHICH SHOULD RESULT IN C(AC)=0.  THE AC IS CHECKED FOR ALL ZEROS.
  9277					;IF C(AC) IS NON-ZERO, THE TEST FAILS.  THIS TEST IS REPEATED 36 TIMES TO
  9278					;RIPPLE A ONE THROUGH EVERY BIT OF THE AC.
  9279			013035		SN=SN+1
  9280		002000	000000			ZZ=ZZ+ZZ
  9281						IFE	ZZ,<ZZ=1>
  9282	034770	200 00 0 00 070320 		MOVE	[ZZ]		;SETUP AC WITH A ONE IN ONLY ONE BIT
  9283	034771	404 00 0 00 070320 		AND	[ZZ]		;*AND FLOATING ONE WITH ITSELF SHOULD NOT CHANGE C(AC)
  9284	034772	444 00 0 00 070320 		EQV	[ZZ]		;RESULTS IN C(AC)=ALL ONES
  9285	034773	444 00 0 00 070253 		EQV	[0]		;RESULTS IN C(AC)=0
  9286	034774	332 00 0 00 000000 		SKIPE			;PASS TEST IF C(AC)=0
  9287						STOP^
  9288	034775	254 04 0 00 034776 		HALT	.+1		;TEST FAILED IF PROGRAM HALTS HERE
  9289	034776	324 00 0 00 034777 		JUMPA	.+1		;IF TEST FAILS, CHANGE THIS INSTRUCTION (JUMPA .+1) TO
DFKAA PDP-10 KL10 BASIC INSTRUCTION DIAGNOSTIC (1) VER 0,2	MACRO %53B(1254)-4 11:50 11-Nov-24 Page 31-13
DFKAA1	MAC	13-Jan-89 10:22		TEST OF BOOLEAN INSTRUCTIONS (SETM, SETZ, AND, XOR, EQV)

  9290									;JUMPA X (X IS THE ADDRESS OF THE FIRST INSTRUCTION
  9291									;IN THE SUBTEST) TO LOOP ON ERROR^
  9292
  9293					;**********
  9294
  9295					;THIS TEST CHECKS THE 'AND' INSTRUCTION AND THE ADDER ON A ONE-BIT-AT-A-TIME BASIS.
  9296					;THE AC IS LOADED WITH ALL ZEROS EXCEPT FOR ONE BIT EQUAL TO ONE; THE AC IS THEN
  9297					;ANDED WITH C(E) WHERE C(E)=C(AC).  THE NET RESULT SHOULD BE NO CHANGE TO C(AC).
  9298					;NEXT, THE AC IS EQUIVALENCED WITH C(E) WHERE C(E)=C(AC).  THIS RESULT SHOULD
  9299					;BE ALL ONES IN THE AC.  THE AC IS THEN EQUIVALENCED WITH A WORD OF ALL ZEROS,
  9300					;WHICH SHOULD RESULT IN C(AC)=0.  THE AC IS CHECKED FOR ALL ZEROS.
  9301					;IF C(AC) IS NON-ZERO, THE TEST FAILS.  THIS TEST IS REPEATED 36 TIMES TO
  9302					;RIPPLE A ONE THROUGH EVERY BIT OF THE AC.
  9303			013036		SN=SN+1
  9304		004000	000000			ZZ=ZZ+ZZ
  9305						IFE	ZZ,<ZZ=1>
  9306	034777	200 00 0 00 070321 		MOVE	[ZZ]		;SETUP AC WITH A ONE IN ONLY ONE BIT
  9307	035000	404 00 0 00 070321 		AND	[ZZ]		;*AND FLOATING ONE WITH ITSELF SHOULD NOT CHANGE C(AC)
  9308	035001	444 00 0 00 070321 		EQV	[ZZ]		;RESULTS IN C(AC)=ALL ONES
  9309	035002	444 00 0 00 070253 		EQV	[0]		;RESULTS IN C(AC)=0
  9310	035003	332 00 0 00 000000 		SKIPE			;PASS TEST IF C(AC)=0
  9311						STOP^
  9312	035004	254 04 0 00 035005 		HALT	.+1		;TEST FAILED IF PROGRAM HALTS HERE
  9313	035005	324 00 0 00 035006 		JUMPA	.+1		;IF TEST FAILS, CHANGE THIS INSTRUCTION (JUMPA .+1) TO
  9314									;JUMPA X (X IS THE ADDRESS OF THE FIRST INSTRUCTION
  9315									;IN THE SUBTEST) TO LOOP ON ERROR^
  9316
  9317					;**********
  9318
  9319					;THIS TEST CHECKS THE 'AND' INSTRUCTION AND THE ADDER ON A ONE-BIT-AT-A-TIME BASIS.
  9320					;THE AC IS LOADED WITH ALL ZEROS EXCEPT FOR ONE BIT EQUAL TO ONE; THE AC IS THEN
  9321					;ANDED WITH C(E) WHERE C(E)=C(AC).  THE NET RESULT SHOULD BE NO CHANGE TO C(AC).
  9322					;NEXT, THE AC IS EQUIVALENCED WITH C(E) WHERE C(E)=C(AC).  THIS RESULT SHOULD
  9323					;BE ALL ONES IN THE AC.  THE AC IS THEN EQUIVALENCED WITH A WORD OF ALL ZEROS,
  9324					;WHICH SHOULD RESULT IN C(AC)=0.  THE AC IS CHECKED FOR ALL ZEROS.
  9325					;IF C(AC) IS NON-ZERO, THE TEST FAILS.  THIS TEST IS REPEATED 36 TIMES TO
  9326					;RIPPLE A ONE THROUGH EVERY BIT OF THE AC.
  9327			013037		SN=SN+1
  9328		010000	000000			ZZ=ZZ+ZZ
  9329						IFE	ZZ,<ZZ=1>
  9330	035006	200 00 0 00 070322 		MOVE	[ZZ]		;SETUP AC WITH A ONE IN ONLY ONE BIT
  9331	035007	404 00 0 00 070322 		AND	[ZZ]		;*AND FLOATING ONE WITH ITSELF SHOULD NOT CHANGE C(AC)
  9332	035010	444 00 0 00 070322 		EQV	[ZZ]		;RESULTS IN C(AC)=ALL ONES
  9333	035011	444 00 0 00 070253 		EQV	[0]		;RESULTS IN C(AC)=0
  9334	035012	332 00 0 00 000000 		SKIPE			;PASS TEST IF C(AC)=0
  9335						STOP^
  9336	035013	254 04 0 00 035014 		HALT	.+1		;TEST FAILED IF PROGRAM HALTS HERE
  9337	035014	324 00 0 00 035015 		JUMPA	.+1		;IF TEST FAILS, CHANGE THIS INSTRUCTION (JUMPA .+1) TO
  9338									;JUMPA X (X IS THE ADDRESS OF THE FIRST INSTRUCTION
  9339									;IN THE SUBTEST) TO LOOP ON ERROR^
  9340
  9341					;**********
  9342
  9343					;THIS TEST CHECKS THE 'AND' INSTRUCTION AND THE ADDER ON A ONE-BIT-AT-A-TIME BASIS.
  9344					;THE AC IS LOADED WITH ALL ZEROS EXCEPT FOR ONE BIT EQUAL TO ONE; THE AC IS THEN
DFKAA PDP-10 KL10 BASIC INSTRUCTION DIAGNOSTIC (1) VER 0,2	MACRO %53B(1254)-4 11:50 11-Nov-24 Page 31-14
DFKAA1	MAC	13-Jan-89 10:22		TEST OF BOOLEAN INSTRUCTIONS (SETM, SETZ, AND, XOR, EQV)

  9345					;ANDED WITH C(E) WHERE C(E)=C(AC).  THE NET RESULT SHOULD BE NO CHANGE TO C(AC).
  9346					;NEXT, THE AC IS EQUIVALENCED WITH C(E) WHERE C(E)=C(AC).  THIS RESULT SHOULD
  9347					;BE ALL ONES IN THE AC.  THE AC IS THEN EQUIVALENCED WITH A WORD OF ALL ZEROS,
  9348					;WHICH SHOULD RESULT IN C(AC)=0.  THE AC IS CHECKED FOR ALL ZEROS.
  9349					;IF C(AC) IS NON-ZERO, THE TEST FAILS.  THIS TEST IS REPEATED 36 TIMES TO
  9350					;RIPPLE A ONE THROUGH EVERY BIT OF THE AC.
  9351			013040		SN=SN+1
  9352		020000	000000			ZZ=ZZ+ZZ
  9353						IFE	ZZ,<ZZ=1>
  9354	035015	200 00 0 00 070323 		MOVE	[ZZ]		;SETUP AC WITH A ONE IN ONLY ONE BIT
  9355	035016	404 00 0 00 070323 		AND	[ZZ]		;*AND FLOATING ONE WITH ITSELF SHOULD NOT CHANGE C(AC)
  9356	035017	444 00 0 00 070323 		EQV	[ZZ]		;RESULTS IN C(AC)=ALL ONES
  9357	035020	444 00 0 00 070253 		EQV	[0]		;RESULTS IN C(AC)=0
  9358	035021	332 00 0 00 000000 		SKIPE			;PASS TEST IF C(AC)=0
  9359						STOP^
  9360	035022	254 04 0 00 035023 		HALT	.+1		;TEST FAILED IF PROGRAM HALTS HERE
  9361	035023	324 00 0 00 035024 		JUMPA	.+1		;IF TEST FAILS, CHANGE THIS INSTRUCTION (JUMPA .+1) TO
  9362									;JUMPA X (X IS THE ADDRESS OF THE FIRST INSTRUCTION
  9363									;IN THE SUBTEST) TO LOOP ON ERROR^
  9364
  9365					;**********
  9366
  9367					;THIS TEST CHECKS THE 'AND' INSTRUCTION AND THE ADDER ON A ONE-BIT-AT-A-TIME BASIS.
  9368					;THE AC IS LOADED WITH ALL ZEROS EXCEPT FOR ONE BIT EQUAL TO ONE; THE AC IS THEN
  9369					;ANDED WITH C(E) WHERE C(E)=C(AC).  THE NET RESULT SHOULD BE NO CHANGE TO C(AC).
  9370					;NEXT, THE AC IS EQUIVALENCED WITH C(E) WHERE C(E)=C(AC).  THIS RESULT SHOULD
  9371					;BE ALL ONES IN THE AC.  THE AC IS THEN EQUIVALENCED WITH A WORD OF ALL ZEROS,
  9372					;WHICH SHOULD RESULT IN C(AC)=0.  THE AC IS CHECKED FOR ALL ZEROS.
  9373					;IF C(AC) IS NON-ZERO, THE TEST FAILS.  THIS TEST IS REPEATED 36 TIMES TO
  9374					;RIPPLE A ONE THROUGH EVERY BIT OF THE AC.
  9375			013041		SN=SN+1
  9376		040000	000000			ZZ=ZZ+ZZ
  9377						IFE	ZZ,<ZZ=1>
  9378	035024	200 00 0 00 070324 		MOVE	[ZZ]		;SETUP AC WITH A ONE IN ONLY ONE BIT
  9379	035025	404 00 0 00 070324 		AND	[ZZ]		;*AND FLOATING ONE WITH ITSELF SHOULD NOT CHANGE C(AC)
  9380	035026	444 00 0 00 070324 		EQV	[ZZ]		;RESULTS IN C(AC)=ALL ONES
  9381	035027	444 00 0 00 070253 		EQV	[0]		;RESULTS IN C(AC)=0
  9382	035030	332 00 0 00 000000 		SKIPE			;PASS TEST IF C(AC)=0
  9383						STOP^
  9384	035031	254 04 0 00 035032 		HALT	.+1		;TEST FAILED IF PROGRAM HALTS HERE
  9385	035032	324 00 0 00 035033 		JUMPA	.+1		;IF TEST FAILS, CHANGE THIS INSTRUCTION (JUMPA .+1) TO
  9386									;JUMPA X (X IS THE ADDRESS OF THE FIRST INSTRUCTION
  9387									;IN THE SUBTEST) TO LOOP ON ERROR^
  9388
  9389					;**********
  9390
  9391					;THIS TEST CHECKS THE 'AND' INSTRUCTION AND THE ADDER ON A ONE-BIT-AT-A-TIME BASIS.
  9392					;THE AC IS LOADED WITH ALL ZEROS EXCEPT FOR ONE BIT EQUAL TO ONE; THE AC IS THEN
  9393					;ANDED WITH C(E) WHERE C(E)=C(AC).  THE NET RESULT SHOULD BE NO CHANGE TO C(AC).
  9394					;NEXT, THE AC IS EQUIVALENCED WITH C(E) WHERE C(E)=C(AC).  THIS RESULT SHOULD
  9395					;BE ALL ONES IN THE AC.  THE AC IS THEN EQUIVALENCED WITH A WORD OF ALL ZEROS,
  9396					;WHICH SHOULD RESULT IN C(AC)=0.  THE AC IS CHECKED FOR ALL ZEROS.
  9397					;IF C(AC) IS NON-ZERO, THE TEST FAILS.  THIS TEST IS REPEATED 36 TIMES TO
  9398					;RIPPLE A ONE THROUGH EVERY BIT OF THE AC.
  9399			013042		SN=SN+1
DFKAA PDP-10 KL10 BASIC INSTRUCTION DIAGNOSTIC (1) VER 0,2	MACRO %53B(1254)-4 11:50 11-Nov-24 Page 31-15
DFKAA1	MAC	13-Jan-89 10:22		TEST OF BOOLEAN INSTRUCTIONS (SETM, SETZ, AND, XOR, EQV)

  9400		100000	000000			ZZ=ZZ+ZZ
  9401						IFE	ZZ,<ZZ=1>
  9402	035033	200 00 0 00 070325 		MOVE	[ZZ]		;SETUP AC WITH A ONE IN ONLY ONE BIT
  9403	035034	404 00 0 00 070325 		AND	[ZZ]		;*AND FLOATING ONE WITH ITSELF SHOULD NOT CHANGE C(AC)
  9404	035035	444 00 0 00 070325 		EQV	[ZZ]		;RESULTS IN C(AC)=ALL ONES
  9405	035036	444 00 0 00 070253 		EQV	[0]		;RESULTS IN C(AC)=0
  9406	035037	332 00 0 00 000000 		SKIPE			;PASS TEST IF C(AC)=0
  9407						STOP^
  9408	035040	254 04 0 00 035041 		HALT	.+1		;TEST FAILED IF PROGRAM HALTS HERE
  9409	035041	324 00 0 00 035042 		JUMPA	.+1		;IF TEST FAILS, CHANGE THIS INSTRUCTION (JUMPA .+1) TO
  9410									;JUMPA X (X IS THE ADDRESS OF THE FIRST INSTRUCTION
  9411									;IN THE SUBTEST) TO LOOP ON ERROR^
  9412
  9413					;**********
  9414
  9415					;THIS TEST CHECKS THE 'AND' INSTRUCTION AND THE ADDER ON A ONE-BIT-AT-A-TIME BASIS.
  9416					;THE AC IS LOADED WITH ALL ZEROS EXCEPT FOR ONE BIT EQUAL TO ONE; THE AC IS THEN
  9417					;ANDED WITH C(E) WHERE C(E)=C(AC).  THE NET RESULT SHOULD BE NO CHANGE TO C(AC).
  9418					;NEXT, THE AC IS EQUIVALENCED WITH C(E) WHERE C(E)=C(AC).  THIS RESULT SHOULD
  9419					;BE ALL ONES IN THE AC.  THE AC IS THEN EQUIVALENCED WITH A WORD OF ALL ZEROS,
  9420					;WHICH SHOULD RESULT IN C(AC)=0.  THE AC IS CHECKED FOR ALL ZEROS.
  9421					;IF C(AC) IS NON-ZERO, THE TEST FAILS.  THIS TEST IS REPEATED 36 TIMES TO
  9422					;RIPPLE A ONE THROUGH EVERY BIT OF THE AC.
  9423			013043		SN=SN+1
  9424		200000	000000			ZZ=ZZ+ZZ
  9425						IFE	ZZ,<ZZ=1>
  9426	035042	200 00 0 00 070326 		MOVE	[ZZ]		;SETUP AC WITH A ONE IN ONLY ONE BIT
  9427	035043	404 00 0 00 070326 		AND	[ZZ]		;*AND FLOATING ONE WITH ITSELF SHOULD NOT CHANGE C(AC)
  9428	035044	444 00 0 00 070326 		EQV	[ZZ]		;RESULTS IN C(AC)=ALL ONES
  9429	035045	444 00 0 00 070253 		EQV	[0]		;RESULTS IN C(AC)=0
  9430	035046	332 00 0 00 000000 		SKIPE			;PASS TEST IF C(AC)=0
  9431						STOP^
  9432	035047	254 04 0 00 035050 		HALT	.+1		;TEST FAILED IF PROGRAM HALTS HERE
  9433	035050	324 00 0 00 035051 		JUMPA	.+1		;IF TEST FAILS, CHANGE THIS INSTRUCTION (JUMPA .+1) TO
  9434									;JUMPA X (X IS THE ADDRESS OF THE FIRST INSTRUCTION
  9435									;IN THE SUBTEST) TO LOOP ON ERROR^
  9436
  9437					;**********
  9438
  9439					;THIS TEST CHECKS THE 'AND' INSTRUCTION AND THE ADDER ON A ONE-BIT-AT-A-TIME BASIS.
  9440					;THE AC IS LOADED WITH ALL ZEROS EXCEPT FOR ONE BIT EQUAL TO ONE; THE AC IS THEN
  9441					;ANDED WITH C(E) WHERE C(E)=C(AC).  THE NET RESULT SHOULD BE NO CHANGE TO C(AC).
  9442					;NEXT, THE AC IS EQUIVALENCED WITH C(E) WHERE C(E)=C(AC).  THIS RESULT SHOULD
  9443					;BE ALL ONES IN THE AC.  THE AC IS THEN EQUIVALENCED WITH A WORD OF ALL ZEROS,
  9444					;WHICH SHOULD RESULT IN C(AC)=0.  THE AC IS CHECKED FOR ALL ZEROS.
  9445					;IF C(AC) IS NON-ZERO, THE TEST FAILS.  THIS TEST IS REPEATED 36 TIMES TO
  9446					;RIPPLE A ONE THROUGH EVERY BIT OF THE AC.
  9447			013044		SN=SN+1
  9448		400000	000000			ZZ=ZZ+ZZ
  9449						IFE	ZZ,<ZZ=1>
  9450	035051	200 00 0 00 070256 		MOVE	[ZZ]		;SETUP AC WITH A ONE IN ONLY ONE BIT
  9451	035052	404 00 0 00 070256 		AND	[ZZ]		;*AND FLOATING ONE WITH ITSELF SHOULD NOT CHANGE C(AC)
  9452	035053	444 00 0 00 070256 		EQV	[ZZ]		;RESULTS IN C(AC)=ALL ONES
  9453	035054	444 00 0 00 070253 		EQV	[0]		;RESULTS IN C(AC)=0
  9454	035055	332 00 0 00 000000 		SKIPE			;PASS TEST IF C(AC)=0
DFKAA PDP-10 KL10 BASIC INSTRUCTION DIAGNOSTIC (1) VER 0,2	MACRO %53B(1254)-4 11:50 11-Nov-24 Page 31-16
DFKAA1	MAC	13-Jan-89 10:22		TEST OF BOOLEAN INSTRUCTIONS (SETM, SETZ, AND, XOR, EQV)

  9455						STOP^
  9456	035056	254 04 0 00 035057 		HALT	.+1		;TEST FAILED IF PROGRAM HALTS HERE
  9457	035057	324 00 0 00 035060 		JUMPA	.+1		;IF TEST FAILS, CHANGE THIS INSTRUCTION (JUMPA .+1) TO
  9458									;JUMPA X (X IS THE ADDRESS OF THE FIRST INSTRUCTION
  9459									;IN THE SUBTEST) TO LOOP ON ERROR^
  9460
  9461					;**********
  9462
DFKAA PDP-10 KL10 BASIC INSTRUCTION DIAGNOSTIC (1) VER 0,2	MACRO %53B(1254)-4 11:50 11-Nov-24 Page 1
DFKAA2	MAC	13-Jan-89 10:22		TEST OF THE ADD INSTRUCTION

  9463					SUBTTL	TEST OF THE ADD INSTRUCTION
  9464
  9465					;THIS TEST VERIFIES THAT WHEN THE ADD INSTRUCTION IS USED
  9466					;TO ADD A NON-ZERO NUMBER CONTAINED IN E TO AN AC CONTAINING ALL ZEROS,
  9467					;THE RESULT IS A NON-ZERO NUMBER IN THE AC.  FIRST, THE AC IS CLEARED;
  9468					;THEN, ANON-ZERO POSITIVE NUMBER IS ADDED TO THE AC USING THE ADD
  9469					;INSTRUCTION.  THE AC IS THEN CHECKED FOR ITS CONTENTS NON-ZERO
  9470
  9471	035060	200 00 0 00 070253 		A10400:	MOVE	[0]		;PRESET AC TO ALL ZEROS
  9472	035061	270 00 0 00 070376 		ADD	[123456765432]	;*ADD OF A NON-ZERO NUMBER TO AN AC OF ALL
  9473									;ZEROS SHOULD RESULT
  9474									;IN AN AC CONTAINING A NON-ZERO NUMBER
  9475	035062	336 00 0 00 000000 		SKIPN			;PASS TEST IF C(AC) IS NON-ZERO
  9476						STOP^
  9477	035063	254 04 0 00 035064 		HALT	.+1		;TEST FAILED IF PROGRAM HALTS HERE
  9478	035064	324 00 0 00 035065 		JUMPA	.+1		;IF TEST FAILS, CHANGE THIS INSTRUCTION (JUMPA .+1) TO
  9479									;JUMPA X (X IS THE ADDRESS OF THE FIRST INSTRUCTION
  9480									;IN THE SUBTEST) TO LOOP ON ERROR^
  9481
  9482					;AD ADD [ADC1], AD ADD EN [ADC1],
  9483					;F CYC ACT EN A [F1], AD FM + FETCH EN A [ADFP],
  9484					;F CYC ACT EN C[F1], IR ADSUB [IR1], IRXX [IR1]
  9485
  9486					;**********
  9487
  9488					;THIS TEST VERIFIES THAT WHEN THE ADD INSTRUCTION IS USED TO ADD
  9489					;A WORD OF ALL ZEROS TO AN AC CONTAINING A NON-ZERO POSITIVE NUMBER, THE
  9490					;RESULT IS A NON-ZERO POSITIVE NUMBER IN THE AC.  FIRST, THE AC IS
  9491					;INITIALIZED WITH A NON-ZERO POSITIVE NUMBER; THEN, A WORD OF ALL ZEROS
  9492					; IS ADDED TO THE AC.  THE AC IS THEN CHECKED FOR ITS CONTENTS NON-ZERO
  9493
  9494	035065	200 00 0 00 070376 	A10500:	MOVE	[123456765432]	;PRESET AC WITH A NON-ZERO NUMBER
  9495	035066	270 00 0 00 070253 		ADD	[0]		;*ADD OF A WORD OF ALL ZEROS TO AN AC
  9496									;CONTAINING A NON-ZERO NUMBER
  9497									;SHOULD RESULT IN AN AC CONTAINING A NON-ZERO NUMBER
  9498	035067	336 00 0 00 000000 		SKIPN			;PASS TEST IF C(AC) IS NON-ZERO
  9499						STOP^
  9500	035070	254 04 0 00 035071 		HALT	.+1		;TEST FAILED IF PROGRAM HALTS HERE
  9501	035071	324 00 0 00 035072 		JUMPA	.+1		;IF TEST FAILS, CHANGE THIS INSTRUCTION (JUMPA .+1) TO
  9502									;JUMPA X (X IS THE ADDRESS OF THE FIRST INSTRUCTION
  9503									;IN THE SUBTEST) TO LOOP ON ERROR^
  9504
  9505					;AR AD EN [ARMA], AR AD EN A [ARMA], ET2C F/F [E],
  9506					;AR AD ET2 EN [ARMA], IR ADSUB [IR1]
  9507
  9508					;**********
DFKAA PDP-10 KL10 BASIC INSTRUCTION DIAGNOSTIC (1) VER 0,2	MACRO %53B(1254)-4 11:50 11-Nov-24 Page 2
DFKAA2	MAC	13-Jan-89 10:22		TEST OF THE ADD INSTRUCTION

  9509					;THIS TEST VERIFIES THAT WHEN THE ADD INSTRUCTION IS USED TO ADD
  9510					;A WORD OF ALL ZEROS TO AN AC CONTAINING A NON-ZERO POSITIVE NUMBER, THE
  9511					;RESULT IS A NON-ZERO POSITIVE NUMBER IN THE AC.  FIRST, THE AC IS
  9512					;INITIALIZED WITH A NON-ZERO POSITIVE NUMBER; THEN, A WORD OF ALL ZEROS
  9513					; IS ADDED TO THE AC.  THE AC IS THEN CHECKED FOR ITS CONTENTS NON-ZERO
  9514
  9515	035072	200 00 0 00 070377 	A10600:	MOVE	[XWD 123456,0]	;PRESET AC WITH A NON-ZERO NUMBER
  9516	035073	270 00 0 00 070253 		ADD	[0]		;*ADD OF A WORD OF ALL ZEROS TO AN AC CONTAINING
  9517									;A NON-ZERO NUMBER SHOULD RESULT IN AN AC
  9518									;CONTAINING A NON-ZERO NUMBER
  9519	035074	336 00 0 00 000000 		SKIPN			;PASS TEST IF C(AC) IS NON-ZERO
  9520						STOP^
  9521	035075	254 04 0 00 035076 		HALT	.+1		;TEST FAILED IF PROGRAM HALTS HERE
  9522	035076	324 00 0 00 035077 		JUMPA	.+1		;IF TEST FAILS, CHANGE THIS INSTRUCTION (JUMPA .+1) TO
  9523									;JUMPA X (X IS THE ADDRESS OF THE FIRST INSTRUCTION
  9524									;IN THE SUBTEST) TO LOOP ON ERROR^
  9525
  9526					;AR AD EN [ARMA], AR AD EN A [ARMA], ET2C F/F[E],
  9527					;AR AD ET2 EN [ARMA], IR AD SUB [IR1]
  9528
  9529					;*********
  9530
  9531					;THIS TEST VERIFIES THAT WHEN THE ADD INSTRUCTION IS USED TO ADD
  9532					;A WORD OF ALL ZEROS TO AN AC CONTAINING A NON-ZERO POSITIVE NUMBER, THE
  9533					;RESULT IS A NON-ZERO POSITIVE NUMBER IN THE AC.  FIRST, THE AC IS
  9534					;INITIALIZED WITH A NON-ZERO POSITIVE NUMBER; THEN, A WORD OF ALL ZEROS
  9535					; IS ADDED TO THE AC.  THE AC IS THEN CHECKED FOR ITS CONTENTS NON-ZERO
  9536
  9537	035077	200 00 0 00 070400 	A10700:	MOVE	[123456]	;PRESET AC WITH A NON-ZERO NUMBER
  9538	035100	270 00 0 00 070253 		ADD	[0]		;*ADD OF A WORD OF ALL ZEROS TO AN AC CONTAINING
  9539									;A NON-ZERO NUMBER
  9540									;SHOULD RESULT IN AN AC CONTAINING A NON-ZERO NUMBER
  9541	035101	336 00 0 00 000000 		SKIPN			;PASS TEST IS C(AC) IS NON-ZERO
  9542						STOP^
  9543	035102	254 04 0 00 035103 		HALT	.+1		;TEST FAILED IF PROGRAM HALTS HERE
  9544	035103	324 00 0 00 035104 		JUMPA	.+1		;IF TEST FAILS, CHANGE THIS INSTRUCTION (JUMPA .+1) TO
  9545									;JUMPA X (X IS THE ADDRESS OF THE FIRST INSTRUCTION
  9546									;IN THE SUBTEST) TO LOOP ON ERROR^
  9547
  9548					;**********
DFKAA PDP-10 KL10 BASIC INSTRUCTION DIAGNOSTIC (1) VER 0,2	MACRO %53B(1254)-4 11:50 11-Nov-24 Page 3
DFKAA2	MAC	13-Jan-89 10:22		TEST OF THE ADD INSTRUCTION

  9549					;THIS TEST VERIFIES THAT WHEN THE ADD INSTRUCTION IS USED TO ADD
  9550					;A WORD CONTAINING A NON-ZERO POSITIVE NUMBER TO AN AC OF ALL ZEROS, THE
  9551					;RESULT IS A NON-ZERO POSITIVE NUMBER IN THE AC.  FIRST, THE AC IS
  9552					;INITIALIZED WITH A WORD OF ALL ZEROS ;THEN, A NON-ZERO POSITIVE NUMBER
  9553					;IS ADDED TO THE AC.  THE AC IS THEN CHECKED FOR ITS CONTENTS NON-ZERO
  9554
  9555	035104	200 00 0 00 070253 	A13300:	MOVE	[0]		;PRESET AC WITH ALL ZEROS
  9556	035105	270 00 0 00 070377 		ADD	[123456,,0]	;*ADD OF A NON-ZERO NUMBER TO AN AC CONTAINING ALL ZEROS
  9557									;SHOULD RESULT IN AN AC CONTAINING A NON-ZERO NUMBER
  9558	035106	336 00 0 00 000000 		SKIPN			;PASS TEST IF C(AC) IS NON-ZERO
  9559						STOP^
  9560	035107	254 04 0 00 035110 		HALT	.+1		;TEST FAILED IF PROGRAM HALTS HERE
  9561	035110	324 00 0 00 035111 		JUMPA	.+1		;IF TEST FAILS, CHANGE THIS INSTRUCTION (JUMPA .+1) TO
  9562									;JUMPA X (X IS THE ADDRESS OF THE FIRST INSTRUCTION
  9563									;IN THE SUBTEST) TO LOOP ON ERROR^
  9564
  9565					;**********
  9566
  9567					;THIS TEST VERIFIES THAT WHEN THE ADD INSTRUCTION IS USED TO ADD
  9568					;A WORD CONTAINING A NON-ZERO POSITIVE NUMBER TO AN AC OF ALL ZEROS, THE
  9569					;RESULT IS A NON-ZERO POSITIVE NUMBER IN THE AC.  FIRST, THE AC IS
  9570					;INITIALIZED WITH A WORD OF ALL ZEROS ;THEN, A NON-ZERO POSITIVE NUMBER
  9571					;IS ADDED TO THE AC.  THE AC IS THEN CHECKED FOR ITS CONTENTS NON-ZERO
  9572
  9573	035111	200 00 0 00 070253 	A13400:	MOVE	[0]		;PRESET AC WITH ALL ZEROS
  9574	035112	270 00 0 00 070400 		ADD	[123456]	;*ADD OF A NON-ZERO NUMBER TO AN AC CONTAINING ALL ZEROS
  9575									;SHOULD RESULT IN AN AC CONTAINING A NON-ZERO NUMBER
  9576	035113	336 00 0 00 000000 		SKIPN			;PASS TEST IF C(AC) IS NON-ZERO
  9577						STOP^
  9578	035114	254 04 0 00 035115 		HALT	.+1		;TEST FAILED IF PROGRAM HALTS HERE
  9579	035115	324 00 0 00 035116 		JUMPA	.+1		;IF TEST FAILS, CHANGE THIS INSTRUCTION (JUMPA .+1) TO
  9580									;JUMPA X (X IS THE ADDRESS OF THE FIRST INSTRUCTION
  9581									;IN THE SUBTEST) TO LOOP ON ERROR^
  9582
  9583					;**********
DFKAA PDP-10 KL10 BASIC INSTRUCTION DIAGNOSTIC (1) VER 0,2	MACRO %53B(1254)-4 11:50 11-Nov-24 Page 4
DFKAA2	MAC	13-Jan-89 10:22		TEST OF THE ADD INSTRUCTION

  9584					;ADD ZERO TO A RIPPLED ONE
  9585
  9586			011000		SN=11000
  9587			000000			ZZ=0
  9588
  9589					A11000:	REPEAT	^D36,
  9590					<;THIS TEST CHECKS THE 'ADD' INSTRUCTION AND THE ADDER ON A 0NE-BIT-AT-A-TIME BASIS.
  9591					;A WORD OF ALL ZEROS IS ADDED TO AN
  9592					;AC CONTAINING ALL ZEROS EXCEPT FOR A ONE IN ONE AND ONLY ONE BIT,
  9593					;THE RESULT IS THAT THE AC CONTAINS THE SAME NUMBER WHICH WAS IN IT ORIGINALLY.
  9594					;THE AC IS THEN EQUIVALENCED WITH C(E) WHERE C(E)=C(AC).  THIS RESULT SHOULD
  9595					;BE ALL ONES.  NEXT, THE AC IS EQUIVALENCED WITH A WORD OF ALL ZEROS.
  9596					;THE FINAL RESULT SHOULD BE C(AC)=0. THIS
  9597					;TEST IS REPEATED 36 TIMES SO THAT A ONE MAY BE RIPPLED THOUGH
  9598					;EVERY BIT OF THE AC.
  9599					;THE AC IS CHECKED TO INSURE THAT IT CONTAINS ALL ZEROS.
  9600					SN=SN+1
  9601						ZZ=ZZ+ZZ
  9602						IFE	ZZ,<ZZ=1>
  9603						MOVE	[ZZ]		;LOAD AC WITH A FLOATING ONE
  9604						ADD	[0]		;*ADD OF ZERO TO FLOATING ONE
  9605						EQV	[ZZ]		;RESULTS IN C(AC)=ALL ONES
  9606						EQV	[0]		;RESULTS IN C(AC)=0
  9607						SKIPE			;PASS TEST IF C(AC)=0
  9608						STOP
  9609
  9610					;ADDX; AD AR + EN [ADAP], F CYC ACT EN A[F1],
  9611					;IR ADDX [IR1], IR ADSUB [IR1]
  9612
  9613					;**********
  9614					PAGE
  9615					>
  9616					;THIS TEST CHECKS THE 'ADD' INSTRUCTION AND THE ADDER ON A 0NE-BIT-AT-A-TIME BASIS.
  9617					;A WORD OF ALL ZEROS IS ADDED TO AN
  9618					;AC CONTAINING ALL ZEROS EXCEPT FOR A ONE IN ONE AND ONLY ONE BIT,
  9619					;THE RESULT IS THAT THE AC CONTAINS THE SAME NUMBER WHICH WAS IN IT ORIGINALLY.
  9620					;THE AC IS THEN EQUIVALENCED WITH C(E) WHERE C(E)=C(AC).  THIS RESULT SHOULD
  9621					;BE ALL ONES.  NEXT, THE AC IS EQUIVALENCED WITH A WORD OF ALL ZEROS.
  9622					;THE FINAL RESULT SHOULD BE C(AC)=0. THIS
  9623					;TEST IS REPEATED 36 TIMES SO THAT A ONE MAY BE RIPPLED THOUGH
  9624					;EVERY BIT OF THE AC.
  9625					;THE AC IS CHECKED TO INSURE THAT IT CONTAINS ALL ZEROS.
  9626			011001		SN=SN+1
  9627			000000			ZZ=ZZ+ZZ
  9628			000001			IFE	ZZ,<ZZ=1>
  9629	035116	200 00 0 00 070265 		MOVE	[ZZ]		;LOAD AC WITH A FLOATING ONE
  9630	035117	270 00 0 00 070253 		ADD	[0]		;*ADD OF ZERO TO FLOATING ONE
  9631	035120	444 00 0 00 070265 		EQV	[ZZ]		;RESULTS IN C(AC)=ALL ONES
  9632	035121	444 00 0 00 070253 		EQV	[0]		;RESULTS IN C(AC)=0
  9633	035122	332 00 0 00 000000 		SKIPE			;PASS TEST IF C(AC)=0
  9634						STOP^
  9635	035123	254 04 0 00 035124 		HALT	.+1		;TEST FAILED IF PROGRAM HALTS HERE
  9636	035124	324 00 0 00 035125 		JUMPA	.+1		;IF TEST FAILS, CHANGE THIS INSTRUCTION (JUMPA .+1) TO
  9637									;JUMPA X (X IS THE ADDRESS OF THE FIRST INSTRUCTION
  9638									;IN THE SUBTEST) TO LOOP ON ERROR^
DFKAA PDP-10 KL10 BASIC INSTRUCTION DIAGNOSTIC (1) VER 0,2	MACRO %53B(1254)-4 11:50 11-Nov-24 Page 4-1
DFKAA2	MAC	13-Jan-89 10:22		TEST OF THE ADD INSTRUCTION

  9639
  9640					;ADDX; AD AR + EN [ADAP], F CYC ACT EN A[F1],
  9641					;IR ADDX [IR1], IR ADSUB [IR1]
  9642
  9643					;**********
  9644					PAGE
DFKAA PDP-10 KL10 BASIC INSTRUCTION DIAGNOSTIC (1) VER 0,2	MACRO %53B(1254)-4 11:50 11-Nov-24 Page 4-2
DFKAA2	MAC	13-Jan-89 10:22		TEST OF THE ADD INSTRUCTION

  9645
  9646					;THIS TEST CHECKS THE 'ADD' INSTRUCTION AND THE ADDER ON A 0NE-BIT-AT-A-TIME BASIS.
  9647					;A WORD OF ALL ZEROS IS ADDED TO AN
  9648					;AC CONTAINING ALL ZEROS EXCEPT FOR A ONE IN ONE AND ONLY ONE BIT,
  9649					;THE RESULT IS THAT THE AC CONTAINS THE SAME NUMBER WHICH WAS IN IT ORIGINALLY.
  9650					;THE AC IS THEN EQUIVALENCED WITH C(E) WHERE C(E)=C(AC).  THIS RESULT SHOULD
  9651					;BE ALL ONES.  NEXT, THE AC IS EQUIVALENCED WITH A WORD OF ALL ZEROS.
  9652					;THE FINAL RESULT SHOULD BE C(AC)=0. THIS
  9653					;TEST IS REPEATED 36 TIMES SO THAT A ONE MAY BE RIPPLED THOUGH
  9654					;EVERY BIT OF THE AC.
  9655					;THE AC IS CHECKED TO INSURE THAT IT CONTAINS ALL ZEROS.
  9656			011002		SN=SN+1
  9657			000002			ZZ=ZZ+ZZ
  9658						IFE	ZZ,<ZZ=1>
  9659	035125	200 00 0 00 070266 		MOVE	[ZZ]		;LOAD AC WITH A FLOATING ONE
  9660	035126	270 00 0 00 070253 		ADD	[0]		;*ADD OF ZERO TO FLOATING ONE
  9661	035127	444 00 0 00 070266 		EQV	[ZZ]		;RESULTS IN C(AC)=ALL ONES
  9662	035130	444 00 0 00 070253 		EQV	[0]		;RESULTS IN C(AC)=0
  9663	035131	332 00 0 00 000000 		SKIPE			;PASS TEST IF C(AC)=0
  9664						STOP^
  9665	035132	254 04 0 00 035133 		HALT	.+1		;TEST FAILED IF PROGRAM HALTS HERE
  9666	035133	324 00 0 00 035134 		JUMPA	.+1		;IF TEST FAILS, CHANGE THIS INSTRUCTION (JUMPA .+1) TO
  9667									;JUMPA X (X IS THE ADDRESS OF THE FIRST INSTRUCTION
  9668									;IN THE SUBTEST) TO LOOP ON ERROR^
  9669
  9670					;ADDX; AD AR + EN [ADAP], F CYC ACT EN A[F1],
  9671					;IR ADDX [IR1], IR ADSUB [IR1]
  9672
  9673					;**********
  9674					PAGE
DFKAA PDP-10 KL10 BASIC INSTRUCTION DIAGNOSTIC (1) VER 0,2	MACRO %53B(1254)-4 11:50 11-Nov-24 Page 4-3
DFKAA2	MAC	13-Jan-89 10:22		TEST OF THE ADD INSTRUCTION

  9675
  9676					;THIS TEST CHECKS THE 'ADD' INSTRUCTION AND THE ADDER ON A 0NE-BIT-AT-A-TIME BASIS.
  9677					;A WORD OF ALL ZEROS IS ADDED TO AN
  9678					;AC CONTAINING ALL ZEROS EXCEPT FOR A ONE IN ONE AND ONLY ONE BIT,
  9679					;THE RESULT IS THAT THE AC CONTAINS THE SAME NUMBER WHICH WAS IN IT ORIGINALLY.
  9680					;THE AC IS THEN EQUIVALENCED WITH C(E) WHERE C(E)=C(AC).  THIS RESULT SHOULD
  9681					;BE ALL ONES.  NEXT, THE AC IS EQUIVALENCED WITH A WORD OF ALL ZEROS.
  9682					;THE FINAL RESULT SHOULD BE C(AC)=0. THIS
  9683					;TEST IS REPEATED 36 TIMES SO THAT A ONE MAY BE RIPPLED THOUGH
  9684					;EVERY BIT OF THE AC.
  9685					;THE AC IS CHECKED TO INSURE THAT IT CONTAINS ALL ZEROS.
  9686			011003		SN=SN+1
  9687			000004			ZZ=ZZ+ZZ
  9688						IFE	ZZ,<ZZ=1>
  9689	035134	200 00 0 00 070267 		MOVE	[ZZ]		;LOAD AC WITH A FLOATING ONE
  9690	035135	270 00 0 00 070253 		ADD	[0]		;*ADD OF ZERO TO FLOATING ONE
  9691	035136	444 00 0 00 070267 		EQV	[ZZ]		;RESULTS IN C(AC)=ALL ONES
  9692	035137	444 00 0 00 070253 		EQV	[0]		;RESULTS IN C(AC)=0
  9693	035140	332 00 0 00 000000 		SKIPE			;PASS TEST IF C(AC)=0
  9694						STOP^
  9695	035141	254 04 0 00 035142 		HALT	.+1		;TEST FAILED IF PROGRAM HALTS HERE
  9696	035142	324 00 0 00 035143 		JUMPA	.+1		;IF TEST FAILS, CHANGE THIS INSTRUCTION (JUMPA .+1) TO
  9697									;JUMPA X (X IS THE ADDRESS OF THE FIRST INSTRUCTION
  9698									;IN THE SUBTEST) TO LOOP ON ERROR^
  9699
  9700					;ADDX; AD AR + EN [ADAP], F CYC ACT EN A[F1],
  9701					;IR ADDX [IR1], IR ADSUB [IR1]
  9702
  9703					;**********
  9704					PAGE
DFKAA PDP-10 KL10 BASIC INSTRUCTION DIAGNOSTIC (1) VER 0,2	MACRO %53B(1254)-4 11:50 11-Nov-24 Page 4-4
DFKAA2	MAC	13-Jan-89 10:22		TEST OF THE ADD INSTRUCTION

  9705
  9706					;THIS TEST CHECKS THE 'ADD' INSTRUCTION AND THE ADDER ON A 0NE-BIT-AT-A-TIME BASIS.
  9707					;A WORD OF ALL ZEROS IS ADDED TO AN
  9708					;AC CONTAINING ALL ZEROS EXCEPT FOR A ONE IN ONE AND ONLY ONE BIT,
  9709					;THE RESULT IS THAT THE AC CONTAINS THE SAME NUMBER WHICH WAS IN IT ORIGINALLY.
  9710					;THE AC IS THEN EQUIVALENCED WITH C(E) WHERE C(E)=C(AC).  THIS RESULT SHOULD
  9711					;BE ALL ONES.  NEXT, THE AC IS EQUIVALENCED WITH A WORD OF ALL ZEROS.
  9712					;THE FINAL RESULT SHOULD BE C(AC)=0. THIS
  9713					;TEST IS REPEATED 36 TIMES SO THAT A ONE MAY BE RIPPLED THOUGH
  9714					;EVERY BIT OF THE AC.
  9715					;THE AC IS CHECKED TO INSURE THAT IT CONTAINS ALL ZEROS.
  9716			011004		SN=SN+1
  9717			000010			ZZ=ZZ+ZZ
  9718						IFE	ZZ,<ZZ=1>
  9719	035143	200 00 0 00 070270 		MOVE	[ZZ]		;LOAD AC WITH A FLOATING ONE
  9720	035144	270 00 0 00 070253 		ADD	[0]		;*ADD OF ZERO TO FLOATING ONE
  9721	035145	444 00 0 00 070270 		EQV	[ZZ]		;RESULTS IN C(AC)=ALL ONES
  9722	035146	444 00 0 00 070253 		EQV	[0]		;RESULTS IN C(AC)=0
  9723	035147	332 00 0 00 000000 		SKIPE			;PASS TEST IF C(AC)=0
  9724						STOP^
  9725	035150	254 04 0 00 035151 		HALT	.+1		;TEST FAILED IF PROGRAM HALTS HERE
  9726	035151	324 00 0 00 035152 		JUMPA	.+1		;IF TEST FAILS, CHANGE THIS INSTRUCTION (JUMPA .+1) TO
  9727									;JUMPA X (X IS THE ADDRESS OF THE FIRST INSTRUCTION
  9728									;IN THE SUBTEST) TO LOOP ON ERROR^
  9729
  9730					;ADDX; AD AR + EN [ADAP], F CYC ACT EN A[F1],
  9731					;IR ADDX [IR1], IR ADSUB [IR1]
  9732
  9733					;**********
  9734					PAGE
DFKAA PDP-10 KL10 BASIC INSTRUCTION DIAGNOSTIC (1) VER 0,2	MACRO %53B(1254)-4 11:50 11-Nov-24 Page 4-5
DFKAA2	MAC	13-Jan-89 10:22		TEST OF THE ADD INSTRUCTION

  9735
  9736					;THIS TEST CHECKS THE 'ADD' INSTRUCTION AND THE ADDER ON A 0NE-BIT-AT-A-TIME BASIS.
  9737					;A WORD OF ALL ZEROS IS ADDED TO AN
  9738					;AC CONTAINING ALL ZEROS EXCEPT FOR A ONE IN ONE AND ONLY ONE BIT,
  9739					;THE RESULT IS THAT THE AC CONTAINS THE SAME NUMBER WHICH WAS IN IT ORIGINALLY.
  9740					;THE AC IS THEN EQUIVALENCED WITH C(E) WHERE C(E)=C(AC).  THIS RESULT SHOULD
  9741					;BE ALL ONES.  NEXT, THE AC IS EQUIVALENCED WITH A WORD OF ALL ZEROS.
  9742					;THE FINAL RESULT SHOULD BE C(AC)=0. THIS
  9743					;TEST IS REPEATED 36 TIMES SO THAT A ONE MAY BE RIPPLED THOUGH
  9744					;EVERY BIT OF THE AC.
  9745					;THE AC IS CHECKED TO INSURE THAT IT CONTAINS ALL ZEROS.
  9746			011005		SN=SN+1
  9747			000020			ZZ=ZZ+ZZ
  9748						IFE	ZZ,<ZZ=1>
  9749	035152	200 00 0 00 070271 		MOVE	[ZZ]		;LOAD AC WITH A FLOATING ONE
  9750	035153	270 00 0 00 070253 		ADD	[0]		;*ADD OF ZERO TO FLOATING ONE
  9751	035154	444 00 0 00 070271 		EQV	[ZZ]		;RESULTS IN C(AC)=ALL ONES
  9752	035155	444 00 0 00 070253 		EQV	[0]		;RESULTS IN C(AC)=0
  9753	035156	332 00 0 00 000000 		SKIPE			;PASS TEST IF C(AC)=0
  9754						STOP^
  9755	035157	254 04 0 00 035160 		HALT	.+1		;TEST FAILED IF PROGRAM HALTS HERE
  9756	035160	324 00 0 00 035161 		JUMPA	.+1		;IF TEST FAILS, CHANGE THIS INSTRUCTION (JUMPA .+1) TO
  9757									;JUMPA X (X IS THE ADDRESS OF THE FIRST INSTRUCTION
  9758									;IN THE SUBTEST) TO LOOP ON ERROR^
  9759
  9760					;ADDX; AD AR + EN [ADAP], F CYC ACT EN A[F1],
  9761					;IR ADDX [IR1], IR ADSUB [IR1]
  9762
  9763					;**********
  9764					PAGE
DFKAA PDP-10 KL10 BASIC INSTRUCTION DIAGNOSTIC (1) VER 0,2	MACRO %53B(1254)-4 11:50 11-Nov-24 Page 4-6
DFKAA2	MAC	13-Jan-89 10:22		TEST OF THE ADD INSTRUCTION

  9765
  9766					;THIS TEST CHECKS THE 'ADD' INSTRUCTION AND THE ADDER ON A 0NE-BIT-AT-A-TIME BASIS.
  9767					;A WORD OF ALL ZEROS IS ADDED TO AN
  9768					;AC CONTAINING ALL ZEROS EXCEPT FOR A ONE IN ONE AND ONLY ONE BIT,
  9769					;THE RESULT IS THAT THE AC CONTAINS THE SAME NUMBER WHICH WAS IN IT ORIGINALLY.
  9770					;THE AC IS THEN EQUIVALENCED WITH C(E) WHERE C(E)=C(AC).  THIS RESULT SHOULD
  9771					;BE ALL ONES.  NEXT, THE AC IS EQUIVALENCED WITH A WORD OF ALL ZEROS.
  9772					;THE FINAL RESULT SHOULD BE C(AC)=0. THIS
  9773					;TEST IS REPEATED 36 TIMES SO THAT A ONE MAY BE RIPPLED THOUGH
  9774					;EVERY BIT OF THE AC.
  9775					;THE AC IS CHECKED TO INSURE THAT IT CONTAINS ALL ZEROS.
  9776			011006		SN=SN+1
  9777			000040			ZZ=ZZ+ZZ
  9778						IFE	ZZ,<ZZ=1>
  9779	035161	200 00 0 00 070272 		MOVE	[ZZ]		;LOAD AC WITH A FLOATING ONE
  9780	035162	270 00 0 00 070253 		ADD	[0]		;*ADD OF ZERO TO FLOATING ONE
  9781	035163	444 00 0 00 070272 		EQV	[ZZ]		;RESULTS IN C(AC)=ALL ONES
  9782	035164	444 00 0 00 070253 		EQV	[0]		;RESULTS IN C(AC)=0
  9783	035165	332 00 0 00 000000 		SKIPE			;PASS TEST IF C(AC)=0
  9784						STOP^
  9785	035166	254 04 0 00 035167 		HALT	.+1		;TEST FAILED IF PROGRAM HALTS HERE
  9786	035167	324 00 0 00 035170 		JUMPA	.+1		;IF TEST FAILS, CHANGE THIS INSTRUCTION (JUMPA .+1) TO
  9787									;JUMPA X (X IS THE ADDRESS OF THE FIRST INSTRUCTION
  9788									;IN THE SUBTEST) TO LOOP ON ERROR^
  9789
  9790					;ADDX; AD AR + EN [ADAP], F CYC ACT EN A[F1],
  9791					;IR ADDX [IR1], IR ADSUB [IR1]
  9792
  9793					;**********
  9794					PAGE
DFKAA PDP-10 KL10 BASIC INSTRUCTION DIAGNOSTIC (1) VER 0,2	MACRO %53B(1254)-4 11:50 11-Nov-24 Page 4-7
DFKAA2	MAC	13-Jan-89 10:22		TEST OF THE ADD INSTRUCTION

  9795
  9796					;THIS TEST CHECKS THE 'ADD' INSTRUCTION AND THE ADDER ON A 0NE-BIT-AT-A-TIME BASIS.
  9797					;A WORD OF ALL ZEROS IS ADDED TO AN
  9798					;AC CONTAINING ALL ZEROS EXCEPT FOR A ONE IN ONE AND ONLY ONE BIT,
  9799					;THE RESULT IS THAT THE AC CONTAINS THE SAME NUMBER WHICH WAS IN IT ORIGINALLY.
  9800					;THE AC IS THEN EQUIVALENCED WITH C(E) WHERE C(E)=C(AC).  THIS RESULT SHOULD
  9801					;BE ALL ONES.  NEXT, THE AC IS EQUIVALENCED WITH A WORD OF ALL ZEROS.
  9802					;THE FINAL RESULT SHOULD BE C(AC)=0. THIS
  9803					;TEST IS REPEATED 36 TIMES SO THAT A ONE MAY BE RIPPLED THOUGH
  9804					;EVERY BIT OF THE AC.
  9805					;THE AC IS CHECKED TO INSURE THAT IT CONTAINS ALL ZEROS.
  9806			011007		SN=SN+1
  9807			000100			ZZ=ZZ+ZZ
  9808						IFE	ZZ,<ZZ=1>
  9809	035170	200 00 0 00 070273 		MOVE	[ZZ]		;LOAD AC WITH A FLOATING ONE
  9810	035171	270 00 0 00 070253 		ADD	[0]		;*ADD OF ZERO TO FLOATING ONE
  9811	035172	444 00 0 00 070273 		EQV	[ZZ]		;RESULTS IN C(AC)=ALL ONES
  9812	035173	444 00 0 00 070253 		EQV	[0]		;RESULTS IN C(AC)=0
  9813	035174	332 00 0 00 000000 		SKIPE			;PASS TEST IF C(AC)=0
  9814						STOP^
  9815	035175	254 04 0 00 035176 		HALT	.+1		;TEST FAILED IF PROGRAM HALTS HERE
  9816	035176	324 00 0 00 035177 		JUMPA	.+1		;IF TEST FAILS, CHANGE THIS INSTRUCTION (JUMPA .+1) TO
  9817									;JUMPA X (X IS THE ADDRESS OF THE FIRST INSTRUCTION
  9818									;IN THE SUBTEST) TO LOOP ON ERROR^
  9819
  9820					;ADDX; AD AR + EN [ADAP], F CYC ACT EN A[F1],
  9821					;IR ADDX [IR1], IR ADSUB [IR1]
  9822
  9823					;**********
  9824					PAGE
DFKAA PDP-10 KL10 BASIC INSTRUCTION DIAGNOSTIC (1) VER 0,2	MACRO %53B(1254)-4 11:50 11-Nov-24 Page 4-8
DFKAA2	MAC	13-Jan-89 10:22		TEST OF THE ADD INSTRUCTION

  9825
  9826					;THIS TEST CHECKS THE 'ADD' INSTRUCTION AND THE ADDER ON A 0NE-BIT-AT-A-TIME BASIS.
  9827					;A WORD OF ALL ZEROS IS ADDED TO AN
  9828					;AC CONTAINING ALL ZEROS EXCEPT FOR A ONE IN ONE AND ONLY ONE BIT,
  9829					;THE RESULT IS THAT THE AC CONTAINS THE SAME NUMBER WHICH WAS IN IT ORIGINALLY.
  9830					;THE AC IS THEN EQUIVALENCED WITH C(E) WHERE C(E)=C(AC).  THIS RESULT SHOULD
  9831					;BE ALL ONES.  NEXT, THE AC IS EQUIVALENCED WITH A WORD OF ALL ZEROS.
  9832					;THE FINAL RESULT SHOULD BE C(AC)=0. THIS
  9833					;TEST IS REPEATED 36 TIMES SO THAT A ONE MAY BE RIPPLED THOUGH
  9834					;EVERY BIT OF THE AC.
  9835					;THE AC IS CHECKED TO INSURE THAT IT CONTAINS ALL ZEROS.
  9836			011010		SN=SN+1
  9837			000200			ZZ=ZZ+ZZ
  9838						IFE	ZZ,<ZZ=1>
  9839	035177	200 00 0 00 070274 		MOVE	[ZZ]		;LOAD AC WITH A FLOATING ONE
  9840	035200	270 00 0 00 070253 		ADD	[0]		;*ADD OF ZERO TO FLOATING ONE
  9841	035201	444 00 0 00 070274 		EQV	[ZZ]		;RESULTS IN C(AC)=ALL ONES
  9842	035202	444 00 0 00 070253 		EQV	[0]		;RESULTS IN C(AC)=0
  9843	035203	332 00 0 00 000000 		SKIPE			;PASS TEST IF C(AC)=0
  9844						STOP^
  9845	035204	254 04 0 00 035205 		HALT	.+1		;TEST FAILED IF PROGRAM HALTS HERE
  9846	035205	324 00 0 00 035206 		JUMPA	.+1		;IF TEST FAILS, CHANGE THIS INSTRUCTION (JUMPA .+1) TO
  9847									;JUMPA X (X IS THE ADDRESS OF THE FIRST INSTRUCTION
  9848									;IN THE SUBTEST) TO LOOP ON ERROR^
  9849
  9850					;ADDX; AD AR + EN [ADAP], F CYC ACT EN A[F1],
  9851					;IR ADDX [IR1], IR ADSUB [IR1]
  9852
  9853					;**********
  9854					PAGE
DFKAA PDP-10 KL10 BASIC INSTRUCTION DIAGNOSTIC (1) VER 0,2	MACRO %53B(1254)-4 11:50 11-Nov-24 Page 4-9
DFKAA2	MAC	13-Jan-89 10:22		TEST OF THE ADD INSTRUCTION

  9855
  9856					;THIS TEST CHECKS THE 'ADD' INSTRUCTION AND THE ADDER ON A 0NE-BIT-AT-A-TIME BASIS.
  9857					;A WORD OF ALL ZEROS IS ADDED TO AN
  9858					;AC CONTAINING ALL ZEROS EXCEPT FOR A ONE IN ONE AND ONLY ONE BIT,
  9859					;THE RESULT IS THAT THE AC CONTAINS THE SAME NUMBER WHICH WAS IN IT ORIGINALLY.
  9860					;THE AC IS THEN EQUIVALENCED WITH C(E) WHERE C(E)=C(AC).  THIS RESULT SHOULD
  9861					;BE ALL ONES.  NEXT, THE AC IS EQUIVALENCED WITH A WORD OF ALL ZEROS.
  9862					;THE FINAL RESULT SHOULD BE C(AC)=0. THIS
  9863					;TEST IS REPEATED 36 TIMES SO THAT A ONE MAY BE RIPPLED THOUGH
  9864					;EVERY BIT OF THE AC.
  9865					;THE AC IS CHECKED TO INSURE THAT IT CONTAINS ALL ZEROS.
  9866			011011		SN=SN+1
  9867			000400			ZZ=ZZ+ZZ
  9868						IFE	ZZ,<ZZ=1>
  9869	035206	200 00 0 00 070275 		MOVE	[ZZ]		;LOAD AC WITH A FLOATING ONE
  9870	035207	270 00 0 00 070253 		ADD	[0]		;*ADD OF ZERO TO FLOATING ONE
  9871	035210	444 00 0 00 070275 		EQV	[ZZ]		;RESULTS IN C(AC)=ALL ONES
  9872	035211	444 00 0 00 070253 		EQV	[0]		;RESULTS IN C(AC)=0
  9873	035212	332 00 0 00 000000 		SKIPE			;PASS TEST IF C(AC)=0
  9874						STOP^
  9875	035213	254 04 0 00 035214 		HALT	.+1		;TEST FAILED IF PROGRAM HALTS HERE
  9876	035214	324 00 0 00 035215 		JUMPA	.+1		;IF TEST FAILS, CHANGE THIS INSTRUCTION (JUMPA .+1) TO
  9877									;JUMPA X (X IS THE ADDRESS OF THE FIRST INSTRUCTION
  9878									;IN THE SUBTEST) TO LOOP ON ERROR^
  9879
  9880					;ADDX; AD AR + EN [ADAP], F CYC ACT EN A[F1],
  9881					;IR ADDX [IR1], IR ADSUB [IR1]
  9882
  9883					;**********
  9884					PAGE
DFKAA PDP-10 KL10 BASIC INSTRUCTION DIAGNOSTIC (1) VER 0,2	MACRO %53B(1254)-4 11:50 11-Nov-24 Page 4-10
DFKAA2	MAC	13-Jan-89 10:22		TEST OF THE ADD INSTRUCTION

  9885
  9886					;THIS TEST CHECKS THE 'ADD' INSTRUCTION AND THE ADDER ON A 0NE-BIT-AT-A-TIME BASIS.
  9887					;A WORD OF ALL ZEROS IS ADDED TO AN
  9888					;AC CONTAINING ALL ZEROS EXCEPT FOR A ONE IN ONE AND ONLY ONE BIT,
  9889					;THE RESULT IS THAT THE AC CONTAINS THE SAME NUMBER WHICH WAS IN IT ORIGINALLY.
  9890					;THE AC IS THEN EQUIVALENCED WITH C(E) WHERE C(E)=C(AC).  THIS RESULT SHOULD
  9891					;BE ALL ONES.  NEXT, THE AC IS EQUIVALENCED WITH A WORD OF ALL ZEROS.
  9892					;THE FINAL RESULT SHOULD BE C(AC)=0. THIS
  9893					;TEST IS REPEATED 36 TIMES SO THAT A ONE MAY BE RIPPLED THOUGH
  9894					;EVERY BIT OF THE AC.
  9895					;THE AC IS CHECKED TO INSURE THAT IT CONTAINS ALL ZEROS.
  9896			011012		SN=SN+1
  9897			001000			ZZ=ZZ+ZZ
  9898						IFE	ZZ,<ZZ=1>
  9899	035215	200 00 0 00 070276 		MOVE	[ZZ]		;LOAD AC WITH A FLOATING ONE
  9900	035216	270 00 0 00 070253 		ADD	[0]		;*ADD OF ZERO TO FLOATING ONE
  9901	035217	444 00 0 00 070276 		EQV	[ZZ]		;RESULTS IN C(AC)=ALL ONES
  9902	035220	444 00 0 00 070253 		EQV	[0]		;RESULTS IN C(AC)=0
  9903	035221	332 00 0 00 000000 		SKIPE			;PASS TEST IF C(AC)=0
  9904						STOP^
  9905	035222	254 04 0 00 035223 		HALT	.+1		;TEST FAILED IF PROGRAM HALTS HERE
  9906	035223	324 00 0 00 035224 		JUMPA	.+1		;IF TEST FAILS, CHANGE THIS INSTRUCTION (JUMPA .+1) TO
  9907									;JUMPA X (X IS THE ADDRESS OF THE FIRST INSTRUCTION
  9908									;IN THE SUBTEST) TO LOOP ON ERROR^
  9909
  9910					;ADDX; AD AR + EN [ADAP], F CYC ACT EN A[F1],
  9911					;IR ADDX [IR1], IR ADSUB [IR1]
  9912
  9913					;**********
  9914					PAGE
DFKAA PDP-10 KL10 BASIC INSTRUCTION DIAGNOSTIC (1) VER 0,2	MACRO %53B(1254)-4 11:50 11-Nov-24 Page 4-11
DFKAA2	MAC	13-Jan-89 10:22		TEST OF THE ADD INSTRUCTION

  9915
  9916					;THIS TEST CHECKS THE 'ADD' INSTRUCTION AND THE ADDER ON A 0NE-BIT-AT-A-TIME BASIS.
  9917					;A WORD OF ALL ZEROS IS ADDED TO AN
  9918					;AC CONTAINING ALL ZEROS EXCEPT FOR A ONE IN ONE AND ONLY ONE BIT,
  9919					;THE RESULT IS THAT THE AC CONTAINS THE SAME NUMBER WHICH WAS IN IT ORIGINALLY.
  9920					;THE AC IS THEN EQUIVALENCED WITH C(E) WHERE C(E)=C(AC).  THIS RESULT SHOULD
  9921					;BE ALL ONES.  NEXT, THE AC IS EQUIVALENCED WITH A WORD OF ALL ZEROS.
  9922					;THE FINAL RESULT SHOULD BE C(AC)=0. THIS
  9923					;TEST IS REPEATED 36 TIMES SO THAT A ONE MAY BE RIPPLED THOUGH
  9924					;EVERY BIT OF THE AC.
  9925					;THE AC IS CHECKED TO INSURE THAT IT CONTAINS ALL ZEROS.
  9926			011013		SN=SN+1
  9927			002000			ZZ=ZZ+ZZ
  9928						IFE	ZZ,<ZZ=1>
  9929	035224	200 00 0 00 070277 		MOVE	[ZZ]		;LOAD AC WITH A FLOATING ONE
  9930	035225	270 00 0 00 070253 		ADD	[0]		;*ADD OF ZERO TO FLOATING ONE
  9931	035226	444 00 0 00 070277 		EQV	[ZZ]		;RESULTS IN C(AC)=ALL ONES
  9932	035227	444 00 0 00 070253 		EQV	[0]		;RESULTS IN C(AC)=0
  9933	035230	332 00 0 00 000000 		SKIPE			;PASS TEST IF C(AC)=0
  9934						STOP^
  9935	035231	254 04 0 00 035232 		HALT	.+1		;TEST FAILED IF PROGRAM HALTS HERE
  9936	035232	324 00 0 00 035233 		JUMPA	.+1		;IF TEST FAILS, CHANGE THIS INSTRUCTION (JUMPA .+1) TO
  9937									;JUMPA X (X IS THE ADDRESS OF THE FIRST INSTRUCTION
  9938									;IN THE SUBTEST) TO LOOP ON ERROR^
  9939
  9940					;ADDX; AD AR + EN [ADAP], F CYC ACT EN A[F1],
  9941					;IR ADDX [IR1], IR ADSUB [IR1]
  9942
  9943					;**********
  9944					PAGE
DFKAA PDP-10 KL10 BASIC INSTRUCTION DIAGNOSTIC (1) VER 0,2	MACRO %53B(1254)-4 11:50 11-Nov-24 Page 4-12
DFKAA2	MAC	13-Jan-89 10:22		TEST OF THE ADD INSTRUCTION

  9945
  9946					;THIS TEST CHECKS THE 'ADD' INSTRUCTION AND THE ADDER ON A 0NE-BIT-AT-A-TIME BASIS.
  9947					;A WORD OF ALL ZEROS IS ADDED TO AN
  9948					;AC CONTAINING ALL ZEROS EXCEPT FOR A ONE IN ONE AND ONLY ONE BIT,
  9949					;THE RESULT IS THAT THE AC CONTAINS THE SAME NUMBER WHICH WAS IN IT ORIGINALLY.
  9950					;THE AC IS THEN EQUIVALENCED WITH C(E) WHERE C(E)=C(AC).  THIS RESULT SHOULD
  9951					;BE ALL ONES.  NEXT, THE AC IS EQUIVALENCED WITH A WORD OF ALL ZEROS.
  9952					;THE FINAL RESULT SHOULD BE C(AC)=0. THIS
  9953					;TEST IS REPEATED 36 TIMES SO THAT A ONE MAY BE RIPPLED THOUGH
  9954					;EVERY BIT OF THE AC.
  9955					;THE AC IS CHECKED TO INSURE THAT IT CONTAINS ALL ZEROS.
  9956			011014		SN=SN+1
  9957			004000			ZZ=ZZ+ZZ
  9958						IFE	ZZ,<ZZ=1>
  9959	035233	200 00 0 00 070300 		MOVE	[ZZ]		;LOAD AC WITH A FLOATING ONE
  9960	035234	270 00 0 00 070253 		ADD	[0]		;*ADD OF ZERO TO FLOATING ONE
  9961	035235	444 00 0 00 070300 		EQV	[ZZ]		;RESULTS IN C(AC)=ALL ONES
  9962	035236	444 00 0 00 070253 		EQV	[0]		;RESULTS IN C(AC)=0
  9963	035237	332 00 0 00 000000 		SKIPE			;PASS TEST IF C(AC)=0
  9964						STOP^
  9965	035240	254 04 0 00 035241 		HALT	.+1		;TEST FAILED IF PROGRAM HALTS HERE
  9966	035241	324 00 0 00 035242 		JUMPA	.+1		;IF TEST FAILS, CHANGE THIS INSTRUCTION (JUMPA .+1) TO
  9967									;JUMPA X (X IS THE ADDRESS OF THE FIRST INSTRUCTION
  9968									;IN THE SUBTEST) TO LOOP ON ERROR^
  9969
  9970					;ADDX; AD AR + EN [ADAP], F CYC ACT EN A[F1],
  9971					;IR ADDX [IR1], IR ADSUB [IR1]
  9972
  9973					;**********
  9974					PAGE
DFKAA PDP-10 KL10 BASIC INSTRUCTION DIAGNOSTIC (1) VER 0,2	MACRO %53B(1254)-4 11:50 11-Nov-24 Page 4-13
DFKAA2	MAC	13-Jan-89 10:22		TEST OF THE ADD INSTRUCTION

  9975
  9976					;THIS TEST CHECKS THE 'ADD' INSTRUCTION AND THE ADDER ON A 0NE-BIT-AT-A-TIME BASIS.
  9977					;A WORD OF ALL ZEROS IS ADDED TO AN
  9978					;AC CONTAINING ALL ZEROS EXCEPT FOR A ONE IN ONE AND ONLY ONE BIT,
  9979					;THE RESULT IS THAT THE AC CONTAINS THE SAME NUMBER WHICH WAS IN IT ORIGINALLY.
  9980					;THE AC IS THEN EQUIVALENCED WITH C(E) WHERE C(E)=C(AC).  THIS RESULT SHOULD
  9981					;BE ALL ONES.  NEXT, THE AC IS EQUIVALENCED WITH A WORD OF ALL ZEROS.
  9982					;THE FINAL RESULT SHOULD BE C(AC)=0. THIS
  9983					;TEST IS REPEATED 36 TIMES SO THAT A ONE MAY BE RIPPLED THOUGH
  9984					;EVERY BIT OF THE AC.
  9985					;THE AC IS CHECKED TO INSURE THAT IT CONTAINS ALL ZEROS.
  9986			011015		SN=SN+1
  9987			010000			ZZ=ZZ+ZZ
  9988						IFE	ZZ,<ZZ=1>
  9989	035242	200 00 0 00 070301 		MOVE	[ZZ]		;LOAD AC WITH A FLOATING ONE
  9990	035243	270 00 0 00 070253 		ADD	[0]		;*ADD OF ZERO TO FLOATING ONE
  9991	035244	444 00 0 00 070301 		EQV	[ZZ]		;RESULTS IN C(AC)=ALL ONES
  9992	035245	444 00 0 00 070253 		EQV	[0]		;RESULTS IN C(AC)=0
  9993	035246	332 00 0 00 000000 		SKIPE			;PASS TEST IF C(AC)=0
  9994						STOP^
  9995	035247	254 04 0 00 035250 		HALT	.+1		;TEST FAILED IF PROGRAM HALTS HERE
  9996	035250	324 00 0 00 035251 		JUMPA	.+1		;IF TEST FAILS, CHANGE THIS INSTRUCTION (JUMPA .+1) TO
  9997									;JUMPA X (X IS THE ADDRESS OF THE FIRST INSTRUCTION
  9998									;IN THE SUBTEST) TO LOOP ON ERROR^
  9999
 10000					;ADDX; AD AR + EN [ADAP], F CYC ACT EN A[F1],
 10001					;IR ADDX [IR1], IR ADSUB [IR1]
 10002
 10003					;**********
 10004					PAGE
DFKAA PDP-10 KL10 BASIC INSTRUCTION DIAGNOSTIC (1) VER 0,2	MACRO %53B(1254)-4 11:50 11-Nov-24 Page 4-14
DFKAA2	MAC	13-Jan-89 10:22		TEST OF THE ADD INSTRUCTION

 10005
 10006					;THIS TEST CHECKS THE 'ADD' INSTRUCTION AND THE ADDER ON A 0NE-BIT-AT-A-TIME BASIS.
 10007					;A WORD OF ALL ZEROS IS ADDED TO AN
 10008					;AC CONTAINING ALL ZEROS EXCEPT FOR A ONE IN ONE AND ONLY ONE BIT,
 10009					;THE RESULT IS THAT THE AC CONTAINS THE SAME NUMBER WHICH WAS IN IT ORIGINALLY.
 10010					;THE AC IS THEN EQUIVALENCED WITH C(E) WHERE C(E)=C(AC).  THIS RESULT SHOULD
 10011					;BE ALL ONES.  NEXT, THE AC IS EQUIVALENCED WITH A WORD OF ALL ZEROS.
 10012					;THE FINAL RESULT SHOULD BE C(AC)=0. THIS
 10013					;TEST IS REPEATED 36 TIMES SO THAT A ONE MAY BE RIPPLED THOUGH
 10014					;EVERY BIT OF THE AC.
 10015					;THE AC IS CHECKED TO INSURE THAT IT CONTAINS ALL ZEROS.
 10016			011016		SN=SN+1
 10017			020000			ZZ=ZZ+ZZ
 10018						IFE	ZZ,<ZZ=1>
 10019	035251	200 00 0 00 070302 		MOVE	[ZZ]		;LOAD AC WITH A FLOATING ONE
 10020	035252	270 00 0 00 070253 		ADD	[0]		;*ADD OF ZERO TO FLOATING ONE
 10021	035253	444 00 0 00 070302 		EQV	[ZZ]		;RESULTS IN C(AC)=ALL ONES
 10022	035254	444 00 0 00 070253 		EQV	[0]		;RESULTS IN C(AC)=0
 10023	035255	332 00 0 00 000000 		SKIPE			;PASS TEST IF C(AC)=0
 10024						STOP^
 10025	035256	254 04 0 00 035257 		HALT	.+1		;TEST FAILED IF PROGRAM HALTS HERE
 10026	035257	324 00 0 00 035260 		JUMPA	.+1		;IF TEST FAILS, CHANGE THIS INSTRUCTION (JUMPA .+1) TO
 10027									;JUMPA X (X IS THE ADDRESS OF THE FIRST INSTRUCTION
 10028									;IN THE SUBTEST) TO LOOP ON ERROR^
 10029
 10030					;ADDX; AD AR + EN [ADAP], F CYC ACT EN A[F1],
 10031					;IR ADDX [IR1], IR ADSUB [IR1]
 10032
 10033					;**********
 10034					PAGE
DFKAA PDP-10 KL10 BASIC INSTRUCTION DIAGNOSTIC (1) VER 0,2	MACRO %53B(1254)-4 11:50 11-Nov-24 Page 4-15
DFKAA2	MAC	13-Jan-89 10:22		TEST OF THE ADD INSTRUCTION

 10035
 10036					;THIS TEST CHECKS THE 'ADD' INSTRUCTION AND THE ADDER ON A 0NE-BIT-AT-A-TIME BASIS.
 10037					;A WORD OF ALL ZEROS IS ADDED TO AN
 10038					;AC CONTAINING ALL ZEROS EXCEPT FOR A ONE IN ONE AND ONLY ONE BIT,
 10039					;THE RESULT IS THAT THE AC CONTAINS THE SAME NUMBER WHICH WAS IN IT ORIGINALLY.
 10040					;THE AC IS THEN EQUIVALENCED WITH C(E) WHERE C(E)=C(AC).  THIS RESULT SHOULD
 10041					;BE ALL ONES.  NEXT, THE AC IS EQUIVALENCED WITH A WORD OF ALL ZEROS.
 10042					;THE FINAL RESULT SHOULD BE C(AC)=0. THIS
 10043					;TEST IS REPEATED 36 TIMES SO THAT A ONE MAY BE RIPPLED THOUGH
 10044					;EVERY BIT OF THE AC.
 10045					;THE AC IS CHECKED TO INSURE THAT IT CONTAINS ALL ZEROS.
 10046			011017		SN=SN+1
 10047			040000			ZZ=ZZ+ZZ
 10048						IFE	ZZ,<ZZ=1>
 10049	035260	200 00 0 00 070303 		MOVE	[ZZ]		;LOAD AC WITH A FLOATING ONE
 10050	035261	270 00 0 00 070253 		ADD	[0]		;*ADD OF ZERO TO FLOATING ONE
 10051	035262	444 00 0 00 070303 		EQV	[ZZ]		;RESULTS IN C(AC)=ALL ONES
 10052	035263	444 00 0 00 070253 		EQV	[0]		;RESULTS IN C(AC)=0
 10053	035264	332 00 0 00 000000 		SKIPE			;PASS TEST IF C(AC)=0
 10054						STOP^
 10055	035265	254 04 0 00 035266 		HALT	.+1		;TEST FAILED IF PROGRAM HALTS HERE
 10056	035266	324 00 0 00 035267 		JUMPA	.+1		;IF TEST FAILS, CHANGE THIS INSTRUCTION (JUMPA .+1) TO
 10057									;JUMPA X (X IS THE ADDRESS OF THE FIRST INSTRUCTION
 10058									;IN THE SUBTEST) TO LOOP ON ERROR^
 10059
 10060					;ADDX; AD AR + EN [ADAP], F CYC ACT EN A[F1],
 10061					;IR ADDX [IR1], IR ADSUB [IR1]
 10062
 10063					;**********
 10064					PAGE
DFKAA PDP-10 KL10 BASIC INSTRUCTION DIAGNOSTIC (1) VER 0,2	MACRO %53B(1254)-4 11:50 11-Nov-24 Page 4-16
DFKAA2	MAC	13-Jan-89 10:22		TEST OF THE ADD INSTRUCTION

 10065
 10066					;THIS TEST CHECKS THE 'ADD' INSTRUCTION AND THE ADDER ON A 0NE-BIT-AT-A-TIME BASIS.
 10067					;A WORD OF ALL ZEROS IS ADDED TO AN
 10068					;AC CONTAINING ALL ZEROS EXCEPT FOR A ONE IN ONE AND ONLY ONE BIT,
 10069					;THE RESULT IS THAT THE AC CONTAINS THE SAME NUMBER WHICH WAS IN IT ORIGINALLY.
 10070					;THE AC IS THEN EQUIVALENCED WITH C(E) WHERE C(E)=C(AC).  THIS RESULT SHOULD
 10071					;BE ALL ONES.  NEXT, THE AC IS EQUIVALENCED WITH A WORD OF ALL ZEROS.
 10072					;THE FINAL RESULT SHOULD BE C(AC)=0. THIS
 10073					;TEST IS REPEATED 36 TIMES SO THAT A ONE MAY BE RIPPLED THOUGH
 10074					;EVERY BIT OF THE AC.
 10075					;THE AC IS CHECKED TO INSURE THAT IT CONTAINS ALL ZEROS.
 10076			011020		SN=SN+1
 10077			100000			ZZ=ZZ+ZZ
 10078						IFE	ZZ,<ZZ=1>
 10079	035267	200 00 0 00 070304 		MOVE	[ZZ]		;LOAD AC WITH A FLOATING ONE
 10080	035270	270 00 0 00 070253 		ADD	[0]		;*ADD OF ZERO TO FLOATING ONE
 10081	035271	444 00 0 00 070304 		EQV	[ZZ]		;RESULTS IN C(AC)=ALL ONES
 10082	035272	444 00 0 00 070253 		EQV	[0]		;RESULTS IN C(AC)=0
 10083	035273	332 00 0 00 000000 		SKIPE			;PASS TEST IF C(AC)=0
 10084						STOP^
 10085	035274	254 04 0 00 035275 		HALT	.+1		;TEST FAILED IF PROGRAM HALTS HERE
 10086	035275	324 00 0 00 035276 		JUMPA	.+1		;IF TEST FAILS, CHANGE THIS INSTRUCTION (JUMPA .+1) TO
 10087									;JUMPA X (X IS THE ADDRESS OF THE FIRST INSTRUCTION
 10088									;IN THE SUBTEST) TO LOOP ON ERROR^
 10089
 10090					;ADDX; AD AR + EN [ADAP], F CYC ACT EN A[F1],
 10091					;IR ADDX [IR1], IR ADSUB [IR1]
 10092
 10093					;**********
 10094					PAGE
DFKAA PDP-10 KL10 BASIC INSTRUCTION DIAGNOSTIC (1) VER 0,2	MACRO %53B(1254)-4 11:50 11-Nov-24 Page 4-17
DFKAA2	MAC	13-Jan-89 10:22		TEST OF THE ADD INSTRUCTION

 10095
 10096					;THIS TEST CHECKS THE 'ADD' INSTRUCTION AND THE ADDER ON A 0NE-BIT-AT-A-TIME BASIS.
 10097					;A WORD OF ALL ZEROS IS ADDED TO AN
 10098					;AC CONTAINING ALL ZEROS EXCEPT FOR A ONE IN ONE AND ONLY ONE BIT,
 10099					;THE RESULT IS THAT THE AC CONTAINS THE SAME NUMBER WHICH WAS IN IT ORIGINALLY.
 10100					;THE AC IS THEN EQUIVALENCED WITH C(E) WHERE C(E)=C(AC).  THIS RESULT SHOULD
 10101					;BE ALL ONES.  NEXT, THE AC IS EQUIVALENCED WITH A WORD OF ALL ZEROS.
 10102					;THE FINAL RESULT SHOULD BE C(AC)=0. THIS
 10103					;TEST IS REPEATED 36 TIMES SO THAT A ONE MAY BE RIPPLED THOUGH
 10104					;EVERY BIT OF THE AC.
 10105					;THE AC IS CHECKED TO INSURE THAT IT CONTAINS ALL ZEROS.
 10106			011021		SN=SN+1
 10107			200000			ZZ=ZZ+ZZ
 10108						IFE	ZZ,<ZZ=1>
 10109	035276	200 00 0 00 070305 		MOVE	[ZZ]		;LOAD AC WITH A FLOATING ONE
 10110	035277	270 00 0 00 070253 		ADD	[0]		;*ADD OF ZERO TO FLOATING ONE
 10111	035300	444 00 0 00 070305 		EQV	[ZZ]		;RESULTS IN C(AC)=ALL ONES
 10112	035301	444 00 0 00 070253 		EQV	[0]		;RESULTS IN C(AC)=0
 10113	035302	332 00 0 00 000000 		SKIPE			;PASS TEST IF C(AC)=0
 10114						STOP^
 10115	035303	254 04 0 00 035304 		HALT	.+1		;TEST FAILED IF PROGRAM HALTS HERE
 10116	035304	324 00 0 00 035305 		JUMPA	.+1		;IF TEST FAILS, CHANGE THIS INSTRUCTION (JUMPA .+1) TO
 10117									;JUMPA X (X IS THE ADDRESS OF THE FIRST INSTRUCTION
 10118									;IN THE SUBTEST) TO LOOP ON ERROR^
 10119
 10120					;ADDX; AD AR + EN [ADAP], F CYC ACT EN A[F1],
 10121					;IR ADDX [IR1], IR ADSUB [IR1]
 10122
 10123					;**********
 10124					PAGE
DFKAA PDP-10 KL10 BASIC INSTRUCTION DIAGNOSTIC (1) VER 0,2	MACRO %53B(1254)-4 11:50 11-Nov-24 Page 4-18
DFKAA2	MAC	13-Jan-89 10:22		TEST OF THE ADD INSTRUCTION

 10125
 10126					;THIS TEST CHECKS THE 'ADD' INSTRUCTION AND THE ADDER ON A 0NE-BIT-AT-A-TIME BASIS.
 10127					;A WORD OF ALL ZEROS IS ADDED TO AN
 10128					;AC CONTAINING ALL ZEROS EXCEPT FOR A ONE IN ONE AND ONLY ONE BIT,
 10129					;THE RESULT IS THAT THE AC CONTAINS THE SAME NUMBER WHICH WAS IN IT ORIGINALLY.
 10130					;THE AC IS THEN EQUIVALENCED WITH C(E) WHERE C(E)=C(AC).  THIS RESULT SHOULD
 10131					;BE ALL ONES.  NEXT, THE AC IS EQUIVALENCED WITH A WORD OF ALL ZEROS.
 10132					;THE FINAL RESULT SHOULD BE C(AC)=0. THIS
 10133					;TEST IS REPEATED 36 TIMES SO THAT A ONE MAY BE RIPPLED THOUGH
 10134					;EVERY BIT OF THE AC.
 10135					;THE AC IS CHECKED TO INSURE THAT IT CONTAINS ALL ZEROS.
 10136			011022		SN=SN+1
 10137			400000			ZZ=ZZ+ZZ
 10138						IFE	ZZ,<ZZ=1>
 10139	035305	200 00 0 00 070306 		MOVE	[ZZ]		;LOAD AC WITH A FLOATING ONE
 10140	035306	270 00 0 00 070253 		ADD	[0]		;*ADD OF ZERO TO FLOATING ONE
 10141	035307	444 00 0 00 070306 		EQV	[ZZ]		;RESULTS IN C(AC)=ALL ONES
 10142	035310	444 00 0 00 070253 		EQV	[0]		;RESULTS IN C(AC)=0
 10143	035311	332 00 0 00 000000 		SKIPE			;PASS TEST IF C(AC)=0
 10144						STOP^
 10145	035312	254 04 0 00 035313 		HALT	.+1		;TEST FAILED IF PROGRAM HALTS HERE
 10146	035313	324 00 0 00 035314 		JUMPA	.+1		;IF TEST FAILS, CHANGE THIS INSTRUCTION (JUMPA .+1) TO
 10147									;JUMPA X (X IS THE ADDRESS OF THE FIRST INSTRUCTION
 10148									;IN THE SUBTEST) TO LOOP ON ERROR^
 10149
 10150					;ADDX; AD AR + EN [ADAP], F CYC ACT EN A[F1],
 10151					;IR ADDX [IR1], IR ADSUB [IR1]
 10152
 10153					;**********
 10154					PAGE
DFKAA PDP-10 KL10 BASIC INSTRUCTION DIAGNOSTIC (1) VER 0,2	MACRO %53B(1254)-4 11:50 11-Nov-24 Page 4-19
DFKAA2	MAC	13-Jan-89 10:22		TEST OF THE ADD INSTRUCTION

 10155
 10156					;THIS TEST CHECKS THE 'ADD' INSTRUCTION AND THE ADDER ON A 0NE-BIT-AT-A-TIME BASIS.
 10157					;A WORD OF ALL ZEROS IS ADDED TO AN
 10158					;AC CONTAINING ALL ZEROS EXCEPT FOR A ONE IN ONE AND ONLY ONE BIT,
 10159					;THE RESULT IS THAT THE AC CONTAINS THE SAME NUMBER WHICH WAS IN IT ORIGINALLY.
 10160					;THE AC IS THEN EQUIVALENCED WITH C(E) WHERE C(E)=C(AC).  THIS RESULT SHOULD
 10161					;BE ALL ONES.  NEXT, THE AC IS EQUIVALENCED WITH A WORD OF ALL ZEROS.
 10162					;THE FINAL RESULT SHOULD BE C(AC)=0. THIS
 10163					;TEST IS REPEATED 36 TIMES SO THAT A ONE MAY BE RIPPLED THOUGH
 10164					;EVERY BIT OF THE AC.
 10165					;THE AC IS CHECKED TO INSURE THAT IT CONTAINS ALL ZEROS.
 10166			011023		SN=SN+1
 10167		000001	000000			ZZ=ZZ+ZZ
 10168						IFE	ZZ,<ZZ=1>
 10169	035314	200 00 0 00 070307 		MOVE	[ZZ]		;LOAD AC WITH A FLOATING ONE
 10170	035315	270 00 0 00 070253 		ADD	[0]		;*ADD OF ZERO TO FLOATING ONE
 10171	035316	444 00 0 00 070307 		EQV	[ZZ]		;RESULTS IN C(AC)=ALL ONES
 10172	035317	444 00 0 00 070253 		EQV	[0]		;RESULTS IN C(AC)=0
 10173	035320	332 00 0 00 000000 		SKIPE			;PASS TEST IF C(AC)=0
 10174						STOP^
 10175	035321	254 04 0 00 035322 		HALT	.+1		;TEST FAILED IF PROGRAM HALTS HERE
 10176	035322	324 00 0 00 035323 		JUMPA	.+1		;IF TEST FAILS, CHANGE THIS INSTRUCTION (JUMPA .+1) TO
 10177									;JUMPA X (X IS THE ADDRESS OF THE FIRST INSTRUCTION
 10178									;IN THE SUBTEST) TO LOOP ON ERROR^
 10179
 10180					;ADDX; AD AR + EN [ADAP], F CYC ACT EN A[F1],
 10181					;IR ADDX [IR1], IR ADSUB [IR1]
 10182
 10183					;**********
 10184					PAGE
DFKAA PDP-10 KL10 BASIC INSTRUCTION DIAGNOSTIC (1) VER 0,2	MACRO %53B(1254)-4 11:50 11-Nov-24 Page 4-20
DFKAA2	MAC	13-Jan-89 10:22		TEST OF THE ADD INSTRUCTION

 10185
 10186					;THIS TEST CHECKS THE 'ADD' INSTRUCTION AND THE ADDER ON A 0NE-BIT-AT-A-TIME BASIS.
 10187					;A WORD OF ALL ZEROS IS ADDED TO AN
 10188					;AC CONTAINING ALL ZEROS EXCEPT FOR A ONE IN ONE AND ONLY ONE BIT,
 10189					;THE RESULT IS THAT THE AC CONTAINS THE SAME NUMBER WHICH WAS IN IT ORIGINALLY.
 10190					;THE AC IS THEN EQUIVALENCED WITH C(E) WHERE C(E)=C(AC).  THIS RESULT SHOULD
 10191					;BE ALL ONES.  NEXT, THE AC IS EQUIVALENCED WITH A WORD OF ALL ZEROS.
 10192					;THE FINAL RESULT SHOULD BE C(AC)=0. THIS
 10193					;TEST IS REPEATED 36 TIMES SO THAT A ONE MAY BE RIPPLED THOUGH
 10194					;EVERY BIT OF THE AC.
 10195					;THE AC IS CHECKED TO INSURE THAT IT CONTAINS ALL ZEROS.
 10196			011024		SN=SN+1
 10197		000002	000000			ZZ=ZZ+ZZ
 10198						IFE	ZZ,<ZZ=1>
 10199	035323	200 00 0 00 070310 		MOVE	[ZZ]		;LOAD AC WITH A FLOATING ONE
 10200	035324	270 00 0 00 070253 		ADD	[0]		;*ADD OF ZERO TO FLOATING ONE
 10201	035325	444 00 0 00 070310 		EQV	[ZZ]		;RESULTS IN C(AC)=ALL ONES
 10202	035326	444 00 0 00 070253 		EQV	[0]		;RESULTS IN C(AC)=0
 10203	035327	332 00 0 00 000000 		SKIPE			;PASS TEST IF C(AC)=0
 10204						STOP^
 10205	035330	254 04 0 00 035331 		HALT	.+1		;TEST FAILED IF PROGRAM HALTS HERE
 10206	035331	324 00 0 00 035332 		JUMPA	.+1		;IF TEST FAILS, CHANGE THIS INSTRUCTION (JUMPA .+1) TO
 10207									;JUMPA X (X IS THE ADDRESS OF THE FIRST INSTRUCTION
 10208									;IN THE SUBTEST) TO LOOP ON ERROR^
 10209
 10210					;ADDX; AD AR + EN [ADAP], F CYC ACT EN A[F1],
 10211					;IR ADDX [IR1], IR ADSUB [IR1]
 10212
 10213					;**********
 10214					PAGE
DFKAA PDP-10 KL10 BASIC INSTRUCTION DIAGNOSTIC (1) VER 0,2	MACRO %53B(1254)-4 11:50 11-Nov-24 Page 4-21
DFKAA2	MAC	13-Jan-89 10:22		TEST OF THE ADD INSTRUCTION

 10215
 10216					;THIS TEST CHECKS THE 'ADD' INSTRUCTION AND THE ADDER ON A 0NE-BIT-AT-A-TIME BASIS.
 10217					;A WORD OF ALL ZEROS IS ADDED TO AN
 10218					;AC CONTAINING ALL ZEROS EXCEPT FOR A ONE IN ONE AND ONLY ONE BIT,
 10219					;THE RESULT IS THAT THE AC CONTAINS THE SAME NUMBER WHICH WAS IN IT ORIGINALLY.
 10220					;THE AC IS THEN EQUIVALENCED WITH C(E) WHERE C(E)=C(AC).  THIS RESULT SHOULD
 10221					;BE ALL ONES.  NEXT, THE AC IS EQUIVALENCED WITH A WORD OF ALL ZEROS.
 10222					;THE FINAL RESULT SHOULD BE C(AC)=0. THIS
 10223					;TEST IS REPEATED 36 TIMES SO THAT A ONE MAY BE RIPPLED THOUGH
 10224					;EVERY BIT OF THE AC.
 10225					;THE AC IS CHECKED TO INSURE THAT IT CONTAINS ALL ZEROS.
 10226			011025		SN=SN+1
 10227		000004	000000			ZZ=ZZ+ZZ
 10228						IFE	ZZ,<ZZ=1>
 10229	035332	200 00 0 00 070311 		MOVE	[ZZ]		;LOAD AC WITH A FLOATING ONE
 10230	035333	270 00 0 00 070253 		ADD	[0]		;*ADD OF ZERO TO FLOATING ONE
 10231	035334	444 00 0 00 070311 		EQV	[ZZ]		;RESULTS IN C(AC)=ALL ONES
 10232	035335	444 00 0 00 070253 		EQV	[0]		;RESULTS IN C(AC)=0
 10233	035336	332 00 0 00 000000 		SKIPE			;PASS TEST IF C(AC)=0
 10234						STOP^
 10235	035337	254 04 0 00 035340 		HALT	.+1		;TEST FAILED IF PROGRAM HALTS HERE
 10236	035340	324 00 0 00 035341 		JUMPA	.+1		;IF TEST FAILS, CHANGE THIS INSTRUCTION (JUMPA .+1) TO
 10237									;JUMPA X (X IS THE ADDRESS OF THE FIRST INSTRUCTION
 10238									;IN THE SUBTEST) TO LOOP ON ERROR^
 10239
 10240					;ADDX; AD AR + EN [ADAP], F CYC ACT EN A[F1],
 10241					;IR ADDX [IR1], IR ADSUB [IR1]
 10242
 10243					;**********
 10244					PAGE
DFKAA PDP-10 KL10 BASIC INSTRUCTION DIAGNOSTIC (1) VER 0,2	MACRO %53B(1254)-4 11:50 11-Nov-24 Page 4-22
DFKAA2	MAC	13-Jan-89 10:22		TEST OF THE ADD INSTRUCTION

 10245
 10246					;THIS TEST CHECKS THE 'ADD' INSTRUCTION AND THE ADDER ON A 0NE-BIT-AT-A-TIME BASIS.
 10247					;A WORD OF ALL ZEROS IS ADDED TO AN
 10248					;AC CONTAINING ALL ZEROS EXCEPT FOR A ONE IN ONE AND ONLY ONE BIT,
 10249					;THE RESULT IS THAT THE AC CONTAINS THE SAME NUMBER WHICH WAS IN IT ORIGINALLY.
 10250					;THE AC IS THEN EQUIVALENCED WITH C(E) WHERE C(E)=C(AC).  THIS RESULT SHOULD
 10251					;BE ALL ONES.  NEXT, THE AC IS EQUIVALENCED WITH A WORD OF ALL ZEROS.
 10252					;THE FINAL RESULT SHOULD BE C(AC)=0. THIS
 10253					;TEST IS REPEATED 36 TIMES SO THAT A ONE MAY BE RIPPLED THOUGH
 10254					;EVERY BIT OF THE AC.
 10255					;THE AC IS CHECKED TO INSURE THAT IT CONTAINS ALL ZEROS.
 10256			011026		SN=SN+1
 10257		000010	000000			ZZ=ZZ+ZZ
 10258						IFE	ZZ,<ZZ=1>
 10259	035341	200 00 0 00 070312 		MOVE	[ZZ]		;LOAD AC WITH A FLOATING ONE
 10260	035342	270 00 0 00 070253 		ADD	[0]		;*ADD OF ZERO TO FLOATING ONE
 10261	035343	444 00 0 00 070312 		EQV	[ZZ]		;RESULTS IN C(AC)=ALL ONES
 10262	035344	444 00 0 00 070253 		EQV	[0]		;RESULTS IN C(AC)=0
 10263	035345	332 00 0 00 000000 		SKIPE			;PASS TEST IF C(AC)=0
 10264						STOP^
 10265	035346	254 04 0 00 035347 		HALT	.+1		;TEST FAILED IF PROGRAM HALTS HERE
 10266	035347	324 00 0 00 035350 		JUMPA	.+1		;IF TEST FAILS, CHANGE THIS INSTRUCTION (JUMPA .+1) TO
 10267									;JUMPA X (X IS THE ADDRESS OF THE FIRST INSTRUCTION
 10268									;IN THE SUBTEST) TO LOOP ON ERROR^
 10269
 10270					;ADDX; AD AR + EN [ADAP], F CYC ACT EN A[F1],
 10271					;IR ADDX [IR1], IR ADSUB [IR1]
 10272
 10273					;**********
 10274					PAGE
DFKAA PDP-10 KL10 BASIC INSTRUCTION DIAGNOSTIC (1) VER 0,2	MACRO %53B(1254)-4 11:50 11-Nov-24 Page 4-23
DFKAA2	MAC	13-Jan-89 10:22		TEST OF THE ADD INSTRUCTION

 10275
 10276					;THIS TEST CHECKS THE 'ADD' INSTRUCTION AND THE ADDER ON A 0NE-BIT-AT-A-TIME BASIS.
 10277					;A WORD OF ALL ZEROS IS ADDED TO AN
 10278					;AC CONTAINING ALL ZEROS EXCEPT FOR A ONE IN ONE AND ONLY ONE BIT,
 10279					;THE RESULT IS THAT THE AC CONTAINS THE SAME NUMBER WHICH WAS IN IT ORIGINALLY.
 10280					;THE AC IS THEN EQUIVALENCED WITH C(E) WHERE C(E)=C(AC).  THIS RESULT SHOULD
 10281					;BE ALL ONES.  NEXT, THE AC IS EQUIVALENCED WITH A WORD OF ALL ZEROS.
 10282					;THE FINAL RESULT SHOULD BE C(AC)=0. THIS
 10283					;TEST IS REPEATED 36 TIMES SO THAT A ONE MAY BE RIPPLED THOUGH
 10284					;EVERY BIT OF THE AC.
 10285					;THE AC IS CHECKED TO INSURE THAT IT CONTAINS ALL ZEROS.
 10286			011027		SN=SN+1
 10287		000020	000000			ZZ=ZZ+ZZ
 10288						IFE	ZZ,<ZZ=1>
 10289	035350	200 00 0 00 070313 		MOVE	[ZZ]		;LOAD AC WITH A FLOATING ONE
 10290	035351	270 00 0 00 070253 		ADD	[0]		;*ADD OF ZERO TO FLOATING ONE
 10291	035352	444 00 0 00 070313 		EQV	[ZZ]		;RESULTS IN C(AC)=ALL ONES
 10292	035353	444 00 0 00 070253 		EQV	[0]		;RESULTS IN C(AC)=0
 10293	035354	332 00 0 00 000000 		SKIPE			;PASS TEST IF C(AC)=0
 10294						STOP^
 10295	035355	254 04 0 00 035356 		HALT	.+1		;TEST FAILED IF PROGRAM HALTS HERE
 10296	035356	324 00 0 00 035357 		JUMPA	.+1		;IF TEST FAILS, CHANGE THIS INSTRUCTION (JUMPA .+1) TO
 10297									;JUMPA X (X IS THE ADDRESS OF THE FIRST INSTRUCTION
 10298									;IN THE SUBTEST) TO LOOP ON ERROR^
 10299
 10300					;ADDX; AD AR + EN [ADAP], F CYC ACT EN A[F1],
 10301					;IR ADDX [IR1], IR ADSUB [IR1]
 10302
 10303					;**********
 10304					PAGE
DFKAA PDP-10 KL10 BASIC INSTRUCTION DIAGNOSTIC (1) VER 0,2	MACRO %53B(1254)-4 11:50 11-Nov-24 Page 4-24
DFKAA2	MAC	13-Jan-89 10:22		TEST OF THE ADD INSTRUCTION

 10305
 10306					;THIS TEST CHECKS THE 'ADD' INSTRUCTION AND THE ADDER ON A 0NE-BIT-AT-A-TIME BASIS.
 10307					;A WORD OF ALL ZEROS IS ADDED TO AN
 10308					;AC CONTAINING ALL ZEROS EXCEPT FOR A ONE IN ONE AND ONLY ONE BIT,
 10309					;THE RESULT IS THAT THE AC CONTAINS THE SAME NUMBER WHICH WAS IN IT ORIGINALLY.
 10310					;THE AC IS THEN EQUIVALENCED WITH C(E) WHERE C(E)=C(AC).  THIS RESULT SHOULD
 10311					;BE ALL ONES.  NEXT, THE AC IS EQUIVALENCED WITH A WORD OF ALL ZEROS.
 10312					;THE FINAL RESULT SHOULD BE C(AC)=0. THIS
 10313					;TEST IS REPEATED 36 TIMES SO THAT A ONE MAY BE RIPPLED THOUGH
 10314					;EVERY BIT OF THE AC.
 10315					;THE AC IS CHECKED TO INSURE THAT IT CONTAINS ALL ZEROS.
 10316			011030		SN=SN+1
 10317		000040	000000			ZZ=ZZ+ZZ
 10318						IFE	ZZ,<ZZ=1>
 10319	035357	200 00 0 00 070314 		MOVE	[ZZ]		;LOAD AC WITH A FLOATING ONE
 10320	035360	270 00 0 00 070253 		ADD	[0]		;*ADD OF ZERO TO FLOATING ONE
 10321	035361	444 00 0 00 070314 		EQV	[ZZ]		;RESULTS IN C(AC)=ALL ONES
 10322	035362	444 00 0 00 070253 		EQV	[0]		;RESULTS IN C(AC)=0
 10323	035363	332 00 0 00 000000 		SKIPE			;PASS TEST IF C(AC)=0
 10324						STOP^
 10325	035364	254 04 0 00 035365 		HALT	.+1		;TEST FAILED IF PROGRAM HALTS HERE
 10326	035365	324 00 0 00 035366 		JUMPA	.+1		;IF TEST FAILS, CHANGE THIS INSTRUCTION (JUMPA .+1) TO
 10327									;JUMPA X (X IS THE ADDRESS OF THE FIRST INSTRUCTION
 10328									;IN THE SUBTEST) TO LOOP ON ERROR^
 10329
 10330					;ADDX; AD AR + EN [ADAP], F CYC ACT EN A[F1],
 10331					;IR ADDX [IR1], IR ADSUB [IR1]
 10332
 10333					;**********
 10334					PAGE
DFKAA PDP-10 KL10 BASIC INSTRUCTION DIAGNOSTIC (1) VER 0,2	MACRO %53B(1254)-4 11:50 11-Nov-24 Page 4-25
DFKAA2	MAC	13-Jan-89 10:22		TEST OF THE ADD INSTRUCTION

 10335
 10336					;THIS TEST CHECKS THE 'ADD' INSTRUCTION AND THE ADDER ON A 0NE-BIT-AT-A-TIME BASIS.
 10337					;A WORD OF ALL ZEROS IS ADDED TO AN
 10338					;AC CONTAINING ALL ZEROS EXCEPT FOR A ONE IN ONE AND ONLY ONE BIT,
 10339					;THE RESULT IS THAT THE AC CONTAINS THE SAME NUMBER WHICH WAS IN IT ORIGINALLY.
 10340					;THE AC IS THEN EQUIVALENCED WITH C(E) WHERE C(E)=C(AC).  THIS RESULT SHOULD
 10341					;BE ALL ONES.  NEXT, THE AC IS EQUIVALENCED WITH A WORD OF ALL ZEROS.
 10342					;THE FINAL RESULT SHOULD BE C(AC)=0. THIS
 10343					;TEST IS REPEATED 36 TIMES SO THAT A ONE MAY BE RIPPLED THOUGH
 10344					;EVERY BIT OF THE AC.
 10345					;THE AC IS CHECKED TO INSURE THAT IT CONTAINS ALL ZEROS.
 10346			011031		SN=SN+1
 10347		000100	000000			ZZ=ZZ+ZZ
 10348						IFE	ZZ,<ZZ=1>
 10349	035366	200 00 0 00 070315 		MOVE	[ZZ]		;LOAD AC WITH A FLOATING ONE
 10350	035367	270 00 0 00 070253 		ADD	[0]		;*ADD OF ZERO TO FLOATING ONE
 10351	035370	444 00 0 00 070315 		EQV	[ZZ]		;RESULTS IN C(AC)=ALL ONES
 10352	035371	444 00 0 00 070253 		EQV	[0]		;RESULTS IN C(AC)=0
 10353	035372	332 00 0 00 000000 		SKIPE			;PASS TEST IF C(AC)=0
 10354						STOP^
 10355	035373	254 04 0 00 035374 		HALT	.+1		;TEST FAILED IF PROGRAM HALTS HERE
 10356	035374	324 00 0 00 035375 		JUMPA	.+1		;IF TEST FAILS, CHANGE THIS INSTRUCTION (JUMPA .+1) TO
 10357									;JUMPA X (X IS THE ADDRESS OF THE FIRST INSTRUCTION
 10358									;IN THE SUBTEST) TO LOOP ON ERROR^
 10359
 10360					;ADDX; AD AR + EN [ADAP], F CYC ACT EN A[F1],
 10361					;IR ADDX [IR1], IR ADSUB [IR1]
 10362
 10363					;**********
 10364					PAGE
DFKAA PDP-10 KL10 BASIC INSTRUCTION DIAGNOSTIC (1) VER 0,2	MACRO %53B(1254)-4 11:50 11-Nov-24 Page 4-26
DFKAA2	MAC	13-Jan-89 10:22		TEST OF THE ADD INSTRUCTION

 10365
 10366					;THIS TEST CHECKS THE 'ADD' INSTRUCTION AND THE ADDER ON A 0NE-BIT-AT-A-TIME BASIS.
 10367					;A WORD OF ALL ZEROS IS ADDED TO AN
 10368					;AC CONTAINING ALL ZEROS EXCEPT FOR A ONE IN ONE AND ONLY ONE BIT,
 10369					;THE RESULT IS THAT THE AC CONTAINS THE SAME NUMBER WHICH WAS IN IT ORIGINALLY.
 10370					;THE AC IS THEN EQUIVALENCED WITH C(E) WHERE C(E)=C(AC).  THIS RESULT SHOULD
 10371					;BE ALL ONES.  NEXT, THE AC IS EQUIVALENCED WITH A WORD OF ALL ZEROS.
 10372					;THE FINAL RESULT SHOULD BE C(AC)=0. THIS
 10373					;TEST IS REPEATED 36 TIMES SO THAT A ONE MAY BE RIPPLED THOUGH
 10374					;EVERY BIT OF THE AC.
 10375					;THE AC IS CHECKED TO INSURE THAT IT CONTAINS ALL ZEROS.
 10376			011032		SN=SN+1
 10377		000200	000000			ZZ=ZZ+ZZ
 10378						IFE	ZZ,<ZZ=1>
 10379	035375	200 00 0 00 070316 		MOVE	[ZZ]		;LOAD AC WITH A FLOATING ONE
 10380	035376	270 00 0 00 070253 		ADD	[0]		;*ADD OF ZERO TO FLOATING ONE
 10381	035377	444 00 0 00 070316 		EQV	[ZZ]		;RESULTS IN C(AC)=ALL ONES
 10382	035400	444 00 0 00 070253 		EQV	[0]		;RESULTS IN C(AC)=0
 10383	035401	332 00 0 00 000000 		SKIPE			;PASS TEST IF C(AC)=0
 10384						STOP^
 10385	035402	254 04 0 00 035403 		HALT	.+1		;TEST FAILED IF PROGRAM HALTS HERE
 10386	035403	324 00 0 00 035404 		JUMPA	.+1		;IF TEST FAILS, CHANGE THIS INSTRUCTION (JUMPA .+1) TO
 10387									;JUMPA X (X IS THE ADDRESS OF THE FIRST INSTRUCTION
 10388									;IN THE SUBTEST) TO LOOP ON ERROR^
 10389
 10390					;ADDX; AD AR + EN [ADAP], F CYC ACT EN A[F1],
 10391					;IR ADDX [IR1], IR ADSUB [IR1]
 10392
 10393					;**********
 10394					PAGE
DFKAA PDP-10 KL10 BASIC INSTRUCTION DIAGNOSTIC (1) VER 0,2	MACRO %53B(1254)-4 11:50 11-Nov-24 Page 4-27
DFKAA2	MAC	13-Jan-89 10:22		TEST OF THE ADD INSTRUCTION

 10395
 10396					;THIS TEST CHECKS THE 'ADD' INSTRUCTION AND THE ADDER ON A 0NE-BIT-AT-A-TIME BASIS.
 10397					;A WORD OF ALL ZEROS IS ADDED TO AN
 10398					;AC CONTAINING ALL ZEROS EXCEPT FOR A ONE IN ONE AND ONLY ONE BIT,
 10399					;THE RESULT IS THAT THE AC CONTAINS THE SAME NUMBER WHICH WAS IN IT ORIGINALLY.
 10400					;THE AC IS THEN EQUIVALENCED WITH C(E) WHERE C(E)=C(AC).  THIS RESULT SHOULD
 10401					;BE ALL ONES.  NEXT, THE AC IS EQUIVALENCED WITH A WORD OF ALL ZEROS.
 10402					;THE FINAL RESULT SHOULD BE C(AC)=0. THIS
 10403					;TEST IS REPEATED 36 TIMES SO THAT A ONE MAY BE RIPPLED THOUGH
 10404					;EVERY BIT OF THE AC.
 10405					;THE AC IS CHECKED TO INSURE THAT IT CONTAINS ALL ZEROS.
 10406			011033		SN=SN+1
 10407		000400	000000			ZZ=ZZ+ZZ
 10408						IFE	ZZ,<ZZ=1>
 10409	035404	200 00 0 00 070264 		MOVE	[ZZ]		;LOAD AC WITH A FLOATING ONE
 10410	035405	270 00 0 00 070253 		ADD	[0]		;*ADD OF ZERO TO FLOATING ONE
 10411	035406	444 00 0 00 070264 		EQV	[ZZ]		;RESULTS IN C(AC)=ALL ONES
 10412	035407	444 00 0 00 070253 		EQV	[0]		;RESULTS IN C(AC)=0
 10413	035410	332 00 0 00 000000 		SKIPE			;PASS TEST IF C(AC)=0
 10414						STOP^
 10415	035411	254 04 0 00 035412 		HALT	.+1		;TEST FAILED IF PROGRAM HALTS HERE
 10416	035412	324 00 0 00 035413 		JUMPA	.+1		;IF TEST FAILS, CHANGE THIS INSTRUCTION (JUMPA .+1) TO
 10417									;JUMPA X (X IS THE ADDRESS OF THE FIRST INSTRUCTION
 10418									;IN THE SUBTEST) TO LOOP ON ERROR^
 10419
 10420					;ADDX; AD AR + EN [ADAP], F CYC ACT EN A[F1],
 10421					;IR ADDX [IR1], IR ADSUB [IR1]
 10422
 10423					;**********
 10424					PAGE
DFKAA PDP-10 KL10 BASIC INSTRUCTION DIAGNOSTIC (1) VER 0,2	MACRO %53B(1254)-4 11:50 11-Nov-24 Page 4-28
DFKAA2	MAC	13-Jan-89 10:22		TEST OF THE ADD INSTRUCTION

 10425
 10426					;THIS TEST CHECKS THE 'ADD' INSTRUCTION AND THE ADDER ON A 0NE-BIT-AT-A-TIME BASIS.
 10427					;A WORD OF ALL ZEROS IS ADDED TO AN
 10428					;AC CONTAINING ALL ZEROS EXCEPT FOR A ONE IN ONE AND ONLY ONE BIT,
 10429					;THE RESULT IS THAT THE AC CONTAINS THE SAME NUMBER WHICH WAS IN IT ORIGINALLY.
 10430					;THE AC IS THEN EQUIVALENCED WITH C(E) WHERE C(E)=C(AC).  THIS RESULT SHOULD
 10431					;BE ALL ONES.  NEXT, THE AC IS EQUIVALENCED WITH A WORD OF ALL ZEROS.
 10432					;THE FINAL RESULT SHOULD BE C(AC)=0. THIS
 10433					;TEST IS REPEATED 36 TIMES SO THAT A ONE MAY BE RIPPLED THOUGH
 10434					;EVERY BIT OF THE AC.
 10435					;THE AC IS CHECKED TO INSURE THAT IT CONTAINS ALL ZEROS.
 10436			011034		SN=SN+1
 10437		001000	000000			ZZ=ZZ+ZZ
 10438						IFE	ZZ,<ZZ=1>
 10439	035413	200 00 0 00 070317 		MOVE	[ZZ]		;LOAD AC WITH A FLOATING ONE
 10440	035414	270 00 0 00 070253 		ADD	[0]		;*ADD OF ZERO TO FLOATING ONE
 10441	035415	444 00 0 00 070317 		EQV	[ZZ]		;RESULTS IN C(AC)=ALL ONES
 10442	035416	444 00 0 00 070253 		EQV	[0]		;RESULTS IN C(AC)=0
 10443	035417	332 00 0 00 000000 		SKIPE			;PASS TEST IF C(AC)=0
 10444						STOP^
 10445	035420	254 04 0 00 035421 		HALT	.+1		;TEST FAILED IF PROGRAM HALTS HERE
 10446	035421	324 00 0 00 035422 		JUMPA	.+1		;IF TEST FAILS, CHANGE THIS INSTRUCTION (JUMPA .+1) TO
 10447									;JUMPA X (X IS THE ADDRESS OF THE FIRST INSTRUCTION
 10448									;IN THE SUBTEST) TO LOOP ON ERROR^
 10449
 10450					;ADDX; AD AR + EN [ADAP], F CYC ACT EN A[F1],
 10451					;IR ADDX [IR1], IR ADSUB [IR1]
 10452
 10453					;**********
 10454					PAGE
DFKAA PDP-10 KL10 BASIC INSTRUCTION DIAGNOSTIC (1) VER 0,2	MACRO %53B(1254)-4 11:50 11-Nov-24 Page 4-29
DFKAA2	MAC	13-Jan-89 10:22		TEST OF THE ADD INSTRUCTION

 10455
 10456					;THIS TEST CHECKS THE 'ADD' INSTRUCTION AND THE ADDER ON A 0NE-BIT-AT-A-TIME BASIS.
 10457					;A WORD OF ALL ZEROS IS ADDED TO AN
 10458					;AC CONTAINING ALL ZEROS EXCEPT FOR A ONE IN ONE AND ONLY ONE BIT,
 10459					;THE RESULT IS THAT THE AC CONTAINS THE SAME NUMBER WHICH WAS IN IT ORIGINALLY.
 10460					;THE AC IS THEN EQUIVALENCED WITH C(E) WHERE C(E)=C(AC).  THIS RESULT SHOULD
 10461					;BE ALL ONES.  NEXT, THE AC IS EQUIVALENCED WITH A WORD OF ALL ZEROS.
 10462					;THE FINAL RESULT SHOULD BE C(AC)=0. THIS
 10463					;TEST IS REPEATED 36 TIMES SO THAT A ONE MAY BE RIPPLED THOUGH
 10464					;EVERY BIT OF THE AC.
 10465					;THE AC IS CHECKED TO INSURE THAT IT CONTAINS ALL ZEROS.
 10466			011035		SN=SN+1
 10467		002000	000000			ZZ=ZZ+ZZ
 10468						IFE	ZZ,<ZZ=1>
 10469	035422	200 00 0 00 070320 		MOVE	[ZZ]		;LOAD AC WITH A FLOATING ONE
 10470	035423	270 00 0 00 070253 		ADD	[0]		;*ADD OF ZERO TO FLOATING ONE
 10471	035424	444 00 0 00 070320 		EQV	[ZZ]		;RESULTS IN C(AC)=ALL ONES
 10472	035425	444 00 0 00 070253 		EQV	[0]		;RESULTS IN C(AC)=0
 10473	035426	332 00 0 00 000000 		SKIPE			;PASS TEST IF C(AC)=0
 10474						STOP^
 10475	035427	254 04 0 00 035430 		HALT	.+1		;TEST FAILED IF PROGRAM HALTS HERE
 10476	035430	324 00 0 00 035431 		JUMPA	.+1		;IF TEST FAILS, CHANGE THIS INSTRUCTION (JUMPA .+1) TO
 10477									;JUMPA X (X IS THE ADDRESS OF THE FIRST INSTRUCTION
 10478									;IN THE SUBTEST) TO LOOP ON ERROR^
 10479
 10480					;ADDX; AD AR + EN [ADAP], F CYC ACT EN A[F1],
 10481					;IR ADDX [IR1], IR ADSUB [IR1]
 10482
 10483					;**********
 10484					PAGE
DFKAA PDP-10 KL10 BASIC INSTRUCTION DIAGNOSTIC (1) VER 0,2	MACRO %53B(1254)-4 11:50 11-Nov-24 Page 4-30
DFKAA2	MAC	13-Jan-89 10:22		TEST OF THE ADD INSTRUCTION

 10485
 10486					;THIS TEST CHECKS THE 'ADD' INSTRUCTION AND THE ADDER ON A 0NE-BIT-AT-A-TIME BASIS.
 10487					;A WORD OF ALL ZEROS IS ADDED TO AN
 10488					;AC CONTAINING ALL ZEROS EXCEPT FOR A ONE IN ONE AND ONLY ONE BIT,
 10489					;THE RESULT IS THAT THE AC CONTAINS THE SAME NUMBER WHICH WAS IN IT ORIGINALLY.
 10490					;THE AC IS THEN EQUIVALENCED WITH C(E) WHERE C(E)=C(AC).  THIS RESULT SHOULD
 10491					;BE ALL ONES.  NEXT, THE AC IS EQUIVALENCED WITH A WORD OF ALL ZEROS.
 10492					;THE FINAL RESULT SHOULD BE C(AC)=0. THIS
 10493					;TEST IS REPEATED 36 TIMES SO THAT A ONE MAY BE RIPPLED THOUGH
 10494					;EVERY BIT OF THE AC.
 10495					;THE AC IS CHECKED TO INSURE THAT IT CONTAINS ALL ZEROS.
 10496			011036		SN=SN+1
 10497		004000	000000			ZZ=ZZ+ZZ
 10498						IFE	ZZ,<ZZ=1>
 10499	035431	200 00 0 00 070321 		MOVE	[ZZ]		;LOAD AC WITH A FLOATING ONE
 10500	035432	270 00 0 00 070253 		ADD	[0]		;*ADD OF ZERO TO FLOATING ONE
 10501	035433	444 00 0 00 070321 		EQV	[ZZ]		;RESULTS IN C(AC)=ALL ONES
 10502	035434	444 00 0 00 070253 		EQV	[0]		;RESULTS IN C(AC)=0
 10503	035435	332 00 0 00 000000 		SKIPE			;PASS TEST IF C(AC)=0
 10504						STOP^
 10505	035436	254 04 0 00 035437 		HALT	.+1		;TEST FAILED IF PROGRAM HALTS HERE
 10506	035437	324 00 0 00 035440 		JUMPA	.+1		;IF TEST FAILS, CHANGE THIS INSTRUCTION (JUMPA .+1) TO
 10507									;JUMPA X (X IS THE ADDRESS OF THE FIRST INSTRUCTION
 10508									;IN THE SUBTEST) TO LOOP ON ERROR^
 10509
 10510					;ADDX; AD AR + EN [ADAP], F CYC ACT EN A[F1],
 10511					;IR ADDX [IR1], IR ADSUB [IR1]
 10512
 10513					;**********
 10514					PAGE
DFKAA PDP-10 KL10 BASIC INSTRUCTION DIAGNOSTIC (1) VER 0,2	MACRO %53B(1254)-4 11:50 11-Nov-24 Page 4-31
DFKAA2	MAC	13-Jan-89 10:22		TEST OF THE ADD INSTRUCTION

 10515
 10516					;THIS TEST CHECKS THE 'ADD' INSTRUCTION AND THE ADDER ON A 0NE-BIT-AT-A-TIME BASIS.
 10517					;A WORD OF ALL ZEROS IS ADDED TO AN
 10518					;AC CONTAINING ALL ZEROS EXCEPT FOR A ONE IN ONE AND ONLY ONE BIT,
 10519					;THE RESULT IS THAT THE AC CONTAINS THE SAME NUMBER WHICH WAS IN IT ORIGINALLY.
 10520					;THE AC IS THEN EQUIVALENCED WITH C(E) WHERE C(E)=C(AC).  THIS RESULT SHOULD
 10521					;BE ALL ONES.  NEXT, THE AC IS EQUIVALENCED WITH A WORD OF ALL ZEROS.
 10522					;THE FINAL RESULT SHOULD BE C(AC)=0. THIS
 10523					;TEST IS REPEATED 36 TIMES SO THAT A ONE MAY BE RIPPLED THOUGH
 10524					;EVERY BIT OF THE AC.
 10525					;THE AC IS CHECKED TO INSURE THAT IT CONTAINS ALL ZEROS.
 10526			011037		SN=SN+1
 10527		010000	000000			ZZ=ZZ+ZZ
 10528						IFE	ZZ,<ZZ=1>
 10529	035440	200 00 0 00 070322 		MOVE	[ZZ]		;LOAD AC WITH A FLOATING ONE
 10530	035441	270 00 0 00 070253 		ADD	[0]		;*ADD OF ZERO TO FLOATING ONE
 10531	035442	444 00 0 00 070322 		EQV	[ZZ]		;RESULTS IN C(AC)=ALL ONES
 10532	035443	444 00 0 00 070253 		EQV	[0]		;RESULTS IN C(AC)=0
 10533	035444	332 00 0 00 000000 		SKIPE			;PASS TEST IF C(AC)=0
 10534						STOP^
 10535	035445	254 04 0 00 035446 		HALT	.+1		;TEST FAILED IF PROGRAM HALTS HERE
 10536	035446	324 00 0 00 035447 		JUMPA	.+1		;IF TEST FAILS, CHANGE THIS INSTRUCTION (JUMPA .+1) TO
 10537									;JUMPA X (X IS THE ADDRESS OF THE FIRST INSTRUCTION
 10538									;IN THE SUBTEST) TO LOOP ON ERROR^
 10539
 10540					;ADDX; AD AR + EN [ADAP], F CYC ACT EN A[F1],
 10541					;IR ADDX [IR1], IR ADSUB [IR1]
 10542
 10543					;**********
 10544					PAGE
DFKAA PDP-10 KL10 BASIC INSTRUCTION DIAGNOSTIC (1) VER 0,2	MACRO %53B(1254)-4 11:50 11-Nov-24 Page 4-32
DFKAA2	MAC	13-Jan-89 10:22		TEST OF THE ADD INSTRUCTION

 10545
 10546					;THIS TEST CHECKS THE 'ADD' INSTRUCTION AND THE ADDER ON A 0NE-BIT-AT-A-TIME BASIS.
 10547					;A WORD OF ALL ZEROS IS ADDED TO AN
 10548					;AC CONTAINING ALL ZEROS EXCEPT FOR A ONE IN ONE AND ONLY ONE BIT,
 10549					;THE RESULT IS THAT THE AC CONTAINS THE SAME NUMBER WHICH WAS IN IT ORIGINALLY.
 10550					;THE AC IS THEN EQUIVALENCED WITH C(E) WHERE C(E)=C(AC).  THIS RESULT SHOULD
 10551					;BE ALL ONES.  NEXT, THE AC IS EQUIVALENCED WITH A WORD OF ALL ZEROS.
 10552					;THE FINAL RESULT SHOULD BE C(AC)=0. THIS
 10553					;TEST IS REPEATED 36 TIMES SO THAT A ONE MAY BE RIPPLED THOUGH
 10554					;EVERY BIT OF THE AC.
 10555					;THE AC IS CHECKED TO INSURE THAT IT CONTAINS ALL ZEROS.
 10556			011040		SN=SN+1
 10557		020000	000000			ZZ=ZZ+ZZ
 10558						IFE	ZZ,<ZZ=1>
 10559	035447	200 00 0 00 070323 		MOVE	[ZZ]		;LOAD AC WITH A FLOATING ONE
 10560	035450	270 00 0 00 070253 		ADD	[0]		;*ADD OF ZERO TO FLOATING ONE
 10561	035451	444 00 0 00 070323 		EQV	[ZZ]		;RESULTS IN C(AC)=ALL ONES
 10562	035452	444 00 0 00 070253 		EQV	[0]		;RESULTS IN C(AC)=0
 10563	035453	332 00 0 00 000000 		SKIPE			;PASS TEST IF C(AC)=0
 10564						STOP^
 10565	035454	254 04 0 00 035455 		HALT	.+1		;TEST FAILED IF PROGRAM HALTS HERE
 10566	035455	324 00 0 00 035456 		JUMPA	.+1		;IF TEST FAILS, CHANGE THIS INSTRUCTION (JUMPA .+1) TO
 10567									;JUMPA X (X IS THE ADDRESS OF THE FIRST INSTRUCTION
 10568									;IN THE SUBTEST) TO LOOP ON ERROR^
 10569
 10570					;ADDX; AD AR + EN [ADAP], F CYC ACT EN A[F1],
 10571					;IR ADDX [IR1], IR ADSUB [IR1]
 10572
 10573					;**********
 10574					PAGE
DFKAA PDP-10 KL10 BASIC INSTRUCTION DIAGNOSTIC (1) VER 0,2	MACRO %53B(1254)-4 11:50 11-Nov-24 Page 4-33
DFKAA2	MAC	13-Jan-89 10:22		TEST OF THE ADD INSTRUCTION

 10575
 10576					;THIS TEST CHECKS THE 'ADD' INSTRUCTION AND THE ADDER ON A 0NE-BIT-AT-A-TIME BASIS.
 10577					;A WORD OF ALL ZEROS IS ADDED TO AN
 10578					;AC CONTAINING ALL ZEROS EXCEPT FOR A ONE IN ONE AND ONLY ONE BIT,
 10579					;THE RESULT IS THAT THE AC CONTAINS THE SAME NUMBER WHICH WAS IN IT ORIGINALLY.
 10580					;THE AC IS THEN EQUIVALENCED WITH C(E) WHERE C(E)=C(AC).  THIS RESULT SHOULD
 10581					;BE ALL ONES.  NEXT, THE AC IS EQUIVALENCED WITH A WORD OF ALL ZEROS.
 10582					;THE FINAL RESULT SHOULD BE C(AC)=0. THIS
 10583					;TEST IS REPEATED 36 TIMES SO THAT A ONE MAY BE RIPPLED THOUGH
 10584					;EVERY BIT OF THE AC.
 10585					;THE AC IS CHECKED TO INSURE THAT IT CONTAINS ALL ZEROS.
 10586			011041		SN=SN+1
 10587		040000	000000			ZZ=ZZ+ZZ
 10588						IFE	ZZ,<ZZ=1>
 10589	035456	200 00 0 00 070324 		MOVE	[ZZ]		;LOAD AC WITH A FLOATING ONE
 10590	035457	270 00 0 00 070253 		ADD	[0]		;*ADD OF ZERO TO FLOATING ONE
 10591	035460	444 00 0 00 070324 		EQV	[ZZ]		;RESULTS IN C(AC)=ALL ONES
 10592	035461	444 00 0 00 070253 		EQV	[0]		;RESULTS IN C(AC)=0
 10593	035462	332 00 0 00 000000 		SKIPE			;PASS TEST IF C(AC)=0
 10594						STOP^
 10595	035463	254 04 0 00 035464 		HALT	.+1		;TEST FAILED IF PROGRAM HALTS HERE
 10596	035464	324 00 0 00 035465 		JUMPA	.+1		;IF TEST FAILS, CHANGE THIS INSTRUCTION (JUMPA .+1) TO
 10597									;JUMPA X (X IS THE ADDRESS OF THE FIRST INSTRUCTION
 10598									;IN THE SUBTEST) TO LOOP ON ERROR^
 10599
 10600					;ADDX; AD AR + EN [ADAP], F CYC ACT EN A[F1],
 10601					;IR ADDX [IR1], IR ADSUB [IR1]
 10602
 10603					;**********
 10604					PAGE
DFKAA PDP-10 KL10 BASIC INSTRUCTION DIAGNOSTIC (1) VER 0,2	MACRO %53B(1254)-4 11:50 11-Nov-24 Page 4-34
DFKAA2	MAC	13-Jan-89 10:22		TEST OF THE ADD INSTRUCTION

 10605
 10606					;THIS TEST CHECKS THE 'ADD' INSTRUCTION AND THE ADDER ON A 0NE-BIT-AT-A-TIME BASIS.
 10607					;A WORD OF ALL ZEROS IS ADDED TO AN
 10608					;AC CONTAINING ALL ZEROS EXCEPT FOR A ONE IN ONE AND ONLY ONE BIT,
 10609					;THE RESULT IS THAT THE AC CONTAINS THE SAME NUMBER WHICH WAS IN IT ORIGINALLY.
 10610					;THE AC IS THEN EQUIVALENCED WITH C(E) WHERE C(E)=C(AC).  THIS RESULT SHOULD
 10611					;BE ALL ONES.  NEXT, THE AC IS EQUIVALENCED WITH A WORD OF ALL ZEROS.
 10612					;THE FINAL RESULT SHOULD BE C(AC)=0. THIS
 10613					;TEST IS REPEATED 36 TIMES SO THAT A ONE MAY BE RIPPLED THOUGH
 10614					;EVERY BIT OF THE AC.
 10615					;THE AC IS CHECKED TO INSURE THAT IT CONTAINS ALL ZEROS.
 10616			011042		SN=SN+1
 10617		100000	000000			ZZ=ZZ+ZZ
 10618						IFE	ZZ,<ZZ=1>
 10619	035465	200 00 0 00 070325 		MOVE	[ZZ]		;LOAD AC WITH A FLOATING ONE
 10620	035466	270 00 0 00 070253 		ADD	[0]		;*ADD OF ZERO TO FLOATING ONE
 10621	035467	444 00 0 00 070325 		EQV	[ZZ]		;RESULTS IN C(AC)=ALL ONES
 10622	035470	444 00 0 00 070253 		EQV	[0]		;RESULTS IN C(AC)=0
 10623	035471	332 00 0 00 000000 		SKIPE			;PASS TEST IF C(AC)=0
 10624						STOP^
 10625	035472	254 04 0 00 035473 		HALT	.+1		;TEST FAILED IF PROGRAM HALTS HERE
 10626	035473	324 00 0 00 035474 		JUMPA	.+1		;IF TEST FAILS, CHANGE THIS INSTRUCTION (JUMPA .+1) TO
 10627									;JUMPA X (X IS THE ADDRESS OF THE FIRST INSTRUCTION
 10628									;IN THE SUBTEST) TO LOOP ON ERROR^
 10629
 10630					;ADDX; AD AR + EN [ADAP], F CYC ACT EN A[F1],
 10631					;IR ADDX [IR1], IR ADSUB [IR1]
 10632
 10633					;**********
 10634					PAGE
DFKAA PDP-10 KL10 BASIC INSTRUCTION DIAGNOSTIC (1) VER 0,2	MACRO %53B(1254)-4 11:50 11-Nov-24 Page 4-35
DFKAA2	MAC	13-Jan-89 10:22		TEST OF THE ADD INSTRUCTION

 10635
 10636					;THIS TEST CHECKS THE 'ADD' INSTRUCTION AND THE ADDER ON A 0NE-BIT-AT-A-TIME BASIS.
 10637					;A WORD OF ALL ZEROS IS ADDED TO AN
 10638					;AC CONTAINING ALL ZEROS EXCEPT FOR A ONE IN ONE AND ONLY ONE BIT,
 10639					;THE RESULT IS THAT THE AC CONTAINS THE SAME NUMBER WHICH WAS IN IT ORIGINALLY.
 10640					;THE AC IS THEN EQUIVALENCED WITH C(E) WHERE C(E)=C(AC).  THIS RESULT SHOULD
 10641					;BE ALL ONES.  NEXT, THE AC IS EQUIVALENCED WITH A WORD OF ALL ZEROS.
 10642					;THE FINAL RESULT SHOULD BE C(AC)=0. THIS
 10643					;TEST IS REPEATED 36 TIMES SO THAT A ONE MAY BE RIPPLED THOUGH
 10644					;EVERY BIT OF THE AC.
 10645					;THE AC IS CHECKED TO INSURE THAT IT CONTAINS ALL ZEROS.
 10646			011043		SN=SN+1
 10647		200000	000000			ZZ=ZZ+ZZ
 10648						IFE	ZZ,<ZZ=1>
 10649	035474	200 00 0 00 070326 		MOVE	[ZZ]		;LOAD AC WITH A FLOATING ONE
 10650	035475	270 00 0 00 070253 		ADD	[0]		;*ADD OF ZERO TO FLOATING ONE
 10651	035476	444 00 0 00 070326 		EQV	[ZZ]		;RESULTS IN C(AC)=ALL ONES
 10652	035477	444 00 0 00 070253 		EQV	[0]		;RESULTS IN C(AC)=0
 10653	035500	332 00 0 00 000000 		SKIPE			;PASS TEST IF C(AC)=0
 10654						STOP^
 10655	035501	254 04 0 00 035502 		HALT	.+1		;TEST FAILED IF PROGRAM HALTS HERE
 10656	035502	324 00 0 00 035503 		JUMPA	.+1		;IF TEST FAILS, CHANGE THIS INSTRUCTION (JUMPA .+1) TO
 10657									;JUMPA X (X IS THE ADDRESS OF THE FIRST INSTRUCTION
 10658									;IN THE SUBTEST) TO LOOP ON ERROR^
 10659
 10660					;ADDX; AD AR + EN [ADAP], F CYC ACT EN A[F1],
 10661					;IR ADDX [IR1], IR ADSUB [IR1]
 10662
 10663					;**********
 10664					PAGE
DFKAA PDP-10 KL10 BASIC INSTRUCTION DIAGNOSTIC (1) VER 0,2	MACRO %53B(1254)-4 11:50 11-Nov-24 Page 4-36
DFKAA2	MAC	13-Jan-89 10:22		TEST OF THE ADD INSTRUCTION

 10665
 10666					;THIS TEST CHECKS THE 'ADD' INSTRUCTION AND THE ADDER ON A 0NE-BIT-AT-A-TIME BASIS.
 10667					;A WORD OF ALL ZEROS IS ADDED TO AN
 10668					;AC CONTAINING ALL ZEROS EXCEPT FOR A ONE IN ONE AND ONLY ONE BIT,
 10669					;THE RESULT IS THAT THE AC CONTAINS THE SAME NUMBER WHICH WAS IN IT ORIGINALLY.
 10670					;THE AC IS THEN EQUIVALENCED WITH C(E) WHERE C(E)=C(AC).  THIS RESULT SHOULD
 10671					;BE ALL ONES.  NEXT, THE AC IS EQUIVALENCED WITH A WORD OF ALL ZEROS.
 10672					;THE FINAL RESULT SHOULD BE C(AC)=0. THIS
 10673					;TEST IS REPEATED 36 TIMES SO THAT A ONE MAY BE RIPPLED THOUGH
 10674					;EVERY BIT OF THE AC.
 10675					;THE AC IS CHECKED TO INSURE THAT IT CONTAINS ALL ZEROS.
 10676			011044		SN=SN+1
 10677		400000	000000			ZZ=ZZ+ZZ
 10678						IFE	ZZ,<ZZ=1>
 10679	035503	200 00 0 00 070256 		MOVE	[ZZ]		;LOAD AC WITH A FLOATING ONE
 10680	035504	270 00 0 00 070253 		ADD	[0]		;*ADD OF ZERO TO FLOATING ONE
 10681	035505	444 00 0 00 070256 		EQV	[ZZ]		;RESULTS IN C(AC)=ALL ONES
 10682	035506	444 00 0 00 070253 		EQV	[0]		;RESULTS IN C(AC)=0
 10683	035507	332 00 0 00 000000 		SKIPE			;PASS TEST IF C(AC)=0
 10684						STOP^
 10685	035510	254 04 0 00 035511 		HALT	.+1		;TEST FAILED IF PROGRAM HALTS HERE
 10686	035511	324 00 0 00 035512 		JUMPA	.+1		;IF TEST FAILS, CHANGE THIS INSTRUCTION (JUMPA .+1) TO
 10687									;JUMPA X (X IS THE ADDRESS OF THE FIRST INSTRUCTION
 10688									;IN THE SUBTEST) TO LOOP ON ERROR^
 10689
 10690					;ADDX; AD AR + EN [ADAP], F CYC ACT EN A[F1],
 10691					;IR ADDX [IR1], IR ADSUB [IR1]
 10692
 10693					;**********
 10694					PAGE
DFKAA PDP-10 KL10 BASIC INSTRUCTION DIAGNOSTIC (1) VER 0,2	MACRO %53B(1254)-4 11:50 11-Nov-24 Page 4-37
DFKAA2	MAC	13-Jan-89 10:22		TEST OF THE ADD INSTRUCTION

 10695
DFKAA PDP-10 KL10 BASIC INSTRUCTION DIAGNOSTIC (1) VER 0,2	MACRO %53B(1254)-4 11:50 11-Nov-24 Page 5
DFKAA2	MAC	13-Jan-89 10:22		TEST OF THE ADD INSTRUCTION

 10696					;THIS TEST VERIFIES THAT THE ADDITION OF A WORD OF
 10697					;ALL ZEROS TO AN AC OF ALL ZEROS RESULTS IN
 10698					;C(AC)=0. FIRST THE AC IS CLEARED; THEN, A WORD
 10699					;OF ALL ZEROS IS ADDED TO THE AC. THE RESULT IN
 10700					;THE AC IS THEN CHECKED TO INSURE THAT C(AC)=0
 10701
 10702	035512	200 00 0 00 070253 	A11100:	MOVE	[0]		;PRESET AC TO ZERO
 10703	035513	270 00 0 00 070253 		ADD	[0]		;*ADD OF ZERO TO ZERO SHOULD RESULT IN C(AC)=0
 10704	035514	332 00 0 00 000000 		SKIPE			;PASS TEST IF C(AC)=0
 10705						STOP^
 10706	035515	254 04 0 00 035516 		HALT	.+1		;TEST FAILED IF PROGRAM HALTS HERE
 10707	035516	324 00 0 00 035517 		JUMPA	.+1		;IF TEST FAILS, CHANGE THIS INSTRUCTION (JUMPA .+1) TO
 10708									;JUMPA X (X IS THE ADDRESS OF THE FIRST INSTRUCTION
 10709									;IN THE SUBTEST) TO LOOP ON ERROR^
 10710
 10711					;FCE[F1], IR AD SUB [IR1]
 10712					;AD FM + EN [ADFP], AD FM + EN A [ADFP],
 10713					;F CYC ACT EN C[F1], IR ADSUB [IR1]
 10714
 10715					;**********
DFKAA PDP-10 KL10 BASIC INSTRUCTION DIAGNOSTIC (1) VER 0,2	MACRO %53B(1254)-4 11:50 11-Nov-24 Page 6
DFKAA2	MAC	13-Jan-89 10:22		TEST OF THE ADD INSTRUCTION

 10716					;ADD ZERO TO A RIPPLED ONE
 10717
 10718			013200		SN=13200
 10719			000000			ZZ=0
 10720
 10721					A13200:	REPEAT	^D36,
 10722					<;THIS TEST CHECKS THE 'ADD' INSTRUCTION AND THE ADDER ON A 0NE-BIT-AT-A-TIME BASIS.
 10723					;TO AN AC  OF ALL ZEROS IS ADDED A
 10724					;WORD CONTAINING ALL ZEROS EXCEPT FOR A ONE IN ONE AND ONLY ONE BIT,
 10725					;THE RESULT IS THAT THE AC CONTAINS THE SAME NUMBER WHICH WAS ADDED TO IT.
 10726					;THE AC IS THEN EQUIVALENCED WITH C(E) WHERE C(E)=C(AC).  THIS RESULT SHOULD
 10727					;BE ALL ONES.  NEXT, THE AC IS EQUIVALENCED WITH A WORD OF ALL ZEROS.
 10728					;THE FINAL RESULT SHOULD BE C(AC)=0. THIS
 10729					;TEST IS REPEATED 36 TIMES SO THAT A ONE MAY BE RIPPLED THOUGH
 10730					;EVERY BIT OF THE AC.
 10731					;THE AC IS CHECKED TO INSURE THAT IT CONTAINS ALL ZEROS.
 10732					SN=SN+1
 10733						ZZ=ZZ+ZZ
 10734						IFE	ZZ,<ZZ=1>
 10735						MOVE	[0]		;LOAD AC WITH ALL ZEROS
 10736						ADD	[ZZ]		;*ADD OF FLOATING ONE TO ZERO
 10737						EQV	[ZZ]		;RESULTS IN C(AC)=ALL ONES
 10738						EQV	[0]		;RESULTS IN C(AC)=0
 10739						SKIPE			;PASS TEST IF C(AC)=0
 10740						STOP
 10741
 10742					;**********
 10743					>
 10744					;THIS TEST CHECKS THE 'ADD' INSTRUCTION AND THE ADDER ON A 0NE-BIT-AT-A-TIME BASIS.
 10745					;TO AN AC  OF ALL ZEROS IS ADDED A
 10746					;WORD CONTAINING ALL ZEROS EXCEPT FOR A ONE IN ONE AND ONLY ONE BIT,
 10747					;THE RESULT IS THAT THE AC CONTAINS THE SAME NUMBER WHICH WAS ADDED TO IT.
 10748					;THE AC IS THEN EQUIVALENCED WITH C(E) WHERE C(E)=C(AC).  THIS RESULT SHOULD
 10749					;BE ALL ONES.  NEXT, THE AC IS EQUIVALENCED WITH A WORD OF ALL ZEROS.
 10750					;THE FINAL RESULT SHOULD BE C(AC)=0. THIS
 10751					;TEST IS REPEATED 36 TIMES SO THAT A ONE MAY BE RIPPLED THOUGH
 10752					;EVERY BIT OF THE AC.
 10753					;THE AC IS CHECKED TO INSURE THAT IT CONTAINS ALL ZEROS.
 10754			013201		SN=SN+1
 10755			000000			ZZ=ZZ+ZZ
 10756			000001			IFE	ZZ,<ZZ=1>
 10757	035517	200 00 0 00 070253 		MOVE	[0]		;LOAD AC WITH ALL ZEROS
 10758	035520	270 00 0 00 070265 		ADD	[ZZ]		;*ADD OF FLOATING ONE TO ZERO
 10759	035521	444 00 0 00 070265 		EQV	[ZZ]		;RESULTS IN C(AC)=ALL ONES
 10760	035522	444 00 0 00 070253 		EQV	[0]		;RESULTS IN C(AC)=0
 10761	035523	332 00 0 00 000000 		SKIPE			;PASS TEST IF C(AC)=0
 10762						STOP^
 10763	035524	254 04 0 00 035525 		HALT	.+1		;TEST FAILED IF PROGRAM HALTS HERE
 10764	035525	324 00 0 00 035526 		JUMPA	.+1		;IF TEST FAILS, CHANGE THIS INSTRUCTION (JUMPA .+1) TO
 10765									;JUMPA X (X IS THE ADDRESS OF THE FIRST INSTRUCTION
 10766									;IN THE SUBTEST) TO LOOP ON ERROR^
 10767
 10768					;**********
 10769
 10770					;THIS TEST CHECKS THE 'ADD' INSTRUCTION AND THE ADDER ON A 0NE-BIT-AT-A-TIME BASIS.
DFKAA PDP-10 KL10 BASIC INSTRUCTION DIAGNOSTIC (1) VER 0,2	MACRO %53B(1254)-4 11:50 11-Nov-24 Page 6-1
DFKAA2	MAC	13-Jan-89 10:22		TEST OF THE ADD INSTRUCTION

 10771					;TO AN AC  OF ALL ZEROS IS ADDED A
 10772					;WORD CONTAINING ALL ZEROS EXCEPT FOR A ONE IN ONE AND ONLY ONE BIT,
 10773					;THE RESULT IS THAT THE AC CONTAINS THE SAME NUMBER WHICH WAS ADDED TO IT.
 10774					;THE AC IS THEN EQUIVALENCED WITH C(E) WHERE C(E)=C(AC).  THIS RESULT SHOULD
 10775					;BE ALL ONES.  NEXT, THE AC IS EQUIVALENCED WITH A WORD OF ALL ZEROS.
 10776					;THE FINAL RESULT SHOULD BE C(AC)=0. THIS
 10777					;TEST IS REPEATED 36 TIMES SO THAT A ONE MAY BE RIPPLED THOUGH
 10778					;EVERY BIT OF THE AC.
 10779					;THE AC IS CHECKED TO INSURE THAT IT CONTAINS ALL ZEROS.
 10780			013202		SN=SN+1
 10781			000002			ZZ=ZZ+ZZ
 10782						IFE	ZZ,<ZZ=1>
 10783	035526	200 00 0 00 070253 		MOVE	[0]		;LOAD AC WITH ALL ZEROS
 10784	035527	270 00 0 00 070266 		ADD	[ZZ]		;*ADD OF FLOATING ONE TO ZERO
 10785	035530	444 00 0 00 070266 		EQV	[ZZ]		;RESULTS IN C(AC)=ALL ONES
 10786	035531	444 00 0 00 070253 		EQV	[0]		;RESULTS IN C(AC)=0
 10787	035532	332 00 0 00 000000 		SKIPE			;PASS TEST IF C(AC)=0
 10788						STOP^
 10789	035533	254 04 0 00 035534 		HALT	.+1		;TEST FAILED IF PROGRAM HALTS HERE
 10790	035534	324 00 0 00 035535 		JUMPA	.+1		;IF TEST FAILS, CHANGE THIS INSTRUCTION (JUMPA .+1) TO
 10791									;JUMPA X (X IS THE ADDRESS OF THE FIRST INSTRUCTION
 10792									;IN THE SUBTEST) TO LOOP ON ERROR^
 10793
 10794					;**********
 10795
 10796					;THIS TEST CHECKS THE 'ADD' INSTRUCTION AND THE ADDER ON A 0NE-BIT-AT-A-TIME BASIS.
 10797					;TO AN AC  OF ALL ZEROS IS ADDED A
 10798					;WORD CONTAINING ALL ZEROS EXCEPT FOR A ONE IN ONE AND ONLY ONE BIT,
 10799					;THE RESULT IS THAT THE AC CONTAINS THE SAME NUMBER WHICH WAS ADDED TO IT.
 10800					;THE AC IS THEN EQUIVALENCED WITH C(E) WHERE C(E)=C(AC).  THIS RESULT SHOULD
 10801					;BE ALL ONES.  NEXT, THE AC IS EQUIVALENCED WITH A WORD OF ALL ZEROS.
 10802					;THE FINAL RESULT SHOULD BE C(AC)=0. THIS
 10803					;TEST IS REPEATED 36 TIMES SO THAT A ONE MAY BE RIPPLED THOUGH
 10804					;EVERY BIT OF THE AC.
 10805					;THE AC IS CHECKED TO INSURE THAT IT CONTAINS ALL ZEROS.
 10806			013203		SN=SN+1
 10807			000004			ZZ=ZZ+ZZ
 10808						IFE	ZZ,<ZZ=1>
 10809	035535	200 00 0 00 070253 		MOVE	[0]		;LOAD AC WITH ALL ZEROS
 10810	035536	270 00 0 00 070267 		ADD	[ZZ]		;*ADD OF FLOATING ONE TO ZERO
 10811	035537	444 00 0 00 070267 		EQV	[ZZ]		;RESULTS IN C(AC)=ALL ONES
 10812	035540	444 00 0 00 070253 		EQV	[0]		;RESULTS IN C(AC)=0
 10813	035541	332 00 0 00 000000 		SKIPE			;PASS TEST IF C(AC)=0
 10814						STOP^
 10815	035542	254 04 0 00 035543 		HALT	.+1		;TEST FAILED IF PROGRAM HALTS HERE
 10816	035543	324 00 0 00 035544 		JUMPA	.+1		;IF TEST FAILS, CHANGE THIS INSTRUCTION (JUMPA .+1) TO
 10817									;JUMPA X (X IS THE ADDRESS OF THE FIRST INSTRUCTION
 10818									;IN THE SUBTEST) TO LOOP ON ERROR^
 10819
 10820					;**********
 10821
 10822					;THIS TEST CHECKS THE 'ADD' INSTRUCTION AND THE ADDER ON A 0NE-BIT-AT-A-TIME BASIS.
 10823					;TO AN AC  OF ALL ZEROS IS ADDED A
 10824					;WORD CONTAINING ALL ZEROS EXCEPT FOR A ONE IN ONE AND ONLY ONE BIT,
 10825					;THE RESULT IS THAT THE AC CONTAINS THE SAME NUMBER WHICH WAS ADDED TO IT.
DFKAA PDP-10 KL10 BASIC INSTRUCTION DIAGNOSTIC (1) VER 0,2	MACRO %53B(1254)-4 11:50 11-Nov-24 Page 6-2
DFKAA2	MAC	13-Jan-89 10:22		TEST OF THE ADD INSTRUCTION

 10826					;THE AC IS THEN EQUIVALENCED WITH C(E) WHERE C(E)=C(AC).  THIS RESULT SHOULD
 10827					;BE ALL ONES.  NEXT, THE AC IS EQUIVALENCED WITH A WORD OF ALL ZEROS.
 10828					;THE FINAL RESULT SHOULD BE C(AC)=0. THIS
 10829					;TEST IS REPEATED 36 TIMES SO THAT A ONE MAY BE RIPPLED THOUGH
 10830					;EVERY BIT OF THE AC.
 10831					;THE AC IS CHECKED TO INSURE THAT IT CONTAINS ALL ZEROS.
 10832			013204		SN=SN+1
 10833			000010			ZZ=ZZ+ZZ
 10834						IFE	ZZ,<ZZ=1>
 10835	035544	200 00 0 00 070253 		MOVE	[0]		;LOAD AC WITH ALL ZEROS
 10836	035545	270 00 0 00 070270 		ADD	[ZZ]		;*ADD OF FLOATING ONE TO ZERO
 10837	035546	444 00 0 00 070270 		EQV	[ZZ]		;RESULTS IN C(AC)=ALL ONES
 10838	035547	444 00 0 00 070253 		EQV	[0]		;RESULTS IN C(AC)=0
 10839	035550	332 00 0 00 000000 		SKIPE			;PASS TEST IF C(AC)=0
 10840						STOP^
 10841	035551	254 04 0 00 035552 		HALT	.+1		;TEST FAILED IF PROGRAM HALTS HERE
 10842	035552	324 00 0 00 035553 		JUMPA	.+1		;IF TEST FAILS, CHANGE THIS INSTRUCTION (JUMPA .+1) TO
 10843									;JUMPA X (X IS THE ADDRESS OF THE FIRST INSTRUCTION
 10844									;IN THE SUBTEST) TO LOOP ON ERROR^
 10845
 10846					;**********
 10847
 10848					;THIS TEST CHECKS THE 'ADD' INSTRUCTION AND THE ADDER ON A 0NE-BIT-AT-A-TIME BASIS.
 10849					;TO AN AC  OF ALL ZEROS IS ADDED A
 10850					;WORD CONTAINING ALL ZEROS EXCEPT FOR A ONE IN ONE AND ONLY ONE BIT,
 10851					;THE RESULT IS THAT THE AC CONTAINS THE SAME NUMBER WHICH WAS ADDED TO IT.
 10852					;THE AC IS THEN EQUIVALENCED WITH C(E) WHERE C(E)=C(AC).  THIS RESULT SHOULD
 10853					;BE ALL ONES.  NEXT, THE AC IS EQUIVALENCED WITH A WORD OF ALL ZEROS.
 10854					;THE FINAL RESULT SHOULD BE C(AC)=0. THIS
 10855					;TEST IS REPEATED 36 TIMES SO THAT A ONE MAY BE RIPPLED THOUGH
 10856					;EVERY BIT OF THE AC.
 10857					;THE AC IS CHECKED TO INSURE THAT IT CONTAINS ALL ZEROS.
 10858			013205		SN=SN+1
 10859			000020			ZZ=ZZ+ZZ
 10860						IFE	ZZ,<ZZ=1>
 10861	035553	200 00 0 00 070253 		MOVE	[0]		;LOAD AC WITH ALL ZEROS
 10862	035554	270 00 0 00 070271 		ADD	[ZZ]		;*ADD OF FLOATING ONE TO ZERO
 10863	035555	444 00 0 00 070271 		EQV	[ZZ]		;RESULTS IN C(AC)=ALL ONES
 10864	035556	444 00 0 00 070253 		EQV	[0]		;RESULTS IN C(AC)=0
 10865	035557	332 00 0 00 000000 		SKIPE			;PASS TEST IF C(AC)=0
 10866						STOP^
 10867	035560	254 04 0 00 035561 		HALT	.+1		;TEST FAILED IF PROGRAM HALTS HERE
 10868	035561	324 00 0 00 035562 		JUMPA	.+1		;IF TEST FAILS, CHANGE THIS INSTRUCTION (JUMPA .+1) TO
 10869									;JUMPA X (X IS THE ADDRESS OF THE FIRST INSTRUCTION
 10870									;IN THE SUBTEST) TO LOOP ON ERROR^
 10871
 10872					;**********
 10873
 10874					;THIS TEST CHECKS THE 'ADD' INSTRUCTION AND THE ADDER ON A 0NE-BIT-AT-A-TIME BASIS.
 10875					;TO AN AC  OF ALL ZEROS IS ADDED A
 10876					;WORD CONTAINING ALL ZEROS EXCEPT FOR A ONE IN ONE AND ONLY ONE BIT,
 10877					;THE RESULT IS THAT THE AC CONTAINS THE SAME NUMBER WHICH WAS ADDED TO IT.
 10878					;THE AC IS THEN EQUIVALENCED WITH C(E) WHERE C(E)=C(AC).  THIS RESULT SHOULD
 10879					;BE ALL ONES.  NEXT, THE AC IS EQUIVALENCED WITH A WORD OF ALL ZEROS.
 10880					;THE FINAL RESULT SHOULD BE C(AC)=0. THIS
DFKAA PDP-10 KL10 BASIC INSTRUCTION DIAGNOSTIC (1) VER 0,2	MACRO %53B(1254)-4 11:50 11-Nov-24 Page 6-3
DFKAA2	MAC	13-Jan-89 10:22		TEST OF THE ADD INSTRUCTION

 10881					;TEST IS REPEATED 36 TIMES SO THAT A ONE MAY BE RIPPLED THOUGH
 10882					;EVERY BIT OF THE AC.
 10883					;THE AC IS CHECKED TO INSURE THAT IT CONTAINS ALL ZEROS.
 10884			013206		SN=SN+1
 10885			000040			ZZ=ZZ+ZZ
 10886						IFE	ZZ,<ZZ=1>
 10887	035562	200 00 0 00 070253 		MOVE	[0]		;LOAD AC WITH ALL ZEROS
 10888	035563	270 00 0 00 070272 		ADD	[ZZ]		;*ADD OF FLOATING ONE TO ZERO
 10889	035564	444 00 0 00 070272 		EQV	[ZZ]		;RESULTS IN C(AC)=ALL ONES
 10890	035565	444 00 0 00 070253 		EQV	[0]		;RESULTS IN C(AC)=0
 10891	035566	332 00 0 00 000000 		SKIPE			;PASS TEST IF C(AC)=0
 10892						STOP^
 10893	035567	254 04 0 00 035570 		HALT	.+1		;TEST FAILED IF PROGRAM HALTS HERE
 10894	035570	324 00 0 00 035571 		JUMPA	.+1		;IF TEST FAILS, CHANGE THIS INSTRUCTION (JUMPA .+1) TO
 10895									;JUMPA X (X IS THE ADDRESS OF THE FIRST INSTRUCTION
 10896									;IN THE SUBTEST) TO LOOP ON ERROR^
 10897
 10898					;**********
 10899
 10900					;THIS TEST CHECKS THE 'ADD' INSTRUCTION AND THE ADDER ON A 0NE-BIT-AT-A-TIME BASIS.
 10901					;TO AN AC  OF ALL ZEROS IS ADDED A
 10902					;WORD CONTAINING ALL ZEROS EXCEPT FOR A ONE IN ONE AND ONLY ONE BIT,
 10903					;THE RESULT IS THAT THE AC CONTAINS THE SAME NUMBER WHICH WAS ADDED TO IT.
 10904					;THE AC IS THEN EQUIVALENCED WITH C(E) WHERE C(E)=C(AC).  THIS RESULT SHOULD
 10905					;BE ALL ONES.  NEXT, THE AC IS EQUIVALENCED WITH A WORD OF ALL ZEROS.
 10906					;THE FINAL RESULT SHOULD BE C(AC)=0. THIS
 10907					;TEST IS REPEATED 36 TIMES SO THAT A ONE MAY BE RIPPLED THOUGH
 10908					;EVERY BIT OF THE AC.
 10909					;THE AC IS CHECKED TO INSURE THAT IT CONTAINS ALL ZEROS.
 10910			013207		SN=SN+1
 10911			000100			ZZ=ZZ+ZZ
 10912						IFE	ZZ,<ZZ=1>
 10913	035571	200 00 0 00 070253 		MOVE	[0]		;LOAD AC WITH ALL ZEROS
 10914	035572	270 00 0 00 070273 		ADD	[ZZ]		;*ADD OF FLOATING ONE TO ZERO
 10915	035573	444 00 0 00 070273 		EQV	[ZZ]		;RESULTS IN C(AC)=ALL ONES
 10916	035574	444 00 0 00 070253 		EQV	[0]		;RESULTS IN C(AC)=0
 10917	035575	332 00 0 00 000000 		SKIPE			;PASS TEST IF C(AC)=0
 10918						STOP^
 10919	035576	254 04 0 00 035577 		HALT	.+1		;TEST FAILED IF PROGRAM HALTS HERE
 10920	035577	324 00 0 00 035600 		JUMPA	.+1		;IF TEST FAILS, CHANGE THIS INSTRUCTION (JUMPA .+1) TO
 10921									;JUMPA X (X IS THE ADDRESS OF THE FIRST INSTRUCTION
 10922									;IN THE SUBTEST) TO LOOP ON ERROR^
 10923
 10924					;**********
 10925
 10926					;THIS TEST CHECKS THE 'ADD' INSTRUCTION AND THE ADDER ON A 0NE-BIT-AT-A-TIME BASIS.
 10927					;TO AN AC  OF ALL ZEROS IS ADDED A
 10928					;WORD CONTAINING ALL ZEROS EXCEPT FOR A ONE IN ONE AND ONLY ONE BIT,
 10929					;THE RESULT IS THAT THE AC CONTAINS THE SAME NUMBER WHICH WAS ADDED TO IT.
 10930					;THE AC IS THEN EQUIVALENCED WITH C(E) WHERE C(E)=C(AC).  THIS RESULT SHOULD
 10931					;BE ALL ONES.  NEXT, THE AC IS EQUIVALENCED WITH A WORD OF ALL ZEROS.
 10932					;THE FINAL RESULT SHOULD BE C(AC)=0. THIS
 10933					;TEST IS REPEATED 36 TIMES SO THAT A ONE MAY BE RIPPLED THOUGH
 10934					;EVERY BIT OF THE AC.
 10935					;THE AC IS CHECKED TO INSURE THAT IT CONTAINS ALL ZEROS.
DFKAA PDP-10 KL10 BASIC INSTRUCTION DIAGNOSTIC (1) VER 0,2	MACRO %53B(1254)-4 11:50 11-Nov-24 Page 6-4
DFKAA2	MAC	13-Jan-89 10:22		TEST OF THE ADD INSTRUCTION

 10936			013210		SN=SN+1
 10937			000200			ZZ=ZZ+ZZ
 10938						IFE	ZZ,<ZZ=1>
 10939	035600	200 00 0 00 070253 		MOVE	[0]		;LOAD AC WITH ALL ZEROS
 10940	035601	270 00 0 00 070274 		ADD	[ZZ]		;*ADD OF FLOATING ONE TO ZERO
 10941	035602	444 00 0 00 070274 		EQV	[ZZ]		;RESULTS IN C(AC)=ALL ONES
 10942	035603	444 00 0 00 070253 		EQV	[0]		;RESULTS IN C(AC)=0
 10943	035604	332 00 0 00 000000 		SKIPE			;PASS TEST IF C(AC)=0
 10944						STOP^
 10945	035605	254 04 0 00 035606 		HALT	.+1		;TEST FAILED IF PROGRAM HALTS HERE
 10946	035606	324 00 0 00 035607 		JUMPA	.+1		;IF TEST FAILS, CHANGE THIS INSTRUCTION (JUMPA .+1) TO
 10947									;JUMPA X (X IS THE ADDRESS OF THE FIRST INSTRUCTION
 10948									;IN THE SUBTEST) TO LOOP ON ERROR^
 10949
 10950					;**********
 10951
 10952					;THIS TEST CHECKS THE 'ADD' INSTRUCTION AND THE ADDER ON A 0NE-BIT-AT-A-TIME BASIS.
 10953					;TO AN AC  OF ALL ZEROS IS ADDED A
 10954					;WORD CONTAINING ALL ZEROS EXCEPT FOR A ONE IN ONE AND ONLY ONE BIT,
 10955					;THE RESULT IS THAT THE AC CONTAINS THE SAME NUMBER WHICH WAS ADDED TO IT.
 10956					;THE AC IS THEN EQUIVALENCED WITH C(E) WHERE C(E)=C(AC).  THIS RESULT SHOULD
 10957					;BE ALL ONES.  NEXT, THE AC IS EQUIVALENCED WITH A WORD OF ALL ZEROS.
 10958					;THE FINAL RESULT SHOULD BE C(AC)=0. THIS
 10959					;TEST IS REPEATED 36 TIMES SO THAT A ONE MAY BE RIPPLED THOUGH
 10960					;EVERY BIT OF THE AC.
 10961					;THE AC IS CHECKED TO INSURE THAT IT CONTAINS ALL ZEROS.
 10962			013211		SN=SN+1
 10963			000400			ZZ=ZZ+ZZ
 10964						IFE	ZZ,<ZZ=1>
 10965	035607	200 00 0 00 070253 		MOVE	[0]		;LOAD AC WITH ALL ZEROS
 10966	035610	270 00 0 00 070275 		ADD	[ZZ]		;*ADD OF FLOATING ONE TO ZERO
 10967	035611	444 00 0 00 070275 		EQV	[ZZ]		;RESULTS IN C(AC)=ALL ONES
 10968	035612	444 00 0 00 070253 		EQV	[0]		;RESULTS IN C(AC)=0
 10969	035613	332 00 0 00 000000 		SKIPE			;PASS TEST IF C(AC)=0
 10970						STOP^
 10971	035614	254 04 0 00 035615 		HALT	.+1		;TEST FAILED IF PROGRAM HALTS HERE
 10972	035615	324 00 0 00 035616 		JUMPA	.+1		;IF TEST FAILS, CHANGE THIS INSTRUCTION (JUMPA .+1) TO
 10973									;JUMPA X (X IS THE ADDRESS OF THE FIRST INSTRUCTION
 10974									;IN THE SUBTEST) TO LOOP ON ERROR^
 10975
 10976					;**********
 10977
 10978					;THIS TEST CHECKS THE 'ADD' INSTRUCTION AND THE ADDER ON A 0NE-BIT-AT-A-TIME BASIS.
 10979					;TO AN AC  OF ALL ZEROS IS ADDED A
 10980					;WORD CONTAINING ALL ZEROS EXCEPT FOR A ONE IN ONE AND ONLY ONE BIT,
 10981					;THE RESULT IS THAT THE AC CONTAINS THE SAME NUMBER WHICH WAS ADDED TO IT.
 10982					;THE AC IS THEN EQUIVALENCED WITH C(E) WHERE C(E)=C(AC).  THIS RESULT SHOULD
 10983					;BE ALL ONES.  NEXT, THE AC IS EQUIVALENCED WITH A WORD OF ALL ZEROS.
 10984					;THE FINAL RESULT SHOULD BE C(AC)=0. THIS
 10985					;TEST IS REPEATED 36 TIMES SO THAT A ONE MAY BE RIPPLED THOUGH
 10986					;EVERY BIT OF THE AC.
 10987					;THE AC IS CHECKED TO INSURE THAT IT CONTAINS ALL ZEROS.
 10988			013212		SN=SN+1
 10989			001000			ZZ=ZZ+ZZ
 10990						IFE	ZZ,<ZZ=1>
DFKAA PDP-10 KL10 BASIC INSTRUCTION DIAGNOSTIC (1) VER 0,2	MACRO %53B(1254)-4 11:50 11-Nov-24 Page 6-5
DFKAA2	MAC	13-Jan-89 10:22		TEST OF THE ADD INSTRUCTION

 10991	035616	200 00 0 00 070253 		MOVE	[0]		;LOAD AC WITH ALL ZEROS
 10992	035617	270 00 0 00 070276 		ADD	[ZZ]		;*ADD OF FLOATING ONE TO ZERO
 10993	035620	444 00 0 00 070276 		EQV	[ZZ]		;RESULTS IN C(AC)=ALL ONES
 10994	035621	444 00 0 00 070253 		EQV	[0]		;RESULTS IN C(AC)=0
 10995	035622	332 00 0 00 000000 		SKIPE			;PASS TEST IF C(AC)=0
 10996						STOP^
 10997	035623	254 04 0 00 035624 		HALT	.+1		;TEST FAILED IF PROGRAM HALTS HERE
 10998	035624	324 00 0 00 035625 		JUMPA	.+1		;IF TEST FAILS, CHANGE THIS INSTRUCTION (JUMPA .+1) TO
 10999									;JUMPA X (X IS THE ADDRESS OF THE FIRST INSTRUCTION
 11000									;IN THE SUBTEST) TO LOOP ON ERROR^
 11001
 11002					;**********
 11003
 11004					;THIS TEST CHECKS THE 'ADD' INSTRUCTION AND THE ADDER ON A 0NE-BIT-AT-A-TIME BASIS.
 11005					;TO AN AC  OF ALL ZEROS IS ADDED A
 11006					;WORD CONTAINING ALL ZEROS EXCEPT FOR A ONE IN ONE AND ONLY ONE BIT,
 11007					;THE RESULT IS THAT THE AC CONTAINS THE SAME NUMBER WHICH WAS ADDED TO IT.
 11008					;THE AC IS THEN EQUIVALENCED WITH C(E) WHERE C(E)=C(AC).  THIS RESULT SHOULD
 11009					;BE ALL ONES.  NEXT, THE AC IS EQUIVALENCED WITH A WORD OF ALL ZEROS.
 11010					;THE FINAL RESULT SHOULD BE C(AC)=0. THIS
 11011					;TEST IS REPEATED 36 TIMES SO THAT A ONE MAY BE RIPPLED THOUGH
 11012					;EVERY BIT OF THE AC.
 11013					;THE AC IS CHECKED TO INSURE THAT IT CONTAINS ALL ZEROS.
 11014			013213		SN=SN+1
 11015			002000			ZZ=ZZ+ZZ
 11016						IFE	ZZ,<ZZ=1>
 11017	035625	200 00 0 00 070253 		MOVE	[0]		;LOAD AC WITH ALL ZEROS
 11018	035626	270 00 0 00 070277 		ADD	[ZZ]		;*ADD OF FLOATING ONE TO ZERO
 11019	035627	444 00 0 00 070277 		EQV	[ZZ]		;RESULTS IN C(AC)=ALL ONES
 11020	035630	444 00 0 00 070253 		EQV	[0]		;RESULTS IN C(AC)=0
 11021	035631	332 00 0 00 000000 		SKIPE			;PASS TEST IF C(AC)=0
 11022						STOP^
 11023	035632	254 04 0 00 035633 		HALT	.+1		;TEST FAILED IF PROGRAM HALTS HERE
 11024	035633	324 00 0 00 035634 		JUMPA	.+1		;IF TEST FAILS, CHANGE THIS INSTRUCTION (JUMPA .+1) TO
 11025									;JUMPA X (X IS THE ADDRESS OF THE FIRST INSTRUCTION
 11026									;IN THE SUBTEST) TO LOOP ON ERROR^
 11027
 11028					;**********
 11029
 11030					;THIS TEST CHECKS THE 'ADD' INSTRUCTION AND THE ADDER ON A 0NE-BIT-AT-A-TIME BASIS.
 11031					;TO AN AC  OF ALL ZEROS IS ADDED A
 11032					;WORD CONTAINING ALL ZEROS EXCEPT FOR A ONE IN ONE AND ONLY ONE BIT,
 11033					;THE RESULT IS THAT THE AC CONTAINS THE SAME NUMBER WHICH WAS ADDED TO IT.
 11034					;THE AC IS THEN EQUIVALENCED WITH C(E) WHERE C(E)=C(AC).  THIS RESULT SHOULD
 11035					;BE ALL ONES.  NEXT, THE AC IS EQUIVALENCED WITH A WORD OF ALL ZEROS.
 11036					;THE FINAL RESULT SHOULD BE C(AC)=0. THIS
 11037					;TEST IS REPEATED 36 TIMES SO THAT A ONE MAY BE RIPPLED THOUGH
 11038					;EVERY BIT OF THE AC.
 11039					;THE AC IS CHECKED TO INSURE THAT IT CONTAINS ALL ZEROS.
 11040			013214		SN=SN+1
 11041			004000			ZZ=ZZ+ZZ
 11042						IFE	ZZ,<ZZ=1>
 11043	035634	200 00 0 00 070253 		MOVE	[0]		;LOAD AC WITH ALL ZEROS
 11044	035635	270 00 0 00 070300 		ADD	[ZZ]		;*ADD OF FLOATING ONE TO ZERO
 11045	035636	444 00 0 00 070300 		EQV	[ZZ]		;RESULTS IN C(AC)=ALL ONES
DFKAA PDP-10 KL10 BASIC INSTRUCTION DIAGNOSTIC (1) VER 0,2	MACRO %53B(1254)-4 11:50 11-Nov-24 Page 6-6
DFKAA2	MAC	13-Jan-89 10:22		TEST OF THE ADD INSTRUCTION

 11046	035637	444 00 0 00 070253 		EQV	[0]		;RESULTS IN C(AC)=0
 11047	035640	332 00 0 00 000000 		SKIPE			;PASS TEST IF C(AC)=0
 11048						STOP^
 11049	035641	254 04 0 00 035642 		HALT	.+1		;TEST FAILED IF PROGRAM HALTS HERE
 11050	035642	324 00 0 00 035643 		JUMPA	.+1		;IF TEST FAILS, CHANGE THIS INSTRUCTION (JUMPA .+1) TO
 11051									;JUMPA X (X IS THE ADDRESS OF THE FIRST INSTRUCTION
 11052									;IN THE SUBTEST) TO LOOP ON ERROR^
 11053
 11054					;**********
 11055
 11056					;THIS TEST CHECKS THE 'ADD' INSTRUCTION AND THE ADDER ON A 0NE-BIT-AT-A-TIME BASIS.
 11057					;TO AN AC  OF ALL ZEROS IS ADDED A
 11058					;WORD CONTAINING ALL ZEROS EXCEPT FOR A ONE IN ONE AND ONLY ONE BIT,
 11059					;THE RESULT IS THAT THE AC CONTAINS THE SAME NUMBER WHICH WAS ADDED TO IT.
 11060					;THE AC IS THEN EQUIVALENCED WITH C(E) WHERE C(E)=C(AC).  THIS RESULT SHOULD
 11061					;BE ALL ONES.  NEXT, THE AC IS EQUIVALENCED WITH A WORD OF ALL ZEROS.
 11062					;THE FINAL RESULT SHOULD BE C(AC)=0. THIS
 11063					;TEST IS REPEATED 36 TIMES SO THAT A ONE MAY BE RIPPLED THOUGH
 11064					;EVERY BIT OF THE AC.
 11065					;THE AC IS CHECKED TO INSURE THAT IT CONTAINS ALL ZEROS.
 11066			013215		SN=SN+1
 11067			010000			ZZ=ZZ+ZZ
 11068						IFE	ZZ,<ZZ=1>
 11069	035643	200 00 0 00 070253 		MOVE	[0]		;LOAD AC WITH ALL ZEROS
 11070	035644	270 00 0 00 070301 		ADD	[ZZ]		;*ADD OF FLOATING ONE TO ZERO
 11071	035645	444 00 0 00 070301 		EQV	[ZZ]		;RESULTS IN C(AC)=ALL ONES
 11072	035646	444 00 0 00 070253 		EQV	[0]		;RESULTS IN C(AC)=0
 11073	035647	332 00 0 00 000000 		SKIPE			;PASS TEST IF C(AC)=0
 11074						STOP^
 11075	035650	254 04 0 00 035651 		HALT	.+1		;TEST FAILED IF PROGRAM HALTS HERE
 11076	035651	324 00 0 00 035652 		JUMPA	.+1		;IF TEST FAILS, CHANGE THIS INSTRUCTION (JUMPA .+1) TO
 11077									;JUMPA X (X IS THE ADDRESS OF THE FIRST INSTRUCTION
 11078									;IN THE SUBTEST) TO LOOP ON ERROR^
 11079
 11080					;**********
 11081
 11082					;THIS TEST CHECKS THE 'ADD' INSTRUCTION AND THE ADDER ON A 0NE-BIT-AT-A-TIME BASIS.
 11083					;TO AN AC  OF ALL ZEROS IS ADDED A
 11084					;WORD CONTAINING ALL ZEROS EXCEPT FOR A ONE IN ONE AND ONLY ONE BIT,
 11085					;THE RESULT IS THAT THE AC CONTAINS THE SAME NUMBER WHICH WAS ADDED TO IT.
 11086					;THE AC IS THEN EQUIVALENCED WITH C(E) WHERE C(E)=C(AC).  THIS RESULT SHOULD
 11087					;BE ALL ONES.  NEXT, THE AC IS EQUIVALENCED WITH A WORD OF ALL ZEROS.
 11088					;THE FINAL RESULT SHOULD BE C(AC)=0. THIS
 11089					;TEST IS REPEATED 36 TIMES SO THAT A ONE MAY BE RIPPLED THOUGH
 11090					;EVERY BIT OF THE AC.
 11091					;THE AC IS CHECKED TO INSURE THAT IT CONTAINS ALL ZEROS.
 11092			013216		SN=SN+1
 11093			020000			ZZ=ZZ+ZZ
 11094						IFE	ZZ,<ZZ=1>
 11095	035652	200 00 0 00 070253 		MOVE	[0]		;LOAD AC WITH ALL ZEROS
 11096	035653	270 00 0 00 070302 		ADD	[ZZ]		;*ADD OF FLOATING ONE TO ZERO
 11097	035654	444 00 0 00 070302 		EQV	[ZZ]		;RESULTS IN C(AC)=ALL ONES
 11098	035655	444 00 0 00 070253 		EQV	[0]		;RESULTS IN C(AC)=0
 11099	035656	332 00 0 00 000000 		SKIPE			;PASS TEST IF C(AC)=0
 11100						STOP^
DFKAA PDP-10 KL10 BASIC INSTRUCTION DIAGNOSTIC (1) VER 0,2	MACRO %53B(1254)-4 11:50 11-Nov-24 Page 6-7
DFKAA2	MAC	13-Jan-89 10:22		TEST OF THE ADD INSTRUCTION

 11101	035657	254 04 0 00 035660 		HALT	.+1		;TEST FAILED IF PROGRAM HALTS HERE
 11102	035660	324 00 0 00 035661 		JUMPA	.+1		;IF TEST FAILS, CHANGE THIS INSTRUCTION (JUMPA .+1) TO
 11103									;JUMPA X (X IS THE ADDRESS OF THE FIRST INSTRUCTION
 11104									;IN THE SUBTEST) TO LOOP ON ERROR^
 11105
 11106					;**********
 11107
 11108					;THIS TEST CHECKS THE 'ADD' INSTRUCTION AND THE ADDER ON A 0NE-BIT-AT-A-TIME BASIS.
 11109					;TO AN AC  OF ALL ZEROS IS ADDED A
 11110					;WORD CONTAINING ALL ZEROS EXCEPT FOR A ONE IN ONE AND ONLY ONE BIT,
 11111					;THE RESULT IS THAT THE AC CONTAINS THE SAME NUMBER WHICH WAS ADDED TO IT.
 11112					;THE AC IS THEN EQUIVALENCED WITH C(E) WHERE C(E)=C(AC).  THIS RESULT SHOULD
 11113					;BE ALL ONES.  NEXT, THE AC IS EQUIVALENCED WITH A WORD OF ALL ZEROS.
 11114					;THE FINAL RESULT SHOULD BE C(AC)=0. THIS
 11115					;TEST IS REPEATED 36 TIMES SO THAT A ONE MAY BE RIPPLED THOUGH
 11116					;EVERY BIT OF THE AC.
 11117					;THE AC IS CHECKED TO INSURE THAT IT CONTAINS ALL ZEROS.
 11118			013217		SN=SN+1
 11119			040000			ZZ=ZZ+ZZ
 11120						IFE	ZZ,<ZZ=1>
 11121	035661	200 00 0 00 070253 		MOVE	[0]		;LOAD AC WITH ALL ZEROS
 11122	035662	270 00 0 00 070303 		ADD	[ZZ]		;*ADD OF FLOATING ONE TO ZERO
 11123	035663	444 00 0 00 070303 		EQV	[ZZ]		;RESULTS IN C(AC)=ALL ONES
 11124	035664	444 00 0 00 070253 		EQV	[0]		;RESULTS IN C(AC)=0
 11125	035665	332 00 0 00 000000 		SKIPE			;PASS TEST IF C(AC)=0
 11126						STOP^
 11127	035666	254 04 0 00 035667 		HALT	.+1		;TEST FAILED IF PROGRAM HALTS HERE
 11128	035667	324 00 0 00 035670 		JUMPA	.+1		;IF TEST FAILS, CHANGE THIS INSTRUCTION (JUMPA .+1) TO
 11129									;JUMPA X (X IS THE ADDRESS OF THE FIRST INSTRUCTION
 11130									;IN THE SUBTEST) TO LOOP ON ERROR^
 11131
 11132					;**********
 11133
 11134					;THIS TEST CHECKS THE 'ADD' INSTRUCTION AND THE ADDER ON A 0NE-BIT-AT-A-TIME BASIS.
 11135					;TO AN AC  OF ALL ZEROS IS ADDED A
 11136					;WORD CONTAINING ALL ZEROS EXCEPT FOR A ONE IN ONE AND ONLY ONE BIT,
 11137					;THE RESULT IS THAT THE AC CONTAINS THE SAME NUMBER WHICH WAS ADDED TO IT.
 11138					;THE AC IS THEN EQUIVALENCED WITH C(E) WHERE C(E)=C(AC).  THIS RESULT SHOULD
 11139					;BE ALL ONES.  NEXT, THE AC IS EQUIVALENCED WITH A WORD OF ALL ZEROS.
 11140					;THE FINAL RESULT SHOULD BE C(AC)=0. THIS
 11141					;TEST IS REPEATED 36 TIMES SO THAT A ONE MAY BE RIPPLED THOUGH
 11142					;EVERY BIT OF THE AC.
 11143					;THE AC IS CHECKED TO INSURE THAT IT CONTAINS ALL ZEROS.
 11144			013220		SN=SN+1
 11145			100000			ZZ=ZZ+ZZ
 11146						IFE	ZZ,<ZZ=1>
 11147	035670	200 00 0 00 070253 		MOVE	[0]		;LOAD AC WITH ALL ZEROS
 11148	035671	270 00 0 00 070304 		ADD	[ZZ]		;*ADD OF FLOATING ONE TO ZERO
 11149	035672	444 00 0 00 070304 		EQV	[ZZ]		;RESULTS IN C(AC)=ALL ONES
 11150	035673	444 00 0 00 070253 		EQV	[0]		;RESULTS IN C(AC)=0
 11151	035674	332 00 0 00 000000 		SKIPE			;PASS TEST IF C(AC)=0
 11152						STOP^
 11153	035675	254 04 0 00 035676 		HALT	.+1		;TEST FAILED IF PROGRAM HALTS HERE
 11154	035676	324 00 0 00 035677 		JUMPA	.+1		;IF TEST FAILS, CHANGE THIS INSTRUCTION (JUMPA .+1) TO
 11155									;JUMPA X (X IS THE ADDRESS OF THE FIRST INSTRUCTION
DFKAA PDP-10 KL10 BASIC INSTRUCTION DIAGNOSTIC (1) VER 0,2	MACRO %53B(1254)-4 11:50 11-Nov-24 Page 6-8
DFKAA2	MAC	13-Jan-89 10:22		TEST OF THE ADD INSTRUCTION

 11156									;IN THE SUBTEST) TO LOOP ON ERROR^
 11157
 11158					;**********
 11159
 11160					;THIS TEST CHECKS THE 'ADD' INSTRUCTION AND THE ADDER ON A 0NE-BIT-AT-A-TIME BASIS.
 11161					;TO AN AC  OF ALL ZEROS IS ADDED A
 11162					;WORD CONTAINING ALL ZEROS EXCEPT FOR A ONE IN ONE AND ONLY ONE BIT,
 11163					;THE RESULT IS THAT THE AC CONTAINS THE SAME NUMBER WHICH WAS ADDED TO IT.
 11164					;THE AC IS THEN EQUIVALENCED WITH C(E) WHERE C(E)=C(AC).  THIS RESULT SHOULD
 11165					;BE ALL ONES.  NEXT, THE AC IS EQUIVALENCED WITH A WORD OF ALL ZEROS.
 11166					;THE FINAL RESULT SHOULD BE C(AC)=0. THIS
 11167					;TEST IS REPEATED 36 TIMES SO THAT A ONE MAY BE RIPPLED THOUGH
 11168					;EVERY BIT OF THE AC.
 11169					;THE AC IS CHECKED TO INSURE THAT IT CONTAINS ALL ZEROS.
 11170			013221		SN=SN+1
 11171			200000			ZZ=ZZ+ZZ
 11172						IFE	ZZ,<ZZ=1>
 11173	035677	200 00 0 00 070253 		MOVE	[0]		;LOAD AC WITH ALL ZEROS
 11174	035700	270 00 0 00 070305 		ADD	[ZZ]		;*ADD OF FLOATING ONE TO ZERO
 11175	035701	444 00 0 00 070305 		EQV	[ZZ]		;RESULTS IN C(AC)=ALL ONES
 11176	035702	444 00 0 00 070253 		EQV	[0]		;RESULTS IN C(AC)=0
 11177	035703	332 00 0 00 000000 		SKIPE			;PASS TEST IF C(AC)=0
 11178						STOP^
 11179	035704	254 04 0 00 035705 		HALT	.+1		;TEST FAILED IF PROGRAM HALTS HERE
 11180	035705	324 00 0 00 035706 		JUMPA	.+1		;IF TEST FAILS, CHANGE THIS INSTRUCTION (JUMPA .+1) TO
 11181									;JUMPA X (X IS THE ADDRESS OF THE FIRST INSTRUCTION
 11182									;IN THE SUBTEST) TO LOOP ON ERROR^
 11183
 11184					;**********
 11185
 11186					;THIS TEST CHECKS THE 'ADD' INSTRUCTION AND THE ADDER ON A 0NE-BIT-AT-A-TIME BASIS.
 11187					;TO AN AC  OF ALL ZEROS IS ADDED A
 11188					;WORD CONTAINING ALL ZEROS EXCEPT FOR A ONE IN ONE AND ONLY ONE BIT,
 11189					;THE RESULT IS THAT THE AC CONTAINS THE SAME NUMBER WHICH WAS ADDED TO IT.
 11190					;THE AC IS THEN EQUIVALENCED WITH C(E) WHERE C(E)=C(AC).  THIS RESULT SHOULD
 11191					;BE ALL ONES.  NEXT, THE AC IS EQUIVALENCED WITH A WORD OF ALL ZEROS.
 11192					;THE FINAL RESULT SHOULD BE C(AC)=0. THIS
 11193					;TEST IS REPEATED 36 TIMES SO THAT A ONE MAY BE RIPPLED THOUGH
 11194					;EVERY BIT OF THE AC.
 11195					;THE AC IS CHECKED TO INSURE THAT IT CONTAINS ALL ZEROS.
 11196			013222		SN=SN+1
 11197			400000			ZZ=ZZ+ZZ
 11198						IFE	ZZ,<ZZ=1>
 11199	035706	200 00 0 00 070253 		MOVE	[0]		;LOAD AC WITH ALL ZEROS
 11200	035707	270 00 0 00 070306 		ADD	[ZZ]		;*ADD OF FLOATING ONE TO ZERO
 11201	035710	444 00 0 00 070306 		EQV	[ZZ]		;RESULTS IN C(AC)=ALL ONES
 11202	035711	444 00 0 00 070253 		EQV	[0]		;RESULTS IN C(AC)=0
 11203	035712	332 00 0 00 000000 		SKIPE			;PASS TEST IF C(AC)=0
 11204						STOP^
 11205	035713	254 04 0 00 035714 		HALT	.+1		;TEST FAILED IF PROGRAM HALTS HERE
 11206	035714	324 00 0 00 035715 		JUMPA	.+1		;IF TEST FAILS, CHANGE THIS INSTRUCTION (JUMPA .+1) TO
 11207									;JUMPA X (X IS THE ADDRESS OF THE FIRST INSTRUCTION
 11208									;IN THE SUBTEST) TO LOOP ON ERROR^
 11209
 11210					;**********
DFKAA PDP-10 KL10 BASIC INSTRUCTION DIAGNOSTIC (1) VER 0,2	MACRO %53B(1254)-4 11:50 11-Nov-24 Page 6-9
DFKAA2	MAC	13-Jan-89 10:22		TEST OF THE ADD INSTRUCTION

 11211
 11212					;THIS TEST CHECKS THE 'ADD' INSTRUCTION AND THE ADDER ON A 0NE-BIT-AT-A-TIME BASIS.
 11213					;TO AN AC  OF ALL ZEROS IS ADDED A
 11214					;WORD CONTAINING ALL ZEROS EXCEPT FOR A ONE IN ONE AND ONLY ONE BIT,
 11215					;THE RESULT IS THAT THE AC CONTAINS THE SAME NUMBER WHICH WAS ADDED TO IT.
 11216					;THE AC IS THEN EQUIVALENCED WITH C(E) WHERE C(E)=C(AC).  THIS RESULT SHOULD
 11217					;BE ALL ONES.  NEXT, THE AC IS EQUIVALENCED WITH A WORD OF ALL ZEROS.
 11218					;THE FINAL RESULT SHOULD BE C(AC)=0. THIS
 11219					;TEST IS REPEATED 36 TIMES SO THAT A ONE MAY BE RIPPLED THOUGH
 11220					;EVERY BIT OF THE AC.
 11221					;THE AC IS CHECKED TO INSURE THAT IT CONTAINS ALL ZEROS.
 11222			013223		SN=SN+1
 11223		000001	000000			ZZ=ZZ+ZZ
 11224						IFE	ZZ,<ZZ=1>
 11225	035715	200 00 0 00 070253 		MOVE	[0]		;LOAD AC WITH ALL ZEROS
 11226	035716	270 00 0 00 070307 		ADD	[ZZ]		;*ADD OF FLOATING ONE TO ZERO
 11227	035717	444 00 0 00 070307 		EQV	[ZZ]		;RESULTS IN C(AC)=ALL ONES
 11228	035720	444 00 0 00 070253 		EQV	[0]		;RESULTS IN C(AC)=0
 11229	035721	332 00 0 00 000000 		SKIPE			;PASS TEST IF C(AC)=0
 11230						STOP^
 11231	035722	254 04 0 00 035723 		HALT	.+1		;TEST FAILED IF PROGRAM HALTS HERE
 11232	035723	324 00 0 00 035724 		JUMPA	.+1		;IF TEST FAILS, CHANGE THIS INSTRUCTION (JUMPA .+1) TO
 11233									;JUMPA X (X IS THE ADDRESS OF THE FIRST INSTRUCTION
 11234									;IN THE SUBTEST) TO LOOP ON ERROR^
 11235
 11236					;**********
 11237
 11238					;THIS TEST CHECKS THE 'ADD' INSTRUCTION AND THE ADDER ON A 0NE-BIT-AT-A-TIME BASIS.
 11239					;TO AN AC  OF ALL ZEROS IS ADDED A
 11240					;WORD CONTAINING ALL ZEROS EXCEPT FOR A ONE IN ONE AND ONLY ONE BIT,
 11241					;THE RESULT IS THAT THE AC CONTAINS THE SAME NUMBER WHICH WAS ADDED TO IT.
 11242					;THE AC IS THEN EQUIVALENCED WITH C(E) WHERE C(E)=C(AC).  THIS RESULT SHOULD
 11243					;BE ALL ONES.  NEXT, THE AC IS EQUIVALENCED WITH A WORD OF ALL ZEROS.
 11244					;THE FINAL RESULT SHOULD BE C(AC)=0. THIS
 11245					;TEST IS REPEATED 36 TIMES SO THAT A ONE MAY BE RIPPLED THOUGH
 11246					;EVERY BIT OF THE AC.
 11247					;THE AC IS CHECKED TO INSURE THAT IT CONTAINS ALL ZEROS.
 11248			013224		SN=SN+1
 11249		000002	000000			ZZ=ZZ+ZZ
 11250						IFE	ZZ,<ZZ=1>
 11251	035724	200 00 0 00 070253 		MOVE	[0]		;LOAD AC WITH ALL ZEROS
 11252	035725	270 00 0 00 070310 		ADD	[ZZ]		;*ADD OF FLOATING ONE TO ZERO
 11253	035726	444 00 0 00 070310 		EQV	[ZZ]		;RESULTS IN C(AC)=ALL ONES
 11254	035727	444 00 0 00 070253 		EQV	[0]		;RESULTS IN C(AC)=0
 11255	035730	332 00 0 00 000000 		SKIPE			;PASS TEST IF C(AC)=0
 11256						STOP^
 11257	035731	254 04 0 00 035732 		HALT	.+1		;TEST FAILED IF PROGRAM HALTS HERE
 11258	035732	324 00 0 00 035733 		JUMPA	.+1		;IF TEST FAILS, CHANGE THIS INSTRUCTION (JUMPA .+1) TO
 11259									;JUMPA X (X IS THE ADDRESS OF THE FIRST INSTRUCTION
 11260									;IN THE SUBTEST) TO LOOP ON ERROR^
 11261
 11262					;**********
 11263
 11264					;THIS TEST CHECKS THE 'ADD' INSTRUCTION AND THE ADDER ON A 0NE-BIT-AT-A-TIME BASIS.
 11265					;TO AN AC  OF ALL ZEROS IS ADDED A
DFKAA PDP-10 KL10 BASIC INSTRUCTION DIAGNOSTIC (1) VER 0,2	MACRO %53B(1254)-4 11:50 11-Nov-24 Page 6-10
DFKAA2	MAC	13-Jan-89 10:22		TEST OF THE ADD INSTRUCTION

 11266					;WORD CONTAINING ALL ZEROS EXCEPT FOR A ONE IN ONE AND ONLY ONE BIT,
 11267					;THE RESULT IS THAT THE AC CONTAINS THE SAME NUMBER WHICH WAS ADDED TO IT.
 11268					;THE AC IS THEN EQUIVALENCED WITH C(E) WHERE C(E)=C(AC).  THIS RESULT SHOULD
 11269					;BE ALL ONES.  NEXT, THE AC IS EQUIVALENCED WITH A WORD OF ALL ZEROS.
 11270					;THE FINAL RESULT SHOULD BE C(AC)=0. THIS
 11271					;TEST IS REPEATED 36 TIMES SO THAT A ONE MAY BE RIPPLED THOUGH
 11272					;EVERY BIT OF THE AC.
 11273					;THE AC IS CHECKED TO INSURE THAT IT CONTAINS ALL ZEROS.
 11274			013225		SN=SN+1
 11275		000004	000000			ZZ=ZZ+ZZ
 11276						IFE	ZZ,<ZZ=1>
 11277	035733	200 00 0 00 070253 		MOVE	[0]		;LOAD AC WITH ALL ZEROS
 11278	035734	270 00 0 00 070311 		ADD	[ZZ]		;*ADD OF FLOATING ONE TO ZERO
 11279	035735	444 00 0 00 070311 		EQV	[ZZ]		;RESULTS IN C(AC)=ALL ONES
 11280	035736	444 00 0 00 070253 		EQV	[0]		;RESULTS IN C(AC)=0
 11281	035737	332 00 0 00 000000 		SKIPE			;PASS TEST IF C(AC)=0
 11282						STOP^
 11283	035740	254 04 0 00 035741 		HALT	.+1		;TEST FAILED IF PROGRAM HALTS HERE
 11284	035741	324 00 0 00 035742 		JUMPA	.+1		;IF TEST FAILS, CHANGE THIS INSTRUCTION (JUMPA .+1) TO
 11285									;JUMPA X (X IS THE ADDRESS OF THE FIRST INSTRUCTION
 11286									;IN THE SUBTEST) TO LOOP ON ERROR^
 11287
 11288					;**********
 11289
 11290					;THIS TEST CHECKS THE 'ADD' INSTRUCTION AND THE ADDER ON A 0NE-BIT-AT-A-TIME BASIS.
 11291					;TO AN AC  OF ALL ZEROS IS ADDED A
 11292					;WORD CONTAINING ALL ZEROS EXCEPT FOR A ONE IN ONE AND ONLY ONE BIT,
 11293					;THE RESULT IS THAT THE AC CONTAINS THE SAME NUMBER WHICH WAS ADDED TO IT.
 11294					;THE AC IS THEN EQUIVALENCED WITH C(E) WHERE C(E)=C(AC).  THIS RESULT SHOULD
 11295					;BE ALL ONES.  NEXT, THE AC IS EQUIVALENCED WITH A WORD OF ALL ZEROS.
 11296					;THE FINAL RESULT SHOULD BE C(AC)=0. THIS
 11297					;TEST IS REPEATED 36 TIMES SO THAT A ONE MAY BE RIPPLED THOUGH
 11298					;EVERY BIT OF THE AC.
 11299					;THE AC IS CHECKED TO INSURE THAT IT CONTAINS ALL ZEROS.
 11300			013226		SN=SN+1
 11301		000010	000000			ZZ=ZZ+ZZ
 11302						IFE	ZZ,<ZZ=1>
 11303	035742	200 00 0 00 070253 		MOVE	[0]		;LOAD AC WITH ALL ZEROS
 11304	035743	270 00 0 00 070312 		ADD	[ZZ]		;*ADD OF FLOATING ONE TO ZERO
 11305	035744	444 00 0 00 070312 		EQV	[ZZ]		;RESULTS IN C(AC)=ALL ONES
 11306	035745	444 00 0 00 070253 		EQV	[0]		;RESULTS IN C(AC)=0
 11307	035746	332 00 0 00 000000 		SKIPE			;PASS TEST IF C(AC)=0
 11308						STOP^
 11309	035747	254 04 0 00 035750 		HALT	.+1		;TEST FAILED IF PROGRAM HALTS HERE
 11310	035750	324 00 0 00 035751 		JUMPA	.+1		;IF TEST FAILS, CHANGE THIS INSTRUCTION (JUMPA .+1) TO
 11311									;JUMPA X (X IS THE ADDRESS OF THE FIRST INSTRUCTION
 11312									;IN THE SUBTEST) TO LOOP ON ERROR^
 11313
 11314					;**********
 11315
 11316					;THIS TEST CHECKS THE 'ADD' INSTRUCTION AND THE ADDER ON A 0NE-BIT-AT-A-TIME BASIS.
 11317					;TO AN AC  OF ALL ZEROS IS ADDED A
 11318					;WORD CONTAINING ALL ZEROS EXCEPT FOR A ONE IN ONE AND ONLY ONE BIT,
 11319					;THE RESULT IS THAT THE AC CONTAINS THE SAME NUMBER WHICH WAS ADDED TO IT.
 11320					;THE AC IS THEN EQUIVALENCED WITH C(E) WHERE C(E)=C(AC).  THIS RESULT SHOULD
DFKAA PDP-10 KL10 BASIC INSTRUCTION DIAGNOSTIC (1) VER 0,2	MACRO %53B(1254)-4 11:50 11-Nov-24 Page 6-11
DFKAA2	MAC	13-Jan-89 10:22		TEST OF THE ADD INSTRUCTION

 11321					;BE ALL ONES.  NEXT, THE AC IS EQUIVALENCED WITH A WORD OF ALL ZEROS.
 11322					;THE FINAL RESULT SHOULD BE C(AC)=0. THIS
 11323					;TEST IS REPEATED 36 TIMES SO THAT A ONE MAY BE RIPPLED THOUGH
 11324					;EVERY BIT OF THE AC.
 11325					;THE AC IS CHECKED TO INSURE THAT IT CONTAINS ALL ZEROS.
 11326			013227		SN=SN+1
 11327		000020	000000			ZZ=ZZ+ZZ
 11328						IFE	ZZ,<ZZ=1>
 11329	035751	200 00 0 00 070253 		MOVE	[0]		;LOAD AC WITH ALL ZEROS
 11330	035752	270 00 0 00 070313 		ADD	[ZZ]		;*ADD OF FLOATING ONE TO ZERO
 11331	035753	444 00 0 00 070313 		EQV	[ZZ]		;RESULTS IN C(AC)=ALL ONES
 11332	035754	444 00 0 00 070253 		EQV	[0]		;RESULTS IN C(AC)=0
 11333	035755	332 00 0 00 000000 		SKIPE			;PASS TEST IF C(AC)=0
 11334						STOP^
 11335	035756	254 04 0 00 035757 		HALT	.+1		;TEST FAILED IF PROGRAM HALTS HERE
 11336	035757	324 00 0 00 035760 		JUMPA	.+1		;IF TEST FAILS, CHANGE THIS INSTRUCTION (JUMPA .+1) TO
 11337									;JUMPA X (X IS THE ADDRESS OF THE FIRST INSTRUCTION
 11338									;IN THE SUBTEST) TO LOOP ON ERROR^
 11339
 11340					;**********
 11341
 11342					;THIS TEST CHECKS THE 'ADD' INSTRUCTION AND THE ADDER ON A 0NE-BIT-AT-A-TIME BASIS.
 11343					;TO AN AC  OF ALL ZEROS IS ADDED A
 11344					;WORD CONTAINING ALL ZEROS EXCEPT FOR A ONE IN ONE AND ONLY ONE BIT,
 11345					;THE RESULT IS THAT THE AC CONTAINS THE SAME NUMBER WHICH WAS ADDED TO IT.
 11346					;THE AC IS THEN EQUIVALENCED WITH C(E) WHERE C(E)=C(AC).  THIS RESULT SHOULD
 11347					;BE ALL ONES.  NEXT, THE AC IS EQUIVALENCED WITH A WORD OF ALL ZEROS.
 11348					;THE FINAL RESULT SHOULD BE C(AC)=0. THIS
 11349					;TEST IS REPEATED 36 TIMES SO THAT A ONE MAY BE RIPPLED THOUGH
 11350					;EVERY BIT OF THE AC.
 11351					;THE AC IS CHECKED TO INSURE THAT IT CONTAINS ALL ZEROS.
 11352			013230		SN=SN+1
 11353		000040	000000			ZZ=ZZ+ZZ
 11354						IFE	ZZ,<ZZ=1>
 11355	035760	200 00 0 00 070253 		MOVE	[0]		;LOAD AC WITH ALL ZEROS
 11356	035761	270 00 0 00 070314 		ADD	[ZZ]		;*ADD OF FLOATING ONE TO ZERO
 11357	035762	444 00 0 00 070314 		EQV	[ZZ]		;RESULTS IN C(AC)=ALL ONES
 11358	035763	444 00 0 00 070253 		EQV	[0]		;RESULTS IN C(AC)=0
 11359	035764	332 00 0 00 000000 		SKIPE			;PASS TEST IF C(AC)=0
 11360						STOP^
 11361	035765	254 04 0 00 035766 		HALT	.+1		;TEST FAILED IF PROGRAM HALTS HERE
 11362	035766	324 00 0 00 035767 		JUMPA	.+1		;IF TEST FAILS, CHANGE THIS INSTRUCTION (JUMPA .+1) TO
 11363									;JUMPA X (X IS THE ADDRESS OF THE FIRST INSTRUCTION
 11364									;IN THE SUBTEST) TO LOOP ON ERROR^
 11365
 11366					;**********
 11367
 11368					;THIS TEST CHECKS THE 'ADD' INSTRUCTION AND THE ADDER ON A 0NE-BIT-AT-A-TIME BASIS.
 11369					;TO AN AC  OF ALL ZEROS IS ADDED A
 11370					;WORD CONTAINING ALL ZEROS EXCEPT FOR A ONE IN ONE AND ONLY ONE BIT,
 11371					;THE RESULT IS THAT THE AC CONTAINS THE SAME NUMBER WHICH WAS ADDED TO IT.
 11372					;THE AC IS THEN EQUIVALENCED WITH C(E) WHERE C(E)=C(AC).  THIS RESULT SHOULD
 11373					;BE ALL ONES.  NEXT, THE AC IS EQUIVALENCED WITH A WORD OF ALL ZEROS.
 11374					;THE FINAL RESULT SHOULD BE C(AC)=0. THIS
 11375					;TEST IS REPEATED 36 TIMES SO THAT A ONE MAY BE RIPPLED THOUGH
DFKAA PDP-10 KL10 BASIC INSTRUCTION DIAGNOSTIC (1) VER 0,2	MACRO %53B(1254)-4 11:50 11-Nov-24 Page 6-12
DFKAA2	MAC	13-Jan-89 10:22		TEST OF THE ADD INSTRUCTION

 11376					;EVERY BIT OF THE AC.
 11377					;THE AC IS CHECKED TO INSURE THAT IT CONTAINS ALL ZEROS.
 11378			013231		SN=SN+1
 11379		000100	000000			ZZ=ZZ+ZZ
 11380						IFE	ZZ,<ZZ=1>
 11381	035767	200 00 0 00 070253 		MOVE	[0]		;LOAD AC WITH ALL ZEROS
 11382	035770	270 00 0 00 070315 		ADD	[ZZ]		;*ADD OF FLOATING ONE TO ZERO
 11383	035771	444 00 0 00 070315 		EQV	[ZZ]		;RESULTS IN C(AC)=ALL ONES
 11384	035772	444 00 0 00 070253 		EQV	[0]		;RESULTS IN C(AC)=0
 11385	035773	332 00 0 00 000000 		SKIPE			;PASS TEST IF C(AC)=0
 11386						STOP^
 11387	035774	254 04 0 00 035775 		HALT	.+1		;TEST FAILED IF PROGRAM HALTS HERE
 11388	035775	324 00 0 00 035776 		JUMPA	.+1		;IF TEST FAILS, CHANGE THIS INSTRUCTION (JUMPA .+1) TO
 11389									;JUMPA X (X IS THE ADDRESS OF THE FIRST INSTRUCTION
 11390									;IN THE SUBTEST) TO LOOP ON ERROR^
 11391
 11392					;**********
 11393
 11394					;THIS TEST CHECKS THE 'ADD' INSTRUCTION AND THE ADDER ON A 0NE-BIT-AT-A-TIME BASIS.
 11395					;TO AN AC  OF ALL ZEROS IS ADDED A
 11396					;WORD CONTAINING ALL ZEROS EXCEPT FOR A ONE IN ONE AND ONLY ONE BIT,
 11397					;THE RESULT IS THAT THE AC CONTAINS THE SAME NUMBER WHICH WAS ADDED TO IT.
 11398					;THE AC IS THEN EQUIVALENCED WITH C(E) WHERE C(E)=C(AC).  THIS RESULT SHOULD
 11399					;BE ALL ONES.  NEXT, THE AC IS EQUIVALENCED WITH A WORD OF ALL ZEROS.
 11400					;THE FINAL RESULT SHOULD BE C(AC)=0. THIS
 11401					;TEST IS REPEATED 36 TIMES SO THAT A ONE MAY BE RIPPLED THOUGH
 11402					;EVERY BIT OF THE AC.
 11403					;THE AC IS CHECKED TO INSURE THAT IT CONTAINS ALL ZEROS.
 11404			013232		SN=SN+1
 11405		000200	000000			ZZ=ZZ+ZZ
 11406						IFE	ZZ,<ZZ=1>
 11407	035776	200 00 0 00 070253 		MOVE	[0]		;LOAD AC WITH ALL ZEROS
 11408	035777	270 00 0 00 070316 		ADD	[ZZ]		;*ADD OF FLOATING ONE TO ZERO
 11409	036000	444 00 0 00 070316 		EQV	[ZZ]		;RESULTS IN C(AC)=ALL ONES
 11410	036001	444 00 0 00 070253 		EQV	[0]		;RESULTS IN C(AC)=0
 11411	036002	332 00 0 00 000000 		SKIPE			;PASS TEST IF C(AC)=0
 11412						STOP^
 11413	036003	254 04 0 00 036004 		HALT	.+1		;TEST FAILED IF PROGRAM HALTS HERE
 11414	036004	324 00 0 00 036005 		JUMPA	.+1		;IF TEST FAILS, CHANGE THIS INSTRUCTION (JUMPA .+1) TO
 11415									;JUMPA X (X IS THE ADDRESS OF THE FIRST INSTRUCTION
 11416									;IN THE SUBTEST) TO LOOP ON ERROR^
 11417
 11418					;**********
 11419
 11420					;THIS TEST CHECKS THE 'ADD' INSTRUCTION AND THE ADDER ON A 0NE-BIT-AT-A-TIME BASIS.
 11421					;TO AN AC  OF ALL ZEROS IS ADDED A
 11422					;WORD CONTAINING ALL ZEROS EXCEPT FOR A ONE IN ONE AND ONLY ONE BIT,
 11423					;THE RESULT IS THAT THE AC CONTAINS THE SAME NUMBER WHICH WAS ADDED TO IT.
 11424					;THE AC IS THEN EQUIVALENCED WITH C(E) WHERE C(E)=C(AC).  THIS RESULT SHOULD
 11425					;BE ALL ONES.  NEXT, THE AC IS EQUIVALENCED WITH A WORD OF ALL ZEROS.
 11426					;THE FINAL RESULT SHOULD BE C(AC)=0. THIS
 11427					;TEST IS REPEATED 36 TIMES SO THAT A ONE MAY BE RIPPLED THOUGH
 11428					;EVERY BIT OF THE AC.
 11429					;THE AC IS CHECKED TO INSURE THAT IT CONTAINS ALL ZEROS.
 11430			013233		SN=SN+1
DFKAA PDP-10 KL10 BASIC INSTRUCTION DIAGNOSTIC (1) VER 0,2	MACRO %53B(1254)-4 11:50 11-Nov-24 Page 6-13
DFKAA2	MAC	13-Jan-89 10:22		TEST OF THE ADD INSTRUCTION

 11431		000400	000000			ZZ=ZZ+ZZ
 11432						IFE	ZZ,<ZZ=1>
 11433	036005	200 00 0 00 070253 		MOVE	[0]		;LOAD AC WITH ALL ZEROS
 11434	036006	270 00 0 00 070264 		ADD	[ZZ]		;*ADD OF FLOATING ONE TO ZERO
 11435	036007	444 00 0 00 070264 		EQV	[ZZ]		;RESULTS IN C(AC)=ALL ONES
 11436	036010	444 00 0 00 070253 		EQV	[0]		;RESULTS IN C(AC)=0
 11437	036011	332 00 0 00 000000 		SKIPE			;PASS TEST IF C(AC)=0
 11438						STOP^
 11439	036012	254 04 0 00 036013 		HALT	.+1		;TEST FAILED IF PROGRAM HALTS HERE
 11440	036013	324 00 0 00 036014 		JUMPA	.+1		;IF TEST FAILS, CHANGE THIS INSTRUCTION (JUMPA .+1) TO
 11441									;JUMPA X (X IS THE ADDRESS OF THE FIRST INSTRUCTION
 11442									;IN THE SUBTEST) TO LOOP ON ERROR^
 11443
 11444					;**********
 11445
 11446					;THIS TEST CHECKS THE 'ADD' INSTRUCTION AND THE ADDER ON A 0NE-BIT-AT-A-TIME BASIS.
 11447					;TO AN AC  OF ALL ZEROS IS ADDED A
 11448					;WORD CONTAINING ALL ZEROS EXCEPT FOR A ONE IN ONE AND ONLY ONE BIT,
 11449					;THE RESULT IS THAT THE AC CONTAINS THE SAME NUMBER WHICH WAS ADDED TO IT.
 11450					;THE AC IS THEN EQUIVALENCED WITH C(E) WHERE C(E)=C(AC).  THIS RESULT SHOULD
 11451					;BE ALL ONES.  NEXT, THE AC IS EQUIVALENCED WITH A WORD OF ALL ZEROS.
 11452					;THE FINAL RESULT SHOULD BE C(AC)=0. THIS
 11453					;TEST IS REPEATED 36 TIMES SO THAT A ONE MAY BE RIPPLED THOUGH
 11454					;EVERY BIT OF THE AC.
 11455					;THE AC IS CHECKED TO INSURE THAT IT CONTAINS ALL ZEROS.
 11456			013234		SN=SN+1
 11457		001000	000000			ZZ=ZZ+ZZ
 11458						IFE	ZZ,<ZZ=1>
 11459	036014	200 00 0 00 070253 		MOVE	[0]		;LOAD AC WITH ALL ZEROS
 11460	036015	270 00 0 00 070317 		ADD	[ZZ]		;*ADD OF FLOATING ONE TO ZERO
 11461	036016	444 00 0 00 070317 		EQV	[ZZ]		;RESULTS IN C(AC)=ALL ONES
 11462	036017	444 00 0 00 070253 		EQV	[0]		;RESULTS IN C(AC)=0
 11463	036020	332 00 0 00 000000 		SKIPE			;PASS TEST IF C(AC)=0
 11464						STOP^
 11465	036021	254 04 0 00 036022 		HALT	.+1		;TEST FAILED IF PROGRAM HALTS HERE
 11466	036022	324 00 0 00 036023 		JUMPA	.+1		;IF TEST FAILS, CHANGE THIS INSTRUCTION (JUMPA .+1) TO
 11467									;JUMPA X (X IS THE ADDRESS OF THE FIRST INSTRUCTION
 11468									;IN THE SUBTEST) TO LOOP ON ERROR^
 11469
 11470					;**********
 11471
 11472					;THIS TEST CHECKS THE 'ADD' INSTRUCTION AND THE ADDER ON A 0NE-BIT-AT-A-TIME BASIS.
 11473					;TO AN AC  OF ALL ZEROS IS ADDED A
 11474					;WORD CONTAINING ALL ZEROS EXCEPT FOR A ONE IN ONE AND ONLY ONE BIT,
 11475					;THE RESULT IS THAT THE AC CONTAINS THE SAME NUMBER WHICH WAS ADDED TO IT.
 11476					;THE AC IS THEN EQUIVALENCED WITH C(E) WHERE C(E)=C(AC).  THIS RESULT SHOULD
 11477					;BE ALL ONES.  NEXT, THE AC IS EQUIVALENCED WITH A WORD OF ALL ZEROS.
 11478					;THE FINAL RESULT SHOULD BE C(AC)=0. THIS
 11479					;TEST IS REPEATED 36 TIMES SO THAT A ONE MAY BE RIPPLED THOUGH
 11480					;EVERY BIT OF THE AC.
 11481					;THE AC IS CHECKED TO INSURE THAT IT CONTAINS ALL ZEROS.
 11482			013235		SN=SN+1
 11483		002000	000000			ZZ=ZZ+ZZ
 11484						IFE	ZZ,<ZZ=1>
 11485	036023	200 00 0 00 070253 		MOVE	[0]		;LOAD AC WITH ALL ZEROS
DFKAA PDP-10 KL10 BASIC INSTRUCTION DIAGNOSTIC (1) VER 0,2	MACRO %53B(1254)-4 11:50 11-Nov-24 Page 6-14
DFKAA2	MAC	13-Jan-89 10:22		TEST OF THE ADD INSTRUCTION

 11486	036024	270 00 0 00 070320 		ADD	[ZZ]		;*ADD OF FLOATING ONE TO ZERO
 11487	036025	444 00 0 00 070320 		EQV	[ZZ]		;RESULTS IN C(AC)=ALL ONES
 11488	036026	444 00 0 00 070253 		EQV	[0]		;RESULTS IN C(AC)=0
 11489	036027	332 00 0 00 000000 		SKIPE			;PASS TEST IF C(AC)=0
 11490						STOP^
 11491	036030	254 04 0 00 036031 		HALT	.+1		;TEST FAILED IF PROGRAM HALTS HERE
 11492	036031	324 00 0 00 036032 		JUMPA	.+1		;IF TEST FAILS, CHANGE THIS INSTRUCTION (JUMPA .+1) TO
 11493									;JUMPA X (X IS THE ADDRESS OF THE FIRST INSTRUCTION
 11494									;IN THE SUBTEST) TO LOOP ON ERROR^
 11495
 11496					;**********
 11497
 11498					;THIS TEST CHECKS THE 'ADD' INSTRUCTION AND THE ADDER ON A 0NE-BIT-AT-A-TIME BASIS.
 11499					;TO AN AC  OF ALL ZEROS IS ADDED A
 11500					;WORD CONTAINING ALL ZEROS EXCEPT FOR A ONE IN ONE AND ONLY ONE BIT,
 11501					;THE RESULT IS THAT THE AC CONTAINS THE SAME NUMBER WHICH WAS ADDED TO IT.
 11502					;THE AC IS THEN EQUIVALENCED WITH C(E) WHERE C(E)=C(AC).  THIS RESULT SHOULD
 11503					;BE ALL ONES.  NEXT, THE AC IS EQUIVALENCED WITH A WORD OF ALL ZEROS.
 11504					;THE FINAL RESULT SHOULD BE C(AC)=0. THIS
 11505					;TEST IS REPEATED 36 TIMES SO THAT A ONE MAY BE RIPPLED THOUGH
 11506					;EVERY BIT OF THE AC.
 11507					;THE AC IS CHECKED TO INSURE THAT IT CONTAINS ALL ZEROS.
 11508			013236		SN=SN+1
 11509		004000	000000			ZZ=ZZ+ZZ
 11510						IFE	ZZ,<ZZ=1>
 11511	036032	200 00 0 00 070253 		MOVE	[0]		;LOAD AC WITH ALL ZEROS
 11512	036033	270 00 0 00 070321 		ADD	[ZZ]		;*ADD OF FLOATING ONE TO ZERO
 11513	036034	444 00 0 00 070321 		EQV	[ZZ]		;RESULTS IN C(AC)=ALL ONES
 11514	036035	444 00 0 00 070253 		EQV	[0]		;RESULTS IN C(AC)=0
 11515	036036	332 00 0 00 000000 		SKIPE			;PASS TEST IF C(AC)=0
 11516						STOP^
 11517	036037	254 04 0 00 036040 		HALT	.+1		;TEST FAILED IF PROGRAM HALTS HERE
 11518	036040	324 00 0 00 036041 		JUMPA	.+1		;IF TEST FAILS, CHANGE THIS INSTRUCTION (JUMPA .+1) TO
 11519									;JUMPA X (X IS THE ADDRESS OF THE FIRST INSTRUCTION
 11520									;IN THE SUBTEST) TO LOOP ON ERROR^
 11521
 11522					;**********
 11523
 11524					;THIS TEST CHECKS THE 'ADD' INSTRUCTION AND THE ADDER ON A 0NE-BIT-AT-A-TIME BASIS.
 11525					;TO AN AC  OF ALL ZEROS IS ADDED A
 11526					;WORD CONTAINING ALL ZEROS EXCEPT FOR A ONE IN ONE AND ONLY ONE BIT,
 11527					;THE RESULT IS THAT THE AC CONTAINS THE SAME NUMBER WHICH WAS ADDED TO IT.
 11528					;THE AC IS THEN EQUIVALENCED WITH C(E) WHERE C(E)=C(AC).  THIS RESULT SHOULD
 11529					;BE ALL ONES.  NEXT, THE AC IS EQUIVALENCED WITH A WORD OF ALL ZEROS.
 11530					;THE FINAL RESULT SHOULD BE C(AC)=0. THIS
 11531					;TEST IS REPEATED 36 TIMES SO THAT A ONE MAY BE RIPPLED THOUGH
 11532					;EVERY BIT OF THE AC.
 11533					;THE AC IS CHECKED TO INSURE THAT IT CONTAINS ALL ZEROS.
 11534			013237		SN=SN+1
 11535		010000	000000			ZZ=ZZ+ZZ
 11536						IFE	ZZ,<ZZ=1>
 11537	036041	200 00 0 00 070253 		MOVE	[0]		;LOAD AC WITH ALL ZEROS
 11538	036042	270 00 0 00 070322 		ADD	[ZZ]		;*ADD OF FLOATING ONE TO ZERO
 11539	036043	444 00 0 00 070322 		EQV	[ZZ]		;RESULTS IN C(AC)=ALL ONES
 11540	036044	444 00 0 00 070253 		EQV	[0]		;RESULTS IN C(AC)=0
DFKAA PDP-10 KL10 BASIC INSTRUCTION DIAGNOSTIC (1) VER 0,2	MACRO %53B(1254)-4 11:50 11-Nov-24 Page 6-15
DFKAA2	MAC	13-Jan-89 10:22		TEST OF THE ADD INSTRUCTION

 11541	036045	332 00 0 00 000000 		SKIPE			;PASS TEST IF C(AC)=0
 11542						STOP^
 11543	036046	254 04 0 00 036047 		HALT	.+1		;TEST FAILED IF PROGRAM HALTS HERE
 11544	036047	324 00 0 00 036050 		JUMPA	.+1		;IF TEST FAILS, CHANGE THIS INSTRUCTION (JUMPA .+1) TO
 11545									;JUMPA X (X IS THE ADDRESS OF THE FIRST INSTRUCTION
 11546									;IN THE SUBTEST) TO LOOP ON ERROR^
 11547
 11548					;**********
 11549
 11550					;THIS TEST CHECKS THE 'ADD' INSTRUCTION AND THE ADDER ON A 0NE-BIT-AT-A-TIME BASIS.
 11551					;TO AN AC  OF ALL ZEROS IS ADDED A
 11552					;WORD CONTAINING ALL ZEROS EXCEPT FOR A ONE IN ONE AND ONLY ONE BIT,
 11553					;THE RESULT IS THAT THE AC CONTAINS THE SAME NUMBER WHICH WAS ADDED TO IT.
 11554					;THE AC IS THEN EQUIVALENCED WITH C(E) WHERE C(E)=C(AC).  THIS RESULT SHOULD
 11555					;BE ALL ONES.  NEXT, THE AC IS EQUIVALENCED WITH A WORD OF ALL ZEROS.
 11556					;THE FINAL RESULT SHOULD BE C(AC)=0. THIS
 11557					;TEST IS REPEATED 36 TIMES SO THAT A ONE MAY BE RIPPLED THOUGH
 11558					;EVERY BIT OF THE AC.
 11559					;THE AC IS CHECKED TO INSURE THAT IT CONTAINS ALL ZEROS.
 11560			013240		SN=SN+1
 11561		020000	000000			ZZ=ZZ+ZZ
 11562						IFE	ZZ,<ZZ=1>
 11563	036050	200 00 0 00 070253 		MOVE	[0]		;LOAD AC WITH ALL ZEROS
 11564	036051	270 00 0 00 070323 		ADD	[ZZ]		;*ADD OF FLOATING ONE TO ZERO
 11565	036052	444 00 0 00 070323 		EQV	[ZZ]		;RESULTS IN C(AC)=ALL ONES
 11566	036053	444 00 0 00 070253 		EQV	[0]		;RESULTS IN C(AC)=0
 11567	036054	332 00 0 00 000000 		SKIPE			;PASS TEST IF C(AC)=0
 11568						STOP^
 11569	036055	254 04 0 00 036056 		HALT	.+1		;TEST FAILED IF PROGRAM HALTS HERE
 11570	036056	324 00 0 00 036057 		JUMPA	.+1		;IF TEST FAILS, CHANGE THIS INSTRUCTION (JUMPA .+1) TO
 11571									;JUMPA X (X IS THE ADDRESS OF THE FIRST INSTRUCTION
 11572									;IN THE SUBTEST) TO LOOP ON ERROR^
 11573
 11574					;**********
 11575
 11576					;THIS TEST CHECKS THE 'ADD' INSTRUCTION AND THE ADDER ON A 0NE-BIT-AT-A-TIME BASIS.
 11577					;TO AN AC  OF ALL ZEROS IS ADDED A
 11578					;WORD CONTAINING ALL ZEROS EXCEPT FOR A ONE IN ONE AND ONLY ONE BIT,
 11579					;THE RESULT IS THAT THE AC CONTAINS THE SAME NUMBER WHICH WAS ADDED TO IT.
 11580					;THE AC IS THEN EQUIVALENCED WITH C(E) WHERE C(E)=C(AC).  THIS RESULT SHOULD
 11581					;BE ALL ONES.  NEXT, THE AC IS EQUIVALENCED WITH A WORD OF ALL ZEROS.
 11582					;THE FINAL RESULT SHOULD BE C(AC)=0. THIS
 11583					;TEST IS REPEATED 36 TIMES SO THAT A ONE MAY BE RIPPLED THOUGH
 11584					;EVERY BIT OF THE AC.
 11585					;THE AC IS CHECKED TO INSURE THAT IT CONTAINS ALL ZEROS.
 11586			013241		SN=SN+1
 11587		040000	000000			ZZ=ZZ+ZZ
 11588						IFE	ZZ,<ZZ=1>
 11589	036057	200 00 0 00 070253 		MOVE	[0]		;LOAD AC WITH ALL ZEROS
 11590	036060	270 00 0 00 070324 		ADD	[ZZ]		;*ADD OF FLOATING ONE TO ZERO
 11591	036061	444 00 0 00 070324 		EQV	[ZZ]		;RESULTS IN C(AC)=ALL ONES
 11592	036062	444 00 0 00 070253 		EQV	[0]		;RESULTS IN C(AC)=0
 11593	036063	332 00 0 00 000000 		SKIPE			;PASS TEST IF C(AC)=0
 11594						STOP^
 11595	036064	254 04 0 00 036065 		HALT	.+1		;TEST FAILED IF PROGRAM HALTS HERE
DFKAA PDP-10 KL10 BASIC INSTRUCTION DIAGNOSTIC (1) VER 0,2	MACRO %53B(1254)-4 11:50 11-Nov-24 Page 6-16
DFKAA2	MAC	13-Jan-89 10:22		TEST OF THE ADD INSTRUCTION

 11596	036065	324 00 0 00 036066 		JUMPA	.+1		;IF TEST FAILS, CHANGE THIS INSTRUCTION (JUMPA .+1) TO
 11597									;JUMPA X (X IS THE ADDRESS OF THE FIRST INSTRUCTION
 11598									;IN THE SUBTEST) TO LOOP ON ERROR^
 11599
 11600					;**********
 11601
 11602					;THIS TEST CHECKS THE 'ADD' INSTRUCTION AND THE ADDER ON A 0NE-BIT-AT-A-TIME BASIS.
 11603					;TO AN AC  OF ALL ZEROS IS ADDED A
 11604					;WORD CONTAINING ALL ZEROS EXCEPT FOR A ONE IN ONE AND ONLY ONE BIT,
 11605					;THE RESULT IS THAT THE AC CONTAINS THE SAME NUMBER WHICH WAS ADDED TO IT.
 11606					;THE AC IS THEN EQUIVALENCED WITH C(E) WHERE C(E)=C(AC).  THIS RESULT SHOULD
 11607					;BE ALL ONES.  NEXT, THE AC IS EQUIVALENCED WITH A WORD OF ALL ZEROS.
 11608					;THE FINAL RESULT SHOULD BE C(AC)=0. THIS
 11609					;TEST IS REPEATED 36 TIMES SO THAT A ONE MAY BE RIPPLED THOUGH
 11610					;EVERY BIT OF THE AC.
 11611					;THE AC IS CHECKED TO INSURE THAT IT CONTAINS ALL ZEROS.
 11612			013242		SN=SN+1
 11613		100000	000000			ZZ=ZZ+ZZ
 11614						IFE	ZZ,<ZZ=1>
 11615	036066	200 00 0 00 070253 		MOVE	[0]		;LOAD AC WITH ALL ZEROS
 11616	036067	270 00 0 00 070325 		ADD	[ZZ]		;*ADD OF FLOATING ONE TO ZERO
 11617	036070	444 00 0 00 070325 		EQV	[ZZ]		;RESULTS IN C(AC)=ALL ONES
 11618	036071	444 00 0 00 070253 		EQV	[0]		;RESULTS IN C(AC)=0
 11619	036072	332 00 0 00 000000 		SKIPE			;PASS TEST IF C(AC)=0
 11620						STOP^
 11621	036073	254 04 0 00 036074 		HALT	.+1		;TEST FAILED IF PROGRAM HALTS HERE
 11622	036074	324 00 0 00 036075 		JUMPA	.+1		;IF TEST FAILS, CHANGE THIS INSTRUCTION (JUMPA .+1) TO
 11623									;JUMPA X (X IS THE ADDRESS OF THE FIRST INSTRUCTION
 11624									;IN THE SUBTEST) TO LOOP ON ERROR^
 11625
 11626					;**********
 11627
 11628					;THIS TEST CHECKS THE 'ADD' INSTRUCTION AND THE ADDER ON A 0NE-BIT-AT-A-TIME BASIS.
 11629					;TO AN AC  OF ALL ZEROS IS ADDED A
 11630					;WORD CONTAINING ALL ZEROS EXCEPT FOR A ONE IN ONE AND ONLY ONE BIT,
 11631					;THE RESULT IS THAT THE AC CONTAINS THE SAME NUMBER WHICH WAS ADDED TO IT.
 11632					;THE AC IS THEN EQUIVALENCED WITH C(E) WHERE C(E)=C(AC).  THIS RESULT SHOULD
 11633					;BE ALL ONES.  NEXT, THE AC IS EQUIVALENCED WITH A WORD OF ALL ZEROS.
 11634					;THE FINAL RESULT SHOULD BE C(AC)=0. THIS
 11635					;TEST IS REPEATED 36 TIMES SO THAT A ONE MAY BE RIPPLED THOUGH
 11636					;EVERY BIT OF THE AC.
 11637					;THE AC IS CHECKED TO INSURE THAT IT CONTAINS ALL ZEROS.
 11638			013243		SN=SN+1
 11639		200000	000000			ZZ=ZZ+ZZ
 11640						IFE	ZZ,<ZZ=1>
 11641	036075	200 00 0 00 070253 		MOVE	[0]		;LOAD AC WITH ALL ZEROS
 11642	036076	270 00 0 00 070326 		ADD	[ZZ]		;*ADD OF FLOATING ONE TO ZERO
 11643	036077	444 00 0 00 070326 		EQV	[ZZ]		;RESULTS IN C(AC)=ALL ONES
 11644	036100	444 00 0 00 070253 		EQV	[0]		;RESULTS IN C(AC)=0
 11645	036101	332 00 0 00 000000 		SKIPE			;PASS TEST IF C(AC)=0
 11646						STOP^
 11647	036102	254 04 0 00 036103 		HALT	.+1		;TEST FAILED IF PROGRAM HALTS HERE
 11648	036103	324 00 0 00 036104 		JUMPA	.+1		;IF TEST FAILS, CHANGE THIS INSTRUCTION (JUMPA .+1) TO
 11649									;JUMPA X (X IS THE ADDRESS OF THE FIRST INSTRUCTION
 11650									;IN THE SUBTEST) TO LOOP ON ERROR^
DFKAA PDP-10 KL10 BASIC INSTRUCTION DIAGNOSTIC (1) VER 0,2	MACRO %53B(1254)-4 11:50 11-Nov-24 Page 6-17
DFKAA2	MAC	13-Jan-89 10:22		TEST OF THE ADD INSTRUCTION

 11651
 11652					;**********
 11653
 11654					;THIS TEST CHECKS THE 'ADD' INSTRUCTION AND THE ADDER ON A 0NE-BIT-AT-A-TIME BASIS.
 11655					;TO AN AC  OF ALL ZEROS IS ADDED A
 11656					;WORD CONTAINING ALL ZEROS EXCEPT FOR A ONE IN ONE AND ONLY ONE BIT,
 11657					;THE RESULT IS THAT THE AC CONTAINS THE SAME NUMBER WHICH WAS ADDED TO IT.
 11658					;THE AC IS THEN EQUIVALENCED WITH C(E) WHERE C(E)=C(AC).  THIS RESULT SHOULD
 11659					;BE ALL ONES.  NEXT, THE AC IS EQUIVALENCED WITH A WORD OF ALL ZEROS.
 11660					;THE FINAL RESULT SHOULD BE C(AC)=0. THIS
 11661					;TEST IS REPEATED 36 TIMES SO THAT A ONE MAY BE RIPPLED THOUGH
 11662					;EVERY BIT OF THE AC.
 11663					;THE AC IS CHECKED TO INSURE THAT IT CONTAINS ALL ZEROS.
 11664			013244		SN=SN+1
 11665		400000	000000			ZZ=ZZ+ZZ
 11666						IFE	ZZ,<ZZ=1>
 11667	036104	200 00 0 00 070253 		MOVE	[0]		;LOAD AC WITH ALL ZEROS
 11668	036105	270 00 0 00 070256 		ADD	[ZZ]		;*ADD OF FLOATING ONE TO ZERO
 11669	036106	444 00 0 00 070256 		EQV	[ZZ]		;RESULTS IN C(AC)=ALL ONES
 11670	036107	444 00 0 00 070253 		EQV	[0]		;RESULTS IN C(AC)=0
 11671	036110	332 00 0 00 000000 		SKIPE			;PASS TEST IF C(AC)=0
 11672						STOP^
 11673	036111	254 04 0 00 036112 		HALT	.+1		;TEST FAILED IF PROGRAM HALTS HERE
 11674	036112	324 00 0 00 036113 		JUMPA	.+1		;IF TEST FAILS, CHANGE THIS INSTRUCTION (JUMPA .+1) TO
 11675									;JUMPA X (X IS THE ADDRESS OF THE FIRST INSTRUCTION
 11676									;IN THE SUBTEST) TO LOOP ON ERROR^
 11677
 11678					;**********
 11679
 11680					PAGE
DFKAA PDP-10 KL10 BASIC INSTRUCTION DIAGNOSTIC (1) VER 0,2	MACRO %53B(1254)-4 11:50 11-Nov-24 Page 6-18
DFKAA2	MAC	13-Jan-89 10:22		TEST OF THE ADD INSTRUCTION

 11681					;ADD A RIPPLED ONE TO A RIPPLED ONE
 11682
 11683			011200		SN=11200
 11684			000000			ZZ=0
 11685
 11686					A11200:	REPEAT	^D35,
 11687					<;THIS TEST VERIFIES THAT THE RESULT OF ADDING C(AC)
 11688					;TO C(E) WHERE AC IS DIFFERENT FROM E BUT C(AC)=
 11689					;C(E)=A ONE IN ONE AND ONLY ONE BIT IS AN
 11690					;AC WHOSE CONTENTS IS NON-ZERO. HENCE, IF A
 11691					;CARRY IS NOT GENERATED IN THE ADDITION PROCESS THE
 11692					;RESULT IN THE AC WILL BE ZERO AND THE TEST
 11693					;WILL FAIL. THIS TEST IS REPEATED 35 TIMES
 11694					;SO THAT A ONE WILL BE FLOATED THROUGH
 11695					;BITS 1 THRU 35 OF BOTH AC AND E
 11696					SN=SN+1
 11697						ZZ=ZZ+ZZ
 11698						IFE	ZZ,<ZZ=1>
 11699						MOVE	[ZZ]		;PRESET AC WITH A FLOATING ONE
 11700						ADD	[ZZ]		;*ADD FLOATING ONE TO SAME SHOULD RESULT IN C(AC) NONZERO
 11701						EQV	[ZZ+ZZ]		;RESULTS IN C(AC)=ALL ONES
 11702						EQV	[0]		;RESULTS IN C(AC)=0
 11703						SKIPE			;PASS TEST IF C(AC)=0
 11704						STOP
 11705
 11706					;**********
 11707					>
 11708					;THIS TEST VERIFIES THAT THE RESULT OF ADDING C(AC)
 11709					;TO C(E) WHERE AC IS DIFFERENT FROM E BUT C(AC)=
 11710					;C(E)=A ONE IN ONE AND ONLY ONE BIT IS AN
 11711					;AC WHOSE CONTENTS IS NON-ZERO. HENCE, IF A
 11712					;CARRY IS NOT GENERATED IN THE ADDITION PROCESS THE
 11713					;RESULT IN THE AC WILL BE ZERO AND THE TEST
 11714					;WILL FAIL. THIS TEST IS REPEATED 35 TIMES
 11715					;SO THAT A ONE WILL BE FLOATED THROUGH
 11716					;BITS 1 THRU 35 OF BOTH AC AND E
 11717			011201		SN=SN+1
 11718			000000			ZZ=ZZ+ZZ
 11719			000001			IFE	ZZ,<ZZ=1>
 11720	036113	200 00 0 00 070265 		MOVE	[ZZ]		;PRESET AC WITH A FLOATING ONE
 11721	036114	270 00 0 00 070265 		ADD	[ZZ]		;*ADD FLOATING ONE TO SAME SHOULD RESULT IN C(AC) NONZERO
 11722	036115	444 00 0 00 070266 		EQV	[ZZ+ZZ]		;RESULTS IN C(AC)=ALL ONES
 11723	036116	444 00 0 00 070253 		EQV	[0]		;RESULTS IN C(AC)=0
 11724	036117	332 00 0 00 000000 		SKIPE			;PASS TEST IF C(AC)=0
 11725						STOP^
 11726	036120	254 04 0 00 036121 		HALT	.+1		;TEST FAILED IF PROGRAM HALTS HERE
 11727	036121	324 00 0 00 036122 		JUMPA	.+1		;IF TEST FAILS, CHANGE THIS INSTRUCTION (JUMPA .+1) TO
 11728									;JUMPA X (X IS THE ADDRESS OF THE FIRST INSTRUCTION
 11729									;IN THE SUBTEST) TO LOOP ON ERROR^
 11730
 11731					;**********
 11732
 11733					;THIS TEST VERIFIES THAT THE RESULT OF ADDING C(AC)
 11734					;TO C(E) WHERE AC IS DIFFERENT FROM E BUT C(AC)=
 11735					;C(E)=A ONE IN ONE AND ONLY ONE BIT IS AN
DFKAA PDP-10 KL10 BASIC INSTRUCTION DIAGNOSTIC (1) VER 0,2	MACRO %53B(1254)-4 11:50 11-Nov-24 Page 6-19
DFKAA2	MAC	13-Jan-89 10:22		TEST OF THE ADD INSTRUCTION

 11736					;AC WHOSE CONTENTS IS NON-ZERO. HENCE, IF A
 11737					;CARRY IS NOT GENERATED IN THE ADDITION PROCESS THE
 11738					;RESULT IN THE AC WILL BE ZERO AND THE TEST
 11739					;WILL FAIL. THIS TEST IS REPEATED 35 TIMES
 11740					;SO THAT A ONE WILL BE FLOATED THROUGH
 11741					;BITS 1 THRU 35 OF BOTH AC AND E
 11742			011202		SN=SN+1
 11743			000002			ZZ=ZZ+ZZ
 11744						IFE	ZZ,<ZZ=1>
 11745	036122	200 00 0 00 070266 		MOVE	[ZZ]		;PRESET AC WITH A FLOATING ONE
 11746	036123	270 00 0 00 070266 		ADD	[ZZ]		;*ADD FLOATING ONE TO SAME SHOULD RESULT IN C(AC) NONZERO
 11747	036124	444 00 0 00 070267 		EQV	[ZZ+ZZ]		;RESULTS IN C(AC)=ALL ONES
 11748	036125	444 00 0 00 070253 		EQV	[0]		;RESULTS IN C(AC)=0
 11749	036126	332 00 0 00 000000 		SKIPE			;PASS TEST IF C(AC)=0
 11750						STOP^
 11751	036127	254 04 0 00 036130 		HALT	.+1		;TEST FAILED IF PROGRAM HALTS HERE
 11752	036130	324 00 0 00 036131 		JUMPA	.+1		;IF TEST FAILS, CHANGE THIS INSTRUCTION (JUMPA .+1) TO
 11753									;JUMPA X (X IS THE ADDRESS OF THE FIRST INSTRUCTION
 11754									;IN THE SUBTEST) TO LOOP ON ERROR^
 11755
 11756					;**********
 11757
 11758					;THIS TEST VERIFIES THAT THE RESULT OF ADDING C(AC)
 11759					;TO C(E) WHERE AC IS DIFFERENT FROM E BUT C(AC)=
 11760					;C(E)=A ONE IN ONE AND ONLY ONE BIT IS AN
 11761					;AC WHOSE CONTENTS IS NON-ZERO. HENCE, IF A
 11762					;CARRY IS NOT GENERATED IN THE ADDITION PROCESS THE
 11763					;RESULT IN THE AC WILL BE ZERO AND THE TEST
 11764					;WILL FAIL. THIS TEST IS REPEATED 35 TIMES
 11765					;SO THAT A ONE WILL BE FLOATED THROUGH
 11766					;BITS 1 THRU 35 OF BOTH AC AND E
 11767			011203		SN=SN+1
 11768			000004			ZZ=ZZ+ZZ
 11769						IFE	ZZ,<ZZ=1>
 11770	036131	200 00 0 00 070267 		MOVE	[ZZ]		;PRESET AC WITH A FLOATING ONE
 11771	036132	270 00 0 00 070267 		ADD	[ZZ]		;*ADD FLOATING ONE TO SAME SHOULD RESULT IN C(AC) NONZERO
 11772	036133	444 00 0 00 070270 		EQV	[ZZ+ZZ]		;RESULTS IN C(AC)=ALL ONES
 11773	036134	444 00 0 00 070253 		EQV	[0]		;RESULTS IN C(AC)=0
 11774	036135	332 00 0 00 000000 		SKIPE			;PASS TEST IF C(AC)=0
 11775						STOP^
 11776	036136	254 04 0 00 036137 		HALT	.+1		;TEST FAILED IF PROGRAM HALTS HERE
 11777	036137	324 00 0 00 036140 		JUMPA	.+1		;IF TEST FAILS, CHANGE THIS INSTRUCTION (JUMPA .+1) TO
 11778									;JUMPA X (X IS THE ADDRESS OF THE FIRST INSTRUCTION
 11779									;IN THE SUBTEST) TO LOOP ON ERROR^
 11780
 11781					;**********
 11782
 11783					;THIS TEST VERIFIES THAT THE RESULT OF ADDING C(AC)
 11784					;TO C(E) WHERE AC IS DIFFERENT FROM E BUT C(AC)=
 11785					;C(E)=A ONE IN ONE AND ONLY ONE BIT IS AN
 11786					;AC WHOSE CONTENTS IS NON-ZERO. HENCE, IF A
 11787					;CARRY IS NOT GENERATED IN THE ADDITION PROCESS THE
 11788					;RESULT IN THE AC WILL BE ZERO AND THE TEST
 11789					;WILL FAIL. THIS TEST IS REPEATED 35 TIMES
 11790					;SO THAT A ONE WILL BE FLOATED THROUGH
DFKAA PDP-10 KL10 BASIC INSTRUCTION DIAGNOSTIC (1) VER 0,2	MACRO %53B(1254)-4 11:50 11-Nov-24 Page 6-20
DFKAA2	MAC	13-Jan-89 10:22		TEST OF THE ADD INSTRUCTION

 11791					;BITS 1 THRU 35 OF BOTH AC AND E
 11792			011204		SN=SN+1
 11793			000010			ZZ=ZZ+ZZ
 11794						IFE	ZZ,<ZZ=1>
 11795	036140	200 00 0 00 070270 		MOVE	[ZZ]		;PRESET AC WITH A FLOATING ONE
 11796	036141	270 00 0 00 070270 		ADD	[ZZ]		;*ADD FLOATING ONE TO SAME SHOULD RESULT IN C(AC) NONZERO
 11797	036142	444 00 0 00 070271 		EQV	[ZZ+ZZ]		;RESULTS IN C(AC)=ALL ONES
 11798	036143	444 00 0 00 070253 		EQV	[0]		;RESULTS IN C(AC)=0
 11799	036144	332 00 0 00 000000 		SKIPE			;PASS TEST IF C(AC)=0
 11800						STOP^
 11801	036145	254 04 0 00 036146 		HALT	.+1		;TEST FAILED IF PROGRAM HALTS HERE
 11802	036146	324 00 0 00 036147 		JUMPA	.+1		;IF TEST FAILS, CHANGE THIS INSTRUCTION (JUMPA .+1) TO
 11803									;JUMPA X (X IS THE ADDRESS OF THE FIRST INSTRUCTION
 11804									;IN THE SUBTEST) TO LOOP ON ERROR^
 11805
 11806					;**********
 11807
 11808					;THIS TEST VERIFIES THAT THE RESULT OF ADDING C(AC)
 11809					;TO C(E) WHERE AC IS DIFFERENT FROM E BUT C(AC)=
 11810					;C(E)=A ONE IN ONE AND ONLY ONE BIT IS AN
 11811					;AC WHOSE CONTENTS IS NON-ZERO. HENCE, IF A
 11812					;CARRY IS NOT GENERATED IN THE ADDITION PROCESS THE
 11813					;RESULT IN THE AC WILL BE ZERO AND THE TEST
 11814					;WILL FAIL. THIS TEST IS REPEATED 35 TIMES
 11815					;SO THAT A ONE WILL BE FLOATED THROUGH
 11816					;BITS 1 THRU 35 OF BOTH AC AND E
 11817			011205		SN=SN+1
 11818			000020			ZZ=ZZ+ZZ
 11819						IFE	ZZ,<ZZ=1>
 11820	036147	200 00 0 00 070271 		MOVE	[ZZ]		;PRESET AC WITH A FLOATING ONE
 11821	036150	270 00 0 00 070271 		ADD	[ZZ]		;*ADD FLOATING ONE TO SAME SHOULD RESULT IN C(AC) NONZERO
 11822	036151	444 00 0 00 070272 		EQV	[ZZ+ZZ]		;RESULTS IN C(AC)=ALL ONES
 11823	036152	444 00 0 00 070253 		EQV	[0]		;RESULTS IN C(AC)=0
 11824	036153	332 00 0 00 000000 		SKIPE			;PASS TEST IF C(AC)=0
 11825						STOP^
 11826	036154	254 04 0 00 036155 		HALT	.+1		;TEST FAILED IF PROGRAM HALTS HERE
 11827	036155	324 00 0 00 036156 		JUMPA	.+1		;IF TEST FAILS, CHANGE THIS INSTRUCTION (JUMPA .+1) TO
 11828									;JUMPA X (X IS THE ADDRESS OF THE FIRST INSTRUCTION
 11829									;IN THE SUBTEST) TO LOOP ON ERROR^
 11830
 11831					;**********
 11832
 11833					;THIS TEST VERIFIES THAT THE RESULT OF ADDING C(AC)
 11834					;TO C(E) WHERE AC IS DIFFERENT FROM E BUT C(AC)=
 11835					;C(E)=A ONE IN ONE AND ONLY ONE BIT IS AN
 11836					;AC WHOSE CONTENTS IS NON-ZERO. HENCE, IF A
 11837					;CARRY IS NOT GENERATED IN THE ADDITION PROCESS THE
 11838					;RESULT IN THE AC WILL BE ZERO AND THE TEST
 11839					;WILL FAIL. THIS TEST IS REPEATED 35 TIMES
 11840					;SO THAT A ONE WILL BE FLOATED THROUGH
 11841					;BITS 1 THRU 35 OF BOTH AC AND E
 11842			011206		SN=SN+1
 11843			000040			ZZ=ZZ+ZZ
 11844						IFE	ZZ,<ZZ=1>
 11845	036156	200 00 0 00 070272 		MOVE	[ZZ]		;PRESET AC WITH A FLOATING ONE
DFKAA PDP-10 KL10 BASIC INSTRUCTION DIAGNOSTIC (1) VER 0,2	MACRO %53B(1254)-4 11:50 11-Nov-24 Page 6-21
DFKAA2	MAC	13-Jan-89 10:22		TEST OF THE ADD INSTRUCTION

 11846	036157	270 00 0 00 070272 		ADD	[ZZ]		;*ADD FLOATING ONE TO SAME SHOULD RESULT IN C(AC) NONZERO
 11847	036160	444 00 0 00 070273 		EQV	[ZZ+ZZ]		;RESULTS IN C(AC)=ALL ONES
 11848	036161	444 00 0 00 070253 		EQV	[0]		;RESULTS IN C(AC)=0
 11849	036162	332 00 0 00 000000 		SKIPE			;PASS TEST IF C(AC)=0
 11850						STOP^
 11851	036163	254 04 0 00 036164 		HALT	.+1		;TEST FAILED IF PROGRAM HALTS HERE
 11852	036164	324 00 0 00 036165 		JUMPA	.+1		;IF TEST FAILS, CHANGE THIS INSTRUCTION (JUMPA .+1) TO
 11853									;JUMPA X (X IS THE ADDRESS OF THE FIRST INSTRUCTION
 11854									;IN THE SUBTEST) TO LOOP ON ERROR^
 11855
 11856					;**********
 11857
 11858					;THIS TEST VERIFIES THAT THE RESULT OF ADDING C(AC)
 11859					;TO C(E) WHERE AC IS DIFFERENT FROM E BUT C(AC)=
 11860					;C(E)=A ONE IN ONE AND ONLY ONE BIT IS AN
 11861					;AC WHOSE CONTENTS IS NON-ZERO. HENCE, IF A
 11862					;CARRY IS NOT GENERATED IN THE ADDITION PROCESS THE
 11863					;RESULT IN THE AC WILL BE ZERO AND THE TEST
 11864					;WILL FAIL. THIS TEST IS REPEATED 35 TIMES
 11865					;SO THAT A ONE WILL BE FLOATED THROUGH
 11866					;BITS 1 THRU 35 OF BOTH AC AND E
 11867			011207		SN=SN+1
 11868			000100			ZZ=ZZ+ZZ
 11869						IFE	ZZ,<ZZ=1>
 11870	036165	200 00 0 00 070273 		MOVE	[ZZ]		;PRESET AC WITH A FLOATING ONE
 11871	036166	270 00 0 00 070273 		ADD	[ZZ]		;*ADD FLOATING ONE TO SAME SHOULD RESULT IN C(AC) NONZERO
 11872	036167	444 00 0 00 070274 		EQV	[ZZ+ZZ]		;RESULTS IN C(AC)=ALL ONES
 11873	036170	444 00 0 00 070253 		EQV	[0]		;RESULTS IN C(AC)=0
 11874	036171	332 00 0 00 000000 		SKIPE			;PASS TEST IF C(AC)=0
 11875						STOP^
 11876	036172	254 04 0 00 036173 		HALT	.+1		;TEST FAILED IF PROGRAM HALTS HERE
 11877	036173	324 00 0 00 036174 		JUMPA	.+1		;IF TEST FAILS, CHANGE THIS INSTRUCTION (JUMPA .+1) TO
 11878									;JUMPA X (X IS THE ADDRESS OF THE FIRST INSTRUCTION
 11879									;IN THE SUBTEST) TO LOOP ON ERROR^
 11880
 11881					;**********
 11882
 11883					;THIS TEST VERIFIES THAT THE RESULT OF ADDING C(AC)
 11884					;TO C(E) WHERE AC IS DIFFERENT FROM E BUT C(AC)=
 11885					;C(E)=A ONE IN ONE AND ONLY ONE BIT IS AN
 11886					;AC WHOSE CONTENTS IS NON-ZERO. HENCE, IF A
 11887					;CARRY IS NOT GENERATED IN THE ADDITION PROCESS THE
 11888					;RESULT IN THE AC WILL BE ZERO AND THE TEST
 11889					;WILL FAIL. THIS TEST IS REPEATED 35 TIMES
 11890					;SO THAT A ONE WILL BE FLOATED THROUGH
 11891					;BITS 1 THRU 35 OF BOTH AC AND E
 11892			011210		SN=SN+1
 11893			000200			ZZ=ZZ+ZZ
 11894						IFE	ZZ,<ZZ=1>
 11895	036174	200 00 0 00 070274 		MOVE	[ZZ]		;PRESET AC WITH A FLOATING ONE
 11896	036175	270 00 0 00 070274 		ADD	[ZZ]		;*ADD FLOATING ONE TO SAME SHOULD RESULT IN C(AC) NONZERO
 11897	036176	444 00 0 00 070275 		EQV	[ZZ+ZZ]		;RESULTS IN C(AC)=ALL ONES
 11898	036177	444 00 0 00 070253 		EQV	[0]		;RESULTS IN C(AC)=0
 11899	036200	332 00 0 00 000000 		SKIPE			;PASS TEST IF C(AC)=0
 11900						STOP^
DFKAA PDP-10 KL10 BASIC INSTRUCTION DIAGNOSTIC (1) VER 0,2	MACRO %53B(1254)-4 11:50 11-Nov-24 Page 6-22
DFKAA2	MAC	13-Jan-89 10:22		TEST OF THE ADD INSTRUCTION

 11901	036201	254 04 0 00 036202 		HALT	.+1		;TEST FAILED IF PROGRAM HALTS HERE
 11902	036202	324 00 0 00 036203 		JUMPA	.+1		;IF TEST FAILS, CHANGE THIS INSTRUCTION (JUMPA .+1) TO
 11903									;JUMPA X (X IS THE ADDRESS OF THE FIRST INSTRUCTION
 11904									;IN THE SUBTEST) TO LOOP ON ERROR^
 11905
 11906					;**********
 11907
 11908					;THIS TEST VERIFIES THAT THE RESULT OF ADDING C(AC)
 11909					;TO C(E) WHERE AC IS DIFFERENT FROM E BUT C(AC)=
 11910					;C(E)=A ONE IN ONE AND ONLY ONE BIT IS AN
 11911					;AC WHOSE CONTENTS IS NON-ZERO. HENCE, IF A
 11912					;CARRY IS NOT GENERATED IN THE ADDITION PROCESS THE
 11913					;RESULT IN THE AC WILL BE ZERO AND THE TEST
 11914					;WILL FAIL. THIS TEST IS REPEATED 35 TIMES
 11915					;SO THAT A ONE WILL BE FLOATED THROUGH
 11916					;BITS 1 THRU 35 OF BOTH AC AND E
 11917			011211		SN=SN+1
 11918			000400			ZZ=ZZ+ZZ
 11919						IFE	ZZ,<ZZ=1>
 11920	036203	200 00 0 00 070275 		MOVE	[ZZ]		;PRESET AC WITH A FLOATING ONE
 11921	036204	270 00 0 00 070275 		ADD	[ZZ]		;*ADD FLOATING ONE TO SAME SHOULD RESULT IN C(AC) NONZERO
 11922	036205	444 00 0 00 070276 		EQV	[ZZ+ZZ]		;RESULTS IN C(AC)=ALL ONES
 11923	036206	444 00 0 00 070253 		EQV	[0]		;RESULTS IN C(AC)=0
 11924	036207	332 00 0 00 000000 		SKIPE			;PASS TEST IF C(AC)=0
 11925						STOP^
 11926	036210	254 04 0 00 036211 		HALT	.+1		;TEST FAILED IF PROGRAM HALTS HERE
 11927	036211	324 00 0 00 036212 		JUMPA	.+1		;IF TEST FAILS, CHANGE THIS INSTRUCTION (JUMPA .+1) TO
 11928									;JUMPA X (X IS THE ADDRESS OF THE FIRST INSTRUCTION
 11929									;IN THE SUBTEST) TO LOOP ON ERROR^
 11930
 11931					;**********
 11932
 11933					;THIS TEST VERIFIES THAT THE RESULT OF ADDING C(AC)
 11934					;TO C(E) WHERE AC IS DIFFERENT FROM E BUT C(AC)=
 11935					;C(E)=A ONE IN ONE AND ONLY ONE BIT IS AN
 11936					;AC WHOSE CONTENTS IS NON-ZERO. HENCE, IF A
 11937					;CARRY IS NOT GENERATED IN THE ADDITION PROCESS THE
 11938					;RESULT IN THE AC WILL BE ZERO AND THE TEST
 11939					;WILL FAIL. THIS TEST IS REPEATED 35 TIMES
 11940					;SO THAT A ONE WILL BE FLOATED THROUGH
 11941					;BITS 1 THRU 35 OF BOTH AC AND E
 11942			011212		SN=SN+1
 11943			001000			ZZ=ZZ+ZZ
 11944						IFE	ZZ,<ZZ=1>
 11945	036212	200 00 0 00 070276 		MOVE	[ZZ]		;PRESET AC WITH A FLOATING ONE
 11946	036213	270 00 0 00 070276 		ADD	[ZZ]		;*ADD FLOATING ONE TO SAME SHOULD RESULT IN C(AC) NONZERO
 11947	036214	444 00 0 00 070277 		EQV	[ZZ+ZZ]		;RESULTS IN C(AC)=ALL ONES
 11948	036215	444 00 0 00 070253 		EQV	[0]		;RESULTS IN C(AC)=0
 11949	036216	332 00 0 00 000000 		SKIPE			;PASS TEST IF C(AC)=0
 11950						STOP^
 11951	036217	254 04 0 00 036220 		HALT	.+1		;TEST FAILED IF PROGRAM HALTS HERE
 11952	036220	324 00 0 00 036221 		JUMPA	.+1		;IF TEST FAILS, CHANGE THIS INSTRUCTION (JUMPA .+1) TO
 11953									;JUMPA X (X IS THE ADDRESS OF THE FIRST INSTRUCTION
 11954									;IN THE SUBTEST) TO LOOP ON ERROR^
 11955
DFKAA PDP-10 KL10 BASIC INSTRUCTION DIAGNOSTIC (1) VER 0,2	MACRO %53B(1254)-4 11:50 11-Nov-24 Page 6-23
DFKAA2	MAC	13-Jan-89 10:22		TEST OF THE ADD INSTRUCTION

 11956					;**********
 11957
 11958					;THIS TEST VERIFIES THAT THE RESULT OF ADDING C(AC)
 11959					;TO C(E) WHERE AC IS DIFFERENT FROM E BUT C(AC)=
 11960					;C(E)=A ONE IN ONE AND ONLY ONE BIT IS AN
 11961					;AC WHOSE CONTENTS IS NON-ZERO. HENCE, IF A
 11962					;CARRY IS NOT GENERATED IN THE ADDITION PROCESS THE
 11963					;RESULT IN THE AC WILL BE ZERO AND THE TEST
 11964					;WILL FAIL. THIS TEST IS REPEATED 35 TIMES
 11965					;SO THAT A ONE WILL BE FLOATED THROUGH
 11966					;BITS 1 THRU 35 OF BOTH AC AND E
 11967			011213		SN=SN+1
 11968			002000			ZZ=ZZ+ZZ
 11969						IFE	ZZ,<ZZ=1>
 11970	036221	200 00 0 00 070277 		MOVE	[ZZ]		;PRESET AC WITH A FLOATING ONE
 11971	036222	270 00 0 00 070277 		ADD	[ZZ]		;*ADD FLOATING ONE TO SAME SHOULD RESULT IN C(AC) NONZERO
 11972	036223	444 00 0 00 070300 		EQV	[ZZ+ZZ]		;RESULTS IN C(AC)=ALL ONES
 11973	036224	444 00 0 00 070253 		EQV	[0]		;RESULTS IN C(AC)=0
 11974	036225	332 00 0 00 000000 		SKIPE			;PASS TEST IF C(AC)=0
 11975						STOP^
 11976	036226	254 04 0 00 036227 		HALT	.+1		;TEST FAILED IF PROGRAM HALTS HERE
 11977	036227	324 00 0 00 036230 		JUMPA	.+1		;IF TEST FAILS, CHANGE THIS INSTRUCTION (JUMPA .+1) TO
 11978									;JUMPA X (X IS THE ADDRESS OF THE FIRST INSTRUCTION
 11979									;IN THE SUBTEST) TO LOOP ON ERROR^
 11980
 11981					;**********
 11982
 11983					;THIS TEST VERIFIES THAT THE RESULT OF ADDING C(AC)
 11984					;TO C(E) WHERE AC IS DIFFERENT FROM E BUT C(AC)=
 11985					;C(E)=A ONE IN ONE AND ONLY ONE BIT IS AN
 11986					;AC WHOSE CONTENTS IS NON-ZERO. HENCE, IF A
 11987					;CARRY IS NOT GENERATED IN THE ADDITION PROCESS THE
 11988					;RESULT IN THE AC WILL BE ZERO AND THE TEST
 11989					;WILL FAIL. THIS TEST IS REPEATED 35 TIMES
 11990					;SO THAT A ONE WILL BE FLOATED THROUGH
 11991					;BITS 1 THRU 35 OF BOTH AC AND E
 11992			011214		SN=SN+1
 11993			004000			ZZ=ZZ+ZZ
 11994						IFE	ZZ,<ZZ=1>
 11995	036230	200 00 0 00 070300 		MOVE	[ZZ]		;PRESET AC WITH A FLOATING ONE
 11996	036231	270 00 0 00 070300 		ADD	[ZZ]		;*ADD FLOATING ONE TO SAME SHOULD RESULT IN C(AC) NONZERO
 11997	036232	444 00 0 00 070301 		EQV	[ZZ+ZZ]		;RESULTS IN C(AC)=ALL ONES
 11998	036233	444 00 0 00 070253 		EQV	[0]		;RESULTS IN C(AC)=0
 11999	036234	332 00 0 00 000000 		SKIPE			;PASS TEST IF C(AC)=0
 12000						STOP^
 12001	036235	254 04 0 00 036236 		HALT	.+1		;TEST FAILED IF PROGRAM HALTS HERE
 12002	036236	324 00 0 00 036237 		JUMPA	.+1		;IF TEST FAILS, CHANGE THIS INSTRUCTION (JUMPA .+1) TO
 12003									;JUMPA X (X IS THE ADDRESS OF THE FIRST INSTRUCTION
 12004									;IN THE SUBTEST) TO LOOP ON ERROR^
 12005
 12006					;**********
 12007
 12008					;THIS TEST VERIFIES THAT THE RESULT OF ADDING C(AC)
 12009					;TO C(E) WHERE AC IS DIFFERENT FROM E BUT C(AC)=
 12010					;C(E)=A ONE IN ONE AND ONLY ONE BIT IS AN
DFKAA PDP-10 KL10 BASIC INSTRUCTION DIAGNOSTIC (1) VER 0,2	MACRO %53B(1254)-4 11:50 11-Nov-24 Page 6-24
DFKAA2	MAC	13-Jan-89 10:22		TEST OF THE ADD INSTRUCTION

 12011					;AC WHOSE CONTENTS IS NON-ZERO. HENCE, IF A
 12012					;CARRY IS NOT GENERATED IN THE ADDITION PROCESS THE
 12013					;RESULT IN THE AC WILL BE ZERO AND THE TEST
 12014					;WILL FAIL. THIS TEST IS REPEATED 35 TIMES
 12015					;SO THAT A ONE WILL BE FLOATED THROUGH
 12016					;BITS 1 THRU 35 OF BOTH AC AND E
 12017			011215		SN=SN+1
 12018			010000			ZZ=ZZ+ZZ
 12019						IFE	ZZ,<ZZ=1>
 12020	036237	200 00 0 00 070301 		MOVE	[ZZ]		;PRESET AC WITH A FLOATING ONE
 12021	036240	270 00 0 00 070301 		ADD	[ZZ]		;*ADD FLOATING ONE TO SAME SHOULD RESULT IN C(AC) NONZERO
 12022	036241	444 00 0 00 070302 		EQV	[ZZ+ZZ]		;RESULTS IN C(AC)=ALL ONES
 12023	036242	444 00 0 00 070253 		EQV	[0]		;RESULTS IN C(AC)=0
 12024	036243	332 00 0 00 000000 		SKIPE			;PASS TEST IF C(AC)=0
 12025						STOP^
 12026	036244	254 04 0 00 036245 		HALT	.+1		;TEST FAILED IF PROGRAM HALTS HERE
 12027	036245	324 00 0 00 036246 		JUMPA	.+1		;IF TEST FAILS, CHANGE THIS INSTRUCTION (JUMPA .+1) TO
 12028									;JUMPA X (X IS THE ADDRESS OF THE FIRST INSTRUCTION
 12029									;IN THE SUBTEST) TO LOOP ON ERROR^
 12030
 12031					;**********
 12032
 12033					;THIS TEST VERIFIES THAT THE RESULT OF ADDING C(AC)
 12034					;TO C(E) WHERE AC IS DIFFERENT FROM E BUT C(AC)=
 12035					;C(E)=A ONE IN ONE AND ONLY ONE BIT IS AN
 12036					;AC WHOSE CONTENTS IS NON-ZERO. HENCE, IF A
 12037					;CARRY IS NOT GENERATED IN THE ADDITION PROCESS THE
 12038					;RESULT IN THE AC WILL BE ZERO AND THE TEST
 12039					;WILL FAIL. THIS TEST IS REPEATED 35 TIMES
 12040					;SO THAT A ONE WILL BE FLOATED THROUGH
 12041					;BITS 1 THRU 35 OF BOTH AC AND E
 12042			011216		SN=SN+1
 12043			020000			ZZ=ZZ+ZZ
 12044						IFE	ZZ,<ZZ=1>
 12045	036246	200 00 0 00 070302 		MOVE	[ZZ]		;PRESET AC WITH A FLOATING ONE
 12046	036247	270 00 0 00 070302 		ADD	[ZZ]		;*ADD FLOATING ONE TO SAME SHOULD RESULT IN C(AC) NONZERO
 12047	036250	444 00 0 00 070303 		EQV	[ZZ+ZZ]		;RESULTS IN C(AC)=ALL ONES
 12048	036251	444 00 0 00 070253 		EQV	[0]		;RESULTS IN C(AC)=0
 12049	036252	332 00 0 00 000000 		SKIPE			;PASS TEST IF C(AC)=0
 12050						STOP^
 12051	036253	254 04 0 00 036254 		HALT	.+1		;TEST FAILED IF PROGRAM HALTS HERE
 12052	036254	324 00 0 00 036255 		JUMPA	.+1		;IF TEST FAILS, CHANGE THIS INSTRUCTION (JUMPA .+1) TO
 12053									;JUMPA X (X IS THE ADDRESS OF THE FIRST INSTRUCTION
 12054									;IN THE SUBTEST) TO LOOP ON ERROR^
 12055
 12056					;**********
 12057
 12058					;THIS TEST VERIFIES THAT THE RESULT OF ADDING C(AC)
 12059					;TO C(E) WHERE AC IS DIFFERENT FROM E BUT C(AC)=
 12060					;C(E)=A ONE IN ONE AND ONLY ONE BIT IS AN
 12061					;AC WHOSE CONTENTS IS NON-ZERO. HENCE, IF A
 12062					;CARRY IS NOT GENERATED IN THE ADDITION PROCESS THE
 12063					;RESULT IN THE AC WILL BE ZERO AND THE TEST
 12064					;WILL FAIL. THIS TEST IS REPEATED 35 TIMES
 12065					;SO THAT A ONE WILL BE FLOATED THROUGH
DFKAA PDP-10 KL10 BASIC INSTRUCTION DIAGNOSTIC (1) VER 0,2	MACRO %53B(1254)-4 11:50 11-Nov-24 Page 6-25
DFKAA2	MAC	13-Jan-89 10:22		TEST OF THE ADD INSTRUCTION

 12066					;BITS 1 THRU 35 OF BOTH AC AND E
 12067			011217		SN=SN+1
 12068			040000			ZZ=ZZ+ZZ
 12069						IFE	ZZ,<ZZ=1>
 12070	036255	200 00 0 00 070303 		MOVE	[ZZ]		;PRESET AC WITH A FLOATING ONE
 12071	036256	270 00 0 00 070303 		ADD	[ZZ]		;*ADD FLOATING ONE TO SAME SHOULD RESULT IN C(AC) NONZERO
 12072	036257	444 00 0 00 070304 		EQV	[ZZ+ZZ]		;RESULTS IN C(AC)=ALL ONES
 12073	036260	444 00 0 00 070253 		EQV	[0]		;RESULTS IN C(AC)=0
 12074	036261	332 00 0 00 000000 		SKIPE			;PASS TEST IF C(AC)=0
 12075						STOP^
 12076	036262	254 04 0 00 036263 		HALT	.+1		;TEST FAILED IF PROGRAM HALTS HERE
 12077	036263	324 00 0 00 036264 		JUMPA	.+1		;IF TEST FAILS, CHANGE THIS INSTRUCTION (JUMPA .+1) TO
 12078									;JUMPA X (X IS THE ADDRESS OF THE FIRST INSTRUCTION
 12079									;IN THE SUBTEST) TO LOOP ON ERROR^
 12080
 12081					;**********
 12082
 12083					;THIS TEST VERIFIES THAT THE RESULT OF ADDING C(AC)
 12084					;TO C(E) WHERE AC IS DIFFERENT FROM E BUT C(AC)=
 12085					;C(E)=A ONE IN ONE AND ONLY ONE BIT IS AN
 12086					;AC WHOSE CONTENTS IS NON-ZERO. HENCE, IF A
 12087					;CARRY IS NOT GENERATED IN THE ADDITION PROCESS THE
 12088					;RESULT IN THE AC WILL BE ZERO AND THE TEST
 12089					;WILL FAIL. THIS TEST IS REPEATED 35 TIMES
 12090					;SO THAT A ONE WILL BE FLOATED THROUGH
 12091					;BITS 1 THRU 35 OF BOTH AC AND E
 12092			011220		SN=SN+1
 12093			100000			ZZ=ZZ+ZZ
 12094						IFE	ZZ,<ZZ=1>
 12095	036264	200 00 0 00 070304 		MOVE	[ZZ]		;PRESET AC WITH A FLOATING ONE
 12096	036265	270 00 0 00 070304 		ADD	[ZZ]		;*ADD FLOATING ONE TO SAME SHOULD RESULT IN C(AC) NONZERO
 12097	036266	444 00 0 00 070305 		EQV	[ZZ+ZZ]		;RESULTS IN C(AC)=ALL ONES
 12098	036267	444 00 0 00 070253 		EQV	[0]		;RESULTS IN C(AC)=0
 12099	036270	332 00 0 00 000000 		SKIPE			;PASS TEST IF C(AC)=0
 12100						STOP^
 12101	036271	254 04 0 00 036272 		HALT	.+1		;TEST FAILED IF PROGRAM HALTS HERE
 12102	036272	324 00 0 00 036273 		JUMPA	.+1		;IF TEST FAILS, CHANGE THIS INSTRUCTION (JUMPA .+1) TO
 12103									;JUMPA X (X IS THE ADDRESS OF THE FIRST INSTRUCTION
 12104									;IN THE SUBTEST) TO LOOP ON ERROR^
 12105
 12106					;**********
 12107
 12108					;THIS TEST VERIFIES THAT THE RESULT OF ADDING C(AC)
 12109					;TO C(E) WHERE AC IS DIFFERENT FROM E BUT C(AC)=
 12110					;C(E)=A ONE IN ONE AND ONLY ONE BIT IS AN
 12111					;AC WHOSE CONTENTS IS NON-ZERO. HENCE, IF A
 12112					;CARRY IS NOT GENERATED IN THE ADDITION PROCESS THE
 12113					;RESULT IN THE AC WILL BE ZERO AND THE TEST
 12114					;WILL FAIL. THIS TEST IS REPEATED 35 TIMES
 12115					;SO THAT A ONE WILL BE FLOATED THROUGH
 12116					;BITS 1 THRU 35 OF BOTH AC AND E
 12117			011221		SN=SN+1
 12118			200000			ZZ=ZZ+ZZ
 12119						IFE	ZZ,<ZZ=1>
 12120	036273	200 00 0 00 070305 		MOVE	[ZZ]		;PRESET AC WITH A FLOATING ONE
DFKAA PDP-10 KL10 BASIC INSTRUCTION DIAGNOSTIC (1) VER 0,2	MACRO %53B(1254)-4 11:50 11-Nov-24 Page 6-26
DFKAA2	MAC	13-Jan-89 10:22		TEST OF THE ADD INSTRUCTION

 12121	036274	270 00 0 00 070305 		ADD	[ZZ]		;*ADD FLOATING ONE TO SAME SHOULD RESULT IN C(AC) NONZERO
 12122	036275	444 00 0 00 070306 		EQV	[ZZ+ZZ]		;RESULTS IN C(AC)=ALL ONES
 12123	036276	444 00 0 00 070253 		EQV	[0]		;RESULTS IN C(AC)=0
 12124	036277	332 00 0 00 000000 		SKIPE			;PASS TEST IF C(AC)=0
 12125						STOP^
 12126	036300	254 04 0 00 036301 		HALT	.+1		;TEST FAILED IF PROGRAM HALTS HERE
 12127	036301	324 00 0 00 036302 		JUMPA	.+1		;IF TEST FAILS, CHANGE THIS INSTRUCTION (JUMPA .+1) TO
 12128									;JUMPA X (X IS THE ADDRESS OF THE FIRST INSTRUCTION
 12129									;IN THE SUBTEST) TO LOOP ON ERROR^
 12130
 12131					;**********
 12132
 12133					;THIS TEST VERIFIES THAT THE RESULT OF ADDING C(AC)
 12134					;TO C(E) WHERE AC IS DIFFERENT FROM E BUT C(AC)=
 12135					;C(E)=A ONE IN ONE AND ONLY ONE BIT IS AN
 12136					;AC WHOSE CONTENTS IS NON-ZERO. HENCE, IF A
 12137					;CARRY IS NOT GENERATED IN THE ADDITION PROCESS THE
 12138					;RESULT IN THE AC WILL BE ZERO AND THE TEST
 12139					;WILL FAIL. THIS TEST IS REPEATED 35 TIMES
 12140					;SO THAT A ONE WILL BE FLOATED THROUGH
 12141					;BITS 1 THRU 35 OF BOTH AC AND E
 12142			011222		SN=SN+1
 12143			400000			ZZ=ZZ+ZZ
 12144						IFE	ZZ,<ZZ=1>
 12145	036302	200 00 0 00 070306 		MOVE	[ZZ]		;PRESET AC WITH A FLOATING ONE
 12146	036303	270 00 0 00 070306 		ADD	[ZZ]		;*ADD FLOATING ONE TO SAME SHOULD RESULT IN C(AC) NONZERO
 12147	036304	444 00 0 00 070307 		EQV	[ZZ+ZZ]		;RESULTS IN C(AC)=ALL ONES
 12148	036305	444 00 0 00 070253 		EQV	[0]		;RESULTS IN C(AC)=0
 12149	036306	332 00 0 00 000000 		SKIPE			;PASS TEST IF C(AC)=0
 12150						STOP^
 12151	036307	254 04 0 00 036310 		HALT	.+1		;TEST FAILED IF PROGRAM HALTS HERE
 12152	036310	324 00 0 00 036311 		JUMPA	.+1		;IF TEST FAILS, CHANGE THIS INSTRUCTION (JUMPA .+1) TO
 12153									;JUMPA X (X IS THE ADDRESS OF THE FIRST INSTRUCTION
 12154									;IN THE SUBTEST) TO LOOP ON ERROR^
 12155
 12156					;**********
 12157
 12158					;THIS TEST VERIFIES THAT THE RESULT OF ADDING C(AC)
 12159					;TO C(E) WHERE AC IS DIFFERENT FROM E BUT C(AC)=
 12160					;C(E)=A ONE IN ONE AND ONLY ONE BIT IS AN
 12161					;AC WHOSE CONTENTS IS NON-ZERO. HENCE, IF A
 12162					;CARRY IS NOT GENERATED IN THE ADDITION PROCESS THE
 12163					;RESULT IN THE AC WILL BE ZERO AND THE TEST
 12164					;WILL FAIL. THIS TEST IS REPEATED 35 TIMES
 12165					;SO THAT A ONE WILL BE FLOATED THROUGH
 12166					;BITS 1 THRU 35 OF BOTH AC AND E
 12167			011223		SN=SN+1
 12168		000001	000000			ZZ=ZZ+ZZ
 12169						IFE	ZZ,<ZZ=1>
 12170	036311	200 00 0 00 070307 		MOVE	[ZZ]		;PRESET AC WITH A FLOATING ONE
 12171	036312	270 00 0 00 070307 		ADD	[ZZ]		;*ADD FLOATING ONE TO SAME SHOULD RESULT IN C(AC) NONZERO
 12172	036313	444 00 0 00 070310 		EQV	[ZZ+ZZ]		;RESULTS IN C(AC)=ALL ONES
 12173	036314	444 00 0 00 070253 		EQV	[0]		;RESULTS IN C(AC)=0
 12174	036315	332 00 0 00 000000 		SKIPE			;PASS TEST IF C(AC)=0
 12175						STOP^
DFKAA PDP-10 KL10 BASIC INSTRUCTION DIAGNOSTIC (1) VER 0,2	MACRO %53B(1254)-4 11:50 11-Nov-24 Page 6-27
DFKAA2	MAC	13-Jan-89 10:22		TEST OF THE ADD INSTRUCTION

 12176	036316	254 04 0 00 036317 		HALT	.+1		;TEST FAILED IF PROGRAM HALTS HERE
 12177	036317	324 00 0 00 036320 		JUMPA	.+1		;IF TEST FAILS, CHANGE THIS INSTRUCTION (JUMPA .+1) TO
 12178									;JUMPA X (X IS THE ADDRESS OF THE FIRST INSTRUCTION
 12179									;IN THE SUBTEST) TO LOOP ON ERROR^
 12180
 12181					;**********
 12182
 12183					;THIS TEST VERIFIES THAT THE RESULT OF ADDING C(AC)
 12184					;TO C(E) WHERE AC IS DIFFERENT FROM E BUT C(AC)=
 12185					;C(E)=A ONE IN ONE AND ONLY ONE BIT IS AN
 12186					;AC WHOSE CONTENTS IS NON-ZERO. HENCE, IF A
 12187					;CARRY IS NOT GENERATED IN THE ADDITION PROCESS THE
 12188					;RESULT IN THE AC WILL BE ZERO AND THE TEST
 12189					;WILL FAIL. THIS TEST IS REPEATED 35 TIMES
 12190					;SO THAT A ONE WILL BE FLOATED THROUGH
 12191					;BITS 1 THRU 35 OF BOTH AC AND E
 12192			011224		SN=SN+1
 12193		000002	000000			ZZ=ZZ+ZZ
 12194						IFE	ZZ,<ZZ=1>
 12195	036320	200 00 0 00 070310 		MOVE	[ZZ]		;PRESET AC WITH A FLOATING ONE
 12196	036321	270 00 0 00 070310 		ADD	[ZZ]		;*ADD FLOATING ONE TO SAME SHOULD RESULT IN C(AC) NONZERO
 12197	036322	444 00 0 00 070311 		EQV	[ZZ+ZZ]		;RESULTS IN C(AC)=ALL ONES
 12198	036323	444 00 0 00 070253 		EQV	[0]		;RESULTS IN C(AC)=0
 12199	036324	332 00 0 00 000000 		SKIPE			;PASS TEST IF C(AC)=0
 12200						STOP^
 12201	036325	254 04 0 00 036326 		HALT	.+1		;TEST FAILED IF PROGRAM HALTS HERE
 12202	036326	324 00 0 00 036327 		JUMPA	.+1		;IF TEST FAILS, CHANGE THIS INSTRUCTION (JUMPA .+1) TO
 12203									;JUMPA X (X IS THE ADDRESS OF THE FIRST INSTRUCTION
 12204									;IN THE SUBTEST) TO LOOP ON ERROR^
 12205
 12206					;**********
 12207
 12208					;THIS TEST VERIFIES THAT THE RESULT OF ADDING C(AC)
 12209					;TO C(E) WHERE AC IS DIFFERENT FROM E BUT C(AC)=
 12210					;C(E)=A ONE IN ONE AND ONLY ONE BIT IS AN
 12211					;AC WHOSE CONTENTS IS NON-ZERO. HENCE, IF A
 12212					;CARRY IS NOT GENERATED IN THE ADDITION PROCESS THE
 12213					;RESULT IN THE AC WILL BE ZERO AND THE TEST
 12214					;WILL FAIL. THIS TEST IS REPEATED 35 TIMES
 12215					;SO THAT A ONE WILL BE FLOATED THROUGH
 12216					;BITS 1 THRU 35 OF BOTH AC AND E
 12217			011225		SN=SN+1
 12218		000004	000000			ZZ=ZZ+ZZ
 12219						IFE	ZZ,<ZZ=1>
 12220	036327	200 00 0 00 070311 		MOVE	[ZZ]		;PRESET AC WITH A FLOATING ONE
 12221	036330	270 00 0 00 070311 		ADD	[ZZ]		;*ADD FLOATING ONE TO SAME SHOULD RESULT IN C(AC) NONZERO
 12222	036331	444 00 0 00 070312 		EQV	[ZZ+ZZ]		;RESULTS IN C(AC)=ALL ONES
 12223	036332	444 00 0 00 070253 		EQV	[0]		;RESULTS IN C(AC)=0
 12224	036333	332 00 0 00 000000 		SKIPE			;PASS TEST IF C(AC)=0
 12225						STOP^
 12226	036334	254 04 0 00 036335 		HALT	.+1		;TEST FAILED IF PROGRAM HALTS HERE
 12227	036335	324 00 0 00 036336 		JUMPA	.+1		;IF TEST FAILS, CHANGE THIS INSTRUCTION (JUMPA .+1) TO
 12228									;JUMPA X (X IS THE ADDRESS OF THE FIRST INSTRUCTION
 12229									;IN THE SUBTEST) TO LOOP ON ERROR^
 12230
DFKAA PDP-10 KL10 BASIC INSTRUCTION DIAGNOSTIC (1) VER 0,2	MACRO %53B(1254)-4 11:50 11-Nov-24 Page 6-28
DFKAA2	MAC	13-Jan-89 10:22		TEST OF THE ADD INSTRUCTION

 12231					;**********
 12232
 12233					;THIS TEST VERIFIES THAT THE RESULT OF ADDING C(AC)
 12234					;TO C(E) WHERE AC IS DIFFERENT FROM E BUT C(AC)=
 12235					;C(E)=A ONE IN ONE AND ONLY ONE BIT IS AN
 12236					;AC WHOSE CONTENTS IS NON-ZERO. HENCE, IF A
 12237					;CARRY IS NOT GENERATED IN THE ADDITION PROCESS THE
 12238					;RESULT IN THE AC WILL BE ZERO AND THE TEST
 12239					;WILL FAIL. THIS TEST IS REPEATED 35 TIMES
 12240					;SO THAT A ONE WILL BE FLOATED THROUGH
 12241					;BITS 1 THRU 35 OF BOTH AC AND E
 12242			011226		SN=SN+1
 12243		000010	000000			ZZ=ZZ+ZZ
 12244						IFE	ZZ,<ZZ=1>
 12245	036336	200 00 0 00 070312 		MOVE	[ZZ]		;PRESET AC WITH A FLOATING ONE
 12246	036337	270 00 0 00 070312 		ADD	[ZZ]		;*ADD FLOATING ONE TO SAME SHOULD RESULT IN C(AC) NONZERO
 12247	036340	444 00 0 00 070313 		EQV	[ZZ+ZZ]		;RESULTS IN C(AC)=ALL ONES
 12248	036341	444 00 0 00 070253 		EQV	[0]		;RESULTS IN C(AC)=0
 12249	036342	332 00 0 00 000000 		SKIPE			;PASS TEST IF C(AC)=0
 12250						STOP^
 12251	036343	254 04 0 00 036344 		HALT	.+1		;TEST FAILED IF PROGRAM HALTS HERE
 12252	036344	324 00 0 00 036345 		JUMPA	.+1		;IF TEST FAILS, CHANGE THIS INSTRUCTION (JUMPA .+1) TO
 12253									;JUMPA X (X IS THE ADDRESS OF THE FIRST INSTRUCTION
 12254									;IN THE SUBTEST) TO LOOP ON ERROR^
 12255
 12256					;**********
 12257
 12258					;THIS TEST VERIFIES THAT THE RESULT OF ADDING C(AC)
 12259					;TO C(E) WHERE AC IS DIFFERENT FROM E BUT C(AC)=
 12260					;C(E)=A ONE IN ONE AND ONLY ONE BIT IS AN
 12261					;AC WHOSE CONTENTS IS NON-ZERO. HENCE, IF A
 12262					;CARRY IS NOT GENERATED IN THE ADDITION PROCESS THE
 12263					;RESULT IN THE AC WILL BE ZERO AND THE TEST
 12264					;WILL FAIL. THIS TEST IS REPEATED 35 TIMES
 12265					;SO THAT A ONE WILL BE FLOATED THROUGH
 12266					;BITS 1 THRU 35 OF BOTH AC AND E
 12267			011227		SN=SN+1
 12268		000020	000000			ZZ=ZZ+ZZ
 12269						IFE	ZZ,<ZZ=1>
 12270	036345	200 00 0 00 070313 		MOVE	[ZZ]		;PRESET AC WITH A FLOATING ONE
 12271	036346	270 00 0 00 070313 		ADD	[ZZ]		;*ADD FLOATING ONE TO SAME SHOULD RESULT IN C(AC) NONZERO
 12272	036347	444 00 0 00 070314 		EQV	[ZZ+ZZ]		;RESULTS IN C(AC)=ALL ONES
 12273	036350	444 00 0 00 070253 		EQV	[0]		;RESULTS IN C(AC)=0
 12274	036351	332 00 0 00 000000 		SKIPE			;PASS TEST IF C(AC)=0
 12275						STOP^
 12276	036352	254 04 0 00 036353 		HALT	.+1		;TEST FAILED IF PROGRAM HALTS HERE
 12277	036353	324 00 0 00 036354 		JUMPA	.+1		;IF TEST FAILS, CHANGE THIS INSTRUCTION (JUMPA .+1) TO
 12278									;JUMPA X (X IS THE ADDRESS OF THE FIRST INSTRUCTION
 12279									;IN THE SUBTEST) TO LOOP ON ERROR^
 12280
 12281					;**********
 12282
 12283					;THIS TEST VERIFIES THAT THE RESULT OF ADDING C(AC)
 12284					;TO C(E) WHERE AC IS DIFFERENT FROM E BUT C(AC)=
 12285					;C(E)=A ONE IN ONE AND ONLY ONE BIT IS AN
DFKAA PDP-10 KL10 BASIC INSTRUCTION DIAGNOSTIC (1) VER 0,2	MACRO %53B(1254)-4 11:50 11-Nov-24 Page 6-29
DFKAA2	MAC	13-Jan-89 10:22		TEST OF THE ADD INSTRUCTION

 12286					;AC WHOSE CONTENTS IS NON-ZERO. HENCE, IF A
 12287					;CARRY IS NOT GENERATED IN THE ADDITION PROCESS THE
 12288					;RESULT IN THE AC WILL BE ZERO AND THE TEST
 12289					;WILL FAIL. THIS TEST IS REPEATED 35 TIMES
 12290					;SO THAT A ONE WILL BE FLOATED THROUGH
 12291					;BITS 1 THRU 35 OF BOTH AC AND E
 12292			011230		SN=SN+1
 12293		000040	000000			ZZ=ZZ+ZZ
 12294						IFE	ZZ,<ZZ=1>
 12295	036354	200 00 0 00 070314 		MOVE	[ZZ]		;PRESET AC WITH A FLOATING ONE
 12296	036355	270 00 0 00 070314 		ADD	[ZZ]		;*ADD FLOATING ONE TO SAME SHOULD RESULT IN C(AC) NONZERO
 12297	036356	444 00 0 00 070315 		EQV	[ZZ+ZZ]		;RESULTS IN C(AC)=ALL ONES
 12298	036357	444 00 0 00 070253 		EQV	[0]		;RESULTS IN C(AC)=0
 12299	036360	332 00 0 00 000000 		SKIPE			;PASS TEST IF C(AC)=0
 12300						STOP^
 12301	036361	254 04 0 00 036362 		HALT	.+1		;TEST FAILED IF PROGRAM HALTS HERE
 12302	036362	324 00 0 00 036363 		JUMPA	.+1		;IF TEST FAILS, CHANGE THIS INSTRUCTION (JUMPA .+1) TO
 12303									;JUMPA X (X IS THE ADDRESS OF THE FIRST INSTRUCTION
 12304									;IN THE SUBTEST) TO LOOP ON ERROR^
 12305
 12306					;**********
 12307
 12308					;THIS TEST VERIFIES THAT THE RESULT OF ADDING C(AC)
 12309					;TO C(E) WHERE AC IS DIFFERENT FROM E BUT C(AC)=
 12310					;C(E)=A ONE IN ONE AND ONLY ONE BIT IS AN
 12311					;AC WHOSE CONTENTS IS NON-ZERO. HENCE, IF A
 12312					;CARRY IS NOT GENERATED IN THE ADDITION PROCESS THE
 12313					;RESULT IN THE AC WILL BE ZERO AND THE TEST
 12314					;WILL FAIL. THIS TEST IS REPEATED 35 TIMES
 12315					;SO THAT A ONE WILL BE FLOATED THROUGH
 12316					;BITS 1 THRU 35 OF BOTH AC AND E
 12317			011231		SN=SN+1
 12318		000100	000000			ZZ=ZZ+ZZ
 12319						IFE	ZZ,<ZZ=1>
 12320	036363	200 00 0 00 070315 		MOVE	[ZZ]		;PRESET AC WITH A FLOATING ONE
 12321	036364	270 00 0 00 070315 		ADD	[ZZ]		;*ADD FLOATING ONE TO SAME SHOULD RESULT IN C(AC) NONZERO
 12322	036365	444 00 0 00 070316 		EQV	[ZZ+ZZ]		;RESULTS IN C(AC)=ALL ONES
 12323	036366	444 00 0 00 070253 		EQV	[0]		;RESULTS IN C(AC)=0
 12324	036367	332 00 0 00 000000 		SKIPE			;PASS TEST IF C(AC)=0
 12325						STOP^
 12326	036370	254 04 0 00 036371 		HALT	.+1		;TEST FAILED IF PROGRAM HALTS HERE
 12327	036371	324 00 0 00 036372 		JUMPA	.+1		;IF TEST FAILS, CHANGE THIS INSTRUCTION (JUMPA .+1) TO
 12328									;JUMPA X (X IS THE ADDRESS OF THE FIRST INSTRUCTION
 12329									;IN THE SUBTEST) TO LOOP ON ERROR^
 12330
 12331					;**********
 12332
 12333					;THIS TEST VERIFIES THAT THE RESULT OF ADDING C(AC)
 12334					;TO C(E) WHERE AC IS DIFFERENT FROM E BUT C(AC)=
 12335					;C(E)=A ONE IN ONE AND ONLY ONE BIT IS AN
 12336					;AC WHOSE CONTENTS IS NON-ZERO. HENCE, IF A
 12337					;CARRY IS NOT GENERATED IN THE ADDITION PROCESS THE
 12338					;RESULT IN THE AC WILL BE ZERO AND THE TEST
 12339					;WILL FAIL. THIS TEST IS REPEATED 35 TIMES
 12340					;SO THAT A ONE WILL BE FLOATED THROUGH
DFKAA PDP-10 KL10 BASIC INSTRUCTION DIAGNOSTIC (1) VER 0,2	MACRO %53B(1254)-4 11:50 11-Nov-24 Page 6-30
DFKAA2	MAC	13-Jan-89 10:22		TEST OF THE ADD INSTRUCTION

 12341					;BITS 1 THRU 35 OF BOTH AC AND E
 12342			011232		SN=SN+1
 12343		000200	000000			ZZ=ZZ+ZZ
 12344						IFE	ZZ,<ZZ=1>
 12345	036372	200 00 0 00 070316 		MOVE	[ZZ]		;PRESET AC WITH A FLOATING ONE
 12346	036373	270 00 0 00 070316 		ADD	[ZZ]		;*ADD FLOATING ONE TO SAME SHOULD RESULT IN C(AC) NONZERO
 12347	036374	444 00 0 00 070264 		EQV	[ZZ+ZZ]		;RESULTS IN C(AC)=ALL ONES
 12348	036375	444 00 0 00 070253 		EQV	[0]		;RESULTS IN C(AC)=0
 12349	036376	332 00 0 00 000000 		SKIPE			;PASS TEST IF C(AC)=0
 12350						STOP^
 12351	036377	254 04 0 00 036400 		HALT	.+1		;TEST FAILED IF PROGRAM HALTS HERE
 12352	036400	324 00 0 00 036401 		JUMPA	.+1		;IF TEST FAILS, CHANGE THIS INSTRUCTION (JUMPA .+1) TO
 12353									;JUMPA X (X IS THE ADDRESS OF THE FIRST INSTRUCTION
 12354									;IN THE SUBTEST) TO LOOP ON ERROR^
 12355
 12356					;**********
 12357
 12358					;THIS TEST VERIFIES THAT THE RESULT OF ADDING C(AC)
 12359					;TO C(E) WHERE AC IS DIFFERENT FROM E BUT C(AC)=
 12360					;C(E)=A ONE IN ONE AND ONLY ONE BIT IS AN
 12361					;AC WHOSE CONTENTS IS NON-ZERO. HENCE, IF A
 12362					;CARRY IS NOT GENERATED IN THE ADDITION PROCESS THE
 12363					;RESULT IN THE AC WILL BE ZERO AND THE TEST
 12364					;WILL FAIL. THIS TEST IS REPEATED 35 TIMES
 12365					;SO THAT A ONE WILL BE FLOATED THROUGH
 12366					;BITS 1 THRU 35 OF BOTH AC AND E
 12367			011233		SN=SN+1
 12368		000400	000000			ZZ=ZZ+ZZ
 12369						IFE	ZZ,<ZZ=1>
 12370	036401	200 00 0 00 070264 		MOVE	[ZZ]		;PRESET AC WITH A FLOATING ONE
 12371	036402	270 00 0 00 070264 		ADD	[ZZ]		;*ADD FLOATING ONE TO SAME SHOULD RESULT IN C(AC) NONZERO
 12372	036403	444 00 0 00 070317 		EQV	[ZZ+ZZ]		;RESULTS IN C(AC)=ALL ONES
 12373	036404	444 00 0 00 070253 		EQV	[0]		;RESULTS IN C(AC)=0
 12374	036405	332 00 0 00 000000 		SKIPE			;PASS TEST IF C(AC)=0
 12375						STOP^
 12376	036406	254 04 0 00 036407 		HALT	.+1		;TEST FAILED IF PROGRAM HALTS HERE
 12377	036407	324 00 0 00 036410 		JUMPA	.+1		;IF TEST FAILS, CHANGE THIS INSTRUCTION (JUMPA .+1) TO
 12378									;JUMPA X (X IS THE ADDRESS OF THE FIRST INSTRUCTION
 12379									;IN THE SUBTEST) TO LOOP ON ERROR^
 12380
 12381					;**********
 12382
 12383					;THIS TEST VERIFIES THAT THE RESULT OF ADDING C(AC)
 12384					;TO C(E) WHERE AC IS DIFFERENT FROM E BUT C(AC)=
 12385					;C(E)=A ONE IN ONE AND ONLY ONE BIT IS AN
 12386					;AC WHOSE CONTENTS IS NON-ZERO. HENCE, IF A
 12387					;CARRY IS NOT GENERATED IN THE ADDITION PROCESS THE
 12388					;RESULT IN THE AC WILL BE ZERO AND THE TEST
 12389					;WILL FAIL. THIS TEST IS REPEATED 35 TIMES
 12390					;SO THAT A ONE WILL BE FLOATED THROUGH
 12391					;BITS 1 THRU 35 OF BOTH AC AND E
 12392			011234		SN=SN+1
 12393		001000	000000			ZZ=ZZ+ZZ
 12394						IFE	ZZ,<ZZ=1>
 12395	036410	200 00 0 00 070317 		MOVE	[ZZ]		;PRESET AC WITH A FLOATING ONE
DFKAA PDP-10 KL10 BASIC INSTRUCTION DIAGNOSTIC (1) VER 0,2	MACRO %53B(1254)-4 11:50 11-Nov-24 Page 6-31
DFKAA2	MAC	13-Jan-89 10:22		TEST OF THE ADD INSTRUCTION

 12396	036411	270 00 0 00 070317 		ADD	[ZZ]		;*ADD FLOATING ONE TO SAME SHOULD RESULT IN C(AC) NONZERO
 12397	036412	444 00 0 00 070320 		EQV	[ZZ+ZZ]		;RESULTS IN C(AC)=ALL ONES
 12398	036413	444 00 0 00 070253 		EQV	[0]		;RESULTS IN C(AC)=0
 12399	036414	332 00 0 00 000000 		SKIPE			;PASS TEST IF C(AC)=0
 12400						STOP^
 12401	036415	254 04 0 00 036416 		HALT	.+1		;TEST FAILED IF PROGRAM HALTS HERE
 12402	036416	324 00 0 00 036417 		JUMPA	.+1		;IF TEST FAILS, CHANGE THIS INSTRUCTION (JUMPA .+1) TO
 12403									;JUMPA X (X IS THE ADDRESS OF THE FIRST INSTRUCTION
 12404									;IN THE SUBTEST) TO LOOP ON ERROR^
 12405
 12406					;**********
 12407
 12408					;THIS TEST VERIFIES THAT THE RESULT OF ADDING C(AC)
 12409					;TO C(E) WHERE AC IS DIFFERENT FROM E BUT C(AC)=
 12410					;C(E)=A ONE IN ONE AND ONLY ONE BIT IS AN
 12411					;AC WHOSE CONTENTS IS NON-ZERO. HENCE, IF A
 12412					;CARRY IS NOT GENERATED IN THE ADDITION PROCESS THE
 12413					;RESULT IN THE AC WILL BE ZERO AND THE TEST
 12414					;WILL FAIL. THIS TEST IS REPEATED 35 TIMES
 12415					;SO THAT A ONE WILL BE FLOATED THROUGH
 12416					;BITS 1 THRU 35 OF BOTH AC AND E
 12417			011235		SN=SN+1
 12418		002000	000000			ZZ=ZZ+ZZ
 12419						IFE	ZZ,<ZZ=1>
 12420	036417	200 00 0 00 070320 		MOVE	[ZZ]		;PRESET AC WITH A FLOATING ONE
 12421	036420	270 00 0 00 070320 		ADD	[ZZ]		;*ADD FLOATING ONE TO SAME SHOULD RESULT IN C(AC) NONZERO
 12422	036421	444 00 0 00 070321 		EQV	[ZZ+ZZ]		;RESULTS IN C(AC)=ALL ONES
 12423	036422	444 00 0 00 070253 		EQV	[0]		;RESULTS IN C(AC)=0
 12424	036423	332 00 0 00 000000 		SKIPE			;PASS TEST IF C(AC)=0
 12425						STOP^
 12426	036424	254 04 0 00 036425 		HALT	.+1		;TEST FAILED IF PROGRAM HALTS HERE
 12427	036425	324 00 0 00 036426 		JUMPA	.+1		;IF TEST FAILS, CHANGE THIS INSTRUCTION (JUMPA .+1) TO
 12428									;JUMPA X (X IS THE ADDRESS OF THE FIRST INSTRUCTION
 12429									;IN THE SUBTEST) TO LOOP ON ERROR^
 12430
 12431					;**********
 12432
 12433					;THIS TEST VERIFIES THAT THE RESULT OF ADDING C(AC)
 12434					;TO C(E) WHERE AC IS DIFFERENT FROM E BUT C(AC)=
 12435					;C(E)=A ONE IN ONE AND ONLY ONE BIT IS AN
 12436					;AC WHOSE CONTENTS IS NON-ZERO. HENCE, IF A
 12437					;CARRY IS NOT GENERATED IN THE ADDITION PROCESS THE
 12438					;RESULT IN THE AC WILL BE ZERO AND THE TEST
 12439					;WILL FAIL. THIS TEST IS REPEATED 35 TIMES
 12440					;SO THAT A ONE WILL BE FLOATED THROUGH
 12441					;BITS 1 THRU 35 OF BOTH AC AND E
 12442			011236		SN=SN+1
 12443		004000	000000			ZZ=ZZ+ZZ
 12444						IFE	ZZ,<ZZ=1>
 12445	036426	200 00 0 00 070321 		MOVE	[ZZ]		;PRESET AC WITH A FLOATING ONE
 12446	036427	270 00 0 00 070321 		ADD	[ZZ]		;*ADD FLOATING ONE TO SAME SHOULD RESULT IN C(AC) NONZERO
 12447	036430	444 00 0 00 070322 		EQV	[ZZ+ZZ]		;RESULTS IN C(AC)=ALL ONES
 12448	036431	444 00 0 00 070253 		EQV	[0]		;RESULTS IN C(AC)=0
 12449	036432	332 00 0 00 000000 		SKIPE			;PASS TEST IF C(AC)=0
 12450						STOP^
DFKAA PDP-10 KL10 BASIC INSTRUCTION DIAGNOSTIC (1) VER 0,2	MACRO %53B(1254)-4 11:50 11-Nov-24 Page 6-32
DFKAA2	MAC	13-Jan-89 10:22		TEST OF THE ADD INSTRUCTION

 12451	036433	254 04 0 00 036434 		HALT	.+1		;TEST FAILED IF PROGRAM HALTS HERE
 12452	036434	324 00 0 00 036435 		JUMPA	.+1		;IF TEST FAILS, CHANGE THIS INSTRUCTION (JUMPA .+1) TO
 12453									;JUMPA X (X IS THE ADDRESS OF THE FIRST INSTRUCTION
 12454									;IN THE SUBTEST) TO LOOP ON ERROR^
 12455
 12456					;**********
 12457
 12458					;THIS TEST VERIFIES THAT THE RESULT OF ADDING C(AC)
 12459					;TO C(E) WHERE AC IS DIFFERENT FROM E BUT C(AC)=
 12460					;C(E)=A ONE IN ONE AND ONLY ONE BIT IS AN
 12461					;AC WHOSE CONTENTS IS NON-ZERO. HENCE, IF A
 12462					;CARRY IS NOT GENERATED IN THE ADDITION PROCESS THE
 12463					;RESULT IN THE AC WILL BE ZERO AND THE TEST
 12464					;WILL FAIL. THIS TEST IS REPEATED 35 TIMES
 12465					;SO THAT A ONE WILL BE FLOATED THROUGH
 12466					;BITS 1 THRU 35 OF BOTH AC AND E
 12467			011237		SN=SN+1
 12468		010000	000000			ZZ=ZZ+ZZ
 12469						IFE	ZZ,<ZZ=1>
 12470	036435	200 00 0 00 070322 		MOVE	[ZZ]		;PRESET AC WITH A FLOATING ONE
 12471	036436	270 00 0 00 070322 		ADD	[ZZ]		;*ADD FLOATING ONE TO SAME SHOULD RESULT IN C(AC) NONZERO
 12472	036437	444 00 0 00 070323 		EQV	[ZZ+ZZ]		;RESULTS IN C(AC)=ALL ONES
 12473	036440	444 00 0 00 070253 		EQV	[0]		;RESULTS IN C(AC)=0
 12474	036441	332 00 0 00 000000 		SKIPE			;PASS TEST IF C(AC)=0
 12475						STOP^
 12476	036442	254 04 0 00 036443 		HALT	.+1		;TEST FAILED IF PROGRAM HALTS HERE
 12477	036443	324 00 0 00 036444 		JUMPA	.+1		;IF TEST FAILS, CHANGE THIS INSTRUCTION (JUMPA .+1) TO
 12478									;JUMPA X (X IS THE ADDRESS OF THE FIRST INSTRUCTION
 12479									;IN THE SUBTEST) TO LOOP ON ERROR^
 12480
 12481					;**********
 12482
 12483					;THIS TEST VERIFIES THAT THE RESULT OF ADDING C(AC)
 12484					;TO C(E) WHERE AC IS DIFFERENT FROM E BUT C(AC)=
 12485					;C(E)=A ONE IN ONE AND ONLY ONE BIT IS AN
 12486					;AC WHOSE CONTENTS IS NON-ZERO. HENCE, IF A
 12487					;CARRY IS NOT GENERATED IN THE ADDITION PROCESS THE
 12488					;RESULT IN THE AC WILL BE ZERO AND THE TEST
 12489					;WILL FAIL. THIS TEST IS REPEATED 35 TIMES
 12490					;SO THAT A ONE WILL BE FLOATED THROUGH
 12491					;BITS 1 THRU 35 OF BOTH AC AND E
 12492			011240		SN=SN+1
 12493		020000	000000			ZZ=ZZ+ZZ
 12494						IFE	ZZ,<ZZ=1>
 12495	036444	200 00 0 00 070323 		MOVE	[ZZ]		;PRESET AC WITH A FLOATING ONE
 12496	036445	270 00 0 00 070323 		ADD	[ZZ]		;*ADD FLOATING ONE TO SAME SHOULD RESULT IN C(AC) NONZERO
 12497	036446	444 00 0 00 070324 		EQV	[ZZ+ZZ]		;RESULTS IN C(AC)=ALL ONES
 12498	036447	444 00 0 00 070253 		EQV	[0]		;RESULTS IN C(AC)=0
 12499	036450	332 00 0 00 000000 		SKIPE			;PASS TEST IF C(AC)=0
 12500						STOP^
 12501	036451	254 04 0 00 036452 		HALT	.+1		;TEST FAILED IF PROGRAM HALTS HERE
 12502	036452	324 00 0 00 036453 		JUMPA	.+1		;IF TEST FAILS, CHANGE THIS INSTRUCTION (JUMPA .+1) TO
 12503									;JUMPA X (X IS THE ADDRESS OF THE FIRST INSTRUCTION
 12504									;IN THE SUBTEST) TO LOOP ON ERROR^
 12505
DFKAA PDP-10 KL10 BASIC INSTRUCTION DIAGNOSTIC (1) VER 0,2	MACRO %53B(1254)-4 11:50 11-Nov-24 Page 6-33
DFKAA2	MAC	13-Jan-89 10:22		TEST OF THE ADD INSTRUCTION

 12506					;**********
 12507
 12508					;THIS TEST VERIFIES THAT THE RESULT OF ADDING C(AC)
 12509					;TO C(E) WHERE AC IS DIFFERENT FROM E BUT C(AC)=
 12510					;C(E)=A ONE IN ONE AND ONLY ONE BIT IS AN
 12511					;AC WHOSE CONTENTS IS NON-ZERO. HENCE, IF A
 12512					;CARRY IS NOT GENERATED IN THE ADDITION PROCESS THE
 12513					;RESULT IN THE AC WILL BE ZERO AND THE TEST
 12514					;WILL FAIL. THIS TEST IS REPEATED 35 TIMES
 12515					;SO THAT A ONE WILL BE FLOATED THROUGH
 12516					;BITS 1 THRU 35 OF BOTH AC AND E
 12517			011241		SN=SN+1
 12518		040000	000000			ZZ=ZZ+ZZ
 12519						IFE	ZZ,<ZZ=1>
 12520	036453	200 00 0 00 070324 		MOVE	[ZZ]		;PRESET AC WITH A FLOATING ONE
 12521	036454	270 00 0 00 070324 		ADD	[ZZ]		;*ADD FLOATING ONE TO SAME SHOULD RESULT IN C(AC) NONZERO
 12522	036455	444 00 0 00 070325 		EQV	[ZZ+ZZ]		;RESULTS IN C(AC)=ALL ONES
 12523	036456	444 00 0 00 070253 		EQV	[0]		;RESULTS IN C(AC)=0
 12524	036457	332 00 0 00 000000 		SKIPE			;PASS TEST IF C(AC)=0
 12525						STOP^
 12526	036460	254 04 0 00 036461 		HALT	.+1		;TEST FAILED IF PROGRAM HALTS HERE
 12527	036461	324 00 0 00 036462 		JUMPA	.+1		;IF TEST FAILS, CHANGE THIS INSTRUCTION (JUMPA .+1) TO
 12528									;JUMPA X (X IS THE ADDRESS OF THE FIRST INSTRUCTION
 12529									;IN THE SUBTEST) TO LOOP ON ERROR^
 12530
 12531					;**********
 12532
 12533					;THIS TEST VERIFIES THAT THE RESULT OF ADDING C(AC)
 12534					;TO C(E) WHERE AC IS DIFFERENT FROM E BUT C(AC)=
 12535					;C(E)=A ONE IN ONE AND ONLY ONE BIT IS AN
 12536					;AC WHOSE CONTENTS IS NON-ZERO. HENCE, IF A
 12537					;CARRY IS NOT GENERATED IN THE ADDITION PROCESS THE
 12538					;RESULT IN THE AC WILL BE ZERO AND THE TEST
 12539					;WILL FAIL. THIS TEST IS REPEATED 35 TIMES
 12540					;SO THAT A ONE WILL BE FLOATED THROUGH
 12541					;BITS 1 THRU 35 OF BOTH AC AND E
 12542			011242		SN=SN+1
 12543		100000	000000			ZZ=ZZ+ZZ
 12544						IFE	ZZ,<ZZ=1>
 12545	036462	200 00 0 00 070325 		MOVE	[ZZ]		;PRESET AC WITH A FLOATING ONE
 12546	036463	270 00 0 00 070325 		ADD	[ZZ]		;*ADD FLOATING ONE TO SAME SHOULD RESULT IN C(AC) NONZERO
 12547	036464	444 00 0 00 070326 		EQV	[ZZ+ZZ]		;RESULTS IN C(AC)=ALL ONES
 12548	036465	444 00 0 00 070253 		EQV	[0]		;RESULTS IN C(AC)=0
 12549	036466	332 00 0 00 000000 		SKIPE			;PASS TEST IF C(AC)=0
 12550						STOP^
 12551	036467	254 04 0 00 036470 		HALT	.+1		;TEST FAILED IF PROGRAM HALTS HERE
 12552	036470	324 00 0 00 036471 		JUMPA	.+1		;IF TEST FAILS, CHANGE THIS INSTRUCTION (JUMPA .+1) TO
 12553									;JUMPA X (X IS THE ADDRESS OF THE FIRST INSTRUCTION
 12554									;IN THE SUBTEST) TO LOOP ON ERROR^
 12555
 12556					;**********
 12557
 12558					;THIS TEST VERIFIES THAT THE RESULT OF ADDING C(AC)
 12559					;TO C(E) WHERE AC IS DIFFERENT FROM E BUT C(AC)=
 12560					;C(E)=A ONE IN ONE AND ONLY ONE BIT IS AN
DFKAA PDP-10 KL10 BASIC INSTRUCTION DIAGNOSTIC (1) VER 0,2	MACRO %53B(1254)-4 11:50 11-Nov-24 Page 6-34
DFKAA2	MAC	13-Jan-89 10:22		TEST OF THE ADD INSTRUCTION

 12561					;AC WHOSE CONTENTS IS NON-ZERO. HENCE, IF A
 12562					;CARRY IS NOT GENERATED IN THE ADDITION PROCESS THE
 12563					;RESULT IN THE AC WILL BE ZERO AND THE TEST
 12564					;WILL FAIL. THIS TEST IS REPEATED 35 TIMES
 12565					;SO THAT A ONE WILL BE FLOATED THROUGH
 12566					;BITS 1 THRU 35 OF BOTH AC AND E
 12567			011243		SN=SN+1
 12568		200000	000000			ZZ=ZZ+ZZ
 12569						IFE	ZZ,<ZZ=1>
 12570	036471	200 00 0 00 070326 		MOVE	[ZZ]		;PRESET AC WITH A FLOATING ONE
 12571	036472	270 00 0 00 070326 		ADD	[ZZ]		;*ADD FLOATING ONE TO SAME SHOULD RESULT IN C(AC) NONZERO
 12572	036473	444 00 0 00 070256 		EQV	[ZZ+ZZ]		;RESULTS IN C(AC)=ALL ONES
 12573	036474	444 00 0 00 070253 		EQV	[0]		;RESULTS IN C(AC)=0
 12574	036475	332 00 0 00 000000 		SKIPE			;PASS TEST IF C(AC)=0
 12575						STOP^
 12576	036476	254 04 0 00 036477 		HALT	.+1		;TEST FAILED IF PROGRAM HALTS HERE
 12577	036477	324 00 0 00 036500 		JUMPA	.+1		;IF TEST FAILS, CHANGE THIS INSTRUCTION (JUMPA .+1) TO
 12578									;JUMPA X (X IS THE ADDRESS OF THE FIRST INSTRUCTION
 12579									;IN THE SUBTEST) TO LOOP ON ERROR^
 12580
 12581					;**********
 12582
DFKAA PDP-10 KL10 BASIC INSTRUCTION DIAGNOSTIC (1) VER 0,2	MACRO %53B(1254)-4 11:50 11-Nov-24 Page 7
DFKAA2	MAC	13-Jan-89 10:22		TEST OF THE ADD INSTRUCTION

 12583			011300		SN=11300
 12584			000000			ZZ=0
 12585			000000			YY=0
 12586
 12587					A11300:	REPEAT	^D18,
 12588					<;THIS TEST VERIFIES THAT THE ADDITION OF TWO NUMBERS WHOSE SUM IS 2 RAISED TO THE
 12589					;36TH POWER WILL RESULT IN THE C(AC)=0 SINCE THIS NUMBER IS ONE LARGER
 12590					;THAN THE 36 BIT HARDWARE OF THE PROCESSOR IS DESIGNED TO HANDLE. THIS TEST
 12591					;ALSO VERIFIES CARRY GENERATION AND PROPAGATION THROUGHOUT THE
 12592					;ADDER. THIS TEST IS REPEATED 36 TIMES. TESTING BEGINS WITH LOADING THE
 12593					;AC WITH 400000000000 AND ADDING THE SAME NUMBER TO IT; THEN,
 12594					;CHECKING FOR C(AC)=0. IN THE SUBSEQUENT 35 TESTS, THE NUMBER
 12595					;LOADED INTO THE AC IS HALVED EACH TIME AND C(E) IS MADE EQUAL TO ITS
 12596					;FORMER VALUE PLUS THE CURRENT C(AC)
 12597					SN=SN+1
 12598						YY=YY/2
 12599						ZZ=ZZ+YY
 12600						IFE	YY,<YY=400000>
 12601						IFE	ZZ,<ZZ=400000>
 12602						MOVE	[XWD ZZ,0]	;PRESET AC TO A RIPPLED ONE STARTING WITH BIT POSITION 0
 12603						ADD	[XWD YY,0]	;*ADD OF TWO NUMBERS TOTALING 2 RAISED TO THE 36TH
 12604									;POWER SHOULD RESULT IN C(AC)=0.
 12605						SKIPE			;PASS TEST IF C(AC)=0
 12606						STOP
 12607
 12608					;**********
 12609					>
 12610					;THIS TEST VERIFIES THAT THE ADDITION OF TWO NUMBERS WHOSE SUM IS 2 RAISED TO THE
 12611					;36TH POWER WILL RESULT IN THE C(AC)=0 SINCE THIS NUMBER IS ONE LARGER
 12612					;THAN THE 36 BIT HARDWARE OF THE PROCESSOR IS DESIGNED TO HANDLE. THIS TEST
 12613					;ALSO VERIFIES CARRY GENERATION AND PROPAGATION THROUGHOUT THE
 12614					;ADDER. THIS TEST IS REPEATED 36 TIMES. TESTING BEGINS WITH LOADING THE
 12615					;AC WITH 400000000000 AND ADDING THE SAME NUMBER TO IT; THEN,
 12616					;CHECKING FOR C(AC)=0. IN THE SUBSEQUENT 35 TESTS, THE NUMBER
 12617					;LOADED INTO THE AC IS HALVED EACH TIME AND C(E) IS MADE EQUAL TO ITS
 12618					;FORMER VALUE PLUS THE CURRENT C(AC)
 12619			011301		SN=SN+1
 12620			000000			YY=YY/2
 12621			000000			ZZ=ZZ+YY
 12622			400000			IFE	YY,<YY=400000>
 12623			400000			IFE	ZZ,<ZZ=400000>
 12624	036500	200 00 0 00 070256 		MOVE	[XWD ZZ,0]	;PRESET AC TO A RIPPLED ONE STARTING WITH BIT POSITION 0
 12625	036501	270 00 0 00 070256 		ADD	[XWD YY,0]	;*ADD OF TWO NUMBERS TOTALING 2 RAISED TO THE 36TH
 12626									;POWER SHOULD RESULT IN C(AC)=0.
 12627	036502	332 00 0 00 000000 		SKIPE			;PASS TEST IF C(AC)=0
 12628						STOP^
 12629	036503	254 04 0 00 036504 		HALT	.+1		;TEST FAILED IF PROGRAM HALTS HERE
 12630	036504	324 00 0 00 036505 		JUMPA	.+1		;IF TEST FAILS, CHANGE THIS INSTRUCTION (JUMPA .+1) TO
 12631									;JUMPA X (X IS THE ADDRESS OF THE FIRST INSTRUCTION
 12632									;IN THE SUBTEST) TO LOOP ON ERROR^
 12633
 12634					;**********
 12635
 12636					;THIS TEST VERIFIES THAT THE ADDITION OF TWO NUMBERS WHOSE SUM IS 2 RAISED TO THE
 12637					;36TH POWER WILL RESULT IN THE C(AC)=0 SINCE THIS NUMBER IS ONE LARGER
DFKAA PDP-10 KL10 BASIC INSTRUCTION DIAGNOSTIC (1) VER 0,2	MACRO %53B(1254)-4 11:50 11-Nov-24 Page 7-1
DFKAA2	MAC	13-Jan-89 10:22		TEST OF THE ADD INSTRUCTION

 12638					;THAN THE 36 BIT HARDWARE OF THE PROCESSOR IS DESIGNED TO HANDLE. THIS TEST
 12639					;ALSO VERIFIES CARRY GENERATION AND PROPAGATION THROUGHOUT THE
 12640					;ADDER. THIS TEST IS REPEATED 36 TIMES. TESTING BEGINS WITH LOADING THE
 12641					;AC WITH 400000000000 AND ADDING THE SAME NUMBER TO IT; THEN,
 12642					;CHECKING FOR C(AC)=0. IN THE SUBSEQUENT 35 TESTS, THE NUMBER
 12643					;LOADED INTO THE AC IS HALVED EACH TIME AND C(E) IS MADE EQUAL TO ITS
 12644					;FORMER VALUE PLUS THE CURRENT C(AC)
 12645			011302		SN=SN+1
 12646			200000			YY=YY/2
 12647			600000			ZZ=ZZ+YY
 12648						IFE	YY,<YY=400000>
 12649						IFE	ZZ,<ZZ=400000>
 12650	036505	200 00 0 00 070401 		MOVE	[XWD ZZ,0]	;PRESET AC TO A RIPPLED ONE STARTING WITH BIT POSITION 0
 12651	036506	270 00 0 00 070326 		ADD	[XWD YY,0]	;*ADD OF TWO NUMBERS TOTALING 2 RAISED TO THE 36TH
 12652									;POWER SHOULD RESULT IN C(AC)=0.
 12653	036507	332 00 0 00 000000 		SKIPE			;PASS TEST IF C(AC)=0
 12654						STOP^
 12655	036510	254 04 0 00 036511 		HALT	.+1		;TEST FAILED IF PROGRAM HALTS HERE
 12656	036511	324 00 0 00 036512 		JUMPA	.+1		;IF TEST FAILS, CHANGE THIS INSTRUCTION (JUMPA .+1) TO
 12657									;JUMPA X (X IS THE ADDRESS OF THE FIRST INSTRUCTION
 12658									;IN THE SUBTEST) TO LOOP ON ERROR^
 12659
 12660					;**********
 12661
 12662					;THIS TEST VERIFIES THAT THE ADDITION OF TWO NUMBERS WHOSE SUM IS 2 RAISED TO THE
 12663					;36TH POWER WILL RESULT IN THE C(AC)=0 SINCE THIS NUMBER IS ONE LARGER
 12664					;THAN THE 36 BIT HARDWARE OF THE PROCESSOR IS DESIGNED TO HANDLE. THIS TEST
 12665					;ALSO VERIFIES CARRY GENERATION AND PROPAGATION THROUGHOUT THE
 12666					;ADDER. THIS TEST IS REPEATED 36 TIMES. TESTING BEGINS WITH LOADING THE
 12667					;AC WITH 400000000000 AND ADDING THE SAME NUMBER TO IT; THEN,
 12668					;CHECKING FOR C(AC)=0. IN THE SUBSEQUENT 35 TESTS, THE NUMBER
 12669					;LOADED INTO THE AC IS HALVED EACH TIME AND C(E) IS MADE EQUAL TO ITS
 12670					;FORMER VALUE PLUS THE CURRENT C(AC)
 12671			011303		SN=SN+1
 12672			100000			YY=YY/2
 12673			700000			ZZ=ZZ+YY
 12674						IFE	YY,<YY=400000>
 12675						IFE	ZZ,<ZZ=400000>
 12676	036512	200 00 0 00 070402 		MOVE	[XWD ZZ,0]	;PRESET AC TO A RIPPLED ONE STARTING WITH BIT POSITION 0
 12677	036513	270 00 0 00 070325 		ADD	[XWD YY,0]	;*ADD OF TWO NUMBERS TOTALING 2 RAISED TO THE 36TH
 12678									;POWER SHOULD RESULT IN C(AC)=0.
 12679	036514	332 00 0 00 000000 		SKIPE			;PASS TEST IF C(AC)=0
 12680						STOP^
 12681	036515	254 04 0 00 036516 		HALT	.+1		;TEST FAILED IF PROGRAM HALTS HERE
 12682	036516	324 00 0 00 036517 		JUMPA	.+1		;IF TEST FAILS, CHANGE THIS INSTRUCTION (JUMPA .+1) TO
 12683									;JUMPA X (X IS THE ADDRESS OF THE FIRST INSTRUCTION
 12684									;IN THE SUBTEST) TO LOOP ON ERROR^
 12685
 12686					;**********
 12687
 12688					;THIS TEST VERIFIES THAT THE ADDITION OF TWO NUMBERS WHOSE SUM IS 2 RAISED TO THE
 12689					;36TH POWER WILL RESULT IN THE C(AC)=0 SINCE THIS NUMBER IS ONE LARGER
 12690					;THAN THE 36 BIT HARDWARE OF THE PROCESSOR IS DESIGNED TO HANDLE. THIS TEST
 12691					;ALSO VERIFIES CARRY GENERATION AND PROPAGATION THROUGHOUT THE
 12692					;ADDER. THIS TEST IS REPEATED 36 TIMES. TESTING BEGINS WITH LOADING THE
DFKAA PDP-10 KL10 BASIC INSTRUCTION DIAGNOSTIC (1) VER 0,2	MACRO %53B(1254)-4 11:50 11-Nov-24 Page 7-2
DFKAA2	MAC	13-Jan-89 10:22		TEST OF THE ADD INSTRUCTION

 12693					;AC WITH 400000000000 AND ADDING THE SAME NUMBER TO IT; THEN,
 12694					;CHECKING FOR C(AC)=0. IN THE SUBSEQUENT 35 TESTS, THE NUMBER
 12695					;LOADED INTO THE AC IS HALVED EACH TIME AND C(E) IS MADE EQUAL TO ITS
 12696					;FORMER VALUE PLUS THE CURRENT C(AC)
 12697			011304		SN=SN+1
 12698			040000			YY=YY/2
 12699			740000			ZZ=ZZ+YY
 12700						IFE	YY,<YY=400000>
 12701						IFE	ZZ,<ZZ=400000>
 12702	036517	200 00 0 00 070403 		MOVE	[XWD ZZ,0]	;PRESET AC TO A RIPPLED ONE STARTING WITH BIT POSITION 0
 12703	036520	270 00 0 00 070324 		ADD	[XWD YY,0]	;*ADD OF TWO NUMBERS TOTALING 2 RAISED TO THE 36TH
 12704									;POWER SHOULD RESULT IN C(AC)=0.
 12705	036521	332 00 0 00 000000 		SKIPE			;PASS TEST IF C(AC)=0
 12706						STOP^
 12707	036522	254 04 0 00 036523 		HALT	.+1		;TEST FAILED IF PROGRAM HALTS HERE
 12708	036523	324 00 0 00 036524 		JUMPA	.+1		;IF TEST FAILS, CHANGE THIS INSTRUCTION (JUMPA .+1) TO
 12709									;JUMPA X (X IS THE ADDRESS OF THE FIRST INSTRUCTION
 12710									;IN THE SUBTEST) TO LOOP ON ERROR^
 12711
 12712					;**********
 12713
 12714					;THIS TEST VERIFIES THAT THE ADDITION OF TWO NUMBERS WHOSE SUM IS 2 RAISED TO THE
 12715					;36TH POWER WILL RESULT IN THE C(AC)=0 SINCE THIS NUMBER IS ONE LARGER
 12716					;THAN THE 36 BIT HARDWARE OF THE PROCESSOR IS DESIGNED TO HANDLE. THIS TEST
 12717					;ALSO VERIFIES CARRY GENERATION AND PROPAGATION THROUGHOUT THE
 12718					;ADDER. THIS TEST IS REPEATED 36 TIMES. TESTING BEGINS WITH LOADING THE
 12719					;AC WITH 400000000000 AND ADDING THE SAME NUMBER TO IT; THEN,
 12720					;CHECKING FOR C(AC)=0. IN THE SUBSEQUENT 35 TESTS, THE NUMBER
 12721					;LOADED INTO THE AC IS HALVED EACH TIME AND C(E) IS MADE EQUAL TO ITS
 12722					;FORMER VALUE PLUS THE CURRENT C(AC)
 12723			011305		SN=SN+1
 12724			020000			YY=YY/2
 12725			760000			ZZ=ZZ+YY
 12726						IFE	YY,<YY=400000>
 12727						IFE	ZZ,<ZZ=400000>
 12728	036524	200 00 0 00 070404 		MOVE	[XWD ZZ,0]	;PRESET AC TO A RIPPLED ONE STARTING WITH BIT POSITION 0
 12729	036525	270 00 0 00 070323 		ADD	[XWD YY,0]	;*ADD OF TWO NUMBERS TOTALING 2 RAISED TO THE 36TH
 12730									;POWER SHOULD RESULT IN C(AC)=0.
 12731	036526	332 00 0 00 000000 		SKIPE			;PASS TEST IF C(AC)=0
 12732						STOP^
 12733	036527	254 04 0 00 036530 		HALT	.+1		;TEST FAILED IF PROGRAM HALTS HERE
 12734	036530	324 00 0 00 036531 		JUMPA	.+1		;IF TEST FAILS, CHANGE THIS INSTRUCTION (JUMPA .+1) TO
 12735									;JUMPA X (X IS THE ADDRESS OF THE FIRST INSTRUCTION
 12736									;IN THE SUBTEST) TO LOOP ON ERROR^
 12737
 12738					;**********
 12739
 12740					;THIS TEST VERIFIES THAT THE ADDITION OF TWO NUMBERS WHOSE SUM IS 2 RAISED TO THE
 12741					;36TH POWER WILL RESULT IN THE C(AC)=0 SINCE THIS NUMBER IS ONE LARGER
 12742					;THAN THE 36 BIT HARDWARE OF THE PROCESSOR IS DESIGNED TO HANDLE. THIS TEST
 12743					;ALSO VERIFIES CARRY GENERATION AND PROPAGATION THROUGHOUT THE
 12744					;ADDER. THIS TEST IS REPEATED 36 TIMES. TESTING BEGINS WITH LOADING THE
 12745					;AC WITH 400000000000 AND ADDING THE SAME NUMBER TO IT; THEN,
 12746					;CHECKING FOR C(AC)=0. IN THE SUBSEQUENT 35 TESTS, THE NUMBER
 12747					;LOADED INTO THE AC IS HALVED EACH TIME AND C(E) IS MADE EQUAL TO ITS
DFKAA PDP-10 KL10 BASIC INSTRUCTION DIAGNOSTIC (1) VER 0,2	MACRO %53B(1254)-4 11:50 11-Nov-24 Page 7-3
DFKAA2	MAC	13-Jan-89 10:22		TEST OF THE ADD INSTRUCTION

 12748					;FORMER VALUE PLUS THE CURRENT C(AC)
 12749			011306		SN=SN+1
 12750			010000			YY=YY/2
 12751			770000			ZZ=ZZ+YY
 12752						IFE	YY,<YY=400000>
 12753						IFE	ZZ,<ZZ=400000>
 12754	036531	200 00 0 00 070405 		MOVE	[XWD ZZ,0]	;PRESET AC TO A RIPPLED ONE STARTING WITH BIT POSITION 0
 12755	036532	270 00 0 00 070322 		ADD	[XWD YY,0]	;*ADD OF TWO NUMBERS TOTALING 2 RAISED TO THE 36TH
 12756									;POWER SHOULD RESULT IN C(AC)=0.
 12757	036533	332 00 0 00 000000 		SKIPE			;PASS TEST IF C(AC)=0
 12758						STOP^
 12759	036534	254 04 0 00 036535 		HALT	.+1		;TEST FAILED IF PROGRAM HALTS HERE
 12760	036535	324 00 0 00 036536 		JUMPA	.+1		;IF TEST FAILS, CHANGE THIS INSTRUCTION (JUMPA .+1) TO
 12761									;JUMPA X (X IS THE ADDRESS OF THE FIRST INSTRUCTION
 12762									;IN THE SUBTEST) TO LOOP ON ERROR^
 12763
 12764					;**********
 12765
 12766					;THIS TEST VERIFIES THAT THE ADDITION OF TWO NUMBERS WHOSE SUM IS 2 RAISED TO THE
 12767					;36TH POWER WILL RESULT IN THE C(AC)=0 SINCE THIS NUMBER IS ONE LARGER
 12768					;THAN THE 36 BIT HARDWARE OF THE PROCESSOR IS DESIGNED TO HANDLE. THIS TEST
 12769					;ALSO VERIFIES CARRY GENERATION AND PROPAGATION THROUGHOUT THE
 12770					;ADDER. THIS TEST IS REPEATED 36 TIMES. TESTING BEGINS WITH LOADING THE
 12771					;AC WITH 400000000000 AND ADDING THE SAME NUMBER TO IT; THEN,
 12772					;CHECKING FOR C(AC)=0. IN THE SUBSEQUENT 35 TESTS, THE NUMBER
 12773					;LOADED INTO THE AC IS HALVED EACH TIME AND C(E) IS MADE EQUAL TO ITS
 12774					;FORMER VALUE PLUS THE CURRENT C(AC)
 12775			011307		SN=SN+1
 12776			004000			YY=YY/2
 12777			774000			ZZ=ZZ+YY
 12778						IFE	YY,<YY=400000>
 12779						IFE	ZZ,<ZZ=400000>
 12780	036536	200 00 0 00 070406 		MOVE	[XWD ZZ,0]	;PRESET AC TO A RIPPLED ONE STARTING WITH BIT POSITION 0
 12781	036537	270 00 0 00 070321 		ADD	[XWD YY,0]	;*ADD OF TWO NUMBERS TOTALING 2 RAISED TO THE 36TH
 12782									;POWER SHOULD RESULT IN C(AC)=0.
 12783	036540	332 00 0 00 000000 		SKIPE			;PASS TEST IF C(AC)=0
 12784						STOP^
 12785	036541	254 04 0 00 036542 		HALT	.+1		;TEST FAILED IF PROGRAM HALTS HERE
 12786	036542	324 00 0 00 036543 		JUMPA	.+1		;IF TEST FAILS, CHANGE THIS INSTRUCTION (JUMPA .+1) TO
 12787									;JUMPA X (X IS THE ADDRESS OF THE FIRST INSTRUCTION
 12788									;IN THE SUBTEST) TO LOOP ON ERROR^
 12789
 12790					;**********
 12791
 12792					;THIS TEST VERIFIES THAT THE ADDITION OF TWO NUMBERS WHOSE SUM IS 2 RAISED TO THE
 12793					;36TH POWER WILL RESULT IN THE C(AC)=0 SINCE THIS NUMBER IS ONE LARGER
 12794					;THAN THE 36 BIT HARDWARE OF THE PROCESSOR IS DESIGNED TO HANDLE. THIS TEST
 12795					;ALSO VERIFIES CARRY GENERATION AND PROPAGATION THROUGHOUT THE
 12796					;ADDER. THIS TEST IS REPEATED 36 TIMES. TESTING BEGINS WITH LOADING THE
 12797					;AC WITH 400000000000 AND ADDING THE SAME NUMBER TO IT; THEN,
 12798					;CHECKING FOR C(AC)=0. IN THE SUBSEQUENT 35 TESTS, THE NUMBER
 12799					;LOADED INTO THE AC IS HALVED EACH TIME AND C(E) IS MADE EQUAL TO ITS
 12800					;FORMER VALUE PLUS THE CURRENT C(AC)
 12801			011310		SN=SN+1
 12802			002000			YY=YY/2
DFKAA PDP-10 KL10 BASIC INSTRUCTION DIAGNOSTIC (1) VER 0,2	MACRO %53B(1254)-4 11:50 11-Nov-24 Page 7-4
DFKAA2	MAC	13-Jan-89 10:22		TEST OF THE ADD INSTRUCTION

 12803			776000			ZZ=ZZ+YY
 12804						IFE	YY,<YY=400000>
 12805						IFE	ZZ,<ZZ=400000>
 12806	036543	200 00 0 00 070407 		MOVE	[XWD ZZ,0]	;PRESET AC TO A RIPPLED ONE STARTING WITH BIT POSITION 0
 12807	036544	270 00 0 00 070320 		ADD	[XWD YY,0]	;*ADD OF TWO NUMBERS TOTALING 2 RAISED TO THE 36TH
 12808									;POWER SHOULD RESULT IN C(AC)=0.
 12809	036545	332 00 0 00 000000 		SKIPE			;PASS TEST IF C(AC)=0
 12810						STOP^
 12811	036546	254 04 0 00 036547 		HALT	.+1		;TEST FAILED IF PROGRAM HALTS HERE
 12812	036547	324 00 0 00 036550 		JUMPA	.+1		;IF TEST FAILS, CHANGE THIS INSTRUCTION (JUMPA .+1) TO
 12813									;JUMPA X (X IS THE ADDRESS OF THE FIRST INSTRUCTION
 12814									;IN THE SUBTEST) TO LOOP ON ERROR^
 12815
 12816					;**********
 12817
 12818					;THIS TEST VERIFIES THAT THE ADDITION OF TWO NUMBERS WHOSE SUM IS 2 RAISED TO THE
 12819					;36TH POWER WILL RESULT IN THE C(AC)=0 SINCE THIS NUMBER IS ONE LARGER
 12820					;THAN THE 36 BIT HARDWARE OF THE PROCESSOR IS DESIGNED TO HANDLE. THIS TEST
 12821					;ALSO VERIFIES CARRY GENERATION AND PROPAGATION THROUGHOUT THE
 12822					;ADDER. THIS TEST IS REPEATED 36 TIMES. TESTING BEGINS WITH LOADING THE
 12823					;AC WITH 400000000000 AND ADDING THE SAME NUMBER TO IT; THEN,
 12824					;CHECKING FOR C(AC)=0. IN THE SUBSEQUENT 35 TESTS, THE NUMBER
 12825					;LOADED INTO THE AC IS HALVED EACH TIME AND C(E) IS MADE EQUAL TO ITS
 12826					;FORMER VALUE PLUS THE CURRENT C(AC)
 12827			011311		SN=SN+1
 12828			001000			YY=YY/2
 12829			777000			ZZ=ZZ+YY
 12830						IFE	YY,<YY=400000>
 12831						IFE	ZZ,<ZZ=400000>
 12832	036550	200 00 0 00 070257 		MOVE	[XWD ZZ,0]	;PRESET AC TO A RIPPLED ONE STARTING WITH BIT POSITION 0
 12833	036551	270 00 0 00 070317 		ADD	[XWD YY,0]	;*ADD OF TWO NUMBERS TOTALING 2 RAISED TO THE 36TH
 12834									;POWER SHOULD RESULT IN C(AC)=0.
 12835	036552	332 00 0 00 000000 		SKIPE			;PASS TEST IF C(AC)=0
 12836						STOP^
 12837	036553	254 04 0 00 036554 		HALT	.+1		;TEST FAILED IF PROGRAM HALTS HERE
 12838	036554	324 00 0 00 036555 		JUMPA	.+1		;IF TEST FAILS, CHANGE THIS INSTRUCTION (JUMPA .+1) TO
 12839									;JUMPA X (X IS THE ADDRESS OF THE FIRST INSTRUCTION
 12840									;IN THE SUBTEST) TO LOOP ON ERROR^
 12841
 12842					;**********
 12843
 12844					;THIS TEST VERIFIES THAT THE ADDITION OF TWO NUMBERS WHOSE SUM IS 2 RAISED TO THE
 12845					;36TH POWER WILL RESULT IN THE C(AC)=0 SINCE THIS NUMBER IS ONE LARGER
 12846					;THAN THE 36 BIT HARDWARE OF THE PROCESSOR IS DESIGNED TO HANDLE. THIS TEST
 12847					;ALSO VERIFIES CARRY GENERATION AND PROPAGATION THROUGHOUT THE
 12848					;ADDER. THIS TEST IS REPEATED 36 TIMES. TESTING BEGINS WITH LOADING THE
 12849					;AC WITH 400000000000 AND ADDING THE SAME NUMBER TO IT; THEN,
 12850					;CHECKING FOR C(AC)=0. IN THE SUBSEQUENT 35 TESTS, THE NUMBER
 12851					;LOADED INTO THE AC IS HALVED EACH TIME AND C(E) IS MADE EQUAL TO ITS
 12852					;FORMER VALUE PLUS THE CURRENT C(AC)
 12853			011312		SN=SN+1
 12854			000400			YY=YY/2
 12855			777400			ZZ=ZZ+YY
 12856						IFE	YY,<YY=400000>
 12857						IFE	ZZ,<ZZ=400000>
DFKAA PDP-10 KL10 BASIC INSTRUCTION DIAGNOSTIC (1) VER 0,2	MACRO %53B(1254)-4 11:50 11-Nov-24 Page 7-5
DFKAA2	MAC	13-Jan-89 10:22		TEST OF THE ADD INSTRUCTION

 12858	036555	200 00 0 00 070410 		MOVE	[XWD ZZ,0]	;PRESET AC TO A RIPPLED ONE STARTING WITH BIT POSITION 0
 12859	036556	270 00 0 00 070264 		ADD	[XWD YY,0]	;*ADD OF TWO NUMBERS TOTALING 2 RAISED TO THE 36TH
 12860									;POWER SHOULD RESULT IN C(AC)=0.
 12861	036557	332 00 0 00 000000 		SKIPE			;PASS TEST IF C(AC)=0
 12862						STOP^
 12863	036560	254 04 0 00 036561 		HALT	.+1		;TEST FAILED IF PROGRAM HALTS HERE
 12864	036561	324 00 0 00 036562 		JUMPA	.+1		;IF TEST FAILS, CHANGE THIS INSTRUCTION (JUMPA .+1) TO
 12865									;JUMPA X (X IS THE ADDRESS OF THE FIRST INSTRUCTION
 12866									;IN THE SUBTEST) TO LOOP ON ERROR^
 12867
 12868					;**********
 12869
 12870					;THIS TEST VERIFIES THAT THE ADDITION OF TWO NUMBERS WHOSE SUM IS 2 RAISED TO THE
 12871					;36TH POWER WILL RESULT IN THE C(AC)=0 SINCE THIS NUMBER IS ONE LARGER
 12872					;THAN THE 36 BIT HARDWARE OF THE PROCESSOR IS DESIGNED TO HANDLE. THIS TEST
 12873					;ALSO VERIFIES CARRY GENERATION AND PROPAGATION THROUGHOUT THE
 12874					;ADDER. THIS TEST IS REPEATED 36 TIMES. TESTING BEGINS WITH LOADING THE
 12875					;AC WITH 400000000000 AND ADDING THE SAME NUMBER TO IT; THEN,
 12876					;CHECKING FOR C(AC)=0. IN THE SUBSEQUENT 35 TESTS, THE NUMBER
 12877					;LOADED INTO THE AC IS HALVED EACH TIME AND C(E) IS MADE EQUAL TO ITS
 12878					;FORMER VALUE PLUS THE CURRENT C(AC)
 12879			011313		SN=SN+1
 12880			000200			YY=YY/2
 12881			777600			ZZ=ZZ+YY
 12882						IFE	YY,<YY=400000>
 12883						IFE	ZZ,<ZZ=400000>
 12884	036562	200 00 0 00 070411 		MOVE	[XWD ZZ,0]	;PRESET AC TO A RIPPLED ONE STARTING WITH BIT POSITION 0
 12885	036563	270 00 0 00 070316 		ADD	[XWD YY,0]	;*ADD OF TWO NUMBERS TOTALING 2 RAISED TO THE 36TH
 12886									;POWER SHOULD RESULT IN C(AC)=0.
 12887	036564	332 00 0 00 000000 		SKIPE			;PASS TEST IF C(AC)=0
 12888						STOP^
 12889	036565	254 04 0 00 036566 		HALT	.+1		;TEST FAILED IF PROGRAM HALTS HERE
 12890	036566	324 00 0 00 036567 		JUMPA	.+1		;IF TEST FAILS, CHANGE THIS INSTRUCTION (JUMPA .+1) TO
 12891									;JUMPA X (X IS THE ADDRESS OF THE FIRST INSTRUCTION
 12892									;IN THE SUBTEST) TO LOOP ON ERROR^
 12893
 12894					;**********
 12895
 12896					;THIS TEST VERIFIES THAT THE ADDITION OF TWO NUMBERS WHOSE SUM IS 2 RAISED TO THE
 12897					;36TH POWER WILL RESULT IN THE C(AC)=0 SINCE THIS NUMBER IS ONE LARGER
 12898					;THAN THE 36 BIT HARDWARE OF THE PROCESSOR IS DESIGNED TO HANDLE. THIS TEST
 12899					;ALSO VERIFIES CARRY GENERATION AND PROPAGATION THROUGHOUT THE
 12900					;ADDER. THIS TEST IS REPEATED 36 TIMES. TESTING BEGINS WITH LOADING THE
 12901					;AC WITH 400000000000 AND ADDING THE SAME NUMBER TO IT; THEN,
 12902					;CHECKING FOR C(AC)=0. IN THE SUBSEQUENT 35 TESTS, THE NUMBER
 12903					;LOADED INTO THE AC IS HALVED EACH TIME AND C(E) IS MADE EQUAL TO ITS
 12904					;FORMER VALUE PLUS THE CURRENT C(AC)
 12905			011314		SN=SN+1
 12906			000100			YY=YY/2
 12907			777700			ZZ=ZZ+YY
 12908						IFE	YY,<YY=400000>
 12909						IFE	ZZ,<ZZ=400000>
 12910	036567	200 00 0 00 070412 		MOVE	[XWD ZZ,0]	;PRESET AC TO A RIPPLED ONE STARTING WITH BIT POSITION 0
 12911	036570	270 00 0 00 070315 		ADD	[XWD YY,0]	;*ADD OF TWO NUMBERS TOTALING 2 RAISED TO THE 36TH
 12912									;POWER SHOULD RESULT IN C(AC)=0.
DFKAA PDP-10 KL10 BASIC INSTRUCTION DIAGNOSTIC (1) VER 0,2	MACRO %53B(1254)-4 11:50 11-Nov-24 Page 7-6
DFKAA2	MAC	13-Jan-89 10:22		TEST OF THE ADD INSTRUCTION

 12913	036571	332 00 0 00 000000 		SKIPE			;PASS TEST IF C(AC)=0
 12914						STOP^
 12915	036572	254 04 0 00 036573 		HALT	.+1		;TEST FAILED IF PROGRAM HALTS HERE
 12916	036573	324 00 0 00 036574 		JUMPA	.+1		;IF TEST FAILS, CHANGE THIS INSTRUCTION (JUMPA .+1) TO
 12917									;JUMPA X (X IS THE ADDRESS OF THE FIRST INSTRUCTION
 12918									;IN THE SUBTEST) TO LOOP ON ERROR^
 12919
 12920					;**********
 12921
 12922					;THIS TEST VERIFIES THAT THE ADDITION OF TWO NUMBERS WHOSE SUM IS 2 RAISED TO THE
 12923					;36TH POWER WILL RESULT IN THE C(AC)=0 SINCE THIS NUMBER IS ONE LARGER
 12924					;THAN THE 36 BIT HARDWARE OF THE PROCESSOR IS DESIGNED TO HANDLE. THIS TEST
 12925					;ALSO VERIFIES CARRY GENERATION AND PROPAGATION THROUGHOUT THE
 12926					;ADDER. THIS TEST IS REPEATED 36 TIMES. TESTING BEGINS WITH LOADING THE
 12927					;AC WITH 400000000000 AND ADDING THE SAME NUMBER TO IT; THEN,
 12928					;CHECKING FOR C(AC)=0. IN THE SUBSEQUENT 35 TESTS, THE NUMBER
 12929					;LOADED INTO THE AC IS HALVED EACH TIME AND C(E) IS MADE EQUAL TO ITS
 12930					;FORMER VALUE PLUS THE CURRENT C(AC)
 12931			011315		SN=SN+1
 12932			000040			YY=YY/2
 12933			777740			ZZ=ZZ+YY
 12934						IFE	YY,<YY=400000>
 12935						IFE	ZZ,<ZZ=400000>
 12936	036574	200 00 0 00 070413 		MOVE	[XWD ZZ,0]	;PRESET AC TO A RIPPLED ONE STARTING WITH BIT POSITION 0
 12937	036575	270 00 0 00 070314 		ADD	[XWD YY,0]	;*ADD OF TWO NUMBERS TOTALING 2 RAISED TO THE 36TH
 12938									;POWER SHOULD RESULT IN C(AC)=0.
 12939	036576	332 00 0 00 000000 		SKIPE			;PASS TEST IF C(AC)=0
 12940						STOP^
 12941	036577	254 04 0 00 036600 		HALT	.+1		;TEST FAILED IF PROGRAM HALTS HERE
 12942	036600	324 00 0 00 036601 		JUMPA	.+1		;IF TEST FAILS, CHANGE THIS INSTRUCTION (JUMPA .+1) TO
 12943									;JUMPA X (X IS THE ADDRESS OF THE FIRST INSTRUCTION
 12944									;IN THE SUBTEST) TO LOOP ON ERROR^
 12945
 12946					;**********
 12947
 12948					;THIS TEST VERIFIES THAT THE ADDITION OF TWO NUMBERS WHOSE SUM IS 2 RAISED TO THE
 12949					;36TH POWER WILL RESULT IN THE C(AC)=0 SINCE THIS NUMBER IS ONE LARGER
 12950					;THAN THE 36 BIT HARDWARE OF THE PROCESSOR IS DESIGNED TO HANDLE. THIS TEST
 12951					;ALSO VERIFIES CARRY GENERATION AND PROPAGATION THROUGHOUT THE
 12952					;ADDER. THIS TEST IS REPEATED 36 TIMES. TESTING BEGINS WITH LOADING THE
 12953					;AC WITH 400000000000 AND ADDING THE SAME NUMBER TO IT; THEN,
 12954					;CHECKING FOR C(AC)=0. IN THE SUBSEQUENT 35 TESTS, THE NUMBER
 12955					;LOADED INTO THE AC IS HALVED EACH TIME AND C(E) IS MADE EQUAL TO ITS
 12956					;FORMER VALUE PLUS THE CURRENT C(AC)
 12957			011316		SN=SN+1
 12958			000020			YY=YY/2
 12959			777760			ZZ=ZZ+YY
 12960						IFE	YY,<YY=400000>
 12961						IFE	ZZ,<ZZ=400000>
 12962	036601	200 00 0 00 070414 		MOVE	[XWD ZZ,0]	;PRESET AC TO A RIPPLED ONE STARTING WITH BIT POSITION 0
 12963	036602	270 00 0 00 070313 		ADD	[XWD YY,0]	;*ADD OF TWO NUMBERS TOTALING 2 RAISED TO THE 36TH
 12964									;POWER SHOULD RESULT IN C(AC)=0.
 12965	036603	332 00 0 00 000000 		SKIPE			;PASS TEST IF C(AC)=0
 12966						STOP^
 12967	036604	254 04 0 00 036605 		HALT	.+1		;TEST FAILED IF PROGRAM HALTS HERE
DFKAA PDP-10 KL10 BASIC INSTRUCTION DIAGNOSTIC (1) VER 0,2	MACRO %53B(1254)-4 11:50 11-Nov-24 Page 7-7
DFKAA2	MAC	13-Jan-89 10:22		TEST OF THE ADD INSTRUCTION

 12968	036605	324 00 0 00 036606 		JUMPA	.+1		;IF TEST FAILS, CHANGE THIS INSTRUCTION (JUMPA .+1) TO
 12969									;JUMPA X (X IS THE ADDRESS OF THE FIRST INSTRUCTION
 12970									;IN THE SUBTEST) TO LOOP ON ERROR^
 12971
 12972					;**********
 12973
 12974					;THIS TEST VERIFIES THAT THE ADDITION OF TWO NUMBERS WHOSE SUM IS 2 RAISED TO THE
 12975					;36TH POWER WILL RESULT IN THE C(AC)=0 SINCE THIS NUMBER IS ONE LARGER
 12976					;THAN THE 36 BIT HARDWARE OF THE PROCESSOR IS DESIGNED TO HANDLE. THIS TEST
 12977					;ALSO VERIFIES CARRY GENERATION AND PROPAGATION THROUGHOUT THE
 12978					;ADDER. THIS TEST IS REPEATED 36 TIMES. TESTING BEGINS WITH LOADING THE
 12979					;AC WITH 400000000000 AND ADDING THE SAME NUMBER TO IT; THEN,
 12980					;CHECKING FOR C(AC)=0. IN THE SUBSEQUENT 35 TESTS, THE NUMBER
 12981					;LOADED INTO THE AC IS HALVED EACH TIME AND C(E) IS MADE EQUAL TO ITS
 12982					;FORMER VALUE PLUS THE CURRENT C(AC)
 12983			011317		SN=SN+1
 12984			000010			YY=YY/2
 12985			777770			ZZ=ZZ+YY
 12986						IFE	YY,<YY=400000>
 12987						IFE	ZZ,<ZZ=400000>
 12988	036606	200 00 0 00 070415 		MOVE	[XWD ZZ,0]	;PRESET AC TO A RIPPLED ONE STARTING WITH BIT POSITION 0
 12989	036607	270 00 0 00 070312 		ADD	[XWD YY,0]	;*ADD OF TWO NUMBERS TOTALING 2 RAISED TO THE 36TH
 12990									;POWER SHOULD RESULT IN C(AC)=0.
 12991	036610	332 00 0 00 000000 		SKIPE			;PASS TEST IF C(AC)=0
 12992						STOP^
 12993	036611	254 04 0 00 036612 		HALT	.+1		;TEST FAILED IF PROGRAM HALTS HERE
 12994	036612	324 00 0 00 036613 		JUMPA	.+1		;IF TEST FAILS, CHANGE THIS INSTRUCTION (JUMPA .+1) TO
 12995									;JUMPA X (X IS THE ADDRESS OF THE FIRST INSTRUCTION
 12996									;IN THE SUBTEST) TO LOOP ON ERROR^
 12997
 12998					;**********
 12999
 13000					;THIS TEST VERIFIES THAT THE ADDITION OF TWO NUMBERS WHOSE SUM IS 2 RAISED TO THE
 13001					;36TH POWER WILL RESULT IN THE C(AC)=0 SINCE THIS NUMBER IS ONE LARGER
 13002					;THAN THE 36 BIT HARDWARE OF THE PROCESSOR IS DESIGNED TO HANDLE. THIS TEST
 13003					;ALSO VERIFIES CARRY GENERATION AND PROPAGATION THROUGHOUT THE
 13004					;ADDER. THIS TEST IS REPEATED 36 TIMES. TESTING BEGINS WITH LOADING THE
 13005					;AC WITH 400000000000 AND ADDING THE SAME NUMBER TO IT; THEN,
 13006					;CHECKING FOR C(AC)=0. IN THE SUBSEQUENT 35 TESTS, THE NUMBER
 13007					;LOADED INTO THE AC IS HALVED EACH TIME AND C(E) IS MADE EQUAL TO ITS
 13008					;FORMER VALUE PLUS THE CURRENT C(AC)
 13009			011320		SN=SN+1
 13010			000004			YY=YY/2
 13011			777774			ZZ=ZZ+YY
 13012						IFE	YY,<YY=400000>
 13013						IFE	ZZ,<ZZ=400000>
 13014	036613	200 00 0 00 070416 		MOVE	[XWD ZZ,0]	;PRESET AC TO A RIPPLED ONE STARTING WITH BIT POSITION 0
 13015	036614	270 00 0 00 070311 		ADD	[XWD YY,0]	;*ADD OF TWO NUMBERS TOTALING 2 RAISED TO THE 36TH
 13016									;POWER SHOULD RESULT IN C(AC)=0.
 13017	036615	332 00 0 00 000000 		SKIPE			;PASS TEST IF C(AC)=0
 13018						STOP^
 13019	036616	254 04 0 00 036617 		HALT	.+1		;TEST FAILED IF PROGRAM HALTS HERE
 13020	036617	324 00 0 00 036620 		JUMPA	.+1		;IF TEST FAILS, CHANGE THIS INSTRUCTION (JUMPA .+1) TO
 13021									;JUMPA X (X IS THE ADDRESS OF THE FIRST INSTRUCTION
 13022									;IN THE SUBTEST) TO LOOP ON ERROR^
DFKAA PDP-10 KL10 BASIC INSTRUCTION DIAGNOSTIC (1) VER 0,2	MACRO %53B(1254)-4 11:50 11-Nov-24 Page 7-8
DFKAA2	MAC	13-Jan-89 10:22		TEST OF THE ADD INSTRUCTION

 13023
 13024					;**********
 13025
 13026					;THIS TEST VERIFIES THAT THE ADDITION OF TWO NUMBERS WHOSE SUM IS 2 RAISED TO THE
 13027					;36TH POWER WILL RESULT IN THE C(AC)=0 SINCE THIS NUMBER IS ONE LARGER
 13028					;THAN THE 36 BIT HARDWARE OF THE PROCESSOR IS DESIGNED TO HANDLE. THIS TEST
 13029					;ALSO VERIFIES CARRY GENERATION AND PROPAGATION THROUGHOUT THE
 13030					;ADDER. THIS TEST IS REPEATED 36 TIMES. TESTING BEGINS WITH LOADING THE
 13031					;AC WITH 400000000000 AND ADDING THE SAME NUMBER TO IT; THEN,
 13032					;CHECKING FOR C(AC)=0. IN THE SUBSEQUENT 35 TESTS, THE NUMBER
 13033					;LOADED INTO THE AC IS HALVED EACH TIME AND C(E) IS MADE EQUAL TO ITS
 13034					;FORMER VALUE PLUS THE CURRENT C(AC)
 13035			011321		SN=SN+1
 13036			000002			YY=YY/2
 13037			777776			ZZ=ZZ+YY
 13038						IFE	YY,<YY=400000>
 13039						IFE	ZZ,<ZZ=400000>
 13040	036620	200 00 0 00 070417 		MOVE	[XWD ZZ,0]	;PRESET AC TO A RIPPLED ONE STARTING WITH BIT POSITION 0
 13041	036621	270 00 0 00 070310 		ADD	[XWD YY,0]	;*ADD OF TWO NUMBERS TOTALING 2 RAISED TO THE 36TH
 13042									;POWER SHOULD RESULT IN C(AC)=0.
 13043	036622	332 00 0 00 000000 		SKIPE			;PASS TEST IF C(AC)=0
 13044						STOP^
 13045	036623	254 04 0 00 036624 		HALT	.+1		;TEST FAILED IF PROGRAM HALTS HERE
 13046	036624	324 00 0 00 036625 		JUMPA	.+1		;IF TEST FAILS, CHANGE THIS INSTRUCTION (JUMPA .+1) TO
 13047									;JUMPA X (X IS THE ADDRESS OF THE FIRST INSTRUCTION
 13048									;IN THE SUBTEST) TO LOOP ON ERROR^
 13049
 13050					;**********
 13051
 13052					;THIS TEST VERIFIES THAT THE ADDITION OF TWO NUMBERS WHOSE SUM IS 2 RAISED TO THE
 13053					;36TH POWER WILL RESULT IN THE C(AC)=0 SINCE THIS NUMBER IS ONE LARGER
 13054					;THAN THE 36 BIT HARDWARE OF THE PROCESSOR IS DESIGNED TO HANDLE. THIS TEST
 13055					;ALSO VERIFIES CARRY GENERATION AND PROPAGATION THROUGHOUT THE
 13056					;ADDER. THIS TEST IS REPEATED 36 TIMES. TESTING BEGINS WITH LOADING THE
 13057					;AC WITH 400000000000 AND ADDING THE SAME NUMBER TO IT; THEN,
 13058					;CHECKING FOR C(AC)=0. IN THE SUBSEQUENT 35 TESTS, THE NUMBER
 13059					;LOADED INTO THE AC IS HALVED EACH TIME AND C(E) IS MADE EQUAL TO ITS
 13060					;FORMER VALUE PLUS THE CURRENT C(AC)
 13061			011322		SN=SN+1
 13062			000001			YY=YY/2
 13063			777777			ZZ=ZZ+YY
 13064						IFE	YY,<YY=400000>
 13065						IFE	ZZ,<ZZ=400000>
 13066	036625	200 00 0 00 070331 		MOVE	[XWD ZZ,0]	;PRESET AC TO A RIPPLED ONE STARTING WITH BIT POSITION 0
 13067	036626	270 00 0 00 070307 		ADD	[XWD YY,0]	;*ADD OF TWO NUMBERS TOTALING 2 RAISED TO THE 36TH
 13068									;POWER SHOULD RESULT IN C(AC)=0.
 13069	036627	332 00 0 00 000000 		SKIPE			;PASS TEST IF C(AC)=0
 13070						STOP^
 13071	036630	254 04 0 00 036631 		HALT	.+1		;TEST FAILED IF PROGRAM HALTS HERE
 13072	036631	324 00 0 00 036632 		JUMPA	.+1		;IF TEST FAILS, CHANGE THIS INSTRUCTION (JUMPA .+1) TO
 13073									;JUMPA X (X IS THE ADDRESS OF THE FIRST INSTRUCTION
 13074									;IN THE SUBTEST) TO LOOP ON ERROR^
 13075
 13076					;**********
 13077
DFKAA PDP-10 KL10 BASIC INSTRUCTION DIAGNOSTIC (1) VER 0,2	MACRO %53B(1254)-4 11:50 11-Nov-24 Page 7-9
DFKAA2	MAC	13-Jan-89 10:22		TEST OF THE ADD INSTRUCTION

 13078					PAGE
DFKAA PDP-10 KL10 BASIC INSTRUCTION DIAGNOSTIC (1) VER 0,2	MACRO %53B(1254)-4 11:50 11-Nov-24 Page 7-10
DFKAA2	MAC	13-Jan-89 10:22		TEST OF THE ADD INSTRUCTION

 13079			011400		SN=11400
 13080			000000			ZZ=0
 13081			000000			YY=0
 13082
 13083					A11400:	REPEAT	^D18,
 13084					<;THIS TEST VERIFIES THAT THE ADDITION OF TWO NUMBERS WHOSE SUM IS 2 RAISED TO THE
 13085					;36TH POSER WILL RESULT IN THE C(AC)=0 SINCE THIS NUMBER IS ONE LARGER
 13086					;THAN THE 36 BIT HARDWARE OF THE PROCESSOR IS DESIGNED TO HANDLE. THIS TEST
 13087					;ALSO VERIFIES CARRY GENERATION AND PROPAGATION THROUGHT THE
 13088					;ADDEC. THIS TEST IS REPEATED 36 TIMES. TESTING BEGINS WITH LOADING THE
 13089					;AC WITH 400000000000 AND ADDING THE SAME NUMBER TO IT; THEN,
 13090					;CHECKING FOR C(AC)=0. IN THE SUBSEQUENT 35 TESTS, THE NUMBER
 13091					;LOADED INTO THE AC IS HALVED EACH TIME AND C(E) IS MODE EQUAL TO ITS
 13092					;FORMER VALUE PLUS THE CURRENT C(AC)
 13093					SN=SN+1
 13094						YY=YY/2
 13095						ZZ=ZZ+YY
 13096						IFE	YY,<YY=400000>
 13097						IFE	ZZ,<ZZ=400000>	;PRESET AB TO A RIPPLED ONE STARTING WITH BIT POSITION 0
 13098						MOVE	[XWD -1,ZZ]	;*ADD OF TWO NUMBERS TOTALING 2 RAISED TO THE 36TH
 13099									;POWER SHOULD RESULT IN C(AC)=0.
 13100						ADD	[YY]		;PASS TEST IF C(AC)=0
 13101						SKIPE
 13102						STOP
 13103
 13104					;**********
 13105					>
 13106					;THIS TEST VERIFIES THAT THE ADDITION OF TWO NUMBERS WHOSE SUM IS 2 RAISED TO THE
 13107					;36TH POSER WILL RESULT IN THE C(AC)=0 SINCE THIS NUMBER IS ONE LARGER
 13108					;THAN THE 36 BIT HARDWARE OF THE PROCESSOR IS DESIGNED TO HANDLE. THIS TEST
 13109					;ALSO VERIFIES CARRY GENERATION AND PROPAGATION THROUGHT THE
 13110					;ADDEC. THIS TEST IS REPEATED 36 TIMES. TESTING BEGINS WITH LOADING THE
 13111					;AC WITH 400000000000 AND ADDING THE SAME NUMBER TO IT; THEN,
 13112					;CHECKING FOR C(AC)=0. IN THE SUBSEQUENT 35 TESTS, THE NUMBER
 13113					;LOADED INTO THE AC IS HALVED EACH TIME AND C(E) IS MODE EQUAL TO ITS
 13114					;FORMER VALUE PLUS THE CURRENT C(AC)
 13115			011401		SN=SN+1
 13116			000000			YY=YY/2
 13117			000000			ZZ=ZZ+YY
 13118			400000			IFE	YY,<YY=400000>
 13119			400000			IFE	ZZ,<ZZ=400000>	;PRESET AB TO A RIPPLED ONE STARTING WITH BIT POSITION 0
 13120	036632	200 00 0 00 070420 		MOVE	[XWD -1,ZZ]	;*ADD OF TWO NUMBERS TOTALING 2 RAISED TO THE 36TH
 13121									;POWER SHOULD RESULT IN C(AC)=0.
 13122	036633	270 00 0 00 070306 		ADD	[YY]		;PASS TEST IF C(AC)=0
 13123	036634	332 00 0 00 000000 		SKIPE
 13124						STOP^
 13125	036635	254 04 0 00 036636 		HALT	.+1		;TEST FAILED IF PROGRAM HALTS HERE
 13126	036636	324 00 0 00 036637 		JUMPA	.+1		;IF TEST FAILS, CHANGE THIS INSTRUCTION (JUMPA .+1) TO
 13127									;JUMPA X (X IS THE ADDRESS OF THE FIRST INSTRUCTION
 13128									;IN THE SUBTEST) TO LOOP ON ERROR^
 13129
 13130					;**********
 13131
 13132					;THIS TEST VERIFIES THAT THE ADDITION OF TWO NUMBERS WHOSE SUM IS 2 RAISED TO THE
 13133					;36TH POSER WILL RESULT IN THE C(AC)=0 SINCE THIS NUMBER IS ONE LARGER
DFKAA PDP-10 KL10 BASIC INSTRUCTION DIAGNOSTIC (1) VER 0,2	MACRO %53B(1254)-4 11:50 11-Nov-24 Page 7-11
DFKAA2	MAC	13-Jan-89 10:22		TEST OF THE ADD INSTRUCTION

 13134					;THAN THE 36 BIT HARDWARE OF THE PROCESSOR IS DESIGNED TO HANDLE. THIS TEST
 13135					;ALSO VERIFIES CARRY GENERATION AND PROPAGATION THROUGHT THE
 13136					;ADDEC. THIS TEST IS REPEATED 36 TIMES. TESTING BEGINS WITH LOADING THE
 13137					;AC WITH 400000000000 AND ADDING THE SAME NUMBER TO IT; THEN,
 13138					;CHECKING FOR C(AC)=0. IN THE SUBSEQUENT 35 TESTS, THE NUMBER
 13139					;LOADED INTO THE AC IS HALVED EACH TIME AND C(E) IS MODE EQUAL TO ITS
 13140					;FORMER VALUE PLUS THE CURRENT C(AC)
 13141			011402		SN=SN+1
 13142			200000			YY=YY/2
 13143			600000			ZZ=ZZ+YY
 13144						IFE	YY,<YY=400000>
 13145						IFE	ZZ,<ZZ=400000>	;PRESET AB TO A RIPPLED ONE STARTING WITH BIT POSITION 0
 13146	036637	200 00 0 00 070421 		MOVE	[XWD -1,ZZ]	;*ADD OF TWO NUMBERS TOTALING 2 RAISED TO THE 36TH
 13147									;POWER SHOULD RESULT IN C(AC)=0.
 13148	036640	270 00 0 00 070305 		ADD	[YY]		;PASS TEST IF C(AC)=0
 13149	036641	332 00 0 00 000000 		SKIPE
 13150						STOP^
 13151	036642	254 04 0 00 036643 		HALT	.+1		;TEST FAILED IF PROGRAM HALTS HERE
 13152	036643	324 00 0 00 036644 		JUMPA	.+1		;IF TEST FAILS, CHANGE THIS INSTRUCTION (JUMPA .+1) TO
 13153									;JUMPA X (X IS THE ADDRESS OF THE FIRST INSTRUCTION
 13154									;IN THE SUBTEST) TO LOOP ON ERROR^
 13155
 13156					;**********
 13157
 13158					;THIS TEST VERIFIES THAT THE ADDITION OF TWO NUMBERS WHOSE SUM IS 2 RAISED TO THE
 13159					;36TH POSER WILL RESULT IN THE C(AC)=0 SINCE THIS NUMBER IS ONE LARGER
 13160					;THAN THE 36 BIT HARDWARE OF THE PROCESSOR IS DESIGNED TO HANDLE. THIS TEST
 13161					;ALSO VERIFIES CARRY GENERATION AND PROPAGATION THROUGHT THE
 13162					;ADDEC. THIS TEST IS REPEATED 36 TIMES. TESTING BEGINS WITH LOADING THE
 13163					;AC WITH 400000000000 AND ADDING THE SAME NUMBER TO IT; THEN,
 13164					;CHECKING FOR C(AC)=0. IN THE SUBSEQUENT 35 TESTS, THE NUMBER
 13165					;LOADED INTO THE AC IS HALVED EACH TIME AND C(E) IS MODE EQUAL TO ITS
 13166					;FORMER VALUE PLUS THE CURRENT C(AC)
 13167			011403		SN=SN+1
 13168			100000			YY=YY/2
 13169			700000			ZZ=ZZ+YY
 13170						IFE	YY,<YY=400000>
 13171						IFE	ZZ,<ZZ=400000>	;PRESET AB TO A RIPPLED ONE STARTING WITH BIT POSITION 0
 13172	036644	200 00 0 00 070422 		MOVE	[XWD -1,ZZ]	;*ADD OF TWO NUMBERS TOTALING 2 RAISED TO THE 36TH
 13173									;POWER SHOULD RESULT IN C(AC)=0.
 13174	036645	270 00 0 00 070304 		ADD	[YY]		;PASS TEST IF C(AC)=0
 13175	036646	332 00 0 00 000000 		SKIPE
 13176						STOP^
 13177	036647	254 04 0 00 036650 		HALT	.+1		;TEST FAILED IF PROGRAM HALTS HERE
 13178	036650	324 00 0 00 036651 		JUMPA	.+1		;IF TEST FAILS, CHANGE THIS INSTRUCTION (JUMPA .+1) TO
 13179									;JUMPA X (X IS THE ADDRESS OF THE FIRST INSTRUCTION
 13180									;IN THE SUBTEST) TO LOOP ON ERROR^
 13181
 13182					;**********
 13183
 13184					;THIS TEST VERIFIES THAT THE ADDITION OF TWO NUMBERS WHOSE SUM IS 2 RAISED TO THE
 13185					;36TH POSER WILL RESULT IN THE C(AC)=0 SINCE THIS NUMBER IS ONE LARGER
 13186					;THAN THE 36 BIT HARDWARE OF THE PROCESSOR IS DESIGNED TO HANDLE. THIS TEST
 13187					;ALSO VERIFIES CARRY GENERATION AND PROPAGATION THROUGHT THE
 13188					;ADDEC. THIS TEST IS REPEATED 36 TIMES. TESTING BEGINS WITH LOADING THE
DFKAA PDP-10 KL10 BASIC INSTRUCTION DIAGNOSTIC (1) VER 0,2	MACRO %53B(1254)-4 11:50 11-Nov-24 Page 7-12
DFKAA2	MAC	13-Jan-89 10:22		TEST OF THE ADD INSTRUCTION

 13189					;AC WITH 400000000000 AND ADDING THE SAME NUMBER TO IT; THEN,
 13190					;CHECKING FOR C(AC)=0. IN THE SUBSEQUENT 35 TESTS, THE NUMBER
 13191					;LOADED INTO THE AC IS HALVED EACH TIME AND C(E) IS MODE EQUAL TO ITS
 13192					;FORMER VALUE PLUS THE CURRENT C(AC)
 13193			011404		SN=SN+1
 13194			040000			YY=YY/2
 13195			740000			ZZ=ZZ+YY
 13196						IFE	YY,<YY=400000>
 13197						IFE	ZZ,<ZZ=400000>	;PRESET AB TO A RIPPLED ONE STARTING WITH BIT POSITION 0
 13198	036651	200 00 0 00 070423 		MOVE	[XWD -1,ZZ]	;*ADD OF TWO NUMBERS TOTALING 2 RAISED TO THE 36TH
 13199									;POWER SHOULD RESULT IN C(AC)=0.
 13200	036652	270 00 0 00 070303 		ADD	[YY]		;PASS TEST IF C(AC)=0
 13201	036653	332 00 0 00 000000 		SKIPE
 13202						STOP^
 13203	036654	254 04 0 00 036655 		HALT	.+1		;TEST FAILED IF PROGRAM HALTS HERE
 13204	036655	324 00 0 00 036656 		JUMPA	.+1		;IF TEST FAILS, CHANGE THIS INSTRUCTION (JUMPA .+1) TO
 13205									;JUMPA X (X IS THE ADDRESS OF THE FIRST INSTRUCTION
 13206									;IN THE SUBTEST) TO LOOP ON ERROR^
 13207
 13208					;**********
 13209
 13210					;THIS TEST VERIFIES THAT THE ADDITION OF TWO NUMBERS WHOSE SUM IS 2 RAISED TO THE
 13211					;36TH POSER WILL RESULT IN THE C(AC)=0 SINCE THIS NUMBER IS ONE LARGER
 13212					;THAN THE 36 BIT HARDWARE OF THE PROCESSOR IS DESIGNED TO HANDLE. THIS TEST
 13213					;ALSO VERIFIES CARRY GENERATION AND PROPAGATION THROUGHT THE
 13214					;ADDEC. THIS TEST IS REPEATED 36 TIMES. TESTING BEGINS WITH LOADING THE
 13215					;AC WITH 400000000000 AND ADDING THE SAME NUMBER TO IT; THEN,
 13216					;CHECKING FOR C(AC)=0. IN THE SUBSEQUENT 35 TESTS, THE NUMBER
 13217					;LOADED INTO THE AC IS HALVED EACH TIME AND C(E) IS MODE EQUAL TO ITS
 13218					;FORMER VALUE PLUS THE CURRENT C(AC)
 13219			011405		SN=SN+1
 13220			020000			YY=YY/2
 13221			760000			ZZ=ZZ+YY
 13222						IFE	YY,<YY=400000>
 13223						IFE	ZZ,<ZZ=400000>	;PRESET AB TO A RIPPLED ONE STARTING WITH BIT POSITION 0
 13224	036656	200 00 0 00 070424 		MOVE	[XWD -1,ZZ]	;*ADD OF TWO NUMBERS TOTALING 2 RAISED TO THE 36TH
 13225									;POWER SHOULD RESULT IN C(AC)=0.
 13226	036657	270 00 0 00 070302 		ADD	[YY]		;PASS TEST IF C(AC)=0
 13227	036660	332 00 0 00 000000 		SKIPE
 13228						STOP^
 13229	036661	254 04 0 00 036662 		HALT	.+1		;TEST FAILED IF PROGRAM HALTS HERE
 13230	036662	324 00 0 00 036663 		JUMPA	.+1		;IF TEST FAILS, CHANGE THIS INSTRUCTION (JUMPA .+1) TO
 13231									;JUMPA X (X IS THE ADDRESS OF THE FIRST INSTRUCTION
 13232									;IN THE SUBTEST) TO LOOP ON ERROR^
 13233
 13234					;**********
 13235
 13236					;THIS TEST VERIFIES THAT THE ADDITION OF TWO NUMBERS WHOSE SUM IS 2 RAISED TO THE
 13237					;36TH POSER WILL RESULT IN THE C(AC)=0 SINCE THIS NUMBER IS ONE LARGER
 13238					;THAN THE 36 BIT HARDWARE OF THE PROCESSOR IS DESIGNED TO HANDLE. THIS TEST
 13239					;ALSO VERIFIES CARRY GENERATION AND PROPAGATION THROUGHT THE
 13240					;ADDEC. THIS TEST IS REPEATED 36 TIMES. TESTING BEGINS WITH LOADING THE
 13241					;AC WITH 400000000000 AND ADDING THE SAME NUMBER TO IT; THEN,
 13242					;CHECKING FOR C(AC)=0. IN THE SUBSEQUENT 35 TESTS, THE NUMBER
 13243					;LOADED INTO THE AC IS HALVED EACH TIME AND C(E) IS MODE EQUAL TO ITS
DFKAA PDP-10 KL10 BASIC INSTRUCTION DIAGNOSTIC (1) VER 0,2	MACRO %53B(1254)-4 11:50 11-Nov-24 Page 7-13
DFKAA2	MAC	13-Jan-89 10:22		TEST OF THE ADD INSTRUCTION

 13244					;FORMER VALUE PLUS THE CURRENT C(AC)
 13245			011406		SN=SN+1
 13246			010000			YY=YY/2
 13247			770000			ZZ=ZZ+YY
 13248						IFE	YY,<YY=400000>
 13249						IFE	ZZ,<ZZ=400000>	;PRESET AB TO A RIPPLED ONE STARTING WITH BIT POSITION 0
 13250	036663	200 00 0 00 070425 		MOVE	[XWD -1,ZZ]	;*ADD OF TWO NUMBERS TOTALING 2 RAISED TO THE 36TH
 13251									;POWER SHOULD RESULT IN C(AC)=0.
 13252	036664	270 00 0 00 070301 		ADD	[YY]		;PASS TEST IF C(AC)=0
 13253	036665	332 00 0 00 000000 		SKIPE
 13254						STOP^
 13255	036666	254 04 0 00 036667 		HALT	.+1		;TEST FAILED IF PROGRAM HALTS HERE
 13256	036667	324 00 0 00 036670 		JUMPA	.+1		;IF TEST FAILS, CHANGE THIS INSTRUCTION (JUMPA .+1) TO
 13257									;JUMPA X (X IS THE ADDRESS OF THE FIRST INSTRUCTION
 13258									;IN THE SUBTEST) TO LOOP ON ERROR^
 13259
 13260					;**********
 13261
 13262					;THIS TEST VERIFIES THAT THE ADDITION OF TWO NUMBERS WHOSE SUM IS 2 RAISED TO THE
 13263					;36TH POSER WILL RESULT IN THE C(AC)=0 SINCE THIS NUMBER IS ONE LARGER
 13264					;THAN THE 36 BIT HARDWARE OF THE PROCESSOR IS DESIGNED TO HANDLE. THIS TEST
 13265					;ALSO VERIFIES CARRY GENERATION AND PROPAGATION THROUGHT THE
 13266					;ADDEC. THIS TEST IS REPEATED 36 TIMES. TESTING BEGINS WITH LOADING THE
 13267					;AC WITH 400000000000 AND ADDING THE SAME NUMBER TO IT; THEN,
 13268					;CHECKING FOR C(AC)=0. IN THE SUBSEQUENT 35 TESTS, THE NUMBER
 13269					;LOADED INTO THE AC IS HALVED EACH TIME AND C(E) IS MODE EQUAL TO ITS
 13270					;FORMER VALUE PLUS THE CURRENT C(AC)
 13271			011407		SN=SN+1
 13272			004000			YY=YY/2
 13273			774000			ZZ=ZZ+YY
 13274						IFE	YY,<YY=400000>
 13275						IFE	ZZ,<ZZ=400000>	;PRESET AB TO A RIPPLED ONE STARTING WITH BIT POSITION 0
 13276	036670	200 00 0 00 070426 		MOVE	[XWD -1,ZZ]	;*ADD OF TWO NUMBERS TOTALING 2 RAISED TO THE 36TH
 13277									;POWER SHOULD RESULT IN C(AC)=0.
 13278	036671	270 00 0 00 070300 		ADD	[YY]		;PASS TEST IF C(AC)=0
 13279	036672	332 00 0 00 000000 		SKIPE
 13280						STOP^
 13281	036673	254 04 0 00 036674 		HALT	.+1		;TEST FAILED IF PROGRAM HALTS HERE
 13282	036674	324 00 0 00 036675 		JUMPA	.+1		;IF TEST FAILS, CHANGE THIS INSTRUCTION (JUMPA .+1) TO
 13283									;JUMPA X (X IS THE ADDRESS OF THE FIRST INSTRUCTION
 13284									;IN THE SUBTEST) TO LOOP ON ERROR^
 13285
 13286					;**********
 13287
 13288					;THIS TEST VERIFIES THAT THE ADDITION OF TWO NUMBERS WHOSE SUM IS 2 RAISED TO THE
 13289					;36TH POSER WILL RESULT IN THE C(AC)=0 SINCE THIS NUMBER IS ONE LARGER
 13290					;THAN THE 36 BIT HARDWARE OF THE PROCESSOR IS DESIGNED TO HANDLE. THIS TEST
 13291					;ALSO VERIFIES CARRY GENERATION AND PROPAGATION THROUGHT THE
 13292					;ADDEC. THIS TEST IS REPEATED 36 TIMES. TESTING BEGINS WITH LOADING THE
 13293					;AC WITH 400000000000 AND ADDING THE SAME NUMBER TO IT; THEN,
 13294					;CHECKING FOR C(AC)=0. IN THE SUBSEQUENT 35 TESTS, THE NUMBER
 13295					;LOADED INTO THE AC IS HALVED EACH TIME AND C(E) IS MODE EQUAL TO ITS
 13296					;FORMER VALUE PLUS THE CURRENT C(AC)
 13297			011410		SN=SN+1
 13298			002000			YY=YY/2
DFKAA PDP-10 KL10 BASIC INSTRUCTION DIAGNOSTIC (1) VER 0,2	MACRO %53B(1254)-4 11:50 11-Nov-24 Page 7-14
DFKAA2	MAC	13-Jan-89 10:22		TEST OF THE ADD INSTRUCTION

 13299			776000			ZZ=ZZ+YY
 13300						IFE	YY,<YY=400000>
 13301						IFE	ZZ,<ZZ=400000>	;PRESET AB TO A RIPPLED ONE STARTING WITH BIT POSITION 0
 13302	036675	200 00 0 00 070427 		MOVE	[XWD -1,ZZ]	;*ADD OF TWO NUMBERS TOTALING 2 RAISED TO THE 36TH
 13303									;POWER SHOULD RESULT IN C(AC)=0.
 13304	036676	270 00 0 00 070277 		ADD	[YY]		;PASS TEST IF C(AC)=0
 13305	036677	332 00 0 00 000000 		SKIPE
 13306						STOP^
 13307	036700	254 04 0 00 036701 		HALT	.+1		;TEST FAILED IF PROGRAM HALTS HERE
 13308	036701	324 00 0 00 036702 		JUMPA	.+1		;IF TEST FAILS, CHANGE THIS INSTRUCTION (JUMPA .+1) TO
 13309									;JUMPA X (X IS THE ADDRESS OF THE FIRST INSTRUCTION
 13310									;IN THE SUBTEST) TO LOOP ON ERROR^
 13311
 13312					;**********
 13313
 13314					;THIS TEST VERIFIES THAT THE ADDITION OF TWO NUMBERS WHOSE SUM IS 2 RAISED TO THE
 13315					;36TH POSER WILL RESULT IN THE C(AC)=0 SINCE THIS NUMBER IS ONE LARGER
 13316					;THAN THE 36 BIT HARDWARE OF THE PROCESSOR IS DESIGNED TO HANDLE. THIS TEST
 13317					;ALSO VERIFIES CARRY GENERATION AND PROPAGATION THROUGHT THE
 13318					;ADDEC. THIS TEST IS REPEATED 36 TIMES. TESTING BEGINS WITH LOADING THE
 13319					;AC WITH 400000000000 AND ADDING THE SAME NUMBER TO IT; THEN,
 13320					;CHECKING FOR C(AC)=0. IN THE SUBSEQUENT 35 TESTS, THE NUMBER
 13321					;LOADED INTO THE AC IS HALVED EACH TIME AND C(E) IS MODE EQUAL TO ITS
 13322					;FORMER VALUE PLUS THE CURRENT C(AC)
 13323			011411		SN=SN+1
 13324			001000			YY=YY/2
 13325			777000			ZZ=ZZ+YY
 13326						IFE	YY,<YY=400000>
 13327						IFE	ZZ,<ZZ=400000>	;PRESET AB TO A RIPPLED ONE STARTING WITH BIT POSITION 0
 13328	036702	200 00 0 00 070430 		MOVE	[XWD -1,ZZ]	;*ADD OF TWO NUMBERS TOTALING 2 RAISED TO THE 36TH
 13329									;POWER SHOULD RESULT IN C(AC)=0.
 13330	036703	270 00 0 00 070276 		ADD	[YY]		;PASS TEST IF C(AC)=0
 13331	036704	332 00 0 00 000000 		SKIPE
 13332						STOP^
 13333	036705	254 04 0 00 036706 		HALT	.+1		;TEST FAILED IF PROGRAM HALTS HERE
 13334	036706	324 00 0 00 036707 		JUMPA	.+1		;IF TEST FAILS, CHANGE THIS INSTRUCTION (JUMPA .+1) TO
 13335									;JUMPA X (X IS THE ADDRESS OF THE FIRST INSTRUCTION
 13336									;IN THE SUBTEST) TO LOOP ON ERROR^
 13337
 13338					;**********
 13339
 13340					;THIS TEST VERIFIES THAT THE ADDITION OF TWO NUMBERS WHOSE SUM IS 2 RAISED TO THE
 13341					;36TH POSER WILL RESULT IN THE C(AC)=0 SINCE THIS NUMBER IS ONE LARGER
 13342					;THAN THE 36 BIT HARDWARE OF THE PROCESSOR IS DESIGNED TO HANDLE. THIS TEST
 13343					;ALSO VERIFIES CARRY GENERATION AND PROPAGATION THROUGHT THE
 13344					;ADDEC. THIS TEST IS REPEATED 36 TIMES. TESTING BEGINS WITH LOADING THE
 13345					;AC WITH 400000000000 AND ADDING THE SAME NUMBER TO IT; THEN,
 13346					;CHECKING FOR C(AC)=0. IN THE SUBSEQUENT 35 TESTS, THE NUMBER
 13347					;LOADED INTO THE AC IS HALVED EACH TIME AND C(E) IS MODE EQUAL TO ITS
 13348					;FORMER VALUE PLUS THE CURRENT C(AC)
 13349			011412		SN=SN+1
 13350			000400			YY=YY/2
 13351			777400			ZZ=ZZ+YY
 13352						IFE	YY,<YY=400000>
 13353						IFE	ZZ,<ZZ=400000>	;PRESET AB TO A RIPPLED ONE STARTING WITH BIT POSITION 0
DFKAA PDP-10 KL10 BASIC INSTRUCTION DIAGNOSTIC (1) VER 0,2	MACRO %53B(1254)-4 11:50 11-Nov-24 Page 7-15
DFKAA2	MAC	13-Jan-89 10:22		TEST OF THE ADD INSTRUCTION

 13354	036707	200 00 0 00 070431 		MOVE	[XWD -1,ZZ]	;*ADD OF TWO NUMBERS TOTALING 2 RAISED TO THE 36TH
 13355									;POWER SHOULD RESULT IN C(AC)=0.
 13356	036710	270 00 0 00 070275 		ADD	[YY]		;PASS TEST IF C(AC)=0
 13357	036711	332 00 0 00 000000 		SKIPE
 13358						STOP^
 13359	036712	254 04 0 00 036713 		HALT	.+1		;TEST FAILED IF PROGRAM HALTS HERE
 13360	036713	324 00 0 00 036714 		JUMPA	.+1		;IF TEST FAILS, CHANGE THIS INSTRUCTION (JUMPA .+1) TO
 13361									;JUMPA X (X IS THE ADDRESS OF THE FIRST INSTRUCTION
 13362									;IN THE SUBTEST) TO LOOP ON ERROR^
 13363
 13364					;**********
 13365
 13366					;THIS TEST VERIFIES THAT THE ADDITION OF TWO NUMBERS WHOSE SUM IS 2 RAISED TO THE
 13367					;36TH POSER WILL RESULT IN THE C(AC)=0 SINCE THIS NUMBER IS ONE LARGER
 13368					;THAN THE 36 BIT HARDWARE OF THE PROCESSOR IS DESIGNED TO HANDLE. THIS TEST
 13369					;ALSO VERIFIES CARRY GENERATION AND PROPAGATION THROUGHT THE
 13370					;ADDEC. THIS TEST IS REPEATED 36 TIMES. TESTING BEGINS WITH LOADING THE
 13371					;AC WITH 400000000000 AND ADDING THE SAME NUMBER TO IT; THEN,
 13372					;CHECKING FOR C(AC)=0. IN THE SUBSEQUENT 35 TESTS, THE NUMBER
 13373					;LOADED INTO THE AC IS HALVED EACH TIME AND C(E) IS MODE EQUAL TO ITS
 13374					;FORMER VALUE PLUS THE CURRENT C(AC)
 13375			011413		SN=SN+1
 13376			000200			YY=YY/2
 13377			777600			ZZ=ZZ+YY
 13378						IFE	YY,<YY=400000>
 13379						IFE	ZZ,<ZZ=400000>	;PRESET AB TO A RIPPLED ONE STARTING WITH BIT POSITION 0
 13380	036714	200 00 0 00 070432 		MOVE	[XWD -1,ZZ]	;*ADD OF TWO NUMBERS TOTALING 2 RAISED TO THE 36TH
 13381									;POWER SHOULD RESULT IN C(AC)=0.
 13382	036715	270 00 0 00 070274 		ADD	[YY]		;PASS TEST IF C(AC)=0
 13383	036716	332 00 0 00 000000 		SKIPE
 13384						STOP^
 13385	036717	254 04 0 00 036720 		HALT	.+1		;TEST FAILED IF PROGRAM HALTS HERE
 13386	036720	324 00 0 00 036721 		JUMPA	.+1		;IF TEST FAILS, CHANGE THIS INSTRUCTION (JUMPA .+1) TO
 13387									;JUMPA X (X IS THE ADDRESS OF THE FIRST INSTRUCTION
 13388									;IN THE SUBTEST) TO LOOP ON ERROR^
 13389
 13390					;**********
 13391
 13392					;THIS TEST VERIFIES THAT THE ADDITION OF TWO NUMBERS WHOSE SUM IS 2 RAISED TO THE
 13393					;36TH POSER WILL RESULT IN THE C(AC)=0 SINCE THIS NUMBER IS ONE LARGER
 13394					;THAN THE 36 BIT HARDWARE OF THE PROCESSOR IS DESIGNED TO HANDLE. THIS TEST
 13395					;ALSO VERIFIES CARRY GENERATION AND PROPAGATION THROUGHT THE
 13396					;ADDEC. THIS TEST IS REPEATED 36 TIMES. TESTING BEGINS WITH LOADING THE
 13397					;AC WITH 400000000000 AND ADDING THE SAME NUMBER TO IT; THEN,
 13398					;CHECKING FOR C(AC)=0. IN THE SUBSEQUENT 35 TESTS, THE NUMBER
 13399					;LOADED INTO THE AC IS HALVED EACH TIME AND C(E) IS MODE EQUAL TO ITS
 13400					;FORMER VALUE PLUS THE CURRENT C(AC)
 13401			011414		SN=SN+1
 13402			000100			YY=YY/2
 13403			777700			ZZ=ZZ+YY
 13404						IFE	YY,<YY=400000>
 13405						IFE	ZZ,<ZZ=400000>	;PRESET AB TO A RIPPLED ONE STARTING WITH BIT POSITION 0
 13406	036721	200 00 0 00 070433 		MOVE	[XWD -1,ZZ]	;*ADD OF TWO NUMBERS TOTALING 2 RAISED TO THE 36TH
 13407									;POWER SHOULD RESULT IN C(AC)=0.
 13408	036722	270 00 0 00 070273 		ADD	[YY]		;PASS TEST IF C(AC)=0
DFKAA PDP-10 KL10 BASIC INSTRUCTION DIAGNOSTIC (1) VER 0,2	MACRO %53B(1254)-4 11:50 11-Nov-24 Page 7-16
DFKAA2	MAC	13-Jan-89 10:22		TEST OF THE ADD INSTRUCTION

 13409	036723	332 00 0 00 000000 		SKIPE
 13410						STOP^
 13411	036724	254 04 0 00 036725 		HALT	.+1		;TEST FAILED IF PROGRAM HALTS HERE
 13412	036725	324 00 0 00 036726 		JUMPA	.+1		;IF TEST FAILS, CHANGE THIS INSTRUCTION (JUMPA .+1) TO
 13413									;JUMPA X (X IS THE ADDRESS OF THE FIRST INSTRUCTION
 13414									;IN THE SUBTEST) TO LOOP ON ERROR^
 13415
 13416					;**********
 13417
 13418					;THIS TEST VERIFIES THAT THE ADDITION OF TWO NUMBERS WHOSE SUM IS 2 RAISED TO THE
 13419					;36TH POSER WILL RESULT IN THE C(AC)=0 SINCE THIS NUMBER IS ONE LARGER
 13420					;THAN THE 36 BIT HARDWARE OF THE PROCESSOR IS DESIGNED TO HANDLE. THIS TEST
 13421					;ALSO VERIFIES CARRY GENERATION AND PROPAGATION THROUGHT THE
 13422					;ADDEC. THIS TEST IS REPEATED 36 TIMES. TESTING BEGINS WITH LOADING THE
 13423					;AC WITH 400000000000 AND ADDING THE SAME NUMBER TO IT; THEN,
 13424					;CHECKING FOR C(AC)=0. IN THE SUBSEQUENT 35 TESTS, THE NUMBER
 13425					;LOADED INTO THE AC IS HALVED EACH TIME AND C(E) IS MODE EQUAL TO ITS
 13426					;FORMER VALUE PLUS THE CURRENT C(AC)
 13427			011415		SN=SN+1
 13428			000040			YY=YY/2
 13429			777740			ZZ=ZZ+YY
 13430						IFE	YY,<YY=400000>
 13431						IFE	ZZ,<ZZ=400000>	;PRESET AB TO A RIPPLED ONE STARTING WITH BIT POSITION 0
 13432	036726	200 00 0 00 070434 		MOVE	[XWD -1,ZZ]	;*ADD OF TWO NUMBERS TOTALING 2 RAISED TO THE 36TH
 13433									;POWER SHOULD RESULT IN C(AC)=0.
 13434	036727	270 00 0 00 070272 		ADD	[YY]		;PASS TEST IF C(AC)=0
 13435	036730	332 00 0 00 000000 		SKIPE
 13436						STOP^
 13437	036731	254 04 0 00 036732 		HALT	.+1		;TEST FAILED IF PROGRAM HALTS HERE
 13438	036732	324 00 0 00 036733 		JUMPA	.+1		;IF TEST FAILS, CHANGE THIS INSTRUCTION (JUMPA .+1) TO
 13439									;JUMPA X (X IS THE ADDRESS OF THE FIRST INSTRUCTION
 13440									;IN THE SUBTEST) TO LOOP ON ERROR^
 13441
 13442					;**********
 13443
 13444					;THIS TEST VERIFIES THAT THE ADDITION OF TWO NUMBERS WHOSE SUM IS 2 RAISED TO THE
 13445					;36TH POSER WILL RESULT IN THE C(AC)=0 SINCE THIS NUMBER IS ONE LARGER
 13446					;THAN THE 36 BIT HARDWARE OF THE PROCESSOR IS DESIGNED TO HANDLE. THIS TEST
 13447					;ALSO VERIFIES CARRY GENERATION AND PROPAGATION THROUGHT THE
 13448					;ADDEC. THIS TEST IS REPEATED 36 TIMES. TESTING BEGINS WITH LOADING THE
 13449					;AC WITH 400000000000 AND ADDING THE SAME NUMBER TO IT; THEN,
 13450					;CHECKING FOR C(AC)=0. IN THE SUBSEQUENT 35 TESTS, THE NUMBER
 13451					;LOADED INTO THE AC IS HALVED EACH TIME AND C(E) IS MODE EQUAL TO ITS
 13452					;FORMER VALUE PLUS THE CURRENT C(AC)
 13453			011416		SN=SN+1
 13454			000020			YY=YY/2
 13455			777760			ZZ=ZZ+YY
 13456						IFE	YY,<YY=400000>
 13457						IFE	ZZ,<ZZ=400000>	;PRESET AB TO A RIPPLED ONE STARTING WITH BIT POSITION 0
 13458	036733	200 00 0 00 070435 		MOVE	[XWD -1,ZZ]	;*ADD OF TWO NUMBERS TOTALING 2 RAISED TO THE 36TH
 13459									;POWER SHOULD RESULT IN C(AC)=0.
 13460	036734	270 00 0 00 070271 		ADD	[YY]		;PASS TEST IF C(AC)=0
 13461	036735	332 00 0 00 000000 		SKIPE
 13462						STOP^
 13463	036736	254 04 0 00 036737 		HALT	.+1		;TEST FAILED IF PROGRAM HALTS HERE
DFKAA PDP-10 KL10 BASIC INSTRUCTION DIAGNOSTIC (1) VER 0,2	MACRO %53B(1254)-4 11:50 11-Nov-24 Page 7-17
DFKAA2	MAC	13-Jan-89 10:22		TEST OF THE ADD INSTRUCTION

 13464	036737	324 00 0 00 036740 		JUMPA	.+1		;IF TEST FAILS, CHANGE THIS INSTRUCTION (JUMPA .+1) TO
 13465									;JUMPA X (X IS THE ADDRESS OF THE FIRST INSTRUCTION
 13466									;IN THE SUBTEST) TO LOOP ON ERROR^
 13467
 13468					;**********
 13469
 13470					;THIS TEST VERIFIES THAT THE ADDITION OF TWO NUMBERS WHOSE SUM IS 2 RAISED TO THE
 13471					;36TH POSER WILL RESULT IN THE C(AC)=0 SINCE THIS NUMBER IS ONE LARGER
 13472					;THAN THE 36 BIT HARDWARE OF THE PROCESSOR IS DESIGNED TO HANDLE. THIS TEST
 13473					;ALSO VERIFIES CARRY GENERATION AND PROPAGATION THROUGHT THE
 13474					;ADDEC. THIS TEST IS REPEATED 36 TIMES. TESTING BEGINS WITH LOADING THE
 13475					;AC WITH 400000000000 AND ADDING THE SAME NUMBER TO IT; THEN,
 13476					;CHECKING FOR C(AC)=0. IN THE SUBSEQUENT 35 TESTS, THE NUMBER
 13477					;LOADED INTO THE AC IS HALVED EACH TIME AND C(E) IS MODE EQUAL TO ITS
 13478					;FORMER VALUE PLUS THE CURRENT C(AC)
 13479			011417		SN=SN+1
 13480			000010			YY=YY/2
 13481			777770			ZZ=ZZ+YY
 13482						IFE	YY,<YY=400000>
 13483						IFE	ZZ,<ZZ=400000>	;PRESET AB TO A RIPPLED ONE STARTING WITH BIT POSITION 0
 13484	036740	200 00 0 00 070436 		MOVE	[XWD -1,ZZ]	;*ADD OF TWO NUMBERS TOTALING 2 RAISED TO THE 36TH
 13485									;POWER SHOULD RESULT IN C(AC)=0.
 13486	036741	270 00 0 00 070270 		ADD	[YY]		;PASS TEST IF C(AC)=0
 13487	036742	332 00 0 00 000000 		SKIPE
 13488						STOP^
 13489	036743	254 04 0 00 036744 		HALT	.+1		;TEST FAILED IF PROGRAM HALTS HERE
 13490	036744	324 00 0 00 036745 		JUMPA	.+1		;IF TEST FAILS, CHANGE THIS INSTRUCTION (JUMPA .+1) TO
 13491									;JUMPA X (X IS THE ADDRESS OF THE FIRST INSTRUCTION
 13492									;IN THE SUBTEST) TO LOOP ON ERROR^
 13493
 13494					;**********
 13495
 13496					;THIS TEST VERIFIES THAT THE ADDITION OF TWO NUMBERS WHOSE SUM IS 2 RAISED TO THE
 13497					;36TH POSER WILL RESULT IN THE C(AC)=0 SINCE THIS NUMBER IS ONE LARGER
 13498					;THAN THE 36 BIT HARDWARE OF THE PROCESSOR IS DESIGNED TO HANDLE. THIS TEST
 13499					;ALSO VERIFIES CARRY GENERATION AND PROPAGATION THROUGHT THE
 13500					;ADDEC. THIS TEST IS REPEATED 36 TIMES. TESTING BEGINS WITH LOADING THE
 13501					;AC WITH 400000000000 AND ADDING THE SAME NUMBER TO IT; THEN,
 13502					;CHECKING FOR C(AC)=0. IN THE SUBSEQUENT 35 TESTS, THE NUMBER
 13503					;LOADED INTO THE AC IS HALVED EACH TIME AND C(E) IS MODE EQUAL TO ITS
 13504					;FORMER VALUE PLUS THE CURRENT C(AC)
 13505			011420		SN=SN+1
 13506			000004			YY=YY/2
 13507			777774			ZZ=ZZ+YY
 13508						IFE	YY,<YY=400000>
 13509						IFE	ZZ,<ZZ=400000>	;PRESET AB TO A RIPPLED ONE STARTING WITH BIT POSITION 0
 13510	036745	200 00 0 00 070437 		MOVE	[XWD -1,ZZ]	;*ADD OF TWO NUMBERS TOTALING 2 RAISED TO THE 36TH
 13511									;POWER SHOULD RESULT IN C(AC)=0.
 13512	036746	270 00 0 00 070267 		ADD	[YY]		;PASS TEST IF C(AC)=0
 13513	036747	332 00 0 00 000000 		SKIPE
 13514						STOP^
 13515	036750	254 04 0 00 036751 		HALT	.+1		;TEST FAILED IF PROGRAM HALTS HERE
 13516	036751	324 00 0 00 036752 		JUMPA	.+1		;IF TEST FAILS, CHANGE THIS INSTRUCTION (JUMPA .+1) TO
 13517									;JUMPA X (X IS THE ADDRESS OF THE FIRST INSTRUCTION
 13518									;IN THE SUBTEST) TO LOOP ON ERROR^
DFKAA PDP-10 KL10 BASIC INSTRUCTION DIAGNOSTIC (1) VER 0,2	MACRO %53B(1254)-4 11:50 11-Nov-24 Page 7-18
DFKAA2	MAC	13-Jan-89 10:22		TEST OF THE ADD INSTRUCTION

 13519
 13520					;**********
 13521
 13522					;THIS TEST VERIFIES THAT THE ADDITION OF TWO NUMBERS WHOSE SUM IS 2 RAISED TO THE
 13523					;36TH POSER WILL RESULT IN THE C(AC)=0 SINCE THIS NUMBER IS ONE LARGER
 13524					;THAN THE 36 BIT HARDWARE OF THE PROCESSOR IS DESIGNED TO HANDLE. THIS TEST
 13525					;ALSO VERIFIES CARRY GENERATION AND PROPAGATION THROUGHT THE
 13526					;ADDEC. THIS TEST IS REPEATED 36 TIMES. TESTING BEGINS WITH LOADING THE
 13527					;AC WITH 400000000000 AND ADDING THE SAME NUMBER TO IT; THEN,
 13528					;CHECKING FOR C(AC)=0. IN THE SUBSEQUENT 35 TESTS, THE NUMBER
 13529					;LOADED INTO THE AC IS HALVED EACH TIME AND C(E) IS MODE EQUAL TO ITS
 13530					;FORMER VALUE PLUS THE CURRENT C(AC)
 13531			011421		SN=SN+1
 13532			000002			YY=YY/2
 13533			777776			ZZ=ZZ+YY
 13534						IFE	YY,<YY=400000>
 13535						IFE	ZZ,<ZZ=400000>	;PRESET AB TO A RIPPLED ONE STARTING WITH BIT POSITION 0
 13536	036752	200 00 0 00 070333 		MOVE	[XWD -1,ZZ]	;*ADD OF TWO NUMBERS TOTALING 2 RAISED TO THE 36TH
 13537									;POWER SHOULD RESULT IN C(AC)=0.
 13538	036753	270 00 0 00 070266 		ADD	[YY]		;PASS TEST IF C(AC)=0
 13539	036754	332 00 0 00 000000 		SKIPE
 13540						STOP^
 13541	036755	254 04 0 00 036756 		HALT	.+1		;TEST FAILED IF PROGRAM HALTS HERE
 13542	036756	324 00 0 00 036757 		JUMPA	.+1		;IF TEST FAILS, CHANGE THIS INSTRUCTION (JUMPA .+1) TO
 13543									;JUMPA X (X IS THE ADDRESS OF THE FIRST INSTRUCTION
 13544									;IN THE SUBTEST) TO LOOP ON ERROR^
 13545
 13546					;**********
 13547
 13548					;THIS TEST VERIFIES THAT THE ADDITION OF TWO NUMBERS WHOSE SUM IS 2 RAISED TO THE
 13549					;36TH POSER WILL RESULT IN THE C(AC)=0 SINCE THIS NUMBER IS ONE LARGER
 13550					;THAN THE 36 BIT HARDWARE OF THE PROCESSOR IS DESIGNED TO HANDLE. THIS TEST
 13551					;ALSO VERIFIES CARRY GENERATION AND PROPAGATION THROUGHT THE
 13552					;ADDEC. THIS TEST IS REPEATED 36 TIMES. TESTING BEGINS WITH LOADING THE
 13553					;AC WITH 400000000000 AND ADDING THE SAME NUMBER TO IT; THEN,
 13554					;CHECKING FOR C(AC)=0. IN THE SUBSEQUENT 35 TESTS, THE NUMBER
 13555					;LOADED INTO THE AC IS HALVED EACH TIME AND C(E) IS MODE EQUAL TO ITS
 13556					;FORMER VALUE PLUS THE CURRENT C(AC)
 13557			011422		SN=SN+1
 13558			000001			YY=YY/2
 13559			777777			ZZ=ZZ+YY
 13560						IFE	YY,<YY=400000>
 13561						IFE	ZZ,<ZZ=400000>	;PRESET AB TO A RIPPLED ONE STARTING WITH BIT POSITION 0
 13562	036757	200 00 0 00 070254 		MOVE	[XWD -1,ZZ]	;*ADD OF TWO NUMBERS TOTALING 2 RAISED TO THE 36TH
 13563									;POWER SHOULD RESULT IN C(AC)=0.
 13564	036760	270 00 0 00 070265 		ADD	[YY]		;PASS TEST IF C(AC)=0
 13565	036761	332 00 0 00 000000 		SKIPE
 13566						STOP^
 13567	036762	254 04 0 00 036763 		HALT	.+1		;TEST FAILED IF PROGRAM HALTS HERE
 13568	036763	324 00 0 00 036764 		JUMPA	.+1		;IF TEST FAILS, CHANGE THIS INSTRUCTION (JUMPA .+1) TO
 13569									;JUMPA X (X IS THE ADDRESS OF THE FIRST INSTRUCTION
 13570									;IN THE SUBTEST) TO LOOP ON ERROR^
 13571
 13572					;**********
 13573
DFKAA PDP-10 KL10 BASIC INSTRUCTION DIAGNOSTIC (1) VER 0,2	MACRO %53B(1254)-4 11:50 11-Nov-24 Page 8
DFKAA2	MAC	13-Jan-89 10:22		SPECIAL KI10 FOUR BIT ADDER TEST

 13574					SUBTTL	SPECIAL KI10 FOUR BIT ADDER TEST
 13575
 13576					;THIS TEST CHECKS THE CARRY FUNCTION FROM THE MOST SIGNIFICANT BIT OF A FOUR
 13577					;BIT ADDER TO THE LEAST SIGNIFICANT BIT OF THE NEXT SIGNIFICANT FOUR BIT ADDER.
 13578					;SPECIFICALLY, IT IS VERIFIED THAT AN ILLEGAL CARRY DOES NOT OCCUR FROM BIT 33 TO BIT 32.
 13579
 13580	036764	200 00 0 00 070335 	A13500:	MOVE	[-1,,-5]	;PRESET AC WITH ALL ONES EXCEPT FOR BIT 33
 13581	036765	270 00 0 00 070265 		ADD	[1]		;*ADD SHOULD NOT CAUSE CARRY FROM BIT 33 TO BIT 32
 13582	036766	444 00 0 00 070437 		EQV	[-1,,-4]	;RESULT IN AC=ALL ONES
 13583	036767	444 00 0 00 070253 		EQV	[0]		;RESULT IN AC=0
 13584	036770	332 00 0 00 000000 		SKIPE			;PASS TEST IF C(AC)=0
 13585						STOP^
 13586	036771	254 04 0 00 036772 		HALT	.+1		;TEST FAILED IF PROGRAM HALTS HERE
 13587	036772	324 00 0 00 036773 		JUMPA	.+1		;IF TEST FAILS, CHANGE THIS INSTRUCTION (JUMPA .+1) TO
 13588									;JUMPA X (X IS THE ADDRESS OF THE FIRST INSTRUCTION
 13589									;IN THE SUBTEST) TO LOOP ON ERROR^
 13590
 13591					;**********
 13592
 13593					;THIS TEST CHECKS THE CARRY FUNCTION FROM THE MOST SIGNIFICANT BIT OF A FOUR
 13594					;BIT ADDER TO THE LEAST SIGNIFICANT BIT OF THE NEXT SIGNIFICANT FOUR BIT ADDER.
 13595					;SPECIFICALLY, IT IS VERIFIED THAT AN ILLEGAL CARRY DOES NOT OCCUR FROM BIT 29 TO BIT 28.
 13596
 13597	036773	200 00 0 00 070341 	A13600:	MOVE	[-1,,-101]	;PRESET AC WITH ALL ONES EXCEPT FOR BIT 29
 13598	036774	270 00 0 00 070265 		ADD	[1]		;*ADD SHOULD NOT CAUSE CARRY FROM BIT 29 TO BIT 28
 13599	036775	444 00 0 00 070433 		EQV	[-1,,-100]	;RESULT IN AC=ALL ONES
 13600	036776	444 00 0 00 070253 		EQV	[0]		;RESULT IN AC=0
 13601	036777	332 00 0 00 000000 		SKIPE			;PASS TEST IF C(AC)=0
 13602						STOP^
 13603	037000	254 04 0 00 037001 		HALT	.+1		;TEST FAILED IF PROGRAM HALTS HERE
 13604	037001	324 00 0 00 037002 		JUMPA	.+1		;IF TEST FAILS, CHANGE THIS INSTRUCTION (JUMPA .+1) TO
 13605									;JUMPA X (X IS THE ADDRESS OF THE FIRST INSTRUCTION
 13606									;IN THE SUBTEST) TO LOOP ON ERROR^
 13607
 13608					;**********
 13609
 13610					;THIS TEST CHECKS THE CARRY FUNCTION FROM THE MOST SIGNIFICANT BIT OF A FOUR
 13611					;BIT ADDER TO THE LEAST SIGNIFICANT BIT OF THE NEXT SIGNIFICANT FOUR BIT ADDER.
 13612					;SPECIFICALLY, IT IS VERIFIED THAT AN ILLEGAL CARRY DOES NOT OCCUR FROM BIT 25 TO BIT 24.
 13613
 13614	037002	200 00 0 00 070345 	A13700:	MOVE	[-1,,-2001]	;PRESET AC WITH ALL ONES EXCEPT FOR BIT 25
 13615	037003	270 00 0 00 070265 		ADD	[1]		;*ADD SHOULD NOT CAUSE CARRY FROM BIT 25 TO BIT 24
 13616	037004	444 00 0 00 070427 		EQV	[-1,,-2000]	;RESULT IN AC=ALL ONES
 13617	037005	444 00 0 00 070253 		EQV	[0]		;RESULT IN AC=0
 13618	037006	332 00 0 00 000000 		SKIPE			;PASS TEST IF C(AC)=0
 13619						STOP^
 13620	037007	254 04 0 00 037010 		HALT	.+1		;TEST FAILED IF PROGRAM HALTS HERE
 13621	037010	324 00 0 00 037011 		JUMPA	.+1		;IF TEST FAILS, CHANGE THIS INSTRUCTION (JUMPA .+1) TO
 13622									;JUMPA X (X IS THE ADDRESS OF THE FIRST INSTRUCTION
 13623									;IN THE SUBTEST) TO LOOP ON ERROR^
 13624
 13625					;**********
DFKAA PDP-10 KL10 BASIC INSTRUCTION DIAGNOSTIC (1) VER 0,2	MACRO %53B(1254)-4 11:50 11-Nov-24 Page 9
DFKAA2	MAC	13-Jan-89 10:22		SPECIAL KI10 FOUR BIT ADDER TEST

 13626					;THIS TEST CHECKS THE CARRY FUNCTION FROM THE MOST SIGNIFICANT BIT OF A FOUR
 13627					;BIT ADDER TO THE LEAST SIGNIFICANT BIT OF THE NEXT SIGNIFICANT FOUR BIT ADDER.
 13628					;SPECIFICALLY, IT IS VERIFIED THAT AN ILLEGAL CARRY DOES NOT OCCUR FROM BIT 21 TO BIT 20.
 13629
 13630	037011	200 00 0 00 070351 	A14000:	MOVE	[-1,,-40001]	;PRESET AC WITH ALL ONES EXCEPT FOR BIT 21
 13631	037012	270 00 0 00 070265 		ADD	[1]		;*ADD SHOULD NOT CAUSE CARRY FROM BIT 21 TO BIT 20
 13632	037013	444 00 0 00 070423 		EQV	[-1,,-40000]	;RESULT IN AC=ALL ONES
 13633	037014	444 00 0 00 070253 		EQV	[0]		;RESULT IN AC=0
 13634	037015	332 00 0 00 000000 		SKIPE			;PASS TEST IF C(AC)=0
 13635						STOP^
 13636	037016	254 04 0 00 037017 		HALT	.+1		;TEST FAILED IF PROGRAM HALTS HERE
 13637	037017	324 00 0 00 037020 		JUMPA	.+1		;IF TEST FAILS, CHANGE THIS INSTRUCTION (JUMPA .+1) TO
 13638									;JUMPA X (X IS THE ADDRESS OF THE FIRST INSTRUCTION
 13639									;IN THE SUBTEST) TO LOOP ON ERROR^
 13640
 13641					;**********
 13642
 13643					;THIS TEST CHECKS THE CARRY FUNCTION FROM THE MOST SIGNIFICANT BIT OF A FOUR
 13644					;BIT ADDER TO THE LEAST SIGNIFICANT BIT OF THE NEXT SIGNIFICANT FOUR BIT ADDER.
 13645					;SPECIFICALLY, IT IS VERIFIED THAT AN ILLEGAL CARRY DOES NOT OCCUR FROM BIT 18 TO BIT 17.
 13646
 13647	037020	200 00 0 00 070354 	A14100:	MOVE	[-1,,-400001]	;PRESET AC WITH ALL ONES EXCEPT FOR BIT 18
 13648	037021	270 00 0 00 070265 		ADD	[1]		;*ADD SHOULD NOT CAUSE CARRY FROM BIT 18 TO BIT 17
 13649	037022	444 00 0 00 070420 		EQV	[-1,,400000]	;RESULT IN AC=ALL ONES
 13650	037023	444 00 0 00 070253 		EQV	[0]		;RESULT IN AC=0
 13651	037024	332 00 0 00 000000 		SKIPE			;PASS TEST IF C(AC)=0
 13652						STOP^
 13653	037025	254 04 0 00 037026 		HALT	.+1		;TEST FAILED IF PROGRAM HALTS HERE
 13654	037026	324 00 0 00 037027 		JUMPA	.+1		;IF TEST FAILS, CHANGE THIS INSTRUCTION (JUMPA .+1) TO
 13655									;JUMPA X (X IS THE ADDRESS OF THE FIRST INSTRUCTION
 13656									;IN THE SUBTEST) TO LOOP ON ERROR^
 13657
 13658					;**********
 13659
 13660					;THIS TEST CHECKS THE CARRY FUNCTION FROM THE MOST SIGNIFICANT BIT OF A FOUR
 13661					;BIT ADDER TO THE LEAST SIGNIFICANT BIT OF THE NEXT SIGNIFICANT FOUR BIT ADDER.
 13662					;SPECIFICALLY, IT IS VERIFIED THAT AN ILLEGAL CARRY DOES NOT OCCUR FROM BIT 14 TO BIT 13.
 13663
 13664	037027	200 00 0 00 070360 	A14200:	MOVE	[-11,,-1]	;PRESET AC WITH ALL ONES EXCEPT FOR BIT 14
 13665	037030	270 00 0 00 070265 		ADD	[1]		;*ADD SHOULD NOT CAUSE CARRY FROM BIT 14 TO BIT 13
 13666	037031	444 00 0 00 070415 		EQV	[-10,,0]	;RESULT IN AC=ALL ONES
 13667	037032	444 00 0 00 070253 		EQV	[0]		;RESULT IN AC=0
 13668	037033	332 00 0 00 000000 		SKIPE			;PASS TEST IF C(AC)=0
 13669						STOP^
 13670	037034	254 04 0 00 037035 		HALT	.+1		;TEST FAILED IF PROGRAM HALTS HERE
 13671	037035	324 00 0 00 037036 		JUMPA	.+1		;IF TEST FAILS, CHANGE THIS INSTRUCTION (JUMPA .+1) TO
 13672									;JUMPA X (X IS THE ADDRESS OF THE FIRST INSTRUCTION
 13673									;IN THE SUBTEST) TO LOOP ON ERROR^
 13674
 13675					;**********
DFKAA PDP-10 KL10 BASIC INSTRUCTION DIAGNOSTIC (1) VER 0,2	MACRO %53B(1254)-4 11:50 11-Nov-24 Page 10
DFKAA2	MAC	13-Jan-89 10:22		SPECIAL KI10 FOUR BIT ADDER TEST

 13676					;THIS TEST CHECKS THE CARRY FUNCTION FROM THE MOST SIGNIFICANT BIT OF A FOUR
 13677					;BIT ADDER TO THE LEAST SIGNIFICANT BIT OF THE NEXT SIGNIFICANT FOUR BIT ADDER.
 13678					;SPECIFICALLY, IT IS VERIFIED THAT AN ILLEGAL CARRY DOES NOT OCCUR FROM BIT 10 TO BIT 9.
 13679
 13680	037036	200 00 0 00 070364 	A14300:	MOVE	[-201,,-1]	;PRESET AC WITH ALL ONES EXCEPT FOR BIT 10
 13681	037037	270 00 0 00 070265 		ADD	[1]		;*ADD SHOULD NOT CAUSE CARRY FROM BIT 10 TO BIT 9
 13682	037040	444 00 0 00 070411 		EQV	[-200,,0]	;RESULT IN AC=ALL ONES
 13683	037041	444 00 0 00 070253 		EQV	[0]		;RESULT IN AC=0
 13684	037042	332 00 0 00 000000 		SKIPE			;PASS TEST IF C(AC)=0
 13685						STOP^
 13686	037043	254 04 0 00 037044 		HALT	.+1		;TEST FAILED IF PROGRAM HALTS HERE
 13687	037044	324 00 0 00 037045 		JUMPA	.+1		;IF TEST FAILS, CHANGE THIS INSTRUCTION (JUMPA .+1) TO
 13688									;JUMPA X (X IS THE ADDRESS OF THE FIRST INSTRUCTION
 13689									;IN THE SUBTEST) TO LOOP ON ERROR^
 13690
 13691					;**********
 13692
 13693					;THIS TEST CHECKS THE CARRY FUNCTION FROM THE MOST SIGNIFICANT BIT OF A FOUR
 13694					;BIT ADDER TO THE LEAST SIGNIFICANT BIT OF THE NEXT SIGNIFICANT FOUR BIT ADDER.
 13695					;SPECIFICALLY, IT IS VERIFIED THAT AN ILLEGAL CARRY DOES NOT OCCUR FROM BIT 6 TO BIT 5.
 13696
 13697	037045	200 00 0 00 070370 	A14400:	MOVE	[-4001,,-1]	;PRESET AC WITH ALL ONES EXCEPT FOR BIT 6
 13698	037046	270 00 0 00 070265 		ADD	[1]		;*ADD SHOULD NOT CAUSE CARRY FROM BIT 6 TO BIT 5
 13699	037047	444 00 0 00 070406 		EQV	[-4000,,0]	;RESULT IN AC=ALL ONES
 13700	037050	444 00 0 00 070253 		EQV	[0]		;RESULT IN AC=0
 13701	037051	332 00 0 00 000000 		SKIPE			;PASS TEST IF C(AC)=0
 13702						STOP^
 13703	037052	254 04 0 00 037053 		HALT	.+1		;TEST FAILED IF PROGRAM HALTS HERE
 13704	037053	324 00 0 00 037054 		JUMPA	.+1		;IF TEST FAILS, CHANGE THIS INSTRUCTION (JUMPA .+1) TO
 13705									;JUMPA X (X IS THE ADDRESS OF THE FIRST INSTRUCTION
 13706									;IN THE SUBTEST) TO LOOP ON ERROR^
 13707
 13708					;**********
 13709
 13710					;THIS TEST CHECKS THE CARRY FUNCTION FROM THE MOST SIGNIFICANT BIT OF A FOUR
 13711					;BIT ADDER TO THE LEAST SIGNIFICANT BIT OF THE NEXT SIGNIFICANT FOUR BIT ADDER.
 13712					;SPECIFICALLY, IT IS VERIFIED THAT AN ILLEGAL CARRY DOES NOT OCCUR FROM BIT 2 TO BIT 1.
 13713
 13714	037054	200 00 0 00 070374 	A14500:	MOVE	[-100001,,-1]	;PRESET AC WITH ALL ONES EXCEPT FOR BIT 2
 13715	037055	270 00 0 00 070265 		ADD	[1]		;*ADD SHOULD NOT CAUSE CARRY FROM BIT 2 TO BIT 1
 13716	037056	444 00 0 00 070402 		EQV	[-100000,,0]	;RESULT IN AC=ALL ONES
 13717	037057	444 00 0 00 070253 		EQV	[0]		;RESULT IN AC=0
 13718	037060	332 00 0 00 000000 		SKIPE			;PASS TEST IF C(AC)=0
 13719						STOP^
 13720	037061	254 04 0 00 037062 		HALT	.+1		;TEST FAILED IF PROGRAM HALTS HERE
 13721	037062	324 00 0 00 037063 		JUMPA	.+1		;IF TEST FAILS, CHANGE THIS INSTRUCTION (JUMPA .+1) TO
 13722									;JUMPA X (X IS THE ADDRESS OF THE FIRST INSTRUCTION
 13723									;IN THE SUBTEST) TO LOOP ON ERROR^
 13724
 13725					;**********
DFKAA PDP-10 KL10 BASIC INSTRUCTION DIAGNOSTIC (1) VER 0,2	MACRO %53B(1254)-4 11:50 11-Nov-24 Page 11
DFKAA2	MAC	13-Jan-89 10:22		SPECIAL KI10 FOUR BIT ADDER TEST

 13726					;THIS TEST CHECKS THE CARRY FUNCTION FROM THE MOST SIGNIFICANT BIT OF A FOUR
 13727					;BIT ADDER TO THE LEAST SIGNIFICANT BIT OF THE NEXT SIGNIFICANT FOUR BIT ADDER.
 13728					;SPECIFICALLY, IT IS VERIFIED THAT AN ILLEGAL CARRY DOES NOT OCCUR FROM BIT 1 TO BIT 0.
 13729
 13730	037063	200 00 0 00 070375 	A14600:	MOVE	[-200001,,-1]	;PRESET AC WITH ALL ONES EXCEPT FOR BIT 1
 13731	037064	270 00 0 00 070265 		ADD	[1]		;*ADD SHOULD NOT CAUSE CARRY FROM BIT 1 TO BIT 0
 13732	037065	444 00 0 00 070401 		EQV	[600000,,0]	;RESULT IN AC=ALL ONES
 13733	037066	444 00 0 00 070253 		EQV	[0]		;RESULT IN AC=0
 13734	037067	332 00 0 00 000000 		SKIPE			;PASS TEST IF C(AC)=0
 13735						STOP^
 13736	037070	254 04 0 00 037071 		HALT	.+1		;TEST FAILED IF PROGRAM HALTS HERE
 13737	037071	324 00 0 00 037072 		JUMPA	.+1		;IF TEST FAILS, CHANGE THIS INSTRUCTION (JUMPA .+1) TO
 13738									;JUMPA X (X IS THE ADDRESS OF THE FIRST INSTRUCTION
 13739									;IN THE SUBTEST) TO LOOP ON ERROR^
 13740
 13741					;**********
 13742
 13743					;THIS TEST CHECKS THE CARRY FUNCTION FROM THE MOST SIGNIFICANT BIT OF A FOUR
 13744					;BIT ADDER TO THE LEAST SIGNIFICANT BIT OF THE NEXT SIGNIFICANT FOUR BIT ADDER.
 13745					;SPECIFICALLY, IT IS VERIFIED THAT AN ILLEGAL CARRY DOES NOT OCCUR FROM BIT -1TO BIT 35.
 13746
 13747	037072	200 00 0 00 070254 	A14700:	MOVE	[-1,,-1]	;PRESET AC WITH ALL ONES
 13748	037073	270 00 0 00 070265 		ADD	[1]		;*ADD SHOULD NOT CAUSE CARRY FROM BIT -1 TO BIT 35
 13749	037074	332 00 0 00 000000 		SKIPE			;PASS TEST IF C(AC)=0
 13750						STOP^
 13751	037075	254 04 0 00 037076 		HALT	.+1		;TEST FAILED IF PROGRAM HALTS HERE
 13752	037076	324 00 0 00 037077 		JUMPA	.+1		;IF TEST FAILS, CHANGE THIS INSTRUCTION (JUMPA .+1) TO
 13753									;JUMPA X (X IS THE ADDRESS OF THE FIRST INSTRUCTION
 13754									;IN THE SUBTEST) TO LOOP ON ERROR^
 13755
 13756					;**********
DFKAA PDP-10 KL10 BASIC INSTRUCTION DIAGNOSTIC (1) VER 0,2	MACRO %53B(1254)-4 11:50 11-Nov-24 Page 12
DFKAA2	MAC	13-Jan-89 10:22		TEST OF SUB AND COMPARE INSTRUCTIONS

 13757					SUBTTL	TEST OF SUB AND COMPARE INSTRUCTIONS
 13758
 13759					;THIS TEST VERIFIES THAT IF A NON ZERO POSITIVE NUMBER IN E IS
 13760					;SUBTRACTED FROM THE AC WHEN C(AC)=0, THE RESULT IN THE AC
 13761					;IS NEGATIVE
 13762
 13763	037077	200 00 0 00 070253 	A11500:	MOVE	[0]		;PRESET AC TO ZERO
 13764	037100	274 00 0 00 070330 		SUB	[XWD 0,-1]	;*SUB OF POSITIVE NONZERO NUMBER FROM AC OF ALL ZEROS
 13765									;SHOULD RESULT IN C(AC) NEGATIVE
 13766	037101	331 00 0 00 000000 		SKIPL			;PASS TEST IF C(AC) IS NEGATIVE
 13767						STOP^
 13768	037102	254 04 0 00 037103 		HALT	.+1		;TEST FAILED IF PROGRAM HALTS HERE
 13769	037103	324 00 0 00 037104 		JUMPA	.+1		;IF TEST FAILS, CHANGE THIS INSTRUCTION (JUMPA .+1) TO
 13770									;JUMPA X (X IS THE ADDRESS OF THE FIRST INSTRUCTION
 13771									;IN THE SUBTEST) TO LOOP ON ERROR^
 13772
 13773					;AD AR- EN D [ADAM], F CYC ACT ENB [F1],
 13774					;IR SUBX[IR1], IR ADSUB[IR1]
 13775
 13776					;**********
 13777
 13778					;THIS TEST VERIFIES THAT IF A WORD OF ALL ZEROS IS
 13779					;SUBTRACTED FROM AN AC OF ALL ZEROS, THE RESULT
 13780					;IS AN AC OF ZEROS.
 13781
 13782	037104	200 00 0 00 070253 	A11600:	MOVE	[0]		;PRESET AC TO ZERO
 13783	037105	274 00 0 00 070253 		SUB	[0]		;*SUB OF 0 FROM 0 SHOULD RESULT IN C(AC)=0
 13784	037106	332 00 0 00 000000 		SKIPE			;PASS TEST IF C(AC)=0
 13785						STOP^
 13786	037107	254 04 0 00 037110 		HALT	.+1		;TEST FAILED IF PROGRAM HALTS HERE
 13787	037110	324 00 0 00 037111 		JUMPA	.+1		;IF TEST FAILS, CHANGE THIS INSTRUCTION (JUMPA .+1) TO
 13788									;JUMPA X (X IS THE ADDRESS OF THE FIRST INSTRUCTION
 13789									;IN THE SUBTEST) TO LOOP ON ERROR^
 13790					;AD CRY 36[ADCR], F CYC ACT EN D[F1], IF SUBX [IR1]
 13791
 13792					;**********
 13793					PAGE
DFKAA PDP-10 KL10 BASIC INSTRUCTION DIAGNOSTIC (1) VER 0,2	MACRO %53B(1254)-4 11:50 11-Nov-24 Page 12-1
DFKAA2	MAC	13-Jan-89 10:22		TEST OF SUB AND COMPARE INSTRUCTIONS

 13794			011700		SN=11700
 13795			000000			ZZ=0
 13796
 13797					A11700:	REPEAT	^D36,
 13798					<;THIS TEST VERIFIES THAT IF A RIPPLED ONE
 13799					;IS SUBTRACTED FROM ITSELF, THE RESULT IS
 13800					;AN AC OF ALL ZEROS. THIS TEST IS REPEATED 36
 13801					;TIMES IN ORDER TO TEST ALL 36 BITS.
 13802					SN=SN+1
 13803						ZZ=ZZ+ZZ
 13804						IFE	ZZ,<ZZ=1>
 13805						MOVE	[ZZ]		;LOAD AC WITH A FLOATING ONE
 13806						SUB	[ZZ]		;*SUB OF FLOATING ONE FROM ITSELF SHOULD RESULT IN C(AC)=0
 13807						SKIPE			;PASS TEST IF C(AC)=0
 13808						STOP
 13809
 13810					;**********
 13811					>
 13812					;THIS TEST VERIFIES THAT IF A RIPPLED ONE
 13813					;IS SUBTRACTED FROM ITSELF, THE RESULT IS
 13814					;AN AC OF ALL ZEROS. THIS TEST IS REPEATED 36
 13815					;TIMES IN ORDER TO TEST ALL 36 BITS.
 13816			011701		SN=SN+1
 13817			000000			ZZ=ZZ+ZZ
 13818			000001			IFE	ZZ,<ZZ=1>
 13819	037111	200 00 0 00 070265 		MOVE	[ZZ]		;LOAD AC WITH A FLOATING ONE
 13820	037112	274 00 0 00 070265 		SUB	[ZZ]		;*SUB OF FLOATING ONE FROM ITSELF SHOULD RESULT IN C(AC)=0
 13821	037113	332 00 0 00 000000 		SKIPE			;PASS TEST IF C(AC)=0
 13822						STOP^
 13823	037114	254 04 0 00 037115 		HALT	.+1		;TEST FAILED IF PROGRAM HALTS HERE
 13824	037115	324 00 0 00 037116 		JUMPA	.+1		;IF TEST FAILS, CHANGE THIS INSTRUCTION (JUMPA .+1) TO
 13825									;JUMPA X (X IS THE ADDRESS OF THE FIRST INSTRUCTION
 13826									;IN THE SUBTEST) TO LOOP ON ERROR^
 13827
 13828					;**********
 13829
 13830					;THIS TEST VERIFIES THAT IF A RIPPLED ONE
 13831					;IS SUBTRACTED FROM ITSELF, THE RESULT IS
 13832					;AN AC OF ALL ZEROS. THIS TEST IS REPEATED 36
 13833					;TIMES IN ORDER TO TEST ALL 36 BITS.
 13834			011702		SN=SN+1
 13835			000002			ZZ=ZZ+ZZ
 13836						IFE	ZZ,<ZZ=1>
 13837	037116	200 00 0 00 070266 		MOVE	[ZZ]		;LOAD AC WITH A FLOATING ONE
 13838	037117	274 00 0 00 070266 		SUB	[ZZ]		;*SUB OF FLOATING ONE FROM ITSELF SHOULD RESULT IN C(AC)=0
 13839	037120	332 00 0 00 000000 		SKIPE			;PASS TEST IF C(AC)=0
 13840						STOP^
 13841	037121	254 04 0 00 037122 		HALT	.+1		;TEST FAILED IF PROGRAM HALTS HERE
 13842	037122	324 00 0 00 037123 		JUMPA	.+1		;IF TEST FAILS, CHANGE THIS INSTRUCTION (JUMPA .+1) TO
 13843									;JUMPA X (X IS THE ADDRESS OF THE FIRST INSTRUCTION
 13844									;IN THE SUBTEST) TO LOOP ON ERROR^
 13845
 13846					;**********
 13847
 13848					;THIS TEST VERIFIES THAT IF A RIPPLED ONE
DFKAA PDP-10 KL10 BASIC INSTRUCTION DIAGNOSTIC (1) VER 0,2	MACRO %53B(1254)-4 11:50 11-Nov-24 Page 12-2
DFKAA2	MAC	13-Jan-89 10:22		TEST OF SUB AND COMPARE INSTRUCTIONS

 13849					;IS SUBTRACTED FROM ITSELF, THE RESULT IS
 13850					;AN AC OF ALL ZEROS. THIS TEST IS REPEATED 36
 13851					;TIMES IN ORDER TO TEST ALL 36 BITS.
 13852			011703		SN=SN+1
 13853			000004			ZZ=ZZ+ZZ
 13854						IFE	ZZ,<ZZ=1>
 13855	037123	200 00 0 00 070267 		MOVE	[ZZ]		;LOAD AC WITH A FLOATING ONE
 13856	037124	274 00 0 00 070267 		SUB	[ZZ]		;*SUB OF FLOATING ONE FROM ITSELF SHOULD RESULT IN C(AC)=0
 13857	037125	332 00 0 00 000000 		SKIPE			;PASS TEST IF C(AC)=0
 13858						STOP^
 13859	037126	254 04 0 00 037127 		HALT	.+1		;TEST FAILED IF PROGRAM HALTS HERE
 13860	037127	324 00 0 00 037130 		JUMPA	.+1		;IF TEST FAILS, CHANGE THIS INSTRUCTION (JUMPA .+1) TO
 13861									;JUMPA X (X IS THE ADDRESS OF THE FIRST INSTRUCTION
 13862									;IN THE SUBTEST) TO LOOP ON ERROR^
 13863
 13864					;**********
 13865
 13866					;THIS TEST VERIFIES THAT IF A RIPPLED ONE
 13867					;IS SUBTRACTED FROM ITSELF, THE RESULT IS
 13868					;AN AC OF ALL ZEROS. THIS TEST IS REPEATED 36
 13869					;TIMES IN ORDER TO TEST ALL 36 BITS.
 13870			011704		SN=SN+1
 13871			000010			ZZ=ZZ+ZZ
 13872						IFE	ZZ,<ZZ=1>
 13873	037130	200 00 0 00 070270 		MOVE	[ZZ]		;LOAD AC WITH A FLOATING ONE
 13874	037131	274 00 0 00 070270 		SUB	[ZZ]		;*SUB OF FLOATING ONE FROM ITSELF SHOULD RESULT IN C(AC)=0
 13875	037132	332 00 0 00 000000 		SKIPE			;PASS TEST IF C(AC)=0
 13876						STOP^
 13877	037133	254 04 0 00 037134 		HALT	.+1		;TEST FAILED IF PROGRAM HALTS HERE
 13878	037134	324 00 0 00 037135 		JUMPA	.+1		;IF TEST FAILS, CHANGE THIS INSTRUCTION (JUMPA .+1) TO
 13879									;JUMPA X (X IS THE ADDRESS OF THE FIRST INSTRUCTION
 13880									;IN THE SUBTEST) TO LOOP ON ERROR^
 13881
 13882					;**********
 13883
 13884					;THIS TEST VERIFIES THAT IF A RIPPLED ONE
 13885					;IS SUBTRACTED FROM ITSELF, THE RESULT IS
 13886					;AN AC OF ALL ZEROS. THIS TEST IS REPEATED 36
 13887					;TIMES IN ORDER TO TEST ALL 36 BITS.
 13888			011705		SN=SN+1
 13889			000020			ZZ=ZZ+ZZ
 13890						IFE	ZZ,<ZZ=1>
 13891	037135	200 00 0 00 070271 		MOVE	[ZZ]		;LOAD AC WITH A FLOATING ONE
 13892	037136	274 00 0 00 070271 		SUB	[ZZ]		;*SUB OF FLOATING ONE FROM ITSELF SHOULD RESULT IN C(AC)=0
 13893	037137	332 00 0 00 000000 		SKIPE			;PASS TEST IF C(AC)=0
 13894						STOP^
 13895	037140	254 04 0 00 037141 		HALT	.+1		;TEST FAILED IF PROGRAM HALTS HERE
 13896	037141	324 00 0 00 037142 		JUMPA	.+1		;IF TEST FAILS, CHANGE THIS INSTRUCTION (JUMPA .+1) TO
 13897									;JUMPA X (X IS THE ADDRESS OF THE FIRST INSTRUCTION
 13898									;IN THE SUBTEST) TO LOOP ON ERROR^
 13899
 13900					;**********
 13901
 13902					;THIS TEST VERIFIES THAT IF A RIPPLED ONE
 13903					;IS SUBTRACTED FROM ITSELF, THE RESULT IS
DFKAA PDP-10 KL10 BASIC INSTRUCTION DIAGNOSTIC (1) VER 0,2	MACRO %53B(1254)-4 11:50 11-Nov-24 Page 12-3
DFKAA2	MAC	13-Jan-89 10:22		TEST OF SUB AND COMPARE INSTRUCTIONS

 13904					;AN AC OF ALL ZEROS. THIS TEST IS REPEATED 36
 13905					;TIMES IN ORDER TO TEST ALL 36 BITS.
 13906			011706		SN=SN+1
 13907			000040			ZZ=ZZ+ZZ
 13908						IFE	ZZ,<ZZ=1>
 13909	037142	200 00 0 00 070272 		MOVE	[ZZ]		;LOAD AC WITH A FLOATING ONE
 13910	037143	274 00 0 00 070272 		SUB	[ZZ]		;*SUB OF FLOATING ONE FROM ITSELF SHOULD RESULT IN C(AC)=0
 13911	037144	332 00 0 00 000000 		SKIPE			;PASS TEST IF C(AC)=0
 13912						STOP^
 13913	037145	254 04 0 00 037146 		HALT	.+1		;TEST FAILED IF PROGRAM HALTS HERE
 13914	037146	324 00 0 00 037147 		JUMPA	.+1		;IF TEST FAILS, CHANGE THIS INSTRUCTION (JUMPA .+1) TO
 13915									;JUMPA X (X IS THE ADDRESS OF THE FIRST INSTRUCTION
 13916									;IN THE SUBTEST) TO LOOP ON ERROR^
 13917
 13918					;**********
 13919
 13920					;THIS TEST VERIFIES THAT IF A RIPPLED ONE
 13921					;IS SUBTRACTED FROM ITSELF, THE RESULT IS
 13922					;AN AC OF ALL ZEROS. THIS TEST IS REPEATED 36
 13923					;TIMES IN ORDER TO TEST ALL 36 BITS.
 13924			011707		SN=SN+1
 13925			000100			ZZ=ZZ+ZZ
 13926						IFE	ZZ,<ZZ=1>
 13927	037147	200 00 0 00 070273 		MOVE	[ZZ]		;LOAD AC WITH A FLOATING ONE
 13928	037150	274 00 0 00 070273 		SUB	[ZZ]		;*SUB OF FLOATING ONE FROM ITSELF SHOULD RESULT IN C(AC)=0
 13929	037151	332 00 0 00 000000 		SKIPE			;PASS TEST IF C(AC)=0
 13930						STOP^
 13931	037152	254 04 0 00 037153 		HALT	.+1		;TEST FAILED IF PROGRAM HALTS HERE
 13932	037153	324 00 0 00 037154 		JUMPA	.+1		;IF TEST FAILS, CHANGE THIS INSTRUCTION (JUMPA .+1) TO
 13933									;JUMPA X (X IS THE ADDRESS OF THE FIRST INSTRUCTION
 13934									;IN THE SUBTEST) TO LOOP ON ERROR^
 13935
 13936					;**********
 13937
 13938					;THIS TEST VERIFIES THAT IF A RIPPLED ONE
 13939					;IS SUBTRACTED FROM ITSELF, THE RESULT IS
 13940					;AN AC OF ALL ZEROS. THIS TEST IS REPEATED 36
 13941					;TIMES IN ORDER TO TEST ALL 36 BITS.
 13942			011710		SN=SN+1
 13943			000200			ZZ=ZZ+ZZ
 13944						IFE	ZZ,<ZZ=1>
 13945	037154	200 00 0 00 070274 		MOVE	[ZZ]		;LOAD AC WITH A FLOATING ONE
 13946	037155	274 00 0 00 070274 		SUB	[ZZ]		;*SUB OF FLOATING ONE FROM ITSELF SHOULD RESULT IN C(AC)=0
 13947	037156	332 00 0 00 000000 		SKIPE			;PASS TEST IF C(AC)=0
 13948						STOP^
 13949	037157	254 04 0 00 037160 		HALT	.+1		;TEST FAILED IF PROGRAM HALTS HERE
 13950	037160	324 00 0 00 037161 		JUMPA	.+1		;IF TEST FAILS, CHANGE THIS INSTRUCTION (JUMPA .+1) TO
 13951									;JUMPA X (X IS THE ADDRESS OF THE FIRST INSTRUCTION
 13952									;IN THE SUBTEST) TO LOOP ON ERROR^
 13953
 13954					;**********
 13955
 13956					;THIS TEST VERIFIES THAT IF A RIPPLED ONE
 13957					;IS SUBTRACTED FROM ITSELF, THE RESULT IS
 13958					;AN AC OF ALL ZEROS. THIS TEST IS REPEATED 36
DFKAA PDP-10 KL10 BASIC INSTRUCTION DIAGNOSTIC (1) VER 0,2	MACRO %53B(1254)-4 11:50 11-Nov-24 Page 12-4
DFKAA2	MAC	13-Jan-89 10:22		TEST OF SUB AND COMPARE INSTRUCTIONS

 13959					;TIMES IN ORDER TO TEST ALL 36 BITS.
 13960			011711		SN=SN+1
 13961			000400			ZZ=ZZ+ZZ
 13962						IFE	ZZ,<ZZ=1>
 13963	037161	200 00 0 00 070275 		MOVE	[ZZ]		;LOAD AC WITH A FLOATING ONE
 13964	037162	274 00 0 00 070275 		SUB	[ZZ]		;*SUB OF FLOATING ONE FROM ITSELF SHOULD RESULT IN C(AC)=0
 13965	037163	332 00 0 00 000000 		SKIPE			;PASS TEST IF C(AC)=0
 13966						STOP^
 13967	037164	254 04 0 00 037165 		HALT	.+1		;TEST FAILED IF PROGRAM HALTS HERE
 13968	037165	324 00 0 00 037166 		JUMPA	.+1		;IF TEST FAILS, CHANGE THIS INSTRUCTION (JUMPA .+1) TO
 13969									;JUMPA X (X IS THE ADDRESS OF THE FIRST INSTRUCTION
 13970									;IN THE SUBTEST) TO LOOP ON ERROR^
 13971
 13972					;**********
 13973
 13974					;THIS TEST VERIFIES THAT IF A RIPPLED ONE
 13975					;IS SUBTRACTED FROM ITSELF, THE RESULT IS
 13976					;AN AC OF ALL ZEROS. THIS TEST IS REPEATED 36
 13977					;TIMES IN ORDER TO TEST ALL 36 BITS.
 13978			011712		SN=SN+1
 13979			001000			ZZ=ZZ+ZZ
 13980						IFE	ZZ,<ZZ=1>
 13981	037166	200 00 0 00 070276 		MOVE	[ZZ]		;LOAD AC WITH A FLOATING ONE
 13982	037167	274 00 0 00 070276 		SUB	[ZZ]		;*SUB OF FLOATING ONE FROM ITSELF SHOULD RESULT IN C(AC)=0
 13983	037170	332 00 0 00 000000 		SKIPE			;PASS TEST IF C(AC)=0
 13984						STOP^
 13985	037171	254 04 0 00 037172 		HALT	.+1		;TEST FAILED IF PROGRAM HALTS HERE
 13986	037172	324 00 0 00 037173 		JUMPA	.+1		;IF TEST FAILS, CHANGE THIS INSTRUCTION (JUMPA .+1) TO
 13987									;JUMPA X (X IS THE ADDRESS OF THE FIRST INSTRUCTION
 13988									;IN THE SUBTEST) TO LOOP ON ERROR^
 13989
 13990					;**********
 13991
 13992					;THIS TEST VERIFIES THAT IF A RIPPLED ONE
 13993					;IS SUBTRACTED FROM ITSELF, THE RESULT IS
 13994					;AN AC OF ALL ZEROS. THIS TEST IS REPEATED 36
 13995					;TIMES IN ORDER TO TEST ALL 36 BITS.
 13996			011713		SN=SN+1
 13997			002000			ZZ=ZZ+ZZ
 13998						IFE	ZZ,<ZZ=1>
 13999	037173	200 00 0 00 070277 		MOVE	[ZZ]		;LOAD AC WITH A FLOATING ONE
 14000	037174	274 00 0 00 070277 		SUB	[ZZ]		;*SUB OF FLOATING ONE FROM ITSELF SHOULD RESULT IN C(AC)=0
 14001	037175	332 00 0 00 000000 		SKIPE			;PASS TEST IF C(AC)=0
 14002						STOP^
 14003	037176	254 04 0 00 037177 		HALT	.+1		;TEST FAILED IF PROGRAM HALTS HERE
 14004	037177	324 00 0 00 037200 		JUMPA	.+1		;IF TEST FAILS, CHANGE THIS INSTRUCTION (JUMPA .+1) TO
 14005									;JUMPA X (X IS THE ADDRESS OF THE FIRST INSTRUCTION
 14006									;IN THE SUBTEST) TO LOOP ON ERROR^
 14007
 14008					;**********
 14009
 14010					;THIS TEST VERIFIES THAT IF A RIPPLED ONE
 14011					;IS SUBTRACTED FROM ITSELF, THE RESULT IS
 14012					;AN AC OF ALL ZEROS. THIS TEST IS REPEATED 36
 14013					;TIMES IN ORDER TO TEST ALL 36 BITS.
DFKAA PDP-10 KL10 BASIC INSTRUCTION DIAGNOSTIC (1) VER 0,2	MACRO %53B(1254)-4 11:50 11-Nov-24 Page 12-5
DFKAA2	MAC	13-Jan-89 10:22		TEST OF SUB AND COMPARE INSTRUCTIONS

 14014			011714		SN=SN+1
 14015			004000			ZZ=ZZ+ZZ
 14016						IFE	ZZ,<ZZ=1>
 14017	037200	200 00 0 00 070300 		MOVE	[ZZ]		;LOAD AC WITH A FLOATING ONE
 14018	037201	274 00 0 00 070300 		SUB	[ZZ]		;*SUB OF FLOATING ONE FROM ITSELF SHOULD RESULT IN C(AC)=0
 14019	037202	332 00 0 00 000000 		SKIPE			;PASS TEST IF C(AC)=0
 14020						STOP^
 14021	037203	254 04 0 00 037204 		HALT	.+1		;TEST FAILED IF PROGRAM HALTS HERE
 14022	037204	324 00 0 00 037205 		JUMPA	.+1		;IF TEST FAILS, CHANGE THIS INSTRUCTION (JUMPA .+1) TO
 14023									;JUMPA X (X IS THE ADDRESS OF THE FIRST INSTRUCTION
 14024									;IN THE SUBTEST) TO LOOP ON ERROR^
 14025
 14026					;**********
 14027
 14028					;THIS TEST VERIFIES THAT IF A RIPPLED ONE
 14029					;IS SUBTRACTED FROM ITSELF, THE RESULT IS
 14030					;AN AC OF ALL ZEROS. THIS TEST IS REPEATED 36
 14031					;TIMES IN ORDER TO TEST ALL 36 BITS.
 14032			011715		SN=SN+1
 14033			010000			ZZ=ZZ+ZZ
 14034						IFE	ZZ,<ZZ=1>
 14035	037205	200 00 0 00 070301 		MOVE	[ZZ]		;LOAD AC WITH A FLOATING ONE
 14036	037206	274 00 0 00 070301 		SUB	[ZZ]		;*SUB OF FLOATING ONE FROM ITSELF SHOULD RESULT IN C(AC)=0
 14037	037207	332 00 0 00 000000 		SKIPE			;PASS TEST IF C(AC)=0
 14038						STOP^
 14039	037210	254 04 0 00 037211 		HALT	.+1		;TEST FAILED IF PROGRAM HALTS HERE
 14040	037211	324 00 0 00 037212 		JUMPA	.+1		;IF TEST FAILS, CHANGE THIS INSTRUCTION (JUMPA .+1) TO
 14041									;JUMPA X (X IS THE ADDRESS OF THE FIRST INSTRUCTION
 14042									;IN THE SUBTEST) TO LOOP ON ERROR^
 14043
 14044					;**********
 14045
 14046					;THIS TEST VERIFIES THAT IF A RIPPLED ONE
 14047					;IS SUBTRACTED FROM ITSELF, THE RESULT IS
 14048					;AN AC OF ALL ZEROS. THIS TEST IS REPEATED 36
 14049					;TIMES IN ORDER TO TEST ALL 36 BITS.
 14050			011716		SN=SN+1
 14051			020000			ZZ=ZZ+ZZ
 14052						IFE	ZZ,<ZZ=1>
 14053	037212	200 00 0 00 070302 		MOVE	[ZZ]		;LOAD AC WITH A FLOATING ONE
 14054	037213	274 00 0 00 070302 		SUB	[ZZ]		;*SUB OF FLOATING ONE FROM ITSELF SHOULD RESULT IN C(AC)=0
 14055	037214	332 00 0 00 000000 		SKIPE			;PASS TEST IF C(AC)=0
 14056						STOP^
 14057	037215	254 04 0 00 037216 		HALT	.+1		;TEST FAILED IF PROGRAM HALTS HERE
 14058	037216	324 00 0 00 037217 		JUMPA	.+1		;IF TEST FAILS, CHANGE THIS INSTRUCTION (JUMPA .+1) TO
 14059									;JUMPA X (X IS THE ADDRESS OF THE FIRST INSTRUCTION
 14060									;IN THE SUBTEST) TO LOOP ON ERROR^
 14061
 14062					;**********
 14063
 14064					;THIS TEST VERIFIES THAT IF A RIPPLED ONE
 14065					;IS SUBTRACTED FROM ITSELF, THE RESULT IS
 14066					;AN AC OF ALL ZEROS. THIS TEST IS REPEATED 36
 14067					;TIMES IN ORDER TO TEST ALL 36 BITS.
 14068			011717		SN=SN+1
DFKAA PDP-10 KL10 BASIC INSTRUCTION DIAGNOSTIC (1) VER 0,2	MACRO %53B(1254)-4 11:50 11-Nov-24 Page 12-6
DFKAA2	MAC	13-Jan-89 10:22		TEST OF SUB AND COMPARE INSTRUCTIONS

 14069			040000			ZZ=ZZ+ZZ
 14070						IFE	ZZ,<ZZ=1>
 14071	037217	200 00 0 00 070303 		MOVE	[ZZ]		;LOAD AC WITH A FLOATING ONE
 14072	037220	274 00 0 00 070303 		SUB	[ZZ]		;*SUB OF FLOATING ONE FROM ITSELF SHOULD RESULT IN C(AC)=0
 14073	037221	332 00 0 00 000000 		SKIPE			;PASS TEST IF C(AC)=0
 14074						STOP^
 14075	037222	254 04 0 00 037223 		HALT	.+1		;TEST FAILED IF PROGRAM HALTS HERE
 14076	037223	324 00 0 00 037224 		JUMPA	.+1		;IF TEST FAILS, CHANGE THIS INSTRUCTION (JUMPA .+1) TO
 14077									;JUMPA X (X IS THE ADDRESS OF THE FIRST INSTRUCTION
 14078									;IN THE SUBTEST) TO LOOP ON ERROR^
 14079
 14080					;**********
 14081
 14082					;THIS TEST VERIFIES THAT IF A RIPPLED ONE
 14083					;IS SUBTRACTED FROM ITSELF, THE RESULT IS
 14084					;AN AC OF ALL ZEROS. THIS TEST IS REPEATED 36
 14085					;TIMES IN ORDER TO TEST ALL 36 BITS.
 14086			011720		SN=SN+1
 14087			100000			ZZ=ZZ+ZZ
 14088						IFE	ZZ,<ZZ=1>
 14089	037224	200 00 0 00 070304 		MOVE	[ZZ]		;LOAD AC WITH A FLOATING ONE
 14090	037225	274 00 0 00 070304 		SUB	[ZZ]		;*SUB OF FLOATING ONE FROM ITSELF SHOULD RESULT IN C(AC)=0
 14091	037226	332 00 0 00 000000 		SKIPE			;PASS TEST IF C(AC)=0
 14092						STOP^
 14093	037227	254 04 0 00 037230 		HALT	.+1		;TEST FAILED IF PROGRAM HALTS HERE
 14094	037230	324 00 0 00 037231 		JUMPA	.+1		;IF TEST FAILS, CHANGE THIS INSTRUCTION (JUMPA .+1) TO
 14095									;JUMPA X (X IS THE ADDRESS OF THE FIRST INSTRUCTION
 14096									;IN THE SUBTEST) TO LOOP ON ERROR^
 14097
 14098					;**********
 14099
 14100					;THIS TEST VERIFIES THAT IF A RIPPLED ONE
 14101					;IS SUBTRACTED FROM ITSELF, THE RESULT IS
 14102					;AN AC OF ALL ZEROS. THIS TEST IS REPEATED 36
 14103					;TIMES IN ORDER TO TEST ALL 36 BITS.
 14104			011721		SN=SN+1
 14105			200000			ZZ=ZZ+ZZ
 14106						IFE	ZZ,<ZZ=1>
 14107	037231	200 00 0 00 070305 		MOVE	[ZZ]		;LOAD AC WITH A FLOATING ONE
 14108	037232	274 00 0 00 070305 		SUB	[ZZ]		;*SUB OF FLOATING ONE FROM ITSELF SHOULD RESULT IN C(AC)=0
 14109	037233	332 00 0 00 000000 		SKIPE			;PASS TEST IF C(AC)=0
 14110						STOP^
 14111	037234	254 04 0 00 037235 		HALT	.+1		;TEST FAILED IF PROGRAM HALTS HERE
 14112	037235	324 00 0 00 037236 		JUMPA	.+1		;IF TEST FAILS, CHANGE THIS INSTRUCTION (JUMPA .+1) TO
 14113									;JUMPA X (X IS THE ADDRESS OF THE FIRST INSTRUCTION
 14114									;IN THE SUBTEST) TO LOOP ON ERROR^
 14115
 14116					;**********
 14117
 14118					;THIS TEST VERIFIES THAT IF A RIPPLED ONE
 14119					;IS SUBTRACTED FROM ITSELF, THE RESULT IS
 14120					;AN AC OF ALL ZEROS. THIS TEST IS REPEATED 36
 14121					;TIMES IN ORDER TO TEST ALL 36 BITS.
 14122			011722		SN=SN+1
 14123			400000			ZZ=ZZ+ZZ
DFKAA PDP-10 KL10 BASIC INSTRUCTION DIAGNOSTIC (1) VER 0,2	MACRO %53B(1254)-4 11:50 11-Nov-24 Page 12-7
DFKAA2	MAC	13-Jan-89 10:22		TEST OF SUB AND COMPARE INSTRUCTIONS

 14124						IFE	ZZ,<ZZ=1>
 14125	037236	200 00 0 00 070306 		MOVE	[ZZ]		;LOAD AC WITH A FLOATING ONE
 14126	037237	274 00 0 00 070306 		SUB	[ZZ]		;*SUB OF FLOATING ONE FROM ITSELF SHOULD RESULT IN C(AC)=0
 14127	037240	332 00 0 00 000000 		SKIPE			;PASS TEST IF C(AC)=0
 14128						STOP^
 14129	037241	254 04 0 00 037242 		HALT	.+1		;TEST FAILED IF PROGRAM HALTS HERE
 14130	037242	324 00 0 00 037243 		JUMPA	.+1		;IF TEST FAILS, CHANGE THIS INSTRUCTION (JUMPA .+1) TO
 14131									;JUMPA X (X IS THE ADDRESS OF THE FIRST INSTRUCTION
 14132									;IN THE SUBTEST) TO LOOP ON ERROR^
 14133
 14134					;**********
 14135
 14136					;THIS TEST VERIFIES THAT IF A RIPPLED ONE
 14137					;IS SUBTRACTED FROM ITSELF, THE RESULT IS
 14138					;AN AC OF ALL ZEROS. THIS TEST IS REPEATED 36
 14139					;TIMES IN ORDER TO TEST ALL 36 BITS.
 14140			011723		SN=SN+1
 14141		000001	000000			ZZ=ZZ+ZZ
 14142						IFE	ZZ,<ZZ=1>
 14143	037243	200 00 0 00 070307 		MOVE	[ZZ]		;LOAD AC WITH A FLOATING ONE
 14144	037244	274 00 0 00 070307 		SUB	[ZZ]		;*SUB OF FLOATING ONE FROM ITSELF SHOULD RESULT IN C(AC)=0
 14145	037245	332 00 0 00 000000 		SKIPE			;PASS TEST IF C(AC)=0
 14146						STOP^
 14147	037246	254 04 0 00 037247 		HALT	.+1		;TEST FAILED IF PROGRAM HALTS HERE
 14148	037247	324 00 0 00 037250 		JUMPA	.+1		;IF TEST FAILS, CHANGE THIS INSTRUCTION (JUMPA .+1) TO
 14149									;JUMPA X (X IS THE ADDRESS OF THE FIRST INSTRUCTION
 14150									;IN THE SUBTEST) TO LOOP ON ERROR^
 14151
 14152					;**********
 14153
 14154					;THIS TEST VERIFIES THAT IF A RIPPLED ONE
 14155					;IS SUBTRACTED FROM ITSELF, THE RESULT IS
 14156					;AN AC OF ALL ZEROS. THIS TEST IS REPEATED 36
 14157					;TIMES IN ORDER TO TEST ALL 36 BITS.
 14158			011724		SN=SN+1
 14159		000002	000000			ZZ=ZZ+ZZ
 14160						IFE	ZZ,<ZZ=1>
 14161	037250	200 00 0 00 070310 		MOVE	[ZZ]		;LOAD AC WITH A FLOATING ONE
 14162	037251	274 00 0 00 070310 		SUB	[ZZ]		;*SUB OF FLOATING ONE FROM ITSELF SHOULD RESULT IN C(AC)=0
 14163	037252	332 00 0 00 000000 		SKIPE			;PASS TEST IF C(AC)=0
 14164						STOP^
 14165	037253	254 04 0 00 037254 		HALT	.+1		;TEST FAILED IF PROGRAM HALTS HERE
 14166	037254	324 00 0 00 037255 		JUMPA	.+1		;IF TEST FAILS, CHANGE THIS INSTRUCTION (JUMPA .+1) TO
 14167									;JUMPA X (X IS THE ADDRESS OF THE FIRST INSTRUCTION
 14168									;IN THE SUBTEST) TO LOOP ON ERROR^
 14169
 14170					;**********
 14171
 14172					;THIS TEST VERIFIES THAT IF A RIPPLED ONE
 14173					;IS SUBTRACTED FROM ITSELF, THE RESULT IS
 14174					;AN AC OF ALL ZEROS. THIS TEST IS REPEATED 36
 14175					;TIMES IN ORDER TO TEST ALL 36 BITS.
 14176			011725		SN=SN+1
 14177		000004	000000			ZZ=ZZ+ZZ
 14178						IFE	ZZ,<ZZ=1>
DFKAA PDP-10 KL10 BASIC INSTRUCTION DIAGNOSTIC (1) VER 0,2	MACRO %53B(1254)-4 11:50 11-Nov-24 Page 12-8
DFKAA2	MAC	13-Jan-89 10:22		TEST OF SUB AND COMPARE INSTRUCTIONS

 14179	037255	200 00 0 00 070311 		MOVE	[ZZ]		;LOAD AC WITH A FLOATING ONE
 14180	037256	274 00 0 00 070311 		SUB	[ZZ]		;*SUB OF FLOATING ONE FROM ITSELF SHOULD RESULT IN C(AC)=0
 14181	037257	332 00 0 00 000000 		SKIPE			;PASS TEST IF C(AC)=0
 14182						STOP^
 14183	037260	254 04 0 00 037261 		HALT	.+1		;TEST FAILED IF PROGRAM HALTS HERE
 14184	037261	324 00 0 00 037262 		JUMPA	.+1		;IF TEST FAILS, CHANGE THIS INSTRUCTION (JUMPA .+1) TO
 14185									;JUMPA X (X IS THE ADDRESS OF THE FIRST INSTRUCTION
 14186									;IN THE SUBTEST) TO LOOP ON ERROR^
 14187
 14188					;**********
 14189
 14190					;THIS TEST VERIFIES THAT IF A RIPPLED ONE
 14191					;IS SUBTRACTED FROM ITSELF, THE RESULT IS
 14192					;AN AC OF ALL ZEROS. THIS TEST IS REPEATED 36
 14193					;TIMES IN ORDER TO TEST ALL 36 BITS.
 14194			011726		SN=SN+1
 14195		000010	000000			ZZ=ZZ+ZZ
 14196						IFE	ZZ,<ZZ=1>
 14197	037262	200 00 0 00 070312 		MOVE	[ZZ]		;LOAD AC WITH A FLOATING ONE
 14198	037263	274 00 0 00 070312 		SUB	[ZZ]		;*SUB OF FLOATING ONE FROM ITSELF SHOULD RESULT IN C(AC)=0
 14199	037264	332 00 0 00 000000 		SKIPE			;PASS TEST IF C(AC)=0
 14200						STOP^
 14201	037265	254 04 0 00 037266 		HALT	.+1		;TEST FAILED IF PROGRAM HALTS HERE
 14202	037266	324 00 0 00 037267 		JUMPA	.+1		;IF TEST FAILS, CHANGE THIS INSTRUCTION (JUMPA .+1) TO
 14203									;JUMPA X (X IS THE ADDRESS OF THE FIRST INSTRUCTION
 14204									;IN THE SUBTEST) TO LOOP ON ERROR^
 14205
 14206					;**********
 14207
 14208					;THIS TEST VERIFIES THAT IF A RIPPLED ONE
 14209					;IS SUBTRACTED FROM ITSELF, THE RESULT IS
 14210					;AN AC OF ALL ZEROS. THIS TEST IS REPEATED 36
 14211					;TIMES IN ORDER TO TEST ALL 36 BITS.
 14212			011727		SN=SN+1
 14213		000020	000000			ZZ=ZZ+ZZ
 14214						IFE	ZZ,<ZZ=1>
 14215	037267	200 00 0 00 070313 		MOVE	[ZZ]		;LOAD AC WITH A FLOATING ONE
 14216	037270	274 00 0 00 070313 		SUB	[ZZ]		;*SUB OF FLOATING ONE FROM ITSELF SHOULD RESULT IN C(AC)=0
 14217	037271	332 00 0 00 000000 		SKIPE			;PASS TEST IF C(AC)=0
 14218						STOP^
 14219	037272	254 04 0 00 037273 		HALT	.+1		;TEST FAILED IF PROGRAM HALTS HERE
 14220	037273	324 00 0 00 037274 		JUMPA	.+1		;IF TEST FAILS, CHANGE THIS INSTRUCTION (JUMPA .+1) TO
 14221									;JUMPA X (X IS THE ADDRESS OF THE FIRST INSTRUCTION
 14222									;IN THE SUBTEST) TO LOOP ON ERROR^
 14223
 14224					;**********
 14225
 14226					;THIS TEST VERIFIES THAT IF A RIPPLED ONE
 14227					;IS SUBTRACTED FROM ITSELF, THE RESULT IS
 14228					;AN AC OF ALL ZEROS. THIS TEST IS REPEATED 36
 14229					;TIMES IN ORDER TO TEST ALL 36 BITS.
 14230			011730		SN=SN+1
 14231		000040	000000			ZZ=ZZ+ZZ
 14232						IFE	ZZ,<ZZ=1>
 14233	037274	200 00 0 00 070314 		MOVE	[ZZ]		;LOAD AC WITH A FLOATING ONE
DFKAA PDP-10 KL10 BASIC INSTRUCTION DIAGNOSTIC (1) VER 0,2	MACRO %53B(1254)-4 11:50 11-Nov-24 Page 12-9
DFKAA2	MAC	13-Jan-89 10:22		TEST OF SUB AND COMPARE INSTRUCTIONS

 14234	037275	274 00 0 00 070314 		SUB	[ZZ]		;*SUB OF FLOATING ONE FROM ITSELF SHOULD RESULT IN C(AC)=0
 14235	037276	332 00 0 00 000000 		SKIPE			;PASS TEST IF C(AC)=0
 14236						STOP^
 14237	037277	254 04 0 00 037300 		HALT	.+1		;TEST FAILED IF PROGRAM HALTS HERE
 14238	037300	324 00 0 00 037301 		JUMPA	.+1		;IF TEST FAILS, CHANGE THIS INSTRUCTION (JUMPA .+1) TO
 14239									;JUMPA X (X IS THE ADDRESS OF THE FIRST INSTRUCTION
 14240									;IN THE SUBTEST) TO LOOP ON ERROR^
 14241
 14242					;**********
 14243
 14244					;THIS TEST VERIFIES THAT IF A RIPPLED ONE
 14245					;IS SUBTRACTED FROM ITSELF, THE RESULT IS
 14246					;AN AC OF ALL ZEROS. THIS TEST IS REPEATED 36
 14247					;TIMES IN ORDER TO TEST ALL 36 BITS.
 14248			011731		SN=SN+1
 14249		000100	000000			ZZ=ZZ+ZZ
 14250						IFE	ZZ,<ZZ=1>
 14251	037301	200 00 0 00 070315 		MOVE	[ZZ]		;LOAD AC WITH A FLOATING ONE
 14252	037302	274 00 0 00 070315 		SUB	[ZZ]		;*SUB OF FLOATING ONE FROM ITSELF SHOULD RESULT IN C(AC)=0
 14253	037303	332 00 0 00 000000 		SKIPE			;PASS TEST IF C(AC)=0
 14254						STOP^
 14255	037304	254 04 0 00 037305 		HALT	.+1		;TEST FAILED IF PROGRAM HALTS HERE
 14256	037305	324 00 0 00 037306 		JUMPA	.+1		;IF TEST FAILS, CHANGE THIS INSTRUCTION (JUMPA .+1) TO
 14257									;JUMPA X (X IS THE ADDRESS OF THE FIRST INSTRUCTION
 14258									;IN THE SUBTEST) TO LOOP ON ERROR^
 14259
 14260					;**********
 14261
 14262					;THIS TEST VERIFIES THAT IF A RIPPLED ONE
 14263					;IS SUBTRACTED FROM ITSELF, THE RESULT IS
 14264					;AN AC OF ALL ZEROS. THIS TEST IS REPEATED 36
 14265					;TIMES IN ORDER TO TEST ALL 36 BITS.
 14266			011732		SN=SN+1
 14267		000200	000000			ZZ=ZZ+ZZ
 14268						IFE	ZZ,<ZZ=1>
 14269	037306	200 00 0 00 070316 		MOVE	[ZZ]		;LOAD AC WITH A FLOATING ONE
 14270	037307	274 00 0 00 070316 		SUB	[ZZ]		;*SUB OF FLOATING ONE FROM ITSELF SHOULD RESULT IN C(AC)=0
 14271	037310	332 00 0 00 000000 		SKIPE			;PASS TEST IF C(AC)=0
 14272						STOP^
 14273	037311	254 04 0 00 037312 		HALT	.+1		;TEST FAILED IF PROGRAM HALTS HERE
 14274	037312	324 00 0 00 037313 		JUMPA	.+1		;IF TEST FAILS, CHANGE THIS INSTRUCTION (JUMPA .+1) TO
 14275									;JUMPA X (X IS THE ADDRESS OF THE FIRST INSTRUCTION
 14276									;IN THE SUBTEST) TO LOOP ON ERROR^
 14277
 14278					;**********
 14279
 14280					;THIS TEST VERIFIES THAT IF A RIPPLED ONE
 14281					;IS SUBTRACTED FROM ITSELF, THE RESULT IS
 14282					;AN AC OF ALL ZEROS. THIS TEST IS REPEATED 36
 14283					;TIMES IN ORDER TO TEST ALL 36 BITS.
 14284			011733		SN=SN+1
 14285		000400	000000			ZZ=ZZ+ZZ
 14286						IFE	ZZ,<ZZ=1>
 14287	037313	200 00 0 00 070264 		MOVE	[ZZ]		;LOAD AC WITH A FLOATING ONE
 14288	037314	274 00 0 00 070264 		SUB	[ZZ]		;*SUB OF FLOATING ONE FROM ITSELF SHOULD RESULT IN C(AC)=0
DFKAA PDP-10 KL10 BASIC INSTRUCTION DIAGNOSTIC (1) VER 0,2	MACRO %53B(1254)-4 11:50 11-Nov-24 Page 12-10
DFKAA2	MAC	13-Jan-89 10:22		TEST OF SUB AND COMPARE INSTRUCTIONS

 14289	037315	332 00 0 00 000000 		SKIPE			;PASS TEST IF C(AC)=0
 14290						STOP^
 14291	037316	254 04 0 00 037317 		HALT	.+1		;TEST FAILED IF PROGRAM HALTS HERE
 14292	037317	324 00 0 00 037320 		JUMPA	.+1		;IF TEST FAILS, CHANGE THIS INSTRUCTION (JUMPA .+1) TO
 14293									;JUMPA X (X IS THE ADDRESS OF THE FIRST INSTRUCTION
 14294									;IN THE SUBTEST) TO LOOP ON ERROR^
 14295
 14296					;**********
 14297
 14298					;THIS TEST VERIFIES THAT IF A RIPPLED ONE
 14299					;IS SUBTRACTED FROM ITSELF, THE RESULT IS
 14300					;AN AC OF ALL ZEROS. THIS TEST IS REPEATED 36
 14301					;TIMES IN ORDER TO TEST ALL 36 BITS.
 14302			011734		SN=SN+1
 14303		001000	000000			ZZ=ZZ+ZZ
 14304						IFE	ZZ,<ZZ=1>
 14305	037320	200 00 0 00 070317 		MOVE	[ZZ]		;LOAD AC WITH A FLOATING ONE
 14306	037321	274 00 0 00 070317 		SUB	[ZZ]		;*SUB OF FLOATING ONE FROM ITSELF SHOULD RESULT IN C(AC)=0
 14307	037322	332 00 0 00 000000 		SKIPE			;PASS TEST IF C(AC)=0
 14308						STOP^
 14309	037323	254 04 0 00 037324 		HALT	.+1		;TEST FAILED IF PROGRAM HALTS HERE
 14310	037324	324 00 0 00 037325 		JUMPA	.+1		;IF TEST FAILS, CHANGE THIS INSTRUCTION (JUMPA .+1) TO
 14311									;JUMPA X (X IS THE ADDRESS OF THE FIRST INSTRUCTION
 14312									;IN THE SUBTEST) TO LOOP ON ERROR^
 14313
 14314					;**********
 14315
 14316					;THIS TEST VERIFIES THAT IF A RIPPLED ONE
 14317					;IS SUBTRACTED FROM ITSELF, THE RESULT IS
 14318					;AN AC OF ALL ZEROS. THIS TEST IS REPEATED 36
 14319					;TIMES IN ORDER TO TEST ALL 36 BITS.
 14320			011735		SN=SN+1
 14321		002000	000000			ZZ=ZZ+ZZ
 14322						IFE	ZZ,<ZZ=1>
 14323	037325	200 00 0 00 070320 		MOVE	[ZZ]		;LOAD AC WITH A FLOATING ONE
 14324	037326	274 00 0 00 070320 		SUB	[ZZ]		;*SUB OF FLOATING ONE FROM ITSELF SHOULD RESULT IN C(AC)=0
 14325	037327	332 00 0 00 000000 		SKIPE			;PASS TEST IF C(AC)=0
 14326						STOP^
 14327	037330	254 04 0 00 037331 		HALT	.+1		;TEST FAILED IF PROGRAM HALTS HERE
 14328	037331	324 00 0 00 037332 		JUMPA	.+1		;IF TEST FAILS, CHANGE THIS INSTRUCTION (JUMPA .+1) TO
 14329									;JUMPA X (X IS THE ADDRESS OF THE FIRST INSTRUCTION
 14330									;IN THE SUBTEST) TO LOOP ON ERROR^
 14331
 14332					;**********
 14333
 14334					;THIS TEST VERIFIES THAT IF A RIPPLED ONE
 14335					;IS SUBTRACTED FROM ITSELF, THE RESULT IS
 14336					;AN AC OF ALL ZEROS. THIS TEST IS REPEATED 36
 14337					;TIMES IN ORDER TO TEST ALL 36 BITS.
 14338			011736		SN=SN+1
 14339		004000	000000			ZZ=ZZ+ZZ
 14340						IFE	ZZ,<ZZ=1>
 14341	037332	200 00 0 00 070321 		MOVE	[ZZ]		;LOAD AC WITH A FLOATING ONE
 14342	037333	274 00 0 00 070321 		SUB	[ZZ]		;*SUB OF FLOATING ONE FROM ITSELF SHOULD RESULT IN C(AC)=0
 14343	037334	332 00 0 00 000000 		SKIPE			;PASS TEST IF C(AC)=0
DFKAA PDP-10 KL10 BASIC INSTRUCTION DIAGNOSTIC (1) VER 0,2	MACRO %53B(1254)-4 11:50 11-Nov-24 Page 12-11
DFKAA2	MAC	13-Jan-89 10:22		TEST OF SUB AND COMPARE INSTRUCTIONS

 14344						STOP^
 14345	037335	254 04 0 00 037336 		HALT	.+1		;TEST FAILED IF PROGRAM HALTS HERE
 14346	037336	324 00 0 00 037337 		JUMPA	.+1		;IF TEST FAILS, CHANGE THIS INSTRUCTION (JUMPA .+1) TO
 14347									;JUMPA X (X IS THE ADDRESS OF THE FIRST INSTRUCTION
 14348									;IN THE SUBTEST) TO LOOP ON ERROR^
 14349
 14350					;**********
 14351
 14352					;THIS TEST VERIFIES THAT IF A RIPPLED ONE
 14353					;IS SUBTRACTED FROM ITSELF, THE RESULT IS
 14354					;AN AC OF ALL ZEROS. THIS TEST IS REPEATED 36
 14355					;TIMES IN ORDER TO TEST ALL 36 BITS.
 14356			011737		SN=SN+1
 14357		010000	000000			ZZ=ZZ+ZZ
 14358						IFE	ZZ,<ZZ=1>
 14359	037337	200 00 0 00 070322 		MOVE	[ZZ]		;LOAD AC WITH A FLOATING ONE
 14360	037340	274 00 0 00 070322 		SUB	[ZZ]		;*SUB OF FLOATING ONE FROM ITSELF SHOULD RESULT IN C(AC)=0
 14361	037341	332 00 0 00 000000 		SKIPE			;PASS TEST IF C(AC)=0
 14362						STOP^
 14363	037342	254 04 0 00 037343 		HALT	.+1		;TEST FAILED IF PROGRAM HALTS HERE
 14364	037343	324 00 0 00 037344 		JUMPA	.+1		;IF TEST FAILS, CHANGE THIS INSTRUCTION (JUMPA .+1) TO
 14365									;JUMPA X (X IS THE ADDRESS OF THE FIRST INSTRUCTION
 14366									;IN THE SUBTEST) TO LOOP ON ERROR^
 14367
 14368					;**********
 14369
 14370					;THIS TEST VERIFIES THAT IF A RIPPLED ONE
 14371					;IS SUBTRACTED FROM ITSELF, THE RESULT IS
 14372					;AN AC OF ALL ZEROS. THIS TEST IS REPEATED 36
 14373					;TIMES IN ORDER TO TEST ALL 36 BITS.
 14374			011740		SN=SN+1
 14375		020000	000000			ZZ=ZZ+ZZ
 14376						IFE	ZZ,<ZZ=1>
 14377	037344	200 00 0 00 070323 		MOVE	[ZZ]		;LOAD AC WITH A FLOATING ONE
 14378	037345	274 00 0 00 070323 		SUB	[ZZ]		;*SUB OF FLOATING ONE FROM ITSELF SHOULD RESULT IN C(AC)=0
 14379	037346	332 00 0 00 000000 		SKIPE			;PASS TEST IF C(AC)=0
 14380						STOP^
 14381	037347	254 04 0 00 037350 		HALT	.+1		;TEST FAILED IF PROGRAM HALTS HERE
 14382	037350	324 00 0 00 037351 		JUMPA	.+1		;IF TEST FAILS, CHANGE THIS INSTRUCTION (JUMPA .+1) TO
 14383									;JUMPA X (X IS THE ADDRESS OF THE FIRST INSTRUCTION
 14384									;IN THE SUBTEST) TO LOOP ON ERROR^
 14385
 14386					;**********
 14387
 14388					;THIS TEST VERIFIES THAT IF A RIPPLED ONE
 14389					;IS SUBTRACTED FROM ITSELF, THE RESULT IS
 14390					;AN AC OF ALL ZEROS. THIS TEST IS REPEATED 36
 14391					;TIMES IN ORDER TO TEST ALL 36 BITS.
 14392			011741		SN=SN+1
 14393		040000	000000			ZZ=ZZ+ZZ
 14394						IFE	ZZ,<ZZ=1>
 14395	037351	200 00 0 00 070324 		MOVE	[ZZ]		;LOAD AC WITH A FLOATING ONE
 14396	037352	274 00 0 00 070324 		SUB	[ZZ]		;*SUB OF FLOATING ONE FROM ITSELF SHOULD RESULT IN C(AC)=0
 14397	037353	332 00 0 00 000000 		SKIPE			;PASS TEST IF C(AC)=0
 14398						STOP^
DFKAA PDP-10 KL10 BASIC INSTRUCTION DIAGNOSTIC (1) VER 0,2	MACRO %53B(1254)-4 11:50 11-Nov-24 Page 12-12
DFKAA2	MAC	13-Jan-89 10:22		TEST OF SUB AND COMPARE INSTRUCTIONS

 14399	037354	254 04 0 00 037355 		HALT	.+1		;TEST FAILED IF PROGRAM HALTS HERE
 14400	037355	324 00 0 00 037356 		JUMPA	.+1		;IF TEST FAILS, CHANGE THIS INSTRUCTION (JUMPA .+1) TO
 14401									;JUMPA X (X IS THE ADDRESS OF THE FIRST INSTRUCTION
 14402									;IN THE SUBTEST) TO LOOP ON ERROR^
 14403
 14404					;**********
 14405
 14406					;THIS TEST VERIFIES THAT IF A RIPPLED ONE
 14407					;IS SUBTRACTED FROM ITSELF, THE RESULT IS
 14408					;AN AC OF ALL ZEROS. THIS TEST IS REPEATED 36
 14409					;TIMES IN ORDER TO TEST ALL 36 BITS.
 14410			011742		SN=SN+1
 14411		100000	000000			ZZ=ZZ+ZZ
 14412						IFE	ZZ,<ZZ=1>
 14413	037356	200 00 0 00 070325 		MOVE	[ZZ]		;LOAD AC WITH A FLOATING ONE
 14414	037357	274 00 0 00 070325 		SUB	[ZZ]		;*SUB OF FLOATING ONE FROM ITSELF SHOULD RESULT IN C(AC)=0
 14415	037360	332 00 0 00 000000 		SKIPE			;PASS TEST IF C(AC)=0
 14416						STOP^
 14417	037361	254 04 0 00 037362 		HALT	.+1		;TEST FAILED IF PROGRAM HALTS HERE
 14418	037362	324 00 0 00 037363 		JUMPA	.+1		;IF TEST FAILS, CHANGE THIS INSTRUCTION (JUMPA .+1) TO
 14419									;JUMPA X (X IS THE ADDRESS OF THE FIRST INSTRUCTION
 14420									;IN THE SUBTEST) TO LOOP ON ERROR^
 14421
 14422					;**********
 14423
 14424					;THIS TEST VERIFIES THAT IF A RIPPLED ONE
 14425					;IS SUBTRACTED FROM ITSELF, THE RESULT IS
 14426					;AN AC OF ALL ZEROS. THIS TEST IS REPEATED 36
 14427					;TIMES IN ORDER TO TEST ALL 36 BITS.
 14428			011743		SN=SN+1
 14429		200000	000000			ZZ=ZZ+ZZ
 14430						IFE	ZZ,<ZZ=1>
 14431	037363	200 00 0 00 070326 		MOVE	[ZZ]		;LOAD AC WITH A FLOATING ONE
 14432	037364	274 00 0 00 070326 		SUB	[ZZ]		;*SUB OF FLOATING ONE FROM ITSELF SHOULD RESULT IN C(AC)=0
 14433	037365	332 00 0 00 000000 		SKIPE			;PASS TEST IF C(AC)=0
 14434						STOP^
 14435	037366	254 04 0 00 037367 		HALT	.+1		;TEST FAILED IF PROGRAM HALTS HERE
 14436	037367	324 00 0 00 037370 		JUMPA	.+1		;IF TEST FAILS, CHANGE THIS INSTRUCTION (JUMPA .+1) TO
 14437									;JUMPA X (X IS THE ADDRESS OF THE FIRST INSTRUCTION
 14438									;IN THE SUBTEST) TO LOOP ON ERROR^
 14439
 14440					;**********
 14441
 14442					;THIS TEST VERIFIES THAT IF A RIPPLED ONE
 14443					;IS SUBTRACTED FROM ITSELF, THE RESULT IS
 14444					;AN AC OF ALL ZEROS. THIS TEST IS REPEATED 36
 14445					;TIMES IN ORDER TO TEST ALL 36 BITS.
 14446			011744		SN=SN+1
 14447		400000	000000			ZZ=ZZ+ZZ
 14448						IFE	ZZ,<ZZ=1>
 14449	037370	200 00 0 00 070256 		MOVE	[ZZ]		;LOAD AC WITH A FLOATING ONE
 14450	037371	274 00 0 00 070256 		SUB	[ZZ]		;*SUB OF FLOATING ONE FROM ITSELF SHOULD RESULT IN C(AC)=0
 14451	037372	332 00 0 00 000000 		SKIPE			;PASS TEST IF C(AC)=0
 14452						STOP^
 14453	037373	254 04 0 00 037374 		HALT	.+1		;TEST FAILED IF PROGRAM HALTS HERE
DFKAA PDP-10 KL10 BASIC INSTRUCTION DIAGNOSTIC (1) VER 0,2	MACRO %53B(1254)-4 11:50 11-Nov-24 Page 12-13
DFKAA2	MAC	13-Jan-89 10:22		TEST OF SUB AND COMPARE INSTRUCTIONS

 14454	037374	324 00 0 00 037375 		JUMPA	.+1		;IF TEST FAILS, CHANGE THIS INSTRUCTION (JUMPA .+1) TO
 14455									;JUMPA X (X IS THE ADDRESS OF THE FIRST INSTRUCTION
 14456									;IN THE SUBTEST) TO LOOP ON ERROR^
 14457
 14458					;**********
 14459
 14460					PAGE
DFKAA PDP-10 KL10 BASIC INSTRUCTION DIAGNOSTIC (1) VER 0,2	MACRO %53B(1254)-4 11:50 11-Nov-24 Page 12-14
DFKAA2	MAC	13-Jan-89 10:22		TEST OF SUB AND COMPARE INSTRUCTIONS

 14461					;THIS TEST VERIFIES THAT IF A WORD OF ALL
 14462					;ONES IS SUBTRACTED FROM ITSELF, THE RESULT
 14463					;IN THE AC IS ZERO.
 14464
 14465	037375	200 00 0 00 070254 	A12000:	MOVE	[-1]		;PRESET AC TO ALL ONES
 14466	037376	274 00 0 00 070254 		SUB	[-1]		;*SUB OF -1 FROM ITSELF SHOULD RESULT IN C(AC)=0
 14467	037377	332 00 0 00 000000 		SKIPE			;PASS TEST IF C(AC)=0
 14468						STOP^
 14469	037400	254 04 0 00 037401 		HALT	.+1		;TEST FAILED IF PROGRAM HALTS HERE
 14470	037401	324 00 0 00 037402 		JUMPA	.+1		;IF TEST FAILS, CHANGE THIS INSTRUCTION (JUMPA .+1) TO
 14471									;JUMPA X (X IS THE ADDRESS OF THE FIRST INSTRUCTION
 14472									;IN THE SUBTEST) TO LOOP ON ERROR^
 14473
 14474					;**********
DFKAA PDP-10 KL10 BASIC INSTRUCTION DIAGNOSTIC (1) VER 0,2	MACRO %53B(1254)-4 11:50 11-Nov-24 Page 13
DFKAA2	MAC	13-Jan-89 10:22		TEST OF SUB AND COMPARE INSTRUCTIONS

 14475					;THIS TEST VERIFIES THAT CAMA ALWAYS SKIPS THE
 14476					;NEXT INSTRUCTION INDEPENDENT OF THE DATA WITH AC
 14477					;AND E. THIS TEST FAILS IF CAMA DOES NOT SKIP ALWAYS.
 14478
 14479	037402	200 00 0 00 070253 	A12100:	MOVE	[0]		;PRESET AC, E TO ZERO
 14480	037403	314 00 0 00 000000 		CAMA			;*CAMA SHOULD ALWAYS SKIP THE NEXT INSTRUCTION,
 14481									;OTHERWISE THIS TEST FAILS
 14482						STOP^
 14483	037404	254 04 0 00 037405 		HALT	.+1		;TEST FAILED IF PROGRAM HALTS HERE
 14484	037405	324 00 0 00 037406 		JUMPA	.+1		;IF TEST FAILS, CHANGE THIS INSTRUCTION (JUMPA .+1) TO
 14485									;JUMPA X (X IS THE ADDRESS OF THE FIRST INSTRUCTION
 14486									;IN THE SUBTEST) TO LOOP ON ERROR^
 14487
 14488					;ET0 [E], ET0 EN[E], IR CAXX[IR3], AD CRY 3C[ADCR],
 14489					;FCYC ACT EN D [ADCR], AD CRY 36 F/F'S [ADCR],
 14490					;PC CLOCK EN [PCC], ET0 C F/F[E], IR CAXX[IR3],
 14491					;ADZ COND P[ADZ] AND ADZ COND Z[ADZ]
 14492
 14493					;**********
 14494
 14495					;THIS TEST VERIFIES THAT CAME IS DATA SENSITIVE.
 14496					;IT SKIPS THE NEXT INSTRUCTION IF AND ONLY
 14497					;IF C(AC)=C(E). IN THIS TEST AC=E=0 AND
 14498					;C(AC)=C(E)=0. HENCE, CAME MUST
 14499					;SKIP THE NEXT INSTRUCTION
 14500					;IN THIS TEST
 14501
 14502	037406	200 00 0 00 070253 	A12200:	MOVE	[0]		;PRESET AC, E TO ZERO
 14503	037407	312 00 0 00 000000 		CAME			;*CAME SHOULD SKIP SINCE E=AC
 14504						STOP^
 14505	037410	254 04 0 00 037411 		HALT	.+1		;TEST FAILED IF PROGRAM HALTS HERE
 14506	037411	324 00 0 00 037412 		JUMPA	.+1		;IF TEST FAILS, CHANGE THIS INSTRUCTION (JUMPA .+1) TO
 14507									;JUMPA X (X IS THE ADDRESS OF THE FIRST INSTRUCTION
 14508									;IN THE SUBTEST) TO LOOP ON ERROR^
 14509
 14510					;AD FM + EN [ADFP], F CXC ACT ENC[F1], IRCAXX[IR3]
 14511
 14512					;**********
DFKAA PDP-10 KL10 BASIC INSTRUCTION DIAGNOSTIC (1) VER 0,2	MACRO %53B(1254)-4 11:50 11-Nov-24 Page 14
DFKAA2	MAC	13-Jan-89 10:22		TEST OF SUB AND COMPARE INSTRUCTIONS

 14513					;THIS TEST VERIFIES THAT CAME IS DATA SENSITIVE
 14514					;IT SKIPS THE NEXT INSTRUCTION OF AND ONLY IF
 14515					;C(AC)=C(E). IN THIS TEST C(AC)=C(E)=0;
 14516					;BUT, E IS NOT WITHIN THE AC RANGE.
 14517					;HENCE, CAME MUST SKIP
 14518					;THE NEXT INSTRUCTION IN THIS TEST.
 14519
 14520	037412	200 00 0 00 070253 	A12300:	MOVE	[0]		;*CAME SHOULD SKIP WHEN C(AC)=C(E)=0
 14521	037413	312 00 0 00 070253 		CAME	[0]
 14522						STOP^
 14523	037414	254 04 0 00 037415 		HALT	.+1		;TEST FAILED IF PROGRAM HALTS HERE
 14524	037415	324 00 0 00 037416 		JUMPA	.+1		;IF TEST FAILS, CHANGE THIS INSTRUCTION (JUMPA .+1) TO
 14525									;JUMPA X (X IS THE ADDRESS OF THE FIRST INSTRUCTION
 14526									;IN THE SUBTEST) TO LOOP ON ERROR^
 14527
 14528					;CAMX: FCE[F1], IR CAMX[IR1]
 14529
 14530					;**********
 14531
 14532					;THIS TEST VERIFIES THAT CAME IS DATA SENSITIVE.
 14533					;IT SKIPS THE NEXT INSTRUCTION IF AND ONLY IF
 14534					;C(AC)=C(E). IN THIS TEST C(AC)=0 AND
 14535					;C(E)=-1. HENCE, CAME SHOULD NOT
 14536					;SKIP THE NEXT INSTRUCTION IN THIS TEST.
 14537
 14538	037416	200 00 0 00 070253 	A12400:	MOVE	[0]		;PRESET AC TO ZERO
 14539	037417	312 00 0 00 070254 		CAME	[-1]		;*CAME SHOULD NOT SKIP BECAUSE C(AC)=0 ANDC(E)=-
 14540	037420	334 00 0 00 000000 		SKIPA			;SKIP HALT INSTRUCTION IF CAME PASSES TEST
 14541						STOP^
 14542	037421	254 04 0 00 037422 		HALT	.+1		;TEST FAILED IF PROGRAM HALTS HERE
 14543	037422	324 00 0 00 037423 		JUMPA	.+1		;IF TEST FAILS, CHANGE THIS INSTRUCTION (JUMPA .+1) TO
 14544									;JUMPA X (X IS THE ADDRESS OF THE FIRST INSTRUCTION
 14545									;IN THE SUBTEST) TO LOOP ON ERROR^
 14546
 14547					;AD AR- EN [ADAM], IR CAXX [IR3], F CYC ACT EN B [F1],
 14548					;AD AR- F/F'S [ADAM], AD ADD [ADC1], AD FM + FETCH EN A [ADFP],
 14549					;F CYC ACT EN A [F1], AD ADD EN C [ADC1], AD ADD F/F'S [ADC1]
 14550
 14551					;**********
DFKAA PDP-10 KL10 BASIC INSTRUCTION DIAGNOSTIC (1) VER 0,2	MACRO %53B(1254)-4 11:50 11-Nov-24 Page 15
DFKAA2	MAC	13-Jan-89 10:22		TEST OF COMPARE (CAMX) INSTRUCTIONS

 14552					SUBTTL	TEST OF COMPARE (CAMX) INSTRUCTIONS
 14553
 14554					;**********
 14555
 14556					;THIS TEST VERIFIES THAT CAML SKIPS THE NEXT SEQUENTIAL INSTRUCTION WHEN AND
 14557					;ONLY WHEN C(AC) IS LESS THAN C(E).
 14558					;IN THIS TEST, C(AC)=-1 AND C(E)=0; HENCE, CAML SHOULD SKIP.  OTHERWISE,THE
 14559					;PROGRAM HALTS.
 14560
 14561	037423	200 00 0 00 070254 	B100:	MOVE	[-1]		;PRELOAD AC WITH -1
 14562	037424	311 00 0 00 070253 		CAML	[0]		;*CAML SHOULD SKIP BECAUSE C(AC) IS LESS THAN C(E)
 14563						STOP^
 14564	037425	254 04 0 00 037426 		HALT	.+1		;TEST FAILED IF PROGRAM HALTS HERE
 14565	037426	324 00 0 00 037427 		JUMPA	.+1		;IF TEST FAILS, CHANGE THIS INSTRUCTION (JUMPA .+1) TO
 14566									;JUMPA X (X IS THE ADDRESS OF THE FIRST INSTRUCTION
 14567									;IN THE SUBTEST) TO LOOP ON ERROR^
 14568
 14569					;*****     FAILURE ANALYSIS     *****
 14570					;C(AC0)		C(AC1)		FAILING SIGNAL
 14571
 14572					;				FC: AB PC EN
 14573					;				ET0: COND Q: PC CLK EN
 14574
 14575					;**********
 14576
 14577					;THIS TEST VERIFIES THAT CAML SKIPS THE NEXT SEQUENTIAL INSTRUCTION WHEN AND
 14578					;ONLY WHEN C(AC) IS LESS THAN C(E).
 14579					;IN THIS CASE, C(AC)=0 AND C(E)=-1; HENCE, CAML SHOULD NOT SKIP.  OTHERWISE,
 14580					;THE PROGRAM HALTS.
 14581
 14582	037427	200 00 0 00 070253 	B200:	MOVE	[0]		;PRELOAD AC WITH 0
 14583	037430	311 00 0 00 070254 		CAML	[-1]		;*CAML SHOULD NOT SKIP BECAUSE
 14584									;C(AC) IS GREATER THAN C(E)
 14585	037431	334 00 0 00 000000 		SKIPA			;SKIP HALT INSTRUCTION IF CAML PASSES
 14586						STOP^
 14587	037432	254 04 0 00 037433 		HALT	.+1		;TEST FAILED IF PROGRAM HALTS HERE
 14588	037433	324 00 0 00 037434 		JUMPA	.+1		;IF TEST FAILS, CHANGE THIS INSTRUCTION (JUMPA .+1) TO
 14589									;JUMPA X (X IS THE ADDRESS OF THE FIRST INSTRUCTION
 14590									;IN THE SUBTEST) TO LOOP ON ERROR^
 14591
 14592					;*****     FAILURE ANALYSIS     *****
 14593					;C(AC0)		C(AC1)		FAILING SIGNAL
 14594
 14595					;				SW: FCE
 14596					;				FC: PC CHANGE
 14597
 14598					;**********
DFKAA PDP-10 KL10 BASIC INSTRUCTION DIAGNOSTIC (1) VER 0,2	MACRO %53B(1254)-4 11:50 11-Nov-24 Page 16
DFKAA2	MAC	13-Jan-89 10:22		TEST OF COMPARE (CAMX) INSTRUCTIONS

 14599					;THIS TEST VERIFIES THAT CAML SKIPS THE NEXT SEQUENTIAL INSTRUCTION WHEN AND
 14600					;ONLY WHEN C(AC) IS LESS THAN C(E).
 14601					;IN THIS CASE, C(AC)=400000,,0 (THE MOST
 14602					;NEGATIVE NUMBER) AND C(E)=377777,,-1
 14603					;(THE MOST POSITIVE NUMBER); HENCE,
 14604					;CAML SHOULD SKIP.  OTHERWISE, THE
 14605					;PROGRAM HALTS
 14606
 14607	037434	200 00 0 00 070256 	B300:	MOVE	[XWD 400000,0]	;PRELOAD AC WITH 400000,,0
 14608	037435	311 00 0 00 070255 		CAML	[XWD 377777,-1]	;*CAML SHOULD SKIP BECAUSE C(AC) IS LESS THAN C(E)
 14609						STOP^
 14610	037436	254 04 0 00 037437 		HALT	.+1		;TEST FAILED IF PROGRAM HALTS HERE
 14611	037437	324 00 0 00 037440 		JUMPA	.+1		;IF TEST FAILS, CHANGE THIS INSTRUCTION (JUMPA .+1) TO
 14612									;JUMPA X (X IS THE ADDRESS OF THE FIRST INSTRUCTION
 14613									;IN THE SUBTEST) TO LOOP ON ERROR^
 14614
 14615					;*****     FAILURE ANALYSIS     *****
 14616					;C(AC0)		C(AC1)		FAILING SIGNAL
 14617
 14618					;				FC: AD ADD
 14619
 14620					;**********
 14621
 14622					;THIS TEST VERIFIES THAT CAML SKIPS THE NEXT SEQUENTIAL INSTRUCTION WHEN AND
 14623					;ONLY WHEN C(AC) IS LESS THAN C(E).
 14624					;IN THIS CASE, C(AC)=377777,,-1 (THE MOST POSITIVE NUMBER) AND C(E)=400000,,0 (THE MOST NEGA
 14625					TIVE NUMBER)
 14626					;HENCE, CAML SHOULD NOT SKIP.  OTHERWISE, THE PROGRAM HALTS.
 14627
 14628	037440	200 00 0 00 070255 	B400:	MOVE	[XWD 377777,-1]	;PRELOAD AC WITH 377777,,-1
 14629	037441	311 00 0 00 070256 		CAML	[XWD 400000,0]	;*CAML SHOULD NOT SKIP BECAUSE
 14630									;C(AC) IS GREATER THAN C(E)
 14631	037442	334 00 0 00 000000 		SKIPA			;SKIP HALT INSTRUCTION IF CAML PASSES
 14632						STOP^
 14633	037443	254 04 0 00 037444 		HALT	.+1		;TEST FAILED IF PROGRAM HALTS HERE
 14634	037444	324 00 0 00 037445 		JUMPA	.+1		;IF TEST FAILS, CHANGE THIS INSTRUCTION (JUMPA .+1) TO
 14635									;JUMPA X (X IS THE ADDRESS OF THE FIRST INSTRUCTION
 14636									;IN THE SUBTEST) TO LOOP ON ERROR^
 14637
 14638					;**********
DFKAA PDP-10 KL10 BASIC INSTRUCTION DIAGNOSTIC (1) VER 0,2	MACRO %53B(1254)-4 11:50 11-Nov-24 Page 17
DFKAA2	MAC	13-Jan-89 10:22		TEST OF COMPARE (CAMX) INSTRUCTIONS

 14639					;THIS TEST VERIFIES THAT CAML SKIPS THE NEXT SEQUENTIAL INSTRUCTION WHEN AND
 14640					;ONLY WHEN C(AC) IS LESS THAN C(E).
 14641					;IN THIS CASE, C(AC)=400000,,0 (THE MOST NEGTIVE NUMBER) AND C(E)=-1;
 14642					;HENCE, CAML SHOULD SKIP.  OTHERWISE, THE PROGRAM HALTS
 14643
 14644	037445	200 00 0 00 070256 	B500:	MOVE	[XWD 400000,0]	;PRELOAD AC WITH 400000,,0
 14645	037446	311 00 0 00 070254 		CAML	[-1]		;*CAML SHOULD SKIP BECAUSE C(AC) IS LESS THAN C(E)
 14646						STOP^
 14647	037447	254 04 0 00 037450 		HALT	.+1		;TEST FAILED IF PROGRAM HALTS HERE
 14648	037450	324 00 0 00 037451 		JUMPA	.+1		;IF TEST FAILS, CHANGE THIS INSTRUCTION (JUMPA .+1) TO
 14649									;JUMPA X (X IS THE ADDRESS OF THE FIRST INSTRUCTION
 14650									;IN THE SUBTEST) TO LOOP ON ERROR^
 14651
 14652					;*****     FAILURE ANALYSIS     *****
 14653					;C(AC0)		C(AC1)		FAILING SIGNAL
 14654
 14655					;				FC: AD FM + EN
 14656
 14657					;**********
 14658
 14659					;THIS TEST VERIFIES THAT CAML SKIPS THE NEXT SEQUENTIAL INSTRUCTION WHEN AND
 14660					;ONLY WHEN C(AC) IS LESS THAN C(E).
 14661					;IN THIS CASE, C(AC)=0 AND C(E)=-1 ;HENCE, CAML SHOULD NOT SKIP.  OTHERWISE,
 14662					;THE PROGRAM HALTS.
 14663
 14664	037451	400 00 0 00 000000 	B600:	SETZ			;PRELOAD AC WITH 0
 14665	037452	311 00 0 00 070254 		CAML	[-1]		;*CAML SHOULD NOT SKIP BECAUSE
 14666									;C(AC) IS GREATER THAN C(E)
 14667	037453	334 00 0 00 000000 		SKIPA			;SKIP HALT INSTRUCTION IF CAML PASSES.
 14668						STOP^
 14669	037454	254 04 0 00 037455 		HALT	.+1		;TEST FAILED IF PROGRAM HALTS HERE
 14670	037455	324 00 0 00 037456 		JUMPA	.+1		;IF TEST FAILS, CHANGE THIS INSTRUCTION (JUMPA .+1) TO
 14671									;JUMPA X (X IS THE ADDRESS OF THE FIRST INSTRUCTION
 14672									;IN THE SUBTEST) TO LOOP ON ERROR^
 14673
 14674					;**********
DFKAA PDP-10 KL10 BASIC INSTRUCTION DIAGNOSTIC (1) VER 0,2	MACRO %53B(1254)-4 11:50 11-Nov-24 Page 18
DFKAA2	MAC	13-Jan-89 10:22		TEST OF COMPARE (CAMX) INSTRUCTIONS

 14675					;THIS TEST VERIFIES THAT CAML SKIPS THE NEXT INSTRUCTION WHEN AND
 14676					;ONLY WHEN C(AC) IS LESS THAN C(E).
 14677					;IN THIS CASE, C(AC)=0 AND C(E)=0 ;HENCE, CAML SHOULD NOT SKIP.  OTHERWISE,
 14678					;THE PROGRAM HALTS.
 14679
 14680	037456	400 00 0 00 000000 	B700:	SETZ			;PRELOAD AS WITH 0
 14681	037457	311 00 0 00 070253 		CAML	[0]		;*CAML SHOULD NOT SKIP BECAUSE C(AC)=C(E)
 14682	037460	334 00 0 00 000000 		SKIPA			;SKIP HALT INSTRUCTION IF CAML PASSES
 14683						STOP^
 14684	037461	254 04 0 00 037462 		HALT	.+1		;TEST FAILED IF PROGRAM HALTS HERE
 14685	037462	324 00 0 00 037463 		JUMPA	.+1		;IF TEST FAILS, CHANGE THIS INSTRUCTION (JUMPA .+1) TO
 14686									;JUMPA X (X IS THE ADDRESS OF THE FIRST INSTRUCTION
 14687									;IN THE SUBTEST) TO LOOP ON ERROR^
 14688
 14689					;*****     FAILURE ANALYSIS     *****
 14690					;C(AC0)		C(AC1)		FAILING SIGNAL
 14691
 14692					;				FC: AD CRY 36
 14693
 14694					;**********
 14695
 14696					;THIS TEST VERIFIES THAT CAML SKIPS THE NEXT SEQUENTIAL INSTRUCTION WHEN AND
 14697					;ONLY WHEN C(AC) IS LESS THAN C(E).
 14698					;IN THIS CASE, C(AC)=0 AND C(E)=400000,,O (THE MOST NEGATIVE NUMBER);
 14699					;HENCE CAML SHOULD NOT SKIP.  OTHERWISE, THE PROGRAM HALTS.
 14700
 14701	037463	400 00 0 00 000000 	B1000:	SETZ			;PRELOAD AC WITH 0
 14702	037464	311 00 0 00 070256 		CAML	[XWD 400000,0]	;*CAML SHOULD NOT SKIP BECAUSE
 14703									;C(AC) IS GREATER THAN C(E)
 14704	037465	334 00 0 00 000000 		SKIPA			;SKIP HALT INSTRUCTION IF CAML PASSES
 14705						STOP^
 14706	037466	254 04 0 00 037467 		HALT	.+1		;TEST FAILED IF PROGRAM HALTS HERE
 14707	037467	324 00 0 00 037470 		JUMPA	.+1		;IF TEST FAILS, CHANGE THIS INSTRUCTION (JUMPA .+1) TO
 14708									;JUMPA X (X IS THE ADDRESS OF THE FIRST INSTRUCTION
 14709									;IN THE SUBTEST) TO LOOP ON ERROR^
 14710
 14711					;**********
DFKAA PDP-10 KL10 BASIC INSTRUCTION DIAGNOSTIC (1) VER 0,2	MACRO %53B(1254)-4 11:50 11-Nov-24 Page 19
DFKAA2	MAC	13-Jan-89 10:22		TEST OF COMPARE (CAMX) INSTRUCTIONS

 14712					;THIS TEST VERIFIES THAT CAM IS DATA INDEPENDENT.  IT NEVER SKIPS
 14713					;THE NEXT SEQUENTIAL INSTRUCTION
 14714					;IN THIS CASE, C(AC)=-1 AND C(E)=0
 14715					;IF IT DOES SKIP THE NEXT INSTRUCTION, THE PROGRAM HALTS
 14716
 14717	037470	200 00 0 00 070254 	B1100:	MOVE	[-1]		;PRELOAD AC WITH -1
 14718	037471	310 00 0 00 070253 		CAM	[0]		;*CAM SHOULD NEVER SKIP
 14719	037472	334 00 0 00 000000 		SKIPA			;SKIP HALT INSTRUCTION IF CAM PASSES
 14720						STOP^
 14721	037473	254 04 0 00 037474 		HALT	.+1		;TEST FAILED IF PROGRAM HALTS HERE
 14722	037474	324 00 0 00 037475 		JUMPA	.+1		;IF TEST FAILS, CHANGE THIS INSTRUCTION (JUMPA .+1) TO
 14723									;JUMPA X (X IS THE ADDRESS OF THE FIRST INSTRUCTION
 14724									;IN THE SUBTEST) TO LOOP ON ERROR^
 14725
 14726					;**********
 14727
 14728					;THIS TEST VERIFIES THAT CAMGE SKIPS THE NEXT SEQUENTIAL INSTRUCTION WHEN AND
 14729					;ONLY WHEN C(AC) IS GREATER THAN OR EQUAL TO C(E).
 14730					;IN THIS CASE, C(AC)=-1 AND C(E)=0;  HENCE, CAMGE SHOULD NOT SKIP.
 14731					;OTHERWISE, THE PROGRAM HALTS.
 14732
 14733	037475	200 00 0 00 070254 	B1200:	MOVE	[-1]		;PRELOAD AC WITH-1
 14734	037476	315 00 0 00 070253 		CAMGE	[0]		;*CAMGE SHOULD NOT SKIP BECAUSE C(AC) IS LESS THAN C(E)
 14735	037477	334 00 0 00 000000 		SKIPA			;SKIP HALT INSTRUCTION IF CAMGE PASSES.
 14736						STOP^
 14737	037500	254 04 0 00 037501 		HALT	.+1		;TEST FAILED IF PROGRAM HALTS HERE
 14738	037501	324 00 0 00 037502 		JUMPA	.+1		;IF TEST FAILS, CHANGE THIS INSTRUCTION (JUMPA .+1) TO
 14739									;JUMPA X (X IS THE ADDRESS OF THE FIRST INSTRUCTION
 14740									;IN THE SUBTEST) TO LOOP ON ERROR^
 14741
 14742					;*****     FAILURE ANALYSIS     *****
 14743					;C(AC0)		C(AC1)		FAILING SIGNAL
 14744
 14745					;				FC: PC CHANGE
 14746					;				FC: AB PC EN
 14747
 14748					;**********
DFKAA PDP-10 KL10 BASIC INSTRUCTION DIAGNOSTIC (1) VER 0,2	MACRO %53B(1254)-4 11:50 11-Nov-24 Page 20
DFKAA2	MAC	13-Jan-89 10:22		TEST OF COMPARE (CAMX) INSTRUCTIONS

 14749					;THIS TEST VERIFIES THAT CAMGE SKIPS THE NEXT SEQUENTIAL INSTRUCTION WHEN AND
 14750					;ONLY WHEN C(AC) IS GREATER THAN OR EQUAL TO C(E)
 14751					;IN THIS CASE, C(AC)=0 AND C(E)=-1;  HENCE CAMGE SHOULD SKIP.
 14752					;OTHEWISE, THE PROGRAM HALTS.
 14753
 14754	037502	400 00 0 00 000000 	B1300:	SETZ			;PRELOAD AC WITH 0
 14755	037503	315 00 0 00 070254 		CAMGE	[-1]		;*CAMGE SHOULD SKIP BECAUSE C(AC) IS GREATER THAN C(E)
 14756						STOP^
 14757	037504	254 04 0 00 037505 		HALT	.+1		;TEST FAILED IF PROGRAM HALTS HERE
 14758	037505	324 00 0 00 037506 		JUMPA	.+1		;IF TEST FAILS, CHANGE THIS INSTRUCTION (JUMPA .+1) TO
 14759									;JUMPA X (X IS THE ADDRESS OF THE FIRST INSTRUCTION
 14760									;IN THE SUBTEST) TO LOOP ON ERROR^
 14761
 14762					;*****     FAILURE ANALYSIS     *****
 14763					;C(AC0)		C(AC1)		FAILING SIGNAL
 14764
 14765					;				SW: FCE
 14766					;				ET0: COND Q: PC CLK EN
 14767
 14768					;**********
 14769
 14770					;THIS TEST VERIFIES THAT CAMN SKIPS THE NEXT SEQUENTIAL INSTRUCTION WHEN AND
 14771					;ONLY WHEN C(AC) IS NOT EQUAL TO C(E)
 14772					;IN THIS CASE C(AC)=0 AND C(E)=-1;  HENCE CAMN SHOULD SKIP.
 14773					;OTHERWISE, THE PROGRAM HALTS
 14774
 14775	037506	400 00 0 00 000000 	B1400:	SETZ			;PRELOAD AC WITH 0
 14776	037507	316 00 0 00 070254 		CAMN	[-1]		;*CAMN SHOULD SKIP BECAUSE C(AC) IS NOT EQUAL TO C(E)
 14777						STOP^
 14778	037510	254 04 0 00 037511 		HALT	.+1		;TEST FAILED IF PROGRAM HALTS HERE
 14779	037511	324 00 0 00 037512 		JUMPA	.+1		;IF TEST FAILS, CHANGE THIS INSTRUCTION (JUMPA .+1) TO
 14780									;JUMPA X (X IS THE ADDRESS OF THE FIRST INSTRUCTION
 14781									;IN THE SUBTEST) TO LOOP ON ERROR^
 14782
 14783					;*****     FAILURE ANALYSIS     *****
 14784					;C(AC0)		C(AC1)		FAILING SIGNAL
 14785
 14786					;				FC:AD FM + EN
 14787					;				FC: AD AR - EN
 14788					;				FC: AD CRY 36
 14789					;				FC: AD ADD
 14790					;				FC: AB PC EN
 14791					;				ET0: PC CLK EN
 14792
 14793					;**********
DFKAA PDP-10 KL10 BASIC INSTRUCTION DIAGNOSTIC (1) VER 0,2	MACRO %53B(1254)-4 11:50 11-Nov-24 Page 21
DFKAA2	MAC	13-Jan-89 10:22		TEST OF COMPARE (CAMX) INSTRUCTIONS

 14794					;THIS TEST VERIFIES THAT CAMN SKIPS THE NEXT SEQUENTIAL INSTRUCTION WHEN AND
 14795					;ONLY WHEN C(AC) IS NOT EQUAL TO C(E)
 14796					;IN THIS CASE, C(AC)=0 AND C(E)=0;  HENCE CAMN SHOULD NOT SKIP.
 14797					;OTHERWISE, THE PROGRAM HALTS
 14798
 14799	037512	400 00 0 00 000000 	B1500:	SETZ			;PRELOAD AC WITH 0
 14800	037513	316 00 0 00 070253 		CAMN	[0]		;*CAMN SHOULD NOT SKIP BECAUSE C(AC)=C(E).
 14801	037514	334 00 0 00 000000 		SKIPA			;SKIP HALT INSTRUCTION IF CAMN PASSES
 14802						STOP^
 14803	037515	254 04 0 00 037516 		HALT	.+1		;TEST FAILED IF PROGRAM HALTS HERE
 14804	037516	324 00 0 00 037517 		JUMPA	.+1		;IF TEST FAILS, CHANGE THIS INSTRUCTION (JUMPA .+1) TO
 14805									;JUMPA X (X IS THE ADDRESS OF THE FIRST INSTRUCTION
 14806									;IN THE SUBTEST) TO LOOP ON ERROR^
 14807
 14808					;*****     FAILURE ANALYSIS     *****
 14809					;C(AC0)		C(AC1)		FAILING SIGNAL
 14810
 14811					;				SW: FCE
 14812					;				FC: PC CHANGE
 14813
 14814					;**********
DFKAA PDP-10 KL10 BASIC INSTRUCTION DIAGNOSTIC (1) VER 0,2	MACRO %53B(1254)-4 11:50 11-Nov-24 Page 22
DFKAA2	MAC	13-Jan-89 10:22		TEST OF COMPARE (CAMX) INSTRUCTIONS

 14815			001600		SN=1600
 14816			000000			ZZ=0
 14817
 14818					B1600:	REPEAT	^D18,<
 14819					;THIS TEST VERIFIES THAT CAMN SKIPS THE NEXT SEQUENTIAL INSTRUCTION WHEN AND ONLY
 14820					;WHEN C(AC) IS NOT EQUAL TO C(E).  IT ALSO VERIFIES THAT CAME
 14821					;SKIPS THE NEXT SEQUENTIAL INSTRUCTION WHEN AND ONLY WHEN
 14822					;C(AC)=C(E).  IN BOTH CASES AC=E;  HENCE, C(AC)=C(E)
 14823					;IF EITHER CAMN OR CAME FAILS, THE PROGRAM HALTS
 14824					;THIS TEST IS REPEATED 36 TIMES IN ORDER TO FLOAT A 1 THRU ALL 36 BITS
 14825
 14826					SN=SN+1
 14827						ZZ=ZZ+ZZ
 14828						IFE	ZZ,<ZZ=1>
 14829						MOVE	[XWD ZZ]	;PRELOAD AC,E WITH A FLOATING 1
 14830						CAMN			;*CAMN SHOLD NOT SKIP BECAUSE C(AC)=C(E)
 14831						CAME			;*CAME SHOULD SKIP BECAUSE C(AC)=C(E)
 14832						STOP
 14833
 14834					;*****     FAILURE ANALYSIS     *****
 14835					;C(AC0)		C(AC1)		FAILING SIGNAL
 14836
 14837					;				ET0: COND P
 14838
 14839					;**********
 14840					>
 14841
 14842					;THIS TEST VERIFIES THAT CAMN SKIPS THE NEXT SEQUENTIAL INSTRUCTION WHEN AND ONLY
 14843					;WHEN C(AC) IS NOT EQUAL TO C(E).  IT ALSO VERIFIES THAT CAME
 14844					;SKIPS THE NEXT SEQUENTIAL INSTRUCTION WHEN AND ONLY WHEN
 14845					;C(AC)=C(E).  IN BOTH CASES AC=E;  HENCE, C(AC)=C(E)
 14846					;IF EITHER CAMN OR CAME FAILS, THE PROGRAM HALTS
 14847					;THIS TEST IS REPEATED 36 TIMES IN ORDER TO FLOAT A 1 THRU ALL 36 BITS
 14848
 14849			001601		SN=SN+1
 14850			000000			ZZ=ZZ+ZZ
 14851			000001			IFE	ZZ,<ZZ=1>
 14852	037517	200 00 0 00 070265 		MOVE	[XWD ZZ]	;PRELOAD AC,E WITH A FLOATING 1
 14853	037520	316 00 0 00 000000 		CAMN			;*CAMN SHOLD NOT SKIP BECAUSE C(AC)=C(E)
 14854	037521	312 00 0 00 000000 		CAME			;*CAME SHOULD SKIP BECAUSE C(AC)=C(E)
 14855						STOP^
 14856	037522	254 04 0 00 037523 		HALT	.+1		;TEST FAILED IF PROGRAM HALTS HERE
 14857	037523	324 00 0 00 037524 		JUMPA	.+1		;IF TEST FAILS, CHANGE THIS INSTRUCTION (JUMPA .+1) TO
 14858									;JUMPA X (X IS THE ADDRESS OF THE FIRST INSTRUCTION
 14859									;IN THE SUBTEST) TO LOOP ON ERROR^
 14860
 14861					;*****     FAILURE ANALYSIS     *****
 14862					;C(AC0)		C(AC1)		FAILING SIGNAL
 14863
 14864					;				ET0: COND P
 14865
 14866					;**********
 14867
 14868
 14869					;THIS TEST VERIFIES THAT CAMN SKIPS THE NEXT SEQUENTIAL INSTRUCTION WHEN AND ONLY
DFKAA PDP-10 KL10 BASIC INSTRUCTION DIAGNOSTIC (1) VER 0,2	MACRO %53B(1254)-4 11:50 11-Nov-24 Page 22-1
DFKAA2	MAC	13-Jan-89 10:22		TEST OF COMPARE (CAMX) INSTRUCTIONS

 14870					;WHEN C(AC) IS NOT EQUAL TO C(E).  IT ALSO VERIFIES THAT CAME
 14871					;SKIPS THE NEXT SEQUENTIAL INSTRUCTION WHEN AND ONLY WHEN
 14872					;C(AC)=C(E).  IN BOTH CASES AC=E;  HENCE, C(AC)=C(E)
 14873					;IF EITHER CAMN OR CAME FAILS, THE PROGRAM HALTS
 14874					;THIS TEST IS REPEATED 36 TIMES IN ORDER TO FLOAT A 1 THRU ALL 36 BITS
 14875
 14876			001602		SN=SN+1
 14877			000002			ZZ=ZZ+ZZ
 14878						IFE	ZZ,<ZZ=1>
 14879	037524	200 00 0 00 070266 		MOVE	[XWD ZZ]	;PRELOAD AC,E WITH A FLOATING 1
 14880	037525	316 00 0 00 000000 		CAMN			;*CAMN SHOLD NOT SKIP BECAUSE C(AC)=C(E)
 14881	037526	312 00 0 00 000000 		CAME			;*CAME SHOULD SKIP BECAUSE C(AC)=C(E)
 14882						STOP^
 14883	037527	254 04 0 00 037530 		HALT	.+1		;TEST FAILED IF PROGRAM HALTS HERE
 14884	037530	324 00 0 00 037531 		JUMPA	.+1		;IF TEST FAILS, CHANGE THIS INSTRUCTION (JUMPA .+1) TO
 14885									;JUMPA X (X IS THE ADDRESS OF THE FIRST INSTRUCTION
 14886									;IN THE SUBTEST) TO LOOP ON ERROR^
 14887
 14888					;*****     FAILURE ANALYSIS     *****
 14889					;C(AC0)		C(AC1)		FAILING SIGNAL
 14890
 14891					;				ET0: COND P
 14892
 14893					;**********
 14894
 14895
 14896					;THIS TEST VERIFIES THAT CAMN SKIPS THE NEXT SEQUENTIAL INSTRUCTION WHEN AND ONLY
 14897					;WHEN C(AC) IS NOT EQUAL TO C(E).  IT ALSO VERIFIES THAT CAME
 14898					;SKIPS THE NEXT SEQUENTIAL INSTRUCTION WHEN AND ONLY WHEN
 14899					;C(AC)=C(E).  IN BOTH CASES AC=E;  HENCE, C(AC)=C(E)
 14900					;IF EITHER CAMN OR CAME FAILS, THE PROGRAM HALTS
 14901					;THIS TEST IS REPEATED 36 TIMES IN ORDER TO FLOAT A 1 THRU ALL 36 BITS
 14902
 14903			001603		SN=SN+1
 14904			000004			ZZ=ZZ+ZZ
 14905						IFE	ZZ,<ZZ=1>
 14906	037531	200 00 0 00 070267 		MOVE	[XWD ZZ]	;PRELOAD AC,E WITH A FLOATING 1
 14907	037532	316 00 0 00 000000 		CAMN			;*CAMN SHOLD NOT SKIP BECAUSE C(AC)=C(E)
 14908	037533	312 00 0 00 000000 		CAME			;*CAME SHOULD SKIP BECAUSE C(AC)=C(E)
 14909						STOP^
 14910	037534	254 04 0 00 037535 		HALT	.+1		;TEST FAILED IF PROGRAM HALTS HERE
 14911	037535	324 00 0 00 037536 		JUMPA	.+1		;IF TEST FAILS, CHANGE THIS INSTRUCTION (JUMPA .+1) TO
 14912									;JUMPA X (X IS THE ADDRESS OF THE FIRST INSTRUCTION
 14913									;IN THE SUBTEST) TO LOOP ON ERROR^
 14914
 14915					;*****     FAILURE ANALYSIS     *****
 14916					;C(AC0)		C(AC1)		FAILING SIGNAL
 14917
 14918					;				ET0: COND P
 14919
 14920					;**********
 14921
 14922
 14923					;THIS TEST VERIFIES THAT CAMN SKIPS THE NEXT SEQUENTIAL INSTRUCTION WHEN AND ONLY
 14924					;WHEN C(AC) IS NOT EQUAL TO C(E).  IT ALSO VERIFIES THAT CAME
DFKAA PDP-10 KL10 BASIC INSTRUCTION DIAGNOSTIC (1) VER 0,2	MACRO %53B(1254)-4 11:50 11-Nov-24 Page 22-2
DFKAA2	MAC	13-Jan-89 10:22		TEST OF COMPARE (CAMX) INSTRUCTIONS

 14925					;SKIPS THE NEXT SEQUENTIAL INSTRUCTION WHEN AND ONLY WHEN
 14926					;C(AC)=C(E).  IN BOTH CASES AC=E;  HENCE, C(AC)=C(E)
 14927					;IF EITHER CAMN OR CAME FAILS, THE PROGRAM HALTS
 14928					;THIS TEST IS REPEATED 36 TIMES IN ORDER TO FLOAT A 1 THRU ALL 36 BITS
 14929
 14930			001604		SN=SN+1
 14931			000010			ZZ=ZZ+ZZ
 14932						IFE	ZZ,<ZZ=1>
 14933	037536	200 00 0 00 070270 		MOVE	[XWD ZZ]	;PRELOAD AC,E WITH A FLOATING 1
 14934	037537	316 00 0 00 000000 		CAMN			;*CAMN SHOLD NOT SKIP BECAUSE C(AC)=C(E)
 14935	037540	312 00 0 00 000000 		CAME			;*CAME SHOULD SKIP BECAUSE C(AC)=C(E)
 14936						STOP^
 14937	037541	254 04 0 00 037542 		HALT	.+1		;TEST FAILED IF PROGRAM HALTS HERE
 14938	037542	324 00 0 00 037543 		JUMPA	.+1		;IF TEST FAILS, CHANGE THIS INSTRUCTION (JUMPA .+1) TO
 14939									;JUMPA X (X IS THE ADDRESS OF THE FIRST INSTRUCTION
 14940									;IN THE SUBTEST) TO LOOP ON ERROR^
 14941
 14942					;*****     FAILURE ANALYSIS     *****
 14943					;C(AC0)		C(AC1)		FAILING SIGNAL
 14944
 14945					;				ET0: COND P
 14946
 14947					;**********
 14948
 14949
 14950					;THIS TEST VERIFIES THAT CAMN SKIPS THE NEXT SEQUENTIAL INSTRUCTION WHEN AND ONLY
 14951					;WHEN C(AC) IS NOT EQUAL TO C(E).  IT ALSO VERIFIES THAT CAME
 14952					;SKIPS THE NEXT SEQUENTIAL INSTRUCTION WHEN AND ONLY WHEN
 14953					;C(AC)=C(E).  IN BOTH CASES AC=E;  HENCE, C(AC)=C(E)
 14954					;IF EITHER CAMN OR CAME FAILS, THE PROGRAM HALTS
 14955					;THIS TEST IS REPEATED 36 TIMES IN ORDER TO FLOAT A 1 THRU ALL 36 BITS
 14956
 14957			001605		SN=SN+1
 14958			000020			ZZ=ZZ+ZZ
 14959						IFE	ZZ,<ZZ=1>
 14960	037543	200 00 0 00 070271 		MOVE	[XWD ZZ]	;PRELOAD AC,E WITH A FLOATING 1
 14961	037544	316 00 0 00 000000 		CAMN			;*CAMN SHOLD NOT SKIP BECAUSE C(AC)=C(E)
 14962	037545	312 00 0 00 000000 		CAME			;*CAME SHOULD SKIP BECAUSE C(AC)=C(E)
 14963						STOP^
 14964	037546	254 04 0 00 037547 		HALT	.+1		;TEST FAILED IF PROGRAM HALTS HERE
 14965	037547	324 00 0 00 037550 		JUMPA	.+1		;IF TEST FAILS, CHANGE THIS INSTRUCTION (JUMPA .+1) TO
 14966									;JUMPA X (X IS THE ADDRESS OF THE FIRST INSTRUCTION
 14967									;IN THE SUBTEST) TO LOOP ON ERROR^
 14968
 14969					;*****     FAILURE ANALYSIS     *****
 14970					;C(AC0)		C(AC1)		FAILING SIGNAL
 14971
 14972					;				ET0: COND P
 14973
 14974					;**********
 14975
 14976
 14977					;THIS TEST VERIFIES THAT CAMN SKIPS THE NEXT SEQUENTIAL INSTRUCTION WHEN AND ONLY
 14978					;WHEN C(AC) IS NOT EQUAL TO C(E).  IT ALSO VERIFIES THAT CAME
 14979					;SKIPS THE NEXT SEQUENTIAL INSTRUCTION WHEN AND ONLY WHEN
DFKAA PDP-10 KL10 BASIC INSTRUCTION DIAGNOSTIC (1) VER 0,2	MACRO %53B(1254)-4 11:50 11-Nov-24 Page 22-3
DFKAA2	MAC	13-Jan-89 10:22		TEST OF COMPARE (CAMX) INSTRUCTIONS

 14980					;C(AC)=C(E).  IN BOTH CASES AC=E;  HENCE, C(AC)=C(E)
 14981					;IF EITHER CAMN OR CAME FAILS, THE PROGRAM HALTS
 14982					;THIS TEST IS REPEATED 36 TIMES IN ORDER TO FLOAT A 1 THRU ALL 36 BITS
 14983
 14984			001606		SN=SN+1
 14985			000040			ZZ=ZZ+ZZ
 14986						IFE	ZZ,<ZZ=1>
 14987	037550	200 00 0 00 070272 		MOVE	[XWD ZZ]	;PRELOAD AC,E WITH A FLOATING 1
 14988	037551	316 00 0 00 000000 		CAMN			;*CAMN SHOLD NOT SKIP BECAUSE C(AC)=C(E)
 14989	037552	312 00 0 00 000000 		CAME			;*CAME SHOULD SKIP BECAUSE C(AC)=C(E)
 14990						STOP^
 14991	037553	254 04 0 00 037554 		HALT	.+1		;TEST FAILED IF PROGRAM HALTS HERE
 14992	037554	324 00 0 00 037555 		JUMPA	.+1		;IF TEST FAILS, CHANGE THIS INSTRUCTION (JUMPA .+1) TO
 14993									;JUMPA X (X IS THE ADDRESS OF THE FIRST INSTRUCTION
 14994									;IN THE SUBTEST) TO LOOP ON ERROR^
 14995
 14996					;*****     FAILURE ANALYSIS     *****
 14997					;C(AC0)		C(AC1)		FAILING SIGNAL
 14998
 14999					;				ET0: COND P
 15000
 15001					;**********
 15002
 15003
 15004					;THIS TEST VERIFIES THAT CAMN SKIPS THE NEXT SEQUENTIAL INSTRUCTION WHEN AND ONLY
 15005					;WHEN C(AC) IS NOT EQUAL TO C(E).  IT ALSO VERIFIES THAT CAME
 15006					;SKIPS THE NEXT SEQUENTIAL INSTRUCTION WHEN AND ONLY WHEN
 15007					;C(AC)=C(E).  IN BOTH CASES AC=E;  HENCE, C(AC)=C(E)
 15008					;IF EITHER CAMN OR CAME FAILS, THE PROGRAM HALTS
 15009					;THIS TEST IS REPEATED 36 TIMES IN ORDER TO FLOAT A 1 THRU ALL 36 BITS
 15010
 15011			001607		SN=SN+1
 15012			000100			ZZ=ZZ+ZZ
 15013						IFE	ZZ,<ZZ=1>
 15014	037555	200 00 0 00 070273 		MOVE	[XWD ZZ]	;PRELOAD AC,E WITH A FLOATING 1
 15015	037556	316 00 0 00 000000 		CAMN			;*CAMN SHOLD NOT SKIP BECAUSE C(AC)=C(E)
 15016	037557	312 00 0 00 000000 		CAME			;*CAME SHOULD SKIP BECAUSE C(AC)=C(E)
 15017						STOP^
 15018	037560	254 04 0 00 037561 		HALT	.+1		;TEST FAILED IF PROGRAM HALTS HERE
 15019	037561	324 00 0 00 037562 		JUMPA	.+1		;IF TEST FAILS, CHANGE THIS INSTRUCTION (JUMPA .+1) TO
 15020									;JUMPA X (X IS THE ADDRESS OF THE FIRST INSTRUCTION
 15021									;IN THE SUBTEST) TO LOOP ON ERROR^
 15022
 15023					;*****     FAILURE ANALYSIS     *****
 15024					;C(AC0)		C(AC1)		FAILING SIGNAL
 15025
 15026					;				ET0: COND P
 15027
 15028					;**********
 15029
 15030
 15031					;THIS TEST VERIFIES THAT CAMN SKIPS THE NEXT SEQUENTIAL INSTRUCTION WHEN AND ONLY
 15032					;WHEN C(AC) IS NOT EQUAL TO C(E).  IT ALSO VERIFIES THAT CAME
 15033					;SKIPS THE NEXT SEQUENTIAL INSTRUCTION WHEN AND ONLY WHEN
 15034					;C(AC)=C(E).  IN BOTH CASES AC=E;  HENCE, C(AC)=C(E)
DFKAA PDP-10 KL10 BASIC INSTRUCTION DIAGNOSTIC (1) VER 0,2	MACRO %53B(1254)-4 11:50 11-Nov-24 Page 22-4
DFKAA2	MAC	13-Jan-89 10:22		TEST OF COMPARE (CAMX) INSTRUCTIONS

 15035					;IF EITHER CAMN OR CAME FAILS, THE PROGRAM HALTS
 15036					;THIS TEST IS REPEATED 36 TIMES IN ORDER TO FLOAT A 1 THRU ALL 36 BITS
 15037
 15038			001610		SN=SN+1
 15039			000200			ZZ=ZZ+ZZ
 15040						IFE	ZZ,<ZZ=1>
 15041	037562	200 00 0 00 070274 		MOVE	[XWD ZZ]	;PRELOAD AC,E WITH A FLOATING 1
 15042	037563	316 00 0 00 000000 		CAMN			;*CAMN SHOLD NOT SKIP BECAUSE C(AC)=C(E)
 15043	037564	312 00 0 00 000000 		CAME			;*CAME SHOULD SKIP BECAUSE C(AC)=C(E)
 15044						STOP^
 15045	037565	254 04 0 00 037566 		HALT	.+1		;TEST FAILED IF PROGRAM HALTS HERE
 15046	037566	324 00 0 00 037567 		JUMPA	.+1		;IF TEST FAILS, CHANGE THIS INSTRUCTION (JUMPA .+1) TO
 15047									;JUMPA X (X IS THE ADDRESS OF THE FIRST INSTRUCTION
 15048									;IN THE SUBTEST) TO LOOP ON ERROR^
 15049
 15050					;*****     FAILURE ANALYSIS     *****
 15051					;C(AC0)		C(AC1)		FAILING SIGNAL
 15052
 15053					;				ET0: COND P
 15054
 15055					;**********
 15056
 15057
 15058					;THIS TEST VERIFIES THAT CAMN SKIPS THE NEXT SEQUENTIAL INSTRUCTION WHEN AND ONLY
 15059					;WHEN C(AC) IS NOT EQUAL TO C(E).  IT ALSO VERIFIES THAT CAME
 15060					;SKIPS THE NEXT SEQUENTIAL INSTRUCTION WHEN AND ONLY WHEN
 15061					;C(AC)=C(E).  IN BOTH CASES AC=E;  HENCE, C(AC)=C(E)
 15062					;IF EITHER CAMN OR CAME FAILS, THE PROGRAM HALTS
 15063					;THIS TEST IS REPEATED 36 TIMES IN ORDER TO FLOAT A 1 THRU ALL 36 BITS
 15064
 15065			001611		SN=SN+1
 15066			000400			ZZ=ZZ+ZZ
 15067						IFE	ZZ,<ZZ=1>
 15068	037567	200 00 0 00 070275 		MOVE	[XWD ZZ]	;PRELOAD AC,E WITH A FLOATING 1
 15069	037570	316 00 0 00 000000 		CAMN			;*CAMN SHOLD NOT SKIP BECAUSE C(AC)=C(E)
 15070	037571	312 00 0 00 000000 		CAME			;*CAME SHOULD SKIP BECAUSE C(AC)=C(E)
 15071						STOP^
 15072	037572	254 04 0 00 037573 		HALT	.+1		;TEST FAILED IF PROGRAM HALTS HERE
 15073	037573	324 00 0 00 037574 		JUMPA	.+1		;IF TEST FAILS, CHANGE THIS INSTRUCTION (JUMPA .+1) TO
 15074									;JUMPA X (X IS THE ADDRESS OF THE FIRST INSTRUCTION
 15075									;IN THE SUBTEST) TO LOOP ON ERROR^
 15076
 15077					;*****     FAILURE ANALYSIS     *****
 15078					;C(AC0)		C(AC1)		FAILING SIGNAL
 15079
 15080					;				ET0: COND P
 15081
 15082					;**********
 15083
 15084
 15085					;THIS TEST VERIFIES THAT CAMN SKIPS THE NEXT SEQUENTIAL INSTRUCTION WHEN AND ONLY
 15086					;WHEN C(AC) IS NOT EQUAL TO C(E).  IT ALSO VERIFIES THAT CAME
 15087					;SKIPS THE NEXT SEQUENTIAL INSTRUCTION WHEN AND ONLY WHEN
 15088					;C(AC)=C(E).  IN BOTH CASES AC=E;  HENCE, C(AC)=C(E)
 15089					;IF EITHER CAMN OR CAME FAILS, THE PROGRAM HALTS
DFKAA PDP-10 KL10 BASIC INSTRUCTION DIAGNOSTIC (1) VER 0,2	MACRO %53B(1254)-4 11:50 11-Nov-24 Page 22-5
DFKAA2	MAC	13-Jan-89 10:22		TEST OF COMPARE (CAMX) INSTRUCTIONS

 15090					;THIS TEST IS REPEATED 36 TIMES IN ORDER TO FLOAT A 1 THRU ALL 36 BITS
 15091
 15092			001612		SN=SN+1
 15093			001000			ZZ=ZZ+ZZ
 15094						IFE	ZZ,<ZZ=1>
 15095	037574	200 00 0 00 070276 		MOVE	[XWD ZZ]	;PRELOAD AC,E WITH A FLOATING 1
 15096	037575	316 00 0 00 000000 		CAMN			;*CAMN SHOLD NOT SKIP BECAUSE C(AC)=C(E)
 15097	037576	312 00 0 00 000000 		CAME			;*CAME SHOULD SKIP BECAUSE C(AC)=C(E)
 15098						STOP^
 15099	037577	254 04 0 00 037600 		HALT	.+1		;TEST FAILED IF PROGRAM HALTS HERE
 15100	037600	324 00 0 00 037601 		JUMPA	.+1		;IF TEST FAILS, CHANGE THIS INSTRUCTION (JUMPA .+1) TO
 15101									;JUMPA X (X IS THE ADDRESS OF THE FIRST INSTRUCTION
 15102									;IN THE SUBTEST) TO LOOP ON ERROR^
 15103
 15104					;*****     FAILURE ANALYSIS     *****
 15105					;C(AC0)		C(AC1)		FAILING SIGNAL
 15106
 15107					;				ET0: COND P
 15108
 15109					;**********
 15110
 15111
 15112					;THIS TEST VERIFIES THAT CAMN SKIPS THE NEXT SEQUENTIAL INSTRUCTION WHEN AND ONLY
 15113					;WHEN C(AC) IS NOT EQUAL TO C(E).  IT ALSO VERIFIES THAT CAME
 15114					;SKIPS THE NEXT SEQUENTIAL INSTRUCTION WHEN AND ONLY WHEN
 15115					;C(AC)=C(E).  IN BOTH CASES AC=E;  HENCE, C(AC)=C(E)
 15116					;IF EITHER CAMN OR CAME FAILS, THE PROGRAM HALTS
 15117					;THIS TEST IS REPEATED 36 TIMES IN ORDER TO FLOAT A 1 THRU ALL 36 BITS
 15118
 15119			001613		SN=SN+1
 15120			002000			ZZ=ZZ+ZZ
 15121						IFE	ZZ,<ZZ=1>
 15122	037601	200 00 0 00 070277 		MOVE	[XWD ZZ]	;PRELOAD AC,E WITH A FLOATING 1
 15123	037602	316 00 0 00 000000 		CAMN			;*CAMN SHOLD NOT SKIP BECAUSE C(AC)=C(E)
 15124	037603	312 00 0 00 000000 		CAME			;*CAME SHOULD SKIP BECAUSE C(AC)=C(E)
 15125						STOP^
 15126	037604	254 04 0 00 037605 		HALT	.+1		;TEST FAILED IF PROGRAM HALTS HERE
 15127	037605	324 00 0 00 037606 		JUMPA	.+1		;IF TEST FAILS, CHANGE THIS INSTRUCTION (JUMPA .+1) TO
 15128									;JUMPA X (X IS THE ADDRESS OF THE FIRST INSTRUCTION
 15129									;IN THE SUBTEST) TO LOOP ON ERROR^
 15130
 15131					;*****     FAILURE ANALYSIS     *****
 15132					;C(AC0)		C(AC1)		FAILING SIGNAL
 15133
 15134					;				ET0: COND P
 15135
 15136					;**********
 15137
 15138
 15139					;THIS TEST VERIFIES THAT CAMN SKIPS THE NEXT SEQUENTIAL INSTRUCTION WHEN AND ONLY
 15140					;WHEN C(AC) IS NOT EQUAL TO C(E).  IT ALSO VERIFIES THAT CAME
 15141					;SKIPS THE NEXT SEQUENTIAL INSTRUCTION WHEN AND ONLY WHEN
 15142					;C(AC)=C(E).  IN BOTH CASES AC=E;  HENCE, C(AC)=C(E)
 15143					;IF EITHER CAMN OR CAME FAILS, THE PROGRAM HALTS
 15144					;THIS TEST IS REPEATED 36 TIMES IN ORDER TO FLOAT A 1 THRU ALL 36 BITS
DFKAA PDP-10 KL10 BASIC INSTRUCTION DIAGNOSTIC (1) VER 0,2	MACRO %53B(1254)-4 11:50 11-Nov-24 Page 22-6
DFKAA2	MAC	13-Jan-89 10:22		TEST OF COMPARE (CAMX) INSTRUCTIONS

 15145
 15146			001614		SN=SN+1
 15147			004000			ZZ=ZZ+ZZ
 15148						IFE	ZZ,<ZZ=1>
 15149	037606	200 00 0 00 070300 		MOVE	[XWD ZZ]	;PRELOAD AC,E WITH A FLOATING 1
 15150	037607	316 00 0 00 000000 		CAMN			;*CAMN SHOLD NOT SKIP BECAUSE C(AC)=C(E)
 15151	037610	312 00 0 00 000000 		CAME			;*CAME SHOULD SKIP BECAUSE C(AC)=C(E)
 15152						STOP^
 15153	037611	254 04 0 00 037612 		HALT	.+1		;TEST FAILED IF PROGRAM HALTS HERE
 15154	037612	324 00 0 00 037613 		JUMPA	.+1		;IF TEST FAILS, CHANGE THIS INSTRUCTION (JUMPA .+1) TO
 15155									;JUMPA X (X IS THE ADDRESS OF THE FIRST INSTRUCTION
 15156									;IN THE SUBTEST) TO LOOP ON ERROR^
 15157
 15158					;*****     FAILURE ANALYSIS     *****
 15159					;C(AC0)		C(AC1)		FAILING SIGNAL
 15160
 15161					;				ET0: COND P
 15162
 15163					;**********
 15164
 15165
 15166					;THIS TEST VERIFIES THAT CAMN SKIPS THE NEXT SEQUENTIAL INSTRUCTION WHEN AND ONLY
 15167					;WHEN C(AC) IS NOT EQUAL TO C(E).  IT ALSO VERIFIES THAT CAME
 15168					;SKIPS THE NEXT SEQUENTIAL INSTRUCTION WHEN AND ONLY WHEN
 15169					;C(AC)=C(E).  IN BOTH CASES AC=E;  HENCE, C(AC)=C(E)
 15170					;IF EITHER CAMN OR CAME FAILS, THE PROGRAM HALTS
 15171					;THIS TEST IS REPEATED 36 TIMES IN ORDER TO FLOAT A 1 THRU ALL 36 BITS
 15172
 15173			001615		SN=SN+1
 15174			010000			ZZ=ZZ+ZZ
 15175						IFE	ZZ,<ZZ=1>
 15176	037613	200 00 0 00 070301 		MOVE	[XWD ZZ]	;PRELOAD AC,E WITH A FLOATING 1
 15177	037614	316 00 0 00 000000 		CAMN			;*CAMN SHOLD NOT SKIP BECAUSE C(AC)=C(E)
 15178	037615	312 00 0 00 000000 		CAME			;*CAME SHOULD SKIP BECAUSE C(AC)=C(E)
 15179						STOP^
 15180	037616	254 04 0 00 037617 		HALT	.+1		;TEST FAILED IF PROGRAM HALTS HERE
 15181	037617	324 00 0 00 037620 		JUMPA	.+1		;IF TEST FAILS, CHANGE THIS INSTRUCTION (JUMPA .+1) TO
 15182									;JUMPA X (X IS THE ADDRESS OF THE FIRST INSTRUCTION
 15183									;IN THE SUBTEST) TO LOOP ON ERROR^
 15184
 15185					;*****     FAILURE ANALYSIS     *****
 15186					;C(AC0)		C(AC1)		FAILING SIGNAL
 15187
 15188					;				ET0: COND P
 15189
 15190					;**********
 15191
 15192
 15193					;THIS TEST VERIFIES THAT CAMN SKIPS THE NEXT SEQUENTIAL INSTRUCTION WHEN AND ONLY
 15194					;WHEN C(AC) IS NOT EQUAL TO C(E).  IT ALSO VERIFIES THAT CAME
 15195					;SKIPS THE NEXT SEQUENTIAL INSTRUCTION WHEN AND ONLY WHEN
 15196					;C(AC)=C(E).  IN BOTH CASES AC=E;  HENCE, C(AC)=C(E)
 15197					;IF EITHER CAMN OR CAME FAILS, THE PROGRAM HALTS
 15198					;THIS TEST IS REPEATED 36 TIMES IN ORDER TO FLOAT A 1 THRU ALL 36 BITS
 15199
DFKAA PDP-10 KL10 BASIC INSTRUCTION DIAGNOSTIC (1) VER 0,2	MACRO %53B(1254)-4 11:50 11-Nov-24 Page 22-7
DFKAA2	MAC	13-Jan-89 10:22		TEST OF COMPARE (CAMX) INSTRUCTIONS

 15200			001616		SN=SN+1
 15201			020000			ZZ=ZZ+ZZ
 15202						IFE	ZZ,<ZZ=1>
 15203	037620	200 00 0 00 070302 		MOVE	[XWD ZZ]	;PRELOAD AC,E WITH A FLOATING 1
 15204	037621	316 00 0 00 000000 		CAMN			;*CAMN SHOLD NOT SKIP BECAUSE C(AC)=C(E)
 15205	037622	312 00 0 00 000000 		CAME			;*CAME SHOULD SKIP BECAUSE C(AC)=C(E)
 15206						STOP^
 15207	037623	254 04 0 00 037624 		HALT	.+1		;TEST FAILED IF PROGRAM HALTS HERE
 15208	037624	324 00 0 00 037625 		JUMPA	.+1		;IF TEST FAILS, CHANGE THIS INSTRUCTION (JUMPA .+1) TO
 15209									;JUMPA X (X IS THE ADDRESS OF THE FIRST INSTRUCTION
 15210									;IN THE SUBTEST) TO LOOP ON ERROR^
 15211
 15212					;*****     FAILURE ANALYSIS     *****
 15213					;C(AC0)		C(AC1)		FAILING SIGNAL
 15214
 15215					;				ET0: COND P
 15216
 15217					;**********
 15218
 15219
 15220					;THIS TEST VERIFIES THAT CAMN SKIPS THE NEXT SEQUENTIAL INSTRUCTION WHEN AND ONLY
 15221					;WHEN C(AC) IS NOT EQUAL TO C(E).  IT ALSO VERIFIES THAT CAME
 15222					;SKIPS THE NEXT SEQUENTIAL INSTRUCTION WHEN AND ONLY WHEN
 15223					;C(AC)=C(E).  IN BOTH CASES AC=E;  HENCE, C(AC)=C(E)
 15224					;IF EITHER CAMN OR CAME FAILS, THE PROGRAM HALTS
 15225					;THIS TEST IS REPEATED 36 TIMES IN ORDER TO FLOAT A 1 THRU ALL 36 BITS
 15226
 15227			001617		SN=SN+1
 15228			040000			ZZ=ZZ+ZZ
 15229						IFE	ZZ,<ZZ=1>
 15230	037625	200 00 0 00 070303 		MOVE	[XWD ZZ]	;PRELOAD AC,E WITH A FLOATING 1
 15231	037626	316 00 0 00 000000 		CAMN			;*CAMN SHOLD NOT SKIP BECAUSE C(AC)=C(E)
 15232	037627	312 00 0 00 000000 		CAME			;*CAME SHOULD SKIP BECAUSE C(AC)=C(E)
 15233						STOP^
 15234	037630	254 04 0 00 037631 		HALT	.+1		;TEST FAILED IF PROGRAM HALTS HERE
 15235	037631	324 00 0 00 037632 		JUMPA	.+1		;IF TEST FAILS, CHANGE THIS INSTRUCTION (JUMPA .+1) TO
 15236									;JUMPA X (X IS THE ADDRESS OF THE FIRST INSTRUCTION
 15237									;IN THE SUBTEST) TO LOOP ON ERROR^
 15238
 15239					;*****     FAILURE ANALYSIS     *****
 15240					;C(AC0)		C(AC1)		FAILING SIGNAL
 15241
 15242					;				ET0: COND P
 15243
 15244					;**********
 15245
 15246
 15247					;THIS TEST VERIFIES THAT CAMN SKIPS THE NEXT SEQUENTIAL INSTRUCTION WHEN AND ONLY
 15248					;WHEN C(AC) IS NOT EQUAL TO C(E).  IT ALSO VERIFIES THAT CAME
 15249					;SKIPS THE NEXT SEQUENTIAL INSTRUCTION WHEN AND ONLY WHEN
 15250					;C(AC)=C(E).  IN BOTH CASES AC=E;  HENCE, C(AC)=C(E)
 15251					;IF EITHER CAMN OR CAME FAILS, THE PROGRAM HALTS
 15252					;THIS TEST IS REPEATED 36 TIMES IN ORDER TO FLOAT A 1 THRU ALL 36 BITS
 15253
 15254			001620		SN=SN+1
DFKAA PDP-10 KL10 BASIC INSTRUCTION DIAGNOSTIC (1) VER 0,2	MACRO %53B(1254)-4 11:50 11-Nov-24 Page 22-8
DFKAA2	MAC	13-Jan-89 10:22		TEST OF COMPARE (CAMX) INSTRUCTIONS

 15255			100000			ZZ=ZZ+ZZ
 15256						IFE	ZZ,<ZZ=1>
 15257	037632	200 00 0 00 070304 		MOVE	[XWD ZZ]	;PRELOAD AC,E WITH A FLOATING 1
 15258	037633	316 00 0 00 000000 		CAMN			;*CAMN SHOLD NOT SKIP BECAUSE C(AC)=C(E)
 15259	037634	312 00 0 00 000000 		CAME			;*CAME SHOULD SKIP BECAUSE C(AC)=C(E)
 15260						STOP^
 15261	037635	254 04 0 00 037636 		HALT	.+1		;TEST FAILED IF PROGRAM HALTS HERE
 15262	037636	324 00 0 00 037637 		JUMPA	.+1		;IF TEST FAILS, CHANGE THIS INSTRUCTION (JUMPA .+1) TO
 15263									;JUMPA X (X IS THE ADDRESS OF THE FIRST INSTRUCTION
 15264									;IN THE SUBTEST) TO LOOP ON ERROR^
 15265
 15266					;*****     FAILURE ANALYSIS     *****
 15267					;C(AC0)		C(AC1)		FAILING SIGNAL
 15268
 15269					;				ET0: COND P
 15270
 15271					;**********
 15272
 15273
 15274					;THIS TEST VERIFIES THAT CAMN SKIPS THE NEXT SEQUENTIAL INSTRUCTION WHEN AND ONLY
 15275					;WHEN C(AC) IS NOT EQUAL TO C(E).  IT ALSO VERIFIES THAT CAME
 15276					;SKIPS THE NEXT SEQUENTIAL INSTRUCTION WHEN AND ONLY WHEN
 15277					;C(AC)=C(E).  IN BOTH CASES AC=E;  HENCE, C(AC)=C(E)
 15278					;IF EITHER CAMN OR CAME FAILS, THE PROGRAM HALTS
 15279					;THIS TEST IS REPEATED 36 TIMES IN ORDER TO FLOAT A 1 THRU ALL 36 BITS
 15280
 15281			001621		SN=SN+1
 15282			200000			ZZ=ZZ+ZZ
 15283						IFE	ZZ,<ZZ=1>
 15284	037637	200 00 0 00 070305 		MOVE	[XWD ZZ]	;PRELOAD AC,E WITH A FLOATING 1
 15285	037640	316 00 0 00 000000 		CAMN			;*CAMN SHOLD NOT SKIP BECAUSE C(AC)=C(E)
 15286	037641	312 00 0 00 000000 		CAME			;*CAME SHOULD SKIP BECAUSE C(AC)=C(E)
 15287						STOP^
 15288	037642	254 04 0 00 037643 		HALT	.+1		;TEST FAILED IF PROGRAM HALTS HERE
 15289	037643	324 00 0 00 037644 		JUMPA	.+1		;IF TEST FAILS, CHANGE THIS INSTRUCTION (JUMPA .+1) TO
 15290									;JUMPA X (X IS THE ADDRESS OF THE FIRST INSTRUCTION
 15291									;IN THE SUBTEST) TO LOOP ON ERROR^
 15292
 15293					;*****     FAILURE ANALYSIS     *****
 15294					;C(AC0)		C(AC1)		FAILING SIGNAL
 15295
 15296					;				ET0: COND P
 15297
 15298					;**********
 15299
 15300
 15301					;THIS TEST VERIFIES THAT CAMN SKIPS THE NEXT SEQUENTIAL INSTRUCTION WHEN AND ONLY
 15302					;WHEN C(AC) IS NOT EQUAL TO C(E).  IT ALSO VERIFIES THAT CAME
 15303					;SKIPS THE NEXT SEQUENTIAL INSTRUCTION WHEN AND ONLY WHEN
 15304					;C(AC)=C(E).  IN BOTH CASES AC=E;  HENCE, C(AC)=C(E)
 15305					;IF EITHER CAMN OR CAME FAILS, THE PROGRAM HALTS
 15306					;THIS TEST IS REPEATED 36 TIMES IN ORDER TO FLOAT A 1 THRU ALL 36 BITS
 15307
 15308			001622		SN=SN+1
 15309			400000			ZZ=ZZ+ZZ
DFKAA PDP-10 KL10 BASIC INSTRUCTION DIAGNOSTIC (1) VER 0,2	MACRO %53B(1254)-4 11:50 11-Nov-24 Page 22-9
DFKAA2	MAC	13-Jan-89 10:22		TEST OF COMPARE (CAMX) INSTRUCTIONS

 15310						IFE	ZZ,<ZZ=1>
 15311	037644	200 00 0 00 070306 		MOVE	[XWD ZZ]	;PRELOAD AC,E WITH A FLOATING 1
 15312	037645	316 00 0 00 000000 		CAMN			;*CAMN SHOLD NOT SKIP BECAUSE C(AC)=C(E)
 15313	037646	312 00 0 00 000000 		CAME			;*CAME SHOULD SKIP BECAUSE C(AC)=C(E)
 15314						STOP^
 15315	037647	254 04 0 00 037650 		HALT	.+1		;TEST FAILED IF PROGRAM HALTS HERE
 15316	037650	324 00 0 00 037651 		JUMPA	.+1		;IF TEST FAILS, CHANGE THIS INSTRUCTION (JUMPA .+1) TO
 15317									;JUMPA X (X IS THE ADDRESS OF THE FIRST INSTRUCTION
 15318									;IN THE SUBTEST) TO LOOP ON ERROR^
 15319
 15320					;*****     FAILURE ANALYSIS     *****
 15321					;C(AC0)		C(AC1)		FAILING SIGNAL
 15322
 15323					;				ET0: COND P
 15324
 15325					;**********
 15326
DFKAA PDP-10 KL10 BASIC INSTRUCTION DIAGNOSTIC (1) VER 0,2	MACRO %53B(1254)-4 11:50 11-Nov-24 Page 23
DFKAA2	MAC	13-Jan-89 10:22		TEST OF COMPARE (CAMX) INSTRUCTIONS

 15327			000000			ZZ=0
 15328
 15329						REPEAT	^D18,<
 15330					;THIS TEST VERIFIES THAT CAMN SKIPS THE NEXT SEQUENTIAL INSTRUCTION WHEN AND ONLY
 15331					;WHEN C(AC) IS NOT EQUAL TO C(E).  IT ALSO VERIFIES THAT CAME
 15332					;SKIPS THE NEXT SEQUENTIAL INSTRUCTION WHEN AND ONLY WHEN
 15333					;C(AC)=C(E).  IN BOTH CASES AC=E;  HENCE, C(AC)=C(E)
 15334					;IF EITHER CAMN OR CAME FAILS, THE PROGRAM HALTS
 15335					;THIS TEST IS REPEATED 36 TIMES IN ORDER TO FLOAT A 1 THRU ALL 36 BITS
 15336
 15337					SN=SN+1
 15338						ZZ=ZZ+ZZ
 15339						IFE	ZZ,<ZZ=1>
 15340						MOVE	[XWD ZZ,0]	;PRELOAD AC,E WITH A FLOATING 1
 15341						CAMN			;*CAMN SHOLD NOT SKIP BECAUSE C(AC)=C(E)
 15342						CAME			;*CAME SHOULD SKIP BECAUSE C(AC)=C(E)
 15343						STOP
 15344
 15345					;**********
 15346					>
 15347
 15348					;THIS TEST VERIFIES THAT CAMN SKIPS THE NEXT SEQUENTIAL INSTRUCTION WHEN AND ONLY
 15349					;WHEN C(AC) IS NOT EQUAL TO C(E).  IT ALSO VERIFIES THAT CAME
 15350					;SKIPS THE NEXT SEQUENTIAL INSTRUCTION WHEN AND ONLY WHEN
 15351					;C(AC)=C(E).  IN BOTH CASES AC=E;  HENCE, C(AC)=C(E)
 15352					;IF EITHER CAMN OR CAME FAILS, THE PROGRAM HALTS
 15353					;THIS TEST IS REPEATED 36 TIMES IN ORDER TO FLOAT A 1 THRU ALL 36 BITS
 15354
 15355			001623		SN=SN+1
 15356			000000			ZZ=ZZ+ZZ
 15357			000001			IFE	ZZ,<ZZ=1>
 15358	037651	200 00 0 00 070307 		MOVE	[XWD ZZ,0]	;PRELOAD AC,E WITH A FLOATING 1
 15359	037652	316 00 0 00 000000 		CAMN			;*CAMN SHOLD NOT SKIP BECAUSE C(AC)=C(E)
 15360	037653	312 00 0 00 000000 		CAME			;*CAME SHOULD SKIP BECAUSE C(AC)=C(E)
 15361						STOP^
 15362	037654	254 04 0 00 037655 		HALT	.+1		;TEST FAILED IF PROGRAM HALTS HERE
 15363	037655	324 00 0 00 037656 		JUMPA	.+1		;IF TEST FAILS, CHANGE THIS INSTRUCTION (JUMPA .+1) TO
 15364									;JUMPA X (X IS THE ADDRESS OF THE FIRST INSTRUCTION
 15365									;IN THE SUBTEST) TO LOOP ON ERROR^
 15366
 15367					;**********
 15368
 15369
 15370					;THIS TEST VERIFIES THAT CAMN SKIPS THE NEXT SEQUENTIAL INSTRUCTION WHEN AND ONLY
 15371					;WHEN C(AC) IS NOT EQUAL TO C(E).  IT ALSO VERIFIES THAT CAME
 15372					;SKIPS THE NEXT SEQUENTIAL INSTRUCTION WHEN AND ONLY WHEN
 15373					;C(AC)=C(E).  IN BOTH CASES AC=E;  HENCE, C(AC)=C(E)
 15374					;IF EITHER CAMN OR CAME FAILS, THE PROGRAM HALTS
 15375					;THIS TEST IS REPEATED 36 TIMES IN ORDER TO FLOAT A 1 THRU ALL 36 BITS
 15376
 15377			001624		SN=SN+1
 15378			000002			ZZ=ZZ+ZZ
 15379						IFE	ZZ,<ZZ=1>
 15380	037656	200 00 0 00 070310 		MOVE	[XWD ZZ,0]	;PRELOAD AC,E WITH A FLOATING 1
 15381	037657	316 00 0 00 000000 		CAMN			;*CAMN SHOLD NOT SKIP BECAUSE C(AC)=C(E)
DFKAA PDP-10 KL10 BASIC INSTRUCTION DIAGNOSTIC (1) VER 0,2	MACRO %53B(1254)-4 11:50 11-Nov-24 Page 23-1
DFKAA2	MAC	13-Jan-89 10:22		TEST OF COMPARE (CAMX) INSTRUCTIONS

 15382	037660	312 00 0 00 000000 		CAME			;*CAME SHOULD SKIP BECAUSE C(AC)=C(E)
 15383						STOP^
 15384	037661	254 04 0 00 037662 		HALT	.+1		;TEST FAILED IF PROGRAM HALTS HERE
 15385	037662	324 00 0 00 037663 		JUMPA	.+1		;IF TEST FAILS, CHANGE THIS INSTRUCTION (JUMPA .+1) TO
 15386									;JUMPA X (X IS THE ADDRESS OF THE FIRST INSTRUCTION
 15387									;IN THE SUBTEST) TO LOOP ON ERROR^
 15388
 15389					;**********
 15390
 15391
 15392					;THIS TEST VERIFIES THAT CAMN SKIPS THE NEXT SEQUENTIAL INSTRUCTION WHEN AND ONLY
 15393					;WHEN C(AC) IS NOT EQUAL TO C(E).  IT ALSO VERIFIES THAT CAME
 15394					;SKIPS THE NEXT SEQUENTIAL INSTRUCTION WHEN AND ONLY WHEN
 15395					;C(AC)=C(E).  IN BOTH CASES AC=E;  HENCE, C(AC)=C(E)
 15396					;IF EITHER CAMN OR CAME FAILS, THE PROGRAM HALTS
 15397					;THIS TEST IS REPEATED 36 TIMES IN ORDER TO FLOAT A 1 THRU ALL 36 BITS
 15398
 15399			001625		SN=SN+1
 15400			000004			ZZ=ZZ+ZZ
 15401						IFE	ZZ,<ZZ=1>
 15402	037663	200 00 0 00 070311 		MOVE	[XWD ZZ,0]	;PRELOAD AC,E WITH A FLOATING 1
 15403	037664	316 00 0 00 000000 		CAMN			;*CAMN SHOLD NOT SKIP BECAUSE C(AC)=C(E)
 15404	037665	312 00 0 00 000000 		CAME			;*CAME SHOULD SKIP BECAUSE C(AC)=C(E)
 15405						STOP^
 15406	037666	254 04 0 00 037667 		HALT	.+1		;TEST FAILED IF PROGRAM HALTS HERE
 15407	037667	324 00 0 00 037670 		JUMPA	.+1		;IF TEST FAILS, CHANGE THIS INSTRUCTION (JUMPA .+1) TO
 15408									;JUMPA X (X IS THE ADDRESS OF THE FIRST INSTRUCTION
 15409									;IN THE SUBTEST) TO LOOP ON ERROR^
 15410
 15411					;**********
 15412
 15413
 15414					;THIS TEST VERIFIES THAT CAMN SKIPS THE NEXT SEQUENTIAL INSTRUCTION WHEN AND ONLY
 15415					;WHEN C(AC) IS NOT EQUAL TO C(E).  IT ALSO VERIFIES THAT CAME
 15416					;SKIPS THE NEXT SEQUENTIAL INSTRUCTION WHEN AND ONLY WHEN
 15417					;C(AC)=C(E).  IN BOTH CASES AC=E;  HENCE, C(AC)=C(E)
 15418					;IF EITHER CAMN OR CAME FAILS, THE PROGRAM HALTS
 15419					;THIS TEST IS REPEATED 36 TIMES IN ORDER TO FLOAT A 1 THRU ALL 36 BITS
 15420
 15421			001626		SN=SN+1
 15422			000010			ZZ=ZZ+ZZ
 15423						IFE	ZZ,<ZZ=1>
 15424	037670	200 00 0 00 070312 		MOVE	[XWD ZZ,0]	;PRELOAD AC,E WITH A FLOATING 1
 15425	037671	316 00 0 00 000000 		CAMN			;*CAMN SHOLD NOT SKIP BECAUSE C(AC)=C(E)
 15426	037672	312 00 0 00 000000 		CAME			;*CAME SHOULD SKIP BECAUSE C(AC)=C(E)
 15427						STOP^
 15428	037673	254 04 0 00 037674 		HALT	.+1		;TEST FAILED IF PROGRAM HALTS HERE
 15429	037674	324 00 0 00 037675 		JUMPA	.+1		;IF TEST FAILS, CHANGE THIS INSTRUCTION (JUMPA .+1) TO
 15430									;JUMPA X (X IS THE ADDRESS OF THE FIRST INSTRUCTION
 15431									;IN THE SUBTEST) TO LOOP ON ERROR^
 15432
 15433					;**********
 15434
 15435
 15436					;THIS TEST VERIFIES THAT CAMN SKIPS THE NEXT SEQUENTIAL INSTRUCTION WHEN AND ONLY
DFKAA PDP-10 KL10 BASIC INSTRUCTION DIAGNOSTIC (1) VER 0,2	MACRO %53B(1254)-4 11:50 11-Nov-24 Page 23-2
DFKAA2	MAC	13-Jan-89 10:22		TEST OF COMPARE (CAMX) INSTRUCTIONS

 15437					;WHEN C(AC) IS NOT EQUAL TO C(E).  IT ALSO VERIFIES THAT CAME
 15438					;SKIPS THE NEXT SEQUENTIAL INSTRUCTION WHEN AND ONLY WHEN
 15439					;C(AC)=C(E).  IN BOTH CASES AC=E;  HENCE, C(AC)=C(E)
 15440					;IF EITHER CAMN OR CAME FAILS, THE PROGRAM HALTS
 15441					;THIS TEST IS REPEATED 36 TIMES IN ORDER TO FLOAT A 1 THRU ALL 36 BITS
 15442
 15443			001627		SN=SN+1
 15444			000020			ZZ=ZZ+ZZ
 15445						IFE	ZZ,<ZZ=1>
 15446	037675	200 00 0 00 070313 		MOVE	[XWD ZZ,0]	;PRELOAD AC,E WITH A FLOATING 1
 15447	037676	316 00 0 00 000000 		CAMN			;*CAMN SHOLD NOT SKIP BECAUSE C(AC)=C(E)
 15448	037677	312 00 0 00 000000 		CAME			;*CAME SHOULD SKIP BECAUSE C(AC)=C(E)
 15449						STOP^
 15450	037700	254 04 0 00 037701 		HALT	.+1		;TEST FAILED IF PROGRAM HALTS HERE
 15451	037701	324 00 0 00 037702 		JUMPA	.+1		;IF TEST FAILS, CHANGE THIS INSTRUCTION (JUMPA .+1) TO
 15452									;JUMPA X (X IS THE ADDRESS OF THE FIRST INSTRUCTION
 15453									;IN THE SUBTEST) TO LOOP ON ERROR^
 15454
 15455					;**********
 15456
 15457
 15458					;THIS TEST VERIFIES THAT CAMN SKIPS THE NEXT SEQUENTIAL INSTRUCTION WHEN AND ONLY
 15459					;WHEN C(AC) IS NOT EQUAL TO C(E).  IT ALSO VERIFIES THAT CAME
 15460					;SKIPS THE NEXT SEQUENTIAL INSTRUCTION WHEN AND ONLY WHEN
 15461					;C(AC)=C(E).  IN BOTH CASES AC=E;  HENCE, C(AC)=C(E)
 15462					;IF EITHER CAMN OR CAME FAILS, THE PROGRAM HALTS
 15463					;THIS TEST IS REPEATED 36 TIMES IN ORDER TO FLOAT A 1 THRU ALL 36 BITS
 15464
 15465			001630		SN=SN+1
 15466			000040			ZZ=ZZ+ZZ
 15467						IFE	ZZ,<ZZ=1>
 15468	037702	200 00 0 00 070314 		MOVE	[XWD ZZ,0]	;PRELOAD AC,E WITH A FLOATING 1
 15469	037703	316 00 0 00 000000 		CAMN			;*CAMN SHOLD NOT SKIP BECAUSE C(AC)=C(E)
 15470	037704	312 00 0 00 000000 		CAME			;*CAME SHOULD SKIP BECAUSE C(AC)=C(E)
 15471						STOP^
 15472	037705	254 04 0 00 037706 		HALT	.+1		;TEST FAILED IF PROGRAM HALTS HERE
 15473	037706	324 00 0 00 037707 		JUMPA	.+1		;IF TEST FAILS, CHANGE THIS INSTRUCTION (JUMPA .+1) TO
 15474									;JUMPA X (X IS THE ADDRESS OF THE FIRST INSTRUCTION
 15475									;IN THE SUBTEST) TO LOOP ON ERROR^
 15476
 15477					;**********
 15478
 15479
 15480					;THIS TEST VERIFIES THAT CAMN SKIPS THE NEXT SEQUENTIAL INSTRUCTION WHEN AND ONLY
 15481					;WHEN C(AC) IS NOT EQUAL TO C(E).  IT ALSO VERIFIES THAT CAME
 15482					;SKIPS THE NEXT SEQUENTIAL INSTRUCTION WHEN AND ONLY WHEN
 15483					;C(AC)=C(E).  IN BOTH CASES AC=E;  HENCE, C(AC)=C(E)
 15484					;IF EITHER CAMN OR CAME FAILS, THE PROGRAM HALTS
 15485					;THIS TEST IS REPEATED 36 TIMES IN ORDER TO FLOAT A 1 THRU ALL 36 BITS
 15486
 15487			001631		SN=SN+1
 15488			000100			ZZ=ZZ+ZZ
 15489						IFE	ZZ,<ZZ=1>
 15490	037707	200 00 0 00 070315 		MOVE	[XWD ZZ,0]	;PRELOAD AC,E WITH A FLOATING 1
 15491	037710	316 00 0 00 000000 		CAMN			;*CAMN SHOLD NOT SKIP BECAUSE C(AC)=C(E)
DFKAA PDP-10 KL10 BASIC INSTRUCTION DIAGNOSTIC (1) VER 0,2	MACRO %53B(1254)-4 11:50 11-Nov-24 Page 23-3
DFKAA2	MAC	13-Jan-89 10:22		TEST OF COMPARE (CAMX) INSTRUCTIONS

 15492	037711	312 00 0 00 000000 		CAME			;*CAME SHOULD SKIP BECAUSE C(AC)=C(E)
 15493						STOP^
 15494	037712	254 04 0 00 037713 		HALT	.+1		;TEST FAILED IF PROGRAM HALTS HERE
 15495	037713	324 00 0 00 037714 		JUMPA	.+1		;IF TEST FAILS, CHANGE THIS INSTRUCTION (JUMPA .+1) TO
 15496									;JUMPA X (X IS THE ADDRESS OF THE FIRST INSTRUCTION
 15497									;IN THE SUBTEST) TO LOOP ON ERROR^
 15498
 15499					;**********
 15500
 15501
 15502					;THIS TEST VERIFIES THAT CAMN SKIPS THE NEXT SEQUENTIAL INSTRUCTION WHEN AND ONLY
 15503					;WHEN C(AC) IS NOT EQUAL TO C(E).  IT ALSO VERIFIES THAT CAME
 15504					;SKIPS THE NEXT SEQUENTIAL INSTRUCTION WHEN AND ONLY WHEN
 15505					;C(AC)=C(E).  IN BOTH CASES AC=E;  HENCE, C(AC)=C(E)
 15506					;IF EITHER CAMN OR CAME FAILS, THE PROGRAM HALTS
 15507					;THIS TEST IS REPEATED 36 TIMES IN ORDER TO FLOAT A 1 THRU ALL 36 BITS
 15508
 15509			001632		SN=SN+1
 15510			000200			ZZ=ZZ+ZZ
 15511						IFE	ZZ,<ZZ=1>
 15512	037714	200 00 0 00 070316 		MOVE	[XWD ZZ,0]	;PRELOAD AC,E WITH A FLOATING 1
 15513	037715	316 00 0 00 000000 		CAMN			;*CAMN SHOLD NOT SKIP BECAUSE C(AC)=C(E)
 15514	037716	312 00 0 00 000000 		CAME			;*CAME SHOULD SKIP BECAUSE C(AC)=C(E)
 15515						STOP^
 15516	037717	254 04 0 00 037720 		HALT	.+1		;TEST FAILED IF PROGRAM HALTS HERE
 15517	037720	324 00 0 00 037721 		JUMPA	.+1		;IF TEST FAILS, CHANGE THIS INSTRUCTION (JUMPA .+1) TO
 15518									;JUMPA X (X IS THE ADDRESS OF THE FIRST INSTRUCTION
 15519									;IN THE SUBTEST) TO LOOP ON ERROR^
 15520
 15521					;**********
 15522
 15523
 15524					;THIS TEST VERIFIES THAT CAMN SKIPS THE NEXT SEQUENTIAL INSTRUCTION WHEN AND ONLY
 15525					;WHEN C(AC) IS NOT EQUAL TO C(E).  IT ALSO VERIFIES THAT CAME
 15526					;SKIPS THE NEXT SEQUENTIAL INSTRUCTION WHEN AND ONLY WHEN
 15527					;C(AC)=C(E).  IN BOTH CASES AC=E;  HENCE, C(AC)=C(E)
 15528					;IF EITHER CAMN OR CAME FAILS, THE PROGRAM HALTS
 15529					;THIS TEST IS REPEATED 36 TIMES IN ORDER TO FLOAT A 1 THRU ALL 36 BITS
 15530
 15531			001633		SN=SN+1
 15532			000400			ZZ=ZZ+ZZ
 15533						IFE	ZZ,<ZZ=1>
 15534	037721	200 00 0 00 070264 		MOVE	[XWD ZZ,0]	;PRELOAD AC,E WITH A FLOATING 1
 15535	037722	316 00 0 00 000000 		CAMN			;*CAMN SHOLD NOT SKIP BECAUSE C(AC)=C(E)
 15536	037723	312 00 0 00 000000 		CAME			;*CAME SHOULD SKIP BECAUSE C(AC)=C(E)
 15537						STOP^
 15538	037724	254 04 0 00 037725 		HALT	.+1		;TEST FAILED IF PROGRAM HALTS HERE
 15539	037725	324 00 0 00 037726 		JUMPA	.+1		;IF TEST FAILS, CHANGE THIS INSTRUCTION (JUMPA .+1) TO
 15540									;JUMPA X (X IS THE ADDRESS OF THE FIRST INSTRUCTION
 15541									;IN THE SUBTEST) TO LOOP ON ERROR^
 15542
 15543					;**********
 15544
 15545
 15546					;THIS TEST VERIFIES THAT CAMN SKIPS THE NEXT SEQUENTIAL INSTRUCTION WHEN AND ONLY
DFKAA PDP-10 KL10 BASIC INSTRUCTION DIAGNOSTIC (1) VER 0,2	MACRO %53B(1254)-4 11:50 11-Nov-24 Page 23-4
DFKAA2	MAC	13-Jan-89 10:22		TEST OF COMPARE (CAMX) INSTRUCTIONS

 15547					;WHEN C(AC) IS NOT EQUAL TO C(E).  IT ALSO VERIFIES THAT CAME
 15548					;SKIPS THE NEXT SEQUENTIAL INSTRUCTION WHEN AND ONLY WHEN
 15549					;C(AC)=C(E).  IN BOTH CASES AC=E;  HENCE, C(AC)=C(E)
 15550					;IF EITHER CAMN OR CAME FAILS, THE PROGRAM HALTS
 15551					;THIS TEST IS REPEATED 36 TIMES IN ORDER TO FLOAT A 1 THRU ALL 36 BITS
 15552
 15553			001634		SN=SN+1
 15554			001000			ZZ=ZZ+ZZ
 15555						IFE	ZZ,<ZZ=1>
 15556	037726	200 00 0 00 070317 		MOVE	[XWD ZZ,0]	;PRELOAD AC,E WITH A FLOATING 1
 15557	037727	316 00 0 00 000000 		CAMN			;*CAMN SHOLD NOT SKIP BECAUSE C(AC)=C(E)
 15558	037730	312 00 0 00 000000 		CAME			;*CAME SHOULD SKIP BECAUSE C(AC)=C(E)
 15559						STOP^
 15560	037731	254 04 0 00 037732 		HALT	.+1		;TEST FAILED IF PROGRAM HALTS HERE
 15561	037732	324 00 0 00 037733 		JUMPA	.+1		;IF TEST FAILS, CHANGE THIS INSTRUCTION (JUMPA .+1) TO
 15562									;JUMPA X (X IS THE ADDRESS OF THE FIRST INSTRUCTION
 15563									;IN THE SUBTEST) TO LOOP ON ERROR^
 15564
 15565					;**********
 15566
 15567
 15568					;THIS TEST VERIFIES THAT CAMN SKIPS THE NEXT SEQUENTIAL INSTRUCTION WHEN AND ONLY
 15569					;WHEN C(AC) IS NOT EQUAL TO C(E).  IT ALSO VERIFIES THAT CAME
 15570					;SKIPS THE NEXT SEQUENTIAL INSTRUCTION WHEN AND ONLY WHEN
 15571					;C(AC)=C(E).  IN BOTH CASES AC=E;  HENCE, C(AC)=C(E)
 15572					;IF EITHER CAMN OR CAME FAILS, THE PROGRAM HALTS
 15573					;THIS TEST IS REPEATED 36 TIMES IN ORDER TO FLOAT A 1 THRU ALL 36 BITS
 15574
 15575			001635		SN=SN+1
 15576			002000			ZZ=ZZ+ZZ
 15577						IFE	ZZ,<ZZ=1>
 15578	037733	200 00 0 00 070320 		MOVE	[XWD ZZ,0]	;PRELOAD AC,E WITH A FLOATING 1
 15579	037734	316 00 0 00 000000 		CAMN			;*CAMN SHOLD NOT SKIP BECAUSE C(AC)=C(E)
 15580	037735	312 00 0 00 000000 		CAME			;*CAME SHOULD SKIP BECAUSE C(AC)=C(E)
 15581						STOP^
 15582	037736	254 04 0 00 037737 		HALT	.+1		;TEST FAILED IF PROGRAM HALTS HERE
 15583	037737	324 00 0 00 037740 		JUMPA	.+1		;IF TEST FAILS, CHANGE THIS INSTRUCTION (JUMPA .+1) TO
 15584									;JUMPA X (X IS THE ADDRESS OF THE FIRST INSTRUCTION
 15585									;IN THE SUBTEST) TO LOOP ON ERROR^
 15586
 15587					;**********
 15588
 15589
 15590					;THIS TEST VERIFIES THAT CAMN SKIPS THE NEXT SEQUENTIAL INSTRUCTION WHEN AND ONLY
 15591					;WHEN C(AC) IS NOT EQUAL TO C(E).  IT ALSO VERIFIES THAT CAME
 15592					;SKIPS THE NEXT SEQUENTIAL INSTRUCTION WHEN AND ONLY WHEN
 15593					;C(AC)=C(E).  IN BOTH CASES AC=E;  HENCE, C(AC)=C(E)
 15594					;IF EITHER CAMN OR CAME FAILS, THE PROGRAM HALTS
 15595					;THIS TEST IS REPEATED 36 TIMES IN ORDER TO FLOAT A 1 THRU ALL 36 BITS
 15596
 15597			001636		SN=SN+1
 15598			004000			ZZ=ZZ+ZZ
 15599						IFE	ZZ,<ZZ=1>
 15600	037740	200 00 0 00 070321 		MOVE	[XWD ZZ,0]	;PRELOAD AC,E WITH A FLOATING 1
 15601	037741	316 00 0 00 000000 		CAMN			;*CAMN SHOLD NOT SKIP BECAUSE C(AC)=C(E)
DFKAA PDP-10 KL10 BASIC INSTRUCTION DIAGNOSTIC (1) VER 0,2	MACRO %53B(1254)-4 11:50 11-Nov-24 Page 23-5
DFKAA2	MAC	13-Jan-89 10:22		TEST OF COMPARE (CAMX) INSTRUCTIONS

 15602	037742	312 00 0 00 000000 		CAME			;*CAME SHOULD SKIP BECAUSE C(AC)=C(E)
 15603						STOP^
 15604	037743	254 04 0 00 037744 		HALT	.+1		;TEST FAILED IF PROGRAM HALTS HERE
 15605	037744	324 00 0 00 037745 		JUMPA	.+1		;IF TEST FAILS, CHANGE THIS INSTRUCTION (JUMPA .+1) TO
 15606									;JUMPA X (X IS THE ADDRESS OF THE FIRST INSTRUCTION
 15607									;IN THE SUBTEST) TO LOOP ON ERROR^
 15608
 15609					;**********
 15610
 15611
 15612					;THIS TEST VERIFIES THAT CAMN SKIPS THE NEXT SEQUENTIAL INSTRUCTION WHEN AND ONLY
 15613					;WHEN C(AC) IS NOT EQUAL TO C(E).  IT ALSO VERIFIES THAT CAME
 15614					;SKIPS THE NEXT SEQUENTIAL INSTRUCTION WHEN AND ONLY WHEN
 15615					;C(AC)=C(E).  IN BOTH CASES AC=E;  HENCE, C(AC)=C(E)
 15616					;IF EITHER CAMN OR CAME FAILS, THE PROGRAM HALTS
 15617					;THIS TEST IS REPEATED 36 TIMES IN ORDER TO FLOAT A 1 THRU ALL 36 BITS
 15618
 15619			001637		SN=SN+1
 15620			010000			ZZ=ZZ+ZZ
 15621						IFE	ZZ,<ZZ=1>
 15622	037745	200 00 0 00 070322 		MOVE	[XWD ZZ,0]	;PRELOAD AC,E WITH A FLOATING 1
 15623	037746	316 00 0 00 000000 		CAMN			;*CAMN SHOLD NOT SKIP BECAUSE C(AC)=C(E)
 15624	037747	312 00 0 00 000000 		CAME			;*CAME SHOULD SKIP BECAUSE C(AC)=C(E)
 15625						STOP^
 15626	037750	254 04 0 00 037751 		HALT	.+1		;TEST FAILED IF PROGRAM HALTS HERE
 15627	037751	324 00 0 00 037752 		JUMPA	.+1		;IF TEST FAILS, CHANGE THIS INSTRUCTION (JUMPA .+1) TO
 15628									;JUMPA X (X IS THE ADDRESS OF THE FIRST INSTRUCTION
 15629									;IN THE SUBTEST) TO LOOP ON ERROR^
 15630
 15631					;**********
 15632
 15633
 15634					;THIS TEST VERIFIES THAT CAMN SKIPS THE NEXT SEQUENTIAL INSTRUCTION WHEN AND ONLY
 15635					;WHEN C(AC) IS NOT EQUAL TO C(E).  IT ALSO VERIFIES THAT CAME
 15636					;SKIPS THE NEXT SEQUENTIAL INSTRUCTION WHEN AND ONLY WHEN
 15637					;C(AC)=C(E).  IN BOTH CASES AC=E;  HENCE, C(AC)=C(E)
 15638					;IF EITHER CAMN OR CAME FAILS, THE PROGRAM HALTS
 15639					;THIS TEST IS REPEATED 36 TIMES IN ORDER TO FLOAT A 1 THRU ALL 36 BITS
 15640
 15641			001640		SN=SN+1
 15642			020000			ZZ=ZZ+ZZ
 15643						IFE	ZZ,<ZZ=1>
 15644	037752	200 00 0 00 070323 		MOVE	[XWD ZZ,0]	;PRELOAD AC,E WITH A FLOATING 1
 15645	037753	316 00 0 00 000000 		CAMN			;*CAMN SHOLD NOT SKIP BECAUSE C(AC)=C(E)
 15646	037754	312 00 0 00 000000 		CAME			;*CAME SHOULD SKIP BECAUSE C(AC)=C(E)
 15647						STOP^
 15648	037755	254 04 0 00 037756 		HALT	.+1		;TEST FAILED IF PROGRAM HALTS HERE
 15649	037756	324 00 0 00 037757 		JUMPA	.+1		;IF TEST FAILS, CHANGE THIS INSTRUCTION (JUMPA .+1) TO
 15650									;JUMPA X (X IS THE ADDRESS OF THE FIRST INSTRUCTION
 15651									;IN THE SUBTEST) TO LOOP ON ERROR^
 15652
 15653					;**********
 15654
 15655
 15656					;THIS TEST VERIFIES THAT CAMN SKIPS THE NEXT SEQUENTIAL INSTRUCTION WHEN AND ONLY
DFKAA PDP-10 KL10 BASIC INSTRUCTION DIAGNOSTIC (1) VER 0,2	MACRO %53B(1254)-4 11:50 11-Nov-24 Page 23-6
DFKAA2	MAC	13-Jan-89 10:22		TEST OF COMPARE (CAMX) INSTRUCTIONS

 15657					;WHEN C(AC) IS NOT EQUAL TO C(E).  IT ALSO VERIFIES THAT CAME
 15658					;SKIPS THE NEXT SEQUENTIAL INSTRUCTION WHEN AND ONLY WHEN
 15659					;C(AC)=C(E).  IN BOTH CASES AC=E;  HENCE, C(AC)=C(E)
 15660					;IF EITHER CAMN OR CAME FAILS, THE PROGRAM HALTS
 15661					;THIS TEST IS REPEATED 36 TIMES IN ORDER TO FLOAT A 1 THRU ALL 36 BITS
 15662
 15663			001641		SN=SN+1
 15664			040000			ZZ=ZZ+ZZ
 15665						IFE	ZZ,<ZZ=1>
 15666	037757	200 00 0 00 070324 		MOVE	[XWD ZZ,0]	;PRELOAD AC,E WITH A FLOATING 1
 15667	037760	316 00 0 00 000000 		CAMN			;*CAMN SHOLD NOT SKIP BECAUSE C(AC)=C(E)
 15668	037761	312 00 0 00 000000 		CAME			;*CAME SHOULD SKIP BECAUSE C(AC)=C(E)
 15669						STOP^
 15670	037762	254 04 0 00 037763 		HALT	.+1		;TEST FAILED IF PROGRAM HALTS HERE
 15671	037763	324 00 0 00 037764 		JUMPA	.+1		;IF TEST FAILS, CHANGE THIS INSTRUCTION (JUMPA .+1) TO
 15672									;JUMPA X (X IS THE ADDRESS OF THE FIRST INSTRUCTION
 15673									;IN THE SUBTEST) TO LOOP ON ERROR^
 15674
 15675					;**********
 15676
 15677
 15678					;THIS TEST VERIFIES THAT CAMN SKIPS THE NEXT SEQUENTIAL INSTRUCTION WHEN AND ONLY
 15679					;WHEN C(AC) IS NOT EQUAL TO C(E).  IT ALSO VERIFIES THAT CAME
 15680					;SKIPS THE NEXT SEQUENTIAL INSTRUCTION WHEN AND ONLY WHEN
 15681					;C(AC)=C(E).  IN BOTH CASES AC=E;  HENCE, C(AC)=C(E)
 15682					;IF EITHER CAMN OR CAME FAILS, THE PROGRAM HALTS
 15683					;THIS TEST IS REPEATED 36 TIMES IN ORDER TO FLOAT A 1 THRU ALL 36 BITS
 15684
 15685			001642		SN=SN+1
 15686			100000			ZZ=ZZ+ZZ
 15687						IFE	ZZ,<ZZ=1>
 15688	037764	200 00 0 00 070325 		MOVE	[XWD ZZ,0]	;PRELOAD AC,E WITH A FLOATING 1
 15689	037765	316 00 0 00 000000 		CAMN			;*CAMN SHOLD NOT SKIP BECAUSE C(AC)=C(E)
 15690	037766	312 00 0 00 000000 		CAME			;*CAME SHOULD SKIP BECAUSE C(AC)=C(E)
 15691						STOP^
 15692	037767	254 04 0 00 037770 		HALT	.+1		;TEST FAILED IF PROGRAM HALTS HERE
 15693	037770	324 00 0 00 037771 		JUMPA	.+1		;IF TEST FAILS, CHANGE THIS INSTRUCTION (JUMPA .+1) TO
 15694									;JUMPA X (X IS THE ADDRESS OF THE FIRST INSTRUCTION
 15695									;IN THE SUBTEST) TO LOOP ON ERROR^
 15696
 15697					;**********
 15698
 15699
 15700					;THIS TEST VERIFIES THAT CAMN SKIPS THE NEXT SEQUENTIAL INSTRUCTION WHEN AND ONLY
 15701					;WHEN C(AC) IS NOT EQUAL TO C(E).  IT ALSO VERIFIES THAT CAME
 15702					;SKIPS THE NEXT SEQUENTIAL INSTRUCTION WHEN AND ONLY WHEN
 15703					;C(AC)=C(E).  IN BOTH CASES AC=E;  HENCE, C(AC)=C(E)
 15704					;IF EITHER CAMN OR CAME FAILS, THE PROGRAM HALTS
 15705					;THIS TEST IS REPEATED 36 TIMES IN ORDER TO FLOAT A 1 THRU ALL 36 BITS
 15706
 15707			001643		SN=SN+1
 15708			200000			ZZ=ZZ+ZZ
 15709						IFE	ZZ,<ZZ=1>
 15710	037771	200 00 0 00 070326 		MOVE	[XWD ZZ,0]	;PRELOAD AC,E WITH A FLOATING 1
 15711	037772	316 00 0 00 000000 		CAMN			;*CAMN SHOLD NOT SKIP BECAUSE C(AC)=C(E)
DFKAA PDP-10 KL10 BASIC INSTRUCTION DIAGNOSTIC (1) VER 0,2	MACRO %53B(1254)-4 11:50 11-Nov-24 Page 23-7
DFKAA2	MAC	13-Jan-89 10:22		TEST OF COMPARE (CAMX) INSTRUCTIONS

 15712	037773	312 00 0 00 000000 		CAME			;*CAME SHOULD SKIP BECAUSE C(AC)=C(E)
 15713						STOP^
 15714	037774	254 04 0 00 037775 		HALT	.+1		;TEST FAILED IF PROGRAM HALTS HERE
 15715	037775	324 00 0 00 037776 		JUMPA	.+1		;IF TEST FAILS, CHANGE THIS INSTRUCTION (JUMPA .+1) TO
 15716									;JUMPA X (X IS THE ADDRESS OF THE FIRST INSTRUCTION
 15717									;IN THE SUBTEST) TO LOOP ON ERROR^
 15718
 15719					;**********
 15720
 15721
 15722					;THIS TEST VERIFIES THAT CAMN SKIPS THE NEXT SEQUENTIAL INSTRUCTION WHEN AND ONLY
 15723					;WHEN C(AC) IS NOT EQUAL TO C(E).  IT ALSO VERIFIES THAT CAME
 15724					;SKIPS THE NEXT SEQUENTIAL INSTRUCTION WHEN AND ONLY WHEN
 15725					;C(AC)=C(E).  IN BOTH CASES AC=E;  HENCE, C(AC)=C(E)
 15726					;IF EITHER CAMN OR CAME FAILS, THE PROGRAM HALTS
 15727					;THIS TEST IS REPEATED 36 TIMES IN ORDER TO FLOAT A 1 THRU ALL 36 BITS
 15728
 15729			001644		SN=SN+1
 15730			400000			ZZ=ZZ+ZZ
 15731						IFE	ZZ,<ZZ=1>
 15732	037776	200 00 0 00 070256 		MOVE	[XWD ZZ,0]	;PRELOAD AC,E WITH A FLOATING 1
 15733	037777	316 00 0 00 000000 		CAMN			;*CAMN SHOLD NOT SKIP BECAUSE C(AC)=C(E)
 15734	040000	312 00 0 00 000000 		CAME			;*CAME SHOULD SKIP BECAUSE C(AC)=C(E)
 15735						STOP^
 15736	040001	254 04 0 00 040002 		HALT	.+1		;TEST FAILED IF PROGRAM HALTS HERE
 15737	040002	324 00 0 00 040003 		JUMPA	.+1		;IF TEST FAILS, CHANGE THIS INSTRUCTION (JUMPA .+1) TO
 15738									;JUMPA X (X IS THE ADDRESS OF THE FIRST INSTRUCTION
 15739									;IN THE SUBTEST) TO LOOP ON ERROR^
 15740
 15741					;**********
 15742
DFKAA PDP-10 KL10 BASIC INSTRUCTION DIAGNOSTIC (1) VER 0,2	MACRO %53B(1254)-4 11:50 11-Nov-24 Page 24
DFKAA2	MAC	13-Jan-89 10:22		TEST OF COMPARE (CAMX) INSTRUCTIONS

 15743			001700		SN=1700
 15744			000000			ZZ=0
 15745
 15746					B1700:	REPEAT	^D36,<
 15747					;THIS TEST VERIFIES THAT CAMN SKIPS THE NEXT INSTRUCTION WHEN AND
 15748					;ONLY WHEN C(AC)=0 AND C(E)=FLOATING 1.  HENCE,
 15749					;CAMN SHOULD SKIP;  OTHERWISE, THE PROGRAM HALTS
 15750					;THIS TEST IS REPEATED 36 TIMES TO FLOAT A 1 THRU ALL 36 BITS OF E
 15751					SN=SN+1
 15752						ZZ=ZZ+ZZ
 15753						IFE	ZZ,<ZZ=1>
 15754						SETZ			;PRELOAD AC WITH 0
 15755						CAMN	[ZZ]		;*CAMN SHOULD SKIP BECAUSE C(AC) IS NOT EQUAL TO C(E)
 15756						STOP
 15757
 15758					;**********
 15759					>
 15760
 15761					;THIS TEST VERIFIES THAT CAMN SKIPS THE NEXT INSTRUCTION WHEN AND
 15762					;ONLY WHEN C(AC)=0 AND C(E)=FLOATING 1.  HENCE,
 15763					;CAMN SHOULD SKIP;  OTHERWISE, THE PROGRAM HALTS
 15764					;THIS TEST IS REPEATED 36 TIMES TO FLOAT A 1 THRU ALL 36 BITS OF E
 15765			001701		SN=SN+1
 15766			000000			ZZ=ZZ+ZZ
 15767			000001			IFE	ZZ,<ZZ=1>
 15768	040003	400 00 0 00 000000 		SETZ			;PRELOAD AC WITH 0
 15769	040004	316 00 0 00 070265 		CAMN	[ZZ]		;*CAMN SHOULD SKIP BECAUSE C(AC) IS NOT EQUAL TO C(E)
 15770						STOP		^
 15771	040005	254 04 0 00 040006 		HALT	.+1		;TEST FAILED IF PROGRAM HALTS HERE
 15772	040006	324 00 0 00 040007 		JUMPA	.+1		;IF TEST FAILS, CHANGE THIS INSTRUCTION (JUMPA .+1) TO
 15773									;JUMPA X (X IS THE ADDRESS OF THE FIRST INSTRUCTION
 15774									;IN THE SUBTEST) TO LOOP ON ERROR^
 15775
 15776					;**********
 15777
 15778
 15779					;THIS TEST VERIFIES THAT CAMN SKIPS THE NEXT INSTRUCTION WHEN AND
 15780					;ONLY WHEN C(AC)=0 AND C(E)=FLOATING 1.  HENCE,
 15781					;CAMN SHOULD SKIP;  OTHERWISE, THE PROGRAM HALTS
 15782					;THIS TEST IS REPEATED 36 TIMES TO FLOAT A 1 THRU ALL 36 BITS OF E
 15783			001702		SN=SN+1
 15784			000002			ZZ=ZZ+ZZ
 15785						IFE	ZZ,<ZZ=1>
 15786	040007	400 00 0 00 000000 		SETZ			;PRELOAD AC WITH 0
 15787	040010	316 00 0 00 070266 		CAMN	[ZZ]		;*CAMN SHOULD SKIP BECAUSE C(AC) IS NOT EQUAL TO C(E)
 15788						STOP		^
 15789	040011	254 04 0 00 040012 		HALT	.+1		;TEST FAILED IF PROGRAM HALTS HERE
 15790	040012	324 00 0 00 040013 		JUMPA	.+1		;IF TEST FAILS, CHANGE THIS INSTRUCTION (JUMPA .+1) TO
 15791									;JUMPA X (X IS THE ADDRESS OF THE FIRST INSTRUCTION
 15792									;IN THE SUBTEST) TO LOOP ON ERROR^
 15793
 15794					;**********
 15795
 15796
 15797					;THIS TEST VERIFIES THAT CAMN SKIPS THE NEXT INSTRUCTION WHEN AND
DFKAA PDP-10 KL10 BASIC INSTRUCTION DIAGNOSTIC (1) VER 0,2	MACRO %53B(1254)-4 11:50 11-Nov-24 Page 24-1
DFKAA2	MAC	13-Jan-89 10:22		TEST OF COMPARE (CAMX) INSTRUCTIONS

 15798					;ONLY WHEN C(AC)=0 AND C(E)=FLOATING 1.  HENCE,
 15799					;CAMN SHOULD SKIP;  OTHERWISE, THE PROGRAM HALTS
 15800					;THIS TEST IS REPEATED 36 TIMES TO FLOAT A 1 THRU ALL 36 BITS OF E
 15801			001703		SN=SN+1
 15802			000004			ZZ=ZZ+ZZ
 15803						IFE	ZZ,<ZZ=1>
 15804	040013	400 00 0 00 000000 		SETZ			;PRELOAD AC WITH 0
 15805	040014	316 00 0 00 070267 		CAMN	[ZZ]		;*CAMN SHOULD SKIP BECAUSE C(AC) IS NOT EQUAL TO C(E)
 15806						STOP		^
 15807	040015	254 04 0 00 040016 		HALT	.+1		;TEST FAILED IF PROGRAM HALTS HERE
 15808	040016	324 00 0 00 040017 		JUMPA	.+1		;IF TEST FAILS, CHANGE THIS INSTRUCTION (JUMPA .+1) TO
 15809									;JUMPA X (X IS THE ADDRESS OF THE FIRST INSTRUCTION
 15810									;IN THE SUBTEST) TO LOOP ON ERROR^
 15811
 15812					;**********
 15813
 15814
 15815					;THIS TEST VERIFIES THAT CAMN SKIPS THE NEXT INSTRUCTION WHEN AND
 15816					;ONLY WHEN C(AC)=0 AND C(E)=FLOATING 1.  HENCE,
 15817					;CAMN SHOULD SKIP;  OTHERWISE, THE PROGRAM HALTS
 15818					;THIS TEST IS REPEATED 36 TIMES TO FLOAT A 1 THRU ALL 36 BITS OF E
 15819			001704		SN=SN+1
 15820			000010			ZZ=ZZ+ZZ
 15821						IFE	ZZ,<ZZ=1>
 15822	040017	400 00 0 00 000000 		SETZ			;PRELOAD AC WITH 0
 15823	040020	316 00 0 00 070270 		CAMN	[ZZ]		;*CAMN SHOULD SKIP BECAUSE C(AC) IS NOT EQUAL TO C(E)
 15824						STOP		^
 15825	040021	254 04 0 00 040022 		HALT	.+1		;TEST FAILED IF PROGRAM HALTS HERE
 15826	040022	324 00 0 00 040023 		JUMPA	.+1		;IF TEST FAILS, CHANGE THIS INSTRUCTION (JUMPA .+1) TO
 15827									;JUMPA X (X IS THE ADDRESS OF THE FIRST INSTRUCTION
 15828									;IN THE SUBTEST) TO LOOP ON ERROR^
 15829
 15830					;**********
 15831
 15832
 15833					;THIS TEST VERIFIES THAT CAMN SKIPS THE NEXT INSTRUCTION WHEN AND
 15834					;ONLY WHEN C(AC)=0 AND C(E)=FLOATING 1.  HENCE,
 15835					;CAMN SHOULD SKIP;  OTHERWISE, THE PROGRAM HALTS
 15836					;THIS TEST IS REPEATED 36 TIMES TO FLOAT A 1 THRU ALL 36 BITS OF E
 15837			001705		SN=SN+1
 15838			000020			ZZ=ZZ+ZZ
 15839						IFE	ZZ,<ZZ=1>
 15840	040023	400 00 0 00 000000 		SETZ			;PRELOAD AC WITH 0
 15841	040024	316 00 0 00 070271 		CAMN	[ZZ]		;*CAMN SHOULD SKIP BECAUSE C(AC) IS NOT EQUAL TO C(E)
 15842						STOP		^
 15843	040025	254 04 0 00 040026 		HALT	.+1		;TEST FAILED IF PROGRAM HALTS HERE
 15844	040026	324 00 0 00 040027 		JUMPA	.+1		;IF TEST FAILS, CHANGE THIS INSTRUCTION (JUMPA .+1) TO
 15845									;JUMPA X (X IS THE ADDRESS OF THE FIRST INSTRUCTION
 15846									;IN THE SUBTEST) TO LOOP ON ERROR^
 15847
 15848					;**********
 15849
 15850
 15851					;THIS TEST VERIFIES THAT CAMN SKIPS THE NEXT INSTRUCTION WHEN AND
 15852					;ONLY WHEN C(AC)=0 AND C(E)=FLOATING 1.  HENCE,
DFKAA PDP-10 KL10 BASIC INSTRUCTION DIAGNOSTIC (1) VER 0,2	MACRO %53B(1254)-4 11:50 11-Nov-24 Page 24-2
DFKAA2	MAC	13-Jan-89 10:22		TEST OF COMPARE (CAMX) INSTRUCTIONS

 15853					;CAMN SHOULD SKIP;  OTHERWISE, THE PROGRAM HALTS
 15854					;THIS TEST IS REPEATED 36 TIMES TO FLOAT A 1 THRU ALL 36 BITS OF E
 15855			001706		SN=SN+1
 15856			000040			ZZ=ZZ+ZZ
 15857						IFE	ZZ,<ZZ=1>
 15858	040027	400 00 0 00 000000 		SETZ			;PRELOAD AC WITH 0
 15859	040030	316 00 0 00 070272 		CAMN	[ZZ]		;*CAMN SHOULD SKIP BECAUSE C(AC) IS NOT EQUAL TO C(E)
 15860						STOP		^
 15861	040031	254 04 0 00 040032 		HALT	.+1		;TEST FAILED IF PROGRAM HALTS HERE
 15862	040032	324 00 0 00 040033 		JUMPA	.+1		;IF TEST FAILS, CHANGE THIS INSTRUCTION (JUMPA .+1) TO
 15863									;JUMPA X (X IS THE ADDRESS OF THE FIRST INSTRUCTION
 15864									;IN THE SUBTEST) TO LOOP ON ERROR^
 15865
 15866					;**********
 15867
 15868
 15869					;THIS TEST VERIFIES THAT CAMN SKIPS THE NEXT INSTRUCTION WHEN AND
 15870					;ONLY WHEN C(AC)=0 AND C(E)=FLOATING 1.  HENCE,
 15871					;CAMN SHOULD SKIP;  OTHERWISE, THE PROGRAM HALTS
 15872					;THIS TEST IS REPEATED 36 TIMES TO FLOAT A 1 THRU ALL 36 BITS OF E
 15873			001707		SN=SN+1
 15874			000100			ZZ=ZZ+ZZ
 15875						IFE	ZZ,<ZZ=1>
 15876	040033	400 00 0 00 000000 		SETZ			;PRELOAD AC WITH 0
 15877	040034	316 00 0 00 070273 		CAMN	[ZZ]		;*CAMN SHOULD SKIP BECAUSE C(AC) IS NOT EQUAL TO C(E)
 15878						STOP		^
 15879	040035	254 04 0 00 040036 		HALT	.+1		;TEST FAILED IF PROGRAM HALTS HERE
 15880	040036	324 00 0 00 040037 		JUMPA	.+1		;IF TEST FAILS, CHANGE THIS INSTRUCTION (JUMPA .+1) TO
 15881									;JUMPA X (X IS THE ADDRESS OF THE FIRST INSTRUCTION
 15882									;IN THE SUBTEST) TO LOOP ON ERROR^
 15883
 15884					;**********
 15885
 15886
 15887					;THIS TEST VERIFIES THAT CAMN SKIPS THE NEXT INSTRUCTION WHEN AND
 15888					;ONLY WHEN C(AC)=0 AND C(E)=FLOATING 1.  HENCE,
 15889					;CAMN SHOULD SKIP;  OTHERWISE, THE PROGRAM HALTS
 15890					;THIS TEST IS REPEATED 36 TIMES TO FLOAT A 1 THRU ALL 36 BITS OF E
 15891			001710		SN=SN+1
 15892			000200			ZZ=ZZ+ZZ
 15893						IFE	ZZ,<ZZ=1>
 15894	040037	400 00 0 00 000000 		SETZ			;PRELOAD AC WITH 0
 15895	040040	316 00 0 00 070274 		CAMN	[ZZ]		;*CAMN SHOULD SKIP BECAUSE C(AC) IS NOT EQUAL TO C(E)
 15896						STOP		^
 15897	040041	254 04 0 00 040042 		HALT	.+1		;TEST FAILED IF PROGRAM HALTS HERE
 15898	040042	324 00 0 00 040043 		JUMPA	.+1		;IF TEST FAILS, CHANGE THIS INSTRUCTION (JUMPA .+1) TO
 15899									;JUMPA X (X IS THE ADDRESS OF THE FIRST INSTRUCTION
 15900									;IN THE SUBTEST) TO LOOP ON ERROR^
 15901
 15902					;**********
 15903
 15904
 15905					;THIS TEST VERIFIES THAT CAMN SKIPS THE NEXT INSTRUCTION WHEN AND
 15906					;ONLY WHEN C(AC)=0 AND C(E)=FLOATING 1.  HENCE,
 15907					;CAMN SHOULD SKIP;  OTHERWISE, THE PROGRAM HALTS
DFKAA PDP-10 KL10 BASIC INSTRUCTION DIAGNOSTIC (1) VER 0,2	MACRO %53B(1254)-4 11:50 11-Nov-24 Page 24-3
DFKAA2	MAC	13-Jan-89 10:22		TEST OF COMPARE (CAMX) INSTRUCTIONS

 15908					;THIS TEST IS REPEATED 36 TIMES TO FLOAT A 1 THRU ALL 36 BITS OF E
 15909			001711		SN=SN+1
 15910			000400			ZZ=ZZ+ZZ
 15911						IFE	ZZ,<ZZ=1>
 15912	040043	400 00 0 00 000000 		SETZ			;PRELOAD AC WITH 0
 15913	040044	316 00 0 00 070275 		CAMN	[ZZ]		;*CAMN SHOULD SKIP BECAUSE C(AC) IS NOT EQUAL TO C(E)
 15914						STOP		^
 15915	040045	254 04 0 00 040046 		HALT	.+1		;TEST FAILED IF PROGRAM HALTS HERE
 15916	040046	324 00 0 00 040047 		JUMPA	.+1		;IF TEST FAILS, CHANGE THIS INSTRUCTION (JUMPA .+1) TO
 15917									;JUMPA X (X IS THE ADDRESS OF THE FIRST INSTRUCTION
 15918									;IN THE SUBTEST) TO LOOP ON ERROR^
 15919
 15920					;**********
 15921
 15922
 15923					;THIS TEST VERIFIES THAT CAMN SKIPS THE NEXT INSTRUCTION WHEN AND
 15924					;ONLY WHEN C(AC)=0 AND C(E)=FLOATING 1.  HENCE,
 15925					;CAMN SHOULD SKIP;  OTHERWISE, THE PROGRAM HALTS
 15926					;THIS TEST IS REPEATED 36 TIMES TO FLOAT A 1 THRU ALL 36 BITS OF E
 15927			001712		SN=SN+1
 15928			001000			ZZ=ZZ+ZZ
 15929						IFE	ZZ,<ZZ=1>
 15930	040047	400 00 0 00 000000 		SETZ			;PRELOAD AC WITH 0
 15931	040050	316 00 0 00 070276 		CAMN	[ZZ]		;*CAMN SHOULD SKIP BECAUSE C(AC) IS NOT EQUAL TO C(E)
 15932						STOP		^
 15933	040051	254 04 0 00 040052 		HALT	.+1		;TEST FAILED IF PROGRAM HALTS HERE
 15934	040052	324 00 0 00 040053 		JUMPA	.+1		;IF TEST FAILS, CHANGE THIS INSTRUCTION (JUMPA .+1) TO
 15935									;JUMPA X (X IS THE ADDRESS OF THE FIRST INSTRUCTION
 15936									;IN THE SUBTEST) TO LOOP ON ERROR^
 15937
 15938					;**********
 15939
 15940
 15941					;THIS TEST VERIFIES THAT CAMN SKIPS THE NEXT INSTRUCTION WHEN AND
 15942					;ONLY WHEN C(AC)=0 AND C(E)=FLOATING 1.  HENCE,
 15943					;CAMN SHOULD SKIP;  OTHERWISE, THE PROGRAM HALTS
 15944					;THIS TEST IS REPEATED 36 TIMES TO FLOAT A 1 THRU ALL 36 BITS OF E
 15945			001713		SN=SN+1
 15946			002000			ZZ=ZZ+ZZ
 15947						IFE	ZZ,<ZZ=1>
 15948	040053	400 00 0 00 000000 		SETZ			;PRELOAD AC WITH 0
 15949	040054	316 00 0 00 070277 		CAMN	[ZZ]		;*CAMN SHOULD SKIP BECAUSE C(AC) IS NOT EQUAL TO C(E)
 15950						STOP		^
 15951	040055	254 04 0 00 040056 		HALT	.+1		;TEST FAILED IF PROGRAM HALTS HERE
 15952	040056	324 00 0 00 040057 		JUMPA	.+1		;IF TEST FAILS, CHANGE THIS INSTRUCTION (JUMPA .+1) TO
 15953									;JUMPA X (X IS THE ADDRESS OF THE FIRST INSTRUCTION
 15954									;IN THE SUBTEST) TO LOOP ON ERROR^
 15955
 15956					;**********
 15957
 15958
 15959					;THIS TEST VERIFIES THAT CAMN SKIPS THE NEXT INSTRUCTION WHEN AND
 15960					;ONLY WHEN C(AC)=0 AND C(E)=FLOATING 1.  HENCE,
 15961					;CAMN SHOULD SKIP;  OTHERWISE, THE PROGRAM HALTS
 15962					;THIS TEST IS REPEATED 36 TIMES TO FLOAT A 1 THRU ALL 36 BITS OF E
DFKAA PDP-10 KL10 BASIC INSTRUCTION DIAGNOSTIC (1) VER 0,2	MACRO %53B(1254)-4 11:50 11-Nov-24 Page 24-4
DFKAA2	MAC	13-Jan-89 10:22		TEST OF COMPARE (CAMX) INSTRUCTIONS

 15963			001714		SN=SN+1
 15964			004000			ZZ=ZZ+ZZ
 15965						IFE	ZZ,<ZZ=1>
 15966	040057	400 00 0 00 000000 		SETZ			;PRELOAD AC WITH 0
 15967	040060	316 00 0 00 070300 		CAMN	[ZZ]		;*CAMN SHOULD SKIP BECAUSE C(AC) IS NOT EQUAL TO C(E)
 15968						STOP		^
 15969	040061	254 04 0 00 040062 		HALT	.+1		;TEST FAILED IF PROGRAM HALTS HERE
 15970	040062	324 00 0 00 040063 		JUMPA	.+1		;IF TEST FAILS, CHANGE THIS INSTRUCTION (JUMPA .+1) TO
 15971									;JUMPA X (X IS THE ADDRESS OF THE FIRST INSTRUCTION
 15972									;IN THE SUBTEST) TO LOOP ON ERROR^
 15973
 15974					;**********
 15975
 15976
 15977					;THIS TEST VERIFIES THAT CAMN SKIPS THE NEXT INSTRUCTION WHEN AND
 15978					;ONLY WHEN C(AC)=0 AND C(E)=FLOATING 1.  HENCE,
 15979					;CAMN SHOULD SKIP;  OTHERWISE, THE PROGRAM HALTS
 15980					;THIS TEST IS REPEATED 36 TIMES TO FLOAT A 1 THRU ALL 36 BITS OF E
 15981			001715		SN=SN+1
 15982			010000			ZZ=ZZ+ZZ
 15983						IFE	ZZ,<ZZ=1>
 15984	040063	400 00 0 00 000000 		SETZ			;PRELOAD AC WITH 0
 15985	040064	316 00 0 00 070301 		CAMN	[ZZ]		;*CAMN SHOULD SKIP BECAUSE C(AC) IS NOT EQUAL TO C(E)
 15986						STOP		^
 15987	040065	254 04 0 00 040066 		HALT	.+1		;TEST FAILED IF PROGRAM HALTS HERE
 15988	040066	324 00 0 00 040067 		JUMPA	.+1		;IF TEST FAILS, CHANGE THIS INSTRUCTION (JUMPA .+1) TO
 15989									;JUMPA X (X IS THE ADDRESS OF THE FIRST INSTRUCTION
 15990									;IN THE SUBTEST) TO LOOP ON ERROR^
 15991
 15992					;**********
 15993
 15994
 15995					;THIS TEST VERIFIES THAT CAMN SKIPS THE NEXT INSTRUCTION WHEN AND
 15996					;ONLY WHEN C(AC)=0 AND C(E)=FLOATING 1.  HENCE,
 15997					;CAMN SHOULD SKIP;  OTHERWISE, THE PROGRAM HALTS
 15998					;THIS TEST IS REPEATED 36 TIMES TO FLOAT A 1 THRU ALL 36 BITS OF E
 15999			001716		SN=SN+1
 16000			020000			ZZ=ZZ+ZZ
 16001						IFE	ZZ,<ZZ=1>
 16002	040067	400 00 0 00 000000 		SETZ			;PRELOAD AC WITH 0
 16003	040070	316 00 0 00 070302 		CAMN	[ZZ]		;*CAMN SHOULD SKIP BECAUSE C(AC) IS NOT EQUAL TO C(E)
 16004						STOP		^
 16005	040071	254 04 0 00 040072 		HALT	.+1		;TEST FAILED IF PROGRAM HALTS HERE
 16006	040072	324 00 0 00 040073 		JUMPA	.+1		;IF TEST FAILS, CHANGE THIS INSTRUCTION (JUMPA .+1) TO
 16007									;JUMPA X (X IS THE ADDRESS OF THE FIRST INSTRUCTION
 16008									;IN THE SUBTEST) TO LOOP ON ERROR^
 16009
 16010					;**********
 16011
 16012
 16013					;THIS TEST VERIFIES THAT CAMN SKIPS THE NEXT INSTRUCTION WHEN AND
 16014					;ONLY WHEN C(AC)=0 AND C(E)=FLOATING 1.  HENCE,
 16015					;CAMN SHOULD SKIP;  OTHERWISE, THE PROGRAM HALTS
 16016					;THIS TEST IS REPEATED 36 TIMES TO FLOAT A 1 THRU ALL 36 BITS OF E
 16017			001717		SN=SN+1
DFKAA PDP-10 KL10 BASIC INSTRUCTION DIAGNOSTIC (1) VER 0,2	MACRO %53B(1254)-4 11:50 11-Nov-24 Page 24-5
DFKAA2	MAC	13-Jan-89 10:22		TEST OF COMPARE (CAMX) INSTRUCTIONS

 16018			040000			ZZ=ZZ+ZZ
 16019						IFE	ZZ,<ZZ=1>
 16020	040073	400 00 0 00 000000 		SETZ			;PRELOAD AC WITH 0
 16021	040074	316 00 0 00 070303 		CAMN	[ZZ]		;*CAMN SHOULD SKIP BECAUSE C(AC) IS NOT EQUAL TO C(E)
 16022						STOP		^
 16023	040075	254 04 0 00 040076 		HALT	.+1		;TEST FAILED IF PROGRAM HALTS HERE
 16024	040076	324 00 0 00 040077 		JUMPA	.+1		;IF TEST FAILS, CHANGE THIS INSTRUCTION (JUMPA .+1) TO
 16025									;JUMPA X (X IS THE ADDRESS OF THE FIRST INSTRUCTION
 16026									;IN THE SUBTEST) TO LOOP ON ERROR^
 16027
 16028					;**********
 16029
 16030
 16031					;THIS TEST VERIFIES THAT CAMN SKIPS THE NEXT INSTRUCTION WHEN AND
 16032					;ONLY WHEN C(AC)=0 AND C(E)=FLOATING 1.  HENCE,
 16033					;CAMN SHOULD SKIP;  OTHERWISE, THE PROGRAM HALTS
 16034					;THIS TEST IS REPEATED 36 TIMES TO FLOAT A 1 THRU ALL 36 BITS OF E
 16035			001720		SN=SN+1
 16036			100000			ZZ=ZZ+ZZ
 16037						IFE	ZZ,<ZZ=1>
 16038	040077	400 00 0 00 000000 		SETZ			;PRELOAD AC WITH 0
 16039	040100	316 00 0 00 070304 		CAMN	[ZZ]		;*CAMN SHOULD SKIP BECAUSE C(AC) IS NOT EQUAL TO C(E)
 16040						STOP		^
 16041	040101	254 04 0 00 040102 		HALT	.+1		;TEST FAILED IF PROGRAM HALTS HERE
 16042	040102	324 00 0 00 040103 		JUMPA	.+1		;IF TEST FAILS, CHANGE THIS INSTRUCTION (JUMPA .+1) TO
 16043									;JUMPA X (X IS THE ADDRESS OF THE FIRST INSTRUCTION
 16044									;IN THE SUBTEST) TO LOOP ON ERROR^
 16045
 16046					;**********
 16047
 16048
 16049					;THIS TEST VERIFIES THAT CAMN SKIPS THE NEXT INSTRUCTION WHEN AND
 16050					;ONLY WHEN C(AC)=0 AND C(E)=FLOATING 1.  HENCE,
 16051					;CAMN SHOULD SKIP;  OTHERWISE, THE PROGRAM HALTS
 16052					;THIS TEST IS REPEATED 36 TIMES TO FLOAT A 1 THRU ALL 36 BITS OF E
 16053			001721		SN=SN+1
 16054			200000			ZZ=ZZ+ZZ
 16055						IFE	ZZ,<ZZ=1>
 16056	040103	400 00 0 00 000000 		SETZ			;PRELOAD AC WITH 0
 16057	040104	316 00 0 00 070305 		CAMN	[ZZ]		;*CAMN SHOULD SKIP BECAUSE C(AC) IS NOT EQUAL TO C(E)
 16058						STOP		^
 16059	040105	254 04 0 00 040106 		HALT	.+1		;TEST FAILED IF PROGRAM HALTS HERE
 16060	040106	324 00 0 00 040107 		JUMPA	.+1		;IF TEST FAILS, CHANGE THIS INSTRUCTION (JUMPA .+1) TO
 16061									;JUMPA X (X IS THE ADDRESS OF THE FIRST INSTRUCTION
 16062									;IN THE SUBTEST) TO LOOP ON ERROR^
 16063
 16064					;**********
 16065
 16066
 16067					;THIS TEST VERIFIES THAT CAMN SKIPS THE NEXT INSTRUCTION WHEN AND
 16068					;ONLY WHEN C(AC)=0 AND C(E)=FLOATING 1.  HENCE,
 16069					;CAMN SHOULD SKIP;  OTHERWISE, THE PROGRAM HALTS
 16070					;THIS TEST IS REPEATED 36 TIMES TO FLOAT A 1 THRU ALL 36 BITS OF E
 16071			001722		SN=SN+1
 16072			400000			ZZ=ZZ+ZZ
DFKAA PDP-10 KL10 BASIC INSTRUCTION DIAGNOSTIC (1) VER 0,2	MACRO %53B(1254)-4 11:50 11-Nov-24 Page 24-6
DFKAA2	MAC	13-Jan-89 10:22		TEST OF COMPARE (CAMX) INSTRUCTIONS

 16073						IFE	ZZ,<ZZ=1>
 16074	040107	400 00 0 00 000000 		SETZ			;PRELOAD AC WITH 0
 16075	040110	316 00 0 00 070306 		CAMN	[ZZ]		;*CAMN SHOULD SKIP BECAUSE C(AC) IS NOT EQUAL TO C(E)
 16076						STOP		^
 16077	040111	254 04 0 00 040112 		HALT	.+1		;TEST FAILED IF PROGRAM HALTS HERE
 16078	040112	324 00 0 00 040113 		JUMPA	.+1		;IF TEST FAILS, CHANGE THIS INSTRUCTION (JUMPA .+1) TO
 16079									;JUMPA X (X IS THE ADDRESS OF THE FIRST INSTRUCTION
 16080									;IN THE SUBTEST) TO LOOP ON ERROR^
 16081
 16082					;**********
 16083
 16084
 16085					;THIS TEST VERIFIES THAT CAMN SKIPS THE NEXT INSTRUCTION WHEN AND
 16086					;ONLY WHEN C(AC)=0 AND C(E)=FLOATING 1.  HENCE,
 16087					;CAMN SHOULD SKIP;  OTHERWISE, THE PROGRAM HALTS
 16088					;THIS TEST IS REPEATED 36 TIMES TO FLOAT A 1 THRU ALL 36 BITS OF E
 16089			001723		SN=SN+1
 16090		000001	000000			ZZ=ZZ+ZZ
 16091						IFE	ZZ,<ZZ=1>
 16092	040113	400 00 0 00 000000 		SETZ			;PRELOAD AC WITH 0
 16093	040114	316 00 0 00 070307 		CAMN	[ZZ]		;*CAMN SHOULD SKIP BECAUSE C(AC) IS NOT EQUAL TO C(E)
 16094						STOP		^
 16095	040115	254 04 0 00 040116 		HALT	.+1		;TEST FAILED IF PROGRAM HALTS HERE
 16096	040116	324 00 0 00 040117 		JUMPA	.+1		;IF TEST FAILS, CHANGE THIS INSTRUCTION (JUMPA .+1) TO
 16097									;JUMPA X (X IS THE ADDRESS OF THE FIRST INSTRUCTION
 16098									;IN THE SUBTEST) TO LOOP ON ERROR^
 16099
 16100					;**********
 16101
 16102
 16103					;THIS TEST VERIFIES THAT CAMN SKIPS THE NEXT INSTRUCTION WHEN AND
 16104					;ONLY WHEN C(AC)=0 AND C(E)=FLOATING 1.  HENCE,
 16105					;CAMN SHOULD SKIP;  OTHERWISE, THE PROGRAM HALTS
 16106					;THIS TEST IS REPEATED 36 TIMES TO FLOAT A 1 THRU ALL 36 BITS OF E
 16107			001724		SN=SN+1
 16108		000002	000000			ZZ=ZZ+ZZ
 16109						IFE	ZZ,<ZZ=1>
 16110	040117	400 00 0 00 000000 		SETZ			;PRELOAD AC WITH 0
 16111	040120	316 00 0 00 070310 		CAMN	[ZZ]		;*CAMN SHOULD SKIP BECAUSE C(AC) IS NOT EQUAL TO C(E)
 16112						STOP		^
 16113	040121	254 04 0 00 040122 		HALT	.+1		;TEST FAILED IF PROGRAM HALTS HERE
 16114	040122	324 00 0 00 040123 		JUMPA	.+1		;IF TEST FAILS, CHANGE THIS INSTRUCTION (JUMPA .+1) TO
 16115									;JUMPA X (X IS THE ADDRESS OF THE FIRST INSTRUCTION
 16116									;IN THE SUBTEST) TO LOOP ON ERROR^
 16117
 16118					;**********
 16119
 16120
 16121					;THIS TEST VERIFIES THAT CAMN SKIPS THE NEXT INSTRUCTION WHEN AND
 16122					;ONLY WHEN C(AC)=0 AND C(E)=FLOATING 1.  HENCE,
 16123					;CAMN SHOULD SKIP;  OTHERWISE, THE PROGRAM HALTS
 16124					;THIS TEST IS REPEATED 36 TIMES TO FLOAT A 1 THRU ALL 36 BITS OF E
 16125			001725		SN=SN+1
 16126		000004	000000			ZZ=ZZ+ZZ
 16127						IFE	ZZ,<ZZ=1>
DFKAA PDP-10 KL10 BASIC INSTRUCTION DIAGNOSTIC (1) VER 0,2	MACRO %53B(1254)-4 11:50 11-Nov-24 Page 24-7
DFKAA2	MAC	13-Jan-89 10:22		TEST OF COMPARE (CAMX) INSTRUCTIONS

 16128	040123	400 00 0 00 000000 		SETZ			;PRELOAD AC WITH 0
 16129	040124	316 00 0 00 070311 		CAMN	[ZZ]		;*CAMN SHOULD SKIP BECAUSE C(AC) IS NOT EQUAL TO C(E)
 16130						STOP		^
 16131	040125	254 04 0 00 040126 		HALT	.+1		;TEST FAILED IF PROGRAM HALTS HERE
 16132	040126	324 00 0 00 040127 		JUMPA	.+1		;IF TEST FAILS, CHANGE THIS INSTRUCTION (JUMPA .+1) TO
 16133									;JUMPA X (X IS THE ADDRESS OF THE FIRST INSTRUCTION
 16134									;IN THE SUBTEST) TO LOOP ON ERROR^
 16135
 16136					;**********
 16137
 16138
 16139					;THIS TEST VERIFIES THAT CAMN SKIPS THE NEXT INSTRUCTION WHEN AND
 16140					;ONLY WHEN C(AC)=0 AND C(E)=FLOATING 1.  HENCE,
 16141					;CAMN SHOULD SKIP;  OTHERWISE, THE PROGRAM HALTS
 16142					;THIS TEST IS REPEATED 36 TIMES TO FLOAT A 1 THRU ALL 36 BITS OF E
 16143			001726		SN=SN+1
 16144		000010	000000			ZZ=ZZ+ZZ
 16145						IFE	ZZ,<ZZ=1>
 16146	040127	400 00 0 00 000000 		SETZ			;PRELOAD AC WITH 0
 16147	040130	316 00 0 00 070312 		CAMN	[ZZ]		;*CAMN SHOULD SKIP BECAUSE C(AC) IS NOT EQUAL TO C(E)
 16148						STOP		^
 16149	040131	254 04 0 00 040132 		HALT	.+1		;TEST FAILED IF PROGRAM HALTS HERE
 16150	040132	324 00 0 00 040133 		JUMPA	.+1		;IF TEST FAILS, CHANGE THIS INSTRUCTION (JUMPA .+1) TO
 16151									;JUMPA X (X IS THE ADDRESS OF THE FIRST INSTRUCTION
 16152									;IN THE SUBTEST) TO LOOP ON ERROR^
 16153
 16154					;**********
 16155
 16156
 16157					;THIS TEST VERIFIES THAT CAMN SKIPS THE NEXT INSTRUCTION WHEN AND
 16158					;ONLY WHEN C(AC)=0 AND C(E)=FLOATING 1.  HENCE,
 16159					;CAMN SHOULD SKIP;  OTHERWISE, THE PROGRAM HALTS
 16160					;THIS TEST IS REPEATED 36 TIMES TO FLOAT A 1 THRU ALL 36 BITS OF E
 16161			001727		SN=SN+1
 16162		000020	000000			ZZ=ZZ+ZZ
 16163						IFE	ZZ,<ZZ=1>
 16164	040133	400 00 0 00 000000 		SETZ			;PRELOAD AC WITH 0
 16165	040134	316 00 0 00 070313 		CAMN	[ZZ]		;*CAMN SHOULD SKIP BECAUSE C(AC) IS NOT EQUAL TO C(E)
 16166						STOP		^
 16167	040135	254 04 0 00 040136 		HALT	.+1		;TEST FAILED IF PROGRAM HALTS HERE
 16168	040136	324 00 0 00 040137 		JUMPA	.+1		;IF TEST FAILS, CHANGE THIS INSTRUCTION (JUMPA .+1) TO
 16169									;JUMPA X (X IS THE ADDRESS OF THE FIRST INSTRUCTION
 16170									;IN THE SUBTEST) TO LOOP ON ERROR^
 16171
 16172					;**********
 16173
 16174
 16175					;THIS TEST VERIFIES THAT CAMN SKIPS THE NEXT INSTRUCTION WHEN AND
 16176					;ONLY WHEN C(AC)=0 AND C(E)=FLOATING 1.  HENCE,
 16177					;CAMN SHOULD SKIP;  OTHERWISE, THE PROGRAM HALTS
 16178					;THIS TEST IS REPEATED 36 TIMES TO FLOAT A 1 THRU ALL 36 BITS OF E
 16179			001730		SN=SN+1
 16180		000040	000000			ZZ=ZZ+ZZ
 16181						IFE	ZZ,<ZZ=1>
 16182	040137	400 00 0 00 000000 		SETZ			;PRELOAD AC WITH 0
DFKAA PDP-10 KL10 BASIC INSTRUCTION DIAGNOSTIC (1) VER 0,2	MACRO %53B(1254)-4 11:50 11-Nov-24 Page 24-8
DFKAA2	MAC	13-Jan-89 10:22		TEST OF COMPARE (CAMX) INSTRUCTIONS

 16183	040140	316 00 0 00 070314 		CAMN	[ZZ]		;*CAMN SHOULD SKIP BECAUSE C(AC) IS NOT EQUAL TO C(E)
 16184						STOP		^
 16185	040141	254 04 0 00 040142 		HALT	.+1		;TEST FAILED IF PROGRAM HALTS HERE
 16186	040142	324 00 0 00 040143 		JUMPA	.+1		;IF TEST FAILS, CHANGE THIS INSTRUCTION (JUMPA .+1) TO
 16187									;JUMPA X (X IS THE ADDRESS OF THE FIRST INSTRUCTION
 16188									;IN THE SUBTEST) TO LOOP ON ERROR^
 16189
 16190					;**********
 16191
 16192
 16193					;THIS TEST VERIFIES THAT CAMN SKIPS THE NEXT INSTRUCTION WHEN AND
 16194					;ONLY WHEN C(AC)=0 AND C(E)=FLOATING 1.  HENCE,
 16195					;CAMN SHOULD SKIP;  OTHERWISE, THE PROGRAM HALTS
 16196					;THIS TEST IS REPEATED 36 TIMES TO FLOAT A 1 THRU ALL 36 BITS OF E
 16197			001731		SN=SN+1
 16198		000100	000000			ZZ=ZZ+ZZ
 16199						IFE	ZZ,<ZZ=1>
 16200	040143	400 00 0 00 000000 		SETZ			;PRELOAD AC WITH 0
 16201	040144	316 00 0 00 070315 		CAMN	[ZZ]		;*CAMN SHOULD SKIP BECAUSE C(AC) IS NOT EQUAL TO C(E)
 16202						STOP		^
 16203	040145	254 04 0 00 040146 		HALT	.+1		;TEST FAILED IF PROGRAM HALTS HERE
 16204	040146	324 00 0 00 040147 		JUMPA	.+1		;IF TEST FAILS, CHANGE THIS INSTRUCTION (JUMPA .+1) TO
 16205									;JUMPA X (X IS THE ADDRESS OF THE FIRST INSTRUCTION
 16206									;IN THE SUBTEST) TO LOOP ON ERROR^
 16207
 16208					;**********
 16209
 16210
 16211					;THIS TEST VERIFIES THAT CAMN SKIPS THE NEXT INSTRUCTION WHEN AND
 16212					;ONLY WHEN C(AC)=0 AND C(E)=FLOATING 1.  HENCE,
 16213					;CAMN SHOULD SKIP;  OTHERWISE, THE PROGRAM HALTS
 16214					;THIS TEST IS REPEATED 36 TIMES TO FLOAT A 1 THRU ALL 36 BITS OF E
 16215			001732		SN=SN+1
 16216		000200	000000			ZZ=ZZ+ZZ
 16217						IFE	ZZ,<ZZ=1>
 16218	040147	400 00 0 00 000000 		SETZ			;PRELOAD AC WITH 0
 16219	040150	316 00 0 00 070316 		CAMN	[ZZ]		;*CAMN SHOULD SKIP BECAUSE C(AC) IS NOT EQUAL TO C(E)
 16220						STOP		^
 16221	040151	254 04 0 00 040152 		HALT	.+1		;TEST FAILED IF PROGRAM HALTS HERE
 16222	040152	324 00 0 00 040153 		JUMPA	.+1		;IF TEST FAILS, CHANGE THIS INSTRUCTION (JUMPA .+1) TO
 16223									;JUMPA X (X IS THE ADDRESS OF THE FIRST INSTRUCTION
 16224									;IN THE SUBTEST) TO LOOP ON ERROR^
 16225
 16226					;**********
 16227
 16228
 16229					;THIS TEST VERIFIES THAT CAMN SKIPS THE NEXT INSTRUCTION WHEN AND
 16230					;ONLY WHEN C(AC)=0 AND C(E)=FLOATING 1.  HENCE,
 16231					;CAMN SHOULD SKIP;  OTHERWISE, THE PROGRAM HALTS
 16232					;THIS TEST IS REPEATED 36 TIMES TO FLOAT A 1 THRU ALL 36 BITS OF E
 16233			001733		SN=SN+1
 16234		000400	000000			ZZ=ZZ+ZZ
 16235						IFE	ZZ,<ZZ=1>
 16236	040153	400 00 0 00 000000 		SETZ			;PRELOAD AC WITH 0
 16237	040154	316 00 0 00 070264 		CAMN	[ZZ]		;*CAMN SHOULD SKIP BECAUSE C(AC) IS NOT EQUAL TO C(E)
DFKAA PDP-10 KL10 BASIC INSTRUCTION DIAGNOSTIC (1) VER 0,2	MACRO %53B(1254)-4 11:50 11-Nov-24 Page 24-9
DFKAA2	MAC	13-Jan-89 10:22		TEST OF COMPARE (CAMX) INSTRUCTIONS

 16238						STOP		^
 16239	040155	254 04 0 00 040156 		HALT	.+1		;TEST FAILED IF PROGRAM HALTS HERE
 16240	040156	324 00 0 00 040157 		JUMPA	.+1		;IF TEST FAILS, CHANGE THIS INSTRUCTION (JUMPA .+1) TO
 16241									;JUMPA X (X IS THE ADDRESS OF THE FIRST INSTRUCTION
 16242									;IN THE SUBTEST) TO LOOP ON ERROR^
 16243
 16244					;**********
 16245
 16246
 16247					;THIS TEST VERIFIES THAT CAMN SKIPS THE NEXT INSTRUCTION WHEN AND
 16248					;ONLY WHEN C(AC)=0 AND C(E)=FLOATING 1.  HENCE,
 16249					;CAMN SHOULD SKIP;  OTHERWISE, THE PROGRAM HALTS
 16250					;THIS TEST IS REPEATED 36 TIMES TO FLOAT A 1 THRU ALL 36 BITS OF E
 16251			001734		SN=SN+1
 16252		001000	000000			ZZ=ZZ+ZZ
 16253						IFE	ZZ,<ZZ=1>
 16254	040157	400 00 0 00 000000 		SETZ			;PRELOAD AC WITH 0
 16255	040160	316 00 0 00 070317 		CAMN	[ZZ]		;*CAMN SHOULD SKIP BECAUSE C(AC) IS NOT EQUAL TO C(E)
 16256						STOP		^
 16257	040161	254 04 0 00 040162 		HALT	.+1		;TEST FAILED IF PROGRAM HALTS HERE
 16258	040162	324 00 0 00 040163 		JUMPA	.+1		;IF TEST FAILS, CHANGE THIS INSTRUCTION (JUMPA .+1) TO
 16259									;JUMPA X (X IS THE ADDRESS OF THE FIRST INSTRUCTION
 16260									;IN THE SUBTEST) TO LOOP ON ERROR^
 16261
 16262					;**********
 16263
 16264
 16265					;THIS TEST VERIFIES THAT CAMN SKIPS THE NEXT INSTRUCTION WHEN AND
 16266					;ONLY WHEN C(AC)=0 AND C(E)=FLOATING 1.  HENCE,
 16267					;CAMN SHOULD SKIP;  OTHERWISE, THE PROGRAM HALTS
 16268					;THIS TEST IS REPEATED 36 TIMES TO FLOAT A 1 THRU ALL 36 BITS OF E
 16269			001735		SN=SN+1
 16270		002000	000000			ZZ=ZZ+ZZ
 16271						IFE	ZZ,<ZZ=1>
 16272	040163	400 00 0 00 000000 		SETZ			;PRELOAD AC WITH 0
 16273	040164	316 00 0 00 070320 		CAMN	[ZZ]		;*CAMN SHOULD SKIP BECAUSE C(AC) IS NOT EQUAL TO C(E)
 16274						STOP		^
 16275	040165	254 04 0 00 040166 		HALT	.+1		;TEST FAILED IF PROGRAM HALTS HERE
 16276	040166	324 00 0 00 040167 		JUMPA	.+1		;IF TEST FAILS, CHANGE THIS INSTRUCTION (JUMPA .+1) TO
 16277									;JUMPA X (X IS THE ADDRESS OF THE FIRST INSTRUCTION
 16278									;IN THE SUBTEST) TO LOOP ON ERROR^
 16279
 16280					;**********
 16281
 16282
 16283					;THIS TEST VERIFIES THAT CAMN SKIPS THE NEXT INSTRUCTION WHEN AND
 16284					;ONLY WHEN C(AC)=0 AND C(E)=FLOATING 1.  HENCE,
 16285					;CAMN SHOULD SKIP;  OTHERWISE, THE PROGRAM HALTS
 16286					;THIS TEST IS REPEATED 36 TIMES TO FLOAT A 1 THRU ALL 36 BITS OF E
 16287			001736		SN=SN+1
 16288		004000	000000			ZZ=ZZ+ZZ
 16289						IFE	ZZ,<ZZ=1>
 16290	040167	400 00 0 00 000000 		SETZ			;PRELOAD AC WITH 0
 16291	040170	316 00 0 00 070321 		CAMN	[ZZ]		;*CAMN SHOULD SKIP BECAUSE C(AC) IS NOT EQUAL TO C(E)
 16292						STOP		^
DFKAA PDP-10 KL10 BASIC INSTRUCTION DIAGNOSTIC (1) VER 0,2	MACRO %53B(1254)-4 11:50 11-Nov-24 Page 24-10
DFKAA2	MAC	13-Jan-89 10:22		TEST OF COMPARE (CAMX) INSTRUCTIONS

 16293	040171	254 04 0 00 040172 		HALT	.+1		;TEST FAILED IF PROGRAM HALTS HERE
 16294	040172	324 00 0 00 040173 		JUMPA	.+1		;IF TEST FAILS, CHANGE THIS INSTRUCTION (JUMPA .+1) TO
 16295									;JUMPA X (X IS THE ADDRESS OF THE FIRST INSTRUCTION
 16296									;IN THE SUBTEST) TO LOOP ON ERROR^
 16297
 16298					;**********
 16299
 16300
 16301					;THIS TEST VERIFIES THAT CAMN SKIPS THE NEXT INSTRUCTION WHEN AND
 16302					;ONLY WHEN C(AC)=0 AND C(E)=FLOATING 1.  HENCE,
 16303					;CAMN SHOULD SKIP;  OTHERWISE, THE PROGRAM HALTS
 16304					;THIS TEST IS REPEATED 36 TIMES TO FLOAT A 1 THRU ALL 36 BITS OF E
 16305			001737		SN=SN+1
 16306		010000	000000			ZZ=ZZ+ZZ
 16307						IFE	ZZ,<ZZ=1>
 16308	040173	400 00 0 00 000000 		SETZ			;PRELOAD AC WITH 0
 16309	040174	316 00 0 00 070322 		CAMN	[ZZ]		;*CAMN SHOULD SKIP BECAUSE C(AC) IS NOT EQUAL TO C(E)
 16310						STOP		^
 16311	040175	254 04 0 00 040176 		HALT	.+1		;TEST FAILED IF PROGRAM HALTS HERE
 16312	040176	324 00 0 00 040177 		JUMPA	.+1		;IF TEST FAILS, CHANGE THIS INSTRUCTION (JUMPA .+1) TO
 16313									;JUMPA X (X IS THE ADDRESS OF THE FIRST INSTRUCTION
 16314									;IN THE SUBTEST) TO LOOP ON ERROR^
 16315
 16316					;**********
 16317
 16318
 16319					;THIS TEST VERIFIES THAT CAMN SKIPS THE NEXT INSTRUCTION WHEN AND
 16320					;ONLY WHEN C(AC)=0 AND C(E)=FLOATING 1.  HENCE,
 16321					;CAMN SHOULD SKIP;  OTHERWISE, THE PROGRAM HALTS
 16322					;THIS TEST IS REPEATED 36 TIMES TO FLOAT A 1 THRU ALL 36 BITS OF E
 16323			001740		SN=SN+1
 16324		020000	000000			ZZ=ZZ+ZZ
 16325						IFE	ZZ,<ZZ=1>
 16326	040177	400 00 0 00 000000 		SETZ			;PRELOAD AC WITH 0
 16327	040200	316 00 0 00 070323 		CAMN	[ZZ]		;*CAMN SHOULD SKIP BECAUSE C(AC) IS NOT EQUAL TO C(E)
 16328						STOP		^
 16329	040201	254 04 0 00 040202 		HALT	.+1		;TEST FAILED IF PROGRAM HALTS HERE
 16330	040202	324 00 0 00 040203 		JUMPA	.+1		;IF TEST FAILS, CHANGE THIS INSTRUCTION (JUMPA .+1) TO
 16331									;JUMPA X (X IS THE ADDRESS OF THE FIRST INSTRUCTION
 16332									;IN THE SUBTEST) TO LOOP ON ERROR^
 16333
 16334					;**********
 16335
 16336
 16337					;THIS TEST VERIFIES THAT CAMN SKIPS THE NEXT INSTRUCTION WHEN AND
 16338					;ONLY WHEN C(AC)=0 AND C(E)=FLOATING 1.  HENCE,
 16339					;CAMN SHOULD SKIP;  OTHERWISE, THE PROGRAM HALTS
 16340					;THIS TEST IS REPEATED 36 TIMES TO FLOAT A 1 THRU ALL 36 BITS OF E
 16341			001741		SN=SN+1
 16342		040000	000000			ZZ=ZZ+ZZ
 16343						IFE	ZZ,<ZZ=1>
 16344	040203	400 00 0 00 000000 		SETZ			;PRELOAD AC WITH 0
 16345	040204	316 00 0 00 070324 		CAMN	[ZZ]		;*CAMN SHOULD SKIP BECAUSE C(AC) IS NOT EQUAL TO C(E)
 16346						STOP		^
 16347	040205	254 04 0 00 040206 		HALT	.+1		;TEST FAILED IF PROGRAM HALTS HERE
DFKAA PDP-10 KL10 BASIC INSTRUCTION DIAGNOSTIC (1) VER 0,2	MACRO %53B(1254)-4 11:50 11-Nov-24 Page 24-11
DFKAA2	MAC	13-Jan-89 10:22		TEST OF COMPARE (CAMX) INSTRUCTIONS

 16348	040206	324 00 0 00 040207 		JUMPA	.+1		;IF TEST FAILS, CHANGE THIS INSTRUCTION (JUMPA .+1) TO
 16349									;JUMPA X (X IS THE ADDRESS OF THE FIRST INSTRUCTION
 16350									;IN THE SUBTEST) TO LOOP ON ERROR^
 16351
 16352					;**********
 16353
 16354
 16355					;THIS TEST VERIFIES THAT CAMN SKIPS THE NEXT INSTRUCTION WHEN AND
 16356					;ONLY WHEN C(AC)=0 AND C(E)=FLOATING 1.  HENCE,
 16357					;CAMN SHOULD SKIP;  OTHERWISE, THE PROGRAM HALTS
 16358					;THIS TEST IS REPEATED 36 TIMES TO FLOAT A 1 THRU ALL 36 BITS OF E
 16359			001742		SN=SN+1
 16360		100000	000000			ZZ=ZZ+ZZ
 16361						IFE	ZZ,<ZZ=1>
 16362	040207	400 00 0 00 000000 		SETZ			;PRELOAD AC WITH 0
 16363	040210	316 00 0 00 070325 		CAMN	[ZZ]		;*CAMN SHOULD SKIP BECAUSE C(AC) IS NOT EQUAL TO C(E)
 16364						STOP		^
 16365	040211	254 04 0 00 040212 		HALT	.+1		;TEST FAILED IF PROGRAM HALTS HERE
 16366	040212	324 00 0 00 040213 		JUMPA	.+1		;IF TEST FAILS, CHANGE THIS INSTRUCTION (JUMPA .+1) TO
 16367									;JUMPA X (X IS THE ADDRESS OF THE FIRST INSTRUCTION
 16368									;IN THE SUBTEST) TO LOOP ON ERROR^
 16369
 16370					;**********
 16371
 16372
 16373					;THIS TEST VERIFIES THAT CAMN SKIPS THE NEXT INSTRUCTION WHEN AND
 16374					;ONLY WHEN C(AC)=0 AND C(E)=FLOATING 1.  HENCE,
 16375					;CAMN SHOULD SKIP;  OTHERWISE, THE PROGRAM HALTS
 16376					;THIS TEST IS REPEATED 36 TIMES TO FLOAT A 1 THRU ALL 36 BITS OF E
 16377			001743		SN=SN+1
 16378		200000	000000			ZZ=ZZ+ZZ
 16379						IFE	ZZ,<ZZ=1>
 16380	040213	400 00 0 00 000000 		SETZ			;PRELOAD AC WITH 0
 16381	040214	316 00 0 00 070326 		CAMN	[ZZ]		;*CAMN SHOULD SKIP BECAUSE C(AC) IS NOT EQUAL TO C(E)
 16382						STOP		^
 16383	040215	254 04 0 00 040216 		HALT	.+1		;TEST FAILED IF PROGRAM HALTS HERE
 16384	040216	324 00 0 00 040217 		JUMPA	.+1		;IF TEST FAILS, CHANGE THIS INSTRUCTION (JUMPA .+1) TO
 16385									;JUMPA X (X IS THE ADDRESS OF THE FIRST INSTRUCTION
 16386									;IN THE SUBTEST) TO LOOP ON ERROR^
 16387
 16388					;**********
 16389
 16390
 16391					;THIS TEST VERIFIES THAT CAMN SKIPS THE NEXT INSTRUCTION WHEN AND
 16392					;ONLY WHEN C(AC)=0 AND C(E)=FLOATING 1.  HENCE,
 16393					;CAMN SHOULD SKIP;  OTHERWISE, THE PROGRAM HALTS
 16394					;THIS TEST IS REPEATED 36 TIMES TO FLOAT A 1 THRU ALL 36 BITS OF E
 16395			001744		SN=SN+1
 16396		400000	000000			ZZ=ZZ+ZZ
 16397						IFE	ZZ,<ZZ=1>
 16398	040217	400 00 0 00 000000 		SETZ			;PRELOAD AC WITH 0
 16399	040220	316 00 0 00 070256 		CAMN	[ZZ]		;*CAMN SHOULD SKIP BECAUSE C(AC) IS NOT EQUAL TO C(E)
 16400						STOP		^
 16401	040221	254 04 0 00 040222 		HALT	.+1		;TEST FAILED IF PROGRAM HALTS HERE
 16402	040222	324 00 0 00 040223 		JUMPA	.+1		;IF TEST FAILS, CHANGE THIS INSTRUCTION (JUMPA .+1) TO
DFKAA PDP-10 KL10 BASIC INSTRUCTION DIAGNOSTIC (1) VER 0,2	MACRO %53B(1254)-4 11:50 11-Nov-24 Page 24-12
DFKAA2	MAC	13-Jan-89 10:22		TEST OF COMPARE (CAMX) INSTRUCTIONS

 16403									;JUMPA X (X IS THE ADDRESS OF THE FIRST INSTRUCTION
 16404									;IN THE SUBTEST) TO LOOP ON ERROR^
 16405
 16406					;**********
 16407
DFKAA PDP-10 KL10 BASIC INSTRUCTION DIAGNOSTIC (1) VER 0,2	MACRO %53B(1254)-4 11:50 11-Nov-24 Page 25
DFKAA2	MAC	13-Jan-89 10:22		TEST OF COMPARE (CAMX) INSTRUCTIONS

 16408			002000		SN=2000
 16409			000000			ZZ=0
 16410
 16411					B2000:	REPEAT	^D36,<
 16412					;THIS TEST VERIFIES THAT CAMN SKIPS THE NEXT SEQUENTIAL INSTRUCTION WHEN AND
 16413					;ONLY WHEN C(AC) IS NOT EQUAL TO C(E).  HENCE,
 16414					;CAMN SHOULD SKIP;  OTHERWISE THE PROGRAM HALTS.
 16415					;THIS TEST IS REPEATED 36 TIMES TO FLOAT A 1 THRU ALL 36 BITS OF THE AC
 16416					SN=SN+1
 16417						ZZ=ZZ+ZZ
 16418						IFE	ZZ,<ZZ=1>
 16419						MOVE	[ZZ]		;PRELOAD AC WITH A FLOATING 1
 16420						CAMN	[0]		;*CAMN SHOULD SKIP BECAUSE C(AC) IS NOT EQUAL TO C(E)
 16421						STOP
 16422
 16423					;**********
 16424					>
 16425
 16426					;THIS TEST VERIFIES THAT CAMN SKIPS THE NEXT SEQUENTIAL INSTRUCTION WHEN AND
 16427					;ONLY WHEN C(AC) IS NOT EQUAL TO C(E).  HENCE,
 16428					;CAMN SHOULD SKIP;  OTHERWISE THE PROGRAM HALTS.
 16429					;THIS TEST IS REPEATED 36 TIMES TO FLOAT A 1 THRU ALL 36 BITS OF THE AC
 16430			002001		SN=SN+1
 16431			000000			ZZ=ZZ+ZZ
 16432			000001			IFE	ZZ,<ZZ=1>
 16433	040223	200 00 0 00 070265 		MOVE	[ZZ]		;PRELOAD AC WITH A FLOATING 1
 16434	040224	316 00 0 00 070253 		CAMN	[0]		;*CAMN SHOULD SKIP BECAUSE C(AC) IS NOT EQUAL TO C(E)
 16435						STOP^
 16436	040225	254 04 0 00 040226 		HALT	.+1		;TEST FAILED IF PROGRAM HALTS HERE
 16437	040226	324 00 0 00 040227 		JUMPA	.+1		;IF TEST FAILS, CHANGE THIS INSTRUCTION (JUMPA .+1) TO
 16438									;JUMPA X (X IS THE ADDRESS OF THE FIRST INSTRUCTION
 16439									;IN THE SUBTEST) TO LOOP ON ERROR^
 16440
 16441					;**********
 16442
 16443
 16444					;THIS TEST VERIFIES THAT CAMN SKIPS THE NEXT SEQUENTIAL INSTRUCTION WHEN AND
 16445					;ONLY WHEN C(AC) IS NOT EQUAL TO C(E).  HENCE,
 16446					;CAMN SHOULD SKIP;  OTHERWISE THE PROGRAM HALTS.
 16447					;THIS TEST IS REPEATED 36 TIMES TO FLOAT A 1 THRU ALL 36 BITS OF THE AC
 16448			002002		SN=SN+1
 16449			000002			ZZ=ZZ+ZZ
 16450						IFE	ZZ,<ZZ=1>
 16451	040227	200 00 0 00 070266 		MOVE	[ZZ]		;PRELOAD AC WITH A FLOATING 1
 16452	040230	316 00 0 00 070253 		CAMN	[0]		;*CAMN SHOULD SKIP BECAUSE C(AC) IS NOT EQUAL TO C(E)
 16453						STOP^
 16454	040231	254 04 0 00 040232 		HALT	.+1		;TEST FAILED IF PROGRAM HALTS HERE
 16455	040232	324 00 0 00 040233 		JUMPA	.+1		;IF TEST FAILS, CHANGE THIS INSTRUCTION (JUMPA .+1) TO
 16456									;JUMPA X (X IS THE ADDRESS OF THE FIRST INSTRUCTION
 16457									;IN THE SUBTEST) TO LOOP ON ERROR^
 16458
 16459					;**********
 16460
 16461
 16462					;THIS TEST VERIFIES THAT CAMN SKIPS THE NEXT SEQUENTIAL INSTRUCTION WHEN AND
DFKAA PDP-10 KL10 BASIC INSTRUCTION DIAGNOSTIC (1) VER 0,2	MACRO %53B(1254)-4 11:50 11-Nov-24 Page 25-1
DFKAA2	MAC	13-Jan-89 10:22		TEST OF COMPARE (CAMX) INSTRUCTIONS

 16463					;ONLY WHEN C(AC) IS NOT EQUAL TO C(E).  HENCE,
 16464					;CAMN SHOULD SKIP;  OTHERWISE THE PROGRAM HALTS.
 16465					;THIS TEST IS REPEATED 36 TIMES TO FLOAT A 1 THRU ALL 36 BITS OF THE AC
 16466			002003		SN=SN+1
 16467			000004			ZZ=ZZ+ZZ
 16468						IFE	ZZ,<ZZ=1>
 16469	040233	200 00 0 00 070267 		MOVE	[ZZ]		;PRELOAD AC WITH A FLOATING 1
 16470	040234	316 00 0 00 070253 		CAMN	[0]		;*CAMN SHOULD SKIP BECAUSE C(AC) IS NOT EQUAL TO C(E)
 16471						STOP^
 16472	040235	254 04 0 00 040236 		HALT	.+1		;TEST FAILED IF PROGRAM HALTS HERE
 16473	040236	324 00 0 00 040237 		JUMPA	.+1		;IF TEST FAILS, CHANGE THIS INSTRUCTION (JUMPA .+1) TO
 16474									;JUMPA X (X IS THE ADDRESS OF THE FIRST INSTRUCTION
 16475									;IN THE SUBTEST) TO LOOP ON ERROR^
 16476
 16477					;**********
 16478
 16479
 16480					;THIS TEST VERIFIES THAT CAMN SKIPS THE NEXT SEQUENTIAL INSTRUCTION WHEN AND
 16481					;ONLY WHEN C(AC) IS NOT EQUAL TO C(E).  HENCE,
 16482					;CAMN SHOULD SKIP;  OTHERWISE THE PROGRAM HALTS.
 16483					;THIS TEST IS REPEATED 36 TIMES TO FLOAT A 1 THRU ALL 36 BITS OF THE AC
 16484			002004		SN=SN+1
 16485			000010			ZZ=ZZ+ZZ
 16486						IFE	ZZ,<ZZ=1>
 16487	040237	200 00 0 00 070270 		MOVE	[ZZ]		;PRELOAD AC WITH A FLOATING 1
 16488	040240	316 00 0 00 070253 		CAMN	[0]		;*CAMN SHOULD SKIP BECAUSE C(AC) IS NOT EQUAL TO C(E)
 16489						STOP^
 16490	040241	254 04 0 00 040242 		HALT	.+1		;TEST FAILED IF PROGRAM HALTS HERE
 16491	040242	324 00 0 00 040243 		JUMPA	.+1		;IF TEST FAILS, CHANGE THIS INSTRUCTION (JUMPA .+1) TO
 16492									;JUMPA X (X IS THE ADDRESS OF THE FIRST INSTRUCTION
 16493									;IN THE SUBTEST) TO LOOP ON ERROR^
 16494
 16495					;**********
 16496
 16497
 16498					;THIS TEST VERIFIES THAT CAMN SKIPS THE NEXT SEQUENTIAL INSTRUCTION WHEN AND
 16499					;ONLY WHEN C(AC) IS NOT EQUAL TO C(E).  HENCE,
 16500					;CAMN SHOULD SKIP;  OTHERWISE THE PROGRAM HALTS.
 16501					;THIS TEST IS REPEATED 36 TIMES TO FLOAT A 1 THRU ALL 36 BITS OF THE AC
 16502			002005		SN=SN+1
 16503			000020			ZZ=ZZ+ZZ
 16504						IFE	ZZ,<ZZ=1>
 16505	040243	200 00 0 00 070271 		MOVE	[ZZ]		;PRELOAD AC WITH A FLOATING 1
 16506	040244	316 00 0 00 070253 		CAMN	[0]		;*CAMN SHOULD SKIP BECAUSE C(AC) IS NOT EQUAL TO C(E)
 16507						STOP^
 16508	040245	254 04 0 00 040246 		HALT	.+1		;TEST FAILED IF PROGRAM HALTS HERE
 16509	040246	324 00 0 00 040247 		JUMPA	.+1		;IF TEST FAILS, CHANGE THIS INSTRUCTION (JUMPA .+1) TO
 16510									;JUMPA X (X IS THE ADDRESS OF THE FIRST INSTRUCTION
 16511									;IN THE SUBTEST) TO LOOP ON ERROR^
 16512
 16513					;**********
 16514
 16515
 16516					;THIS TEST VERIFIES THAT CAMN SKIPS THE NEXT SEQUENTIAL INSTRUCTION WHEN AND
 16517					;ONLY WHEN C(AC) IS NOT EQUAL TO C(E).  HENCE,
DFKAA PDP-10 KL10 BASIC INSTRUCTION DIAGNOSTIC (1) VER 0,2	MACRO %53B(1254)-4 11:50 11-Nov-24 Page 25-2
DFKAA2	MAC	13-Jan-89 10:22		TEST OF COMPARE (CAMX) INSTRUCTIONS

 16518					;CAMN SHOULD SKIP;  OTHERWISE THE PROGRAM HALTS.
 16519					;THIS TEST IS REPEATED 36 TIMES TO FLOAT A 1 THRU ALL 36 BITS OF THE AC
 16520			002006		SN=SN+1
 16521			000040			ZZ=ZZ+ZZ
 16522						IFE	ZZ,<ZZ=1>
 16523	040247	200 00 0 00 070272 		MOVE	[ZZ]		;PRELOAD AC WITH A FLOATING 1
 16524	040250	316 00 0 00 070253 		CAMN	[0]		;*CAMN SHOULD SKIP BECAUSE C(AC) IS NOT EQUAL TO C(E)
 16525						STOP^
 16526	040251	254 04 0 00 040252 		HALT	.+1		;TEST FAILED IF PROGRAM HALTS HERE
 16527	040252	324 00 0 00 040253 		JUMPA	.+1		;IF TEST FAILS, CHANGE THIS INSTRUCTION (JUMPA .+1) TO
 16528									;JUMPA X (X IS THE ADDRESS OF THE FIRST INSTRUCTION
 16529									;IN THE SUBTEST) TO LOOP ON ERROR^
 16530
 16531					;**********
 16532
 16533
 16534					;THIS TEST VERIFIES THAT CAMN SKIPS THE NEXT SEQUENTIAL INSTRUCTION WHEN AND
 16535					;ONLY WHEN C(AC) IS NOT EQUAL TO C(E).  HENCE,
 16536					;CAMN SHOULD SKIP;  OTHERWISE THE PROGRAM HALTS.
 16537					;THIS TEST IS REPEATED 36 TIMES TO FLOAT A 1 THRU ALL 36 BITS OF THE AC
 16538			002007		SN=SN+1
 16539			000100			ZZ=ZZ+ZZ
 16540						IFE	ZZ,<ZZ=1>
 16541	040253	200 00 0 00 070273 		MOVE	[ZZ]		;PRELOAD AC WITH A FLOATING 1
 16542	040254	316 00 0 00 070253 		CAMN	[0]		;*CAMN SHOULD SKIP BECAUSE C(AC) IS NOT EQUAL TO C(E)
 16543						STOP^
 16544	040255	254 04 0 00 040256 		HALT	.+1		;TEST FAILED IF PROGRAM HALTS HERE
 16545	040256	324 00 0 00 040257 		JUMPA	.+1		;IF TEST FAILS, CHANGE THIS INSTRUCTION (JUMPA .+1) TO
 16546									;JUMPA X (X IS THE ADDRESS OF THE FIRST INSTRUCTION
 16547									;IN THE SUBTEST) TO LOOP ON ERROR^
 16548
 16549					;**********
 16550
 16551
 16552					;THIS TEST VERIFIES THAT CAMN SKIPS THE NEXT SEQUENTIAL INSTRUCTION WHEN AND
 16553					;ONLY WHEN C(AC) IS NOT EQUAL TO C(E).  HENCE,
 16554					;CAMN SHOULD SKIP;  OTHERWISE THE PROGRAM HALTS.
 16555					;THIS TEST IS REPEATED 36 TIMES TO FLOAT A 1 THRU ALL 36 BITS OF THE AC
 16556			002010		SN=SN+1
 16557			000200			ZZ=ZZ+ZZ
 16558						IFE	ZZ,<ZZ=1>
 16559	040257	200 00 0 00 070274 		MOVE	[ZZ]		;PRELOAD AC WITH A FLOATING 1
 16560	040260	316 00 0 00 070253 		CAMN	[0]		;*CAMN SHOULD SKIP BECAUSE C(AC) IS NOT EQUAL TO C(E)
 16561						STOP^
 16562	040261	254 04 0 00 040262 		HALT	.+1		;TEST FAILED IF PROGRAM HALTS HERE
 16563	040262	324 00 0 00 040263 		JUMPA	.+1		;IF TEST FAILS, CHANGE THIS INSTRUCTION (JUMPA .+1) TO
 16564									;JUMPA X (X IS THE ADDRESS OF THE FIRST INSTRUCTION
 16565									;IN THE SUBTEST) TO LOOP ON ERROR^
 16566
 16567					;**********
 16568
 16569
 16570					;THIS TEST VERIFIES THAT CAMN SKIPS THE NEXT SEQUENTIAL INSTRUCTION WHEN AND
 16571					;ONLY WHEN C(AC) IS NOT EQUAL TO C(E).  HENCE,
 16572					;CAMN SHOULD SKIP;  OTHERWISE THE PROGRAM HALTS.
DFKAA PDP-10 KL10 BASIC INSTRUCTION DIAGNOSTIC (1) VER 0,2	MACRO %53B(1254)-4 11:50 11-Nov-24 Page 25-3
DFKAA2	MAC	13-Jan-89 10:22		TEST OF COMPARE (CAMX) INSTRUCTIONS

 16573					;THIS TEST IS REPEATED 36 TIMES TO FLOAT A 1 THRU ALL 36 BITS OF THE AC
 16574			002011		SN=SN+1
 16575			000400			ZZ=ZZ+ZZ
 16576						IFE	ZZ,<ZZ=1>
 16577	040263	200 00 0 00 070275 		MOVE	[ZZ]		;PRELOAD AC WITH A FLOATING 1
 16578	040264	316 00 0 00 070253 		CAMN	[0]		;*CAMN SHOULD SKIP BECAUSE C(AC) IS NOT EQUAL TO C(E)
 16579						STOP^
 16580	040265	254 04 0 00 040266 		HALT	.+1		;TEST FAILED IF PROGRAM HALTS HERE
 16581	040266	324 00 0 00 040267 		JUMPA	.+1		;IF TEST FAILS, CHANGE THIS INSTRUCTION (JUMPA .+1) TO
 16582									;JUMPA X (X IS THE ADDRESS OF THE FIRST INSTRUCTION
 16583									;IN THE SUBTEST) TO LOOP ON ERROR^
 16584
 16585					;**********
 16586
 16587
 16588					;THIS TEST VERIFIES THAT CAMN SKIPS THE NEXT SEQUENTIAL INSTRUCTION WHEN AND
 16589					;ONLY WHEN C(AC) IS NOT EQUAL TO C(E).  HENCE,
 16590					;CAMN SHOULD SKIP;  OTHERWISE THE PROGRAM HALTS.
 16591					;THIS TEST IS REPEATED 36 TIMES TO FLOAT A 1 THRU ALL 36 BITS OF THE AC
 16592			002012		SN=SN+1
 16593			001000			ZZ=ZZ+ZZ
 16594						IFE	ZZ,<ZZ=1>
 16595	040267	200 00 0 00 070276 		MOVE	[ZZ]		;PRELOAD AC WITH A FLOATING 1
 16596	040270	316 00 0 00 070253 		CAMN	[0]		;*CAMN SHOULD SKIP BECAUSE C(AC) IS NOT EQUAL TO C(E)
 16597						STOP^
 16598	040271	254 04 0 00 040272 		HALT	.+1		;TEST FAILED IF PROGRAM HALTS HERE
 16599	040272	324 00 0 00 040273 		JUMPA	.+1		;IF TEST FAILS, CHANGE THIS INSTRUCTION (JUMPA .+1) TO
 16600									;JUMPA X (X IS THE ADDRESS OF THE FIRST INSTRUCTION
 16601									;IN THE SUBTEST) TO LOOP ON ERROR^
 16602
 16603					;**********
 16604
 16605
 16606					;THIS TEST VERIFIES THAT CAMN SKIPS THE NEXT SEQUENTIAL INSTRUCTION WHEN AND
 16607					;ONLY WHEN C(AC) IS NOT EQUAL TO C(E).  HENCE,
 16608					;CAMN SHOULD SKIP;  OTHERWISE THE PROGRAM HALTS.
 16609					;THIS TEST IS REPEATED 36 TIMES TO FLOAT A 1 THRU ALL 36 BITS OF THE AC
 16610			002013		SN=SN+1
 16611			002000			ZZ=ZZ+ZZ
 16612						IFE	ZZ,<ZZ=1>
 16613	040273	200 00 0 00 070277 		MOVE	[ZZ]		;PRELOAD AC WITH A FLOATING 1
 16614	040274	316 00 0 00 070253 		CAMN	[0]		;*CAMN SHOULD SKIP BECAUSE C(AC) IS NOT EQUAL TO C(E)
 16615						STOP^
 16616	040275	254 04 0 00 040276 		HALT	.+1		;TEST FAILED IF PROGRAM HALTS HERE
 16617	040276	324 00 0 00 040277 		JUMPA	.+1		;IF TEST FAILS, CHANGE THIS INSTRUCTION (JUMPA .+1) TO
 16618									;JUMPA X (X IS THE ADDRESS OF THE FIRST INSTRUCTION
 16619									;IN THE SUBTEST) TO LOOP ON ERROR^
 16620
 16621					;**********
 16622
 16623
 16624					;THIS TEST VERIFIES THAT CAMN SKIPS THE NEXT SEQUENTIAL INSTRUCTION WHEN AND
 16625					;ONLY WHEN C(AC) IS NOT EQUAL TO C(E).  HENCE,
 16626					;CAMN SHOULD SKIP;  OTHERWISE THE PROGRAM HALTS.
 16627					;THIS TEST IS REPEATED 36 TIMES TO FLOAT A 1 THRU ALL 36 BITS OF THE AC
DFKAA PDP-10 KL10 BASIC INSTRUCTION DIAGNOSTIC (1) VER 0,2	MACRO %53B(1254)-4 11:50 11-Nov-24 Page 25-4
DFKAA2	MAC	13-Jan-89 10:22		TEST OF COMPARE (CAMX) INSTRUCTIONS

 16628			002014		SN=SN+1
 16629			004000			ZZ=ZZ+ZZ
 16630						IFE	ZZ,<ZZ=1>
 16631	040277	200 00 0 00 070300 		MOVE	[ZZ]		;PRELOAD AC WITH A FLOATING 1
 16632	040300	316 00 0 00 070253 		CAMN	[0]		;*CAMN SHOULD SKIP BECAUSE C(AC) IS NOT EQUAL TO C(E)
 16633						STOP^
 16634	040301	254 04 0 00 040302 		HALT	.+1		;TEST FAILED IF PROGRAM HALTS HERE
 16635	040302	324 00 0 00 040303 		JUMPA	.+1		;IF TEST FAILS, CHANGE THIS INSTRUCTION (JUMPA .+1) TO
 16636									;JUMPA X (X IS THE ADDRESS OF THE FIRST INSTRUCTION
 16637									;IN THE SUBTEST) TO LOOP ON ERROR^
 16638
 16639					;**********
 16640
 16641
 16642					;THIS TEST VERIFIES THAT CAMN SKIPS THE NEXT SEQUENTIAL INSTRUCTION WHEN AND
 16643					;ONLY WHEN C(AC) IS NOT EQUAL TO C(E).  HENCE,
 16644					;CAMN SHOULD SKIP;  OTHERWISE THE PROGRAM HALTS.
 16645					;THIS TEST IS REPEATED 36 TIMES TO FLOAT A 1 THRU ALL 36 BITS OF THE AC
 16646			002015		SN=SN+1
 16647			010000			ZZ=ZZ+ZZ
 16648						IFE	ZZ,<ZZ=1>
 16649	040303	200 00 0 00 070301 		MOVE	[ZZ]		;PRELOAD AC WITH A FLOATING 1
 16650	040304	316 00 0 00 070253 		CAMN	[0]		;*CAMN SHOULD SKIP BECAUSE C(AC) IS NOT EQUAL TO C(E)
 16651						STOP^
 16652	040305	254 04 0 00 040306 		HALT	.+1		;TEST FAILED IF PROGRAM HALTS HERE
 16653	040306	324 00 0 00 040307 		JUMPA	.+1		;IF TEST FAILS, CHANGE THIS INSTRUCTION (JUMPA .+1) TO
 16654									;JUMPA X (X IS THE ADDRESS OF THE FIRST INSTRUCTION
 16655									;IN THE SUBTEST) TO LOOP ON ERROR^
 16656
 16657					;**********
 16658
 16659
 16660					;THIS TEST VERIFIES THAT CAMN SKIPS THE NEXT SEQUENTIAL INSTRUCTION WHEN AND
 16661					;ONLY WHEN C(AC) IS NOT EQUAL TO C(E).  HENCE,
 16662					;CAMN SHOULD SKIP;  OTHERWISE THE PROGRAM HALTS.
 16663					;THIS TEST IS REPEATED 36 TIMES TO FLOAT A 1 THRU ALL 36 BITS OF THE AC
 16664			002016		SN=SN+1
 16665			020000			ZZ=ZZ+ZZ
 16666						IFE	ZZ,<ZZ=1>
 16667	040307	200 00 0 00 070302 		MOVE	[ZZ]		;PRELOAD AC WITH A FLOATING 1
 16668	040310	316 00 0 00 070253 		CAMN	[0]		;*CAMN SHOULD SKIP BECAUSE C(AC) IS NOT EQUAL TO C(E)
 16669						STOP^
 16670	040311	254 04 0 00 040312 		HALT	.+1		;TEST FAILED IF PROGRAM HALTS HERE
 16671	040312	324 00 0 00 040313 		JUMPA	.+1		;IF TEST FAILS, CHANGE THIS INSTRUCTION (JUMPA .+1) TO
 16672									;JUMPA X (X IS THE ADDRESS OF THE FIRST INSTRUCTION
 16673									;IN THE SUBTEST) TO LOOP ON ERROR^
 16674
 16675					;**********
 16676
 16677
 16678					;THIS TEST VERIFIES THAT CAMN SKIPS THE NEXT SEQUENTIAL INSTRUCTION WHEN AND
 16679					;ONLY WHEN C(AC) IS NOT EQUAL TO C(E).  HENCE,
 16680					;CAMN SHOULD SKIP;  OTHERWISE THE PROGRAM HALTS.
 16681					;THIS TEST IS REPEATED 36 TIMES TO FLOAT A 1 THRU ALL 36 BITS OF THE AC
 16682			002017		SN=SN+1
DFKAA PDP-10 KL10 BASIC INSTRUCTION DIAGNOSTIC (1) VER 0,2	MACRO %53B(1254)-4 11:50 11-Nov-24 Page 25-5
DFKAA2	MAC	13-Jan-89 10:22		TEST OF COMPARE (CAMX) INSTRUCTIONS

 16683			040000			ZZ=ZZ+ZZ
 16684						IFE	ZZ,<ZZ=1>
 16685	040313	200 00 0 00 070303 		MOVE	[ZZ]		;PRELOAD AC WITH A FLOATING 1
 16686	040314	316 00 0 00 070253 		CAMN	[0]		;*CAMN SHOULD SKIP BECAUSE C(AC) IS NOT EQUAL TO C(E)
 16687						STOP^
 16688	040315	254 04 0 00 040316 		HALT	.+1		;TEST FAILED IF PROGRAM HALTS HERE
 16689	040316	324 00 0 00 040317 		JUMPA	.+1		;IF TEST FAILS, CHANGE THIS INSTRUCTION (JUMPA .+1) TO
 16690									;JUMPA X (X IS THE ADDRESS OF THE FIRST INSTRUCTION
 16691									;IN THE SUBTEST) TO LOOP ON ERROR^
 16692
 16693					;**********
 16694
 16695
 16696					;THIS TEST VERIFIES THAT CAMN SKIPS THE NEXT SEQUENTIAL INSTRUCTION WHEN AND
 16697					;ONLY WHEN C(AC) IS NOT EQUAL TO C(E).  HENCE,
 16698					;CAMN SHOULD SKIP;  OTHERWISE THE PROGRAM HALTS.
 16699					;THIS TEST IS REPEATED 36 TIMES TO FLOAT A 1 THRU ALL 36 BITS OF THE AC
 16700			002020		SN=SN+1
 16701			100000			ZZ=ZZ+ZZ
 16702						IFE	ZZ,<ZZ=1>
 16703	040317	200 00 0 00 070304 		MOVE	[ZZ]		;PRELOAD AC WITH A FLOATING 1
 16704	040320	316 00 0 00 070253 		CAMN	[0]		;*CAMN SHOULD SKIP BECAUSE C(AC) IS NOT EQUAL TO C(E)
 16705						STOP^
 16706	040321	254 04 0 00 040322 		HALT	.+1		;TEST FAILED IF PROGRAM HALTS HERE
 16707	040322	324 00 0 00 040323 		JUMPA	.+1		;IF TEST FAILS, CHANGE THIS INSTRUCTION (JUMPA .+1) TO
 16708									;JUMPA X (X IS THE ADDRESS OF THE FIRST INSTRUCTION
 16709									;IN THE SUBTEST) TO LOOP ON ERROR^
 16710
 16711					;**********
 16712
 16713
 16714					;THIS TEST VERIFIES THAT CAMN SKIPS THE NEXT SEQUENTIAL INSTRUCTION WHEN AND
 16715					;ONLY WHEN C(AC) IS NOT EQUAL TO C(E).  HENCE,
 16716					;CAMN SHOULD SKIP;  OTHERWISE THE PROGRAM HALTS.
 16717					;THIS TEST IS REPEATED 36 TIMES TO FLOAT A 1 THRU ALL 36 BITS OF THE AC
 16718			002021		SN=SN+1
 16719			200000			ZZ=ZZ+ZZ
 16720						IFE	ZZ,<ZZ=1>
 16721	040323	200 00 0 00 070305 		MOVE	[ZZ]		;PRELOAD AC WITH A FLOATING 1
 16722	040324	316 00 0 00 070253 		CAMN	[0]		;*CAMN SHOULD SKIP BECAUSE C(AC) IS NOT EQUAL TO C(E)
 16723						STOP^
 16724	040325	254 04 0 00 040326 		HALT	.+1		;TEST FAILED IF PROGRAM HALTS HERE
 16725	040326	324 00 0 00 040327 		JUMPA	.+1		;IF TEST FAILS, CHANGE THIS INSTRUCTION (JUMPA .+1) TO
 16726									;JUMPA X (X IS THE ADDRESS OF THE FIRST INSTRUCTION
 16727									;IN THE SUBTEST) TO LOOP ON ERROR^
 16728
 16729					;**********
 16730
 16731
 16732					;THIS TEST VERIFIES THAT CAMN SKIPS THE NEXT SEQUENTIAL INSTRUCTION WHEN AND
 16733					;ONLY WHEN C(AC) IS NOT EQUAL TO C(E).  HENCE,
 16734					;CAMN SHOULD SKIP;  OTHERWISE THE PROGRAM HALTS.
 16735					;THIS TEST IS REPEATED 36 TIMES TO FLOAT A 1 THRU ALL 36 BITS OF THE AC
 16736			002022		SN=SN+1
 16737			400000			ZZ=ZZ+ZZ
DFKAA PDP-10 KL10 BASIC INSTRUCTION DIAGNOSTIC (1) VER 0,2	MACRO %53B(1254)-4 11:50 11-Nov-24 Page 25-6
DFKAA2	MAC	13-Jan-89 10:22		TEST OF COMPARE (CAMX) INSTRUCTIONS

 16738						IFE	ZZ,<ZZ=1>
 16739	040327	200 00 0 00 070306 		MOVE	[ZZ]		;PRELOAD AC WITH A FLOATING 1
 16740	040330	316 00 0 00 070253 		CAMN	[0]		;*CAMN SHOULD SKIP BECAUSE C(AC) IS NOT EQUAL TO C(E)
 16741						STOP^
 16742	040331	254 04 0 00 040332 		HALT	.+1		;TEST FAILED IF PROGRAM HALTS HERE
 16743	040332	324 00 0 00 040333 		JUMPA	.+1		;IF TEST FAILS, CHANGE THIS INSTRUCTION (JUMPA .+1) TO
 16744									;JUMPA X (X IS THE ADDRESS OF THE FIRST INSTRUCTION
 16745									;IN THE SUBTEST) TO LOOP ON ERROR^
 16746
 16747					;**********
 16748
 16749
 16750					;THIS TEST VERIFIES THAT CAMN SKIPS THE NEXT SEQUENTIAL INSTRUCTION WHEN AND
 16751					;ONLY WHEN C(AC) IS NOT EQUAL TO C(E).  HENCE,
 16752					;CAMN SHOULD SKIP;  OTHERWISE THE PROGRAM HALTS.
 16753					;THIS TEST IS REPEATED 36 TIMES TO FLOAT A 1 THRU ALL 36 BITS OF THE AC
 16754			002023		SN=SN+1
 16755		000001	000000			ZZ=ZZ+ZZ
 16756						IFE	ZZ,<ZZ=1>
 16757	040333	200 00 0 00 070307 		MOVE	[ZZ]		;PRELOAD AC WITH A FLOATING 1
 16758	040334	316 00 0 00 070253 		CAMN	[0]		;*CAMN SHOULD SKIP BECAUSE C(AC) IS NOT EQUAL TO C(E)
 16759						STOP^
 16760	040335	254 04 0 00 040336 		HALT	.+1		;TEST FAILED IF PROGRAM HALTS HERE
 16761	040336	324 00 0 00 040337 		JUMPA	.+1		;IF TEST FAILS, CHANGE THIS INSTRUCTION (JUMPA .+1) TO
 16762									;JUMPA X (X IS THE ADDRESS OF THE FIRST INSTRUCTION
 16763									;IN THE SUBTEST) TO LOOP ON ERROR^
 16764
 16765					;**********
 16766
 16767
 16768					;THIS TEST VERIFIES THAT CAMN SKIPS THE NEXT SEQUENTIAL INSTRUCTION WHEN AND
 16769					;ONLY WHEN C(AC) IS NOT EQUAL TO C(E).  HENCE,
 16770					;CAMN SHOULD SKIP;  OTHERWISE THE PROGRAM HALTS.
 16771					;THIS TEST IS REPEATED 36 TIMES TO FLOAT A 1 THRU ALL 36 BITS OF THE AC
 16772			002024		SN=SN+1
 16773		000002	000000			ZZ=ZZ+ZZ
 16774						IFE	ZZ,<ZZ=1>
 16775	040337	200 00 0 00 070310 		MOVE	[ZZ]		;PRELOAD AC WITH A FLOATING 1
 16776	040340	316 00 0 00 070253 		CAMN	[0]		;*CAMN SHOULD SKIP BECAUSE C(AC) IS NOT EQUAL TO C(E)
 16777						STOP^
 16778	040341	254 04 0 00 040342 		HALT	.+1		;TEST FAILED IF PROGRAM HALTS HERE
 16779	040342	324 00 0 00 040343 		JUMPA	.+1		;IF TEST FAILS, CHANGE THIS INSTRUCTION (JUMPA .+1) TO
 16780									;JUMPA X (X IS THE ADDRESS OF THE FIRST INSTRUCTION
 16781									;IN THE SUBTEST) TO LOOP ON ERROR^
 16782
 16783					;**********
 16784
 16785
 16786					;THIS TEST VERIFIES THAT CAMN SKIPS THE NEXT SEQUENTIAL INSTRUCTION WHEN AND
 16787					;ONLY WHEN C(AC) IS NOT EQUAL TO C(E).  HENCE,
 16788					;CAMN SHOULD SKIP;  OTHERWISE THE PROGRAM HALTS.
 16789					;THIS TEST IS REPEATED 36 TIMES TO FLOAT A 1 THRU ALL 36 BITS OF THE AC
 16790			002025		SN=SN+1
 16791		000004	000000			ZZ=ZZ+ZZ
 16792						IFE	ZZ,<ZZ=1>
DFKAA PDP-10 KL10 BASIC INSTRUCTION DIAGNOSTIC (1) VER 0,2	MACRO %53B(1254)-4 11:50 11-Nov-24 Page 25-7
DFKAA2	MAC	13-Jan-89 10:22		TEST OF COMPARE (CAMX) INSTRUCTIONS

 16793	040343	200 00 0 00 070311 		MOVE	[ZZ]		;PRELOAD AC WITH A FLOATING 1
 16794	040344	316 00 0 00 070253 		CAMN	[0]		;*CAMN SHOULD SKIP BECAUSE C(AC) IS NOT EQUAL TO C(E)
 16795						STOP^
 16796	040345	254 04 0 00 040346 		HALT	.+1		;TEST FAILED IF PROGRAM HALTS HERE
 16797	040346	324 00 0 00 040347 		JUMPA	.+1		;IF TEST FAILS, CHANGE THIS INSTRUCTION (JUMPA .+1) TO
 16798									;JUMPA X (X IS THE ADDRESS OF THE FIRST INSTRUCTION
 16799									;IN THE SUBTEST) TO LOOP ON ERROR^
 16800
 16801					;**********
 16802
 16803
 16804					;THIS TEST VERIFIES THAT CAMN SKIPS THE NEXT SEQUENTIAL INSTRUCTION WHEN AND
 16805					;ONLY WHEN C(AC) IS NOT EQUAL TO C(E).  HENCE,
 16806					;CAMN SHOULD SKIP;  OTHERWISE THE PROGRAM HALTS.
 16807					;THIS TEST IS REPEATED 36 TIMES TO FLOAT A 1 THRU ALL 36 BITS OF THE AC
 16808			002026		SN=SN+1
 16809		000010	000000			ZZ=ZZ+ZZ
 16810						IFE	ZZ,<ZZ=1>
 16811	040347	200 00 0 00 070312 		MOVE	[ZZ]		;PRELOAD AC WITH A FLOATING 1
 16812	040350	316 00 0 00 070253 		CAMN	[0]		;*CAMN SHOULD SKIP BECAUSE C(AC) IS NOT EQUAL TO C(E)
 16813						STOP^
 16814	040351	254 04 0 00 040352 		HALT	.+1		;TEST FAILED IF PROGRAM HALTS HERE
 16815	040352	324 00 0 00 040353 		JUMPA	.+1		;IF TEST FAILS, CHANGE THIS INSTRUCTION (JUMPA .+1) TO
 16816									;JUMPA X (X IS THE ADDRESS OF THE FIRST INSTRUCTION
 16817									;IN THE SUBTEST) TO LOOP ON ERROR^
 16818
 16819					;**********
 16820
 16821
 16822					;THIS TEST VERIFIES THAT CAMN SKIPS THE NEXT SEQUENTIAL INSTRUCTION WHEN AND
 16823					;ONLY WHEN C(AC) IS NOT EQUAL TO C(E).  HENCE,
 16824					;CAMN SHOULD SKIP;  OTHERWISE THE PROGRAM HALTS.
 16825					;THIS TEST IS REPEATED 36 TIMES TO FLOAT A 1 THRU ALL 36 BITS OF THE AC
 16826			002027		SN=SN+1
 16827		000020	000000			ZZ=ZZ+ZZ
 16828						IFE	ZZ,<ZZ=1>
 16829	040353	200 00 0 00 070313 		MOVE	[ZZ]		;PRELOAD AC WITH A FLOATING 1
 16830	040354	316 00 0 00 070253 		CAMN	[0]		;*CAMN SHOULD SKIP BECAUSE C(AC) IS NOT EQUAL TO C(E)
 16831						STOP^
 16832	040355	254 04 0 00 040356 		HALT	.+1		;TEST FAILED IF PROGRAM HALTS HERE
 16833	040356	324 00 0 00 040357 		JUMPA	.+1		;IF TEST FAILS, CHANGE THIS INSTRUCTION (JUMPA .+1) TO
 16834									;JUMPA X (X IS THE ADDRESS OF THE FIRST INSTRUCTION
 16835									;IN THE SUBTEST) TO LOOP ON ERROR^
 16836
 16837					;**********
 16838
 16839
 16840					;THIS TEST VERIFIES THAT CAMN SKIPS THE NEXT SEQUENTIAL INSTRUCTION WHEN AND
 16841					;ONLY WHEN C(AC) IS NOT EQUAL TO C(E).  HENCE,
 16842					;CAMN SHOULD SKIP;  OTHERWISE THE PROGRAM HALTS.
 16843					;THIS TEST IS REPEATED 36 TIMES TO FLOAT A 1 THRU ALL 36 BITS OF THE AC
 16844			002030		SN=SN+1
 16845		000040	000000			ZZ=ZZ+ZZ
 16846						IFE	ZZ,<ZZ=1>
 16847	040357	200 00 0 00 070314 		MOVE	[ZZ]		;PRELOAD AC WITH A FLOATING 1
DFKAA PDP-10 KL10 BASIC INSTRUCTION DIAGNOSTIC (1) VER 0,2	MACRO %53B(1254)-4 11:50 11-Nov-24 Page 25-8
DFKAA2	MAC	13-Jan-89 10:22		TEST OF COMPARE (CAMX) INSTRUCTIONS

 16848	040360	316 00 0 00 070253 		CAMN	[0]		;*CAMN SHOULD SKIP BECAUSE C(AC) IS NOT EQUAL TO C(E)
 16849						STOP^
 16850	040361	254 04 0 00 040362 		HALT	.+1		;TEST FAILED IF PROGRAM HALTS HERE
 16851	040362	324 00 0 00 040363 		JUMPA	.+1		;IF TEST FAILS, CHANGE THIS INSTRUCTION (JUMPA .+1) TO
 16852									;JUMPA X (X IS THE ADDRESS OF THE FIRST INSTRUCTION
 16853									;IN THE SUBTEST) TO LOOP ON ERROR^
 16854
 16855					;**********
 16856
 16857
 16858					;THIS TEST VERIFIES THAT CAMN SKIPS THE NEXT SEQUENTIAL INSTRUCTION WHEN AND
 16859					;ONLY WHEN C(AC) IS NOT EQUAL TO C(E).  HENCE,
 16860					;CAMN SHOULD SKIP;  OTHERWISE THE PROGRAM HALTS.
 16861					;THIS TEST IS REPEATED 36 TIMES TO FLOAT A 1 THRU ALL 36 BITS OF THE AC
 16862			002031		SN=SN+1
 16863		000100	000000			ZZ=ZZ+ZZ
 16864						IFE	ZZ,<ZZ=1>
 16865	040363	200 00 0 00 070315 		MOVE	[ZZ]		;PRELOAD AC WITH A FLOATING 1
 16866	040364	316 00 0 00 070253 		CAMN	[0]		;*CAMN SHOULD SKIP BECAUSE C(AC) IS NOT EQUAL TO C(E)
 16867						STOP^
 16868	040365	254 04 0 00 040366 		HALT	.+1		;TEST FAILED IF PROGRAM HALTS HERE
 16869	040366	324 00 0 00 040367 		JUMPA	.+1		;IF TEST FAILS, CHANGE THIS INSTRUCTION (JUMPA .+1) TO
 16870									;JUMPA X (X IS THE ADDRESS OF THE FIRST INSTRUCTION
 16871									;IN THE SUBTEST) TO LOOP ON ERROR^
 16872
 16873					;**********
 16874
 16875
 16876					;THIS TEST VERIFIES THAT CAMN SKIPS THE NEXT SEQUENTIAL INSTRUCTION WHEN AND
 16877					;ONLY WHEN C(AC) IS NOT EQUAL TO C(E).  HENCE,
 16878					;CAMN SHOULD SKIP;  OTHERWISE THE PROGRAM HALTS.
 16879					;THIS TEST IS REPEATED 36 TIMES TO FLOAT A 1 THRU ALL 36 BITS OF THE AC
 16880			002032		SN=SN+1
 16881		000200	000000			ZZ=ZZ+ZZ
 16882						IFE	ZZ,<ZZ=1>
 16883	040367	200 00 0 00 070316 		MOVE	[ZZ]		;PRELOAD AC WITH A FLOATING 1
 16884	040370	316 00 0 00 070253 		CAMN	[0]		;*CAMN SHOULD SKIP BECAUSE C(AC) IS NOT EQUAL TO C(E)
 16885						STOP^
 16886	040371	254 04 0 00 040372 		HALT	.+1		;TEST FAILED IF PROGRAM HALTS HERE
 16887	040372	324 00 0 00 040373 		JUMPA	.+1		;IF TEST FAILS, CHANGE THIS INSTRUCTION (JUMPA .+1) TO
 16888									;JUMPA X (X IS THE ADDRESS OF THE FIRST INSTRUCTION
 16889									;IN THE SUBTEST) TO LOOP ON ERROR^
 16890
 16891					;**********
 16892
 16893
 16894					;THIS TEST VERIFIES THAT CAMN SKIPS THE NEXT SEQUENTIAL INSTRUCTION WHEN AND
 16895					;ONLY WHEN C(AC) IS NOT EQUAL TO C(E).  HENCE,
 16896					;CAMN SHOULD SKIP;  OTHERWISE THE PROGRAM HALTS.
 16897					;THIS TEST IS REPEATED 36 TIMES TO FLOAT A 1 THRU ALL 36 BITS OF THE AC
 16898			002033		SN=SN+1
 16899		000400	000000			ZZ=ZZ+ZZ
 16900						IFE	ZZ,<ZZ=1>
 16901	040373	200 00 0 00 070264 		MOVE	[ZZ]		;PRELOAD AC WITH A FLOATING 1
 16902	040374	316 00 0 00 070253 		CAMN	[0]		;*CAMN SHOULD SKIP BECAUSE C(AC) IS NOT EQUAL TO C(E)
DFKAA PDP-10 KL10 BASIC INSTRUCTION DIAGNOSTIC (1) VER 0,2	MACRO %53B(1254)-4 11:50 11-Nov-24 Page 25-9
DFKAA2	MAC	13-Jan-89 10:22		TEST OF COMPARE (CAMX) INSTRUCTIONS

 16903						STOP^
 16904	040375	254 04 0 00 040376 		HALT	.+1		;TEST FAILED IF PROGRAM HALTS HERE
 16905	040376	324 00 0 00 040377 		JUMPA	.+1		;IF TEST FAILS, CHANGE THIS INSTRUCTION (JUMPA .+1) TO
 16906									;JUMPA X (X IS THE ADDRESS OF THE FIRST INSTRUCTION
 16907									;IN THE SUBTEST) TO LOOP ON ERROR^
 16908
 16909					;**********
 16910
 16911
 16912					;THIS TEST VERIFIES THAT CAMN SKIPS THE NEXT SEQUENTIAL INSTRUCTION WHEN AND
 16913					;ONLY WHEN C(AC) IS NOT EQUAL TO C(E).  HENCE,
 16914					;CAMN SHOULD SKIP;  OTHERWISE THE PROGRAM HALTS.
 16915					;THIS TEST IS REPEATED 36 TIMES TO FLOAT A 1 THRU ALL 36 BITS OF THE AC
 16916			002034		SN=SN+1
 16917		001000	000000			ZZ=ZZ+ZZ
 16918						IFE	ZZ,<ZZ=1>
 16919	040377	200 00 0 00 070317 		MOVE	[ZZ]		;PRELOAD AC WITH A FLOATING 1
 16920	040400	316 00 0 00 070253 		CAMN	[0]		;*CAMN SHOULD SKIP BECAUSE C(AC) IS NOT EQUAL TO C(E)
 16921						STOP^
 16922	040401	254 04 0 00 040402 		HALT	.+1		;TEST FAILED IF PROGRAM HALTS HERE
 16923	040402	324 00 0 00 040403 		JUMPA	.+1		;IF TEST FAILS, CHANGE THIS INSTRUCTION (JUMPA .+1) TO
 16924									;JUMPA X (X IS THE ADDRESS OF THE FIRST INSTRUCTION
 16925									;IN THE SUBTEST) TO LOOP ON ERROR^
 16926
 16927					;**********
 16928
 16929
 16930					;THIS TEST VERIFIES THAT CAMN SKIPS THE NEXT SEQUENTIAL INSTRUCTION WHEN AND
 16931					;ONLY WHEN C(AC) IS NOT EQUAL TO C(E).  HENCE,
 16932					;CAMN SHOULD SKIP;  OTHERWISE THE PROGRAM HALTS.
 16933					;THIS TEST IS REPEATED 36 TIMES TO FLOAT A 1 THRU ALL 36 BITS OF THE AC
 16934			002035		SN=SN+1
 16935		002000	000000			ZZ=ZZ+ZZ
 16936						IFE	ZZ,<ZZ=1>
 16937	040403	200 00 0 00 070320 		MOVE	[ZZ]		;PRELOAD AC WITH A FLOATING 1
 16938	040404	316 00 0 00 070253 		CAMN	[0]		;*CAMN SHOULD SKIP BECAUSE C(AC) IS NOT EQUAL TO C(E)
 16939						STOP^
 16940	040405	254 04 0 00 040406 		HALT	.+1		;TEST FAILED IF PROGRAM HALTS HERE
 16941	040406	324 00 0 00 040407 		JUMPA	.+1		;IF TEST FAILS, CHANGE THIS INSTRUCTION (JUMPA .+1) TO
 16942									;JUMPA X (X IS THE ADDRESS OF THE FIRST INSTRUCTION
 16943									;IN THE SUBTEST) TO LOOP ON ERROR^
 16944
 16945					;**********
 16946
 16947
 16948					;THIS TEST VERIFIES THAT CAMN SKIPS THE NEXT SEQUENTIAL INSTRUCTION WHEN AND
 16949					;ONLY WHEN C(AC) IS NOT EQUAL TO C(E).  HENCE,
 16950					;CAMN SHOULD SKIP;  OTHERWISE THE PROGRAM HALTS.
 16951					;THIS TEST IS REPEATED 36 TIMES TO FLOAT A 1 THRU ALL 36 BITS OF THE AC
 16952			002036		SN=SN+1
 16953		004000	000000			ZZ=ZZ+ZZ
 16954						IFE	ZZ,<ZZ=1>
 16955	040407	200 00 0 00 070321 		MOVE	[ZZ]		;PRELOAD AC WITH A FLOATING 1
 16956	040410	316 00 0 00 070253 		CAMN	[0]		;*CAMN SHOULD SKIP BECAUSE C(AC) IS NOT EQUAL TO C(E)
 16957						STOP^
DFKAA PDP-10 KL10 BASIC INSTRUCTION DIAGNOSTIC (1) VER 0,2	MACRO %53B(1254)-4 11:50 11-Nov-24 Page 25-10
DFKAA2	MAC	13-Jan-89 10:22		TEST OF COMPARE (CAMX) INSTRUCTIONS

 16958	040411	254 04 0 00 040412 		HALT	.+1		;TEST FAILED IF PROGRAM HALTS HERE
 16959	040412	324 00 0 00 040413 		JUMPA	.+1		;IF TEST FAILS, CHANGE THIS INSTRUCTION (JUMPA .+1) TO
 16960									;JUMPA X (X IS THE ADDRESS OF THE FIRST INSTRUCTION
 16961									;IN THE SUBTEST) TO LOOP ON ERROR^
 16962
 16963					;**********
 16964
 16965
 16966					;THIS TEST VERIFIES THAT CAMN SKIPS THE NEXT SEQUENTIAL INSTRUCTION WHEN AND
 16967					;ONLY WHEN C(AC) IS NOT EQUAL TO C(E).  HENCE,
 16968					;CAMN SHOULD SKIP;  OTHERWISE THE PROGRAM HALTS.
 16969					;THIS TEST IS REPEATED 36 TIMES TO FLOAT A 1 THRU ALL 36 BITS OF THE AC
 16970			002037		SN=SN+1
 16971		010000	000000			ZZ=ZZ+ZZ
 16972						IFE	ZZ,<ZZ=1>
 16973	040413	200 00 0 00 070322 		MOVE	[ZZ]		;PRELOAD AC WITH A FLOATING 1
 16974	040414	316 00 0 00 070253 		CAMN	[0]		;*CAMN SHOULD SKIP BECAUSE C(AC) IS NOT EQUAL TO C(E)
 16975						STOP^
 16976	040415	254 04 0 00 040416 		HALT	.+1		;TEST FAILED IF PROGRAM HALTS HERE
 16977	040416	324 00 0 00 040417 		JUMPA	.+1		;IF TEST FAILS, CHANGE THIS INSTRUCTION (JUMPA .+1) TO
 16978									;JUMPA X (X IS THE ADDRESS OF THE FIRST INSTRUCTION
 16979									;IN THE SUBTEST) TO LOOP ON ERROR^
 16980
 16981					;**********
 16982
 16983
 16984					;THIS TEST VERIFIES THAT CAMN SKIPS THE NEXT SEQUENTIAL INSTRUCTION WHEN AND
 16985					;ONLY WHEN C(AC) IS NOT EQUAL TO C(E).  HENCE,
 16986					;CAMN SHOULD SKIP;  OTHERWISE THE PROGRAM HALTS.
 16987					;THIS TEST IS REPEATED 36 TIMES TO FLOAT A 1 THRU ALL 36 BITS OF THE AC
 16988			002040		SN=SN+1
 16989		020000	000000			ZZ=ZZ+ZZ
 16990						IFE	ZZ,<ZZ=1>
 16991	040417	200 00 0 00 070323 		MOVE	[ZZ]		;PRELOAD AC WITH A FLOATING 1
 16992	040420	316 00 0 00 070253 		CAMN	[0]		;*CAMN SHOULD SKIP BECAUSE C(AC) IS NOT EQUAL TO C(E)
 16993						STOP^
 16994	040421	254 04 0 00 040422 		HALT	.+1		;TEST FAILED IF PROGRAM HALTS HERE
 16995	040422	324 00 0 00 040423 		JUMPA	.+1		;IF TEST FAILS, CHANGE THIS INSTRUCTION (JUMPA .+1) TO
 16996									;JUMPA X (X IS THE ADDRESS OF THE FIRST INSTRUCTION
 16997									;IN THE SUBTEST) TO LOOP ON ERROR^
 16998
 16999					;**********
 17000
 17001
 17002					;THIS TEST VERIFIES THAT CAMN SKIPS THE NEXT SEQUENTIAL INSTRUCTION WHEN AND
 17003					;ONLY WHEN C(AC) IS NOT EQUAL TO C(E).  HENCE,
 17004					;CAMN SHOULD SKIP;  OTHERWISE THE PROGRAM HALTS.
 17005					;THIS TEST IS REPEATED 36 TIMES TO FLOAT A 1 THRU ALL 36 BITS OF THE AC
 17006			002041		SN=SN+1
 17007		040000	000000			ZZ=ZZ+ZZ
 17008						IFE	ZZ,<ZZ=1>
 17009	040423	200 00 0 00 070324 		MOVE	[ZZ]		;PRELOAD AC WITH A FLOATING 1
 17010	040424	316 00 0 00 070253 		CAMN	[0]		;*CAMN SHOULD SKIP BECAUSE C(AC) IS NOT EQUAL TO C(E)
 17011						STOP^
 17012	040425	254 04 0 00 040426 		HALT	.+1		;TEST FAILED IF PROGRAM HALTS HERE
DFKAA PDP-10 KL10 BASIC INSTRUCTION DIAGNOSTIC (1) VER 0,2	MACRO %53B(1254)-4 11:50 11-Nov-24 Page 25-11
DFKAA2	MAC	13-Jan-89 10:22		TEST OF COMPARE (CAMX) INSTRUCTIONS

 17013	040426	324 00 0 00 040427 		JUMPA	.+1		;IF TEST FAILS, CHANGE THIS INSTRUCTION (JUMPA .+1) TO
 17014									;JUMPA X (X IS THE ADDRESS OF THE FIRST INSTRUCTION
 17015									;IN THE SUBTEST) TO LOOP ON ERROR^
 17016
 17017					;**********
 17018
 17019
 17020					;THIS TEST VERIFIES THAT CAMN SKIPS THE NEXT SEQUENTIAL INSTRUCTION WHEN AND
 17021					;ONLY WHEN C(AC) IS NOT EQUAL TO C(E).  HENCE,
 17022					;CAMN SHOULD SKIP;  OTHERWISE THE PROGRAM HALTS.
 17023					;THIS TEST IS REPEATED 36 TIMES TO FLOAT A 1 THRU ALL 36 BITS OF THE AC
 17024			002042		SN=SN+1
 17025		100000	000000			ZZ=ZZ+ZZ
 17026						IFE	ZZ,<ZZ=1>
 17027	040427	200 00 0 00 070325 		MOVE	[ZZ]		;PRELOAD AC WITH A FLOATING 1
 17028	040430	316 00 0 00 070253 		CAMN	[0]		;*CAMN SHOULD SKIP BECAUSE C(AC) IS NOT EQUAL TO C(E)
 17029						STOP^
 17030	040431	254 04 0 00 040432 		HALT	.+1		;TEST FAILED IF PROGRAM HALTS HERE
 17031	040432	324 00 0 00 040433 		JUMPA	.+1		;IF TEST FAILS, CHANGE THIS INSTRUCTION (JUMPA .+1) TO
 17032									;JUMPA X (X IS THE ADDRESS OF THE FIRST INSTRUCTION
 17033									;IN THE SUBTEST) TO LOOP ON ERROR^
 17034
 17035					;**********
 17036
 17037
 17038					;THIS TEST VERIFIES THAT CAMN SKIPS THE NEXT SEQUENTIAL INSTRUCTION WHEN AND
 17039					;ONLY WHEN C(AC) IS NOT EQUAL TO C(E).  HENCE,
 17040					;CAMN SHOULD SKIP;  OTHERWISE THE PROGRAM HALTS.
 17041					;THIS TEST IS REPEATED 36 TIMES TO FLOAT A 1 THRU ALL 36 BITS OF THE AC
 17042			002043		SN=SN+1
 17043		200000	000000			ZZ=ZZ+ZZ
 17044						IFE	ZZ,<ZZ=1>
 17045	040433	200 00 0 00 070326 		MOVE	[ZZ]		;PRELOAD AC WITH A FLOATING 1
 17046	040434	316 00 0 00 070253 		CAMN	[0]		;*CAMN SHOULD SKIP BECAUSE C(AC) IS NOT EQUAL TO C(E)
 17047						STOP^
 17048	040435	254 04 0 00 040436 		HALT	.+1		;TEST FAILED IF PROGRAM HALTS HERE
 17049	040436	324 00 0 00 040437 		JUMPA	.+1		;IF TEST FAILS, CHANGE THIS INSTRUCTION (JUMPA .+1) TO
 17050									;JUMPA X (X IS THE ADDRESS OF THE FIRST INSTRUCTION
 17051									;IN THE SUBTEST) TO LOOP ON ERROR^
 17052
 17053					;**********
 17054
 17055
 17056					;THIS TEST VERIFIES THAT CAMN SKIPS THE NEXT SEQUENTIAL INSTRUCTION WHEN AND
 17057					;ONLY WHEN C(AC) IS NOT EQUAL TO C(E).  HENCE,
 17058					;CAMN SHOULD SKIP;  OTHERWISE THE PROGRAM HALTS.
 17059					;THIS TEST IS REPEATED 36 TIMES TO FLOAT A 1 THRU ALL 36 BITS OF THE AC
 17060			002044		SN=SN+1
 17061		400000	000000			ZZ=ZZ+ZZ
 17062						IFE	ZZ,<ZZ=1>
 17063	040437	200 00 0 00 070256 		MOVE	[ZZ]		;PRELOAD AC WITH A FLOATING 1
 17064	040440	316 00 0 00 070253 		CAMN	[0]		;*CAMN SHOULD SKIP BECAUSE C(AC) IS NOT EQUAL TO C(E)
 17065						STOP^
 17066	040441	254 04 0 00 040442 		HALT	.+1		;TEST FAILED IF PROGRAM HALTS HERE
 17067	040442	324 00 0 00 040443 		JUMPA	.+1		;IF TEST FAILS, CHANGE THIS INSTRUCTION (JUMPA .+1) TO
DFKAA PDP-10 KL10 BASIC INSTRUCTION DIAGNOSTIC (1) VER 0,2	MACRO %53B(1254)-4 11:50 11-Nov-24 Page 25-12
DFKAA2	MAC	13-Jan-89 10:22		TEST OF COMPARE (CAMX) INSTRUCTIONS

 17068									;JUMPA X (X IS THE ADDRESS OF THE FIRST INSTRUCTION
 17069									;IN THE SUBTEST) TO LOOP ON ERROR^
 17070
 17071					;**********
 17072
DFKAA PDP-10 KL10 BASIC INSTRUCTION DIAGNOSTIC (1) VER 0,2	MACRO %53B(1254)-4 11:50 11-Nov-24 Page 26
DFKAA2	MAC	13-Jan-89 10:22		TEST OF MOVS INSTRUCTION

 17073					SUBTTL	TEST OF MOVS INSTRUCTION
 17074
 17075					;**********
 17076
 17077			002100		SN=2100
 17078			000000			ZZ=0
 17079
 17080					B2100:	REPEAT	^D18,<
 17081					;THIS TEST VERIFIES THAT MOVS SWAPS LEFT AND RIGHT HALVES OF E AND
 17082					;MOVES IT INTO AC.  IN THIS CASE, A 1 IS RIPPLED THRU BOTH HALVES
 17083					;OF E [C(E)=ZZ,,ZZ WHERE ZZ IS A FLOATING 1].  THEN, C(AC) IS CHECKED.
 17084					;THIS TEST IS REPEATED 18 TIMES TO FLOAT A 1 THRU ALL 18 BITS OF EACH HALF
 17085
 17086					SN=SN+1
 17087						ZZ=ZZ+ZZ
 17088						IFE	ZZ,<ZZ=1>
 17089						MOVS	[XWD ZZ,ZZ]	;*MOVS SHOULD SWAP HALVES OF C(E)
 17090									;AND MOVE RESULT INTO AC
 17091						CAME	[XWD ZZ,ZZ]	;PASS TEST IF C(AC) CONTAINS ZZ,,ZZ
 17092						STOP
 17093
 17094					;**********
 17095					>
 17096
 17097					;THIS TEST VERIFIES THAT MOVS SWAPS LEFT AND RIGHT HALVES OF E AND
 17098					;MOVES IT INTO AC.  IN THIS CASE, A 1 IS RIPPLED THRU BOTH HALVES
 17099					;OF E [C(E)=ZZ,,ZZ WHERE ZZ IS A FLOATING 1].  THEN, C(AC) IS CHECKED.
 17100					;THIS TEST IS REPEATED 18 TIMES TO FLOAT A 1 THRU ALL 18 BITS OF EACH HALF
 17101
 17102			002101		SN=SN+1
 17103			000000			ZZ=ZZ+ZZ
 17104			000001			IFE	ZZ,<ZZ=1>
 17105	040443	204 00 0 00 070251 		MOVS	[XWD ZZ,ZZ]	;*MOVS SHOULD SWAP HALVES OF C(E)
 17106									;AND MOVE RESULT INTO AC
 17107	040444	312 00 0 00 070251 		CAME	[XWD ZZ,ZZ]	;PASS TEST IF C(AC) CONTAINS ZZ,,ZZ
 17108						STOP		^
 17109	040445	254 04 0 00 040446 		HALT	.+1		;TEST FAILED IF PROGRAM HALTS HERE
 17110	040446	324 00 0 00 040447 		JUMPA	.+1		;IF TEST FAILS, CHANGE THIS INSTRUCTION (JUMPA .+1) TO
 17111									;JUMPA X (X IS THE ADDRESS OF THE FIRST INSTRUCTION
 17112									;IN THE SUBTEST) TO LOOP ON ERROR^
 17113
 17114					;**********
 17115
 17116
 17117					;THIS TEST VERIFIES THAT MOVS SWAPS LEFT AND RIGHT HALVES OF E AND
 17118					;MOVES IT INTO AC.  IN THIS CASE, A 1 IS RIPPLED THRU BOTH HALVES
 17119					;OF E [C(E)=ZZ,,ZZ WHERE ZZ IS A FLOATING 1].  THEN, C(AC) IS CHECKED.
 17120					;THIS TEST IS REPEATED 18 TIMES TO FLOAT A 1 THRU ALL 18 BITS OF EACH HALF
 17121
 17122			002102		SN=SN+1
 17123			000002			ZZ=ZZ+ZZ
 17124						IFE	ZZ,<ZZ=1>
 17125	040447	204 00 0 00 070440 		MOVS	[XWD ZZ,ZZ]	;*MOVS SHOULD SWAP HALVES OF C(E)
 17126									;AND MOVE RESULT INTO AC
 17127	040450	312 00 0 00 070440 		CAME	[XWD ZZ,ZZ]	;PASS TEST IF C(AC) CONTAINS ZZ,,ZZ
DFKAA PDP-10 KL10 BASIC INSTRUCTION DIAGNOSTIC (1) VER 0,2	MACRO %53B(1254)-4 11:50 11-Nov-24 Page 26-1
DFKAA2	MAC	13-Jan-89 10:22		TEST OF MOVS INSTRUCTION

 17128						STOP		^
 17129	040451	254 04 0 00 040452 		HALT	.+1		;TEST FAILED IF PROGRAM HALTS HERE
 17130	040452	324 00 0 00 040453 		JUMPA	.+1		;IF TEST FAILS, CHANGE THIS INSTRUCTION (JUMPA .+1) TO
 17131									;JUMPA X (X IS THE ADDRESS OF THE FIRST INSTRUCTION
 17132									;IN THE SUBTEST) TO LOOP ON ERROR^
 17133
 17134					;**********
 17135
 17136
 17137					;THIS TEST VERIFIES THAT MOVS SWAPS LEFT AND RIGHT HALVES OF E AND
 17138					;MOVES IT INTO AC.  IN THIS CASE, A 1 IS RIPPLED THRU BOTH HALVES
 17139					;OF E [C(E)=ZZ,,ZZ WHERE ZZ IS A FLOATING 1].  THEN, C(AC) IS CHECKED.
 17140					;THIS TEST IS REPEATED 18 TIMES TO FLOAT A 1 THRU ALL 18 BITS OF EACH HALF
 17141
 17142			002103		SN=SN+1
 17143			000004			ZZ=ZZ+ZZ
 17144						IFE	ZZ,<ZZ=1>
 17145	040453	204 00 0 00 070441 		MOVS	[XWD ZZ,ZZ]	;*MOVS SHOULD SWAP HALVES OF C(E)
 17146									;AND MOVE RESULT INTO AC
 17147	040454	312 00 0 00 070441 		CAME	[XWD ZZ,ZZ]	;PASS TEST IF C(AC) CONTAINS ZZ,,ZZ
 17148						STOP		^
 17149	040455	254 04 0 00 040456 		HALT	.+1		;TEST FAILED IF PROGRAM HALTS HERE
 17150	040456	324 00 0 00 040457 		JUMPA	.+1		;IF TEST FAILS, CHANGE THIS INSTRUCTION (JUMPA .+1) TO
 17151									;JUMPA X (X IS THE ADDRESS OF THE FIRST INSTRUCTION
 17152									;IN THE SUBTEST) TO LOOP ON ERROR^
 17153
 17154					;**********
 17155
 17156
 17157					;THIS TEST VERIFIES THAT MOVS SWAPS LEFT AND RIGHT HALVES OF E AND
 17158					;MOVES IT INTO AC.  IN THIS CASE, A 1 IS RIPPLED THRU BOTH HALVES
 17159					;OF E [C(E)=ZZ,,ZZ WHERE ZZ IS A FLOATING 1].  THEN, C(AC) IS CHECKED.
 17160					;THIS TEST IS REPEATED 18 TIMES TO FLOAT A 1 THRU ALL 18 BITS OF EACH HALF
 17161
 17162			002104		SN=SN+1
 17163			000010			ZZ=ZZ+ZZ
 17164						IFE	ZZ,<ZZ=1>
 17165	040457	204 00 0 00 070442 		MOVS	[XWD ZZ,ZZ]	;*MOVS SHOULD SWAP HALVES OF C(E)
 17166									;AND MOVE RESULT INTO AC
 17167	040460	312 00 0 00 070442 		CAME	[XWD ZZ,ZZ]	;PASS TEST IF C(AC) CONTAINS ZZ,,ZZ
 17168						STOP		^
 17169	040461	254 04 0 00 040462 		HALT	.+1		;TEST FAILED IF PROGRAM HALTS HERE
 17170	040462	324 00 0 00 040463 		JUMPA	.+1		;IF TEST FAILS, CHANGE THIS INSTRUCTION (JUMPA .+1) TO
 17171									;JUMPA X (X IS THE ADDRESS OF THE FIRST INSTRUCTION
 17172									;IN THE SUBTEST) TO LOOP ON ERROR^
 17173
 17174					;**********
 17175
 17176
 17177					;THIS TEST VERIFIES THAT MOVS SWAPS LEFT AND RIGHT HALVES OF E AND
 17178					;MOVES IT INTO AC.  IN THIS CASE, A 1 IS RIPPLED THRU BOTH HALVES
 17179					;OF E [C(E)=ZZ,,ZZ WHERE ZZ IS A FLOATING 1].  THEN, C(AC) IS CHECKED.
 17180					;THIS TEST IS REPEATED 18 TIMES TO FLOAT A 1 THRU ALL 18 BITS OF EACH HALF
 17181
 17182			002105		SN=SN+1
DFKAA PDP-10 KL10 BASIC INSTRUCTION DIAGNOSTIC (1) VER 0,2	MACRO %53B(1254)-4 11:50 11-Nov-24 Page 26-2
DFKAA2	MAC	13-Jan-89 10:22		TEST OF MOVS INSTRUCTION

 17183			000020			ZZ=ZZ+ZZ
 17184						IFE	ZZ,<ZZ=1>
 17185	040463	204 00 0 00 070443 		MOVS	[XWD ZZ,ZZ]	;*MOVS SHOULD SWAP HALVES OF C(E)
 17186									;AND MOVE RESULT INTO AC
 17187	040464	312 00 0 00 070443 		CAME	[XWD ZZ,ZZ]	;PASS TEST IF C(AC) CONTAINS ZZ,,ZZ
 17188						STOP		^
 17189	040465	254 04 0 00 040466 		HALT	.+1		;TEST FAILED IF PROGRAM HALTS HERE
 17190	040466	324 00 0 00 040467 		JUMPA	.+1		;IF TEST FAILS, CHANGE THIS INSTRUCTION (JUMPA .+1) TO
 17191									;JUMPA X (X IS THE ADDRESS OF THE FIRST INSTRUCTION
 17192									;IN THE SUBTEST) TO LOOP ON ERROR^
 17193
 17194					;**********
 17195
 17196
 17197					;THIS TEST VERIFIES THAT MOVS SWAPS LEFT AND RIGHT HALVES OF E AND
 17198					;MOVES IT INTO AC.  IN THIS CASE, A 1 IS RIPPLED THRU BOTH HALVES
 17199					;OF E [C(E)=ZZ,,ZZ WHERE ZZ IS A FLOATING 1].  THEN, C(AC) IS CHECKED.
 17200					;THIS TEST IS REPEATED 18 TIMES TO FLOAT A 1 THRU ALL 18 BITS OF EACH HALF
 17201
 17202			002106		SN=SN+1
 17203			000040			ZZ=ZZ+ZZ
 17204						IFE	ZZ,<ZZ=1>
 17205	040467	204 00 0 00 070444 		MOVS	[XWD ZZ,ZZ]	;*MOVS SHOULD SWAP HALVES OF C(E)
 17206									;AND MOVE RESULT INTO AC
 17207	040470	312 00 0 00 070444 		CAME	[XWD ZZ,ZZ]	;PASS TEST IF C(AC) CONTAINS ZZ,,ZZ
 17208						STOP		^
 17209	040471	254 04 0 00 040472 		HALT	.+1		;TEST FAILED IF PROGRAM HALTS HERE
 17210	040472	324 00 0 00 040473 		JUMPA	.+1		;IF TEST FAILS, CHANGE THIS INSTRUCTION (JUMPA .+1) TO
 17211									;JUMPA X (X IS THE ADDRESS OF THE FIRST INSTRUCTION
 17212									;IN THE SUBTEST) TO LOOP ON ERROR^
 17213
 17214					;**********
 17215
 17216
 17217					;THIS TEST VERIFIES THAT MOVS SWAPS LEFT AND RIGHT HALVES OF E AND
 17218					;MOVES IT INTO AC.  IN THIS CASE, A 1 IS RIPPLED THRU BOTH HALVES
 17219					;OF E [C(E)=ZZ,,ZZ WHERE ZZ IS A FLOATING 1].  THEN, C(AC) IS CHECKED.
 17220					;THIS TEST IS REPEATED 18 TIMES TO FLOAT A 1 THRU ALL 18 BITS OF EACH HALF
 17221
 17222			002107		SN=SN+1
 17223			000100			ZZ=ZZ+ZZ
 17224						IFE	ZZ,<ZZ=1>
 17225	040473	204 00 0 00 070445 		MOVS	[XWD ZZ,ZZ]	;*MOVS SHOULD SWAP HALVES OF C(E)
 17226									;AND MOVE RESULT INTO AC
 17227	040474	312 00 0 00 070445 		CAME	[XWD ZZ,ZZ]	;PASS TEST IF C(AC) CONTAINS ZZ,,ZZ
 17228						STOP		^
 17229	040475	254 04 0 00 040476 		HALT	.+1		;TEST FAILED IF PROGRAM HALTS HERE
 17230	040476	324 00 0 00 040477 		JUMPA	.+1		;IF TEST FAILS, CHANGE THIS INSTRUCTION (JUMPA .+1) TO
 17231									;JUMPA X (X IS THE ADDRESS OF THE FIRST INSTRUCTION
 17232									;IN THE SUBTEST) TO LOOP ON ERROR^
 17233
 17234					;**********
 17235
 17236
 17237					;THIS TEST VERIFIES THAT MOVS SWAPS LEFT AND RIGHT HALVES OF E AND
