DFKAA PDP-10 KL10 BASIC INSTRUCTION DIAGNOSTIC (1) VER 0,2	MACRO %53B(1254)-4 11:50 11-Nov-24 Page 26-3
DFKAA2	MAC	13-Jan-89 10:22		TEST OF MOVS INSTRUCTION

 17238					;MOVES IT INTO AC.  IN THIS CASE, A 1 IS RIPPLED THRU BOTH HALVES
 17239					;OF E [C(E)=ZZ,,ZZ WHERE ZZ IS A FLOATING 1].  THEN, C(AC) IS CHECKED.
 17240					;THIS TEST IS REPEATED 18 TIMES TO FLOAT A 1 THRU ALL 18 BITS OF EACH HALF
 17241
 17242			002110		SN=SN+1
 17243			000200			ZZ=ZZ+ZZ
 17244						IFE	ZZ,<ZZ=1>
 17245	040477	204 00 0 00 070446 		MOVS	[XWD ZZ,ZZ]	;*MOVS SHOULD SWAP HALVES OF C(E)
 17246									;AND MOVE RESULT INTO AC
 17247	040500	312 00 0 00 070446 		CAME	[XWD ZZ,ZZ]	;PASS TEST IF C(AC) CONTAINS ZZ,,ZZ
 17248						STOP		^
 17249	040501	254 04 0 00 040502 		HALT	.+1		;TEST FAILED IF PROGRAM HALTS HERE
 17250	040502	324 00 0 00 040503 		JUMPA	.+1		;IF TEST FAILS, CHANGE THIS INSTRUCTION (JUMPA .+1) TO
 17251									;JUMPA X (X IS THE ADDRESS OF THE FIRST INSTRUCTION
 17252									;IN THE SUBTEST) TO LOOP ON ERROR^
 17253
 17254					;**********
 17255
 17256
 17257					;THIS TEST VERIFIES THAT MOVS SWAPS LEFT AND RIGHT HALVES OF E AND
 17258					;MOVES IT INTO AC.  IN THIS CASE, A 1 IS RIPPLED THRU BOTH HALVES
 17259					;OF E [C(E)=ZZ,,ZZ WHERE ZZ IS A FLOATING 1].  THEN, C(AC) IS CHECKED.
 17260					;THIS TEST IS REPEATED 18 TIMES TO FLOAT A 1 THRU ALL 18 BITS OF EACH HALF
 17261
 17262			002111		SN=SN+1
 17263			000400			ZZ=ZZ+ZZ
 17264						IFE	ZZ,<ZZ=1>
 17265	040503	204 00 0 00 070447 		MOVS	[XWD ZZ,ZZ]	;*MOVS SHOULD SWAP HALVES OF C(E)
 17266									;AND MOVE RESULT INTO AC
 17267	040504	312 00 0 00 070447 		CAME	[XWD ZZ,ZZ]	;PASS TEST IF C(AC) CONTAINS ZZ,,ZZ
 17268						STOP		^
 17269	040505	254 04 0 00 040506 		HALT	.+1		;TEST FAILED IF PROGRAM HALTS HERE
 17270	040506	324 00 0 00 040507 		JUMPA	.+1		;IF TEST FAILS, CHANGE THIS INSTRUCTION (JUMPA .+1) TO
 17271									;JUMPA X (X IS THE ADDRESS OF THE FIRST INSTRUCTION
 17272									;IN THE SUBTEST) TO LOOP ON ERROR^
 17273
 17274					;**********
 17275
 17276
 17277					;THIS TEST VERIFIES THAT MOVS SWAPS LEFT AND RIGHT HALVES OF E AND
 17278					;MOVES IT INTO AC.  IN THIS CASE, A 1 IS RIPPLED THRU BOTH HALVES
 17279					;OF E [C(E)=ZZ,,ZZ WHERE ZZ IS A FLOATING 1].  THEN, C(AC) IS CHECKED.
 17280					;THIS TEST IS REPEATED 18 TIMES TO FLOAT A 1 THRU ALL 18 BITS OF EACH HALF
 17281
 17282			002112		SN=SN+1
 17283			001000			ZZ=ZZ+ZZ
 17284						IFE	ZZ,<ZZ=1>
 17285	040507	204 00 0 00 070450 		MOVS	[XWD ZZ,ZZ]	;*MOVS SHOULD SWAP HALVES OF C(E)
 17286									;AND MOVE RESULT INTO AC
 17287	040510	312 00 0 00 070450 		CAME	[XWD ZZ,ZZ]	;PASS TEST IF C(AC) CONTAINS ZZ,,ZZ
 17288						STOP		^
 17289	040511	254 04 0 00 040512 		HALT	.+1		;TEST FAILED IF PROGRAM HALTS HERE
 17290	040512	324 00 0 00 040513 		JUMPA	.+1		;IF TEST FAILS, CHANGE THIS INSTRUCTION (JUMPA .+1) TO
 17291									;JUMPA X (X IS THE ADDRESS OF THE FIRST INSTRUCTION
 17292									;IN THE SUBTEST) TO LOOP ON ERROR^
DFKAA PDP-10 KL10 BASIC INSTRUCTION DIAGNOSTIC (1) VER 0,2	MACRO %53B(1254)-4 11:50 11-Nov-24 Page 26-4
DFKAA2	MAC	13-Jan-89 10:22		TEST OF MOVS INSTRUCTION

 17293
 17294					;**********
 17295
 17296
 17297					;THIS TEST VERIFIES THAT MOVS SWAPS LEFT AND RIGHT HALVES OF E AND
 17298					;MOVES IT INTO AC.  IN THIS CASE, A 1 IS RIPPLED THRU BOTH HALVES
 17299					;OF E [C(E)=ZZ,,ZZ WHERE ZZ IS A FLOATING 1].  THEN, C(AC) IS CHECKED.
 17300					;THIS TEST IS REPEATED 18 TIMES TO FLOAT A 1 THRU ALL 18 BITS OF EACH HALF
 17301
 17302			002113		SN=SN+1
 17303			002000			ZZ=ZZ+ZZ
 17304						IFE	ZZ,<ZZ=1>
 17305	040513	204 00 0 00 070451 		MOVS	[XWD ZZ,ZZ]	;*MOVS SHOULD SWAP HALVES OF C(E)
 17306									;AND MOVE RESULT INTO AC
 17307	040514	312 00 0 00 070451 		CAME	[XWD ZZ,ZZ]	;PASS TEST IF C(AC) CONTAINS ZZ,,ZZ
 17308						STOP		^
 17309	040515	254 04 0 00 040516 		HALT	.+1		;TEST FAILED IF PROGRAM HALTS HERE
 17310	040516	324 00 0 00 040517 		JUMPA	.+1		;IF TEST FAILS, CHANGE THIS INSTRUCTION (JUMPA .+1) TO
 17311									;JUMPA X (X IS THE ADDRESS OF THE FIRST INSTRUCTION
 17312									;IN THE SUBTEST) TO LOOP ON ERROR^
 17313
 17314					;**********
 17315
 17316
 17317					;THIS TEST VERIFIES THAT MOVS SWAPS LEFT AND RIGHT HALVES OF E AND
 17318					;MOVES IT INTO AC.  IN THIS CASE, A 1 IS RIPPLED THRU BOTH HALVES
 17319					;OF E [C(E)=ZZ,,ZZ WHERE ZZ IS A FLOATING 1].  THEN, C(AC) IS CHECKED.
 17320					;THIS TEST IS REPEATED 18 TIMES TO FLOAT A 1 THRU ALL 18 BITS OF EACH HALF
 17321
 17322			002114		SN=SN+1
 17323			004000			ZZ=ZZ+ZZ
 17324						IFE	ZZ,<ZZ=1>
 17325	040517	204 00 0 00 070452 		MOVS	[XWD ZZ,ZZ]	;*MOVS SHOULD SWAP HALVES OF C(E)
 17326									;AND MOVE RESULT INTO AC
 17327	040520	312 00 0 00 070452 		CAME	[XWD ZZ,ZZ]	;PASS TEST IF C(AC) CONTAINS ZZ,,ZZ
 17328						STOP		^
 17329	040521	254 04 0 00 040522 		HALT	.+1		;TEST FAILED IF PROGRAM HALTS HERE
 17330	040522	324 00 0 00 040523 		JUMPA	.+1		;IF TEST FAILS, CHANGE THIS INSTRUCTION (JUMPA .+1) TO
 17331									;JUMPA X (X IS THE ADDRESS OF THE FIRST INSTRUCTION
 17332									;IN THE SUBTEST) TO LOOP ON ERROR^
 17333
 17334					;**********
 17335
 17336
 17337					;THIS TEST VERIFIES THAT MOVS SWAPS LEFT AND RIGHT HALVES OF E AND
 17338					;MOVES IT INTO AC.  IN THIS CASE, A 1 IS RIPPLED THRU BOTH HALVES
 17339					;OF E [C(E)=ZZ,,ZZ WHERE ZZ IS A FLOATING 1].  THEN, C(AC) IS CHECKED.
 17340					;THIS TEST IS REPEATED 18 TIMES TO FLOAT A 1 THRU ALL 18 BITS OF EACH HALF
 17341
 17342			002115		SN=SN+1
 17343			010000			ZZ=ZZ+ZZ
 17344						IFE	ZZ,<ZZ=1>
 17345	040523	204 00 0 00 070453 		MOVS	[XWD ZZ,ZZ]	;*MOVS SHOULD SWAP HALVES OF C(E)
 17346									;AND MOVE RESULT INTO AC
 17347	040524	312 00 0 00 070453 		CAME	[XWD ZZ,ZZ]	;PASS TEST IF C(AC) CONTAINS ZZ,,ZZ
DFKAA PDP-10 KL10 BASIC INSTRUCTION DIAGNOSTIC (1) VER 0,2	MACRO %53B(1254)-4 11:50 11-Nov-24 Page 26-5
DFKAA2	MAC	13-Jan-89 10:22		TEST OF MOVS INSTRUCTION

 17348						STOP		^
 17349	040525	254 04 0 00 040526 		HALT	.+1		;TEST FAILED IF PROGRAM HALTS HERE
 17350	040526	324 00 0 00 040527 		JUMPA	.+1		;IF TEST FAILS, CHANGE THIS INSTRUCTION (JUMPA .+1) TO
 17351									;JUMPA X (X IS THE ADDRESS OF THE FIRST INSTRUCTION
 17352									;IN THE SUBTEST) TO LOOP ON ERROR^
 17353
 17354					;**********
 17355
 17356
 17357					;THIS TEST VERIFIES THAT MOVS SWAPS LEFT AND RIGHT HALVES OF E AND
 17358					;MOVES IT INTO AC.  IN THIS CASE, A 1 IS RIPPLED THRU BOTH HALVES
 17359					;OF E [C(E)=ZZ,,ZZ WHERE ZZ IS A FLOATING 1].  THEN, C(AC) IS CHECKED.
 17360					;THIS TEST IS REPEATED 18 TIMES TO FLOAT A 1 THRU ALL 18 BITS OF EACH HALF
 17361
 17362			002116		SN=SN+1
 17363			020000			ZZ=ZZ+ZZ
 17364						IFE	ZZ,<ZZ=1>
 17365	040527	204 00 0 00 070454 		MOVS	[XWD ZZ,ZZ]	;*MOVS SHOULD SWAP HALVES OF C(E)
 17366									;AND MOVE RESULT INTO AC
 17367	040530	312 00 0 00 070454 		CAME	[XWD ZZ,ZZ]	;PASS TEST IF C(AC) CONTAINS ZZ,,ZZ
 17368						STOP		^
 17369	040531	254 04 0 00 040532 		HALT	.+1		;TEST FAILED IF PROGRAM HALTS HERE
 17370	040532	324 00 0 00 040533 		JUMPA	.+1		;IF TEST FAILS, CHANGE THIS INSTRUCTION (JUMPA .+1) TO
 17371									;JUMPA X (X IS THE ADDRESS OF THE FIRST INSTRUCTION
 17372									;IN THE SUBTEST) TO LOOP ON ERROR^
 17373
 17374					;**********
 17375
 17376
 17377					;THIS TEST VERIFIES THAT MOVS SWAPS LEFT AND RIGHT HALVES OF E AND
 17378					;MOVES IT INTO AC.  IN THIS CASE, A 1 IS RIPPLED THRU BOTH HALVES
 17379					;OF E [C(E)=ZZ,,ZZ WHERE ZZ IS A FLOATING 1].  THEN, C(AC) IS CHECKED.
 17380					;THIS TEST IS REPEATED 18 TIMES TO FLOAT A 1 THRU ALL 18 BITS OF EACH HALF
 17381
 17382			002117		SN=SN+1
 17383			040000			ZZ=ZZ+ZZ
 17384						IFE	ZZ,<ZZ=1>
 17385	040533	204 00 0 00 070455 		MOVS	[XWD ZZ,ZZ]	;*MOVS SHOULD SWAP HALVES OF C(E)
 17386									;AND MOVE RESULT INTO AC
 17387	040534	312 00 0 00 070455 		CAME	[XWD ZZ,ZZ]	;PASS TEST IF C(AC) CONTAINS ZZ,,ZZ
 17388						STOP		^
 17389	040535	254 04 0 00 040536 		HALT	.+1		;TEST FAILED IF PROGRAM HALTS HERE
 17390	040536	324 00 0 00 040537 		JUMPA	.+1		;IF TEST FAILS, CHANGE THIS INSTRUCTION (JUMPA .+1) TO
 17391									;JUMPA X (X IS THE ADDRESS OF THE FIRST INSTRUCTION
 17392									;IN THE SUBTEST) TO LOOP ON ERROR^
 17393
 17394					;**********
 17395
 17396
 17397					;THIS TEST VERIFIES THAT MOVS SWAPS LEFT AND RIGHT HALVES OF E AND
 17398					;MOVES IT INTO AC.  IN THIS CASE, A 1 IS RIPPLED THRU BOTH HALVES
 17399					;OF E [C(E)=ZZ,,ZZ WHERE ZZ IS A FLOATING 1].  THEN, C(AC) IS CHECKED.
 17400					;THIS TEST IS REPEATED 18 TIMES TO FLOAT A 1 THRU ALL 18 BITS OF EACH HALF
 17401
 17402			002120		SN=SN+1
DFKAA PDP-10 KL10 BASIC INSTRUCTION DIAGNOSTIC (1) VER 0,2	MACRO %53B(1254)-4 11:50 11-Nov-24 Page 26-6
DFKAA2	MAC	13-Jan-89 10:22		TEST OF MOVS INSTRUCTION

 17403			100000			ZZ=ZZ+ZZ
 17404						IFE	ZZ,<ZZ=1>
 17405	040537	204 00 0 00 070456 		MOVS	[XWD ZZ,ZZ]	;*MOVS SHOULD SWAP HALVES OF C(E)
 17406									;AND MOVE RESULT INTO AC
 17407	040540	312 00 0 00 070456 		CAME	[XWD ZZ,ZZ]	;PASS TEST IF C(AC) CONTAINS ZZ,,ZZ
 17408						STOP		^
 17409	040541	254 04 0 00 040542 		HALT	.+1		;TEST FAILED IF PROGRAM HALTS HERE
 17410	040542	324 00 0 00 040543 		JUMPA	.+1		;IF TEST FAILS, CHANGE THIS INSTRUCTION (JUMPA .+1) TO
 17411									;JUMPA X (X IS THE ADDRESS OF THE FIRST INSTRUCTION
 17412									;IN THE SUBTEST) TO LOOP ON ERROR^
 17413
 17414					;**********
 17415
 17416
 17417					;THIS TEST VERIFIES THAT MOVS SWAPS LEFT AND RIGHT HALVES OF E AND
 17418					;MOVES IT INTO AC.  IN THIS CASE, A 1 IS RIPPLED THRU BOTH HALVES
 17419					;OF E [C(E)=ZZ,,ZZ WHERE ZZ IS A FLOATING 1].  THEN, C(AC) IS CHECKED.
 17420					;THIS TEST IS REPEATED 18 TIMES TO FLOAT A 1 THRU ALL 18 BITS OF EACH HALF
 17421
 17422			002121		SN=SN+1
 17423			200000			ZZ=ZZ+ZZ
 17424						IFE	ZZ,<ZZ=1>
 17425	040543	204 00 0 00 070457 		MOVS	[XWD ZZ,ZZ]	;*MOVS SHOULD SWAP HALVES OF C(E)
 17426									;AND MOVE RESULT INTO AC
 17427	040544	312 00 0 00 070457 		CAME	[XWD ZZ,ZZ]	;PASS TEST IF C(AC) CONTAINS ZZ,,ZZ
 17428						STOP		^
 17429	040545	254 04 0 00 040546 		HALT	.+1		;TEST FAILED IF PROGRAM HALTS HERE
 17430	040546	324 00 0 00 040547 		JUMPA	.+1		;IF TEST FAILS, CHANGE THIS INSTRUCTION (JUMPA .+1) TO
 17431									;JUMPA X (X IS THE ADDRESS OF THE FIRST INSTRUCTION
 17432									;IN THE SUBTEST) TO LOOP ON ERROR^
 17433
 17434					;**********
 17435
 17436
 17437					;THIS TEST VERIFIES THAT MOVS SWAPS LEFT AND RIGHT HALVES OF E AND
 17438					;MOVES IT INTO AC.  IN THIS CASE, A 1 IS RIPPLED THRU BOTH HALVES
 17439					;OF E [C(E)=ZZ,,ZZ WHERE ZZ IS A FLOATING 1].  THEN, C(AC) IS CHECKED.
 17440					;THIS TEST IS REPEATED 18 TIMES TO FLOAT A 1 THRU ALL 18 BITS OF EACH HALF
 17441
 17442			002122		SN=SN+1
 17443			400000			ZZ=ZZ+ZZ
 17444						IFE	ZZ,<ZZ=1>
 17445	040547	204 00 0 00 070460 		MOVS	[XWD ZZ,ZZ]	;*MOVS SHOULD SWAP HALVES OF C(E)
 17446									;AND MOVE RESULT INTO AC
 17447	040550	312 00 0 00 070460 		CAME	[XWD ZZ,ZZ]	;PASS TEST IF C(AC) CONTAINS ZZ,,ZZ
 17448						STOP		^
 17449	040551	254 04 0 00 040552 		HALT	.+1		;TEST FAILED IF PROGRAM HALTS HERE
 17450	040552	324 00 0 00 040553 		JUMPA	.+1		;IF TEST FAILS, CHANGE THIS INSTRUCTION (JUMPA .+1) TO
 17451									;JUMPA X (X IS THE ADDRESS OF THE FIRST INSTRUCTION
 17452									;IN THE SUBTEST) TO LOOP ON ERROR^
 17453
 17454					;**********
 17455
DFKAA PDP-10 KL10 BASIC INSTRUCTION DIAGNOSTIC (1) VER 0,2	MACRO %53B(1254)-4 11:50 11-Nov-24 Page 27
DFKAA2	MAC	13-Jan-89 10:22		TEST OF MOVS INSTRUCTION

 17456			002200		SN=2200
 17457			000000			ZZ=0
 17458
 17459					B2200:	REPEAT	^D18,<
 17460					;THIS TEST VERIFIES THAT MOVS SWAPS LEFT AND RIGHT HALVES OF E AND
 17461					;MOVES IT INTO AC.  IN THIS CASE, A 0 IS RIPPLED THRU BOTH HALVES
 17462					;OF E [C(E)=ZZ,,ZZ, WHERE ZZ IS A FLOATING 0].  THEN, C(AC) IS CHECKED.
 17463					;THIS TEST IS REPEATED 18 TIMES TO FLOAT A 0 THRU ALL 18 BITS OF EACH HALF
 17464
 17465					SN=SN+1
 17466						ZZ=ZZ+ZZ+1
 17467						IFE	<ZZ-1>,<ZZ=-2>
 17468						MOVS	[XWD ZZ,ZZ]	;*MOVS SHOULD SWAP HALVES OF C(E)
 17469									;AND MOVE RESULT INTO AC
 17470						CAME	[XWD ZZ,ZZ]	;PASS TEST IF AC CONTAINS ZZ,,ZZ
 17471						STOP
 17472
 17473					;**********
 17474					>
 17475
 17476					;THIS TEST VERIFIES THAT MOVS SWAPS LEFT AND RIGHT HALVES OF E AND
 17477					;MOVES IT INTO AC.  IN THIS CASE, A 0 IS RIPPLED THRU BOTH HALVES
 17478					;OF E [C(E)=ZZ,,ZZ, WHERE ZZ IS A FLOATING 0].  THEN, C(AC) IS CHECKED.
 17479					;THIS TEST IS REPEATED 18 TIMES TO FLOAT A 0 THRU ALL 18 BITS OF EACH HALF
 17480
 17481			002201		SN=SN+1
 17482			000001			ZZ=ZZ+ZZ+1
 17483		777777	777776			IFE	<ZZ-1>,<ZZ=-2>
 17484	040553	204 00 0 00 070461 		MOVS	[XWD ZZ,ZZ]	;*MOVS SHOULD SWAP HALVES OF C(E)
 17485									;AND MOVE RESULT INTO AC
 17486	040554	312 00 0 00 070461 		CAME	[XWD ZZ,ZZ]	;PASS TEST IF AC CONTAINS ZZ,,ZZ
 17487						STOP		^
 17488	040555	254 04 0 00 040556 		HALT	.+1		;TEST FAILED IF PROGRAM HALTS HERE
 17489	040556	324 00 0 00 040557 		JUMPA	.+1		;IF TEST FAILS, CHANGE THIS INSTRUCTION (JUMPA .+1) TO
 17490									;JUMPA X (X IS THE ADDRESS OF THE FIRST INSTRUCTION
 17491									;IN THE SUBTEST) TO LOOP ON ERROR^
 17492
 17493					;**********
 17494
 17495
 17496					;THIS TEST VERIFIES THAT MOVS SWAPS LEFT AND RIGHT HALVES OF E AND
 17497					;MOVES IT INTO AC.  IN THIS CASE, A 0 IS RIPPLED THRU BOTH HALVES
 17498					;OF E [C(E)=ZZ,,ZZ, WHERE ZZ IS A FLOATING 0].  THEN, C(AC) IS CHECKED.
 17499					;THIS TEST IS REPEATED 18 TIMES TO FLOAT A 0 THRU ALL 18 BITS OF EACH HALF
 17500
 17501			002202		SN=SN+1
 17502		777777	777775			ZZ=ZZ+ZZ+1
 17503						IFE	<ZZ-1>,<ZZ=-2>
 17504	040557	204 00 0 00 070462 		MOVS	[XWD ZZ,ZZ]	;*MOVS SHOULD SWAP HALVES OF C(E)
 17505									;AND MOVE RESULT INTO AC
 17506	040560	312 00 0 00 070462 		CAME	[XWD ZZ,ZZ]	;PASS TEST IF AC CONTAINS ZZ,,ZZ
 17507						STOP		^
 17508	040561	254 04 0 00 040562 		HALT	.+1		;TEST FAILED IF PROGRAM HALTS HERE
 17509	040562	324 00 0 00 040563 		JUMPA	.+1		;IF TEST FAILS, CHANGE THIS INSTRUCTION (JUMPA .+1) TO
 17510									;JUMPA X (X IS THE ADDRESS OF THE FIRST INSTRUCTION
DFKAA PDP-10 KL10 BASIC INSTRUCTION DIAGNOSTIC (1) VER 0,2	MACRO %53B(1254)-4 11:50 11-Nov-24 Page 27-1
DFKAA2	MAC	13-Jan-89 10:22		TEST OF MOVS INSTRUCTION

 17511									;IN THE SUBTEST) TO LOOP ON ERROR^
 17512
 17513					;**********
 17514
 17515
 17516					;THIS TEST VERIFIES THAT MOVS SWAPS LEFT AND RIGHT HALVES OF E AND
 17517					;MOVES IT INTO AC.  IN THIS CASE, A 0 IS RIPPLED THRU BOTH HALVES
 17518					;OF E [C(E)=ZZ,,ZZ, WHERE ZZ IS A FLOATING 0].  THEN, C(AC) IS CHECKED.
 17519					;THIS TEST IS REPEATED 18 TIMES TO FLOAT A 0 THRU ALL 18 BITS OF EACH HALF
 17520
 17521			002203		SN=SN+1
 17522		777777	777773			ZZ=ZZ+ZZ+1
 17523						IFE	<ZZ-1>,<ZZ=-2>
 17524	040563	204 00 0 00 070463 		MOVS	[XWD ZZ,ZZ]	;*MOVS SHOULD SWAP HALVES OF C(E)
 17525									;AND MOVE RESULT INTO AC
 17526	040564	312 00 0 00 070463 		CAME	[XWD ZZ,ZZ]	;PASS TEST IF AC CONTAINS ZZ,,ZZ
 17527						STOP		^
 17528	040565	254 04 0 00 040566 		HALT	.+1		;TEST FAILED IF PROGRAM HALTS HERE
 17529	040566	324 00 0 00 040567 		JUMPA	.+1		;IF TEST FAILS, CHANGE THIS INSTRUCTION (JUMPA .+1) TO
 17530									;JUMPA X (X IS THE ADDRESS OF THE FIRST INSTRUCTION
 17531									;IN THE SUBTEST) TO LOOP ON ERROR^
 17532
 17533					;**********
 17534
 17535
 17536					;THIS TEST VERIFIES THAT MOVS SWAPS LEFT AND RIGHT HALVES OF E AND
 17537					;MOVES IT INTO AC.  IN THIS CASE, A 0 IS RIPPLED THRU BOTH HALVES
 17538					;OF E [C(E)=ZZ,,ZZ, WHERE ZZ IS A FLOATING 0].  THEN, C(AC) IS CHECKED.
 17539					;THIS TEST IS REPEATED 18 TIMES TO FLOAT A 0 THRU ALL 18 BITS OF EACH HALF
 17540
 17541			002204		SN=SN+1
 17542		777777	777767			ZZ=ZZ+ZZ+1
 17543						IFE	<ZZ-1>,<ZZ=-2>
 17544	040567	204 00 0 00 070464 		MOVS	[XWD ZZ,ZZ]	;*MOVS SHOULD SWAP HALVES OF C(E)
 17545									;AND MOVE RESULT INTO AC
 17546	040570	312 00 0 00 070464 		CAME	[XWD ZZ,ZZ]	;PASS TEST IF AC CONTAINS ZZ,,ZZ
 17547						STOP		^
 17548	040571	254 04 0 00 040572 		HALT	.+1		;TEST FAILED IF PROGRAM HALTS HERE
 17549	040572	324 00 0 00 040573 		JUMPA	.+1		;IF TEST FAILS, CHANGE THIS INSTRUCTION (JUMPA .+1) TO
 17550									;JUMPA X (X IS THE ADDRESS OF THE FIRST INSTRUCTION
 17551									;IN THE SUBTEST) TO LOOP ON ERROR^
 17552
 17553					;**********
 17554
 17555
 17556					;THIS TEST VERIFIES THAT MOVS SWAPS LEFT AND RIGHT HALVES OF E AND
 17557					;MOVES IT INTO AC.  IN THIS CASE, A 0 IS RIPPLED THRU BOTH HALVES
 17558					;OF E [C(E)=ZZ,,ZZ, WHERE ZZ IS A FLOATING 0].  THEN, C(AC) IS CHECKED.
 17559					;THIS TEST IS REPEATED 18 TIMES TO FLOAT A 0 THRU ALL 18 BITS OF EACH HALF
 17560
 17561			002205		SN=SN+1
 17562		777777	777757			ZZ=ZZ+ZZ+1
 17563						IFE	<ZZ-1>,<ZZ=-2>
 17564	040573	204 00 0 00 070465 		MOVS	[XWD ZZ,ZZ]	;*MOVS SHOULD SWAP HALVES OF C(E)
 17565									;AND MOVE RESULT INTO AC
DFKAA PDP-10 KL10 BASIC INSTRUCTION DIAGNOSTIC (1) VER 0,2	MACRO %53B(1254)-4 11:50 11-Nov-24 Page 27-2
DFKAA2	MAC	13-Jan-89 10:22		TEST OF MOVS INSTRUCTION

 17566	040574	312 00 0 00 070465 		CAME	[XWD ZZ,ZZ]	;PASS TEST IF AC CONTAINS ZZ,,ZZ
 17567						STOP		^
 17568	040575	254 04 0 00 040576 		HALT	.+1		;TEST FAILED IF PROGRAM HALTS HERE
 17569	040576	324 00 0 00 040577 		JUMPA	.+1		;IF TEST FAILS, CHANGE THIS INSTRUCTION (JUMPA .+1) TO
 17570									;JUMPA X (X IS THE ADDRESS OF THE FIRST INSTRUCTION
 17571									;IN THE SUBTEST) TO LOOP ON ERROR^
 17572
 17573					;**********
 17574
 17575
 17576					;THIS TEST VERIFIES THAT MOVS SWAPS LEFT AND RIGHT HALVES OF E AND
 17577					;MOVES IT INTO AC.  IN THIS CASE, A 0 IS RIPPLED THRU BOTH HALVES
 17578					;OF E [C(E)=ZZ,,ZZ, WHERE ZZ IS A FLOATING 0].  THEN, C(AC) IS CHECKED.
 17579					;THIS TEST IS REPEATED 18 TIMES TO FLOAT A 0 THRU ALL 18 BITS OF EACH HALF
 17580
 17581			002206		SN=SN+1
 17582		777777	777737			ZZ=ZZ+ZZ+1
 17583						IFE	<ZZ-1>,<ZZ=-2>
 17584	040577	204 00 0 00 070466 		MOVS	[XWD ZZ,ZZ]	;*MOVS SHOULD SWAP HALVES OF C(E)
 17585									;AND MOVE RESULT INTO AC
 17586	040600	312 00 0 00 070466 		CAME	[XWD ZZ,ZZ]	;PASS TEST IF AC CONTAINS ZZ,,ZZ
 17587						STOP		^
 17588	040601	254 04 0 00 040602 		HALT	.+1		;TEST FAILED IF PROGRAM HALTS HERE
 17589	040602	324 00 0 00 040603 		JUMPA	.+1		;IF TEST FAILS, CHANGE THIS INSTRUCTION (JUMPA .+1) TO
 17590									;JUMPA X (X IS THE ADDRESS OF THE FIRST INSTRUCTION
 17591									;IN THE SUBTEST) TO LOOP ON ERROR^
 17592
 17593					;**********
 17594
 17595
 17596					;THIS TEST VERIFIES THAT MOVS SWAPS LEFT AND RIGHT HALVES OF E AND
 17597					;MOVES IT INTO AC.  IN THIS CASE, A 0 IS RIPPLED THRU BOTH HALVES
 17598					;OF E [C(E)=ZZ,,ZZ, WHERE ZZ IS A FLOATING 0].  THEN, C(AC) IS CHECKED.
 17599					;THIS TEST IS REPEATED 18 TIMES TO FLOAT A 0 THRU ALL 18 BITS OF EACH HALF
 17600
 17601			002207		SN=SN+1
 17602		777777	777677			ZZ=ZZ+ZZ+1
 17603						IFE	<ZZ-1>,<ZZ=-2>
 17604	040603	204 00 0 00 070467 		MOVS	[XWD ZZ,ZZ]	;*MOVS SHOULD SWAP HALVES OF C(E)
 17605									;AND MOVE RESULT INTO AC
 17606	040604	312 00 0 00 070467 		CAME	[XWD ZZ,ZZ]	;PASS TEST IF AC CONTAINS ZZ,,ZZ
 17607						STOP		^
 17608	040605	254 04 0 00 040606 		HALT	.+1		;TEST FAILED IF PROGRAM HALTS HERE
 17609	040606	324 00 0 00 040607 		JUMPA	.+1		;IF TEST FAILS, CHANGE THIS INSTRUCTION (JUMPA .+1) TO
 17610									;JUMPA X (X IS THE ADDRESS OF THE FIRST INSTRUCTION
 17611									;IN THE SUBTEST) TO LOOP ON ERROR^
 17612
 17613					;**********
 17614
 17615
 17616					;THIS TEST VERIFIES THAT MOVS SWAPS LEFT AND RIGHT HALVES OF E AND
 17617					;MOVES IT INTO AC.  IN THIS CASE, A 0 IS RIPPLED THRU BOTH HALVES
 17618					;OF E [C(E)=ZZ,,ZZ, WHERE ZZ IS A FLOATING 0].  THEN, C(AC) IS CHECKED.
 17619					;THIS TEST IS REPEATED 18 TIMES TO FLOAT A 0 THRU ALL 18 BITS OF EACH HALF
 17620
DFKAA PDP-10 KL10 BASIC INSTRUCTION DIAGNOSTIC (1) VER 0,2	MACRO %53B(1254)-4 11:50 11-Nov-24 Page 27-3
DFKAA2	MAC	13-Jan-89 10:22		TEST OF MOVS INSTRUCTION

 17621			002210		SN=SN+1
 17622		777777	777577			ZZ=ZZ+ZZ+1
 17623						IFE	<ZZ-1>,<ZZ=-2>
 17624	040607	204 00 0 00 070470 		MOVS	[XWD ZZ,ZZ]	;*MOVS SHOULD SWAP HALVES OF C(E)
 17625									;AND MOVE RESULT INTO AC
 17626	040610	312 00 0 00 070470 		CAME	[XWD ZZ,ZZ]	;PASS TEST IF AC CONTAINS ZZ,,ZZ
 17627						STOP		^
 17628	040611	254 04 0 00 040612 		HALT	.+1		;TEST FAILED IF PROGRAM HALTS HERE
 17629	040612	324 00 0 00 040613 		JUMPA	.+1		;IF TEST FAILS, CHANGE THIS INSTRUCTION (JUMPA .+1) TO
 17630									;JUMPA X (X IS THE ADDRESS OF THE FIRST INSTRUCTION
 17631									;IN THE SUBTEST) TO LOOP ON ERROR^
 17632
 17633					;**********
 17634
 17635
 17636					;THIS TEST VERIFIES THAT MOVS SWAPS LEFT AND RIGHT HALVES OF E AND
 17637					;MOVES IT INTO AC.  IN THIS CASE, A 0 IS RIPPLED THRU BOTH HALVES
 17638					;OF E [C(E)=ZZ,,ZZ, WHERE ZZ IS A FLOATING 0].  THEN, C(AC) IS CHECKED.
 17639					;THIS TEST IS REPEATED 18 TIMES TO FLOAT A 0 THRU ALL 18 BITS OF EACH HALF
 17640
 17641			002211		SN=SN+1
 17642		777777	777377			ZZ=ZZ+ZZ+1
 17643						IFE	<ZZ-1>,<ZZ=-2>
 17644	040613	204 00 0 00 070471 		MOVS	[XWD ZZ,ZZ]	;*MOVS SHOULD SWAP HALVES OF C(E)
 17645									;AND MOVE RESULT INTO AC
 17646	040614	312 00 0 00 070471 		CAME	[XWD ZZ,ZZ]	;PASS TEST IF AC CONTAINS ZZ,,ZZ
 17647						STOP		^
 17648	040615	254 04 0 00 040616 		HALT	.+1		;TEST FAILED IF PROGRAM HALTS HERE
 17649	040616	324 00 0 00 040617 		JUMPA	.+1		;IF TEST FAILS, CHANGE THIS INSTRUCTION (JUMPA .+1) TO
 17650									;JUMPA X (X IS THE ADDRESS OF THE FIRST INSTRUCTION
 17651									;IN THE SUBTEST) TO LOOP ON ERROR^
 17652
 17653					;**********
 17654
 17655
 17656					;THIS TEST VERIFIES THAT MOVS SWAPS LEFT AND RIGHT HALVES OF E AND
 17657					;MOVES IT INTO AC.  IN THIS CASE, A 0 IS RIPPLED THRU BOTH HALVES
 17658					;OF E [C(E)=ZZ,,ZZ, WHERE ZZ IS A FLOATING 0].  THEN, C(AC) IS CHECKED.
 17659					;THIS TEST IS REPEATED 18 TIMES TO FLOAT A 0 THRU ALL 18 BITS OF EACH HALF
 17660
 17661			002212		SN=SN+1
 17662		777777	776777			ZZ=ZZ+ZZ+1
 17663						IFE	<ZZ-1>,<ZZ=-2>
 17664	040617	204 00 0 00 070472 		MOVS	[XWD ZZ,ZZ]	;*MOVS SHOULD SWAP HALVES OF C(E)
 17665									;AND MOVE RESULT INTO AC
 17666	040620	312 00 0 00 070472 		CAME	[XWD ZZ,ZZ]	;PASS TEST IF AC CONTAINS ZZ,,ZZ
 17667						STOP		^
 17668	040621	254 04 0 00 040622 		HALT	.+1		;TEST FAILED IF PROGRAM HALTS HERE
 17669	040622	324 00 0 00 040623 		JUMPA	.+1		;IF TEST FAILS, CHANGE THIS INSTRUCTION (JUMPA .+1) TO
 17670									;JUMPA X (X IS THE ADDRESS OF THE FIRST INSTRUCTION
 17671									;IN THE SUBTEST) TO LOOP ON ERROR^
 17672
 17673					;**********
 17674
 17675
DFKAA PDP-10 KL10 BASIC INSTRUCTION DIAGNOSTIC (1) VER 0,2	MACRO %53B(1254)-4 11:50 11-Nov-24 Page 27-4
DFKAA2	MAC	13-Jan-89 10:22		TEST OF MOVS INSTRUCTION

 17676					;THIS TEST VERIFIES THAT MOVS SWAPS LEFT AND RIGHT HALVES OF E AND
 17677					;MOVES IT INTO AC.  IN THIS CASE, A 0 IS RIPPLED THRU BOTH HALVES
 17678					;OF E [C(E)=ZZ,,ZZ, WHERE ZZ IS A FLOATING 0].  THEN, C(AC) IS CHECKED.
 17679					;THIS TEST IS REPEATED 18 TIMES TO FLOAT A 0 THRU ALL 18 BITS OF EACH HALF
 17680
 17681			002213		SN=SN+1
 17682		777777	775777			ZZ=ZZ+ZZ+1
 17683						IFE	<ZZ-1>,<ZZ=-2>
 17684	040623	204 00 0 00 070473 		MOVS	[XWD ZZ,ZZ]	;*MOVS SHOULD SWAP HALVES OF C(E)
 17685									;AND MOVE RESULT INTO AC
 17686	040624	312 00 0 00 070473 		CAME	[XWD ZZ,ZZ]	;PASS TEST IF AC CONTAINS ZZ,,ZZ
 17687						STOP		^
 17688	040625	254 04 0 00 040626 		HALT	.+1		;TEST FAILED IF PROGRAM HALTS HERE
 17689	040626	324 00 0 00 040627 		JUMPA	.+1		;IF TEST FAILS, CHANGE THIS INSTRUCTION (JUMPA .+1) TO
 17690									;JUMPA X (X IS THE ADDRESS OF THE FIRST INSTRUCTION
 17691									;IN THE SUBTEST) TO LOOP ON ERROR^
 17692
 17693					;**********
 17694
 17695
 17696					;THIS TEST VERIFIES THAT MOVS SWAPS LEFT AND RIGHT HALVES OF E AND
 17697					;MOVES IT INTO AC.  IN THIS CASE, A 0 IS RIPPLED THRU BOTH HALVES
 17698					;OF E [C(E)=ZZ,,ZZ, WHERE ZZ IS A FLOATING 0].  THEN, C(AC) IS CHECKED.
 17699					;THIS TEST IS REPEATED 18 TIMES TO FLOAT A 0 THRU ALL 18 BITS OF EACH HALF
 17700
 17701			002214		SN=SN+1
 17702		777777	773777			ZZ=ZZ+ZZ+1
 17703						IFE	<ZZ-1>,<ZZ=-2>
 17704	040627	204 00 0 00 070474 		MOVS	[XWD ZZ,ZZ]	;*MOVS SHOULD SWAP HALVES OF C(E)
 17705									;AND MOVE RESULT INTO AC
 17706	040630	312 00 0 00 070474 		CAME	[XWD ZZ,ZZ]	;PASS TEST IF AC CONTAINS ZZ,,ZZ
 17707						STOP		^
 17708	040631	254 04 0 00 040632 		HALT	.+1		;TEST FAILED IF PROGRAM HALTS HERE
 17709	040632	324 00 0 00 040633 		JUMPA	.+1		;IF TEST FAILS, CHANGE THIS INSTRUCTION (JUMPA .+1) TO
 17710									;JUMPA X (X IS THE ADDRESS OF THE FIRST INSTRUCTION
 17711									;IN THE SUBTEST) TO LOOP ON ERROR^
 17712
 17713					;**********
 17714
 17715
 17716					;THIS TEST VERIFIES THAT MOVS SWAPS LEFT AND RIGHT HALVES OF E AND
 17717					;MOVES IT INTO AC.  IN THIS CASE, A 0 IS RIPPLED THRU BOTH HALVES
 17718					;OF E [C(E)=ZZ,,ZZ, WHERE ZZ IS A FLOATING 0].  THEN, C(AC) IS CHECKED.
 17719					;THIS TEST IS REPEATED 18 TIMES TO FLOAT A 0 THRU ALL 18 BITS OF EACH HALF
 17720
 17721			002215		SN=SN+1
 17722		777777	767777			ZZ=ZZ+ZZ+1
 17723						IFE	<ZZ-1>,<ZZ=-2>
 17724	040633	204 00 0 00 070475 		MOVS	[XWD ZZ,ZZ]	;*MOVS SHOULD SWAP HALVES OF C(E)
 17725									;AND MOVE RESULT INTO AC
 17726	040634	312 00 0 00 070475 		CAME	[XWD ZZ,ZZ]	;PASS TEST IF AC CONTAINS ZZ,,ZZ
 17727						STOP		^
 17728	040635	254 04 0 00 040636 		HALT	.+1		;TEST FAILED IF PROGRAM HALTS HERE
 17729	040636	324 00 0 00 040637 		JUMPA	.+1		;IF TEST FAILS, CHANGE THIS INSTRUCTION (JUMPA .+1) TO
 17730									;JUMPA X (X IS THE ADDRESS OF THE FIRST INSTRUCTION
DFKAA PDP-10 KL10 BASIC INSTRUCTION DIAGNOSTIC (1) VER 0,2	MACRO %53B(1254)-4 11:50 11-Nov-24 Page 27-5
DFKAA2	MAC	13-Jan-89 10:22		TEST OF MOVS INSTRUCTION

 17731									;IN THE SUBTEST) TO LOOP ON ERROR^
 17732
 17733					;**********
 17734
 17735
 17736					;THIS TEST VERIFIES THAT MOVS SWAPS LEFT AND RIGHT HALVES OF E AND
 17737					;MOVES IT INTO AC.  IN THIS CASE, A 0 IS RIPPLED THRU BOTH HALVES
 17738					;OF E [C(E)=ZZ,,ZZ, WHERE ZZ IS A FLOATING 0].  THEN, C(AC) IS CHECKED.
 17739					;THIS TEST IS REPEATED 18 TIMES TO FLOAT A 0 THRU ALL 18 BITS OF EACH HALF
 17740
 17741			002216		SN=SN+1
 17742		777777	757777			ZZ=ZZ+ZZ+1
 17743						IFE	<ZZ-1>,<ZZ=-2>
 17744	040637	204 00 0 00 070476 		MOVS	[XWD ZZ,ZZ]	;*MOVS SHOULD SWAP HALVES OF C(E)
 17745									;AND MOVE RESULT INTO AC
 17746	040640	312 00 0 00 070476 		CAME	[XWD ZZ,ZZ]	;PASS TEST IF AC CONTAINS ZZ,,ZZ
 17747						STOP		^
 17748	040641	254 04 0 00 040642 		HALT	.+1		;TEST FAILED IF PROGRAM HALTS HERE
 17749	040642	324 00 0 00 040643 		JUMPA	.+1		;IF TEST FAILS, CHANGE THIS INSTRUCTION (JUMPA .+1) TO
 17750									;JUMPA X (X IS THE ADDRESS OF THE FIRST INSTRUCTION
 17751									;IN THE SUBTEST) TO LOOP ON ERROR^
 17752
 17753					;**********
 17754
 17755
 17756					;THIS TEST VERIFIES THAT MOVS SWAPS LEFT AND RIGHT HALVES OF E AND
 17757					;MOVES IT INTO AC.  IN THIS CASE, A 0 IS RIPPLED THRU BOTH HALVES
 17758					;OF E [C(E)=ZZ,,ZZ, WHERE ZZ IS A FLOATING 0].  THEN, C(AC) IS CHECKED.
 17759					;THIS TEST IS REPEATED 18 TIMES TO FLOAT A 0 THRU ALL 18 BITS OF EACH HALF
 17760
 17761			002217		SN=SN+1
 17762		777777	737777			ZZ=ZZ+ZZ+1
 17763						IFE	<ZZ-1>,<ZZ=-2>
 17764	040643	204 00 0 00 070477 		MOVS	[XWD ZZ,ZZ]	;*MOVS SHOULD SWAP HALVES OF C(E)
 17765									;AND MOVE RESULT INTO AC
 17766	040644	312 00 0 00 070477 		CAME	[XWD ZZ,ZZ]	;PASS TEST IF AC CONTAINS ZZ,,ZZ
 17767						STOP		^
 17768	040645	254 04 0 00 040646 		HALT	.+1		;TEST FAILED IF PROGRAM HALTS HERE
 17769	040646	324 00 0 00 040647 		JUMPA	.+1		;IF TEST FAILS, CHANGE THIS INSTRUCTION (JUMPA .+1) TO
 17770									;JUMPA X (X IS THE ADDRESS OF THE FIRST INSTRUCTION
 17771									;IN THE SUBTEST) TO LOOP ON ERROR^
 17772
 17773					;**********
 17774
 17775
 17776					;THIS TEST VERIFIES THAT MOVS SWAPS LEFT AND RIGHT HALVES OF E AND
 17777					;MOVES IT INTO AC.  IN THIS CASE, A 0 IS RIPPLED THRU BOTH HALVES
 17778					;OF E [C(E)=ZZ,,ZZ, WHERE ZZ IS A FLOATING 0].  THEN, C(AC) IS CHECKED.
 17779					;THIS TEST IS REPEATED 18 TIMES TO FLOAT A 0 THRU ALL 18 BITS OF EACH HALF
 17780
 17781			002220		SN=SN+1
 17782		777777	677777			ZZ=ZZ+ZZ+1
 17783						IFE	<ZZ-1>,<ZZ=-2>
 17784	040647	204 00 0 00 070500 		MOVS	[XWD ZZ,ZZ]	;*MOVS SHOULD SWAP HALVES OF C(E)
 17785									;AND MOVE RESULT INTO AC
DFKAA PDP-10 KL10 BASIC INSTRUCTION DIAGNOSTIC (1) VER 0,2	MACRO %53B(1254)-4 11:50 11-Nov-24 Page 27-6
DFKAA2	MAC	13-Jan-89 10:22		TEST OF MOVS INSTRUCTION

 17786	040650	312 00 0 00 070500 		CAME	[XWD ZZ,ZZ]	;PASS TEST IF AC CONTAINS ZZ,,ZZ
 17787						STOP		^
 17788	040651	254 04 0 00 040652 		HALT	.+1		;TEST FAILED IF PROGRAM HALTS HERE
 17789	040652	324 00 0 00 040653 		JUMPA	.+1		;IF TEST FAILS, CHANGE THIS INSTRUCTION (JUMPA .+1) TO
 17790									;JUMPA X (X IS THE ADDRESS OF THE FIRST INSTRUCTION
 17791									;IN THE SUBTEST) TO LOOP ON ERROR^
 17792
 17793					;**********
 17794
 17795
 17796					;THIS TEST VERIFIES THAT MOVS SWAPS LEFT AND RIGHT HALVES OF E AND
 17797					;MOVES IT INTO AC.  IN THIS CASE, A 0 IS RIPPLED THRU BOTH HALVES
 17798					;OF E [C(E)=ZZ,,ZZ, WHERE ZZ IS A FLOATING 0].  THEN, C(AC) IS CHECKED.
 17799					;THIS TEST IS REPEATED 18 TIMES TO FLOAT A 0 THRU ALL 18 BITS OF EACH HALF
 17800
 17801			002221		SN=SN+1
 17802		777777	577777			ZZ=ZZ+ZZ+1
 17803						IFE	<ZZ-1>,<ZZ=-2>
 17804	040653	204 00 0 00 070501 		MOVS	[XWD ZZ,ZZ]	;*MOVS SHOULD SWAP HALVES OF C(E)
 17805									;AND MOVE RESULT INTO AC
 17806	040654	312 00 0 00 070501 		CAME	[XWD ZZ,ZZ]	;PASS TEST IF AC CONTAINS ZZ,,ZZ
 17807						STOP		^
 17808	040655	254 04 0 00 040656 		HALT	.+1		;TEST FAILED IF PROGRAM HALTS HERE
 17809	040656	324 00 0 00 040657 		JUMPA	.+1		;IF TEST FAILS, CHANGE THIS INSTRUCTION (JUMPA .+1) TO
 17810									;JUMPA X (X IS THE ADDRESS OF THE FIRST INSTRUCTION
 17811									;IN THE SUBTEST) TO LOOP ON ERROR^
 17812
 17813					;**********
 17814
 17815
 17816					;THIS TEST VERIFIES THAT MOVS SWAPS LEFT AND RIGHT HALVES OF E AND
 17817					;MOVES IT INTO AC.  IN THIS CASE, A 0 IS RIPPLED THRU BOTH HALVES
 17818					;OF E [C(E)=ZZ,,ZZ, WHERE ZZ IS A FLOATING 0].  THEN, C(AC) IS CHECKED.
 17819					;THIS TEST IS REPEATED 18 TIMES TO FLOAT A 0 THRU ALL 18 BITS OF EACH HALF
 17820
 17821			002222		SN=SN+1
 17822		777777	377777			ZZ=ZZ+ZZ+1
 17823						IFE	<ZZ-1>,<ZZ=-2>
 17824	040657	204 00 0 00 070502 		MOVS	[XWD ZZ,ZZ]	;*MOVS SHOULD SWAP HALVES OF C(E)
 17825									;AND MOVE RESULT INTO AC
 17826	040660	312 00 0 00 070502 		CAME	[XWD ZZ,ZZ]	;PASS TEST IF AC CONTAINS ZZ,,ZZ
 17827						STOP		^
 17828	040661	254 04 0 00 040662 		HALT	.+1		;TEST FAILED IF PROGRAM HALTS HERE
 17829	040662	324 00 0 00 040663 		JUMPA	.+1		;IF TEST FAILS, CHANGE THIS INSTRUCTION (JUMPA .+1) TO
 17830									;JUMPA X (X IS THE ADDRESS OF THE FIRST INSTRUCTION
 17831									;IN THE SUBTEST) TO LOOP ON ERROR^
 17832
 17833					;**********
 17834
DFKAA PDP-10 KL10 BASIC INSTRUCTION DIAGNOSTIC (1) VER 0,2	MACRO %53B(1254)-4 11:50 11-Nov-24 Page 28
DFKAA2	MAC	13-Jan-89 10:22		TEST OF MOVS INSTRUCTION

 17835			002300		SN=2300
 17836			000000			ZZ=0
 17837			000000			YY=0
 17838
 17839					B2300:	REPEAT	^D18,<
 17840					;THIS TEST VERIFIES THAT MOVS SWAPS LEFT AND RIGHT HALVES OF E AND
 17841					;MOVES IT INTO AC.  IN THIS CASE, A 1 IS RIPPLED THRU THE LEFT HALF OF E
 17842					;AND A 0 IS RIPPLED THRU THE RIGHT HALF
 17843					;OF E [C(E)=ZZ,,YY, WHERE ZZ IS A FLOATING 1 AND YY IS A FLOATING 0].
 17844					;THEN, C(AC) IS CHECKED.
 17845					;THIS TEST IS REPEATED 18 TIMES TO FLOAT A 1 THRU ALL 18 BITS OF
 17846					;THE LEFT HALF AND A 0 THRU ALL 18 BITS OF THE RIGHT HALF OF E
 17847
 17848					SN=SN+1
 17849						ZZ=ZZ+ZZ
 17850						YY=YY+YY+1
 17851						IFE	ZZ,<ZZ=1>
 17852						IFE	<YY-1>,<YY=-2>
 17853						MOVS	[XWD ZZ,YY]	;*MOVS SHOULD SWAP HALVES OF C(E)
 17854									;AND MOVE RESULT INTO AC
 17855						CAME	[XWD YY,ZZ]	;PASS TEST IF AC CONTAINS YY,,ZZ
 17856						STOP
 17857
 17858					;**********
 17859					>
 17860
 17861					;THIS TEST VERIFIES THAT MOVS SWAPS LEFT AND RIGHT HALVES OF E AND
 17862					;MOVES IT INTO AC.  IN THIS CASE, A 1 IS RIPPLED THRU THE LEFT HALF OF E
 17863					;AND A 0 IS RIPPLED THRU THE RIGHT HALF
 17864					;OF E [C(E)=ZZ,,YY, WHERE ZZ IS A FLOATING 1 AND YY IS A FLOATING 0].
 17865					;THEN, C(AC) IS CHECKED.
 17866					;THIS TEST IS REPEATED 18 TIMES TO FLOAT A 1 THRU ALL 18 BITS OF
 17867					;THE LEFT HALF AND A 0 THRU ALL 18 BITS OF THE RIGHT HALF OF E
 17868
 17869			002301		SN=SN+1
 17870			000000			ZZ=ZZ+ZZ
 17871			000001			YY=YY+YY+1
 17872			000001			IFE	ZZ,<ZZ=1>
 17873		777777	777776			IFE	<YY-1>,<YY=-2>
 17874	040663	204 00 0 00 070503 		MOVS	[XWD ZZ,YY]	;*MOVS SHOULD SWAP HALVES OF C(E)
 17875									;AND MOVE RESULT INTO AC
 17876	040664	312 00 0 00 070504 		CAME	[XWD YY,ZZ]	;PASS TEST IF AC CONTAINS YY,,ZZ
 17877						STOP		^
 17878	040665	254 04 0 00 040666 		HALT	.+1		;TEST FAILED IF PROGRAM HALTS HERE
 17879	040666	324 00 0 00 040667 		JUMPA	.+1		;IF TEST FAILS, CHANGE THIS INSTRUCTION (JUMPA .+1) TO
 17880									;JUMPA X (X IS THE ADDRESS OF THE FIRST INSTRUCTION
 17881									;IN THE SUBTEST) TO LOOP ON ERROR^
 17882
 17883					;**********
 17884
 17885
 17886					;THIS TEST VERIFIES THAT MOVS SWAPS LEFT AND RIGHT HALVES OF E AND
 17887					;MOVES IT INTO AC.  IN THIS CASE, A 1 IS RIPPLED THRU THE LEFT HALF OF E
 17888					;AND A 0 IS RIPPLED THRU THE RIGHT HALF
 17889					;OF E [C(E)=ZZ,,YY, WHERE ZZ IS A FLOATING 1 AND YY IS A FLOATING 0].
DFKAA PDP-10 KL10 BASIC INSTRUCTION DIAGNOSTIC (1) VER 0,2	MACRO %53B(1254)-4 11:50 11-Nov-24 Page 28-1
DFKAA2	MAC	13-Jan-89 10:22		TEST OF MOVS INSTRUCTION

 17890					;THEN, C(AC) IS CHECKED.
 17891					;THIS TEST IS REPEATED 18 TIMES TO FLOAT A 1 THRU ALL 18 BITS OF
 17892					;THE LEFT HALF AND A 0 THRU ALL 18 BITS OF THE RIGHT HALF OF E
 17893
 17894			002302		SN=SN+1
 17895			000002			ZZ=ZZ+ZZ
 17896		777777	777775			YY=YY+YY+1
 17897						IFE	ZZ,<ZZ=1>
 17898						IFE	<YY-1>,<YY=-2>
 17899	040667	204 00 0 00 070505 		MOVS	[XWD ZZ,YY]	;*MOVS SHOULD SWAP HALVES OF C(E)
 17900									;AND MOVE RESULT INTO AC
 17901	040670	312 00 0 00 070506 		CAME	[XWD YY,ZZ]	;PASS TEST IF AC CONTAINS YY,,ZZ
 17902						STOP		^
 17903	040671	254 04 0 00 040672 		HALT	.+1		;TEST FAILED IF PROGRAM HALTS HERE
 17904	040672	324 00 0 00 040673 		JUMPA	.+1		;IF TEST FAILS, CHANGE THIS INSTRUCTION (JUMPA .+1) TO
 17905									;JUMPA X (X IS THE ADDRESS OF THE FIRST INSTRUCTION
 17906									;IN THE SUBTEST) TO LOOP ON ERROR^
 17907
 17908					;**********
 17909
 17910
 17911					;THIS TEST VERIFIES THAT MOVS SWAPS LEFT AND RIGHT HALVES OF E AND
 17912					;MOVES IT INTO AC.  IN THIS CASE, A 1 IS RIPPLED THRU THE LEFT HALF OF E
 17913					;AND A 0 IS RIPPLED THRU THE RIGHT HALF
 17914					;OF E [C(E)=ZZ,,YY, WHERE ZZ IS A FLOATING 1 AND YY IS A FLOATING 0].
 17915					;THEN, C(AC) IS CHECKED.
 17916					;THIS TEST IS REPEATED 18 TIMES TO FLOAT A 1 THRU ALL 18 BITS OF
 17917					;THE LEFT HALF AND A 0 THRU ALL 18 BITS OF THE RIGHT HALF OF E
 17918
 17919			002303		SN=SN+1
 17920			000004			ZZ=ZZ+ZZ
 17921		777777	777773			YY=YY+YY+1
 17922						IFE	ZZ,<ZZ=1>
 17923						IFE	<YY-1>,<YY=-2>
 17924	040673	204 00 0 00 070507 		MOVS	[XWD ZZ,YY]	;*MOVS SHOULD SWAP HALVES OF C(E)
 17925									;AND MOVE RESULT INTO AC
 17926	040674	312 00 0 00 070510 		CAME	[XWD YY,ZZ]	;PASS TEST IF AC CONTAINS YY,,ZZ
 17927						STOP		^
 17928	040675	254 04 0 00 040676 		HALT	.+1		;TEST FAILED IF PROGRAM HALTS HERE
 17929	040676	324 00 0 00 040677 		JUMPA	.+1		;IF TEST FAILS, CHANGE THIS INSTRUCTION (JUMPA .+1) TO
 17930									;JUMPA X (X IS THE ADDRESS OF THE FIRST INSTRUCTION
 17931									;IN THE SUBTEST) TO LOOP ON ERROR^
 17932
 17933					;**********
 17934
 17935
 17936					;THIS TEST VERIFIES THAT MOVS SWAPS LEFT AND RIGHT HALVES OF E AND
 17937					;MOVES IT INTO AC.  IN THIS CASE, A 1 IS RIPPLED THRU THE LEFT HALF OF E
 17938					;AND A 0 IS RIPPLED THRU THE RIGHT HALF
 17939					;OF E [C(E)=ZZ,,YY, WHERE ZZ IS A FLOATING 1 AND YY IS A FLOATING 0].
 17940					;THEN, C(AC) IS CHECKED.
 17941					;THIS TEST IS REPEATED 18 TIMES TO FLOAT A 1 THRU ALL 18 BITS OF
 17942					;THE LEFT HALF AND A 0 THRU ALL 18 BITS OF THE RIGHT HALF OF E
 17943
 17944			002304		SN=SN+1
DFKAA PDP-10 KL10 BASIC INSTRUCTION DIAGNOSTIC (1) VER 0,2	MACRO %53B(1254)-4 11:50 11-Nov-24 Page 28-2
DFKAA2	MAC	13-Jan-89 10:22		TEST OF MOVS INSTRUCTION

 17945			000010			ZZ=ZZ+ZZ
 17946		777777	777767			YY=YY+YY+1
 17947						IFE	ZZ,<ZZ=1>
 17948						IFE	<YY-1>,<YY=-2>
 17949	040677	204 00 0 00 070511 		MOVS	[XWD ZZ,YY]	;*MOVS SHOULD SWAP HALVES OF C(E)
 17950									;AND MOVE RESULT INTO AC
 17951	040700	312 00 0 00 070512 		CAME	[XWD YY,ZZ]	;PASS TEST IF AC CONTAINS YY,,ZZ
 17952						STOP		^
 17953	040701	254 04 0 00 040702 		HALT	.+1		;TEST FAILED IF PROGRAM HALTS HERE
 17954	040702	324 00 0 00 040703 		JUMPA	.+1		;IF TEST FAILS, CHANGE THIS INSTRUCTION (JUMPA .+1) TO
 17955									;JUMPA X (X IS THE ADDRESS OF THE FIRST INSTRUCTION
 17956									;IN THE SUBTEST) TO LOOP ON ERROR^
 17957
 17958					;**********
 17959
 17960
 17961					;THIS TEST VERIFIES THAT MOVS SWAPS LEFT AND RIGHT HALVES OF E AND
 17962					;MOVES IT INTO AC.  IN THIS CASE, A 1 IS RIPPLED THRU THE LEFT HALF OF E
 17963					;AND A 0 IS RIPPLED THRU THE RIGHT HALF
 17964					;OF E [C(E)=ZZ,,YY, WHERE ZZ IS A FLOATING 1 AND YY IS A FLOATING 0].
 17965					;THEN, C(AC) IS CHECKED.
 17966					;THIS TEST IS REPEATED 18 TIMES TO FLOAT A 1 THRU ALL 18 BITS OF
 17967					;THE LEFT HALF AND A 0 THRU ALL 18 BITS OF THE RIGHT HALF OF E
 17968
 17969			002305		SN=SN+1
 17970			000020			ZZ=ZZ+ZZ
 17971		777777	777757			YY=YY+YY+1
 17972						IFE	ZZ,<ZZ=1>
 17973						IFE	<YY-1>,<YY=-2>
 17974	040703	204 00 0 00 070513 		MOVS	[XWD ZZ,YY]	;*MOVS SHOULD SWAP HALVES OF C(E)
 17975									;AND MOVE RESULT INTO AC
 17976	040704	312 00 0 00 070514 		CAME	[XWD YY,ZZ]	;PASS TEST IF AC CONTAINS YY,,ZZ
 17977						STOP		^
 17978	040705	254 04 0 00 040706 		HALT	.+1		;TEST FAILED IF PROGRAM HALTS HERE
 17979	040706	324 00 0 00 040707 		JUMPA	.+1		;IF TEST FAILS, CHANGE THIS INSTRUCTION (JUMPA .+1) TO
 17980									;JUMPA X (X IS THE ADDRESS OF THE FIRST INSTRUCTION
 17981									;IN THE SUBTEST) TO LOOP ON ERROR^
 17982
 17983					;**********
 17984
 17985
 17986					;THIS TEST VERIFIES THAT MOVS SWAPS LEFT AND RIGHT HALVES OF E AND
 17987					;MOVES IT INTO AC.  IN THIS CASE, A 1 IS RIPPLED THRU THE LEFT HALF OF E
 17988					;AND A 0 IS RIPPLED THRU THE RIGHT HALF
 17989					;OF E [C(E)=ZZ,,YY, WHERE ZZ IS A FLOATING 1 AND YY IS A FLOATING 0].
 17990					;THEN, C(AC) IS CHECKED.
 17991					;THIS TEST IS REPEATED 18 TIMES TO FLOAT A 1 THRU ALL 18 BITS OF
 17992					;THE LEFT HALF AND A 0 THRU ALL 18 BITS OF THE RIGHT HALF OF E
 17993
 17994			002306		SN=SN+1
 17995			000040			ZZ=ZZ+ZZ
 17996		777777	777737			YY=YY+YY+1
 17997						IFE	ZZ,<ZZ=1>
 17998						IFE	<YY-1>,<YY=-2>
 17999	040707	204 00 0 00 070515 		MOVS	[XWD ZZ,YY]	;*MOVS SHOULD SWAP HALVES OF C(E)
DFKAA PDP-10 KL10 BASIC INSTRUCTION DIAGNOSTIC (1) VER 0,2	MACRO %53B(1254)-4 11:50 11-Nov-24 Page 28-3
DFKAA2	MAC	13-Jan-89 10:22		TEST OF MOVS INSTRUCTION

 18000									;AND MOVE RESULT INTO AC
 18001	040710	312 00 0 00 070516 		CAME	[XWD YY,ZZ]	;PASS TEST IF AC CONTAINS YY,,ZZ
 18002						STOP		^
 18003	040711	254 04 0 00 040712 		HALT	.+1		;TEST FAILED IF PROGRAM HALTS HERE
 18004	040712	324 00 0 00 040713 		JUMPA	.+1		;IF TEST FAILS, CHANGE THIS INSTRUCTION (JUMPA .+1) TO
 18005									;JUMPA X (X IS THE ADDRESS OF THE FIRST INSTRUCTION
 18006									;IN THE SUBTEST) TO LOOP ON ERROR^
 18007
 18008					;**********
 18009
 18010
 18011					;THIS TEST VERIFIES THAT MOVS SWAPS LEFT AND RIGHT HALVES OF E AND
 18012					;MOVES IT INTO AC.  IN THIS CASE, A 1 IS RIPPLED THRU THE LEFT HALF OF E
 18013					;AND A 0 IS RIPPLED THRU THE RIGHT HALF
 18014					;OF E [C(E)=ZZ,,YY, WHERE ZZ IS A FLOATING 1 AND YY IS A FLOATING 0].
 18015					;THEN, C(AC) IS CHECKED.
 18016					;THIS TEST IS REPEATED 18 TIMES TO FLOAT A 1 THRU ALL 18 BITS OF
 18017					;THE LEFT HALF AND A 0 THRU ALL 18 BITS OF THE RIGHT HALF OF E
 18018
 18019			002307		SN=SN+1
 18020			000100			ZZ=ZZ+ZZ
 18021		777777	777677			YY=YY+YY+1
 18022						IFE	ZZ,<ZZ=1>
 18023						IFE	<YY-1>,<YY=-2>
 18024	040713	204 00 0 00 070517 		MOVS	[XWD ZZ,YY]	;*MOVS SHOULD SWAP HALVES OF C(E)
 18025									;AND MOVE RESULT INTO AC
 18026	040714	312 00 0 00 070520 		CAME	[XWD YY,ZZ]	;PASS TEST IF AC CONTAINS YY,,ZZ
 18027						STOP		^
 18028	040715	254 04 0 00 040716 		HALT	.+1		;TEST FAILED IF PROGRAM HALTS HERE
 18029	040716	324 00 0 00 040717 		JUMPA	.+1		;IF TEST FAILS, CHANGE THIS INSTRUCTION (JUMPA .+1) TO
 18030									;JUMPA X (X IS THE ADDRESS OF THE FIRST INSTRUCTION
 18031									;IN THE SUBTEST) TO LOOP ON ERROR^
 18032
 18033					;**********
 18034
 18035
 18036					;THIS TEST VERIFIES THAT MOVS SWAPS LEFT AND RIGHT HALVES OF E AND
 18037					;MOVES IT INTO AC.  IN THIS CASE, A 1 IS RIPPLED THRU THE LEFT HALF OF E
 18038					;AND A 0 IS RIPPLED THRU THE RIGHT HALF
 18039					;OF E [C(E)=ZZ,,YY, WHERE ZZ IS A FLOATING 1 AND YY IS A FLOATING 0].
 18040					;THEN, C(AC) IS CHECKED.
 18041					;THIS TEST IS REPEATED 18 TIMES TO FLOAT A 1 THRU ALL 18 BITS OF
 18042					;THE LEFT HALF AND A 0 THRU ALL 18 BITS OF THE RIGHT HALF OF E
 18043
 18044			002310		SN=SN+1
 18045			000200			ZZ=ZZ+ZZ
 18046		777777	777577			YY=YY+YY+1
 18047						IFE	ZZ,<ZZ=1>
 18048						IFE	<YY-1>,<YY=-2>
 18049	040717	204 00 0 00 070521 		MOVS	[XWD ZZ,YY]	;*MOVS SHOULD SWAP HALVES OF C(E)
 18050									;AND MOVE RESULT INTO AC
 18051	040720	312 00 0 00 070522 		CAME	[XWD YY,ZZ]	;PASS TEST IF AC CONTAINS YY,,ZZ
 18052						STOP		^
 18053	040721	254 04 0 00 040722 		HALT	.+1		;TEST FAILED IF PROGRAM HALTS HERE
 18054	040722	324 00 0 00 040723 		JUMPA	.+1		;IF TEST FAILS, CHANGE THIS INSTRUCTION (JUMPA .+1) TO
DFKAA PDP-10 KL10 BASIC INSTRUCTION DIAGNOSTIC (1) VER 0,2	MACRO %53B(1254)-4 11:50 11-Nov-24 Page 28-4
DFKAA2	MAC	13-Jan-89 10:22		TEST OF MOVS INSTRUCTION

 18055									;JUMPA X (X IS THE ADDRESS OF THE FIRST INSTRUCTION
 18056									;IN THE SUBTEST) TO LOOP ON ERROR^
 18057
 18058					;**********
 18059
 18060
 18061					;THIS TEST VERIFIES THAT MOVS SWAPS LEFT AND RIGHT HALVES OF E AND
 18062					;MOVES IT INTO AC.  IN THIS CASE, A 1 IS RIPPLED THRU THE LEFT HALF OF E
 18063					;AND A 0 IS RIPPLED THRU THE RIGHT HALF
 18064					;OF E [C(E)=ZZ,,YY, WHERE ZZ IS A FLOATING 1 AND YY IS A FLOATING 0].
 18065					;THEN, C(AC) IS CHECKED.
 18066					;THIS TEST IS REPEATED 18 TIMES TO FLOAT A 1 THRU ALL 18 BITS OF
 18067					;THE LEFT HALF AND A 0 THRU ALL 18 BITS OF THE RIGHT HALF OF E
 18068
 18069			002311		SN=SN+1
 18070			000400			ZZ=ZZ+ZZ
 18071		777777	777377			YY=YY+YY+1
 18072						IFE	ZZ,<ZZ=1>
 18073						IFE	<YY-1>,<YY=-2>
 18074	040723	204 00 0 00 070523 		MOVS	[XWD ZZ,YY]	;*MOVS SHOULD SWAP HALVES OF C(E)
 18075									;AND MOVE RESULT INTO AC
 18076	040724	312 00 0 00 070524 		CAME	[XWD YY,ZZ]	;PASS TEST IF AC CONTAINS YY,,ZZ
 18077						STOP		^
 18078	040725	254 04 0 00 040726 		HALT	.+1		;TEST FAILED IF PROGRAM HALTS HERE
 18079	040726	324 00 0 00 040727 		JUMPA	.+1		;IF TEST FAILS, CHANGE THIS INSTRUCTION (JUMPA .+1) TO
 18080									;JUMPA X (X IS THE ADDRESS OF THE FIRST INSTRUCTION
 18081									;IN THE SUBTEST) TO LOOP ON ERROR^
 18082
 18083					;**********
 18084
 18085
 18086					;THIS TEST VERIFIES THAT MOVS SWAPS LEFT AND RIGHT HALVES OF E AND
 18087					;MOVES IT INTO AC.  IN THIS CASE, A 1 IS RIPPLED THRU THE LEFT HALF OF E
 18088					;AND A 0 IS RIPPLED THRU THE RIGHT HALF
 18089					;OF E [C(E)=ZZ,,YY, WHERE ZZ IS A FLOATING 1 AND YY IS A FLOATING 0].
 18090					;THEN, C(AC) IS CHECKED.
 18091					;THIS TEST IS REPEATED 18 TIMES TO FLOAT A 1 THRU ALL 18 BITS OF
 18092					;THE LEFT HALF AND A 0 THRU ALL 18 BITS OF THE RIGHT HALF OF E
 18093
 18094			002312		SN=SN+1
 18095			001000			ZZ=ZZ+ZZ
 18096		777777	776777			YY=YY+YY+1
 18097						IFE	ZZ,<ZZ=1>
 18098						IFE	<YY-1>,<YY=-2>
 18099	040727	204 00 0 00 070525 		MOVS	[XWD ZZ,YY]	;*MOVS SHOULD SWAP HALVES OF C(E)
 18100									;AND MOVE RESULT INTO AC
 18101	040730	312 00 0 00 070526 		CAME	[XWD YY,ZZ]	;PASS TEST IF AC CONTAINS YY,,ZZ
 18102						STOP		^
 18103	040731	254 04 0 00 040732 		HALT	.+1		;TEST FAILED IF PROGRAM HALTS HERE
 18104	040732	324 00 0 00 040733 		JUMPA	.+1		;IF TEST FAILS, CHANGE THIS INSTRUCTION (JUMPA .+1) TO
 18105									;JUMPA X (X IS THE ADDRESS OF THE FIRST INSTRUCTION
 18106									;IN THE SUBTEST) TO LOOP ON ERROR^
 18107
 18108					;**********
 18109
DFKAA PDP-10 KL10 BASIC INSTRUCTION DIAGNOSTIC (1) VER 0,2	MACRO %53B(1254)-4 11:50 11-Nov-24 Page 28-5
DFKAA2	MAC	13-Jan-89 10:22		TEST OF MOVS INSTRUCTION

 18110
 18111					;THIS TEST VERIFIES THAT MOVS SWAPS LEFT AND RIGHT HALVES OF E AND
 18112					;MOVES IT INTO AC.  IN THIS CASE, A 1 IS RIPPLED THRU THE LEFT HALF OF E
 18113					;AND A 0 IS RIPPLED THRU THE RIGHT HALF
 18114					;OF E [C(E)=ZZ,,YY, WHERE ZZ IS A FLOATING 1 AND YY IS A FLOATING 0].
 18115					;THEN, C(AC) IS CHECKED.
 18116					;THIS TEST IS REPEATED 18 TIMES TO FLOAT A 1 THRU ALL 18 BITS OF
 18117					;THE LEFT HALF AND A 0 THRU ALL 18 BITS OF THE RIGHT HALF OF E
 18118
 18119			002313		SN=SN+1
 18120			002000			ZZ=ZZ+ZZ
 18121		777777	775777			YY=YY+YY+1
 18122						IFE	ZZ,<ZZ=1>
 18123						IFE	<YY-1>,<YY=-2>
 18124	040733	204 00 0 00 070527 		MOVS	[XWD ZZ,YY]	;*MOVS SHOULD SWAP HALVES OF C(E)
 18125									;AND MOVE RESULT INTO AC
 18126	040734	312 00 0 00 070530 		CAME	[XWD YY,ZZ]	;PASS TEST IF AC CONTAINS YY,,ZZ
 18127						STOP		^
 18128	040735	254 04 0 00 040736 		HALT	.+1		;TEST FAILED IF PROGRAM HALTS HERE
 18129	040736	324 00 0 00 040737 		JUMPA	.+1		;IF TEST FAILS, CHANGE THIS INSTRUCTION (JUMPA .+1) TO
 18130									;JUMPA X (X IS THE ADDRESS OF THE FIRST INSTRUCTION
 18131									;IN THE SUBTEST) TO LOOP ON ERROR^
 18132
 18133					;**********
 18134
 18135
 18136					;THIS TEST VERIFIES THAT MOVS SWAPS LEFT AND RIGHT HALVES OF E AND
 18137					;MOVES IT INTO AC.  IN THIS CASE, A 1 IS RIPPLED THRU THE LEFT HALF OF E
 18138					;AND A 0 IS RIPPLED THRU THE RIGHT HALF
 18139					;OF E [C(E)=ZZ,,YY, WHERE ZZ IS A FLOATING 1 AND YY IS A FLOATING 0].
 18140					;THEN, C(AC) IS CHECKED.
 18141					;THIS TEST IS REPEATED 18 TIMES TO FLOAT A 1 THRU ALL 18 BITS OF
 18142					;THE LEFT HALF AND A 0 THRU ALL 18 BITS OF THE RIGHT HALF OF E
 18143
 18144			002314		SN=SN+1
 18145			004000			ZZ=ZZ+ZZ
 18146		777777	773777			YY=YY+YY+1
 18147						IFE	ZZ,<ZZ=1>
 18148						IFE	<YY-1>,<YY=-2>
 18149	040737	204 00 0 00 070531 		MOVS	[XWD ZZ,YY]	;*MOVS SHOULD SWAP HALVES OF C(E)
 18150									;AND MOVE RESULT INTO AC
 18151	040740	312 00 0 00 070532 		CAME	[XWD YY,ZZ]	;PASS TEST IF AC CONTAINS YY,,ZZ
 18152						STOP		^
 18153	040741	254 04 0 00 040742 		HALT	.+1		;TEST FAILED IF PROGRAM HALTS HERE
 18154	040742	324 00 0 00 040743 		JUMPA	.+1		;IF TEST FAILS, CHANGE THIS INSTRUCTION (JUMPA .+1) TO
 18155									;JUMPA X (X IS THE ADDRESS OF THE FIRST INSTRUCTION
 18156									;IN THE SUBTEST) TO LOOP ON ERROR^
 18157
 18158					;**********
 18159
 18160
 18161					;THIS TEST VERIFIES THAT MOVS SWAPS LEFT AND RIGHT HALVES OF E AND
 18162					;MOVES IT INTO AC.  IN THIS CASE, A 1 IS RIPPLED THRU THE LEFT HALF OF E
 18163					;AND A 0 IS RIPPLED THRU THE RIGHT HALF
 18164					;OF E [C(E)=ZZ,,YY, WHERE ZZ IS A FLOATING 1 AND YY IS A FLOATING 0].
DFKAA PDP-10 KL10 BASIC INSTRUCTION DIAGNOSTIC (1) VER 0,2	MACRO %53B(1254)-4 11:50 11-Nov-24 Page 28-6
DFKAA2	MAC	13-Jan-89 10:22		TEST OF MOVS INSTRUCTION

 18165					;THEN, C(AC) IS CHECKED.
 18166					;THIS TEST IS REPEATED 18 TIMES TO FLOAT A 1 THRU ALL 18 BITS OF
 18167					;THE LEFT HALF AND A 0 THRU ALL 18 BITS OF THE RIGHT HALF OF E
 18168
 18169			002315		SN=SN+1
 18170			010000			ZZ=ZZ+ZZ
 18171		777777	767777			YY=YY+YY+1
 18172						IFE	ZZ,<ZZ=1>
 18173						IFE	<YY-1>,<YY=-2>
 18174	040743	204 00 0 00 070533 		MOVS	[XWD ZZ,YY]	;*MOVS SHOULD SWAP HALVES OF C(E)
 18175									;AND MOVE RESULT INTO AC
 18176	040744	312 00 0 00 070534 		CAME	[XWD YY,ZZ]	;PASS TEST IF AC CONTAINS YY,,ZZ
 18177						STOP		^
 18178	040745	254 04 0 00 040746 		HALT	.+1		;TEST FAILED IF PROGRAM HALTS HERE
 18179	040746	324 00 0 00 040747 		JUMPA	.+1		;IF TEST FAILS, CHANGE THIS INSTRUCTION (JUMPA .+1) TO
 18180									;JUMPA X (X IS THE ADDRESS OF THE FIRST INSTRUCTION
 18181									;IN THE SUBTEST) TO LOOP ON ERROR^
 18182
 18183					;**********
 18184
 18185
 18186					;THIS TEST VERIFIES THAT MOVS SWAPS LEFT AND RIGHT HALVES OF E AND
 18187					;MOVES IT INTO AC.  IN THIS CASE, A 1 IS RIPPLED THRU THE LEFT HALF OF E
 18188					;AND A 0 IS RIPPLED THRU THE RIGHT HALF
 18189					;OF E [C(E)=ZZ,,YY, WHERE ZZ IS A FLOATING 1 AND YY IS A FLOATING 0].
 18190					;THEN, C(AC) IS CHECKED.
 18191					;THIS TEST IS REPEATED 18 TIMES TO FLOAT A 1 THRU ALL 18 BITS OF
 18192					;THE LEFT HALF AND A 0 THRU ALL 18 BITS OF THE RIGHT HALF OF E
 18193
 18194			002316		SN=SN+1
 18195			020000			ZZ=ZZ+ZZ
 18196		777777	757777			YY=YY+YY+1
 18197						IFE	ZZ,<ZZ=1>
 18198						IFE	<YY-1>,<YY=-2>
 18199	040747	204 00 0 00 070535 		MOVS	[XWD ZZ,YY]	;*MOVS SHOULD SWAP HALVES OF C(E)
 18200									;AND MOVE RESULT INTO AC
 18201	040750	312 00 0 00 070536 		CAME	[XWD YY,ZZ]	;PASS TEST IF AC CONTAINS YY,,ZZ
 18202						STOP		^
 18203	040751	254 04 0 00 040752 		HALT	.+1		;TEST FAILED IF PROGRAM HALTS HERE
 18204	040752	324 00 0 00 040753 		JUMPA	.+1		;IF TEST FAILS, CHANGE THIS INSTRUCTION (JUMPA .+1) TO
 18205									;JUMPA X (X IS THE ADDRESS OF THE FIRST INSTRUCTION
 18206									;IN THE SUBTEST) TO LOOP ON ERROR^
 18207
 18208					;**********
 18209
 18210
 18211					;THIS TEST VERIFIES THAT MOVS SWAPS LEFT AND RIGHT HALVES OF E AND
 18212					;MOVES IT INTO AC.  IN THIS CASE, A 1 IS RIPPLED THRU THE LEFT HALF OF E
 18213					;AND A 0 IS RIPPLED THRU THE RIGHT HALF
 18214					;OF E [C(E)=ZZ,,YY, WHERE ZZ IS A FLOATING 1 AND YY IS A FLOATING 0].
 18215					;THEN, C(AC) IS CHECKED.
 18216					;THIS TEST IS REPEATED 18 TIMES TO FLOAT A 1 THRU ALL 18 BITS OF
 18217					;THE LEFT HALF AND A 0 THRU ALL 18 BITS OF THE RIGHT HALF OF E
 18218
 18219			002317		SN=SN+1
DFKAA PDP-10 KL10 BASIC INSTRUCTION DIAGNOSTIC (1) VER 0,2	MACRO %53B(1254)-4 11:50 11-Nov-24 Page 28-7
DFKAA2	MAC	13-Jan-89 10:22		TEST OF MOVS INSTRUCTION

 18220			040000			ZZ=ZZ+ZZ
 18221		777777	737777			YY=YY+YY+1
 18222						IFE	ZZ,<ZZ=1>
 18223						IFE	<YY-1>,<YY=-2>
 18224	040753	204 00 0 00 070537 		MOVS	[XWD ZZ,YY]	;*MOVS SHOULD SWAP HALVES OF C(E)
 18225									;AND MOVE RESULT INTO AC
 18226	040754	312 00 0 00 070540 		CAME	[XWD YY,ZZ]	;PASS TEST IF AC CONTAINS YY,,ZZ
 18227						STOP		^
 18228	040755	254 04 0 00 040756 		HALT	.+1		;TEST FAILED IF PROGRAM HALTS HERE
 18229	040756	324 00 0 00 040757 		JUMPA	.+1		;IF TEST FAILS, CHANGE THIS INSTRUCTION (JUMPA .+1) TO
 18230									;JUMPA X (X IS THE ADDRESS OF THE FIRST INSTRUCTION
 18231									;IN THE SUBTEST) TO LOOP ON ERROR^
 18232
 18233					;**********
 18234
 18235
 18236					;THIS TEST VERIFIES THAT MOVS SWAPS LEFT AND RIGHT HALVES OF E AND
 18237					;MOVES IT INTO AC.  IN THIS CASE, A 1 IS RIPPLED THRU THE LEFT HALF OF E
 18238					;AND A 0 IS RIPPLED THRU THE RIGHT HALF
 18239					;OF E [C(E)=ZZ,,YY, WHERE ZZ IS A FLOATING 1 AND YY IS A FLOATING 0].
 18240					;THEN, C(AC) IS CHECKED.
 18241					;THIS TEST IS REPEATED 18 TIMES TO FLOAT A 1 THRU ALL 18 BITS OF
 18242					;THE LEFT HALF AND A 0 THRU ALL 18 BITS OF THE RIGHT HALF OF E
 18243
 18244			002320		SN=SN+1
 18245			100000			ZZ=ZZ+ZZ
 18246		777777	677777			YY=YY+YY+1
 18247						IFE	ZZ,<ZZ=1>
 18248						IFE	<YY-1>,<YY=-2>
 18249	040757	204 00 0 00 070541 		MOVS	[XWD ZZ,YY]	;*MOVS SHOULD SWAP HALVES OF C(E)
 18250									;AND MOVE RESULT INTO AC
 18251	040760	312 00 0 00 070542 		CAME	[XWD YY,ZZ]	;PASS TEST IF AC CONTAINS YY,,ZZ
 18252						STOP		^
 18253	040761	254 04 0 00 040762 		HALT	.+1		;TEST FAILED IF PROGRAM HALTS HERE
 18254	040762	324 00 0 00 040763 		JUMPA	.+1		;IF TEST FAILS, CHANGE THIS INSTRUCTION (JUMPA .+1) TO
 18255									;JUMPA X (X IS THE ADDRESS OF THE FIRST INSTRUCTION
 18256									;IN THE SUBTEST) TO LOOP ON ERROR^
 18257
 18258					;**********
 18259
 18260
 18261					;THIS TEST VERIFIES THAT MOVS SWAPS LEFT AND RIGHT HALVES OF E AND
 18262					;MOVES IT INTO AC.  IN THIS CASE, A 1 IS RIPPLED THRU THE LEFT HALF OF E
 18263					;AND A 0 IS RIPPLED THRU THE RIGHT HALF
 18264					;OF E [C(E)=ZZ,,YY, WHERE ZZ IS A FLOATING 1 AND YY IS A FLOATING 0].
 18265					;THEN, C(AC) IS CHECKED.
 18266					;THIS TEST IS REPEATED 18 TIMES TO FLOAT A 1 THRU ALL 18 BITS OF
 18267					;THE LEFT HALF AND A 0 THRU ALL 18 BITS OF THE RIGHT HALF OF E
 18268
 18269			002321		SN=SN+1
 18270			200000			ZZ=ZZ+ZZ
 18271		777777	577777			YY=YY+YY+1
 18272						IFE	ZZ,<ZZ=1>
 18273						IFE	<YY-1>,<YY=-2>
 18274	040763	204 00 0 00 070543 		MOVS	[XWD ZZ,YY]	;*MOVS SHOULD SWAP HALVES OF C(E)
DFKAA PDP-10 KL10 BASIC INSTRUCTION DIAGNOSTIC (1) VER 0,2	MACRO %53B(1254)-4 11:50 11-Nov-24 Page 28-8
DFKAA2	MAC	13-Jan-89 10:22		TEST OF MOVS INSTRUCTION

 18275									;AND MOVE RESULT INTO AC
 18276	040764	312 00 0 00 070544 		CAME	[XWD YY,ZZ]	;PASS TEST IF AC CONTAINS YY,,ZZ
 18277						STOP		^
 18278	040765	254 04 0 00 040766 		HALT	.+1		;TEST FAILED IF PROGRAM HALTS HERE
 18279	040766	324 00 0 00 040767 		JUMPA	.+1		;IF TEST FAILS, CHANGE THIS INSTRUCTION (JUMPA .+1) TO
 18280									;JUMPA X (X IS THE ADDRESS OF THE FIRST INSTRUCTION
 18281									;IN THE SUBTEST) TO LOOP ON ERROR^
 18282
 18283					;**********
 18284
 18285
 18286					;THIS TEST VERIFIES THAT MOVS SWAPS LEFT AND RIGHT HALVES OF E AND
 18287					;MOVES IT INTO AC.  IN THIS CASE, A 1 IS RIPPLED THRU THE LEFT HALF OF E
 18288					;AND A 0 IS RIPPLED THRU THE RIGHT HALF
 18289					;OF E [C(E)=ZZ,,YY, WHERE ZZ IS A FLOATING 1 AND YY IS A FLOATING 0].
 18290					;THEN, C(AC) IS CHECKED.
 18291					;THIS TEST IS REPEATED 18 TIMES TO FLOAT A 1 THRU ALL 18 BITS OF
 18292					;THE LEFT HALF AND A 0 THRU ALL 18 BITS OF THE RIGHT HALF OF E
 18293
 18294			002322		SN=SN+1
 18295			400000			ZZ=ZZ+ZZ
 18296		777777	377777			YY=YY+YY+1
 18297						IFE	ZZ,<ZZ=1>
 18298						IFE	<YY-1>,<YY=-2>
 18299	040767	204 00 0 00 070545 		MOVS	[XWD ZZ,YY]	;*MOVS SHOULD SWAP HALVES OF C(E)
 18300									;AND MOVE RESULT INTO AC
 18301	040770	312 00 0 00 070546 		CAME	[XWD YY,ZZ]	;PASS TEST IF AC CONTAINS YY,,ZZ
 18302						STOP		^
 18303	040771	254 04 0 00 040772 		HALT	.+1		;TEST FAILED IF PROGRAM HALTS HERE
 18304	040772	324 00 0 00 040773 		JUMPA	.+1		;IF TEST FAILS, CHANGE THIS INSTRUCTION (JUMPA .+1) TO
 18305									;JUMPA X (X IS THE ADDRESS OF THE FIRST INSTRUCTION
 18306									;IN THE SUBTEST) TO LOOP ON ERROR^
 18307
 18308					;**********
 18309
DFKAA PDP-10 KL10 BASIC INSTRUCTION DIAGNOSTIC (1) VER 0,2	MACRO %53B(1254)-4 11:50 11-Nov-24 Page 29
DFKAA2	MAC	13-Jan-89 10:22		TEST OF MOVS INSTRUCTION

 18310			002400		SN=2400
 18311			000000			ZZ=0
 18312			000000			YY=0
 18313
 18314					B2400:	REPEAT	 ^D18,<
 18315					;THIS TEST VERIFIES THAT MOVS SWAPS LEFT AND RIGHT HALVES OF E AND
 18316					;MOVES IT INTO AC.  IN THIS CASE, A 0 IS RIPPLED THRU THE LEFT HALF OF E
 18317					;AND A 1 IS RIPPLED THRU THE RIGHT HALF
 18318					;OF E [C(E)=YY,,ZZ, WHERE ZZ IS A FLOATING 1 AND YY IS A FLOATING 0].
 18319					;THEN, C(AC) IS CHECKED.
 18320					;THIS TEST IS REPEATED 18 TIMES TO FLOAT A 1 THRU ALL 18 BITS OF
 18321					;THE RIGHT HALF AND A 0 THRU ALL 18 BITS OF THE RIGHT HALF OF E
 18322
 18323					SN=SN+1
 18324						ZZ=ZZ+ZZ
 18325						YY=YY+YY+1
 18326						IFE	ZZ,<ZZ=1>
 18327						IFE	<YY-1>,<YY=-2>
 18328						MOVS	[XWD YY,ZZ]	;*MOVS SHOULD SWAP HALVES OF C(E)
 18329									;AND MOVE RESULT INTO AC
 18330						CAME	[XWD ZZ,YY]	;PASS TEST IF C(AC)=ZZ,,YY
 18331						STOP
 18332
 18333					;**********
 18334					>
 18335
 18336					;THIS TEST VERIFIES THAT MOVS SWAPS LEFT AND RIGHT HALVES OF E AND
 18337					;MOVES IT INTO AC.  IN THIS CASE, A 0 IS RIPPLED THRU THE LEFT HALF OF E
 18338					;AND A 1 IS RIPPLED THRU THE RIGHT HALF
 18339					;OF E [C(E)=YY,,ZZ, WHERE ZZ IS A FLOATING 1 AND YY IS A FLOATING 0].
 18340					;THEN, C(AC) IS CHECKED.
 18341					;THIS TEST IS REPEATED 18 TIMES TO FLOAT A 1 THRU ALL 18 BITS OF
 18342					;THE RIGHT HALF AND A 0 THRU ALL 18 BITS OF THE RIGHT HALF OF E
 18343
 18344			002401		SN=SN+1
 18345			000000			ZZ=ZZ+ZZ
 18346			000001			YY=YY+YY+1
 18347			000001			IFE	ZZ,<ZZ=1>
 18348		777777	777776			IFE	<YY-1>,<YY=-2>
 18349	040773	204 00 0 00 070504 		MOVS	[XWD YY,ZZ]	;*MOVS SHOULD SWAP HALVES OF C(E)
 18350									;AND MOVE RESULT INTO AC
 18351	040774	312 00 0 00 070503 		CAME	[XWD ZZ,YY]	;PASS TEST IF C(AC)=ZZ,,YY
 18352						STOP		^
 18353	040775	254 04 0 00 040776 		HALT	.+1		;TEST FAILED IF PROGRAM HALTS HERE
 18354	040776	324 00 0 00 040777 		JUMPA	.+1		;IF TEST FAILS, CHANGE THIS INSTRUCTION (JUMPA .+1) TO
 18355									;JUMPA X (X IS THE ADDRESS OF THE FIRST INSTRUCTION
 18356									;IN THE SUBTEST) TO LOOP ON ERROR^
 18357
 18358					;**********
 18359
 18360
 18361					;THIS TEST VERIFIES THAT MOVS SWAPS LEFT AND RIGHT HALVES OF E AND
 18362					;MOVES IT INTO AC.  IN THIS CASE, A 0 IS RIPPLED THRU THE LEFT HALF OF E
 18363					;AND A 1 IS RIPPLED THRU THE RIGHT HALF
 18364					;OF E [C(E)=YY,,ZZ, WHERE ZZ IS A FLOATING 1 AND YY IS A FLOATING 0].
DFKAA PDP-10 KL10 BASIC INSTRUCTION DIAGNOSTIC (1) VER 0,2	MACRO %53B(1254)-4 11:50 11-Nov-24 Page 29-1
DFKAA2	MAC	13-Jan-89 10:22		TEST OF MOVS INSTRUCTION

 18365					;THEN, C(AC) IS CHECKED.
 18366					;THIS TEST IS REPEATED 18 TIMES TO FLOAT A 1 THRU ALL 18 BITS OF
 18367					;THE RIGHT HALF AND A 0 THRU ALL 18 BITS OF THE RIGHT HALF OF E
 18368
 18369			002402		SN=SN+1
 18370			000002			ZZ=ZZ+ZZ
 18371		777777	777775			YY=YY+YY+1
 18372						IFE	ZZ,<ZZ=1>
 18373						IFE	<YY-1>,<YY=-2>
 18374	040777	204 00 0 00 070506 		MOVS	[XWD YY,ZZ]	;*MOVS SHOULD SWAP HALVES OF C(E)
 18375									;AND MOVE RESULT INTO AC
 18376	041000	312 00 0 00 070505 		CAME	[XWD ZZ,YY]	;PASS TEST IF C(AC)=ZZ,,YY
 18377						STOP		^
 18378	041001	254 04 0 00 041002 		HALT	.+1		;TEST FAILED IF PROGRAM HALTS HERE
 18379	041002	324 00 0 00 041003 		JUMPA	.+1		;IF TEST FAILS, CHANGE THIS INSTRUCTION (JUMPA .+1) TO
 18380									;JUMPA X (X IS THE ADDRESS OF THE FIRST INSTRUCTION
 18381									;IN THE SUBTEST) TO LOOP ON ERROR^
 18382
 18383					;**********
 18384
 18385
 18386					;THIS TEST VERIFIES THAT MOVS SWAPS LEFT AND RIGHT HALVES OF E AND
 18387					;MOVES IT INTO AC.  IN THIS CASE, A 0 IS RIPPLED THRU THE LEFT HALF OF E
 18388					;AND A 1 IS RIPPLED THRU THE RIGHT HALF
 18389					;OF E [C(E)=YY,,ZZ, WHERE ZZ IS A FLOATING 1 AND YY IS A FLOATING 0].
 18390					;THEN, C(AC) IS CHECKED.
 18391					;THIS TEST IS REPEATED 18 TIMES TO FLOAT A 1 THRU ALL 18 BITS OF
 18392					;THE RIGHT HALF AND A 0 THRU ALL 18 BITS OF THE RIGHT HALF OF E
 18393
 18394			002403		SN=SN+1
 18395			000004			ZZ=ZZ+ZZ
 18396		777777	777773			YY=YY+YY+1
 18397						IFE	ZZ,<ZZ=1>
 18398						IFE	<YY-1>,<YY=-2>
 18399	041003	204 00 0 00 070510 		MOVS	[XWD YY,ZZ]	;*MOVS SHOULD SWAP HALVES OF C(E)
 18400									;AND MOVE RESULT INTO AC
 18401	041004	312 00 0 00 070507 		CAME	[XWD ZZ,YY]	;PASS TEST IF C(AC)=ZZ,,YY
 18402						STOP		^
 18403	041005	254 04 0 00 041006 		HALT	.+1		;TEST FAILED IF PROGRAM HALTS HERE
 18404	041006	324 00 0 00 041007 		JUMPA	.+1		;IF TEST FAILS, CHANGE THIS INSTRUCTION (JUMPA .+1) TO
 18405									;JUMPA X (X IS THE ADDRESS OF THE FIRST INSTRUCTION
 18406									;IN THE SUBTEST) TO LOOP ON ERROR^
 18407
 18408					;**********
 18409
 18410
 18411					;THIS TEST VERIFIES THAT MOVS SWAPS LEFT AND RIGHT HALVES OF E AND
 18412					;MOVES IT INTO AC.  IN THIS CASE, A 0 IS RIPPLED THRU THE LEFT HALF OF E
 18413					;AND A 1 IS RIPPLED THRU THE RIGHT HALF
 18414					;OF E [C(E)=YY,,ZZ, WHERE ZZ IS A FLOATING 1 AND YY IS A FLOATING 0].
 18415					;THEN, C(AC) IS CHECKED.
 18416					;THIS TEST IS REPEATED 18 TIMES TO FLOAT A 1 THRU ALL 18 BITS OF
 18417					;THE RIGHT HALF AND A 0 THRU ALL 18 BITS OF THE RIGHT HALF OF E
 18418
 18419			002404		SN=SN+1
DFKAA PDP-10 KL10 BASIC INSTRUCTION DIAGNOSTIC (1) VER 0,2	MACRO %53B(1254)-4 11:50 11-Nov-24 Page 29-2
DFKAA2	MAC	13-Jan-89 10:22		TEST OF MOVS INSTRUCTION

 18420			000010			ZZ=ZZ+ZZ
 18421		777777	777767			YY=YY+YY+1
 18422						IFE	ZZ,<ZZ=1>
 18423						IFE	<YY-1>,<YY=-2>
 18424	041007	204 00 0 00 070512 		MOVS	[XWD YY,ZZ]	;*MOVS SHOULD SWAP HALVES OF C(E)
 18425									;AND MOVE RESULT INTO AC
 18426	041010	312 00 0 00 070511 		CAME	[XWD ZZ,YY]	;PASS TEST IF C(AC)=ZZ,,YY
 18427						STOP		^
 18428	041011	254 04 0 00 041012 		HALT	.+1		;TEST FAILED IF PROGRAM HALTS HERE
 18429	041012	324 00 0 00 041013 		JUMPA	.+1		;IF TEST FAILS, CHANGE THIS INSTRUCTION (JUMPA .+1) TO
 18430									;JUMPA X (X IS THE ADDRESS OF THE FIRST INSTRUCTION
 18431									;IN THE SUBTEST) TO LOOP ON ERROR^
 18432
 18433					;**********
 18434
 18435
 18436					;THIS TEST VERIFIES THAT MOVS SWAPS LEFT AND RIGHT HALVES OF E AND
 18437					;MOVES IT INTO AC.  IN THIS CASE, A 0 IS RIPPLED THRU THE LEFT HALF OF E
 18438					;AND A 1 IS RIPPLED THRU THE RIGHT HALF
 18439					;OF E [C(E)=YY,,ZZ, WHERE ZZ IS A FLOATING 1 AND YY IS A FLOATING 0].
 18440					;THEN, C(AC) IS CHECKED.
 18441					;THIS TEST IS REPEATED 18 TIMES TO FLOAT A 1 THRU ALL 18 BITS OF
 18442					;THE RIGHT HALF AND A 0 THRU ALL 18 BITS OF THE RIGHT HALF OF E
 18443
 18444			002405		SN=SN+1
 18445			000020			ZZ=ZZ+ZZ
 18446		777777	777757			YY=YY+YY+1
 18447						IFE	ZZ,<ZZ=1>
 18448						IFE	<YY-1>,<YY=-2>
 18449	041013	204 00 0 00 070514 		MOVS	[XWD YY,ZZ]	;*MOVS SHOULD SWAP HALVES OF C(E)
 18450									;AND MOVE RESULT INTO AC
 18451	041014	312 00 0 00 070513 		CAME	[XWD ZZ,YY]	;PASS TEST IF C(AC)=ZZ,,YY
 18452						STOP		^
 18453	041015	254 04 0 00 041016 		HALT	.+1		;TEST FAILED IF PROGRAM HALTS HERE
 18454	041016	324 00 0 00 041017 		JUMPA	.+1		;IF TEST FAILS, CHANGE THIS INSTRUCTION (JUMPA .+1) TO
 18455									;JUMPA X (X IS THE ADDRESS OF THE FIRST INSTRUCTION
 18456									;IN THE SUBTEST) TO LOOP ON ERROR^
 18457
 18458					;**********
 18459
 18460
 18461					;THIS TEST VERIFIES THAT MOVS SWAPS LEFT AND RIGHT HALVES OF E AND
 18462					;MOVES IT INTO AC.  IN THIS CASE, A 0 IS RIPPLED THRU THE LEFT HALF OF E
 18463					;AND A 1 IS RIPPLED THRU THE RIGHT HALF
 18464					;OF E [C(E)=YY,,ZZ, WHERE ZZ IS A FLOATING 1 AND YY IS A FLOATING 0].
 18465					;THEN, C(AC) IS CHECKED.
 18466					;THIS TEST IS REPEATED 18 TIMES TO FLOAT A 1 THRU ALL 18 BITS OF
 18467					;THE RIGHT HALF AND A 0 THRU ALL 18 BITS OF THE RIGHT HALF OF E
 18468
 18469			002406		SN=SN+1
 18470			000040			ZZ=ZZ+ZZ
 18471		777777	777737			YY=YY+YY+1
 18472						IFE	ZZ,<ZZ=1>
 18473						IFE	<YY-1>,<YY=-2>
 18474	041017	204 00 0 00 070516 		MOVS	[XWD YY,ZZ]	;*MOVS SHOULD SWAP HALVES OF C(E)
DFKAA PDP-10 KL10 BASIC INSTRUCTION DIAGNOSTIC (1) VER 0,2	MACRO %53B(1254)-4 11:50 11-Nov-24 Page 29-3
DFKAA2	MAC	13-Jan-89 10:22		TEST OF MOVS INSTRUCTION

 18475									;AND MOVE RESULT INTO AC
 18476	041020	312 00 0 00 070515 		CAME	[XWD ZZ,YY]	;PASS TEST IF C(AC)=ZZ,,YY
 18477						STOP		^
 18478	041021	254 04 0 00 041022 		HALT	.+1		;TEST FAILED IF PROGRAM HALTS HERE
 18479	041022	324 00 0 00 041023 		JUMPA	.+1		;IF TEST FAILS, CHANGE THIS INSTRUCTION (JUMPA .+1) TO
 18480									;JUMPA X (X IS THE ADDRESS OF THE FIRST INSTRUCTION
 18481									;IN THE SUBTEST) TO LOOP ON ERROR^
 18482
 18483					;**********
 18484
 18485
 18486					;THIS TEST VERIFIES THAT MOVS SWAPS LEFT AND RIGHT HALVES OF E AND
 18487					;MOVES IT INTO AC.  IN THIS CASE, A 0 IS RIPPLED THRU THE LEFT HALF OF E
 18488					;AND A 1 IS RIPPLED THRU THE RIGHT HALF
 18489					;OF E [C(E)=YY,,ZZ, WHERE ZZ IS A FLOATING 1 AND YY IS A FLOATING 0].
 18490					;THEN, C(AC) IS CHECKED.
 18491					;THIS TEST IS REPEATED 18 TIMES TO FLOAT A 1 THRU ALL 18 BITS OF
 18492					;THE RIGHT HALF AND A 0 THRU ALL 18 BITS OF THE RIGHT HALF OF E
 18493
 18494			002407		SN=SN+1
 18495			000100			ZZ=ZZ+ZZ
 18496		777777	777677			YY=YY+YY+1
 18497						IFE	ZZ,<ZZ=1>
 18498						IFE	<YY-1>,<YY=-2>
 18499	041023	204 00 0 00 070520 		MOVS	[XWD YY,ZZ]	;*MOVS SHOULD SWAP HALVES OF C(E)
 18500									;AND MOVE RESULT INTO AC
 18501	041024	312 00 0 00 070517 		CAME	[XWD ZZ,YY]	;PASS TEST IF C(AC)=ZZ,,YY
 18502						STOP		^
 18503	041025	254 04 0 00 041026 		HALT	.+1		;TEST FAILED IF PROGRAM HALTS HERE
 18504	041026	324 00 0 00 041027 		JUMPA	.+1		;IF TEST FAILS, CHANGE THIS INSTRUCTION (JUMPA .+1) TO
 18505									;JUMPA X (X IS THE ADDRESS OF THE FIRST INSTRUCTION
 18506									;IN THE SUBTEST) TO LOOP ON ERROR^
 18507
 18508					;**********
 18509
 18510
 18511					;THIS TEST VERIFIES THAT MOVS SWAPS LEFT AND RIGHT HALVES OF E AND
 18512					;MOVES IT INTO AC.  IN THIS CASE, A 0 IS RIPPLED THRU THE LEFT HALF OF E
 18513					;AND A 1 IS RIPPLED THRU THE RIGHT HALF
 18514					;OF E [C(E)=YY,,ZZ, WHERE ZZ IS A FLOATING 1 AND YY IS A FLOATING 0].
 18515					;THEN, C(AC) IS CHECKED.
 18516					;THIS TEST IS REPEATED 18 TIMES TO FLOAT A 1 THRU ALL 18 BITS OF
 18517					;THE RIGHT HALF AND A 0 THRU ALL 18 BITS OF THE RIGHT HALF OF E
 18518
 18519			002410		SN=SN+1
 18520			000200			ZZ=ZZ+ZZ
 18521		777777	777577			YY=YY+YY+1
 18522						IFE	ZZ,<ZZ=1>
 18523						IFE	<YY-1>,<YY=-2>
 18524	041027	204 00 0 00 070522 		MOVS	[XWD YY,ZZ]	;*MOVS SHOULD SWAP HALVES OF C(E)
 18525									;AND MOVE RESULT INTO AC
 18526	041030	312 00 0 00 070521 		CAME	[XWD ZZ,YY]	;PASS TEST IF C(AC)=ZZ,,YY
 18527						STOP		^
 18528	041031	254 04 0 00 041032 		HALT	.+1		;TEST FAILED IF PROGRAM HALTS HERE
 18529	041032	324 00 0 00 041033 		JUMPA	.+1		;IF TEST FAILS, CHANGE THIS INSTRUCTION (JUMPA .+1) TO
DFKAA PDP-10 KL10 BASIC INSTRUCTION DIAGNOSTIC (1) VER 0,2	MACRO %53B(1254)-4 11:50 11-Nov-24 Page 29-4
DFKAA2	MAC	13-Jan-89 10:22		TEST OF MOVS INSTRUCTION

 18530									;JUMPA X (X IS THE ADDRESS OF THE FIRST INSTRUCTION
 18531									;IN THE SUBTEST) TO LOOP ON ERROR^
 18532
 18533					;**********
 18534
 18535
 18536					;THIS TEST VERIFIES THAT MOVS SWAPS LEFT AND RIGHT HALVES OF E AND
 18537					;MOVES IT INTO AC.  IN THIS CASE, A 0 IS RIPPLED THRU THE LEFT HALF OF E
 18538					;AND A 1 IS RIPPLED THRU THE RIGHT HALF
 18539					;OF E [C(E)=YY,,ZZ, WHERE ZZ IS A FLOATING 1 AND YY IS A FLOATING 0].
 18540					;THEN, C(AC) IS CHECKED.
 18541					;THIS TEST IS REPEATED 18 TIMES TO FLOAT A 1 THRU ALL 18 BITS OF
 18542					;THE RIGHT HALF AND A 0 THRU ALL 18 BITS OF THE RIGHT HALF OF E
 18543
 18544			002411		SN=SN+1
 18545			000400			ZZ=ZZ+ZZ
 18546		777777	777377			YY=YY+YY+1
 18547						IFE	ZZ,<ZZ=1>
 18548						IFE	<YY-1>,<YY=-2>
 18549	041033	204 00 0 00 070524 		MOVS	[XWD YY,ZZ]	;*MOVS SHOULD SWAP HALVES OF C(E)
 18550									;AND MOVE RESULT INTO AC
 18551	041034	312 00 0 00 070523 		CAME	[XWD ZZ,YY]	;PASS TEST IF C(AC)=ZZ,,YY
 18552						STOP		^
 18553	041035	254 04 0 00 041036 		HALT	.+1		;TEST FAILED IF PROGRAM HALTS HERE
 18554	041036	324 00 0 00 041037 		JUMPA	.+1		;IF TEST FAILS, CHANGE THIS INSTRUCTION (JUMPA .+1) TO
 18555									;JUMPA X (X IS THE ADDRESS OF THE FIRST INSTRUCTION
 18556									;IN THE SUBTEST) TO LOOP ON ERROR^
 18557
 18558					;**********
 18559
 18560
 18561					;THIS TEST VERIFIES THAT MOVS SWAPS LEFT AND RIGHT HALVES OF E AND
 18562					;MOVES IT INTO AC.  IN THIS CASE, A 0 IS RIPPLED THRU THE LEFT HALF OF E
 18563					;AND A 1 IS RIPPLED THRU THE RIGHT HALF
 18564					;OF E [C(E)=YY,,ZZ, WHERE ZZ IS A FLOATING 1 AND YY IS A FLOATING 0].
 18565					;THEN, C(AC) IS CHECKED.
 18566					;THIS TEST IS REPEATED 18 TIMES TO FLOAT A 1 THRU ALL 18 BITS OF
 18567					;THE RIGHT HALF AND A 0 THRU ALL 18 BITS OF THE RIGHT HALF OF E
 18568
 18569			002412		SN=SN+1
 18570			001000			ZZ=ZZ+ZZ
 18571		777777	776777			YY=YY+YY+1
 18572						IFE	ZZ,<ZZ=1>
 18573						IFE	<YY-1>,<YY=-2>
 18574	041037	204 00 0 00 070526 		MOVS	[XWD YY,ZZ]	;*MOVS SHOULD SWAP HALVES OF C(E)
 18575									;AND MOVE RESULT INTO AC
 18576	041040	312 00 0 00 070525 		CAME	[XWD ZZ,YY]	;PASS TEST IF C(AC)=ZZ,,YY
 18577						STOP		^
 18578	041041	254 04 0 00 041042 		HALT	.+1		;TEST FAILED IF PROGRAM HALTS HERE
 18579	041042	324 00 0 00 041043 		JUMPA	.+1		;IF TEST FAILS, CHANGE THIS INSTRUCTION (JUMPA .+1) TO
 18580									;JUMPA X (X IS THE ADDRESS OF THE FIRST INSTRUCTION
 18581									;IN THE SUBTEST) TO LOOP ON ERROR^
 18582
 18583					;**********
 18584
DFKAA PDP-10 KL10 BASIC INSTRUCTION DIAGNOSTIC (1) VER 0,2	MACRO %53B(1254)-4 11:50 11-Nov-24 Page 29-5
DFKAA2	MAC	13-Jan-89 10:22		TEST OF MOVS INSTRUCTION

 18585
 18586					;THIS TEST VERIFIES THAT MOVS SWAPS LEFT AND RIGHT HALVES OF E AND
 18587					;MOVES IT INTO AC.  IN THIS CASE, A 0 IS RIPPLED THRU THE LEFT HALF OF E
 18588					;AND A 1 IS RIPPLED THRU THE RIGHT HALF
 18589					;OF E [C(E)=YY,,ZZ, WHERE ZZ IS A FLOATING 1 AND YY IS A FLOATING 0].
 18590					;THEN, C(AC) IS CHECKED.
 18591					;THIS TEST IS REPEATED 18 TIMES TO FLOAT A 1 THRU ALL 18 BITS OF
 18592					;THE RIGHT HALF AND A 0 THRU ALL 18 BITS OF THE RIGHT HALF OF E
 18593
 18594			002413		SN=SN+1
 18595			002000			ZZ=ZZ+ZZ
 18596		777777	775777			YY=YY+YY+1
 18597						IFE	ZZ,<ZZ=1>
 18598						IFE	<YY-1>,<YY=-2>
 18599	041043	204 00 0 00 070530 		MOVS	[XWD YY,ZZ]	;*MOVS SHOULD SWAP HALVES OF C(E)
 18600									;AND MOVE RESULT INTO AC
 18601	041044	312 00 0 00 070527 		CAME	[XWD ZZ,YY]	;PASS TEST IF C(AC)=ZZ,,YY
 18602						STOP		^
 18603	041045	254 04 0 00 041046 		HALT	.+1		;TEST FAILED IF PROGRAM HALTS HERE
 18604	041046	324 00 0 00 041047 		JUMPA	.+1		;IF TEST FAILS, CHANGE THIS INSTRUCTION (JUMPA .+1) TO
 18605									;JUMPA X (X IS THE ADDRESS OF THE FIRST INSTRUCTION
 18606									;IN THE SUBTEST) TO LOOP ON ERROR^
 18607
 18608					;**********
 18609
 18610
 18611					;THIS TEST VERIFIES THAT MOVS SWAPS LEFT AND RIGHT HALVES OF E AND
 18612					;MOVES IT INTO AC.  IN THIS CASE, A 0 IS RIPPLED THRU THE LEFT HALF OF E
 18613					;AND A 1 IS RIPPLED THRU THE RIGHT HALF
 18614					;OF E [C(E)=YY,,ZZ, WHERE ZZ IS A FLOATING 1 AND YY IS A FLOATING 0].
 18615					;THEN, C(AC) IS CHECKED.
 18616					;THIS TEST IS REPEATED 18 TIMES TO FLOAT A 1 THRU ALL 18 BITS OF
 18617					;THE RIGHT HALF AND A 0 THRU ALL 18 BITS OF THE RIGHT HALF OF E
 18618
 18619			002414		SN=SN+1
 18620			004000			ZZ=ZZ+ZZ
 18621		777777	773777			YY=YY+YY+1
 18622						IFE	ZZ,<ZZ=1>
 18623						IFE	<YY-1>,<YY=-2>
 18624	041047	204 00 0 00 070532 		MOVS	[XWD YY,ZZ]	;*MOVS SHOULD SWAP HALVES OF C(E)
 18625									;AND MOVE RESULT INTO AC
 18626	041050	312 00 0 00 070531 		CAME	[XWD ZZ,YY]	;PASS TEST IF C(AC)=ZZ,,YY
 18627						STOP		^
 18628	041051	254 04 0 00 041052 		HALT	.+1		;TEST FAILED IF PROGRAM HALTS HERE
 18629	041052	324 00 0 00 041053 		JUMPA	.+1		;IF TEST FAILS, CHANGE THIS INSTRUCTION (JUMPA .+1) TO
 18630									;JUMPA X (X IS THE ADDRESS OF THE FIRST INSTRUCTION
 18631									;IN THE SUBTEST) TO LOOP ON ERROR^
 18632
 18633					;**********
 18634
 18635
 18636					;THIS TEST VERIFIES THAT MOVS SWAPS LEFT AND RIGHT HALVES OF E AND
 18637					;MOVES IT INTO AC.  IN THIS CASE, A 0 IS RIPPLED THRU THE LEFT HALF OF E
 18638					;AND A 1 IS RIPPLED THRU THE RIGHT HALF
 18639					;OF E [C(E)=YY,,ZZ, WHERE ZZ IS A FLOATING 1 AND YY IS A FLOATING 0].
DFKAA PDP-10 KL10 BASIC INSTRUCTION DIAGNOSTIC (1) VER 0,2	MACRO %53B(1254)-4 11:50 11-Nov-24 Page 29-6
DFKAA2	MAC	13-Jan-89 10:22		TEST OF MOVS INSTRUCTION

 18640					;THEN, C(AC) IS CHECKED.
 18641					;THIS TEST IS REPEATED 18 TIMES TO FLOAT A 1 THRU ALL 18 BITS OF
 18642					;THE RIGHT HALF AND A 0 THRU ALL 18 BITS OF THE RIGHT HALF OF E
 18643
 18644			002415		SN=SN+1
 18645			010000			ZZ=ZZ+ZZ
 18646		777777	767777			YY=YY+YY+1
 18647						IFE	ZZ,<ZZ=1>
 18648						IFE	<YY-1>,<YY=-2>
 18649	041053	204 00 0 00 070534 		MOVS	[XWD YY,ZZ]	;*MOVS SHOULD SWAP HALVES OF C(E)
 18650									;AND MOVE RESULT INTO AC
 18651	041054	312 00 0 00 070533 		CAME	[XWD ZZ,YY]	;PASS TEST IF C(AC)=ZZ,,YY
 18652						STOP		^
 18653	041055	254 04 0 00 041056 		HALT	.+1		;TEST FAILED IF PROGRAM HALTS HERE
 18654	041056	324 00 0 00 041057 		JUMPA	.+1		;IF TEST FAILS, CHANGE THIS INSTRUCTION (JUMPA .+1) TO
 18655									;JUMPA X (X IS THE ADDRESS OF THE FIRST INSTRUCTION
 18656									;IN THE SUBTEST) TO LOOP ON ERROR^
 18657
 18658					;**********
 18659
 18660
 18661					;THIS TEST VERIFIES THAT MOVS SWAPS LEFT AND RIGHT HALVES OF E AND
 18662					;MOVES IT INTO AC.  IN THIS CASE, A 0 IS RIPPLED THRU THE LEFT HALF OF E
 18663					;AND A 1 IS RIPPLED THRU THE RIGHT HALF
 18664					;OF E [C(E)=YY,,ZZ, WHERE ZZ IS A FLOATING 1 AND YY IS A FLOATING 0].
 18665					;THEN, C(AC) IS CHECKED.
 18666					;THIS TEST IS REPEATED 18 TIMES TO FLOAT A 1 THRU ALL 18 BITS OF
 18667					;THE RIGHT HALF AND A 0 THRU ALL 18 BITS OF THE RIGHT HALF OF E
 18668
 18669			002416		SN=SN+1
 18670			020000			ZZ=ZZ+ZZ
 18671		777777	757777			YY=YY+YY+1
 18672						IFE	ZZ,<ZZ=1>
 18673						IFE	<YY-1>,<YY=-2>
 18674	041057	204 00 0 00 070536 		MOVS	[XWD YY,ZZ]	;*MOVS SHOULD SWAP HALVES OF C(E)
 18675									;AND MOVE RESULT INTO AC
 18676	041060	312 00 0 00 070535 		CAME	[XWD ZZ,YY]	;PASS TEST IF C(AC)=ZZ,,YY
 18677						STOP		^
 18678	041061	254 04 0 00 041062 		HALT	.+1		;TEST FAILED IF PROGRAM HALTS HERE
 18679	041062	324 00 0 00 041063 		JUMPA	.+1		;IF TEST FAILS, CHANGE THIS INSTRUCTION (JUMPA .+1) TO
 18680									;JUMPA X (X IS THE ADDRESS OF THE FIRST INSTRUCTION
 18681									;IN THE SUBTEST) TO LOOP ON ERROR^
 18682
 18683					;**********
 18684
 18685
 18686					;THIS TEST VERIFIES THAT MOVS SWAPS LEFT AND RIGHT HALVES OF E AND
 18687					;MOVES IT INTO AC.  IN THIS CASE, A 0 IS RIPPLED THRU THE LEFT HALF OF E
 18688					;AND A 1 IS RIPPLED THRU THE RIGHT HALF
 18689					;OF E [C(E)=YY,,ZZ, WHERE ZZ IS A FLOATING 1 AND YY IS A FLOATING 0].
 18690					;THEN, C(AC) IS CHECKED.
 18691					;THIS TEST IS REPEATED 18 TIMES TO FLOAT A 1 THRU ALL 18 BITS OF
 18692					;THE RIGHT HALF AND A 0 THRU ALL 18 BITS OF THE RIGHT HALF OF E
 18693
 18694			002417		SN=SN+1
DFKAA PDP-10 KL10 BASIC INSTRUCTION DIAGNOSTIC (1) VER 0,2	MACRO %53B(1254)-4 11:50 11-Nov-24 Page 29-7
DFKAA2	MAC	13-Jan-89 10:22		TEST OF MOVS INSTRUCTION

 18695			040000			ZZ=ZZ+ZZ
 18696		777777	737777			YY=YY+YY+1
 18697						IFE	ZZ,<ZZ=1>
 18698						IFE	<YY-1>,<YY=-2>
 18699	041063	204 00 0 00 070540 		MOVS	[XWD YY,ZZ]	;*MOVS SHOULD SWAP HALVES OF C(E)
 18700									;AND MOVE RESULT INTO AC
 18701	041064	312 00 0 00 070537 		CAME	[XWD ZZ,YY]	;PASS TEST IF C(AC)=ZZ,,YY
 18702						STOP		^
 18703	041065	254 04 0 00 041066 		HALT	.+1		;TEST FAILED IF PROGRAM HALTS HERE
 18704	041066	324 00 0 00 041067 		JUMPA	.+1		;IF TEST FAILS, CHANGE THIS INSTRUCTION (JUMPA .+1) TO
 18705									;JUMPA X (X IS THE ADDRESS OF THE FIRST INSTRUCTION
 18706									;IN THE SUBTEST) TO LOOP ON ERROR^
 18707
 18708					;**********
 18709
 18710
 18711					;THIS TEST VERIFIES THAT MOVS SWAPS LEFT AND RIGHT HALVES OF E AND
 18712					;MOVES IT INTO AC.  IN THIS CASE, A 0 IS RIPPLED THRU THE LEFT HALF OF E
 18713					;AND A 1 IS RIPPLED THRU THE RIGHT HALF
 18714					;OF E [C(E)=YY,,ZZ, WHERE ZZ IS A FLOATING 1 AND YY IS A FLOATING 0].
 18715					;THEN, C(AC) IS CHECKED.
 18716					;THIS TEST IS REPEATED 18 TIMES TO FLOAT A 1 THRU ALL 18 BITS OF
 18717					;THE RIGHT HALF AND A 0 THRU ALL 18 BITS OF THE RIGHT HALF OF E
 18718
 18719			002420		SN=SN+1
 18720			100000			ZZ=ZZ+ZZ
 18721		777777	677777			YY=YY+YY+1
 18722						IFE	ZZ,<ZZ=1>
 18723						IFE	<YY-1>,<YY=-2>
 18724	041067	204 00 0 00 070542 		MOVS	[XWD YY,ZZ]	;*MOVS SHOULD SWAP HALVES OF C(E)
 18725									;AND MOVE RESULT INTO AC
 18726	041070	312 00 0 00 070541 		CAME	[XWD ZZ,YY]	;PASS TEST IF C(AC)=ZZ,,YY
 18727						STOP		^
 18728	041071	254 04 0 00 041072 		HALT	.+1		;TEST FAILED IF PROGRAM HALTS HERE
 18729	041072	324 00 0 00 041073 		JUMPA	.+1		;IF TEST FAILS, CHANGE THIS INSTRUCTION (JUMPA .+1) TO
 18730									;JUMPA X (X IS THE ADDRESS OF THE FIRST INSTRUCTION
 18731									;IN THE SUBTEST) TO LOOP ON ERROR^
 18732
 18733					;**********
 18734
 18735
 18736					;THIS TEST VERIFIES THAT MOVS SWAPS LEFT AND RIGHT HALVES OF E AND
 18737					;MOVES IT INTO AC.  IN THIS CASE, A 0 IS RIPPLED THRU THE LEFT HALF OF E
 18738					;AND A 1 IS RIPPLED THRU THE RIGHT HALF
 18739					;OF E [C(E)=YY,,ZZ, WHERE ZZ IS A FLOATING 1 AND YY IS A FLOATING 0].
 18740					;THEN, C(AC) IS CHECKED.
 18741					;THIS TEST IS REPEATED 18 TIMES TO FLOAT A 1 THRU ALL 18 BITS OF
 18742					;THE RIGHT HALF AND A 0 THRU ALL 18 BITS OF THE RIGHT HALF OF E
 18743
 18744			002421		SN=SN+1
 18745			200000			ZZ=ZZ+ZZ
 18746		777777	577777			YY=YY+YY+1
 18747						IFE	ZZ,<ZZ=1>
 18748						IFE	<YY-1>,<YY=-2>
 18749	041073	204 00 0 00 070544 		MOVS	[XWD YY,ZZ]	;*MOVS SHOULD SWAP HALVES OF C(E)
DFKAA PDP-10 KL10 BASIC INSTRUCTION DIAGNOSTIC (1) VER 0,2	MACRO %53B(1254)-4 11:50 11-Nov-24 Page 29-8
DFKAA2	MAC	13-Jan-89 10:22		TEST OF MOVS INSTRUCTION

 18750									;AND MOVE RESULT INTO AC
 18751	041074	312 00 0 00 070543 		CAME	[XWD ZZ,YY]	;PASS TEST IF C(AC)=ZZ,,YY
 18752						STOP		^
 18753	041075	254 04 0 00 041076 		HALT	.+1		;TEST FAILED IF PROGRAM HALTS HERE
 18754	041076	324 00 0 00 041077 		JUMPA	.+1		;IF TEST FAILS, CHANGE THIS INSTRUCTION (JUMPA .+1) TO
 18755									;JUMPA X (X IS THE ADDRESS OF THE FIRST INSTRUCTION
 18756									;IN THE SUBTEST) TO LOOP ON ERROR^
 18757
 18758					;**********
 18759
 18760
 18761					;THIS TEST VERIFIES THAT MOVS SWAPS LEFT AND RIGHT HALVES OF E AND
 18762					;MOVES IT INTO AC.  IN THIS CASE, A 0 IS RIPPLED THRU THE LEFT HALF OF E
 18763					;AND A 1 IS RIPPLED THRU THE RIGHT HALF
 18764					;OF E [C(E)=YY,,ZZ, WHERE ZZ IS A FLOATING 1 AND YY IS A FLOATING 0].
 18765					;THEN, C(AC) IS CHECKED.
 18766					;THIS TEST IS REPEATED 18 TIMES TO FLOAT A 1 THRU ALL 18 BITS OF
 18767					;THE RIGHT HALF AND A 0 THRU ALL 18 BITS OF THE RIGHT HALF OF E
 18768
 18769			002422		SN=SN+1
 18770			400000			ZZ=ZZ+ZZ
 18771		777777	377777			YY=YY+YY+1
 18772						IFE	ZZ,<ZZ=1>
 18773						IFE	<YY-1>,<YY=-2>
 18774	041077	204 00 0 00 070546 		MOVS	[XWD YY,ZZ]	;*MOVS SHOULD SWAP HALVES OF C(E)
 18775									;AND MOVE RESULT INTO AC
 18776	041100	312 00 0 00 070545 		CAME	[XWD ZZ,YY]	;PASS TEST IF C(AC)=ZZ,,YY
 18777						STOP		^
 18778	041101	254 04 0 00 041102 		HALT	.+1		;TEST FAILED IF PROGRAM HALTS HERE
 18779	041102	324 00 0 00 041103 		JUMPA	.+1		;IF TEST FAILS, CHANGE THIS INSTRUCTION (JUMPA .+1) TO
 18780									;JUMPA X (X IS THE ADDRESS OF THE FIRST INSTRUCTION
 18781									;IN THE SUBTEST) TO LOOP ON ERROR^
 18782
 18783					;**********
 18784
DFKAA PDP-10 KL10 BASIC INSTRUCTION DIAGNOSTIC (1) VER 0,2	MACRO %53B(1254)-4 11:50 11-Nov-24 Page 30
DFKAA2	MAC	13-Jan-89 10:22		TEST OF COMPARE (CAXX) INSTRUCTIONS

 18785					SUBTTL	TEST OF COMPARE (CAXX) INSTRUCTIONS
 18786
 18787					;**********
 18788
 18789					;THIS TEST VERIFIES THAT CAIE SKIPS THE NEXT SEQUENTIAL INSTRUCTION WHEN
 18790					;AND ONLY WHEN C(AC)=E
 18791					;IN THIS CASE C(AC)=E=0;  HENCE, CAIE SHOULD SKIP
 18792					;OTHERWISE THE PROGRAM HALTS
 18793
 18794	041103	400 00 0 00 000000 	B2500:	SETZ			;PRELOAD AC TO 0
 18795	041104	302 00 0 00 000000 		CAIE			;*CAIE SHOULD SKIP BECAUSE C(AC)=E
 18796						STOP^
 18797	041105	254 04 0 00 041106 		HALT	.+1		;TEST FAILED IF PROGRAM HALTS HERE
 18798	041106	324 00 0 00 041107 		JUMPA	.+1		;IF TEST FAILS, CHANGE THIS INSTRUCTION (JUMPA .+1) TO
 18799									;JUMPA X (X IS THE ADDRESS OF THE FIRST INSTRUCTION
 18800									;IN THE SUBTEST) TO LOOP ON ERROR^
 18801
 18802					;*****     FAILURE ANALYSIS     *****
 18803					;C(AC0)		C(AC1)		FAILING SIGNAL
 18804
 18805					;				SW: PC CHANGE
 18806					;				FC: AD FM ; EN
 18807					;				FC: AD CRY 36
 18808					;				FC: AB PC EN
 18809					;				ET0: COND P: PC CLK EN
 18810
 18811					;**********
 18812
 18813					;THIS TEST VERIFIES THAT CAIE SKIPS THE NEXT SEQUENTIAL INSTRUCTION WHEN
 18814					;AND ONLY WHEN C(AC)=E
 18815					;IN THIS CASE C(AC)=E=1.  HENCE, CAIE SHOULD SKIP
 18816					;OTHERWISE THE PROGRAM HALTS
 18817
 18818	041107	200 00 0 00 070265 	B2600:	MOVE	[1]		;PRELOAD AC TO 1
 18819	041110	302 00 0 00 000001 		CAIE	1		;*CAIE SHOULD SKIP BECAUSE C(AC)=E
 18820						STOP^
 18821	041111	254 04 0 00 041112 		HALT	.+1		;TEST FAILED IF PROGRAM HALTS HERE
 18822	041112	324 00 0 00 041113 		JUMPA	.+1		;IF TEST FAILS, CHANGE THIS INSTRUCTION (JUMPA .+1) TO
 18823									;JUMPA X (X IS THE ADDRESS OF THE FIRST INSTRUCTION
 18824									;IN THE SUBTEST) TO LOOP ON ERROR^
 18825
 18826					;*****     FAILURE ANALYSIS     *****
 18827					;C(AC0)		C(AC1)		FAILING SIGNAL
 18828
 18829					;				FC: AD AR - EN
 18830
 18831					;**********
 18832
 18833					;THIS TEST VERIFIES THAT CAME SKIPS THE NEXT SEQUENTIAL INSTRUCTION WHEN
 18834					;AND ONLY WHEN C(AC)=C(E)
 18835					;IN THIS CASE C(AC)=C(E)=1;  HENCE, CAME SHOULD SKIP
 18836					;OTHERWISE THE PROGRAM HALTS
 18837
 18838	041113	201 00 0 00 000001 	B2700:	MOVEI	1		;PRELOAD AC TO 1
 18839	041114	312 00 0 00 070265 		CAME	[1]		;*CAME SHOULD SKIP BECAUSE C(AC)=C(E)
DFKAA PDP-10 KL10 BASIC INSTRUCTION DIAGNOSTIC (1) VER 0,2	MACRO %53B(1254)-4 11:50 11-Nov-24 Page 30-1
DFKAA2	MAC	13-Jan-89 10:22		TEST OF COMPARE (CAXX) INSTRUCTIONS

 18840						STOP^
 18841	041115	254 04 0 00 041116 		HALT	.+1		;TEST FAILED IF PROGRAM HALTS HERE
 18842	041116	324 00 0 00 041117 		JUMPA	.+1		;IF TEST FAILS, CHANGE THIS INSTRUCTION (JUMPA .+1) TO
 18843									;JUMPA X (X IS THE ADDRESS OF THE FIRST INSTRUCTION
 18844									;IN THE SUBTEST) TO LOOP ON ERROR^
 18845
 18846					;**********
DFKAA PDP-10 KL10 BASIC INSTRUCTION DIAGNOSTIC (1) VER 0,2	MACRO %53B(1254)-4 11:50 11-Nov-24 Page 31
DFKAA2	MAC	13-Jan-89 10:22		TEST OF BOOLEAN INSTRUCTIONS

 18847					SUBTTL	TEST OF BOOLEAN INSTRUCTIONS
 18848
 18849					;**********
 18850
 18851					;THIS TEST VERIFIES THAT SETCA IGNORES THE ADDRESS FIELD OF THE INSTUCTION WORD.
 18852					;IN THIS CASE C(AC)=0,,-1;  HENCE, THE RESULT IN THE AC SHOULD BE -1,,0
 18853					;IF THE RESULT IN THE AC IS -1,,0, THE TEST PASSES.
 18854
 18855	041117	201 00 0 00 777777 	B3000:	MOVEI	-1		;PRELOAD AC TO 0,,-1
 18856	041120	450 00 0 00 070254 		SETCA	[-1]		;*SETCA SHOULD PUT -1,,0 INTO THE AC
 18857	041121	312 00 0 00 070331 		CAME	[-1,,0]		;PASS TEST IF C(AC)=-1,,0
 18858						STOP^
 18859	041122	254 04 0 00 041123 		HALT	.+1		;TEST FAILED IF PROGRAM HALTS HERE
 18860	041123	324 00 0 00 041124 		JUMPA	.+1		;IF TEST FAILS, CHANGE THIS INSTRUCTION (JUMPA .+1) TO
 18861									;JUMPA X (X IS THE ADDRESS OF THE FIRST INSTRUCTION
 18862									;IN THE SUBTEST) TO LOOP ON ERROR^
 18863
 18864					;**********
 18865
 18866					;THIS TEST VERIFIES THAT SETCA COMPLEMENTS C(AC), THEN PLACES THE
 18867					;RESULT IN THE AC.
 18868					;IN THIS CASE C(AC)=0,,-1;  HENCE, THE RESULT IN THE AC SHOULD BE -1,,0
 18869					;IF THE RESULT IN THE AC IS -1,,0, THE TEST PASSES
 18870
 18871	041124	201 00 0 00 777777 	B3100:	MOVEI	-1		;PRELOAD AC TO 0,,-1
 18872	041125	450 00 0 00 000000 		SETCA			;*SETCA SHOULD PUT -1,,0 INTO THE AC
 18873	041126	312 00 0 00 070331 		CAME	[-1,,0]		;PASS TEST IF C(AC) =-1,,0
 18874						STOP^
 18875	041127	254 04 0 00 041130 		HALT	.+1		;TEST FAILED IF PROGRAM HALTS HERE
 18876	041130	324 00 0 00 041131 		JUMPA	.+1		;IF TEST FAILS, CHANGE THIS INSTRUCTION (JUMPA .+1) TO
 18877									;JUMPA X (X IS THE ADDRESS OF THE FIRST INSTRUCTION
 18878									;IN THE SUBTEST) TO LOOP ON ERROR^
 18879
 18880					;**********
DFKAA PDP-10 KL10 BASIC INSTRUCTION DIAGNOSTIC (1) VER 0,2	MACRO %53B(1254)-4 11:50 11-Nov-24 Page 32
DFKAA2	MAC	13-Jan-89 10:22		TEST OF BOOLEAN INSTRUCTIONS

 18881					;THIS TEST VERIFIES THAT SETCA COMPLEMENTS C(AC), THEN PLACES THE
 18882					;RESULT IN THE AC,
 18883					;IN THIS CASE C(AC)=0,,0  HENCE, THE RESULT IN THE AC SHOULD BE,-1
 18884					;IF THE RESULT IN THE AC IS -1,,-1, THE TEST PASSES
 18885
 18886	041131	201 00 0 00 000000 	B3200:	MOVEI	0		;PRELOAD AC TO 0,,0
 18887	041132	450 00 0 00 000000 		SETCA			;*SETCA SHOULD PUT -1,,-1 INTO THE AC
 18888	041133	312 00 0 00 070254 		CAME	[-1]		;PASS TEST IF C(AC) =-1,,-1
 18889						STOP^
 18890	041134	254 04 0 00 041135 		HALT	.+1		;TEST FAILED IF PROGRAM HALTS HERE
 18891	041135	324 00 0 00 041136 		JUMPA	.+1		;IF TEST FAILS, CHANGE THIS INSTRUCTION (JUMPA .+1) TO
 18892									;JUMPA X (X IS THE ADDRESS OF THE FIRST INSTRUCTION
 18893									;IN THE SUBTEST) TO LOOP ON ERROR^
 18894
 18895					;*****     FAILURE ANALYSIS     *****
 18896					;C(AC0)		C(AC1)		FAILING SIGNAL
 18897
 18898					;0				ET2: AR AD EN
 18899
 18900					;**********
 18901
 18902					;THIS TEST VERIFIES THAT SETCA COMPLEMENTS C(AC), THEN PLACES THE
 18903					;RESULT IN THE AC,
 18904					;IN THIS CASE C(AC)=-1,,-1;  HENCE, THE RESULT IN THE AC SHOULD BE 0,,0
 18905					;IF THE RESULT IN THE AC IS ZERO, THE TEST PASSES
 18906
 18907	041136	200 00 0 00 070254 	B3300:	MOVE	[-1]		;PRELOAD AC TO -1,,-1
 18908	041137	450 00 0 00 000000 		SETCA			;*SETCA SHOULD PUT 0,,0 INTO THE AC
 18909	041140	312 00 0 00 070253 		CAME	[0]		;PASS TEST IF C(AC) IS ZERO
 18910						STOP^
 18911	041141	254 04 0 00 041142 		HALT	.+1		;TEST FAILED IF PROGRAM HALTS HERE
 18912	041142	324 00 0 00 041143 		JUMPA	.+1		;IF TEST FAILS, CHANGE THIS INSTRUCTION (JUMPA .+1) TO
 18913									;JUMPA X (X IS THE ADDRESS OF THE FIRST INSTRUCTION
 18914									;IN THE SUBTEST) TO LOOP ON ERROR^
 18915
 18916					;*****     FAILURE ANALYSIS     *****
 18917					;C(AC0)		C(AC1)		FAILING SIGNAL
 18918
 18919					;-1,,-1				FC: AD FM - EN
 18920
 18921					;**********
DFKAA PDP-10 KL10 BASIC INSTRUCTION DIAGNOSTIC (1) VER 0,2	MACRO %53B(1254)-4 11:50 11-Nov-24 Page 33
DFKAA2	MAC	13-Jan-89 10:22		TEST OF BOOLEAN INSTRUCTIONS

 18922					;THIS TEST VERIFIES THAT SETCM COMPLEMENTS C(E), THEN PLACES THE
 18923					;RESULT IN THE AC.
 18924					;IN THIS CASE AC=E AND C(E)=C(AC)=0,,-1;  HENCE, THE RESULT IN THE AC SHOULD BE -1,,0
 18925					;IF THE RESULT IN THE AC IS -1,,0, THE TEST PASSES
 18926
 18927	041143	201 00 0 00 777777 	B3500:	MOVEI	-1		;PRELOAD AC TO 0,,-1
 18928	041144	460 00 0 00 000000 		SETCM			;*SETCM SHOULD PUT -1,,0 INTO THE AC
 18929	041145	312 00 0 00 070331 		CAME	[-1,,0]		;PASS TEST IF C(AC) =-1,,0
 18930						STOP^
 18931	041146	254 04 0 00 041147 		HALT	.+1		;TEST FAILED IF PROGRAM HALTS HERE
 18932	041147	324 00 0 00 041150 		JUMPA	.+1		;IF TEST FAILS, CHANGE THIS INSTRUCTION (JUMPA .+1) TO
 18933									;JUMPA X (X IS THE ADDRESS OF THE FIRST INSTRUCTION
 18934									;IN THE SUBTEST) TO LOOP ON ERROR^
 18935
 18936					;*****     FAILURE ANALYSIS     *****
 18937					;C(AC0)		C(AC1)		FAILING SIGNAL
 18938
 18939					;-1,,-1				SW: FCE
 18940					;-1,,-1				FC: AD AR - EN
 18941					;0,,-1				ET2: AR AD EN
 18942
 18943					;**********
 18944
 18945					;THIS TEST VERIFIES THAT SETCM COMPLEMENTS C(E), THEN PLACES THE
 18946					;RESULT IN THE AC.
 18947					;IN THIS CASE C(E)=-1,,-1;  HENCE, THE RESULT IN THE AC SHOULD BE 0,,0
 18948					;IF THE RESULT IN THE AC IS ZERO,THE TEST PASSES
 18949
 18950	041150	460 00 0 00 070254 	B3600:	SETCM	[-1]		;*SETCM SHOULD PUT 0 INTO THE AC
 18951	041151	332 00 0 00 000000 		SKIPE			;PASS TEST IF C(AC0)=0
 18952						STOP^
 18953	041152	254 04 0 00 041153 		HALT	.+1		;TEST FAILED IF PROGRAM HALTS HERE
 18954	041153	324 00 0 00 041154 		JUMPA	.+1		;IF TEST FAILS, CHANGE THIS INSTRUCTION (JUMPA .+1) TO
 18955									;JUMPA X (X IS THE ADDRESS OF THE FIRST INSTRUCTION
 18956									;IN THE SUBTEST) TO LOOP ON ERROR^
 18957
 18958					;**********
DFKAA PDP-10 KL10 BASIC INSTRUCTION DIAGNOSTIC (1) VER 0,2	MACRO %53B(1254)-4 11:50 11-Nov-24 Page 34
DFKAA2	MAC	13-Jan-89 10:22		TEST OF BOOLEAN INSTRUCTIONS

 18959					;THIS TEST VERIFIES THAT SETCM COMPLEMENTS C(E), THEN PLACES THE
 18960					;RESULT IN THE AC.
 18961					;IN THIS CASE C(E)=0,,0;  HENCE, THE RESULT IN THE AC SHOULD BE -1,,-1
 18962					;IF THE RESULT IN THE AC IS -1,,-1,THE TEST PASSES
 18963
 18964	041154	460 00 0 00 070253 	B3700:	SETCM	[0]		;*SETCM SHOULD PUT -1,,-1 INTO THE AC
 18965	041155	312 00 0 00 070254 		CAME	[-1]		;PASS TEST IF C(AC)=-1,,-1
 18966						STOP^
 18967	041156	254 04 0 00 041157 		HALT	.+1		;TEST FAILED IF PROGRAM HALTS HERE
 18968	041157	324 00 0 00 041160 		JUMPA	.+1		;IF TEST FAILS, CHANGE THIS INSTRUCTION (JUMPA .+1) TO
 18969									;JUMPA X (X IS THE ADDRESS OF THE FIRST INSTRUCTION
 18970									;IN THE SUBTEST) TO LOOP ON ERROR^
 18971
 18972					;**********
DFKAA PDP-10 KL10 BASIC INSTRUCTION DIAGNOSTIC (1) VER 0,2	MACRO %53B(1254)-4 11:50 11-Nov-24 Page 35
DFKAA2	MAC	13-Jan-89 10:22		TEST OF BOOLEAN INSTRUCTIONS

 18973					;THIS TEST VERIFIES THAT SETO SETS C(AC) TO -1,,-1.  SETO IGNORES
 18974					;THE ADDRESS FIELD OF THE INSTRUCTION WORD.
 18975					;FIRST C(AC) IS SET TO 0,,0; THEN SETO IS EXECUTED.
 18976					;THE AC IS THEN CHECKED FOR ALL ONES.  IF C(AC) IS ALL ONES,
 18977					;THE TEST PASSES
 18978
 18979	041160	201 00 0 00 000000 	B4300:	MOVEI	0		;PRELOAD AC WITH 0,,0
 18980	041161	474 00 0 00 000000 		SETO			;*SETO SHOULD LOAD THE AC WITH -1,,-1
 18981	041162	312 00 0 00 070254 		CAME	[-1]		;PASS TEST IF C(AC)=-1,,-1
 18982						STOP^
 18983	041163	254 04 0 00 041164 		HALT	.+1		;TEST FAILED IF PROGRAM HALTS HERE
 18984	041164	324 00 0 00 041165 		JUMPA	.+1		;IF TEST FAILS, CHANGE THIS INSTRUCTION (JUMPA .+1) TO
 18985									;JUMPA X (X IS THE ADDRESS OF THE FIRST INSTRUCTION
 18986									;IN THE SUBTEST) TO LOOP ON ERROR^
 18987
 18988					;*****     FAILURE ANALYSIS     *****
 18989					;C(AC0)		C(AC1)		FAILING SIGNAL
 18990
 18991					;0				ET2: AR AD EN
 18992
 18993					;**********
DFKAA PDP-10 KL10 BASIC INSTRUCTION DIAGNOSTIC (1) VER 0,2	MACRO %53B(1254)-4 11:50 11-Nov-24 Page 36
DFKAA2	MAC	13-Jan-89 10:22		TEST OF BOOLEAN INSTRUCTIONS

 18994					;THIS TEST VERIFIES THAT ORCM CHANGES C(AC) TO THE LOGICAL
 18995					;INCLUSIVE OR OF C(AC) WITH THE COMPLEMENT OF C(MEMORY).
 18996					;IN THIS CASE AC=MEMORY=AC0 AND C(AC)=C(E)=0.
 18997					;HENCE THE RESULT IN THE AC SHOULD BE ALL ONES.
 18998					;THE AC IS CHECKED FOR ITS FINAL CONTENTS NON-ZERO.
 18999					;IF C(AC) IS NOT=0, THE TEST PASSES
 19000
 19001	041165	201 00 0 00 000000 	B4400:	MOVEI	0		;PRELOAD AC,E WITH 0
 19002	041166	464 00 0 00 000000 		ORCM			;*ORCM SHOULD PUT ALL ONES INTO AC0
 19003	041167	336 00 0 00 000000 		SKIPN			;PASS IF C(AC) IS NON-ZERO
 19004						STOP^
 19005	041170	254 04 0 00 041171 		HALT	.+1		;TEST FAILED IF PROGRAM HALTS HERE
 19006	041171	324 00 0 00 041172 		JUMPA	.+1		;IF TEST FAILS, CHANGE THIS INSTRUCTION (JUMPA .+1) TO
 19007									;JUMPA X (X IS THE ADDRESS OF THE FIRST INSTRUCTION
 19008									;IN THE SUBTEST) TO LOOP ON ERROR^
 19009
 19010					;**********
 19011
 19012					;THIS TEST VERIFIES THAT ORCM CHANGES C(AC) TO THE LOGICAL
 19013					;INCLUSIVE OR OF C(AC) WITH COMPLEMENT OF C(MEMORY).
 19014					;IN THIS CASE AC=MEMORY=AC0 AND C(AC)=C(E)=0
 19015					;HENCE THE RESULT IN THE AC SHOULD BE ALL ONES.
 19016					;THE AC IS CHECKED FOR ITS FINAL CONTENTS EQUAL TO -1,,-1
 19017					;IF C(AC0)=-1,,-1, THE TEST PASSES
 19018
 19019	041172	201 00 0 00 000000 	B4500:	MOVEI	0		;PRELOAD AC,E WITH 0
 19020	041173	464 00 0 00 000000 		ORCM			;*ORCM SHOULD PUT ALL ONES INTO AC0
 19021	041174	312 00 0 00 070254 		CAME	[-1]		;PASS IF C(AC)=-1,,-1
 19022						STOP^
 19023	041175	254 04 0 00 041176 		HALT	.+1		;TEST FAILED IF PROGRAM HALTS HERE
 19024	041176	324 00 0 00 041177 		JUMPA	.+1		;IF TEST FAILS, CHANGE THIS INSTRUCTION (JUMPA .+1) TO
 19025									;JUMPA X (X IS THE ADDRESS OF THE FIRST INSTRUCTION
 19026									;IN THE SUBTEST) TO LOOP ON ERROR^
 19027
 19028					;*****     FAILURE ANALYSIS     *****
 19029					;C(AC0)		C(AC1)		FAILING SIGNAL
 19030
 19031					;0				SW: ET0
 19032					;0				FC: AD AR + EN
 19033					;0				ET2: AR AD EN
 19034
 19035					;**********
DFKAA PDP-10 KL10 BASIC INSTRUCTION DIAGNOSTIC (1) VER 0,2	MACRO %53B(1254)-4 11:50 11-Nov-24 Page 37
DFKAA2	MAC	13-Jan-89 10:22		TEST OF BOOLEAN INSTRUCTIONS

 19036					;THIS TEST VERIFIES THAT ORCM CHANGES C(AC) TO THE LOGICAL
 19037					;INCLUSIVE OR OF C(AC) WITH COMPLEMENT OF C(MEMORY).
 19038					;IN THIS CASE AC=MEMORY=AC0 AND C(AC)=C(E)=-1,,-1
 19039					;HENCE THE RESULT IN THE AC SHOULD BE ALL ONES.
 19040					;THE AC IS CHECKED FOR ITS FINAL CONTENTS EQUAL TO -1,,-1
 19041					;IF C(AC0)=-1,,-1, THE TEST PASSES
 19042
 19043	041177	200 00 0 00 070254 	B4600:	MOVE	[-1]		;PRELOAD AC,E WITH -1,,-1
 19044	041200	464 00 0 00 000000 		ORCM			;*ORCM SHOULD PUT ALL ONES INTO AC0
 19045	041201	312 00 0 00 070254 		CAME	[-1]		;PASS IF C(AC)=-1,,-1
 19046						STOP^
 19047	041202	254 04 0 00 041203 		HALT	.+1		;TEST FAILED IF PROGRAM HALTS HERE
 19048	041203	324 00 0 00 041204 		JUMPA	.+1		;IF TEST FAILS, CHANGE THIS INSTRUCTION (JUMPA .+1) TO
 19049									;JUMPA X (X IS THE ADDRESS OF THE FIRST INSTRUCTION
 19050									;IN THE SUBTEST) TO LOOP ON ERROR^
 19051
 19052					;*****     FAILURE ANALYSIS     *****
 19053					;C(AC0)		C(AC1)		FAILING SIGNAL
 19054
 19055					;0				FC: AD FM - EN
 19056					;0				ET0: AR AD EN
 19057
 19058					;**********
 19059
 19060					;THIS TEST VERIFIES THAT ORCM CHANGES C(AC) TO THE LOGICAL
 19061					;INCLUSIVE OR OF C(AC) WITH COMPLEMENT OF C(MEMORY).
 19062					;IN THIS CASE C(AC)=0 AND C(E)=-1,,-1; HENCE, THE RESULT
 19063					;IN THE AC SHOULD BE 0.  THE AC IS CHECKED FOR ITS INAL CONTENTS=0.
 19064					;IF C(AC)=0, THE TEST PASSES
 19065
 19066	041204	201 00 0 00 000000 	B4700:	MOVEI	0		;PRELOAD AC WITH 0
 19067	041205	464 00 0 00 070254 		ORCM	[-1]		;*ORCM SHOULD PLACE ALL ZEROS INTO THE AC
 19068	041206	332 00 0 00 000000 		SKIPE			;PASS IF C(AC)=0,,0
 19069						STOP^
 19070	041207	254 04 0 00 041210 		HALT	.+1		;TEST FAILED IF PROGRAM HALTS HERE
 19071	041210	324 00 0 00 041211 		JUMPA	.+1		;IF TEST FAILS, CHANGE THIS INSTRUCTION (JUMPA .+1) TO
 19072									;JUMPA X (X IS THE ADDRESS OF THE FIRST INSTRUCTION
 19073									;IN THE SUBTEST) TO LOOP ON ERROR^
 19074
 19075					;*****     FAILURE ANALYSIS     *****
 19076					;C(AC0)		C(AC1)		FAILING SIGNAL
 19077
 19078					;-E				SW: FCE
 19079
 19080					;**********
DFKAA PDP-10 KL10 BASIC INSTRUCTION DIAGNOSTIC (1) VER 0,2	MACRO %53B(1254)-4 11:50 11-Nov-24 Page 38
DFKAA2	MAC	13-Jan-89 10:22		TEST OF BOOLEAN INSTRUCTIONS

 19081					;THIS TEST VERIFIES THAT IOR CHANGES C(AC) TO THE LOGICAL
 19082					;INCLUSIVE OR OF C(AC) WITH C(E).
 19083					;IN THIS CASE AC=E AND C(AC)=C(E)=0,,0.  HENCE THE
 19084					;RESULT IN THE AC SHOULD BE 0,,0.
 19085					;THE AC IS CHECKED FOR 0,,0.  IF C(AC)=0,,0, THIS TEST PASSES
 19086
 19087	041211	201 00 0 00 000000 	B5000:	MOVEI	0		;PRELOAD AC,E WITH 0,,0
 19088	041212	434 00 0 00 000000 		IOR			;*IOR SHOULD PUT 0 INTO AC
 19089	041213	332 00 0 00 000000 		SKIPE			;PASS TEST IF C(AC)=0,,0
 19090						STOP^
 19091	041214	254 04 0 00 041215 		HALT	.+1		;TEST FAILED IF PROGRAM HALTS HERE
 19092	041215	324 00 0 00 041216 		JUMPA	.+1		;IF TEST FAILS, CHANGE THIS INSTRUCTION (JUMPA .+1) TO
 19093									;JUMPA X (X IS THE ADDRESS OF THE FIRST INSTRUCTION
 19094									;IN THE SUBTEST) TO LOOP ON ERROR^
 19095
 19096					;*****     FAILURE ANALYSIS     *****
 19097					;C(AC0)		C(AC1)		FAILING SIGNAL
 19098
 19099					;-1,,-1				SW: ET0
 19100					;-1,,-1				ET0: AR AD EN
 19101					;-1,,-1				ET0: AD AR - EN
 19102					;-1,,-1				ET2: AR AD EN
 19103
 19104					;**********
 19105
 19106					;THIS TEST VERIFIES THAT IOR CHANGES C(AC) TO THE LOGICAL
 19107					;INCLUSIVE OR OF C(AC) WITH C(E).
 19108					;IN THIS CASE C(AC)=0 AND C(E)=-1,,-1.  HENCE, THE
 19109					;RESULT IN THE AC SHOULD BE -1,,-1.
 19110					;THE AC IS CHECKED FOR -1,,-1
 19111					;IF C(AC) =-1,,-1 THE TEST PASSES.
 19112
 19113	041216	201 00 0 00 000000 	B5100:	MOVEI	0		;PRELOAD AC WITH 0
 19114	041217	434 00 0 00 070254 		IOR	[-1]		;*IOR SHOULD PUT -1,,-1 INTO AC
 19115	041220	312 00 0 00 070254 		CAME	[-1]		;PASS TEST IF C(AC)  =-1,,-1
 19116						STOP^
 19117	041221	254 04 0 00 041222 		HALT	.+1		;TEST FAILED IF PROGRAM HALTS HERE
 19118	041222	324 00 0 00 041223 		JUMPA	.+1		;IF TEST FAILS, CHANGE THIS INSTRUCTION (JUMPA .+1) TO
 19119									;JUMPA X (X IS THE ADDRESS OF THE FIRST INSTRUCTION
 19120									;IN THE SUBTEST) TO LOOP ON ERROR^
 19121
 19122					;*****     FAILURE ANALYSIS     *****
 19123					;C(AC0)		C(AC1)		FAILING SIGNAL
 19124
 19125					;E				SW: FCE
 19126					;0				FC: AD AR - EN
 19127
 19128					;*****     FAILURE ANALYSIS     *****
 19129					;C(AC0)		C(AC1)		FAILING SIGNAL
 19130
 19131					;0				FC: AD FM - EN
 19132
 19133	041223				NB5300:;**********
DFKAA PDP-10 KL10 BASIC INSTRUCTION DIAGNOSTIC (1) VER 0,2	MACRO %53B(1254)-4 11:50 11-Nov-24 Page 39
DFKAA2	MAC	13-Jan-89 10:22		TEST OF BOOLEAN INSTRUCTIONS

 19134					;THIS TEST VERIFIES THAT IOR CHANGES C(AC) TO THE LOGICAL
 19135					;INCLUSIVE OR OF C(AC) WITH C(E).
 19136					;IN THIS CASE C(AC)=0 AND C(E)=-1,,-1.  HENCE, THE
 19137					;RESULT IN THE AC SHOULD BE -1,,-1
 19138					;THE AC IS CHECKED FOR ITS CONTENTS = ALL ONES
 19139					;IF C(AC)=-1, THE TEST PASSES
 19140
 19141	041223	474 00 0 00 000000 	B5200:	SETO			;PRELOAD AC WITH -1,,-1
 19142	041224	434 00 0 00 070254 		IOR	[-1]		;*IOR SHOULD PUT -1,,-1 INTO AC
 19143	041225	312 00 0 00 070254 		CAME	[-1]		;PASS TEST IF C(AC)=-1,,-1
 19144						STOP^
 19145	041226	254 04 0 00 041227 		HALT	.+1		;TEST FAILED IF PROGRAM HALTS HERE
 19146	041227	324 00 0 00 041230 		JUMPA	.+1		;IF TEST FAILS, CHANGE THIS INSTRUCTION (JUMPA .+1) TO
 19147									;JUMPA X (X IS THE ADDRESS OF THE FIRST INSTRUCTION
 19148									;IN THE SUBTEST) TO LOOP ON ERROR^
 19149
 19150					;**********
 19151
 19152					;THIS TEST VERIFIES THAT IOR CHANGES C(AC) TO THE LOGICAL
 19153					;INCLUSIVE OR OF C(AC) WITH C(E).
 19154					;IN THIS CASE C(AC)=0 AND C(E)=-1,,-1.  HENCE, THE
 19155					;RESULT IN THE AC SHOULD BE -1,,-1
 19156					;THE AC IS CHECKED FOR ITS CONTENTS = ALL ONES
 19157					;IF C(AC)=-1,,-1, THE TEST PASSES
 19158
 19159	041230	474 00 0 00 000000 	B5300:	SETO			;PRELOAD AC WITH -1,,-1
 19160	041231	434 00 0 00 070253 		IOR	[0]		;*IOR SHOULD PUT -1,,-1 INTO AC
 19161	041232	312 00 0 00 070254 		CAME	[-1]		;PASS TEST IF C(AC)=-1,,-1
 19162						STOP^
 19163	041233	254 04 0 00 041234 		HALT	.+1		;TEST FAILED IF PROGRAM HALTS HERE
 19164	041234	324 00 0 00 041235 		JUMPA	.+1		;IF TEST FAILS, CHANGE THIS INSTRUCTION (JUMPA .+1) TO
 19165									;JUMPA X (X IS THE ADDRESS OF THE FIRST INSTRUCTION
 19166									;IN THE SUBTEST) TO LOOP ON ERROR^
 19167
 19168					;**********
DFKAA PDP-10 KL10 BASIC INSTRUCTION DIAGNOSTIC (1) VER 0,2	MACRO %53B(1254)-4 11:50 11-Nov-24 Page 40
DFKAA2	MAC	13-Jan-89 10:22		TEST OF BOOLEAN INSTRUCTIONS

 19169					;THIS TEST VERIFIES THAT ANDCM CHANGES C(AC) TO THE LOGICAL AND
 19170					;OF C(AC) AND THE COMPLEMENT OF C(MEMORY).
 19171					;IN THIS CASE C(AC)=-1,,-1 AND C(E)=-1,,0.  HENCE, THE RESULT
 19172					;IN THE AC SHOULD BE 0,,-1
 19173					;THE AC IS CHECKED FOR 0,,-1.  IF C(AC)=0,,-1, THE TEST PASSES
 19174
 19175	041235	474 00 0 00 000000 	B5500:	SETO			;PRELOAD AC WITH ALL ONES
 19176	041236	420 00 0 00 070331 		ANDCM	[XWD -1,0]	;*ANDCM SHOULD PLACE 0,,-1 IN THE AC
 19177	041237	312 00 0 00 070330 		CAME	[0,,-1]		;IF C(AC)=0,,-1, THE TEST PASSES
 19178						STOP^
 19179	041240	254 04 0 00 041241 		HALT	.+1		;TEST FAILED IF PROGRAM HALTS HERE
 19180	041241	324 00 0 00 041242 		JUMPA	.+1		;IF TEST FAILS, CHANGE THIS INSTRUCTION (JUMPA .+1) TO
 19181									;JUMPA X (X IS THE ADDRESS OF THE FIRST INSTRUCTION
 19182									;IN THE SUBTEST) TO LOOP ON ERROR^
 19183
 19184					;*****     FAILURE ANALYSIS     *****
 19185					;C(AC0)		C(AC1)		FAILING SIGNAL
 19186
 19187					;-E				SW: FCE
 19188					;-1,,-1				FC: AD AR - EN
 19189					;-1,,0				ET2: AR AD EN
 19190
 19191					;**********
 19192
 19193					;THIS TEST VERIFIES THAT ANDCM CHANGES C(AC) TO THE LOGICAL AND
 19194					;OF C(AC) AND THE COMPLEMENT OF C(MEMORY).
 19195					;IN THIS CASE AC=E=AC0 AND C(AC)=C(E)=0.  HENCE,
 19196					;THE RESULT IN THE AC SHOULD BE 0.  THE AC IS CHECKED FOR 0.
 19197					;IF C(AC)=0, THE TEST PASSES.
 19198
 19199	041242	474 00 0 00 000000 	B5600:	SETO			;PRELOAD AC WITH ALL ONES
 19200	041243	420 00 0 00 000000 		ANDCM			;*ANDCM SHOULD PLACE 0 IN THE AC
 19201	041244	332 00 0 00 000000 		SKIPE			;IF C(AC)=0, THE TEST PASSES.
 19202						STOP^
 19203	041245	254 04 0 00 041246 		HALT	.+1		;TEST FAILED IF PROGRAM HALTS HERE
 19204	041246	324 00 0 00 041247 		JUMPA	.+1		;IF TEST FAILS, CHANGE THIS INSTRUCTION (JUMPA .+1) TO
 19205									;JUMPA X (X IS THE ADDRESS OF THE FIRST INSTRUCTION
 19206									;IN THE SUBTEST) TO LOOP ON ERROR^
 19207
 19208					;**********
DFKAA PDP-10 KL10 BASIC INSTRUCTION DIAGNOSTIC (1) VER 0,2	MACRO %53B(1254)-4 11:50 11-Nov-24 Page 41
DFKAA2	MAC	13-Jan-89 10:22		TEST OF BOOLEAN INSTRUCTIONS

 19209					;THIS TEST VERIFIES THAT ANDCM CHANGES C(AC) TO THE LOGICAL AND
 19210					;OF C(AC) AND THE COMPLEMENT OF C(MEMORY).
 19211					;IN THIS CASE C(AC)=-1,,-1, AND C(E)=0.  HENCE, THE RESULT IN THE AC
 19212					;SHOULD BE ALL ONES.  THE AC IS CHECKED FOR -1,,-1.
 19213					;IF C(AC)=-1,,-1, THE TEST PASSES
 19214
 19215	041247	474 00 0 00 000000 	B5700:	SETO			;PRELOAD AC WITH 0
 19216	041250	420 00 0 00 070253 		ANDCM	[0]		;*ANDCM SHOULD PLACE -1,,-1 IN THE AC
 19217	041251	312 00 0 00 070254 		CAME	[-1]		;IF C(AC)=-1,,-1, THE TEST PASSES
 19218						STOP^
 19219	041252	254 04 0 00 041253 		HALT	.+1		;TEST FAILED IF PROGRAM HALTS HERE
 19220	041253	324 00 0 00 041254 		JUMPA	.+1		;IF TEST FAILS, CHANGE THIS INSTRUCTION (JUMPA .+1) TO
 19221									;JUMPA X (X IS THE ADDRESS OF THE FIRST INSTRUCTION
 19222									;IN THE SUBTEST) TO LOOP ON ERROR^
 19223
 19224					;**********
 19225
 19226					;THIS TEST VERIFIES THAT ANDCM CHANGES C(AC) TO THE LOGICAL AND
 19227					;OF C(AC) AND THE COMPLEMENT OF C(MEMORY).
 19228					;IN THIS CASE, AC=E AND C(AC)=C(E)=0.  HENCE, THE RESULT IN THE AC
 19229					;SHOULD BE 0.  THE AC IS CHECKED FOR 0.
 19230					;IF C(AC)=0, THE TEST PASSES
 19231
 19232	041254	201 00 0 00 000000 	B6000:	MOVEI	0		;PRELOAD AC WITH 0
 19233	041255	420 00 0 00 000000 		ANDCM			;*ANDCM SHOULD PLACE 0 IN THE AC
 19234	041256	332 00 0 00 000000 		SKIPE			;IF C(AC)=0, THE TEST PASSES.
 19235						STOP^
 19236	041257	254 04 0 00 041260 		HALT	.+1		;TEST FAILED IF PROGRAM HALTS HERE
 19237	041260	324 00 0 00 041261 		JUMPA	.+1		;IF TEST FAILS, CHANGE THIS INSTRUCTION (JUMPA .+1) TO
 19238									;JUMPA X (X IS THE ADDRESS OF THE FIRST INSTRUCTION
 19239									;IN THE SUBTEST) TO LOOP ON ERROR^
 19240
 19241					;*****     FAILURE ANALYSIS     *****
 19242					;C(AC0)		C(AC1)		FAILING SIGNAL
 19243
 19244					;-1,,-1				FC: AD FM + EN
 19245
 19246					;**********
DFKAA PDP-10 KL10 BASIC INSTRUCTION DIAGNOSTIC (1) VER 0,2	MACRO %53B(1254)-4 11:50 11-Nov-24 Page 42
DFKAA2	MAC	13-Jan-89 10:22		TEST OF BOOLEAN INSTRUCTIONS

 19247					;THIS TEST VERIFIES THAT ANDCM CHANGES C(AC) TO THE LOGICAL AND
 19248					;OF C(AC) AND THE COMPLEMENT OF C(MEMORY).
 19249					;IN THIS CASE C(AC)=0 AND C(E)=-1,,-1. HENCE, THE RESULT IN THE AC
 19250					;SHOULD BE 0.  THE AC IS CHECKED FOR 0.
 19251					;IF C(AC)=0, THE TEST PASSES
 19252
 19253	041261	400 00 0 00 000000 	B6100:	SETZ			;PRELOAD AC WITH 0
 19254	041262	420 00 0 00 070254 		ANDCM	[-1]		;*ANDCM SHOULD PLACE 0 IN THE AC
 19255	041263	332 00 0 00 000000 		SKIPE			;IF C(AC)=0, THE TEST PASSES
 19256						STOP^
 19257	041264	254 04 0 00 041265 		HALT	.+1		;TEST FAILED IF PROGRAM HALTS HERE
 19258	041265	324 00 0 00 041266 		JUMPA	.+1		;IF TEST FAILS, CHANGE THIS INSTRUCTION (JUMPA .+1) TO
 19259									;JUMPA X (X IS THE ADDRESS OF THE FIRST INSTRUCTION
 19260									;IN THE SUBTEST) TO LOOP ON ERROR^
 19261
 19262					;**********
DFKAA PDP-10 KL10 BASIC INSTRUCTION DIAGNOSTIC (1) VER 0,2	MACRO %53B(1254)-4 11:50 11-Nov-24 Page 43
DFKAA2	MAC	13-Jan-89 10:22		TEST OF BOOLEAN INSTRUCTIONS

 19263					;THIS TEST VERIFIES THAT ANDCA CHANGES C(AC) TO THE LOGICAL AND FUNCTION
 19264					;OF THE COMPLEMENT OF C(AC) AND C(E).
 19265					;IN THIS CASE, C(AC)=-1,,0 AND C(E)=0.  HENCE, THE RESULT IN THE AC
 19266					;SHOULD BE 0.  THE AC IS CHECKED FOR ZERO.  IF C(AC) IS
 19267					;EQUAL TO ZERO, THE TEST PASSES.
 19268
 19269	041266	200 00 0 00 070331 	B6200:	MOVE	[XWD -1,0]	;PRELOAD AC WITH -1,,0
 19270	041267	410 00 0 00 070253 		ANDCA	[0]		;*ANDCA SHOULD PLACE 0 IN THE AC
 19271	041270	332 00 0 00 000000 		SKIPE			;IF C(AC)=0, THE TEST PASSES.
 19272						STOP^
 19273	041271	254 04 0 00 041272 		HALT	.+1		;TEST FAILED IF PROGRAM HALTS HERE
 19274	041272	324 00 0 00 041273 		JUMPA	.+1		;IF TEST FAILS, CHANGE THIS INSTRUCTION (JUMPA .+1) TO
 19275									;JUMPA X (X IS THE ADDRESS OF THE FIRST INSTRUCTION
 19276									;IN THE SUBTEST) TO LOOP ON ERROR^
 19277
 19278					;*****     FAILURE ANALYSIS     *****
 19279					;C(AC0)		C(AC1)		FAILING SIGNAL
 19280
 19281					;E				SW: FCE
 19282					;0,,-1				FC: AD AR + EN
 19283
 19284					;**********
 19285
 19286					;THIS TEST VERIFIES THAT ANDCA CHANGES C(AC) TO THE LOGICAL AND FUNCTION
 19287					;OF THE COMPLEMENT OF C(AC) AND C(E).
 19288					;IN THIS CASE, C(AC)=-1,,0 AND C(E)=707070,,707070.  HENCE, THE
 19289					;RESULT IN THE AC SHOULD BE 0,,707070.  THE AC IS CHECKED
 19290					;FOR 0,,707070.  IF C(AC)=0,,707070, THE TEST PASSES.
 19291
 19292	041273	200 00 0 00 070331 	B6300:	MOVE	[XWD -1,0]	;PRELOAD AC WITH -1,,0
 19293	041274	410 00 0 00 070332 		ANDCA	[707070707070]	;*ANDCA SHOULD PLACE 0,,707070 IN THE AC
 19294	041275	312 00 0 00 070547 		CAME	[XWD 0,707070]	;IF C(AC)=0,,707070, THE TEST PASSES
 19295						STOP^
 19296	041276	254 04 0 00 041277 		HALT	.+1		;TEST FAILED IF PROGRAM HALTS HERE
 19297	041277	324 00 0 00 041300 		JUMPA	.+1		;IF TEST FAILS, CHANGE THIS INSTRUCTION (JUMPA .+1) TO
 19298									;JUMPA X (X IS THE ADDRESS OF THE FIRST INSTRUCTION
 19299									;IN THE SUBTEST) TO LOOP ON ERROR^
 19300
 19301					;*****     FAILURE ANALYSIS     *****
 19302					;C(AC0)		C(AC1)		FAILING SIGNAL
 19303
 19304					;707070,,707070			FC: AD FM - EN
 19305					;707070,,707070			ET2: AR AD EN
 19306
 19307					;**********
DFKAA PDP-10 KL10 BASIC INSTRUCTION DIAGNOSTIC (1) VER 0,2	MACRO %53B(1254)-4 11:50 11-Nov-24 Page 44
DFKAA2	MAC	13-Jan-89 10:22		TEST OF BOOLEAN INSTRUCTIONS

 19308					;THIS TEST VERIFIES THAT ANDCA CHANGES C(AC) TO THE LOGICAL AND FUNCTION
 19309					;OF THE COMPLEMENT OF C(AC) AND C(E).
 19310					;IN THIS CASE AC=E=AC0 AND C(AC)=C(E)=0. HENCE, THE RESULT
 19311					;IN THE AC SHOULD BE 0.  THE AC IS CHECKED FOR 0.  IF C(AC=0,
 19312					;THE TEST PASSES.
 19313
 19314	041300	400 00 0 00 000000 	B6400:	SETZ			;CLEAR THE AC AND E
 19315	041301	410 00 0 00 000000 		ANDCA			;*ANDCA SHOULD PLACE 0 IN THE AC
 19316	041302	332 00 0 00 000000 		SKIPE			;IF C(AC)=0, THE TEST PASSES
 19317						STOP^
 19318	041303	254 04 0 00 041304 		HALT	.+1		;TEST FAILED IF PROGRAM HALTS HERE
 19319	041304	324 00 0 00 041305 		JUMPA	.+1		;IF TEST FAILS, CHANGE THIS INSTRUCTION (JUMPA .+1) TO
 19320									;JUMPA X (X IS THE ADDRESS OF THE FIRST INSTRUCTION
 19321									;IN THE SUBTEST) TO LOOP ON ERROR^
 19322
 19323					;**********
 19324
 19325					;THIS TEST VERIFIES THAT ANDCA CHANGES C(AC) TO THE LOGICAL AND FUNCTION
 19326					;OF THE COMPLEMENT OF C(AC) AND C(E).
 19327					;IN THIS CASE C(AC)=0 AND C(E)=-1,,-1.  HENCE, THE RESULT IN THE AC
 19328					;SHOULD BE -1,,-1.  THE AC IS CHECKED FOR ALL ONES.
 19329					;IF C(AC)=-1,,-1, THE TEST PASSES.
 19330
 19331	041305	400 00 0 00 000000 	B6500:	SETZ			;CLEAR THE AC
 19332	041306	410 00 0 00 070254 		ANDCA	[-1]		;*ANDCA SHOULD PLACE ALL ONES IN THE AC
 19333	041307	312 00 0 00 070254 		CAME	[-1]		;IF C(AC)=ALL ONES, THE TEST PASSES.
 19334						STOP^
 19335	041310	254 04 0 00 041311 		HALT	.+1		;TEST FAILED IF PROGRAM HALTS HERE
 19336	041311	324 00 0 00 041312 		JUMPA	.+1		;IF TEST FAILS, CHANGE THIS INSTRUCTION (JUMPA .+1) TO
 19337									;JUMPA X (X IS THE ADDRESS OF THE FIRST INSTRUCTION
 19338									;IN THE SUBTEST) TO LOOP ON ERROR^
 19339
 19340					;**********
DFKAA PDP-10 KL10 BASIC INSTRUCTION DIAGNOSTIC (1) VER 0,2	MACRO %53B(1254)-4 11:50 11-Nov-24 Page 45
DFKAA2	MAC	13-Jan-89 10:22		TEST OF BOOLEAN INSTRUCTIONS

 19341					;THIS TEST VERIFIES THAT ANDCA CHANGES C(AC) TO THE LOGICAL AND FUNCTION
 19342					;OF THE COMPLEMENT OF C(AC) AND C(E).
 19343					;IN THIS CASE AC=E=AC0 AND C(AC)=C(E)=-1,,-1. HENCE, THE RESULT
 19344					;IN THE AC SHOULD BE 0.  THE AC IS CHECKED FOR 0.  IF C(AC)=0,
 19345					;THE TEST PASSES.
 19346
 19347	041312	474 00 0 00 000000 	B6600:	SETO			;PRESET AC TO ALL ONES
 19348	041313	410 00 0 00 000000 		ANDCA			;*ANDCA SHOULD PLACE 0 IN THE AC
 19349	041314	332 00 0 00 000000 		SKIPE			;IF C(AC)=0, THE TEST PASSES
 19350						STOP^
 19351	041315	254 04 0 00 041316 		HALT	.+1		;TEST FAILED IF PROGRAM HALTS HERE
 19352	041316	324 00 0 00 041317 		JUMPA	.+1		;IF TEST FAILS, CHANGE THIS INSTRUCTION (JUMPA .+1) TO
 19353									;JUMPA X (X IS THE ADDRESS OF THE FIRST INSTRUCTION
 19354									;IN THE SUBTEST) TO LOOP ON ERROR^
 19355
 19356					;**********
 19357
 19358					;THIS TEST VERIFIES THAT ANDCA CHANGES C(AC) TO THE LOGICAL AND FUNCTION
 19359					;OF THE COMPLEMENT OF C(AC) AND C(E).
 19360					;IN THIS CASE C(AC)=-1,,-1 AND C(E)=0.  HENCE, THE RESULT IN THE AC
 19361					;SHOULD BE 0.  THE AC IS CHECKED FOR 0.  IF C(AC)=0,
 19362					;THE TEST PASSES.
 19363
 19364	041317	474 00 0 00 000000 	B6700:	SETO			;PRESET AC TO ALL ONES
 19365	041320	410 00 0 00 070253 		ANDCA	[0]		;*ANDCA SHOULD PLACE 0 IN THE AC
 19366	041321	332 00 0 00 000000 		SKIPE			;IF C(AC)=0, THE TEST PASSES.
 19367						STOP^
 19368	041322	254 04 0 00 041323 		HALT	.+1		;TEST FAILED IF PROGRAM HALTS HERE
 19369	041323	324 00 0 00 041324 		JUMPA	.+1		;IF TEST FAILS, CHANGE THIS INSTRUCTION (JUMPA .+1) TO
 19370									;JUMPA X (X IS THE ADDRESS OF THE FIRST INSTRUCTION
 19371									;IN THE SUBTEST) TO LOOP ON ERROR^
 19372
 19373					;**********
DFKAA PDP-10 KL10 BASIC INSTRUCTION DIAGNOSTIC (1) VER 0,2	MACRO %53B(1254)-4 11:50 11-Nov-24 Page 46
DFKAA2	MAC	13-Jan-89 10:22		TEST OF BOOLEAN INSTRUCTIONS

 19374					;THIS TEST VERIFIES THAT ANDCB CHANGES C(AC) TO THE LOGICAL AND FUNCTION
 19375					;OF THE COMPLEMENT OF C(AC) AND THE COMPLEMENT OF C(E).
 19376					;IN THIS CASE C(AC)=-1,,0 AND C(E)=0; HENCE, THE RESULT IN THE AC
 19377					;SHOULD BE 0,,-1.  THE AC IS CHECKED FOR 0,,-1.  IF C(AC)=0,,-1,
 19378					;THIS TEST PASSES.
 19379
 19380	041324	200 00 0 00 070331 	B7000:	MOVE	[XWD -1,0]	;PRELOAD AC WITH -1,,0
 19381	041325	440 00 0 00 070253 		ANDCB	[0]		;*ANDCB SHOULD PLACE 0,,-1 IN THE AC
 19382	041326	312 00 0 00 070330 		CAME	[XWD 0,-1]	;PASS IF C(AC)=0,,-1
 19383						STOP^
 19384	041327	254 04 0 00 041330 		HALT	.+1		;TEST FAILED IF PROGRAM HALTS HERE
 19385	041330	324 00 0 00 041331 		JUMPA	.+1		;IF TEST FAILS, CHANGE THIS INSTRUCTION (JUMPA .+1) TO
 19386									;JUMPA X (X IS THE ADDRESS OF THE FIRST INSTRUCTION
 19387									;IN THE SUBTEST) TO LOOP ON ERROR^
 19388
 19389					;*****     FAILURE ANALYSIS     *****
 19390					;C(AC0)		C(AC1)		FAILING SIGNAL
 19391
 19392					;0,,-E				SW: FCE
 19393					;-1,,-1				FC: AD FM - EN
 19394					;0				ET2: AR AD EN
 19395
 19396					;**********
 19397
 19398					;THIS TEST VERIFIES THAT ANDCB CHANGES C(AC) TO THE LOGICAL AND FUNCTION
 19399					;OF THE COMPLEMENT OF C(AC) AND THE COMPLEMENT OF C(E).
 19400					;IN THIS CASE C(AC)=-1,,0 AND C(E)=-1,,-1; HENCE, THE RESULT IN THE AC
 19401					;SHOULD BE 0.  THE AC IS CHECKED FOR 0.  IF C(AC)=0,
 19402					;THIS TEST PASSES.
 19403
 19404	041331	200 00 0 00 070331 	B7100:	MOVE	[XWD -1,0]	;PRELOAD AC WITH -1,,0
 19405	041332	440 00 0 00 070254 		ANDCB	[-1]		;*ANDCB SHOULD PLACE 0 IN AC
 19406	041333	332 00 0 00 000000 		SKIPE			;PASS IF C(AC)=0
 19407						STOP^
 19408	041334	254 04 0 00 041335 		HALT	.+1		;TEST FAILED IF PROGRAM HALTS HERE
 19409	041335	324 00 0 00 041336 		JUMPA	.+1		;IF TEST FAILS, CHANGE THIS INSTRUCTION (JUMPA .+1) TO
 19410									;JUMPA X (X IS THE ADDRESS OF THE FIRST INSTRUCTION
 19411									;IN THE SUBTEST) TO LOOP ON ERROR^
 19412
 19413					;*****     FAILURE ANALYSIS     *****
 19414					;C(AC0)		C(AC1)		FAILING SIGNAL
 19415
 19416					;0,,-1				FC: AD AR - EN
 19417
 19418					;**********
DFKAA PDP-10 KL10 BASIC INSTRUCTION DIAGNOSTIC (1) VER 0,2	MACRO %53B(1254)-4 11:50 11-Nov-24 Page 47
DFKAA2	MAC	13-Jan-89 10:22		TEST OF BOOLEAN INSTRUCTIONS

 19419
 19420					;THIS TEST VERIFIES THAT ANDCB CHANGES C(AC) TO THE LOGICAL AND FUNCTION OF
 19421					;THE COMPLEMENT OF C(AC) AND THE COMPLEMENT OF C(E).
 19422					;IN THIS CASE AC=E AND C(AC)=C(E)=0.  HENCE, THE RESULT IN THE AC
 19423					;SHOULD BE ALL ONES.  THE AC IS CHECKED FOR ALL ONES.  IF C(AC)=-1,,-1,
 19424					;THE TEST PASSES.
 19425
 19426	041336	400 00 0 00 000000 	B7200:	SETZ			;PRELOAD AC,E WITH ZEROES
 19427	041337	440 00 0 00 000000 		ANDCB			;*ANDCB SHOULD PLACE ALL ONES IN THE AC
 19428	041340	312 00 0 00 070254 		CAME	[-1]		;PASS IF C(AC) IS ALL ONES
 19429						STOP^
 19430	041341	254 04 0 00 041342 		HALT	.+1		;TEST FAILED IF PROGRAM HALTS HERE
 19431	041342	324 00 0 00 041343 		JUMPA	.+1		;IF TEST FAILS, CHANGE THIS INSTRUCTION (JUMPA .+1) TO
 19432									;JUMPA X (X IS THE ADDRESS OF THE FIRST INSTRUCTION
 19433									;IN THE SUBTEST) TO LOOP ON ERROR^
 19434
 19435					;**********
 19436
 19437					;THIS TEST VERIFIES THAT ANDCB CHANGES C(AC) TO THE LOGICAL AND FUNCTION OF
 19438					;THE COMPLEMENT OF C(AC) AND THE COMPLEMENT OF C(E).
 19439					;IN THIS CASE AC=E AND C(AC)=C(E)=-1,,-1.  HENCE THE RESULT IN THE AC
 19440					;SHOULD BE 0.  THE AC IS CHECKED FOR 0.  IF C(AC)=0, THE TEST PASSES.
 19441
 19442	041343	474 00 0 00 000000 	B7300:	SETO			;PRELOAD AC,E WITH ONES
 19443	041344	440 00 0 00 000000 		ANDCB			;*ANDCB SHOULD PLACE ALL ZEROS IN THE AC
 19444	041345	332 00 0 00 000000 		SKIPE			;PASS IF C(AC)=0
 19445						STOP^
 19446	041346	254 04 0 00 041347 		HALT	.+1		;TEST FAILED IF PROGRAM HALTS HERE
 19447	041347	324 00 0 00 041350 		JUMPA	.+1		;IF TEST FAILS, CHANGE THIS INSTRUCTION (JUMPA .+1) TO
 19448									;JUMPA X (X IS THE ADDRESS OF THE FIRST INSTRUCTION
 19449									;IN THE SUBTEST) TO LOOP ON ERROR^
 19450
 19451					;**********
DFKAA PDP-10 KL10 BASIC INSTRUCTION DIAGNOSTIC (1) VER 0,2	MACRO %53B(1254)-4 11:50 11-Nov-24 Page 48
DFKAA2	MAC	13-Jan-89 10:22		TEST OF BOOLEAN INSTRUCTIONS

 19452					;THIS TEST VERIFIES THAT ANDCB CHANGES C(AC) TO THE LOGICAL AND FUNCTION OF
 19453					;THE COMPLEMENT OF C(AC) AND THE COMPLEMENT OF C(E).
 19454					;IN THIS CASE, C(AC)=0 AND C(E)=-1,,-1.  HENCE, THE RESULT IN THE AC
 19455					;SHOULD BE 0.  THE AC IS CHECKED FOR 0.  IF C(AC)=0, THE TEST PASSES.
 19456
 19457	041350	400 00 0 00 000000 	B7400:	SETZ			;PRELOAD AC WITH 0
 19458	041351	440 00 0 00 070254 		ANDCB	[-1]		;*ANDCB SHOULD PLACE 0 IN THE AC
 19459	041352	302 00 0 00 000000 		CAIE			;PASS IF C(AC)=0
 19460						STOP^
 19461	041353	254 04 0 00 041354 		HALT	.+1		;TEST FAILED IF PROGRAM HALTS HERE
 19462	041354	324 00 0 00 041355 		JUMPA	.+1		;IF TEST FAILS, CHANGE THIS INSTRUCTION (JUMPA .+1) TO
 19463									;JUMPA X (X IS THE ADDRESS OF THE FIRST INSTRUCTION
 19464									;IN THE SUBTEST) TO LOOP ON ERROR^
 19465
 19466					;**********
 19467
 19468					;THIS TEST VERIFIES THAT ANDCB CHANGES C(AC) TO THE LOGICAL AND FUNCTION OF
 19469					;THE COMPLEMENT OF C(AC) AND THE COMPLEMENT OF C(E).
 19470					;IN THIS CASE, C(AC)=-1,,-1 AND C(E)=-1,,-1.  HENCE, THE RESULT IN THE AC
 19471					;SHOULD BE 0.  THE AC IS CHECKED FOR 0.  IF C(AC)=0, THE TEST PASSES.
 19472
 19473	041355	474 00 0 00 000000 	B7500:	SETO			;PRELOAD AC WITH -1,,-1
 19474	041356	440 00 0 00 070253 		ANDCB	[0]		;*ANDCB SHOULD PLACE 0 IN THE AC
 19475	041357	302 00 0 00 000000 		CAIE			;PASS IF C(AC)=0
 19476						STOP^
 19477	041360	254 04 0 00 041361 		HALT	.+1		;TEST FAILED IF PROGRAM HALTS HERE
 19478	041361	324 00 0 00 041362 		JUMPA	.+1		;IF TEST FAILS, CHANGE THIS INSTRUCTION (JUMPA .+1) TO
 19479									;JUMPA X (X IS THE ADDRESS OF THE FIRST INSTRUCTION
 19480									;IN THE SUBTEST) TO LOOP ON ERROR^
 19481
 19482					;**********
DFKAA PDP-10 KL10 BASIC INSTRUCTION DIAGNOSTIC (1) VER 0,2	MACRO %53B(1254)-4 11:50 11-Nov-24 Page 49
DFKAA2	MAC	13-Jan-89 10:22		TEST OF BOOLEAN INSTRUCTIONS

 19483					;THIS TEST VERIFIES THAT ORCA CHANGES C(AC) TO THE LOGICAL OR FUNCTION OF
 19484					;THE COMPLEMENT OF C(AC) AND C(E).
 19485					;IN THIS CASE C(AC)=-1,,0 AND C(E)=0.  HENCE, THE RESULT IN THE AC
 19486					;SHOULD BE 0,,-1.  THE AC IS CHECKED FOR 0,,-1.  IF C(AC)=0,,-1,
 19487					;THIS TEST FAILS.
 19488
 19489	041362	200 00 0 00 070331 	B7600:	MOVE	[XWD -1,0]	;PRELOAD AC WITH -1,,0
 19490	041363	454 00 0 00 070253 		ORCA	[0]		;*ORCA SHOULD PLACE 0,,-1 IN THE AC
 19491	041364	312 00 0 00 070330 		CAME	[XWD 0,-1]	;PASS IF C(AC)=0,,-1
 19492						STOP^
 19493	041365	254 04 0 00 041366 		HALT	.+1		;TEST FAILED IF PROGRAM HALTS HERE
 19494	041366	324 00 0 00 041367 		JUMPA	.+1		;IF TEST FAILS, CHANGE THIS INSTRUCTION (JUMPA .+1) TO
 19495									;JUMPA X (X IS THE ADDRESS OF THE FIRST INSTRUCTION
 19496									;IN THE SUBTEST) TO LOOP ON ERROR^
 19497
 19498					;*****     FAILURE ANALYSIS     *****
 19499					;C(AC0)		C(AC1)		FAILING SIGNAL
 19500
 19501					;-1,,0				SW: ET0
 19502					;-1,,0				FC: AD AR - EN
 19503					;0				FC: AD FM + EN
 19504					;-1,,-1				ET0: AR AD EN
 19505					;-1,,-1				ET0: AD AR - EN
 19506					;-1,,0				ET2: AR AD EN
 19507
 19508					;**********
 19509
 19510					;THIS TEST VERIFIES THAT ORCA CHANGES C(AC) TO THE LOGICAL OR FUNCTION OF
 19511					;THE COMPLEMENT OF C(AC) AND C(E).
 19512					;IN THIS CASE C(AC)=-1,,0 AND C(E)=707070,,707070.  HENCE, THE RESULT IN THE AC
 19513					;SHOULD BE 707070,,-1.  THE AC IS CHECKED FOR -1,,0.  IF C(AC)=-1,,0,
 19514					;THIS TEST FAILS.
 19515
 19516	041367	200 00 0 00 070331 	B10000:	MOVE	[XWD -1,0]	;PRELOAD AC WITH -1,,0
 19517	041370	454 00 0 00 070332 		ORCA	[707070707070]	;*ORCA SHOULD PLACE 707070,,-1 IN THE AC
 19518	041371	312 00 0 00 070550 		CAME	[XWD 707070,-1]	;PASS IF C(AC)=707070,,-1
 19519						STOP^
 19520	041372	254 04 0 00 041373 		HALT	.+1		;TEST FAILED IF PROGRAM HALTS HERE
 19521	041373	324 00 0 00 041374 		JUMPA	.+1		;IF TEST FAILS, CHANGE THIS INSTRUCTION (JUMPA .+1) TO
 19522									;JUMPA X (X IS THE ADDRESS OF THE FIRST INSTRUCTION
 19523									;IN THE SUBTEST) TO LOOP ON ERROR^
 19524
 19525					;*****     FAILURE ANALYSIS     *****
 19526					;C(AC0)		C(AC1)		FAILING SIGNAL
 19527
 19528					;0,,-1				SW: FCE
 19529
 19530					;**********
DFKAA PDP-10 KL10 BASIC INSTRUCTION DIAGNOSTIC (1) VER 0,2	MACRO %53B(1254)-4 11:50 11-Nov-24 Page 50
DFKAA2	MAC	13-Jan-89 10:22		TEST OF BOOLEAN INSTRUCTIONS

 19531					;THIS TEST VERIFIES THAT ORCA CHANGES C(AC) TO THE LOGICAL OR FUNCTION OF
 19532					;THE COMPLEMENT OF C(AC) AND C(E).
 19533					;IN THIS CASE, AC=E AND C(AC)=C(E)=0.  HENCE, THE RESULT IN THE AC
 19534					;SHOULD BE -1,,-1.  THE AC IS CHECKED FOR -1,,-1.  IF C(AC)=-1,,-1, THE TEST PASSES.
 19535
 19536	041374	400 00 0 00 000000 	B10100:	SETZ			;PRELOAD AC,E WITH 0
 19537	041375	454 00 0 00 000000 		ORCA			;*ORCA SHOULD PLACE -1,,-1 IN THE AC
 19538	041376	312 00 0 00 070254 		CAME	[-1]		;PASS IF C(AC)=-1,,-1
 19539						STOP^
 19540	041377	254 04 0 00 041400 		HALT	.+1		;TEST FAILED IF PROGRAM HALTS HERE
 19541	041400	324 00 0 00 041401 		JUMPA	.+1		;IF TEST FAILS, CHANGE THIS INSTRUCTION (JUMPA .+1) TO
 19542									;JUMPA X (X IS THE ADDRESS OF THE FIRST INSTRUCTION
 19543									;IN THE SUBTEST) TO LOOP ON ERROR^
 19544
 19545					;**********
 19546
 19547					;THIS TEST VERIFIES THAT ORCA CHANGES C(AC) TO THE LOGICAL OF FUNCTION OF
 19548					;THE COMPLEMENT OF C(AC) AND C(E).
 19549					;IN THIS CASE, AC=E AND C(AC)=C(E)=-1,,-1.  HENCE, THE RESULT IN THE AC
 19550					;SHOULD BE -1,,-1.  THE AC IS CHECKED FOR -1,,-1.  IF C(AC)=-1,,-1, THE TEST PASSES.
 19551
 19552	041401	474 00 0 00 000000 	B10200:	SETO			;PRELOAD AC,E WITH 0
 19553	041402	454 00 0 00 000000 		ORCA			;*ORCA SHOULD PLACE -1,,-1 IN THE AC
 19554	041403	312 00 0 00 070254 		CAME	[-1]		;PASS IF C(AC)=-1,,-1
 19555						STOP^
 19556	041404	254 04 0 00 041405 		HALT	.+1		;TEST FAILED IF PROGRAM HALTS HERE
 19557	041405	324 00 0 00 041406 		JUMPA	.+1		;IF TEST FAILS, CHANGE THIS INSTRUCTION (JUMPA .+1) TO
 19558									;JUMPA X (X IS THE ADDRESS OF THE FIRST INSTRUCTION
 19559									;IN THE SUBTEST) TO LOOP ON ERROR^
 19560
 19561					;**********
DFKAA PDP-10 KL10 BASIC INSTRUCTION DIAGNOSTIC (1) VER 0,2	MACRO %53B(1254)-4 11:50 11-Nov-24 Page 51
DFKAA2	MAC	13-Jan-89 10:22		TEST OF BOOLEAN INSTRUCTIONS

 19562					;THIS TEST VERIFIES THAT ORCA CHANGES C(AC) TO THE LOGICAL OR FUNCTION OF
 19563					;THE COMPLEMENT OF C(AC) AND C(E).
 19564					;IN THIS CASE C(AC)=0 AND C(E)=-1,,-1.  HENCE, THE RESUTL IN THE AC
 19565					;SHOULD BE -1,,-1.  THE AC IS CHECKED FOR -1,,-1.  IF C(AC)=-1,,-1, THE TEST PASSES.
 19566
 19567	041406	400 00 0 00 000000 	B10300:	SETZ			;PRELOAD AC WITH 0
 19568	041407	454 00 0 00 070254 		ORCA	[-1]		;*ORCA SHOULD PLACE -1,,-1 IN THE AC
 19569	041410	312 00 0 00 070254 		CAME	[-1]		;PASS IF C(AC)=-1,,-1
 19570						STOP^
 19571	041411	254 04 0 00 041412 		HALT	.+1		;TEST FAILED IF PROGRAM HALTS HERE
 19572	041412	324 00 0 00 041413 		JUMPA	.+1		;IF TEST FAILS, CHANGE THIS INSTRUCTION (JUMPA .+1) TO
 19573									;JUMPA X (X IS THE ADDRESS OF THE FIRST INSTRUCTION
 19574									;IN THE SUBTEST) TO LOOP ON ERROR^
 19575
 19576					;**********
 19577
 19578					;THIS TEST VERIFIES THAT ORCA CHANGES C(AC) TO THE LOGICAL OR FUNCTION OF
 19579					;THE COMPLEMENT OF C(AC) AND C(E).
 19580					;IN THIS CASE C(AC)=-1,,-1 AND C(E)=0.  HENCE, THE RESULT IN THE AC
 19581					;SHOULD BE 0.  THE AC IS CHECKED FOR 0.  IF C(AC)=0, THE TEST PASSES.
 19582
 19583	041413	474 00 0 00 000000 	B10400:	SETO			;PRELOAD AC WITH -1,,-1
 19584	041414	454 00 0 00 070253 		ORCA	[0]		;*ORCA SHOULD PLACE 0 IN THE AC
 19585	041415	302 00 0 00 000000 		CAIE			;PASS IF C(AC)=0
 19586						STOP^
 19587	041416	254 04 0 00 041417 		HALT	.+1		;TEST FAILED IF PROGRAM HALTS HERE
 19588	041417	324 00 0 00 041420 		JUMPA	.+1		;IF TEST FAILS, CHANGE THIS INSTRUCTION (JUMPA .+1) TO
 19589									;JUMPA X (X IS THE ADDRESS OF THE FIRST INSTRUCTION
 19590									;IN THE SUBTEST) TO LOOP ON ERROR^
 19591
 19592					;**********
DFKAA PDP-10 KL10 BASIC INSTRUCTION DIAGNOSTIC (1) VER 0,2	MACRO %53B(1254)-4 11:50 11-Nov-24 Page 52
DFKAA2	MAC	13-Jan-89 10:22		TEST OF BOOLEAN INSTRUCTIONS

 19593					;THIS TEST VERIFIES THAT ORCB CHANGES C(AC) TO THE LOGICAL OR FUNCTION OF
 19594					;THE COMPLEMENT OF C(AC) AND THE COMPLEMENT OF C(E)
 19595					;IN THIS CASE, C(AC)=-1,,0 AND C(E)=707070,,707070.  HENCE THE RESULT
 19596					;IN THE AC 070707,,-1.  THE AC IS CHECKED FOR 070707,,-1.  IF C(AC)=070707,,-1,
 19597					;THIS TEST PASSES
 19598
 19599	041420	200 00 0 00 070331 	B10500:	MOVE	[XWD -1,0]	;PRELOAD THE AC WITH -1,,0
 19600	041421	470 00 0 00 070332 		ORCB	[707070707070]	;*ORCB SHOULD PLACE 070707,,-1 IN THE AC
 19601	041422	312 00 0 00 070551 		CAME	[XWD 070707,-1]	;PASS IF C(AC)=070707,,-1
 19602						STOP^
 19603	041423	254 04 0 00 041424 		HALT	.+1		;TEST FAILED IF PROGRAM HALTS HERE
 19604	041424	324 00 0 00 041425 		JUMPA	.+1		;IF TEST FAILS, CHANGE THIS INSTRUCTION (JUMPA .+1) TO
 19605									;JUMPA X (X IS THE ADDRESS OF THE FIRST INSTRUCTION
 19606									;IN THE SUBTEST) TO LOOP ON ERROR^
 19607
 19608					;*****     FAILURE ANALYSIS     *****
 19609					;C(AC0)		C(AC1)		FAILING SIGNAL
 19610
 19611					;-1,,-1				SW: FCE
 19612					;707070,,0			SW: ET0
 19613					;0,,-1				FC: AD AR + EN
 19614					;070707,,070707			FC: AD FM + EN
 19615					;070707,,070707			ET0: AR AD EN
 19616					;-1,,-1				ET0: AD AR - EN
 19617					;707070,,0			ET2: AR AD EN
 19618
 19619					;**********
 19620
 19621					;THIS TEST VERIFIES THAT ORCB CHANGES C(AC) TO THE LOGICAL OR FUNCTION OF
 19622					;THE COMPLEMENT OF C(AC) AND THE COMPLEMENT OF C(E)
 19623					;IN THIS CASE, C(AC)=0,,-1 AND C(E)=-1,,-1.  HENCE THE RESULT
 19624					;IN THE AC -1,,0.  THE AC IS CHECKED FOR -1,,0.  IF C(AC)=-1,,0,
 19625					;THIS TEST PASSES
 19626
 19627	041425	200 00 0 00 070330 	B10700:	MOVE	[XWD 0,-1]	;PRELOAD THE AC WITH 0,,-1
 19628	041426	470 00 0 00 070254 		ORCB	[-1]		;*ORCB SHOULD PLACE -1,,0 IN THE AC
 19629	041427	312 00 0 00 070331 		CAME	[XWD -1,0]	;PASS IF C(AC)=-1,,0
 19630						STOP^
 19631	041430	254 04 0 00 041431 		HALT	.+1		;TEST FAILED IF PROGRAM HALTS HERE
 19632	041431	324 00 0 00 041432 		JUMPA	.+1		;IF TEST FAILS, CHANGE THIS INSTRUCTION (JUMPA .+1) TO
 19633									;JUMPA X (X IS THE ADDRESS OF THE FIRST INSTRUCTION
 19634									;IN THE SUBTEST) TO LOOP ON ERROR^
 19635
 19636					;**********
DFKAA PDP-10 KL10 BASIC INSTRUCTION DIAGNOSTIC (1) VER 0,2	MACRO %53B(1254)-4 11:50 11-Nov-24 Page 53
DFKAA2	MAC	13-Jan-89 10:22		TEST OF BOOLEAN INSTRUCTIONS

 19637					;THIS TEST VERIFIES THAT ORCB CHANGES C(AC) TO THE LOGICAL OR FUNCTION OF
 19638					;THE COMPLEMENT OF C(AC) AND THE COMPLEMENT OF C(E).
 19639					;IN THIS CASE, C(AC)=0 AND C(E)=0.  HENCE, THE RESULT IN THE AC
 19640					;SHOULD BE -1,,-1.  THE AC IS CHECKED FOR -1,,-1.  IF C(AC)-1,,-1, THE TEST PASSES
 19641
 19642	041432	400 00 0 00 000000 	B11000:	SETZ			;PRELOAD AC WITH 0
 19643	041433	470 00 0 00 070253 		ORCB	[0]		;*ORCB SHOULD PLACE -1,,-1 IN THE AC
 19644	041434	312 00 0 00 070254 		CAME	[-1]		;PASS IF C(AC)=-1,,-1
 19645						STOP^
 19646	041435	254 04 0 00 041436 		HALT	.+1		;TEST FAILED IF PROGRAM HALTS HERE
 19647	041436	324 00 0 00 041437 		JUMPA	.+1		;IF TEST FAILS, CHANGE THIS INSTRUCTION (JUMPA .+1) TO
 19648									;JUMPA X (X IS THE ADDRESS OF THE FIRST INSTRUCTION
 19649									;IN THE SUBTEST) TO LOOP ON ERROR^
 19650
 19651					;**********
 19652
 19653					;THIS TEST VERIFIES THAT ORCB CHANGES C(AC) TO THE LOGICAL OR FUNCTION OF
 19654					;THE COMPLEMENT OF C(AC) AND THE COMPLEMENT OF C(E).
 19655					;IN THIS CASE, C(AC)=-1,,-1 AND C(E)=-1,,-1.  HENCE, THE RESULT IN THE AC
 19656					;SHOULD BE 0.  THE AC IS CHECKED FOR 0.  IF C(AC)=0, THE TEST PASSES
 19657
 19658	041437	474 00 0 00 000000 	B11100:	SETO			;PRELOAD AC WITH -1,,-1
 19659	041440	470 00 0 00 070254 		ORCB	[-1]		;*ORCB SHOULD PLACE 0 IN THE AC
 19660	041441	302 00 0 00 000000 		CAIE			;PASS IF C(AC)=0
 19661						STOP^
 19662	041442	254 04 0 00 041443 		HALT	.+1		;TEST FAILED IF PROGRAM HALTS HERE
 19663	041443	324 00 0 00 041444 		JUMPA	.+1		;IF TEST FAILS, CHANGE THIS INSTRUCTION (JUMPA .+1) TO
 19664									;JUMPA X (X IS THE ADDRESS OF THE FIRST INSTRUCTION
 19665									;IN THE SUBTEST) TO LOOP ON ERROR^
 19666
 19667					;**********
DFKAA PDP-10 KL10 BASIC INSTRUCTION DIAGNOSTIC (1) VER 0,2	MACRO %53B(1254)-4 11:50 11-Nov-24 Page 54
DFKAA2	MAC	13-Jan-89 10:22		TEST OF BOOLEAN INSTRUCTIONS

 19668					;THIS TEST VERIFIES THAT ORCB CHANGES C(AC) TO THE LOGICAL OR FUNCTION OF
 19669					;THE COMPLEMENT OF C(AC) AND THE COMPLEMENT OF C(E)
 19670					;IN THIS CASE, C(AC)=0 AND C(E)=-1,,-1.  HENCE, THE RESULT IN THE AC
 19671					;SHOULD BE -1,,-1.  THE AC IS CHECKED FOR -1,,-1.  IF C(AC)=-1,,-1, THE TEST PASSES
 19672
 19673	041444	400 00 0 00 000000 	B11200:	SETZ			;PRELOAD AC WITH 0
 19674	041445	470 00 0 00 070254 		ORCB	[-1]		;*ORCB SHOULD PLACE -1,,-1 IN THE AC
 19675	041446	312 00 0 00 070254 		CAME	[-1]		;PASS IF C(AC)=-1,,-1
 19676						STOP^
 19677	041447	254 04 0 00 041450 		HALT	.+1		;TEST FAILED IF PROGRAM HALTS HERE
 19678	041450	324 00 0 00 041451 		JUMPA	.+1		;IF TEST FAILS, CHANGE THIS INSTRUCTION (JUMPA .+1) TO
 19679									;JUMPA X (X IS THE ADDRESS OF THE FIRST INSTRUCTION
 19680									;IN THE SUBTEST) TO LOOP ON ERROR^
 19681
 19682					;**********
 19683
 19684					;THIS TEST VERIFIES THAT ORCB CHANGES C(AC) TO THE LOGICAL OR FUNCTION OF
 19685					;THE COMPLEMENT OF C(AC) AND THE COMPLEMENT OF C(E).
 19686					;IN THIS CASE, C(AC)=-1,,-1 AND C(E)=0.  HENCE, THE RESULT IN THE AC
 19687					;SHOULD BE -1,,-1.  THE AC IS CHECKED FOR -1,,-1.  IF C(AC)=-1,,-1, THE TEST PASSES
 19688
 19689	041451	474 00 0 00 000000 	B11300:	SETO			;PRELOAD AC WITH -1,,-1
 19690	041452	470 00 0 00 070253 		ORCB	[0]		;*ORCB SHOULD PLACE -1,,-1 IN THE AC
 19691	041453	312 00 0 00 070254 		CAME	[-1]		;PASS IF C(AC)=-1,,-1
 19692						STOP^
 19693	041454	254 04 0 00 041455 		HALT	.+1		;TEST FAILED IF PROGRAM HALTS HERE
 19694	041455	324 00 0 00 041456 		JUMPA	.+1		;IF TEST FAILS, CHANGE THIS INSTRUCTION (JUMPA .+1) TO
 19695									;JUMPA X (X IS THE ADDRESS OF THE FIRST INSTRUCTION
 19696									;IN THE SUBTEST) TO LOOP ON ERROR^
 19697
 19698					;**********
DFKAA PDP-10 KL10 BASIC INSTRUCTION DIAGNOSTIC (1) VER 0,2	MACRO %53B(1254)-4 11:50 11-Nov-24 Page 55
DFKAA2	MAC	13-Jan-89 10:22		TEST OF MOVN INSTRUCTION

 19699					SUBTTL	TEST OF MOVN INSTRUCTION
 19700
 19701					;**********
 19702
 19703					;THIS TEST VERIFIES THAT MOVN PLACES THE NEGATIVE OF C(E) INTO THE AC
 19704					;IN THIS CASE C(E)=0.  HENCE, THE RESULT IN THE AC SHOULD BE 0.
 19705					;THE AC IS CHECKED FOR 0, THE NEGATIVE OF 0.  IF C(AC)=0, THIS TEST PASSES
 19706
 19707	041456	474 00 0 00 000000 	B11500:	SETO			;PRELOAD AC WITH -1,,-1
 19708	041457	210 00 0 00 070253 		MOVN	[0]		;*MOVN SHOULD PLACE 0 INTO THE AC
 19709	041460	332 00 0 00 000000 		SKIPE			;PASS IF C(AC)=0
 19710						STOP^
 19711	041461	254 04 0 00 041462 		HALT	.+1		;TEST FAILED IF PROGRAM HALTS HERE
 19712	041462	324 00 0 00 041463 		JUMPA	.+1		;IF TEST FAILS, CHANGE THIS INSTRUCTION (JUMPA .+1) TO
 19713									;JUMPA X (X IS THE ADDRESS OF THE FIRST INSTRUCTION
 19714									;IN THE SUBTEST) TO LOOP ON ERROR^
 19715
 19716					;*****     FAILURE ANALYSIS     *****
 19717					;C(AC0)		C(AC1)		FAILING SIGNAL
 19718
 19719					;E				SW: FCE
 19720					;-1,,-1				FC: AD FM + EN
 19721					;-1,,-1				FC: AD CRY 36
 19722
 19723					;**********
 19724
 19725					;THIS TEST VERIFIES THAT MOVN PLACES THE NEGATIVE OF C(E) INTO THE AC.
 19726					;IN THIS CASE C(E)=-1,,0.  HENCE, THE RESULT IN THE AC SHOULD BE 1,,0
 19727					;THE AC IS CHECKED FOR 1,,0.  IF C(AC)=1,,0, THE TEST PASSES
 19728
 19729	041463	200 00 0 00 070331 	B11600:	MOVE	[XWD -1,0]	;PRELOAD AC,E WITH -1,,0
 19730	041464	210 00 0 00 000000 		MOVN			;*MOVN SHOULD PLACE 1,,0 INTO THE AC
 19731	041465	312 00 0 00 070307 		CAME	[XWD 1,0]	;PASS IF C(AC)=1,,0
 19732						STOP^
 19733	041466	254 04 0 00 041467 		HALT	.+1		;TEST FAILED IF PROGRAM HALTS HERE
 19734	041467	324 00 0 00 041470 		JUMPA	.+1		;IF TEST FAILS, CHANGE THIS INSTRUCTION (JUMPA .+1) TO
 19735									;JUMPA X (X IS THE ADDRESS OF THE FIRST INSTRUCTION
 19736									;IN THE SUBTEST) TO LOOP ON ERROR^
 19737
 19738					;*****     FAILURE ANALYSIS     *****
 19739					;C(AC0)		C(AC1)		FAILING SIGNAL
 19740
 19741					;0				FC: AD ADD
 19742					;0				FC: AD FM - EN
 19743					;0				FC: AD AR - EN
 19744					;-1,,0				ET2: AR AD EN
 19745
 19746					;**********
DFKAA PDP-10 KL10 BASIC INSTRUCTION DIAGNOSTIC (1) VER 0,2	MACRO %53B(1254)-4 11:50 11-Nov-24 Page 56
DFKAA2	MAC	13-Jan-89 10:22		TEST OF MOVN INSTRUCTION

 19747					;THIS TEST VERIFIES THAT MOVN PLACES THE NEGATIVE OF C(E) INTO THE AC.
 19748					;IN THIS CASE C(E) =707070,,707070.  HENCE, THE RESULT IN THE AC SHOULD BE
 19749					;070707,,070710.  THE AC IS CHECKED FOR 070707,,070710.  IF C(AC)=
 19750					;070707,,070710, THE TEST PASSES
 19751
 19752	041470	400 00 0 00 000000 	B11700:	SETZ			;PRELOAD AC WITH 0
 19753	041471	210 00 0 00 070332 		MOVN	[707070707070]	;*MOVN SHOULD PLACE 070707,,070710 INTO THE AC
 19754	041472	312 00 0 00 070552 		CAME	[070707070710]	;PASS IF C(AC) 070707,,070710
 19755						STOP^
 19756	041473	254 04 0 00 041474 		HALT	.+1		;TEST FAILED IF PROGRAM HALTS HERE
 19757	041474	324 00 0 00 041475 		JUMPA	.+1		;IF TEST FAILS, CHANGE THIS INSTRUCTION (JUMPA .+1) TO
 19758									;JUMPA X (X IS THE ADDRESS OF THE FIRST INSTRUCTION
 19759									;IN THE SUBTEST) TO LOOP ON ERROR^
 19760
 19761					;**********
 19762
 19763					;THIS TEST VERIFIES THAT MOVN PLACES THE NEGATIVE OF C(E) INTO THE AC
 19764					;IN THIS CASE C(E)=-1,,-1.  HENCE, THE RESULT IN THE AC SHOULD BE 0,,1.
 19765					;THE AC IS CHECKED FOR 0,,1, THE NEGATIVE OF -1,,-1.  IF C(AC)=1, THIS TEST PASSES
 19766
 19767	041475	210 00 0 00 070254 	B12100:	MOVN	[-1]		;*MOVN SHOULD PLACE 0,,1 INTO THE AC
 19768	041476	302 00 0 00 000001 		CAIE	1		;PASS OF C(AC)=0,,1
 19769						STOP^
 19770	041477	254 04 0 00 041500 		HALT	.+1		;TEST FAILED IF PROGRAM HALTS HERE
 19771	041500	324 00 0 00 041501 		JUMPA	.+1		;IF TEST FAILS, CHANGE THIS INSTRUCTION (JUMPA .+1) TO
 19772									;JUMPA X (X IS THE ADDRESS OF THE FIRST INSTRUCTION
 19773									;IN THE SUBTEST) TO LOOP ON ERROR^
 19774
 19775					;**********
DFKAA PDP-10 KL10 BASIC INSTRUCTION DIAGNOSTIC (1) VER 0,2	MACRO %53B(1254)-4 11:50 11-Nov-24 Page 57
DFKAA2	MAC	13-Jan-89 10:22		TEST OF MOVM INSTRUCTION

 19776					SUBTTL	TEST OF MOVM INSTRUCTION
 19777
 19778					;**********
 19779
 19780					;THIS TEST VERIFIES THAT MOVM PLACES THE MAGNITUDE OF C(E) INTO THE AC.
 19781					;IN THIS CASE, C(E)=0.  HENCE, THE RESULT IN THE AC SHOULD BE 0.
 19782					;THE AC IS CHECKED FOR 0.  IF C(AC)=0, THIS TEST PASSES
 19783
 19784	041501	474 00 0 00 000000 	B12200:	SETO			;PRELOAD AC WITH -1,,-1
 19785	041502	214 00 0 00 070253 		MOVM	[0]		;*MOVM SHOULD PLACE 0 INTO THE AC
 19786	041503	332 00 0 00 000000 		SKIPE			;PASS IF C(AC)=0
 19787						STOP^
 19788	041504	254 04 0 00 041505 		HALT	.+1		;TEST FAILED IF PROGRAM HALTS HERE
 19789	041505	324 00 0 00 041506 		JUMPA	.+1		;IF TEST FAILS, CHANGE THIS INSTRUCTION (JUMPA .+1) TO
 19790									;JUMPA X (X IS THE ADDRESS OF THE FIRST INSTRUCTION
 19791									;IN THE SUBTEST) TO LOOP ON ERROR^
 19792
 19793					;*****     FAILURE ANALYSIS     *****
 19794					;C(AC0)		C(AC1)		FAILING SIGNAL
 19795
 19796					;E				SW: FCE
 19797
 19798					;**********
 19799
 19800					;THIS TEST VERIFIES THAT MOVM PLACES THE MAGNITUDE OF C(E) INTO THE AC
 19801					;IN THIS CASE, C(E)=-1,,-1.  HENCE, THE RESULT IN THE AC SHOULD BE 0,,1.
 19802					;THE AC IS CHECKED FOR 0,,1.  IF C(AC)=0,,1, THIS TEST PASSES
 19803
 19804	041506	400 00 0 00 000000 	B12300:	SETZ			;PRELOAD AC WITH 0
 19805	041507	214 00 0 00 070254 		MOVM	[-1]		;*MOVM SHOULD PLACE 0,,1 INTO THE AC
 19806	041510	302 00 0 00 000001 		CAIE	1		;PASS IF C(AC)=0,,1
 19807						STOP^
 19808	041511	254 04 0 00 041512 		HALT	.+1		;TEST FAILED IF PROGRAM HALTS HERE
 19809	041512	324 00 0 00 041513 		JUMPA	.+1		;IF TEST FAILS, CHANGE THIS INSTRUCTION (JUMPA .+1) TO
 19810									;JUMPA X (X IS THE ADDRESS OF THE FIRST INSTRUCTION
 19811									;IN THE SUBTEST) TO LOOP ON ERROR^
 19812
 19813					;*****     FAILURE ANALYSIS     *****
 19814					;C(AC0)		C(AC1)		FAILING SIGNAL
 19815
 19816					;0				FC: AD FM + EN
 19817					;0				FC: AD ADD
 19818					;0				FC: AD CRY 36
 19819					;0				FC: AD AR - EN
 19820					;-1,,-1				ET2: AR AD EN
 19821
 19822					;**********
DFKAA PDP-10 KL10 BASIC INSTRUCTION DIAGNOSTIC (1) VER 0,2	MACRO %53B(1254)-4 11:50 11-Nov-24 Page 58
DFKAA2	MAC	13-Jan-89 10:22		TEST OF MOVM INSTRUCTION

 19823					;THIS TEST VERIFIES THAT MOVM PLACES THE MAGNITUDE OF C(E) INTO THE AC
 19824					;IN THIS CASE, C(E)=400000,,0.  HENCE, THE RESULT IN THE AC SHOULD BE
 19825					;400000,,0.  THE AC IS CHECKED FOR 400000,,0.
 19826					;IF C(AC)=400000,,0, THIS TEST PASSES.
 19827
 19828	041513	400 00 0 00 000000 	B12400:	SETZ
 19829	041514	214 00 0 00 070256 		MOVM	[XWD 400000,0]	;*MOVM SHOULD PLACE 400000,,0 INTO THE AC
 19830	041515	312 00 0 00 070256 		CAME	[XWD 400000,0]	;PASS IF C(AC)=400000,,0
 19831						STOP^
 19832	041516	254 04 0 00 041517 		HALT	.+1		;TEST FAILED IF PROGRAM HALTS HERE
 19833	041517	324 00 0 00 041520 		JUMPA	.+1		;IF TEST FAILS, CHANGE THIS INSTRUCTION (JUMPA .+1) TO
 19834									;JUMPA X (X IS THE ADDRESS OF THE FIRST INSTRUCTION
 19835									;IN THE SUBTEST) TO LOOP ON ERROR^
 19836
 19837					;**********
 19838
 19839					;THIS TEST VERIFIES THAT MOVM PLACES THE MAGNITUDE OF C(E) INTO THE AC
 19840					;IN THIS CASE, C(E)=377777,,-1.  HENCE, THE RESULT IN THE AC SHOULD BE
 19841					;377777,,-1.  THE AC IS CHECKED FOR 377777,,-1.
 19842					;IF C(AC)=377777,,-1, THIS TEST PASSES.
 19843
 19844	041520	400 00 0 00 000000 	B12500:	SETZ			;PRELOAD AC WITH 0
 19845	041521	214 00 0 00 070255 		MOVM	[XWD 377777,-1]	;*MOVM SHOULD PLACE 377777,,-1 INTO THE AC
 19846	041522	312 00 0 00 070255 		CAME	[XWD 377777,-1]	;PASS IF C(AC)=377777,,-1
 19847						STOP^
 19848	041523	254 04 0 00 041524 		HALT	.+1		;TEST FAILED IF PROGRAM HALTS HERE
 19849	041524	324 00 0 00 041525 		JUMPA	.+1		;IF TEST FAILS, CHANGE THIS INSTRUCTION (JUMPA .+1) TO
 19850									;JUMPA X (X IS THE ADDRESS OF THE FIRST INSTRUCTION
 19851									;IN THE SUBTEST) TO LOOP ON ERROR^
 19852
 19853					;**********
DFKAA PDP-10 KL10 BASIC INSTRUCTION DIAGNOSTIC (1) VER 0,2	MACRO %53B(1254)-4 11:50 11-Nov-24 Page 1
DFKAA3	MAC	13-Jan-89 10:22		TEST OF LOGICAL TEST INSTRUCTIONS

 19854					SUBTTL	TEST OF LOGICAL TEST INSTRUCTIONS
 19855
 19856					;**********
 19857
 19858					;THIS TEST VERIFIES THAT TDN DOES NOT MODIFY THE AC BECAUSE
 19859					;TDN IS A NO-OP
 19860					;FIRST, THE AC IS PRELOADED WITH 0.  THEN,
 19861					;TDN IS EXECUTED.  THE AC IS THEN CHECKED FOR
 19862					;NO MODIFICATION.  IF C(AC) IS UNALTERED, THE TEST PASSES
 19863	041525	400 00 0 00 000000 	B12600:	SETZ			;PRELOAD AC WITH 0
 19864	041526	610 00 0 00 070254 		TDN	[-1]		;*TDN IS A NO-OP
 19865	041527	310 00 0 00 000000 		CAM			;CAM IS A NO-OP.  IT IS HERE IN CASE TDN SKIPS
 19866	041530	302 00 0 00 000000 		CAIE			;PASS TEST IF C(AC) IS UNMODIFIED BY TDN
 19867						STOP^
 19868	041531	254 04 0 00 041532 		HALT	.+1		;TEST FAILED IF PROGRAM HALTS HERE
 19869	041532	324 00 0 00 041533 		JUMPA	.+1		;IF TEST FAILS, CHANGE THIS INSTRUCTION (JUMPA .+1) TO
 19870									;JUMPA X (X IS THE ADDRESS OF THE FIRST INSTRUCTION
 19871									;IN THE SUBTEST) TO LOOP ON ERROR^
 19872
 19873					;*****     FAILURE ANALYSIS     *****
 19874					;C(AC0)		C(AC1)		FAILING SIGNAL
 19875
 19876					;-1,,-1				FC: AD FM + EN
 19877
 19878					;**********
 19879
 19880					;THIS TEST VERIFIES THAT TSN DOES NOT MODIFY THE AC BECAUSE
 19881					;TSN IS A NO-OP
 19882					;FIRST, THE AC IS PRELOADED WITH -1.  THEN,
 19883					;TSN IS EXECUTED.  THE AC IS THEN CHECKED FOR
 19884					;NO MODIFICATION.  IF C(AC) IS UNALTERED, THIS TEST PASSES
 19885
 19886	041533	474 00 0 00 000000 	B12700:	SETO			;PRELOAD AC WITH -1,,-1
 19887	041534	611 00 0 00 070331 		TSN	[XWD -1,0]	;*TSN IS A NO-OP
 19888	041535	310 00 0 00 000000 		CAM			;CAM IS A NO-OP.  IT IS HERE IN CASE TSN SKIPS
 19889	041536	312 00 0 00 070254 		CAME	[-1]		;PASS TEST IF C(AC) IS UNMODIFIED BY TSN
 19890						STOP^
 19891	041537	254 04 0 00 041540 		HALT	.+1		;TEST FAILED IF PROGRAM HALTS HERE
 19892	041540	324 00 0 00 041541 		JUMPA	.+1		;IF TEST FAILS, CHANGE THIS INSTRUCTION (JUMPA .+1) TO
 19893									;JUMPA X (X IS THE ADDRESS OF THE FIRST INSTRUCTION
 19894									;IN THE SUBTEST) TO LOOP ON ERROR^
 19895
 19896					;**********
DFKAA PDP-10 KL10 BASIC INSTRUCTION DIAGNOSTIC (1) VER 0,2	MACRO %53B(1254)-4 11:50 11-Nov-24 Page 2
DFKAA3	MAC	13-Jan-89 10:22		TEST OF LOGICAL TEST INSTRUCTIONS

 19897					;THIS TEST VERIFIES THAT TRN DOE NOT MODIFY THE AC BECAUSE
 19898					;TRN IS A NO-OP.
 19899					;FIRST, THE AC IS PRELOADED WITH 0.  THEN,
 19900					;TRN IS EXECUTED.  THE AC IS THEN CHECKED FOR
 19901					;NO MODIFICATION.  IF C(AC) IS UNALTERED, THIS TEST PASSES
 19902
 19903	041541	400 00 0 00 000000 	B13000:	SETZ			;PRELOAD AC WITH 0
 19904	041542	600 00 0 00 123456 		TRN	123456		;*TRN IS A NO-OP
 19905	041543	310 00 0 00 000000 		CAM			;CAM IS A NO-OP.  IT IS HERE IN CASE TRN SKIPS
 19906	041544	302 00 0 00 000000 		CAIE			;PASS TEST IF C(AC) IS UNMODIFIED BY TRN
 19907						STOP^
 19908	041545	254 04 0 00 041546 		HALT	.+1		;TEST FAILED IF PROGRAM HALTS HERE
 19909	041546	324 00 0 00 041547 		JUMPA	.+1		;IF TEST FAILS, CHANGE THIS INSTRUCTION (JUMPA .+1) TO
 19910									;JUMPA X (X IS THE ADDRESS OF THE FIRST INSTRUCTION
 19911									;IN THE SUBTEST) TO LOOP ON ERROR^
 19912
 19913					;**********
 19914
 19915					;THIS TEST VERIFIES THAT TLN DOES NOT MODIFY THE AC BECAUSE
 19916					;TLN IS A NO-OP.
 19917					;FIRST,THE AC IS PRELOADED WITH -1,,-1.  THEN,
 19918					;TRN IS EXECUTED.  THE AC IS THEN CHECKED FOR
 19919					;NO MODIFICATION.  IF C(AC) IS UNALTERED, THIS TEST PASSES
 19920
 19921	041547	474 00 0 00 000000 	B13100:	SETO			;PRELOAD AC WITH -1,,-1
 19922	041550	601 00 0 00 123456 		TLN	123456		;*TRN IS A NO-OP
 19923	041551	310 00 0 00 000000 		CAM			;CAM IS A NO-OP.  IT IS HERE IN CASE TRN SKIPS
 19924	041552	312 00 0 00 000000 		CAME			;PASS TEST IF C(AC) IS UNMODIFIED BY TRN
 19925						STOP^
 19926	041553	254 04 0 00 041554 		HALT	.+1		;TEST FAILED IF PROGRAM HALTS HERE
 19927	041554	324 00 0 00 041555 		JUMPA	.+1		;IF TEST FAILS, CHANGE THIS INSTRUCTION (JUMPA .+1) TO
 19928									;JUMPA X (X IS THE ADDRESS OF THE FIRST INSTRUCTION
 19929									;IN THE SUBTEST) TO LOOP ON ERROR^
 19930
 19931					;**********
DFKAA PDP-10 KL10 BASIC INSTRUCTION DIAGNOSTIC (1) VER 0,2	MACRO %53B(1254)-4 11:50 11-Nov-24 Page 3
DFKAA3	MAC	13-Jan-89 10:22		TEST OF LOGICAL TEST INSTRUCTIONS

 19932					;THIS TEST VERIFIES THAT TDO PLACES ONES IN THE BITS OF THE AC
 19933					;WHICH ARE MASKED BY C(E) AND DOES NOT AFFECT THE UNMASKED BITS OF THE AC.
 19934					;IN THIS CASE, C(AC)=0 AND C(E)=-1,,-1.  HENCE, THE RESULT IN THE AC SHOULD BE -1,,-1.
 19935					;THE AC IS CHECKED FOR -1,,-1.  IF C(AC) -1,,-1, THE TEST PASSES.
 19936
 19937	041555	400 00 0 00 000000 	B13200:	SETZ			;PRELOAD AC WITH 0
 19938	041556	670 00 0 00 070254 		TDO	[-1]		;*TDO SHOULD PLACE ALL ONES IN THE AC
 19939	041557	300 00 0 00 000000 		CAI			;CAI IS A NO-OP.  IT IS HERE IN CASE TDO SKIPS
 19940	041560	312 00 0 00 070254 		CAME	[-1]		;PASS TEST IF C(AC)=-1,,-1
 19941						STOP^
 19942	041561	254 04 0 00 041562 		HALT	.+1		;TEST FAILED IF PROGRAM HALTS HERE
 19943	041562	324 00 0 00 041563 		JUMPA	.+1		;IF TEST FAILS, CHANGE THIS INSTRUCTION (JUMPA .+1) TO
 19944									;JUMPA X (X IS THE ADDRESS OF THE FIRST INSTRUCTION
 19945									;IN THE SUBTEST) TO LOOP ON ERROR^
 19946
 19947					;*****     FAILURE ANALYSIS     *****
 19948					;C(AC0)		C(AC1)		FAILING SIGNAL
 19949
 19950					;E				SW: FCE
 19951					;0				SW: ET1
 19952					;0				ET1: BR AR EN
 19953					;0				ET1: AD BR - EN
 19954					;0				ET1: AD EQV
 19955
 19956					;**********
 19957
 19958					;THIS TEST VERIFIES THAT TDO PLACES ONES IN THE BITS OF THE AC
 19959					;WHICH ARE MASKED BY C(E) AND DOES NOT AFFECT THE UNMASKED BITS OF THE AC.
 19960					;IN THIS CASE, AC=E AND C(AC)= C(E)=0.  HENCE, THE RESULT IN THE AC SHOULD BE 0.
 19961					;THIS AC IS CHECKED FOR ZERO.  IF C(AC) IS ZERO, THE TEST PASSES.
 19962
 19963	041563	400 00 0 00 000000 	B13300:	SETZ			;PRELOAD AC WITH 0
 19964	041564	670 00 0 00 000000 		TDO			;*TDO SHOULD PLACE ALL ZERO IN THE AC
 19965	041565	300 00 0 00 000000 		CAI			;CAI IS A NO-OP.  IT IS HERE IN CASE TDO SKIPS
 19966	041566	332 00 0 00 000000 		SKIPE			;PASS TEST IF C(AC) ZERO
 19967						STOP^
 19968	041567	254 04 0 00 041570 		HALT	.+1		;TEST FAILED IF PROGRAM HALTS HERE
 19969	041570	324 00 0 00 041571 		JUMPA	.+1		;IF TEST FAILS, CHANGE THIS INSTRUCTION (JUMPA .+1) TO
 19970									;JUMPA X (X IS THE ADDRESS OF THE FIRST INSTRUCTION
 19971									;IN THE SUBTEST) TO LOOP ON ERROR^
 19972
 19973					;*****     FAILURE ANALYSIS     *****
 19974					;C(AC0)		C(AC1)		FAILING SIGNAL
 19975
 19976					;-1,,-1				ET1: AD AR + EN
 19977
 19978					;**********
DFKAA PDP-10 KL10 BASIC INSTRUCTION DIAGNOSTIC (1) VER 0,2	MACRO %53B(1254)-4 11:50 11-Nov-24 Page 4
DFKAA3	MAC	13-Jan-89 10:22		TEST OF LOGICAL TEST INSTRUCTIONS

 19979					;THIS TEST VERIFIES THAT TDO PLACES ONES IN THE BITS OF THE AC,
 19980					;WHICH ARE MASKED BY C(E) AND DOES NOT AFFECT THE UNMASKED BITS OF THE AC.
 19981					;IN THIS CASE, C(AC)=0 AND C(E)=0.  HENCE, THE RESULT IN THE AC SHOULD BE 0.
 19982					;THE AC IS CHECKED FOR ITS CONTENTS ZERO.  IF C(AC) IS ZERO, THE TEST PASSES.
 19983
 19984	041571	400 00 0 00 000000 	B13400:	SETZ			;PRELOAD AC WITH 0
 19985	041572	670 00 0 00 070253 		TDO	[0]		;*TDO SHOULD PLACE ALL ZERO IN THE AC
 19986	041573	300 00 0 00 000000 		CAI			;CAI IS A NO-OP.  IT IS HERE IN CASE TDO SKIPS
 19987	041574	332 00 0 00 000000 		SKIPE			;PASS TEST IF C(AC) IS ZERO
 19988						STOP^
 19989	041575	254 04 0 00 041576 		HALT	.+1		;TEST FAILED IF PROGRAM HALTS HERE
 19990	041576	324 00 0 00 041577 		JUMPA	.+1		;IF TEST FAILS, CHANGE THIS INSTRUCTION (JUMPA .+1) TO
 19991									;JUMPA X (X IS THE ADDRESS OF THE FIRST INSTRUCTION
 19992									;IN THE SUBTEST) TO LOOP ON ERROR^
 19993
 19994					;**********
 19995
 19996					;THIS TEST VERIFIES THAT TDO PLACES ONES IN THE BITS OF THE AC
 19997					;WHICH ARE MASKED BY C(E) AND DOES NOT AFFECT THE UNMASKED BITS OF THE AC.
 19998					;IN THIS CASE, AC=E AND C(AC)= C(E)=-1,,-1.
 19999					;HENCE, THE RESULT IN THE AC SHOULD BE -1,,-1.
 20000					;THE AC IS CHECKED FOR -1,,-1.  IF C(AC)=-1,,-1, THE TEST PASSES.
 20001
 20002	041577	474 00 0 00 000000 	B13600:	SETO			;PRELOAD AC WITH -1,,-1
 20003	041600	670 00 0 00 000000 		TDO			;*TDO SHOULD PLACE ALL ONES IN THE AC
 20004	041601	300 00 0 00 000000 		CAI			;CAI IS A NO-OP.  IT IS HERE IN CASE TDO SKIPS
 20005	041602	312 00 0 00 070254 		CAME	[-1]		;PASS TEST IF C(AC) -1,,-1
 20006						STOP^
 20007	041603	254 04 0 00 041604 		HALT	.+1		;TEST FAILED IF PROGRAM HALTS HERE
 20008	041604	324 00 0 00 041605 		JUMPA	.+1		;IF TEST FAILS, CHANGE THIS INSTRUCTION (JUMPA .+1) TO
 20009									;JUMPA X (X IS THE ADDRESS OF THE FIRST INSTRUCTION
 20010									;IN THE SUBTEST) TO LOOP ON ERROR^
 20011
 20012					;**********
DFKAA PDP-10 KL10 BASIC INSTRUCTION DIAGNOSTIC (1) VER 0,2	MACRO %53B(1254)-4 11:50 11-Nov-24 Page 5
DFKAA3	MAC	13-Jan-89 10:22		TEST OF LOGICAL TEST INSTRUCTIONS

 20013					;THIS TEST VERIFIES THAT TDO PLACES ONES IN THE BITS OF THE AC
 20014					;WHICH ARE MASKED BY C(E) AND DOES NOT AFFECT THE UNMASKED BITS OF THE AC.
 20015					;IN THIS CASE, C(AC)=-1,,-1 AND C(E)=0.  HENCE, THE RESULT IN THE AC SHOULD BE -1,,-1.
 20016					;THE AC IS CHECKED FOR -1,,-1.  IF C(AC)=-1,,-1, THE TEST PASSES.
 20017
 20018	041605	474 00 0 00 000000 	B14000:	SETO			;PRELOAD AC WITH -1,,-1
 20019	041606	670 00 0 00 070253 		TDO	[0]		;*TDO SHOULD PLACE ALL ONES IN THE AC
 20020	041607	300 00 0 00 000000 		CAI			;CAI IS A NO-OP.  IT IS HERE IN CASE TDO SKIPS
 20021	041610	312 00 0 00 070254 		CAME	[-1]		;PASS TEST IF C(AC)=-1,,-1
 20022						STOP^
 20023	041611	254 04 0 00 041612 		HALT	.+1		;TEST FAILED IF PROGRAM HALTS HERE
 20024	041612	324 00 0 00 041613 		JUMPA	.+1		;IF TEST FAILS, CHANGE THIS INSTRUCTION (JUMPA .+1) TO
 20025									;JUMPA X (X IS THE ADDRESS OF THE FIRST INSTRUCTION
 20026									;IN THE SUBTEST) TO LOOP ON ERROR^
 20027
 20028					;*****     FAILURE ANALYSIS     *****
 20029					;C(AC0)		C(AC1)		FAILING SIGNAL
 20030
 20031					;0				ET1: AD FM - EN
 20032					;0				ET2: AR AD EN
 20033
 20034					;**********
 20035
 20036					;THIS TEST VERIFIES THAT TDZ PLACES ZERO IN THE BITS OF THE AC
 20037					;WHICH ARE MASKED BY C(E) AND DOES NOT AFFECT THE UNMASKED BITS OF THE AC.
 20038					;IN THIS CASE, AC=E AND C(AC)= C(E)=0.  HENCE, THE RESULT IN THE AC SHOULD BE 0.
 20039					;THE AC IS CHECKED FOR 0.  IF C(AC) 0, THE TEST PASSES.
 20040
 20041	041613	400 00 0 00 000000 	B14100:	SETZ			;PRELOAD AC WITH 0
 20042	041614	630 00 0 00 000000 		TDZ			;*TDZ SHOULD PLACE ALL ZERO IN THE AC
 20043	041615	300 00 0 00 000000 		CAI			;CAI IS A NO-OP.  IT IS HERE IN CASE TDO
 20044	041616	332 00 0 00 000000 		SKIPE			;PASS TEST IF C(AC)=0
 20045						STOP^
 20046	041617	254 04 0 00 041620 		HALT	.+1		;TEST FAILED IF PROGRAM HALTS HERE
 20047	041620	324 00 0 00 041621 		JUMPA	.+1		;IF TEST FAILS, CHANGE THIS INSTRUCTION (JUMPA .+1) TO
 20048									;JUMPA X (X IS THE ADDRESS OF THE FIRST INSTRUCTION
 20049									;IN THE SUBTEST) TO LOOP ON ERROR^
 20050
 20051					;*****     FAILURE ANALYSIS     *****
 20052					;C(AC0)		C(AC1)		FAILING SIGNAL
 20053
 20054					;-1,,-1				FC: AD FM + EN
 20055
 20056					;**********
DFKAA PDP-10 KL10 BASIC INSTRUCTION DIAGNOSTIC (1) VER 0,2	MACRO %53B(1254)-4 11:50 11-Nov-24 Page 6
DFKAA3	MAC	13-Jan-89 10:22		TEST OF LOGICAL TEST INSTRUCTIONS

 20057					;THIS TEST VERIFIES THAT TDZ PLACES ZERO IN THE BITS OF THE AC
 20058					;WHICH ARE MASKED BY C(E) AND DOES NOT AFFECT THE UNMASKED BITS OF THE AC.
 20059					;IN THIS CASE, C(AC)=-1,,-1,,-1 AND C(E)=-1,,0.
 20060					;HENCE, THE RESULT IN THE AC SHOULD BE 0,,-1.
 20061					;THE AC IS CHECKED FOR 0,,-1.  IF C(AC)= 0,,-1, THE TEST PASSES.
 20062
 20063	041621	474 00 0 00 000000 	B14200:	SETO			;PRELOAD AC WITH -1,,-1
 20064	041622	630 00 0 00 070331 		TDZ	[XWD -1,0]	;*TDZ SHOULD PLACE 0,,-1 IN THE AC
 20065	041623	300 00 0 00 000000 		CAI			;CAI IS A NO-OP.  IT IS HERE IN CASE TDO
 20066	041624	312 00 0 00 070330 		CAME	[0,-1]		;PASS TEST IF C(AC)=0,,-1
 20067						STOP^
 20068	041625	254 04 0 00 041626 		HALT	.+1		;TEST FAILED IF PROGRAM HALTS HERE
 20069	041626	324 00 0 00 041627 		JUMPA	.+1		;IF TEST FAILS, CHANGE THIS INSTRUCTION (JUMPA .+1) TO
 20070									;JUMPA X (X IS THE ADDRESS OF THE FIRST INSTRUCTION
 20071									;IN THE SUBTEST) TO LOOP ON ERROR^
 20072
 20073					;*****     FAILURE ANALYSIS     *****
 20074					;C(AC0)		C(AC1)		FAILING SIGNAL
 20075
 20076					;-E				SW: FCE
 20077					;-1,,-1				FC: AD AR -EN
 20078					;-1,,0				ET2: AR AD EN
 20079
 20080					;**********
 20081
 20082					;THIS TEST VERIFIES THAT TDZ PLACES ZEROS IN THE BITS OF THE AC
 20083					;WHICH ARE MASKED BY C(E) AND DOES NOT AFFECT THE UNMASKED BITS OF THE AC.
 20084					;IN THIS CASE, AC=E AND C(AC)= C(E)=-1,,-1.  HENCE, THE RESULT IN THE AC SHOULD BE 0.
 20085					;THE AC IS CHECKED FOR 0.  IF C(AC)=0, THE TEST PASSES.
 20086
 20087	041627	474 00 0 00 000000 	B14400:	SETO			;PRELOAD AC WITH -1,,-1
 20088	041630	630 00 0 00 000000 		TDZ			;*TDZ SHOULD PLACE ALL ZERO IN THE AC
 20089	041631	300 00 0 00 000000 		CAI			;CAI IS A NO-OP.  IT IS HERE IN CASE TDO
 20090	041632	332 00 0 00 000000 		SKIPE			;PASS TEST IF C(AC)=0
 20091						STOP^
 20092	041633	254 04 0 00 041634 		HALT	.+1		;TEST FAILED IF PROGRAM HALTS HERE
 20093	041634	324 00 0 00 041635 		JUMPA	.+1		;IF TEST FAILS, CHANGE THIS INSTRUCTION (JUMPA .+1) TO
 20094									;JUMPA X (X IS THE ADDRESS OF THE FIRST INSTRUCTION
 20095									;IN THE SUBTEST) TO LOOP ON ERROR^
 20096
 20097					;**********
DFKAA PDP-10 KL10 BASIC INSTRUCTION DIAGNOSTIC (1) VER 0,2	MACRO %53B(1254)-4 11:50 11-Nov-24 Page 7
DFKAA3	MAC	13-Jan-89 10:22		TEST OF LOGICAL TEST INSTRUCTIONS

 20098					;THIS TEST VERIFIES THAT TDZ PLACES ZEROS IN THE BITS OF THE AC
 20099					;WHICH ARE MASKED BY C(E) AND DOES NOT AFFECT THE UNMASKED BITS OF THE AC.
 20100					;IN THIS CASE, C(AC)=0 AND C(E)=-1,,-1.  HENCE, THE RESULT IN THE AC SHOULD BE 0.
 20101					;THE AC IS CHECKED FOR 0.  IF C(AC)=0, THE TEST PASSES.
 20102
 20103	041635	400 00 0 00 000000 	B14500:	SETZ			;PRELOAD AC WITH 0
 20104	041636	630 00 0 00 070254 		TDZ	[-1]		;*TDZ SHOULD PLACE ALL ZEROS IN THE AC
 20105	041637	300 00 0 00 000000 		CAI			;CAI IS A NO-OP.  IT IS HERE IN CASE TDO
 20106	041640	332 00 0 00 000000 		SKIPE			;PASS TEST IS C(AC)=0
 20107						STOP^
 20108	041641	254 04 0 00 041642 		HALT	.+1		;TEST FAILED IF PROGRAM HALTS HERE
 20109	041642	324 00 0 00 041643 		JUMPA	.+1		;IF TEST FAILS, CHANGE THIS INSTRUCTION (JUMPA .+1) TO
 20110									;JUMPA X (X IS THE ADDRESS OF THE FIRST INSTRUCTION
 20111									;IN THE SUBTEST) TO LOOP ON ERROR^
 20112
 20113					;**********
 20114
 20115					;THIS TEST VERIFIES THAT TDZ PLACES ZEROS IN THE BITS OF THE AC
 20116					;WHICH ARE MASKED BY C(E) AND DOES NOT AFFECT THE UNMASKED BITS OF THE AC.
 20117					;IN THIS CASE, AC=E AND C(AC)= C(E)=-1,,-1.
 20118					;HENCE, THE RESULT IN THE AC SHOULD BE -1,,-1.
 20119					;THE AC IS CHECKED -1,,-1.  IF C(AC)=-1,,-1, THE TEST PASSES.
 20120
 20121	041643	474 00 0 00 000000 	B14600:	SETO			;PRELOAD AC WITH -1,,-1
 20122	041644	630 00 0 00 070253 		TDZ	[0]		;*TDZ SHOULD PLACE ALL ONES IN THE AC
 20123	041645	300 00 0 00 000000 		CAI			;CAI IS A NO-OP.  IT IS HERE IN CASE TDO
 20124	041646	312 00 0 00 070254 		CAME	[-1]		;PASS TEST IF C(AC)=-1,,-1
 20125						STOP^
 20126	041647	254 04 0 00 041650 		HALT	.+1		;TEST FAILED IF PROGRAM HALTS HERE
 20127	041650	324 00 0 00 041651 		JUMPA	.+1		;IF TEST FAILS, CHANGE THIS INSTRUCTION (JUMPA .+1) TO
 20128									;JUMPA X (X IS THE ADDRESS OF THE FIRST INSTRUCTION
 20129									;IN THE SUBTEST) TO LOOP ON ERROR^
 20130					;**********
DFKAA PDP-10 KL10 BASIC INSTRUCTION DIAGNOSTIC (1) VER 0,2	MACRO %53B(1254)-4 11:50 11-Nov-24 Page 8
DFKAA3	MAC	13-Jan-89 10:22		TEST OF LOGICAL TEST INSTRUCTIONS

 20131					;THIS TEST VERIFIES THAT TDC COMPLEMENTS THE BITS OF THE AC
 20132					;WHICH ARE MASKED BY C(E) AND DOES NOT AFFECT THE UNMASKED BITS OF THE AC.
 20133					;IN THIS CASE, C(AC)=-1 AND C(E)=0,,-1.  HENCE, THE RESULT IN THE AC SHOULD BE -1,,0.
 20134					;THE AC IS CHECKED FOR -1,,0.  IF C(AC)=-1,,0, THIS TEST PASSES
 20135
 20136	041651	474 00 0 00 000000 	B14700:	SETO			;PRELOAD AC WITH -1,,-1
 20137	041652	650 00 0 00 070330 		TDC	[XWD 0,-1]	;*TDC SHOULD PLACE -1,,0 INTO THE AC
 20138	041653	300 00 0 00 000000 		CAI			;CAI IS A NO-OP.  IT IS HERE IN CASE TDC SKIPS
 20139	041654	312 00 0 00 070331 		CAME	[-1,,0]		;PASS TEST IF C(AC)=-1,,0
 20140						STOP^
 20141	041655	254 04 0 00 041656 		HALT	.+1		;TEST FAILED IF PROGRAM HALTS HERE
 20142	041656	324 00 0 00 041657 		JUMPA	.+1		;IF TEST FAILS, CHANGE THIS INSTRUCTION (JUMPA .+1) TO
 20143									;JUMPA X (X IS THE ADDRESS OF THE FIRST INSTRUCTION
 20144									;IN THE SUBTEST) TO LOOP ON ERROR^
 20145
 20146					;*****     FAILURE ANALYSIS     *****
 20147					;C(AC0)		C(AC1)		FAILING SIGNAL
 20148
 20149					;-E				SW: FCE
 20150					;0				FC: AD AR - EN
 20151					;0,,-1				ET2: AR AD EN
 20152
 20153					;**********
 20154
 20155					;THIS TEST VERIFIES THAT TDC COMPLEMENTS THE BITS OF THE AC
 20156					;WHICH ARE MASKED BY C(E) AND DOES NOT AFFECT THE UNMASKED BITS OF THE AC.
 20157					;IN THIS CASE, AC=E AND C(AC)= C(E)=0.  HENCE, THE RESULT IN THE AC SHOULD BE 0.
 20158					;THE AC IS CHECKED FOR 0.  IF C(AC)=0, THIS TEST PASSES
 20159
 20160	041657	400 00 0 00 000000 	B15000:	SETZ			;PRELOAD AC, E WITH 0
 20161	041660	650 00 0 00 000000 		TDC			;*TDC SHOULD PLACE 0 INTO THE AC
 20162	041661	300 00 0 00 000000 		CAI			;CAI IS A NO-OP.  IT IS HERE IN CASE TDC SKIPS
 20163	041662	332 00 0 00 000000 		SKIPE			;PASS TEST IF C(AC)=0
 20164						STOP^
 20165	041663	254 04 0 00 041664 		HALT	.+1		;TEST FAILED IF PROGRAM HALTS HERE
 20166	041664	324 00 0 00 041665 		JUMPA	.+1		;IF TEST FAILS, CHANGE THIS INSTRUCTION (JUMPA .+1) TO
 20167									;JUMPA X (X IS THE ADDRESS OF THE FIRST INSTRUCTION
 20168									;IN THE SUBTEST) TO LOOP ON ERROR^
 20169
 20170					;*****     FAILURE ANALYSIS     *****
 20171					;C(AC0)		C(AC1)		FAILING SIGNAL
 20172
 20173					;-1,,-1				FC:AD FM + EN
 20174
 20175					;**********
DFKAA PDP-10 KL10 BASIC INSTRUCTION DIAGNOSTIC (1) VER 0,2	MACRO %53B(1254)-4 11:50 11-Nov-24 Page 9
DFKAA3	MAC	13-Jan-89 10:22		TEST OF LOGICAL TEST INSTRUCTIONS

 20176					;THIS TEST VERIFIES THAT TDC COMPLEMENTS THE BITS OF THE AC
 20177					;WHICH ARE MASKED BY C(E) AND DOES NOT AFFECT THE UNMASKED BITS OF THE AC.
 20178					;IN THIS CASE, AC=E AND C(AC)= C(E)=-1,,-1.  HENCE, THE RESULT IN THE AC SHOULD BE 0.
 20179					;THE AC IS CHECKED FOR 0.  IF C(AC)=0, THIS TEST FAILS
 20180
 20181	041665	474 00 0 00 000000 	B15400:	SETO			;PRELOAD AC WITH -1,,-1
 20182	041666	650 00 0 00 000000 		TDC			;*TDC SHOULD PLACE 0 INTO THE AC
 20183	041667	300 00 0 00 000000 		CAI			;CAI IS A NO-OP.  IT IS HERE IN CASE TDC SKIPS
 20184	041670	332 00 0 00 000000 		SKIPE			;PASS TEST IF C(AC)=0
 20185						STOP^
 20186	041671	254 04 0 00 041672 		HALT	.+1		;TEST FAILED IF PROGRAM HALTS HERE
 20187	041672	324 00 0 00 041673 		JUMPA	.+1		;IF TEST FAILS, CHANGE THIS INSTRUCTION (JUMPA .+1) TO
 20188									;JUMPA X (X IS THE ADDRESS OF THE FIRST INSTRUCTION
 20189									;IN THE SUBTEST) TO LOOP ON ERROR^
 20190
 20191					;**********
 20192
 20193					;THIS TEST VERIFIES THAT TDC COMPLEMENTS THE BITS OF THE AC
 20194					;WHICH ARE MASKED BY C(E) AND DOES NOT AFFECT THE UNMASKED BITS OF THE AC.
 20195					;IN THIS CASE, C(AC)=0 AND C(E)=-1,,-1.  HENCE, THE RESULT IN THE AC SHOULD BE -1,,-1.
 20196					;THE AC IS CHECKED FOR -1,,-1.  IF C(AC)=-1,,-1, THIS TEST PASSES
 20197
 20198	041673	400 00 0 00 000000 	B15500:	SETZ			;PRELOAD AC WITH 0
 20199	041674	650 00 0 00 070254 		TDC	[-1]		;*TDC SHOULD PLACE -1,,-1 INTO THE AC
 20200	041675	300 00 0 00 000000 		CAI			;CAI IS A NO-OP.  IT IS HERE IN CASE TDC SKIPS
 20201	041676	312 00 0 00 070254 		CAME	[-1]		;PASS TEST IF C(AC)=-1,,-1
 20202						STOP^
 20203	041677	254 04 0 00 041700 		HALT	.+1		;TEST FAILED IF PROGRAM HALTS HERE
 20204	041700	324 00 0 00 041701 		JUMPA	.+1		;IF TEST FAILS, CHANGE THIS INSTRUCTION (JUMPA .+1) TO
 20205									;JUMPA X (X IS THE ADDRESS OF THE FIRST INSTRUCTION
 20206									;IN THE SUBTEST) TO LOOP ON ERROR^
 20207
 20208					;*****     FAILURE ANALYSIS     *****
 20209					;C(AC0)		C(AC1)		FAILING SIGNAL
 20210
 20211					;0				FC: AD EQV
 20212
 20213					;**********
DFKAA PDP-10 KL10 BASIC INSTRUCTION DIAGNOSTIC (1) VER 0,2	MACRO %53B(1254)-4 11:50 11-Nov-24 Page 10
DFKAA3	MAC	13-Jan-89 10:22		TEST OF LOGICAL TEST INSTRUCTIONS

 20214					;THIS TEST VERIFIES THAT TDC COMPLEMENTS THE BITS OF THE AC
 20215					;WHICH ARE MASKED BY C(E) AND DOES NOT AFFECT THE UNMASKED BITS OF THE AC.
 20216					;IN THIS CASE, C(AC)=-1 AND C(E)=0.  HENCE, THE RESULT IN THE AC SHOULD BE -1,,-1.
 20217					;THE AC IS CHECKED FOR -1,,-1.  IF C(AC)=-1,,-1, THIS TEST PASSES
 20218
 20219	041701	474 00 0 00 000000 	B15600:	SETO			;PRELOAD AC WITH -1,,-1
 20220	041702	650 00 0 00 070253 		TDC	[0]		;*TDC SHOULD PLACE -1,,-1 INTO THE AC
 20221	041703	300 00 0 00 000000 		CAI			;CAI IS A NO-OP.  IT IS HERE IN CASE TDC SKIPS
 20222	041704	312 00 0 00 070254 		CAME	[-1]		;PASS TEST IF C(AC)=-1,,-1
 20223						STOP^
 20224	041705	254 04 0 00 041706 		HALT	.+1		;TEST FAILED IF PROGRAM HALTS HERE
 20225	041706	324 00 0 00 041707 		JUMPA	.+1		;IF TEST FAILS, CHANGE THIS INSTRUCTION (JUMPA .+1) TO
 20226									;JUMPA X (X IS THE ADDRESS OF THE FIRST INSTRUCTION
 20227									;IN THE SUBTEST) TO LOOP ON ERROR^
 20228
 20229					;**********
 20230
 20231					;THIS TEST VERIFIES THAT TDNA ALWAYS SKIPS THE NEXT
 20232					;SEQUENTIAL INSTRUCTION.  IF TDNA DOES NOT
 20233					;SKIP, THIS TEST FAILS.
 20234
 20235	041707	400 00 0 00 000000 	B15700:	SETZ			;PRESET AC, E TO 0
 20236	041710	614 00 0 00 000000 		TDNA			;*TDNA SHOULD SKIP THE NEXT INSTRUCTION
 20237						STOP^
 20238	041711	254 04 0 00 041712 		HALT	.+1		;TEST FAILED IF PROGRAM HALTS HERE
 20239	041712	324 00 0 00 041713 		JUMPA	.+1		;IF TEST FAILS, CHANGE THIS INSTRUCTION (JUMPA .+1) TO
 20240									;JUMPA X (X IS THE ADDRESS OF THE FIRST INSTRUCTION
 20241									;IN THE SUBTEST) TO LOOP ON ERROR^
 20242
 20243					;*****     FAILURE ANALYSIS     *****
 20244					;C(AC0)		C(AC1)		FAILING SIGNAL
 20245
 20246					;0				SW: ET1
 20247					;0				FC: AB PC EN
 20248					;0				ET1: BR AR EN
 20249					;0				ET1: PC CLOCK
 20250					;0				ET2: MC INST FETCH EN
 20251
 20252					;**********
DFKAA PDP-10 KL10 BASIC INSTRUCTION DIAGNOSTIC (1) VER 0,2	MACRO %53B(1254)-4 11:50 11-Nov-24 Page 11
DFKAA3	MAC	13-Jan-89 10:22		TEST OF LOGICAL TEST INSTRUCTIONS

 20253					;THIS TEST VERIFIES THAT TDN NEVER SKIPS
 20254					;NEXT SEQUENTIAL INSTRUCTION.
 20255					;THIS TEST FAILS IF TDN SKIPS.
 20256
 20257	041713	474 00 0 00 000000 	B16000:	SETO			;PRESET AC, E TO -1,,-1
 20258	041714	610 00 0 00 000000 		TDN			;*TDN SHOULD NOT SKIP
 20259	041715	334 00 0 00 000000 		SKIPA			;SKIP HALT IF TDN PASSES
 20260						STOP^
 20261	041716	254 04 0 00 041717 		HALT	.+1		;TEST FAILED IF PROGRAM HALTS HERE
 20262	041717	324 00 0 00 041720 		JUMPA	.+1		;IF TEST FAILS, CHANGE THIS INSTRUCTION (JUMPA .+1) TO
 20263									;JUMPA X (X IS THE ADDRESS OF THE FIRST INSTRUCTION
 20264									;IN THE SUBTEST) TO LOOP ON ERROR^
 20265
 20266					;**********
 20267
 20268					;THIS TEST VERIFIES THAT TDN NEVER SKIPS THE
 20269					;NEXT SEQUENTIAL INSTRUCTION.
 20270					;THIS TEST FAILS IF TDN SKIPS.
 20271
 20272	041720	400 00 0 00 000000 	B16100:	SETZ			;PRESET AC, E TO 0
 20273	041721	610 00 0 00 000000 		TDN			;*TDN SHOULD NOT SKIP
 20274	041722	334 00 0 00 000000 		SKIPA			;SKIP HALT IF TDN PASSES
 20275						STOP^
 20276	041723	254 04 0 00 041724 		HALT	.+1		;TEST FAILED IF PROGRAM HALTS HERE
 20277	041724	324 00 0 00 041725 		JUMPA	.+1		;IF TEST FAILS, CHANGE THIS INSTRUCTION (JUMPA .+1) TO
 20278									;JUMPA X (X IS THE ADDRESS OF THE FIRST INSTRUCTION
 20279									;IN THE SUBTEST) TO LOOP ON ERROR^
 20280
 20281					;**********
DFKAA PDP-10 KL10 BASIC INSTRUCTION DIAGNOSTIC (1) VER 0,2	MACRO %53B(1254)-4 11:50 11-Nov-24 Page 12
DFKAA3	MAC	13-Jan-89 10:22		TEST OF LOGICAL TEST INSTRUCTIONS

 20282					;THIS TEST VERIFIES THAT TDNE SKIPS THE NEXT SEQUENTIAL INSTRUCTION WHEN
 20283					;AND ONLY WHEN ALL OF THE BITS OF THE AC, WHICH ARE MASKED
 20284					;BY C(E), ARE ZERO.
 20285					;IN THIS TEST C(AC) = -1..0 AND C(E) = 707070..707070.
 20286					;HENCE, TDNE SHOULD NOT SKIP THE NEXT SEQUENTIAL INSTRUCTION.
 20287					;IF TDNE SKIPS, THIS TEST FAILS
 20288
 20289	041725	200 00 0 00 070331 	B16200:	MOVE	[XWD -1,0]	;PRELOAD AC WITH -1..0
 20290	041726	612 00 0 00 070332 		TDNE	[707070707070]	;*TDNE SHOULD NOT SKIP
 20291	041727	334 00 0 00 000000 		SKIPA			;SKIP HALT IF TDNE PASSES
 20292						STOP^
 20293	041730	254 04 0 00 041731 		HALT	.+1		;TEST FAILED IF PROGRAM HALTS HERE
 20294	041731	324 00 0 00 041732 		JUMPA	.+1		;IF TEST FAILS, CHANGE THIS INSTRUCTION (JUMPA .+1) TO
 20295									;JUMPA X (X IS THE ADDRESS OF THE FIRST INSTRUCTION
 20296									;IN THE SUBTEST) TO LOOP ON ERROR^
 20297
 20298					;*****     FAILURE ANALYSIS     *****
 20299					;C(AC0)		C(AC1)		FAILING SIGNAL
 20300
 20301					;-1,,0				SW:FCE
 20302					;-1,,0				SW: PC CHANGE
 20303					;-1,,-1				FC: AD AR + EN
 20304					;E				ET2: MC INST FETCH EN
 20305
 20306					;**********
 20307
 20308					;THIS TEST VERIFIES THAT TDNE SKIPS THE NEXT SEQUENTIAL INSTRUCTION WHEN
 20309					;AND ONLY WHEN ALL OF THE BITS OF THE AC, WHICH ARE MASKED
 20310					;BY C(E), ARE ZERO.
 20311					;IN THIS CASE, AC=E AND C(AC)=0.
 20312					;HENCE, TDNE SHOULD SKIP THE NEXT SEQUENTIAL INSTRUCTION
 20313					;IF TDNE DOES NOT SKIP, THIS TEST FAILS.
 20314
 20315	041732	400 00 0 00 000000 	B16300:	SETZ			;PRELOAD AC, E WITH 0
 20316	041733	612 00 0 00 000000 		TDNE			;*TDNE SHOULD SKIP THE NEXT INSTRUCTION
 20317						STOP^
 20318	041734	254 04 0 00 041735 		HALT	.+1		;TEST FAILED IF PROGRAM HALTS HERE
 20319	041735	324 00 0 00 041736 		JUMPA	.+1		;IF TEST FAILS, CHANGE THIS INSTRUCTION (JUMPA .+1) TO
 20320									;JUMPA X (X IS THE ADDRESS OF THE FIRST INSTRUCTION
 20321									;IN THE SUBTEST) TO LOOP ON ERROR^
 20322
 20323					;*****     FAILURE ANALYSIS     *****
 20324					;C(AC0)		C(AC1)		FAILING SIGNAL
 20325
 20326					;0				SW: ET1
 20327					;0				ET1: PC CLOCK
 20328
 20329					;**********
DFKAA PDP-10 KL10 BASIC INSTRUCTION DIAGNOSTIC (1) VER 0,2	MACRO %53B(1254)-4 11:50 11-Nov-24 Page 13
DFKAA3	MAC	13-Jan-89 10:22		TEST OF LOGICAL TEST INSTRUCTIONS

 20330					;THIS TEST VERIFIES THAT TDNN SKIPS THE NEXT SEQUENTIAL INSTRUCTION WHEN
 20331					;AND ONLY WHEN NOT ALL OF THE BITS OF THE AC, WHICH ARE MASKED
 20332					;BY C(E) ARE ZERO.
 20333					;IN THIS TEST AC=E AND C(AC)=C(E)=0.  HENCE TDNN
 20334					;SHOULD NOT SKIP THE NEXT SEQUENTIAL INSTRUCTION
 20335					;IF TDNN SKIPS, THE TEST FAILS.
 20336
 20337	041736	400 00 0 00 000000 	B16400:	SETZ			;PRELOAD AC,E WITH 0
 20338	041737	616 00 0 00 000000 		TDNN			;*TDNN SHOULD NOT SKIP THE NEXT INSTRUCTION
 20339	041740	334 00 0 00 000000 		SKIPA			;SKIP HALT IF TDNE PASSES
 20340						STOP^
 20341	041741	254 04 0 00 041742 		HALT	.+1		;TEST FAILED IF PROGRAM HALTS HERE
 20342	041742	324 00 0 00 041743 		JUMPA	.+1		;IF TEST FAILS, CHANGE THIS INSTRUCTION (JUMPA .+1) TO
 20343									;JUMPA X (X IS THE ADDRESS OF THE FIRST INSTRUCTION
 20344									;IN THE SUBTEST) TO LOOP ON ERROR^
 20345
 20346					;*****     FAILURE ANALYSIS     *****
 20347					;C(AC0)		C(AC1)		FAILING SIGNAL
 20348
 20349					;0				SW: PC CHANGE
 20350					;0				FC: AB PC EN
 20351					;0				ET2: MC INST FETCH EN
 20352
 20353					;**********
 20354
 20355					;THIS TEST VERIFIES THAT TDNA ALWAYS SKIPS THE NEXT
 20356					;SEQUENTIAL INSTRUCTION.  IF TDNA DOES NOT
 20357					;SKIP, THIS TEST FAILS.
 20358
 20359	041743	474 00 0 00 000000 	B16500:	SETO			;PRESET AC, E TO 0
 20360	041744	614 00 0 00 000000 		TDNA			;*TDNA SHOULD SKIP THE NEXT INSTRUCTION
 20361						STOP^
 20362	041745	254 04 0 00 041746 		HALT	.+1		;TEST FAILED IF PROGRAM HALTS HERE
 20363	041746	324 00 0 00 041747 		JUMPA	.+1		;IF TEST FAILS, CHANGE THIS INSTRUCTION (JUMPA .+1) TO
 20364									;JUMPA X (X IS THE ADDRESS OF THE FIRST INSTRUCTION
 20365									;IN THE SUBTEST) TO LOOP ON ERROR^
 20366
 20367					;**********
DFKAA PDP-10 KL10 BASIC INSTRUCTION DIAGNOSTIC (1) VER 0,2	MACRO %53B(1254)-4 11:50 11-Nov-24 Page 14
DFKAA3	MAC	13-Jan-89 10:22		TEST OF LOGICAL TEST INSTRUCTIONS

 20368					;THIS TEST VERIFIES THAT TDNN SKIPS THE NEXT SEQUENTIAL INSTRUCTION WHEN
 20369					;AND ONLY WHEN NOT ALL OF THE BITS OF THE AC, WHICH ARE MASKED BY C(E),
 20370					;ARE ZERO
 20371					;IN THIS TEST C(AC)=-1,,0 AND C(E)=707070,,707070.  HENCE, TDNN
 20372					;SHOULD SKIP THE NEXT INSTRUCTION.  IF IT DOES NOT SKIP, THIS TEST FAILS.
 20373
 20374	041747	200 00 0 00 070331 	B16600:	MOVE	[XWD -1,0]	;PRESET AC TO -1,,0
 20375	041750	616 00 0 00 070332 		TDNN	[707070707070]	;*TDNN SHOULD SKIP THE NEXT INSTRUCTION
 20376						STOP^
 20377	041751	254 04 0 00 041752 		HALT	.+1		;TEST FAILED IF PROGRAM HALTS HERE
 20378	041752	324 00 0 00 041753 		JUMPA	.+1		;IF TEST FAILS, CHANGE THIS INSTRUCTION (JUMPA .+1) TO
 20379									;JUMPA X (X IS THE ADDRESS OF THE FIRST INSTRUCTION
 20380									;IN THE SUBTEST) TO LOOP ON ERROR^
 20381
 20382					;*****     FAILURE ANALYSIS     *****
 20383					;C(AC0)		C(AC1)		FAILING SIGNAL
 20384
 20385					;-1,,0				SW: FCE
 20386					;-1,,0				SW: ET1
 20387					;-1,,0				ET1: PC CLOCK
 20388
 20389					;**********
 20390
 20391					;THIS TEST VERIFIES THAT TDNE SKIPS THE NEXT SEQUENTIAL INSTRUCTION WHEN
 20392					;AND ONLY WHEN ALL OF THE BITS OF THE AC, WHICH ARE MASKED
 20393					;BY C(E), ARE ZERO.
 20394					;IN THIS TEST, C(AC)=-1,,-1 AND C(E)=0.  HENCE, TDNE SHOULD SKIP
 20395					;THE NEXT SEQUENTIAL INSTRUCTION.
 20396					;IF TDNE DOES NOT SKIP, THIS TEST FAILS
 20397
 20398	041753	474 00 0 00 000000 	B16700:	SETO			;PRESET AC TO ALL ONES
 20399	041754	612 00 0 00 070253 		TDNE	[0]		;*TDNE SHOULD SKIP THE NEXT INSTRUCTION
 20400						STOP^
 20401	041755	254 04 0 00 041756 		HALT	.+1		;TEST FAILED IF PROGRAM HALTS HERE
 20402	041756	324 00 0 00 041757 		JUMPA	.+1		;IF TEST FAILS, CHANGE THIS INSTRUCTION (JUMPA .+1) TO
 20403									;JUMPA X (X IS THE ADDRESS OF THE FIRST INSTRUCTION
 20404									;IN THE SUBTEST) TO LOOP ON ERROR^
 20405
 20406					;**********
DFKAA PDP-10 KL10 BASIC INSTRUCTION DIAGNOSTIC (1) VER 0,2	MACRO %53B(1254)-4 11:50 11-Nov-24 Page 15
DFKAA3	MAC	13-Jan-89 10:22		TEST OF LOGICAL TEST INSTRUCTIONS

 20407					;THIS TEST VERIFIES THAT TDNE SKIPS THE NEXT SEQUENTIAL INSTRUCTION WHEN
 20408					;AND ONLY WHEN ALL OF THE BITS OF THE AC, WHICH ARE MASKED
 20409					;BY C(E), ARE ZERO.
 20410					;IN THIS TEST C(AC)=0 AND C(E)=-1,,-1, HENCE, TDNE SHOULD SKIP
 20411					;THE NEXT SEQUENTIAL INSTRUCTION.
 20412					;IF TDNE DOES NOT SKIP, THIS TEST FAILS
 20413
 20414	041757	400 00 0 00 000000 	B17000:	SETZ			;PRESET AC TO 0
 20415	041760	612 00 0 00 070254 		TDNE	[-1]		;*TDNE SHOULD SKIP THE NEXT INSTRUCTION
 20416						STOP^
 20417	041761	254 04 0 00 041762 		HALT	.+1		;TEST FAILED IF PROGRAM HALTS HERE
 20418	041762	324 00 0 00 041763 		JUMPA	.+1		;IF TEST FAILS, CHANGE THIS INSTRUCTION (JUMPA .+1) TO
 20419									;JUMPA X (X IS THE ADDRESS OF THE FIRST INSTRUCTION
 20420									;IN THE SUBTEST) TO LOOP ON ERROR^
 20421
 20422					;*****     FAILURE ANALYSIS     *****
 20423					;C(AC0)		C(AC1)		FAILING SIGNAL
 20424
 20425					;0				FC: AD FM + EN
 20426
 20427					;**********
 20428
 20429					;THIS TEST VERIFIES THAT TDN NEVER SKIPS THE NEXT SEQUENTIAL INSTRUCTION.
 20430					;THIS TEST FAILS IF TDN SKIPS
 20431
 20432	041763	474 00 0 00 000000 	B17300:	SETO			;PRESET AC TO -1,,-1
 20433	041764	610 00 0 00 070253 		TDN	[0]		;*TDN SHOULD NOT SKIP
 20434	041765	334 00 0 00 000000 		SKIPA			;SKIP HALT IF TDN PASSES
 20435						STOP^
 20436	041766	254 04 0 00 041767 		HALT	.+1		;TEST FAILED IF PROGRAM HALTS HERE
 20437	041767	324 00 0 00 041770 		JUMPA	.+1		;IF TEST FAILS, CHANGE THIS INSTRUCTION (JUMPA .+1) TO
 20438									;JUMPA X (X IS THE ADDRESS OF THE FIRST INSTRUCTION
 20439									;IN THE SUBTEST) TO LOOP ON ERROR^
 20440
 20441					;**********
DFKAA PDP-10 KL10 BASIC INSTRUCTION DIAGNOSTIC (1) VER 0,2	MACRO %53B(1254)-4 11:50 11-Nov-24 Page 16
DFKAA3	MAC	13-Jan-89 10:22		TEST OF LOGICAL TEST INSTRUCTIONS

 20442					;THIS TEST VERIFIES THAT TDN NEVER SKIPS THE NEXT SEQUENTIAL INSTRUCTION.
 20443					;THIS TEST FAILS IF TDN SKIPS
 20444
 20445	041770	400 00 0 00 000000 	B17400:	SETZ			;PRESET AC TO 0
 20446	041771	610 00 0 00 070254 		TDN	[-1]		;*TDN SHOULD NOT SKIP
 20447	041772	334 00 0 00 000000 		SKIPA			;SKIP HALT IF TDN PASSES
 20448						STOP^
 20449	041773	254 04 0 00 041774 		HALT	.+1		;TEST FAILED IF PROGRAM HALTS HERE
 20450	041774	324 00 0 00 041775 		JUMPA	.+1		;IF TEST FAILS, CHANGE THIS INSTRUCTION (JUMPA .+1) TO
 20451									;JUMPA X (X IS THE ADDRESS OF THE FIRST INSTRUCTION
 20452									;IN THE SUBTEST) TO LOOP ON ERROR^
 20453
 20454					;**********
 20455
 20456					;THIS TEST VERIFIES THAT TDNA ALWAYS SKIPS THE NEXT SEQUENTIAL INSTRUCTION
 20457					;THIS TEST FAILS IF TDNA DOES NOT SKIP
 20458
 20459	041775	474 00 0 00 000000 	B17700:	SETO			;PRESET AC TO -1,,-1
 20460	041776	614 00 0 00 070253 		TDNA	[0]		;*TDNA SHOULD SKIP
 20461						STOP^
 20462	041777	254 04 0 00 042000 		HALT	.+1		;TEST FAILED IF PROGRAM HALTS HERE
 20463	042000	324 00 0 00 042001 		JUMPA	.+1		;IF TEST FAILS, CHANGE THIS INSTRUCTION (JUMPA .+1) TO
 20464									;JUMPA X (X IS THE ADDRESS OF THE FIRST INSTRUCTION
 20465									;IN THE SUBTEST) TO LOOP ON ERROR^
 20466
 20467					;**********
DFKAA PDP-10 KL10 BASIC INSTRUCTION DIAGNOSTIC (1) VER 0,2	MACRO %53B(1254)-4 11:50 11-Nov-24 Page 17
DFKAA3	MAC	13-Jan-89 10:22		TEST OF LOGICAL TEST INSTRUCTIONS

 20468					;THIS TEST VERIFIES THAT TDNA ALWAYS SKIPS THE NEXT SEQUENTIAL INSTRUCTION
 20469					;THIS TEST FAILS IF TDNA DOES NOT SKIP
 20470
 20471	042001	400 00 0 00 000000 	B20000:	SETZ			;PRESET AC TO 0
 20472	042002	614 00 0 00 070254 		TDNA	[-1]		;*TDNA SHOULD SKIP
 20473						STOP^
 20474	042003	254 04 0 00 042004 		HALT	.+1		;TEST FAILED IF PROGRAM HALTS HERE
 20475	042004	324 00 0 00 042005 		JUMPA	.+1		;IF TEST FAILS, CHANGE THIS INSTRUCTION (JUMPA .+1) TO
 20476									;JUMPA X (X IS THE ADDRESS OF THE FIRST INSTRUCTION
 20477									;IN THE SUBTEST) TO LOOP ON ERROR^
 20478
 20479					;**********
 20480
 20481					;THIS TEST VERIFIES THAT TDNE SKIPS THE NEXT SEQUENTIAL INSTRUCTION WHEN
 20482					;AND ONLY WHEN ALL OF THE BITS OF THE AC, WHICH ARE MASKED BY C(E), ARE ZERO.
 20483					;IN THIS TEST AC=E AND C(AC)=C(E)=-1,,-1.  HENCE TDNE SHOULD NOT SKIP.
 20484					;IF TDNE SKIPS, THIS TEST FAILS.
 20485
 20486	042005	474 00 0 00 000000 	B20400:	SETO			;PRESET AC,E TO -1,,-1
 20487	042006	612 00 0 00 000000 		TDNE			;*TDNE SHOULD NOT SKIP
 20488	042007	334 00 0 00 000000 		SKIPA			;SKIP HALT IF TDNE PASSES
 20489						STOP^
 20490	042010	254 04 0 00 042011 		HALT	.+1		;TEST FAILED IF PROGRAM HALTS HERE
 20491	042011	324 00 0 00 042012 		JUMPA	.+1		;IF TEST FAILS, CHANGE THIS INSTRUCTION (JUMPA .+1) TO
 20492									;JUMPA X (X IS THE ADDRESS OF THE FIRST INSTRUCTION
 20493									;IN THE SUBTEST) TO LOOP ON ERROR^
 20494
 20495					;**********
DFKAA PDP-10 KL10 BASIC INSTRUCTION DIAGNOSTIC (1) VER 0,2	MACRO %53B(1254)-4 11:50 11-Nov-24 Page 18
DFKAA3	MAC	13-Jan-89 10:22		TEST OF LOGICAL TEST INSTRUCTIONS

 20496					;THIS TEST VERIFIES THAT TDNN SKIPS THE NEXT SEQUENTIAL INSTRUCTION WHEN
 20497					;AND ONLY WHEN NOT ALL OF THE BITS OF THE AC, WHICH ARE MASKED BY C(E), ARE ZERO.
 20498					;IN THIS TEST, AC=E AND C(AC)=C(E)=-1,,-1.  HENCE TDNN SHOULD SKIP
 20499					;IF TDNN DOES NOT SKIP, THIS TEST FAILS
 20500
 20501	042012	474 00 0 00 000000 	B20600:	SETO			;PRESET AC,E TO -1,,-1
 20502	042013	616 00 0 00 000000 		TDNN			;*TDNN SHOULD SKIP THE NEXT SEQUENTIAL INSTRUCTION
 20503						STOP^
 20504	042014	254 04 0 00 042015 		HALT	.+1		;TEST FAILED IF PROGRAM HALTS HERE
 20505	042015	324 00 0 00 042016 		JUMPA	.+1		;IF TEST FAILS, CHANGE THIS INSTRUCTION (JUMPA .+1) TO
 20506									;JUMPA X (X IS THE ADDRESS OF THE FIRST INSTRUCTION
 20507									;IN THE SUBTEST) TO LOOP ON ERROR^
 20508
 20509					;**********
 20510
 20511					;THIS TEST VERIFIES THAT TDNN SKIPS THE NEXT SEQUENTIAL INSTRUCTION WHEN
 20512					;AND ONLY WHEN NOT ALL OF THE BITS OF THE AC, WHICH ARE MASKED BY C(E), ARE ZERO.
 20513					;IN THIS TEST, C(AC)=0 AND C(E)=-1,,-1.  HENCE TDNN SHOULD NOT SKIP
 20514					;IF TDNN SKIPS, THIS TEST FAILS
 20515
 20516	042016	400 00 0 00 000000 	B20700:	SETZ			;PRESET AC TO 0
 20517	042017	616 00 0 00 070254 		TDNN	[-1]		;*TDNN SHOULD NOT SKIP THE NEXT SEQUENTIAL INSTRUCTION
 20518	042020	334 00 0 00 000000 		SKIPA			;SKIP HALT IF TDNN PASSES
 20519						STOP^
 20520	042021	254 04 0 00 042022 		HALT	.+1		;TEST FAILED IF PROGRAM HALTS HERE
 20521	042022	324 00 0 00 042023 		JUMPA	.+1		;IF TEST FAILS, CHANGE THIS INSTRUCTION (JUMPA .+1) TO
 20522									;JUMPA X (X IS THE ADDRESS OF THE FIRST INSTRUCTION
 20523									;IN THE SUBTEST) TO LOOP ON ERROR^
 20524
 20525					;*****     FAILURE ANALYSIS     *****
 20526					;C(AC0)		C(AC1)		FAILING SIGNAL
 20527
 20528					;0				FC: AD FM + EN
 20529
 20530					;**********
DFKAA PDP-10 KL10 BASIC INSTRUCTION DIAGNOSTIC (1) VER 0,2	MACRO %53B(1254)-4 11:50 11-Nov-24 Page 19
DFKAA3	MAC	13-Jan-89 10:22		TEST OF LOGICAL TEST INSTRUCTIONS

 20531					;THIS TEST VERIFIES THAT TDNN SKIPS THE NEXT SEQUENTIAL INSTRUCTION WHEN
 20532					;AND ONLY WHEN NOT ALL OF THE BITS OF THE AC, WHICH ARE MASKED BY C(E), ARE ZERO.
 20533					;IN THIS TEST, C(AC)=-1,,-1 AND C(E)=0.  HENCE TDNN SHOULD NOT SKIP
 20534					;IF TDNN SKIPS, THIS TEST FAILS
 20535
 20536	042023	474 00 0 00 000000 	B21000:	SETO			;PRESET AC TO -1,,-1
 20537	042024	616 00 0 00 070253 		TDNN	[0]		;*TDNN SHOULD NOT SKIP THE NEXT SEQUENTIAL INSTRUCTION
 20538	042025	334 00 0 00 000000 		SKIPA			;SKIP HALT IF TDNN PASSES
 20539						STOP^
 20540	042026	254 04 0 00 042027 		HALT	.+1		;TEST FAILED IF PROGRAM HALTS HERE
 20541	042027	324 00 0 00 042030 		JUMPA	.+1		;IF TEST FAILS, CHANGE THIS INSTRUCTION (JUMPA .+1) TO
 20542									;JUMPA X (X IS THE ADDRESS OF THE FIRST INSTRUCTION
 20543									;IN THE SUBTEST) TO LOOP ON ERROR^
 20544
 20545					;*****     FAILURE ANALYSIS     *****
 20546					;C(AC0)		C(AC1)		FAILING SIGNAL
 20547
 20548					;-1,,-1				FC: AD AR + EN
 20549
 20550					;**********
 20551
 20552					;THIS TEST VERIFIES THAT TDO PLACES ONES IN THE BITS OF THE AC
 20553					;WHICH ARE MASKED BY C(E) AND DOES NOT EFFECT THE UNMASKED BITS OF THE AC.
 20554					;IN THIS CASE C(AC)=0 AND C(E)=-1,,0.  HENCE, THE RESULT IN THE AC SHOULD BE -1,,0
 20555					;THE AC IS CHECKED FOR -1,,0.  IF C(AC)=-1,,0, THIS TEST PASSES
 20556
 20557	042030	400 00 0 00 000000 	B21100:	SETZ			;PRELOAD AC WITH 0
 20558	042031	670 00 0 00 070331 		TDO	[XWD -1,0]	;*TDO SHOULD PLACE -1,,0 INTO THE AC
 20559	042032	312 00 0 00 070331 		CAME	[XWD -1,0]	;PASS IF C(AC)=-1,,0
 20560						STOP^
 20561	042033	254 04 0 00 042034 		HALT	.+1		;TEST FAILED IF PROGRAM HALTS HERE
 20562	042034	324 00 0 00 042035 		JUMPA	.+1		;IF TEST FAILS, CHANGE THIS INSTRUCTION (JUMPA .+1) TO
 20563									;JUMPA X (X IS THE ADDRESS OF THE FIRST INSTRUCTION
 20564									;IN THE SUBTEST) TO LOOP ON ERROR^
 20565
 20566					;**********
DFKAA PDP-10 KL10 BASIC INSTRUCTION DIAGNOSTIC (1) VER 0,2	MACRO %53B(1254)-4 11:50 11-Nov-24 Page 20
DFKAA3	MAC	13-Jan-89 10:22		TEST OF LOGICAL TEST INSTRUCTIONS

 20567					;THIS TEST VERIFIES THAT TSO PLACES ONES IN THE BITS OF THE AC
 20568					;WHICH ARE MASKED BY BOTH HALVES OF C(E) SWAPPED.
 20569					;THE UNMASKED BITS OF THE AC ARE NOT AFFECTED
 20570					;IN THIS CASE, C(AC)=0 AND C(E)=-1,,0.  HENCE,
 20571					;THE RESULT IN THE AC SHOULD BE 0,,-1.  THE AC IS
 20572					;CHECKED FOR 0,,-1.  THIS TEST PASSES IF C(AC)=0,,-1
 20573
 20574	042035	400 00 0 00 000000 	B21400:	SETZ			;PRESET AC WITH 0
 20575	042036	671 00 0 00 070331 		TSO	[XWD -1,0]	;*TSO SHOULD PLACE 0,,-1 INTO THE AC
 20576	042037	312 00 0 00 070330 		CAME	[XWD 0,-1]	;PASS IF C(AC)=0,,-1
 20577						STOP^
 20578	042040	254 04 0 00 042041 		HALT	.+1		;TEST FAILED IF PROGRAM HALTS HERE
 20579	042041	324 00 0 00 042042 		JUMPA	.+1		;IF TEST FAILS, CHANGE THIS INSTRUCTION (JUMPA .+1) TO
 20580									;JUMPA X (X IS THE ADDRESS OF THE FIRST INSTRUCTION
 20581									;IN THE SUBTEST) TO LOOP ON ERROR^
 20582
 20583					;*****     FAILURE ANALYSIS     *****
 20584					;C(AC0)		C(AC1)		FAILING SIGNAL
 20585
 20586					;0				SW: FCE
 20587					;0				SW: ET0
 20588					;0				SW: ET1
 20589					;0				FC: AD FM + EN
 20590					;0				FC: AD AR + EN
 20591					;0				ET0: AR SWAP
 20592					;0				ET0: AD FM + EN
 20593					;0				ET0: AD AR + EN
 20594					;0				ET1: BR AR EN
 20595					;0				ET1: AD BR - EN
 20596					;-1,,-1				ET1: AD AR + EN
 20597					;0				ET1: AD EQV
 20598
 20599					;**********
 20600
 20601					;THIS TEST VERIFIES THAT TSO PLACES ONES IN THE BITS OF THE AC
 20602					;WHICH ARE MASKED BY BOTH HALVES OF C(E) SWAPPED.
 20603					;THE UNMASKED BITS OF THE AC ARE NOT AFFECTED
 20604					;IN THIS CASE, C(AC)=0 AND C(E)=0,,-1.  HENCE,
 20605					;THE RESULT IN THE AC SHOULD BE -1,,0.  THE AC IS
 20606					;CHECKED FOR -1,,0.  THIS TEST PASSES IF C(AC)=-1,,0
 20607
 20608	042042	400 00 0 00 000000 	B21500:	SETZ			;PRESET AC WITH 0
 20609	042043	671 00 0 00 070330 		TSO	[XWD 0,-1]	;*TSO SHOULD PLACE -1,,0 INTO THE AC
 20610	042044	312 00 0 00 070331 		CAME	[XWD -1,0]	;PASS IF C(AC)=-1,,0
 20611						STOP^
 20612	042045	254 04 0 00 042046 		HALT	.+1		;TEST FAILED IF PROGRAM HALTS HERE
 20613	042046	324 00 0 00 042047 		JUMPA	.+1		;IF TEST FAILS, CHANGE THIS INSTRUCTION (JUMPA .+1) TO
 20614									;JUMPA X (X IS THE ADDRESS OF THE FIRST INSTRUCTION
 20615									;IN THE SUBTEST) TO LOOP ON ERROR^
 20616
 20617					;**********
DFKAA PDP-10 KL10 BASIC INSTRUCTION DIAGNOSTIC (1) VER 0,2	MACRO %53B(1254)-4 11:50 11-Nov-24 Page 21
DFKAA3	MAC	13-Jan-89 10:22		TEST OF LOGICAL TEST INSTRUCTIONS

 20618					;THIS TEST VERIFIES THAT TSO PLACES ONES IN THE BITS OF THE AC
 20619					;WHICH ARE MASKED BY BOTH HALVES OF C(E) SWAPPED.
 20620					;THE UNMASKED BITS OF THE AC ARE NOT AFFECTED
 20621					;IN THIS CASE, C(AC)=0 AND C(E)=0,,-1.  HENCE,
 20622					;THE RESULT IN THE AC SHOULD BE -1,,0.  THE AC IS
 20623					;CHECKED FOR ITS CONTENTS NON-ZERO.  THIS TEST PASSES IF C(AC) IS NON-ZERO
 20624
 20625	042047	400 00 0 00 000000 	B21600:	SETZ			;PRELOAD AC,E WITH 0
 20626	042050	671 00 0 00 000000 		TSO			;*TSO SHOULD PLACE 0 INTO THE AC
 20627	042051	332 00 0 00 000000 		SKIPE			;PASS IF C(AC)=0
 20628						STOP^
 20629	042052	254 04 0 00 042053 		HALT	.+1		;TEST FAILED IF PROGRAM HALTS HERE
 20630	042053	324 00 0 00 042054 		JUMPA	.+1		;IF TEST FAILS, CHANGE THIS INSTRUCTION (JUMPA .+1) TO
 20631									;JUMPA X (X IS THE ADDRESS OF THE FIRST INSTRUCTION
 20632									;IN THE SUBTEST) TO LOOP ON ERROR^
 20633
 20634					;**********
 20635
 20636					;THIS TEST VERIFIES THAT TSO PLACES ONES IN THE BITS OF THE AC
 20637					;WHICH ARE MASKED BY BOTH HALVES OF C(E) SWAPPED.
 20638					;THE UNMASKED BITS OF THE AC ARE NOT AFFECTED
 20639					;IN THIS CASE, AC=E AND C(AC)=C(E)=-1,,-1.  HENCE,
 20640					;THE RESULT IN THE AC SHOULD BE -1,,-1.  THE AC IS
 20641					;CHECKED FOR -1,,-1.  THIS TEST PASSES IF C(AC) -1,,-1
 20642
 20643	042054	474 00 0 00 000000 	B21700:	SETO			;PRELOAD AC,E WITH -1,,-1
 20644	042055	671 00 0 00 000000 		TSO			;*TSO SHOULD PLACE -1,,-1 INTO THE AC
 20645	042056	312 00 0 00 070254 		CAME	[-1]		;PASS IF C(AC)=-1,,-1
 20646						STOP^
 20647	042057	254 04 0 00 042060 		HALT	.+1		;TEST FAILED IF PROGRAM HALTS HERE
 20648	042060	324 00 0 00 042061 		JUMPA	.+1		;IF TEST FAILS, CHANGE THIS INSTRUCTION (JUMPA .+1) TO
 20649									;JUMPA X (X IS THE ADDRESS OF THE FIRST INSTRUCTION
 20650									;IN THE SUBTEST) TO LOOP ON ERROR^
 20651
 20652					;**********
DFKAA PDP-10 KL10 BASIC INSTRUCTION DIAGNOSTIC (1) VER 0,2	MACRO %53B(1254)-4 11:50 11-Nov-24 Page 22
DFKAA3	MAC	13-Jan-89 10:22		TEST OF LOGICAL TEST INSTRUCTIONS

 20653					;THIS TEST VERIFIES THAT TSO PLACES ONES IN THE BITS OF THE AC
 20654					;WHICH ARE MASKED BY BOTH HALVES OF C(E) SWAPPED.
 20655					;THE UNMASKED BITS OF THE AC ARE NOT AFFECTED
 20656					;IN THIS CASE, C(AC)=-1,,0 AND C(E)=0,,-1.  HENCE,
 20657					;THE RESULT IN THE AC SHOULD BE -1,,0.  THE AC IS
 20658					;CHECKED FOR -1,,0.  THIS TEST PASSES IF C(AC)=-1,,0
 20659
 20660	042061	200 00 0 00 070331 	B22200:	MOVE	[XWD -1,0]	;PRELOAD AC WITH -1,,0
 20661	042062	671 00 0 00 070330 		TSO	[XWD 0,-1]	;*TSO SHOULD PLACE -1,,0 INTO THE AC
 20662	042063	312 00 0 00 070331 		CAME	[-1,,0]		;PASS IF C(AC)=-1,,0
 20663						STOP^
 20664	042064	254 04 0 00 042065 		HALT	.+1		;TEST FAILED IF PROGRAM HALTS HERE
 20665	042065	324 00 0 00 042066 		JUMPA	.+1		;IF TEST FAILS, CHANGE THIS INSTRUCTION (JUMPA .+1) TO
 20666									;JUMPA X (X IS THE ADDRESS OF THE FIRST INSTRUCTION
 20667									;IN THE SUBTEST) TO LOOP ON ERROR^
 20668
 20669					;**********
 20670
 20671					;THIS TEST VERIFIES THAT TSO PLACES ONES IN THE BITS OF THE AC
 20672					;WHICH ARE MASKED BY BOTH HALVES OF C(E) SWAPPED.
 20673					;THE UNMASKED BITS OF THE AC ARE NOT AFFECTED
 20674					;IN THIS CASE, C(AC)=0,,-1 AND C(E)=0.  HENCE,
 20675					;THE RESULT IN THE AC SHOULD BE 0,,-1.  THE AC IS
 20676					;CHECKED FOR 0,,-1.  THIS TEST PASSES IF C(AC)=0,,-1
 20677
 20678	042066	201 00 0 00 777777 	B22300:	MOVEI	-1		;PRELOAD AC WITH 0,,-1
 20679	042067	671 00 0 00 070253 		TSO	[0]		;*TSO SHOULD PLACE 0,,-1 INTO THE AC
 20680	042070	312 00 0 00 070330 		CAME	[XWD 0,-1]	;PASS IF C(AC)=0,,-1
 20681						STOP^
 20682	042071	254 04 0 00 042072 		HALT	.+1		;TEST FAILED IF PROGRAM HALTS HERE
 20683	042072	324 00 0 00 042073 		JUMPA	.+1		;IF TEST FAILS, CHANGE THIS INSTRUCTION (JUMPA .+1) TO
 20684									;JUMPA X (X IS THE ADDRESS OF THE FIRST INSTRUCTION
 20685									;IN THE SUBTEST) TO LOOP ON ERROR^
 20686
 20687					;*****     FAILURE ANALYSIS     *****
 20688					;C(AC0)		C(AC1)		FAILING SIGNAL
 20689
 20690					;0				ET1: AD FM - EN
 20691					;0				ET2: AR AD EN
 20692
 20693					;**********
DFKAA PDP-10 KL10 BASIC INSTRUCTION DIAGNOSTIC (1) VER 0,2	MACRO %53B(1254)-4 11:50 11-Nov-24 Page 23
DFKAA3	MAC	13-Jan-89 10:22		TEST OF LOGICAL TEST INSTRUCTIONS

 20694					;THIS TEST VERIFIES THAT TSO PLACES ONES IN THE BITS OF THE AC
 20695					;WHICH ARE MASKED BY BOTH HALVES OF C(E) SWAPPED.
 20696					;THE UNMASKED BITS OF THE AC ARE NOT AFFECTED
 20697					;IN THIS CASE, C(AC)=-1,,0 AND C(E)=0.  HENCE,
 20698					;THE RESULT IN THE AC SHOULD BE -1,,0.  THE AC IS
 20699					;CHECKED FOR -1,,0.  THIS TEST PASSES IF C(AC)=-1,,0
 20700
 20701	042073	200 00 0 00 070331 	B22400:	MOVE	[XWD -1,0]	;PRELOAD AC WITH -1,,0
 20702	042074	671 00 0 00 070253 		TSO	[0]		;*TSO SHOULD PLACE -1,,0 INTO THE AC
 20703	042075	312 00 0 00 070331 		CAME	[XWD -1,0]	;PASS IF C(AC)=-1,,0
 20704						STOP^
 20705	042076	254 04 0 00 042077 		HALT	.+1		;TEST FAILED IF PROGRAM HALTS HERE
 20706	042077	324 00 0 00 042100 		JUMPA	.+1		;IF TEST FAILS, CHANGE THIS INSTRUCTION (JUMPA .+1) TO
 20707									;JUMPA X (X IS THE ADDRESS OF THE FIRST INSTRUCTION
 20708									;IN THE SUBTEST) TO LOOP ON ERROR^
 20709
 20710					;**********
 20711
 20712					;THIS TEST VERIFIES THAT TSO PLACES ONES IN THE BITS OF THE AC
 20713					;WHICH ARE MARKED BY BOTH HALVES OF C(E) SWAPPED.
 20714					;THE UNMASKED BITS OF THE AC ARE NOT AFFECTED
 20715					;IN THIS CASE, C(AC)=0,,-1 AND C(E)=-1,,-1.  HENCE,
 20716					;THE RESULT IN THE AC SHOULD BE -1,,-1.  THE AC IS
 20717					;CHECKED FOR -1,,-1.  THIS TEST PASSES IF C(AC)=-1,,-1
 20718
 20719	042100	201 00 0 00 777777 	B22500:	MOVEI	-1		;PRELOAD AC WITH 0,,-1
 20720	042101	671 00 0 00 070254 		TSO	[-1]		;*TSO SHOULD PLACE -1,,-1 INTO THE AC
 20721	042102	312 00 0 00 070254 		CAME	[-1]		;PASS IF C(AC)=-1,,-1
 20722						STOP^
 20723	042103	254 04 0 00 042104 		HALT	.+1		;TEST FAILED IF PROGRAM HALTS HERE
 20724	042104	324 00 0 00 042105 		JUMPA	.+1		;IF TEST FAILS, CHANGE THIS INSTRUCTION (JUMPA .+1) TO
 20725									;JUMPA X (X IS THE ADDRESS OF THE FIRST INSTRUCTION
 20726									;IN THE SUBTEST) TO LOOP ON ERROR^
 20727
 20728					;**********
DFKAA PDP-10 KL10 BASIC INSTRUCTION DIAGNOSTIC (1) VER 0,2	MACRO %53B(1254)-4 11:50 11-Nov-24 Page 24
DFKAA3	MAC	13-Jan-89 10:22		TEST OF LOGICAL TEST INSTRUCTIONS

 20729					;THIS TEST VERIFIES THAT TSO PLACES ONES IN THE BITS OF THE AC
 20730					;WHICH ARE MARKED BY BOTH HALVES OF C(E) SWAPPED.
 20731					;THE UNMASKED BITS OF THE AC ARE NOT AFFECTED
 20732					;IN THIS CASE, C(AC)=-1,,0 AND C(E)=-1,,-1.  HENCE,
 20733					;THE RESULT IN THE AC SHOULD BE -1,,-1.  THE AC IS
 20734					;CHECKED FOR -1,,-1.  THIS TEST PASSES IF C(AC)=-1,,-1
 20735
 20736	042105	200 00 0 00 070331 	B22600:	MOVE	[XWD -1,0]	;PRELOAD AC WITH -1,,0
 20737	042106	671 00 0 00 070254 		TSO	[-1]		;*TSO SHOULD PLACE -1,,-1 INTO THE AC
 20738	042107	312 00 0 00 070254 		CAME	[-1]		;PASS IF C(AC)=-1,,-1
 20739						STOP^
 20740	042110	254 04 0 00 042111 		HALT	.+1		;TEST FAILED IF PROGRAM HALTS HERE
 20741	042111	324 00 0 00 042112 		JUMPA	.+1		;IF TEST FAILS, CHANGE THIS INSTRUCTION (JUMPA .+1) TO
 20742									;JUMPA X (X IS THE ADDRESS OF THE FIRST INSTRUCTION
 20743									;IN THE SUBTEST) TO LOOP ON ERROR^
 20744
 20745					;**********
DFKAA PDP-10 KL10 BASIC INSTRUCTION DIAGNOSTIC (1) VER 0,2	MACRO %53B(1254)-4 11:50 11-Nov-24 Page 25
DFKAA3	MAC	13-Jan-89 10:22		TEST OF HWT INSTRUCTIONS

 20746					SUBTTL	TEST OF HWT INSTRUCTIONS
 20747
 20748					;**********
 20749
 20750					;THIS TEST VERIFIES THAT HLL PLACES THE LEFT HALF OF C(E) INTO
 20751					;THE LEFT HALF OF THE AC.  THE RIGHT HALF OF THE AC IS UNAFFECTED.
 20752					;IN THIS CASE AC=E AND C(AC)=C(E)=0.  HENCE, THE RESULT IN THE AC
 20753					;SHOULD BE 0.  THE AC IS CHECKED FOR 0.  IF C(AC)=0, THIS TEST PASSES
 20754
 20755	042112	400 00 0 00 000000 	B22700:	SETZ			;PRELOAD AC,E WITH 0
 20756	042113	500 00 0 00 000000 		HLL			;*HLL SHOULD PLACE 0 INTO THE AC
 20757	042114	332 00 0 00 000000 		SKIPE			;PASS IF C(AC)=0
 20758						STOP^
 20759	042115	254 04 0 00 042116 		HALT	.+1		;TEST FAILED IF PROGRAM HALTS HERE
 20760	042116	324 00 0 00 042117 		JUMPA	.+1		;IF TEST FAILS, CHANGE THIS INSTRUCTION (JUMPA .+1) TO
 20761									;JUMPA X (X IS THE ADDRESS OF THE FIRST INSTRUCTION
 20762									;IN THE SUBTEST) TO LOOP ON ERROR^
 20763
 20764					;*****     FAILURE ANALYSIS     *****
 20765					;C(AC0)		C(AC1)		FAILING SIGNAL
 20766
 20767					;-1,,0				FC: AD AR + EN
 20768					;0,,-1				FC: AD RT FM + EN
 20769
 20770					;**********
 20771
 20772					;THIS TEST VERIFIES THAT HLL PLACES THE LEFT HALF OF C(E) INTO
 20773					;THE LEFT HALF OF THE AC.  THE RIGHT HALF OF THE AC IS UNAFFECTED.
 20774					;IN THIS CASE, C(AC)=-1,,-1 AND C(E)=0.  HENCE, THE RESULT IN THE AC
 20775					;SHOULD BE 0,,-1.  THE AC IS CHECKED FOR 0,,-1.  IF C(AC)=0,,-1,
 20776					;THIS TEST PASSES.
 20777
 20778	042117	474 00 0 00 000000 	B23000:	SETO			;PRELOAD AC WITH -1,,-1
 20779	042120	500 00 0 00 070253 		HLL	[0]		;*HLL SHOULD PLACE 0,,-1 INTO THE AC
 20780	042121	302 00 0 00 777777 		CAIE	-1		;PASS IF C(AC)=0,,-1
 20781						STOP^
 20782	042122	254 04 0 00 042123 		HALT	.+1		;TEST FAILED IF PROGRAM HALTS HERE
 20783	042123	324 00 0 00 042124 		JUMPA	.+1		;IF TEST FAILS, CHANGE THIS INSTRUCTION (JUMPA .+1) TO
 20784									;JUMPA X (X IS THE ADDRESS OF THE FIRST INSTRUCTION
 20785									;IN THE SUBTEST) TO LOOP ON ERROR^
 20786
 20787					;*****     FAILURE ANALYSIS     *****
 20788					;C(AC0)		C(AC1)		FAILING SIGNAL
 20789
 20790					;0,,-1				SW: FCE
 20791					;0				ET2: AR AD EN
 20792
 20793					;**********
DFKAA PDP-10 KL10 BASIC INSTRUCTION DIAGNOSTIC (1) VER 0,2	MACRO %53B(1254)-4 11:50 11-Nov-24 Page 26
DFKAA3	MAC	13-Jan-89 10:22		TEST OF HWT INSTRUCTIONS

 20794					;THIS TEST VERIFIES THAT HLL PLACES THE LEFT HALF OF C(E) INTO
 20795					;THE LEFT HALF OF THE AC.  THE RIGHT HALF OF THE AC IS UNAFFECTED.
 20796					;IN THIS CASE AC=E AND C(AC)=C(E)=-1,,-1.  HENCE, THE RESULT IN THE AC
 20797					;SHOULD BE -1,,-1.  THE AC IS CHECKED FOR -1,,-1.  IF C(AC)=-1,,-1, THIS TEST PASSES.
 20798
 20799	042124	474 00 0 00 000000 	B23200:	SETO			;PRELOAD AC,E WITH -1,,-1
 20800	042125	500 00 0 00 000000 		HLL			;*HLL SHOULD PLACE -1,,-1 INTO THE AC
 20801	042126	312 00 0 00 070254 		CAME	[-1]		;PASS IF C(AC)=-1,,-1
 20802						STOP^
 20803	042127	254 04 0 00 042130 		HALT	.+1		;TEST FAILED IF PROGRAM HALTS HERE
 20804	042130	324 00 0 00 042131 		JUMPA	.+1		;IF TEST FAILS, CHANGE THIS INSTRUCTION (JUMPA .+1) TO
 20805									;JUMPA X (X IS THE ADDRESS OF THE FIRST INSTRUCTION
 20806									;IN THE SUBTEST) TO LOOP ON ERROR^
 20807
 20808					;**********
 20809
 20810					;THIS TEST VERIFIES THAT HLL PLACES THE LEFT HALF OF C(E) INTO
 20811					;THE LEFT HALF OF THE AC.  THE RIGHT HALF OF THE AC IS UNAFFECTED.
 20812					;IN THIS CASE C(AC)=0 AND C(E)=-1,,-1.  HENCE, THE RESULT IN THE AC
 20813					;SHOULD BE -1,,0.  THE AC IS CHECKED FOR -1,,0.  IF C(AC)=-1,,0,
 20814					;THIS TEST PASSES
 20815
 20816	042131	400 00 0 00 000000 	B23400:	SETZ			;PRELOAD AC WITH 0
 20817	042132	500 00 0 00 070254 		HLL	[-1]		;*HLL SHOULD PLACE -1,,0 INTO THE AC
 20818	042133	312 00 0 00 070331 		CAME	[XWD -1,0]	;PASS IF C(AC)=-1,,0
 20819						STOP^
 20820	042134	254 04 0 00 042135 		HALT	.+1		;TEST FAILED IF PROGRAM HALTS HERE
 20821	042135	324 00 0 00 042136 		JUMPA	.+1		;IF TEST FAILS, CHANGE THIS INSTRUCTION (JUMPA .+1) TO
 20822									;JUMPA X (X IS THE ADDRESS OF THE FIRST INSTRUCTION
 20823									;IN THE SUBTEST) TO LOOP ON ERROR^
 20824
 20825					;**********
DFKAA PDP-10 KL10 BASIC INSTRUCTION DIAGNOSTIC (1) VER 0,2	MACRO %53B(1254)-4 11:50 11-Nov-24 Page 27
DFKAA3	MAC	13-Jan-89 10:22		TEST OF HWT INSTRUCTIONS

 20826					;THIS TEST VERIFIES THAT HLL PLACES THE LEFT HALF OF C(E) INTO
 20827					;THE LEFT HALF OF THE AC.  THE RIGHT HALF OF THE AC IS UNAFFECTED.
 20828					;IN THIS CASE, C(AC)=0 AND C(E)=-1,,0.  HENCE, THE RESULT IN THE AC
 20829					;SHOULD BE -1,,0.  THE AC IS CHECKED FOR -1,,0.  IF C(AC)=-1,,0,
 20830					;THIS TEST PASSES.
 20831
 20832	042136	400 00 0 00 000000 	B23600:	SETZ			;PRELOAD AC WITH 0
 20833	042137	500 00 0 00 070331 		HLL	[XWD -1,0]	;*HLL SHOULD PLACE -1,,0 INTO THE AC
 20834	042140	312 00 0 00 070331 		CAME	[XWD -1,0]	;PASS IF C(AC)=-1,,0
 20835						STOP^
 20836	042141	254 04 0 00 042142 		HALT	.+1		;TEST FAILED IF PROGRAM HALTS HERE
 20837	042142	324 00 0 00 042143 		JUMPA	.+1		;IF TEST FAILS, CHANGE THIS INSTRUCTION (JUMPA .+1) TO
 20838									;JUMPA X (X IS THE ADDRESS OF THE FIRST INSTRUCTION
 20839									;IN THE SUBTEST) TO LOOP ON ERROR^
 20840
 20841					;**********
 20842
 20843					;THIS TEST VERIFIES THAT HLL PLACES THE LEFT HALF OF C(E) INTO
 20844					;THE LEFT HALF OF THE AC.  THE RIGHT HALF OF THE AC IS UNAFFECTED.
 20845					;IN THIS CASE, C(AC)=-1,,-1 AND C(E)=0,,-1.  HENCE, THE RESULT IN THE AC
 20846					;SHOULD BE 0,,-1.  THE AC IS CHECKED FOR 0,,-1.  IF C(AC)=0,,-1,
 20847					;THIS TEST PASSES.
 20848
 20849	042143	474 00 0 00 000000 	B23700:	SETO			;PRELOAD AC WITH -1,,-1
 20850	042144	500 00 0 00 070330 		HLL	[XWD 0,-1]	;*HLL SHOULD PLACE 0,,-1 INTO THE AC
 20851	042145	302 00 0 00 777777 		CAIE	-1		;PASS IF C(AC)=0,,-1
 20852						STOP^
 20853	042146	254 04 0 00 042147 		HALT	.+1		;TEST FAILED IF PROGRAM HALTS HERE
 20854	042147	324 00 0 00 042150 		JUMPA	.+1		;IF TEST FAILS, CHANGE THIS INSTRUCTION (JUMPA .+1) TO
 20855									;JUMPA X (X IS THE ADDRESS OF THE FIRST INSTRUCTION
 20856									;IN THE SUBTEST) TO LOOP ON ERROR^
 20857
 20858					;**********
DFKAA PDP-10 KL10 BASIC INSTRUCTION DIAGNOSTIC (1) VER 0,2	MACRO %53B(1254)-4 11:50 11-Nov-24 Page 28
DFKAA3	MAC	13-Jan-89 10:22		TEST OF HWT INSTRUCTIONS

 20859					;THIS TEST VERIFIES THAT HLLZ PLACES THE LEFT HALF OF C(E) INTO
 20860					;THE LEFT HALF OF THE AC AND PLACES ZEROS INTO THE RIGHT HALF OF THE AC.
 20861					;IN THIS CASE, AC=E AND C(AC)=C(E)=0.  HENCE, THE RESULT IN THE AC
 20862					;SHOULD BE 0.  THE AC IS CHECKED FOR 0.  IF C(AC)=0, THIS TEST PASSES
 20863
 20864	042150	400 00 0 00 000000 	B24000:	SETZ			;PRELOAD AC,E WITH 0
 20865	042151	510 00 0 00 000000 		HLLZ			;*HLLZ SHOULD PLACE 0 INTO THE AC
 20866	042152	332 00 0 00 000000 		SKIPE			;PASS IF C(AC)=0
 20867						STOP^
 20868	042153	254 04 0 00 042154 		HALT	.+1		;TEST FAILED IF PROGRAM HALTS HERE
 20869	042154	324 00 0 00 042155 		JUMPA	.+1		;IF TEST FAILS, CHANGE THIS INSTRUCTION (JUMPA .+1) TO
 20870									;JUMPA X (X IS THE ADDRESS OF THE FIRST INSTRUCTION
 20871									;IN THE SUBTEST) TO LOOP ON ERROR^
 20872
 20873					;*****     FAILURE ANALYSIS     *****
 20874					;C(AC0)		C(AC1)		FAILING SIGNAL
 20875
 20876					;-1,,0				FC: AD LT AR + EN
 20877
 20878					;**********
 20879
 20880					;THIS TEST VERIFIES THAT HLLZ PLACES THE LEFT HALF OF C(E) INTO
 20881					;THE LEFT HALF OF THE AC AND PLACES ZEROS INTO THE RIGHT HALF OF THE AC.
 20882					;IN THIS CASE, C(AC)=-1,,-1 AND C(E)=-1,,-1.  HENCE, THE RESULT IN THE AC
 20883					;SHOULD BE -1,,0.  THE AC IS CHECKED FOR -1,,0.
 20884					;IF C(AC)=-1,,0, THIS TEST PASSES.
 20885
 20886	042155	474 00 0 00 000000 	B24300:	SETO			;PRELOAD AC WITH -1,,-1
 20887	042156	510 00 0 00 070254 		HLLZ	[-1]		;*HLLZ SHOULD PLACE -1,,0 INTO THE AC
 20888	042157	312 00 0 00 070331 		CAME	[XWD -1,0]	;PASS IF C(AC)=-1,,0
 20889						STOP^
 20890	042160	254 04 0 00 042161 		HALT	.+1		;TEST FAILED IF PROGRAM HALTS HERE
 20891	042161	324 00 0 00 042162 		JUMPA	.+1		;IF TEST FAILS, CHANGE THIS INSTRUCTION (JUMPA .+1) TO
 20892									;JUMPA X (X IS THE ADDRESS OF THE FIRST INSTRUCTION
 20893									;IN THE SUBTEST) TO LOOP ON ERROR^
 20894
 20895					;*****     FAILURE ANALYSIS     *****
 20896					;C(AC0)		C(AC1)		FAILING SIGNAL
 20897
 20898					;0				SW: FCE
 20899					;-1,,-1				ET2: AR LT AD EN
 20900
 20901					;**********
DFKAA PDP-10 KL10 BASIC INSTRUCTION DIAGNOSTIC (1) VER 0,2	MACRO %53B(1254)-4 11:50 11-Nov-24 Page 29
DFKAA3	MAC	13-Jan-89 10:22		TEST OF HWT INSTRUCTIONS

 20902					;THIS TEST VERIFIES THAT HLLZ PLACES THE LEFT HALF OF C(E) INTO
 20903					;THE LEFT HALF OF THE AC AND PLACES ZEROS INTO THE RIGHT HALF OF THE AC.
 20904					;IN THIS CASE, C(AC)=0 AND C(E)=-1,,-1.  HENCE, THE RESULT IN THE AC
 20905					;SHOULD BE -1,,0.  THE AC IS CHECKED FOR ITS CONTENTS NON-ZERO
 20906					;IF C(AC) IS NON-ZERO, THIS TEST PASSES.
 20907
 20908	042162	400 00 0 00 000000 	B24400:	SETZ			;PRELOAD AC WITH -1,,-1
 20909	042163	510 00 0 00 070254 		HLLZ	[-1]		;*HLLZ SHOULD PLACE -1,,0 INTO THE AC
 20910	042164	312 00 0 00 070331 		CAME	[XWD -1,0]	;PASS IF C(AC)=-1,,0
 20911						STOP^
 20912	042165	254 04 0 00 042166 		HALT	.+1		;TEST FAILED IF PROGRAM HALTS HERE
 20913	042166	324 00 0 00 042167 		JUMPA	.+1		;IF TEST FAILS, CHANGE THIS INSTRUCTION (JUMPA .+1) TO
 20914									;JUMPA X (X IS THE ADDRESS OF THE FIRST INSTRUCTION
 20915									;IN THE SUBTEST) TO LOOP ON ERROR^
 20916
 20917					;**********
 20918
 20919					;THIS TEST VERIFIES THAT HLLZ PLACES THE LEFT HALF OF C(E) INTO
 20920					;THE LEFT HALF OF THE AC AND PLACES ZEROS INTO THE RIGHT HALF OF THE AC.
 20921					;IN THIS CASE, C(AC)=-1,,-1 AND C(E)=0.  HENCE, THE RESULT IN THE AC
 20922					;SHOULD BE 0.  THE AC IS CHECKED FOR ZERO
 20923					;IF C(AC) IS ZERO, THIS TEST PASSES.
 20924
 20925	042167	474 00 0 00 000000 	B24500:	SETO			;PRELOAD AC WITH -1,,-1
 20926	042170	510 00 0 00 070253 		HLLZ	[0]		;*HLLZ SHOULD PLACE -1,,0 INTO THE AC
 20927	042171	332 00 0 00 000000 		SKIPE			;PASS IF C(AC) IS ZERO.
 20928						STOP^
 20929	042172	254 04 0 00 042173 		HALT	.+1		;TEST FAILED IF PROGRAM HALTS HERE
 20930	042173	324 00 0 00 042174 		JUMPA	.+1		;IF TEST FAILS, CHANGE THIS INSTRUCTION (JUMPA .+1) TO
 20931									;JUMPA X (X IS THE ADDRESS OF THE FIRST INSTRUCTION
 20932									;IN THE SUBTEST) TO LOOP ON ERROR^
 20933
 20934					;**********
DFKAA PDP-10 KL10 BASIC INSTRUCTION DIAGNOSTIC (1) VER 0,2	MACRO %53B(1254)-4 11:50 11-Nov-24 Page 30
DFKAA3	MAC	13-Jan-89 10:22		TEST OF HWT INSTRUCTIONS

 20935					;THIS TEST VERIFIES THAT HLLZ PLACES THE LEFT HALF OF C(E) INTO
 20936					;THE LEFT HALF OF THE AC AND PLACES ZEROS INTO THE RIGHT HALF OF THE AC.
 20937					;IN THIS CASE, C(AC)=0 AND C(E)=0.  HENCE, THE RESULT IN THE AC
 20938					;SHOULD BE 0.  THE AC IS CHECKED FOR ZERO
 20939					;IF C(AC) IS ZERO, THIS TEST PASSES.
 20940
 20941	042174	400 00 0 00 000000 	B24600:	SETZ			;PRELOAD AC WITH 0
 20942	042175	510 00 0 00 070253 		HLLZ	[0]		;*HLLZ SHOULD PLACE 0 INTO THE AC
 20943	042176	332 00 0 00 000000 		SKIPE			;PASS IF C(AC) IS ZERO.
 20944						STOP^
 20945	042177	254 04 0 00 042200 		HALT	.+1		;TEST FAILED IF PROGRAM HALTS HERE
 20946	042200	324 00 0 00 042201 		JUMPA	.+1		;IF TEST FAILS, CHANGE THIS INSTRUCTION (JUMPA .+1) TO
 20947									;JUMPA X (X IS THE ADDRESS OF THE FIRST INSTRUCTION
 20948									;IN THE SUBTEST) TO LOOP ON ERROR^
 20949
 20950					;**********
 20951
 20952					;THIS TEST VERIFIES THAT HLLZI ALWAYS CLEARS THE AC.
 20953					;IN THIS CASE C(AC)=-1,,-1 AND E=0,,-1.
 20954					;THE RESULT IN THE AC SHOULD BE 0
 20955					;THE AC IS CHECKED FOR 0.  IF C(AC)=0, THIS TEST PASSES
 20956
 20957	042201	474 00 0 00 000000 	B24700:	SETO			;PRELOAD AC WITH -1,,-1
 20958	042202	511 00 0 00 777777 		HLLZI	-1		;*HLLZI SHOULD CLEAR THE AC
 20959	042203	332 00 0 00 000000 		SKIPE			;PASS IF C(AC)=0
 20960						STOP^
 20961	042204	254 04 0 00 042205 		HALT	.+1		;TEST FAILED IF PROGRAM HALTS HERE
 20962	042205	324 00 0 00 042206 		JUMPA	.+1		;IF TEST FAILS, CHANGE THIS INSTRUCTION (JUMPA .+1) TO
 20963									;JUMPA X (X IS THE ADDRESS OF THE FIRST INSTRUCTION
 20964									;IN THE SUBTEST) TO LOOP ON ERROR^
 20965
 20966					;*****     FAILURE ANALYSIS     *****
 20967					;C(AC0)		C(AC1)		FAILING SIGNAL
 20968
 20969					;-1,,0				FC: AD LT AR + EN
 20970					;0,,-1				ET2: AR LT AD EN
 20971
 20972					;**********
DFKAA PDP-10 KL10 BASIC INSTRUCTION DIAGNOSTIC (1) VER 0,2	MACRO %53B(1254)-4 11:50 11-Nov-24 Page 31
DFKAA3	MAC	13-Jan-89 10:22		TEST OF HWT INSTRUCTIONS

 20973					;THIS TEST VERIFIES THAT HLLZI ALWAYS CLEARS THE AC.
 20974					;IN THIS CASE C(AC)=0 AND E=0,,-1.
 20975					;THE RESULT IN THE AC SHOULD BE 0
 20976					;THE AC IS CHECKED FOR 0.  IF C(AC)=0, THIS TEST PASSES
 20977
 20978	042206	400 00 0 00 000000 	B25000:	SETZ			;PRELOAD AC WITH 0
 20979	042207	511 00 0 00 777777 		HLLZI	-1		;*HLLZI SHOULD CLEAR THE AC
 20980	042210	332 00 0 00 000000 		SKIPE			;PASS IF C(AC)=0
 20981						STOP^
 20982	042211	254 04 0 00 042212 		HALT	.+1		;TEST FAILED IF PROGRAM HALTS HERE
 20983	042212	324 00 0 00 042213 		JUMPA	.+1		;IF TEST FAILS, CHANGE THIS INSTRUCTION (JUMPA .+1) TO
 20984									;JUMPA X (X IS THE ADDRESS OF THE FIRST INSTRUCTION
 20985									;IN THE SUBTEST) TO LOOP ON ERROR^
 20986
 20987					;**********
 20988
 20989					;THIS TEST VERIFIES THAT HLLZ PLACES THE LEFT HALF OF C(E) INTO
 20990					;THE LEFT HALF OF THE AC AND PLACES ZEROS INTO THE RIGHT HALF OF THE AC.
 20991					;IN THIS CASE, C(AC)=-1,,-1 AND C(E)=-1,,0.  HENCE, THE RESULT IN THE AC
 20992					;SHOULD BE -1,,0.  THE AC IS CHECKED FOR -1,,0.
 20993					;IF C(AC)=-1,,0, THIS TEST PASSES.
 20994
 20995	042213	474 00 0 00 000000 	B25100:	SETO			;PRELOAD AC WITH -1,,-1
 20996	042214	510 00 0 00 070331 		HLLZ	[XWD -1,0]	;*HLLZ SHOULD PLACE -1,,0 INTO THE AC
 20997	042215	312 00 0 00 070331 		CAME	[XWD -1,0]	;PASS IF C(AC)=-1,,0.
 20998						STOP^
 20999	042216	254 04 0 00 042217 		HALT	.+1		;TEST FAILED IF PROGRAM HALTS HERE
 21000	042217	324 00 0 00 042220 		JUMPA	.+1		;IF TEST FAILS, CHANGE THIS INSTRUCTION (JUMPA .+1) TO
 21001									;JUMPA X (X IS THE ADDRESS OF THE FIRST INSTRUCTION
 21002									;IN THE SUBTEST) TO LOOP ON ERROR^
 21003
 21004					;**********
DFKAA PDP-10 KL10 BASIC INSTRUCTION DIAGNOSTIC (1) VER 0,2	MACRO %53B(1254)-4 11:50 11-Nov-24 Page 32
DFKAA3	MAC	13-Jan-89 10:22		TEST OF HWT INSTRUCTIONS

 21005					;THIS TEST VERIFIES THAT HLLZ PLACES THE LEFT HALF OF C(E) INTO
 21006					;THE LEFT HALF OF THE AC AND PLACES ZEROS INTO THE RIGHT HALF OF THE AC.
 21007					;IN THIS CASE, C(AC)=0 AND C(E)=-1,,0.  HENCE, THE RESULT IN THE AC
 21008					;SHOULD BE -1,,0.  THE AC IS CHECKED FOR -1,,0.
 21009					;IF C(AC)=-1,,0 THIS TEST PASSES.
 21010
 21011	042220	400 00 0 00 000000 	B25200:	SETZ			;PRELOAD AC WITH 0
 21012	042221	510 00 0 00 070331 		HLLZ	[XWD -1,0]	;*HLLZ SHOULD PLACE -1,,0 INTO THE AC
 21013	042222	312 00 0 00 070331 		CAME	[XWD -1,0]	;PASS IF C(AC)=-1,,0
 21014						STOP^
 21015	042223	254 04 0 00 042224 		HALT	.+1		;TEST FAILED IF PROGRAM HALTS HERE
 21016	042224	324 00 0 00 042225 		JUMPA	.+1		;IF TEST FAILS, CHANGE THIS INSTRUCTION (JUMPA .+1) TO
 21017									;JUMPA X (X IS THE ADDRESS OF THE FIRST INSTRUCTION
 21018									;IN THE SUBTEST) TO LOOP ON ERROR^
 21019
 21020					;**********
 21021
 21022					;THIS TEST VERIFIES THAT HLLZ PLACES THE LEFT HALF OF C(E) INTO
 21023					;THE LEFT HALF OF THE AC AND PLACES ZEROS INTO THE RIGHT HALF OF THE AC.
 21024					;IN THIS CASE, C(AC)=0,,-1 AND C(E)=-1,,-1.  HENCE, THE RESULT IN THE AC
 21025					;SHOULD BE -1,,0.  THE AC IS CHECKED FOR -1,,0.
 21026					;IF C(AC)=-1,,0, THIS TEST PASSES.
 21027
 21028	042225	201 00 0 00 777777 	B25300:	MOVEI	-1		;PRELOAD AC WITH -1,,-1
 21029	042226	510 00 0 00 070254 		HLLZ	[-1]		;*HLLZ SHOULD PLACE -1,,0 INTO THE AC
 21030	042227	312 00 0 00 070331 		CAME	[XWD -1,0]	;PASS IF C(AC)=-1,,0
 21031						STOP^
 21032	042230	254 04 0 00 042231 		HALT	.+1		;TEST FAILED IF PROGRAM HALTS HERE
 21033	042231	324 00 0 00 042232 		JUMPA	.+1		;IF TEST FAILS, CHANGE THIS INSTRUCTION (JUMPA .+1) TO
 21034									;JUMPA X (X IS THE ADDRESS OF THE FIRST INSTRUCTION
 21035									;IN THE SUBTEST) TO LOOP ON ERROR^
 21036
 21037					;**********
DFKAA PDP-10 KL10 BASIC INSTRUCTION DIAGNOSTIC (1) VER 0,2	MACRO %53B(1254)-4 11:50 11-Nov-24 Page 33
DFKAA3	MAC	13-Jan-89 10:22		TEST OF HWT INSTRUCTIONS

 21038					;THIS TEST VERIFIES THAT HLLZ PLACES THE LEFT HALF OF C(E) INTO
 21039					;THE LEFT HALF OF THE AC AND PLACES ZEROS INTO THE RIGHT HALF OF THE AC.
 21040					;IN THIS CASE, C(AC)=-1,,0 AND C(E)=-1,,-1.  HENCE, THE RESULT IN THE AC
 21041					;SHOULD BE -1,,0.  THE AC IS CHECKED FOR -1,,0.
 21042					;IF C(AC)=-1,,0 THIS TEST PASSES.
 21043
 21044	042232	205 00 0 00 777777 	B25400:	MOVSI	-1		;PRELOAD AC WITH -1,,0
 21045	042233	510 00 0 00 070254 		HLLZ	[-1]		;*HLLZ SHOULD PLACE -1,,0 INTO THE AC
 21046	042234	312 00 0 00 070331 		CAME	[XWD -1,0]	;PASS IF C(AC)=-1,,0.
 21047						STOP^
 21048	042235	254 04 0 00 042236 		HALT	.+1		;TEST FAILED IF PROGRAM HALTS HERE
 21049	042236	324 00 0 00 042237 		JUMPA	.+1		;IF TEST FAILS, CHANGE THIS INSTRUCTION (JUMPA .+1) TO
 21050									;JUMPA X (X IS THE ADDRESS OF THE FIRST INSTRUCTION
 21051									;IN THE SUBTEST) TO LOOP ON ERROR^
 21052
 21053					;**********
 21054
 21055					;THIS TEST VERIFIES THAT HLLZ PLACES THE LEFT HALF OF C(E) INTO
 21056					;THE LEFT HALF OF THE AC AND PLACES ZEROS INTO THE RIGHT HALF OF THE AC.
 21057					;IN THIS CASE, C(AC)=0,,-1 AND C(E)=0.  HENCE, THE RESULT IN THE AC
 21058					;SHOULD BE 0.  THE AC IS CHECKED FOR ZERO.
 21059					;IF C(AC) IS ZERO, THIS TEST PASSES.
 21060
 21061	042237	201 00 0 00 777777 	B25500:	MOVEI	-1		;PRELOAD AC WITH 0,,-1
 21062	042240	510 00 0 00 070253 		HLLZ	[0]		;*HLLZ SHOULD PLACE 0 INTO THE AC
 21063	042241	332 00 0 00 000000 		SKIPE			;PASS IF C(AC) IS ZERO.
 21064						STOP^
 21065	042242	254 04 0 00 042243 		HALT	.+1		;TEST FAILED IF PROGRAM HALTS HERE
 21066	042243	324 00 0 00 042244 		JUMPA	.+1		;IF TEST FAILS, CHANGE THIS INSTRUCTION (JUMPA .+1) TO
 21067									;JUMPA X (X IS THE ADDRESS OF THE FIRST INSTRUCTION
 21068									;IN THE SUBTEST) TO LOOP ON ERROR^
 21069
 21070					;**********
DFKAA PDP-10 KL10 BASIC INSTRUCTION DIAGNOSTIC (1) VER 0,2	MACRO %53B(1254)-4 11:50 11-Nov-24 Page 34
DFKAA3	MAC	13-Jan-89 10:22		TEST OF HWT INSTRUCTIONS

 21071					;THIS TEST VERIFIES THAT HLLZ PLACES THE LEFT HALF OF C(E) INTO
 21072					;THE LEFT HALF OF THE AC AND PLACES ZEROS INTO THE RIGHT HALF OF THE AC.
 21073					;IN THIS CASE, C(AC)=-1,,0 AND C(E)=0.  HENCE, THE RESULT IN THE AC
 21074					;SHOULD BE 0.  THE AC IS CHECKED FOR ZERO.
 21075					;IF C(AC) IS ZERO, THIS TEST PASSES.
 21076
 21077	042244	205 00 0 00 777777 	B25600:	MOVSI	-1		;PRELOAD AC WITH -1,,0
 21078	042245	510 00 0 00 070253 		HLLZ	[0]		;*HLLZ SHOULD PLACE -1,,0 INTO THE AC
 21079	042246	332 00 0 00 000000 		SKIPE			;PASS IF C(AC) IS ZERO.
 21080						STOP^
 21081	042247	254 04 0 00 042250 		HALT	.+1		;TEST FAILED IF PROGRAM HALTS HERE
 21082	042250	324 00 0 00 042251 		JUMPA	.+1		;IF TEST FAILS, CHANGE THIS INSTRUCTION (JUMPA .+1) TO
 21083									;JUMPA X (X IS THE ADDRESS OF THE FIRST INSTRUCTION
 21084									;IN THE SUBTEST) TO LOOP ON ERROR^
 21085
 21086					;**********
 21087
 21088					;THIS TEST VERIFIES THAT HLLZ PLACES THE LEFT HALF OF C(E) INTO
 21089					;THE LEFT HALF OF THE AC AND PLACES ZEROS INTO THE RIGHT HALF OF THE AC.
 21090					;IN THIS CASE, C(AC)=0,,-1 AND C(E)=-1,,0.  HENCE, THE RESULT IN THE AC
 21091					;SHOULD BE -1,,0.  THE AC IS CHECKED FOR -1,,0.
 21092					;IF C(AC)=-1,,0, THIS TEST PASSES.
 21093
 21094	042251	201 00 0 00 777777 	B25700:	MOVEI	-1		;PRELOAD AC WITH 0,,-1
 21095	042252	510 00 0 00 070331 		HLLZ	[XWD -1,0]	;*HLLZ SHOULD PLACE -1,,0 INTO THE AC
 21096	042253	312 00 0 00 070331 		CAME	[XWD -1,0]	;PASS IF C(AC)=-1,,0
 21097						STOP^
 21098	042254	254 04 0 00 042255 		HALT	.+1		;TEST FAILED IF PROGRAM HALTS HERE
 21099	042255	324 00 0 00 042256 		JUMPA	.+1		;IF TEST FAILS, CHANGE THIS INSTRUCTION (JUMPA .+1) TO
 21100									;JUMPA X (X IS THE ADDRESS OF THE FIRST INSTRUCTION
 21101									;IN THE SUBTEST) TO LOOP ON ERROR^
 21102
 21103					;**********
DFKAA PDP-10 KL10 BASIC INSTRUCTION DIAGNOSTIC (1) VER 0,2	MACRO %53B(1254)-4 11:50 11-Nov-24 Page 35
DFKAA3	MAC	13-Jan-89 10:22		TEST OF HWT INSTRUCTIONS

 21104					;THIS TEST VERIFIES THAT HLLZI ALWAYS CLEARS THE AC.
 21105					;IN THIS CASE C(AC)=0,,-1 AND E=0,,-1.
 21106					;THE RESULT IN THE AC SHOULD BE 0
 21107					;THE AC IS CHECKED FOR 0.  IF C(AC)=0, THIS TEST PASSES
 21108
 21109	042256	201 00 0 00 777777 	B26000:	MOVEI	-1		;PRELOAD AC WITH 0,,-1
 21110	042257	511 00 0 00 777777 		HLLZI	-1		;*HLLZI SHOULD CLEAR THE AC
 21111	042260	332 00 0 00 000000 		SKIPE			;PASS IF C(AC)=0
 21112						STOP^
 21113	042261	254 04 0 00 042262 		HALT	.+1		;TEST FAILED IF PROGRAM HALTS HERE
 21114	042262	324 00 0 00 042263 		JUMPA	.+1		;IF TEST FAILS, CHANGE THIS INSTRUCTION (JUMPA .+1) TO
 21115									;JUMPA X (X IS THE ADDRESS OF THE FIRST INSTRUCTION
 21116									;IN THE SUBTEST) TO LOOP ON ERROR^
 21117
 21118					;**********
 21119
 21120					;THIS TEST VERIFIES THAT HLLZ PLACES THE LEFT HALF OF C(E) INTO
 21121					;THE LEFT HALF OF THE AC AND PLACES ZEROS INTO THE RIGHT HALF OF THE AC.
 21122					;IN THIS CASE, C(AC)=-1,,0 AND C(E)=-1,,0.  HENCE, THE RESULT IN THE AC
 21123					;SHOULD BE -1,,0.  THE AC IS CHECKED FOR -1,,0.
 21124					;IF C(AC)=-1,,0, THIS TEST PASSES.
 21125
 21126	042263	205 00 0 00 777777 	B26100:	MOVSI	-1		;PRELOAD AC WITH -1,,0
 21127	042264	510 00 0 00 070331 		HLLZ	[XWD -1,0]	;*HLLZ SHOULD PLACE -1,,0 INTO THE AC
 21128	042265	312 00 0 00 070331 		CAME	[XWD -1,0]	;PASS IF C(AC)=-1,,0
 21129						STOP^
 21130	042266	254 04 0 00 042267 		HALT	.+1		;TEST FAILED IF PROGRAM HALTS HERE
 21131	042267	324 00 0 00 042270 		JUMPA	.+1		;IF TEST FAILS, CHANGE THIS INSTRUCTION (JUMPA .+1) TO
 21132									;JUMPA X (X IS THE ADDRESS OF THE FIRST INSTRUCTION
 21133									;IN THE SUBTEST) TO LOOP ON ERROR^
 21134
 21135					;**********
DFKAA PDP-10 KL10 BASIC INSTRUCTION DIAGNOSTIC (1) VER 0,2	MACRO %53B(1254)-4 11:50 11-Nov-24 Page 36
DFKAA3	MAC	13-Jan-89 10:22		TEST OF HWT INSTRUCTIONS

 21136					;THIS TEST VERIFIES THAT HLLZI ALWAYS CLEARS THE AC.
 21137					;IN THIS CASE C(AC)=-1,,0 AND E=0,,-1.
 21138					;THE RESULT IN THE AC SHOULD BE 0
 21139					;THE AC IS CHECKED FOR 0.  IF C(AC)=0, THIS TEST PASSES
 21140
 21141	042270	205 00 0 00 777777 	B26200:	MOVSI	-1		;PRELOAD AC WITH -1,,0
 21142	042271	511 00 0 00 777777 		HLLZI	-1		;*HLLZI SHOULD CLEAR THE AC
 21143	042272	332 00 0 00 000000 		SKIPE			;PASS IF C(AC)=0
 21144						STOP^
 21145	042273	254 04 0 00 042274 		HALT	.+1		;TEST FAILED IF PROGRAM HALTS HERE
 21146	042274	324 00 0 00 042275 		JUMPA	.+1		;IF TEST FAILS, CHANGE THIS INSTRUCTION (JUMPA .+1) TO
 21147									;JUMPA X (X IS THE ADDRESS OF THE FIRST INSTRUCTION
 21148									;IN THE SUBTEST) TO LOOP ON ERROR^
 21149
 21150					;**********
 21151
 21152					;THIS TEST VERIFIES THAT HRR PLACES THE RIGHT HALF OF C(E) INTO
 21153					;THE RIGHT HALF OF THE AC.  THE LEFT HALF OF THE AC IS UNAFFECTED.
 21154					;IN THIS CASE AC=E AND C(AC)=C(E)=0.  HENCE, THE RESULT IN THE AC
 21155					;SHOULD BE 0.  THE AC IS CHECKED FOR 0.  IF C(AC)=0, THIS TEST PASSES.
 21156
 21157	042275	400 00 0 00 000000 	B26300:	SETZ			;PRELOAD AC WITH 0
 21158	042276	540 00 0 00 000000 		HRR			;*HRR SHOULD PLACE 0 INTO THE AC
 21159	042277	332 00 0 00 000000 		SKIPE			;PASS IF C(AC)=0
 21160						STOP^
 21161	042300	254 04 0 00 042301 		HALT	.+1		;TEST FAILED IF PROGRAM HALTS HERE
 21162	042301	324 00 0 00 042302 		JUMPA	.+1		;IF TEST FAILS, CHANGE THIS INSTRUCTION (JUMPA .+1) TO
 21163									;JUMPA X (X IS THE ADDRESS OF THE FIRST INSTRUCTION
 21164									;IN THE SUBTEST) TO LOOP ON ERROR^
 21165
 21166					;*****     FAILURE ANALYSIS     *****
 21167					;C(AC0)		C(AC1)		FAILING SIGNAL
 21168
 21169					;0,,-1				FC: AD RT AR + EN
 21170					;-1,,0				FC: AD LT FM + EN
 21171
 21172					;**********
DFKAA PDP-10 KL10 BASIC INSTRUCTION DIAGNOSTIC (1) VER 0,2	MACRO %53B(1254)-4 11:50 11-Nov-24 Page 37
DFKAA3	MAC	13-Jan-89 10:22		TEST OF HWT INSTRUCTIONS

 21173					;THIS TEST VERIFIES THAT HRR PLACES THE RIGHT HALF OF C(E) INTO
 21174					;THE RIGHT HALF OF THE AC.  THE LEFT HALF OF THE AC IS UNAFFECTED.
 21175					;IN THIS CASE AC=E AND C(AC)=C(E)=-1,,-1.  HENCE, THE RESULT IN THE AC
 21176					;SHOULD BE -1,,-1.  THE AC IS CHECKED FOR -1,,-1.  IF C(AC)=-1,,-1, THIS TEST PASSES.
 21177
 21178	042302	474 00 0 00 000000 	B26500:	SETO			;PRELOAD AC WITH -1,,-1
 21179	042303	540 00 0 00 000000 		HRR			;*HRR SHOULD PLACE -1,,-1 INTO THE AC
 21180	042304	312 00 0 00 070254 		CAME	[-1]		;PASS IF C(AC)=-1,,-1
 21181						STOP^
 21182	042305	254 04 0 00 042306 		HALT	.+1		;TEST FAILED IF PROGRAM HALTS HERE
 21183	042306	324 00 0 00 042307 		JUMPA	.+1		;IF TEST FAILS, CHANGE THIS INSTRUCTION (JUMPA .+1) TO
 21184									;JUMPA X (X IS THE ADDRESS OF THE FIRST INSTRUCTION
 21185									;IN THE SUBTEST) TO LOOP ON ERROR^
 21186
 21187					;*****     FAILURE ANALYSIS     *****
 21188					;C(AC0)		C(AC1)		FAILING SIGNAL
 21189
 21190					;-1,,0				SW: FCE
 21191
 21192					;**********
 21193
 21194					;THIS TEST VERIFIES THAT HRR PLACES THE RIGHT HALF OF C(E) INTO
 21195					;THE RIGHT HALF OF THE AC.  THE LEFT HALF OF THE AC IS UNAFFECTED.
 21196					;IN THIS CASE C(AC)=0 AND C(E)=-1,,0.  HENCE, THE RESULT IN THE AC
 21197					;SHOULD BE -1,,0.  THE AC IS CHECKED FOR -1,,0.  IF C(AC)=-1,,0, THIS TEST PASSES.
 21198
 21199	042307	474 00 0 00 000000 	B26600:	SETO			;PRELOAD AC WITH -1,,-1
 21200	042310	540 00 0 00 070331 		HRR	[XWD -1,0]	;*HRR SHOULD PLACE -1,,0 INTO THE AC
 21201	042311	312 00 0 00 070331 		CAME	[XWD -1,0]	;PASS IF C(AC)=-1,,0
 21202						STOP^
 21203	042312	254 04 0 00 042313 		HALT	.+1		;TEST FAILED IF PROGRAM HALTS HERE
 21204	042313	324 00 0 00 042314 		JUMPA	.+1		;IF TEST FAILS, CHANGE THIS INSTRUCTION (JUMPA .+1) TO
 21205									;JUMPA X (X IS THE ADDRESS OF THE FIRST INSTRUCTION
 21206									;IN THE SUBTEST) TO LOOP ON ERROR^
 21207
 21208					;**********
DFKAA PDP-10 KL10 BASIC INSTRUCTION DIAGNOSTIC (1) VER 0,2	MACRO %53B(1254)-4 11:50 11-Nov-24 Page 38
DFKAA3	MAC	13-Jan-89 10:22		TEST OF HWT INSTRUCTIONS

 21209					;THIS TEST VERIFIES THAT HRRI PLACES E INTO
 21210					;THE RIGHT HALF OF THE AC.  THE LEFT HALF OF THE AC IS UNAFFECTED
 21211					;IN THIS CASE C(AC)=-1,,-1 AND E=0,,-1.  HENCE, THE RESULT IN THE AC
 21212					;SHOULD BE -1,,-1.  THE AC IS CHECKED FOR -1,,-1.  IF C(AC)=-1,,-1, THIS TEST PASSES.
 21213
 21214	042314	474 00 0 00 000000 	B26700:	SETO			;PRELOAD AC WITH -1,,-1
 21215	042315	541 00 0 00 777777 		HRRI	-1		;*HRRI SHOULD PLACE -1,,-1 INTO THE AC
 21216	042316	312 00 0 00 070254 		CAME	[-1]		;PASS IF C(AC)=-1,,-1
 21217						STOP^
 21218	042317	254 04 0 00 042320 		HALT	.+1		;TEST FAILED IF PROGRAM HALTS HERE
 21219	042320	324 00 0 00 042321 		JUMPA	.+1		;IF TEST FAILS, CHANGE THIS INSTRUCTION (JUMPA .+1) TO
 21220									;JUMPA X (X IS THE ADDRESS OF THE FIRST INSTRUCTION
 21221									;IN THE SUBTEST) TO LOOP ON ERROR^
 21222
 21223					;*****     FAILURE ANALYSIS     *****
 21224					;C(AC0)		C(AC1)		FAILING SIGNAL
 21225
 21226					;0,,-1				ET2: AR AD EN
 21227
 21228					;**********
 21229
 21230					;THIS TEST VERIFIES THAT HRR PLACES THE RIGHT HALF OF C(E) INTO
 21231					;THE RIGHT HALF OF THE AC.  THE LEFT HALF OF THE AC IS UNAFFECTED.
 21232					;IN THIS CASE C(AC)=-1,,-1 AND C(E)=0.  HENCE, THE RESULT IN THE AC
 21233					;SHOULD BE -1,,0.  THE AC IS CHECKED FOR -1,,0.  IF C(AC)=-1,,0, THIS TEST PASSES.
 21234
 21235	042321	474 00 0 00 000000 	B27000:	SETO			;PRELOAD AC WITH -1,,-1
 21236	042322	540 00 0 00 070253 		HRR	[0]		;*HRR SHOULD PLACE -1,,0 INTO THE AC
 21237	042323	312 00 0 00 070331 		CAME	[XWD -1,0]	;PASS IF C(AC)=0
 21238						STOP^
 21239	042324	254 04 0 00 042325 		HALT	.+1		;TEST FAILED IF PROGRAM HALTS HERE
 21240	042325	324 00 0 00 042326 		JUMPA	.+1		;IF TEST FAILS, CHANGE THIS INSTRUCTION (JUMPA .+1) TO
 21241									;JUMPA X (X IS THE ADDRESS OF THE FIRST INSTRUCTION
 21242									;IN THE SUBTEST) TO LOOP ON ERROR^
 21243
 21244					;*****     FAILURE ANALYSIS     *****
 21245					;C(AC0)		C(AC1)		FAILING SIGNAL
 21246
 21247					;0				ET2: AR AD EN
 21248
 21249					;**********
DFKAA PDP-10 KL10 BASIC INSTRUCTION DIAGNOSTIC (1) VER 0,2	MACRO %53B(1254)-4 11:50 11-Nov-24 Page 39
DFKAA3	MAC	13-Jan-89 10:22		TEST OF HWT INSTRUCTIONS

 21250					;THIS TEST VERIFIES THAT HRR PLACES THE RIGHT HALF OF C(E) INTO
 21251					;THE RIGHT HALF OF THE AC.  THE LEFT HALF OF THE AC IS UNAFFECTED.
 21252					;IN THIS CASE C(AC)=0 AND C(E)=0.  HENCE, THE RESULT IN THE AC
 21253					;SHOULD BE 0.  THE AC IS CHECKED FOR 0.  IF C(AC)=0, THIS TEST PASSES.
 21254
 21255	042326	400 00 0 00 000000 	B27100:	SETZ			;PRELOAD AC WITH 0
 21256	042327	540 00 0 00 070253 		HRR	[0]		;*HRR SHOULD PLACE 0 INTO THE AC
 21257	042330	332 00 0 00 000000 		SKIPE			;PASS IF C(AC)=0
 21258						STOP^
 21259	042331	254 04 0 00 042332 		HALT	.+1		;TEST FAILED IF PROGRAM HALTS HERE
 21260	042332	324 00 0 00 042333 		JUMPA	.+1		;IF TEST FAILS, CHANGE THIS INSTRUCTION (JUMPA .+1) TO
 21261									;JUMPA X (X IS THE ADDRESS OF THE FIRST INSTRUCTION
 21262									;IN THE SUBTEST) TO LOOP ON ERROR^
 21263
 21264					;**********
 21265
 21266					;THIS TEST VERIFIES THAT HRR PLACES THE RIGHT HALF OF C(E) INTO
 21267					;THE RIGHT HALF OF THE AC.  THE LEFT HALF OF THE AC IS UNAFFECTED.
 21268					;IN THIS CASE C(AC)=0 AND C(E)=-1,,-1.  HENCE, THE RESULT IN THE AC
 21269					;SHOULD BE 0,,-1.  THE AC IS CHECKED FOR 0,,-1.  IF C(AC)=0,,-1, THIS TEST PASSES.
 21270
 21271	042333	400 00 0 00 000000 	B27200:	SETZ			;PRELOAD AC WITH 0
 21272	042334	540 00 0 00 070254 		HRR	[-1]		;*HRR SHOULD PLACE 0,,-1 INTO THE AC
 21273	042335	302 00 0 00 777777 		CAIE	-1		;PASS IF C(AC)=0,,-1
 21274						STOP^
 21275	042336	254 04 0 00 042337 		HALT	.+1		;TEST FAILED IF PROGRAM HALTS HERE
 21276	042337	324 00 0 00 042340 		JUMPA	.+1		;IF TEST FAILS, CHANGE THIS INSTRUCTION (JUMPA .+1) TO
 21277									;JUMPA X (X IS THE ADDRESS OF THE FIRST INSTRUCTION
 21278									;IN THE SUBTEST) TO LOOP ON ERROR^
 21279
 21280					;**********
DFKAA PDP-10 KL10 BASIC INSTRUCTION DIAGNOSTIC (1) VER 0,2	MACRO %53B(1254)-4 11:50 11-Nov-24 Page 40
DFKAA3	MAC	13-Jan-89 10:22		TEST OF HWT INSTRUCTIONS

 21281					;THIS TEST VERIFIES THAT HRRI PLACES E INTO
 21282					;THE RIGHT HALF OF THE AC.  THE LEFT HALF OF THE AC IS UNAFFECTED
 21283					;IN THIS CASE C(AC)=0 AND E=0,,-1.  HENCE, THE RESULT IN THE AC
 21284					;SHOULD BE 0,,-1.  THE AC IS CHECKED FOR 0,,-1.  IF C(AC)=0,,-1, THIS TEST PASSES.
 21285
 21286	042340	400 00 0 00 000000 	B27300:	SETZ			;PRELOAD AC WITH 0
 21287	042341	541 00 0 00 777777 		HRRI	-1		;*HRRI SHOULD PLACE 0,,-1 INTO THE AC
 21288	042342	302 00 0 00 777777 		CAIE	-1		;PASS IF C(AC)=0,,-1
 21289						STOP^
 21290	042343	254 04 0 00 042344 		HALT	.+1		;TEST FAILED IF PROGRAM HALTS HERE
 21291	042344	324 00 0 00 042345 		JUMPA	.+1		;IF TEST FAILS, CHANGE THIS INSTRUCTION (JUMPA .+1) TO
 21292									;JUMPA X (X IS THE ADDRESS OF THE FIRST INSTRUCTION
 21293									;IN THE SUBTEST) TO LOOP ON ERROR^
 21294
 21295					;*****     FAILURE ANALYSIS     *****
 21296					;C(AC0)		C(AC1)		FAILING SIGNAL
 21297
 21298					;-1,,-1				FC: AD LT FM + EN
 21299
 21300					;**********
 21301
 21302					;THIS TEST VERIFIES THAT HRR PLACES THE RIGHT HALF OF C(E) INTO
 21303					;THE RIGHT HALF OF THE AC.  THE LEFT HALF OF THE AC IS UNAFFECTED.
 21304					;IN THIS CASE C(AC)=0 AND C(E)=-1,,0.  HENCE, THE RESULT IN THE AC
 21305					;SHOULD BE 0.  THE AC IS CHECKED FOR 0.  IF C(AC)=0, THIS TEST PASSES.
 21306
 21307	042345	400 00 0 00 000000 	B27400:	SETZ			;PRELOAD AC WITH 0
 21308	042346	540 00 0 00 070331 		HRR	[XWD -1,0]	;*HRR SHOULD PLACE 0 INTO THE AC
 21309	042347	332 00 0 00 000000 		SKIPE			;PASS IF C(AC)=0
 21310						STOP^
 21311	042350	254 04 0 00 042351 		HALT	.+1		;TEST FAILED IF PROGRAM HALTS HERE
 21312	042351	324 00 0 00 042352 		JUMPA	.+1		;IF TEST FAILS, CHANGE THIS INSTRUCTION (JUMPA .+1) TO
 21313									;JUMPA X (X IS THE ADDRESS OF THE FIRST INSTRUCTION
 21314									;IN THE SUBTEST) TO LOOP ON ERROR^
 21315
 21316					;**********
DFKAA PDP-10 KL10 BASIC INSTRUCTION DIAGNOSTIC (1) VER 0,2	MACRO %53B(1254)-4 11:50 11-Nov-24 Page 41
DFKAA3	MAC	13-Jan-89 10:22		TEST OF HWT INSTRUCTIONS

 21317					;THIS TEST VERIFIES THAT HRR PLACES THE RIGHT HALF OF C(E) INTO
 21318					;THE RIGHT HALF OF THE AC.  THE LEFT HALF OF THE AC IS UNAFFECTED.
 21319					;IN THIS CASE C(AC)=0,,-1 AND C(E)=-1,,0.  HENCE, THE RESULT IN THE AC
 21320					;SHOULD BE 0.  THE AC IS CHECKED FOR 0.  IF C(AC)=0, THIS TEST PASSES.
 21321
 21322	042352	201 00 0 00 777777 	B27500:	MOVEI	-1		;PRELOAD AC WITH 0,,-1
 21323	042353	540 00 0 00 070331 		HRR	[XWD -1,0]	;*HRR SHOULD PLACE 0 INTO THE AC
 21324	042354	332 00 0 00 000000 		SKIPE			;PASS IF C(AC)=0
 21325						STOP^
 21326	042355	254 04 0 00 042356 		HALT	.+1		;TEST FAILED IF PROGRAM HALTS HERE
 21327	042356	324 00 0 00 042357 		JUMPA	.+1		;IF TEST FAILS, CHANGE THIS INSTRUCTION (JUMPA .+1) TO
 21328									;JUMPA X (X IS THE ADDRESS OF THE FIRST INSTRUCTION
 21329									;IN THE SUBTEST) TO LOOP ON ERROR^
 21330
 21331					;**********
 21332
 21333					;THIS TEST VERIFIES THAT HRRI PLACES E INTO
 21334					;THE RIGHT HALF OF THE AC.  THE LEFT HALF OF THE AC IS UNAFFECTED
 21335					;IN THIS CASE C(AC)=-1,,0 AND E=0,,-1.  HENCE, THE RESULT IN THE AC
 21336					;SHOULD BE -1,,-1.  THE AC IS CHECKED FOR -1,,-1.  IF C(AC)=-1,,-1, THIS TEST PASSES.
 21337
 21338	042357	205 00 0 00 777777 	B27600:	MOVSI	-1		;PRELOAD AC WITH -1,,0
 21339	042360	541 00 0 00 777777 		HRRI	-1		;*HRRI SHOULD PLACE -1,,-1 INTO THE AC
 21340	042361	312 00 0 00 070254 		CAME	[-1]		;PASS IF C(AC)=-1,,-1
 21341						STOP^
 21342	042362	254 04 0 00 042363 		HALT	.+1		;TEST FAILED IF PROGRAM HALTS HERE
 21343	042363	324 00 0 00 042364 		JUMPA	.+1		;IF TEST FAILS, CHANGE THIS INSTRUCTION (JUMPA .+1) TO
 21344									;JUMPA X (X IS THE ADDRESS OF THE FIRST INSTRUCTION
 21345									;IN THE SUBTEST) TO LOOP ON ERROR^
 21346
 21347					;**********
DFKAA PDP-10 KL10 BASIC INSTRUCTION DIAGNOSTIC (1) VER 0,2	MACRO %53B(1254)-4 11:50 11-Nov-24 Page 42
DFKAA3	MAC	13-Jan-89 10:22		TEST OF HWT INSTRUCTIONS

 21348					;THIS TEST VERIFIES THAT HRRI PLACES E INTO
 21349					;THE RIGHT HALF OF THE AC.  THE LEFT HALF OF THE AC IS UNAFFECTED
 21350					;IN THIS CASE C(AC)=0,,-1 AND E=0,,-1.  HENCE, THE RESULT IN THE AC
 21351					;SHOULD BE 0,,-1.  THE AC IS CHECKED FOR 0,,-1.  IF C(AC)=0,,-1, THIS TEST PASSES.
 21352
 21353	042364	201 00 0 00 777777 	B27700:	MOVEI	-1		;PRELOAD AC WITH 0,,-1
 21354	042365	541 00 0 00 777777 		HRRI	-1		;*HRRI SHOULD PLACE 0,,-1 INTO THE AC
 21355	042366	302 00 0 00 777777 		CAIE	-1		;PASS IF C(AC)=0,,-1
 21356						STOP^
 21357	042367	254 04 0 00 042370 		HALT	.+1		;TEST FAILED IF PROGRAM HALTS HERE
 21358	042370	324 00 0 00 042371 		JUMPA	.+1		;IF TEST FAILS, CHANGE THIS INSTRUCTION (JUMPA .+1) TO
 21359									;JUMPA X (X IS THE ADDRESS OF THE FIRST INSTRUCTION
 21360									;IN THE SUBTEST) TO LOOP ON ERROR^
 21361
 21362					;**********
 21363
 21364					;THIS TEST VERIFIES THAT HRR PLACES THE RIGHT HALF OF C(E) INTO
 21365					;THE RIGHT HALF OF THE AC.  THE LEFT HALF OF THE AC IS UNAFFECTED.
 21366					;IN THIS CASE C(AC)=-1,,0 AND C(E)=-1,,0.  HENCE, THE RESULT IN THE AC
 21367					;SHOULD BE -1,,0.  THE AC IS CHECKED FOR -1,,0.  IF C(AC)=-1,,0, THIS TEST PASSES.
 21368
 21369	042371	205 00 0 00 777777 	B30000:	MOVSI	-1		;PRELOAD AC WITH -1,,0
 21370	042372	540 00 0 00 070331 		HRR	[XWD -1,0]	;*HRR SHOULD PLACE -1,,0 INTO THE AC
 21371	042373	312 00 0 00 070331 		CAME	[XWD -1,0]	;PASS IF C(AC)=-1,,0
 21372						STOP^
 21373	042374	254 04 0 00 042375 		HALT	.+1		;TEST FAILED IF PROGRAM HALTS HERE
 21374	042375	324 00 0 00 042376 		JUMPA	.+1		;IF TEST FAILS, CHANGE THIS INSTRUCTION (JUMPA .+1) TO
 21375									;JUMPA X (X IS THE ADDRESS OF THE FIRST INSTRUCTION
 21376									;IN THE SUBTEST) TO LOOP ON ERROR^
 21377
 21378					;**********
DFKAA PDP-10 KL10 BASIC INSTRUCTION DIAGNOSTIC (1) VER 0,2	MACRO %53B(1254)-4 11:50 11-Nov-24 Page 43
DFKAA3	MAC	13-Jan-89 10:22		TEST OF HWT INSTRUCTIONS

 21379					;THIS TEST VERIFIES THAT HRRZ PLACES THE RIGHT HALF OF C(E) INTO
 21380					;RIGHT HALF OF THE AC AND PLACES ZEROS INTO THE LEFT HALF OF THE AC
 21381					;IN THIS CASE, AC=E AND C(AC)=C(E)=0.  HENCE, THE RESULT IN THE AC
 21382					;SHOULD BE 0.  THE AC IS CHECKED FOR 0.  IF C(AC)=0, THIS TEST PASSES.
 21383
 21384	042376	400 00 0 00 000000 	B30100:	SETZ			;PRELOAD AC,E WITH 0
 21385	042377	550 00 0 00 000000 		HRRZ			;*HRRZ SHOULD PLACE 0 INTO THE AC
 21386	042400	332 00 0 00 000000 		SKIPE			;PASS IF C(AC)=0
 21387						STOP^
 21388	042401	254 04 0 00 042402 		HALT	.+1		;TEST FAILED IF PROGRAM HALTS HERE
 21389	042402	324 00 0 00 042403 		JUMPA	.+1		;IF TEST FAILS, CHANGE THIS INSTRUCTION (JUMPA .+1) TO
 21390									;JUMPA X (X IS THE ADDRESS OF THE FIRST INSTRUCTION
 21391									;IN THE SUBTEST) TO LOOP ON ERROR^
 21392
 21393					;*****     FAILURE ANALYSIS     *****
 21394					;C(AC0)		C(AC1)		FAILING SIGNAL
 21395
 21396					;0,,-1				FC: AD RT AR + EN
 21397
 21398					;**********
 21399
 21400					;THIS TEST VERIFIES THAT HRRZI PLACES E INTO
 21401					;THE RIGHT HALF OF THE AC AND CLEARS THE LEFT HALF OF THE AC
 21402					;IN THIS CASE C(AC)=-1,,-1.  HENCE, THE RESULT IN THE AC
 21403					;SHOULD BE 0,,-1.  THE AC IS CHECKED FOR 0,,-1.  IF C(AC)=0,,-1, THIS TEST PASSES
 21404
 21405	042403	474 00 0 00 000000 	B30400:	SETO			;PRELOAD AC WITH -1,,-1
 21406	042404	551 00 0 00 777777 		HRRZI	-1		;*HRRZI SHOULD PLACE 0,,-1 INTO THE AC
 21407	042405	302 00 0 00 777777 		CAIE	-1		;PASS IF C(AC)=0,,-1
 21408						STOP^
 21409	042406	254 04 0 00 042407 		HALT	.+1		;TEST FAILED IF PROGRAM HALTS HERE
 21410	042407	324 00 0 00 042410 		JUMPA	.+1		;IF TEST FAILS, CHANGE THIS INSTRUCTION (JUMPA .+1) TO
 21411									;JUMPA X (X IS THE ADDRESS OF THE FIRST INSTRUCTION
 21412									;IN THE SUBTEST) TO LOOP ON ERROR^
 21413
 21414					;**********
DFKAA PDP-10 KL10 BASIC INSTRUCTION DIAGNOSTIC (1) VER 0,2	MACRO %53B(1254)-4 11:50 11-Nov-24 Page 44
DFKAA3	MAC	13-Jan-89 10:22		TEST OF HWT INSTRUCTIONS

 21415					;THIS TEST VERIFIES THAT HRRZI PLACES E INTO
 21416					;THE RIGHT HALF OF THE AC AND CLEARS THE LEFT HALF OF THE AC
 21417					;IN THIS CASE C(AC)=-1,,-1.  HENCE, THE RESULT IN THE AC
 21418					;SHOULD BE 0.  THE AC IS CHECKED FOR 0.  IF C(AC)=0, THIS TEST PASSES
 21419
 21420	042410	474 00 0 00 000000 	B30500:	SETO			;PRELOAD AC WITH -1,,-1
 21421	042411	551 00 0 00 000000 		HRRZI	0		;*HRRZI SHOULD PLACE 0 INTO THE AC
 21422	042412	332 00 0 00 000000 		SKIPE			;PASS IF C(AC)=0
 21423						STOP^
 21424	042413	254 04 0 00 042414 		HALT	.+1		;TEST FAILED IF PROGRAM HALTS HERE
 21425	042414	324 00 0 00 042415 		JUMPA	.+1		;IF TEST FAILS, CHANGE THIS INSTRUCTION (JUMPA .+1) TO
 21426									;JUMPA X (X IS THE ADDRESS OF THE FIRST INSTRUCTION
 21427									;IN THE SUBTEST) TO LOOP ON ERROR^
 21428
 21429					;*****     FAILURE ANALYSIS     *****
 21430					;C(AC0)		C(AC1)		FAILING SIGNAL
 21431
 21432					;0,,-1				FC: AD RT AR + EN
 21433
 21434					;**********
 21435
 21436					;THIS TEST VERIFIES THAT HRRZ PLACES THE RIGHT HALF OF C(E) INTO
 21437					;RIGHT HALF OF THE AC AND PLACES ZEROS INTO THE LEFT HALF OF THE AC
 21438					;IN THIS CASE C(AC)=-1,,-1 AND C(E)=-1,,-1.  HENCE, THE RESULT IN THE AC
 21439					;SHOULD BE 0.  THE AC IS CHECKED FOR 0.  IF C(AC)=0, THIS TEST PASSES.
 21440
 21441	042415	474 00 0 00 000000 	B30600:	SETO			;PRELOAD AC WITH -1,,-1
 21442	042416	550 00 0 00 070331 		HRRZ	[XWD -1,0]	;*HRRZ SHOULD PLACE 0 INTO THE AC
 21443	042417	332 00 0 00 000000 		SKIPE			;PASS IF C(AC)=0
 21444						STOP^
 21445	042420	254 04 0 00 042421 		HALT	.+1		;TEST FAILED IF PROGRAM HALTS HERE
 21446	042421	324 00 0 00 042422 		JUMPA	.+1		;IF TEST FAILS, CHANGE THIS INSTRUCTION (JUMPA .+1) TO
 21447									;JUMPA X (X IS THE ADDRESS OF THE FIRST INSTRUCTION
 21448									;IN THE SUBTEST) TO LOOP ON ERROR^
 21449
 21450					;*****     FAILURE ANALYSIS     *****
 21451					;C(AC0)		C(AC1)		FAILING SIGNAL
 21452
 21453					;E				SW: FCE
 21454					;-1,,0				ET2: AR RT AD EN
 21455
 21456					;**********
DFKAA PDP-10 KL10 BASIC INSTRUCTION DIAGNOSTIC (1) VER 0,2	MACRO %53B(1254)-4 11:50 11-Nov-24 Page 45
DFKAA3	MAC	13-Jan-89 10:22		TEST OF HWT INSTRUCTIONS

 21457					;THIS TEST VERIFIES THAT HRRZ PLACES THE RIGHT HALF OF C(E) INTO
 21458					;RIGHT HALF OF THE AC AND PLACES ZEROS INTO THE LEFT HALF OF THE AC
 21459					;IN THIS CASE C(AC)=-1,,-1 AND C(E)=-1,,-1.  HENCE, THE RESULT IN THE AC
 21460					;SHOULD BE 0,,-1.  THE AC IS CHECKED FOR 0,,-1.  IF C(AC)=0,,-1, THIS TEST PASSES.
 21461
 21462	042422	474 00 0 00 000000 	B30700:	SETO			;PRELOAD AC WITH -1,,-1
 21463	042423	550 00 0 00 070254 		HRRZ	[-1]		;*HRRZ SHOULD PLACE 0,,-1 INTO THE AC
 21464	042424	302 00 0 00 777777 		CAIE	-1		;PASS IF C(AC)=0,,-1
 21465						STOP^
 21466	042425	254 04 0 00 042426 		HALT	.+1		;TEST FAILED IF PROGRAM HALTS HERE
 21467	042426	324 00 0 00 042427 		JUMPA	.+1		;IF TEST FAILS, CHANGE THIS INSTRUCTION (JUMPA .+1) TO
 21468									;JUMPA X (X IS THE ADDRESS OF THE FIRST INSTRUCTION
 21469									;IN THE SUBTEST) TO LOOP ON ERROR^
 21470
 21471					;**********
 21472
 21473					;THIS TEST VERIFIES THAT HRRZ PLACES THE RIGHT HALF OF C(E) INTO
 21474					;RIGHT HALF OF THE AC AND PLACES ZEROS INTO THE LEFT HALF OF THE AC
 21475					;IN THIS CASE C(AC)=0,,-1 AND C(E)=-1,,-1.  HENCE, THE RESULT IN THE AC
 21476					;SHOULD BE 0,,-1.  THE AC IS CHECKED FOR 0,,-1.  IF C(AC)=0,,-1, THIS TEST PASSES.
 21477
 21478	042427	201 00 0 00 777777 	B31000:	MOVEI	-1		;PRELOAD AC WITH 0,,-1
 21479	042430	550 00 0 00 070254 		HRRZ	[-1]		;*HRRZ SHOULD PLACE 0,,-1 INTO THE AC
 21480	042431	302 00 0 00 777777 		CAIE	-1		;PASS IF C(AC)=0,,-1
 21481						STOP^
 21482	042432	254 04 0 00 042433 		HALT	.+1		;TEST FAILED IF PROGRAM HALTS HERE
 21483	042433	324 00 0 00 042434 		JUMPA	.+1		;IF TEST FAILS, CHANGE THIS INSTRUCTION (JUMPA .+1) TO
 21484									;JUMPA X (X IS THE ADDRESS OF THE FIRST INSTRUCTION
 21485									;IN THE SUBTEST) TO LOOP ON ERROR^
 21486
 21487					;**********
DFKAA PDP-10 KL10 BASIC INSTRUCTION DIAGNOSTIC (1) VER 0,2	MACRO %53B(1254)-4 11:50 11-Nov-24 Page 46
DFKAA3	MAC	13-Jan-89 10:22		TEST OF HWT INSTRUCTIONS

 21488					;THIS TEST VERIFIES THAT HRRZ PLACES THE RIGHT HALF OF C(E) INTO
 21489					;RIGHT HALF OF THE AC AND PLACES ZEROS INTO THE LEFT HALF OF THE AC
 21490					;IN THIS CASE C(AC)=0,,-1 AND C(E)=0.  HENCE, THE RESULT IN THE AC
 21491					;SHOULD BE 0.  THE AC IS CHECKED FOR 0.  IF C(AC)=0, THIS TEST PASSES.
 21492
 21493	042434	201 00 0 00 777777 	B31100:	MOVEI	-1		;PRELOAD AC WITH 0,,-1
 21494	042435	550 00 0 00 070253 		HRRZ	[0]		;*HRRZ SHOULD PLACE 0 INTO THE AC
 21495	042436	302 00 0 00 000000 		CAIE	0		;PASS IF C(AC)=0
 21496						STOP^
 21497	042437	254 04 0 00 042440 		HALT	.+1		;TEST FAILED IF PROGRAM HALTS HERE
 21498	042440	324 00 0 00 042441 		JUMPA	.+1		;IF TEST FAILS, CHANGE THIS INSTRUCTION (JUMPA .+1) TO
 21499									;JUMPA X (X IS THE ADDRESS OF THE FIRST INSTRUCTION
 21500									;IN THE SUBTEST) TO LOOP ON ERROR^
 21501
 21502					;**********
 21503
 21504					;THIS TEST VERIFIES THAT HRRZ PLACES THE RIGHT HALF OF C(E) INTO
 21505					;RIGHT HALF OF THE AC AND PLACES ZEROS INTO THE LEFT HALF OF THE AC
 21506					;IN THIS CASE C(AC)=-1,,0 AND C(E)=-1,,-1.  HENCE, THE RESULT IN THE AC
 21507					;SHOULD BE 0,,-1.  THE AC IS CHECKED FOR 0,,-1.  IF C(AC)=0,,-1, THIS TEST PASSES.
 21508
 21509	042441	205 00 0 00 777777 	B31200:	MOVSI	-1		;PRELOAD AC WITH -1,,0
 21510	042442	550 00 0 00 070254 		HRRZ	[-1]		;*HRRZ SHOULD PLACE 0,,-1 INTO THE AC
 21511	042443	302 00 0 00 777777 		CAIE	-1		;PASS IF C(AC)=0,,-1
 21512						STOP^
 21513	042444	254 04 0 00 042445 		HALT	.+1		;TEST FAILED IF PROGRAM HALTS HERE
 21514	042445	324 00 0 00 042446 		JUMPA	.+1		;IF TEST FAILS, CHANGE THIS INSTRUCTION (JUMPA .+1) TO
 21515									;JUMPA X (X IS THE ADDRESS OF THE FIRST INSTRUCTION
 21516									;IN THE SUBTEST) TO LOOP ON ERROR^
 21517
 21518					;**********
DFKAA PDP-10 KL10 BASIC INSTRUCTION DIAGNOSTIC (1) VER 0,2	MACRO %53B(1254)-4 11:50 11-Nov-24 Page 47
DFKAA3	MAC	13-Jan-89 10:22		TEST OF HWT INSTRUCTIONS

 21519					;THIS TEST VERIFIES THAT HRRZ PLACES THE RIGHT HALF OF C(E) INTO
 21520					;RIGHT HALF OF THE AC AND PLACES ZEROS INTO THE LEFT HALF OF THE AC
 21521					;IN THIS CASE C(AC)=-1,,0 AND C(E)=0.  HENCE, THE RESULT IN THE AC
 21522					;SHOULD BE 0.  THE AC IS CHECKED FOR 0.  IF C(AC)=0, THIS TEST PASSES.
 21523
 21524	042446	205 00 0 00 777777 	B31300:	MOVSI	-1		;PRELOAD AC WITH -1,,0
 21525	042447	550 00 0 00 070253 		HRRZ	[0]		;*HRRZ SHOULD PLACE 0 INTO THE AC
 21526	042450	302 00 0 00 000000 		CAIE	0		;PASS IF C(AC)=0
 21527						STOP^
 21528	042451	254 04 0 00 042452 		HALT	.+1		;TEST FAILED IF PROGRAM HALTS HERE
 21529	042452	324 00 0 00 042453 		JUMPA	.+1		;IF TEST FAILS, CHANGE THIS INSTRUCTION (JUMPA .+1) TO
 21530									;JUMPA X (X IS THE ADDRESS OF THE FIRST INSTRUCTION
 21531									;IN THE SUBTEST) TO LOOP ON ERROR^
 21532
 21533					;**********
 21534
 21535					;THIS TEST VERIFIES THAT HRRZ PLACES THE RIGHT HALF OF C(E) INTO
 21536					;RIGHT HALF OF THE AC AND PLACES ZEROS INTO THE LEFT HALF OF THE AC
 21537					;IN THIS CASE C(AC)=0,,-1 AND C(E)=-1,,0.  HENCE, THE RESULT IN THE AC
 21538					;SHOULD BE 0.  THE AC IS CHECKED FOR 0.  IF C(AC)=0, THIS TEST PASSES.
 21539
 21540	042453	201 00 0 00 777777 	B31400:	MOVEI	-1		;PRELOAD AC WITH 0,,-1
 21541	042454	550 00 0 00 070331 		HRRZ	[XWD -1,0]	;*HRRZ SHOULD PLACE 0 INTO THE AC
 21542	042455	332 00 0 00 000000 		SKIPE			;PASS IF C(AC)=0
 21543						STOP^
 21544	042456	254 04 0 00 042457 		HALT	.+1		;TEST FAILED IF PROGRAM HALTS HERE
 21545	042457	324 00 0 00 042460 		JUMPA	.+1		;IF TEST FAILS, CHANGE THIS INSTRUCTION (JUMPA .+1) TO
 21546									;JUMPA X (X IS THE ADDRESS OF THE FIRST INSTRUCTION
 21547									;IN THE SUBTEST) TO LOOP ON ERROR^
 21548
 21549					;**********
DFKAA PDP-10 KL10 BASIC INSTRUCTION DIAGNOSTIC (1) VER 0,2	MACRO %53B(1254)-4 11:50 11-Nov-24 Page 48
DFKAA3	MAC	13-Jan-89 10:22		TEST OF HWT INSTRUCTIONS

 21550					;THIS TEST VERIFIES THAT HRRZ PLACES THE RIGHT HALF OF C(E) INTO
 21551					;RIGHT HALF OF THE AC AND PLACES ZEROS INTO THE LEFT HALF OF THE AC
 21552					;IN THIS CASE C(AC)=-1,,0 AND C(E)=0,,-1.  HENCE, THE RESULT IN THE AC
 21553					;SHOULD BE 0,,-1.  THE AC IS CHECKED FOR 0,,-1.  IF C(AC)=0,,-1, THIS TEST PASSES.
 21554
 21555	042460	205 00 0 00 777777 	B31500:	MOVSI	-1		;PRELOAD AC WITH -1,,0
 21556	042461	550 00 0 00 070330 		HRRZ	[XWD 0,-1]	;*HRRZ SHOULD PLACE 0,,-1 INTO THE AC
 21557	042462	302 00 0 00 777777 		CAIE	-1		;PASS IF C(AC)=0,,-1
 21558						STOP^
 21559	042463	254 04 0 00 042464 		HALT	.+1		;TEST FAILED IF PROGRAM HALTS HERE
 21560	042464	324 00 0 00 042465 		JUMPA	.+1		;IF TEST FAILS, CHANGE THIS INSTRUCTION (JUMPA .+1) TO
 21561									;JUMPA X (X IS THE ADDRESS OF THE FIRST INSTRUCTION
 21562									;IN THE SUBTEST) TO LOOP ON ERROR^
 21563
 21564					;**********
 21565
 21566					;THIS TEST VERIFIES THAT HRRZI PLACES E INTO
 21567					;THE RIGHT HALF OF THE AC AND CLEARS THE LEFT HALF OF THE AC
 21568					;IN THIS CASE C(AC)=0,,-1 AND E=0,,-1.  HENCE, THE RESULT IN THE AC
 21569					;SHOULD BE 0,,-1.  THE AC IS CHECKED FOR 0,,-1.  IF C(AC)=0,,-1, THIS TEST PASSES
 21570
 21571	042465	201 00 0 00 777777 	B31600:	MOVEI	-1		;PRELOAD AC WITH 0,,-1
 21572	042466	551 00 0 00 777777 		HRRZI	-1		;*HRRZI SHOULD PLACE 0,,-1 INTO THE AC
 21573	042467	302 00 0 00 777777 		CAIE	-1		;PASS IF C(AC)=0,,1
 21574						STOP^
 21575	042470	254 04 0 00 042471 		HALT	.+1		;TEST FAILED IF PROGRAM HALTS HERE
 21576	042471	324 00 0 00 042472 		JUMPA	.+1		;IF TEST FAILS, CHANGE THIS INSTRUCTION (JUMPA .+1) TO
 21577									;JUMPA X (X IS THE ADDRESS OF THE FIRST INSTRUCTION
 21578									;IN THE SUBTEST) TO LOOP ON ERROR^
 21579
 21580					;**********
DFKAA PDP-10 KL10 BASIC INSTRUCTION DIAGNOSTIC (1) VER 0,2	MACRO %53B(1254)-4 11:50 11-Nov-24 Page 49
DFKAA3	MAC	13-Jan-89 10:22		TEST OF HWT INSTRUCTIONS

 21581					;THIS TEST VERIFIES THAT HRRZ PLACES THE RIGHT HALF OF C(E) INTO
 21582					;RIGHT HALF OF THE AC AND PLACES ZEROS INTO THE LEFT HALF OF THE AC
 21583					;IN THIS CASE C(AC)=-1,,0 AND C(E)=-1,,0.  HENCE, THE RESULT IN THE AC
 21584					;SHOULD BE 0.  THE AC IS CHECKED FOR 0.  IF C(AC)=0, THIS TEST PASSES.
 21585
 21586	042472	205 00 0 00 777777 	B31700:	MOVSI	-1		;PRELOAD AC WITH -1,,0
 21587	042473	550 00 0 00 070331 		HRRZ	[XWD -1,0]	;*HRRZ SHOULD PLACE 0 INTO THE AC,0]
 21588	042474	302 00 0 00 000000 		CAIE	0		;PASS IF C(AC)=0
 21589						STOP^
 21590	042475	254 04 0 00 042476 		HALT	.+1		;TEST FAILED IF PROGRAM HALTS HERE
 21591	042476	324 00 0 00 042477 		JUMPA	.+1		;IF TEST FAILS, CHANGE THIS INSTRUCTION (JUMPA .+1) TO
 21592									;JUMPA X (X IS THE ADDRESS OF THE FIRST INSTRUCTION
 21593									;IN THE SUBTEST) TO LOOP ON ERROR^
 21594
 21595					;**********
 21596
 21597					;THIS TEST VERIFIES THAT HRL PLACES THE RIGHT HALF OF C(E) INTO
 21598					;THE LEFT HALF OF THE AC.  THE RIGHT HALF OF THE AC IS UNAFFECTED
 21599					;IN THIS CASE, AC=E AND C(AC)=C(E)=0.  HENCE, THE RESULT IN THE AC
 21600					;SHOULD BE 0.  THE AC IS CHECKED FOR 0.  IF C(AC)=0, THIS TEST PASSES.
 21601
 21602	042477	400 00 0 00 000000 	B32000:	SETZ			;PRELOAD AC WITH 0
 21603	042500	504 00 0 00 000000 		HRL			;*HRL SHOULD PLACE 0 INTO THE AC
 21604	042501	332 00 0 00 000000 		SKIPE			;PASS IF C(AC)=0
 21605						STOP^
 21606	042502	254 04 0 00 042503 		HALT	.+1		;TEST FAILED IF PROGRAM HALTS HERE
 21607	042503	324 00 0 00 042504 		JUMPA	.+1		;IF TEST FAILS, CHANGE THIS INSTRUCTION (JUMPA .+1) TO
 21608									;JUMPA X (X IS THE ADDRESS OF THE FIRST INSTRUCTION
 21609									;IN THE SUBTEST) TO LOOP ON ERROR^
 21610
 21611					;**********
DFKAA PDP-10 KL10 BASIC INSTRUCTION DIAGNOSTIC (1) VER 0,2	MACRO %53B(1254)-4 11:50 11-Nov-24 Page 50
DFKAA3	MAC	13-Jan-89 10:22		TEST OF HWT INSTRUCTIONS

 21612					;THIS TEST VERIFIES THAT HRL PLACES THE RIGHT HALF OF C(E) INTO
 21613					;THE LEFT HALF OF THE AC.  THE RIGHT HALF OF THE AC IS UNAFFECTED
 21614					;IN THIS CASE, C(AC)=-1,,-1 AND C(E)=-1,,-1.  HENCE, THE RESULT IN THE AC
 21615					;SHOULD BE -1,,-1.  THE AC IS CHECKED FOR -1,,-1.  IF C(AC)=-1,,-1, THIS TEST PASSES.
 21616
 21617	042504	474 00 0 00 000000 	B32100:	SETO			;PRELOAD AC WITH -1,,-1
 21618	042505	504 00 0 00 070254 		HRL	[-1]		;*HRL SHOULD PLACE -1,,-1 INTO THE AC
 21619	042506	312 00 0 00 070254 		CAME	[-1]		;PASS IF C(AC)=-1,,-1
 21620						STOP^
 21621	042507	254 04 0 00 042510 		HALT	.+1		;TEST FAILED IF PROGRAM HALTS HERE
 21622	042510	324 00 0 00 042511 		JUMPA	.+1		;IF TEST FAILS, CHANGE THIS INSTRUCTION (JUMPA .+1) TO
 21623									;JUMPA X (X IS THE ADDRESS OF THE FIRST INSTRUCTION
 21624									;IN THE SUBTEST) TO LOOP ON ERROR^
 21625
 21626					;*****     FAILURE ANALYSIS     *****
 21627					;C(AC0)		C(AC1)		FAILING SIGNAL
 21628
 21629					;E,,-1				SW: FCE
 21630					;0,,-1				FC: AD RT FM + EN
 21631					;0,,-1				ET2: AR LT AR RT EN
 21632					;-1,,0				ET2: AR RT AD EN
 21633
 21634					;**********
 21635
 21636					;THIS TEST VERIFIES THAT HRL PLACES THE RIGHT HALF OF C(E) INTO
 21637					;THE LEFT HALF OF THE AC.  THE RIGHT HALF OF THE AC IS UNAFFECTED
 21638					;IN THIS CASE, C(AC)=-1,,-1 AND C(E)=0.  HENCE, THE RESULT IN THE AC
 21639					;SHOULD BE 0,,-1.  THE AC IS CHECKED FOR 0,,-1.  IF C(AC)=0,,-1, THIS TEST PASSES.
 21640
 21641	042511	474 00 0 00 000000 	B32200:	SETO			;PRELOAD AC WITH -1,,-1
 21642	042512	504 00 0 00 070253 		HRL	[0]		;*HRL SHOULD PLACE 0,,-1 INTO THE AC
 21643	042513	302 00 0 00 777777 		CAIE	-1		;PASS IF C(AC)=0,,-1
 21644						STOP^
 21645	042514	254 04 0 00 042515 		HALT	.+1		;TEST FAILED IF PROGRAM HALTS HERE
 21646	042515	324 00 0 00 042516 		JUMPA	.+1		;IF TEST FAILS, CHANGE THIS INSTRUCTION (JUMPA .+1) TO
 21647									;JUMPA X (X IS THE ADDRESS OF THE FIRST INSTRUCTION
 21648									;IN THE SUBTEST) TO LOOP ON ERROR^
 21649
 21650					;**********
DFKAA PDP-10 KL10 BASIC INSTRUCTION DIAGNOSTIC (1) VER 0,2	MACRO %53B(1254)-4 11:50 11-Nov-24 Page 51
DFKAA3	MAC	13-Jan-89 10:22		TEST OF HWT INSTRUCTIONS

 21651					;THIS TEST VERIFIES THAT HLR PLACES THE LEFT HALF OF C(E) INTO
 21652					;THE RIGHT HALF OF THE AC.  THE LEFT HALF OF THE AC IS UNAFFECTED.
 21653					;IN THIS CASE, C(AC)=-1,,-1 AND C(E)=0.  HENCE, THE RESULT IN THE AC
 21654					;SHOULD BE -1,,0.  THE AC IS CHECKED FOR -1,,0.  IF C(AC)=-1,,0, THIS TEST PASSES.
 21655
 21656	042516	474 00 0 00 000000 	B32300:	SETO			;PRELOAD AC WITH -1,,-1
 21657	042517	544 00 0 00 070253 		HLR	[0]		;*HLR SHOULD PLACE -1,,0 INTO THE AC
 21658	042520	312 00 0 00 070331 		CAME	[-1,,0]		;PASS IF C(AC)=-1,,0
 21659						STOP^
 21660	042521	254 04 0 00 042522 		HALT	.+1		;TEST FAILED IF PROGRAM HALTS HERE
 21661	042522	324 00 0 00 042523 		JUMPA	.+1		;IF TEST FAILS, CHANGE THIS INSTRUCTION (JUMPA .+1) TO
 21662									;JUMPA X (X IS THE ADDRESS OF THE FIRST INSTRUCTION
 21663									;IN THE SUBTEST) TO LOOP ON ERROR^
 21664
 21665					;*****     FAILURE ANALYSIS     *****
 21666					;C(AC0)		C(AC1)		FAILING SIGNAL
 21667
 21668					;0				ET2: AR LT AD EN
 21669
 21670					;**********
 21671
 21672					;THIS TEST VERIFIES THAT HRL PLACES THE RIGHT HALF OF C(E) INTO
 21673					;THE LEFT HALF OF THE AC.  THE RIGHT HALF OF THE AC IS UNAFFECTED
 21674					;IN THIS CASE, C(AC)=-1,,-1 AND C(E)=0.  HENCE, THE RESULT IN THE AC
 21675					;SHOULD BE -1,,0.  THE AC IS CHECKED FOR -1,,0.  IF C(AC)=-1,,0, THIS TEST PASSES.
 21676
 21677	042523	400 00 0 00 000000 	B32600:	SETZ			;PRELOAD AC WITH 0
 21678	042524	504 00 0 00 070254 		HRL	[-1]		;*HRL SHOULD PLACE -1,,0 INTO THE AC
 21679	042525	312 00 0 00 070331 		CAME	[-1,,0]		;PASS IF C(AC)=-1,,0
 21680						STOP^
 21681	042526	254 04 0 00 042527 		HALT	.+1		;TEST FAILED IF PROGRAM HALTS HERE
 21682	042527	324 00 0 00 042530 		JUMPA	.+1		;IF TEST FAILS, CHANGE THIS INSTRUCTION (JUMPA .+1) TO
 21683									;JUMPA X (X IS THE ADDRESS OF THE FIRST INSTRUCTION
 21684									;IN THE SUBTEST) TO LOOP ON ERROR^
 21685
 21686					;**********
DFKAA PDP-10 KL10 BASIC INSTRUCTION DIAGNOSTIC (1) VER 0,2	MACRO %53B(1254)-4 11:50 11-Nov-24 Page 52
DFKAA3	MAC	13-Jan-89 10:22		TEST OF HWT INSTRUCTIONS

 21687					;THIS TEST VERIFIES THAT HLR PLACES THE LEFT HALF OF C(E) INTO
 21688					;THE RIGHT HALF OF THE AC.  THE LEFT HALF OF THE AC IS UNAFFECTED.
 21689					;IN THIS CASE, C(AC)=0 AND C(E)=-1,,-1.  HENCE, THE RESULT IN THE AC
 21690					;SHOULD BE 0,,-1.  THE AC IS CHECKED FOR 0,,-1.  IF C(AC)=0,,-1, THIS TEST PASSES.
 21691
 21692	042530	400 00 0 00 000000 	B32700:	SETZ			;PRELOAD AC WITH 0
 21693	042531	544 00 0 00 070254 		HLR	[-1]		;*HLR SHOULD PLACE 0,,-1 INTO THE AC
 21694	042532	302 00 0 00 777777 		CAIE	-1		;PASS IF C(AC)=0,,-1
 21695						STOP^
 21696	042533	254 04 0 00 042534 		HALT	.+1		;TEST FAILED IF PROGRAM HALTS HERE
 21697	042534	324 00 0 00 042535 		JUMPA	.+1		;IF TEST FAILS, CHANGE THIS INSTRUCTION (JUMPA .+1) TO
 21698									;JUMPA X (X IS THE ADDRESS OF THE FIRST INSTRUCTION
 21699									;IN THE SUBTEST) TO LOOP ON ERROR^
 21700
 21701					;*****     FAILURE ANALYSIS     *****
 21702					;C(AC0)		C(AC1)		FAILING SIGNAL
 21703
 21704					;0				SW: FCE
 21705					;-1,,-1				FC: AD LT FM + EN
 21706					;0				ET2: AR RT AR LT EN
 21707
 21708					;**********
 21709
 21710					;THIS TEST VERIFIES THAT HRLI PLACES E INTO
 21711					;THE LEFT HALF OF THE AC.  THE RIGHT HALF OF THE AC IS UNAFFECTED.
 21712					;IN THIS CASE C(AC)=-1,,-1 AND E=0,,-1.  HENCE, THE RESULT IN THE AC
 21713					;SHOULD BE -1,,-1.  THE AC IS CHECKED FOR -1,,-1.  IF C(AC)=-1,,-1, THIS TEST PASSES
 21714
 21715	042535	400 00 0 00 000000 	B33000:	SETZ			;PRELOAD AC WITH -1,,-1
 21716	042536	505 00 0 00 777777 		HRLI	-1		;*HRLI SHOULD PLACE -1,,-1 INTO THE AC
 21717	042537	312 00 0 00 070331 		CAME	[XWD -1,0]	;PASS IF C(AC)=-1,,-1
 21718						STOP^
 21719	042540	254 04 0 00 042541 		HALT	.+1		;TEST FAILED IF PROGRAM HALTS HERE
 21720	042541	324 00 0 00 042542 		JUMPA	.+1		;IF TEST FAILS, CHANGE THIS INSTRUCTION (JUMPA .+1) TO
 21721									;JUMPA X (X IS THE ADDRESS OF THE FIRST INSTRUCTION
 21722									;IN THE SUBTEST) TO LOOP ON ERROR^
 21723
 21724					;*****     FAILURE ANALYSIS     *****
 21725					;C(AC0)		C(AC1)		FAILING SIGNAL
 21726
 21727					;-1,,-1				FC: AD RT FM + EN
 21728					;0				ET2: AR LT AR RT EN
 21729
 21730					;**********
DFKAA PDP-10 KL10 BASIC INSTRUCTION DIAGNOSTIC (1) VER 0,2	MACRO %53B(1254)-4 11:50 11-Nov-24 Page 53
DFKAA3	MAC	13-Jan-89 10:22		TEST OF HWT INSTRUCTIONS

 21731					;THIS TEST VERIFIES THAT HLR PLACES THE LEFT HALF OF C(E) INTO
 21732					;THE RIGHT HALF OF THE AC.  THE LEFT HALF OF THE AC IS UNAFFECTED.
 21733					;IN THIS CASE, C(AC)=-1,,-1 AND C(E)=-1,,0.  HENCE, THE RESULT IN THE AC
 21734					;SHOULD BE 0,,-1.  THE AC IS CHECKED FOR 0,,-1.  IF C(AC)=0,,-1, THIS TEST PASSES.
 21735
 21736	042542	400 00 0 00 000000 	B33100:	SETZ			;PRELOAD AC WITH -1,,-1
 21737	042543	544 00 0 00 070331 		HLR	[XWD -1,0]	;*HLR SHOULD PLACE -1,,-1 INTO THE AC
 21738	042544	302 00 0 00 777777 		CAIE	-1		;PASS IF C(AC)=0,,-1
 21739						STOP^
 21740	042545	254 04 0 00 042546 		HALT	.+1		;TEST FAILED IF PROGRAM HALTS HERE
 21741	042546	324 00 0 00 042547 		JUMPA	.+1		;IF TEST FAILS, CHANGE THIS INSTRUCTION (JUMPA .+1) TO
 21742									;JUMPA X (X IS THE ADDRESS OF THE FIRST INSTRUCTION
 21743									;IN THE SUBTEST) TO LOOP ON ERROR^
 21744
 21745					;**********
 21746
 21747					;THIS TEST VERIFIES THAT HRL PLACES THE RIGHT HALF OF C(E) INTO
 21748					;THE LEFT HALF OF THE AC.  THE RIGHT HALF OF THE AC IS UNAFFECTED
 21749					;IN THIS CASE, C(AC)=0 AND C(E)=-1,,0.  HENCE, THE RESULT IN THE AC
 21750					;SHOULD BE 0.  THE AC IS CHECKED FOR 0.  IF C(AC)=0, THIS TEST PASSES.
 21751
 21752	042547	400 00 0 00 000000 	B33200:	SETZ			;PRELOAD AC WITH 0
 21753	042550	504 00 0 00 070331 		HRL	[XWD -1,0]	;*HRL SHOULD PLACE 0 INTO THE AC
 21754	042551	332 00 0 00 000000 		SKIPE			;PASS IF C(AC)=0
 21755						STOP^
 21756	042552	254 04 0 00 042553 		HALT	.+1		;TEST FAILED IF PROGRAM HALTS HERE
 21757	042553	324 00 0 00 042554 		JUMPA	.+1		;IF TEST FAILS, CHANGE THIS INSTRUCTION (JUMPA .+1) TO
 21758									;JUMPA X (X IS THE ADDRESS OF THE FIRST INSTRUCTION
 21759									;IN THE SUBTEST) TO LOOP ON ERROR^
 21760
 21761					;**********
DFKAA PDP-10 KL10 BASIC INSTRUCTION DIAGNOSTIC (1) VER 0,2	MACRO %53B(1254)-4 11:50 11-Nov-24 Page 54
DFKAA3	MAC	13-Jan-89 10:22		TEST OF HWT INSTRUCTIONS

 21762					;THIS TEST VERIFIES THAT HLRI ALWAYS CLEARS THE RIGHT HALF
 21763					;OF THE AC.  THE LEFT HALF OF THE AC IS UNAFFECTED.
 21764					;IN THIS CASE, C(AC)=0 AND E=0,,-1.  HENCE, THE RESULT IN THE AC
 21765					;SHOULD BE 0.  THE AC IS CHECKED FOR 0
 21766					;IF C(AC)=0, THIS TEST PASSES.
 21767
 21768	042554	400 00 0 00 000000 	B33300:	SETZ			;PRELOAD AC WITH 0
 21769	042555	545 00 0 00 777777 		HLRI	-1		;*HLRI SHOULD PLACE 0 INTO THE AC
 21770	042556	332 00 0 00 000000 		SKIPE			;PASS IF C(AC)=0
 21771						STOP^
 21772	042557	254 04 0 00 042560 		HALT	.+1		;TEST FAILED IF PROGRAM HALTS HERE
 21773	042560	324 00 0 00 042561 		JUMPA	.+1		;IF TEST FAILS, CHANGE THIS INSTRUCTION (JUMPA .+1) TO
 21774									;JUMPA X (X IS THE ADDRESS OF THE FIRST INSTRUCTION
 21775									;IN THE SUBTEST) TO LOOP ON ERROR^
 21776
 21777					;*****     FAILURE ANALYSIS     *****
 21778					;C(AC0)		C(AC1)		FAILING SIGNAL
 21779
 21780					;-1,,0				FC:AD LT FM + EN
 21781
 21782					;**********
 21783
 21784					;THIS TEST VERIFIES THAT HRLI PLACES E INTO
 21785					;THE LEFT HALF OF THE AC.  THE RIGHT HALF OF THE AC IS UNAFFECTED.
 21786					;IN THIS CASE C(AC)=-1,,-1 AND E=-1,,-1.  HENCE, THE RESULT IN THE AC
 21787					;SHOULD BE -1,,-1.  THE AC IS CHECKED FOR -1,,-1.  IF C(AC)=-1,,-1, THIS TEST PASSES
 21788
 21789	042561	474 00 0 00 000000 	B33400:	SETO			;PRELOAD AC WITH -1,,-1
 21790	042562	505 00 0 00 777777 		HRLI	-1		;*HRLI SHOULD PLACE -1,,-1 INTO THE AC
 21791	042563	312 00 0 00 070254 		CAME	[-1]		;PASS IF C(AC)=-1,,-1
 21792						STOP^
 21793	042564	254 04 0 00 042565 		HALT	.+1		;TEST FAILED IF PROGRAM HALTS HERE
 21794	042565	324 00 0 00 042566 		JUMPA	.+1		;IF TEST FAILS, CHANGE THIS INSTRUCTION (JUMPA .+1) TO
 21795									;JUMPA X (X IS THE ADDRESS OF THE FIRST INSTRUCTION
 21796									;IN THE SUBTEST) TO LOOP ON ERROR^
 21797
 21798					;*****     FAILURE ANALYSIS     *****
 21799					;C(AC0)		C(AC1)		FAILING SIGNAL
 21800
 21801					;-1,,0				ET2: AR RT AD EN
 21802
 21803
 21804					;**********
DFKAA PDP-10 KL10 BASIC INSTRUCTION DIAGNOSTIC (1) VER 0,2	MACRO %53B(1254)-4 11:50 11-Nov-24 Page 55
DFKAA3	MAC	13-Jan-89 10:22		TEST OF HWT INSTRUCTIONS

 21805					;THIS TEST VERIFIES THAT HLR PLACES THE LEFT HALF OF C(E) INTO
 21806					;THE RIGHT HALF OF THE AC.  THE LEFT HALF OF THE AC IS UNAFFECTED.
 21807					;IN THIS CASE, C(AC)=-1,,-1 AND C(E)=-1,,0.  HENCE, THE RESULT IN THE AC
 21808					;SHOULD BE -1,,-1.  THE AC IS CHECKED FOR -1,,-1.  IF C(AC)=-1,,-1, THIS TEST PASSES.
 21809
 21810	042566	474 00 0 00 000000 	B33500:	SETO			;PRELOAD AC WITH -1,,-1
 21811	042567	544 00 0 00 070331 		HLR	[XWD -1,0]	;*HLR SHOULD PLACE -1,,-1 INTO THE AC
 21812	042570	312 00 0 00 070254 		CAME	[-1]		;PASS IF C(AC)=-1,,-1
 21813						STOP^
 21814	042571	254 04 0 00 042572 		HALT	.+1		;TEST FAILED IF PROGRAM HALTS HERE
 21815	042572	324 00 0 00 042573 		JUMPA	.+1		;IF TEST FAILS, CHANGE THIS INSTRUCTION (JUMPA .+1) TO
 21816									;JUMPA X (X IS THE ADDRESS OF THE FIRST INSTRUCTION
 21817									;IN THE SUBTEST) TO LOOP ON ERROR^
 21818
 21819					;**********
 21820
 21821					;THIS TEST VERIFIES THAT HRL PLACES THE RIGHT HALF OF C(E) INTO
 21822					;THE LEFT HALF OF THE AC.  THE RIGHT HALF OF THE AC IS UNAFFECTED
 21823					;IN THIS CASE, C(AC)=-1,,-1 AND C(E)=-1,,0.  HENCE, THE RESULT IN THE AC
 21824					;SHOULD BE 0,,-1.  THE AC IS CHECKED FOR 0,,-1.  IF C(AC)=0,,-1, THIS TEST PASSES.
 21825
 21826	042573	474 00 0 00 000000 	B33600:	SETO			;PRELOAD AC WITH -1,,-1
 21827	042574	504 00 0 00 070331 		HRL	[XWD -1,0]	;*HRL SHOULD PLACE 0,,-1 INTO THE AC
 21828	042575	312 00 0 00 070330 		CAME	[XWD 0,-1]	;PASS IF C(AC)=0,,-1
 21829						STOP^
 21830	042576	254 04 0 00 042577 		HALT	.+1		;TEST FAILED IF PROGRAM HALTS HERE
 21831	042577	324 00 0 00 042600 		JUMPA	.+1		;IF TEST FAILS, CHANGE THIS INSTRUCTION (JUMPA .+1) TO
 21832									;JUMPA X (X IS THE ADDRESS OF THE FIRST INSTRUCTION
 21833									;IN THE SUBTEST) TO LOOP ON ERROR^
 21834
 21835					;**********
DFKAA PDP-10 KL10 BASIC INSTRUCTION DIAGNOSTIC (1) VER 0,2	MACRO %53B(1254)-4 11:50 11-Nov-24 Page 56
DFKAA3	MAC	13-Jan-89 10:22		TEST OF HWT INSTRUCTIONS

 21836					;THIS TEST VERIFIES THAT HLRI ALWAYS CLEARS THE RIGHT HALF
 21837					;OF THE AC.  THE LEFT HALF OF THE AC IS UNAFFECTED.
 21838					;IN THIS CASE, C(AC)=-1,,-1 AND E=0,,-1.  HENCE, THE RESULT IN THE AC
 21839					;SHOULD BE -1,,0.  THE AC IS CHECKED FOR -1,,0
 21840					;IF C(AC)=-1,,0, THIS TEST PASSES.
 21841
 21842	042600	474 00 0 00 000000 	B33700:	SETO			;PRELOAD AC WITH -1,,-1
 21843	042601	545 00 0 00 777777 		HLRI	-1		;*HLRI SHOULD PLACE -1,,0 INTO THE AC
 21844	042602	312 00 0 00 070331 		CAME	[XWD -1,0]	;PASS IF C(AC)=-1,,0
 21845						STOP^
 21846	042603	254 04 0 00 042604 		HALT	.+1		;TEST FAILED IF PROGRAM HALTS HERE
 21847	042604	324 00 0 00 042605 		JUMPA	.+1		;IF TEST FAILS, CHANGE THIS INSTRUCTION (JUMPA .+1) TO
 21848									;JUMPA X (X IS THE ADDRESS OF THE FIRST INSTRUCTION
 21849									;IN THE SUBTEST) TO LOOP ON ERROR^
 21850
 21851					;*****     FAILURE ANALYSIS     *****
 21852					;C(AC0)		C(AC1)		FAILING SIGNAL
 21853
 21854					;0				ET2: AR LT AD EN
 21855
 21856					;**********
 21857
 21858					;THIS TEST VERIFIES THAT HRL PLACES THE RIGHT HALF OF C(E) INTO
 21859					;THE LEFT HALF OF THE AC.  THE RIGHT HALF OF THE AC IS UNAFFECTED
 21860					;IN THIS CASE, C(AC)=0,,-1 AND C(E)=0.  HENCE, THE RESULT IN THE AC
 21861					;SHOULD BE 0,,-1.  THE AC IS CHECKED FOR 0,,-1.  IF C(AC)=0,,-1, THIS TEST PASSES.
 21862
 21863	042605	201 00 0 00 777777 	B34000:	MOVEI	-1		;PRELOAD AC WITH 0,,-1
 21864	042606	504 00 0 00 070253 		HRL	[0]		;*HRL SHOULD PLACE 0,,-1 INTO THE AC
 21865	042607	302 00 0 00 777777 		CAIE	-1		;PASS IF C(AC)=0,,-1
 21866						STOP^
 21867	042610	254 04 0 00 042611 		HALT	.+1		;TEST FAILED IF PROGRAM HALTS HERE
 21868	042611	324 00 0 00 042612 		JUMPA	.+1		;IF TEST FAILS, CHANGE THIS INSTRUCTION (JUMPA .+1) TO
 21869									;JUMPA X (X IS THE ADDRESS OF THE FIRST INSTRUCTION
 21870									;IN THE SUBTEST) TO LOOP ON ERROR^
 21871
 21872					;**********
DFKAA PDP-10 KL10 BASIC INSTRUCTION DIAGNOSTIC (1) VER 0,2	MACRO %53B(1254)-4 11:50 11-Nov-24 Page 57
DFKAA3	MAC	13-Jan-89 10:22		TEST OF HWT INSTRUCTIONS

 21873					;THIS TEST VERIFIES THAT HLRI ALWAYS CLEARS THE RIGHT HALF
 21874					;OF THE AC.  THE LEFT HALF OF THE AC IS UNAFFECTED.
 21875					;IN THIS CASE, C(AC)=0,,-1 AND E=0.  HENCE, THE RESULT IN THE AC
 21876					;SHOULD BE 0.  THE AC IS CHECKED FOR 0
 21877					;IF C(AC)=0, THIS TEST PASSES.
 21878
 21879	042612	201 00 0 00 777777 	B34100:	MOVEI	-1		;PRELOAD AC WITH 0,,-1
 21880	042613	545 00 0 00 000000 		HLRI			;*HLRI SHOULD PLACE 0 INTO THE AC
 21881	042614	332 00 0 00 000000 		SKIPE			;PASS IF C(AC)=0
 21882						STOP^
 21883	042615	254 04 0 00 042616 		HALT	.+1		;TEST FAILED IF PROGRAM HALTS HERE
 21884	042616	324 00 0 00 042617 		JUMPA	.+1		;IF TEST FAILS, CHANGE THIS INSTRUCTION (JUMPA .+1) TO
 21885									;JUMPA X (X IS THE ADDRESS OF THE FIRST INSTRUCTION
 21886									;IN THE SUBTEST) TO LOOP ON ERROR^
 21887
 21888					;**********
 21889
 21890					;THIS TEST VERIFIES THAT HRL PLACES THE RIGHT HALF OF C(E) INTO
 21891					;THE LEFT HALF OF THE AC.  THE RIGHT HALF OF THE AC IS UNAFFECTED
 21892					;IN THIS CASE, C(AC)=0,,-1 AND C(E)=-1,,-1.  HENCE, THE RESULT IN THE AC
 21893					;SHOULD BE -1,,-1.  THE AC IS CHECKED FOR -1,,-1.  IF C(AC)=-1,,-1, THIS TEST PASSES.
 21894
 21895	042617	201 00 0 00 777777 	B34200:	MOVEI	-1		;PRELOAD AC WITH 0,,-1
 21896	042620	504 00 0 00 070254 		HRL	[-1]		;*HRL SHOULD PLACE -1,,-1 INTO THE AC
 21897	042621	312 00 0 00 070254 		CAME	[-1]		;PASS IF C(AC)=-1,,-1
 21898						STOP^
 21899	042622	254 04 0 00 042623 		HALT	.+1		;TEST FAILED IF PROGRAM HALTS HERE
 21900	042623	324 00 0 00 042624 		JUMPA	.+1		;IF TEST FAILS, CHANGE THIS INSTRUCTION (JUMPA .+1) TO
 21901									;JUMPA X (X IS THE ADDRESS OF THE FIRST INSTRUCTION
 21902									;IN THE SUBTEST) TO LOOP ON ERROR^
 21903
 21904					;**********
DFKAA PDP-10 KL10 BASIC INSTRUCTION DIAGNOSTIC (1) VER 0,2	MACRO %53B(1254)-4 11:50 11-Nov-24 Page 58
DFKAA3	MAC	13-Jan-89 10:22		TEST OF HWT INSTRUCTIONS

 21905					;THIS TEST VERIFIES THAT HLR PLACES THE LEFT HALF OF C(E) INTO
 21906					;THE RIGHT HALF OF THE AC.  THE LEFT HALF OF THE AC IS UNAFFECTED.
 21907					;IN THIS CASE, C(AC)=0,,-1 AND C(E)=-1,,-1.  HENCE, THE RESULT IN THE AC
 21908					;SHOULD BE 0,,-1.  THE AC IS CHECKED FOR 0,,-1.  IF C(AC)=0,,-1, THIS TEST PASSES.
 21909
 21910	042624	201 00 0 00 777777 	B34300:	MOVEI	-1		;PRELOAD AC WITH 0,,-1
 21911	042625	544 00 0 00 070254 		HLR	[-1]		;*HLR SHOULD PLACE 0,,-1 INTO THE AC
 21912	042626	302 00 0 00 777777 		CAIE	-1		;PASS IF C(AC)=0,,-1
 21913						STOP^
 21914	042627	254 04 0 00 042630 		HALT	.+1		;TEST FAILED IF PROGRAM HALTS HERE
 21915	042630	324 00 0 00 042631 		JUMPA	.+1		;IF TEST FAILS, CHANGE THIS INSTRUCTION (JUMPA .+1) TO
 21916									;JUMPA X (X IS THE ADDRESS OF THE FIRST INSTRUCTION
 21917									;IN THE SUBTEST) TO LOOP ON ERROR^
 21918
 21919					;**********
 21920
 21921					;THIS TEST VERIFIES THAT HRL PLACES THE RIGHT HALF OF C(E) INTO
 21922					;THE LEFT HALF OF THE AC.  THE RIGHT HALF OF THE AC IS UNAFFECTED
 21923					;IN THIS CASE, C(AC)=-1,,0 AND C(E)=0.  HENCE, THE RESULT IN THE AC
 21924					;SHOULD BE 0.  THE AC IS CHECKED FOR 0.  IF C(AC)=0, THIS TEST PASSES.
 21925
 21926	042631	205 00 0 00 777777 	B34400:	MOVSI	-1		;PRELOAD AC WITH -1,,0
 21927	042632	504 00 0 00 070253 		HRL	[0]		;*HRL SHOULD PLACE 0 INTO THE AC
 21928	042633	302 00 0 00 000000 		CAIE	0		;PASS IF C(AC)=0
 21929						STOP^
 21930	042634	254 04 0 00 042635 		HALT	.+1		;TEST FAILED IF PROGRAM HALTS HERE
 21931	042635	324 00 0 00 042636 		JUMPA	.+1		;IF TEST FAILS, CHANGE THIS INSTRUCTION (JUMPA .+1) TO
 21932									;JUMPA X (X IS THE ADDRESS OF THE FIRST INSTRUCTION
 21933									;IN THE SUBTEST) TO LOOP ON ERROR^
 21934
 21935					;**********
DFKAA PDP-10 KL10 BASIC INSTRUCTION DIAGNOSTIC (1) VER 0,2	MACRO %53B(1254)-4 11:50 11-Nov-24 Page 59
DFKAA3	MAC	13-Jan-89 10:22		TEST OF HWT INSTRUCTIONS

 21936					;THIS TEST VERIFIES THAT HLR PLACES THE LEFT HALF OF C(E) INTO
 21937					;THE RIGHT HALF OF THE AC.  THE LEFT HALF OF THE AC IS UNAFFECTED.
 21938					;IN THIS CASE, C(AC)=-1,,0 AND C(E)=0.  HENCE, THE RESULT IN THE AC
 21939					;SHOULD BE -1,,0.  THE AC IS CHECKED FOR -1,,0.  IF C(AC)=-1,,0, THIS TEST PASSES.
 21940
 21941	042636	205 00 0 00 777777 	B34500:	MOVSI	-1		;PRELOAD AC WITH -1,,0
 21942	042637	544 00 0 00 070253 		HLR	[0]		;*HLR SHOULD PLACE -1,,0 INTO THE AC
 21943	042640	312 00 0 00 070331 		CAME	[XWD -1,0]	;PASS IF C(AC)=-1,,0
 21944						STOP^
 21945	042641	254 04 0 00 042642 		HALT	.+1		;TEST FAILED IF PROGRAM HALTS HERE
 21946	042642	324 00 0 00 042643 		JUMPA	.+1		;IF TEST FAILS, CHANGE THIS INSTRUCTION (JUMPA .+1) TO
 21947									;JUMPA X (X IS THE ADDRESS OF THE FIRST INSTRUCTION
 21948									;IN THE SUBTEST) TO LOOP ON ERROR^
 21949
 21950					;**********
 21951
 21952					;THIS TEST VERIFIES THAT HRL PLACES THE RIGHT HALF OF C(E) INTO
 21953					;THE LEFT HALF OF THE AC.  THE RIGHT HALF OF THE AC IS UNAFFECTED
 21954					;IN THIS CASE, C(AC)=-1,,0 AND C(E)=-1,,-1.  HENCE, THE RESULT IN THE AC
 21955					;SHOULD BE -1,,0.  THE AC IS CHECKED FOR -1,,0.  IF C(AC)=-1,,0, THIS TEST PASSES.
 21956
 21957	042643	205 00 0 00 777777 	B34600:	MOVSI	-1		;PRELOAD AC WITH -1,,0
 21958	042644	504 00 0 00 070254 		HRL	[-1]		;*HRL SHOULD PLACE -1,,0 INTO THE AC
 21959	042645	312 00 0 00 070331 		CAME	[XWD -1,0]	;PASS IF C(AC)=-1,,0
 21960						STOP^
 21961	042646	254 04 0 00 042647 		HALT	.+1		;TEST FAILED IF PROGRAM HALTS HERE
 21962	042647	324 00 0 00 042650 		JUMPA	.+1		;IF TEST FAILS, CHANGE THIS INSTRUCTION (JUMPA .+1) TO
 21963									;JUMPA X (X IS THE ADDRESS OF THE FIRST INSTRUCTION
 21964									;IN THE SUBTEST) TO LOOP ON ERROR^
 21965
 21966					;**********
DFKAA PDP-10 KL10 BASIC INSTRUCTION DIAGNOSTIC (1) VER 0,2	MACRO %53B(1254)-4 11:50 11-Nov-24 Page 60
DFKAA3	MAC	13-Jan-89 10:22		TEST OF HWT INSTRUCTIONS

 21967					;THIS TEST VERIFIES THAT HLR PLACES THE LEFT HALF OF C(E) INTO
 21968					;THE RIGHT HALF OF THE AC.  THE LEFT HALF OF THE AC IS UNAFFECTED.
 21969					;IN THIS CASE, C(AC)=-1,,0 AND C(E)=-1,,-1  HENCE, THE RESULT IN THE AC
 21970					;SHOULD BE -1,,-1.  THE AC IS CHECKED FOR -1,,-1.  IF C(AC)=-1,,-1, THIS TEST PASSES.
 21971
 21972	042650	205 00 0 00 777777 	B34700:	MOVSI	-1		;PRELOAD AC WITH -1,,0
 21973	042651	544 00 0 00 070254 		HLR	[-1]		;*HLR SHOULD PLACE -1,,-1 INTO THE AC
 21974	042652	312 00 0 00 070254 		CAME	[-1]		;PASS IF C(AC)=-1,,-1
 21975						STOP^
 21976	042653	254 04 0 00 042654 		HALT	.+1		;TEST FAILED IF PROGRAM HALTS HERE
 21977	042654	324 00 0 00 042655 		JUMPA	.+1		;IF TEST FAILS, CHANGE THIS INSTRUCTION (JUMPA .+1) TO
 21978									;JUMPA X (X IS THE ADDRESS OF THE FIRST INSTRUCTION
 21979									;IN THE SUBTEST) TO LOOP ON ERROR^
 21980
 21981					;**********
 21982
 21983					;THIS TEST VERIFIES THAT HLLM PLACES THE LEFT HALF OF C(AC) INTO
 21984					;THE LEFT HALF OF E.  THE RIGHT HALF OF E IS UNAFFECTED.
 21985					;IN THIS CASE, AC=E AND C(AC)= C(E)=0.  HENCE, THE RESULT IN E
 21986					;SHOULD BE 0.  E IS CHECKED FOR 0.  IF C(E)=0, THIS TEXT PASSES.
 21987
 21988	042655	400 00 0 00 000000 	B35000:	SETZ			;PRELOAD AC,E WITH 0
 21989	042656	502 00 0 00 000000 		HLLM			;*HLLM SHOULD PLACE 0 INTO E
 21990	042657	332 00 0 00 000000 		SKIPE			;PASS IF C(E)=0
 21991						STOP^
 21992	042660	254 04 0 00 042661 		HALT	.+1		;TEST FAILED IF PROGRAM HALTS HERE
 21993	042661	324 00 0 00 042662 		JUMPA	.+1		;IF TEST FAILS, CHANGE THIS INSTRUCTION (JUMPA .+1) TO
 21994									;JUMPA X (X IS THE ADDRESS OF THE FIRST INSTRUCTION
 21995									;IN THE SUBTEST) TO LOOP ON ERROR^
 21996
 21997					;*****     FAILURE ANALYSIS     *****
 21998					;C(AC0)		C(AC1)		FAILING SIGNAL
 21999
 22000					;-1,,0		0		FC: AD FM + EN
 22001					;0,,-1		0,,-1		ET0: AD RT BR + EN
 22002					;B35000		0,,-1		ET0: BR AR EN
 22003					;-1,,0		0,,-1		ET0: AD LT AR + EN
 22004
 22005					;**********
DFKAA PDP-10 KL10 BASIC INSTRUCTION DIAGNOSTIC (1) VER 0,2	MACRO %53B(1254)-4 11:50 11-Nov-24 Page 61
DFKAA3	MAC	13-Jan-89 10:22		TEST OF HWT INSTRUCTIONS

 22006					;THIS TEST VERIFIES THAT HLLM PLACES THE LEFT HALF OF C(AC) INTO
 22007					;THE LEFT HALF OF E.  THE RIGHT HALF OF E IS UNAFFECTED.
 22008					;IN THIS CASE, C(AC)=0 AND C(E)=-1,,-1.  HENCE, THE RESULT IN E
 22009					;SHOULD BE 0,,-1.  E IS CHECKED FOR 0,,-1. IF C(E)=0,,-1, THIS TEST PASSES.
 22010
 22011	042662	400 00 0 00 000000 	B35500:	SETZ			;PRELOAD AC WITH 0
 22012	042663	474 01 0 00 000000 		SETO	1,		;PRELOAD E WITH -1,,-1
 22013	042664	502 00 0 00 000001 		HLLM	1		;*HLLM SHOULD PLACE 0,,-1 INTO E
 22014	042665	302 01 0 00 777777 		CAIE	1,- 1		;PASS IF C(E) =0,,-1
 22015						STOP^
 22016	042666	254 04 0 00 042667 		HALT	.+1		;TEST FAILED IF PROGRAM HALTS HERE
 22017	042667	324 00 0 00 042670 		JUMPA	.+1		;IF TEST FAILS, CHANGE THIS INSTRUCTION (JUMPA .+1) TO
 22018									;JUMPA X (X IS THE ADDRESS OF THE FIRST INSTRUCTION
 22019									;IN THE SUBTEST) TO LOOP ON ERROR^
 22020
 22021					;*****     FAILURE ANALYSIS     *****
 22022					;C(AC0)		C(AC1)		FAILING SIGNAL
 22023
 22024					;0		-1,,-1		SW: FCE PSE
 22025					;0		0		SW: ET0
 22026					;0		-1,,-1		ET0: AR AD EN
 22027					;0		0		ET2: AR LT AD EN
 22028
 22029					;**********
 22030
 22031					;THIS TEST VERIFIES THAT HLLM PLACES THE LEFT HALF OF C(AC) INTO
 22032					;THE LEFT HALF OF E.  THE RIGHT HALF OF E IS UNAFFECTED.
 22033					;IN THIS CASE, C(AC)=-1,,-1 AND C(E)=0.  HENCE, THE RESULT IN E
 22034					;SHOULD BE -1,,0.  E IS CHECKED FOR -1,,0. IF C(E)=-1,,0, THIS TEST PASSES
 22035
 22036	042670	474 00 0 00 000000 	B35600:	SETO			;PRELOAD AC WITH -1,,-1
 22037	042671	400 01 0 00 000000 		SETZ	1,		;PRELOAD E WITH 0
 22038	042672	502 00 0 00 000001 		HLLM	1		;*HLLM SHOULD PLACE -1,,0 INTO E
 22039	042673	312 01 0 00 070331 		CAME	1,[XWD -1,0]	;PASS IF C(E) = -1,,0
 22040						STOP^
 22041	042674	254 04 0 00 042675 		HALT	.+1		;TEST FAILED IF PROGRAM HALTS HERE
 22042	042675	324 00 0 00 042676 		JUMPA	.+1		;IF TEST FAILS, CHANGE THIS INSTRUCTION (JUMPA .+1) TO
 22043									;JUMPA X (X IS THE ADDRESS OF THE FIRST INSTRUCTION
 22044									;IN THE SUBTEST) TO LOOP ON ERROR^
 22045
 22046					;**********
DFKAA PDP-10 KL10 BASIC INSTRUCTION DIAGNOSTIC (1) VER 0,2	MACRO %53B(1254)-4 11:50 11-Nov-24 Page 62
DFKAA3	MAC	13-Jan-89 10:22		TEST OF HWT INSTRUCTIONS

 22047					;THIS TEST VERIFIES THAT HRRM PLACES THE RIGHT HALF OF C(AC) INTO
 22048					;THE RIGHT HALF OF E.  THE LEFT HALF OF E IS UNAFFECTED.
 22049					;IN THIS CASE, C(AC)=0 AND C(E)=-1,,-1.  HENCE, THE RESULT IN E
 22050					;SHOULD BE -1,,0.  E IS CHECKED FOR -1,,0
 22051					;IF C(E) = -1,,0, THIS TEST PASSES.
 22052
 22053	042676	400 00 0 00 000000 	B35700:	SETZ			;PRELOAD AC WITH 0
 22054	042677	474 01 0 00 000000 		SETO	1,		;PRELOAD E WITH -1,,-1
 22055	042700	542 00 0 00 000001 		HRRM	1		;*HRRM SHOULD PLACE -1,,0 INTO E
 22056	042701	312 01 0 00 070331 		CAME	1,[XWD -1,0]	;PASS IF C(E) = -1,,0
 22057						STOP^
 22058	042702	254 04 0 00 042703 		HALT	.+1		;TEST FAILED IF PROGRAM HALTS HERE
 22059	042703	324 00 0 00 042704 		JUMPA	.+1		;IF TEST FAILS, CHANGE THIS INSTRUCTION (JUMPA .+1) TO
 22060									;JUMPA X (X IS THE ADDRESS OF THE FIRST INSTRUCTION
 22061									;IN THE SUBTEST) TO LOOP ON ERROR^
 22062
 22063					;*****     FAILURE ANALYSIS     *****
 22064					;C(AC0)		C(AC1)		FAILING SIGNAL
 22065
 22066					;0		-1,,-1		SW: FCE PSE
 22067					;0		0		SW: ET0
 22068					;0		-1,,-1		FC: AD FM + EN
 22069					;-1,,-1		-1,,-1		ET0: AD LT BR + EN
 22070					;0		-1,,-1		ET0: AD RT AR + EN
 22071					;0		0		ET0: BR AR EN
 22072					;0		-1,,-1		ET0: AR AD EN
 22073					;0		0		ET2: AR AD EN
 22074
 22075					;**********
 22076
 22077					;THIS TEST VERIFIES THAT HRRM PLACES THE RIGHT HALF OF C(AC) INTO
 22078					;THE RIGHT HALF OF E.  THE LEFT HALF OF E IS UNAFFECTED.
 22079					;IN THIS CASE, C(AC)=-1,,-1 AND C(E)=0.  HENCE, THE RESULT IN E
 22080					;SHOULD BE 0,,-1.  E IS CHECKED FOR = 0,,-1
 22081					;IF C(E) = 0,,-1, THIS TEST PASSES.
 22082
 22083	042704	474 00 0 00 000000 	B36000:	SETO			;PRELOAD AC WITH -1,,-1
 22084	042705	400 01 0 00 000000 		SETZ	1,		;PRELOAD E WITH 0
 22085	042706	542 00 0 00 000001 		HRRM	1		;*HRRM SHOULD PLACE 0,,-1 INTO E
 22086	042707	302 01 0 00 777777 		CAIE	1,-1		;PASS IF C(E) = 0,,-1
 22087						STOP^
 22088	042710	254 04 0 00 042711 		HALT	.+1		;TEST FAILED IF PROGRAM HALTS HERE
 22089	042711	324 00 0 00 042712 		JUMPA	.+1		;IF TEST FAILS, CHANGE THIS INSTRUCTION (JUMPA .+1) TO
 22090									;JUMPA X (X IS THE ADDRESS OF THE FIRST INSTRUCTION
 22091									;IN THE SUBTEST) TO LOOP ON ERROR^
 22092
 22093					;**********
DFKAA PDP-10 KL10 BASIC INSTRUCTION DIAGNOSTIC (1) VER 0,2	MACRO %53B(1254)-4 11:50 11-Nov-24 Page 63
DFKAA3	MAC	13-Jan-89 10:22		TEST OF HWT INSTRUCTIONS

 22094					;THIS TEST VERIFIES THAT HLLO PLACES THE LEFT HALF OF C(E) INTO
 22095					;THE LEFT HALF OF THE AC AND PLACES ONES INTO THE RIGHT HALF OF THE AC.
 22096					;IN THIS CASE, AC=E AND C(AC)=C(E)=-1,,-1.  HENCE THE RESULT IN THE AC
 22097					;SHOULD BE -1,,-1.  THE AC IS CHECKED FOR -1,,-1.  IF C(AC)=-1,,-1, THIS TEST PASSES.
 22098
 22099	042712	474 00 0 00 000000 	B36100:	SETO			;PRELOAD AC WITH -1,,-1
 22100	042713	520 00 0 00 000000 		HLLO			;*HLLO SHOULD PLACE -1,,-1 INTO THE AC
 22101	042714	312 00 0 00 070254 		CAME	[-1]		;PASS OF C(AC)=-1,,-1
 22102						STOP^
 22103	042715	254 04 0 00 042716 		HALT	.+1		;TEST FAILED IF PROGRAM HALTS HERE
 22104	042716	324 00 0 00 042717 		JUMPA	.+1		;IF TEST FAILS, CHANGE THIS INSTRUCTION (JUMPA .+1) TO
 22105									;JUMPA X (X IS THE ADDRESS OF THE FIRST INSTRUCTION
 22106									;IN THE SUBTEST) TO LOOP ON ERROR^
 22107
 22108					;*****     FAILURE ANALYSIS     *****
 22109					;C(AC0)		C(AC1)		FAILING SIGNAL
 22110
 22111					;0,,-1				SW: FCE
 22112
 22113					;**********
 22114
 22115					;THIS TEST VERIFIES THAT HLLO PLACES THE LEFT HALF OF C(E) INTO
 22116					;THE LEFT HALF OF THE AC AND PLACES ONES INTO THE RIGHT HALF OF THE AC.
 22117					;IN THIS CASE, C(AC)=0 AND C(E)=0,,-1.  HENCE THE RESULT IN THE AC
 22118					;SHOULD BE 0,,-1.  THE AC IS CHECKED FOR 0,,-1.  IF C(AC)=0,,-1, THIS TEST PASSES.
 22119
 22120	042717	400 00 0 00 000000 	B36200:	SETZ			;PRELOAD AC WITH 0
 22121	042720	520 00 0 00 070330 		HLLO	[XWD 0,-1]	;*HLLO SHOULD PLACE 0,,-1 INTO THE AC
 22122	042721	302 00 0 00 777777 		CAIE	-1		;PASS IF C(AC)=0,,-1
 22123						STOP^
 22124	042722	254 04 0 00 042723 		HALT	.+1		;TEST FAILED IF PROGRAM HALTS HERE
 22125	042723	324 00 0 00 042724 		JUMPA	.+1		;IF TEST FAILS, CHANGE THIS INSTRUCTION (JUMPA .+1) TO
 22126									;JUMPA X (X IS THE ADDRESS OF THE FIRST INSTRUCTION
 22127									;IN THE SUBTEST) TO LOOP ON ERROR^
 22128
 22129					;*****     FAILURE ANALYSIS     *****
 22130					;C(AC0)		C(AC1)		FAILING SIGNAL
 22131
 22132					;-1,,-1				FC: AD LT AR + EN
 22133
 22134					;**********
DFKAA PDP-10 KL10 BASIC INSTRUCTION DIAGNOSTIC (1) VER 0,2	MACRO %53B(1254)-4 11:50 11-Nov-24 Page 64
DFKAA3	MAC	13-Jan-89 10:22		TEST OF HWT INSTRUCTIONS

 22135					;THIS TEST VERIFIES THAT HRRO PLACES THE RIGHT HALF OF C(E) INTO
 22136					;THE RIGHT HALF OF THE AC AND PLACES ONES INTO THE LEFT HALF OF THE AC.
 22137					;IN THIS CASE, AC=E AND C(AC)=C(E)=-1,,-1.  HENCE, THE RESULT IN THE AC
 22138					;SHOULD BE -1,,-1.  THE AC IS CHECKED FOR -1,,-1.  IF C(AC)=-1,,-1, THIS TEST PASSES.
 22139
 22140	042724	474 00 0 00 000000 	B36300:	SETO			;PRELOAD AC,E WITH -1,,-1
 22141	042725	560 00 0 00 000000 		HRRO			;*HRRO SHOULD PLACE -1,,-1 INTO THE AC
 22142	042726	312 00 0 00 070254 		CAME	[-1]		;PASS IF C(AC)=-1,,-1
 22143						STOP^
 22144	042727	254 04 0 00 042730 		HALT	.+1		;TEST FAILED IF PROGRAM HALTS HERE
 22145	042730	324 00 0 00 042731 		JUMPA	.+1		;IF TEST FAILS, CHANGE THIS INSTRUCTION (JUMPA .+1) TO
 22146									;JUMPA X (X IS THE ADDRESS OF THE FIRST INSTRUCTION
 22147									;IN THE SUBTEST) TO LOOP ON ERROR^
 22148
 22149					;*****     FAILURE ANALYSIS     *****
 22150					;C(AC0)		C(AC1)		FAILING SIGNAL
 22151
 22152					;-1,,0				SW: FCE
 22153
 22154					;**********
 22155
 22156					;THIS TEST VERIFIES THAT HRRO PLACES THE RIGHT HALF OF C(E) INTO
 22157					;THE RIGHT HALF OF THE AC AND PLACES ONES INTO THE LEFT HALF OF THE AC.
 22158					;IN THIS CASE, C(AC)=0 AND C(E)=-1,,0.  HENCE, THE RESULT IN THE AC
 22159					;SHOULD BE -1,,0.  THE AC IS CHECKED FOR -1,,0.  IF C(AC)=-1,,0, THIS TEST PASSES.
 22160
 22161	042731	400 00 0 00 000000 	B36400:	SETZ			;PRELOAD AC WITH 0
 22162	042732	560 00 0 00 070331 		HRRO	[XWD -1,0]	;*HRRO SHOULD PLACE -1,,0 INTO THE AC
 22163	042733	312 00 0 00 070331 		CAME	[-1,,0]		;PASS IF C(AC)=-1,,0
 22164						STOP^
 22165	042734	254 04 0 00 042735 		HALT	.+1		;TEST FAILED IF PROGRAM HALTS HERE
 22166	042735	324 00 0 00 042736 		JUMPA	.+1		;IF TEST FAILS, CHANGE THIS INSTRUCTION (JUMPA .+1) TO
 22167									;JUMPA X (X IS THE ADDRESS OF THE FIRST INSTRUCTION
 22168									;IN THE SUBTEST) TO LOOP ON ERROR^
 22169
 22170					;*****     FAILURE ANALYSIS     *****
 22171					;C(AC0)		C(AC1)		FAILING SIGNAL
 22172
 22173					;-1,,-1				FC: AD RT AR + EN
 22174
 22175					;**********
DFKAA PDP-10 KL10 BASIC INSTRUCTION DIAGNOSTIC (1) VER 0,2	MACRO %53B(1254)-4 11:50 11-Nov-24 Page 65
DFKAA3	MAC	13-Jan-89 10:22		TEST OF HWT INSTRUCTIONS

 22176					;THIS TEST VERIFIES THAT HLLO PLACES THE LEFT HALF OF C(E) INTO
 22177					;THE LEFT HALF OF THE AC AND PLACES ONES INTO THE RIGHT HALF OF THE AC.
 22178					;IN THIS CASE, C(AC)=0 AND C(E)=0.  HENCE THE RESULT IN THE AC
 22179					;SHOULD BE 0,,-1.  THE AC IS CHECKED FOR 0,,-1.  IF C(AC)=0,,-1, THIS TEST PASSES.
 22180
 22181	042736	400 00 0 00 000000 	B36500:	SETZ			;PRELOAD AC WITH 0
 22182	042737	520 00 0 00 070253 		HLLO	[0]		;*HLLO SHOULD PLACE 0,,-1 INTO THE AC
 22183	042740	302 00 0 00 777777 		CAIE	-1		;PASS IF C(AC)=0,,-1
 22184						STOP^
 22185	042741	254 04 0 00 042742 		HALT	.+1		;TEST FAILED IF PROGRAM HALTS HERE
 22186	042742	324 00 0 00 042743 		JUMPA	.+1		;IF TEST FAILS, CHANGE THIS INSTRUCTION (JUMPA .+1) TO
 22187									;JUMPA X (X IS THE ADDRESS OF THE FIRST INSTRUCTION
 22188									;IN THE SUBTEST) TO LOOP ON ERROR^
 22189
 22190					;*****     FAILURE ANALYSIS     *****
 22191					;C(AC0)		C(AC1)		FAILING SIGNAL
 22192
 22193					;0				ET2: AR LT AD EN
 22194
 22195					;**********
 22196
 22197					;THIS TEST VERIFIES THAT HRRO PLACES THE RIGHT HALF OF C(E) INTO
 22198					;THE RIGHT HALF OF THE AC AND PLACES ONES INTO THE LEFT HALF OF THE AC.
 22199					;IN THIS CASE, C(AC)=0 AND C(E)=0.  HENCE, THE RESULT IN THE AC
 22200					;SHOULD BE -1,,0.  THE AC IS CHECKED FOR -1,,0.  IF C(AC)=-1,,0, THIS TEST PASSES.
 22201
 22202	042743	400 00 0 00 000000 	B36600:	SETZ			;PRELOAD AC WITH 0
 22203	042744	560 00 0 00 070253 		HRRO	[0]		;*HRRO SHOULD PLACE -1,,0 INTO THE AC
 22204	042745	312 00 0 00 070331 		CAME	[-1,,0]		;PASS IF C(AC)=-1,,0
 22205						STOP^
 22206	042746	254 04 0 00 042747 		HALT	.+1		;TEST FAILED IF PROGRAM HALTS HERE
 22207	042747	324 00 0 00 042750 		JUMPA	.+1		;IF TEST FAILS, CHANGE THIS INSTRUCTION (JUMPA .+1) TO
 22208									;JUMPA X (X IS THE ADDRESS OF THE FIRST INSTRUCTION
 22209									;IN THE SUBTEST) TO LOOP ON ERROR^
 22210
 22211					;*****     FAILURE ANALYSIS     *****
 22212					;C(AC0)		C(AC1)		FAILING SIGNAL
 22213
 22214					;0				ET2: AR AD EN
 22215
 22216					;**********
DFKAA PDP-10 KL10 BASIC INSTRUCTION DIAGNOSTIC (1) VER 0,2	MACRO %53B(1254)-4 11:50 11-Nov-24 Page 66
DFKAA3	MAC	13-Jan-89 10:22		TEST OF HWT INSTRUCTIONS

 22217					;THIS TEST VERIFIES THAT HLLOI ALWAYS PLACES 0,,-1 INTO THE AC.
 22218					;IN THIS CASE, C(AC)=0 AND E=0.
 22219					;THE RESULT IN THE AC SHOULD BE 0,,-1.
 22220					;THE AC IS CHECKED FOR 0,,-1.  IF C(AC)=0,,-1, THIS TEST PASSES
 22221
 22222	042750	400 00 0 00 000000 	B37100:	SETZ			;PRELOAD AC WITH 0
 22223	042751	521 00 0 00 000000 		HLLOI			;*HLLOI SHOULD PLACE 0,,-1 INTO THE AC
 22224	042752	302 00 0 00 777777 		CAIE	-1		;PASS IF C(AC)=0,,-1
 22225						STOP^
 22226	042753	254 04 0 00 042754 		HALT	.+1		;TEST FAILED IF PROGRAM HALTS HERE
 22227	042754	324 00 0 00 042755 		JUMPA	.+1		;IF TEST FAILS, CHANGE THIS INSTRUCTION (JUMPA .+1) TO
 22228									;JUMPA X (X IS THE ADDRESS OF THE FIRST INSTRUCTION
 22229									;IN THE SUBTEST) TO LOOP ON ERROR^
 22230
 22231					;*****     FAILURE ANALYSIS     *****
 22232					;C(AC0)		C(AC1)		FAILING SIGNAL
 22233
 22234					;-1,,-1				FC: AD LT AR + EN
 22235					;0				ET2: AR AD EN
 22236
 22237					;**********
 22238
 22239					;THIS TEST VERIFIES THAT HRROI PLACES E INTO THE RIGHT HALF OF THE AC
 22240					;AND PLACES ONES INTO THE LEFT HALF OF THE AC.
 22241					;IN THIS CASE, C(AC)=0 AND E=0.  HENCE, THE RESULT IN THE AC
 22242					;SHOULD BE -1,,0.  THE AC IS CHECKED FOR -1,,0.  IF C(AC)=-1, THIS TEST PASSES
 22243
 22244	042755	400 00 0 00 000000 	B37200:	SETZ			;PRELOAD AC WITH 0
 22245	042756	561 00 0 00 000000 		HRROI			;*HRROI SHOULD PLACE -1,,0 INTO THE AC
 22246	042757	312 00 0 00 070331 		CAME	[XWD -1,0]	;PASS IF C(AC)=-1,,0
 22247						STOP^
 22248	042760	254 04 0 00 042761 		HALT	.+1		;TEST FAILED IF PROGRAM HALTS HERE
 22249	042761	324 00 0 00 042762 		JUMPA	.+1		;IF TEST FAILS, CHANGE THIS INSTRUCTION (JUMPA .+1) TO
 22250									;JUMPA X (X IS THE ADDRESS OF THE FIRST INSTRUCTION
 22251									;IN THE SUBTEST) TO LOOP ON ERROR^
 22252
 22253					;*****     FAILURE ANALYSIS     *****
 22254					;C(AC0)		C(AC1)		FAILING SIGNAL
 22255
 22256					;-1,,-1				FC: AD RT AR + EN
 22257					;0				ET2: AR AD EN
 22258
 22259					;**********
DFKAA PDP-10 KL10 BASIC INSTRUCTION DIAGNOSTIC (1) VER 0,2	MACRO %53B(1254)-4 11:50 11-Nov-24 Page 67
DFKAA3	MAC	13-Jan-89 10:22		TEST OF HWT INSTRUCTIONS

 22260					;THIS TEST VERIFIES THAT HLLO PLACES THE LEFT HALF OF C(E) INTO
 22261					;THE LEFT HALF OF THE AC AND PLACES ONES INTO THE RIGHT HALF OF THE AC.
 22262					;IN THIS CASE, C(AC)=0 AND C(E)=-1,,0.  HENCE THE RESULT IN THE AC
 22263					;SHOULD BE -1,,-1.  THE AC IS CHECKED FOR -1,,-1.  IF C(AC)=-1,,-1, THIS TEST PASSES.
 22264
 22265	042762	400 00 0 00 000000 	B37300:	SETZ			;PRELOAD AC WITH 0
 22266	042763	520 00 0 00 070331 		HLLO	[XWD -1,0]	;*HLLO SHOULD PLACE -1,,-1 INTO THE AC
 22267	042764	312 00 0 00 070254 		CAME	[-1]		;PASS IF C(AC)=-1,,-1
 22268						STOP^
 22269	042765	254 04 0 00 042766 		HALT	.+1		;TEST FAILED IF PROGRAM HALTS HERE
 22270	042766	324 00 0 00 042767 		JUMPA	.+1		;IF TEST FAILS, CHANGE THIS INSTRUCTION (JUMPA .+1) TO
 22271									;JUMPA X (X IS THE ADDRESS OF THE FIRST INSTRUCTION
 22272									;IN THE SUBTEST) TO LOOP ON ERROR^
 22273
 22274					;**********
 22275
 22276					;THIS TEST VERIFIES THAT HRROI PLACES E INTO THE RIGHT HALF OF THE AC
 22277					;AND PLACES ONES INTO THE LEFT HALF OF THE AC.
 22278					;IN THIS CASE, C(AC)=0 AND E=0,,-1.  HENCE, THE RESULT IN THE AC
 22279					;SHOULD BE -1,,-1.  THE AC IS CHECKED FOR -1,,-1.  IF C(AC)=-1,,-1, THIS TEST PASSES
 22280
 22281	042767	400 00 0 00 000000 	B37400:	SETZ			;PRELOAD AC WITH 0
 22282	042770	561 00 0 00 777777 		HRROI	-1		;*HRRIO SHOULD PLACE -1,,-1 INTO THE AC
 22283	042771	312 00 0 00 070254 		CAME	[-1]		;PASS IF C(AC)=-1,,-1
 22284						STOP^
 22285	042772	254 04 0 00 042773 		HALT	.+1		;TEST FAILED IF PROGRAM HALTS HERE
 22286	042773	324 00 0 00 042774 		JUMPA	.+1		;IF TEST FAILS, CHANGE THIS INSTRUCTION (JUMPA .+1) TO
 22287									;JUMPA X (X IS THE ADDRESS OF THE FIRST INSTRUCTION
 22288									;IN THE SUBTEST) TO LOOP ON ERROR^
 22289
 22290					;**********
DFKAA PDP-10 KL10 BASIC INSTRUCTION DIAGNOSTIC (1) VER 0,2	MACRO %53B(1254)-4 11:50 11-Nov-24 Page 68
DFKAA3	MAC	13-Jan-89 10:22		TEST OF HWT INSTRUCTIONS

 22291					;THIS TEST VERIFIES THAT HLLOI ALWAYS PLACES 0,,-1 INTO THE AC.
 22292					;IN THIS CASE, C(AC)=0 AND E=0.
 22293					;THE RESULT IN THE AC SHOULD BE 0,,-1.
 22294					;THE AC IS CHECKED FOR 0,,-1.  IF C(AC)=0,,-1, THIS TEST PASSES
 22295
 22296	042774	474 00 0 00 000000 	B37500:	SETO			;PRELOAD AC WITH -1,,-1
 22297	042775	521 00 0 00 000000 		HLLOI			;*HLLOI SHOULD PLACE 0,,-1 INTO THE AC
 22298	042776	302 00 0 00 777777 		CAIE	-1		;PASS IF C(AC)=0,,-1
 22299						STOP^
 22300	042777	254 04 0 00 043000 		HALT	.+1		;TEST FAILED IF PROGRAM HALTS HERE
 22301	043000	324 00 0 00 043001 		JUMPA	.+1		;IF TEST FAILS, CHANGE THIS INSTRUCTION (JUMPA .+1) TO
 22302									;JUMPA X (X IS THE ADDRESS OF THE FIRST INSTRUCTION
 22303									;IN THE SUBTEST) TO LOOP ON ERROR^
 22304
 22305					;**********
 22306
 22307					;THIS TEST VERIFIES THAT HRROI PLACES E INTO THE RIGHT HALF OF THE AC
 22308					;AND PLACES ONES INTO THE LEFT HALF OF THE AC.
 22309					;IN THIS CASE, C(AC)=0 AND E=0.  HENCE, THE RESULT IN THE AC
 22310					;SHOULD BE -1,,0.  THE AC IS CHECKED FOR -1,,0.  IF C(AC)=-1,,0, THIS TEST PASSES
 22311
 22312	043001	474 00 0 00 000000 	B37600:	SETO			;PRELOAD AC WITH -1,,-1
 22313	043002	561 00 0 00 000000 		HRROI			;*HRRIO SHOULD PLACE -1,,0 INTO THE AC
 22314	043003	312 00 0 00 070331 		CAME	[XWD -1,0]	;PASS IF C(AC)=-1,,0
 22315						STOP^
 22316	043004	254 04 0 00 043005 		HALT	.+1		;TEST FAILED IF PROGRAM HALTS HERE
 22317	043005	324 00 0 00 043006 		JUMPA	.+1		;IF TEST FAILS, CHANGE THIS INSTRUCTION (JUMPA .+1) TO
 22318									;JUMPA X (X IS THE ADDRESS OF THE FIRST INSTRUCTION
 22319									;IN THE SUBTEST) TO LOOP ON ERROR^
 22320
 22321					;**********
DFKAA PDP-10 KL10 BASIC INSTRUCTION DIAGNOSTIC (1) VER 0,2	MACRO %53B(1254)-4 11:50 11-Nov-24 Page 69
DFKAA3	MAC	13-Jan-89 10:22		TEST OF HWT INSTRUCTIONS

 22322					;THIS TEST VERIFIES THAT HLLO PLACES THE LEFT HALF OF C(E) INTO
 22323					;THE LEFT HALF OF THE AC AND PLACES ONES INTO THE RIGHT HALF OF THE AC.
 22324					;IN THIS CASE, C(AC)=-1,,-1 AND C(E)=-1,,0.  HENCE THE RESULT IN THE AC
 22325					;SHOULD BE -1,,-1.  THE AC IS CHECKED FOR -1,,-1.  IF C(AC)=-1,,-1, THIS TEST PASSES.
 22326
 22327	043006	474 00 0 00 000000 	B37700:	SETO			;PRELOAD AC WITH -1,,-1
 22328	043007	520 00 0 00 070331 		HLLO	[XWD -1,0]	;*HLLO SHOULD PLACE -1,,-1 INTO THE AC
 22329	043010	312 00 0 00 070254 		CAME	[-1]		;PASS IF C(AC)=-1,,-1
 22330						STOP^
 22331	043011	254 04 0 00 043012 		HALT	.+1		;TEST FAILED IF PROGRAM HALTS HERE
 22332	043012	324 00 0 00 043013 		JUMPA	.+1		;IF TEST FAILS, CHANGE THIS INSTRUCTION (JUMPA .+1) TO
 22333									;JUMPA X (X IS THE ADDRESS OF THE FIRST INSTRUCTION
 22334									;IN THE SUBTEST) TO LOOP ON ERROR^
 22335
 22336					;**********
 22337
 22338					;THIS TEST VERIFIES THAT HRROI PLACES E INTO THE RIGHT HALF OF THE AC
 22339					;AND PLACES ONES INTO THE LEFT HALF OF THE AC.
 22340					;IN THIS CASE, C(AC)=-1,,-1 AND E=0,,-1.  HENCE, THE RESULT IN THE AC
 22341					;SHOULD BE -1,,-1.  THE AC IS CHECKED FOR -1,,-1.  IF C(AC)=-1,,-1, THIS TEST PASSES
 22342
 22343	043013	474 00 0 00 000000 	B40000:	SETO			;PRELOAD AC WITH -1,,-1
 22344	043014	561 00 0 00 777777 		HRROI	-1		;*HRRIO SHOULD PLACE -1,,-1 INTO THE AC
 22345	043015	312 00 0 00 070254 		CAME	[-1]		;PASS IF C(AC)=-1,,-1
 22346						STOP^
 22347	043016	254 04 0 00 043017 		HALT	.+1		;TEST FAILED IF PROGRAM HALTS HERE
 22348	043017	324 00 0 00 043020 		JUMPA	.+1		;IF TEST FAILS, CHANGE THIS INSTRUCTION (JUMPA .+1) TO
 22349									;JUMPA X (X IS THE ADDRESS OF THE FIRST INSTRUCTION
 22350									;IN THE SUBTEST) TO LOOP ON ERROR^
 22351
 22352					;**********
DFKAA PDP-10 KL10 BASIC INSTRUCTION DIAGNOSTIC (1) VER 0,2	MACRO %53B(1254)-4 11:50 11-Nov-24 Page 70
DFKAA3	MAC	13-Jan-89 10:22		TEST OF HWT INSTRUCTIONS

 22353					;THIS TEST VERIFIES THAT HRROI PLACES E INTO THE RIGHT HALF OF THE AC
 22354					;AND PLACES ONES INTO THE LEFT HALF OF THE AC.
 22355					;IN THIS CASE, C(AC)=0,,-1 AND E=0.  HENCE, THE RESULT IN THE AC
 22356					;SHOULD BE -1,,0.  THE AC IS CHECKED FOR -1,,0.  IF C(AC)=-1,,0, THIS TEST PASSES
 22357
 22358	043020	201 00 0 00 777777 	B40100:	MOVEI	-1		;PRELOAD AC WITH 0,,-1
 22359	043021	561 00 0 00 000000 		HRROI			;*HRRIO SHOULD PLACE -1,,0 INTO THE AC
 22360	043022	312 00 0 00 070331 		CAME	[XWD -1,0]	;PASS IF C(AC)=-1,,0
 22361						STOP^
 22362	043023	254 04 0 00 043024 		HALT	.+1		;TEST FAILED IF PROGRAM HALTS HERE
 22363	043024	324 00 0 00 043025 		JUMPA	.+1		;IF TEST FAILS, CHANGE THIS INSTRUCTION (JUMPA .+1) TO
 22364									;JUMPA X (X IS THE ADDRESS OF THE FIRST INSTRUCTION
 22365									;IN THE SUBTEST) TO LOOP ON ERROR^
 22366
 22367					;**********
 22368
 22369					;THIS TEST VERIFIES THAT HLLO PLACES THE LEFT HALF OF C(E) INTO
 22370					;THE LEFT HALF OF THE AC AND PLACES ONES INTO THE RIGHT HALF OF THE AC.
 22371					;IN THIS CASE, C(AC)=-1,,0 AND C(E)=0,,-1.  HENCE THE RESULT IN THE AC
 22372					;SHOULD BE 0,,-1.  THE AC IS CHECKED FOR 0,,-1.  IF C(AC)=0,,-1, THIS TEST PASSES.
 22373
 22374	043025	205 00 0 00 777777 	B40200:	MOVSI	-1		;PRELOAD AC WITH -1,,0
 22375	043026	520 00 0 00 070330 		HLLO	[XWD 0,-1]	;*HLLO SHOULD PLACE 0,,-1 INTO THE AC
 22376	043027	302 00 0 00 777777 		CAIE	-1		;PASS IF C(AC)=0,,-1
 22377						STOP^
 22378	043030	254 04 0 00 043031 		HALT	.+1		;TEST FAILED IF PROGRAM HALTS HERE
 22379	043031	324 00 0 00 043032 		JUMPA	.+1		;IF TEST FAILS, CHANGE THIS INSTRUCTION (JUMPA .+1) TO
 22380									;JUMPA X (X IS THE ADDRESS OF THE FIRST INSTRUCTION
 22381									;IN THE SUBTEST) TO LOOP ON ERROR^
 22382
 22383					;**********
DFKAA PDP-10 KL10 BASIC INSTRUCTION DIAGNOSTIC (1) VER 0,2	MACRO %53B(1254)-4 11:50 11-Nov-24 Page 71
DFKAA3	MAC	13-Jan-89 10:22		TEST OF HWT INSTRUCTIONS

 22384					;THIS TEST VERIFIES THAT HRLZ PLACES THE RIGHT HALF OF C(E)
 22385					;INTO THE LEFT HALF OF THE AC.
 22386					;AND PLACES ZEROS INTO THE RIGHT HALF OF THE AC.
 22387					;IN THIS CASE, AC=E AND C(AC)=C(E)=0. HENCE, THE FINAL RESULT IN THE AC
 22388					;SHOULD BE 0.  THE AC IS CHECKED FOR 0.  IF C(AC)=0, THIS TEST PASSES.
 22389
 22390	043032	400 00 0 00 000000 	B40300:	SETZ			;PRELOAD AC WITH 0
 22391	043033	514 00 0 00 000000 		HRLZ			;*HRLZ SHOULD PLACE 0 INTO THE AC
 22392	043034	332 00 0 00 000000 		SKIPE			;PASS IF C(AC)=0
 22393						STOP^
 22394	043035	254 04 0 00 043036 		HALT	.+1		;TEST FAILED IF PROGRAM HALTS HERE
 22395	043036	324 00 0 00 043037 		JUMPA	.+1		;IF TEST FAILS, CHANGE THIS INSTRUCTION (JUMPA .+1) TO
 22396									;JUMPA X (X IS THE ADDRESS OF THE FIRST INSTRUCTION
 22397									;IN THE SUBTEST) TO LOOP ON ERROR^
 22398
 22399					;**********
 22400
 22401					;THIS TEST VERIFIES THAT HLRZ PLACES THE LEFT HALF OF C(E)
 22402					;INTO THE RIGHT HALF OF THE AC
 22403					;AND PLACES ZEROS INTO THE LEFT HALF OF THE AC.
 22404					;IN THIS CASE, AC=E AND C(AC)=C(E)=0.  HENCE, THE RESULT IN THE AC
 22405					;SHOULD BE 0.  THE AC IS CHECKED FOR 0.  IF C(AC)=0, THIS TEST PASSES.
 22406
 22407	043037	400 00 0 00 000000 	B40400:	SETZ			;PRELOAD AC WITH 0
 22408	043040	554 00 0 00 000000 		HLRZ			;*HLRZ SHOULD PLACE 0 INTO THE AC
 22409	043041	332 00 0 00 000000 		SKIPE			;PASS IF C(AC)=0
 22410						STOP^
 22411	043042	254 04 0 00 043043 		HALT	.+1		;TEST FAILED IF PROGRAM HALTS HERE
 22412	043043	324 00 0 00 043044 		JUMPA	.+1		;IF TEST FAILS, CHANGE THIS INSTRUCTION (JUMPA .+1) TO
 22413									;JUMPA X (X IS THE ADDRESS OF THE FIRST INSTRUCTION
 22414									;IN THE SUBTEST) TO LOOP ON ERROR^
 22415
 22416					;**********
DFKAA PDP-10 KL10 BASIC INSTRUCTION DIAGNOSTIC (1) VER 0,2	MACRO %53B(1254)-4 11:50 11-Nov-24 Page 72
DFKAA3	MAC	13-Jan-89 10:22		TEST OF HWT INSTRUCTIONS

 22417					;THIS TEST VERIFIES THAT HRLZI PLACES E INTO THE LEFT HALF OF THE AC
 22418					;AND PLACES ZEROS INTO THE RIGHT HALF OF THE AC.
 22419					;IN THIS CASE, C(AC)=0 AND E=0,,-1.  HENCE THE RESULT IN THE AC
 22420					;SHOULD BE -1,,0.  THE AC IS CHECKED FOR -1,,0
 22421					;IF C(AC)=-1,,0, THIS TEST PASSES.
 22422
 22423	043044	400 00 0 00 000000 	B40700:	SETZ			;PRELOAD AC WITH 0
 22424	043045	515 00 0 00 777777 		HRLZI	-1		;*HRLZI SHOULD PLACE -1,,0 INTO THE AC
 22425	043046	312 00 0 00 070331 		CAME	[XWD -1,0]	;PASS IF C(AC)=-1,,0.
 22426						STOP^
 22427	043047	254 04 0 00 043050 		HALT	.+1		;TEST FAILED IF PROGRAM HALTS HERE
 22428	043050	324 00 0 00 043051 		JUMPA	.+1		;IF TEST FAILS, CHANGE THIS INSTRUCTION (JUMPA .+1) TO
 22429									;JUMPA X (X IS THE ADDRESS OF THE FIRST INSTRUCTION
 22430									;IN THE SUBTEST) TO LOOP ON ERROR^
 22431
 22432					;*****     FAILURE ANALYSIS     *****
 22433					;C(AC0)		C(AC1)		FAILING SIGNAL
 22434
 22435					;0				ET2: AR LT AR RT EN
 22436
 22437					;**********
 22438
 22439					;THIS TEST VERIFIES THAT HLRZ PLACES THE LEFT HALF OF C(E)
 22440					;INTO THE RIGHT HALF OF THE AC
 22441					;AND PLACES ZEROS INTO THE LEFT HALF OF THE AC.
 22442					;IN THIS CASE, C(AC)=0 AND C(E)=-1,,0.  HENCE, THE RESULT IN THE AC
 22443					;SHOULD BE 0,,-1.  THE AC IS CHECKED FOR 0,,-1.  IF C(AC)=0,,-1, THIS TEST PASSES.
 22444
 22445	043051	400 00 0 00 000000 	B41000:	SETZ			;PRELOAD AC WITH 0
 22446	043052	554 00 0 00 070331 		HLRZ	[XWD -1,0]	;*HLRZ SHOULD PLACE 0,,-1 INTO THE AC
 22447	043053	302 00 0 00 777777 		CAIE	-1		;PASS IF C(AC)=0,,-1
 22448						STOP^
 22449	043054	254 04 0 00 043055 		HALT	.+1		;TEST FAILED IF PROGRAM HALTS HERE
 22450	043055	324 00 0 00 043056 		JUMPA	.+1		;IF TEST FAILS, CHANGE THIS INSTRUCTION (JUMPA .+1) TO
 22451									;JUMPA X (X IS THE ADDRESS OF THE FIRST INSTRUCTION
 22452									;IN THE SUBTEST) TO LOOP ON ERROR^
 22453
 22454					;*****     FAILURE ANALYSIS     *****
 22455					;C(AC0)		C(AC1)		FAILING SIGNAL
 22456
 22457					;0				SW: FCE
 22458					;-1,,0				ET2: AR RT AR LT EN
 22459
 22460					;**********
DFKAA PDP-10 KL10 BASIC INSTRUCTION DIAGNOSTIC (1) VER 0,2	MACRO %53B(1254)-4 11:50 11-Nov-24 Page 73
DFKAA3	MAC	13-Jan-89 10:22		TEST OF HWT INSTRUCTIONS

 22461					;THIS TEST VERIFIES THAT HRLZI PLACES E INTO THE LEFT HALF OF THE AC
 22462					;AND PLACES ZEROS INTO THE RIGHT HALF OF THE AC.
 22463					;IN THIS CASE, C(AC)=-1,,-1 AND E=0,,-1.  HENCE THE RESULT IN THE AC
 22464					;SHOULD BE -1,,0.  THE AC IS CHECKED FOR -1,,0.
 22465					;IF C(AC)=-1,,0, THIS TEST PASSES.
 22466
 22467	043056	474 00 0 00 000000 	B41100:	SETO			;PRELOAD AC WITH -1,,-1
 22468	043057	515 00 0 00 777777 		HRLZI	-1		;*HRLZI SHOULD PLACE -1,,0 INTO THE AC
 22469	043060	312 00 0 00 070331 		CAME	[XWD -1,0]	;PASS IF C(AC)=-1,,0.
 22470						STOP^
 22471	043061	254 04 0 00 043062 		HALT	.+1		;TEST FAILED IF PROGRAM HALTS HERE
 22472	043062	324 00 0 00 043063 		JUMPA	.+1		;IF TEST FAILS, CHANGE THIS INSTRUCTION (JUMPA .+1) TO
 22473									;JUMPA X (X IS THE ADDRESS OF THE FIRST INSTRUCTION
 22474									;IN THE SUBTEST) TO LOOP ON ERROR^
 22475
 22476					;**********
 22477
 22478					;THIS TEST VERIFIES THAT HLRZ PLACES THE LEFT HALF OF C(E)
 22479					;INTO THE RIGHT HALF OF THE AC
 22480					;AND PLACES ZEROS INTO THE LEFT HALF OF THE AC.
 22481					;IN THIS CASE, C(AC)=-1,,-1 AND C(E)=-1,,0.  HENCE, THE RESULT IN THE AC
 22482					;SHOULD BE 0,,-1.  THE AC IS CHECKED FOR 0,,-1.  IF C(AC)=0,,-1, THIS TEST PASSES.
 22483
 22484	043063	474 00 0 00 000000 	B41200:	SETO			;PRELOAD AC WITH -1,,-1
 22485	043064	554 00 0 00 070331 		HLRZ	[XWD -1,0]	;*HLRZ SHOULD PLACE 0,,-1 INTO THE AC
 22486	043065	302 00 0 00 777777 		CAIE	-1		;PASS IF C(AC)=0,,-1
 22487						STOP^
 22488	043066	254 04 0 00 043067 		HALT	.+1		;TEST FAILED IF PROGRAM HALTS HERE
 22489	043067	324 00 0 00 043070 		JUMPA	.+1		;IF TEST FAILS, CHANGE THIS INSTRUCTION (JUMPA .+1) TO
 22490									;JUMPA X (X IS THE ADDRESS OF THE FIRST INSTRUCTION
 22491									;IN THE SUBTEST) TO LOOP ON ERROR^
 22492
 22493					;**********
DFKAA PDP-10 KL10 BASIC INSTRUCTION DIAGNOSTIC (1) VER 0,2	MACRO %53B(1254)-4 11:50 11-Nov-24 Page 74
DFKAA3	MAC	13-Jan-89 10:22		TEST OF HWT INSTRUCTIONS

 22494					;THIS TEST VERIFIES THAT HLLE PLACES THE LEFT HALF OF C(E)
 22495					;INTO THE LEFT HALF OF THE AC
 22496					;AND PLACES BIT 0 OF C(E) INTO ALL BITS OF THE RIGHT HALF OF THE AC.
 22497					;IN THIS CASE, AC=E AND C(AC)=C(E)=0.  HENCE, THE RESULT IN THE AC SHOULD BE 0
 22498					;THE AC IS CHECKED FOR 0.  IF C(AC)=0, THIS TEST PASSES
 22499
 22500	043070	400 00 0 00 000000 	B41500:	SETZ			;PRELOAD AC WITH 0
 22501	043071	530 00 0 00 000000 		HLLE			;*HLLE SHOULD PLACE 0 INTO THE AC
 22502	043072	332 00 0 00 000000 		SKIPE			;PASS IF C(AC)=0
 22503						STOP^
 22504	043073	254 04 0 00 043074 		HALT	.+1		;TEST FAILED IF PROGRAM HALTS HERE
 22505	043074	324 00 0 00 043075 		JUMPA	.+1		;IF TEST FAILS, CHANGE THIS INSTRUCTION (JUMPA .+1) TO
 22506									;JUMPA X (X IS THE ADDRESS OF THE FIRST INSTRUCTION
 22507									;IN THE SUBTEST) TO LOOP ON ERROR^
 22508
 22509					;*****     FAILURE ANALYSIS     *****
 22510					;C(AC0)		C(AC1)		FAILING SIGNAL
 22511
 22512					;-1,,0				FC: AD LT AR + EN
 22513
 22514					;**********
 22515
 22516					;THIS TEST VERIFIES THAT HLLE PLACES THE LEFT HALF OF C(E)
 22517					;INTO THE LEFT HALF OF THE AC
 22518					;AND PLACES BIT 0 OF C(E) INTO ALL BITS OF THE RIGHT HALF OF THE AC.
 22519					;IN THIS CASE C(AC)=0 AND C(E)=-1,,-1.  HENCE, THE RESULT IN THE AC SHOULD BE -1,,-1
 22520					;THE AC IS CHECKED FOR -1,,-1.  IF C(AC)=-1,,-1, THIS TEST PASSES
 22521
 22522	043075	400 00 0 00 000000 	B41600:	SETZ			;PRELOAD AC WITH 0
 22523	043076	530 00 0 00 070254 		HLLE	[-1]		;*HLLE SHOULD PLACE -1,,-1 INTO THE AC
 22524	043077	312 00 0 00 070254 		CAME	[XWD -1,-1]	;PASS IF C(AC)=-1,,-1
 22525						STOP^
 22526	043100	254 04 0 00 043101 		HALT	.+1		;TEST FAILED IF PROGRAM HALTS HERE
 22527	043101	324 00 0 00 043102 		JUMPA	.+1		;IF TEST FAILS, CHANGE THIS INSTRUCTION (JUMPA .+1) TO
 22528									;JUMPA X (X IS THE ADDRESS OF THE FIRST INSTRUCTION
 22529									;IN THE SUBTEST) TO LOOP ON ERROR^
 22530
 22531					;*****     FAILURE ANALYSIS     *****
 22532					;C(AC0)		C(AC1)		FAILING SIGNAL
 22533
 22534					;0				SW: FCE
 22535					;-1,,-1				ET2: AR LT AD EN
 22536					;-1,,0				ET2: AR0(1): AR RT AD EN
 22537
 22538					;**********
DFKAA PDP-10 KL10 BASIC INSTRUCTION DIAGNOSTIC (1) VER 0,2	MACRO %53B(1254)-4 11:50 11-Nov-24 Page 75
DFKAA3	MAC	13-Jan-89 10:22		TEST OF HWT INSTRUCTIONS

 22539					;THIS TEST VERIFIES THAT HRRE PLACES THE RIGHT HALF OF C(E)
 22540					;INTO THE RIGHT HALF OF THE AC.
 22541					;AND PLACES BIT 18 OF C(E) INTO ALL BITS OF THE LEFT HALF OF THE AC.
 22542					;IN THIS CASE C(AC)=0 AND C(E)=-1,,-1.  HENCE, THE RESULT IN THE AC SHOULD BE -1,,-1.
 22543					;THE AC IS CHECKED FOR -1,,-1.  IF C(AC)=-1,,-1, THIS TEST PASSES.
 22544
 22545	043102	400 00 0 00 000000 	B42000:	SETZ			;PRELOAD AC WITH 0
 22546	043103	570 00 0 00 070254 		HRRE	[-1]		;*HRRE SHOULD PLACE -1,,-1 INTO THE AC
 22547	043104	312 00 0 00 070254 		CAME	[-1,,-1]	;PASS IF C(AC)=-1,,-1
 22548						STOP^
 22549	043105	254 04 0 00 043106 		HALT	.+1		;TEST FAILED IF PROGRAM HALTS HERE
 22550	043106	324 00 0 00 043107 		JUMPA	.+1		;IF TEST FAILS, CHANGE THIS INSTRUCTION (JUMPA .+1) TO
 22551									;JUMPA X (X IS THE ADDRESS OF THE FIRST INSTRUCTION
 22552									;IN THE SUBTEST) TO LOOP ON ERROR^
 22553
 22554					;**********
 22555
 22556					;THIS TEST VERIFIES THAT HLLE PLACES THE LEFT HALF OF C(E)
 22557					;INTO THE LEFT HALF OF THE AC
 22558					;AND PLACES BIT 0 OF C(E) INTO ALL BITS OF THE RIGHT HALF OF THE AC.
 22559					;IN THIS CASE C(AC)=0 AND C(E)=-1,,0.  HENCE, THE RESULT IN THE AC SHOULD BE -1,,-1
 22560					;THE AC IS CHECKED FOR -1,,-1.  IF C(AC)=-1,,-1, THIS TEST PASSES
 22561
 22562	043107	400 00 0 00 000000 	B42200:	SETZ			;PRELOAD AC WITH 0
 22563	043110	530 00 0 00 070331 		HLLE	[XWD -1,0]	;*HLLE SHOULD PLACE -1,,-1 INTO THE AC
 22564	043111	312 00 0 00 070254 		CAME	[-1]		;PASS IF C(AC)=-1,,-1
 22565						STOP^
 22566	043112	254 04 0 00 043113 		HALT	.+1		;TEST FAILED IF PROGRAM HALTS HERE
 22567	043113	324 00 0 00 043114 		JUMPA	.+1		;IF TEST FAILS, CHANGE THIS INSTRUCTION (JUMPA .+1) TO
 22568									;JUMPA X (X IS THE ADDRESS OF THE FIRST INSTRUCTION
 22569									;IN THE SUBTEST) TO LOOP ON ERROR^
 22570
 22571					;**********
DFKAA PDP-10 KL10 BASIC INSTRUCTION DIAGNOSTIC (1) VER 0,2	MACRO %53B(1254)-4 11:50 11-Nov-24 Page 76
DFKAA3	MAC	13-Jan-89 10:22		TEST OF HWT INSTRUCTIONS

 22572					;THIS TEST VERIFIES THAT HRRE PLACES THE RIGHT HALF OF C(E)
 22573					;INTO THE RIGHT HALF OF THE AC.
 22574					;AND PLACES BIT 18 OF C(E) INTO ALL BITS OF THE LEFT HALF OF THE AC.
 22575					;IN THIS CASE, AC=E AND C(AC)=C(E)=0.  HENCE, THE RESULT IN THE AC SHOULD BE 0.
 22576					;THE AC IS CHECKED FOR 0.  IF C(AC)=0, THIS TEST PASSES.
 22577
 22578	043114	400 00 0 00 000000 	B42300:	SETZ			;PRELOAD AC,E WITH 0
 22579	043115	570 00 0 00 000000 		HRRE			;*HRRE SHOULD PLACE 0 INTO THE AC
 22580	043116	332 00 0 00 000000 		SKIPE			;PASS IF C(AC)=0
 22581						STOP^
 22582	043117	254 04 0 00 043120 		HALT	.+1		;TEST FAILED IF PROGRAM HALTS HERE
 22583	043120	324 00 0 00 043121 		JUMPA	.+1		;IF TEST FAILS, CHANGE THIS INSTRUCTION (JUMPA .+1) TO
 22584									;JUMPA X (X IS THE ADDRESS OF THE FIRST INSTRUCTION
 22585									;IN THE SUBTEST) TO LOOP ON ERROR^
 22586
 22587					;*****     FAILURE ANALYSIS     *****
 22588					;C(AC0)		C(AC1)		FAILING SIGNAL
 22589
 22590					;E				SW: FCE
 22591					;-1,,0				ET2: AR RT AD EN
 22592					;0,,-1				ET2: AR18(1): AR LT AD EN
 22593					;0,,-1				FC: AR RT AR + EN
 22594
 22595					;**********
 22596
 22597					;THIS TEST VERIFIES THAT HRRE PLACES THE RIGHT HALF OF C(E)
 22598					;INTO THE RIGHT HALF OF THE AC.
 22599					;AND PLACES BIT 18 OF C(E) INTO ALL BITS OF THE LEFT HALF OF THE AC.
 22600					;IN THIS CASE C(AC)=0 AND C(E)=-1,,0.  HENCE, THE RESULT IN THE AC SHOULD BE 0.
 22601					;THE AC IS CHECKED FOR 0.  IF C(AC)=0, THIS TEST PASSES.
 22602
 22603	043121	400 00 0 00 000000 	B42500:	SETZ			;PRELOAD AC WITH 0
 22604	043122	570 00 0 00 070331 		HRRE	[XWD -1,0]	;*HRRE SHOULD PLACE 0 INTO THE AC
 22605	043123	332 00 0 00 000000 		SKIPE			;PASS IF C(AC)=0
 22606						STOP^
 22607	043124	254 04 0 00 043125 		HALT	.+1		;TEST FAILED IF PROGRAM HALTS HERE
 22608	043125	324 00 0 00 043126 		JUMPA	.+1		;IF TEST FAILS, CHANGE THIS INSTRUCTION (JUMPA .+1) TO
 22609									;JUMPA X (X IS THE ADDRESS OF THE FIRST INSTRUCTION
 22610									;IN THE SUBTEST) TO LOOP ON ERROR^
 22611
 22612					;**********
DFKAA PDP-10 KL10 BASIC INSTRUCTION DIAGNOSTIC (1) VER 0,2	MACRO %53B(1254)-4 11:50 11-Nov-24 Page 77
DFKAA3	MAC	13-Jan-89 10:22		TEST OF HWT INSTRUCTIONS

 22613					;THIS TEST VERIFIES THAT HRREI PLACES E INTO THE RIGHT HALF OF THE AC
 22614					;AND PLACES THE LEFTMOST BIT OF E INTO ALL BITS OF THE LEFT HALF OF THE AC
 22615					;IN THIS CASE, C(AC)=0 AND E=0,,-1.  HENCE, THE RESULT IN THE AC SHOULD BE -1,,-1.
 22616					;THE AC IS CHECKED FOR -1,,-1.  IF C(AC)=-1,,-1, THIS TEST PASSES.
 22617
 22618	043126	400 00 0 00 000000 	B42700:	SETZ			;PRELOAD AC WITH 0
 22619	043127	571 00 0 00 777777 		HRREI	-1		;*HRREI SHOULD PLACE -1,,-1 INTO THE AC
 22620	043130	312 00 0 00 070254 		CAME	[-1]		;PASS IF C(AC)=-1,,-1
 22621						STOP^
 22622	043131	254 04 0 00 043132 		HALT	.+1		;TEST FAILED IF PROGRAM HALTS HERE
 22623	043132	324 00 0 00 043133 		JUMPA	.+1		;IF TEST FAILS, CHANGE THIS INSTRUCTION (JUMPA .+1) TO
 22624									;JUMPA X (X IS THE ADDRESS OF THE FIRST INSTRUCTION
 22625									;IN THE SUBTEST) TO LOOP ON ERROR^
 22626
 22627					;*****     FAILURE ANALYSIS     *****
 22628					;C(AC0)		C(AC1)		FAILING SIGNAL
 22629
 22630					;-1,,0				ET2: AR RT AD EN
 22631					;0,,-1				ET2: AR18(1): AR LT AD EN
 22632
 22633					;**********
 22634
 22635					;THIS TEST VERIFIES THAT HLLEI ALWAYS CLEARS THE AC.
 22636					;IN THIS CASE, C(AC)=-1,,-1 AND E=0,,-1.
 22637					;THE RESULT IN THE AC SHOULD BE 0
 22638					;THE AC IS CHECKED FOR 0.
 22639					;IF C(AC)=0, THIS TEST PASSES.
 22640
 22641	043133	474 00 0 00 000000 	B43000:	SETO			;PRELOAD AC WITH -1,,-1
 22642	043134	531 00 0 00 777777 		HLLEI	-1		;*HLLEI SHOULD CLEAR THE AC
 22643	043135	332 00 0 00 000000 		SKIPE			;PASS IF C(AC)=0
 22644						STOP^
 22645	043136	254 04 0 00 043137 		HALT	.+1		;TEST FAILED IF PROGRAM HALTS HERE
 22646	043137	324 00 0 00 043140 		JUMPA	.+1		;IF TEST FAILS, CHANGE THIS INSTRUCTION (JUMPA .+1) TO
 22647									;JUMPA X (X IS THE ADDRESS OF THE FIRST INSTRUCTION
 22648									;IN THE SUBTEST) TO LOOP ON ERROR^
 22649
 22650					;*****     FAILURE ANALYSIS     *****
 22651					;C(AC0)		C(AC1)		FAILING SIGNAL
 22652
 22653					;-1,,0				FC: AD LT AR + EN
 22654					;0,,-1				ET2: AR LT AD EN
 22655
 22656					;**********
DFKAA PDP-10 KL10 BASIC INSTRUCTION DIAGNOSTIC (1) VER 0,2	MACRO %53B(1254)-4 11:50 11-Nov-24 Page 78
DFKAA3	MAC	13-Jan-89 10:22		TEST OF HWT INSTRUCTIONS

 22657					;THIS TEST VERIFIES THAT HLLEI ALWAYS CLEARS THE AC.
 22658					;IN THIS CASE, C(AC)=-1,,-1 AND E=0,,400000.
 22659					;THE RESULT IN THE AC SHOULD BE 0
 22660					;THE AC IS CHECKED FOR 0.
 22661					;IF C(AC) = ZERO, THIS TEST PASSES.
 22662
 22663	043140	474 00 0 00 000000 	B43100:	SETO			;PRELOAD AC WITH -1,,-1
 22664	043141	531 00 0 00 400000 		HLLEI	400000		;*HLLEI SHOULD CLEAR THE AC
 22665	043142	332 00 0 00 000000 		SKIPE			;PASS IF C(AC)=0.
 22666						STOP^
 22667	043143	254 04 0 00 043144 		HALT	.+1		;TEST FAILED IF PROGRAM HALTS HERE
 22668	043144	324 00 0 00 043145 		JUMPA	.+1		;IF TEST FAILS, CHANGE THIS INSTRUCTION (JUMPA .+1) TO
 22669									;JUMPA X (X IS THE ADDRESS OF THE FIRST INSTRUCTION
 22670									;IN THE SUBTEST) TO LOOP ON ERROR^
 22671
 22672					;**********
 22673
 22674					;THIS TEST VERIFIES THAT HRLE PLACES THE RIGHT HALF OF C(E)
 22675					;INTO THE LEFT HALF OF THE AC
 22676					;AND PLACES BIT 18 OF C(E) INTO ALL BITS OF THE RIGHT HALF OF THE AC.
 22677					;IN THIS CASE, C(AC)=0 AND C(E)=0.  HENCE, THE RESULT IN THE AC SHOULD BE 0.
 22678					;THE AC IS CHECKED FOR 0,,-1.  IF C(AC)=0,,-1, THIS TEST FAILS
 22679
 22680	043145	400 00 0 00 000000 	B43400:	SETZ			;PRELOAD AC WITH 0
 22681	043146	534 00 0 00 000000 		HRLE			;*HRLE SHOULD PLACE 0 INTO THE AC
 22682	043147	332 00 0 00 000000 		SKIPE			;FAIL IF C(AC)=0,,-1
 22683						STOP^
 22684	043150	254 04 0 00 043151 		HALT	.+1		;TEST FAILED IF PROGRAM HALTS HERE
 22685	043151	324 00 0 00 043152 		JUMPA	.+1		;IF TEST FAILS, CHANGE THIS INSTRUCTION (JUMPA .+1) TO
 22686									;JUMPA X (X IS THE ADDRESS OF THE FIRST INSTRUCTION
 22687									;IN THE SUBTEST) TO LOOP ON ERROR^
 22688
 22689					;**********
DFKAA PDP-10 KL10 BASIC INSTRUCTION DIAGNOSTIC (1) VER 0,2	MACRO %53B(1254)-4 11:50 11-Nov-24 Page 79
DFKAA3	MAC	13-Jan-89 10:22		TEST OF HWT INSTRUCTIONS

 22690					;THIS TEST VERIFIES THAT HRLEI PLACES E INTO THE LEFT HALF OF THE AC
 22691					;AND PLACES THE LEFTMOST BIT OF E INTO ALL BITS OF THE RIGHT HALF OF THE AC
 22692					;IN THIS CASE, C(AC)=0 AND E=0,,-1.  HENCE, THE RESULT IN THE AC SHOULD -1,,-1
 22693					;THE AC IS CHECKED FOR -1,,-1.  IF C(AC)=1,,-1, THIS TEST PASSES.
 22694
 22695	043152	400 00 0 00 000000 	B43500:	SETZ			;PRELOAD AC WITH 0
 22696	043153	535 00 0 00 777777 		HRLEI	-1		;*HRLEI SHOULD PLACE -1,,-1 INTO THE AC
 22697	043154	312 00 0 00 070254 		CAME	[XWD -1,-1]	;PASS IF C(AC)=-1,,-1
 22698						STOP^
 22699	043155	254 04 0 00 043156 		HALT	.+1		;TEST FAILED IF PROGRAM HALTS HERE
 22700	043156	324 00 0 00 043157 		JUMPA	.+1		;IF TEST FAILS, CHANGE THIS INSTRUCTION (JUMPA .+1) TO
 22701									;JUMPA X (X IS THE ADDRESS OF THE FIRST INSTRUCTION
 22702									;IN THE SUBTEST) TO LOOP ON ERROR^
 22703
 22704					;*****     FAILURE ANALYSIS     *****
 22705					;C(AC0)		C(AC1)		FAILING SIGNAL
 22706
 22707					;-1,,0				ET2: AR LT AR RT EN
 22708					;-1,,0				ET2: AR 18(1): AR RT AD EN
 22709
 22710					;**********
 22711
 22712					;THIS TEST VERIFIES THAT HRLE PLACES THE RIGHT HALF OF C(E)
 22713					;INTO THE LEFT HALF OF THE AC
 22714					;AND PLACES BIT 18 OF C(E) INTO ALL BITS OF THE RIGHT HALF OF THE AC.
 22715					;IN THIS CASE, C(AC)=0 AND C(E)=0.  HENCE, THE RESULT IN THE AC SHOULD BE 0.
 22716					;THE AC IS CHECKED FOR 0,,-1.  IF C(AC)=0,,-1, THIS TEST FAILS
 22717
 22718	043157	534 00 0 00 070253 	B43600:	HRLE	[0]		;*HRLE SHOULD PLACE 0 INTO THE AC
 22719	043160	332 00 0 00 000000 		SKIPE			;FAIL IF C(AC)=0,,-1
 22720						STOP^
 22721	043161	254 04 0 00 043162 		HALT	.+1		;TEST FAILED IF PROGRAM HALTS HERE
 22722	043162	324 00 0 00 043163 		JUMPA	.+1		;IF TEST FAILS, CHANGE THIS INSTRUCTION (JUMPA .+1) TO
 22723									;JUMPA X (X IS THE ADDRESS OF THE FIRST INSTRUCTION
 22724									;IN THE SUBTEST) TO LOOP ON ERROR^
 22725
 22726					;*****     FAILURE ANALYSIS     *****
 22727					;C(AC0)		C(AC1)		FAILING SIGNAL
 22728
 22729					;E,,0				SW: FCE
 22730
 22731					;**********
DFKAA PDP-10 KL10 BASIC INSTRUCTION DIAGNOSTIC (1) VER 0,2	MACRO %53B(1254)-4 11:50 11-Nov-24 Page 80
DFKAA3	MAC	13-Jan-89 10:22		TEST OF HWT INSTRUCTIONS

 22732					;THIS TEST VERIFIES THAT HRLE PLACES THE RIGHT HALF OF C(E)
 22733					;INTO THE LEFT HALF OF THE AC
 22734					;AND PLACES BIT 18 OF C(E) INTO ALL BITS OF THE RIGHT HALF OF THE AC.
 22735					;IN THIS CASE, C(AC)=0 AND C(E)=0.  HENCE, THE RESULT IN THE AC SHOULD BE 0.
 22736					;THE AC IS CHECKED FOR 0,,-1.  IF C(AC)=0,,-1, THIS TEST FAILS
 22737
 22738	043163	534 00 0 00 070254 	B43700:	HRLE	[-1]		;PRELOAD AC WITH 0
 22739	043164	312 00 0 00 070254 		CAME	[-1]		;*HRLE SHOULD PLACE 0 INTO THE AC
 22740						STOP			^;FAIL IF C(AC)=0,,-1
 22741
 22742	043165	254 04 0 00 043166 		HALT	.+1		;TEST FAILED IF PROGRAM HALTS HERE
 22743	043166	324 00 0 00 043167 		JUMPA	.+1		;IF TEST FAILS, CHANGE THIS INSTRUCTION (JUMPA .+1) TO
 22744									;JUMPA X (X IS THE ADDRESS OF THE FIRST INSTRUCTION
 22745									;IN THE SUBTEST) TO LOOP ON ERROR
 22746
 22747					;*****     FAILURE ANALYSIS     *****
 22748					;C(AC0)		C(AC1)		FAILING SIGNAL
 22749
 22750					;-1,,0				ET2: AR LT AR RT EN
 22751					;-1,,0				ET2: AR18(1): AR RT AD EN
 22752
 22753					;**********
 22754
 22755					;THIS TEST VERIFIES THAT HRLE PLACES THE RIGHT HALF OF C(E)
 22756					;INTO THE LEFT HALF OF THE AC
 22757					;AND PLACES BIT 18 OF C(E) INTO ALL BITS OF THE RIGHT HALF OF THE AC.
 22758					;IN THIS CASE, C(AC)=0 AND C(E)=0.  HENCE, THE RESULT IN THE AC SHOULD BE 0.
 22759					;THE AC IS CHECKED FOR 0,,-1.  IF C(AC)=0,,-1, THIS TEST FAILS
 22760
 22761	043167	534 00 0 00 070331 	B44000:	HRLE	[XWD -1,0]	;PRELOAD AC WITH 0
 22762	043170	332 00 0 00 000000 		SKIPE			;*HRLE SHOULD PLACE 0 INTO THE AC
 22763						STOP			^;FAIL IF C(AC)=0,,-1
 22764
 22765	043171	254 04 0 00 043172 		HALT	.+1		;TEST FAILED IF PROGRAM HALTS HERE
 22766	043172	324 00 0 00 043173 		JUMPA	.+1		;IF TEST FAILS, CHANGE THIS INSTRUCTION (JUMPA .+1) TO
 22767									;JUMPA X (X IS THE ADDRESS OF THE FIRST INSTRUCTION
 22768									;IN THE SUBTEST) TO LOOP ON ERROR
 22769
 22770					;**********
DFKAA PDP-10 KL10 BASIC INSTRUCTION DIAGNOSTIC (1) VER 0,2	MACRO %53B(1254)-4 11:50 11-Nov-24 Page 81
DFKAA3	MAC	13-Jan-89 10:22		TEST OF HWT INSTRUCTIONS

 22771					;THIS TEST VERIFIES THAT HRLE PLACES THE RIGHT HALF OF C(E)
 22772					;INTO THE LEFT HALF OF THE AC
 22773					;AND PLACES BIT 18 OF C(E) INTO ALL BITS OF THE RIGHT HALF OF THE AC.
 22774					;IN THIS CASE, C(AC)=0 AND C(E)=0.  HENCE, THE RESULT IN THE AC SHOULD BE 0.
 22775					;THE AC IS CHECKED FOR 0,,-1.  IF C(AC)=0,,-1, THIS TEST FAILS
 22776
 22777	043173	534 00 0 00 070330 	B44100:	HRLE	[XWD 0,-1]	;PRELOAD AC WITH 0
 22778	043174	312 00 0 00 070254 		CAME	[-1]		;*HRLE SHOULD PLACE 0 INTO THE AC
 22779						STOP			^;FAIL IF C(AC)=0,,-1
 22780
 22781	043175	254 04 0 00 043176 		HALT	.+1		;TEST FAILED IF PROGRAM HALTS HERE
 22782	043176	324 00 0 00 043177 		JUMPA	.+1		;IF TEST FAILS, CHANGE THIS INSTRUCTION (JUMPA .+1) TO
 22783									;JUMPA X (X IS THE ADDRESS OF THE FIRST INSTRUCTION
 22784									;IN THE SUBTEST) TO LOOP ON ERROR
 22785
 22786					;**********
 22787
 22788					;THIS TEST VERIFIES THAT HLRE PLACES THE LEFT HALF OF C(E)
 22789					;INTO THE RIGHT HALF OF THE AC
 22790					;AND PLACES BIT 0 OF C(E) INTO ALL BITS OF THE LEFT HALF OF THE AC
 22791					;IN THIS CASE, C(AC=0 AND C(E)=0.  HENCE, THE RESULT IN THE AC SHOULD BE 0.
 22792					;THE AC IS CHECKED FOR 0.  IF C(AC)=0, THIS TEST PASSES
 22793
 22794
 22795	043177	400 00 0 00 000000 	B44200:	SETZ			;PRELOAD AC WITH 0
 22796	043200	574 00 0 00 000000 		HLRE			;*HLRE SHOULD PLACE 0 INTO THE AC
 22797	043201	332 00 0 00 000000 		SKIPE			;PASS IF C(AC)=0
 22798						STOP^
 22799	043202	254 04 0 00 043203 		HALT	.+1		;TEST FAILED IF PROGRAM HALTS HERE
 22800	043203	324 00 0 00 043204 		JUMPA	.+1		;IF TEST FAILS, CHANGE THIS INSTRUCTION (JUMPA .+1) TO
 22801									;JUMPA X (X IS THE ADDRESS OF THE FIRST INSTRUCTION
 22802									;IN THE SUBTEST) TO LOOP ON ERROR^
 22803
 22804					;**********
DFKAA PDP-10 KL10 BASIC INSTRUCTION DIAGNOSTIC (1) VER 0,2	MACRO %53B(1254)-4 11:50 11-Nov-24 Page 82
DFKAA3	MAC	13-Jan-89 10:22		TEST OF HWT INSTRUCTIONS

 22805					;THIS TEST VERIFIES THAT HLRE PLACES THE LEFT HALF OF C(E)
 22806					;INTO THE RIGHT HALF OF THE AC
 22807					;AND PLACES BIT 0 OF C(E) INTO ALL BITS OF THE LEFT HALF OF THE AC
 22808					;IN THIS CASE, C(AC=0 AND C(E)=0.  HENCE, THE RESULT IN THE AC SHOULD BE 0.
 22809					;THE AC IS CHECKED FOR 0.  IF C(AC)=0, THIS TEST PASSES
 22810
 22811
 22812	043204	400 00 0 00 000000 	B44300:	SETZ			;PRELOAD AC WITH 0
 22813	043205	574 00 0 00 070254 		HLRE	[-1]		;*HLRE SHOULD PLACE -1,,-1 INTO THE AC
 22814	043206	312 00 0 00 070254 		CAME	[-1]		;PASS IF C(AC)=-1,,-1
 22815						STOP^
 22816	043207	254 04 0 00 043210 		HALT	.+1		;TEST FAILED IF PROGRAM HALTS HERE
 22817	043210	324 00 0 00 043211 		JUMPA	.+1		;IF TEST FAILS, CHANGE THIS INSTRUCTION (JUMPA .+1) TO
 22818									;JUMPA X (X IS THE ADDRESS OF THE FIRST INSTRUCTION
 22819									;IN THE SUBTEST) TO LOOP ON ERROR^
 22820
 22821					;*****     FAILURE ANALYSIS     *****
 22822					;C(AC0)		C(AC1)		FAILING SIGNAL
 22823
 22824					;0				SW: FCE
 22825					;-1,,0				ET2: AR RT AR LT EN
 22826					;0,,-1				ET2: AR0(1): AR LT AD EN
 22827
 22828					;**********
 22829
 22830					;THIS TEST VERIFIES THAT HLREI CLEARS THE AC
 22831					;IN THIS CASE C(AC)=-1,,-1 AND E=0,,-1
 22832					;THE RESULT IN THE AC SHOULD BE 0
 22833					;THE AC IS CHECKED FOR 0.  IF C(AC)=0, THEN TEST PASSES
 22834
 22835	043211	474 00 0 00 000000 	B44500:	SETO			;PRELOAD AC WITH -1,,-1
 22836	043212	575 00 0 00 777777 		HLREI	-1		;*HLREI SHOULD CLEAR THE AC
 22837	043213	332 00 0 00 000000 		SKIPE			;PASS IF C(AC)=0
 22838						STOP^
 22839	043214	254 04 0 00 043215 		HALT	.+1		;TEST FAILED IF PROGRAM HALTS HERE
 22840	043215	324 00 0 00 043216 		JUMPA	.+1		;IF TEST FAILS, CHANGE THIS INSTRUCTION (JUMPA .+1) TO
 22841									;JUMPA X (X IS THE ADDRESS OF THE FIRST INSTRUCTION
 22842									;IN THE SUBTEST) TO LOOP ON ERROR^
 22843
 22844					;*****     FAILURE ANALYSIS     *****
 22845					;C(AC0)		C(AC1)		FAILING SIGNAL
 22846
 22847					;0,,1				ET2: AR RT AR LT EN
 22848
 22849					;**********
DFKAA PDP-10 KL10 BASIC INSTRUCTION DIAGNOSTIC (1) VER 0,2	MACRO %53B(1254)-4 11:50 11-Nov-24 Page 83
DFKAA3	MAC	13-Jan-89 10:22		TEST OF HWT INSTRUCTIONS

 22850					;THIS TEST VERIFIES THAT HLREI CLEARS THE AC
 22851					;IN THIS CASE C(AC)=0 AND E=0
 22852					;THE RESULT IN THE AC SHOULD BE 0
 22853					;THE AC IS CHECKED FOR 0.  IF C(AC)=0, THE TEST PASSES
 22854
 22855	043216	575 00 0 00 000000 	B44600:	HLREI			;*HLREI SHOULD CLEAR THE AC
 22856	043217	332 00 0 00 000000 		SKIPE			;PASS IF C(AC)=0
 22857						STOP^
 22858	043220	254 04 0 00 043221 		HALT	.+1		;TEST FAILED IF PROGRAM HALTS HERE
 22859	043221	324 00 0 00 043222 		JUMPA	.+1		;IF TEST FAILS, CHANGE THIS INSTRUCTION (JUMPA .+1) TO
 22860									;JUMPA X (X IS THE ADDRESS OF THE FIRST INSTRUCTION
 22861									;IN THE SUBTEST) TO LOOP ON ERROR^
 22862
 22863					;**********
 22864
 22865					;THIS TEST VERIFIES THAT HLRE PLACES THE LEFT HALF OF C(E)
 22866					;INTO THE RIGHT HALF OF THE AC
 22867					;AND PLACES BIT 0 OF C(E) INTO ALL BITS OF THE LEFT HALF OF THE AC
 22868					;IN THIS CASE, C(E)=-1,,0.  HENCE, THE RESULT IN THE AC SHOULD BE -1,,-1.
 22869					;THE AC IS CHECKED FOR -1,,-1.  IF C(AC)=-1,,-1, THIS TEST PASSES
 22870
 22871
 22872	043222	574 00 0 00 070331 	B44700:	HLRE	[XWD -1,0]	;*HLRE SHOULD PLACE -1,,0 INTO THE AC
 22873	043223	312 00 0 00 070254 		CAME	[-1]		;PASS IF C(AC)=-1,,-1
 22874						STOP^
 22875	043224	254 04 0 00 043225 		HALT	.+1		;TEST FAILED IF PROGRAM HALTS HERE
 22876	043225	324 00 0 00 043226 		JUMPA	.+1		;IF TEST FAILS, CHANGE THIS INSTRUCTION (JUMPA .+1) TO
 22877									;JUMPA X (X IS THE ADDRESS OF THE FIRST INSTRUCTION
 22878									;IN THE SUBTEST) TO LOOP ON ERROR^
 22879
 22880					;**********
DFKAA PDP-10 KL10 BASIC INSTRUCTION DIAGNOSTIC (1) VER 0,2	MACRO %53B(1254)-4 11:50 11-Nov-24 Page 84
DFKAA3	MAC	13-Jan-89 10:22		TEST OF HWT INSTRUCTIONS

 22881					;THIS TEST VERIFIES THAT HLRE PLACES THE LEFT HALF OF C(E)
 22882					;INTO THE RIGHT HALF OF THE AC
 22883					;AND PLACES BIT 0 OF C(E) INTO ALL BITS OF THE LEFT HALF OF THE AC
 22884					;IN THIS CASE, C(E)=0,,-1.  HENCE, THE RESULT IN THE AC SHOULD BE 0.
 22885					;THE AC IS CHECKED FOR 0.  IF C(AC)=0, THIS TEST PASSES
 22886
 22887	043226	574 00 0 00 070330 	B45000:	HLRE	[XWD 0,-1]	;*HLRE SHOULD PLACE 0,,-1 INTO THE AC
 22888	043227	332 00 0 00 000000 		SKIPE			;PASS IF C(AC)=0
 22889						STOP^
 22890	043230	254 04 0 00 043231 		HALT	.+1		;TEST FAILED IF PROGRAM HALTS HERE
 22891	043231	324 00 0 00 043232 		JUMPA	.+1		;IF TEST FAILS, CHANGE THIS INSTRUCTION (JUMPA .+1) TO
 22892									;JUMPA X (X IS THE ADDRESS OF THE FIRST INSTRUCTION
 22893									;IN THE SUBTEST) TO LOOP ON ERROR^
 22894
 22895					;**********
 22896
 22897					;THIS TEST VERIFIES THAT HLRE PLACES THE LEFT HALF OF C(E)
 22898					;INTO THE RIGHT HALF OF THE AC
 22899					;AND PLACES BIT 0 OF C(E) INTO ALL BITS OF THE LEFT HALF OF THE AC
 22900					;IN THIS CASE, C(E)=-1,,-1.  HENCE, THE RESULT IN THE AC SHOULD BE -1,,-1.
 22901					;THE AC IS CHECKED FOR -1,,-1.  IF C(AC)=-1,,-1, THIS TEST PASSES
 22902
 22903	043232	574 00 0 00 070254 	B45100:	HLRE	[-1]		;*HLRE SHOULD PLACE -1,,-1 INTO THE AC
 22904	043233	312 00 0 00 070254 		CAME	[-1]		;PASS IF C(AC)=-1,,-1
 22905						STOP^
 22906	043234	254 04 0 00 043235 		HALT	.+1		;TEST FAILED IF PROGRAM HALTS HERE
 22907	043235	324 00 0 00 043236 		JUMPA	.+1		;IF TEST FAILS, CHANGE THIS INSTRUCTION (JUMPA .+1) TO
 22908									;JUMPA X (X IS THE ADDRESS OF THE FIRST INSTRUCTION
 22909									;IN THE SUBTEST) TO LOOP ON ERROR^
 22910
 22911					;**********
DFKAA PDP-10 KL10 BASIC INSTRUCTION DIAGNOSTIC (1) VER 0,2	MACRO %53B(1254)-4 11:50 11-Nov-24 Page 85
DFKAA3	MAC	13-Jan-89 10:22		TEST OF HWT INSTRUCTIONS

 22912					;THIS TEST VERIFIES THAT HLREM PLACES THE LEFT HALF OF C(AC)
 22913					;INTO THE RIGHT HALF OF E
 22914					;AND PLACES BIT 0 OF C(AC) INTO ALL BITS OF THE LEFT HALF OF E.
 22915					;IN THIS CASE, C(AC)=1,,0 AND C(E)=0.  HENCE, THE RESULT IN E SHOULD BE -1,,-1.
 22916					;E IS CHECKED FOR -1,,-1.  IF C(E)=-1,,-1, THIS TEST PASSES
 22917
 22918	043236	400 00 0 00 000000 	B45200:	SETZ			;PRELOAD E WITH 0
 22919	043237	200 01 0 00 070331 		MOVE	1,[XWD -1,0]	;PRELOAD AC WITH -1,,0
 22920	043240	576 01 0 00 000000 		HLREM	1,		;*HLREM SHOULD PLACE -1,,-1 INTO E
 22921	043241	312 00 0 00 070254 		CAME	[-1]		;PASS IF C(E)=-1,,-1
 22922						STOP^
 22923	043242	254 04 0 00 043243 		HALT	.+1		;TEST FAILED IF PROGRAM HALTS HERE
 22924	043243	324 00 0 00 043244 		JUMPA	.+1		;IF TEST FAILS, CHANGE THIS INSTRUCTION (JUMPA .+1) TO
 22925									;JUMPA X (X IS THE ADDRESS OF THE FIRST INSTRUCTION
 22926									;IN THE SUBTEST) TO LOOP ON ERROR^
 22927
 22928					;*****     FAILURE ANALYSIS     *****
 22929					;C(AC0)		C(AC1)		FAILING SIGNAL
 22930
 22931					;0		-1,,0		SW: SCE
 22932					;0		-1,,0		SW: ET0
 22933					;0		-1,,0		ET0: AR AD EN
 22934					;-1,,0		-1,,0		ET2: AR RT AR + EN
 22935					;0,,-1		-1,,0		ET2: AR0(1): AR LT AD EN
 22936
 22937					;**********
 22938
 22939					;THIS TEST VERIFIES THAT HRLM PLACES THE RIGHT HALF OF C(AC) INTO THE LEFT HALF OF E.
 22940					;THE RIGHT HALF OF E IS UNAFFECTED
 22941					;IN THIS CASE, C(AC)=0,,-1 AND C(E)=0.  HENCE, THE RESULT IN E SHOULD BE -1,,0.
 22942					;E IS CHECKED FOR -1,,0.  IF C(E)=-1,,0, THIS  TEST PASSES.
 22943
 22944	043244	400 00 0 00 000000 	B45400:	SETZ			;PRELOAD E WITH 0
 22945	043245	201 01 0 00 777777 		MOVEI	1,-1		;PRELOAD AC WITH 0,,-1
 22946	043246	506 01 0 00 000000 		HRLM	1,		;*HRLM SHOULD PLACE -1,,0 INTO E
 22947	043247	312 00 0 00 070331 		CAME	[XWD -1,0]	;PASS IF C(E)=-1,,0
 22948						STOP^
 22949	043250	254 04 0 00 043251 		HALT	.+1		;TEST FAILED IF PROGRAM HALTS HERE
 22950	043251	324 00 0 00 043252 		JUMPA	.+1		;IF TEST FAILS, CHANGE THIS INSTRUCTION (JUMPA .+1) TO
 22951									;JUMPA X (X IS THE ADDRESS OF THE FIRST INSTRUCTION
 22952									;IN THE SUBTEST) TO LOOP ON ERROR^
 22953
 22954					;*****     FAILURE ANALYSIS     *****
 22955					;C(AC0)		C(AC1)		FAILING SIGNAL
 22956
 22957					;0		0,,-1		SW: FCE PSE
 22958					;0,,-1		0,,-1		SW: ET0
 22959					;-1,,-1		0,,-1		ET0: AD RT BR + EN
 22960					;-1,,B45400	0,,-1		ET0: BR AR EN
 22961					;0		0,,-1		ET0: AR AD EN
 22962					;0		0,,-1		ET2: AR LT AR RT EN
 22963
 22964					;**********
DFKAA PDP-10 KL10 BASIC INSTRUCTION DIAGNOSTIC (1) VER 0,2	MACRO %53B(1254)-4 11:50 11-Nov-24 Page 86
DFKAA3	MAC	13-Jan-89 10:22		SUPPLEMENTARY ADDER TESTS - FLT 1 + 0

 22965					SUBTTL	SUPPLEMENTARY ADDER TESTS - FLT 1 + 0
 22966
 22967					;**********
 22968
 22969			045500		SN=45500
 22970			000000			XX=0
 22971
 22972					B45500:	REPEAT	^D18,<
 22973					;THIS TEST VERIFIES THAT THE RESULT OF A ZERO ADDED TO A FLOATING ONE
 22974					;IS THE FLOATING ONE.
 22975					;THIS TEST IS REPEATED 36 TIMES TO FLOAT A ONE THRU ALL 36 BITS OF THE ADDER.
 22976					;THIS TEST IS DESIGNED TO TEST THE ADDER AND RELATED DATA PATHS ONLY.
 22977
 22978					SN=SN+1
 22979						XX=XX+XX
 22980						IFE	XX,<XX=1>
 22981						HRRZI	XX		;PRELOAD AC WITH FLOATING ONE
 22982						ADD	[0]		;ADD ZERO TO A FLOATING ONE
 22983						CAME	[XX]		;CHECK ADDER UPON FAILURE
 22984						STOP
 22985
 22986					;**********
 22987					>
 22988
 22989					;THIS TEST VERIFIES THAT THE RESULT OF A ZERO ADDED TO A FLOATING ONE
 22990					;IS THE FLOATING ONE.
 22991					;THIS TEST IS REPEATED 36 TIMES TO FLOAT A ONE THRU ALL 36 BITS OF THE ADDER.
 22992					;THIS TEST IS DESIGNED TO TEST THE ADDER AND RELATED DATA PATHS ONLY.
 22993
 22994			045501		SN=SN+1
 22995			000000			XX=XX+XX
 22996			000001			IFE	XX,<XX=1>
 22997	043252	551 00 0 00 000001 		HRRZI	XX		;PRELOAD AC WITH FLOATING ONE
 22998	043253	270 00 0 00 070253 		ADD	[0]		;ADD ZERO TO A FLOATING ONE
 22999	043254	312 00 0 00 070265 		CAME	[XX]		;CHECK ADDER UPON FAILURE
 23000						STOP^
 23001	043255	254 04 0 00 043256 		HALT	.+1		;TEST FAILED IF PROGRAM HALTS HERE
 23002	043256	324 00 0 00 043257 		JUMPA	.+1		;IF TEST FAILS, CHANGE THIS INSTRUCTION (JUMPA .+1) TO
 23003									;JUMPA X (X IS THE ADDRESS OF THE FIRST INSTRUCTION
 23004									;IN THE SUBTEST) TO LOOP ON ERROR^
 23005
 23006					;**********
 23007
 23008
 23009					;THIS TEST VERIFIES THAT THE RESULT OF A ZERO ADDED TO A FLOATING ONE
 23010					;IS THE FLOATING ONE.
 23011					;THIS TEST IS REPEATED 36 TIMES TO FLOAT A ONE THRU ALL 36 BITS OF THE ADDER.
 23012					;THIS TEST IS DESIGNED TO TEST THE ADDER AND RELATED DATA PATHS ONLY.
 23013
 23014			045502		SN=SN+1
 23015			000002			XX=XX+XX
 23016						IFE	XX,<XX=1>
 23017	043257	551 00 0 00 000002 		HRRZI	XX		;PRELOAD AC WITH FLOATING ONE
 23018	043260	270 00 0 00 070253 		ADD	[0]		;ADD ZERO TO A FLOATING ONE
 23019	043261	312 00 0 00 070266 		CAME	[XX]		;CHECK ADDER UPON FAILURE
DFKAA PDP-10 KL10 BASIC INSTRUCTION DIAGNOSTIC (1) VER 0,2	MACRO %53B(1254)-4 11:50 11-Nov-24 Page 86-1
DFKAA3	MAC	13-Jan-89 10:22		SUPPLEMENTARY ADDER TESTS - FLT 1 + 0

 23020						STOP^
 23021	043262	254 04 0 00 043263 		HALT	.+1		;TEST FAILED IF PROGRAM HALTS HERE
 23022	043263	324 00 0 00 043264 		JUMPA	.+1		;IF TEST FAILS, CHANGE THIS INSTRUCTION (JUMPA .+1) TO
 23023									;JUMPA X (X IS THE ADDRESS OF THE FIRST INSTRUCTION
 23024									;IN THE SUBTEST) TO LOOP ON ERROR^
 23025
 23026					;**********
 23027
 23028
 23029					;THIS TEST VERIFIES THAT THE RESULT OF A ZERO ADDED TO A FLOATING ONE
 23030					;IS THE FLOATING ONE.
 23031					;THIS TEST IS REPEATED 36 TIMES TO FLOAT A ONE THRU ALL 36 BITS OF THE ADDER.
 23032					;THIS TEST IS DESIGNED TO TEST THE ADDER AND RELATED DATA PATHS ONLY.
 23033
 23034			045503		SN=SN+1
 23035			000004			XX=XX+XX
 23036						IFE	XX,<XX=1>
 23037	043264	551 00 0 00 000004 		HRRZI	XX		;PRELOAD AC WITH FLOATING ONE
 23038	043265	270 00 0 00 070253 		ADD	[0]		;ADD ZERO TO A FLOATING ONE
 23039	043266	312 00 0 00 070267 		CAME	[XX]		;CHECK ADDER UPON FAILURE
 23040						STOP^
 23041	043267	254 04 0 00 043270 		HALT	.+1		;TEST FAILED IF PROGRAM HALTS HERE
 23042	043270	324 00 0 00 043271 		JUMPA	.+1		;IF TEST FAILS, CHANGE THIS INSTRUCTION (JUMPA .+1) TO
 23043									;JUMPA X (X IS THE ADDRESS OF THE FIRST INSTRUCTION
 23044									;IN THE SUBTEST) TO LOOP ON ERROR^
 23045
 23046					;**********
 23047
 23048
 23049					;THIS TEST VERIFIES THAT THE RESULT OF A ZERO ADDED TO A FLOATING ONE
 23050					;IS THE FLOATING ONE.
 23051					;THIS TEST IS REPEATED 36 TIMES TO FLOAT A ONE THRU ALL 36 BITS OF THE ADDER.
 23052					;THIS TEST IS DESIGNED TO TEST THE ADDER AND RELATED DATA PATHS ONLY.
 23053
 23054			045504		SN=SN+1
 23055			000010			XX=XX+XX
 23056						IFE	XX,<XX=1>
 23057	043271	551 00 0 00 000010 		HRRZI	XX		;PRELOAD AC WITH FLOATING ONE
 23058	043272	270 00 0 00 070253 		ADD	[0]		;ADD ZERO TO A FLOATING ONE
 23059	043273	312 00 0 00 070270 		CAME	[XX]		;CHECK ADDER UPON FAILURE
 23060						STOP^
 23061	043274	254 04 0 00 043275 		HALT	.+1		;TEST FAILED IF PROGRAM HALTS HERE
 23062	043275	324 00 0 00 043276 		JUMPA	.+1		;IF TEST FAILS, CHANGE THIS INSTRUCTION (JUMPA .+1) TO
 23063									;JUMPA X (X IS THE ADDRESS OF THE FIRST INSTRUCTION
 23064									;IN THE SUBTEST) TO LOOP ON ERROR^
 23065
 23066					;**********
 23067
 23068
 23069					;THIS TEST VERIFIES THAT THE RESULT OF A ZERO ADDED TO A FLOATING ONE
 23070					;IS THE FLOATING ONE.
 23071					;THIS TEST IS REPEATED 36 TIMES TO FLOAT A ONE THRU ALL 36 BITS OF THE ADDER.
 23072					;THIS TEST IS DESIGNED TO TEST THE ADDER AND RELATED DATA PATHS ONLY.
 23073
 23074			045505		SN=SN+1
DFKAA PDP-10 KL10 BASIC INSTRUCTION DIAGNOSTIC (1) VER 0,2	MACRO %53B(1254)-4 11:50 11-Nov-24 Page 86-2
DFKAA3	MAC	13-Jan-89 10:22		SUPPLEMENTARY ADDER TESTS - FLT 1 + 0

 23075			000020			XX=XX+XX
 23076						IFE	XX,<XX=1>
 23077	043276	551 00 0 00 000020 		HRRZI	XX		;PRELOAD AC WITH FLOATING ONE
 23078	043277	270 00 0 00 070253 		ADD	[0]		;ADD ZERO TO A FLOATING ONE
 23079	043300	312 00 0 00 070271 		CAME	[XX]		;CHECK ADDER UPON FAILURE
 23080						STOP^
 23081	043301	254 04 0 00 043302 		HALT	.+1		;TEST FAILED IF PROGRAM HALTS HERE
 23082	043302	324 00 0 00 043303 		JUMPA	.+1		;IF TEST FAILS, CHANGE THIS INSTRUCTION (JUMPA .+1) TO
 23083									;JUMPA X (X IS THE ADDRESS OF THE FIRST INSTRUCTION
 23084									;IN THE SUBTEST) TO LOOP ON ERROR^
 23085
 23086					;**********
 23087
 23088
 23089					;THIS TEST VERIFIES THAT THE RESULT OF A ZERO ADDED TO A FLOATING ONE
 23090					;IS THE FLOATING ONE.
 23091					;THIS TEST IS REPEATED 36 TIMES TO FLOAT A ONE THRU ALL 36 BITS OF THE ADDER.
 23092					;THIS TEST IS DESIGNED TO TEST THE ADDER AND RELATED DATA PATHS ONLY.
 23093
 23094			045506		SN=SN+1
 23095			000040			XX=XX+XX
 23096						IFE	XX,<XX=1>
 23097	043303	551 00 0 00 000040 		HRRZI	XX		;PRELOAD AC WITH FLOATING ONE
 23098	043304	270 00 0 00 070253 		ADD	[0]		;ADD ZERO TO A FLOATING ONE
 23099	043305	312 00 0 00 070272 		CAME	[XX]		;CHECK ADDER UPON FAILURE
 23100						STOP^
 23101	043306	254 04 0 00 043307 		HALT	.+1		;TEST FAILED IF PROGRAM HALTS HERE
 23102	043307	324 00 0 00 043310 		JUMPA	.+1		;IF TEST FAILS, CHANGE THIS INSTRUCTION (JUMPA .+1) TO
 23103									;JUMPA X (X IS THE ADDRESS OF THE FIRST INSTRUCTION
 23104									;IN THE SUBTEST) TO LOOP ON ERROR^
 23105
 23106					;**********
 23107
 23108
 23109					;THIS TEST VERIFIES THAT THE RESULT OF A ZERO ADDED TO A FLOATING ONE
 23110					;IS THE FLOATING ONE.
 23111					;THIS TEST IS REPEATED 36 TIMES TO FLOAT A ONE THRU ALL 36 BITS OF THE ADDER.
 23112					;THIS TEST IS DESIGNED TO TEST THE ADDER AND RELATED DATA PATHS ONLY.
 23113
 23114			045507		SN=SN+1
 23115			000100			XX=XX+XX
 23116						IFE	XX,<XX=1>
 23117	043310	551 00 0 00 000100 		HRRZI	XX		;PRELOAD AC WITH FLOATING ONE
 23118	043311	270 00 0 00 070253 		ADD	[0]		;ADD ZERO TO A FLOATING ONE
 23119	043312	312 00 0 00 070273 		CAME	[XX]		;CHECK ADDER UPON FAILURE
 23120						STOP^
 23121	043313	254 04 0 00 043314 		HALT	.+1		;TEST FAILED IF PROGRAM HALTS HERE
 23122	043314	324 00 0 00 043315 		JUMPA	.+1		;IF TEST FAILS, CHANGE THIS INSTRUCTION (JUMPA .+1) TO
 23123									;JUMPA X (X IS THE ADDRESS OF THE FIRST INSTRUCTION
 23124									;IN THE SUBTEST) TO LOOP ON ERROR^
 23125
 23126					;**********
 23127
 23128
 23129					;THIS TEST VERIFIES THAT THE RESULT OF A ZERO ADDED TO A FLOATING ONE
DFKAA PDP-10 KL10 BASIC INSTRUCTION DIAGNOSTIC (1) VER 0,2	MACRO %53B(1254)-4 11:50 11-Nov-24 Page 86-3
DFKAA3	MAC	13-Jan-89 10:22		SUPPLEMENTARY ADDER TESTS - FLT 1 + 0

 23130					;IS THE FLOATING ONE.
 23131					;THIS TEST IS REPEATED 36 TIMES TO FLOAT A ONE THRU ALL 36 BITS OF THE ADDER.
 23132					;THIS TEST IS DESIGNED TO TEST THE ADDER AND RELATED DATA PATHS ONLY.
 23133
 23134			045510		SN=SN+1
 23135			000200			XX=XX+XX
 23136						IFE	XX,<XX=1>
 23137	043315	551 00 0 00 000200 		HRRZI	XX		;PRELOAD AC WITH FLOATING ONE
 23138	043316	270 00 0 00 070253 		ADD	[0]		;ADD ZERO TO A FLOATING ONE
 23139	043317	312 00 0 00 070274 		CAME	[XX]		;CHECK ADDER UPON FAILURE
 23140						STOP^
 23141	043320	254 04 0 00 043321 		HALT	.+1		;TEST FAILED IF PROGRAM HALTS HERE
 23142	043321	324 00 0 00 043322 		JUMPA	.+1		;IF TEST FAILS, CHANGE THIS INSTRUCTION (JUMPA .+1) TO
 23143									;JUMPA X (X IS THE ADDRESS OF THE FIRST INSTRUCTION
 23144									;IN THE SUBTEST) TO LOOP ON ERROR^
 23145
 23146					;**********
 23147
 23148
 23149					;THIS TEST VERIFIES THAT THE RESULT OF A ZERO ADDED TO A FLOATING ONE
 23150					;IS THE FLOATING ONE.
 23151					;THIS TEST IS REPEATED 36 TIMES TO FLOAT A ONE THRU ALL 36 BITS OF THE ADDER.
 23152					;THIS TEST IS DESIGNED TO TEST THE ADDER AND RELATED DATA PATHS ONLY.
 23153
 23154			045511		SN=SN+1
 23155			000400			XX=XX+XX
 23156						IFE	XX,<XX=1>
 23157	043322	551 00 0 00 000400 		HRRZI	XX		;PRELOAD AC WITH FLOATING ONE
 23158	043323	270 00 0 00 070253 		ADD	[0]		;ADD ZERO TO A FLOATING ONE
 23159	043324	312 00 0 00 070275 		CAME	[XX]		;CHECK ADDER UPON FAILURE
 23160						STOP^
 23161	043325	254 04 0 00 043326 		HALT	.+1		;TEST FAILED IF PROGRAM HALTS HERE
 23162	043326	324 00 0 00 043327 		JUMPA	.+1		;IF TEST FAILS, CHANGE THIS INSTRUCTION (JUMPA .+1) TO
 23163									;JUMPA X (X IS THE ADDRESS OF THE FIRST INSTRUCTION
 23164									;IN THE SUBTEST) TO LOOP ON ERROR^
 23165
 23166					;**********
 23167
 23168
 23169					;THIS TEST VERIFIES THAT THE RESULT OF A ZERO ADDED TO A FLOATING ONE
 23170					;IS THE FLOATING ONE.
 23171					;THIS TEST IS REPEATED 36 TIMES TO FLOAT A ONE THRU ALL 36 BITS OF THE ADDER.
 23172					;THIS TEST IS DESIGNED TO TEST THE ADDER AND RELATED DATA PATHS ONLY.
 23173
 23174			045512		SN=SN+1
 23175			001000			XX=XX+XX
 23176						IFE	XX,<XX=1>
 23177	043327	551 00 0 00 001000 		HRRZI	XX		;PRELOAD AC WITH FLOATING ONE
 23178	043330	270 00 0 00 070253 		ADD	[0]		;ADD ZERO TO A FLOATING ONE
 23179	043331	312 00 0 00 070276 		CAME	[XX]		;CHECK ADDER UPON FAILURE
 23180						STOP^
 23181	043332	254 04 0 00 043333 		HALT	.+1		;TEST FAILED IF PROGRAM HALTS HERE
 23182	043333	324 00 0 00 043334 		JUMPA	.+1		;IF TEST FAILS, CHANGE THIS INSTRUCTION (JUMPA .+1) TO
 23183									;JUMPA X (X IS THE ADDRESS OF THE FIRST INSTRUCTION
 23184									;IN THE SUBTEST) TO LOOP ON ERROR^
DFKAA PDP-10 KL10 BASIC INSTRUCTION DIAGNOSTIC (1) VER 0,2	MACRO %53B(1254)-4 11:50 11-Nov-24 Page 86-4
DFKAA3	MAC	13-Jan-89 10:22		SUPPLEMENTARY ADDER TESTS - FLT 1 + 0

 23185
 23186					;**********
 23187
 23188
 23189					;THIS TEST VERIFIES THAT THE RESULT OF A ZERO ADDED TO A FLOATING ONE
 23190					;IS THE FLOATING ONE.
 23191					;THIS TEST IS REPEATED 36 TIMES TO FLOAT A ONE THRU ALL 36 BITS OF THE ADDER.
 23192					;THIS TEST IS DESIGNED TO TEST THE ADDER AND RELATED DATA PATHS ONLY.
 23193
 23194			045513		SN=SN+1
 23195			002000			XX=XX+XX
 23196						IFE	XX,<XX=1>
 23197	043334	551 00 0 00 002000 		HRRZI	XX		;PRELOAD AC WITH FLOATING ONE
 23198	043335	270 00 0 00 070253 		ADD	[0]		;ADD ZERO TO A FLOATING ONE
 23199	043336	312 00 0 00 070277 		CAME	[XX]		;CHECK ADDER UPON FAILURE
 23200						STOP^
 23201	043337	254 04 0 00 043340 		HALT	.+1		;TEST FAILED IF PROGRAM HALTS HERE
 23202	043340	324 00 0 00 043341 		JUMPA	.+1		;IF TEST FAILS, CHANGE THIS INSTRUCTION (JUMPA .+1) TO
 23203									;JUMPA X (X IS THE ADDRESS OF THE FIRST INSTRUCTION
 23204									;IN THE SUBTEST) TO LOOP ON ERROR^
 23205
 23206					;**********
 23207
 23208
 23209					;THIS TEST VERIFIES THAT THE RESULT OF A ZERO ADDED TO A FLOATING ONE
 23210					;IS THE FLOATING ONE.
 23211					;THIS TEST IS REPEATED 36 TIMES TO FLOAT A ONE THRU ALL 36 BITS OF THE ADDER.
 23212					;THIS TEST IS DESIGNED TO TEST THE ADDER AND RELATED DATA PATHS ONLY.
 23213
 23214			045514		SN=SN+1
 23215			004000			XX=XX+XX
 23216						IFE	XX,<XX=1>
 23217	043341	551 00 0 00 004000 		HRRZI	XX		;PRELOAD AC WITH FLOATING ONE
 23218	043342	270 00 0 00 070253 		ADD	[0]		;ADD ZERO TO A FLOATING ONE
 23219	043343	312 00 0 00 070300 		CAME	[XX]		;CHECK ADDER UPON FAILURE
 23220						STOP^
 23221	043344	254 04 0 00 043345 		HALT	.+1		;TEST FAILED IF PROGRAM HALTS HERE
 23222	043345	324 00 0 00 043346 		JUMPA	.+1		;IF TEST FAILS, CHANGE THIS INSTRUCTION (JUMPA .+1) TO
 23223									;JUMPA X (X IS THE ADDRESS OF THE FIRST INSTRUCTION
 23224									;IN THE SUBTEST) TO LOOP ON ERROR^
 23225
 23226					;**********
 23227
 23228
 23229					;THIS TEST VERIFIES THAT THE RESULT OF A ZERO ADDED TO A FLOATING ONE
 23230					;IS THE FLOATING ONE.
 23231					;THIS TEST IS REPEATED 36 TIMES TO FLOAT A ONE THRU ALL 36 BITS OF THE ADDER.
 23232					;THIS TEST IS DESIGNED TO TEST THE ADDER AND RELATED DATA PATHS ONLY.
 23233
 23234			045515		SN=SN+1
 23235			010000			XX=XX+XX
 23236						IFE	XX,<XX=1>
 23237	043346	551 00 0 00 010000 		HRRZI	XX		;PRELOAD AC WITH FLOATING ONE
 23238	043347	270 00 0 00 070253 		ADD	[0]		;ADD ZERO TO A FLOATING ONE
 23239	043350	312 00 0 00 070301 		CAME	[XX]		;CHECK ADDER UPON FAILURE
DFKAA PDP-10 KL10 BASIC INSTRUCTION DIAGNOSTIC (1) VER 0,2	MACRO %53B(1254)-4 11:50 11-Nov-24 Page 86-5
DFKAA3	MAC	13-Jan-89 10:22		SUPPLEMENTARY ADDER TESTS - FLT 1 + 0

 23240						STOP^
 23241	043351	254 04 0 00 043352 		HALT	.+1		;TEST FAILED IF PROGRAM HALTS HERE
 23242	043352	324 00 0 00 043353 		JUMPA	.+1		;IF TEST FAILS, CHANGE THIS INSTRUCTION (JUMPA .+1) TO
 23243									;JUMPA X (X IS THE ADDRESS OF THE FIRST INSTRUCTION
 23244									;IN THE SUBTEST) TO LOOP ON ERROR^
 23245
 23246					;**********
 23247
 23248
 23249					;THIS TEST VERIFIES THAT THE RESULT OF A ZERO ADDED TO A FLOATING ONE
 23250					;IS THE FLOATING ONE.
 23251					;THIS TEST IS REPEATED 36 TIMES TO FLOAT A ONE THRU ALL 36 BITS OF THE ADDER.
 23252					;THIS TEST IS DESIGNED TO TEST THE ADDER AND RELATED DATA PATHS ONLY.
 23253
 23254			045516		SN=SN+1
 23255			020000			XX=XX+XX
 23256						IFE	XX,<XX=1>
 23257	043353	551 00 0 00 020000 		HRRZI	XX		;PRELOAD AC WITH FLOATING ONE
 23258	043354	270 00 0 00 070253 		ADD	[0]		;ADD ZERO TO A FLOATING ONE
 23259	043355	312 00 0 00 070302 		CAME	[XX]		;CHECK ADDER UPON FAILURE
 23260						STOP^
 23261	043356	254 04 0 00 043357 		HALT	.+1		;TEST FAILED IF PROGRAM HALTS HERE
 23262	043357	324 00 0 00 043360 		JUMPA	.+1		;IF TEST FAILS, CHANGE THIS INSTRUCTION (JUMPA .+1) TO
 23263									;JUMPA X (X IS THE ADDRESS OF THE FIRST INSTRUCTION
 23264									;IN THE SUBTEST) TO LOOP ON ERROR^
 23265
 23266					;**********
 23267
 23268
 23269					;THIS TEST VERIFIES THAT THE RESULT OF A ZERO ADDED TO A FLOATING ONE
 23270					;IS THE FLOATING ONE.
 23271					;THIS TEST IS REPEATED 36 TIMES TO FLOAT A ONE THRU ALL 36 BITS OF THE ADDER.
 23272					;THIS TEST IS DESIGNED TO TEST THE ADDER AND RELATED DATA PATHS ONLY.
 23273
 23274			045517		SN=SN+1
 23275			040000			XX=XX+XX
 23276						IFE	XX,<XX=1>
 23277	043360	551 00 0 00 040000 		HRRZI	XX		;PRELOAD AC WITH FLOATING ONE
 23278	043361	270 00 0 00 070253 		ADD	[0]		;ADD ZERO TO A FLOATING ONE
 23279	043362	312 00 0 00 070303 		CAME	[XX]		;CHECK ADDER UPON FAILURE
 23280						STOP^
 23281	043363	254 04 0 00 043364 		HALT	.+1		;TEST FAILED IF PROGRAM HALTS HERE
 23282	043364	324 00 0 00 043365 		JUMPA	.+1		;IF TEST FAILS, CHANGE THIS INSTRUCTION (JUMPA .+1) TO
 23283									;JUMPA X (X IS THE ADDRESS OF THE FIRST INSTRUCTION
 23284									;IN THE SUBTEST) TO LOOP ON ERROR^
 23285
 23286					;**********
 23287
 23288
 23289					;THIS TEST VERIFIES THAT THE RESULT OF A ZERO ADDED TO A FLOATING ONE
 23290					;IS THE FLOATING ONE.
 23291					;THIS TEST IS REPEATED 36 TIMES TO FLOAT A ONE THRU ALL 36 BITS OF THE ADDER.
 23292					;THIS TEST IS DESIGNED TO TEST THE ADDER AND RELATED DATA PATHS ONLY.
 23293
 23294			045520		SN=SN+1
DFKAA PDP-10 KL10 BASIC INSTRUCTION DIAGNOSTIC (1) VER 0,2	MACRO %53B(1254)-4 11:50 11-Nov-24 Page 86-6
DFKAA3	MAC	13-Jan-89 10:22		SUPPLEMENTARY ADDER TESTS - FLT 1 + 0

 23295			100000			XX=XX+XX
 23296						IFE	XX,<XX=1>
 23297	043365	551 00 0 00 100000 		HRRZI	XX		;PRELOAD AC WITH FLOATING ONE
 23298	043366	270 00 0 00 070253 		ADD	[0]		;ADD ZERO TO A FLOATING ONE
 23299	043367	312 00 0 00 070304 		CAME	[XX]		;CHECK ADDER UPON FAILURE
 23300						STOP^
 23301	043370	254 04 0 00 043371 		HALT	.+1		;TEST FAILED IF PROGRAM HALTS HERE
 23302	043371	324 00 0 00 043372 		JUMPA	.+1		;IF TEST FAILS, CHANGE THIS INSTRUCTION (JUMPA .+1) TO
 23303									;JUMPA X (X IS THE ADDRESS OF THE FIRST INSTRUCTION
 23304									;IN THE SUBTEST) TO LOOP ON ERROR^
 23305
 23306					;**********
 23307
 23308
 23309					;THIS TEST VERIFIES THAT THE RESULT OF A ZERO ADDED TO A FLOATING ONE
 23310					;IS THE FLOATING ONE.
 23311					;THIS TEST IS REPEATED 36 TIMES TO FLOAT A ONE THRU ALL 36 BITS OF THE ADDER.
 23312					;THIS TEST IS DESIGNED TO TEST THE ADDER AND RELATED DATA PATHS ONLY.
 23313
 23314			045521		SN=SN+1
 23315			200000			XX=XX+XX
 23316						IFE	XX,<XX=1>
 23317	043372	551 00 0 00 200000 		HRRZI	XX		;PRELOAD AC WITH FLOATING ONE
 23318	043373	270 00 0 00 070253 		ADD	[0]		;ADD ZERO TO A FLOATING ONE
 23319	043374	312 00 0 00 070305 		CAME	[XX]		;CHECK ADDER UPON FAILURE
 23320						STOP^
 23321	043375	254 04 0 00 043376 		HALT	.+1		;TEST FAILED IF PROGRAM HALTS HERE
 23322	043376	324 00 0 00 043377 		JUMPA	.+1		;IF TEST FAILS, CHANGE THIS INSTRUCTION (JUMPA .+1) TO
 23323									;JUMPA X (X IS THE ADDRESS OF THE FIRST INSTRUCTION
 23324									;IN THE SUBTEST) TO LOOP ON ERROR^
 23325
 23326					;**********
 23327
 23328
 23329					;THIS TEST VERIFIES THAT THE RESULT OF A ZERO ADDED TO A FLOATING ONE
 23330					;IS THE FLOATING ONE.
 23331					;THIS TEST IS REPEATED 36 TIMES TO FLOAT A ONE THRU ALL 36 BITS OF THE ADDER.
 23332					;THIS TEST IS DESIGNED TO TEST THE ADDER AND RELATED DATA PATHS ONLY.
 23333
 23334			045522		SN=SN+1
 23335			400000			XX=XX+XX
 23336						IFE	XX,<XX=1>
 23337	043377	551 00 0 00 400000 		HRRZI	XX		;PRELOAD AC WITH FLOATING ONE
 23338	043400	270 00 0 00 070253 		ADD	[0]		;ADD ZERO TO A FLOATING ONE
 23339	043401	312 00 0 00 070306 		CAME	[XX]		;CHECK ADDER UPON FAILURE
 23340						STOP^
 23341	043402	254 04 0 00 043403 		HALT	.+1		;TEST FAILED IF PROGRAM HALTS HERE
 23342	043403	324 00 0 00 043404 		JUMPA	.+1		;IF TEST FAILS, CHANGE THIS INSTRUCTION (JUMPA .+1) TO
 23343									;JUMPA X (X IS THE ADDRESS OF THE FIRST INSTRUCTION
 23344									;IN THE SUBTEST) TO LOOP ON ERROR^
 23345
 23346					;**********
 23347
 23348					PAGE
DFKAA PDP-10 KL10 BASIC INSTRUCTION DIAGNOSTIC (1) VER 0,2	MACRO %53B(1254)-4 11:50 11-Nov-24 Page 86-7
DFKAA3	MAC	13-Jan-89 10:22		SUPPLEMENTARY ADDER TESTS - FLT 1 + 0

 23349			000000			XX=0
 23350
 23351						REPEAT	^D18,<
 23352					;THIS TEST VERIFIES THAT THE RESULT OF A ZERO ADDED TO A FLOATING ONE
 23353					;IS THE FLOATING ONE.
 23354					;THIS TEST IS REPEATED 36 TIMES TO FLOAT A ONE THRU ALL 36 BITS OF THE ADDER.
 23355					;THIS TEST IS DESIGNED TO TEST THE ADDER AND RELATED DATA PATHS ONLY.
 23356
 23357					SN=SN+1
 23358						XX=XX+XX
 23359						IFE	XX,<XX=1>
 23360						HRLZI	XX		;PRELOAD AC WITH FLOATING ONE
 23361						ADD	[0]		;ADD ZERO TO A FLOATING ONE
 23362						CAME	[XX,,0]		;CHECK ADDER UPON FALIRE
 23363						STOP
 23364
 23365					;**********
 23366					>
 23367
 23368					;THIS TEST VERIFIES THAT THE RESULT OF A ZERO ADDED TO A FLOATING ONE
 23369					;IS THE FLOATING ONE.
 23370					;THIS TEST IS REPEATED 36 TIMES TO FLOAT A ONE THRU ALL 36 BITS OF THE ADDER.
 23371					;THIS TEST IS DESIGNED TO TEST THE ADDER AND RELATED DATA PATHS ONLY.
 23372
 23373			045523		SN=SN+1
 23374			000000			XX=XX+XX
 23375			000001			IFE	XX,<XX=1>
 23376	043404	515 00 0 00 000001 		HRLZI	XX		;PRELOAD AC WITH FLOATING ONE
 23377	043405	270 00 0 00 070253 		ADD	[0]		;ADD ZERO TO A FLOATING ONE
 23378	043406	312 00 0 00 070307 		CAME	[XX,,0]		;CHECK ADDER UPON FALIRE
 23379						STOP		^
 23380	043407	254 04 0 00 043410 		HALT	.+1		;TEST FAILED IF PROGRAM HALTS HERE
 23381	043410	324 00 0 00 043411 		JUMPA	.+1		;IF TEST FAILS, CHANGE THIS INSTRUCTION (JUMPA .+1) TO
 23382									;JUMPA X (X IS THE ADDRESS OF THE FIRST INSTRUCTION
 23383									;IN THE SUBTEST) TO LOOP ON ERROR^
 23384
 23385					;**********
 23386
 23387
 23388					;THIS TEST VERIFIES THAT THE RESULT OF A ZERO ADDED TO A FLOATING ONE
 23389					;IS THE FLOATING ONE.
 23390					;THIS TEST IS REPEATED 36 TIMES TO FLOAT A ONE THRU ALL 36 BITS OF THE ADDER.
 23391					;THIS TEST IS DESIGNED TO TEST THE ADDER AND RELATED DATA PATHS ONLY.
 23392
 23393			045524		SN=SN+1
 23394			000002			XX=XX+XX
 23395						IFE	XX,<XX=1>
 23396	043411	515 00 0 00 000002 		HRLZI	XX		;PRELOAD AC WITH FLOATING ONE
 23397	043412	270 00 0 00 070253 		ADD	[0]		;ADD ZERO TO A FLOATING ONE
 23398	043413	312 00 0 00 070310 		CAME	[XX,,0]		;CHECK ADDER UPON FALIRE
 23399						STOP		^
 23400	043414	254 04 0 00 043415 		HALT	.+1		;TEST FAILED IF PROGRAM HALTS HERE
 23401	043415	324 00 0 00 043416 		JUMPA	.+1		;IF TEST FAILS, CHANGE THIS INSTRUCTION (JUMPA .+1) TO
 23402									;JUMPA X (X IS THE ADDRESS OF THE FIRST INSTRUCTION
 23403									;IN THE SUBTEST) TO LOOP ON ERROR^
DFKAA PDP-10 KL10 BASIC INSTRUCTION DIAGNOSTIC (1) VER 0,2	MACRO %53B(1254)-4 11:50 11-Nov-24 Page 86-8
DFKAA3	MAC	13-Jan-89 10:22		SUPPLEMENTARY ADDER TESTS - FLT 1 + 0

 23404
 23405					;**********
 23406
 23407
 23408					;THIS TEST VERIFIES THAT THE RESULT OF A ZERO ADDED TO A FLOATING ONE
 23409					;IS THE FLOATING ONE.
 23410					;THIS TEST IS REPEATED 36 TIMES TO FLOAT A ONE THRU ALL 36 BITS OF THE ADDER.
 23411					;THIS TEST IS DESIGNED TO TEST THE ADDER AND RELATED DATA PATHS ONLY.
 23412
 23413			045525		SN=SN+1
 23414			000004			XX=XX+XX
 23415						IFE	XX,<XX=1>
 23416	043416	515 00 0 00 000004 		HRLZI	XX		;PRELOAD AC WITH FLOATING ONE
 23417	043417	270 00 0 00 070253 		ADD	[0]		;ADD ZERO TO A FLOATING ONE
 23418	043420	312 00 0 00 070311 		CAME	[XX,,0]		;CHECK ADDER UPON FALIRE
 23419						STOP		^
 23420	043421	254 04 0 00 043422 		HALT	.+1		;TEST FAILED IF PROGRAM HALTS HERE
 23421	043422	324 00 0 00 043423 		JUMPA	.+1		;IF TEST FAILS, CHANGE THIS INSTRUCTION (JUMPA .+1) TO
 23422									;JUMPA X (X IS THE ADDRESS OF THE FIRST INSTRUCTION
 23423									;IN THE SUBTEST) TO LOOP ON ERROR^
 23424
 23425					;**********
 23426
 23427
 23428					;THIS TEST VERIFIES THAT THE RESULT OF A ZERO ADDED TO A FLOATING ONE
 23429					;IS THE FLOATING ONE.
 23430					;THIS TEST IS REPEATED 36 TIMES TO FLOAT A ONE THRU ALL 36 BITS OF THE ADDER.
 23431					;THIS TEST IS DESIGNED TO TEST THE ADDER AND RELATED DATA PATHS ONLY.
 23432
 23433			045526		SN=SN+1
 23434			000010			XX=XX+XX
 23435						IFE	XX,<XX=1>
 23436	043423	515 00 0 00 000010 		HRLZI	XX		;PRELOAD AC WITH FLOATING ONE
 23437	043424	270 00 0 00 070253 		ADD	[0]		;ADD ZERO TO A FLOATING ONE
 23438	043425	312 00 0 00 070312 		CAME	[XX,,0]		;CHECK ADDER UPON FALIRE
 23439						STOP		^
 23440	043426	254 04 0 00 043427 		HALT	.+1		;TEST FAILED IF PROGRAM HALTS HERE
 23441	043427	324 00 0 00 043430 		JUMPA	.+1		;IF TEST FAILS, CHANGE THIS INSTRUCTION (JUMPA .+1) TO
 23442									;JUMPA X (X IS THE ADDRESS OF THE FIRST INSTRUCTION
 23443									;IN THE SUBTEST) TO LOOP ON ERROR^
 23444
 23445					;**********
 23446
 23447
 23448					;THIS TEST VERIFIES THAT THE RESULT OF A ZERO ADDED TO A FLOATING ONE
 23449					;IS THE FLOATING ONE.
 23450					;THIS TEST IS REPEATED 36 TIMES TO FLOAT A ONE THRU ALL 36 BITS OF THE ADDER.
 23451					;THIS TEST IS DESIGNED TO TEST THE ADDER AND RELATED DATA PATHS ONLY.
 23452
 23453			045527		SN=SN+1
 23454			000020			XX=XX+XX
 23455						IFE	XX,<XX=1>
 23456	043430	515 00 0 00 000020 		HRLZI	XX		;PRELOAD AC WITH FLOATING ONE
 23457	043431	270 00 0 00 070253 		ADD	[0]		;ADD ZERO TO A FLOATING ONE
 23458	043432	312 00 0 00 070313 		CAME	[XX,,0]		;CHECK ADDER UPON FALIRE
DFKAA PDP-10 KL10 BASIC INSTRUCTION DIAGNOSTIC (1) VER 0,2	MACRO %53B(1254)-4 11:50 11-Nov-24 Page 86-9
DFKAA3	MAC	13-Jan-89 10:22		SUPPLEMENTARY ADDER TESTS - FLT 1 + 0

 23459						STOP		^
 23460	043433	254 04 0 00 043434 		HALT	.+1		;TEST FAILED IF PROGRAM HALTS HERE
 23461	043434	324 00 0 00 043435 		JUMPA	.+1		;IF TEST FAILS, CHANGE THIS INSTRUCTION (JUMPA .+1) TO
 23462									;JUMPA X (X IS THE ADDRESS OF THE FIRST INSTRUCTION
 23463									;IN THE SUBTEST) TO LOOP ON ERROR^
 23464
 23465					;**********
 23466
 23467
 23468					;THIS TEST VERIFIES THAT THE RESULT OF A ZERO ADDED TO A FLOATING ONE
 23469					;IS THE FLOATING ONE.
 23470					;THIS TEST IS REPEATED 36 TIMES TO FLOAT A ONE THRU ALL 36 BITS OF THE ADDER.
 23471					;THIS TEST IS DESIGNED TO TEST THE ADDER AND RELATED DATA PATHS ONLY.
 23472
 23473			045530		SN=SN+1
 23474			000040			XX=XX+XX
 23475						IFE	XX,<XX=1>
 23476	043435	515 00 0 00 000040 		HRLZI	XX		;PRELOAD AC WITH FLOATING ONE
 23477	043436	270 00 0 00 070253 		ADD	[0]		;ADD ZERO TO A FLOATING ONE
 23478	043437	312 00 0 00 070314 		CAME	[XX,,0]		;CHECK ADDER UPON FALIRE
 23479						STOP		^
 23480	043440	254 04 0 00 043441 		HALT	.+1		;TEST FAILED IF PROGRAM HALTS HERE
 23481	043441	324 00 0 00 043442 		JUMPA	.+1		;IF TEST FAILS, CHANGE THIS INSTRUCTION (JUMPA .+1) TO
 23482									;JUMPA X (X IS THE ADDRESS OF THE FIRST INSTRUCTION
 23483									;IN THE SUBTEST) TO LOOP ON ERROR^
 23484
 23485					;**********
 23486
 23487
 23488					;THIS TEST VERIFIES THAT THE RESULT OF A ZERO ADDED TO A FLOATING ONE
 23489					;IS THE FLOATING ONE.
 23490					;THIS TEST IS REPEATED 36 TIMES TO FLOAT A ONE THRU ALL 36 BITS OF THE ADDER.
 23491					;THIS TEST IS DESIGNED TO TEST THE ADDER AND RELATED DATA PATHS ONLY.
 23492
 23493			045531		SN=SN+1
 23494			000100			XX=XX+XX
 23495						IFE	XX,<XX=1>
 23496	043442	515 00 0 00 000100 		HRLZI	XX		;PRELOAD AC WITH FLOATING ONE
 23497	043443	270 00 0 00 070253 		ADD	[0]		;ADD ZERO TO A FLOATING ONE
 23498	043444	312 00 0 00 070315 		CAME	[XX,,0]		;CHECK ADDER UPON FALIRE
 23499						STOP		^
 23500	043445	254 04 0 00 043446 		HALT	.+1		;TEST FAILED IF PROGRAM HALTS HERE
 23501	043446	324 00 0 00 043447 		JUMPA	.+1		;IF TEST FAILS, CHANGE THIS INSTRUCTION (JUMPA .+1) TO
 23502									;JUMPA X (X IS THE ADDRESS OF THE FIRST INSTRUCTION
 23503									;IN THE SUBTEST) TO LOOP ON ERROR^
 23504
 23505					;**********
 23506
 23507
 23508					;THIS TEST VERIFIES THAT THE RESULT OF A ZERO ADDED TO A FLOATING ONE
 23509					;IS THE FLOATING ONE.
 23510					;THIS TEST IS REPEATED 36 TIMES TO FLOAT A ONE THRU ALL 36 BITS OF THE ADDER.
 23511					;THIS TEST IS DESIGNED TO TEST THE ADDER AND RELATED DATA PATHS ONLY.
 23512
 23513			045532		SN=SN+1
DFKAA PDP-10 KL10 BASIC INSTRUCTION DIAGNOSTIC (1) VER 0,2	MACRO %53B(1254)-4 11:50 11-Nov-24 Page 86-10
DFKAA3	MAC	13-Jan-89 10:22		SUPPLEMENTARY ADDER TESTS - FLT 1 + 0

 23514			000200			XX=XX+XX
 23515						IFE	XX,<XX=1>
 23516	043447	515 00 0 00 000200 		HRLZI	XX		;PRELOAD AC WITH FLOATING ONE
 23517	043450	270 00 0 00 070253 		ADD	[0]		;ADD ZERO TO A FLOATING ONE
 23518	043451	312 00 0 00 070316 		CAME	[XX,,0]		;CHECK ADDER UPON FALIRE
 23519						STOP		^
 23520	043452	254 04 0 00 043453 		HALT	.+1		;TEST FAILED IF PROGRAM HALTS HERE
 23521	043453	324 00 0 00 043454 		JUMPA	.+1		;IF TEST FAILS, CHANGE THIS INSTRUCTION (JUMPA .+1) TO
 23522									;JUMPA X (X IS THE ADDRESS OF THE FIRST INSTRUCTION
 23523									;IN THE SUBTEST) TO LOOP ON ERROR^
 23524
 23525					;**********
 23526
 23527
 23528					;THIS TEST VERIFIES THAT THE RESULT OF A ZERO ADDED TO A FLOATING ONE
 23529					;IS THE FLOATING ONE.
 23530					;THIS TEST IS REPEATED 36 TIMES TO FLOAT A ONE THRU ALL 36 BITS OF THE ADDER.
 23531					;THIS TEST IS DESIGNED TO TEST THE ADDER AND RELATED DATA PATHS ONLY.
 23532
 23533			045533		SN=SN+1
 23534			000400			XX=XX+XX
 23535						IFE	XX,<XX=1>
 23536	043454	515 00 0 00 000400 		HRLZI	XX		;PRELOAD AC WITH FLOATING ONE
 23537	043455	270 00 0 00 070253 		ADD	[0]		;ADD ZERO TO A FLOATING ONE
 23538	043456	312 00 0 00 070264 		CAME	[XX,,0]		;CHECK ADDER UPON FALIRE
 23539						STOP		^
 23540	043457	254 04 0 00 043460 		HALT	.+1		;TEST FAILED IF PROGRAM HALTS HERE
 23541	043460	324 00 0 00 043461 		JUMPA	.+1		;IF TEST FAILS, CHANGE THIS INSTRUCTION (JUMPA .+1) TO
 23542									;JUMPA X (X IS THE ADDRESS OF THE FIRST INSTRUCTION
 23543									;IN THE SUBTEST) TO LOOP ON ERROR^
 23544
 23545					;**********
 23546
 23547
 23548					;THIS TEST VERIFIES THAT THE RESULT OF A ZERO ADDED TO A FLOATING ONE
 23549					;IS THE FLOATING ONE.
 23550					;THIS TEST IS REPEATED 36 TIMES TO FLOAT A ONE THRU ALL 36 BITS OF THE ADDER.
 23551					;THIS TEST IS DESIGNED TO TEST THE ADDER AND RELATED DATA PATHS ONLY.
 23552
 23553			045534		SN=SN+1
 23554			001000			XX=XX+XX
 23555						IFE	XX,<XX=1>
 23556	043461	515 00 0 00 001000 		HRLZI	XX		;PRELOAD AC WITH FLOATING ONE
 23557	043462	270 00 0 00 070253 		ADD	[0]		;ADD ZERO TO A FLOATING ONE
 23558	043463	312 00 0 00 070317 		CAME	[XX,,0]		;CHECK ADDER UPON FALIRE
 23559						STOP		^
 23560	043464	254 04 0 00 043465 		HALT	.+1		;TEST FAILED IF PROGRAM HALTS HERE
 23561	043465	324 00 0 00 043466 		JUMPA	.+1		;IF TEST FAILS, CHANGE THIS INSTRUCTION (JUMPA .+1) TO
 23562									;JUMPA X (X IS THE ADDRESS OF THE FIRST INSTRUCTION
 23563									;IN THE SUBTEST) TO LOOP ON ERROR^
 23564
 23565					;**********
 23566
 23567
 23568					;THIS TEST VERIFIES THAT THE RESULT OF A ZERO ADDED TO A FLOATING ONE
DFKAA PDP-10 KL10 BASIC INSTRUCTION DIAGNOSTIC (1) VER 0,2	MACRO %53B(1254)-4 11:50 11-Nov-24 Page 86-11
DFKAA3	MAC	13-Jan-89 10:22		SUPPLEMENTARY ADDER TESTS - FLT 1 + 0

 23569					;IS THE FLOATING ONE.
 23570					;THIS TEST IS REPEATED 36 TIMES TO FLOAT A ONE THRU ALL 36 BITS OF THE ADDER.
 23571					;THIS TEST IS DESIGNED TO TEST THE ADDER AND RELATED DATA PATHS ONLY.
 23572
 23573			045535		SN=SN+1
 23574			002000			XX=XX+XX
 23575						IFE	XX,<XX=1>
 23576	043466	515 00 0 00 002000 		HRLZI	XX		;PRELOAD AC WITH FLOATING ONE
 23577	043467	270 00 0 00 070253 		ADD	[0]		;ADD ZERO TO A FLOATING ONE
 23578	043470	312 00 0 00 070320 		CAME	[XX,,0]		;CHECK ADDER UPON FALIRE
 23579						STOP		^
 23580	043471	254 04 0 00 043472 		HALT	.+1		;TEST FAILED IF PROGRAM HALTS HERE
 23581	043472	324 00 0 00 043473 		JUMPA	.+1		;IF TEST FAILS, CHANGE THIS INSTRUCTION (JUMPA .+1) TO
 23582									;JUMPA X (X IS THE ADDRESS OF THE FIRST INSTRUCTION
 23583									;IN THE SUBTEST) TO LOOP ON ERROR^
 23584
 23585					;**********
 23586
 23587
 23588					;THIS TEST VERIFIES THAT THE RESULT OF A ZERO ADDED TO A FLOATING ONE
 23589					;IS THE FLOATING ONE.
 23590					;THIS TEST IS REPEATED 36 TIMES TO FLOAT A ONE THRU ALL 36 BITS OF THE ADDER.
 23591					;THIS TEST IS DESIGNED TO TEST THE ADDER AND RELATED DATA PATHS ONLY.
 23592
 23593			045536		SN=SN+1
 23594			004000			XX=XX+XX
 23595						IFE	XX,<XX=1>
 23596	043473	515 00 0 00 004000 		HRLZI	XX		;PRELOAD AC WITH FLOATING ONE
 23597	043474	270 00 0 00 070253 		ADD	[0]		;ADD ZERO TO A FLOATING ONE
 23598	043475	312 00 0 00 070321 		CAME	[XX,,0]		;CHECK ADDER UPON FALIRE
 23599						STOP		^
 23600	043476	254 04 0 00 043477 		HALT	.+1		;TEST FAILED IF PROGRAM HALTS HERE
 23601	043477	324 00 0 00 043500 		JUMPA	.+1		;IF TEST FAILS, CHANGE THIS INSTRUCTION (JUMPA .+1) TO
 23602									;JUMPA X (X IS THE ADDRESS OF THE FIRST INSTRUCTION
 23603									;IN THE SUBTEST) TO LOOP ON ERROR^
 23604
 23605					;**********
 23606
 23607
 23608					;THIS TEST VERIFIES THAT THE RESULT OF A ZERO ADDED TO A FLOATING ONE
 23609					;IS THE FLOATING ONE.
 23610					;THIS TEST IS REPEATED 36 TIMES TO FLOAT A ONE THRU ALL 36 BITS OF THE ADDER.
 23611					;THIS TEST IS DESIGNED TO TEST THE ADDER AND RELATED DATA PATHS ONLY.
 23612
 23613			045537		SN=SN+1
 23614			010000			XX=XX+XX
 23615						IFE	XX,<XX=1>
 23616	043500	515 00 0 00 010000 		HRLZI	XX		;PRELOAD AC WITH FLOATING ONE
 23617	043501	270 00 0 00 070253 		ADD	[0]		;ADD ZERO TO A FLOATING ONE
 23618	043502	312 00 0 00 070322 		CAME	[XX,,0]		;CHECK ADDER UPON FALIRE
 23619						STOP		^
 23620	043503	254 04 0 00 043504 		HALT	.+1		;TEST FAILED IF PROGRAM HALTS HERE
 23621	043504	324 00 0 00 043505 		JUMPA	.+1		;IF TEST FAILS, CHANGE THIS INSTRUCTION (JUMPA .+1) TO
 23622									;JUMPA X (X IS THE ADDRESS OF THE FIRST INSTRUCTION
 23623									;IN THE SUBTEST) TO LOOP ON ERROR^
DFKAA PDP-10 KL10 BASIC INSTRUCTION DIAGNOSTIC (1) VER 0,2	MACRO %53B(1254)-4 11:50 11-Nov-24 Page 86-12
DFKAA3	MAC	13-Jan-89 10:22		SUPPLEMENTARY ADDER TESTS - FLT 1 + 0

 23624
 23625					;**********
 23626
 23627
 23628					;THIS TEST VERIFIES THAT THE RESULT OF A ZERO ADDED TO A FLOATING ONE
 23629					;IS THE FLOATING ONE.
 23630					;THIS TEST IS REPEATED 36 TIMES TO FLOAT A ONE THRU ALL 36 BITS OF THE ADDER.
 23631					;THIS TEST IS DESIGNED TO TEST THE ADDER AND RELATED DATA PATHS ONLY.
 23632
 23633			045540		SN=SN+1
 23634			020000			XX=XX+XX
 23635						IFE	XX,<XX=1>
 23636	043505	515 00 0 00 020000 		HRLZI	XX		;PRELOAD AC WITH FLOATING ONE
 23637	043506	270 00 0 00 070253 		ADD	[0]		;ADD ZERO TO A FLOATING ONE
 23638	043507	312 00 0 00 070323 		CAME	[XX,,0]		;CHECK ADDER UPON FALIRE
 23639						STOP		^
 23640	043510	254 04 0 00 043511 		HALT	.+1		;TEST FAILED IF PROGRAM HALTS HERE
 23641	043511	324 00 0 00 043512 		JUMPA	.+1		;IF TEST FAILS, CHANGE THIS INSTRUCTION (JUMPA .+1) TO
 23642									;JUMPA X (X IS THE ADDRESS OF THE FIRST INSTRUCTION
 23643									;IN THE SUBTEST) TO LOOP ON ERROR^
 23644
 23645					;**********
 23646
 23647
 23648					;THIS TEST VERIFIES THAT THE RESULT OF A ZERO ADDED TO A FLOATING ONE
 23649					;IS THE FLOATING ONE.
 23650					;THIS TEST IS REPEATED 36 TIMES TO FLOAT A ONE THRU ALL 36 BITS OF THE ADDER.
 23651					;THIS TEST IS DESIGNED TO TEST THE ADDER AND RELATED DATA PATHS ONLY.
 23652
 23653			045541		SN=SN+1
 23654			040000			XX=XX+XX
 23655						IFE	XX,<XX=1>
 23656	043512	515 00 0 00 040000 		HRLZI	XX		;PRELOAD AC WITH FLOATING ONE
 23657	043513	270 00 0 00 070253 		ADD	[0]		;ADD ZERO TO A FLOATING ONE
 23658	043514	312 00 0 00 070324 		CAME	[XX,,0]		;CHECK ADDER UPON FALIRE
 23659						STOP		^
 23660	043515	254 04 0 00 043516 		HALT	.+1		;TEST FAILED IF PROGRAM HALTS HERE
 23661	043516	324 00 0 00 043517 		JUMPA	.+1		;IF TEST FAILS, CHANGE THIS INSTRUCTION (JUMPA .+1) TO
 23662									;JUMPA X (X IS THE ADDRESS OF THE FIRST INSTRUCTION
 23663									;IN THE SUBTEST) TO LOOP ON ERROR^
 23664
 23665					;**********
 23666
 23667
 23668					;THIS TEST VERIFIES THAT THE RESULT OF A ZERO ADDED TO A FLOATING ONE
 23669					;IS THE FLOATING ONE.
 23670					;THIS TEST IS REPEATED 36 TIMES TO FLOAT A ONE THRU ALL 36 BITS OF THE ADDER.
 23671					;THIS TEST IS DESIGNED TO TEST THE ADDER AND RELATED DATA PATHS ONLY.
 23672
 23673			045542		SN=SN+1
 23674			100000			XX=XX+XX
 23675						IFE	XX,<XX=1>
 23676	043517	515 00 0 00 100000 		HRLZI	XX		;PRELOAD AC WITH FLOATING ONE
 23677	043520	270 00 0 00 070253 		ADD	[0]		;ADD ZERO TO A FLOATING ONE
 23678	043521	312 00 0 00 070325 		CAME	[XX,,0]		;CHECK ADDER UPON FALIRE
DFKAA PDP-10 KL10 BASIC INSTRUCTION DIAGNOSTIC (1) VER 0,2	MACRO %53B(1254)-4 11:50 11-Nov-24 Page 86-13
DFKAA3	MAC	13-Jan-89 10:22		SUPPLEMENTARY ADDER TESTS - FLT 1 + 0

 23679						STOP		^
 23680	043522	254 04 0 00 043523 		HALT	.+1		;TEST FAILED IF PROGRAM HALTS HERE
 23681	043523	324 00 0 00 043524 		JUMPA	.+1		;IF TEST FAILS, CHANGE THIS INSTRUCTION (JUMPA .+1) TO
 23682									;JUMPA X (X IS THE ADDRESS OF THE FIRST INSTRUCTION
 23683									;IN THE SUBTEST) TO LOOP ON ERROR^
 23684
 23685					;**********
 23686
 23687
 23688					;THIS TEST VERIFIES THAT THE RESULT OF A ZERO ADDED TO A FLOATING ONE
 23689					;IS THE FLOATING ONE.
 23690					;THIS TEST IS REPEATED 36 TIMES TO FLOAT A ONE THRU ALL 36 BITS OF THE ADDER.
 23691					;THIS TEST IS DESIGNED TO TEST THE ADDER AND RELATED DATA PATHS ONLY.
 23692
 23693			045543		SN=SN+1
 23694			200000			XX=XX+XX
 23695						IFE	XX,<XX=1>
 23696	043524	515 00 0 00 200000 		HRLZI	XX		;PRELOAD AC WITH FLOATING ONE
 23697	043525	270 00 0 00 070253 		ADD	[0]		;ADD ZERO TO A FLOATING ONE
 23698	043526	312 00 0 00 070326 		CAME	[XX,,0]		;CHECK ADDER UPON FALIRE
 23699						STOP		^
 23700	043527	254 04 0 00 043530 		HALT	.+1		;TEST FAILED IF PROGRAM HALTS HERE
 23701	043530	324 00 0 00 043531 		JUMPA	.+1		;IF TEST FAILS, CHANGE THIS INSTRUCTION (JUMPA .+1) TO
 23702									;JUMPA X (X IS THE ADDRESS OF THE FIRST INSTRUCTION
 23703									;IN THE SUBTEST) TO LOOP ON ERROR^
 23704
 23705					;**********
 23706
 23707
 23708					;THIS TEST VERIFIES THAT THE RESULT OF A ZERO ADDED TO A FLOATING ONE
 23709					;IS THE FLOATING ONE.
 23710					;THIS TEST IS REPEATED 36 TIMES TO FLOAT A ONE THRU ALL 36 BITS OF THE ADDER.
 23711					;THIS TEST IS DESIGNED TO TEST THE ADDER AND RELATED DATA PATHS ONLY.
 23712
 23713			045544		SN=SN+1
 23714			400000			XX=XX+XX
 23715						IFE	XX,<XX=1>
 23716	043531	515 00 0 00 400000 		HRLZI	XX		;PRELOAD AC WITH FLOATING ONE
 23717	043532	270 00 0 00 070253 		ADD	[0]		;ADD ZERO TO A FLOATING ONE
 23718	043533	312 00 0 00 070256 		CAME	[XX,,0]		;CHECK ADDER UPON FALIRE
 23719						STOP		^
 23720	043534	254 04 0 00 043535 		HALT	.+1		;TEST FAILED IF PROGRAM HALTS HERE
 23721	043535	324 00 0 00 043536 		JUMPA	.+1		;IF TEST FAILS, CHANGE THIS INSTRUCTION (JUMPA .+1) TO
 23722									;JUMPA X (X IS THE ADDRESS OF THE FIRST INSTRUCTION
 23723									;IN THE SUBTEST) TO LOOP ON ERROR^
 23724
 23725					;**********
 23726
DFKAA PDP-10 KL10 BASIC INSTRUCTION DIAGNOSTIC (1) VER 0,2	MACRO %53B(1254)-4 11:50 11-Nov-24 Page 87
DFKAA3	MAC	13-Jan-89 10:22		SUPPLEMENTARY ADDER TESTS - O + FLT 0

 23727					SUBTTL	SUPPLEMENTARY ADDER TESTS - O + FLT 0
 23728
 23729					;**********
 23730
 23731			045600		SN=45600
 23732					B45600:	REPEAT	^D18,<
 23733					;THIS TEST VERIFIES THAT THE RESULT OF A FLOATING ZERO ADDED TO A ZERO
 23734					;IS THE FLOATING ZERO.
 23735					;THIS TEST IS REPEATED 36 TIMES TO FLOAT A ZERO THRU ALL 36 BITS OF THE ADDER.
 23736					;THIS TEST IS DESIGNED TO TEST THE ADDER AND RELATED DATA PATHS ONLY.
 23737
 23738					SN=SN+1
 23739						XX=<XX+XX+1>&777777
 23740						IFE	<XX-1>,<XX=777776>
 23741						SETZ			;PRELOAD AC WITH 0
 23742						ADD	[-1,,XX]	;ADD A FLOATING ZERO TO ZERO
 23743						CAME	[-1,,XX]	;CHECK ADDER UPON FAILURE
 23744						STOP
 23745
 23746					;**********
 23747					>
 23748
 23749					;THIS TEST VERIFIES THAT THE RESULT OF A FLOATING ZERO ADDED TO A ZERO
 23750					;IS THE FLOATING ZERO.
 23751					;THIS TEST IS REPEATED 36 TIMES TO FLOAT A ZERO THRU ALL 36 BITS OF THE ADDER.
 23752					;THIS TEST IS DESIGNED TO TEST THE ADDER AND RELATED DATA PATHS ONLY.
 23753
 23754			045601		SN=SN+1
 23755			000001			XX=<XX+XX+1>&777777
 23756			777776			IFE	<XX-1>,<XX=777776>
 23757	043536	400 00 0 00 000000 		SETZ			;PRELOAD AC WITH 0
 23758	043537	270 00 0 00 070333 		ADD	[-1,,XX]	;ADD A FLOATING ZERO TO ZERO
 23759	043540	312 00 0 00 070333 		CAME	[-1,,XX]	;CHECK ADDER UPON FAILURE
 23760						STOP		^
 23761	043541	254 04 0 00 043542 		HALT	.+1		;TEST FAILED IF PROGRAM HALTS HERE
 23762	043542	324 00 0 00 043543 		JUMPA	.+1		;IF TEST FAILS, CHANGE THIS INSTRUCTION (JUMPA .+1) TO
 23763									;JUMPA X (X IS THE ADDRESS OF THE FIRST INSTRUCTION
 23764									;IN THE SUBTEST) TO LOOP ON ERROR^
 23765
 23766					;**********
 23767
 23768
 23769					;THIS TEST VERIFIES THAT THE RESULT OF A FLOATING ZERO ADDED TO A ZERO
 23770					;IS THE FLOATING ZERO.
 23771					;THIS TEST IS REPEATED 36 TIMES TO FLOAT A ZERO THRU ALL 36 BITS OF THE ADDER.
 23772					;THIS TEST IS DESIGNED TO TEST THE ADDER AND RELATED DATA PATHS ONLY.
 23773
 23774			045602		SN=SN+1
 23775			777775			XX=<XX+XX+1>&777777
 23776						IFE	<XX-1>,<XX=777776>
 23777	043543	400 00 0 00 000000 		SETZ			;PRELOAD AC WITH 0
 23778	043544	270 00 0 00 070334 		ADD	[-1,,XX]	;ADD A FLOATING ZERO TO ZERO
 23779	043545	312 00 0 00 070334 		CAME	[-1,,XX]	;CHECK ADDER UPON FAILURE
 23780						STOP		^
 23781	043546	254 04 0 00 043547 		HALT	.+1		;TEST FAILED IF PROGRAM HALTS HERE
DFKAA PDP-10 KL10 BASIC INSTRUCTION DIAGNOSTIC (1) VER 0,2	MACRO %53B(1254)-4 11:50 11-Nov-24 Page 87-1
DFKAA3	MAC	13-Jan-89 10:22		SUPPLEMENTARY ADDER TESTS - O + FLT 0

 23782	043547	324 00 0 00 043550 		JUMPA	.+1		;IF TEST FAILS, CHANGE THIS INSTRUCTION (JUMPA .+1) TO
 23783									;JUMPA X (X IS THE ADDRESS OF THE FIRST INSTRUCTION
 23784									;IN THE SUBTEST) TO LOOP ON ERROR^
 23785
 23786					;**********
 23787
 23788
 23789					;THIS TEST VERIFIES THAT THE RESULT OF A FLOATING ZERO ADDED TO A ZERO
 23790					;IS THE FLOATING ZERO.
 23791					;THIS TEST IS REPEATED 36 TIMES TO FLOAT A ZERO THRU ALL 36 BITS OF THE ADDER.
 23792					;THIS TEST IS DESIGNED TO TEST THE ADDER AND RELATED DATA PATHS ONLY.
 23793
 23794			045603		SN=SN+1
 23795			777773			XX=<XX+XX+1>&777777
 23796						IFE	<XX-1>,<XX=777776>
 23797	043550	400 00 0 00 000000 		SETZ			;PRELOAD AC WITH 0
 23798	043551	270 00 0 00 070335 		ADD	[-1,,XX]	;ADD A FLOATING ZERO TO ZERO
 23799	043552	312 00 0 00 070335 		CAME	[-1,,XX]	;CHECK ADDER UPON FAILURE
 23800						STOP		^
 23801	043553	254 04 0 00 043554 		HALT	.+1		;TEST FAILED IF PROGRAM HALTS HERE
 23802	043554	324 00 0 00 043555 		JUMPA	.+1		;IF TEST FAILS, CHANGE THIS INSTRUCTION (JUMPA .+1) TO
 23803									;JUMPA X (X IS THE ADDRESS OF THE FIRST INSTRUCTION
 23804									;IN THE SUBTEST) TO LOOP ON ERROR^
 23805
 23806					;**********
 23807
 23808
 23809					;THIS TEST VERIFIES THAT THE RESULT OF A FLOATING ZERO ADDED TO A ZERO
 23810					;IS THE FLOATING ZERO.
 23811					;THIS TEST IS REPEATED 36 TIMES TO FLOAT A ZERO THRU ALL 36 BITS OF THE ADDER.
 23812					;THIS TEST IS DESIGNED TO TEST THE ADDER AND RELATED DATA PATHS ONLY.
 23813
 23814			045604		SN=SN+1
 23815			777767			XX=<XX+XX+1>&777777
 23816						IFE	<XX-1>,<XX=777776>
 23817	043555	400 00 0 00 000000 		SETZ			;PRELOAD AC WITH 0
 23818	043556	270 00 0 00 070336 		ADD	[-1,,XX]	;ADD A FLOATING ZERO TO ZERO
 23819	043557	312 00 0 00 070336 		CAME	[-1,,XX]	;CHECK ADDER UPON FAILURE
 23820						STOP		^
 23821	043560	254 04 0 00 043561 		HALT	.+1		;TEST FAILED IF PROGRAM HALTS HERE
 23822	043561	324 00 0 00 043562 		JUMPA	.+1		;IF TEST FAILS, CHANGE THIS INSTRUCTION (JUMPA .+1) TO
 23823									;JUMPA X (X IS THE ADDRESS OF THE FIRST INSTRUCTION
 23824									;IN THE SUBTEST) TO LOOP ON ERROR^
 23825
 23826					;**********
 23827
 23828
 23829					;THIS TEST VERIFIES THAT THE RESULT OF A FLOATING ZERO ADDED TO A ZERO
 23830					;IS THE FLOATING ZERO.
 23831					;THIS TEST IS REPEATED 36 TIMES TO FLOAT A ZERO THRU ALL 36 BITS OF THE ADDER.
 23832					;THIS TEST IS DESIGNED TO TEST THE ADDER AND RELATED DATA PATHS ONLY.
 23833
 23834			045605		SN=SN+1
 23835			777757			XX=<XX+XX+1>&777777
 23836						IFE	<XX-1>,<XX=777776>
DFKAA PDP-10 KL10 BASIC INSTRUCTION DIAGNOSTIC (1) VER 0,2	MACRO %53B(1254)-4 11:50 11-Nov-24 Page 87-2
DFKAA3	MAC	13-Jan-89 10:22		SUPPLEMENTARY ADDER TESTS - O + FLT 0

 23837	043562	400 00 0 00 000000 		SETZ			;PRELOAD AC WITH 0
 23838	043563	270 00 0 00 070337 		ADD	[-1,,XX]	;ADD A FLOATING ZERO TO ZERO
 23839	043564	312 00 0 00 070337 		CAME	[-1,,XX]	;CHECK ADDER UPON FAILURE
 23840						STOP		^
 23841	043565	254 04 0 00 043566 		HALT	.+1		;TEST FAILED IF PROGRAM HALTS HERE
 23842	043566	324 00 0 00 043567 		JUMPA	.+1		;IF TEST FAILS, CHANGE THIS INSTRUCTION (JUMPA .+1) TO
 23843									;JUMPA X (X IS THE ADDRESS OF THE FIRST INSTRUCTION
 23844									;IN THE SUBTEST) TO LOOP ON ERROR^
 23845
 23846					;**********
 23847
 23848
 23849					;THIS TEST VERIFIES THAT THE RESULT OF A FLOATING ZERO ADDED TO A ZERO
 23850					;IS THE FLOATING ZERO.
 23851					;THIS TEST IS REPEATED 36 TIMES TO FLOAT A ZERO THRU ALL 36 BITS OF THE ADDER.
 23852					;THIS TEST IS DESIGNED TO TEST THE ADDER AND RELATED DATA PATHS ONLY.
 23853
 23854			045606		SN=SN+1
 23855			777737			XX=<XX+XX+1>&777777
 23856						IFE	<XX-1>,<XX=777776>
 23857	043567	400 00 0 00 000000 		SETZ			;PRELOAD AC WITH 0
 23858	043570	270 00 0 00 070340 		ADD	[-1,,XX]	;ADD A FLOATING ZERO TO ZERO
 23859	043571	312 00 0 00 070340 		CAME	[-1,,XX]	;CHECK ADDER UPON FAILURE
 23860						STOP		^
 23861	043572	254 04 0 00 043573 		HALT	.+1		;TEST FAILED IF PROGRAM HALTS HERE
 23862	043573	324 00 0 00 043574 		JUMPA	.+1		;IF TEST FAILS, CHANGE THIS INSTRUCTION (JUMPA .+1) TO
 23863									;JUMPA X (X IS THE ADDRESS OF THE FIRST INSTRUCTION
 23864									;IN THE SUBTEST) TO LOOP ON ERROR^
 23865
 23866					;**********
 23867
 23868
 23869					;THIS TEST VERIFIES THAT THE RESULT OF A FLOATING ZERO ADDED TO A ZERO
 23870					;IS THE FLOATING ZERO.
 23871					;THIS TEST IS REPEATED 36 TIMES TO FLOAT A ZERO THRU ALL 36 BITS OF THE ADDER.
 23872					;THIS TEST IS DESIGNED TO TEST THE ADDER AND RELATED DATA PATHS ONLY.
 23873
 23874			045607		SN=SN+1
 23875			777677			XX=<XX+XX+1>&777777
 23876						IFE	<XX-1>,<XX=777776>
 23877	043574	400 00 0 00 000000 		SETZ			;PRELOAD AC WITH 0
 23878	043575	270 00 0 00 070341 		ADD	[-1,,XX]	;ADD A FLOATING ZERO TO ZERO
 23879	043576	312 00 0 00 070341 		CAME	[-1,,XX]	;CHECK ADDER UPON FAILURE
 23880						STOP		^
 23881	043577	254 04 0 00 043600 		HALT	.+1		;TEST FAILED IF PROGRAM HALTS HERE
 23882	043600	324 00 0 00 043601 		JUMPA	.+1		;IF TEST FAILS, CHANGE THIS INSTRUCTION (JUMPA .+1) TO
 23883									;JUMPA X (X IS THE ADDRESS OF THE FIRST INSTRUCTION
 23884									;IN THE SUBTEST) TO LOOP ON ERROR^
 23885
 23886					;**********
 23887
 23888
 23889					;THIS TEST VERIFIES THAT THE RESULT OF A FLOATING ZERO ADDED TO A ZERO
 23890					;IS THE FLOATING ZERO.
 23891					;THIS TEST IS REPEATED 36 TIMES TO FLOAT A ZERO THRU ALL 36 BITS OF THE ADDER.
DFKAA PDP-10 KL10 BASIC INSTRUCTION DIAGNOSTIC (1) VER 0,2	MACRO %53B(1254)-4 11:50 11-Nov-24 Page 87-3
DFKAA3	MAC	13-Jan-89 10:22		SUPPLEMENTARY ADDER TESTS - O + FLT 0

 23892					;THIS TEST IS DESIGNED TO TEST THE ADDER AND RELATED DATA PATHS ONLY.
 23893
 23894			045610		SN=SN+1
 23895			777577			XX=<XX+XX+1>&777777
 23896						IFE	<XX-1>,<XX=777776>
 23897	043601	400 00 0 00 000000 		SETZ			;PRELOAD AC WITH 0
 23898	043602	270 00 0 00 070342 		ADD	[-1,,XX]	;ADD A FLOATING ZERO TO ZERO
 23899	043603	312 00 0 00 070342 		CAME	[-1,,XX]	;CHECK ADDER UPON FAILURE
 23900						STOP		^
 23901	043604	254 04 0 00 043605 		HALT	.+1		;TEST FAILED IF PROGRAM HALTS HERE
 23902	043605	324 00 0 00 043606 		JUMPA	.+1		;IF TEST FAILS, CHANGE THIS INSTRUCTION (JUMPA .+1) TO
 23903									;JUMPA X (X IS THE ADDRESS OF THE FIRST INSTRUCTION
 23904									;IN THE SUBTEST) TO LOOP ON ERROR^
 23905
 23906					;**********
 23907
 23908
 23909					;THIS TEST VERIFIES THAT THE RESULT OF A FLOATING ZERO ADDED TO A ZERO
 23910					;IS THE FLOATING ZERO.
 23911					;THIS TEST IS REPEATED 36 TIMES TO FLOAT A ZERO THRU ALL 36 BITS OF THE ADDER.
 23912					;THIS TEST IS DESIGNED TO TEST THE ADDER AND RELATED DATA PATHS ONLY.
 23913
 23914			045611		SN=SN+1
 23915			777377			XX=<XX+XX+1>&777777
 23916						IFE	<XX-1>,<XX=777776>
 23917	043606	400 00 0 00 000000 		SETZ			;PRELOAD AC WITH 0
 23918	043607	270 00 0 00 070343 		ADD	[-1,,XX]	;ADD A FLOATING ZERO TO ZERO
 23919	043610	312 00 0 00 070343 		CAME	[-1,,XX]	;CHECK ADDER UPON FAILURE
 23920						STOP		^
 23921	043611	254 04 0 00 043612 		HALT	.+1		;TEST FAILED IF PROGRAM HALTS HERE
 23922	043612	324 00 0 00 043613 		JUMPA	.+1		;IF TEST FAILS, CHANGE THIS INSTRUCTION (JUMPA .+1) TO
 23923									;JUMPA X (X IS THE ADDRESS OF THE FIRST INSTRUCTION
 23924									;IN THE SUBTEST) TO LOOP ON ERROR^
 23925
 23926					;**********
 23927
 23928
 23929					;THIS TEST VERIFIES THAT THE RESULT OF A FLOATING ZERO ADDED TO A ZERO
 23930					;IS THE FLOATING ZERO.
 23931					;THIS TEST IS REPEATED 36 TIMES TO FLOAT A ZERO THRU ALL 36 BITS OF THE ADDER.
 23932					;THIS TEST IS DESIGNED TO TEST THE ADDER AND RELATED DATA PATHS ONLY.
 23933
 23934			045612		SN=SN+1
 23935			776777			XX=<XX+XX+1>&777777
 23936						IFE	<XX-1>,<XX=777776>
 23937	043613	400 00 0 00 000000 		SETZ			;PRELOAD AC WITH 0
 23938	043614	270 00 0 00 070344 		ADD	[-1,,XX]	;ADD A FLOATING ZERO TO ZERO
 23939	043615	312 00 0 00 070344 		CAME	[-1,,XX]	;CHECK ADDER UPON FAILURE
 23940						STOP		^
 23941	043616	254 04 0 00 043617 		HALT	.+1		;TEST FAILED IF PROGRAM HALTS HERE
 23942	043617	324 00 0 00 043620 		JUMPA	.+1		;IF TEST FAILS, CHANGE THIS INSTRUCTION (JUMPA .+1) TO
 23943									;JUMPA X (X IS THE ADDRESS OF THE FIRST INSTRUCTION
 23944									;IN THE SUBTEST) TO LOOP ON ERROR^
 23945
 23946					;**********
DFKAA PDP-10 KL10 BASIC INSTRUCTION DIAGNOSTIC (1) VER 0,2	MACRO %53B(1254)-4 11:50 11-Nov-24 Page 87-4
DFKAA3	MAC	13-Jan-89 10:22		SUPPLEMENTARY ADDER TESTS - O + FLT 0

 23947
 23948
 23949					;THIS TEST VERIFIES THAT THE RESULT OF A FLOATING ZERO ADDED TO A ZERO
 23950					;IS THE FLOATING ZERO.
 23951					;THIS TEST IS REPEATED 36 TIMES TO FLOAT A ZERO THRU ALL 36 BITS OF THE ADDER.
 23952					;THIS TEST IS DESIGNED TO TEST THE ADDER AND RELATED DATA PATHS ONLY.
 23953
 23954			045613		SN=SN+1
 23955			775777			XX=<XX+XX+1>&777777
 23956						IFE	<XX-1>,<XX=777776>
 23957	043620	400 00 0 00 000000 		SETZ			;PRELOAD AC WITH 0
 23958	043621	270 00 0 00 070345 		ADD	[-1,,XX]	;ADD A FLOATING ZERO TO ZERO
 23959	043622	312 00 0 00 070345 		CAME	[-1,,XX]	;CHECK ADDER UPON FAILURE
 23960						STOP		^
 23961	043623	254 04 0 00 043624 		HALT	.+1		;TEST FAILED IF PROGRAM HALTS HERE
 23962	043624	324 00 0 00 043625 		JUMPA	.+1		;IF TEST FAILS, CHANGE THIS INSTRUCTION (JUMPA .+1) TO
 23963									;JUMPA X (X IS THE ADDRESS OF THE FIRST INSTRUCTION
 23964									;IN THE SUBTEST) TO LOOP ON ERROR^
 23965
 23966					;**********
 23967
 23968
 23969					;THIS TEST VERIFIES THAT THE RESULT OF A FLOATING ZERO ADDED TO A ZERO
 23970					;IS THE FLOATING ZERO.
 23971					;THIS TEST IS REPEATED 36 TIMES TO FLOAT A ZERO THRU ALL 36 BITS OF THE ADDER.
 23972					;THIS TEST IS DESIGNED TO TEST THE ADDER AND RELATED DATA PATHS ONLY.
 23973
 23974			045614		SN=SN+1
 23975			773777			XX=<XX+XX+1>&777777
 23976						IFE	<XX-1>,<XX=777776>
 23977	043625	400 00 0 00 000000 		SETZ			;PRELOAD AC WITH 0
 23978	043626	270 00 0 00 070346 		ADD	[-1,,XX]	;ADD A FLOATING ZERO TO ZERO
 23979	043627	312 00 0 00 070346 		CAME	[-1,,XX]	;CHECK ADDER UPON FAILURE
 23980						STOP		^
 23981	043630	254 04 0 00 043631 		HALT	.+1		;TEST FAILED IF PROGRAM HALTS HERE
 23982	043631	324 00 0 00 043632 		JUMPA	.+1		;IF TEST FAILS, CHANGE THIS INSTRUCTION (JUMPA .+1) TO
 23983									;JUMPA X (X IS THE ADDRESS OF THE FIRST INSTRUCTION
 23984									;IN THE SUBTEST) TO LOOP ON ERROR^
 23985
 23986					;**********
 23987
 23988
 23989					;THIS TEST VERIFIES THAT THE RESULT OF A FLOATING ZERO ADDED TO A ZERO
 23990					;IS THE FLOATING ZERO.
 23991					;THIS TEST IS REPEATED 36 TIMES TO FLOAT A ZERO THRU ALL 36 BITS OF THE ADDER.
 23992					;THIS TEST IS DESIGNED TO TEST THE ADDER AND RELATED DATA PATHS ONLY.
 23993
 23994			045615		SN=SN+1
 23995			767777			XX=<XX+XX+1>&777777
 23996						IFE	<XX-1>,<XX=777776>
 23997	043632	400 00 0 00 000000 		SETZ			;PRELOAD AC WITH 0
 23998	043633	270 00 0 00 070347 		ADD	[-1,,XX]	;ADD A FLOATING ZERO TO ZERO
 23999	043634	312 00 0 00 070347 		CAME	[-1,,XX]	;CHECK ADDER UPON FAILURE
 24000						STOP		^
 24001	043635	254 04 0 00 043636 		HALT	.+1		;TEST FAILED IF PROGRAM HALTS HERE
DFKAA PDP-10 KL10 BASIC INSTRUCTION DIAGNOSTIC (1) VER 0,2	MACRO %53B(1254)-4 11:50 11-Nov-24 Page 87-5
DFKAA3	MAC	13-Jan-89 10:22		SUPPLEMENTARY ADDER TESTS - O + FLT 0

 24002	043636	324 00 0 00 043637 		JUMPA	.+1		;IF TEST FAILS, CHANGE THIS INSTRUCTION (JUMPA .+1) TO
 24003									;JUMPA X (X IS THE ADDRESS OF THE FIRST INSTRUCTION
 24004									;IN THE SUBTEST) TO LOOP ON ERROR^
 24005
 24006					;**********
 24007
 24008
 24009					;THIS TEST VERIFIES THAT THE RESULT OF A FLOATING ZERO ADDED TO A ZERO
 24010					;IS THE FLOATING ZERO.
 24011					;THIS TEST IS REPEATED 36 TIMES TO FLOAT A ZERO THRU ALL 36 BITS OF THE ADDER.
 24012					;THIS TEST IS DESIGNED TO TEST THE ADDER AND RELATED DATA PATHS ONLY.
 24013
 24014			045616		SN=SN+1
 24015			757777			XX=<XX+XX+1>&777777
 24016						IFE	<XX-1>,<XX=777776>
 24017	043637	400 00 0 00 000000 		SETZ			;PRELOAD AC WITH 0
 24018	043640	270 00 0 00 070350 		ADD	[-1,,XX]	;ADD A FLOATING ZERO TO ZERO
 24019	043641	312 00 0 00 070350 		CAME	[-1,,XX]	;CHECK ADDER UPON FAILURE
 24020						STOP		^
 24021	043642	254 04 0 00 043643 		HALT	.+1		;TEST FAILED IF PROGRAM HALTS HERE
 24022	043643	324 00 0 00 043644 		JUMPA	.+1		;IF TEST FAILS, CHANGE THIS INSTRUCTION (JUMPA .+1) TO
 24023									;JUMPA X (X IS THE ADDRESS OF THE FIRST INSTRUCTION
 24024									;IN THE SUBTEST) TO LOOP ON ERROR^
 24025
 24026					;**********
 24027
 24028
 24029					;THIS TEST VERIFIES THAT THE RESULT OF A FLOATING ZERO ADDED TO A ZERO
 24030					;IS THE FLOATING ZERO.
 24031					;THIS TEST IS REPEATED 36 TIMES TO FLOAT A ZERO THRU ALL 36 BITS OF THE ADDER.
 24032					;THIS TEST IS DESIGNED TO TEST THE ADDER AND RELATED DATA PATHS ONLY.
 24033
 24034			045617		SN=SN+1
 24035			737777			XX=<XX+XX+1>&777777
 24036						IFE	<XX-1>,<XX=777776>
 24037	043644	400 00 0 00 000000 		SETZ			;PRELOAD AC WITH 0
 24038	043645	270 00 0 00 070351 		ADD	[-1,,XX]	;ADD A FLOATING ZERO TO ZERO
 24039	043646	312 00 0 00 070351 		CAME	[-1,,XX]	;CHECK ADDER UPON FAILURE
 24040						STOP		^
 24041	043647	254 04 0 00 043650 		HALT	.+1		;TEST FAILED IF PROGRAM HALTS HERE
 24042	043650	324 00 0 00 043651 		JUMPA	.+1		;IF TEST FAILS, CHANGE THIS INSTRUCTION (JUMPA .+1) TO
 24043									;JUMPA X (X IS THE ADDRESS OF THE FIRST INSTRUCTION
 24044									;IN THE SUBTEST) TO LOOP ON ERROR^
 24045
 24046					;**********
 24047
 24048
 24049					;THIS TEST VERIFIES THAT THE RESULT OF A FLOATING ZERO ADDED TO A ZERO
 24050					;IS THE FLOATING ZERO.
 24051					;THIS TEST IS REPEATED 36 TIMES TO FLOAT A ZERO THRU ALL 36 BITS OF THE ADDER.
 24052					;THIS TEST IS DESIGNED TO TEST THE ADDER AND RELATED DATA PATHS ONLY.
 24053
 24054			045620		SN=SN+1
 24055			677777			XX=<XX+XX+1>&777777
 24056						IFE	<XX-1>,<XX=777776>
DFKAA PDP-10 KL10 BASIC INSTRUCTION DIAGNOSTIC (1) VER 0,2	MACRO %53B(1254)-4 11:50 11-Nov-24 Page 87-6
DFKAA3	MAC	13-Jan-89 10:22		SUPPLEMENTARY ADDER TESTS - O + FLT 0

 24057	043651	400 00 0 00 000000 		SETZ			;PRELOAD AC WITH 0
 24058	043652	270 00 0 00 070352 		ADD	[-1,,XX]	;ADD A FLOATING ZERO TO ZERO
 24059	043653	312 00 0 00 070352 		CAME	[-1,,XX]	;CHECK ADDER UPON FAILURE
 24060						STOP		^
 24061	043654	254 04 0 00 043655 		HALT	.+1		;TEST FAILED IF PROGRAM HALTS HERE
 24062	043655	324 00 0 00 043656 		JUMPA	.+1		;IF TEST FAILS, CHANGE THIS INSTRUCTION (JUMPA .+1) TO
 24063									;JUMPA X (X IS THE ADDRESS OF THE FIRST INSTRUCTION
 24064									;IN THE SUBTEST) TO LOOP ON ERROR^
 24065
 24066					;**********
 24067
 24068
 24069					;THIS TEST VERIFIES THAT THE RESULT OF A FLOATING ZERO ADDED TO A ZERO
 24070					;IS THE FLOATING ZERO.
 24071					;THIS TEST IS REPEATED 36 TIMES TO FLOAT A ZERO THRU ALL 36 BITS OF THE ADDER.
 24072					;THIS TEST IS DESIGNED TO TEST THE ADDER AND RELATED DATA PATHS ONLY.
 24073
 24074			045621		SN=SN+1
 24075			577777			XX=<XX+XX+1>&777777
 24076						IFE	<XX-1>,<XX=777776>
 24077	043656	400 00 0 00 000000 		SETZ			;PRELOAD AC WITH 0
 24078	043657	270 00 0 00 070353 		ADD	[-1,,XX]	;ADD A FLOATING ZERO TO ZERO
 24079	043660	312 00 0 00 070353 		CAME	[-1,,XX]	;CHECK ADDER UPON FAILURE
 24080						STOP		^
 24081	043661	254 04 0 00 043662 		HALT	.+1		;TEST FAILED IF PROGRAM HALTS HERE
 24082	043662	324 00 0 00 043663 		JUMPA	.+1		;IF TEST FAILS, CHANGE THIS INSTRUCTION (JUMPA .+1) TO
 24083									;JUMPA X (X IS THE ADDRESS OF THE FIRST INSTRUCTION
 24084									;IN THE SUBTEST) TO LOOP ON ERROR^
 24085
 24086					;**********
 24087
 24088
 24089					;THIS TEST VERIFIES THAT THE RESULT OF A FLOATING ZERO ADDED TO A ZERO
 24090					;IS THE FLOATING ZERO.
 24091					;THIS TEST IS REPEATED 36 TIMES TO FLOAT A ZERO THRU ALL 36 BITS OF THE ADDER.
 24092					;THIS TEST IS DESIGNED TO TEST THE ADDER AND RELATED DATA PATHS ONLY.
 24093
 24094			045622		SN=SN+1
 24095			377777			XX=<XX+XX+1>&777777
 24096						IFE	<XX-1>,<XX=777776>
 24097	043663	400 00 0 00 000000 		SETZ			;PRELOAD AC WITH 0
 24098	043664	270 00 0 00 070354 		ADD	[-1,,XX]	;ADD A FLOATING ZERO TO ZERO
 24099	043665	312 00 0 00 070354 		CAME	[-1,,XX]	;CHECK ADDER UPON FAILURE
 24100						STOP		^
 24101	043666	254 04 0 00 043667 		HALT	.+1		;TEST FAILED IF PROGRAM HALTS HERE
 24102	043667	324 00 0 00 043670 		JUMPA	.+1		;IF TEST FAILS, CHANGE THIS INSTRUCTION (JUMPA .+1) TO
 24103									;JUMPA X (X IS THE ADDRESS OF THE FIRST INSTRUCTION
 24104									;IN THE SUBTEST) TO LOOP ON ERROR^
 24105
 24106					;**********
 24107
 24108					PAGE
DFKAA PDP-10 KL10 BASIC INSTRUCTION DIAGNOSTIC (1) VER 0,2	MACRO %53B(1254)-4 11:50 11-Nov-24 Page 87-7
DFKAA3	MAC	13-Jan-89 10:22		SUPPLEMENTARY ADDER TESTS - O + FLT 0

 24109			000000			XX=0
 24110
 24111						REPEAT	^D18,<
 24112					;THIS TEST VERIFIES THAT THE RESULT OF A FLOATING ZERO ADDED TO A ZERO
 24113					;IS THE FLOATING ZERO.
 24114					;THIS TEST IS REPEATED 36 TIMES TO FLOAT A ONE THRU ALL 36 BITS OF THE ADDER.
 24115					;THIS TEST IS DESIGNED TO TEST THE ADDER AND RELATED DATA PATHS ONLY.
 24116
 24117					SN=SN+1
 24118						XX=<XX+XX+1>&777777
 24119						IFE	<XX-1>,<XX=777776>
 24120						SETZ			;PRELOAD AC WITH 0
 24121						ADD	[XX,,-1]	;ADD A FLOATING ZERO TO ZERO
 24122						CAME	[XX,,-1]	;CHECK ADDER UPON FAILURE
 24123						STOP
 24124
 24125					;**********
 24126					>
 24127
 24128					;THIS TEST VERIFIES THAT THE RESULT OF A FLOATING ZERO ADDED TO A ZERO
 24129					;IS THE FLOATING ZERO.
 24130					;THIS TEST IS REPEATED 36 TIMES TO FLOAT A ONE THRU ALL 36 BITS OF THE ADDER.
 24131					;THIS TEST IS DESIGNED TO TEST THE ADDER AND RELATED DATA PATHS ONLY.
 24132
 24133			045623		SN=SN+1
 24134			000001			XX=<XX+XX+1>&777777
 24135			777776			IFE	<XX-1>,<XX=777776>
 24136	043670	400 00 0 00 000000 		SETZ			;PRELOAD AC WITH 0
 24137	043671	270 00 0 00 070355 		ADD	[XX,,-1]	;ADD A FLOATING ZERO TO ZERO
 24138	043672	312 00 0 00 070355 		CAME	[XX,,-1]	;CHECK ADDER UPON FAILURE
 24139						STOP		^
 24140	043673	254 04 0 00 043674 		HALT	.+1		;TEST FAILED IF PROGRAM HALTS HERE
 24141	043674	324 00 0 00 043675 		JUMPA	.+1		;IF TEST FAILS, CHANGE THIS INSTRUCTION (JUMPA .+1) TO
 24142									;JUMPA X (X IS THE ADDRESS OF THE FIRST INSTRUCTION
 24143									;IN THE SUBTEST) TO LOOP ON ERROR^
 24144
 24145					;**********
 24146
 24147
 24148					;THIS TEST VERIFIES THAT THE RESULT OF A FLOATING ZERO ADDED TO A ZERO
 24149					;IS THE FLOATING ZERO.
 24150					;THIS TEST IS REPEATED 36 TIMES TO FLOAT A ONE THRU ALL 36 BITS OF THE ADDER.
 24151					;THIS TEST IS DESIGNED TO TEST THE ADDER AND RELATED DATA PATHS ONLY.
 24152
 24153			045624		SN=SN+1
 24154			777775			XX=<XX+XX+1>&777777
 24155						IFE	<XX-1>,<XX=777776>
 24156	043675	400 00 0 00 000000 		SETZ			;PRELOAD AC WITH 0
 24157	043676	270 00 0 00 070356 		ADD	[XX,,-1]	;ADD A FLOATING ZERO TO ZERO
 24158	043677	312 00 0 00 070356 		CAME	[XX,,-1]	;CHECK ADDER UPON FAILURE
 24159						STOP		^
 24160	043700	254 04 0 00 043701 		HALT	.+1		;TEST FAILED IF PROGRAM HALTS HERE
 24161	043701	324 00 0 00 043702 		JUMPA	.+1		;IF TEST FAILS, CHANGE THIS INSTRUCTION (JUMPA .+1) TO
 24162									;JUMPA X (X IS THE ADDRESS OF THE FIRST INSTRUCTION
 24163									;IN THE SUBTEST) TO LOOP ON ERROR^
DFKAA PDP-10 KL10 BASIC INSTRUCTION DIAGNOSTIC (1) VER 0,2	MACRO %53B(1254)-4 11:50 11-Nov-24 Page 87-8
DFKAA3	MAC	13-Jan-89 10:22		SUPPLEMENTARY ADDER TESTS - O + FLT 0

 24164
 24165					;**********
 24166
 24167
 24168					;THIS TEST VERIFIES THAT THE RESULT OF A FLOATING ZERO ADDED TO A ZERO
 24169					;IS THE FLOATING ZERO.
 24170					;THIS TEST IS REPEATED 36 TIMES TO FLOAT A ONE THRU ALL 36 BITS OF THE ADDER.
 24171					;THIS TEST IS DESIGNED TO TEST THE ADDER AND RELATED DATA PATHS ONLY.
 24172
 24173			045625		SN=SN+1
 24174			777773			XX=<XX+XX+1>&777777
 24175						IFE	<XX-1>,<XX=777776>
 24176	043702	400 00 0 00 000000 		SETZ			;PRELOAD AC WITH 0
 24177	043703	270 00 0 00 070357 		ADD	[XX,,-1]	;ADD A FLOATING ZERO TO ZERO
 24178	043704	312 00 0 00 070357 		CAME	[XX,,-1]	;CHECK ADDER UPON FAILURE
 24179						STOP		^
 24180	043705	254 04 0 00 043706 		HALT	.+1		;TEST FAILED IF PROGRAM HALTS HERE
 24181	043706	324 00 0 00 043707 		JUMPA	.+1		;IF TEST FAILS, CHANGE THIS INSTRUCTION (JUMPA .+1) TO
 24182									;JUMPA X (X IS THE ADDRESS OF THE FIRST INSTRUCTION
 24183									;IN THE SUBTEST) TO LOOP ON ERROR^
 24184
 24185					;**********
 24186
 24187
 24188					;THIS TEST VERIFIES THAT THE RESULT OF A FLOATING ZERO ADDED TO A ZERO
 24189					;IS THE FLOATING ZERO.
 24190					;THIS TEST IS REPEATED 36 TIMES TO FLOAT A ONE THRU ALL 36 BITS OF THE ADDER.
 24191					;THIS TEST IS DESIGNED TO TEST THE ADDER AND RELATED DATA PATHS ONLY.
 24192
 24193			045626		SN=SN+1
 24194			777767			XX=<XX+XX+1>&777777
 24195						IFE	<XX-1>,<XX=777776>
 24196	043707	400 00 0 00 000000 		SETZ			;PRELOAD AC WITH 0
 24197	043710	270 00 0 00 070360 		ADD	[XX,,-1]	;ADD A FLOATING ZERO TO ZERO
 24198	043711	312 00 0 00 070360 		CAME	[XX,,-1]	;CHECK ADDER UPON FAILURE
 24199						STOP		^
 24200	043712	254 04 0 00 043713 		HALT	.+1		;TEST FAILED IF PROGRAM HALTS HERE
 24201	043713	324 00 0 00 043714 		JUMPA	.+1		;IF TEST FAILS, CHANGE THIS INSTRUCTION (JUMPA .+1) TO
 24202									;JUMPA X (X IS THE ADDRESS OF THE FIRST INSTRUCTION
 24203									;IN THE SUBTEST) TO LOOP ON ERROR^
 24204
 24205					;**********
 24206
 24207
 24208					;THIS TEST VERIFIES THAT THE RESULT OF A FLOATING ZERO ADDED TO A ZERO
 24209					;IS THE FLOATING ZERO.
 24210					;THIS TEST IS REPEATED 36 TIMES TO FLOAT A ONE THRU ALL 36 BITS OF THE ADDER.
 24211					;THIS TEST IS DESIGNED TO TEST THE ADDER AND RELATED DATA PATHS ONLY.
 24212
 24213			045627		SN=SN+1
 24214			777757			XX=<XX+XX+1>&777777
 24215						IFE	<XX-1>,<XX=777776>
 24216	043714	400 00 0 00 000000 		SETZ			;PRELOAD AC WITH 0
 24217	043715	270 00 0 00 070361 		ADD	[XX,,-1]	;ADD A FLOATING ZERO TO ZERO
 24218	043716	312 00 0 00 070361 		CAME	[XX,,-1]	;CHECK ADDER UPON FAILURE
DFKAA PDP-10 KL10 BASIC INSTRUCTION DIAGNOSTIC (1) VER 0,2	MACRO %53B(1254)-4 11:50 11-Nov-24 Page 87-9
DFKAA3	MAC	13-Jan-89 10:22		SUPPLEMENTARY ADDER TESTS - O + FLT 0

 24219						STOP		^
 24220	043717	254 04 0 00 043720 		HALT	.+1		;TEST FAILED IF PROGRAM HALTS HERE
 24221	043720	324 00 0 00 043721 		JUMPA	.+1		;IF TEST FAILS, CHANGE THIS INSTRUCTION (JUMPA .+1) TO
 24222									;JUMPA X (X IS THE ADDRESS OF THE FIRST INSTRUCTION
 24223									;IN THE SUBTEST) TO LOOP ON ERROR^
 24224
 24225					;**********
 24226
 24227
 24228					;THIS TEST VERIFIES THAT THE RESULT OF A FLOATING ZERO ADDED TO A ZERO
 24229					;IS THE FLOATING ZERO.
 24230					;THIS TEST IS REPEATED 36 TIMES TO FLOAT A ONE THRU ALL 36 BITS OF THE ADDER.
 24231					;THIS TEST IS DESIGNED TO TEST THE ADDER AND RELATED DATA PATHS ONLY.
 24232
 24233			045630		SN=SN+1
 24234			777737			XX=<XX+XX+1>&777777
 24235						IFE	<XX-1>,<XX=777776>
 24236	043721	400 00 0 00 000000 		SETZ			;PRELOAD AC WITH 0
 24237	043722	270 00 0 00 070362 		ADD	[XX,,-1]	;ADD A FLOATING ZERO TO ZERO
 24238	043723	312 00 0 00 070362 		CAME	[XX,,-1]	;CHECK ADDER UPON FAILURE
 24239						STOP		^
 24240	043724	254 04 0 00 043725 		HALT	.+1		;TEST FAILED IF PROGRAM HALTS HERE
 24241	043725	324 00 0 00 043726 		JUMPA	.+1		;IF TEST FAILS, CHANGE THIS INSTRUCTION (JUMPA .+1) TO
 24242									;JUMPA X (X IS THE ADDRESS OF THE FIRST INSTRUCTION
 24243									;IN THE SUBTEST) TO LOOP ON ERROR^
 24244
 24245					;**********
 24246
 24247
 24248					;THIS TEST VERIFIES THAT THE RESULT OF A FLOATING ZERO ADDED TO A ZERO
 24249					;IS THE FLOATING ZERO.
 24250					;THIS TEST IS REPEATED 36 TIMES TO FLOAT A ONE THRU ALL 36 BITS OF THE ADDER.
 24251					;THIS TEST IS DESIGNED TO TEST THE ADDER AND RELATED DATA PATHS ONLY.
 24252
 24253			045631		SN=SN+1
 24254			777677			XX=<XX+XX+1>&777777
 24255						IFE	<XX-1>,<XX=777776>
 24256	043726	400 00 0 00 000000 		SETZ			;PRELOAD AC WITH 0
 24257	043727	270 00 0 00 070363 		ADD	[XX,,-1]	;ADD A FLOATING ZERO TO ZERO
 24258	043730	312 00 0 00 070363 		CAME	[XX,,-1]	;CHECK ADDER UPON FAILURE
 24259						STOP		^
 24260	043731	254 04 0 00 043732 		HALT	.+1		;TEST FAILED IF PROGRAM HALTS HERE
 24261	043732	324 00 0 00 043733 		JUMPA	.+1		;IF TEST FAILS, CHANGE THIS INSTRUCTION (JUMPA .+1) TO
 24262									;JUMPA X (X IS THE ADDRESS OF THE FIRST INSTRUCTION
 24263									;IN THE SUBTEST) TO LOOP ON ERROR^
 24264
 24265					;**********
 24266
 24267
 24268					;THIS TEST VERIFIES THAT THE RESULT OF A FLOATING ZERO ADDED TO A ZERO
 24269					;IS THE FLOATING ZERO.
 24270					;THIS TEST IS REPEATED 36 TIMES TO FLOAT A ONE THRU ALL 36 BITS OF THE ADDER.
 24271					;THIS TEST IS DESIGNED TO TEST THE ADDER AND RELATED DATA PATHS ONLY.
 24272
 24273			045632		SN=SN+1
DFKAA PDP-10 KL10 BASIC INSTRUCTION DIAGNOSTIC (1) VER 0,2	MACRO %53B(1254)-4 11:50 11-Nov-24 Page 87-10
DFKAA3	MAC	13-Jan-89 10:22		SUPPLEMENTARY ADDER TESTS - O + FLT 0

 24274			777577			XX=<XX+XX+1>&777777
 24275						IFE	<XX-1>,<XX=777776>
 24276	043733	400 00 0 00 000000 		SETZ			;PRELOAD AC WITH 0
 24277	043734	270 00 0 00 070364 		ADD	[XX,,-1]	;ADD A FLOATING ZERO TO ZERO
 24278	043735	312 00 0 00 070364 		CAME	[XX,,-1]	;CHECK ADDER UPON FAILURE
 24279						STOP		^
 24280	043736	254 04 0 00 043737 		HALT	.+1		;TEST FAILED IF PROGRAM HALTS HERE
 24281	043737	324 00 0 00 043740 		JUMPA	.+1		;IF TEST FAILS, CHANGE THIS INSTRUCTION (JUMPA .+1) TO
 24282									;JUMPA X (X IS THE ADDRESS OF THE FIRST INSTRUCTION
 24283									;IN THE SUBTEST) TO LOOP ON ERROR^
 24284
 24285					;**********
 24286
 24287
 24288					;THIS TEST VERIFIES THAT THE RESULT OF A FLOATING ZERO ADDED TO A ZERO
 24289					;IS THE FLOATING ZERO.
 24290					;THIS TEST IS REPEATED 36 TIMES TO FLOAT A ONE THRU ALL 36 BITS OF THE ADDER.
 24291					;THIS TEST IS DESIGNED TO TEST THE ADDER AND RELATED DATA PATHS ONLY.
 24292
 24293			045633		SN=SN+1
 24294			777377			XX=<XX+XX+1>&777777
 24295						IFE	<XX-1>,<XX=777776>
 24296	043740	400 00 0 00 000000 		SETZ			;PRELOAD AC WITH 0
 24297	043741	270 00 0 00 070365 		ADD	[XX,,-1]	;ADD A FLOATING ZERO TO ZERO
 24298	043742	312 00 0 00 070365 		CAME	[XX,,-1]	;CHECK ADDER UPON FAILURE
 24299						STOP		^
 24300	043743	254 04 0 00 043744 		HALT	.+1		;TEST FAILED IF PROGRAM HALTS HERE
 24301	043744	324 00 0 00 043745 		JUMPA	.+1		;IF TEST FAILS, CHANGE THIS INSTRUCTION (JUMPA .+1) TO
 24302									;JUMPA X (X IS THE ADDRESS OF THE FIRST INSTRUCTION
 24303									;IN THE SUBTEST) TO LOOP ON ERROR^
 24304
 24305					;**********
 24306
 24307
 24308					;THIS TEST VERIFIES THAT THE RESULT OF A FLOATING ZERO ADDED TO A ZERO
 24309					;IS THE FLOATING ZERO.
 24310					;THIS TEST IS REPEATED 36 TIMES TO FLOAT A ONE THRU ALL 36 BITS OF THE ADDER.
 24311					;THIS TEST IS DESIGNED TO TEST THE ADDER AND RELATED DATA PATHS ONLY.
 24312
 24313			045634		SN=SN+1
 24314			776777			XX=<XX+XX+1>&777777
 24315						IFE	<XX-1>,<XX=777776>
 24316	043745	400 00 0 00 000000 		SETZ			;PRELOAD AC WITH 0
 24317	043746	270 00 0 00 070366 		ADD	[XX,,-1]	;ADD A FLOATING ZERO TO ZERO
 24318	043747	312 00 0 00 070366 		CAME	[XX,,-1]	;CHECK ADDER UPON FAILURE
 24319						STOP		^
 24320	043750	254 04 0 00 043751 		HALT	.+1		;TEST FAILED IF PROGRAM HALTS HERE
 24321	043751	324 00 0 00 043752 		JUMPA	.+1		;IF TEST FAILS, CHANGE THIS INSTRUCTION (JUMPA .+1) TO
 24322									;JUMPA X (X IS THE ADDRESS OF THE FIRST INSTRUCTION
 24323									;IN THE SUBTEST) TO LOOP ON ERROR^
 24324
 24325					;**********
 24326
 24327
 24328					;THIS TEST VERIFIES THAT THE RESULT OF A FLOATING ZERO ADDED TO A ZERO
DFKAA PDP-10 KL10 BASIC INSTRUCTION DIAGNOSTIC (1) VER 0,2	MACRO %53B(1254)-4 11:50 11-Nov-24 Page 87-11
DFKAA3	MAC	13-Jan-89 10:22		SUPPLEMENTARY ADDER TESTS - O + FLT 0

 24329					;IS THE FLOATING ZERO.
 24330					;THIS TEST IS REPEATED 36 TIMES TO FLOAT A ONE THRU ALL 36 BITS OF THE ADDER.
 24331					;THIS TEST IS DESIGNED TO TEST THE ADDER AND RELATED DATA PATHS ONLY.
 24332
 24333			045635		SN=SN+1
 24334			775777			XX=<XX+XX+1>&777777
 24335						IFE	<XX-1>,<XX=777776>
 24336	043752	400 00 0 00 000000 		SETZ			;PRELOAD AC WITH 0
 24337	043753	270 00 0 00 070367 		ADD	[XX,,-1]	;ADD A FLOATING ZERO TO ZERO
 24338	043754	312 00 0 00 070367 		CAME	[XX,,-1]	;CHECK ADDER UPON FAILURE
 24339						STOP		^
 24340	043755	254 04 0 00 043756 		HALT	.+1		;TEST FAILED IF PROGRAM HALTS HERE
 24341	043756	324 00 0 00 043757 		JUMPA	.+1		;IF TEST FAILS, CHANGE THIS INSTRUCTION (JUMPA .+1) TO
 24342									;JUMPA X (X IS THE ADDRESS OF THE FIRST INSTRUCTION
 24343									;IN THE SUBTEST) TO LOOP ON ERROR^
 24344
 24345					;**********
 24346
 24347
 24348					;THIS TEST VERIFIES THAT THE RESULT OF A FLOATING ZERO ADDED TO A ZERO
 24349					;IS THE FLOATING ZERO.
 24350					;THIS TEST IS REPEATED 36 TIMES TO FLOAT A ONE THRU ALL 36 BITS OF THE ADDER.
 24351					;THIS TEST IS DESIGNED TO TEST THE ADDER AND RELATED DATA PATHS ONLY.
 24352
 24353			045636		SN=SN+1
 24354			773777			XX=<XX+XX+1>&777777
 24355						IFE	<XX-1>,<XX=777776>
 24356	043757	400 00 0 00 000000 		SETZ			;PRELOAD AC WITH 0
 24357	043760	270 00 0 00 070370 		ADD	[XX,,-1]	;ADD A FLOATING ZERO TO ZERO
 24358	043761	312 00 0 00 070370 		CAME	[XX,,-1]	;CHECK ADDER UPON FAILURE
 24359						STOP		^
 24360	043762	254 04 0 00 043763 		HALT	.+1		;TEST FAILED IF PROGRAM HALTS HERE
 24361	043763	324 00 0 00 043764 		JUMPA	.+1		;IF TEST FAILS, CHANGE THIS INSTRUCTION (JUMPA .+1) TO
 24362									;JUMPA X (X IS THE ADDRESS OF THE FIRST INSTRUCTION
 24363									;IN THE SUBTEST) TO LOOP ON ERROR^
 24364
 24365					;**********
 24366
 24367
 24368					;THIS TEST VERIFIES THAT THE RESULT OF A FLOATING ZERO ADDED TO A ZERO
 24369					;IS THE FLOATING ZERO.
 24370					;THIS TEST IS REPEATED 36 TIMES TO FLOAT A ONE THRU ALL 36 BITS OF THE ADDER.
 24371					;THIS TEST IS DESIGNED TO TEST THE ADDER AND RELATED DATA PATHS ONLY.
 24372
 24373			045637		SN=SN+1
 24374			767777			XX=<XX+XX+1>&777777
 24375						IFE	<XX-1>,<XX=777776>
 24376	043764	400 00 0 00 000000 		SETZ			;PRELOAD AC WITH 0
 24377	043765	270 00 0 00 070371 		ADD	[XX,,-1]	;ADD A FLOATING ZERO TO ZERO
 24378	043766	312 00 0 00 070371 		CAME	[XX,,-1]	;CHECK ADDER UPON FAILURE
 24379						STOP		^
 24380	043767	254 04 0 00 043770 		HALT	.+1		;TEST FAILED IF PROGRAM HALTS HERE
 24381	043770	324 00 0 00 043771 		JUMPA	.+1		;IF TEST FAILS, CHANGE THIS INSTRUCTION (JUMPA .+1) TO
 24382									;JUMPA X (X IS THE ADDRESS OF THE FIRST INSTRUCTION
 24383									;IN THE SUBTEST) TO LOOP ON ERROR^
DFKAA PDP-10 KL10 BASIC INSTRUCTION DIAGNOSTIC (1) VER 0,2	MACRO %53B(1254)-4 11:50 11-Nov-24 Page 87-12
DFKAA3	MAC	13-Jan-89 10:22		SUPPLEMENTARY ADDER TESTS - O + FLT 0

 24384
 24385					;**********
 24386
 24387
 24388					;THIS TEST VERIFIES THAT THE RESULT OF A FLOATING ZERO ADDED TO A ZERO
 24389					;IS THE FLOATING ZERO.
 24390					;THIS TEST IS REPEATED 36 TIMES TO FLOAT A ONE THRU ALL 36 BITS OF THE ADDER.
 24391					;THIS TEST IS DESIGNED TO TEST THE ADDER AND RELATED DATA PATHS ONLY.
 24392
 24393			045640		SN=SN+1
 24394			757777			XX=<XX+XX+1>&777777
 24395						IFE	<XX-1>,<XX=777776>
 24396	043771	400 00 0 00 000000 		SETZ			;PRELOAD AC WITH 0
 24397	043772	270 00 0 00 070372 		ADD	[XX,,-1]	;ADD A FLOATING ZERO TO ZERO
 24398	043773	312 00 0 00 070372 		CAME	[XX,,-1]	;CHECK ADDER UPON FAILURE
 24399						STOP		^
 24400	043774	254 04 0 00 043775 		HALT	.+1		;TEST FAILED IF PROGRAM HALTS HERE
 24401	043775	324 00 0 00 043776 		JUMPA	.+1		;IF TEST FAILS, CHANGE THIS INSTRUCTION (JUMPA .+1) TO
 24402									;JUMPA X (X IS THE ADDRESS OF THE FIRST INSTRUCTION
 24403									;IN THE SUBTEST) TO LOOP ON ERROR^
 24404
 24405					;**********
 24406
 24407
 24408					;THIS TEST VERIFIES THAT THE RESULT OF A FLOATING ZERO ADDED TO A ZERO
 24409					;IS THE FLOATING ZERO.
 24410					;THIS TEST IS REPEATED 36 TIMES TO FLOAT A ONE THRU ALL 36 BITS OF THE ADDER.
 24411					;THIS TEST IS DESIGNED TO TEST THE ADDER AND RELATED DATA PATHS ONLY.
 24412
 24413			045641		SN=SN+1
 24414			737777			XX=<XX+XX+1>&777777
 24415						IFE	<XX-1>,<XX=777776>
 24416	043776	400 00 0 00 000000 		SETZ			;PRELOAD AC WITH 0
 24417	043777	270 00 0 00 070373 		ADD	[XX,,-1]	;ADD A FLOATING ZERO TO ZERO
 24418	044000	312 00 0 00 070373 		CAME	[XX,,-1]	;CHECK ADDER UPON FAILURE
 24419						STOP		^
 24420	044001	254 04 0 00 044002 		HALT	.+1		;TEST FAILED IF PROGRAM HALTS HERE
 24421	044002	324 00 0 00 044003 		JUMPA	.+1		;IF TEST FAILS, CHANGE THIS INSTRUCTION (JUMPA .+1) TO
 24422									;JUMPA X (X IS THE ADDRESS OF THE FIRST INSTRUCTION
 24423									;IN THE SUBTEST) TO LOOP ON ERROR^
 24424
 24425					;**********
 24426
 24427
 24428					;THIS TEST VERIFIES THAT THE RESULT OF A FLOATING ZERO ADDED TO A ZERO
 24429					;IS THE FLOATING ZERO.
 24430					;THIS TEST IS REPEATED 36 TIMES TO FLOAT A ONE THRU ALL 36 BITS OF THE ADDER.
 24431					;THIS TEST IS DESIGNED TO TEST THE ADDER AND RELATED DATA PATHS ONLY.
 24432
 24433			045642		SN=SN+1
 24434			677777			XX=<XX+XX+1>&777777
 24435						IFE	<XX-1>,<XX=777776>
 24436	044003	400 00 0 00 000000 		SETZ			;PRELOAD AC WITH 0
 24437	044004	270 00 0 00 070374 		ADD	[XX,,-1]	;ADD A FLOATING ZERO TO ZERO
 24438	044005	312 00 0 00 070374 		CAME	[XX,,-1]	;CHECK ADDER UPON FAILURE
DFKAA PDP-10 KL10 BASIC INSTRUCTION DIAGNOSTIC (1) VER 0,2	MACRO %53B(1254)-4 11:50 11-Nov-24 Page 87-13
DFKAA3	MAC	13-Jan-89 10:22		SUPPLEMENTARY ADDER TESTS - O + FLT 0

 24439						STOP		^
 24440	044006	254 04 0 00 044007 		HALT	.+1		;TEST FAILED IF PROGRAM HALTS HERE
 24441	044007	324 00 0 00 044010 		JUMPA	.+1		;IF TEST FAILS, CHANGE THIS INSTRUCTION (JUMPA .+1) TO
 24442									;JUMPA X (X IS THE ADDRESS OF THE FIRST INSTRUCTION
 24443									;IN THE SUBTEST) TO LOOP ON ERROR^
 24444
 24445					;**********
 24446
 24447
 24448					;THIS TEST VERIFIES THAT THE RESULT OF A FLOATING ZERO ADDED TO A ZERO
 24449					;IS THE FLOATING ZERO.
 24450					;THIS TEST IS REPEATED 36 TIMES TO FLOAT A ONE THRU ALL 36 BITS OF THE ADDER.
 24451					;THIS TEST IS DESIGNED TO TEST THE ADDER AND RELATED DATA PATHS ONLY.
 24452
 24453			045643		SN=SN+1
 24454			577777			XX=<XX+XX+1>&777777
 24455						IFE	<XX-1>,<XX=777776>
 24456	044010	400 00 0 00 000000 		SETZ			;PRELOAD AC WITH 0
 24457	044011	270 00 0 00 070375 		ADD	[XX,,-1]	;ADD A FLOATING ZERO TO ZERO
 24458	044012	312 00 0 00 070375 		CAME	[XX,,-1]	;CHECK ADDER UPON FAILURE
 24459						STOP		^
 24460	044013	254 04 0 00 044014 		HALT	.+1		;TEST FAILED IF PROGRAM HALTS HERE
 24461	044014	324 00 0 00 044015 		JUMPA	.+1		;IF TEST FAILS, CHANGE THIS INSTRUCTION (JUMPA .+1) TO
 24462									;JUMPA X (X IS THE ADDRESS OF THE FIRST INSTRUCTION
 24463									;IN THE SUBTEST) TO LOOP ON ERROR^
 24464
 24465					;**********
 24466
 24467
 24468					;THIS TEST VERIFIES THAT THE RESULT OF A FLOATING ZERO ADDED TO A ZERO
 24469					;IS THE FLOATING ZERO.
 24470					;THIS TEST IS REPEATED 36 TIMES TO FLOAT A ONE THRU ALL 36 BITS OF THE ADDER.
 24471					;THIS TEST IS DESIGNED TO TEST THE ADDER AND RELATED DATA PATHS ONLY.
 24472
 24473			045644		SN=SN+1
 24474			377777			XX=<XX+XX+1>&777777
 24475						IFE	<XX-1>,<XX=777776>
 24476	044015	400 00 0 00 000000 		SETZ			;PRELOAD AC WITH 0
 24477	044016	270 00 0 00 070255 		ADD	[XX,,-1]	;ADD A FLOATING ZERO TO ZERO
 24478	044017	312 00 0 00 070255 		CAME	[XX,,-1]	;CHECK ADDER UPON FAILURE
 24479						STOP		^
 24480	044020	254 04 0 00 044021 		HALT	.+1		;TEST FAILED IF PROGRAM HALTS HERE
 24481	044021	324 00 0 00 044022 		JUMPA	.+1		;IF TEST FAILS, CHANGE THIS INSTRUCTION (JUMPA .+1) TO
 24482									;JUMPA X (X IS THE ADDRESS OF THE FIRST INSTRUCTION
 24483									;IN THE SUBTEST) TO LOOP ON ERROR^
 24484
 24485					;**********
 24486
DFKAA PDP-10 KL10 BASIC INSTRUCTION DIAGNOSTIC (1) VER 0,2	MACRO %53B(1254)-4 11:50 11-Nov-24 Page 88
DFKAA3	MAC	13-Jan-89 10:22		SUPPLEMENTARY ADDER TESTS - FLT 1 + FLT 1

 24487					SUBTTL	SUPPLEMENTARY ADDER TESTS - FLT 1 + FLT 1
 24488
 24489					;**********
 24490
 24491			045700		SN=45700
 24492			000000			XX=0
 24493
 24494					B45700:	REPEAT	^D17,<
 24495					;THIS TEST VERIFIES THAT THE RESULT OF A FLOATING ONE
 24496					;ADDED TO A FLOATING ONE IS A FLOATING ONE
 24497					;PLACED ONE BIT POSITION LEFT OF THE ORIGINAL FLOATING ONE.
 24498					;THIS TEST IS REPEATED 36 TIMES TO FLOAT A ONE THRU ALL 36 BITS OF THE ADDER.
 24499					;THIS TEST IS DESIGNED TO TEST THE ADDER AND RELATED DATA PATHS ONLY.
 24500
 24501					SN=SN+1
 24502						XX=XX+XX
 24503						IFE	XX,<XX=1>
 24504						HRRZI	XX		;PRELOAD AC WITH A FLOATING ONE
 24505						ADD	[XX]		;ADD A FLOATING ONE TO ITSELF
 24506						CAME	[XX+XX]		;CHECK ADDER UPON FAILURE
 24507						STOP
 24508
 24509					;**********
 24510					>
 24511
 24512					;THIS TEST VERIFIES THAT THE RESULT OF A FLOATING ONE
 24513					;ADDED TO A FLOATING ONE IS A FLOATING ONE
 24514					;PLACED ONE BIT POSITION LEFT OF THE ORIGINAL FLOATING ONE.
 24515					;THIS TEST IS REPEATED 36 TIMES TO FLOAT A ONE THRU ALL 36 BITS OF THE ADDER.
 24516					;THIS TEST IS DESIGNED TO TEST THE ADDER AND RELATED DATA PATHS ONLY.
 24517
 24518			045701		SN=SN+1
 24519			000000			XX=XX+XX
 24520			000001			IFE	XX,<XX=1>
 24521	044022	551 00 0 00 000001 		HRRZI	XX		;PRELOAD AC WITH A FLOATING ONE
 24522	044023	270 00 0 00 070265 		ADD	[XX]		;ADD A FLOATING ONE TO ITSELF
 24523	044024	312 00 0 00 070266 		CAME	[XX+XX]		;CHECK ADDER UPON FAILURE
 24524						STOP		^
 24525	044025	254 04 0 00 044026 		HALT	.+1		;TEST FAILED IF PROGRAM HALTS HERE
 24526	044026	324 00 0 00 044027 		JUMPA	.+1		;IF TEST FAILS, CHANGE THIS INSTRUCTION (JUMPA .+1) TO
 24527									;JUMPA X (X IS THE ADDRESS OF THE FIRST INSTRUCTION
 24528									;IN THE SUBTEST) TO LOOP ON ERROR^
 24529
 24530					;**********
 24531
 24532
 24533					;THIS TEST VERIFIES THAT THE RESULT OF A FLOATING ONE
 24534					;ADDED TO A FLOATING ONE IS A FLOATING ONE
 24535					;PLACED ONE BIT POSITION LEFT OF THE ORIGINAL FLOATING ONE.
 24536					;THIS TEST IS REPEATED 36 TIMES TO FLOAT A ONE THRU ALL 36 BITS OF THE ADDER.
 24537					;THIS TEST IS DESIGNED TO TEST THE ADDER AND RELATED DATA PATHS ONLY.
 24538
 24539			045702		SN=SN+1
 24540			000002			XX=XX+XX
 24541						IFE	XX,<XX=1>
DFKAA PDP-10 KL10 BASIC INSTRUCTION DIAGNOSTIC (1) VER 0,2	MACRO %53B(1254)-4 11:50 11-Nov-24 Page 88-1
DFKAA3	MAC	13-Jan-89 10:22		SUPPLEMENTARY ADDER TESTS - FLT 1 + FLT 1

 24542	044027	551 00 0 00 000002 		HRRZI	XX		;PRELOAD AC WITH A FLOATING ONE
 24543	044030	270 00 0 00 070266 		ADD	[XX]		;ADD A FLOATING ONE TO ITSELF
 24544	044031	312 00 0 00 070267 		CAME	[XX+XX]		;CHECK ADDER UPON FAILURE
 24545						STOP		^
 24546	044032	254 04 0 00 044033 		HALT	.+1		;TEST FAILED IF PROGRAM HALTS HERE
 24547	044033	324 00 0 00 044034 		JUMPA	.+1		;IF TEST FAILS, CHANGE THIS INSTRUCTION (JUMPA .+1) TO
 24548									;JUMPA X (X IS THE ADDRESS OF THE FIRST INSTRUCTION
 24549									;IN THE SUBTEST) TO LOOP ON ERROR^
 24550
 24551					;**********
 24552
 24553
 24554					;THIS TEST VERIFIES THAT THE RESULT OF A FLOATING ONE
 24555					;ADDED TO A FLOATING ONE IS A FLOATING ONE
 24556					;PLACED ONE BIT POSITION LEFT OF THE ORIGINAL FLOATING ONE.
 24557					;THIS TEST IS REPEATED 36 TIMES TO FLOAT A ONE THRU ALL 36 BITS OF THE ADDER.
 24558					;THIS TEST IS DESIGNED TO TEST THE ADDER AND RELATED DATA PATHS ONLY.
 24559
 24560			045703		SN=SN+1
 24561			000004			XX=XX+XX
 24562						IFE	XX,<XX=1>
 24563	044034	551 00 0 00 000004 		HRRZI	XX		;PRELOAD AC WITH A FLOATING ONE
 24564	044035	270 00 0 00 070267 		ADD	[XX]		;ADD A FLOATING ONE TO ITSELF
 24565	044036	312 00 0 00 070270 		CAME	[XX+XX]		;CHECK ADDER UPON FAILURE
 24566						STOP		^
 24567	044037	254 04 0 00 044040 		HALT	.+1		;TEST FAILED IF PROGRAM HALTS HERE
 24568	044040	324 00 0 00 044041 		JUMPA	.+1		;IF TEST FAILS, CHANGE THIS INSTRUCTION (JUMPA .+1) TO
 24569									;JUMPA X (X IS THE ADDRESS OF THE FIRST INSTRUCTION
 24570									;IN THE SUBTEST) TO LOOP ON ERROR^
 24571
 24572					;**********
 24573
 24574
 24575					;THIS TEST VERIFIES THAT THE RESULT OF A FLOATING ONE
 24576					;ADDED TO A FLOATING ONE IS A FLOATING ONE
 24577					;PLACED ONE BIT POSITION LEFT OF THE ORIGINAL FLOATING ONE.
 24578					;THIS TEST IS REPEATED 36 TIMES TO FLOAT A ONE THRU ALL 36 BITS OF THE ADDER.
 24579					;THIS TEST IS DESIGNED TO TEST THE ADDER AND RELATED DATA PATHS ONLY.
 24580
 24581			045704		SN=SN+1
 24582			000010			XX=XX+XX
 24583						IFE	XX,<XX=1>
 24584	044041	551 00 0 00 000010 		HRRZI	XX		;PRELOAD AC WITH A FLOATING ONE
 24585	044042	270 00 0 00 070270 		ADD	[XX]		;ADD A FLOATING ONE TO ITSELF
 24586	044043	312 00 0 00 070271 		CAME	[XX+XX]		;CHECK ADDER UPON FAILURE
 24587						STOP		^
 24588	044044	254 04 0 00 044045 		HALT	.+1		;TEST FAILED IF PROGRAM HALTS HERE
 24589	044045	324 00 0 00 044046 		JUMPA	.+1		;IF TEST FAILS, CHANGE THIS INSTRUCTION (JUMPA .+1) TO
 24590									;JUMPA X (X IS THE ADDRESS OF THE FIRST INSTRUCTION
 24591									;IN THE SUBTEST) TO LOOP ON ERROR^
 24592
 24593					;**********
 24594
 24595
 24596					;THIS TEST VERIFIES THAT THE RESULT OF A FLOATING ONE
DFKAA PDP-10 KL10 BASIC INSTRUCTION DIAGNOSTIC (1) VER 0,2	MACRO %53B(1254)-4 11:50 11-Nov-24 Page 88-2
DFKAA3	MAC	13-Jan-89 10:22		SUPPLEMENTARY ADDER TESTS - FLT 1 + FLT 1

 24597					;ADDED TO A FLOATING ONE IS A FLOATING ONE
 24598					;PLACED ONE BIT POSITION LEFT OF THE ORIGINAL FLOATING ONE.
 24599					;THIS TEST IS REPEATED 36 TIMES TO FLOAT A ONE THRU ALL 36 BITS OF THE ADDER.
 24600					;THIS TEST IS DESIGNED TO TEST THE ADDER AND RELATED DATA PATHS ONLY.
 24601
 24602			045705		SN=SN+1
 24603			000020			XX=XX+XX
 24604						IFE	XX,<XX=1>
 24605	044046	551 00 0 00 000020 		HRRZI	XX		;PRELOAD AC WITH A FLOATING ONE
 24606	044047	270 00 0 00 070271 		ADD	[XX]		;ADD A FLOATING ONE TO ITSELF
 24607	044050	312 00 0 00 070272 		CAME	[XX+XX]		;CHECK ADDER UPON FAILURE
 24608						STOP		^
 24609	044051	254 04 0 00 044052 		HALT	.+1		;TEST FAILED IF PROGRAM HALTS HERE
 24610	044052	324 00 0 00 044053 		JUMPA	.+1		;IF TEST FAILS, CHANGE THIS INSTRUCTION (JUMPA .+1) TO
 24611									;JUMPA X (X IS THE ADDRESS OF THE FIRST INSTRUCTION
 24612									;IN THE SUBTEST) TO LOOP ON ERROR^
 24613
 24614					;**********
 24615
 24616
 24617					;THIS TEST VERIFIES THAT THE RESULT OF A FLOATING ONE
 24618					;ADDED TO A FLOATING ONE IS A FLOATING ONE
 24619					;PLACED ONE BIT POSITION LEFT OF THE ORIGINAL FLOATING ONE.
 24620					;THIS TEST IS REPEATED 36 TIMES TO FLOAT A ONE THRU ALL 36 BITS OF THE ADDER.
 24621					;THIS TEST IS DESIGNED TO TEST THE ADDER AND RELATED DATA PATHS ONLY.
 24622
 24623			045706		SN=SN+1
 24624			000040			XX=XX+XX
 24625						IFE	XX,<XX=1>
 24626	044053	551 00 0 00 000040 		HRRZI	XX		;PRELOAD AC WITH A FLOATING ONE
 24627	044054	270 00 0 00 070272 		ADD	[XX]		;ADD A FLOATING ONE TO ITSELF
 24628	044055	312 00 0 00 070273 		CAME	[XX+XX]		;CHECK ADDER UPON FAILURE
 24629						STOP		^
 24630	044056	254 04 0 00 044057 		HALT	.+1		;TEST FAILED IF PROGRAM HALTS HERE
 24631	044057	324 00 0 00 044060 		JUMPA	.+1		;IF TEST FAILS, CHANGE THIS INSTRUCTION (JUMPA .+1) TO
 24632									;JUMPA X (X IS THE ADDRESS OF THE FIRST INSTRUCTION
 24633									;IN THE SUBTEST) TO LOOP ON ERROR^
 24634
 24635					;**********
 24636
 24637
 24638					;THIS TEST VERIFIES THAT THE RESULT OF A FLOATING ONE
 24639					;ADDED TO A FLOATING ONE IS A FLOATING ONE
 24640					;PLACED ONE BIT POSITION LEFT OF THE ORIGINAL FLOATING ONE.
 24641					;THIS TEST IS REPEATED 36 TIMES TO FLOAT A ONE THRU ALL 36 BITS OF THE ADDER.
 24642					;THIS TEST IS DESIGNED TO TEST THE ADDER AND RELATED DATA PATHS ONLY.
 24643
 24644			045707		SN=SN+1
 24645			000100			XX=XX+XX
 24646						IFE	XX,<XX=1>
 24647	044060	551 00 0 00 000100 		HRRZI	XX		;PRELOAD AC WITH A FLOATING ONE
 24648	044061	270 00 0 00 070273 		ADD	[XX]		;ADD A FLOATING ONE TO ITSELF
 24649	044062	312 00 0 00 070274 		CAME	[XX+XX]		;CHECK ADDER UPON FAILURE
 24650						STOP		^
 24651	044063	254 04 0 00 044064 		HALT	.+1		;TEST FAILED IF PROGRAM HALTS HERE
DFKAA PDP-10 KL10 BASIC INSTRUCTION DIAGNOSTIC (1) VER 0,2	MACRO %53B(1254)-4 11:50 11-Nov-24 Page 88-3
DFKAA3	MAC	13-Jan-89 10:22		SUPPLEMENTARY ADDER TESTS - FLT 1 + FLT 1

 24652	044064	324 00 0 00 044065 		JUMPA	.+1		;IF TEST FAILS, CHANGE THIS INSTRUCTION (JUMPA .+1) TO
 24653									;JUMPA X (X IS THE ADDRESS OF THE FIRST INSTRUCTION
 24654									;IN THE SUBTEST) TO LOOP ON ERROR^
 24655
 24656					;**********
 24657
 24658
 24659					;THIS TEST VERIFIES THAT THE RESULT OF A FLOATING ONE
 24660					;ADDED TO A FLOATING ONE IS A FLOATING ONE
 24661					;PLACED ONE BIT POSITION LEFT OF THE ORIGINAL FLOATING ONE.
 24662					;THIS TEST IS REPEATED 36 TIMES TO FLOAT A ONE THRU ALL 36 BITS OF THE ADDER.
 24663					;THIS TEST IS DESIGNED TO TEST THE ADDER AND RELATED DATA PATHS ONLY.
 24664
 24665			045710		SN=SN+1
 24666			000200			XX=XX+XX
 24667						IFE	XX,<XX=1>
 24668	044065	551 00 0 00 000200 		HRRZI	XX		;PRELOAD AC WITH A FLOATING ONE
 24669	044066	270 00 0 00 070274 		ADD	[XX]		;ADD A FLOATING ONE TO ITSELF
 24670	044067	312 00 0 00 070275 		CAME	[XX+XX]		;CHECK ADDER UPON FAILURE
 24671						STOP		^
 24672	044070	254 04 0 00 044071 		HALT	.+1		;TEST FAILED IF PROGRAM HALTS HERE
 24673	044071	324 00 0 00 044072 		JUMPA	.+1		;IF TEST FAILS, CHANGE THIS INSTRUCTION (JUMPA .+1) TO
 24674									;JUMPA X (X IS THE ADDRESS OF THE FIRST INSTRUCTION
 24675									;IN THE SUBTEST) TO LOOP ON ERROR^
 24676
 24677					;**********
 24678
 24679
 24680					;THIS TEST VERIFIES THAT THE RESULT OF A FLOATING ONE
 24681					;ADDED TO A FLOATING ONE IS A FLOATING ONE
 24682					;PLACED ONE BIT POSITION LEFT OF THE ORIGINAL FLOATING ONE.
 24683					;THIS TEST IS REPEATED 36 TIMES TO FLOAT A ONE THRU ALL 36 BITS OF THE ADDER.
 24684					;THIS TEST IS DESIGNED TO TEST THE ADDER AND RELATED DATA PATHS ONLY.
 24685
 24686			045711		SN=SN+1
 24687			000400			XX=XX+XX
 24688						IFE	XX,<XX=1>
 24689	044072	551 00 0 00 000400 		HRRZI	XX		;PRELOAD AC WITH A FLOATING ONE
 24690	044073	270 00 0 00 070275 		ADD	[XX]		;ADD A FLOATING ONE TO ITSELF
 24691	044074	312 00 0 00 070276 		CAME	[XX+XX]		;CHECK ADDER UPON FAILURE
 24692						STOP		^
 24693	044075	254 04 0 00 044076 		HALT	.+1		;TEST FAILED IF PROGRAM HALTS HERE
 24694	044076	324 00 0 00 044077 		JUMPA	.+1		;IF TEST FAILS, CHANGE THIS INSTRUCTION (JUMPA .+1) TO
 24695									;JUMPA X (X IS THE ADDRESS OF THE FIRST INSTRUCTION
 24696									;IN THE SUBTEST) TO LOOP ON ERROR^
 24697
 24698					;**********
 24699
 24700
 24701					;THIS TEST VERIFIES THAT THE RESULT OF A FLOATING ONE
 24702					;ADDED TO A FLOATING ONE IS A FLOATING ONE
 24703					;PLACED ONE BIT POSITION LEFT OF THE ORIGINAL FLOATING ONE.
 24704					;THIS TEST IS REPEATED 36 TIMES TO FLOAT A ONE THRU ALL 36 BITS OF THE ADDER.
 24705					;THIS TEST IS DESIGNED TO TEST THE ADDER AND RELATED DATA PATHS ONLY.
 24706
DFKAA PDP-10 KL10 BASIC INSTRUCTION DIAGNOSTIC (1) VER 0,2	MACRO %53B(1254)-4 11:50 11-Nov-24 Page 88-4
DFKAA3	MAC	13-Jan-89 10:22		SUPPLEMENTARY ADDER TESTS - FLT 1 + FLT 1

 24707			045712		SN=SN+1
 24708			001000			XX=XX+XX
 24709						IFE	XX,<XX=1>
 24710	044077	551 00 0 00 001000 		HRRZI	XX		;PRELOAD AC WITH A FLOATING ONE
 24711	044100	270 00 0 00 070276 		ADD	[XX]		;ADD A FLOATING ONE TO ITSELF
 24712	044101	312 00 0 00 070277 		CAME	[XX+XX]		;CHECK ADDER UPON FAILURE
 24713						STOP		^
 24714	044102	254 04 0 00 044103 		HALT	.+1		;TEST FAILED IF PROGRAM HALTS HERE
 24715	044103	324 00 0 00 044104 		JUMPA	.+1		;IF TEST FAILS, CHANGE THIS INSTRUCTION (JUMPA .+1) TO
 24716									;JUMPA X (X IS THE ADDRESS OF THE FIRST INSTRUCTION
 24717									;IN THE SUBTEST) TO LOOP ON ERROR^
 24718
 24719					;**********
 24720
 24721
 24722					;THIS TEST VERIFIES THAT THE RESULT OF A FLOATING ONE
 24723					;ADDED TO A FLOATING ONE IS A FLOATING ONE
 24724					;PLACED ONE BIT POSITION LEFT OF THE ORIGINAL FLOATING ONE.
 24725					;THIS TEST IS REPEATED 36 TIMES TO FLOAT A ONE THRU ALL 36 BITS OF THE ADDER.
 24726					;THIS TEST IS DESIGNED TO TEST THE ADDER AND RELATED DATA PATHS ONLY.
 24727
 24728			045713		SN=SN+1
 24729			002000			XX=XX+XX
 24730						IFE	XX,<XX=1>
 24731	044104	551 00 0 00 002000 		HRRZI	XX		;PRELOAD AC WITH A FLOATING ONE
 24732	044105	270 00 0 00 070277 		ADD	[XX]		;ADD A FLOATING ONE TO ITSELF
 24733	044106	312 00 0 00 070300 		CAME	[XX+XX]		;CHECK ADDER UPON FAILURE
 24734						STOP		^
 24735	044107	254 04 0 00 044110 		HALT	.+1		;TEST FAILED IF PROGRAM HALTS HERE
 24736	044110	324 00 0 00 044111 		JUMPA	.+1		;IF TEST FAILS, CHANGE THIS INSTRUCTION (JUMPA .+1) TO
 24737									;JUMPA X (X IS THE ADDRESS OF THE FIRST INSTRUCTION
 24738									;IN THE SUBTEST) TO LOOP ON ERROR^
 24739
 24740					;**********
 24741
 24742
 24743					;THIS TEST VERIFIES THAT THE RESULT OF A FLOATING ONE
 24744					;ADDED TO A FLOATING ONE IS A FLOATING ONE
 24745					;PLACED ONE BIT POSITION LEFT OF THE ORIGINAL FLOATING ONE.
 24746					;THIS TEST IS REPEATED 36 TIMES TO FLOAT A ONE THRU ALL 36 BITS OF THE ADDER.
 24747					;THIS TEST IS DESIGNED TO TEST THE ADDER AND RELATED DATA PATHS ONLY.
 24748
 24749			045714		SN=SN+1
 24750			004000			XX=XX+XX
 24751						IFE	XX,<XX=1>
 24752	044111	551 00 0 00 004000 		HRRZI	XX		;PRELOAD AC WITH A FLOATING ONE
 24753	044112	270 00 0 00 070300 		ADD	[XX]		;ADD A FLOATING ONE TO ITSELF
 24754	044113	312 00 0 00 070301 		CAME	[XX+XX]		;CHECK ADDER UPON FAILURE
 24755						STOP		^
 24756	044114	254 04 0 00 044115 		HALT	.+1		;TEST FAILED IF PROGRAM HALTS HERE
 24757	044115	324 00 0 00 044116 		JUMPA	.+1		;IF TEST FAILS, CHANGE THIS INSTRUCTION (JUMPA .+1) TO
 24758									;JUMPA X (X IS THE ADDRESS OF THE FIRST INSTRUCTION
 24759									;IN THE SUBTEST) TO LOOP ON ERROR^
 24760
 24761					;**********
DFKAA PDP-10 KL10 BASIC INSTRUCTION DIAGNOSTIC (1) VER 0,2	MACRO %53B(1254)-4 11:50 11-Nov-24 Page 88-5
DFKAA3	MAC	13-Jan-89 10:22		SUPPLEMENTARY ADDER TESTS - FLT 1 + FLT 1

 24762
 24763
 24764					;THIS TEST VERIFIES THAT THE RESULT OF A FLOATING ONE
 24765					;ADDED TO A FLOATING ONE IS A FLOATING ONE
 24766					;PLACED ONE BIT POSITION LEFT OF THE ORIGINAL FLOATING ONE.
 24767					;THIS TEST IS REPEATED 36 TIMES TO FLOAT A ONE THRU ALL 36 BITS OF THE ADDER.
 24768					;THIS TEST IS DESIGNED TO TEST THE ADDER AND RELATED DATA PATHS ONLY.
 24769
 24770			045715		SN=SN+1
 24771			010000			XX=XX+XX
 24772						IFE	XX,<XX=1>
 24773	044116	551 00 0 00 010000 		HRRZI	XX		;PRELOAD AC WITH A FLOATING ONE
 24774	044117	270 00 0 00 070301 		ADD	[XX]		;ADD A FLOATING ONE TO ITSELF
 24775	044120	312 00 0 00 070302 		CAME	[XX+XX]		;CHECK ADDER UPON FAILURE
 24776						STOP		^
 24777	044121	254 04 0 00 044122 		HALT	.+1		;TEST FAILED IF PROGRAM HALTS HERE
 24778	044122	324 00 0 00 044123 		JUMPA	.+1		;IF TEST FAILS, CHANGE THIS INSTRUCTION (JUMPA .+1) TO
 24779									;JUMPA X (X IS THE ADDRESS OF THE FIRST INSTRUCTION
 24780									;IN THE SUBTEST) TO LOOP ON ERROR^
 24781
 24782					;**********
 24783
 24784
 24785					;THIS TEST VERIFIES THAT THE RESULT OF A FLOATING ONE
 24786					;ADDED TO A FLOATING ONE IS A FLOATING ONE
 24787					;PLACED ONE BIT POSITION LEFT OF THE ORIGINAL FLOATING ONE.
 24788					;THIS TEST IS REPEATED 36 TIMES TO FLOAT A ONE THRU ALL 36 BITS OF THE ADDER.
 24789					;THIS TEST IS DESIGNED TO TEST THE ADDER AND RELATED DATA PATHS ONLY.
 24790
 24791			045716		SN=SN+1
 24792			020000			XX=XX+XX
 24793						IFE	XX,<XX=1>
 24794	044123	551 00 0 00 020000 		HRRZI	XX		;PRELOAD AC WITH A FLOATING ONE
 24795	044124	270 00 0 00 070302 		ADD	[XX]		;ADD A FLOATING ONE TO ITSELF
 24796	044125	312 00 0 00 070303 		CAME	[XX+XX]		;CHECK ADDER UPON FAILURE
 24797						STOP		^
 24798	044126	254 04 0 00 044127 		HALT	.+1		;TEST FAILED IF PROGRAM HALTS HERE
 24799	044127	324 00 0 00 044130 		JUMPA	.+1		;IF TEST FAILS, CHANGE THIS INSTRUCTION (JUMPA .+1) TO
 24800									;JUMPA X (X IS THE ADDRESS OF THE FIRST INSTRUCTION
 24801									;IN THE SUBTEST) TO LOOP ON ERROR^
 24802
 24803					;**********
 24804
 24805
 24806					;THIS TEST VERIFIES THAT THE RESULT OF A FLOATING ONE
 24807					;ADDED TO A FLOATING ONE IS A FLOATING ONE
 24808					;PLACED ONE BIT POSITION LEFT OF THE ORIGINAL FLOATING ONE.
 24809					;THIS TEST IS REPEATED 36 TIMES TO FLOAT A ONE THRU ALL 36 BITS OF THE ADDER.
 24810					;THIS TEST IS DESIGNED TO TEST THE ADDER AND RELATED DATA PATHS ONLY.
 24811
 24812			045717		SN=SN+1
 24813			040000			XX=XX+XX
 24814						IFE	XX,<XX=1>
 24815	044130	551 00 0 00 040000 		HRRZI	XX		;PRELOAD AC WITH A FLOATING ONE
 24816	044131	270 00 0 00 070303 		ADD	[XX]		;ADD A FLOATING ONE TO ITSELF
DFKAA PDP-10 KL10 BASIC INSTRUCTION DIAGNOSTIC (1) VER 0,2	MACRO %53B(1254)-4 11:50 11-Nov-24 Page 88-6
DFKAA3	MAC	13-Jan-89 10:22		SUPPLEMENTARY ADDER TESTS - FLT 1 + FLT 1

 24817	044132	312 00 0 00 070304 		CAME	[XX+XX]		;CHECK ADDER UPON FAILURE
 24818						STOP		^
 24819	044133	254 04 0 00 044134 		HALT	.+1		;TEST FAILED IF PROGRAM HALTS HERE
 24820	044134	324 00 0 00 044135 		JUMPA	.+1		;IF TEST FAILS, CHANGE THIS INSTRUCTION (JUMPA .+1) TO
 24821									;JUMPA X (X IS THE ADDRESS OF THE FIRST INSTRUCTION
 24822									;IN THE SUBTEST) TO LOOP ON ERROR^
 24823
 24824					;**********
 24825
 24826
 24827					;THIS TEST VERIFIES THAT THE RESULT OF A FLOATING ONE
 24828					;ADDED TO A FLOATING ONE IS A FLOATING ONE
 24829					;PLACED ONE BIT POSITION LEFT OF THE ORIGINAL FLOATING ONE.
 24830					;THIS TEST IS REPEATED 36 TIMES TO FLOAT A ONE THRU ALL 36 BITS OF THE ADDER.
 24831					;THIS TEST IS DESIGNED TO TEST THE ADDER AND RELATED DATA PATHS ONLY.
 24832
 24833			045720		SN=SN+1
 24834			100000			XX=XX+XX
 24835						IFE	XX,<XX=1>
 24836	044135	551 00 0 00 100000 		HRRZI	XX		;PRELOAD AC WITH A FLOATING ONE
 24837	044136	270 00 0 00 070304 		ADD	[XX]		;ADD A FLOATING ONE TO ITSELF
 24838	044137	312 00 0 00 070305 		CAME	[XX+XX]		;CHECK ADDER UPON FAILURE
 24839						STOP		^
 24840	044140	254 04 0 00 044141 		HALT	.+1		;TEST FAILED IF PROGRAM HALTS HERE
 24841	044141	324 00 0 00 044142 		JUMPA	.+1		;IF TEST FAILS, CHANGE THIS INSTRUCTION (JUMPA .+1) TO
 24842									;JUMPA X (X IS THE ADDRESS OF THE FIRST INSTRUCTION
 24843									;IN THE SUBTEST) TO LOOP ON ERROR^
 24844
 24845					;**********
 24846
 24847
 24848					;THIS TEST VERIFIES THAT THE RESULT OF A FLOATING ONE
 24849					;ADDED TO A FLOATING ONE IS A FLOATING ONE
 24850					;PLACED ONE BIT POSITION LEFT OF THE ORIGINAL FLOATING ONE.
 24851					;THIS TEST IS REPEATED 36 TIMES TO FLOAT A ONE THRU ALL 36 BITS OF THE ADDER.
 24852					;THIS TEST IS DESIGNED TO TEST THE ADDER AND RELATED DATA PATHS ONLY.
 24853
 24854			045721		SN=SN+1
 24855			200000			XX=XX+XX
 24856						IFE	XX,<XX=1>
 24857	044142	551 00 0 00 200000 		HRRZI	XX		;PRELOAD AC WITH A FLOATING ONE
 24858	044143	270 00 0 00 070305 		ADD	[XX]		;ADD A FLOATING ONE TO ITSELF
 24859	044144	312 00 0 00 070306 		CAME	[XX+XX]		;CHECK ADDER UPON FAILURE
 24860						STOP		^
 24861	044145	254 04 0 00 044146 		HALT	.+1		;TEST FAILED IF PROGRAM HALTS HERE
 24862	044146	324 00 0 00 044147 		JUMPA	.+1		;IF TEST FAILS, CHANGE THIS INSTRUCTION (JUMPA .+1) TO
 24863									;JUMPA X (X IS THE ADDRESS OF THE FIRST INSTRUCTION
 24864									;IN THE SUBTEST) TO LOOP ON ERROR^
 24865
 24866					;**********
 24867
 24868					PAGE
DFKAA PDP-10 KL10 BASIC INSTRUCTION DIAGNOSTIC (1) VER 0,2	MACRO %53B(1254)-4 11:50 11-Nov-24 Page 88-7
DFKAA3	MAC	13-Jan-89 10:22		SUPPLEMENTARY ADDER TESTS - FLT 1 + FLT 1

 24869					;THIS TEST VERIFIES THAT THE RESULT OF A FLOATING ONE
 24870					;ADDED TO A FLOATING ONE IS A FLOATING ONE
 24871					;PLACED ONE BIT POSITION LEFT OF THE ORIGINAL FLOATING ONE.
 24872					;THIS TEST IS REPEATED 36 TIMES TO FLOAT A ONE THRU ALL 36 BITS OF THE ADDER.
 24873					;THIS TEST IS DESIGNED TO TEST THE ADDER AND RELATED DATA PATHS ONLY.
 24874			045722		SN=SN+1
 24875			400000			XX=XX+XX
 24876	044147	551 00 0 00 400000 		HRRZI	XX		;PRELOAD AC WITH A FLOATING ONE
 24877	044150	270 00 0 00 070306 		ADD	[XX]		;ADD A FLOATING ONE TO ITSELF
 24878	044151	312 00 0 00 070307 		CAME	[1,,0]		;CHECK ADDRESS UPON FAILURE
 24879						STOP		^
 24880	044152	254 04 0 00 044153 		HALT	.+1		;TEST FAILED IF PROGRAM HALTS HERE
 24881	044153	324 00 0 00 044154 		JUMPA	.+1		;IF TEST FAILS, CHANGE THIS INSTRUCTION (JUMPA .+1) TO
 24882									;JUMPA X (X IS THE ADDRESS OF THE FIRST INSTRUCTION
 24883									;IN THE SUBTEST) TO LOOP ON ERROR^
 24884
 24885					;**********
 24886
 24887			000000			XX=0
 24888
 24889						REPEAT	^D17,<
 24890					;THIS TEST VERIFIES THAT THE RESULT OF A FLOATING ONE
 24891					;ADDED TO A FLOATING ONE IS A FLOATING ONE
 24892					;PLACED ONE BIT POSITION LEFT OF THE ORIGINAL FLOATING ONE.
 24893					;THIS TEST IS REPEATED 36 TIMES TO FLOAT A ONE THRU ALL 36 BITS OF THE ADDER.
 24894					;THIS TEST IS DESIGNED TO TEST THE ADDER AND RELATED DATA PATHS ONLY.
 24895
 24896					SN=SN+1
 24897						XX=XX+XX
 24898						IFE	XX,<XX=1>
 24899						HRLZI	XX		;PRELOAD AC WITH A FLOATING ONE
 24900						ADD	[XX,,0]		;ADD A FLOATING ONE TO ITSELF
 24901						CAME	[XX+XX,,0]	;CHECK ADDER UPON FAILURE
 24902						STOP
 24903
 24904					;**********
 24905					>
 24906
 24907					;THIS TEST VERIFIES THAT THE RESULT OF A FLOATING ONE
 24908					;ADDED TO A FLOATING ONE IS A FLOATING ONE
 24909					;PLACED ONE BIT POSITION LEFT OF THE ORIGINAL FLOATING ONE.
 24910					;THIS TEST IS REPEATED 36 TIMES TO FLOAT A ONE THRU ALL 36 BITS OF THE ADDER.
 24911					;THIS TEST IS DESIGNED TO TEST THE ADDER AND RELATED DATA PATHS ONLY.
 24912
 24913			045723		SN=SN+1
 24914			000000			XX=XX+XX
 24915			000001			IFE	XX,<XX=1>
 24916	044154	515 00 0 00 000001 		HRLZI	XX		;PRELOAD AC WITH A FLOATING ONE
 24917	044155	270 00 0 00 070307 		ADD	[XX,,0]		;ADD A FLOATING ONE TO ITSELF
 24918	044156	312 00 0 00 070310 		CAME	[XX+XX,,0]	;CHECK ADDER UPON FAILURE
 24919						STOP		^
 24920	044157	254 04 0 00 044160 		HALT	.+1		;TEST FAILED IF PROGRAM HALTS HERE
 24921	044160	324 00 0 00 044161 		JUMPA	.+1		;IF TEST FAILS, CHANGE THIS INSTRUCTION (JUMPA .+1) TO
 24922									;JUMPA X (X IS THE ADDRESS OF THE FIRST INSTRUCTION
 24923									;IN THE SUBTEST) TO LOOP ON ERROR^
DFKAA PDP-10 KL10 BASIC INSTRUCTION DIAGNOSTIC (1) VER 0,2	MACRO %53B(1254)-4 11:50 11-Nov-24 Page 88-8
DFKAA3	MAC	13-Jan-89 10:22		SUPPLEMENTARY ADDER TESTS - FLT 1 + FLT 1

 24924
 24925					;**********
 24926
 24927
 24928					;THIS TEST VERIFIES THAT THE RESULT OF A FLOATING ONE
 24929					;ADDED TO A FLOATING ONE IS A FLOATING ONE
 24930					;PLACED ONE BIT POSITION LEFT OF THE ORIGINAL FLOATING ONE.
 24931					;THIS TEST IS REPEATED 36 TIMES TO FLOAT A ONE THRU ALL 36 BITS OF THE ADDER.
 24932					;THIS TEST IS DESIGNED TO TEST THE ADDER AND RELATED DATA PATHS ONLY.
 24933
 24934			045724		SN=SN+1
 24935			000002			XX=XX+XX
 24936						IFE	XX,<XX=1>
 24937	044161	515 00 0 00 000002 		HRLZI	XX		;PRELOAD AC WITH A FLOATING ONE
 24938	044162	270 00 0 00 070310 		ADD	[XX,,0]		;ADD A FLOATING ONE TO ITSELF
 24939	044163	312 00 0 00 070311 		CAME	[XX+XX,,0]	;CHECK ADDER UPON FAILURE
 24940						STOP		^
 24941	044164	254 04 0 00 044165 		HALT	.+1		;TEST FAILED IF PROGRAM HALTS HERE
 24942	044165	324 00 0 00 044166 		JUMPA	.+1		;IF TEST FAILS, CHANGE THIS INSTRUCTION (JUMPA .+1) TO
 24943									;JUMPA X (X IS THE ADDRESS OF THE FIRST INSTRUCTION
 24944									;IN THE SUBTEST) TO LOOP ON ERROR^
 24945
 24946					;**********
 24947
 24948
 24949					;THIS TEST VERIFIES THAT THE RESULT OF A FLOATING ONE
 24950					;ADDED TO A FLOATING ONE IS A FLOATING ONE
 24951					;PLACED ONE BIT POSITION LEFT OF THE ORIGINAL FLOATING ONE.
 24952					;THIS TEST IS REPEATED 36 TIMES TO FLOAT A ONE THRU ALL 36 BITS OF THE ADDER.
 24953					;THIS TEST IS DESIGNED TO TEST THE ADDER AND RELATED DATA PATHS ONLY.
 24954
 24955			045725		SN=SN+1
 24956			000004			XX=XX+XX
 24957						IFE	XX,<XX=1>
 24958	044166	515 00 0 00 000004 		HRLZI	XX		;PRELOAD AC WITH A FLOATING ONE
 24959	044167	270 00 0 00 070311 		ADD	[XX,,0]		;ADD A FLOATING ONE TO ITSELF
 24960	044170	312 00 0 00 070312 		CAME	[XX+XX,,0]	;CHECK ADDER UPON FAILURE
 24961						STOP		^
 24962	044171	254 04 0 00 044172 		HALT	.+1		;TEST FAILED IF PROGRAM HALTS HERE
 24963	044172	324 00 0 00 044173 		JUMPA	.+1		;IF TEST FAILS, CHANGE THIS INSTRUCTION (JUMPA .+1) TO
 24964									;JUMPA X (X IS THE ADDRESS OF THE FIRST INSTRUCTION
 24965									;IN THE SUBTEST) TO LOOP ON ERROR^
 24966
 24967					;**********
 24968
 24969
 24970					;THIS TEST VERIFIES THAT THE RESULT OF A FLOATING ONE
 24971					;ADDED TO A FLOATING ONE IS A FLOATING ONE
 24972					;PLACED ONE BIT POSITION LEFT OF THE ORIGINAL FLOATING ONE.
 24973					;THIS TEST IS REPEATED 36 TIMES TO FLOAT A ONE THRU ALL 36 BITS OF THE ADDER.
 24974					;THIS TEST IS DESIGNED TO TEST THE ADDER AND RELATED DATA PATHS ONLY.
 24975
 24976			045726		SN=SN+1
 24977			000010			XX=XX+XX
 24978						IFE	XX,<XX=1>
DFKAA PDP-10 KL10 BASIC INSTRUCTION DIAGNOSTIC (1) VER 0,2	MACRO %53B(1254)-4 11:50 11-Nov-24 Page 88-9
DFKAA3	MAC	13-Jan-89 10:22		SUPPLEMENTARY ADDER TESTS - FLT 1 + FLT 1

 24979	044173	515 00 0 00 000010 		HRLZI	XX		;PRELOAD AC WITH A FLOATING ONE
 24980	044174	270 00 0 00 070312 		ADD	[XX,,0]		;ADD A FLOATING ONE TO ITSELF
 24981	044175	312 00 0 00 070313 		CAME	[XX+XX,,0]	;CHECK ADDER UPON FAILURE
 24982						STOP		^
 24983	044176	254 04 0 00 044177 		HALT	.+1		;TEST FAILED IF PROGRAM HALTS HERE
 24984	044177	324 00 0 00 044200 		JUMPA	.+1		;IF TEST FAILS, CHANGE THIS INSTRUCTION (JUMPA .+1) TO
 24985									;JUMPA X (X IS THE ADDRESS OF THE FIRST INSTRUCTION
 24986									;IN THE SUBTEST) TO LOOP ON ERROR^
 24987
 24988					;**********
 24989
 24990
 24991					;THIS TEST VERIFIES THAT THE RESULT OF A FLOATING ONE
 24992					;ADDED TO A FLOATING ONE IS A FLOATING ONE
 24993					;PLACED ONE BIT POSITION LEFT OF THE ORIGINAL FLOATING ONE.
 24994					;THIS TEST IS REPEATED 36 TIMES TO FLOAT A ONE THRU ALL 36 BITS OF THE ADDER.
 24995					;THIS TEST IS DESIGNED TO TEST THE ADDER AND RELATED DATA PATHS ONLY.
 24996
 24997			045727		SN=SN+1
 24998			000020			XX=XX+XX
 24999						IFE	XX,<XX=1>
 25000	044200	515 00 0 00 000020 		HRLZI	XX		;PRELOAD AC WITH A FLOATING ONE
 25001	044201	270 00 0 00 070313 		ADD	[XX,,0]		;ADD A FLOATING ONE TO ITSELF
 25002	044202	312 00 0 00 070314 		CAME	[XX+XX,,0]	;CHECK ADDER UPON FAILURE
 25003						STOP		^
 25004	044203	254 04 0 00 044204 		HALT	.+1		;TEST FAILED IF PROGRAM HALTS HERE
 25005	044204	324 00 0 00 044205 		JUMPA	.+1		;IF TEST FAILS, CHANGE THIS INSTRUCTION (JUMPA .+1) TO
 25006									;JUMPA X (X IS THE ADDRESS OF THE FIRST INSTRUCTION
 25007									;IN THE SUBTEST) TO LOOP ON ERROR^
 25008
 25009					;**********
 25010
 25011
 25012					;THIS TEST VERIFIES THAT THE RESULT OF A FLOATING ONE
 25013					;ADDED TO A FLOATING ONE IS A FLOATING ONE
 25014					;PLACED ONE BIT POSITION LEFT OF THE ORIGINAL FLOATING ONE.
 25015					;THIS TEST IS REPEATED 36 TIMES TO FLOAT A ONE THRU ALL 36 BITS OF THE ADDER.
 25016					;THIS TEST IS DESIGNED TO TEST THE ADDER AND RELATED DATA PATHS ONLY.
 25017
 25018			045730		SN=SN+1
 25019			000040			XX=XX+XX
 25020						IFE	XX,<XX=1>
 25021	044205	515 00 0 00 000040 		HRLZI	XX		;PRELOAD AC WITH A FLOATING ONE
 25022	044206	270 00 0 00 070314 		ADD	[XX,,0]		;ADD A FLOATING ONE TO ITSELF
 25023	044207	312 00 0 00 070315 		CAME	[XX+XX,,0]	;CHECK ADDER UPON FAILURE
 25024						STOP		^
 25025	044210	254 04 0 00 044211 		HALT	.+1		;TEST FAILED IF PROGRAM HALTS HERE
 25026	044211	324 00 0 00 044212 		JUMPA	.+1		;IF TEST FAILS, CHANGE THIS INSTRUCTION (JUMPA .+1) TO
 25027									;JUMPA X (X IS THE ADDRESS OF THE FIRST INSTRUCTION
 25028									;IN THE SUBTEST) TO LOOP ON ERROR^
 25029
 25030					;**********
 25031
 25032
 25033					;THIS TEST VERIFIES THAT THE RESULT OF A FLOATING ONE
DFKAA PDP-10 KL10 BASIC INSTRUCTION DIAGNOSTIC (1) VER 0,2	MACRO %53B(1254)-4 11:50 11-Nov-24 Page 88-10
DFKAA3	MAC	13-Jan-89 10:22		SUPPLEMENTARY ADDER TESTS - FLT 1 + FLT 1

 25034					;ADDED TO A FLOATING ONE IS A FLOATING ONE
 25035					;PLACED ONE BIT POSITION LEFT OF THE ORIGINAL FLOATING ONE.
 25036					;THIS TEST IS REPEATED 36 TIMES TO FLOAT A ONE THRU ALL 36 BITS OF THE ADDER.
 25037					;THIS TEST IS DESIGNED TO TEST THE ADDER AND RELATED DATA PATHS ONLY.
 25038
 25039			045731		SN=SN+1
 25040			000100			XX=XX+XX
 25041						IFE	XX,<XX=1>
 25042	044212	515 00 0 00 000100 		HRLZI	XX		;PRELOAD AC WITH A FLOATING ONE
 25043	044213	270 00 0 00 070315 		ADD	[XX,,0]		;ADD A FLOATING ONE TO ITSELF
 25044	044214	312 00 0 00 070316 		CAME	[XX+XX,,0]	;CHECK ADDER UPON FAILURE
 25045						STOP		^
 25046	044215	254 04 0 00 044216 		HALT	.+1		;TEST FAILED IF PROGRAM HALTS HERE
 25047	044216	324 00 0 00 044217 		JUMPA	.+1		;IF TEST FAILS, CHANGE THIS INSTRUCTION (JUMPA .+1) TO
 25048									;JUMPA X (X IS THE ADDRESS OF THE FIRST INSTRUCTION
 25049									;IN THE SUBTEST) TO LOOP ON ERROR^
 25050
 25051					;**********
 25052
 25053
 25054					;THIS TEST VERIFIES THAT THE RESULT OF A FLOATING ONE
 25055					;ADDED TO A FLOATING ONE IS A FLOATING ONE
 25056					;PLACED ONE BIT POSITION LEFT OF THE ORIGINAL FLOATING ONE.
 25057					;THIS TEST IS REPEATED 36 TIMES TO FLOAT A ONE THRU ALL 36 BITS OF THE ADDER.
 25058					;THIS TEST IS DESIGNED TO TEST THE ADDER AND RELATED DATA PATHS ONLY.
 25059
 25060			045732		SN=SN+1
 25061			000200			XX=XX+XX
 25062						IFE	XX,<XX=1>
 25063	044217	515 00 0 00 000200 		HRLZI	XX		;PRELOAD AC WITH A FLOATING ONE
 25064	044220	270 00 0 00 070316 		ADD	[XX,,0]		;ADD A FLOATING ONE TO ITSELF
 25065	044221	312 00 0 00 070264 		CAME	[XX+XX,,0]	;CHECK ADDER UPON FAILURE
 25066						STOP		^
 25067	044222	254 04 0 00 044223 		HALT	.+1		;TEST FAILED IF PROGRAM HALTS HERE
 25068	044223	324 00 0 00 044224 		JUMPA	.+1		;IF TEST FAILS, CHANGE THIS INSTRUCTION (JUMPA .+1) TO
 25069									;JUMPA X (X IS THE ADDRESS OF THE FIRST INSTRUCTION
 25070									;IN THE SUBTEST) TO LOOP ON ERROR^
 25071
 25072					;**********
 25073
 25074
 25075					;THIS TEST VERIFIES THAT THE RESULT OF A FLOATING ONE
 25076					;ADDED TO A FLOATING ONE IS A FLOATING ONE
 25077					;PLACED ONE BIT POSITION LEFT OF THE ORIGINAL FLOATING ONE.
 25078					;THIS TEST IS REPEATED 36 TIMES TO FLOAT A ONE THRU ALL 36 BITS OF THE ADDER.
 25079					;THIS TEST IS DESIGNED TO TEST THE ADDER AND RELATED DATA PATHS ONLY.
 25080
 25081			045733		SN=SN+1
 25082			000400			XX=XX+XX
 25083						IFE	XX,<XX=1>
 25084	044224	515 00 0 00 000400 		HRLZI	XX		;PRELOAD AC WITH A FLOATING ONE
 25085	044225	270 00 0 00 070264 		ADD	[XX,,0]		;ADD A FLOATING ONE TO ITSELF
 25086	044226	312 00 0 00 070317 		CAME	[XX+XX,,0]	;CHECK ADDER UPON FAILURE
 25087						STOP		^
 25088	044227	254 04 0 00 044230 		HALT	.+1		;TEST FAILED IF PROGRAM HALTS HERE
DFKAA PDP-10 KL10 BASIC INSTRUCTION DIAGNOSTIC (1) VER 0,2	MACRO %53B(1254)-4 11:50 11-Nov-24 Page 88-11
DFKAA3	MAC	13-Jan-89 10:22		SUPPLEMENTARY ADDER TESTS - FLT 1 + FLT 1

 25089	044230	324 00 0 00 044231 		JUMPA	.+1		;IF TEST FAILS, CHANGE THIS INSTRUCTION (JUMPA .+1) TO
 25090									;JUMPA X (X IS THE ADDRESS OF THE FIRST INSTRUCTION
 25091									;IN THE SUBTEST) TO LOOP ON ERROR^
 25092
 25093					;**********
 25094
 25095
 25096					;THIS TEST VERIFIES THAT THE RESULT OF A FLOATING ONE
 25097					;ADDED TO A FLOATING ONE IS A FLOATING ONE
 25098					;PLACED ONE BIT POSITION LEFT OF THE ORIGINAL FLOATING ONE.
 25099					;THIS TEST IS REPEATED 36 TIMES TO FLOAT A ONE THRU ALL 36 BITS OF THE ADDER.
 25100					;THIS TEST IS DESIGNED TO TEST THE ADDER AND RELATED DATA PATHS ONLY.
 25101
 25102			045734		SN=SN+1
 25103			001000			XX=XX+XX
 25104						IFE	XX,<XX=1>
 25105	044231	515 00 0 00 001000 		HRLZI	XX		;PRELOAD AC WITH A FLOATING ONE
 25106	044232	270 00 0 00 070317 		ADD	[XX,,0]		;ADD A FLOATING ONE TO ITSELF
 25107	044233	312 00 0 00 070320 		CAME	[XX+XX,,0]	;CHECK ADDER UPON FAILURE
 25108						STOP		^
 25109	044234	254 04 0 00 044235 		HALT	.+1		;TEST FAILED IF PROGRAM HALTS HERE
 25110	044235	324 00 0 00 044236 		JUMPA	.+1		;IF TEST FAILS, CHANGE THIS INSTRUCTION (JUMPA .+1) TO
 25111									;JUMPA X (X IS THE ADDRESS OF THE FIRST INSTRUCTION
 25112									;IN THE SUBTEST) TO LOOP ON ERROR^
 25113
 25114					;**********
 25115
 25116
 25117					;THIS TEST VERIFIES THAT THE RESULT OF A FLOATING ONE
 25118					;ADDED TO A FLOATING ONE IS A FLOATING ONE
 25119					;PLACED ONE BIT POSITION LEFT OF THE ORIGINAL FLOATING ONE.
 25120					;THIS TEST IS REPEATED 36 TIMES TO FLOAT A ONE THRU ALL 36 BITS OF THE ADDER.
 25121					;THIS TEST IS DESIGNED TO TEST THE ADDER AND RELATED DATA PATHS ONLY.
 25122
 25123			045735		SN=SN+1
 25124			002000			XX=XX+XX
 25125						IFE	XX,<XX=1>
 25126	044236	515 00 0 00 002000 		HRLZI	XX		;PRELOAD AC WITH A FLOATING ONE
 25127	044237	270 00 0 00 070320 		ADD	[XX,,0]		;ADD A FLOATING ONE TO ITSELF
 25128	044240	312 00 0 00 070321 		CAME	[XX+XX,,0]	;CHECK ADDER UPON FAILURE
 25129						STOP		^
 25130	044241	254 04 0 00 044242 		HALT	.+1		;TEST FAILED IF PROGRAM HALTS HERE
 25131	044242	324 00 0 00 044243 		JUMPA	.+1		;IF TEST FAILS, CHANGE THIS INSTRUCTION (JUMPA .+1) TO
 25132									;JUMPA X (X IS THE ADDRESS OF THE FIRST INSTRUCTION
 25133									;IN THE SUBTEST) TO LOOP ON ERROR^
 25134
 25135					;**********
 25136
 25137
 25138					;THIS TEST VERIFIES THAT THE RESULT OF A FLOATING ONE
 25139					;ADDED TO A FLOATING ONE IS A FLOATING ONE
 25140					;PLACED ONE BIT POSITION LEFT OF THE ORIGINAL FLOATING ONE.
 25141					;THIS TEST IS REPEATED 36 TIMES TO FLOAT A ONE THRU ALL 36 BITS OF THE ADDER.
 25142					;THIS TEST IS DESIGNED TO TEST THE ADDER AND RELATED DATA PATHS ONLY.
 25143
DFKAA PDP-10 KL10 BASIC INSTRUCTION DIAGNOSTIC (1) VER 0,2	MACRO %53B(1254)-4 11:50 11-Nov-24 Page 88-12
DFKAA3	MAC	13-Jan-89 10:22		SUPPLEMENTARY ADDER TESTS - FLT 1 + FLT 1

 25144			045736		SN=SN+1
 25145			004000			XX=XX+XX
 25146						IFE	XX,<XX=1>
 25147	044243	515 00 0 00 004000 		HRLZI	XX		;PRELOAD AC WITH A FLOATING ONE
 25148	044244	270 00 0 00 070321 		ADD	[XX,,0]		;ADD A FLOATING ONE TO ITSELF
 25149	044245	312 00 0 00 070322 		CAME	[XX+XX,,0]	;CHECK ADDER UPON FAILURE
 25150						STOP		^
 25151	044246	254 04 0 00 044247 		HALT	.+1		;TEST FAILED IF PROGRAM HALTS HERE
 25152	044247	324 00 0 00 044250 		JUMPA	.+1		;IF TEST FAILS, CHANGE THIS INSTRUCTION (JUMPA .+1) TO
 25153									;JUMPA X (X IS THE ADDRESS OF THE FIRST INSTRUCTION
 25154									;IN THE SUBTEST) TO LOOP ON ERROR^
 25155
 25156					;**********
 25157
 25158
 25159					;THIS TEST VERIFIES THAT THE RESULT OF A FLOATING ONE
 25160					;ADDED TO A FLOATING ONE IS A FLOATING ONE
 25161					;PLACED ONE BIT POSITION LEFT OF THE ORIGINAL FLOATING ONE.
 25162					;THIS TEST IS REPEATED 36 TIMES TO FLOAT A ONE THRU ALL 36 BITS OF THE ADDER.
 25163					;THIS TEST IS DESIGNED TO TEST THE ADDER AND RELATED DATA PATHS ONLY.
 25164
 25165			045737		SN=SN+1
 25166			010000			XX=XX+XX
 25167						IFE	XX,<XX=1>
 25168	044250	515 00 0 00 010000 		HRLZI	XX		;PRELOAD AC WITH A FLOATING ONE
 25169	044251	270 00 0 00 070322 		ADD	[XX,,0]		;ADD A FLOATING ONE TO ITSELF
 25170	044252	312 00 0 00 070323 		CAME	[XX+XX,,0]	;CHECK ADDER UPON FAILURE
 25171						STOP		^
 25172	044253	254 04 0 00 044254 		HALT	.+1		;TEST FAILED IF PROGRAM HALTS HERE
 25173	044254	324 00 0 00 044255 		JUMPA	.+1		;IF TEST FAILS, CHANGE THIS INSTRUCTION (JUMPA .+1) TO
 25174									;JUMPA X (X IS THE ADDRESS OF THE FIRST INSTRUCTION
 25175									;IN THE SUBTEST) TO LOOP ON ERROR^
 25176
 25177					;**********
 25178
 25179
 25180					;THIS TEST VERIFIES THAT THE RESULT OF A FLOATING ONE
 25181					;ADDED TO A FLOATING ONE IS A FLOATING ONE
 25182					;PLACED ONE BIT POSITION LEFT OF THE ORIGINAL FLOATING ONE.
 25183					;THIS TEST IS REPEATED 36 TIMES TO FLOAT A ONE THRU ALL 36 BITS OF THE ADDER.
 25184					;THIS TEST IS DESIGNED TO TEST THE ADDER AND RELATED DATA PATHS ONLY.
 25185
 25186			045740		SN=SN+1
 25187			020000			XX=XX+XX
 25188						IFE	XX,<XX=1>
 25189	044255	515 00 0 00 020000 		HRLZI	XX		;PRELOAD AC WITH A FLOATING ONE
 25190	044256	270 00 0 00 070323 		ADD	[XX,,0]		;ADD A FLOATING ONE TO ITSELF
 25191	044257	312 00 0 00 070324 		CAME	[XX+XX,,0]	;CHECK ADDER UPON FAILURE
 25192						STOP		^
 25193	044260	254 04 0 00 044261 		HALT	.+1		;TEST FAILED IF PROGRAM HALTS HERE
 25194	044261	324 00 0 00 044262 		JUMPA	.+1		;IF TEST FAILS, CHANGE THIS INSTRUCTION (JUMPA .+1) TO
 25195									;JUMPA X (X IS THE ADDRESS OF THE FIRST INSTRUCTION
 25196									;IN THE SUBTEST) TO LOOP ON ERROR^
 25197
 25198					;**********
DFKAA PDP-10 KL10 BASIC INSTRUCTION DIAGNOSTIC (1) VER 0,2	MACRO %53B(1254)-4 11:50 11-Nov-24 Page 88-13
DFKAA3	MAC	13-Jan-89 10:22		SUPPLEMENTARY ADDER TESTS - FLT 1 + FLT 1

 25199
 25200
 25201					;THIS TEST VERIFIES THAT THE RESULT OF A FLOATING ONE
 25202					;ADDED TO A FLOATING ONE IS A FLOATING ONE
 25203					;PLACED ONE BIT POSITION LEFT OF THE ORIGINAL FLOATING ONE.
 25204					;THIS TEST IS REPEATED 36 TIMES TO FLOAT A ONE THRU ALL 36 BITS OF THE ADDER.
 25205					;THIS TEST IS DESIGNED TO TEST THE ADDER AND RELATED DATA PATHS ONLY.
 25206
 25207			045741		SN=SN+1
 25208			040000			XX=XX+XX
 25209						IFE	XX,<XX=1>
 25210	044262	515 00 0 00 040000 		HRLZI	XX		;PRELOAD AC WITH A FLOATING ONE
 25211	044263	270 00 0 00 070324 		ADD	[XX,,0]		;ADD A FLOATING ONE TO ITSELF
 25212	044264	312 00 0 00 070325 		CAME	[XX+XX,,0]	;CHECK ADDER UPON FAILURE
 25213						STOP		^
 25214	044265	254 04 0 00 044266 		HALT	.+1		;TEST FAILED IF PROGRAM HALTS HERE
 25215	044266	324 00 0 00 044267 		JUMPA	.+1		;IF TEST FAILS, CHANGE THIS INSTRUCTION (JUMPA .+1) TO
 25216									;JUMPA X (X IS THE ADDRESS OF THE FIRST INSTRUCTION
 25217									;IN THE SUBTEST) TO LOOP ON ERROR^
 25218
 25219					;**********
 25220
 25221
 25222					;THIS TEST VERIFIES THAT THE RESULT OF A FLOATING ONE
 25223					;ADDED TO A FLOATING ONE IS A FLOATING ONE
 25224					;PLACED ONE BIT POSITION LEFT OF THE ORIGINAL FLOATING ONE.
 25225					;THIS TEST IS REPEATED 36 TIMES TO FLOAT A ONE THRU ALL 36 BITS OF THE ADDER.
 25226					;THIS TEST IS DESIGNED TO TEST THE ADDER AND RELATED DATA PATHS ONLY.
 25227
 25228			045742		SN=SN+1
 25229			100000			XX=XX+XX
 25230						IFE	XX,<XX=1>
 25231	044267	515 00 0 00 100000 		HRLZI	XX		;PRELOAD AC WITH A FLOATING ONE
 25232	044270	270 00 0 00 070325 		ADD	[XX,,0]		;ADD A FLOATING ONE TO ITSELF
 25233	044271	312 00 0 00 070326 		CAME	[XX+XX,,0]	;CHECK ADDER UPON FAILURE
 25234						STOP		^
 25235	044272	254 04 0 00 044273 		HALT	.+1		;TEST FAILED IF PROGRAM HALTS HERE
 25236	044273	324 00 0 00 044274 		JUMPA	.+1		;IF TEST FAILS, CHANGE THIS INSTRUCTION (JUMPA .+1) TO
 25237									;JUMPA X (X IS THE ADDRESS OF THE FIRST INSTRUCTION
 25238									;IN THE SUBTEST) TO LOOP ON ERROR^
 25239
 25240					;**********
 25241
 25242
 25243					;THIS TEST VERIFIES THAT THE RESULT OF A FLOATING ONE
 25244					;ADDED TO A FLOATING ONE IS A FLOATING ONE
 25245					;PLACED ONE BIT POSITION LEFT OF THE ORIGINAL FLOATING ONE.
 25246					;THIS TEST IS REPEATED 36 TIMES TO FLOAT A ONE THRU ALL 36 BITS OF THE ADDER.
 25247					;THIS TEST IS DESIGNED TO TEST THE ADDER AND RELATED DATA PATHS ONLY.
 25248
 25249			045743		SN=SN+1
 25250			200000			XX=XX+XX
 25251						IFE	XX,<XX=1>
 25252	044274	515 00 0 00 200000 		HRLZI	XX		;PRELOAD AC WITH A FLOATING ONE
 25253	044275	270 00 0 00 070326 		ADD	[XX,,0]		;ADD A FLOATING ONE TO ITSELF
DFKAA PDP-10 KL10 BASIC INSTRUCTION DIAGNOSTIC (1) VER 0,2	MACRO %53B(1254)-4 11:50 11-Nov-24 Page 88-14
DFKAA3	MAC	13-Jan-89 10:22		SUPPLEMENTARY ADDER TESTS - FLT 1 + FLT 1

 25254	044276	312 00 0 00 070256 		CAME	[XX+XX,,0]	;CHECK ADDER UPON FAILURE
 25255						STOP		^
 25256	044277	254 04 0 00 044300 		HALT	.+1		;TEST FAILED IF PROGRAM HALTS HERE
 25257	044300	324 00 0 00 044301 		JUMPA	.+1		;IF TEST FAILS, CHANGE THIS INSTRUCTION (JUMPA .+1) TO
 25258									;JUMPA X (X IS THE ADDRESS OF THE FIRST INSTRUCTION
 25259									;IN THE SUBTEST) TO LOOP ON ERROR^
 25260
 25261					;**********
 25262
 25263					;THIS TEST VERIFIES THAT THE RESULT OF A FLOATING ONE
 25264					;ADDED TO A FLOATING ONE IS A FLOATING ONE
 25265					;PLACED ONE BIT POSITION LEFT OF THE ORIGINAL FLOATING ONE.
 25266					;THIS TEST IS REPEATED 36 TIMES TO FLOAT A ONE THRU ALL 36 BITS OF THE ADDER.
 25267					;THIS TEST IS DESIGNED TO TEST THE ADDER AND RELATED DATA PATHS ONLY.
 25268
 25269			045744		SN=SN+1
 25270			400000			XX=XX+XX
 25271						IFE	XX,<XX=1>
 25272	044301	515 00 0 00 400000 		HRLZI	XX		;PRELOAD AC WITH A FLOATING ONE
 25273	044302	270 00 0 00 070256 		ADD	[XX,,0]		;ADD A FLOATING ONE TO ITSELF
 25274	044303	312 00 0 00 070253 		CAME	[0,,0]		;CHECK ADDER UPON FAILURE
 25275						STOP		^
 25276	044304	254 04 0 00 044305 		HALT	.+1		;TEST FAILED IF PROGRAM HALTS HERE
 25277	044305	324 00 0 00 044306 		JUMPA	.+1		;IF TEST FAILS, CHANGE THIS INSTRUCTION (JUMPA .+1) TO
 25278									;JUMPA X (X IS THE ADDRESS OF THE FIRST INSTRUCTION
 25279									;IN THE SUBTEST) TO LOOP ON ERROR^
 25280
 25281					;**********
DFKAA PDP-10 KL10 BASIC INSTRUCTION DIAGNOSTIC (1) VER 0,2	MACRO %53B(1254)-4 11:50 11-Nov-24 Page 89
DFKAA3	MAC	13-Jan-89 10:22		SUPPLEMENTARY ADDER TESTS - FLT 0 + 0FLT

 25282					SUBTTL	SUPPLEMENTARY ADDER TESTS - FLT 0 + 0FLT
 25283
 25284					;**********
 25285
 25286			046000		SN=46000
 25287			000000			XX=0
 25288
 25289					B46000:	REPEAT	^D17,<
 25290					;THIS TEST VERIFIES THAT THE RESULT OF A FLOATING ZERO
 25291					;ADDED TO A FLOATING ZERO IS A FLOATING ZERO
 25292					;PLACED ONE BIT POSITION LEFT OF THE ORIGINAL FLOATING ZERO.
 25293					;THIS TEST IS REPEATED 36 TIMES TO FLOAT A ZERO THRU ALL 36 BITS OF THE ADDER.
 25294					;THIS TEST IS DESIGNED TO TEST THE ADDER AND RELATED DATA PATHS ONLY.
 25295
 25296					SN=SN+1
 25297						XX=<XX+XX+1>&777777
 25298						IFE	<XX-1>,<XX=777776>
 25299						HRROI	XX		;PRELOAD AC WITH A FLOATING ZERO
 25300						ADD	[-1,,XX]	;ADD A FLOATING ZERO TO ITSELF
 25301						CAME	[-1,,<XX+XX>&777777]	;CHECK ADDER UPON FAILURE
 25302						STOP
 25303
 25304					;**********
 25305					>
 25306
 25307					;THIS TEST VERIFIES THAT THE RESULT OF A FLOATING ZERO
 25308					;ADDED TO A FLOATING ZERO IS A FLOATING ZERO
 25309					;PLACED ONE BIT POSITION LEFT OF THE ORIGINAL FLOATING ZERO.
 25310					;THIS TEST IS REPEATED 36 TIMES TO FLOAT A ZERO THRU ALL 36 BITS OF THE ADDER.
 25311					;THIS TEST IS DESIGNED TO TEST THE ADDER AND RELATED DATA PATHS ONLY.
 25312
 25313			046001		SN=SN+1
 25314			000001			XX=<XX+XX+1>&777777
 25315			777776			IFE	<XX-1>,<XX=777776>
 25316	044306	561 00 0 00 777776 		HRROI	XX		;PRELOAD AC WITH A FLOATING ZERO
 25317	044307	270 00 0 00 070333 		ADD	[-1,,XX]	;ADD A FLOATING ZERO TO ITSELF
 25318	044310	312 00 0 00 070437 		CAME	[-1,,<XX+XX>&777777]	;CHECK ADDER UPON FAILURE
 25319						STOP		^
 25320	044311	254 04 0 00 044312 		HALT	.+1		;TEST FAILED IF PROGRAM HALTS HERE
 25321	044312	324 00 0 00 044313 		JUMPA	.+1		;IF TEST FAILS, CHANGE THIS INSTRUCTION (JUMPA .+1) TO
 25322									;JUMPA X (X IS THE ADDRESS OF THE FIRST INSTRUCTION
 25323									;IN THE SUBTEST) TO LOOP ON ERROR^
 25324
 25325					;**********
 25326
 25327
 25328					;THIS TEST VERIFIES THAT THE RESULT OF A FLOATING ZERO
 25329					;ADDED TO A FLOATING ZERO IS A FLOATING ZERO
 25330					;PLACED ONE BIT POSITION LEFT OF THE ORIGINAL FLOATING ZERO.
 25331					;THIS TEST IS REPEATED 36 TIMES TO FLOAT A ZERO THRU ALL 36 BITS OF THE ADDER.
 25332					;THIS TEST IS DESIGNED TO TEST THE ADDER AND RELATED DATA PATHS ONLY.
 25333
 25334			046002		SN=SN+1
 25335			777775			XX=<XX+XX+1>&777777
 25336						IFE	<XX-1>,<XX=777776>
DFKAA PDP-10 KL10 BASIC INSTRUCTION DIAGNOSTIC (1) VER 0,2	MACRO %53B(1254)-4 11:50 11-Nov-24 Page 89-1
DFKAA3	MAC	13-Jan-89 10:22		SUPPLEMENTARY ADDER TESTS - FLT 0 + 0FLT

 25337	044313	561 00 0 00 777775 		HRROI	XX		;PRELOAD AC WITH A FLOATING ZERO
 25338	044314	270 00 0 00 070334 		ADD	[-1,,XX]	;ADD A FLOATING ZERO TO ITSELF
 25339	044315	312 00 0 00 070553 		CAME	[-1,,<XX+XX>&777777]	;CHECK ADDER UPON FAILURE
 25340						STOP		^
 25341	044316	254 04 0 00 044317 		HALT	.+1		;TEST FAILED IF PROGRAM HALTS HERE
 25342	044317	324 00 0 00 044320 		JUMPA	.+1		;IF TEST FAILS, CHANGE THIS INSTRUCTION (JUMPA .+1) TO
 25343									;JUMPA X (X IS THE ADDRESS OF THE FIRST INSTRUCTION
 25344									;IN THE SUBTEST) TO LOOP ON ERROR^
 25345
 25346					;**********
 25347
 25348
 25349					;THIS TEST VERIFIES THAT THE RESULT OF A FLOATING ZERO
 25350					;ADDED TO A FLOATING ZERO IS A FLOATING ZERO
 25351					;PLACED ONE BIT POSITION LEFT OF THE ORIGINAL FLOATING ZERO.
 25352					;THIS TEST IS REPEATED 36 TIMES TO FLOAT A ZERO THRU ALL 36 BITS OF THE ADDER.
 25353					;THIS TEST IS DESIGNED TO TEST THE ADDER AND RELATED DATA PATHS ONLY.
 25354
 25355			046003		SN=SN+1
 25356			777773			XX=<XX+XX+1>&777777
 25357						IFE	<XX-1>,<XX=777776>
 25358	044320	561 00 0 00 777773 		HRROI	XX		;PRELOAD AC WITH A FLOATING ZERO
 25359	044321	270 00 0 00 070335 		ADD	[-1,,XX]	;ADD A FLOATING ZERO TO ITSELF
 25360	044322	312 00 0 00 070554 		CAME	[-1,,<XX+XX>&777777]	;CHECK ADDER UPON FAILURE
 25361						STOP		^
 25362	044323	254 04 0 00 044324 		HALT	.+1		;TEST FAILED IF PROGRAM HALTS HERE
 25363	044324	324 00 0 00 044325 		JUMPA	.+1		;IF TEST FAILS, CHANGE THIS INSTRUCTION (JUMPA .+1) TO
 25364									;JUMPA X (X IS THE ADDRESS OF THE FIRST INSTRUCTION
 25365									;IN THE SUBTEST) TO LOOP ON ERROR^
 25366
 25367					;**********
 25368
 25369
 25370					;THIS TEST VERIFIES THAT THE RESULT OF A FLOATING ZERO
 25371					;ADDED TO A FLOATING ZERO IS A FLOATING ZERO
 25372					;PLACED ONE BIT POSITION LEFT OF THE ORIGINAL FLOATING ZERO.
 25373					;THIS TEST IS REPEATED 36 TIMES TO FLOAT A ZERO THRU ALL 36 BITS OF THE ADDER.
 25374					;THIS TEST IS DESIGNED TO TEST THE ADDER AND RELATED DATA PATHS ONLY.
 25375
 25376			046004		SN=SN+1
 25377			777767			XX=<XX+XX+1>&777777
 25378						IFE	<XX-1>,<XX=777776>
 25379	044325	561 00 0 00 777767 		HRROI	XX		;PRELOAD AC WITH A FLOATING ZERO
 25380	044326	270 00 0 00 070336 		ADD	[-1,,XX]	;ADD A FLOATING ZERO TO ITSELF
 25381	044327	312 00 0 00 070555 		CAME	[-1,,<XX+XX>&777777]	;CHECK ADDER UPON FAILURE
 25382						STOP		^
 25383	044330	254 04 0 00 044331 		HALT	.+1		;TEST FAILED IF PROGRAM HALTS HERE
 25384	044331	324 00 0 00 044332 		JUMPA	.+1		;IF TEST FAILS, CHANGE THIS INSTRUCTION (JUMPA .+1) TO
 25385									;JUMPA X (X IS THE ADDRESS OF THE FIRST INSTRUCTION
 25386									;IN THE SUBTEST) TO LOOP ON ERROR^
 25387
 25388					;**********
 25389
 25390
 25391					;THIS TEST VERIFIES THAT THE RESULT OF A FLOATING ZERO
DFKAA PDP-10 KL10 BASIC INSTRUCTION DIAGNOSTIC (1) VER 0,2	MACRO %53B(1254)-4 11:50 11-Nov-24 Page 89-2
DFKAA3	MAC	13-Jan-89 10:22		SUPPLEMENTARY ADDER TESTS - FLT 0 + 0FLT

 25392					;ADDED TO A FLOATING ZERO IS A FLOATING ZERO
 25393					;PLACED ONE BIT POSITION LEFT OF THE ORIGINAL FLOATING ZERO.
 25394					;THIS TEST IS REPEATED 36 TIMES TO FLOAT A ZERO THRU ALL 36 BITS OF THE ADDER.
 25395					;THIS TEST IS DESIGNED TO TEST THE ADDER AND RELATED DATA PATHS ONLY.
 25396
 25397			046005		SN=SN+1
 25398			777757			XX=<XX+XX+1>&777777
 25399						IFE	<XX-1>,<XX=777776>
 25400	044332	561 00 0 00 777757 		HRROI	XX		;PRELOAD AC WITH A FLOATING ZERO
 25401	044333	270 00 0 00 070337 		ADD	[-1,,XX]	;ADD A FLOATING ZERO TO ITSELF
 25402	044334	312 00 0 00 070556 		CAME	[-1,,<XX+XX>&777777]	;CHECK ADDER UPON FAILURE
 25403						STOP		^
 25404	044335	254 04 0 00 044336 		HALT	.+1		;TEST FAILED IF PROGRAM HALTS HERE
 25405	044336	324 00 0 00 044337 		JUMPA	.+1		;IF TEST FAILS, CHANGE THIS INSTRUCTION (JUMPA .+1) TO
 25406									;JUMPA X (X IS THE ADDRESS OF THE FIRST INSTRUCTION
 25407									;IN THE SUBTEST) TO LOOP ON ERROR^
 25408
 25409					;**********
 25410
 25411
 25412					;THIS TEST VERIFIES THAT THE RESULT OF A FLOATING ZERO
 25413					;ADDED TO A FLOATING ZERO IS A FLOATING ZERO
 25414					;PLACED ONE BIT POSITION LEFT OF THE ORIGINAL FLOATING ZERO.
 25415					;THIS TEST IS REPEATED 36 TIMES TO FLOAT A ZERO THRU ALL 36 BITS OF THE ADDER.
 25416					;THIS TEST IS DESIGNED TO TEST THE ADDER AND RELATED DATA PATHS ONLY.
 25417
 25418			046006		SN=SN+1
 25419			777737			XX=<XX+XX+1>&777777
 25420						IFE	<XX-1>,<XX=777776>
 25421	044337	561 00 0 00 777737 		HRROI	XX		;PRELOAD AC WITH A FLOATING ZERO
 25422	044340	270 00 0 00 070340 		ADD	[-1,,XX]	;ADD A FLOATING ZERO TO ITSELF
 25423	044341	312 00 0 00 070557 		CAME	[-1,,<XX+XX>&777777]	;CHECK ADDER UPON FAILURE
 25424						STOP		^
 25425	044342	254 04 0 00 044343 		HALT	.+1		;TEST FAILED IF PROGRAM HALTS HERE
 25426	044343	324 00 0 00 044344 		JUMPA	.+1		;IF TEST FAILS, CHANGE THIS INSTRUCTION (JUMPA .+1) TO
 25427									;JUMPA X (X IS THE ADDRESS OF THE FIRST INSTRUCTION
 25428									;IN THE SUBTEST) TO LOOP ON ERROR^
 25429
 25430					;**********
 25431
 25432
 25433					;THIS TEST VERIFIES THAT THE RESULT OF A FLOATING ZERO
 25434					;ADDED TO A FLOATING ZERO IS A FLOATING ZERO
 25435					;PLACED ONE BIT POSITION LEFT OF THE ORIGINAL FLOATING ZERO.
 25436					;THIS TEST IS REPEATED 36 TIMES TO FLOAT A ZERO THRU ALL 36 BITS OF THE ADDER.
 25437					;THIS TEST IS DESIGNED TO TEST THE ADDER AND RELATED DATA PATHS ONLY.
 25438
 25439			046007		SN=SN+1
 25440			777677			XX=<XX+XX+1>&777777
 25441						IFE	<XX-1>,<XX=777776>
 25442	044344	561 00 0 00 777677 		HRROI	XX		;PRELOAD AC WITH A FLOATING ZERO
 25443	044345	270 00 0 00 070341 		ADD	[-1,,XX]	;ADD A FLOATING ZERO TO ITSELF
 25444	044346	312 00 0 00 070560 		CAME	[-1,,<XX+XX>&777777]	;CHECK ADDER UPON FAILURE
 25445						STOP		^
 25446	044347	254 04 0 00 044350 		HALT	.+1		;TEST FAILED IF PROGRAM HALTS HERE
DFKAA PDP-10 KL10 BASIC INSTRUCTION DIAGNOSTIC (1) VER 0,2	MACRO %53B(1254)-4 11:50 11-Nov-24 Page 89-3
DFKAA3	MAC	13-Jan-89 10:22		SUPPLEMENTARY ADDER TESTS - FLT 0 + 0FLT

 25447	044350	324 00 0 00 044351 		JUMPA	.+1		;IF TEST FAILS, CHANGE THIS INSTRUCTION (JUMPA .+1) TO
 25448									;JUMPA X (X IS THE ADDRESS OF THE FIRST INSTRUCTION
 25449									;IN THE SUBTEST) TO LOOP ON ERROR^
 25450
 25451					;**********
 25452
 25453
 25454					;THIS TEST VERIFIES THAT THE RESULT OF A FLOATING ZERO
 25455					;ADDED TO A FLOATING ZERO IS A FLOATING ZERO
 25456					;PLACED ONE BIT POSITION LEFT OF THE ORIGINAL FLOATING ZERO.
 25457					;THIS TEST IS REPEATED 36 TIMES TO FLOAT A ZERO THRU ALL 36 BITS OF THE ADDER.
 25458					;THIS TEST IS DESIGNED TO TEST THE ADDER AND RELATED DATA PATHS ONLY.
 25459
 25460			046010		SN=SN+1
 25461			777577			XX=<XX+XX+1>&777777
 25462						IFE	<XX-1>,<XX=777776>
 25463	044351	561 00 0 00 777577 		HRROI	XX		;PRELOAD AC WITH A FLOATING ZERO
 25464	044352	270 00 0 00 070342 		ADD	[-1,,XX]	;ADD A FLOATING ZERO TO ITSELF
 25465	044353	312 00 0 00 070561 		CAME	[-1,,<XX+XX>&777777]	;CHECK ADDER UPON FAILURE
 25466						STOP		^
 25467	044354	254 04 0 00 044355 		HALT	.+1		;TEST FAILED IF PROGRAM HALTS HERE
 25468	044355	324 00 0 00 044356 		JUMPA	.+1		;IF TEST FAILS, CHANGE THIS INSTRUCTION (JUMPA .+1) TO
 25469									;JUMPA X (X IS THE ADDRESS OF THE FIRST INSTRUCTION
 25470									;IN THE SUBTEST) TO LOOP ON ERROR^
 25471
 25472					;**********
 25473
 25474
 25475					;THIS TEST VERIFIES THAT THE RESULT OF A FLOATING ZERO
 25476					;ADDED TO A FLOATING ZERO IS A FLOATING ZERO
 25477					;PLACED ONE BIT POSITION LEFT OF THE ORIGINAL FLOATING ZERO.
 25478					;THIS TEST IS REPEATED 36 TIMES TO FLOAT A ZERO THRU ALL 36 BITS OF THE ADDER.
 25479					;THIS TEST IS DESIGNED TO TEST THE ADDER AND RELATED DATA PATHS ONLY.
 25480
 25481			046011		SN=SN+1
 25482			777377			XX=<XX+XX+1>&777777
 25483						IFE	<XX-1>,<XX=777776>
 25484	044356	561 00 0 00 777377 		HRROI	XX		;PRELOAD AC WITH A FLOATING ZERO
 25485	044357	270 00 0 00 070343 		ADD	[-1,,XX]	;ADD A FLOATING ZERO TO ITSELF
 25486	044360	312 00 0 00 070562 		CAME	[-1,,<XX+XX>&777777]	;CHECK ADDER UPON FAILURE
 25487						STOP		^
 25488	044361	254 04 0 00 044362 		HALT	.+1		;TEST FAILED IF PROGRAM HALTS HERE
 25489	044362	324 00 0 00 044363 		JUMPA	.+1		;IF TEST FAILS, CHANGE THIS INSTRUCTION (JUMPA .+1) TO
 25490									;JUMPA X (X IS THE ADDRESS OF THE FIRST INSTRUCTION
 25491									;IN THE SUBTEST) TO LOOP ON ERROR^
 25492
 25493					;**********
 25494
 25495
 25496					;THIS TEST VERIFIES THAT THE RESULT OF A FLOATING ZERO
 25497					;ADDED TO A FLOATING ZERO IS A FLOATING ZERO
 25498					;PLACED ONE BIT POSITION LEFT OF THE ORIGINAL FLOATING ZERO.
 25499					;THIS TEST IS REPEATED 36 TIMES TO FLOAT A ZERO THRU ALL 36 BITS OF THE ADDER.
 25500					;THIS TEST IS DESIGNED TO TEST THE ADDER AND RELATED DATA PATHS ONLY.
 25501
DFKAA PDP-10 KL10 BASIC INSTRUCTION DIAGNOSTIC (1) VER 0,2	MACRO %53B(1254)-4 11:50 11-Nov-24 Page 89-4
DFKAA3	MAC	13-Jan-89 10:22		SUPPLEMENTARY ADDER TESTS - FLT 0 + 0FLT

 25502			046012		SN=SN+1
 25503			776777			XX=<XX+XX+1>&777777
 25504						IFE	<XX-1>,<XX=777776>
 25505	044363	561 00 0 00 776777 		HRROI	XX		;PRELOAD AC WITH A FLOATING ZERO
 25506	044364	270 00 0 00 070344 		ADD	[-1,,XX]	;ADD A FLOATING ZERO TO ITSELF
 25507	044365	312 00 0 00 070563 		CAME	[-1,,<XX+XX>&777777]	;CHECK ADDER UPON FAILURE
 25508						STOP		^
 25509	044366	254 04 0 00 044367 		HALT	.+1		;TEST FAILED IF PROGRAM HALTS HERE
 25510	044367	324 00 0 00 044370 		JUMPA	.+1		;IF TEST FAILS, CHANGE THIS INSTRUCTION (JUMPA .+1) TO
 25511									;JUMPA X (X IS THE ADDRESS OF THE FIRST INSTRUCTION
 25512									;IN THE SUBTEST) TO LOOP ON ERROR^
 25513
 25514					;**********
 25515
 25516
 25517					;THIS TEST VERIFIES THAT THE RESULT OF A FLOATING ZERO
 25518					;ADDED TO A FLOATING ZERO IS A FLOATING ZERO
 25519					;PLACED ONE BIT POSITION LEFT OF THE ORIGINAL FLOATING ZERO.
 25520					;THIS TEST IS REPEATED 36 TIMES TO FLOAT A ZERO THRU ALL 36 BITS OF THE ADDER.
 25521					;THIS TEST IS DESIGNED TO TEST THE ADDER AND RELATED DATA PATHS ONLY.
 25522
 25523			046013		SN=SN+1
 25524			775777			XX=<XX+XX+1>&777777
 25525						IFE	<XX-1>,<XX=777776>
 25526	044370	561 00 0 00 775777 		HRROI	XX		;PRELOAD AC WITH A FLOATING ZERO
 25527	044371	270 00 0 00 070345 		ADD	[-1,,XX]	;ADD A FLOATING ZERO TO ITSELF
 25528	044372	312 00 0 00 070564 		CAME	[-1,,<XX+XX>&777777]	;CHECK ADDER UPON FAILURE
 25529						STOP		^
 25530	044373	254 04 0 00 044374 		HALT	.+1		;TEST FAILED IF PROGRAM HALTS HERE
 25531	044374	324 00 0 00 044375 		JUMPA	.+1		;IF TEST FAILS, CHANGE THIS INSTRUCTION (JUMPA .+1) TO
 25532									;JUMPA X (X IS THE ADDRESS OF THE FIRST INSTRUCTION
 25533									;IN THE SUBTEST) TO LOOP ON ERROR^
 25534
 25535					;**********
 25536
 25537
 25538					;THIS TEST VERIFIES THAT THE RESULT OF A FLOATING ZERO
 25539					;ADDED TO A FLOATING ZERO IS A FLOATING ZERO
 25540					;PLACED ONE BIT POSITION LEFT OF THE ORIGINAL FLOATING ZERO.
 25541					;THIS TEST IS REPEATED 36 TIMES TO FLOAT A ZERO THRU ALL 36 BITS OF THE ADDER.
 25542					;THIS TEST IS DESIGNED TO TEST THE ADDER AND RELATED DATA PATHS ONLY.
 25543
 25544			046014		SN=SN+1
 25545			773777			XX=<XX+XX+1>&777777
 25546						IFE	<XX-1>,<XX=777776>
 25547	044375	561 00 0 00 773777 		HRROI	XX		;PRELOAD AC WITH A FLOATING ZERO
 25548	044376	270 00 0 00 070346 		ADD	[-1,,XX]	;ADD A FLOATING ZERO TO ITSELF
 25549	044377	312 00 0 00 070565 		CAME	[-1,,<XX+XX>&777777]	;CHECK ADDER UPON FAILURE
 25550						STOP		^
 25551	044400	254 04 0 00 044401 		HALT	.+1		;TEST FAILED IF PROGRAM HALTS HERE
 25552	044401	324 00 0 00 044402 		JUMPA	.+1		;IF TEST FAILS, CHANGE THIS INSTRUCTION (JUMPA .+1) TO
 25553									;JUMPA X (X IS THE ADDRESS OF THE FIRST INSTRUCTION
 25554									;IN THE SUBTEST) TO LOOP ON ERROR^
 25555
 25556					;**********
DFKAA PDP-10 KL10 BASIC INSTRUCTION DIAGNOSTIC (1) VER 0,2	MACRO %53B(1254)-4 11:50 11-Nov-24 Page 89-5
DFKAA3	MAC	13-Jan-89 10:22		SUPPLEMENTARY ADDER TESTS - FLT 0 + 0FLT

 25557
 25558
 25559					;THIS TEST VERIFIES THAT THE RESULT OF A FLOATING ZERO
 25560					;ADDED TO A FLOATING ZERO IS A FLOATING ZERO
 25561					;PLACED ONE BIT POSITION LEFT OF THE ORIGINAL FLOATING ZERO.
 25562					;THIS TEST IS REPEATED 36 TIMES TO FLOAT A ZERO THRU ALL 36 BITS OF THE ADDER.
 25563					;THIS TEST IS DESIGNED TO TEST THE ADDER AND RELATED DATA PATHS ONLY.
 25564
 25565			046015		SN=SN+1
 25566			767777			XX=<XX+XX+1>&777777
 25567						IFE	<XX-1>,<XX=777776>
 25568	044402	561 00 0 00 767777 		HRROI	XX		;PRELOAD AC WITH A FLOATING ZERO
 25569	044403	270 00 0 00 070347 		ADD	[-1,,XX]	;ADD A FLOATING ZERO TO ITSELF
 25570	044404	312 00 0 00 070566 		CAME	[-1,,<XX+XX>&777777]	;CHECK ADDER UPON FAILURE
 25571						STOP		^
 25572	044405	254 04 0 00 044406 		HALT	.+1		;TEST FAILED IF PROGRAM HALTS HERE
 25573	044406	324 00 0 00 044407 		JUMPA	.+1		;IF TEST FAILS, CHANGE THIS INSTRUCTION (JUMPA .+1) TO
 25574									;JUMPA X (X IS THE ADDRESS OF THE FIRST INSTRUCTION
 25575									;IN THE SUBTEST) TO LOOP ON ERROR^
 25576
 25577					;**********
 25578
 25579
 25580					;THIS TEST VERIFIES THAT THE RESULT OF A FLOATING ZERO
 25581					;ADDED TO A FLOATING ZERO IS A FLOATING ZERO
 25582					;PLACED ONE BIT POSITION LEFT OF THE ORIGINAL FLOATING ZERO.
 25583					;THIS TEST IS REPEATED 36 TIMES TO FLOAT A ZERO THRU ALL 36 BITS OF THE ADDER.
 25584					;THIS TEST IS DESIGNED TO TEST THE ADDER AND RELATED DATA PATHS ONLY.
 25585
 25586			046016		SN=SN+1
 25587			757777			XX=<XX+XX+1>&777777
 25588						IFE	<XX-1>,<XX=777776>
 25589	044407	561 00 0 00 757777 		HRROI	XX		;PRELOAD AC WITH A FLOATING ZERO
 25590	044410	270 00 0 00 070350 		ADD	[-1,,XX]	;ADD A FLOATING ZERO TO ITSELF
 25591	044411	312 00 0 00 070567 		CAME	[-1,,<XX+XX>&777777]	;CHECK ADDER UPON FAILURE
 25592						STOP		^
 25593	044412	254 04 0 00 044413 		HALT	.+1		;TEST FAILED IF PROGRAM HALTS HERE
 25594	044413	324 00 0 00 044414 		JUMPA	.+1		;IF TEST FAILS, CHANGE THIS INSTRUCTION (JUMPA .+1) TO
 25595									;JUMPA X (X IS THE ADDRESS OF THE FIRST INSTRUCTION
 25596									;IN THE SUBTEST) TO LOOP ON ERROR^
 25597
 25598					;**********
 25599
 25600
 25601					;THIS TEST VERIFIES THAT THE RESULT OF A FLOATING ZERO
 25602					;ADDED TO A FLOATING ZERO IS A FLOATING ZERO
 25603					;PLACED ONE BIT POSITION LEFT OF THE ORIGINAL FLOATING ZERO.
 25604					;THIS TEST IS REPEATED 36 TIMES TO FLOAT A ZERO THRU ALL 36 BITS OF THE ADDER.
 25605					;THIS TEST IS DESIGNED TO TEST THE ADDER AND RELATED DATA PATHS ONLY.
 25606
 25607			046017		SN=SN+1
 25608			737777			XX=<XX+XX+1>&777777
 25609						IFE	<XX-1>,<XX=777776>
 25610	044414	561 00 0 00 737777 		HRROI	XX		;PRELOAD AC WITH A FLOATING ZERO
 25611	044415	270 00 0 00 070351 		ADD	[-1,,XX]	;ADD A FLOATING ZERO TO ITSELF
DFKAA PDP-10 KL10 BASIC INSTRUCTION DIAGNOSTIC (1) VER 0,2	MACRO %53B(1254)-4 11:50 11-Nov-24 Page 89-6
DFKAA3	MAC	13-Jan-89 10:22		SUPPLEMENTARY ADDER TESTS - FLT 0 + 0FLT

 25612	044416	312 00 0 00 070570 		CAME	[-1,,<XX+XX>&777777]	;CHECK ADDER UPON FAILURE
 25613						STOP		^
 25614	044417	254 04 0 00 044420 		HALT	.+1		;TEST FAILED IF PROGRAM HALTS HERE
 25615	044420	324 00 0 00 044421 		JUMPA	.+1		;IF TEST FAILS, CHANGE THIS INSTRUCTION (JUMPA .+1) TO
 25616									;JUMPA X (X IS THE ADDRESS OF THE FIRST INSTRUCTION
 25617									;IN THE SUBTEST) TO LOOP ON ERROR^
 25618
 25619					;**********
 25620
 25621
 25622					;THIS TEST VERIFIES THAT THE RESULT OF A FLOATING ZERO
 25623					;ADDED TO A FLOATING ZERO IS A FLOATING ZERO
 25624					;PLACED ONE BIT POSITION LEFT OF THE ORIGINAL FLOATING ZERO.
 25625					;THIS TEST IS REPEATED 36 TIMES TO FLOAT A ZERO THRU ALL 36 BITS OF THE ADDER.
 25626					;THIS TEST IS DESIGNED TO TEST THE ADDER AND RELATED DATA PATHS ONLY.
 25627
 25628			046020		SN=SN+1
 25629			677777			XX=<XX+XX+1>&777777
 25630						IFE	<XX-1>,<XX=777776>
 25631	044421	561 00 0 00 677777 		HRROI	XX		;PRELOAD AC WITH A FLOATING ZERO
 25632	044422	270 00 0 00 070352 		ADD	[-1,,XX]	;ADD A FLOATING ZERO TO ITSELF
 25633	044423	312 00 0 00 070571 		CAME	[-1,,<XX+XX>&777777]	;CHECK ADDER UPON FAILURE
 25634						STOP		^
 25635	044424	254 04 0 00 044425 		HALT	.+1		;TEST FAILED IF PROGRAM HALTS HERE
 25636	044425	324 00 0 00 044426 		JUMPA	.+1		;IF TEST FAILS, CHANGE THIS INSTRUCTION (JUMPA .+1) TO
 25637									;JUMPA X (X IS THE ADDRESS OF THE FIRST INSTRUCTION
 25638									;IN THE SUBTEST) TO LOOP ON ERROR^
 25639
 25640					;**********
 25641
 25642
 25643					;THIS TEST VERIFIES THAT THE RESULT OF A FLOATING ZERO
 25644					;ADDED TO A FLOATING ZERO IS A FLOATING ZERO
 25645					;PLACED ONE BIT POSITION LEFT OF THE ORIGINAL FLOATING ZERO.
 25646					;THIS TEST IS REPEATED 36 TIMES TO FLOAT A ZERO THRU ALL 36 BITS OF THE ADDER.
 25647					;THIS TEST IS DESIGNED TO TEST THE ADDER AND RELATED DATA PATHS ONLY.
 25648
 25649			046021		SN=SN+1
 25650			577777			XX=<XX+XX+1>&777777
 25651						IFE	<XX-1>,<XX=777776>
 25652	044426	561 00 0 00 577777 		HRROI	XX		;PRELOAD AC WITH A FLOATING ZERO
 25653	044427	270 00 0 00 070353 		ADD	[-1,,XX]	;ADD A FLOATING ZERO TO ITSELF
 25654	044430	312 00 0 00 070572 		CAME	[-1,,<XX+XX>&777777]	;CHECK ADDER UPON FAILURE
 25655						STOP		^
 25656	044431	254 04 0 00 044432 		HALT	.+1		;TEST FAILED IF PROGRAM HALTS HERE
 25657	044432	324 00 0 00 044433 		JUMPA	.+1		;IF TEST FAILS, CHANGE THIS INSTRUCTION (JUMPA .+1) TO
 25658									;JUMPA X (X IS THE ADDRESS OF THE FIRST INSTRUCTION
 25659									;IN THE SUBTEST) TO LOOP ON ERROR^
 25660
 25661					;**********
 25662
 25663					PAGE
DFKAA PDP-10 KL10 BASIC INSTRUCTION DIAGNOSTIC (1) VER 0,2	MACRO %53B(1254)-4 11:50 11-Nov-24 Page 89-7
DFKAA3	MAC	13-Jan-89 10:22		SUPPLEMENTARY ADDER TESTS - FLT 0 + 0FLT

 25664					;THIS TEST VERIFIES THAT THE RESULT OF A FLOATING ZERO
 25665					;ADDED TO A FLOATING ZERO IS A FLOATING ZERO
 25666					;PLACED ONE BIT POSITION LEFT OF THE ORIGINAL FLOATING ZERO.
 25667					;THIS TEST IS REPEATED 36 TIMES TO FLOAT A ZERO THRU ALL 36 BITS OF THE ADDER.
 25668					;THIS TEST IS DESIGNED TO TEST THE ADDER AND RELATED DATA PATHS ONLY.
 25669
 25670			046022		SN=SN+1
 25671			377777			XX=<XX+XX+1>&777777
 25672	044433	561 00 0 00 377777 		HRROI	XX		;PRELOAD AC WITH A FLOATING ZERO
 25673	044434	270 00 0 00 070354 		ADD	[-1,,XX]	;ADD A FLOATING ZERO TO ITSELF
 25674	044435	312 00 0 00 070461 		CAME	[-2,,-2]	;CHECK ADDER UPON FAILURE
 25675						STOP		^
 25676	044436	254 04 0 00 044437 		HALT	.+1		;TEST FAILED IF PROGRAM HALTS HERE
 25677	044437	324 00 0 00 044440 		JUMPA	.+1		;IF TEST FAILS, CHANGE THIS INSTRUCTION (JUMPA .+1) TO
 25678									;JUMPA X (X IS THE ADDRESS OF THE FIRST INSTRUCTION
 25679									;IN THE SUBTEST) TO LOOP ON ERROR^
 25680
 25681					;**********
 25682
 25683			000000			XX=0
 25684
 25685						REPEAT	^D18,<
 25686					;THIS TEST VERIFIES THAT THE RESULT OF A FLOATING ZERO
 25687					;ADDED TO A FLOATING ZERO IS A FLOATING ZERO
 25688					;PLACED ONE BIT POSITION LEFT OF THE ORIGINAL FLOATING ZERO.
 25689					;THIS TEST IS REPEATED 36 TIMES TO FLOAT A ZERO THRU ALL 36 BITS OF THE ADDER.
 25690					;THIS TEST IS DESIGNED TO TEST THE ADDER AND RELATED DATA PATHS ONLY.
 25691
 25692					SN=SN+1
 25693						XX=<XX+XX+1>&777777
 25694						IFE	<XX-1>,<XX=777776>
 25695						HRLOI	XX		;PRELOAD AC WITH A FLOATING ZERO
 25696						ADD	[XX,,-1]	;ADD A FLOATING ZERO TO ITSELF
 25697						CAME	[<XX+XX+1>&777777,,-2]	;CHECK ADDER UPON FAILURE
 25698						STOP
 25699
 25700					;**********
 25701					>
 25702
 25703					;THIS TEST VERIFIES THAT THE RESULT OF A FLOATING ZERO
 25704					;ADDED TO A FLOATING ZERO IS A FLOATING ZERO
 25705					;PLACED ONE BIT POSITION LEFT OF THE ORIGINAL FLOATING ZERO.
 25706					;THIS TEST IS REPEATED 36 TIMES TO FLOAT A ZERO THRU ALL 36 BITS OF THE ADDER.
 25707					;THIS TEST IS DESIGNED TO TEST THE ADDER AND RELATED DATA PATHS ONLY.
 25708
 25709			046023		SN=SN+1
 25710			000001			XX=<XX+XX+1>&777777
 25711			777776			IFE	<XX-1>,<XX=777776>
 25712	044440	525 00 0 00 777776 		HRLOI	XX		;PRELOAD AC WITH A FLOATING ZERO
 25713	044441	270 00 0 00 070355 		ADD	[XX,,-1]	;ADD A FLOATING ZERO TO ITSELF
 25714	044442	312 00 0 00 070573 		CAME	[<XX+XX+1>&777777,,-2]	;CHECK ADDER UPON FAILURE
 25715						STOP		^
 25716	044443	254 04 0 00 044444 		HALT	.+1		;TEST FAILED IF PROGRAM HALTS HERE
 25717	044444	324 00 0 00 044445 		JUMPA	.+1		;IF TEST FAILS, CHANGE THIS INSTRUCTION (JUMPA .+1) TO
 25718									;JUMPA X (X IS THE ADDRESS OF THE FIRST INSTRUCTION
DFKAA PDP-10 KL10 BASIC INSTRUCTION DIAGNOSTIC (1) VER 0,2	MACRO %53B(1254)-4 11:50 11-Nov-24 Page 89-8
DFKAA3	MAC	13-Jan-89 10:22		SUPPLEMENTARY ADDER TESTS - FLT 0 + 0FLT

 25719									;IN THE SUBTEST) TO LOOP ON ERROR^
 25720
 25721					;**********
 25722
 25723
 25724					;THIS TEST VERIFIES THAT THE RESULT OF A FLOATING ZERO
 25725					;ADDED TO A FLOATING ZERO IS A FLOATING ZERO
 25726					;PLACED ONE BIT POSITION LEFT OF THE ORIGINAL FLOATING ZERO.
 25727					;THIS TEST IS REPEATED 36 TIMES TO FLOAT A ZERO THRU ALL 36 BITS OF THE ADDER.
 25728					;THIS TEST IS DESIGNED TO TEST THE ADDER AND RELATED DATA PATHS ONLY.
 25729
 25730			046024		SN=SN+1
 25731			777775			XX=<XX+XX+1>&777777
 25732						IFE	<XX-1>,<XX=777776>
 25733	044445	525 00 0 00 777775 		HRLOI	XX		;PRELOAD AC WITH A FLOATING ZERO
 25734	044446	270 00 0 00 070356 		ADD	[XX,,-1]	;ADD A FLOATING ZERO TO ITSELF
 25735	044447	312 00 0 00 070574 		CAME	[<XX+XX+1>&777777,,-2]	;CHECK ADDER UPON FAILURE
 25736						STOP		^
 25737	044450	254 04 0 00 044451 		HALT	.+1		;TEST FAILED IF PROGRAM HALTS HERE
 25738	044451	324 00 0 00 044452 		JUMPA	.+1		;IF TEST FAILS, CHANGE THIS INSTRUCTION (JUMPA .+1) TO
 25739									;JUMPA X (X IS THE ADDRESS OF THE FIRST INSTRUCTION
 25740									;IN THE SUBTEST) TO LOOP ON ERROR^
 25741
 25742					;**********
 25743
 25744
 25745					;THIS TEST VERIFIES THAT THE RESULT OF A FLOATING ZERO
 25746					;ADDED TO A FLOATING ZERO IS A FLOATING ZERO
 25747					;PLACED ONE BIT POSITION LEFT OF THE ORIGINAL FLOATING ZERO.
 25748					;THIS TEST IS REPEATED 36 TIMES TO FLOAT A ZERO THRU ALL 36 BITS OF THE ADDER.
 25749					;THIS TEST IS DESIGNED TO TEST THE ADDER AND RELATED DATA PATHS ONLY.
 25750
 25751			046025		SN=SN+1
 25752			777773			XX=<XX+XX+1>&777777
 25753						IFE	<XX-1>,<XX=777776>
 25754	044452	525 00 0 00 777773 		HRLOI	XX		;PRELOAD AC WITH A FLOATING ZERO
 25755	044453	270 00 0 00 070357 		ADD	[XX,,-1]	;ADD A FLOATING ZERO TO ITSELF
 25756	044454	312 00 0 00 070575 		CAME	[<XX+XX+1>&777777,,-2]	;CHECK ADDER UPON FAILURE
 25757						STOP		^
 25758	044455	254 04 0 00 044456 		HALT	.+1		;TEST FAILED IF PROGRAM HALTS HERE
 25759	044456	324 00 0 00 044457 		JUMPA	.+1		;IF TEST FAILS, CHANGE THIS INSTRUCTION (JUMPA .+1) TO
 25760									;JUMPA X (X IS THE ADDRESS OF THE FIRST INSTRUCTION
 25761									;IN THE SUBTEST) TO LOOP ON ERROR^
 25762
 25763					;**********
 25764
 25765
 25766					;THIS TEST VERIFIES THAT THE RESULT OF A FLOATING ZERO
 25767					;ADDED TO A FLOATING ZERO IS A FLOATING ZERO
 25768					;PLACED ONE BIT POSITION LEFT OF THE ORIGINAL FLOATING ZERO.
 25769					;THIS TEST IS REPEATED 36 TIMES TO FLOAT A ZERO THRU ALL 36 BITS OF THE ADDER.
 25770					;THIS TEST IS DESIGNED TO TEST THE ADDER AND RELATED DATA PATHS ONLY.
 25771
 25772			046026		SN=SN+1
 25773			777767			XX=<XX+XX+1>&777777
DFKAA PDP-10 KL10 BASIC INSTRUCTION DIAGNOSTIC (1) VER 0,2	MACRO %53B(1254)-4 11:50 11-Nov-24 Page 89-9
DFKAA3	MAC	13-Jan-89 10:22		SUPPLEMENTARY ADDER TESTS - FLT 0 + 0FLT

 25774						IFE	<XX-1>,<XX=777776>
 25775	044457	525 00 0 00 777767 		HRLOI	XX		;PRELOAD AC WITH A FLOATING ZERO
 25776	044460	270 00 0 00 070360 		ADD	[XX,,-1]	;ADD A FLOATING ZERO TO ITSELF
 25777	044461	312 00 0 00 070576 		CAME	[<XX+XX+1>&777777,,-2]	;CHECK ADDER UPON FAILURE
 25778						STOP		^
 25779	044462	254 04 0 00 044463 		HALT	.+1		;TEST FAILED IF PROGRAM HALTS HERE
 25780	044463	324 00 0 00 044464 		JUMPA	.+1		;IF TEST FAILS, CHANGE THIS INSTRUCTION (JUMPA .+1) TO
 25781									;JUMPA X (X IS THE ADDRESS OF THE FIRST INSTRUCTION
 25782									;IN THE SUBTEST) TO LOOP ON ERROR^
 25783
 25784					;**********
 25785
 25786
 25787					;THIS TEST VERIFIES THAT THE RESULT OF A FLOATING ZERO
 25788					;ADDED TO A FLOATING ZERO IS A FLOATING ZERO
 25789					;PLACED ONE BIT POSITION LEFT OF THE ORIGINAL FLOATING ZERO.
 25790					;THIS TEST IS REPEATED 36 TIMES TO FLOAT A ZERO THRU ALL 36 BITS OF THE ADDER.
 25791					;THIS TEST IS DESIGNED TO TEST THE ADDER AND RELATED DATA PATHS ONLY.
 25792
 25793			046027		SN=SN+1
 25794			777757			XX=<XX+XX+1>&777777
 25795						IFE	<XX-1>,<XX=777776>
 25796	044464	525 00 0 00 777757 		HRLOI	XX		;PRELOAD AC WITH A FLOATING ZERO
 25797	044465	270 00 0 00 070361 		ADD	[XX,,-1]	;ADD A FLOATING ZERO TO ITSELF
 25798	044466	312 00 0 00 070577 		CAME	[<XX+XX+1>&777777,,-2]	;CHECK ADDER UPON FAILURE
 25799						STOP		^
 25800	044467	254 04 0 00 044470 		HALT	.+1		;TEST FAILED IF PROGRAM HALTS HERE
 25801	044470	324 00 0 00 044471 		JUMPA	.+1		;IF TEST FAILS, CHANGE THIS INSTRUCTION (JUMPA .+1) TO
 25802									;JUMPA X (X IS THE ADDRESS OF THE FIRST INSTRUCTION
 25803									;IN THE SUBTEST) TO LOOP ON ERROR^
 25804
 25805					;**********
 25806
 25807
 25808					;THIS TEST VERIFIES THAT THE RESULT OF A FLOATING ZERO
 25809					;ADDED TO A FLOATING ZERO IS A FLOATING ZERO
 25810					;PLACED ONE BIT POSITION LEFT OF THE ORIGINAL FLOATING ZERO.
 25811					;THIS TEST IS REPEATED 36 TIMES TO FLOAT A ZERO THRU ALL 36 BITS OF THE ADDER.
 25812					;THIS TEST IS DESIGNED TO TEST THE ADDER AND RELATED DATA PATHS ONLY.
 25813
 25814			046030		SN=SN+1
 25815			777737			XX=<XX+XX+1>&777777
 25816						IFE	<XX-1>,<XX=777776>
 25817	044471	525 00 0 00 777737 		HRLOI	XX		;PRELOAD AC WITH A FLOATING ZERO
 25818	044472	270 00 0 00 070362 		ADD	[XX,,-1]	;ADD A FLOATING ZERO TO ITSELF
 25819	044473	312 00 0 00 070600 		CAME	[<XX+XX+1>&777777,,-2]	;CHECK ADDER UPON FAILURE
 25820						STOP		^
 25821	044474	254 04 0 00 044475 		HALT	.+1		;TEST FAILED IF PROGRAM HALTS HERE
 25822	044475	324 00 0 00 044476 		JUMPA	.+1		;IF TEST FAILS, CHANGE THIS INSTRUCTION (JUMPA .+1) TO
 25823									;JUMPA X (X IS THE ADDRESS OF THE FIRST INSTRUCTION
 25824									;IN THE SUBTEST) TO LOOP ON ERROR^
 25825
 25826					;**********
 25827
 25828
DFKAA PDP-10 KL10 BASIC INSTRUCTION DIAGNOSTIC (1) VER 0,2	MACRO %53B(1254)-4 11:50 11-Nov-24 Page 89-10
DFKAA3	MAC	13-Jan-89 10:22		SUPPLEMENTARY ADDER TESTS - FLT 0 + 0FLT

 25829					;THIS TEST VERIFIES THAT THE RESULT OF A FLOATING ZERO
 25830					;ADDED TO A FLOATING ZERO IS A FLOATING ZERO
 25831					;PLACED ONE BIT POSITION LEFT OF THE ORIGINAL FLOATING ZERO.
 25832					;THIS TEST IS REPEATED 36 TIMES TO FLOAT A ZERO THRU ALL 36 BITS OF THE ADDER.
 25833					;THIS TEST IS DESIGNED TO TEST THE ADDER AND RELATED DATA PATHS ONLY.
 25834
 25835			046031		SN=SN+1
 25836			777677			XX=<XX+XX+1>&777777
 25837						IFE	<XX-1>,<XX=777776>
 25838	044476	525 00 0 00 777677 		HRLOI	XX		;PRELOAD AC WITH A FLOATING ZERO
 25839	044477	270 00 0 00 070363 		ADD	[XX,,-1]	;ADD A FLOATING ZERO TO ITSELF
 25840	044500	312 00 0 00 070601 		CAME	[<XX+XX+1>&777777,,-2]	;CHECK ADDER UPON FAILURE
 25841						STOP		^
 25842	044501	254 04 0 00 044502 		HALT	.+1		;TEST FAILED IF PROGRAM HALTS HERE
 25843	044502	324 00 0 00 044503 		JUMPA	.+1		;IF TEST FAILS, CHANGE THIS INSTRUCTION (JUMPA .+1) TO
 25844									;JUMPA X (X IS THE ADDRESS OF THE FIRST INSTRUCTION
 25845									;IN THE SUBTEST) TO LOOP ON ERROR^
 25846
 25847					;**********
 25848
 25849
 25850					;THIS TEST VERIFIES THAT THE RESULT OF A FLOATING ZERO
 25851					;ADDED TO A FLOATING ZERO IS A FLOATING ZERO
 25852					;PLACED ONE BIT POSITION LEFT OF THE ORIGINAL FLOATING ZERO.
 25853					;THIS TEST IS REPEATED 36 TIMES TO FLOAT A ZERO THRU ALL 36 BITS OF THE ADDER.
 25854					;THIS TEST IS DESIGNED TO TEST THE ADDER AND RELATED DATA PATHS ONLY.
 25855
 25856			046032		SN=SN+1
 25857			777577			XX=<XX+XX+1>&777777
 25858						IFE	<XX-1>,<XX=777776>
 25859	044503	525 00 0 00 777577 		HRLOI	XX		;PRELOAD AC WITH A FLOATING ZERO
 25860	044504	270 00 0 00 070364 		ADD	[XX,,-1]	;ADD A FLOATING ZERO TO ITSELF
 25861	044505	312 00 0 00 070602 		CAME	[<XX+XX+1>&777777,,-2]	;CHECK ADDER UPON FAILURE
 25862						STOP		^
 25863	044506	254 04 0 00 044507 		HALT	.+1		;TEST FAILED IF PROGRAM HALTS HERE
 25864	044507	324 00 0 00 044510 		JUMPA	.+1		;IF TEST FAILS, CHANGE THIS INSTRUCTION (JUMPA .+1) TO
 25865									;JUMPA X (X IS THE ADDRESS OF THE FIRST INSTRUCTION
 25866									;IN THE SUBTEST) TO LOOP ON ERROR^
 25867
 25868					;**********
 25869
 25870
 25871					;THIS TEST VERIFIES THAT THE RESULT OF A FLOATING ZERO
 25872					;ADDED TO A FLOATING ZERO IS A FLOATING ZERO
 25873					;PLACED ONE BIT POSITION LEFT OF THE ORIGINAL FLOATING ZERO.
 25874					;THIS TEST IS REPEATED 36 TIMES TO FLOAT A ZERO THRU ALL 36 BITS OF THE ADDER.
 25875					;THIS TEST IS DESIGNED TO TEST THE ADDER AND RELATED DATA PATHS ONLY.
 25876
 25877			046033		SN=SN+1
 25878			777377			XX=<XX+XX+1>&777777
 25879						IFE	<XX-1>,<XX=777776>
 25880	044510	525 00 0 00 777377 		HRLOI	XX		;PRELOAD AC WITH A FLOATING ZERO
 25881	044511	270 00 0 00 070365 		ADD	[XX,,-1]	;ADD A FLOATING ZERO TO ITSELF
 25882	044512	312 00 0 00 070603 		CAME	[<XX+XX+1>&777777,,-2]	;CHECK ADDER UPON FAILURE
 25883						STOP		^
DFKAA PDP-10 KL10 BASIC INSTRUCTION DIAGNOSTIC (1) VER 0,2	MACRO %53B(1254)-4 11:50 11-Nov-24 Page 89-11
DFKAA3	MAC	13-Jan-89 10:22		SUPPLEMENTARY ADDER TESTS - FLT 0 + 0FLT

 25884	044513	254 04 0 00 044514 		HALT	.+1		;TEST FAILED IF PROGRAM HALTS HERE
 25885	044514	324 00 0 00 044515 		JUMPA	.+1		;IF TEST FAILS, CHANGE THIS INSTRUCTION (JUMPA .+1) TO
 25886									;JUMPA X (X IS THE ADDRESS OF THE FIRST INSTRUCTION
 25887									;IN THE SUBTEST) TO LOOP ON ERROR^
 25888
 25889					;**********
 25890
 25891
 25892					;THIS TEST VERIFIES THAT THE RESULT OF A FLOATING ZERO
 25893					;ADDED TO A FLOATING ZERO IS A FLOATING ZERO
 25894					;PLACED ONE BIT POSITION LEFT OF THE ORIGINAL FLOATING ZERO.
 25895					;THIS TEST IS REPEATED 36 TIMES TO FLOAT A ZERO THRU ALL 36 BITS OF THE ADDER.
 25896					;THIS TEST IS DESIGNED TO TEST THE ADDER AND RELATED DATA PATHS ONLY.
 25897
 25898			046034		SN=SN+1
 25899			776777			XX=<XX+XX+1>&777777
 25900						IFE	<XX-1>,<XX=777776>
 25901	044515	525 00 0 00 776777 		HRLOI	XX		;PRELOAD AC WITH A FLOATING ZERO
 25902	044516	270 00 0 00 070366 		ADD	[XX,,-1]	;ADD A FLOATING ZERO TO ITSELF
 25903	044517	312 00 0 00 070604 		CAME	[<XX+XX+1>&777777,,-2]	;CHECK ADDER UPON FAILURE
 25904						STOP		^
 25905	044520	254 04 0 00 044521 		HALT	.+1		;TEST FAILED IF PROGRAM HALTS HERE
 25906	044521	324 00 0 00 044522 		JUMPA	.+1		;IF TEST FAILS, CHANGE THIS INSTRUCTION (JUMPA .+1) TO
 25907									;JUMPA X (X IS THE ADDRESS OF THE FIRST INSTRUCTION
 25908									;IN THE SUBTEST) TO LOOP ON ERROR^
 25909
 25910					;**********
 25911
 25912
 25913					;THIS TEST VERIFIES THAT THE RESULT OF A FLOATING ZERO
 25914					;ADDED TO A FLOATING ZERO IS A FLOATING ZERO
 25915					;PLACED ONE BIT POSITION LEFT OF THE ORIGINAL FLOATING ZERO.
 25916					;THIS TEST IS REPEATED 36 TIMES TO FLOAT A ZERO THRU ALL 36 BITS OF THE ADDER.
 25917					;THIS TEST IS DESIGNED TO TEST THE ADDER AND RELATED DATA PATHS ONLY.
 25918
 25919			046035		SN=SN+1
 25920			775777			XX=<XX+XX+1>&777777
 25921						IFE	<XX-1>,<XX=777776>
 25922	044522	525 00 0 00 775777 		HRLOI	XX		;PRELOAD AC WITH A FLOATING ZERO
 25923	044523	270 00 0 00 070367 		ADD	[XX,,-1]	;ADD A FLOATING ZERO TO ITSELF
 25924	044524	312 00 0 00 070605 		CAME	[<XX+XX+1>&777777,,-2]	;CHECK ADDER UPON FAILURE
 25925						STOP		^
 25926	044525	254 04 0 00 044526 		HALT	.+1		;TEST FAILED IF PROGRAM HALTS HERE
 25927	044526	324 00 0 00 044527 		JUMPA	.+1		;IF TEST FAILS, CHANGE THIS INSTRUCTION (JUMPA .+1) TO
 25928									;JUMPA X (X IS THE ADDRESS OF THE FIRST INSTRUCTION
 25929									;IN THE SUBTEST) TO LOOP ON ERROR^
 25930
 25931					;**********
 25932
 25933
 25934					;THIS TEST VERIFIES THAT THE RESULT OF A FLOATING ZERO
 25935					;ADDED TO A FLOATING ZERO IS A FLOATING ZERO
 25936					;PLACED ONE BIT POSITION LEFT OF THE ORIGINAL FLOATING ZERO.
 25937					;THIS TEST IS REPEATED 36 TIMES TO FLOAT A ZERO THRU ALL 36 BITS OF THE ADDER.
 25938					;THIS TEST IS DESIGNED TO TEST THE ADDER AND RELATED DATA PATHS ONLY.
DFKAA PDP-10 KL10 BASIC INSTRUCTION DIAGNOSTIC (1) VER 0,2	MACRO %53B(1254)-4 11:50 11-Nov-24 Page 89-12
DFKAA3	MAC	13-Jan-89 10:22		SUPPLEMENTARY ADDER TESTS - FLT 0 + 0FLT

 25939
 25940			046036		SN=SN+1
 25941			773777			XX=<XX+XX+1>&777777
 25942						IFE	<XX-1>,<XX=777776>
 25943	044527	525 00 0 00 773777 		HRLOI	XX		;PRELOAD AC WITH A FLOATING ZERO
 25944	044530	270 00 0 00 070370 		ADD	[XX,,-1]	;ADD A FLOATING ZERO TO ITSELF
 25945	044531	312 00 0 00 070606 		CAME	[<XX+XX+1>&777777,,-2]	;CHECK ADDER UPON FAILURE
 25946						STOP		^
 25947	044532	254 04 0 00 044533 		HALT	.+1		;TEST FAILED IF PROGRAM HALTS HERE
 25948	044533	324 00 0 00 044534 		JUMPA	.+1		;IF TEST FAILS, CHANGE THIS INSTRUCTION (JUMPA .+1) TO
 25949									;JUMPA X (X IS THE ADDRESS OF THE FIRST INSTRUCTION
 25950									;IN THE SUBTEST) TO LOOP ON ERROR^
 25951
 25952					;**********
 25953
 25954
 25955					;THIS TEST VERIFIES THAT THE RESULT OF A FLOATING ZERO
 25956					;ADDED TO A FLOATING ZERO IS A FLOATING ZERO
 25957					;PLACED ONE BIT POSITION LEFT OF THE ORIGINAL FLOATING ZERO.
 25958					;THIS TEST IS REPEATED 36 TIMES TO FLOAT A ZERO THRU ALL 36 BITS OF THE ADDER.
 25959					;THIS TEST IS DESIGNED TO TEST THE ADDER AND RELATED DATA PATHS ONLY.
 25960
 25961			046037		SN=SN+1
 25962			767777			XX=<XX+XX+1>&777777
 25963						IFE	<XX-1>,<XX=777776>
 25964	044534	525 00 0 00 767777 		HRLOI	XX		;PRELOAD AC WITH A FLOATING ZERO
 25965	044535	270 00 0 00 070371 		ADD	[XX,,-1]	;ADD A FLOATING ZERO TO ITSELF
 25966	044536	312 00 0 00 070607 		CAME	[<XX+XX+1>&777777,,-2]	;CHECK ADDER UPON FAILURE
 25967						STOP		^
 25968	044537	254 04 0 00 044540 		HALT	.+1		;TEST FAILED IF PROGRAM HALTS HERE
 25969	044540	324 00 0 00 044541 		JUMPA	.+1		;IF TEST FAILS, CHANGE THIS INSTRUCTION (JUMPA .+1) TO
 25970									;JUMPA X (X IS THE ADDRESS OF THE FIRST INSTRUCTION
 25971									;IN THE SUBTEST) TO LOOP ON ERROR^
 25972
 25973					;**********
 25974
 25975
 25976					;THIS TEST VERIFIES THAT THE RESULT OF A FLOATING ZERO
 25977					;ADDED TO A FLOATING ZERO IS A FLOATING ZERO
 25978					;PLACED ONE BIT POSITION LEFT OF THE ORIGINAL FLOATING ZERO.
 25979					;THIS TEST IS REPEATED 36 TIMES TO FLOAT A ZERO THRU ALL 36 BITS OF THE ADDER.
 25980					;THIS TEST IS DESIGNED TO TEST THE ADDER AND RELATED DATA PATHS ONLY.
 25981
 25982			046040		SN=SN+1
 25983			757777			XX=<XX+XX+1>&777777
 25984						IFE	<XX-1>,<XX=777776>
 25985	044541	525 00 0 00 757777 		HRLOI	XX		;PRELOAD AC WITH A FLOATING ZERO
 25986	044542	270 00 0 00 070372 		ADD	[XX,,-1]	;ADD A FLOATING ZERO TO ITSELF
 25987	044543	312 00 0 00 070610 		CAME	[<XX+XX+1>&777777,,-2]	;CHECK ADDER UPON FAILURE
 25988						STOP		^
 25989	044544	254 04 0 00 044545 		HALT	.+1		;TEST FAILED IF PROGRAM HALTS HERE
 25990	044545	324 00 0 00 044546 		JUMPA	.+1		;IF TEST FAILS, CHANGE THIS INSTRUCTION (JUMPA .+1) TO
 25991									;JUMPA X (X IS THE ADDRESS OF THE FIRST INSTRUCTION
 25992									;IN THE SUBTEST) TO LOOP ON ERROR^
 25993
DFKAA PDP-10 KL10 BASIC INSTRUCTION DIAGNOSTIC (1) VER 0,2	MACRO %53B(1254)-4 11:50 11-Nov-24 Page 89-13
DFKAA3	MAC	13-Jan-89 10:22		SUPPLEMENTARY ADDER TESTS - FLT 0 + 0FLT

 25994					;**********
 25995
 25996
 25997					;THIS TEST VERIFIES THAT THE RESULT OF A FLOATING ZERO
 25998					;ADDED TO A FLOATING ZERO IS A FLOATING ZERO
 25999					;PLACED ONE BIT POSITION LEFT OF THE ORIGINAL FLOATING ZERO.
 26000					;THIS TEST IS REPEATED 36 TIMES TO FLOAT A ZERO THRU ALL 36 BITS OF THE ADDER.
 26001					;THIS TEST IS DESIGNED TO TEST THE ADDER AND RELATED DATA PATHS ONLY.
 26002
 26003			046041		SN=SN+1
 26004			737777			XX=<XX+XX+1>&777777
 26005						IFE	<XX-1>,<XX=777776>
 26006	044546	525 00 0 00 737777 		HRLOI	XX		;PRELOAD AC WITH A FLOATING ZERO
 26007	044547	270 00 0 00 070373 		ADD	[XX,,-1]	;ADD A FLOATING ZERO TO ITSELF
 26008	044550	312 00 0 00 070611 		CAME	[<XX+XX+1>&777777,,-2]	;CHECK ADDER UPON FAILURE
 26009						STOP		^
 26010	044551	254 04 0 00 044552 		HALT	.+1		;TEST FAILED IF PROGRAM HALTS HERE
 26011	044552	324 00 0 00 044553 		JUMPA	.+1		;IF TEST FAILS, CHANGE THIS INSTRUCTION (JUMPA .+1) TO
 26012									;JUMPA X (X IS THE ADDRESS OF THE FIRST INSTRUCTION
 26013									;IN THE SUBTEST) TO LOOP ON ERROR^
 26014
 26015					;**********
 26016
 26017
 26018					;THIS TEST VERIFIES THAT THE RESULT OF A FLOATING ZERO
 26019					;ADDED TO A FLOATING ZERO IS A FLOATING ZERO
 26020					;PLACED ONE BIT POSITION LEFT OF THE ORIGINAL FLOATING ZERO.
 26021					;THIS TEST IS REPEATED 36 TIMES TO FLOAT A ZERO THRU ALL 36 BITS OF THE ADDER.
 26022					;THIS TEST IS DESIGNED TO TEST THE ADDER AND RELATED DATA PATHS ONLY.
 26023
 26024			046042		SN=SN+1
 26025			677777			XX=<XX+XX+1>&777777
 26026						IFE	<XX-1>,<XX=777776>
 26027	044553	525 00 0 00 677777 		HRLOI	XX		;PRELOAD AC WITH A FLOATING ZERO
 26028	044554	270 00 0 00 070374 		ADD	[XX,,-1]	;ADD A FLOATING ZERO TO ITSELF
 26029	044555	312 00 0 00 070612 		CAME	[<XX+XX+1>&777777,,-2]	;CHECK ADDER UPON FAILURE
 26030						STOP		^
 26031	044556	254 04 0 00 044557 		HALT	.+1		;TEST FAILED IF PROGRAM HALTS HERE
 26032	044557	324 00 0 00 044560 		JUMPA	.+1		;IF TEST FAILS, CHANGE THIS INSTRUCTION (JUMPA .+1) TO
 26033									;JUMPA X (X IS THE ADDRESS OF THE FIRST INSTRUCTION
 26034									;IN THE SUBTEST) TO LOOP ON ERROR^
 26035
 26036					;**********
 26037
 26038
 26039					;THIS TEST VERIFIES THAT THE RESULT OF A FLOATING ZERO
 26040					;ADDED TO A FLOATING ZERO IS A FLOATING ZERO
 26041					;PLACED ONE BIT POSITION LEFT OF THE ORIGINAL FLOATING ZERO.
 26042					;THIS TEST IS REPEATED 36 TIMES TO FLOAT A ZERO THRU ALL 36 BITS OF THE ADDER.
 26043					;THIS TEST IS DESIGNED TO TEST THE ADDER AND RELATED DATA PATHS ONLY.
 26044
 26045			046043		SN=SN+1
 26046			577777			XX=<XX+XX+1>&777777
 26047						IFE	<XX-1>,<XX=777776>
 26048	044560	525 00 0 00 577777 		HRLOI	XX		;PRELOAD AC WITH A FLOATING ZERO
DFKAA PDP-10 KL10 BASIC INSTRUCTION DIAGNOSTIC (1) VER 0,2	MACRO %53B(1254)-4 11:50 11-Nov-24 Page 89-14
DFKAA3	MAC	13-Jan-89 10:22		SUPPLEMENTARY ADDER TESTS - FLT 0 + 0FLT

 26049	044561	270 00 0 00 070375 		ADD	[XX,,-1]	;ADD A FLOATING ZERO TO ITSELF
 26050	044562	312 00 0 00 070613 		CAME	[<XX+XX+1>&777777,,-2]	;CHECK ADDER UPON FAILURE
 26051						STOP		^
 26052	044563	254 04 0 00 044564 		HALT	.+1		;TEST FAILED IF PROGRAM HALTS HERE
 26053	044564	324 00 0 00 044565 		JUMPA	.+1		;IF TEST FAILS, CHANGE THIS INSTRUCTION (JUMPA .+1) TO
 26054									;JUMPA X (X IS THE ADDRESS OF THE FIRST INSTRUCTION
 26055									;IN THE SUBTEST) TO LOOP ON ERROR^
 26056
 26057					;**********
 26058
 26059
 26060					;THIS TEST VERIFIES THAT THE RESULT OF A FLOATING ZERO
 26061					;ADDED TO A FLOATING ZERO IS A FLOATING ZERO
 26062					;PLACED ONE BIT POSITION LEFT OF THE ORIGINAL FLOATING ZERO.
 26063					;THIS TEST IS REPEATED 36 TIMES TO FLOAT A ZERO THRU ALL 36 BITS OF THE ADDER.
 26064					;THIS TEST IS DESIGNED TO TEST THE ADDER AND RELATED DATA PATHS ONLY.
 26065
 26066			046044		SN=SN+1
 26067			377777			XX=<XX+XX+1>&777777
 26068						IFE	<XX-1>,<XX=777776>
 26069	044565	525 00 0 00 377777 		HRLOI	XX		;PRELOAD AC WITH A FLOATING ZERO
 26070	044566	270 00 0 00 070255 		ADD	[XX,,-1]	;ADD A FLOATING ZERO TO ITSELF
 26071	044567	312 00 0 00 070333 		CAME	[<XX+XX+1>&777777,,-2]	;CHECK ADDER UPON FAILURE
 26072						STOP		^
 26073	044570	254 04 0 00 044571 		HALT	.+1		;TEST FAILED IF PROGRAM HALTS HERE
 26074	044571	324 00 0 00 044572 		JUMPA	.+1		;IF TEST FAILS, CHANGE THIS INSTRUCTION (JUMPA .+1) TO
 26075									;JUMPA X (X IS THE ADDRESS OF THE FIRST INSTRUCTION
 26076									;IN THE SUBTEST) TO LOOP ON ERROR^
 26077
 26078					;**********
 26079
DFKAA PDP-10 KL10 BASIC INSTRUCTION DIAGNOSTIC (1) VER 0,2	MACRO %53B(1254)-4 11:50 11-Nov-24 Page 1
DFKAA4	MAC	13-Jan-89 10:22		TEST OF AC HARDWARE AND INDEX REGISTERS

 26080					SUBTTL	TEST OF AC HARDWARE AND INDEX REGISTERS
 26081
 26082					;NOTE:	AN "*" IN THE COMMENT FIELD OF AN INSTRUCTION INDICATES THAT
 26083					;	IT IS THE TESTED INSTRUCTION.
 26084
 26085
 26086					;**********
 26087
 26088					;THIS TEST VERIFIES THAT AC1 IS ACCESSABLE
 26089					;IN THIS CASE, AC1 IS PRELOADED WITH 1.
 26090					;C(AC1) IS THEN CHECKED FOR A1.  THIS TEST PASSES IF C(AC1)=1.
 26091					;IF THIS TEST FAILS, THE AC HARDWARE IS PROBABLY FAULTY
 26092
 26093	044572	400 00 0 00 000000 	C100:	SETZ			;CLEAR AC0
 26094	044573	201 01 0 00 000001 		MOVEI	1,1		;PRELOAD AC1 UMTH 1
 26095	044574	302 01 0 00 000001 		CAIE	1,1		;PASS IF C(AC1)=1
 26096						STOP^
 26097	044575	254 04 0 00 044576 		HALT	.+1		;TEST FAILED IF PROGRAM HALTS HERE
 26098	044576	324 00 0 00 044577 		JUMPA	.+1		;IF TEST FAILS, CHANGE THIS INSTRUCTION (JUMPA .+1) TO
 26099									;JUMPA X (X IS THE ADDRESS OF THE FIRST INSTRUCTION
 26100									;IN THE SUBTEST) TO LOOP ON ERROR^
 26101
 26102					;**********
 26103
 26104					;THIS TEST VERIFIES THAT AC2 IS ACCESSABLE.
 26105					;IN THIS CASE, AC2 IS PRELOADED WITH 2.
 26106					;C(AC2) IS THEN CHECKED FOR 2.  THIS TEST PASSES IF C(AC2)=2.
 26107					;IF THIS TEST FAILS, THE AC HARDWARE IS PROBABLY FAULTY
 26108
 26109	044577	201 02 0 00 000002 	C200:	MOVEI	2,2		;PRELOAD AC2 WITH 2
 26110	044600	302 02 0 00 000002 		CAIE	2,2		;PASS IF C(AC2)=2
 26111						STOP^
 26112	044601	254 04 0 00 044602 		HALT	.+1		;TEST FAILED IF PROGRAM HALTS HERE
 26113	044602	324 00 0 00 044603 		JUMPA	.+1		;IF TEST FAILS, CHANGE THIS INSTRUCTION (JUMPA .+1) TO
 26114									;JUMPA X (X IS THE ADDRESS OF THE FIRST INSTRUCTION
 26115									;IN THE SUBTEST) TO LOOP ON ERROR^
 26116
 26117					;**********
DFKAA PDP-10 KL10 BASIC INSTRUCTION DIAGNOSTIC (1) VER 0,2	MACRO %53B(1254)-4 11:50 11-Nov-24 Page 2
DFKAA4	MAC	13-Jan-89 10:22		TEST OF AC HARDWARE AND INDEX REGISTERS

 26118					;THIS TEST VERIFIES THAT AC4 IS ACCESSABLE.
 26119					;IN THIS CASE, AC4 IS PRELOADED WITH 4.
 26120					;C(AC4) IS THEN CHECKED FOR 4.  THIS TEST PASSES IF C(AC4)=4.
 26121					;IF THIS TEST FAILS, THE AC HARDWARE IS PROBABLY FAULTY
 26122
 26123	044603	201 04 0 00 000004 	C300:	MOVEI	4,4		;PRELOAD AC4 WITH 4
 26124	044604	302 04 0 00 000004 		CAIE	4,4		;PASS IF C(AC4)=4
 26125						STOP^
 26126	044605	254 04 0 00 044606 		HALT	.+1		;TEST FAILED IF PROGRAM HALTS HERE
 26127	044606	324 00 0 00 044607 		JUMPA	.+1		;IF TEST FAILS, CHANGE THIS INSTRUCTION (JUMPA .+1) TO
 26128									;JUMPA X (X IS THE ADDRESS OF THE FIRST INSTRUCTION
 26129									;IN THE SUBTEST) TO LOOP ON ERROR^
 26130
 26131					;**********
 26132
 26133					;THIS TEST VERIFIES THAT AC10 IS ACCESSABLE.
 26134					;IN THIS CASE, AC10 IS PRELOADED WITH 10.
 26135					;C(AC10) IS THEN CHECKED FOR 10.  THIS TEST PASSES IF C(AC10)=10.
 26136					;IF THIS TEST FAILS, THE AC HARDWARE IS PROBABLY FAULTY
 26137
 26138	044607	201 10 0 00 000010 	C400:	MOVEI	10,10		;PRELOAD AC10 WITH 10
 26139	044610	302 10 0 00 000010 		CAIE	10,10		;PASS IF C(AC10)=10
 26140						STOP^
 26141	044611	254 04 0 00 044612 		HALT	.+1		;TEST FAILED IF PROGRAM HALTS HERE
 26142	044612	324 00 0 00 044613 		JUMPA	.+1		;IF TEST FAILS, CHANGE THIS INSTRUCTION (JUMPA .+1) TO
 26143									;JUMPA X (X IS THE ADDRESS OF THE FIRST INSTRUCTION
 26144									;IN THE SUBTEST) TO LOOP ON ERROR^
 26145
 26146					;**********
DFKAA PDP-10 KL10 BASIC INSTRUCTION DIAGNOSTIC (1) VER 0,2	MACRO %53B(1254)-4 11:50 11-Nov-24 Page 3
DFKAA4	MAC	13-Jan-89 10:22		TEST OF AC HARDWARE AND INDEX REGISTERS

 26147			000500		SN=500
 26148		777777	777777			ZZ=-1
 26149
 26150					;THIS TEST VERIFIES THAT ALL ACS EXIST
 26151					;FIRST, EACH AC IS PRELOADED WITH ITS OWN ADDRESS;
 26152					;THEN, THE CONTENTS OF EACH AC IS CHECKED FOR ITS ADDRESS.
 26153					;IF ANY AC DOES NOT CONTAIN ITS ADDRESS, THIS TEST FAILS
 26154
 26155					C500:	REPEAT	^D16,
 26156					<	ZZ=ZZ+1
 26157						MOVEI	ZZ,ZZ		;PRELOAD EACH AC WITH ITS ADDR>
 26158			000000			ZZ=ZZ+1
 26159	044613	201 00 0 00 000000 		MOVEI	ZZ,ZZ		;PRELOAD EACH AC WITH ITS ADDR
 26160			000001			ZZ=ZZ+1
 26161	044614	201 01 0 00 000001 		MOVEI	ZZ,ZZ		;PRELOAD EACH AC WITH ITS ADDR
 26162			000002			ZZ=ZZ+1
 26163	044615	201 02 0 00 000002 		MOVEI	ZZ,ZZ		;PRELOAD EACH AC WITH ITS ADDR
 26164			000003			ZZ=ZZ+1
 26165	044616	201 03 0 00 000003 		MOVEI	ZZ,ZZ		;PRELOAD EACH AC WITH ITS ADDR
 26166			000004			ZZ=ZZ+1
 26167	044617	201 04 0 00 000004 		MOVEI	ZZ,ZZ		;PRELOAD EACH AC WITH ITS ADDR
 26168			000005			ZZ=ZZ+1
 26169	044620	201 05 0 00 000005 		MOVEI	ZZ,ZZ		;PRELOAD EACH AC WITH ITS ADDR
 26170			000006			ZZ=ZZ+1
 26171	044621	201 06 0 00 000006 		MOVEI	ZZ,ZZ		;PRELOAD EACH AC WITH ITS ADDR
 26172			000007			ZZ=ZZ+1
 26173	044622	201 07 0 00 000007 		MOVEI	ZZ,ZZ		;PRELOAD EACH AC WITH ITS ADDR
 26174			000010			ZZ=ZZ+1
 26175	044623	201 10 0 00 000010 		MOVEI	ZZ,ZZ		;PRELOAD EACH AC WITH ITS ADDR
 26176			000011			ZZ=ZZ+1
 26177	044624	201 11 0 00 000011 		MOVEI	ZZ,ZZ		;PRELOAD EACH AC WITH ITS ADDR
 26178			000012			ZZ=ZZ+1
 26179	044625	201 12 0 00 000012 		MOVEI	ZZ,ZZ		;PRELOAD EACH AC WITH ITS ADDR
 26180			000013			ZZ=ZZ+1
 26181	044626	201 13 0 00 000013 		MOVEI	ZZ,ZZ		;PRELOAD EACH AC WITH ITS ADDR
 26182			000014			ZZ=ZZ+1
 26183	044627	201 14 0 00 000014 		MOVEI	ZZ,ZZ		;PRELOAD EACH AC WITH ITS ADDR
 26184			000015			ZZ=ZZ+1
 26185	044630	201 15 0 00 000015 		MOVEI	ZZ,ZZ		;PRELOAD EACH AC WITH ITS ADDR
 26186			000016			ZZ=ZZ+1
 26187	044631	201 16 0 00 000016 		MOVEI	ZZ,ZZ		;PRELOAD EACH AC WITH ITS ADDR
 26188			000017			ZZ=ZZ+1
 26189	044632	201 17 0 00 000017 		MOVEI	ZZ,ZZ		;PRELOAD EACH AC WITH ITS ADDR
 26190					PAGE
DFKAA PDP-10 KL10 BASIC INSTRUCTION DIAGNOSTIC (1) VER 0,2	MACRO %53B(1254)-4 11:50 11-Nov-24 Page 3-1
DFKAA4	MAC	13-Jan-89 10:22		TEST OF AC HARDWARE AND INDEX REGISTERS

 26191			000020			ZZ=20
 26192
 26193						REPEAT	^D16,<
 26194					;THIS TEST VERIFIES THAT ALL ACS EXIST.
 26195					;FIRST, EACH AC IS PRELOADED WITH ITS OWN ADDRESS;
 26196					;THEN, THE CONTENTS OF EACH AC IS CHECKED FOR ITS ADDRESS.
 26197					;IF ANY AC DOES NOT CONTAIN ITS ADDRESS, THIS TEST FAILS
 26198
 26199					SN=SN+1
 26200						ZZ=ZZ-1
 26201						CAIE	ZZ,ZZ		;CHECK THAT EACH AC CONTAINS ITS OWN ADDRESS
 26202						STOP
 26203									;IN CASE OF FAILURE, LOOP TO C500 ADDRESS
 26204
 26205					;**********
 26206					>
 26207
 26208					;THIS TEST VERIFIES THAT ALL ACS EXIST.
 26209					;FIRST, EACH AC IS PRELOADED WITH ITS OWN ADDRESS;
 26210					;THEN, THE CONTENTS OF EACH AC IS CHECKED FOR ITS ADDRESS.
 26211					;IF ANY AC DOES NOT CONTAIN ITS ADDRESS, THIS TEST FAILS
 26212
 26213			000501		SN=SN+1
 26214			000017			ZZ=ZZ-1
 26215	044633	302 17 0 00 000017 		CAIE	ZZ,ZZ		;CHECK THAT EACH AC CONTAINS ITS OWN ADDRESS
 26216						STOP^
 26217	044634	254 04 0 00 044635 		HALT	.+1		;TEST FAILED IF PROGRAM HALTS HERE
 26218	044635	324 00 0 00 044636 		JUMPA	.+1		;IF TEST FAILS, CHANGE THIS INSTRUCTION (JUMPA .+1) TO
 26219									;JUMPA X (X IS THE ADDRESS OF THE FIRST INSTRUCTION
 26220									;IN THE SUBTEST) TO LOOP ON ERROR^
 26221									;IN CASE OF FAILURE, LOOP TO C500 ADDRESS
 26222
 26223					;**********
 26224
 26225
 26226					;THIS TEST VERIFIES THAT ALL ACS EXIST.
 26227					;FIRST, EACH AC IS PRELOADED WITH ITS OWN ADDRESS;
 26228					;THEN, THE CONTENTS OF EACH AC IS CHECKED FOR ITS ADDRESS.
 26229					;IF ANY AC DOES NOT CONTAIN ITS ADDRESS, THIS TEST FAILS
 26230
 26231			000502		SN=SN+1
 26232			000016			ZZ=ZZ-1
 26233	044636	302 16 0 00 000016 		CAIE	ZZ,ZZ		;CHECK THAT EACH AC CONTAINS ITS OWN ADDRESS
 26234						STOP^
 26235	044637	254 04 0 00 044640 		HALT	.+1		;TEST FAILED IF PROGRAM HALTS HERE
 26236	044640	324 00 0 00 044641 		JUMPA	.+1		;IF TEST FAILS, CHANGE THIS INSTRUCTION (JUMPA .+1) TO
 26237									;JUMPA X (X IS THE ADDRESS OF THE FIRST INSTRUCTION
 26238									;IN THE SUBTEST) TO LOOP ON ERROR^
 26239									;IN CASE OF FAILURE, LOOP TO C500 ADDRESS
 26240
 26241					;**********
 26242
 26243
 26244					;THIS TEST VERIFIES THAT ALL ACS EXIST.
 26245					;FIRST, EACH AC IS PRELOADED WITH ITS OWN ADDRESS;
DFKAA PDP-10 KL10 BASIC INSTRUCTION DIAGNOSTIC (1) VER 0,2	MACRO %53B(1254)-4 11:50 11-Nov-24 Page 3-2
DFKAA4	MAC	13-Jan-89 10:22		TEST OF AC HARDWARE AND INDEX REGISTERS

 26246					;THEN, THE CONTENTS OF EACH AC IS CHECKED FOR ITS ADDRESS.
 26247					;IF ANY AC DOES NOT CONTAIN ITS ADDRESS, THIS TEST FAILS
 26248
 26249			000503		SN=SN+1
 26250			000015			ZZ=ZZ-1
 26251	044641	302 15 0 00 000015 		CAIE	ZZ,ZZ		;CHECK THAT EACH AC CONTAINS ITS OWN ADDRESS
 26252						STOP^
 26253	044642	254 04 0 00 044643 		HALT	.+1		;TEST FAILED IF PROGRAM HALTS HERE
 26254	044643	324 00 0 00 044644 		JUMPA	.+1		;IF TEST FAILS, CHANGE THIS INSTRUCTION (JUMPA .+1) TO
 26255									;JUMPA X (X IS THE ADDRESS OF THE FIRST INSTRUCTION
 26256									;IN THE SUBTEST) TO LOOP ON ERROR^
 26257									;IN CASE OF FAILURE, LOOP TO C500 ADDRESS
 26258
 26259					;**********
 26260
 26261
 26262					;THIS TEST VERIFIES THAT ALL ACS EXIST.
 26263					;FIRST, EACH AC IS PRELOADED WITH ITS OWN ADDRESS;
 26264					;THEN, THE CONTENTS OF EACH AC IS CHECKED FOR ITS ADDRESS.
 26265					;IF ANY AC DOES NOT CONTAIN ITS ADDRESS, THIS TEST FAILS
 26266
 26267			000504		SN=SN+1
 26268			000014			ZZ=ZZ-1
 26269	044644	302 14 0 00 000014 		CAIE	ZZ,ZZ		;CHECK THAT EACH AC CONTAINS ITS OWN ADDRESS
 26270						STOP^
 26271	044645	254 04 0 00 044646 		HALT	.+1		;TEST FAILED IF PROGRAM HALTS HERE
 26272	044646	324 00 0 00 044647 		JUMPA	.+1		;IF TEST FAILS, CHANGE THIS INSTRUCTION (JUMPA .+1) TO
 26273									;JUMPA X (X IS THE ADDRESS OF THE FIRST INSTRUCTION
 26274									;IN THE SUBTEST) TO LOOP ON ERROR^
 26275									;IN CASE OF FAILURE, LOOP TO C500 ADDRESS
 26276
 26277					;**********
 26278
 26279
 26280					;THIS TEST VERIFIES THAT ALL ACS EXIST.
 26281					;FIRST, EACH AC IS PRELOADED WITH ITS OWN ADDRESS;
 26282					;THEN, THE CONTENTS OF EACH AC IS CHECKED FOR ITS ADDRESS.
 26283					;IF ANY AC DOES NOT CONTAIN ITS ADDRESS, THIS TEST FAILS
 26284
 26285			000505		SN=SN+1
 26286			000013			ZZ=ZZ-1
 26287	044647	302 13 0 00 000013 		CAIE	ZZ,ZZ		;CHECK THAT EACH AC CONTAINS ITS OWN ADDRESS
 26288						STOP^
 26289	044650	254 04 0 00 044651 		HALT	.+1		;TEST FAILED IF PROGRAM HALTS HERE
 26290	044651	324 00 0 00 044652 		JUMPA	.+1		;IF TEST FAILS, CHANGE THIS INSTRUCTION (JUMPA .+1) TO
 26291									;JUMPA X (X IS THE ADDRESS OF THE FIRST INSTRUCTION
 26292									;IN THE SUBTEST) TO LOOP ON ERROR^
 26293									;IN CASE OF FAILURE, LOOP TO C500 ADDRESS
 26294
 26295					;**********
 26296
 26297
 26298					;THIS TEST VERIFIES THAT ALL ACS EXIST.
 26299					;FIRST, EACH AC IS PRELOADED WITH ITS OWN ADDRESS;
 26300					;THEN, THE CONTENTS OF EACH AC IS CHECKED FOR ITS ADDRESS.
DFKAA PDP-10 KL10 BASIC INSTRUCTION DIAGNOSTIC (1) VER 0,2	MACRO %53B(1254)-4 11:50 11-Nov-24 Page 3-3
DFKAA4	MAC	13-Jan-89 10:22		TEST OF AC HARDWARE AND INDEX REGISTERS

 26301					;IF ANY AC DOES NOT CONTAIN ITS ADDRESS, THIS TEST FAILS
 26302
 26303			000506		SN=SN+1
 26304			000012			ZZ=ZZ-1
 26305	044652	302 12 0 00 000012 		CAIE	ZZ,ZZ		;CHECK THAT EACH AC CONTAINS ITS OWN ADDRESS
 26306						STOP^
 26307	044653	254 04 0 00 044654 		HALT	.+1		;TEST FAILED IF PROGRAM HALTS HERE
 26308	044654	324 00 0 00 044655 		JUMPA	.+1		;IF TEST FAILS, CHANGE THIS INSTRUCTION (JUMPA .+1) TO
 26309									;JUMPA X (X IS THE ADDRESS OF THE FIRST INSTRUCTION
 26310									;IN THE SUBTEST) TO LOOP ON ERROR^
 26311									;IN CASE OF FAILURE, LOOP TO C500 ADDRESS
 26312
 26313					;**********
 26314
 26315
 26316					;THIS TEST VERIFIES THAT ALL ACS EXIST.
 26317					;FIRST, EACH AC IS PRELOADED WITH ITS OWN ADDRESS;
 26318					;THEN, THE CONTENTS OF EACH AC IS CHECKED FOR ITS ADDRESS.
 26319					;IF ANY AC DOES NOT CONTAIN ITS ADDRESS, THIS TEST FAILS
 26320
 26321			000507		SN=SN+1
 26322			000011			ZZ=ZZ-1
 26323	044655	302 11 0 00 000011 		CAIE	ZZ,ZZ		;CHECK THAT EACH AC CONTAINS ITS OWN ADDRESS
 26324						STOP^
 26325	044656	254 04 0 00 044657 		HALT	.+1		;TEST FAILED IF PROGRAM HALTS HERE
 26326	044657	324 00 0 00 044660 		JUMPA	.+1		;IF TEST FAILS, CHANGE THIS INSTRUCTION (JUMPA .+1) TO
 26327									;JUMPA X (X IS THE ADDRESS OF THE FIRST INSTRUCTION
 26328									;IN THE SUBTEST) TO LOOP ON ERROR^
 26329									;IN CASE OF FAILURE, LOOP TO C500 ADDRESS
 26330
 26331					;**********
 26332
 26333
 26334					;THIS TEST VERIFIES THAT ALL ACS EXIST.
 26335					;FIRST, EACH AC IS PRELOADED WITH ITS OWN ADDRESS;
 26336					;THEN, THE CONTENTS OF EACH AC IS CHECKED FOR ITS ADDRESS.
 26337					;IF ANY AC DOES NOT CONTAIN ITS ADDRESS, THIS TEST FAILS
 26338
 26339			000510		SN=SN+1
 26340			000010			ZZ=ZZ-1
 26341	044660	302 10 0 00 000010 		CAIE	ZZ,ZZ		;CHECK THAT EACH AC CONTAINS ITS OWN ADDRESS
 26342						STOP^
 26343	044661	254 04 0 00 044662 		HALT	.+1		;TEST FAILED IF PROGRAM HALTS HERE
 26344	044662	324 00 0 00 044663 		JUMPA	.+1		;IF TEST FAILS, CHANGE THIS INSTRUCTION (JUMPA .+1) TO
 26345									;JUMPA X (X IS THE ADDRESS OF THE FIRST INSTRUCTION
 26346									;IN THE SUBTEST) TO LOOP ON ERROR^
 26347									;IN CASE OF FAILURE, LOOP TO C500 ADDRESS
 26348
 26349					;**********
 26350
 26351
 26352					;THIS TEST VERIFIES THAT ALL ACS EXIST.
 26353					;FIRST, EACH AC IS PRELOADED WITH ITS OWN ADDRESS;
 26354					;THEN, THE CONTENTS OF EACH AC IS CHECKED FOR ITS ADDRESS.
 26355					;IF ANY AC DOES NOT CONTAIN ITS ADDRESS, THIS TEST FAILS
DFKAA PDP-10 KL10 BASIC INSTRUCTION DIAGNOSTIC (1) VER 0,2	MACRO %53B(1254)-4 11:50 11-Nov-24 Page 3-4
DFKAA4	MAC	13-Jan-89 10:22		TEST OF AC HARDWARE AND INDEX REGISTERS

 26356
 26357			000511		SN=SN+1
 26358			000007			ZZ=ZZ-1
 26359	044663	302 07 0 00 000007 		CAIE	ZZ,ZZ		;CHECK THAT EACH AC CONTAINS ITS OWN ADDRESS
 26360						STOP^
 26361	044664	254 04 0 00 044665 		HALT	.+1		;TEST FAILED IF PROGRAM HALTS HERE
 26362	044665	324 00 0 00 044666 		JUMPA	.+1		;IF TEST FAILS, CHANGE THIS INSTRUCTION (JUMPA .+1) TO
 26363									;JUMPA X (X IS THE ADDRESS OF THE FIRST INSTRUCTION
 26364									;IN THE SUBTEST) TO LOOP ON ERROR^
 26365									;IN CASE OF FAILURE, LOOP TO C500 ADDRESS
 26366
 26367					;**********
 26368
 26369
 26370					;THIS TEST VERIFIES THAT ALL ACS EXIST.
 26371					;FIRST, EACH AC IS PRELOADED WITH ITS OWN ADDRESS;
 26372					;THEN, THE CONTENTS OF EACH AC IS CHECKED FOR ITS ADDRESS.
 26373					;IF ANY AC DOES NOT CONTAIN ITS ADDRESS, THIS TEST FAILS
 26374
 26375			000512		SN=SN+1
 26376			000006			ZZ=ZZ-1
 26377	044666	302 06 0 00 000006 		CAIE	ZZ,ZZ		;CHECK THAT EACH AC CONTAINS ITS OWN ADDRESS
 26378						STOP^
 26379	044667	254 04 0 00 044670 		HALT	.+1		;TEST FAILED IF PROGRAM HALTS HERE
 26380	044670	324 00 0 00 044671 		JUMPA	.+1		;IF TEST FAILS, CHANGE THIS INSTRUCTION (JUMPA .+1) TO
 26381									;JUMPA X (X IS THE ADDRESS OF THE FIRST INSTRUCTION
 26382									;IN THE SUBTEST) TO LOOP ON ERROR^
 26383									;IN CASE OF FAILURE, LOOP TO C500 ADDRESS
 26384
 26385					;**********
 26386
 26387
 26388					;THIS TEST VERIFIES THAT ALL ACS EXIST.
 26389					;FIRST, EACH AC IS PRELOADED WITH ITS OWN ADDRESS;
 26390					;THEN, THE CONTENTS OF EACH AC IS CHECKED FOR ITS ADDRESS.
 26391					;IF ANY AC DOES NOT CONTAIN ITS ADDRESS, THIS TEST FAILS
 26392
 26393			000513		SN=SN+1
 26394			000005			ZZ=ZZ-1
 26395	044671	302 05 0 00 000005 		CAIE	ZZ,ZZ		;CHECK THAT EACH AC CONTAINS ITS OWN ADDRESS
 26396						STOP^
 26397	044672	254 04 0 00 044673 		HALT	.+1		;TEST FAILED IF PROGRAM HALTS HERE
 26398	044673	324 00 0 00 044674 		JUMPA	.+1		;IF TEST FAILS, CHANGE THIS INSTRUCTION (JUMPA .+1) TO
 26399									;JUMPA X (X IS THE ADDRESS OF THE FIRST INSTRUCTION
 26400									;IN THE SUBTEST) TO LOOP ON ERROR^
 26401									;IN CASE OF FAILURE, LOOP TO C500 ADDRESS
 26402
 26403					;**********
 26404
 26405
 26406					;THIS TEST VERIFIES THAT ALL ACS EXIST.
 26407					;FIRST, EACH AC IS PRELOADED WITH ITS OWN ADDRESS;
 26408					;THEN, THE CONTENTS OF EACH AC IS CHECKED FOR ITS ADDRESS.
 26409					;IF ANY AC DOES NOT CONTAIN ITS ADDRESS, THIS TEST FAILS
 26410
DFKAA PDP-10 KL10 BASIC INSTRUCTION DIAGNOSTIC (1) VER 0,2	MACRO %53B(1254)-4 11:50 11-Nov-24 Page 3-5
DFKAA4	MAC	13-Jan-89 10:22		TEST OF AC HARDWARE AND INDEX REGISTERS

 26411			000514		SN=SN+1
 26412			000004			ZZ=ZZ-1
 26413	044674	302 04 0 00 000004 		CAIE	ZZ,ZZ		;CHECK THAT EACH AC CONTAINS ITS OWN ADDRESS
 26414						STOP^
 26415	044675	254 04 0 00 044676 		HALT	.+1		;TEST FAILED IF PROGRAM HALTS HERE
 26416	044676	324 00 0 00 044677 		JUMPA	.+1		;IF TEST FAILS, CHANGE THIS INSTRUCTION (JUMPA .+1) TO
 26417									;JUMPA X (X IS THE ADDRESS OF THE FIRST INSTRUCTION
 26418									;IN THE SUBTEST) TO LOOP ON ERROR^
 26419									;IN CASE OF FAILURE, LOOP TO C500 ADDRESS
 26420
 26421					;**********
 26422
 26423
 26424					;THIS TEST VERIFIES THAT ALL ACS EXIST.
 26425					;FIRST, EACH AC IS PRELOADED WITH ITS OWN ADDRESS;
 26426					;THEN, THE CONTENTS OF EACH AC IS CHECKED FOR ITS ADDRESS.
 26427					;IF ANY AC DOES NOT CONTAIN ITS ADDRESS, THIS TEST FAILS
 26428
 26429			000515		SN=SN+1
 26430			000003			ZZ=ZZ-1
 26431	044677	302 03 0 00 000003 		CAIE	ZZ,ZZ		;CHECK THAT EACH AC CONTAINS ITS OWN ADDRESS
 26432						STOP^
 26433	044700	254 04 0 00 044701 		HALT	.+1		;TEST FAILED IF PROGRAM HALTS HERE
 26434	044701	324 00 0 00 044702 		JUMPA	.+1		;IF TEST FAILS, CHANGE THIS INSTRUCTION (JUMPA .+1) TO
 26435									;JUMPA X (X IS THE ADDRESS OF THE FIRST INSTRUCTION
 26436									;IN THE SUBTEST) TO LOOP ON ERROR^
 26437									;IN CASE OF FAILURE, LOOP TO C500 ADDRESS
 26438
 26439					;**********
 26440
 26441
 26442					;THIS TEST VERIFIES THAT ALL ACS EXIST.
 26443					;FIRST, EACH AC IS PRELOADED WITH ITS OWN ADDRESS;
 26444					;THEN, THE CONTENTS OF EACH AC IS CHECKED FOR ITS ADDRESS.
 26445					;IF ANY AC DOES NOT CONTAIN ITS ADDRESS, THIS TEST FAILS
 26446
 26447			000516		SN=SN+1
 26448			000002			ZZ=ZZ-1
 26449	044702	302 02 0 00 000002 		CAIE	ZZ,ZZ		;CHECK THAT EACH AC CONTAINS ITS OWN ADDRESS
 26450						STOP^
 26451	044703	254 04 0 00 044704 		HALT	.+1		;TEST FAILED IF PROGRAM HALTS HERE
 26452	044704	324 00 0 00 044705 		JUMPA	.+1		;IF TEST FAILS, CHANGE THIS INSTRUCTION (JUMPA .+1) TO
 26453									;JUMPA X (X IS THE ADDRESS OF THE FIRST INSTRUCTION
 26454									;IN THE SUBTEST) TO LOOP ON ERROR^
 26455									;IN CASE OF FAILURE, LOOP TO C500 ADDRESS
 26456
 26457					;**********
 26458
 26459
 26460					;THIS TEST VERIFIES THAT ALL ACS EXIST.
 26461					;FIRST, EACH AC IS PRELOADED WITH ITS OWN ADDRESS;
 26462					;THEN, THE CONTENTS OF EACH AC IS CHECKED FOR ITS ADDRESS.
 26463					;IF ANY AC DOES NOT CONTAIN ITS ADDRESS, THIS TEST FAILS
 26464
 26465			000517		SN=SN+1
DFKAA PDP-10 KL10 BASIC INSTRUCTION DIAGNOSTIC (1) VER 0,2	MACRO %53B(1254)-4 11:50 11-Nov-24 Page 3-6
DFKAA4	MAC	13-Jan-89 10:22		TEST OF AC HARDWARE AND INDEX REGISTERS

 26466			000001			ZZ=ZZ-1
 26467	044705	302 01 0 00 000001 		CAIE	ZZ,ZZ		;CHECK THAT EACH AC CONTAINS ITS OWN ADDRESS
 26468						STOP^
 26469	044706	254 04 0 00 044707 		HALT	.+1		;TEST FAILED IF PROGRAM HALTS HERE
 26470	044707	324 00 0 00 044710 		JUMPA	.+1		;IF TEST FAILS, CHANGE THIS INSTRUCTION (JUMPA .+1) TO
 26471									;JUMPA X (X IS THE ADDRESS OF THE FIRST INSTRUCTION
 26472									;IN THE SUBTEST) TO LOOP ON ERROR^
 26473									;IN CASE OF FAILURE, LOOP TO C500 ADDRESS
 26474
 26475					;**********
 26476
 26477
 26478					;THIS TEST VERIFIES THAT ALL ACS EXIST.
 26479					;FIRST, EACH AC IS PRELOADED WITH ITS OWN ADDRESS;
 26480					;THEN, THE CONTENTS OF EACH AC IS CHECKED FOR ITS ADDRESS.
 26481					;IF ANY AC DOES NOT CONTAIN ITS ADDRESS, THIS TEST FAILS
 26482
 26483			000520		SN=SN+1
 26484			000000			ZZ=ZZ-1
 26485	044710	302 00 0 00 000000 		CAIE	ZZ,ZZ		;CHECK THAT EACH AC CONTAINS ITS OWN ADDRESS
 26486						STOP^
 26487	044711	254 04 0 00 044712 		HALT	.+1		;TEST FAILED IF PROGRAM HALTS HERE
 26488	044712	324 00 0 00 044713 		JUMPA	.+1		;IF TEST FAILS, CHANGE THIS INSTRUCTION (JUMPA .+1) TO
 26489									;JUMPA X (X IS THE ADDRESS OF THE FIRST INSTRUCTION
 26490									;IN THE SUBTEST) TO LOOP ON ERROR^
 26491									;IN CASE OF FAILURE, LOOP TO C500 ADDRESS
 26492
 26493					;**********
 26494
DFKAA PDP-10 KL10 BASIC INSTRUCTION DIAGNOSTIC (1) VER 0,2	MACRO %53B(1254)-4 11:50 11-Nov-24 Page 4
DFKAA4	MAC	13-Jan-89 10:22		TEST OF AC HARDWARE AND INDEX REGISTERS

 26495			000600		SN=600
 26496			000000			ZZ=0
 26497
 26498					;THIS TEST VERIFIES THAT AN ADDRESS WITHIN THE AC RANGE MAY BE ACCESSED AS
 26499					;EITHER AN AC OR A MEMORY LOCATION AND THAT EITHER REFERENCE REFERS TO THE
 26500					;SAME HARDWARE.  EACH AC IS PRELOADED WITH ITS ADDRESS; THEN THE CONTENTS OF EACH
 26501					;AC IS CHECKED FOR ITS ADDRESS.  IF ANY AC DOES NOT CONTAIN ITS ADDRESS, THIS TEST FAILS.
 26502
 26503					C600:	REPEAT	^D15,
 26504					<	ZZ=ZZ+1
 26505						MOVEI	ZZ		;PRELOAD EACH AC WITH ITS ADDRESS
 26506						MOVEM	ZZ		;BY REFERENCING EACH AC AS MEMORY.>
 26507			000001			ZZ=ZZ+1
 26508	044713	201 00 0 00 000001 		MOVEI	ZZ		;PRELOAD EACH AC WITH ITS ADDRESS
 26509	044714	202 00 0 00 000001 		MOVEM	ZZ		;BY REFERENCING EACH AC AS MEMORY.
 26510			000002			ZZ=ZZ+1
 26511	044715	201 00 0 00 000002 		MOVEI	ZZ		;PRELOAD EACH AC WITH ITS ADDRESS
 26512	044716	202 00 0 00 000002 		MOVEM	ZZ		;BY REFERENCING EACH AC AS MEMORY.
 26513			000003			ZZ=ZZ+1
 26514	044717	201 00 0 00 000003 		MOVEI	ZZ		;PRELOAD EACH AC WITH ITS ADDRESS
 26515	044720	202 00 0 00 000003 		MOVEM	ZZ		;BY REFERENCING EACH AC AS MEMORY.
 26516			000004			ZZ=ZZ+1
 26517	044721	201 00 0 00 000004 		MOVEI	ZZ		;PRELOAD EACH AC WITH ITS ADDRESS
 26518	044722	202 00 0 00 000004 		MOVEM	ZZ		;BY REFERENCING EACH AC AS MEMORY.
 26519			000005			ZZ=ZZ+1
 26520	044723	201 00 0 00 000005 		MOVEI	ZZ		;PRELOAD EACH AC WITH ITS ADDRESS
 26521	044724	202 00 0 00 000005 		MOVEM	ZZ		;BY REFERENCING EACH AC AS MEMORY.
 26522			000006			ZZ=ZZ+1
 26523	044725	201 00 0 00 000006 		MOVEI	ZZ		;PRELOAD EACH AC WITH ITS ADDRESS
 26524	044726	202 00 0 00 000006 		MOVEM	ZZ		;BY REFERENCING EACH AC AS MEMORY.
 26525			000007			ZZ=ZZ+1
 26526	044727	201 00 0 00 000007 		MOVEI	ZZ		;PRELOAD EACH AC WITH ITS ADDRESS
 26527	044730	202 00 0 00 000007 		MOVEM	ZZ		;BY REFERENCING EACH AC AS MEMORY.
 26528			000010			ZZ=ZZ+1
 26529	044731	201 00 0 00 000010 		MOVEI	ZZ		;PRELOAD EACH AC WITH ITS ADDRESS
 26530	044732	202 00 0 00 000010 		MOVEM	ZZ		;BY REFERENCING EACH AC AS MEMORY.
 26531			000011			ZZ=ZZ+1
 26532	044733	201 00 0 00 000011 		MOVEI	ZZ		;PRELOAD EACH AC WITH ITS ADDRESS
 26533	044734	202 00 0 00 000011 		MOVEM	ZZ		;BY REFERENCING EACH AC AS MEMORY.
 26534			000012			ZZ=ZZ+1
 26535	044735	201 00 0 00 000012 		MOVEI	ZZ		;PRELOAD EACH AC WITH ITS ADDRESS
 26536	044736	202 00 0 00 000012 		MOVEM	ZZ		;BY REFERENCING EACH AC AS MEMORY.
 26537			000013			ZZ=ZZ+1
 26538	044737	201 00 0 00 000013 		MOVEI	ZZ		;PRELOAD EACH AC WITH ITS ADDRESS
 26539	044740	202 00 0 00 000013 		MOVEM	ZZ		;BY REFERENCING EACH AC AS MEMORY.
 26540			000014			ZZ=ZZ+1
 26541	044741	201 00 0 00 000014 		MOVEI	ZZ		;PRELOAD EACH AC WITH ITS ADDRESS
 26542	044742	202 00 0 00 000014 		MOVEM	ZZ		;BY REFERENCING EACH AC AS MEMORY.
 26543			000015			ZZ=ZZ+1
 26544	044743	201 00 0 00 000015 		MOVEI	ZZ		;PRELOAD EACH AC WITH ITS ADDRESS
 26545	044744	202 00 0 00 000015 		MOVEM	ZZ		;BY REFERENCING EACH AC AS MEMORY.
 26546			000016			ZZ=ZZ+1
 26547	044745	201 00 0 00 000016 		MOVEI	ZZ		;PRELOAD EACH AC WITH ITS ADDRESS
 26548	044746	202 00 0 00 000016 		MOVEM	ZZ		;BY REFERENCING EACH AC AS MEMORY.
 26549			000017			ZZ=ZZ+1
DFKAA PDP-10 KL10 BASIC INSTRUCTION DIAGNOSTIC (1) VER 0,2	MACRO %53B(1254)-4 11:50 11-Nov-24 Page 4-1
DFKAA4	MAC	13-Jan-89 10:22		TEST OF AC HARDWARE AND INDEX REGISTERS

 26550	044747	201 00 0 00 000017 		MOVEI	ZZ		;PRELOAD EACH AC WITH ITS ADDRESS
 26551	044750	202 00 0 00 000017 		MOVEM	ZZ		;BY REFERENCING EACH AC AS MEMORY.
 26552
 26553			000020			ZZ=20
 26554
 26555						REPEAT	^D15,<
 26556					;THIS TEST VERIFIES THAT AN ADDRESS WITHIN THE AC RANGE MAY BE ACCESSED AS
 26557					;EITHER AN AC OR A MEMORY LOCATION AND THAT EITHER REFERENCE REFERS TO THE
 26558					;SAME HARDWARE.  EACH AC IS PRELOADED WITH ITS ADDRESS
 26559					;THEN THE CONTENTS OF EACH AC IS CHECKED FOR ITS ADDRESS.
 26560					;IF ANY AC DOES NOT CONTAIN ITS ADDRESS, THIS TEST FAILS.
 26561
 26562					SN=SN+1
 26563						ZZ=ZZ-1
 26564						CAIE	ZZ,ZZ		;CHECK THAT EACH AC CONTAINS ITS OWN ADDRESS
 26565						STOP
 26566									;IN CASE OF FAILURE, LOOP TO C600 ADDRESS
 26567
 26568					;**********
 26569					>
 26570
 26571					;THIS TEST VERIFIES THAT AN ADDRESS WITHIN THE AC RANGE MAY BE ACCESSED AS
 26572					;EITHER AN AC OR A MEMORY LOCATION AND THAT EITHER REFERENCE REFERS TO THE
 26573					;SAME HARDWARE.  EACH AC IS PRELOADED WITH ITS ADDRESS
 26574					;THEN THE CONTENTS OF EACH AC IS CHECKED FOR ITS ADDRESS.
 26575					;IF ANY AC DOES NOT CONTAIN ITS ADDRESS, THIS TEST FAILS.
 26576
 26577			000601		SN=SN+1
 26578			000017			ZZ=ZZ-1
 26579	044751	302 17 0 00 000017 		CAIE	ZZ,ZZ		;CHECK THAT EACH AC CONTAINS ITS OWN ADDRESS
 26580						STOP^
 26581	044752	254 04 0 00 044753 		HALT	.+1		;TEST FAILED IF PROGRAM HALTS HERE
 26582	044753	324 00 0 00 044754 		JUMPA	.+1		;IF TEST FAILS, CHANGE THIS INSTRUCTION (JUMPA .+1) TO
 26583									;JUMPA X (X IS THE ADDRESS OF THE FIRST INSTRUCTION
 26584									;IN THE SUBTEST) TO LOOP ON ERROR^
 26585									;IN CASE OF FAILURE, LOOP TO C600 ADDRESS
 26586
 26587					;**********
 26588
 26589
 26590					;THIS TEST VERIFIES THAT AN ADDRESS WITHIN THE AC RANGE MAY BE ACCESSED AS
 26591					;EITHER AN AC OR A MEMORY LOCATION AND THAT EITHER REFERENCE REFERS TO THE
 26592					;SAME HARDWARE.  EACH AC IS PRELOADED WITH ITS ADDRESS
 26593					;THEN THE CONTENTS OF EACH AC IS CHECKED FOR ITS ADDRESS.
 26594					;IF ANY AC DOES NOT CONTAIN ITS ADDRESS, THIS TEST FAILS.
 26595
 26596			000602		SN=SN+1
 26597			000016			ZZ=ZZ-1
 26598	044754	302 16 0 00 000016 		CAIE	ZZ,ZZ		;CHECK THAT EACH AC CONTAINS ITS OWN ADDRESS
 26599						STOP^
 26600	044755	254 04 0 00 044756 		HALT	.+1		;TEST FAILED IF PROGRAM HALTS HERE
 26601	044756	324 00 0 00 044757 		JUMPA	.+1		;IF TEST FAILS, CHANGE THIS INSTRUCTION (JUMPA .+1) TO
 26602									;JUMPA X (X IS THE ADDRESS OF THE FIRST INSTRUCTION
 26603									;IN THE SUBTEST) TO LOOP ON ERROR^
 26604									;IN CASE OF FAILURE, LOOP TO C600 ADDRESS
DFKAA PDP-10 KL10 BASIC INSTRUCTION DIAGNOSTIC (1) VER 0,2	MACRO %53B(1254)-4 11:50 11-Nov-24 Page 4-2
DFKAA4	MAC	13-Jan-89 10:22		TEST OF AC HARDWARE AND INDEX REGISTERS

 26605
 26606					;**********
 26607
 26608
 26609					;THIS TEST VERIFIES THAT AN ADDRESS WITHIN THE AC RANGE MAY BE ACCESSED AS
 26610					;EITHER AN AC OR A MEMORY LOCATION AND THAT EITHER REFERENCE REFERS TO THE
 26611					;SAME HARDWARE.  EACH AC IS PRELOADED WITH ITS ADDRESS
 26612					;THEN THE CONTENTS OF EACH AC IS CHECKED FOR ITS ADDRESS.
 26613					;IF ANY AC DOES NOT CONTAIN ITS ADDRESS, THIS TEST FAILS.
 26614
 26615			000603		SN=SN+1
 26616			000015			ZZ=ZZ-1
 26617	044757	302 15 0 00 000015 		CAIE	ZZ,ZZ		;CHECK THAT EACH AC CONTAINS ITS OWN ADDRESS
 26618						STOP^
 26619	044760	254 04 0 00 044761 		HALT	.+1		;TEST FAILED IF PROGRAM HALTS HERE
 26620	044761	324 00 0 00 044762 		JUMPA	.+1		;IF TEST FAILS, CHANGE THIS INSTRUCTION (JUMPA .+1) TO
 26621									;JUMPA X (X IS THE ADDRESS OF THE FIRST INSTRUCTION
 26622									;IN THE SUBTEST) TO LOOP ON ERROR^
 26623									;IN CASE OF FAILURE, LOOP TO C600 ADDRESS
 26624
 26625					;**********
 26626
 26627
 26628					;THIS TEST VERIFIES THAT AN ADDRESS WITHIN THE AC RANGE MAY BE ACCESSED AS
 26629					;EITHER AN AC OR A MEMORY LOCATION AND THAT EITHER REFERENCE REFERS TO THE
 26630					;SAME HARDWARE.  EACH AC IS PRELOADED WITH ITS ADDRESS
 26631					;THEN THE CONTENTS OF EACH AC IS CHECKED FOR ITS ADDRESS.
 26632					;IF ANY AC DOES NOT CONTAIN ITS ADDRESS, THIS TEST FAILS.
 26633
 26634			000604		SN=SN+1
 26635			000014			ZZ=ZZ-1
 26636	044762	302 14 0 00 000014 		CAIE	ZZ,ZZ		;CHECK THAT EACH AC CONTAINS ITS OWN ADDRESS
 26637						STOP^
 26638	044763	254 04 0 00 044764 		HALT	.+1		;TEST FAILED IF PROGRAM HALTS HERE
 26639	044764	324 00 0 00 044765 		JUMPA	.+1		;IF TEST FAILS, CHANGE THIS INSTRUCTION (JUMPA .+1) TO
 26640									;JUMPA X (X IS THE ADDRESS OF THE FIRST INSTRUCTION
 26641									;IN THE SUBTEST) TO LOOP ON ERROR^
 26642									;IN CASE OF FAILURE, LOOP TO C600 ADDRESS
 26643
 26644					;**********
 26645
 26646
 26647					;THIS TEST VERIFIES THAT AN ADDRESS WITHIN THE AC RANGE MAY BE ACCESSED AS
 26648					;EITHER AN AC OR A MEMORY LOCATION AND THAT EITHER REFERENCE REFERS TO THE
 26649					;SAME HARDWARE.  EACH AC IS PRELOADED WITH ITS ADDRESS
 26650					;THEN THE CONTENTS OF EACH AC IS CHECKED FOR ITS ADDRESS.
 26651					;IF ANY AC DOES NOT CONTAIN ITS ADDRESS, THIS TEST FAILS.
 26652
 26653			000605		SN=SN+1
 26654			000013			ZZ=ZZ-1
 26655	044765	302 13 0 00 000013 		CAIE	ZZ,ZZ		;CHECK THAT EACH AC CONTAINS ITS OWN ADDRESS
 26656						STOP^
 26657	044766	254 04 0 00 044767 		HALT	.+1		;TEST FAILED IF PROGRAM HALTS HERE
 26658	044767	324 00 0 00 044770 		JUMPA	.+1		;IF TEST FAILS, CHANGE THIS INSTRUCTION (JUMPA .+1) TO
 26659									;JUMPA X (X IS THE ADDRESS OF THE FIRST INSTRUCTION
DFKAA PDP-10 KL10 BASIC INSTRUCTION DIAGNOSTIC (1) VER 0,2	MACRO %53B(1254)-4 11:50 11-Nov-24 Page 4-3
DFKAA4	MAC	13-Jan-89 10:22		TEST OF AC HARDWARE AND INDEX REGISTERS

 26660									;IN THE SUBTEST) TO LOOP ON ERROR^
 26661									;IN CASE OF FAILURE, LOOP TO C600 ADDRESS
 26662
 26663					;**********
 26664
 26665
 26666					;THIS TEST VERIFIES THAT AN ADDRESS WITHIN THE AC RANGE MAY BE ACCESSED AS
 26667					;EITHER AN AC OR A MEMORY LOCATION AND THAT EITHER REFERENCE REFERS TO THE
 26668					;SAME HARDWARE.  EACH AC IS PRELOADED WITH ITS ADDRESS
 26669					;THEN THE CONTENTS OF EACH AC IS CHECKED FOR ITS ADDRESS.
 26670					;IF ANY AC DOES NOT CONTAIN ITS ADDRESS, THIS TEST FAILS.
 26671
 26672			000606		SN=SN+1
 26673			000012			ZZ=ZZ-1
 26674	044770	302 12 0 00 000012 		CAIE	ZZ,ZZ		;CHECK THAT EACH AC CONTAINS ITS OWN ADDRESS
 26675						STOP^
 26676	044771	254 04 0 00 044772 		HALT	.+1		;TEST FAILED IF PROGRAM HALTS HERE
 26677	044772	324 00 0 00 044773 		JUMPA	.+1		;IF TEST FAILS, CHANGE THIS INSTRUCTION (JUMPA .+1) TO
 26678									;JUMPA X (X IS THE ADDRESS OF THE FIRST INSTRUCTION
 26679									;IN THE SUBTEST) TO LOOP ON ERROR^
 26680									;IN CASE OF FAILURE, LOOP TO C600 ADDRESS
 26681
 26682					;**********
 26683
 26684
 26685					;THIS TEST VERIFIES THAT AN ADDRESS WITHIN THE AC RANGE MAY BE ACCESSED AS
 26686					;EITHER AN AC OR A MEMORY LOCATION AND THAT EITHER REFERENCE REFERS TO THE
 26687					;SAME HARDWARE.  EACH AC IS PRELOADED WITH ITS ADDRESS
 26688					;THEN THE CONTENTS OF EACH AC IS CHECKED FOR ITS ADDRESS.
 26689					;IF ANY AC DOES NOT CONTAIN ITS ADDRESS, THIS TEST FAILS.
 26690
 26691			000607		SN=SN+1
 26692			000011			ZZ=ZZ-1
 26693	044773	302 11 0 00 000011 		CAIE	ZZ,ZZ		;CHECK THAT EACH AC CONTAINS ITS OWN ADDRESS
 26694						STOP^
 26695	044774	254 04 0 00 044775 		HALT	.+1		;TEST FAILED IF PROGRAM HALTS HERE
 26696	044775	324 00 0 00 044776 		JUMPA	.+1		;IF TEST FAILS, CHANGE THIS INSTRUCTION (JUMPA .+1) TO
 26697									;JUMPA X (X IS THE ADDRESS OF THE FIRST INSTRUCTION
 26698									;IN THE SUBTEST) TO LOOP ON ERROR^
 26699									;IN CASE OF FAILURE, LOOP TO C600 ADDRESS
 26700
 26701					;**********
 26702
 26703
 26704					;THIS TEST VERIFIES THAT AN ADDRESS WITHIN THE AC RANGE MAY BE ACCESSED AS
 26705					;EITHER AN AC OR A MEMORY LOCATION AND THAT EITHER REFERENCE REFERS TO THE
 26706					;SAME HARDWARE.  EACH AC IS PRELOADED WITH ITS ADDRESS
 26707					;THEN THE CONTENTS OF EACH AC IS CHECKED FOR ITS ADDRESS.
 26708					;IF ANY AC DOES NOT CONTAIN ITS ADDRESS, THIS TEST FAILS.
 26709
 26710			000610		SN=SN+1
 26711			000010			ZZ=ZZ-1
 26712	044776	302 10 0 00 000010 		CAIE	ZZ,ZZ		;CHECK THAT EACH AC CONTAINS ITS OWN ADDRESS
 26713						STOP^
 26714	044777	254 04 0 00 045000 		HALT	.+1		;TEST FAILED IF PROGRAM HALTS HERE
DFKAA PDP-10 KL10 BASIC INSTRUCTION DIAGNOSTIC (1) VER 0,2	MACRO %53B(1254)-4 11:50 11-Nov-24 Page 4-4
DFKAA4	MAC	13-Jan-89 10:22		TEST OF AC HARDWARE AND INDEX REGISTERS

 26715	045000	324 00 0 00 045001 		JUMPA	.+1		;IF TEST FAILS, CHANGE THIS INSTRUCTION (JUMPA .+1) TO
 26716									;JUMPA X (X IS THE ADDRESS OF THE FIRST INSTRUCTION
 26717									;IN THE SUBTEST) TO LOOP ON ERROR^
 26718									;IN CASE OF FAILURE, LOOP TO C600 ADDRESS
 26719
 26720					;**********
 26721
 26722
 26723					;THIS TEST VERIFIES THAT AN ADDRESS WITHIN THE AC RANGE MAY BE ACCESSED AS
 26724					;EITHER AN AC OR A MEMORY LOCATION AND THAT EITHER REFERENCE REFERS TO THE
 26725					;SAME HARDWARE.  EACH AC IS PRELOADED WITH ITS ADDRESS
 26726					;THEN THE CONTENTS OF EACH AC IS CHECKED FOR ITS ADDRESS.
 26727					;IF ANY AC DOES NOT CONTAIN ITS ADDRESS, THIS TEST FAILS.
 26728
 26729			000611		SN=SN+1
 26730			000007			ZZ=ZZ-1
 26731	045001	302 07 0 00 000007 		CAIE	ZZ,ZZ		;CHECK THAT EACH AC CONTAINS ITS OWN ADDRESS
 26732						STOP^
 26733	045002	254 04 0 00 045003 		HALT	.+1		;TEST FAILED IF PROGRAM HALTS HERE
 26734	045003	324 00 0 00 045004 		JUMPA	.+1		;IF TEST FAILS, CHANGE THIS INSTRUCTION (JUMPA .+1) TO
 26735									;JUMPA X (X IS THE ADDRESS OF THE FIRST INSTRUCTION
 26736									;IN THE SUBTEST) TO LOOP ON ERROR^
 26737									;IN CASE OF FAILURE, LOOP TO C600 ADDRESS
 26738
 26739					;**********
 26740
 26741
 26742					;THIS TEST VERIFIES THAT AN ADDRESS WITHIN THE AC RANGE MAY BE ACCESSED AS
 26743					;EITHER AN AC OR A MEMORY LOCATION AND THAT EITHER REFERENCE REFERS TO THE
 26744					;SAME HARDWARE.  EACH AC IS PRELOADED WITH ITS ADDRESS
 26745					;THEN THE CONTENTS OF EACH AC IS CHECKED FOR ITS ADDRESS.
 26746					;IF ANY AC DOES NOT CONTAIN ITS ADDRESS, THIS TEST FAILS.
 26747
 26748			000612		SN=SN+1
 26749			000006			ZZ=ZZ-1
 26750	045004	302 06 0 00 000006 		CAIE	ZZ,ZZ		;CHECK THAT EACH AC CONTAINS ITS OWN ADDRESS
 26751						STOP^
 26752	045005	254 04 0 00 045006 		HALT	.+1		;TEST FAILED IF PROGRAM HALTS HERE
 26753	045006	324 00 0 00 045007 		JUMPA	.+1		;IF TEST FAILS, CHANGE THIS INSTRUCTION (JUMPA .+1) TO
 26754									;JUMPA X (X IS THE ADDRESS OF THE FIRST INSTRUCTION
 26755									;IN THE SUBTEST) TO LOOP ON ERROR^
 26756									;IN CASE OF FAILURE, LOOP TO C600 ADDRESS
 26757
 26758					;**********
 26759
 26760
 26761					;THIS TEST VERIFIES THAT AN ADDRESS WITHIN THE AC RANGE MAY BE ACCESSED AS
 26762					;EITHER AN AC OR A MEMORY LOCATION AND THAT EITHER REFERENCE REFERS TO THE
 26763					;SAME HARDWARE.  EACH AC IS PRELOADED WITH ITS ADDRESS
 26764					;THEN THE CONTENTS OF EACH AC IS CHECKED FOR ITS ADDRESS.
 26765					;IF ANY AC DOES NOT CONTAIN ITS ADDRESS, THIS TEST FAILS.
 26766
 26767			000613		SN=SN+1
 26768			000005			ZZ=ZZ-1
 26769	045007	302 05 0 00 000005 		CAIE	ZZ,ZZ		;CHECK THAT EACH AC CONTAINS ITS OWN ADDRESS
DFKAA PDP-10 KL10 BASIC INSTRUCTION DIAGNOSTIC (1) VER 0,2	MACRO %53B(1254)-4 11:50 11-Nov-24 Page 4-5
DFKAA4	MAC	13-Jan-89 10:22		TEST OF AC HARDWARE AND INDEX REGISTERS

 26770						STOP^
 26771	045010	254 04 0 00 045011 		HALT	.+1		;TEST FAILED IF PROGRAM HALTS HERE
 26772	045011	324 00 0 00 045012 		JUMPA	.+1		;IF TEST FAILS, CHANGE THIS INSTRUCTION (JUMPA .+1) TO
 26773									;JUMPA X (X IS THE ADDRESS OF THE FIRST INSTRUCTION
 26774									;IN THE SUBTEST) TO LOOP ON ERROR^
 26775									;IN CASE OF FAILURE, LOOP TO C600 ADDRESS
 26776
 26777					;**********
 26778
 26779
 26780					;THIS TEST VERIFIES THAT AN ADDRESS WITHIN THE AC RANGE MAY BE ACCESSED AS
 26781					;EITHER AN AC OR A MEMORY LOCATION AND THAT EITHER REFERENCE REFERS TO THE
 26782					;SAME HARDWARE.  EACH AC IS PRELOADED WITH ITS ADDRESS
 26783					;THEN THE CONTENTS OF EACH AC IS CHECKED FOR ITS ADDRESS.
 26784					;IF ANY AC DOES NOT CONTAIN ITS ADDRESS, THIS TEST FAILS.
 26785
 26786			000614		SN=SN+1
 26787			000004			ZZ=ZZ-1
 26788	045012	302 04 0 00 000004 		CAIE	ZZ,ZZ		;CHECK THAT EACH AC CONTAINS ITS OWN ADDRESS
 26789						STOP^
 26790	045013	254 04 0 00 045014 		HALT	.+1		;TEST FAILED IF PROGRAM HALTS HERE
 26791	045014	324 00 0 00 045015 		JUMPA	.+1		;IF TEST FAILS, CHANGE THIS INSTRUCTION (JUMPA .+1) TO
 26792									;JUMPA X (X IS THE ADDRESS OF THE FIRST INSTRUCTION
 26793									;IN THE SUBTEST) TO LOOP ON ERROR^
 26794									;IN CASE OF FAILURE, LOOP TO C600 ADDRESS
 26795
 26796					;**********
 26797
 26798
 26799					;THIS TEST VERIFIES THAT AN ADDRESS WITHIN THE AC RANGE MAY BE ACCESSED AS
 26800					;EITHER AN AC OR A MEMORY LOCATION AND THAT EITHER REFERENCE REFERS TO THE
 26801					;SAME HARDWARE.  EACH AC IS PRELOADED WITH ITS ADDRESS
 26802					;THEN THE CONTENTS OF EACH AC IS CHECKED FOR ITS ADDRESS.
 26803					;IF ANY AC DOES NOT CONTAIN ITS ADDRESS, THIS TEST FAILS.
 26804
 26805			000615		SN=SN+1
 26806			000003			ZZ=ZZ-1
 26807	045015	302 03 0 00 000003 		CAIE	ZZ,ZZ		;CHECK THAT EACH AC CONTAINS ITS OWN ADDRESS
 26808						STOP^
 26809	045016	254 04 0 00 045017 		HALT	.+1		;TEST FAILED IF PROGRAM HALTS HERE
 26810	045017	324 00 0 00 045020 		JUMPA	.+1		;IF TEST FAILS, CHANGE THIS INSTRUCTION (JUMPA .+1) TO
 26811									;JUMPA X (X IS THE ADDRESS OF THE FIRST INSTRUCTION
 26812									;IN THE SUBTEST) TO LOOP ON ERROR^
 26813									;IN CASE OF FAILURE, LOOP TO C600 ADDRESS
 26814
 26815					;**********
 26816
 26817
 26818					;THIS TEST VERIFIES THAT AN ADDRESS WITHIN THE AC RANGE MAY BE ACCESSED AS
 26819					;EITHER AN AC OR A MEMORY LOCATION AND THAT EITHER REFERENCE REFERS TO THE
 26820					;SAME HARDWARE.  EACH AC IS PRELOADED WITH ITS ADDRESS
 26821					;THEN THE CONTENTS OF EACH AC IS CHECKED FOR ITS ADDRESS.
 26822					;IF ANY AC DOES NOT CONTAIN ITS ADDRESS, THIS TEST FAILS.
 26823
 26824			000616		SN=SN+1
DFKAA PDP-10 KL10 BASIC INSTRUCTION DIAGNOSTIC (1) VER 0,2	MACRO %53B(1254)-4 11:50 11-Nov-24 Page 4-6
DFKAA4	MAC	13-Jan-89 10:22		TEST OF AC HARDWARE AND INDEX REGISTERS

 26825			000002			ZZ=ZZ-1
 26826	045020	302 02 0 00 000002 		CAIE	ZZ,ZZ		;CHECK THAT EACH AC CONTAINS ITS OWN ADDRESS
 26827						STOP^
 26828	045021	254 04 0 00 045022 		HALT	.+1		;TEST FAILED IF PROGRAM HALTS HERE
 26829	045022	324 00 0 00 045023 		JUMPA	.+1		;IF TEST FAILS, CHANGE THIS INSTRUCTION (JUMPA .+1) TO
 26830									;JUMPA X (X IS THE ADDRESS OF THE FIRST INSTRUCTION
 26831									;IN THE SUBTEST) TO LOOP ON ERROR^
 26832									;IN CASE OF FAILURE, LOOP TO C600 ADDRESS
 26833
 26834					;**********
 26835
 26836
 26837					;THIS TEST VERIFIES THAT AN ADDRESS WITHIN THE AC RANGE MAY BE ACCESSED AS
 26838					;EITHER AN AC OR A MEMORY LOCATION AND THAT EITHER REFERENCE REFERS TO THE
 26839					;SAME HARDWARE.  EACH AC IS PRELOADED WITH ITS ADDRESS
 26840					;THEN THE CONTENTS OF EACH AC IS CHECKED FOR ITS ADDRESS.
 26841					;IF ANY AC DOES NOT CONTAIN ITS ADDRESS, THIS TEST FAILS.
 26842
 26843			000617		SN=SN+1
 26844			000001			ZZ=ZZ-1
 26845	045023	302 01 0 00 000001 		CAIE	ZZ,ZZ		;CHECK THAT EACH AC CONTAINS ITS OWN ADDRESS
 26846						STOP^
 26847	045024	254 04 0 00 045025 		HALT	.+1		;TEST FAILED IF PROGRAM HALTS HERE
 26848	045025	324 00 0 00 045026 		JUMPA	.+1		;IF TEST FAILS, CHANGE THIS INSTRUCTION (JUMPA .+1) TO
 26849									;JUMPA X (X IS THE ADDRESS OF THE FIRST INSTRUCTION
 26850									;IN THE SUBTEST) TO LOOP ON ERROR^
 26851									;IN CASE OF FAILURE, LOOP TO C600 ADDRESS
 26852
 26853					;**********
 26854
DFKAA PDP-10 KL10 BASIC INSTRUCTION DIAGNOSTIC (1) VER 0,2	MACRO %53B(1254)-4 11:50 11-Nov-24 Page 5
DFKAA4	MAC	13-Jan-89 10:22		TEST OF AC HARDWARE AND INDEX REGISTERS

 26855			000700		SN=700
 26856			000000			ZZ=0
 26857
 26858					C700:	REPEAT	^D15,<
 26859					;THIS TEST VERIFIES THAT THE INDEX REGISTERS ARE ACCESSABLE.
 26860					;FIRST, AN INDEX REGISTER IS PRELOADED WITH ITS ADDRESS; THEN,
 26861					;IT IS REFERENCED AS AN INDEX REGISTER.  IF IT CONTAINS ITS ADDRESS, THIS TEST PASSES.
 26862					;THIS TEST IS REPEATED 15 TIMES IN ORDER TO TEST EACH INDEX REGISTER.
 26863
 26864					SN=SN+1
 26865						ZZ=ZZ+1
 26866						MOVEI	ZZ,ZZ		;PRELOAD INDEX REGISTER WITH ITS ADDRESS
 26867						CAIE	ZZ,(ZZ)		;PASS IF INDEX REGISTER CONTAINS ITS ADDRESS
 26868						STOP
 26869
 26870					;**********
 26871					>
 26872
 26873					;THIS TEST VERIFIES THAT THE INDEX REGISTERS ARE ACCESSABLE.
 26874					;FIRST, AN INDEX REGISTER IS PRELOADED WITH ITS ADDRESS; THEN,
 26875					;IT IS REFERENCED AS AN INDEX REGISTER.  IF IT CONTAINS ITS ADDRESS, THIS TEST PASSES.
 26876					;THIS TEST IS REPEATED 15 TIMES IN ORDER TO TEST EACH INDEX REGISTER.
 26877
 26878			000701		SN=SN+1
 26879			000001			ZZ=ZZ+1
 26880	045026	201 01 0 00 000001 		MOVEI	ZZ,ZZ		;PRELOAD INDEX REGISTER WITH ITS ADDRESS
 26881	045027	302 01 0 01 000000 		CAIE	ZZ,(ZZ)		;PASS IF INDEX REGISTER CONTAINS ITS ADDRESS
 26882						STOP^
 26883	045030	254 04 0 00 045031 		HALT	.+1		;TEST FAILED IF PROGRAM HALTS HERE
 26884	045031	324 00 0 00 045032 		JUMPA	.+1		;IF TEST FAILS, CHANGE THIS INSTRUCTION (JUMPA .+1) TO
 26885									;JUMPA X (X IS THE ADDRESS OF THE FIRST INSTRUCTION
 26886									;IN THE SUBTEST) TO LOOP ON ERROR^
 26887
 26888					;**********
 26889
 26890
 26891					;THIS TEST VERIFIES THAT THE INDEX REGISTERS ARE ACCESSABLE.
 26892					;FIRST, AN INDEX REGISTER IS PRELOADED WITH ITS ADDRESS; THEN,
 26893					;IT IS REFERENCED AS AN INDEX REGISTER.  IF IT CONTAINS ITS ADDRESS, THIS TEST PASSES.
 26894					;THIS TEST IS REPEATED 15 TIMES IN ORDER TO TEST EACH INDEX REGISTER.
 26895
 26896			000702		SN=SN+1
 26897			000002			ZZ=ZZ+1
 26898	045032	201 02 0 00 000002 		MOVEI	ZZ,ZZ		;PRELOAD INDEX REGISTER WITH ITS ADDRESS
 26899	045033	302 02 0 02 000000 		CAIE	ZZ,(ZZ)		;PASS IF INDEX REGISTER CONTAINS ITS ADDRESS
 26900						STOP^
 26901	045034	254 04 0 00 045035 		HALT	.+1		;TEST FAILED IF PROGRAM HALTS HERE
 26902	045035	324 00 0 00 045036 		JUMPA	.+1		;IF TEST FAILS, CHANGE THIS INSTRUCTION (JUMPA .+1) TO
 26903									;JUMPA X (X IS THE ADDRESS OF THE FIRST INSTRUCTION
 26904									;IN THE SUBTEST) TO LOOP ON ERROR^
 26905
 26906					;**********
 26907
 26908
 26909					;THIS TEST VERIFIES THAT THE INDEX REGISTERS ARE ACCESSABLE.
DFKAA PDP-10 KL10 BASIC INSTRUCTION DIAGNOSTIC (1) VER 0,2	MACRO %53B(1254)-4 11:50 11-Nov-24 Page 5-1
DFKAA4	MAC	13-Jan-89 10:22		TEST OF AC HARDWARE AND INDEX REGISTERS

 26910					;FIRST, AN INDEX REGISTER IS PRELOADED WITH ITS ADDRESS; THEN,
 26911					;IT IS REFERENCED AS AN INDEX REGISTER.  IF IT CONTAINS ITS ADDRESS, THIS TEST PASSES.
 26912					;THIS TEST IS REPEATED 15 TIMES IN ORDER TO TEST EACH INDEX REGISTER.
 26913
 26914			000703		SN=SN+1
 26915			000003			ZZ=ZZ+1
 26916	045036	201 03 0 00 000003 		MOVEI	ZZ,ZZ		;PRELOAD INDEX REGISTER WITH ITS ADDRESS
 26917	045037	302 03 0 03 000000 		CAIE	ZZ,(ZZ)		;PASS IF INDEX REGISTER CONTAINS ITS ADDRESS
 26918						STOP^
 26919	045040	254 04 0 00 045041 		HALT	.+1		;TEST FAILED IF PROGRAM HALTS HERE
 26920	045041	324 00 0 00 045042 		JUMPA	.+1		;IF TEST FAILS, CHANGE THIS INSTRUCTION (JUMPA .+1) TO
 26921									;JUMPA X (X IS THE ADDRESS OF THE FIRST INSTRUCTION
 26922									;IN THE SUBTEST) TO LOOP ON ERROR^
 26923
 26924					;**********
 26925
 26926
 26927					;THIS TEST VERIFIES THAT THE INDEX REGISTERS ARE ACCESSABLE.
 26928					;FIRST, AN INDEX REGISTER IS PRELOADED WITH ITS ADDRESS; THEN,
 26929					;IT IS REFERENCED AS AN INDEX REGISTER.  IF IT CONTAINS ITS ADDRESS, THIS TEST PASSES.
 26930					;THIS TEST IS REPEATED 15 TIMES IN ORDER TO TEST EACH INDEX REGISTER.
 26931
 26932			000704		SN=SN+1
 26933			000004			ZZ=ZZ+1
 26934	045042	201 04 0 00 000004 		MOVEI	ZZ,ZZ		;PRELOAD INDEX REGISTER WITH ITS ADDRESS
 26935	045043	302 04 0 04 000000 		CAIE	ZZ,(ZZ)		;PASS IF INDEX REGISTER CONTAINS ITS ADDRESS
 26936						STOP^
 26937	045044	254 04 0 00 045045 		HALT	.+1		;TEST FAILED IF PROGRAM HALTS HERE
 26938	045045	324 00 0 00 045046 		JUMPA	.+1		;IF TEST FAILS, CHANGE THIS INSTRUCTION (JUMPA .+1) TO
 26939									;JUMPA X (X IS THE ADDRESS OF THE FIRST INSTRUCTION
 26940									;IN THE SUBTEST) TO LOOP ON ERROR^
 26941
 26942					;**********
 26943
 26944
 26945					;THIS TEST VERIFIES THAT THE INDEX REGISTERS ARE ACCESSABLE.
 26946					;FIRST, AN INDEX REGISTER IS PRELOADED WITH ITS ADDRESS; THEN,
 26947					;IT IS REFERENCED AS AN INDEX REGISTER.  IF IT CONTAINS ITS ADDRESS, THIS TEST PASSES.
 26948					;THIS TEST IS REPEATED 15 TIMES IN ORDER TO TEST EACH INDEX REGISTER.
 26949
 26950			000705		SN=SN+1
 26951			000005			ZZ=ZZ+1
 26952	045046	201 05 0 00 000005 		MOVEI	ZZ,ZZ		;PRELOAD INDEX REGISTER WITH ITS ADDRESS
 26953	045047	302 05 0 05 000000 		CAIE	ZZ,(ZZ)		;PASS IF INDEX REGISTER CONTAINS ITS ADDRESS
 26954						STOP^
 26955	045050	254 04 0 00 045051 		HALT	.+1		;TEST FAILED IF PROGRAM HALTS HERE
 26956	045051	324 00 0 00 045052 		JUMPA	.+1		;IF TEST FAILS, CHANGE THIS INSTRUCTION (JUMPA .+1) TO
 26957									;JUMPA X (X IS THE ADDRESS OF THE FIRST INSTRUCTION
 26958									;IN THE SUBTEST) TO LOOP ON ERROR^
 26959
 26960					;**********
 26961
 26962
 26963					;THIS TEST VERIFIES THAT THE INDEX REGISTERS ARE ACCESSABLE.
 26964					;FIRST, AN INDEX REGISTER IS PRELOADED WITH ITS ADDRESS; THEN,
DFKAA PDP-10 KL10 BASIC INSTRUCTION DIAGNOSTIC (1) VER 0,2	MACRO %53B(1254)-4 11:50 11-Nov-24 Page 5-2
DFKAA4	MAC	13-Jan-89 10:22		TEST OF AC HARDWARE AND INDEX REGISTERS

 26965					;IT IS REFERENCED AS AN INDEX REGISTER.  IF IT CONTAINS ITS ADDRESS, THIS TEST PASSES.
 26966					;THIS TEST IS REPEATED 15 TIMES IN ORDER TO TEST EACH INDEX REGISTER.
 26967
 26968			000706		SN=SN+1
 26969			000006			ZZ=ZZ+1
 26970	045052	201 06 0 00 000006 		MOVEI	ZZ,ZZ		;PRELOAD INDEX REGISTER WITH ITS ADDRESS
 26971	045053	302 06 0 06 000000 		CAIE	ZZ,(ZZ)		;PASS IF INDEX REGISTER CONTAINS ITS ADDRESS
 26972						STOP^
 26973	045054	254 04 0 00 045055 		HALT	.+1		;TEST FAILED IF PROGRAM HALTS HERE
 26974	045055	324 00 0 00 045056 		JUMPA	.+1		;IF TEST FAILS, CHANGE THIS INSTRUCTION (JUMPA .+1) TO
 26975									;JUMPA X (X IS THE ADDRESS OF THE FIRST INSTRUCTION
 26976									;IN THE SUBTEST) TO LOOP ON ERROR^
 26977
 26978					;**********
 26979
 26980
 26981					;THIS TEST VERIFIES THAT THE INDEX REGISTERS ARE ACCESSABLE.
 26982					;FIRST, AN INDEX REGISTER IS PRELOADED WITH ITS ADDRESS; THEN,
 26983					;IT IS REFERENCED AS AN INDEX REGISTER.  IF IT CONTAINS ITS ADDRESS, THIS TEST PASSES.
 26984					;THIS TEST IS REPEATED 15 TIMES IN ORDER TO TEST EACH INDEX REGISTER.
 26985
 26986			000707		SN=SN+1
 26987			000007			ZZ=ZZ+1
 26988	045056	201 07 0 00 000007 		MOVEI	ZZ,ZZ		;PRELOAD INDEX REGISTER WITH ITS ADDRESS
 26989	045057	302 07 0 07 000000 		CAIE	ZZ,(ZZ)		;PASS IF INDEX REGISTER CONTAINS ITS ADDRESS
 26990						STOP^
 26991	045060	254 04 0 00 045061 		HALT	.+1		;TEST FAILED IF PROGRAM HALTS HERE
 26992	045061	324 00 0 00 045062 		JUMPA	.+1		;IF TEST FAILS, CHANGE THIS INSTRUCTION (JUMPA .+1) TO
 26993									;JUMPA X (X IS THE ADDRESS OF THE FIRST INSTRUCTION
 26994									;IN THE SUBTEST) TO LOOP ON ERROR^
 26995
 26996					;**********
 26997
 26998
 26999					;THIS TEST VERIFIES THAT THE INDEX REGISTERS ARE ACCESSABLE.
 27000					;FIRST, AN INDEX REGISTER IS PRELOADED WITH ITS ADDRESS; THEN,
 27001					;IT IS REFERENCED AS AN INDEX REGISTER.  IF IT CONTAINS ITS ADDRESS, THIS TEST PASSES.
 27002					;THIS TEST IS REPEATED 15 TIMES IN ORDER TO TEST EACH INDEX REGISTER.
 27003
 27004			000710		SN=SN+1
 27005			000010			ZZ=ZZ+1
 27006	045062	201 10 0 00 000010 		MOVEI	ZZ,ZZ		;PRELOAD INDEX REGISTER WITH ITS ADDRESS
 27007	045063	302 10 0 10 000000 		CAIE	ZZ,(ZZ)		;PASS IF INDEX REGISTER CONTAINS ITS ADDRESS
 27008						STOP^
 27009	045064	254 04 0 00 045065 		HALT	.+1		;TEST FAILED IF PROGRAM HALTS HERE
 27010	045065	324 00 0 00 045066 		JUMPA	.+1		;IF TEST FAILS, CHANGE THIS INSTRUCTION (JUMPA .+1) TO
 27011									;JUMPA X (X IS THE ADDRESS OF THE FIRST INSTRUCTION
 27012									;IN THE SUBTEST) TO LOOP ON ERROR^
 27013
 27014					;**********
 27015
 27016
 27017					;THIS TEST VERIFIES THAT THE INDEX REGISTERS ARE ACCESSABLE.
 27018					;FIRST, AN INDEX REGISTER IS PRELOADED WITH ITS ADDRESS; THEN,
 27019					;IT IS REFERENCED AS AN INDEX REGISTER.  IF IT CONTAINS ITS ADDRESS, THIS TEST PASSES.
DFKAA PDP-10 KL10 BASIC INSTRUCTION DIAGNOSTIC (1) VER 0,2	MACRO %53B(1254)-4 11:50 11-Nov-24 Page 5-3
DFKAA4	MAC	13-Jan-89 10:22		TEST OF AC HARDWARE AND INDEX REGISTERS

 27020					;THIS TEST IS REPEATED 15 TIMES IN ORDER TO TEST EACH INDEX REGISTER.
 27021
 27022			000711		SN=SN+1
 27023			000011			ZZ=ZZ+1
 27024	045066	201 11 0 00 000011 		MOVEI	ZZ,ZZ		;PRELOAD INDEX REGISTER WITH ITS ADDRESS
 27025	045067	302 11 0 11 000000 		CAIE	ZZ,(ZZ)		;PASS IF INDEX REGISTER CONTAINS ITS ADDRESS
 27026						STOP^
 27027	045070	254 04 0 00 045071 		HALT	.+1		;TEST FAILED IF PROGRAM HALTS HERE
 27028	045071	324 00 0 00 045072 		JUMPA	.+1		;IF TEST FAILS, CHANGE THIS INSTRUCTION (JUMPA .+1) TO
 27029									;JUMPA X (X IS THE ADDRESS OF THE FIRST INSTRUCTION
 27030									;IN THE SUBTEST) TO LOOP ON ERROR^
 27031
 27032					;**********
 27033
 27034
 27035					;THIS TEST VERIFIES THAT THE INDEX REGISTERS ARE ACCESSABLE.
 27036					;FIRST, AN INDEX REGISTER IS PRELOADED WITH ITS ADDRESS; THEN,
 27037					;IT IS REFERENCED AS AN INDEX REGISTER.  IF IT CONTAINS ITS ADDRESS, THIS TEST PASSES.
 27038					;THIS TEST IS REPEATED 15 TIMES IN ORDER TO TEST EACH INDEX REGISTER.
 27039
 27040			000712		SN=SN+1
 27041			000012			ZZ=ZZ+1
 27042	045072	201 12 0 00 000012 		MOVEI	ZZ,ZZ		;PRELOAD INDEX REGISTER WITH ITS ADDRESS
 27043	045073	302 12 0 12 000000 		CAIE	ZZ,(ZZ)		;PASS IF INDEX REGISTER CONTAINS ITS ADDRESS
 27044						STOP^
 27045	045074	254 04 0 00 045075 		HALT	.+1		;TEST FAILED IF PROGRAM HALTS HERE
 27046	045075	324 00 0 00 045076 		JUMPA	.+1		;IF TEST FAILS, CHANGE THIS INSTRUCTION (JUMPA .+1) TO
 27047									;JUMPA X (X IS THE ADDRESS OF THE FIRST INSTRUCTION
 27048									;IN THE SUBTEST) TO LOOP ON ERROR^
 27049
 27050					;**********
 27051
 27052
 27053					;THIS TEST VERIFIES THAT THE INDEX REGISTERS ARE ACCESSABLE.
 27054					;FIRST, AN INDEX REGISTER IS PRELOADED WITH ITS ADDRESS; THEN,
 27055					;IT IS REFERENCED AS AN INDEX REGISTER.  IF IT CONTAINS ITS ADDRESS, THIS TEST PASSES.
 27056					;THIS TEST IS REPEATED 15 TIMES IN ORDER TO TEST EACH INDEX REGISTER.
 27057
 27058			000713		SN=SN+1
 27059			000013			ZZ=ZZ+1
 27060	045076	201 13 0 00 000013 		MOVEI	ZZ,ZZ		;PRELOAD INDEX REGISTER WITH ITS ADDRESS
 27061	045077	302 13 0 13 000000 		CAIE	ZZ,(ZZ)		;PASS IF INDEX REGISTER CONTAINS ITS ADDRESS
 27062						STOP^
 27063	045100	254 04 0 00 045101 		HALT	.+1		;TEST FAILED IF PROGRAM HALTS HERE
 27064	045101	324 00 0 00 045102 		JUMPA	.+1		;IF TEST FAILS, CHANGE THIS INSTRUCTION (JUMPA .+1) TO
 27065									;JUMPA X (X IS THE ADDRESS OF THE FIRST INSTRUCTION
 27066									;IN THE SUBTEST) TO LOOP ON ERROR^
 27067
 27068					;**********
 27069
 27070
 27071					;THIS TEST VERIFIES THAT THE INDEX REGISTERS ARE ACCESSABLE.
 27072					;FIRST, AN INDEX REGISTER IS PRELOADED WITH ITS ADDRESS; THEN,
 27073					;IT IS REFERENCED AS AN INDEX REGISTER.  IF IT CONTAINS ITS ADDRESS, THIS TEST PASSES.
 27074					;THIS TEST IS REPEATED 15 TIMES IN ORDER TO TEST EACH INDEX REGISTER.
DFKAA PDP-10 KL10 BASIC INSTRUCTION DIAGNOSTIC (1) VER 0,2	MACRO %53B(1254)-4 11:50 11-Nov-24 Page 5-4
DFKAA4	MAC	13-Jan-89 10:22		TEST OF AC HARDWARE AND INDEX REGISTERS

 27075
 27076			000714		SN=SN+1
 27077			000014			ZZ=ZZ+1
 27078	045102	201 14 0 00 000014 		MOVEI	ZZ,ZZ		;PRELOAD INDEX REGISTER WITH ITS ADDRESS
 27079	045103	302 14 0 14 000000 		CAIE	ZZ,(ZZ)		;PASS IF INDEX REGISTER CONTAINS ITS ADDRESS
 27080						STOP^
 27081	045104	254 04 0 00 045105 		HALT	.+1		;TEST FAILED IF PROGRAM HALTS HERE
 27082	045105	324 00 0 00 045106 		JUMPA	.+1		;IF TEST FAILS, CHANGE THIS INSTRUCTION (JUMPA .+1) TO
 27083									;JUMPA X (X IS THE ADDRESS OF THE FIRST INSTRUCTION
 27084									;IN THE SUBTEST) TO LOOP ON ERROR^
 27085
 27086					;**********
 27087
 27088
 27089					;THIS TEST VERIFIES THAT THE INDEX REGISTERS ARE ACCESSABLE.
 27090					;FIRST, AN INDEX REGISTER IS PRELOADED WITH ITS ADDRESS; THEN,
 27091					;IT IS REFERENCED AS AN INDEX REGISTER.  IF IT CONTAINS ITS ADDRESS, THIS TEST PASSES.
 27092					;THIS TEST IS REPEATED 15 TIMES IN ORDER TO TEST EACH INDEX REGISTER.
 27093
 27094			000715		SN=SN+1
 27095			000015			ZZ=ZZ+1
 27096	045106	201 15 0 00 000015 		MOVEI	ZZ,ZZ		;PRELOAD INDEX REGISTER WITH ITS ADDRESS
 27097	045107	302 15 0 15 000000 		CAIE	ZZ,(ZZ)		;PASS IF INDEX REGISTER CONTAINS ITS ADDRESS
 27098						STOP^
 27099	045110	254 04 0 00 045111 		HALT	.+1		;TEST FAILED IF PROGRAM HALTS HERE
 27100	045111	324 00 0 00 045112 		JUMPA	.+1		;IF TEST FAILS, CHANGE THIS INSTRUCTION (JUMPA .+1) TO
 27101									;JUMPA X (X IS THE ADDRESS OF THE FIRST INSTRUCTION
 27102									;IN THE SUBTEST) TO LOOP ON ERROR^
 27103
 27104					;**********
 27105
 27106
 27107					;THIS TEST VERIFIES THAT THE INDEX REGISTERS ARE ACCESSABLE.
 27108					;FIRST, AN INDEX REGISTER IS PRELOADED WITH ITS ADDRESS; THEN,
 27109					;IT IS REFERENCED AS AN INDEX REGISTER.  IF IT CONTAINS ITS ADDRESS, THIS TEST PASSES.
 27110					;THIS TEST IS REPEATED 15 TIMES IN ORDER TO TEST EACH INDEX REGISTER.
 27111
 27112			000716		SN=SN+1
 27113			000016			ZZ=ZZ+1
 27114	045112	201 16 0 00 000016 		MOVEI	ZZ,ZZ		;PRELOAD INDEX REGISTER WITH ITS ADDRESS
 27115	045113	302 16 0 16 000000 		CAIE	ZZ,(ZZ)		;PASS IF INDEX REGISTER CONTAINS ITS ADDRESS
 27116						STOP^
 27117	045114	254 04 0 00 045115 		HALT	.+1		;TEST FAILED IF PROGRAM HALTS HERE
 27118	045115	324 00 0 00 045116 		JUMPA	.+1		;IF TEST FAILS, CHANGE THIS INSTRUCTION (JUMPA .+1) TO
 27119									;JUMPA X (X IS THE ADDRESS OF THE FIRST INSTRUCTION
 27120									;IN THE SUBTEST) TO LOOP ON ERROR^
 27121
 27122					;**********
 27123
 27124
 27125					;THIS TEST VERIFIES THAT THE INDEX REGISTERS ARE ACCESSABLE.
 27126					;FIRST, AN INDEX REGISTER IS PRELOADED WITH ITS ADDRESS; THEN,
 27127					;IT IS REFERENCED AS AN INDEX REGISTER.  IF IT CONTAINS ITS ADDRESS, THIS TEST PASSES.
 27128					;THIS TEST IS REPEATED 15 TIMES IN ORDER TO TEST EACH INDEX REGISTER.
 27129
DFKAA PDP-10 KL10 BASIC INSTRUCTION DIAGNOSTIC (1) VER 0,2	MACRO %53B(1254)-4 11:50 11-Nov-24 Page 5-5
DFKAA4	MAC	13-Jan-89 10:22		TEST OF AC HARDWARE AND INDEX REGISTERS

 27130			000717		SN=SN+1
 27131			000017			ZZ=ZZ+1
 27132	045116	201 17 0 00 000017 		MOVEI	ZZ,ZZ		;PRELOAD INDEX REGISTER WITH ITS ADDRESS
 27133	045117	302 17 0 17 000000 		CAIE	ZZ,(ZZ)		;PASS IF INDEX REGISTER CONTAINS ITS ADDRESS
 27134						STOP^
 27135	045120	254 04 0 00 045121 		HALT	.+1		;TEST FAILED IF PROGRAM HALTS HERE
 27136	045121	324 00 0 00 045122 		JUMPA	.+1		;IF TEST FAILS, CHANGE THIS INSTRUCTION (JUMPA .+1) TO
 27137									;JUMPA X (X IS THE ADDRESS OF THE FIRST INSTRUCTION
 27138									;IN THE SUBTEST) TO LOOP ON ERROR^
 27139
 27140					;**********
 27141
DFKAA PDP-10 KL10 BASIC INSTRUCTION DIAGNOSTIC (1) VER 0,2	MACRO %53B(1254)-4 11:50 11-Nov-24 Page 6
DFKAA4	MAC	13-Jan-89 10:22		TEST OF AC HARDWARE AND INDEX REGISTERS

 27142			001000		SN=1000
 27143			000000			ZZ=0
 27144
 27145					C1000:	REPEAT	^D15,<
 27146					;THIS TEST VERIFIES THAT ALL INDEX REGISTERS INDEX CORRECTLY.
 27147					;FIRST, BOTH HALVES OF THE INDEX REGISTER ARE PRELOADED WITH ITS ADDRESS.
 27148					;THEN, THE INDEX REGISTER IS REFERENCED.  IT IS THEN CHECKED FOR ITS ADDRESS IN BOTH HALVES.
 27149
 27150					;IF IT CONTAINS ITS ADDRESS IN BOTH HALVES THIS TEST PASSES.
 27151					;THIS TEST IS REPEATED 15 TIMES IN ORDER TO TEST EACH INDEX REGISTER
 27152
 27153					SN=SN+1
 27154						ZZ=ZZ+1
 27155						MOVEI	ZZ,ZZ		;PRELOAD BOTH HALVES OF INDEX REG WITH ITS ADDRESS
 27156						HRLI	ZZ,ZZ		;PASS IF INDEX REGISTER CONTAINS ITS ADDRESS
 27157						CAME	ZZ,(ZZ)		;IN BOTH HALVES
 27158						STOP
 27159
 27160					;**********
 27161					>
 27162
 27163					;THIS TEST VERIFIES THAT ALL INDEX REGISTERS INDEX CORRECTLY.
 27164					;FIRST, BOTH HALVES OF THE INDEX REGISTER ARE PRELOADED WITH ITS ADDRESS.
 27165					;THEN, THE INDEX REGISTER IS REFERENCED.  IT IS THEN CHECKED FOR ITS ADDRESS IN BOTH HALVES.
 27166
 27167					;IF IT CONTAINS ITS ADDRESS IN BOTH HALVES THIS TEST PASSES.
 27168					;THIS TEST IS REPEATED 15 TIMES IN ORDER TO TEST EACH INDEX REGISTER
 27169
 27170			001001		SN=SN+1
 27171			000001			ZZ=ZZ+1
 27172	045122	201 01 0 00 000001 		MOVEI	ZZ,ZZ		;PRELOAD BOTH HALVES OF INDEX REG WITH ITS ADDRESS
 27173	045123	505 01 0 00 000001 		HRLI	ZZ,ZZ		;PASS IF INDEX REGISTER CONTAINS ITS ADDRESS
 27174	045124	312 01 0 01 000000 		CAME	ZZ,(ZZ)		;IN BOTH HALVES
 27175						STOP^
 27176	045125	254 04 0 00 045126 		HALT	.+1		;TEST FAILED IF PROGRAM HALTS HERE
 27177	045126	324 00 0 00 045127 		JUMPA	.+1		;IF TEST FAILS, CHANGE THIS INSTRUCTION (JUMPA .+1) TO
 27178									;JUMPA X (X IS THE ADDRESS OF THE FIRST INSTRUCTION
 27179									;IN THE SUBTEST) TO LOOP ON ERROR^
 27180
 27181					;**********
 27182
 27183
 27184					;THIS TEST VERIFIES THAT ALL INDEX REGISTERS INDEX CORRECTLY.
 27185					;FIRST, BOTH HALVES OF THE INDEX REGISTER ARE PRELOADED WITH ITS ADDRESS.
 27186					;THEN, THE INDEX REGISTER IS REFERENCED.  IT IS THEN CHECKED FOR ITS ADDRESS IN BOTH HALVES.
 27187
 27188					;IF IT CONTAINS ITS ADDRESS IN BOTH HALVES THIS TEST PASSES.
 27189					;THIS TEST IS REPEATED 15 TIMES IN ORDER TO TEST EACH INDEX REGISTER
 27190
 27191			001002		SN=SN+1
 27192			000002			ZZ=ZZ+1
 27193	045127	201 02 0 00 000002 		MOVEI	ZZ,ZZ		;PRELOAD BOTH HALVES OF INDEX REG WITH ITS ADDRESS
 27194	045130	505 02 0 00 000002 		HRLI	ZZ,ZZ		;PASS IF INDEX REGISTER CONTAINS ITS ADDRESS
 27195	045131	312 02 0 02 000000 		CAME	ZZ,(ZZ)		;IN BOTH HALVES
 27196						STOP^
DFKAA PDP-10 KL10 BASIC INSTRUCTION DIAGNOSTIC (1) VER 0,2	MACRO %53B(1254)-4 11:50 11-Nov-24 Page 6-1
DFKAA4	MAC	13-Jan-89 10:22		TEST OF AC HARDWARE AND INDEX REGISTERS

 27197	045132	254 04 0 00 045133 		HALT	.+1		;TEST FAILED IF PROGRAM HALTS HERE
 27198	045133	324 00 0 00 045134 		JUMPA	.+1		;IF TEST FAILS, CHANGE THIS INSTRUCTION (JUMPA .+1) TO
 27199									;JUMPA X (X IS THE ADDRESS OF THE FIRST INSTRUCTION
 27200									;IN THE SUBTEST) TO LOOP ON ERROR^
 27201
 27202					;**********
 27203
 27204
 27205					;THIS TEST VERIFIES THAT ALL INDEX REGISTERS INDEX CORRECTLY.
 27206					;FIRST, BOTH HALVES OF THE INDEX REGISTER ARE PRELOADED WITH ITS ADDRESS.
 27207					;THEN, THE INDEX REGISTER IS REFERENCED.  IT IS THEN CHECKED FOR ITS ADDRESS IN BOTH HALVES.
 27208
 27209					;IF IT CONTAINS ITS ADDRESS IN BOTH HALVES THIS TEST PASSES.
 27210					;THIS TEST IS REPEATED 15 TIMES IN ORDER TO TEST EACH INDEX REGISTER
 27211
 27212			001003		SN=SN+1
 27213			000003			ZZ=ZZ+1
 27214	045134	201 03 0 00 000003 		MOVEI	ZZ,ZZ		;PRELOAD BOTH HALVES OF INDEX REG WITH ITS ADDRESS
 27215	045135	505 03 0 00 000003 		HRLI	ZZ,ZZ		;PASS IF INDEX REGISTER CONTAINS ITS ADDRESS
 27216	045136	312 03 0 03 000000 		CAME	ZZ,(ZZ)		;IN BOTH HALVES
 27217						STOP^
 27218	045137	254 04 0 00 045140 		HALT	.+1		;TEST FAILED IF PROGRAM HALTS HERE
 27219	045140	324 00 0 00 045141 		JUMPA	.+1		;IF TEST FAILS, CHANGE THIS INSTRUCTION (JUMPA .+1) TO
 27220									;JUMPA X (X IS THE ADDRESS OF THE FIRST INSTRUCTION
 27221									;IN THE SUBTEST) TO LOOP ON ERROR^
 27222
 27223					;**********
 27224
 27225
 27226					;THIS TEST VERIFIES THAT ALL INDEX REGISTERS INDEX CORRECTLY.
 27227					;FIRST, BOTH HALVES OF THE INDEX REGISTER ARE PRELOADED WITH ITS ADDRESS.
 27228					;THEN, THE INDEX REGISTER IS REFERENCED.  IT IS THEN CHECKED FOR ITS ADDRESS IN BOTH HALVES.
 27229
 27230					;IF IT CONTAINS ITS ADDRESS IN BOTH HALVES THIS TEST PASSES.
 27231					;THIS TEST IS REPEATED 15 TIMES IN ORDER TO TEST EACH INDEX REGISTER
 27232
 27233			001004		SN=SN+1
 27234			000004			ZZ=ZZ+1
 27235	045141	201 04 0 00 000004 		MOVEI	ZZ,ZZ		;PRELOAD BOTH HALVES OF INDEX REG WITH ITS ADDRESS
 27236	045142	505 04 0 00 000004 		HRLI	ZZ,ZZ		;PASS IF INDEX REGISTER CONTAINS ITS ADDRESS
 27237	045143	312 04 0 04 000000 		CAME	ZZ,(ZZ)		;IN BOTH HALVES
 27238						STOP^
 27239	045144	254 04 0 00 045145 		HALT	.+1		;TEST FAILED IF PROGRAM HALTS HERE
 27240	045145	324 00 0 00 045146 		JUMPA	.+1		;IF TEST FAILS, CHANGE THIS INSTRUCTION (JUMPA .+1) TO
 27241									;JUMPA X (X IS THE ADDRESS OF THE FIRST INSTRUCTION
 27242									;IN THE SUBTEST) TO LOOP ON ERROR^
 27243
 27244					;**********
 27245
 27246
 27247					;THIS TEST VERIFIES THAT ALL INDEX REGISTERS INDEX CORRECTLY.
 27248					;FIRST, BOTH HALVES OF THE INDEX REGISTER ARE PRELOADED WITH ITS ADDRESS.
 27249					;THEN, THE INDEX REGISTER IS REFERENCED.  IT IS THEN CHECKED FOR ITS ADDRESS IN BOTH HALVES.
 27250
 27251					;IF IT CONTAINS ITS ADDRESS IN BOTH HALVES THIS TEST PASSES.
DFKAA PDP-10 KL10 BASIC INSTRUCTION DIAGNOSTIC (1) VER 0,2	MACRO %53B(1254)-4 11:50 11-Nov-24 Page 6-2
DFKAA4	MAC	13-Jan-89 10:22		TEST OF AC HARDWARE AND INDEX REGISTERS

 27252					;THIS TEST IS REPEATED 15 TIMES IN ORDER TO TEST EACH INDEX REGISTER
 27253
 27254			001005		SN=SN+1
 27255			000005			ZZ=ZZ+1
 27256	045146	201 05 0 00 000005 		MOVEI	ZZ,ZZ		;PRELOAD BOTH HALVES OF INDEX REG WITH ITS ADDRESS
 27257	045147	505 05 0 00 000005 		HRLI	ZZ,ZZ		;PASS IF INDEX REGISTER CONTAINS ITS ADDRESS
 27258	045150	312 05 0 05 000000 		CAME	ZZ,(ZZ)		;IN BOTH HALVES
 27259						STOP^
 27260	045151	254 04 0 00 045152 		HALT	.+1		;TEST FAILED IF PROGRAM HALTS HERE
 27261	045152	324 00 0 00 045153 		JUMPA	.+1		;IF TEST FAILS, CHANGE THIS INSTRUCTION (JUMPA .+1) TO
 27262									;JUMPA X (X IS THE ADDRESS OF THE FIRST INSTRUCTION
 27263									;IN THE SUBTEST) TO LOOP ON ERROR^
 27264
 27265					;**********
 27266
 27267
 27268					;THIS TEST VERIFIES THAT ALL INDEX REGISTERS INDEX CORRECTLY.
 27269					;FIRST, BOTH HALVES OF THE INDEX REGISTER ARE PRELOADED WITH ITS ADDRESS.
 27270					;THEN, THE INDEX REGISTER IS REFERENCED.  IT IS THEN CHECKED FOR ITS ADDRESS IN BOTH HALVES.
 27271
 27272					;IF IT CONTAINS ITS ADDRESS IN BOTH HALVES THIS TEST PASSES.
 27273					;THIS TEST IS REPEATED 15 TIMES IN ORDER TO TEST EACH INDEX REGISTER
 27274
 27275			001006		SN=SN+1
 27276			000006			ZZ=ZZ+1
 27277	045153	201 06 0 00 000006 		MOVEI	ZZ,ZZ		;PRELOAD BOTH HALVES OF INDEX REG WITH ITS ADDRESS
 27278	045154	505 06 0 00 000006 		HRLI	ZZ,ZZ		;PASS IF INDEX REGISTER CONTAINS ITS ADDRESS
 27279	045155	312 06 0 06 000000 		CAME	ZZ,(ZZ)		;IN BOTH HALVES
 27280						STOP^
 27281	045156	254 04 0 00 045157 		HALT	.+1		;TEST FAILED IF PROGRAM HALTS HERE
 27282	045157	324 00 0 00 045160 		JUMPA	.+1		;IF TEST FAILS, CHANGE THIS INSTRUCTION (JUMPA .+1) TO
 27283									;JUMPA X (X IS THE ADDRESS OF THE FIRST INSTRUCTION
 27284									;IN THE SUBTEST) TO LOOP ON ERROR^
 27285
 27286					;**********
 27287
 27288
 27289					;THIS TEST VERIFIES THAT ALL INDEX REGISTERS INDEX CORRECTLY.
 27290					;FIRST, BOTH HALVES OF THE INDEX REGISTER ARE PRELOADED WITH ITS ADDRESS.
 27291					;THEN, THE INDEX REGISTER IS REFERENCED.  IT IS THEN CHECKED FOR ITS ADDRESS IN BOTH HALVES.
 27292
 27293					;IF IT CONTAINS ITS ADDRESS IN BOTH HALVES THIS TEST PASSES.
 27294					;THIS TEST IS REPEATED 15 TIMES IN ORDER TO TEST EACH INDEX REGISTER
 27295
 27296			001007		SN=SN+1
 27297			000007			ZZ=ZZ+1
 27298	045160	201 07 0 00 000007 		MOVEI	ZZ,ZZ		;PRELOAD BOTH HALVES OF INDEX REG WITH ITS ADDRESS
 27299	045161	505 07 0 00 000007 		HRLI	ZZ,ZZ		;PASS IF INDEX REGISTER CONTAINS ITS ADDRESS
 27300	045162	312 07 0 07 000000 		CAME	ZZ,(ZZ)		;IN BOTH HALVES
 27301						STOP^
 27302	045163	254 04 0 00 045164 		HALT	.+1		;TEST FAILED IF PROGRAM HALTS HERE
 27303	045164	324 00 0 00 045165 		JUMPA	.+1		;IF TEST FAILS, CHANGE THIS INSTRUCTION (JUMPA .+1) TO
 27304									;JUMPA X (X IS THE ADDRESS OF THE FIRST INSTRUCTION
 27305									;IN THE SUBTEST) TO LOOP ON ERROR^
 27306
DFKAA PDP-10 KL10 BASIC INSTRUCTION DIAGNOSTIC (1) VER 0,2	MACRO %53B(1254)-4 11:50 11-Nov-24 Page 6-3
DFKAA4	MAC	13-Jan-89 10:22		TEST OF AC HARDWARE AND INDEX REGISTERS

 27307					;**********
 27308
 27309
 27310					;THIS TEST VERIFIES THAT ALL INDEX REGISTERS INDEX CORRECTLY.
 27311					;FIRST, BOTH HALVES OF THE INDEX REGISTER ARE PRELOADED WITH ITS ADDRESS.
 27312					;THEN, THE INDEX REGISTER IS REFERENCED.  IT IS THEN CHECKED FOR ITS ADDRESS IN BOTH HALVES.
 27313
 27314					;IF IT CONTAINS ITS ADDRESS IN BOTH HALVES THIS TEST PASSES.
 27315					;THIS TEST IS REPEATED 15 TIMES IN ORDER TO TEST EACH INDEX REGISTER
 27316
 27317			001010		SN=SN+1
 27318			000010			ZZ=ZZ+1
 27319	045165	201 10 0 00 000010 		MOVEI	ZZ,ZZ		;PRELOAD BOTH HALVES OF INDEX REG WITH ITS ADDRESS
 27320	045166	505 10 0 00 000010 		HRLI	ZZ,ZZ		;PASS IF INDEX REGISTER CONTAINS ITS ADDRESS
 27321	045167	312 10 0 10 000000 		CAME	ZZ,(ZZ)		;IN BOTH HALVES
 27322						STOP^
 27323	045170	254 04 0 00 045171 		HALT	.+1		;TEST FAILED IF PROGRAM HALTS HERE
 27324	045171	324 00 0 00 045172 		JUMPA	.+1		;IF TEST FAILS, CHANGE THIS INSTRUCTION (JUMPA .+1) TO
 27325									;JUMPA X (X IS THE ADDRESS OF THE FIRST INSTRUCTION
 27326									;IN THE SUBTEST) TO LOOP ON ERROR^
 27327
 27328					;**********
 27329
 27330
 27331					;THIS TEST VERIFIES THAT ALL INDEX REGISTERS INDEX CORRECTLY.
 27332					;FIRST, BOTH HALVES OF THE INDEX REGISTER ARE PRELOADED WITH ITS ADDRESS.
 27333					;THEN, THE INDEX REGISTER IS REFERENCED.  IT IS THEN CHECKED FOR ITS ADDRESS IN BOTH HALVES.
 27334
 27335					;IF IT CONTAINS ITS ADDRESS IN BOTH HALVES THIS TEST PASSES.
 27336					;THIS TEST IS REPEATED 15 TIMES IN ORDER TO TEST EACH INDEX REGISTER
 27337
 27338			001011		SN=SN+1
 27339			000011			ZZ=ZZ+1
 27340	045172	201 11 0 00 000011 		MOVEI	ZZ,ZZ		;PRELOAD BOTH HALVES OF INDEX REG WITH ITS ADDRESS
 27341	045173	505 11 0 00 000011 		HRLI	ZZ,ZZ		;PASS IF INDEX REGISTER CONTAINS ITS ADDRESS
 27342	045174	312 11 0 11 000000 		CAME	ZZ,(ZZ)		;IN BOTH HALVES
 27343						STOP^
 27344	045175	254 04 0 00 045176 		HALT	.+1		;TEST FAILED IF PROGRAM HALTS HERE
 27345	045176	324 00 0 00 045177 		JUMPA	.+1		;IF TEST FAILS, CHANGE THIS INSTRUCTION (JUMPA .+1) TO
 27346									;JUMPA X (X IS THE ADDRESS OF THE FIRST INSTRUCTION
 27347									;IN THE SUBTEST) TO LOOP ON ERROR^
 27348
 27349					;**********
 27350
 27351
 27352					;THIS TEST VERIFIES THAT ALL INDEX REGISTERS INDEX CORRECTLY.
 27353					;FIRST, BOTH HALVES OF THE INDEX REGISTER ARE PRELOADED WITH ITS ADDRESS.
 27354					;THEN, THE INDEX REGISTER IS REFERENCED.  IT IS THEN CHECKED FOR ITS ADDRESS IN BOTH HALVES.
 27355
 27356					;IF IT CONTAINS ITS ADDRESS IN BOTH HALVES THIS TEST PASSES.
 27357					;THIS TEST IS REPEATED 15 TIMES IN ORDER TO TEST EACH INDEX REGISTER
 27358
 27359			001012		SN=SN+1
 27360			000012			ZZ=ZZ+1
 27361	045177	201 12 0 00 000012 		MOVEI	ZZ,ZZ		;PRELOAD BOTH HALVES OF INDEX REG WITH ITS ADDRESS
DFKAA PDP-10 KL10 BASIC INSTRUCTION DIAGNOSTIC (1) VER 0,2	MACRO %53B(1254)-4 11:50 11-Nov-24 Page 6-4
DFKAA4	MAC	13-Jan-89 10:22		TEST OF AC HARDWARE AND INDEX REGISTERS

 27362	045200	505 12 0 00 000012 		HRLI	ZZ,ZZ		;PASS IF INDEX REGISTER CONTAINS ITS ADDRESS
 27363	045201	312 12 0 12 000000 		CAME	ZZ,(ZZ)		;IN BOTH HALVES
 27364						STOP^
 27365	045202	254 04 0 00 045203 		HALT	.+1		;TEST FAILED IF PROGRAM HALTS HERE
 27366	045203	324 00 0 00 045204 		JUMPA	.+1		;IF TEST FAILS, CHANGE THIS INSTRUCTION (JUMPA .+1) TO
 27367									;JUMPA X (X IS THE ADDRESS OF THE FIRST INSTRUCTION
 27368									;IN THE SUBTEST) TO LOOP ON ERROR^
 27369
 27370					;**********
 27371
 27372
 27373					;THIS TEST VERIFIES THAT ALL INDEX REGISTERS INDEX CORRECTLY.
 27374					;FIRST, BOTH HALVES OF THE INDEX REGISTER ARE PRELOADED WITH ITS ADDRESS.
 27375					;THEN, THE INDEX REGISTER IS REFERENCED.  IT IS THEN CHECKED FOR ITS ADDRESS IN BOTH HALVES.
 27376
 27377					;IF IT CONTAINS ITS ADDRESS IN BOTH HALVES THIS TEST PASSES.
 27378					;THIS TEST IS REPEATED 15 TIMES IN ORDER TO TEST EACH INDEX REGISTER
 27379
 27380			001013		SN=SN+1
 27381			000013			ZZ=ZZ+1
 27382	045204	201 13 0 00 000013 		MOVEI	ZZ,ZZ		;PRELOAD BOTH HALVES OF INDEX REG WITH ITS ADDRESS
 27383	045205	505 13 0 00 000013 		HRLI	ZZ,ZZ		;PASS IF INDEX REGISTER CONTAINS ITS ADDRESS
 27384	045206	312 13 0 13 000000 		CAME	ZZ,(ZZ)		;IN BOTH HALVES
 27385						STOP^
 27386	045207	254 04 0 00 045210 		HALT	.+1		;TEST FAILED IF PROGRAM HALTS HERE
 27387	045210	324 00 0 00 045211 		JUMPA	.+1		;IF TEST FAILS, CHANGE THIS INSTRUCTION (JUMPA .+1) TO
 27388									;JUMPA X (X IS THE ADDRESS OF THE FIRST INSTRUCTION
 27389									;IN THE SUBTEST) TO LOOP ON ERROR^
 27390
 27391					;**********
 27392
 27393
 27394					;THIS TEST VERIFIES THAT ALL INDEX REGISTERS INDEX CORRECTLY.
 27395					;FIRST, BOTH HALVES OF THE INDEX REGISTER ARE PRELOADED WITH ITS ADDRESS.
 27396					;THEN, THE INDEX REGISTER IS REFERENCED.  IT IS THEN CHECKED FOR ITS ADDRESS IN BOTH HALVES.
 27397
 27398					;IF IT CONTAINS ITS ADDRESS IN BOTH HALVES THIS TEST PASSES.
 27399					;THIS TEST IS REPEATED 15 TIMES IN ORDER TO TEST EACH INDEX REGISTER
 27400
 27401			001014		SN=SN+1
 27402			000014			ZZ=ZZ+1
 27403	045211	201 14 0 00 000014 		MOVEI	ZZ,ZZ		;PRELOAD BOTH HALVES OF INDEX REG WITH ITS ADDRESS
 27404	045212	505 14 0 00 000014 		HRLI	ZZ,ZZ		;PASS IF INDEX REGISTER CONTAINS ITS ADDRESS
 27405	045213	312 14 0 14 000000 		CAME	ZZ,(ZZ)		;IN BOTH HALVES
 27406						STOP^
 27407	045214	254 04 0 00 045215 		HALT	.+1		;TEST FAILED IF PROGRAM HALTS HERE
 27408	045215	324 00 0 00 045216 		JUMPA	.+1		;IF TEST FAILS, CHANGE THIS INSTRUCTION (JUMPA .+1) TO
 27409									;JUMPA X (X IS THE ADDRESS OF THE FIRST INSTRUCTION
 27410									;IN THE SUBTEST) TO LOOP ON ERROR^
 27411
 27412					;**********
 27413
 27414
 27415					;THIS TEST VERIFIES THAT ALL INDEX REGISTERS INDEX CORRECTLY.
 27416					;FIRST, BOTH HALVES OF THE INDEX REGISTER ARE PRELOADED WITH ITS ADDRESS.
DFKAA PDP-10 KL10 BASIC INSTRUCTION DIAGNOSTIC (1) VER 0,2	MACRO %53B(1254)-4 11:50 11-Nov-24 Page 6-5
DFKAA4	MAC	13-Jan-89 10:22		TEST OF AC HARDWARE AND INDEX REGISTERS

 27417					;THEN, THE INDEX REGISTER IS REFERENCED.  IT IS THEN CHECKED FOR ITS ADDRESS IN BOTH HALVES.
 27418
 27419					;IF IT CONTAINS ITS ADDRESS IN BOTH HALVES THIS TEST PASSES.
 27420					;THIS TEST IS REPEATED 15 TIMES IN ORDER TO TEST EACH INDEX REGISTER
 27421
 27422			001015		SN=SN+1
 27423			000015			ZZ=ZZ+1
 27424	045216	201 15 0 00 000015 		MOVEI	ZZ,ZZ		;PRELOAD BOTH HALVES OF INDEX REG WITH ITS ADDRESS
 27425	045217	505 15 0 00 000015 		HRLI	ZZ,ZZ		;PASS IF INDEX REGISTER CONTAINS ITS ADDRESS
 27426	045220	312 15 0 15 000000 		CAME	ZZ,(ZZ)		;IN BOTH HALVES
 27427						STOP^
 27428	045221	254 04 0 00 045222 		HALT	.+1		;TEST FAILED IF PROGRAM HALTS HERE
 27429	045222	324 00 0 00 045223 		JUMPA	.+1		;IF TEST FAILS, CHANGE THIS INSTRUCTION (JUMPA .+1) TO
 27430									;JUMPA X (X IS THE ADDRESS OF THE FIRST INSTRUCTION
 27431									;IN THE SUBTEST) TO LOOP ON ERROR^
 27432
 27433					;**********
 27434
 27435
 27436					;THIS TEST VERIFIES THAT ALL INDEX REGISTERS INDEX CORRECTLY.
 27437					;FIRST, BOTH HALVES OF THE INDEX REGISTER ARE PRELOADED WITH ITS ADDRESS.
 27438					;THEN, THE INDEX REGISTER IS REFERENCED.  IT IS THEN CHECKED FOR ITS ADDRESS IN BOTH HALVES.
 27439
 27440					;IF IT CONTAINS ITS ADDRESS IN BOTH HALVES THIS TEST PASSES.
 27441					;THIS TEST IS REPEATED 15 TIMES IN ORDER TO TEST EACH INDEX REGISTER
 27442
 27443			001016		SN=SN+1
 27444			000016			ZZ=ZZ+1
 27445	045223	201 16 0 00 000016 		MOVEI	ZZ,ZZ		;PRELOAD BOTH HALVES OF INDEX REG WITH ITS ADDRESS
 27446	045224	505 16 0 00 000016 		HRLI	ZZ,ZZ		;PASS IF INDEX REGISTER CONTAINS ITS ADDRESS
 27447	045225	312 16 0 16 000000 		CAME	ZZ,(ZZ)		;IN BOTH HALVES
 27448						STOP^
 27449	045226	254 04 0 00 045227 		HALT	.+1		;TEST FAILED IF PROGRAM HALTS HERE
 27450	045227	324 00 0 00 045230 		JUMPA	.+1		;IF TEST FAILS, CHANGE THIS INSTRUCTION (JUMPA .+1) TO
 27451									;JUMPA X (X IS THE ADDRESS OF THE FIRST INSTRUCTION
 27452									;IN THE SUBTEST) TO LOOP ON ERROR^
 27453
 27454					;**********
 27455
 27456
 27457					;THIS TEST VERIFIES THAT ALL INDEX REGISTERS INDEX CORRECTLY.
 27458					;FIRST, BOTH HALVES OF THE INDEX REGISTER ARE PRELOADED WITH ITS ADDRESS.
 27459					;THEN, THE INDEX REGISTER IS REFERENCED.  IT IS THEN CHECKED FOR ITS ADDRESS IN BOTH HALVES.
 27460
 27461					;IF IT CONTAINS ITS ADDRESS IN BOTH HALVES THIS TEST PASSES.
 27462					;THIS TEST IS REPEATED 15 TIMES IN ORDER TO TEST EACH INDEX REGISTER
 27463
 27464			001017		SN=SN+1
 27465			000017			ZZ=ZZ+1
 27466	045230	201 17 0 00 000017 		MOVEI	ZZ,ZZ		;PRELOAD BOTH HALVES OF INDEX REG WITH ITS ADDRESS
 27467	045231	505 17 0 00 000017 		HRLI	ZZ,ZZ		;PASS IF INDEX REGISTER CONTAINS ITS ADDRESS
 27468	045232	312 17 0 17 000000 		CAME	ZZ,(ZZ)		;IN BOTH HALVES
 27469						STOP^
 27470	045233	254 04 0 00 045234 		HALT	.+1		;TEST FAILED IF PROGRAM HALTS HERE
 27471	045234	324 00 0 00 045235 		JUMPA	.+1		;IF TEST FAILS, CHANGE THIS INSTRUCTION (JUMPA .+1) TO
DFKAA PDP-10 KL10 BASIC INSTRUCTION DIAGNOSTIC (1) VER 0,2	MACRO %53B(1254)-4 11:50 11-Nov-24 Page 6-6
DFKAA4	MAC	13-Jan-89 10:22		TEST OF AC HARDWARE AND INDEX REGISTERS

 27472									;JUMPA X (X IS THE ADDRESS OF THE FIRST INSTRUCTION
 27473									;IN THE SUBTEST) TO LOOP ON ERROR^
 27474
 27475					;**********
 27476
DFKAA PDP-10 KL10 BASIC INSTRUCTION DIAGNOSTIC (1) VER 0,2	MACRO %53B(1254)-4 11:50 11-Nov-24 Page 7
DFKAA4	MAC	13-Jan-89 10:22		TEST OF INDEX REGISTER ADDRESSING

 27477					SUBTTL	TEST OF INDEX REGISTER ADDRESSING
 27478
 27479					;**********
 27480
 27481					;THIS TEST VERIFIES THAT INDEX REGISTER ADDRESSING FUNCTIONS CORRECTLY.
 27482					;IN THIS TEST, A MOVE INSTRUCTION USING INDEXING IS EXECUTED.  THE MOVE INSTRUCTION
 27483					;SHOULD PLACE THE CONTENTS OF THE LOCATION SPECIFIED BY INDEX REGISTER 2 INTO AC3.
 27484					;SINCE INDEX REGISTER 2 WAS PRELOADED WITH A 1 AND AC1 WAS PRELOADED WITH A 0,
 27485					;THE FINAL RESULT IN AC3 SHOULD BE 0.  IF C(AC3)=0, THIS TEST PASSES.
 27486
 27487	045235	476 00 0 00 000003 	C1100:	SETOM	3		;PRELOAD AC3 WITH -1,,1
 27488	045236	402 00 0 00 000001 		SETZM	1		;PRELOAD AC1 WITH 0
 27489	045237	201 02 0 00 000001 		MOVEI	2,1		;SETUP INDEX REGISTER 2 WITH 1
 27490	045240	200 03 0 02 000000 		MOVE	3,(2)		;*FWT FROM INDEXED LOCATION
 27491	045241	332 00 0 00 000003 		SKIPE	3		;TEST INDEXING
 27492						STOP^
 27493	045242	254 04 0 00 045243 		HALT	.+1		;TEST FAILED IF PROGRAM HALTS HERE
 27494	045243	324 00 0 00 045244 		JUMPA	.+1		;IF TEST FAILS, CHANGE THIS INSTRUCTION (JUMPA .+1) TO
 27495									;JUMPA X (X IS THE ADDRESS OF THE FIRST INSTRUCTION
 27496									;IN THE SUBTEST) TO LOOP ON ERROR^
 27497
 27498					;**********
 27499
 27500			001200		SN=1200
 27501			000000			ZZ=0
 27502
 27503					C1200:	REPEAT	^D18,<
 27504					;THIS TEST VERIFIES THAT INDEX REGISTER ADDRESSING FUNCTIONS CORRECTLY.
 27505					;IN THIS TEST, A MOVE INSTRUCTION USING INDEXING IS EXECUTED.  THE MOVE INSTRUCTION
 27506					;SHOULD PLACE THE CONTENTS OF THE LOCATION SPECIFIED BY INDEX REGISTER 2 INTO AC3.
 27507					;SINCE INDEX REGISTER 2 WAS PRELOADED WITH A 1 AND AC1 WAS PRELOADED WITH A
 27508					;FLOATING 1.  THE FINAL RESULT IN AC3 SHOULD BE A FLOATING 1.
 27509					;IF C(AC3)=A FLOATING 1, THIS TEST PASSES.
 27510
 27511					SN=SN+1
 27512						ZZ=ZZ+ZZ
 27513						IFE	ZZ,<ZZ=1>
 27514						SETOM	3		;PRELOAD AC3 WITH -1,,-1
 27515						MOVEI	1,ZZ		;PRELOAD AC1 WITH FLOATING 1
 27516						MOVEI	2,1		;SETUP INDEX REGISTER
 27517						MOVE	3,(2)		;*FWT FROM INDEXED LOCATION
 27518						CAIE	3,ZZ		;TEST INDEXING
 27519						STOP
 27520
 27521					;**********
 27522					>
 27523
 27524					;THIS TEST VERIFIES THAT INDEX REGISTER ADDRESSING FUNCTIONS CORRECTLY.
 27525					;IN THIS TEST, A MOVE INSTRUCTION USING INDEXING IS EXECUTED.  THE MOVE INSTRUCTION
 27526					;SHOULD PLACE THE CONTENTS OF THE LOCATION SPECIFIED BY INDEX REGISTER 2 INTO AC3.
 27527					;SINCE INDEX REGISTER 2 WAS PRELOADED WITH A 1 AND AC1 WAS PRELOADED WITH A
 27528					;FLOATING 1.  THE FINAL RESULT IN AC3 SHOULD BE A FLOATING 1.
 27529					;IF C(AC3)=A FLOATING 1, THIS TEST PASSES.
 27530
 27531			001201		SN=SN+1
DFKAA PDP-10 KL10 BASIC INSTRUCTION DIAGNOSTIC (1) VER 0,2	MACRO %53B(1254)-4 11:50 11-Nov-24 Page 7-1
DFKAA4	MAC	13-Jan-89 10:22		TEST OF INDEX REGISTER ADDRESSING

 27532			000000			ZZ=ZZ+ZZ
 27533			000001			IFE	ZZ,<ZZ=1>
 27534	045244	476 00 0 00 000003 		SETOM	3		;PRELOAD AC3 WITH -1,,-1
 27535	045245	201 01 0 00 000001 		MOVEI	1,ZZ		;PRELOAD AC1 WITH FLOATING 1
 27536	045246	201 02 0 00 000001 		MOVEI	2,1		;SETUP INDEX REGISTER
 27537	045247	200 03 0 02 000000 		MOVE	3,(2)		;*FWT FROM INDEXED LOCATION
 27538	045250	302 03 0 00 000001 		CAIE	3,ZZ		;TEST INDEXING
 27539						STOP^
 27540	045251	254 04 0 00 045252 		HALT	.+1		;TEST FAILED IF PROGRAM HALTS HERE
 27541	045252	324 00 0 00 045253 		JUMPA	.+1		;IF TEST FAILS, CHANGE THIS INSTRUCTION (JUMPA .+1) TO
 27542									;JUMPA X (X IS THE ADDRESS OF THE FIRST INSTRUCTION
 27543									;IN THE SUBTEST) TO LOOP ON ERROR^
 27544
 27545					;**********
 27546
 27547
 27548					;THIS TEST VERIFIES THAT INDEX REGISTER ADDRESSING FUNCTIONS CORRECTLY.
 27549					;IN THIS TEST, A MOVE INSTRUCTION USING INDEXING IS EXECUTED.  THE MOVE INSTRUCTION
 27550					;SHOULD PLACE THE CONTENTS OF THE LOCATION SPECIFIED BY INDEX REGISTER 2 INTO AC3.
 27551					;SINCE INDEX REGISTER 2 WAS PRELOADED WITH A 1 AND AC1 WAS PRELOADED WITH A
 27552					;FLOATING 1.  THE FINAL RESULT IN AC3 SHOULD BE A FLOATING 1.
 27553					;IF C(AC3)=A FLOATING 1, THIS TEST PASSES.
 27554
 27555			001202		SN=SN+1
 27556			000002			ZZ=ZZ+ZZ
 27557						IFE	ZZ,<ZZ=1>
 27558	045253	476 00 0 00 000003 		SETOM	3		;PRELOAD AC3 WITH -1,,-1
 27559	045254	201 01 0 00 000002 		MOVEI	1,ZZ		;PRELOAD AC1 WITH FLOATING 1
 27560	045255	201 02 0 00 000001 		MOVEI	2,1		;SETUP INDEX REGISTER
 27561	045256	200 03 0 02 000000 		MOVE	3,(2)		;*FWT FROM INDEXED LOCATION
 27562	045257	302 03 0 00 000002 		CAIE	3,ZZ		;TEST INDEXING
 27563						STOP^
 27564	045260	254 04 0 00 045261 		HALT	.+1		;TEST FAILED IF PROGRAM HALTS HERE
 27565	045261	324 00 0 00 045262 		JUMPA	.+1		;IF TEST FAILS, CHANGE THIS INSTRUCTION (JUMPA .+1) TO
 27566									;JUMPA X (X IS THE ADDRESS OF THE FIRST INSTRUCTION
 27567									;IN THE SUBTEST) TO LOOP ON ERROR^
 27568
 27569					;**********
 27570
 27571
 27572					;THIS TEST VERIFIES THAT INDEX REGISTER ADDRESSING FUNCTIONS CORRECTLY.
 27573					;IN THIS TEST, A MOVE INSTRUCTION USING INDEXING IS EXECUTED.  THE MOVE INSTRUCTION
 27574					;SHOULD PLACE THE CONTENTS OF THE LOCATION SPECIFIED BY INDEX REGISTER 2 INTO AC3.
 27575					;SINCE INDEX REGISTER 2 WAS PRELOADED WITH A 1 AND AC1 WAS PRELOADED WITH A
 27576					;FLOATING 1.  THE FINAL RESULT IN AC3 SHOULD BE A FLOATING 1.
 27577					;IF C(AC3)=A FLOATING 1, THIS TEST PASSES.
 27578
 27579			001203		SN=SN+1
 27580			000004			ZZ=ZZ+ZZ
 27581						IFE	ZZ,<ZZ=1>
 27582	045262	476 00 0 00 000003 		SETOM	3		;PRELOAD AC3 WITH -1,,-1
 27583	045263	201 01 0 00 000004 		MOVEI	1,ZZ		;PRELOAD AC1 WITH FLOATING 1
 27584	045264	201 02 0 00 000001 		MOVEI	2,1		;SETUP INDEX REGISTER
 27585	045265	200 03 0 02 000000 		MOVE	3,(2)		;*FWT FROM INDEXED LOCATION
 27586	045266	302 03 0 00 000004 		CAIE	3,ZZ		;TEST INDEXING
DFKAA PDP-10 KL10 BASIC INSTRUCTION DIAGNOSTIC (1) VER 0,2	MACRO %53B(1254)-4 11:50 11-Nov-24 Page 7-2
DFKAA4	MAC	13-Jan-89 10:22		TEST OF INDEX REGISTER ADDRESSING

 27587						STOP^
 27588	045267	254 04 0 00 045270 		HALT	.+1		;TEST FAILED IF PROGRAM HALTS HERE
 27589	045270	324 00 0 00 045271 		JUMPA	.+1		;IF TEST FAILS, CHANGE THIS INSTRUCTION (JUMPA .+1) TO
 27590									;JUMPA X (X IS THE ADDRESS OF THE FIRST INSTRUCTION
 27591									;IN THE SUBTEST) TO LOOP ON ERROR^
 27592
 27593					;**********
 27594
 27595
 27596					;THIS TEST VERIFIES THAT INDEX REGISTER ADDRESSING FUNCTIONS CORRECTLY.
 27597					;IN THIS TEST, A MOVE INSTRUCTION USING INDEXING IS EXECUTED.  THE MOVE INSTRUCTION
 27598					;SHOULD PLACE THE CONTENTS OF THE LOCATION SPECIFIED BY INDEX REGISTER 2 INTO AC3.
 27599					;SINCE INDEX REGISTER 2 WAS PRELOADED WITH A 1 AND AC1 WAS PRELOADED WITH A
 27600					;FLOATING 1.  THE FINAL RESULT IN AC3 SHOULD BE A FLOATING 1.
 27601					;IF C(AC3)=A FLOATING 1, THIS TEST PASSES.
 27602
 27603			001204		SN=SN+1
 27604			000010			ZZ=ZZ+ZZ
 27605						IFE	ZZ,<ZZ=1>
 27606	045271	476 00 0 00 000003 		SETOM	3		;PRELOAD AC3 WITH -1,,-1
 27607	045272	201 01 0 00 000010 		MOVEI	1,ZZ		;PRELOAD AC1 WITH FLOATING 1
 27608	045273	201 02 0 00 000001 		MOVEI	2,1		;SETUP INDEX REGISTER
 27609	045274	200 03 0 02 000000 		MOVE	3,(2)		;*FWT FROM INDEXED LOCATION
 27610	045275	302 03 0 00 000010 		CAIE	3,ZZ		;TEST INDEXING
 27611						STOP^
 27612	045276	254 04 0 00 045277 		HALT	.+1		;TEST FAILED IF PROGRAM HALTS HERE
 27613	045277	324 00 0 00 045300 		JUMPA	.+1		;IF TEST FAILS, CHANGE THIS INSTRUCTION (JUMPA .+1) TO
 27614									;JUMPA X (X IS THE ADDRESS OF THE FIRST INSTRUCTION
 27615									;IN THE SUBTEST) TO LOOP ON ERROR^
 27616
 27617					;**********
 27618
 27619
 27620					;THIS TEST VERIFIES THAT INDEX REGISTER ADDRESSING FUNCTIONS CORRECTLY.
 27621					;IN THIS TEST, A MOVE INSTRUCTION USING INDEXING IS EXECUTED.  THE MOVE INSTRUCTION
 27622					;SHOULD PLACE THE CONTENTS OF THE LOCATION SPECIFIED BY INDEX REGISTER 2 INTO AC3.
 27623					;SINCE INDEX REGISTER 2 WAS PRELOADED WITH A 1 AND AC1 WAS PRELOADED WITH A
 27624					;FLOATING 1.  THE FINAL RESULT IN AC3 SHOULD BE A FLOATING 1.
 27625					;IF C(AC3)=A FLOATING 1, THIS TEST PASSES.
 27626
 27627			001205		SN=SN+1
 27628			000020			ZZ=ZZ+ZZ
 27629						IFE	ZZ,<ZZ=1>
 27630	045300	476 00 0 00 000003 		SETOM	3		;PRELOAD AC3 WITH -1,,-1
 27631	045301	201 01 0 00 000020 		MOVEI	1,ZZ		;PRELOAD AC1 WITH FLOATING 1
 27632	045302	201 02 0 00 000001 		MOVEI	2,1		;SETUP INDEX REGISTER
 27633	045303	200 03 0 02 000000 		MOVE	3,(2)		;*FWT FROM INDEXED LOCATION
 27634	045304	302 03 0 00 000020 		CAIE	3,ZZ		;TEST INDEXING
 27635						STOP^
 27636	045305	254 04 0 00 045306 		HALT	.+1		;TEST FAILED IF PROGRAM HALTS HERE
 27637	045306	324 00 0 00 045307 		JUMPA	.+1		;IF TEST FAILS, CHANGE THIS INSTRUCTION (JUMPA .+1) TO
 27638									;JUMPA X (X IS THE ADDRESS OF THE FIRST INSTRUCTION
 27639									;IN THE SUBTEST) TO LOOP ON ERROR^
 27640
 27641					;**********
DFKAA PDP-10 KL10 BASIC INSTRUCTION DIAGNOSTIC (1) VER 0,2	MACRO %53B(1254)-4 11:50 11-Nov-24 Page 7-3
DFKAA4	MAC	13-Jan-89 10:22		TEST OF INDEX REGISTER ADDRESSING

 27642
 27643
 27644					;THIS TEST VERIFIES THAT INDEX REGISTER ADDRESSING FUNCTIONS CORRECTLY.
 27645					;IN THIS TEST, A MOVE INSTRUCTION USING INDEXING IS EXECUTED.  THE MOVE INSTRUCTION
 27646					;SHOULD PLACE THE CONTENTS OF THE LOCATION SPECIFIED BY INDEX REGISTER 2 INTO AC3.
 27647					;SINCE INDEX REGISTER 2 WAS PRELOADED WITH A 1 AND AC1 WAS PRELOADED WITH A
 27648					;FLOATING 1.  THE FINAL RESULT IN AC3 SHOULD BE A FLOATING 1.
 27649					;IF C(AC3)=A FLOATING 1, THIS TEST PASSES.
 27650
 27651			001206		SN=SN+1
 27652			000040			ZZ=ZZ+ZZ
 27653						IFE	ZZ,<ZZ=1>
 27654	045307	476 00 0 00 000003 		SETOM	3		;PRELOAD AC3 WITH -1,,-1
 27655	045310	201 01 0 00 000040 		MOVEI	1,ZZ		;PRELOAD AC1 WITH FLOATING 1
 27656	045311	201 02 0 00 000001 		MOVEI	2,1		;SETUP INDEX REGISTER
 27657	045312	200 03 0 02 000000 		MOVE	3,(2)		;*FWT FROM INDEXED LOCATION
 27658	045313	302 03 0 00 000040 		CAIE	3,ZZ		;TEST INDEXING
 27659						STOP^
 27660	045314	254 04 0 00 045315 		HALT	.+1		;TEST FAILED IF PROGRAM HALTS HERE
 27661	045315	324 00 0 00 045316 		JUMPA	.+1		;IF TEST FAILS, CHANGE THIS INSTRUCTION (JUMPA .+1) TO
 27662									;JUMPA X (X IS THE ADDRESS OF THE FIRST INSTRUCTION
 27663									;IN THE SUBTEST) TO LOOP ON ERROR^
 27664
 27665					;**********
 27666
 27667
 27668					;THIS TEST VERIFIES THAT INDEX REGISTER ADDRESSING FUNCTIONS CORRECTLY.
 27669					;IN THIS TEST, A MOVE INSTRUCTION USING INDEXING IS EXECUTED.  THE MOVE INSTRUCTION
 27670					;SHOULD PLACE THE CONTENTS OF THE LOCATION SPECIFIED BY INDEX REGISTER 2 INTO AC3.
 27671					;SINCE INDEX REGISTER 2 WAS PRELOADED WITH A 1 AND AC1 WAS PRELOADED WITH A
 27672					;FLOATING 1.  THE FINAL RESULT IN AC3 SHOULD BE A FLOATING 1.
 27673					;IF C(AC3)=A FLOATING 1, THIS TEST PASSES.
 27674
 27675			001207		SN=SN+1
 27676			000100			ZZ=ZZ+ZZ
 27677						IFE	ZZ,<ZZ=1>
 27678	045316	476 00 0 00 000003 		SETOM	3		;PRELOAD AC3 WITH -1,,-1
 27679	045317	201 01 0 00 000100 		MOVEI	1,ZZ		;PRELOAD AC1 WITH FLOATING 1
 27680	045320	201 02 0 00 000001 		MOVEI	2,1		;SETUP INDEX REGISTER
 27681	045321	200 03 0 02 000000 		MOVE	3,(2)		;*FWT FROM INDEXED LOCATION
 27682	045322	302 03 0 00 000100 		CAIE	3,ZZ		;TEST INDEXING
 27683						STOP^
 27684	045323	254 04 0 00 045324 		HALT	.+1		;TEST FAILED IF PROGRAM HALTS HERE
 27685	045324	324 00 0 00 045325 		JUMPA	.+1		;IF TEST FAILS, CHANGE THIS INSTRUCTION (JUMPA .+1) TO
 27686									;JUMPA X (X IS THE ADDRESS OF THE FIRST INSTRUCTION
 27687									;IN THE SUBTEST) TO LOOP ON ERROR^
 27688
 27689					;**********
 27690
 27691
 27692					;THIS TEST VERIFIES THAT INDEX REGISTER ADDRESSING FUNCTIONS CORRECTLY.
 27693					;IN THIS TEST, A MOVE INSTRUCTION USING INDEXING IS EXECUTED.  THE MOVE INSTRUCTION
 27694					;SHOULD PLACE THE CONTENTS OF THE LOCATION SPECIFIED BY INDEX REGISTER 2 INTO AC3.
 27695					;SINCE INDEX REGISTER 2 WAS PRELOADED WITH A 1 AND AC1 WAS PRELOADED WITH A
 27696					;FLOATING 1.  THE FINAL RESULT IN AC3 SHOULD BE A FLOATING 1.
DFKAA PDP-10 KL10 BASIC INSTRUCTION DIAGNOSTIC (1) VER 0,2	MACRO %53B(1254)-4 11:50 11-Nov-24 Page 7-4
DFKAA4	MAC	13-Jan-89 10:22		TEST OF INDEX REGISTER ADDRESSING

 27697					;IF C(AC3)=A FLOATING 1, THIS TEST PASSES.
 27698
 27699			001210		SN=SN+1
 27700			000200			ZZ=ZZ+ZZ
 27701						IFE	ZZ,<ZZ=1>
 27702	045325	476 00 0 00 000003 		SETOM	3		;PRELOAD AC3 WITH -1,,-1
 27703	045326	201 01 0 00 000200 		MOVEI	1,ZZ		;PRELOAD AC1 WITH FLOATING 1
 27704	045327	201 02 0 00 000001 		MOVEI	2,1		;SETUP INDEX REGISTER
 27705	045330	200 03 0 02 000000 		MOVE	3,(2)		;*FWT FROM INDEXED LOCATION
 27706	045331	302 03 0 00 000200 		CAIE	3,ZZ		;TEST INDEXING
 27707						STOP^
 27708	045332	254 04 0 00 045333 		HALT	.+1		;TEST FAILED IF PROGRAM HALTS HERE
 27709	045333	324 00 0 00 045334 		JUMPA	.+1		;IF TEST FAILS, CHANGE THIS INSTRUCTION (JUMPA .+1) TO
 27710									;JUMPA X (X IS THE ADDRESS OF THE FIRST INSTRUCTION
 27711									;IN THE SUBTEST) TO LOOP ON ERROR^
 27712
 27713					;**********
 27714
 27715
 27716					;THIS TEST VERIFIES THAT INDEX REGISTER ADDRESSING FUNCTIONS CORRECTLY.
 27717					;IN THIS TEST, A MOVE INSTRUCTION USING INDEXING IS EXECUTED.  THE MOVE INSTRUCTION
 27718					;SHOULD PLACE THE CONTENTS OF THE LOCATION SPECIFIED BY INDEX REGISTER 2 INTO AC3.
 27719					;SINCE INDEX REGISTER 2 WAS PRELOADED WITH A 1 AND AC1 WAS PRELOADED WITH A
 27720					;FLOATING 1.  THE FINAL RESULT IN AC3 SHOULD BE A FLOATING 1.
 27721					;IF C(AC3)=A FLOATING 1, THIS TEST PASSES.
 27722
 27723			001211		SN=SN+1
 27724			000400			ZZ=ZZ+ZZ
 27725						IFE	ZZ,<ZZ=1>
 27726	045334	476 00 0 00 000003 		SETOM	3		;PRELOAD AC3 WITH -1,,-1
 27727	045335	201 01 0 00 000400 		MOVEI	1,ZZ		;PRELOAD AC1 WITH FLOATING 1
 27728	045336	201 02 0 00 000001 		MOVEI	2,1		;SETUP INDEX REGISTER
 27729	045337	200 03 0 02 000000 		MOVE	3,(2)		;*FWT FROM INDEXED LOCATION
 27730	045340	302 03 0 00 000400 		CAIE	3,ZZ		;TEST INDEXING
 27731						STOP^
 27732	045341	254 04 0 00 045342 		HALT	.+1		;TEST FAILED IF PROGRAM HALTS HERE
 27733	045342	324 00 0 00 045343 		JUMPA	.+1		;IF TEST FAILS, CHANGE THIS INSTRUCTION (JUMPA .+1) TO
 27734									;JUMPA X (X IS THE ADDRESS OF THE FIRST INSTRUCTION
 27735									;IN THE SUBTEST) TO LOOP ON ERROR^
 27736
 27737					;**********
 27738
 27739
 27740					;THIS TEST VERIFIES THAT INDEX REGISTER ADDRESSING FUNCTIONS CORRECTLY.
 27741					;IN THIS TEST, A MOVE INSTRUCTION USING INDEXING IS EXECUTED.  THE MOVE INSTRUCTION
 27742					;SHOULD PLACE THE CONTENTS OF THE LOCATION SPECIFIED BY INDEX REGISTER 2 INTO AC3.
 27743					;SINCE INDEX REGISTER 2 WAS PRELOADED WITH A 1 AND AC1 WAS PRELOADED WITH A
 27744					;FLOATING 1.  THE FINAL RESULT IN AC3 SHOULD BE A FLOATING 1.
 27745					;IF C(AC3)=A FLOATING 1, THIS TEST PASSES.
 27746
 27747			001212		SN=SN+1
 27748			001000			ZZ=ZZ+ZZ
 27749						IFE	ZZ,<ZZ=1>
 27750	045343	476 00 0 00 000003 		SETOM	3		;PRELOAD AC3 WITH -1,,-1
 27751	045344	201 01 0 00 001000 		MOVEI	1,ZZ		;PRELOAD AC1 WITH FLOATING 1
DFKAA PDP-10 KL10 BASIC INSTRUCTION DIAGNOSTIC (1) VER 0,2	MACRO %53B(1254)-4 11:50 11-Nov-24 Page 7-5
DFKAA4	MAC	13-Jan-89 10:22		TEST OF INDEX REGISTER ADDRESSING

 27752	045345	201 02 0 00 000001 		MOVEI	2,1		;SETUP INDEX REGISTER
 27753	045346	200 03 0 02 000000 		MOVE	3,(2)		;*FWT FROM INDEXED LOCATION
 27754	045347	302 03 0 00 001000 		CAIE	3,ZZ		;TEST INDEXING
 27755						STOP^
 27756	045350	254 04 0 00 045351 		HALT	.+1		;TEST FAILED IF PROGRAM HALTS HERE
 27757	045351	324 00 0 00 045352 		JUMPA	.+1		;IF TEST FAILS, CHANGE THIS INSTRUCTION (JUMPA .+1) TO
 27758									;JUMPA X (X IS THE ADDRESS OF THE FIRST INSTRUCTION
 27759									;IN THE SUBTEST) TO LOOP ON ERROR^
 27760
 27761					;**********
 27762
 27763
 27764					;THIS TEST VERIFIES THAT INDEX REGISTER ADDRESSING FUNCTIONS CORRECTLY.
 27765					;IN THIS TEST, A MOVE INSTRUCTION USING INDEXING IS EXECUTED.  THE MOVE INSTRUCTION
 27766					;SHOULD PLACE THE CONTENTS OF THE LOCATION SPECIFIED BY INDEX REGISTER 2 INTO AC3.
 27767					;SINCE INDEX REGISTER 2 WAS PRELOADED WITH A 1 AND AC1 WAS PRELOADED WITH A
 27768					;FLOATING 1.  THE FINAL RESULT IN AC3 SHOULD BE A FLOATING 1.
 27769					;IF C(AC3)=A FLOATING 1, THIS TEST PASSES.
 27770
 27771			001213		SN=SN+1
 27772			002000			ZZ=ZZ+ZZ
 27773						IFE	ZZ,<ZZ=1>
 27774	045352	476 00 0 00 000003 		SETOM	3		;PRELOAD AC3 WITH -1,,-1
 27775	045353	201 01 0 00 002000 		MOVEI	1,ZZ		;PRELOAD AC1 WITH FLOATING 1
 27776	045354	201 02 0 00 000001 		MOVEI	2,1		;SETUP INDEX REGISTER
 27777	045355	200 03 0 02 000000 		MOVE	3,(2)		;*FWT FROM INDEXED LOCATION
 27778	045356	302 03 0 00 002000 		CAIE	3,ZZ		;TEST INDEXING
 27779						STOP^
 27780	045357	254 04 0 00 045360 		HALT	.+1		;TEST FAILED IF PROGRAM HALTS HERE
 27781	045360	324 00 0 00 045361 		JUMPA	.+1		;IF TEST FAILS, CHANGE THIS INSTRUCTION (JUMPA .+1) TO
 27782									;JUMPA X (X IS THE ADDRESS OF THE FIRST INSTRUCTION
 27783									;IN THE SUBTEST) TO LOOP ON ERROR^
 27784
 27785					;**********
 27786
 27787
 27788					;THIS TEST VERIFIES THAT INDEX REGISTER ADDRESSING FUNCTIONS CORRECTLY.
 27789					;IN THIS TEST, A MOVE INSTRUCTION USING INDEXING IS EXECUTED.  THE MOVE INSTRUCTION
 27790					;SHOULD PLACE THE CONTENTS OF THE LOCATION SPECIFIED BY INDEX REGISTER 2 INTO AC3.
 27791					;SINCE INDEX REGISTER 2 WAS PRELOADED WITH A 1 AND AC1 WAS PRELOADED WITH A
 27792					;FLOATING 1.  THE FINAL RESULT IN AC3 SHOULD BE A FLOATING 1.
 27793					;IF C(AC3)=A FLOATING 1, THIS TEST PASSES.
 27794
 27795			001214		SN=SN+1
 27796			004000			ZZ=ZZ+ZZ
 27797						IFE	ZZ,<ZZ=1>
 27798	045361	476 00 0 00 000003 		SETOM	3		;PRELOAD AC3 WITH -1,,-1
 27799	045362	201 01 0 00 004000 		MOVEI	1,ZZ		;PRELOAD AC1 WITH FLOATING 1
 27800	045363	201 02 0 00 000001 		MOVEI	2,1		;SETUP INDEX REGISTER
 27801	045364	200 03 0 02 000000 		MOVE	3,(2)		;*FWT FROM INDEXED LOCATION
 27802	045365	302 03 0 00 004000 		CAIE	3,ZZ		;TEST INDEXING
 27803						STOP^
 27804	045366	254 04 0 00 045367 		HALT	.+1		;TEST FAILED IF PROGRAM HALTS HERE
 27805	045367	324 00 0 00 045370 		JUMPA	.+1		;IF TEST FAILS, CHANGE THIS INSTRUCTION (JUMPA .+1) TO
 27806									;JUMPA X (X IS THE ADDRESS OF THE FIRST INSTRUCTION
DFKAA PDP-10 KL10 BASIC INSTRUCTION DIAGNOSTIC (1) VER 0,2	MACRO %53B(1254)-4 11:50 11-Nov-24 Page 7-6
DFKAA4	MAC	13-Jan-89 10:22		TEST OF INDEX REGISTER ADDRESSING

 27807									;IN THE SUBTEST) TO LOOP ON ERROR^
 27808
 27809					;**********
 27810
 27811
 27812					;THIS TEST VERIFIES THAT INDEX REGISTER ADDRESSING FUNCTIONS CORRECTLY.
 27813					;IN THIS TEST, A MOVE INSTRUCTION USING INDEXING IS EXECUTED.  THE MOVE INSTRUCTION
 27814					;SHOULD PLACE THE CONTENTS OF THE LOCATION SPECIFIED BY INDEX REGISTER 2 INTO AC3.
 27815					;SINCE INDEX REGISTER 2 WAS PRELOADED WITH A 1 AND AC1 WAS PRELOADED WITH A
 27816					;FLOATING 1.  THE FINAL RESULT IN AC3 SHOULD BE A FLOATING 1.
 27817					;IF C(AC3)=A FLOATING 1, THIS TEST PASSES.
 27818
 27819			001215		SN=SN+1
 27820			010000			ZZ=ZZ+ZZ
 27821						IFE	ZZ,<ZZ=1>
 27822	045370	476 00 0 00 000003 		SETOM	3		;PRELOAD AC3 WITH -1,,-1
 27823	045371	201 01 0 00 010000 		MOVEI	1,ZZ		;PRELOAD AC1 WITH FLOATING 1
 27824	045372	201 02 0 00 000001 		MOVEI	2,1		;SETUP INDEX REGISTER
 27825	045373	200 03 0 02 000000 		MOVE	3,(2)		;*FWT FROM INDEXED LOCATION
 27826	045374	302 03 0 00 010000 		CAIE	3,ZZ		;TEST INDEXING
 27827						STOP^
 27828	045375	254 04 0 00 045376 		HALT	.+1		;TEST FAILED IF PROGRAM HALTS HERE
 27829	045376	324 00 0 00 045377 		JUMPA	.+1		;IF TEST FAILS, CHANGE THIS INSTRUCTION (JUMPA .+1) TO
 27830									;JUMPA X (X IS THE ADDRESS OF THE FIRST INSTRUCTION
 27831									;IN THE SUBTEST) TO LOOP ON ERROR^
 27832
 27833					;**********
 27834
 27835
 27836					;THIS TEST VERIFIES THAT INDEX REGISTER ADDRESSING FUNCTIONS CORRECTLY.
 27837					;IN THIS TEST, A MOVE INSTRUCTION USING INDEXING IS EXECUTED.  THE MOVE INSTRUCTION
 27838					;SHOULD PLACE THE CONTENTS OF THE LOCATION SPECIFIED BY INDEX REGISTER 2 INTO AC3.
 27839					;SINCE INDEX REGISTER 2 WAS PRELOADED WITH A 1 AND AC1 WAS PRELOADED WITH A
 27840					;FLOATING 1.  THE FINAL RESULT IN AC3 SHOULD BE A FLOATING 1.
 27841					;IF C(AC3)=A FLOATING 1, THIS TEST PASSES.
 27842
 27843			001216		SN=SN+1
 27844			020000			ZZ=ZZ+ZZ
 27845						IFE	ZZ,<ZZ=1>
 27846	045377	476 00 0 00 000003 		SETOM	3		;PRELOAD AC3 WITH -1,,-1
 27847	045400	201 01 0 00 020000 		MOVEI	1,ZZ		;PRELOAD AC1 WITH FLOATING 1
 27848	045401	201 02 0 00 000001 		MOVEI	2,1		;SETUP INDEX REGISTER
 27849	045402	200 03 0 02 000000 		MOVE	3,(2)		;*FWT FROM INDEXED LOCATION
 27850	045403	302 03 0 00 020000 		CAIE	3,ZZ		;TEST INDEXING
 27851						STOP^
 27852	045404	254 04 0 00 045405 		HALT	.+1		;TEST FAILED IF PROGRAM HALTS HERE
 27853	045405	324 00 0 00 045406 		JUMPA	.+1		;IF TEST FAILS, CHANGE THIS INSTRUCTION (JUMPA .+1) TO
 27854									;JUMPA X (X IS THE ADDRESS OF THE FIRST INSTRUCTION
 27855									;IN THE SUBTEST) TO LOOP ON ERROR^
 27856
 27857					;**********
 27858
 27859
 27860					;THIS TEST VERIFIES THAT INDEX REGISTER ADDRESSING FUNCTIONS CORRECTLY.
 27861					;IN THIS TEST, A MOVE INSTRUCTION USING INDEXING IS EXECUTED.  THE MOVE INSTRUCTION
DFKAA PDP-10 KL10 BASIC INSTRUCTION DIAGNOSTIC (1) VER 0,2	MACRO %53B(1254)-4 11:50 11-Nov-24 Page 7-7
DFKAA4	MAC	13-Jan-89 10:22		TEST OF INDEX REGISTER ADDRESSING

 27862					;SHOULD PLACE THE CONTENTS OF THE LOCATION SPECIFIED BY INDEX REGISTER 2 INTO AC3.
 27863					;SINCE INDEX REGISTER 2 WAS PRELOADED WITH A 1 AND AC1 WAS PRELOADED WITH A
 27864					;FLOATING 1.  THE FINAL RESULT IN AC3 SHOULD BE A FLOATING 1.
 27865					;IF C(AC3)=A FLOATING 1, THIS TEST PASSES.
 27866
 27867			001217		SN=SN+1
 27868			040000			ZZ=ZZ+ZZ
 27869						IFE	ZZ,<ZZ=1>
 27870	045406	476 00 0 00 000003 		SETOM	3		;PRELOAD AC3 WITH -1,,-1
 27871	045407	201 01 0 00 040000 		MOVEI	1,ZZ		;PRELOAD AC1 WITH FLOATING 1
 27872	045410	201 02 0 00 000001 		MOVEI	2,1		;SETUP INDEX REGISTER
 27873	045411	200 03 0 02 000000 		MOVE	3,(2)		;*FWT FROM INDEXED LOCATION
 27874	045412	302 03 0 00 040000 		CAIE	3,ZZ		;TEST INDEXING
 27875						STOP^
 27876	045413	254 04 0 00 045414 		HALT	.+1		;TEST FAILED IF PROGRAM HALTS HERE
 27877	045414	324 00 0 00 045415 		JUMPA	.+1		;IF TEST FAILS, CHANGE THIS INSTRUCTION (JUMPA .+1) TO
 27878									;JUMPA X (X IS THE ADDRESS OF THE FIRST INSTRUCTION
 27879									;IN THE SUBTEST) TO LOOP ON ERROR^
 27880
 27881					;**********
 27882
 27883
 27884					;THIS TEST VERIFIES THAT INDEX REGISTER ADDRESSING FUNCTIONS CORRECTLY.
 27885					;IN THIS TEST, A MOVE INSTRUCTION USING INDEXING IS EXECUTED.  THE MOVE INSTRUCTION
 27886					;SHOULD PLACE THE CONTENTS OF THE LOCATION SPECIFIED BY INDEX REGISTER 2 INTO AC3.
 27887					;SINCE INDEX REGISTER 2 WAS PRELOADED WITH A 1 AND AC1 WAS PRELOADED WITH A
 27888					;FLOATING 1.  THE FINAL RESULT IN AC3 SHOULD BE A FLOATING 1.
 27889					;IF C(AC3)=A FLOATING 1, THIS TEST PASSES.
 27890
 27891			001220		SN=SN+1
 27892			100000			ZZ=ZZ+ZZ
 27893						IFE	ZZ,<ZZ=1>
 27894	045415	476 00 0 00 000003 		SETOM	3		;PRELOAD AC3 WITH -1,,-1
 27895	045416	201 01 0 00 100000 		MOVEI	1,ZZ		;PRELOAD AC1 WITH FLOATING 1
 27896	045417	201 02 0 00 000001 		MOVEI	2,1		;SETUP INDEX REGISTER
 27897	045420	200 03 0 02 000000 		MOVE	3,(2)		;*FWT FROM INDEXED LOCATION
 27898	045421	302 03 0 00 100000 		CAIE	3,ZZ		;TEST INDEXING
 27899						STOP^
 27900	045422	254 04 0 00 045423 		HALT	.+1		;TEST FAILED IF PROGRAM HALTS HERE
 27901	045423	324 00 0 00 045424 		JUMPA	.+1		;IF TEST FAILS, CHANGE THIS INSTRUCTION (JUMPA .+1) TO
 27902									;JUMPA X (X IS THE ADDRESS OF THE FIRST INSTRUCTION
 27903									;IN THE SUBTEST) TO LOOP ON ERROR^
 27904
 27905					;**********
 27906
 27907
 27908					;THIS TEST VERIFIES THAT INDEX REGISTER ADDRESSING FUNCTIONS CORRECTLY.
 27909					;IN THIS TEST, A MOVE INSTRUCTION USING INDEXING IS EXECUTED.  THE MOVE INSTRUCTION
 27910					;SHOULD PLACE THE CONTENTS OF THE LOCATION SPECIFIED BY INDEX REGISTER 2 INTO AC3.
 27911					;SINCE INDEX REGISTER 2 WAS PRELOADED WITH A 1 AND AC1 WAS PRELOADED WITH A
 27912					;FLOATING 1.  THE FINAL RESULT IN AC3 SHOULD BE A FLOATING 1.
 27913					;IF C(AC3)=A FLOATING 1, THIS TEST PASSES.
 27914
 27915			001221		SN=SN+1
 27916			200000			ZZ=ZZ+ZZ
DFKAA PDP-10 KL10 BASIC INSTRUCTION DIAGNOSTIC (1) VER 0,2	MACRO %53B(1254)-4 11:50 11-Nov-24 Page 7-8
DFKAA4	MAC	13-Jan-89 10:22		TEST OF INDEX REGISTER ADDRESSING

 27917						IFE	ZZ,<ZZ=1>
 27918	045424	476 00 0 00 000003 		SETOM	3		;PRELOAD AC3 WITH -1,,-1
 27919	045425	201 01 0 00 200000 		MOVEI	1,ZZ		;PRELOAD AC1 WITH FLOATING 1
 27920	045426	201 02 0 00 000001 		MOVEI	2,1		;SETUP INDEX REGISTER
 27921	045427	200 03 0 02 000000 		MOVE	3,(2)		;*FWT FROM INDEXED LOCATION
 27922	045430	302 03 0 00 200000 		CAIE	3,ZZ		;TEST INDEXING
 27923						STOP^
 27924	045431	254 04 0 00 045432 		HALT	.+1		;TEST FAILED IF PROGRAM HALTS HERE
 27925	045432	324 00 0 00 045433 		JUMPA	.+1		;IF TEST FAILS, CHANGE THIS INSTRUCTION (JUMPA .+1) TO
 27926									;JUMPA X (X IS THE ADDRESS OF THE FIRST INSTRUCTION
 27927									;IN THE SUBTEST) TO LOOP ON ERROR^
 27928
 27929					;**********
 27930
 27931
 27932					;THIS TEST VERIFIES THAT INDEX REGISTER ADDRESSING FUNCTIONS CORRECTLY.
 27933					;IN THIS TEST, A MOVE INSTRUCTION USING INDEXING IS EXECUTED.  THE MOVE INSTRUCTION
 27934					;SHOULD PLACE THE CONTENTS OF THE LOCATION SPECIFIED BY INDEX REGISTER 2 INTO AC3.
 27935					;SINCE INDEX REGISTER 2 WAS PRELOADED WITH A 1 AND AC1 WAS PRELOADED WITH A
 27936					;FLOATING 1.  THE FINAL RESULT IN AC3 SHOULD BE A FLOATING 1.
 27937					;IF C(AC3)=A FLOATING 1, THIS TEST PASSES.
 27938
 27939			001222		SN=SN+1
 27940			400000			ZZ=ZZ+ZZ
 27941						IFE	ZZ,<ZZ=1>
 27942	045433	476 00 0 00 000003 		SETOM	3		;PRELOAD AC3 WITH -1,,-1
 27943	045434	201 01 0 00 400000 		MOVEI	1,ZZ		;PRELOAD AC1 WITH FLOATING 1
 27944	045435	201 02 0 00 000001 		MOVEI	2,1		;SETUP INDEX REGISTER
 27945	045436	200 03 0 02 000000 		MOVE	3,(2)		;*FWT FROM INDEXED LOCATION
 27946	045437	302 03 0 00 400000 		CAIE	3,ZZ		;TEST INDEXING
 27947						STOP^
 27948	045440	254 04 0 00 045441 		HALT	.+1		;TEST FAILED IF PROGRAM HALTS HERE
 27949	045441	324 00 0 00 045442 		JUMPA	.+1		;IF TEST FAILS, CHANGE THIS INSTRUCTION (JUMPA .+1) TO
 27950									;JUMPA X (X IS THE ADDRESS OF THE FIRST INSTRUCTION
 27951									;IN THE SUBTEST) TO LOOP ON ERROR^
 27952
 27953					;**********
 27954
DFKAA PDP-10 KL10 BASIC INSTRUCTION DIAGNOSTIC (1) VER 0,2	MACRO %53B(1254)-4 11:50 11-Nov-24 Page 8
DFKAA4	MAC	13-Jan-89 10:22		TEST OF INDEX REGISTER ADDRESSING

 27955			001300		SN=1300
 27956			000000			ZZ=0
 27957
 27958					C1300:	REPEAT	^D18,<
 27959					;THIS TEST VERIFIES THAT INDEX REGISTER ADDRESSING FUNCTIONS CORRECTLY.
 27960					;IN THIS TEST, A MOVE INSTRUCTION USING INDEXING IS EXECUTED.  THE MOVE INSTRUCTION
 27961					;SHOULD PLACE THE CONTENTS OF THE LOCATION SPECIFIED BY INDEX REGISTER 2 INTO AC3.
 27962					;SINCE INDEX REGISTER 2 WAS PRELOADED WITH A 1 AND AC1 WAS PRELOADED WITH A
 27963					;FLOATING 1, THE FINAL RESULT IN AC3 SHOULD BE A FLOATING 1.
 27964					;IF C(AC3)=A FLOATING 1, THIS TEST PASSES.
 27965
 27966					SN=SN+1
 27967						ZZ=ZZ+ZZ
 27968						IFE	ZZ,<ZZ=1>
 27969						SETOM	3		;PRELOAD AC3 WITH -1,,-1
 27970						MOVSI	1,ZZ		;PRELOAD AC1 WITH FLOATING 1
 27971						MOVEI	2,1		;SETUP INDEX REGISTER
 27972						MOVE	3,(2)		;*FWT FROM INDEXED LOCATION
 27973						CAME	3,[ZZ,,0]	;TEST INDEXING
 27974						STOP
 27975
 27976					;**********
 27977					>
 27978
 27979					;THIS TEST VERIFIES THAT INDEX REGISTER ADDRESSING FUNCTIONS CORRECTLY.
 27980					;IN THIS TEST, A MOVE INSTRUCTION USING INDEXING IS EXECUTED.  THE MOVE INSTRUCTION
 27981					;SHOULD PLACE THE CONTENTS OF THE LOCATION SPECIFIED BY INDEX REGISTER 2 INTO AC3.
 27982					;SINCE INDEX REGISTER 2 WAS PRELOADED WITH A 1 AND AC1 WAS PRELOADED WITH A
 27983					;FLOATING 1, THE FINAL RESULT IN AC3 SHOULD BE A FLOATING 1.
 27984					;IF C(AC3)=A FLOATING 1, THIS TEST PASSES.
 27985
 27986			001301		SN=SN+1
 27987			000000			ZZ=ZZ+ZZ
 27988			000001			IFE	ZZ,<ZZ=1>
 27989	045442	476 00 0 00 000003 		SETOM	3		;PRELOAD AC3 WITH -1,,-1
 27990	045443	205 01 0 00 000001 		MOVSI	1,ZZ		;PRELOAD AC1 WITH FLOATING 1
 27991	045444	201 02 0 00 000001 		MOVEI	2,1		;SETUP INDEX REGISTER
 27992	045445	200 03 0 02 000000 		MOVE	3,(2)		;*FWT FROM INDEXED LOCATION
 27993	045446	312 03 0 00 070307 		CAME	3,[ZZ,,0]	;TEST INDEXING
 27994						STOP^
 27995	045447	254 04 0 00 045450 		HALT	.+1		;TEST FAILED IF PROGRAM HALTS HERE
 27996	045450	324 00 0 00 045451 		JUMPA	.+1		;IF TEST FAILS, CHANGE THIS INSTRUCTION (JUMPA .+1) TO
 27997									;JUMPA X (X IS THE ADDRESS OF THE FIRST INSTRUCTION
 27998									;IN THE SUBTEST) TO LOOP ON ERROR^
 27999
 28000					;**********
 28001
 28002
 28003					;THIS TEST VERIFIES THAT INDEX REGISTER ADDRESSING FUNCTIONS CORRECTLY.
 28004					;IN THIS TEST, A MOVE INSTRUCTION USING INDEXING IS EXECUTED.  THE MOVE INSTRUCTION
 28005					;SHOULD PLACE THE CONTENTS OF THE LOCATION SPECIFIED BY INDEX REGISTER 2 INTO AC3.
 28006					;SINCE INDEX REGISTER 2 WAS PRELOADED WITH A 1 AND AC1 WAS PRELOADED WITH A
 28007					;FLOATING 1, THE FINAL RESULT IN AC3 SHOULD BE A FLOATING 1.
 28008					;IF C(AC3)=A FLOATING 1, THIS TEST PASSES.
 28009
DFKAA PDP-10 KL10 BASIC INSTRUCTION DIAGNOSTIC (1) VER 0,2	MACRO %53B(1254)-4 11:50 11-Nov-24 Page 8-1
DFKAA4	MAC	13-Jan-89 10:22		TEST OF INDEX REGISTER ADDRESSING

 28010			001302		SN=SN+1
 28011			000002			ZZ=ZZ+ZZ
 28012						IFE	ZZ,<ZZ=1>
 28013	045451	476 00 0 00 000003 		SETOM	3		;PRELOAD AC3 WITH -1,,-1
 28014	045452	205 01 0 00 000002 		MOVSI	1,ZZ		;PRELOAD AC1 WITH FLOATING 1
 28015	045453	201 02 0 00 000001 		MOVEI	2,1		;SETUP INDEX REGISTER
 28016	045454	200 03 0 02 000000 		MOVE	3,(2)		;*FWT FROM INDEXED LOCATION
 28017	045455	312 03 0 00 070310 		CAME	3,[ZZ,,0]	;TEST INDEXING
 28018						STOP^
 28019	045456	254 04 0 00 045457 		HALT	.+1		;TEST FAILED IF PROGRAM HALTS HERE
 28020	045457	324 00 0 00 045460 		JUMPA	.+1		;IF TEST FAILS, CHANGE THIS INSTRUCTION (JUMPA .+1) TO
 28021									;JUMPA X (X IS THE ADDRESS OF THE FIRST INSTRUCTION
 28022									;IN THE SUBTEST) TO LOOP ON ERROR^
 28023
 28024					;**********
 28025
 28026
 28027					;THIS TEST VERIFIES THAT INDEX REGISTER ADDRESSING FUNCTIONS CORRECTLY.
 28028					;IN THIS TEST, A MOVE INSTRUCTION USING INDEXING IS EXECUTED.  THE MOVE INSTRUCTION
 28029					;SHOULD PLACE THE CONTENTS OF THE LOCATION SPECIFIED BY INDEX REGISTER 2 INTO AC3.
 28030					;SINCE INDEX REGISTER 2 WAS PRELOADED WITH A 1 AND AC1 WAS PRELOADED WITH A
 28031					;FLOATING 1, THE FINAL RESULT IN AC3 SHOULD BE A FLOATING 1.
 28032					;IF C(AC3)=A FLOATING 1, THIS TEST PASSES.
 28033
 28034			001303		SN=SN+1
 28035			000004			ZZ=ZZ+ZZ
 28036						IFE	ZZ,<ZZ=1>
 28037	045460	476 00 0 00 000003 		SETOM	3		;PRELOAD AC3 WITH -1,,-1
 28038	045461	205 01 0 00 000004 		MOVSI	1,ZZ		;PRELOAD AC1 WITH FLOATING 1
 28039	045462	201 02 0 00 000001 		MOVEI	2,1		;SETUP INDEX REGISTER
 28040	045463	200 03 0 02 000000 		MOVE	3,(2)		;*FWT FROM INDEXED LOCATION
 28041	045464	312 03 0 00 070311 		CAME	3,[ZZ,,0]	;TEST INDEXING
 28042						STOP^
 28043	045465	254 04 0 00 045466 		HALT	.+1		;TEST FAILED IF PROGRAM HALTS HERE
 28044	045466	324 00 0 00 045467 		JUMPA	.+1		;IF TEST FAILS, CHANGE THIS INSTRUCTION (JUMPA .+1) TO
 28045									;JUMPA X (X IS THE ADDRESS OF THE FIRST INSTRUCTION
 28046									;IN THE SUBTEST) TO LOOP ON ERROR^
 28047
 28048					;**********
 28049
 28050
 28051					;THIS TEST VERIFIES THAT INDEX REGISTER ADDRESSING FUNCTIONS CORRECTLY.
 28052					;IN THIS TEST, A MOVE INSTRUCTION USING INDEXING IS EXECUTED.  THE MOVE INSTRUCTION
 28053					;SHOULD PLACE THE CONTENTS OF THE LOCATION SPECIFIED BY INDEX REGISTER 2 INTO AC3.
 28054					;SINCE INDEX REGISTER 2 WAS PRELOADED WITH A 1 AND AC1 WAS PRELOADED WITH A
 28055					;FLOATING 1, THE FINAL RESULT IN AC3 SHOULD BE A FLOATING 1.
 28056					;IF C(AC3)=A FLOATING 1, THIS TEST PASSES.
 28057
 28058			001304		SN=SN+1
 28059			000010			ZZ=ZZ+ZZ
 28060						IFE	ZZ,<ZZ=1>
 28061	045467	476 00 0 00 000003 		SETOM	3		;PRELOAD AC3 WITH -1,,-1
 28062	045470	205 01 0 00 000010 		MOVSI	1,ZZ		;PRELOAD AC1 WITH FLOATING 1
 28063	045471	201 02 0 00 000001 		MOVEI	2,1		;SETUP INDEX REGISTER
 28064	045472	200 03 0 02 000000 		MOVE	3,(2)		;*FWT FROM INDEXED LOCATION
DFKAA PDP-10 KL10 BASIC INSTRUCTION DIAGNOSTIC (1) VER 0,2	MACRO %53B(1254)-4 11:50 11-Nov-24 Page 8-2
DFKAA4	MAC	13-Jan-89 10:22		TEST OF INDEX REGISTER ADDRESSING

 28065	045473	312 03 0 00 070312 		CAME	3,[ZZ,,0]	;TEST INDEXING
 28066						STOP^
 28067	045474	254 04 0 00 045475 		HALT	.+1		;TEST FAILED IF PROGRAM HALTS HERE
 28068	045475	324 00 0 00 045476 		JUMPA	.+1		;IF TEST FAILS, CHANGE THIS INSTRUCTION (JUMPA .+1) TO
 28069									;JUMPA X (X IS THE ADDRESS OF THE FIRST INSTRUCTION
 28070									;IN THE SUBTEST) TO LOOP ON ERROR^
 28071
 28072					;**********
 28073
 28074
 28075					;THIS TEST VERIFIES THAT INDEX REGISTER ADDRESSING FUNCTIONS CORRECTLY.
 28076					;IN THIS TEST, A MOVE INSTRUCTION USING INDEXING IS EXECUTED.  THE MOVE INSTRUCTION
 28077					;SHOULD PLACE THE CONTENTS OF THE LOCATION SPECIFIED BY INDEX REGISTER 2 INTO AC3.
 28078					;SINCE INDEX REGISTER 2 WAS PRELOADED WITH A 1 AND AC1 WAS PRELOADED WITH A
 28079					;FLOATING 1, THE FINAL RESULT IN AC3 SHOULD BE A FLOATING 1.
 28080					;IF C(AC3)=A FLOATING 1, THIS TEST PASSES.
 28081
 28082			001305		SN=SN+1
 28083			000020			ZZ=ZZ+ZZ
 28084						IFE	ZZ,<ZZ=1>
 28085	045476	476 00 0 00 000003 		SETOM	3		;PRELOAD AC3 WITH -1,,-1
 28086	045477	205 01 0 00 000020 		MOVSI	1,ZZ		;PRELOAD AC1 WITH FLOATING 1
 28087	045500	201 02 0 00 000001 		MOVEI	2,1		;SETUP INDEX REGISTER
 28088	045501	200 03 0 02 000000 		MOVE	3,(2)		;*FWT FROM INDEXED LOCATION
 28089	045502	312 03 0 00 070313 		CAME	3,[ZZ,,0]	;TEST INDEXING
 28090						STOP^
 28091	045503	254 04 0 00 045504 		HALT	.+1		;TEST FAILED IF PROGRAM HALTS HERE
 28092	045504	324 00 0 00 045505 		JUMPA	.+1		;IF TEST FAILS, CHANGE THIS INSTRUCTION (JUMPA .+1) TO
 28093									;JUMPA X (X IS THE ADDRESS OF THE FIRST INSTRUCTION
 28094									;IN THE SUBTEST) TO LOOP ON ERROR^
 28095
 28096					;**********
 28097
 28098
 28099					;THIS TEST VERIFIES THAT INDEX REGISTER ADDRESSING FUNCTIONS CORRECTLY.
 28100					;IN THIS TEST, A MOVE INSTRUCTION USING INDEXING IS EXECUTED.  THE MOVE INSTRUCTION
 28101					;SHOULD PLACE THE CONTENTS OF THE LOCATION SPECIFIED BY INDEX REGISTER 2 INTO AC3.
 28102					;SINCE INDEX REGISTER 2 WAS PRELOADED WITH A 1 AND AC1 WAS PRELOADED WITH A
 28103					;FLOATING 1, THE FINAL RESULT IN AC3 SHOULD BE A FLOATING 1.
 28104					;IF C(AC3)=A FLOATING 1, THIS TEST PASSES.
 28105
 28106			001306		SN=SN+1
 28107			000040			ZZ=ZZ+ZZ
 28108						IFE	ZZ,<ZZ=1>
 28109	045505	476 00 0 00 000003 		SETOM	3		;PRELOAD AC3 WITH -1,,-1
 28110	045506	205 01 0 00 000040 		MOVSI	1,ZZ		;PRELOAD AC1 WITH FLOATING 1
 28111	045507	201 02 0 00 000001 		MOVEI	2,1		;SETUP INDEX REGISTER
 28112	045510	200 03 0 02 000000 		MOVE	3,(2)		;*FWT FROM INDEXED LOCATION
 28113	045511	312 03 0 00 070314 		CAME	3,[ZZ,,0]	;TEST INDEXING
 28114						STOP^
 28115	045512	254 04 0 00 045513 		HALT	.+1		;TEST FAILED IF PROGRAM HALTS HERE
 28116	045513	324 00 0 00 045514 		JUMPA	.+1		;IF TEST FAILS, CHANGE THIS INSTRUCTION (JUMPA .+1) TO
 28117									;JUMPA X (X IS THE ADDRESS OF THE FIRST INSTRUCTION
 28118									;IN THE SUBTEST) TO LOOP ON ERROR^
 28119
DFKAA PDP-10 KL10 BASIC INSTRUCTION DIAGNOSTIC (1) VER 0,2	MACRO %53B(1254)-4 11:50 11-Nov-24 Page 8-3
DFKAA4	MAC	13-Jan-89 10:22		TEST OF INDEX REGISTER ADDRESSING

 28120					;**********
 28121
 28122
 28123					;THIS TEST VERIFIES THAT INDEX REGISTER ADDRESSING FUNCTIONS CORRECTLY.
 28124					;IN THIS TEST, A MOVE INSTRUCTION USING INDEXING IS EXECUTED.  THE MOVE INSTRUCTION
 28125					;SHOULD PLACE THE CONTENTS OF THE LOCATION SPECIFIED BY INDEX REGISTER 2 INTO AC3.
 28126					;SINCE INDEX REGISTER 2 WAS PRELOADED WITH A 1 AND AC1 WAS PRELOADED WITH A
 28127					;FLOATING 1, THE FINAL RESULT IN AC3 SHOULD BE A FLOATING 1.
 28128					;IF C(AC3)=A FLOATING 1, THIS TEST PASSES.
 28129
 28130			001307		SN=SN+1
 28131			000100			ZZ=ZZ+ZZ
 28132						IFE	ZZ,<ZZ=1>
 28133	045514	476 00 0 00 000003 		SETOM	3		;PRELOAD AC3 WITH -1,,-1
 28134	045515	205 01 0 00 000100 		MOVSI	1,ZZ		;PRELOAD AC1 WITH FLOATING 1
 28135	045516	201 02 0 00 000001 		MOVEI	2,1		;SETUP INDEX REGISTER
 28136	045517	200 03 0 02 000000 		MOVE	3,(2)		;*FWT FROM INDEXED LOCATION
 28137	045520	312 03 0 00 070315 		CAME	3,[ZZ,,0]	;TEST INDEXING
 28138						STOP^
 28139	045521	254 04 0 00 045522 		HALT	.+1		;TEST FAILED IF PROGRAM HALTS HERE
 28140	045522	324 00 0 00 045523 		JUMPA	.+1		;IF TEST FAILS, CHANGE THIS INSTRUCTION (JUMPA .+1) TO
 28141									;JUMPA X (X IS THE ADDRESS OF THE FIRST INSTRUCTION
 28142									;IN THE SUBTEST) TO LOOP ON ERROR^
 28143
 28144					;**********
 28145
 28146
 28147					;THIS TEST VERIFIES THAT INDEX REGISTER ADDRESSING FUNCTIONS CORRECTLY.
 28148					;IN THIS TEST, A MOVE INSTRUCTION USING INDEXING IS EXECUTED.  THE MOVE INSTRUCTION
 28149					;SHOULD PLACE THE CONTENTS OF THE LOCATION SPECIFIED BY INDEX REGISTER 2 INTO AC3.
 28150					;SINCE INDEX REGISTER 2 WAS PRELOADED WITH A 1 AND AC1 WAS PRELOADED WITH A
 28151					;FLOATING 1, THE FINAL RESULT IN AC3 SHOULD BE A FLOATING 1.
 28152					;IF C(AC3)=A FLOATING 1, THIS TEST PASSES.
 28153
 28154			001310		SN=SN+1
 28155			000200			ZZ=ZZ+ZZ
 28156						IFE	ZZ,<ZZ=1>
 28157	045523	476 00 0 00 000003 		SETOM	3		;PRELOAD AC3 WITH -1,,-1
 28158	045524	205 01 0 00 000200 		MOVSI	1,ZZ		;PRELOAD AC1 WITH FLOATING 1
 28159	045525	201 02 0 00 000001 		MOVEI	2,1		;SETUP INDEX REGISTER
 28160	045526	200 03 0 02 000000 		MOVE	3,(2)		;*FWT FROM INDEXED LOCATION
 28161	045527	312 03 0 00 070316 		CAME	3,[ZZ,,0]	;TEST INDEXING
 28162						STOP^
 28163	045530	254 04 0 00 045531 		HALT	.+1		;TEST FAILED IF PROGRAM HALTS HERE
 28164	045531	324 00 0 00 045532 		JUMPA	.+1		;IF TEST FAILS, CHANGE THIS INSTRUCTION (JUMPA .+1) TO
 28165									;JUMPA X (X IS THE ADDRESS OF THE FIRST INSTRUCTION
 28166									;IN THE SUBTEST) TO LOOP ON ERROR^
 28167
 28168					;**********
 28169
 28170
 28171					;THIS TEST VERIFIES THAT INDEX REGISTER ADDRESSING FUNCTIONS CORRECTLY.
 28172					;IN THIS TEST, A MOVE INSTRUCTION USING INDEXING IS EXECUTED.  THE MOVE INSTRUCTION
 28173					;SHOULD PLACE THE CONTENTS OF THE LOCATION SPECIFIED BY INDEX REGISTER 2 INTO AC3.
 28174					;SINCE INDEX REGISTER 2 WAS PRELOADED WITH A 1 AND AC1 WAS PRELOADED WITH A
DFKAA PDP-10 KL10 BASIC INSTRUCTION DIAGNOSTIC (1) VER 0,2	MACRO %53B(1254)-4 11:50 11-Nov-24 Page 8-4
DFKAA4	MAC	13-Jan-89 10:22		TEST OF INDEX REGISTER ADDRESSING

 28175					;FLOATING 1, THE FINAL RESULT IN AC3 SHOULD BE A FLOATING 1.
 28176					;IF C(AC3)=A FLOATING 1, THIS TEST PASSES.
 28177
 28178			001311		SN=SN+1
 28179			000400			ZZ=ZZ+ZZ
 28180						IFE	ZZ,<ZZ=1>
 28181	045532	476 00 0 00 000003 		SETOM	3		;PRELOAD AC3 WITH -1,,-1
 28182	045533	205 01 0 00 000400 		MOVSI	1,ZZ		;PRELOAD AC1 WITH FLOATING 1
 28183	045534	201 02 0 00 000001 		MOVEI	2,1		;SETUP INDEX REGISTER
 28184	045535	200 03 0 02 000000 		MOVE	3,(2)		;*FWT FROM INDEXED LOCATION
 28185	045536	312 03 0 00 070264 		CAME	3,[ZZ,,0]	;TEST INDEXING
 28186						STOP^
 28187	045537	254 04 0 00 045540 		HALT	.+1		;TEST FAILED IF PROGRAM HALTS HERE
 28188	045540	324 00 0 00 045541 		JUMPA	.+1		;IF TEST FAILS, CHANGE THIS INSTRUCTION (JUMPA .+1) TO
 28189									;JUMPA X (X IS THE ADDRESS OF THE FIRST INSTRUCTION
 28190									;IN THE SUBTEST) TO LOOP ON ERROR^
 28191
 28192					;**********
 28193
 28194
 28195					;THIS TEST VERIFIES THAT INDEX REGISTER ADDRESSING FUNCTIONS CORRECTLY.
 28196					;IN THIS TEST, A MOVE INSTRUCTION USING INDEXING IS EXECUTED.  THE MOVE INSTRUCTION
 28197					;SHOULD PLACE THE CONTENTS OF THE LOCATION SPECIFIED BY INDEX REGISTER 2 INTO AC3.
 28198					;SINCE INDEX REGISTER 2 WAS PRELOADED WITH A 1 AND AC1 WAS PRELOADED WITH A
 28199					;FLOATING 1, THE FINAL RESULT IN AC3 SHOULD BE A FLOATING 1.
 28200					;IF C(AC3)=A FLOATING 1, THIS TEST PASSES.
 28201
 28202			001312		SN=SN+1
 28203			001000			ZZ=ZZ+ZZ
 28204						IFE	ZZ,<ZZ=1>
 28205	045541	476 00 0 00 000003 		SETOM	3		;PRELOAD AC3 WITH -1,,-1
 28206	045542	205 01 0 00 001000 		MOVSI	1,ZZ		;PRELOAD AC1 WITH FLOATING 1
 28207	045543	201 02 0 00 000001 		MOVEI	2,1		;SETUP INDEX REGISTER
 28208	045544	200 03 0 02 000000 		MOVE	3,(2)		;*FWT FROM INDEXED LOCATION
 28209	045545	312 03 0 00 070317 		CAME	3,[ZZ,,0]	;TEST INDEXING
 28210						STOP^
 28211	045546	254 04 0 00 045547 		HALT	.+1		;TEST FAILED IF PROGRAM HALTS HERE
 28212	045547	324 00 0 00 045550 		JUMPA	.+1		;IF TEST FAILS, CHANGE THIS INSTRUCTION (JUMPA .+1) TO
 28213									;JUMPA X (X IS THE ADDRESS OF THE FIRST INSTRUCTION
 28214									;IN THE SUBTEST) TO LOOP ON ERROR^
 28215
 28216					;**********
 28217
 28218
 28219					;THIS TEST VERIFIES THAT INDEX REGISTER ADDRESSING FUNCTIONS CORRECTLY.
 28220					;IN THIS TEST, A MOVE INSTRUCTION USING INDEXING IS EXECUTED.  THE MOVE INSTRUCTION
 28221					;SHOULD PLACE THE CONTENTS OF THE LOCATION SPECIFIED BY INDEX REGISTER 2 INTO AC3.
 28222					;SINCE INDEX REGISTER 2 WAS PRELOADED WITH A 1 AND AC1 WAS PRELOADED WITH A
 28223					;FLOATING 1, THE FINAL RESULT IN AC3 SHOULD BE A FLOATING 1.
 28224					;IF C(AC3)=A FLOATING 1, THIS TEST PASSES.
 28225
 28226			001313		SN=SN+1
 28227			002000			ZZ=ZZ+ZZ
 28228						IFE	ZZ,<ZZ=1>
 28229	045550	476 00 0 00 000003 		SETOM	3		;PRELOAD AC3 WITH -1,,-1
DFKAA PDP-10 KL10 BASIC INSTRUCTION DIAGNOSTIC (1) VER 0,2	MACRO %53B(1254)-4 11:50 11-Nov-24 Page 8-5
DFKAA4	MAC	13-Jan-89 10:22		TEST OF INDEX REGISTER ADDRESSING

 28230	045551	205 01 0 00 002000 		MOVSI	1,ZZ		;PRELOAD AC1 WITH FLOATING 1
 28231	045552	201 02 0 00 000001 		MOVEI	2,1		;SETUP INDEX REGISTER
 28232	045553	200 03 0 02 000000 		MOVE	3,(2)		;*FWT FROM INDEXED LOCATION
 28233	045554	312 03 0 00 070320 		CAME	3,[ZZ,,0]	;TEST INDEXING
 28234						STOP^
 28235	045555	254 04 0 00 045556 		HALT	.+1		;TEST FAILED IF PROGRAM HALTS HERE
 28236	045556	324 00 0 00 045557 		JUMPA	.+1		;IF TEST FAILS, CHANGE THIS INSTRUCTION (JUMPA .+1) TO
 28237									;JUMPA X (X IS THE ADDRESS OF THE FIRST INSTRUCTION
 28238									;IN THE SUBTEST) TO LOOP ON ERROR^
 28239
 28240					;**********
 28241
 28242
 28243					;THIS TEST VERIFIES THAT INDEX REGISTER ADDRESSING FUNCTIONS CORRECTLY.
 28244					;IN THIS TEST, A MOVE INSTRUCTION USING INDEXING IS EXECUTED.  THE MOVE INSTRUCTION
 28245					;SHOULD PLACE THE CONTENTS OF THE LOCATION SPECIFIED BY INDEX REGISTER 2 INTO AC3.
 28246					;SINCE INDEX REGISTER 2 WAS PRELOADED WITH A 1 AND AC1 WAS PRELOADED WITH A
 28247					;FLOATING 1, THE FINAL RESULT IN AC3 SHOULD BE A FLOATING 1.
 28248					;IF C(AC3)=A FLOATING 1, THIS TEST PASSES.
 28249
 28250			001314		SN=SN+1
 28251			004000			ZZ=ZZ+ZZ
 28252						IFE	ZZ,<ZZ=1>
 28253	045557	476 00 0 00 000003 		SETOM	3		;PRELOAD AC3 WITH -1,,-1
 28254	045560	205 01 0 00 004000 		MOVSI	1,ZZ		;PRELOAD AC1 WITH FLOATING 1
 28255	045561	201 02 0 00 000001 		MOVEI	2,1		;SETUP INDEX REGISTER
 28256	045562	200 03 0 02 000000 		MOVE	3,(2)		;*FWT FROM INDEXED LOCATION
 28257	045563	312 03 0 00 070321 		CAME	3,[ZZ,,0]	;TEST INDEXING
 28258						STOP^
 28259	045564	254 04 0 00 045565 		HALT	.+1		;TEST FAILED IF PROGRAM HALTS HERE
 28260	045565	324 00 0 00 045566 		JUMPA	.+1		;IF TEST FAILS, CHANGE THIS INSTRUCTION (JUMPA .+1) TO
 28261									;JUMPA X (X IS THE ADDRESS OF THE FIRST INSTRUCTION
 28262									;IN THE SUBTEST) TO LOOP ON ERROR^
 28263
 28264					;**********
 28265
 28266
 28267					;THIS TEST VERIFIES THAT INDEX REGISTER ADDRESSING FUNCTIONS CORRECTLY.
 28268					;IN THIS TEST, A MOVE INSTRUCTION USING INDEXING IS EXECUTED.  THE MOVE INSTRUCTION
 28269					;SHOULD PLACE THE CONTENTS OF THE LOCATION SPECIFIED BY INDEX REGISTER 2 INTO AC3.
 28270					;SINCE INDEX REGISTER 2 WAS PRELOADED WITH A 1 AND AC1 WAS PRELOADED WITH A
 28271					;FLOATING 1, THE FINAL RESULT IN AC3 SHOULD BE A FLOATING 1.
 28272					;IF C(AC3)=A FLOATING 1, THIS TEST PASSES.
 28273
 28274			001315		SN=SN+1
 28275			010000			ZZ=ZZ+ZZ
 28276						IFE	ZZ,<ZZ=1>
 28277	045566	476 00 0 00 000003 		SETOM	3		;PRELOAD AC3 WITH -1,,-1
 28278	045567	205 01 0 00 010000 		MOVSI	1,ZZ		;PRELOAD AC1 WITH FLOATING 1
 28279	045570	201 02 0 00 000001 		MOVEI	2,1		;SETUP INDEX REGISTER
 28280	045571	200 03 0 02 000000 		MOVE	3,(2)		;*FWT FROM INDEXED LOCATION
 28281	045572	312 03 0 00 070322 		CAME	3,[ZZ,,0]	;TEST INDEXING
 28282						STOP^
 28283	045573	254 04 0 00 045574 		HALT	.+1		;TEST FAILED IF PROGRAM HALTS HERE
 28284	045574	324 00 0 00 045575 		JUMPA	.+1		;IF TEST FAILS, CHANGE THIS INSTRUCTION (JUMPA .+1) TO
DFKAA PDP-10 KL10 BASIC INSTRUCTION DIAGNOSTIC (1) VER 0,2	MACRO %53B(1254)-4 11:50 11-Nov-24 Page 8-6
DFKAA4	MAC	13-Jan-89 10:22		TEST OF INDEX REGISTER ADDRESSING

 28285									;JUMPA X (X IS THE ADDRESS OF THE FIRST INSTRUCTION
 28286									;IN THE SUBTEST) TO LOOP ON ERROR^
 28287
 28288					;**********
 28289
 28290
 28291					;THIS TEST VERIFIES THAT INDEX REGISTER ADDRESSING FUNCTIONS CORRECTLY.
 28292					;IN THIS TEST, A MOVE INSTRUCTION USING INDEXING IS EXECUTED.  THE MOVE INSTRUCTION
 28293					;SHOULD PLACE THE CONTENTS OF THE LOCATION SPECIFIED BY INDEX REGISTER 2 INTO AC3.
 28294					;SINCE INDEX REGISTER 2 WAS PRELOADED WITH A 1 AND AC1 WAS PRELOADED WITH A
 28295					;FLOATING 1, THE FINAL RESULT IN AC3 SHOULD BE A FLOATING 1.
 28296					;IF C(AC3)=A FLOATING 1, THIS TEST PASSES.
 28297
 28298			001316		SN=SN+1
 28299			020000			ZZ=ZZ+ZZ
 28300						IFE	ZZ,<ZZ=1>
 28301	045575	476 00 0 00 000003 		SETOM	3		;PRELOAD AC3 WITH -1,,-1
 28302	045576	205 01 0 00 020000 		MOVSI	1,ZZ		;PRELOAD AC1 WITH FLOATING 1
 28303	045577	201 02 0 00 000001 		MOVEI	2,1		;SETUP INDEX REGISTER
 28304	045600	200 03 0 02 000000 		MOVE	3,(2)		;*FWT FROM INDEXED LOCATION
 28305	045601	312 03 0 00 070323 		CAME	3,[ZZ,,0]	;TEST INDEXING
 28306						STOP^
 28307	045602	254 04 0 00 045603 		HALT	.+1		;TEST FAILED IF PROGRAM HALTS HERE
 28308	045603	324 00 0 00 045604 		JUMPA	.+1		;IF TEST FAILS, CHANGE THIS INSTRUCTION (JUMPA .+1) TO
 28309									;JUMPA X (X IS THE ADDRESS OF THE FIRST INSTRUCTION
 28310									;IN THE SUBTEST) TO LOOP ON ERROR^
 28311
 28312					;**********
 28313
 28314
 28315					;THIS TEST VERIFIES THAT INDEX REGISTER ADDRESSING FUNCTIONS CORRECTLY.
 28316					;IN THIS TEST, A MOVE INSTRUCTION USING INDEXING IS EXECUTED.  THE MOVE INSTRUCTION
 28317					;SHOULD PLACE THE CONTENTS OF THE LOCATION SPECIFIED BY INDEX REGISTER 2 INTO AC3.
 28318					;SINCE INDEX REGISTER 2 WAS PRELOADED WITH A 1 AND AC1 WAS PRELOADED WITH A
 28319					;FLOATING 1, THE FINAL RESULT IN AC3 SHOULD BE A FLOATING 1.
 28320					;IF C(AC3)=A FLOATING 1, THIS TEST PASSES.
 28321
 28322			001317		SN=SN+1
 28323			040000			ZZ=ZZ+ZZ
 28324						IFE	ZZ,<ZZ=1>
 28325	045604	476 00 0 00 000003 		SETOM	3		;PRELOAD AC3 WITH -1,,-1
 28326	045605	205 01 0 00 040000 		MOVSI	1,ZZ		;PRELOAD AC1 WITH FLOATING 1
 28327	045606	201 02 0 00 000001 		MOVEI	2,1		;SETUP INDEX REGISTER
 28328	045607	200 03 0 02 000000 		MOVE	3,(2)		;*FWT FROM INDEXED LOCATION
 28329	045610	312 03 0 00 070324 		CAME	3,[ZZ,,0]	;TEST INDEXING
 28330						STOP^
 28331	045611	254 04 0 00 045612 		HALT	.+1		;TEST FAILED IF PROGRAM HALTS HERE
 28332	045612	324 00 0 00 045613 		JUMPA	.+1		;IF TEST FAILS, CHANGE THIS INSTRUCTION (JUMPA .+1) TO
 28333									;JUMPA X (X IS THE ADDRESS OF THE FIRST INSTRUCTION
 28334									;IN THE SUBTEST) TO LOOP ON ERROR^
 28335
 28336					;**********
 28337
 28338
 28339					;THIS TEST VERIFIES THAT INDEX REGISTER ADDRESSING FUNCTIONS CORRECTLY.
DFKAA PDP-10 KL10 BASIC INSTRUCTION DIAGNOSTIC (1) VER 0,2	MACRO %53B(1254)-4 11:50 11-Nov-24 Page 8-7
DFKAA4	MAC	13-Jan-89 10:22		TEST OF INDEX REGISTER ADDRESSING

 28340					;IN THIS TEST, A MOVE INSTRUCTION USING INDEXING IS EXECUTED.  THE MOVE INSTRUCTION
 28341					;SHOULD PLACE THE CONTENTS OF THE LOCATION SPECIFIED BY INDEX REGISTER 2 INTO AC3.
 28342					;SINCE INDEX REGISTER 2 WAS PRELOADED WITH A 1 AND AC1 WAS PRELOADED WITH A
 28343					;FLOATING 1, THE FINAL RESULT IN AC3 SHOULD BE A FLOATING 1.
 28344					;IF C(AC3)=A FLOATING 1, THIS TEST PASSES.
 28345
 28346			001320		SN=SN+1
 28347			100000			ZZ=ZZ+ZZ
 28348						IFE	ZZ,<ZZ=1>
 28349	045613	476 00 0 00 000003 		SETOM	3		;PRELOAD AC3 WITH -1,,-1
 28350	045614	205 01 0 00 100000 		MOVSI	1,ZZ		;PRELOAD AC1 WITH FLOATING 1
 28351	045615	201 02 0 00 000001 		MOVEI	2,1		;SETUP INDEX REGISTER
 28352	045616	200 03 0 02 000000 		MOVE	3,(2)		;*FWT FROM INDEXED LOCATION
 28353	045617	312 03 0 00 070325 		CAME	3,[ZZ,,0]	;TEST INDEXING
 28354						STOP^
 28355	045620	254 04 0 00 045621 		HALT	.+1		;TEST FAILED IF PROGRAM HALTS HERE
 28356	045621	324 00 0 00 045622 		JUMPA	.+1		;IF TEST FAILS, CHANGE THIS INSTRUCTION (JUMPA .+1) TO
 28357									;JUMPA X (X IS THE ADDRESS OF THE FIRST INSTRUCTION
 28358									;IN THE SUBTEST) TO LOOP ON ERROR^
 28359
 28360					;**********
 28361
 28362
 28363					;THIS TEST VERIFIES THAT INDEX REGISTER ADDRESSING FUNCTIONS CORRECTLY.
 28364					;IN THIS TEST, A MOVE INSTRUCTION USING INDEXING IS EXECUTED.  THE MOVE INSTRUCTION
 28365					;SHOULD PLACE THE CONTENTS OF THE LOCATION SPECIFIED BY INDEX REGISTER 2 INTO AC3.
 28366					;SINCE INDEX REGISTER 2 WAS PRELOADED WITH A 1 AND AC1 WAS PRELOADED WITH A
 28367					;FLOATING 1, THE FINAL RESULT IN AC3 SHOULD BE A FLOATING 1.
 28368					;IF C(AC3)=A FLOATING 1, THIS TEST PASSES.
 28369
 28370			001321		SN=SN+1
 28371			200000			ZZ=ZZ+ZZ
 28372						IFE	ZZ,<ZZ=1>
 28373	045622	476 00 0 00 000003 		SETOM	3		;PRELOAD AC3 WITH -1,,-1
 28374	045623	205 01 0 00 200000 		MOVSI	1,ZZ		;PRELOAD AC1 WITH FLOATING 1
 28375	045624	201 02 0 00 000001 		MOVEI	2,1		;SETUP INDEX REGISTER
 28376	045625	200 03 0 02 000000 		MOVE	3,(2)		;*FWT FROM INDEXED LOCATION
 28377	045626	312 03 0 00 070326 		CAME	3,[ZZ,,0]	;TEST INDEXING
 28378						STOP^
 28379	045627	254 04 0 00 045630 		HALT	.+1		;TEST FAILED IF PROGRAM HALTS HERE
 28380	045630	324 00 0 00 045631 		JUMPA	.+1		;IF TEST FAILS, CHANGE THIS INSTRUCTION (JUMPA .+1) TO
 28381									;JUMPA X (X IS THE ADDRESS OF THE FIRST INSTRUCTION
 28382									;IN THE SUBTEST) TO LOOP ON ERROR^
 28383
 28384					;**********
 28385
 28386
 28387					;THIS TEST VERIFIES THAT INDEX REGISTER ADDRESSING FUNCTIONS CORRECTLY.
 28388					;IN THIS TEST, A MOVE INSTRUCTION USING INDEXING IS EXECUTED.  THE MOVE INSTRUCTION
 28389					;SHOULD PLACE THE CONTENTS OF THE LOCATION SPECIFIED BY INDEX REGISTER 2 INTO AC3.
 28390					;SINCE INDEX REGISTER 2 WAS PRELOADED WITH A 1 AND AC1 WAS PRELOADED WITH A
 28391					;FLOATING 1, THE FINAL RESULT IN AC3 SHOULD BE A FLOATING 1.
 28392					;IF C(AC3)=A FLOATING 1, THIS TEST PASSES.
 28393
 28394			001322		SN=SN+1
DFKAA PDP-10 KL10 BASIC INSTRUCTION DIAGNOSTIC (1) VER 0,2	MACRO %53B(1254)-4 11:50 11-Nov-24 Page 8-8
DFKAA4	MAC	13-Jan-89 10:22		TEST OF INDEX REGISTER ADDRESSING

 28395			400000			ZZ=ZZ+ZZ
 28396						IFE	ZZ,<ZZ=1>
 28397	045631	476 00 0 00 000003 		SETOM	3		;PRELOAD AC3 WITH -1,,-1
 28398	045632	205 01 0 00 400000 		MOVSI	1,ZZ		;PRELOAD AC1 WITH FLOATING 1
 28399	045633	201 02 0 00 000001 		MOVEI	2,1		;SETUP INDEX REGISTER
 28400	045634	200 03 0 02 000000 		MOVE	3,(2)		;*FWT FROM INDEXED LOCATION
 28401	045635	312 03 0 00 070256 		CAME	3,[ZZ,,0]	;TEST INDEXING
 28402						STOP^
 28403	045636	254 04 0 00 045637 		HALT	.+1		;TEST FAILED IF PROGRAM HALTS HERE
 28404	045637	324 00 0 00 045640 		JUMPA	.+1		;IF TEST FAILS, CHANGE THIS INSTRUCTION (JUMPA .+1) TO
 28405									;JUMPA X (X IS THE ADDRESS OF THE FIRST INSTRUCTION
 28406									;IN THE SUBTEST) TO LOOP ON ERROR^
 28407
 28408					;**********
 28409
DFKAA PDP-10 KL10 BASIC INSTRUCTION DIAGNOSTIC (1) VER 0,2	MACRO %53B(1254)-4 11:50 11-Nov-24 Page 9
DFKAA4	MAC	13-Jan-89 10:22		TEST OF INDEX REGISTER ADDRESSING

 28410					;THIS TEST VERIFIES THAT INDEX REGISTER ADDRESSING FUNCTIONS CORRECTLY.
 28411					;IN THIS TEST, A MOVE INSTRUCTION USING INDEXING IS EXECUTED.  THE MOVE INSTRUCTION
 28412					;SHOULD PLACE THE CONTENTS OF THE LOCATION SPECIFIED BY INDEX REGISTER 2 INTO AC3.
 28413					;SINCE INDEX REGISTER 2 WAS PRELOADED WITH A 1 AND AC1 WAS PRELOADED WITH -1,,-1,
 28414					;THE FINAL RESULT IN AC3 SHOULD BE -1,,-1.  IF C(AC3)=-1,,-1, THIS TEST PASSES.
 28415
 28416	045640	402 00 0 00 000003 	C1400:	SETZM	3		;PRELOAD AC3 WITH 0
 28417	045641	476 00 0 00 000001 		SETOM	1		;PRELOAD AC1 WITH -1,,-1
 28418	045642	201 02 0 00 000001 		MOVEI	2,1		;SETUP INDEX REGISTER
 28419	045643	200 03 0 02 000000 		MOVE	3,(2)		;*FWT FROM INDEXED LOCATION
 28420	045644	312 03 0 00 070254 		CAME	3,[-1,,-1]	;TEST INDEXING
 28421						STOP^
 28422	045645	254 04 0 00 045646 		HALT	.+1		;TEST FAILED IF PROGRAM HALTS HERE
 28423	045646	324 00 0 00 045647 		JUMPA	.+1		;IF TEST FAILS, CHANGE THIS INSTRUCTION (JUMPA .+1) TO
 28424									;JUMPA X (X IS THE ADDRESS OF THE FIRST INSTRUCTION
 28425									;IN THE SUBTEST) TO LOOP ON ERROR^
 28426
 28427					;**********
 28428
 28429			001500		SN=1500
 28430			000000			ZZ=0
 28431
 28432					C1500:	REPEAT	^D18,<
 28433					;THIS TEST VERIFIES THAT INDEX REGISTER ADDRESSING FUNCTIONS CORRECTLY.
 28434					;IN THIS TEST, A MOVE INSTRUCTION USING INDEXING IS EXECUTED.  THE MOVE INSTRUCTION
 28435					;SHOULD PLACE THE CONTENTS OF THE LOCATION SPECIFIED BY INDEX REGISTER 2 INTO AC3.
 28436					;SINCE INDEX REGISTER 2 WAS PRELOADED WITH A 1 AND AC1 WAS PRELOADED WITH A
 28437					;FLOATING 0, THE FINAL RESULT IN AC3 SHOULD BE A FLOATING 0.
 28438					;IF C(AC3)=A FLOATING 0, THIS TEST PASSES.
 28439
 28440					SN=SN+1
 28441						ZZ=<ZZ+ZZ+1>&777777
 28442						IFE	<ZZ-1>,<ZZ=777776>
 28443						SETZM	3		;PRELOAD AC3 WITH 0
 28444						HRROI	1,ZZ		;PRELOAD AC1 WITH FLOATING 0
 28445						MOVEI	2,1		;SETUP INDEX REGISTER
 28446						MOVE	3,(2)		;*FWT FROM INDEXED LOCATION
 28447						CAME	3,[-1,,ZZ]	;TEST INDEXING
 28448						STOP
 28449
 28450					;**********
 28451					>
 28452
 28453					;THIS TEST VERIFIES THAT INDEX REGISTER ADDRESSING FUNCTIONS CORRECTLY.
 28454					;IN THIS TEST, A MOVE INSTRUCTION USING INDEXING IS EXECUTED.  THE MOVE INSTRUCTION
 28455					;SHOULD PLACE THE CONTENTS OF THE LOCATION SPECIFIED BY INDEX REGISTER 2 INTO AC3.
 28456					;SINCE INDEX REGISTER 2 WAS PRELOADED WITH A 1 AND AC1 WAS PRELOADED WITH A
 28457					;FLOATING 0, THE FINAL RESULT IN AC3 SHOULD BE A FLOATING 0.
 28458					;IF C(AC3)=A FLOATING 0, THIS TEST PASSES.
 28459
 28460			001501		SN=SN+1
 28461			000001			ZZ=<ZZ+ZZ+1>&777777
 28462			777776			IFE	<ZZ-1>,<ZZ=777776>
 28463	045647	402 00 0 00 000003 		SETZM	3		;PRELOAD AC3 WITH 0
 28464	045650	561 01 0 00 777776 		HRROI	1,ZZ		;PRELOAD AC1 WITH FLOATING 0
DFKAA PDP-10 KL10 BASIC INSTRUCTION DIAGNOSTIC (1) VER 0,2	MACRO %53B(1254)-4 11:50 11-Nov-24 Page 9-1
DFKAA4	MAC	13-Jan-89 10:22		TEST OF INDEX REGISTER ADDRESSING

 28465	045651	201 02 0 00 000001 		MOVEI	2,1		;SETUP INDEX REGISTER
 28466	045652	200 03 0 02 000000 		MOVE	3,(2)		;*FWT FROM INDEXED LOCATION
 28467	045653	312 03 0 00 070333 		CAME	3,[-1,,ZZ]	;TEST INDEXING
 28468						STOP^
 28469	045654	254 04 0 00 045655 		HALT	.+1		;TEST FAILED IF PROGRAM HALTS HERE
 28470	045655	324 00 0 00 045656 		JUMPA	.+1		;IF TEST FAILS, CHANGE THIS INSTRUCTION (JUMPA .+1) TO
 28471									;JUMPA X (X IS THE ADDRESS OF THE FIRST INSTRUCTION
 28472									;IN THE SUBTEST) TO LOOP ON ERROR^
 28473
 28474					;**********
 28475
 28476
 28477					;THIS TEST VERIFIES THAT INDEX REGISTER ADDRESSING FUNCTIONS CORRECTLY.
 28478					;IN THIS TEST, A MOVE INSTRUCTION USING INDEXING IS EXECUTED.  THE MOVE INSTRUCTION
 28479					;SHOULD PLACE THE CONTENTS OF THE LOCATION SPECIFIED BY INDEX REGISTER 2 INTO AC3.
 28480					;SINCE INDEX REGISTER 2 WAS PRELOADED WITH A 1 AND AC1 WAS PRELOADED WITH A
 28481					;FLOATING 0, THE FINAL RESULT IN AC3 SHOULD BE A FLOATING 0.
 28482					;IF C(AC3)=A FLOATING 0, THIS TEST PASSES.
 28483
 28484			001502		SN=SN+1
 28485			777775			ZZ=<ZZ+ZZ+1>&777777
 28486						IFE	<ZZ-1>,<ZZ=777776>
 28487	045656	402 00 0 00 000003 		SETZM	3		;PRELOAD AC3 WITH 0
 28488	045657	561 01 0 00 777775 		HRROI	1,ZZ		;PRELOAD AC1 WITH FLOATING 0
 28489	045660	201 02 0 00 000001 		MOVEI	2,1		;SETUP INDEX REGISTER
 28490	045661	200 03 0 02 000000 		MOVE	3,(2)		;*FWT FROM INDEXED LOCATION
 28491	045662	312 03 0 00 070334 		CAME	3,[-1,,ZZ]	;TEST INDEXING
 28492						STOP^
 28493	045663	254 04 0 00 045664 		HALT	.+1		;TEST FAILED IF PROGRAM HALTS HERE
 28494	045664	324 00 0 00 045665 		JUMPA	.+1		;IF TEST FAILS, CHANGE THIS INSTRUCTION (JUMPA .+1) TO
 28495									;JUMPA X (X IS THE ADDRESS OF THE FIRST INSTRUCTION
 28496									;IN THE SUBTEST) TO LOOP ON ERROR^
 28497
 28498					;**********
 28499
 28500
 28501					;THIS TEST VERIFIES THAT INDEX REGISTER ADDRESSING FUNCTIONS CORRECTLY.
 28502					;IN THIS TEST, A MOVE INSTRUCTION USING INDEXING IS EXECUTED.  THE MOVE INSTRUCTION
 28503					;SHOULD PLACE THE CONTENTS OF THE LOCATION SPECIFIED BY INDEX REGISTER 2 INTO AC3.
 28504					;SINCE INDEX REGISTER 2 WAS PRELOADED WITH A 1 AND AC1 WAS PRELOADED WITH A
 28505					;FLOATING 0, THE FINAL RESULT IN AC3 SHOULD BE A FLOATING 0.
 28506					;IF C(AC3)=A FLOATING 0, THIS TEST PASSES.
 28507
 28508			001503		SN=SN+1
 28509			777773			ZZ=<ZZ+ZZ+1>&777777
 28510						IFE	<ZZ-1>,<ZZ=777776>
 28511	045665	402 00 0 00 000003 		SETZM	3		;PRELOAD AC3 WITH 0
 28512	045666	561 01 0 00 777773 		HRROI	1,ZZ		;PRELOAD AC1 WITH FLOATING 0
 28513	045667	201 02 0 00 000001 		MOVEI	2,1		;SETUP INDEX REGISTER
 28514	045670	200 03 0 02 000000 		MOVE	3,(2)		;*FWT FROM INDEXED LOCATION
 28515	045671	312 03 0 00 070335 		CAME	3,[-1,,ZZ]	;TEST INDEXING
 28516						STOP^
 28517	045672	254 04 0 00 045673 		HALT	.+1		;TEST FAILED IF PROGRAM HALTS HERE
 28518	045673	324 00 0 00 045674 		JUMPA	.+1		;IF TEST FAILS, CHANGE THIS INSTRUCTION (JUMPA .+1) TO
 28519									;JUMPA X (X IS THE ADDRESS OF THE FIRST INSTRUCTION
DFKAA PDP-10 KL10 BASIC INSTRUCTION DIAGNOSTIC (1) VER 0,2	MACRO %53B(1254)-4 11:50 11-Nov-24 Page 9-2
DFKAA4	MAC	13-Jan-89 10:22		TEST OF INDEX REGISTER ADDRESSING

 28520									;IN THE SUBTEST) TO LOOP ON ERROR^
 28521
 28522					;**********
 28523
 28524
 28525					;THIS TEST VERIFIES THAT INDEX REGISTER ADDRESSING FUNCTIONS CORRECTLY.
 28526					;IN THIS TEST, A MOVE INSTRUCTION USING INDEXING IS EXECUTED.  THE MOVE INSTRUCTION
 28527					;SHOULD PLACE THE CONTENTS OF THE LOCATION SPECIFIED BY INDEX REGISTER 2 INTO AC3.
 28528					;SINCE INDEX REGISTER 2 WAS PRELOADED WITH A 1 AND AC1 WAS PRELOADED WITH A
 28529					;FLOATING 0, THE FINAL RESULT IN AC3 SHOULD BE A FLOATING 0.
 28530					;IF C(AC3)=A FLOATING 0, THIS TEST PASSES.
 28531
 28532			001504		SN=SN+1
 28533			777767			ZZ=<ZZ+ZZ+1>&777777
 28534						IFE	<ZZ-1>,<ZZ=777776>
 28535	045674	402 00 0 00 000003 		SETZM	3		;PRELOAD AC3 WITH 0
 28536	045675	561 01 0 00 777767 		HRROI	1,ZZ		;PRELOAD AC1 WITH FLOATING 0
 28537	045676	201 02 0 00 000001 		MOVEI	2,1		;SETUP INDEX REGISTER
 28538	045677	200 03 0 02 000000 		MOVE	3,(2)		;*FWT FROM INDEXED LOCATION
 28539	045700	312 03 0 00 070336 		CAME	3,[-1,,ZZ]	;TEST INDEXING
 28540						STOP^
 28541	045701	254 04 0 00 045702 		HALT	.+1		;TEST FAILED IF PROGRAM HALTS HERE
 28542	045702	324 00 0 00 045703 		JUMPA	.+1		;IF TEST FAILS, CHANGE THIS INSTRUCTION (JUMPA .+1) TO
 28543									;JUMPA X (X IS THE ADDRESS OF THE FIRST INSTRUCTION
 28544									;IN THE SUBTEST) TO LOOP ON ERROR^
 28545
 28546					;**********
 28547
 28548
 28549					;THIS TEST VERIFIES THAT INDEX REGISTER ADDRESSING FUNCTIONS CORRECTLY.
 28550					;IN THIS TEST, A MOVE INSTRUCTION USING INDEXING IS EXECUTED.  THE MOVE INSTRUCTION
 28551					;SHOULD PLACE THE CONTENTS OF THE LOCATION SPECIFIED BY INDEX REGISTER 2 INTO AC3.
 28552					;SINCE INDEX REGISTER 2 WAS PRELOADED WITH A 1 AND AC1 WAS PRELOADED WITH A
 28553					;FLOATING 0, THE FINAL RESULT IN AC3 SHOULD BE A FLOATING 0.
 28554					;IF C(AC3)=A FLOATING 0, THIS TEST PASSES.
 28555
 28556			001505		SN=SN+1
 28557			777757			ZZ=<ZZ+ZZ+1>&777777
 28558						IFE	<ZZ-1>,<ZZ=777776>
 28559	045703	402 00 0 00 000003 		SETZM	3		;PRELOAD AC3 WITH 0
 28560	045704	561 01 0 00 777757 		HRROI	1,ZZ		;PRELOAD AC1 WITH FLOATING 0
 28561	045705	201 02 0 00 000001 		MOVEI	2,1		;SETUP INDEX REGISTER
 28562	045706	200 03 0 02 000000 		MOVE	3,(2)		;*FWT FROM INDEXED LOCATION
 28563	045707	312 03 0 00 070337 		CAME	3,[-1,,ZZ]	;TEST INDEXING
 28564						STOP^
 28565	045710	254 04 0 00 045711 		HALT	.+1		;TEST FAILED IF PROGRAM HALTS HERE
 28566	045711	324 00 0 00 045712 		JUMPA	.+1		;IF TEST FAILS, CHANGE THIS INSTRUCTION (JUMPA .+1) TO
 28567									;JUMPA X (X IS THE ADDRESS OF THE FIRST INSTRUCTION
 28568									;IN THE SUBTEST) TO LOOP ON ERROR^
 28569
 28570					;**********
 28571
 28572
 28573					;THIS TEST VERIFIES THAT INDEX REGISTER ADDRESSING FUNCTIONS CORRECTLY.
 28574					;IN THIS TEST, A MOVE INSTRUCTION USING INDEXING IS EXECUTED.  THE MOVE INSTRUCTION
DFKAA PDP-10 KL10 BASIC INSTRUCTION DIAGNOSTIC (1) VER 0,2	MACRO %53B(1254)-4 11:50 11-Nov-24 Page 9-3
DFKAA4	MAC	13-Jan-89 10:22		TEST OF INDEX REGISTER ADDRESSING

 28575					;SHOULD PLACE THE CONTENTS OF THE LOCATION SPECIFIED BY INDEX REGISTER 2 INTO AC3.
 28576					;SINCE INDEX REGISTER 2 WAS PRELOADED WITH A 1 AND AC1 WAS PRELOADED WITH A
 28577					;FLOATING 0, THE FINAL RESULT IN AC3 SHOULD BE A FLOATING 0.
 28578					;IF C(AC3)=A FLOATING 0, THIS TEST PASSES.
 28579
 28580			001506		SN=SN+1
 28581			777737			ZZ=<ZZ+ZZ+1>&777777
 28582						IFE	<ZZ-1>,<ZZ=777776>
 28583	045712	402 00 0 00 000003 		SETZM	3		;PRELOAD AC3 WITH 0
 28584	045713	561 01 0 00 777737 		HRROI	1,ZZ		;PRELOAD AC1 WITH FLOATING 0
 28585	045714	201 02 0 00 000001 		MOVEI	2,1		;SETUP INDEX REGISTER
 28586	045715	200 03 0 02 000000 		MOVE	3,(2)		;*FWT FROM INDEXED LOCATION
 28587	045716	312 03 0 00 070340 		CAME	3,[-1,,ZZ]	;TEST INDEXING
 28588						STOP^
 28589	045717	254 04 0 00 045720 		HALT	.+1		;TEST FAILED IF PROGRAM HALTS HERE
 28590	045720	324 00 0 00 045721 		JUMPA	.+1		;IF TEST FAILS, CHANGE THIS INSTRUCTION (JUMPA .+1) TO
 28591									;JUMPA X (X IS THE ADDRESS OF THE FIRST INSTRUCTION
 28592									;IN THE SUBTEST) TO LOOP ON ERROR^
 28593
 28594					;**********
 28595
 28596
 28597					;THIS TEST VERIFIES THAT INDEX REGISTER ADDRESSING FUNCTIONS CORRECTLY.
 28598					;IN THIS TEST, A MOVE INSTRUCTION USING INDEXING IS EXECUTED.  THE MOVE INSTRUCTION
 28599					;SHOULD PLACE THE CONTENTS OF THE LOCATION SPECIFIED BY INDEX REGISTER 2 INTO AC3.
 28600					;SINCE INDEX REGISTER 2 WAS PRELOADED WITH A 1 AND AC1 WAS PRELOADED WITH A
 28601					;FLOATING 0, THE FINAL RESULT IN AC3 SHOULD BE A FLOATING 0.
 28602					;IF C(AC3)=A FLOATING 0, THIS TEST PASSES.
 28603
 28604			001507		SN=SN+1
 28605			777677			ZZ=<ZZ+ZZ+1>&777777
 28606						IFE	<ZZ-1>,<ZZ=777776>
 28607	045721	402 00 0 00 000003 		SETZM	3		;PRELOAD AC3 WITH 0
 28608	045722	561 01 0 00 777677 		HRROI	1,ZZ		;PRELOAD AC1 WITH FLOATING 0
 28609	045723	201 02 0 00 000001 		MOVEI	2,1		;SETUP INDEX REGISTER
 28610	045724	200 03 0 02 000000 		MOVE	3,(2)		;*FWT FROM INDEXED LOCATION
 28611	045725	312 03 0 00 070341 		CAME	3,[-1,,ZZ]	;TEST INDEXING
 28612						STOP^
 28613	045726	254 04 0 00 045727 		HALT	.+1		;TEST FAILED IF PROGRAM HALTS HERE
 28614	045727	324 00 0 00 045730 		JUMPA	.+1		;IF TEST FAILS, CHANGE THIS INSTRUCTION (JUMPA .+1) TO
 28615									;JUMPA X (X IS THE ADDRESS OF THE FIRST INSTRUCTION
 28616									;IN THE SUBTEST) TO LOOP ON ERROR^
 28617
 28618					;**********
 28619
 28620
 28621					;THIS TEST VERIFIES THAT INDEX REGISTER ADDRESSING FUNCTIONS CORRECTLY.
 28622					;IN THIS TEST, A MOVE INSTRUCTION USING INDEXING IS EXECUTED.  THE MOVE INSTRUCTION
 28623					;SHOULD PLACE THE CONTENTS OF THE LOCATION SPECIFIED BY INDEX REGISTER 2 INTO AC3.
 28624					;SINCE INDEX REGISTER 2 WAS PRELOADED WITH A 1 AND AC1 WAS PRELOADED WITH A
 28625					;FLOATING 0, THE FINAL RESULT IN AC3 SHOULD BE A FLOATING 0.
 28626					;IF C(AC3)=A FLOATING 0, THIS TEST PASSES.
 28627
 28628			001510		SN=SN+1
 28629			777577			ZZ=<ZZ+ZZ+1>&777777
DFKAA PDP-10 KL10 BASIC INSTRUCTION DIAGNOSTIC (1) VER 0,2	MACRO %53B(1254)-4 11:50 11-Nov-24 Page 9-4
DFKAA4	MAC	13-Jan-89 10:22		TEST OF INDEX REGISTER ADDRESSING

 28630						IFE	<ZZ-1>,<ZZ=777776>
 28631	045730	402 00 0 00 000003 		SETZM	3		;PRELOAD AC3 WITH 0
 28632	045731	561 01 0 00 777577 		HRROI	1,ZZ		;PRELOAD AC1 WITH FLOATING 0
 28633	045732	201 02 0 00 000001 		MOVEI	2,1		;SETUP INDEX REGISTER
 28634	045733	200 03 0 02 000000 		MOVE	3,(2)		;*FWT FROM INDEXED LOCATION
 28635	045734	312 03 0 00 070342 		CAME	3,[-1,,ZZ]	;TEST INDEXING
 28636						STOP^
 28637	045735	254 04 0 00 045736 		HALT	.+1		;TEST FAILED IF PROGRAM HALTS HERE
 28638	045736	324 00 0 00 045737 		JUMPA	.+1		;IF TEST FAILS, CHANGE THIS INSTRUCTION (JUMPA .+1) TO
 28639									;JUMPA X (X IS THE ADDRESS OF THE FIRST INSTRUCTION
 28640									;IN THE SUBTEST) TO LOOP ON ERROR^
 28641
 28642					;**********
 28643
 28644
 28645					;THIS TEST VERIFIES THAT INDEX REGISTER ADDRESSING FUNCTIONS CORRECTLY.
 28646					;IN THIS TEST, A MOVE INSTRUCTION USING INDEXING IS EXECUTED.  THE MOVE INSTRUCTION
 28647					;SHOULD PLACE THE CONTENTS OF THE LOCATION SPECIFIED BY INDEX REGISTER 2 INTO AC3.
 28648					;SINCE INDEX REGISTER 2 WAS PRELOADED WITH A 1 AND AC1 WAS PRELOADED WITH A
 28649					;FLOATING 0, THE FINAL RESULT IN AC3 SHOULD BE A FLOATING 0.
 28650					;IF C(AC3)=A FLOATING 0, THIS TEST PASSES.
 28651
 28652			001511		SN=SN+1
 28653			777377			ZZ=<ZZ+ZZ+1>&777777
 28654						IFE	<ZZ-1>,<ZZ=777776>
 28655	045737	402 00 0 00 000003 		SETZM	3		;PRELOAD AC3 WITH 0
 28656	045740	561 01 0 00 777377 		HRROI	1,ZZ		;PRELOAD AC1 WITH FLOATING 0
 28657	045741	201 02 0 00 000001 		MOVEI	2,1		;SETUP INDEX REGISTER
 28658	045742	200 03 0 02 000000 		MOVE	3,(2)		;*FWT FROM INDEXED LOCATION
 28659	045743	312 03 0 00 070343 		CAME	3,[-1,,ZZ]	;TEST INDEXING
 28660						STOP^
 28661	045744	254 04 0 00 045745 		HALT	.+1		;TEST FAILED IF PROGRAM HALTS HERE
 28662	045745	324 00 0 00 045746 		JUMPA	.+1		;IF TEST FAILS, CHANGE THIS INSTRUCTION (JUMPA .+1) TO
 28663									;JUMPA X (X IS THE ADDRESS OF THE FIRST INSTRUCTION
 28664									;IN THE SUBTEST) TO LOOP ON ERROR^
 28665
 28666					;**********
 28667
 28668
 28669					;THIS TEST VERIFIES THAT INDEX REGISTER ADDRESSING FUNCTIONS CORRECTLY.
 28670					;IN THIS TEST, A MOVE INSTRUCTION USING INDEXING IS EXECUTED.  THE MOVE INSTRUCTION
 28671					;SHOULD PLACE THE CONTENTS OF THE LOCATION SPECIFIED BY INDEX REGISTER 2 INTO AC3.
 28672					;SINCE INDEX REGISTER 2 WAS PRELOADED WITH A 1 AND AC1 WAS PRELOADED WITH A
 28673					;FLOATING 0, THE FINAL RESULT IN AC3 SHOULD BE A FLOATING 0.
 28674					;IF C(AC3)=A FLOATING 0, THIS TEST PASSES.
 28675
 28676			001512		SN=SN+1
 28677			776777			ZZ=<ZZ+ZZ+1>&777777
 28678						IFE	<ZZ-1>,<ZZ=777776>
 28679	045746	402 00 0 00 000003 		SETZM	3		;PRELOAD AC3 WITH 0
 28680	045747	561 01 0 00 776777 		HRROI	1,ZZ		;PRELOAD AC1 WITH FLOATING 0
 28681	045750	201 02 0 00 000001 		MOVEI	2,1		;SETUP INDEX REGISTER
 28682	045751	200 03 0 02 000000 		MOVE	3,(2)		;*FWT FROM INDEXED LOCATION
 28683	045752	312 03 0 00 070344 		CAME	3,[-1,,ZZ]	;TEST INDEXING
 28684						STOP^
DFKAA PDP-10 KL10 BASIC INSTRUCTION DIAGNOSTIC (1) VER 0,2	MACRO %53B(1254)-4 11:50 11-Nov-24 Page 9-5
DFKAA4	MAC	13-Jan-89 10:22		TEST OF INDEX REGISTER ADDRESSING

 28685	045753	254 04 0 00 045754 		HALT	.+1		;TEST FAILED IF PROGRAM HALTS HERE
 28686	045754	324 00 0 00 045755 		JUMPA	.+1		;IF TEST FAILS, CHANGE THIS INSTRUCTION (JUMPA .+1) TO
 28687									;JUMPA X (X IS THE ADDRESS OF THE FIRST INSTRUCTION
 28688									;IN THE SUBTEST) TO LOOP ON ERROR^
 28689
 28690					;**********
 28691
 28692
 28693					;THIS TEST VERIFIES THAT INDEX REGISTER ADDRESSING FUNCTIONS CORRECTLY.
 28694					;IN THIS TEST, A MOVE INSTRUCTION USING INDEXING IS EXECUTED.  THE MOVE INSTRUCTION
 28695					;SHOULD PLACE THE CONTENTS OF THE LOCATION SPECIFIED BY INDEX REGISTER 2 INTO AC3.
 28696					;SINCE INDEX REGISTER 2 WAS PRELOADED WITH A 1 AND AC1 WAS PRELOADED WITH A
 28697					;FLOATING 0, THE FINAL RESULT IN AC3 SHOULD BE A FLOATING 0.
 28698					;IF C(AC3)=A FLOATING 0, THIS TEST PASSES.
 28699
 28700			001513		SN=SN+1
 28701			775777			ZZ=<ZZ+ZZ+1>&777777
 28702						IFE	<ZZ-1>,<ZZ=777776>
 28703	045755	402 00 0 00 000003 		SETZM	3		;PRELOAD AC3 WITH 0
 28704	045756	561 01 0 00 775777 		HRROI	1,ZZ		;PRELOAD AC1 WITH FLOATING 0
 28705	045757	201 02 0 00 000001 		MOVEI	2,1		;SETUP INDEX REGISTER
 28706	045760	200 03 0 02 000000 		MOVE	3,(2)		;*FWT FROM INDEXED LOCATION
 28707	045761	312 03 0 00 070345 		CAME	3,[-1,,ZZ]	;TEST INDEXING
 28708						STOP^
 28709	045762	254 04 0 00 045763 		HALT	.+1		;TEST FAILED IF PROGRAM HALTS HERE
 28710	045763	324 00 0 00 045764 		JUMPA	.+1		;IF TEST FAILS, CHANGE THIS INSTRUCTION (JUMPA .+1) TO
 28711									;JUMPA X (X IS THE ADDRESS OF THE FIRST INSTRUCTION
 28712									;IN THE SUBTEST) TO LOOP ON ERROR^
 28713
 28714					;**********
 28715
 28716
 28717					;THIS TEST VERIFIES THAT INDEX REGISTER ADDRESSING FUNCTIONS CORRECTLY.
 28718					;IN THIS TEST, A MOVE INSTRUCTION USING INDEXING IS EXECUTED.  THE MOVE INSTRUCTION
 28719					;SHOULD PLACE THE CONTENTS OF THE LOCATION SPECIFIED BY INDEX REGISTER 2 INTO AC3.
 28720					;SINCE INDEX REGISTER 2 WAS PRELOADED WITH A 1 AND AC1 WAS PRELOADED WITH A
 28721					;FLOATING 0, THE FINAL RESULT IN AC3 SHOULD BE A FLOATING 0.
 28722					;IF C(AC3)=A FLOATING 0, THIS TEST PASSES.
 28723
 28724			001514		SN=SN+1
 28725			773777			ZZ=<ZZ+ZZ+1>&777777
 28726						IFE	<ZZ-1>,<ZZ=777776>
 28727	045764	402 00 0 00 000003 		SETZM	3		;PRELOAD AC3 WITH 0
 28728	045765	561 01 0 00 773777 		HRROI	1,ZZ		;PRELOAD AC1 WITH FLOATING 0
 28729	045766	201 02 0 00 000001 		MOVEI	2,1		;SETUP INDEX REGISTER
 28730	045767	200 03 0 02 000000 		MOVE	3,(2)		;*FWT FROM INDEXED LOCATION
 28731	045770	312 03 0 00 070346 		CAME	3,[-1,,ZZ]	;TEST INDEXING
 28732						STOP^
 28733	045771	254 04 0 00 045772 		HALT	.+1		;TEST FAILED IF PROGRAM HALTS HERE
 28734	045772	324 00 0 00 045773 		JUMPA	.+1		;IF TEST FAILS, CHANGE THIS INSTRUCTION (JUMPA .+1) TO
 28735									;JUMPA X (X IS THE ADDRESS OF THE FIRST INSTRUCTION
 28736									;IN THE SUBTEST) TO LOOP ON ERROR^
 28737
 28738					;**********
 28739
DFKAA PDP-10 KL10 BASIC INSTRUCTION DIAGNOSTIC (1) VER 0,2	MACRO %53B(1254)-4 11:50 11-Nov-24 Page 9-6
DFKAA4	MAC	13-Jan-89 10:22		TEST OF INDEX REGISTER ADDRESSING

 28740
 28741					;THIS TEST VERIFIES THAT INDEX REGISTER ADDRESSING FUNCTIONS CORRECTLY.
 28742					;IN THIS TEST, A MOVE INSTRUCTION USING INDEXING IS EXECUTED.  THE MOVE INSTRUCTION
 28743					;SHOULD PLACE THE CONTENTS OF THE LOCATION SPECIFIED BY INDEX REGISTER 2 INTO AC3.
 28744					;SINCE INDEX REGISTER 2 WAS PRELOADED WITH A 1 AND AC1 WAS PRELOADED WITH A
 28745					;FLOATING 0, THE FINAL RESULT IN AC3 SHOULD BE A FLOATING 0.
 28746					;IF C(AC3)=A FLOATING 0, THIS TEST PASSES.
 28747
 28748			001515		SN=SN+1
 28749			767777			ZZ=<ZZ+ZZ+1>&777777
 28750						IFE	<ZZ-1>,<ZZ=777776>
 28751	045773	402 00 0 00 000003 		SETZM	3		;PRELOAD AC3 WITH 0
 28752	045774	561 01 0 00 767777 		HRROI	1,ZZ		;PRELOAD AC1 WITH FLOATING 0
 28753	045775	201 02 0 00 000001 		MOVEI	2,1		;SETUP INDEX REGISTER
 28754	045776	200 03 0 02 000000 		MOVE	3,(2)		;*FWT FROM INDEXED LOCATION
 28755	045777	312 03 0 00 070347 		CAME	3,[-1,,ZZ]	;TEST INDEXING
 28756						STOP^
 28757	046000	254 04 0 00 046001 		HALT	.+1		;TEST FAILED IF PROGRAM HALTS HERE
 28758	046001	324 00 0 00 046002 		JUMPA	.+1		;IF TEST FAILS, CHANGE THIS INSTRUCTION (JUMPA .+1) TO
 28759									;JUMPA X (X IS THE ADDRESS OF THE FIRST INSTRUCTION
 28760									;IN THE SUBTEST) TO LOOP ON ERROR^
 28761
 28762					;**********
 28763
 28764
 28765					;THIS TEST VERIFIES THAT INDEX REGISTER ADDRESSING FUNCTIONS CORRECTLY.
 28766					;IN THIS TEST, A MOVE INSTRUCTION USING INDEXING IS EXECUTED.  THE MOVE INSTRUCTION
 28767					;SHOULD PLACE THE CONTENTS OF THE LOCATION SPECIFIED BY INDEX REGISTER 2 INTO AC3.
 28768					;SINCE INDEX REGISTER 2 WAS PRELOADED WITH A 1 AND AC1 WAS PRELOADED WITH A
 28769					;FLOATING 0, THE FINAL RESULT IN AC3 SHOULD BE A FLOATING 0.
 28770					;IF C(AC3)=A FLOATING 0, THIS TEST PASSES.
 28771
 28772			001516		SN=SN+1
 28773			757777			ZZ=<ZZ+ZZ+1>&777777
 28774						IFE	<ZZ-1>,<ZZ=777776>
 28775	046002	402 00 0 00 000003 		SETZM	3		;PRELOAD AC3 WITH 0
 28776	046003	561 01 0 00 757777 		HRROI	1,ZZ		;PRELOAD AC1 WITH FLOATING 0
 28777	046004	201 02 0 00 000001 		MOVEI	2,1		;SETUP INDEX REGISTER
 28778	046005	200 03 0 02 000000 		MOVE	3,(2)		;*FWT FROM INDEXED LOCATION
 28779	046006	312 03 0 00 070350 		CAME	3,[-1,,ZZ]	;TEST INDEXING
 28780						STOP^
 28781	046007	254 04 0 00 046010 		HALT	.+1		;TEST FAILED IF PROGRAM HALTS HERE
 28782	046010	324 00 0 00 046011 		JUMPA	.+1		;IF TEST FAILS, CHANGE THIS INSTRUCTION (JUMPA .+1) TO
 28783									;JUMPA X (X IS THE ADDRESS OF THE FIRST INSTRUCTION
 28784									;IN THE SUBTEST) TO LOOP ON ERROR^
 28785
 28786					;**********
 28787
 28788
 28789					;THIS TEST VERIFIES THAT INDEX REGISTER ADDRESSING FUNCTIONS CORRECTLY.
 28790					;IN THIS TEST, A MOVE INSTRUCTION USING INDEXING IS EXECUTED.  THE MOVE INSTRUCTION
 28791					;SHOULD PLACE THE CONTENTS OF THE LOCATION SPECIFIED BY INDEX REGISTER 2 INTO AC3.
 28792					;SINCE INDEX REGISTER 2 WAS PRELOADED WITH A 1 AND AC1 WAS PRELOADED WITH A
 28793					;FLOATING 0, THE FINAL RESULT IN AC3 SHOULD BE A FLOATING 0.
 28794					;IF C(AC3)=A FLOATING 0, THIS TEST PASSES.
DFKAA PDP-10 KL10 BASIC INSTRUCTION DIAGNOSTIC (1) VER 0,2	MACRO %53B(1254)-4 11:50 11-Nov-24 Page 9-7
DFKAA4	MAC	13-Jan-89 10:22		TEST OF INDEX REGISTER ADDRESSING

 28795
 28796			001517		SN=SN+1
 28797			737777			ZZ=<ZZ+ZZ+1>&777777
 28798						IFE	<ZZ-1>,<ZZ=777776>
 28799	046011	402 00 0 00 000003 		SETZM	3		;PRELOAD AC3 WITH 0
 28800	046012	561 01 0 00 737777 		HRROI	1,ZZ		;PRELOAD AC1 WITH FLOATING 0
 28801	046013	201 02 0 00 000001 		MOVEI	2,1		;SETUP INDEX REGISTER
 28802	046014	200 03 0 02 000000 		MOVE	3,(2)		;*FWT FROM INDEXED LOCATION
 28803	046015	312 03 0 00 070351 		CAME	3,[-1,,ZZ]	;TEST INDEXING
 28804						STOP^
 28805	046016	254 04 0 00 046017 		HALT	.+1		;TEST FAILED IF PROGRAM HALTS HERE
 28806	046017	324 00 0 00 046020 		JUMPA	.+1		;IF TEST FAILS, CHANGE THIS INSTRUCTION (JUMPA .+1) TO
 28807									;JUMPA X (X IS THE ADDRESS OF THE FIRST INSTRUCTION
 28808									;IN THE SUBTEST) TO LOOP ON ERROR^
 28809
 28810					;**********
 28811
 28812
 28813					;THIS TEST VERIFIES THAT INDEX REGISTER ADDRESSING FUNCTIONS CORRECTLY.
 28814					;IN THIS TEST, A MOVE INSTRUCTION USING INDEXING IS EXECUTED.  THE MOVE INSTRUCTION
 28815					;SHOULD PLACE THE CONTENTS OF THE LOCATION SPECIFIED BY INDEX REGISTER 2 INTO AC3.
 28816					;SINCE INDEX REGISTER 2 WAS PRELOADED WITH A 1 AND AC1 WAS PRELOADED WITH A
 28817					;FLOATING 0, THE FINAL RESULT IN AC3 SHOULD BE A FLOATING 0.
 28818					;IF C(AC3)=A FLOATING 0, THIS TEST PASSES.
 28819
 28820			001520		SN=SN+1
 28821			677777			ZZ=<ZZ+ZZ+1>&777777
 28822						IFE	<ZZ-1>,<ZZ=777776>
 28823	046020	402 00 0 00 000003 		SETZM	3		;PRELOAD AC3 WITH 0
 28824	046021	561 01 0 00 677777 		HRROI	1,ZZ		;PRELOAD AC1 WITH FLOATING 0
 28825	046022	201 02 0 00 000001 		MOVEI	2,1		;SETUP INDEX REGISTER
 28826	046023	200 03 0 02 000000 		MOVE	3,(2)		;*FWT FROM INDEXED LOCATION
 28827	046024	312 03 0 00 070352 		CAME	3,[-1,,ZZ]	;TEST INDEXING
 28828						STOP^
 28829	046025	254 04 0 00 046026 		HALT	.+1		;TEST FAILED IF PROGRAM HALTS HERE
 28830	046026	324 00 0 00 046027 		JUMPA	.+1		;IF TEST FAILS, CHANGE THIS INSTRUCTION (JUMPA .+1) TO
 28831									;JUMPA X (X IS THE ADDRESS OF THE FIRST INSTRUCTION
 28832									;IN THE SUBTEST) TO LOOP ON ERROR^
 28833
 28834					;**********
 28835
 28836
 28837					;THIS TEST VERIFIES THAT INDEX REGISTER ADDRESSING FUNCTIONS CORRECTLY.
 28838					;IN THIS TEST, A MOVE INSTRUCTION USING INDEXING IS EXECUTED.  THE MOVE INSTRUCTION
 28839					;SHOULD PLACE THE CONTENTS OF THE LOCATION SPECIFIED BY INDEX REGISTER 2 INTO AC3.
 28840					;SINCE INDEX REGISTER 2 WAS PRELOADED WITH A 1 AND AC1 WAS PRELOADED WITH A
 28841					;FLOATING 0, THE FINAL RESULT IN AC3 SHOULD BE A FLOATING 0.
 28842					;IF C(AC3)=A FLOATING 0, THIS TEST PASSES.
 28843
 28844			001521		SN=SN+1
 28845			577777			ZZ=<ZZ+ZZ+1>&777777
 28846						IFE	<ZZ-1>,<ZZ=777776>
 28847	046027	402 00 0 00 000003 		SETZM	3		;PRELOAD AC3 WITH 0
 28848	046030	561 01 0 00 577777 		HRROI	1,ZZ		;PRELOAD AC1 WITH FLOATING 0
 28849	046031	201 02 0 00 000001 		MOVEI	2,1		;SETUP INDEX REGISTER
DFKAA PDP-10 KL10 BASIC INSTRUCTION DIAGNOSTIC (1) VER 0,2	MACRO %53B(1254)-4 11:50 11-Nov-24 Page 9-8
DFKAA4	MAC	13-Jan-89 10:22		TEST OF INDEX REGISTER ADDRESSING

 28850	046032	200 03 0 02 000000 		MOVE	3,(2)		;*FWT FROM INDEXED LOCATION
 28851	046033	312 03 0 00 070353 		CAME	3,[-1,,ZZ]	;TEST INDEXING
 28852						STOP^
 28853	046034	254 04 0 00 046035 		HALT	.+1		;TEST FAILED IF PROGRAM HALTS HERE
 28854	046035	324 00 0 00 046036 		JUMPA	.+1		;IF TEST FAILS, CHANGE THIS INSTRUCTION (JUMPA .+1) TO
 28855									;JUMPA X (X IS THE ADDRESS OF THE FIRST INSTRUCTION
 28856									;IN THE SUBTEST) TO LOOP ON ERROR^
 28857
 28858					;**********
 28859
 28860
 28861					;THIS TEST VERIFIES THAT INDEX REGISTER ADDRESSING FUNCTIONS CORRECTLY.
 28862					;IN THIS TEST, A MOVE INSTRUCTION USING INDEXING IS EXECUTED.  THE MOVE INSTRUCTION
 28863					;SHOULD PLACE THE CONTENTS OF THE LOCATION SPECIFIED BY INDEX REGISTER 2 INTO AC3.
 28864					;SINCE INDEX REGISTER 2 WAS PRELOADED WITH A 1 AND AC1 WAS PRELOADED WITH A
 28865					;FLOATING 0, THE FINAL RESULT IN AC3 SHOULD BE A FLOATING 0.
 28866					;IF C(AC3)=A FLOATING 0, THIS TEST PASSES.
 28867
 28868			001522		SN=SN+1
 28869			377777			ZZ=<ZZ+ZZ+1>&777777
 28870						IFE	<ZZ-1>,<ZZ=777776>
 28871	046036	402 00 0 00 000003 		SETZM	3		;PRELOAD AC3 WITH 0
 28872	046037	561 01 0 00 377777 		HRROI	1,ZZ		;PRELOAD AC1 WITH FLOATING 0
 28873	046040	201 02 0 00 000001 		MOVEI	2,1		;SETUP INDEX REGISTER
 28874	046041	200 03 0 02 000000 		MOVE	3,(2)		;*FWT FROM INDEXED LOCATION
 28875	046042	312 03 0 00 070354 		CAME	3,[-1,,ZZ]	;TEST INDEXING
 28876						STOP^
 28877	046043	254 04 0 00 046044 		HALT	.+1		;TEST FAILED IF PROGRAM HALTS HERE
 28878	046044	324 00 0 00 046045 		JUMPA	.+1		;IF TEST FAILS, CHANGE THIS INSTRUCTION (JUMPA .+1) TO
 28879									;JUMPA X (X IS THE ADDRESS OF THE FIRST INSTRUCTION
 28880									;IN THE SUBTEST) TO LOOP ON ERROR^
 28881
 28882					;**********
 28883
DFKAA PDP-10 KL10 BASIC INSTRUCTION DIAGNOSTIC (1) VER 0,2	MACRO %53B(1254)-4 11:50 11-Nov-24 Page 10
DFKAA4	MAC	13-Jan-89 10:22		TEST OF INDEX REGISTER ADDRESSING

 28884			001600		SN=1600
 28885			000000			ZZ=0
 28886
 28887					C1600:	REPEAT	^D18,<
 28888					;THIS TEST VERIFIES THAT INDEX REGISTER ADDRESSING FUNCTIONS CORRECTLY.
 28889					;IN THIS TEST, A MOVE INSTRUCTION USING INDEXING IS EXECUTED.  THE MOVE INSTRUCTION
 28890					;SHOULD PLACE THE CONTENTS OF THE LOCATION SPECIFIED BY INDEX REGISTER 2 INTO AC3.
 28891					;SINCE INDEX REGISTER 2 WAS PRELOADED WITH A 1 AND AC1 WAS PRELOADED WITH A
 28892					;FLOATING 0, THE FINAL RESULT IN AC3 SHOULD BE A FLOATING 0.
 28893					;IF C(AC3)=A FLOATING 0, THIS TEST PASSES.
 28894
 28895					SN=SN+1
 28896						ZZ=<ZZ+ZZ+1>&777777
 28897						IFE	<ZZ-1>,<ZZ=777776>
 28898						SETZM	3		;PRELOAD AC3 WITH 0
 28899						HRLOI	1,ZZ		;PRELOAD AC1 WITH FLOATING 0
 28900						MOVEI	2,1		;SETUP INDEX REGISTER
 28901						MOVE	3,(2)		;*FWT FROM INDEXED LOCATION
 28902						CAME	3,[ZZ,,-1]	;TEST INDEXING
 28903						STOP
 28904
 28905					;**********
 28906					>
 28907
 28908					;THIS TEST VERIFIES THAT INDEX REGISTER ADDRESSING FUNCTIONS CORRECTLY.
 28909					;IN THIS TEST, A MOVE INSTRUCTION USING INDEXING IS EXECUTED.  THE MOVE INSTRUCTION
 28910					;SHOULD PLACE THE CONTENTS OF THE LOCATION SPECIFIED BY INDEX REGISTER 2 INTO AC3.
 28911					;SINCE INDEX REGISTER 2 WAS PRELOADED WITH A 1 AND AC1 WAS PRELOADED WITH A
 28912					;FLOATING 0, THE FINAL RESULT IN AC3 SHOULD BE A FLOATING 0.
 28913					;IF C(AC3)=A FLOATING 0, THIS TEST PASSES.
 28914
 28915			001601		SN=SN+1
 28916			000001			ZZ=<ZZ+ZZ+1>&777777
 28917			777776			IFE	<ZZ-1>,<ZZ=777776>
 28918	046045	402 00 0 00 000003 		SETZM	3		;PRELOAD AC3 WITH 0
 28919	046046	525 01 0 00 777776 		HRLOI	1,ZZ		;PRELOAD AC1 WITH FLOATING 0
 28920	046047	201 02 0 00 000001 		MOVEI	2,1		;SETUP INDEX REGISTER
 28921	046050	200 03 0 02 000000 		MOVE	3,(2)		;*FWT FROM INDEXED LOCATION
 28922	046051	312 03 0 00 070355 		CAME	3,[ZZ,,-1]	;TEST INDEXING
 28923						STOP^
 28924	046052	254 04 0 00 046053 		HALT	.+1		;TEST FAILED IF PROGRAM HALTS HERE
 28925	046053	324 00 0 00 046054 		JUMPA	.+1		;IF TEST FAILS, CHANGE THIS INSTRUCTION (JUMPA .+1) TO
 28926									;JUMPA X (X IS THE ADDRESS OF THE FIRST INSTRUCTION
 28927									;IN THE SUBTEST) TO LOOP ON ERROR^
 28928
 28929					;**********
 28930
 28931
 28932					;THIS TEST VERIFIES THAT INDEX REGISTER ADDRESSING FUNCTIONS CORRECTLY.
 28933					;IN THIS TEST, A MOVE INSTRUCTION USING INDEXING IS EXECUTED.  THE MOVE INSTRUCTION
 28934					;SHOULD PLACE THE CONTENTS OF THE LOCATION SPECIFIED BY INDEX REGISTER 2 INTO AC3.
 28935					;SINCE INDEX REGISTER 2 WAS PRELOADED WITH A 1 AND AC1 WAS PRELOADED WITH A
 28936					;FLOATING 0, THE FINAL RESULT IN AC3 SHOULD BE A FLOATING 0.
 28937					;IF C(AC3)=A FLOATING 0, THIS TEST PASSES.
 28938
DFKAA PDP-10 KL10 BASIC INSTRUCTION DIAGNOSTIC (1) VER 0,2	MACRO %53B(1254)-4 11:50 11-Nov-24 Page 10-1
DFKAA4	MAC	13-Jan-89 10:22		TEST OF INDEX REGISTER ADDRESSING

 28939			001602		SN=SN+1
 28940			777775			ZZ=<ZZ+ZZ+1>&777777
 28941						IFE	<ZZ-1>,<ZZ=777776>
 28942	046054	402 00 0 00 000003 		SETZM	3		;PRELOAD AC3 WITH 0
 28943	046055	525 01 0 00 777775 		HRLOI	1,ZZ		;PRELOAD AC1 WITH FLOATING 0
 28944	046056	201 02 0 00 000001 		MOVEI	2,1		;SETUP INDEX REGISTER
 28945	046057	200 03 0 02 000000 		MOVE	3,(2)		;*FWT FROM INDEXED LOCATION
 28946	046060	312 03 0 00 070356 		CAME	3,[ZZ,,-1]	;TEST INDEXING
 28947						STOP^
 28948	046061	254 04 0 00 046062 		HALT	.+1		;TEST FAILED IF PROGRAM HALTS HERE
 28949	046062	324 00 0 00 046063 		JUMPA	.+1		;IF TEST FAILS, CHANGE THIS INSTRUCTION (JUMPA .+1) TO
 28950									;JUMPA X (X IS THE ADDRESS OF THE FIRST INSTRUCTION
 28951									;IN THE SUBTEST) TO LOOP ON ERROR^
 28952
 28953					;**********
 28954
 28955
 28956					;THIS TEST VERIFIES THAT INDEX REGISTER ADDRESSING FUNCTIONS CORRECTLY.
 28957					;IN THIS TEST, A MOVE INSTRUCTION USING INDEXING IS EXECUTED.  THE MOVE INSTRUCTION
 28958					;SHOULD PLACE THE CONTENTS OF THE LOCATION SPECIFIED BY INDEX REGISTER 2 INTO AC3.
 28959					;SINCE INDEX REGISTER 2 WAS PRELOADED WITH A 1 AND AC1 WAS PRELOADED WITH A
 28960					;FLOATING 0, THE FINAL RESULT IN AC3 SHOULD BE A FLOATING 0.
 28961					;IF C(AC3)=A FLOATING 0, THIS TEST PASSES.
 28962
 28963			001603		SN=SN+1
 28964			777773			ZZ=<ZZ+ZZ+1>&777777
 28965						IFE	<ZZ-1>,<ZZ=777776>
 28966	046063	402 00 0 00 000003 		SETZM	3		;PRELOAD AC3 WITH 0
 28967	046064	525 01 0 00 777773 		HRLOI	1,ZZ		;PRELOAD AC1 WITH FLOATING 0
 28968	046065	201 02 0 00 000001 		MOVEI	2,1		;SETUP INDEX REGISTER
 28969	046066	200 03 0 02 000000 		MOVE	3,(2)		;*FWT FROM INDEXED LOCATION
 28970	046067	312 03 0 00 070357 		CAME	3,[ZZ,,-1]	;TEST INDEXING
 28971						STOP^
 28972	046070	254 04 0 00 046071 		HALT	.+1		;TEST FAILED IF PROGRAM HALTS HERE
 28973	046071	324 00 0 00 046072 		JUMPA	.+1		;IF TEST FAILS, CHANGE THIS INSTRUCTION (JUMPA .+1) TO
 28974									;JUMPA X (X IS THE ADDRESS OF THE FIRST INSTRUCTION
 28975									;IN THE SUBTEST) TO LOOP ON ERROR^
 28976
 28977					;**********
 28978
 28979
 28980					;THIS TEST VERIFIES THAT INDEX REGISTER ADDRESSING FUNCTIONS CORRECTLY.
 28981					;IN THIS TEST, A MOVE INSTRUCTION USING INDEXING IS EXECUTED.  THE MOVE INSTRUCTION
 28982					;SHOULD PLACE THE CONTENTS OF THE LOCATION SPECIFIED BY INDEX REGISTER 2 INTO AC3.
 28983					;SINCE INDEX REGISTER 2 WAS PRELOADED WITH A 1 AND AC1 WAS PRELOADED WITH A
 28984					;FLOATING 0, THE FINAL RESULT IN AC3 SHOULD BE A FLOATING 0.
 28985					;IF C(AC3)=A FLOATING 0, THIS TEST PASSES.
 28986
 28987			001604		SN=SN+1
 28988			777767			ZZ=<ZZ+ZZ+1>&777777
 28989						IFE	<ZZ-1>,<ZZ=777776>
 28990	046072	402 00 0 00 000003 		SETZM	3		;PRELOAD AC3 WITH 0
 28991	046073	525 01 0 00 777767 		HRLOI	1,ZZ		;PRELOAD AC1 WITH FLOATING 0
 28992	046074	201 02 0 00 000001 		MOVEI	2,1		;SETUP INDEX REGISTER
 28993	046075	200 03 0 02 000000 		MOVE	3,(2)		;*FWT FROM INDEXED LOCATION
DFKAA PDP-10 KL10 BASIC INSTRUCTION DIAGNOSTIC (1) VER 0,2	MACRO %53B(1254)-4 11:50 11-Nov-24 Page 10-2
DFKAA4	MAC	13-Jan-89 10:22		TEST OF INDEX REGISTER ADDRESSING

 28994	046076	312 03 0 00 070360 		CAME	3,[ZZ,,-1]	;TEST INDEXING
 28995						STOP^
 28996	046077	254 04 0 00 046100 		HALT	.+1		;TEST FAILED IF PROGRAM HALTS HERE
 28997	046100	324 00 0 00 046101 		JUMPA	.+1		;IF TEST FAILS, CHANGE THIS INSTRUCTION (JUMPA .+1) TO
 28998									;JUMPA X (X IS THE ADDRESS OF THE FIRST INSTRUCTION
 28999									;IN THE SUBTEST) TO LOOP ON ERROR^
 29000
 29001					;**********
 29002
 29003
 29004					;THIS TEST VERIFIES THAT INDEX REGISTER ADDRESSING FUNCTIONS CORRECTLY.
 29005					;IN THIS TEST, A MOVE INSTRUCTION USING INDEXING IS EXECUTED.  THE MOVE INSTRUCTION
 29006					;SHOULD PLACE THE CONTENTS OF THE LOCATION SPECIFIED BY INDEX REGISTER 2 INTO AC3.
 29007					;SINCE INDEX REGISTER 2 WAS PRELOADED WITH A 1 AND AC1 WAS PRELOADED WITH A
 29008					;FLOATING 0, THE FINAL RESULT IN AC3 SHOULD BE A FLOATING 0.
 29009					;IF C(AC3)=A FLOATING 0, THIS TEST PASSES.
 29010
 29011			001605		SN=SN+1
 29012			777757			ZZ=<ZZ+ZZ+1>&777777
 29013						IFE	<ZZ-1>,<ZZ=777776>
 29014	046101	402 00 0 00 000003 		SETZM	3		;PRELOAD AC3 WITH 0
 29015	046102	525 01 0 00 777757 		HRLOI	1,ZZ		;PRELOAD AC1 WITH FLOATING 0
 29016	046103	201 02 0 00 000001 		MOVEI	2,1		;SETUP INDEX REGISTER
 29017	046104	200 03 0 02 000000 		MOVE	3,(2)		;*FWT FROM INDEXED LOCATION
 29018	046105	312 03 0 00 070361 		CAME	3,[ZZ,,-1]	;TEST INDEXING
 29019						STOP^
 29020	046106	254 04 0 00 046107 		HALT	.+1		;TEST FAILED IF PROGRAM HALTS HERE
 29021	046107	324 00 0 00 046110 		JUMPA	.+1		;IF TEST FAILS, CHANGE THIS INSTRUCTION (JUMPA .+1) TO
 29022									;JUMPA X (X IS THE ADDRESS OF THE FIRST INSTRUCTION
 29023									;IN THE SUBTEST) TO LOOP ON ERROR^
 29024
 29025					;**********
 29026
 29027
 29028					;THIS TEST VERIFIES THAT INDEX REGISTER ADDRESSING FUNCTIONS CORRECTLY.
 29029					;IN THIS TEST, A MOVE INSTRUCTION USING INDEXING IS EXECUTED.  THE MOVE INSTRUCTION
 29030					;SHOULD PLACE THE CONTENTS OF THE LOCATION SPECIFIED BY INDEX REGISTER 2 INTO AC3.
 29031					;SINCE INDEX REGISTER 2 WAS PRELOADED WITH A 1 AND AC1 WAS PRELOADED WITH A
 29032					;FLOATING 0, THE FINAL RESULT IN AC3 SHOULD BE A FLOATING 0.
 29033					;IF C(AC3)=A FLOATING 0, THIS TEST PASSES.
 29034
 29035			001606		SN=SN+1
 29036			777737			ZZ=<ZZ+ZZ+1>&777777
 29037						IFE	<ZZ-1>,<ZZ=777776>
 29038	046110	402 00 0 00 000003 		SETZM	3		;PRELOAD AC3 WITH 0
 29039	046111	525 01 0 00 777737 		HRLOI	1,ZZ		;PRELOAD AC1 WITH FLOATING 0
 29040	046112	201 02 0 00 000001 		MOVEI	2,1		;SETUP INDEX REGISTER
 29041	046113	200 03 0 02 000000 		MOVE	3,(2)		;*FWT FROM INDEXED LOCATION
 29042	046114	312 03 0 00 070362 		CAME	3,[ZZ,,-1]	;TEST INDEXING
 29043						STOP^
 29044	046115	254 04 0 00 046116 		HALT	.+1		;TEST FAILED IF PROGRAM HALTS HERE
 29045	046116	324 00 0 00 046117 		JUMPA	.+1		;IF TEST FAILS, CHANGE THIS INSTRUCTION (JUMPA .+1) TO
 29046									;JUMPA X (X IS THE ADDRESS OF THE FIRST INSTRUCTION
 29047									;IN THE SUBTEST) TO LOOP ON ERROR^
 29048
DFKAA PDP-10 KL10 BASIC INSTRUCTION DIAGNOSTIC (1) VER 0,2	MACRO %53B(1254)-4 11:50 11-Nov-24 Page 10-3
DFKAA4	MAC	13-Jan-89 10:22		TEST OF INDEX REGISTER ADDRESSING

 29049					;**********
 29050
 29051
 29052					;THIS TEST VERIFIES THAT INDEX REGISTER ADDRESSING FUNCTIONS CORRECTLY.
 29053					;IN THIS TEST, A MOVE INSTRUCTION USING INDEXING IS EXECUTED.  THE MOVE INSTRUCTION
 29054					;SHOULD PLACE THE CONTENTS OF THE LOCATION SPECIFIED BY INDEX REGISTER 2 INTO AC3.
 29055					;SINCE INDEX REGISTER 2 WAS PRELOADED WITH A 1 AND AC1 WAS PRELOADED WITH A
 29056					;FLOATING 0, THE FINAL RESULT IN AC3 SHOULD BE A FLOATING 0.
 29057					;IF C(AC3)=A FLOATING 0, THIS TEST PASSES.
 29058
 29059			001607		SN=SN+1
 29060			777677			ZZ=<ZZ+ZZ+1>&777777
 29061						IFE	<ZZ-1>,<ZZ=777776>
 29062	046117	402 00 0 00 000003 		SETZM	3		;PRELOAD AC3 WITH 0
 29063	046120	525 01 0 00 777677 		HRLOI	1,ZZ		;PRELOAD AC1 WITH FLOATING 0
 29064	046121	201 02 0 00 000001 		MOVEI	2,1		;SETUP INDEX REGISTER
 29065	046122	200 03 0 02 000000 		MOVE	3,(2)		;*FWT FROM INDEXED LOCATION
 29066	046123	312 03 0 00 070363 		CAME	3,[ZZ,,-1]	;TEST INDEXING
 29067						STOP^
 29068	046124	254 04 0 00 046125 		HALT	.+1		;TEST FAILED IF PROGRAM HALTS HERE
 29069	046125	324 00 0 00 046126 		JUMPA	.+1		;IF TEST FAILS, CHANGE THIS INSTRUCTION (JUMPA .+1) TO
 29070									;JUMPA X (X IS THE ADDRESS OF THE FIRST INSTRUCTION
 29071									;IN THE SUBTEST) TO LOOP ON ERROR^
 29072
 29073					;**********
 29074
 29075
 29076					;THIS TEST VERIFIES THAT INDEX REGISTER ADDRESSING FUNCTIONS CORRECTLY.
 29077					;IN THIS TEST, A MOVE INSTRUCTION USING INDEXING IS EXECUTED.  THE MOVE INSTRUCTION
 29078					;SHOULD PLACE THE CONTENTS OF THE LOCATION SPECIFIED BY INDEX REGISTER 2 INTO AC3.
 29079					;SINCE INDEX REGISTER 2 WAS PRELOADED WITH A 1 AND AC1 WAS PRELOADED WITH A
 29080					;FLOATING 0, THE FINAL RESULT IN AC3 SHOULD BE A FLOATING 0.
 29081					;IF C(AC3)=A FLOATING 0, THIS TEST PASSES.
 29082
 29083			001610		SN=SN+1
 29084			777577			ZZ=<ZZ+ZZ+1>&777777
 29085						IFE	<ZZ-1>,<ZZ=777776>
 29086	046126	402 00 0 00 000003 		SETZM	3		;PRELOAD AC3 WITH 0
 29087	046127	525 01 0 00 777577 		HRLOI	1,ZZ		;PRELOAD AC1 WITH FLOATING 0
 29088	046130	201 02 0 00 000001 		MOVEI	2,1		;SETUP INDEX REGISTER
 29089	046131	200 03 0 02 000000 		MOVE	3,(2)		;*FWT FROM INDEXED LOCATION
 29090	046132	312 03 0 00 070364 		CAME	3,[ZZ,,-1]	;TEST INDEXING
 29091						STOP^
 29092	046133	254 04 0 00 046134 		HALT	.+1		;TEST FAILED IF PROGRAM HALTS HERE
 29093	046134	324 00 0 00 046135 		JUMPA	.+1		;IF TEST FAILS, CHANGE THIS INSTRUCTION (JUMPA .+1) TO
 29094									;JUMPA X (X IS THE ADDRESS OF THE FIRST INSTRUCTION
 29095									;IN THE SUBTEST) TO LOOP ON ERROR^
 29096
 29097					;**********
 29098
 29099
 29100					;THIS TEST VERIFIES THAT INDEX REGISTER ADDRESSING FUNCTIONS CORRECTLY.
 29101					;IN THIS TEST, A MOVE INSTRUCTION USING INDEXING IS EXECUTED.  THE MOVE INSTRUCTION
 29102					;SHOULD PLACE THE CONTENTS OF THE LOCATION SPECIFIED BY INDEX REGISTER 2 INTO AC3.
 29103					;SINCE INDEX REGISTER 2 WAS PRELOADED WITH A 1 AND AC1 WAS PRELOADED WITH A
DFKAA PDP-10 KL10 BASIC INSTRUCTION DIAGNOSTIC (1) VER 0,2	MACRO %53B(1254)-4 11:50 11-Nov-24 Page 10-4
DFKAA4	MAC	13-Jan-89 10:22		TEST OF INDEX REGISTER ADDRESSING

 29104					;FLOATING 0, THE FINAL RESULT IN AC3 SHOULD BE A FLOATING 0.
 29105					;IF C(AC3)=A FLOATING 0, THIS TEST PASSES.
 29106
 29107			001611		SN=SN+1
 29108			777377			ZZ=<ZZ+ZZ+1>&777777
 29109						IFE	<ZZ-1>,<ZZ=777776>
 29110	046135	402 00 0 00 000003 		SETZM	3		;PRELOAD AC3 WITH 0
 29111	046136	525 01 0 00 777377 		HRLOI	1,ZZ		;PRELOAD AC1 WITH FLOATING 0
 29112	046137	201 02 0 00 000001 		MOVEI	2,1		;SETUP INDEX REGISTER
 29113	046140	200 03 0 02 000000 		MOVE	3,(2)		;*FWT FROM INDEXED LOCATION
 29114	046141	312 03 0 00 070365 		CAME	3,[ZZ,,-1]	;TEST INDEXING
 29115						STOP^
 29116	046142	254 04 0 00 046143 		HALT	.+1		;TEST FAILED IF PROGRAM HALTS HERE
 29117	046143	324 00 0 00 046144 		JUMPA	.+1		;IF TEST FAILS, CHANGE THIS INSTRUCTION (JUMPA .+1) TO
 29118									;JUMPA X (X IS THE ADDRESS OF THE FIRST INSTRUCTION
 29119									;IN THE SUBTEST) TO LOOP ON ERROR^
 29120
 29121					;**********
 29122
 29123
 29124					;THIS TEST VERIFIES THAT INDEX REGISTER ADDRESSING FUNCTIONS CORRECTLY.
 29125					;IN THIS TEST, A MOVE INSTRUCTION USING INDEXING IS EXECUTED.  THE MOVE INSTRUCTION
 29126					;SHOULD PLACE THE CONTENTS OF THE LOCATION SPECIFIED BY INDEX REGISTER 2 INTO AC3.
 29127					;SINCE INDEX REGISTER 2 WAS PRELOADED WITH A 1 AND AC1 WAS PRELOADED WITH A
 29128					;FLOATING 0, THE FINAL RESULT IN AC3 SHOULD BE A FLOATING 0.
 29129					;IF C(AC3)=A FLOATING 0, THIS TEST PASSES.
 29130
 29131			001612		SN=SN+1
 29132			776777			ZZ=<ZZ+ZZ+1>&777777
 29133						IFE	<ZZ-1>,<ZZ=777776>
 29134	046144	402 00 0 00 000003 		SETZM	3		;PRELOAD AC3 WITH 0
 29135	046145	525 01 0 00 776777 		HRLOI	1,ZZ		;PRELOAD AC1 WITH FLOATING 0
 29136	046146	201 02 0 00 000001 		MOVEI	2,1		;SETUP INDEX REGISTER
 29137	046147	200 03 0 02 000000 		MOVE	3,(2)		;*FWT FROM INDEXED LOCATION
 29138	046150	312 03 0 00 070366 		CAME	3,[ZZ,,-1]	;TEST INDEXING
 29139						STOP^
 29140	046151	254 04 0 00 046152 		HALT	.+1		;TEST FAILED IF PROGRAM HALTS HERE
 29141	046152	324 00 0 00 046153 		JUMPA	.+1		;IF TEST FAILS, CHANGE THIS INSTRUCTION (JUMPA .+1) TO
 29142									;JUMPA X (X IS THE ADDRESS OF THE FIRST INSTRUCTION
 29143									;IN THE SUBTEST) TO LOOP ON ERROR^
 29144
 29145					;**********
 29146
 29147
 29148					;THIS TEST VERIFIES THAT INDEX REGISTER ADDRESSING FUNCTIONS CORRECTLY.
 29149					;IN THIS TEST, A MOVE INSTRUCTION USING INDEXING IS EXECUTED.  THE MOVE INSTRUCTION
 29150					;SHOULD PLACE THE CONTENTS OF THE LOCATION SPECIFIED BY INDEX REGISTER 2 INTO AC3.
 29151					;SINCE INDEX REGISTER 2 WAS PRELOADED WITH A 1 AND AC1 WAS PRELOADED WITH A
 29152					;FLOATING 0, THE FINAL RESULT IN AC3 SHOULD BE A FLOATING 0.
 29153					;IF C(AC3)=A FLOATING 0, THIS TEST PASSES.
 29154
 29155			001613		SN=SN+1
 29156			775777			ZZ=<ZZ+ZZ+1>&777777
 29157						IFE	<ZZ-1>,<ZZ=777776>
 29158	046153	402 00 0 00 000003 		SETZM	3		;PRELOAD AC3 WITH 0
DFKAA PDP-10 KL10 BASIC INSTRUCTION DIAGNOSTIC (1) VER 0,2	MACRO %53B(1254)-4 11:50 11-Nov-24 Page 10-5
DFKAA4	MAC	13-Jan-89 10:22		TEST OF INDEX REGISTER ADDRESSING

 29159	046154	525 01 0 00 775777 		HRLOI	1,ZZ		;PRELOAD AC1 WITH FLOATING 0
 29160	046155	201 02 0 00 000001 		MOVEI	2,1		;SETUP INDEX REGISTER
 29161	046156	200 03 0 02 000000 		MOVE	3,(2)		;*FWT FROM INDEXED LOCATION
 29162	046157	312 03 0 00 070367 		CAME	3,[ZZ,,-1]	;TEST INDEXING
 29163						STOP^
 29164	046160	254 04 0 00 046161 		HALT	.+1		;TEST FAILED IF PROGRAM HALTS HERE
 29165	046161	324 00 0 00 046162 		JUMPA	.+1		;IF TEST FAILS, CHANGE THIS INSTRUCTION (JUMPA .+1) TO
 29166									;JUMPA X (X IS THE ADDRESS OF THE FIRST INSTRUCTION
 29167									;IN THE SUBTEST) TO LOOP ON ERROR^
 29168
 29169					;**********
 29170
 29171
 29172					;THIS TEST VERIFIES THAT INDEX REGISTER ADDRESSING FUNCTIONS CORRECTLY.
 29173					;IN THIS TEST, A MOVE INSTRUCTION USING INDEXING IS EXECUTED.  THE MOVE INSTRUCTION
 29174					;SHOULD PLACE THE CONTENTS OF THE LOCATION SPECIFIED BY INDEX REGISTER 2 INTO AC3.
 29175					;SINCE INDEX REGISTER 2 WAS PRELOADED WITH A 1 AND AC1 WAS PRELOADED WITH A
 29176					;FLOATING 0, THE FINAL RESULT IN AC3 SHOULD BE A FLOATING 0.
 29177					;IF C(AC3)=A FLOATING 0, THIS TEST PASSES.
 29178
 29179			001614		SN=SN+1
 29180			773777			ZZ=<ZZ+ZZ+1>&777777
 29181						IFE	<ZZ-1>,<ZZ=777776>
 29182	046162	402 00 0 00 000003 		SETZM	3		;PRELOAD AC3 WITH 0
 29183	046163	525 01 0 00 773777 		HRLOI	1,ZZ		;PRELOAD AC1 WITH FLOATING 0
 29184	046164	201 02 0 00 000001 		MOVEI	2,1		;SETUP INDEX REGISTER
 29185	046165	200 03 0 02 000000 		MOVE	3,(2)		;*FWT FROM INDEXED LOCATION
 29186	046166	312 03 0 00 070370 		CAME	3,[ZZ,,-1]	;TEST INDEXING
 29187						STOP^
 29188	046167	254 04 0 00 046170 		HALT	.+1		;TEST FAILED IF PROGRAM HALTS HERE
 29189	046170	324 00 0 00 046171 		JUMPA	.+1		;IF TEST FAILS, CHANGE THIS INSTRUCTION (JUMPA .+1) TO
 29190									;JUMPA X (X IS THE ADDRESS OF THE FIRST INSTRUCTION
 29191									;IN THE SUBTEST) TO LOOP ON ERROR^
 29192
 29193					;**********
 29194
 29195
 29196					;THIS TEST VERIFIES THAT INDEX REGISTER ADDRESSING FUNCTIONS CORRECTLY.
 29197					;IN THIS TEST, A MOVE INSTRUCTION USING INDEXING IS EXECUTED.  THE MOVE INSTRUCTION
 29198					;SHOULD PLACE THE CONTENTS OF THE LOCATION SPECIFIED BY INDEX REGISTER 2 INTO AC3.
 29199					;SINCE INDEX REGISTER 2 WAS PRELOADED WITH A 1 AND AC1 WAS PRELOADED WITH A
 29200					;FLOATING 0, THE FINAL RESULT IN AC3 SHOULD BE A FLOATING 0.
 29201					;IF C(AC3)=A FLOATING 0, THIS TEST PASSES.
 29202
 29203			001615		SN=SN+1
 29204			767777			ZZ=<ZZ+ZZ+1>&777777
 29205						IFE	<ZZ-1>,<ZZ=777776>
 29206	046171	402 00 0 00 000003 		SETZM	3		;PRELOAD AC3 WITH 0
 29207	046172	525 01 0 00 767777 		HRLOI	1,ZZ		;PRELOAD AC1 WITH FLOATING 0
 29208	046173	201 02 0 00 000001 		MOVEI	2,1		;SETUP INDEX REGISTER
 29209	046174	200 03 0 02 000000 		MOVE	3,(2)		;*FWT FROM INDEXED LOCATION
 29210	046175	312 03 0 00 070371 		CAME	3,[ZZ,,-1]	;TEST INDEXING
 29211						STOP^
 29212	046176	254 04 0 00 046177 		HALT	.+1		;TEST FAILED IF PROGRAM HALTS HERE
 29213	046177	324 00 0 00 046200 		JUMPA	.+1		;IF TEST FAILS, CHANGE THIS INSTRUCTION (JUMPA .+1) TO
DFKAA PDP-10 KL10 BASIC INSTRUCTION DIAGNOSTIC (1) VER 0,2	MACRO %53B(1254)-4 11:50 11-Nov-24 Page 10-6
DFKAA4	MAC	13-Jan-89 10:22		TEST OF INDEX REGISTER ADDRESSING

 29214									;JUMPA X (X IS THE ADDRESS OF THE FIRST INSTRUCTION
 29215									;IN THE SUBTEST) TO LOOP ON ERROR^
 29216
 29217					;**********
 29218
 29219
 29220					;THIS TEST VERIFIES THAT INDEX REGISTER ADDRESSING FUNCTIONS CORRECTLY.
 29221					;IN THIS TEST, A MOVE INSTRUCTION USING INDEXING IS EXECUTED.  THE MOVE INSTRUCTION
 29222					;SHOULD PLACE THE CONTENTS OF THE LOCATION SPECIFIED BY INDEX REGISTER 2 INTO AC3.
 29223					;SINCE INDEX REGISTER 2 WAS PRELOADED WITH A 1 AND AC1 WAS PRELOADED WITH A
 29224					;FLOATING 0, THE FINAL RESULT IN AC3 SHOULD BE A FLOATING 0.
 29225					;IF C(AC3)=A FLOATING 0, THIS TEST PASSES.
 29226
 29227			001616		SN=SN+1
 29228			757777			ZZ=<ZZ+ZZ+1>&777777
 29229						IFE	<ZZ-1>,<ZZ=777776>
 29230	046200	402 00 0 00 000003 		SETZM	3		;PRELOAD AC3 WITH 0
 29231	046201	525 01 0 00 757777 		HRLOI	1,ZZ		;PRELOAD AC1 WITH FLOATING 0
 29232	046202	201 02 0 00 000001 		MOVEI	2,1		;SETUP INDEX REGISTER
 29233	046203	200 03 0 02 000000 		MOVE	3,(2)		;*FWT FROM INDEXED LOCATION
 29234	046204	312 03 0 00 070372 		CAME	3,[ZZ,,-1]	;TEST INDEXING
 29235						STOP^
 29236	046205	254 04 0 00 046206 		HALT	.+1		;TEST FAILED IF PROGRAM HALTS HERE
 29237	046206	324 00 0 00 046207 		JUMPA	.+1		;IF TEST FAILS, CHANGE THIS INSTRUCTION (JUMPA .+1) TO
 29238									;JUMPA X (X IS THE ADDRESS OF THE FIRST INSTRUCTION
 29239									;IN THE SUBTEST) TO LOOP ON ERROR^
 29240
 29241					;**********
 29242
 29243
 29244					;THIS TEST VERIFIES THAT INDEX REGISTER ADDRESSING FUNCTIONS CORRECTLY.
 29245					;IN THIS TEST, A MOVE INSTRUCTION USING INDEXING IS EXECUTED.  THE MOVE INSTRUCTION
 29246					;SHOULD PLACE THE CONTENTS OF THE LOCATION SPECIFIED BY INDEX REGISTER 2 INTO AC3.
 29247					;SINCE INDEX REGISTER 2 WAS PRELOADED WITH A 1 AND AC1 WAS PRELOADED WITH A
 29248					;FLOATING 0, THE FINAL RESULT IN AC3 SHOULD BE A FLOATING 0.
 29249					;IF C(AC3)=A FLOATING 0, THIS TEST PASSES.
 29250
 29251			001617		SN=SN+1
 29252			737777			ZZ=<ZZ+ZZ+1>&777777
 29253						IFE	<ZZ-1>,<ZZ=777776>
 29254	046207	402 00 0 00 000003 		SETZM	3		;PRELOAD AC3 WITH 0
 29255	046210	525 01 0 00 737777 		HRLOI	1,ZZ		;PRELOAD AC1 WITH FLOATING 0
 29256	046211	201 02 0 00 000001 		MOVEI	2,1		;SETUP INDEX REGISTER
 29257	046212	200 03 0 02 000000 		MOVE	3,(2)		;*FWT FROM INDEXED LOCATION
 29258	046213	312 03 0 00 070373 		CAME	3,[ZZ,,-1]	;TEST INDEXING
 29259						STOP^
 29260	046214	254 04 0 00 046215 		HALT	.+1		;TEST FAILED IF PROGRAM HALTS HERE
 29261	046215	324 00 0 00 046216 		JUMPA	.+1		;IF TEST FAILS, CHANGE THIS INSTRUCTION (JUMPA .+1) TO
 29262									;JUMPA X (X IS THE ADDRESS OF THE FIRST INSTRUCTION
 29263									;IN THE SUBTEST) TO LOOP ON ERROR^
 29264
 29265					;**********
 29266
 29267
 29268					;THIS TEST VERIFIES THAT INDEX REGISTER ADDRESSING FUNCTIONS CORRECTLY.
DFKAA PDP-10 KL10 BASIC INSTRUCTION DIAGNOSTIC (1) VER 0,2	MACRO %53B(1254)-4 11:50 11-Nov-24 Page 10-7
DFKAA4	MAC	13-Jan-89 10:22		TEST OF INDEX REGISTER ADDRESSING

 29269					;IN THIS TEST, A MOVE INSTRUCTION USING INDEXING IS EXECUTED.  THE MOVE INSTRUCTION
 29270					;SHOULD PLACE THE CONTENTS OF THE LOCATION SPECIFIED BY INDEX REGISTER 2 INTO AC3.
 29271					;SINCE INDEX REGISTER 2 WAS PRELOADED WITH A 1 AND AC1 WAS PRELOADED WITH A
 29272					;FLOATING 0, THE FINAL RESULT IN AC3 SHOULD BE A FLOATING 0.
 29273					;IF C(AC3)=A FLOATING 0, THIS TEST PASSES.
 29274
 29275			001620		SN=SN+1
 29276			677777			ZZ=<ZZ+ZZ+1>&777777
 29277						IFE	<ZZ-1>,<ZZ=777776>
 29278	046216	402 00 0 00 000003 		SETZM	3		;PRELOAD AC3 WITH 0
 29279	046217	525 01 0 00 677777 		HRLOI	1,ZZ		;PRELOAD AC1 WITH FLOATING 0
 29280	046220	201 02 0 00 000001 		MOVEI	2,1		;SETUP INDEX REGISTER
 29281	046221	200 03 0 02 000000 		MOVE	3,(2)		;*FWT FROM INDEXED LOCATION
 29282	046222	312 03 0 00 070374 		CAME	3,[ZZ,,-1]	;TEST INDEXING
 29283						STOP^
 29284	046223	254 04 0 00 046224 		HALT	.+1		;TEST FAILED IF PROGRAM HALTS HERE
 29285	046224	324 00 0 00 046225 		JUMPA	.+1		;IF TEST FAILS, CHANGE THIS INSTRUCTION (JUMPA .+1) TO
 29286									;JUMPA X (X IS THE ADDRESS OF THE FIRST INSTRUCTION
 29287									;IN THE SUBTEST) TO LOOP ON ERROR^
 29288
 29289					;**********
 29290
 29291
 29292					;THIS TEST VERIFIES THAT INDEX REGISTER ADDRESSING FUNCTIONS CORRECTLY.
 29293					;IN THIS TEST, A MOVE INSTRUCTION USING INDEXING IS EXECUTED.  THE MOVE INSTRUCTION
 29294					;SHOULD PLACE THE CONTENTS OF THE LOCATION SPECIFIED BY INDEX REGISTER 2 INTO AC3.
 29295					;SINCE INDEX REGISTER 2 WAS PRELOADED WITH A 1 AND AC1 WAS PRELOADED WITH A
 29296					;FLOATING 0, THE FINAL RESULT IN AC3 SHOULD BE A FLOATING 0.
 29297					;IF C(AC3)=A FLOATING 0, THIS TEST PASSES.
 29298
 29299			001621		SN=SN+1
 29300			577777			ZZ=<ZZ+ZZ+1>&777777
 29301						IFE	<ZZ-1>,<ZZ=777776>
 29302	046225	402 00 0 00 000003 		SETZM	3		;PRELOAD AC3 WITH 0
 29303	046226	525 01 0 00 577777 		HRLOI	1,ZZ		;PRELOAD AC1 WITH FLOATING 0
 29304	046227	201 02 0 00 000001 		MOVEI	2,1		;SETUP INDEX REGISTER
 29305	046230	200 03 0 02 000000 		MOVE	3,(2)		;*FWT FROM INDEXED LOCATION
 29306	046231	312 03 0 00 070375 		CAME	3,[ZZ,,-1]	;TEST INDEXING
 29307						STOP^
 29308	046232	254 04 0 00 046233 		HALT	.+1		;TEST FAILED IF PROGRAM HALTS HERE
 29309	046233	324 00 0 00 046234 		JUMPA	.+1		;IF TEST FAILS, CHANGE THIS INSTRUCTION (JUMPA .+1) TO
 29310									;JUMPA X (X IS THE ADDRESS OF THE FIRST INSTRUCTION
 29311									;IN THE SUBTEST) TO LOOP ON ERROR^
 29312
 29313					;**********
 29314
 29315
 29316					;THIS TEST VERIFIES THAT INDEX REGISTER ADDRESSING FUNCTIONS CORRECTLY.
 29317					;IN THIS TEST, A MOVE INSTRUCTION USING INDEXING IS EXECUTED.  THE MOVE INSTRUCTION
 29318					;SHOULD PLACE THE CONTENTS OF THE LOCATION SPECIFIED BY INDEX REGISTER 2 INTO AC3.
 29319					;SINCE INDEX REGISTER 2 WAS PRELOADED WITH A 1 AND AC1 WAS PRELOADED WITH A
 29320					;FLOATING 0, THE FINAL RESULT IN AC3 SHOULD BE A FLOATING 0.
 29321					;IF C(AC3)=A FLOATING 0, THIS TEST PASSES.
 29322
 29323			001622		SN=SN+1
DFKAA PDP-10 KL10 BASIC INSTRUCTION DIAGNOSTIC (1) VER 0,2	MACRO %53B(1254)-4 11:50 11-Nov-24 Page 10-8
DFKAA4	MAC	13-Jan-89 10:22		TEST OF INDEX REGISTER ADDRESSING

 29324			377777			ZZ=<ZZ+ZZ+1>&777777
 29325						IFE	<ZZ-1>,<ZZ=777776>
 29326	046234	402 00 0 00 000003 		SETZM	3		;PRELOAD AC3 WITH 0
 29327	046235	525 01 0 00 377777 		HRLOI	1,ZZ		;PRELOAD AC1 WITH FLOATING 0
 29328	046236	201 02 0 00 000001 		MOVEI	2,1		;SETUP INDEX REGISTER
 29329	046237	200 03 0 02 000000 		MOVE	3,(2)		;*FWT FROM INDEXED LOCATION
 29330	046240	312 03 0 00 070255 		CAME	3,[ZZ,,-1]	;TEST INDEXING
 29331						STOP^
 29332	046241	254 04 0 00 046242 		HALT	.+1		;TEST FAILED IF PROGRAM HALTS HERE
 29333	046242	324 00 0 00 046243 		JUMPA	.+1		;IF TEST FAILS, CHANGE THIS INSTRUCTION (JUMPA .+1) TO
 29334									;JUMPA X (X IS THE ADDRESS OF THE FIRST INSTRUCTION
 29335									;IN THE SUBTEST) TO LOOP ON ERROR^
 29336
 29337					;**********
 29338
DFKAA PDP-10 KL10 BASIC INSTRUCTION DIAGNOSTIC (1) VER 0,2	MACRO %53B(1254)-4 11:50 11-Nov-24 Page 11
DFKAA4	MAC	13-Jan-89 10:22		TEST OF INDEX REGISTER ADDRESSING

 29339					;VERIFY INDEXING WHERE 'E' IS NON-ZERO
 29340
 29341			001700		SN=1700
 29342		777777	777777			ZZ=-1
 29343		777777	777770			XX=-10
 29344
 29345					;THIS TEST VERIFIES THAT INDEX REGISTER ADDRESSING FUNCTIONS CORRECTLY.
 29346					;IN THIS TEST, THE INDEX REG IS SET-UP WITH MOVEI ZZ+1,ZZ-XX,
 29347					;WHERE ZZ+1 IS THE INDEX REG.  THE AC IS PRELOADED WITH ITS OWN ADDRESS, 0,,ZZ.
 29348					;CAIE IS USED TO TEST THE INDEXING OPERATION.
 29349					;IF THE RESULT IN C(AC)=XX+C(ZZ+1 - RIGHT), THIS TEST PASSES.
 29350					;XX+C(ZZ+1 - RIGHT) SHOULD = ZZ.
 29351
 29352					C1700:	REPEAT	^D15,
 29353					<SN=SN+1
 29354						ZZ=ZZ+1
 29355						XX=XX+3
 29356						MOVEI	ZZ+1,ZZ-XX	;SETUP INDEX REGISTER
 29357						MOVEI	ZZ,ZZ		;PRELOAD AC WITH 0,,ZZ
 29358						CAIE	ZZ,XX(ZZ+1)	;*TEST INDEXING
 29359						STOP
 29360
 29361					;**********
 29362					>
 29363			001701		SN=SN+1
 29364			000000			ZZ=ZZ+1
 29365		777777	777773			XX=XX+3
 29366	046243	201 01 0 00 000005 		MOVEI	ZZ+1,ZZ-XX	;SETUP INDEX REGISTER
 29367	046244	201 00 0 00 000000 		MOVEI	ZZ,ZZ		;PRELOAD AC WITH 0,,ZZ
 29368	046245	302 00 0 01 777773 		CAIE	ZZ,XX(ZZ+1)	;*TEST INDEXING
 29369						STOP^
 29370	046246	254 04 0 00 046247 		HALT	.+1		;TEST FAILED IF PROGRAM HALTS HERE
 29371	046247	324 00 0 00 046250 		JUMPA	.+1		;IF TEST FAILS, CHANGE THIS INSTRUCTION (JUMPA .+1) TO
 29372									;JUMPA X (X IS THE ADDRESS OF THE FIRST INSTRUCTION
 29373									;IN THE SUBTEST) TO LOOP ON ERROR^
 29374
 29375					;**********
 29376
 29377			001702		SN=SN+1
 29378			000001			ZZ=ZZ+1
 29379		777777	777776			XX=XX+3
 29380	046250	201 02 0 00 000003 		MOVEI	ZZ+1,ZZ-XX	;SETUP INDEX REGISTER
 29381	046251	201 01 0 00 000001 		MOVEI	ZZ,ZZ		;PRELOAD AC WITH 0,,ZZ
 29382	046252	302 01 0 02 777776 		CAIE	ZZ,XX(ZZ+1)	;*TEST INDEXING
 29383						STOP^
 29384	046253	254 04 0 00 046254 		HALT	.+1		;TEST FAILED IF PROGRAM HALTS HERE
 29385	046254	324 00 0 00 046255 		JUMPA	.+1		;IF TEST FAILS, CHANGE THIS INSTRUCTION (JUMPA .+1) TO
 29386									;JUMPA X (X IS THE ADDRESS OF THE FIRST INSTRUCTION
 29387									;IN THE SUBTEST) TO LOOP ON ERROR^
 29388
 29389					;**********
 29390
 29391			001703		SN=SN+1
 29392			000002			ZZ=ZZ+1
 29393			000001			XX=XX+3
DFKAA PDP-10 KL10 BASIC INSTRUCTION DIAGNOSTIC (1) VER 0,2	MACRO %53B(1254)-4 11:50 11-Nov-24 Page 11-1
DFKAA4	MAC	13-Jan-89 10:22		TEST OF INDEX REGISTER ADDRESSING

 29394	046255	201 03 0 00 000001 		MOVEI	ZZ+1,ZZ-XX	;SETUP INDEX REGISTER
 29395	046256	201 02 0 00 000002 		MOVEI	ZZ,ZZ		;PRELOAD AC WITH 0,,ZZ
 29396	046257	302 02 0 03 000001 		CAIE	ZZ,XX(ZZ+1)	;*TEST INDEXING
 29397						STOP^
 29398	046260	254 04 0 00 046261 		HALT	.+1		;TEST FAILED IF PROGRAM HALTS HERE
 29399	046261	324 00 0 00 046262 		JUMPA	.+1		;IF TEST FAILS, CHANGE THIS INSTRUCTION (JUMPA .+1) TO
 29400									;JUMPA X (X IS THE ADDRESS OF THE FIRST INSTRUCTION
 29401									;IN THE SUBTEST) TO LOOP ON ERROR^
 29402
 29403					;**********
 29404
 29405			001704		SN=SN+1
 29406			000003			ZZ=ZZ+1
 29407			000004			XX=XX+3
 29408	046262	201 04 0 00 777777 		MOVEI	ZZ+1,ZZ-XX	;SETUP INDEX REGISTER
 29409	046263	201 03 0 00 000003 		MOVEI	ZZ,ZZ		;PRELOAD AC WITH 0,,ZZ
 29410	046264	302 03 0 04 000004 		CAIE	ZZ,XX(ZZ+1)	;*TEST INDEXING
 29411						STOP^
 29412	046265	254 04 0 00 046266 		HALT	.+1		;TEST FAILED IF PROGRAM HALTS HERE
 29413	046266	324 00 0 00 046267 		JUMPA	.+1		;IF TEST FAILS, CHANGE THIS INSTRUCTION (JUMPA .+1) TO
 29414									;JUMPA X (X IS THE ADDRESS OF THE FIRST INSTRUCTION
 29415									;IN THE SUBTEST) TO LOOP ON ERROR^
 29416
 29417					;**********
 29418
 29419			001705		SN=SN+1
 29420			000004			ZZ=ZZ+1
 29421			000007			XX=XX+3
 29422	046267	201 05 0 00 777775 		MOVEI	ZZ+1,ZZ-XX	;SETUP INDEX REGISTER
 29423	046270	201 04 0 00 000004 		MOVEI	ZZ,ZZ		;PRELOAD AC WITH 0,,ZZ
 29424	046271	302 04 0 05 000007 		CAIE	ZZ,XX(ZZ+1)	;*TEST INDEXING
 29425						STOP^
 29426	046272	254 04 0 00 046273 		HALT	.+1		;TEST FAILED IF PROGRAM HALTS HERE
 29427	046273	324 00 0 00 046274 		JUMPA	.+1		;IF TEST FAILS, CHANGE THIS INSTRUCTION (JUMPA .+1) TO
 29428									;JUMPA X (X IS THE ADDRESS OF THE FIRST INSTRUCTION
 29429									;IN THE SUBTEST) TO LOOP ON ERROR^
 29430
 29431					;**********
 29432
 29433			001706		SN=SN+1
 29434			000005			ZZ=ZZ+1
 29435			000012			XX=XX+3
 29436	046274	201 06 0 00 777773 		MOVEI	ZZ+1,ZZ-XX	;SETUP INDEX REGISTER
 29437	046275	201 05 0 00 000005 		MOVEI	ZZ,ZZ		;PRELOAD AC WITH 0,,ZZ
 29438	046276	302 05 0 06 000012 		CAIE	ZZ,XX(ZZ+1)	;*TEST INDEXING
 29439						STOP^
 29440	046277	254 04 0 00 046300 		HALT	.+1		;TEST FAILED IF PROGRAM HALTS HERE
 29441	046300	324 00 0 00 046301 		JUMPA	.+1		;IF TEST FAILS, CHANGE THIS INSTRUCTION (JUMPA .+1) TO
 29442									;JUMPA X (X IS THE ADDRESS OF THE FIRST INSTRUCTION
 29443									;IN THE SUBTEST) TO LOOP ON ERROR^
 29444
 29445					;**********
 29446
 29447			001707		SN=SN+1
 29448			000006			ZZ=ZZ+1
DFKAA PDP-10 KL10 BASIC INSTRUCTION DIAGNOSTIC (1) VER 0,2	MACRO %53B(1254)-4 11:50 11-Nov-24 Page 11-2
DFKAA4	MAC	13-Jan-89 10:22		TEST OF INDEX REGISTER ADDRESSING

 29449			000015			XX=XX+3
 29450	046301	201 07 0 00 777771 		MOVEI	ZZ+1,ZZ-XX	;SETUP INDEX REGISTER
 29451	046302	201 06 0 00 000006 		MOVEI	ZZ,ZZ		;PRELOAD AC WITH 0,,ZZ
 29452	046303	302 06 0 07 000015 		CAIE	ZZ,XX(ZZ+1)	;*TEST INDEXING
 29453						STOP^
 29454	046304	254 04 0 00 046305 		HALT	.+1		;TEST FAILED IF PROGRAM HALTS HERE
 29455	046305	324 00 0 00 046306 		JUMPA	.+1		;IF TEST FAILS, CHANGE THIS INSTRUCTION (JUMPA .+1) TO
 29456									;JUMPA X (X IS THE ADDRESS OF THE FIRST INSTRUCTION
 29457									;IN THE SUBTEST) TO LOOP ON ERROR^
 29458
 29459					;**********
 29460
 29461			001710		SN=SN+1
 29462			000007			ZZ=ZZ+1
 29463			000020			XX=XX+3
 29464	046306	201 10 0 00 777767 		MOVEI	ZZ+1,ZZ-XX	;SETUP INDEX REGISTER
 29465	046307	201 07 0 00 000007 		MOVEI	ZZ,ZZ		;PRELOAD AC WITH 0,,ZZ
 29466	046310	302 07 0 10 000020 		CAIE	ZZ,XX(ZZ+1)	;*TEST INDEXING
 29467						STOP^
 29468	046311	254 04 0 00 046312 		HALT	.+1		;TEST FAILED IF PROGRAM HALTS HERE
 29469	046312	324 00 0 00 046313 		JUMPA	.+1		;IF TEST FAILS, CHANGE THIS INSTRUCTION (JUMPA .+1) TO
 29470									;JUMPA X (X IS THE ADDRESS OF THE FIRST INSTRUCTION
 29471									;IN THE SUBTEST) TO LOOP ON ERROR^
 29472
 29473					;**********
 29474
 29475			001711		SN=SN+1
 29476			000010			ZZ=ZZ+1
 29477			000023			XX=XX+3
 29478	046313	201 11 0 00 777765 		MOVEI	ZZ+1,ZZ-XX	;SETUP INDEX REGISTER
 29479	046314	201 10 0 00 000010 		MOVEI	ZZ,ZZ		;PRELOAD AC WITH 0,,ZZ
 29480	046315	302 10 0 11 000023 		CAIE	ZZ,XX(ZZ+1)	;*TEST INDEXING
 29481						STOP^
 29482	046316	254 04 0 00 046317 		HALT	.+1		;TEST FAILED IF PROGRAM HALTS HERE
 29483	046317	324 00 0 00 046320 		JUMPA	.+1		;IF TEST FAILS, CHANGE THIS INSTRUCTION (JUMPA .+1) TO
 29484									;JUMPA X (X IS THE ADDRESS OF THE FIRST INSTRUCTION
 29485									;IN THE SUBTEST) TO LOOP ON ERROR^
 29486
 29487					;**********
 29488
 29489			001712		SN=SN+1
 29490			000011			ZZ=ZZ+1
 29491			000026			XX=XX+3
 29492	046320	201 12 0 00 777763 		MOVEI	ZZ+1,ZZ-XX	;SETUP INDEX REGISTER
 29493	046321	201 11 0 00 000011 		MOVEI	ZZ,ZZ		;PRELOAD AC WITH 0,,ZZ
 29494	046322	302 11 0 12 000026 		CAIE	ZZ,XX(ZZ+1)	;*TEST INDEXING
 29495						STOP^
 29496	046323	254 04 0 00 046324 		HALT	.+1		;TEST FAILED IF PROGRAM HALTS HERE
 29497	046324	324 00 0 00 046325 		JUMPA	.+1		;IF TEST FAILS, CHANGE THIS INSTRUCTION (JUMPA .+1) TO
 29498									;JUMPA X (X IS THE ADDRESS OF THE FIRST INSTRUCTION
 29499									;IN THE SUBTEST) TO LOOP ON ERROR^
 29500
 29501					;**********
 29502
 29503			001713		SN=SN+1
DFKAA PDP-10 KL10 BASIC INSTRUCTION DIAGNOSTIC (1) VER 0,2	MACRO %53B(1254)-4 11:50 11-Nov-24 Page 11-3
DFKAA4	MAC	13-Jan-89 10:22		TEST OF INDEX REGISTER ADDRESSING

 29504			000012			ZZ=ZZ+1
 29505			000031			XX=XX+3
 29506	046325	201 13 0 00 777761 		MOVEI	ZZ+1,ZZ-XX	;SETUP INDEX REGISTER
 29507	046326	201 12 0 00 000012 		MOVEI	ZZ,ZZ		;PRELOAD AC WITH 0,,ZZ
 29508	046327	302 12 0 13 000031 		CAIE	ZZ,XX(ZZ+1)	;*TEST INDEXING
 29509						STOP^
 29510	046330	254 04 0 00 046331 		HALT	.+1		;TEST FAILED IF PROGRAM HALTS HERE
 29511	046331	324 00 0 00 046332 		JUMPA	.+1		;IF TEST FAILS, CHANGE THIS INSTRUCTION (JUMPA .+1) TO
 29512									;JUMPA X (X IS THE ADDRESS OF THE FIRST INSTRUCTION
 29513									;IN THE SUBTEST) TO LOOP ON ERROR^
 29514
 29515					;**********
 29516
 29517			001714		SN=SN+1
 29518			000013			ZZ=ZZ+1
 29519			000034			XX=XX+3
 29520	046332	201 14 0 00 777757 		MOVEI	ZZ+1,ZZ-XX	;SETUP INDEX REGISTER
 29521	046333	201 13 0 00 000013 		MOVEI	ZZ,ZZ		;PRELOAD AC WITH 0,,ZZ
 29522	046334	302 13 0 14 000034 		CAIE	ZZ,XX(ZZ+1)	;*TEST INDEXING
 29523						STOP^
 29524	046335	254 04 0 00 046336 		HALT	.+1		;TEST FAILED IF PROGRAM HALTS HERE
 29525	046336	324 00 0 00 046337 		JUMPA	.+1		;IF TEST FAILS, CHANGE THIS INSTRUCTION (JUMPA .+1) TO
 29526									;JUMPA X (X IS THE ADDRESS OF THE FIRST INSTRUCTION
 29527									;IN THE SUBTEST) TO LOOP ON ERROR^
 29528
 29529					;**********
 29530
 29531			001715		SN=SN+1
 29532			000014			ZZ=ZZ+1
 29533			000037			XX=XX+3
 29534	046337	201 15 0 00 777755 		MOVEI	ZZ+1,ZZ-XX	;SETUP INDEX REGISTER
 29535	046340	201 14 0 00 000014 		MOVEI	ZZ,ZZ		;PRELOAD AC WITH 0,,ZZ
 29536	046341	302 14 0 15 000037 		CAIE	ZZ,XX(ZZ+1)	;*TEST INDEXING
 29537						STOP^
 29538	046342	254 04 0 00 046343 		HALT	.+1		;TEST FAILED IF PROGRAM HALTS HERE
 29539	046343	324 00 0 00 046344 		JUMPA	.+1		;IF TEST FAILS, CHANGE THIS INSTRUCTION (JUMPA .+1) TO
 29540									;JUMPA X (X IS THE ADDRESS OF THE FIRST INSTRUCTION
 29541									;IN THE SUBTEST) TO LOOP ON ERROR^
 29542
 29543					;**********
 29544
 29545			001716		SN=SN+1
 29546			000015			ZZ=ZZ+1
 29547			000042			XX=XX+3
 29548	046344	201 16 0 00 777753 		MOVEI	ZZ+1,ZZ-XX	;SETUP INDEX REGISTER
 29549	046345	201 15 0 00 000015 		MOVEI	ZZ,ZZ		;PRELOAD AC WITH 0,,ZZ
 29550	046346	302 15 0 16 000042 		CAIE	ZZ,XX(ZZ+1)	;*TEST INDEXING
 29551						STOP^
 29552	046347	254 04 0 00 046350 		HALT	.+1		;TEST FAILED IF PROGRAM HALTS HERE
 29553	046350	324 00 0 00 046351 		JUMPA	.+1		;IF TEST FAILS, CHANGE THIS INSTRUCTION (JUMPA .+1) TO
 29554									;JUMPA X (X IS THE ADDRESS OF THE FIRST INSTRUCTION
 29555									;IN THE SUBTEST) TO LOOP ON ERROR^
 29556
 29557					;**********
 29558
DFKAA PDP-10 KL10 BASIC INSTRUCTION DIAGNOSTIC (1) VER 0,2	MACRO %53B(1254)-4 11:50 11-Nov-24 Page 11-4
DFKAA4	MAC	13-Jan-89 10:22		TEST OF INDEX REGISTER ADDRESSING

 29559			001717		SN=SN+1
 29560			000016			ZZ=ZZ+1
 29561			000045			XX=XX+3
 29562	046351	201 17 0 00 777751 		MOVEI	ZZ+1,ZZ-XX	;SETUP INDEX REGISTER
 29563	046352	201 16 0 00 000016 		MOVEI	ZZ,ZZ		;PRELOAD AC WITH 0,,ZZ
 29564	046353	302 16 0 17 000045 		CAIE	ZZ,XX(ZZ+1)	;*TEST INDEXING
 29565						STOP^
 29566	046354	254 04 0 00 046355 		HALT	.+1		;TEST FAILED IF PROGRAM HALTS HERE
 29567	046355	324 00 0 00 046356 		JUMPA	.+1		;IF TEST FAILS, CHANGE THIS INSTRUCTION (JUMPA .+1) TO
 29568									;JUMPA X (X IS THE ADDRESS OF THE FIRST INSTRUCTION
 29569									;IN THE SUBTEST) TO LOOP ON ERROR^
 29570
 29571					;**********
 29572
 29573					PAGE
DFKAA PDP-10 KL10 BASIC INSTRUCTION DIAGNOSTIC (1) VER 0,2	MACRO %53B(1254)-4 11:50 11-Nov-24 Page 11-5
DFKAA4	MAC	13-Jan-89 10:22		TEST OF INDEX REGISTER ADDRESSING

 29574			002000		SN=2000
 29575		777777	777777			ZZ=-1
 29576		777777	777760			XX=-20
 29577
 29578					;THIS TEST VERIFIES THAT INDEX REGISTER ADDRESSING FUNCTIONS CORRECTLY.
 29579					;IN THIS TEST, THE INDEX REG IS SET-UP WITH MOVEI ZZ+1,ZZ-XX,
 29580					;WHERE ZZ+1 IS THE INDEX REG.  INDEXING IS TESTED BY LOADING
 29581					;THE AC VIA MOVEI ZZ,XX(ZZ+1), WHERE XX+C(ZZ+1)=ZZ.
 29582					;IF THE RESULT IN THE AC EQUALS 0,,ZZ, THIS TEST PASSES.
 29583
 29584					C2000:	REPEAT	^D15,
 29585					<SN=SN+1
 29586						ZZ=ZZ+1
 29587						XX=XX+5
 29588						MOVEI	ZZ+1,ZZ-XX	;SETUP INDEX REGISTER
 29589						MOVEI	ZZ,XX(ZZ+1)	;*TEST INDEXING
 29590						CAIE	ZZ,ZZ		;PASS IF C(AC)=0,,ADDRESS OF AC
 29591						STOP
 29592
 29593					;**********
 29594					>
 29595			002001		SN=SN+1
 29596			000000			ZZ=ZZ+1
 29597		777777	777765			XX=XX+5
 29598	046356	201 01 0 00 000013 		MOVEI	ZZ+1,ZZ-XX	;SETUP INDEX REGISTER
 29599	046357	201 00 0 01 777765 		MOVEI	ZZ,XX(ZZ+1)	;*TEST INDEXING
 29600	046360	302 00 0 00 000000 		CAIE	ZZ,ZZ		;PASS IF C(AC)=0,,ADDRESS OF AC
 29601						STOP^
 29602	046361	254 04 0 00 046362 		HALT	.+1		;TEST FAILED IF PROGRAM HALTS HERE
 29603	046362	324 00 0 00 046363 		JUMPA	.+1		;IF TEST FAILS, CHANGE THIS INSTRUCTION (JUMPA .+1) TO
 29604									;JUMPA X (X IS THE ADDRESS OF THE FIRST INSTRUCTION
 29605									;IN THE SUBTEST) TO LOOP ON ERROR^
 29606
 29607					;**********
 29608
 29609			002002		SN=SN+1
 29610			000001			ZZ=ZZ+1
 29611		777777	777772			XX=XX+5
 29612	046363	201 02 0 00 000007 		MOVEI	ZZ+1,ZZ-XX	;SETUP INDEX REGISTER
 29613	046364	201 01 0 02 777772 		MOVEI	ZZ,XX(ZZ+1)	;*TEST INDEXING
 29614	046365	302 01 0 00 000001 		CAIE	ZZ,ZZ		;PASS IF C(AC)=0,,ADDRESS OF AC
 29615						STOP^
 29616	046366	254 04 0 00 046367 		HALT	.+1		;TEST FAILED IF PROGRAM HALTS HERE
 29617	046367	324 00 0 00 046370 		JUMPA	.+1		;IF TEST FAILS, CHANGE THIS INSTRUCTION (JUMPA .+1) TO
 29618									;JUMPA X (X IS THE ADDRESS OF THE FIRST INSTRUCTION
 29619									;IN THE SUBTEST) TO LOOP ON ERROR^
 29620
 29621					;**********
 29622
 29623			002003		SN=SN+1
 29624			000002			ZZ=ZZ+1
 29625		777777	777777			XX=XX+5
 29626	046370	201 03 0 00 000003 		MOVEI	ZZ+1,ZZ-XX	;SETUP INDEX REGISTER
 29627	046371	201 02 0 03 777777 		MOVEI	ZZ,XX(ZZ+1)	;*TEST INDEXING
 29628	046372	302 02 0 00 000002 		CAIE	ZZ,ZZ		;PASS IF C(AC)=0,,ADDRESS OF AC
DFKAA PDP-10 KL10 BASIC INSTRUCTION DIAGNOSTIC (1) VER 0,2	MACRO %53B(1254)-4 11:50 11-Nov-24 Page 11-6
DFKAA4	MAC	13-Jan-89 10:22		TEST OF INDEX REGISTER ADDRESSING

 29629						STOP^
 29630	046373	254 04 0 00 046374 		HALT	.+1		;TEST FAILED IF PROGRAM HALTS HERE
 29631	046374	324 00 0 00 046375 		JUMPA	.+1		;IF TEST FAILS, CHANGE THIS INSTRUCTION (JUMPA .+1) TO
 29632									;JUMPA X (X IS THE ADDRESS OF THE FIRST INSTRUCTION
 29633									;IN THE SUBTEST) TO LOOP ON ERROR^
 29634
 29635					;**********
 29636
 29637			002004		SN=SN+1
 29638			000003			ZZ=ZZ+1
 29639			000004			XX=XX+5
 29640	046375	201 04 0 00 777777 		MOVEI	ZZ+1,ZZ-XX	;SETUP INDEX REGISTER
 29641	046376	201 03 0 04 000004 		MOVEI	ZZ,XX(ZZ+1)	;*TEST INDEXING
 29642	046377	302 03 0 00 000003 		CAIE	ZZ,ZZ		;PASS IF C(AC)=0,,ADDRESS OF AC
 29643						STOP^
 29644	046400	254 04 0 00 046401 		HALT	.+1		;TEST FAILED IF PROGRAM HALTS HERE
 29645	046401	324 00 0 00 046402 		JUMPA	.+1		;IF TEST FAILS, CHANGE THIS INSTRUCTION (JUMPA .+1) TO
 29646									;JUMPA X (X IS THE ADDRESS OF THE FIRST INSTRUCTION
 29647									;IN THE SUBTEST) TO LOOP ON ERROR^
 29648
 29649					;**********
 29650
 29651			002005		SN=SN+1
 29652			000004			ZZ=ZZ+1
 29653			000011			XX=XX+5
 29654	046402	201 05 0 00 777773 		MOVEI	ZZ+1,ZZ-XX	;SETUP INDEX REGISTER
 29655	046403	201 04 0 05 000011 		MOVEI	ZZ,XX(ZZ+1)	;*TEST INDEXING
 29656	046404	302 04 0 00 000004 		CAIE	ZZ,ZZ		;PASS IF C(AC)=0,,ADDRESS OF AC
 29657						STOP^
 29658	046405	254 04 0 00 046406 		HALT	.+1		;TEST FAILED IF PROGRAM HALTS HERE
 29659	046406	324 00 0 00 046407 		JUMPA	.+1		;IF TEST FAILS, CHANGE THIS INSTRUCTION (JUMPA .+1) TO
 29660									;JUMPA X (X IS THE ADDRESS OF THE FIRST INSTRUCTION
 29661									;IN THE SUBTEST) TO LOOP ON ERROR^
 29662
 29663					;**********
 29664
 29665			002006		SN=SN+1
 29666			000005			ZZ=ZZ+1
 29667			000016			XX=XX+5
 29668	046407	201 06 0 00 777767 		MOVEI	ZZ+1,ZZ-XX	;SETUP INDEX REGISTER
 29669	046410	201 05 0 06 000016 		MOVEI	ZZ,XX(ZZ+1)	;*TEST INDEXING
 29670	046411	302 05 0 00 000005 		CAIE	ZZ,ZZ		;PASS IF C(AC)=0,,ADDRESS OF AC
 29671						STOP^
 29672	046412	254 04 0 00 046413 		HALT	.+1		;TEST FAILED IF PROGRAM HALTS HERE
 29673	046413	324 00 0 00 046414 		JUMPA	.+1		;IF TEST FAILS, CHANGE THIS INSTRUCTION (JUMPA .+1) TO
 29674									;JUMPA X (X IS THE ADDRESS OF THE FIRST INSTRUCTION
 29675									;IN THE SUBTEST) TO LOOP ON ERROR^
 29676
 29677					;**********
 29678
 29679			002007		SN=SN+1
 29680			000006			ZZ=ZZ+1
 29681			000023			XX=XX+5
 29682	046414	201 07 0 00 777763 		MOVEI	ZZ+1,ZZ-XX	;SETUP INDEX REGISTER
 29683	046415	201 06 0 07 000023 		MOVEI	ZZ,XX(ZZ+1)	;*TEST INDEXING
DFKAA PDP-10 KL10 BASIC INSTRUCTION DIAGNOSTIC (1) VER 0,2	MACRO %53B(1254)-4 11:50 11-Nov-24 Page 11-7
DFKAA4	MAC	13-Jan-89 10:22		TEST OF INDEX REGISTER ADDRESSING

 29684	046416	302 06 0 00 000006 		CAIE	ZZ,ZZ		;PASS IF C(AC)=0,,ADDRESS OF AC
 29685						STOP^
 29686	046417	254 04 0 00 046420 		HALT	.+1		;TEST FAILED IF PROGRAM HALTS HERE
 29687	046420	324 00 0 00 046421 		JUMPA	.+1		;IF TEST FAILS, CHANGE THIS INSTRUCTION (JUMPA .+1) TO
 29688									;JUMPA X (X IS THE ADDRESS OF THE FIRST INSTRUCTION
 29689									;IN THE SUBTEST) TO LOOP ON ERROR^
 29690
 29691					;**********
 29692
 29693			002010		SN=SN+1
 29694			000007			ZZ=ZZ+1
 29695			000030			XX=XX+5
 29696	046421	201 10 0 00 777757 		MOVEI	ZZ+1,ZZ-XX	;SETUP INDEX REGISTER
 29697	046422	201 07 0 10 000030 		MOVEI	ZZ,XX(ZZ+1)	;*TEST INDEXING
 29698	046423	302 07 0 00 000007 		CAIE	ZZ,ZZ		;PASS IF C(AC)=0,,ADDRESS OF AC
 29699						STOP^
 29700	046424	254 04 0 00 046425 		HALT	.+1		;TEST FAILED IF PROGRAM HALTS HERE
 29701	046425	324 00 0 00 046426 		JUMPA	.+1		;IF TEST FAILS, CHANGE THIS INSTRUCTION (JUMPA .+1) TO
 29702									;JUMPA X (X IS THE ADDRESS OF THE FIRST INSTRUCTION
 29703									;IN THE SUBTEST) TO LOOP ON ERROR^
 29704
 29705					;**********
 29706
 29707			002011		SN=SN+1
 29708			000010			ZZ=ZZ+1
 29709			000035			XX=XX+5
 29710	046426	201 11 0 00 777753 		MOVEI	ZZ+1,ZZ-XX	;SETUP INDEX REGISTER
 29711	046427	201 10 0 11 000035 		MOVEI	ZZ,XX(ZZ+1)	;*TEST INDEXING
 29712	046430	302 10 0 00 000010 		CAIE	ZZ,ZZ		;PASS IF C(AC)=0,,ADDRESS OF AC
 29713						STOP^
 29714	046431	254 04 0 00 046432 		HALT	.+1		;TEST FAILED IF PROGRAM HALTS HERE
 29715	046432	324 00 0 00 046433 		JUMPA	.+1		;IF TEST FAILS, CHANGE THIS INSTRUCTION (JUMPA .+1) TO
 29716									;JUMPA X (X IS THE ADDRESS OF THE FIRST INSTRUCTION
 29717									;IN THE SUBTEST) TO LOOP ON ERROR^
 29718
 29719					;**********
 29720
 29721			002012		SN=SN+1
 29722			000011			ZZ=ZZ+1
 29723			000042			XX=XX+5
 29724	046433	201 12 0 00 777747 		MOVEI	ZZ+1,ZZ-XX	;SETUP INDEX REGISTER
 29725	046434	201 11 0 12 000042 		MOVEI	ZZ,XX(ZZ+1)	;*TEST INDEXING
 29726	046435	302 11 0 00 000011 		CAIE	ZZ,ZZ		;PASS IF C(AC)=0,,ADDRESS OF AC
 29727						STOP^
 29728	046436	254 04 0 00 046437 		HALT	.+1		;TEST FAILED IF PROGRAM HALTS HERE
 29729	046437	324 00 0 00 046440 		JUMPA	.+1		;IF TEST FAILS, CHANGE THIS INSTRUCTION (JUMPA .+1) TO
 29730									;JUMPA X (X IS THE ADDRESS OF THE FIRST INSTRUCTION
 29731									;IN THE SUBTEST) TO LOOP ON ERROR^
 29732
 29733					;**********
 29734
 29735			002013		SN=SN+1
 29736			000012			ZZ=ZZ+1
 29737			000047			XX=XX+5
 29738	046440	201 13 0 00 777743 		MOVEI	ZZ+1,ZZ-XX	;SETUP INDEX REGISTER
DFKAA PDP-10 KL10 BASIC INSTRUCTION DIAGNOSTIC (1) VER 0,2	MACRO %53B(1254)-4 11:50 11-Nov-24 Page 11-8
DFKAA4	MAC	13-Jan-89 10:22		TEST OF INDEX REGISTER ADDRESSING

 29739	046441	201 12 0 13 000047 		MOVEI	ZZ,XX(ZZ+1)	;*TEST INDEXING
 29740	046442	302 12 0 00 000012 		CAIE	ZZ,ZZ		;PASS IF C(AC)=0,,ADDRESS OF AC
 29741						STOP^
 29742	046443	254 04 0 00 046444 		HALT	.+1		;TEST FAILED IF PROGRAM HALTS HERE
 29743	046444	324 00 0 00 046445 		JUMPA	.+1		;IF TEST FAILS, CHANGE THIS INSTRUCTION (JUMPA .+1) TO
 29744									;JUMPA X (X IS THE ADDRESS OF THE FIRST INSTRUCTION
 29745									;IN THE SUBTEST) TO LOOP ON ERROR^
 29746
 29747					;**********
 29748
 29749			002014		SN=SN+1
 29750			000013			ZZ=ZZ+1
 29751			000054			XX=XX+5
 29752	046445	201 14 0 00 777737 		MOVEI	ZZ+1,ZZ-XX	;SETUP INDEX REGISTER
 29753	046446	201 13 0 14 000054 		MOVEI	ZZ,XX(ZZ+1)	;*TEST INDEXING
 29754	046447	302 13 0 00 000013 		CAIE	ZZ,ZZ		;PASS IF C(AC)=0,,ADDRESS OF AC
 29755						STOP^
 29756	046450	254 04 0 00 046451 		HALT	.+1		;TEST FAILED IF PROGRAM HALTS HERE
 29757	046451	324 00 0 00 046452 		JUMPA	.+1		;IF TEST FAILS, CHANGE THIS INSTRUCTION (JUMPA .+1) TO
 29758									;JUMPA X (X IS THE ADDRESS OF THE FIRST INSTRUCTION
 29759									;IN THE SUBTEST) TO LOOP ON ERROR^
 29760
 29761					;**********
 29762
 29763			002015		SN=SN+1
 29764			000014			ZZ=ZZ+1
 29765			000061			XX=XX+5
 29766	046452	201 15 0 00 777733 		MOVEI	ZZ+1,ZZ-XX	;SETUP INDEX REGISTER
 29767	046453	201 14 0 15 000061 		MOVEI	ZZ,XX(ZZ+1)	;*TEST INDEXING
 29768	046454	302 14 0 00 000014 		CAIE	ZZ,ZZ		;PASS IF C(AC)=0,,ADDRESS OF AC
 29769						STOP^
 29770	046455	254 04 0 00 046456 		HALT	.+1		;TEST FAILED IF PROGRAM HALTS HERE
 29771	046456	324 00 0 00 046457 		JUMPA	.+1		;IF TEST FAILS, CHANGE THIS INSTRUCTION (JUMPA .+1) TO
 29772									;JUMPA X (X IS THE ADDRESS OF THE FIRST INSTRUCTION
 29773									;IN THE SUBTEST) TO LOOP ON ERROR^
 29774
 29775					;**********
 29776
 29777			002016		SN=SN+1
 29778			000015			ZZ=ZZ+1
 29779			000066			XX=XX+5
 29780	046457	201 16 0 00 777727 		MOVEI	ZZ+1,ZZ-XX	;SETUP INDEX REGISTER
 29781	046460	201 15 0 16 000066 		MOVEI	ZZ,XX(ZZ+1)	;*TEST INDEXING
 29782	046461	302 15 0 00 000015 		CAIE	ZZ,ZZ		;PASS IF C(AC)=0,,ADDRESS OF AC
 29783						STOP^
 29784	046462	254 04 0 00 046463 		HALT	.+1		;TEST FAILED IF PROGRAM HALTS HERE
 29785	046463	324 00 0 00 046464 		JUMPA	.+1		;IF TEST FAILS, CHANGE THIS INSTRUCTION (JUMPA .+1) TO
 29786									;JUMPA X (X IS THE ADDRESS OF THE FIRST INSTRUCTION
 29787									;IN THE SUBTEST) TO LOOP ON ERROR^
 29788
 29789					;**********
 29790
 29791			002017		SN=SN+1
 29792			000016			ZZ=ZZ+1
 29793			000073			XX=XX+5
DFKAA PDP-10 KL10 BASIC INSTRUCTION DIAGNOSTIC (1) VER 0,2	MACRO %53B(1254)-4 11:50 11-Nov-24 Page 11-9
DFKAA4	MAC	13-Jan-89 10:22		TEST OF INDEX REGISTER ADDRESSING

 29794	046464	201 17 0 00 777723 		MOVEI	ZZ+1,ZZ-XX	;SETUP INDEX REGISTER
 29795	046465	201 16 0 17 000073 		MOVEI	ZZ,XX(ZZ+1)	;*TEST INDEXING
 29796	046466	302 16 0 00 000016 		CAIE	ZZ,ZZ		;PASS IF C(AC)=0,,ADDRESS OF AC
 29797						STOP^
 29798	046467	254 04 0 00 046470 		HALT	.+1		;TEST FAILED IF PROGRAM HALTS HERE
 29799	046470	324 00 0 00 046471 		JUMPA	.+1		;IF TEST FAILS, CHANGE THIS INSTRUCTION (JUMPA .+1) TO
 29800									;JUMPA X (X IS THE ADDRESS OF THE FIRST INSTRUCTION
 29801									;IN THE SUBTEST) TO LOOP ON ERROR^
 29802
 29803					;**********
 29804
DFKAA PDP-10 KL10 BASIC INSTRUCTION DIAGNOSTIC (1) VER 0,2	MACRO %53B(1254)-4 11:50 11-Nov-24 Page 12
DFKAA4	MAC	13-Jan-89 10:22		TEST OF EXCH INSTRUCTION

 29805					SUBTTL	TEST OF EXCH INSTRUCTION
 29806
 29807					;**********
 29808
 29809					;THIS TEST VERIFIES THAT EXCH MOVES C(E) INTO AC AND
 29810					;MOVES C(AC) INTO E.
 29811					;IN THIS CASE, AC=E=0 AND C(AC)=C(E).  HENCE, THE FINAL RESULT
 29812					;IN AC0 SHOULD BE 0.  IF C(AC)=0, THE TEST PASSES.
 29813
 29814	046471	400 00 0 00 000000 	C2100:	SETZ			;PRELOAD AC,E WITH 0
 29815	046472	250 00 0 00 000000 		EXCH			;*EXCH SHOULD PLACE 0 INTO AC0
 29816	046473	332 00 0 00 000000 		SKIPE			;PASS IF C(AC0)=0
 29817						STOP^
 29818	046474	254 04 0 00 046475 		HALT	.+1		;TEST FAILED IF PROGRAM HALTS HERE
 29819	046475	324 00 0 00 046476 		JUMPA	.+1		;IF TEST FAILS, CHANGE THIS INSTRUCTION (JUMPA .+1) TO
 29820									;JUMPA X (X IS THE ADDRESS OF THE FIRST INSTRUCTION
 29821									;IN THE SUBTEST) TO LOOP ON ERROR^
 29822
 29823					;**********
 29824
 29825					;THIS TEST VERIFIES THAT EXCH MOVES C(E) INTO AC AND
 29826					;MOVES C(AC) INTO E.
 29827					;IN THIS CASE, AC=E=-1,,-1 AND C(AC)=C(E).  HENCE, THE FINAL RESULT
 29828					;IN AC0 SHOULD BE -1,,-1.  IF C(AC)=-1,,-1, THE TEST PASSES.
 29829
 29830	046476	474 00 0 00 000000 	C2200:	SETO			;PRELOAD AC,E WITH -1,,-1
 29831	046477	250 00 0 00 000000 		EXCH			;*EXCH SHOULD PLACE -1,,-1 INTO AC0
 29832	046500	312 00 0 00 070254 		CAME	[-1]		;PASS IF C(AC0)=-1,,-1
 29833						STOP^
 29834	046501	254 04 0 00 046502 		HALT	.+1		;TEST FAILED IF PROGRAM HALTS HERE
 29835	046502	324 00 0 00 046503 		JUMPA	.+1		;IF TEST FAILS, CHANGE THIS INSTRUCTION (JUMPA .+1) TO
 29836									;JUMPA X (X IS THE ADDRESS OF THE FIRST INSTRUCTION
 29837									;IN THE SUBTEST) TO LOOP ON ERROR^
 29838
 29839					;**********
DFKAA PDP-10 KL10 BASIC INSTRUCTION DIAGNOSTIC (1) VER 0,2	MACRO %53B(1254)-4 11:50 11-Nov-24 Page 13
DFKAA4	MAC	13-Jan-89 10:22		TEST OF EXCH INSTRUCTION

 29840					;THIS TEST VERIFIES THAT EXCH MOVES C(E) INTO AC AND
 29841					;MOVES C(AC) INTO E.
 29842					;IN THIS CASE, C(AC)=-1,,0 AND C(E)=0,,-1.  HENCE, THE FINAL RESULT
 29843					;IN THE AC SHOULD BE 0,,-1 AND THE RESULT IN E SHOULD BE -1,,0,
 29844					;IF THESE RESULTS OCCUR, THE TEST PASSES.
 29845
 29846	046503	205 00 0 00 777777 	C2400:	MOVSI	-1		;PRELOAD AC WITH -1,,0
 29847	046504	201 01 0 00 777777 		MOVEI	1,-1		;PRELOAD E WITH 0,,-1
 29848	046505	250 00 0 00 000001 		EXCH	1		;*EXCH SHOULD PLACE 0,,-1 INTO THE AC AND -1,,0 INTO E
 29849	046506	312 01 0 00 070331 		CAME	1,[-1,,0]	;PASS IF C(E)=-1,,0
 29850						STOP^
 29851	046507	254 04 0 00 046510 		HALT	.+1		;TEST FAILED IF PROGRAM HALTS HERE
 29852	046510	324 00 0 00 046511 		JUMPA	.+1		;IF TEST FAILS, CHANGE THIS INSTRUCTION (JUMPA .+1) TO
 29853									;JUMPA X (X IS THE ADDRESS OF THE FIRST INSTRUCTION
 29854									;IN THE SUBTEST) TO LOOP ON ERROR^
 29855	046511	312 00 0 00 070330 	C2410:	CAME	0,[0,,-1]	;PASS IF C(AC)=0,,-1
 29856						STOP^
 29857	046512	254 04 0 00 046513 		HALT	.+1		;TEST FAILED IF PROGRAM HALTS HERE
 29858	046513	324 00 0 00 046514 		JUMPA	.+1		;IF TEST FAILS, CHANGE THIS INSTRUCTION (JUMPA .+1) TO
 29859									;JUMPA X (X IS THE ADDRESS OF THE FIRST INSTRUCTION
 29860									;IN THE SUBTEST) TO LOOP ON ERROR^
 29861
 29862					;**********
 29863
 29864					;THIS TEST VERIFIES THAT EXCH MOVES C(E) INTO AC AND
 29865					;MOVES C(AC) INTO E.
 29866					;IN THIS CASE, C(AC)=0,,-1 AND C(E)=-1,,0.  HENCE, THE FINAL RESULT
 29867					;IN THE AC SHOULD BE -1,,0 AND THE RESULT IN E SHOULD BE 0,,-1.
 29868					;IF THESE RESULTS OCCUR, THE TEST PASSES.
 29869
 29870	046514	201 00 0 00 777777 	C2700:	MOVEI	-1		;PRELOAD AC WITH 0,,-1
 29871	046515	205 01 0 00 777777 		MOVSI	1,-1		;PRELOAD E WITH -1,,0
 29872	046516	250 00 0 00 000001 		EXCH	1		;*EXCH SHOULD PLACE -1,,0 INTO THE AC AND 0,,-1 INTO E
 29873	046517	302 01 0 00 777777 		CAIE	1,-1		;PASS IF C(E)=0,,-1
 29874						STOP^
 29875	046520	254 04 0 00 046521 		HALT	.+1		;TEST FAILED IF PROGRAM HALTS HERE
 29876	046521	324 00 0 00 046522 		JUMPA	.+1		;IF TEST FAILS, CHANGE THIS INSTRUCTION (JUMPA .+1) TO
 29877									;JUMPA X (X IS THE ADDRESS OF THE FIRST INSTRUCTION
 29878									;IN THE SUBTEST) TO LOOP ON ERROR^
 29879	046522	312 00 0 00 070331 	C2710:	CAME	,[XWD -1,0]	;PASS IF C(AC)=-1,,0
 29880						STOP^
 29881	046523	254 04 0 00 046524 		HALT	.+1		;TEST FAILED IF PROGRAM HALTS HERE
 29882	046524	324 00 0 00 046525 		JUMPA	.+1		;IF TEST FAILS, CHANGE THIS INSTRUCTION (JUMPA .+1) TO
 29883									;JUMPA X (X IS THE ADDRESS OF THE FIRST INSTRUCTION
 29884									;IN THE SUBTEST) TO LOOP ON ERROR^
 29885
 29886					;**********
DFKAA PDP-10 KL10 BASIC INSTRUCTION DIAGNOSTIC (1) VER 0,2	MACRO %53B(1254)-4 11:50 11-Nov-24 Page 14
DFKAA4	MAC	13-Jan-89 10:22		TEST OF EXCH INSTRUCTION

 29887					;THIS TEST IS A RELIABILITY CHECK OF EXCH.
 29888					;FIRST, AC, E ARE PRELOADED WITH 252525,,252525.  THERE, EXCH IS
 29889					;EXECUTED 7 TIMES.  THE AC IS THEN CHECKED FOR 252525,,252525.
 29890					;IF C(AC)=C(E)=252525,,252525, THIS TEST PASSES.
 29891					;IN THIS TEST AC=E=AC0
 29892
 29893	046525	200 00 0 00 070614 	C3000:	MOVE	[252525252525]	;PRELOAD AC,E WITH 252525,,252525
 29894						REPEAT	7,
 29895					<	EXCH			;*EXCH SHOULD PLACE 252525,,252525 INTO AC0>
 29896	046526	250 00 0 00 000000 		EXCH			;*EXCH SHOULD PLACE 252525,,252525 INTO AC0
 29897	046527	250 00 0 00 000000 		EXCH			;*EXCH SHOULD PLACE 252525,,252525 INTO AC0
 29898	046530	250 00 0 00 000000 		EXCH			;*EXCH SHOULD PLACE 252525,,252525 INTO AC0
 29899	046531	250 00 0 00 000000 		EXCH			;*EXCH SHOULD PLACE 252525,,252525 INTO AC0
 29900	046532	250 00 0 00 000000 		EXCH			;*EXCH SHOULD PLACE 252525,,252525 INTO AC0
 29901	046533	250 00 0 00 000000 		EXCH			;*EXCH SHOULD PLACE 252525,,252525 INTO AC0
 29902	046534	250 00 0 00 000000 		EXCH			;*EXCH SHOULD PLACE 252525,,252525 INTO AC0
 29903	046535	312 00 0 00 070614 		CAME	[252525252525]	;PASS IF C(AC0)=252525,,252525
 29904						STOP^
 29905	046536	254 04 0 00 046537 		HALT	.+1		;TEST FAILED IF PROGRAM HALTS HERE
 29906	046537	324 00 0 00 046540 		JUMPA	.+1		;IF TEST FAILS, CHANGE THIS INSTRUCTION (JUMPA .+1) TO
 29907									;JUMPA X (X IS THE ADDRESS OF THE FIRST INSTRUCTION
 29908									;IN THE SUBTEST) TO LOOP ON ERROR^
 29909
 29910					;**********
 29911					PAGE
DFKAA PDP-10 KL10 BASIC INSTRUCTION DIAGNOSTIC (1) VER 0,2	MACRO %53B(1254)-4 11:50 11-Nov-24 Page 14-1
DFKAA4	MAC	13-Jan-89 10:22		TEST OF EXCH INSTRUCTION

 29912					;THIS TEST VERIFIES THAT EXCH MOVES C(AC) INTO E AND C(E) INTO THE AC.
 29913					;IN THIS CASE, C(AC)=0 AND C(E)=-1,,-1.  EXCH IS EXECUTED 7 TIMES; THEN,
 29914					;THE AC IS CHECKED FOR -1,,-1 AND E IS CHECKED FOR 0.  IF EITHER OF THESE
 29915					;RESULTS ARE NOT FOUND, THIS TEST FAILS.
 29916
 29917	046540	400 00 0 00 000000 	C3100:	SETZ			;PRELOAD AC WITH 0
 29918	046541	474 01 0 00 000000 		SETO	1,0		;PRELOAD E WITH -1,,-1
 29919						REPEAT	7,
 29920					<	EXCH	1		;*EXCH SHOULD EXCHANGE C(AC) AND C(E)>
 29921	046542	250 00 0 00 000001 		EXCH	1		;*EXCH SHOULD EXCHANGE C(AC) AND C(E)
 29922	046543	250 00 0 00 000001 		EXCH	1		;*EXCH SHOULD EXCHANGE C(AC) AND C(E)
 29923	046544	250 00 0 00 000001 		EXCH	1		;*EXCH SHOULD EXCHANGE C(AC) AND C(E)
 29924	046545	250 00 0 00 000001 		EXCH	1		;*EXCH SHOULD EXCHANGE C(AC) AND C(E)
 29925	046546	250 00 0 00 000001 		EXCH	1		;*EXCH SHOULD EXCHANGE C(AC) AND C(E)
 29926	046547	250 00 0 00 000001 		EXCH	1		;*EXCH SHOULD EXCHANGE C(AC) AND C(E)
 29927	046550	250 00 0 00 000001 		EXCH	1		;*EXCH SHOULD EXCHANGE C(AC) AND C(E)
 29928	046551	312 00 0 00 070254 		CAME	[-1]		;PASS IF C(AC)=-1,,-1
 29929						STOP^
 29930	046552	254 04 0 00 046553 		HALT	.+1		;TEST FAILED IF PROGRAM HALTS HERE
 29931	046553	324 00 0 00 046554 		JUMPA	.+1		;IF TEST FAILS, CHANGE THIS INSTRUCTION (JUMPA .+1) TO
 29932									;JUMPA X (X IS THE ADDRESS OF THE FIRST INSTRUCTION
 29933									;IN THE SUBTEST) TO LOOP ON ERROR^
 29934	046554	312 01 0 00 070253 	C3110:	CAME	1,[0]		;PASS IF C(E)=0
 29935						STOP^
 29936	046555	254 04 0 00 046556 		HALT	.+1		;TEST FAILED IF PROGRAM HALTS HERE
 29937	046556	324 00 0 00 046557 		JUMPA	.+1		;IF TEST FAILS, CHANGE THIS INSTRUCTION (JUMPA .+1) TO
 29938									;JUMPA X (X IS THE ADDRESS OF THE FIRST INSTRUCTION
 29939									;IN THE SUBTEST) TO LOOP ON ERROR^
 29940
 29941					;**********
DFKAA PDP-10 KL10 BASIC INSTRUCTION DIAGNOSTIC (1) VER 0,2	MACRO %53B(1254)-4 11:50 11-Nov-24 Page 15
DFKAA4	MAC	13-Jan-89 10:22		TEST OF MOVEM INSTRUCTION

 29942					SUBTTL	TEST OF MOVEM INSTRUCTION
 29943
 29944					;THIS TEST VERIFIES THAT MOVEM PLACES C(AC) INTO E AND DOES NOT MODIFY C(AC)
 29945					;IN THIS CASE, C(AC)=-1,,-1 AND C(E)=0.  HENCE, THE RESULT IN AC AND E SHOULD
 29946					;BE -1,,-1.  IF C(AC) AND C(E)=-1,,-1, THIS TEST PASSES
 29947
 29948	046557	474 00 0 00 000000 	C3200:	SETO			;PRELOAD AC WITH -1,,-1
 29949	046560	400 01 0 00 000000 		SETZ	1,0		;PRELOAD E WITH 0
 29950	046561	202 00 0 00 000001 		MOVEM	1		;*MOVEM SHOULD PLACE -1,,-1 INTO E
 29951	046562	312 01 0 00 070254 		CAME	1,[-1]		;PASS IF C(E)=-1,,-1
 29952						STOP^
 29953	046563	254 04 0 00 046564 		HALT	.+1		;TEST FAILED IF PROGRAM HALTS HERE
 29954	046564	324 00 0 00 046565 		JUMPA	.+1		;IF TEST FAILS, CHANGE THIS INSTRUCTION (JUMPA .+1) TO
 29955									;JUMPA X (X IS THE ADDRESS OF THE FIRST INSTRUCTION
 29956									;IN THE SUBTEST) TO LOOP ON ERROR^
 29957	046565	312 00 0 00 070254 	C3210:	CAME	0,[-1]		;PASS IF C(AC)=-1,,-1
 29958						STOP^
 29959	046566	254 04 0 00 046567 		HALT	.+1		;TEST FAILED IF PROGRAM HALTS HERE
 29960	046567	324 00 0 00 046570 		JUMPA	.+1		;IF TEST FAILS, CHANGE THIS INSTRUCTION (JUMPA .+1) TO
 29961									;JUMPA X (X IS THE ADDRESS OF THE FIRST INSTRUCTION
 29962									;IN THE SUBTEST) TO LOOP ON ERROR^
 29963
 29964					;**********
DFKAA PDP-10 KL10 BASIC INSTRUCTION DIAGNOSTIC (1) VER 0,2	MACRO %53B(1254)-4 11:50 11-Nov-24 Page 16
DFKAA4	MAC	13-Jan-89 10:22		TEST OF JFCL INSTRUCTION AND ARITHMETIC FLAGS

 29965					SUBTTL	TEST OF JFCL INSTRUCTION AND ARITHMETIC FLAGS
 29966
 29967					;**********
 29968
 29969					;THIS TEST VERIFIES THAT JFCL 17,.+1 ALWAYS RETURNS TO THE NEXT SEQUENTIAL INSTRUCTION
 29970					;IF JFCL SKIPS THE NEXT INSTRUCTION, THIS TEST FAILS
 29971
 29972	046570	200 00 0 00 070615 	C3300:	MOVE	[HALT .+3]	;THIS INSTRUCTION SHOULD NOT AFFECT THE TEST
 29973	046571	255 17 0 00 046572 		JFCL	17,.+1		;*JFCL SHOULD RETURN TO NEXT SEQUENTIAL INSTRUCTION
 29974	046572	304 00 0 00 000000 		CAIA			;SKIP HALT INSTRUCTION IF JFCL PASSES
 29975						STOP^
 29976	046573	254 04 0 00 046574 		HALT	.+1		;TEST FAILED IF PROGRAM HALTS HERE
 29977	046574	324 00 0 00 046575 		JUMPA	.+1		;IF TEST FAILS, CHANGE THIS INSTRUCTION (JUMPA .+1) TO
 29978									;JUMPA X (X IS THE ADDRESS OF THE FIRST INSTRUCTION
 29979									;IN THE SUBTEST) TO LOOP ON ERROR^
 29980
 29981					;**********
 29982
 29983					;THIS TEST VERIFIES THAT JFCL 17,.+1 ALWAYS CLEARS THE CRY0 FLAG.
 29984					;ADDI IS USED TO SET CRY0.  THEN, JFCL 17,.+1 IS EXECUTED TO CLEAR CRY0.
 29985					;JFCL 4,.+2 IS EXECUTED TO DETERMINE WHETHER CRY0 WAS RESET BY THE PREVIOUS JFCL.
 29986					;THIS TEST FAILS IF JFCL 17,.+1 DID NOT CLEAR CRY0
 29987
 29988	046575	200 00 0 00 070254 	C3400:	MOVE	[-1]		;PRELOAD AC WITH -1,,-1
 29989	046576	271 00 0 00 000001 		ADDI	1		;SET CRY0 FLAG
 29990	046577	255 17 0 00 046600 		JFCL	17,.+1		;*CLEAR ARITHMETIC FLAGS
 29991	046600	255 04 0 00 046602 		JFCL	4,.+2		;PASS IF CRY0 WAS RESET BY PREVIOUS INSTRUCTION
 29992	046601	334 00 0 00 000000 		SKIPA			;SKIP HALT IF CRY0 WAS CLEARED
 29993						STOP^
 29994	046602	254 04 0 00 046603 		HALT	.+1		;TEST FAILED IF PROGRAM HALTS HERE
 29995	046603	324 00 0 00 046604 		JUMPA	.+1		;IF TEST FAILS, CHANGE THIS INSTRUCTION (JUMPA .+1) TO
 29996									;JUMPA X (X IS THE ADDRESS OF THE FIRST INSTRUCTION
 29997									;IN THE SUBTEST) TO LOOP ON ERROR^
 29998
 29999					;**********
DFKAA PDP-10 KL10 BASIC INSTRUCTION DIAGNOSTIC (1) VER 0,2	MACRO %53B(1254)-4 11:50 11-Nov-24 Page 17
DFKAA4	MAC	13-Jan-89 10:22		TEST OF JFCL INSTRUCTION AND ARITHMETIC FLAGS

 30000					;THIS TEST VERIFIES THAT JFCL 17,.+1 ALWAYS CLEARS THE CRY1 FLAG.
 30001					;ADDI IS USED TO SET CRY1.  THEN, JFCL 17,.+1 IS EXECUTED TO CLEAR CRY1.
 30002					;JFCL 4,.+2 IS EXECUTED TO DETERMINE WHETHER CRY1 WAS RESET BY THE PREVIOUS JFCL.
 30003					;THIS TEST FAILS IF JFCL 17,.+1 DID NOT CLEAR CRY1
 30004
 30005	046604	200 00 0 00 070254 	C3500:	MOVE	[-1]		;PRELOAD AC WITH -1,,-1
 30006	046605	271 00 0 00 000001 		ADDI	1		;SET CRY1 FLAG
 30007	046606	255 17 0 00 046607 		JFCL	17,.+1		;*CLEAR ARITHMETIC FLAGS
 30008	046607	255 02 0 00 046611 		JFCL	2,.+2		;PASS IF CRY1 WAS RESET BY PREVIOUS INSTRUCTION
 30009	046610	334 00 0 00 000000 		SKIPA			;SKIP HALT IF CRY1 WAS CLEARED
 30010						STOP^
 30011	046611	254 04 0 00 046612 		HALT	.+1		;TEST FAILED IF PROGRAM HALTS HERE
 30012	046612	324 00 0 00 046613 		JUMPA	.+1		;IF TEST FAILS, CHANGE THIS INSTRUCTION (JUMPA .+1) TO
 30013									;JUMPA X (X IS THE ADDRESS OF THE FIRST INSTRUCTION
 30014									;IN THE SUBTEST) TO LOOP ON ERROR^
 30015
 30016					;**********
 30017
 30018					;THIS TEST VERIFIES THAT JFCL 17,.+1 ALWAYS CLEARS THE AROV FLAG.
 30019					;ADDI IS USED TO SET AROV.  THEN, JFCL 17,.+1 IS EXECUTED TO CLEAR AROV.
 30020					;JFCL 4,.+2 IS EXECUTED TO DETERMINE WHETHER AROV WAS RESET BY THE PREVIOUS JFCL.
 30021					;THIS TEST FAILS IF JFCL 17,.+1 DID NOT CLEAR AROV
 30022
 30023	046613	205 00 0 00 400000 	C3600:	MOVSI	400000		;PRELOAD AC WITH -1,,-1
 30024	046614	270 00 0 00 070256 		ADD	[XWD 400000,0]	;SET AROV FLAG
 30025	046615	255 17 0 00 046616 		JFCL	17,.+1		;*CLEAR ARITHMETIC FLAGS
 30026	046616	255 10 0 00 046620 		JFCL	10,.+2		;PASS IF AROV WAS RESET BY PREVIOUS INSTRUCTION
 30027	046617	334 00 0 00 000000 		SKIPA			;SKIP HALT IF AROV WAS CLEARED
 30028						STOP^
 30029	046620	254 04 0 00 046621 		HALT	.+1		;TEST FAILED IF PROGRAM HALTS HERE
 30030	046621	324 00 0 00 046622 		JUMPA	.+1		;IF TEST FAILS, CHANGE THIS INSTRUCTION (JUMPA .+1) TO
 30031									;JUMPA X (X IS THE ADDRESS OF THE FIRST INSTRUCTION
 30032									;IN THE SUBTEST) TO LOOP ON ERROR^
 30033
 30034					;**********
DFKAA PDP-10 KL10 BASIC INSTRUCTION DIAGNOSTIC (1) VER 0,2	MACRO %53B(1254)-4 11:50 11-Nov-24 Page 18
DFKAA4	MAC	13-Jan-89 10:22		TEST OF JFCL INSTRUCTION AND ARITHMETIC FLAGS

 30035					;THIS TEST VERIFIES THAT JFCL 0, IS A NO-OP.
 30036					;IN THIS TEST, ADD IS USED TO SET CRY0.  THEN JFCL 0,.+2 IS EXECUTED.
 30037					;IF JFCL 0,.+2 DOES NOT SKIP THE NEXT INSTRUCTION, THIS TEST PASSES
 30038
 30039	046622	205 00 0 00 400000 	C3700:	MOVSI	400000		;PRELOAD AC WITH MOST NEGATIVE NUMBER
 30040	046623	270 00 0 00 070254 		ADD	[-1]		;SET CRY0 FLAG
 30041	046624	255 00 0 00 046626 		JFCL	.+2		;*JFCL SHOULD RETURN TO NEXT SEQUENTIAL INSTRUCTION
 30042	046625	334 00 0 00 000000 		SKIPA			;PASS IF JFCL DID NOT SKIP
 30043						STOP^
 30044	046626	254 04 0 00 046627 		HALT	.+1		;TEST FAILED IF PROGRAM HALTS HERE
 30045	046627	324 00 0 00 046630 		JUMPA	.+1		;IF TEST FAILS, CHANGE THIS INSTRUCTION (JUMPA .+1) TO
 30046									;JUMPA X (X IS THE ADDRESS OF THE FIRST INSTRUCTION
 30047									;IN THE SUBTEST) TO LOOP ON ERROR^
 30048
 30049					;**********
 30050
 30051					;THIS TEST VERIFIES THAT JFCL 0, IS A NO-OP.
 30052					;IN THIS TEST, ADD IS USED TO SET CRY1.  THEN JFCL 0,.+2 IS EXECUTED.
 30053					;IF JFCL 0,.+2 DOES NOT SKIP THE NEXT INSTRUCTION, THIS TEST PASSES
 30054
 30055	046630	205 00 0 00 200000 	C4000:	MOVSI	200000		;PRELOAD AC WITH MOST NEGATIVE NUMBER
 30056	046631	270 00 0 00 070326 		ADD	[XWD 200000,0]	;SET CRY1 FLAG
 30057	046632	255 00 0 00 046634 		JFCL	.+2		;*JFCL SHOULD RETURN TO NEXT SEQUENTIAL INSTRUCTION
 30058	046633	334 00 0 00 000000 		SKIPA			;PASS IF JFCL DID NOT SKIP
 30059						STOP^
 30060	046634	254 04 0 00 046635 		HALT	.+1		;TEST FAILED IF PROGRAM HALTS HERE
 30061	046635	324 00 0 00 046636 		JUMPA	.+1		;IF TEST FAILS, CHANGE THIS INSTRUCTION (JUMPA .+1) TO
 30062									;JUMPA X (X IS THE ADDRESS OF THE FIRST INSTRUCTION
 30063									;IN THE SUBTEST) TO LOOP ON ERROR^
 30064
 30065					;**********
DFKAA PDP-10 KL10 BASIC INSTRUCTION DIAGNOSTIC (1) VER 0,2	MACRO %53B(1254)-4 11:50 11-Nov-24 Page 19
DFKAA4	MAC	13-Jan-89 10:22		TEST OF JFCL INSTRUCTION AND ARITHMETIC FLAGS

 30066					;THIS TEST VERIFIES THAT ADDI HAS THE ABILITY TO SET AN ARITHMETIC FLAG AND
 30067					;THAT 'JFCL 17,.+2' JUMPS WHENEVER ANY ARITHMETIC FLAG IS SET.
 30068					;IN THIS TEST, ADDI SHOULD SET CRY0 AND CRY1.  THEN, JFCL SHOULD SKIP
 30069					;BECAUSE A FLAG WAS SET BY ADDI
 30070					;IF THIS TEST FAILS, ADDI COULD HAVE FAILED TO SET A FLAG OR
 30071					;JFCL COULD HAVE FAILED TO JUMP WHEN A FLAG WAS SET
 30072
 30073	046636	200 00 0 00 070254 	C4100:	MOVE	[-1]		;PRELOAD AC WITH ALL ONES
 30074	046637	271 00 0 00 000001 		ADDI	1		;*ADDI SHOULD SET CRY0/1 FLAGS
 30075	046640	255 17 0 00 046642 		JFCL	17,.+2		;*JFCL SHOULD JUMP BECAUSE FLAGS ARE SET
 30076						STOP^
 30077	046641	254 04 0 00 046642 		HALT	.+1		;TEST FAILED IF PROGRAM HALTS HERE
 30078	046642	324 00 0 00 046643 		JUMPA	.+1		;IF TEST FAILS, CHANGE THIS INSTRUCTION (JUMPA .+1) TO
 30079									;JUMPA X (X IS THE ADDRESS OF THE FIRST INSTRUCTION
 30080									;IN THE SUBTEST) TO LOOP ON ERROR^
 30081
 30082					;**********
 30083
 30084					;THIS TEST VERIFIES THAT CAI DOES NOT CLEAR ANY ARITHMETIC FLAGS.
 30085					;FIRST, CRY0 AND CRY1 ARE SET BY ADDI; THEN CAI IS EXECUTED.
 30086					;JFCL SHOULD JUMP BECAUSE FLAGS ARE SET.  IF JFCL DOES NOT JUMP,
 30087					;THE FLAGS WERE CLEARED BY CAI.  HENCE, CAI FAILED
 30088
 30089	046643	200 00 0 00 070254 	C4200:	MOVE	[-1]		;PRELOAD AC WITH -1,,-1
 30090	046644	271 00 0 00 000001 		ADDI	1		;SET CYR0/1 FLAGS
 30091	046645	300 17 0 00 000017 		CAI	17,17		;*CAI SHOULD NOT CLEAR FLAGS
 30092	046646	255 17 0 00 046650 		JFCL	17,.+2		;PASS IF CAI CLEARED FLAGS
 30093						STOP^
 30094	046647	254 04 0 00 046650 		HALT	.+1		;TEST FAILED IF PROGRAM HALTS HERE
 30095	046650	324 00 0 00 046651 		JUMPA	.+1		;IF TEST FAILS, CHANGE THIS INSTRUCTION (JUMPA .+1) TO
 30096									;JUMPA X (X IS THE ADDRESS OF THE FIRST INSTRUCTION
 30097									;IN THE SUBTEST) TO LOOP ON ERROR^
 30098
 30099					;**********
DFKAA PDP-10 KL10 BASIC INSTRUCTION DIAGNOSTIC (1) VER 0,2	MACRO %53B(1254)-4 11:50 11-Nov-24 Page 20
DFKAA4	MAC	13-Jan-89 10:22		TEST OF JFCL INSTRUCTION AND ARITHMETIC FLAGS

 30100					;THIS TEST VERIFIES THAT ADDI HAS THE ABILITY TO SET AN ARITHMETIC FLAG AND
 30101					;THAT 'JFCL 17,.+2' JUMPS WHENEVER ANY ARITHMETIC FLAG IS SET.
 30102					;IN THIS TEST, ADDI SHOULD SET CRY0 AND CRY1.  THEN JFCL SHOULD SKIP
 30103					;BECAUSE A FLAG WAS SET BY ADDI
 30104					;IF THIS TEST FAILS, ADDI COULD HAVE FAILED TO SET A FLAG OR
 30105					;JFCL COULD HAVE FAILED TO JUMP WHEN A FLAG WAS SET
 30106
 30107	046651	200 00 0 00 070254 	C4300:	MOVE	[-1]		;PRELOAD AC WITH ALL ONES
 30108	046652	271 00 0 00 000001 		ADDI	1		;*ADDI SHOULD SET CRY1 FLAGS
 30109	046653	255 02 0 00 046655 		JFCL	2,.+2		;*JFCL SHOULD JUMP BECAUSE CRY1 FLAG IS SET
 30110						STOP^
 30111	046654	254 04 0 00 046655 		HALT	.+1		;TEST FAILED IF PROGRAM HALTS HERE
 30112	046655	324 00 0 00 046656 		JUMPA	.+1		;IF TEST FAILS, CHANGE THIS INSTRUCTION (JUMPA .+1) TO
 30113									;JUMPA X (X IS THE ADDRESS OF THE FIRST INSTRUCTION
 30114									;IN THE SUBTEST) TO LOOP ON ERROR^
 30115
 30116					;**********
 30117
 30118					;THIS TEST VERIFIES THAT ADDI HAS THE ABILITY TO SET AN ARITHMETIC FLAG AND
 30119					;THAT 'JFCL 17,.+2' JUMPS WHENEVER ANY ARITHMETIC FLAG IS SET.
 30120					;IN THIS TEST, ADDI SHOULD SET CRY0 AND CRY1.  THEN, JFCL SHOULD SKIP
 30121					;BECAUSE A FLAG WAS SET BY ADDI
 30122					;IF THIS TEST FAILS, ADDI COULD HAVE FAILED TO SET A FLAG OR
 30123					;JFCL COULD HAVE FAILED TO JUMP WHEN A FLAG WAS SET
 30124
 30125	046656	200 00 0 00 070254 	C4400:	MOVE	[-1]		;PRELOAD AC WITH ALL ONES
 30126	046657	271 00 0 00 000001 		ADDI	1		;*ADDI SHOULD SET CRY0 FLAG
 30127	046660	255 04 0 00 046662 		JFCL	4,.+2		;*JFCL SHOULD JUMP BECAUSE CRY0 FLAG IS SET
 30128						STOP^
 30129	046661	254 04 0 00 046662 		HALT	.+1		;TEST FAILED IF PROGRAM HALTS HERE
 30130	046662	324 00 0 00 046663 		JUMPA	.+1		;IF TEST FAILS, CHANGE THIS INSTRUCTION (JUMPA .+1) TO
 30131									;JUMPA X (X IS THE ADDRESS OF THE FIRST INSTRUCTION
 30132									;IN THE SUBTEST) TO LOOP ON ERROR^
 30133
 30134					;**********
DFKAA PDP-10 KL10 BASIC INSTRUCTION DIAGNOSTIC (1) VER 0,2	MACRO %53B(1254)-4 11:50 11-Nov-24 Page 21
DFKAA4	MAC	13-Jan-89 10:22		TEST OF JFCL INSTRUCTION AND ARITHMETIC FLAGS

 30135					;THIS TEST VERIFIES THAT ADDI HAS THE ABILITY TO SET AN ARITHMETIC FLAG AND
 30136					;THAT 'JFCL 17,.+2' JUMPS WHENEVER ANY ARITHMETIC FLAG IS SET.
 30137					;BECAUSE A FLAG WAS SET BY ADD
 30138					;IF THIS TEST FAILS, ADDI COULD HAVE FAILED TO SET A FLAG OR
 30139					;JFCL COULD HAVE FAILED TO JUMP WHEN A FLAG WAS SET
 30140
 30141	046663	205 00 0 00 400000 	C4500:	MOVSI	400000		;PRELOAD AC WITH ALL ONES
 30142	046664	270 00 0 00 070256 		ADD	[XWD 400000,0]	;*ADD SHOULD SET AROV FLAG
 30143	046665	255 10 0 00 046667 		JFCL	10,.+2		;*JFCL SHOULD JUMP BECAUSE AROV FLAG IS SET
 30144						STOP^
 30145	046666	254 04 0 00 046667 		HALT	.+1		;TEST FAILED IF PROGRAM HALTS HERE
 30146	046667	324 00 0 00 046670 		JUMPA	.+1		;IF TEST FAILS, CHANGE THIS INSTRUCTION (JUMPA .+1) TO
 30147									;JUMPA X (X IS THE ADDRESS OF THE FIRST INSTRUCTION
 30148									;IN THE SUBTEST) TO LOOP ON ERROR^
 30149
 30150					;**********
 30151
 30152					;THIS TEST VERIFIES THAT JFCL 17,.+1 ALWAYS CLEARS THE FLOATING OVERFLOW FLAG (FOV).
 30153					;FIRST JFCL 17,.+1 IS EXECUTED TO CLEAR FOV.  THEN, JFCL 1,.+2 IS EXECUTED TO DETERMINE
 30154					;WHETHER FOV WAS CLEARED.  IF FOV WAS CLEAR, THIS TEST PASSES
 30155
 30156	046670	255 17 0 00 046671 	C4600:	JFCL	17,.+1		;*CLEAR ARITHMETIC FLAGS
 30157	046671	255 01 0 00 046673 		JFCL	1,.+2		;PASS IF FOV WAS CLEARED
 30158	046672	334 00 0 00 000000 		SKIPA			;SKIP HALT IF TEST PASSED
 30159						STOP^
 30160	046673	254 04 0 00 046674 		HALT	.+1		;TEST FAILED IF PROGRAM HALTS HERE
 30161	046674	324 00 0 00 046675 		JUMPA	.+1		;IF TEST FAILS, CHANGE THIS INSTRUCTION (JUMPA .+1) TO
 30162									;JUMPA X (X IS THE ADDRESS OF THE FIRST INSTRUCTION
 30163									;IN THE SUBTEST) TO LOOP ON ERROR^
 30164
 30165					;**********
DFKAA PDP-10 KL10 BASIC INSTRUCTION DIAGNOSTIC (1) VER 0,2	MACRO %53B(1254)-4 11:50 11-Nov-24 Page 22
DFKAA4	MAC	13-Jan-89 10:22		TEST OF JFCL INSTRUCTION AND ARITHMETIC FLAGS

 30166					;THIS TEST VERIFIES THAT JFCL 13, DOES NOT RESET CRY0.
 30167					;FIRST CRY0 AND CRY1 ARE SET BY ADDI; THEN, JFCL 13,.+2 IS EXECUTED
 30168					;TO CLEAR ALL ARITHMETIC FLAGS EXCEPT CRY0.
 30169					;THIS TEST PASSES IF JFCL 13,.+1 DID NOT RESET CRY0.
 30170
 30171	046675	200 00 0 00 070254 	C4700:	MOVE	[-1]		;RELOAD AC WITH -1,,-1
 30172	046676	271 00 0 00 000001 		ADDI	1		;SET CRY0/1
 30173	046677	255 13 0 00 046700 		JFCL	13,.+1		;*JFCL 13, SHOULD NOT RESET CRY0
 30174	046700	255 04 0 00 046702 		JFCL	4,.+2		;FAIL IF CRY 0 WAS RESET
 30175						STOP^
 30176	046701	254 04 0 00 046702 		HALT	.+1		;TEST FAILED IF PROGRAM HALTS HERE
 30177	046702	324 00 0 00 046703 		JUMPA	.+1		;IF TEST FAILS, CHANGE THIS INSTRUCTION (JUMPA .+1) TO
 30178									;JUMPA X (X IS THE ADDRESS OF THE FIRST INSTRUCTION
 30179									;IN THE SUBTEST) TO LOOP ON ERROR^
 30180
 30181					;**********
 30182
 30183					;THIS TEST VERIFIES THAT JFCL 15, DOES NOT RESET CRY1.
 30184					;FIRST CRY0 AND CRY1 ARE SET BY ADDI; THEN, JFCL15,.+2 IS EXECUTED
 30185					;TO CLEAR ALL ARITHMETIC FLAGS EXCEPT CRY1.
 30186					;THIS TEST PASSES IF JFCL 15,.+1 DID NOT RESET CRY1.
 30187
 30188	046703	200 00 0 00 070254 	C5000:	MOVE	[-1]		;PRELOAD AC WITH -1,,-1
 30189	046704	271 00 0 00 000001 		ADDI	1		;SET CRY0/1
 30190	046705	255 15 0 00 046706 		JFCL	15,.+1		;*JFCL15, SHOULD NOT RESET CRY0
 30191	046706	255 02 0 00 046710 		JFCL	2,.+2		;FAIL IF CRY1 WAS RESET
 30192						STOP^
 30193	046707	254 04 0 00 046710 		HALT	.+1		;TEST FAILED IF PROGRAM HALTS HERE
 30194	046710	324 00 0 00 046711 		JUMPA	.+1		;IF TEST FAILS, CHANGE THIS INSTRUCTION (JUMPA .+1) TO
 30195									;JUMPA X (X IS THE ADDRESS OF THE FIRST INSTRUCTION
 30196									;IN THE SUBTEST) TO LOOP ON ERROR^
 30197
 30198					;**********
DFKAA PDP-10 KL10 BASIC INSTRUCTION DIAGNOSTIC (1) VER 0,2	MACRO %53B(1254)-4 11:50 11-Nov-24 Page 23
DFKAA4	MAC	13-Jan-89 10:22		TEST OF JFCL INSTRUCTION AND ARITHMETIC FLAGS

 30199					;THIS TEST VERIFIES THAT JFCL 17, DOES NOT RESET AROV.
 30200					;FIRST AROV IS SET BY ADD; THEN, JFCL 17,.+2 IS EXECUTED
 30201					;TO CLEAR ALL ARITHMETIC FLAGS EXCEPT AROV.
 30202					;THIS TEST PASSES IF JFCL 17,.+1 DID NOT RESET AROV.
 30203
 30204	046711	205 00 0 00 400000 	C5100:	MOVSI	400000		;PRELOAD AC WITH -1,,-1
 30205	046712	270 00 0 00 070256 		ADD	[XWD 400000,0]	;SET AROV
 30206	046713	255 07 0 00 046714 		JFCL	7,.+1		;*JFCL 17, SHOULD NOT RESET AROV
 30207	046714	255 10 0 00 046716 		JFCL	10,.+2		;FAIL IF AROV WAS RESET
 30208						STOP^
 30209	046715	254 04 0 00 046716 		HALT	.+1		;TEST FAILED IF PROGRAM HALTS HERE
 30210	046716	324 00 0 00 046717 		JUMPA	.+1		;IF TEST FAILS, CHANGE THIS INSTRUCTION (JUMPA .+1) TO
 30211									;JUMPA X (X IS THE ADDRESS OF THE FIRST INSTRUCTION
 30212									;IN THE SUBTEST) TO LOOP ON ERROR^
 30213
 30214					;**********
 30215
 30216					;THIS TEST VERIFIES THAT ADD OF 0 TO 0 WILL NOT SET AROV.
 30217					;FIRST, ALL FLAGS ARE RESET, THEN 0 IS ADDED TO 0 VIA ADD.
 30218					;AROV IS THEN CHECKED.  IF AROV IS SET, THIS TEST FAILS.
 30219
 30220	046717	255 17 0 00 046720 	C5200:	JFCL	17,.+1		;RESET ARITHMETIC FLAGS
 30221	046720	400 00 0 00 000000 		SETZ			;PRELOAD AC,E WITH 0
 30222	046721	270 00 0 00 000000 		ADD			;*ADD SHOULD NOT SET AROV
 30223	046722	255 10 0 00 046724 		JFCL	10,.+2		;PASS IF AROV WAS RESET
 30224	046723	334 00 0 00 000000 		SKIPA			;SKIP HALT IF ADD PASSED
 30225						STOP^
 30226	046724	254 04 0 00 046725 		HALT	.+1		;TEST FAILED IF PROGRAM HALTS HERE
 30227	046725	324 00 0 00 046726 		JUMPA	.+1		;IF TEST FAILS, CHANGE THIS INSTRUCTION (JUMPA .+1) TO
 30228									;JUMPA X (X IS THE ADDRESS OF THE FIRST INSTRUCTION
 30229									;IN THE SUBTEST) TO LOOP ON ERROR^
 30230
 30231					;**********
DFKAA PDP-10 KL10 BASIC INSTRUCTION DIAGNOSTIC (1) VER 0,2	MACRO %53B(1254)-4 11:50 11-Nov-24 Page 24
DFKAA4	MAC	13-Jan-89 10:22		TEST OF JFCL INSTRUCTION AND ARITHMETIC FLAGS

 30232					;THIS TEST VERIFIES THAT ADD OF 0 TO 0 WILL NOT SET CRY0.
 30233					;FIRST, ALL FLAGS ARE RESET, THEN 0 IS ADDED TO 0 VIA ADD.
 30234					;CRY0 IS THEN CHECKED.  IF CRY0 IS SET, THIS TEST FAILS.
 30235
 30236
 30237	046726	400 00 0 00 000000 	C5300:	SETZ			;RESET ARITHMETIC FLAGS
 30238	046727	255 17 0 00 046730 		JFCL	17,.+1		;PRELOAD AC,E WITH 0
 30239	046730	270 00 0 00 000000 		ADD			;*ADD SHOULD NOT SET CRY0
 30240	046731	255 04 0 00 046733 		JFCL	4,.+2		;PASS IF CRY0 WAS RESET
 30241	046732	334 00 0 00 000000 		SKIPA			;SKIP HALT IF ADD PASSED
 30242						STOP^
 30243	046733	254 04 0 00 046734 		HALT	.+1		;TEST FAILED IF PROGRAM HALTS HERE
 30244	046734	324 00 0 00 046735 		JUMPA	.+1		;IF TEST FAILS, CHANGE THIS INSTRUCTION (JUMPA .+1) TO
 30245									;JUMPA X (X IS THE ADDRESS OF THE FIRST INSTRUCTION
 30246									;IN THE SUBTEST) TO LOOP ON ERROR^
 30247
 30248					;**********
 30249
 30250					;THIS TEST VERIFIES THAT ADD OF 0 TO 0 WILL NOT SET CRY1.
 30251					;FIRST, ALL FLAGS ARE RESET, THEN 0 IS ADDED TO 0 VIA ADD.
 30252					;CRY1 IS THEN CHECKED.  IF CRY1 IS SET, THIS TEST FAILS.
 30253
 30254	046735	400 00 0 00 000000 	C5400:	SETZ			;RESET ARITHMETIC FLAGS
 30255	046736	255 17 0 00 046737 		JFCL	17,.+1		;PRELOAD AC,E WITH 0
 30256	046737	270 00 0 00 000000 		ADD			;*ADD SHOULD NOT SET CRY1
 30257	046740	255 02 0 00 046742 		JFCL	2,.+2		;PASS IF CRY1 WAS RESET
 30258	046741	334 00 0 00 000000 		SKIPA			;SKIP HALT IF ADD PASSED
 30259						STOP^
 30260	046742	254 04 0 00 046743 		HALT	.+1		;TEST FAILED IF PROGRAM HALTS HERE
 30261	046743	324 00 0 00 046744 		JUMPA	.+1		;IF TEST FAILS, CHANGE THIS INSTRUCTION (JUMPA .+1) TO
 30262									;JUMPA X (X IS THE ADDRESS OF THE FIRST INSTRUCTION
 30263									;IN THE SUBTEST) TO LOOP ON ERROR^
 30264
 30265					;**********
DFKAA PDP-10 KL10 BASIC INSTRUCTION DIAGNOSTIC (1) VER 0,2	MACRO %53B(1254)-4 11:50 11-Nov-24 Page 25
DFKAA4	MAC	13-Jan-89 10:22		TEST OF JFCL INSTRUCTION AND ARITHMETIC FLAGS

 30266					;THIS TEST VERIFIES THAT THE 30X AND THE 31X INSTRUCTION GROUPS DO NOT AFFECT
 30267					;THE ARITHMETIC FLAGS.  FIRST, THE FLAGS ARE CLEARED AND AC0 IS CLEARED; THEN, CAI
 30268					;AND CAM ARE EXECUTED.  THE FLAGS ARE THEN CHECKED.  IF ANY OF THE FLAGS ARE SET,
 30269					;THIS TEST FAILS AND CAI OR CAM IS CONSIDERED TO HAVE ERRONEOUSLY SET THE FLAGS
 30270
 30271	046744	255 17 0 00 046745 	C5500:	JFCL	17,.+1		;CLEAR ALL FLAGS
 30272	046745	400 00 0 00 000000 		SETZ			;CLEAR AC,0
 30273	046746	300 00 0 00 000000 		CAI			;*CAI SHOULD NOT SET ANY ARITHMETIC FLAG
 30274	046747	310 00 0 00 070254 		CAM	[-1]		;*CAM SHOULD NOT SET ANY ARITHMETIC FLAG
 30275	046750	255 17 0 00 046752 		JFCL	17,.+2		;FAIL IF ANY FLAG WAS SET
 30276	046751	334 00 0 00 000000 		SKIPA			;SKIP HALT IF TEST PASSED
 30277						STOP^
 30278	046752	254 04 0 00 046753 		HALT	.+1		;TEST FAILED IF PROGRAM HALTS HERE
 30279	046753	324 00 0 00 046754 		JUMPA	.+1		;IF TEST FAILS, CHANGE THIS INSTRUCTION (JUMPA .+1) TO
 30280									;JUMPA X (X IS THE ADDRESS OF THE FIRST INSTRUCTION
 30281									;IN THE SUBTEST) TO LOOP ON ERROR^
 30282
 30283					;**********
 30284
 30285					;THIS TEST VERIFIES THAT THE BOOLEAN INSTRUCTION GROUPS DO NOT AFFECT
 30286					;THE ARITHMETIC FLAGS.  FIRST THE FLAGS ARE CLEARED AND AC0 IS CLEARED; THEN, XOR [0]
 30287					;AND XOR [-1] ARE EXECUTED.  THE FLAGS ARE THEN CHECKED.  IF ANY OF THE FLAGS ARE SET,
 30288					;THIS TEST FAILS AND XOR IS CONSIDERED TO HAVE ERRONEOUSLY SET THE FLAGS
 30289
 30290	046754	255 17 0 00 046755 	C5600:	JFCL	17,.+1		;CLEAR ALL FLAGS
 30291	046755	474 00 0 00 000000 		SETO			;CLEAR AC,0
 30292	046756	430 00 0 00 070253 		XOR	[0]		;*XOR SHOULD NOT SET ANY ARITHMETIC FLAG
 30293	046757	430 00 0 00 070254 		XOR	[-1]		;*XOR SHOULD NOT SET ANY ARITHMETIC FLAG
 30294	046760	255 17 0 00 046762 		JFCL	17,.+2		;FAIL IF ANY FLAG WAS SET
 30295	046761	334 00 0 00 000000 		SKIPA			;SKIP HALT IF TEST PASSED
 30296						STOP^
 30297	046762	254 04 0 00 046763 		HALT	.+1		;TEST FAILED IF PROGRAM HALTS HERE
 30298	046763	324 00 0 00 046764 		JUMPA	.+1		;IF TEST FAILS, CHANGE THIS INSTRUCTION (JUMPA .+1) TO
 30299									;JUMPA X (X IS THE ADDRESS OF THE FIRST INSTRUCTION
 30300									;IN THE SUBTEST) TO LOOP ON ERROR^
 30301
 30302					;**********
DFKAA PDP-10 KL10 BASIC INSTRUCTION DIAGNOSTIC (1) VER 0,2	MACRO %53B(1254)-4 11:50 11-Nov-24 Page 26
DFKAA4	MAC	13-Jan-89 10:22		TEST OF JFCL INSTRUCTION AND ARITHMETIC FLAGS

 30303					;THIS TEST VERIFIES THAT THE AOBJX INSTRUCTION GROUP DOES DO NOT AFFECT
 30304					;THE ARITHMETIC FLAGS.  FIRST THE FLAGS ARE CLEARED AND AC0 IS CLEARED; THEN, AOBJN
 30305					;AND AOBJP ARE EXECUTED.  THE FLAGS ARE THEN CHECKED.  IF ANY OF THE FLAGS ARE SET,
 30306					;THIS TEST FAILS AND AOBJN OR AOBJP IS CONSIDERED TO HAVE ERRONEOUSLY SET THE FLAGS
 30307
 30308	046764	474 00 0 00 000000 	C5700:	SETO			;CLEAR ALL FLAGS
 30309	046765	255 17 0 00 046766 		JFCL	17,.+1		;CLEAR AC,0
 30310	046766	253 00 0 00 046767 		AOBJN	.+1		;*AOBJN SHOULD NOT SET ANY ARITHMETIC ARITHMETIC
 30311	046767	252 00 0 00 046770 		AOBJP	.+1		;*AOBJP SHOULD NOT SET ANY ARITHMETIC FLAG
 30312	046770	255 17 0 00 046772 		JFCL	17,.+2		;FAIL IF ANY FLAG WAS SET
 30313	046771	334 00 0 00 000000 		SKIPA			;SKIP HALT IF TST PASSED
 30314						STOP^
 30315	046772	254 04 0 00 046773 		HALT	.+1		;TEST FAILED IF PROGRAM HALTS HERE
 30316	046773	324 00 0 00 046774 		JUMPA	.+1		;IF TEST FAILS, CHANGE THIS INSTRUCTION (JUMPA .+1) TO
 30317									;JUMPA X (X IS THE ADDRESS OF THE FIRST INSTRUCTION
 30318									;IN THE SUBTEST) TO LOOP ON ERROR^
 30319
 30320					;**********
DFKAA PDP-10 KL10 BASIC INSTRUCTION DIAGNOSTIC (1) VER 0,2	MACRO %53B(1254)-4 11:50 11-Nov-24 Page 27
DFKAA4	MAC	13-Jan-89 10:22		TEST OF JFCL INSTRUCTION AND ARITHMETIC FLAGS

 30321					;THIS TEST VERIFIES THAT SKIP DOES NOT AFFECT THE FLAGS.
 30322					;FIRST, THE ARITHMETIC FLAGS ARE CLEARED; THEN, SKIP IS EXECUTED.
 30323					;IF SKIP SETS AROV, CRYO, CRY1 OR FOV, THIS TEST FAILS.
 30324
 30325	046774	255 17 0 00 046775 	C5701:	JFCL	17,.+1		;CLEAR ALL FLAGS
 30326	046775	330 00 0 00 070254 		SKIP	0,[-1]		;*SKIP SHOULD NOT SET ANY FLAGS
 30327	046776	255 17 0 00 047000 		JFCL	17,.+2		;FAIL IF ANY FLAG IS SET
 30328	046777	334 00 0 00 000000 		SKIPA			;PASS IF NO FLAG IS SET
 30329						STOP^
 30330	047000	254 04 0 00 047001 		HALT	.+1		;TEST FAILED IF PROGRAM HALTS HERE
 30331	047001	324 00 0 00 047002 		JUMPA	.+1		;IF TEST FAILS, CHANGE THIS INSTRUCTION (JUMPA .+1) TO
 30332									;JUMPA X (X IS THE ADDRESS OF THE FIRST INSTRUCTION
 30333									;IN THE SUBTEST) TO LOOP ON ERROR^
 30334
 30335					;**********
 30336
 30337					;THIS TEST VERIFIES THAT JUMP DOES NOT AFFECT THE FLAGS.
 30338					;FIRST, THE ARITHMETIC FLAGS ARE CLEARED; THEN, JUMP IS EXECUTED.
 30339					;IF JUMP SETS AROV, CRYO, CRY1 OR FOV, THIS TEST FAILS.
 30340
 30341	047002	255 17 0 00 047003 	C5702:	JFCL	17,.+1		;CLEAR ALL FLAGS
 30342	047003	320 00 0 00 070254 		JUMP	0,[-1]		;*JUMP SHOULD NOT SET ANY FLAGS
 30343	047004	255 17 0 00 047006 		JFCL	17,.+2		;FAIL IF ANY FLAG IS SET
 30344	047005	334 00 0 00 000000 		SKIPA			;PASS IF NO FLAG IS SET
 30345						STOP^
 30346	047006	254 04 0 00 047007 		HALT	.+1		;TEST FAILED IF PROGRAM HALTS HERE
 30347	047007	324 00 0 00 047010 		JUMPA	.+1		;IF TEST FAILS, CHANGE THIS INSTRUCTION (JUMPA .+1) TO
 30348									;JUMPA X (X IS THE ADDRESS OF THE FIRST INSTRUCTION
 30349									;IN THE SUBTEST) TO LOOP ON ERROR^
 30350
 30351					;**********
DFKAA PDP-10 KL10 BASIC INSTRUCTION DIAGNOSTIC (1) VER 0,2	MACRO %53B(1254)-4 11:50 11-Nov-24 Page 28
DFKAA4	MAC	13-Jan-89 10:22		TEST OF JRST INSTRUCTION AND ARITHMETIC FLAGS

 30352					SUBTTL	TEST OF JRST INSTRUCTION AND ARITHMETIC FLAGS
 30353
 30354					;**********
 30355
 30356					;THIS TEST VERIFIES THAT 'JRST, 0' DOES NOT SET ANY FLAGS.
 30357					;FIRST THE ARITHMETIC FLAGS ARE RESET; THEN, 'JRST 0,.+1' IS EXECUTED
 30358					;THE AROV,CRY0 AND CRY1 FLAGS ARE THEN CHECKED. IF ANY
 30359					;OF THESE FLAGS ARE SET, THIS TEST FAILS
 30360
 30361	047010	255 17 0 00 047011 	C6000:	JFCL	17,.+1		;RESET ALL FLAGS
 30362	047011	254 00 0 00 047012 		JRST	.+1		;*JRST SHOULD NOT SET ANY FLAGS
 30363	047012	255 16 0 00 047014 		JFCL	16,.+2		;PASS IF NO FLAGS ARE SET
 30364	047013	334 00 0 00 000000 		SKIPA			;SKIP HALT IF JRST PASSES
 30365						STOP^
 30366	047014	254 04 0 00 047015 		HALT	.+1		;TEST FAILED IF PROGRAM HALTS HERE
 30367	047015	324 00 0 00 047016 		JUMPA	.+1		;IF TEST FAILS, CHANGE THIS INSTRUCTION (JUMPA .+1) TO
 30368									;JUMPA X (X IS THE ADDRESS OF THE FIRST INSTRUCTION
 30369									;IN THE SUBTEST) TO LOOP ON ERROR^
 30370
 30371					;**********
 30372
 30373					;THIS TEST VERIFIES THAT 'MOVE 2,2' DOES NOT SET ANY FLAGS.
 30374					;FIRST, THE ARITHMETIC FLAGS ARE RESET; THEN, 'MOVE 2,2' IS EXECUTED.
 30375					;THE FOV,AROV,CRY0 AND CRY1 FLAGS ARE THEN CHECKED.  IF ANY
 30376					;OF THESE FLAGS ARE SET, THIS TEST FAILS
 30377
 30378	047016	255 17 0 00 047017 	C6100:	JFCL	17,.+1		;RESET ALL FLAGS
 30379	047017	200 02 0 00 000002 		MOVE	2,2		;*MOVE SHOULD NOT SET ANY FLAGS
 30380	047020	255 17 0 00 047022 		JFCL	17,.+2		;PASS IF NO FLAGS ARE SET
 30381	047021	334 00 0 00 000000 		SKIPA			;SKIP HALT IF MOVE PASSED
 30382						STOP^
 30383	047022	254 04 0 00 047023 		HALT	.+1		;TEST FAILED IF PROGRAM HALTS HERE
 30384	047023	324 00 0 00 047024 		JUMPA	.+1		;IF TEST FAILS, CHANGE THIS INSTRUCTION (JUMPA .+1) TO
 30385									;JUMPA X (X IS THE ADDRESS OF THE FIRST INSTRUCTION
 30386									;IN THE SUBTEST) TO LOOP ON ERROR^
 30387
 30388					;**********
DFKAA PDP-10 KL10 BASIC INSTRUCTION DIAGNOSTIC (1) VER 0,2	MACRO %53B(1254)-4 11:50 11-Nov-24 Page 29
DFKAA4	MAC	13-Jan-89 10:22		TEST OF JRST INSTRUCTION AND ARITHMETIC FLAGS

 30389					;THIS TEST VERIFIES THAT JRST 2,.+1(1) WILL SET THE ARITHMETIC FLAG
 30390					;SPECIFIED IN AC1.  IN THIS CASE, AC1 SPECIFIES THE CRY0 FLAG.
 30391					;FIRST, ALL FLAGS ARE RESET; THEN AC1 IS SET TO SPECIFY CRY0.
 30392					;NEXT, JRST 2,.+1(1) IS EXECUTED TO SET CRY0.  CRY0 IS THEN CHECKED.  IF
 30393					;CRY0 IS SET, THIS TEST PASSES.  OTHERWISE, JRST 2,.+1 IS FAULTY
 30394
 30395	047024	255 17 0 00 047025 	C6200:	JFCL	17,.+1		;CLEAR ALL FLAGS
 30396						SFLAG	CRY0		^;SET CRY0 FLAG
 30397
 30398	047025	205 01 0 00 200000 		MOVSI	1,CRY0
 30399	047026	255 17 0 00 047027 		JFCL	17,.+1	;RESET ALL FLAGS
 30400	047027	254 02 0 01 047030 		JRST	2,.+1(1)		;SET CRY0 FLAG
 30401	047030	255 04 0 00 047032 		JFCL	4,.+2		;PASS IF CRY0 IS SET
 30402						STOP^
 30403	047031	254 04 0 00 047032 		HALT	.+1		;TEST FAILED IF PROGRAM HALTS HERE
 30404	047032	324 00 0 00 047033 		JUMPA	.+1		;IF TEST FAILS, CHANGE THIS INSTRUCTION (JUMPA .+1) TO
 30405									;JUMPA X (X IS THE ADDRESS OF THE FIRST INSTRUCTION
 30406									;IN THE SUBTEST) TO LOOP ON ERROR^
 30407
 30408					;**********
 30409
 30410					;THIS TEST VERIFIES THAT JRST 2,.+(1) WILL SET THE ARITHMETIC FLAG
 30411					;SPECIFIED IN AC1.  IN THIS CASE, AC1 CONTAIN 0.  HENCE, JRST 2,.+1(1)
 30412					;SHOULD RESET THE ARITHMETIC FLAGS.  FIRST, THE CRY0/1, FLAGS ARE SET BY ADDI;
 30413					;THEN THE FLAGS SHOULD BE CLEARED BY JRST 2,.+1.  IF CRY1 WAS CLEARED, THE
 30414					;TEST PASSES.  OTHERWISE, JRST 2,.+1 IS FAULTY
 30415
 30416	047033	200 00 0 00 070254 	C6300:	MOVE	[-1]		;PRELOAD AC0 WITH -1,,-1
 30417	047034	271 00 0 00 000001 		ADDI	1		;SET CRY0/1 FLAGS
 30418						SFLAG	0		^;RESET ALL ARITHMETIC FLAGS
 30419
 30420	047035	205 01 0 00 000000 		MOVSI	1,0
 30421	047036	255 17 0 00 047037 		JFCL	17,.+1	;RESET ALL FLAGS
 30422	047037	254 02 0 01 047040 		JRST	2,.+1(1)		;SET 0 FLAG
 30423	047040	255 02 0 00 047042 		JFCL	2,.+2		;PASS IF CRY1 IS RESET
 30424	047041	334 00 0 00 000000 		SKIPA			;SKIP HALT INSTRUCTION IF TEST PASSED
 30425						STOP^
 30426	047042	254 04 0 00 047043 		HALT	.+1		;TEST FAILED IF PROGRAM HALTS HERE
 30427	047043	324 00 0 00 047044 		JUMPA	.+1		;IF TEST FAILS, CHANGE THIS INSTRUCTION (JUMPA .+1) TO
 30428									;JUMPA X (X IS THE ADDRESS OF THE FIRST INSTRUCTION
 30429									;IN THE SUBTEST) TO LOOP ON ERROR^
 30430
 30431					;**********
DFKAA PDP-10 KL10 BASIC INSTRUCTION DIAGNOSTIC (1) VER 0,2	MACRO %53B(1254)-4 11:50 11-Nov-24 Page 30
DFKAA4	MAC	13-Jan-89 10:22		TEST OF JRST INSTRUCTION AND ARITHMETIC FLAGS

 30432
 30433					;THIS TEST VERIFIES THAT JRST 2,.+(1) WILL SET THE ARITHMETIC FLAG
 30434					;SPECIFIED IN AC1.  IN THIS CASE, AC1 CONTAIN 0.  HENCE, JRST 2,.+1(1)
 30435					;SHOULD RESET THE ARITHMETIC FLAGS.  FIRST, THE CRY0/1, FLAGS ARE SET BY ADD
 30436					;THEN THE FLAGS SHOULD BE CLEARED BY JRST 2,.+1.  IF AROV WAS CLEARED, THE
 30437					;TEST PASSES.  OTHERWISE, JRST 2,.+1 IS FAULTY
 30438
 30439	047044	205 00 0 00 400000 	C6400:	MOVSI	400000		;PRELOAD AC0 WITH -1,,-1
 30440	047045	270 00 0 00 070254 		ADD	[-1]		;SET CRY0 AND AROV FLAGS
 30441						SFLAG	0		^;RESET ALL ARITHMETIC FLAGS
 30442
 30443	047046	205 01 0 00 000000 		MOVSI	1,0
 30444	047047	255 17 0 00 047050 		JFCL	17,.+1	;RESET ALL FLAGS
 30445	047050	254 02 0 01 047051 		JRST	2,.+1(1)		;SET 0 FLAG
 30446	047051	255 10 0 00 047053 		JFCL	10,.+2		;PASS IF AROV IS RESET
 30447	047052	334 00 0 00 000000 		SKIPA			;SKIP HALT INSTRUCTION IF TEST PASSED
 30448						STOP^
 30449	047053	254 04 0 00 047054 		HALT	.+1		;TEST FAILED IF PROGRAM HALTS HERE
 30450	047054	324 00 0 00 047055 		JUMPA	.+1		;IF TEST FAILS, CHANGE THIS INSTRUCTION (JUMPA .+1) TO
 30451									;JUMPA X (X IS THE ADDRESS OF THE FIRST INSTRUCTION
 30452									;IN THE SUBTEST) TO LOOP ON ERROR^
 30453
 30454					;**********
 30455
 30456					;THIS TEST VERIFIES THAT JRST 2,.+1(1) WILL SET THE ARITHMETIC FLAG
 30457					;SPECIFIED IN AC1.  IN THIS CASE, AC1 SPECIFIES THE AROV FLAG.
 30458					;FIRST, ALL FLAGS ARE RESET; THEN AC1 SET TO SPECIFY AROV.
 30459					;NEXT, JRST 2,.+1(1) IS EXECUTED TO SET AROV.  AROV IS THEN CHECKED.  IF
 30460					;AROV IS SET, THIS TEST PASSES.  OTHERWISE, JRST 2,.+1 IS FAULTY
 30461
 30462	047055				C6500:	SFLAG	AROV		^;SET AROV FLAG
 30463
 30464	047055	205 01 0 00 400000 		MOVSI	1,AROV
 30465	047056	255 17 0 00 047057 		JFCL	17,.+1	;RESET ALL FLAGS
 30466	047057	254 02 0 01 047060 		JRST	2,.+1(1)		;SET AROV FLAG
 30467	047060	255 10 0 00 047062 		JFCL	10,.+2		;PASS IF AROV WAS SET
 30468						STOP^
 30469	047061	254 04 0 00 047062 		HALT	.+1		;TEST FAILED IF PROGRAM HALTS HERE
 30470	047062	324 00 0 00 047063 		JUMPA	.+1		;IF TEST FAILS, CHANGE THIS INSTRUCTION (JUMPA .+1) TO
 30471									;JUMPA X (X IS THE ADDRESS OF THE FIRST INSTRUCTION
 30472									;IN THE SUBTEST) TO LOOP ON ERROR^
 30473
 30474					;**********
DFKAA PDP-10 KL10 BASIC INSTRUCTION DIAGNOSTIC (1) VER 0,2	MACRO %53B(1254)-4 11:50 11-Nov-24 Page 31
DFKAA4	MAC	13-Jan-89 10:22		TEST OF JRST INSTRUCTION AND ARITHMETIC FLAGS

 30475					;THIS TEST VERIFIES THAT JRST 2,.+1(1) WILL SET THE ARITHMETIC FLAG
 30476					;SPECIFIED IN AC1.  IN THIS CASE, AC1 SPECIFIES THE CRY1 FLAG.
 30477					;FIRST, ALL FLAGS ARE RESET; THEN AC1 SET TO SPECIFY CRY1.
 30478					;NEXT, JRST 2,.+1(1) IS EXECUTED TO SET CRY1.  CRY1 IS THEN CHECKED.  IF
 30479					;CRY1 IS SET, THIS TEST PASSES.  OTHERWISE, JRST 2,.+1 IS FAULTY
 30480
 30481	047063				C6600:	SFLAG	CRY1		^;SET CRY1 FLAG
 30482
 30483	047063	205 01 0 00 100000 		MOVSI	1,CRY1
 30484	047064	255 17 0 00 047065 		JFCL	17,.+1	;RESET ALL FLAGS
 30485	047065	254 02 0 01 047066 		JRST	2,.+1(1)		;SET CRY1 FLAG
 30486	047066	255 02 0 00 047070 		JFCL	2,.+2		;PASS IF CRY1 WAS SET
 30487						STOP^
 30488	047067	254 04 0 00 047070 		HALT	.+1		;TEST FAILED IF PROGRAM HALTS HERE
 30489	047070	324 00 0 00 047071 		JUMPA	.+1		;IF TEST FAILS, CHANGE THIS INSTRUCTION (JUMPA .+1) TO
 30490									;JUMPA X (X IS THE ADDRESS OF THE FIRST INSTRUCTION
 30491									;IN THE SUBTEST) TO LOOP ON ERROR^
 30492
 30493					;**********
 30494
 30495					;THIS TEST VERIFIES THAT JRST 2,.+1(1) WILL SET THE ARITHMETIC FLAG
 30496					;SPECIFIED IN AC1.  IN THIS CASE, AC1 SPECIFIES THE FOV FLAG.
 30497					;FIRST, ALL FLAGS ARE RESET; THEN AC1 SET TO SPECIFY FOV.
 30498					;NEXT, JRST 2,.+1(1) IS EXECUTED TO SET FOV.  FOV IS THEN CHECKED.  IF
 30499					;FOV IS SET, THIS TEST PASSES.  OTHERWISE, JRST 2,.+1 IS FAULTY
 30500
 30501	047071				C6700:	SFLAG	FOV		^;SET FOV FLAG
 30502
 30503	047071	205 01 0 00 040000 		MOVSI	1,FOV
 30504	047072	255 17 0 00 047073 		JFCL	17,.+1	;RESET ALL FLAGS
 30505	047073	254 02 0 01 047074 		JRST	2,.+1(1)		;SET FOV FLAG
 30506	047074	255 01 0 00 047076 		JFCL	1,.+2		;PASS IF FOV WAS SET
 30507						STOP^
 30508	047075	254 04 0 00 047076 		HALT	.+1		;TEST FAILED IF PROGRAM HALTS HERE
 30509	047076	324 00 0 00 047077 		JUMPA	.+1		;IF TEST FAILS, CHANGE THIS INSTRUCTION (JUMPA .+1) TO
 30510									;JUMPA X (X IS THE ADDRESS OF THE FIRST INSTRUCTION
 30511									;IN THE SUBTEST) TO LOOP ON ERROR^
 30512
 30513					;**********
DFKAA PDP-10 KL10 BASIC INSTRUCTION DIAGNOSTIC (1) VER 0,2	MACRO %53B(1254)-4 11:50 11-Nov-24 Page 32
DFKAA4	MAC	13-Jan-89 10:22		TEST OF JRST INSTRUCTION AND ARITHMETIC FLAGS

 30514					;THIS TEST VERIFIES THAT JFCL 0, SHOULD NEVER JUMP.
 30515					;FIRST, FOV IS SET VIA JRST2, ;THEN JFCL 0,
 30516					;IS EXECUTED.  IF JFCL 0, DOES NOT SKIP, THIS TEST PASSES
 30517
 30518	047077				C7000:	SFLAG	FOV		^;SET FOV FLAG
 30519
 30520	047077	205 01 0 00 040000 		MOVSI	1,FOV
 30521	047100	255 17 0 00 047101 		JFCL	17,.+1	;RESET ALL FLAGS
 30522	047101	254 02 0 01 047102 		JRST	2,.+1(1)		;SET FOV FLAG
 30523	047102	255 00 0 00 047104 		JFCL	,.+2		;*JFCL SHOULD NOT JUMP
 30524	047103	334 00 0 00 000000 		SKIPA			;PASS IF JFCL DID NOT JUMP
 30525						STOP^
 30526	047104	254 04 0 00 047105 		HALT	.+1		;TEST FAILED IF PROGRAM HALTS HERE
 30527	047105	324 00 0 00 047106 		JUMPA	.+1		;IF TEST FAILS, CHANGE THIS INSTRUCTION (JUMPA .+1) TO
 30528									;JUMPA X (X IS THE ADDRESS OF THE FIRST INSTRUCTION
 30529									;IN THE SUBTEST) TO LOOP ON ERROR^
 30530
 30531					;**********
 30532
 30533					;THIS TEST VERIFIES THAT JRST 2,.+1(1) WILL SET THE ARITHMETIC FLAG
 30534					;SPECIFIED IN AC1.  IN THIS CASE, AC1 CONTAINS 0.  HENCE, JRST 2,.+1(1)
 30535					;SHOULD RESET THE ARITHMETIC FLAGS.  FIRST, THE CRY0, FLAG IS SET BY JRST 2,.+1(1)
 30536					;WITH C(AC1)=CRY0.  THEN, THE FLAGS SHOULD BE CLEARED BY JRST 2,.+1 WITH C(AC1)=0.
 30537					;IF CRY0 WAS CLEARED, THE TEST PASSES.  OTHERWISE, JRST 2,.+1 IS FAULTY
 30538
 30539	047106				C7100:	SFLAG	CRY0		^;SET CRY0 FLAGS
 30540
 30541	047106	205 01 0 00 200000 		MOVSI	1,CRY0
 30542	047107	255 17 0 00 047110 		JFCL	17,.+1	;RESET ALL FLAGS
 30543	047110	254 02 0 01 047111 		JRST	2,.+1(1)		;SET CRY0 FLAG
 30544	047111	400 01 0 00 000000 		SETZ	1,		;SETUP MASK TO CLEAR ARITHMETIC FLAGS
 30545	047112	254 02 0 01 047113 		JRST	2,.+1(1)	;*RESET ARITHMETIC FLAGS
 30546	047113	255 04 0 00 047115 		JFCL	4,.+2		;PASS IF CRY0 FLAG WAS RESET
 30547	047114	334 00 0 00 000000 		SKIPA			;SKIP HALT INSTRUCTION IF TEST PSSED
 30548						STOP^
 30549	047115	254 04 0 00 047116 		HALT	.+1		;TEST FAILED IF PROGRAM HALTS HERE
 30550	047116	324 00 0 00 047117 		JUMPA	.+1		;IF TEST FAILS, CHANGE THIS INSTRUCTION (JUMPA .+1) TO
 30551									;JUMPA X (X IS THE ADDRESS OF THE FIRST INSTRUCTION
 30552									;IN THE SUBTEST) TO LOOP ON ERROR^
 30553
 30554					;**********
DFKAA PDP-10 KL10 BASIC INSTRUCTION DIAGNOSTIC (1) VER 0,2	MACRO %53B(1254)-4 11:50 11-Nov-24 Page 33
DFKAA4	MAC	13-Jan-89 10:22		TEST OF JRST INSTRUCTION AND ARITHMETIC FLAGS

 30555					;THIS TEST VERIFIES THAT JRST 2,.+1(1) WILL SET THE ARITHMETIC FLAG
 30556					;SPECIFIED IN AC1.  IN THIS CASE, AC1 CONTAINS 0.  HENCE, JRST 2,.+1(1)
 30557					;SHOULD RESET THE ARITHMETIC FLAGS.  FIRST, THE FOV, FLAG IS SET BY JRST 2,.+1(1)
 30558					;WITH C(AC1)=FOV.  THEN, THE FLAGS SHOULD BE CLEARED BY JRST 2,.+1 WITH C(AC1)=0.
 30559					;IF FOV WAS CLEARED, THE TEST PASSES.  OTHERWISE, JRST 2,.+1 IS FAULTY
 30560
 30561	047117				C7200:	SFLAG	FOV		^;SET FOV FLAG
 30562
 30563	047117	205 01 0 00 040000 		MOVSI	1,FOV
 30564	047120	255 17 0 00 047121 		JFCL	17,.+1	;RESET ALL FLAGS
 30565	047121	254 02 0 01 047122 		JRST	2,.+1(1)		;SET FOV FLAG
 30566	047122	400 01 0 00 000000 		SETZ	1,		;SETUP MASK TO CLEAR ARITHMETIC FLAGS,
 30567	047123	254 02 0 01 047124 		JRST	2,.+1(1)	;*RESET ARITHMETIC FLAGS
 30568	047124	255 01 0 00 047126 		JFCL	1,.+2		;PASS IF FOV FLAG WAS RESET
 30569	047125	334 00 0 00 000000 		SKIPA			;SKIP HALT INSTRUCTION IF TEST PSSED
 30570						STOP^
 30571	047126	254 04 0 00 047127 		HALT	.+1		;TEST FAILED IF PROGRAM HALTS HERE
 30572	047127	324 00 0 00 047130 		JUMPA	.+1		;IF TEST FAILS, CHANGE THIS INSTRUCTION (JUMPA .+1) TO
 30573									;JUMPA X (X IS THE ADDRESS OF THE FIRST INSTRUCTION
 30574									;IN THE SUBTEST) TO LOOP ON ERROR^
 30575
 30576					;**********
 30577
 30578					;THIS TEST VERIFIES THAT JRST 2,.+1(1) WILL SET THE ARITHMETIC FLAG
 30579					;SPECIFIED IN AC1.  IN THIS CASE, AC1 CONTAINS 0.  HENCE, JRST 2,.+1(1)
 30580					;SHOULD RESET THE ARITHMETIC FLAGS.  FIRST, THE ARITHMETIC FLAGS ARE RESET BY
 30581					;JFCL 17,.+1.  THEN, THE FLAGS SHOULD BE CLEARED BY JRST 2,.+1.
 30582					;IF ALL THE ARITHMETIC FLAGS WERE CLEARED,
 30583					;THE TEST PASSES.  OTHERWISE, JRST 2,.+1 IS FAULTY
 30584
 30585	047130	255 17 0 00 047131 	C7300:	JFCL	17,.+1		;CLEAR FLAGS
 30586	047131	400 01 0 00 000000 		SETZ	1,		;SETUP MASK TO CLEAR ARITMETIC FLAGS
 30587	047132	254 02 0 01 047133 		JRST	2,.+1(1)	;*RESET ARITHMETIC FLAGS
 30588	047133	255 17 0 00 047135 		JFCL	17,.+2		;PASS IF ALL FLAGS ARE RESET
 30589	047134	334 00 0 00 000000 		SKIPA			;SKIP HALT INSTRUCTION IF TEST PASSED
 30590						STOP^
 30591	047135	254 04 0 00 047136 		HALT	.+1		;TEST FAILED IF PROGRAM HALTS HERE
 30592	047136	324 00 0 00 047137 		JUMPA	.+1		;IF TEST FAILS, CHANGE THIS INSTRUCTION (JUMPA .+1) TO
 30593									;JUMPA X (X IS THE ADDRESS OF THE FIRST INSTRUCTION
 30594									;IN THE SUBTEST) TO LOOP ON ERROR^
 30595
 30596					;**********
DFKAA PDP-10 KL10 BASIC INSTRUCTION DIAGNOSTIC (1) VER 0,2	MACRO %53B(1254)-4 11:50 11-Nov-24 Page 34
DFKAA4	MAC	13-Jan-89 10:22		TEST OF JSP INSTRUCTION

 30597					SUBTTL	TEST OF JSP INSTRUCTION
 30598
 30599					;**********
 30600
 30601					;THIS TEST VERIFIES THAT JSP ALWAYS STORES THE FLAGS AND PC IN THE AC.
 30602					;IN THIS CASE, THE FLAGS ARE RESET; THEN, JSP IS EXECUTED.  THE AC IS THEN
 30603					;CHECKED FOR ITS CONTENTS NON-ZERO.  IF C(AC)=0, IT INDICATES
 30604					;THAT NEITHER THE FLAGS NOR THE PC WAS SAVED.  HENCE, THIS TEST FAILS.
 30605
 30606	047137	403 00 0 00 000001 	C7400:	SETZB	1		;CLEAR AC AND SETUP MASK TO RESET FLAGS
 30607	047140	254 02 0 01 047141 		JRST	2,.+1(1)	;RESET FLAGS
 30608	047141	265 00 0 00 047142 		JSP	.+1		;*JSP SHOULD STORE FLAGS AND PC IN THE AC
 30609	047142	336 00 0 00 000000 		SKIPN			;PASS IF C(AC) IS NON-ZERO
 30610						STOP			^;IT DID NOT STORE ANY FLAGS OR PC
 30611
 30612	047143	254 04 0 00 047144 		HALT	.+1		;TEST FAILED IF PROGRAM HALTS HERE
 30613	047144	324 00 0 00 047145 		JUMPA	.+1		;IF TEST FAILS, CHANGE THIS INSTRUCTION (JUMPA .+1) TO
 30614									;JUMPA X (X IS THE ADDRESS OF THE FIRST INSTRUCTION
 30615									;IN THE SUBTEST) TO LOOP ON ERROR
 30616
 30617					;**********
 30618
 30619					;THIS TEST VERIFIES THAT JSP ALWAYS STORES THE PC IN THE RIGHT HALF OF THE AC.
 30620					;IN THIS CASE, THE AC IS CLEARED, THEN, JSP IS EXECUTED.  THE RIGHT HALF OF
 30621					;THE AC IS THEN CHECKED FOR ITS CONTENTS NON-ZERO.  IF C(AC RIGHT HALF)
 30622					;IS NON-ZERO, IT INDICATED THAT THE PC WAS SAVED; AND THIS TEST PASSES.
 30623
 30624	047145	400 00 0 00 000000 	C7500:	SETZ			;CLEAN AC
 30625	047146	265 00 0 00 047147 		JSP	.+1		;*JSP SHOULD STORE THE PC IN THE AC
 30626	047147	606 00 0 00 777777 		TRNN	-1		;PASS IF C(AC) IN NON-ZERO
 30627						STOP^
 30628	047150	254 04 0 00 047151 		HALT	.+1		;TEST FAILED IF PROGRAM HALTS HERE
 30629	047151	324 00 0 00 047152 		JUMPA	.+1		;IF TEST FAILS, CHANGE THIS INSTRUCTION (JUMPA .+1) TO
 30630									;JUMPA X (X IS THE ADDRESS OF THE FIRST INSTRUCTION
 30631									;IN THE SUBTEST) TO LOOP ON ERROR^
 30632
 30633					;**********
DFKAA PDP-10 KL10 BASIC INSTRUCTION DIAGNOSTIC (1) VER 0,2	MACRO %53B(1254)-4 11:50 11-Nov-24 Page 35
DFKAA4	MAC	13-Jan-89 10:22		TEST OF JSP INSTRUCTION

 30634					;THIS TEST VERIFIES THAT JSP ALWAYS STORES THE FLAGS IN THE LEFT HALF OF THE AC.
 30635					;FIST, THE AC IS CLEARED; THEN, SOME FLAGS ARE SET AND JSP IS EXECUTED.
 30636					;THE LEFT HALF OF THE AC IS CHECKED FOR ITS CONTENTS NON-ZERO TO DETERMINE
 30637					;WHETHER THE FLAGS WERE SAVED.  IF C(AC-LEFT) IS NON-ZERO, THIS TEST PASSES
 30638
 30639	047152	402 00 0 00 000000 	C7600:	SETZM	0		;CLEAR AC
 30640	047153	205 01 0 00 740000 		MOVSI	1,740000	;SET UP MASK TO SET FLAGS
 30641	047154	254 02 0 01 047155 		JRST	2,.+1(1)	;SET SOME ARITHMETIC FLAGS
 30642	047155	265 00 0 00 047156 		JSP	.+1		;*JSP SHOULD STORE FLAGS IN THE AC
 30643	047156	607 00 0 00 777777 		TLNN	-1		;PASS IF C(AC) IS NON-ZERO
 30644						STOP^
 30645	047157	254 04 0 00 047160 		HALT	.+1		;TEST FAILED IF PROGRAM HALTS HERE
 30646	047160	324 00 0 00 047161 		JUMPA	.+1		;IF TEST FAILS, CHANGE THIS INSTRUCTION (JUMPA .+1) TO
 30647									;JUMPA X (X IS THE ADDRESS OF THE FIRST INSTRUCTION
 30648									;IN THE SUBTEST) TO LOOP ON ERROR^
 30649
 30650					;**********
 30651
 30652					;THIS TEST VERIFIES THAT JSP ALWAYS STORES THE FLAGS IN THE LEFT HALF OF THE AC.
 30653					;FIRST, THE AC IS CLEARED; THEN, THE AROV FLAG IS SET AND JSP IS EXECUTED.
 30654					;THEN, THE AROV FLAG BIT OF
 30655					;THE LEFT HALF OF THE AC IS CHECKED FOR ITS CONTENTS NON-ZERO TO DETERMINE
 30656					;WHETHER THE AROV FLAG WAS SAVED.  IF THE AROV FLAG BIT OF THE AC IS SET, THIS TEST PASSES
 30657
 30658	047161	402 00 0 00 000000 	C7700:	SETZM	0		;CLEAR THE AC
 30659						SFLAG	AROV		^;SET AROV FLAG
 30660
 30661	047162	205 01 0 00 400000 		MOVSI	1,AROV
 30662	047163	255 17 0 00 047164 		JFCL	17,.+1	;RESET ALL FLAGS
 30663	047164	254 02 0 01 047165 		JRST	2,.+1(1)		;SET AROV FLAG
 30664	047165	265 00 0 00 047166 		JSP	.+1		;*JSP SHOULD SAVE THE FLAGS IN THE AC-LEFT
 30665	047166	607 00 0 00 400000 		TLNN	AROV		;PASS IF AROV WAS SAVED
 30666						STOP^
 30667	047167	254 04 0 00 047170 		HALT	.+1		;TEST FAILED IF PROGRAM HALTS HERE
 30668	047170	324 00 0 00 047171 		JUMPA	.+1		;IF TEST FAILS, CHANGE THIS INSTRUCTION (JUMPA .+1) TO
 30669									;JUMPA X (X IS THE ADDRESS OF THE FIRST INSTRUCTION
 30670									;IN THE SUBTEST) TO LOOP ON ERROR^
 30671
 30672					;**********
DFKAA PDP-10 KL10 BASIC INSTRUCTION DIAGNOSTIC (1) VER 0,2	MACRO %53B(1254)-4 11:50 11-Nov-24 Page 36
DFKAA4	MAC	13-Jan-89 10:22		TEST OF JSP INSTRUCTION

 30673					;THIS TEST VERIFIES THAT JSP ALWAYS STORES THE FLAGS IN THE LEFT HALF OF THE AC.
 30674					;FIRST, THE AC IS CLEARED; THEN, THE CRY0 FLAG IS SET AND JSP IS EXECUTED.
 30675					;THEN, THE CRY0 FLAG BIT OF
 30676					;THE LEFT HALF OF THE AC IS CHECKED FOR ITS CONTENTS NON-ZERO TO DETERMINE
 30677					;WHETHER THE CRY0 FLAG WAS SAVED.  IF THE CRY0 FLAG BIT OF THE AC IS SET, THIS TEST PASSES
 30678
 30679	047171	402 00 0 00 000000 	C10000:	SETZM	0		;CLEAR THE AC
 30680						SFLAG	CRY0		^;SET CRY0 FLAG
 30681
 30682	047172	205 01 0 00 200000 		MOVSI	1,CRY0
 30683	047173	255 17 0 00 047174 		JFCL	17,.+1	;RESET ALL FLAGS
 30684	047174	254 02 0 01 047175 		JRST	2,.+1(1)		;SET CRY0 FLAG
 30685	047175	265 00 0 00 047176 		JSP	.+1		;*JSP SHOULD SAVE THE FLAGS IN THE AC-LEFT
 30686	047176	607 00 0 00 200000 		TLNN	CRY0		;PASS IF CRY0 WAS SAVED
 30687						STOP^
 30688	047177	254 04 0 00 047200 		HALT	.+1		;TEST FAILED IF PROGRAM HALTS HERE
 30689	047200	324 00 0 00 047201 		JUMPA	.+1		;IF TEST FAILS, CHANGE THIS INSTRUCTION (JUMPA .+1) TO
 30690									;JUMPA X (X IS THE ADDRESS OF THE FIRST INSTRUCTION
 30691									;IN THE SUBTEST) TO LOOP ON ERROR^
 30692
 30693					;**********
 30694
 30695					;THIS TEST VERIFIES THAT JSP ALWAYS STORES THE FLAGS IN THE LEFT HALF OF THE AC.
 30696					;FIRST, THE AC IS CLEARED; THEN, THE CRY1 FLAG IS SET AND JSP IS EXECUTED.
 30697					;THEN, THE CRY1 FLAG BIT OF
 30698					;THE LEFT HALF OF THE AC IS CHECKED FOR ITS CONTENTS NON-ZERO TO DETERMINE
 30699					;WHETHER THE FLAG WAS SAVED.  IF THE CRY1 FLAG BIT OF THE AC IS SET, THIS TEST PASSES
 30700
 30701	047201	400 00 0 00 000000 	C10100:	SETZ			;CLEAR AC
 30702						SFLAG	CRY1		^;SET CRY1 FLAG
 30703
 30704	047202	205 01 0 00 100000 		MOVSI	1,CRY1
 30705	047203	255 17 0 00 047204 		JFCL	17,.+1	;RESET ALL FLAGS
 30706	047204	254 02 0 01 047205 		JRST	2,.+1(1)		;SET CRY1 FLAG
 30707	047205	265 00 0 00 047206 		JSP	.+1		;*JSP SHOULD SAVE THE FLAGS IN THE AC-LEFT
 30708	047206	607 00 0 00 100000 		TLNN	CRY1		;PASS IF AROV WAS SAVED
 30709						STOP^
 30710	047207	254 04 0 00 047210 		HALT	.+1		;TEST FAILED IF PROGRAM HALTS HERE
 30711	047210	324 00 0 00 047211 		JUMPA	.+1		;IF TEST FAILS, CHANGE THIS INSTRUCTION (JUMPA .+1) TO
 30712									;JUMPA X (X IS THE ADDRESS OF THE FIRST INSTRUCTION
 30713									;IN THE SUBTEST) TO LOOP ON ERROR^
 30714
 30715					;**********
DFKAA PDP-10 KL10 BASIC INSTRUCTION DIAGNOSTIC (1) VER 0,2	MACRO %53B(1254)-4 11:50 11-Nov-24 Page 37
DFKAA4	MAC	13-Jan-89 10:22		TEST OF JSP INSTRUCTION

 30716					;THIS TEST VERIFIES THAT JSP ALWAYS STORES THE FLAGS IN THE LEFT HALF OF THE AC.
 30717					;FRIST, THE AC IS CLEARED; THEN, THE FOV FLAG IS SET AND JSP IS EXECUTED.
 30718					;THEN, THE FOV FLAG BIT OF THE LEFT HALF OF THE AC IS CHECKED FOR
 30719					;ITS CONTENTS NON-ZERO TO DETERMINE WHETHER THE FOV FLAG WAS SAVED.
 30720					;IF THE FOV FLAG BIT OF THE AC IS SET, THIS TEST PASSES
 30721
 30722	047211	400 00 0 00 000000 	C10200:	SETZ			;CLEAR THE AC
 30723						SFLAG	FOV		^;SET FOV FLAG
 30724
 30725	047212	205 01 0 00 040000 		MOVSI	1,FOV
 30726	047213	255 17 0 00 047214 		JFCL	17,.+1	;RESET ALL FLAGS
 30727	047214	254 02 0 01 047215 		JRST	2,.+1(1)		;SET FOV FLAG
 30728	047215	265 00 0 00 047216 		JSP	.+1		;*JSP SHOULD SAVE THE FLAGS IN THE AC-LEFT
 30729	047216	607 00 0 00 040000 		TLNN	FOV		;PASS IF FOV WAS SAVED
 30730						STOP^
 30731	047217	254 04 0 00 047220 		HALT	.+1		;TEST FAILED IF PROGRAM HALTS HERE
 30732	047220	324 00 0 00 047221 		JUMPA	.+1		;IF TEST FAILS, CHANGE THIS INSTRUCTION (JUMPA .+1) TO
 30733									;JUMPA X (X IS THE ADDRESS OF THE FIRST INSTRUCTION
 30734									;IN THE SUBTEST) TO LOOP ON ERROR^
 30735
 30736					;**********
 30737
 30738					;THIS TEST VERIFIES THAT JSP WILL STORE ONLY FLAGS THAT EXIST.
 30739					;I.E. RESET FLAGS WILL NOT BE SET IN THE AC.  ONLY FLAGS THAT ARE
 30740					;CLEARABLE BY JRSTF WILL BE CHECKED HERE.  FIRST ALL CLEARABLE
 30741					;FLAGS ARE RESET BY JRSTF;  THEN JSP IS EXECUTED.  THE AC IS THEN CHECKED.
 30742					;IF ANY CLEARABLE FLAGS ARE SET IN THE AC, THIS TEST FAILS.
 30743
 30744	047221				C10300:	SFLAG	0		^;CLEAR ALL CLEARABLE FLAGS
 30745
 30746	047221	205 01 0 00 000000 		MOVSI	1,0
 30747	047222	255 17 0 00 047223 		JFCL	17,.+1	;RESET ALL FLAGS
 30748	047223	254 02 0 01 047224 		JRST	2,.+1(1)		;SET 0 FLAG
 30749	047224	265 00 0 00 047225 		JSP	.+1		;*JSP SHOULD NOT STORE CLEARABLE FALGS
 30750	047225	603 00 0 00 761777 		TLNE	761777		;FAIL IF ANY CLEARABLE FLAG IS SET
 30751						STOP^
 30752	047226	254 04 0 00 047227 		HALT	.+1		;TEST FAILED IF PROGRAM HALTS HERE
 30753	047227	324 00 0 00 047230 		JUMPA	.+1		;IF TEST FAILS, CHANGE THIS INSTRUCTION (JUMPA .+1) TO
 30754									;JUMPA X (X IS THE ADDRESS OF THE FIRST INSTRUCTION
 30755									;IN THE SUBTEST) TO LOOP ON ERROR^
 30756
 30757					;**********
DFKAA PDP-10 KL10 BASIC INSTRUCTION DIAGNOSTIC (1) VER 0,2	MACRO %53B(1254)-4 11:50 11-Nov-24 Page 38
DFKAA4	MAC	13-Jan-89 10:22		TEST OF JSP INSTRUCTION

 30758					;THIS TEST VERIFIES THAT JSP ALWAYS JUMPS.
 30759					;IN THIS TEST, JSP .+2 IS EXECUTED.  IF JSP JUMPS, THE TEST PASSES;
 30760					;OTHERWISE, THIS TEST HALTS
 30761
 30762	047230	265 00 0 00 047232 	C10400:	JSP	.+2		;*JSP SHOULD ALWAYS JUMP
 30763						STOP^
 30764	047231	254 04 0 00 047232 		HALT	.+1		;TEST FAILED IF PROGRAM HALTS HERE
 30765	047232	324 00 0 00 047233 		JUMPA	.+1		;IF TEST FAILS, CHANGE THIS INSTRUCTION (JUMPA .+1) TO
 30766									;JUMPA X (X IS THE ADDRESS OF THE FIRST INSTRUCTION
 30767									;IN THE SUBTEST) TO LOOP ON ERROR^
 30768
 30769					;**********
DFKAA PDP-10 KL10 BASIC INSTRUCTION DIAGNOSTIC (1) VER 0,2	MACRO %53B(1254)-4 11:50 11-Nov-24 Page 39
DFKAA4	MAC	13-Jan-89 10:22		TEST JRST INSTRUCTION

 30770					SUBTTL	TEST JRST INSTRUCTION
 30771
 30772					;**********
 30773
 30774					;THIS TEST VERIFIES THAT JRST ALWAYS JUMPS.
 30775					;IN THIS TEST, JRST .+2 IS EXECUTED.  IF JRST JUMPS, THE TEST PASSES;
 30776					;OTHERWISE, THIS TEST HALTS
 30777
 30778	047233	254 00 0 00 047235 	C10500:	JRST	.+2		;*JRST 0, SHOULD ALWAYS JUMP
 30779						STOP^
 30780	047234	254 04 0 00 047235 		HALT	.+1		;TEST FAILED IF PROGRAM HALTS HERE
 30781	047235	324 00 0 00 047236 		JUMPA	.+1		;IF TEST FAILS, CHANGE THIS INSTRUCTION (JUMPA .+1) TO
 30782									;JUMPA X (X IS THE ADDRESS OF THE FIRST INSTRUCTION
 30783									;IN THE SUBTEST) TO LOOP ON ERROR^
 30784
 30785					;**********
DFKAA PDP-10 KL10 BASIC INSTRUCTION DIAGNOSTIC (1) VER 0,2	MACRO %53B(1254)-4 11:50 11-Nov-24 Page 40
DFKAA4	MAC	13-Jan-89 10:22		TEST OF AOBJX INSTRUCTIONS

 30786					SUBTTL	TEST OF AOBJX INSTRUCTIONS
 30787
 30788					;**********
 30789
 30790					;THIS TEST VERIFIES THAT AOBJN ALWAYS ADDS 1 TO BOTH HALVES OF THE AC.
 30791					;FIRST, THE AC IS CLEARED; THEN, AOBJN IS EXECUTED AND THE AC IS CHECKED
 30792					;FOR 1,,1.  IF C(AC)=1,,1, THIS TEST PASSES.
 30793
 30794	047236	400 00 0 00 000000 	C11200:	SETZ			;CLEAR THE AC
 30795	047237	253 00 0 00 047240 		AOBJN	.+1		;*AOBJN SHOULD ADD 1 TO BOTH HALVES OF THE AC
 30796	047240	312 00 0 00 070251 		CAME	[XWD 1,1]	;PASS IF C(AC)=1,,1
 30797						STOP^
 30798	047241	254 04 0 00 047242 		HALT	.+1		;TEST FAILED IF PROGRAM HALTS HERE
 30799	047242	324 00 0 00 047243 		JUMPA	.+1		;IF TEST FAILS, CHANGE THIS INSTRUCTION (JUMPA .+1) TO
 30800									;JUMPA X (X IS THE ADDRESS OF THE FIRST INSTRUCTION
 30801									;IN THE SUBTEST) TO LOOP ON ERROR^
 30802
 30803					;**********
 30804
 30805					;THIS TEST VERIFIES THAT AOBJP ALWAYS ADDS 1 TO BOTH HALVES OF THE AC.
 30806					;FIRST, THE AC IS CLEARED; THEN AOBJP IS EXECUTED AND THE AC IS CHECKED
 30807					;FOR 1,,1.  IF C(AC)=1,,1, THIS TEST PASSES.
 30808
 30809	047243	200 00 0 00 070502 	C11300:	MOVE	[XWD 377777,377777]	;PRELOAD AC WITH 377777,,377777
 30810	047244	252 00 0 00 047245 		AOBJP	.+1			;*AOBJP SHOULD ADD, TO BOTH HALVES OF THE AC
 30811	047245	312 00 0 00 070460 		CAME	[XWD 400000,400000]	;PASS IF C(AC)=400000,400000
 30812						STOP^
 30813	047246	254 04 0 00 047247 		HALT	.+1		;TEST FAILED IF PROGRAM HALTS HERE
 30814	047247	324 00 0 00 047250 		JUMPA	.+1		;IF TEST FAILS, CHANGE THIS INSTRUCTION (JUMPA .+1) TO
 30815									;JUMPA X (X IS THE ADDRESS OF THE FIRST INSTRUCTION
 30816									;IN THE SUBTEST) TO LOOP ON ERROR^
 30817
 30818					;**********
DFKAA PDP-10 KL10 BASIC INSTRUCTION DIAGNOSTIC (1) VER 0,2	MACRO %53B(1254)-4 11:50 11-Nov-24 Page 41
DFKAA4	MAC	13-Jan-89 10:22		TEST OF AOBJX INSTRUCTIONS

 30819					;THIS TEST VERIFIES THAT AOBJN WILL NOT JUMP WHEN C(AC) IS POSITIVE
 30820					;FIRST, THE AC IS CLEARED; AND AOBJN IS EXECUTED.  AOBJN SHOULD NOT JUMP
 30821					;BECAUSE C(AC) IS POSITIVE.  IF AOBJN JUMPS, THIS TEST FAILS
 30822
 30823	047250	400 00 0 00 000000 	C11400:	SETZ			;CLEAR THE AC
 30824	047251	253 00 0 00 047253 		AOBJN	.+2		;*AOBJN SHOULD NOT JUMP WHEN C(AC) IS POSITIVE
 30825	047252	334 00 0 00 000000 		SKIPA			;PASS IF AOBJN DOES NOT JUMP
 30826						STOP^
 30827	047253	254 04 0 00 047254 		HALT	.+1		;TEST FAILED IF PROGRAM HALTS HERE
 30828	047254	324 00 0 00 047255 		JUMPA	.+1		;IF TEST FAILS, CHANGE THIS INSTRUCTION (JUMPA .+1) TO
 30829									;JUMPA X (X IS THE ADDRESS OF THE FIRST INSTRUCTION
 30830									;IN THE SUBTEST) TO LOOP ON ERROR^
 30831
 30832					;**********
 30833
 30834					;THIS TEST VERIFIES THAT AOBJP WILL JUMP WHEN C(AC) IS POSITIVE
 30835					;FIRST, THE AC IS CLEARED; AND AOBJP IS EXECUTED.  AOBJP SHOULD JUMP
 30836					;BECAUSE C(AC) IS POSITIVE.  IF AOBJP DOES NOT JUMP, THIS TEST FAILS
 30837
 30838	047255	400 00 0 00 000000 	C11500:	SETZ			;CLEAR THE AC
 30839	047256	252 00 0 00 047260 		AOBJP 	.+2		;*AOBJP SHOULD JUMP BECAUSE C(AC) IS POSITIVE
 30840						STOP^
 30841	047257	254 04 0 00 047260 		HALT	.+1		;TEST FAILED IF PROGRAM HALTS HERE
 30842	047260	324 00 0 00 047261 		JUMPA	.+1		;IF TEST FAILS, CHANGE THIS INSTRUCTION (JUMPA .+1) TO
 30843									;JUMPA X (X IS THE ADDRESS OF THE FIRST INSTRUCTION
 30844									;IN THE SUBTEST) TO LOOP ON ERROR^
 30845
 30846					;**********
DFKAA PDP-10 KL10 BASIC INSTRUCTION DIAGNOSTIC (1) VER 0,2	MACRO %53B(1254)-4 11:50 11-Nov-24 Page 42
DFKAA4	MAC	13-Jan-89 10:22		TEST OF AOBJX INSTRUCTIONS

 30847					;THIS TEST VERIFIES THAT AOBJN WILL JUMP WHEN C(AC) IS NEGATIVE
 30848					;FIRST, THE AC IS PRELOADED WITH 400000,,0; AND AOBJN IS EXECUTED.  AOBJN SHOULD JUMP
 30849					;BECAUSE C(AC) IS NEGATIVE.  IF AOBJN DOES NOT JUMP, THIS TEST FAILS
 30850
 30851	047261	200 00 0 00 070460 	C11600:	MOVE	[XWD 400000,400000]	;PRELOAD AC WITH 400000,,400000
 30852	047262	253 00 0 00 047264 		AOBJN	.+2		;*AOBJN SHOULD JUMP BECAUSE C(AC) IS NEGATIVE
 30853						STOP^
 30854	047263	254 04 0 00 047264 		HALT	.+1		;TEST FAILED IF PROGRAM HALTS HERE
 30855	047264	324 00 0 00 047265 		JUMPA	.+1		;IF TEST FAILS, CHANGE THIS INSTRUCTION (JUMPA .+1) TO
 30856									;JUMPA X (X IS THE ADDRESS OF THE FIRST INSTRUCTION
 30857									;IN THE SUBTEST) TO LOOP ON ERROR^
 30858
 30859					;**********
 30860
 30861					;THIS TEST VERIFIES THAT AOBJP WILL NOT JUMP WHEN C(AC) IS NEGATIVE.  FIRST,
 30862					;THE AC IS PRELOADED WITH 400000,,0; AND AOBJP IS EXECUTED.  AOBJP SHOULD NOT JUMP
 30863					;BECAUSE C(AC) IS NEGATIVE.  IF AOBJP JUMPS, THIS TEST FAILS
 30864
 30865	047265	200 00 0 00 070460 	C11700:	MOVE	[XWD 400000,400000]	;PRELOAD AC WITH 400000,,400000
 30866	047266	252 00 0 00 047270 		AOBJP	.+2		;*AOBJP SHOULD NOT JUMP BECAUSE C(AC) IS NEGATIVE
 30867	047267	334 00 0 00 000000 		SKIPA			;PASS IF AOBJP DOES NOT JUMP
 30868						STOP^
 30869	047270	254 04 0 00 047271 		HALT	.+1		;TEST FAILED IF PROGRAM HALTS HERE
 30870	047271	324 00 0 00 047272 		JUMPA	.+1		;IF TEST FAILS, CHANGE THIS INSTRUCTION (JUMPA .+1) TO
 30871									;JUMPA X (X IS THE ADDRESS OF THE FIRST INSTRUCTION
 30872									;IN THE SUBTEST) TO LOOP ON ERROR^
 30873
 30874					;**********
DFKAA PDP-10 KL10 BASIC INSTRUCTION DIAGNOSTIC (1) VER 0,2	MACRO %53B(1254)-4 11:50 11-Nov-24 Page 43
DFKAA4	MAC	13-Jan-89 10:22		TEST OF AOBJX INSTRUCTIONS

 30875					;THIS TEST VERIFIES THAT THERE IS NO CARRY FROM BIT 18 TO BIT 17 OF THE AC ON AOBJN.
 30876					;THE AC IS PRELOADED WITH -1,,-1; THEN AOBJN IS EXECUTED. AOBJN SHOULD ADD ONE
 30877					;TO BOTH HALVES OF THE AC WITHOUT GENERATING A CARRY FROM BIT 18 TO BIT 17. IF NO
 30878					;CARRY WAS GENERATED, THIS TEST PASSES
 30879
 30880	047272	474 00 0 00 000000 	C12000:	SETO			;PRELOAD AC WITH -1,, -1
 30881	047273	253 00 0 00 047274 		AOBJN	.+1		;*AOBJN SHOULD NOT GENERATE A CARRY FROM BIT 18 TO 17
 30882	047274	332 00 0 00 000000 		SKIPE			;PASS IF C(AC)=0 (NO CARRY WAS GENERATED)
 30883						STOP^
 30884	047275	254 04 0 00 047276 		HALT	.+1		;TEST FAILED IF PROGRAM HALTS HERE
 30885	047276	324 00 0 00 047277 		JUMPA	.+1		;IF TEST FAILS, CHANGE THIS INSTRUCTION (JUMPA .+1) TO
 30886									;JUMPA X (X IS THE ADDRESS OF THE FIRST INSTRUCTION
 30887									;IN THE SUBTEST) TO LOOP ON ERROR^
 30888
 30889					;**********
DFKAA PDP-10 KL10 BASIC INSTRUCTION DIAGNOSTIC (1) VER 0,2	MACRO %53B(1254)-4 11:50 11-Nov-24 Page 44
DFKAA4	MAC	13-Jan-89 10:22		TEST SETTING OF ARITHMETIC FLAGS VIA MOVNX AND MOVMX

 30890					SUBTTL	TEST SETTING OF ARITHMETIC FLAGS VIA MOVNX AND MOVMX
 30891
 30892					;THIS TEST VERIFIES THAT MOVNI SETS CRY0 AND CRY1 FLAGS ONLY WHEN THE DATA IS 0.
 30893					;FIRST, THE ARITHMETIC FLAGS ARE RESET; THEN, MOVNI IS EXECUTED WITH DATA OF ZEROS.
 30894					;THE ARITHMETIC FLAGS ARE CHECKED.
 30895					; CRY0/1 ARE SET AND AROV AND FOV RESET, THIS TEST PASSES.
 30896
 30897	047277	255 17 0 00 047300 	C12100:	JFCL	17,.+1		;CLEAR FLAGS
 30898	047300	211 00 0 00 000000 		MOVNI	0		;* MOVNI 0 SHOULD SET CRY0/1
 30899	047301	255 04 0 00 047303 		JCRY0	.+2		;PASS IF CRY0 IS SET
 30900						STOP^
 30901	047302	254 04 0 00 047303 		HALT	.+1		;TEST FAILED IF PROGRAM HALTS HERE
 30902	047303	324 00 0 00 047304 		JUMPA	.+1		;IF TEST FAILS, CHANGE THIS INSTRUCTION (JUMPA .+1) TO
 30903									;JUMPA X (X IS THE ADDRESS OF THE FIRST INSTRUCTION
 30904									;IN THE SUBTEST) TO LOOP ON ERROR^
 30905	047304	255 02 0 00 047306 		JCRY1	.+2		;PASS IF CRY1 IS SET
 30906						STOP^
 30907	047305	254 04 0 00 047306 		HALT	.+1		;TEST FAILED IF PROGRAM HALTS HERE
 30908	047306	324 00 0 00 047307 		JUMPA	.+1		;IF TEST FAILS, CHANGE THIS INSTRUCTION (JUMPA .+1) TO
 30909									;JUMPA X (X IS THE ADDRESS OF THE FIRST INSTRUCTION
 30910									;IN THE SUBTEST) TO LOOP ON ERROR^
 30911	047307	255 10 0 00 047311 		JOV	.+2		;PASS IF AROV RESET
 30912	047310	334 00 0 00 000000 		SKIPA
 30913						STOP^
 30914	047311	254 04 0 00 047312 		HALT	.+1		;TEST FAILED IF PROGRAM HALTS HERE
 30915	047312	324 00 0 00 047313 		JUMPA	.+1		;IF TEST FAILS, CHANGE THIS INSTRUCTION (JUMPA .+1) TO
 30916									;JUMPA X (X IS THE ADDRESS OF THE FIRST INSTRUCTION
 30917									;IN THE SUBTEST) TO LOOP ON ERROR^
 30918	047313	255 01 0 00 047315 		JFOV	.+2		;PASS IF FOV RESET
 30919	047314	334 00 0 00 000000 		SKIPA
 30920						STOP^
 30921	047315	254 04 0 00 047316 		HALT	.+1		;TEST FAILED IF PROGRAM HALTS HERE
 30922	047316	324 00 0 00 047317 		JUMPA	.+1		;IF TEST FAILS, CHANGE THIS INSTRUCTION (JUMPA .+1) TO
 30923									;JUMPA X (X IS THE ADDRESS OF THE FIRST INSTRUCTION
 30924									;IN THE SUBTEST) TO LOOP ON ERROR^
 30925
 30926					;**********
 30927
 30928					;THIS TEST VERIFIES THAT MOVN WILL NOT SET ARITHMETIC FLAGS WHEN THE DATA IS -1,,-1.
 30929					;FIRST, THE FLAGS ARE RESET; THEN, MOVN [-1,,-1] IS EXECUTED.
 30930					;THE ARITHMETIC FLAGS ARE CHECKED.
 30931					;IF ANY ARITHMETIC FLAG IS SET, THIS TEST FAILS.
 30932
 30933	047317	255 17 0 00 047320 	C12200:	JFCL	17,.+1		;CLEAR FLAGS
 30934	047320	210 00 0 00 070254 		MOVN	[-1]		;*MOVN [-1,,-1] SHOULD SET ARITHMETIC FLAGS
 30935	047321	255 17 0 00 047323 		JFCL	17,.+2		;FAIL IF AN ARITHMETIC FLAG IS SET
 30936	047322	334 00 0 00 000000 		SKIPA			;SKIP HALT INSTRUCTION IF MOVN PASSED.
 30937						STOP^
 30938	047323	254 04 0 00 047324 		HALT	.+1		;TEST FAILED IF PROGRAM HALTS HERE
 30939	047324	324 00 0 00 047325 		JUMPA	.+1		;IF TEST FAILS, CHANGE THIS INSTRUCTION (JUMPA .+1) TO
 30940									;JUMPA X (X IS THE ADDRESS OF THE FIRST INSTRUCTION
 30941									;IN THE SUBTEST) TO LOOP ON ERROR^
 30942
 30943					;**********
DFKAA PDP-10 KL10 BASIC INSTRUCTION DIAGNOSTIC (1) VER 0,2	MACRO %53B(1254)-4 11:50 11-Nov-24 Page 45
DFKAA4	MAC	13-Jan-89 10:22		TEST SETTING OF ARITHMETIC FLAGS VIA MOVNX AND MOVMX

 30944					;THIS TEST VERIFIES THAT MOVN WILL SET THE AROV AND
 30945					;CRY1 FLAGS ONLY WHEN THE DATA IS 400000,,0
 30946					;FIRST, THE FLAGS ARE RESET; THEN, MOVN [400000,,0] IS EXECUTED.
 30947					;THE ARITHMETIC FLAGS ARE CHECKED.
 30948					;IF AROV AND CRY1 ARE SET AND CRY0 AND FOV ARE RESET, THIS TEST PASSES.
 30949
 30950	047325	255 17 0 00 047326 	C12300:	JFCL	17,.+1		;CLEAR ARITHMETIC FLAGS
 30951	047326	210 00 0 00 070256 		MOVN	[XWD 400000,0]	;*MOVN [400000,,0] SHOULD SET AROV AND CRY1 ONLY
 30952	047327	255 10 0 00 047331 		JOV	.+2		;PASS IF AROV IS SET
 30953						STOP^
 30954	047330	254 04 0 00 047331 		HALT	.+1		;TEST FAILED IF PROGRAM HALTS HERE
 30955	047331	324 00 0 00 047332 		JUMPA	.+1		;IF TEST FAILS, CHANGE THIS INSTRUCTION (JUMPA .+1) TO
 30956									;JUMPA X (X IS THE ADDRESS OF THE FIRST INSTRUCTION
 30957									;IN THE SUBTEST) TO LOOP ON ERROR^
 30958	047332	255 02 0 00 047334 		JCRY1	.+2		;PASS IF CRY0 IS SET
 30959						STOP^
 30960	047333	254 04 0 00 047334 		HALT	.+1		;TEST FAILED IF PROGRAM HALTS HERE
 30961	047334	324 00 0 00 047335 		JUMPA	.+1		;IF TEST FAILS, CHANGE THIS INSTRUCTION (JUMPA .+1) TO
 30962									;JUMPA X (X IS THE ADDRESS OF THE FIRST INSTRUCTION
 30963									;IN THE SUBTEST) TO LOOP ON ERROR^
 30964	047335	255 04 0 00 047337 		JCRY0	.+2		;PASS IF CRY0 IS RESET
 30965	047336	334 00 0 00 000000 		SKIPA
 30966						STOP^
 30967	047337	254 04 0 00 047340 		HALT	.+1		;TEST FAILED IF PROGRAM HALTS HERE
 30968	047340	324 00 0 00 047341 		JUMPA	.+1		;IF TEST FAILS, CHANGE THIS INSTRUCTION (JUMPA .+1) TO
 30969									;JUMPA X (X IS THE ADDRESS OF THE FIRST INSTRUCTION
 30970									;IN THE SUBTEST) TO LOOP ON ERROR^
 30971	047341	255 01 0 00 047343 		JFOV	.+2		;PASS IF FOV IS RESET
 30972	047342	334 00 0 00 000000 		SKIPA
 30973						STOP^
 30974	047343	254 04 0 00 047344 		HALT	.+1		;TEST FAILED IF PROGRAM HALTS HERE
 30975	047344	324 00 0 00 047345 		JUMPA	.+1		;IF TEST FAILS, CHANGE THIS INSTRUCTION (JUMPA .+1) TO
 30976									;JUMPA X (X IS THE ADDRESS OF THE FIRST INSTRUCTION
 30977									;IN THE SUBTEST) TO LOOP ON ERROR^
 30978
 30979					;**********
 30980
 30981					;THIS TEST VERIFIES THAT MOVM WILL SET THE AROV AND
 30982					;CRY1 FLAGS ONLY WHEN THE DATA IS 400000,,0
 30983					;FIRST, THE FLAGS ARE RESET; THEN, MOVM [400000,,0] IS EXECUTED.
 30984					;THE ARITHMETIC FLAGS ARE CHECKED.
 30985					;IF AROV AND CRY1 ARE SET AND CRY0 AND FOV ARE RESET, THIS TEST PASSES.
 30986
 30987	047345	255 17 0 00 047346 	C12301:	JFCL	17,.+1		;CLEAR ARITHMETIC FLAGS
 30988	047346	214 00 0 00 070256 		MOVM	[XWD 400000,0]	;*MOVM [400000,,0] SHOULD SET AROV AND CRY1 ONLY
 30989	047347	255 10 0 00 047351 		JOV	.+2		;PASS IF AROV IS SET
 30990						STOP^
 30991	047350	254 04 0 00 047351 		HALT	.+1		;TEST FAILED IF PROGRAM HALTS HERE
 30992	047351	324 00 0 00 047352 		JUMPA	.+1		;IF TEST FAILS, CHANGE THIS INSTRUCTION (JUMPA .+1) TO
 30993									;JUMPA X (X IS THE ADDRESS OF THE FIRST INSTRUCTION
 30994									;IN THE SUBTEST) TO LOOP ON ERROR^
 30995	047352	255 02 0 00 047354 		JCRY1	.+2		;PASS IF CRY0 IS SET
 30996						STOP^
 30997	047353	254 04 0 00 047354 		HALT	.+1		;TEST FAILED IF PROGRAM HALTS HERE
 30998	047354	324 00 0 00 047355 		JUMPA	.+1		;IF TEST FAILS, CHANGE THIS INSTRUCTION (JUMPA .+1) TO
DFKAA PDP-10 KL10 BASIC INSTRUCTION DIAGNOSTIC (1) VER 0,2	MACRO %53B(1254)-4 11:50 11-Nov-24 Page 45-1
DFKAA4	MAC	13-Jan-89 10:22		TEST SETTING OF ARITHMETIC FLAGS VIA MOVNX AND MOVMX

 30999									;JUMPA X (X IS THE ADDRESS OF THE FIRST INSTRUCTION
 31000									;IN THE SUBTEST) TO LOOP ON ERROR^
 31001	047355	255 04 0 00 047357 		JCRY0	.+2		;PASS IF CRY0 IS RESET
 31002	047356	334 00 0 00 000000 		SKIPA
 31003						STOP^
 31004	047357	254 04 0 00 047360 		HALT	.+1		;TEST FAILED IF PROGRAM HALTS HERE
 31005	047360	324 00 0 00 047361 		JUMPA	.+1		;IF TEST FAILS, CHANGE THIS INSTRUCTION (JUMPA .+1) TO
 31006									;JUMPA X (X IS THE ADDRESS OF THE FIRST INSTRUCTION
 31007									;IN THE SUBTEST) TO LOOP ON ERROR^
 31008	047361	255 01 0 00 047363 		JFOV	.+2		;PASS IF FOV IS RESET
 31009	047362	334 00 0 00 000000 		SKIPA
 31010						STOP^
 31011	047363	254 04 0 00 047364 		HALT	.+1		;TEST FAILED IF PROGRAM HALTS HERE
 31012	047364	324 00 0 00 047365 		JUMPA	.+1		;IF TEST FAILS, CHANGE THIS INSTRUCTION (JUMPA .+1) TO
 31013									;JUMPA X (X IS THE ADDRESS OF THE FIRST INSTRUCTION
 31014									;IN THE SUBTEST) TO LOOP ON ERROR^
 31015
 31016					;**********
DFKAA PDP-10 KL10 BASIC INSTRUCTION DIAGNOSTIC (1) VER 0,2	MACRO %53B(1254)-4 11:50 11-Nov-24 Page 46
DFKAA4	MAC	13-Jan-89 10:22		TEST OF AOS AND SOS INSTRUCTIONS

 31017					SUBTTL	TEST OF AOS AND SOS INSTRUCTIONS
 31018
 31019					;**********
 31020
 31021					;THIS TEST VERIFIES THAT AOS ADDS 1 TO MEMORY AND DOES NOT SKIP.
 31022					;FIRST, E IS CLEARED; THEN, AOS IS EXECUTED. NEXT E IS CHECKED FOR 1.
 31023					;IF C(E) IS NOT 1 OR AOS SKIPPED, THIS TEST FAILS
 31024
 31025	047365	400 00 0 00 000000 	C12600:	SETZ			;CLEAR E
 31026	047366	350 00 0 00 000000 		AOS			;*AOS SHOULD ADD 1 TO C(E) AND NOT SKIP
 31027	047367	302 00 0 00 000001 		CAIE	1		;PASS IF C(E)=0,,1 ANDAOS DID NOT SKIP
 31028						STOP^
 31029	047370	254 04 0 00 047371 		HALT	.+1		;TEST FAILED IF PROGRAM HALTS HERE
 31030	047371	324 00 0 00 047372 		JUMPA	.+1		;IF TEST FAILS, CHANGE THIS INSTRUCTION (JUMPA .+1) TO
 31031									;JUMPA X (X IS THE ADDRESS OF THE FIRST INSTRUCTION
 31032									;IN THE SUBTEST) TO LOOP ON ERROR^
 31033
 31034					;**********
 31035
 31036					;THIS TEST VERIFIES THAT AOS ADDS 1 TO MEMORY AND DOES NOT SKIP.
 31037					;FIRST, E IS PRELOADED WITH -1,,-1; THEN, AOS IS EXECUTED. NEXT E IS CHECKED FOR 0.
 31038					;IF C(E) IS NOT 0 OR AOS SKIPPED, THIS TEST FAILS
 31039
 31040	047372	474 00 0 00 000000 	C12700:	SETO			;PRELOAD E WITH -1,,-1
 31041	047373	350 00 0 00 000000 		AOS			;*AOS SHOULD ADD 1 TO C(E) AND NOT SKIP
 31042	047374	302 00 0 00 000000 		CAIE			;PASS IF C(E)=0,,0 AND AOS DID NOT SKIP
 31043						STOP^
 31044	047375	254 04 0 00 047376 		HALT	.+1		;TEST FAILED IF PROGRAM HALTS HERE
 31045	047376	324 00 0 00 047377 		JUMPA	.+1		;IF TEST FAILS, CHANGE THIS INSTRUCTION (JUMPA .+1) TO
 31046									;JUMPA X (X IS THE ADDRESS OF THE FIRST INSTRUCTION
 31047									;IN THE SUBTEST) TO LOOP ON ERROR^
 31048
 31049					;**********
DFKAA PDP-10 KL10 BASIC INSTRUCTION DIAGNOSTIC (1) VER 0,2	MACRO %53B(1254)-4 11:50 11-Nov-24 Page 47
DFKAA4	MAC	13-Jan-89 10:22		TEST OF AOS AND SOS INSTRUCTIONS

 31050					;THIS TEST VERIFIES THAT SOS SUBTRACTS 1 FROM MEMORY AND DOES NOT SKIP.
 31051					;FIRST, E IS CLEARED; THEN, SOS IS EXECUTED. NEXT E IS CHECKED FOR -1,,-1.
 31052					;IF C(E) IS NOT -1,,-1 OR SOS SKIPPED, THIS TEST FAILS
 31053
 31054	047377	400 00 0 00 000000 	C13100:	SETZ			;CLEAR E
 31055	047400	370 00 0 00 000000 		SOS			;*SOS SHOULD SUBTRACT 1 FROM C(E) AND NOT SKIP
 31056	047401	312 00 0 00 070254 		CAME	[-1]		;PASS IF C(E)=-1,,-1 AND SOS DID NOT SKIP
 31057						STOP^
 31058	047402	254 04 0 00 047403 		HALT	.+1		;TEST FAILED IF PROGRAM HALTS HERE
 31059	047403	324 00 0 00 047404 		JUMPA	.+1		;IF TEST FAILS, CHANGE THIS INSTRUCTION (JUMPA .+1) TO
 31060									;JUMPA X (X IS THE ADDRESS OF THE FIRST INSTRUCTION
 31061									;IN THE SUBTEST) TO LOOP ON ERROR^
 31062
 31063					;**********
 31064
 31065					;THIS TEST VERIFIES THAT SOS SUBTRACTS 1 FROM MEMORY AND DOES NOT SKIP.
 31066					;FIRST, E IS PRELOADED WITH A; THEN, SOS IS EXECUTED. NEXT E IS CHECKED FOR 0.
 31067					;IF C(E) IS NOT 0 OR SOS SKIPPED, THIS TEST FAILS
 31068
 31069	047404	201 00 0 00 000001 	C13200:	MOVEI	1		;PRELOAD E WITH 1
 31070	047405	370 00 0 00 000000 		SOS			;*SOS SHOULD SUBTRACT 1 FROM C(E) AND DID NOT SKIP
 31071	047406	302 00 0 00 000000 		CAIE	0		;PASS IF C(E)=0 AND SOS DID NOT SKIP
 31072						STOP^
 31073	047407	254 04 0 00 047410 		HALT	.+1		;TEST FAILED IF PROGRAM HALTS HERE
 31074	047410	324 00 0 00 047411 		JUMPA	.+1		;IF TEST FAILS, CHANGE THIS INSTRUCTION (JUMPA .+1) TO
 31075									;JUMPA X (X IS THE ADDRESS OF THE FIRST INSTRUCTION
 31076									;IN THE SUBTEST) TO LOOP ON ERROR^
 31077
 31078					;**********
DFKAA PDP-10 KL10 BASIC INSTRUCTION DIAGNOSTIC (1) VER 0,2	MACRO %53B(1254)-4 11:50 11-Nov-24 Page 48
DFKAA4	MAC	13-Jan-89 10:22		TEST OF AOS AND SOS INSTRUCTIONS

 31079					;THIS TEST VERIFIES THAT SOS SETS CRY0/1 FLAGS IF C(E) IS A NON-ZERO NUMBER OTHER
 31080					;THAN 400000,,0.  IN THIS CASE, C(E)=1.  FIRST THE FLAGS ARE RESET; THEN
 31081					;SOS IS EXECUTED.  THE  FLAGS ARE CHECKED.  IF CRY0 AND CRY1 ARE SET
 31082					;AND AROV AND FOV ARE RESET, THIS TEST PASSES.
 31083
 31084	047411	255 17 0 00 047412 	C13300:	JFCL	17,.+1		;RESET ARITHMETIC FLAGS
 31085	047412	201 00 0 00 000001 		MOVEI	1		;PRELOAD E WITH 1
 31086	047413	370 00 0 00 000000 		SOS			;*SOS SHOULD SET CRY0/1
 31087	047414	255 04 0 00 047416 		JCRY0	.+2		;PASS IF CRY0 IS SET
 31088						STOP^
 31089	047415	254 04 0 00 047416 		HALT	.+1		;TEST FAILED IF PROGRAM HALTS HERE
 31090	047416	324 00 0 00 047417 		JUMPA	.+1		;IF TEST FAILS, CHANGE THIS INSTRUCTION (JUMPA .+1) TO
 31091									;JUMPA X (X IS THE ADDRESS OF THE FIRST INSTRUCTION
 31092									;IN THE SUBTEST) TO LOOP ON ERROR^
 31093	047417	255 02 0 00 047421 		JCRY1	.+2		;PASS IF CRY1 IS SET
 31094						STOP^
 31095	047420	254 04 0 00 047421 		HALT	.+1		;TEST FAILED IF PROGRAM HALTS HERE
 31096	047421	324 00 0 00 047422 		JUMPA	.+1		;IF TEST FAILS, CHANGE THIS INSTRUCTION (JUMPA .+1) TO
 31097									;JUMPA X (X IS THE ADDRESS OF THE FIRST INSTRUCTION
 31098									;IN THE SUBTEST) TO LOOP ON ERROR^
 31099	047422	255 10 0 00 047424 		JOV	.+2		;PASS IF AROV IS RESET
 31100	047423	334 00 0 00 000000 		SKIPA
 31101						STOP^
 31102	047424	254 04 0 00 047425 		HALT	.+1		;TEST FAILED IF PROGRAM HALTS HERE
 31103	047425	324 00 0 00 047426 		JUMPA	.+1		;IF TEST FAILS, CHANGE THIS INSTRUCTION (JUMPA .+1) TO
 31104									;JUMPA X (X IS THE ADDRESS OF THE FIRST INSTRUCTION
 31105									;IN THE SUBTEST) TO LOOP ON ERROR^
 31106	047426	255 01 0 00 047430 		JFOV	.+2		;PASS IF FOV IS RESET
 31107	047427	334 00 0 00 000000 		SKIPA
 31108						STOP^
 31109	047430	254 04 0 00 047431 		HALT	.+1		;TEST FAILED IF PROGRAM HALTS HERE
 31110	047431	324 00 0 00 047432 		JUMPA	.+1		;IF TEST FAILS, CHANGE THIS INSTRUCTION (JUMPA .+1) TO
 31111									;JUMPA X (X IS THE ADDRESS OF THE FIRST INSTRUCTION
 31112									;IN THE SUBTEST) TO LOOP ON ERROR^
 31113
 31114					;**********
 31115
 31116					;THIS TEST VERIFIES THAT AOS SETS CRY0 AND CRY1 FLAG IF C(E) IS -1,,-1
 31117					;FIRST THE FLAGS ARE RESET; THEN
 31118					;AOS IS EXECUTED.  THE FLAGS ARE CHECKED.
 31119					;IF CRY0 AND CRY1 ARE SET AND AROV AND FOV ARE RESET, THIS TEST PASSES.
 31120
 31121	047432	255 17 0 00 047433 	C13400:	JFCL	17,.+1		;RESET ARITHMETIC FLAGS
 31122	047433	474 00 0 00 000000 		SETO			;PRELOAD E WITH 1
 31123	047434	350 00 0 00 000000 		AOS			;*AOS SHOULD SET CRY0 AND CRY1
 31124	047435	255 04 0 00 047437 		JCRY0	.+2		;PASS IF CRY0 IS SET
 31125						STOP^
 31126	047436	254 04 0 00 047437 		HALT	.+1		;TEST FAILED IF PROGRAM HALTS HERE
 31127	047437	324 00 0 00 047440 		JUMPA	.+1		;IF TEST FAILS, CHANGE THIS INSTRUCTION (JUMPA .+1) TO
 31128									;JUMPA X (X IS THE ADDRESS OF THE FIRST INSTRUCTION
 31129									;IN THE SUBTEST) TO LOOP ON ERROR^
 31130	047440	255 02 0 00 047442 		JCRY1	.+2		;PASS IF CRY1 IS SET
 31131						STOP^
 31132	047441	254 04 0 00 047442 		HALT	.+1		;TEST FAILED IF PROGRAM HALTS HERE
 31133	047442	324 00 0 00 047443 		JUMPA	.+1		;IF TEST FAILS, CHANGE THIS INSTRUCTION (JUMPA .+1) TO
DFKAA PDP-10 KL10 BASIC INSTRUCTION DIAGNOSTIC (1) VER 0,2	MACRO %53B(1254)-4 11:50 11-Nov-24 Page 48-1
DFKAA4	MAC	13-Jan-89 10:22		TEST OF AOS AND SOS INSTRUCTIONS

 31134									;JUMPA X (X IS THE ADDRESS OF THE FIRST INSTRUCTION
 31135									;IN THE SUBTEST) TO LOOP ON ERROR^
 31136	047443	255 10 0 00 047445 		JOV	.+2		;PASS IF AROV IS RESET
 31137	047444	334 00 0 00 000000 		SKIPA
 31138						STOP^
 31139	047445	254 04 0 00 047446 		HALT	.+1		;TEST FAILED IF PROGRAM HALTS HERE
 31140	047446	324 00 0 00 047447 		JUMPA	.+1		;IF TEST FAILS, CHANGE THIS INSTRUCTION (JUMPA .+1) TO
 31141									;JUMPA X (X IS THE ADDRESS OF THE FIRST INSTRUCTION
 31142									;IN THE SUBTEST) TO LOOP ON ERROR^
 31143	047447	255 01 0 00 047451 		JFOV	.+2		;PASS IF FOV IS RESET
 31144	047450	334 00 0 00 000000 		SKIPA
 31145						STOP^
 31146	047451	254 04 0 00 047452 		HALT	.+1		;TEST FAILED IF PROGRAM HALTS HERE
 31147	047452	324 00 0 00 047453 		JUMPA	.+1		;IF TEST FAILS, CHANGE THIS INSTRUCTION (JUMPA .+1) TO
 31148									;JUMPA X (X IS THE ADDRESS OF THE FIRST INSTRUCTION
 31149									;IN THE SUBTEST) TO LOOP ON ERROR^
 31150
 31151					;**********
DFKAA PDP-10 KL10 BASIC INSTRUCTION DIAGNOSTIC (1) VER 0,2	MACRO %53B(1254)-4 11:50 11-Nov-24 Page 49
DFKAA4	MAC	13-Jan-89 10:22		TEST OF INTERACTION OF JFCL, JRST, AND JSP WITH ARITHMETIC FLAGS

 31152					SUBTTL	TEST OF INTERACTION OF JFCL, JRST, AND JSP WITH ARITHMETIC FLAGS
 31153
 31154					;**********
 31155
 31156					;THIS TEST VERIFIES THAT JFCL 1, WILL ALWAYS CLEAR FOV FLAG.
 31157					;FIRST, FOV IS SET VIA JRST 2, ;THEN JFCL 1,.+1 IS EXECUTED TO CLEAR FOV.
 31158					;IF FOV WAS CLEARED, THIS TEST PASSES.
 31159
 31160	047453				C13600:	SFLAG	FOV		^;SET FOV FLAG
 31161
 31162	047453	205 01 0 00 040000 		MOVSI	1,FOV
 31163	047454	255 17 0 00 047455 		JFCL	17,.+1	;RESET ALL FLAGS
 31164	047455	254 02 0 01 047456 		JRST	2,.+1(1)		;SET FOV FLAG
 31165	047456	255 01 0 00 047457 		JFCL	1,.+1		;*JFCL SHOULD RESET FOV
 31166	047457	255 01 0 00 047461 		JFCL	1,.+2		;PASS IF FOV IS RESET
 31167	047460	334 00 0 00 000000 		SKIPA			;SKIP HALT IF JFCL 1,.+1 PASSED
 31168						STOP^
 31169	047461	254 04 0 00 047462 		HALT	.+1		;TEST FAILED IF PROGRAM HALTS HERE
 31170	047462	324 00 0 00 047463 		JUMPA	.+1		;IF TEST FAILS, CHANGE THIS INSTRUCTION (JUMPA .+1) TO
 31171									;JUMPA X (X IS THE ADDRESS OF THE FIRST INSTRUCTION
 31172									;IN THE SUBTEST) TO LOOP ON ERROR^
 31173
 31174					;**********
 31175
 31176					;THIS TEST VERIFIES THAT JRST 2, CAN SET FXU AND JSP CAN SAVE FXU IN THE AC.
 31177					;FIRST, FXU IS SET VIA JRST 2, ;THEN, JSP IS EXECUTED. THE AC IS CHECKED
 31178					;FOR FXU.  IF FXU IS SET, THIS TEST PASSES; OTHERWISE, EITHER JRST 2, OR JSP FAILED.
 31179
 31180	047463				C13700:	SFLAG	FXU		^;*SET FXU FLAG
 31181
 31182	047463	205 01 0 00 000100 		MOVSI	1,FXU
 31183	047464	255 17 0 00 047465 		JFCL	17,.+1	;RESET ALL FLAGS
 31184	047465	254 02 0 01 047466 		JRST	2,.+1(1)		;SET FXU FLAG
 31185	047466	265 00 0 00 047467 		JSP	.+1		;*STORE FXU FLAG IN AC
 31186	047467	607 00 0 00 000100 		TLNN	FXU		;PASS IF FXU IS SET IN THE AC
 31187						STOP^
 31188	047470	254 04 0 00 047471 		HALT	.+1		;TEST FAILED IF PROGRAM HALTS HERE
 31189	047471	324 00 0 00 047472 		JUMPA	.+1		;IF TEST FAILS, CHANGE THIS INSTRUCTION (JUMPA .+1) TO
 31190									;JUMPA X (X IS THE ADDRESS OF THE FIRST INSTRUCTION
 31191									;IN THE SUBTEST) TO LOOP ON ERROR^
 31192
 31193					;**********
DFKAA PDP-10 KL10 BASIC INSTRUCTION DIAGNOSTIC (1) VER 0,2	MACRO %53B(1254)-4 11:50 11-Nov-24 Page 50
DFKAA4	MAC	13-Jan-89 10:22		TEST OF INTERACTION OF JFCL, JRST, AND JSP WITH ARITHMETIC FLAGS

 31194					;THIS TEST VERIFIES THAT JRST 2, CAN RESET FXU AND JSP CAN SAVE FXU IN THE AC.
 31195					;FIRST, FXU IS SET; THEN, FXU IS RESET VIA JRST 2,.  NEXT, JSP IS EXECUTED; AND
 31196					;THE AC IS CHECKED FOR FXU RESET.  IF FXU IS RESET IN THE AC, THIS TEST PASSES;
 31197					;OTHERWISE, JRST 2, FAILED TO CLEAR FXU OR JSP STORED FXU INCORECTLY.
 31198
 31199	047472				C14000:	SFLAG	FXU		^;SET FXU FLAG
 31200
 31201	047472	205 01 0 00 000100 		MOVSI	1,FXU
 31202	047473	255 17 0 00 047474 		JFCL	17,.+1	;RESET ALL FLAGS
 31203	047474	254 02 0 01 047475 		JRST	2,.+1(1)		;SET FXU FLAG
 31204						SFLAG			^;*RESET FXU FLAG
 31205
 31206	047475	205 01 0 00 000000 		MOVSI	1,
 31207	047476	255 17 0 00 047477 		JFCL	17,.+1	;RESET ALL FLAGS
 31208	047477	254 02 0 01 047500 		JRST	2,.+1(1)		;SET  FLAG
 31209	047500	265 00 0 00 047501 		JSP	.+1		;*STORE FXU FLAG IN THE AC
 31210	047501	603 00 0 00 000100 		TLNE	FXU		;PASS IF FXU IS RESET IN THE AC
 31211						STOP^
 31212	047502	254 04 0 00 047503 		HALT	.+1		;TEST FAILED IF PROGRAM HALTS HERE
 31213	047503	324 00 0 00 047504 		JUMPA	.+1		;IF TEST FAILS, CHANGE THIS INSTRUCTION (JUMPA .+1) TO
 31214									;JUMPA X (X IS THE ADDRESS OF THE FIRST INSTRUCTION
 31215									;IN THE SUBTEST) TO LOOP ON ERROR^
 31216
 31217					;**********
 31218
 31219					;THIS TEST VERIFIES THAT JRST 2, CAN SET DCK AND JSP CAN SAVE DCK IN THE AC.
 31220					;FIRST, DCK IS SET VIA JRST 2, ;THEN JSP IS EXECUTED.  THE AC IS CHECKED
 31221					;FOR DCK.  IF DCK IS SET, THIS TEST PASSES, OTHERWISE JRST 2, OR JSP FAILED.
 31222
 31223	047504				C14100:	SFLAG	DCK		^;*SET DCK FLAG
 31224
 31225	047504	205 01 0 00 000040 		MOVSI	1,DCK
 31226	047505	255 17 0 00 047506 		JFCL	17,.+1	;RESET ALL FLAGS
 31227	047506	254 02 0 01 047507 		JRST	2,.+1(1)		;SET DCK FLAG
 31228	047507	265 00 0 00 047510 		JSP	.+1		;*STORE FXU FLAG IN AC
 31229	047510	607 00 0 00 000040 		TLNN	DCK		;PASS IF FXU IS SET IN THE AC
 31230						STOP^
 31231	047511	254 04 0 00 047512 		HALT	.+1		;TEST FAILED IF PROGRAM HALTS HERE
 31232	047512	324 00 0 00 047513 		JUMPA	.+1		;IF TEST FAILS, CHANGE THIS INSTRUCTION (JUMPA .+1) TO
 31233									;JUMPA X (X IS THE ADDRESS OF THE FIRST INSTRUCTION
 31234									;IN THE SUBTEST) TO LOOP ON ERROR^
 31235
 31236					;**********
DFKAA PDP-10 KL10 BASIC INSTRUCTION DIAGNOSTIC (1) VER 0,2	MACRO %53B(1254)-4 11:50 11-Nov-24 Page 51
DFKAA4	MAC	13-Jan-89 10:22		TEST OF INTERACTION OF JFCL, JRST, AND JSP WITH ARITHMETIC FLAGS

 31237					;THIS TEST VERIFIES THAT JRST 2, CAN RESET DCK AND JSP CAN SAVE DCK IN THE AC.
 31238					;FIRST, FXU IS SET; THEN, DCK IS RESET VIA JRST 2,.  NEXT, JSP IS EXPECTED; AND
 31239					;THE AC IS CHECKED FOR DCK RESET.  IF DCK IS RESET IN THE AC, THIS TEST PASSES;
 31240					;OTHERWISE, JRST 2, FAILED TO CLEAR DCK OR JSP STORED DCK INCORRECTLY.
 31241
 31242	047513				C14200:	SFLAG	DCK		^;SET DCK FLAG
 31243
 31244	047513	205 01 0 00 000040 		MOVSI	1,DCK
 31245	047514	255 17 0 00 047515 		JFCL	17,.+1	;RESET ALL FLAGS
 31246	047515	254 02 0 01 047516 		JRST	2,.+1(1)		;SET DCK FLAG
 31247						SFLAG			^;*RESET DCK FLAG
 31248
 31249	047516	205 01 0 00 000000 		MOVSI	1,
 31250	047517	255 17 0 00 047520 		JFCL	17,.+1	;RESET ALL FLAGS
 31251	047520	254 02 0 01 047521 		JRST	2,.+1(1)		;SET  FLAG
 31252	047521	265 00 0 00 047522 		JSP	.+1		;*STORE DCK FLAG IN THE AC
 31253	047522	603 00 0 00 000040 		TLNE	DCK		;PASS IF DCK IS RESET IN THE AC
 31254						STOP^
 31255	047523	254 04 0 00 047524 		HALT	.+1		;TEST FAILED IF PROGRAM HALTS HERE
 31256	047524	324 00 0 00 047525 		JUMPA	.+1		;IF TEST FAILS, CHANGE THIS INSTRUCTION (JUMPA .+1) TO
 31257									;JUMPA X (X IS THE ADDRESS OF THE FIRST INSTRUCTION
 31258									;IN THE SUBTEST) TO LOOP ON ERROR^
 31259
 31260					;**********
DFKAA PDP-10 KL10 BASIC INSTRUCTION DIAGNOSTIC (1) VER 0,2	MACRO %53B(1254)-4 11:50 11-Nov-24 Page 52
DFKAA4	MAC	13-Jan-89 10:22		TEST OF JUMPX INSTRUCTIONS

 31261					SUBTTL	TEST OF JUMPX INSTRUCTIONS
 31262
 31263					;**********
 31264
 31265					;THIS TEST VERIFIES THAT JUMPL IS DATA DEPENDENT.  IT WILL JUMP IF AND ONLY IF
 31266					;C(AC) IS NEGATIVE.  IN THIS TEST, THE AC CONTAINS -1,,-1.  HENCE,
 31267					;JUMPL SHOULD JUMP.  IF JUMPL JUMPS, THIS TEST PASSES.
 31268
 31269	047525	474 00 0 00 000000 	C14500:	SETO			;PRELOAD AC WITH -1,,-1
 31270	047526	321 00 0 00 047530 		JUMPL	.+2		;*JUMPL SHOULD JUMP BECAUSE C(AC) IS NEGATIVE
 31271						STOP^
 31272	047527	254 04 0 00 047530 		HALT	.+1		;TEST FAILED IF PROGRAM HALTS HERE
 31273	047530	324 00 0 00 047531 		JUMPA	.+1		;IF TEST FAILS, CHANGE THIS INSTRUCTION (JUMPA .+1) TO
 31274									;JUMPA X (X IS THE ADDRESS OF THE FIRST INSTRUCTION
 31275									;IN THE SUBTEST) TO LOOP ON ERROR^
 31276
 31277					;**********
 31278
 31279					;THIS TEST VERIFIES THAT JUMPL IS DATA DEPENDENT.  IT WILL JUMP IF AND ONLY IF
 31280					;C(AC) IS NEGATIVE.  IN THIS TEST, THE AC CONTAINS 0.  HENCE,
 31281					;JUMPL SHOULD NOT JUMP.  IF JUMPL DOES NOT JUMP, THIS TEST PASSES.
 31282
 31283	047531	400 00 0 00 000000 	C14600:	SETZ			;PRELOAD AC WITH 0
 31284	047532	321 00 0 00 047534 		JUMPL	.+2		;*JUMPL SHOULD NOT JUMP
 31285	047533	334 00 0 00 000000 		SKIPA			;PASS IF JUMPL DOES NOT JUMP
 31286						STOP^
 31287	047534	254 04 0 00 047535 		HALT	.+1		;TEST FAILED IF PROGRAM HALTS HERE
 31288	047535	324 00 0 00 047536 		JUMPA	.+1		;IF TEST FAILS, CHANGE THIS INSTRUCTION (JUMPA .+1) TO
 31289									;JUMPA X (X IS THE ADDRESS OF THE FIRST INSTRUCTION
 31290									;IN THE SUBTEST) TO LOOP ON ERROR^
 31291
 31292					;**********
 31293
 31294					;THIS TEST VERIFIES THAT JUMPE IS DATA DEPENDENT.  IT WILL JUMP IF AND ONLY IF
 31295					;C(AC)=0.  IN THIS TEST, THE AC CONTAINS 0.  HENCE,
 31296					;JUMPE SHOULD JUMP.  IF JUMPE JUMPS, THIS TEST PASSES.
 31297
 31298	047536	400 00 0 00 000000 	C14700:	SETZ			;PRELOAD AC WITH 0
 31299	047537	322 00 0 00 047541 		JUMPE	.+2		;*JUMPE SHOULD JUMP
 31300						STOP^
 31301	047540	254 04 0 00 047541 		HALT	.+1		;TEST FAILED IF PROGRAM HALTS HERE
 31302	047541	324 00 0 00 047542 		JUMPA	.+1		;IF TEST FAILS, CHANGE THIS INSTRUCTION (JUMPA .+1) TO
 31303									;JUMPA X (X IS THE ADDRESS OF THE FIRST INSTRUCTION
 31304									;IN THE SUBTEST) TO LOOP ON ERROR^
 31305
 31306					;**********
DFKAA PDP-10 KL10 BASIC INSTRUCTION DIAGNOSTIC (1) VER 0,2	MACRO %53B(1254)-4 11:50 11-Nov-24 Page 53
DFKAA4	MAC	13-Jan-89 10:22		TEST OF JUMPX INSTRUCTIONS

 31307					;THIS TEST VERIFIES THAT JUMPN IS DATA DEPENDENT.  IT WILL JUMP IF AND ONLY IF
 31308					;C(AC) IS NON-ZERO.  IN THIS TEST, THE AC CONTAINS 1.  HENCE,
 31309					;JUMPN SHOULD JUMP.  IF JUMPN JUMPS, THIS TEST PASSES.
 31310
 31311	047542	201 00 0 00 000001 	C15000:	MOVEI	1		;PRELOAD AC WITH 1
 31312	047543	326 00 0 00 047545 		JUMPN	.+2		;*JUMPN SHOULD JUMP
 31313						STOP^
 31314	047544	254 04 0 00 047545 		HALT	.+1		;TEST FAILED IF PROGRAM HALTS HERE
 31315	047545	324 00 0 00 047546 		JUMPA	.+1		;IF TEST FAILS, CHANGE THIS INSTRUCTION (JUMPA .+1) TO
 31316									;JUMPA X (X IS THE ADDRESS OF THE FIRST INSTRUCTION
 31317									;IN THE SUBTEST) TO LOOP ON ERROR^
 31318
 31319					;**********
 31320
 31321					;THIS TEST VERIFIES THAT JUMPE IS DATA DEPENDENT.  IT WILL JUMP IF AND ONLY IF
 31322					;C(AC)=0.  IN THIS TEST, THE AC CONTAINS 2.  HENCE,
 31323					;JUMPL SHOULD NOT JUMP.  IF JUMPE DOES NOT JUMP, THIS TEST PASSES.
 31324
 31325	047546	201 00 0 00 000002 	C15100:	MOVEI	2		;PRELOAD AC WITH 2
 31326	047547	322 00 0 00 047551 		JUMPE	.+2		;*JUMPE SHOULD NOT JUMP
 31327	047550	334 00 0 00 000000 		SKIPA			;PASS IF JUMPE DID NOT JUMP
 31328						STOP^
 31329	047551	254 04 0 00 047552 		HALT	.+1		;TEST FAILED IF PROGRAM HALTS HERE
 31330	047552	324 00 0 00 047553 		JUMPA	.+1		;IF TEST FAILS, CHANGE THIS INSTRUCTION (JUMPA .+1) TO
 31331									;JUMPA X (X IS THE ADDRESS OF THE FIRST INSTRUCTION
 31332									;IN THE SUBTEST) TO LOOP ON ERROR^
 31333
 31334					;**********
 31335
 31336					;THIS TEST VERIFIES THAT JUMPN IS DATA DEPENDENT.  IT WILL JUMP IF AND ONLY IF
 31337					;C(AC) IS NON-ZERO.  IN THIS TEST, THE AC CONTAINS 0.  HENCE,
 31338					;JUMPN SHOULD NOT JUMP.  IF JUMPN DOES NOT JUMP, THIS TEST PASSES.
 31339
 31340	047553	400 00 0 00 000000 	C15200:	SETZ			;PRELOAD AC WITH 0
 31341	047554	326 00 0 00 047556 		JUMPN	.+2		;*JUMPN SHOULD NOT JUMP
 31342	047555	334 00 0 00 000000 		SKIPA			;PASS IF JUMPN DID NOT JUMP
 31343						STOP^
 31344	047556	254 04 0 00 047557 		HALT	.+1		;TEST FAILED IF PROGRAM HALTS HERE
 31345	047557	324 00 0 00 047560 		JUMPA	.+1		;IF TEST FAILS, CHANGE THIS INSTRUCTION (JUMPA .+1) TO
 31346									;JUMPA X (X IS THE ADDRESS OF THE FIRST INSTRUCTION
 31347									;IN THE SUBTEST) TO LOOP ON ERROR^
 31348
 31349					;**********
DFKAA PDP-10 KL10 BASIC INSTRUCTION DIAGNOSTIC (1) VER 0,2	MACRO %53B(1254)-4 11:50 11-Nov-24 Page 54
DFKAA4	MAC	13-Jan-89 10:22		TEST OF JUMPX INSTRUCTIONS

 31350					;THIS TEST VERIFIES THAT JUMPG IS DATA DEPENDENT.  IT WILL JUMP IF AND ONLY IF
 31351					;C(AC) IS GREATER THAN 0.  IN THIS TEST, THE AC CONTAINS 1.  HENCE,
 31352					;JUMPG SHOULD JUMP.  IF JUMPG JUMPS, THIS TEST PASSES.
 31353
 31354	047560	201 00 0 00 000001 	C15300:	MOVEI	1		;PRELOAD  AC WITH 1
 31355	047561	327 00 0 00 047563 		JUMPG	.+2		;*JUMPG SHOULD JUMP
 31356						STOP^
 31357	047562	254 04 0 00 047563 		HALT	.+1		;TEST FAILED IF PROGRAM HALTS HERE
 31358	047563	324 00 0 00 047564 		JUMPA	.+1		;IF TEST FAILS, CHANGE THIS INSTRUCTION (JUMPA .+1) TO
 31359									;JUMPA X (X IS THE ADDRESS OF THE FIRST INSTRUCTION
 31360									;IN THE SUBTEST) TO LOOP ON ERROR^
 31361
 31362					;**********
 31363
 31364					;THIS TEST VERIFIES THAT JUMPG IS DATA DEPENDENT.  IT WILL JUMP IF AND ONLY IF
 31365					;C(AC) IS GREATER THAN 0.  IN THIS TEST, THE AC CONTAINS -1,,0.  HENCE,
 31366					;JUMPG SHOULD NOT JUMP.  IF JUMPG DOES NOT JUMP, THIS TEST PASSES.
 31367
 31368	047564	205 00 0 00 777777 	C15400:	MOVSI	-1		;PRELOAD AC WITH -1,,0
 31369	047565	327 00 0 00 047567 		JUMPG	.+2		;*JUMPG SHOULD NOT JUMP
 31370	047566	334 00 0 00 000000 		SKIPA			;PASS IF JUMPG DID NOT JUMP
 31371						STOP^
 31372	047567	254 04 0 00 047570 		HALT	.+1		;TEST FAILED IF PROGRAM HALTS HERE
 31373	047570	324 00 0 00 047571 		JUMPA	.+1		;IF TEST FAILS, CHANGE THIS INSTRUCTION (JUMPA .+1) TO
 31374									;JUMPA X (X IS THE ADDRESS OF THE FIRST INSTRUCTION
 31375									;IN THE SUBTEST) TO LOOP ON ERROR^
 31376
 31377					;**********
DFKAA PDP-10 KL10 BASIC INSTRUCTION DIAGNOSTIC (1) VER 0,2	MACRO %53B(1254)-4 11:50 11-Nov-24 Page 55
DFKAA4	MAC	13-Jan-89 10:22		TEST OF AOJ AND SOJ INSTRUCTIONS

 31378					SUBTTL	TEST OF AOJ AND SOJ INSTRUCTIONS
 31379
 31380					;**********
 31381
 31382					;THIS TEST VERIFIES THAT AOJ ADDS 1 TO THE AC AND DOES NOT JUMP.
 31383					;FIRST, THE AC IS PRELOADED WITH 0; THEN, AOJ IS EXECUTED.  NEXT, THE
 31384					;AC IS CHECKED FOR 1.  IF C(AC) IS NOT 1 OR AOJ SKIPPED, THIS TEST FAILS.
 31385
 31386	047571	400 00 0 00 000000 	C15500:	SETZ			;PRELOAD AC WITH 0
 31387	047572	340 00 0 00 047574 		AOJ	.+2		;*AOJ SHOULD ADD 1 TO THE AC AND NOT JUMP
 31388	047573	302 00 0 00 000001 		CAIE	1		;PASS IF C(AC)=1 AND AOJ DID NOT JUMP
 31389						STOP^
 31390	047574	254 04 0 00 047575 		HALT	.+1		;TEST FAILED IF PROGRAM HALTS HERE
 31391	047575	324 00 0 00 047576 		JUMPA	.+1		;IF TEST FAILS, CHANGE THIS INSTRUCTION (JUMPA .+1) TO
 31392									;JUMPA X (X IS THE ADDRESS OF THE FIRST INSTRUCTION
 31393									;IN THE SUBTEST) TO LOOP ON ERROR^
 31394
 31395					;**********
 31396
 31397					;THIS TEST VERIFIES THAT AOJ ADDS 1 TO THE AC AND DOES NOT JUMP.
 31398					;FIRST, THE AC IS PRELOADED WITH -1,,-1; THEN, AOJ IS EXECUTED.  NEXT, THE
 31399					;AC IS CHECKED FOR 0.  IF C(AC) IS NOT 0 OR AOJ SKIPPED, THIS TEST FAILS.
 31400
 31401	047576	474 00 0 00 000000 	C15600:	SETO			;PRELOAD AC WITH 0
 31402	047577	340 00 0 00 047601 		AOJ	.+2		;*AOJ SHOULD ADD 1 TO THE AC AND NOT JUMP
 31403	047600	302 00 0 00 000000 		CAIE	0		;PASS IF C(AC)=1 AND AOJ DID NOT JUMP
 31404						STOP^
 31405	047601	254 04 0 00 047602 		HALT	.+1		;TEST FAILED IF PROGRAM HALTS HERE
 31406	047602	324 00 0 00 047603 		JUMPA	.+1		;IF TEST FAILS, CHANGE THIS INSTRUCTION (JUMPA .+1) TO
 31407									;JUMPA X (X IS THE ADDRESS OF THE FIRST INSTRUCTION
 31408									;IN THE SUBTEST) TO LOOP ON ERROR^
 31409
 31410					;**********
 31411
 31412					;THIS TEST VERIFIES THAT SOJ SUBTRACTS 1 FROM THE AC AND DOES NOT JUMP.
 31413					;FIRST, THE AC IS PRELOADED WITH 0; THEN, SOJ IS EXECUTED.  NEXT, THE
 31414					;AC IS CHECKED FOR -1,,-1.  IF C(AC) IS NOT -1,,-1 OR SOJ SKIPPED, THIS TEST FAILS.
 31415
 31416	047603	400 00 0 00 000000 	C15700:	SETZ			;PRELOAD AC WITH 0
 31417	047604	360 00 0 00 047606 		SOJ	.+2		;*SOJ SHOULD SUBTRACT 1 FROM THE AC AND NOT JUMP
 31418	047605	312 00 0 00 070254 		CAME	[-1]		;PASS IF C(AC)=-1,,-1 AND SOJ DID NOT JUMP
 31419						STOP^
 31420	047606	254 04 0 00 047607 		HALT	.+1		;TEST FAILED IF PROGRAM HALTS HERE
 31421	047607	324 00 0 00 047610 		JUMPA	.+1		;IF TEST FAILS, CHANGE THIS INSTRUCTION (JUMPA .+1) TO
 31422									;JUMPA X (X IS THE ADDRESS OF THE FIRST INSTRUCTION
 31423									;IN THE SUBTEST) TO LOOP ON ERROR^
 31424
 31425					;**********
DFKAA PDP-10 KL10 BASIC INSTRUCTION DIAGNOSTIC (1) VER 0,2	MACRO %53B(1254)-4 11:50 11-Nov-24 Page 56
DFKAA4	MAC	13-Jan-89 10:22		TEST OF AOJ AND SOJ INSTRUCTIONS

 31426					;THIS TEST VERIFIES THAT SOJ SUBTRACTS 1 FROM THE AC AND DOES NOT JUMP.
 31427					;FIRST, THE AC IS PRELOADED WITH -1,,-1; THEN, SOJ IS EXECUTED.  NEXT, THE
 31428					;AC IS CHECKED FOR -1,,-2.  IF C(AC) IS NOT -1,,-2 OR SOJ SKIPPED, THIS TEST FAILS.
 31429
 31430	047610	474 00 0 00 000000 	C16000:	SETO			;PRELOAD AC WITH -1,,-1
 31431	047611	360 00 0 00 047613 		SOJ	.+2		;*SOJ SHOULD SUBTRACT 1 FROM THE AC AND NOT JUMP
 31432	047612	312 00 0 00 070333 		CAME	[-2]		;PASS IF C(AC)=-1,,-2 AND SOJ DID NOT JUMP
 31433						STOP^
 31434	047613	254 04 0 00 047614 		HALT	.+1		;TEST FAILED IF PROGRAM HALTS HERE
 31435	047614	324 00 0 00 047615 		JUMPA	.+1		;IF TEST FAILS, CHANGE THIS INSTRUCTION (JUMPA .+1) TO
 31436									;JUMPA X (X IS THE ADDRESS OF THE FIRST INSTRUCTION
 31437									;IN THE SUBTEST) TO LOOP ON ERROR^
 31438
 31439					;**********
 31440
 31441					;THIS TEST VERIFIES THAT SOJ SUBTRACTS 1 FROM THE AC AND DOES NOT JUMP.
 31442					;FIRST, THE AC IS PRELOADED WITH 0,,1; THEN, SOJ IS EXECUTED.  NEXT, THE
 31443					;AC IS CHECKED FOR 0.  IF C(AC) IS NOT 0 OR SOJ SKIPPED, THIS TEST FAILS.
 31444
 31445	047615	201 00 0 00 000001 	C16100:	MOVEI	1		;PRELOAD AC WITH 1
 31446	047616	360 00 0 00 047620 		SOJ	.+2		;*SOJ SHOULD SUBTRACT 1 FROM THE AC AND NOT JUMP
 31447	047617	302 00 0 00 000000 		CAIE	0		;PASS IF C(AC)=0 AND SOJ DID NOT JUMP
 31448						STOP^
 31449	047620	254 04 0 00 047621 		HALT	.+1		;TEST FAILED IF PROGRAM HALTS HERE
 31450	047621	324 00 0 00 047622 		JUMPA	.+1		;IF TEST FAILS, CHANGE THIS INSTRUCTION (JUMPA .+1) TO
 31451									;JUMPA X (X IS THE ADDRESS OF THE FIRST INSTRUCTION
 31452									;IN THE SUBTEST) TO LOOP ON ERROR^
 31453
 31454					;**********
DFKAA PDP-10 KL10 BASIC INSTRUCTION DIAGNOSTIC (1) VER 0,2	MACRO %53B(1254)-4 11:50 11-Nov-24 Page 57
DFKAA4	MAC	13-Jan-89 10:22		TEST OF AOJ AND SOJ INSTRUCTIONS

 31455					;THIS TEST VERIFIES THAT SOJ AC, FOLLOWED BY AOJ AC, HAS NO NET EFFECT ON C(AC).
 31456					;IN THIS CASE, THE AC IS PRELOADED WITH 0; THEN, SOJ AC, FOLLOWED BY AOJ.
 31457					;AC, IS REPEATED 7 TIMES.  THE AC IS THEN CHECKED FOR ITS ORIGINAL CONTENTS, 0.
 31458					;IF C(AC)=0, THIS TEST PASSES; OTHERWISE AOJ OR SOJ FAILED.
 31459
 31460			000017		C16200:	AC=17
 31461	047622	400 17 0 00 000000 		SETZ	AC,		;PRELOAD AC WITH 0
 31462						REPEAT	^D10,<
 31463						SOJ	AC,.		;*SOJ SHOULD SUBTRACT 1 FROM THE AC
 31464						AOJ	AC,.		;*AOJ SHOULD ADD 1 TO THE AC>
 31465
 31466	047623	360 17 0 00 047623 		SOJ	AC,.		;*SOJ SHOULD SUBTRACT 1 FROM THE AC
 31467	047624	340 17 0 00 047624 		AOJ	AC,.		;*AOJ SHOULD ADD 1 TO THE AC
 31468
 31469	047625	360 17 0 00 047625 		SOJ	AC,.		;*SOJ SHOULD SUBTRACT 1 FROM THE AC
 31470	047626	340 17 0 00 047626 		AOJ	AC,.		;*AOJ SHOULD ADD 1 TO THE AC
 31471
 31472	047627	360 17 0 00 047627 		SOJ	AC,.		;*SOJ SHOULD SUBTRACT 1 FROM THE AC
 31473	047630	340 17 0 00 047630 		AOJ	AC,.		;*AOJ SHOULD ADD 1 TO THE AC
 31474
 31475	047631	360 17 0 00 047631 		SOJ	AC,.		;*SOJ SHOULD SUBTRACT 1 FROM THE AC
 31476	047632	340 17 0 00 047632 		AOJ	AC,.		;*AOJ SHOULD ADD 1 TO THE AC
 31477
 31478	047633	360 17 0 00 047633 		SOJ	AC,.		;*SOJ SHOULD SUBTRACT 1 FROM THE AC
 31479	047634	340 17 0 00 047634 		AOJ	AC,.		;*AOJ SHOULD ADD 1 TO THE AC
 31480
 31481	047635	360 17 0 00 047635 		SOJ	AC,.		;*SOJ SHOULD SUBTRACT 1 FROM THE AC
 31482	047636	340 17 0 00 047636 		AOJ	AC,.		;*AOJ SHOULD ADD 1 TO THE AC
 31483
 31484	047637	360 17 0 00 047637 		SOJ	AC,.		;*SOJ SHOULD SUBTRACT 1 FROM THE AC
 31485	047640	340 17 0 00 047640 		AOJ	AC,.		;*AOJ SHOULD ADD 1 TO THE AC
 31486
 31487	047641	360 17 0 00 047641 		SOJ	AC,.		;*SOJ SHOULD SUBTRACT 1 FROM THE AC
 31488	047642	340 17 0 00 047642 		AOJ	AC,.		;*AOJ SHOULD ADD 1 TO THE AC
 31489
 31490	047643	360 17 0 00 047643 		SOJ	AC,.		;*SOJ SHOULD SUBTRACT 1 FROM THE AC
 31491	047644	340 17 0 00 047644 		AOJ	AC,.		;*AOJ SHOULD ADD 1 TO THE AC
 31492
 31493	047645	360 17 0 00 047645 		SOJ	AC,.		;*SOJ SHOULD SUBTRACT 1 FROM THE AC
 31494	047646	340 17 0 00 047646 		AOJ	AC,.		;*AOJ SHOULD ADD 1 TO THE AC
 31495	047647	332 00 0 00 000017 		SKIPE	AC		;PASS IF C(AC) IS UNCHANGED. I.E. C(AC)=0
 31496						STOP^
 31497	047650	254 04 0 00 047651 		HALT	.+1		;TEST FAILED IF PROGRAM HALTS HERE
 31498	047651	324 00 0 00 047652 		JUMPA	.+1		;IF TEST FAILS, CHANGE THIS INSTRUCTION (JUMPA .+1) TO
 31499									;JUMPA X (X IS THE ADDRESS OF THE FIRST INSTRUCTION
 31500									;IN THE SUBTEST) TO LOOP ON ERROR^
 31501
 31502					;**********
DFKAA PDP-10 KL10 BASIC INSTRUCTION DIAGNOSTIC (1) VER 0,2	MACRO %53B(1254)-4 11:50 11-Nov-24 Page 58
DFKAA4	MAC	13-Jan-89 10:22		TEST OF AOJ AND SOJ INSTRUCTIONS

 31503					;THIS TEST VERIFIES THAT SOJ SETS CRY0/1 FLAGS IF C(E) IS A NON-ZERO NUMBER OTHER
 31504					;THAN 400000,,0.  IN THIS CASE, C(E)=1.  FIRST THE FLAGS ARE RESET; THEN
 31505					;SOJ IS EXECUTED.  THE  FLAGS ARE CHECKED.  IF CRY0 AND CRY1 ARE SET
 31506					;AND AROV AND FOV ARE RESET, THIS TEST PASSES.
 31507
 31508	047652	255 17 0 00 047653 	C16201:	JFCL	17,.+1		;RESET ARITHMETIC FLAGS
 31509	047653	201 00 0 00 000001 		MOVEI	1		;PRELOAD E WITH 1
 31510	047654	360 00 0 00 000000 		SOJ			;*SOJ SHOULD SET CRY0/1
 31511	047655	255 04 0 00 047657 		JCRY0	.+2		;PASS IF CRY0 IS SET
 31512						STOP^
 31513	047656	254 04 0 00 047657 		HALT	.+1		;TEST FAILED IF PROGRAM HALTS HERE
 31514	047657	324 00 0 00 047660 		JUMPA	.+1		;IF TEST FAILS, CHANGE THIS INSTRUCTION (JUMPA .+1) TO
 31515									;JUMPA X (X IS THE ADDRESS OF THE FIRST INSTRUCTION
 31516									;IN THE SUBTEST) TO LOOP ON ERROR^
 31517	047660	255 02 0 00 047662 		JCRY1	.+2		;PASS IF CRY1 IS SET
 31518						STOP^
 31519	047661	254 04 0 00 047662 		HALT	.+1		;TEST FAILED IF PROGRAM HALTS HERE
 31520	047662	324 00 0 00 047663 		JUMPA	.+1		;IF TEST FAILS, CHANGE THIS INSTRUCTION (JUMPA .+1) TO
 31521									;JUMPA X (X IS THE ADDRESS OF THE FIRST INSTRUCTION
 31522									;IN THE SUBTEST) TO LOOP ON ERROR^
 31523	047663	255 10 0 00 047665 		JOV	.+2		;PASS IF AROV IS RESET
 31524	047664	334 00 0 00 000000 		SKIPA
 31525						STOP^
 31526	047665	254 04 0 00 047666 		HALT	.+1		;TEST FAILED IF PROGRAM HALTS HERE
 31527	047666	324 00 0 00 047667 		JUMPA	.+1		;IF TEST FAILS, CHANGE THIS INSTRUCTION (JUMPA .+1) TO
 31528									;JUMPA X (X IS THE ADDRESS OF THE FIRST INSTRUCTION
 31529									;IN THE SUBTEST) TO LOOP ON ERROR^
 31530	047667	255 01 0 00 047671 		JFOV	.+2		;PASS IF FOV IS RESET
 31531	047670	334 00 0 00 000000 		SKIPA
 31532						STOP^
 31533	047671	254 04 0 00 047672 		HALT	.+1		;TEST FAILED IF PROGRAM HALTS HERE
 31534	047672	324 00 0 00 047673 		JUMPA	.+1		;IF TEST FAILS, CHANGE THIS INSTRUCTION (JUMPA .+1) TO
 31535									;JUMPA X (X IS THE ADDRESS OF THE FIRST INSTRUCTION
 31536									;IN THE SUBTEST) TO LOOP ON ERROR^
 31537
 31538					;**********
 31539
 31540					;THIS TEST VERIFIES THAT AOJ SETS CRY0 AND CRY1 FLAG IF C(E) IS -1,,-1
 31541					;FIRST THE FLAGS ARE RESET; THEN
 31542					;AOJ IS EXECUTED.  THE FLAGS ARE CHECKED.
 31543					;IF CRY0 AND CRY1 ARE SET AND AROV AND FOV ARE RESET, THIS TEST PASSES.
 31544
 31545	047673	255 17 0 00 047674 	C16202:	JFCL	17,.+1		;RESET ARITHMETIC FLAGS
 31546	047674	474 00 0 00 000000 		SETO			;PRELOAD E WITH 1
 31547	047675	340 00 0 00 000000 		AOJ			;*AOJ SHOULD SET CRY0 AND CRY1
 31548	047676	255 04 0 00 047700 		JCRY0	.+2		;PASS IF CRY0 IS SET
 31549						STOP^
 31550	047677	254 04 0 00 047700 		HALT	.+1		;TEST FAILED IF PROGRAM HALTS HERE
 31551	047700	324 00 0 00 047701 		JUMPA	.+1		;IF TEST FAILS, CHANGE THIS INSTRUCTION (JUMPA .+1) TO
 31552									;JUMPA X (X IS THE ADDRESS OF THE FIRST INSTRUCTION
 31553									;IN THE SUBTEST) TO LOOP ON ERROR^
 31554	047701	255 02 0 00 047703 		JCRY1	.+2		;PASS IF CRY1 IS SET
 31555						STOP^
 31556	047702	254 04 0 00 047703 		HALT	.+1		;TEST FAILED IF PROGRAM HALTS HERE
 31557	047703	324 00 0 00 047704 		JUMPA	.+1		;IF TEST FAILS, CHANGE THIS INSTRUCTION (JUMPA .+1) TO
DFKAA PDP-10 KL10 BASIC INSTRUCTION DIAGNOSTIC (1) VER 0,2	MACRO %53B(1254)-4 11:50 11-Nov-24 Page 58-1
DFKAA4	MAC	13-Jan-89 10:22		TEST OF AOJ AND SOJ INSTRUCTIONS

 31558									;JUMPA X (X IS THE ADDRESS OF THE FIRST INSTRUCTION
 31559									;IN THE SUBTEST) TO LOOP ON ERROR^
 31560	047704	255 10 0 00 047706 		JOV	.+2		;PASS IF AROV IS RESET
 31561	047705	334 00 0 00 000000 		SKIPA
 31562						STOP^
 31563	047706	254 04 0 00 047707 		HALT	.+1		;TEST FAILED IF PROGRAM HALTS HERE
 31564	047707	324 00 0 00 047710 		JUMPA	.+1		;IF TEST FAILS, CHANGE THIS INSTRUCTION (JUMPA .+1) TO
 31565									;JUMPA X (X IS THE ADDRESS OF THE FIRST INSTRUCTION
 31566									;IN THE SUBTEST) TO LOOP ON ERROR^
 31567	047710	255 01 0 00 047712 		JFOV	.+2		;PASS IF FOV IS RESET
 31568	047711	334 00 0 00 000000 		SKIPA
 31569						STOP^
 31570	047712	254 04 0 00 047713 		HALT	.+1		;TEST FAILED IF PROGRAM HALTS HERE
 31571	047713	324 00 0 00 047714 		JUMPA	.+1		;IF TEST FAILS, CHANGE THIS INSTRUCTION (JUMPA .+1) TO
 31572									;JUMPA X (X IS THE ADDRESS OF THE FIRST INSTRUCTION
 31573									;IN THE SUBTEST) TO LOOP ON ERROR^
 31574
 31575					;**********
DFKAA PDP-10 KL10 BASIC INSTRUCTION DIAGNOSTIC (1) VER 0,2	MACRO %53B(1254)-4 11:50 11-Nov-24 Page 59
DFKAA4	MAC	13-Jan-89 10:22		TEST OF MEMORY, BOTH AND SELF MODE INSTRUCTIONS

 31576					SUBTTL	TEST OF MEMORY, BOTH AND SELF MODE INSTRUCTIONS
 31577
 31578					;**********
 31579
 31580					;THIS TEST VERIFIES THAT ADDM DOES NOT MODIFY C(AC)
 31581					;BOTH AC AND E ARE PRELOADED WITH -1,,-1.  THEN ADDM IS EXECUTED.
 31582					;THIS TEST PASSES IF C(AC) ARE UNCHANGED
 31583
 31584	047714	477 00 0 00 000001 	C16400:	SETOB	1		;PRELOAD AC, E WITH -1,,-1
 31585	047715	272 00 0 00 000001 		ADDM	1		;*ADDM SHOULD NOT AFFECT C(AC)
 31586	047716	312 00 0 00 070254 		CAME	[-1]		;PASS IF C(AC) IS UNMODIFIED BY ADDM
 31587						STOP^
 31588	047717	254 04 0 00 047720 		HALT	.+1		;TEST FAILED IF PROGRAM HALTS HERE
 31589	047720	324 00 0 00 047721 		JUMPA	.+1		;IF TEST FAILS, CHANGE THIS INSTRUCTION (JUMPA .+1) TO
 31590									;JUMPA X (X IS THE ADDRESS OF THE FIRST INSTRUCTION
 31591									;IN THE SUBTEST) TO LOOP ON ERROR^
 31592
 31593					;**********
 31594
 31595					;THIS TEST VERIFIES THAT HRREM DOES NOT MODIFY C(AC)
 31596					;THE AC IS PRELOADED WITH 0,,-1.  THEN HRRM IS EXECUTED.
 31597					;THIS TEST PASSES IF C(AC) ARE UNCHANGED
 31598
 31599	047721	201 00 0 00 777777 	C16500:	MOVEI	-1		;PRELOAD AC WITH 0,,-1
 31600	047722	572 00 0 00 000001 		HRREM	1		;*HRRM SHOULD NOT AFFECT C(AC)
 31601	047723	302 00 0 00 777777 		CAIE	-1		;PASS IF C(AC) IS UNMODIFIED BY HRRM
 31602						STOP^
 31603	047724	254 04 0 00 047725 		HALT	.+1		;TEST FAILED IF PROGRAM HALTS HERE
 31604	047725	324 00 0 00 047726 		JUMPA	.+1		;IF TEST FAILS, CHANGE THIS INSTRUCTION (JUMPA .+1) TO
 31605									;JUMPA X (X IS THE ADDRESS OF THE FIRST INSTRUCTION
 31606									;IN THE SUBTEST) TO LOOP ON ERROR^
 31607
 31608					;**********
DFKAA PDP-10 KL10 BASIC INSTRUCTION DIAGNOSTIC (1) VER 0,2	MACRO %53B(1254)-4 11:50 11-Nov-24 Page 60
DFKAA4	MAC	13-Jan-89 10:22		TEST OF MEMORY, BOTH AND SELF MODE INSTRUCTIONS

 31609					;THIS TEST VERIFIES THAT MOVSM DOES NOT MODIFY C(AC)
 31610					;THE AC IS PRELOADED WITH 0,,-1.  THEN MOVSM IS EXECUTED.
 31611					;THIS TEST PASSES IF C(AC) ARE UNCHANGED
 31612
 31613	047726	201 00 0 00 777777 	C16600:	MOVEI	-1		;PRELOAD AC WITH 0,,-1
 31614	047727	206 00 0 00 000001 		MOVSM	1		;*MOVSM SHOULD NOT AFFECT C(AC)
 31615	047730	302 00 0 00 777777 		CAIE	-1		;PASS IF C(AC) IS UNMODIFIED BY MOVSM
 31616						STOP^
 31617	047731	254 04 0 00 047732 		HALT	.+1		;TEST FAILED IF PROGRAM HALTS HERE
 31618	047732	324 00 0 00 047733 		JUMPA	.+1		;IF TEST FAILS, CHANGE THIS INSTRUCTION (JUMPA .+1) TO
 31619									;JUMPA X (X IS THE ADDRESS OF THE FIRST INSTRUCTION
 31620									;IN THE SUBTEST) TO LOOP ON ERROR^
 31621
 31622					;**********
 31623
 31624					;THIS TEST VERIFIES THAT XORM DOES NOT MODIFY C(AC)
 31625					;BOTH AC AND E ARE PRELOADED WITH -1,,-1.  THEN XORM IS EXECUTED.
 31626					;THIS TEST PASSES IF C(AC) ARE UNCHANGED
 31627
 31628	047733	477 00 0 00 000001 	C16700:	SETOB	1		;PRELOAD AC, E WITH -1,,-1
 31629	047734	432 00 0 00 000001 		XORM	1		;*XORM SHOULD NOT AFFECT C(AC)
 31630	047735	312 00 0 00 070254 		CAME	[-1]		;PASS IF C(AC) IS UNMODIFIED BY XORM
 31631						STOP^
 31632	047736	254 04 0 00 047737 		HALT	.+1		;TEST FAILED IF PROGRAM HALTS HERE
 31633	047737	324 00 0 00 047740 		JUMPA	.+1		;IF TEST FAILS, CHANGE THIS INSTRUCTION (JUMPA .+1) TO
 31634									;JUMPA X (X IS THE ADDRESS OF THE FIRST INSTRUCTION
 31635									;IN THE SUBTEST) TO LOOP ON ERROR^
 31636
 31637					;**********
DFKAA PDP-10 KL10 BASIC INSTRUCTION DIAGNOSTIC (1) VER 0,2	MACRO %53B(1254)-4 11:50 11-Nov-24 Page 61
DFKAA4	MAC	13-Jan-89 10:22		TEST OF MEMORY, BOTH AND SELF MODE INSTRUCTIONS

 31638					;THIS TEST VERIFIES THAT ADDB ADDS C(AC) TO C(E) AND PLACES THE
 31639					;RESULT IN BOTH AC AND E.  IN THIS TEST, BOTH AC AND E ARE PRELOADED
 31640					;WITH -1,,-1, THEN, ADDB IS EXECUTED.  C(AC) IS THEN COMPARED TO C(E);
 31641					;AND C(AC) IS THEN COMPARED TO -2.  IF BOTH OF THESE COMPARISONS SUCCEED, THIS
 31642					;TEST PASSES; OTHERWISE, ADDB FAILED
 31643
 31644	047740	477 00 0 00 000001 	C17000:	SETOB	1		;PRELOAD AC, E WITH -1,,-1
 31645	047741	273 00 0 00 000001 		ADDB	1		;*ADDB SHOULD ADD C(AC) TO C(E) AND PLACE RESULT
 31646									;INTO BOTH AC AND E
 31647	047742	312 00 0 00 000001 		CAME	1		;PASS IF C(AC)=C(E)
 31648						STOP^
 31649	047743	254 04 0 00 047744 		HALT	.+1		;TEST FAILED IF PROGRAM HALTS HERE
 31650	047744	324 00 0 00 047745 		JUMPA	.+1		;IF TEST FAILS, CHANGE THIS INSTRUCTION (JUMPA .+1) TO
 31651									;JUMPA X (X IS THE ADDRESS OF THE FIRST INSTRUCTION
 31652									;IN THE SUBTEST) TO LOOP ON ERROR^
 31653	047745	312 00 0 00 070333 		CAME	[-2]		;PASS IF C(AC)=-2
 31654						STOP^
 31655	047746	254 04 0 00 047747 		HALT	.+1		;TEST FAILED IF PROGRAM HALTS HERE
 31656	047747	324 00 0 00 047750 		JUMPA	.+1		;IF TEST FAILS, CHANGE THIS INSTRUCTION (JUMPA .+1) TO
 31657									;JUMPA X (X IS THE ADDRESS OF THE FIRST INSTRUCTION
 31658									;IN THE SUBTEST) TO LOOP ON ERROR^
 31659
 31660					;**********
 31661
 31662					;THIS TEST VERIFIES THAT ADDM ADDS C(AC) TO C(E) AND PLACES THE RESULT IN E
 31663					;IN THIS CASE, AC, E ARE BOTH PRELOADED WITH -1; THEN, ADDM IS EXECUTED.
 31664					;E IS THEN CHECKED FOR -2.  IF C(E)=-2, THIS TEST PASSES; OTHERWISE, ADDM FAILED
 31665
 31666	047750	477 00 0 00 000001 	C17100:	SETOB	1		;PRELOAD AC, E WITH -1,,-1
 31667	047751	272 00 0 00 000001 		ADDM	1		;*ADDM SHOULD ADD C(AC) TO C(E)
 31668	047752	312 01 0 00 070333 		CAME	1,[-2]		;PASS IF C(E)=-2
 31669						STOP^
 31670	047753	254 04 0 00 047754 		HALT	.+1		;TEST FAILED IF PROGRAM HALTS HERE
 31671	047754	324 00 0 00 047755 		JUMPA	.+1		;IF TEST FAILS, CHANGE THIS INSTRUCTION (JUMPA .+1) TO
 31672									;JUMPA X (X IS THE ADDRESS OF THE FIRST INSTRUCTION
 31673									;IN THE SUBTEST) TO LOOP ON ERROR^
 31674
 31675					;**********
DFKAA PDP-10 KL10 BASIC INSTRUCTION DIAGNOSTIC (1) VER 0,2	MACRO %53B(1254)-4 11:50 11-Nov-24 Page 62
DFKAA4	MAC	13-Jan-89 10:22		TEST OF MEMORY, BOTH AND SELF MODE INSTRUCTIONS

 31676					;THIS TEST VERIFIES THAT HLLOS PLACES ONES ON THE RIGHT HALF OF E
 31677					;BUT DOES NOT AFFECT THE LEFT HALF OF E.  IN THIS CASE,
 31678					;E IS PRELOADED WITH 0; THE, HLLOS IS EXECUTED.  THE RESULT
 31679					;IN E SHOULD BE 0,,-1.  IF C(E)=0,,-1, THIS TEST PASSES
 31680
 31681	047755	402 00 0 00 000001 	C17200:	SETZM	1		;PRELOAD E WITH 0
 31682	047756	523 00 0 00 000001 		HLLOS	1		;*HLLOS SHOULD PLACE 0,,-1 INTO E
 31683	047757	302 01 0 00 777777 		CAIE	1,-1		;PASS IF C(E)=0,,-1
 31684						STOP^
 31685	047760	254 04 0 00 047761 		HALT	.+1		;TEST FAILED IF PROGRAM HALTS HERE
 31686	047761	324 00 0 00 047762 		JUMPA	.+1		;IF TEST FAILS, CHANGE THIS INSTRUCTION (JUMPA .+1) TO
 31687									;JUMPA X (X IS THE ADDRESS OF THE FIRST INSTRUCTION
 31688									;IN THE SUBTEST) TO LOOP ON ERROR^
 31689
 31690					;**********
 31691
 31692					;THIS TEST VERIFIES THAT MOVSS SWAPS BOTHS HALVES OF E AND
 31693					;PLACES THE RESULT IN E.  IN THIS CASE, E IS PRELOADED WITH
 31694					;-1,,0; THEN, MOVSS IS EXECUTED.  THE RESULT IN E SHOULD BE 0,,-1.
 31695					;IF C(E)=0,,-1, THIS TEST PASSES
 31696
 31697	047762	205 01 0 00 777777 	C17300:	MOVSI	1,-1		;PRELOAD E WITH -1,,0
 31698	047763	207 00 0 00 000001 		MOVSS	1		;*MOVSS SHOULD PLACE 0,,-1 INTO E
 31699	047764	302 01 0 00 777777 		CAIE	1,-1		;PASS IF C(E)=0,,-1
 31700						STOP^
 31701	047765	254 04 0 00 047766 		HALT	.+1		;TEST FAILED IF PROGRAM HALTS HERE
 31702	047766	324 00 0 00 047767 		JUMPA	.+1		;IF TEST FAILS, CHANGE THIS INSTRUCTION (JUMPA .+1) TO
 31703									;JUMPA X (X IS THE ADDRESS OF THE FIRST INSTRUCTION
 31704									;IN THE SUBTEST) TO LOOP ON ERROR^
 31705
 31706					;**********
DFKAA PDP-10 KL10 BASIC INSTRUCTION DIAGNOSTIC (1) VER 0,2	MACRO %53B(1254)-4 11:50 11-Nov-24 Page 63
DFKAA4	MAC	13-Jan-89 10:22		TEST OF MEMORY, BOTH AND SELF MODE INSTRUCTIONS

 31707					;THIS TEST VERIFIES THAT AOS ADDS ONE TO MEMORY BUT DOES NOT SKIP
 31708					;FIRST, E IS PRELOADED WITH -1,-1; THEN, AOS IS EXECUTED.  NEXT, E IS CHECKED FOR 0.
 31709					;IF C(E) IS NOT 0 OR AOS SKIPPED, THIS TEST FAILS
 31710
 31711	047767	477 00 0 00 000001 	C17400:	SETOB	1		;PRELOAD E WITH -1,,-1
 31712	047770	350 00 0 00 000001 		AOS	1		;*AOS SHOULD ADD TO C(E) AND NOT SKIP
 31713	047771	302 01 0 00 000000 		CAIE	1,0		;PASS IF C(E)=0,,0 AND AOS DID NOT SKIP
 31714						STOP^
 31715	047772	254 04 0 00 047773 		HALT	.+1		;TEST FAILED IF PROGRAM HALTS HERE
 31716	047773	324 00 0 00 047774 		JUMPA	.+1		;IF TEST FAILS, CHANGE THIS INSTRUCTION (JUMPA .+1) TO
 31717									;JUMPA X (X IS THE ADDRESS OF THE FIRST INSTRUCTION
 31718									;IN THE SUBTEST) TO LOOP ON ERROR^
 31719
 31720					;**********
 31721
 31722					;THIS TEST VERIFIES THAT HRLM PLACES C(AC-RIGHT) INTO E-LEFT AND DOES
 31723					;NOT MODIFY E-RIGHT.  IN THIS CASE, AC IS PRELOADED WITH 0 AND E IS PRELOADED
 31724					;WITH -1,,-1.  THEN, HRLM IS EXECUTED.  E IS THEN CHECKED FOR 0,,-1.  IF
 31725					;C(E)=0,,-1, THIS TEST PASSES
 31726
 31727	047774	400 00 0 00 000000 	C17500:	SETZ			;PRELOAD AC WITH 0
 31728	047775	474 01 0 00 000000 		SETO	1,		;PRELOAD E WITH -1,,-1
 31729	047776	506 00 0 00 000001 		HRLM	1		;*HRLM SHOULD PLACE 0,,-1 INTO E
 31730	047777	302 01 0 00 777777 		CAIE	1,-1		;PASS IF C(E)=0,,-1
 31731						STOP^
 31732	050000	254 04 0 00 050001 		HALT	.+1		;TEST FAILED IF PROGRAM HALTS HERE
 31733	050001	324 00 0 00 050002 		JUMPA	.+1		;IF TEST FAILS, CHANGE THIS INSTRUCTION (JUMPA .+1) TO
 31734									;JUMPA X (X IS THE ADDRESS OF THE FIRST INSTRUCTION
 31735									;IN THE SUBTEST) TO LOOP ON ERROR^
 31736
 31737					;**********
DFKAA PDP-10 KL10 BASIC INSTRUCTION DIAGNOSTIC (1) VER 0,2	MACRO %53B(1254)-4 11:50 11-Nov-24 Page 64
DFKAA4	MAC	13-Jan-89 10:22		TEST OF MEMORY, BOTH AND SELF MODE INSTRUCTIONS

 31738					;THIS TEST VERIFIES THAT HRRS DOES NOT MODIFY E
 31739					;E IS PRELOADED WITH 0 AND AC IS PRELOADED WITH -1,,-1.
 31740					;HRRS IS EXECUTED; THEN E IS CHECKED.  IF C(E) DOES
 31741					;NOT CHANGE, THIS TEST PASSES
 31742
 31743	050002	474 00 0 00 000000 	C17600:	SETO			;PRELOAD AC WITH -1,,-1
 31744	050003	400 01 0 00 000000 		SETZ	1,		;PRELOAD E WITH 0,,0
 31745	050004	543 00 0 00 000001 		HRRS	1		;*HRRS SHOULD PLACE 0,,0 INTO E
 31746	050005	332 00 0 00 000001 		SKIPE	1
 31747						STOP^
 31748	050006	254 04 0 00 050007 		HALT	.+1		;TEST FAILED IF PROGRAM HALTS HERE
 31749	050007	324 00 0 00 050010 		JUMPA	.+1		;IF TEST FAILS, CHANGE THIS INSTRUCTION (JUMPA .+1) TO
 31750									;JUMPA X (X IS THE ADDRESS OF THE FIRST INSTRUCTION
 31751									;IN THE SUBTEST) TO LOOP ON ERROR^
 31752
 31753					;**********
 31754
 31755					;THIS TEST VERIFIES THAT HRRZM PLACES C(AC-RIGHT) INTO E-RIGHT AND PLACES
 31756					;ZEROS INTO E-LEFT.  IN THIS CASE, AC=E=AC1 AND C(AC)=C(E)=-1,,0.  HRRZM
 31757					;IS EXECUTED AND AC1 IS CHECKED FOR 0.  IF AC1=0, THIS TEST PASSES.
 31758
 31759	050010	474 00 0 00 000000 	C17700:	SETO			;PRELOAD AC0 WITH -1,,-1
 31760	050011	205 01 0 00 777777 		MOVSI	1,-1		;PRELOAD AC1 WITH -1,,0
 31761	050012	552 01 0 00 000001 		HRRZM	1,1		;*HRRZM SHOULD PLACE 0 INTO AC1
 31762	050013	332 00 0 00 000001 		SKIPE	1		;PASS IF C(AC1)=0
 31763						STOP^
 31764	050014	254 04 0 00 050015 		HALT	.+1		;TEST FAILED IF PROGRAM HALTS HERE
 31765	050015	324 00 0 00 050016 		JUMPA	.+1		;IF TEST FAILS, CHANGE THIS INSTRUCTION (JUMPA .+1) TO
 31766									;JUMPA X (X IS THE ADDRESS OF THE FIRST INSTRUCTION
 31767									;IN THE SUBTEST) TO LOOP ON ERROR^
 31768
 31769					;**********
DFKAA PDP-10 KL10 BASIC INSTRUCTION DIAGNOSTIC (1) VER 0,2	MACRO %53B(1254)-4 11:50 11-Nov-24 Page 65
DFKAA4	MAC	13-Jan-89 10:22		TEST OF MEMORY, BOTH AND SELF MODE INSTRUCTIONS

 31770					;THIS TEST VERIFIES THAT JFCL 17,.+1 NEVER JUMPS AND DOES NOT MODIFY C(AC0).
 31771					;FIRST, AC0 IS PRELOADED; THEN, JFCL IS EXECUTED.  IF AC0 IS MODIFIED
 31772					;OR JFCL SKIPS, THIS TEST FAILS
 31773
 31774	050016	400 00 0 00 000000 	C20000:	SETZ			;CLEAR AC0
 31775	050017	255 17 0 00 050020 		JFCL	17,.+1		;*JFCL SHOULD NOT JUMP OR MODIFY C(AC0).
 31776	050020	332 00 0 00 000000 		SKIPE			;PASS IF C(AC0)=0 AND JFCL DID NOT JUMP
 31777						STOP^
 31778	050021	254 04 0 00 050022 		HALT	.+1		;TEST FAILED IF PROGRAM HALTS HERE
 31779	050022	324 00 0 00 050023 		JUMPA	.+1		;IF TEST FAILS, CHANGE THIS INSTRUCTION (JUMPA .+1) TO
 31780									;JUMPA X (X IS THE ADDRESS OF THE FIRST INSTRUCTION
 31781									;IN THE SUBTEST) TO LOOP ON ERROR^
 31782
 31783					;**********
 31784
 31785					;THIS TEST VERIFIES THAT XORM PERFORMS THE LOGICAL EXCLUSIVE OR FUNCTION
 31786					;BETWEEN C(AC) AND C(E) AND PLACES THE RESULT INTO E
 31787					;IN THIS CASE, AC AND E ARE PRELOADED WITH -1,,-1; THEN, XORM IS
 31788					;EXECUTED.  IF THE RESULT IN E IS 0, THE TEST PASSES
 31789
 31790	050023	477 00 0 00 000001 	C20100:	SETOB	1		;PRELOAD AC,E WITH -1,,-1
 31791	050024	432 00 0 00 000001 		XORM	1		;*XORM SHOULD PLACE 0 INTO E
 31792	050025	302 01 0 00 000000 		CAIE	1,0		;PASS IF C(E)=0
 31793						STOP^
 31794	050026	254 04 0 00 050027 		HALT	.+1		;TEST FAILED IF PROGRAM HALTS HERE
 31795	050027	324 00 0 00 050030 		JUMPA	.+1		;IF TEST FAILS, CHANGE THIS INSTRUCTION (JUMPA .+1) TO
 31796									;JUMPA X (X IS THE ADDRESS OF THE FIRST INSTRUCTION
 31797									;IN THE SUBTEST) TO LOOP ON ERROR^
 31798
 31799					;**********
DFKAA PDP-10 KL10 BASIC INSTRUCTION DIAGNOSTIC (1) VER 0,2	MACRO %53B(1254)-4 11:50 11-Nov-24 Page 66
DFKAA4	MAC	13-Jan-89 10:22		TEST OF MEMORY, BOTH AND SELF MODE INSTRUCTIONS

 31800					;THIS TEST VERIFIES THAT SETZB PLACES ZEROS INTO BOTH AC AND E.
 31801					;AFTER SETZB IS EXECUTED, BOTH AC AND E ARE CHECKED
 31802					;FOR 0.  IF EITHER AC OR E CONTAINS ANY ONES, THIS TEST FAILS
 31803
 31804	050030	403 00 0 00 000001 	C20200:	SETZB	1		;*SETZB SHOULD PLACE ZEROES IN BOTH AC AND E
 31805	050031	316 00 0 00 070253 		CAMN	[0]		;FAIL IF C(AC) IS NON-ZERO
 31806	050032	312 00 0 00 000001 		CAME	1		;FAIL IF C(E) IS NON-ZERO
 31807						STOP^
 31808	050033	254 04 0 00 050034 		HALT	.+1		;TEST FAILED IF PROGRAM HALTS HERE
 31809	050034	324 00 0 00 050035 		JUMPA	.+1		;IF TEST FAILS, CHANGE THIS INSTRUCTION (JUMPA .+1) TO
 31810									;JUMPA X (X IS THE ADDRESS OF THE FIRST INSTRUCTION
 31811									;IN THE SUBTEST) TO LOOP ON ERROR^
 31812
 31813					;**********
 31814
 31815					;THIS TEST VERIFIES THAT SETAB PLACES C(AC) INTO BOTH AC AND E.
 31816					;FIRST, AC IS PRELOADED WITH -1,,-1 AND E IS PRELOADED WITH 0;
 31817					;THEN, SETAB IS EXECUTED.  BOTH AC AND E ARE CHECKED FOR -1,,-1
 31818					;IF EITHER AC OR E CONTAIN ANY ZEROS, THIS TEST FAILS.
 31819
 31820	050035	400 01 0 00 000000 	C20300:	SETZ	1,		;PRELOAD E WITH 0
 31821	050036	474 00 0 00 000000 		SETO			;PRELOAD AC WITH -1,,-1
 31822	050037	427 00 0 00 000001 		SETAB	1		;*SETAB SHOULD PLACE -1,,-1 INTO BOTH AC AND E
 31823	050040	316 00 0 00 070254 		CAMN	[-1]		;FAIL IF C(AC) IS NOT -1,-1
 31824	050041	312 00 0 00 000001 		CAME	1		;FAIL IF C(E) IS NOT -1,,-1
 31825						STOP^
 31826	050042	254 04 0 00 050043 		HALT	.+1		;TEST FAILED IF PROGRAM HALTS HERE
 31827	050043	324 00 0 00 050044 		JUMPA	.+1		;IF TEST FAILS, CHANGE THIS INSTRUCTION (JUMPA .+1) TO
 31828									;JUMPA X (X IS THE ADDRESS OF THE FIRST INSTRUCTION
 31829									;IN THE SUBTEST) TO LOOP ON ERROR^
 31830
 31831					;**********
DFKAA PDP-10 KL10 BASIC INSTRUCTION DIAGNOSTIC (1) VER 0,2	MACRO %53B(1254)-4 11:50 11-Nov-24 Page 67
DFKAA4	MAC	13-Jan-89 10:22		XCT INSTRUCTION - BASIC TESTS

 31832					SUBTTL	XCT INSTRUCTION - BASIC TESTS
 31833
 31834					;**********
 31835
 31836					;THIS TEST VERIFIES THAT XCT WILL EXECUTE THE INSTRUCTION SPECIFIED BY C(E)
 31837					;IN THIS CASE, C(E) SPECIFIES A MOVEI INSTRUCTION
 31838					;AFTER EXECUTING MOVEI, CONTROL SHOULD RETURN TO
 31839					;THE NEXT SEQUENTIAL INSTRUCTION FOLLOWING XCT.
 31840					;THIS TEST PASSES IF CONTROL RETURNS TO THE NEXT SEQUENTIAL INSTRUCTION FOLLOWING XCT
 31841
 31842	050044	403 00 0 00 000001 	C20400:	SETZB	1		;CLEAR AC0 AND AC1
 31843	050045	256 00 0 00 070616 		XCT	[MOVEI 1,.+2]	;*XCT SHOULD RETURN CONTROL TO NEXT INSTRUCTION
 31844	050046	334 00 0 00 000000 		SKIPA
 31845						STOP^
 31846	050047	254 04 0 00 050050 		HALT	.+1		;TEST FAILED IF PROGRAM HALTS HERE
 31847	050050	324 00 0 00 050051 		JUMPA	.+1		;IF TEST FAILS, CHANGE THIS INSTRUCTION (JUMPA .+1) TO
 31848									;JUMPA X (X IS THE ADDRESS OF THE FIRST INSTRUCTION
 31849									;IN THE SUBTEST) TO LOOP ON ERROR^
 31850
 31851					;**********
 31852
 31853					;THIS TEST VERIFIES THAT XCT WILL EXECUTE THE INSTRUCTION SPECIFIED BY C(E)
 31854					;IN THIS CASE, C(E) SPECIFIES A MOVEI INSTRUCTION.
 31855					;AFTER EXECUTING MOVEI, THE AC SPECIFIED BY MOVEI IS CHECKED FOR
 31856					;0,,1 (THE EXPECTED RESULT).  IF C(AC)=0,,1, THIS TEST PASSES
 31857
 31858	050051	403 00 0 00 000001 	C20500:	SETZB	1		;CLEAR AC
 31859	050052	256 00 0 00 070617 		XCT	[MOVEI 1,1]	;*XCT OF MOVEI SHOULD PLACE 1 IN THE AC
 31860	050053	302 01 0 00 000001 		CAIE	1,1		;PASS IF C(AC)=1
 31861						STOP^
 31862	050054	254 04 0 00 050055 		HALT	.+1		;TEST FAILED IF PROGRAM HALTS HERE
 31863	050055	324 00 0 00 050056 		JUMPA	.+1		;IF TEST FAILS, CHANGE THIS INSTRUCTION (JUMPA .+1) TO
 31864									;JUMPA X (X IS THE ADDRESS OF THE FIRST INSTRUCTION
 31865									;IN THE SUBTEST) TO LOOP ON ERROR^
 31866
 31867					;**********
DFKAA PDP-10 KL10 BASIC INSTRUCTION DIAGNOSTIC (1) VER 0,2	MACRO %53B(1254)-4 11:50 11-Nov-24 Page 68
DFKAA4	MAC	13-Jan-89 10:22		XCT INSTRUCTION - BASIC TESTS

 31868					;THIS TEST VERIFIES THAT A NEST OF XCT INSTRUCTIONS WILL EXECUTE
 31869					;THE INSTRUCTION SPECIFIED BY THE MOST NESTED XCT AND RETURN CONTROL TO
 31870					;THE NEXT SEQUENTIAL INSTRUCTION FOLLOWING THE FIRST XCT.
 31871					;IN THIS CASE, THE EXECUTED INSTRUCTION IS MOVEI.  AFTER EXECUTING THE MOVEI,
 31872					;C(AC) IS CHECKED FOR 0,,-1 (THE EXPECTED RESULT).  IF C(AC)=0,,-1, THIS TEST PASSES
 31873
 31874	050056	403 00 0 00 000001 	C20600:	SETZB	1		;CLEAR AC
 31875	050057	256 00 0 00 070624 		XCT	[XCT[XCT[XCT[XCT[MOVEI 1,-1]]]]] ;*NESTED XCT OF MOVEI
 31876									;SHOULD PLACE 0,,-1 INTO AC
 31877	050060	302 01 0 00 777777 		CAIE	1,-1		;PASS IF C(AC)=0,,-1
 31878						STOP^
 31879	050061	254 04 0 00 050062 		HALT	.+1		;TEST FAILED IF PROGRAM HALTS HERE
 31880	050062	324 00 0 00 050063 		JUMPA	.+1		;IF TEST FAILS, CHANGE THIS INSTRUCTION (JUMPA .+1) TO
 31881									;JUMPA X (X IS THE ADDRESS OF THE FIRST INSTRUCTION
 31882									;IN THE SUBTEST) TO LOOP ON ERROR^
 31883
 31884					;**********
 31885
 31886					;THIS TEST VERIFIES THAT XCT WILL NOT MODIFY AN AC WHICH IS NOT SPECIFIED BY THE
 31887					;EXECUTED INSTRUCTION.  IN THIS CASE, AC0 IS CLEARED AND THEN CHECKED FOR ZERO AFTER
 31888					;THE XCT INSTRUCTION IS EXECUTED.  AC0 SHOULD NOT BE MODIFIED.
 31889
 31890	050063	403 00 0 00 000001 	C20700:	SETZB	1		;CLEAR AC0,AC1
 31891	050064	256 00 0 00 070625 		XCT	[MOVE 1,[-1]]	;*XCT SHOULD NOT MODIFY AC0
 31892	050065	332 00 0 00 000000 		SKIPE			;PASS IF AC0 WAS NOT MODIFIED
 31893						STOP^
 31894	050066	254 04 0 00 050067 		HALT	.+1		;TEST FAILED IF PROGRAM HALTS HERE
 31895	050067	324 00 0 00 050070 		JUMPA	.+1		;IF TEST FAILS, CHANGE THIS INSTRUCTION (JUMPA .+1) TO
 31896									;JUMPA X (X IS THE ADDRESS OF THE FIRST INSTRUCTION
 31897									;IN THE SUBTEST) TO LOOP ON ERROR^
 31898
 31899					;**********
DFKAA PDP-10 KL10 BASIC INSTRUCTION DIAGNOSTIC (1) VER 0,2	MACRO %53B(1254)-4 11:50 11-Nov-24 Page 69
DFKAA4	MAC	13-Jan-89 10:22		XCT INSTRUCTION - BASIC TESTS

 31900					;THIS TEST VERIFIES THAT XCT OF SKIPA SHOULD RETURN CONTROL TO THE
 31901					;SECOND SEQUENTIAL INSTRUCTION FOLLOWING XCT
 31902
 31903	050070	256 00 0 00 070626 	C21000:	XCT	[SKIPA]		;XCT OF SKIPA SHOULD RETURN CONTROL TO .+2
 31904						STOP^
 31905	050071	254 04 0 00 050072 		HALT	.+1		;TEST FAILED IF PROGRAM HALTS HERE
 31906	050072	324 00 0 00 050073 		JUMPA	.+1		;IF TEST FAILS, CHANGE THIS INSTRUCTION (JUMPA .+1) TO
 31907									;JUMPA X (X IS THE ADDRESS OF THE FIRST INSTRUCTION
 31908									;IN THE SUBTEST) TO LOOP ON ERROR^
 31909
 31910					;**********
DFKAA PDP-10 KL10 BASIC INSTRUCTION DIAGNOSTIC (1) VER 0,2	MACRO %53B(1254)-4 11:50 11-Nov-24 Page 70
DFKAA4	MAC	13-Jan-89 10:22		INDIRECT ADDRESSING - BASIC TESTS

 31911					SUBTTL	INDIRECT ADDRESSING - BASIC TESTS
 31912
 31913					;**********
 31914
 31915					;THIS TEST VERIFIES THAT INDIRECT ADDRESSING WORKS WHEN BOTH E AND @E
 31916					;ARE WITHIN THE AC RANGE.
 31917					;THE INSTRUCTION SPECIFYING INDIRECT ADDRESSING IS A MOVE.
 31918					;AFTER MOVE IS EXECUTED, C(AC) IS CHECKED FOR 0,
 31919					;THE INITIAL CONTENTS OF THE INDIRECT ADDRESS
 31920
 31921	050073	476 00 0 00 000001 	C21100:	SETOM	1		;PRELOAD AC WITH -1,,-1
 31922	050074	201 07 0 00 000003 		MOVEI	7,3		;SETUP DIRECT ADDRESS WITH INDIRECT ADDRESS
 31923	050075	402 00 0 00 000003 		SETZM	3		;PRELOAD INDIRECT ADDRESS WITH 0
 31924	050076	200 01 1 00 000007 		MOVE	1,@7		;*FWT FROM INDIRECT ADDRESSS SHOULD
 31925									;PLACE 0 INTO THE AC
 31926	050077	332 00 0 00 000001 		SKIPE	1		;PASS IF C(AC)=0
 31927						STOP^
 31928	050100	254 04 0 00 050101 		HALT	.+1		;TEST FAILED IF PROGRAM HALTS HERE
 31929	050101	324 00 0 00 050102 		JUMPA	.+1		;IF TEST FAILS, CHANGE THIS INSTRUCTION (JUMPA .+1) TO
 31930									;JUMPA X (X IS THE ADDRESS OF THE FIRST INSTRUCTION
 31931									;IN THE SUBTEST) TO LOOP ON ERROR^
 31932
 31933					;**********
 31934
 31935					;THIS TEST VERIFIES THAT INDIRECT ADDRESSING WORKS WHEN BOTH E AND @E
 31936					;ARE WITHIN THE AC RANGE.
 31937					;THE INSTRUCTION SPECIFYING INDIRECT ADDRESSING IS A MOVE.
 31938					;AFTER MOVE IS EXECUTED, C(AC) IS CHECKED FOR -1,,-1,
 31939					;THE INITIAL CONTENTS OF THE INDIRECT ADDRESS
 31940
 31941	050102	402 00 0 00 000001 	C21200:	SETZM	1		;PRELOAD AC WITH -1,,-1
 31942	050103	201 07 0 00 000003 		MOVEI	7,3		;SETUP DIRECT ADDRESS WITH INDIRECT ADDRESS
 31943	050104	476 00 0 00 000003 		SETOM	3		;PRELOAD INDIRECT ADDRESS WITH -1,,-1
 31944	050105	200 01 1 00 000007 		MOVE	1,@7		;*FWT FROM INDIRECT ADDRESS SHOULD
 31945									;PLACE -1,,-1 INTO THE AC
 31946	050106	312 01 0 00 070254 		CAME	1,[-1,,-1]	;PASS IF C(AC)=-1,,-1
 31947						STOP^
 31948	050107	254 04 0 00 050110 		HALT	.+1		;TEST FAILED IF PROGRAM HALTS HERE
 31949	050110	324 00 0 00 050111 		JUMPA	.+1		;IF TEST FAILS, CHANGE THIS INSTRUCTION (JUMPA .+1) TO
 31950									;JUMPA X (X IS THE ADDRESS OF THE FIRST INSTRUCTION
 31951									;IN THE SUBTEST) TO LOOP ON ERROR^
 31952
 31953					;**********
DFKAA PDP-10 KL10 BASIC INSTRUCTION DIAGNOSTIC (1) VER 0,2	MACRO %53B(1254)-4 11:50 11-Nov-24 Page 71
DFKAA4	MAC	13-Jan-89 10:22		INDIRECT ADDRESSING - BASIC TESTS

 31954					;THIS TEST VERIFIES THAT INDIRECT ADDRESSING WORKS WHEN BOTH E AND @E
 31955					;ARE WITHIN THE AC RANGE.
 31956					;THE INSTRUCTION SPECIFYING INDIRECT ADDRESSING IS A MOVE.
 31957					;AFTER MOVE IS EXECUTED, C(AC) IS CHECKED FOR 707070,,707070,
 31958					;THE INITIAL CONTENTS OF THE INDIRECT ADDRESS
 31959
 31960	050111	402 00 0 00 000001 	C21300:	SETZM	1		;PRELOAD AC WITH 0
 31961	050112	201 07 0 00 000003 		MOVEI	7,3		;SETUP DIRECT ADDRESS WITH INDIRECT ADDRESS
 31962	050113	200 03 0 00 070332 		MOVE	3,[707070,,707070] ;PRELOAD INDIRECT ADDRESS WITH 707070,,707070
 31963	050114	200 01 1 00 000007 		MOVE	1,@7		;*FWT FROM INDIRECT ADDRESS SHOULD
 31964									;PLACE 707070,,707070 INTO THE AC
 31965	050115	312 01 0 00 070332 		CAME	1,[707070,,707070]	;PASS IF C(AC)=707070,,707070
 31966						STOP^
 31967	050116	254 04 0 00 050117 		HALT	.+1		;TEST FAILED IF PROGRAM HALTS HERE
 31968	050117	324 00 0 00 050120 		JUMPA	.+1		;IF TEST FAILS, CHANGE THIS INSTRUCTION (JUMPA .+1) TO
 31969									;JUMPA X (X IS THE ADDRESS OF THE FIRST INSTRUCTION
 31970									;IN THE SUBTEST) TO LOOP ON ERROR^
 31971
 31972					;**********
 31973
 31974					;THIS TEST VERIFIES THAT INDIRECT ADDRESSING WORKS WHEN E IS WITHIN THE AC RANGE
 31975					;AND @E IS BEYOND THE AC RANGE.
 31976					;THE INSTRUCTION SPECIFYING INDIRECT ADDRESSING IS A MOVE.
 31977					;AFTER MOVE IS EXECUTED, C(AC) IS CHECKED FOR 707070,,707070,
 31978					;THE INITIAL CONTENTS OF THE INDIRECT ADDRESS
 31979
 31980	050120	254 00 0 00 050122 	C21400:	JRST	.+2
 31981	050121	707070	707070			XWD	707070,707070	;INDIRECT ADDRESS AND ITS DATA
 31982	050122	402 00 0 00 000001 		SETZM	1		;PRELOAD AC WITH 0
 31983	050123	201 07 0 00 050121 		MOVEI	7,C21400+1	;SETUP DIRECT ADDRESS WITH INDIRECT ADDRESS
 31984	050124	200 01 1 00 000007 		MOVE	1,@7		;*FWT FROM INDIRECT ADDRESS SHOULD
 31985									;PLACE 707070,,707070 INTO AC
 31986	050125	312 01 0 00 050121 		CAME	1,C21400+1	;PASS IF C(AC)=707070,,707070
 31987						STOP^
 31988	050126	254 04 0 00 050127 		HALT	.+1		;TEST FAILED IF PROGRAM HALTS HERE
 31989	050127	324 00 0 00 050130 		JUMPA	.+1		;IF TEST FAILS, CHANGE THIS INSTRUCTION (JUMPA .+1) TO
 31990									;JUMPA X (X IS THE ADDRESS OF THE FIRST INSTRUCTION
 31991									;IN THE SUBTEST) TO LOOP ON ERROR^
 31992
 31993					;**********
DFKAA PDP-10 KL10 BASIC INSTRUCTION DIAGNOSTIC (1) VER 0,2	MACRO %53B(1254)-4 11:50 11-Nov-24 Page 72
DFKAA4	MAC	13-Jan-89 10:22		INDIRECT ADDRESSING - BASIC TESTS

 31994					;THIS TEST VERIFIES THAT INDIRECT ADDRESSING WORKS WHEN BOTH E AND @E
 31995					;ARE BEYOND THE AC RANGE.
 31996					;THE INSTRUCTION SPECIFYING INDIRECT ADDRESSING IS A MOVE.
 31997					;AFTER MOVE IS EXECUTED, C(AC) IS CHECKED FOR 202020,,202020,
 31998					;THE INITIAL CONTENTS OF THE INDIRECT ADDRESS
 31999
 32000	050130	254 00 0 00 050133 	C21500:	JRST	.+3
 32001	050131	000000	050132				.+1		;DIRECT ADDRESS AND ITS DATA
 32002	050132	202020	202020			XWD	202020,202020	;INDIRECT ADDRESS AND ITS DATA
 32003	050133	402 00 0 00 000001 		SETZM	1		;PRELOAD AC WITH 0
 32004	050134	200 01 1 00 050131 		MOVE	1,@C21500+1	;*FWT FROM INDIRECT ADDRESS SHOULD
 32005									;PLACE 202020,,202020 INTO AC
 32006	050135	312 01 0 00 050132 		CAME	1,C21500+2	;PASS IF C(AC)=202020,,202020
 32007						STOP^
 32008	050136	254 04 0 00 050137 		HALT	.+1		;TEST FAILED IF PROGRAM HALTS HERE
 32009	050137	324 00 0 00 050140 		JUMPA	.+1		;IF TEST FAILS, CHANGE THIS INSTRUCTION (JUMPA .+1) TO
 32010									;JUMPA X (X IS THE ADDRESS OF THE FIRST INSTRUCTION
 32011									;IN THE SUBTEST) TO LOOP ON ERROR^
 32012
 32013					;**********
 32014
 32015					;THIS TEST VERIFIES THAT INDIRECT ADDRESSING WORKS WHEN BOTH E AND @E
 32016					;ARE BEYOND THE AC RANGE.
 32017					;THE INSTRUCTION SPECIFYING INDIRECT ADDRESSING IS A CAME.
 32018
 32019	050140	254 00 0 00 050143 	C21600:	JRST	.+3
 32020	050141	000000	050142				.+1		;DIRECT ADDRESS AND ITS DATA
 32021	050142	272727	272727			XWD	272727,272727	;INDIRECT ADDRESS AND ITS DATA
 32022	050143	200 01 0 00 050142 		MOVE	1,C21600+2	;PRELOAD AC
 32023	050144	312 01 1 00 050141 		CAME	1,@C21600+1	;*CAME OF DATA FROM INDIRECT ADDRESS - NON-AC RANGE
 32024						STOP^
 32025	050145	254 04 0 00 050146 		HALT	.+1		;TEST FAILED IF PROGRAM HALTS HERE
 32026	050146	324 00 0 00 050147 		JUMPA	.+1		;IF TEST FAILS, CHANGE THIS INSTRUCTION (JUMPA .+1) TO
 32027									;JUMPA X (X IS THE ADDRESS OF THE FIRST INSTRUCTION
 32028									;IN THE SUBTEST) TO LOOP ON ERROR^
 32029
 32030					;**********
DFKAA PDP-10 KL10 BASIC INSTRUCTION DIAGNOSTIC (1) VER 0,2	MACRO %53B(1254)-4 11:50 11-Nov-24 Page 73
DFKAA4	MAC	13-Jan-89 10:22		INDIRECT ADDRESSING - BASIC TESTS

 32031					;THIS TEST VERIFIES THAT INDIRECT ADDRESSING WORKS WHEN E IS WITHIN THE AC RANGE
 32032					;AND @E IS BEYOND THE AC RANGE.
 32033					;THE INSTRUCTION SPECIFYING INDIRECT ADDRESSING IS A CAME.
 32034
 32035	050147	254 00 0 00 050151 	C21700:	JRST	.+2
 32036	050150	252525	252525			XWD	252525,252525	;INDIRECT ADDRESS AND ITS DATA
 32037	050151	201 07 0 00 050150 		MOVEI	7,C21700+1	;SETUP DIRECT ADDRESS WITH INDIRECT ADDRESS
 32038	050152	200 01 0 00 050150 		MOVE	1,C21700+1	;SETUP AC
 32039	050153	312 01 1 00 000007 		CAME	1,@7		;*CAME IF DATA FROM INDIRECT ADDRESS - AC RANGE
 32040						STOP^
 32041	050154	254 04 0 00 050155 		HALT	.+1		;TEST FAILED IF PROGRAM HALTS HERE
 32042	050155	324 00 0 00 050156 		JUMPA	.+1		;IF TEST FAILS, CHANGE THIS INSTRUCTION (JUMPA .+1) TO
 32043									;JUMPA X (X IS THE ADDRESS OF THE FIRST INSTRUCTION
 32044									;IN THE SUBTEST) TO LOOP ON ERROR^
 32045
 32046					;**********
DFKAA PDP-10 KL10 BASIC INSTRUCTION DIAGNOSTIC (1) VER 0,2	MACRO %53B(1254)-4 11:50 11-Nov-24 Page 74
DFKAA4	MAC	13-Jan-89 10:22		TEST INDIRECT ADDRESSING WITH INDEXING

 32047					SUBTTL	TEST INDIRECT ADDRESSING WITH INDEXING
 32048
 32049					;SETUP INDEX REGISTERS
 32050
 32051	050156	201 01 0 00 777774 		MOVEI	1,-4
 32052	050157	201 03 0 00 000002 		MOVEI	3,2
 32053	050160	201 04 0 00 000010 		MOVEI	4,10
 32054	050161	201 05 0 00 000001 		MOVEI	5,1
 32055	050162	201 06 0 00 000005 		MOVEI	6,5
 32056	050163	201 07 0 00 000007 		MOVEI	7,7
 32057	050164	201 10 0 00 000004 		MOVEI	10,4
 32058	050165	201 11 0 00 777772 		MOVEI	11,-6
 32059	050166	201 12 0 00 000005 		MOVEI	12,5
 32060	050167	201 13 0 00 000002 		MOVEI	13,2
 32061
 32062	050170	254 00 0 00 050221 		JRST	C22000		;RESUME TEST
 32063
 32064					;INDIRECT ADDRESSING/INDEXING TEST TABLE
 32065
 32066					;;;;;;;;;;;          ;;;;;;;;;;          ;;;;;;;;;;
 32067
 32068					;DO NOT MODIFY THIS TABLE OR TESTS C21700 THRU C22600 INDEPENDENTLY !
 32069
 32070					;;;;;;;;;;          ;;;;;;;;;;          ;;;;;;;;;;
 32071
 32072	050171	000003	050174		E217:		E217A(3)
 32073	050172	000020	050177		E220:		@E220A
 32074	050173	220220	220220		E220B:	220220,,220220
 32075	050174	000020	050201		E217A:		@E221A		;E221-4
 32076	050175	221221	221221		E221B:	221221,,221221
 32077	050176	217217	217217		E222A:	217217,,217217		;E217A+2
 32078	050177	000000	050173		E220A:		E220B
 32079	050200	000000	050200		E221:		E221
 32080	050201	000000	050175		E221A:		E221B
 32081	050202	000000	050200		E222:		E221
 32082	050203	223223	223223		E223A:	223223,,223223
 32083	050204	000004	050204		E224A:		E224A(4)	;E223-6
 32084	050205	222222	222222			222222,,222222		;E222A+7
 32085	050206	000000	050206		E225:		E225
 32086	050207	000007	050176				E222A(7)	;E222+5
 32087	050210	000020	050213				@E225A		;E225+2
 32088	050211	225225	225225		E225B:	225225,,225225
 32089	050212	000000	050212		E223:		E223
 32090	050213	000000	050211		E225A:		E225B
 32091	050214	224224	224224			224224,,224224		;E224A+10
 32092	050215	226226	226226		E226B:	226226,,226226
 32093	050216	000000	050203				E223A		;E223+4
 32094	050217	000025	050217		E226A:		@E226A(5)	;E223+5
 32095	050220	000000	050215				E226B		;E226A+1
DFKAA PDP-10 KL10 BASIC INSTRUCTION DIAGNOSTIC (1) VER 0,2	MACRO %53B(1254)-4 11:50 11-Nov-24 Page 75
DFKAA4	MAC	13-Jan-89 10:22		TEST INDIRECT ADDRESSING WITH INDEXING

 32096					;THIS TEST VERIFIES THAT INDIRECT ADDRESSING IN COMBINATION WITH INDEXING FUNCTIONS CORRECTL
 32097					Y.
 32098					;IN THIS CASE, MOVE 2,@E217 IS TESTED WHERE C(E217)=E217A(3) AND C(3)=0,,2.
 32099					;HENCE, THE RESULT IN THE AC SHOULD BE C(E217A+2)=217217,,217217
 32100
 32101	050221	476 00 0 00 000002 	C22000:	SETOM	2		;INITIALIZE AC
 32102	050222	200 02 1 00 050171 		MOVE	2,@E217		;TEST INDIRECT ADDRESSING WITH INDEXING
 32103	050223	312 02 0 00 050176 		CAME	2,E217A+2	;PASS IF C(AC)=217217,,217217
 32104						STOP^
 32105	050224	254 04 0 00 050225 		HALT	.+1		;TEST FAILED IF PROGRAM HALTS HERE
 32106	050225	324 00 0 00 050226 		JUMPA	.+1		;IF TEST FAILS, CHANGE THIS INSTRUCTION (JUMPA .+1) TO
 32107									;JUMPA X (X IS THE ADDRESS OF THE FIRST INSTRUCTION
 32108									;IN THE SUBTEST) TO LOOP ON ERROR^
 32109
 32110					;**********
 32111
 32112					;THIS TEST VERIFIES THAT INDIRECT ADDRESSING IN COMBINATION WITH INDEXING FUNCTIONS CORRECTL
 32113					Y.
 32114					;IN THIS CASE, MOVE 2,@E220 IS TESTED WHERE C(E220)=@E220A AND C(E220A)=E220B.
 32115					;HENCE, THE RESULT IN THE AC SHOULD BE C(E220B)=220220,,220220
 32116
 32117	050226	402 00 0 00 000002 	C22100:	SETZM	2		;INITIALIZE AC
 32118	050227	200 02 1 00 050172 		MOVE	2,@E220		;TEST INDIRECT ADDRESSING WITH INDEXING
 32119	050230	312 02 0 00 050173 		CAME	2,E220B		;PASS IF C(AC)=220220,,220220
 32120						STOP^
 32121	050231	254 04 0 00 050232 		HALT	.+1		;TEST FAILED IF PROGRAM HALTS HERE
 32122	050232	324 00 0 00 050233 		JUMPA	.+1		;IF TEST FAILS, CHANGE THIS INSTRUCTION (JUMPA .+1) TO
 32123									;JUMPA X (X IS THE ADDRESS OF THE FIRST INSTRUCTION
 32124									;IN THE SUBTEST) TO LOOP ON ERROR^
 32125
 32126					;**********
DFKAA PDP-10 KL10 BASIC INSTRUCTION DIAGNOSTIC (1) VER 0,2	MACRO %53B(1254)-4 11:50 11-Nov-24 Page 76
DFKAA4	MAC	13-Jan-89 10:22		TEST INDIRECT ADDRESSING WITH INDEXING

 32127					;THIS TEST VERIFIES THAT INDIRECT ADDRESSING IN COMBINATION WITH INDEXING FUNCTIONS CORRECTL
 32128					Y.
 32129					;IN THIS CASE,E221(1) 2,@E217 IS TESTED WHERE C(1)=-4 AND E221-4=E217A
 32130					;HENCE, THE RESULT IN THE AC SHOULD BE C(E217A)=@E221A=20,,E221A
 32131
 32132	050233	476 00 0 00 000002 	C22200:	SETOM	2		;INITIALIZE AC
 32133	050234	200 02 0 01 050200 		MOVE	2,E221(1)	;TEST INDIRECT ADDRESSING WITH INDEXING
 32134	050235	312 02 0 00 050174 		CAME	2,E217A		;PASS IF C(AC)=@E221A=20,,E221A
 32135						STOP^
 32136	050236	254 04 0 00 050237 		HALT	.+1		;TEST FAILED IF PROGRAM HALTS HERE
 32137	050237	324 00 0 00 050240 		JUMPA	.+1		;IF TEST FAILS, CHANGE THIS INSTRUCTION (JUMPA .+1) TO
 32138									;JUMPA X (X IS THE ADDRESS OF THE FIRST INSTRUCTION
 32139									;IN THE SUBTEST) TO LOOP ON ERROR^
 32140
 32141					;**********
 32142
 32143					;THIS TEST VERIFIES THAT INDIRECT ADDRESSING IN COMBINATION WITH INDEXING FUNCTIONS CORRECTL
 32144					Y.
 32145					;IN THIS CASE, MOVE 2,E222(6) IS TESTED WHERE C(6)=5
 32146					;HENCE, THE RESULT IN THE AC SHOULD BE C(E222+5)=E222A(7)=7,,E222A
 32147
 32148	050240	402 00 0 00 000002 	C22300:	SETZM	2		;INITIALIZE AC
 32149	050241	200 02 0 06 050202 		MOVE	2,E222(6)	;TEST INDIRECT ADDRESSING WITH INDEXING
 32150	050242	312 02 0 00 050207 		CAME	2,E222+5	;PASS IF C(AC)=E222A(7)=7,,E222A
 32151						STOP^
 32152	050243	254 04 0 00 050244 		HALT	.+1		;TEST FAILED IF PROGRAM HALTS HERE
 32153	050244	324 00 0 00 050245 		JUMPA	.+1		;IF TEST FAILS, CHANGE THIS INSTRUCTION (JUMPA .+1) TO
 32154									;JUMPA X (X IS THE ADDRESS OF THE FIRST INSTRUCTION
 32155									;IN THE SUBTEST) TO LOOP ON ERROR^
 32156
 32157					;**********
DFKAA PDP-10 KL10 BASIC INSTRUCTION DIAGNOSTIC (1) VER 0,2	MACRO %53B(1254)-4 11:50 11-Nov-24 Page 77
DFKAA4	MAC	13-Jan-89 10:22		TEST INDIRECT ADDRESSING WITH INDEXING

 32158					;THIS TEST VERIFIES THAT INDIRECT ADDRESSING IN COMBINATION WITH INDEXING FUNCTIONS CORRECTL
 32159					Y.
 32160					;IN THIS CASE, MOVE 2,@E223(10) IS TESTED WHERE C(10)=4 AND C(E223+4)=E223A
 32161					;HENCE, THE RESULT IN THE AC SHOULD BE C(E223A)=223223,,223223
 32162
 32163	050245	476 00 0 00 000002 	C22400:	SETOM	2		;INITIALIZE AC
 32164	050246	200 02 1 10 050212 		MOVE	2,@E223(10)	;TEST INDIRECT ADDRESSING WITH INDEXING
 32165	050247	312 02 0 00 050203 		CAME	2,E223A		;PASS IF C(AC)=223223,,223223
 32166						STOP^
 32167	050250	254 04 0 00 050251 		HALT	.+1		;TEST FAILED IF PROGRAM HALTS HERE
 32168	050251	324 00 0 00 050252 		JUMPA	.+1		;IF TEST FAILS, CHANGE THIS INSTRUCTION (JUMPA .+1) TO
 32169									;JUMPA X (X IS THE ADDRESS OF THE FIRST INSTRUCTION
 32170									;IN THE SUBTEST) TO LOOP ON ERROR^
 32171
 32172					;**********
 32173
 32174					;THIS TEST VERIFIES THAT INDIRECT ADDRESSING IN COMBINATION WITH INDEXING FUNCTIONS CORRECTL
 32175					Y.
 32176					;IN THIS CASE, MOVE 2,@E223(11) IS TESTED WHERE C(11)=-6, C(E223-6)=E224A(4) AND C(4)=10
 32177					;HENCE, THE RESULT IN THE AC SHOULD BE C(E224A+10)=224224,,224224
 32178
 32179	050252	402 00 0 00 000002 	C22500:	SETZM	2		;INITIALIZE AC
 32180	050253	200 02 1 11 050212 		MOVE	2,@E223(11)	;TEST INDIRECT ADDRESSING WITH INDEXING
 32181	050254	312 02 0 00 050214 		CAME	2,E224A+10	;PASS IF C(AC)=224224,,224224
 32182						STOP^
 32183	050255	254 04 0 00 050256 		HALT	.+1		;TEST FAILED IF PROGRAM HALTS HERE
 32184	050256	324 00 0 00 050257 		JUMPA	.+1		;IF TEST FAILS, CHANGE THIS INSTRUCTION (JUMPA .+1) TO
 32185									;JUMPA X (X IS THE ADDRESS OF THE FIRST INSTRUCTION
 32186									;IN THE SUBTEST) TO LOOP ON ERROR^
 32187
 32188					;**********
DFKAA PDP-10 KL10 BASIC INSTRUCTION DIAGNOSTIC (1) VER 0,2	MACRO %53B(1254)-4 11:50 11-Nov-24 Page 78
DFKAA4	MAC	13-Jan-89 10:22		TEST INDIRECT ADDRESSING WITH INDEXING

 32189					;THIS TEST VERIFIES THAT INDIRECT ADDRESSING IN COMBINATION WITH INDEXING FUNCTIONS CORRECTL
 32190					Y.
 32191					;IN THIS CASE, MOVE 2,@E225(13) IS TESTED WHERE C(13)=2, C(E225+2)=@E225A
 32192					;AND C(E225A)=E225B
 32193					;HENCE, THE RESULT IN THE AC SHOULD BE C(E225B)=225225,,225225
 32194
 32195	050257	476 00 0 00 000002 	C22600:	SETOM	2		;INITIALIZE AC
 32196	050260	200 02 1 13 050206 		MOVE	2,@E225(13)	;TEST INDIRECT ADDRESSING WITH INDEXING
 32197	050261	312 02 0 00 050211 		CAME	2,E225B		;PASS IF C(AC)=225225,,225225
 32198						STOP^
 32199	050262	254 04 0 00 050263 		HALT	.+1		;TEST FAILED IF PROGRAM HALTS HERE
 32200	050263	324 00 0 00 050264 		JUMPA	.+1		;IF TEST FAILS, CHANGE THIS INSTRUCTION (JUMPA .+1) TO
 32201									;JUMPA X (X IS THE ADDRESS OF THE FIRST INSTRUCTION
 32202									;IN THE SUBTEST) TO LOOP ON ERROR^
 32203
 32204					;**********
 32205
 32206					;THIS TEST VERIFIES THAT INDIRECT ADDRESSING IN COMBINATION WITH INDEXING FUNCTIONS CORRECTL
 32207					Y.
 32208					;IN THIS CASE, MOVE 2,@E223(12) IS TESTED WHERE C(12)=5, C(E223+5)=@E226A(5),
 32209					;C(5)=1 AND C(E226A+1)=E226B
 32210					;HENCE, THE RESULT IN THE AC SHOULD BE C(E226B)=226226,,226226
 32211
 32212	050264	402 00 0 00 000002 	C22700:	SETZM	2		;INITIALIZE AC
 32213	050265	200 02 1 12 050212 		MOVE	2,@E223(12)	;TEST INDIRECT ADDRESSING WITH INDEXING
 32214	050266	312 02 0 00 050215 		CAME	2,E226B		;PASS IF C(AC)=226226,,226226
 32215						STOP^
 32216	050267	254 04 0 00 050270 		HALT	.+1		;TEST FAILED IF PROGRAM HALTS HERE
 32217	050270	324 00 0 00 050271 		JUMPA	.+1		;IF TEST FAILS, CHANGE THIS INSTRUCTION (JUMPA .+1) TO
 32218									;JUMPA X (X IS THE ADDRESS OF THE FIRST INSTRUCTION
 32219									;IN THE SUBTEST) TO LOOP ON ERROR^
 32220
 32221					;**********
DFKAA PDP-10 KL10 BASIC INSTRUCTION DIAGNOSTIC (1) VER 0,2	MACRO %53B(1254)-4 11:50 11-Nov-24 Page 1
DFKAA5	MAC	13-Jan-89 10:22		TEST OF JSR INSTRUCTION

 32222					SUBTTL	TEST OF JSR INSTRUCTION
 32223
 32224					;**********
 32225
 32226					;THIS TEST VERIFIES THAT JSR STORES THE FLAGS AND PC IN LOCATION E.
 32227					;IN THIS CASE, E IS CLEARED, CRY0 IS SET AND JSR IS EXECUTED.
 32228					;NEXT, E IS CHECKED FOR ITS CONTENTS NON-ZERO.  IF C(E) IS NON-ZERO,
 32229					;THIS TEST PASSES.
 32230
 32231	050271				C23000:	SFLAG	CRY0		^;SET CRY0 FLAG
 32232
 32233	050271	205 01 0 00 200000 		MOVSI	1,CRY0
 32234	050272	255 17 0 00 050273 		JFCL	17,.+1	;RESET ALL FLAGS
 32235	050273	254 02 0 01 050274 		JRST	2,.+1(1)		;SET CRY0 FLAG
 32236	050274	402 00 0 00 050276 		SETZM	.+2		;PRELOAD E WITH 0
 32237	050275	264 00 0 00 050276 		JSR	.+1		;*JSR SHOULD PLACE FLAGS AND PC INTO AC
 32238	050276	000000	000000			0			;E: PRESET TO 0, SHOULD RECEIVE FLAGS AND PC FROM JSR
 32239	050277	336 00 0 00 050276 		SKIPN	.-1		;PASS IF C(E) IS NON-ZERO.
 32240						STOP^
 32241	050300	254 04 0 00 050301 		HALT	.+1		;TEST FAILED IF PROGRAM HALTS HERE
 32242	050301	324 00 0 00 050302 		JUMPA	.+1		;IF TEST FAILS, CHANGE THIS INSTRUCTION (JUMPA .+1) TO
 32243									;JUMPA X (X IS THE ADDRESS OF THE FIRST INSTRUCTION
 32244									;IN THE SUBTEST) TO LOOP ON ERROR^
 32245
 32246					;**********
 32247
 32248					;THIS TEST VERIFIES THAT JSR IGNORES THE AC FIELD;
 32249					;HENCE, IT DOES NOT MODIFY THE SPECIFIED AC.
 32250					;IN THIS CASE, CRY0 IS SET.  THE AC IS PRELOADED WITH -1,,-1 AND JSR IS EXECUTED.
 32251					;THE AC IS THEN CHECKED.  IF C(AC)=-1,,-1, THIS TEST PASSES.
 32252
 32253	050302				C23100:	SFLAG	CRY0		^;SET CRY0
 32254
 32255	050302	205 01 0 00 200000 		MOVSI	1,CRY0
 32256	050303	255 17 0 00 050304 		JFCL	17,.+1	;RESET ALL FLAGS
 32257	050304	254 02 0 01 050305 		JRST	2,.+1(1)		;SET CRY0 FLAG
 32258	050305	474 01 0 00 000000 		SETO	1,		;PRELOAD AC WITH -1,,-1
 32259	050306	264 01 0 00 050307 		JSR	1,.+1		;*JSR SHOULD NOT MODIFY THE AC
 32260	050307	000000	000000			0			;STORE PC + FLAGS HERE
 32261	050310	312 01 0 00 070254 		CAME	1,[-1]		;PASS IF C(AC)=-1,,-1
 32262						STOP^
 32263	050311	254 04 0 00 050312 		HALT	.+1		;TEST FAILED IF PROGRAM HALTS HERE
 32264	050312	324 00 0 00 050313 		JUMPA	.+1		;IF TEST FAILS, CHANGE THIS INSTRUCTION (JUMPA .+1) TO
 32265									;JUMPA X (X IS THE ADDRESS OF THE FIRST INSTRUCTION
 32266									;IN THE SUBTEST) TO LOOP ON ERROR^
 32267
 32268					;**********
DFKAA PDP-10 KL10 BASIC INSTRUCTION DIAGNOSTIC (1) VER 0,2	MACRO %53B(1254)-4 11:50 11-Nov-24 Page 2
DFKAA5	MAC	13-Jan-89 10:22		TEST OF JSR INSTRUCTION

 32269					;THIS TEST VERIFIES THAT JSR STORES THE FLAGS IN E-LEFT HALF.
 32270					;IN THIS TEST, CRY0 IS SET, E IS CLEARED AND JSR IS EXECUTED.
 32271					;NEXT, C(E-LEFT) ARE PLACED INTO AC0 AND AC0 IS CHECKED FOR ITS CONTENTS NON-ZERO.
 32272					;IF C(AC0) ARE NON-ZERO, THIS TEST PASSES.
 32273
 32274	050313				C23200:	SFLAG	CRY0		^;SET CRY0
 32275
 32276	050313	205 01 0 00 200000 		MOVSI	1,CRY0
 32277	050314	255 17 0 00 050315 		JFCL	17,.+1	;RESET ALL FLAGS
 32278	050315	254 02 0 01 050316 		JRST	2,.+1(1)		;SET CRY0 FLAG
 32279	050316	402 00 0 00 050320 		SETZM	.+2		;CLEAR E
 32280	050317	264 00 0 00 050320 		JSR	.+1		;*JSR SHOULD STORE FLAGS IN E
 32281	050320	000000	000000			0			;STORE FLAGS HERE (CRY0 MAKES THIS A MOVE INST)
 32282	050321	510 00 0 00 050320 		HLLZ	.-1		;PUT FLAGS INTO AC0
 32283	050322	336 00 0 00 000000 		SKIPN			;PASS IF C(AC0) NON-ZERO
 32284						STOP^
 32285	050323	254 04 0 00 050324 		HALT	.+1		;TEST FAILED IF PROGRAM HALTS HERE
 32286	050324	324 00 0 00 050325 		JUMPA	.+1		;IF TEST FAILS, CHANGE THIS INSTRUCTION (JUMPA .+1) TO
 32287									;JUMPA X (X IS THE ADDRESS OF THE FIRST INSTRUCTION
 32288									;IN THE SUBTEST) TO LOOP ON ERROR^
 32289
 32290					;**********
 32291
 32292					;THIS TEST VERIFIES THAT JSR TRANSFERS CONTROL TO E+1.
 32293					;IN THIS CASE, CRY0 IS SET AND E  AND AC0 CLEARED; THEN, JSR IS EXECUTED.
 32294					;IF JSR RESUMES CONTROL AT E INSTEAD OF E+1, AC0 WILL BE MODIFIED;
 32295					;HENCE, THE TEST WILL FAIL WHEN AC0 IS CHECKED FOR 0 BECAUSE
 32296					;C(E) IS DECODED AS A MOVE INSTRUCTION.
 32297
 32298	050325				C23300:	SFLAG	CRY0		^;SET CRY0
 32299
 32300	050325	205 01 0 00 200000 		MOVSI	1,CRY0
 32301	050326	255 17 0 00 050327 		JFCL	17,.+1	;RESET ALL FLAGS
 32302	050327	254 02 0 01 050330 		JRST	2,.+1(1)		;SET CRY0 FLAG
 32303	050330	403 00 0 00 050332 		SETZB	.+2		;CLEAR AC0 AND E
 32304	050331	264 00 0 00 050332 		JSR	.+1		;*JSR SHOULD RESUME CONTROL AT E+1
 32305	050332	000000	000000			0			;STORE FLAGS HERE (CRY0 MAKES THIS A MOVE INST)
 32306	050333	332 00 0 00 000000 		SKIPE	0		;PASS IF C(AC0)=0
 32307						STOP^
 32308	050334	254 04 0 00 050335 		HALT	.+1		;TEST FAILED IF PROGRAM HALTS HERE
 32309	050335	324 00 0 00 050336 		JUMPA	.+1		;IF TEST FAILS, CHANGE THIS INSTRUCTION (JUMPA .+1) TO
 32310									;JUMPA X (X IS THE ADDRESS OF THE FIRST INSTRUCTION
 32311									;IN THE SUBTEST) TO LOOP ON ERROR^
 32312
 32313					;**********
DFKAA PDP-10 KL10 BASIC INSTRUCTION DIAGNOSTIC (1) VER 0,2	MACRO %53B(1254)-4 11:50 11-Nov-24 Page 3
DFKAA5	MAC	13-Jan-89 10:22		TEST OF JSR INSTRUCTION

 32314					;THIS TEST VERIFIES THAT JSR JUMPS TO E+1
 32315					;IN THIS CASE, AC0 IS CLEARED AND CRY0 IS SET; THEN, JSR .+2 IS EXECUTED.
 32316					;IF JSR DID NOT JUMP, ONES ARE LOADED WITH AC0; AND THE TEST FAILS.
 32317					;OTHERWISE, AC0 REMAINS CLEAR AND THE TEST PASSES
 32318
 32319	050336				C23400:	SFLAG	CRY0		^;SET CRY0
 32320
 32321	050336	205 01 0 00 200000 		MOVSI	1,CRY0
 32322	050337	255 17 0 00 050340 		JFCL	17,.+1	;RESET ALL FLAGS
 32323	050340	254 02 0 01 050341 		JRST	2,.+1(1)		;SET CRY0 FLAG
 32324	050341	400 00 0 00 000000 		SETZ			;CLEAR AC0
 32325	050342	264 00 0 00 050344 		JSR	.+2		;*JSR SHOULD JUMP
 32326	050343	474 00 0 00 000000 		SETO			;LOAD AC0 WITH ONES IF JSR FAILED TO JUMP
 32327	050344	000000	000000			0			;STORE FLAGS HERE
 32328	050345	332 00 0 00 000000 		SKIPE			;PASS  IF JSR JUMPED CORRECTLY
 32329						STOP^
 32330	050346	254 04 0 00 050347 		HALT	.+1		;TEST FAILED IF PROGRAM HALTS HERE
 32331	050347	324 00 0 00 050350 		JUMPA	.+1		;IF TEST FAILS, CHANGE THIS INSTRUCTION (JUMPA .+1) TO
 32332									;JUMPA X (X IS THE ADDRESS OF THE FIRST INSTRUCTION
 32333									;IN THE SUBTEST) TO LOOP ON ERROR^
 32334
 32335					;**********
 32336
 32337					;THIS TEST VERIFIES THAT JSR STORES THE PC IN E - RIGHT HALF.  THE PC
 32338					;IS ONE GREATER THAN THE LOCATION OF THE JSR INSTRUCTION.
 32339					;THIS TEST WILL FAIL IF JSR STORES E INSTEAD OF PC IN E - RIGHT HALF.
 32340					;IN CASE OF FAILURE, AR PC EN AT ET2 WAS FAULTY.
 32341
 32342	050350				C23500:	SFLAG	0		^;CLEAR ALL FLAGS
 32343
 32344	050350	205 01 0 00 000000 		MOVSI	1,0
 32345	050351	255 17 0 00 050352 		JFCL	17,.+1	;RESET ALL FLAGS
 32346	050352	254 02 0 01 050353 		JRST	2,.+1(1)		;SET 0 FLAG
 32347	050353	264 00 0 00 050355 		JSR	.+2		;*JSR SHOULD STORE PC+1 IN E - RIGHT
 32348	050354	254 04 0 00 050354 		HALT	.		;JSR SHOULD SKIP OVER THIS HALT
 32349	050355	000000	000000			0			;STORE FLAGS AND PC HERE
 32350	050356	550 00 0 00 050355 		HRRZ	.-1		;PUT STORED CONTENTS OF E - RIGHT INTO AC0
 32351	050357	306 00 0 00 050355 		CAIN	.-2		;FAIL IF C(AC0)=E
 32352						STOP^
 32353	050360	254 04 0 00 050361 		HALT	.+1		;TEST FAILED IF PROGRAM HALTS HERE
 32354	050361	324 00 0 00 050362 		JUMPA	.+1		;IF TEST FAILS, CHANGE THIS INSTRUCTION (JUMPA .+1) TO
 32355									;JUMPA X (X IS THE ADDRESS OF THE FIRST INSTRUCTION
 32356									;IN THE SUBTEST) TO LOOP ON ERROR^
 32357
 32358					;**********
DFKAA PDP-10 KL10 BASIC INSTRUCTION DIAGNOSTIC (1) VER 0,2	MACRO %53B(1254)-4 11:50 11-Nov-24 Page 4
DFKAA5	MAC	13-Jan-89 10:22		TEST OF JSR INSTRUCTION

 32359					;THIS TEST VERIFIES THAT JSR STORES THE PC IN E - RIGHT HALF.  THE PC
 32360					;IS ONE GREATER THAN THE LOCATION OF THE JSR INSTRUCTION.
 32361					;THIS TEST WILL PASS IF JSR STORES PC IN E - RIGHT HALF.
 32362
 32363	050362	264 00 0 00 050364 	C23600:	JSR	.+2		;*JSR SHOULD STORE PC+1 IN E - RIGHT
 32364	050363	254 04 0 00 050363 		HALT	.		;JSR SHOULD SKIP OVER THIS HALT
 32365	050364	000000	000000			0			;STORE FLAGS AND PC HERE
 32366	050365	550 00 0 00 050364 		HRRZ	.-1		;PUT STORED CONTENTS OF E - RIGHT INTO AC0
 32367	050366	302 00 0 00 050363 		CAIE	C23600+1	;PASS IF C(AC0)=C23600+1 [PC]
 32368						STOP^
 32369	050367	254 04 0 00 050370 		HALT	.+1		;TEST FAILED IF PROGRAM HALTS HERE
 32370	050370	324 00 0 00 050371 		JUMPA	.+1		;IF TEST FAILS, CHANGE THIS INSTRUCTION (JUMPA .+1) TO
 32371									;JUMPA X (X IS THE ADDRESS OF THE FIRST INSTRUCTION
 32372									;IN THE SUBTEST) TO LOOP ON ERROR^
 32373
 32374					;**********
DFKAA PDP-10 KL10 BASIC INSTRUCTION DIAGNOSTIC (1) VER 0,2	MACRO %53B(1254)-4 11:50 11-Nov-24 Page 5
DFKAA5	MAC	13-Jan-89 10:22		TEST OF JSA INSTRUCTION

 32375					SUBTTL	TEST OF JSA INSTRUCTION
 32376
 32377					;**********
 32378
 32379					;THIS TEST VERIFIES THAT JSA JUMPS TO LOCATION E+1.
 32380					;IN THIS TEST, AC1 IS CLEARED AND A CAM 0,0 IS LOADED
 32381					;INTO THE AC OF THE JSA INSTRUCTION.
 32382					;IF JSA DOES NOT JUMP, AC1 WILL BE LOADED WITH ONES.  AC1 IS CHECKED FOR ZEROS.
 32383					;IF C(AC1)=0, THE TEST PASSES; OTHERWISE, THIS TEST FAILS BECAUSE JSA DID NOT JUMP.
 32384
 32385	050371	400 01 0 00 000000 	C23700:	SETZ	1,		;CLEAR AC1
 32386	050372	200 00 0 00 070627 		MOVE	[CAM]		;LOAD CAM INTO AC0
 32387	050373	266 00 0 00 050375 		JSA	.+2		;*JSA SHOULD JUMP TO E+1
 32388	050374	474 00 0 00 000001 		SETO	1		;JSA SHOULD JUMP OVER THIS INSTRUCTION
 32389	050375	000000	000000			0			;PASS IF JSA JUMPED
 32390	050376	332 00 0 00 000001 		SKIPE	1
 32391						STOP^
 32392	050377	254 04 0 00 050400 		HALT	.+1		;TEST FAILED IF PROGRAM HALTS HERE
 32393	050400	324 00 0 00 050401 		JUMPA	.+1		;IF TEST FAILS, CHANGE THIS INSTRUCTION (JUMPA .+1) TO
 32394									;JUMPA X (X IS THE ADDRESS OF THE FIRST INSTRUCTION
 32395									;IN THE SUBTEST) TO LOOP ON ERROR^
 32396
 32397					;**********
 32398
 32399					;THIS TEST VERIFIES THAT JSA JUMPS TO LOCATION E+1.
 32400					;IN THIS TEST, AC1 IS CLEARED AND A MOVEI 1,1234 IS LOADED
 32401					;INTO THE AC OF THE JSA INSTRUCTION.
 32402					;IF JSA DOES NOT JUMP, AC1 WILL BE LOADED WITH 0,,1234.  AC1 IS CHECKED FOR ZEROS.
 32403					;IF C(AC1)=0, THE TEST PASSES; OTHERWISE, THIS TEST FAILS BECAUSE JSA DID NOT JUMP.
 32404
 32405	050401	400 01 0 00 000000 	C24000:	SETZ	1,		;CLEAR AC1
 32406	050402	200 00 0 00 070630 		MOVE	[MOVEI 1,1234]	;LOAD MOVEI 1,1234 INTO AC
 32407	050403	266 00 0 00 050404 		JSA	.+1		;*JSA SHOULD JUMP TO E+1
 32408	050404	000000	000000			0			;JSA SHOULD JUMP OVER THIS LOCATION
 32409	050405	306 01 0 00 001234 		CAIN	1,1234		;FAIL IF JSA DID NOT JUMP OVER PREVIOUS INSTRUCTION
 32410						STOP^
 32411	050406	254 04 0 00 050407 		HALT	.+1		;TEST FAILED IF PROGRAM HALTS HERE
 32412	050407	324 00 0 00 050410 		JUMPA	.+1		;IF TEST FAILS, CHANGE THIS INSTRUCTION (JUMPA .+1) TO
 32413									;JUMPA X (X IS THE ADDRESS OF THE FIRST INSTRUCTION
 32414									;IN THE SUBTEST) TO LOOP ON ERROR^
 32415
 32416					;**********
DFKAA PDP-10 KL10 BASIC INSTRUCTION DIAGNOSTIC (1) VER 0,2	MACRO %53B(1254)-4 11:50 11-Nov-24 Page 6
DFKAA5	MAC	13-Jan-89 10:22		TEST OF JSA INSTRUCTION

 32417					;THIS TEST VERIFIES THAT JSA LOADS PC OF LOC OF JSA+1 INTO AC RIGHT.
 32418					;THIS TEST WILL FAIL IF JSA LOADS E INTO AC RIGHT INSTEAD OF PC.
 32419
 32420	050410	266 00 0 00 050412 	C24100:	JSA	.+2		;*JSA SHOULD LOAD PC INTO AC RIGHT
 32421	050411	254 04 0 00 050411 		HALT	.		;JSA SHOULD JUMP OVER THIS LOCATION
 32422	050412	000000	000000			0			;JSA SHOULD JUMP OVER THIS LOCATION
 32423	050413	552 00 0 00 000001 		HRRZM	1		;PUT C(AC-RIGHT) INTO AC1
 32424	050414	306 01 0 00 050412 		CAIN	1,.-2		;FAIL IF E WAS LOADED INTO AC-RIGHT INSTEAD OF PC
 32425						STOP^
 32426	050415	254 04 0 00 050416 		HALT	.+1		;TEST FAILED IF PROGRAM HALTS HERE
 32427	050416	324 00 0 00 050417 		JUMPA	.+1		;IF TEST FAILS, CHANGE THIS INSTRUCTION (JUMPA .+1) TO
 32428									;JUMPA X (X IS THE ADDRESS OF THE FIRST INSTRUCTION
 32429									;IN THE SUBTEST) TO LOOP ON ERROR^
 32430
 32431					;**********
 32432
 32433					;THIS TEST VERIFIES THAT JSA PLACES C(AC) INTO E
 32434					;THIS TEST WILL FAIL IF EITHER 0,,E OR 0,,PC IS LOADED
 32435					;INTO E INSTEAD OF C(AC)
 32436
 32437	050417	403 00 0 00 050421 	C24200:	SETZB	.+2		;CLEAR AC,E
 32438	050420	266 00 0 00 050421 		JSA	.+1		;*JSA SHOULD LOAD C(AC) [ZEROS] INTO E
 32439	050421	000000	000000			0			;JSA SHOULD PLACE ZEROS HERE
 32440	050422	200 01 0 00 050421 		MOVE	1,.-1		;SAVE C(AC)
 32441	050423	306 01 0 00 050421 		CAIN	1,.-2		;FAIL IF JSA LOADED 0,,E OR 0,,PC INTO E
 32442						STOP^
 32443	050424	254 04 0 00 050425 		HALT	.+1		;TEST FAILED IF PROGRAM HALTS HERE
 32444	050425	324 00 0 00 050426 		JUMPA	.+1		;IF TEST FAILS, CHANGE THIS INSTRUCTION (JUMPA .+1) TO
 32445									;JUMPA X (X IS THE ADDRESS OF THE FIRST INSTRUCTION
 32446									;IN THE SUBTEST) TO LOOP ON ERROR^
 32447
 32448					;**********
DFKAA PDP-10 KL10 BASIC INSTRUCTION DIAGNOSTIC (1) VER 0,2	MACRO %53B(1254)-4 11:50 11-Nov-24 Page 7
DFKAA5	MAC	13-Jan-89 10:22		TEST OF JSA INSTRUCTION

 32449					;THIS TEST VERIFIES THAT JSA PLACES PC INTO AC-RIGHT
 32450					;THIS TEST WILL FAIL IF PC IS NOT LOADED INTO AC-RIGHT
 32451
 32452	050426	201 00 0 00 777777 	C24300:	MOVEI	-1		;PRELOAD AC WITH 0,,-1
 32453	050427	266 00 0 00 050430 		JSA	.+1		;*JSA SHOULD PLACE E,,PC INTO THE AC
 32454	050430	000000	000000			0			;JSA SHOULD PLACE C(AC) HERE
 32455	050431	606 00 0 00 777777 		TRNN	-1		;FAIL IF AR LT AR RT EN FAILED
 32456						STOP^
 32457	050432	254 04 0 00 050433 		HALT	.+1		;TEST FAILED IF PROGRAM HALTS HERE
 32458	050433	324 00 0 00 050434 		JUMPA	.+1		;IF TEST FAILS, CHANGE THIS INSTRUCTION (JUMPA .+1) TO
 32459									;JUMPA X (X IS THE ADDRESS OF THE FIRST INSTRUCTION
 32460									;IN THE SUBTEST) TO LOOP ON ERROR^
 32461
 32462					;**********
 32463
 32464					;THIS TEST VERIFIES THAT JSA PLACES THE PC OF THE LOCATION OF JSA+1 IN AC-RIGHT
 32465					;THIS TEST FAILS IF A PC WAS NOT LOADED INTO AC RIGHT
 32466
 32467	050434	400 00 0 00 000000 	C24400:	SETZ			;CLEAR AC
 32468	050435	266 00 0 00 050436 		JSA	.+1		;*JSA SHOULD LOAD PC INTO AC - RIGHT
 32469	050436	000000	000000			0			;JSA SHOULD PLACE C(AC) HERE
 32470	050437	606 00 0 00 777777 		TRNN	-1		;PASS IF AC - RIGHT IS NON-ZERO
 32471						STOP^
 32472	050440	254 04 0 00 050441 		HALT	.+1		;TEST FAILED IF PROGRAM HALTS HERE
 32473	050441	324 00 0 00 050442 		JUMPA	.+1		;IF TEST FAILS, CHANGE THIS INSTRUCTION (JUMPA .+1) TO
 32474									;JUMPA X (X IS THE ADDRESS OF THE FIRST INSTRUCTION
 32475									;IN THE SUBTEST) TO LOOP ON ERROR^
 32476
 32477					;**********
DFKAA PDP-10 KL10 BASIC INSTRUCTION DIAGNOSTIC (1) VER 0,2	MACRO %53B(1254)-4 11:50 11-Nov-24 Page 8
DFKAA5	MAC	13-Jan-89 10:22		TEST OF JSA INSTRUCTION

 32478					;THIS TEST VERIFIES THAT JSA PLACES IN AC-LEFT
 32479					;THIS TEST FAILS IF JSA LOADS PC INSTEAD OF E INTO AC-LEFT
 32480
 32481	050442	266 00 0 00 050444 	C24500:	JSA	.+2		;*JSA SHOULD LOAD E INTO AC-LEFT
 32482	050443	254 04 0 00 050443 		HALT	.		;JSA SHOULD JUMP OVER THIS INSTRUCTION
 32483	050444	000000	000000			0			;E:
 32484	050445	556 00 0 00 000001 		HLRZM	1		;SAVE C(AC - LEFT)
 32485	050446	306 01 0 00 050443 		CAIN	1,.-3		;FAIL IF JSA LOADED PC INSTEAD OF E INTO AC-LEFT
 32486						STOP^
 32487	050447	254 04 0 00 050450 		HALT	.+1		;TEST FAILED IF PROGRAM HALTS HERE
 32488	050450	324 00 0 00 050451 		JUMPA	.+1		;IF TEST FAILS, CHANGE THIS INSTRUCTION (JUMPA .+1) TO
 32489									;JUMPA X (X IS THE ADDRESS OF THE FIRST INSTRUCTION
 32490									;IN THE SUBTEST) TO LOOP ON ERROR^
 32491
 32492					;**********
 32493
 32494					;THIS TEST VERIFIES THAT JSA LOADS E,,PC INTO THE AC
 32495					;FIRST, THE AC IS PRELOADED WITH -1,,-1; THEN, JSA IS EXECUTED.
 32496					;THE AC IS CHECKED FOR E,,PC.  IF C(AC)=E,,PC, THIS TEST PASSES
 32497
 32498	050451	474 00 0 00 000000 	C24600:	SETO			;PRELOAD AC WITH -1,,-1
 32499	050452	266 00 0 00 050454 		JSA	.+2		;*JSA SHOULD PLACE E,,PC INTO THE AC
 32500	050453	254 04 0 00 050453 		HALT	.		;JSA SHOULD JUMP OVER HERE, PC:
 32501	050454	000000	000000			0			;JSA SHOULD STORE C(AC) HERE, E:
 32502	050455	312 00 0 00 070631 		CAME	[XWD .-1,.-2]	;PASS IF C(AC)=E,,PC
 32503						STOP^
 32504	050456	254 04 0 00 050457 		HALT	.+1		;TEST FAILED IF PROGRAM HALTS HERE
 32505	050457	324 00 0 00 050460 		JUMPA	.+1		;IF TEST FAILS, CHANGE THIS INSTRUCTION (JUMPA .+1) TO
 32506									;JUMPA X (X IS THE ADDRESS OF THE FIRST INSTRUCTION
 32507									;IN THE SUBTEST) TO LOOP ON ERROR^
 32508
 32509					;**********
DFKAA PDP-10 KL10 BASIC INSTRUCTION DIAGNOSTIC (1) VER 0,2	MACRO %53B(1254)-4 11:50 11-Nov-24 Page 9
DFKAA5	MAC	13-Jan-89 10:22		TEST OF JSA INSTRUCTION

 32510					;THIS TEST VERIFIES THAT JSA LOADS E,,PC INTO THE AC
 32511					;FIRST, THE AC IS PRELOADED WITH 0 JSA IS EXECUTED.
 32512					;THE AC IS CHECKED FOR E,,PC.  IF C(AC)=E,,PC, THIS TEST PASSES
 32513
 32514	050460	400 00 0 00 000000 	C24700:	SETZ			;PRELOAD AC WITH 0
 32515	050461	266 00 0 00 050463 		JSA	.+2		;*JSA SHOULD PLACE E,,PC INTO THE AC
 32516	050462	254 04 0 00 050462 		HALT	.		;JSA SHOULD JUMP OVER HERE, PC:
 32517	050463	000000	000000			0			;JSA SHOULD STORE C(AC) HERE, E:
 32518	050464	312 00 0 00 070632 		CAME	[XWD .-1,.-2]	;PASS IF C(AC)=E,,PC
 32519						STOP^
 32520	050465	254 04 0 00 050466 		HALT	.+1		;TEST FAILED IF PROGRAM HALTS HERE
 32521	050466	324 00 0 00 050467 		JUMPA	.+1		;IF TEST FAILS, CHANGE THIS INSTRUCTION (JUMPA .+1) TO
 32522									;JUMPA X (X IS THE ADDRESS OF THE FIRST INSTRUCTION
 32523									;IN THE SUBTEST) TO LOOP ON ERROR^
 32524
 32525					;**********
 32526
 32527					;THIS TEST VERIFIES THAT JSA LOADS C(AC) INTO E.
 32528					;AC IS FIRST CLEARED AND E IS PRELOADED WITH ONES;
 32529					;THEN JSA IS EXECUTED.  E IS CHECKED FOR ZEROS.  IF C(E)=0,
 32530					;THIS TEST PASSES.
 32531
 32532	050467	400 00 0 00 000000 	C25000:	SETZ			;CLEAR AC
 32533	050470	476 00 0 00 050472 		SETOM	.+2		;PRELOAD E WITH -1,,-1
 32534	050471	266 00 0 00 050472 		JSA	.+1		;*JSA SHOULD PLACE C(AC) INTO E
 32535	050472	000000	000000			0			;E: SHOULD GET C(AC) FROM JSA
 32536	050473	332 00 0 00 050472 		SKIPE	.-1		;PASS IF C(E)=0
 32537						STOP^
 32538	050474	254 04 0 00 050475 		HALT	.+1		;TEST FAILED IF PROGRAM HALTS HERE
 32539	050475	324 00 0 00 050476 		JUMPA	.+1		;IF TEST FAILS, CHANGE THIS INSTRUCTION (JUMPA .+1) TO
 32540									;JUMPA X (X IS THE ADDRESS OF THE FIRST INSTRUCTION
 32541									;IN THE SUBTEST) TO LOOP ON ERROR^
 32542
 32543					;**********
DFKAA PDP-10 KL10 BASIC INSTRUCTION DIAGNOSTIC (1) VER 0,2	MACRO %53B(1254)-4 11:50 11-Nov-24 Page 10
DFKAA5	MAC	13-Jan-89 10:22		TEST OF JSA INSTRUCTION

 32544					;THIS TEST VERIFIES THAT JSA LOADS C(AC) INTO E.
 32545					;AC IS FIRST PRELOADED WITH -1,,-1 AND E IS CLEARED;
 32546					;THEN, JSA IS EXECUTED.  E IS CHECKED FOR -1,,-1.  IF C(E)=-1,,-1,
 32547					;THIS TEST PASSES.
 32548
 32549	050476	477 00 0 00 000001 	C25100:	SETOB	1		;PRELOAD AC -1,,-1
 32550	050477	402 00 0 00 050501 		SETZM	.+2		;PRELOAD E WITH 0
 32551	050500	266 00 0 00 050501 		JSA	.+1		;*JSA SHOULD PLACE C(AC) INTO E
 32552	050501	000000	000000			0			;E: SHOULD GET C(AC) FROM JSA
 32553	050502	312 01 0 00 050501 		CAME	1,.-1		;PASS IF C(E)=-1,,-1
 32554						STOP^
 32555	050503	254 04 0 00 050504 		HALT	.+1		;TEST FAILED IF PROGRAM HALTS HERE
 32556	050504	324 00 0 00 050505 		JUMPA	.+1		;IF TEST FAILS, CHANGE THIS INSTRUCTION (JUMPA .+1) TO
 32557									;JUMPA X (X IS THE ADDRESS OF THE FIRST INSTRUCTION
 32558									;IN THE SUBTEST) TO LOOP ON ERROR^
 32559
 32560					;**********
 32561
 32562					;THIS TEST VERIFIES THAT JSA LOADS C(AC) INTO E.
 32563					;AC IS FIRST CLEARED AND E IS PRELOADED WITH ONES;
 32564					;THEN JSA IS EXECUTED.  E IS CHECKED FOR ZEROS.  IF C(E)=0,
 32565					;THIS TEST PASSES.
 32566
 32567	050505	201 00 0 00 777777 	C25200:	MOVEI	-1		;PRELOAD AC WITH 0,,-1
 32568	050506	266 00 0 00 050507 		JSA	.+1		;*JSA SHOULD PLACE C(AC) INTO E
 32569	050507	000000	000000			0			;E: SHOULD GET C(AC) FROM JSA
 32570	050510	200 01 0 00 050507 		MOVE	1,.-1		;PASS IF C(E)=0,,-1
 32571	050511	302 01 0 00 777777 		CAIE	1,-1
 32572						STOP^
 32573	050512	254 04 0 00 050513 		HALT	.+1		;TEST FAILED IF PROGRAM HALTS HERE
 32574	050513	324 00 0 00 050514 		JUMPA	.+1		;IF TEST FAILS, CHANGE THIS INSTRUCTION (JUMPA .+1) TO
 32575									;JUMPA X (X IS THE ADDRESS OF THE FIRST INSTRUCTION
 32576									;IN THE SUBTEST) TO LOOP ON ERROR^
 32577
 32578					;**********
DFKAA PDP-10 KL10 BASIC INSTRUCTION DIAGNOSTIC (1) VER 0,2	MACRO %53B(1254)-4 11:50 11-Nov-24 Page 11
DFKAA5	MAC	13-Jan-89 10:22		TEST OF JSA INSTRUCTION

 32579					;THIS TEST VERIFIES THAT JSA DOES NOT MODIFY AC+1
 32580					;IN THIS TEST, AC+1 IS PRELOADED WITH -1,,-1; THEN JSA IS EXECUTED
 32581					;AC+1 IS THEN CHECKED FOR ITS ORIGINAL CONTENTS, -1,,-1.
 32582					;IF C(AC+1)=-1,,-1, THIS TEST PASSES
 32583
 32584	050514	476 00 0 00 000001 	C25300:	SETOM	1		;PRELOAD AC+1 WITH -1,,-1
 32585	050515	266 00 0 00 050516 		JSA	.+1		;*JSA SHOULD NOT MODIFY AC+1
 32586	050516	310 00 0 00 000000 		CAM			;JSA SHOULD JUMP OVER THIS, E:PC:
 32587	050517	312 01 0 00 070254 		CAME	1,[-1]		;PASS IF AC+1 WAS NOT MODIFIED BY JSA
 32588						STOP^
 32589	050520	254 04 0 00 050521 		HALT	.+1		;TEST FAILED IF PROGRAM HALTS HERE
 32590	050521	324 00 0 00 050522 		JUMPA	.+1		;IF TEST FAILS, CHANGE THIS INSTRUCTION (JUMPA .+1) TO
 32591									;JUMPA X (X IS THE ADDRESS OF THE FIRST INSTRUCTION
 32592									;IN THE SUBTEST) TO LOOP ON ERROR^
 32593
 32594					;**********
DFKAA PDP-10 KL10 BASIC INSTRUCTION DIAGNOSTIC (1) VER 0,2	MACRO %53B(1254)-4 11:50 11-Nov-24 Page 12
DFKAA5	MAC	13-Jan-89 10:22		TEST OF JRA INSTRUCTION

 32595					SUBTTL	TEST OF JRA INSTRUCTION
 32596
 32597					;**********
 32598
 32599					;THIS TEST VERIFIES THAT JRA TRANSFERS CONTROL TO LOCATION E
 32600					;THIS TEST FAILS IF JRA DOES NOT JUMP TO E.
 32601
 32602	050522	200 00 0 00 070633 	C25400:	MOVE	[JRST .+4]	;PRELOAD AC0 WITH JRST .+4
 32603	050523	205 01 0 00 050525 		MOVSI	1,.+2		;PRELOAD AC WITH E,,0
 32604	050524	267 01 0 00 050525 		JRA	1,.+1		;*JRA SHOULD JUMP TO NEXT INSTRUCTION
 32605	050525	334 00 0 00 000000 		SKIPA			;PASS IF JRA JUMPS TO E
 32606						STOP^
 32607	050526	254 04 0 00 050527 		HALT	.+1		;TEST FAILED IF PROGRAM HALTS HERE
 32608	050527	324 00 0 00 050530 		JUMPA	.+1		;IF TEST FAILS, CHANGE THIS INSTRUCTION (JUMPA .+1) TO
 32609									;JUMPA X (X IS THE ADDRESS OF THE FIRST INSTRUCTION
 32610									;IN THE SUBTEST) TO LOOP ON ERROR^
 32611
 32612					;**********
 32613
 32614					;THIS TEST VERIFIES THAT JRA TRANSFERS CONTROL TO LOCATION E
 32615					;THIS TEST FAILS IF JRA DOES NOT JUMP TO E.
 32616
 32617	050530	205 00 0 00 050533 	C25500:	MOVSI	.+3		;PRELOAD AC WITH E+1
 32618	050531	267 00 0 00 050532 		JRA	.+1		;*JRA SHOULD JUMP TO NEXT SEQUENTIAL INSTRUCTION
 32619	050532	334 00 0 00 000000 		SKIPA			;PASS IF JRA JUMPS TO E
 32620						STOP^
 32621	050533	254 04 0 00 050534 		HALT	.+1		;TEST FAILED IF PROGRAM HALTS HERE
 32622	050534	324 00 0 00 050535 		JUMPA	.+1		;IF TEST FAILS, CHANGE THIS INSTRUCTION (JUMPA .+1) TO
 32623									;JUMPA X (X IS THE ADDRESS OF THE FIRST INSTRUCTION
 32624									;IN THE SUBTEST) TO LOOP ON ERROR^
 32625
 32626					;**********
DFKAA PDP-10 KL10 BASIC INSTRUCTION DIAGNOSTIC (1) VER 0,2	MACRO %53B(1254)-4 11:50 11-Nov-24 Page 13
DFKAA5	MAC	13-Jan-89 10:22		TEST OF JRA INSTRUCTION

 32627					;THIS TEST VERIFIES THAT JRA TRANSFERS CONTROL TO LOCATION E
 32628					;THIS TEST FAILS IF JRA DOES NOT JUMP TO E.
 32629
 32630	050535	403 00 0 00 000001 	C25600:	SETZB	1		;PRELOAD AC0, AC1 WITH ZEROS
 32631	050536	267 00 0 00 050540 		JRA	.+2		;*JRA SHOULD JUMP OVER NEXT SEQUENTIAL INSTRUCTION
 32632	050537	474 01 0 00 000000 		SETO	1,		;LOAD AC1 WITH ONES IF JRA DOES NOT JUMP
 32633	050540	332 00 0 00 000001 		SKIPE	1		;PASS IF JRA JUMPED
 32634						STOP^
 32635	050541	254 04 0 00 050542 		HALT	.+1		;TEST FAILED IF PROGRAM HALTS HERE
 32636	050542	324 00 0 00 050543 		JUMPA	.+1		;IF TEST FAILS, CHANGE THIS INSTRUCTION (JUMPA .+1) TO
 32637									;JUMPA X (X IS THE ADDRESS OF THE FIRST INSTRUCTION
 32638									;IN THE SUBTEST) TO LOOP ON ERROR^
 32639
 32640					;**********
 32641
 32642					;THIS TEST VERIFIES THAT JRA PLACES C(C(AC-LEFT)) INTO THE AC AND JUMPS TO E
 32643					;THIS TEST FAILS IF JRA JUMPS TO E+1 OR DOES NOT LOAD THE AC CORRECTLY.
 32644
 32645	050543	400 00 0 00 000000 	C25700:	SETZ			;CLEAR AC
 32646	050544	267 00 0 00 050545 		JRA	.+1		;*JRA SHOULD PLACE 0 INTO THE AC AND JUMP .+1
 32647	050545	332 00 0 00 000000 		SKIPE			;PASS IF AC WAS LOADED CORRECTLY
 32648									;AND JRA JUMPED CORRECTLY.
 32649						STOP^
 32650	050546	254 04 0 00 050547 		HALT	.+1		;TEST FAILED IF PROGRAM HALTS HERE
 32651	050547	324 00 0 00 050550 		JUMPA	.+1		;IF TEST FAILS, CHANGE THIS INSTRUCTION (JUMPA .+1) TO
 32652									;JUMPA X (X IS THE ADDRESS OF THE FIRST INSTRUCTION
 32653									;IN THE SUBTEST) TO LOOP ON ERROR^
 32654
 32655					;**********
DFKAA PDP-10 KL10 BASIC INSTRUCTION DIAGNOSTIC (1) VER 0,2	MACRO %53B(1254)-4 11:50 11-Nov-24 Page 14
DFKAA5	MAC	13-Jan-89 10:22		TEST OF JRA INSTRUCTION

 32656					;THIS TEST VERIFIES THAT JRA PLACES C(C(AC-LEFT)) INTO THE AC
 32657					;FIRST, THE AC IS PRELOADED WITH 1,,2 AND AC1 AND AC2 ARE
 32658					;INITIALIZED WITH THEIR RESPECTIVE ADDRESSES; JRA IS EXECUTED, AND
 32659					;THE AC IS CHECKED FOR 0,,1, THE ORIGINAL C(C(AC-LEFT)). IF C(AC)=0,,1,
 32660					;THIS TEST PASSES
 32661
 32662	050550	200 00 0 00 070634 	C26200:	MOVE	[XWD 1,2]	;PRELOAD AC WITH 1,,2
 32663	050551	201 01 0 00 000001 		MOVEI	1,1		;INITIALIZE AC1 WITH 0,,1
 32664	050552	201 02 0 00 000002 		MOVEI	2,2		;INITIALIZE AC2 WITH 0,,2
 32665	050553	267 00 0 00 050554 		JRA	.+1		;*JRA SHOULD PLACE 0,,1 INTO THE AC
 32666	050554	302 00 0 00 000001 		CAIE	1		;PASS IF C(AC)=0,,1
 32667						STOP^
 32668	050555	254 04 0 00 050556 		HALT	.+1		;TEST FAILED IF PROGRAM HALTS HERE
 32669	050556	324 00 0 00 050557 		JUMPA	.+1		;IF TEST FAILS, CHANGE THIS INSTRUCTION (JUMPA .+1) TO
 32670									;JUMPA X (X IS THE ADDRESS OF THE FIRST INSTRUCTION
 32671									;IN THE SUBTEST) TO LOOP ON ERROR^
 32672
 32673					;**********
 32674
 32675					;THIS TEST VERIFIES THAT JRA CAN RESTORE AC0 FROM AC0 WHEN AC0 IS THE
 32676					;SPECIFIED AC AND C(AC0-LEFT)=0.
 32677					;FIRST, AC0 IS PRELOADED AND JRA IS EXECUTED.  THEN, AC0 IS CHECKED FOR
 32678					;ITS INITIAL CONTENTS.  IF THE RESULT IN AC0, IS CORRECT, THIS TEST PASSES.
 32679
 32680	050557	551 00 0 00 070635 	C26300:	HRRZI	[135531,,246642]	;PRELOAD AC0 WITH 0,, LITERAL ADDRESS
 32681	050560	267 00 0 00 050561 		JRA	.+1		;*JRA SHOULD PLACE C(AC0) INTO AC0
 32682	050561	302 00 0 00 070635 		CAIE	[135531,,246642] ;PASS IF JRA PLACED C(AC0) INTO AC0
 32683						STOP^
 32684	050562	254 04 0 00 050563 		HALT	.+1		;TEST FAILED IF PROGRAM HALTS HERE
 32685	050563	324 00 0 00 050564 		JUMPA	.+1		;IF TEST FAILS, CHANGE THIS INSTRUCTION (JUMPA .+1) TO
 32686									;JUMPA X (X IS THE ADDRESS OF THE FIRST INSTRUCTION
 32687									;IN THE SUBTEST) TO LOOP ON ERROR^
 32688
 32689					;**********
DFKAA PDP-10 KL10 BASIC INSTRUCTION DIAGNOSTIC (1) VER 0,2	MACRO %53B(1254)-4 11:50 11-Nov-24 Page 15
DFKAA5	MAC	13-Jan-89 10:22		TEST OF JRA INSTRUCTION

 32690					;THIS TEST VERIFIES THAT JRA CAN RESOTRE AC0 FROM MEMORY WHEN AC0 IS THE
 32691					;SPECIFIED AC.
 32692					;FIRST, AC0 IS PRELOADED WITH [LITERAL ADDRESS ,,0] AND JRA IS EXECUTED.  THEN,
 32693					;AC0 IS CHECKED FOR THE SPECIFIED LITERAL, 135246,,246135.  IF
 32694					;C(AC0)=135246,,246135, THE TEST PASSES.
 32695
 32696	050564	515 00 0 00 070636 	C26400:	HRLZI	[135246,,246135] ;PRELOAD AC0 WITH [LITERAL ADDRESS ,,0]
 32697	050565	267 00 0 00 050566 		JRA	.+1		;*JRA SHOULD PLACE 135246,,246135 INTO AC0
 32698	050566	312 00 0 00 070636 		CAME	[135246,,246135];PASS IF C(AC0)=135246,,246135
 32699						STOP^
 32700	050567	254 04 0 00 050570 		HALT	.+1		;TEST FAILED IF PROGRAM HALTS HERE
 32701	050570	324 00 0 00 050571 		JUMPA	.+1		;IF TEST FAILS, CHANGE THIS INSTRUCTION (JUMPA .+1) TO
 32702									;JUMPA X (X IS THE ADDRESS OF THE FIRST INSTRUCTION
 32703									;IN THE SUBTEST) TO LOOP ON ERROR^
 32704
 32705					;**********
 32706
 32707					;THIS TEST VERIFIES THAT JRA CAN RESOTRE AC0 FROM MEMORY WHEN AC0 IS THE
 32708					;SPECIFIED AC.
 32709					;FIRST, AC0 IS PRELOADED WITH [-1,, ADDRESS OF JCA INSTRUCTION] AND JRA IS EXECUTED.
 32710					;THEN, AC0 IS CHECKED FOR THE JRA INSTRUCTION.  IF
 32711					;C(AC0)= THE JRA INSTRUCTION, THE TEST PASSES.
 32712
 32713	050571	525 00 0 00 050572 	C26500:	HRLOI	.+1		;PRELOAD AC WITH -1,, ADDRESS OF JRA INSTRUCTION
 32714	050572	267 00 0 00 050573 		JRA	.+1		;*JRA SHOULD PLACE ITSELF INTO AC0
 32715	050573	312 00 0 00 050572 		CAME	.-1		;PASS IF AC CONTAINS JRA INSTRUCTION
 32716						STOP^
 32717	050574	254 04 0 00 050575 		HALT	.+1		;TEST FAILED IF PROGRAM HALTS HERE
 32718	050575	324 00 0 00 050576 		JUMPA	.+1		;IF TEST FAILS, CHANGE THIS INSTRUCTION (JUMPA .+1) TO
 32719									;JUMPA X (X IS THE ADDRESS OF THE FIRST INSTRUCTION
 32720									;IN THE SUBTEST) TO LOOP ON ERROR^
 32721
 32722					;**********
DFKAA PDP-10 KL10 BASIC INSTRUCTION DIAGNOSTIC (1) VER 0,2	MACRO %53B(1254)-4 11:50 11-Nov-24 Page 16
DFKAA5	MAC	13-Jan-89 10:22		TESTS OF BIS FLAG

 32723					SUBTTL	TESTS OF BIS FLAG
 32724
 32725					;**********
 32726
 32727					;THIS TEST VERIFIES THAT JRST 2, CAN CLEAR BIS
 32728					;FIRST, BIS IS SET VIA JRST 2, ;THEN, BIS IS CLEARED VIA JRST 2,.
 32729					;THE FLAGS ARE SAVED AND BIS IS CHECKED.  THIS TEST PASSES IF BIS IS RESET;
 32730					;OTHERWISE JRST 2, FAILED TO RESET BIS.
 32731
 32732	050576				C26600:	SFLAG	BIS		^;SET BIS FLAG
 32733
 32734	050576	205 01 0 00 020000 		MOVSI	1,BIS
 32735	050577	255 17 0 00 050600 		JFCL	17,.+1	;RESET ALL FLAGS
 32736	050600	254 02 0 01 050601 		JRST	2,.+1(1)		;SET BIS FLAG
 32737						SFLAG			^;*RESET BIS FLAG
 32738
 32739	050601	205 01 0 00 000000 		MOVSI	1,
 32740	050602	255 17 0 00 050603 		JFCL	17,.+1	;RESET ALL FLAGS
 32741	050603	254 02 0 01 050604 		JRST	2,.+1(1)		;SET  FLAG
 32742	050604	265 00 0 00 050605 		JSP	.+1		;SAVE FLAGS
 32743	050605	603 00 0 00 020037 		TLNE	BIS+37		;PASS IF BIS FLAG IS RESET
 32744						STOP^
 32745	050606	254 04 0 00 050607 		HALT	.+1		;TEST FAILED IF PROGRAM HALTS HERE
 32746	050607	324 00 0 00 050610 		JUMPA	.+1		;IF TEST FAILS, CHANGE THIS INSTRUCTION (JUMPA .+1) TO
 32747									;JUMPA X (X IS THE ADDRESS OF THE FIRST INSTRUCTION
 32748									;IN THE SUBTEST) TO LOOP ON ERROR^
 32749
 32750					;**********
 32751
 32752					;THIS TEST VERIFIES THAT JRST 2, CAN SET BIS.
 32753					;FIRST, BIS IS SET VIA JRST 2, AND THE FLAGS ARE SAVED.
 32754					;BIS IS THEN CHECKED.  IF BIS IS SET, THIS TEST PASSES.
 32755
 32756	050610				C26700:	SFLAG	BIS		^;*SET BIS FLAG VIA JRST
 32757
 32758	050610	205 01 0 00 020000 		MOVSI	1,BIS
 32759	050611	255 17 0 00 050612 		JFCL	17,.+1	;RESET ALL FLAGS
 32760	050612	254 02 0 01 050613 		JRST	2,.+1(1)		;SET BIS FLAG
 32761	050613	265 00 0 00 050614 		JSP	.+1		;SAVE FLAGS
 32762	050614	607 00 0 00 020000 		TLNN	BIS		;PASS IF BIS FLAG IS SET
 32763						STOP^
 32764	050615	254 04 0 00 050616 		HALT	.+1		;TEST FAILED IF PROGRAM HALTS HERE
 32765	050616	324 00 0 00 050617 		JUMPA	.+1		;IF TEST FAILS, CHANGE THIS INSTRUCTION (JUMPA .+1) TO
 32766									;JUMPA X (X IS THE ADDRESS OF THE FIRST INSTRUCTION
 32767									;IN THE SUBTEST) TO LOOP ON ERROR^
 32768
 32769					;**********
DFKAA PDP-10 KL10 BASIC INSTRUCTION DIAGNOSTIC (1) VER 0,2	MACRO %53B(1254)-4 11:50 11-Nov-24 Page 17
DFKAA5	MAC	13-Jan-89 10:22		TESTS OF BIS FLAG

 32770					;THIS TEST VERIFIES THAT JSR ALWAYS RESETS BIS.
 32771					;FIRST BIS IS SET; THEN JSR IS EXECUTED.  THE FLAGS ARE
 32772					;THEN SAVED AND CHECKED.  IF BIS WAS RESET VIA JSR, THIS TEST PASSES.
 32773
 32774	050617				C27000:	SFLAG	BIS		^;SET BIS
 32775
 32776	050617	205 01 0 00 020000 		MOVSI	1,BIS
 32777	050620	255 17 0 00 050621 		JFCL	17,.+1	;RESET ALL FLAGS
 32778	050621	254 02 0 01 050622 		JRST	2,.+1(1)		;SET BIS FLAG
 32779	050622	264 00 0 00 050623 		JSR	.+1		;*JSR SHOULD RESET BIS
 32780	050623	000000	000000			0			;JSR SAVES FLAGS HERE
 32781	050624	265 00 0 00 050625 		JSP	.+1		;SAVE FLAGS
 32782	050625	603 00 0 00 020000 		TLNE	BIS		;PASS IF BIS FLAG IS RESET
 32783						STOP^
 32784	050626	254 04 0 00 050627 		HALT	.+1		;TEST FAILED IF PROGRAM HALTS HERE
 32785	050627	324 00 0 00 050630 		JUMPA	.+1		;IF TEST FAILS, CHANGE THIS INSTRUCTION (JUMPA .+1) TO
 32786									;JUMPA X (X IS THE ADDRESS OF THE FIRST INSTRUCTION
 32787									;IN THE SUBTEST) TO LOOP ON ERROR^
 32788
 32789					;**********
 32790
 32791					;THIS TEST VERIFIES THAT JSP ALWAYS RESETS BIS.
 32792					;FIRST BIS IS SET; THEN JSP IS EXECUTED.  THE FLAGS ARE
 32793					;THEN SAVED AND CHECKED.  IF BIS WAS RESET VIA JSP, THIS TEST PASSES.
 32794
 32795	050630				C27001:	SFLAG	BIS		^;SET BIS
 32796
 32797	050630	205 01 0 00 020000 		MOVSI	1,BIS
 32798	050631	255 17 0 00 050632 		JFCL	17,.+1	;RESET ALL FLAGS
 32799	050632	254 02 0 01 050633 		JRST	2,.+1(1)		;SET BIS FLAG
 32800	050633	265 00 0 00 050634 		JSP	.+1		;*JSP SHOULD RESET BIS
 32801	050634	265 00 0 00 050635 		JSP	.+1		;SAVE FLAGS
 32802	050635	603 00 0 00 020000 		TLNE	BIS		;PASS IF BIS FLAG IS RESET
 32803						STOP^
 32804	050636	254 04 0 00 050637 		HALT	.+1		;TEST FAILED IF PROGRAM HALTS HERE
 32805	050637	324 00 0 00 050640 		JUMPA	.+1		;IF TEST FAILS, CHANGE THIS INSTRUCTION (JUMPA .+1) TO
 32806									;JUMPA X (X IS THE ADDRESS OF THE FIRST INSTRUCTION
 32807									;IN THE SUBTEST) TO LOOP ON ERROR^
 32808
 32809					;**********
DFKAA PDP-10 KL10 BASIC INSTRUCTION DIAGNOSTIC (1) VER 0,2	MACRO %53B(1254)-4 11:50 11-Nov-24 Page 18
DFKAA5	MAC	13-Jan-89 10:22		TESTS OF BIS FLAG

 32810					;THIS TEST VERIFIES THAT THE BITS IN POSITIONS 8, 9 AND 10 ARE CLEARABLE.
 32811					;FIRST, THE ARITHMETIC FLAGS ARE CLEARED;
 32812					;THEN, BITS 8, 9 AND 10 OF THE PC-WORD IS EXAMINED.
 32813					;IF ANY OF THESE BITS ARE SET, THIS TEST FAILS BECAUSE THEY SHOULD BE CLEAR.
 32814
 32815	050640				C27100:	SFLAG			^;CLEAR ARITHMETIC FLAGS
 32816
 32817	050640	205 01 0 00 000000 		MOVSI	1,
 32818	050641	255 17 0 00 050642 		JFCL	17,.+1	;RESET ALL FLAGS
 32819	050642	254 02 0 01 050643 		JRST	2,.+1(1)		;SET  FLAG
 32820	050643	265 00 0 00 050644 		JSP	.+1		;SAVE FLAGS
 32821	050644	603 00 0 00 001600 		TLNE	1600		;PASS IF THESE BITS ARE CLEAR
 32822						STOP^
 32823	050645	254 04 0 00 050646 		HALT	.+1		;TEST FAILED IF PROGRAM HALTS HERE
 32824	050646	324 00 0 00 050647 		JUMPA	.+1		;IF TEST FAILS, CHANGE THIS INSTRUCTION (JUMPA .+1) TO
 32825									;JUMPA X (X IS THE ADDRESS OF THE FIRST INSTRUCTION
 32826									;IN THE SUBTEST) TO LOOP ON ERROR^
 32827
 32828					;**********
DFKAA PDP-10 KL10 BASIC INSTRUCTION DIAGNOSTIC (1) VER 0,2	MACRO %53B(1254)-4 11:50 11-Nov-24 Page 19
DFKAA5	MAC	13-Jan-89 10:22		TEST OF MSCL FWT INSTRUCTIONS

 32829					SUBTTL	TEST OF MSCL FWT INSTRUCTIONS
 32830
 32831					;**********
 32832
 32833					;THIS TEST VERIFIES THAT MOVEM PLACES C(AC) INTO E AND DOES
 32834					;NOT MODIFY C(AC).
 32835					;IN THIS CASE, C(AC)=252525,,252525 ANS C(E)=707070,,707070.
 32836					;HENCE, THE RESULT IN E SHOULD BE 252525,,252525.
 32837					;THE AC IS CHECKED FOR 252525,,252525.  IF ANY OTHER NUMBER IS
 32838					;FOUND IN THE AC, IT WAS CLOBBERED BY MOVEM, AND THIS TEST FAILS.
 32839					;E IS CHECKED FOR 252525,,252525.  IF ANY OTHER NUMBER IS FOUND
 32840					;IN E, IT WAS UPDATED INCORRECTLY BY MOVEM.
 32841
 32842	050647	200 00 0 00 070614 	C50000:	MOVE	[252525,,252525]	;PRELOAD AC WITH 252525,,252525
 32843	050650	200 01 0 00 070332 		MOVE	1,[707070,,707070]	;PRELOAD E WITH 707070,,707070
 32844	050651	202 00 0 00 000001 		MOVEM	0,1			;*MOVEM SHOULD PLACE 252525,,252525
 32845										;INTO E AND NOT AFFECT THE AC
 32846	050652	312 00 0 00 070614 		CAME	0,[252525,,252525]	;PASS IF C(AC) IS NOT CLOBBERED
 32847						STOP^
 32848	050653	254 04 0 00 050654 		HALT	.+1		;TEST FAILED IF PROGRAM HALTS HERE
 32849	050654	324 00 0 00 050655 		JUMPA	.+1		;IF TEST FAILS, CHANGE THIS INSTRUCTION (JUMPA .+1) TO
 32850									;JUMPA X (X IS THE ADDRESS OF THE FIRST INSTRUCTION
 32851									;IN THE SUBTEST) TO LOOP ON ERROR^
 32852	050655	312 01 0 00 070614 		CAME	1,[252525,,252525]	;PASS IF E WAS UPDATED CORRECTLY
 32853						STOP^
 32854	050656	254 04 0 00 050657 		HALT	.+1		;TEST FAILED IF PROGRAM HALTS HERE
 32855	050657	324 00 0 00 050660 		JUMPA	.+1		;IF TEST FAILS, CHANGE THIS INSTRUCTION (JUMPA .+1) TO
 32856									;JUMPA X (X IS THE ADDRESS OF THE FIRST INSTRUCTION
 32857									;IN THE SUBTEST) TO LOOP ON ERROR^
 32858
 32859					;**********
 32860
 32861					;THIS TEST VERIFIES THAT MOVES PLACES C(E) INTO THE AC IF AC IS NON-ZERO.
 32862					;IN THIS CASE, C(AC)=707070,,707070 AND C(E)=123456,,123456.  HENCE, BOTH
 32863					;THE AC AND E SHOULD CONTAIN 123456,,123456 AFTER MOVES IS EXECUTED.
 32864					;BOTH AC AND E ARE CHECKED FOR 123456,,123456.  IF EITHER AC OR E
 32865					;CONTAIN A DIFFERENT RESULT, THIS TEST FAILS
 32866
 32867	050660	200 02 0 00 070332 	C50100:	MOVE	2,[707070,,707070]	;PRELOAD AC WITH 707070,,707070
 32868	050661	200 01 0 00 070637 		MOVE	1,[123456,,123456]	;PRELOAD E WITH 123456,,123456
 32869	050662	203 02 0 00 000001 		MOVES	2,1			;*MOVES SHOULD PLACE 123456,,123456
 32870										;INTO BOTH AC AND E
 32871	050663	312 02 0 00 070637 		CAME	2,[123456,,123456]	;PASS IF C(AC)=123456,,123456
 32872						STOP^
 32873	050664	254 04 0 00 050665 		HALT	.+1		;TEST FAILED IF PROGRAM HALTS HERE
 32874	050665	324 00 0 00 050666 		JUMPA	.+1		;IF TEST FAILS, CHANGE THIS INSTRUCTION (JUMPA .+1) TO
 32875									;JUMPA X (X IS THE ADDRESS OF THE FIRST INSTRUCTION
 32876									;IN THE SUBTEST) TO LOOP ON ERROR^
 32877	050666	312 01 0 00 070637 		CAME	1,[123456,,123456]	;PASS IF C(E)=123456,,123456
 32878						STOP^
 32879	050667	254 04 0 00 050670 		HALT	.+1		;TEST FAILED IF PROGRAM HALTS HERE
 32880	050670	324 00 0 00 050671 		JUMPA	.+1		;IF TEST FAILS, CHANGE THIS INSTRUCTION (JUMPA .+1) TO
 32881									;JUMPA X (X IS THE ADDRESS OF THE FIRST INSTRUCTION
 32882									;IN THE SUBTEST) TO LOOP ON ERROR^
 32883
DFKAA PDP-10 KL10 BASIC INSTRUCTION DIAGNOSTIC (1) VER 0,2	MACRO %53B(1254)-4 11:50 11-Nov-24 Page 19-1
DFKAA5	MAC	13-Jan-89 10:22		TEST OF MSCL FWT INSTRUCTIONS

 32884					;**********
DFKAA PDP-10 KL10 BASIC INSTRUCTION DIAGNOSTIC (1) VER 0,2	MACRO %53B(1254)-4 11:50 11-Nov-24 Page 20
DFKAA5	MAC	13-Jan-89 10:22		TEST OF MSCL FWT INSTRUCTIONS

 32885					;THIS TEST VERIFIES THAT MOVES IS A NO-OP IF AC=0
 32886					;IN THIS CASE, C(AC)=-1,,-1 AND C(E)=707070,,707070
 32887					;AFTER MOVES IS EXECUTED, AC AND E ARE CHECKED FOR THEIR ORIGINAL DATA.
 32888					;IF EITHER C(AC) OR C(E) CHANGED AS A RESULT OF MOVES, THIS TEST FAILS.
 32889
 32890	050671	200 01 0 00 070332 	C50110:	MOVE	1,[707070,,707070]	;PRELOAD E WITH 707070,,707070
 32891	050672	474 00 0 00 000000 		SETO				;PRELOAD AC WITH -1,,-1
 32892	050673	203 00 0 00 000001 		MOVES	0,1			;*MOVES SHOULD FUNCTION AS A NO-OP
 32893	050674	312 00 0 00 070254 		CAME	0,[-1,,-1]		;PASS IF C(AC) WAS NOT MODIFIED
 32894						STOP^
 32895	050675	254 04 0 00 050676 		HALT	.+1		;TEST FAILED IF PROGRAM HALTS HERE
 32896	050676	324 00 0 00 050677 		JUMPA	.+1		;IF TEST FAILS, CHANGE THIS INSTRUCTION (JUMPA .+1) TO
 32897									;JUMPA X (X IS THE ADDRESS OF THE FIRST INSTRUCTION
 32898									;IN THE SUBTEST) TO LOOP ON ERROR^
 32899	050677	312 01 0 00 070332 		CAME	1,[707070,,707070]	;PASS IF C(E) WAS NOT MODIFIED
 32900						STOP^
 32901	050700	254 04 0 00 050701 		HALT	.+1		;TEST FAILED IF PROGRAM HALTS HERE
 32902	050701	324 00 0 00 050702 		JUMPA	.+1		;IF TEST FAILS, CHANGE THIS INSTRUCTION (JUMPA .+1) TO
 32903									;JUMPA X (X IS THE ADDRESS OF THE FIRST INSTRUCTION
 32904									;IN THE SUBTEST) TO LOOP ON ERROR^
 32905
 32906					;**********
 32907
 32908					;THIS TEST VERIFIES THAT MOVSI LOADS THE WORD E,0 INTO THE AC.
 32909					;IN THIS CASE, C(AC)=707070,,707070 AND E=0,,-1.
 32910					;HENCE, THE RESULT IN THE AC SHOULD BE -1,,0.
 32911					;THE AC IS CHECKED FOR -1,,0.  IF C(AC)=-1,,0, THIS TEST PASSES.
 32912
 32913	050702	200 01 0 00 070332 	C50200:	MOVE	1,[707070,,707070]	;PRELOAD AC WITH 707070,,707070
 32914	050703	205 01 0 00 777777 		MOVSI	1,-1			;*MOVSI SHOULD PLACE -1,,0 INTO THE AC
 32915	050704	312 01 0 00 070331 		CAME	1,[-1,,0]		;PASS IF C(AC)=1,,0
 32916						STOP^
 32917	050705	254 04 0 00 050706 		HALT	.+1		;TEST FAILED IF PROGRAM HALTS HERE
 32918	050706	324 00 0 00 050707 		JUMPA	.+1		;IF TEST FAILS, CHANGE THIS INSTRUCTION (JUMPA .+1) TO
 32919									;JUMPA X (X IS THE ADDRESS OF THE FIRST INSTRUCTION
 32920									;IN THE SUBTEST) TO LOOP ON ERROR^
 32921
 32922					;**********
DFKAA PDP-10 KL10 BASIC INSTRUCTION DIAGNOSTIC (1) VER 0,2	MACRO %53B(1254)-4 11:50 11-Nov-24 Page 21
DFKAA5	MAC	13-Jan-89 10:22		TEST OF MSCL FWT INSTRUCTIONS

 32923					;THIS TEST VERIFIES THAT MOVNM PLACES THE NEGATIVE OF C(AC)
 32924					;INTO E.  IN THIS CASE, C(AC)=-1,,-1 AND C(E)=-1,,-3.
 32925					;HENCE, THE RESULT IN THE AC SHOULD BE -1,,-1 AND THE RESULT
 32926					;IN E SHOULD BE 0,,1
 32927
 32928	050707	474 01 0 00 000000 	C50300:	SETO	1,			;PRELOAD AC WITH -1,,-1
 32929	050710	200 02 0 00 070334 		MOVE	2,[-1,,-3]		;PRELOAD E WITH -1,,-3
 32930	050711	212 01 0 00 000002 		MOVNM	1,2			;*MOVNM SHOULD PLACE 0,,1 INTO E
 32931										;AND NOT AFFTECT C(AC)
 32932	050712	312 01 0 00 070254 		CAME	1,[-1]			;PASS IF C(AC)=-1,,-1
 32933						STOP^
 32934	050713	254 04 0 00 050714 		HALT	.+1		;TEST FAILED IF PROGRAM HALTS HERE
 32935	050714	324 00 0 00 050715 		JUMPA	.+1		;IF TEST FAILS, CHANGE THIS INSTRUCTION (JUMPA .+1) TO
 32936									;JUMPA X (X IS THE ADDRESS OF THE FIRST INSTRUCTION
 32937									;IN THE SUBTEST) TO LOOP ON ERROR^
 32938	050715	302 02 0 00 000001 		CAIE	2,1			;PASS IF C(E)=0,,1
 32939						STOP^
 32940	050716	254 04 0 00 050717 		HALT	.+1		;TEST FAILED IF PROGRAM HALTS HERE
 32941	050717	324 00 0 00 050720 		JUMPA	.+1		;IF TEST FAILS, CHANGE THIS INSTRUCTION (JUMPA .+1) TO
 32942									;JUMPA X (X IS THE ADDRESS OF THE FIRST INSTRUCTION
 32943									;IN THE SUBTEST) TO LOOP ON ERROR^
 32944
 32945					;**********
 32946
 32947					;THIS TEST VERIFIES THAT MOVNM PLACES THE NEGATIVE OF C(AC)
 32948					;INTO E.  IN THIS CASE, C(AC)=-1,,-1 AND C(E)=-1,,-3.
 32949					;HENCE, THE RESULT IN THE AC SHOULD BE -1,,-1 AND THE RESULT
 32950					;IN E SHOULD BE 0,,1
 32951
 32952	050720	474 01 0 00 000000 	C50301:	SETO	1,			;PRELOAD AC WITH -1,,-1
 32953	050721	200 02 0 00 070334 		MOVE	2,[-1,,-3]		;PRELOAD E WITH -1,,-3
 32954	050722	202 02 0 00 050734 		MOVEM	2,E50301
 32955	050723	212 01 0 00 050734 		MOVNM	1,E50301		;*MOVNM SHOULD PLACE 0,,1 INTO E
 32956										;AND NOT AFFTECT C(AC)
 32957	050724	312 01 0 00 070254 		CAME	1,[-1]			;PASS IF C(AC)=-1,,-1
 32958						STOP^
 32959	050725	254 04 0 00 050726 		HALT	.+1		;TEST FAILED IF PROGRAM HALTS HERE
 32960	050726	324 00 0 00 050727 		JUMPA	.+1		;IF TEST FAILS, CHANGE THIS INSTRUCTION (JUMPA .+1) TO
 32961									;JUMPA X (X IS THE ADDRESS OF THE FIRST INSTRUCTION
 32962									;IN THE SUBTEST) TO LOOP ON ERROR^
 32963	050727	200 02 0 00 050734 		MOVE	2,E50301
 32964	050730	302 02 0 00 000001 		CAIE	2,1			;PASS IF C(E)=0,,1
 32965						STOP^
 32966	050731	254 04 0 00 050732 		HALT	.+1		;TEST FAILED IF PROGRAM HALTS HERE
 32967	050732	324 00 0 00 050733 		JUMPA	.+1		;IF TEST FAILS, CHANGE THIS INSTRUCTION (JUMPA .+1) TO
 32968									;JUMPA X (X IS THE ADDRESS OF THE FIRST INSTRUCTION
 32969									;IN THE SUBTEST) TO LOOP ON ERROR^
 32970
 32971	050733	334 00 0 00 000000 		SKIPA				;GO TO NEXT TEST
 32972	050734	000000	000000		E50301:	0				;TESTED MEMORY LOCATION
 32973
 32974					;**********
DFKAA PDP-10 KL10 BASIC INSTRUCTION DIAGNOSTIC (1) VER 0,2	MACRO %53B(1254)-4 11:50 11-Nov-24 Page 22
DFKAA5	MAC	13-Jan-89 10:22		TEST OF MSCL FWT INSTRUCTIONS

 32975					;THIS TEST VERIFIES THAT MOVNS PLACES THE NEGATIVE OF C(E) INTO E
 32976					;AND INTO THE AC IF THE AC IS NON-ZERO.  IN THIS CASE, AC=0,
 32977					;C(AC)=0 AND C(E)=0,,1
 32978					;HENCE, THE RESULT IN THE AC SHOULD BE 0
 32979					;AND THE RESULT IN E SHOULD BE -1,,-1
 32980
 32981	050735	400 00 0 00 000000 	C50400:	SETZ				;CLEAR AC
 32982	050736	201 02 0 00 000001 		MOVEI	2,1			;PRELOAD E WITH 0,,1
 32983	050737	213 00 0 00 000002 		MOVNS	0,2			;*MOVNS SHOULD PLACE -1,,-1 INTO E
 32984										;AND SHOULD NOT AFFECT THE AC
 32985	050740	332 00 0 00 000000 		SKIPE				;PASS IF THE AC IS UNALTERED
 32986						STOP^
 32987	050741	254 04 0 00 050742 		HALT	.+1		;TEST FAILED IF PROGRAM HALTS HERE
 32988	050742	324 00 0 00 050743 		JUMPA	.+1		;IF TEST FAILS, CHANGE THIS INSTRUCTION (JUMPA .+1) TO
 32989									;JUMPA X (X IS THE ADDRESS OF THE FIRST INSTRUCTION
 32990									;IN THE SUBTEST) TO LOOP ON ERROR^
 32991	050743	312 02 0 00 070254 		CAME	2,[-1]			;PASS IF C(E)=-1,,-1
 32992						STOP^
 32993	050744	254 04 0 00 050745 		HALT	.+1		;TEST FAILED IF PROGRAM HALTS HERE
 32994	050745	324 00 0 00 050746 		JUMPA	.+1		;IF TEST FAILS, CHANGE THIS INSTRUCTION (JUMPA .+1) TO
 32995									;JUMPA X (X IS THE ADDRESS OF THE FIRST INSTRUCTION
 32996									;IN THE SUBTEST) TO LOOP ON ERROR^
 32997
 32998					;**********
DFKAA PDP-10 KL10 BASIC INSTRUCTION DIAGNOSTIC (1) VER 0,2	MACRO %53B(1254)-4 11:50 11-Nov-24 Page 23
DFKAA5	MAC	13-Jan-89 10:22		TEST OF MSCL FWT INSTRUCTIONS

 32999					;THIS TEST VERIFIES THAT MOVNS PLACES THE NEGATIVE OF C(E) INTO E
 33000					;AND INTO THE AC IF THE AC IS NON-ZO.  IN THIS CASE, AC=0,
 33001					;C(AC)=0 AND C(E)=0,,1
 33002					;HENCE, THE RESULT IN THE AC SHOULD BE 0
 33003					;AND THE RESULT IN E SHOULD BE -1,,-1
 33004
 33005	050746	400 00 0 00 000000 	C50401:	SETZ				;CLEAR AC
 33006	050747	201 02 0 00 000001 		MOVEI	2,1			;PRELOAD E WITH 0,,1
 33007	050750	202 02 0 00 050762 		MOVEM	2,E50401
 33008	050751	213 00 0 00 050762 		MOVNS	0,E50401		;*MOVNS SHOULD PLACE -1,,-1 INTO E
 33009										;AND SHOULD NOT AFFECT THE AC
 33010	050752	332 00 0 00 000000 		SKIPE				;PASS IF THE AC IS UNALTERED
 33011						STOP^
 33012	050753	254 04 0 00 050754 		HALT	.+1		;TEST FAILED IF PROGRAM HALTS HERE
 33013	050754	324 00 0 00 050755 		JUMPA	.+1		;IF TEST FAILS, CHANGE THIS INSTRUCTION (JUMPA .+1) TO
 33014									;JUMPA X (X IS THE ADDRESS OF THE FIRST INSTRUCTION
 33015									;IN THE SUBTEST) TO LOOP ON ERROR^
 33016	050755	200 02 0 00 050762 		MOVE	2,E50401
 33017	050756	312 02 0 00 070254 		CAME	2,[-1]			;PASS IF C(E)=-1,,-1
 33018						STOP^
 33019	050757	254 04 0 00 050760 		HALT	.+1		;TEST FAILED IF PROGRAM HALTS HERE
 33020	050760	324 00 0 00 050761 		JUMPA	.+1		;IF TEST FAILS, CHANGE THIS INSTRUCTION (JUMPA .+1) TO
 33021									;JUMPA X (X IS THE ADDRESS OF THE FIRST INSTRUCTION
 33022									;IN THE SUBTEST) TO LOOP ON ERROR^
 33023
 33024	050761	334 00 0 00 000000 		SKIPA				;GO TO NEXT TEST
 33025	050762	000000	000000		E50401:	0				;TESTED MEMORY LOCATION
 33026
 33027					;**********
DFKAA PDP-10 KL10 BASIC INSTRUCTION DIAGNOSTIC (1) VER 0,2	MACRO %53B(1254)-4 11:50 11-Nov-24 Page 24
DFKAA5	MAC	13-Jan-89 10:22		TEST OF MSCL FWT INSTRUCTIONS

 33028					;THIS TEST VERIFIES THAT MOVNS PLACES THE NEGATIVE OF C(E) INTO E
 33029					;AND INTO THE AC IF THE AC IS NON-ZERO.  IN THIS CASE, AC=1,
 33030					;C(AC=0 AND C(E)=3
 33031					;HENCE, THE RESULT IN THE AC SHOULD BE -1,,3
 33032					;AND THE RESULT IN E SHOULD BE -1,,3.
 33033
 33034	050763	400 01 0 00 000000 	C50410:	SETZ	1,			;CLEAR AC
 33035	050764	201 02 0 00 000003 		MOVEI	2,3			;PRELOAD WITH 0,,3
 33036	050765	213 01 0 00 000002 		MOVNS	1,2			;*MOVNS SHOULD PLACE -1,,-3 INTO E
 33037										;AND -1,,-3 INTO THE AC
 33038	050766	312 01 0 00 070334 		CAME	1,[-1,,-3]		;PASS IF C(AC)=-1,,-3
 33039						STOP^
 33040	050767	254 04 0 00 050770 		HALT	.+1		;TEST FAILED IF PROGRAM HALTS HERE
 33041	050770	324 00 0 00 050771 		JUMPA	.+1		;IF TEST FAILS, CHANGE THIS INSTRUCTION (JUMPA .+1) TO
 33042									;JUMPA X (X IS THE ADDRESS OF THE FIRST INSTRUCTION
 33043									;IN THE SUBTEST) TO LOOP ON ERROR^
 33044	050771	312 02 0 00 070334 		CAME	2,[-1,,-3]		;PASS IF C(E)=-1,,-3
 33045						STOP^
 33046	050772	254 04 0 00 050773 		HALT	.+1		;TEST FAILED IF PROGRAM HALTS HERE
 33047	050773	324 00 0 00 050774 		JUMPA	.+1		;IF TEST FAILS, CHANGE THIS INSTRUCTION (JUMPA .+1) TO
 33048									;JUMPA X (X IS THE ADDRESS OF THE FIRST INSTRUCTION
 33049									;IN THE SUBTEST) TO LOOP ON ERROR^
 33050
 33051					;**********
 33052
 33053					;THIS TEST VERIFIES THAT MOVMI MOVES THE WORD 0,,E INTO THE AC.
 33054					;IN THIS CASE, C(AC)=0 AND E=0,,-2.  HENCE, THE RESULT IN THE AC
 33055					;SHOULD BE 0,,-2.
 33056
 33057	050774	400 01 0 00 000000 	C50500:	SETZ	1,			;CLEAR AC
 33058	050775	215 01 0 00 777776 		MOVMI	1,-2			;*MOVMI SHOULD PLACE 0,,-2 INTO AC
 33059	050776	302 01 0 00 777776 		CAIE	1,-2			;PASS IF C(AC)=0,,-2
 33060						STOP^
 33061	050777	254 04 0 00 051000 		HALT	.+1		;TEST FAILED IF PROGRAM HALTS HERE
 33062	051000	324 00 0 00 051001 		JUMPA	.+1		;IF TEST FAILS, CHANGE THIS INSTRUCTION (JUMPA .+1) TO
 33063									;JUMPA X (X IS THE ADDRESS OF THE FIRST INSTRUCTION
 33064									;IN THE SUBTEST) TO LOOP ON ERROR^
 33065
 33066					;**********
DFKAA PDP-10 KL10 BASIC INSTRUCTION DIAGNOSTIC (1) VER 0,2	MACRO %53B(1254)-4 11:50 11-Nov-24 Page 25
DFKAA5	MAC	13-Jan-89 10:22		TEST OF MSCL FWT INSTRUCTIONS

 33067					;THIS TEST VERIFIES THAT MOVM MOVES THE MAGNITUDE OF C(E) NTO THE AC.
 33068					;IN THIS CASE, C(AC)=0 AND C(E)=-1,,-2.  HENCE, THE RESULT IN THE AC
 33069					;SHOULD BE 0,,2.
 33070
 33071	051001	400 01 0 00 000000 	C50501:	SETZ	1,			;CLEAR AC
 33072	051002	200 03 0 00 070333 		MOVE	3,[-2]			;PRELOAD E WITH -1,,-2
 33073	051003	214 01 0 00 000003 		MOVM	1,3			;*MOVM SHOULD PLACE 0,,2 INTO AC
 33074	051004	302 01 0 00 000002 		CAIE	1,2			;PASS IF C(AC)=0,,2
 33075						STOP^
 33076	051005	254 04 0 00 051006 		HALT	.+1		;TEST FAILED IF PROGRAM HALTS HERE
 33077	051006	324 00 0 00 051007 		JUMPA	.+1		;IF TEST FAILS, CHANGE THIS INSTRUCTION (JUMPA .+1) TO
 33078									;JUMPA X (X IS THE ADDRESS OF THE FIRST INSTRUCTION
 33079									;IN THE SUBTEST) TO LOOP ON ERROR^
 33080
 33081					;**********
DFKAA PDP-10 KL10 BASIC INSTRUCTION DIAGNOSTIC (1) VER 0,2	MACRO %53B(1254)-4 11:50 11-Nov-24 Page 26
DFKAA5	MAC	13-Jan-89 10:22		TEST OF MSCL FWT INSTRUCTIONS

 33082					;THIS TEST VERIFIES THAT MOVMM PLACES THE MAGNITUDE OF C(AC)
 33083					;INTO E.  IN THIS CASE, C(AC)=-1,,-2 AND C(E)=0.  HENCE, THE
 33084					;RESULT IN E SHOULD BE 0,,2 AND C(AC) SHOULD REMAIN UNCHANGED.
 33085
 33086	051007	200 01 0 00 070333 	C50600:	MOVE	1,[-1,,-2]		;PRELOAD AC WITH -1,,-2
 33087	051010	400 02 0 00 000000 		SETZ	2,			;CLEAR E
 33088	051011	216 01 0 00 000002 		MOVMM	1,2			;*MOVMM SHOULD PLACE 0,,2 INTO E
 33089										;AND SHOULD NOT CHANGE C(AC)
 33090	051012	312 01 0 00 070333 		CAME	1,[-1,,-2]		;PASS IF C(AC) IS NOT ALTERED
 33091						STOP^
 33092	051013	254 04 0 00 051014 		HALT	.+1		;TEST FAILED IF PROGRAM HALTS HERE
 33093	051014	324 00 0 00 051015 		JUMPA	.+1		;IF TEST FAILS, CHANGE THIS INSTRUCTION (JUMPA .+1) TO
 33094									;JUMPA X (X IS THE ADDRESS OF THE FIRST INSTRUCTION
 33095									;IN THE SUBTEST) TO LOOP ON ERROR^
 33096	051015	302 02 0 00 000002 		CAIE	2,2			;PASS IF C(E)=0,,2
 33097						STOP^
 33098	051016	254 04 0 00 051017 		HALT	.+1		;TEST FAILED IF PROGRAM HALTS HERE
 33099	051017	324 00 0 00 051020 		JUMPA	.+1		;IF TEST FAILS, CHANGE THIS INSTRUCTION (JUMPA .+1) TO
 33100									;JUMPA X (X IS THE ADDRESS OF THE FIRST INSTRUCTION
 33101									;IN THE SUBTEST) TO LOOP ON ERROR^
 33102
 33103					;**********
 33104
 33105					;THIS TEST VERIFIES THAT MONMS PLACES THE MAGNITUDE OF C(E) INTO E
 33106					;AND INTO THE AC IF THE AC IS NON-ZERO.  IN THIS CASE, AC=0, C(AC)=0
 33107					;AND C(E)=-1,,-2.
 33108					;HENCE, THE RESULT IN THE AC SHOULD BE 0 AND THE RESULT IN
 33109					;E SHOULD BE 0,,2.
 33110
 33111	051020	400 00 0 00 000000 	C50700:	SETZ			;CLEAR AC
 33112	051021	200 02 0 00 070333 		MOVE	2,[-1,,-2]		;PRELOAD E WITH -1,,-1
 33113	051022	217 00 0 00 000002 		MOVMS	0,2			;*MOVMS	SHOULD PLACE 0,,1 INTO E
 33114										;AND SHOULD NOT CHANGE C(AC)
 33115	051023	332 00 0 00 000000 		SKIPE				;PASS IF C(AC) IS UNALTERED
 33116						STOP^
 33117	051024	254 04 0 00 051025 		HALT	.+1		;TEST FAILED IF PROGRAM HALTS HERE
 33118	051025	324 00 0 00 051026 		JUMPA	.+1		;IF TEST FAILS, CHANGE THIS INSTRUCTION (JUMPA .+1) TO
 33119									;JUMPA X (X IS THE ADDRESS OF THE FIRST INSTRUCTION
 33120									;IN THE SUBTEST) TO LOOP ON ERROR^
 33121	051026	302 02 0 00 000002 		CAIE	2,2			;PASS IF C(E)=0,,2
 33122						STOP^
 33123	051027	254 04 0 00 051030 		HALT	.+1		;TEST FAILED IF PROGRAM HALTS HERE
 33124	051030	324 00 0 00 051031 		JUMPA	.+1		;IF TEST FAILS, CHANGE THIS INSTRUCTION (JUMPA .+1) TO
 33125									;JUMPA X (X IS THE ADDRESS OF THE FIRST INSTRUCTION
 33126									;IN THE SUBTEST) TO LOOP ON ERROR^
 33127
 33128					;**********
DFKAA PDP-10 KL10 BASIC INSTRUCTION DIAGNOSTIC (1) VER 0,2	MACRO %53B(1254)-4 11:50 11-Nov-24 Page 27
DFKAA5	MAC	13-Jan-89 10:22		TEST OF MSCL FWT INSTRUCTIONS

 33129					;THIS TEST VERIFIES THAT MOVMS PLACES THE MAGNITUDE OF C(E) INTO E
 33130					;AND INTO THE AC IF THE AC IS NON-ZERO.  IN THIS CASE, AC=1, C(AC)=-1,,-1
 33131					;AND C(E)=-1,,-2.
 33132					;HENCE, THE RESULT IN THE AC SHOULD BE 0,,2 AND THE RESULT
 33133					;IN E SHOULD BE 0,,2.
 33134
 33135	051031	474 01 0 00 000000 	C50710:	SETO	1,			;PRELOAD AC WITH -1,,-1
 33136	051032	200 02 0 00 070333 		MOVE	2,[-1,,-2]		;PRELOAD E WITH -1,,-2
 33137	051033	217 01 0 00 000002 		MOVMS	1,2			;*MOVMS SHOULD PLACE 0,,2 INTO E
 33138										;AND SHOULD PLACE 0,,2 INTO THE AC
 33139	051034	302 01 0 00 000002 		CAIE	1,2			;PASS IF C(AC)=0,,2
 33140						STOP^
 33141	051035	254 04 0 00 051036 		HALT	.+1		;TEST FAILED IF PROGRAM HALTS HERE
 33142	051036	324 00 0 00 051037 		JUMPA	.+1		;IF TEST FAILS, CHANGE THIS INSTRUCTION (JUMPA .+1) TO
 33143									;JUMPA X (X IS THE ADDRESS OF THE FIRST INSTRUCTION
 33144									;IN THE SUBTEST) TO LOOP ON ERROR^
 33145	051037	302 02 0 00 000002 		CAIE	2,2			;PASS IF C(E)=0,,2
 33146						STOP^
 33147	051040	254 04 0 00 051041 		HALT	.+1		;TEST FAILED IF PROGRAM HALTS HERE
 33148	051041	324 00 0 00 051042 		JUMPA	.+1		;IF TEST FAILS, CHANGE THIS INSTRUCTION (JUMPA .+1) TO
 33149									;JUMPA X (X IS THE ADDRESS OF THE FIRST INSTRUCTION
 33150									;IN THE SUBTEST) TO LOOP ON ERROR^
 33151
 33152					;**********
DFKAA PDP-10 KL10 BASIC INSTRUCTION DIAGNOSTIC (1) VER 0,2	MACRO %53B(1254)-4 11:50 11-Nov-24 Page 28
DFKAA5	MAC	13-Jan-89 10:22		TEST OF MSCL ADD/SUB INSTRUCTIONS

 33153					SUBTTL	TEST OF MSCL ADD/SUB INSTRUCTIONS
 33154
 33155					;**********
 33156
 33157					;THIS TEST VERIFIES THAT SUBI SUBTRACTS THE WORD 0,,E FROM C(AC)
 33158					;AND PLACES THE RESULT INTO THE AC.  IN THIS CASE, C(AC)=70 AND
 33159					;E=0,,2.  HENCE, THE RESULT IN THE AC SHOULD BE 66.
 33160
 33161	051042	201 01 0 00 000070 	C51000:	MOVEI	1,70			;PRELOAD AC WITH 70
 33162	051043	275 01 0 00 000002 		SUBI	1,2			;*SUBI SHOULD PLACE 66 INTO AC
 33163	051044	302 01 0 00 000066 		CAIE	1,66			;PASS IF C(AC)=66
 33164						STOP^
 33165	051045	254 04 0 00 051046 		HALT	.+1		;TEST FAILED IF PROGRAM HALTS HERE
 33166	051046	324 00 0 00 051047 		JUMPA	.+1		;IF TEST FAILS, CHANGE THIS INSTRUCTION (JUMPA .+1) TO
 33167									;JUMPA X (X IS THE ADDRESS OF THE FIRST INSTRUCTION
 33168									;IN THE SUBTEST) TO LOOP ON ERROR^
 33169
 33170					;**********
 33171
 33172					;THIS TEST VERIFIES THAT SUBM SUBTRACTS C(E) FROM C(AC) AND
 33173					;PLACES THE RESULT INTO E.  THE AC IS UNAFFECTED.  IN THIS CASE,
 33174					;C(AC)=100 AND C(E)=37.  HENCE, THE RESULTS IN AC AND
 33175					;E SHOULD BE 0,,100 AND 0,,41 RESPECTIVELY.
 33176
 33177	051047	201 01 0 00 000100 	C51100:	MOVEI	1,100			;PRELOAD AC WITH 0,,100
 33178	051050	201 02 0 00 000037 		MOVEI	2,37			;PRELOAD E WITH 0,,37
 33179	051051	276 01 0 00 000002 		SUBM	1,2			;*SUBM SHOULD PLACE
 33180										;0,,41 INTO E AND NOT CHANGE C(AC)
 33181	051052	302 01 0 00 000100 		CAIE	1,100			;PASS IF C(AC) IS UNCHANGED
 33182						STOP^
 33183	051053	254 04 0 00 051054 		HALT	.+1		;TEST FAILED IF PROGRAM HALTS HERE
 33184	051054	324 00 0 00 051055 		JUMPA	.+1		;IF TEST FAILS, CHANGE THIS INSTRUCTION (JUMPA .+1) TO
 33185									;JUMPA X (X IS THE ADDRESS OF THE FIRST INSTRUCTION
 33186									;IN THE SUBTEST) TO LOOP ON ERROR^
 33187	051055	302 02 0 00 000041 		CAIE	2,41			;PASS IF C(E)=0,,41
 33188						STOP^
 33189	051056	254 04 0 00 051057 		HALT	.+1		;TEST FAILED IF PROGRAM HALTS HERE
 33190	051057	324 00 0 00 051060 		JUMPA	.+1		;IF TEST FAILS, CHANGE THIS INSTRUCTION (JUMPA .+1) TO
 33191									;JUMPA X (X IS THE ADDRESS OF THE FIRST INSTRUCTION
 33192									;IN THE SUBTEST) TO LOOP ON ERROR^
 33193
 33194					;**********
DFKAA PDP-10 KL10 BASIC INSTRUCTION DIAGNOSTIC (1) VER 0,2	MACRO %53B(1254)-4 11:50 11-Nov-24 Page 29
DFKAA5	MAC	13-Jan-89 10:22		TEST OF MSCL ADD/SUB INSTRUCTIONS

 33195					;THIS TEST VERIFIES THAT SUBM SUBTRACTS C(E) FROM C(AC) AND
 33196					;PLACES THE RESULT INTO E.  THE AC IS UNAFFECTED.  IN THIS CASE,
 33197					;C(AC)=100 AND C(E)=37.  HENCE, THE RESULTS IN AC AND
 33198					;E SHOULD BE 0,,100 AND 0,,41 RESPECTIVELY.
 33199
 33200	051060	201 01 0 00 000100 	C51101:	MOVEI	1,100			;PRELOAD AC WITH 0,,100
 33201	051061	201 02 0 00 000037 		MOVEI	2,37			;PRELOAD E WITH 0,,37
 33202	051062	202 02 0 00 051074 		MOVEM	2,E51101
 33203	051063	276 01 0 00 051074 		SUBM	1,E51101		;*SUBM SHOULD PLACE
 33204										;0,,41 INTO E AND NOT CHANGE C(AC)
 33205	051064	302 01 0 00 000100 		CAIE	1,100			;PASS IF C(AC) IS UNCHANGED
 33206						STOP^
 33207	051065	254 04 0 00 051066 		HALT	.+1		;TEST FAILED IF PROGRAM HALTS HERE
 33208	051066	324 00 0 00 051067 		JUMPA	.+1		;IF TEST FAILS, CHANGE THIS INSTRUCTION (JUMPA .+1) TO
 33209									;JUMPA X (X IS THE ADDRESS OF THE FIRST INSTRUCTION
 33210									;IN THE SUBTEST) TO LOOP ON ERROR^
 33211	051067	200 02 0 00 051074 		MOVE	2,E51101
 33212	051070	302 02 0 00 000041 		CAIE	2,41			;PASS IF C(E)=0,,41
 33213						STOP^
 33214	051071	254 04 0 00 051072 		HALT	.+1		;TEST FAILED IF PROGRAM HALTS HERE
 33215	051072	324 00 0 00 051073 		JUMPA	.+1		;IF TEST FAILS, CHANGE THIS INSTRUCTION (JUMPA .+1) TO
 33216									;JUMPA X (X IS THE ADDRESS OF THE FIRST INSTRUCTION
 33217									;IN THE SUBTEST) TO LOOP ON ERROR^
 33218
 33219	051073	334 00 0 00 000000 		SKIPA				;GO TO NEXT TEST
 33220	051074	000000	000000		E51101:	0				;TEST WORD MEMORY
 33221
 33222					;**********
DFKAA PDP-10 KL10 BASIC INSTRUCTION DIAGNOSTIC (1) VER 0,2	MACRO %53B(1254)-4 11:50 11-Nov-24 Page 30
DFKAA5	MAC	13-Jan-89 10:22		TEST OF MSCL ADD/SUB INSTRUCTIONS

 33223					;THIS TEST VERIFIES THAT SUBB SUBTRACTS C(E) FROM C(AC) AND
 33224					;PLACES THE RESULT INTO BOTH AC AND E.  IN THIS CASE,
 33225					;C(AC)=0,,100 AND C(E)=0,,37.  HENCE, THE RESULT IN BOTH
 33226					;AC AND E SHOULD BE 0,,41.
 33227
 33228	051075	201 01 0 00 000100 	C51200:	MOVEI	1,100			;PRELOAD AC WITH 0,,100
 33229	051076	201 02 0 00 000037 		MOVEI	2,37			;PRELOAD E WITH O,,37
 33230	051077	277 01 0 00 000002 		SUBB	1,2			;*SUBB SHOULD PLACE 0,,41 INTO BOTH AC  AND E
 33231	051100	302 01 0 00 000041 		CAIE	1,41			;PASS IF C(AC)=0,,41
 33232						STOP^
 33233	051101	254 04 0 00 051102 		HALT	.+1		;TEST FAILED IF PROGRAM HALTS HERE
 33234	051102	324 00 0 00 051103 		JUMPA	.+1		;IF TEST FAILS, CHANGE THIS INSTRUCTION (JUMPA .+1) TO
 33235									;JUMPA X (X IS THE ADDRESS OF THE FIRST INSTRUCTION
 33236									;IN THE SUBTEST) TO LOOP ON ERROR^
 33237	051103	302 02 0 00 000041 		CAIE	2,41			;PASS IF C(E)=0,,41
 33238						STOP^
 33239	051104	254 04 0 00 051105 		HALT	.+1		;TEST FAILED IF PROGRAM HALTS HERE
 33240	051105	324 00 0 00 051106 		JUMPA	.+1		;IF TEST FAILS, CHANGE THIS INSTRUCTION (JUMPA .+1) TO
 33241									;JUMPA X (X IS THE ADDRESS OF THE FIRST INSTRUCTION
 33242									;IN THE SUBTEST) TO LOOP ON ERROR^
 33243
 33244					;**********
 33245
 33246					;THIS TEST VERIFIES THAT SUBB SUBTRACTS C(E) FROM C(AC) AND
 33247					;PLACES THE RESULT INTO BOTH AC AND E.  IN THIS CASE,
 33248					;C(AC)=0,,100 AND C(E)=0,,37.  HENCE, THE RESULT IN BOTH
 33249					;AC AND E SHOULD BE 0,,41.
 33250
 33251	051106	201 01 0 00 000100 	C51201:	MOVEI	1,100			;PRELOAD AC WITH 0,,100
 33252	051107	201 02 0 00 000037 		MOVEI	2,37			;PRELOAD E WITH O,,37
 33253	051110	202 02 0 00 051122 		MOVEM	2,E51201
 33254	051111	277 01 0 00 051122 		SUBB	1,E51201		;*SUBB SHOULD PLACE 0,,41 INTO BOTH AC  AND E
 33255	051112	302 01 0 00 000041 		CAIE	1,41			;PASS IF C(AC)=0,,41
 33256						STOP^
 33257	051113	254 04 0 00 051114 		HALT	.+1		;TEST FAILED IF PROGRAM HALTS HERE
 33258	051114	324 00 0 00 051115 		JUMPA	.+1		;IF TEST FAILS, CHANGE THIS INSTRUCTION (JUMPA .+1) TO
 33259									;JUMPA X (X IS THE ADDRESS OF THE FIRST INSTRUCTION
 33260									;IN THE SUBTEST) TO LOOP ON ERROR^
 33261	051115	200 02 0 00 051122 		MOVE	2,E51201
 33262	051116	302 02 0 00 000041 		CAIE	2,41			;PASS IF C(E)=0,,41
 33263						STOP^
 33264	051117	254 04 0 00 051120 		HALT	.+1		;TEST FAILED IF PROGRAM HALTS HERE
 33265	051120	324 00 0 00 051121 		JUMPA	.+1		;IF TEST FAILS, CHANGE THIS INSTRUCTION (JUMPA .+1) TO
 33266									;JUMPA X (X IS THE ADDRESS OF THE FIRST INSTRUCTION
 33267									;IN THE SUBTEST) TO LOOP ON ERROR^
 33268
 33269	051121	334 00 0 00 000000 		SKIPA				;GO TO NEXT TEST
 33270	051122	000000	000000		E51201:	0				;TEST WORD MEMORY
 33271
 33272					;**********
DFKAA PDP-10 KL10 BASIC INSTRUCTION DIAGNOSTIC (1) VER 0,2	MACRO %53B(1254)-4 11:50 11-Nov-24 Page 31
DFKAA5	MAC	13-Jan-89 10:22		TEST OF MSCL CAIX INSTRUCTIONS

 33273					SUBTTL	TEST OF MSCL CAIX INSTRUCTIONS
 33274
 33275					;**********
 33276
 33277					;THIS TEST VERIFIES THAT CAIL COMPARES C(AC) WITH E AND
 33278					;SKIPS THE NEXT INSTRUCTION IF C(AC) IS LESS THAN E.
 33279					;IN THIS CASE, C(AC)=0,,1 AND E=0,,2
 33280					;HENCE, CAIL SHOULD SKIP THE NEXT INSTRUCTION.
 33281					;IF CAIL SKIPS THE NEXT INSTRUCTION, THIS TEST PASSES
 33282
 33283	051123	201 01 0 00 000001 	C51300:	MOVEI	1,1			;PRELOAD AC WITH 0,,1
 33284	051124	301 01 0 00 000002 		CAIL	1,2			;*CAIL SHOULD SKIP THE NEXT INSTRUCTION
 33285						STOP^
 33286	051125	254 04 0 00 051126 		HALT	.+1		;TEST FAILED IF PROGRAM HALTS HERE
 33287	051126	324 00 0 00 051127 		JUMPA	.+1		;IF TEST FAILS, CHANGE THIS INSTRUCTION (JUMPA .+1) TO
 33288									;JUMPA X (X IS THE ADDRESS OF THE FIRST INSTRUCTION
 33289									;IN THE SUBTEST) TO LOOP ON ERROR^
 33290
 33291					;**********
 33292
 33293					;THIS TEST VERIFIES THAT CAIL COMPARES C(AC) WITH E AND
 33294					;SKIPS THE NEXT INSTRUCTION IF C(AC) IS LESS THAN E.
 33295					;IN THIS CASE, C(AC)=0,,2 AND E=0,,2.
 33296					;HENCE, CAIL SHOULD NOT SKIP THE NEXT INSTRUCTION.
 33297					;IF CAIL DOES NOT SKIP THE NEXT INSTRUCTION, THIS TEST PASSES.
 33298
 33299	051127	201 01 0 00 000002 	C51310:	MOVEI	1,2			;PRELOAD AC WITH 0,,2
 33300	051130	301 01 0 00 000002 		CAIL	1,2			;*CAIL SHOULD NOT SKIP THE NEXT INSTRUCTION
 33301	051131	334 00 0 00 000000 		SKIPA				;PASS IF CAIL DOES NOT SKIP
 33302						STOP^
 33303	051132	254 04 0 00 051133 		HALT	.+1		;TEST FAILED IF PROGRAM HALTS HERE
 33304	051133	324 00 0 00 051134 		JUMPA	.+1		;IF TEST FAILS, CHANGE THIS INSTRUCTION (JUMPA .+1) TO
 33305									;JUMPA X (X IS THE ADDRESS OF THE FIRST INSTRUCTION
 33306									;IN THE SUBTEST) TO LOOP ON ERROR^
 33307
 33308					;**********
DFKAA PDP-10 KL10 BASIC INSTRUCTION DIAGNOSTIC (1) VER 0,2	MACRO %53B(1254)-4 11:50 11-Nov-24 Page 32
DFKAA5	MAC	13-Jan-89 10:22		TEST OF MSCL CAIX INSTRUCTIONS

 33309					;THIS TEST VERIFIES THAT CAIL COMPARES C(AC) WITH E AND
 33310					;SKIPS THE NEXT INSTRUCTION IF C(AC) IS LESS THAN E
 33311					;IN THIS CASE, C(AC)=0,,3 AND E=0,,2
 33312					;HENCE, CAIL SHOULD NOT SKIP THE NEXT INSTRUCTION.
 33313					;IF CAIL DOES NOT SKIP THE NEXT INSTRUCTION, THIS TEST PASSES.
 33314
 33315	051134	201 01 0 00 000003 	C51320:	MOVEI	1,3			;PRELOAD AC WITH 0,,3
 33316	051135	301 01 0 00 000002 		CAIL	1,2			;*CAIL SHOULD SKIP THE NEXT INSTRUCTION
 33317	051136	334 00 0 00 000000 		SKIPA				;PASS IF CAIL DOES NOT SKIP
 33318						STOP^
 33319	051137	254 04 0 00 051140 		HALT	.+1		;TEST FAILED IF PROGRAM HALTS HERE
 33320	051140	324 00 0 00 051141 		JUMPA	.+1		;IF TEST FAILS, CHANGE THIS INSTRUCTION (JUMPA .+1) TO
 33321									;JUMPA X (X IS THE ADDRESS OF THE FIRST INSTRUCTION
 33322									;IN THE SUBTEST) TO LOOP ON ERROR^
 33323
 33324					;**********
 33325
 33326					;THIS TEST VERIFIES THAT CAILE COMPARES C(AC) WITH E AND
 33327					;SKIPS THE NEXT INSTRUCTION IF C(AC) IS LESS THAN OR EQUAL TO E
 33328					;IN THIS CASE, C(AC)=-1,,-1 AND E=0
 33329					;HENCE, CAILE SHOULD SKIP THE NEXT INSTRUCTION
 33330					;IF CAILE SKIPS THE NEXT INSTRUCTION, THE TEST PASSES
 33331
 33332	051141	474 01 0 00 000000 	C51400:	SETO	1,			;PRELOAD AC WITH -1,,-1
 33333	051142	303 01 0 00 000000 		CAILE	1,0			;*CAILE SHOULD SKIP THE NEXT INSTRUCTION
 33334						STOP^
 33335	051143	254 04 0 00 051144 		HALT	.+1		;TEST FAILED IF PROGRAM HALTS HERE
 33336	051144	324 00 0 00 051145 		JUMPA	.+1		;IF TEST FAILS, CHANGE THIS INSTRUCTION (JUMPA .+1) TO
 33337									;JUMPA X (X IS THE ADDRESS OF THE FIRST INSTRUCTION
 33338									;IN THE SUBTEST) TO LOOP ON ERROR^
 33339
 33340					;**********
DFKAA PDP-10 KL10 BASIC INSTRUCTION DIAGNOSTIC (1) VER 0,2	MACRO %53B(1254)-4 11:50 11-Nov-24 Page 33
DFKAA5	MAC	13-Jan-89 10:22		TEST OF MSCL CAIX INSTRUCTIONS

 33341					;THIS TEST VERIFIES THAT CAILE COMPARES C(AC) WITH E AND
 33342					;SKIPS THE NEXT INSTRUCTION IF C(AC) IS LESS THAN OR EQUAL TO E
 33343					;IN THIS CASE, C(AC)=0	AND E=0
 33344					;HENCE, CAILE SHOULD SKIP THE NEXT INSTRUCTION.
 33345					;IF CAILE SKIPS THE NEXT INSTRUCTION, THIS TEST PASSES.
 33346
 33347	051145	400 01 0 00 000000 	C51410:	SETZ	1,			;PRELOAD AC WITH 0
 33348	051146	303 01 0 00 000000 		CAILE	1,0			;*CAILE SHOULD SKIP THE NEXT INSTRUCTION.
 33349						STOP^
 33350	051147	254 04 0 00 051150 		HALT	.+1		;TEST FAILED IF PROGRAM HALTS HERE
 33351	051150	324 00 0 00 051151 		JUMPA	.+1		;IF TEST FAILS, CHANGE THIS INSTRUCTION (JUMPA .+1) TO
 33352									;JUMPA X (X IS THE ADDRESS OF THE FIRST INSTRUCTION
 33353									;IN THE SUBTEST) TO LOOP ON ERROR^
 33354
 33355					;**********
 33356
 33357					;THIS TEST VERIFIES THAT CAILE COMPARES C(AC) WITH E AND
 33358					;SKIPS THE NEXT INSTRUCTION IF C(AC) IS LESS THAN OR EQUAL TO E
 33359					;IN THIS CASE, C(AC)=0,,1 AND E=0
 33360					;HENCE, CAILE SHOULD NOT SKIP THE NEXT INSTRUCTION.
 33361					;IF CAILE DOES NOT SKIP THE NEXT INSTRUCTION, THE TEST PASSES
 33362
 33363	051151	201 01 0 00 000001 	C51420:	MOVEI	1,1			;PRELOAD AC WITH 0,,1
 33364	051152	303 01 0 00 000000 		CAILE	1,0			;*CAILE SHOULD NOT SKIP THE NEXT INSTRUCTION
 33365	051153	334 00 0 00 000000 		SKIPA				;PASS IF CAILE DOES NOT SKIP
 33366						STOP^
 33367	051154	254 04 0 00 051155 		HALT	.+1		;TEST FAILED IF PROGRAM HALTS HERE
 33368	051155	324 00 0 00 051156 		JUMPA	.+1		;IF TEST FAILS, CHANGE THIS INSTRUCTION (JUMPA .+1) TO
 33369									;JUMPA X (X IS THE ADDRESS OF THE FIRST INSTRUCTION
 33370									;IN THE SUBTEST) TO LOOP ON ERROR^
 33371
 33372					;**********
DFKAA PDP-10 KL10 BASIC INSTRUCTION DIAGNOSTIC (1) VER 0,2	MACRO %53B(1254)-4 11:50 11-Nov-24 Page 34
DFKAA5	MAC	13-Jan-89 10:22		TEST OF MSCL CAIX INSTRUCTIONS

 33373					;THIS TEST VERIFIES THAT CAIA COMPARES C(AC) WITH E AND ALWAYS
 33374					;SKIPS THE NEXT INSTRUCTION
 33375					;IN THIS CASE, C(AC)=-1,,-1 AND E=0
 33376					;HENCE, CAIA SHOULD SKIP THE NEXT INSTRUCTION
 33377					;IF CAIA SKIPS THE NEXT INSTRUCTION, THIS TEST PASSES
 33378
 33379	051156	474 01 0 00 000000 	C51500:	SETO	1,			;PRELOAD AC WITH -1,,-1
 33380	051157	304 01 0 00 000000 		CAIA	1,0			;*CAIA SHOULD SKIP THE NEXT INSTRUCTION
 33381						STOP^
 33382	051160	254 04 0 00 051161 		HALT	.+1		;TEST FAILED IF PROGRAM HALTS HERE
 33383	051161	324 00 0 00 051162 		JUMPA	.+1		;IF TEST FAILS, CHANGE THIS INSTRUCTION (JUMPA .+1) TO
 33384									;JUMPA X (X IS THE ADDRESS OF THE FIRST INSTRUCTION
 33385									;IN THE SUBTEST) TO LOOP ON ERROR^
 33386
 33387					;**********
 33388
 33389					;THIS TEST VERIFIES THAT CAIA COMPARES C(AC) WITH E AND ALWAYS
 33390					;SKIPS THE NEXT INSTRUCTION
 33391					;IN THIS CASE, C(AC)=0 AND E=0
 33392					;HENCE, CAIA SHOULD SKIP THE NEXT INSTRUCTION.
 33393					;IF CAIA SKIPS THE NEXT INSTRUCTION, THIS TEST PASSES
 33394
 33395	051162	400 01 0 00 000000 	C51510:	SETZ	1,			;PRELOAD AC WITH 0
 33396	051163	304 01 0 00 000000 		CAIA	1,0			;*CAIA SHOULD SKIP THE NEXT INSTRUCTION
 33397						STOP^
 33398	051164	254 04 0 00 051165 		HALT	.+1		;TEST FAILED IF PROGRAM HALTS HERE
 33399	051165	324 00 0 00 051166 		JUMPA	.+1		;IF TEST FAILS, CHANGE THIS INSTRUCTION (JUMPA .+1) TO
 33400									;JUMPA X (X IS THE ADDRESS OF THE FIRST INSTRUCTION
 33401									;IN THE SUBTEST) TO LOOP ON ERROR^
 33402
 33403					;**********
DFKAA PDP-10 KL10 BASIC INSTRUCTION DIAGNOSTIC (1) VER 0,2	MACRO %53B(1254)-4 11:50 11-Nov-24 Page 35
DFKAA5	MAC	13-Jan-89 10:22		TEST OF MSCL CAIX INSTRUCTIONS

 33404					;THIS TEST VERIFIES THAT CAIA COMPARES C(AC) WITH E AND ALWAYS
 33405					;SKIPS THE NEXT INSTRUCTION
 33406					;IN THIS CASE, C(AC)=0,,1 AND E=0
 33407					;HENCE, CAIA SHOULD SKIP THE NEXT INSTRUCTION.
 33408					;IF CAIA SKIPS THE NEXT INSTRUCTION, THIS TEST PASSES.
 33409
 33410	051166	201 01 0 00 000001 	C51520:	MOVEI	1,1			;PRELOAD AC WITH 0,,1
 33411	051167	304 01 0 00 000000 		CAIA	1,0			;*CAIA SHOULD SKIP THE NEXT INSTRUCTION
 33412						STOP^
 33413	051170	254 04 0 00 051171 		HALT	.+1		;TEST FAILED IF PROGRAM HALTS HERE
 33414	051171	324 00 0 00 051172 		JUMPA	.+1		;IF TEST FAILS, CHANGE THIS INSTRUCTION (JUMPA .+1) TO
 33415									;JUMPA X (X IS THE ADDRESS OF THE FIRST INSTRUCTION
 33416									;IN THE SUBTEST) TO LOOP ON ERROR^
 33417
 33418					;**********
 33419
 33420					;THIS TEST VERIFIES THAT CAIGE COMPARES C(AC) WITH E AND
 33421					;SKIPS THE NEXT INSTRUCTION IF C(AC) IS GREATER THAN OR EQUAL TO E.
 33422					;IN THIS CASE, C(AC)=0,,5 AND E=0,,6
 33423					;HENCE, CAIGE SHOULD NOT SKIP THE NEXT INSTRUCTION.
 33424					;IF CAIGE DOES NOT SKIP THE NEXT INSTRUCTION, THIS TEST PASSES
 33425
 33426	051172	201 02 0 00 000005 	C51600:	MOVEI	2,5			;PRELOAD AC WITH 0,,5
 33427	051173	305 02 0 00 000006 		CAIGE	2,6			;*CAIGE SHOULD NOT SKIP THE NEXT INSTRUCTION
 33428	051174	334 00 0 00 000000 		SKIPA				;PASS IF CAIGE DOES NOT SKIP
 33429						STOP^
 33430	051175	254 04 0 00 051176 		HALT	.+1		;TEST FAILED IF PROGRAM HALTS HERE
 33431	051176	324 00 0 00 051177 		JUMPA	.+1		;IF TEST FAILS, CHANGE THIS INSTRUCTION (JUMPA .+1) TO
 33432									;JUMPA X (X IS THE ADDRESS OF THE FIRST INSTRUCTION
 33433									;IN THE SUBTEST) TO LOOP ON ERROR^
 33434
 33435					;**********
DFKAA PDP-10 KL10 BASIC INSTRUCTION DIAGNOSTIC (1) VER 0,2	MACRO %53B(1254)-4 11:50 11-Nov-24 Page 36
DFKAA5	MAC	13-Jan-89 10:22		TEST OF MSCL CAIX INSTRUCTIONS

 33436					;THIS TEST VERIFIES THAT CAIGE COMPARES C(AC) WITH E AND
 33437					;SKIPS THE NEXT INSTRUCTION IF C(AC) IS GREATER THAN OR EQUAL TO E
 33438					;IN THIS CASE, C(AC)=0,,6 AND E=0,,6
 33439					;HENCE, CAIGE SHOULD SKIP THE NEXT INSTRUCTION.
 33440					;IF CAIGE SKIPS THE NEXT INSTRUCTION, THIS TEST PASSES.
 33441
 33442	051177	201 02 0 00 000006 	C51610:	MOVEI	2,6			;PRELOAD AC WITH 0,,6
 33443	051200	305 00 0 00 000000 		CAIGE				;*CAIGE SHOULD SKIP THE NEXT INSTRUCTION
 33444						STOP^
 33445	051201	254 04 0 00 051202 		HALT	.+1		;TEST FAILED IF PROGRAM HALTS HERE
 33446	051202	324 00 0 00 051203 		JUMPA	.+1		;IF TEST FAILS, CHANGE THIS INSTRUCTION (JUMPA .+1) TO
 33447									;JUMPA X (X IS THE ADDRESS OF THE FIRST INSTRUCTION
 33448									;IN THE SUBTEST) TO LOOP ON ERROR^
 33449
 33450					;**********
 33451
 33452					;THIS TEST VERIFIES THAT CAIGE COMPARES C(AC) WITH E AND
 33453					;SKIPS THE NEXT INSTRUCTION IF C(AC) IS GREATER THAN OR EQUAL TO E.
 33454					;IN THIS CASE, C(AC)=0,,7 AND E=0,,6
 33455					;HENCE, CAIGE SHOULD SKIP THE NEXT INSTRUCTION.
 33456					;IF CAIGE SKIPS THE NEXT INSTRUCTION, THIS TEST PASSES
 33457
 33458	051203	201 02 0 00 000007 	C51620:	MOVEI	2,7		;PRELOAD AC WITH 0,,7
 33459	051204	305 02 0 00 000006 		CAIGE	2,6		;*CAIGE SHOULD SKIP THE NEXT INSTRUCTION
 33460						STOP^
 33461	051205	254 04 0 00 051206 		HALT	.+1		;TEST FAILED IF PROGRAM HALTS HERE
 33462	051206	324 00 0 00 051207 		JUMPA	.+1		;IF TEST FAILS, CHANGE THIS INSTRUCTION (JUMPA .+1) TO
 33463									;JUMPA X (X IS THE ADDRESS OF THE FIRST INSTRUCTION
 33464									;IN THE SUBTEST) TO LOOP ON ERROR^
 33465
 33466					;**********
DFKAA PDP-10 KL10 BASIC INSTRUCTION DIAGNOSTIC (1) VER 0,2	MACRO %53B(1254)-4 11:50 11-Nov-24 Page 37
DFKAA5	MAC	13-Jan-89 10:22		TEST OF MSCL CAIX INSTRUCTIONS

 33467					;THIS TEST VERIRIES THAT CAIN COMPARES C(AC) WITH E AND
 33468					;SKIPS THE NEXT INSTRUCTION IF C(AC) IS NOT EQUAL TO E.
 33469					;IN THIS CASE, C(AC)=0 AND E=0,,1
 33470					;HENCE, CAIN SHOULD SKIP THE NEXT INSTRUCTION.
 33471					;IF CAIN SKIPS THE NEXT INSTRUCTION, THIS TEST PASSES.
 33472
 33473	051207	400 06 0 00 000000 	C51700:	SETZ	6,		;PRELOAD AC WITH 0
 33474	051210	306 06 0 00 000001 		CAIN	6,1		;*CAIN SHOULD SKIP THE NEXT INSTRUCTION
 33475						STOP^
 33476	051211	254 04 0 00 051212 		HALT	.+1		;TEST FAILED IF PROGRAM HALTS HERE
 33477	051212	324 00 0 00 051213 		JUMPA	.+1		;IF TEST FAILS, CHANGE THIS INSTRUCTION (JUMPA .+1) TO
 33478									;JUMPA X (X IS THE ADDRESS OF THE FIRST INSTRUCTION
 33479									;IN THE SUBTEST) TO LOOP ON ERROR^
 33480
 33481					;**********
 33482
 33483					;THIS TEST VERIFIES THAT CAIN COMPARES C(AC) WITH E AND
 33484					;SKIPS THE NEXT INSTRUCTION IF C(AC) IS NOT EQUAL TO E.
 33485					;IN THIS CASE, C(AC)=0,,1 AND E=0,,1
 33486					;HENCE, CAIN SHOULD NOT SKIP THE NEXT INSTRUCTION.
 33487					;IF CAIN DOES NOT SKIP THE NEXT INSTRUCTION, THIS TEST PASSES
 33488
 33489	051213	200 06 0 00 000001 	C51710:	MOVE	6,1		;PRELOAD AC WITH 0,,1
 33490	051214	306 06 0 00 000001 		CAIN	6,1		;*CAIN SHOULD NOT SKIP THE NEXT INSTRUCTION
 33491	051215	334 00 0 00 000000 		SKIPA			;PASS IF CAIN SKIPS
 33492						STOP^
 33493	051216	254 04 0 00 051217 		HALT	.+1		;TEST FAILED IF PROGRAM HALTS HERE
 33494	051217	324 00 0 00 051220 		JUMPA	.+1		;IF TEST FAILS, CHANGE THIS INSTRUCTION (JUMPA .+1) TO
 33495									;JUMPA X (X IS THE ADDRESS OF THE FIRST INSTRUCTION
 33496									;IN THE SUBTEST) TO LOOP ON ERROR^
 33497
 33498					;**********
DFKAA PDP-10 KL10 BASIC INSTRUCTION DIAGNOSTIC (1) VER 0,2	MACRO %53B(1254)-4 11:50 11-Nov-24 Page 38
DFKAA5	MAC	13-Jan-89 10:22		TEST OF MSCL CAIX INSTRUCTIONS

 33499					;THIS TEST VERIFIES THAT CAIN COMPARES C(AC) WITH E AND
 33500					;SKIPS THE NEXT INSTRUCTION IF C(AC) IS NOT EQUAL TO E.
 33501					;IN THIS CASE, C(AC)=0,,2 AND E=0,,1
 33502					;HENCE, CAIN SHOULD SKIP THE NEXT INSTRUCTION.
 33503					;IF CAIN SKIPS THE NEXT INSTRUCTION, THIS TEST PASSES
 33504
 33505	051220	201 06 0 00 000002 	C51720:	MOVEI	6,2		;PRELOAD AC WITH
 33506	051221	306 06 0 00 000001 		CAIN	6,1		;*CAIN SHOULD SKIP THE NEXT INSTRUCTION
 33507						STOP^
 33508	051222	254 04 0 00 051223 		HALT	.+1		;TEST FAILED IF PROGRAM HALTS HERE
 33509	051223	324 00 0 00 051224 		JUMPA	.+1		;IF TEST FAILS, CHANGE THIS INSTRUCTION (JUMPA .+1) TO
 33510									;JUMPA X (X IS THE ADDRESS OF THE FIRST INSTRUCTION
 33511									;IN THE SUBTEST) TO LOOP ON ERROR^
 33512
 33513					;**********
 33514
 33515					;THIS TEST VERIFIES THAT CAIG COMPARES C(AC) WITH E AND
 33516					;SKIPS THE NEXT INSTRUCTION IF C(AC) IS GREATER THAN E.
 33517					;IN THIS CASE, C(AC)=0,,2 AND E=0,,3.
 33518					;HENCE, CAIG SHOULD NOT SKIP THE NEXT INSTRUCTION.
 33519					;IF CAIG DOES NOT SKIP THE NEXT INSTRUCTION, THIS TEST PASSES
 33520
 33521	051224	201 11 0 00 000002 	C52000:	MOVEI	11,2		;PRELOAD AC WITH 0,,2
 33522	051225	307 11 0 00 000003 		CAIG	11,3		;*CAIG SHOULD NOT SKIP THE NEXT INSTRUCTION
 33523	051226	334 00 0 00 000000 		SKIPA			;PASS IF CAIG DID NOT SKIP
 33524						STOP^
 33525	051227	254 04 0 00 051230 		HALT	.+1		;TEST FAILED IF PROGRAM HALTS HERE
 33526	051230	324 00 0 00 051231 		JUMPA	.+1		;IF TEST FAILS, CHANGE THIS INSTRUCTION (JUMPA .+1) TO
 33527									;JUMPA X (X IS THE ADDRESS OF THE FIRST INSTRUCTION
 33528									;IN THE SUBTEST) TO LOOP ON ERROR^
 33529
 33530					;**********
DFKAA PDP-10 KL10 BASIC INSTRUCTION DIAGNOSTIC (1) VER 0,2	MACRO %53B(1254)-4 11:50 11-Nov-24 Page 39
DFKAA5	MAC	13-Jan-89 10:22		TEST OF MSCL CAIX INSTRUCTIONS

 33531					;THIS TEST VERIFIES THAT CAIG COMPARES C(AC) WITH E AND
 33532					;SKIPS THE NEXT INSTRUCTION IF C(AC) IS GREATER THAN E.
 33533					;IN THIS CASE, C(AC)=0,,3 AND E=0,,3.
 33534					;HENCE, CAIG SHOULD NOT SKIP THE NEXT INSTRUCTION.
 33535					;IF CAIG DOES NOT SKIP THE NEXT INSTRUCTION, THE TEST PASSES.
 33536
 33537	051231	201 11 0 00 000003 	C52010:	MOVEI	11,3		;PRELOAD AC WITH 0,,3
 33538	051232	307 11 0 00 000003 		CAIG	11,3		;*CAIG SHOULD NOT SKIP THE NEXT INSTRUCTION
 33539	051233	334 00 0 00 000000 		SKIPA			;PASS IF CAIG DID NOT SKIP
 33540						STOP^
 33541	051234	254 04 0 00 051235 		HALT	.+1		;TEST FAILED IF PROGRAM HALTS HERE
 33542	051235	324 00 0 00 051236 		JUMPA	.+1		;IF TEST FAILS, CHANGE THIS INSTRUCTION (JUMPA .+1) TO
 33543									;JUMPA X (X IS THE ADDRESS OF THE FIRST INSTRUCTION
 33544									;IN THE SUBTEST) TO LOOP ON ERROR^
 33545
 33546					;**********
 33547
 33548					;THIS TEST VERIFIES THAT CAIG COMPARES C(AC) WITH E AND
 33549					;SKIPS THE NEXT INSTRUCTION IF C(AC) IS GREATER THAN E.
 33550					;IN THIS CASE, C(AC)=0,,4 AND E=0,,3.
 33551					;HENCE, CAIG SHOULD SKIP THE NEXT INSTRUCTION.
 33552					;IF CAIG SKIPS THE NEXT INSTRUCTION, THIS TEST PASSES.
 33553
 33554	051236	201 11 0 00 000004 	C52020:	MOVEI	11,4		;PRELOAD AC WITH 0,,4
 33555	051237	307 11 0 00 000003 		CAIG	11,3		;*CAIG SHOULD SKIP THE NEXT INSTRUCTION
 33556						STOP^
 33557	051240	254 04 0 00 051241 		HALT	.+1		;TEST FAILED IF PROGRAM HALTS HERE
 33558	051241	324 00 0 00 051242 		JUMPA	.+1		;IF TEST FAILS, CHANGE THIS INSTRUCTION (JUMPA .+1) TO
 33559									;JUMPA X (X IS THE ADDRESS OF THE FIRST INSTRUCTION
 33560									;IN THE SUBTEST) TO LOOP ON ERROR^
 33561
 33562					;**********
DFKAA PDP-10 KL10 BASIC INSTRUCTION DIAGNOSTIC (1) VER 0,2	MACRO %53B(1254)-4 11:50 11-Nov-24 Page 40
DFKAA5	MAC	13-Jan-89 10:22		TEST OF MSCL CAMX INSTRUCTIONS

 33563					SUBTTL	TEST OF MSCL CAMX INSTRUCTIONS
 33564
 33565					;**********
 33566
 33567					;THIS TEST VERIFIES THAT CAMLE COMPARES C(AC) WITH C(E) AND
 33568					;SKIPS THE NEXT INSTRUCTION IF C(AC) IS LESS THAT OR EQUAL TO C(E).
 33569					;IN THIS CASE, C(AC)=-1,,-1 AND C(E)=0
 33570					;HENCE, CAMLE SHOULD SKIP THE NEXT INSTRUCTION.
 33571					;IF CAMLE SKIPS THE NEXT INSTRUCTION, THIS TEST PASSES.
 33572
 33573	051242	474 01 0 00 000000 	C52100:	SETO	1,		;PRELOAD AC WITH -1,,-1
 33574	051243	400 02 0 00 000000 		SETZ	2,		;PRELOAD E WITH 0
 33575	051244	313 01 0 00 000002 		CAMLE	1,2		;*CAMLE SHOULD SKIP THE NEXT INSTRUCTION
 33576						STOP^
 33577	051245	254 04 0 00 051246 		HALT	.+1		;TEST FAILED IF PROGRAM HALTS HERE
 33578	051246	324 00 0 00 051247 		JUMPA	.+1		;IF TEST FAILS, CHANGE THIS INSTRUCTION (JUMPA .+1) TO
 33579									;JUMPA X (X IS THE ADDRESS OF THE FIRST INSTRUCTION
 33580									;IN THE SUBTEST) TO LOOP ON ERROR^
 33581
 33582					;**********
 33583
 33584					;THIS TEST VERIFIES THAT CAMLE COMPARES C(AC) WITH C(E) AND
 33585					;SKIPS THE NEXT INSTRUCTION IF C(AC) IS LESS THAN OR EQUAL TO C(E).
 33586					;IN THIS CASE, C(AC)=0 AND C(E)=0
 33587					;HENCE, CAMLE SHOULD SKIP THE NEXT INSTRUCTION.
 33588					;IF CAMLE SKIPS THE NEXT INSTRUCTION, THIS TEST PASSES
 33589
 33590	051247	400 01 0 00 000000 	C52110:	SETZ	1,		;CLEAR AC
 33591	051250	313 01 0 00 070253 		CAMLE	1,[0]		;*CAMLE SHOULD SKIP THE NEXT INSTRUCTION
 33592						STOP^
 33593	051251	254 04 0 00 051252 		HALT	.+1		;TEST FAILED IF PROGRAM HALTS HERE
 33594	051252	324 00 0 00 051253 		JUMPA	.+1		;IF TEST FAILS, CHANGE THIS INSTRUCTION (JUMPA .+1) TO
 33595									;JUMPA X (X IS THE ADDRESS OF THE FIRST INSTRUCTION
 33596									;IN THE SUBTEST) TO LOOP ON ERROR^
 33597
 33598					;**********
DFKAA PDP-10 KL10 BASIC INSTRUCTION DIAGNOSTIC (1) VER 0,2	MACRO %53B(1254)-4 11:50 11-Nov-24 Page 41
DFKAA5	MAC	13-Jan-89 10:22		TEST OF MSCL CAMX INSTRUCTIONS

 33599					;THIS TEST VERIFIES THAT CAMLE COMPARES C(AC) WITH C(E) AND
 33600					;SKIPS THE NEXT INSTRUCTION IF C(AC) IS LESS THAN OR EQUAL TO C(E).
 33601					;IN THIS CASE, C(AC)=0,,1 AND C(E)=0
 33602					;HENCE, CAMLE SHOULD NOT SKIP THE NEXT INSTRUCTION.
 33603					;IF CAMLE DOES NOT SKIP THE NEXT INSTRUCTION, THIS TEST PASSES.
 33604
 33605	051253	201 01 0 00 000001 	C52120:	MOVEI	1,1		;PRELOAD AC WITH 0,,1
 33606	051254	400 02 0 00 000000 		SETZ	2,		;PRELOAD E WITH 0
 33607	051255	313 01 0 00 000002 		CAMLE	1,2		;*CAMLE SHOULD NOT SKIP THE NEXT INSTRUCTION
 33608	051256	334 00 0 00 000000 		SKIPA			;PASS IF CAMLE DOES NOT SKIP
 33609						STOP^
 33610	051257	254 04 0 00 051260 		HALT	.+1		;TEST FAILED IF PROGRAM HALTS HERE
 33611	051260	324 00 0 00 051261 		JUMPA	.+1		;IF TEST FAILS, CHANGE THIS INSTRUCTION (JUMPA .+1) TO
 33612									;JUMPA X (X IS THE ADDRESS OF THE FIRST INSTRUCTION
 33613									;IN THE SUBTEST) TO LOOP ON ERROR^
 33614
 33615					;**********
 33616
 33617					;THIS TEST VERIFIES THAT CAMG COMPARES C(AC) WITH C(E) AND
 33618					;SKIPS THE NEXT INSTRUCTION IF C(AC) IS GREATER THAN C(E).
 33619					;IN THIS CASE, C(AC)=-1,,-2 AND C(E)=-1,,-2.
 33620					;HENCE, CAMG SHOULD NOT SKIP THE NEXT INSTRUCTION.
 33621					;IF CAMG DOES NOT SKIP THE NEXT INSTRUCTION, THIS TEST PASSES.
 33622
 33623	051261	561 10 0 00 777776 	C52200:	HRROI	10,-2		;PRELOAD AC WITH -1,,-2
 33624	051262	317 10 0 00 070254 		CAMG	10,[-1,,-1]	;*CAMG SHOULD NOT SKIP THE NEXT INSTRUCTION.
 33625	051263	334 00 0 00 000000 		SKIPA			;PASS IF CAMG DOES NOT SKIP
 33626						STOP^
 33627	051264	254 04 0 00 051265 		HALT	.+1		;TEST FAILED IF PROGRAM HALTS HERE
 33628	051265	324 00 0 00 051266 		JUMPA	.+1		;IF TEST FAILS, CHANGE THIS INSTRUCTION (JUMPA .+1) TO
 33629									;JUMPA X (X IS THE ADDRESS OF THE FIRST INSTRUCTION
 33630									;IN THE SUBTEST) TO LOOP ON ERROR^
 33631
 33632					;**********
DFKAA PDP-10 KL10 BASIC INSTRUCTION DIAGNOSTIC (1) VER 0,2	MACRO %53B(1254)-4 11:50 11-Nov-24 Page 42
DFKAA5	MAC	13-Jan-89 10:22		TEST OF MSCL CAMX INSTRUCTIONS

 33633					;THIS TEST VERIFIES THAT CAMG COMPARES C(AC) WITH C(E) AND
 33634					;SKIPS THE NEXT INSTRUCTION IF C(AC) IS GREATER THAN C(E).
 33635					;IN THIS CASE, C(AC)=-1,,-1 AND C(E)=-1,,-1.
 33636					;HENCE, CAMG SHOULD NOT SKIP THE NEXT INSTRUCTION.
 33637					;IF CAMG DOES NOT SKIP THE NEXT INSTRUCTION, THIS TEST PASSES.
 33638	051266	474 10 0 00 000000 	C52210:	SETO	10,		;PRELOAD AC WITH -1,,-1.
 33639	051267	317 10 0 00 070254 		CAMG	10,[-1,,-1]	;*CAMG SHOULD NOT SKIP THE NEXT INSTRUCTION
 33640	051270	334 00 0 00 000000 		SKIPA			;PASS IF CAMG DOES NOT SKIP
 33641						STOP^
 33642	051271	254 04 0 00 051272 		HALT	.+1		;TEST FAILED IF PROGRAM HALTS HERE
 33643	051272	324 00 0 00 051273 		JUMPA	.+1		;IF TEST FAILS, CHANGE THIS INSTRUCTION (JUMPA .+1) TO
 33644									;JUMPA X (X IS THE ADDRESS OF THE FIRST INSTRUCTION
 33645									;IN THE SUBTEST) TO LOOP ON ERROR^
 33646
 33647					;**********
 33648
 33649					;THIS TEST VERIFIES THAT CAMG COMPARES C(AC) WITH C(E) AND
 33650					;SKIPS THE NEXT INSTRUCTION IF C(AC) IS GREATER THAN C(E).
 33651					;IN THIS CASE, C(AC)=0 AND C(E)=-1,,-1.
 33652					;HENCE, CAMG SHOULD SKIP THE NEXT INSTRUCTION.
 33653					;IF CAMG SKIPS THE NEXT INSTRUCTION, THIS TEST PASSES.
 33654
 33655	051273	400 10 0 00 000000 	C52220:	SETZ	10,		;PRELOAD AC WITH 0
 33656	051274	317 10 0 00 070254 		CAMG	10,[-1,,-1]	;*CAMG SHOULD SKIP THE NEXT INSTRUCTION
 33657						STOP^
 33658	051275	254 04 0 00 051276 		HALT	.+1		;TEST FAILED IF PROGRAM HALTS HERE
 33659	051276	324 00 0 00 051277 		JUMPA	.+1		;IF TEST FAILS, CHANGE THIS INSTRUCTION (JUMPA .+1) TO
 33660									;JUMPA X (X IS THE ADDRESS OF THE FIRST INSTRUCTION
 33661									;IN THE SUBTEST) TO LOOP ON ERROR^
 33662
 33663					;**********
DFKAA PDP-10 KL10 BASIC INSTRUCTION DIAGNOSTIC (1) VER 0,2	MACRO %53B(1254)-4 11:50 11-Nov-24 Page 43
DFKAA5	MAC	13-Jan-89 10:22		TEST OF MSCL JUMPX INSTRUCTIONS

 33664					SUBTTL	TEST OF MSCL JUMPX INSTRUCTIONS
 33665
 33666					;**********
 33667
 33668					;THIS TEST VERIFIES THAT JUMPLE COMPARES C(AC) WITH 0 AND
 33669					;JUMPS TO THE LOCATION SPECIFIED BY E IF C(AC) IS LESS THAN OR
 33670					;EQUAL TO 0.  IN THIS CASE, C(AC)=-1,,-1.  HENCE, JUMPLE SHOULD JUMP.
 33671
 33672	051277	474 17 0 00 000000 	C52300:	SETO	17,		;PRELOAD AC WITH -1,,-1
 33673	051300	323 17 0 00 051302 		JUMPLE	17,.+2		;*JUMPLE SHOULD JUMP
 33674						STOP^
 33675	051301	254 04 0 00 051302 		HALT	.+1		;TEST FAILED IF PROGRAM HALTS HERE
 33676	051302	324 00 0 00 051303 		JUMPA	.+1		;IF TEST FAILS, CHANGE THIS INSTRUCTION (JUMPA .+1) TO
 33677									;JUMPA X (X IS THE ADDRESS OF THE FIRST INSTRUCTION
 33678									;IN THE SUBTEST) TO LOOP ON ERROR^
 33679
 33680					;**********
 33681
 33682					;THIS TEST VERIFIES THAT JUMPLE COMPARES C(AC) WITH 0 AND
 33683					;JUMPS TO THE LOCATION SPECIFIED BY E IF C(AC) IS LESS THAN OR
 33684					;EQUAL TO 0.  IN THIS CASE, C(AC)=0.  HENCE, JUMPLE SHOULD JUMP.
 33685
 33686	051303	400 17 0 00 000000 	C52310:	SETZ	17,		;PRELOAD AC WITH 0
 33687	051304	323 17 0 00 051306 		JUMPLE	17,.+2		;*JUMPLE SHOULD JUMP
 33688						STOP^
 33689	051305	254 04 0 00 051306 		HALT	.+1		;TEST FAILED IF PROGRAM HALTS HERE
 33690	051306	324 00 0 00 051307 		JUMPA	.+1		;IF TEST FAILS, CHANGE THIS INSTRUCTION (JUMPA .+1) TO
 33691									;JUMPA X (X IS THE ADDRESS OF THE FIRST INSTRUCTION
 33692									;IN THE SUBTEST) TO LOOP ON ERROR^
 33693
 33694					;**********
DFKAA PDP-10 KL10 BASIC INSTRUCTION DIAGNOSTIC (1) VER 0,2	MACRO %53B(1254)-4 11:50 11-Nov-24 Page 44
DFKAA5	MAC	13-Jan-89 10:22		TEST OF MSCL JUMPX INSTRUCTIONS

 33695					;THIS TEST VERIFIES THAT JUMPLE COMPARES C(AC) WITH 0 AND JUMPS
 33696					;TO THE LOCATION SPECIFIED BY E IF C(AC) IS LESS THAN OR EQUAL TO
 33697					;0.  IN THIS CASE, C(AC)=0,,1.  HENCE, JUMPLE SHOULD NOT JUMP.
 33698
 33699	051307	201 17 0 00 000001 	C52320:	MOVEI	17,1		;PRELOAD AC WITH 0,,1
 33700	051310	320 17 0 00 051312 		JUMP	17,.+2		;*JUMPLE SHOULD NOT JUMP
 33701	051311	334 00 0 00 000000 		SKIPA			;PASS IF JUMPLE DOES NOT JUMP
 33702						STOP^
 33703	051312	254 04 0 00 051313 		HALT	.+1		;TEST FAILED IF PROGRAM HALTS HERE
 33704	051313	324 00 0 00 051314 		JUMPA	.+1		;IF TEST FAILS, CHANGE THIS INSTRUCTION (JUMPA .+1) TO
 33705									;JUMPA X (X IS THE ADDRESS OF THE FIRST INSTRUCTION
 33706									;IN THE SUBTEST) TO LOOP ON ERROR^
 33707
 33708					;**********
 33709
 33710					;THIS TEST VERIFIES THAT JUMPGE COMPARES C(AC) WITH 0 AND JUMPS TO
 33711					;THE LOCATION SPECIFIED BY E IF C(AC) IS GREATER THAN OR EQUAL TO 0.
 33712					;IN THIS CASE, C(AC)=-1,,-1.  HENCE, JUMPGE SHOULD NOT JUMP.
 33713
 33714	051314	474 16 0 00 000000 	C52400:	SETO	16,		;PRELOAD AC WITH -1,,-1
 33715	051315	325 16 0 00 051317 		JUMPGE	16,.+2		;*JUMPGE SHOULD NOT JUMP
 33716	051316	334 00 0 00 000000 		SKIPA			;PASS IF JUMPGE DOES NOT JUMP
 33717						STOP^
 33718	051317	254 04 0 00 051320 		HALT	.+1		;TEST FAILED IF PROGRAM HALTS HERE
 33719	051320	324 00 0 00 051321 		JUMPA	.+1		;IF TEST FAILS, CHANGE THIS INSTRUCTION (JUMPA .+1) TO
 33720									;JUMPA X (X IS THE ADDRESS OF THE FIRST INSTRUCTION
 33721									;IN THE SUBTEST) TO LOOP ON ERROR^
 33722
 33723					;**********
DFKAA PDP-10 KL10 BASIC INSTRUCTION DIAGNOSTIC (1) VER 0,2	MACRO %53B(1254)-4 11:50 11-Nov-24 Page 45
DFKAA5	MAC	13-Jan-89 10:22		TEST OF MSCL JUMPX INSTRUCTIONS

 33724					;THIS TEST VERIFIES THAT JUMPGE COMPARES C(AC) WITH O AND JUMPS TO
 33725					;THE LOCATION SPECIFIED BY E IF C(AC) IS GREATER THAN OR EQUAL TO 0.
 33726					;IN THIS CASE, C(AC)=0.  HENCE, JUMPGE SHOULD JUMP.
 33727
 33728	051321	400 16 0 00 000000 	C52410:	SETZ	16,		;PRELOAD AC WITH 0
 33729	051322	325 16 0 00 051324 		JUMPGE	16,.+2		;*JUMPGE SHOULD JUMP
 33730						STOP^
 33731	051323	254 04 0 00 051324 		HALT	.+1		;TEST FAILED IF PROGRAM HALTS HERE
 33732	051324	324 00 0 00 051325 		JUMPA	.+1		;IF TEST FAILS, CHANGE THIS INSTRUCTION (JUMPA .+1) TO
 33733									;JUMPA X (X IS THE ADDRESS OF THE FIRST INSTRUCTION
 33734									;IN THE SUBTEST) TO LOOP ON ERROR^
 33735
 33736					;**********
 33737
 33738					;THIS TEST VERIFIES THAT JUMPGE COMPARES C(AC) WITH 0 AND JUMPS TO
 33739					;THE LOCATION SPECIFIED BY E IF C(AC) IS GREATER THAN OR EQUAL TO 0.
 33740					;IN THIS CASE, C(AC)=0,,1.  HENCE, JUMPGE SHOULD JUMP.
 33741
 33742	051325	201 16 0 00 000001 	C52420:	MOVEI	16,1		;PRELOAD AC WITH 0,,1
 33743	051326	325 16 0 00 051330 		JUMPGE	16,.+2		;*JUMPGE SHOULD JUMP
 33744						STOP^
 33745	051327	254 04 0 00 051330 		HALT	.+1		;TEST FAILED IF PROGRAM HALTS HERE
 33746	051330	324 00 0 00 051331 		JUMPA	.+1		;IF TEST FAILS, CHANGE THIS INSTRUCTION (JUMPA .+1) TO
 33747									;JUMPA X (X IS THE ADDRESS OF THE FIRST INSTRUCTION
 33748									;IN THE SUBTEST) TO LOOP ON ERROR^
 33749
 33750					;**********
DFKAA PDP-10 KL10 BASIC INSTRUCTION DIAGNOSTIC (1) VER 0,2	MACRO %53B(1254)-4 11:50 11-Nov-24 Page 46
DFKAA5	MAC	13-Jan-89 10:22		TEST OF MSCL AOJX INSTRUCTIONS

 33751					SUBTTL	TEST OF MSCL AOJX INSTRUCTIONS
 33752
 33753					;**********
 33754
 33755					;THIS TEST VERIFIES THAT AOJL INCREMENTS C(AC) BY 0,,1 AND PLACES
 33756					;THE RESULT BACK INTO THE AC.  THE RESULT IN THE AC IS COMPARED
 33757					;TO 0 AND THE PROGRAM JUMPS TO THE LOCATION SPECIFIED BY E IF C(AC)
 33758					;IS LESS THAN 0.  IN THIS CASE, C(AC)=-1,,-2 BEFORE INCREMENTING.
 33759					;HENCE, AOJL SHOULD JUMP.
 33760
 33761	051331	561 15 0 00 777776 	C52500:	HRROI	15,-2		;PRELOAD AC WITH -1,,-2
 33762	051332	341 15 0 00 051334 		AOJL	15,.+2		;*AOJL SHOULD ADD 0,,1 TO C(AC) AND JUMP
 33763						STOP^
 33764	051333	254 04 0 00 051334 		HALT	.+1		;TEST FAILED IF PROGRAM HALTS HERE
 33765	051334	324 00 0 00 051335 		JUMPA	.+1		;IF TEST FAILS, CHANGE THIS INSTRUCTION (JUMPA .+1) TO
 33766									;JUMPA X (X IS THE ADDRESS OF THE FIRST INSTRUCTION
 33767									;IN THE SUBTEST) TO LOOP ON ERROR^
 33768	051335	312 15 0 00 070254 		CAME	15,[-1]		;PASS IF C(AC) INCREMENTED CORRECTLY
 33769						STOP^
 33770	051336	254 04 0 00 051337 		HALT	.+1		;TEST FAILED IF PROGRAM HALTS HERE
 33771	051337	324 00 0 00 051340 		JUMPA	.+1		;IF TEST FAILS, CHANGE THIS INSTRUCTION (JUMPA .+1) TO
 33772									;JUMPA X (X IS THE ADDRESS OF THE FIRST INSTRUCTION
 33773									;IN THE SUBTEST) TO LOOP ON ERROR^
 33774
 33775					;**********
 33776
 33777					;THIS TEST VERIFIES THAT AOJL INCREMENTS C(AC) BY 0,,1 AND
 33778					;PLACES THE RESULT BACK INTO THE AC.  THE RESULT IN THE AC IS
 33779					;COMPARED TO 0 AND THE PROGRAM JUMPS TO THE LOCATION
 33780					;SPECIFIED BY E IF C(AC) IS LESS THAN 0.
 33781					;IN THIS CASE, C(AC) IS -1,,-1 BEFORE INCREMENTING
 33782					;HENCE, AOJ SHOULD NOT JUMP
 33783
 33784	051340	474 15 0 00 000000 	C52510:	SETO	15,		;PRELOAD AC WITH
 33785	051341	341 15 0 00 051343 		AOJL	15,.+2		;*AOJL SHOULD ADD 0,,1 TO C(AC)
 33786									;AND NOT JUMP
 33787	051342	334 00 0 00 000000 		SKIPA			;PASS IF AOJL DID NOT JUMP
 33788						STOP^
 33789	051343	254 04 0 00 051344 		HALT	.+1		;TEST FAILED IF PROGRAM HALTS HERE
 33790	051344	324 00 0 00 051345 		JUMPA	.+1		;IF TEST FAILS, CHANGE THIS INSTRUCTION (JUMPA .+1) TO
 33791									;JUMPA X (X IS THE ADDRESS OF THE FIRST INSTRUCTION
 33792									;IN THE SUBTEST) TO LOOP ON ERROR^
 33793	051345	302 15 0 00 000000 		CAIE	15,0		;PASS IF C(AC) INCREMENTED CORRECTLY
 33794						STOP^
 33795	051346	254 04 0 00 051347 		HALT	.+1		;TEST FAILED IF PROGRAM HALTS HERE
 33796	051347	324 00 0 00 051350 		JUMPA	.+1		;IF TEST FAILS, CHANGE THIS INSTRUCTION (JUMPA .+1) TO
 33797									;JUMPA X (X IS THE ADDRESS OF THE FIRST INSTRUCTION
 33798									;IN THE SUBTEST) TO LOOP ON ERROR^
 33799
 33800					;**********
DFKAA PDP-10 KL10 BASIC INSTRUCTION DIAGNOSTIC (1) VER 0,2	MACRO %53B(1254)-4 11:50 11-Nov-24 Page 47
DFKAA5	MAC	13-Jan-89 10:22		TEST OF MSCL AOJX INSTRUCTIONS

 33801					;THIS TEST VERIFIES THAT AOJL INCREMENTS C(AC) BY 0,,1 AND
 33802					;PLACES THE RESULT BACK INTO THE AC.  THE RESULT IN THE AC IS
 33803					;COMPARED TO 0 AND THE PROGRAM JUMPS TO THE LOCATION
 33804					;SPECIFIED BY E IF C(AC) IS 0 BEFORE INCREMENTING
 33805					;HENCE, AOJL SHOULD NOT JUMP
 33806
 33807	051350	400 15 0 00 000000 	C52520:	SETZ	15,		;PRELOAD AC WITH 0
 33808	051351	341 15 0 00 051353 		AOJL	15,.+2		;*AOJL SHOULD ADD 0,,1 TO C(AC)
 33809									;AND NOT JUMP
 33810	051352	334 00 0 00 000000 		SKIPA			;PASS IF AOJL DID NOT JUMP
 33811						STOP^
 33812	051353	254 04 0 00 051354 		HALT	.+1		;TEST FAILED IF PROGRAM HALTS HERE
 33813	051354	324 00 0 00 051355 		JUMPA	.+1		;IF TEST FAILS, CHANGE THIS INSTRUCTION (JUMPA .+1) TO
 33814									;JUMPA X (X IS THE ADDRESS OF THE FIRST INSTRUCTION
 33815									;IN THE SUBTEST) TO LOOP ON ERROR^
 33816	051355	302 15 0 00 000001 		CAIE	15,1		;PASS IF C(AC) INCREMENTED CORRECTLY
 33817						STOP^
 33818	051356	254 04 0 00 051357 		HALT	.+1		;TEST FAILED IF PROGRAM HALTS HERE
 33819	051357	324 00 0 00 051360 		JUMPA	.+1		;IF TEST FAILS, CHANGE THIS INSTRUCTION (JUMPA .+1) TO
 33820									;JUMPA X (X IS THE ADDRESS OF THE FIRST INSTRUCTION
 33821									;IN THE SUBTEST) TO LOOP ON ERROR^
 33822
 33823					;**********
 33824
 33825					;THIS TEST VERIFIES THAT AOJE INCREMENTS C(AC) BY 0,,1 AND
 33826					;PLACES THE RESULT BACK INTO THE AC.  THE RESULT IN THE AC IS
 33827					;COMPARED TO 0 AND THE PROGRAM JUMPS TO THE LOCATION
 33828					;SPECIFIED BY E IF C(AC) IS EQUAL TO 0
 33829					;IN THIS CASE, C(AC) IS -1,,-2 BEFORE INCREMENTING
 33830					;HENCE, AOJE SHOULD NOT JUMP
 33831
 33832	051360	561 14 0 00 777776 	C52600:	HRROI	14,-2		;PRELOAD AC WITH -1,,-2
 33833	051361	342 14 0 00 051363 		AOJE	14,.+2		;*AOJE SHOULD ADD 0,,1 TO C(AC)
 33834									;AND NOT JUMP
 33835	051362	334 00 0 00 000000 		SKIPA			;PASS IF AOJE DID NOT JUMP
 33836						STOP^
 33837	051363	254 04 0 00 051364 		HALT	.+1		;TEST FAILED IF PROGRAM HALTS HERE
 33838	051364	324 00 0 00 051365 		JUMPA	.+1		;IF TEST FAILS, CHANGE THIS INSTRUCTION (JUMPA .+1) TO
 33839									;JUMPA X (X IS THE ADDRESS OF THE FIRST INSTRUCTION
 33840									;IN THE SUBTEST) TO LOOP ON ERROR^
 33841	051365	312 14 0 00 070254 		CAME	14,[-1]		;PASS IF C(AC) INCREMENTED CORRECTLY
 33842						STOP^
 33843	051366	254 04 0 00 051367 		HALT	.+1		;TEST FAILED IF PROGRAM HALTS HERE
 33844	051367	324 00 0 00 051370 		JUMPA	.+1		;IF TEST FAILS, CHANGE THIS INSTRUCTION (JUMPA .+1) TO
 33845									;JUMPA X (X IS THE ADDRESS OF THE FIRST INSTRUCTION
 33846									;IN THE SUBTEST) TO LOOP ON ERROR^
 33847
 33848					;**********
DFKAA PDP-10 KL10 BASIC INSTRUCTION DIAGNOSTIC (1) VER 0,2	MACRO %53B(1254)-4 11:50 11-Nov-24 Page 48
DFKAA5	MAC	13-Jan-89 10:22		TEST OF MSCL AOJX INSTRUCTIONS

 33849					;THIS TEST VERIFIES THAT AOJE INCREMENTS C(AC) BY 0,,1 AND
 33850					;PLACES THE RESULT BACK INTO THE AC.  THE RESULT IN THE AC IS
 33851					;COMPARED TO 0 AND THE PROGRAM JUMPS TO THE LOCATION
 33852					;SPECIFIED BY E IF C(AC) IS EQUAL TO 0.
 33853					;IN THIS CASE, C(AC) IS -1,,-1 BEFORE INCREMENTING.
 33854					;HENCE, AOJE SHOULD JUMP
 33855
 33856	051370	474 14 0 00 000000 	C52610:	SETO	14,		;PRELOAD AC WITH -1,,-1
 33857	051371	342 14 0 00 051373 		AOJE	14,.+2		;*AOJ SHOULD ADD 0,,1 TO C(AC)
 33858									;AND JUMP
 33859						STOP^
 33860	051372	254 04 0 00 051373 		HALT	.+1		;TEST FAILED IF PROGRAM HALTS HERE
 33861	051373	324 00 0 00 051374 		JUMPA	.+1		;IF TEST FAILS, CHANGE THIS INSTRUCTION (JUMPA .+1) TO
 33862									;JUMPA X (X IS THE ADDRESS OF THE FIRST INSTRUCTION
 33863									;IN THE SUBTEST) TO LOOP ON ERROR^
 33864	051374	302 14 0 00 000000 		CAIE	14,0		;PASS IF C(AC) INCREMENTED CORRECTLY
 33865						STOP^
 33866	051375	254 04 0 00 051376 		HALT	.+1		;TEST FAILED IF PROGRAM HALTS HERE
 33867	051376	324 00 0 00 051377 		JUMPA	.+1		;IF TEST FAILS, CHANGE THIS INSTRUCTION (JUMPA .+1) TO
 33868									;JUMPA X (X IS THE ADDRESS OF THE FIRST INSTRUCTION
 33869									;IN THE SUBTEST) TO LOOP ON ERROR^
 33870
 33871					;**********
 33872
 33873					;THIS TEST VERIFIES THAT AOJE INCREMENTS C(AC) BY 0,,1 AND
 33874					;PLACES THE RESULT BACK INTO THE AC.  THE RESULT IN THE AC IS
 33875					;COMPARED TO 0 AND THE PROGRAM JUMPS TO THE LOCATION
 33876					;SPECIFIED BY E IF C(AC) IS EQUAL TO 0.
 33877					;IN THIS CASE, C(AC) IS 0 BEFORE INCREMENTING
 33878					;HENCE, AOJE SHOULD NOT JUMP
 33879
 33880	051377	400 14 0 00 000000 	C52620:	SETZ	14,		;PRELOAD AC WITH 0
 33881	051400	342 14 0 00 051402 		AOJE	14,.+2		;*AOJE SHOULD ADD 0,11 TO C(AC)
 33882									;AND NOT JUMP
 33883	051401	334 00 0 00 000000 		SKIPA			;PASS IF AOJE DID NOT JUMP
 33884						STOP^
 33885	051402	254 04 0 00 051403 		HALT	.+1		;TEST FAILED IF PROGRAM HALTS HERE
 33886	051403	324 00 0 00 051404 		JUMPA	.+1		;IF TEST FAILS, CHANGE THIS INSTRUCTION (JUMPA .+1) TO
 33887									;JUMPA X (X IS THE ADDRESS OF THE FIRST INSTRUCTION
 33888									;IN THE SUBTEST) TO LOOP ON ERROR^
 33889	051404	302 14 0 00 000001 		CAIE	14,1		;PASS IF C(AC) INCREMENTED CORRECTLY
 33890						STOP^
 33891	051405	254 04 0 00 051406 		HALT	.+1		;TEST FAILED IF PROGRAM HALTS HERE
 33892	051406	324 00 0 00 051407 		JUMPA	.+1		;IF TEST FAILS, CHANGE THIS INSTRUCTION (JUMPA .+1) TO
 33893									;JUMPA X (X IS THE ADDRESS OF THE FIRST INSTRUCTION
 33894									;IN THE SUBTEST) TO LOOP ON ERROR^
 33895
 33896					;**********
DFKAA PDP-10 KL10 BASIC INSTRUCTION DIAGNOSTIC (1) VER 0,2	MACRO %53B(1254)-4 11:50 11-Nov-24 Page 49
DFKAA5	MAC	13-Jan-89 10:22		TEST OF MSCL AOJX INSTRUCTIONS

 33897					;THIS TEST VERIFIES THAT AOJLE INCREMENTS C(AC) BY 0,,1 AND
 33898					;PLACES THE RESULT BACK INTO TLE$EC.  THE RESULT IN THE AC IS
 33899					;COMPARED TO 0 AND THE PROGRAM JUMPS TO THE LOCATION
 33900					;SPECIFIED BY E IF C(AC) IS LESS THAN OR EQUAL TO 0.
 33901					;IN THIS CASE, C(AC) IS -1,,-1 BEFORE INCREMENTING
 33902					;HENCE, AOJLE SHOULD
 33903
 33904	051407	561 13 0 00 777776 	C52700:	HRROI	13,-2		;PRELOAD AC WITH -1,,-2
 33905	051410	343 13 0 00 051412 		AOJLE	13,.+2		;*AOJLE SHOULD ADD 0,,1 TO C(AC)
 33906									;AND JUMP
 33907						STOP^
 33908	051411	254 04 0 00 051412 		HALT	.+1		;TEST FAILED IF PROGRAM HALTS HERE
 33909	051412	324 00 0 00 051413 		JUMPA	.+1		;IF TEST FAILS, CHANGE THIS INSTRUCTION (JUMPA .+1) TO
 33910									;JUMPA X (X IS THE ADDRESS OF THE FIRST INSTRUCTION
 33911									;IN THE SUBTEST) TO LOOP ON ERROR^
 33912	051413	312 13 0 00 070254 		CAME	13,[-1]		;PASS IF C(AC) INCREMENTED CORRECTLY
 33913						STOP^
 33914	051414	254 04 0 00 051415 		HALT	.+1		;TEST FAILED IF PROGRAM HALTS HERE
 33915	051415	324 00 0 00 051416 		JUMPA	.+1		;IF TEST FAILS, CHANGE THIS INSTRUCTION (JUMPA .+1) TO
 33916									;JUMPA X (X IS THE ADDRESS OF THE FIRST INSTRUCTION
 33917									;IN THE SUBTEST) TO LOOP ON ERROR^
 33918
 33919					;**********
 33920
 33921					;THIS TEST VERIFIES THAT AOJLE INCREMENTS C(AC) BY 0,,1 AND
 33922					;PLACES THE RESULT BACK INTO THE AC.  THE RESULT IN THE AC IS
 33923					;COMPARED TO 0 AND THE PROGRAM JUMPS TO THE LOCATION
 33924					;SPECIFIED BY E IF C(AC) IS LESS THAN OR EQUAL TO 0
 33925					;IN THIS CASE, C(AC) IS -1,,-1 BEFORE INCREMENTING
 33926					;HENCE, AOJLE SHOULD JUMP.
 33927
 33928	051416	474 13 0 00 000000 	C52710:	SETO	13,		;PRELOAD AC WITH -1,,-1
 33929	051417	343 13 0 00 051421 		AOJLE	13,.+2		;*AOJLE SHOULD ADD 0,,1 TO C(AC)
 33930									;AND JUMP
 33931						STOP^
 33932	051420	254 04 0 00 051421 		HALT	.+1		;TEST FAILED IF PROGRAM HALTS HERE
 33933	051421	324 00 0 00 051422 		JUMPA	.+1		;IF TEST FAILS, CHANGE THIS INSTRUCTION (JUMPA .+1) TO
 33934									;JUMPA X (X IS THE ADDRESS OF THE FIRST INSTRUCTION
 33935									;IN THE SUBTEST) TO LOOP ON ERROR^
 33936	051422	302 13 0 00 000000 		CAIE	13,0		;PASS IF C(AC) INCREMENTED CORRECTLY
 33937						STOP^
 33938	051423	254 04 0 00 051424 		HALT	.+1		;TEST FAILED IF PROGRAM HALTS HERE
 33939	051424	324 00 0 00 051425 		JUMPA	.+1		;IF TEST FAILS, CHANGE THIS INSTRUCTION (JUMPA .+1) TO
 33940									;JUMPA X (X IS THE ADDRESS OF THE FIRST INSTRUCTION
 33941									;IN THE SUBTEST) TO LOOP ON ERROR^
 33942
 33943					;**********
DFKAA PDP-10 KL10 BASIC INSTRUCTION DIAGNOSTIC (1) VER 0,2	MACRO %53B(1254)-4 11:50 11-Nov-24 Page 50
DFKAA5	MAC	13-Jan-89 10:22		TEST OF MSCL AOJX INSTRUCTIONS

 33944					;THIS TEST VERIFIES THAT AOJLE INCREMENTS C(AC) BY 0,,1 AND
 33945					;PLACES THE RESULT BACK INTO THE AC.  THE RESULT IN THE AC IS
 33946					;COMPARED TO 0 AND THE PROGRAM JUMPS TO THE LOCATION
 33947					;SPECIFIED BY E IF C(AC) IS LESS THAN OR EQUAL TO 0.
 33948					;IN THIS CASE, C(AC) IS 0
 33949					;HENCE, AOJLE SHOULD NOT JUMP.
 33950
 33951	051425	400 13 0 00 000000 	C52720:	SETZ	13,		;PRELOAD AC WITH 0
 33952	051426	343 13 0 00 051430 		AOJLE	13,.+2		;*AOJLE SHOULD ADD 0,,1 TO C(AC)
 33953									;AND NOT JUMP
 33954	051427	334 00 0 00 000000 		SKIPA			;PASS IF AOJLE DID NOT JUMP
 33955						STOP^
 33956	051430	254 04 0 00 051431 		HALT	.+1		;TEST FAILED IF PROGRAM HALTS HERE
 33957	051431	324 00 0 00 051432 		JUMPA	.+1		;IF TEST FAILS, CHANGE THIS INSTRUCTION (JUMPA .+1) TO
 33958									;JUMPA X (X IS THE ADDRESS OF THE FIRST INSTRUCTION
 33959									;IN THE SUBTEST) TO LOOP ON ERROR^
 33960	051432	302 13 0 00 000001 		CAIE	13,1		;PASS IF C(AC) INCREMENTED CORRECTLY
 33961						STOP^
 33962	051433	254 04 0 00 051434 		HALT	.+1		;TEST FAILED IF PROGRAM HALTS HERE
 33963	051434	324 00 0 00 051435 		JUMPA	.+1		;IF TEST FAILS, CHANGE THIS INSTRUCTION (JUMPA .+1) TO
 33964									;JUMPA X (X IS THE ADDRESS OF THE FIRST INSTRUCTION
 33965									;IN THE SUBTEST) TO LOOP ON ERROR^
 33966
 33967					;**********
 33968
 33969					;THIS TEST VERIFIES THAT AOJA INCREMENTS C(AC) BY 0,,1 AND
 33970					;PLACES THE RESULT BACK INTO THE AC.  THE RESULT IN THE AC IS
 33971					;COMPARED TO 0 AND THE PROGRAM ALWAYS JUMPS TO THE LOCATION
 33972					;SPECIFIED BY E.
 33973					;IN THIS CASE, C(AC) IS -1,,-2 BEFORE INCREMENTING
 33974					;HENCE, AOJA SHOULD JUMP
 33975
 33976	051435	561 12 0 00 777776 	C53000:	HRROI	12,-2		;PRELOAD AC WITH -1,,-2
 33977	051436	344 12 0 00 051440 		AOJA	12,.+2		;*AOJA SHOULD ADD 0,,1 TO C(AC)
 33978									;AND JUMP
 33979						STOP^
 33980	051437	254 04 0 00 051440 		HALT	.+1		;TEST FAILED IF PROGRAM HALTS HERE
 33981	051440	324 00 0 00 051441 		JUMPA	.+1		;IF TEST FAILS, CHANGE THIS INSTRUCTION (JUMPA .+1) TO
 33982									;JUMPA X (X IS THE ADDRESS OF THE FIRST INSTRUCTION
 33983									;IN THE SUBTEST) TO LOOP ON ERROR^
 33984	051441	312 12 0 00 070254 		CAME	12,[-1]		;PASS IF C(AC) INCREMENTED CORRECTLY
 33985						STOP^
 33986	051442	254 04 0 00 051443 		HALT	.+1		;TEST FAILED IF PROGRAM HALTS HERE
 33987	051443	324 00 0 00 051444 		JUMPA	.+1		;IF TEST FAILS, CHANGE THIS INSTRUCTION (JUMPA .+1) TO
 33988									;JUMPA X (X IS THE ADDRESS OF THE FIRST INSTRUCTION
 33989									;IN THE SUBTEST) TO LOOP ON ERROR^
 33990
 33991					;**********
DFKAA PDP-10 KL10 BASIC INSTRUCTION DIAGNOSTIC (1) VER 0,2	MACRO %53B(1254)-4 11:50 11-Nov-24 Page 51
DFKAA5	MAC	13-Jan-89 10:22		TEST OF MSCL AOJX INSTRUCTIONS

 33992					;THIS TEST VERIFIES THAT AOJA INCREMENTS C(AC) BY 0,,1 AND
 33993					;PLACES THE RESULT BACK INTO AC.  THE RESULT IN THE AC IS
 33994					;COMPARED TO 0 AND THE PROGRAM ALWAYS JUMPS TO THE LOCATION
 33995					;SPECIFIED BY E.
 33996					;IN THIS CASE, C(AC) IS -1,,-1 BEFORE INCREMENTING
 33997					;HENCE, AOJA SHOULD JUMP
 33998
 33999	051444	474 12 0 00 000000 	C53010:	SETO	12,		;PRELOAD AC WITH -1,,-1
 34000	051445	344 12 0 00 051447 		AOJA	12,.+2		;*AOJA SHOULD ADD 0,,1 TO C(AC)
 34001									;AND JUMP
 34002						STOP^
 34003	051446	254 04 0 00 051447 		HALT	.+1		;TEST FAILED IF PROGRAM HALTS HERE
 34004	051447	324 00 0 00 051450 		JUMPA	.+1		;IF TEST FAILS, CHANGE THIS INSTRUCTION (JUMPA .+1) TO
 34005									;JUMPA X (X IS THE ADDRESS OF THE FIRST INSTRUCTION
 34006									;IN THE SUBTEST) TO LOOP ON ERROR^
 34007	051450	302 12 0 00 000000 		CAIE	12,0		;PASS IF C(AC) INCREMENTED CORRECTLY
 34008						STOP^
 34009	051451	254 04 0 00 051452 		HALT	.+1		;TEST FAILED IF PROGRAM HALTS HERE
 34010	051452	324 00 0 00 051453 		JUMPA	.+1		;IF TEST FAILS, CHANGE THIS INSTRUCTION (JUMPA .+1) TO
 34011									;JUMPA X (X IS THE ADDRESS OF THE FIRST INSTRUCTION
 34012									;IN THE SUBTEST) TO LOOP ON ERROR^
 34013
 34014					;**********
 34015
 34016					;THIS TEST VERIFIES THAT AOJA INCREMENTS C(AC) BY 0,,1 AND
 34017					;PLACES THE RESULT BACK INTO THE AC.  THE RESULT IN THE AC IS
 34018					;COMPARED TO 0 AND THE PROGRAM ALWAYS JUMPS TO THE LOCATION
 34019					;SPECIFIED BY E.
 34020					;IN THIS CASE, C(AC) IS 0 BEFORE INCREMENTING
 34021					;HENCE, AOJA SHOULD JUMP
 34022
 34023	051453	400 12 0 00 000000 	C53020:	SETZ	12,		;PRELOAD AC WITH 0
 34024	051454	344 12 0 00 051456 		AOJA	12,.+2		;*AOJA SHOULD ADD 0,,1 TO C(AC)
 34025									;AND JUMP
 34026						STOP^
 34027	051455	254 04 0 00 051456 		HALT	.+1		;TEST FAILED IF PROGRAM HALTS HERE
 34028	051456	324 00 0 00 051457 		JUMPA	.+1		;IF TEST FAILS, CHANGE THIS INSTRUCTION (JUMPA .+1) TO
 34029									;JUMPA X (X IS THE ADDRESS OF THE FIRST INSTRUCTION
 34030									;IN THE SUBTEST) TO LOOP ON ERROR^
 34031	051457	302 12 0 00 000001 		CAIE	12,1		;PASS IF C(AC) INCREMENTED CORRECTLY
 34032						STOP^
 34033	051460	254 04 0 00 051461 		HALT	.+1		;TEST FAILED IF PROGRAM HALTS HERE
 34034	051461	324 00 0 00 051462 		JUMPA	.+1		;IF TEST FAILS, CHANGE THIS INSTRUCTION (JUMPA .+1) TO
 34035									;JUMPA X (X IS THE ADDRESS OF THE FIRST INSTRUCTION
 34036									;IN THE SUBTEST) TO LOOP ON ERROR^
 34037
 34038					;**********
DFKAA PDP-10 KL10 BASIC INSTRUCTION DIAGNOSTIC (1) VER 0,2	MACRO %53B(1254)-4 11:50 11-Nov-24 Page 52
DFKAA5	MAC	13-Jan-89 10:22		TEST OF MSCL AOJX INSTRUCTIONS

 34039					;THIS TEST VERIFIES THAT AOJGE INCREMENTS C(AC) BY 0,,1 AND
 34040					;PLACES THE RESULT BACK INTO THE AC.  THE RESULT IN THE AC IS
 34041					;COMPARED TO 0 AND THE PROGRAM JUMPS TO THE LOCATION
 34042					;SPECIFIED BY E IF C(AC) IS GREATER THAN OR EQUAL TO 0
 34043					;IN THIS CASE, C(AC) IS -1,,-2 BEFORE INCREMENTING
 34044					;HENCE, AOJGE SHOULD NOT JUMP
 34045
 34046	051462	561 11 0 00 777776 	C53100:	HRROI	11,-2		;PRELOAD AC WITH -1,,-2
 34047	051463	345 11 0 00 051465 		AOJGE	11,.+2		;*AOJGE SHOULD ADD 0,,1 TO C(AC)
 34048									;AND NOT JUMP
 34049	051464	334 00 0 00 000000 		SKIPA			;PASS IF AOJGE DID NOT JUMP
 34050						STOP^
 34051	051465	254 04 0 00 051466 		HALT	.+1		;TEST FAILED IF PROGRAM HALTS HERE
 34052	051466	324 00 0 00 051467 		JUMPA	.+1		;IF TEST FAILS, CHANGE THIS INSTRUCTION (JUMPA .+1) TO
 34053									;JUMPA X (X IS THE ADDRESS OF THE FIRST INSTRUCTION
 34054									;IN THE SUBTEST) TO LOOP ON ERROR^
 34055	051467	312 11 0 00 070254 		CAME	11,[-1]		;PASS IF C(AC) INCREMENTED CORRECTLY
 34056						STOP^
 34057	051470	254 04 0 00 051471 		HALT	.+1		;TEST FAILED IF PROGRAM HALTS HERE
 34058	051471	324 00 0 00 051472 		JUMPA	.+1		;IF TEST FAILS, CHANGE THIS INSTRUCTION (JUMPA .+1) TO
 34059									;JUMPA X (X IS THE ADDRESS OF THE FIRST INSTRUCTION
 34060									;IN THE SUBTEST) TO LOOP ON ERROR^
 34061
 34062					;**********
 34063
 34064					;THIS TEST VERIFIES THAT AOJGE INCREMENTS C(AC) BY 0,,1 AND
 34065					;PLACES THE RESULT BACK INTO THE AC.  THE RESULT IN THE AC IS
 34066					;COMPARED TO 0 AND THE PROGRAM JUMPS TO THE LOCATION
 34067					;SPECIFIED BY E IF C(AC) IS GREATER THAN OR EQUAL TO 0.
 34068					;IN THIS CASE, C(AC) IS -1,,-1 BEFORE INCREMENTING
 34069					;HENCE, AOJ SHOULD JUMP
 34070
 34071	051472	474 11 0 00 000000 	C53110:	SETO	11,		;PRELOAD AC WITH -1,,-1
 34072	051473	345 11 0 00 051475 		AOJGE	11,.+2		;*AOJGE SHOULD ADD 0,,1 TO C(AC)
 34073									;AND JUMP
 34074						STOP^
 34075	051474	254 04 0 00 051475 		HALT	.+1		;TEST FAILED IF PROGRAM HALTS HERE
 34076	051475	324 00 0 00 051476 		JUMPA	.+1		;IF TEST FAILS, CHANGE THIS INSTRUCTION (JUMPA .+1) TO
 34077									;JUMPA X (X IS THE ADDRESS OF THE FIRST INSTRUCTION
 34078									;IN THE SUBTEST) TO LOOP ON ERROR^
 34079	051476	302 11 0 00 000000 		CAIE	11,0		;PASS IF C(AC) INCREMENTED CORRECTLY
 34080						STOP^
 34081	051477	254 04 0 00 051500 		HALT	.+1		;TEST FAILED IF PROGRAM HALTS HERE
 34082	051500	324 00 0 00 051501 		JUMPA	.+1		;IF TEST FAILS, CHANGE THIS INSTRUCTION (JUMPA .+1) TO
 34083									;JUMPA X (X IS THE ADDRESS OF THE FIRST INSTRUCTION
 34084									;IN THE SUBTEST) TO LOOP ON ERROR^
 34085
 34086					;**********
DFKAA PDP-10 KL10 BASIC INSTRUCTION DIAGNOSTIC (1) VER 0,2	MACRO %53B(1254)-4 11:50 11-Nov-24 Page 53
DFKAA5	MAC	13-Jan-89 10:22		TEST OF MSCL AOJX INSTRUCTIONS

 34087					;THIS TEST VERIFIES THAT AOJGE INCREMENTS C(AC) BY 0,,1 AND
 34088					;PLACES THE RESULT BACK INTO AC.  THE RESULT IN THE AC IS
 34089					;COMPARED TO 0 AND THE PROGRAM JUMPS TO THE LOCATION
 34090					;SPECIFIED BY E IF C(AC) IS GREATER THAN OR EQUAL TO 0
 34091					;IN THIS CASE, C(AC) IS 0 BEFORE INCREMENTING
 34092					;HENCE, AOJGE SHOULD JUMP
 34093
 34094	051501	400 11 0 00 000000 	C53120:	SETZ	11,		;PRELOAD AC WITH 0
 34095	051502	345 11 0 00 051504 		AOJGE	11,.+2		;*AOJGE SHOULD ADD 0,,1 TO C(AC)
 34096									;AND JUMP
 34097						STOP^
 34098	051503	254 04 0 00 051504 		HALT	.+1		;TEST FAILED IF PROGRAM HALTS HERE
 34099	051504	324 00 0 00 051505 		JUMPA	.+1		;IF TEST FAILS, CHANGE THIS INSTRUCTION (JUMPA .+1) TO
 34100									;JUMPA X (X IS THE ADDRESS OF THE FIRST INSTRUCTION
 34101									;IN THE SUBTEST) TO LOOP ON ERROR^
 34102	051505	302 11 0 00 000001 		CAIE	11,1		;PASS IF C(AC) INCREMENTED CORRECTLY
 34103						STOP^
 34104	051506	254 04 0 00 051507 		HALT	.+1		;TEST FAILED IF PROGRAM HALTS HERE
 34105	051507	324 00 0 00 051510 		JUMPA	.+1		;IF TEST FAILS, CHANGE THIS INSTRUCTION (JUMPA .+1) TO
 34106									;JUMPA X (X IS THE ADDRESS OF THE FIRST INSTRUCTION
 34107									;IN THE SUBTEST) TO LOOP ON ERROR^
 34108
 34109					;**********
 34110
 34111					;THIS TEST VERIFIES THAT AOJN INCREMENTS C(AC) BY 0,,1 AND
 34112					;PLACES THE RESULT BACK INTO THE AC.  THE RESULT IN THE AC IS
 34113					;COMPARED TO 0 AND THE PROGRAM JUMPS TO THE LOCATION
 34114					;SPECIFIED BY E IF C(AC) IS NOT EQUAL TO 0.
 34115					;IN THIS CASE, C(AC) IS -1,,-2 BEFORE INCREMENTING
 34116					;HENCE, AOJN SHOULD JUMP
 34117
 34118	051510	561 10 0 00 777776 	C53200:	HRROI	10,-2		;PRELOAD AC WITH -1,,-2
 34119	051511	346 10 0 00 051513 		AOJN	10,.+2		;*AOJN SHOULD ADD 0,,1 TO C(AC)
 34120									;AND JUMP
 34121						STOP^
 34122	051512	254 04 0 00 051513 		HALT	.+1		;TEST FAILED IF PROGRAM HALTS HERE
 34123	051513	324 00 0 00 051514 		JUMPA	.+1		;IF TEST FAILS, CHANGE THIS INSTRUCTION (JUMPA .+1) TO
 34124									;JUMPA X (X IS THE ADDRESS OF THE FIRST INSTRUCTION
 34125									;IN THE SUBTEST) TO LOOP ON ERROR^
 34126	051514	312 10 0 00 070254 		CAME	10,[-1]		;PASS IF C(AC) INCREMENTED CORRECTLY
 34127						STOP^
 34128	051515	254 04 0 00 051516 		HALT	.+1		;TEST FAILED IF PROGRAM HALTS HERE
 34129	051516	324 00 0 00 051517 		JUMPA	.+1		;IF TEST FAILS, CHANGE THIS INSTRUCTION (JUMPA .+1) TO
 34130									;JUMPA X (X IS THE ADDRESS OF THE FIRST INSTRUCTION
 34131									;IN THE SUBTEST) TO LOOP ON ERROR^
 34132
 34133					;**********
DFKAA PDP-10 KL10 BASIC INSTRUCTION DIAGNOSTIC (1) VER 0,2	MACRO %53B(1254)-4 11:50 11-Nov-24 Page 54
DFKAA5	MAC	13-Jan-89 10:22		TEST OF MSCL AOJX INSTRUCTIONS

 34134					;THIS TEST VERIFIES THAT AOJN INCREMENTS C(AC) BY 0,,1 AND
 34135					;PLACES THE RESULT BACK INTO THE AC.  THE RESULT IN THE AC IS
 34136					;COMPARED TO 0 AND THE PROGRAM JUMPS TO THE LOCATION
 34137					;SPECIFIED BY E IF C(AC) IS NOT EQUAL TO 0.
 34138					;IN THIS CASE, C(AC) IS -1,,-1 BEFORE INCREMENTING
 34139					;HENCE, AOJ SHOULD NOT JUMP.
 34140
 34141	051517	474 10 0 00 000000 	C53210:	SETO	10,		;PRELOAD AC WITH -1,,-1
 34142	051520	346 10 0 00 051522 		AOJN	10,.+2		;*AOJN SHOULD ADD 0,,1 TO C(AC)
 34143									;AND NOT JUMP
 34144	051521	334 00 0 00 000000 		SKIPA			;PASS IF AOJN DID NOT JUMP
 34145						STOP^
 34146	051522	254 04 0 00 051523 		HALT	.+1		;TEST FAILED IF PROGRAM HALTS HERE
 34147	051523	324 00 0 00 051524 		JUMPA	.+1		;IF TEST FAILS, CHANGE THIS INSTRUCTION (JUMPA .+1) TO
 34148									;JUMPA X (X IS THE ADDRESS OF THE FIRST INSTRUCTION
 34149									;IN THE SUBTEST) TO LOOP ON ERROR^
 34150	051524	302 10 0 00 000000 		CAIE	10,0		;PASS IF C(AC) INCREMENTED CORRRECTLY
 34151						STOP^
 34152	051525	254 04 0 00 051526 		HALT	.+1		;TEST FAILED IF PROGRAM HALTS HERE
 34153	051526	324 00 0 00 051527 		JUMPA	.+1		;IF TEST FAILS, CHANGE THIS INSTRUCTION (JUMPA .+1) TO
 34154									;JUMPA X (X IS THE ADDRESS OF THE FIRST INSTRUCTION
 34155									;IN THE SUBTEST) TO LOOP ON ERROR^
 34156
 34157					;**********
 34158
 34159					;THIS TEST VERIFIES THAT AOJN INCREMENTS C(AC) BY 0,,1 AND
 34160					;PLACES THE RESULT BACK INTO THE AC.  THE RESULT IN THE AC IS
 34161					;COMPARED TO 0 AND THE PROGRAM JUMPS TO THE LOCATION
 34162					;SPECIFIED BY E IF C(AC) IS NOT EQUAL TO 0.
 34163					;IN THIS CASE, C(AC) IS 0 BEFORE INCREMENTING
 34164					;HENCE, AOJN SHOULD JUMP.
 34165
 34166	051527	400 10 0 00 000000 	C53220:	SETZ	10,		;PRELOAD AC WITH 0
 34167	051530	346 10 0 00 051532 		AOJN	10,.+2		;*AOJN SHOULD ADD 0,,1 TO C(AC)
 34168									;AND JUMP
 34169						STOP^
 34170	051531	254 04 0 00 051532 		HALT	.+1		;TEST FAILED IF PROGRAM HALTS HERE
 34171	051532	324 00 0 00 051533 		JUMPA	.+1		;IF TEST FAILS, CHANGE THIS INSTRUCTION (JUMPA .+1) TO
 34172									;JUMPA X (X IS THE ADDRESS OF THE FIRST INSTRUCTION
 34173									;IN THE SUBTEST) TO LOOP ON ERROR^
 34174	051533	302 10 0 00 000001 		CAIE	10,1		;PASS IF C(AC) INCREMENTED CORRECTLY
 34175						STOP^
 34176	051534	254 04 0 00 051535 		HALT	.+1		;TEST FAILED IF PROGRAM HALTS HERE
 34177	051535	324 00 0 00 051536 		JUMPA	.+1		;IF TEST FAILS, CHANGE THIS INSTRUCTION (JUMPA .+1) TO
 34178									;JUMPA X (X IS THE ADDRESS OF THE FIRST INSTRUCTION
 34179									;IN THE SUBTEST) TO LOOP ON ERROR^
 34180
 34181					;**********
DFKAA PDP-10 KL10 BASIC INSTRUCTION DIAGNOSTIC (1) VER 0,2	MACRO %53B(1254)-4 11:50 11-Nov-24 Page 55
DFKAA5	MAC	13-Jan-89 10:22		TEST OF MSCL AOJX INSTRUCTIONS

 34182					;THIS TEST VERIFIES THAT AOJG INCREMENTS C(AC) BY 0,,1 AND
 34183					;PLACES THE RESULT BACK INTO THE AC.  THE REAULT IN THE AC IS
 34184					;COMPARED TO 0 AND THE PROGRAM JUMPS TO THE LOCATION
 34185					;SPECIFIED BY E IF C(AC) IS GREATER THAN 0
 34186					;IN THIS CASE, C(AC) IS -1,,-2 BEFORE INC
 34187					;HENCE, AOJG SHOULD NOT JUMP
 34188
 34189	051536	561 07 0 00 777776 	C53300:	HRROI	7,-2		;PRELOAD AC WITH -1,,-2
 34190	051537	347 07 0 00 051541 		AOJG	7,.+2		;*AOJG SHOULD ADD 0,11 TO C(AC)
 34191									;AND NOT JUMP
 34192	051540	334 00 0 00 000000 		SKIPA			;PASS IF AOJG DID NOT JUMP
 34193						STOP^
 34194	051541	254 04 0 00 051542 		HALT	.+1		;TEST FAILED IF PROGRAM HALTS HERE
 34195	051542	324 00 0 00 051543 		JUMPA	.+1		;IF TEST FAILS, CHANGE THIS INSTRUCTION (JUMPA .+1) TO
 34196									;JUMPA X (X IS THE ADDRESS OF THE FIRST INSTRUCTION
 34197									;IN THE SUBTEST) TO LOOP ON ERROR^
 34198	051543	312 07 0 00 070254 		CAME	7,[-1]		;PASS IF C(AC) INCREMENTED CORRECTLY
 34199						STOP^
 34200	051544	254 04 0 00 051545 		HALT	.+1		;TEST FAILED IF PROGRAM HALTS HERE
 34201	051545	324 00 0 00 051546 		JUMPA	.+1		;IF TEST FAILS, CHANGE THIS INSTRUCTION (JUMPA .+1) TO
 34202									;JUMPA X (X IS THE ADDRESS OF THE FIRST INSTRUCTION
 34203									;IN THE SUBTEST) TO LOOP ON ERROR^
 34204
 34205					;**********
 34206
 34207					;THIS TEST VERIFIES THAT AOJG INCREMENTS C(AC) BY 0,,1 AND
 34208					;PLACES THE RESULT BACK INTO THE AC.  THE RESULT IN THE AC IS
 34209					;COMPARED TO 0 AND THE PROGRAM JUMPS TO THE LOCATION
 34210					;SPECIFIED BY E IF C(AC) IS GREATER THAN 0.
 34211					;IN THIS CASE, C(AC) IS -1,,-1 BEFORE INCREMENTING
 34212					;HENCE, AOJG SHOULD NOT JUMP.
 34213
 34214	051546	474 07 0 00 000000 	C53310:	SETO	7,		;PRELOAD AC WITH -1,,-1
 34215	051547	347 07 0 00 051551 		AOJG	7,.+2		;*AOJG SHOULD ADD 0,,1 TO C(AC)
 34216									;AND NOT JUMP
 34217	051550	334 00 0 00 000000 		SKIPA			;PASS IF AOJG DID NOT JUMP
 34218						STOP^
 34219	051551	254 04 0 00 051552 		HALT	.+1		;TEST FAILED IF PROGRAM HALTS HERE
 34220	051552	324 00 0 00 051553 		JUMPA	.+1		;IF TEST FAILS, CHANGE THIS INSTRUCTION (JUMPA .+1) TO
 34221									;JUMPA X (X IS THE ADDRESS OF THE FIRST INSTRUCTION
 34222									;IN THE SUBTEST) TO LOOP ON ERROR^
 34223	051553	302 07 0 00 000000 		CAIE	7,0		;PASS IF C(AC) INCREMENTED CORRECTLY
 34224						STOP^
 34225	051554	254 04 0 00 051555 		HALT	.+1		;TEST FAILED IF PROGRAM HALTS HERE
 34226	051555	324 00 0 00 051556 		JUMPA	.+1		;IF TEST FAILS, CHANGE THIS INSTRUCTION (JUMPA .+1) TO
 34227									;JUMPA X (X IS THE ADDRESS OF THE FIRST INSTRUCTION
 34228									;IN THE SUBTEST) TO LOOP ON ERROR^
 34229
 34230					;**********
DFKAA PDP-10 KL10 BASIC INSTRUCTION DIAGNOSTIC (1) VER 0,2	MACRO %53B(1254)-4 11:50 11-Nov-24 Page 56
DFKAA5	MAC	13-Jan-89 10:22		TEST OF MSCL AOJX INSTRUCTIONS

 34231					;THIS TEST VERIFIES THAT AOJG INCREMENTS C(AC) BY 0,,1 AND
 34232					;PLACES THE RESULT BACK INTO THE AC.  THE RESULT IN THE AC IS
 34233					;COMPARED TO 0 AND THE PROGRAM JUMPS TO THE LOCATION
 34234					;SPECIFIED BY E IF C(AC) IS GREATER THAN 0.
 34235					;IN THIS CASE, C(AC) IS 0 BEFORE INCREMENTING
 34236					;HENCE, AOJG SHOULD JUMP
 34237
 34238	051556	400 07 0 00 000000 	C53320:	SETZ	7,		;PRELOAD AC WITH 0
 34239	051557	347 07 0 00 051561 		AOJG	7,.+2		;*AOJG SHOULD ADD 0,,1 TO C(AC)
 34240									;AND JUMP
 34241						STOP^
 34242	051560	254 04 0 00 051561 		HALT	.+1		;TEST FAILED IF PROGRAM HALTS HERE
 34243	051561	324 00 0 00 051562 		JUMPA	.+1		;IF TEST FAILS, CHANGE THIS INSTRUCTION (JUMPA .+1) TO
 34244									;JUMPA X (X IS THE ADDRESS OF THE FIRST INSTRUCTION
 34245									;IN THE SUBTEST) TO LOOP ON ERROR^
 34246	051562	302 07 0 00 000001 		CAIE	7,1		;PASS IF C(AC) INCREMENTED CORRECTLY
 34247						STOP^
 34248	051563	254 04 0 00 051564 		HALT	.+1		;TEST FAILED IF PROGRAM HALTS HERE
 34249	051564	324 00 0 00 051565 		JUMPA	.+1		;IF TEST FAILS, CHANGE THIS INSTRUCTION (JUMPA .+1) TO
 34250									;JUMPA X (X IS THE ADDRESS OF THE FIRST INSTRUCTION
 34251									;IN THE SUBTEST) TO LOOP ON ERROR^
 34252
 34253					;**********
DFKAA PDP-10 KL10 BASIC INSTRUCTION DIAGNOSTIC (1) VER 0,2	MACRO %53B(1254)-4 11:50 11-Nov-24 Page 57
DFKAA5	MAC	13-Jan-89 10:22		TEST OF MSCL AOSX INSTRUCTIONS

 34254					SUBTTL	TEST OF MSCL AOSX INSTRUCTIONS
 34255
 34256					;**********
 34257
 34258					;THIS TEST VERIFIES THAT AOSL INCREMENTS C(E) BY 0,,1 AND PLACES
 34259					;THE RESULT INTO E.  THE RESULT IN E IS COMPARED TO 0 AND SKIPS
 34260					;THE NEXT INSTRUCTION IF C(E) IS LESS THAN 0
 34261					;IF THE AC IS NON-ZERO, THE RESULT IS ALSO PLACED INTO THE AC.
 34262					;IN THIS CASE, AC=6, C(AC)=707070,,707070 AND C(E)=-1,,-2
 34263					;BEFORE INCREMENTING.  HENCE, AOSL SHOULD SKIP ; AND THE
 34264					;FINAL RESULTS IN AC AND E SHOULD BE -1,,-1 AND -1,,-1
 34265					;RESPECTIVELY.
 34266
 34267	051565	200 06 0 00 070332 	C53400:	MOVE	6,[707070,,707070] ;PRELOAD AC WITH 707070,,707070
 34268	051566	561 07 0 00 777776 		HRROI	7,-2		;PRELOAD E WITH -1,,-2
 34269	051567	351 06 0 00 000007 		AOSL	6,7		;*AOSL SHOULD ADD 0,,1 TO C(E),
 34270									;UPDATE AC AND SKIP
 34271						STOP^
 34272	051570	254 04 0 00 051571 		HALT	.+1		;TEST FAILED IF PROGRAM HALTS HERE
 34273	051571	324 00 0 00 051572 		JUMPA	.+1		;IF TEST FAILS, CHANGE THIS INSTRUCTION (JUMPA .+1) TO
 34274									;JUMPA X (X IS THE ADDRESS OF THE FIRST INSTRUCTION
 34275									;IN THE SUBTEST) TO LOOP ON ERROR^
 34276	051572	312 07 0 00 070254 		CAME	7,[-1]		;PASS IF E INCREMENTED CORRECTLY
 34277						STOP^
 34278	051573	254 04 0 00 051574 		HALT	.+1		;TEST FAILED IF PROGRAM HALTS HERE
 34279	051574	324 00 0 00 051575 		JUMPA	.+1		;IF TEST FAILS, CHANGE THIS INSTRUCTION (JUMPA .+1) TO
 34280									;JUMPA X (X IS THE ADDRESS OF THE FIRST INSTRUCTION
 34281									;IN THE SUBTEST) TO LOOP ON ERROR^
 34282	051575	312 06 0 00 070254 		CAME	6,[-1]		;PASS IF AC WAS UPDATED IF AC NON-ZERO
 34283						STOP^
 34284	051576	254 04 0 00 051577 		HALT	.+1		;TEST FAILED IF PROGRAM HALTS HERE
 34285	051577	324 00 0 00 051600 		JUMPA	.+1		;IF TEST FAILS, CHANGE THIS INSTRUCTION (JUMPA .+1) TO
 34286									;JUMPA X (X IS THE ADDRESS OF THE FIRST INSTRUCTION
 34287									;IN THE SUBTEST) TO LOOP ON ERROR^
 34288
 34289					;**********
 34290
 34291					;THIS TEST VERIFIES THAT AOSL INCREMENTS C(E) BY 0,,1 AND PLACES
 34292					;THE RESULT INTO E.  THE RESULT IN E IS COMPARED TO 0 AND SKIPS
 34293					;THE NEXT INSTRUCTION IF C(E) IS LESS THAN 0
 34294					;IF THE AC IS NON-ZERO, THE RESULT IS ALSO PLACED INTO THE AC.
 34295					;IN THIS CASE, AC=6, C(AC)=707070,,707070 AND C(E)=-1,,-2
 34296					;BEFORE INCREMENTING.  HENCE, AOSL SHOULD SKIP ; AND THE
 34297					;FINAL RESULTS IN AC AND E SHOULD BE -1,,-1 AND -1,,-1
 34298					;RESPECTIVELY.
 34299
 34300	051600	200 06 0 00 070332 	C53401:	MOVE	6,[707070,,707070] ;PRELOAD AC WITH 707070,,707070
 34301	051601	561 07 0 00 777776 		HRROI	7,-2		;PRELOAD E WITH -1,,-2
 34302	051602	202 07 0 00 051616 		MOVEM	7,E53401
 34303	051603	351 06 0 00 051616 		AOSL	6,E53401	;*AOSL SHOULD ADD 0,,1 TO C(E),
 34304									;UPDATE AC AND SKIP
 34305						STOP^
 34306	051604	254 04 0 00 051605 		HALT	.+1		;TEST FAILED IF PROGRAM HALTS HERE
 34307	051605	324 00 0 00 051606 		JUMPA	.+1		;IF TEST FAILS, CHANGE THIS INSTRUCTION (JUMPA .+1) TO
 34308									;JUMPA X (X IS THE ADDRESS OF THE FIRST INSTRUCTION
DFKAA PDP-10 KL10 BASIC INSTRUCTION DIAGNOSTIC (1) VER 0,2	MACRO %53B(1254)-4 11:50 11-Nov-24 Page 57-1
DFKAA5	MAC	13-Jan-89 10:22		TEST OF MSCL AOSX INSTRUCTIONS

 34309									;IN THE SUBTEST) TO LOOP ON ERROR^
 34310	051606	200 07 0 00 051616 		MOVE	7,E53401
 34311	051607	312 07 0 00 070254 		CAME	7,[-1]		;PASS IF E INCREMENTED CORRECTLY
 34312						STOP^
 34313	051610	254 04 0 00 051611 		HALT	.+1		;TEST FAILED IF PROGRAM HALTS HERE
 34314	051611	324 00 0 00 051612 		JUMPA	.+1		;IF TEST FAILS, CHANGE THIS INSTRUCTION (JUMPA .+1) TO
 34315									;JUMPA X (X IS THE ADDRESS OF THE FIRST INSTRUCTION
 34316									;IN THE SUBTEST) TO LOOP ON ERROR^
 34317	051612	312 06 0 00 070254 		CAME	6,[-1]		;PASS IF AC WAS UPDATED IF AC NON-ZERO
 34318						STOP^
 34319	051613	254 04 0 00 051614 		HALT	.+1		;TEST FAILED IF PROGRAM HALTS HERE
 34320	051614	324 00 0 00 051615 		JUMPA	.+1		;IF TEST FAILS, CHANGE THIS INSTRUCTION (JUMPA .+1) TO
 34321									;JUMPA X (X IS THE ADDRESS OF THE FIRST INSTRUCTION
 34322									;IN THE SUBTEST) TO LOOP ON ERROR^
 34323
 34324	051615	334 00 0 00 000000 		SKIPA			;GO TO NEXT TEST
 34325	051616	000000	000000		E53401:	0			;TEST WORD MEMORY
 34326
 34327					;**********
DFKAA PDP-10 KL10 BASIC INSTRUCTION DIAGNOSTIC (1) VER 0,2	MACRO %53B(1254)-4 11:50 11-Nov-24 Page 58
DFKAA5	MAC	13-Jan-89 10:22		TEST OF MSCL AOSX INSTRUCTIONS

 34328					;THIS TEST VERIFIES THAT AOSL INCREMENTS C(E) BY 0,,1 AND PLACES
 34329					;THE RESULT INTO E.  THE RESULT IN E IS COMPARED TO 0 AND SKIPS
 34330					;THE NEXT INSTRUCTION IF C(E) ISLESS THAN 0
 34331					;IF THE AC IS NON-ZERO, THE RESULT IS ALSO PLACED INTO THE AC.
 34332					;IN THIS CASE, AC=6, C(AC)=707070,,707070 AND C(E)=-1,,-1
 34333					;BEFORE INCREMENTING.  HENCE, AOSL SHOULD NOT SKIP; AND THE
 34334					;FINAL RESULTS IN AC AND E SHOULD BE 0 AND 0
 34335					;RESPECTIVELY.
 34336
 34337	051617	200 06 0 00 070332 	C53410:	MOVE	6,[707070,,707070]	;PRELOAD AC WITH 707070,,707070
 34338	051620	474 07 0 00 000000 		SETO	7,		;PRELOAD E WITH -1,,-1
 34339	051621	351 06 0 00 000007 		AOSL	6,7		;*AOSL SHOULD ADD 00,1 TO C(E)
 34340									;UPDATE AC AND NOT SKIP
 34341	051622	334 00 0 00 000000 		SKIPA			;PASS IF AOSL DID NOT SKIP
 34342						STOP^
 34343	051623	254 04 0 00 051624 		HALT	.+1		;TEST FAILED IF PROGRAM HALTS HERE
 34344	051624	324 00 0 00 051625 		JUMPA	.+1		;IF TEST FAILS, CHANGE THIS INSTRUCTION (JUMPA .+1) TO
 34345									;JUMPA X (X IS THE ADDRESS OF THE FIRST INSTRUCTION
 34346									;IN THE SUBTEST) TO LOOP ON ERROR^
 34347	051625	312 07 0 00 070253 		CAME	7,[0]		;PASS IF E INCREMENTED CORRECTLY
 34348						STOP^
 34349	051626	254 04 0 00 051627 		HALT	.+1		;TEST FAILED IF PROGRAM HALTS HERE
 34350	051627	324 00 0 00 051630 		JUMPA	.+1		;IF TEST FAILS, CHANGE THIS INSTRUCTION (JUMPA .+1) TO
 34351									;JUMPA X (X IS THE ADDRESS OF THE FIRST INSTRUCTION
 34352									;IN THE SUBTEST) TO LOOP ON ERROR^
 34353	051630	312 06 0 00 070253 		CAME	6,[0]		;PASS IF AC WAS UPDATED IF AC NON-ZERO
 34354						STOP^
 34355	051631	254 04 0 00 051632 		HALT	.+1		;TEST FAILED IF PROGRAM HALTS HERE
 34356	051632	324 00 0 00 051633 		JUMPA	.+1		;IF TEST FAILS, CHANGE THIS INSTRUCTION (JUMPA .+1) TO
 34357									;JUMPA X (X IS THE ADDRESS OF THE FIRST INSTRUCTION
 34358									;IN THE SUBTEST) TO LOOP ON ERROR^
 34359
 34360					;**********
DFKAA PDP-10 KL10 BASIC INSTRUCTION DIAGNOSTIC (1) VER 0,2	MACRO %53B(1254)-4 11:50 11-Nov-24 Page 59
DFKAA5	MAC	13-Jan-89 10:22		TEST OF MSCL AOSX INSTRUCTIONS

 34361					;THIS TEST VERIFIES THAT AOSL INCREMENTS C(E) BY 0,,1 AND PLACES
 34362					;THE RESULT INTO E.  THE RESULT IN E IS COMPARED TO 0 AND SKIPS
 34363					;THE NEXT INSTRUCTION IF C(E) IS LESS THAN 0.
 34364					;IF THE AC IS NON-ZERO, THE RESULT IS ALSO PLACED INTO THE AC.
 34365					;IN THIS CASE, AC=6, C(AC)=707070,,707070 AND C(E)=0
 34366					;BEFORE INCREMENTING.  HENCE, AOSL SHOULD NOT SKIP; AND THE
 34367					;FINAL RESULTS IN AC AND E SHOULD BE 0,,1 AND 0,,1
 34368					;RESPECTIVELY
 34369
 34370	051633	200 06 0 00 070332 	C53420:	MOVE	6,[707070,,707070]	;PRELOAD AC WITH 707070,,707070
 34371	051634	400 07 0 00 000000 		SETZ	7,		;PRELOAD E WITH 0
 34372	051635	351 06 0 00 000007 		AOSL	6,7		;*AOSL SHOULD ADD 0,,1 TO C(E).
 34373									;UPDATE AC AND NOT SKIP
 34374	051636	334 00 0 00 000000 		SKIPA			;PASS IF AOSL DID NOT SKIP
 34375						STOP^
 34376	051637	254 04 0 00 051640 		HALT	.+1		;TEST FAILED IF PROGRAM HALTS HERE
 34377	051640	324 00 0 00 051641 		JUMPA	.+1		;IF TEST FAILS, CHANGE THIS INSTRUCTION (JUMPA .+1) TO
 34378									;JUMPA X (X IS THE ADDRESS OF THE FIRST INSTRUCTION
 34379									;IN THE SUBTEST) TO LOOP ON ERROR^
 34380	051641	312 07 0 00 070265 		CAME	7,[1]		;PASS IF E INCREMENTED CORRECTLY
 34381						STOP^
 34382	051642	254 04 0 00 051643 		HALT	.+1		;TEST FAILED IF PROGRAM HALTS HERE
 34383	051643	324 00 0 00 051644 		JUMPA	.+1		;IF TEST FAILS, CHANGE THIS INSTRUCTION (JUMPA .+1) TO
 34384									;JUMPA X (X IS THE ADDRESS OF THE FIRST INSTRUCTION
 34385									;IN THE SUBTEST) TO LOOP ON ERROR^
 34386	051644	312 06 0 00 070265 		CAME	6,[1]		;PASS IF AC WAS UPDATED IF AC NON-ZERO
 34387						STOP^
 34388	051645	254 04 0 00 051646 		HALT	.+1		;TEST FAILED IF PROGRAM HALTS HERE
 34389	051646	324 00 0 00 051647 		JUMPA	.+1		;IF TEST FAILS, CHANGE THIS INSTRUCTION (JUMPA .+1) TO
 34390									;JUMPA X (X IS THE ADDRESS OF THE FIRST INSTRUCTION
 34391									;IN THE SUBTEST) TO LOOP ON ERROR^
 34392
 34393					;**********
 34394
 34395					;THIS TEST VERIFIES THAT AOSE INCREMENTS C(E) BY 0,,1 AND PLACES
 34396					;THE RESULT INTO E.  THE RESULT IN E IS COMPARED TO 0 AND SKIPS
 34397					;THE NEXT INSTRUCTION IF C(E) IS EQUAL TO 0.
 34398					;IF THE AC IS NON-ZERO, THE RESULT IS ALSO PLACED INTO THE AC.
 34399					;IN THIS CASE, AC=5, C(AC)=707070,,707070AND C(E)=-1,,-2
 34400					;BEFORE INCREMENTING.  HENCE, AOSE SHOULD NOT SKIP; AND THE
 34401					;FINAL RESULTS IN AC AND E SHOULD BE -1,,-1 AND -1,,-1
 34402					;RESPECTIVELY.
 34403
 34404	051647	200 05 0 00 070332 	C53500:	MOVE	5,[707070,,707070]	;PRELOAD AC WITH 707070,,707070
 34405	051650	561 06 0 00 777776 		HRROI	6,-2		;PRELOAD E WITH -1,,-2
 34406	051651	352 05 0 00 000006 		AOSE	5,6		;*AOSE SHOULD ADD 0,,1 TO C(E),
 34407									;UPDATE AC AND NOT SKIP
 34408	051652	334 00 0 00 000000 		SKIPA			;PASS IF AOSE DID NOT SKIP
 34409						STOP^
 34410	051653	254 04 0 00 051654 		HALT	.+1		;TEST FAILED IF PROGRAM HALTS HERE
 34411	051654	324 00 0 00 051655 		JUMPA	.+1		;IF TEST FAILS, CHANGE THIS INSTRUCTION (JUMPA .+1) TO
 34412									;JUMPA X (X IS THE ADDRESS OF THE FIRST INSTRUCTION
 34413									;IN THE SUBTEST) TO LOOP ON ERROR^
 34414	051655	312 06 0 00 070254 		CAME	6,[-1]		;PASS IF E INCREMENTED CORRECTLY
 34415						STOP^
DFKAA PDP-10 KL10 BASIC INSTRUCTION DIAGNOSTIC (1) VER 0,2	MACRO %53B(1254)-4 11:50 11-Nov-24 Page 59-1
DFKAA5	MAC	13-Jan-89 10:22		TEST OF MSCL AOSX INSTRUCTIONS

 34416	051656	254 04 0 00 051657 		HALT	.+1		;TEST FAILED IF PROGRAM HALTS HERE
 34417	051657	324 00 0 00 051660 		JUMPA	.+1		;IF TEST FAILS, CHANGE THIS INSTRUCTION (JUMPA .+1) TO
 34418									;JUMPA X (X IS THE ADDRESS OF THE FIRST INSTRUCTION
 34419									;IN THE SUBTEST) TO LOOP ON ERROR^
 34420	051660	312 05 0 00 070254 		CAME	5,[-1]		;PASS IF AC WAS UPDATED IF AC NON-ZERO
 34421						STOP^
 34422	051661	254 04 0 00 051662 		HALT	.+1		;TEST FAILED IF PROGRAM HALTS HERE
 34423	051662	324 00 0 00 051663 		JUMPA	.+1		;IF TEST FAILS, CHANGE THIS INSTRUCTION (JUMPA .+1) TO
 34424									;JUMPA X (X IS THE ADDRESS OF THE FIRST INSTRUCTION
 34425									;IN THE SUBTEST) TO LOOP ON ERROR^
 34426
 34427					;**********
DFKAA PDP-10 KL10 BASIC INSTRUCTION DIAGNOSTIC (1) VER 0,2	MACRO %53B(1254)-4 11:50 11-Nov-24 Page 60
DFKAA5	MAC	13-Jan-89 10:22		TEST OF MSCL AOSX INSTRUCTIONS

 34428					;THIS TEST VERIFIES THAT AOSE INCREMENTS C(E) BY 0,,1 AND PLACES
 34429					;THE RESULT INTO E.  THE RESULT IN E IS COMPARED TO 0 AND SKIPS
 34430					;THE NEXT INSTRUCTION IF C(E) IS EQUAL TO 0
 34431					;IF THE AC IS NON-ZERO, THE RESULT IS ALSO PLACED INTO THE AC.
 34432					;IN THIS CASE, AC=5, C(AC)=707070,,707070 AND C(E)=-1,,-1
 34433					;BEFORE INCREMENTING.  HENCE, AOSE SHOULD SKIP; AND THE
 34434					;FINAL RESULTS IN AC AND E SHOULD BE 0 AND 0
 34435					;RESPECTIVELY.
 34436
 34437	051663	200 05 0 00 070332 	C53510:	MOVE	5,[707070,,707070]	;PRELOAD AC WITH 707070,,707070
 34438	051664	474 06 0 00 000000 		SETO	6,		;PRELOAD E WITH -1,,-1
 34439	051665	352 05 0 00 000006 		AOSE	5,6		;*AOSE SHOULD ADD 0,,1 TO C(E),
 34440									;UPDATE AC AND SKIP
 34441						STOP^
 34442	051666	254 04 0 00 051667 		HALT	.+1		;TEST FAILED IF PROGRAM HALTS HERE
 34443	051667	324 00 0 00 051670 		JUMPA	.+1		;IF TEST FAILS, CHANGE THIS INSTRUCTION (JUMPA .+1) TO
 34444									;JUMPA X (X IS THE ADDRESS OF THE FIRST INSTRUCTION
 34445									;IN THE SUBTEST) TO LOOP ON ERROR^
 34446	051670	312 06 0 00 070253 		CAME	6,[0]		;PASS IF E INCREMENTED CORRECTLY
 34447						STOP^
 34448	051671	254 04 0 00 051672 		HALT	.+1		;TEST FAILED IF PROGRAM HALTS HERE
 34449	051672	324 00 0 00 051673 		JUMPA	.+1		;IF TEST FAILS, CHANGE THIS INSTRUCTION (JUMPA .+1) TO
 34450									;JUMPA X (X IS THE ADDRESS OF THE FIRST INSTRUCTION
 34451									;IN THE SUBTEST) TO LOOP ON ERROR^
 34452	051673	312 05 0 00 070253 		CAME	5,[0]		;PASS IF AC WAS UPDATED IF AC NON-ZERO
 34453						STOP^
 34454	051674	254 04 0 00 051675 		HALT	.+1		;TEST FAILED IF PROGRAM HALTS HERE
 34455	051675	324 00 0 00 051676 		JUMPA	.+1		;IF TEST FAILS, CHANGE THIS INSTRUCTION (JUMPA .+1) TO
 34456									;JUMPA X (X IS THE ADDRESS OF THE FIRST INSTRUCTION
 34457									;IN THE SUBTEST) TO LOOP ON ERROR^
 34458
 34459					;**********
 34460
 34461					;THIS TEST VERIFIES THAT AOSE INCREMENTS C(E) BY 0,,1 AND PLACES
 34462					;THE RESULT INTO E.  THE RESULT IN E IS COMPARED TO 0 AND SKIPS
 34463					;THE NEXT INSTRUCTION IF C(E) IS EQUAL TO 0
 34464					;IF THE AC IS NON-ZERO, THE RESULT IS ALSO PLACED INTO THE AC.
 34465					;IN THIS CASE, AC=5, C(AC)=707070,,707070 AND C(AC)=0
 34466					;BEFORE INCREMENTING.  HENCE, AOSE SHOULD NOT SKIP; AND THE
 34467					;FINAL RESULTS IN AC AND E SHOULD BE 0,,1 AND 0,,1
 34468					;RESPECTIVELY.
 34469
 34470	051676	200 05 0 00 070332 	C53520:	MOVE	5,[707070,,707070]	;PRELOAD AC WITH 707070,,707070
 34471	051677	400 06 0 00 000000 		SETZ	6,		;PRELOAD E WITH 0
 34472	051700	352 05 0 00 000006 		AOSE	5,6		;*AOSE SHOULD ADD 0,,1 TO C(E),
 34473									;UPDATE AC AND NOT SKIP
 34474	051701	334 00 0 00 000000 		SKIPA			;PASS IF AOSE DID NOT SKIP
 34475						STOP^
 34476	051702	254 04 0 00 051703 		HALT	.+1		;TEST FAILED IF PROGRAM HALTS HERE
 34477	051703	324 00 0 00 051704 		JUMPA	.+1		;IF TEST FAILS, CHANGE THIS INSTRUCTION (JUMPA .+1) TO
 34478									;JUMPA X (X IS THE ADDRESS OF THE FIRST INSTRUCTION
 34479									;IN THE SUBTEST) TO LOOP ON ERROR^
 34480	051704	312 06 0 00 070265 		CAME	6,[1]		;PASS IF E INCREMENTED CORRECTLY
 34481						STOP^
 34482	051705	254 04 0 00 051706 		HALT	.+1		;TEST FAILED IF PROGRAM HALTS HERE
DFKAA PDP-10 KL10 BASIC INSTRUCTION DIAGNOSTIC (1) VER 0,2	MACRO %53B(1254)-4 11:50 11-Nov-24 Page 60-1
DFKAA5	MAC	13-Jan-89 10:22		TEST OF MSCL AOSX INSTRUCTIONS

 34483	051706	324 00 0 00 051707 		JUMPA	.+1		;IF TEST FAILS, CHANGE THIS INSTRUCTION (JUMPA .+1) TO
 34484									;JUMPA X (X IS THE ADDRESS OF THE FIRST INSTRUCTION
 34485									;IN THE SUBTEST) TO LOOP ON ERROR^
 34486	051707	312 05 0 00 070265 		CAME	5,[1]		;PASS IF AC WAS UPDATED IF AC NON-ZERO
 34487						STOP^
 34488	051710	254 04 0 00 051711 		HALT	.+1		;TEST FAILED IF PROGRAM HALTS HERE
 34489	051711	324 00 0 00 051712 		JUMPA	.+1		;IF TEST FAILS, CHANGE THIS INSTRUCTION (JUMPA .+1) TO
 34490									;JUMPA X (X IS THE ADDRESS OF THE FIRST INSTRUCTION
 34491									;IN THE SUBTEST) TO LOOP ON ERROR^
 34492
 34493					;**********
DFKAA PDP-10 KL10 BASIC INSTRUCTION DIAGNOSTIC (1) VER 0,2	MACRO %53B(1254)-4 11:50 11-Nov-24 Page 61
DFKAA5	MAC	13-Jan-89 10:22		TEST OF MSCL AOSX INSTRUCTIONS

 34494					;THIS TEST VERIFIES THAT AOSLE INCREMENTS C(E) BY 0,,1 AND PLACES
 34495					;THE RESULT INTO E.  THE RESULT IN E IS COMPARED TO 0 AND SKIPS
 34496					;THE NEXT INSTRUCTION IF C(E) IS LESS THAN OR EQUAL TO0
 34497					;IF THE AC IS NON-ZERO, THE RESULT IS ALSO PLACED INTO THE AC.
 34498					;IN THIS CASE, AC=4, C(AC)=707070,,707070 AND C(E)=-1,,-2
 34499					;BEFORE INCREMENTING.  HENCE, AOSLE SHOULD SKIP; AND THE
 34500					;FINAL RESULTS IN AC AND E SHOULD BE -1,,-1 AND -1,,-1
 34501					;RESPECTIVELY.
 34502
 34503	051712	200 04 0 00 070332 	C53600:	MOVE	4,[707070,,707070]	;PRELOAD AC WITH 707070,,707070
 34504	051713	561 05 0 00 777776 		HRROI	5,-2		;PRELOAD E WITH -1,,-2
 34505	051714	353 04 0 00 000005 		AOSLE	4,5		;*AOSLE SHOULD ADD 0,,1 TO C(E),
 34506									;UPDATE AC AND SKIP ZERO
 34507						STOP^
 34508	051715	254 04 0 00 051716 		HALT	.+1		;TEST FAILED IF PROGRAM HALTS HERE
 34509	051716	324 00 0 00 051717 		JUMPA	.+1		;IF TEST FAILS, CHANGE THIS INSTRUCTION (JUMPA .+1) TO
 34510									;JUMPA X (X IS THE ADDRESS OF THE FIRST INSTRUCTION
 34511									;IN THE SUBTEST) TO LOOP ON ERROR^
 34512	051717	312 05 0 00 070254 		CAME	5,[-1]		;PASS IF E INCREMENTED CORRECTLY
 34513						STOP^
 34514	051720	254 04 0 00 051721 		HALT	.+1		;TEST FAILED IF PROGRAM HALTS HERE
 34515	051721	324 00 0 00 051722 		JUMPA	.+1		;IF TEST FAILS, CHANGE THIS INSTRUCTION (JUMPA .+1) TO
 34516									;JUMPA X (X IS THE ADDRESS OF THE FIRST INSTRUCTION
 34517									;IN THE SUBTEST) TO LOOP ON ERROR^
 34518	051722	312 04 0 00 070254 		CAME	4,[-1]		;PASS IF AC WAS UPDATED IF AC NON-ZERO
 34519						STOP^
 34520	051723	254 04 0 00 051724 		HALT	.+1		;TEST FAILED IF PROGRAM HALTS HERE
 34521	051724	324 00 0 00 051725 		JUMPA	.+1		;IF TEST FAILS, CHANGE THIS INSTRUCTION (JUMPA .+1) TO
 34522									;JUMPA X (X IS THE ADDRESS OF THE FIRST INSTRUCTION
 34523									;IN THE SUBTEST) TO LOOP ON ERROR^
 34524
 34525					;**********
 34526
 34527					;THIS TEST VERIFIES THAT AOSLE INCREMENTS C(E) BY 0,,1 AND PLACES
 34528					;THE RESULT INTO E.  THE RESULT IN E IS COMPARED TO 0 AND SKIPS
 34529					;THE NEXT INSTRUCTION IF C(E) IS LESS THAN OR EQUAL TO 0.
 34530					;IF THE AC IS NON-ZERO, THE RESULT IS ALSO PLACED INTO THE AC.
 34531					;IN THIS CASE, AC=4, C(AC)=707070,,707070 AND C(E)=-1,,-1
 34532					;BEFORE INCREMENTING.  HENCE, AOSLE SHOULD SKIP; AND THE
 34533					;FINAL RESULTS IN AC AND E SHOULD BE 0 AND 0
 34534					;RESPECTIVELY.
 34535
 34536	051725	200 04 0 00 070332 	C53610:	MOVE	4,[707070,,707070]	;PRELOAD AC WITH 707070,,707070
 34537	051726	476 05 0 00 000000 		SETOM	5,		;PRELOAD E WITH -1,,-1
 34538	051727	353 04 0 00 000005 		AOSLE	4,5		;*AOSLE SHOULD ADD 0,,1 TO C(E)
 34539									;UPDATE AC AND SKIP
 34540						STOP^
 34541	051730	254 04 0 00 051731 		HALT	.+1		;TEST FAILED IF PROGRAM HALTS HERE
 34542	051731	324 00 0 00 051732 		JUMPA	.+1		;IF TEST FAILS, CHANGE THIS INSTRUCTION (JUMPA .+1) TO
 34543									;JUMPA X (X IS THE ADDRESS OF THE FIRST INSTRUCTION
 34544									;IN THE SUBTEST) TO LOOP ON ERROR^
 34545	051732	312 05 0 00 070253 		CAME	5,[0]		;PASS IF E INCREMENTED CORRECTLY
 34546						STOP^
 34547	051733	254 04 0 00 051734 		HALT	.+1		;TEST FAILED IF PROGRAM HALTS HERE
 34548	051734	324 00 0 00 051735 		JUMPA	.+1		;IF TEST FAILS, CHANGE THIS INSTRUCTION (JUMPA .+1) TO
DFKAA PDP-10 KL10 BASIC INSTRUCTION DIAGNOSTIC (1) VER 0,2	MACRO %53B(1254)-4 11:50 11-Nov-24 Page 61-1
DFKAA5	MAC	13-Jan-89 10:22		TEST OF MSCL AOSX INSTRUCTIONS

 34549									;JUMPA X (X IS THE ADDRESS OF THE FIRST INSTRUCTION
 34550									;IN THE SUBTEST) TO LOOP ON ERROR^
 34551	051735	312 04 0 00 070253 		CAME	4,[0]		;PASS IF AC WAS UPDATED IF AC NON-ZERO
 34552						STOP^
 34553	051736	254 04 0 00 051737 		HALT	.+1		;TEST FAILED IF PROGRAM HALTS HERE
 34554	051737	324 00 0 00 051740 		JUMPA	.+1		;IF TEST FAILS, CHANGE THIS INSTRUCTION (JUMPA .+1) TO
 34555									;JUMPA X (X IS THE ADDRESS OF THE FIRST INSTRUCTION
 34556									;IN THE SUBTEST) TO LOOP ON ERROR^
 34557
 34558					;**********
DFKAA PDP-10 KL10 BASIC INSTRUCTION DIAGNOSTIC (1) VER 0,2	MACRO %53B(1254)-4 11:50 11-Nov-24 Page 62
DFKAA5	MAC	13-Jan-89 10:22		TEST OF MSCL AOSX INSTRUCTIONS

 34559					;THIS TEST VERIFIES THAT AOSLE INCREMENTS C(E) BY 0,,1 AND PLACES
 34560					;THE RESULT INTO E.  THE RESULT IN E IS COMPARED TO 0 AND SKIPS
 34561					;THE NEXT INSTRUCTION IF C(E) IS LESS THAN OR EQUAL TO 0
 34562					;IF THE AC IS NON-ZERO, THE RESULT IS ALSO PLACED INTO THE AC.
 34563					;IN THIS CASE, AC=4, C(AC)=707070,,707070 AND C(E)=0
 34564					;BEFORE INCREMENTING.  HENCE, AOSLE SHOULD NOT SKIP ; AND THE
 34565					;FINAL RESULTS IN AC AND E SHOULD BE 0,,1 AND 0,,1
 34566					;RESPECTIVELY.
 34567
 34568	051740	200 04 0 00 070332 	C53620:	MOVE	4,[707070,,707070]	;PRELOAD AC WITH 707070,,707070
 34569	051741	400 00 0 00 000005 		SETZ	5		;PRELOAD E WITH 0
 34570	051742	353 04 0 00 000005 		AOSLE	4,5		;*AOSLE SHOULD ADD 0,,1 TO C(E)
 34571									;UPDATE AC AND NOT SKIP
 34572	051743	334 00 0 00 000000 		SKIPA			;PASS IF AOSLE DID NOT SKIP
 34573						STOP^
 34574	051744	254 04 0 00 051745 		HALT	.+1		;TEST FAILED IF PROGRAM HALTS HERE
 34575	051745	324 00 0 00 051746 		JUMPA	.+1		;IF TEST FAILS, CHANGE THIS INSTRUCTION (JUMPA .+1) TO
 34576									;JUMPA X (X IS THE ADDRESS OF THE FIRST INSTRUCTION
 34577									;IN THE SUBTEST) TO LOOP ON ERROR^
 34578	051746	312 05 0 00 070265 		CAME	5,[1]		;PASS IF E INCREMENTED CORRECTLY
 34579						STOP^
 34580	051747	254 04 0 00 051750 		HALT	.+1		;TEST FAILED IF PROGRAM HALTS HERE
 34581	051750	324 00 0 00 051751 		JUMPA	.+1		;IF TEST FAILS, CHANGE THIS INSTRUCTION (JUMPA .+1) TO
 34582									;JUMPA X (X IS THE ADDRESS OF THE FIRST INSTRUCTION
 34583									;IN THE SUBTEST) TO LOOP ON ERROR^
 34584	051751	312 04 0 00 070265 		CAME	4,[1]		;PASS IF AC WAS UPDATED IF AC NON-ZERO
 34585						STOP^
 34586	051752	254 04 0 00 051753 		HALT	.+1		;TEST FAILED IF PROGRAM HALTS HERE
 34587	051753	324 00 0 00 051754 		JUMPA	.+1		;IF TEST FAILS, CHANGE THIS INSTRUCTION (JUMPA .+1) TO
 34588									;JUMPA X (X IS THE ADDRESS OF THE FIRST INSTRUCTION
 34589									;IN THE SUBTEST) TO LOOP ON ERROR^
 34590
 34591					;**********
 34592
 34593					;THIS TEST VERIFIES THAT AOSA INCREMENTS C(E) BY 0,,1 AND PLACES
 34594					;THE RESULT INTO E.  THE RESULT IN E IS COMPARED TO 0 AND ALWAYS SKIPS
 34595					;THE NEXT INSTRUCTION.
 34596					;IF THE AC IS NON-ZERO, THE RESULT IS ALSO PLACED INTO THE AC.
 34597					;IN THIS CASE, AC=3, C(AC)=707070,,707070 AND C(E)=-1,,-2
 34598					;BEFORE INCREMENTING.  HENCE, AOSA SHOULD SKIP ; AND THE
 34599					;FINAL RESULTS IN AC AND E SHOULD BE -1,,-1 AND -1,,-1
 34600					;RESPECTIVELY.
 34601
 34602	051754	200 03 0 00 070332 	C53700:	MOVE	3,[707070,,707070] ;PRELOAD AC WITH 707070,,707070
 34603	051755	561 04 0 00 777776 		HRROI	4,-2		;PRELOAD E WITH -1,,-2
 34604	051756	354 03 0 00 000004 		AOSA	3,4		;*AOSA SHOULD ADD 0,,1 TO C(E),
 34605									;UPDATE AC AND SKIP
 34606						STOP^
 34607	051757	254 04 0 00 051760 		HALT	.+1		;TEST FAILED IF PROGRAM HALTS HERE
 34608	051760	324 00 0 00 051761 		JUMPA	.+1		;IF TEST FAILS, CHANGE THIS INSTRUCTION (JUMPA .+1) TO
 34609									;JUMPA X (X IS THE ADDRESS OF THE FIRST INSTRUCTION
 34610									;IN THE SUBTEST) TO LOOP ON ERROR^
 34611	051761	312 04 0 00 070254 		CAME	4,[-1]		;PASS IF E INCREMENTED CORRECTLY
 34612						STOP^
 34613	051762	254 04 0 00 051763 		HALT	.+1		;TEST FAILED IF PROGRAM HALTS HERE
DFKAA PDP-10 KL10 BASIC INSTRUCTION DIAGNOSTIC (1) VER 0,2	MACRO %53B(1254)-4 11:50 11-Nov-24 Page 62-1
DFKAA5	MAC	13-Jan-89 10:22		TEST OF MSCL AOSX INSTRUCTIONS

 34614	051763	324 00 0 00 051764 		JUMPA	.+1		;IF TEST FAILS, CHANGE THIS INSTRUCTION (JUMPA .+1) TO
 34615									;JUMPA X (X IS THE ADDRESS OF THE FIRST INSTRUCTION
 34616									;IN THE SUBTEST) TO LOOP ON ERROR^
 34617	051764	312 03 0 00 070254 		CAME	3,[-1]		;PASS IF AC WAS UPDATED IF AC NON-ZERO
 34618						STOP^
 34619	051765	254 04 0 00 051766 		HALT	.+1		;TEST FAILED IF PROGRAM HALTS HERE
 34620	051766	324 00 0 00 051767 		JUMPA	.+1		;IF TEST FAILS, CHANGE THIS INSTRUCTION (JUMPA .+1) TO
 34621									;JUMPA X (X IS THE ADDRESS OF THE FIRST INSTRUCTION
 34622									;IN THE SUBTEST) TO LOOP ON ERROR^
 34623
 34624					;**********
DFKAA PDP-10 KL10 BASIC INSTRUCTION DIAGNOSTIC (1) VER 0,2	MACRO %53B(1254)-4 11:50 11-Nov-24 Page 63
DFKAA5	MAC	13-Jan-89 10:22		TEST OF MSCL AOSX INSTRUCTIONS

 34625					;THIS TEST VERIFIES THAT AOSA INCREMENTS C(E) BY 0,,1 AND PLACES
 34626					;THE RESULT INTO E.  THE RESULT IN E IS COMPARED TO 0 AND ALWAYS SKIPS
 34627					;THE NEXT INSTRUCTION.
 34628					;IF THE AC IS NON-ZERO, THE RESULT IS ALSO PLACED INTO THE AC.
 34629					;;IN THIS CASE, AC=3, C(AC)=707070,,707070 AND C(E)=-1,,-1
 34630					;BEFORE INCREMENTING.  HENCE, AOSA SHOULD SKIP AND THE
 34631					;FINAL RESULTS IN AC AND E SHOULD BE 0 AND 0
 34632					;RESPECTIVELY
 34633
 34634	051767	200 03 0 00 070332 	C53710:	MOVE	3,[707070,,707070] ;PRELOAD AC WITH 707070,,707070
 34635	051770	474 04 0 00 000000 		SETO	4,		;PRELOAD E WITH -1,,-1
 34636	051771	354 03 0 00 000004 		AOSA	3,4		;*AOSA SHOULD ADD 0,,1 TO C(E),
 34637									;UPDATE AC AND SKIP
 34638						STOP^
 34639	051772	254 04 0 00 051773 		HALT	.+1		;TEST FAILED IF PROGRAM HALTS HERE
 34640	051773	324 00 0 00 051774 		JUMPA	.+1		;IF TEST FAILS, CHANGE THIS INSTRUCTION (JUMPA .+1) TO
 34641									;JUMPA X (X IS THE ADDRESS OF THE FIRST INSTRUCTION
 34642									;IN THE SUBTEST) TO LOOP ON ERROR^
 34643	051774	312 04 0 00 070253 		CAME	4,[0]		;PASS IF E INCREMENTED CORRECTLY
 34644						STOP^
 34645	051775	254 04 0 00 051776 		HALT	.+1		;TEST FAILED IF PROGRAM HALTS HERE
 34646	051776	324 00 0 00 051777 		JUMPA	.+1		;IF TEST FAILS, CHANGE THIS INSTRUCTION (JUMPA .+1) TO
 34647									;JUMPA X (X IS THE ADDRESS OF THE FIRST INSTRUCTION
 34648									;IN THE SUBTEST) TO LOOP ON ERROR^
 34649	051777	312 03 0 00 070253 		CAME	3,[0]		;PASS IF AC WAS UPDATED IF AC NON-ZERO
 34650						STOP^
 34651	052000	254 04 0 00 052001 		HALT	.+1		;TEST FAILED IF PROGRAM HALTS HERE
 34652	052001	324 00 0 00 052002 		JUMPA	.+1		;IF TEST FAILS, CHANGE THIS INSTRUCTION (JUMPA .+1) TO
 34653									;JUMPA X (X IS THE ADDRESS OF THE FIRST INSTRUCTION
 34654									;IN THE SUBTEST) TO LOOP ON ERROR^
 34655
 34656					;**********
 34657
 34658					;THIS TEST VERIFIES THAT AOS INCREMENTS C(E) BY 0,,1 AND PLACES
 34659					;THE RESULT INTO E.  THE RESULT IN E IS COMPARED TO 0 AND ALWAYS SKIPS
 34660					;THE NEXT INSTRUCTION.
 34661					;IF THE AC IS NON-ZERO, THE RESULT IS ALSO PLACED INTO THE AC.
 34662					;IN THIS CASE, AC=3, C(AC)=707070,,707070 AND C(E)=0
 34663					;BEFORE INCREMENTING.  HENCE, AOSA SHOULD SKIP ; AND THE
 34664					;FINAL RESULTS IN AC AND E SHOULD BE 0,,1 AND 0,,1
 34665					;RESPECTIVELY
 34666
 34667	052002	200 03 0 00 070332 	C53720:	MOVE	3,[707070,,707070] ;PRELOAD AC WITH 707070,,707070
 34668	052003	400 04 0 00 000000 		SETZ	4,		;PRELOAD E WITH 0
 34669	052004	354 03 0 00 000004 		AOSA	3,4		;*AOSA SHOULD ADD 0,,1 TO C(E),
 34670									;UPDATE AC AND SKIP
 34671						STOP^
 34672	052005	254 04 0 00 052006 		HALT	.+1		;TEST FAILED IF PROGRAM HALTS HERE
 34673	052006	324 00 0 00 052007 		JUMPA	.+1		;IF TEST FAILS, CHANGE THIS INSTRUCTION (JUMPA .+1) TO
 34674									;JUMPA X (X IS THE ADDRESS OF THE FIRST INSTRUCTION
 34675									;IN THE SUBTEST) TO LOOP ON ERROR^
 34676	052007	312 04 0 00 070265 		CAME	4,[1]		;PASS IF E INCREMENTED CORRECTLY
 34677						STOP^
 34678	052010	254 04 0 00 052011 		HALT	.+1		;TEST FAILED IF PROGRAM HALTS HERE
 34679	052011	324 00 0 00 052012 		JUMPA	.+1		;IF TEST FAILS, CHANGE THIS INSTRUCTION (JUMPA .+1) TO
DFKAA PDP-10 KL10 BASIC INSTRUCTION DIAGNOSTIC (1) VER 0,2	MACRO %53B(1254)-4 11:50 11-Nov-24 Page 63-1
DFKAA5	MAC	13-Jan-89 10:22		TEST OF MSCL AOSX INSTRUCTIONS

 34680									;JUMPA X (X IS THE ADDRESS OF THE FIRST INSTRUCTION
 34681									;IN THE SUBTEST) TO LOOP ON ERROR^
 34682	052012	312 03 0 00 070265 		CAME	3,[1]		;PASS IF AC WAS UPDATED IF AC NON-ZERO
 34683						STOP^
 34684	052013	254 04 0 00 052014 		HALT	.+1		;TEST FAILED IF PROGRAM HALTS HERE
 34685	052014	324 00 0 00 052015 		JUMPA	.+1		;IF TEST FAILS, CHANGE THIS INSTRUCTION (JUMPA .+1) TO
 34686									;JUMPA X (X IS THE ADDRESS OF THE FIRST INSTRUCTION
 34687									;IN THE SUBTEST) TO LOOP ON ERROR^
 34688
 34689					;**********
DFKAA PDP-10 KL10 BASIC INSTRUCTION DIAGNOSTIC (1) VER 0,2	MACRO %53B(1254)-4 11:50 11-Nov-24 Page 64
DFKAA5	MAC	13-Jan-89 10:22		TEST OF MSCL AOSX INSTRUCTIONS

 34690					;THIS TEST VERIFIES THAT AOSGE INCREMENTS C(E) BY 0,,1 AND PLACES
 34691					;THE RESULT INTO E.  THE RESULT IN E IS COMPARED TO 0 AND SKIPS
 34692					;THE NEXT INSTRUCTION IF C(E) IS GREATER THAN OR EQUAL TO 0
 34693					;IF THE AC IS NON-ZERO, THE RESULT IS ALSO PLACED INTO THE AC.
 34694					;IN THIS CASE, AC=2, C(AC)=707070,,707070 AND C(E)=-1,,-2
 34695					;BEFORE INCREMENTING.  HENCE, AOSGE SHOULD NOT SKIP; AND THE
 34696					;FINAL RESULTS IN AC AND E SHOULD BE -1,,-1 AND -1,,-1
 34697					;RESPECTIVELY
 34698
 34699	052015	200 02 0 00 070332 	C54000:	MOVE	2,[707070,,707070] ;PRELOAD AC WITH 707070,,707070
 34700	052016	561 03 0 00 777776 		HRROI	3,-2		;PRELOAD E WITH -1,,-2
 34701	052017	355 02 0 00 000003 		AOSGE	2,3		;*AOSGE SHOULD ADD 0,,1 TO C(E),
 34702									;UPDATE AC AND NOT SKIP
 34703	052020	334 00 0 00 000000 		SKIPA			;PASS IF AOSGE DID NOT SKIP
 34704						STOP^
 34705	052021	254 04 0 00 052022 		HALT	.+1		;TEST FAILED IF PROGRAM HALTS HERE
 34706	052022	324 00 0 00 052023 		JUMPA	.+1		;IF TEST FAILS, CHANGE THIS INSTRUCTION (JUMPA .+1) TO
 34707									;JUMPA X (X IS THE ADDRESS OF THE FIRST INSTRUCTION
 34708									;IN THE SUBTEST) TO LOOP ON ERROR^
 34709	052023	312 03 0 00 070254 		CAME	3,[-1]		;PASS IF E INCREMENTED CORRECTLY
 34710						STOP^
 34711	052024	254 04 0 00 052025 		HALT	.+1		;TEST FAILED IF PROGRAM HALTS HERE
 34712	052025	324 00 0 00 052026 		JUMPA	.+1		;IF TEST FAILS, CHANGE THIS INSTRUCTION (JUMPA .+1) TO
 34713									;JUMPA X (X IS THE ADDRESS OF THE FIRST INSTRUCTION
 34714									;IN THE SUBTEST) TO LOOP ON ERROR^
 34715	052026	312 02 0 00 070254 		CAME	2,[-1]		;PASS IF AC WAS UPDATED IF AC NON-ZERO
 34716						STOP^
 34717	052027	254 04 0 00 052030 		HALT	.+1		;TEST FAILED IF PROGRAM HALTS HERE
 34718	052030	324 00 0 00 052031 		JUMPA	.+1		;IF TEST FAILS, CHANGE THIS INSTRUCTION (JUMPA .+1) TO
 34719									;JUMPA X (X IS THE ADDRESS OF THE FIRST INSTRUCTION
 34720									;IN THE SUBTEST) TO LOOP ON ERROR^
 34721
 34722					;**********
 34723
 34724					;THIS TEST VERIFIES THAT AOSGE INCREMENTS C(E) BY 0,,1 AND PLACES
 34725					;THE RESULT INTO E.  THE RESULT IN E IS COMPARED TO 0 AND SKIPS
 34726					;THE NEXT INSTRUCTION IF C(E) IS GREATER THAN OR EQUAL TO 0
 34727					;IF THE AC IS NON-ZERO, THE RESULT IS ALSO PLACED INTO THE AC.
 34728					;IN THIS CASE, AC=2, C(AC)=707070,,707070 AND C(E)=-1,,-1
 34729					;BEFORE INCREMENTING.  HENCE, AOSGE SHOULD SKIP; AND THE
 34730					;FINAL RESULTS IN AC AND E SHOULD BE 0 AND 0
 34731					;RESPECTIVELY
 34732
 34733	052031	200 02 0 00 070332 	C54010:	MOVE	2,[707070,,707070] ;PRELOAD AC WITH 707070,,707070
 34734	052032	474 03 0 00 000000 		SETO	3,		;PRELOAD E WITH 0
 34735	052033	355 02 0 00 000003 		AOSGE	2,3		;*AOSGE SHOULD ADD 0,,1 TO C(E),
 34736									;UPDATE AC AND SKIP
 34737						STOP^
 34738	052034	254 04 0 00 052035 		HALT	.+1		;TEST FAILED IF PROGRAM HALTS HERE
 34739	052035	324 00 0 00 052036 		JUMPA	.+1		;IF TEST FAILS, CHANGE THIS INSTRUCTION (JUMPA .+1) TO
 34740									;JUMPA X (X IS THE ADDRESS OF THE FIRST INSTRUCTION
 34741									;IN THE SUBTEST) TO LOOP ON ERROR^
 34742	052036	312 03 0 00 070253 		CAME	3,[0]		;PASS IF E INCREMENTED CORRECTLY
 34743						STOP^
 34744	052037	254 04 0 00 052040 		HALT	.+1		;TEST FAILED IF PROGRAM HALTS HERE
DFKAA PDP-10 KL10 BASIC INSTRUCTION DIAGNOSTIC (1) VER 0,2	MACRO %53B(1254)-4 11:50 11-Nov-24 Page 64-1
DFKAA5	MAC	13-Jan-89 10:22		TEST OF MSCL AOSX INSTRUCTIONS

 34745	052040	324 00 0 00 052041 		JUMPA	.+1		;IF TEST FAILS, CHANGE THIS INSTRUCTION (JUMPA .+1) TO
 34746									;JUMPA X (X IS THE ADDRESS OF THE FIRST INSTRUCTION
 34747									;IN THE SUBTEST) TO LOOP ON ERROR^
 34748	052041	312 02 0 00 070253 		CAME	2,[0]		;PASS IF AC WAS UPDATED IF AC NON-ZERO
 34749						STOP^
 34750	052042	254 04 0 00 052043 		HALT	.+1		;TEST FAILED IF PROGRAM HALTS HERE
 34751	052043	324 00 0 00 052044 		JUMPA	.+1		;IF TEST FAILS, CHANGE THIS INSTRUCTION (JUMPA .+1) TO
 34752									;JUMPA X (X IS THE ADDRESS OF THE FIRST INSTRUCTION
 34753									;IN THE SUBTEST) TO LOOP ON ERROR^
 34754
 34755					;**********
DFKAA PDP-10 KL10 BASIC INSTRUCTION DIAGNOSTIC (1) VER 0,2	MACRO %53B(1254)-4 11:50 11-Nov-24 Page 65
DFKAA5	MAC	13-Jan-89 10:22		TEST OF MSCL AOSX INSTRUCTIONS

 34756					;THIS TEST VERIFIES THAT AOSGE INCREMENTS C(E) BY 0,,1 AND PLACES
 34757					;THE RESULT INTO E.  THE RESULT IN E IS COMPARED TO 0 AND SKIPS
 34758					;THE NEXT INSTRUCTION IF C(E) IS GREATER THAN OR EQUAL TO 0
 34759					;IF THE AC IS NON-ZERO, THE RESULT IS ALSO PLACED INTO THE AC.
 34760					;IN THIS CASE, AC=2, C(AC)=707070,,707070 AND C(E)=0
 34761					;BEFORE INCREMENTING.  HENCE, AOSGE SHOULD SKIP; AND THE
 34762					;FINAL RESULTS IN AC AND E SHOULD BE 0,,1 AND 0,,1
 34763					;RESPECTIVELY
 34764
 34765	052044	200 02 0 00 070332 	C54020:	MOVE	2,[707070,,707070] ;PRELOAD AC WITH 707070,,707070
 34766	052045	400 03 0 00 000000 		SETZ	3,		;PRELOAD E WITH 0
 34767	052046	355 02 0 00 000003 		AOSGE	2,3		;*AOSGE SHOULD ADD 0,,1 TO C(E),
 34768									;UPDATE AC AND SKIP
 34769						STOP^
 34770	052047	254 04 0 00 052050 		HALT	.+1		;TEST FAILED IF PROGRAM HALTS HERE
 34771	052050	324 00 0 00 052051 		JUMPA	.+1		;IF TEST FAILS, CHANGE THIS INSTRUCTION (JUMPA .+1) TO
 34772									;JUMPA X (X IS THE ADDRESS OF THE FIRST INSTRUCTION
 34773									;IN THE SUBTEST) TO LOOP ON ERROR^
 34774	052051	312 03 0 00 070265 		CAME	3,[1]		;PASS IF E INCREMENTED CORRECTLY
 34775						STOP^
 34776	052052	254 04 0 00 052053 		HALT	.+1		;TEST FAILED IF PROGRAM HALTS HERE
 34777	052053	324 00 0 00 052054 		JUMPA	.+1		;IF TEST FAILS, CHANGE THIS INSTRUCTION (JUMPA .+1) TO
 34778									;JUMPA X (X IS THE ADDRESS OF THE FIRST INSTRUCTION
 34779									;IN THE SUBTEST) TO LOOP ON ERROR^
 34780	052054	312 02 0 00 070265 		CAME	2,[1]		;PASS IF AC WAS UPDATED IF AC NON-ZERO
 34781						STOP^
 34782	052055	254 04 0 00 052056 		HALT	.+1		;TEST FAILED IF PROGRAM HALTS HERE
 34783	052056	324 00 0 00 052057 		JUMPA	.+1		;IF TEST FAILS, CHANGE THIS INSTRUCTION (JUMPA .+1) TO
 34784									;JUMPA X (X IS THE ADDRESS OF THE FIRST INSTRUCTION
 34785									;IN THE SUBTEST) TO LOOP ON ERROR^
 34786
 34787					;**********
 34788
 34789					;THIS TEST VERIFIES THAT AOSN INCREMENTS C(E) BY 0,,1 AND PLACES
 34790					;THE RESULT INTO E.  THE RESULT IN E IS COMPARED TO 0 AND SKIPS
 34791					;THE NEXT INSTRUCTION IF C(E) IS NON-ZERO.
 34792					;IF THE AC IS NON-ZERO, THE RESULT IS ALSO PLACED INTO THE AC.
 34793					;IN THIS CASE, AC=1, C(AC)=707070,,707070 AND C(E)=-1,,-2
 34794					;BEFORE INCREMENTING.  HENCE, AOSN SHOULD NOT SKIP; AND THE
 34795					;FINAL RESULTS IN AC AND E SHOULD BE -1,,-1 AND -1,,-1
 34796					;RESPECTIVELY
 34797
 34798	052057	200 01 0 00 070332 	C54100:	MOVE	1,[707070,,707070] ;PRELOAD AC WITH 707070,,707070
 34799	052060	561 02 0 00 777776 		HRROI	2,-2		;PRELOAD E WITH -1,,-2
 34800	052061	356 01 0 00 000002 		AOSN	1,2		;*AOSN SHOULD ADD 0,,1 TO C(E),
 34801									;UPDATE AC AND SKIP
 34802						STOP^
 34803	052062	254 04 0 00 052063 		HALT	.+1		;TEST FAILED IF PROGRAM HALTS HERE
 34804	052063	324 00 0 00 052064 		JUMPA	.+1		;IF TEST FAILS, CHANGE THIS INSTRUCTION (JUMPA .+1) TO
 34805									;JUMPA X (X IS THE ADDRESS OF THE FIRST INSTRUCTION
 34806									;IN THE SUBTEST) TO LOOP ON ERROR^
 34807	052064	312 02 0 00 070254 		CAME	2,[-1]		;PASS IF E INCREMENTED CORRECTLY
 34808						STOP^
 34809	052065	254 04 0 00 052066 		HALT	.+1		;TEST FAILED IF PROGRAM HALTS HERE
 34810	052066	324 00 0 00 052067 		JUMPA	.+1		;IF TEST FAILS, CHANGE THIS INSTRUCTION (JUMPA .+1) TO
DFKAA PDP-10 KL10 BASIC INSTRUCTION DIAGNOSTIC (1) VER 0,2	MACRO %53B(1254)-4 11:50 11-Nov-24 Page 65-1
DFKAA5	MAC	13-Jan-89 10:22		TEST OF MSCL AOSX INSTRUCTIONS

 34811									;JUMPA X (X IS THE ADDRESS OF THE FIRST INSTRUCTION
 34812									;IN THE SUBTEST) TO LOOP ON ERROR^
 34813	052067	312 01 0 00 070254 		CAME	1,[-1]		;PASS IF AC WAS UPDATED IF AC NON-ZERO
 34814						STOP^
 34815	052070	254 04 0 00 052071 		HALT	.+1		;TEST FAILED IF PROGRAM HALTS HERE
 34816	052071	324 00 0 00 052072 		JUMPA	.+1		;IF TEST FAILS, CHANGE THIS INSTRUCTION (JUMPA .+1) TO
 34817									;JUMPA X (X IS THE ADDRESS OF THE FIRST INSTRUCTION
 34818									;IN THE SUBTEST) TO LOOP ON ERROR^
 34819
 34820					;**********
DFKAA PDP-10 KL10 BASIC INSTRUCTION DIAGNOSTIC (1) VER 0,2	MACRO %53B(1254)-4 11:50 11-Nov-24 Page 66
DFKAA5	MAC	13-Jan-89 10:22		TEST OF MSCL AOSX INSTRUCTIONS

 34821					;THIS TEST VERIFIES THAT AOSN INCREMENTS C(E) BY 0,,1 AND PLACES
 34822					;THE RESULT INTO E.  THE RESULT IN E IS COMPARED TO 0 AND SKIPS
 34823					;THE NEXT INSTRUCTION IF C(E) IS NON-ZERO
 34824					;IF THE AC IS NON-ZERO, THE RESULT IS ALSO PLACED INTO THE AC.
 34825					;IN THIS CASE, AC=1, C(AC)=707070,,707070 AND C(E)=-1,,-1
 34826					;BEFORE INCREMENTING.  HENCE, AOSN SHOULD NOT SKIP; AND THE
 34827					;FINAL RESULTS IN AC AND E SHOULD BE 0 AND 0
 34828					;RESPECTIVELY
 34829
 34830	052072	200 01 0 00 070332 	C54110:	MOVE	1,[707070,,707070] ;PRELOAD AC WITH 707070,,707070
 34831	052073	474 02 0 00 000000 		SETO	2,		;PRELOAD E WITH -1,,-1
 34832	052074	356 01 0 00 000002 		AOSN	1,2		;*AOSN SHOULD ADD 0,,1 TO C(E),
 34833									;UPDATE AC AND NOT SKIP
 34834	052075	334 00 0 00 000000 		SKIPA			;PASS IF AOSN DID NOT SKIP
 34835						STOP^
 34836	052076	254 04 0 00 052077 		HALT	.+1		;TEST FAILED IF PROGRAM HALTS HERE
 34837	052077	324 00 0 00 052100 		JUMPA	.+1		;IF TEST FAILS, CHANGE THIS INSTRUCTION (JUMPA .+1) TO
 34838									;JUMPA X (X IS THE ADDRESS OF THE FIRST INSTRUCTION
 34839									;IN THE SUBTEST) TO LOOP ON ERROR^
 34840	052100	312 02 0 00 070253 		CAME	2,[0]		;PASS IF E INCREMENTED CORRECTLY
 34841						STOP^
 34842	052101	254 04 0 00 052102 		HALT	.+1		;TEST FAILED IF PROGRAM HALTS HERE
 34843	052102	324 00 0 00 052103 		JUMPA	.+1		;IF TEST FAILS, CHANGE THIS INSTRUCTION (JUMPA .+1) TO
 34844									;JUMPA X (X IS THE ADDRESS OF THE FIRST INSTRUCTION
 34845									;IN THE SUBTEST) TO LOOP ON ERROR^
 34846	052103	312 01 0 00 070253 		CAME	1,[0]		;PASS IF AC WAS UPDATED IF AC NON-ZERO
 34847						STOP^
 34848	052104	254 04 0 00 052105 		HALT	.+1		;TEST FAILED IF PROGRAM HALTS HERE
 34849	052105	324 00 0 00 052106 		JUMPA	.+1		;IF TEST FAILS, CHANGE THIS INSTRUCTION (JUMPA .+1) TO
 34850									;JUMPA X (X IS THE ADDRESS OF THE FIRST INSTRUCTION
 34851									;IN THE SUBTEST) TO LOOP ON ERROR^
 34852
 34853					;**********
 34854
 34855					;THIS TEST VERIFIES THAT AOSN INCREMENTS C(E) BY 0,,1 AND PLACES
 34856					;THE RESULT INTO E.  THE RESULT IN E IS COMPARED TO 0 AND SKIPS
 34857					;THE NEXT INSTRUCTION IF C(E) IS NON-ZERO
 34858					;IF THE AC IS NON-ZERO, THE RESULT IS ALSO PLACED INTO THE AC.
 34859					;IN THIS CASE, AC=1, C(AC)=707070,,707070 AND C(E)=0
 34860					;BEFORE INCREMENTING.  HENCE, AOSN SHOULD SKIP; AND THE
 34861					;FINAL RESULTS IN AC AND E SHOULD BE 0,,1 AND 0,,1
 34862					;RESPECTIVELY
 34863
 34864	052106	200 01 0 00 070332 	C54120:	MOVE	1,[707070,,707070] ;PRELOAD AC WITH 707070,,707070
 34865	052107	400 02 0 00 000000 		SETZ	2,		;PRELOAD E WITH 0
 34866	052110	356 01 0 00 000002 		AOSN	1,2		;*AOSN SHOULD ADD 0,,1 TO C(E),
 34867									;UPDATE AC AND SKIP
 34868						STOP^
 34869	052111	254 04 0 00 052112 		HALT	.+1		;TEST FAILED IF PROGRAM HALTS HERE
 34870	052112	324 00 0 00 052113 		JUMPA	.+1		;IF TEST FAILS, CHANGE THIS INSTRUCTION (JUMPA .+1) TO
 34871									;JUMPA X (X IS THE ADDRESS OF THE FIRST INSTRUCTION
 34872									;IN THE SUBTEST) TO LOOP ON ERROR^
 34873	052113	312 02 0 00 070265 		CAME	2,[1]		;PASS IF E INCREMENTED CORRECTLY
 34874						STOP^
 34875	052114	254 04 0 00 052115 		HALT	.+1		;TEST FAILED IF PROGRAM HALTS HERE
DFKAA PDP-10 KL10 BASIC INSTRUCTION DIAGNOSTIC (1) VER 0,2	MACRO %53B(1254)-4 11:50 11-Nov-24 Page 66-1
DFKAA5	MAC	13-Jan-89 10:22		TEST OF MSCL AOSX INSTRUCTIONS

 34876	052115	324 00 0 00 052116 		JUMPA	.+1		;IF TEST FAILS, CHANGE THIS INSTRUCTION (JUMPA .+1) TO
 34877									;JUMPA X (X IS THE ADDRESS OF THE FIRST INSTRUCTION
 34878									;IN THE SUBTEST) TO LOOP ON ERROR^
 34879	052116	312 01 0 00 070265 		CAME	1,[1]		;PASS IF AC WAS UPDATED IF AC NON-ZERO
 34880						STOP^
 34881	052117	254 04 0 00 052120 		HALT	.+1		;TEST FAILED IF PROGRAM HALTS HERE
 34882	052120	324 00 0 00 052121 		JUMPA	.+1		;IF TEST FAILS, CHANGE THIS INSTRUCTION (JUMPA .+1) TO
 34883									;JUMPA X (X IS THE ADDRESS OF THE FIRST INSTRUCTION
 34884									;IN THE SUBTEST) TO LOOP ON ERROR^
 34885
 34886					;**********
DFKAA PDP-10 KL10 BASIC INSTRUCTION DIAGNOSTIC (1) VER 0,2	MACRO %53B(1254)-4 11:50 11-Nov-24 Page 67
DFKAA5	MAC	13-Jan-89 10:22		TEST OF MSCL AOSX INSTRUCTIONS

 34887					;THIS TEST VERIFIES THAT AOSG INCREMENTS C(E) BY 0,,1 AND PLACES
 34888					;THE RESULT INTO E.  THE RESULT IN E IS COMPARED TO 0 AND SKIPS
 34889					;THE NEST INSTRUCTION IF C(E) IS GREATER THAN 0
 34890					;IF THE AC IS NON-ZERO, THE RESULT IS ALSO PLACED INTO THE AC.
 34891					;IN THIS CASE, AC=0, C(AC)=707070,,707070 AND C(E)=-1,,-2
 34892					;BEFORE INCREMENTING.  HENCE, AOSG SHOULD NOT SKIP; AND THE
 34893					;FINAL RESULTS IN AC AND E SHOULD BE 707070,,707070 AND -1,,-1
 34894					;RESPECTIVELY
 34895
 34896	052121	200 00 0 00 070332 	C54200:	MOVE	0,[707070,,707070] ;PRELOAD AC WITH 707070,,707070
 34897	052122	561 01 0 00 777776 		HRROI	1,-2		;PRELOAD E WITH -1,,-2
 34898	052123	357 00 0 00 000001 		AOSG	0,1		;*AOSG SHOULD ADD 0,,1 TO C(E),
 34899									;AND NOT SKIP
 34900	052124	334 00 0 00 000000 		SKIPA			;PASS IF AOSG DID NOT SKIP
 34901						STOP^
 34902	052125	254 04 0 00 052126 		HALT	.+1		;TEST FAILED IF PROGRAM HALTS HERE
 34903	052126	324 00 0 00 052127 		JUMPA	.+1		;IF TEST FAILS, CHANGE THIS INSTRUCTION (JUMPA .+1) TO
 34904									;JUMPA X (X IS THE ADDRESS OF THE FIRST INSTRUCTION
 34905									;IN THE SUBTEST) TO LOOP ON ERROR^
 34906	052127	312 01 0 00 070254 		CAME	1,[-1]		;PASS IF E INCREMENTED CORRECTLY
 34907						STOP^
 34908	052130	254 04 0 00 052131 		HALT	.+1		;TEST FAILED IF PROGRAM HALTS HERE
 34909	052131	324 00 0 00 052132 		JUMPA	.+1		;IF TEST FAILS, CHANGE THIS INSTRUCTION (JUMPA .+1) TO
 34910									;JUMPA X (X IS THE ADDRESS OF THE FIRST INSTRUCTION
 34911									;IN THE SUBTEST) TO LOOP ON ERROR^
 34912	052132	312 00 0 00 070332 		CAME	0,[707070,,707070] ;PASS IF C(AC) WAS NOT MODIFIED
 34913						STOP^
 34914	052133	254 04 0 00 052134 		HALT	.+1		;TEST FAILED IF PROGRAM HALTS HERE
 34915	052134	324 00 0 00 052135 		JUMPA	.+1		;IF TEST FAILS, CHANGE THIS INSTRUCTION (JUMPA .+1) TO
 34916									;JUMPA X (X IS THE ADDRESS OF THE FIRST INSTRUCTION
 34917									;IN THE SUBTEST) TO LOOP ON ERROR^
 34918
 34919					;**********
 34920
 34921					;THIS TEST VERIFIES THAT AOSG INCREMENTS C(E) BY 0,,1 AND PLACES
 34922					;THE RESULT INTO E.  THE RESULT IN E IS COMPARED TO 0 AND SKIPS
 34923					;THE NEXT INSTRUCTION IF C(E) IS GREATER THAN 0
 34924					;IF THE AC IS NON-ZERO, THE RESULT IS ALSO PLACED INTO THE AC.
 34925					;IN THIS CASE, AC=0, C(AC)=707070,,707070 AND C(E)=-1,,-1
 34926					;BEFORE INCREMENTING.  HENCE, AOSG SHOULD NOT SKIP; AND THE
 34927					;FINAL RESULTS IN AC AND E SHOULD BE 707070,,707070 AND 0
 34928					;RESPECTIVELY
 34929
 34930	052135	200 00 0 00 070332 	C54210:	MOVE	0,[707070,,707070] ;PRELOAD AC WITH 707070,,707070
 34931	052136	474 01 0 00 000000 		SETO	1,		;PRELOAD E WITH -1,,-1
 34932	052137	357 00 0 00 000001 		AOSG	0,1		;*AOSG SHOULD ADD 0,,1 TO C(E),
 34933									;AND NOT SKIP
 34934	052140	334 00 0 00 000000 		SKIPA			;PASS IF AOSG DID NOT SKIP
 34935						STOP^
 34936	052141	254 04 0 00 052142 		HALT	.+1		;TEST FAILED IF PROGRAM HALTS HERE
 34937	052142	324 00 0 00 052143 		JUMPA	.+1		;IF TEST FAILS, CHANGE THIS INSTRUCTION (JUMPA .+1) TO
 34938									;JUMPA X (X IS THE ADDRESS OF THE FIRST INSTRUCTION
 34939									;IN THE SUBTEST) TO LOOP ON ERROR^
 34940	052143	312 01 0 00 070253 		CAME	1,[0]		;PASS IF E INCREMENTED CORRECTLY
 34941						STOP^
DFKAA PDP-10 KL10 BASIC INSTRUCTION DIAGNOSTIC (1) VER 0,2	MACRO %53B(1254)-4 11:50 11-Nov-24 Page 67-1
DFKAA5	MAC	13-Jan-89 10:22		TEST OF MSCL AOSX INSTRUCTIONS

 34942	052144	254 04 0 00 052145 		HALT	.+1		;TEST FAILED IF PROGRAM HALTS HERE
 34943	052145	324 00 0 00 052146 		JUMPA	.+1		;IF TEST FAILS, CHANGE THIS INSTRUCTION (JUMPA .+1) TO
 34944									;JUMPA X (X IS THE ADDRESS OF THE FIRST INSTRUCTION
 34945									;IN THE SUBTEST) TO LOOP ON ERROR^
 34946	052146	312 00 0 00 070332 		CAME	0,[707070,,707070] ;PASS IF C(AC) WAS NOT MODIFIED
 34947						STOP^
 34948	052147	254 04 0 00 052150 		HALT	.+1		;TEST FAILED IF PROGRAM HALTS HERE
 34949	052150	324 00 0 00 052151 		JUMPA	.+1		;IF TEST FAILS, CHANGE THIS INSTRUCTION (JUMPA .+1) TO
 34950									;JUMPA X (X IS THE ADDRESS OF THE FIRST INSTRUCTION
 34951									;IN THE SUBTEST) TO LOOP ON ERROR^
 34952
 34953					;***********
DFKAA PDP-10 KL10 BASIC INSTRUCTION DIAGNOSTIC (1) VER 0,2	MACRO %53B(1254)-4 11:50 11-Nov-24 Page 68
DFKAA5	MAC	13-Jan-89 10:22		TEST OF MSCL AOSX INSTRUCTIONS

 34954					;THIS TEST VERIFIES THAT AOSG INCREMENTS C(E) BY 0,,1 AND PLACES
 34955					;THE RESULT INTO E.  THE RESULT IN E IS COMPARED TO 0 AND SKIPS
 34956					;THE NEXT INSTRUCTION IF C(E) IS GREATER THAN 0
 34957					;IF THE AC IS NON-ZERO, THE RESULT IS ALSO PLACED INTO THE AC.
 34958					;IN THIS CASE, AC=0, C(AC)=707070,,707070 AND C(E)=0
 34959					;BEFORE INCREMENTING.  HENCE, AOSG SHOULD SKIP; AND THE
 34960					;FINAL RESULTS IN AC AND E SHOULD BE 707070,,707070 AND 0,,1
 34961					;RESPECTIVELY
 34962
 34963	052151	200 00 0 00 070332 	C54220:	MOVE	0,[707070,,707070] ;PRELOAD AC WITH 707070,,707070
 34964	052152	400 01 0 00 000000 		SETZ	1,		;PRELOAD E WITH 0
 34965	052153	357 00 0 00 000001 		AOSG	0,1		;*AOSG SHOULD ADD 0,,1 TO C(E),
 34966									;AND SKIP
 34967						STOP^
 34968	052154	254 04 0 00 052155 		HALT	.+1		;TEST FAILED IF PROGRAM HALTS HERE
 34969	052155	324 00 0 00 052156 		JUMPA	.+1		;IF TEST FAILS, CHANGE THIS INSTRUCTION (JUMPA .+1) TO
 34970									;JUMPA X (X IS THE ADDRESS OF THE FIRST INSTRUCTION
 34971									;IN THE SUBTEST) TO LOOP ON ERROR^
 34972	052156	312 01 0 00 070265 		CAME	1,[1]		;PASS IF E INCREMENTED CORRECTLY
 34973						STOP^
 34974	052157	254 04 0 00 052160 		HALT	.+1		;TEST FAILED IF PROGRAM HALTS HERE
 34975	052160	324 00 0 00 052161 		JUMPA	.+1		;IF TEST FAILS, CHANGE THIS INSTRUCTION (JUMPA .+1) TO
 34976									;JUMPA X (X IS THE ADDRESS OF THE FIRST INSTRUCTION
 34977									;IN THE SUBTEST) TO LOOP ON ERROR^
 34978	052161	312 00 0 00 070332 		CAME	0,[707070,,707070] ;PASS IF C(AC) WAS NOT MODIFIED
 34979						STOP^
 34980	052162	254 04 0 00 052163 		HALT	.+1		;TEST FAILED IF PROGRAM HALTS HERE
 34981	052163	324 00 0 00 052164 		JUMPA	.+1		;IF TEST FAILS, CHANGE THIS INSTRUCTION (JUMPA .+1) TO
 34982									;JUMPA X (X IS THE ADDRESS OF THE FIRST INSTRUCTION
 34983									;IN THE SUBTEST) TO LOOP ON ERROR^
 34984
 34985					;**********
DFKAA PDP-10 KL10 BASIC INSTRUCTION DIAGNOSTIC (1) VER 0,2	MACRO %53B(1254)-4 11:50 11-Nov-24 Page 69
DFKAA5	MAC	13-Jan-89 10:22		TEST OF MSCL SOJX INSTRUCTIONS

 34986					SUBTTL	TEST OF MSCL SOJX INSTRUCTIONS
 34987
 34988					;**********
 34989
 34990					;THIS TEST VERIFIES THAT SOJL DECREMENTS C(AC) BY 0,,1 AND
 34991					;PLACES THE RESTULT BACK INTO THE AC.  THE RESULT IN THE AC IS
 34992					;COMPARED TO 0 AND THE PROGRAM JUMPS TO THE LOCATION
 34993					;SPECIFIED BY E IF C(AC) IS LESS THAN 0.
 34994					;IN THIS CASE, C(AC)=0 BEFORE DECREMENTING.  HENCE, SOJL
 34995					;SHOULD JUMP AND THE RESULT IN THE AC SHOULD BE -1,,-1
 34996
 34997	052164	201 17 0 00 000000 	C54300:	MOVEI	17,0		;PRELOAD AC WITH 0
 34998	052165	361 17 0 00 052167 		SOJL	17,.+2		;*SOJL SHOULD SUBTRACT 0,,1 FROM C(AC)
 34999									;AND JUMP
 35000						STOP^
 35001	052166	254 04 0 00 052167 		HALT	.+1		;TEST FAILED IF PROGRAM HALTS HERE
 35002	052167	324 00 0 00 052170 		JUMPA	.+1		;IF TEST FAILS, CHANGE THIS INSTRUCTION (JUMPA .+1) TO
 35003									;JUMPA X (X IS THE ADDRESS OF THE FIRST INSTRUCTION
 35004									;IN THE SUBTEST) TO LOOP ON ERROR^
 35005	052170	312 17 0 00 070254 		CAME	17,[-1]		;PASS IF C(AC) DECREMENTED CORRECTLY
 35006						STOP^
 35007	052171	254 04 0 00 052172 		HALT	.+1		;TEST FAILED IF PROGRAM HALTS HERE
 35008	052172	324 00 0 00 052173 		JUMPA	.+1		;IF TEST FAILS, CHANGE THIS INSTRUCTION (JUMPA .+1) TO
 35009									;JUMPA X (X IS THE ADDRESS OF THE FIRST INSTRUCTION
 35010									;IN THE SUBTEST) TO LOOP ON ERROR^
 35011
 35012					;***********
 35013
 35014					;THIS TEST VERIFIES THAT SOJL DECREMENTS C(AC) BY 0,,1 AND
 35015					;PLACES THE RESULT BACK INTO THE AC.  THE RESULT IN THE AC IS
 35016					;COMPARED TO 0 AND THE PROGRAM JUMPS TO THE LOCATION
 35017					;SPECIFIED BY E IF C(AC) IS LESS THAN 0.
 35018					;IN THIS CASE, C(AC)=0,,1 BEFORE DECREMENTING.  HENCE, SOJL
 35019					;SHOULD NOT JUMP AND THE RESULT IN THE AC SHOULD BE 0.
 35020
 35021	052173	201 17 0 00 000001 	C54310:	MOVEI	17,1		;PRELOAD AC WITH 0,,1
 35022	052174	361 17 0 00 052176 		SOJL	17,.+2			;*SOJL SHOULD SUBTRACT 0,,1 FROM C(AC)
 35023	052175	334 00 0 00 000000 		SKIPA			;PASS IF SOJL DID NOT JUMP
 35024						STOP^
 35025	052176	254 04 0 00 052177 		HALT	.+1		;TEST FAILED IF PROGRAM HALTS HERE
 35026	052177	324 00 0 00 052200 		JUMPA	.+1		;IF TEST FAILS, CHANGE THIS INSTRUCTION (JUMPA .+1) TO
 35027									;JUMPA X (X IS THE ADDRESS OF THE FIRST INSTRUCTION
 35028									;IN THE SUBTEST) TO LOOP ON ERROR^
 35029	052200	312 17 0 00 070253 		CAME	17,[0]		;PASS IF C(AC) DECREMENTED CORRECTLY
 35030						STOP^
 35031	052201	254 04 0 00 052202 		HALT	.+1		;TEST FAILED IF PROGRAM HALTS HERE
 35032	052202	324 00 0 00 052203 		JUMPA	.+1		;IF TEST FAILS, CHANGE THIS INSTRUCTION (JUMPA .+1) TO
 35033									;JUMPA X (X IS THE ADDRESS OF THE FIRST INSTRUCTION
 35034									;IN THE SUBTEST) TO LOOP ON ERROR^
 35035
 35036					;**********
DFKAA PDP-10 KL10 BASIC INSTRUCTION DIAGNOSTIC (1) VER 0,2	MACRO %53B(1254)-4 11:50 11-Nov-24 Page 70
DFKAA5	MAC	13-Jan-89 10:22		TEST OF MSCL SOJX INSTRUCTIONS

 35037					;THIS TEST VERIFIES THAT SOJL DECREMENTS C(AC) BY 0,,1 AND
 35038					;PLACES THE RESULT BACK INTO THE AC.  THE RESULT IN THE AC IS
 35039					;COMPARED TO 0 AND THE PROGRAM JUMPS TO THE LOCATION
 35040					;SPECIFIED BY E IF C(AC) IS LESS THAN 0
 35041					;IN THIS CASE, C(AC)=0,,2 BEFORE DECREMENTING.  HENCE, SOJ
 35042					;SHOULD JUMP AND THE RESULT IN THE AC SHOULD BE 0,,1
 35043
 35044	052203	201 17 0 00 000002 	C54320:	MOVEI	17,2		;PRELOAD AC WITH 0,,2
 35045	052204	361 17 0 00 052206 		SOJL	17,.+2		;*SOJ SHOULD SUBTRACT 0,,1 FROM C(AC)
 35046									;AND NOT JUMP.
 35047	052205	334 00 0 00 000000 		SKIPA			;PASS IF SOJL DID NOT JUMP
 35048						STOP^
 35049	052206	254 04 0 00 052207 		HALT	.+1		;TEST FAILED IF PROGRAM HALTS HERE
 35050	052207	324 00 0 00 052210 		JUMPA	.+1		;IF TEST FAILS, CHANGE THIS INSTRUCTION (JUMPA .+1) TO
 35051									;JUMPA X (X IS THE ADDRESS OF THE FIRST INSTRUCTION
 35052									;IN THE SUBTEST) TO LOOP ON ERROR^
 35053	052210	312 17 0 00 070265 		CAME	17,[1]		;PASS IF C(AC) DECREMENTED CORRECTLY
 35054						STOP^
 35055	052211	254 04 0 00 052212 		HALT	.+1		;TEST FAILED IF PROGRAM HALTS HERE
 35056	052212	324 00 0 00 052213 		JUMPA	.+1		;IF TEST FAILS, CHANGE THIS INSTRUCTION (JUMPA .+1) TO
 35057									;JUMPA X (X IS THE ADDRESS OF THE FIRST INSTRUCTION
 35058									;IN THE SUBTEST) TO LOOP ON ERROR^
 35059
 35060					;**********
 35061
 35062					;THIS TEST VERIFIES THAT SOJE DECREMENTS C(AC) BY 0,,1 AND
 35063					;PLACES THE RESULT BACK INTO THE AC.  THE RESULT IN THE AC IS
 35064					;COMPARED TO 0 AND THE PROGRAM JUMPS TO THE LOCATION
 35065					;SPECIFIED BY E IF C(AC) IS EQUAL TO 0.
 35066					;IN THIS CASE, C(AC)=0 BEFORE DECREMENTING.  HENCE, SOJE
 35067					;SHOULD NOT JUMP AND THE RESULT IN THE AC SHOULD BE -1,,-1
 35068
 35069	052213	201 16 0 00 000000 	C54400:	MOVEI	16,0		;PRELOAD AC WITH 0
 35070	052214	362 16 0 00 052216 		SOJE	16,.+2		;*SOJE SHOULD SUBTRACT 0,,1 FROM C(AC)
 35071									;AND NOT JUMP.
 35072	052215	334 00 0 00 000000 		SKIPA			;PASS IF SOJE DID NOT JUMP
 35073						STOP^
 35074	052216	254 04 0 00 052217 		HALT	.+1		;TEST FAILED IF PROGRAM HALTS HERE
 35075	052217	324 00 0 00 052220 		JUMPA	.+1		;IF TEST FAILS, CHANGE THIS INSTRUCTION (JUMPA .+1) TO
 35076									;JUMPA X (X IS THE ADDRESS OF THE FIRST INSTRUCTION
 35077									;IN THE SUBTEST) TO LOOP ON ERROR^
 35078	052220	312 16 0 00 070254 		CAME	16,[-1]		;PASS IF C(AC) DECREMENTED CORRECTLY
 35079						STOP^
 35080	052221	254 04 0 00 052222 		HALT	.+1		;TEST FAILED IF PROGRAM HALTS HERE
 35081	052222	324 00 0 00 052223 		JUMPA	.+1		;IF TEST FAILS, CHANGE THIS INSTRUCTION (JUMPA .+1) TO
 35082									;JUMPA X (X IS THE ADDRESS OF THE FIRST INSTRUCTION
 35083									;IN THE SUBTEST) TO LOOP ON ERROR^
 35084
 35085					;**********
