SUBUSR (DDQDA) DECSYSTEM DIAGNOSTICS USER SUBROUTINE PROGRAM, VER 0,14	MACRO %53(1020) 15:25 23-Mar-78 Page 1
SUBUST	MAC	23-Mar-78 15:03		*PARAM*	CONSOLE DATA SWITCH ASSIGNMENTS, AUG 1,1977                                SEQ 0253

     1					;*MAINDEC-10-DDQDA (SUBUSR)
     2
     3					SEARCH	MONSYM,MACSYM
     4
     5			000014		DECVER=014
     6			000000		MCNVER=000
     7
     8						XLIST
     9						LIST
    10						LALL
    11
    12					NAME	\MCNVER,\DECVER^
    13
    14					TITLE	SUBUSR (DDQDA) DECSYSTEM DIAGNOSTICS USER SUBROUTINE PROGRAM, VER 0,14^
    15
    16	000137					LOC	137
    17	000137	000000	000014		MCNVER,,DECVER
    18
    19					;*COPYRIGHT 1977,1978
    20					;*DIGITAL EQUIPMENT CORPORATION
    21					;*MARLBORO, MASS.
    22
    23					;*JOHN R. KIRCHOFF
    24
    25						NOSYM
SUBUSR (DDQDA) DECSYSTEM DIAGNOSTICS USER SUBROUTINE PROGRAM, VER 0,14	MACRO %53(1020) 15:25 23-Mar-78 Page 2
SUBUST	MAC	23-Mar-78 15:03		*SUBUSR SPECIAL ASSEMBLY PARAMETERS                                                SEQ 0254

    26					SUBTTL	*SUBUSR SPECIAL ASSEMBLY PARAMETERS
    27
    28					;*ASSEMBLY PARAMETERS
    29
    30			000001		MEMMAP==1
    31			000001		PGMEND==1
    32			000001		USRASB==1
    33			000000		DEBUG==00
    34			001000		MODDVL==START
    35			005235		MODDVU==ENDSLD
    36			030000		SADR1=BEGIN
    37			030000		SADR2=BEGIN
    38			030000		SADR3=BEGIN
    39			030000		SADR4=BEGIN
    40			030000		SADR5=BEGIN
    41			030000		SADR6=BEGIN
    42			030000		SADR7=BEGIN
    43			030000		SADR8=BEGIN
    44			030000		SADR9=BEGIN
    45			030000		SADR10=BEGIN
    46			030000		SADR11=BEGIN
    47
    48		123456	123456		PAREA1=123456,,123456
    49			000000		PAREA2=0
    50		636542	626456		PAREA3=SIXBIT/SUBRTN/
    51		645560	000000		PAREA4=SIXBIT/TMP/
    52			000000		PAREA5=0
    53			000000		PAREA6=0
    54			000001		ITERAT=1
    55
    56			000001		$PAPER==1
    57
    58					;*A MACRO TO DEFINE DEVICE NEUMONICS TO OCTAL DEVICE CODE
    59
    60						DEFINE	$MDSXB	(A,B)<
    61						<SIXBIT/A/>!B		;A DEVICE CODE IS B>
    62
    63					;*DEFINITIONS USED BY THE USER SUBROUTINE PACKAGE
    64					S^;*********************************************************************^
    65
    66			000000		AC0=	0
    67			030000		DIAGNOS=30000		;PDP-10 DIAGNOSTIC START ADDRESS
    68			010000		DDT=	10000		;PDP-10 DDT START ADDRESS
    69			020000		DIAMON=	20000		;PDP-10 DIAMON LOADER START ADDRESS
    70			020007		DIASWS=	20007		;DIAMON LH SWITCHES
    71
SUBUSR (DDQDA) DECSYSTEM DIAGNOSTICS USER SUBROUTINE PROGRAM, VER 0,14	MACRO %53(1020) 15:25 23-Mar-78 Page 1
PARAM	KLM	 1-Aug-77 08:33		*PARAM*	CONSOLE DATA SWITCH ASSIGNMENTS, AUG 1,1977                                SEQ 0255

    72					SUBTTL	*PARAM*	CONSOLE DATA SWITCH ASSIGNMENTS, AUG 1,1977
    73
    74					DEFINE	S,<;*********************************************************************>
    75
    76					S^;*********************************************************************^
    77					;*DATA SWITCHES (READ FROM CONSOLE IN EXEC MODE OR TYPED IN IN USER MODE)
    78					;*LEFT HALF SWITCHES ARE PRE-ASSIGNED FOR SUBROUTINE PACKAGE USE
    79					;*AND CONTROL LOOPING, PRINTING (TTY OR OTHER DEVICE) AND MISC. FUNCTIONS
    80					S^;*********************************************************************^
    81
    82			400000		ABORT==	400000			;ABORT PROGRAM ON PASS COMPLETION
    83			200000		RSTART==200000			;RESTART TEST, PRINT TOTALS
    84			100000		TOTALS==100000			;PRINT TOTALS, CONTINUE
    85
    86			040000		NOPNT==	040000			;INHIBIT ALL PRINT/TYPE OUT (EXCEPT FORCED)
    87			020000		PNTLPT==020000			;PRINT ALL DATA ON LPT (LOGICAL DEVICE, USER MODE)
    88			010000		DING==	010000			;RING BELL ON ERROR
    89
    90			004000		LOOPER==004000			;ENTER EXERCISE/CHECK LOOP ON ERROR
    91			002000		ERSTOP==002000			;HALT ON TEST ERROR
    92			001000		PALERS==001000			;PRINT ALL ERRORS
    93
    94			000400		RELIAB==000400			;RELIABILITY MODE
    95			000200		TXTINH==000200			;INHIBIT ERROR TEXT
    96			000100		INHPAG==000100			;INHIBIT PAGING
    97
    98			000040		MODDVC==000040			;MODIFY DEVICE CODE
    99			000020		INHCSH==000020			;INHIBIT CACHE
   100			000010		OPRSEL==000010			;OPERATOR SELECTION
   101
   102			000004		CHAIN==	000004			;CHAIN CONTROL SWITCH
   103
   104			000002		KAHZ50==000002			;KA10 50 HERTZ POWER
   105
   106									;SWITCH 17 RESERVED !!!
SUBUSR (DDQDA) DECSYSTEM DIAGNOSTICS USER SUBROUTINE PROGRAM, VER 0,14	MACRO %53(1020) 15:25 23-Mar-78 Page 2
PARAM	KLM	 1-Aug-77 08:33		*PARAM* PROGRAM/SUBROUTINE PARAMETERS, FEB 26,1976                                 SEQ 0256

   107					SUBTTL	*PARAM* PROGRAM/SUBROUTINE PARAMETERS, FEB 26,1976
   108
   109					S^;*********************************************************************^
   110					;*SPECIAL SUBPROGRAM LINKAGES
   111					S^;*********************************************************************^
   112
   113			027772		FSELNK=	27772	;FILE SELECT LINK
   114			027773		FRDLNK=	27773	;FILE READ LINK
   115			027774		LDLNK=	27774	;LOAD LINKAGE ADDRESS
   116			027775		DDTLNK=	27775	;DDT LINKAGE ADDRESS
   117			027776		MODLNK=	27776	;OPERATIONAL MODE CHECK LINKAGE ADDRESS
   118			027777		SUBLNK=	27777	;SUBROUTINE LINKAGE ADDRESS
   119
   120					S^;*********************************************************************^
   121					;*SPECIAL SUBROUTINE FATAL HALTS
   122					;*USED TO REPORT ERRORS THAT CAUSE THE SUBROUTINES TO BE UNUSABLE
   123					S^;*********************************************************************^
   124
   125					;ADDRESS   TAG	REASON
   126					;---------------------
   127
   128					; 1010 	NOEXEC	;PROGRAM NOT CODED FOR EXEC MODE OPERATION
   129					; 1011  PLERR	;FATAL PUSH LIST POINTER ERROR
   130					; 1012  PLERR1	;INITIAL PUSH LIST POINTER ERROR
   131					; 1013  MUOERR	;MUUO WITH LUUO HANDLER WIPED OUT
   132					; 1014  DTEBER	;DTE20 INTERRUPT WITHOUT DOORBELL
   133					; 1015  DTECER	;DTE20 CLOCK INTERRUPT WITHOUT FLAG SET
   134					; 1016  CPIERR	;CPU INITIALIZATION ERROR
   135					; 1017  EOPERR	;END OF PROGRAM ERROR
   136					; 1020  LUOERR	;INTERRUPT WITH LUUO HANDLER WIPED OUT
   137
   138					S^;*********************************************************************^
SUBUSR (DDQDA) DECSYSTEM DIAGNOSTICS USER SUBROUTINE PROGRAM, VER 0,14	MACRO %53(1020) 15:25 23-Mar-78 Page 3
PARAM	KLM	 1-Aug-77 08:33		*PARAM* PROGRAM/SUBROUTINE PARAMETERS, FEB 26,1976                                 SEQ 0257

   139					S^;*********************************************************************^
   140					;OPERATOR DEFINITIONS (NON-UUO'S)
   141					S^;*********************************************************************^
   142
   143		260740	000000		OPDEF	GO	[PUSHJ	P,]	;SUBROUTINE CALL
   144		263740	000000		OPDEF	RTN	[POPJ	P,]	;SUBROUTINE RETURN
   145		261740	000000		OPDEF	PUT	[PUSH	P,]	;PUT DATA ON PUSH LIST
   146		262740	000000		OPDEF	GET	[POP	P,]	;GET DATA FROM PUSH LIST
   147		254000	000000		OPDEF	PJRST	[JRST	]	;JRST TO ROUTINE THAT RTN'S
   148		254200	000000		OPDEF	HALT	[JRST	4,]	;DEFINITION FOR DDT
   149		254100	000000		OPDEF	JRSTF	[JRST	2,]	;DEFINITION FOR DDT
   150		254500	000000		OPDEF	JEN	[JRST	12,]	;DEFINITION FOR DDT
   151
   152					S^;*********************************************************************^
   153					;*SUBROUTINE INITIALIZATION CALL
   154					S^;*********************************************************************^
   155
   156		265000	030011		OPDEF	PGMINT	[JSP	0,SBINIT]	;SUBROUTINE INITIALIZATION
   157
   158					S^;*********************************************************************^
   159					;*HALTING UUO'S (A MORE GRACEFUL HALT THAN SIMPLY USING THE HALT INSTRUCTION).
   160					S^;*********************************************************************^
   161
   162		037640	000004		OPDEF	FATAL	[37B8!15B12!4]	;FATAL PROGRAMMING HALT
   163		037600	000004		OPDEF	ERRHLT	[37B8!14B12!4]	;PROGRAM ERROR HALT
   164
   165					S^;*********************************************************************^
   166					;*TERMINAL INPUT UUO'S
   167					;*ALWAYS COME FROM THE CONSOLE TERMINAL IN EXEC MODE OR THE
   168					;*CONTROLLING TERMINAL (REAL TERMINAL OR PTY) IN USER MODE.
   169					S^;*********************************************************************^
   170
   171		037000	000003		OPDEF	TTICHR 	[37B8!0B12!3]	;TTY, INPUT ANY CHARACTER
   172		037040	000003		OPDEF	TTIYES	[37B8!1B12!3]	;TTY, NORMAL RETURN Y
   173		037100	000003		OPDEF	TTINO	[37B8!2B12!3]	;TTY, NORMAL RETURN N
   174		037140	000003		OPDEF	TTIOCT	[37B8!3B12!3]	;TTY, INPUT OCTAL WORD
   175		037200	000003		OPDEF	TTIDEC	[37B8!4B12!3]	;TTY, INPUT DECIMAL WORD
   176		037240	000003		OPDEF	TTICNV	[37B8!5B12!3]	;TTY, INPUT CONVERTABLE WORD
   177		037300	000003		OPDEF	TTLOOK	[37B8!6B12!3]	;TTY, KEYBOARD CHECK
   178		037340	000003		OPDEF	TTALTM	[37B8!7B12!3]	;TTY, ALT-MODE CHECK
   179		037400	000003		OPDEF	TTSIXB	[37B8!10B12!3]	;TTY, INPUT SIXBIT WORD
   180		037440	000003		OPDEF	TTYINP	[37B8!11B12!3]	;TTY, IMAGE MODE INPUT
   181		037500	000003		OPDEF	TTICLR	[37B8!12B12!3]	;TTY, CLEAR INPUT
SUBUSR (DDQDA) DECSYSTEM DIAGNOSTICS USER SUBROUTINE PROGRAM, VER 0,14	MACRO %53(1020) 15:25 23-Mar-78 Page 4
PARAM	KLM	 1-Aug-77 08:33		*PARAM* PROGRAM/SUBROUTINE PARAMETERS, FEB 26,1976                                 SEQ 0258

   182					;*TERMINAL OUTPUT UUO'S.
   183
   184		037000	000000		OPDEF	PNTA	[37B8!0B12!0]	;PRINT ASCII WORD
   185		037000	000001		OPDEF	PNTAF	[37B8!0B12!1]	;PRINT ASCII WORD FORCED
   186		037740	000000		OPDEF	PNTAL	[37B8!17B12!0]	;PRINT ASCIZ LINE
   187		037740	000001		OPDEF	PNTALF	[37B8!17B12!1]	;PRINT ASCIZ LINE FORCED
   188		037600	000003		OPDEF	PSIXL	[37B8!14B12!3]	;PRINT SIXBIT'Z LINE
   189		037640	000003		OPDEF	PSIXLF	[37B8!15B12!3]	;PRINT SIXBIT'Z LINE FORCED
   190		037000	000000		OPDEF	PNTMSG	[37B8!0B12!0]	;PRINT MESSAGE IMMEDIATE
   191		037040	000000		OPDEF	PNTMSF	[37B8!1B12!0]	;PRINT MESSAGE IMMEDIATE FORCED
   192		037100	000000		OPDEF	PSIXM	[37B8!2B12!0]	;PRINT SIXBIT'Z MSG IMMEDIATE
   193		037200	000000		OPDEF	PSIXMF	[37B8!4B12!0]	;PRINT SIXBIT'Z MSG IMM FORCED
   194		037000	000000		OPDEF	PNTCI	[37B8!0B12!0]	;PRINT CHARACTER IMMEDIATE
   195		037040	000000		OPDEF	PNTCIF	[37B8!1B12!0]	;PRINT CHARACTER IMMEDIATE FORCED
   196		037500	000000		OPDEF	PNTCHR	[37B8!12B12!0]	;PRINT CHARACTER
   197		037500	000001		OPDEF	PNTCHF	[37B8!12B12!1]	;PRINT CHARACTER FORCED
   198		037040	000000		OPDEF	PNT1	[37B8!1B12!0]	;PRINT ONE OCTAL DIGIT
   199		037040	000001		OPDEF	PNT1F	[37B8!1B12!1]	;PRINT 1 OCTAL DIGIT FORCED
   200		037100	000000		OPDEF	PNT2	[37B8!2B12!0]	;PRINT TWO OCTAL DIGITS
   201		037100	000001		OPDEF	PNT2F	[37B8!2B12!1]	;PRINT 2 OCTAL DIGITS FORCED
   202		037140	000000		OPDEF	PNT3	[37B8!3B12!0]	;PRINT THREE OCTAL DIGITS
   203		037140	000001		OPDEF	PNT3F	[37B8!3B12!1]	;PRINT THREE OCTAL DIGITS FORCED
   204		037200	000000		OPDEF	PNT4	[37B8!4B12!0]	;PRINT FOUR OCTAL DIGITS
   205		037200	000001		OPDEF	PNT4F	[37B8!4B12!1]	;PRINT FOUR OCTAL DIGITS FORCED
   206		037240	000000		OPDEF	PNT5	[37B8!5B12!0]	;PRINT FIVE OCTAL DIGITS
   207		037240	000001		OPDEF	PNT5F	[37B8!5B12!1]	;PRINT FIVE OCTAL DIGITS FORCED
   208		037300	000000		OPDEF	PNT6	[37B8!6B12!0]	;PRINT SIX OCTAL DIGITS
   209		037300	000001		OPDEF	PNT6F	[37B8!6B12!1]	;PRINT SIX OCTAL DIGITS FORCED
   210		037340	000000		OPDEF	PNT7	[37B8!7B12!0]	;PRINT 7 OCTAL DIGITS
   211		037340	000001		OPDEF	PNT7F	[37B8!7B12!1]	;PRINT 7 OCTAL DIGITS FORCED
   212		037440	000000		OPDEF	PNT11	[37B8!11B12!0]	;PRINT 11 OCTAL DIGITS
   213		037440	000001		OPDEF	PNT11F	[37B8!11B12!1]	;PRINT 11 OCTAL DIGITS FORCED.
   214		037400	000000		OPDEF	PNTADR	[37B8!10B12!0]	;PRINT PHYSICAL ADDRESS
   215		037400	000001		OPDEF	PNTADF	[37B8!10B12!1]	;PRINT PHYSICAL ADDRESS FORCED
   216		037600	000000		OPDEF	PNTOCT  [37B8!14B12!0]	;PRINT FULL WORD OCTAL
   217		037600	000001		OPDEF	PNTOTF	[37B8!14B12!1]	;PRINT FULL WORD OCTAL FORCED
   218		037540	000000		OPDEF	PNTHW	[37B8!13B12!0]	;PRINT OCTAL HALF WORDS, 6 SP 6
   219		037540	000001		OPDEF	PNTHWF	[37B8!13B12!1]	;PRINT OCTAL HALF WORDS, 6 SP 6 FORCED
   220		037700	000003		OPDEF	PNTOCS	[37B8!16B12!3]	;PRINT OCTAL, SUPPRESS LEADING 0'S
   221		037740	000003		OPDEF	PNTOCF	[37B8!17B12!3]	;PRINT OCTAL, SUPPRESS LEADING 0'S FORCED
   222		037640	000000		OPDEF	PNTDEC	[37B8!15B12!0]	;PRINT DECIMAL, SUPRESS LEADING 0'S
   223		037640	000001		OPDEF	PNTDCF	[37B8!15B12!1]	;PRINT DECIMAL, SUPRESS LEADING 0'S FORCED
   224		037700	000000		OPDEF	PNTDS	[37B8!16B12!0]	;PRINT DECIMAL, SPACES FOR LD 0'S
   225		037700	000001		OPDEF	PNTDSF	[37B8!16B12!1]	;PRINT DECIMAL, SPACES FOR LD 0'S FORCED
SUBUSR (DDQDA) DECSYSTEM DIAGNOSTICS USER SUBROUTINE PROGRAM, VER 0,14	MACRO %53(1020) 15:25 23-Mar-78 Page 5
PARAM	KLM	 1-Aug-77 08:33		*PARAM* PROGRAM/SUBROUTINE PARAMETERS, FEB 26,1976                                 SEQ 0259

   226		037200	000002		OPDEF	PNTNM	[37B8!4B12!2]	;PRINT PROGRAM NAME
   227		037000	000002		OPDEF	PNTSIX	[37B8!0B12!2]	;PRINT SIXBIT WORD
   228		037040	000002		OPDEF	PNTSXF	[37B8!1B12!2]	;PRINT SIXBIT WORD FORCED
   229		037240	000002		OPDEF	DROPDV	[37B8!5B12!2]	;CLOSE LOGICAL FILE, USER MODE
   230		037100	000002		OPDEF	PNTCW	[37B8!2B12!2]	;PRINT DF10 CONTROL WORD
   231		037140	000002		OPDEF	PNTCWF	[37B8!3B12!2]	;PRINT DF10 CONTROL WORD FORCED
   232		037000	030242		OPDEF	PCRL	[37B8!0B12!CRLF] ;PRINT CARRIAGE RETURN/LINE FEED
   233		037040	030242		OPDEF	PCRLF	[37B8!1B12!CRLF] ;PRINT CARRIAGE RETURN/LINE FEED FORCED
   234		037000	000040		OPDEF	PSP	[37B8!0B12!40]	;PRINT SPACE
   235		037040	000040		OPDEF	PSPF	[37B8!1B12!40]	;PRINT SPACE FORCED
   236		037000	030243		OPDEF	PCRL2	[37B8!0B12!CRLF2] ;PRINT CARRIAGE RETURN/LINE FEED (TWICE)
   237		037040	030243		OPDEF	PCRL2F	[37B8!1B12!CRLF2] ;PRINT CARRIAGE RETURN/LINE FEED (TWICE) FORCED
   238		037040	000007		OPDEF	PBELL	[37B8!1B12!7]	;PRINT TTY BELL
   239
   240		037040	000026		OPDEF	PFORCE	[37B8!1B12!26]	;PRINT FORCE, CONTROL O OVERRIDE
   241
   242					DEFINE	PMSG	(ARG),<
   243						PSIXM	[SIXBIT\ARG'_\]>
   244
   245					DEFINE	PMSGF	(ARG),<
   246						PSIXMF	[SIXBIT\ARG'_\]>
   247
   248					;*SIXBTZ -- MACRO TO GENERATE SIXBIT DATA FOR PRINTING
   249					;*	CONSERVES CORE OVER ASCIZ
   250
   251					DEFINE	SIXBTZ	(ARG),<	[SIXBIT\ARG'_\]>
   252
   253					;*CONSOLE SWITCH INPUT UUO.
   254					;*READS CONSOLE SWITCHES IF IN EXEC MODE OR ASKS FOR THEM IF
   255					;* USER MODE.
   256
   257		037400	000002		OPDEF	SWITCH	[37B8!10B12!2]	;INPUT CONSOLE SWITCHES
   258
   259					;*CLOCK INITIALIZATION UUO - TO SET DESIRED CLOCK OPERATION
   260					;*EITHER IGNORE CLOCK, ONLY LET IT TICK OR CAUSE INTERRUPT TO OCCUR.
   261
   262		037540	000004		OPDEF	CLOKOP	[37B8!13B12!4]	;CLOCK OPERATION UUO - PDP-11 CLOCK
   263		037200	000004		OPDEF	MTROP	[37B8!4B12!4]	;CLOCK OPERATION UUO - DK20 METER
   264
   265					;*KL10 ONLY CACHE OPERATION UUO'S
   266
   267		037040	000004		OPDEF	CINVAL	[37B8!1B12!4]	;CACHE INVALIDATE
   268		037100	000004		OPDEF	CFLUSH	[37B8!2B12!4]	;CACHE FLUSH
   269		037140	000004		OPDEF	CWRTBI	[37B8!3B12!4]	;CACHE WRITE-BACK & INVALIDATE
SUBUSR (DDQDA) DECSYSTEM DIAGNOSTICS USER SUBROUTINE PROGRAM, VER 0,14	MACRO %53(1020) 15:25 23-Mar-78 Page 6
PARAM	KLM	 1-Aug-77 08:33		*PARAM* PROGRAM/SUBROUTINE PARAMETERS, FEB 26,1976                                 SEQ 0260

   270					;*END OF PASS/PROGRAM UUOS
   271
   272					;PERFORMS THE END OF PASS FUNCTIONS. INCREMENT PASS COUNT,
   273					;*DECREMENT ITERATION COUNT, CHECK IF FINISHED WITH THIS PROGRAM ETC.
   274
   275		037500	000004		OPDEF	ENDUUO	[37B8!12B12!4]	;UUO TO DISPLAY LIGHTS
   276		037700	000004		OPDEF	EOPUUO	[37B8!16B12!4]	;END OF PROGRAM UUO
   277
   278					;*MEMORY MANAGEMENT UUO'S
   279					;*UUO'S TO PERFORM VARIOUS MEMORY FUNCTIONS. MAPPING, ZEROING, PAGING,
   280					;*ADDRESS CONVERSION, ETC...
   281
   282		037000	000004		OPDEF	MAPMEM	[37B8!0B12!4]	;MAP MEMORY
   283		037500	000002		OPDEF	MEMZRO	[37B8!12B12!2]	;ZERO MEMORY
   284		037440	000002		OPDEF	MEMSEG	[37B8!11B12!2]	;SETUP MEMORY SEGMENT
   285		037540	000002		OPDEF	MAPADR	[37B8!13B12!2]	;VIRTUAL TO PHYSICAL ADR CONVERT
   286		037640	000002		OPDEF	MAPCNK	[37B8!15B12!2]	;MAP MEMORY CHUNK
   287		037600	000002		OPDEF	MAPSET	[37B8!14B12!2]	;SET KI10 EXEC PAGE MAP
   288		037740	000002		OPDEF	MAPPNT	[37B8!17B12!2]	;PRINT MEMORY MAP
   289
   290					;*DEVICE CODE MODIFICATION UUO
   291					;*ALLOWS THE MODIFICATION OF IOT'S TO ONE DEVICE TO BE CHANGED TO
   292					;*IOT'S TO A DIFFERENT DEVICE CODE.
   293
   294		037340	000002		OPDEF	MODPCU	[37B8!7B12!2]	;MODIFY PERHIPERAL CODE, USER
   295		037300	000002		OPDEF	MODPCP	[37B8!6B12!2]	;MODIFY PERHIPERAL CODE, PROGRAM
   296
   297						IFNDEF	MODDVL,<MODDVL==BEGIN>
   298						IFNDEF	MODDVU,<MODDVU==BEGIN>
   299
   300					;*"DIAMON" FILE SELECTION AND READ UUOS
   301
   302		037240	000004		OPDEF	FSELECT	[37B8!5B12!4]	;FILE SELECTION
   303		037300	000004		OPDEF	FREAD	[37B8!6B12!4]	;FILE READ - ASCII DATA
   304		037340	000004		OPDEF	FRD36	[37B8!7B12!4]	;FILE READ - 36 BIT DATA
   305		037400	000004		OPDEF	FRD8	[37B8!10B12!4]	;FILE READ - 8 BIT DATA
   306
   307					;*KI10 ONLY UUO FOR PRINTING MARGIN VALUES
   308
   309		037700	000002		OPDEF	PNTMGN	[37B8!16B12!2]	;PRINT MARGIN VALUE
   310
   311						XLIST
   312					IFNDEF	KLOLD,<LIST
SUBUSR (DDQDA) DECSYSTEM DIAGNOSTICS USER SUBROUTINE PROGRAM, VER 0,14	MACRO %53(1020) 15:25 23-Mar-78 Page 7
PARAM	KLM	 1-Aug-77 08:33		ERROR HANDLING UUO DEFINITIONS, JAN 5,1976                                         SEQ 0261

   313					SUBTTL	ERROR HANDLING UUO DEFINITIONS, JAN 5,1976
   314
   315					S^;*********************************************************************^
   316					;*ERROR HANDLER PARAMETERS
   317					S^;*********************************************************************^
   318
   319		036000	000000		OPDEF	ERUUO	[36B8]		;ERROR CALL UUO
   320		035000	000000		OPDEF	ERLOOP	[35B8]		;ERROR LOOP, CHECKS PC,REPT,REPT1,ERROR
   321		035040	000000		OPDEF	ERLP1	[35B8!1B12]	;ERROR LOOP IF PC'S MATCH
   322		035100	000000		OPDEF	ERLP2	[35B8!2B12]	;ERROR LOOP IF ANY ERROR
   323		034000	000000		OPDEF	REPTUO	[34B8]		;REPEAT LOOP UUO
   324
   325					;*THE ERROR HANDLER MACROS
   326
   327					;*A MACRO TO REPORT AN ERROR AND LOOP
   328
   329						DEFINE	ERROR	(ADR,FORMAT,CORECT,ACTUAL,F,D,ERR)<
   330												SALL
   331						ERUUO	FORMAT,[T,,[SIXBIT\F'_\]
   332							   CORECT,,ACTUAL
   333							   [SIXBIT\D'_\],,ERR]
   334												XALL
   335						ERLOOP	ADR		;IF ERROR, LOOP TO ADR
   336					>
   337
   338					;*A MACRO TO REPORT AN ERROR AND NOT LOOP
   339
   340						DEFINE	ERROR1	(FORMAT,CORECT,ACTUAL,F,D,ERR)<
   341												SALL
   342						ERUUO	FORMAT,[T,,[SIXBIT\F'_\]
   343							   CORECT,,ACTUAL
   344							   [SIXBIT\D'_\],,ERR]
   345												XALL>
   346
   347					>;END OF KLOLD CONDITIONAL
   348
   349						XLIST
   350					IFDEF	$PAPER,<LIST>
SUBUSR (DDQDA) DECSYSTEM DIAGNOSTICS USER SUBROUTINE PROGRAM, VER 0,14	MACRO %53(1020) 15:25 23-Mar-78 Page 8
PARAM	KLM	 1-Aug-77 08:33		STANDARD PROGRAM ASSIGNMENTS                                                       SEQ 0262

   351					SUBTTL	STANDARD PROGRAM ASSIGNMENTS
   352
   353					S^;*********************************************************************^
   354					;*ACCUMULATORS
   355					S^;*********************************************************************^
   356
   357			000017		P=	17			;PUSHDOWN POINTER AC (IF PUSH LIST USED)
   358			000015		REPT==	15			;ERROR HANDLER REPEAT AC
   359			000016		REPT1==	16			; "
   360
   361					S^;*********************************************************************^
   362					;*PDP-10 STANDARD PC CONTROL FLAGS (SAVED ON PUSHJ, JSR, ETC..)
   363					S^;*********************************************************************^
   364
   365			400000		AROV==	400000			;ARITHMETIC OVERFLOW
   366			200000		CRY0==	200000			;CARRY 0
   367			100000		CRY1==	100000			;CARRY 1
   368			040000		FOV==	40000			;FLOATING POINT OVERFLOW
   369			020000		BIS==	20000			;BYTE INTERRUPT
   370			010000		USERF==	10000			;USER MODE
   371			004000		EXIOT==	4000			;USER PRIV I/O
   372			000100		FXU==	100			;FLOATING POINT UNDERFLOW
   373			000040		DCK==	40			;DIVIDE CHECK
   374
   375					S^;*********************************************************************^
   376					;*PDP-10 STANDARD ADDRESS ASSIGNMENTS
   377					S^;*********************************************************************^
   378
   379			000040		LUUO==	40			;UUO STORAGE, UUO 1-37
   380			000041		LUUOI==	41			;UUO SERVICE INSTRUCTION
   381
   382					S^;*********************************************************************^
   383					;*JOB DATA AREA EXTERNALS (OLD DEFINITIONS)
   384					S^;*********************************************************************^
   385
   386			000040		JOBUUO==40
   387			000041		JOB41==	41
   388			000044		JOBREL==44
   389			000074		JOBDDT==74
   390			000116		JOBSYM==116
   391			000117		JOBUSY==117
   392			000120		JOBSA==	120
   393			000121		JOBFF==	121
   394			000124		JOBREN==124
   395			000125		JOBAPR==125
   396			000126		JOBCNI==126
   397			000127		JOBTPC==127
   398			000130		JOBOPC==130
   399			000137		JOBVER==137
SUBUSR (DDQDA) DECSYSTEM DIAGNOSTICS USER SUBROUTINE PROGRAM, VER 0,14	MACRO %53(1020) 15:25 23-Mar-78 Page 9
PARAM	KLM	 1-Aug-77 08:33		STANDARD PROGRAM ASSIGNMENTS                                                       SEQ 0263

   400					S^;*********************************************************************^
   401					;*JOB DATA AREA EXTERNALS (NEW DEFINITIONS)
   402					S^;*********************************************************************^
   403
   404			000040		.JBUUO==40
   405			000041		.JB41==	41
   406			000044		.JBREL==44
   407			000074		.JBDDT==74
   408			000116		.JBSYM==116
   409			000117		.JBUSY==117
   410			000120		.JBSA==	120
   411			000121		.JBFF==	121
   412			000124		.JBREN==124
   413			000125		.JBAPR==125
   414			000126		.JBCNI==126
   415			000127		.JBTPC==127
   416			000130		.JBOPC==130
   417			000137		.JBVER==137
   418
   419					S^;*********************************************************************^
   420					;*USER MODE APR ASSIGNMENTS (FOR "APRENB" CALL)
   421					S^;*********************************************************************^
   422
   423			200000		PDLOVU==200000			;PUSHDOWN LIST OVERFLOW
   424			020000		MPVU==	20000			;MEMORY PROTECTION VIOLATION
   425			010000		NXMU==	10000			;NON-X-MEMORY
   426			004000		PARU==	4000			;PARITY ERROR
   427			001000		CLKU==	1000			;CLOCK
   428			000100		FOVU==	100			;FLOATING OVERFLOW
   429			000010		AROVU==	10			;ARITHMETIC OVERFLOW
   430
   431					S^;*********************************************************************^
   432					;*USER MODE PRINT OUTPUT CHANNEL ASSIGNMENTS (FOR SUBROUTINE PACKAGE)
   433					;*THE USER SHOULD BE CAUTIONED NOT TO USE THESE CHANNELS WHEN
   434					;*USING THE SUBROUTINE PACKAGE AND CODING USER MODE PROGRAMS.
   435					S^;*********************************************************************^
   436
   437			000017		$DEVCH==17			;LOGICAL DEVICE CHANNEL
   438			000016		$DVCH1==16			;LOGICAL DEV UPDATE INPUT CHANNEL
   439
   440					S^;*********************************************************************^
   441					;*PDP-10 SPECIAL COMPATABILITY ASSIGNMENTS
   442					S^;*********************************************************************^
   443
   444			000010		PAG==	010		;PAGING I/O DEVICE CODE, KI/KL
   445
   446			000014		CCA==	014		;CACHE I/O DEVICE CODE, KL10
SUBUSR (DDQDA) DECSYSTEM DIAGNOSTICS USER SUBROUTINE PROGRAM, VER 0,14	MACRO %53(1020) 15:25 23-Mar-78 Page 10
PARAM	KLM	 1-Aug-77 08:33		STANDARD PROGRAM ASSIGNMENTS                                                       SEQ 0264

   447					S^;*********************************************************************^
   448					;*PDP-10 STANDARD APR CONO ASSIGNMENTS
   449					S^;*********************************************************************^
   450
   451			200000		IOCLR==	200000			;CLEAR ALL I/O DEVICES
   452			004000		CLKDIS==4000			;DISABLE CLOCK INTERRUPTS
   453			002000		CLKENB==2000			;ENABLE CLOCK INTERRUPTS
   454			001000		CLKCLR==1000			;CLEAR CLOCK FLAG
   455
   456					S^;*********************************************************************^
   457					;*PDP-10 STANDARD APR CONI ASSIGNMENTS, RIGHT HALF
   458					S^;*********************************************************************^
   459
   460			002000		CLKENB==2000			;CLOCK INTERRUPT ENABLED
   461			001000		CLK==	1000			;CLOCK FLAG
   462			010000		ANXM==	10000			;KA10, NON-X-MEMORY
   463			000100		INXM==	100			;KI10
   464
   465					S^;*********************************************************************^
   466					;*PDP-10 STANDARD PI CONO ASSIGNMENTS
   467					S^;*********************************************************************^
   468
   469			400000		PWFCLR==400000			;CLEAR POWER FAIL FLAG
   470			200000		PARCLR==200000			;CLEAR PARITY ERROR FLAG
   471			100000		PARDIS==100000			;DISABLE PARITY INTERRUPTS
   472			040000		PARENB==40000			;ENABLE PARITY INTERRUPTS
   473			010000		PICLR==	10000			;CLEAR PI SYSTEM
   474			004000		REQSET==4000			;SET PROGRAM PI REQUEST
   475			002000		CHNON==	2000			;TURN ON CHANNEL
   476			001000		CHNOFF==1000			;TURN OFF CHANNEL
   477			000400		PIOFF==	400			;TURN OFF PI SYSTEM
   478			000200		PION==	200			;TURN ON PI SYSTEM
   479
   480					S^;*********************************************************************^
   481					;*PDP-10 STANDARD PI CONI ASSIGNMENTS
   482					S^;*********************************************************************^
   483
   484			000200		PION==	200			;PI SYSTEM ON
   485
   486					S^;*********************************************************************^
   487					;*PDP-10 STANDARD PI CHANNEL ASSIGNMENTS
   488					S^;*********************************************************************^
   489
   490			000100		PICHN1==100			;PI CHANNEL 1
   491			000040		PICHN2==40			;PI CHANNEL 2
   492			000020		PICHN3==20			;PI CHANNEL 3
   493			000010		PICHN4==10			;PI CHANNEL 4
   494			000004		PICHN5==4			;PI CHANNEL 5
   495			000002		PICHN6==2			;PI CHANNEL 6
   496			000001		PICHN7==1			;PI CHANNEL 7
   497			000177		PICHNA==177			;ALL PI CHANNELS, 1 THRU 7
   498						XLIST
   499						LIST
SUBUSR (DDQDA) DECSYSTEM DIAGNOSTICS USER SUBROUTINE PROGRAM, VER 0,14	MACRO %53(1020) 15:25 23-Mar-78 Page 1
FIXED	KLM	19-Jul-77 16:36		*FIXED* FIXED CONTROL AND DISPATCH STORAGE, JULY 19,1977                           SEQ 0265

   500					SUBTTL	*FIXED* FIXED CONTROL AND DISPATCH STORAGE, JULY 19,1977
   501
   502	030000					LOC	30000
   503
   504					S^;*********************************************************************^
   505					;*PROGRAM STARTING ADDRESSES
   506					;*THESE ADDRESSES CALL VARIOUS SPECIAL START ROUTINES AND OR OPTIONS
   507					;*NORMAL START ADDRESS IS 30000 ALL OTHERS ARE SPECIAL. INVOKED BECAUSE
   508					;*OF END OF PASS, POWER FAILURE, DDT START, RE-ENTERING(TYPICALLY USER
   509					;*MODE), OR ANY NUMBER OF SPECIAL FEATURE TESTS.
   510					S^;*********************************************************************^
   511
   512	030000	254 00 1 00 027776 	BEGIN:	JRST	@MODLNK		;STAND-ALONE START
   513	030001	254 00 0 00 001000 	$START:	JRST	START		;MODE CHECK STARTING ADDRESS
   514
   515	030002	254 00 1 00 027774 	DIAGMN:	JRST	@LDLNK		;DIAGNOSTIC MONITOR START
   516
   517	030003	254 00 1 00 027774 	SYSEXR:	JRST	@LDLNK		;SYSTEM EXERCISER START
   518
   519	030004	254 00 0 00 030000 	SFSTRT:	JRST	SADR1		;SPECIAL FEATURE START
   520
   521	030005	254 00 0 00 030000 	PFSTRT:	JRST	SADR2		;POWER FAIL RESTART
   522
   523	030006	254 00 0 00 030000 	REENTR:	JRST	SADR3		;REENTER START(USUALLY USER MODE ONLY)
   524
   525	030007				SRTDDT:				;COMMONLY MISTAKEN NAME FOR "DDTSRT"
   526	030007	254 00 1 00 027775 	DDTSRT:	JRST	@DDTLNK		;DDT START
   527
   528	030010	254 00 0 00 001034 	BEGIN1:	JRST	STARTA		;LOOP START(END OF PASS COMES HERE)
   529	030011	254 00 1 00 027777 	SBINIT:	JRST	@SUBLNK		;PMGINT LINKAGE
   530	030012	000000	000000		RETURN:	0			;RETURN ADDRESS STORAGE
   531
   532	030013	000000	030000		START1:	SADR7			;OPTIONAL STARTING ADR/INSTRUCTIONS
   533	030014	000000	030000		START2:	SADR8			; "
   534	030015	000000	030000		START3:	SADR9			; "
   535	030016	000000	030000		START4:	SADR10			; "
   536	030017	000000	030000		START5:	SADR11			; "
SUBUSR (DDQDA) DECSYSTEM DIAGNOSTICS USER SUBROUTINE PROGRAM, VER 0,14	MACRO %53(1020) 15:25 23-Mar-78 Page 2
FIXED	KLM	19-Jul-77 16:36		*FIXED* FIXED CONTROL AND DISPATCH STORAGE, JULY 19,1977                           SEQ 0266

   537					S^;*********************************************************************^
   538					;*PROGRAM FIXED PARAMETER AREA
   539					S^;*********************************************************************^
   540
   541	030020	636542	626456		PNTNAM:	PAREA3		;SIXBIT PROGRAM NAME
   542	030021	645560	000000		PNTEXT:	PAREA4		;SIXBIT PROGRAM EXTENSION
   543	030022	123456	123456		RANDBS:	PAREA1		;RANDOM BASE NUMBER
   544	030023	000000	000000		SWTEXR:	PAREA2		;SYSTEM EXERCISER SWITCHES
   545	030024	000000	000001		ITRCNT:	ITERAT		;PROGRAM ITERATIONS
   546	030025	000000	001035		$PNAME:	PGMNAM		;POINTER TO PROGRAMS NAME
   547	030026	000000	000014		$PVER:	MCNVER,,DECVER	;MCN & DEC VERSION LEVEL
   548	030027	000000	001000		$MODVL:	MODDVL		;DEVICE CODE CHANGE LOWER LIMIT
   549	030030	000000	005235		$MODVU:	MODDVU		;DEVICE CODE CHANGE UPPER LIMIT
   550	030031	000000	000000		$EMODE:	IFNDEF EXCASB,<0> IFDEF EXCASB,<-1>	;EXEC ALLOWED
   551	030032	777777	777777		$UMODE:	IFNDEF USRASB,<0> IFDEF USRASB,<-1>	;USER ALLOWED
   552	030033	000000	000000		$DSKUP:	IFNDEF DSKUPD,<0> IFDEF DSKUPD,<-1>	;DISK UPDATE MODE
   553	030034	777777	777777		$MMAP:	IFNDEF MEMMAP,<0> IFDEF MEMMAP,<-1>	;ALLOW MEMORY RTNS
   554	030035	000000	000000		PAREA7:	PAREA5		;OPTIONAL PARAMETER
   555	030036	000000	000000		PAREA8:	PAREA6		;OPTIONAL PARAMETER
   556
   557					S^;*********************************************************************^
   558					;*PROGRAM VARIABLE PARAMETER AREA
   559					S^;*********************************************************************^
   560
   561	030037	000000	000000		USER:	0		; 0 = EXEC, -1 = USER MODE FLAG
   562	030040	000000	000000		KAIFLG:	0		;PROCESSOR TYPE, 0 = KA10, -1 = KI10
   563	030041	000000	000000		KLFLG:	0		;PROCESSOR TYPE, 0 = KA/KI, -1 = KL10
   564	030042	777777	777777		MONFLG:	-1		;DIAG MONITOR SPECIAL USER FLAG
   565	030043	000000	000000		MONCTL:	0		;DIAG MON/SYS EXR FLAG
   566	030044	000000	000000		MONTEN:	0		;-1= LOADED BY 10
   567	030045	000000	000000		CLOCKF:	0		;CLOCK TICKED FLAG
   568	030046	000000	000000		CONSW:	0		;CONSOLE SWITCH SETTINGS
   569	030047	000000	000000		PASCNT:	0		;PROGRAM PASS COUNT
   570	030050	000000	000000		RUNFLG:	0		;PROGRAM RUN FLAG
   571	030051	000000	000000		TESTPC:	0		;SUBTEST PC
   572	030052	000000	000000		ERRPC:	0		;ERROR PC
   573	030053	000000	000000		ERRTLS:	0		;ERROR TOTALS
   574	030054	000000	000000		TICKS:	0		;PROGRAM RUNNING TIME
   575	030055	000000	000000		MARGIN:	0		;KI10 MARGIN WORD VALUE
   576	030056	000000	000000		$ONETM:	0		;SUBROUTINE INITIALIZATION FLAG
SUBUSR (DDQDA) DECSYSTEM DIAGNOSTICS USER SUBROUTINE PROGRAM, VER 0,14	MACRO %53(1020) 15:25 23-Mar-78 Page 3
FIXED	KLM	19-Jul-77 16:36		*FIXED* FIXED CONTROL AND DISPATCH STORAGE, JULY 19,1977                           SEQ 0267

   577					S^;*********************************************************************^
   578					;*SPECIAL PROGRAM DISPATCH ADDRESSES
   579					S^;*********************************************************************^
   580
   581	030057	037 12 0 00 000004 	BEGEND:	ENDUUO		;END OF PASS
   582	030060	254 00 0 00 030010 	$BEND1:	JRST	BEGIN1	;KEEP RUNNING PROGRAM
   583	030061	037 16 0 00 000004 	$BEND2:	EOPUUO		;END OF PROGRAM - NO RETURN
   584	030062	000000	030000		CNTLC:	SADR5		;CONTROL C XFER ADDRESS
   585	030063	000000	030000		ALTMGO:	SADR6		;ALTMODE XFER ADDRESS
   586	030064				CPOPJ1:			;SKIP RETURN
   587	030064	350 00 0 17 000000 	UUOSKP:	AOS	(P)	;SKIP RETURN FROM UUO
   588	030065				CPOPJ:			;NON-SKIP REGULAR RETURN
   589	030065	263 17 0 00 000000 	UUOEXT:	RTN		;UUO RETURN
   590	030066	255 00 0 00 000000 	UUORTN:	JFCL		;ADDITIONAL USERS UUO ROUTINE
   591	030067	255 00 0 00 000000 	$UORTX:	JFCL		;ADDITIONAL UUO LINKAGE
   592	030070	255 00 0 00 000000 	$UUOER:	JFCL		;INITED AS (JRST $UOERX)
   593	030071	255 00 0 00 000000 	$ITRHL:	JFCL		;ADDITIONAL INTERRUPT LINKAGE
   594	030072	255 00 0 00 000000 	$ITRX1:	JFCL		; "
   595	030073	255 00 0 00 000000 	$USRHL:	JFCL		; "
   596	030074	255 00 0 00 000000 	$RSRTX:	JFCL		;ADDITIONAL POWER FAIL LINKAGE
   597	030075	255 00 0 00 000000 	$RSRTY:	JFCL		; "
   598	030076	255 00 0 00 000000 	RESRT1:	JFCL		; INITED AS (JRST RESRTX)
   599	030077	255 00 0 00 000000 	RESRT2:	JFCL		; "
   600	030100	255 00 0 00 000000 	$PARER:	JFCL		;ADDITIONAL PARITY ERROR LINKAGE
   601	030101	255 00 0 00 000000 	ERMORE:	JFCL		;ADDITIONAL ERROR HANDLER LINKAGE
   602	030102	254 04 0 00 030102 		HALT	.	;IMPROPER TRANSFER HALT
   603
   604	030103	000000	000000		$PSHER:	0		;INITED AS (JRST PSHERR)
   605	030104	000000	000000		ITRCH1:	0		;PC & FLAGS OF CURRENT INTERRUPT
   606	030105	000000	000000			0		;INITED AS (JRST $ITRC1)
   607
   608					S^;*********************************************************************^
   609					;*PROCESSOR CONTROL STORAGE
   610					S^;*********************************************************************^
   611
   612	030106	000000	000000		$ACC0:	0		;INTERRUPT SAVED AC0
   613	030107	000000	000000		$SVPI:	0		;INTERRUPT SAVED PI
   614	030110	000000	000000		$SVAPR:	0		;INTERRUPT SAVED APR
   615	030111	000000	000000		$SVPAG:	0		;INTERRUPT SAVED PAG (DATAI)
   616	030112	000000	000000		$SPAG1:	0		;INTERRUPT SAVED PAG (CONI)
   617
   618	030113	000000	000000		$SVUUO:	0		;CURRENT USERS UUO
   619	030114	000000	000000		$SVUPC:	0		;PC OF CURRENT USERS UUO
   620
   621	030115	000000	000000		REPTU:	0		;REPEAT UUO ITERATIONS
   622	030116	000000	000000		SCOPE:	0		;ERROR HANDLER SCOPE LOOP FLAG
   623	030117	000000	000000		%CORFLG:0		; " CORRECT FLAG
   624	030120	000000	000000		%COREC:	0		; " CORRECT DATA
   625	030121	000000	000000		%ACTFL:	0		; " ACTUAL FLAG
   626	030122	000000	000000		%ACTUL:	0		; " ACTUAL DATA
   627	030123	000000	000000		%DISCR:	0		; " DISCREPENCY DATA
SUBUSR (DDQDA) DECSYSTEM DIAGNOSTICS USER SUBROUTINE PROGRAM, VER 0,14	MACRO %53(1020) 15:25 23-Mar-78 Page 4
FIXED	KLM	19-Jul-77 16:36		*FIXED* FIXED CONTROL AND DISPATCH STORAGE, JULY 19,1977                           SEQ 0268

   628					S^;*********************************************************************^
   629					;*UUO DISPATCH TABLE
   630					S^;*********************************************************************^
   631						XLIST
   632						LIST
   633	030124	030070	030070		UUODIS:	LUUO1,,$UUOER
   634	030125	030070	030070			LUUO3,,LUUO2
   635	030126	030070	030070			LUUO5,,LUUO4
   636	030127	030070	030070			LUUO7,,LUUO6
   637	030130	030070	030070			LUUO11,,LUUO10
   638	030131	030070	030070			LUUO13,,LUUO12
   639	030132	030070	030070			LUUO15,,LUUO14
   640	030133	030070	030070			LUUO17,,LUUO16
   641	030134	030070	030070			LUUO21,,LUUO20
   642	030135	030070	030070			LUUO23,,LUUO22
   643	030136	030070	030070			LUUO25,,LUUO24
   644	030137	030070	030070			LUUO27,,LUUO26
   645	030140	030070	030070			LUUO31,,LUUO30
   646	030141	030070	030070			LUUO33,,LUUO32
   647
   648					S^;*********************************************************************^
   649					;*MEMORY MANAGMENT STORAGE
   650					S^;*********************************************************************^
   651
   652	030142	000000	000000		DF22F:	0		;DF10 CONTROL FLAG, 0 = 18, -1 = 22 BIT
   653	030143	000000	000000		MAPNEW:	0		;MEMORY MAPPING CONTROL FLAG, -1 = 4096K MAPPING
   654	030144	000000	000000		MEMTOT:	0		;TOTAL MEMORY SIZE IN K (1024.)
   655	030145	000000	000000		MEMLOW:	0		;LOWEST USABLE MEMORY
   656	030146				MEMSIZ:	BLOCK ^D41	;MEMORY SEGMENT POINTER TABLE
   657
   658					S^;*********************************************************************^
   659					;*PRINT CONTROL STORAGE
   660					S^;*********************************************************************^
   661
   662	030217	000000	000000		PNTFLG:	0		;PRINT FLAG, -1 WHILE IN PRINT ROUTINE
   663	030220	000000	000000		PNTENB:	0		;PRINT ENABLE
   664	030221	000000	000000		PDISF:	0		;PRINT DISABLED FLAG
   665	030222	000000	000000		PNTINH:	0		;INHIBIT PRINT INPUT CHECKS
   666	030223	000000	000000		PNTSPC:	0		;PRINT SPACE CONTROL
   667	030224	000000	000000		OPTIME:	0		;TYPE-IN WAIT TIME
   668	030225	000000	000000		$TWCNT:	0		;TIME WAITED
   669	030226	000000	000000		$DVOFF:	0		;LOGICAL DEVICE INITED FLAG
   670	030227	000000	000000		TTYFIL:	0		;TTY EXEC FILLERS FLAG
   671	030230	000000	000000		TTYSPD:	0		;TTY EXEC BAUD RATE
   672	030231	000000	000000		$TTCHR:	0		;ACTUAL TYPED IN CHAR
   673	030232	000000	000000		$CHRIN:	0		;UPPER CASED & PARITY STRIPPED CHAR
   674	030233	000000	000000		$TYPNB:	0		;TYPED IN NUMBER
   675	030234	000000	000000		$CRLF:	0		;FREE CR/LF FLAG
   676	030235	000000	000000		$TABF:	0		;TAB CONVERSION FLAG
   677	030236	000000	000000		$FFF:	0		;FORM FEED CONVERSION FLAG
   678	030237	000000	000000		$VTF:	0		;VERTICAL TAB CONVERSION FLAG
   679	030240	000000	000000		USRLFF:	0		;USER LF FILLERS
   680	030241	000000	000000		USRCRF:	0		;USER CR FILLERS
SUBUSR (DDQDA) DECSYSTEM DIAGNOSTICS USER SUBROUTINE PROGRAM, VER 0,14	MACRO %53(1020) 15:25 23-Mar-78 Page 5
FIXED	KLM	19-Jul-77 16:36		*FIXED* FIXED CONTROL AND DISPATCH STORAGE, JULY 19,1977                           SEQ 0269

   681					S^;*********************************************************************^
   682					;*THE FOLLOWING MISCELLANEOUS PRINT CHARACTERS ARE INCLUDED
   683					;*TO FACILITATE PRINTING AND ARE CALLED AS FOLLOWS:
   684					;*	MOVEI	NAME
   685					;*	PNTA		;OR PNTAF
   686					S^;*********************************************************************^
   687
   688	030242				CRLF:	ASCII/
   689	030242	015 012 000 000 000 	/
   690	030243				CRLF2:	ASCII/
   691
   692	030243	015 012 015 012 000 	/
   693	030244	054 000 000 000 000 	COMMA:	ASCII/,/
   694	030245	056 000 000 000 000 	PERIOD:	ASCII/./
   695	030246	040 000 000 000 000 	SPACE:	ASCII/ /
   696	030247	011 000 000 000 000 	TAB:	ASCII/	/
   697	030250				MINUS:
   698	030250	055 000 000 000 000 	HYPEN:	ASCII/-/
   699	030251	053 000 000 000 000 	PLUS:	ASCII/+/
   700	030252	052 000 000 000 000 	AST:	ASCII/*/
   701	030253	100 000 000 000 000 	ATSIN:	ASCII/@/
   702	030254	050 000 000 000 000 	LFP:	ASCII/(/
   703	030255	051 000 000 000 000 	RTP:	ASCII/)/
   704	030256	007 0000000000 		BELL:	BYTE (7) 007
   705	030257	077 000 000 000 000 	QUEST:	ASCII/?/
   706	030260	057 000 000 000 000 	SLASH:	ASCII!/!
   707	030261	044 000 000 000 000 	DOLLAR:	ASCII/$/
   708	030262	000000	000012		RADIX:	^D10			;DECIMAL PRINT RADIX
   709	030263	000000	000040		RADLSP:	40			;DECIMAL PRINT LEADING CHAR
   710	030264	000000	000012		RADLSC:	^D10			;DECIMAL PRINT LEADING CHAR COUNT
   711
   712					S^;*********************************************************************^
   713					;*USER MODE OUTPUT FILE INFORMATION
   714					S^;*********************************************************************^
   715
   716	030265				$OBUF:	BLOCK	3		;LOGICAL FILE OUTPUT BUFFER HEADER
   717	030270	60 62 51 56 64 00 	$OUTNM:	SIXBIT	/PRINT/		;FILE NAME
   718	030271	60 56 64 00 00 00 	$OUTEX:	SIXBIT	/PNT/		;FILE NAME EXTENSION
   719	030272					BLOCK	2
   720
   721					S^;*********************************************************************^
   722					;*DISK UPDATE MODE FILE INFORMATION
   723					S^;*********************************************************************^
   724
   725	030274				$IBUF:	BLOCK	3
   726	030277	60 62 51 56 64 00 	$INNM:	SIXBIT	/PRINT/
   727	030300	60 56 64 00 00 00 	$INEXT:	SIXBIT	/PNT/
   728	030301					BLOCK	2
SUBUSR (DDQDA) DECSYSTEM DIAGNOSTICS USER SUBROUTINE PROGRAM, VER 0,14	MACRO %53(1020) 15:25 23-Mar-78 Page 6
FIXED	KLM	19-Jul-77 16:36		*FIXED* FIXED CONTROL AND DISPATCH STORAGE, JULY 19,1977                           SEQ 0270

   729					S^;*********************************************************************^
   730					;*PUSHDOWN LIST CONTROL INFORMATION
   731					S^;*********************************************************************^
   732
   733	030303	777577	030303		PLIST:	PLIST-PLISTE,,PLIST
   734	030304				PLISTS:	BLOCK	200
   735	030504	000000	000000		PLISTE:	0		;END OF PUSHDOWN LIST
   736
   737					S^;*********************************************************************^
   738					;*POWER LINE CLOCK FREQUENCY FLAG
   739					S^;*********************************************************************^
   740
   741	030505	000000	000000		CYCL60:	0	;0 = 60, -1 = 50 CYCLE
   742
   743					S^;*********************************************************************^
   744					;*KL10 CACHE CONTROL FLAGS
   745					S^;*********************************************************************^
   746
   747	030506	000000	000000		CSHFLG:	0	;ALLOW CACHE IF 0
   748	030507	000000	000000		CSHMEM:	0	;CACHE MEMORY SEGMENTS IF 0
   749
   750					S^;*********************************************************************^
   751					;*NUMBER INPUT DIGIT FLAG
   752					S^;*********************************************************************^
   753
   754	030510	000000	000000		TTNBRF:	0	;-1 IF ANY DIGIT TYPED
   755
   756					S^;*********************************************************************^
   757					;*KL10 & KI10 "INHPAG" SWITCH PAGING PREVENTION
   758					S^;*********************************************************************^
   759
   760	030511	000000	000000		PVPAGI:	0	;IF NON-ZERO, OVERRIDE "INHPAG" SWITCH ACTION
   761
   762					S^;*********************************************************************^
   763					;*ERROR REPORTING ROUTINE ADDITIONAL USERS CONTROL INSTRUCTIONS
   764					S^;*********************************************************************^
   765
   766	030512	000000	000000		%ERHI1:	0	;IF NON-ZERO, XCT'D AT START OF %ERUUO
   767	030513	000000	000000		%ERHI2:	0	;IF NON-ZERO, XCT'D AT END OF %ERUUO
   768	030514	000000	000000		%ERHI3:	0	;IF NON-ZERO, XCT'D AFTER "PC" OF %ERUUO
   769
   770					S^;*********************************************************************^
   771					;*SPECIAL USERS UUO INTERCEPT INSTRUCTION
   772					S^;*********************************************************************^
   773
   774	030515	000000	000000		$$UUO:	0	;IF NON-ZERO, XCT'D AT START OF $UORTN
SUBUSR (DDQDA) DECSYSTEM DIAGNOSTICS USER SUBROUTINE PROGRAM, VER 0,14	MACRO %53(1020) 15:25 23-Mar-78 Page 7
FIXED	KLM	19-Jul-77 16:36		*FIXED* FIXED CONTROL AND DISPATCH STORAGE, JULY 19,1977                           SEQ 0271

   775					S^;*********************************************************************^
   776					;*USER MODE MONITOR TYPE FLAG
   777					S^;*********************************************************************^
   778
   779	030516	000000	000000		MONTYP:	0	;0 = TOPS10, -1 = TOPS20
   780
   781					S^;*********************************************************************^
   782					;*SPECIAL USERS MUUO INTERCEPT INSTRUCTION
   783					S^;*********************************************************************^
   784
   785	030517	000000	000000		$$MUUO:	0	;IF NON-ZERO, XCT'D AT START OF MUUOER
   786
   787					S^;*********************************************************************^
   788					;*SPECIAL USERS USER MODE OUTPUT ERROR INTERCEPT INSTUCTION
   789					S^;*********************************************************************^
   790
   791	030520	000000	000000		$$OUTER:0	;IF NON-ZERO, XCT'D AT END OF USER MODE ERROR
   792
   793					S^;*********************************************************************^
   794					;*"SWITCH" CALL USAGE CONTROL
   795					S^;*********************************************************************^
   796
   797	030521	000000	000000		$$TOGGLE:0	;IF NON-ZERO, USE C(CONSW) FOR SWITCHES
   798
   799					S^;*********************************************************************^
   800					;*SPECIAL USERS ALTMODE SWITCH CALL INTERCEPT INSTRUCTIONS
   801					S^;*********************************************************************^
   802
   803	030522	000000	000000		$$TAX1:	0	;IF NON-ZERO, XCT'D AT START OF ALTMODE SWITCH CALL
   804	030523	000000	000000		$$TAX2:	0	;IF NON-ZERO, XCT'D AT END OF ALTMODE SWITCH CALL
   805
   806					S^;*********************************************************************^
   807					;*SM10 (KS-10) PROCESSOR TYPE FLAG
   808					S^;*********************************************************************^
   809
   810	030524	000000	000000		SM10:	0	;IF -1 THIS IS A KS-10
   811
   812					S^;*********************************************************************^
   813					;*RIGHT HALF SWITCHES PROMPT TABLE ADDRESS
   814					S^;*********************************************************************^
   815
   816	030525	000000	000000		SWPTAB:	0	;0 = NO PROMPT, ADR = ADR OF SIXBIT PROMPT TABLE
   817
   818					S^;*********************************************************************^
   819					;*SPECIAL FUTURE EXPANSION ROOM
   820					S^;*********************************************************************^
   821
   822					S^;*********************************************************************^
   823					;*END OF FIXED STORAGE
   824					S^;*********************************************************************^
   825
   826	030577					LOC	30577
   827	030577	000000	000000		ENDFIX:	0		;END OF FIXED STORAGE
SUBUSR (DDQDA) DECSYSTEM DIAGNOSTICS USER SUBROUTINE PROGRAM, VER 0,14	MACRO %53(1020) 15:25 23-Mar-78 Page 1
SUBUSM	MAC	23-Mar-78 15:02		*CONTRL* MAIN SUBROUTINE PACKAGE CONTROL                                           SEQ 0272

   828					SUBTTL	*CONTRL* MAIN SUBROUTINE PACKAGE CONTROL
   829
   830					S^;*********************************************************************^
   831					;*SPECIAL SUBPROGRAM LINKAGES
   832					S^;*********************************************************************^
   833
   834	000440					LOC	440
   835
   836	000440	254 00 0 00 030000 		JRST	DIAGNOS
   837	000441	254 00 0 00 010000 		JRST	DDT
   838	000442	254 00 0 00 020000 		JRST	DIAMON
   839	000443	254 00 0 00 001001 		JRST	REINIT
   840
   841	027775					LOC	27775
   842
   843	027775	000000	010000		DDTLNK:	10000			;DDT LINKAGE
   844	027776	000000	001003		MODLNK:	MODCHK			;OPERATIONAL MODE CHECK LINKAGE
   845	027777	000000	001002		SUBLNK:	SUBINI			;SUBROUTINE LINKAGE
   846
   847	001000					LOC	1000		;RESET THE PC AFTER "FIXED" @ 30,000
   848
   849					S^;*********************************************************************^
   850					;*INITIALIZE THE SUBROUTINE PACKAGE
   851					S^;*********************************************************************^
   852
   853	001000	254 00 0 00 001021 	START:	JRST	$SBSRT		;START SUBROUTINE BY ITSELF
   854	001001	254 00 0 00 001030 	REINIT:	JRST	$REINI		;REINIT SUBROUTINE
   855	001002	254 00 0 00 001046 	SUBINI:	JRST	$PGMIN		;SUBROUTINE INIT ROUTINE
   856	001003	254 00 0 00 001121 	MODCHK:	JRST	$MODCK		;OPERATIONAL MODE CHECK LINKAGE
   857	001004	000000	000000			0
   858	001005	63 65 42 62 64 56 	SUBRTN:	SIXBIT/SUBRTN/		;"SUBRTN" IDENTIFICATION WORD
   859	001006	000000	000014		SUBVER:	MCNVER,,DECVER		;"SUBRTN" VERSION INFORMATION
   860	001007	777777	777777		$TTYSPD:-1			;MONITOR TTY SPEED
   861
   862	001010	254 04 0 00 001010 	NOEXEC:	HALT	.		;PROGRAM NOT CODED FOR EXEC MODE
   863	001011	254 04 0 00 001011 	PLERR:	HALT	.		;FATAL PUSH LIST POINTER ERROR
   864	001012	254 04 0 00 001012 	PLERR1:	HALT	.		;INITIAL PUSH LIST POINTER ERROR
   865	001013	254 04 0 00 001013 	MUOERR:	HALT	.		;MUUO WITH LUUO HANDLER WIPED OUT
   866	001014	254 04 0 00 001014 	DTEBER:	HALT	.		;DTE20 INTERRUPT WITHOUT DOORBELL
   867	001015	254 04 0 00 001015 	DTECER:	HALT	.		;DTE20 CLOCK INTERRUPT WITHOUT FLAG SET
   868	001016	254 04 0 00 001016 	CPIERR:	HALT	.		;CPU INITIALIZATION ERROR
   869	001017	254 04 0 00 001017 	EOPERR:	HALT	.		;END OF PROGRAM ERROR
   870	001020	254 04 0 00 001020 	LUOERR:	HALT	.		;INTERRUPT WITH LUUO HANDLER WIPED OUT
SUBUSR (DDQDA) DECSYSTEM DIAGNOSTICS USER SUBROUTINE PROGRAM, VER 0,14	MACRO %53(1020) 15:25 23-Mar-78 Page 2
SUBUSM	MAC	23-Mar-78 15:02		*CONTRL* MAIN SUBROUTINE PACKAGE CONTROL                                           SEQ 0273

   871					S^;*********************************************************************^
   872					;*SPECIAL SUBROUTINE ONLY INITIALIZATION
   873					S^;*********************************************************************^
   874
   875	001021	201 00 0 00 000001 	$SBSRT:	MOVEI	1
   876	001022	202 00 0 00 030024 		MOVEM	ITRCNT		;ALLOW ONLY ONE PASS
   877	001023	201 00 0 00 020000 		MOVEI	DIAMON
   878	001024	202 00 0 00 030012 		MOVEM	RETURN
   879	001025	476 00 0 00 030143 		SETOM	MAPNEW		;FULL 4096K MAPPING
   880	001026	265 00 0 00 030011 		PGMINT
   881	001027	254 00 0 00 030057 		JRST	BEGEND
   882
   883	001030	402 00 0 00 030056 	$REINI:	SETZM	$ONETM		;FOR NOW
   884	001031	402 00 0 00 030047 		SETZM	PASCNT
   885	001032	402 00 0 00 030053 		SETZM	ERRTLS
   886	001033	254 00 0 00 030000 		JRST	BEGIN
   887
   888	001034	254 00 0 00 030057 	STARTA:	JRST	BEGEND
   889
   890	001035				PGMNAM:	ASCIZ	%
   891	001035	015 012 104 105 103 	DECSYSTEM DIAGNOSTIC USER SUBROUTINE'S
   892	001036	123 131 123 124 105
   893	001037	115 040 104 111 101
   894	001040	107 116 117 123 124
   895	001041	111 103 040 125 123
   896	001042	105 122 040 123 125
   897	001043	102 122 117 125 124
   898	001044	111 116 105 047 123
   899	001045	015 012 000 000 000 	%
   900
   901					S^;*********************************************************************^
   902					;*CONTRL* SUBROUTINE PACKAGE INITIALIZATION
   903					S^;*********************************************************************^
   904
   905	001046	202 00 0 00 005325 	$PGMIN:	MOVEM	0,$$PAC0
   906	001047	476 00 0 00 030037 		SETOM	USER
   907	001050	265 00 0 00 001051 		JSP	0,.+1		;LOAD FLAGS INTO AC0
   908	001051	607 00 0 00 010000 		TLNN	0,USERF		;USER MODE ?
   909	001052	254 04 0 00 001052 		HALT	.		;EXEC MODE
   910	001053	402 00 0 00 030516 		SETZM	MONTYP
   911	001054	200 00 0 00 004643 		MOVE	[112,,11]
   912	001055	047 00 0 00 000041 		GETTAB			;GET MONITOR TYPE ID
   913	001056	310 00 0 00 000000 		CAM
   914	001057	306 00 0 00 040000 		CAIN	40000		;TOPS20 ?
   915	001060	476 00 0 00 030516 		SETOM	MONTYP		;YES
SUBUSR (DDQDA) DECSYSTEM DIAGNOSTICS USER SUBROUTINE PROGRAM, VER 0,14	MACRO %53(1020) 15:25 23-Mar-78 Page 3
SUBUSM	MAC	23-Mar-78 15:02		*CONTRL* MAIN SUBROUTINE PACKAGE CONTROL                                           SEQ 0274

   916					S^;*********************************************************************^
   917					;*INITIALIZE PROCESSOR FLAGS AND PUSH LIST
   918					S^;*********************************************************************^
   919
   920	001061	554 00 0 00 000120 	$PGMN1:	HLRZ	JOBSA		;RESET JOB FIRST FREE TO
   921	001062	202 00 0 00 000121 		MOVEM	JOBFF		;END OF LOW SEGMENT
   922	001063	336 00 0 00 030516 		SKIPN	MONTYP
   923	001064	047 00 0 00 000000 		CALLI	0		;TOPS10 RESET
   924	001065	332 00 0 00 030516 		SKIPE	MONTYP
   925	001066	104 00 0 00 000147 		RESET			;CLEAR USER I/O
   926	001067	254 02 1 00 001070 		JRST	2,@.+1		;CLEAR PC FLAGS
   927	001070	000000	001071				0,,.+1
   928	001071	200 00 0 00 030046 		MOVE	CONSW
   929	001072	202 00 0 00 005401 		MOVEM	$SVCSW#		;SAVE PREVIOUS SWITCHES
   930	001073	402 00 0 00 030046 		SETZM	CONSW#		;CLEAR SWITCH REGISTER
   931	001074	402 00 0 00 005403 		SETZM	$SWFLG#		;DISALLOW SWITCHES TILL INITED
   932	001075	200 00 0 00 004644 		MOVE	[JRST $DDTENT]	;SETUP DDT START
   933	001076	202 00 0 00 030007 		MOVEM	DDTSRT		;DDT IF LOADED, EOPUUO IF NOT
   934	001077	200 00 0 00 004645 		MOVE	[JRST PSHERR]
   935	001100	202 00 0 00 030103 		MOVEM	$PSHER		;INIT FOR UNDERFLOW
   936	001101	200 17 0 00 030303 		MOVE	P,PLIST		;INIT PUSH POINTER
   937	001102	201 00 0 00 030103 		MOVEI	0,$PSHER
   938	001103	261 17 0 00 000000 		PUSH	P,0		;SET ERR FOR EXCESSIVE POP'S
   939	001104	261 17 0 00 000000 		PUSH	P,0
   940
   941					S^;*********************************************************************^
   942					;*INITIALIZE SUBROUTINES
   943					S^;*********************************************************************^
   944
   945	001105	260 17 0 00 001730 	PGINGO:	GO	$CPUTP		;DETERMINE CPU TYPE (KS/KL/KI/KA)
   946	001106	260 17 0 00 001155 		GO	$UUOIN		;INIT UUO TRAP TRANSFER LOCATION
   947	001107	260 17 0 00 003651 		GO	$PNTIN		;INIT PRINT SUBROUTINE
   948	001110	260 17 0 00 003237 		GO	$TYPIN		;INIT TTY INPUT SUBROUTINE
   949	001111	260 17 0 00 002772 		GO	$SWTIN		;INIT SWITCH INPUT SUBROUTINE
   950	001112	260 17 0 00 002140 		GO	$ITRIN		;INIT INTERRUPT SUBROUTINE
   951	001113	332 00 0 00 030034 		SKIPE	$MMAP		;MEMORY ROUTINES ?
   952	001114	260 17 0 00 002415 		GO	$MEMMP		;MAP MEMORY
   953	001115	476 00 0 00 030056 		SETOM	$ONETM		;SET ONE TIME FLAG
   954	001116	402 00 0 00 030116 		SETZM	SCOPE		;INIT ERROR SCOPE LOOP
   955	001117	402 00 0 00 030052 		SETZM	ERRPC		;INIT ERROR PC
   956	001120	254 00 1 00 005325 		JRST	@$$PAC0#
SUBUSR (DDQDA) DECSYSTEM DIAGNOSTICS USER SUBROUTINE PROGRAM, VER 0,14	MACRO %53(1020) 15:25 23-Mar-78 Page 4
SUBUSM	MAC	23-Mar-78 15:02		*CONTRL* MAIN SUBROUTINE PACKAGE CONTROL                                           SEQ 0275

   957					S^;*********************************************************************^
   958					;* -- THIS ROUTINE IS USED TO DETERMINE THE PROPER OPERATIONAL
   959					;*MODE FOR A DIAGNOSTIC JUST LOADED. IT WILL CHECK WHETHER OR NOT
   960					;*IT IS IN USER MODE OR EXEC MODE. AND THEN WILL CHECK TO SEE WHAT
   961					;*MODE HAS BEEN SELECTED FOR THIS TEST TO RUN IN. THIS MODE IS SELECTED
   962					;*AT ASSEMBLY TIME.
   963					S^;*********************************************************************^
   964
   965	001121	265 00 0 00 001122 	$MODCK:	JSP	0,.+1		;GET FLAG CONDITIONS
   966	001122	603 00 0 00 010000 		TLNE	0,USERF		;IN USER MODE ?
   967	001123	254 00 0 00 001136 		JRST	$UCK		;YES
   968	001124	476 00 0 00 030024 	$ECK:	SETOM	ITRCNT		;EXEC, RUN FOREVER
   969	001125	402 00 0 00 030043 		SETZM	MONCTL		;NOT HERE IF UNDER MONITOR CONTROL
   970	001126	476 00 0 00 030042 		SETOM	MONFLG		;SET TO NORMAL OPERATION
   971	001127	332 00 0 00 030044 		SKIPE	MONTEN		;LOADED BY "DIAMON" ?
   972	001130	254 00 0 00 001133 		JRST	.+3		;YES, RETURN TO "DIAMON" UPON COMPLETION
   973	001131	201 00 0 00 030000 		MOVEI	BEGIN		;SET UP RETURN IN CASE WE EVER COUNT OUT
   974	001132	202 00 0 00 030012 		MOVEM	RETURN		;FOR THE RETURN ADDRESS
   975	001133	332 00 0 00 030031 		SKIPE	$EMODE		;EXEC MODE ALLOWED?
   976	001134	254 00 0 00 030001 		JRST	$START		;YES - CONTINUE
   977	001135	254 04 0 00 001010 		HALT	NOEXEC		;THIS PROGRAM NOT CODED FOR EXEC MODE OPERATION!
   978
   979	001136	332 00 0 00 030032 	$UCK:	SKIPE	$UMODE		;USER MODE ALLOWED?
   980	001137	254 00 0 00 030001 		JRST	$START		;YES - CONTINUE
   981	001140	200 00 0 00 004643 	$NOUSR:	MOVE	[112,,11]
   982	001141	047 00 0 00 000041 		GETTAB
   983	001142	310 00 0 00 000000 		CAM
   984	001143	306 00 0 00 040000 		CAIN	40000
   985	001144	254 00 0 00 001150 		JRST	$NOU20
   986						OUTSTR	[ASCIZ/
   987					EXEC ONLY
   988	001145	051 03 0 00 004646 	/]
   989	001146	051 03 1 00 030025 		OUTSTR	@$PNAME
   990	001147	254 00 1 00 030012 		JRST	@RETURN
   991	001150				$NOU20:	HRROI	1,[ASCIZ/
   992					EXEC ONLY
   993	001150	561 01 0 00 004646 	/]
   994	001151	104 00 0 00 000076 		PSOUT
   995	001152	561 01 1 00 030025 		HRROI	1,@$PNAME	;PRINT THE NAME OF THIS FILE
   996	001153	104 00 0 00 000076 		PSOUT
   997	001154	254 00 1 00 030012 		JRST	@RETURN		;LEAVE FOR EVER
SUBUSR (DDQDA) DECSYSTEM DIAGNOSTICS USER SUBROUTINE PROGRAM, VER 0,14	MACRO %53(1020) 15:25 23-Mar-78 Page 5
SUBUSM	MAC	23-Mar-78 15:02		*CONTRL* UUO HANDLING SUBROUTINE                                                   SEQ 0276

   998					SUBTTL	*CONTRL* UUO HANDLING SUBROUTINE
   999
  1000					S^;*********************************************************************^
  1001					;*UUO INITIALIZATION
  1002					S^;*********************************************************************^
  1003
  1004	001155	200 00 0 00 004651 	$UUOIN:	MOVE	[GO  $UORTN]	;BRING IN UUORTN ENTRY INSTR.
  1005	001156	202 00 0 00 000041 		MOVEM	JOB41		;SETUP UUO TRAP AT JOB41
  1006	001157	200 00 0 00 004652 		MOVE	[JRST $UOERX]
  1007	001160	202 00 0 00 030070 		MOVEM	$UUOER		;SET UUO ERROR IN "FIXED"
  1008	001161	402 00 0 00 005416 		SETZM	$UPLER#
  1009	001162	263 17 0 00 000000 		RTN			;EXIT
  1010
  1011					S^;*********************************************************************^
  1012					;*THIS ROUTINE FIELDS ALL TRAPPED UUO'S AND SELECTS BETWEEN SUBROUTINE
  1013					;*PACKAGE UUO'S (037), TEST ERROR UUO'S (034, 035 & 036), AND DIAGNOSTIC
  1014					;*PROGRAM SEGMENT UUO'S (001 - 033).
  1015					;*AC0 IS SAVED ON THE STACK INITIALLY
  1016					S^;*********************************************************************^
  1017
  1018	001163	332 00 0 00 030515 	$UORTN:	SKIPE	$$UUO		;IF NON-ZERO, XCT USERS UUO INTERCEPT
  1019	001164	256 00 0 00 030515 		XCT	$$UUO
  1020	001165	607 17 0 00 777000 		TLNN	P,777000
  1021	001166	254 00 0 00 001257 		JRST	$UOPLE		;CHECK THAT P LOOKS LIKE A P POINTER
  1022	001167	602 17 0 00 747000 		TRNE	P,747000
  1023	001170	254 00 0 00 001257 		JRST	$UOPLE
  1024	001171	261 17 0 00 000000 		PUT	AC0		;SAVE AC0 ON PUSH LIST
  1025	001172	550 00 0 00 000017 		HRRZ	AC0,P		;VERIFY THAT THE PUSH POINTER
  1026	001173	307 00 0 00 030303 		CAIG	AC0,PLIST	;IS STILL OK
  1027	001174	254 00 0 00 001257 		JRST	$UOPLE		;OUT OF RANGE
  1028	001175	301 00 0 00 030504 		CAIL	AC0,PLISTE
  1029	001176	254 00 0 00 001257 		JRST	$UOPLE
  1030	001177	554 00 0 00 000017 		HLRZ	AC0,P		;GET CONTROL COUNT
  1031	001200	307 00 0 00 777577 		CAIG	AC0,777577
  1032	001201	254 00 0 00 001257 		JRST	$UOPLE		;OUT OF RANGE
  1033	001202	301 00 0 00 777777 		CAIL	AC0,777777
  1034	001203	254 00 0 00 001257 		JRST	$UOPLE
  1035	001204	200 00 0 00 000040 		MOVE	AC0,JOBUUO	;GET THE UUO
  1036	001205	242 00 0 00 777745 		LSH	AC0,-^D27	;ISOLATE INSTRUCTION FIELD FOR UUO (RT 27 PLACES)
  1037	001206	303 00 0 00 000033 		CAILE	AC0,33		;IS IT 33 OR LESS? (LOW)
  1038	001207	254 00 0 00 001234 		JRST	$SUBUO		;DECODE 34 - 37 @ $SUBUO
SUBUSR (DDQDA) DECSYSTEM DIAGNOSTICS USER SUBROUTINE PROGRAM, VER 0,14	MACRO %53(1020) 15:25 23-Mar-78 Page 6
SUBUSM	MAC	23-Mar-78 15:02		*CONTRL* UUO HANDLING SUBROUTINE                                                   SEQ 0277

  1039	001210	200 00 0 17 777777 	$USRUO:	MOVE	AC0,-1(P)	;GET USRPC + 1 (AC0 IS ALSO ON THE STACK)
  1040	001211	275 00 0 00 000001 		SUBI	1		; - 1
  1041	001212	202 00 0 00 030114 		MOVEM	$SVUPC		;SAVE FOR USER UUO ROUTINE (IF NEEDED)
  1042	001213	200 00 0 00 000040 		MOVE	AC0,JOBUUO	;GET UUO FROM LOCATION 40 IN JDA
  1043	001214	202 00 0 00 030113 		MOVEM	$SVUUO		;SAVE FOR USER UUO ROUTINE
  1044	001215	262 17 0 00 000000 		GET	AC0
  1045	001216	256 00 0 00 030066 		XCT	UUORTN		;EXECUTE USERS ROUTINE IF SUPPLIED
  1046	001217	261 17 0 00 000000 		PUT	AC0
  1047	001220	200 00 0 00 030113 		MOVE	AC0,$SVUUO
  1048	001221	242 00 0 00 777745 		LSH	AC0,-^D27	;RIGHT SHIFT FOR INDEX INTO UUO TABLE
  1049	001222	261 17 0 00 000001 		PUT	1
  1050	001223	246 00 0 00 777777 		LSHC	0,-1
  1051	001224	271 00 0 00 030124 		ADDI	UUODIS		;ADD USER UUO TABLE START TO THE UUO
  1052	001225	607 01 0 00 400000 	$XUUO:	TLNN	1,400000
  1053	001226	550 00 1 00 000000 		HRRZ	@0		;EVEN UUO
  1054	001227	603 01 0 00 400000 		TLNE	1,400000
  1055	001230	554 00 1 00 000000 		HLRZ	@0		;ODD UUO
  1056	001231	262 17 0 00 000001 		GET	1
  1057	001232	250 00 0 17 000000 		EXCH	AC0,(P)		;PUT ADR ON STACK, AC0 BACK IN AC0
  1058	001233	263 17 0 00 000000 		RTN			;SPECIAL XFER TO ROUTINE USING ADR ON STACK
  1059
  1060	001234	275 00 0 00 000034 	$SUBUO:	SUBI	AC0,34		;NORMALIZE TO MAKE LOWEST UUO = 0
  1061	001235	271 00 0 00 001237 		ADDI	AC0,TABLE0	;ADDR OF TABLE + NORM. UUO (0-3)
  1062	001236	254 00 1 00 000000 		JRST	@0		;SELECT THE CORRECT ERROR UUO VIA TABLE
  1063
  1064	001237	254 00 0 00 001427 	TABLE0:	JRST	%REPT		;UUO = 34 ......................REPEAT
  1065	001240	254 00 0 00 001371 		JRST	%ERLP		;UUO = 35 ...........LOOP ON THE ERROR
  1066	001241	254 00 0 00 001444 		JRST	%ERUUO		;UUO = 36 .REPORT THE ERROR CONDITIONS
  1067	001242	254 00 0 00 001274 		JRST	$UUO37		;UUO = 37 .......DECODE SUBROUTINE UUO
SUBUSR (DDQDA) DECSYSTEM DIAGNOSTICS USER SUBROUTINE PROGRAM, VER 0,14	MACRO %53(1020) 15:25 23-Mar-78 Page 7
SUBUSM	MAC	23-Mar-78 15:02		*CONTRL* UUO HANDLING SUBROUTINE                                                   SEQ 0278

  1068					S^;*********************************************************************^
  1069					;*UUO ERROR EXIT ROUTINE
  1070					S^;*********************************************************************^
  1071						SALL
  1072	001243	262 17 0 00 000000 		GET	AC0		;POP OFF AC0 (KA MUUO'S)
  1073	001244	261 17 0 00 000040 	$UOERX:	PUT	JOBUUO		;SAVE BAD UUO WHILE PRINTING VIA AC0 (P + 1)
  1074	001245	037 02 0 00 004653 		PMSG	<^ILLEGAL UUO^UUO]]FLAGS]  PC^>
  1075	001246	262 17 0 00 000000 		GET	AC0		;GET BAD UUO FROM THE STACK (P - 1)
  1076	001247	037 13 0 00 000000 		PNTHW			;PRINT IT
  1077	001250	037 00 0 00 000040 		PSP			;PRINT SPACE
  1078	001251	262 17 0 00 000000 		GET	AC0		;GET FLAGS & UUO PC + 1 FROM STACK (P - 1)
  1079	001252	275 00 0 00 000001 		SUBI	AC0,1		;SUBTRACT 1
  1080	001253	037 13 0 00 000000 		PNTHW			;PRINT FLAGS & UUO PC
  1081	001254	037 00 0 00 030242 		PCRL			;PRINT C/R & L/F
  1082	001255	256 00 0 00 030067 		XCT	$UORTX		;EXECUTE USERS UUO EXIT, IF PROV
  1083	001256	037 15 0 00 000004 		FATAL
  1084
  1085	001257	332 00 0 00 005416 	$UOPLE:	SKIPE	$UPLER		;FIRST TIME ?
  1086	001260	254 04 0 00 001011 		HALT	PLERR		;NO, FATAL HALT THEN
  1087	001261	476 00 0 00 005416 		SETOM	$UPLER
  1088	001262	202 17 0 00 005370 		MOVEM	P,$PDOVP#	;SAVE "P"
  1089	001263	200 17 0 00 030303 		MOVE	P,PLIST
  1090	001264	312 17 0 00 004660 		CAME	P,[PLIST-PLISTE,,PLIST]
  1091	001265	254 04 0 00 001012 		HALT	PLERR1		;INITIAL POINTER BAD
  1092	001266	201 00 0 00 030103 		MOVEI	$PSHER
  1093	001267	261 17 0 00 000000 		PUSH	P,0
  1094	001270	037 04 0 00 004661 		PMSGF	<^*****^UUO PLIST ERR P=>
  1095	001271	200 00 0 00 005370 		MOVE	$PDOVP
  1096	001272	037 13 0 00 000001 		PNTHWF
  1097	001273	037 15 0 00 000004 		FATAL
  1098						LALL
SUBUSR (DDQDA) DECSYSTEM DIAGNOSTICS USER SUBROUTINE PROGRAM, VER 0,14	MACRO %53(1020) 15:25 23-Mar-78 Page 8
SUBUSM	MAC	23-Mar-78 15:02		*CONTRL* UUO HANDLING SUBROUTINE                                                   SEQ 0279

  1099					S^;*********************************************************************^
  1100					;*DECODE ROUTINE FOR SUBROUTINE UUO'S (037)
  1101					S^;*********************************************************************^
  1102
  1103	001274	550 00 0 00 000040 	$UUO37:	HRRZ	JOBUUO		;GET CALLING UUO
  1104	001275	322 00 0 00 003713 		JUMPE	$PNTIT		;PRINT UUO
  1105	001276	306 00 0 00 000001 		CAIN	0,1
  1106	001277	254 00 0 00 003706 		JRST	$PNTIF		;PRINT FORCED UUO
  1107	001300	602 00 0 00 777600 		TRNE	777600
  1108	001301	254 00 0 00 001354 		JRST	$EG177		;PRINT MESSAGE UUO
  1109	001302	301 00 0 00 000005 		CAIL	5
  1110	001303	254 00 0 00 001345 		JRST	$EG4		;PRINT CHAR IMMEDIATE UUO
  1111	001304	261 17 0 00 000001 		PUT	1
  1112	001305	200 01 0 00 000040 		MOVE	1,JOBUUO
  1113	001306	242 01 0 00 777751 		LSH	1,-^D23		;EXTRACT UUO AC FIELD
  1114	001307	405 01 0 00 000017 		ANDI	1,17
  1115	001310	242 00 0 00 000004 		LSH	0,4		;POSITION E FIELD
  1116	001311	434 00 0 00 000001 		IOR	0,1		;COMBINE E & AC FIELD
  1117	001312	246 00 0 00 777777 		LSHC	0,-1		;SET ODD/EVEN
  1118	001313	271 00 0 00 001275 		ADDI	$UOTAB-20	;COMPUTE TABLE ENTRY OFFSET
  1119	001314	254 00 0 00 001225 		JRST	$XUUO
  1120
  1121	001315				$UOTAB:				;E FIELD = 2
  1122	001315	004026	004015			$PTSXF,,$PNTSX
  1123	001316	004177	004144			$PNTCF,,$PNTCW
  1124	001317	004515	002077			$DRPDV,,$PNTNM
  1125	001320	002626	002736			$MODDV,,$MODDP
  1126	001321	002423	002747			$MSEG,,$SWTCH
  1127	001322	002524	002502			$MPADR,,$MZRO
  1128	001323	001370	001370			$MPCNK,,$MPSET
  1129	001324	002567	001370			$PMAP,,$PNTMG
  1130									;E FIELD = 3
  1131	001325	003430	003301			$YESNO,,$OPTLK
  1132	001326	003474	003426			$TPOCT,,$NOYES
  1133	001327	003470	003472			$TPCNV,,$TPDEC
  1134	001330	003311	003241			$TALTM,,$TTLK
  1135	001331	003266	003616			$TTYIN,,$TISIX
  1136	001332	001244	003360			$UOERX,,$TPCLR
  1137	001333	004037	004042			$PSIXF,,$PSIX
  1138	001334	004101	004104			$POCSF,,$POCS
SUBUSR (DDQDA) DECSYSTEM DIAGNOSTICS USER SUBROUTINE PROGRAM, VER 0,14	MACRO %53(1020) 15:25 23-Mar-78 Page 9
SUBUSM	MAC	23-Mar-78 15:02		*CONTRL* UUO HANDLING SUBROUTINE                                                   SEQ 0280

  1139									;E FIELD = 4
  1140	001335	001370	002415			$CINVAL,,$MEMMP
  1141	001336	001370	001370			$CWRTB,,$CFLUSH
  1142	001337	001766	001370			$FSELECT,,$MTROP
  1143	001340	002012	002014			$FRD36,,$FREAD
  1144	001341	001244	002010			$UOERX,,$FRD8
  1145	001342	001370	002366			$CLOCK,,$END
  1146	001343	002056	002030			$FATAL,,$ERHLT
  1147	001344	001244	002407			$UOERX,,$EOP
  1148
  1149	001345	200 00 0 00 000040 	$EG4:	MOVE	JOBUUO		;IMMEDIATE CHARACTER PRINT
  1150	001346	316 00 0 00 004665 		CAMN	[PFORCE]	;"PFORCE" CALL ?
  1151	001347	254 00 0 00 001366 		JRST	$EGX1		;YES
  1152	001350	603 00 0 00 000040 		TLNE	(1B12)
  1153						JRST	[PNTCHF
  1154	001351	254 00 0 00 004666 			JRST	$EGX]
  1155	001352	037 12 0 00 000000 		PNTCHR
  1156	001353	254 00 0 00 001364 		JRST	$EGX
  1157
  1158	001354	200 00 0 00 000040 	$EG177:	MOVE	JOBUUO		;IMMEDIATE MESSAGE PRINT
  1159	001355	603 00 0 00 000200 		TLNE	(4B12)
  1160						JRST	[PSIXLF
  1161	001356	254 00 0 00 004670 			JRST	$EGX]
  1162	001357	603 00 0 00 000100 		TLNE	(2B12)
  1163						JRST	[PSIXL
  1164	001360	254 00 0 00 004672 			JRST	$EGX]
  1165	001361	603 00 0 00 000040 		TLNE	(1B12)
  1166						JRST	[PNTALF
  1167	001362	254 00 0 00 004674 			JRST	$EGX]
  1168	001363	037 17 0 00 000000 		PNTAL
  1169	001364	262 17 0 00 000000 	$EGX:	GET	0
  1170	001365	263 17 0 00 000000 		RTN
  1171
  1172	001366	260 17 0 00 003724 	$EGX1:	GO	$PCLRO		;CLEAR CONTROL O & INPUT BUFFER
  1173	001367	254 00 0 00 001364 		JRST	$EGX
  1174
  1175	001370				$CFLUSH:
  1176	001370				$CINVAL:
  1177	001370				$CLOCK:
  1178	001370				$CWRTB:
  1179	001370				$MPCNK:
  1180	001370				$MPSET:
  1181	001370				$MTROP:
  1182	001370				$PNTMG:
  1183	001370	263 17 0 00 000000 		RTN			;NON-USER MODE UUO'S
SUBUSR (DDQDA) DECSYSTEM DIAGNOSTICS USER SUBROUTINE PROGRAM, VER 0,14	MACRO %53(1020) 15:25 23-Mar-78 Page 10
SUBUSM	MAC	23-Mar-78 15:02		*CONTRL* PDP-10 DIAGNOSTIC ERROR HANDLER                                           SEQ 0281

  1184					SUBTTL	*CONTRL* PDP-10 DIAGNOSTIC ERROR HANDLER
  1185
  1186					S^;*********************************************************************^
  1187					;*THE DIAGNOSTIC ERROR HANDLER IS A SUBROUTINE CAPABLE OF REPORTING
  1188					;*A STANDARD BUT FLEXIBLE FORMAT OF TEST DATA AND DIAGNOSTIC
  1189					;*INFORMATION.  THE ERROR HANDLER ALSO INTERPRETS AND CONTROLS TEST
  1190					;*SWITCHES SUCH AS TYPEOUT SUPPRESSION, CONTINUE/HALT OR LOOP ON
  1191					;*ERROR, AND BELL ON ERROR.
  1192					;*ERROR LOOPING ROUTINE
  1193					;*EITHER CONTINUES IN-LINE
  1194					;*OR TRANSFERS TO E FIELD OF UUO
  1195					;*CHECKS PC OF ERROR TO DETERMINE LOOPING
  1196					S^;*********************************************************************^
  1197
  1198	001371	402 00 0 00 005425 	%ERLP:	SETZM	%ERFLG#
  1199	001372	200 00 0 00 000040 		MOVE	AC0,JOBUUO	;GET AC FIELD OF UUO
  1200	001373	242 00 0 00 777751 		LSH	AC0,-^D23
  1201	001374	405 00 0 00 000017 		ANDI	AC0,17
  1202	001375	306 00 0 00 000002 		CAIN	AC0,2
  1203	001376	254 00 0 00 001415 		JRST	%ERLP2		; 2 = LOOP IF ANY ERROR
  1204	001377	306 00 0 00 000001 		CAIN	AC0,1
  1205	001400	254 00 0 00 001411 		JRST	%ERLP1		; 1 = LOOP IF PC'S MATCH
  1206	001401	306 00 0 00 000000 		CAIN	AC0,0
  1207	001402	254 00 0 00 001405 		JRST	%ERLP0		; 0 = PC'S, REPT, REPT1 & ERROR
  1208	001403	262 17 0 00 000000 		GET	AC0
  1209	001404	254 00 0 00 001244 		JRST	$UOERX
  1210	001405	476 00 0 00 005425 	%ERLP0:	SETOM	%ERFLG
  1211	001406	316 15 0 00 005431 		CAMN	REPT,%RP	;ARE REPEAT COUNTS SAME AS ERROR ?
  1212	001407	312 16 0 00 005432 		CAME	REPT1,%RP1	;(AT RIGHT PLACE IN TEST LOOPS ?)
  1213	001410	254 00 0 00 001425 		JRST	%ERX1		;NO, CONTINUE IN LINE
  1214	001411	550 00 0 17 777777 	%ERLP1:	HRRZ	AC0,-1(P)	;GET PC OF LOOP CALL FROM STACK
  1215	001412	275 00 0 00 000002 		SUBI	AC0,2		;LESS 2
  1216	001413	312 00 0 00 030052 		CAME	AC0,ERRPC	;NOW EQUAL TO PC OF ERROR CALL ?
  1217	001414	254 00 0 00 001425 		JRST	%ERX1		;NO, CONTINUE IN LINE
  1218	001415	260 17 0 00 002747 	%ERLP2:	GO	$SWTCH		;READ SWITCHES INTO AC0
  1219	001416	607 00 0 00 004000 		TLNN	LOOPER		;LOOP ON ERROR ?
  1220	001417	402 00 0 00 030116 		SETZM	SCOPE		;NO ..........CLEAR LOOP CONTROL
  1221	001420	331 00 0 00 030116 		SKIPL	SCOPE		;YES ...WAS THERE AN ERROR ?
  1222	001421	254 00 0 00 001425 		JRST	%ERX1		;NO, CONTINUE IN LINE
SUBUSR (DDQDA) DECSYSTEM DIAGNOSTICS USER SUBROUTINE PROGRAM, VER 0,14	MACRO %53(1020) 15:25 23-Mar-78 Page 11
SUBUSM	MAC	23-Mar-78 15:02		*CONTRL* PDP-10 DIAGNOSTIC ERROR HANDLER                                           SEQ 0282

  1223	001422	262 17 0 00 000000 	%ERX:	GET	AC0		;RESTORE AC0
  1224	001423	274 17 0 00 004676 		SUB	P,[1,,1]	;CORRECT PUSH LIST POINTER FOR NO "RTN"
  1225	001424	254 00 1 00 000040 		JRST	@JOBUUO		;TRANSFER TO E FIELD OF UUO
  1226
  1227	001425	262 17 0 00 000000 	%ERX1:	GET	AC0		;RESTORE AC0
  1228	001426	263 17 0 00 000000 		RTN
  1229
  1230					S^;*********************************************************************^
  1231					;*REPEAT LOOP ROUTINE
  1232					;*EITHER CONTINUES IN-LINE
  1233					;*OR TRANSFERS TO E FIELD OF UUO
  1234					S^;*********************************************************************^
  1235
  1236	001427	373 00 0 00 030115 	%REPT:	SOSLE	REPTU#		;REPEAT TEST SECTION ?
  1237	001430	254 00 0 00 001422 		JRST	%ERX		;YES, E FIELD OF UUO IS RETURN
  1238	001431	254 00 0 00 001425 		JRST	%ERX1		;NO, CONTINUE IN LINE
  1239
  1240					S^;*********************************************************************^
  1241					;*COMMON ERROR HANDLER AC SAVE/RESTORE
  1242					S^;*********************************************************************^
  1243
  1244	001432	202 00 0 00 005420 	%EACS:	MOVEM	0,%AC0#
  1245	001433	202 01 0 00 005421 		MOVEM	1,%AC1#
  1246	001434	202 02 0 00 005422 		MOVEM	2,%AC2#
  1247	001435	202 03 0 00 005423 		MOVEM	3,%AC3#
  1248	001436	263 17 0 00 000000 		RTN
  1249
  1250	001437	200 00 0 00 005420 	%EACR:	MOVE	0,%AC0
  1251	001440	200 01 0 00 005421 	%EACR1:	MOVE	1,%AC1
  1252	001441	200 02 0 00 005422 		MOVE	2,%AC2
  1253	001442	200 03 0 00 005423 		MOVE	3,%AC3
  1254	001443	263 17 0 00 000000 		RTN
SUBUSR (DDQDA) DECSYSTEM DIAGNOSTICS USER SUBROUTINE PROGRAM, VER 0,14	MACRO %53(1020) 15:25 23-Mar-78 Page 12
SUBUSM	MAC	23-Mar-78 15:02		*CONTRL* PDP-10 DIAGNOSTIC ERROR HANDLER                                           SEQ 0283

  1255					;*ERROR REPORTING ROUTINE
  1256					S^;*********************************************************************^
  1257
  1258	001444	200 00 0 00 000040 	%ERUUO:	MOVE	LUUO
  1259	001445	202 00 0 00 005430 		MOVEM	%LUUO#
  1260	001446	476 00 0 00 030116 		SETOM	SCOPE
  1261	001447	262 17 0 00 000000 		GET	AC0
  1262	001450	332 00 0 00 030512 		SKIPE	%ERHI1		;ANY USERS INSTRUCTION ?
  1263	001451	256 00 0 00 030512 		XCT	%ERHI1		;YES, DO USERS ROUTINE
  1264	001452	260 17 0 00 001432 		GO	%EACS		;SAVE AC0 - AC3
  1265	001453	402 00 0 00 030117 		SETZM	%CORFLG#
  1266	001454	402 00 0 00 030121 		SETZM	%ACTFL#
  1267	001455	350 00 0 00 030053 		AOS	ERRTLS		;INCREMENT ERROR TOTALS
  1268	001456	260 17 0 00 002747 		GO	$SWTCH
  1269	001457	550 03 0 17 000000 		HRRZ	3,(P)		;GET <ADDRESS> OF ERROR CALL FROM STACK
  1270	001460	275 03 0 00 000001 		SUBI	3,1
  1271	001461	312 03 0 00 030052 		CAME	3,ERRPC		;SKIP IF SAME ERROR
  1272	001462	254 00 0 00 001472 		JRST	%ERPNT
  1273	001463	336 00 0 00 005425 		SKIPN	%ERFLG
  1274	001464	254 00 0 00 001470 		JRST	.+4		;DON'T CHECK REPEAT COUNTS
  1275	001465	316 15 0 00 005431 		CAMN	REPT,%RP
  1276	001466	312 16 0 00 005432 		CAME	REPT1,%RP1
  1277	001467	254 00 0 00 001472 		JRST	%ERPNT		;DIFFERENT, PRINT ERROR
  1278	001470	607 00 0 00 001000 		TLNN	PALERS		;PRINT ALL ERRORS ?
  1279	001471	254 00 0 00 001673 		JRST	%ERSW1		;THIS ERROR ALREADY REPORTED ONCE.
  1280
  1281					;*BYPASS ERROR REPORT IF NOPNT SWITCH IS SET
  1282					S^;*********************************************************************^
  1283
  1284	001472	202 15 0 00 005431 	%ERPNT:	MOVEM	REPT,%RP#	;SAVE REPEAT COUNTS
  1285	001473	202 16 0 00 005432 		MOVEM	REPT1,%RP1#
  1286	001474	202 03 0 00 030052 		MOVEM	3,ERRPC		;SAVE ERROR CALL ADDRESS
  1287	001475	603 00 0 00 040000 		TLNE	0,NOPNT
  1288	001476	254 00 0 00 001673 		JRST	%ERSW1
  1289	001477	037 01 0 00 000026 		PFORCE			;OVERRIDE CONTROL O
  1290	001500	402 00 0 00 005424 		SETZM	%ERCNT#
  1291	001501	335 00 0 00 030043 		SKIPGE	MONCTL		;DIAG MON OR SYS EXER ?
  1292	001502	254 00 0 00 001705 		JRST	%ERPRA		;YES, GO PRINT TITLE
SUBUSR (DDQDA) DECSYSTEM DIAGNOSTICS USER SUBROUTINE PROGRAM, VER 0,14	MACRO %53(1020) 15:25 23-Mar-78 Page 13
SUBUSM	MAC	23-Mar-78 15:02		*CONTRL* PDP-10 DIAGNOSTIC ERROR HANDLER                                           SEQ 0284

  1293						SALL
  1294	001503	336 00 0 00 030047 	%ERPRB:	SKIPN	PASCNT
  1295	001504	254 00 0 00 001510 		JRST	.+4		;DON'T PRINT PASS COUNTER ON FIRST PASS
  1296	001505	037 02 0 00 004677 		PMSG	<^TEST PASS COUNT = >
  1297	001506	200 00 0 00 030047 		MOVE	0,PASCNT
  1298	001507	037 15 0 00 000000 		PNTDEC			;PRINT TEST PASS COUNTER
  1299	001510	037 02 0 00 004703 		PMSG	<^PC=  >
  1300	001511	201 00 0 03 000000 		MOVEI	0,(3)
  1301	001512	037 06 0 00 000000 		PNT6			;PRINT PC OF ERROR CALL.
  1302	001513	037 02 0 00 004705 		PMSG	<^SWITCHES = >
  1303	001514	200 00 0 00 030046 		MOVE	CONSW
  1304	001515	037 13 0 00 000000 		PNTHW			;PRINT SWITCHES AT ERROR
  1305	001516	260 17 0 00 001437 		GO	%EACR
  1306	001517	332 00 0 00 030514 		SKIPE	%ERHI3		;IF NON-ZERO, XCT USERS ROUTINE
  1307	001520	256 00 0 00 030514 		XCT	%ERHI3
  1308
  1309	001521	550 03 1 00 030052 		HRRZ	3,@ERRPC	;GET "E FIELD" OF ERROR CALL
  1310	001522	200 00 0 00 030046 		MOVE	0,CONSW		;AC3 HAS THE ERROR CALL ADDR IN IT
  1311	001523	603 00 0 00 000200 		TLNE	TXTINH		;TEXT INHIBITED ?
  1312	001524	254 00 0 00 001545 		JRST	%ERPR2		;YES
  1313	001525	201 00 0 00 004710 		MOVEI	0,SIXBTZ	<^ERROR IN >
  1314	001526	554 01 0 03 000000 		HLRZ	1,(3)		;GET NAME OF FAILING TEST
  1315	001527	322 01 0 00 001535 		JUMPE	1,%ERPR1	;JUMP IF NO TEST NAME
  1316	001530	037 14 0 00 000003 		PSIXL			;*DEFINE T=0 TO INHIBIT TEST NAME
  1317	001531	200 00 0 00 000001 		MOVE	0,1
  1318	001532	037 14 0 00 000003 		PSIXL			;REPORT NAME OF FAILING TEST
  1319	001533	201 00 0 00 004712 		MOVEI	0,SIXBTZ	< - >
  1320	001534	254 00 0 00 001536 		JRST	.+2
  1321	001535	201 00 0 00 004713 	%ERPR1:	MOVEI	0,SIXBTZ	<^>
  1322	001536	550 01 0 03 000000 		HRRZ	1,(3)		;GET ADDRESS OF FUNCTION MSG
  1323	001537	200 01 0 01 000000 		MOVE	1,(1)		;GET MESSAGE
  1324	001540	316 01 0 00 004704 		CAMN	1,[SIXBIT\_\]	;BLANK MESSAGE ?
  1325	001541	254 00 0 00 001545 		JRST	%ERPR2		;JUMP IF NO FUNCTION CALLED OUT.
  1326	001542	037 14 0 00 000003 		PSIXL
  1327	001543	550 00 0 03 000000 		HRRZ	0,(3)		;GET MESSAGE ADDRESS AGAIN
  1328	001544	037 14 0 00 000003 		PSIXL			;REPORT FUNCTION BEING TESTED.
  1329	001545	476 00 0 00 030123 	%ERPR2:	SETOM	%DISCR#		;SET 'DISCREPANCY FLAG'.
  1330						LALL
SUBUSR (DDQDA) DECSYSTEM DIAGNOSTICS USER SUBROUTINE PROGRAM, VER 0,14	MACRO %53(1020) 15:25 23-Mar-78 Page 14
SUBUSM	MAC	23-Mar-78 15:02		*CONTRL* PDP-10 DIAGNOSTIC ERROR HANDLER                                           SEQ 0285

  1331					;*GET X (AC FIELD) FROM ERROR UUO. PASS X ARGUMENT ONTO $PRINT.
  1332					S^;*********************************************************************^
  1333						SALL
  1334	001546	200 00 0 00 005430 	%ERP2B:	MOVE	%LUUO
  1335	001547	241 00 0 00 000015 		ROT	0,15		;GET THE X ARGUEMENT
  1336	001550	405 00 0 00 000017 		ANDI	0,17
  1337	001551	326 00 0 00 001553 		JUMPN	0,.+2		;PRINT 12 OCTAL DIGITS IF X=0
  1338	001552	201 00 0 00 000014 		MOVEI	0,14
  1339	001553	303 00 0 00 000014 		CAILE	0,14		;MAKE SURE THAT X IS A LEGAL ARGUMENT
  1340	001554	037 15 0 00 000004 		FATAL			;PROGRAM CALL ERROR
  1341	001555	242 00 0 00 000027 		LSH	0,^D<35-12>	;PUT X IN AC FIELD
  1342	001556	270 00 0 00 004714 		ADD	0,[PNTA]	;PRINT THE X ARGUEMENT
  1343	001557	202 00 0 00 005237 		MOVEM	0,%ERIN2
  1344	001560	201 00 0 00 004715 		MOVEI	0,SIXBTZ	<^CORRECT:  >
  1345	001561	554 02 0 03 000001 		HLRZ	2,1(3)		;GET ADDRESS OF EXPECTED TEST RESULTS
  1346	001562	326 02 0 00 001565 		JUMPN	2,.+3
  1347	001563	402 00 0 00 030123 		SETZM	%DISCR		;NO 'CORRECT RESULT' TYPEOUT
  1348	001564	254 00 0 00 001604 		JRST	%ERPR3
  1349	001565	476 00 0 00 030117 		SETOM	%CORFLG
  1350	001566	303 02 0 00 000003 		CAILE	2,3		;ARE TEST RESULTS IN AC THAT HAS BEEN SAVED?
  1351	001567	254 00 0 00 001577 		JRST	%ERP2A
  1352	001570	306 02 0 00 000001 		CAIN	2,1		;AC1?
  1353	001571	200 01 0 00 005421 		MOVE	1,%AC1
  1354	001572	306 02 0 00 000002 		CAIN	2,2		;AC2?
  1355	001573	200 01 0 00 005422 		MOVE	1,%AC2
  1356	001574	306 02 0 00 000003 		CAIN	2,3		;AC3?
  1357	001575	200 01 0 00 005423 		MOVE	1,%AC3
  1358	001576	254 00 0 00 001600 		JRST	.+2
  1359	001577	200 01 0 02 000000 	%ERP2A:	MOVE	1,(2)
  1360						LALL
SUBUSR (DDQDA) DECSYSTEM DIAGNOSTICS USER SUBROUTINE PROGRAM, VER 0,14	MACRO %53(1020) 15:25 23-Mar-78 Page 15
SUBUSM	MAC	23-Mar-78 15:02		*CONTRL* PDP-10 DIAGNOSTIC ERROR HANDLER                                           SEQ 0286

  1361					;*AC1 NOW CONTAINS THE CORRECT TEST RESULTS.
  1362					S^;*********************************************************************^
  1363						SALL
  1364	001600	037 14 0 00 000003 		PSIXL			;CORRECT RESULTS.
  1365	001601	200 00 0 00 000001 		MOVE	0,1
  1366	001602	264 00 0 00 005236 		JSR	%ERIN1		;REPORT CORRECT DATA
  1367	001603	202 01 0 00 030120 		MOVEM	1,%COREC#	;SAVE CORRECT DATA
  1368	001604	201 00 0 00 004717 	%ERPR3:	MOVEI	0,SIXBTZ	<^ACTUAL:   >
  1369	001605	550 02 0 03 000001 		HRRZ	2,1(3)		;GET ADDRESS OF ACTUAL TEST RESULTS.
  1370	001606	326 02 0 00 001611 		JUMPN	2,.+3
  1371	001607	402 00 0 00 030123 		SETZM	%DISCR		;NO 'ACTUAL RESULT' TYPEOUT.
  1372	001610	254 00 0 00 001630 		JRST	%ERPR4
  1373	001611	476 00 0 00 030121 		SETOM	%ACTFL
  1374	001612	303 02 0 00 000003 		CAILE	2,3		;ARE ACTUAL TEST RESULTS IN AC THAT IS SAVED?
  1375	001613	254 00 0 00 001623 		JRST	%ERP3A
  1376	001614	306 02 0 00 000001 		CAIN	2,1		;AC1?
  1377	001615	200 01 0 00 005421 		MOVE	1,%AC1
  1378	001616	306 02 0 00 000002 		CAIN	2,2		;AC2?
  1379	001617	200 01 0 00 005422 		MOVE	1,%AC2
  1380	001620	306 02 0 00 000003 		CAIN	2,3		;AC3?
  1381	001621	200 01 0 00 005423 		MOVE	1,%AC3
  1382	001622	254 00 0 00 001624 		JRST	.+2
  1383	001623	200 01 0 02 000000 	%ERP3A:	MOVE	1,(2)
  1384						LALL
  1385					;*AC1 CONTAINS THE ACTUAL TEST RESULTS.
  1386					S^;*********************************************************************^
  1387						SALL
  1388	001624	037 14 0 00 000003 		PSIXL			;ACTUAL RESULTS
  1389	001625	200 00 0 00 000001 		MOVE	0,1
  1390	001626	264 00 0 00 005236 		JSR	%ERIN1		;REPORT ACTUAL DATA
  1391	001627	202 01 0 00 030122 		MOVEM	1,%ACTUL#	;SAVE ACTUAL DATA
  1392
  1393	001630	201 00 0 00 004721 	%ERPR4:	MOVEI	0,SIXBTZ	<^DISCREP:  >
  1394	001631	336 00 0 00 030123 		SKIPN	%DISCR		;REPORT DATA DISCREPANCY IF BOTH CORRECT AND
  1395	001632	254 00 0 00 001641 		JRST	%ERPR5		;ACTUAL DATA REPORTED.
  1396	001633	200 01 0 00 030120 		MOVE	1,%COREC
  1397	001634	430 01 0 00 030122 		XOR	1,%ACTUL	;XOR CORRECT & ACTUAL DATA
  1398	001635	037 14 0 00 000003 		PSIXL
  1399	001636	200 00 0 00 000001 		MOVE	0,1
  1400	001637	264 00 0 00 005236 		JSR	%ERIN1		;REPORT DISC BETWEEN COR & ACT
  1401	001640	202 01 0 00 030123 		MOVEM	1,%DISCR	;SAVE DISCREPANCY DATA
  1402						LALL
SUBUSR (DDQDA) DECSYSTEM DIAGNOSTICS USER SUBROUTINE PROGRAM, VER 0,14	MACRO %53(1020) 15:25 23-Mar-78 Page 16
SUBUSM	MAC	23-Mar-78 15:02		*CONTRL* PDP-10 DIAGNOSTIC ERROR HANDLER                                           SEQ 0287

  1403					;*PICK UP AND REPORT DIAGNOSTIC COMMENT IF ANY.
  1404					S^;*********************************************************************^
  1405
  1406	001641	200 00 0 00 030046 	%ERPR5:	MOVE	0,CONSW
  1407	001642	603 00 0 00 000200 		TLNE	TXTINH		;TEXT INHIBITED ?
  1408	001643	254 00 0 00 001653 		JRST	%ERPR6		;YES
  1409	001644	554 01 0 03 000002 		HLRZ	1,2(3)		;GET ADDRESS OF ASCIZ TEXT.
  1410	001645	200 01 0 01 000000 		MOVE	1,(1)		;GET MESSAGE
  1411	001646	316 01 0 00 004704 		CAMN	1,[SIXBIT\_\]	;BLANK MESSAGE ?
  1412	001647	254 00 0 00 001653 		JRST	%ERPR6		;EXIT FROM ERROR PRINT IF NO DIAGNOSTIC TEXT.
  1413	001650	037 00 0 00 030242 		PCRL
  1414	001651	554 00 0 03 000002 		HLRZ	0,2(3)		;GET MESSAGE ADDRESS AGAIN
  1415	001652	037 14 0 00 000003 		PSIXL
  1416	001653	037 00 0 00 030242 	%ERPR6:	PCRL
  1417	001654	550 00 0 03 000002 		HRRZ	0,2(3)		;GET ADDRESS OF ADDITIONAL ERROR PRINT ROUTINE
  1418	001655	260 17 0 00 001440 		GO	%EACR1
  1419	001656	202 00 0 00 005427 		MOVEM	0,%ERXTR#
  1420	001657	322 00 0 00 001666 		JUMPE	0,%ERMORE	;JUMP IF NONE
  1421	001660	200 00 0 00 030046 		MOVE	0,CONSW
  1422	001661	603 00 0 00 000200 		TLNE	0,TXTINH	;TEXT INHIBITED ?
  1423	001662	254 00 0 00 001666 		JRST	%ERMORE		;YES, NO ADDITIONAL PRINT
  1424	001663	200 00 0 00 005420 		MOVE	0,%AC0
  1425	001664	260 17 1 00 005427 		GO	@%ERXTR		;XFER TO PRINT ROUTINE, RETURN TO ERMORE
  1426	001665	202 00 0 00 005420 		MOVEM	0,%AC0
  1427	001666	200 00 0 00 005420 	%ERMORE:MOVE	0,%AC0
  1428	001667	256 00 0 00 030101 		XCT	ERMORE		;TO ADD ROUTINE PLACE XFR AT ERMORE
  1429									;IN "FIXED"
  1430	001670	260 17 0 00 001432 		GO	%EACS
  1431	001671	260 17 0 00 001370 		GO	$PNTMG		;IF KI10, PRINT MARGINS
  1432	001672	260 17 0 00 002747 		GO	$SWTCH
  1433
  1434					;*EXAMINE DATA SWITCHES (OR SOFTWARE SWITCHES IF USER MODE).
  1435					S^;*********************************************************************^
  1436	001673	260 17 0 00 003311 	%ERSW1:	GO	$TALTM		;ALTMODE CHECK
  1437	001674	254 00 0 00 001700 		JRST	.+4		;NONE
  1438	001675	201 00 0 00 001700 		MOVEI	.+3		;SAVE ADDRESS FOR CONTINUE
  1439	001676	202 00 0 00 000130 		MOVEM	JOBOPC
  1440	001677	254 00 1 00 030063 		JRST	@ALTMGO		;PERFORM TRANSFER
  1441	001700	200 03 0 00 030046 		MOVE	3,CONSW
  1442	001701	607 03 0 00 002000 		TLNN	3,ERSTOP	;IS 'HALT ON ERROR' SWITCH SET, (SWITCH ERSTOP)
  1443	001702	254 00 0 00 001711 		JRST	%ERSW2		;NO
SUBUSR (DDQDA) DECSYSTEM DIAGNOSTICS USER SUBROUTINE PROGRAM, VER 0,14	MACRO %53(1020) 15:25 23-Mar-78 Page 17
SUBUSM	MAC	23-Mar-78 15:02		*CONTRL* PDP-10 DIAGNOSTIC ERROR HANDLER                                           SEQ 0288

  1444					;*EXECUTE HALT IF SWITCH ERSTOP SET.
  1445					S^;*********************************************************************^
  1446
  1447	001703	260 17 0 00 001437 	%ERS1A:	GO	%EACR		;RESTORE AC'S
  1448	001704	254 00 0 00 002030 		JRST	$ERHLT		;USE SUBROUTINE ERROR HALT
  1449
  1450	001705	336 00 0 00 005426 	%ERPRA:	SKIPN	%ERFST#		;PRINT PROGRAM NAME
  1451	001706	037 04 0 00 000002 		PNTNM
  1452	001707	476 00 0 00 005426 		SETOM	%ERFST
  1453	001710	254 00 0 00 001503 		JRST	%ERPRB
  1454
  1455					;*EXAMINE LOOPER SWITCH AND SCOPE LOOP ON ERROR IF SET.
  1456					S^;*********************************************************************^
  1457
  1458	001711	607 03 0 00 004000 	%ERSW2:	TLNN	3,LOOPER
  1459	001712	402 00 0 00 030116 		SETZM	SCOPE		;CLEAR SCOPE LOOP CONTROL
  1460	001713	350 01 0 00 005424 		AOS	1,%ERCNT	;INCREMENT ERROR COUNT
  1461
  1462					;*RING TTY BELL IF DING SWITCH IS SET.
  1463					S^;*********************************************************************^
  1464
  1465	001714	603 03 0 00 010000 	%ERSW3:	TLNE	3,DING
  1466	001715	037 01 0 00 000007 		PBELL
  1467
  1468					;*RETURN TO ERROR CALL ADDRESS+1
  1469					S^;*********************************************************************^
  1470
  1471	001716	260 17 0 00 001440 	%EXCAL:	GO	%EACR1
  1472	001717	331 00 0 00 030043 		SKIPL	MONCTL		;UNDER DIAGNOSTIC MONITOR ?
  1473	001720	254 00 0 00 001724 		JRST	%EXCL1		;NO, CONTINUE PROGRAM
  1474	001721	200 00 0 00 030053 		MOVE	0,ERRTLS	;YES
  1475	001722	301 00 0 00 000005 		CAIL	0,5		;PRINTED ALLOWED ERRORS ?
  1476	001723	254 00 0 00 030061 		JRST	$BEND2		;END OF PROGRAM
  1477	001724	200 00 0 00 005420 	%EXCL1:	MOVE	0,%AC0
  1478	001725	332 00 0 00 030513 		SKIPE	%ERHI2		;ANY USERS INSTRUCTION ?
  1479	001726	256 00 0 00 030513 		XCT	%ERHI2		;YES, DO USERS ROUTINE
  1480	001727	263 17 0 00 000000 		RTN			;CONTINUE PROGRAM
SUBUSR (DDQDA) DECSYSTEM DIAGNOSTICS USER SUBROUTINE PROGRAM, VER 0,14	MACRO %53(1020) 15:25 23-Mar-78 Page 18
SUBUSM	MAC	23-Mar-78 15:02		PROCESSOR TYPE DETERMINATION                                                       SEQ 0289

  1481					SUBTTL	PROCESSOR TYPE DETERMINATION
  1482					S^;*********************************************************************^
  1483
  1484	001730	402 00 0 00 030505 	$CPUTP:	SETZM	CYCL60
  1485	001731	402 00 0 00 030524 		SETZM	SM10
  1486	001732	402 00 0 00 030041 		SETZM	KLFLG
  1487	001733	402 00 0 00 030040 		SETZM	KAIFLG
  1488	001734	200 01 0 00 004676 	$CPKL:	MOVE	1,[1,,1]	;IF KL10, AC1 AFTER BLT WILL CHANGE
  1489	001735	251 01 0 00 000001 		BLT	1,1
  1490	001736	316 01 0 00 004676 		CAMN	1,[1,,1]
  1491	001737	254 00 0 00 001760 		JRST	$CPKAI
  1492	001740	476 00 0 00 030041 		SETOM	KLFLG		;KL10 - SET FLAG
  1493
  1494	001741	336 00 0 00 030516 	$CPINI:	SKIPN	MONTYP
  1495	001742	254 00 0 00 001747 		JRST	.+5		;TOPS-10
  1496	001743	200 01 0 00 004723 		MOVE	1,[SIXBIT/APRID/]
  1497	001744	104 00 0 00 000016 		SYSGT			;GET SERIAL NUMBER
  1498	001745	200 00 0 00 000001 		MOVE	0,1
  1499	001746	254 00 0 00 001752 		JRST	.+4
  1500	001747	200 00 0 00 004724 		MOVE	0,[20,,11]
  1501	001750	047 00 0 00 000041 		GETTAB
  1502	001751	400 00 0 00 000000 		SETZ	0,
  1503	001752	202 00 0 00 005326 		MOVEM	0,$$SNX#	;SAVE IT
  1504	001753	336 00 0 00 030041 		SKIPN	KLFLG
  1505	001754	263 17 0 00 000000 		RTN
  1506	001755	303 00 0 00 010000 		CAILE	0,^D4096	;IS THIS A KS10 ?
  1507	001756	476 00 0 00 030524 		SETOM	SM10		;YES, SERIAL # GT 4096.
  1508	001757	263 17 0 00 000000 		RTN
  1509
  1510	001760	476 00 0 00 030040 	$CPKAI:	SETOM	KAIFLG
  1511	001761	211 00 0 00 000001 		MOVNI	0,1
  1512	001762	253 00 0 00 001763 		AOBJN	0,.+1
  1513	001763	332 00 0 00 000000 		SKIPE
  1514	001764	402 00 0 00 030040 		SETZM	KAIFLG		;KA10
  1515
  1516	001765	254 00 0 00 001741 		JRST	$CPINI
SUBUSR (DDQDA) DECSYSTEM DIAGNOSTICS USER SUBROUTINE PROGRAM, VER 0,14	MACRO %53(1020) 15:25 23-Mar-78 Page 19
SUBUSM	MAC	23-Mar-78 15:02		"DIAMON" FILE SELECTION & READ                                                     SEQ 0290

  1517					SUBTTL	"DIAMON" FILE SELECTION & READ
  1518					S^;*********************************************************************^
  1519
  1520	001766	261 17 0 00 000000 	$FSELECT:PUT	0
  1521	001767	402 00 0 00 005342 		SETZM	$FSELF#
  1522	001770	200 00 0 00 004725 		MOVE	0,[1,,POWER+1]	;SAVE ACS
  1523	001771	251 00 0 00 005320 		BLT	POWER+16
  1524	001772	262 17 0 00 000000 		GET	0
  1525	001773	336 00 0 00 027772 		SKIPN	FSELNK		;ANY FILE SELECT LINK ?
  1526	001774	254 00 0 00 002006 		JRST	$FSEL1		;NO
  1527
  1528	001775	260 17 1 00 027772 		GO	@FSELNK		;TRANSFER TO "DIAMON"
  1529	001776	254 00 0 00 002001 		JRST	$FSEL2		;ERROR RTN, AC0 HAS CODE
  1530
  1531	001777	476 00 0 00 005342 		SETOM	$FSELF		;FOUND, SET FILE SELECTED FLAG
  1532	002000	350 00 0 17 000000 		AOS	(P)		;SKIP RETURN
  1533	002001	261 17 0 00 000000 	$FSEL2:	PUT	0
  1534	002002	204 00 0 00 004725 		MOVS	0,[1,,POWER+1]	;RESTORE ACS
  1535	002003	251 00 0 00 000016 		BLT	16
  1536	002004	262 17 0 00 000000 		GET	0
  1537	002005	263 17 0 00 000000 		RTN
  1538
  1539	002006	402 00 0 00 000000 	$FSEL1:	SETZM	0		;NO "DIAMON" CAPABILTY
  1540	002007	254 00 0 00 002001 		JRST	$FSEL2
  1541
  1542					;*"DIAMON" FILE READ
  1543					S^;*********************************************************************^
  1544
  1545	002010	201 00 0 00 000001 	$FRD8:	MOVEI	0,1		;SET FLAG FOR 8BIT READ
  1546	002011	254 00 0 00 002015 		JRST	.+4
  1547	002012	474 00 0 00 000000 	$FRD36:	SETO			;SET FLAG FOR 36 BIT READ
  1548	002013	254 00 0 00 002015 		JRST	.+2
  1549	002014	400 00 0 00 000000 	$FREAD:	SETZ			;SET FLAG FOR 7 BIT ASCII READ
  1550	002015	261 17 0 00 000000 		PUT	0
  1551	002016	336 00 0 00 005342 		SKIPN	$FSELF		;WAS ANY FILE SELECTED ?
  1552	002017	037 15 0 00 000004 		FATAL			;NO
  1553	002020	336 00 0 00 027773 		SKIPN	FRDLNK		;ANY FILE READ LINK ?
  1554	002021	037 15 0 00 000004 		FATAL			;NO
  1555	002022	200 00 0 00 004725 		MOVE	0,[1,,POWER+1]	;SAVE ACS
  1556	002023	251 00 0 00 005320 		BLT	POWER+16
  1557	002024	262 17 0 00 000000 		GET	0		;GET FORMAT FLAG
  1558	002025	260 17 1 00 027773 		GO	@FRDLNK		;TRANSFER TO "DIAMON"
  1559	002026	254 00 0 00 002001 		JRST	$FSEL2		;EOF
  1560	002027	254 00 0 00 002000 		JRST	$FSEL2-1	;OK, SKIP RETURN
SUBUSR (DDQDA) DECSYSTEM DIAGNOSTICS USER SUBROUTINE PROGRAM, VER 0,14	MACRO %53(1020) 15:25 23-Mar-78 Page 20
SUBUSM	MAC	23-Mar-78 15:02		PROGRAM HALTS                                                                      SEQ 0291

  1561					SUBTTL	PROGRAM HALTS
  1562
  1563					;*SUBROUTINE ERROR HALT
  1564					S^;*********************************************************************^
  1565						SALL
  1566	002030	037 04 0 00 000002 	$ERHLT:	PNTNM			;PRINT PROGRAM NAME
  1567	002031	037 04 0 00 004726 		PMSGF	<ERROR HALT AT >
  1568	002032	262 17 0 00 005341 		GET	$ERH0
  1569	002033	261 17 0 00 000000 		PUT	0
  1570	002034	200 00 0 00 005341 		MOVE	AC0,$ERH0#	;LOAD HALT LOC WITH USRPC + 1 FOR RESTART
  1571	002035	370 00 0 00 000000 		SOS			;SUBTRACT ONE FOR USRPC OF ERROR
  1572	002036	037 06 0 00 000001 		PNT6F			;PRINT USRPC FORCED
  1573	002037	037 01 0 00 030242 		PCRLF
  1574
  1575	002040	331 00 0 00 030043 		SKIPL	MONCTL		;UNDER MONITOR CONTROL ?
  1576	002041	254 00 0 00 002047 		JRST	$ERHL4		;NO..HALT AT USRPC WHERE UUO OCCURRED
  1577
  1578	002042	260 17 0 00 002747 	$ERHL1:	GO	$SWTCH		;READ SWITCHES INTO AC0
  1579	002043	603 00 0 00 002000 		TLNE	0,ERSTOP	;HALT ON ERROR SWITCH SET ?
  1580	002044	254 00 0 00 002047 		JRST	$ERHL4		;YES...HALT
  1581
  1582	002045	262 17 0 00 000000 	$ERHL3:	GET	AC0		;RESTORE  THE STACK (P - 1)
  1583	002046	254 00 0 00 030061 		JRST	$BEND2		;END OF PROGRAM
  1584
  1585	002047	262 17 0 00 000000 	$ERHL4:	GET	AC0
  1586	002050	332 00 0 00 030516 		SKIPE	MONTYP
  1587	002051	254 00 0 00 002054 		JRST	.+3
  1588	002052	047 01 0 00 000012 		EXIT	1,
  1589	002053	254 00 1 00 005341 		JRST	@$ERH0
  1590	002054	104 00 0 00 000170 		HALTF			;RETURN TO MONITOR
  1591	002055	254 00 1 00 005341 		JRST	@$ERH0		;IF CONTINUED
  1592						LALL
SUBUSR (DDQDA) DECSYSTEM DIAGNOSTICS USER SUBROUTINE PROGRAM, VER 0,14	MACRO %53(1020) 15:25 23-Mar-78 Page 21
SUBUSM	MAC	23-Mar-78 15:02		PROGRAM HALTS                                                                      SEQ 0292

  1593					;*FATAL PROGRAM ERROR HALT
  1594					S^;*********************************************************************^
  1595						SALL
  1596	002056	037 04 0 00 000002 	$FATAL:	PNTNM
  1597	002057	037 04 0 00 004731 		PMSGF	<FATAL PROGRAM ERROR AT >
  1598	002060	200 00 0 17 000000 		MOVE	AC0,(P)		;RETRIEVE USRPC + 1 FROM THE STACK
  1599	002061	370 00 0 00 000000 		SOS			;- 1
  1600	002062	037 06 0 00 000001 		PNT6F			;PRINT IT
  1601	002063	037 01 0 00 030242 		PCRLF
  1602	002064	331 00 0 00 030043 		SKIPL	MONCTL		;EXEC - DIAGNOSTIC MONITOR ?
  1603	002065	254 00 0 00 002071 		JRST	$FATL1		;NO, END OF PROGRAM
  1604	002066	260 17 0 00 002747 		GO	$SWTCH		;YES ... READ SWITCHES
  1605	002067	607 00 0 00 002000 		TLNN	ERSTOP		;STOP ON ERROR ?
  1606	002070	254 00 0 00 030061 		JRST	$BEND2		;NO, END OF PROGRAM
  1607
  1608	002071				$FATL1:
  1609	002071	261 17 0 00 000000 	$DDTENT:PUT	0
  1610	002072	200 00 0 00 010001 		MOVE	AC0,DDT+1	;GET DDT ID
  1611	002073	312 00 0 00 004735 		CAME	AC0,[ASCII/DDT/]
  1612	002074	254 00 0 00 030061 		JRST	$BEND2		;NOT LOADED, END PROGRAM
  1613	002075	262 17 0 00 000000 		GET	0
  1614	002076	254 00 1 00 027775 		JRST	@DDTLNK		;DDT LOADED, GO TO IT
  1615						LALL
SUBUSR (DDQDA) DECSYSTEM DIAGNOSTICS USER SUBROUTINE PROGRAM, VER 0,14	MACRO %53(1020) 15:25 23-Mar-78 Page 22
SUBUSM	MAC	23-Mar-78 15:02		PROGRAM NAME PRINTER                                                               SEQ 0293

  1616					SUBTTL	PROGRAM NAME PRINTER
  1617
  1618					;*PRINT PROGRAM NAME IF NOT STAND-ALONE OR USER MODE
  1619					S^;*********************************************************************^
  1620						SALL
  1621	002077	331 00 0 00 030043 	$PNTNM:	SKIPL	MONCTL		;DIAG MON / SYS EXR ?
  1622	002100	254 00 0 00 002134 		JRST	$PNM2		;NO
  1623	002101	037 00 1 00 030025 		PNTMSG	@$PNAME		;PRINT PROGRAM NAME
  1624	002102	037 02 0 00 004736 		PMSG	<VERSION >
  1625	002103	554 00 0 00 000137 		HLRZ	JOBVER
  1626	002104	037 16 0 00 000003 		PNTOCS			;PRINT MCN LEVEL
  1627	002105	037 00 0 00 000056 		PNTCI	"."
  1628	002106	550 00 0 00 000137 		HRRZ	JOBVER
  1629	002107	037 16 0 00 000003 		PNTOCS			;PRINT DEC VERSION
  1630	002110	037 02 0 00 004740 		PMSG	<, SV=>
  1631	002111	554 00 0 00 001006 		HLRZ	SUBVER
  1632	002112	037 16 0 00 000003 		PNTOCS			;PRINT "SUBRTN" MCN LEVEL
  1633	002113	037 00 0 00 000056 		PNTCI	"."
  1634	002114	550 00 0 00 001006 		HRRZ	SUBVER
  1635	002115	037 16 0 00 000003 		PNTOCS			;PRINT "SUBRTN" DEC VERSION
  1636
  1637	002116	336 00 0 00 030516 		SKIPN	MONTYP
  1638	002117	037 02 0 00 004741 		PMSG	<, TOPS-10>
  1639	002120	332 00 0 00 030516 		SKIPE	MONTYP
  1640	002121	037 02 0 00 004743 		PMSG	<, TOPS-20>
  1641
  1642	002122	332 00 0 00 030041 		SKIPE	KLFLG
  1643						JRST	[SKIPE	SM10
  1644							 JRST	[PMSG	<, KS10>
  1645								 JRST	$PNM3]
  1646							 PMSG	<, KL10>
  1647	002123	254 00 0 00 004753 			 JRST	$PNM3]
  1648	002124	336 00 0 00 030040 		SKIPN	KAIFLG
  1649						JRST	[PMSG	<, KA10>
  1650	002125	254 00 0 00 004761 			 JRST	$PNM3]
  1651	002126	037 02 0 00 004763 		PMSG	<, KI10>
  1652
  1653	002127	336 00 0 00 005326 	$PNM3:	SKIPN	$$SNX		;ANY SERIAL NUMBER ?
  1654	002130	254 00 0 00 002134 		JRST	$PNM2		;NO
  1655	002131	037 02 0 00 004765 		PMSG	<, CPU#=>
  1656	002132	200 00 0 00 005326 		MOVE	$$SNX
  1657	002133	037 15 0 00 000000 		PNTDEC			;PRINT SERIAL NUMBER
  1658
  1659	002134	037 00 0 00 030242 	$PNM2:	PCRL
  1660	002135	263 17 0 00 000000 		RTN			;EXIT
SUBUSR (DDQDA) DECSYSTEM DIAGNOSTICS USER SUBROUTINE PROGRAM, VER 0,14	MACRO %53(1020) 15:25 23-Mar-78 Page 23
SUBUSM	MAC	23-Mar-78 15:02		*SUBRTN* INTERRUPT HANDLING ROUTINES                                               SEQ 0294

  1661					SUBTTL	*SUBRTN* INTERRUPT HANDLING ROUTINES
  1662						LALL
  1663
  1664					;*PUSH DOWN LIST EXCESSIVE POPJ ROUTINE
  1665					S^;*********************************************************************^
  1666						SALL
  1667	002136	037 04 0 00 004767 	PSHERR:	PMSGF	<^*****^PLIST UFLOW^>
  1668	002137	037 15 0 00 000004 		FATAL			;PRINT LOCATION AND EXIT
  1669						LALL
  1670					S^;*********************************************************************^
  1671					;*INTERRUPT ROUTINE INITIALIZATION
  1672					S^;*********************************************************************^
  1673						SALL
  1674	002140	332 00 0 00 030516 	$ITRIN:	SKIPE	MONTYP
  1675	002141	254 00 0 00 002147 		JRST	.+6
  1676	002142	201 00 0 00 002321 		MOVEI	ITRUSR		;TOPS10, SETUP USER APR TRAPPING
  1677	002143	202 00 0 00 000125 		MOVEM	JOBAPR
  1678	002144	201 00 0 00 234000 		MOVEI	PDLOVU!MPVU!NXMU!PARU
  1679	002145	047 00 0 00 000016 		APRENB			;ENABLE PROCESSOR TRAPS
  1680	002146	263 17 0 00 000000 		RTN
  1681
  1682	002147	201 01 0 00 400000 		MOVEI	1,.FHSLF	;CURRENT PROCESS
  1683	002150	200 02 0 00 004773 		MOVE	2,[LEVTAB,,CHNTAB]
  1684	002151	104 00 0 00 000125 		SIR			;SPECIFY INTERRUPT TABLES
  1685	002152	104 00 0 00 000126 		EIR			;ENABLE SYSTEM
  1686	002153	200 02 0 00 004774 		MOVE	2,[1B1+1B<.ICPOV>+1B<.ICILI>+1B<.ICIRD>+1B<.ICIWR>]
  1687	002154	104 00 0 00 000131 		AIC			;ACTIVATE CHANNELS
  1688	002155	200 01 0 00 004775 		MOVE	1,[.TICCG,,1]
  1689	002156	104 00 0 00 000137 		ATI			;ASSIGN CTRL/G TO CHANNEL 1
  1690	002157	263 17 0 00 000000 		RTN
  1691						LALL
SUBUSR (DDQDA) DECSYSTEM DIAGNOSTICS USER SUBROUTINE PROGRAM, VER 0,14	MACRO %53(1020) 15:25 23-Mar-78 Page 24
SUBUSM	MAC	23-Mar-78 15:02		*SUBRTN* INTERRUPT HANDLING ROUTINES                                               SEQ 0295

  1692					;*INTERRUPT TABLES
  1693					S^;*********************************************************************^
  1694						SALL
  1695
  1696	002160	000000	000000		LEVTAB:	0			;LEVEL TABLE
  1697	002161	000000	002163			PC2
  1698	002162	000000	000000			0
  1699
  1700	002163	000000	000000		PC2:	0
  1701
  1702	002164	000000	000000		CHNTAB:	0			;CHANNEL TABLE
  1703	002165	000002	002230			2,,CNTRLG		;CHANNEL 1 IS CTRL/G
  1704						REPEAT	^D7,<0>		;CHANNEL 2-8 NOT USED
  1705	002166	000000	000000
  1706	002167	000000	000000
  1707	002170	000000	000000
  1708	002171	000000	000000
  1709	002172	000000	000000
  1710	002173	000000	000000
  1711	002174	000000	000000
  1712	002175	000002	002257			2,,PDLINT		;CHANNEL 9 IS PDL
  1713						REPEAT	^D5,<0>		;CHANNEL 10-14 NOT USED
  1714	002176	000000	000000
  1715	002177	000000	000000
  1716	002200	000000	000000
  1717	002201	000000	000000
  1718	002202	000000	000000
  1719	002203	000002	002264			2,,IININT		;CHANNEL 15 IS ILLEGAL INST
  1720	002204	000002	002267			2,,IMRINT		;CHANNEL 16 IS ILLEGAL MEMORY READ
  1721	002205	000002	002272			2,,IMWINT		;CHANNEL 17 IS ILLEGAL MEMORY WRITE
  1722						REPEAT	^D18,<0>	;CHANNEL 18-35 NOT USED
  1723	002206	000000	000000
  1724	002207	000000	000000
  1725	002210	000000	000000
  1726	002211	000000	000000
  1727	002212	000000	000000
  1728	002213	000000	000000
  1729	002214	000000	000000
  1730	002215	000000	000000
  1731	002216	000000	000000
  1732	002217	000000	000000
  1733	002220	000000	000000
  1734	002221	000000	000000
  1735	002222	000000	000000
  1736	002223	000000	000000
  1737	002224	000000	000000
  1738	002225	000000	000000
  1739	002226	000000	000000
  1740	002227	000000	000000
  1741						LALL
SUBUSR (DDQDA) DECSYSTEM DIAGNOSTICS USER SUBROUTINE PROGRAM, VER 0,14	MACRO %53(1020) 15:25 23-Mar-78 Page 25
SUBUSM	MAC	23-Mar-78 15:02		*SUBRTN* INTERRUPT HANDLING ROUTINES                                               SEQ 0296

  1742					;*TOPS20 CONTROL G ROUTINE
  1743					S^;*********************************************************************^
  1744						SALL
  1745	002230	202 00 0 00 005336 	CNTRLG:	MOVEM	0,$CGAC0#
  1746	002231	607 17 0 00 777000 		TLNN	P,777000	;CHECK THAT P IS "SUBUSR'S" P
  1747	002232	254 00 0 00 002255 		JRST	CNTRG1		;NO
  1748	002233	602 17 0 00 747000 		TRNE	P,747000
  1749	002234	254 00 0 00 002255 		JRST	CNTRG1
  1750	002235	550 00 0 00 000017 		HRRZ	0,P
  1751	002236	307 00 0 00 030303 		CAIG	0,PLIST
  1752	002237	254 00 0 00 002255 		JRST	CNTRG1
  1753	002240	301 00 0 00 030504 		CAIL	0,PLISTE
  1754	002241	254 00 0 00 002255 		JRST	CNTRG1
  1755	002242	554 00 0 00 000017 		HLRZ	0,P
  1756	002243	307 00 0 00 777577 		CAIG	0,777577
  1757	002244	254 00 0 00 002255 		JRST	CNTRG1
  1758	002245	301 00 0 00 777777 		CAIL	0,777777
  1759	002246	254 00 0 00 002255 		JRST	CNTRG1
  1760
  1761	002247	332 00 0 00 030522 		SKIPE	$$TAX1
  1762	002250	256 00 0 00 030522 		XCT	$$TAX1		;EXECUTE USER ROUTINE IF SUPPLIED
  1763	002251	260 17 0 00 003016 		GO	$SW0		;DO SWITCHES
  1764	002252	332 00 0 00 030523 		SKIPE	$$TAX2
  1765	002253	256 00 0 00 030523 		XCT	$$TAX2		;EXECUTE USER ROUTINE IF SUPPLIED
  1766	002254	104 00 0 00 000136 		DEBRK			;DISMISS INTERRUPT
  1767
  1768	002255	200 00 0 00 005336 	CNTRG1:	MOVE	0,$CGAC0
  1769	002256	104 00 0 00 000136 		DEBRK
  1770						LALL
SUBUSR (DDQDA) DECSYSTEM DIAGNOSTICS USER SUBROUTINE PROGRAM, VER 0,14	MACRO %53(1020) 15:25 23-Mar-78 Page 26
SUBUSM	MAC	23-Mar-78 15:02		*SUBRTN* INTERRUPT HANDLING ROUTINES                                               SEQ 0297

  1771					;*TOPS20 INTERRUPT PROCESSOR
  1772					S^;*********************************************************************^
  1773						SALL
  1774
  1775	002257	202 00 0 00 030106 	PDLINT:	MOVEM	0,$ACC0
  1776	002260	201 00 0 00 002275 		MOVEI	$PDOVU		;SETUP TRANSFER
  1777	002261	250 00 0 00 002163 	$$INT:	EXCH	PC2
  1778	002262	202 00 0 00 030104 		MOVEM	ITRCH1		;SAVE TRAPPED ADDRESS
  1779	002263	104 00 0 00 000136 		DEBRK			;DISMISS INTERRUPT
  1780
  1781	002264	202 00 0 00 030106 	IININT:	MOVEM	0,$ACC0
  1782	002265	201 00 0 00 002306 		MOVEI	$IIN
  1783	002266	254 00 0 00 002261 		JRST	$$INT
  1784
  1785	002267	202 00 0 00 030106 	IMRINT:	MOVEM	0,$ACC0
  1786	002270	201 00 0 00 002315 		MOVEI	$IMR
  1787	002271	254 00 0 00 002261 		JRST	$$INT
  1788
  1789	002272	202 00 0 00 030106 	IMWINT:	MOVEM	0,$ACC0
  1790	002273	201 00 0 00 002317 		MOVEI	$IMW
  1791	002274	254 00 0 00 002261 		JRST	$$INT
  1792
  1793	002275	202 17 0 00 005370 	$PDOVU:	MOVEM	P,$PDOVP#
  1794	002276	200 17 0 00 030303 		MOVE	P,PLIST		;RESET POINTER
  1795	002277	201 00 0 00 030103 		MOVEI	0,$PSHER
  1796	002300	261 17 0 00 000000 		PUSH	P,0
  1797	002301	037 02 0 00 004776 		PMSG	<^*****^PLIST OVERFLOW P=>
  1798	002302	200 00 0 00 005370 		MOVE	0,$PDOVP
  1799	002303	037 13 0 00 000000 		PNTHW
  1800	002304	400 00 0 00 000000 		SETZ
  1801	002305	254 00 0 00 002347 		JRST	$ITR1A		;COMMON INTERRUPT ROUTINE
  1802
  1803	002306	037 02 0 00 005003 	$IIN:	PMSG	<^*****^ILLEGAL INSTRUCTION >
  1804	002307	200 00 0 00 030104 		MOVE	ITRCH1
  1805	002310	370 00 0 00 000000 		SOS
  1806	002311	200 00 1 00 000000 		MOVE	@0
  1807	002312	037 13 0 00 000000 		PNTHW			;PRINT OFFENDING INSTRUCTION
  1808	002313	400 00 0 00 000000 		SETZ
  1809	002314	254 00 0 00 002347 		JRST	$ITR1A		;COMMON INTERRUPT ROUTINE
  1810
  1811	002315	201 00 0 00 005010 	$IMR:	MOVEI	SIXBTZ	<^ILLEGAL MEMORY READ>
  1812	002316	254 00 0 00 002347 		JRST	$ITR1A		;COMMON INTERRUPT ROUTINE
  1813
  1814	002317	201 00 0 00 005014 	$IMW:	MOVEI	SIXBTZ	<^ILLEGAL MEMORY WRITE>
  1815	002320	254 00 0 00 002347 		JRST	$ITR1A		;COMMON INTERRUPT ROUTINE
  1816
  1817						LALL
SUBUSR (DDQDA) DECSYSTEM DIAGNOSTICS USER SUBROUTINE PROGRAM, VER 0,14	MACRO %53(1020) 15:25 23-Mar-78 Page 27
SUBUSM	MAC	23-Mar-78 15:02		*SUBRTN* INTERRUPT HANDLING ROUTINES                                               SEQ 0298

  1818					;*TOPS10 USER INTERRUPT HANDLER
  1819					S^;*********************************************************************^
  1820						SALL
  1821
  1822	002321	202 00 0 00 030106 	ITRUSR:	MOVEM	$ACC0
  1823	002322	200 00 0 00 000127 		MOVE	JOBTPC
  1824	002323	202 00 0 00 030104 		MOVEM	ITRCH1		;SAVE TRAPPED ADDRESS
  1825	002324	200 00 0 00 000126 		MOVE	JOBCNI		;GET CAUSE
  1826	002325	602 00 0 00 004000 		TRNE	PARU
  1827	002326	254 00 0 00 002343 	$UPAR:	JRST	$PAREX		;PARITY ERROR
  1828	002327	602 00 0 00 200000 		TRNE	PDLOVU
  1829	002330	254 00 0 00 002275 	$UPDL:	JRST	$PDOVU		;PUSHDOWN OVERFLOW
  1830	002331	602 00 0 00 020000 		TRNE	MPVU
  1831	002332	254 00 0 00 002337 	$UMPV:	JRST	$MPVU		;MEMORY PROTECTION VIOLATION
  1832	002333	602 00 0 00 010000 		TRNE	NXMU
  1833	002334	254 00 0 00 002341 	$UNXM:	JRST	$NXMU		;NON-X-MEMORY
  1834
  1835	002335	201 00 0 00 005020 		MOVEI	SIXBTZ	<^UNKNOWN INTERRUPT>
  1836	002336	254 00 0 00 002347 		JRST	$ITR1A
  1837
  1838	002337	201 00 0 00 005024 	$MPVU:	MOVEI	SIXBTZ	<^MEMORY PROT>
  1839	002340	254 00 0 00 002347 		JRST	$ITR1A
  1840
  1841	002341	201 00 0 00 005027 	$NXMU:	MOVEI	SIXBTZ	<^NON-X-MEMORY>
  1842	002342	254 00 0 00 002347 		JRST	$ITR1A
  1843
  1844	002343	200 00 0 00 030106 	$PAREX:	MOVE	$ACC0
  1845	002344	256 00 0 00 030100 		XCT	$PARER		;EXECUTE USERS ROUTINE IF SUPPLIED
  1846	002345	201 00 0 00 005032 		MOVEI	SIXBTZ	<^MEMORY PARITY>
  1847	002346	254 00 0 00 002347 		JRST	$ITR1A
  1848						LALL
SUBUSR (DDQDA) DECSYSTEM DIAGNOSTICS USER SUBROUTINE PROGRAM, VER 0,14	MACRO %53(1020) 15:25 23-Mar-78 Page 28
SUBUSM	MAC	23-Mar-78 15:02		*SUBRTN* INTERRUPT HANDLING ROUTINES                                               SEQ 0299

  1849					;*COMMON INTERRUPT HANDLERS
  1850					;*PRINT CAUSE AND OTHER PERTINENT INFO
  1851					S^;*********************************************************************^
  1852						SALL
  1853	002347	261 17 0 00 000000 	$ITR1A:	PUT	0
  1854	002350	037 01 0 00 000026 		PFORCE
  1855	002351	262 17 0 00 000000 		GET	0
  1856
  1857	002352	332 00 0 00 000000 	$ITR1B:	SKIPE	0
  1858	002353	037 14 0 00 000003 		PSIXL			;PRINT CAUSE
  1859	002354	037 02 0 00 005035 		PMSG	<^FLAGS  PC      PROG^>
  1860	002355	200 00 0 00 030104 		MOVE	ITRCH1
  1861	002356	037 13 0 00 000000 		PNTHW			;PRINT FLAGS, PC
  1862	002357	037 00 0 00 000040 		PSP
  1863	002360	550 00 0 17 000000 		HRRZ	0,(P)
  1864	002361	037 06 0 00 000000 		PNT6			;PRINT LAST PUSHJ ENTRY
  1865	002362	037 00 0 00 030242 		PCRL
  1866	002363	200 00 0 00 030106 		MOVE	0,$ACC0
  1867	002364	256 00 0 00 030072 		XCT	$ITRX1		;EXECUTE USER ROUTINE, IF SUPPLIED
  1868	002365	037 15 0 00 000004 		FATAL
  1869
  1870						LALL
SUBUSR (DDQDA) DECSYSTEM DIAGNOSTICS USER SUBROUTINE PROGRAM, VER 0,14	MACRO %53(1020) 15:25 23-Mar-78 Page 29
SUBUSM	MAC	23-Mar-78 15:02		*SUBRTN* END OF PASS/END OF PROGRAM ROUTINES                                       SEQ 0300

  1871					SUBTTL	*SUBRTN* END OF PASS/END OF PROGRAM ROUTINES
  1872						LALL
  1873					;*END OF PASS ROUTINE
  1874					S^;*********************************************************************^
  1875						SALL
  1876	002366	350 00 0 00 030047 	$END:	AOS	PASCNT		;INCREMENT PASS COUNTER
  1877	002367	370 00 0 00 030024 		SOS	ITRCNT
  1878	002370	402 00 0 00 030116 		SETZM	SCOPE
  1879	002371	402 00 0 00 030052 		SETZM	ERRPC
  1880	002372	260 17 0 00 002747 		GO	$SWTCH
  1881	002373	603 00 0 00 400000 		TLNE	ABORT		;ABORT AT END OF PASS ?
  1882	002374	254 00 0 00 002400 		JRST	$END2		;YES
  1883	002375	336 00 0 00 030024 		SKIPN	ITRCNT
  1884	002376	254 00 0 00 002405 	$END1:	JRST	$END3		;SKIP RETURN, COMPLETED ALL ITERATIONS
  1885	002377	263 17 0 00 000000 		RTN			;NON - SKIP , KEEP RUNNING
  1886	002400	037 04 0 00 005041 	$END2:	PMSGF	<END PASS >
  1887	002401	200 00 0 00 030047 		MOVE	PASCNT		;PRINT END OF PASS COUNT
  1888	002402	037 15 0 00 000001 		PNTDCF
  1889	002403	037 01 0 00 000056 		PNTCIF	"."
  1890	002404	037 01 0 00 030242 		PCRLF
  1891	002405	350 00 0 17 000000 	$END3:	AOS	(P)
  1892	002406	263 17 0 00 000000 		RTN
  1893						LALL
  1894
  1895					;*END OF PROGRAM ROUTINE
  1896					S^;*********************************************************************^
  1897
  1898	002407	332 00 0 00 030044 	$EOP:	SKIPE	MONTEN		;USER, LOADED BY ITSELF ?
  1899	002410	254 00 1 00 030012 		JRST	@RETURN		;NO, RETURN TO LOADER
  1900	002411	336 00 0 00 030516 		SKIPN	MONTYP
  1901	002412	047 00 0 00 000012 		EXIT
  1902	002413	104 00 0 00 000170 		HALTF			;YES, EXIT
  1903	002414	254 00 0 00 030000 		JRST	BEGIN
SUBUSR (DDQDA) DECSYSTEM DIAGNOSTICS USER SUBROUTINE PROGRAM, VER 0,14	MACRO %53(1020) 15:25 23-Mar-78 Page 30
SUBUSM	MAC	23-Mar-78 15:02		*SUBRTN* MEMORY MANAGMENT ROUTINES                                                 SEQ 0301

  1904					SUBTTL	*SUBRTN* MEMORY MANAGMENT ROUTINES
  1905
  1906					S^;*********************************************************************^
  1907					;*THESE ROUTINES PERFORM CORE MAPPING AND PRINTING AS WELL AS MEMORY
  1908					;*ZEROING AND ADDRESS TRANSLATION FOR PAGING OR DIRECT ADDRESS MODES
  1909					;*	$MPCNK	(MAPCNK)	ACTUAL MEMORY CHUNK MAPPER
  1910					;*	$MPSET	(MAPSET)	SETS UP PAGE MAP FOR KI10
  1911					;*	$MSEG	(MEMSEG)	SET UP SEGMENTS FROM CHUNKS IN PAGE MAP
  1912					;*	$MZRO	(MEMZRO)	ZERO'S THE MAPPED MEMORY
  1913					;*	$MPADR	(MAPADR)	VIRTUAL TO PHYSICAL ADDRESS TRANSLATION
  1914					S^;*********************************************************************^
  1915
  1916	002415	402 00 0 00 030146 	$MEMMP:	SETZM	MEMSIZ		;USER MEMORY STARTS AT 0
  1917	002416	550 00 0 00 000044 		HRRZ	JOBREL		;GET HIGHEST REL ADDRESS
  1918	002417	202 00 0 00 030147 		MOVEM	MEMSIZ+1	;SAVE AS MEMORY SIZE
  1919	002420	476 00 0 00 030150 		SETOM	MEMSIZ+2	;FLAG END OF MEMSIZ TABLE
  1920	002421	402 00 0 00 030143 		SETZM	MAPNEW		;CLEAR 4096K MAPPING FLAG
  1921	002422	254 00 0 00 002567 		JRST	$PMAP		;GO PRINT MAP
  1922
  1923					S^;*********************************************************************^
  1924					;*MEMSEG, ARGUMENTS 0-10: SETUP CORRESPONDING CHUNK FROM MEMSIZ TABLE
  1925					;*		  11-37 RETURN 0, MAXIMUM OF 8 CHUNKS IN 256K
  1926					;*		  USER MODE, 1-37 ALWAYS RETURNS 0
  1927					;*	  	  GT 37 - RETURNS MEMORY AT PHYSICAL ADDRESS
  1928					;*RETURNED IN AC0:
  1929					;*		  0 - NO MEMORY AVAILABLE
  1930					;*		  START ADDRESS,,END ADDRESS
  1931					;*RETURNS +1
  1932					S^;*********************************************************************^
  1933
  1934	002423	202 01 0 00 005330 	$MSEG:	MOVEM	1,$ACMP5#	;AC1 = TEMP STORAGE POINTER
  1935	002424	202 02 0 00 005331 		MOVEM	2,$ACMP6#	;AC2 = MAP STORAGE POINTER
  1936	002425	202 03 0 00 005332 		MOVEM	3,$ACMP7#	;AC3 = CHUNK START ADR
  1937	002426	202 04 0 00 005333 		MOVEM	4,$ACMP8#	;AC4 = CHUNK END ADR
  1938	002427	202 05 0 00 005334 		MOVEM 	5,$ACMP9#	;AC5 = PAGE COUNTER
  1939	002430	403 05 0 00 005347 		SETZB	5,$MNCON#	;SAVED AC1 - AC5
  1940	002431	603 00 0 00 777760 		TLNE	0,777760	;VALID ARGUMENT ?
  1941	002432	037 15 0 00 000004 		FATAL			;NO
  1942	002433	322 00 0 00 002465 		JUMPE	0,$MSKA		;USER MODE, SEGMENT 0 ONLY
  1943	002434	301 00 0 00 000040 		CAIL	0,40		;IF 1-37, NO MEMORY
  1944	002435	254 00 0 00 002445 		JRST	$MSKAP		;PHY, DO DIRECT PHYSICAL
  1945
  1946	002436	200 00 0 00 000005 	$MSEG3:	MOVE	0,5		;AC0 = RESULTS (SEE TITLE BLOCK)
  1947	002437	200 01 0 00 005330 		MOVE	1,$ACMP5	;RESTORE AC'S
  1948	002440	200 02 0 00 005331 		MOVE	2,$ACMP6
  1949	002441	200 03 0 00 005332 		MOVE	3,$ACMP7
  1950	002442	200 04 0 00 005333 		MOVE	4,$ACMP8
  1951	002443	200 05 0 00 005334 		MOVE	5,$ACMP9
  1952	002444	263 17 0 00 000000 		RTN
SUBUSR (DDQDA) DECSYSTEM DIAGNOSTICS USER SUBROUTINE PROGRAM, VER 0,14	MACRO %53(1020) 15:25 23-Mar-78 Page 31
SUBUSM	MAC	23-Mar-78 15:02		*SUBRTN* MEMORY MANAGMENT ROUTINES                                                 SEQ 0302

  1953					;*PHYSICAL CORE ASSIGNMENT
  1954					S^;*********************************************************************^
  1955
  1956	002445	303 00 0 00 777000 	$MSKAP:	CAILE	0,777000	;REQUEST FOR OVER 256K ?
  1957	002446	254 00 0 00 002436 		JRST	$MSEG3		;YES, NO MEMORY
  1958
  1959	002447	200 01 0 00 000000 	$MSEGP:	MOVE	1,0
  1960	002450	620 01 0 00 000777 		TRZ	1,777		;MAKE PHYSICAL EVEN PAGE
  1961	002451	400 04 0 00 000000 		SETZ	4,
  1962	002452	200 00 0 04 030146 		MOVE	MEMSIZ(4)	;GET START ADDRESS
  1963	002453	321 00 0 00 002436 		JUMPL	$MSEG3		;IF END OF TABLE, NO CORE ..EXIT
  1964	002454	315 01 0 00 000000 		CAMGE	1,0		;PHY = OR GT START ?
  1965	002455	254 00 0 00 002436 		JRST	$MSEG3		;NO, NO CORE ...EXIT
  1966	002456	200 00 0 04 030147 		MOVE	MEMSIZ+1(4)	;GET END ADDRESS
  1967	002457	271 04 0 00 000002 		ADDI	4,2
  1968	002460	311 01 0 00 000000 		CAML	1,0		;PHY GT END ?
  1969	002461	254 00 0 00 002452 		JRST	.-7		;YES, TRY NEXT CHUNK
  1970
  1971	002462	200 05 0 00 000000 		MOVE	5,0		;1= PHY ADR, 0= END ADR
  1972	002463	504 05 0 00 000001 		HRL	5,1		; START ADR,,END ADR
  1973	002464	254 00 0 00 002436 		JRST	$MSEG3		;EXIT
  1974
  1975	002465	200 01 0 00 000000 	$MSKA:	MOVE	1,0
  1976	002466	242 01 0 00 000001 		LSH	1,1		;DOUBLE, 2 ENTRIES PER
  1977	002467	200 00 0 01 030146 		MOVE	0,MEMSIZ(1)	;GET START ADDRESS
  1978	002470	321 00 0 00 002436 		JUMPL	0,$MSEG3	;NO MEMORY ...EXIT
  1979	002471	200 02 0 01 030147 		MOVE	2,MEMSIZ+1(1)	;GET END ADDRESS
  1980	002472	322 02 0 00 002436 		JUMPE	2,$MSEG3	;NO MEMORY ...EXIT
  1981	002473	326 00 0 00 002475 		JUMPN	0,.+2		;IF START ADDRESS IS 0
  1982	002474	200 00 0 00 030145 		MOVE	0,MEMLOW	;USE 'MEMLOW'
  1983	002475	317 02 0 00 000000 		CAMG	2,0		;END GREATER THAN START ?
  1984	002476	037 15 0 00 000004 		FATAL			;NO ...ABORT
  1985	002477	200 05 0 00 000002 		MOVE	5,2		;SETUP START ADR,,END ADR
  1986	002500	504 05 0 00 000000 		HRL	5,0
  1987	002501	254 00 0 00 002436 		JRST	$MSEG3		;EXIT
SUBUSR (DDQDA) DECSYSTEM DIAGNOSTICS USER SUBROUTINE PROGRAM, VER 0,14	MACRO %53(1020) 15:25 23-Mar-78 Page 32
SUBUSM	MAC	23-Mar-78 15:02		*SUBRTN* MEMORY MANAGMENT ROUTINES                                                 SEQ 0303

  1988					S^;*********************************************************************^
  1989					;*MEMZRO, ZERO'S MEMORY FROM MEMLOW UP TO MAXIMUM
  1990					;*MAPNEW = 0	 DIRECT MEMORY ZERO
  1991					S^;*********************************************************************^
  1992
  1993	002502	202 01 0 00 005354 	$MZRO:	MOVEM	1,$MZROB#	;SAVE AC1 & AC2
  1994	002503	202 02 0 00 005355 		MOVEM	2,$MZROC#
  1995
  1996	002504	400 02 0 00 000000 	$MZRO2:	SETZ	2,		;DIRECT MEMORY ZERO
  1997	002505	200 00 0 00 030145 		MOVE	0,MEMLOW	;START ADDRESS
  1998	002506	311 00 0 00 030147 		CAML	0,MEMSIZ+1
  1999	002507	254 00 0 00 002521 		JRST	$MZROX
  2000	002510	254 00 0 00 002513 		JRST	.+3
  2001	002511	200 00 0 02 030146 	$MZRO3:	MOVE	0,MEMSIZ(2)	;SEGMENT START ADDRESS
  2002	002512	321 00 0 00 002521 		JUMPL	0,$MZROX	;DONE
  2003	002513	402 00 1 00 000000 		SETZM	@0
  2004	002514	507 00 0 00 000000 		HRLS			;CREATE BLT POINTER
  2005	002515	271 00 0 00 000001 		ADDI	1
  2006	002516	251 00 1 02 030147 		BLT	0,@MEMSIZ+1(2)	;ZERO DIRECT
  2007	002517	271 02 0 00 000002 		ADDI	2,2
  2008	002520	254 00 0 00 002511 		JRST	$MZRO3		;DO NEXT SEGMENT
  2009
  2010	002521	200 02 0 00 005355 	$MZROX:	MOVE	2,$MZROC	;RESTORE AC'S
  2011	002522	200 01 0 00 005354 		MOVE	1,$MZROB
  2012	002523	263 17 0 00 000000 		RTN			;EXIT
SUBUSR (DDQDA) DECSYSTEM DIAGNOSTICS USER SUBROUTINE PROGRAM, VER 0,14	MACRO %53(1020) 15:25 23-Mar-78 Page 33
SUBUSM	MAC	23-Mar-78 15:02		*SUBRTN* MEMORY MANAGMENT ROUTINES                                                 SEQ 0304

  2013					S^;*********************************************************************^
  2014					;*MAPADR, VIRTUAL ADDRESS IN AC0, PHYSICAL ADDRESS RETURNED IN AC0
  2015					;*SKIP RETURN IS NORMAL, NON-SKIP RETURN IS KI10 PAGE INACCESSIBLE
  2016					S^;*********************************************************************^
  2017
  2018	002524	202 01 0 00 005353 	$MPADR:	MOVEM	1,$MPAC0#
  2019	002525	550 01 0 00 000000 		HRRZ	1,0
  2020	002526	307 01 0 00 000017 		CAIG	1,17		;ACCUMULATOR ADDRESS ?
  2021	002527	254 00 0 00 002550 		JRST	$MPAD3-1	;YES
  2022
  2023	002530	200 00 0 00 030046 		MOVE	CONSW
  2024	002531	336 00 0 00 030511 		SKIPN	PVPAGI
  2025	002532	607 00 0 00 000100 		TLNN	INHPAG
  2026	002533	254 00 0 00 002535 		JRST	.+2
  2027	002534	254 00 0 00 002556 		JRST	$MPAD2		;PAGING INHIBITED
  2028	002535	332 00 0 00 030041 		SKIPE	KLFLG		;KL10 ?
  2029	002536	254 00 0 00 002565 		JRST	$MPADL		;YES
  2030	002537	336 00 0 00 030040 		SKIPN	KAIFLG		;KA10 ?
  2031	002540	254 00 0 00 002556 		JRST	$MPAD2		;YES
  2032
  2033	002541	257 00 0 01 000000 	$MPAD6:	MAP	0,(1)		;KI10, GET RELOCATION DATA
  2034	002542	602 00 0 00 400000 		TRNE	0,400000	;PAGE FAILURE ?
  2035	002543	254 00 0 00 002553 		JRST	$MPAD4		;YES, SEE IF VALID ANYWAY
  2036	002544	620 00 0 00 760000 	$MPAD5:	TRZ	0,760000	;CLEAR P,W,S, NO MATCH BITS
  2037	002545	242 00 0 00 000011 		LSH	0,^D9		;HI-ORDER 13 FROM MAP
  2038	002546	405 01 0 00 000777 		ANDI	1,777		;LO-ORDER 9 FROM VIRTUAL
  2039	002547	434 00 0 00 000001 		OR	0,1		;COMBINE
  2040	002550	350 00 0 17 000000 	$MPAD7:	AOS	(P)		;SKIP RETURN
  2041	002551	200 01 0 00 005353 	$MPAD3:	MOVE	1,$MPAC0
  2042	002552	263 17 0 00 000000 		RTN
  2043
  2044	002553	602 00 0 00 020000 	$MPAD4:	TRNE	0,20000		;PAGE FAILURE, ALSO NO MATCH ?
  2045	002554	254 00 0 00 002551 		JRST	$MPAD3		;YES, ERROR
  2046	002555	254 00 0 00 002544 		JRST	$MPAD5		;MATCH (RELOCATION VALID)
  2047
  2048	002556	200 00 0 00 000001 	$MPAD2:	MOVE	0,1		;KA10
  2049	002557	561 00 0 00 000001 		HRROI	1
  2050	002560	047 00 0 00 000041 		CALLI	41		;GETTAB - RELOCATION TABLE
  2051	002561	400 00 0 00 000000 		SETZ			;ERROR
  2052	002562	550 00 0 00 000000 		HRRZ			;RELOCATION ONLY
  2053	002563	270 00 0 00 000001 		ADD	0,1		;RELOC + VIRTUAL = PHYSICAL
  2054	002564	254 00 0 00 002550 		JRST	$MPAD7
  2055
  2056	002565	200 00 0 00 000001 	$MPADL:	MOVE	0,1		;MAP ILLEGAL ON KL10
  2057	002566	254 00 0 00 002550 		JRST	$MPAD7		;SO VIRTUAL GIVEN BACK
SUBUSR (DDQDA) DECSYSTEM DIAGNOSTICS USER SUBROUTINE PROGRAM, VER 0,14	MACRO %53(1020) 15:25 23-Mar-78 Page 34
SUBUSM	MAC	23-Mar-78 15:02		*SUBRTN* MEMORY MANAGMENT ROUTINES                                                 SEQ 0305

  2058					;*MAPPNT, PRINT MEMORY MAP
  2059					S^;*********************************************************************^
  2060
  2061						SALL
  2062	002567	400 04 0 00 000000 	$PMAP:	SETZ	4,
  2063	002570	331 00 0 00 030043 		SKIPL	MONCTL		;UNDER DIAGNOSTIC MONITOR ?
  2064	002571	254 00 0 00 002573 		JRST	$PMAP3		;NO
  2065	002572	254 00 0 00 002575 		JRST	$PMAP1		;YES
  2066	002573	336 00 0 00 030056 	$PMAP3:	SKIPN	$ONETM		;FIRST TIME ?
  2067	002574	474 04 0 00 000000 		SETO	4,		;YES, SET FLAG FOR PRINTING
  2068	002575	322 04 0 00 002600 	$PMAP1:	JUMPE	4,$PMAPL-1	;NO
  2069
  2070	002576	037 02 0 00 005043 		PMSG	<^MEMORY MAP =^FROM     TO         SIZE/K>
  2071
  2072	002577	037 00 0 00 030242 		PCRL
  2073	002600	403 03 0 00 000005 		SETZB	3,5
  2074
  2075	002601	322 04 0 00 002607 	$PMAPL:	JUMPE	4,.+6
  2076	002602	200 00 0 03 030146 		MOVE	MEMSIZ(3)
  2077	002603	037 10 0 00 000000 		PNTADR			;PRINT START ADDRESS
  2078	002604	200 00 0 03 030147 		MOVE	MEMSIZ+1(3)
  2079	002605	037 10 0 00 000000 		PNTADR			;PRINT END ADDRESS
  2080	002606	037 00 0 00 000011 		PNTCI	"	"
  2081	002607	200 00 0 03 030147 		MOVE	MEMSIZ+1(3)
  2082	002610	271 00 0 00 000001 		ADDI	0,1
  2083	002611	274 00 0 03 030146 		SUB	MEMSIZ(3)
  2084	002612	231 00 0 00 002000 		IDIVI	^D1024
  2085	002613	270 05 0 00 000000 		ADD	5,0
  2086	002614	322 04 0 00 002616 		JUMPE	4,$PMAP4
  2087	002615	037 15 0 00 000000 	$PMAP7:	PNTDEC			;PRINT DECIMAL SIZE
  2088
  2089	002616	202 05 0 00 030144 	$PMAP4:	MOVEM	5,MEMTOT	;SAVE TOTAL # OF K
  2090	002617	550 00 0 00 000121 		HRRZ	JOBFF		;SETUP LOWEST USABLE
  2091	002620	271 00 0 00 001000 		ADDI	1000		;MEMORY ADDRESS
  2092	002621	620 00 0 00 000777 		TRZ	777		;EVEN BREAK ABOVE JOBFF
  2093	002622	202 00 0 00 030145 		MOVEM	MEMLOW
  2094	002623	322 04 0 00 002625 		JUMPE	4,$PMAP6	;RETURN
  2095	002624	037 00 0 00 030242 		PCRL
  2096
  2097	002625	263 17 0 00 000000 	$PMAP6:	RTN			;EXIT
  2098						LALL
SUBUSR (DDQDA) DECSYSTEM DIAGNOSTICS USER SUBROUTINE PROGRAM, VER 0,14	MACRO %53(1020) 15:25 23-Mar-78 Page 35
SUBUSM	MAC	23-Mar-78 15:02		*SUBRTN* DEVICE CODE CHANGE SUBROUTINE                                             SEQ 0306

  2099					SUBTTL	*SUBRTN* DEVICE CODE CHANGE SUBROUTINE
  2100					S^;*********************************************************************^
  2101
  2102	002626	260 17 0 00 002747 	$MODDV:	GO	$SWTCH		;LOAD SWITCHES INTO AC0
  2103	002627	607 00 0 00 000040 		TLNN	0,MODDVC	;DEVICE CODE CHANGE SELECTED ?
  2104	002630	263 17 0 00 000000 		RTN			;NO, DON'T DO IT
  2105
  2106	002631	202 01 0 00 005350 	$MODD0:	MOVEM	1,$MODDB#	;SAVE AC'S
  2107	002632	202 02 0 00 005351 		MOVEM	2,$MODDC#
  2108	002633	202 03 0 00 005352 		MOVEM	3,$MODDD#
  2109
  2110					;*ASK WHETHER CHANGES ARE DESIRED & IF SO; ASK FOR OLD AND NEW DEV CODE
  2111					S^;*********************************************************************^
  2112						SALL
  2113	002634	037 04 0 00 005052 	$MODD1:	PMSGF	<^CHANGE DEVICE CODES,>
  2114	002635	260 17 0 00 003430 		GO	$YESNO		;AFFIRMATIVE ?
  2115	002636	254 00 0 00 002732 		JRST	$MODDX		;NO/NO MORE CHANGES, EXIT
  2116
  2117	002637	037 04 0 00 005056 	$MODD3:	PMSGF	<OLD DEVICE CODE - >
  2118	002640	265 03 0 00 002675 		JSP	3,$MODD2	;GET OLD DEVICE CODE
  2119	002641	254 00 0 00 002637 		JRST	.-2		;NO RESPONSE ...ASK AGAIN
  2120	002642	202 00 0 00 005346 		MOVEM	0,$MDVCO#	;SAVE THE OLD CODE
  2121
  2122	002643	037 04 0 00 005062 	$MODD4:	PMSGF	<NEW DEVICE CODE - >
  2123	002644	265 03 0 00 002675 		JSP	3,$MODD2	;GET NEW DEVICE CODE
  2124	002645	254 00 0 00 002643 		JRST	.-2		;NO RESPONSE ...ASK AGAIN
  2125	002646	202 00 0 00 005345 		MOVEM	0,$MDVCN#	;SAVE THE NEW CODE
  2126
  2127	002647	037 04 0 00 005066 	$MODD5:	PMSGF	<CHANGING FROM >
  2128	002650	200 01 0 00 005346 		MOVE	1,$MDVCO	;GET OLD CODE
  2129	002651	265 03 0 00 002712 		JSP	3,$MDSRC	;GET THAT CODE OUT OF LIST
SUBUSR (DDQDA) DECSYSTEM DIAGNOSTICS USER SUBROUTINE PROGRAM, VER 0,14	MACRO %53(1020) 15:25 23-Mar-78 Page 36
SUBUSM	MAC	23-Mar-78 15:02		*SUBRTN* DEVICE CODE CHANGE SUBROUTINE                                             SEQ 0307

  2130	002652	037 04 0 00 005071 	$MODD6:	PMSGF	< TO >
  2131	002653	200 01 0 00 005345 		MOVE	1,$MDVCN	;GET NEW CODE
  2132	002654	265 03 0 00 002712 		JSP	3,$MDSRC	;GET THAT CODE OUT OF LIST (
  2133	002655	037 01 0 00 030242 		PCRLF
  2134
  2135	002656	037 04 0 00 005072 	$MODD7:	PMSGF	<VALID CHANGE,>
  2136	002657	260 17 0 00 003430 		GO	$YESNO		;AFFIRMATIVE ?
  2137	002660	254 00 0 00 002634 		JRST	$MODD1		;NO ...START OVER )
  2138	002661	260 17 0 00 002663 		GO	$MODD8		;YES ...CHANGE THE LIST
  2139	002662	254 00 0 00 002634 		JRST	$MODD1
  2140						LALL
  2141
  2142					;*CHANGE THE DEVICE CODE LIST
  2143					S^;*********************************************************************^
  2144
  2145	002663	200 02 0 00 030027 	$MODD8:	MOVE	2,$MODVL
  2146	002664	274 02 0 00 030030 		SUB	2,$MODVU
  2147	002665	514 02 0 00 000002 		HRLZ	2,2
  2148	002666	540 02 0 00 030027 		HRR	2,$MODVL
  2149	002667	200 01 0 00 005345 		MOVE	1,$MDVCN
  2150	002670	135 00 0 00 005075 		LDB	0,[POINT 10,(2),9] 	;GET IOT & DEVICE CODE
  2151	002671	316 00 0 00 005346 		CAMN	0,$MDVCO	;IS IT REQUESTED ONE ?
  2152	002672	137 01 0 00 005075 		DPB	1,[POINT 10,(2),9] 	;YES, MAKE THE CHANGE
  2153	002673	253 02 0 00 002670 		AOBJN	2,.-3
  2154	002674	263 17 0 00 000000 		RTN
  2155
  2156					;*INPUT OLD CODE AND CHECK FOR VALIDITY
  2157					S^;*********************************************************************^
  2158
  2159	002675	260 17 0 00 003474 	$MODD2:	GO	$TPOCT		;INPUT THE OLD CODE
  2160	002676	254 00 1 00 000003 		JRST	@3		;NO RESPONSE, RETURN + 1 )
  2161
  2162	002677	602 00 0 00 000003 	$MODD9:	TRNE	0,3		;MUST END IN 0 OR 4
  2163	002700	254 00 0 00 002730 		JRST	$MODER		;ERROR! ASK AGAIN
  2164	002701	307 00 0 00 000774 		CAIG	0,774		;IS DEVICE CODE IN PROPER RANGE
  2165	002702	305 00 0 00 000014 		CAIGE	0,14
  2166	002703	254 00 0 00 002730 		JRST	$MODER		;ERROR, 14 TO 774 ONLY
  2167	002704	306 00 0 00 000120 		CAIN	0,120		;CTY MAY NOT CHANGE!
  2168	002705	254 00 0 00 002730 		JRST	$MODER		;ASK AGAIN
  2169	002706	660 00 0 00 007000 		TRO	0,7000		;INSERT IOT CODE
  2170	002707	242 00 0 00 777776 		LSH	0,-2		;POSITION
  2171	002710	350 00 0 00 000003 		AOS	3		;RETURN + 2
  2172	002711	254 00 1 00 000003 		JRST	@3		;RETURN
SUBUSR (DDQDA) DECSYSTEM DIAGNOSTICS USER SUBROUTINE PROGRAM, VER 0,14	MACRO %53(1020) 15:25 23-Mar-78 Page 37
SUBUSM	MAC	23-Mar-78 15:02		*SUBRTN* DEVICE CODE CHANGE SUBROUTINE                                             SEQ 0308

  2173					;*GET THE OLD/NEW CODE FROM DEVICE CODE LIST
  2174					S^;*********************************************************************^
  2175						SALL
  2176	002712	242 01 0 00 000002 	$MDSRC:	LSH	1,2		;POSITION FOR COMPARE
  2177	002713	620 01 0 00 007000 		TRZ	1,7000		;MASK IOT
  2178	002714	200 02 0 00 005076 		MOVE	2,[-$MDEND,,$MDLST]
  2179	002715	135 00 0 00 005077 		LDB	[POINT 9,(2),35] ;EXTRACT CODE FROM LIST
  2180	002716	316 00 0 00 000001 		CAMN	0,1		;IS THIS THE ONE?
  2181	002717	254 00 0 00 002724 		JRST	$MDSR2		;YES! ...PRINT IT & EXIT
  2182	002720	253 02 0 00 002715 		AOBJN	2,.-3		;NOT YET ...GET NEXT
  2183	002721	200 00 0 00 000001 		MOVE	0,1
  2184	002722	037 03 0 00 000001 		PNT3F
  2185
  2186	002723	254 00 1 00 000003 	$MDSR1:	JRST	@3		;RETURN
  2187	002724	200 00 0 02 000000 	$MDSR2:	MOVE	0,(2)
  2188	002725	620 00 0 00 000777 		TRZ	0,777		;MASK CODE
  2189	002726	037 01 0 00 000002 		PNTSXF			;PRINT IT
  2190	002727	254 00 0 00 002723 		JRST	$MDSR1		;EXIT
  2191
  2192	002730	037 04 0 00 005100 	$MODER:	PMSGF	<^DEV CODE ERR, 14-774 ONLY^>
  2193	002731	254 00 0 00 002637 		JRST	$MODD3		;ASK WHICH ONE TO CHANGE AGAIN
  2194
  2195	002732	200 03 0 00 005352 	$MODDX:	MOVE	3,$MODDD	;RESTORE AC'S
  2196	002733	200 02 0 00 005351 		MOVE	2,$MODDC
  2197	002734	200 01 0 00 005350 		MOVE	1,$MODDB
  2198	002735	263 17 0 00 000000 		RTN			;EXIT
  2199						LALL
  2200					;*DEVICE CODE CHANGE SUBROUTINE BY PROGRAM
  2201					;* AC0 = [OLD,,NEW]
  2202					S^;*********************************************************************^
  2203
  2204	002736	242 00 0 00 777776 	$MODDP:	LSH	AC0,-2		;RIGHT JUSTIFY
  2205	002737	434 00 0 00 005105 		OR	AC0,[1600,,1600] ;INSERT IOT CODE
  2206	002740	556 00 0 00 005346 		HLRZM	$MDVCO		;SETUP OLD CODE
  2207	002741	552 00 0 00 005345 		HRRZM	$MDVCN		;SETUP NEW CODE
  2208	002742	202 01 0 00 005350 		MOVEM	1,$MODDB
  2209	002743	202 02 0 00 005351 		MOVEM	2,$MODDC
  2210	002744	202 03 0 00 005352 		MOVEM	3,$MODDD
  2211
  2212	002745	260 17 0 00 002663 		GO	$MODD8		;CHANGE CODES
  2213	002746	254 00 0 00 002732 		JRST	$MODDX		;EXIT
SUBUSR (DDQDA) DECSYSTEM DIAGNOSTICS USER SUBROUTINE PROGRAM, VER 0,14	MACRO %53(1020) 15:25 23-Mar-78 Page 38
SUBUSM	MAC	23-Mar-78 15:02		*SUBRTN* CONSOLE DATA SWITCH INPUT SUBROUTINE                                      SEQ 0309

  2214					SUBTTL	*SUBRTN* CONSOLE DATA SWITCH INPUT SUBROUTINE
  2215					S^;*********************************************************************^
  2216					;*INPUT CONSOLE SWITCHES IN EXEC MODE OR IN
  2217					;*USER MODE IF NON-TTY SWITCH CONTROL
  2218					S^;*********************************************************************^
  2219
  2220	002747	332 00 0 00 030521 	$SWTCH:	SKIPE	$$TOGGLE	;SWITCHES PREVENTED ?
  2221	002750	254 00 0 00 002770 		JRST	$SWU2		;YES, USE C(CONSW)
  2222	002751	336 00 0 00 005403 		SKIPN	$SWFLG		;BEEN INITED ?
  2223	002752	254 00 0 00 002766 		JRST	$SWU1		;NO, USE SAVED SWITCHES
  2224	002753	332 00 0 00 005417 		SKIPE	$USWTF		;TTY SWITCH CONTROL ?
  2225	002754	254 00 0 00 002766 		JRST	$SWU1		;YES, USE SAVED SWITCHES
  2226	002755	254 00 0 00 002762 		JRST	$SWUSR		;USER MODE
  2227	002756	335 00 0 00 030043 	$SWCH1:	SKIPGE	MONCTL		;MONITR CONTROL ?
  2228	002757	540 00 0 00 030043 		HRR	0,MONCTL	;YES, USE PRESTORED RH SWITCHES
  2229	002760	202 00 0 00 030046 		MOVEM	0,CONSW		;SAVE
  2230	002761	263 17 0 00 000000 		RTN			;EXIT
  2231	002762	400 00 0 00 000000 	$SWUSR:	SETZ			;KL'S DON'T HAVE SWITCHES
  2232	002763	336 00 0 00 030516 		SKIPN	MONTYP
  2233	002764	047 00 0 00 000020 		CALLI	20		;TOPS10 SWITCH CALL
  2234	002765	202 00 0 00 030046 		MOVEM	AC0,CONSW
  2235	002766	200 00 0 00 030046 	$SWU1:	MOVE	0,CONSW
  2236	002767	254 00 0 00 002756 		JRST	$SWCH1
  2237	002770	200 00 0 00 030046 	$SWU2:	MOVE	0,CONSW
  2238	002771	263 17 0 00 000000 		RTN
SUBUSR (DDQDA) DECSYSTEM DIAGNOSTICS USER SUBROUTINE PROGRAM, VER 0,14	MACRO %53(1020) 15:25 23-Mar-78 Page 39
SUBUSM	MAC	23-Mar-78 15:02		*SUBRTN* CONSOLE DATA SWITCH INPUT SUBROUTINE                                      SEQ 0310

  2239					;*SWITCH INITIALIZATION ROUTINE
  2240					S^;*********************************************************************^
  2241						SALL
  2242	002772	402 00 0 00 005417 	$SWTIN:	SETZM	$USWTF#		;CLEAR TTY CONTROL FLAG
  2243	002773	402 00 0 00 005404 		SETZM	$SWONCE#
  2244	002774	260 17 0 00 003016 		GO	$SW0		;INIT SWITCH ROUTINE
  2245	002775	476 00 0 00 005404 	$SWIN1:	SETOM	$SWONCE
  2246	002776	476 00 0 00 005403 		SETOM	$SWFLG		;SET INITED FLAG
  2247	002777	260 17 0 00 002747 		GO	$SWTCH		;READ CONSOLE SWITCHES
  2248	003000	603 00 0 00 020000 		TLNE	PNTLPT		;PRINT ON LPT/LOGICAL DEVICE ?
  2249	003001	260 17 0 00 002101 		GO	$PNTNM+2	;YES ...PRINT PROGRAM NAME
  2250	003002	200 00 0 00 030046 		MOVE	CONSW
  2251	003003	603 00 0 00 000004 		TLNE	CHAIN		;IN CHAIN MODE ?
  2252	003004	263 17 0 00 000000 		RTN			;YES, DON'T PRINT FOLLOWING
  2253	003005	335 00 0 00 030043 		SKIPGE	MONCTL
  2254	003006	263 17 0 00 000000 		RTN			;DIAGNOSTIC MONITOR
  2255	003007	332 00 0 00 030521 		SKIPE	$$TOGGLE
  2256	003010	254 00 0 00 003015 		JRST	.+5
  2257	003011	037 04 0 00 004705 		PMSGF	<^SWITCHES = >
  2258	003012	200 00 0 00 030046 		MOVE	CONSW		;GET THE SAVED SWITCHES
  2259	003013	037 13 0 00 000001 		PNTHWF			;PRINT PRESENT SWITCH SETTINGS
  2260	003014	037 01 0 00 030242 		PCRLF
  2261	003015	263 17 0 00 000000 		RTN			;EXIT
  2262						LALL
SUBUSR (DDQDA) DECSYSTEM DIAGNOSTICS USER SUBROUTINE PROGRAM, VER 0,14	MACRO %53(1020) 15:25 23-Mar-78 Page 40
SUBUSM	MAC	23-Mar-78 15:02		*SUBRTN* CONSOLE DATA SWITCH INPUT SUBROUTINE                                      SEQ 0311

  2263					;*SWITCH INITIALIZATION ROUTINE
  2264					S^;*********************************************************************^
  2265						SALL
  2266	003016	261 17 0 00 000000 	$SW0:	PUT	0
  2267	003017	332 00 0 00 030521 		SKIPE	$$TOGGLE	;SWITCHES PREVENTED ?
  2268	003020	254 00 0 00 003076 		JRST	$SW9+2		;YES, USE C(CONSW)
  2269	003021	335 00 0 00 030043 		SKIPGE	MONCTL		;DIAGNOSTIC MONITOR MODE ?
  2270	003022	254 00 0 00 003100 		JRST	$SW10		;YES
  2271	003023	336 00 0 00 005404 		SKIPN	$SWONCE		;INITIALIZATION ?
  2272	003024	254 00 0 00 003102 		JRST	$SW11		;YES
  2273	003025	037 04 0 00 004705 	$SW12:	PMSGF	<^SWITCHES = >
  2274	003026	200 00 0 00 030046 		MOVE	CONSW
  2275	003027	037 13 0 00 000001 		PNTHWF
  2276
  2277	003030	037 04 0 00 005106 	$SW1:	PMSGF	<^TTY SWITCH CONTROL ? - 0,S, Y OR N <CR> - >
  2278	003031	260 17 0 00 003301 		GO	$OPTLK		;INPUT THE ANSWER
  2279	003032	254 00 0 00 003030 		JRST	$SW1		;NO CHARACTER RETURNED, ASK AGAIN
  2280	003033	306 00 0 00 000015 		CAIN	0,15
  2281	003034	254 00 0 00 003052 		JRST	$SWERR		;1ST CHAR CR, ERROR
  2282	003035	242 00 0 00 000007 		LSH	0,7		;POSITION 1ST CHAR
  2283	003036	202 00 0 00 005402 		MOVEM	$SW#
  2284	003037	260 17 0 00 003301 		GO	$OPTLK		;INPUT THE CR
  2285	003040	254 00 0 00 003030 		JRST	$SW1		;NO CHAR, ASK AGAIN
  2286	003041	434 00 0 00 005402 		OR	0,$SW
  2287	003042	306 00 0 00 014015 		CAIN	0,14015		;"0" (CR) ?
  2288	003043	254 00 0 00 003054 		JRST	$SW6		;YES-USE ALL SWITCHES = 0
  2289	003044	306 00 0 00 024615 		CAIN	0,24615		;"S" (CR) ?
  2290	003045	254 00 0 00 003074 		JRST	$SW9		;YES-USE SAVED SWITCHES
  2291	003046	306 00 0 00 026215 		CAIN	0,26215		;"Y" (CR) ?
  2292	003047	254 00 0 00 003056 		JRST	$SW2		;YES-USE TTY INPUT SWITCHES
  2293	003050	306 00 0 00 023415 		CAIN	0,23415		;"N" (CR) ?
  2294	003051	254 00 0 00 003072 		JRST	$SW7		;YES-READ CONSOLE SWITCHES & RETURN
  2295
  2296	003052	260 17 0 00 003360 	$SWERR:	GO	$TPCLR		;CLEAR INPUT
  2297	003053	254 00 0 00 003030 		JRST	$SW1		;ASK AGAIN
SUBUSR (DDQDA) DECSYSTEM DIAGNOSTICS USER SUBROUTINE PROGRAM, VER 0,14	MACRO %53(1020) 15:25 23-Mar-78 Page 41
SUBUSM	MAC	23-Mar-78 15:02		*SUBRTN* CONSOLE DATA SWITCH INPUT SUBROUTINE                                      SEQ 0312

  2298	003054	402 00 0 00 000000 	$SW6:	SETZM	0
  2299	003055	254 00 0 00 003066 		JRST	$SW4
  2300
  2301	003056	037 04 0 00 005116 	$SW2:	PMSGF	<^LH SWITCHES <# OR ?> - >
  2302	003057	260 17 0 00 003474 		GO	$TPOCT		;INPUT 6 OCTALS
  2303	003060	254 00 0 00 003106 		JRST	$SW13		;ERROR .....TRY AGAIN
  2304	003061	516 00 0 00 005402 		HRLZM	0,$SW#		;MOVE LH WORD TO SW
  2305
  2306	003062	037 04 0 00 005123 	$SW3:	PMSGF	<RH SWITCHES <# OR ?> - >
  2307	003063	260 17 0 00 003474 		GO	$TPOCT		;INPUT 6 OCTALS
  2308	003064	254 00 0 00 003113 		JRST	$SW14		;ERROR .....TRY AGAIN
  2309	003065	500 00 0 00 005402 		HLL	0,$SW		;GET LH SWITCHES
  2310	003066	202 00 0 00 030046 	$SW4:	MOVEM	0,CONSW		;SAVE SWITCHES IN CONSW
  2311	003067	476 00 0 00 005417 	$SW5:	SETOM	$USWTF		;SET TTY INPUT SWITCH FLAG
  2312	003070	262 17 0 00 000000 	$SW8:	GET	0
  2313	003071	263 17 0 00 000000 		RTN
  2314
  2315	003072	402 00 0 00 005417 	$SW7:	SETZM	$USWTF		;N, USE REAL SWITCHES
  2316	003073	254 00 0 00 003070 		JRST	$SW8
  2317
  2318	003074	332 00 0 00 005404 	$SW9:	SKIPE	$SWONCE		;S, USE SAME AS BEFORE ON "DING" REQUEST
  2319	003075	254 00 0 00 003070 		JRST	$SW8
  2320	003076	200 00 0 00 005401 		MOVE	$SVCSW		;ON INITIALIZATION USE PREVIOUS SWITCHES
  2321	003077	254 00 0 00 003066 		JRST	$SW4
  2322
  2323	003100	200 00 0 00 020007 	$SW10:	MOVE	0,DIASWS	;GET DIAMON SWITCHES
  2324	003101	254 00 0 00 003066 		JRST	$SW4
  2325
  2326	003102	200 00 0 00 005401 	$SW11:	MOVE	0,$SVCSW	;IF SAVED SW'S ARE ZERO
  2327	003103	322 00 0 00 003030 		JUMPE	0,$SW1		;DON'T PRINT THEM
  2328	003104	202 00 0 00 030046 		MOVEM	0,CONSW
  2329	003105	254 00 0 00 003025 		JRST	$SW12
  2330
  2331	003106	302 00 0 00 000077 	$SW13:	CAIE	"?"		;QMARK ?
  2332	003107	254 00 0 00 003056 		JRST	$SW2		;NO, ERROR
  2333	003110	201 00 0 00 003152 		MOVEI	SWTAB
  2334	003111	260 17 0 00 003121 		GO	$SWXX		;PROMPT FOR SWITCHES
  2335	003112	254 00 0 00 003061 		JRST	$SW3-1
  2336
  2337	003113	302 00 0 00 000077 	$SW14:	CAIE	"?"		;QMARK ?
  2338	003114	254 00 0 00 003062 		JRST	$SW3		;NO, ERROR
  2339	003115	200 00 0 00 030525 		MOVE	SWPTAB		;GET ADDRESS OF USERS TABLE
  2340	003116	322 00 0 00 003062 		JUMPE	$SW3		;IF NONE, ERROR
  2341	003117	260 17 0 00 003121 		GO	$SWXX		;PROMPT FOR SWITCHES
  2342	003120	254 00 0 00 003065 		JRST	$SW4-1
SUBUSR (DDQDA) DECSYSTEM DIAGNOSTICS USER SUBROUTINE PROGRAM, VER 0,14	MACRO %53(1020) 15:25 23-Mar-78 Page 42
SUBUSM	MAC	23-Mar-78 15:02		*SUBRTN* CONSOLE DATA SWITCH INPUT SUBROUTINE                                      SEQ 0313

  2343					;*PROMPT FOR SWITCHES
  2344
  2345	003121	261 17 0 00 000001 	$SWXX:	PUT	1
  2346	003122	261 17 0 00 000002 		PUT	2
  2347	003123	261 17 0 00 000003 		PUT	3
  2348	003124	200 01 0 00 000000 		MOVE	1,0		;PUT SWITCH PROMPT TABLE ADDRESS IN 1
  2349	003125	505 01 0 00 777756 		HRLI	1,-^D18		;18 SWITCHES
  2350	003126	201 02 0 00 400000 		MOVEI	2,400000
  2351	003127	400 03 0 00 000000 		SETZ	3,
  2352	003130	037 01 0 00 030242 		PCRLF
  2353
  2354	003131	200 00 0 01 000000 	$SWXX1:	MOVE	(1)		;GET SIXBIT PROMPT
  2355	003132	322 00 0 00 003142 		JUMPE	0,$SWXX2	;IF BLANK, NO PROMPT
  2356	003133	037 01 0 00 000002 		PNTSXF
  2357	003134	037 01 0 00 000011 		PNTCIF	11		;PRINT A TAB
  2358	003135	260 17 0 00 003203 		GO	$SWZZ		;GET SWITCH ANSWER
  2359	003136	254 00 0 00 003130 		JRST	$SWXX1-1	;ERROR
  2360	003137	254 00 0 00 003144 		JRST	$SWXX3		;CONTROL Z
  2361	003140	254 00 0 00 003174 		JRST	$SWXX4		;UPARROW
  2362	003141	434 03 0 00 000002 		OR	3,2		;YES, OR SWITCH BIT IN
  2363									;NO, LEAVE SWITCH BIT CLEAR
  2364	003142	242 02 0 00 777777 	$SWXX2:	LSH	2,-1		;POSITION TO NEXT SWITCH
  2365	003143	253 01 0 00 003131 		AOBJN	1,$SWXX1
  2366	003144	037 01 0 00 030242 	$SWXX3:	PCRLF
  2367	003145	200 00 0 00 000003 		MOVE	0,3		;RETURN SWITCHES IN 0
  2368	003146	262 17 0 00 000003 		GET	3
  2369	003147	262 17 0 00 000002 		GET	2
  2370	003150	262 17 0 00 000001 		GET	1
  2371	003151	263 17 0 00 000000 		RTN
  2372
  2373	003152	41 42 57 62 64 00 	SWTAB:	SIXBIT/ABORT/
  2374	003153	62 63 64 41 62 64 		SIXBIT/RSTART/
  2375	003154	64 57 64 41 54 63 		SIXBIT/TOTALS/
  2376	003155	56 57 60 56 64 00 		SIXBIT/NOPNT/
  2377	003156	60 56 64 54 60 64 		SIXBIT/PNTLPT/
  2378	003157	44 51 56 47 00 00 		SIXBIT/DING/
  2379	003160	54 57 57 60 45 62 		SIXBIT/LOOPER/
  2380	003161	45 62 63 64 57 60 		SIXBIT/ERSTOP/
  2381	003162	60 41 54 45 62 63 		SIXBIT/PALERS/
  2382	003163	62 45 54 51 41 42 		SIXBIT/RELIAB/
  2383	003164	64 70 64 51 56 50 		SIXBIT/TXTINH/
  2384	003165	000000	000000			0
  2385	003166	55 57 44 44 66 43 		SIXBIT/MODDVC/
  2386	003167	000000	000000			0
  2387	003170	57 60 62 63 45 54 		SIXBIT/OPRSEL/
  2388	003171	43 50 41 51 56 00 		SIXBIT/CHAIN/
  2389	003172	000000	000000			0
  2390	003173	000000	000000			0
SUBUSR (DDQDA) DECSYSTEM DIAGNOSTICS USER SUBROUTINE PROGRAM, VER 0,14	MACRO %53(1020) 15:25 23-Mar-78 Page 43
SUBUSM	MAC	23-Mar-78 15:02		*SUBRTN* CONSOLE DATA SWITCH INPUT SUBROUTINE                                      SEQ 0314

  2391					;*PROCESS PROMPT
  2392					;*	CONTROL Z, ENDS PROMPTING
  2393					;*	UPARROW, BACK UP ONE PROMPT
  2394					;*	Y, SET SWITCH
  2395					;*	N, DON'T SET SWITCH
  2396					;*	CR, DON'T SET SWITCH
  2397
  2398	003174	306 02 0 00 400000 	$SWXX4:	CAIN	2,400000	;BACKED UP ALL THE WAY ?
  2399	003175	254 00 0 00 003202 		JRST	.+5		;YES
  2400	003176	242 02 0 00 000001 		LSH	2,1		;BACKUP SWITCH BIT
  2401	003177	274 01 0 00 004676 		SUB	1,[1,,1]	;BACKUP SWITCH TABLE POINTER
  2402	003200	336 00 0 01 000000 		SKIPN	(1)		;THIS POSITION BLANK ?
  2403	003201	254 00 0 00 003174 		JRST	.-5		;YES, BACK UP ANOTHER
  2404	003202	254 00 0 00 003130 		JRST	$SWXX1-1
  2405
  2406	003203	037 01 0 00 005127 	$SWZZ:	PNTMSF	[ASCIZ/- Y,N,^ <CR> OR ^Z - /]
  2407	003204	260 17 0 00 003301 		GO	$OPTLK
  2408	003205	263 17 0 00 000000 		RTN			;NO RESPONSE
  2409	003206	306 00 0 00 000032 		CAIN	"Z"-100
  2410	003207	254 00 0 00 003235 		JRST	$SWZZ1		;^Z, DONE
  2411	003210	306 00 0 00 000136 		CAIN	"^"
  2412	003211	254 00 0 00 003234 		JRST	$SWZZ2		;^, BACKUP
  2413	003212	306 00 0 00 000015 		CAIN	15
  2414	003213	254 00 0 00 003232 		JRST	$SWZZ4		;CR, SAME AS NO
  2415
  2416	003214	302 00 0 00 000131 		CAIE	"Y"		;Y, SET SWITCH BIT
  2417	003215	306 00 0 00 000116 		CAIN	"N"		;N, DON'T SET SWITCH BIT
  2418	003216	254 00 0 00 003220 		JRST	.+2
  2419	003217	263 17 0 00 000000 		RTN			;NEITHER, ERROR
  2420	003220	242 00 0 00 000007 		LSH	0,7
  2421	003221	202 00 0 00 005405 		MOVEM	$SWYYY#
  2422	003222	260 17 0 00 003301 		GO	$OPTLK		;GET CR
  2423	003223	263 17 0 00 000000 		RTN			;NO RESPONSE
  2424	003224	434 00 0 00 005405 		OR	0,$SWYYY
  2425	003225	306 00 0 00 026215 		CAIN	0,26215
  2426	003226	254 00 0 00 003233 		JRST	$SWZZ3		;Y <CR>
  2427	003227	306 00 0 00 023415 		CAIN	0,23415
  2428	003230	254 00 0 00 003232 		JRST	$SWZZ4		;N <CR>
  2429	003231	263 17 0 00 000000 		RTN			;ERROR
  2430
  2431	003232	350 00 0 17 000000 	$SWZZ4:	AOS	(P)		;NO
  2432	003233	350 00 0 17 000000 	$SWZZ3:	AOS	(P)		;YES
  2433	003234	350 00 0 17 000000 	$SWZZ2:	AOS	(P)		;UPARROW
  2434	003235	350 00 0 17 000000 	$SWZZ1:	AOS	(P)		;CONTROL Z
  2435	003236	263 17 0 00 000000 		RTN
  2436
  2437						LALL
SUBUSR (DDQDA) DECSYSTEM DIAGNOSTICS USER SUBROUTINE PROGRAM, VER 0,14	MACRO %53(1020) 15:25 23-Mar-78 Page 44
SUBUSM	MAC	23-Mar-78 15:02		*SUBRTN* TELETYPE INPUT ROUTINES                                                   SEQ 0315

  2438					SUBTTL	*SUBRTN* TELETYPE INPUT ROUTINES
  2439
  2440					S^;*********************************************************************^
  2441					;*CARRIAGE RETURN OR COMMA TERMINATES OCTAL, DECIMAL, OR CONVERT TYPE-IN.
  2442					;*CHARACTER OR NUMBER RETURNED IN AC0.
  2443					;*CALL SEQUENCE IS AS FOLLOWS:
  2444					;*	NAME
  2445					;*	NO/ERROR RESPONSE RETURN (+ 1)
  2446					;*	NORMAL RESPONSE RETURN (+ 2)
  2447					;*$OPTLK =	INPUT ANY CHARACTER
  2448					;*$YESNO =	ASK QUESTION, CORRECT RESPONSE Y
  2449					;*$NOYES =	ASK QUESTION, CORRECT RESPONSE N
  2450					;*$TPOCT =	INPUT UP TO 12 OCTALS
  2451					;*$TPDEC =	INPUT UP TO 11 DECIMALS
  2452					;*$TPCNV =	INPUT UP TO 9 CONVERT'S
  2453					;*$TTLK  =	KEYBOARD CHECK, INPUT ANY CHARACTER (NO WAIT)
  2454					;*$TALTM =	KEYBOARD, ALT-MODE CHECK
  2455					;*$TISIX =	INPUT UP TO 6 SIXBIT CHARACTERS
  2456					S^;*********************************************************************^
  2457
  2458					;*TELETYPE INPUT INITIALIZATION
  2459					S^;*********************************************************************^
  2460	003237	402 00 0 00 005323 	$TYPIN:	SETZM	INUPTR		;CLEAR INPUT POINTER
  2461	003240	263 17 0 00 000000 		RTN			;NO TYPE-IN AVAILABLE
  2462
  2463					S^;*********************************************************************^
  2464					;*CHECKS FOR ANY KEY STRUCK, RETURNS IMMEDIATELY
  2465					;*RETURNS +1 IF NO TYPEIN, RETURNS +2 IF CHAR TYPED
  2466					S^;*********************************************************************^
  2467
  2468	003241	400 00 0 00 000000 	$TTLK:	SETZ	AC0,
  2469	003242	335 00 0 00 030043 		SKIPGE	MONCTL		;NO CHECK IF "MONITOR"
  2470	003243	263 17 0 00 000000 		RTN
  2471	003244	332 00 0 00 030516 		SKIPE	MONTYP
  2472	003245	254 00 0 00 003251 		JRST	.+4
  2473	003246	051 02 0 00 030231 		INCHRS	$TTCHR		;TOPS10 INPUT CHAR AND SKIP
  2474	003247	263 17 0 00 000000 		RTN			;NONE AVAILABLE
  2475	003250	254 00 0 00 003371 		JRST	$HEAR4		;GO PROCESS
  2476	003251	261 17 0 00 000001 		PUT	1
  2477	003252	261 17 0 00 000002 		PUT	2
  2478	003253	201 01 0 00 000100 		MOVEI	1,.PRIIN
  2479	003254	104 00 0 00 000102 		SIBE			;ANY INPUT AVAILABLE ?
  2480	003255	254 00 0 00 003261 		 JRST	.+4		;YES
  2481	003256	262 17 0 00 000002 		GET	2
  2482	003257	262 17 0 00 000001 		GET	1
  2483	003260	263 17 0 00 000000 		RTN
  2484	003261	104 00 0 00 000073 		PBIN			;GET INPUT CHAR
  2485	003262	202 01 0 00 030231 		MOVEM	1,$TTCHR
  2486	003263	262 17 0 00 000002 		GET	2
  2487	003264	262 17 0 00 000001 		GET	1
  2488	003265	254 00 0 00 003371 		JRST	$HEAR4		;CHAR TYPED, GO PROCESS
SUBUSR (DDQDA) DECSYSTEM DIAGNOSTICS USER SUBROUTINE PROGRAM, VER 0,14	MACRO %53(1020) 15:25 23-Mar-78 Page 45
SUBUSM	MAC	23-Mar-78 15:02		*SUBRTN* TELETYPE INPUT ROUTINES                                                   SEQ 0316

  2489					S^;*********************************************************************^
  2490					;*TELETYPE IMAGE MODE INPUT
  2491					;*PROVIDES UNBUFFERED MODE INPUT
  2492					;*WAITS FOREVER, RETURN WITH CHAR UPPER CASED & ECHOED
  2493					S^;*********************************************************************^
  2494
  2495	003266	332 00 0 00 030516 	$TTYIN:	SKIPE	MONTYP
  2496	003267	254 00 0 00 003272 		JRST	.+3
  2497	003270	051 00 0 00 000000 		INCHRW			;TOPS10 INPUT CHAR AND WAIT
  2498	003271	254 00 0 00 003276 		JRST	.+5
  2499	003272	261 17 0 00 000001 		PUT	1
  2500	003273	104 00 0 00 000073 		PBIN
  2501	003274	202 01 0 00 030231 		MOVEM	1,$TTCHR
  2502	003275	262 17 0 00 000001 		GET	1
  2503	003276	260 17 0 00 003371 		GO	$HEAR4		;PROCESS IT
  2504	003277	254 00 0 00 003276 		JRST	.-1
  2505	003300	263 17 0 00 000000 		RTN
  2506
  2507	003301	202 04 0 00 005406 	$OPTLK:	MOVEM	4,$TACB4#
  2508	003302	260 17 0 00 003331 		GO	$HEAR
  2509	003303	254 00 0 00 003302 		JRST	.-1
  2510	003304	350 00 0 17 000000 		AOS	(P)
  2511	003305	201 04 0 00 000001 		MOVEI	4,1
  2512	003306	202 04 0 00 030225 		MOVEM	4,$TWCNT	;INDICATE NO TIMEOUT
  2513	003307	200 04 0 00 005406 		MOVE	4,$TACB4
  2514	003310	263 17 0 00 000000 		RTN
  2515
  2516					S^;*********************************************************************^
  2517					;*TELETYPE ALT-MODE CHECK ROUTINE
  2518					S^;*********************************************************************^
  2519
  2520	003311	260 17 0 00 003241 	$TALTM:	GO	$TTLK
  2521	003312	263 17 0 00 000000 		RTN			;NO TYPE-IN  ...EXIT
  2522
  2523	003313	302 00 0 00 000175 	$TALT2:	CAIE	175
  2524	003314	306 00 0 00 000176 		CAIN	176
  2525	003315	254 00 0 00 003320 		JRST	$TALT1		;ALT-MODE WAS TYPED
  2526	003316	302 00 0 00 000033 		CAIE	33
  2527	003317	254 00 0 00 003321 		JRST	.+2		;NO ALT-MODE
  2528
  2529	003320	254 00 0 00 030064 	$TALT1:	JRST	CPOPJ1		;ALT-MODE, RETURN +2
  2530
  2531	003321	302 00 0 00 000007 		CAIE	007		;IS CHAR A BELL ?
  2532	003322	263 17 0 00 000000 		RTN
  2533	003323	332 00 0 00 030522 		SKIPE	$$TAX1
  2534	003324	256 00 0 00 030522 		XCT	$$TAX1		;XCT USERS PRE-ROUTINE
  2535	003325	260 17 0 00 003016 		GO	$SW0		;YES, DING FOR SWITCH CONTROL
  2536	003326	332 00 0 00 030523 		SKIPE	$$TAX2
  2537	003327	256 00 0 00 030523 		XCT	$$TAX2		;XCT USERS POST-ROUTINE
  2538	003330	263 17 0 00 000000 		RTN
SUBUSR (DDQDA) DECSYSTEM DIAGNOSTICS USER SUBROUTINE PROGRAM, VER 0,14	MACRO %53(1020) 15:25 23-Mar-78 Page 46
SUBUSM	MAC	23-Mar-78 15:02		*SUBRTN* TELETYPE INPUT ROUTINES                                                   SEQ 0317

  2539					S^;*********************************************************************^
  2540					;*TELETYPE INPUT CHARACTER
  2541					S^;*********************************************************************^
  2542
  2543	003331	332 00 0 00 030516 	$HEAR:	SKIPE	MONTYP
  2544	003332	254 00 0 00 003335 		JRST	.+3
  2545	003333	051 04 0 00 030231 		INCHWL	$TTCHR		;TOPS10 INPUT CHAR LINE MODE
  2546	003334	254 00 0 00 003371 		JRST	$HEAR4
  2547	003335	336 00 0 00 005323 		SKIPN	INUPTR		;ANY INPUT POINTER ?
  2548	003336	254 00 0 00 003343 		JRST	.+5		;NO, INPUT CLEARED
  2549	003337	134 00 0 00 005323 		ILDB	0,INUPTR	;GET CHAR FROM STORE
  2550	003340	322 00 0 00 003343 		JUMPE	0,.+3		;USED IT ALL, GET NEW INPUT
  2551	003341	202 00 0 00 030231 		MOVEM	0,$TTCHR	;SAVE IT
  2552	003342	254 00 0 00 003371 		JRST	$HEAR4		;GO PROCESS
  2553
  2554	003343	261 17 0 00 000001 		PUT	1
  2555	003344	261 17 0 00 000002 		PUT	2
  2556	003345	261 17 0 00 000003 		PUT	3
  2557	003346	200 01 0 00 005134 		MOVE	1,[POINT 7,D$ISTR]
  2558	003347	202 01 0 00 005323 		MOVEM	1,INUPTR#	;SETUP INPUT POINTER
  2559	003350	200 02 0 00 005135 		MOVE	2,[RD%BRK!RD%TOP!^D132]
  2560	003351	400 03 0 00 000000 		SETZ	3,
  2561
  2562	003352	104 00 0 00 000523 		RDTTY			;GET TTY INPUT FROM MONITOR
  2563	003353	254 00 0 00 004530 		 JRST	T20ERR
  2564
  2565	003354	262 17 0 00 000003 		GET	3
  2566	003355	262 17 0 00 000002 		GET	2
  2567	003356	262 17 0 00 000001 		GET	1
  2568	003357	254 00 0 00 003331 		JRST	$HEAR		;NOW GO PROCESS
  2569
  2570	003360	261 17 0 00 000001 	$TPCLR:	PUT	1
  2571	003361	402 00 0 00 005323 		SETZM	INUPTR		;CLEAR INPUT POINTER
  2572	003362	201 01 0 00 000100 		MOVEI	1,.PRIIN
  2573	003363	336 00 0 00 030516 		SKIPN	MONTYP
  2574	003364	051 11 0 00 000000 		CLRBFI			;TOPS10 CLEAR BUFFER
  2575	003365	332 00 0 00 030516 		SKIPE	MONTYP
  2576	003366	104 00 0 00 000100 		CFIBF			;ERROR, CLEAR TYPE-IN BUFFER
  2577	003367	262 17 0 00 000001 		GET	1
  2578	003370	263 17 0 00 000000 		RTN
SUBUSR (DDQDA) DECSYSTEM DIAGNOSTICS USER SUBROUTINE PROGRAM, VER 0,14	MACRO %53(1020) 15:25 23-Mar-78 Page 47
SUBUSM	MAC	23-Mar-78 15:02		*SUBRTN* TELETYPE INPUT ROUTINES                                                   SEQ 0318

  2579					S^;*********************************************************************^
  2580					;*CHARACTER PROCESSING ROUTINE FOR INPUT
  2581					;*CHARACTER RETURNED IN AC0 IS UPPER CASE
  2582					;*ACTUAL CHARACTER IS IN $TTCHR
  2583					S^;*********************************************************************^
  2584
  2585	003371	200 00 0 00 030231 	$HEAR4:	MOVE	0,$TTCHR	;GET ACTUAL CHARACTER
  2586	003372	405 00 0 00 000177 		ANDI	0,177		;CLEAR PARITY BIT
  2587	003373	301 00 0 00 000141 		CAIL	0,"A"+40	;CONVERT TO UPPER CASE
  2588	003374	303 00 0 00 000172 		CAILE	0,"Z"+40
  2589	003375	254 00 0 00 003377 		JRST	.+2
  2590	003376	275 00 0 00 000040 		SUBI	0,40
  2591	003377	202 00 0 00 030232 		MOVEM	0,$CHRIN#	;SAVE CHARACTER
  2592	003400	302 00 0 00 000015 		CAIE	0,15		;IS IT CR ?
  2593	003401	254 00 0 00 003416 		JRST	$HEAR3		;NO
  2594	003402	402 00 0 00 005335 		SETZM	$CARCT		;CLEAR CHARACTER COUNTER
  2595	003403	336 00 0 00 030516 		SKIPN	MONTYP
  2596	003404	051 00 0 00 000000 		INCHRW			;TOPS10 FLUSH LF
  2597	003405	332 00 0 00 030516 		SKIPE	MONTYP
  2598	003406	133 00 0 00 005323 		IBP	INUPTR		;GET RID OF LF
  2599	003407	200 00 0 00 030046 		MOVE	0,CONSW
  2600	003410	607 00 0 00 020000 		TLNN	0,PNTLPT	;LPT/LOGICAL DEVICE OUTPUT ?
  2601	003411	254 00 0 00 003413 		JRST	$HEAR2		;NO
  2602	003412	037 00 0 00 030242 		PCRL			;YES-ADD CRLF
  2603	003413	200 00 0 00 030232 	$HEAR2:	MOVE	0,$CHRIN	;PUT INPUT CHAR IN AC0
  2604	003414	350 00 0 17 000000 		AOS	(P)		;SKIP RETURN +2
  2605	003415	263 17 0 00 000000 		RTN			;NORMAL RETURN +1
  2606
  2607	003416	306 00 0 00 000004 	$HEAR3:	CAIN	0,04
  2608	003417	254 00 0 00 002071 		JRST	$DDTENT		;CONTROL D, GO TO DDT
  2609	003420	200 00 0 00 030046 		MOVE	0,CONSW		;GET DATA SWITCHES
  2610	003421	607 00 0 00 020000 		TLNN	0,PNTLPT	;PRINT ON LPT?
  2611	003422	254 00 0 00 003413 		JRST	$HEAR2		;NO-EXIT
  2612	003423	200 00 0 00 030232 		MOVE	0,$CHRIN	;YES
  2613	003424	037 12 0 00 000000 		PNTCHR			;SEND CHAR TO LPT/LOGICAL DEV
  2614	003425	254 00 0 00 003413 		JRST	$HEAR2		;EXIT
SUBUSR (DDQDA) DECSYSTEM DIAGNOSTICS USER SUBROUTINE PROGRAM, VER 0,14	MACRO %53(1020) 15:25 23-Mar-78 Page 48
SUBUSM	MAC	23-Mar-78 15:02		*SUBRTN* TELETYPE  YES/NO TYPE-IN ROUTINE                                          SEQ 0319

  2615					SUBTTL	*SUBRTN* TELETYPE  YES/NO TYPE-IN ROUTINE
  2616
  2617					S^;*********************************************************************^
  2618					;*ACCEPTS Y OR N
  2619					;*FOR YESNO, Y IS SKIP RETURN, N OR NO RESPONSE IS DIRECT RETURN
  2620					;*FOR NOYES, N IS SKIP RETURN, Y OR NO RESPONSE IS DIRECT RETURN
  2621					;*'Y OR N <CR> - ' ASKED UPON ENTRY
  2622					S^;*********************************************************************^
  2623
  2624	003426	201 00 0 00 000001 	$NOYES:	MOVEI	0,1		;INIT FOR N ANSWER
  2625	003427	254 00 0 00 003431 		JRST	.+2
  2626	003430	201 00 0 00 000000 	$YESNO:	MOVEI	0,0		;INIT FOR Y ANSWER
  2627	003431	202 01 0 00 005407 		MOVEM	1,$TACC1#	;SAVE AC'S
  2628	003432	202 02 0 00 005410 		MOVEM	2,$TACC2#
  2629	003433	200 02 0 00 000000 		MOVE	2,0
  2630
  2631	003434				$YN1:	PMSGF	< Y OR N <CR> - >^
  2632	003434	037 04 0 00 005136 		PSIXMF	[SIXBIT\ Y OR N <CR> - _\]^
  2633	003435	260 17 0 00 003301 		GO	$OPTLK
  2634	003436	254 00 0 00 003456 		JRST	$YN2		;NO RESPONSE
  2635	003437	302 00 0 00 000131 		CAIE	0,"Y"		;IS IT A 'Y' ?
  2636	003440	306 00 0 00 000116 		CAIN	0,"N"		;OR AN 'N' ?
  2637	003441	254 00 0 00 003443 		JRST	.+2		;YES
  2638	003442	254 00 0 00 003462 		JRST	$YN3		;NEITHER, ERROR
  2639	003443	200 01 0 00 000000 		MOVE	1,0
  2640	003444	242 01 0 00 000007 		LSH	1,7		;POSITION 1ST CHAR
  2641	003445	260 17 0 00 003301 		GO	$OPTLK
  2642	003446	254 00 0 00 003456 		JRST	$YN2		;NO RESPONSE
  2643	003447	434 01 0 00 000000 		OR	1,0		;MERGE 2ND CHAR
  2644	003450	316 01 0 02 003465 		CAMN	1,$YN4(2)	;COMPARE FOR REQUESTED
  2645	003451	254 00 0 00 003455 		JRST	.+4		;YES, RETURN +2
  2646	003452	316 01 0 02 003466 		CAMN	1,$YN4+1(2)	;COMPARE FOR OPPOSITE
  2647	003453	254 00 0 00 003456 		JRST	.+3		;YES, RETURN +1
  2648	003454	254 00 0 00 003462 		JRST	$YN3		;ERROR, REPEAT
  2649	003455	350 00 0 17 000000 		AOS	(P)		;YES, RETURN +2
  2650	003456	200 02 0 00 005410 	$YN2:	MOVE	2,$TACC2	;RESTORE AC2
  2651	003457	200 00 0 00 000001 		MOVE	0,1
  2652	003460	200 01 0 00 005407 		MOVE	1,$TACC1	;RESTORE AC1
  2653	003461	263 17 0 00 000000 		RTN			;RETURN +1
  2654
  2655	003462	037 01 0 00 030242 	$YN3:	PCRLF
  2656	003463	260 17 0 00 003360 		GO	$TPCLR		;CLEAR INPUT
  2657	003464	254 00 0 00 003434 		JRST	$YN1
  2658
  2659	003465	000000	026215		$YN4:	EXP	26215		;'Y' (CR)
  2660	003466	000000	023415			EXP	23415		;'N' (CR)
  2661	003467	000000	026215			EXP	26215		;'Y' (CR)
SUBUSR (DDQDA) DECSYSTEM DIAGNOSTICS USER SUBROUTINE PROGRAM, VER 0,14	MACRO %53(1020) 15:25 23-Mar-78 Page 49
SUBUSM	MAC	23-Mar-78 15:02		*SUBRTN* TELETYPE OCTAL-DECIMAL-CONVERT TYPE-IN ROUTINE                            SEQ 0320

  2662					SUBTTL	*SUBRTN* TELETYPE OCTAL-DECIMAL-CONVERT TYPE-IN ROUTINE
  2663
  2664					S^;*********************************************************************^
  2665					;*ACCEPTS 0 TO 12 OCTALS, 0 TO 11 DECIMALS, 0 TO 9 CONVERT CHARACTERS
  2666					;*NUMBER RETURNED IN AC0.
  2667					S^;*********************************************************************^
  2668
  2669	003470	201 00 0 00 000002 	$TPCNV:	MOVEI	AC0,2		;SET INDEX TO CONVERT
  2670	003471	254 00 0 00 003475 		JRST	$TPCV1
  2671	003472	201 00 0 00 000001 	$TPDEC:	MOVEI	AC0,1		;SET INDEX TO DECIMAL
  2672	003473	254 00 0 00 003475 		JRST	$TPCV1
  2673	003474	201 00 0 00 000000 	$TPOCT:	MOVEI	AC0,0		;SET INDEX TO OCTAL
  2674
  2675	003475	202 01 0 00 005411 	$TPCV1:	MOVEM	1,$TACD1#	;SAVE AC'S 1-3
  2676	003476	202 02 0 00 005412 		MOVEM	2,$TACD2#
  2677	003477	202 03 0 00 005413 		MOVEM	3,$TACD3#
  2678	003500	200 03 0 00 000000 		MOVE	3,0		;LOAD AC3 WITH THE INDEX
  2679	003501	403 01 0 00 000002 		SETZB	1,2		;CLEAR DATA REG, CHAR COUNTER
  2680	003502	402 00 0 00 030233 		SETZM	$TYPNB#		;CLEAR ERR NUMBER
  2681	003503	402 00 0 00 005356 		SETZM	$NEGF#		;CLEAR NEGATE FLAG
  2682	003504	402 00 0 00 005337 		SETZM	$CNVD#		;CLEAR DECIMAL CONVERT FLAG
  2683	003505	402 00 0 00 030510 		SETZM	TTNBRF		;CLEAR DIGIT TYPED FLAG
  2684
  2685
  2686					;*INPUT AND COMPUTE NUMBER
  2687					S^;*********************************************************************^
  2688
  2689	003506	260 17 0 00 003301 	$TYPLP:	GO	$OPTLK
  2690	003507	254 00 0 00 003545 		JRST	$TPERR		;NO RESPONSE, GO TO ERROR EXIT
  2691	003510	306 00 0 00 000055 		CAIN	0,"-"		;IS IT MINUS ?
  2692	003511	254 00 0 00 003563 		JRST	$NEGX		;YES
  2693	003512	306 00 0 00 000056 		CAIN	0,"."		;IS IT PERIOD ?
  2694	003513	254 00 0 00 003567 		JRST	$CNVX		;YES
  2695	003514	306 00 0 00 000015 		CAIN	0,15		;IS IT CR ?
  2696	003515	254 00 0 00 003531 		JRST	$TPEXT		;YES
  2697	003516	306 00 0 00 000054 		CAIN	0,","		;IS IT COMMA ?
  2698	003517	254 00 0 00 003531 		JRST	$TPEXT		;YES
  2699	003520	301 00 0 00 000060 		CAIL	0,"0"		;A VALID DIGIT ?
  2700	003521	256 00 0 03 003552 		XCT	$TPCK(3)	;YES
  2701	003522	254 00 0 00 003545 		JRST	$TPERR		;NO ...ERROR EXIT
  2702
  2703	003523	476 00 0 00 030510 	$TYPL1:	SETOM	TTNBRF		;SET DIGIT TYPED FLAG
  2704	003524	350 00 0 00 000002 		AOS	2		;INCREMENT CHARACTER COUNTER
  2705	003525	256 00 0 03 003555 		XCT	$TPMUL(3)	;MULT BY OCTAL/DECIMAL BASE, SHIFT CONVERT
  2706	003526	275 00 0 00 000060 		SUBI	60		;ADD IN NEW CHAR
  2707	003527	270 01 0 00 000000 		ADD	1,0
  2708	003530	254 00 0 00 003506 		JRST	$TYPLP		;REPEAT TILL CR OR COMMA
SUBUSR (DDQDA) DECSYSTEM DIAGNOSTICS USER SUBROUTINE PROGRAM, VER 0,14	MACRO %53(1020) 15:25 23-Mar-78 Page 50
SUBUSM	MAC	23-Mar-78 15:02		*SUBRTN* TELETYPE OCTAL-DECIMAL-CONVERT TYPE-IN ROUTINE                            SEQ 0321

  2709					;*CHECK FOR PROPER AMOUNT OF CHARACTERS
  2710					S^;*********************************************************************^
  2711
  2712	003531	256 00 0 03 003560 	$TPEXT:	XCT	$TPNBR(3)	;PROPER NUMBER OF CHARACTERS
  2713	003532	254 00 0 00 003545 		JRST	$TPERR		;NO ...ERROR EXIT
  2714	003533	306 03 0 00 000002 		CAIN	3,2		;CONVERT ? (INDEX = 2)
  2715	003534	254 00 0 00 003573 		JRST	$CNVX1		;YES
  2716									;NO, EXIT
  2717
  2718	003535	200 03 0 00 005413 	$TPEX1:	MOVE	3,$TACD3	;RESTORE AC'S 3 & 2
  2719	003536	200 02 0 00 005412 		MOVE	2,$TACD2
  2720	003537	200 00 0 00 000001 		MOVE	0,1		;PUT NUMBER IN AC0
  2721	003540	332 00 0 00 005356 		SKIPE	$NEGF		;NEGATE ?
  2722	003541	210 00 0 00 000001 		MOVN	0,1		;YES
  2723	003542	200 01 0 00 005411 		MOVE	1,$TACD1	;RESTORE AC1
  2724	003543	350 00 0 17 000000 		AOS	(P)		;RETURN +2
  2725	003544	263 17 0 00 000000 		RTN			;RETURN +1
  2726
  2727	003545	202 01 0 00 030233 	$TPERR:	MOVEM	1,$TYPNB	;SAVE NUMBER - ERROR EXIT
  2728	003546	200 03 0 00 005413 		MOVE	3,$TACD3	;RESTORE AC'S
  2729	003547	200 02 0 00 005412 		MOVE	2,$TACD2
  2730	003550	200 01 0 00 005411 		MOVE	1,$TACD1
  2731	003551	263 17 0 00 000000 		RTN			;ERROR EXIT )
  2732
  2733
  2734					;*NUMBER COMPUTING CONSTANTS
  2735					S^;*********************************************************************^
  2736
  2737	003552	303 00 0 00 000067 	$TPCK:	CAILE	0,"7"		;OCTAL NUMBER CHECK
  2738	003553	303 00 0 00 000071 		CAILE	0,"9"		;DECIMAL NUMBER CHECK
  2739	003554	303 00 0 00 000071 		CAILE	0,"9"		;CONVERT NUMBER CHECK
  2740	003555	242 01 0 00 000003 	$TPMUL:	LSH	1,3		;OCTAL BASE SHIFT
  2741	003556	221 01 0 00 000012 		IMULI	1,^D10		;DECIMAL BASE MULTIPLIER
  2742	003557	242 01 0 00 000004 		LSH	1,4		;CONVERT SHIFT
  2743	003560	303 02 0 00 000014 	$TPNBR:	CAILE	2,^D12		;ACCEPT UP TO 12 OCTALS
  2744	003561	303 02 0 00 000013 		CAILE	2,^D11		;ACCEPT UP TO 11 DECIMALS
  2745	003562	303 02 0 00 000011 		CAILE	2,^D9		;ACCEPT UP TO 9 CONVERT
SUBUSR (DDQDA) DECSYSTEM DIAGNOSTICS USER SUBROUTINE PROGRAM, VER 0,14	MACRO %53(1020) 15:25 23-Mar-78 Page 51
SUBUSM	MAC	23-Mar-78 15:02		*SUBRTN* TELETYPE OCTAL-DECIMAL-CONVERT TYPE-IN ROUTINE                            SEQ 0322

  2746	003563	332 00 0 00 000002 	$NEGX:	SKIPE	2		;1ST CHAR ?
  2747	003564	254 00 0 00 003545 		JRST	$TPERR		;NO, ERROR EXIT )
  2748	003565	476 00 0 00 005356 		SETOM	$NEGF		;YES, SET NEGATE FLAG
  2749	003566	254 00 0 00 003506 		JRST	$TYPLP		;GET NEXT CHAR
  2750
  2751	003567	302 03 0 00 000002 	$CNVX:	CAIE	3,2		;PERIOD, IN CONVERT ?
  2752	003570	254 00 0 00 003545 		JRST	$TPERR		;NO, ERROR EXIT )
  2753	003571	476 00 0 00 005337 		SETOM	$CNVD		;YES, SET DECIMAL FLAG
  2754	003572	254 00 0 00 003506 		JRST	$TYPLP		;GET NEXT CHAR
  2755
  2756
  2757					;*CONVERT CONVERSION ROUTINE
  2758					S^;*********************************************************************^
  2759
  2760	003573	201 02 0 00 000011 	$CNVX1:	MOVEI	2,^D9		;NINE DIGITS
  2761	003574	402 00 0 00 000000 		SETZM	0
  2762	003575	332 00 0 00 005337 		SKIPE	$CNVD		;OCTAL OR DECIMAL ?
  2763	003576	254 00 0 00 003606 		JRST	$CNVX2		;DECIMAL
  2764	003577	612 01 0 00 005141 		TDNE	1,[421042104210]	;OCTAL
  2765	003600	254 00 0 00 003545 		JRST	$TPERR		;OCTAL ERROR, 8 OR 9 INPUT
  2766	003601	242 01 0 00 000001 		LSH	1,1		;SQUEEZE OUT 4TH BIT
  2767	003602	246 00 0 00 000003 		LSHC	0,3		;COMPACT INTO OCTAL
  2768	003603	366 02 0 00 003601 		SOJN	2,.-2		;COMPLETED ?
  2769	003604	200 01 0 00 000000 		MOVE	1,0		;YES
  2770	003605	254 00 0 00 003535 		JRST	$TPEX1		;RETURN
  2771
  2772	003606	402 00 0 00 000003 	$CNVX2:	SETZM	3		;DECIMAL
  2773	003607	402 00 0 00 000000 		SETZM	0
  2774	003610	221 03 0 00 000012 		IMULI	3,^D10		;MULTIPLY BY DECIMAL BASE
  2775	003611	246 00 0 00 000004 		LSHC	0,4		;UNPACK NEXT DIGIT
  2776	003612	270 03 0 00 000000 		ADD	3,0		;ADD IN
  2777	003613	366 02 0 00 003607 		SOJN	2,.-4		;COMPLETED ?
  2778	003614	200 01 0 00 000003 		MOVE	1,3		;YES
  2779	003615	254 00 0 00 003535 		JRST	$TPEX1		;RETURN )
  2780
SUBUSR (DDQDA) DECSYSTEM DIAGNOSTICS USER SUBROUTINE PROGRAM, VER 0,14	MACRO %53(1020) 15:25 23-Mar-78 Page 52
SUBUSM	MAC	23-Mar-78 15:02		*SUBRTN*  TELETYPE SIXBIT INPUT ROUTINE                                            SEQ 0323

  2781					SUBTTL	*SUBRTN*  TELETYPE SIXBIT INPUT ROUTINE
  2782
  2783					S^;*********************************************************************^
  2784					;*INPUTS UP TO SIX CHARACTERS, TERMINATES WITH A CR OR COMMA.
  2785					;*SIXBIT WORD RETURNED IN AC0
  2786					S^;*********************************************************************^
  2787
  2788	003616	202 01 0 00 005414 	$TISIX:	MOVEM	1,$TSX1#	;SAVE AC'S
  2789	003617	202 02 0 00 005415 		MOVEM	2,$TSX2#
  2790	003620	200 02 0 00 005142 		MOVE	2,[POINT 6,1]
  2791	003621	201 01 0 00 000000 		MOVEI	1,0
  2792
  2793	003622	260 17 0 00 003301 	$TSXB1:	GO	$OPTLK
  2794	003623	254 00 0 00 003645 		JRST	$TSXB3		;NO RESPONSE, RTN + 1
  2795	003624	306 00 0 00 000015 		CAIN	0,15
  2796	003625	254 00 0 00 003644 		JRST	$TSXB2		;CR, TERMINATE, RTN + 2
  2797	003626	306 00 0 00 000054 		CAIN	0,","
  2798	003627	254 00 0 00 003644 		JRST	$TSXB2		;COMMA, TERMINATE, RTN + 2
  2799	003630	301 00 0 00 000060 		CAIL	0,"0"
  2800	003631	303 00 0 00 000132 		CAILE	0,"Z"
  2801	003632	254 00 0 00 003645 		JRST	$TSXB3		;ERROR, RTN + 1
  2802	003633	303 00 0 00 000071 		CAILE	0,"9"
  2803	003634	301 00 0 00 000101 		CAIL	0,"A"
  2804	003635	254 00 0 00 003637 		JRST	$TSXB4		;ALPHA-NUMERIC
  2805	003636	254 00 0 00 003645 		JRST	$TSXB3		;ERROR, RTN + 1
  2806
  2807	003637	640 00 0 00 000040 	$TSXB4:	TRC	0,40		;CONVERT TO SIX-BIT
  2808	003640	602 01 0 00 000077 		TRNE	1,77
  2809	003641	254 00 0 00 003645 		JRST	$TSXB3		;TOO MANY CHAR'S, RTN + 1
  2810	003642	136 00 0 00 000002 		IDPB	0,2		;PUT INTO WORD
  2811	003643	254 00 0 00 003622 		JRST	$TSXB1		;GET NEXT CHARACTER
  2812
  2813	003644	350 00 0 17 000000 	$TSXB2:	AOS	(P)		;INCR USRPC FOR RTN + 2 (NORMAL)
  2814
  2815	003645	200 00 0 00 000001 	$TSXB3:	MOVE	0,1		;SIXBIT WORD IN AC0
  2816	003646	200 01 0 00 005414 		MOVE	1,$TSX1		;RESTORE AC'S
  2817	003647	200 02 0 00 005415 		MOVE	2,$TSX2
  2818	003650	263 17 0 00 000000 		RTN			;EXIT + 1/+2
SUBUSR (DDQDA) DECSYSTEM DIAGNOSTICS USER SUBROUTINE PROGRAM, VER 0,14	MACRO %53(1020) 15:25 23-Mar-78 Page 53
SUBUSM	MAC	23-Mar-78 15:02		*SUBRTN* PRINT SUBROUTINES                                                         SEQ 0324

  2819					SUBTTL	*SUBRTN* PRINT SUBROUTINES
  2820
  2821					S^;*********************************************************************^
  2822					;*	$PNTSX		PRINT SIXBIT NORMAL
  2823					;*	$PTSXF		PRINT SIXBIT FORCED
  2824					;*	$PNTCW		PRINT DF10 CONTROL WORD
  2825					;*	$PNTI1		PRINT OCTAL NUMBER
  2826					;*	$CHRPN		PRINT CHARACTER
  2827					;*	$ASCPN		PRINT ASCII CHARACTER/LINE
  2828					;*	$DECPN		PRINT DECIMAL NUMBER
  2829					S^;*********************************************************************^
  2830
  2831					S^;*********************************************************************^
  2832					;*PRINT SUBROUTINE INITIALIZATION
  2833					;*INITIALIZES CONTROL WORDS, AND TTY IF IN USER MODE
  2834					S^;*********************************************************************^
  2835
  2836	003651	402 00 0 00 005344 	$PNTIN:	SETZM	$INTDF#		;CLEAR DEVICE DEFAULT FLAG
  2837	003652	402 00 0 00 030226 		SETZM	$DVOFF#		;CLEAR DEVICE INITED FLAG
  2838	003653	402 00 0 00 030221 		SETZM	PDISF#		;CLEAR PRINT DISABLED FLAG
  2839	003654	402 00 0 00 005400 		SETZM	$PTINH#		;CLEAR PRINT 'TYPE-IN INHIBIT' FLAG
  2840	003655	402 00 0 00 030222 		SETZM	PNTINH#		;ALLOW EXEC PRINT TYPE IN INHIBIT
  2841	003656	402 00 0 00 005324 		SETZM	XOFFLAG#	;CLEAR XOFF FLAG
  2842	003657	402 00 0 00 030217 		SETZM	PNTFLG#		;CLEAR IN PRINT FLAG
  2843	003660	476 00 0 00 030223 		SETOM	PNTSPC#		;SET PRINT SPACE FLAG
  2844	003661	211 00 0 00 011610 		MOVNI	0,^D5000	;SET PRINT ENABLE TO 5000 LINES
  2845	003662	202 00 0 00 030220 		MOVEM	0,PNTENB
  2846	003663	402 00 0 00 030227 		SETZM	TTYFIL		;ALLOW EXEC FILLERS
  2847	003664	402 00 0 00 030234 		SETZM	$CRLF#		;ALLOW FREE CR/LF
  2848	003665	402 00 0 00 030235 		SETZM	$TABF		;ALLOW TAB CONVERSION
  2849	003666	402 00 0 00 030236 		SETZM	$FFF		;ALLOW FORM FEED CONVERSION
  2850	003667	402 00 0 00 030237 		SETZM	$VTF		;ALLOW VERTICAL TAB CONVERSION
  2851
  2852	003670	336 00 0 00 030516 		SKIPN	MONTYP
  2853	003671	254 00 0 00 003677 		JRST	$PNTIX
  2854	003672	201 01 0 00 000101 		movei	1,.priou
  2855	003673	104 00 0 00 000107 		rfmod			;don't translate print output
  2856	003674	620 02 0 00 000300 		trz	2,tt%dam
  2857	003675	660 02 0 00 000300 		tro	2,3b29
  2858	003676	104 00 0 00 000110 		sfmod
  2859
  2860	003677	201 00 0 00 030006 	$PNTIX:	MOVEI	REENTR		;SETUP REENTER ADDRESS
  2861	003700	202 00 0 00 000124 		MOVEM	JOBREN
  2862	003701	335 00 0 00 030043 		SKIPGE	MONCTL		;MONITOR CONTROL ?
  2863	003702	263 17 0 00 000000 		RTN			;YES, DON'T PRINT TITLE
  2864	003703	332 00 0 00 030056 		SKIPE	$ONETM		;FIRST TIME?
  2865	003704	263 17 0 00 000000 		RTN			;NO .....EXIT
  2866	003705	254 00 0 00 002101 		JRST	$PNTNM+2	;YES ...PRINT PROGRAM NAME
  2867									;AND EXIT
SUBUSR (DDQDA) DECSYSTEM DIAGNOSTICS USER SUBROUTINE PROGRAM, VER 0,14	MACRO %53(1020) 15:25 23-Mar-78 Page 54
SUBUSM	MAC	23-Mar-78 15:02		*SUBRTN* PRINT SUBROUTINES                                                         SEQ 0325

  2868					S^;*********************************************************************^
  2869					;*PRINT SUBROUTINE ENTRY POINT
  2870					;*EXIT VIA $PNTI4 BELOW
  2871					S^;*********************************************************************^
  2872
  2873	003706	476 00 0 00 030217 	$PNTIF:	SETOM	PNTFLG		;SET IN PRINT FLAG
  2874	003707	476 00 0 00 005373 		SETOM	$PNTTY#		;FORCE TO TTY
  2875	003710	402 00 0 00 005400 		SETZM	$PTINH
  2876	003711	260 17 0 00 003724 		GO	$PCLRO		;CLEAR CONTROL 0 & INPUT BUFFER
  2877	003712	254 00 0 00 003767 		JRST	$PNTIA
  2878
  2879	003713	476 00 0 00 030217 	$PNTIT:	SETOM	PNTFLG		;SET IN PRINT FLAG
  2880	003714	402 00 0 00 005373 		SETZM	$PNTTY		;NOT FORCED TO TTY
  2881	003715	331 00 0 00 030220 		SKIPL	PNTENB#		;PRINT LIMIT REACHED YET?
  2882	003716	254 00 0 00 003753 		JRST	$PNTIB		;YES ..DON'T PRINT
  2883	003717	260 17 0 00 002747 		GO	$SWTCH		;READ DATA SWITCHES INTO AC0
  2884	003720	607 00 0 00 040000 		TLNN	0,NOPNT		;NO PRINT SWITCH SET?
  2885	003721	254 00 0 00 003767 		JRST	$PNTIA
  2886	003722	262 17 0 00 000000 		GET	AC0		;YES ...RESTORE AC0 FROM STACK (P - 1)
  2887	003723	254 00 0 00 003751 		JRST	$PRNTX		;EXIT, DON'T PRINT
  2888
  2889	003724	332 00 0 00 030516 	$PCLRO:	SKIPE	MONTYP
  2890	003725	254 00 0 00 003731 		JRST	.+4
  2891	003726	051 13 0 00 000000 		TTCALL	13,0		;TOPS10 CLEAR CONTROL O
  2892	003727	255 00 0 00 000000 		JFCL
  2893	003730	263 17 0 00 000000 		RTN
  2894	003731	261 17 0 00 000001 		PUT	1
  2895	003732	261 17 0 00 000002 		PUT	2
  2896	003733	201 01 0 00 000101 		MOVEI	1,.PRIOU
  2897	003734	104 00 0 00 000107 		RFMOD
  2898	003735	621 02 0 00 400000 		TLZ	2,(TT%OSP)	;CLEAR CONTROL O
  2899	003736	104 00 0 00 000110 		SFMOD
  2900	003737	262 17 0 00 000002 		GET	2
  2901	003740	262 17 0 00 000001 		GET	1
  2902	003741	402 00 0 00 005323 		SETZM	INUPTR		;CLEAR TTY INPUT BUFFER
  2903	003742	263 17 0 00 000000 		RTN
SUBUSR (DDQDA) DECSYSTEM DIAGNOSTICS USER SUBROUTINE PROGRAM, VER 0,14	MACRO %53(1020) 15:25 23-Mar-78 Page 55
SUBUSM	MAC	23-Mar-78 15:02		*SUBRTN* PRINT SUBROUTINES                                                         SEQ 0326

  2904					;*PRINT ROUTINE EXIT
  2905					S^;*********************************************************************^
  2906
  2907	003743	402 00 0 00 005373 	$PNTI4:	SETZM	$PNTTY		;CLEAR FORCE TO TTY FLAG
  2908
  2909	003744	200 01 0 00 005357 		MOVE	1,$PACA1	;RESTORE AC'S
  2910	003745	200 02 0 00 005360 		MOVE	2,$PACA2
  2911	003746	200 03 0 00 005361 		MOVE	3,$PACA3
  2912	003747	200 04 0 00 005362 		MOVE	4,$PACA4
  2913	003750	200 05 0 00 005363 		MOVE	5,$PACA5
  2914	003751	402 00 0 00 030217 	$PRNTX:	SETZM	PNTFLG		;CLEAR IN PRINT FLAG
  2915	003752	263 17 0 00 000000 		RTN			;RETURN
  2916
  2917					;*PRINT LIMIT WARNING & ALTERNATE EXIT PATH
  2918					S^;*********************************************************************^
  2919
  2920	003753	262 17 0 00 000000 	$PNTIB:	GET	AC0		;RESTORE THE STACK (P - 1)
  2921	003754	332 00 0 00 030221 		SKIPE	PDISF#		;FIRST TIME PRINT DISABLED?
  2922	003755	254 00 0 00 003751 		JRST	$PRNTX		;YES	...EXIT )
  2923
  2924	003756	476 00 0 00 030221 	$PNTB1:	SETOM	PDISF		;NO ........SET IT
  2925	003757	202 01 0 00 005357 		MOVEM	1,$PACA1	;SAVE AC'S 1 - 5
  2926	003760	202 02 0 00 005360 		MOVEM	2,$PACA2
  2927	003761	202 03 0 00 005361 		MOVEM	3,$PACA3
  2928	003762	202 04 0 00 005362 		MOVEM	4,$PACA4
  2929	003763	202 05 0 00 005363 		MOVEM	5,$PACA5
  2930	003764	476 00 0 00 005373 		SETOM	$PNTTY		;SET FORCE TO TTY FLAG
  2931						MOVEI	[ASCIZ/
  2932					******
  2933					EXCEEDED ALLOWED PRINTOUTS
  2934	003765	201 00 0 00 005143 	/]
  2935	003766	254 00 0 00 004240 		JRST	$ASCPN-1	;PRINT THE WARNING & EXIT
SUBUSR (DDQDA) DECSYSTEM DIAGNOSTICS USER SUBROUTINE PROGRAM, VER 0,14	MACRO %53(1020) 15:25 23-Mar-78 Page 56
SUBUSM	MAC	23-Mar-78 15:02		*SUBRTN* PRINT SUBROUTINES                                                         SEQ 0327

  2936					S^;*********************************************************************^
  2937					;*PRINT ROUTINE SELECTOR
  2938					;*BASED ON "AC FIELD" = 12 - 17
  2939					S^;*********************************************************************^
  2940
  2941	003767	202 01 0 00 005357 	$PNTIA:	MOVEM	1,$PACA1#	;SAVE AC1.
  2942	003770	202 02 0 00 005360 		MOVEM	2,$PACA2#	;SAVE AC2.
  2943	003771	202 03 0 00 005361 		MOVEM	3,$PACA3#	;SAVE AC3.
  2944	003772	202 04 0 00 005362 		MOVEM	4,$PACA4#	;SAVE AC4.
  2945	003773	202 05 0 00 005363 		MOVEM	5,$PACA5#	;SAVE AC5.
  2946	003774	262 17 0 00 000000 		GET	AC0		;RESTORE AC0 FROM STACK (P - 1)
  2947	003775	402 00 0 00 005371 		SETZM	$PNT#		;CLEAR PRINT HALF WORDS FLAG
  2948	003776	200 02 0 00 000040 		MOVE	2,LUUO
  2949	003777	241 02 0 00 000015 		ROT	2,15		;GET X (AC FIELD)
  2950	004000	405 02 0 00 000017 		ANDI	2,17		;OUT OF THE UUO
  2951
  2952	004001	306 02 0 00 000017 	$PNTIC:	CAIN	2,17		;X=17?
  2953	004002	254 00 0 00 004240 		JRST	$PNTLN		;YES. PRINT ASCII LINE
  2954	004003	322 02 0 00 004241 		JUMPE	2,$ASCPN	;X=0? YES. GO PRINT 1 WORD ASCII
  2955	004004	306 02 0 00 000015 		CAIN	2,15		;X=15?
  2956	004005	254 00 0 00 004256 		JRST	$DECPN		;YES, PRINT DECIMALS )
  2957	004006	306 02 0 00 000016 		CAIN	2,16		;X=16?
  2958	004007	254 00 0 00 004255 		JRST	$DECSP		;YES, PRINT DECIMALS, LEADING SPACES
  2959	004010	306 02 0 00 000013 		CAIN	2,13		;X=13?
  2960	004011	254 00 0 00 004226 		JRST	$PNTI3		;YES, PRINT OCTALS, 6 SP 6
  2961	004012	306 02 0 00 000012 		CAIN	2,12		;X=12?
  2962	004013	254 00 0 00 004234 		JRST	$CHRPN		;YES, PRINT CHARACTER )
  2963
  2964	004014	254 00 0 00 004204 		JRST	$PNTI1		;NONE OF THE ABOVE, PRINT OCTAL
  2965									;(AC FIELD <12 OR = TO 14)
SUBUSR (DDQDA) DECSYSTEM DIAGNOSTICS USER SUBROUTINE PROGRAM, VER 0,14	MACRO %53(1020) 15:25 23-Mar-78 Page 57
SUBUSM	MAC	23-Mar-78 15:02		*SUBRTN* PRINT SUBROUTINES                                                         SEQ 0328

  2966					S^;*********************************************************************^
  2967					;*SIXBIT PRINT SUBROUTINE
  2968					;*PRINTS SIXBIT WORD IN AC0
  2969					S^;*********************************************************************^
  2970
  2971					;*NORMAL PRINTOUT
  2972					S^;*********************************************************************^
  2973
  2974	004015	261 17 0 00 000001 	$PNTSX:	PUT	1		;SAVE AC1 ON STACK (P + 1)
  2975	004016	200 01 0 00 000000 		MOVE	1,0		;PUT SIXBIT WORD IN AC1
  2976	004017	201 00 0 00 000000 		MOVEI	0,0
  2977	004020	246 00 0 00 000006 		LSHC	0,6		;GET NEXT CHAR INTO AC0
  2978	004021	271 00 0 00 000040 		ADDI	0,40		;CONVERT TO ASCII
  2979	004022	037 12 0 00 000000 		PNTCHR			;PRINT IT
  2980	004023	326 01 0 00 004017 		JUMPN	1,.-4		;LOOP TILL ALL PRINTED
  2981	004024	262 17 0 00 000001 		GET	1		;RESTORE AC1 FROM THE STACK (P - 1)
  2982	004025	263 17 0 00 000000 		RTN			;EXIT
  2983
  2984					;*FORCED PRINTOUT
  2985					S^;*********************************************************************^
  2986
  2987	004026	261 17 0 00 000001 	$PTSXF:	PUT	1		;SAVE AC1 ON THE STACK (P + 1)
  2988	004027	200 01 0 00 000000 		MOVE	1,0		;PUT SIXBIT WORD IN AC1
  2989	004030	201 00 0 00 000000 		MOVEI	0,0
  2990	004031	246 00 0 00 000006 		LSHC	0,6		;GET NEXT CHAR INTO AC0
  2991	004032	271 00 0 00 000040 		ADDI	0,40		;CONVERT TO ASCII
  2992	004033	037 12 0 00 000001 		PNTCHF			;PRINT
  2993	004034	326 01 0 00 004030 		JUMPN	1,.-4		;LOOP TILL ALL PRINTED
  2994	004035	262 17 0 00 000001 		GET	1		;FROM THE STACK (P - 1)
  2995	004036	263 17 0 00 000000 		RTN			;EXIT
SUBUSR (DDQDA) DECSYSTEM DIAGNOSTICS USER SUBROUTINE PROGRAM, VER 0,14	MACRO %53(1020) 15:25 23-Mar-78 Page 58
SUBUSM	MAC	23-Mar-78 15:02		*SUBRTN* PRINT SUBROUTINES                                                         SEQ 0329

  2996					S^;*********************************************************************^
  2997					;*SIXBIT MESSAGE PRINT ROUTINE
  2998					;*PRINTS THE SIXBIT MESSAGE THOSE ADDRESS IS IN AC0
  2999					;*"BACKARROW" (77) SIGNIFIES END OF TEXT
  3000					;*"UPARROW" (76) SIGNIFIES CR/LF
  3001					;*"RIGHT SQUARE BRACKET" (75) SIGNIFIES TAB
  3002					S^;*********************************************************************^
  3003
  3004	004037	261 17 0 00 000005 	$PSIXF:	PUT	5
  3005	004040	474 05 0 00 000000 		SETO	5,		;SET FORCED PRINTING FLAG
  3006	004041	254 00 0 00 004044 		JRST	.+3
  3007
  3008	004042	261 17 0 00 000005 	$PSIX:	PUT	5
  3009	004043	400 05 0 00 000000 		SETZ	5,		;NORMAL PRINTING
  3010	004044	261 17 0 00 000001 		PUT	1
  3011	004045	261 17 0 00 000002 		PUT	2
  3012	004046	261 17 0 00 000003 		PUT	3
  3013	004047	261 17 0 00 000004 		PUT	4
  3014
  3015	004050	550 04 0 00 000000 		HRRZ	4,0		;MESSAGE ADDRESS TO AC4
  3016
  3017	004051	201 03 0 00 000006 	$PSIX1:	MOVEI	3,6		;6 = NUM OF 6BIT CHAR PER WORD
  3018	004052	200 01 0 04 000000 		MOVE	1,(4)		;GET FIRST/NEXT WORD OF MESSAGE
  3019
  3020	004053	400 02 0 00 000000 	$PSIX2:	SETZ	2,
  3021	004054	245 01 0 00 000006 		ROTC	1,6		;C(AC1) = CHAR TO BE PRINTED
  3022	004055	306 02 0 00 000077 		CAIN	2,77
  3023	004056	254 00 0 00 004073 		JRST	$PSIX5		;"BACKARROW", DONE
  3024	004057	306 02 0 00 000076 		CAIN	2,76
  3025	004060	254 00 0 00 004070 		JRST	$PSIX4		;"UPARROW", CR/LF
  3026	004061	306 02 0 00 000075 		CAIN	2,75
  3027	004062	201 02 0 00 000151 		MOVEI	2,151		;"BRACKET", CHANGE TO TAB (151+40=11)
  3028	004063	201 00 0 02 000040 		MOVEI	0,40(2)		;CHANGE TO ASCII
  3029						JUMPN	5,[PNTCHF
  3030	004064	326 05 0 00 005153 			JRST	.+2]	;FORCED PRINT
  3031	004065	037 12 0 00 000000 		PNTCHR
  3032	004066	366 03 0 00 004053 	$PSIX3:	SOJN	3,$PSIX2	;PRINTED ALL CHARS FROM THIS WORD ?
  3033	004067	344 04 0 00 004051 		AOJA	4,$PSIX1	;YES, DO NEXT WORD
  3034
  3035					$PSIX4:	JUMPN	5,[PCRLF
  3036	004070	326 05 0 00 005155 			JRST	.+2]
  3037	004071	037 00 0 00 030242 		PCRL			;PRINT CR/LF
  3038	004072	254 00 0 00 004066 		JRST	$PSIX3
  3039
  3040	004073	262 17 0 00 000004 	$PSIX5:	GET	4
  3041	004074	262 17 0 00 000003 		GET	3
  3042	004075	262 17 0 00 000002 		GET	2
  3043	004076	262 17 0 00 000001 		GET	1
  3044	004077	262 17 0 00 000005 		GET	5
  3045	004100	263 17 0 00 000000 		RTN
SUBUSR (DDQDA) DECSYSTEM DIAGNOSTICS USER SUBROUTINE PROGRAM, VER 0,14	MACRO %53(1020) 15:25 23-Mar-78 Page 59
SUBUSM	MAC	23-Mar-78 15:02		*SUBRTN* PRINT SUBROUTINES                                                         SEQ 0330

  3046					S^;*********************************************************************^
  3047					;*OCTAL SUPPRESS LEADING ZEROS PRINT ROUTINE
  3048					;*PRINTS NUMBER IN AC0, SUPPRESSING LEADING ZEROS
  3049					;*PRINTS MINUS SIGN IF NUMBER IS NEGATIVE
  3050					S^;*********************************************************************^
  3051
  3052	004101	261 17 0 00 000005 	$POCSF:	PUT	5
  3053	004102	474 05 0 00 000000 		SETO	5,		;FORCED PRINTOUT
  3054	004103	254 00 0 00 004106 		JRST	.+3
  3055
  3056	004104	261 17 0 00 000005 	$POCS:	PUT	5
  3057	004105	400 05 0 00 000000 		SETZ	5,		;NORMAL PRINTOUT
  3058	004106	261 17 0 00 000001 		PUT	1
  3059	004107	261 17 0 00 000002 		PUT	2
  3060	004110	261 17 0 00 000003 		PUT	3
  3061	004111	261 17 0 00 000004 		PUT	4
  3062
  3063	004112	200 02 0 00 000000 		MOVE	2,0
  3064	004113	325 02 0 00 004120 		JUMPGE	2,$POCS1	;IS NUMBER NEGATIVE ?
  3065	004114	201 00 0 00 000055 		MOVEI	"-"
  3066						JUMPN	5,[PNTCHF
  3067	004115	326 05 0 00 005157 			JRST	.+2]
  3068	004116	037 12 0 00 000000 		PNTCHR			;YES, PRINT MINUS SIGN
  3069	004117	210 02 0 00 000002 		MOVN	2,2		;MAKE NUMBER POSITIVE
  3070
  3071	004120	400 04 0 00 000000 	$POCS1:	SETZ	4,
  3072	004121	403 03 0 00 000001 		SETZB	3,1
  3073	004122	322 02 0 00 004130 		JUMPE	2,$POCS3	;IF NUMBER 0, PRINT 1 ZERO
  3074
  3075	004123	201 03 0 00 000014 		MOVEI	3,^D12		;PRINT UP TO 12 DIGITS
  3076	004124	400 01 0 00 000000 	$POCS2:	SETZ	1,
  3077	004125	246 01 0 00 000003 		LSHC	1,3
  3078	004126	322 01 0 00 004142 		JUMPE	1,$POCS5	;IS THIS DIGIT ZERO ?
  3079	004127	474 04 0 00 000000 		SETO	4,		;NO, SET NON-ZERO DIGIT FLAG
  3080	004130	201 00 0 01 000060 	$POCS3:	MOVEI	"0"(1)		;MAKE ASCII NUMBER
  3081						JUMPN	5,[PNTCHF
  3082	004131	326 05 0 00 005161 			JRST	.+2]
  3083	004132	037 12 0 00 000000 		PNTCHR			;PRINT DIGIT
  3084
  3085	004133	367 03 0 00 004124 	$POCS4:	SOJG	3,$POCS2	;ALL DONE ?
  3086	004134	262 17 0 00 000004 		GET	4
  3087	004135	262 17 0 00 000003 		GET	3
  3088	004136	262 17 0 00 000002 		GET	2
  3089	004137	262 17 0 00 000001 		GET	1
  3090	004140	262 17 0 00 000005 		GET	5
  3091	004141	263 17 0 00 000000 		RTN
  3092
  3093	004142	322 04 0 00 004133 	$POCS5:	JUMPE	4,$POCS4	;PRINTED NON-ZERO DIGIT ?
  3094	004143	254 00 0 00 004130 		JRST	$POCS3		;YES, PRINT ZEROS
SUBUSR (DDQDA) DECSYSTEM DIAGNOSTICS USER SUBROUTINE PROGRAM, VER 0,14	MACRO %53(1020) 15:25 23-Mar-78 Page 60
SUBUSM	MAC	23-Mar-78 15:02		*SUBRTN* PRINT SUBROUTINES                                                         SEQ 0331

  3095					S^;*********************************************************************^
  3096					;*DF10 CONTROL WORD PRINT ROUTINE
  3097					;*PRINTS WORD IN AC0
  3098					;*DF22F = 0, ######  ######  ,18 BIT DF10
  3099					;*       -1, ##### ########  ,22 BIT DF10
  3100					S^;*********************************************************************^
  3101
  3102	004144	202 01 0 00 005376 	$PNTCW:	MOVEM	1,$PTCA#	;SAVE AC1
  3103	004145	201 01 0 00 000000 		MOVEI	1,0		;NORMAL PRINTOUT
  3104	004146	202 02 0 00 005377 		MOVEM	2,$PTCB#	;SAVE AC2
  3105	004147	200 02 0 00 000000 		MOVE	2,0
  3106	004150	336 00 0 00 030142 		SKIPN	DF22F#		;22 OR 18 BIT DF10 ?
  3107	004151	254 00 0 00 004165 		JRST	$PNTC2
  3108	004152	242 00 0 00 777753 		LSH	0,-^D21		;NEW 22 BIT DF10
  3109	004153	620 00 0 00 000001 		TRZ	0,1
  3110						JUMPN	1,[PNT5F
  3111	004154	326 01 0 00 005163 			JRST .+2]
  3112	004155	037 05 0 00 000000 		PNT5			;PRINT WORD COUNT, 14 BITS
  3113	004156	200 00 0 00 000002 		MOVE	0,2
  3114	004157	621 00 0 00 777760 		TLZ	0,777760
  3115						JUMPN	1,[PNTADF
  3116	004160	326 01 0 00 005165 			JRST .+2]
  3117	004161	037 10 0 00 000000 		PNTADR			;PRINT ADDRESS, 22 BITS
  3118	004162	200 02 0 00 005377 	$PNTC3:	MOVE	2,$PTCB
  3119	004163	200 01 0 00 005376 		MOVE	1,$PTCA
  3120	004164	263 17 0 00 000000 		RTN			;EXIT
  3121
  3122	004165	554 00 0 00 000000 	$PNTC2:	HLRZ			;18 BIT DF10
  3123						JUMPN	1,[PNT6F
  3124	004166	326 01 0 00 005167 			JRST .+2]
  3125	004167	037 06 0 00 000000 		PNT6			;PRINT WORD COUNT, 18 BITS
  3126	004170	201 00 0 00 000040 		MOVEI	40
  3127						JUMPN	1,[PNTCHF
  3128	004171	326 01 0 00 005171 			JRST .+2]
  3129	004172	037 12 0 00 000000 		PNTCHR			;EXTRA SPACE
  3130	004173	550 00 0 00 000002 		HRRZ	0,2
  3131						JUMPN	1,[PNT6F
  3132	004174	326 01 0 00 005173 			JRST .+2]
  3133	004175	037 06 0 00 000000 		PNT6			;PRINT ADDRESS, 18 BITS
  3134	004176	254 00 0 00 004162 		JRST	$PNTC3
  3135
  3136	004177	202 01 0 00 005376 	$PNTCF:	MOVEM	1,$PTCA		;SAVE AC1
  3137									;FORCED PRINTOUT
  3138	004200	200 01 0 00 004177 		MOVE	1,$PNTCF
  3139	004201	202 01 0 00 004144 		MOVEM	1,$PNTCW	;SETUP RETURN
  3140	004202	201 01 0 00 000001 		MOVEI	1,1		;FORCED PRINT INDEX
  3141	004203	254 00 0 00 004146 		JRST	$PNTCW+2	;REST AS ABOVE
SUBUSR (DDQDA) DECSYSTEM DIAGNOSTICS USER SUBROUTINE PROGRAM, VER 0,14	MACRO %53(1020) 15:25 23-Mar-78 Page 61
SUBUSM	MAC	23-Mar-78 15:02		*SUBRTN* PRINT SUBROUTINES                                                         SEQ 0332

  3142					S^;*********************************************************************^
  3143					;*OCTAL PRINTOUT ROUTINE
  3144					;*PRINTS NUMBER IN AC0
  3145					S^;*********************************************************************^
  3146
  3147	004204	200 03 0 00 000002 	$PNTI1:	MOVE	3,2		;MOVE X INTO AC3.
  3148	004205	241 00 0 00 777775 		ROT	0,-3		;ROT OCTAL NUM 3 PLACES
  3149	004206	366 03 0 00 004205 		SOJN	3,.-1		;X AMOUNT OF TIMES.
  3150
  3151	004207	201 01 0 00 000006 	$PNTI2:	MOVEI	1,6		;PUT 6 INTO AC1 SO THAT
  3152	004210	245 00 0 00 000003 		ROTC	0,3		;C(AC1) AFTER THE ROTC WILL BE 60
  3153	004211	265 03 0 00 004306 		JSP	3,$TOUT		;PLUS NUMBER TO BE PRINTED
  3154	004212	366 02 0 00 004207 		SOJN	2,$PNTI2	;SUB 1 FROM X...PRINT UNTIL X=0.
  3155	004213	202 01 0 00 005372 		MOVEM	1,$PNTSV#	;SAVE NUMBER
  3156	004214	336 00 0 00 030223 		SKIPN	PNTSPC
  3157	004215	254 00 0 00 004220 		JRST	.+3
  3158	004216	201 01 0 00 000040 		MOVEI	1,40		;AT THIS POINT WE HAVE PRINTED
  3159	004217	265 03 0 00 004306 		JSP	3,$TOUT		;X AMOUNT OF NUMBER(S) AND NOW A SPACE
  3160	004220	336 00 0 00 005371 		SKIPN	$PNT#		;PRINT 6 SP 6 FLAG SET?
  3161	004221	254 00 0 00 003743 		JRST	$PNTI4		;NO, EXIT )
  3162	004222	200 01 0 00 005372 		MOVE	1,$PNTSV	;RESTORE NUMBER
  3163	004223	201 02 0 00 000006 		MOVEI	2,6		;SETUP FOR 2ND HALF
  3164	004224	402 00 0 00 005371 		SETZM	$PNT		;CLEAR PRINT SPACE FLAG
  3165	004225	254 00 0 00 004207 		JRST	$PNTI2		;PRINT REST OF NUMBER
  3166
  3167	004226	201 03 0 00 000014 	$PNTI3:	MOVEI	3,14		;SETUP FOR LH WORD
  3168	004227	201 02 0 00 000006 		MOVEI	2,6		;SETUP FOR FIRST HALF
  3169	004230	476 00 0 00 005371 		SETOM	$PNT		;SET PRINT 6 SP 6 FLAG
  3170	004231	476 00 0 00 030223 		SETOM	PNTSPC		;SET THE PRINT SPACE FLAG
  3171	004232	254 00 0 00 004205 		JRST	$PNTI1+1	;PRINT FIRST HALF NUMBER
  3172	004233	254 00 0 00 003743 		JRST	$PNTI4		;EXIT
  3173
SUBUSR (DDQDA) DECSYSTEM DIAGNOSTICS USER SUBROUTINE PROGRAM, VER 0,14	MACRO %53(1020) 15:25 23-Mar-78 Page 62
SUBUSM	MAC	23-Mar-78 15:02		*SUBRTN* PRINT SUBROUTINES                                                         SEQ 0333

  3174					S^;*********************************************************************^
  3175					;*ASCII/CHARACTER PRINTOUT ROUTINE
  3176					;*PRINTS CHAR IN LOWER 7 BITS OF AC0
  3177					S^;*********************************************************************^
  3178
  3179	004234	405 00 0 00 000177 	$CHRPN:	ANDI	0,177		;STRIP CHAR TO 7 BITS
  3180	004235	200 01 0 00 000000 		MOVE	1,0
  3181	004236	265 03 0 00 004306 		JSP	3,$TOUT		;PRINT A CHARACTER
  3182	004237	254 00 0 00 003743 		JRST	$PNTI4		;LEAVE
  3183
  3184					S^;*********************************************************************^
  3185					;*PRINTS ASCII WHOSE ADDRESS IS IN AC0
  3186					S^;*********************************************************************^
  3187
  3188	004240	476 00 0 00 005371 	$PNTLN:	SETOM	$PNT#		;SET PRINT MORE THAN 1 WORD FLAG.
  3189
  3190	004241	202 00 0 00 005375 	$ASCPN:	MOVEM	0,$POINT#	;SAVE ADDRESS OF ASCII MESSAGE.
  3191	004242	201 02 0 00 000005 	$ASCP1:	MOVEI	2,5		;5 = NUM OF ASCII CHAR. IN A WORD.
  3192	004243	200 00 1 00 005375 		MOVE	0,@$POINT	;C(AC0) = FIRST/NEXT WORD OF ASCII MESS
  3193
  3194	004244	400 01 0 00 000000 	$ASCP2:	SETZ	1,		;CLEAR AC1.
  3195	004245	245 00 0 00 000007 		ROTC	0,7		;C(AC1) = CHAR TO BE PRINTED.
  3196	004246	322 01 0 00 003743 		JUMPE	1,$PNTI4	;CHAR = NULL?..NO MORE CHAR..EXIT
  3197	004247	265 03 0 00 004306 		JSP	3,$TOUT		;PRINT A CHAR
  3198	004250	366 02 0 00 004244 		SOJN	2,$ASCP2	;PNT ALL CHAR FROM THIS WORD?
  3199	004251	350 00 0 00 005375 		AOS	$POINT		;YES. INC TO GET NEXT WORD.
  3200	004252	336 00 0 00 005371 		SKIPN	$PNT		;PNT MORE THAN ONE WORD FLAG SET?
  3201	004253	254 00 0 00 003743 		JRST	$PNTI4		;NO..LEAVE
  3202	004254	254 00 0 00 004242 		JRST	$ASCP1		;YES...RETURN TO PNT NEXT WORD.
SUBUSR (DDQDA) DECSYSTEM DIAGNOSTICS USER SUBROUTINE PROGRAM, VER 0,14	MACRO %53(1020) 15:25 23-Mar-78 Page 63
SUBUSM	MAC	23-Mar-78 15:02		*SUBRTN* PRINT SUBROUTINES                                                         SEQ 0334

  3203					S^;*********************************************************************^
  3204					;*DECIMAL PRINTOUT ROUTINE
  3205					;*PRINTS NUMBER IN AC0
  3206					S^;*********************************************************************^
  3207
  3208	004255	476 00 0 00 005371 	$DECSP:	SETOM	$PNT		;SET LEADING SPACES PRINT CONTROL
  3209
  3210	004256	325 00 0 00 004262 	$DECPN:	JUMPGE	0,.+4		;IS NUMBER NEGATIVE ?
  3211	004257	201 01 0 00 000055 		MOVEI	1,"-"		;YES, PRINT MINUS SIGN
  3212	004260	265 03 0 00 004306 		JSP	3,$TOUT
  3213	004261	210 00 0 00 000000 		MOVN	0,0		;MAKE NUMBER POSITIVE
  3214	004262	260 17 0 00 004264 		GO	$RADIX		;DECIMAL-ASCII CONVERSION & PRINT CHARS
  3215	004263	254 00 0 00 003743 		JRST	$PNTI4		;EXIT
  3216
  3217	004264	200 02 0 00 030264 	$RADIX:	MOVE	2,RADLSC	;SETUP DIGIT COUNTER
  3218	004265	246 00 0 00 777735 		LSHC	0,-^D35		;SHIFT RIGHT 35 BITS INTO AC1
  3219	004266	242 01 0 00 777777 		LSH	1,-1		;VACATE AC1 SIGN BIT
  3220
  3221	004267	234 00 0 00 030262 	$DCCMP:	DIV	0,RADIX		;DIVIDE DOUBLE LENGTH INTERGER BY 10
  3222	004270	506 01 0 17 000000 		HRLM	1,(17)		;SAVE DIGIT
  3223	004271	370 00 0 00 000002 		SOS	2		;COUNT DIGIT
  3224	004272	322 00 0 00 004300 		JUMPE	0,$LDSPS	;ALL DIGITS FORMED?
  3225	004273	260 17 0 00 004265 		GO	$RADIX+1	;NO, COMPUTE NEXT ONE
  3226
  3227	004274	554 01 0 17 000000 	$DECP1:	HLRZ	1,(17)		;YES, RETRIEVE DIGIT
  3228	004275	271 01 0 00 000060 		ADDI	1,60		;CONVERT TO ASCII
  3229	004276	265 03 0 00 004306 		JSP	3,$TOUT		;TYPE-OUT A DIGIT
  3230	004277	263 17 0 00 000000 		RTN			;GET NEXT/EXIT
  3231
  3232	004300	336 00 0 00 005371 	$LDSPS:	SKIPN	$PNT		;LEADING SPACES PRINT SET?
  3233	004301	254 00 0 00 004274 		JRST	$DECP1		;NO ...GO PRINT
  3234									;YES ...DO IT
  3235	004302	361 02 0 00 004274 	$DCSPS:	SOJL	2,$DECP1	;SPACES COMPLETE ?  YES
  3236	004303	200 01 0 00 030263 		MOVE	1,RADLSP	;NO, PRINT LEADING SPACE
  3237	004304	265 03 0 00 004306 		JSP	3,$TOUT		;TYPE OUT THE SPACE
  3238	004305	254 00 0 00 004302 		JRST	.-3		;CHECK FOR NEXT
SUBUSR (DDQDA) DECSYSTEM DIAGNOSTICS USER SUBROUTINE PROGRAM, VER 0,14	MACRO %53(1020) 15:25 23-Mar-78 Page 66
SUBUSM	MAC	23-Mar-78 15:02		*SUBRTN*  CHARACTER OUTPUT ROUTINES                                                SEQ 0335

  3239					SUBTTL	*SUBRTN*  CHARACTER OUTPUT ROUTINES
  3240
  3241					S^;*********************************************************************^
  3242					;*OUTPUT TERMINATION CONTROL ROUTINE
  3243					S^;*********************************************************************^
  3244
  3245	004306	202 00 0 00 005364 	$TOUT:	MOVEM	0,$PACB0#	;SAVE AC0.
  3246	004307	202 01 0 00 005374 		MOVEM	1,$PNTYC#	;SAVE CHARACTER TO BE PRINTED
  3247
  3248					S^;*********************************************************************^
  3249					;*OVERALL CHARACTER OUTPUT CONTROL ROUTINE
  3250					S^;*********************************************************************^
  3251
  3252	004310	200 00 0 00 030046 	$TOUTB:	MOVE	AC0,CONSW	;DATA SWITCHES INTO AC0
  3253	004311	350 00 0 00 005335 		AOS	$CARCT#		;INC CHAR CNTR.
  3254	004312	306 01 0 00 000007 		CAIN	1,7		;CHAR A BELL ?
  3255	004313	402 00 0 00 005400 		SETZM	$PTINH		;YES, CLEAR PRINT INHIBIT
  3256	004314	302 01 0 00 000015 		CAIE	1,15		;CHAR A CR?
  3257	004315	254 00 0 00 004321 		JRST	$TOUB1		;NO-CHK FOR LF
  3258	004316	336 00 0 00 005400 		SKIPN	$PTINH		;DON'T COUNT ^O'ED LINES
  3259	004317	350 00 0 00 030220 		AOS	PNTENB		;COUNT LINES, TILL NO MORE
  3260	004320	402 00 0 00 005335 		SETZM	$CARCT		;CLR CHAR CNTR.
  3261
  3262	004321	306 01 0 00 000012 	$TOUB1:	CAIN	1,12		;IS CHAR A LF?
  3263	004322	402 00 0 00 005335 		SETZM	$CARCT		;YES-CLR CHAR CNTR.
  3264	004323	332 00 0 00 005373 		SKIPE	$PNTTY		;NO-IS PRINT FORCED ON?
  3265	004324	254 00 0 00 004327 		JRST	$TOUB2		;YES-DON'T CHECK NON-PNT SW
  3266	004325	603 00 0 00 040000 		TLNE	0,NOPNT		;IS NON PNT SWITCH ON?
  3267	004326	254 00 0 03 000000 		JRST	(3)		;YES, RETURN
  3268
  3269	004327	265 04 0 00 004352 	$TOUB2:	JSP	4,$TOUT2	;SEND CHARACTER USER MODE
  3270
  3271	004330	332 00 0 00 030240 	$TOUB3:	SKIPE	USRLFF#		;NEED USER LF FILLERS ?
  3272	004331	254 00 0 00 004341 		JRST	$USRFL		;YES
  3273	004332	332 00 0 00 030241 		SKIPE	USRCRF#		;NEED USER CR FILLERS ?
  3274	004333	254 00 0 00 004335 		JRST	$USRFC		;YES
  3275	004334	254 00 0 00 004350 		JRST	$TOUTA		;NO-BACK TO PRINT ROUTINE
SUBUSR (DDQDA) DECSYSTEM DIAGNOSTICS USER SUBROUTINE PROGRAM, VER 0,14	MACRO %53(1020) 15:25 23-Mar-78 Page 67
SUBUSM	MAC	23-Mar-78 15:02		*SUBRTN*  CHARACTER OUTPUT ROUTINES                                                SEQ 0336

  3276					;*USER MODE LF & CR FILLERS
  3277					S^;*********************************************************************^
  3278
  3279	004335	302 01 0 00 000015 	$USRFC:	CAIE	1,15		;CR ?
  3280	004336	254 00 0 00 004350 		JRST	$TOUTA		;NO-RETURN TO PRINT ROUTINE
  3281	004337	200 05 0 00 030241 		MOVE	5,USRCRF	;SEND FILLERS FOR CR
  3282	004340	254 00 0 00 004344 		JRST	$USRF1		;DEPENDING ON 'USRCRF'
  3283
  3284	004341	302 01 0 00 000012 	$USRFL:	CAIE	1,12		;LF ?
  3285	004342	254 00 0 00 004350 		JRST	$TOUTA		;NO-RETURN TO PRINT
  3286	004343	200 05 0 00 030240 		MOVE	5,USRLFF	;SEND FILLERS FOR LF
  3287	004344	361 05 0 00 004350 	$USRF1:	SOJL	5,$TOUTA	;DEPENDING ON 'USRLFF'
  3288	004345	201 01 0 00 000001 		MOVEI	1,001		;^A
  3289	004346	265 04 0 00 004352 		JSP	4,$TOUT2	;SEND CHARACTER
  3290	004347	254 00 0 00 004344 		JRST	$USRF1
  3291
  3292					;*RETURN BACK TO PRINTING ROUTINE FROM CHAR OUTPUT
  3293					S^;*********************************************************************^
  3294	004350	200 00 0 00 005364 	$TOUTA:	MOVE	AC0,$PACB0	;RESTORE AC0
  3295	004351	254 00 0 03 000000 		JRST	(3)		;RETURN TO PRINT ROUTINE
SUBUSR (DDQDA) DECSYSTEM DIAGNOSTICS USER SUBROUTINE PROGRAM, VER 0,14	MACRO %53(1020) 15:25 23-Mar-78 Page 68
SUBUSM	MAC	23-Mar-78 15:02		*SUBRTN*  CHARACTER OUTPUT ROUTINES                                                SEQ 0337

  3296					S^;*********************************************************************^
  3297					;*USER MODE CHARACTER OUTPUT
  3298					S^;*********************************************************************^
  3299
  3300	004352	202 04 0 00 005365 	$TOUT2:	MOVEM	4,$PACC4#
  3301	004353	200 00 0 00 030046 		MOVE	0,CONSW
  3302	004354	603 00 0 00 020000 		TLNE	0,PNTLPT	;IS LPT PRINT SWITCH UP ?
  3303	004355	254 00 0 00 004401 		JRST	$TOUT3		;YES, GO PRINT ON LOGICAL DEVICE
  3304	004356	037 05 0 00 000002 		DROPDV			;CLOSE DEV IF SWITCH CHANGED
  3305	004357	200 00 0 00 005335 	$TOUT6:	MOVE	0,$CARCT	;CHARACTER NUMBER
  3306	004360	306 00 0 00 000001 		CAIN	0,1		;FIRST CHAR IN LINE ?
  3307	004361	254 00 0 00 004367 		JRST	$TOUT4		;YES
  3308	004362	336 00 0 00 030516 	$TOUT5:	SKIPN	MONTYP
  3309	004363	051 01 0 00 000001 		OUTCHR	1
  3310	004364	332 00 0 00 030516 		SKIPE	MONTYP
  3311	004365	260 17 0 00 004407 		GO	$$TOU5		;TOPS-20 OUTPUT
  3312	004366	254 00 1 00 005365 		JRST	@$PACC4		;GO RESTORE AC0 AND RETURN
  3313
  3314	004367	331 00 0 00 030043 	$TOUT4:	SKIPL	MONCTL		;SYSTEM EXERCISER
  3315	004370	254 00 0 00 004362 		JRST	$TOUT5		;NO
  3316	004371	261 17 0 00 000001 		PUT	1
  3317	004372	201 01 0 00 000077 		MOVEI	1,"?"		;PRECEDE LINE WITH ?
  3318	004373	336 00 0 00 030516 		SKIPN	MONTYP
  3319	004374	051 01 0 00 000001 		OUTCHR	1
  3320	004375	332 00 0 00 030516 		SKIPE	MONTYP
  3321	004376	104 00 0 00 000074 		PBOUT
  3322	004377	262 17 0 00 000001 		GET	1
  3323	004400	254 00 0 00 004362 		JRST	$TOUT5
  3324
  3325					;*USER MODE LOGICAL DEVICE OUTPUT
  3326					S^;*********************************************************************^
  3327
  3328	004401	336 00 0 00 030226 	$TOUT3:	SKIPN	$DVOFF		;DEVICE BEEN INITED YET ?
  3329	004402	260 17 0 00 004452 		GO	$INTDV		;NO, GO DO IT
  3330	004403	260 17 0 00 004440 		GO	$PUTCR		;GO OUTPUT CHAR
  3331	004404	336 00 0 00 005373 		SKIPN	$PNTTY		;SKIP IF MESSAGE ALSO FORCED TO TTY
  3332	004405	254 00 1 00 005365 		JRST	@$PACC4
  3333	004406	254 00 0 00 004357 		JRST	$TOUT6		;OUTPUT
SUBUSR (DDQDA) DECSYSTEM DIAGNOSTICS USER SUBROUTINE PROGRAM, VER 0,14	MACRO %53(1020) 15:25 23-Mar-78 Page 69
SUBUSM	MAC	23-Mar-78 15:02		*SUBRTN*  CHARACTER OUTPUT ROUTINES                                                SEQ 0338

  3334					;*TOPS-20 TTY OUTPUT
  3335
  3336	004407	302 01 0 00 000033 	$$TOU5:	CAIE	1,33		;PRINTING AN ALTMODE ?
  3337	004410	254 00 0 00 004436 		JRST	$$TOU6		;NO
  3338	004411	261 17 0 00 000001 		PUT	1
  3339	004412	261 17 0 00 000002 		PUT	2
  3340	004413	261 17 0 00 000003 		PUT	3
  3341	004414	202 01 0 00 005327 		MOVEM	1,$$TO5A#
  3342	004415	201 01 0 00 000101 		MOVEI	1,.PRIOU
  3343	004416	104 00 0 00 000112 		RFCOC			;YES, DON'T TRANSLATE IT
  3344	004417	261 17 0 00 000002 		PUT	2
  3345	004420	261 17 0 00 000003 		PUT	3
  3346	004421	620 03 0 00 600000 		TRZ	3,600000
  3347	004422	660 03 0 00 400000 		TRO	3,400000
  3348	004423	104 00 0 00 000113 		SFCOC
  3349	004424	200 01 0 00 005327 		MOVE	1,$$TO5A
  3350	004425	104 00 0 00 000074 		PBOUT			;PRINT AN ACTUAL 33 CODE
  3351	004426	201 01 0 00 000101 		MOVEI	1,.PRIOU
  3352	004427	262 17 0 00 000003 		GET	3
  3353	004430	262 17 0 00 000002 		GET	2
  3354	004431	104 00 0 00 000113 		SFCOC			;RESTORE OUTPUT TRANSLATION
  3355	004432	262 17 0 00 000003 		GET	3
  3356	004433	262 17 0 00 000002 		GET	2
  3357	004434	262 17 0 00 000001 		GET	1
  3358	004435	263 17 0 00 000000 		RTN
  3359
  3360	004436	104 00 0 00 000074 	$$TOU6:	PBOUT			;NORMAL OUTPUT
  3361	004437	263 17 0 00 000000 		RTN
  3362
  3363					;* LOGICAL DEVICE OUTPUT ROUTINES
  3364					S^;*********************************************************************^
  3365
  3366	004440	336 00 0 00 030516 	$PUTCR:	SKIPN	MONTYP
  3367	004441	254 00 0 00 004566 		JRST	$PUT10
  3368	004442	261 17 0 00 000001 		PUT	1
  3369	004443	261 17 0 00 000002 		PUT	2
  3370	004444	200 02 0 00 000001 		MOVE	2,1
  3371	004445	200 01 0 00 005322 		MOVE	1,DEVJFN
  3372	004446	104 00 0 00 000051 		BOUT
  3373	004447	262 17 0 00 000002 		GET	2
  3374	004450	262 17 0 00 000001 		GET	1
  3375	004451	263 17 0 00 000000 		RTN
SUBUSR (DDQDA) DECSYSTEM DIAGNOSTICS USER SUBROUTINE PROGRAM, VER 0,14	MACRO %53(1020) 15:25 23-Mar-78 Page 70
SUBUSM	MAC	23-Mar-78 15:02		*SUBRTN*  CHARACTER OUTPUT ROUTINES                                                SEQ 0339

  3376					S^;*********************************************************************^
  3377					;*LOGICAL DEVICE INITIALIZATION
  3378					;*PHY DEV ASSIGNED AT RUN TIME
  3379					S^;*********************************************************************^
  3380
  3381	004452	200 00 0 00 030021 	$INTDV:	MOVE	0,PNTEXT
  3382	004453	202 00 0 00 030271 		MOVEM	0,$OUTEX
  3383	004454	200 00 0 00 030020 		MOVE	0,PNTNAM	;SETUP LOGICAL OUTPUT FILE NAME
  3384	004455	202 00 0 00 030270 		MOVEM	0,$OUTNM
  3385	004456	202 01 0 00 005366 		MOVEM	1,$PACF1#
  3386	004457	202 02 0 00 005367 		MOVEM	2,$PACF2#
  3387	004460	402 00 0 00 005343 		SETZM	$INTD3#
  3388	004461	336 00 0 00 030516 		SKIPN	MONTYP
  3389	004462	254 00 0 00 004576 		JRST	$INT10		;TOPS10
  3390	004463	200 00 0 00 005175 		MOVE	[POINT 7,FILASC,27]
  3391	004464	200 01 0 00 005176 		MOVE	1,[ASCII/DEV:/]
  3392	004465	202 01 0 00 005241 		MOVEM	1,FILASC
  3393	004466	201 01 0 00 030270 	$INT21:	MOVEI	1,$OUTNM
  3394	004467	260 17 0 00 004537 		GO	SIXASC		;CONVERT SIXBIT TO ASCII
  3395	004470	515 01 0 00 400001 		HRLZI	1,(GJ%FOU!GJ%SHT)
  3396	004471	561 02 0 00 005241 		HRROI	2,FILASC
  3397	004472	104 00 0 00 000020 		GTJFN
  3398	004473	320 16 0 00 004504 		 ERJMP	$INT22		;DEVICE NOT AVAILABLE, DEFAULT TO DSK
  3399	004474	202 01 0 00 005322 		MOVEM	1,DEVJFN#
  3400	004475	200 02 0 00 005177 		MOVE	2,[7B5!OF%WR]
  3401	004476	104 00 0 00 000021 		OPENF
  3402	004477	254 00 0 00 004530 		 JRST	T20ERR
  3403	004500	476 00 0 00 030226 	$INT12:	SETOM	$DVOFF
  3404	004501	200 02 0 00 005367 		MOVE	2,$PACF2
  3405	004502	200 01 0 00 005366 		MOVE	1,$PACF1
  3406	004503	263 17 0 00 000000 		RTN
  3407
  3408	004504	332 00 0 00 005343 	$INT22:	SKIPE	$INTD3
  3409	004505	254 00 0 00 004530 		 JRST	T20ERR
  3410						HRROI	1,[ASCIZ/
  3411					****
  3412					USING 'DSK' PRINT FILE
  3413					****
  3414	004506	561 01 0 00 005200 	/]
  3415	004507	104 00 0 00 000076 		PSOUT
  3416	004510	200 00 0 00 005175 		MOVE	[POINT 7,FILASC,27]
  3417	004511	200 01 0 00 005210 		MOVE	1,[ASCII/DSK:/]
  3418	004512	202 01 0 00 005241 		MOVEM	1,FILASC
  3419	004513	476 00 0 00 005343 		SETOM	$INTD3
  3420	004514	254 00 0 00 004466 		JRST	$INT21
SUBUSR (DDQDA) DECSYSTEM DIAGNOSTICS USER SUBROUTINE PROGRAM, VER 0,14	MACRO %53(1020) 15:25 23-Mar-78 Page 71
SUBUSM	MAC	23-Mar-78 15:02		*SUBRTN*  CHARACTER OUTPUT ROUTINES                                                SEQ 0340

  3421					;*USER MODE CLOSE FILE
  3422					S^;*********************************************************************^
  3423
  3424	004515	336 00 0 00 030226 	$DRPDV:	SKIPN	$DVOFF		;DEVICE INITED?
  3425	004516	263 17 0 00 000000 		RTN			;NO, DON'T BOTHER
  3426	004517	336 00 0 00 030516 		SKIPN	MONTYP
  3427	004520	254 00 0 00 004624 		JRST	$DRP10		;TOPS10
  3428	004521	261 17 0 00 000001 		PUT	1
  3429	004522	200 01 0 00 005322 		MOVE	1,DEVJFN
  3430	004523	104 00 0 00 000022 		CLOSF
  3431	004524	254 00 0 00 004530 		 JRST	T20ERR
  3432	004525	262 17 0 00 000001 		GET	1
  3433	004526	402 00 0 00 030226 		SETZM	$DVOFF
  3434	004527	263 17 0 00 000000 		RTN			;EXIT
  3435
  3436	004530	201 01 0 00 000101 	T20ERR:	MOVEI	1,.PRIOU
  3437	004531	525 02 0 00 400000 		HRLOI	2,.FHSLF
  3438	004532	400 03 0 00 000000 		SETZ	3,
  3439	004533	104 00 0 00 000011 		ERSTR
  3440	004534	104 00 0 00 000170 		 HALTF
  3441	004535	104 00 0 00 000170 		 HALTF
  3442	004536	104 00 0 00 000170 		HALTF
  3443
  3444	004537	261 17 0 00 000002 	SIXASC:	PUT	2
  3445	004540	261 17 0 00 000003 		PUT	3
  3446	004541	261 17 0 00 000004 		PUT	4
  3447	004542	200 03 0 00 000000 		MOVE	3,0
  3448	004543	200 04 0 00 000001 		MOVE	4,1
  3449	004544	200 01 0 04 000000 		MOVE	1,(4)
  3450	004545	260 17 0 00 004560 		GO	SIXSTR
  3451	004546	201 00 0 00 000056 		MOVEI	"."
  3452	004547	136 00 0 00 000003 		IDPB	0,3
  3453	004550	510 01 0 04 000001 		HLLZ	1,1(4)
  3454	004551	332 00 0 00 000001 		SKIPE	1
  3455	004552	260 17 0 00 004560 		GO	SIXSTR
  3456	004553	136 01 0 00 000003 		IDPB	1,3
  3457	004554	262 17 0 00 000004 		GET	4
  3458	004555	262 17 0 00 000003 		GET	3
  3459	004556	262 17 0 00 000002 		GET	2
  3460	004557	263 17 0 00 000000 		RTN
  3461
  3462	004560	403 00 0 00 000002 	SIXSTR:	SETZB	0,2
  3463	004561	246 00 0 00 000006 		LSHC	0,6
  3464	004562	271 00 0 00 000040 		ADDI	0,40
  3465	004563	136 00 0 00 000003 		IDPB	0,3
  3466	004564	326 01 0 00 004560 		JUMPN	1,.-4
  3467	004565	263 17 0 00 000000 		RTN
SUBUSR (DDQDA) DECSYSTEM DIAGNOSTICS USER SUBROUTINE PROGRAM, VER 0,14	MACRO %53(1020) 15:25 23-Mar-78 Page 72
SUBUSM	MAC	23-Mar-78 15:02		*SUBRTN*  CHARACTER OUTPUT ROUTINES                                                SEQ 0341

  3468					;*TOPS10, LOGICAL DEVICE OUTPUT
  3469
  3470	004566	332 00 0 00 005340 	$PUT10:	SKIPE	$DVTTY#		;IF DEVICE IS TTY
  3471	004567	254 00 0 00 004574 		JRST	.+5		;EMPTY BUFFER AFTER EACH CHAR
  3472	004570	377 00 0 00 030267 		SOSG	$OBUF+2		;INCREMENT BYTE COUNT
  3473	004571	254 00 0 00 004574 		JRST	.+3
  3474	004572	136 01 0 00 030266 		IDPB	1,$OBUF+1	;STORE CHAR
  3475	004573	263 17 0 00 000000 		RTN
  3476	004574	057 17 0 00 000000 		OUT	$DEVCH,		;EMPTY BUFFER
  3477	004575	254 00 0 00 004572 		JRST	.-3
  3478
  3479					;*$INT10, TOPS10 INITIALIZE LOGICAL OUTPUT
  3480
  3481	004576	202 00 0 00 030270 	$INT10:	MOVEM	0,$OUTNM
  3482	004577	041 17 0 00 000000 		INIT	$DEVCH,0	;ASCII MODE, DEV CHANNEL
  3483	004600	44 45 66 00 00 00 		SIXBIT	/DEV/		;LOGICAL DEVICE, LPT,DSK,DTAX
  3484	004601	030265	000000			XWD	$OBUF,		;OUTPUT ONLY
  3485	004602	254 00 0 00 004614 		JRST	$INT13		;DEV NOT AVAIL, DEFAULT TO DISK
  3486	004603	065 17 0 00 000001 	$INT11:	OUTBUF	$DEVCH,1	;SETUP OUTPUT BUFFER
  3487	004604	077 17 0 00 030270 		ENTER	$DEVCH,$OUTNM	;INIT OUTPUT FILE
  3488	004605	254 00 0 00 004641 		JRST	$OERR2		;NO DIR ROOM, ERROR
  3489	004606	476 00 0 00 030226 		SETOM	$DVOFF		;SET DEVICE INITED FLAG
  3490	004607	201 00 0 00 000017 		MOVEI	0,$DEVCH
  3491	004610	047 00 0 00 000004 		DEVCHR			;GET DEVICE CHARACTERISTICS
  3492	004611	603 00 0 00 000010 		TLNE	0,10
  3493	004612	476 00 0 00 005340 		SETOM	$DVTTY		;DEVICE IS TTY
  3494	004613	254 00 0 00 004500 		JRST	$INT12		;EXIT
SUBUSR (DDQDA) DECSYSTEM DIAGNOSTICS USER SUBROUTINE PROGRAM, VER 0,14	MACRO %53(1020) 15:25 23-Mar-78 Page 73
SUBUSM	MAC	23-Mar-78 15:02		*SUBRTN*  CHARACTER OUTPUT ROUTINES                                                SEQ 0342

  3495	004614	336 00 0 00 005344 	$INT13:	SKIPN	$INTDF		;FIRST DEFAULT INIT ?
  3496						OUTSTR	[ASCIZ/
  3497					****
  3498					USING 'DSK' PRINT FILE
  3499					****
  3500	004615	051 03 0 00 005200 	/]
  3501	004616	476 00 0 00 005344 		SETOM	$INTDF
  3502	004617	041 17 0 00 000000 		INIT	$DEVCH,0
  3503	004620	44 63 53 00 00 00 		SIXBIT	/DSK/
  3504	004621	030265	000000			XWD	$OBUF,
  3505	004622	254 00 0 00 004637 		JRST	$OERR1
  3506	004623	254 00 0 00 004603 		JRST	$INT11
  3507
  3508					;*USER MODE CLOSE FILE
  3509
  3510	004624	070 17 0 00 000000 	$DRP10:	CLOSE	$DEVCH,		;CLOSE FILE
  3511	004625	063 17 0 00 740000 		STATZ	$DEVCH,740000	;RECHECK FINAL ERROR BITS
  3512						OUTSTR	[ASCIZ/
  3513					%PRINT CLOSE ERROR
  3514	004626	051 03 0 00 005211 	/]
  3515	004627	071 17 0 00 000000 		RELEAS	$DEVCH,		;RELINQUISH DEVICE, WRITE DIRECTORY
  3516	004630	402 00 0 00 030226 		SETZM	$DVOFF
  3517	004631	263 17 0 00 000000 		RTN			;EXIT
  3518
  3519	004632				$OUTER:	OUTSTR	[ASCIZ/
  3520					%PRINT OUTPUT ERROR
  3521	004632	051 03 0 00 005216 	/]
  3522	004633	332 00 0 00 030520 		SKIPE	$$OUTER
  3523	004634	256 00 0 00 030520 		XCT	$$OUTER		;EXECUTE USERS ERROR RTN, IF PROV.
  3524	004635	047 01 0 00 000012 		EXIT	1,		;ERROR, QUIT
  3525	004636	254 00 0 00 030000 		JRST	BEGIN		;RESTART USER SEGMENT
  3526
  3527	004637				$OERR1:	OUTSTR	[ASCIZ/
  3528	004637	051 03 0 00 005223 	DSK INIT ERROR/]
  3529	004640	254 00 0 00 004632 		JRST	$OUTER		;DISK PRINT OUTPUT ERROR
  3530
  3531	004641				$OERR2:	OUTSTR	[ASCIZ/
  3532	004641	051 03 0 00 005227 	NO DIR ROOM/]
  3533	004642	254 00 0 00 004632 		JRST	$OUTER		;DISK PRINT OUTPUT ERROR
SUBUSR (DDQDA) DECSYSTEM DIAGNOSTICS USER SUBROUTINE PROGRAM, VER 0,14	MACRO %53(1020) 15:25 23-Mar-78 Page 1
SUBUSS	MAC	23-Mar-78 15:04		*STOR* RESERVED STORAGE                                                            SEQ 0343

  3534					SUBTTL	*STOR* RESERVED STORAGE
  3535
  3536					;MODIFY DEVICE CODE CODE TABLE
  3537	004643				$MDLST:
  3538			000000		$MDEND=.-$MDLST			;COMPUTES LENGTH OF TABLE
  3539
  3540					;PROGRAM LITERALS
  3541	004643					LIT
  3542	004643	000112	000011
  3543	004644	254 00 0 00 002071
  3544	004645	254 00 0 00 002136
  3545	004646	015 012 105 130 105
  3546	004647	103 040 117 116 114
  3547	004650	131 015 012 000 000
  3548	004651	260 17 0 00 001163
  3549	004652	254 00 0 00 001244
  3550	004653	76 51 54 54 45 47
  3551	004654	41 54 00 65 65 57
  3552	004655	76 65 65 57 75 75
  3553	004656	46 54 41 47 63 75
  3554	004657	00 00 60 43 76 77
  3555	004660	777577	030303
  3556	004661	76 12 12 12 12 12
  3557	004662	76 65 65 57 00 60
  3558	004663	54 51 63 64 00 45
  3559	004664	62 62 00 60 35 77
  3560	004665	037 01 0 00 000026
  3561	004666	037 12 0 00 000001
  3562	004667	254 00 0 00 001364
  3563	004670	037 15 0 00 000003
  3564	004671	254 00 0 00 001364
  3565	004672	037 14 0 00 000003
  3566	004673	254 00 0 00 001364
  3567	004674	037 17 0 00 000001
  3568	004675	254 00 0 00 001364
  3569	004676	000001	000001
  3570	004677	76 64 45 63 64 00
  3571	004700	60 41 63 63 00 43
  3572	004701	57 65 56 64 00 35
  3573	004702	00 77 00 00 00 00
  3574	004703	76 60 43 35 00 00
  3575	004704	77 00 00 00 00 00
  3576	004705	76 63 67 51 64 43
  3577	004706	50 45 63 00 35 00
  3578	004707	77 00 00 00 00 00
  3579	004710	76 45 62 62 57 62
  3580	004711	00 51 56 00 77 00
  3581	004712	00 15 00 77 00 00
  3582	004713	76 77 00 00 00 00
  3583	004714	037 00 0 00 000000
  3584	004715	76 43 57 62 62 45
  3585	004716	43 64 32 00 00 77
  3586	004717	76 41 43 64 65 41
  3587	004720	54 32 00 00 00 77
  3588	004721	76 44 51 63 43 62
SUBUSR (DDQDA) DECSYSTEM DIAGNOSTICS USER SUBROUTINE PROGRAM, VER 0,14	MACRO %53(1020) 15:25 23-Mar-78 Page 1-1
SUBUSS	MAC	23-Mar-78 15:04		*STOR* RESERVED STORAGE                                                            SEQ 0344

  3589	004722	45 60 32 00 00 77
  3590	004723	41 60 62 51 44 00
  3591	004724	000020	000011
  3592	004725	000001	005303
  3593	004726	45 62 62 57 62 00
  3594	004727	50 41 54 64 00 41
  3595	004730	64 00 77 00 00 00
  3596	004731	46 41 64 41 54 00
  3597	004732	60 62 57 47 62 41
  3598	004733	55 00 45 62 62 57
  3599	004734	62 00 41 64 00 77
  3600	004735	104 104 124 000 000
  3601	004736	66 45 62 63 51 57
  3602	004737	56 00 77 00 00 00
  3603	004740	14 00 63 66 35 77
  3604	004741	14 00 64 57 60 63
  3605	004742	15 21 20 77 00 00
  3606	004743	14 00 64 57 60 63
  3607	004744	15 22 20 77 00 00
  3608	004745	14 00 53 63 21 20
  3609	004746	77 00 00 00 00 00
  3610	004747	037 02 0 00 004745
  3611	004750	254 00 0 00 002127
  3612	004751	14 00 53 54 21 20
  3613	004752	77 00 00 00 00 00
  3614	004753	332 00 0 00 030524
  3615	004754	254 00 0 00 004747
  3616	004755	037 02 0 00 004751
  3617	004756	254 00 0 00 002127
  3618	004757	14 00 53 41 21 20
  3619	004760	77 00 00 00 00 00
  3620	004761	037 02 0 00 004757
  3621	004762	254 00 0 00 002127
  3622	004763	14 00 53 51 21 20
  3623	004764	77 00 00 00 00 00
  3624	004765	14 00 43 60 65 03
  3625	004766	35 77 00 00 00 00
  3626	004767	76 12 12 12 12 12
  3627	004770	76 60 54 51 63 64
  3628	004771	00 65 46 54 57 67
  3629	004772	76 77 00 00 00 00
  3630	004773	002160	002164
  3631	004774	200407	000000
  3632	004775	000007	000001
  3633	004776	76 12 12 12 12 12
  3634	004777	76 60 54 51 63 64
  3635	005000	00 57 66 45 62 46
  3636	005001	54 57 67 00 60 35
  3637	005002	77 00 00 00 00 00
  3638	005003	76 12 12 12 12 12
  3639	005004	76 51 54 54 45 47
  3640	005005	41 54 00 51 56 63
  3641	005006	64 62 65 43 64 51
  3642	005007	57 56 00 77 00 00
  3643	005010	76 51 54 54 45 47
SUBUSR (DDQDA) DECSYSTEM DIAGNOSTICS USER SUBROUTINE PROGRAM, VER 0,14	MACRO %53(1020) 15:25 23-Mar-78 Page 1-2
SUBUSS	MAC	23-Mar-78 15:04		*STOR* RESERVED STORAGE                                                            SEQ 0345

  3644	005011	41 54 00 55 45 55
  3645	005012	57 62 71 00 62 45
  3646	005013	41 44 77 00 00 00
  3647	005014	76 51 54 54 45 47
  3648	005015	41 54 00 55 45 55
  3649	005016	57 62 71 00 67 62
  3650	005017	51 64 45 77 00 00
  3651	005020	76 65 56 53 56 57
  3652	005021	67 56 00 51 56 64
  3653	005022	45 62 62 65 60 64
  3654	005023	77 00 00 00 00 00
  3655	005024	76 55 45 55 57 62
  3656	005025	71 00 60 62 57 64
  3657	005026	77 00 00 00 00 00
  3658	005027	76 56 57 56 15 70
  3659	005030	15 55 45 55 57 62
  3660	005031	71 77 00 00 00 00
  3661	005032	76 55 45 55 57 62
  3662	005033	71 00 60 41 62 51
  3663	005034	64 71 77 00 00 00
  3664	005035	76 46 54 41 47 63
  3665	005036	00 00 60 43 00 00
  3666	005037	00 00 00 00 60 62
  3667	005040	57 47 76 77 00 00
  3668	005041	45 56 44 00 60 41
  3669	005042	63 63 00 77 00 00
  3670	005043	76 55 45 55 57 62
  3671	005044	71 00 55 41 60 00
  3672	005045	35 76 46 62 57 55
  3673	005046	00 00 00 00 00 64
  3674	005047	57 00 00 00 00 00
  3675	005050	00 00 00 00 63 51
  3676	005051	72 45 17 53 77 00
  3677	005052	76 43 50 41 56 47
  3678	005053	45 00 44 45 66 51
  3679	005054	43 45 00 43 57 44
  3680	005055	45 63 14 77 00 00
  3681	005056	57 54 44 00 44 45
  3682	005057	66 51 43 45 00 43
  3683	005060	57 44 45 00 15 00
  3684	005061	77 00 00 00 00 00
  3685	005062	56 45 67 00 44 45
  3686	005063	66 51 43 45 00 43
  3687	005064	57 44 45 00 15 00
  3688	005065	77 00 00 00 00 00
  3689	005066	43 50 41 56 47 51
  3690	005067	56 47 00 46 62 57
  3691	005070	55 00 77 00 00 00
  3692	005071	00 64 57 00 77 00
  3693	005072	66 41 54 51 44 00
  3694	005073	43 50 41 56 47 45
  3695	005074	14 77 00 00 00 00
  3696	005075	32 12 0 02 000000
  3697	005076	000000	004643
  3698	005077	00 11 0 02 000000
SUBUSR (DDQDA) DECSYSTEM DIAGNOSTICS USER SUBROUTINE PROGRAM, VER 0,14	MACRO %53(1020) 15:25 23-Mar-78 Page 1-3
SUBUSS	MAC	23-Mar-78 15:04		*STOR* RESERVED STORAGE                                                            SEQ 0346

  3699	005100	76 44 45 66 00 43
  3700	005101	57 44 45 00 45 62
  3701	005102	62 14 00 21 24 15
  3702	005103	27 27 24 00 57 56
  3703	005104	54 71 76 77 00 00
  3704	005105	001600	001600
  3705	005106	76 64 64 71 00 63
  3706	005107	67 51 64 43 50 00
  3707	005110	43 57 56 64 62 57
  3708	005111	54 00 37 00 15 00
  3709	005112	20 14 63 14 00 71
  3710	005113	00 57 62 00 56 00
  3711	005114	34 43 62 36 00 15
  3712	005115	00 77 00 00 00 00
  3713	005116	76 54 50 00 63 67
  3714	005117	51 64 43 50 45 63
  3715	005120	00 34 03 00 57 62
  3716	005121	00 37 36 00 15 00
  3717	005122	77 00 00 00 00 00
  3718	005123	62 50 00 63 67 51
  3719	005124	64 43 50 45 63 00
  3720	005125	34 03 00 57 62 00
  3721	005126	37 36 00 15 00 77
  3722	005127	055 040 131 054 116
  3723	005130	054 136 040 074 103
  3724	005131	122 076 040 117 122
  3725	005132	040 136 132 040 055
  3726	005133	040 000 000 000 000
  3727	005134	44 07 0 00 005244
  3728	005135	600000	000204
  3729	005136	00 71 00 57 62 00
  3730	005137	56 00 34 43 62 36
  3731	005140	00 15 00 77 00 00
  3732	005141	421042	104210
  3733	005142	44 06 0 00 000001
  3734	005143	015 012 052 052 052
  3735	005144	052 052 052 015 012
  3736	005145	105 130 103 105 105
  3737	005146	104 105 104 040 101
  3738	005147	114 114 117 127 105
  3739	005150	104 040 120 122 111
  3740	005151	116 124 117 125 124
  3741	005152	123 015 012 000 000
  3742	005153	037 12 0 00 000001
  3743	005154	254 00 0 00 004066
  3744	005155	037 01 0 00 030242
  3745	005156	254 00 0 00 004072
  3746	005157	037 12 0 00 000001
  3747	005160	254 00 0 00 004117
  3748	005161	037 12 0 00 000001
  3749	005162	254 00 0 00 004133
  3750	005163	037 05 0 00 000001
  3751	005164	254 00 0 00 004156
  3752	005165	037 10 0 00 000001
  3753	005166	254 00 0 00 004162
SUBUSR (DDQDA) DECSYSTEM DIAGNOSTICS USER SUBROUTINE PROGRAM, VER 0,14	MACRO %53(1020) 15:25 23-Mar-78 Page 1-4
SUBUSS	MAC	23-Mar-78 15:04		*STOR* RESERVED STORAGE                                                            SEQ 0347

  3754	005167	037 06 0 00 000001
  3755	005170	254 00 0 00 004170
  3756	005171	037 12 0 00 000001
  3757	005172	254 00 0 00 004173
  3758	005173	037 06 0 00 000001
  3759	005174	254 00 0 00 004176
  3760	005175	10 07 0 00 005241
  3761	005176	104 105 126 072 000
  3762	005177	070000	100000
  3763	005200	015 012 052 052 052
  3764	005201	052 015 012 125 123
  3765	005202	111 116 107 040 047
  3766	005203	104 123 113 047 040
  3767	005204	120 122 111 116 124
  3768	005205	040 106 111 114 105
  3769	005206	015 012 052 052 052
  3770	005207	052 015 012 000 000
  3771	005210	104 123 113 072 000
  3772	005211	015 012 045 120 122
  3773	005212	111 116 124 040 103
  3774	005213	114 117 123 105 040
  3775	005214	105 122 122 117 122
  3776	005215	015 012 000 000 000
  3777	005216	015 012 045 120 122
  3778	005217	111 116 124 040 117
  3779	005220	125 124 120 125 124
  3780	005221	040 105 122 122 117
  3781	005222	122 015 012 000 000
  3782	005223	015 012 104 123 113
  3783	005224	040 111 116 111 124
  3784	005225	040 105 122 122 117
  3785	005226	122 000 000 000 000
  3786	005227	015 012 116 117 040
  3787	005230	104 111 122 040 122
  3788	005231	117 117 115 000 000
SUBUSR (DDQDA) DECSYSTEM DIAGNOSTICS USER SUBROUTINE PROGRAM, VER 0,14	MACRO %53(1020) 15:25 23-Mar-78 Page 2
SUBUSS	MAC	23-Mar-78 15:04		*STOR* RESERVED STORAGE                                                            SEQ 0348

  3789	005235	000000	000000		ENDSLD:	0
  3790
  3791					;END OF PROGRAM VARIABLES
  3792
  3793	005236	000 00 0 00 000000 	%ERIN1:	Z			;COR/ACT/DESC PRINT JSR
  3794	005237	000 00 0 00 000000 	%ERIN2:	Z
  3795	005240	254 00 1 00 005236 		JRST	@%ERIN1		;ERROR HANDLER SPECIAL STORAGE WORDS
  3796
  3797	005241				FILASC:	BLOCK	3
  3798
  3799	005244				D$ISTR:	BLOCK	^D30		;INPUT STORAGE
  3800
  3801	005302				POWER:	BLOCK	20		;AC SAVE AREA
  3802
  3803					IFDEF	DEBUG,<
  3804	005322				PATCH:	BLOCK	DEBUG		;DEBUGGING AREA
  3805					>
  3806
  3807					;PROGRAM VARIABLE WORDS
  3808
  3809	005322					VAR
  3810
  3811					IFDEF	PGMEND,<
  3812	005433	000000	000000		END:	0
  3813			001000			END	START

NO ERRORS DETECTED

PROGRAM BREAK IS 000000
ABSOLUTE BREAK IS 030600
CPU TIME USED 00:13.472

62P CORE USED

ABORT	    82#	  1881
AC0	    66#	  1024	  1025	  1026	  1028	  1030	  1031	  1033	  1035	  1036	  1037	  1039	  1042	  1044     SEQ 0349
	  1046	  1047	  1048	  1057	  1060	  1061	  1072	  1075	  1078	  1079	  1199	  1200	  1201	  1202
	  1204	  1206	  1208	  1214	  1215	  1216	  1223	  1227	  1261	  1570	  1582	  1585	  1598	  1610
	  1611	  2204	  2205	  2234	  2468	  2669	  2671	  2673	  2886	  2920	  2946	  3252	  3294
ALTMGO	   585#	  1440
ANXM	   462#
AROV	   365#
AROVU	   429#
AST	   700#
ATSIN	   701#
BEGEND	   581#	   881	   888
BEGIN	    36	    37	    38	    39	    40	    41	    42	    43	    44	    45	    46	   512#	   886	   973
	  1903	  3525
BEGIN1	   528#	   582
BELL	   704#
BIS	   369#
CCA	   446#
CHAIN	   102#	  2251
CHNOFF	   476#
CHNON	   475#
CHNTAB	  1683	  1702#
CLK	   461#
CLKCLR	   454#
CLKDIS	   452#
CLKENB	   453#	   460#
CLKU	   427#
CLOCKF	   567#
CNTLC	   584#
CNTRG1	  1747	  1749	  1752	  1754	  1757	  1759	  1768#
CNTRLG	  1703	  1745#
COMMA	   693#
CONSW	   568#	   928	   930#	   930	  1303	  1310	  1406	  1421	  1441	  2023	  2229	  2234	  2235	  2237
	  2250	  2258	  2274	  2310	  2328	  2599	  2609	  3252	  3301
CPIERR	   868#
CPOPJ	   588#
CPOPJ1	   586#	  2529
CRLF	   232	   233	   688#
CRLF2	   236	   237	   690#
CRY0	   366#
CRY1	   367#
CSHFLG	   747#
CSHMEM	   748#
CYCL60	   741#	  1484
D$ISTR	  2557	  3799#
DCK	   373#
DDT	    68#	   837	  1610
DDTLNK	   116#	   526	   843#	  1614
DDTSRT	   526#	   933
DEBUG	    33#	  3803	  3804
DECVER	     5#	    12	    17	   547	   859
DEVJFN	  3371	  3399#	  3399	  3429
DF22F	   652#	  3106#	  3106
DIAGMN	   515#
DIAGNO	    67#	   836                                                                                                     SEQ 0350
DIAMON	    69#	   838	   877
DIASWS	    70#	  2323
DING	    88#	  1465
DOLLAR	   707#
DSKUPD	   552
DTEBER	   866#
DTECER	   867#
END	  3812#
ENDFIX	   827#
ENDSLD	    35	  3789#
EOPERR	   869#
ERMORE	   601#	  1428
ERRPC	   572#	   955	  1216	  1271	  1286	  1309	  1879
ERRTLS	   573#	   885	  1267	  1474
ERSTOP	    91#	  1442	  1579	  1605
EXCASB	   550
EXIOT	   371#
FILASC	  3390	  3392	  3396	  3416	  3418	  3797#
FOV	   368#
FOVU	   428#
FRDLNK	   114#	  1553	  1558
FSELNK	   113#	  1525	  1528
FXU	   372#
GJ%FOU	  3395
GJ%SHT	  3395
HYPEN	   698#
IININT	  1719	  1781#
IMRINT	  1720	  1785#
IMWINT	  1721	  1789#
INHCSH	    99#
INHPAG	    96#	  2025
INUPTR	  2460	  2547	  2549	  2558#	  2558	  2571	  2598	  2902
INXM	   463#
IOCLR	   451#
ITERAT	    54#	   545
ITRCH1	   605#	  1778	  1804	  1824	  1860
ITRCNT	   545#	   876	   968	  1877	  1883
ITRUSR	  1676	  1822#
JOB41	   387#	  1005
JOBAPR	   395#	  1677
JOBCNI	   396#	  1825
JOBDDT	   389#
JOBFF	   393#	   921	  2090
JOBOPC	   398#	  1439
JOBREL	   388#	  1917
JOBREN	   394#	  2861
JOBSA	   392#	   920
JOBSYM	   390#
JOBTPC	   397#	  1823
JOBUSY	   391#
JOBUUO	   386#	  1035	  1042	  1073	  1103	  1112	  1149	  1158	  1199	  1225
JOBVER	   399#	  1625	  1628
KA10	   499                                                                                                             SEQ 0351
KAHZ50	   104#
KAIFLG	   562#	  1487	  1510	  1514	  1648	  2030
KI10	   499
KL10	   499
KLFLG	   563#	  1486	  1492	  1504	  1642	  2028
KLOLD	   312
LDLNK	   115#	   515	   517
LEVTAB	  1683	  1696#
LFP	   702#
LOOPER	    90#	  1219	  1458
LUOERR	   870#
LUUO	   379#	  1258	  2948
LUUO1	   632	   633
LUUO10	   632	   637
LUUO11	   632	   637
LUUO12	   632	   638
LUUO13	   632	   638
LUUO14	   632	   639
LUUO15	   632	   639
LUUO16	   632	   640
LUUO17	   632	   640
LUUO2	   632	   634
LUUO20	   632	   641
LUUO21	   632	   641
LUUO22	   632	   642
LUUO23	   632	   642
LUUO24	   632	   643
LUUO25	   632	   643
LUUO26	   632	   644
LUUO27	   632	   644
LUUO3	   632	   634
LUUO30	   632	   645
LUUO31	   632	   645
LUUO32	   632	   646
LUUO33	   632	   646
LUUO4	   632	   635
LUUO5	   632	   635
LUUO6	   632	   636
LUUO7	   632	   636
LUUOI	   380#
MAPNEW	   653#	   879	  1920
MARGIN	   575#
MCNVER	     6#	    12	    17	   547	   859
MEMLOW	   655#	  1982	  1997	  2093
MEMMAP	    30#	   553
MEMSIZ	   656#	  1916	  1918	  1919	  1962	  1966	  1977	  1979	  1998	  2001	  2006	  2076	  2078	  2081
	  2083
MEMTOT	   654#	  2089
MINUS	   697#
MODCHK	   844	   856#
MODDVC	    98#	  2103
MODDVL	    34#	   297	   548
MODDVU	    35#	   298	   549                                                                                             SEQ 0352
MODLNK	   117#	   512	   844#
MONCTL	   565#	   969	  1291	  1472	  1575	  1602	  1621	  2063	  2227	  2228	  2253	  2269	  2469	  2862
	  3314
MONFLG	   564#	   970
MONTEN	   566#	   971	  1898
MONTYP	   779#	   910	   915	   922	   924	  1494	  1586	  1637	  1639	  1674	  1900	  2232	  2471	  2495
	  2543	  2573	  2575	  2595	  2597	  2852	  2889	  3308	  3310	  3318	  3320	  3366	  3388	  3426
MPVU	   424#	  1678	  1830
MUOERR	   865#
NOEXEC	   862#	   977
NOPNT	    86#	  1287	  2884	  3266
NXMU	   425#	  1678	  1832
OF%WR	  3400
OPRSEL	   100#
OPTIME	   667#
P	   143	   144	   145	   146	   357#	   587	   936	   938	   939	  1020	  1022	  1025	  1030	  1039
	  1057	  1088	  1089	  1090	  1093	  1214	  1224	  1269	  1532	  1598	  1746	  1748	  1750	  1755
	  1793	  1794	  1796	  1863	  1891	  2040	  2431	  2432	  2433	  2434	  2510	  2604	  2649	  2724
	  2813
PAG	   444#
PALERS	    92#	  1278
PARCLR	   470#
PARDIS	   471#
PAREA1	    48#	   543
PAREA2	    49#	   544
PAREA3	    50#	   541
PAREA4	    51#	   542
PAREA5	    52#	   554
PAREA6	    53#	   555
PAREA7	   554#
PAREA8	   555#
PARENB	   472#
PARU	   426#	  1678	  1826
PASCNT	   569#	   884	  1294	  1297	  1876	  1887
PATCH	  3804#
PC2	  1697	  1700#	  1777
PDISF	   664#	  2838#	  2838	  2921#	  2921	  2924
PDLINT	  1712	  1775#
PDLOVU	   423#	  1678	  1828
PERIOD	   694#
PFSTRT	   521#
PGINGO	   945#
PGMEND	    31#	  3811
PGMNAM	   546	   890#
PICHN1	   490#
PICHN2	   491#
PICHN3	   492#
PICHN4	   493#
PICHN5	   494#
PICHN6	   495#
PICHN7	   496#
PICHNA	   497#
PICLR	   473#                                                                                                            SEQ 0353
PIOFF	   477#
PION	   478#	   484#
PLERR	   863#	  1086
PLERR1	   864#	  1091
PLIST	   733#	   733	   936	  1026	  1089	  1090	  1751	  1794
PLISTE	   733	   735#	  1028	  1090	  1753
PLISTS	   734#
PLUS	   699#
PNTENB	   663#	  2845	  2881#	  2881	  3259
PNTEXT	   542#	  3381
PNTFLG	   662#	  2842#	  2842	  2873	  2879	  2914
PNTINH	   665#	  2840#	  2840
PNTLPT	    87#	  2248	  2600	  2610	  3302
PNTNAM	   541#	  3383
PNTSPC	   666#	  2843#	  2843	  3156	  3170
POWER	  1522	  1523	  1534	  1555	  1556	  3801#
PSHERR	   934	  1667#
PVPAGI	   760#	  2024
PWFCLR	   469#
QUEST	   705#
RADIX	   708#	  3221
RADLSC	   710#	  3217
RADLSP	   709#	  3236
RANDBS	   543#
RD%BRK	  2559
RD%TOP	  2559
REENTR	   523#	  2860
REINIT	   839	   854#
RELIAB	    94#
REPT	   358#	  1211	  1275	  1284
REPT1	   359#	  1212	  1276	  1285
REPTU	   621#	  1236#	  1236
REQSET	   474#
RESRT1	   598#
RESRT2	   599#
RETURN	   530#	   878	   974	   990	   997	  1899
RSTART	    83#
RTP	   703#
RUNFLG	   570#
SADR1	    36#	   519
SADR10	    45#	   535
SADR11	    46#	   536
SADR2	    37#	   521
SADR3	    38#	   523
SADR4	    39#
SADR5	    40#	   584
SADR6	    41#	   585
SADR7	    42#	   532
SADR8	    43#	   533
SADR9	    44#	   534
SBINIT	   156	   529#
SCOPE	   622#	   954	  1220	  1221	  1260	  1459	  1878
SFSTRT	   519#                                                                                                            SEQ 0354
SIXASC	  3394	  3444#
SIXSTR	  3450	  3455	  3462#
SLASH	   706#
SM10	   810#	  1485	  1507	  1643
SPACE	   695#
SRTDDT	   525#
START	    34	   513	   853#	  3813
START1	   532#
START2	   533#
START3	   534#
START4	   535#
START5	   536#
STARTA	   528	   888#
SUBINI	   845	   855#
SUBLNK	   118#	   529	   845#
SUBRTN	   858#
SUBVER	   859#	  1631	  1634
SWPTAB	   816#	  2339
SWTAB	  2333	  2373#
SWTEXR	   544#
SYSEXR	   517#
T20ERR	  2563	  3402	  3409	  3431	  3436#
TAB	   696#
TABLE0	  1061	  1064#
TESTPC	   571#
TICKS	   574#
TOTALS	    84#
TT%DAM	  2856
TT%OSP	  2898
TTNBRF	   754#	  2683	  2703
TTYFIL	   670#	  2846
TTYSPD	   671#
TXTINH	    95#	  1311	  1407	  1422
USER	   561#	   906
USERF	   370#	   908	   966
USRASB	    32#	   551
USRCRF	   680#	  3273#	  3273	  3281
USRLFF	   679#	  3271#	  3271	  3286
UUODIS	   633#	  1051
UUOEXT	   589#
UUORTN	   590#	  1045
UUOSKP	   587#
XOFFLA	  2841#	  2841
$$INT	  1777#	  1783	  1787	  1791
$$MUUO	   785#
$$OUTE	   791#	  3522	  3523
$$PAC0	   905	   956#	   956
$$SNX	  1503#	  1503	  1653	  1656
$$TAX1	   803#	  1761	  1762	  2533	  2534
$$TAX2	   804#	  1764	  1765	  2536	  2537
$$TO5A	  3341#	  3341	  3349
$$TOGG	   797#	  2220	  2255	  2267
$$TOU5	  3311	  3336#                                                                                                    SEQ 0355
$$TOU6	  3337	  3360#
$$UUO	   774#	  1018	  1019
$ACC0	   612#	  1775	  1781	  1785	  1789	  1822	  1844	  1866
$ACMP5	  1934#	  1934	  1947
$ACMP6	  1935#	  1935	  1948
$ACMP7	  1936#	  1936	  1949
$ACMP8	  1937#	  1937	  1950
$ACMP9	  1938#	  1938	  1951
$ASCP1	  3191#	  3202
$ASCP2	  3194#	  3198
$ASCPN	  2935	  2954	  3190#
$BEND1	   582#
$BEND2	   583#	  1476	  1583	  1606	  1612
$CARCT	  2594	  3253#	  3253	  3260	  3263	  3305
$CFLUS	  1141	  1175#
$CGAC0	  1745#	  1745	  1768
$CHRIN	   673#	  2591#	  2591	  2603	  2612
$CHRPN	  2962	  3179#
$CINVA	  1140	  1176#
$CLOCK	  1145	  1177#
$CNVD	  2682#	  2682	  2753	  2762
$CNVX	  2694	  2751#
$CNVX1	  2715	  2760#
$CNVX2	  2763	  2772#
$CPINI	  1494#	  1516
$CPKAI	  1491	  1510#
$CPKL	  1488#
$CPUTP	   945	  1484#
$CRLF	   675#	  2847#	  2847
$CWRTB	  1141	  1178#
$DCCMP	  3221#
$DCSPS	  3235#
$DDTEN	   932	  1609#	  2608
$DECP1	  3227#	  3233	  3235
$DECPN	  2956	  3210#
$DECSP	  2958	  3208#
$DEVCH	   437#	  3476	  3482	  3486	  3487	  3490	  3502	  3510	  3511	  3515
$DRP10	  3427	  3510#
$DRPDV	  1124	  3424#
$DSKUP	   552#
$DVCH1	   438#
$DVOFF	   669#	  2837#	  2837	  3328	  3403	  3424	  3433	  3489	  3516
$DVTTY	  3470#	  3470	  3493
$ECK	   968#
$EG177	  1108	  1158#
$EG4	  1110	  1149#
$EGX	  1154	  1156	  1161	  1164	  1167	  1169#	  1173
$EGX1	  1151	  1172#
$EMODE	   550#	   975
$END	  1145	  1876#
$END1	  1884#
$END2	  1882	  1886#
$END3	  1884	  1891#                                                                                                    SEQ 0356
$EOP	  1147	  1898#
$ERH0	  1568	  1570#	  1570	  1589	  1591
$ERHL1	  1578#
$ERHL3	  1582#
$ERHL4	  1576	  1580	  1585#
$ERHLT	  1146	  1448	  1566#
$FATAL	  1146	  1596#
$FATL1	  1603	  1608#
$FFF	   677#	  2849
$FRD36	  1143	  1547#
$FRD8	  1144	  1545#
$FREAD	  1143	  1549#
$FSEL1	  1526	  1539#
$FSEL2	  1529	  1533#	  1540	  1559	  1560
$FSELE	  1142	  1520#
$FSELF	  1521#	  1521	  1531	  1551
$HEAR	  2508	  2543#	  2568
$HEAR2	  2601	  2603#	  2611	  2614
$HEAR3	  2593	  2607#
$HEAR4	  2475	  2488	  2503	  2546	  2552	  2585#
$IBUF	   725#
$IIN	  1782	  1803#
$IMR	  1786	  1811#
$IMW	  1790	  1814#
$INEXT	   727#
$INNM	   726#
$INT10	  3389	  3481#
$INT11	  3486#	  3506
$INT12	  3403#	  3494
$INT13	  3485	  3495#
$INT21	  3393#	  3420
$INT22	  3398	  3408#
$INTD3	  3387#	  3387	  3408	  3419
$INTDF	  2836#	  2836	  3495	  3501
$INTDV	  3329	  3381#
$ITR1A	  1801	  1809	  1812	  1815	  1836	  1839	  1842	  1847	  1853#
$ITR1B	  1857#
$ITRHL	   593#
$ITRIN	   950	  1674#
$ITRX1	   594#	  1867
$LDSPS	  3224	  3232#
$MDEND	  2178	  3538#
$MDLST	  2178	  3537#	  3538
$MDSR1	  2186#	  2190
$MDSR2	  2181	  2187#
$MDSRC	  2129	  2132	  2176#
$MDVCN	  2125#	  2125	  2131	  2149	  2207
$MDVCO	  2120#	  2120	  2128	  2151	  2206
$MEMMP	   952	  1140	  1916#
$MMAP	   553#	   951
$MNCON	  1939#	  1939
$MODCK	   856	   965#
$MODD0	  2106#                                                                                                            SEQ 0357
$MODD1	  2113#	  2137	  2139
$MODD2	  2118	  2123	  2159#
$MODD3	  2117#	  2193
$MODD4	  2122#
$MODD5	  2127#
$MODD6	  2130#
$MODD7	  2135#
$MODD8	  2138	  2145#	  2212
$MODD9	  2162#
$MODDB	  2106#	  2106	  2197	  2208
$MODDC	  2107#	  2107	  2196	  2209
$MODDD	  2108#	  2108	  2195	  2210
$MODDP	  1125	  2204#
$MODDV	  1125	  2102#
$MODDX	  2115	  2195#	  2213
$MODER	  2163	  2166	  2168	  2192#
$MODVL	   548#	  2145	  2148
$MODVU	   549#	  2146
$MPAC0	  2018#	  2018	  2041
$MPAD2	  2027	  2031	  2048#
$MPAD3	  2021	  2041#	  2045
$MPAD4	  2035	  2044#
$MPAD5	  2036#	  2046
$MPAD6	  2033#
$MPAD7	  2040#	  2054	  2057
$MPADL	  2029	  2056#
$MPADR	  1127	  2018#
$MPCNK	  1128	  1179#
$MPSET	  1128	  1180#
$MPVU	  1831	  1838#
$MSEG	  1126	  1934#
$MSEG3	  1946#	  1957	  1963	  1965	  1973	  1978	  1980	  1987
$MSEGP	  1959#
$MSKA	  1942	  1975#
$MSKAP	  1944	  1956#
$MTROP	  1142	  1181#
$MZRO	  1127	  1993#
$MZRO2	  1996#
$MZRO3	  2001#	  2008
$MZROB	  1993#	  1993	  2011
$MZROC	  1994#	  1994	  2010
$MZROX	  1999	  2002	  2010#
$NEGF	  2681#	  2681	  2721	  2748
$NEGX	  2692	  2746#
$NOU20	   985	   991#
$NOUSR	   981#
$NOYES	  1132	  2624#
$NXMU	  1833	  1841#
$OBUF	   716#	  3472	  3474	  3484	  3504
$OERR1	  3505	  3527#
$OERR2	  3488	  3531#
$ONETM	   576#	   883	   953	  2066	  2864
$OPTLK	  1131	  2278	  2284	  2407	  2422	  2507#	  2633	  2641	  2689	  2793                                     SEQ 0358
$OUTER	  3519#	  3529	  3533
$OUTEX	   718#	  3382
$OUTNM	   717#	  3384	  3393	  3481	  3487
$PACA1	  2909	  2925	  2941#	  2941
$PACA2	  2910	  2926	  2942#	  2942
$PACA3	  2911	  2927	  2943#	  2943
$PACA4	  2912	  2928	  2944#	  2944
$PACA5	  2913	  2929	  2945#	  2945
$PACB0	  3245#	  3245	  3294
$PACC4	  3300#	  3300	  3312	  3332
$PACF1	  3385#	  3385	  3405
$PACF2	  3386#	  3386	  3404
$PAPER	    56#	   350
$PARER	   600#	  1845
$PAREX	  1827	  1844#
$PCLRO	  1172	  2876	  2889#
$PDOVP	  1088#	  1088	  1095	  1793#	  1793	  1798
$PDOVU	  1776	  1793#	  1829
$PGMIN	   855	   905#
$PGMN1	   920#
$PMAP	  1129	  1921	  2062#
$PMAP1	  2065	  2068#
$PMAP3	  2064	  2066#
$PMAP4	  2086	  2089#
$PMAP6	  2094	  2097#
$PMAP7	  2087#
$PMAPL	  2068	  2075#
$PNAME	   546#	   989	   995	  1623
$PNM2	  1622	  1654	  1659#
$PNM3	  1645	  1647	  1650	  1653#
$PNT	  2947#	  2947	  3160#	  3160	  3164	  3169	  3188#	  3188	  3200	  3208	  3232
$PNTB1	  2924#
$PNTC2	  3107	  3122#
$PNTC3	  3118#	  3134
$PNTCF	  1123	  3136#	  3138
$PNTCW	  1123	  3102#	  3139	  3141
$PNTI1	  2964	  3147#	  3171
$PNTI2	  3151#	  3154	  3165
$PNTI3	  2960	  3167#
$PNTI4	  2907#	  3161	  3172	  3182	  3196	  3201	  3215
$PNTIA	  2877	  2885	  2941#
$PNTIB	  2882	  2920#
$PNTIC	  2952#
$PNTIF	  1106	  2873#
$PNTIN	   947	  2836#
$PNTIT	  1104	  2879#
$PNTIX	  2853	  2860#
$PNTLN	  2953	  3188#
$PNTMG	  1129	  1182#	  1431
$PNTNM	  1124	  1621#	  2249	  2866
$PNTSV	  3155#	  3155	  3162
$PNTSX	  1122	  2974#
$PNTTY	  2874#	  2874	  2880	  2907	  2930	  3264	  3331                                                             SEQ 0359
$PNTYC	  3246#	  3246
$POCS	  1138	  3056#
$POCS1	  3064	  3071#
$POCS2	  3076#	  3085
$POCS3	  3073	  3080#	  3094
$POCS4	  3085#	  3093
$POCS5	  3078	  3093#
$POCSF	  1138	  3052#
$POINT	  3190#	  3190	  3192	  3199
$PRNTX	  2887	  2914#	  2922
$PSHER	   604#	   935	   937	  1092	  1795
$PSIX	  1137	  3008#
$PSIX1	  3017#	  3033
$PSIX2	  3020#	  3032
$PSIX3	  3032#	  3038
$PSIX4	  3025	  3035#
$PSIX5	  3023	  3040#
$PSIXF	  1137	  3004#
$PTCA	  3102#	  3102	  3119	  3136
$PTCB	  3104#	  3104	  3118
$PTINH	  2839#	  2839	  2875	  3255	  3258
$PTSXF	  1122	  2987#
$PUT10	  3367	  3470#
$PUTCR	  3330	  3366#
$PVER	   547#
$RADIX	  3214	  3217#	  3225
$REINI	   854	   883#
$RSRTX	   596#
$RSRTY	   597#
$SBSRT	   853	   875#
$SPAG1	   616#
$START	   513#	   976	   980
$SUBUO	  1038	  1060#
$SVAPR	   614#
$SVCSW	   929#	   929	  2320	  2326
$SVPAG	   615#
$SVPI	   613#
$SVUPC	   619#	  1041
$SVUUO	   618#	  1043	  1047
$SW	  2283#	  2283	  2286	  2304#	  2304	  2309
$SW0	  1763	  2244	  2266#	  2535
$SW1	  2277#	  2279	  2285	  2297	  2327
$SW10	  2270	  2323#
$SW11	  2272	  2326#
$SW12	  2273#	  2329
$SW13	  2303	  2331#
$SW14	  2308	  2337#
$SW2	  2292	  2301#	  2332
$SW3	  2306#	  2335	  2338	  2340
$SW4	  2299	  2310#	  2321	  2324	  2342
$SW5	  2311#
$SW6	  2288	  2298#
$SW7	  2294	  2315#                                                                                                    SEQ 0360
$SW8	  2312#	  2316	  2319
$SW9	  2268	  2290	  2318#
$SWCH1	  2227#	  2236
$SWERR	  2281	  2296#
$SWFLG	   931#	   931	  2222	  2246
$SWIN1	  2245#
$SWONC	  2243#	  2243	  2245	  2271	  2318
$SWTCH	  1126	  1218	  1268	  1432	  1578	  1604	  1880	  2102	  2220#	  2247	  2883
$SWTIN	   949	  2242#
$SWU1	  2223	  2225	  2235#
$SWU2	  2221	  2237#
$SWUSR	  2226	  2231#
$SWXX	  2334	  2341	  2345#
$SWXX1	  2354#	  2359	  2365	  2404
$SWXX2	  2355	  2364#
$SWXX3	  2360	  2366#
$SWXX4	  2361	  2398#
$SWYYY	  2421#	  2421	  2424
$SWZZ	  2358	  2406#
$SWZZ1	  2410	  2434#
$SWZZ2	  2412	  2433#
$SWZZ3	  2426	  2432#
$SWZZ4	  2414	  2428	  2431#
$TABF	   676#	  2848
$TACB4	  2507#	  2507	  2513
$TACC1	  2627#	  2627	  2652
$TACC2	  2628#	  2628	  2650
$TACD1	  2675#	  2675	  2723	  2730
$TACD2	  2676#	  2676	  2719	  2729
$TACD3	  2677#	  2677	  2718	  2728
$TALT1	  2525	  2529#
$TALT2	  2523#
$TALTM	  1134	  1436	  2520#
$TISIX	  1135	  2788#
$TOUB1	  3257	  3262#
$TOUB2	  3265	  3269#
$TOUB3	  3271#
$TOUT	  3153	  3159	  3181	  3197	  3212	  3229	  3237	  3245#
$TOUT2	  3269	  3289	  3300#
$TOUT3	  3303	  3328#
$TOUT4	  3307	  3314#
$TOUT5	  3308#	  3315	  3323
$TOUT6	  3305#	  3333
$TOUTA	  3275	  3280	  3285	  3287	  3294#
$TOUTB	  3252#
$TPCK	  2700	  2737#
$TPCLR	  1136	  2296	  2570#	  2656
$TPCNV	  1133	  2669#
$TPCV1	  2670	  2672	  2675#
$TPDEC	  1133	  2671#
$TPERR	  2690	  2701	  2713	  2727#	  2747	  2752	  2765
$TPEX1	  2718#	  2770	  2779
$TPEXT	  2696	  2698	  2712#                                                                                            SEQ 0361
$TPMUL	  2705	  2740#
$TPNBR	  2712	  2743#
$TPOCT	  1132	  2159	  2302	  2307	  2673#
$TSX1	  2788#	  2788	  2816
$TSX2	  2789#	  2789	  2817
$TSXB1	  2793#	  2811
$TSXB2	  2796	  2798	  2813#
$TSXB3	  2794	  2801	  2805	  2809	  2815#
$TSXB4	  2804	  2807#
$TTCHR	   672#	  2473	  2485	  2501	  2545	  2551	  2585
$TTLK	  1134	  2468#	  2520
$TTYIN	  1135	  2495#
$TTYSP	   860#
$TWCNT	   668#	  2512
$TYPIN	   948	  2460#
$TYPL1	  2703#
$TYPLP	  2689#	  2708	  2749	  2754
$TYPNB	   674#	  2680#	  2680	  2727
$UCK	   967	   979#
$UMODE	   551#	   979
$UMPV	  1831#
$UNXM	  1833#
$UOERX	  1006	  1073#	  1136	  1144	  1147	  1209
$UOPLE	  1021	  1023	  1027	  1029	  1032	  1034	  1085#
$UORTN	  1004	  1018#
$UORTX	   591#	  1082
$UOTAB	  1118	  1121#
$UPAR	  1827#
$UPDL	  1829#
$UPLER	  1008#	  1008	  1085	  1087
$USRF1	  3282	  3287#	  3290
$USRFC	  3274	  3279#
$USRFL	  3272	  3284#
$USRHL	   595#
$USRUO	  1039#
$USWTF	  2224	  2242#	  2242	  2311	  2315
$UUO37	  1067	  1103#
$UUOER	   592#	   633	  1007
$UUOIN	   946	  1004#
$VTF	   678#	  2850
$XUUO	  1052#	  1119
$YESNO	  1131	  2114	  2136	  2626#
$YN1	  2631#	  2657
$YN2	  2634	  2642	  2650#
$YN3	  2638	  2648	  2655#
$YN4	  2644	  2646	  2659#
%AC0	  1244#	  1244	  1250	  1424	  1426	  1427	  1477
%AC1	  1245#	  1245	  1251	  1353	  1377
%AC2	  1246#	  1246	  1252	  1355	  1379
%AC3	  1247#	  1247	  1253	  1357	  1381
%ACTFL	   625#	  1266#	  1266	  1373
%ACTUL	   626#	  1391#	  1391	  1397
%COREC	   624#	  1367#	  1367	  1396                                                                                     SEQ 0362
%CORFL	   623#	  1265#	  1265	  1349
%DISCR	   627#	  1329#	  1329	  1347	  1371	  1394	  1401
%EACR	  1250#	  1305	  1447
%EACR1	  1251#	  1418	  1471
%EACS	  1244#	  1264	  1430
%ERCNT	  1290#	  1290	  1460
%ERFLG	  1198#	  1198	  1210	  1273
%ERFST	  1450#	  1450	  1452
%ERHI1	   766#	  1262	  1263
%ERHI2	   767#	  1478	  1479
%ERHI3	   768#	  1306	  1307
%ERIN1	  1366	  1390	  1400	  3793#	  3795
%ERIN2	  1343	  3794#
%ERLP	  1065	  1198#
%ERLP0	  1207	  1210#
%ERLP1	  1205	  1214#
%ERLP2	  1203	  1218#
%ERMOR	  1420	  1423	  1427#
%ERP2A	  1351	  1359#
%ERP2B	  1334#
%ERP3A	  1375	  1383#
%ERPNT	  1272	  1277	  1284#
%ERPR1	  1315	  1321#
%ERPR2	  1312	  1325	  1329#
%ERPR3	  1348	  1368#
%ERPR4	  1372	  1393#
%ERPR5	  1395	  1406#
%ERPR6	  1408	  1412	  1416#
%ERPRA	  1292	  1450#
%ERPRB	  1294#	  1453
%ERS1A	  1447#
%ERSW1	  1279	  1288	  1436#
%ERSW2	  1443	  1458#
%ERSW3	  1465#
%ERUUO	  1066	  1258#
%ERX	  1223#	  1237
%ERX1	  1213	  1217	  1222	  1227#	  1238
%ERXTR	  1419#	  1419	  1425
%EXCAL	  1471#
%EXCL1	  1473	  1477#
%LUUO	  1259#	  1259	  1334
%REPT	  1064	  1236#
%RP	  1211	  1275	  1284#	  1284
%RP1	  1212	  1276	  1285#	  1285
.FHSLF	  1682	  3437
.ICILI	  1686
.ICIRD	  1686
.ICIWR	  1686
.ICPOV	  1686
.JB41	   405#
.JBAPR	   413#
.JBCNI	   414#
.JBDDT	   407#                                                                                                            SEQ 0363
.JBFF	   411#
.JBOPC	   416#
.JBREL	   406#
.JBREN	   412#
.JBSA	   410#
.JBSYM	   408#
.JBTPC	   415#
.JBUSY	   409#
.JBUUO	   404#
.JBVER	   417#
.PRIIN	  2478	  2572
.PRIOU	  2854	  2896	  3342	  3351	  3436
.TICCG	  1688

AIC	  1687
APRENB	  1679                                                                                                             SEQ 0364
ATI	  1689
BOUT	  3372
CFIBF	  2576
CFLUSH	   268#
CINVAL	   267#
CLOKOP	   262#
CLOSF	  3430
CLRBFI	  2574
CWRTBI	   269#
DEBRK	  1766	  1769	  1779
DEVCHR	  3491
DROPDV	   229#	  3304
EIR	  1685
ENDUUO	   275#	   581
EOPUUO	   276#	   583
ERJMP	  3398
ERLOOP	   320#
ERLP1	   321#
ERLP2	   322#
ERRHLT	   163#
ERROR	   329#
ERROR1	   340#
ERSTR	  3439
ERUUO	   319#
EXIT	  1588	  1901	  3524
FATAL	   162#	  1083	  1097	  1340	  1552	  1554	  1668	  1868	  1941	  1984
FRD36	   304#
FRD8	   305#
FREAD	   303#
FSELEC	   302#
GET	   146#	  1044	  1056	  1072	  1075	  1078	  1169	  1208	  1223	  1227	  1261	  1524	  1536	  1557
	  1568	  1582	  1585	  1613	  1855	  2312	  2368	  2369	  2370	  2481	  2482	  2486	  2487	  2502
	  2565	  2566	  2567	  2577	  2886	  2900	  2901	  2920	  2946	  2981	  2994	  3040	  3041	  3042
	  3043	  3044	  3086	  3087	  3088	  3089	  3090	  3322	  3352	  3353	  3355	  3356	  3357	  3373
	  3374	  3432	  3457	  3458	  3459
GETTAB	   912	   982	  1501
GO	   143#	   945	   946	   947	   948	   949	   950	   952	  1004	  1172	  1218	  1264	  1268	  1305
	  1418	  1425	  1430	  1431	  1432	  1436	  1447	  1471	  1528	  1558	  1578	  1604	  1763	  1880
	  2102	  2114	  2136	  2138	  2159	  2212	  2244	  2247	  2249	  2278	  2284	  2296	  2302	  2307
	  2334	  2341	  2358	  2407	  2422	  2503	  2508	  2520	  2535	  2633	  2641	  2656	  2689	  2793
	  2876	  2883	  3214	  3225	  3311	  3329	  3330	  3394	  3450	  3455
GTJFN	  3397
HALT	   148#	   602	   862	   863	   864	   865	   866	   867	   868	   869	   870	   909	   977	  1086
	  1091
HALTF	  1590	  1902	  3440	  3441	  3442
INCHRS	  2473
INCHRW	  2497	  2596
INCHWL	  2545
JEN	   150#
JRSTF	   149#
MAPADR	   285#
MAPCNK	   286#
MAPMEM	   282#                                                                                                            SEQ 0365
MAPPNT	   288#
MAPSET	   287#
MEMSEG	   284#
MEMZRO	   283#
MODPCP	   295#
MODPCU	   294#
MTROP	   263#
NAME	     9#	    12
OPENF	  3401
OUTCHR	  3309	  3319
OUTSTR	   986	   989	  3496	  3512	  3519	  3527	  3531
PBELL	   238#	  1466
PBIN	  2484	  2500
PBOUT	  3321	  3350	  3360
PCRL	   232#	  1081	  1413	  1416	  1659	  1865	  2072	  2095	  2602	  3037
PCRL2	   236#
PCRL2F	   237#
PCRLF	   233#	  1573	  1601	  1890	  2133	  2260	  2352	  2366	  2655	  3035
PFORCE	   240#	  1150	  1289	  1854
PGMINT	   156#	   880
PJRST	   147#
PMSG	   242#	  1074	  1296	  1299	  1302	  1624	  1630	  1638	  1640	  1644	  1646	  1649	  1651	  1655
	  1797	  1803	  1859	  2070
PMSGF	   245#	  1094	  1567	  1597	  1667	  1886	  2113	  2117	  2122	  2127	  2130	  2135	  2192	  2257
	  2273	  2277	  2301	  2306	  2631
PNT1	   198#
PNT11	   212#
PNT11F	   213#
PNT1F	   199#
PNT2	   200#
PNT2F	   201#
PNT3	   202#
PNT3F	   203#	  2184
PNT4	   204#
PNT4F	   205#
PNT5	   206#	  3112
PNT5F	   207#	  3110
PNT6	   208#	  1301	  1864	  3125	  3133
PNT6F	   209#	  1572	  1600	  3123	  3131
PNT7	   210#
PNT7F	   211#
PNTA	   184#	  1342
PNTADF	   215#	  3115
PNTADR	   214#	  2077	  2079	  3117
PNTAF	   185#
PNTAL	   186#	  1168
PNTALF	   187#	  1166
PNTCHF	   197#	  1153	  2992	  3029	  3066	  3081	  3127
PNTCHR	   196#	  1155	  2613	  2979	  3031	  3068	  3083	  3129
PNTCI	   194#	  1627	  1633	  2080
PNTCIF	   195#	  1889	  2357
PNTCW	   230#
PNTCWF	   231#                                                                                                            SEQ 0366
PNTDCF	   223#	  1888
PNTDEC	   222#	  1298	  1657	  2087
PNTDS	   224#
PNTDSF	   225#
PNTHW	   218#	  1076	  1080	  1304	  1799	  1807	  1861
PNTHWF	   219#	  1096	  2259	  2275
PNTMGN	   309#
PNTMSF	   191#	  2406
PNTMSG	   190#	  1623
PNTNM	   226#	  1451	  1566	  1596
PNTOCF	   221#
PNTOCS	   220#	  1626	  1629	  1632	  1635
PNTOCT	   216#
PNTOTF	   217#
PNTSIX	   227#
PNTSXF	   228#	  2189	  2356
PSIXL	   188#	  1163	  1316	  1318	  1326	  1328	  1364	  1388	  1398	  1415	  1858
PSIXLF	   189#	  1160
PSIXM	   192#	  1074	  1296	  1299	  1302	  1624	  1630	  1638	  1640	  1644	  1646	  1649	  1651	  1655
	  1797	  1803	  1859	  2070
PSIXMF	   193#	  1094	  1567	  1597	  1667	  1886	  2113	  2117	  2122	  2127	  2130	  2135	  2192	  2257
	  2273	  2277	  2301	  2306	  2632
PSOUT	   994	   996	  3415
PSP	   234#	  1077	  1862
PSPF	   235#
PUT	   145#	  1024	  1046	  1049	  1073	  1111	  1520	  1533	  1550	  1569	  1609	  1853	  2266	  2345
	  2346	  2347	  2476	  2477	  2499	  2554	  2555	  2556	  2570	  2894	  2895	  2974	  2987	  3004
	  3008	  3010	  3011	  3012	  3013	  3052	  3056	  3058	  3059	  3060	  3061	  3316	  3338	  3339
	  3340	  3344	  3345	  3368	  3369	  3428	  3444	  3445	  3446
RDTTY	  2562
REPTUO	   323#
RESET	   925
RFCOC	  3343
RFMOD	  2855	  2897
RTN	   144#	   589	  1009	  1058	  1170	  1183	  1228	  1248	  1254	  1480	  1505	  1508	  1537	  1660
	  1680	  1690	  1885	  1892	  1952	  2012	  2042	  2097	  2104	  2154	  2198	  2230	  2238	  2252
	  2254	  2261	  2313	  2371	  2408	  2419	  2423	  2429	  2435	  2461	  2470	  2474	  2483	  2505
	  2514	  2521	  2532	  2538	  2578	  2605	  2653	  2725	  2731	  2818	  2863	  2865	  2893	  2903
	  2915	  2982	  2995	  3045	  3091	  3120	  3230	  3358	  3361	  3375	  3406	  3425	  3434	  3460
	  3467	  3475	  3517
S	    64	    74#	    76	    80	   109	   111	   120	   123	   138	   139	   141	   152	   154	   158
	   160	   165	   169	   315	   317	   353	   355	   361	   363	   375	   377	   382	   384	   400
	   402	   419	   421	   431	   435	   440	   442	   447	   449	   456	   458	   465	   467	   480
	   482	   486	   488	   504	   510	   537	   539	   557	   559	   577	   579	   608	   610	   628
	   630	   648	   650	   658	   660	   681	   686	   712	   714	   721	   723	   729	   731	   737
	   739	   743	   745	   750	   752	   756	   758	   762	   764	   770	   772	   775	   777	   781
	   783	   787	   789	   793	   795	   799	   801	   806	   808	   812	   814	   818	   820	   822
	   824	   830	   832	   849	   851	   871	   873	   901	   903	   916	   918	   941	   943	   957
	   963	  1000	  1002	  1011	  1016	  1068	  1070	  1099	  1101	  1186	  1196	  1230	  1234	  1240
	  1242	  1256	  1282	  1332	  1362	  1386	  1404	  1435	  1445	  1456	  1463	  1469	  1482	  1518
	  1543	  1564	  1594	  1619	  1665	  1670	  1672	  1693	  1743	  1772	  1819	  1851	  1874	  1896
	  1906	  1914	  1923	  1932	  1954	  1988	  1991	  2013	  2016	  2059	  2100	  2111	  2143	  2157
	  2174	  2202	  2215	  2218	  2240	  2264	  2440	  2456	  2459	  2463	  2466	  2489	  2493	  2516     SEQ 0367
	  2518	  2539	  2541	  2579	  2583	  2617	  2622	  2664	  2667	  2687	  2710	  2735	  2758	  2783
	  2786	  2821	  2829	  2831	  2834	  2868	  2871	  2905	  2918	  2936	  2939	  2966	  2969	  2972
	  2985	  2996	  3002	  3046	  3050	  3095	  3100	  3142	  3145	  3174	  3177	  3184	  3186	  3203
	  3206	  3241	  3243	  3248	  3250	  3277	  3293	  3296	  3298	  3326	  3364	  3376	  3379	  3422
SFCOC	  3348	  3354
SFMOD	  2858	  2899
SIBE	  2479
SIR	  1684
SIXBTZ	   251#	  1313	  1319	  1321	  1344	  1368	  1393	  1811	  1814	  1835	  1838	  1841	  1846
SWITCH	   257#
SYSGT	  1497
TTALTM	   178#
TTICHR	   171#
TTICLR	   181#
TTICNV	   176#
TTIDEC	   175#
TTINO	   173#
TTIOCT	   174#
TTIYES	   172#
TTLOOK	   177#
TTSIXB	   179#
TTYINP	   180#
$MDSXB	    60#